0114010470999991973010106004+69017+023067FM-12+033099999V0201301N001019999999N0750001N9+00201+00101097471ADDAA199000591AY171999GF109991999001022501041001KA1999N+00001MD1710391+9999MW1011REMSYN00579500EQDQ01+000002SCOTLC
0057010470999991973010109004+69017+023067FM-12+033099999V0203201N01541021001CN0550001N9+00101+00101098171ADDAY101999GF105991051001022501041001MD1310601+9999MW1031
0092010470999991973010112004+69017+023067FM-12+033099999V0203101N00251220001CN0700001N9-00101-00201100922ADDAY121999GF104991041001022501041001MD1210992+9999MW1021EQDQ01+100923APOSLPQ02+000992APC3  
0076010470999991973010115004+69017+023067FM-12+033099999V0203401N00101021001CN0750001N9-00401-00501100941ADDAY121999GF105991051001022501041001MD1210622+9999MW1021EQDQ01+000622APC3  
0057010470999991973010118004+69017+023067FM-12+033099999V0201901N00251021001CN0700001N9-00701-00701101171ADDAY121999GF105991051001022501041001MD1210231+9999MW1021
0057010470999991973010206004+69017+023067FM-12+033099999V0201801N00461021001CN0550001N9-00201-00301099351ADDAY131999GF106991061001022501071001MD1710281+9999MW1021
0051010470999991973010209004+69017+023067FM-12+033099999V0201801N00461021001CN0300001N9+00001-00101099331ADDAY131999GF105991051001022501071001MD1710021+9999
0057010470999991973010212004+69017+023067FM-12+033099999V0202201N00251220001CN0550001N9-00101-00101099481ADDAY121999GF103991031001022501041001MD1210151+9999MW1011
0057010470999991973010215004+69017+023067FM-12+033099999V0202201N00251220001CN0550001N9-00201-00201099471ADDAY101999GF103991031001022501041001MD1710011+9999MW1021
0057010470999991973010218004+69017+023067FM-12+033099999V0202001N00251220001CN0700001N9-00201-00301099331ADDAY101999GF103991031001022501041001MD1710141+9999MW1021
0057010470999991973010306004+69017+023067FM-12+033099999V0203401N00251220001CN0700001N9-00701-00801099611ADDAY101999GF104991041001022501041001MD1210401+9999MW1021
0071010470999991973010309004+69017+023067FM-12+033099999V0203401N00101220001CN0700001N9-00901-00901999999ADDAY101999GF104991041001022501041001MD1210181+9999MW1021REMSYN00501184
0057010470999991973010315004+69017+023067FM-12+033099999V0209991C00001220001CN0750001N9-01301-01401101001ADDAY101999GF100991001001999999001001MD1210411+9999MW1021
0057010470999991973010318004+69017+023067FM-12+033099999V0202701N00251220001CN0700001N9-00801-00901101121ADDAY101999GF101991011001022501041001MD1210121+9999MW1031
0057010470999991973010400004+69017+023067FM-12+033099999V0202701N00251007501CN0550001N9-00701-00801101391ADDAY101999GF108991081051008001999999MD1010011+9999MW1031
0057010470999991973010406004+69017+023067FM-12+033099999V0201801N00101220001CN0550001N9-01401-01501101081ADDAY121999GF103991031001022501041001MD1710301+9999MW1011
0076010470999991973010412004+69017+023067FM-12+033099999V0201801N00251007501CN0300001N9-01101-01101100101ADDAY121999GF108991081051008001999999MD1710592+9999MW1701EQDQ01+000592APC3  
0076010470999991973010415004+69017+023067FM-12+033099999V0201801N00251004201CN0050001N9-00701-00701099382ADDAY171999GF108991081051004501999999MD1710721+9999MW1711EQDQ01+099383APOSLP
0057010470999991973010500004+69017+023067FM-12+033099999V0201801N00251007501CN0300001N9+00001-00101098541ADDAY121999GF108991081051008001999999MD1710201+9999MW1361
0081010470999991973010506004+69017+023067FM-12+033099999V0201801N00101220001CN0700001N9-00101-00201098571ADDAA199000091AY121999GF103991031001022501041001KA1999N-00601MD1210031+9999MW1011
0090010470999991973010512004+69017+023067FM-12+033099999V0202601N00251220001CN0700001N9+00101-00101099741ADDAY101999GF104991041001022501041001MD1210992+9999MW1021REMSYN00599102EQDQ01+000992APC3  
0057010470999991973010515004+69017+023067FM-12+033099999V0202801N00251220001CN0550001N9+00001-00201099881ADDAY101999GF104991041001022501041001MD1210141+9999MW1021
0100010470999991973010806004+69017+023067FM-12+033099999V0203401N00671007501CN0025001N9-00401-00401100461ADDAA199001091AY171999GF108991081051008001999999KA1999N-00401MD1210602+9999MW1701EQDQ01+000602APC3  
0057010470999991973010812004+69017+023067FM-12+033099999V0203201N00251021001CN0700001N9-00701-00901101351ADDAY121999GF106991061001022501071001MD1210331+9999MW1011
0057010470999991973010815004+69017+023067FM-12+033099999V0209991C00001007501CN0550001N9-00801-00901101481ADDAY121999GF108991081051008001999999MD1210131+9999MW1031
0073010470999991973010818004+69017+023067FM-12+033099999V0209991C00001007501CN0550001N9-00801-00801999999ADDAA199999929GF108991081051008001999999KA1999M-00401MD1210121+9999MW1021
0081010470999991973010906004+69017+023067FM-12+033099999V0201801N00101007501CN0550001N9-00801-00801100981ADDAA199001091AY171999GF108991081051008001999999KA1999N-00901MD1710401+9999MW1021
0057010470999991973010909004+69017+023067FM-12+033099999V0201801N00251007501CN0550001N9-00501-00501100301ADDAY121999GF108991081051008001999999MD1710681+9999MW1021
0057010470999991973010912004+69017+023067FM-12+033099999V0201801N00251007501CN0550001N9-00401-00401099771ADDAY121999GF108991081051008001999999MD1710531+9999MW1021
0081010470999991973010918004+69017+023067FM-12+033099999V0209991C00001021001CN0700001N9+00001+00001099361ADDAA199000091AY121999GF106991061001022501071001KA1999M+00001MD1710131+9999MW1011
0081010470999991973011006004+69017+023067FM-12+033099999V0201601N00251021001CN0550001N9-00501-00601099981ADDAA199000591AY131999GF107991071001022501071001KA1999N-00501MD1210261+9999MW1031
0057010470999991973011009004+69017+023067FM-12+033099999V0203301N00251012001CN0550001N9-00201-00301100251ADDAY121999GF105991051081008001001001MD1210271+9999MW1011
0076010470999991973011015004+69017+023067FM-12+033099999V0202801N00101220001CN0700001N9-00201-00301101302ADDAY121999GF104991041001022501071001MD1210411+9999MW1021EQDQ01+101303APOSLP
0057010470999991973011109004+69017+023067FM-12+033099999V0201201N00101007501CN0700001N9-00101-00101101271ADDAY121999GF108991081051008001999999MD1710031+9999MW1021
0057010470999991973011112004+69017+023067FM-12+033099999V0209991C00001021001CN0700001N9+00301+00001101231ADDAY121999GF105991051001022501071001MD1710041+9999MW1011
0057010470999991973011115004+69017+023067FM-12+033099999V0202701N00251220001CN0700001N9+00301+00001101351ADDAY121999GF102991021001022501041001MD1210121+9999MW1011
0057010470999991973011209004+69017+023067FM-12+033099999V0209991C00001007501CN0700001N9+00001-00301101171ADDAY121999GF108991081051008001999999MD1210021+9999MW1021
0057010470999991973011212004+69017+023067FM-12+033099999V0201901N00251021001CN0700001N9+00301-00101100951ADDAY121999GF106991061001022501071001MD1710221+9999MW1011
0057010470999991973011215004+69017+023067FM-12+033099999V0202001N00251220001CN0700001N9+00201+00001100491ADDAY121999GF103991031001022501041001MD1710461+9999MW1011
0081010470999991973011306004+69017+023067FM-12+033099999V0203501N00251220001CN0700001N9-00201-00301101321ADDAA199000091AY101999GF102991021001022501041001KA1999N-00201MD1210371+9999MW1011
0057010470999991973011309004+69017+023067FM-12+033099999V0203001N00461007501CN0700001N9-00201-00201101871ADDAY101999GF106991061051008001001001MD1210551+9999MW1031
0057010470999991973011312004+69017+023067FM-12+033099999V0202801N00101007501CN0700001N9-00301-00401102411ADDAY121999GF108991081051008001999999MD1210541+9999MW1031
0057010470999991973011315004+69017+023067FM-12+033099999V0209991C00001007501CN0700001N9-00301-00401102791ADDAY181999GF108991081051008001999999MD1210381+9999MW1021
0081010470999991973011318004+69017+023067FM-12+033099999V0209991C00001007501CN0700001N9-00301-00401102891ADDAA199000091AY181999GF107991071051008001999999KA1999M-00101MD1210101+9999MW1021
0057010470999991973011400004+69017+023067FM-12+033099999V0209991C00001021001CN0700001N9-01001-01101102961ADDAY121999GF105991051001022501041001MD1710121+9999MW1011
0081010470999991973011406004+69017+023067FM-12+033099999V0209991C00001021001CN0700001N9-00901-01001102961ADDAA199000091AY121999GF105991051001022501041001KA1999N-01101MD1710281+9999MW1021
0057010470999991973011409004+69017+023067FM-12+033099999V0209991C000019999999N0700001N9-00901+99999102161ADDAY121999GF106991061001000751011001MD1010021+9999MW1021
0057010470999991973011412004+69017+023067FM-12+033099999V0201801N00101220001CN0700001N9-01201-01201102031ADDAY121999GF104991031001022501041011MD1710131+9999MW1011
0057010470999991973011415004+69017+023067FM-12+033099999V0201801N00101220001CN0700001N9-01301-01301101751ADDAY101999GF103991031081022501041001MD1710281+9999MW1021
0057010470999991973011500004+69017+023067FM-12+033099999V0209991C00001220001CN0700001N9-01301-01301101371ADDAY101999GF102991021001022501041001MD1710051+9999MW1021
0073010470999991973011506004+69017+023067FM-12+033099999V0209991C00001220001CN0700001N9-01201-01201101111ADDAA199000091GF104991999001022501041001KA1999N-01401MD1710041+9999MW1031
0057010470999991973011512004+69017+023067FM-12+033099999V0201701N00101007501CN0700001N9-00901-00901100921ADDAY121999GF108991081051008001999999MD1710121+9999MW1021
0081010470999991973011518004+69017+023067FM-12+033099999V0209991C00001007501CN0700001N9-01101-01101100781ADDAA199000091AY121999GF107991071051008001999999KA1999M-00801MD1710051+9999MW1021
0081010470999991973011606004+69017+023067FM-12+033099999V0209991C00001007501CN0700001N9-00701-00701100691ADDAA199000091AY121999GF108991081051008001999999KA1999N-01101MD1210031+9999MW1021
0057010470999991973011609004+69017+023067FM-12+033099999V0209991C00001007501CN0700001N9-00801-00801100851ADDAY121999GF108991081051008001999999MD1210161+9999MW1021
0057010470999991973011615004+69017+023067FM-12+033099999V0209991C00001007501CN0700001N9-00701-00701101181ADDAY121999GF108991081051008001999999MD1210131+9999MW1021
0057010470999991973011709004+69017+023067FM-12+033099999V0209991C00001007501CN0700001N9-00501-00501101551ADDAY121999GF108991081051008001999999MD1210101+9999MW1021
0057010470999991973011712004+69017+023067FM-12+033099999V0209991C00001007501CN0700001N9-00601-00701101571ADDAY121999GF108991081051008001999999MD1210051+9999MW1021
0057010470999991973011715004+69017+023067FM-12+033099999V0209991C00001007501CN0700001N9-00701-00801101691ADDAY121999GF108991081051008001999999MD1210121+9999MW1021
0081010470999991973011718004+69017+023067FM-12+033099999V0201901N00251007501CN0700001N9-00601-00701101751ADDAA199000091AY121999GF108991081051008001999999KA1999M-00501MD1210061+9999MW1021
0057010470999991973011812004+69017+023067FM-12+033099999V0201801N00251007501CN0550001N9-00401-00501102131ADDAY181999GF108991081051008001999999MD1210071+9999MW1021
0057010470999991973011815004+69017+023067FM-12+033099999V0201801N00101007501CN0550001N9-00401-00501102191ADDAY121999GF108991081051008001999999MD1210061+9999MW1021
0081010470999991973011818004+69017+023067FM-12+033099999V0201801N00251007501CN0550001N9-00501-00501102321ADDAA199000091AY121999GF108991081051008001999999KA1999M-00401MD1210131+9999MW1021
0095010470999991973011906004+69017+023067FM-12+033099999V0209991C00001007501CN0200001N9-00501-00501102551ADDAA199002091AY171999GF108991081051008001999999KA1999N-00601MD1210101+9999MW1701REMSYN00570256
0057010470999991973011909004+69017+023067FM-12+033099999V0209991C00001007501CN0200001N9-00501-00501102731ADDAY171999GF108991081051008001999999MD1210181+9999MW1701
0057010470999991973011912004+69017+023067FM-12+033099999V0201701N00101007501CN0550001N9-00501-00501102861ADDAY171999GF108991081051008001999999MD1210131+9999MW1021
0057010470999991973011915004+69017+023067FM-12+033099999V0209991C00001220001CN0750001N9-00901-00901103031ADDAY121999GF104991041001022501041001MD1210171+9999MW1011
0095010470999991973011918004+69017+023067FM-12+033099999V0209991C00001021001CN0550001N9-01001-01001103131ADDAA199000591AY121999GF105991051001022501041001KA1999M-00401MD1210101+9999MW1021REMSYN00579554
0057010470999991973012015004+69017+023067FM-12+033099999V0209991C00001021001CN0550001N9-02201-02201103531ADDAY121999GF105991051001022501071001MD1210171+9999MW1021
0071010470999991973012018004+69017+023067FM-12+033099999V0209991C00001021001CN0550001N9-02201-02201103581ADDAY121999GF105991051001022501071001MD1010001+9999MW1021REMSYN00501***
0057010470999991973012109004+69017+023067FM-12+033099999V0209991C00001007501CN0700001N9-02401-02401103291ADDAY121999GF107991071051008001999999MD1710141+9999MW1021
0057010470999991973012115004+69017+023067FM-12+033099999V0209991C00001021001CN0700001N9-02501-02601103091ADDAY121999GF105991051001022501071001MD1710161+9999MW1021
0057010470999991973012200004+69017+023067FM-12+033099999V0209991C00001220001CN0300001N9-01901-01901102541ADDAY121999GF104991041001022501041001MD1710121+9999MW1101
0057010470999991973012212004+69017+023067FM-12+033099999V0209991C00001220001CN0700001N9-02501-02501102481ADDAY101999GF104991041001022501041001MD1210071+9999MW1021
0081010470999991973012218004+69017+023067FM-12+033099999V0209991C00001220001CN0700001N9-02901-03001102831ADDAA199000091AY101999GF102991021001022501041001KA1999M-02001MD1210161+9999MW1021
0081010470999991973012306004+69017+023067FM-12+033099999V0209991C00001220001CN0700001N9-02701-02801103231ADDAA199000091AY101999GF101991011001022501041001KA1999N-02901MD1210101+9999MW1011
0057010470999991973012309004+69017+023067FM-12+033099999V0209991C00001220001CN0700001N9+99999+99999103341ADDAY101999GF104991041001022501071001MD1210111+9999MW1031
0057010470999991973012315004+69017+023067FM-12+033099999V0209991C00001021001CN0700001N9-02501-02601103381ADDAY101999GF105991051001022501071001MD1710011+9999MW1031
0057010470999991973012400004+69017+023067FM-12+033099999V0209991C00001021001CN0700001N9-01501-01501102721ADDAY121999GF105991051001022501071001MD1710201+9999MW1021
0100010470999991973012406004+69017+023067FM-12+033099999V0209991C00001007501CN0550001N9-00801-00801101741ADDAA199000091AY121999GF108991081051008001999999KA1999N-02501MD1710552+9999MW1031EQDQ01+000552APC3  
0057010470999991973012409004+69017+023067FM-12+033099999V0201401N00461007501CN0550001N9-00701-00701101221ADDAY131999GF108991081051008001999999MD1710521+9999MW1021
0057010470999991973012412004+69017+023067FM-12+033099999V0202001N00461007501CN0050001N9-00301-00301100751ADDAY131999GF108991081051008001999999MD1710471+9999MW1021
0057010470999991973012415004+69017+023067FM-12+033099999V0209991C00001007501CN0550001N9-00201-00201100441ADDAY121999GF108991081051008001999999MD1710311+9999MW1021
0081010470999991973012418004+69017+023067FM-12+033099999V0201801N001019999999N0550001N9+99999+99999100991ADDAA199000091AY121999GF108991999999999999999999KA1999M-00201MD1710241+9999MW1021
0057010470999991973012509004+69017+023067FM-12+033099999V0202701N00101007501CN0550001N9-00101-00101099541ADDAY121999GF108991081051008001999999MD1210271+9999MW1021
0057010470999991973012512004+69017+023067FM-12+033099999V0209991C00001220001CN0700001N9-00401-00501099871ADDAY121999GF103991031001022501041001MD1210331+9999MW1011
0057010470999991973012515004+69017+023067FM-12+033099999V0209991C00001220001CN0700001N9-00801-00801100011ADDAY101999GF102991021001022501041001MD1210171+9999MW1021
0076010470999991973012600004+69017+023067FM-12+033099999V0209991C000019999999N0700001N9-01701-01701099981ADDAY101999GF108991999001022501041001MD1710231+9999MW1021EQDQ01+000022SCOTLC
0100010470999991973012606004+69017+023067FM-12+033099999V0201501N00101007501CN0450001N9-00601-00601099281ADDAA199000091AY121999GF108991081051008001999999KA1999N-01801MD1710672+9999MW1031EQDQ01+000672APC3  
0057010470999991973012612004+69017+023067FM-12+033099999V0201001N00251007501CN0300001N9-01101-01101099401ADDAY171999GF108991081051008001999999MD1210141+9999MW1701
0057010470999991973012615004+69017+023067FM-12+033099999V0200601N00101007501CN0300001N9-01501-01601099641ADDAY131999GF108991081051008001999999MD1210241+9999MW1361
0081010470999991973012618004+69017+023067FM-12+033099999V0200701N00101007501CN0300001N9-01701-01901099851ADDAA199003091AY171999GF108991081051008001999999KA1999M-01501MD1210211+9999MW1711
0071010470999991973012700004+69017+023067FM-12+033099999V0201101N00101007501CN0550001N9-01701-01901100061ADDAY171999GF108991081051008001999999MD1010001+9999MW1021REMSYN00501***
0075010470999991973012706004+69017+023067FM-12+033099999V0209991C00001007501CN0700001N9-01701-01901999999ADDAA199000291AY181999GF108991081051008001999999KA1999N-01701MD1210151+9999
0057010470999991973012715004+69017+023067FM-12+033099999V0209991C00001030001CN0700001N9-01801-02001101001ADDAY101999GF105991021011012501071001MD1210301+9999MW1011
0081010470999991973012718004+69017+023067FM-12+033099999V0209991C00001030001CN0700001N9-02801-02901101101ADDAA199000291AY121999GF106991021011008001071001KA1999M-01701MD1210101+9999MW1031
0081010470999991973012806004+69017+023067FM-12+033099999V0209991C00001007501CN0700001N9-01801-01901101891ADDAA199000091AY121999GF108991081051008001999999KA1999N-01901MD1210071+9999MW1021
0057010470999991973012809004+69017+023067FM-12+033099999V0201701N00101007501CN0550001N9-01801-01801101421ADDAY121999GF108991081051008001999999MD1710471+9999MW1021
0076010470999991973012815004+69017+023067FM-12+033099999V0209991C00001021001CN0700001N9-01801-01901101421ADDAY121999GF108991999001022501071001MD1410001+9999MW1021EQDQ01+000052SCOTLC
0081010470999991973012906004+69017+023067FM-12+033099999V0209999999999007501CN0550001N9-01901-02001101121ADDAA199999929AY121999GF108991081051008001999999KA1999N-02001MD1010001+9999MW1021
0057010470999991973012909004+69017+023067FM-12+033099999V0209991C00001220001CN0700001N9-01901-02001101181ADDAY111999GF103991031001022501041001MD1210061+9999MW1011
0057010470999991973012912004+69017+023067FM-12+033099999V0209991C00001220001CN0700001N9-02101-02201101171ADDAY121999GF102991021001022501041001MD1710011+9999MW1021
0057010470999991973012915004+69017+023067FM-12+033099999V0209991C00001007501CN0550001N9-02201-02301101171ADDAY121999GF108991081051008001999999MD1410001+9999MW1031
0081010470999991973012918004+69017+023067FM-12+033099999V0209991C00001007501CN0550001N9-02301-02401101141ADDAA199000091AY121999GF108991081051008001999999KA1999M-01801MD1710031+9999MW1021
0081010470999991973013006004+69017+023067FM-12+033099999V0209991C00001220001CN0700001N9-01501-01501100601ADDAA199000091AY101999GF103991031001022501041001KA1999N-02301MD1710101+9999MW1021
0057010470999991973013012004+69017+023067FM-12+033099999V0209991C00001007501CN0550001N9-01301-01301100671ADDAY121999GF108991081051008001999999MD1210011+9999MW1021
0057010470999991973013015004+69017+023067FM-12+033099999V0209991C00001007501CN0550001N9-01301-01301100781ADDAY121999GF108991081051008001999999MD1210111+9999MW1021
0081010470999991973013018004+69017+023067FM-12+033099999V0209991C00001220001CN0550001N9-02001-02001101031ADDAA199000091AY121999GF103991031001022501041001KA1999M-01301MD1210251+9999MW1011
0076010470999991973013109004+69017+023067FM-12+033099999V0209991C00001007501CN9999999N9-00601-00601100751ADDAY121999GF108991081051008001999999MD1710261+9999MW1461EQDQ01+250002VODIS 
0057010470999991973013115004+69017+023067FM-12+033099999V0201801N00101002101CN0550001N9-00501-00501100431ADDAY121999GF108991081051002501999999MD1710221+9999MW1021
0095010470999991973013118004+69017+023067FM-12+033099999V0201801N00251007501CN0550001N9-00401-00401100261ADDAA199000091AY121999GF108991081051008001999999KA1999M-00401MD1710171+9999MW1021REMSYN00570054
0081010470999991973020106004+69017+023067FM-12+033099999V0201801N00101220001CN0700001N9-00601-00601099921ADDAA199000091AY121999GF103991031001022501041001KA1999N-00601MD1710051+9999MW1011
0057010470999991973020109004+69017+023067FM-12+033099999V0201801N00251012001CN0700001N9-00601-00601099921ADDAY101999GF106991061081008001001001MD1410001+9999MW1031
0057010470999991973020112004+69017+023067FM-12+033099999V0209991C00001012001CN0700001N9-00601-00701099831ADDAY121999GF106991061081008001001001MD1710091+9999MW1021
0057010470999991973020115004+69017+023067FM-12+033099999V0201801N00101012001CN0700001N9-00701-00801099851ADDAY121999GF106991061081008001001001MD1210021+9999MW1021
0057010470999991973020209004+69017+023067FM-12+033099999V0209991C00001007501CN0550001N9-00701-00701098781ADDAY121999GF108991081051008001999999MD1710451+9999MW1021
0057010470999991973020212004+69017+023067FM-12+033099999V0201801N00251007501CN0550001N9-00801-00801098341ADDAY121999GF108991081051008001999999MD1710441+9999MW1021
0057010470999991973020215004+69017+023067FM-12+033099999V0201801N00251007501CN0550001N9-00701-00701097881ADDAY171999GF108991081051008001999999MD1710461+9999MW1021
0057010470999991973020300004+69017+023067FM-12+033099999V0209991C00001007501CN0550001N9-00801-00801098171ADDAY121999GF108991081051008001999999MD1210301+9999MW1021
0081010470999991973020306004+69017+023067FM-12+033099999V0209991C00001220001CN0700001N9-01001-01001098801ADDAA199999929AY121999GF103991031001022501041001KA1999N-01001MD1210301+9999MW1011
0057010470999991973020309004+69017+023067FM-12+033099999V0203401N00461007501CN0700001N9-00301-00301099131ADDAY121999GF108991081051008001999999MD1210331+9999MW1031
0057010470999991973020312004+69017+023067FM-12+033099999V0203301N004619999999N0700001N9-00601-00801099531ADDAY131999GF105991999091001501071001MD1210401+9999MW1361
0057010470999991973020315004+69017+023067FM-12+033099999V0203401N00461021001CN0700001N9-00701-00801099751ADDAY121999GF106991061001022501071001MD1210221+9999MW1021
0057010470999991973020400004+69017+023067FM-12+033099999V0209991C00001220001CN0550001N9-02001-02101999999ADDAY121999GF104991041001022501041001MD1210381+9999MW1021
0081010470999991973020406004+69017+023067FM-12+033099999V0202801N00671220001CN0700001N9-00901-01001101081ADDAA199000091AY121999GF102991021001022501041001KA1999N-02101MD1210191+9999MW1011
0057010470999991973020412004+69017+023067FM-12+033099999V0209991C00001007501CN0700001N9-01101-01201101041ADDAY121999GF108991081051008001999999MD1710091+9999MW1031
0043010470999991973020415004+69017+023067FM-12+033099999V0209991C00001007501CN0700001N9-01101-01201100751ADDGF108991081051008001999999MD1710251+9999
0081010470999991973020418004+69017+023067FM-12+033099999V0209991C00001007501CN0045001N9-01001-01001100391ADDAA199999929AY121999GF108991081051008001999999KA1999M-00801MD1710361+9999MW1701
0057010470999991973020500004+69017+023067FM-12+033099999V0209991C00001007501CN0550001N9-00901-00901099591ADDAY121999GF108991081051008001999999MD1710301+9999MW1021
0081010470999991973020506004+69017+023067FM-12+033099999V0209991C00001007501CN0550001N9-00901-00901098901ADDAA199002091AY171999GF108991081051008001999999KA1999N-01201MD1710301+9999MW1021
0057010470999991973020509004+69017+023067FM-12+033099999V0209991C00001007501CN0700001N9-00801-00801098791ADDAY121999GF108991081051008001999999MD1710111+9999MW1021
0057010470999991973020512004+69017+023067FM-12+033099999V0209991C00001007501CN0700001N9-00901-00901098691ADDAY121999GF108991081051008001999999MD1710101+9999MW1021
0057010470999991973020515004+69017+023067FM-12+033099999V0209991C00001007501CN0700001N9-01001-01001098621ADDAY121999GF108991081051008001999999MD1710071+9999MW1021
0057010470999991973020600004+69017+023067FM-12+033099999V0209991C00001007501CN0550001N9-01101-01101098391ADDAY121999GF108991081051008001999999MD1410001+9999MW1021
0095010470999991973020606004+69017+023067FM-12+033099999V0209991C000019999999N0030001N9-02601-02601098511ADDAA199000091AY141999GF108991999999999999999999KA1999N-02601MD1710121+9999MW1451REMSYN00570076
0057010470999991973020609004+69017+023067FM-12+033099999V0209991C00001007501CN0550001N9-01601-01601098391ADDAY121999GF106991061051008001999999MD1710121+9999MW1011
0057010470999991973020612004+69017+023067FM-12+033099999V0209991C00001220001CN0700001N9-01601-01601098231ADDAY121999GF102991021001022501041001MD1710161+9999MW1011
0081010470999991973020618004+69017+023067FM-12+033099999V0209991C00001220001CN0700001N9-02701-02801098071ADDAA199000091AY101999GF101991011001022501041001KA1999M-01501MD1710101+9999MW1021
0057010470999991973020700004+69017+023067FM-12+033099999V0209991C00001220001CN0700001N9-02601-02701097871ADDAY101999GF102991021001022501041001MD1710121+9999MW1021
0081010470999991973020706004+69017+023067FM-12+033099999V0209991C000019999999N0550001N9-02501-02501097781ADDAA199000091AY121999GF108991999999999999999999KA1999N-02901MD1410001+9999MW1031
0057010470999991973020709004+69017+023067FM-12+033099999V0209991C00001007501CN9999999N9-02501-02501097941ADDAY141999GF108991081051008001999999MD1210161+9999MW1461
0057010470999991973020712004+69017+023067FM-12+033099999V0209991C00001007501CN9999999N9-02601-02701098001ADDAY141999GF106991061051008001001001MD1210061+9999MW1421
0081010470999991973020718004+69017+023067FM-12+033099999V0209991C00001007501CN0550001N9-02601-02701098061ADDAA199000091AY141999GF108991081051008001999999KA1999M-02401MD1210071+9999MW1021
0081010470999991973020806004+69017+023067FM-12+033099999V0209991C00001021001CN0550001N9-02701-02801098161ADDAA199000091AY121999GF105991051001022501071001KA1999N-02801MD1210151+9999MW1021
0076010470999991973020809004+69017+023067FM-12+033099999V0209991C00001007501CN9999999N9-02201-02301098792ADDAY121999GF108991081051008001999999MD1210031+9999MW1461EQDQ01+098793APOSLP
0057010470999991973020812004+69017+023067FM-12+033099999V0209991C00001220001CN0700001N9-02601-02701098331ADDAY121999GF104991001001999999001011MD1210141+9999MW1011
0081010470999991973020818004+69017+023067FM-12+033099999V0209991C00001021001CN0550001N9+99999+99999098661ADDAA199000091AY121999GF105991051001022501071001KA1999M-02201MD1210011+9999MW1021
0043010470999991973020900004+69017+023067FM-12+033099999V0209991C00001220001CN0550001N9+99999+99999098711ADDAY121999GF102991021001022501041001MW1011
0081010470999991973020906004+69017+023067FM-12+033099999V0209991C00001220001CN0550001N9-03301-03401098871ADDAA199000091AY101999GF102991021001022501041001KA1999N-03301MD1210081+9999MW1021
0057010470999991973020909004+69017+023067FM-12+033099999V0209991C00001021001CN0550001N9-03001-03101098901ADDAY101999GF106991061001022501071001MD1210031+9999MW1031
0057010470999991973020912004+69017+023067FM-12+033099999V0209991C00001220001CN0700001N9-03101-03201098961ADDAY121999GF104991041001022501071001MD1210061+9999MW1011
0057010470999991973020915004+69017+023067FM-12+033099999V0209991C00001220001CN0700001N9-03301-03401099071ADDAY101999GF104991041001022501071001MD1210111+9999MW1021
0081010470999991973021006004+69017+023067FM-12+033099999V0209991C00001007501CN0550001N9-02801-02801099511ADDAA199000091AY101999GF108991081051008001999999KA1999N-02801MD1210101+9999MW1031
0057010470999991973021009004+69017+023067FM-12+033099999V0209991C00001007501CN0550001N9-02501-02601099531ADDAY121999GF108991081051008001999999MD1210021+9999MW1021
0057010470999991973021012004+69017+023067FM-12+033099999V0209991C00001007501CN0550001N9-02601-02701099481ADDAY141999GF108991081051008001999999MD1710051+9999MW1021
0057010470999991973021015004+69017+023067FM-12+033099999V0209991C00001007501CN0550001N9+99999+99999099661ADDAY121999GF108991081051008001999999MD1210181+9999MW1021
0081010470999991973021018004+69017+023067FM-12+033099999V0209991C00001220001CN0700001N9-02801-02901099761ADDAA199000091AY121999GF103991031001022501041001KA1999M-02501MD1210101+9999MW1011
0057010470999991973021109004+69017+023067FM-12+033099999V0209991C00001007501CN0700001N9-02601-02601100471ADDAY121999GF108991081051008001999999MD1210151+9999MW1031
0057010470999991973021115004+69017+023067FM-12+033099999V0209991C00001021001CN0700001N9-02401-02501100151ADDAY121999GF106991061001022501071001MD1710281+9999MW1011
0081010470999991973021206004+69017+023067FM-12+033099999V0201801N00671007501CN0300001N9-00801-00801098121ADDAA199000591AY131999GF108991081051008001999999KA1999N-01501MD1710451+9999MW1361
0057010470999991973021209004+69017+023067FM-12+033099999V0201701N00671004201CN9999999N9-00801-00801097811ADDAY131999GF108991081051004501999999MD1710311+9999MW1391
0057010470999991973021215004+69017+023067FM-12+033099999V0201601N00461007501CN0300001N9-00601-00601097371ADDAY131999GF108991081051008001999999MD1710281+9999MW1361
0057010470999991973021300004+69017+023067FM-12+033099999V0201801N00671002101CN0020001N9-00201-00201999999ADDAY131999GF108991081051002501999999MD1210031+9999MW1381
0081010470999991973021306004+69017+023067FM-12+033099999V0201701N00971002101CN9999999N9-00401-00401097281ADDAA199000591AY131999GF108991081051002501999999KA1999N-00501MD1210021+9999MW1391
0057010470999991973021309004+69017+023067FM-12+033099999V0201701N00971004201CN0030001N9-00501-00501097391ADDAY131999GF108991081051004501999999MD1210111+9999MW1381
0043010470999991973021312004+69017+023067FM-12+033099999V0201701N00461007501CN0300001N9+99999+99999999999ADDGF108991081051008001999999MD1210121+9999
0057010470999991973021315004+69017+023067FM-12+033099999V0201801N00461007501CN0300001N9-00801-00801097551ADDAY131999GF108991081051008001999999MD1210041+9999MW1361
0081010470999991973021318004+69017+023067FM-12+033099999V0201801N00251007501CN0550001N9-00801-00901097671ADDAA199000091AY131999GF108991081051008001999999KA1999M-00201MD1210121+9999MW1021
0081010470999991973021418004+69017+023067FM-12+033099999V0201801N00251007501CN0550001N9-00201+99999097491ADDAA199000091AY121999GF108991081051008001999999KA1999M-00201MD1010001+9999MW1021
0076010470999991973021500004+69017+023067FM-12+033099999V0209991C00001220001CN0700001N9-00901-00901098302ADDAY121999GF103991031001022501041001MD1210451+9999MW1011EQDQ01+098303APOSLP
0043010470999991973021800004+69017+023067FM-12+033099999V0209991C00001220001CN0700001N9-02401-02501102831ADDAY101999GF101991011001022501041001MW1021
0081010470999991973021806004+69017+023067FM-12+033099999V0201801N00251030001CN0550001N9-02301-02301102591ADDAA199000091AY121999GF108991041071004501021999KA1999N-02501MD1710121+9999MW1021
0057010470999991973021809004+69017+023067FM-12+033099999V0209991C000019999999N0020001N9-01501-01501102101ADDAY141999GF199999091999999999999999MD1710491+9999MW1471
0057010470999991973021812004+69017+023067FM-12+033099999V0209991C00001004201CN0035001N9-01301-01301101951ADDAY141999GF108991081051004501999999MD1710151+9999MW1101
0057010470999991973021815004+69017+023067FM-12+033099999V0209991C00001007501CN0050001N9-00801-00801101491ADDAY141999GF108991081051008001999999MD1710461+9999MW1101
0081010470999991973021818004+69017+023067FM-12+033099999V0201801N00461004201CN0200001N9-00701-00701101181ADDAA199999929AY121999GF108991081051004501999999KA1999M-00501MD1010001+9999MW1701
0057010470999991973021900004+69017+023067FM-12+033099999V0201801N00251004201CN0550001N9-00501-00501100721ADDAY131999GF108991081051004501999999MD1710151+9999MW1021
0071010470999991973021906004+69017+023067FM-12+033099999V0201801N002519999999N0030001N9-00401-00401101271ADDAY171999GF108991031051004501999999MD1010001+9999MW1701REMSYN00501***
0076010470999991973021912004+69017+023067FM-12+033099999V0201801N00461007501CN0550001N9-00301-00301099932ADDAY131999GF108991081051008001999999MD1710081+9999MW1021EQDQ01+099933APOSLP
0081010470999991973021918004+69017+023067FM-12+033099999V0202001N00251220001CN0700001N9+99999+99999999999ADDAA199000291AY121999GF103991999021012501001999KA1999M-00301MD1710031+9999MW1011
0057010470999991973022015004+69017+023067FM-12+033099999V0209991C00001012001CN0700001N9-00701-01001097811ADDAY121999GF107991071081008001001001MD1210061+9999MW1031
0081010470999991973022018004+69017+023067FM-12+033099999V0201801N00251220001CN0700001N9-00901-01201097801ADDAA199000091AY121999GF102991021001022501041001KA1999M-00401MD1710011+9999MW1011
0057010470999991973022100004+69017+023067FM-12+033099999V0201801N00671004201CN9999999N9-00401-00501098001ADDAY131999GF108991081051004501999999MD1210271+9999MW1381
0081010470999991973022106004+69017+023067FM-12+033099999V0209991C00001021001CN0700001N9-01001-01101098371ADDAA199006091AY171999GF105991051001022501071001KA1999N-01101MD1410001+9999MW1011
0076010470999991973022109004+69017+023067FM-12+033099999V0209991C00001220001CN0700001N9-00701-00901999999ADDAY181999GF104991041001022501071001MD1210041+9999MW1011EQDQ01+099443APOSLP
0057010470999991973022112004+69017+023067FM-12+033099999V0202901N00461220001CN0700001N9-00401-00601098731ADDAY101999GF103991031001022501041001MD1210291+9999MW1011
0057010470999991973022115004+69017+023067FM-12+033099999V0202901N00251220001CN0700001N9-00801-01101099061ADDAY101999GF103991031001022501041001MD1210331+9999MW1021
0081010470999991973022206004+69017+023067FM-12+033099999V0209991C00001007501CN0550001N9-01401-01401099611ADDAA199999929AY171999GF108991081051008001999999KA1999N-01501MD1210061+9999MW1021
0057010470999991973022209004+69017+023067FM-12+033099999V0209991C00001220001CN0700001N9-01301-01301099641ADDAY121999GF103991031001022501041001MD1210031+9999MW1011
0057010470999991973022212004+69017+023067FM-12+033099999V0209991C00001220001CN0700001N9-01201-01301099661ADDAY101999GF101991011001022501041001MD1210021+9999MW1011
0081010470999991973022218004+69017+023067FM-12+033099999V0209991C00001220001CN0700001N9-01801-01801999999ADDAA199000091AY101999GF101991011001022501041001KA1999M-01201MD1710011+9999MW1021
0057010470999991973022315004+69017+023067FM-12+033099999V0209991C00001021001CN0700001N9-01801-01801099521ADDAY121999GF106991061001022501071001MD1210171+9999MW1011
0081010470999991973022318004+69017+023067FM-12+033099999V0209991C00001021001CN0700001N9-01801-01801099551ADDAA199999929AY121999GF105991051001022501071001KA1999M-01501MD1210031+9999MW1011
0057010470999991973022509004+69017+023067FM-12+033099999V0209991C00001220001CN0700001N9-02501-02601100601ADDAY101999GF102991021001022501001021MD1210201+9999MW1021
0076010470999991973022512004+69017+023067FM-12+033099999V0209991C00001220001CN0700001N9-02201-02301100581ADDAY101999GF102991001001999999001021MD1710021+9999MW1021EQDQ01+000022SCOTLC
0081010470999991973022518004+69017+023067FM-12+033099999V0209991C00001220001CN0700001N9-02701-02801100781ADDAA199000091AY101999GF102991021001022501041001KA1999M-02101MD1210091+9999MW1031
0057010470999991973022615004+69017+023067FM-12+033099999V0209991C00001220001CN0700001N9-02001-02101101001ADDAY101999GF102991021001022501041001MD1710071+9999MW1021
0081010470999991973022618004+69017+023067FM-12+033099999V0209991C00001220001CN0700001N9-02401-02401101161ADDAA199000091AY101999GF103991031001022501041001KA1999M-02001MD1210161+9999MW1021
0078010470999991973022700004+69017+023067FM-12+033099999V0209991C00001220001CN0700001N9-02801-02901101401ADDAY101999GF103991031001022501041001MW1021EQDQ01+000022APCTENQ02+000002APC3  
0081010470999991973022706004+69017+023067FM-12+033099999V0209991C00001220001CN0700001N9-03201-03301101571ADDAA199000091AY101999GF103991031001022501041001KA1999N-03201MD1210051+9999MW1021
0057010470999991973022715004+69017+023067FM-12+033099999V0209991C00001220001CN0700001N9-02301-02601101671ADDAY101999GF103991001001999999001011MD1210131+9999MW1021
0057010470999991973022809004+69017+023067FM-12+033099999V0209991C00001007501CN0300001N9-02001-02001101441ADDAY141999GF108991081051008001999999MD1710241+9999MW1101
0057010470999991973022812004+69017+023067FM-12+033099999V0209991C00001220001CN0700001N9-02001-02101101411ADDAY101999GF100991001001999999001001MD1710031+9999MW1011
0057010470999991973022815004+69017+023067FM-12+033099999V0209991C00001021001CN0700001N9-02301-02401101461ADDAY101999GF105991051001022501071001MD1210051+9999MW1031
0081010470999991973022818004+69017+023067FM-12+033099999V0209991C00001007501CN0200001N9-02301-02401101451ADDAA199999929AY121999GF108991081051008001999999KA1999M-01901MD1710011+9999MW1701
0057010470999991973030100004+69017+023067FM-12+033099999V0209991C00001004201CN0550001N9-01901-01901101441ADDAY171999GF108991081051004501999999MD1210031+9999MW1021
0081010470999991973030106004+69017+023067FM-12+033099999V0209991C00001002101CN0015001N9-01601-01601101411ADDAA199003091AY171999GF108991081051002501999999KA1999N-02301MD1210061+9999MW1731
0057010470999991973030109004+69017+023067FM-12+033099999V0209991C00001004201CN0030001N9-01001-01001101441ADDAY171999GF108991081051004501999999MD1210031+9999MW1711
0057010470999991973030112004+69017+023067FM-12+033099999V0209991C00001004201CN0030001N9-01201-01201101581ADDAY171999GF108991081051004501999999MD1210141+9999MW1701
0057010470999991973030115004+69017+023067FM-12+033099999V0203501N00101007501CN0550001N9-01501-01601101901ADDAY171999GF108991081051008001999999MD1210321+9999MW1021
0081010470999991973030206004+69017+023067FM-12+033099999V0209991C00001002101CN0003001N9-01901-01901102531ADDAA199000091AY141999GF108991081051002501999999KA1999N-02401MD1210101+9999MW1441
0057010470999991973030209004+69017+023067FM-12+033099999V0209991C00001021001CN0700001N9-01701-01701102571ADDAY121999GF106991061001022501071001MD1210041+9999MW1011
0057010470999991973030212004+69017+023067FM-12+033099999V0209991C00001220001CN0700001N9-01701-01801102571ADDAY121999GF104991041001022501071001MD1410001+9999MW1011
0057010470999991973030215004+69017+023067FM-12+033099999V0209991C00001021001CN0700001N9-02101-02201102651ADDAY121999GF105991051001022501071001MD1210081+9999MW1021
0081010470999991973030218004+69017+023067FM-12+033099999V0209991C00001004201CN0030001N9-02101-02101102601ADDAA199000291AY171999GF108991081051004501999999KA1999M-01701MD1710051+9999MW1701
0081010470999991973030306004+69017+023067FM-12+033099999V0209991C00001004201CN0550001N9-01601-01601102011ADDAA199002091AY171999GF108991081051004501999999KA1999N-02101MD1710201+9999MW1021
0057010470999991973030312004+69017+023067FM-12+033099999V0201801N00251004201CN0550001N9-00901-01001101591ADDAY121999GF108991081051004501999999MD1710251+9999MW1021
0057010470999991973030315004+69017+023067FM-12+033099999V0201801N00251007501CN0550001N9-00901-01001101511ADDAY131999GF108991081051008001999999MD1710081+9999MW1021
0081010470999991973030318004+69017+023067FM-12+033099999V0201801N00251004201CN0030001N9-00901-00901101511ADDAA199002091AY131999GF108991081051004501999999KA1999M-00901MD1410001+9999MW1361
0081010470999991973030406004+69017+023067FM-12+033099999V0201801N00251007501CN0700001N9-01101-01201101511ADDAA199000091AY121999GF108991081051008001999999KA1999N-01101MD1210031+9999MW1021
0057010470999991973030409004+69017+023067FM-12+033099999V0201801N00251007501CN0550001N9-01101-01201101551ADDAY121999GF108991081051008001999999MD1210041+9999MW1021
0057010470999991973030412004+69017+023067FM-12+033099999V0201801N00101220001CN0700001N9-00801-00901101641ADDAY121999GF104991031001999999071011MD1210091+9999MW1011
0057010470999991973030415004+69017+023067FM-12+033099999V0209991C00001220001CN0700001N9-01101-01201101791ADDAY101999GF104991041001022501071001MD1210151+9999MW1021
0057010470999991973030500004+69017+023067FM-12+033099999V0209991C00001021001CN0550001N9-01501-01501102011ADDAY121999GF107991071001022501071001MD1210021+9999MW1031
0081010470999991973030506004+69017+023067FM-12+033099999V0209991C00001030001CN0550001N9-01401-01401101781ADDAA199000091AY121999GF108991041081008001051999KA1999N-01401MD1710131+9999MW1021
0057010470999991973030509004+69017+023067FM-12+033099999V0209991C00001007501CN0200001N9-00601-00601101501ADDAY121999GF108991081051008001999999MD1710281+9999MW1101
0057010470999991973030512004+69017+023067FM-12+033099999V0201501N00251007501CN0550001N9-00601-00601101371ADDAY121999GF108991081051008001999999MD1710131+9999MW1021
0057010470999991973030515004+69017+023067FM-12+033099999V0209991C00001007501CN0550001N9-00401-00401101041ADDAY121999GF108991081051008001999999MD1710331+9999MW1021
0081010470999991973030518004+69017+023067FM-12+033099999V0209991C00001007501CN0550001N9-00401-00401100911ADDAA199000091AY121999GF108991081051008001999999KA1999M-00401MD1710131+9999MW1021
0057010470999991973030609004+69017+023067FM-12+033099999V0209991C00001007501CN0550001N9-01001-01001100571ADDAY121999GF108991081051008001999999MD1210051+9999MW1021
0057010470999991973030612004+69017+023067FM-12+033099999V0209991C00001007501CN0550001N9-01001-01001100631ADDAY121999GF108991081051008001999999MD1210061+9999MW1021
0081010470999991973030618004+69017+023067FM-12+033099999V0209991C00001007501CN0550001N9-01001-01101100731ADDAA199000091AY121999GF107991071051008001999999KA1999M-00901MD1710011+9999MW1021
0057010470999991973030709004+69017+023067FM-12+033099999V0209991C00001220001CN0700001N9-02001-02001101211ADDAY101999GF102991021001022501041001MD1710021+9999MW1011
0057010470999991973030712004+69017+023067FM-12+033099999V0209991C00001220001CN0700001N9-01401-01801101381ADDAY101999GF101991011001004501081001MD1210171+9999MW1011
0057010470999991973030715004+69017+023067FM-12+033099999V0209991C00001220001CN0700001N9-01301-01701101241ADDAY101999GF101991011001004501081001MD1710141+9999MW1011
0067010470999991973030718004+69017+023067FM-12+033099999V0209991C00001220001CN9999999N9-01801-01901999999ADDAA199000091GF101991011001017501041001KA1999M-01301MD1710201+9999
0081010470999991973030806004+69017+023067FM-12+033099999V0209991C00001007501CN0700001N9-02301-02401102071ADDAA199000091AY121999GF108991081051008001999999KA1999N-02601MD1210191+9999MW1031
0057010470999991973030812004+69017+023067FM-12+033099999V0209991C00001220001CN0700001N9-00901-01301102061ADDAY101999GF102991001001999999001011MD1710021+9999MW1021
0057010470999991973030815004+69017+023067FM-12+033099999V0209991C00001220001CN0700001N9-00301-00601102111ADDAY101999GF104991041021008001001001MD1210051+9999MW1031
0081010470999991973030818004+69017+023067FM-12+033099999V0202701N00101012001CN0700001N9-00501-00601102331ADDAA199000091AY101999GF106991061081008001001001KA1999M-00301MD1210221+9999MW1031
0057010470999991973030900004+69017+023067FM-12+033099999V0209991C00001220001CN0700001N9-01601-01701102581ADDAY101999GF104991041001022501041001MD1410001+9999MW1021
0067010470999991973030906004+69017+023067FM-12+033099999V0209991C00001007501CN0550001N9-01701-01701101451ADDAA199000091AY121999GF108991081051008001999999KA1999N-01701MW1021
0057010470999991973030909004+69017+023067FM-12+033099999V0201701N00251002101CN0010001N9-00601-00601101181ADDAY171999GF108991081051002501999999MD1710271+9999MW1731
0057010470999991973030912004+69017+023067FM-12+033099999V0201601N00251007501CN9999999N9-00401-00401100741ADDAY171999GF108991081051008001999999MD1710441+9999MW1021
0057010470999991973030915004+69017+023067FM-12+033099999V0201801N00251021001CN0700001N9-00201-00301100291ADDAY121999GF106991061001022501071001MD1710451+9999MW1011
0081010470999991973030918004+69017+023067FM-12+033099999V0201901N00251009001CN0700001N9+00001-00101100051ADDAA199001091AY121999GF107991071081004501001001KA1999M+00101MD1710241+9999MW1021
0067010470999991973031006004+69017+023067FM-12+033099999V0209991C00001021001CN0700001N9-00901-00901100461ADDAA199000091AY121999GF105991051001022501071001KA1999N-01001MW1011
0057010470999991973031009004+69017+023067FM-12+033099999V0209991C00001220001CN0700001N9-00501-00901100531ADDAY121999GF101991011001022501041001MD1210071+9999MW1011
0057010470999991973031012004+69017+023067FM-12+033099999V0209991C00001220001CN0700001N9-00401-00901100471ADDAY101999GF102991001001999999001011MD1210061+9999MW1021
0057010470999991973031015004+69017+023067FM-12+033099999V0209991C00001021001CN0700001N9-00301-00801100461ADDAY101999GF106991061001022501071001MD1710011+9999MW1031
0081010470999991973031018004+69017+023067FM-12+033099999V0202501N00251021001CN0700001N9-00301-00701100331ADDAA199000091AY121999GF107991071001022501071001KA1999M-00301MD1710131+9999MW1021
0057010470999991973031109004+69017+023067FM-12+033099999V0209991C00001220001CN0700001N9-00101-00401100941ADDAY101999GF104991041021008001001001MD1210211+9999MW1021
0057010470999991973031112004+69017+023067FM-12+033099999V0201901N00101012001CN0700001N9+99999+99999999999ADDAY191999GF107991071081008001001001MD1210051+9999MW1701
0057010470999991973031115004+69017+023067FM-12+033099999V0202501N00101021001CN0700001N9+00301+00001100871ADDAY121999GF105991051001022501071001MD1710121+9999MW1011
0081010470999991973031118004+69017+023067FM-12+033099999V0202501N00101021001CN0700001N9+00001-00201100901ADDAA199000091AY121999GF105991051001022501071001KA1999M+00301MD1210031+9999MW1021
0057010470999991973031200004+69017+023067FM-12+033099999V0209991C00001021001CN0700001N9-00101-00201100571ADDAY121999GF105991051001022501071001MD1710301+9999MW1021
0081010470999991973031206004+69017+023067FM-12+033099999V0209991C00001220001CN0700001N9+00001+00001100111ADDAA199000091AY121999GF104991021001022501041011KA1999N-00101MD1710201+9999MW1021
0057010470999991973031209004+69017+023067FM-12+033099999V0202701N00101012001CN0700001N9+00101+00101100301ADDAY121999GF105991051021012501001001MD1210191+9999MW1021
0057010470999991973031212004+69017+023067FM-12+033099999V0209991C00001012001CN0700001N9-00101-00301100581ADDAY121999GF106991061081008001001001MD1210281+9999MW1031
0057010470999991973031215004+69017+023067FM-12+033099999V0209991C00001012001CN0700001N9-00201-00501100681ADDAY121999GF105991051081008001001001MD1210101+9999MW1021
0081010470999991973031218004+69017+023067FM-12+033099999V0209991C00001220001CN0700001N9-00701-00801100791ADDAA199000091AY121999GF102991021001022501041001KA1999M+00201MD1210111+9999MW1011
0057010470999991973031300004+69017+023067FM-12+033099999V0209991C00001220001CN0700001N9-00801-00901100601ADDAY101999GF102991021001022501041001MD1710111+9999MW1021
0057010470999991973031309004+69017+023067FM-12+033099999V0202701N00251220001CN0700001N9-00801-01201100671ADDAY101999GF102991021001022501041001MD1210101+9999MW1021
0057010470999991973031312004+69017+023067FM-12+033099999V0202701N00101220001CN0700001N9-00801-01201100811ADDAY101999GF100991001001999999001001MD1210141+9999MW1011
0057010470999991973031315004+69017+023067FM-12+033099999V0202701N00251220001CN0700001N9-00701-01101100881ADDAY101999GF101991001001999999001011MD1210071+9999MW1031
0081010470999991973031318004+69017+023067FM-12+033099999V0202701N00461220001CN0700001N9-01001-01201100951ADDAA199200092AY101999GF101991011001022501041001KA1999M-00601MD1210071+9999MW1021
0081010470999991973031406004+69017+023067FM-12+033099999V0209991C00001012001CN0700001N9-01101-01301101421ADDAA199000091AY121999GF105991051021012501001001KA1999N-01201MD1210061+9999MW1021
0057010470999991973031409004+69017+023067FM-12+033099999V0202701N00101021001CN0700001N9-00701-00901101391ADDAY121999GF106991061001022501071001MD1710031+9999MW1031
0057010470999991973031412004+69017+023067FM-12+033099999V0202501N00101021001CN0700001N9-00501-00701101351ADDAY121999GF106991061001022501071001MD1710041+9999MW1021
0057010470999991973031415004+69017+023067FM-12+033099999V0202201N001019999999N0700001N9-00601-00901101151ADDAY121999GF106991999999999999999999MD1710201+9999MW1021
0081010470999991973031418004+69017+023067FM-12+033099999V0209991C00001021001CN0700001N9-00901-01001101031ADDAA199000091AY121999GF105991051001022501071001KA1999M-00501MD1710121+9999MW1021
0057010470999991973031500004+69017+023067FM-12+033099999V0209991C00001012001CN0700001N9-01301-01301101291ADDAY121999GF106991061081008001001001MD1210101+9999MW1021
0081010470999991973031506004+69017+023067FM-12+033099999V0201801N00251007501CN0550001N9-01001-01001100911ADDAA199000091AY121999GF108991081051008001999999KA1999N-01501MD1710171+9999MW1021
0057010470999991973031509004+69017+023067FM-12+033099999V0202001N00251220001CN0700001N9-00301-00501100551ADDAY121999GF105991031021008001001011MD1710361+9999MW1011
0057010470999991973031512004+69017+023067FM-12+033099999V0202001N00101220001CN0700001N9-00101-00301100401ADDAY121999GF103991021001022501041011MD1710151+9999MW1011
0057010470999991973031515004+69017+023067FM-12+033099999V0202001N00251220001CN0700001N9-00101-00301099851ADDAY101999GF103991001001999999001011MD1710551+9999MW1021
0081010470999991973031518004+69017+023067FM-12+033099999V0202001N00251007501CN0700001N9-00101-00201099461ADDAA199000091AY101999GF107991071051008001999999KA1999M+00001MD1710391+9999MW1031
0057010470999991973031600004+69017+023067FM-12+033099999V0203301N00251007501CN0550001N9-00401-00501099381ADDAY171999GF108991081051008001999999MD1510051+9999MW1021
0081010470999991973031606004+69017+023067FM-12+033099999V0203601N002519999999N0015001N9-00801-00801099761ADDAA199000291AY131999GF108991999999999999999999KA1999N-00901MD1210201+9999MW1731
0057010470999991973031609004+69017+023067FM-12+033099999V0203301N00101012001CN0700001N9-00701-00701100141ADDAY171999GF105991051021012501001001MD1210381+9999MW1011
0057010470999991973031612004+69017+023067FM-12+033099999V0203301N00461220001CN0700001N9-00801-01101100451ADDAY101999GF102991021001022501041001MD1210311+9999MW1011
0057010470999991973031615004+69017+023067FM-12+033099999V0202701N00251220001CN0700001N9-01001-01401100681ADDAY101999GF102991021001022501041001MD1210231+9999MW1021
0081010470999991973031618004+69017+023067FM-12+033099999V0202701N00101220001CN0700001N9-01301-01401100791ADDAA199000091AY101999GF103991031001022501041001KA1999M-00601MD1210111+9999MW1021
0057010470999991973031700004+69017+023067FM-12+033099999V0209991C00001220001CN0700001N9-01901-02001100911ADDAY101999GF102991021001022501041001MD1710041+9999MW1021
0081010470999991973031706004+69017+023067FM-12+033099999V0202501N00101220001CN0700001N9-01801-01801100471ADDAA199000091AY101999GF103991031001022501041001KA1999N-02101MD1710271+9999MW1021
0057010470999991973031709004+69017+023067FM-12+033099999V0209991C00001220001CN0700001N9-01301-01301100431ADDAY101999GF103991031001022501041001MD1710041+9999MW1021
0057010470999991973031712004+69017+023067FM-12+033099999V0209991C00001220001CN0700001N9-00801-01201999999ADDAY101999GF103991031001022501041001MD1710161+9999MW1021
0057010470999991973031715004+69017+023067FM-12+033099999V0209991C00001004201CN0250001N9-00801-00901100271ADDAY181999GF108991081051004501999999MD1410001+9999MW1851
0100010470999991973031718004+69017+023067FM-12+033099999V0209991C00001007501CN0300001N9-00201-00301100401ADDAA199000291AY181999GF108991081051008001999999KA1999M+99999MD1210221+9999MW1851EQDQ01 -00702ATMX  
0057010470999991973031800004+69017+023067FM-12+033099999V0209991C00001220001CN0700001N9+99999+99999100531ADDAY101999GF102991021001022501041001MD1210021+9999MW1011
0081010470999991973031806004+69017+023067FM-12+033099999V0209991C00001007501CN0550001N9-02201-02201100451ADDAA199999929AY151999GF108991081051008001999999KA1999N-02301MD1710061+9999MW1031
0057010470999991973031809004+69017+023067FM-12+033099999V0209991C00001007501CN0700001N9-01801-01801100311ADDAY151999GF108991081051008001999999MD1710141+9999MW1021
0057010470999991973031812004+69017+023067FM-12+033099999V0209991C00001220001CN0700001N9-01001-01301100051ADDAY101999GF103991031001022501041001MD1710261+9999MW1011
0057010470999991973031815004+69017+023067FM-12+033099999V0209991C00001220001CN0700001N9-00801-01201100031ADDAY101999GF103991031001022501041001MD1710021+9999MW1021
0081010470999991973031906004+69017+023067FM-12+033099999V0200601N00251007501CN0550001N9-02101-02101100481ADDAA199000091AY121999GF108991081051008001999999KA1999N-02201MD1710081+9999MW1021
0057010470999991973031909004+69017+023067FM-12+033099999V0209991C00001012001CN0700001N9-01701-01801100241ADDAY121999GF106991061081008001001001MD1710241+9999MW1011
0057010470999991973031912004+69017+023067FM-12+033099999V0209991C00001007501CN0700001N9-01201-01401099931ADDAY121999GF108991081051008001999999MD1710311+9999MW1031
0057010470999991973031915004+69017+023067FM-12+033099999V0209991C00001007501CN0700001N9-01001-01201099771ADDAY121999GF108991081051008001999999MD1710161+9999MW1021
0081010470999991973031918004+69017+023067FM-12+033099999V0201901N00101007501CN0700001N9-01201-01401099721ADDAA199000091AY121999GF107991071051008001999999KA1999M-01101MD1710051+9999MW1021
0081010470999991973032006004+69017+023067FM-12+033099999V0209991C00001220001CN0700001N9-02001-02101099801ADDAA199000091AY121999GF104991021001022501041011KA1999N-02201MD1710051+9999MW1011
0057010470999991973032009004+69017+023067FM-12+033099999V0209991C00001220001CN0700001N9-01501-01901099681ADDAY121999GF103991031001022501041001MD1710121+9999MW1011
0057010470999991973032012004+69017+023067FM-12+033099999V0209991C00001220001CN0700001N9-00901-01301099621ADDAY101999GF103991001001999999001011MD1710061+9999MW1021
0057010470999991973032015004+69017+023067FM-12+033099999V0209991C00001220001CN0700001N9-01201-01601099631ADDAY101999GF103991031001022501041001MD1210011+9999MW1021
0081010470999991973032018004+69017+023067FM-12+033099999V0209991C00001021001CN0700001N9-01501-01601099881ADDAA199000091AY101999GF105991051001022501071001KA1999M-00801MD1210251+9999MW1031
0081010470999991973032106004+69017+023067FM-12+033099999V0209991C00001220001CN0700001N9-01601-01601100401ADDAA199000091AY101999GF103991031021008001001001KA1999N-01601MD1210081+9999MW1011
0057010470999991973032200004+69017+023067FM-12+033099999V0209991C00001220001CN0700001N9-02201-02301100851ADDAY101999GF101991011001022501041001MD1410001+9999MW1021
0081010470999991973032206004+69017+023067FM-12+033099999V0209991C00001021001CN0700001N9-02801-03001100801ADDAA199000091AY101999GF105991051001022501071001KA1999N-02901MD1710151+9999MW1031
0057010470999991973032209004+69017+023067FM-12+033099999V0209991C00001021001CN0700001N9-01801-02001100451ADDAY121999GF106991061001022501071001MD1710351+9999MW1021
0057010470999991973032212004+69017+023067FM-12+033099999V0201801N00101007501CN0700001N9-01301-01401100041ADDAY121999GF108991081051008001999999MD1710411+9999MW1031
0057010470999991973032215004+69017+023067FM-12+033099999V0201701N00251004201CN0030001N9-00901-00901099661ADDAY121999GF108991081051004501999999MD1710381+9999MW1701
0067010470999991973032218004+69017+023067FM-12+033099999V0201801N00251004201CN0030001N9-01001+99999099391ADDAA199000291AY171999GF108991081051004501999999KA1999M-00901MW1711
0057010470999991973032300004+69017+023067FM-12+033099999V0200801N00251004201CN0030001N9-00901-00901098881ADDAY171999GF108991081051004501999999MD1710251+9999MW1711
0068010470999991973032306004+69017+023067FM-12+033099999V0201801N00101004201CN0550001N9-00701-00701098401ADDAA199000291AY171999GF108991081051004501999999MD1710211+9999MW1021
0057010470999991973032309004+69017+023067FM-12+033099999V0201801N00101004201CN0030001N9-00501-00501098771ADDAY171999GF108991081051004501999999MD1710231+9999MW1711
0076010470999991973032312004+69017+023067FM-12+033099999V0209991C00001007501CN0550001N9-00401-00401098012ADDAY121999GF108991081051008001999999MD1710161+9999MW1021EQDQ01+098013APOSLP
0057010470999991973032315004+69017+023067FM-12+033099999V0209991C00001007501CN0550001N9-00201-00301098191ADDAY121999GF108991081051008001999999MD1210181+9999MW1021
0057010470999991973032409004+69017+023067FM-12+033099999V0201801N00251007501CN0700001N9+99999+99999098901ADDAY121999GF105991051021008001001001MD1210091+9999MW1011
0057010470999991973032412004+69017+023067FM-12+033099999V0202001N00251021001CN0700001N9+00301+00101098801ADDAY121999GF105991051001022501071001MD1710141+9999MW1021
0057010470999991973032415004+69017+023067FM-12+033099999V0201901N00251021001CN0700001N9+00501+00201098811ADDAY121999GF106991061021022501001001MD1210041+9999MW1021
0076010470999991973032418004+69017+023067FM-12+033099999V0201901N001019999999N0700001N9+00401+00301098901ADDAY121999GF106991999021022501001001MD1210171+9999MW1021EQDQ01+000012SCOTLC
0049010470999991973032500004+69017+023067FM-12+033099999V0201801N00101021001CN0550001N9+99999+99999999999ADDGF107991071001022501071001MD1110051+9999MW1021
0081010470999991973032506004+69017+023067FM-12+033099999V0201901N001019999999N0550001N9+00301+00201099101ADDAA199000091AY121999GF108991999999999999999999KA1999N+00201MD1410001+9999MW1021
0057010470999991973032509004+69017+023067FM-12+033099999V0201901N00101007501CN0550001N9+00501+00101099161ADDAY121999GF108991081051008001999999MD1210061+9999MW1021
0057010470999991973032512004+69017+023067FM-12+033099999V0209991C00001007501CN0550001N9+00501+00101099141ADDAY121999GF108991081051008001999999MD1710021+9999MW1021
0081010470999991973032518004+69017+023067FM-12+033099999V0201901N00101021001CN0550001N9+00401+00001099021ADDAA199000091AY121999GF107991071001022501071001KA1999M+00501MD1710021+9999MW1021
0057010470999991973032609004+69017+023067FM-12+033099999V0202701N00251012001CN0700001N9-00101-00501100181ADDAY121999GF106991061081008001001001MD1210381+9999MW1031
0057010470999991973032615004+69017+023067FM-12+033099999V0202701N00101220001CN0700001N9-00301-00801101101ADDAY121999GF103991031001022501041001MD1210451+9999MW1011
0081010470999991973032618004+69017+023067FM-12+033099999V0202701N00251220001CN0700001N9-00801-00901101581ADDAA199000091AY101999GF103991031021022501001001KA1999M-00101MD1210481+9999MW1021
0081010470999991973032706004+69017+023067FM-12+033099999V0209991C00001220001CN0700001N9-01101-01201102591ADDAA199000091AY101999GF102991021001022501041001KA1999N-01301MD1210101+9999MW1021
0057010470999991973032709004+69017+023067FM-12+033099999V0201801N00251220001CN0700001N9-00601-00801102431ADDAY101999GF102991001001999999001011MD1710161+9999MW1021
0057010470999991973032712004+69017+023067FM-12+033099999V0201801N00461220001CN0700001N9-00201-00701102211ADDAY101999GF102991001001999999001011MD1710221+9999MW1021
0057010470999991973032715004+69017+023067FM-12+033099999V0201801N00461220001CN0700001N9-00201-00701101991ADDAY121999GF103991031021012501001001MD1710221+9999MW1031
0057010470999991973032800004+69017+023067FM-12+033099999V0202001N00251220001CN0700001N9-00501-00801101941ADDAY121999GF102991021021022501001001MD1710101+9999MW1011
0081010470999991973032806004+69017+023067FM-12+033099999V0201801N00101220001CN0700001N9-00701-01001101941ADDAA199000091AY101999GF100991001001999999001001KA1999N-00701MD1410001+9999MW1011
0057010470999991973032809004+69017+023067FM-12+033099999V0201801N00251220001CN0700001N9-00301-00601101651ADDAY101999GF101991001001999999001011MD1710291+9999MW1031
0057010470999991973032812004+69017+023067FM-12+033099999V0201701N00251220001CN0700001N9-00101-00501101731ADDAY101999GF101991001001999999001011MD1710211+9999MW1021
0057010470999991973032815004+69017+023067FM-12+033099999V0202001N00101220001CN0700001N9+00201-00201101471ADDAY101999GF101991011001022501041001MD1710261+9999MW1021
0081010470999991973032818004+69017+023067FM-12+033099999V0201901N00101220001CN0700001N9+00001-00401101341ADDAA199000091AY101999GF101991011001022501041001KA1999M+00201MD1710131+9999MW1021
0081010470999991973032906004+69017+023067FM-12+033099999V0201801N00251007501CN0550001N9+00001-00101100411ADDAA199000091AY121999GF108991081051008001999999KA1999N+00001MD1710331+9999MW1021
0057010470999991973032909004+69017+023067FM-12+033099999V0201801N00461007501CN0700001N9+00101-00301100341ADDAY121999GF106991061051008001999999MD1710071+9999MW1011
0057010470999991973032912004+69017+023067FM-12+033099999V0201901N00461007501CN0700001N9+00301-00401100391ADDAY121999GF108991081051008001999999MD1210051+9999MW1031
0057010470999991973032915004+69017+023067FM-12+033099999V0201901N00101007501CN0700001N9+00201-00501100631ADDAY121999GF108991081051008001999999MD1210241+9999MW1021
0057010470999991973033000004+69017+023067FM-12+033099999V0209991C00001220001CN0700001N9-00701-00901101101ADDAY121999GF103991031001022501041001MD1710061+9999MW1011
0081010470999991973033006004+69017+023067FM-12+033099999V0201801N002519999999N0700001N9-00401-00601100441ADDAA199000091AY121999GF108991999999999999999999KA1999N-00501MD1710351+9999MW1021
0057010470999991973033009004+69017+023067FM-12+033099999V0201801N00461007501CN0700001N9+00101-00301100151ADDAY121999GF108991081051008001999999MD1710291+9999MW1021
0057010470999991973033012004+69017+023067FM-12+033099999V0201801N00461007501CN0700001N9+00301-00201099951ADDAY121999GF108991081051008001999999MD1710201+9999MW1021
0057010470999991973033015004+69017+023067FM-12+033099999V0201901N00251007501CN0700001N9+00301-00201099841ADDAY121999GF108991081051008001999999MD1710111+9999MW1021
0081010470999991973033018004+69017+023067FM-12+033099999V0201901N00251007501CN0700001N9+00201-00201099841ADDAA199000091AY121999GF108991081051008001999999KA1999M+00401MD1410001+9999MW1021
0057010470999991973033100004+69017+023067FM-12+033099999V0201801N00101007501CN0700001N9+00101-00201099791ADDAY121999GF108991081051008001999999MD1710081+9999MW1021
0081010470999991973033106004+69017+023067FM-12+033099999V0201801N00101007501CN0700001N9+00201+00001099761ADDAA199000091AY121999GF108991081051008001999999KA1999N+00001MD1710021+9999MW1021
0057010470999991973033109004+69017+023067FM-12+033099999V0201801N00251007501CN0040001N9+00001+00001099771ADDAY171999GF108991081051008001999999MD1210011+9999MW1101
0057010470999991973033112004+69017+023067FM-12+033099999V0201801N00251007501CN0550001N9+00001-00101099681ADDAY121999GF108991081051008001999999MD1710091+9999MW1021
0057010470999991973033115004+69017+023067FM-12+033099999V0201801N00251007501CN0200001N9+00001-00101099651ADDAY121999GF108991081051008001999999MD1710031+9999MW1701
0081010470999991973033118004+69017+023067FM-12+033099999V0201801N00251004201CN0200001N9+00001-00101099681ADDAA199999929AY171999GF108991081051004501999999KA1999M+00201MD1210031+9999MW1701
0081010470999991973040106004+69017+023067FM-12+033099999V0201801N00101004201CN0040001N9+00001+00001099971ADDAA199000291AY171999GF108991081051004501999999KA1999N-00101MD1710111+9999MW1701
0057010470999991973040212004+69017+023067FM-12+033099999V0201801N00251007501CN0550001N9+00101-00201098971ADDAY171999GF108991081051008001999999MD1210041+9999MW1021
0057010470999991973040215004+69017+023067FM-12+033099999V0201501N00101007501CN0550001N9+00201-00201098991ADDAY121999GF108991081051008001999999MD1210021+9999MW1021
0081010470999991973040218004+69017+023067FM-12+033099999V0201001N00101007501CN0550001N9+00001-00201099081ADDAA199001091AY171999GF108991081051008001999999KA1999M+00201MD1210091+9999MW1021
0057010470999991973040300004+69017+023067FM-12+033099999V0209991C00001021001CN0550001N9+00001-00101099131ADDAY121999GF106991061001022501071001MD1210041+9999MW1021
0081010470999991973040306004+69017+023067FM-12+033099999V0203601N00101004201CN0200001N9-00301-00401099291ADDAA199999929AY171999GF108991081051004501999999KA1999N-00301MD1210081+9999MW1701
0057010470999991973040309004+69017+023067FM-12+033099999V0202701N00101007501CN0200001N9-00201-00201099311ADDAY171999GF108991081051008001999999MD1210021+9999MW1701
0057010470999991973040312004+69017+023067FM-12+033099999V0209991C00001012001CN0550001N9+00101-00401099411ADDAY121999GF106991061081008001001001MD1210101+9999MW1021
0057010470999991973040315004+69017+023067FM-12+033099999V0209991C00001012001CN0700001N9+00101-00501099551ADDAY121999GF106991061081008001001001MD1210141+9999MW1021
0081010470999991973040318004+69017+023067FM-12+033099999V0209991C00001012001CN0700001N9-00101-00501099711ADDAA199999929AY121999GF106991061081008001001001KA1999M+00101MD1210161+9999MW1021
0081010470999991973040406004+69017+023067FM-12+033099999V0209991C00001007501CN0550001N9-01101-01201100251ADDAA199000091AY121999GF108991081051008001999999KA1999N-01101MD1210101+9999MW1021
0057010470999991973040409004+69017+023067FM-12+033099999V0209991C00001012001CN0550001N9-00701-01001100311ADDAY121999GF107991071081008001001001MD1210061+9999MW1011
0081010470999991973040418004+69017+023067FM-12+033099999V0203501N00101004201CN0210001N9+99999+99999999999ADDAA199999929AY121999GF108991081051004501999999KA1999M+00001MD1210061+9999MW1711
0057010470999991973040500004+69017+023067FM-12+033099999V0209999999999007501CN0550001N9-00601-00701100321ADDAY121999GF108991081051008001999999MD1410001+9999MW1021
0081010470999991973040506004+69017+023067FM-12+033099999V0209991C00001007501CN0550001N9-00801-01201100341ADDAA199000091AY121999GF108991081051008001999999KA1999N-00901MD1010201+9999MW1021
0057010470999991973040509004+69017+023067FM-12+033099999V0201801N00101021001CN0700001N9-00501-01001100351ADDAY121999GF105991051001022501071001MD1210011+9999MW1011
0057010470999991973040512004+69017+023067FM-12+033099999V0209991C00001220001CN0700001N9-00201-01101100311ADDAY121999GF103991031001022501041001MD1710041+9999MW1011
0057010470999991973040515004+69017+023067FM-12+033099999V0201901N00101220001CN0700001N9-00301-01101100331ADDAY101999GF101991011011022501001001MD1210021+9999MW1011
0081010470999991973040606004+69017+023067FM-12+033099999V0200201N00101004201CN0100001N9-00501-00601099671ADDAA199002091AY171999GF108991081051004501999999KA1999N-01301MD1710131+9999MW1701
0057010470999991973040609004+69017+023067FM-12+033099999V0209991C00001004201CN0100001N9-00301-00401099531ADDAY171999GF108991081051004501999999MD1710141+9999MW1701
0057010470999991973040612004+69017+023067FM-12+033099999V0209991C000019999999N0100001N9-00201+99999099391ADDAY171999GF108991081999999999051999MD1010001+9999MW1701
0081010470999991973040618004+69017+023067FM-12+033099999V0200201N00251004201CN0200001N9-00201-00301099341ADDAA199000591AY171999GF108991081051004501999999KA1999M-00101MD1210041+9999MW1701
0081010470999991973040706004+69017+023067FM-12+033099999V0200201N00101007501CN0550001N9-00401-00601099531ADDAA199000591AY171999GF108991081051008001999999KA1999N-00501MD1210181+9999MW1021
0057010470999991973040709004+69017+023067FM-12+033099999V0209991C00001004201CN0200001N9-00201-00601099761ADDAY171999GF108991081051004501999999MD1210231+9999MW1701
0057010470999991973040712004+69017+023067FM-12+033099999V0209991C00001007501CN0550001N9+00001-00601099871ADDAY121999GF108991081051008001999999MD1210111+9999MW1021
0081010470999991973040718004+69017+023067FM-12+033099999V0209991C00001021001CN0700001N9-00401-00501100191ADDAA199999929AY121999GF107991071001022501071001KA1999M+00001MD1210151+9999MW1021
0057010470999991973040800004+69017+023067FM-12+033099999V0209991C00001007501CN0550001N9-00601-00701100371ADDAY121999GF108991081051008001999999MD1210081+9999MW1021
0081010470999991973040806004+69017+023067FM-12+033099999V0209991C00001007501CN0550001N9-00101-00201100561ADDAA199000091AY121999GF108991081051008001999999KA1999N-00601MD1210091+9999MW1021
0057010470999991973040809004+69017+023067FM-12+033099999V0209991C00001021001CN0700001N9-00101-00601100561ADDAY121999GF108991081081022501999999MD1210051+9999MW1021
0057010470999991973040812004+69017+023067FM-12+033099999V0200101N00101012001CN0550001N9-00101-00701100621ADDAY121999GF108991081081008001999999MD1210101+9999MW1021
0057010470999991973040815004+69017+023067FM-12+033099999V0209991C00001021001CN0550001N9-00101-00701100761ADDAY121999GF108991081081022501999999MD1210141+9999MW1021
0081010470999991973040818004+69017+023067FM-12+033099999V0209991C00001004201CN0550001N9-00301-00701100791ADDAA199000091AY121999GF108991081051004501999999KA1999M-00101MD1210031+9999MW1021
0057010470999991973040900004+69017+023067FM-12+033099999V0209991C00001004201CN0550001N9-00301-00601100891ADDAY121999GF108991081051004501999999MD1210041+9999MW1021
0057010470999991973040909004+69017+023067FM-12+033099999V0209991C00001007501CN0550001N9-00501-00701100861ADDAY171999GF108991081051008001999999MD1710061+9999MW1021
0057010470999991973040912004+69017+023067FM-12+033099999V0209991C00001007501CN0550001N9-00401-00801100791ADDAY171999GF108991081051008001999999MD1710071+9999MW1021
0076010470999991973040915004+69017+023067FM-12+033099999V0209991C00001007501CN0550001N9-00301-00701100731ADDAY121999GF108991081051008001999999MD1710061+9999MW1021EQDQ01+000002APC3  
0081010470999991973040918004+69017+023067FM-12+033099999V0209991C00001007501CN0550001N9-00401-00701100761ADDAA199999929AY121999GF108991081051008001999999KA1999M-00201MD1210031+9999MW1021
0057010470999991973041000004+69017+023067FM-12+033099999V0209991C00001007501CN0550001N9-00801-00901100701ADDAY121999GF108991081051008001999999MD1410001+9999MW1021
0081010470999991973041006004+69017+023067FM-12+033099999V0201801N00101004201CN0550001N9-00901-01001100641ADDAA199999929AY121999GF108991081051004501999999KA1999N-01001MD1710031+9999MW1701
0057010470999991973041009004+69017+023067FM-12+033099999V0201801N00101007501CN0550001N9-00601-01001100571ADDAY121999GF108991081051008001999999MD1710071+9999MW1021
0076010470999991973041012004+69017+023067FM-12+033099999V0209991C00001012001CN0550001N9-00401-01101100581ADDAY121999GF108991999081008001001001MD1210011+9999MW1011EQDQ01+000052SCOTLC
0057010470999991973041015004+69017+023067FM-12+033099999V0201801N00101220001CN0700001N9-00401-01001100651ADDAY121999GF103991031001022501041001MD1210071+9999MW1011
0057010470999991973041109004+69017+023067FM-12+033099999V0209991C00001220001CN0700001N9-01201-01701100801ADDAY101999GF101991001001999999001011MD1710281+9999MW1011
0076010470999991973041112004+69017+023067FM-12+033099999V0209991C00001220001CN0700001N9-00601-00602100611ADDAY101999GF100991001001999999001001MD1710191+9999MW1011EQDQ01+026723ATOD  
0081010470999991973041206004+69017+023067FM-12+033099999V0209991C00001220001CN0700001N9-01901-02101100391ADDAA199000091AY101999GF104991001001999999001011KA1999N-02101MD1710021+9999MW1021
0057010470999991973041209004+69017+023067FM-12+033099999V0209991C00001220001CN0700001N9-00701-01301100161ADDAY101999GF103991001001999999001011MD1710231+9999MW1011
0057010470999991973041212004+69017+023067FM-12+033099999V0209991C00001220001CN0700001N9-00101-01001100111ADDAY101999GF102991001001999999001011MD1710051+9999MW1011
0057010470999991973041215004+69017+023067FM-12+033099999V0209991C00001021001CN0700001N9-00101-01001100141ADDAY101999GF105991051001022501071001MD1210031+9999MW1031
0081010470999991973041218004+69017+023067FM-12+033099999V0209991C00001220001CN0700001N9-00401-00801100211ADDAA199000091AY121999GF104991041001022501071001KA1999M+00001MD1210071+9999MW1021
0081010470999991973041306004+69017+023067FM-12+033099999V0209991C00001220001CN0700001N9-01801-01901100641ADDAA199000091AY101999GF103991031001022501041001KA1999N-01901MD1410001+9999MW1021
0057010470999991973041309004+69017+023067FM-12+033099999V0209991C00001220001CN0700001N9-00901-01401100491ADDAY101999GF100991001001999999001001MD1710151+9999MW1011
0057010470999991973041312004+69017+023067FM-12+033099999V0209991C00001220001CN0700001N9-00301-01201100391ADDAY101999GF102991021021012501001001MD1710101+9999MW1031
0057010470999991973041315004+69017+023067FM-12+033099999V0209991C00001220001CN0700001N9-00101-01001100331ADDAY101999GF102991001001999999001011MD1710061+9999MW1021
0081010470999991973041318004+69017+023067FM-12+033099999V0209991C00001220001CN0700001N9-00501-01001100361ADDAA199000091AY101999GF102991001001999999001011KA1999M-00101MD1210021+9999MW1021
0081010470999991973041406004+69017+023067FM-12+033099999V0209991C00001220001CN0700001N9-01501-01601099871ADDAA199000091AY111999GF103991001001999999001011KA1999N-01901MD1710261+9999MW1021
0057010470999991973041409004+69017+023067FM-12+033099999V0209991C00001220001CN0700001N9-00601-01001099661ADDAY111999GF103991001001999999001011MD1710211+9999MW1021
0057010470999991973041412004+69017+023067FM-12+033099999V0201901N001019999999N0550001N9-00201-00601099311ADDAY121999GF107991999999999999999999MD1010001+9999MW1031
0057010470999991973041415004+69017+023067FM-12+033099999V0202801N00101220001CN0700001N9-00101-00801099551ADDAY121999GF103991031011022501001011MD1210241+9999MW1011
0081010470999991973041418004+69017+023067FM-12+033099999V0209991C00001220001CN0700001N9-00601-01201099761ADDAA199000091AY101999GF103991031021012501001001KA1999M+00001MD1710211+9999MW1021
0057010470999991973041500004+69017+023067FM-12+033099999V0201801N00461220001CN0700001N9-00801+99999099721ADDAY101999GF102991021001022501041001MD1710181+9999MW1021
0057010470999991973041509004+69017+023067FM-12+033099999V0203101N00251012001CN0700001N9-00101-00701100191ADDAY101999GF105991051021012501001001MD1210421+9999MW1031
0057010470999991973041512004+69017+023067FM-12+033099999V0202901N00461007501CN0150001N9+99999+99999999999ADDAY121999GF108991081051008001999999MD1210301+9999MW1701
0057010470999991973041515004+69017+023067FM-12+033099999V0202801N00461009001CN0700001N9-00101-00601100711ADDAY121999GF106991061081004501001001MD1210221+9999MW1011
0081010470999991973041518004+69017+023067FM-12+033099999V0202801N00101075001CN0700001N9-00401-00801100951ADDAA199000291AY121999GF106991011021022501001021KA1999M+00101MD1210241+9999MW1021
0057010470999991973041609004+69017+023067FM-12+033099999V0202001N00101007501CN0700001N9-00101-00801101051ADDAY121999GF106991061051008001001001MD1010001+9999MW1011
0043010470999991973041612004+69017+023067FM-12+033099999V0201801N00101220001CN0700001N9-00101-00901999999ADDGF103991031011008001001011MD1710091+9999
0057010470999991973041615004+69017+023067FM-12+033099999V0209991C00001012001CN0700001N9-00101-00901100881ADDAY101999GF105991051021012501001001MD1710081+9999MW1031
0057010470999991973041700004+69017+023067FM-12+033099999V0209991C00001004201CN0550001N9-00501-01001100811ADDAY121999GF108991081051004501999999MD1410001+9999MW1031
0081010470999991973041706004+69017+023067FM-12+033099999V0209991C00001007501CN0700001N9-00201-00301100721ADDAA199000291AY171999GF108991081051008001999999KA1999N-00701MD1410001+9999MW1021
0057010470999991973041709004+69017+023067FM-12+033099999V0201801N00101004201CN0200001N9+00001-00101100741ADDAY171999GF108991081051004501999999MD1210021+9999MW1701
0057010470999991973041800004+69017+023067FM-12+033099999V0209991C00001004201CN0550001N9-00301-00401101351ADDAY171999GF107991071051004501999999MD1210151+9999MW1021
0081010470999991973041806004+69017+023067FM-12+033099999V0209991C00001220001CN0700001N9-00601-01001101741ADDAA199000091AY121999GF104991041021012501001001KA1999N-01001MD1210201+9999MW1011
0057010470999991973041809004+69017+023067FM-12+033099999V0203601N00101220001CN0700001N9-00101-00801101851ADDAY101999GF102991021011012501001001MD1210111+9999MW1011
0057010470999991973041812004+69017+023067FM-12+033099999V0203601N00251220001CN0700001N9-00101-01001101981ADDAY101999GF101991011011012501001001MD1210131+9999MW1011
0057010470999991973041815004+69017+023067FM-12+033099999V0209999999999220001CN0700001N9-00201-01001102131ADDAY101999GF101991011011012501001001MD1210151+9999MW1021
0081010470999991973041906004+69017+023067FM-12+033099999V0209991C00001220001CN0700001N9-00801-01101102921ADDAA199000091AY101999GF100991001001999999001001KA1999N-01401MD1210151+9999MW1011
0057010470999991973041909004+69017+023067FM-12+033099999V0200401N00101220001CN0700001N9-00301-01101102871ADDAY101999GF101991001001999999001011MD1710051+9999MW1021
0057010470999991973041912004+69017+023067FM-12+033099999V0200401N00101220001CN0700001N9-00201-01001102881ADDAY101999GF101991011011012501001001MD1210011+9999MW1021
0057010470999991973041915004+69017+023067FM-12+033099999V0200301N00101021001CN0700001N9-00301-00901102901ADDAY101999GF105991051021022501001001MD1210021+9999MW1031
0057010470999991973041918004+69017+023067FM-12+033099999V0209991C00001021001CN0700001N9+99999+99999102941ADDAY121999GF105991051021022501081021MD1110051+9999MW1021
0081010470999991973042006004+69017+023067FM-12+033099999V0200901N00101007501CN0550001N9-00301-00501102981ADDAA199000091AY121999GF108991081051008001999999KA1999N-00501MD1410001+9999MW1021
0057010470999991973042009004+69017+023067FM-12+033099999V0201101N00101007501CN0700001N9-00301-01001102971ADDAY121999GF108991081051008001999999MD1710011+9999MW1021
0057010470999991973042012004+69017+023067FM-12+033099999V0209991C00001007501CN0700001N9-00301-01001102831ADDAY121999GF108991081051008001999999MD1710141+9999MW1021
0081010470999991973042018004+69017+023067FM-12+033099999V0209991C00001004201CN0700001N9-00301-00801102701ADDAA199000091AY121999GF108991081051004501999999KA1999M-00101MD1710041+9999MW1021
0057010470999991973042100004+69017+023067FM-12+033099999V0209991C00001220001CN0700001N9-00901-01301102841ADDAY121999GF101991011011022501001001MD1710031+9999MW1011
0076010470999991973042109004+69017+023067FM-12+033099999V0209991C00001220001CN0700001N9-00601-00701102781ADDAY101999GF102991001001999999001011MD1210011+9999MW1021EQDQ01+000022SCOTLC
0057010470999991973042112004+69017+023067FM-12+033099999V0209991C00001220001CN0700001N9-00201-00801102731ADDAY101999GF101991011011012501001001MD1710051+9999MW1021
0057010470999991973042115004+69017+023067FM-12+033099999V0209991C00001220001CN0700001N9-00201-00801102671ADDAY101999GF101991011011012501001001MD1710061+9999MW1021
0081010470999991973042118004+69017+023067FM-12+033099999V0209991C00001220001CN0700001N9-00401-01001102681ADDAA199000091AY101999GF100991001001999999001001KA1999M-00201MD1210011+9999MW1021
0057010470999991973042200004+69017+023067FM-12+033099999V0209991C00001021001CN0700001N9-01601-01701103011ADDAY101999GF106991061001022501031001MD1210031+9999MW1031
0081010470999991973042206004+69017+023067FM-12+033099999V0209991C00001021001CN0700001N9-00701-00901103071ADDAA199000091AY121999GF106991061081022501001001KA1999N-01601MD1410001+9999MW1021
0057010470999991973042209004+69017+023067FM-12+033099999V0201601N00251007501CN0700001N9-00201-00601102771ADDAY121999GF108991081051008001999999MD1710101+9999MW1031
0057010470999991973042212004+69017+023067FM-12+033099999V0201901N00101007501CN0700001N9-00101-00601102741ADDAY121999GF108991081051008001999999MD1710031+9999MW1021
0057010470999991973042215004+69017+023067FM-12+033099999V0209991C00001007501CN0550001N9-00201-00701102741ADDAY121999GF108991081051008001999999MD1410001+9999MW1021
0081010470999991973042218004+69017+023067FM-12+033099999V0209991C00001007501CN0550001N9-00201-00701102721ADDAA199000091AY121999GF108991081051008001999999KA1999M-00101MD1710021+9999MW1021
0057010470999991973042300004+69017+023067FM-12+033099999V0209991C00001007501CN0700001N9-00301-00601102721ADDAY121999GF108991081051008001999999MD1410001+9999MW1021
0081010470999991973042306004+69017+023067FM-12+033099999V0209991C00001220001CN0700001N9-00601-00901102771ADDAA199000091AY121999GF105991001001999999001081KA1999N-00701MD1210031+9999MW1011
0043010470999991973042309004+69017+023067FM-12+033099999V0209991C00001021001CN0700001N9-00101-00901102761ADDAY121999GF107991071001022501071001MW1031
0057010470999991973042315004+69017+023067FM-12+033099999V0209991C00001007501CN0700001N9+00101-00501102791ADDAY121999GF108991081051008001999999MD1710041+9999MW1021
0081010470999991973042318004+69017+023067FM-12+033099999V0209991C00001021001CN0700001N9-00101-00501102781ADDAA199000091AY121999GF105991051001022501071001KA1999M+00201MD1710011+9999MW1011
0057010470999991973042400004+69017+023067FM-12+033099999V0209991C00001021001CN0550001N9-00401-00801102941ADDAY121999GF107991071001022501071001MD1010001+9999MW1021
0057010470999991973042409004+69017+023067FM-12+033099999V0201801N00101012001CN0700001N9+00001-00401102561ADDAY121999GF105991051021012501001001MD1710161+9999MW1011
0057010470999991973042412004+69017+023067FM-12+033099999V0201601N00251012001CN0700001N9+00101-00501102191ADDAY121999GF105991051021012501001001MD1710371+9999MW1021
0057010470999991973042415004+69017+023067FM-12+033099999V0201701N00251012001CN0700001N9+00201-00401101851ADDAY121999GF106991061081008001001001MD1710341+9999MW1031
0081010470999991973042418004+69017+023067FM-12+033099999V0201801N00251007501CN0700001N9+99999+99999101591ADDAA199000091AY121999GF108991081051008001999999KA1999M+00201MD1710261+9999MW1031
0081010470999991973042506004+69017+023067FM-12+033099999V0201801N00251004201CN0200001N9-00401-00501100891ADDAA199000291AY171999GF108991081051004501999999KA1999N-00601MD1710181+9999MW1701
0057010470999991973042509004+69017+023067FM-12+033099999V0201801N00251004201CN0200001N9-00201-00401100761ADDAY171999GF108991081051004501999999MD1710131+9999MW1701
0057010470999991973042512004+69017+023067FM-12+033099999V0201801N00251004201CN0050001N9-00201-00401100671ADDAY171999GF108991081051004501999999MD1710091+9999MW1701
0076010470999991973042515004+69017+023067FM-12+033099999V0201801N00251004201CN0050001N9-00201-00401999999ADDAY171999GF108991081051004501999999MD1710101+9999MW1701EQDQ01+099573APOSLP
0081010470999991973042518004+69017+023067FM-12+033099999V0201801N00251004201CN0050001N9-00101-00201100441ADDAA199002091AY171999GF108991081051004501999999KA1999M+00001MD1710131+9999MW1711
0071010470999991973042600004+69017+023067FM-12+033099999V0209991C000019999999N0150001N9+99999+99999100351ADDAY171999GF108991011051999999999999MD1010001+9999MW1701REMSYN00501***
0081010470999991973042606004+69017+023067FM-12+033099999V0209991C00001007501CN0550001N9-00301-00401100821ADDAA199002091AY171999GF108991081051008001999999KA1999N-00401MD1710051+9999MW1021
0057010470999991973042609004+69017+023067FM-12+033099999V0209991C00001004201CN0040001N9-00201-00301100281ADDAY171999GF108991081051004501999999MD1410001+9999MW1711
0057010470999991973042612004+69017+023067FM-12+033099999V0209991C00001007501CN0550001N9+00001-00401100221ADDAY171999GF108991081051008001999999MD1710061+9999MW1021
0057010470999991973042615004+69017+023067FM-12+033099999V0209991C00001007501CN0550001N9+00001-00301100251ADDAY121999GF108991081051008001999999MD1210031+9999MW1021
0081010470999991973042618004+69017+023067FM-12+033099999V0209991C00001007501CN0550001N9-00101-00301100221ADDAA199000591AY121999GF108991081051008001999999KA1999M+00001MD1710031+9999MW1021
0081010470999991973042706004+69017+023067FM-12+033099999V0203601N00101007501CN0700001N9-00101-00201099841ADDAA199000091AY121999GF108991081051008001999999KA1999N-00401MD1710181+9999MW1021
0057010470999991973042709004+69017+023067FM-12+033099999V0203601N00251002101CN0010001N9-00101-00101099531ADDAY171999GF108991081051002501999999MD1710311+9999MW1731
0057010470999991973042712004+69017+023067FM-12+033099999V0200301N00251002101CN0010001N9+00001+00001099281ADDAY171999GF108991081051002501999999MD1710251+9999MW1731
0057010470999991973042715004+69017+023067FM-12+033099999V0201001N00251007501CN0550001N9+00101-00201099191ADDAY171999GF108991081051008001999999MD1710091+9999MW1021
0081010470999991973042718004+69017+023067FM-12+033099999V0201501N00251004201CN0550001N9-00101-00401099441ADDAA199004091AY121999GF108991081051004501999999KA1999M+00101MD1210251+9999MW1021
0057010470999991973042800004+69017+023067FM-12+033099999V0201601N00251007501CN0550001N9+99999+99999099651ADDAY121999GF108991081051008001999999MD1210151+9999MW1021
0081010470999991973042806004+69017+023067FM-12+033099999V0201201N00251021001CN0700001N9-00401-00701099891ADDAA199000091AY121999GF106991061001022501071001KA1999N-00601MD1210161+9999MW1011
0057010470999991973042809004+69017+023067FM-12+033099999V0201201N00251004201CN0100001N9-00301-00701100061ADDAY121999GF108991081051004501999999MD1210171+9999MW1701
0057010470999991973042812004+69017+023067FM-12+033099999V0201801N00251007501CN0550001N9-00101-00501100231ADDAY121999GF108991081051008001999999MD1210171+9999MW1021
0057010470999991973042815004+69017+023067FM-12+033099999V0201801N00101007501CN0700001N9-00101-00601100441ADDAY121999GF108991081051008001999999MD1210211+9999MW1021
0081010470999991973042818004+69017+023067FM-12+033099999V0201801N00101220001CN0700001N9-00201-01301100661ADDAA199999929AY121999GF103991031001022501041001KA1999M+00001MD1210221+9999MW1011
0057010470999991973042900004+69017+023067FM-12+033099999V0209991C00001220001CN0700001N9-01401-01601101191ADDAY101999GF102991021021022501001001MD1210101+9999MW1021
0081010470999991973042906004+69017+023067FM-12+033099999V0209991C00001021001CN0700001N9-00701-00801101301ADDAA199000091AY101999GF105991051021022501001001KA1999N-01501MD1210121+9999MW1031
0057010470999991973042912004+69017+023067FM-12+033099999V0209991C00001012001CN0700001N9-00101-00801101491ADDAY121999GF106991061081008001001001MD1210151+9999MW1011
0081010470999991973042918004+69017+023067FM-12+033099999V0209991C00001007501CN0700001N9-00201-00601101641ADDAA199000091AY121999GF107991071051008001999999KA1999M+00001MD1210101+9999MW1021
0081010470999991973043006004+69017+023067FM-12+033099999V0200901N00101007501CN0550001N9-00301-00501101641ADDAA199000591AY171999GF108991081051008001999999KA1999N-00401MD1710081+9999MW1021
0057010470999991973043012004+69017+023067FM-12+033099999V0200901N00251004201CN0030001N9-00101-00201101281ADDAY121999GF108991081051004501999999MD1710211+9999MW1701
0057010470999991973043015004+69017+023067FM-12+033099999V0200801N00461002101CN0020001N9-00101-00201101001ADDAY171999GF108991081051002501999999MD1710281+9999MW1711
0081010470999991973043018004+69017+023067FM-12+033099999V0200901N00461002101CN0020001N9-00101-00201100831ADDAA199002091AY171999GF108991081051002501999999KA1999M-00101MD1710171+9999MW1731
0057010470999991973050100004+69017+023067FM-12+033099999V0200501N00461004201CN0300001N9-00201-00201100451ADDAY131999GF108991081051004501999999MD1010001+9999MW1021
0081010470999991973050106004+69017+023067FM-12+033099999V0200201N00251004201CN0045001N9-00101-00101100451ADDAA199004091AY171999GF108991081051004501999999KA1999N-00201MD1210051+9999MW1711
0057010470999991973050109004+69017+023067FM-12+033099999V0209991C00001007501CN0550001N9+00001-00301100621ADDAY121999GF108991081051008001999999MD1210171+9999MW1021
0057010470999991973050112004+69017+023067FM-12+033099999V0209991C00001220001CN0700001N9+00201-00401100821ADDAY101999GF102991021001022501041001MD1210201+9999MW1011
0057010470999991973050115004+69017+023067FM-12+033099999V0209991C00001220001CN0700001N9+00301-00501100821ADDAY101999GF102991021001022501041001MD1410001+9999MW1021
0081010470999991973050118004+69017+023067FM-12+033099999V0209991C00001220001CN0700001N9+00201-00501100751ADDAA199000091AY101999GF102991001001999999001011KA1999M+00401MD1710071+9999MW1021
0057010470999991973050200004+69017+023067FM-12+033099999V0209991C00001004201CN0550001N9+00301-00401100121ADDAY121999GF108991081051004501999999MD1710221+9999MW1021
0081010470999991973050206004+69017+023067FM-12+033099999V0201701N00461004201CN0030001N9+00101+00001099711ADDAA199000591AY171999GF108991081051004501999999KA1999N+00101MD1710351+9999MW1711
0057010470999991973050209004+69017+023067FM-12+033099999V0201801N00461012001CN0550001N9+00201+00101098891ADDAY121999GF106991061081008001001001MD1710221+9999MW1011
0057010470999991973050212004+69017+023067FM-12+033099999V0201801N00251007501CN0550001N9+00301+00001098791ADDAY121999GF108991081051008001999999MD1710101+9999MW1021
0057010470999991973050215004+69017+023067FM-12+033099999V0201801N00251007501CN0550001N9+00201+00101999999ADDAY121999GF108991081051008001999999MD1710171+9999MW1021
0081010470999991973050218004+69017+023067FM-12+033099999V0201801N00251007501CN0550001N9+00301+00001098261ADDAA199999929AY121999GF108991081051008001999999KA1999M+00301MD1710361+9999MW1021
0043010470999991973050300004+69017+023067FM-12+033099999V0202001N00251220001CN0700001N9+00201-00101098691ADDAY121999GF104991041001008001041001MW1011
0081010470999991973050306004+69017+023067FM-12+033099999V0201801N00251012001CN0700001N9+00101+00001099181ADDAA199000091AY101999GF108991081081008001999999KA1999N+00101MD1210081+9999MW1031
0057010470999991973050309004+69017+023067FM-12+033099999V0201801N00461220001CN0700001N9+00301-00401099171ADDAY121999GF103991021001022501041011MD1710011+9999MW1011
0057010470999991973050312004+69017+023067FM-12+033099999V0201801N00461220001CN0700001N9+00301-00501099211ADDAY101999GF103991021001022501041011MD1210041+9999MW1021
0076010470999991973050315004+69017+023067FM-12+033099999V0201801N004619999999N0700001N9+00301-00301099251ADDAY101999GF105991999021012501001001MD1210041+9999MW1031EQDQ01+000032SCOTLC
0081010470999991973050318004+69017+023067FM-12+033099999V0202101N00251012001CN0700001N9+00201-00101099441ADDAA199000091AY121999GF107991071081008001001001KA1999M+00301MD1210191+9999MW1031
0057010470999991973050400004+69017+023067FM-12+033099999V0202001N00251021001CN0700001N9-00201-00501099901ADDAY121999GF107991071001022501071001MD1210101+9999MW1021
0081010470999991973050406004+69017+023067FM-12+033099999V0202001N00251021001CN0700001N9-00101-00501100571ADDAA199000091AY121999GF107991071001022501071001KA1999N-00201MD1210101+9999MW1021
0057010470999991973050409004+69017+023067FM-12+033099999V0202101N00251075001CN0700001N9+00001-00401100201ADDAY121999GF105991021001022501041021MD1210371+9999MW1011
0057010470999991973050412004+69017+023067FM-12+033099999V0202101N00251075001CN0700001N9+00101-00601100321ADDAY121999GF105991021001022501041021MD1210121+9999MW1011
0057010470999991973050415004+69017+023067FM-12+033099999V0209991C00001021001CN0700001N9+00101-00501100431ADDAY121999GF106991061001022501071001MD1210111+9999MW1031
0081010470999991973050418004+69017+023067FM-12+033099999V0202701N00251007501CN0700001N9+00001-00501100821ADDAA199000091AY121999GF108991081051008001999999KA1999M+00101MD1210391+9999MW1031
0057010470999991973050500004+69017+023067FM-12+033099999V0209991C000019999999N0700001N9-00301-00401101161ADDAY121999GF106991061001008001071001MD1210151+9999MW1011
0081010470999991973050506004+69017+023067FM-12+033099999V0202201N00101220001CN0700001N9+00001-00501101291ADDAA199000091AY121999GF102991021021022501041001KA1999N+00001MD1210081+9999MW1011
0057010470999991973050509004+69017+023067FM-12+033099999V0202701N00101220001CN0700001N9+00201-00601101331ADDAY101999GF102991011001022501041011MD1210041+9999MW1021
0057010470999991973050515004+69017+023067FM-12+033099999V0202701N00101220001CN0700001N9+00201-00501101391ADDAY101999GF102991021001022501041021MD1210051+9999MW1021
0081010470999991973050518004+69017+023067FM-12+033099999V0209991C000019999999N0700001N9+99999+99999101101ADDAA199000091AY101999GF107991071001022501999001KA1999M+00301MD1210021+9999MW1031
0057010470999991973050600004+69017+023067FM-12+033099999V0209991C00001220001CN0700001N9-00601-01201101601ADDAY101999GF101991011001022501041001MD1710021+9999MW1011
0081010470999991973050606004+69017+023067FM-12+033099999V0209991C00001220001CN0700001N9-00301-00801101331ADDAA199000091AY101999GF103991031021022501001011KA1999N-00601MD1710101+9999MW1021
0057010470999991973050609004+69017+023067FM-12+033099999V0209991C00001021001CN0700001N9+00301-00401101091ADDAY101999GF106991061001022501071001MD1710241+9999MW1031
0057010470999991973050612004+69017+023067FM-12+033099999V0209991C00001021001CN0700001N9+00401-00301100951ADDAY101999GF106991061081022501001001MD1710141+9999MW1021
0057010470999991973050615004+69017+023067FM-12+033099999V0209991C00001220001CN0700001N9+00301-00501100791ADDAY101999GF103991031011022501001001MD1710161+9999MW1021
0081010470999991973050618004+69017+023067FM-12+033099999V0209991C00001012001CN0700001N9+00101-00501100761ADDAA199000091AY101999GF106991061081008001001001KA1999M+00401MD1710031+9999MW1031
0057010470999991973050700004+69017+023067FM-12+033099999V0203601N00101220001CN0700001N9-00301-00901100891ADDAY121999GF102991999999999999999999MD1210041+9999MW1011
0081010470999991973050706004+69017+023067FM-12+033099999V0209991C00001021001CN0700001N9-00201-00501101021ADDAA199000091AY101999GF106991061001022501071001KA1999N-00501MD1210151+9999MW1031
0057010470999991973050709004+69017+023067FM-12+033099999V0209991C00001220001CN0700001N9+00101-00401101141ADDAY121999GF102991021011012501001001MD1210121+9999MW1011
0057010470999991973050712004+69017+023067FM-12+033099999V0200801N00101220001CN0700001N9+00201-00401101221ADDAY101999GF102991021021012501001001MD1210081+9999MW1021
0057010470999991973050715004+69017+023067FM-12+033099999V0209991C00001220001CN0700001N9+00101-00501101311ADDAY101999GF102991021021012501001001MD1210091+9999MW1021
0081010470999991973050718004+69017+023067FM-12+033099999V0209991C00001220001CN0700001N9+00001-00601101431ADDAA199000091AY101999GF101991001001999999001011KA1999M+00201MD1210121+9999MW1011
0067010470999991973050806004+69017+023067FM-12+033099999V0209991C00001012001CN0700001N9-00601-01001101931ADDAA199000091GF106991061081008001001001KA1999N-01001MD1210101+9999
0057010470999991973050812004+69017+023067FM-12+033099999V0209991C00001220001CN0700001N9+00101-00501101711ADDAY101999GF102991001001999999001011MD1710141+9999MW1011
0068010470999991973050818004+69017+023067FM-12+033099999V0209999999999021001CN0700001N9+00201+99999101631ADDAA199001091AY121999GF107991071001022501071001MD1010001+9999MW1031
0081010470999991973050906004+69017+023067FM-12+033099999V0209991C00001007501CN0700001N9+00101+00001101271ADDAA199000091AY121999GF108991081051008001999999KA1999N-00101MD1710081+9999MW1021
0057010470999991973050909004+69017+023067FM-12+033099999V0209991C00001007501CN0700001N9+00101-00301101181ADDAY121999GF108991081051008001999999MD1710091+9999MW1021
0057010470999991973050912004+69017+023067FM-12+033099999V0201801N00101007501CN0200001N9+00101+00001101111ADDAY171999GF108991081051008001999999MD1710071+9999MW1701
0057010470999991973050915004+69017+023067FM-12+033099999V0209991C00001007501CN0550001N9+00201+00101100961ADDAY121999GF108991081051008001999999MD1710151+9999MW1021
0081010470999991973050918004+69017+023067FM-12+033099999V0209991C00001007501CN0550001N9+00301+00001100771ADDAA199999929AY121999GF108991081051008001999999KA1999M+00301MD1710191+9999MW1021
0081010470999991973051006004+69017+023067FM-12+033099999V0209991C00001007501CN0700001N9+00301+00101100711ADDAA199000091AY121999GF108991081051008001999999KA1999N+00201MD1710051+9999MW1021
0057010470999991973051009004+69017+023067FM-12+033099999V0209991C000019999999N0700001N9+99999+99999100691ADDAY121999GF108991999999999999999999MD1010001+9999MW1021
0057010470999991973051012004+69017+023067FM-12+033099999V0209991C00001007501CN0700001N9+00301+00101100791ADDAY121999GF108991081051008001999999MD1710101+9999MW1021
0057010470999991973051015004+69017+023067FM-12+033099999V0209991C00001007501CN0700001N9+00301-00101100771ADDAY121999GF108991081051008001999999MD1710021+9999MW1021
0081010470999991973051018004+69017+023067FM-12+033099999V0201801N00101007501CN0700001N9+00301+00001100811ADDAA199000091AY121999GF108991081051008001999999KA1999M+00401MD1210041+9999MW1021
0057010470999991973051100004+69017+023067FM-12+033099999V0209991C00001030001CN0700001N9+00201+00101100801ADDAY121999GF108991041071008001021999MD1710011+9999MW1021
0081010470999991973051106004+69017+023067FM-12+033099999V0209991C00001007501CN0700001N9+00201+00101100721ADDAA199000091AY121999GF108991081051008001999999KA1999N+00101MD1710061+9999MW1021
0057010470999991973051112004+69017+023067FM-12+033099999V0201601N00101007501CN0550001N9+00401+00101100611ADDAY121999GF108991081051008001999999MD1710051+9999MW1021
0057010470999991973051115004+69017+023067FM-12+033099999V0201601N00251030001CN0300001N9+00301+00201100491ADDAY121999GF108991041071008001021999MD1710121+9999MW1601
0081010470999991973051118004+69017+023067FM-12+033099999V0201801N00101012001CN0700001N9+00301+00201100651ADDAA199999929AY121999GF105991051021012501001001KA1999M+00401MD1210161+9999MW1011
0081010470999991973051206004+69017+023067FM-12+033099999V0201301N00101007501CN0700001N9+00101+00001100911ADDAA199000091AY121999GF108991081051008001999999KA1999N-00301MD1710011+9999MW1021
0057010470999991973051212004+69017+023067FM-12+033099999V0209991C00001007501CN0700001N9+00401+00101100681ADDAY121999GF108991081051008001999999MD1710141+9999MW1021
0057010470999991973051300004+69017+023067FM-12+033099999V0209991C00001220001CN0700001N9-00201-00301100631ADDAY101999GF102991021001022501041001MD1410001+9999MW1021
0081010470999991973051306004+69017+023067FM-12+033099999V0209991C00001220001CN0700001N9-00201-00301100441ADDAA199000091AY101999GF101991001001999999001011KA1999N-00201MD1710101+9999MW1021
0057010470999991973051309004+69017+023067FM-12+033099999V0209991C00001220001CN0700001N9+00301+00001100291ADDAY101999GF101991001001999999001011MD1710151+9999MW1021
0057010470999991973051312004+69017+023067FM-12+033099999V0201801N00251220001CN0700001N9+00501-00201100141ADDAY101999GF100991001001999999001001MD1710161+9999MW1011
0057010470999991973051315004+69017+023067FM-12+033099999V0201801N00101220001CN0700001N9+00501-00201099881ADDAY101999GF103991031001022501041001MD1710261+9999MW1031
0081010470999991973051318004+69017+023067FM-12+033099999V0209999999999030001CN0700001N9+00401-00201099801ADDAA199000091AY101999GF105991031021022501041001KA1999M+00501MD1710081+9999MW1031
0081010470999991973051406004+69017+023067FM-12+033099999V0201501N00251007501CN0030001N9+00201+00101099011ADDAA199000291AY161999GF108991081051008001999999KA1999N+00101MD1710251+9999MW1601
0057010470999991973051409004+69017+023067FM-12+033099999V0200901N002519999999N0020001N9+00201+00101098831ADDAY171999GF108991021051004501999999MD1710181+9999MW1701
0076010470999991973051412004+69017+023067FM-12+033099999V0209991C00001004201CN0550001N9+00201-00401999999ADDAY121999GF108991081051004501999999MD1710181+9999MW1021EQDQ01+099513APOSLP
0057010470999991973051415004+69017+023067FM-12+033099999V0201101N00101007501CN0550001N9+00201+00101098571ADDAY171999GF108991081051008001999999MD1710131+9999MW1021
0081010470999991973051418004+69017+023067FM-12+033099999V0200301N00101007501CN0300001N9+00101+00001098401ADDAA199003091AY171999GF108991081051008001999999KA1999M+00301MD1710171+9999MW1831
0081010470999991973051506004+69017+023067FM-12+033099999V0203401N00251007501CN0700001N9+00101+00001098971ADDAA199002091AY171999GF107991071051008001999999KA1999N-00801MD1210301+9999MW1011
0057010470999991973051509004+69017+023067FM-12+033099999V0203301N00251007501CN0700001N9+00201+00001099431ADDAY121999GF108991081051008001999999MD1210461+9999MW1021
0057010470999991973051512004+69017+023067FM-12+033099999V0203401N00251007501CN0700001N9+00301-00301099741ADDAY121999GF108991081051008001999999MD1210311+9999MW1021
0057010470999991973051515004+69017+023067FM-12+033099999V0203401N00461007501CN0700001N9+00101-00301100351ADDAY121999GF108991081051008001999999MD1210611+9999MW1021
0081010470999991973051518004+69017+023067FM-12+033099999V0203601N00251007501CN0700001N9+00001-00501100811ADDAA199000091AY121999GF108991081051008001999999KA1999M+00301MD1210461+9999MW1021
0057010470999991973051600004+69017+023067FM-12+033099999V0209991C00001021001CN0700001N9-00301-00701101511ADDAY121999GF105991051001022501071001MD1210331+9999MW1011
0081010470999991973051606004+69017+023067FM-12+033099999V0209991C00001220001CN0700001N9+00001-00301102191ADDAA199000091AY121999GF104991041021012501001001KA1999N-00301MD1210301+9999MW1011
0057010470999991973051609004+69017+023067FM-12+033099999V0209991C00001220001CN0700001N9+00101-00601102391ADDAY101999GF103991031011012501001001MD1210201+9999MW1011
0057010470999991973051612004+69017+023067FM-12+033099999V0209991C00001012001CN0700001N9+00201-00501102631ADDAY101999GF107991071081008001999999MD1210241+9999MW1031
0057010470999991973051615004+69017+023067FM-12+033099999V0209991C00001012001CN0700001N9+00201-00801102771ADDAY121999GF105991051021012501001001MD1210141+9999MW1011
0081010470999991973051618004+69017+023067FM-12+033099999V0209991C00001021001CN0700001N9+00201-00701102821ADDAA199000091AY121999GF106991061001022501071001KA1999M+00301MD1210051+9999MW1031
0057010470999991973051700004+69017+023067FM-12+033099999V0209991C00001021001CN0700001N9+00001-00401103121ADDAY121999GF106991061001022501071001MD1210101+9999MW1021
0081010470999991973051706004+69017+023067FM-12+033099999V0209991C000019999999N0700001N9+00101-00601103241ADDAA199000091AY121999GF105991999999999999999999KA1999N-00101MD1210111+9999MW1011
0057010470999991973051712004+69017+023067FM-12+033099999V0209991C00001220001CN0700001N9+00301-00601103211ADDAY111999GF100991001001999999001001MD1710061+9999MW1011
0057010470999991973051715004+69017+023067FM-12+033099999V0209991C00001220001CN0700001N9+00401-00501103231ADDAY101999GF100991001001999999001001MD1210021+9999MW1021
0081010470999991973051718004+69017+023067FM-12+033099999V0209991C00001220001CN0700001N9+00301-00601103201ADDAA199000091AY111999GF101991001001999999001011KA1999M+00401MD1710031+9999MW1031
0100010470999991973051806004+69017+023067FM-12+033099999V0209991C00001220001CN0700001N9+00101-00501999999ADDAA199000091AY101999GF100991001001999999001001KA1999N+00001MD1210021+9999MW1011EQDQ01 100443APOSLP
0076010470999991973051809004+69017+023067FM-12+033099999V0209991C00001220001CN0700001N9+00501-00301103402ADDAY101999GF100991001001999999001001MD1710041+9999MW1021EQDQ01+103403APOSLP
0057010470999991973051812004+69017+023067FM-12+033099999V0209991C00001220001CN0700001N9+00601-00301103371ADDAY101999GF100991001001999999001001MD1710031+9999MW1021
0057010470999991973051815004+69017+023067FM-12+033099999V0209991C00001220001CN0700001N9+00601-00301103141ADDAY101999GF100991001001999999001001MD1710231+9999MW1021
0081010470999991973051818004+69017+023067FM-12+033099999V0209991C00001220001CN0700001N9+00601-00201103141ADDAA199000091AY101999GF100991001001999999001001KA1999M+00701MD1410001+9999MW1021
