0043010450999991973010106004+69833+021900FM-12+000599999V0202901N00921009001CN0150001N9+00501+00401999999ADDAY121999GF108991081081004501999999MW1851
0043010450999991973010212004+69833+021900FM-12+000599999V0202701N00921009001CN0200001N9+00301+00101999999ADDAY181999GF106991061081004501999999MW1251
0043010450999991973010312004+69833+021900FM-12+000599999V0203001N00921009001CN0080001N9-00301-00401999999ADDAY181999GF106991061081004501999999MW1261
0043010450999991973010412004+69833+021900FM-12+000599999V0201801N00661030001CN0500001N9+00101-00201999999ADDAY121999GF108991041071004501011999MW1021
0043010450999991973010612004+69833+021900FM-12+000599999V0203601N00101009001CN0150001N9-00401-00401999999ADDAY181999GF108991081081004501999999MW1261
0043010450999991973010812004+69833+021900FM-12+000599999V0203201N00671009001CN0300001N9-00101-00601999999ADDAY121999GF108991081081004501999999MW1151
0081010450999991973011206004+69833+021900FM-12+000599999V0202201N00971007501CN0180001N9+00701+00401999999ADDAA199002091AY181999GF108991071091008001041001KA1999N+00601MW1101REMSYN00570206
0043010450999991973011212004+69833+021900FM-12+000599999V0201601N00251009001CN0200001N9+00501+00201999999ADDAY121999GF106991061081004501999999MW1151
0067010450999991973011406004+69833+021900FM-12+000599999V0201601N00251075001CN0500001N9-00301-00601999999ADDAA199999929AY121999GF105991021041008001001021KA1999N-00301MW1021
0043010450999991973011412004+69833+021900FM-12+000599999V0201701N00461220001CN0500001N9-00101-00601999999ADDAY121999GF105991011041008001001081MW1021
0043010450999991973011512004+69833+021900FM-12+000599999V0209991C00001007501CN0500001N9+00401+00001999999ADDAY121999GF106991061061008001001001MW1021
0067010450999991973011518004+69833+021900FM-12+000599999V0201801N00101007501CN0500001N9+00301+00201999999ADDAA199000091AY121999GF108991081051008001999999KA1999M+00501MW1021
0043010450999991973011812004+69833+021900FM-12+000599999V0201801N00461220001CN0500001N9+00001-00401999999ADDAY111999GF104991011011012501001081MW1021
0067010450999991973011818004+69833+021900FM-12+000599999V0201801N00461012001CN0500001N9+00001-00401999999ADDAA199000091AY121999GF107991071051012501999999KA1999M+00701MW1021
0043010450999991973011912004+69833+021900FM-12+000599999V0201601N00251220001CN0500001N9-00301-00401999999ADDAY111999GF102991011011008001071001MW1021
0043010450999991973012112004+69833+021900FM-12+000599999V0201801N00461220001CN0500001N9-00101-00701999999ADDAY101999GF101991011011012501041001MW1021
0043010450999991973012312004+69833+021900FM-12+000599999V0201601N00251220001CN0500001N9-00201-00301999999ADDAY101999GF101991011011012501001011MW1021
0067010450999991973012406004+69833+021900FM-12+000599999V0201801N00671030001CN0500001N9-00201-00501999999ADDAA199000091AY121999GF108991011071008001011999KA1999N-00601MW1021
0043010450999991973012512004+69833+021900FM-12+000599999V0209991C00001007501CN0500001N9+00201+00101999999ADDAY121999GF106991061061008001001001MW1021
0043010450999991973012612004+69833+021900FM-12+000599999V0201401N00921030001CN0200001N9-00601-00801999999ADDAY121999GF108991021071004501011999MW1151
0086010450999991973012700004+69833+021900FM-12+000599999V0201401N00921012001CN0300001N9-01301-01601999999ADDAA106000091AY121999GF106991061081008001999999KA1999N-01301MW1021EQDQ01  00003PRCP99
0043010450999991973012812004+69833+021900FM-12+000599999V0201801N00921220001CN0500001N9-00801-01001999999ADDAY111999GF103991011011012501001021MW1021
0043010450999991973012912004+69833+021900FM-12+000599999V0201801N00671220001CN0500001N9-00601-00901999999ADDAY111999GF104991011061008001001021MW1021
0043010450999991973020112004+69833+021900FM-12+000599999V0209991C00001220001CN0300001N9+00201+00001999999ADDAY111999GF103991031081004501999999MW1151
0043010450999991973020312004+69833+021900FM-12+000599999V0203001N00921009001CN0030001N9-00301-00401999999ADDAY181999GF107991071081004501999999MW1851
0043010450999991973020412004+69833+021900FM-12+000599999V0201801N00251030001CN0500001N9-00301-00901999999ADDAY121999GF108991011081008001011999MW1021
0067010450999991973020418004+69833+021900FM-12+000599999V0201801N00921009001CN0300001N9-00401-00601999999ADDAA199000091AY121999GF105991051081004501999999KA1999M-00301MW1021
0067010450999991973020718004+69833+021900FM-12+000599999V0201801N00251220001CN0600001N9-00801-01201999999ADDAA199000091AY101999GF101991011011012501001001KA1999M-00801MW1021
0067010450999991973020818004+69833+021900FM-12+000599999V0201401N00461220001CN0500001N9-00801-01001999999ADDAA199000091AY101999GF102991011011008001001021KA1999M-00701MW1021
0043010450999991973021012004+69833+021900FM-12+000599999V0201801N00461220001CN0500001N9-00501-00901999999ADDAY111999GF104991031081004501001021MW1021
0067010450999991973021018004+69833+021900FM-12+000599999V0201601N00461009001CN0250001N9-00601-00901999999ADDAA199000091AY121999GF107991071081004501999999KA1999M-00401MW1151
0067010450999991973021318004+69833+021900FM-12+000599999V0201801N01231009001CN0500001N9-00301-00701999999ADDAA199000091AY111999GF105991051081004501001001KA1999M+00201MW1021
0067010450999991973021518004+69833+021900FM-12+000599999V0201801N00461007501CN0500001N9-00201-00501999999ADDAA199000291AY121999GF107991071051008001001001KA1999M+00001MW1021
0043010450999991973021612004+69833+021900FM-12+000599999V0203201N00101009001CN0080001N9-00101-00501999999ADDAY121999GF106991061081004501001001MW1161
0043010450999991973021812004+69833+021900FM-12+000599999V0201801N00671220001CN0600001N9-00301-00701999999ADDAY101999GF101991011011008001001021MW1021
0067010450999991973021818004+69833+021900FM-12+000599999V0201801N00671220001CN0600001N9-00301-00601999999ADDAA199000091AY101999GF100991001001999999001001KA1999M-00101MW1021
0056010450999991973021918004+69833+021900FM-12+000599999V0209991C00001220001CN0500001N9+00001-00201999999ADDAY111999GF101991011011008001001001KA1999M+00201MW1021
0043010450999991973022112004+69833+021900FM-12+000599999V0203401N00921009001CN0150001N9-00301-00301999999ADDAY181999GF106991061081004501999999MW1851
0043010450999991973022512004+69833+021900FM-12+000599999V0201801N00461220001CN0500001N9-00601-01001999999ADDAY111999GF101991011081004501001001MW1021
0043010450999991973022612004+69833+021900FM-12+000599999V0201601N00251220001CN0150001N9-00301-00801999999ADDAY111999GF102991999999999999999999MW1151
0043010450999991973022706004+69833+021900FM-12+000599999V0201401N00251220001CN0550001N9-01001-01201999999ADDAY101999GF100991001001999999001001MW1021
0043010450999991973022812004+69833+021900FM-12+000599999V0201801N00461220001CN0700001N9-01001-01301999999ADDAY101999GF100991001001999999001001MW1021
0067010450999991973022818004+69833+021900FM-12+000599999V0201801N00671220001CN0600001N9-01001-01201999999ADDAA199000091AY101999GF100991001001999999001001KA1999M-00901MW1021
0119010450999991973030100004+69833+021900FM-12+000599999V0209991C00001220001CN0100001N9+00702+00602102501ADDAA106000091AY101999GF100991001001999999001001MD1110091+9999MW1001EQDQ01+028023ATOT  Q02+027923ATOD  Q03  00003PRCP99
0043010450999991973030112004+69833+021900FM-12+000599999V0201801N00251220001CN0550001N9-00801-01201999999ADDAY101999GF100991001001999999001001MW1021
0067010450999991973030206004+69833+021900FM-12+000599999V0201401N00461220001CN0500001N9-01201-01401999999ADDAA199000091AY101999GF101991001001999999001021KA1999N-01301MW1021
0067010450999991973030406004+69833+021900FM-12+000599999V0201801N00671030001CN0500001N9-00301-00701999999ADDAA199000091AY111999GF107991011041008001071999KA1999N-00401MW1021
0043010450999991973030412004+69833+021900FM-12+000599999V0201801N00671220001CN0550001N9-00101-00501999999ADDAY111999GF101991011081008001001021MW1021
0043010450999991973030512004+69833+021900FM-12+000599999V0201801N00921220001CN0550001N9-00101-00501999999ADDAY101999GF101991011011008001001011MW1021
0067010450999991973030518004+69833+021900FM-12+000599999V0201801N00671220001CN0500001N9-00101-00401999999ADDAA199000091AY101999GF102991011011008001041001KA1999M+00001MW1021
0043010450999991973030612004+69833+021900FM-12+000599999V0201801N00101220001CN0300001N9-00301-00401999999ADDAY101999GF102991021081004501001001MW1021
0067010450999991973030706004+69833+021900FM-12+000599999V0201501N00461220001CN0550001N9-00401-00701999999ADDAA199000091AY101999GF101991011011008001001001KA1999N-00501MW1021
0067010450999991973030718004+69833+021900FM-12+000599999V0201401N00461220001CN0500001N9-00301-00801999999ADDAA199000091AY101999GF101991011081004501001001KA1999M+00001MW1021
0067010450999991973030818004+69833+021900FM-12+000599999V0202701N00461009001CN0500001N9+00201+00101999999ADDAA199001091AY121999GF107991071081004501999999KA1999M+00301MW1021
0043010450999991973030912004+69833+021900FM-12+000599999V0201801N00101009001CN0250001N9+00601+00201999999ADDAY121999GF107991071081004501999999MW1151
0067010450999991973031006004+69833+021900FM-12+000599999V0202901N00921009001CN0080001N9-00101-00201999999ADDAA199002091AY151999GF105991051081004501999999KA1999N-00201MW1181
0067010450999991973031118004+69833+021900FM-12+000599999V0202701N00921009001CN0250001N9+00501+00001999999ADDAA199999929AY121999GF106991061081004501001001KA1999M+00501MW1151
0067010450999991973031206004+69833+021900FM-12+000599999V0202801N00671009001CN0030001N9+00101+00101999999ADDAA199017091AY181999GF108991081081004501999999KA1999N+00001MW1851
0043010450999991973031212004+69833+021900FM-12+000599999V0202701N00461009001CN0300001N9+00101-00201999999ADDAY121999GF107991071081004501999999MW1151
0067010450999991973031806004+69833+021900FM-12+000599999V0201601N00461009001CN0200001N9-00701-01001999999ADDAA199002091AY181999GF107991071081004501999999KA1999N-00801MW1151
0043010450999991973031812004+69833+021900FM-12+000599999V0203001N00671004201CN0060001N9-00401-00501999999ADDAY171999GF108991081071004501999999MW1701
0043010450999991973031912004+69833+021900FM-12+000599999V0201801N00461009001CN0250001N9-00401-00801999999ADDAY121999GF107991071081004501999999MW1151
0043010450999991973032212004+69833+021900FM-12+000599999V0201801N01231075001CN9999999N9-00501-00901999999ADDAY131999GF105991031021004501001021MW1381
0043010450999991973032412004+69833+021900FM-12+000599999V0202701N00101004201CN0150001N9+00301+00201999999ADDAY121999GF108991081061004501999999MW1501
0067010450999991973032718004+69833+021900FM-12+000599999V0201801N00671220001CN0600001N9+00301-00401999999ADDAA199000091AY111999GF102991011011008001001021KA1999M+00301MW1021
0043010450999991973032812004+69833+021900FM-12+000599999V0201801N00461220001CN0600001N9+00501-00101999999ADDAY111999GF105991011011008001001081MW1021
0067010450999991973032818004+69833+021900FM-12+000599999V0201801N00461220001CN0550001N9+00301-00201999999ADDAA199000091AY111999GF101991011011008001001021KA1999M+00601MW1021
0067010450999991973040418004+69833+021900FM-12+000599999V0209991C00001001201CN0040001N9+00001+00001999999ADDAA199000591AY171999GF108991081071001501999999KA1999M+00301MW1681
0067010450999991973040518004+69833+021900FM-12+000599999V0201801N00461220001CN0550001N9-00101-00601999999ADDAA199000091AY101999GF103991011011008001001081KA1999M+00301MW1021
0067010450999991973040606004+69833+021900FM-12+000599999V0201801N00251009001CN0080001N9-00101-00201999999ADDAA199999929AY121999GF108991081081004501999999KA1999N-00101MW1851
0043010450999991973040612004+69833+021900FM-12+000599999V0201801N00251009001CN0040001N9+00001-00101999999ADDAY181999GF108991081081004501999999MW1851
0067010450999991973040706004+69833+021900FM-12+000599999V0201401N00101009001CN0500001N9+00001+00001999999ADDAA199999929AY121999GF105991051081004501001001KA1999N-00101MW1021
0067010450999991973040806004+69833+021900FM-12+000599999V0201401N00461030001CN0500001N9+00001+00001999999ADDAA199000091AY121999GF105991021081004501061999KA1999N-00101MW1021
0043010450999991973040812004+69833+021900FM-12+000599999V0201801N00101075001CN0500001N9+00301-00101999999ADDAY111999GF105991011011008001051021MW1021
0067010450999991973040818004+69833+021900FM-12+000599999V0201801N00251220001CN0500001N9+00001-00401999999ADDAA199000091AY111999GF101991011011008001001011KA1999M+00301MW1021
0067010450999991973040918004+69833+021900FM-12+000599999V0201801N00251075001CN0250001N9+00001-00401999999ADDAA199000091AY111999GF105991021061004501001021KA1999M+00301MW1021
0067010450999991973041006004+69833+021900FM-12+000599999V0201501N00251220001CN0550001N9-00201-00301999999ADDAA199000091AY111999GF101991011011008001001001KA1999N-00401MW1021
0043010450999991973041012004+69833+021900FM-12+000599999V0201801N00101220001CN0550001N9+00201-00301999999ADDAY101999GF101991011021008001001001MW1021
0067010450999991973041706004+69833+021900FM-12+000599999V0200901N00101220001CN0550001N9-00101-00501999999ADDAA199000091AY111999GF104991011011012501001081KA1999N-00301MW1021
0095010450999991973041712004+69833+021900FM-12+000599999V0202901N00101030001CN0600001N9+00201+99999999999ADDAY121999GA1071+999999039GA2021+999999049GF107991001001999999001081MW1021REMSYN01191*78 41*9*
0067010450999991973041806004+69833+021900FM-12+000599999V0203201N00461009001CN0300001N9+00001-00401999999ADDAA199000291AY121999GF107991071081004501999999KA1999N-00101MW1151
0043010450999991973041812004+69833+021900FM-12+000599999V0203201N00461220001CN0300001N9+00101-00301999999ADDAY111999GF102991021081004501001021MW1151
0043010450999991973041912004+69833+021900FM-12+000599999V0201801N00461220001CN0600001N9+00001-00401999999ADDAY111999GF101991011011012501001001MW1021
0067010450999991973041918004+69833+021900FM-12+000599999V0201801N00461220001CN0550001N9-00201-00501999999ADDAA199000091AY101999GF101991011011012501001001KA1999M+00001MW1021
0043010450999991973042012004+69833+021900FM-12+000599999V0201401N00671220001CN0550001N9+00101-00401999999ADDAY101999GF101991011011008001001001MW1021
0043010450999991973042112004+69833+021900FM-12+000599999V0201801N00671220001CN0550001N9+00101-00201999999ADDAY101999GF100991001001999999001001MW1021
0067010450999991973042318004+69833+021900FM-12+000599999V0200401N00101009001CN0020001N9+00101+00101999999ADDAA199001091AY181999GF108991081081004501999999KA1999M+00501MW1851
0043010450999991973042512004+69833+021900FM-12+000599999V0201801N00251009001CN0130001N9+00201+00201999999ADDAY121999GF107991071081004501999999MW1851
0043010450999991973042612004+69833+021900FM-12+000599999V0202901N00251009001CN0050001N9+00101+00101999999ADDAY181999GF108991081081004501999999MW1851
0067010450999991973042718004+69833+021900FM-12+000599999V0201601N00101009001CN0500001N9+00201+00201999999ADDAA199004091AY121999GF107991071081004501999999KA1999M+00301MW1021
0043010450999991973042812004+69833+021900FM-12+000599999V0201601N00671220001CN0500001N9+00101-00301999999ADDAY111999GF104991021021008001061001MW1021
0043010450999991973042912004+69833+021900FM-12+000599999V0201801N00671220001CN0600001N9+00201-00301999999ADDAY111999GF101991011011008001041001MW1021
0067010450999991973042918004+69833+021900FM-12+000599999V0201801N00461220001CN0500001N9+00201+00001999999ADDAA199000091AY101999GF101991011021008001001001KA1999M+00301MW1021
0067010450999991973043006004+69833+021900FM-12+000599999V0201801N00671075001CN0500001N9+00101-00101999999ADDAA199000091AY111999GF105991011021008001061081KA1999N+00101MW1021
0043010450999991973043012004+69833+021900FM-12+000599999V0201401N00671009001CN0500001N9+00201-00101999999ADDAY121999GF107991071081004501999999MW1021
0043010450999991973050112004+69833+021900FM-12+000599999V0201801N00101220001CN0500001N9+00401+00101999999ADDAY111999GF103991011011004501001051MW1021
0067010450999991973050118004+69833+021900FM-12+000599999V0201801N00461220001CN0600001N9+00401-00201999999ADDAA199001091AY101999GF102991011011008001001041KA1999M+00501MW1021
0067010450999991973050206004+69833+021900FM-12+000599999V0201601N00921009001CN0500001N9+00501+00301999999ADDAA199999929AY121999GF106991061081004501999999KA1999N+00401MW1021
0067010450999991973050306004+69833+021900FM-12+000599999V0201801N00461009001CN0500001N9+00601+00101999999ADDAA199999929AY111999GF106991061081004501999999KA1999N+00401MW1021
0043010450999991973050312004+69833+021900FM-12+000599999V0201801N00101009001CN0300001N9+00701+00001999999ADDAY121999GF107991071081004501999999MW1151
0043010450999991973050612004+69833+021900FM-12+000599999V0201501N00461220001CN0550001N9+00501-00101999999ADDAY101999GF101991011011012501001001MW1021
0067010450999991973050618004+69833+021900FM-12+000599999V0201401N00461220001CN9999999N9+00401+00201999999ADDAA199000091AY101999GF101991011081008001001001KA1999M+00501MW1021
0067010450999991973050706004+69833+021900FM-12+000599999V0201201N00251220001CN0500001N9+00201+00101999999ADDAA199999929AY111999GF102991021081004501001001KA1999N+00001MW1261
0043010450999991973050912004+69833+021900FM-12+000599999V0203001N00251220001CN0500001N9+00701+00301999999ADDAY101999GF101991001001999999001021MW1021
0067010450999991973050918004+69833+021900FM-12+000599999V0201801N00251007501CN0500001N9+00601+00501999999ADDAA199000091AY111999GF106991061051008001001021KA1999M+00801MW1031
0067010450999991973051106004+69833+021900FM-12+000599999V0201401N00671075001CN0500001N9+00601+00501999999ADDAA199000091AY121999GF107991031021008001001081KA1999N+00501MW1021
0043010450999991973051112004+69833+021900FM-12+000599999V0201601N00461009001CN0200001N9+00701+00501999999ADDAY121999GF108991081081004501999999MW1021
0067010450999991973051206004+69833+021900FM-12+000599999V0202001N00251220001CN0550001N9+00801+00401999999ADDAA199000091AY101999GF102991021021008001001021KA1999N+00601MW1021
0043010450999991973051212004+69833+021900FM-12+000599999V0201801N00671220001CN0550001N9+00701+00501999999ADDAY101999GF103991011021008001061021MW1021
0043010450999991973051312004+69833+021900FM-12+000599999V0201801N00461220001CN0700001N9+00801+00301999999ADDAY101999GF101991001001999999001021MW1021
0067010450999991973051318004+69833+021900FM-12+000599999V0201801N00251220001CN0550001N9+00801+00401999999ADDAA199000091AY101999GF103991031081008001001001KA1999M+00901MW1021
0067010450999991973051406004+69833+021900FM-12+000599999V0201401N00671009001CN0500001N9+00501+00301999999ADDAA199999929AY111999GF108991081081004501999999KA1999N+00501MW1021
0067010450999991973051506004+69833+021900FM-12+000599999V0203001N00671009001CN0500001N9+99999+99999999999ADDAA199003091AY161999GF107991071081004501999999KA1999N+00301MW1151
0043010450999991973051512004+69833+021900FM-12+000599999V0203001N00921004201CN0200001N9+00301+00301999999ADDAY121999GF108991081071004501999999MW1151
0067010450999991973051606004+69833+021900FM-12+000599999V0202301N00671220001CN0400001N9+00201+00101999999ADDAA199000291AY181999GF103991031081004501001001KA1999N+00001MW1151
0043010450999991973051812004+69833+021900FM-12+000599999V0201801N00251220001CN0700001N9+01101+00401999999ADDAY101999GF100991001001999999001001MW1021
0067010450999991973051818004+69833+021900FM-12+000599999V0201801N00461220001CN0500001N9+00901+00601999999ADDAA199000091AY101999GF100991001001999999001001KA1999M+01101MW1021
0067010450999991973052106004+69833+021900FM-12+000599999V0209991C00001007501CN0500001N9+00501+00501999999ADDAA199000091AY121999GF108991081061008001999999KA1999N+00301MW1021
0043010450999991973052212004+69833+021900FM-12+000599999V0203001N00461004201CN0500001N9+00701+00501999999ADDAY121999GF107991071061004501999999MW1021
0067010450999991973052218004+69833+021900FM-12+000599999V0202901N00461004201CN0500001N9+00501+00401999999ADDAA199000091AY121999GF107991071061004501999999KA1999M+00801MW1021
0057010450999991973052418004+69833+021900FM-12+000599999V0203201N00461009001CN0500001N9+00301+00301999999ADDAY121999GF106991061081004501001001MW1151REMSYN00500206
0067010450999991973052506004+69833+021900FM-12+000599999V0203201N00461009001CN0500001N9+00201+00001999999ADDAA199003091AY181999GF107991071081004501999999KA1999N+00101MW1261
0067010450999991973052606004+69833+021900FM-12+000599999V0201601N00461009001CN0500001N9+00301+00301999999ADDAA199002091AY181999GF107991071081004501999999KA1999N+00101MW1021
0043010450999991973052612004+69833+021900FM-12+000599999V0203001N00251009001CN0300001N9+00501+00001999999ADDAY121999GF107991071081004501999999MW1151
0043010450999991973052712004+69833+021900FM-12+000599999V0203201N00101009001CN0250001N9+00501+00401999999ADDAY121999GF105991051081004501001001MW1251
0067010450999991973052718004+69833+021900FM-12+000599999V0203201N00461009001CN0500001N9+00401+00301999999ADDAA199000591AY121999GF107991071081004501999999KA1999M+00701MW1151
0067010450999991973053018004+69833+021900FM-12+000599999V0203601N00101220001CN0550001N9+00901+00501999999ADDAA199000091AY111999GF101991001001999999001011KA1999M+01001MW1021
0043010450999991973060212004+69833+021900FM-12+000599999V0203001N00461009001CN0500001N9+00701+00701999999ADDAY181999GF108991081081004501999999MW1801
0081010450999991973060506004+69833+021900FM-12+000599999V0203001N00461012001CN0500001N9+01001+00601999999ADDAA199000091AY121999GF106991061081008001999999KA1999N+00601MW1021REMSYN00570006
0043010450999991973060512004+69833+021900FM-12+000599999V0202001N00261012001CN0550001N9+01201+00401999999ADDAY121999GF107991071081008001999999MW1021
0081010450999991973060518004+69833+021900FM-12+000599999V0201801N00461009001CN0500001N9+01001+00501999999ADDAA199999929AY121999GF107991071081004501001001KA1999M+01201MW1151REMSYN00579712
0081010450999991973060606004+69833+021900FM-12+000599999V0201801N00461009001CN0500001N9+00801+00501999999ADDAA199000191AY121999GF108991081081004501999999KA1999N+00601MW1801REMSYN00579106
0043010450999991973060612004+69833+021900FM-12+000599999V0202301N00461012001CN0500001N9+01201+00701999999ADDAY121999GF107991071081008001999999MW1151
0068010450999991973060618004+69833+021900FM-12+000599999V0202801N00261009001CN0500001N9+99999+99999999999ADDAA199000491AY121999GF107991071081004501999999MW1251REMSYN00579412
0081010450999991973060806004+69833+021900FM-12+000599999V0202901N00101075001CN0500001N9+00701+00201999999ADDAA199001091AY121999GF107991031081004501001061KA1999N+00501MW1021REMSYN00570105
0043010450999991973060812004+69833+021900FM-12+000599999V0201701N00461030001CN0550001N9+01201+00401999999ADDAY121999GF106991011041008001071999MW1021
0081010450999991973061106004+69833+021900FM-12+000599999V0201801N00461009001CN0500001N9+00901+00901999999ADDAA199002091AY181999GF107991071081004501999999KA1999N+00801MW1021REMSYN00570208
0081010450999991973061118004+69833+021900FM-12+000599999V0203001N00261220001CN0550001N9+01001+00901999999ADDAA199000091AY111999GF101991011011008001001041KA1999M+01501MW1021REMSYN00570015
0043010450999991973061212004+69833+021900FM-12+000599999V0203601N00461030001CN0500001N9+00801+00801999999ADDAY121999GF108991021071004501011999MW1021
0081010450999991973061318004+69833+021900FM-12+000599999V0203001N00261007501CN0550001N9+00701+00601999999ADDAA199001091AY121999GF107991071051008001001001KA1999M+00801MW1021REMSYN00570108
0081010450999991973061418004+69833+021900FM-12+000599999V0200401N00101004201CN0500001N9+00701+00701999999ADDAA199005091AY161999GF108991081071004501999999KA1999M+00801MW1151REMSYN00570508
0043010450999991973061712004+69833+021900FM-12+000599999V0203201N00461220001CN0550001N9+00801+00301999999ADDAY111999GF101991011011008001001001MW1021
0081010450999991973061906004+69833+021900FM-12+000599999V0209991C00001220001CN0600001N9+01101+00901999999ADDAA199000091AY101999GF101991011011012501001001KA1999N+00501MW1021REMSYN00570005
0043010450999991973061912004+69833+021900FM-12+000599999V0203201N00101220001CN0600001N9+01301+01101999999ADDAY101999GF103991011011012501041001MW1021
0081010450999991973061918004+69833+021900FM-12+000599999V0209991C00001007501CN0500001N9+01201+01101999999ADDAA199000091AY111999GF107991071051008001999999KA1999M+01501MW1021REMSYN00570015
0081010450999991973062006004+69833+021900FM-12+000599999V0203001N00101030001CN0550001N9+01301+01301999999ADDAA199000391AY111999GF105991011011008001031001KA1999N+01001MW1021REMSYN00579310
0043010450999991973062012004+69833+021900FM-12+000599999V0203201N00461075001CN0550001N9+01501+01301999999ADDAY111999GF105991011011008001001021MW1021
0081010450999991973062106004+69833+021900FM-12+000599999V0203201N00261220001CN0550001N9+01401+01201999999ADDAA199000091AY101999GF101991001001999999001011KA1999N+00801MW1021REMSYN00570008
0043010450999991973062112004+69833+021900FM-12+000599999V0203201N00101030001CN0550001N9+01601+01301999999ADDAY111999GF106991011041012501071999MW1021
0043010450999991973062312004+69833+021900FM-12+000599999V0202901N00101220001CN0500001N9+01601+01301999999ADDAY111999GF102991011021012501041001MW1021
0081010450999991973062318004+69833+021900FM-12+000599999V0203201N00261021001CN0200001N9+01701+01301999999ADDAA199000091AY121999GF105991051001022501051001KA1999M+01901MW1021REMSYN00570019
0043010450999991973062412004+69833+021900FM-12+000599999V0203201N00461007501CN0500001N9+01301+01101999999ADDAY121999GF106991061021008001001001MW1021
0081010450999991973062418004+69833+021900FM-12+000599999V0203401N00461007501CN0500001N9+01201+01001999999ADDAA199000091AY121999GF106991061061008001001001KA1999M+01601MW1021REMSYN00570016
0081010450999991973062506004+69833+021900FM-12+000599999V0203201N00461004201CN0500001N9+01101+01101999999ADDAA199000091AY121999GF107991071061004501999999KA1999N+00701MW1021REMSYN00570007
0043010450999991973062512004+69833+021900FM-12+000599999V0202901N00261012001CN0500001N9+01301+01101999999ADDAY121999GF106991061081008001999999MW1021
0081010450999991973062518004+69833+021900FM-12+000599999V0202901N00261007501CN0550001N9+01201+01001999999ADDAA199000091AY121999GF107991071051008001001001KA1999M+01401MW1021REMSYN00570014
0081010450999991973062618004+69833+021900FM-12+000599999V0203001N00461004201CN0500001N9+01101+01001999999ADDAA199000091AY121999GF107991071061004501999999KA1999M+01401MW1021REMSYN00570014
0081010450999991973062718004+69833+021900FM-12+000599999V0203201N00261220001CN0550001N9+01401+01201999999ADDAA199000091AY101999GF102991011011012501001021KA1999M+01401MW1021REMSYN00570014
0081010450999991973062818004+69833+021900FM-12+000599999V0203401N00461004201CN0130001N9+01101+01101999999ADDAA199009091AY161999GF108991081071004501999999KA1999M+01601MW1611REMSYN00570916
0041010450999991973062918004+69833+021900FM-12+000599999V0203001N00101220001CN9999999N9+01401+99999999999ADDGF101991999999999999999999REMSYN003UIY
0081010450999991973070206004+69833+021900FM-12+000599999V0201801N00261220001CN0500001N9+01901+01701999999ADDAA199000091AY111999GF102991011011012501041021KA1999N+01201MW1021REMSYN00570012
0043010450999991973070212004+69833+021900FM-12+000599999V0203201N00261220001CN0550001N9+02101+01601999999ADDAY101999GF102991011021008001001021MW1021
0081010450999991973070406004+69833+021900FM-12+000599999V0203201N00261002101CN0100001N9+00901+00901999999ADDAA199004091AY161999GF108991081061002501999999KA1999N+00901MW1611REMSYN00570409
0043010450999991973070412004+69833+021900FM-12+000599999V0203201N00261004201CN0050001N9+01001+01001999999ADDAY161999GF108991081071004501999999MW1611
0081010450999991973070418004+69833+021900FM-12+000599999V0203001N00461004201CN0500001N9+00901+00901999999ADDAA199004091AY161999GF108991081071004501999999KA1999M+01001MW1021REMSYN00570410
0081010450999991973070506004+69833+021900FM-12+000599999V0203201N00261004201CN0500001N9+01001+01001999999ADDAA199000291AY121999GF107991071061004501999999KA1999N+00901MW1021REMSYN00579209
0043010450999991973070512004+69833+021900FM-12+000599999V0203201N00261012001CN0550001N9+01301+01301999999ADDAY121999GF107991071081008001999999MW1021
0081010450999991973070518004+69833+021900FM-12+000599999V0209991C00001030001CN0500001N9+01301+01101999999ADDAA199999929AY121999GF106991011081008001031001KA1999M+01501MW1021REMSYN00579715
0043010450999991973070712004+69833+021900FM-12+000599999V0202901N00101220001CN0600001N9+02001+01501999999ADDAY101999GF101991011011012501001001MW1021
0068010450999991973070718004+69833+021900FM-12+000599999V0209991C00001220001CN0550001N9+02001+01601999999ADDAA199000091AY101999GF101991011011012501001001MW1021REMSYN005700//
0043010450999991973070812004+69833+021900FM-12+000599999V0201601N00261220001CN0550001N9+02701+01601999999ADDAY101999GF100991001001999999001001MW1021
0081010450999991973070818004+69833+021900FM-12+000599999V0201801N00461220001CN0500001N9+02601+01701999999ADDAA199000091AY101999GF100991001001999999001001KA1999M+02901MW1021REMSYN00570029
0043010450999991973070912004+69833+021900FM-12+000599999V0203201N00461004201CN0300001N9+01301+01301999999ADDAY111999GF107991071061004501001001MW1021
0081010450999991973071018004+69833+021900FM-12+000599999V0209991C00001220001CN0500001N9+02001+01501999999ADDAA199000091AY101999GF101991011011012501001011KA1999M+02501MW1021REMSYN00570025
0081010450999991973071106004+69833+021900FM-12+000599999V0203201N00261220001CN0550001N9+01501+01501999999ADDAA199000091AY101999GF101991011011008001001001KA1999N+01201MW1021REMSYN00570012
0043010450999991973071112004+69833+021900FM-12+000599999V0203201N00261012001CN0400001N9+01501+01501999999ADDAY111999GF107991071081008001999999MW1021
0081010450999991973071318004+69833+021900FM-12+000599999V0201801N00261007501CN0550001N9+01301+01301999999ADDAA199000091AY121999GF108991081061008001999999KA1999M+01401MW1021REMSYN00570014
0081010450999991973071806004+69833+021900FM-12+000599999V0209999999999002101CN0250001N9+01301+01301999999ADDAA199002091AY181999GF199999081061002501999999KA1999N+01201MW1021REMSYN00570212
0043010450999991973072012004+69833+021900FM-12+000599999V0201401N00461220001CN0500001N9+02701+01501999999ADDAY101999GF101991011011012501001001MW1021
0081010450999991973072018004+69833+021900FM-12+000599999V0201401N00261220001CN0500001N9+02301+01401999999ADDAA199000091AY101999GF101991011011012501001001KA1999M+02801MW1021REMSYN00570028
0081010450999991973072118004+69833+021900FM-12+000599999V0201601N00101220001CN0100001N9+02101+01201999999ADDAA199000091AY101999GF100991001001999999001001KA1999M+02601MW1101REMSYN00570026
0043010450999991973072212004+69833+021900FM-12+000599999V0209991C00001220001CN0500001N9+02401+01601999999ADDAY101999GF102991011011012501001021MW1021
0081010450999991973072218004+69833+021900FM-12+000599999V0203201N00261220001CN0250001N9+01901+01401999999ADDAA199000091AY101999GF101991011011012501001041KA1999M+02501MW1021REMSYN00570025
0081010450999991973072306004+69833+021900FM-12+000599999V0203001N00101220001CN0500001N9+01601+01501999999ADDAA199000091AY101999GF102991001001999999001021KA1999N+01201MW1021REMSYN00570012
0043010450999991973072412004+69833+021900FM-12+000599999V0203201N00261220001CN0300001N9+01801+01701999999ADDAY101999GF103991031081008001001001MW1171
0081010450999991973072418004+69833+021900FM-12+000599999V0203401N00261075001CN0300001N9+01501+01501999999ADDAA199000091AY111999GF105991011021008001041021KA1999M+01801MW1021REMSYN00570018
0043010450999991973072712004+69833+021900FM-12+000599999V0203401N00461220001CN0600001N9+01301+01001999999ADDAY111999GF101991011081008001001001MW1021
0081010450999991973072806004+69833+021900FM-12+000599999V0203601N00461004201CN0500001N9+01001+00901999999ADDAA199000091AY121999GF107991071061004501999999KA1999N+00901MW1021REMSYN00570009
0043010450999991973072812004+69833+021900FM-12+000599999V0203201N00461220001CN0600001N9+01301+01001999999ADDAY111999GF102991011011008001041001MW1021
0081010450999991973073006004+69833+021900FM-12+000599999V0203201N00101030001CN0550001N9+01201+01201999999ADDAA199000091AY121999GF108991011011008001071999KA1999N+01101MW1021REMSYN00570011
0043010450999991973073012004+69833+021900FM-12+000599999V0203001N00461075001CN0550001N9+01601+01201999999ADDAY111999GF105991011081008001061021MW1021
0043010450999991973073112004+69833+021900FM-12+000599999V0201601N00461220001CN0550001N9+99999+99999999999ADDAY111999GF104991041081008001001001MW1021
0081010450999991973080218004+69833+021900FM-12+000599999V0203201N00461009001CN0250001N9+01001+00901999999ADDAA199004091AY181999GF108991081081004501999999KA1999M+01301MW1801REMSYN00570413
0081010450999991973080318004+69833+021900FM-12+000599999V0203201N00671004201CN0500001N9+00901+00901999999ADDAA199003091AY181999GF108991081061004501999999KA1999M+01001MW1021REMSYN00570310
0043010450999991973080412004+69833+021900FM-12+000599999V0203001N00461220001CN0650001N9+01201+00901999999ADDAY111999GF101991011011012501001001MW1021
0081010450999991973080418004+69833+021900FM-12+000599999V0203001N00261220001CN0600001N9+01401+01201999999ADDAA199000091AY101999GF101991011011012501001001KA1999M+01501MW1021REMSYN00570015
0081010450999991973080506004+69833+021900FM-12+000599999V0201801N00671030001CN0550001N9+01201+01001999999ADDAA199000091AY111999GF107991011011008001071999KA1999N+01201MW1021REMSYN00570012
0043010450999991973080512004+69833+021900FM-12+000599999V0201801N00671012001CN0500001N9+01501+01101999999ADDAY121999GF107991071081008001999999MW1801
0043010450999991973080612004+69833+021900FM-12+000599999V0203001N00261075001CN0500001N9+01701+01301999999ADDAY111999GF105991021081008001001021MW1021
0081010450999991973080618004+69833+021900FM-12+000599999V0203001N00461009001CN0130001N9+01401+01401999999ADDAA199999929AY121999GF107991071081004501999999KA1999M+01901MW1801REMSYN00579719
0043010450999991973080712004+69833+021900FM-12+000599999V0201601N00671012001CN0500001N9+01701+01601999999ADDAY181999GF107991071081008001999999MW1251
0081010450999991973080718004+69833+021900FM-12+000599999V0202701N00261012001CN0500001N9+01401+01101999999ADDAA199000191AY121999GF107991071081008001001001KA1999M+02001MW1801REMSYN00579120
0081010450999991973080806004+69833+021900FM-12+000599999V0203001N00461009001CN0200001N9+01201+01101999999ADDAA199000391AY121999GF107991071081004501999999KA1999N+01101MW1151REMSYN00579311
0056010450999991973080918004+69833+021900FM-12+000599999V0209999999999009001CN0500001N9+01001+01001999999ADDAY181999GF107991071081004501999999MW1151REMSYN004UPIQ
0081010450999991973081006004+69833+021900FM-12+000599999V0201601N00261220001CN0600001N9+00901+00801999999ADDAA199001091AY111999GF101991011021004501001001KA1999N+00601MW1021REMSYN00570106
0043010450999991973081012004+69833+021900FM-12+000599999V0201801N00671220001CN0600001N9+01501+00801999999ADDAY101999GF102991021081008001001001MW1021
0043010450999991973081612004+69833+021900FM-12+000599999V0202901N00261009001CN0550001N9+01101+00801999999ADDAY181999GF108991071081004501999999MW1021
0081010450999991973081806004+69833+021900FM-12+000599999V0201801N00461075001CN0200001N9+01401+01401999999ADDAA199000091AY121999GF107991011061004501001081KA1999N+00901MW1021REMSYN00570009
0043010450999991973081812004+69833+021900FM-12+000599999V0203001N00261075001CN0250001N9+01701+01501999999ADDAY111999GF107991011011008001001021MW1021
0081010450999991973081906004+69833+021900FM-12+000599999V0202901N00461009001CN0100001N9+00801+00801999999ADDAA199020091AY181999GF108991081081004501999999KA1999N+00801MW1811REMSYN00572008
0043010450999991973081912004+69833+021900FM-12+000599999V0209991C00001009001CN0500001N9+01001+00801999999ADDAY181999GF107991071081004501999999MW1021
0081010450999991973081918004+69833+021900FM-12+000599999V0202701N00101220001CN0500001N9+01001+01001999999ADDAA199005091AY111999GF102991021081004501001021KA1999M+01201MW1141REMSYN00570512
0081010450999991973082006004+69833+021900FM-12+000599999V0202801N00461009001CN0250001N9+01001+00901999999ADDAA199000291AY181999GF107991071081004501001001KA1999N+00701MW1151REMSYN00579207
0081010450999991973082018004+69833+021900FM-12+000599999V0203201N00461009001CN0500001N9+00801+00601999999ADDAA199000291AY181999GF107991071081004501999999KA1999M+01101MW1801REMSYN00579211
0081010450999991973082218004+69833+021900FM-12+000599999V0201801N00261075001CN0500001N9+01001+00601999999ADDAA199999929AY121999GF106991031061008001001021KA1999M+01001MW1021REMSYN00579710
0081010450999991973082506004+69833+021900FM-12+000599999V0203401N00461009001CN0500001N9+00601+00401999999ADDAA199000291AY181999GF105991051081004501999999KA1999N+00601MW1021REMSYN00579206
0081010450999991973082806004+69833+021900FM-12+000599999V0209991C00001007501CN0550001N9+00901+00901999999ADDAA199000091AY121999GF107991071061008001999999KA1999N+00701MW1021REMSYN00570007
0043010450999991973082812004+69833+021900FM-12+000599999V0202801N00101004201CN0150001N9+01001+01001999999ADDAY121999GF108991081071004501999999MW1501
0081010450999991973090418004+69833+021900FM-12+000599999V0209991C00001004201CN0500001N9+00901+00901999999ADDAA199000191AY121999GF107991071061004501999999KA1999M+01001MW1021REMSYN00579110
0043010450999991973100212004+69833+021900FM-12+000599999V0202701N00261009001CN0500001N9+00701+00601999999ADDAY181999GF106991061081004501999999MW1801
0081010450999991973100218004+69833+021900FM-12+000599999V0202801N00461009001CN0200001N9+00601+00601999999ADDAA199002091AY181999GF107991071081004501999999KA1999M+00701MW1801REMSYN00570207
0043010450999991973100412004+69833+021900FM-12+000599999V0201401N00101012001CN0200001N9+00701+00701999999ADDAY181999GF108991081081008001999999MW1251
0043010450999991973100612004+69833+021900FM-12+000599999V0202701N00461009001CN0150001N9+00201+00201999999ADDAY181999GF106991061081004501001001MW1261
0036010450999991973100618004+69833+021900FM-12+000599999V02099999999999999999N9999999N9+00001-02002999999ADDMD1110031+9999EQDQ01+025323ATOD  
0081010450999991973100706004+69833+021900FM-12+000599999V0203201N00461220001CN0500001N9+00201+00101999999ADDAA199004091AY181999GF104991041081004501001001KA1999N+00001MW1151REMSYN00570400
0043010450999991973100712004+69833+021900FM-12+000599999V0203001N00461009001CN0050001N9+00201+00101999999ADDAY181999GF106991061081004501999999MW1151
0081010450999991973100718004+69833+021900FM-12+000599999V0202901N00461009001CN0200001N9+00101+00001999999ADDAA199003091AY181999GF106991061081004501001001KA1999M+00201MW1151REMSYN00570302
0081010450999991973100806004+69833+021900FM-12+000599999V0203201N00261009001CN0130001N9-00101-00101999999ADDAA199004091AY181999GF106991061081004501999999KA1999N-00201MW1151REMSYN00570452
0043010450999991973100812004+69833+021900FM-12+000599999V0203201N00671009001CN0250001N9-00101-00101999999ADDAY181999GF108991081081004501999999MW1261
0081010450999991973100818004+69833+021900FM-12+000599999V0200901N00261009001CN0200001N9-00301-00401999999ADDAA199003091AY181999GF107991071081004501999999KA1999M+00001MW1151REMSYN00570350
0043010450999991973100912004+69833+021900FM-12+000599999V0203201N00461009001CN0200001N9+00001+00001999999ADDAY181999GF105991051081004501001001MW1261
0081010450999991973100918004+69833+021900FM-12+000599999V0209991C00001009001CN0500001N9-00101-00101999999ADDAA199003091AY181999GF107991071081004501001001KA1999M+00101MW1151REMSYN00570301
0043010450999991973101012004+69833+021900FM-12+000599999V0203401N00461009001CN0300001N9-00101-00201999999ADDAY181999GF105991051081004501001001MW1151
0081010450999991973101018004+69833+021900FM-12+000599999V0203201N00461009001CN0500001N9-00101-00201999999ADDAA199000491AY121999GF106991061081004501001001KA1999M+00001MW1021REMSYN00579450
0043010450999991973101112004+69833+021900FM-12+000599999V0200901N00261009001CN0050001N9-00101-00101999999ADDAY181999GF107991071081004501999999MW1851
0081010450999991973101118004+69833+021900FM-12+000599999V0200901N00261075001CN0500001N9-00401-00501999999ADDAA199002091AY181999GF105991031081004501001021KA1999M-00101MW1021REMSYN00570251
0043010450999991973101212004+69833+021900FM-12+000599999V0200901N00261220001CN0550001N9-00401-00501999999ADDAY101999GF102991011011008001001021MW1021
0081010450999991973101218004+69833+021900FM-12+000599999V0201401N00461220001CN0550001N9-00501-00601999999ADDAA199000091AY101999GF101991011011008001001001KA1999M-00401MW1021REMSYN00570054
0043010450999991973101312004+69833+021900FM-12+000599999V0201401N00261220001CN0750001N9-00101-00501999999ADDAY101999GF101991001001999999001011MW1021
0043010450999991973101412004+69833+021900FM-12+000599999V0200701N00101220001CN0600001N9+00101-00201999999ADDAY101999GF101991011011008001001001MW1021
0043010450999991973101512004+69833+021900FM-12+000599999V0201801N00261012001CN0500001N9+00101-00301999999ADDAY121999GF107991071081008001999999MW1021
0081010450999991973101518004+69833+021900FM-12+000599999V0201601N00261220001CN0500001N9-00301-00401999999ADDAA199000091AY111999GF101991011011008001001011KA1999M+00101MW1021REMSYN00570001
0043010450999991973101812004+69833+021900FM-12+000599999V0201801N00101007501CN0500001N9+00201+00001999999ADDAY121999GF106991061061008001999999MW1021
0081010450999991973101818004+69833+021900FM-12+000599999V0201401N00461220001CN0500001N9-00201-00301999999ADDAA199000091AY111999GF102991021081008001001001KA1999M+00201MW1021REMSYN00570002
0043010450999991973101912004+69833+021900FM-12+000599999V0201601N00461220001CN0500001N9-00301-00501999999ADDAY111999GF102991011081004501001021MW1021
0081010450999991973102206004+69833+021900FM-12+000599999V0201401N00461220001CN0550001N9-00801-01201999999ADDAA199000091AY101999GF101991001001999999001011KA1999N-00801MW1021REMSYN00570058
0082010450999991973102318004+69833+021900FM-12+000599999V0201801N00461220001CN0500001N9+00001-00401999999ADDAA199999929AY111999GF100991001001999999001001KA1999M+00301MW1021REMSYN00679703^
0043010450999991973102412004+69833+021900FM-12+000599999V0201601N00101007501CN0500001N9+00001-00301999999ADDAY121999GF107991071061008001999999MW1021
0081010450999991973102818004+69833+021900FM-12+000599999V0203201N00671009001CN0060001N9+00101+00101999999ADDAA199005091AY181999GF108991081081004501999999KA1999M+01001MW1831REMSYN00570510
0081010450999991973110106004+69833+021900FM-12+000599999V0202701N00261009001CN0200001N9+00701+00601999999ADDAA199000391AY181999GF107991071081004501999999KA1999N+00601MW1801REMSYN00579306
0043010450999991973110812004+69833+021900FM-12+000599999V0201801N00931030001CN0500001N9-00501-01001999999ADDAY121999GF108991011071004501011999MW1021
0081010450999991973111018004+69833+021900FM-12+000599999V0203201N00931220001CN0300001N9+00001-00401999999ADDAA199001091AY181999GF104991041081004501001001KA1999M+00201MW1261REMSYN00570102
0043010450999991973111212004+69833+021900FM-12+000599999V0203001N00261009001CN0010001N9-00501-00601999999ADDAY181999GF108991081081004501999999MW1851
0043010450999991973112812004+69833+021900FM-12+000599999V0203601N00461009001CN0050001N9-00401-00401999999ADDAY181999GF108991081081004501999999MW1851
0043010450999991973120512004+69833+021900FM-12+000599999V0201801N00671220001CN0500001N9-00801-01101999999ADDAY101999GF102991011011008001001011MW1021
0043010450999991973122612004+69833+021900FM-12+000599999V0201401N00671009001CN0500001N9-00501-00701999999ADDAY121999GF106991061081004501999999MW1021
