0076010490999991973010109004+69983+023383FM-12+0003ENAT V0203101N01591007501CN0100001N9+99999+99999098691ADDAY181999GF108991061051008001999999MD1110992+9999MW1801EQDQ01+000992APC3  
0092010490999991973010115004+69983+023383FM-12+0003ENAT V0203301N00301220001CN0300001N9+00101-04201100752ADDAY121999GF103991031081008001001001MD1210692+9999MW1011EQDQ01+100753APOSLPQ02+000692APC3  
0065010490999991973010212004+69983+023383FM-12+0003ENAT V0202501N00871007501CN0150001N9+00301-00102099001ADDAY181999GF106991051061008001021999MD1210101+9999MW1831OC101441
0065010490999991973010312004+69983+023383FM-12+0003ENAT V0202901N00821004201CN0070001N9-00301-00701100381ADDAY181999GF107991071021004501999999MD1210261+9999MW1851OC101751
0076010490999991973010412004+69983+023383FM-12+0003ENAT V0201501N00611021001CN0500001N9-00601-01301099721ADDAY121999GF107991061001022501071999MD1710532+9999MW1021EQDQ01+000532APC3  
0076010490999991973010415004+69983+023383FM-12+0003ENAT V0201701N00301030001CN0150001N9-00401-00601099052ADDAY171999GF108991021021008001021999MD1710671+9999MW1701EQDQ01+099053APOSLP
0098010490999991973010612004+69983+023383FM-12+0003ENAT V0200601N00301030001CN0300001N9-00501-00601101131ADDAY121999GF107991031081008001071999MD1210512+9999MW1021OC101801REMSYN005914*6EQDQ01+000512APC3  
0057010490999991973010615004+69983+023383FM-12+0003ENAT V0201701N00101012001CN0300001N9-00701-00801101461ADDAY121999GF105991051081008001999999MD1210331+9999MW1031
0076010490999991973010709004+69983+023383FM-12+0003ENAT V0201501N00361030001CN0300001N9-00401-01001101021ADDAY121999GF107991021051008001011999MD1710542+9999MW1021EQDQ01+000542APC3  
0114010490999991973010718004+69983+023383FM-12+0003ENAT V0201201N00301030001CN0400001N9-00201-00601098692ADDAA199001091AY121999GF107991031051012501071999KA1999M-00201MD1710552+9999MW1021REMSYN00591*24EQDQ01+000552APC3  
0079010490999991973010812004+69983+023383FM-12+0003ENAT V0203401N00771012001CN0200001N9-00301-00701101281ADDAY181999GF107991051081008001999999MD1210351+9999MW1151OC101901REMSYN005914*6
0057010490999991973010815004+69983+023383FM-12+0003ENAT V0203601N00721015001CN0400001N9-00201-00901101391ADDAY121999GF107991071081012501999999MD1110111+9999MW1021
0057010490999991973011003004+69983+023383FM-12+0003ENAT V0203301N01031002401CN0050001N9+99999+99999099491ADDAY181999GF109991091999999999999999MD1010001+9999MW1851
0057010490999991973011109004+69983+023383FM-12+0003ENAT V0209991C00001012001CN0400001N9+00201+00201101051ADDAY121999GF106991051021012501041001MD1710071+9999MW1011
0065010490999991973011112004+69983+023383FM-12+0003ENAT V0202601N00561012001CN0400001N9+00701+00201101101ADDAY161999GF105991051051012501041011MD1210051+9999MW1021OC101281
0057010490999991973011212004+69983+023383FM-12+0003ENAT V0202101N00201030001CN0300001N9+00601+00001100591ADDAY121999GF107991041051012501071999MD1710351+9999MW1151
0057010490999991973011215004+69983+023383FM-12+0003ENAT V0202401N00301220001CN0300001N9+00501+00101100281ADDAY181999GF103991031081008001999999MD1710311+9999MW1151
0089010490999991973011406004+69983+023383FM-12+0003ENAT V0201301N00301220001CN0300001N9-00401-00901102061ADDAA199000091AY101999GF102991001001999999001081KA1999N-00401MD1710251+9999MW1021OC100871
0076010490999991973011409004+69983+023383FM-12+0003ENAT V0201501N003019999999N0700001N9-00401-01001101851ADDAY121999GF105991001001999999001081MD1710211+9999MW1031EQDQ01+000052SCOTLC
0057010490999991973011412004+69983+023383FM-12+0003ENAT V0201001N00301220001CN0600001N9-00401-01001101611ADDAY121999GF105991031001999999071081MD1710241+9999MW1021
0057010490999991973011509004+69983+023383FM-12+0003ENAT V0200901N00201030001CN0500001N9+00201-00401100591ADDAY121999GF105991041051012501071081MD1710041+9999MW1021
0057010490999991973011512004+69983+023383FM-12+0003ENAT V0201901N00151030001CN0500001N9+00301-00401100471ADDAY121999GF105991041051012501041081MD1710081+9999MW1031
0057010490999991973011609004+69983+023383FM-12+0003ENAT V0201001N00201007501CN0500001N9+00001-00301100781ADDAY121999GF106991061051008001999999MD1210241+9999MW1021
0057010490999991973011615004+69983+023383FM-12+0003ENAT V0201801N00101012001CN0500001N9-00201-00501101091ADDAY121999GF107991051051012501999999MD1210121+9999MW1021
0079010490999991973011812004+69983+023383FM-12+0003ENAT V0201901N00461220001CN0500001N9-00201-00801101941ADDAY121999GF104991011041012501041081MD1210101+9999MW1011OC101281REMSYN005914*5
0057010490999991973011815004+69983+023383FM-12+0003ENAT V0201601N00671030001CN0500001N9-00201-00701101981ADDAY101999GF106991011021008001041081MD1210071+9999MW1031
0057010490999991973011915004+69983+023383FM-12+0003ENAT V0201001N00151220001CN0500001N9-00601-00701102701ADDAY101999GF102991021001022501041001MD1210041+9999MW1021
0057010490999991973012115004+69983+023383FM-12+0003ENAT V0201501N00821220001CN0500001N9-00901-01301102361ADDAY101999GF101991011001999999041001MD1710131+9999MW1021
0057010490999991973012312004+69983+023383FM-12+0003ENAT V0201901N00251220001CN0500001N9-00501-00801102771ADDAY101999GF101991011001999999041001MD1210061+9999MW1021
0076010490999991973012409004+69983+023383FM-12+0003ENAT V0201501N00821030001CN0300001N9-00301-00701101011ADDAY121999GF107991021081008001071999MD1710592+9999MW1031EQDQ01+000592APC3  
0057010490999991973012509004+69983+023383FM-12+0003ENAT V0209991C00001030001CN0300001N9-00201-00301099431ADDAY171999GF108991031051008001021999MD1210201+9999MW1021
0057010490999991973012512004+69983+023383FM-12+0003ENAT V0209991C00001030001CN0400001N9-00301-00401099641ADDAY121999GF105991021051012501021999MD1210211+9999MW1011
0057010490999991973012609004+69983+023383FM-12+0003ENAT V0201701N00611012001CN0200001N9-00801-01101099521ADDAY171999GF199999061081008001021999MD1210021+9999MW1701
0057010490999991973012612004+69983+023383FM-12+0003ENAT V0209999999999012001CN0080001N9-01001-01301099651ADDAY171999GF108991061081008001021999MD1210131+9999MW1161
0057010490999991973012803004+69983+023383FM-12+0003ENAT V0201601N00821012001CN0400001N9-01501-01701101141ADDAY121999GF107991071051012501999999MD1810081+9999MW1031
0076010490999991973012809004+69983+023383FM-12+0003ENAT V0201301N008719999999N0300001N9-01301-01601101041ADDAY121999GF107991061041999999071999MD1710031+9999MW1021EQDQ01+000992SCOLCB
0076010490999991973012812004+69983+023383FM-12+0003ENAT V0201301N00821220001CN0400001N9-01401-01601101121ADDAY101999GF102991021041999999041001MD1210081+9999MW1021EQDQ01+000992SCOLCB
0057010490999991973012815004+69983+023383FM-12+0003ENAT V0201301N00821075001CN0300001N9-01301-01601101081ADDAY111999GF105991011041012501041081MD1710041+9999MW1031
0057010490999991973012912004+69983+023383FM-12+0003ENAT V0201501N00821220001CN0200001N9-01401-01701100661ADDAY101999GF102991011061004501001011MD1410001+9999MW1031
0078010490999991973013009004+69983+023383FM-12+0003ENAT V0201601N00201075001CN0250001N9-01201-01701100461ADDAY121999GF106991041001999999071081MW1031EQDQ01+000042APCTENQ02+000012APC3  
0057010490999991973020109004+69983+023383FM-12+0003ENAT V0202101N00411012001CN0400001N9+00101-00501099541ADDAY121999GF106991051051012501031999MD1710011+9999MW1021
0057010490999991973020112004+69983+023383FM-12+0003ENAT V0202001N00361012001CN0500001N9+99999+99999099481ADDAY121999GF107991051051012501071001MD1710061+9999MW1021
0057010490999991973020115004+69983+023383FM-12+0003ENAT V0202101N00301007501CN0500001N9+00201-00601099581ADDAY121999GF106991061051008001071999MD1510101+9999MW1021
0057010490999991973020215004+69983+023383FM-12+0003ENAT V0201401N00721007501CN0060001N9-00401-00801097981ADDAY121999GF107991051031008001021999MD1810211+9999MW1851
0079010490999991973020312004+69983+023383FM-12+0003ENAT V0203001N01031220001CN0250001N9-00201-00601099491ADDAY181999GF104991031031008001041999MD1210331+9999MW1151OC101541REMSYN005914*6
0081010490999991973020418004+69983+023383FM-12+0003ENAT V0202001N00301007501CN0150001N9-00601-00901100341ADDAA199999929AY181999GF108991061051008001071999KA1999M-00101MD1710301+9999MW1851
0057010490999991973020503004+69983+023383FM-12+0003ENAT V0201101N00201002401CN0025001N9-00601-00801099351ADDAY171999GF109991091999999999999999MD1710261+9999MW1711
0110010490999991973020718004+69983+023383FM-12+0003ENAT V0202201N00201220001CN0600001N9+99999+99999099761ADDAA199000091AY101999GF100991001001999999001001KA1999M-00901MW1021OC100511EQDQ01+000042APCTENQ02+000012APC3  
0102010490999991973020818004+69983+023383FM-12+0003ENAT V0202101N00301220001CN0300001N9-01901-01901098221ADDAA199000091AY101999GF101991011061004501999999KA1999M-01601MW1011EQDQ01+000042APCTENQ02+000022APC3  
0076010490999991973021012004+69983+023383FM-12+0003ENAT V0201801N002019999999N0500001N9-01401-01501099151ADDAY121999GF106991041041999999041081MD1210041+9999MW1021EQDQ01+000992SCOLCB
0057010490999991973021015004+69983+023383FM-12+0003ENAT V0201301N00201075001CN0400001N9-01601-01601099201ADDAY121999GF105991011041012501041081MD1210051+9999MW1021
0070010490999991973021018004+69983+023383FM-12+0003ENAT V0201501N00101220001CN0400001N9-01401-01501099291ADDAY121999GF103991031001999999041081KA1999M-01401MD1210121+9999MW1021
0057010490999991973021309004+69983+023383FM-12+0003ENAT V0201501N00821030001CN0400001N9-00101-00601097431ADDAY121999GF106991041051008001041999MD1210171+9999MW1151
0079010490999991973021312004+69983+023383FM-12+0003ENAT V0201301N00511030001CN0400001N9-00201-00701097491ADDAY121999GF106991021051008001041999MD1210061+9999MW1151OC101901REMSYN005914*5
0103010490999991973021318004+69983+023383FM-12+0003ENAT V0201401N00721030001CN0300001N9+99999+99999999999ADDAA199000091AY121999GF106991021041008001071999KA1999M+00101MD1210101+9999MW1021OC101701REMSYN005914*6
0100010490999991973021506004+69983+023383FM-12+0003ENAT V0203301N005119999999N0070001N9+00101-00201098981ADDAA199999929AY121999GF108991071999999999999999KA1999N-00601MD1210602+9999MW1851EQDQ01+000602APC3  
0057010490999991973021515004+69983+023383FM-12+0003ENAT V0201901N00101007501CN9999999N9-00301-00801100591ADDAY121999GF107991051051008001071999MD1210301+9999MW1151
0081010490999991973021518004+69983+023383FM-12+0003ENAT V0201801N00101030001CN0400001N9-00401-00801100751ADDAA199999929AY121999GF106991031051012501071001KA1999M+00101MD1210161+9999MW1021
0076010490999991973021609004+69983+023383FM-12+0003ENAT V0209991C000019999999N0400001N9-00501-00801101331ADDAY121999GF106991999041012501001001MD1210411+9999MW1021EQDQ01+000042SCOTLC
0057010490999991973021612004+69983+023383FM-12+0003ENAT V0209991C00001220001CN0400001N9-00301-00701101651ADDAY101999GF101991011021012501001001MD1210321+9999MW1021
0081010490999991973021706004+69983+023383FM-12+0003ENAT V0201201N00411220001CN0500001N9-00801-01201102251ADDAA199000091AY101999GF100991001001999999001001KA1999N-01201MD1710061+9999MW1021
0065010490999991973021812004+69983+023383FM-12+0003ENAT V0201501N00301220001CN0600001N9-00401-01901101621ADDAY101999GF102991021041008001041001MD1710281+9999MW1021OC101131
0057010490999991973021815004+69983+023383FM-12+0003ENAT V0201601N00721030001CN0500001N9-00401-00901101241ADDAY121999GF105991031051012501041001MD1710381+9999MW1011
0103010490999991973021818004+69983+023383FM-12+0003ENAT V0201501N00561220001CN0500001N9-00301-00801100931ADDAA199000091AY121999GF104991031051012501041001KA1999M-00301MD1710311+9999MW1011OC101541REMSYN005914*5
0049010490999991973021909004+69983+023383FM-12+0003ENAT V0201801N00671012001CN0350001N9+00001-00501099861ADDGF106991051051012501041999MD1710181+9999MW1121
0043010490999991973021918004+69983+023383FM-12+0003ENAT V0201301N00301220001CN0300001N9-00201+99999099601ADDAY101999GF102991021001999999051999MW1021
0100010490999991973022018004+69983+023383FM-12+0003ENAT V0202101N00151220001CN0300001N9-00401-01001097461ADDAA199000091AY101999GF102991999021012501001001KA1999M+00001MD1410001+9999MW1021EQDQ01+000012SCOTLC
0057010490999991973022112004+69983+023383FM-12+0003ENAT V0203101N00771012001CN0150001N9-00301-00601098691ADDAY121999GF107991061081008001999999MD1210371+9999MW1151
0057010490999991973022115004+69983+023383FM-12+0003ENAT V0203501N01031220001CN0200001N9-00301-00801098931ADDAY121999GF104991041081008001061999MD1210241+9999MW1151
0057010490999991973022509004+69983+023383FM-12+0003ENAT V0201801N00101220001CN0600001N9-01401-01501100201ADDAY101999GF102991011021008001001011MD1210151+9999MW1021
0057010490999991973022512004+69983+023383FM-12+0003ENAT V0201901N00101220001CN0600001N9-00701+99999100281ADDAY101999GF102991021999008001001001MD1010001+9999MW1851
0057010490999991973022515004+69983+023383FM-12+0003ENAT V0202001N00251220001CN0500001N9-01101-01301100341ADDAY121999GF105991001001999999001081MD1210061+9999MW1031
0065010490999991973022612004+69983+023383FM-12+0003ENAT V0201501N00151220001CN0600001N9-01001-01401100651ADDAY101999GF104991011021008001071011MD1110021+9999MW1031OC199999
0089010490999991973022706004+69983+023383FM-12+0003ENAT V0202001N00151220001CN0500001N9+99999+99999101071ADDAA199000091AY101999GF101991011061004501021001KA1999N-01901MD1210071+9999MW1021OC199999
0065010490999991973022812004+69983+023383FM-12+0003ENAT V0201501N00511220001CN0700001N9-01301-01601101161ADDAY101999GF101991011071004501001001MD1710101+9999MW1021OC100771
0057010490999991973022815004+69983+023383FM-12+0003ENAT V0201401N00411220001CN0500001N9-01401-01701101141ADDAY101999GF101991011071004501001001MD1710021+9999MW1021
0116010490999991973022818004+69983+023383FM-12+0003ENAT V0201201N00511220001CN0400001N9-01501-01701101151ADDAA199000091AY101999GF101991011061004501001001KA1999M-01301MD1210011+9999MW1021EQDQ01+000042APCTENQ02+000012APC3  
0057010490999991973030109004+69983+023383FM-12+0003ENAT V0201501N00251220001CN0400001N9-01201-01401101661ADDAY101999GF101991011021004501001001MD1210111+9999MW1021
0057010490999991973030112004+69983+023383FM-12+0003ENAT V0202001N00101220001CN0500001N9-01001-01401101811ADDAY101999GF100991001001999999001001MD1210151+9999MW1021
0057010490999991973030115004+69983+023383FM-12+0003ENAT V0201901N00251220001CN0400001N9-01101+99999101911ADDAY101999GF100991001001999999001001MD1010001+9999MW1021
0081010490999991973030206004+69983+023383FM-12+0003ENAT V0201701N00201220001CN0200001N9-01601-01601102391ADDAA199999929AY171999GF104991041051008001999999KA1999N-01801MD1210031+9999MW1021
0124010490999991973030406004+69983+023383FM-12+0003ENAT V0201601N00721220001CN0400001N9-00601-01101101151ADDAA199000091AY101999GF102991021051008001071999KA1999N-00601MW1021OC101491REMSYN005914*4EQDQ01+000042APCTENQ02+000022APC3  
0076010490999991973030409004+69983+023383FM-12+0003ENAT V0201501N009719999999N0300001N9-00601-01101101291ADDAY121999GF106991061041999999071999MD1210101+9999MW1021EQDQ01+000992SCOLCB
0057010490999991973030412004+69983+023383FM-12+0003ENAT V0201301N00721075001CN0300001N9-00601-01001101431ADDAY121999GF106991031001999999071081MD1210141+9999MW1021
0057010490999991973030512004+69983+023383FM-12+0003ENAT V0201501N00411220001CN0700001N9-00401-00901101271ADDAY101999GF101991011041012501001001MD1710071+9999MW1021
0140010490999991973030518004+69983+023383FM-12+0003ENAT V0201301N00411220001CN0500001N9-00201+99999100901ADDAA199000091AY121999GF104991999001022501051001KA1999M-00201MD1010001+9999MW1021OC100921EQDQ01+000012SCOTLCQ02+022623ATOD  Q03 -04703ATOD  
0057010490999991973030609004+69983+023383FM-12+0003ENAT V0201501N00101030001CN0150001N9-00501-00801100491ADDAY121999GF106991011061004501071081MD1210051+9999MW1021
0065010490999991973030612004+69983+023383FM-12+0003ENAT V0200901N00101030001CN0150001N9-00401-00701100521ADDAY121999GF107991011051004501071081MD1210031+9999MW1021OC199999
0089010490999991973030706004+69983+023383FM-12+0003ENAT V0201501N00101220001CN0400001N9-01201-01201100731ADDAA199000291AY101999GF101991011051012501041001KA1999N-01201MD1210081+9999MW1021OC199999
0057010490999991973030715004+69983+023383FM-12+0003ENAT V0209991C00001220001CN0700001N9-00401-00801100981ADDAY101999GF101991011001999999041001MD1210051+9999MW1021
0057010490999991973030815004+69983+023383FM-12+0003ENAT V0203101N00671220001CN0400001N9+00201-00201102011ADDAY101999GF104991041081008001061001MD1210161+9999MW1151
0103010490999991973030818004+69983+023383FM-12+0003ENAT V0203001N00671220001CN0400001N9+00201-00501102131ADDAA199001091AY101999GF103991031041012501071001KA1999M+00301MD1210121+9999MW1021OC101131REMSYN005914*5
0065010490999991973030912004+69983+023383FM-12+0003ENAT V0201801N00411030001CN0300001N9+00301-00401100201ADDAY121999GF107991021051008001071999MD1710431+9999MW1151OC101231
0078010490999991973031015004+69983+023383FM-12+0003ENAT V0202801N00921030001CN0300001N9+00201-00601100191ADDAY121999GF107991021021008001071999MW1021EQDQ01+000042APCTENQ02+000022APC3  
0057010490999991973031115004+69983+023383FM-12+0003ENAT V0202701N00611012001CN0300001N9+00401-00201100701ADDAY121999GF107991061081008001071999MD1710051+9999MW1151
0103010490999991973031118004+69983+023383FM-12+0003ENAT V0202701N00921012001CN0300001N9+00401-00201100621ADDAA199000091AY121999GF107991061081008001071999KA1999M+00401MD1710081+9999MW1151OC101641REMSYN005914*6
0089010490999991973031206004+69983+023383FM-12+0003ENAT V0209991C00001002401CN0040001N9+00101+00001100021ADDAA199004091AY161999GF109991091999999999999999KA1999N+00101MD1710111+9999MW1681OC100771
0057010490999991973031209004+69983+023383FM-12+0003ENAT V0203201N00921007501CN0200001N9+00101-00201100241ADDAY121999GF108991071061008001999999MD1210221+9999MW1151
0076010490999991973031212004+69983+023383FM-12+0003ENAT V0203001N99999012001CN0250001N9+00101-00401100461ADDAY121999GF107991061081008001999999MD1210221+9999MW1151EQDQ01+004433WOSPD 
0057010490999991973031215004+69983+023383FM-12+0003ENAT V0202901N00821220001CN0100001N9-00101-00501100511ADDAY121999GF104991041021008001001001MD1210051+9999MW1151
0100010490999991973031806004+69983+023383FM-12+0003ENAT V0209991C00001220001CN0400001N9-01301-01301100021ADDAA199000091AY101999GF104991999001999999071001KA1999N-01701MD1710121+9999MW1151EQDQ01+000032SCOTLC
0057010490999991973031809004+69983+023383FM-12+0003ENAT V0201401N00201030001CN0300001N9-00701-01201099861ADDAY121999GF105991011041008001071999MD1710061+9999MW1151
0092010490999991973031812004+69983+023383FM-12+0003ENAT V0201401N00201030001CN0060001N9-00501-00801099851ADDAY181999GF106991041051008001071999MD1710011+9999MW1851EQDQ01+000042APCTENQ02+000012APC3  
0057010490999991973031815004+69983+023383FM-12+0003ENAT V0202701N00511030001CN0150001N9-00401-00801099931ADDAY181999GF106991041021008001041999MD1210081+9999MW1151
0057010490999991973031909004+69983+023383FM-12+0003ENAT V0201401N00361021001CN0400001N9-00801-01301099951ADDAY121999GF107991051001022501071081MD1710141+9999MW1021
0065010490999991973031912004+69983+023383FM-12+0003ENAT V0201201N00561075001CN0400001N9-00801-01301099701ADDAY121999GF106991021001022501071081MD1710251+9999MW1021OC101031
0057010490999991973032003004+69983+023383FM-12+0003ENAT V0201401N00301220001CN0400001N9-01201-01601099521ADDAY101999GF101991011001022501041001MD1410001+9999MW1021
0057010490999991973032009004+69983+023383FM-12+0003ENAT V0201201N00101002401CN0030001N9-00701-00901099441ADDAY121999GF109991091999999999999999MD1610031+9999MW1701
0043010490999991973032209004+69983+023383FM-12+0003ENAT V0201601N00611220001CN0600001N9-01001-01501100101ADDAY121999GF106991011021008001001061MW1031
0065010490999991973032212004+69983+023383FM-12+0003ENAT V0201401N00611220001CN0600001N9-00801-01301099781ADDAY121999GF105991011021008001001061MD1710321+9999MW1011OC101701
0057010490999991973032215004+69983+023383FM-12+0003ENAT V0201501N00611015001CN0400001N9-00601-01101099471ADDAY121999GF107991051081012501071999MD1710291+9999MW1021
0065010490999991973032412004+69983+023383FM-12+0003ENAT V0202101N00201030001CN0400001N9+00501-00201098791ADDAY121999GF108991021051012501071999MD1210041+9999MW1021OC100871
0057010490999991973032415004+69983+023383FM-12+0003ENAT V0202301N00151030001CN0300001N9+00501+00001098821ADDAY121999GF108991021061002501021999MD1210031+9999MW1151
0057010490999991973032715004+69983+023383FM-12+0003ENAT V0201801N00411220001CN0600001N9+00201-01001101751ADDAY121999GF105991031001999999041081MD1710151+9999MW1021
0081010490999991973032718004+69983+023383FM-12+0003ENAT V0201701N00611220001CN0600001N9+00101-00801101671ADDAA199000091AY101999GF102991011001999999041081KA1999M+00201MD1710081+9999MW1021
0057010490999991973032809004+69983+023383FM-12+0003ENAT V0201401N00611220001CN0700001N9+00201-00601101601ADDAY101999GF100991001001999999001001MD1210061+9999MW1021
0057010490999991973032812004+69983+023383FM-12+0003ENAT V0201301N00511220001CN0700001N9+00301-00501101511ADDAY101999GF102991001001999999001011MD1710091+9999MW1021
0057010490999991973032815004+69983+023383FM-12+0003ENAT V0201401N00411220001CN0700001N9+00301-00501101351ADDAY101999GF103991001001999999001011MD1710161+9999MW1021
0089010490999991973032818004+69983+023383FM-12+0003ENAT V0201501N00251220001CN0700001N9+00101-00601101221ADDAA199000091AY101999GF101991001001999999001011KA1999M+00401MD1710131+9999MW1011OC100821
0057010490999991973040515004+69983+023383FM-12+0003ENAT V0201401N00251220001CN0500001N9+00301-00301100201ADDAY101999GF102991021041012501001001MD1710031+9999MW1011
0081010490999991973040518004+69983+023383FM-12+0003ENAT V0201701N00101220001CN0600001N9-00101-00801100251ADDAA199000091AY101999GF103991011041012501001011KA1999M+00301MD1210051+9999MW1021
0057010490999991973040612004+69983+023383FM-12+0003ENAT V0203201N00151002401CN0030001N9-00101-00301099651ADDAY171999GF109991091999999999999999MD1710111+9999MW1701
0081010490999991973040806004+69983+023383FM-12+0003ENAT V0209991C00001007501CN0300001N9-00201-00501100571ADDAA199999929AY121999GF107991051051008001071999KA1999N-00301MD1210131+9999MW1031
0057010490999991973040809004+69983+023383FM-12+0003ENAT V0209991C00001030001CN0400001N9+00101-00401100651ADDAY121999GF107991021051012501071999MD1210081+9999MW1021
0057010490999991973040812004+69983+023383FM-12+0003ENAT V0209991C00001220001CN0400001N9+00101-00401100701ADDAY121999GF104991031021008001051001MD1210051+9999MW1021
0057010490999991973040815004+69983+023383FM-12+0003ENAT V0200901N00101220001CN0400001N9+00201-00501100731ADDAY121999GF104991041081008001051001MD1210031+9999MW1021
0081010490999991973040818004+69983+023383FM-12+0003ENAT V0201201N00201220001CN0400001N9-00101-00501100811ADDAA199000091AY101999GF104991021051012501051011KA1999M+00201MD1210081+9999MW1021
0081010490999991973041006004+69983+023383FM-12+0003ENAT V0209991C00001007501CN0150001N9-00301-00401100531ADDAA199000591AY171999GF107991051051008001071999KA1999N-00401MD1710051+9999MW1701
0057010490999991973041009004+69983+023383FM-12+0003ENAT V0203601N00101030001CN0300001N9-00101-00401100531ADDAY121999GF106991041051012501071999MD1410001+9999MW1021
0065010490999991973041012004+69983+023383FM-12+0003ENAT V0209991C00001030001CN0300001N9+00401-00401100531ADDAY121999GF106991041081008001071999MD1410001+9999MW1021OC199999
0081010490999991973041706004+69983+023383FM-12+0003ENAT V0209991C00001220001CN0700001N9-00201-00701100751ADDAA199000091AY101999GF103991021001999999071081KA1999N-00601MD1210031+9999MW1031
0057010490999991973041709004+69983+023383FM-12+0003ENAT V0209991C00001030001CN0600001N9+00101-00501100801ADDAY121999GF106991011041012501071081MD1210051+9999MW1021
0057010490999991973041715004+69983+023383FM-12+0003ENAT V0203601N00201012001CN0500001N9+00201-00601100951ADDAY121999GF108991081051012501999999MD1210101+9999MW1021
0081010490999991973041806004+69983+023383FM-12+0003ENAT V0203201N00671220001CN0300001N9+00001-00601101661ADDAA199999929AY181999GF104991041021012501001081KA1999N-00301MD1210241+9999MW1151
0057010490999991973041809004+69983+023383FM-12+0003ENAT V0203101N00511220001CN0200001N9+00101-00501101851ADDAY121999GF103991031021008001001001MD1210191+9999MW1151
0065010490999991973041812004+69983+023383FM-12+0003ENAT V0203201N00561015001CN0300001N9+00101-00501102011ADDAY121999GF106991061081012501999999MD1210161+9999MW1151OC100771
0057010490999991973041909004+69983+023383FM-12+0003ENAT V0200901N00151220001CN0600001N9+00001-00801102951ADDAY101999GF101991011021008001001001MD1210071+9999MW1011
0065010490999991973041912004+69983+023383FM-12+0003ENAT V0201501N00251220001CN0600001N9+00101-00801102971ADDAY101999GF102991011021008001041001MD1210021+9999MW1021OC100921
0057010490999991973041915004+69983+023383FM-12+0003ENAT V0201401N00201220001CN0500001N9+00101-00701103001ADDAY101999GF102991021051012501001001MD1210031+9999MW1021
0081010490999991973041918004+69983+023383FM-12+0003ENAT V0201401N00251220001CN0500001N9-00101-00701102981ADDAA199000091AY101999GF103991031051012501001001KA1999M+00101MD1710021+9999MW1021
0057010490999991973042109004+69983+023383FM-12+0003ENAT V0201501N00361220001CN0700001N9-00101-00701102811ADDAY101999GF101991011001999999041001MD1710051+9999MW1021
0057010490999991973042112004+69983+023383FM-12+0003ENAT V0201501N00511220001CN0700001N9+00001-00701102711ADDAY101999GF100991001001999999001001MD1710101+9999MW1021
0057010490999991973042115004+69983+023383FM-12+0003ENAT V0201601N00461220001CN0700001N9+00101-00701102621ADDAY101999GF100991001001999999001001MD1710091+9999MW1021
0057010490999991973042215004+69983+023383FM-12+0003ENAT V0201601N00201220001CN0700001N9+00301-00501102621ADDAY101999GF101991001001999999001011MD1710031+9999MW1021
0110010490999991973042318004+69983+023383FM-12+0003ENAT V0200901N00201012001CN0500001N9+00301-00201102741ADDAA199000091AY121999GF106991061051012501999999KA1999M+00501MW1021OC199999EQDQ01+000042APCTENQ02+000012APC3  
0057010490999991973042403004+69983+023383FM-12+0003ENAT V0202001N00201012001CN0300001N9+00001+00001102801ADDAY121999GF107991051051012501999999MD1010061+9999MW1021
0057010490999991973042409004+69983+023383FM-12+0003ENAT V0201701N00301007501CN0600001N9+00401-00201102461ADDAY121999GF106991061051008001999999MD1710251+9999MW1021
0057010490999991973042415004+69983+023383FM-12+0003ENAT V0201901N00511030001CN0700001N9+00401-00401101731ADDAY121999GF106991011011008001041071MD1710321+9999MW1031
0057010490999991973042503004+69983+023383FM-12+0003ENAT V0201701N00361002401CN0060001N9+00101-00301100791ADDAY171999GF109991091999999999999999MD1710181+9999MW1711
0057010490999991973042609004+69983+023383FM-12+0003ENAT V0201601N00511030001CN0300001N9+00201-00401100311ADDAY121999GF106991041051008001071999MD1210041+9999MW1151
0057010490999991973042612004+69983+023383FM-12+0003ENAT V0201601N00411220001CN0400001N9+00301-00401100311ADDAY121999GF104991041021012501001001MD1410001+9999MW1011
0057010490999991973042715004+69983+023383FM-12+0003ENAT V0201001N00721012001CN0250001N9+00401+00001099381ADDAY121999GF108991071081008001071999MD1710151+9999MW1021
0081010490999991973042718004+69983+023383FM-12+0003ENAT V0201501N00461012001CN0300001N9+00401-00101099471ADDAA199000291AY121999GF106991061081008001071999KA1999M+00401MD1210091+9999MW1011
0057010490999991973042812004+69983+023383FM-12+0003ENAT V0201401N00611030001CN0500001N9+00101-00501100441ADDAY121999GF105991041081012501041001MD1210151+9999MW1031
0065010490999991973042912004+69983+023383FM-12+0003ENAT V0200901N00411220001CN0700001N9+00301-00501101521ADDAY101999GF101991001001999999001011MD1210091+9999MW1021OC101031
0057010490999991973042915004+69983+023383FM-12+0003ENAT V0201301N00461220001CN0700001N9+00301-00601101591ADDAY101999GF102991001001999999001011MD1210071+9999MW1031
0081010490999991973042918004+69983+023383FM-12+0003ENAT V0201301N00301220001CN0600001N9+00201-00601101661ADDAA199000091AY121999GF104991031021012501041001KA1999M+00301MD1210071+9999MW1021
0089010490999991973043006004+69983+023383FM-12+0003ENAT V0201501N00151012001CN0400001N9+00201-00501101791ADDAA199999929AY121999GF105991051081008001999999KA1999N+00001MD1010121+9999MW1011OC100821
0079010490999991973043012004+69983+023383FM-12+0003ENAT V0201101N00971030001CN0400001N9+00301-00401101551ADDAY121999GF106991041051012501041011MD1710131+9999MW1031OC101591REMSYN005914*6
0057010490999991973043015004+69983+023383FM-12+0003ENAT V0201001N00921030001CN0400001N9+00201-00301101441ADDAY121999GF107991031081012501021999MD1710111+9999MW1021
0094010490999991973050106004+69983+023383FM-12+0003ENAT V0202501N00201000601CN0010001N9-00101+99999100611ADDAA199016091AY171999GF109991091999999999999999KA1999N+99999MD1010001+9999EQDQ01 +00002ATMN  
0057010490999991973050109004+69983+023383FM-12+0003ENAT V0209991C00001002401CN0050001N9+99999+99999100731ADDAY171999GF109991091999999999999999MD1210071+9999MW1711
0057010490999991973050112004+69983+023383FM-12+0003ENAT V0200301N002019999999N0200001N9+00201+00001100821ADDAY171999GF105991041061002501999999MD1210091+9999MW1011
0081010490999991973050118004+69983+023383FM-12+0003ENAT V0201501N00611220001CN0700001N9+00301-00401100771ADDAA199004091AY101999GF101991011001999999041081KA1999M+00501MD1710051+9999MW1031
0069010490999991973050123504+69983+023383FM-15+0003ENAT V0202701N00101036001CN0112001N1+00201-00401999999ADDGA1031+013509059GA2071+036009049MA1100201999999EQDQ01+000000PRSWM2
0069010490999991973050200504+69983+023383FM-15+0003ENAT V0201301N00721024001CN0112001N1+00301-00301999999ADDGA1011+013509059GA2071+024009049MA1100101999999EQDQ01+000000PRSWM2
0122010490999991973050206004+69983+023383FM-12+0003ENAT V0201301N00871007501CN0200001N9+00201+00001099261ADDAA199000291AY171999GF108991061051008001021999KA1999N+00101MD1710532+9999MW1601OC101801REMSYN005914*6EQDQ01+000532APC3  
0057010490999991973050215004+69983+023383FM-12+0003ENAT V0201801N00611030001CN0400001N9+00501+00001098531ADDAY121999GF107991031051008001071999MD1710081+9999MW1021
0081010490999991973050306004+69983+023383FM-12+0003ENAT V0202101N00511220001CN0600001N9+00601-00401098841ADDAA199000091AY121999GF104991011021008001071011KA1999N+00401MD1210041+9999MW1011
0065010490999991973050312004+69983+023383FM-12+0003ENAT V0202101N00461030001CN0600001N9+00601-00301098941ADDAY121999GF106991011051012501071011MD1210031+9999MW1021OC101341
0057010490999991973050315004+69983+023383FM-12+0003ENAT V0202501N00721030001CN0600001N9+00701-00301099021ADDAY121999GF107991041051012501071999MD1210081+9999MW1021
0089010490999991973050318004+69983+023383FM-12+0003ENAT V0202501N00611030001CN0400001N9+00401-00101099271ADDAA199000091AY121999GF107991041051008001071999KA1999M+00701MD1210251+9999MW1021OC101231
0069010490999991973050515504+69983+023383FM-15+0003ENAT V0200501N00251220001CN0112001N1+00301-00101999999ADDGA1011+007509089GA2041+010509059MA1101391999999EQDQ01+000000PRSWM2
0075010490999991973050516504+69983+023383FM-15+0003ENAT V0200601N00301012001CN9999999N9+00301-00101999999ADDGA1031+009009059GA2041+012009059MA1101391999999MW1991EQDQ01+000002VOVAR 
0069010490999991973050518504+69983+023383FM-15+0003ENAT V0200901N00201220001CN0112001N1+00301-00201999999ADDGA1011+009009059GA2041+021009039MA1101391999999EQDQ01+000000PRSWM2
0057010490999991973050609004+69983+023383FM-12+0003ENAT V0200901N00301220001CN0700001N9+00401-00301101201ADDAY101999GF101991011021012501001001MD1710091+9999MW1021
0081010490999991973050706004+69983+023383FM-12+0003ENAT V0200701N00101220001CN0700001N9+00201-00301101111ADDAA199000091AY101999GF102991011021008001001011KA1999N+00001MD1210061+9999MW1021
0057010490999991973050709004+69983+023383FM-12+0003ENAT V0200301N00201220001CN0700001N9+00401-00301101231ADDAY101999GF102991011021008001061001MD1210121+9999MW1021
0057010490999991973050903004+69983+023383FM-12+0003ENAT V0201401N00411220001CN0700001N9+00201-00401101281ADDAY101999GF101991011001999999041011MD1710141+9999MW1011
0057010490999991973050912004+69983+023383FM-12+0003ENAT V0201501N00511220001CN0700001N9+00701+00001100951ADDAY101999GF103991011021012501001081MD1710081+9999MW1031
0057010490999991973050915004+69983+023383FM-12+0003ENAT V0201601N00411220001CN0400001N9+00601+00001100891ADDAY101999GF103991031051012501041999MD1710061+9999MW1021
0081010490999991973050918004+69983+023383FM-12+0003ENAT V0201401N00301007501CN0200001N9+00601+00101100801ADDAA199000091AY121999GF107991051051008001021999KA1999M+00801MD1710091+9999MW1021
0057010490999991973051106004+69983+023383FM-12+0003ENAT V0201701N00411012001CN0500001N9+00701+00101100741ADDAY121999GF107991061081008001041011MD1410001+9999MW1021
0065010490999991973051112004+69983+023383FM-12+0003ENAT V0201701N00561007501CN0250001N9+00801+00201100601ADDAY121999GF106991051051008001071999MD1710061+9999MW1021OC101181
0057010490999991973051203004+69983+023383FM-12+0003ENAT V0201301N00201220001CN0600001N9+00601+00001100871ADDAY101999GF101991011021008001001001MD1210071+9999MW1021
0116010490999991973051206004+69983+023383FM-12+0003ENAT V0201201N00301220001CN0600001N9+00701+00101100861ADDAA199000091AY101999GF102991011021008001041001KA1999N+00501MD1710011+9999MW1021EQDQ01+000042APCTENQ02+000012APC3  
0057010490999991973051212004+69983+023383FM-12+0003ENAT V0201501N00361007501CN0600001N9+00601+00101100721ADDAY121999GF107991051051008001999999MD1710061+9999MW1031
0057010490999991973051315004+69983+023383FM-12+0003ENAT V0201801N00511220001CN0700001N9+00901-00201099971ADDAY101999GF101991011001999999041011MD1710251+9999MW1021
0100010490999991973051318004+69983+023383FM-12+0003ENAT V0201601N00411220001CN0700001N9+00901-00101099821ADDAA199000091AY101999GF102991011021999999041011KA1999M+00901MD1710151+9999MW1021EQDQ01+000992SCOLCB
0057010490999991973051403004+69983+023383FM-12+0003ENAT V0201601N00251012001CN0400001N9+00601-00201099421ADDAY121999GF108991051051012501071999MD1710131+9999MW1021
0081010490999991973051406004+69983+023383FM-12+0003ENAT V0201101N00101012001CN0400001N9+00501+00001099281ADDAA199000091AY121999GF108991061081008001071999KA1999N+00501MD1710141+9999MW1021
0057010490999991973051409004+69983+023383FM-12+0003ENAT V0201301N00511007501CN0150001N9+00501+00001099171ADDAY121999GF108991051051008001021999MD1710111+9999MW1151
0057010490999991973051512004+69983+023383FM-12+0003ENAT V0203301N00921004201CN0200001N9+00401+00001099971ADDAY181999GF108991081061004501999999MD1210491+9999MW1801
0081010490999991973051606004+69983+023383FM-12+0003ENAT V0203301N00201007501CN0120001N9+00101-00101102101ADDAA199000291AY181999GF108991081071008001999999KA1999N+00101MD1210241+9999MW1851
0086010490999991973051812004+69983+023383FM-12+0003ENAT V0201601N00561220001CN0700001N9+01101-00201103261ADDAY101999GF100991001001999999001001MW1021OC101031EQDQ01+000042APCTENQ02+000022APC3  
0081010490999991973051818004+69983+023383FM-12+0003ENAT V0201301N00411220001CN0300001N9+00901+00101103111ADDAA199000091AY101999GF100991001001999999001001KA1999M+01101MD1710081+9999MW1021
0057010490999991973051903004+69983+023383FM-12+0003ENAT V0201201N00361012001CN0400001N9+00801+00001102831ADDAY121999GF107991051041012501041999MD1710181+9999MW1021
0089010490999991973052106004+69983+023383FM-12+0003ENAT V0209991C00001030001CN0400001N9+00501+00201101241ADDAA199000091AY121999GF108991021051012501011999KA1999N+00301MD1710101+9999MW1021OC199999
0057010490999991973052212004+69983+023383FM-12+0003ENAT V0203301N00461012001CN0500001N9+00801+00301101451ADDAY121999GF107991061021012501041999MD1210141+9999MW1021
0057010490999991973052215004+69983+023383FM-12+0003ENAT V0203601N00361007501CN0500001N9+00701+00201101601ADDAY121999GF106991061021008001999999MD1210151+9999MW1021
0089010490999991973052218004+69983+023383FM-12+0003ENAT V0203601N00361007501CN0500001N9+00501+00001101751ADDAA199000091AY121999GF107991071021008001999999KA1999M+01001MD1210151+9999MW1021OC100671
0089010490999991973052418004+69983+023383FM-12+0003ENAT V0203301N00611030001CN0600001N9+00501-00401101931ADDAA199999929AY121999GF105991021051012501071999KA1999M+00601MD1110041+9999MW1021OC100871
0085010490999991973052506004+69983+023383FM-12+0003ENAT V0202801N00411220001CN0300001N9+00201-00101102071ADDAY181999GF103991021091002501041999MD1210111+9999MW1151OC101391REMSYN01110100 914*5
0089010490999991973052606004+69983+023383FM-12+0003ENAT V0202701N00151012001CN0300001N9+00301-00201102471ADDAA199999929AY121999GF106991051081008001071999KA1999N+00101MD1110021+9999MW1151OC100771
0057010490999991973052609004+69983+023383FM-12+0003ENAT V0203001N00411220001CN0600001N9+00601-00301102401ADDAY111999GF103991021021008001041999MD1710071+9999MW1011
0057010490999991973052612004+69983+023383FM-12+0003ENAT V0202701N00511220001CN0500001N9+00601-00301102371ADDAY101999GF104991031081008001041999MD1610081+9999MW1021
0078010490999991973052709004+69983+023383FM-12+0003ENAT V0209991C00001007501CN0400001N9+00601+00001102161ADDAY121999GF107991051021008001041999MW1021EQDQ01+000042APCTENQ02+000012APC3  
0057010490999991973052712004+69983+023383FM-12+0003ENAT V0203401N00251012001CN0400001N9+00601+00101102211ADDAY121999GF106991051081008001041999MD1210051+9999MW1011
0081010490999991973052718004+69983+023383FM-12+0003ENAT V0203501N00411012001CN0400001N9+00401+00001102401ADDAA199000091AY121999GF106991051081008001041999KA1999M+00701MD1210131+9999MW1021
0078010490999991973052909004+69983+023383FM-12+0003ENAT V0202801N00361012001CN0500001N9+00101-00401102431ADDAY121999GF107991071051012501999999MW1021EQDQ01+000042APCTENQ02+000012APC3  
0057010490999991973052915004+69983+023383FM-12+0003ENAT V0203201N00201012001CN9999999N9+00501-00401102381ADDAY121999GF107991071051012501999999MD1710071+9999MW1021
0057010490999991973053015004+69983+023383FM-12+0003ENAT V0203201N00461220001CN0700001N9+00901+00101101741ADDAY101999GF104991011001999999041081MD1710121+9999MW1021
0081010490999991973053018004+69983+023383FM-12+0003ENAT V0209991C00001030001CN0600001N9+01001+00101101641ADDAA199000091AY121999GF106991061001999999071999KA1999M+01001MD1710101+9999MW1031
0057010490999991973060103004+69983+023383FM-12+0003ENAT V0201401N00361220001CN0600001N9+01701+00501101101ADDAY101999GF101991011051012501001001MD1810171+9999MW1021
0057010490999991973060112004+69983+023383FM-12+0003ENAT V0201401N00621220001CN0750001N9+01601+00501100871ADDAY101999GF100991001001999999001001MD1710071+9999MW1021
0037010490999991973060112504+69983+023383FM-15+0003ENAT V0201601N00461220001CN0112001N1+01701+00501999999ADDMA1100811999999EQDQ01+000000PRSWM2
0076010490999991973060212004+69983+023383FM-12+0003ENAT V0203301N00511012001CN0300001N9+00801+00401100371ADDAY181999GF107991061081008001071999MD1210502+9999MW1021EQDQ01+000502APC3  
0057010490999991973060415004+69983+023383FM-12+0003ENAT V0202401N00511220001CN0750001N9+01601+00401101371ADDAY101999GF104991021081012501041999MD1210101+9999MW1021
0071010490999991973060506004+69983+023383FM-12+0003ENAT V0209991C00001030001CN0600001N9+01001+00201101301ADDAY121999GF107991011051012501071999MD1710131+9999MW1021REMSYN00591107
0057010490999991973060509004+69983+023383FM-12+0003ENAT V0203101N00211220001CN0750001N9+01101+00201101331ADDAY111999GF103991021081012501041999MD1210031+9999MW1011
0057010490999991973060512004+69983+023383FM-12+0003ENAT V0203601N00101220001CN0750001N9+01201+00101101331ADDAY101999GF104991011021012501041011MD1410001+9999MW1021
0076010490999991973060515004+69983+023383FM-12+0003ENAT V0202001N007219999999N0750001N9+01201-00101101241ADDAY121999GF107991041041999999041081MD1710091+9999MW1021EQDQ01+000992SCOLCB
0114010490999991973060518004+69983+023383FM-12+0003ENAT V0202101N006219999999N0500001N9+01201+00101101171ADDAA199000091AY121999GF106991031041999999041081KA1999M+01401MD1710071+9999MW1021REMSYN00570014EQDQ01+000992SCOLCB
0057010490999991973060603004+69983+023383FM-12+0003ENAT V0202101N00311030001CN0500001N9+01001+00101100941ADDAY121999GF106991031051012501071999MD1710121+9999MW1031
0114010490999991973060606004+69983+023383FM-12+0003ENAT V0201901N00361030001CN0400001N9+01001+00101100671ADDAA199999999AY161999GF107991011061008001011999KA1999N+00801MD1710271+9999MW1601REMSYN00570008EQDQ01  00002PRCP99
0075010490999991973060608504+69983+023383FM-15+0003ENAT V0201901N00101010501CN9999999N9+01001+00201999999ADDGA1011+006009079GA2051+010509059MA1100511999999MW1601EQDQ01+000002VOVAR 
0043010490999991973060609004+69983+023383FM-12+0003ENAT V0201901N00101012001CN0400001N9+01001+00201100471ADDAY161999GF108991071051012501999999MW1601
0069010490999991973060610504+69983+023383FM-15+0003ENAT V0201901N00511012001CN0112001N1+01001+00201999999ADDGA1011+009009079GA2051+012009059MA1100411999999EQDQ01+000000PRSWM2
0069010490999991973060611504+69983+023383FM-15+0003ENAT V0202201N00561220001CN0112001N1+01101+00301999999ADDGA1011+007509079GA2031+012009059MA1100311999999EQDQ01+000000PRSWM2
0057010490999991973060612004+69983+023383FM-12+0003ENAT V0202201N00571030001CN0500001N9+01101+00301100271ADDAY121999GF107991031051012501071999MD1710201+9999MW1021
0069010490999991973060614504+69983+023383FM-15+0003ENAT V0202701N00611220001CN0112001N1+01301+00201999999ADDGA1011+009009089GA2041+012009059MA1100001999999EQDQ01+000000PRSWM2
0057010490999991973060615004+69983+023383FM-12+0003ENAT V0202701N00621030001CN0500001N9+01301+00201100031ADDAY121999GF107991041051012501071999MD1710241+9999MW1021
0069010490999991973060615504+69983+023383FM-15+0003ENAT V0202701N00511220001CN0112001N1+01201+00201999999ADDGA1021+009009089GA2021+021009039MA1100001999999EQDQ01+000000PRSWM2
0069010490999991973060616504+69983+023383FM-15+0003ENAT V0202701N00611220001CN0112001N1+01201+00201999999ADDGA1021+010509089GA2021+021009039MA1100001999999EQDQ01+000000PRSWM2
0095010490999991973060618004+69983+023383FM-12+0003ENAT V0202701N00621030001CN0500001N9+01101+00201099961ADDAA199000291AY121999GF106991041081012501071999KA1999M+01301MD1710071+9999MW1031REMSYN00579213
0069010490999991973060618504+69983+023383FM-15+0003ENAT V0202901N00721220001CN0112001N1+01001+00201999999ADDGA1011+009009089GA2021+012009059MA1099901999999EQDQ01+000000PRSWM2
0086010490999991973060619504+69983+023383FM-15+0003ENAT V0202601N00361010501CN0112001N1+01001+00201999999ADDGA1011+006009079GA2051+010509059MA1100001999999REMMET008DIST SH%EQDQ01+000000PRSWM2
0086010490999991973060706504+69983+023383FM-15+0003ENAT V0202601N00721220001CN0112001N1+00901+00201999999ADDGA1011+006009079GA2041+010509059MA1100611999999REMMET008DIST SH%EQDQ01+000000PRSWM2
0056010490999991973060707504+69983+023383FM-15+0003ENAT V0202701N00921010501CN0112001N1+00901+00101999999ADDGA1021+004809079GA2041+010509059MA1100611999999MW1801
0057010490999991973060803004+69983+023383FM-12+0003ENAT V0209991C00001012001CN0300001N9+00701+00301100671ADDAY121999GF107991051051012501071999MD1710061+9999MW1011
0095010490999991973060806004+69983+023383FM-12+0003ENAT V0209991C00001075001CN0300001N9+00901+00301100551ADDAA199000491AY121999GF105991021051012501071021KA1999N+00601MD1710121+9999MW1021REMSYN00579406
0057010490999991973060809004+69983+023383FM-12+0003ENAT V0202201N00311030001CN0400001N9+01101+00001100421ADDAY121999GF107991011051012501071999MD1710131+9999MW1021
0043010490999991973060812004+69983+023383FM-12+0003ENAT V0202101N00621030001CN0600001N9+01301+99999100191ADDAY121999GF106991011021012501041071MW1021
0057010490999991973060815004+69983+023383FM-12+0003ENAT V0202001N00461030001CN0500001N9+01201+00001100011ADDAY121999GF108991041051012501071999MD1710081+9999MW1031
0057010490999991973061009004+69983+023383FM-12+0003ENAT V0203101N00511030001CN0750001N9+01001+00301099711ADDAY121999GF107991011051012501021999MD1710141+9999MW1021
0057010490999991973061103004+69983+023383FM-12+0003ENAT V0201401N00311007501CN0300001N9+00901+00401098751ADDAY121999GF108991051051008001071999MD1710081+9999MW1021
0095010490999991973061106004+69983+023383FM-12+0003ENAT V0201001N00311004201CN0400001N9+01001+00501098751ADDAA199003091AY121999GF108991051051004501071999KA1999N+00801MD1410001+9999MW1021REMSYN00570308
0057010490999991973061109004+69983+023383FM-12+0003ENAT V0201401N00461004201CN0500001N9+01101+00601098721ADDAY121999GF107991051051004501071999MD1510031+9999MW1021
0095010490999991973061118004+69983+023383FM-12+0003ENAT V0202101N00461220001CN0750001N9+01401+00001098871ADDAA199000091AY101999GF102991011001999999041081KA1999M+01501MD1210201+9999MW1021REMSYN00570015
0043010490999991973061212004+69983+023383FM-12+0003ENAT V0203501N00261015001CN0300001N9+00901+00401098931ADDAY121999GF108991051081012501071999MW1601
0043010490999991973061215004+69983+023383FM-12+0003ENAT V0203501N00461030001CN0300001N9+00901+00401098911ADDAY121999GF108991031051012501011999MW1021
0057010490999991973061315004+69983+023383FM-12+0003ENAT V0203201N00311030001CN0500001N9+00801+00101099461ADDAY121999GF105991041081008001071999MD1210111+9999MW1021
0095010490999991973061318004+69983+023383FM-12+0003ENAT V0203001N00261030001CN0500001N9+00701+00001099501ADDAA199999929AY121999GF105991041051008001051999KA1999M+00801MD1210041+9999MW1021REMSYN00579708
0057010490999991973061412004+69983+023383FM-12+0003ENAT V0203501N00311030001CN0120001N9+00601+00301099061ADDAY161999GF108991041051008001021999MD1210161+9999MW1611
0095010490999991973061418004+69983+023383FM-12+0003ENAT V0203401N00211007501CN0200001N9+00701+00301099631ADDAA199007091AY161999GF108991071051008001021999KA1999M+00701MD1210291+9999MW1601REMSYN00570707
0057010490999991973061509004+69983+023383FM-12+0003ENAT V0200101N00461007501CN0500001N9+00701+00101101301ADDAY121999GF106991061051008001041999MD1210331+9999MW1021
0076010490999991973061712004+69983+023383FM-12+0003ENAT V0203101N004119999999N0400001N9+00801-00201102431ADDAY121999GF107991999021012501001001MD1710021+9999MW1021EQDQ01+000042SCOTLC
0057010490999991973061812004+69983+023383FM-12+0003ENAT V0203101N00671220001CN0500001N9+01001+00201102211ADDAY101999GF100991001001999999001001MD1710041+9999MW1021
0057010490999991973061815004+69983+023383FM-12+0003ENAT V0203001N00621220001CN0750001N9+01101+00301102191ADDAY101999GF100991001001999999001001MD1710021+9999MW1021
0095010490999991973061906004+69983+023383FM-12+0003ENAT V0209991C00001220001CN0750001N9+01201+00201102241ADDAA199000091AY101999GF101991011021012501001001KA1999N+00701MD1110021+9999MW1021REMSYN00570007
0076010490999991973061912004+69983+023383FM-12+0003ENAT V0203201N002119999999N0750001N9+01501+00501102191ADDAY121999GF105991999001999999031001MD1710051+9999MW1021EQDQ01+000042SCOTLC
0057010490999991973061915004+69983+023383FM-12+0003ENAT V0203001N00571030001CN0600001N9+01601+00401102151ADDAY121999GF105991051001999999031001MD1710041+9999MW1011
0095010490999991973061918004+69983+023383FM-12+0003ENAT V0203001N00511220001CN0600001N9+01601+00601102131ADDAA199000091AY121999GF104991041001999999041081KA1999M+01701MD1710021+9999MW1011REMSYN00570017
0120010490999991973062006004+69983+023383FM-12+0003ENAT V0203301N00211030001CN0500001N9+01401+00701102251ADDAA199999929AY121999GF106991999001999999051001KA1999N+01201MD1410001+9999MW1011REMSYN01179712 91105EQDQ01+000052SCOTLC
0043010490999991973062012004+69983+023383FM-12+0003ENAT V0203001N00671220001CN0750001N9+01701+00801102281ADDAY121999GF103991011021012501041001MW1021
0069010490999991973062014504+69983+023383FM-15+0003ENAT V0203001N00561220001CN0112001N1+01801+00801999999ADDGA1011+010509089GA2031+030009039MA1102301999999EQDQ01+000000PRSWM2
0076010490999991973062015004+69983+023383FM-12+0003ENAT V0203001N00511220001CN0750001N9+01701+00801102301ADDAY101999GF103991031021999999031001MD1210021+9999MW1021EQDQ01+000992SCOLCB
0053010490999991973062017404+69983+023383FM-15+0003ENAT V0203001N00411220001CN0112001N1+01601+00801999999ADDGA1011+009009089MA1102301999999EQDQ01+000000PRSWM2
0095010490999991973062018004+69983+023383FM-12+0003ENAT V0203001N00411220001CN0750001N9+01601+00801102341ADDAA199000091AY101999GF101991011021012501001001KA1999M+01701MD1210041+9999MW1021REMSYN00570017
0037010490999991973062020504+69983+023383FM-15+0003ENAT V0203001N00301220001CN0112001N1+01601+00701999999ADDMA1102401999999EQDQ01+000000PRSWM2
0095010490999991973062106004+69983+023383FM-12+0003ENAT V0209991C00001220001CN0750001N9+01701+00701102381ADDAA199000091AY101999GF101991001001999999001081KA1999N+01101MD1710091+9999MW1021REMSYN00570011
0053010490999991973062107504+69983+023383FM-15+0003ENAT V0203301N00101220001CN0112001N1+01801+00801999999ADDGA1011+060009009MA1102301999999EQDQ01+000000PRSWM2
0043010490999991973062112004+69983+023383FM-12+0003ENAT V0203001N00511220001CN0750001N9+02001+00901102311ADDAY101999GF104991011011012501001081MW1021
0069010490999991973062112504+69983+023383FM-15+0003ENAT V0202901N00511220001CN0112001N1+02001+01001999999ADDGA1011+012009089GA2041+060009009MA1102301999999EQDQ01+000000PRSWM2
0114010490999991973062118004+69983+023383FM-12+0003ENAT V0203301N00261030001CN0250001N9+01601+00801102501ADDAA199999999AY121999GF108991021041017501071999KA1999M+02101MD1210131+9999MW1601REMSYN00570021EQDQ01  00002PRCP99
0043010490999991973062312004+69983+023383FM-12+0003ENAT V0203001N00101220001CN0500001N9+01901+00901102081ADDAY101999GF104991041001999999071999MW1021
0057010490999991973062315004+69983+023383FM-12+0003ENAT V0203001N00411220001CN0500001N9+01901+00901101941ADDAY101999GF103991011021017501041011MD1710141+9999MW1021
0101010490999991973062318004+69983+023383FM-12+0003ENAT V0203101N00311030001CN0500001N9+01901+00901101871ADDAA199000091AY121999GF106991051001999999041999KA1999M+02001MD1710071+9999MW1011REMSYN01170020 91114
0076010490999991973062415004+69983+023383FM-12+0003ENAT V0203001N004619999999N0600001N9+01501+00801101841ADDAY121999GF105991999021012501001001MD1710051+9999MW1021EQDQ01+000042SCOTLC
0114010490999991973062418004+69983+023383FM-12+0003ENAT V0203301N004119999999N0600001N9+01501+00601101901ADDAA199000091AY121999GF106991999021012501001001KA1999M+01601MD1210061+9999MW1021REMSYN00570016EQDQ01+000042SCOTLC
0043010490999991973062503004+69983+023383FM-12+0003ENAT V0202801N00101220001CN0500001N9+01201+99999102091ADDAY101999GF102991999999999999999999MW1021
0087010490999991973062506004+69983+023383FM-12+0003ENAT V0203301N00101220001CN0500001N9+01401+00701102071ADDAA199000091AY111999GF104991011021008001041011KA1999N+01101MW1031REMSYN01170011 91106
0057010490999991973062512004+69983+023383FM-12+0003ENAT V0203201N00101012001CN0500001N9+01401+00501102021ADDAY121999GF107991051081008001071999MD1710051+9999MW1021
0057010490999991973062515004+69983+023383FM-12+0003ENAT V0203001N00361075001CN0750001N9+01601+00501101921ADDAY121999GF105991021041012501041081MD1710101+9999MW1011
0095010490999991973062518004+69983+023383FM-12+0003ENAT V0203001N00361030001CN0600001N9+01401+00701101861ADDAA199000091AY121999GF106991021041012501041999KA1999M+01601MD1710061+9999MW1021REMSYN00570016
0043010490999991973062603004+69983+023383FM-12+0003ENAT V0203301N00211012001CN0500001N9+01301+00701101861ADDAY121999GF107991051051012501071999MW1021
0057010490999991973062609004+69983+023383FM-12+0003ENAT V0203301N00361012001CN0600001N9+01501+00701101901ADDAY121999GF107991051021012501071999MD1210051+9999MW1031
0057010490999991973062612004+69983+023383FM-12+0003ENAT V0203101N00261030001CN0600001N9+01601+00701101881ADDAY121999GF105991041021012501051011MD1710021+9999MW1021
0095010490999991973062618004+69983+023383FM-12+0003ENAT V0203401N00211012001CN0400001N9+01301+00601101931ADDAA199000091AY121999GF107991051051012501999999KA1999M+01701MD1210091+9999MW1031REMSYN00570017
0069010490999991973062620504+69983+023383FM-15+0003ENAT V0203101N00201009001CN0112001N1+01201+00601999999ADDGA1011+006009079GA2051+009009059MA1102001999999EQDQ01+000000PRSWM2
0069010490999991973062621504+69983+023383FM-15+0003ENAT V0203301N00151007501CN0112001N1+01201+00601999999ADDGA1011+006009079GA2051+007509059MA1102101999999EQDQ01+000000PRSWM2
0069010490999991973062622504+69983+023383FM-15+0003ENAT V0200501N00151007501CN0112001N1+01101+00601999999ADDGA1011+006009079GA2051+007509059MA1102101999999EQDQ01+000000PRSWM2
0085010490999991973062623504+69983+023383FM-15+0003ENAT V0209991C00001010501CN0112001N1+01201+00601999999ADDGA1011+006009079GA2041+007509059GA3041+010509059MA1102101999999EQDQ01+000000PRSWM2
0069010490999991973062700504+69983+023383FM-15+0003ENAT V0203301N00101010501CN0112001N1+01101+00601999999ADDGA1041+007509059GA2041+010509059MA1102101999999EQDQ01+000000PRSWM2
0085010490999991973062701504+69983+023383FM-15+0003ENAT V0202901N00251013501CN0112001N1+01101+00501999999ADDGA1011+006009079GA2031+010509059GA3041+013509059MA1102101999999EQDQ01+000000PRSWM2
0085010490999991973062702504+69983+023383FM-15+0003ENAT V0202901N00251012001CN0112001N1+01101+00601999999ADDGA1011+006009079GA2031+007509059GA3041+012009059MA1102101999999EQDQ01+000000PRSWM2
0057010490999991973062703004+69983+023383FM-12+0003ENAT V0202901N00261007501CN0400001N9+01101+00601102051ADDAY121999GF107991071051008001999999MD1710021+9999MW1021
0053010490999991973062707504+69983+023383FM-15+0003ENAT V0203301N00201220001CN0112001N1+01401+00701999999ADDGA1021+006009089MA1101901999999EQDQ01+000000PRSWM2
0057010490999991973062709004+69983+023383FM-12+0003ENAT V0203101N00211220001CN0750001N9+01501+00601101921ADDAY101999GF101991011021008001001001MD1710071+9999MW1011
0053010490999991973062710504+69983+023383FM-15+0003ENAT V0203201N00411220001CN0112001N1+01501+00701999999ADDGA1011+007509089MA1101901999999EQDQ01+000000PRSWM2
0057010490999991973062715004+69983+023383FM-12+0003ENAT V0203001N00571220001CN0750001N9+01701+00801101621ADDAY101999GF102991011021008001001021MD1710191+9999MW1021
0053010490999991973062716504+69983+023383FM-15+0003ENAT V0203001N00511220001CN0112001N1+01601+01001999999ADDGA1011+007509089MA1101491999999EQDQ01+000000PRSWM2
0095010490999991973062718004+69983+023383FM-12+0003ENAT V0203001N00511220001CN0750001N9+01701+01001101431ADDAA199000091AY101999GF102991011021008001061011KA1999M+01701MD1710191+9999MW1021REMSYN00570017
0057010490999991973062809004+69983+023383FM-12+0003ENAT V0201501N00151007501CN0250001N9+01301+00901100861ADDAY151999GF108991081051008001999999MD1710121+9999MW1201
0057010490999991973062812004+69983+023383FM-12+0003ENAT V0201601N00261007501CN0250001N9+01501+01001100691ADDAY121999GF108991061051008001999999MD1710171+9999MW1021
0057010490999991973062815004+69983+023383FM-12+0003ENAT V0209991C00001030001CN0200001N9+01501+01101100571ADDAY121999GF108991031051008001021999MD1710121+9999MW1601
0057010490999991973062915004+69983+023383FM-12+0003ENAT V0203001N00261030001CN0600001N9+01501+00701101121ADDAY121999GF107991041081012501031999MD1210041+9999MW1021
0057010490999991973070109004+69983+023383FM-12+0003ENAT V0201901N00411075001CN0600001N9+01901+00701101701ADDAY121999GF105991011041012501041011MD1710021+9999MW1031
0057010490999991973070203004+69983+023383FM-12+0003ENAT V0203101N00211075001CN0500001N9+01401+01001102081ADDAY121999GF105991021051012501041081MD1210031+9999MW1011
0069010490999991973070207504+69983+023383FM-15+0003ENAT V0209991C00001220001CN0112001N1+01901+01201999999ADDGA1011+015009089GA2021+030009039MA1101901999999EQDQ01+000000PRSWM2
0069010490999991973070208504+69983+023383FM-15+0003ENAT V0209991V00101220001CN0112001N1+02001+01101999999ADDGA1011+015009089GA2021+030009039MA1101901999999EQDQ01+000000PRSWM2
0057010490999991973070209004+69983+023383FM-12+0003ENAT V0203501N00101220001CN0600001N9+02001+01101101951ADDAY101999GF103991011021012501061041MD1710071+9999MW1021
0057010490999991973070212004+69983+023383FM-12+0003ENAT V0203101N00311220001CN0600001N9+02201+01101101801ADDAY101999GF103991021021012501041041MD1710151+9999MW1021
0101010490999991973070318004+69983+023383FM-12+0003ENAT V0203001N00461030001CN0400001N9+01301+00801101881ADDAA199000091AY121999GF107991031051017501071999KA1999M+01801MD1710221+9999MW1021REMSYN01170018 91116
0095010490999991973070406004+69983+023383FM-12+0003ENAT V0203501N00411004201CN0150001N9+01101+00901101521ADDAA199005091AY161999GF108991071051004501021999KA1999N+01101MD1510011+9999MW1611REMSYN00570511
0057010490999991973070409004+69983+023383FM-12+0003ENAT V0203301N00511004201CN0300001N9+01201+00801101481ADDAY161999GF108991081051004501999999MD1810041+9999MW1021
0077010490999991973070412004+69983+023383FM-12+0003ENAT V0203301N00311004201CN0300001N9+01201+00801101551ADDAY121999GF108991081051004501999999MD1510071+9999MW1021REMSYN01191112 914/4
0057010490999991973070415004+69983+023383FM-12+0003ENAT V0209991C00001007501CN0250001N9+01101+00701101661ADDAY161999GF108991081051008001999999MD1210111+9999MW1601
0095010490999991973070418004+69983+023383FM-12+0003ENAT V0200401N00621007501CN0300001N9+01001+00601101761ADDAA199002091AY161999GF108991081051008001999999KA1999M+01201MD1210101+9999MW1601REMSYN00570212
0087010490999991973070506004+69983+023383FM-12+0003ENAT V0200201N00101004201CN0200001N9+00901+00701101981ADDAA199000391AY121999GF108991081051004501999999KA1999N+00901MW1021REMSYN01179309 91103
0057010490999991973070509004+69983+023383FM-12+0003ENAT V0203401N00211012001CN0300001N9+01101+00701101951ADDAY121999GF107991071081008001999999MD1710031+9999MW1011
0057010490999991973070512004+69983+023383FM-12+0003ENAT V0203401N00261030001CN0400001N9+01301+00801999999ADDAY121999GF106991021021008001071999MD1710021+9999MW1021
0057010490999991973070603004+69983+023383FM-12+0003ENAT V0200701N00461007501CN0400001N9+01101+00701102291ADDAY121999GF107991071051008001999999MD1210161+9999MW1021
0057010490999991973070709004+69983+023383FM-12+0003ENAT V0201201N00311220001CN0750001N9+02501+01101102291ADDAY101999GF100991001001999999001001MD1710061+9999MW1021
0057010490999991973070712004+69983+023383FM-12+0003ENAT V0203201N00261220001CN0750001N9+02201+01201102181ADDAY101999GF101991011011012501001001MD1710111+9999MW1021
0057010490999991973070715004+69983+023383FM-12+0003ENAT V0203201N00311220001CN0750001N9+02301+01301102051ADDAY101999GF101991011011012501001001MD1710131+9999MW1021
0101010490999991973070718004+69983+023383FM-12+0003ENAT V0203101N00511220001CN0750001N9+02201+01101101981ADDAA199000091AY101999GF100991001001999999001001KA1999M+02501MD1710071+9999MW1021REMSYN01170025 91112
0057010490999991973070809004+69983+023383FM-12+0003ENAT V0201801N00411220001CN0750001N9+02901+01301101701ADDAY101999GF101991001001999999001011MD1710071+9999MW1021
0071010490999991973070812004+69983+023383FM-12+0003ENAT V0202401N00511220001CN0750001N9+03201+01101101591ADDAY101999GF101991011011012501001001MD1710111+9999MW1021REMSYN00591117
0057010490999991973070818004+69983+023383FM-12+0003ENAT V0202201N00211220001CN0600001N9+02901+01001101441ADDAY101999GF100991001001999999001001MD1710031+9999MW1021
0101010490999991973070906004+69983+023383FM-12+0003ENAT V0201501N00361220001CN0750001N9+02201+00901101621ADDAA199000091AY101999GF100991001001999999001001KA1999N+02001MD1110051+9999MW1021REMSYN01170020 91120
0043010490999991973070909004+69983+023383FM-12+0003ENAT V0203501N00461220001CN0600001N9+02101+01201101641ADDAY101999GF101991011041012501001001MW1021
0057010490999991973070912004+69983+023383FM-12+0003ENAT V0203301N00361220001CN0600001N9+02001+01101101691ADDAY101999GF102991021021012501001001MD1210051+9999MW1021
0095010490999991973071018004+69983+023383FM-12+0003ENAT V0202801N00101220001CN0600001N9+02301+01001101071ADDAA199000091AY101999GF103991011011012501041081KA1999M+02901MD1710071+9999MW1021REMSYN00570029
0057010490999991973071103004+69983+023383FM-12+0003ENAT V0201601N00361220001CN0600001N9+01901+00701100961ADDAY101999GF102991011021012501041011MD1710111+9999MW1021
0095010490999991973071106004+69983+023383FM-12+0003ENAT V0201401N00361220001CN0600001N9+02201+00801100881ADDAA199000091AY101999GF101991011001999999041001KA1999N+01801MD1710081+9999MW1021REMSYN00570018
0043010490999991973071109004+69983+023383FM-12+0003ENAT V0203001N00511220001CN0750001N9+02201+01101100871ADDAY101999GF101991011001999999031001MW1021
0057010490999991973071203004+69983+023383FM-12+0003ENAT V0200201N00101007501CN0200001N9+01501-01201100951ADDAY161999GF107991051051008001071999MD1710021+9999MW1151
0057010490999991973071309004+69983+023383FM-12+0003ENAT V0202901N00411007501CN0250001N9+01301+00801101551ADDAY121999GF108991071051008001999999MD1310061+9999MW1021
0057010490999991973071315004+69983+023383FM-12+0003ENAT V0203201N00261007501CN0300001N9+01401+00801101581ADDAY121999GF108991081051008001999999MD1110021+9999MW1021
0087010490999991973071318004+69983+023383FM-12+0003ENAT V0209991C00001007501CN0300001N9+01401+00901101601ADDAA199000191AY121999GF108991081051008001999999KA1999M+01401MW1021REMSYN01179114 91106
0053010490999991973071500504+69983+023383FM-15+0003ENAT V0209991C00001220001CN0112001N1+01201+01001999999ADDGA1011+024009039MA1101691999999EQDQ01+000000PRSWM2
0076010490999991973071503004+69983+023383FM-12+0003ENAT V0209991C00001220001CN0200001N9+01601+99999101651ADDAY101999GF100991001001999999001001MD1410001+9999MW1021EQDQ01+026323ATOD  
0057010490999991973071509004+69983+023383FM-12+0003ENAT V0203001N00511220001CN0200001N9+01701+01101101631ADDAY101999GF101991011021012501001001MD1710031+9999MW1021
0085010490999991973071708504+69983+023383FM-15+0003ENAT V0203201N00101009001CN0112001N1+01601+00101999999ADDGA1011+001509079GA2021+001509089GA3051+009009059MA1100711999999EQDQ01+000000PRSWM2
0069010490999991973071801504+69983+023383FM-15+0003ENAT V0201201N00201012001CN0112001N1+01801+01201999999ADDGA1011+007509079GA2051+012009059MA1100411999999EQDQ01+000000PRSWM2
0057010490999991973071803004+69983+023383FM-12+0003ENAT V0209991C00001030001CN0300001N9+01801+01101100351ADDAY121999GF106991031051012501031001MD1410001+9999MW1011
0095010490999991973071806004+69983+023383FM-12+0003ENAT V0201501N00411030001CN0300001N9+02001+01201100381ADDAA199999929AY121999GF106991041081012501031001KA1999N+01701MD1210031+9999MW1021REMSYN00579717
0043010490999991973071809004+69983+023383FM-12+0003ENAT V0203001N005119999999N0300001N9+99999+99999999999ADDAY121999GF106991999999999999999999MW1021
0069010490999991973071814504+69983+023383FM-15+0003ENAT V0203001N00101024001CN0112001N1+01901+01301999999ADDGA1011+012009089GA2061+024009039MA1100311999999EQDQ01+000000PRSWM2
0053010490999991973071817504+69983+023383FM-15+0003ENAT V0209991C00001024001CN0112001N1+01801+01301999999ADDGA1071+024009039MA1100201999999EQDQ01+000000PRSWM2
0057010490999991973071909004+69983+023383FM-12+0003ENAT V0201501N00411030001CN0500001N9+02201+01301100351ADDAY121999GF106991041081008001071999MD1210091+9999MW1021
0057010490999991973072009004+69983+023383FM-12+0003ENAT V0201501N00621220001CN0400001N9+02601+01101100561ADDAY101999GF101991011001999999041001MD1710031+9999MW1021
0057010490999991973072012004+69983+023383FM-12+0003ENAT V0201501N00621220001CN0400001N9+02901+00901100511ADDAY101999GF100991001001999999001001MD1710051+9999MW1021
0043010490999991973072015004+69983+023383FM-12+0003ENAT V0201501N00511220001CN0400001N9+02901+00701100521ADDAY101999GF101991999999999999999999MW1021
0057010490999991973072115004+69983+023383FM-12+0003ENAT V0201401N00311220001CN0750001N9+02801+00701100791ADDAY101999GF101991011011012501001001MD1410001+9999MW1021
0095010490999991973072118004+69983+023383FM-12+0003ENAT V0201501N00311220001CN0300001N9+02601+00601100841ADDAA199000091AY101999GF100991001001999999001001KA1999M+02701MD1210051+9999MW1021REMSYN00570027
0053010490999991973072207504+69983+023383FM-15+0003ENAT V0203101N00101060001CN0112001N1+02401+01001999999ADDGA1051+060009009MA1101021999999EQDQ01+000000PRSWM2
0053010490999991973072208504+69983+023383FM-15+0003ENAT V0201601N00301060001CN0112001N1+02501+00701999999ADDGA1051+060009009MA1101021999999EQDQ01+000000PRSWM2
0057010490999991973072209004+69983+023383FM-12+0003ENAT V0201601N00311220001CN0300001N9+02501+00701101001ADDAY101999GF105991001001999999001011MD1710021+9999MW1021
0057010490999991973072215004+69983+023383FM-12+0003ENAT V0203301N00101220001CN0150001N9+02401+00901100871ADDAY121999GF104991011001999999041081MD1710071+9999MW1011
0114010490999991973072218004+69983+023383FM-12+0003ENAT V0201301N00311220001CN0150001N9+02701+00801100821ADDAA199000091AY101999GF102991001001999999001021KA1999M+02701MD1710051+9999MW1011REMSYN00570027EQDQ01+000022SCOTLC
0101010490999991973072306004+69983+023383FM-12+0003ENAT V0202101N00101220001CN0400001N9+01901+01001100841ADDAA199000091AY101999GF100991001001999999001001KA1999N+01601MD1810041+9999MW1021REMSYN01170016 91111
0057010490999991973072315004+69983+023383FM-12+0003ENAT V0203001N00311075001CN0400001N9+02201+01201100621ADDAY121999GF105991011021012501001021MD1710051+9999MW1021
0057010490999991973072409004+69983+023383FM-12+0003ENAT V0203101N00311220001CN0500001N9+02001+01201100291ADDAY101999GF104991011021017501031011MD1710151+9999MW1021
0071010490999991973072412004+69983+023383FM-12+0003ENAT V0203001N00621220001CN0500001N9+02101+01301100311ADDAY111999GF103991021021012501041011MD1710081+9999MW1021REMSYN00591113
0087010490999991973072418004+69983+023383FM-12+0003ENAT V0202901N00411030001CN9999999N9+99999+99999103212ADDAA199000391GF106991041081012501071999MD1210011+9999REMSYN00579321EQDQ01+103213APOSLP
0057010490999991973072509004+69983+023383FM-12+0003ENAT V0203401N00211007501CN0300001N9+01601+01001100661ADDAY121999GF107991051051008001071999MD1210071+9999MW1021
0095010490999991973072518004+69983+023383FM-12+0003ENAT V0203401N00101007501CN0250001N9+01501+01001100881ADDAA199000091AY121999GF108991061051008001999999KA1999M+01601MD1210131+9999MW1021REMSYN00570016
0071010490999991973072712004+69983+023383FM-12+0003ENAT V0200201N00461220001CN0750001N9+01401+00501102161ADDAY101999GF103991031051012501001001MD1210031+9999MW1011REMSYN00591114
0057010490999991973072715004+69983+023383FM-12+0003ENAT V0200301N00211220001CN0750001N9+01401+00501102221ADDAY101999GF102991021051008001041001MD1210061+9999MW1011
0101010490999991973072806004+69983+023383FM-12+0003ENAT V0203301N00411220001CN0300001N9+01301+00501102081ADDAA199000091AY121999GF105991041051008001001011KA1999N+01101MD1810101+9999MW1021REMSYN01170011 91113
0057010490999991973072815004+69983+023383FM-12+0003ENAT V0203601N00311075001CN0500001N9+01401+00501101971ADDAY121999GF105991011051008001041011MD1810041+9999MW1031
0053010490999991973073004504+69983+023383FM-15+0003ENAT V0209991C00001021001CN0112001N1+01201+00701999999ADDGA1071+021009039MA1101591999999EQDQ01+000000PRSWM2
0053010490999991973073005504+69983+023383FM-15+0003ENAT V0209991C00001021001CN0112001N1+01401+00701999999ADDGA1071+021009039MA1101591999999EQDQ01+000000PRSWM2
0057010490999991973073009004+69983+023383FM-12+0003ENAT V0203301N00151007501CN0600001N9+01501+00701101611ADDAY121999GF107991071011008001071999MD1710031+9999MW1021
0057010490999991973073012004+69983+023383FM-12+0003ENAT V0203101N00461030001CN0750001N9+01501+00901101601ADDAY121999GF108991011021008001071999MW1021REMSYN00591111
0053010490999991973073019504+69983+023383FM-15+0003ENAT V0203001N00101220001CN0112001N1+01401+00801999999ADDGA1031+013509059MA1101491999999EQDQ01+000000PRSWM2
0057010490999991973073109004+69983+023383FM-12+0003ENAT V0200701N00311030001CN0400001N9+01701+01201101081ADDAY121999GF106991031081012501031999MD1710151+9999MW1011
0069010490999991973073110504+69983+023383FM-15+0003ENAT V0201901N00411015001CN0112001N1+01701+01001999999ADDGA1021+010509089GA2041+015009059MA1101021999999EQDQ01+000000PRSWM2
0069010490999991973073111504+69983+023383FM-15+0003ENAT V0209991V00101015001CN0112001N1+01901+00901999999ADDGA1021+010509089GA2031+015009059MA1101021999999EQDQ01+000000PRSWM2
0057010490999991973073112004+69983+023383FM-12+0003ENAT V0200401N00101015001CN0400001N9+01901+00901100981ADDAY121999GF107991051081012501051999MD1710101+9999MW1021
0056010490999991973073113504+69983+023383FM-15+0003ENAT V0209991V00151015001CN0112001N1+02001+01001999999ADDGA1031+009009089GA2031+015009059MA1101021999999MW1801
0072010490999991973073115504+69983+023383FM-15+0003ENAT V0201401N00411024001CN0112001N1+01901+01001999999ADDGA1011+009009089GA2031+012009089GA3041+024009039MA1100811999999MW1801
0102010490999991973073116504+69983+023383FM-15+0003ENAT V0201501N00411018001CN0112001N1+01901+00901999999ADDGA1011+009009089GA2021+012009059GA3041+018009039MA1100811999999REMMET008DIST SH%EQDQ01+000000PRSWM2
0049010490999991973073120504+69983+023383FM-15+0003ENAT V0201501N003019999999N0112001N1+99999+99999999999REMMET021264646 464646 4646464EQDQ01+000000PRSWM2
0057010490999991973080209004+69983+023383FM-12+0003ENAT V0202901N00311030001CN0300001N9+01201+00601100061ADDAY181999GF107991041081008001071999MD1710021+9999MW1151
0057010490999991973080215004+69983+023383FM-12+0003ENAT V0203001N00411012001CN0300001N9+01401+00501100151ADDAY181999GF107991061081008001071999MD1210081+9999MW1801
0095010490999991973080218004+69983+023383FM-12+0003ENAT V0203201N00721012001CN0200001N9+01001+00601100311ADDAA199000191AY181999GF107991061081008001071999KA1999M+01401MD1210161+9999MW1801REMSYN00579114
0057010490999991973080315004+69983+023383FM-12+0003ENAT V0203301N00821012001CN0400001N9+01101+00501101051ADDAY121999GF107991061081008001999999MD1210061+9999MW1021
0095010490999991973080318004+69983+023383FM-12+0003ENAT V0203301N00821012001CN0300001N9+01001+00501101101ADDAA199000091AY121999GF107991061081008001999999KA1999M+01201MD1210051+9999MW1151REMSYN00570012
0095010490999991973080406004+69983+023383FM-12+0003ENAT V0209999999999012001CN0500001N9+01001+00401101261ADDAA199000091AY121999GF199999061081008001999999KA1999N+00901MD1210051+9999MW1021REMSYN00570009
0053010490999991973080406504+69983+023383FM-15+0003ENAT V0203501N00301010501CN0112001N1+01001+00301999999ADDGA1061+010509059MA1101291999999EQDQ01+000000PRSWM2
0069010490999991973080408004+69983+023383FM-15+0003ENAT V0203101N00301009001CN0112001N1+01001+00401999999ADDGA1021+007509059GA2061+009009059MA1101291999999EQDQ01+000000PRSWM2
0057010490999991973080409004+69983+023383FM-12+0003ENAT V0203301N00211007501CN0500001N9+01001+00401101341ADDAY121999GF107991071051008001999999MD1210081+9999MW1021
0057010490999991973080412004+69983+023383FM-12+0003ENAT V0203201N00211007501CN0500001N9+01101+00401101301ADDAY121999GF107991071051008001999999MD1710041+9999MW1021
0057010490999991973080415004+69983+023383FM-12+0003ENAT V0203201N00311007501CN0500001N9+01201+00501101231ADDAY121999GF105991051051008001001001MD1710071+9999MW1011
0095010490999991973080418004+69983+023383FM-12+0003ENAT V0203201N00361220001CN0500001N9+01301+00601101111ADDAA199000091AY101999GF101991011021012501001001KA1999M+01301MD1710121+9999MW1021REMSYN00570013
0053010490999991973080419504+69983+023383FM-15+0003ENAT V0203101N00101220001CN0112001N1+01201+00701999999ADDGA1011+015009089MA1101081999999EQDQ01+000000PRSWM2
0053010490999991973080421504+69983+023383FM-15+0003ENAT V0209991C00001220001CN0112001N1+00901+00501999999ADDGA1011+015009089MA1101081999999EQDQ01+000000PRSWM2
0053010490999991973080422504+69983+023383FM-15+0003ENAT V0201501N00101220001CN0112001N1+00901+00501999999ADDGA1011+010509089MA1101081999999EQDQ01+000000PRSWM2
0114010490999991973080506004+69983+023383FM-12+0003ENAT V0201401N00311220001CN0600001N9+01301+00601100751ADDAA199000091AY101999GF103991021041999999041081KA1999N+00701MD1710181+9999MW1031REMSYN00570007EQDQ01+000992SCOLCB
0056010490999991973080520504+69983+023383FM-15+0003ENAT V0209991V00201021001CN0112001N1+01401+01001999999ADDGA1041+010509059GA2061+021009049MA1099901999999MW1601
0095010490999991973080606004+69983+023383FM-12+0003ENAT V0201201N00101030001CN0150001N9+01501+01101099421ADDAA199004091AY121999GF106991031021012501061011KA1999N+01401MD1710101+9999MW1021REMSYN00570414
0071010490999991973080612004+69983+023383FM-12+0003ENAT V0201701N00411030001CN0400001N9+01901+00901099341ADDAY121999GF106991031021012501041081MD1610481+9999MW1021REMSYN00591113
0043010490999991973080615004+69983+023383FM-12+0003ENAT V0201501N00311030001CN0400001N9+02101+01001099331ADDAY121999GF106991021021012501061999MW1021
0101010490999991973080618004+69983+023383FM-12+0003ENAT V0200601N00101075001CN0300001N9+01801+01001099421ADDAA199000091AY121999GF105991011021008001061011KA1999M+02001MD1310091+9999MW1031REMSYN01170020 91115
0057010490999991973080703004+69983+023383FM-12+0003ENAT V0209991C00001007501CN0250001N9+01201+00801099391ADDAY121999GF107991061051008001999999MD1710181+9999MW1031
0057010490999991973080709004+69983+023383FM-12+0003ENAT V0201501N00621007501CN0300001N9+01501+00901098671ADDAY121999GF107991051051008001071999MD1710371+9999MW1021
0071010490999991973080712004+69983+023383FM-12+0003ENAT V0201601N00621004201CN0100001N9+01501+01101098251ADDAY181999GF108991061051004501071999MD1710421+9999MW1801REMSYN00591127
0057010490999991973080715004+69983+023383FM-12+0003ENAT V0201601N00721030001CN0400001N9+02001+01001097891ADDAY181999GF105991031081008001071031MD1710361+9999MW1011
0107010490999991973080718004+69983+023383FM-12+0003ENAT V0201601N00721220001CN0300001N9+01701+00601097771ADDAA199001091AY181999GF103991031031008001041001KA1999M+02001MD1710121+9999MW1151REMSYN01770120 91138 914/5
0101010490999991973080806004+69983+023383FM-12+0003ENAT V0202501N00511030001CN0500001N9+01501+00601098581ADDAA199999929AY121999GF107991031051008001071999KA1999N+01301MD1210401+9999MW1021REMSYN01179713 91118
0057010490999991973080915004+69983+023383FM-12+0003ENAT V0202501N005119999999N0150001N9+01001+00601100721ADDAY181999GF107991999999999999999999MD1210281+9999MW1801
0057010490999991973081003004+69983+023383FM-12+0003ENAT V0209991C00001220001CN0400001N9+00701+00401101641ADDAY121999GF104991041081008001041001MD1210171+9999MW1011
0069010490999991973081003504+69983+023383FM-15+0003ENAT V0209991C00001220001CN0112001N1+00801+00501999999ADDGA1011+009009089GA2031+012009059MA1101691999999EQDQ01+000000PRSWM2
0095010490999991973081006004+69983+023383FM-12+0003ENAT V0201301N00151220001CN0750001N9+01001+00401101731ADDAA199001091AY181999GF102991021021008001041001KA1999N+00701MD1210111+9999MW1011REMSYN00570107
0057010490999991973081009004+69983+023383FM-12+0003ENAT V0201801N00511220001CN0600001N9+01301+00101101701ADDAY101999GF103991021021012501041001MD1710031+9999MW1021
0071010490999991973081012004+69983+023383FM-12+0003ENAT V0201801N00621075001CN0600001N9+01401+00301101611ADDAY121999GF105991021021012501061011MD1710091+9999MW1011REMSYN00591126
0069010490999991973081019504+69983+023383FM-15+0003ENAT V0201801N00511030001CN0112001N1+01601+00501999999ADDGA1021+015009089GA2051+030009039MA1101491999999EQDQ01+000000PRSWM2
0069010490999991973081020504+69983+023383FM-15+0003ENAT V0201601N00661030001CN0112001N1+01601+00401999999ADDGA1021+015009089GA2061+030009039MA1101591999999EQDQ01+000000PRSWM2
0069010490999991973081022504+69983+023383FM-15+0003ENAT V0201601N00411021001CN0112001N1+01401+00501999999ADDGA1031+012009059GA2071+021009049MA1101491999999EQDQ01+000000PRSWM2
0069010490999991973081100504+69983+023383FM-15+0003ENAT V0201601N00511024001CN0112001N1+01401+00601999999ADDGA1031+012009059GA2051+024009039MA1101491999999EQDQ01+000000PRSWM2
0072010490999991973081105504+69983+023383FM-15+0003ENAT V0201601N00411030001CN0112001N1+01401+00601999999ADDGA1011+010509089GA2031+015009059GA3051+030009039MA1101491999999MW1801
0056010490999991973081106504+69983+023383FM-15+0003ENAT V0201601N00511015001CN0112001N1+01401+00601999999ADDGA1011+010509089GA2051+015009059MA1101491999999MW1801
0072010490999991973081107504+69983+023383FM-15+0003ENAT V0201601N00361024001CN0112001N1+01501+00501999999ADDGA1011+012009089GA2031+015009059GA3061+024009039MA1101491999999MW1251
0072010490999991973081108504+69983+023383FM-15+0003ENAT V0201601N00511024001CN0112001N1+01501+00701999999ADDGA1011+010509089GA2031+015009059GA3061+024009039MA1101491999999MW1801
0072010490999991973081109504+69983+023383FM-15+0003ENAT V0201701N00511021001CN0112001N1+01601+00601999999ADDGA1011+012009089GA2031+015009059GA3061+021009039MA1101391999999MW1251
0057010490999991973081203004+69983+023383FM-12+0003ENAT V0209991C00001012001CN0250001N9+01201+00901101381ADDAY121999GF108991051051012501071999MD1210081+9999MW1021
0072010490999991973081203504+69983+023383FM-15+0003ENAT V0209991C00001012001CN0112001N1+01201+01001999999ADDGA1011+001809079GA2021+003609079GA3051+012009059MA1101391999999MW1411
0085010490999991973081204504+69983+023383FM-15+0003ENAT V0201701N00101010501CN0112001N1+01201+01001999999ADDGA1011+004509079GA2031+007509059GA3061+010509059MA1101391999999EQDQ01+000000PRSWM2
0069010490999991973081205504+69983+023383FM-15+0003ENAT V0203201N00151010501CN0112001N1+01201+00901999999ADDGA1011+004509079GA2061+010509059MA1101491999999EQDQ01+000000PRSWM2
0085010490999991973081207504+69983+023383FM-15+0003ENAT V0200801N00201030001CN0112001N1+01401+00801999999ADDGA1011+006009089GA2031+009009059GA3031+030009039MA1101491999999EQDQ01+000000PRSWM2
0069010490999991973081208504+69983+023383FM-15+0003ENAT V0200501N00151220001CN0112001N1+01501+00801999999ADDGA1011+007509089GA2031+009009059MA1101491999999EQDQ01+000000PRSWM2
0069010490999991973081212504+69983+023383FM-15+0003ENAT V0203401N00151220001CN0112001N1+01501+00701999999ADDGA1021+009009089GA2021+012009059MA1101491999999EQDQ01+000000PRSWM2
0069010490999991973081213504+69983+023383FM-15+0003ENAT V0203201N00151030001CN0112001N1+01401+00701999999ADDGA1021+009009089GA2041+030009039MA1101391999999EQDQ01+000000PRSWM2
0069010490999991973081215004+69983+023383FM-15+0003ENAT V0203201N00301030001CN0112001N1+01301+00801999999ADDGA1021+009009089GA2041+030009039MA1101391999999EQDQ01+000000PRSWM2
0057010490999991973081303004+69983+023383FM-12+0003ENAT V0202101N00211012001CN0400001N9+01101+00701101011ADDAY121999GF107991071081008001999999MD1310021+9999MW1151
0057010490999991973081309004+69983+023383FM-12+0003ENAT V0202901N00461015001CN0600001N9+01401+00901101311ADDAY121999GF105991051081012501001001MD1210141+9999MW1021
0057010490999991973081315004+69983+023383FM-12+0003ENAT V0202601N00511220001CN0600001N9+01301+00401101711ADDAY121999GF104991041081008001001001MD1210211+9999MW1011
0057010490999991973081609004+69983+023383FM-12+0003ENAT V0203201N00361075001CN0600001N9+01101+00201102031ADDAY121999GF107991021051012501001081MD1410001+9999MW1031
0071010490999991973081612004+69983+023383FM-12+0003ENAT V0200301N00211012001CN0750001N9+01201+00401102001ADDAY121999GF107991061051012501999999MD1810031+9999MW1021REMSYN00591115
0057010490999991973081615004+69983+023383FM-12+0003ENAT V0200301N00101030001CN0600001N9+01201+00201101951ADDAY121999GF107991031051012501071999MD1710051+9999MW1021
0101010490999991973081806004+69983+023383FM-12+0003ENAT V0201601N00311007501CN0200001N9+01101+00701100551ADDAA199000091AY121999GF108991071051008001999999KA1999N+00601MD1710161+9999MW1021REMSYN01170006 91107
0057010490999991973081809004+69983+023383FM-12+0003ENAT V0201201N00311007501CN0200001N9+01201+00801100371ADDAY121999GF108991081051008001999999MD1710181+9999MW1021
0107010490999991973081906004+69983+023383FM-12+0003ENAT V0203201N00771007501CN0150001N9+00901+00501099321ADDAA199034091AY161999GF108991081051008001999999KA1999N+00901MD1710171+9999MW1601REMSYN01773409 91125 914/6
0057010490999991973081909004+69983+023383FM-12+0003ENAT V0203001N00511007501CN0080001N9+00901+00501099381ADDAY161999GF108991061051008001021999MD1310061+9999MW1611
0057010490999991973081912004+69983+023383FM-12+0003ENAT V0201701N00101012001CN0500001N9+01101+00601099491ADDAY161999GF107991051081008001071999MD1210111+9999MW1021
0076010490999991973081915004+69983+023383FM-12+0003ENAT V0200601N00151220001CN0600001N9+01301+00501099491ADDAY101999GF103991999081012501001001MD1010001+9999MW1011EQDQ01+000022SCOTLC
0101010490999991973081918004+69983+023383FM-12+0003ENAT V0200701N00261220001CN0750001N9+01201+00601099361ADDAA199008091AY101999GF101991011051012501001011KA1999M+01201MD1710131+9999MW1021REMSYN01170812 91107
0095010490999991973082006004+69983+023383FM-12+0003ENAT V0201501N00211220001CN0750001N9+01101+00501099121ADDAA199000091AY101999GF103991021051012501041001KA1999N+00601MD1710071+9999MW1031REMSYN00570006
0057010490999991973082009004+69983+023383FM-12+0003ENAT V0203101N00511007501CN0600001N9+01101+00501099211ADDAY121999GF107991071051008001999999MD1710091+9999MW1021
0095010490999991973082018004+69983+023383FM-12+0003ENAT V0202501N00411030001CN0500001N9+00901+00201099801ADDAA199000091AY121999GF107991041081008001071999KA1999M+01201MD1210171+9999MW1141REMSYN00570012
0095010490999991973082218004+69983+023383FM-12+0003ENAT V0201801N00311030001CN0600001N9+01101+00201099981ADDAA199000091AY121999GF107991011021012501071999KA1999M+01101MD1710391+9999MW1021REMSYN00570011
0101010490999991973082506004+69983+023383FM-12+0003ENAT V0203401N00571012001CN0300001N9+00601+00001101531ADDAA199000391AY181999GF106991061081008001041999KA1999N+00501MD1210141+9999MW1151REMSYN01179305 91122
0095010490999991973082806004+69983+023383FM-12+0003ENAT V0201501N00261030001CN0500001N9+01001+00501101471ADDAA199000091AY121999GF107991071001999999031999KA1999N+00901MD1210051+9999MW1021REMSYN00570009
0043010490999991973082809004+69983+023383FM-12+0003ENAT V0200201N00101030001CN0600001N9+01301+00601101461ADDAY121999GF107991011021008001031999MW1021
0057010490999991973082812004+69983+023383FM-12+0003ENAT V0203101N00261030001CN0600001N9+01201+00701101471ADDAY121999GF107991011021008001071999MW1021REMSYN00591110
0057010490999991973090415004+69983+023383FM-12+0003ENAT V0200301N00211012001CN0400001N9+01101+00501100781ADDAY121999GF106991061051012501999999MD1210051+9999MW1151
0087010490999991973090418004+69983+023383FM-12+0003ENAT V0203601N00261030001CN0400001N9+01001+00501100791ADDAA199999929AY121999GF105991031051012501071999KA1999M+01101MW1021REMSYN01179711 91112
0069010490999991973091120504+69983+023383FM-15+0003ENAT V0202101N00201021001CN0112001N1+00201-00201999999ADDGA1041+007509059GA2031+021009039MA1100711999999EQDQ01+000000PRSWM2
0057010490999991973091615004+69983+023383FM-12+0003ENAT V0203301N00361030001CN0500001N9+00801+00001101981ADDAY121999GF106991021021008001071999MD1210081+9999MW1021
0057010490999991973091709004+69983+023383FM-12+0003ENAT V0202101N00261012001CN0400001N9+00901+00301101921ADDAY121999GF106991061051012501999999MD1710031+9999MW1011
0056010490999991973091901504+69983+023383FM-15+0003ENAT V0201801N00101007801CN0112001N1+00601+00301999999ADDGA1011+003009079GA2051+007809059MA1101291999999MW1521
0057010490999991973091903004+69983+023383FM-12+0003ENAT V0201601N00101012001CN0280001N9+00501+00301101291ADDAY121999GF108991061051012501999999MD1710261+9999MW1031
0057010490999991973092903004+69983+023383FM-12+0003ENAT V0201501N00511220001CN0500001N9+00101-00601100591ADDAY101999GF101991011041012501001001MD1710091+9999MW1031
0057010490999991973100209004+69983+023383FM-12+0003ENAT V0201501N00211012001CN0300001N9+00401+00101099931ADDAY161999GF107991051051012501071999MD1210221+9999MW1011
0071010490999991973100212004+69983+023383FM-12+0003ENAT V0200901N00101030001CN0500001N9+00601+00201100121ADDAY121999GF105991021081008001051999MD1210191+9999MW1011REMSYN00591112
0057010490999991973100215004+69983+023383FM-12+0003ENAT V0202701N00151030001CN0500001N9+00701+00201100331ADDAY121999GF105991041081008001041999MD1210211+9999MW1021
0095010490999991973100218004+69983+023383FM-12+0003ENAT V0202801N00311030001CN0500001N9+00601+00101100501ADDAA199000191AY121999GF105991041081008001041999KA1999M+00701MD1210171+9999MW1021REMSYN00579107
0037010490999991973100320504+69983+023383FM-15+0003ENAT V0202101N00301010501CN0112001N1+00601+00201999999ADDGA1051+010509059MW1601REMMET0037--
0057010490999991973100412004+69983+023383FM-12+0003ENAT V0203001N00101012001CN0400001N9+00801+00201100811ADDAY121999GF108991051051012501071999MD1210031+9999MW1021
0057010490999991973100415004+69983+023383FM-12+0003ENAT V0201801N00101030001CN0300001N9+00801+00101100651ADDAY121999GF108991031051008001071999MD1010161+9999MW1151
0057010490999991973100609004+69983+023383FM-12+0003ENAT V0203001N00511012001CN0150001N9+00101-00201102361ADDAY181999GF106991061081008001999999MD1210031+9999MW1831
0057010490999991973100612004+69983+023383FM-12+0003ENAT V0202801N00411012001CN0150001N9+00201-00101102391ADDAY181999GF105991051081008001999999MD1210031+9999MW1831
0076010490999991973100615004+69983+023383FM-12+0003ENAT V0202701N005119999999N0200001N9+00101-00201102421ADDAY181999GF106991999081008001001001MD1210031+9999MW1151EQDQ01+000042SCOTLC
0101010490999991973100618004+69983+023383FM-12+0003ENAT V0202701N006719999999N0200001N9+00201-00401102371ADDAA199003091AY181999GF107991041081008001999999KA1999M+00201MD1710051+9999MW1851REMSYN01170302 91120
0073010490999991973100618504+69983+023383FM-15+0003ENAT V0202901N00771220001CN0112001N1+00201-00301999999ADDGA1011+004509079GA2041+006009089MA1102401999999MW1251REMMET008DIST SH%
0095010490999991973100706004+69983+023383FM-12+0003ENAT V0202701N00101000601CN0010001N9+00001-00201102361ADDAA199005091AY181999GF109991091999999999999999KA1999N-00101MD1710051+9999MW1851REMSYN00570551
0057010490999991973100709004+69983+023383FM-12+0003ENAT V0201901N00051030001CN0200001N9+00001-00201102331ADDAY181999GF105991041081008001041999MD1710031+9999MW1151
0071010490999991973100712004+69983+023383FM-12+0003ENAT V0202001N00211220001CN0400001N9+00101-00401102201ADDAY121999GF103991021081008001041001MD1710131+9999MW1011REMSYN00591113
0057010490999991973100715004+69983+023383FM-12+0003ENAT V0201601N00101012001CN0120001N9+00001-00301102011ADDAY121999GF107991061081008001999999MD1710191+9999MW1151
0095010490999991973100718004+69983+023383FM-12+0003ENAT V0201301N00101015001CN0300001N9-00101-00401101811ADDAA199002091AY121999GF107991051081012501999999KA1999M+00201MD1710201+9999MW1151REMSYN00570202
0101010490999991973100806004+69983+023383FM-12+0003ENAT V0202801N00211001201CN0020001N9-00101-00301100991ADDAA199002091AY181999GF109991091999999999999999KA1999N-00301MD1710211+9999MW1851REMSYN01170253 91111
0057010490999991973100809004+69983+023383FM-12+0003ENAT V0202401N00261012001CN0070001N9-00101-00301100861ADDAY121999GF107991061081008001999999MD1710131+9999MW1851
0024010490999991973100810504+69983+023383FM-15+0003ENAT V0202801N003019999999N0035001N1-00101-00301999999ADDMA1100811999999MW1851
0057010490999991973100812004+69983+023383FM-12+0003ENAT V0203501N00621001201CN0015001N9-00201-00401100821ADDAY181999GF109991091999999999999999MD1710041+9999MW1861
0057010490999991973100815004+69983+023383FM-12+0003ENAT V0200501N00361007501CN0250001N9-00301-00501100781ADDAY121999GF106991061021008001999999MD1710041+9999MW1151
0095010490999991973100818004+69983+023383FM-12+0003ENAT V0201901N00101220001CN0300001N9-00701-00901100781ADDAA199003091AY121999GF103991031021008001001001KA1999M-00101MD1410001+9999MW1011REMSYN00570351
0071010490999991973100912004+69983+023383FM-12+0003ENAT V0201101N00151007501CN0300001N9+00101-00301100691ADDAY121999GF105991051021008001001001MD1210101+9999MW1151REMSYN00591120
0101010490999991973100918004+69983+023383FM-12+0003ENAT V0200901N00051220001CN0400001N9-00401-00601100761ADDAA199001091AY101999GF102991021021008001061001KA1999M+00101MD1210031+9999MW1151REMSYN01170101 91111
0057010490999991973101015004+69983+023383FM-12+0003ENAT V0203401N00311220001CN0300001N9-00101-00601100961ADDAY121999GF103991021021008001041001MD1210071+9999MW1151
0087010490999991973101018004+69983+023383FM-12+0003ENAT V0203301N006219999999N0090001N9+00001-00401100971ADDAA199000291AY181999GF107991031081008001999999KA1999M+00001MW1851REMSYN01179200 91120
0057010490999991973101109004+69983+023383FM-12+0003ENAT V0201301N00101030001CN0300001N9-00201-00401100791ADDAY121999GF107991011021008001071081MD1710081+9999MW1021
0071010490999991973101112004+69983+023383FM-12+0003ENAT V0209991C00001030001CN0400001N9-00201-00501100741ADDAY121999GF107991011021008001071081MD1710071+9999MW1021REMSYN00591105
0057010490999991973101115004+69983+023383FM-12+0003ENAT V0209991C00001075001CN0400001N9-00401-00601100661ADDAY121999GF105991011021008001071081MD1710081+9999MW1011
0095010490999991973101118004+69983+023383FM-12+0003ENAT V0201501N00101220001CN0400001N9-00801-01001100651ADDAA199999929AY121999GF104991011051008001051081KA1999M+00201MD1710011+9999MW1011REMSYN00579702
0057010490999991973101209004+69983+023383FM-12+0003ENAT V0201901N00101220001CN0750001N9-00801-00801100741ADDAY101999GF103991011061004501071001MD1210011+9999MW1031
0057010490999991973101212004+69983+023383FM-12+0003ENAT V0209991C00001220001CN0750001N9-00501-00901100711ADDAY101999GF104991011031008001041011MD1710031+9999MW1031
0057010490999991973101215004+69983+023383FM-12+0003ENAT V0201501N00101220001CN0500001N9-00701-01001100661ADDAY101999GF104991021061012501041001MD1710051+9999MW1021
0100010490999991973101218004+69983+023383FM-12+0003ENAT V0202001N00101220001CN0500001N9-00901-01101100651ADDAA199000091AY101999GF102991021061999999041001KA1999M-00601MW1021REMSYN00570056EQDQ01+000992SCOLCB
0043010490999991973101309004+69983+023383FM-12+0003ENAT V0209991C00001220001CN0750001N9-00701-01001100461ADDAY101999GF101991001001999999001081MW1021
0057010490999991973101312004+69983+023383FM-12+0003ENAT V0201401N00361220001CN0750001N9-00401-01001100411ADDAY101999GF101991001001999999001081MD1710051+9999MW1021
0057010490999991973101315004+69983+023383FM-12+0003ENAT V0201401N00361220001CN0750001N9-00501-01001100331ADDAY101999GF101991001001999999001081MD1710081+9999MW1021
0057010490999991973101409004+69983+023383FM-12+0003ENAT V0201201N00151220001CN0600001N9+00001-00401100001ADDAY121999GF104991041051012501001001MD1710081+9999MW1031
0057010490999991973101412004+69983+023383FM-12+0003ENAT V0201601N00151012001CN0600001N9+00001-00501099921ADDAY121999GF106991061051012501999999MD1710081+9999MW1031
0057010490999991973101415004+69983+023383FM-12+0003ENAT V0201901N00101012001CN0500001N9+00101-00401099811ADDAY121999GF107991061051012501999999MD1710111+9999MW1021
0101010490999991973101418004+69983+023383FM-12+0003ENAT V0201701N00151012001CN0300001N9+00101-00301099741ADDAA199000691AY171999GF108991061051012501999999KA1999M+00101MD1710071+9999MW1701REMSYN01179601 91108
0057010490999991973101512004+69983+023383FM-12+0003ENAT V0202101N00151220001CN0400001N9+00101-00401099591ADDAY121999GF104991021081008001041001MW1011REMSYN00591105
0043010490999991973101515004+69983+023383FM-12+0003ENAT V0201801N00211220001CN0400001N9-00201-00701099581ADDAY111999GF103991011051008001071011MW1021
0101010490999991973101518004+69983+023383FM-12+0003ENAT V0201801N00101220001CN0500001N9-00601-00801099651ADDAA199000191AY101999GF102991011051008001071011KA1999M+00101MD1310071+9999MW1021REMSYN01179101 91105
0057010490999991973101609004+69983+023383FM-12+0003ENAT V0209991C00001220001CN0750001N9-00701-00901099441ADDAY101999GF101991011051012501001011MD1710041+9999MW1021
0043010490999991973101812004+69983+023383FM-12+0003ENAT V0209991C00001220001CN0750001N9-00101-00601099611ADDAY121999GF104991011041012501061001MW1021
0057010490999991973101815004+69983+023383FM-12+0003ENAT V0201401N00101220001CN0750001N9-00301-00701099591ADDAY101999GF102991021001999999031001MD1710021+9999MW1021
0095010490999991973101818004+69983+023383FM-12+0003ENAT V0201901N00211220001CN0750001N9-00801-00801099561ADDAA199000091AY101999GF100991001001999999001001KA1999M-00101MD1710031+9999MW1021REMSYN00570051
0062010490999991973101912004+69983+023383FM-12+0003ENAT V0201001N00101220001CN0600001N9-00401-00801099611ADDAY101999GF102991999001999999031001MW1021EQDQ01+000012SCOTLC
0097010490999991973101918004+69983+023383FM-12+0003ENAT V0201501N00211220001CN0500001N9-00801-01001099601ADDAA199000091AY101999GF101991011001999999041001KA1999M-00401MD1210031+9999MW1021REMSYN00770054 9
0057010490999991973102203004+69983+023383FM-12+0003ENAT V0201801N00211220001CN0600001N9-01401-01501101861ADDAY101999GF100991001001999999001001MD1210051+9999MW1021
0057010490999991973102303004+69983+023383FM-12+0003ENAT V0202101N00101002401CN0050001N9-00101-00301101391ADDAY181999GF109991091999999999999999MD1710071+9999MW1851
0057010490999991973102312004+69983+023383FM-12+0003ENAT V0209991C00001030001CN0400001N9+00001-00101101471ADDAY181999GF106991041081004501041999MD1210041+9999MW1151
0095010490999991973102318004+69983+023383FM-12+0003ENAT V0201101N00101220001CN0500001N9-00601-00801101511ADDAA199002091AY101999GF101991011041012501001001KA1999M+00001MD1210021+9999MW1021REMSYN00570200
0057010490999991973102403004+69983+023383FM-12+0003ENAT V0201501N00411220001CN0500001N9-00301-01001101141ADDAY101999GF101991011051012501999999MD1710121+9999MW1021
0076010490999991973102409004+69983+023383FM-12+0003ENAT V0202201N002619999999N0500001N9-00601-01001100771ADDAY121999GF107991061041999999071999MD1710151+9999MW1021EQDQ01+000992SCOLCB
0076010490999991973102412004+69983+023383FM-12+0003ENAT V0201101N001019999999N0500001N9-00501-00901100661ADDAY121999GF107991061041999999071999MD1710111+9999MW1021EQDQ01+000992SCOLCB
0106010490999991973102418004+69983+023383FM-12+0003ENAT V0200701N00361015001CN0005001N9+99999+99999103562ADDAY151999GF108991051071017501001071MD1210542+9999MW1251REMSYN00591104EQDQ01+103563APOSLPQ02+000542APC3  
0057010490999991973102703004+69983+023383FM-12+0003ENAT V0201301N003119999999N0400001N9+00201-00201101821ADDAY121999GF106991041081008001999999MD1210031+9999MW1031
0069010490999991973102718504+69983+023383FM-15+0003ENAT V0202001N00101220001CN0112001N1+00601+00001999999ADDGA1021+012009059GA2031+024009039MA1100511999999EQDQ01+000000PRSWM2
0107010490999991973102818004+69983+023383FM-12+0003ENAT V0202701N00771007501CN0060001N9+00201-00101099391ADDAA199001091AY181999GF107991061021008001999999KA1999M+00801MD1210241+9999MW1831REMSYN01770108 91139 914/6
0101010490999991973110106004+69983+023383FM-12+0003ENAT V0202501N00571030001CN0400001N9+00801+00201100201ADDAA199000091AY121999GF105991031051012501071999KA1999N+00601MD1710111+9999MW1021REMSYN01170006 91125
0095010490999991973110206004+69983+023383FM-12+0003ENAT V0202701N00311030001CN0400001N9+00401-00101100971ADDAA199000191AY121999GF105991041081008001071999KA1999N+00301MD1210101+9999MW1021REMSYN00579103
0057010490999991973110812004+69983+023383FM-12+0003ENAT V0201301N00721075001CN0400001N9-01001-01401099211ADDAY121999GF106991021001999999041081MD1710281+9999MW1021
0057010490999991973111015004+69983+023383FM-12+0003ENAT V02099999999999999999N0300001N9+00101-00501098401ADDAY121999GF199999031081008001041999MD1210221+9999MW1011
0107010490999991973111018004+69983+023383FM-12+0003ENAT V0203001N01031220001CN0300001N9+00001-00701098431ADDAA199001091AY121999GF103991021021008001041001KA1999M+00101MD1210031+9999MW1011REMSYN01770101 91131 914/6
0057010490999991973111212004+69983+023383FM-12+0003ENAT V0201701N00101030001CN0080001N9-01201-01301099011ADDAY121999GF105991031081008001041001MD1710061+9999MW1161
0057010490999991973112812004+69983+023383FM-12+0003ENAT V0203501N00721002401CN0035001N9-00301-00601100861ADDAY121999GF109991091999999999999999MD1210021+9999MW1851
0057010490999991973112909004+69983+023383FM-12+0003ENAT V0200301N00261030001CN0200001N9-00201-00601100941ADDAY121999GF108991021021008001071999MD1210131+9999MW1151
0071010490999991973120512004+69983+023383FM-12+0003ENAT V0201201N00621220001CN0500001N9-01501-01801100601ADDAY101999GF101991011051008001001011MD1210041+9999MW1021REMSYN00591121
0056010490999991973121512504+69983+023383FM-15+0003ENAT V0201801N00411220001CN0112001N1+99999+99999999999ADDGA1011+003009079GA2031+006009089MW1261REMMET00611007%
0040010490999991973122013504+69983+023383FM-15+0003ENAT V0203401N00611220001CN0112001N1-00401-00801999999ADDGA1041+007509089MA1100811999999MW1851
0053010490999991973122016504+69983+023383FM-15+0003ENAT V0200101N00411220001CN0112001N1-00401-00801999999ADDGA1041+007509089MA1101021999999EQDQ01+000000PRSWM2
0057010490999991973122103004+69983+023383FM-12+0003ENAT V0209991C00001220001CN0300001N9-01201-01301101611ADDAY121999GF104991031081008001999999MD1210121+9999MW1011
0057010490999991973122612004+69983+023383FM-12+0003ENAT V0201401N00621030001CN0200001N9-00801-01201098541ADDAY121999GF105991021051012501071999MD1710351+9999MW1021
