0043010510999991973010212004+69583+023533FM-12+037499999V0202701N01231004201CN0200001N9-00101-00101999999ADDAY181999GF107991071091004501999999MW1851
0043010510999991973010312004+69583+023533FM-12+037499999V0203001N00661220001CN0250001N9-00801-00801999999ADDAY181999GF103991031091004501001001MW1851
0043010510999991973010406004+69583+023533FM-12+037499999V0201601N00461220001CN0550001N9-01301-01301999999ADDAY111999GF103991011011004501001051MW1031
0043010510999991973010412004+69583+023533FM-12+037499999V0201701N00661075001CN0550001N9-01101-01101999999ADDAY121999GF105991011011004501001051MW1031
0043010510999991973010612004+69583+023533FM-12+037499999V0200301N00251220001CN0550001N9-01001-01001999999ADDAY181999GF103991011091004501041001MW1011
0067010510999991973010718004+69583+023533FM-12+037499999V0201401N00251220001CN0300001N9-00801-00801999999ADDAA199999999AY181999GF102991021091004501001001KA1999M-00201MW1011
0043010510999991973010812004+69583+023533FM-12+037499999V0203501N00671004201CN0200001N9-00801-00801999999ADDAY181999GF107991051091004501041999MW1851
0043010510999991973011112004+69583+023533FM-12+037499999V0202901N00101030001CN0700001N9+00401+00401999999ADDAY121999GF105991031091004501041051MW1011
0043010510999991973011212004+69583+023533FM-12+037499999V0202601N00461004201CN0700001N9+00201+00201999999ADDAY121999GF106991061021004501001001MW1011
0081010510999991973011406004+69583+023533FM-12+037499999V0201001N002519999999N0550001N9-01001-01001999999ADDAA199000091AY111999GF105991051001022501001051KA1999N-01001MW1031REMSYN00570060
0043010510999991973011412004+69583+023533FM-12+037499999V0201401N00251220001CN0750001N9-01101-01101999999ADDAY121999GF103991031001022501001051MW1011
0043010510999991973011812004+69583+023533FM-12+037499999V0201801N00461030001CN0550001N9-00501-00501999999ADDAY121999GF106991041091004501041999MW1011
0043010510999991973011912004+69583+023533FM-12+037499999V0200501N00251220001CN0750001N9-00901-00901999999ADDAY181999GF101991011091004501001001MW1011
0043010510999991973012112004+69583+023533FM-12+037499999V0200901N00251220001CN0550001N9+99999+99999999999ADDAY101999GF102991011011004501041051MW1031
0067010510999991973012406004+69583+023533FM-12+037499999V0201401N00461004201CN0050001N9-00701-00701999999ADDAA199000291AY181999GF108991081091004501999999KA1999N-01501MW1851
0067010510999991973012418004+69583+023533FM-12+037499999V0202201N00671004201CN0030001N9-00301-00301999999ADDAA199001091AY181999GF108991081051004501999999KA1999M-00301MW1021
0043010510999991973012512004+69583+023533FM-12+037499999V0202401N00101004201CN0550001N9-00201-00201999999ADDAY181999GF107991071091004501999999MW1011
0043010510999991973012612004+69583+023533FM-12+037499999V0201101N00921004201CN0100001N9+99999+99999999999ADDAY131999GF108991081091004501999999MW1851
0086010510999991973012700004+69583+023533FM-12+037499999V0201201N00461004201CN0100001N9+99999+99999999999ADDAA106000291AY131999GF108991081091004501999999KA1999N-02001MW1361EQDQ01  00023PRCP99
0043010510999991973012812004+69583+023533FM-12+037499999V0201601N009219999999N0050001N9+99999+99999999999ADDAY181999GF108991061999004501021041MW1851
0043010510999991973012912004+69583+023533FM-12+037499999V0201701N00921220001CN0300001N9+99999+99999999999ADDAY131999GF101991011091004501001001MW1021
0043010510999991973020312004+69583+023533FM-12+037499999V0203501N00921220001CN0550001N9+99999+99999999999ADDAY131999GF103991011091004501041001MW1371
0043010510999991973020412004+69583+023533FM-12+037499999V0201401N00101004201CN0550001N9+99999+99999999999ADDAY121999GF107991071091004501999999MW1031
0067010510999991973020418004+69583+023533FM-12+037499999V0201201N00251004201CN0025001N9-00901-00901999999ADDAA199999929AY181999GF108991081091004501999999KA1999M-00701MW1851
0067010510999991973020718004+69583+023533FM-12+037499999V0200801N00101220001CN9999999N9+99999+99999999999ADDAA199000091AY141999GF103991031061001501999999KA1999M-02101MW1481
0043010510999991973020818004+69583+023533FM-12+037499999V0201501N00101220001CN0050001N9+99999+99999999999ADDAY121999GF103991021091004501001051MW1031
0043010510999991973021012004+69583+023533FM-12+037499999V0201501N00251075001CN0300001N9-02401-02501999999ADDAY141999GF105991031021004501001051MW1031
0067010510999991973021018004+69583+023533FM-12+037499999V0200801N00101220001CN0200001N9-02701-02801999999ADDAA199000091AY121999GF103991011021004501001051KA1999M-02301MW1011
0067010510999991973021218004+69583+023533FM-12+037499999V0201701N00461004201CN0030001N9-00601-00601999999ADDAA199001091AY131999GF108991081091004501999999KA1999M-00601MW1851
0067010510999991973021318004+69583+023533FM-12+037499999V0201801N00671004201CN0050001N9-00801-00901999999ADDAA199000091AY131999GF108991081091004501999999KA1999M-00401MW1361
0067010510999991973021506004+69583+023533FM-12+037499999V0203001N00461220001CN0550001N9-00401-00501999999ADDAA199000291AY181999GF103991021091004501001051KA1999N-00401MW1011
0067010510999991973021518004+69583+023533FM-12+037499999V0201001N00101004201CN0550001N9-01401-01401999999ADDAA199000091AY101999GF106991061021004501001001KA1999M-00401MW1031
0043010510999991973021612004+69583+023533FM-12+037499999V0201001N00101220001CN0700001N9+99999+99999999999ADDAY121999GF101991011021004501001001MW1011
0067010510999991973021706004+69583+023533FM-12+037499999V0201201N00101220001CN9999999N9-01901-01901999999ADDAA199000091AY141999GF103991031061004501999999KA1999N-02001MW1421
0043010510999991973021812004+69583+023533FM-12+037499999V0201801N00461220001CN0050001N9-01001-01001999999ADDAY141999GF103991031061004501999999MW1401
0067010510999991973021818004+69583+023533FM-12+037499999V0201801N00461004201CN0040001N9-00701-00701999999ADDAA199000091AY141999GF108991081061004501999999KA1999M-00701MW1401
0067010510999991973022018004+69583+023533FM-12+037499999V0201501N00251220001CN0550001N9-01101-01201999999ADDAA199000291AY121999GF101991011091004501001001KA1999M-00401MW1011
0043010510999991973022112004+69583+023533FM-12+037499999V0203201N00461004201CN0300001N9-00601-00701999999ADDAY181999GF105991051091004501999999MW1851
0043010510999991973022612004+69583+023533FM-12+037499999V0201401N00101220001CN0550001N9-01801-01901999999ADDAY111999GF101991011011004501001051MW1011
0067010510999991973022706004+69583+023533FM-12+037499999V0201201N00251220001CN0700001N9-02801-02901999999ADDAA199000091AY121999GF101991011011004501001001KA1999N-02901MW1011
0043010510999991973022812004+69583+023533FM-12+037499999V0201801N00251220001CN0550001N9-01901-01901999999ADDAY141999GF100991001001999999001001MW1101
0067010510999991973022818004+69583+023533FM-12+037499999V0201801N00461220001CN0200001N9-01901-01901999999ADDAA199000091AY141999GF101991011091999999001001KA1999M-01901MW1031
0043010510999991973030112004+69583+023533FM-12+037499999V0200501N00101220001CN0300001N9-01401-01401999999ADDAY141999GF101991011061004501999999MW1011
0067010510999991973030406004+69583+023533FM-12+037499999V0201801N00251004201CN0200001N9+99999+99999999999ADDAA199999929AY181999GF108991081091004501999999KA1999N-01101MW1021
0043010510999991973030412004+69583+023533FM-12+037499999V0201801N002519999999N0550001N9-01001-01101999999ADDAY121999GF105991031091004501999999MW1011
0043010510999991973030512004+69583+023533FM-12+037499999V0201701N002519999999N0550001N9-00701-00801999999ADDAY121999GF107991011061999999999999MW1031
0043010510999991973030612004+69583+023533FM-12+037499999V0209991C00001004201CN0100001N9-00701-00801999999ADDAY181999GF108991081061004501999999MW1851
0067010510999991973030718004+69583+023533FM-12+037499999V0201101N00101220001CN0550001N9-01501-01501999999ADDAA199000091AY111999GF102991021021004501001051KA1999M-01001MW1031
0043010510999991973030812004+69583+023533FM-12+037499999V0203001N00671220001CN0550001N9-01101-01201999999ADDAY181999GF103991031091004501001001MW1031
0086010510999991973030818004+69583+023533FM-12+037499999V0202601N00101220001CN0550001N9-00501-00801999999ADDAA199999929AY121999GF101991011041999999001001KA1999M+00001MW1011EQDQ01+000992SCOLCB
0067010510999991973031006004+69583+023533FM-12+037499999V0203001N00921220001CN0700001N9-00501-00701999999ADDAA199000091AY121999GF101991011091004501001001KA1999N-00601MW1011
0043010510999991973031212004+69583+023533FM-12+037499999V0202901N00921004201CN0300001N9-00401-00501999999ADDAY181999GF105991051091004501999999MW1011
0067010510999991973031506004+69583+023533FM-12+037499999V0201501N00301004201CN0550001N9-00801-00901999999ADDAA199999929AY181999GF107991071091004501999999KA1999N-01501MW1031
0067010510999991973031806004+69583+023533FM-12+037499999V0201401N00251004201CN0550001N9-01801-01801999999ADDAA199000091AY141999GF107991071091004501999999KA1999N-02501MW1031
0043010510999991973032412004+69583+023533FM-12+037499999V0209999999999007501CN0550001N9+00301+00201999999ADDAY111999GF107991071091008001999999MW1031
0067010510999991973032718004+69583+023533FM-12+037499999V0201501N00251220001CN0700001N9-00301-00501999999ADDAA199000091AY111999GF103991011041008001041051KA1999M-00301MW1011
0067010510999991973032818004+69583+023533FM-12+037499999V0201801N00461220001CN0550001N9-00301-00401999999ADDAA199000091AY121999GF103991021021004501001051KA1999M-00101MW1031
0067010510999991973040418004+69583+023533FM-12+037499999V0203501N00101004201CN0150001N9-00201-00201999999ADDAA199000291AY181999GF108991081091004501999999KA1999M+00101MW1851
0067010510999991973040606004+69583+023533FM-12+037499999V0201201N00251004201CN0200001N9-00501-00501999999ADDAA199999929AY181999GF108991081091004501999999KA1999N-02001MW1851
0043010510999991973040612004+69583+023533FM-12+037499999V0200901N00461004201CN0250001N9-00401-00401999999ADDAY181999GF108991081091004501999999MW1851
0067010510999991973040706004+69583+023533FM-12+037499999V0203401N00251004201CN0300001N9-00401-00401999999ADDAA199000591AY181999GF106991061091004501999999KA1999N-00501MW1011
0067010510999991973040806004+69583+023533FM-12+037499999V0200701N00251004201CN0550001N9-00501-00501999999ADDAA199000091AY121999GF107991071021004501999999KA1999N-00801MW1021
0043010510999991973040812004+69583+023533FM-12+037499999V0200701N00101220001CN0700001N9-00201-00401999999ADDAY121999GF102991011021004501001051MW1011
0067010510999991973040818004+69583+023533FM-12+037499999V0202801N00101220001CN0550001N9-00601-00701999999ADDAA199000091AY121999GF103991011021004501001051KA1999M+00001MW1031
0067010510999991973041006004+69583+023533FM-12+037499999V0203401N00101004201CN0250001N9-00501-00501999999ADDAA199001091AY181999GF108991081091004501999999KA1999N-00601MW1021
0043010510999991973041012004+69583+023533FM-12+037499999V0202701N00101004201CN0550001N9-00301-00501999999ADDAY111999GF107991071021004501999999MW1011
0067010510999991973041706004+69583+023533FM-12+037499999V0201901N00251004201CN0100001N9-00201-00201999999ADDAA199999929AY181999GF108991081091004501999999KA1999N-01201MW1851
0067010510999991973041806004+69583+023533FM-12+037499999V0203601N00251004201CN0200001N9-00201-00301999999ADDAA199000291AY181999GF107991071091004501999999KA1999N-01101MW1851
0043010510999991973041812004+69583+023533FM-12+037499999V0202901N00251220001CN0700001N9-00201-00701999999ADDAY181999GF102991021091004501001001MW1011
0043010510999991973041912004+69583+023533FM-12+037499999V0200601N00251220001CN0700001N9-00401-00701999999ADDAY121999GF101991011021004501001001MW1011
0043010510999991973042012004+69583+023533FM-12+037499999V0201001N00461004201CN0550001N9-00301-00601999999ADDAY181999GF107991071091004501999999MW1011
0043010510999991973042112004+69583+023533FM-12+037499999V0202201N00251220001CN0700001N9-00301-00701999999ADDAY141999GF100991001001999999001001MW1011
0067010510999991973042318004+69583+023533FM-12+037499999V0209991C00001004201CN0550001N9-00301-00401999999ADDAA199000091AY121999GF107991071021004501999999KA1999M+00301MW1031
0067010510999991973042706004+69583+023533FM-12+037499999V0203601N00251004201CN0100001N9-00201-00201999999ADDAA199000591AY181999GF108991081091004501999999KA1999N-00201MW1851
0067010510999991973042718004+69583+023533FM-12+037499999V0201501N00671004201CN0550001N9-00101-00201999999ADDAA199003091AY181999GF107991071091004501999999KA1999M+00101MW1011
0043010510999991973042812004+69583+023533FM-12+037499999V0201501N00671004201CN0100001N9-00401-00501999999ADDAY181999GF107991071091004501999999MW1851
0043010510999991973042912004+69583+023533FM-12+037499999V0201701N00251220001CN0700001N9+00001-00601999999ADDAY111999GF102991011091004501001051MW1031
0086010510999991973042918004+69583+023533FM-12+037499999V0200801N00251004201CN0300001N9-00201-00401999999ADDAA199999999AY121999GF108991081091004501999999KA1999M+00001MW1851EQDQ01  00002PRCP99
0067010510999991973043006004+69583+023533FM-12+037499999V0201001N00671004201CN0300001N9-00301-00301999999ADDAA199000591AY181999GF106991051091004501999999KA1999N-00501MW1361
0043010510999991973043012004+69583+023533FM-12+037499999V0200901N00921004201CN0050001N9-00201-00201999999ADDAY181999GF108991081091004501999999MW1361
0043010510999991973050112004+69583+023533FM-12+037499999V0202001N00251220001CN0550001N9+00001-00101999999ADDAY181999GF103991011091004501001051MW1011
0043010510999991973050118004+69583+023533FM-12+037499999V0201401N00251220001CN0700001N9-00201+99999999999ADDAY121999GF103991011091004501011051MW1021
0067010510999991973050206004+69583+023533FM-12+037499999V0201201N00671002101CN9999999N9+00001+00001999999ADDAA199003091AY181999GF108991081091002501999999KA1999N-00501MW1861
0067010510999991973050318004+69583+023533FM-12+037499999V0203101N00251004201CN0550001N9+00101+00001999999ADDAA199000091AY121999GF108991081091004501999999KA1999M+00201MW1031
0043010510999991973050612004+69583+023533FM-12+037499999V0200801N00251220001CN0700001N9+00101+00001999999ADDAY121999GF101991011021004501001001MW1011
0053010510999991973050618004+69583+023533FM-12+037499999V0200701N00251220001CN0700001N9+99999+99999999999ADDAA199000091GF101991011021004501001001KA1999M+00201
0067010510999991973050706004+69583+023533FM-12+037499999V0200401N00251220001CN0700001N9-00101-00501999999ADDAA199000091AY121999GF101991011021004501001001KA1999N-00301MW1021
0043010510999991973050712004+69583+023533FM-12+037499999V0200401N00251220001CN0700001N9+00001-00301999999ADDAY121999GF101991011021004501001001MW1021
0043010510999991973050912004+69583+023533FM-12+037499999V0201901N00251004201CN0550001N9+00201+00201999999ADDAY101999GF107991071091004501999999MW1021
0067010510999991973050918004+69583+023533FM-12+037499999V0201401N00251004201CN0550001N9+00201+00201999999ADDAA199999929AY151999GF108991081091004501999999KA1999M+00201MW1031
0067010510999991973051106004+69583+023533FM-12+037499999V0201701N00251002101CN0050001N9+00201+00201999999ADDAA199000091AY121999GF108991081061002501999999KA1999N+00101MW1101
0043010510999991973051112004+69583+023533FM-12+037499999V0201501N00251004201CN0100001N9+00301+00301999999ADDAY121999GF108991081061004501999999MW1101
0067010510999991973051206004+69583+023533FM-12+037499999V0201601N00671004201CN0300001N9+00101+00101999999ADDAA199000091AY121999GF107991071061004501999999KA1999N+00101MW1021
0043010510999991973051212004+69583+023533FM-12+037499999V0201601N00461004201CN0550001N9+00201+00101999999ADDAY121999GF108991081061004501999999MW1031
0067010510999991973051306004+69583+023533FM-12+037499999V0201701N00251220001CN0700001N9+00301+00001999999ADDAA199000091AY121999GF100991001001999999001001KA1999N-00401MW1011
0043010510999991973051312004+69583+023533FM-12+037499999V0201601N00251220001CN0700001N9+00401-00101999999ADDAY101999GF101991011021004501001051MW1031
0067010510999991973051318004+69583+023533FM-12+037499999V0201401N00251220001CN0700001N9+00301+00101999999ADDAA199000091AY121999GF101991011021004501001051KA1999M+00501MW1021
0067010510999991973051406004+69583+023533FM-12+037499999V0201201N00461004201CN0100001N9+00101+00101999999ADDAA199000591AY181999GF108991081091004501999999KA1999N+00101MW1831
0043010510999991973051512004+69583+023533FM-12+037499999V0203501N00461004201CN0100001N9+00101+00101999999ADDAY181999GF108991081091004501999999MW1841
0067010510999991973051606004+69583+023533FM-12+037499999V0203001N00461004201CN0550001N9-00101-00601999999ADDAA199999929AY181999GF105991051021004501001001KA1999N-00301MW1011
0043010510999991973051812004+69583+023533FM-12+037499999V0201701N00251220001CN0700001N9+00401-00101999999ADDAY101999GF100991001001999999001001MW1041
0067010510999991973051818004+69583+023533FM-12+037499999V0209991C00001220001CN0700001N9+00401+00101999999ADDAA199000091AY101999GF100991001001999999001001KA1999M+00501MW1021
0067010510999991973052106004+69583+023533FM-12+037499999V0202801N00251004201CN0550001N9+00401+00301999999ADDAA199000091AY141999GF108991081091004501999999KA1999N+00101MW1011
0067010510999991973052218004+69583+023533FM-12+037499999V0201701N00101220001CN0700001N9+00301+00101999999ADDAA199000091AY121999GF102991021021004501001001KA1999M+00801MW1031
0067010510999991973052418004+69583+023533FM-12+037499999V0203201N00251220001CN0700001N9+00201-00401999999ADDAA199000291AY121999GF103991011091004501001051KA1999M+00301MW1021
0081010510999991973052506004+69583+023533FM-12+037499999V0203001N00671220001CN0700001N9+00101-00201999999ADDAA199000091AY111999GF101991011011004501001001KA1999N-00201MD1110111+9999MW1011
0067010510999991973052606004+69583+023533FM-12+037499999V0203301N00461220001CN0550001N9+00001-00201999999ADDAA199001091AY181999GF104991031091004501001051KA1999N-00201MW1011
0043010510999991973052612004+69583+023533FM-12+037499999V0202501N00461220001CN0700001N9+00401+00401999999ADDAY111999GF103991011001012501041051MW1011
0067010510999991973052706004+69583+023533FM-12+037499999V0202901N00251004201CN0550001N9+00401+00201999999ADDAA199000091AY111999GF107991071021004501999999KA1999N+00101MW1031
0043010510999991973052712004+69583+023533FM-12+037499999V0201701N00461004201CN0550001N9+00501+00201999999ADDAY121999GF106991061021004501999999MW1011
0067010510999991973052718004+69583+023533FM-12+037499999V0202801N00461004201CN9999999N9+00201+00101999999ADDAA199000091AY111999GF106991051091004501041999KA1999M+00501MW1031
0056010510999991973053018004+69583+023533FM-12+037499999V0200901N00251004201CN0550001N9+00501+00301999999ADDAY121999GF108991081051004501999999KA1999M+00901MW1031
0043010510999991973060212004+69583+023533FM-12+037499999V0203001N00461004201CN0550001N9+00501+00401999999ADDAY181999GF107991071091004501999999MW1011
0081010510999991973060506004+69583+023533FM-12+037499999V0202301N00101004201CN0550001N9+00801+00301999999ADDAA199000091AY121999GF107991071091004501999999KA1999N+00201MW1031REMSYN00570002
0043010510999991973060512004+69583+023533FM-12+037499999V0202701N00461220001CN0750001N9+01001+00201999999ADDAY121999GF104991011091004501001041MW1011
0081010510999991973060518004+69583+023533FM-12+037499999V0202601N00461004201CN0550001N9+00601+00201999999ADDAA199000091AY121999GF107991071091004501999999KA1999M+01001MW1031REMSYN00570010
0081010510999991973060606004+69583+023533FM-12+037499999V0202101N00261004201CN0550001N9+00501+00501999999ADDAA199000291AY181999GF108991081091004501999999KA1999N+00401MW1801REMSYN00579204
0057010510999991973060806004+69583+023533FM-12+037499999V0202501N00261004201CN0550001N9+00501+00201999999ADDAY111999GF108991081051004501999999MW1031REMSYN005700?4
0029010510999991973060812004+69583+023533FM-12+037499999V0202201N00261220001CN9999999N9+99999+99999999999ADDGF105991031011004501001081
0081010510999991973061006004+69583+023533FM-12+037499999V0200901N00261004201CN0550001N9+00901+00401999999ADDAA199000091AY121999GF108991081091004501999999KA1999N+00401MW1031REMSYN00570004
0081010510999991973061106004+69583+023533FM-12+037499999V0201001N00261002101CN0100001N9+00701+00701999999ADDAA199005091AY181999GF108991081061002501999999KA1999N+00601MW1451REMSYN00570506
0081010510999991973061118004+69583+023533FM-12+037499999V0203001N00101220001CN0750001N9+01301+00301999999ADDAA199001091AY181999GF103991021021004501001051KA1999M+01301MW1011REMSYN00570113
0081010510999991973061206004+69583+023533FM-12+037499999V0203301N00261004201CN0550001N9+00701+00501999999ADDAA199000091AY121999GF108991081051004501999999KA1999N+00201MW1031REMSYN00570002
0056010510999991973061318004+69583+023533FM-12+037499999V0203001N00261220001CN0750001N9+00701+99999999999ADDAY121999GF101991999999999999999999MW1011REMSYN004QUUI
0043010510999991973061412004+69583+023533FM-12+037499999V0200401N00101004201CN0550001N9+00201+00201999999ADDAY181999GF108991081091004501999999MW1021
0081010510999991973061418004+69583+023533FM-12+037499999V0203601N00261004201CN0550001N9+00401+00401999999ADDAA199006091AY181999GF107991071091004501999999KA1999M+00401MW1011REMSYN00570604
0043010510999991973061812004+69583+023533FM-12+037499999V0200701N00261220001CN0750001N9+01101+00201999999ADDAY101999GF101991011011004501001001MW1031
0081010510999991973061918004+69583+023533FM-12+037499999V0200501N00261004201CN0550001N9+01601+00901999999ADDAA199000291AY181999GF107991071091004501999999KA1999M+01901MW1011REMSYN00579219
0081010510999991973062006004+69583+023533FM-12+037499999V0201201N00101220001CN0550001N9+01701+01101999999ADDAA199000091AY121999GF103991011011004501001051KA1999N+01001MW1011REMSYN00570010
0043010510999991973062012004+69583+023533FM-12+037499999V0200301N00261030001CN0550001N9+01801+01001999999ADDAY121999GF105991031091004501041051MW1031
0081010510999991973062018004+69583+023533FM-12+037499999V0200301N00261220001CN0750001N9+01501+01001999999ADDAA199000091AY121999GF101991011011004501001051KA1999M+01801MW1011REMSYN00570018
0081010510999991973062106004+69583+023533FM-12+037499999V0202201N00261220001CN0750001N9+01701+01001999999ADDAA199000091AY111999GF101991011001022501001081KA1999N+00701MW1031REMSYN00570007
0043010510999991973062112004+69583+023533FM-12+037499999V0203201N00261220001CN0750001N9+02101+00801999999ADDAY111999GF103991011011004501001041MW1031
0081010510999991973062118004+69583+023533FM-12+037499999V0203201N00261004201CN0550001N9+01301+01301999999ADDAA199000491AY181999GF108991081091004501999999KA1999M+02101MW1801REMSYN00579421
0081010510999991973062206004+69583+023533FM-12+037499999V0201701N00101220001CN0550001N9+01701+01401999999ADDAA199001091AY181999GF103991021091004501001041KA1999N+00901MW1011REMSYN00570109
0043010510999991973062312004+69583+023533FM-12+037499999V0201901N00261075001CN0550001N9+02001+00901999999ADDAY111999GF106991021021004501001051MW1031
0081010510999991973062318004+69583+023533FM-12+037499999V0202801N00261030001CN0550001N9+01801+99999999999ADDAA199000091AY111999GF106991031081004501041051KA1999M+02201MW1031REMSYN00570022
0081010510999991973062406004+69583+023533FM-12+037499999V0203201N00101004201CN0550001N9+01401+01001999999ADDAA199000091AY111999GF108991051091004501041999KA1999N+01001MW1031REMSYN00570010
0043010510999991973062412004+69583+023533FM-12+037499999V0200401N00261030001CN0550001N9+01401+01101999999ADDAY121999GF106991031091004501041051MW1011
0081010510999991973062418004+69583+023533FM-12+037499999V0200201N00261220001CN0750001N9+01401+00801999999ADDAA199000091AY111999GF103991031021004501001001KA1999M+01701MW1011REMSYN00570017
0043010510999991973062512004+69583+023533FM-12+037499999V0200201N00261004201CN0550001N9+01201+00801999999ADDAY121999GF107991071021004501999999MW1021
0081010510999991973062606004+69583+023533FM-12+037499999V0203201N00261220001CN0750001N9+01301+00701999999ADDAA199000091AY121999GF103991031021004501001001KA1999N+00901MW1021REMSYN00570009
0043010510999991973062612004+69583+023533FM-12+037499999V0200201N00261220001CN0750001N9+99999+99999999999ADDAY121999GF103991999999999999999999MW1021
0043010510999991973062812004+69583+023533FM-12+037499999V0201101N00101004201CN0200001N9+01201+01201999999ADDAY181999GF108991081061004501999999MW1801
0043010510999991973062912004+69583+023533FM-12+037499999V0200301N00261004201CN0550001N9+01201+00801999999ADDAY111999GF108991081051004501999999MW1031
0081010510999991973062918004+69583+023533FM-12+037499999V0201201N00261220001CN0750001N9+01201+00601999999ADDAA199300092AY121999GF101991011011004501001051KA1999M+01301MW1011REMSYN00578013
0081010510999991973063018004+69583+023533FM-12+037499999V0203401N00101004201CN0550001N9+00801+00801999999ADDAA199002091AY181999GF108991081091004501999999KA1999M+01901MW1801REMSYN00570219
0081010510999991973070206004+69583+023533FM-12+037499999V0201901N00261220001CN0750001N9+02101+01301999999ADDAA199000091AY121999GF102991011011004501001051KA1999N+01301MW1011REMSYN00570013
0043010510999991973070212004+69583+023533FM-12+037499999V0202001N00461220001CN0750001N9+02301+01501999999ADDAY121999GF103991021011004501001051MW1031
0081010510999991973070318004+69583+023533FM-12+037499999V0203501N00101004201CN0550001N9+01501+01401999999ADDAA199000091AY121999GF108991061041004501021999KA1999M+01901MW1031REMSYN00570019
0081010510999991973070406004+69583+023533FM-12+037499999V0203401N00261004201CN0250001N9+01001+01001999999ADDAA199005091AY181999GF108991081091004501999999KA1999N+01001MW1801REMSYN00570510
0043010510999991973070412004+69583+023533FM-12+037499999V0202801N00261004201CN0300001N9+00901+00901999999ADDAY181999GF108991081091004501999999MW1801
0081010510999991973070418004+69583+023533FM-12+037499999V0203401N00101004201CN0250001N9+00801+00801999999ADDAA199003091AY161999GF108991061071004501021999KA1999M+01001MW1621REMSYN00570310
0081010510999991973070506004+69583+023533FM-12+037499999V0201501N00101004201CN0550001N9+00901+00901999999ADDAA199001091AY161999GF108991051071004501021999KA1999N+00701MW1021REMSYN00570107
0043010510999991973070512004+69583+023533FM-12+037499999V0203001N00261004201CN0550001N9+01301+00801999999ADDAY151999GF107991051071004501021999MW1011
0081010510999991973070518004+69583+023533FM-12+037499999V0200101N00101030001CN0550001N9+01301+01001999999ADDAA199000291AY151999GF106991031071004501021999KA1999M+01601MW1511REMSYN00579216
0043010510999991973070712004+69583+023533FM-12+037499999V0201601N00461220001CN0550001N9+02401+01501999999ADDAY101999GF101991011011004501001001MW1031
0081010510999991973070718004+69583+023533FM-12+037499999V0201601N00261220001CN0550001N9+02401+01601999999ADDAA199000091AY121999GF100991001001999999001001KA1999M+02501MW1051REMSYN00570025
0043010510999991973070812004+69583+023533FM-12+037499999V0202001N00671220001CN0750001N9+02701+01401999999ADDAY101999GF100991001001999999001001MW1021
0081010510999991973070818004+69583+023533FM-12+037499999V0202001N00461220001CN0550001N9+02401+01501999999ADDAA199000091AY141999GF100991001001999999001001KA1999M+02701MW1051REMSYN00570027
0043010510999991973070912004+69583+023533FM-12+037499999V0202301N00671220001CN0550001N9+02401+01601999999ADDAY121999GF103991031021004501001051MW1031
0081010510999991973071018004+69583+023533FM-12+037499999V0202001N00261220001CN0550001N9+02201+00901999999ADDAA199000091AY121999GF101991011011004501001051KA1999M+02401MW1031REMSYN00570024
0081010510999991973071106004+69583+023533FM-12+037499999V0201501N00261220001CN0750001N9+01801+01101999999ADDAA199000091AY121999GF101991011001022501001051KA1999N+01201MW1011REMSYN00570012
0043010510999991973071112004+69583+023533FM-12+037499999V0202201N00261220001CN0550001N9+02401+01101999999ADDAY121999GF104991041021004501001051MW1031
0068010510999991973071606004+69583+023533FM-12+037499999V0201401N00261004201CN0550001N9+99999+99999999999ADDAA199000091AY111999GF107991071021004501999999MW1031REMSYN00570010
0081010510999991973071618004+69583+023533FM-12+037499999V0203501N00261004201CN0300001N9+01701+01701999999ADDAA199004091AY181999GF107991051091004501041999KA1999M+02101MW1801REMSYN00570421
0081010510999991973071806004+69583+023533FM-12+037499999V0201401N00261220001CN0550001N9+01801+01501999999ADDAA199000291AY181999GF104991011091004501041999KA1999N+01201MW1011REMSYN00579212
0081010510999991973072006004+69583+023533FM-12+037499999V0201701N00261220001CN0750001N9+02001+02001999999ADDAA199000091AY121999GF100991001001999999001001KA1999N+01001MW1011REMSYN00570010
0043010510999991973072012004+69583+023533FM-12+037499999V0201401N00261220001CN0750001N9+02401+02401999999ADDAY101999GF101991011011004501001001MW1031
0081010510999991973072018004+69583+023533FM-12+037499999V0201101N00101220001CN0750001N9+02201+01001999999ADDAA199000091AY121999GF101991011011004501001051KA1999M+02401MW1031REMSYN00570024
0043010510999991973072212004+69583+023533FM-12+037499999V0201801N00261220001CN0750001N9+02301+01001999999ADDAY121999GF103991031001022501001041MW1031
0081010510999991973072218004+69583+023533FM-12+037499999V0201201N00101220001CN0550001N9+02201+01001999999ADDAA199000091AY121999GF100991001001999999001001KA1999M+02301MW1051REMSYN00570023
0081010510999991973072306004+69583+023533FM-12+037499999V0201801N00101220001CN0550001N9+01901+01301999999ADDAA199000091AY141999GF100991001001999999001001KA1999N+00901MW1051REMSYN00570009
0043010510999991973072412004+69583+023533FM-12+037499999V0203401N00261004201CN0550001N9+02001+01301999999ADDAY121999GF107991051031004501041999MW1031
0081010510999991973072418004+69583+023533FM-12+037499999V0209991C00001030001CN0550001N9+01901+01301999999ADDAA199999929AY151999GF105991021031004501041051KA1999M+02301MW1011REMSYN00579723
0081010510999991973072518004+69583+023533FM-12+037499999V0203501N00101004201CN0300001N9+01301+01301999999ADDAA199000191AY181999GF108991081091004501999999KA1999M+01901MW1101REMSYN00579119
0043010510999991973072712004+69583+023533FM-12+037499999V0200201N00261220001CN0750001N9+01201+00801999999ADDAY111999GF103991031021004501001001MW1011
0043010510999991973072812004+69583+023533FM-12+037499999V0203601N00101220001CN0750001N9+99999+99999999999ADDAY121999GF102991011021004501001051MW1021
0081010510999991973073006004+69583+023533FM-12+037499999V0202401N00101004201CN0550001N9+01201+00801999999ADDAA199000091AY121999GF107991071021004501999999KA1999N+00601MW1031REMSYN00570006
0043010510999991973073012004+69583+023533FM-12+037499999V0209991C00001004201CN0550001N9+01401+00901999999ADDAY121999GF107991071021004501999999MW1021
0043010510999991973073112004+69583+023533FM-12+037499999V0201901N00461030001CN0550001N9+01701+01001999999ADDAY181999GF107991041091004501041011MW1021
0081010510999991973080218004+69583+023533FM-12+037499999V0203501N00261004201CN0550001N9+00801+00701999999ADDAA199001091AY181999GF107991051091004501041999KA1999M+01201MW1501REMSYN00570112
0081010510999991973080318004+69583+023533FM-12+037499999V0200201N00101004201CN0550001N9+00801+00701999999ADDAA199000091AY121999GF107991071021004501999999KA1999M+01201MW1021REMSYN00570012
0043010510999991973080412004+69583+023533FM-12+037499999V0200401N00261004201CN0550001N9+01101+00801999999ADDAY121999GF107991071051004501999999MW1011
0081010510999991973080418004+69583+023533FM-12+037499999V0201001N00461220001CN0750001N9+01101+00901999999ADDAA199000091AY121999GF101991011021004501001001KA1999M+01201MW1011REMSYN00570012
0043010510999991973080512004+69583+023533FM-12+037499999V0201401N00461004201CN0550001N9+01001+00801999999ADDAY181999GF108991081091004501999999MW1801
0081010510999991973080606004+69583+023533FM-12+037499999V0201501N00261075001CN0550001N9+01301+01101999999ADDAA199001091AY181999GF105991041021004501001051KA1999N+01101MW1011REMSYN00570111
0043010510999991973080612004+69583+023533FM-12+037499999V0201401N00261004201CN0550001N9+01401+01301999999ADDAY181999GF108991051091004501041011MW1031
0081010510999991973080618004+69583+023533FM-12+037499999V0203601N00261004201CN0550001N9+01001+01001999999ADDAA199003091AY181999GF108991081091004501999999KA1999M+01201MW1801REMSYN00570312
0043010510999991973080712004+69583+023533FM-12+037499999V0201401N00261004201CN0550001N9+01301+01301999999ADDAY181999GF108991081091004501999999MW1501
0081010510999991973080806004+69583+023533FM-12+037499999V0202401N00671004201CN0550001N9+01101+00701999999ADDAA199000091AY121999GF108991081051004501999999KA1999N+00801MW1031REMSYN00570008
0029010510999991973080918004+69583+023533FM-12+037499999V0203401N00101220001CN9999999N9+00701+99999999999ADDGF104991031091008001081091
0081010510999991973081006004+69583+023533FM-12+037499999V0201501N00261220001CN0750001N9+00801+00701999999ADDAA199001091AY181999GF104991041021004501001001KA1999N+00401MW1011REMSYN00570104
0043010510999991973081012004+69583+023533FM-12+037499999V0202201N00461220001CN0750001N9+01301+00701999999ADDAY121999GF102991011021004501001031MW1011
0043010510999991973081812004+69583+023533FM-12+037499999V0201401N00261001201CN0040001N9+01001+01001999999ADDAY141999GF108991081061001501999999MW1431
0043010510999991973081912004+69583+023533FM-12+037499999V0202801N00261004201CN0550001N9+00801+00601999999ADDAY181999GF107991071091004501999999MW1011
0081010510999991973081918004+69583+023533FM-12+037499999V0201801N00261030001CN0550001N9+01001+00701999999ADDAA199005091AY121999GF105991041091004501041001KA1999M+01201MW1011REMSYN00570512
0081010510999991973082006004+69583+023533FM-12+037499999V0201901N00261004201CN0550001N9+00901+00601999999ADDAA199000091AY111999GF106991061021004501001001KA1999N+00301MW1031REMSYN00570003
0081010510999991973082018004+69583+023533FM-12+037499999V0202801N00261030001CN0550001N9+00701+00401999999ADDAA199000091AY111999GF105991021091004501041051KA1999M+01101MW1011REMSYN00570011
0081010510999991973082106004+69583+023533FM-12+037499999V0203001N00261004201CN0550001N9+00501+00301999999ADDAA199000091AY121999GF107991071061004501999999KA1999N+00201MW1031REMSYN00570002
0081010510999991973082218004+69583+023533FM-12+037499999V0202301N00261220001CN0750001N9+00601+00101999999ADDAA199000191AY151999GF103991011091004501041051KA1999M+00901MW1011REMSYN00579109
0081010510999991973082506004+69583+023533FM-12+037499999V0203401N00461004201CN0550001N9+00301+00301999999ADDAA199002091AY181999GF105991051021004501001001KA1999N+00201MW1011REMSYN00570202
0081010510999991973082806004+69583+023533FM-12+037499999V0201401N00311004201CN0750001N9+00701+00701999999ADDAA199000091AY121999GF107991071021004501999999KA1999N+00401MW1011REMSYN00570004
0043010510999991973082812004+69583+023533FM-12+037499999V0201301N00261004201CN0550001N9+01201+00901999999ADDAY121999GF108991081021004501999999MW1031
0081010510999991973090418004+69583+023533FM-12+037499999V0209991C00001004201CN0550001N9+00701+00701999999ADDAA199000591AY181999GF107991051091004501041999KA1999M+01001MW1021REMSYN00579510
0043010510999991973100212004+69583+023533FM-12+037499999V0203201N00261030001CN0550001N9+00501+00501999999ADDAY181999GF106991031091004501041051MW1011
0081010510999991973100218004+69583+023533FM-12+037499999V0202801N00101220001CN0550001N9+00101+00101999999ADDAA199000391AY121999GF101991011091004501001001KA1999M+00601MW1011REMSYN00579306
0043010510999991973100412004+69583+023533FM-12+037499999V0201701N00261004201CN0550001N9+00501+00401999999ADDAY151999GF107991071091004501999999MW1031
0081010510999991973100606004+69583+023533FM-12+037499999V0203001N00261004201CN0300001N9-00101-00101999999ADDAA199001091AY181999GF107991071091004501999999KA1999N-00201MW1851REMSYN00570152
0043010510999991973100612004+69583+023533FM-12+037499999V0203001N00461220001CN0550001N9+00001-00101999999ADDAY181999GF104991041091004501001001MW1011
0081010510999991973100618004+69583+023533FM-12+037499999V0203601N00261220001CN0550001N9-00301-00401999999ADDAA199000291AY121999GF101991011091004501001001KA1999M+00001MW1011REMSYN00579200
0081010510999991973100706004+69583+023533FM-12+037499999V0200901N00101220001CN0750001N9-00501-00501999999ADDAA199000191AY181999GF102991011021004501001051KA1999N-00501MW1011REMSYN00579155
0043010510999991973100712004+69583+023533FM-12+037499999V0202701N00261220001CN0750001N9-00101-00301999999ADDAY121999GF103991021021004501001051MW1031
0081010510999991973100718004+69583+023533FM-12+037499999V0200801N00261220001CN0300001N9-00701-00701999999ADDAA199000091AY121999GF101991011021004501001051KA1999M+00001MW1011REMSYN00570050
0081010510999991973100806004+69583+023533FM-12+037499999V0209991C00001220001CN0750001N9-00601-00601999999ADDAA199000191AY181999GF101991011021004501001051KA1999N-00801MW1011REMSYN00579158
0081010510999991973100818004+69583+023533FM-12+037499999V0200701N00101220001CN0550001N9-01001-01001999999ADDAA199001091AY181999GF101991011091004501001001KA1999M-00201MW1011REMSYN00570152
0043010510999991973100912004+69583+023533FM-12+037499999V0200201N00261004201CN0550001N9-00201-00201999999ADDAY181999GF106991061091004501999999MW1851
0043010510999991973101012004+69583+023533FM-12+037499999V0203401N00261220001CN0550001N9-00401-00501999999ADDAY181999GF103991031091004501001001MW1021
0081010510999991973101018004+69583+023533FM-12+037499999V0203501N00261220001CN0550001N9-00601-00601999999ADDAA199000191AY181999GF101991011091004501001001KA1999M-00401MW1011REMSYN00579154
0069010510999991973101112004+69583+023533FM-12+037499999V0209999999999000301CN0001001N9+00201+99999098321ADDAY171999GF199999081091000251021021MW1051REMSYN0178032/ 54/// 88410
0043010510999991973101212004+69583+023533FM-12+037499999V0209991C00001220001CN0550001N9-00901-00901999999ADDAY141999GF103991031001022501001051MW1011
0081010510999991973101218004+69583+023533FM-12+037499999V0200201N00101220001CN0550001N9-01501-01501999999ADDAA199000091AY121999GF101991011001022501001051KA1999M-00901MW1011REMSYN00570059
0043010510999991973101312004+69583+023533FM-12+037499999V0201501N00261220001CN0550001N9-00701-00801999999ADDAY121999GF101991011001022501001051MW1021
0043010510999991973101412004+69583+023533FM-12+037499999V0201801N00261004201CN0100001N9-00301-00301999999ADDAY141999GF108991081061004501999999MW1011
0081010510999991973101418004+69583+023533FM-12+037499999V0201701N00261004201CN0050001N9-00201-00201999999ADDAA199000091AY141999GF108991081061004501999999KA1999M-00201MW1021REMSYN00570052
0043010510999991973101512004+69583+023533FM-12+037499999V0203601N00101004201CN0150001N9-00301-00301999999ADDAY181999GF107991071091004501999999MW1851
0081010510999991973101518004+69583+023533FM-12+037499999V0200301N00101220001CN0300001N9-01001-01001999999ADDAA199002091AY181999GF102991021091004501001001KA1999M-00201MW1011REMSYN00570252
0086010510999991973101606004+69583+023533FM-12+037499999V0209999999999002101CN0080001N9-00901+99999999999ADDAA199000191GF108991081061002501999999KA1999N-01501REMSYN00579165EQDQ01+000542PRSWM1
0043010510999991973101812004+69583+023533FM-12+037499999V0209991C00001220001CN0750001N9-00901-00901999999ADDAY121999GF104991021091004501001051MW1011
0081010510999991973101818004+69583+023533FM-12+037499999V0200201N00101220001CN0300001N9-01601-01601999999ADDAA199000091AY121999GF101991011091004501001001KA1999M-00801MW1011REMSYN00570058
0043010510999991973101912004+69583+023533FM-12+037499999V0201401N00101004201CN0550001N9-00801-00801999999ADDAY121999GF107991071021004501999999MW1031
0081010510999991973102206004+69583+023533FM-12+037499999V0209991C00001220001CN0750001N9-02501-02601999999ADDAA199000091AY121999GF101991011001022501001051KA1999N-02601MW1021REMSYN00570076
0043010510999991973102312004+69583+023533FM-12+037499999V0203401N00101075001CN0550001N9-00101-00301999999ADDAY181999GF105991031091004501001051MW1011
0081010510999991973102318004+69583+023533FM-12+037499999V0200301N00261220001CN0300001N9-01101-01101999999ADDAA199000691AY121999GF101991011091004501001001KA1999M-00101MW1011REMSYN00579651
0043010510999991973102412004+69583+023533FM-12+037499999V0201201N00461220001CN0750001N9-00701-00801999999ADDAY121999GF103991021021004501001051MW1011
0081010510999991973102506004+69583+023533FM-12+037499999V0201501N00261001201CN0025001N9-00701-00701999999ADDAA199000291AY181999GF108991081091001501999999KA1999N-01601MW1861REMSYN00579266
0081010510999991973102606004+69583+023533FM-12+037499999V0201401N00261004201CN0550001N9-00501-00501999999ADDAA199000191AY181999GF107991071091004501999999KA1999N-00801MW1021REMSYN00579158
0081010510999991973102818004+69583+023533FM-12+037499999V0202501N00261220001CN0550001N9-00201-00201999999ADDAA199000391AY121999GF101991011091004501001001KA1999M+00301MW1011REMSYN00579303
0081010510999991973110106004+69583+023533FM-12+037499999V0202301N00101030001CN0550001N9+00301+00201999999ADDAA199000191AY181999GF105991031091004501041999KA1999N-00101MW1011REMSYN00579151
0081010510999991973110206004+69583+023533FM-12+037499999V0203201N00461220001CN0550001N9-00101-00201999999ADDAA199000091AY121999GF104991031091004501041999KA1999N-00201MW1031REMSYN00570052
0043010510999991973110812004+69583+023533FM-12+037499999V0201301N00261002101CN0100001N9-01601-01701999999ADDAY141999GF107991071061002501999999MW1481
0081010510999991973110906004+69583+023533FM-12+037499999V0209991C00001004201CN0100001N9-00801-00801999999ADDAA199002091AY181999GF108991081091004501999999KA1999N-01501MW1021REMSYN00570265
0081010510999991973111018004+69583+023533FM-12+037499999V0203501N00461220001CN0550001N9-00601-00701999999ADDAA199009091AY131999GF101991011091004501001001KA1999M-00201MW1011REMSYN00570952
0043010510999991973111212004+69583+023533FM-12+037499999V0201401N00261220001CN0550001N9-02101-02101999999ADDAY121999GF101991011011004501001051MW1021
0057010510999991973112412004+69583+023533FM-12+037499999V0203201N00101220001CN0500001N9-00601-01201098741ADDAY111999GF104991021051008001001021MD1710091+9999MW1031
0043010510999991973112812004+69583+023533FM-12+037499999V0203601N00671001201CN0045001N9-00701-00701999999ADDAY181999GF108991081091001501999999MW1851
0043010510999991973120512004+69583+023533FM-12+037499999V0201001N00101220001CN0550001N9-02601-02701999999ADDAY121999GF101991011091004501001001MW1021
0081010510999991973120906004+69583+023533FM-12+037499999V0200901N00101001201CN0020001N9-02201-02301999999ADDAA199000091AY141999GF108991081061001501999999KA1999N-02901MW1491REMSYN00570079
0081010510999991973121706004+69583+023533FM-12+037499999V0201001N001019999999N0015001N9-02601-02601999999ADDAA199000291AY181999GF108991081011999999999999KA1999N-02701MW1491REMSYN00579277
0043010510999991973122612004+69583+023533FM-12+037499999V0201701N00461004201CN0300001N9-01101-01201999999ADDAY181999GF106991051091004501041999MW1011
