0082010570999991973010112004+69367+024433FM-12+028599999V0200401N00151030001CN0003001N9-00101-00401999999ADDAJ100389199999999AY171999GA1031+001509099GF108991031031001501021999IA1319MW1701
0066010570999991973010312004+69367+024433FM-12+028599999V0203201N00101220001CN0700001N9-01001-01201999999ADDAJ100389199999999AY181999GF102991021031001501999999IA1319MW1021
0082010570999991973010412004+69367+024433FM-12+028599999V0201801N00151030001CN0700001N9-00901-01201999999ADDAJ100389199999999AY121999GA1031+003009059GF108991031051002501021999IA1319MW1021
0128010570999991973010612004+69367+024433FM-12+028599999V0200201N00151075001CN0700001N9-00801-01101999999ADDAJ100389199999999AY171999GA1021+001509079GA2011+003009039GA3021+006009009GF105991021061001501041011IA1319MW1021REMSYN00526696
0083010570999991973010706004+69367+024433FM-12+028599999V0209991C00001220001CN0700001N9-00901-01301999999ADDAA199000591AY171999GA1041+001509059GF104991041051001501999999KA1999N-01501MW1021
0073010570999991973010718004+69367+024433FM-12+028599999V0209991C00001220001CN0700001N9-00901-03501999999ADDAY171999GA1041+001509059GF104991041051002501999081MD1010001+9999MW1021
0082010570999991973010812004+69367+024433FM-12+028599999V0203601N00301220001CN0700001N9-00801-01301999999ADDAJ100389199999999AY131999GA1021+003009089GF102991021011002501999999IA1319MW1021
0114010570999991973011112004+69367+024433FM-12+028599999V0202201N00151006001CN0700001N9+00401-00101999999ADDAJ100389199999999AY121999GA1021+001509089GA2021+003009039GA3021+006009009GF106991021011001501041021IA1319MW1021
0057010570999991973011312004+69367+024433FM-12+028599999V0203301N00411220001CN0700001N9-00101-00601102401ADDAY101999GF100991001001999999001001MD1210251+9999MW1021
0122010570999991973011406004+69367+024433FM-12+028599999V0203601N00101003001CN0700001N9-00701-01101999999ADDAA199000091AJ100389199999999AY121999GA1031+001509059GA2031+003009039GF106991031051001501051999IA1319KA1999N-01001MW1021
0082010570999991973011412004+69367+024433FM-12+028599999V0203001N00151003001CN0700001N9-01001-01401999999ADDAJ100389199999999AY101999GA1051+003009009GF105991051001002501999021IA1319MW1021
0114010570999991973011512004+69367+024433FM-12+028599999V0209991C00001009001CN0700001N9-00501-00901999999ADDAJ100389199999999AY101999GA1031+003009089GA2011+006009039GA3021+009009009GF106991031011001501041011IA1319MW1021
0099010570999991973011518004+69367+024433FM-12+028599999V0203201N00101006001CN0700001N9-00501-00901999999ADDAA199000091AY121999GA1011+003009089GA2061+006009039GF107991011011002501031999KA1999M-00401MW1021
0082010570999991973011812004+69367+024433FM-12+028599999V0202401N00101003001CN0700001N9-00401-00501999999ADDAJ100389199999999AY121999GA1081+003009049GF108991081001002501021999IA1319MW1021
0107010570999991973011912004+69367+024433FM-12+028599999V0202701N00051003001CN0750001N9-00401-00601999999ADDAY171999GA1051+003009049GA2021+006009039GF107991051001002501021999IA1319MW1021REMSYN0172//96 85410 82320
0082010570999991973012112004+69367+024433FM-12+028599999V0209991C00001220001CN0700001N9-02801-03001999999ADDAJ100389199999999AY141999GA1021+003009039GF102991021001002501041999IA1319MW1021
0098010570999991973012312004+69367+024433FM-12+028599999V0209991C00001220001CN0700001N9-01801-02001999999ADDAJ100389199999999AY121999GA1021+003009039GA2021+006009009GF104991021001002501041999IA1319MW1021
0083010570999991973012418004+69367+024433FM-12+028599999V0201801N00101003001CN0700001N9-00201-00401999999ADDAA199001091AY171999GA1081+003009049GF108991081001001501999999KA1999M-00201MW1021
0112010570999991973012512004+69367+024433FM-12+028599999V0209991C00001006001CN0700001N9-00201-00401999999ADDAJ100389199999999AY171999GA1031+003009059GA2031+006009049GF106991031051002501021999IA1319MW1021REMSYN00525396
0139010570999991973012700004+69367+024433FM-12+028599999V0201401N00151003001CN0290001N9-01801-02101999999ADDAA106000591AJ100389199999999AY171999GA1081+003009049GF108991081001002501021999IA1319KA1999N-01801MW1701REMSYN00526596EQDQ01  00053PRCP99
0119010570999991973012800004+69367+024433FM-12+028599999V0202001N01341220001CN0200001N9+00001+00001100771ADDAJ100209199999999AY101999GF103991031021000251011091IA1189MD1510431+9999MW1891UA1M993109999REMSYN01724957 29055 40701
0112010570999991973012812004+69367+024433FM-12+028599999V0201801N00151006001CN0190001N9-01501-01901999999ADDAJ100389199999999AY141999GA1041+003009079GA2041+006009049GF108991041061002501021999IA1319MW1101REMSYN00526396
0112010570999991973012912004+69367+024433FM-12+028599999V0201801N00101220001CN0700001N9-02001-02401999999ADDAJ100389199999999AY171999GA1011+003009079GA2011+006009089GF102991011061002501999999IA1319MW1021REMSYN00525996
0043010570999991973020112004+69367+024433FM-12+028599999V0201801N00151030001CN0700001N9-00501-00801999999ADDAY121999GF106991021051002501021999MW1021
0131010570999991973020312004+69367+024433FM-12+028599999V0203201N00251003001CN0700001N9-00601-01001999999ADDAJ100389199999999AY171999GA1021+001509059GA2081+003009039GF199999021051001501081999IA1319MW1361REMSYN00525796EQDQ01+000052SCOTCV
0080010570999991973020412004+69367+024433FM-12+028599999V0201801N00051001201CN0700001N9-00901-01301999999ADDAJ100389199999999AY171999GF107991051001001501021999IA1319MW1021REMSYN00525696
0083010570999991973020418004+69367+024433FM-12+028599999V0209991C00001001501CN0040001N9-01001-01001999999ADDAA199999929AY121999GA1081+001509049GF108991081001001501021999KA1999M-00501MW1701
0083010570999991973020718004+69367+024433FM-12+028599999V0209991C00001001501CN0700001N9-02901-03101999999ADDAA199000091AY141999GA1081+001509079GF108991081061001501999999KA1999M-02301MW1021
0112010570999991973021012004+69367+024433FM-12+028599999V0209991C000019999999N0700001N9-02201-02401999999ADDAJ100389199999999AY141999GA1041+001509079GA2021+006009059GF106991041061001501999999IA1319MW1021REMSYN00526596
0070010570999991973021018004+69367+024433FM-12+028599999V0209991C00001001501CN0700001N9-02901-03101999999ADDAA199000091AY121999GA1051+001509079GF105991051061001501999999MW1021
0083010570999991973021218004+69367+024433FM-12+028599999V0201801N00151001501CN0040001N9-00501-00601999999ADDAA199000291AY171999GA1081+001509049GF108991081001001501021999KA1999M-00501MW1701
0096010570999991973021312004+69367+024433FM-12+028599999V0201801N00251001501CN0045001N9-00501-00701999999ADDAJ100389199999999AY171999GA1081+001509049GF108991081001001501021999IA1319MW1701REMSYN00525696
0152010570999991973021506004+69367+024433FM-12+028599999V0202701N00101075001CN0700001N9-00801-01101999999ADDAA199000091AJ100389199999999AY131999GA1021+001509059GA2011+003009039GA3011+006009009GF105991021051001501041011IA1319KA1999N-01001MW1021REMSYN00525496
0083010570999991973021518004+69367+024433FM-12+028599999V0209991C00001220001CN0700001N9-02101-02201999999ADDAA199000091AY121999GA1021+001509089GF102991021011001501999999KA1999M-00501MW1021
0086010570999991973021612004+69367+024433FM-12+028599999V0209991C00001220001CN0700001N9-01201-01401999999ADDAJ100009199999999AY121999GF101991011001004501081999IA1009MW1021REMSYN01126290 2320*
0110010570999991973021812004+69367+024433FM-12+028599999V0201801N00101001501CN0100001N9+99999+99999999999ADDAJ100389199999999AY141999GA1081+001509079GF108991081061001501999999IA1319MD1010001+9999MW1701REMSYN00526596
0083010570999991973021818004+69367+024433FM-12+028599999V0201801N00151001501CN0700001N9-00601-00701999999ADDAA199999929AY171999GA1081+001509049GF108991081001001501021999KA1999M-00601MW1021
0054010570999991973021918004+69367+024433FM-12+028599999V0209991C00001220001CN0700001N9-00401-00601999999ADDAA199999929AY131999GF100991001001999999001001MW1021
0067010570999991973022018004+69367+024433FM-12+028599999V0202401N00151220001CN0700001N9-00801-01301999999ADDAA199999929AY131999GF100991001001999999001001KA1999M-00301MW1021
0112010570999991973022112004+69367+024433FM-12+028599999V0203601N00151220001CN0700001N9-00601-01101999999ADDAJ100389199999999AY181999GA1021+001509099GA2011+003009059GF103991021031001501999999IA1319MW1021REMSYN00525796
0086010570999991973022512004+69367+024433FM-12+028599999V0201801N00101220001CN0700001N9-01901-02101999999ADDAJ100009199999999AY101999GF102991021001002501999011IA1109MW1021REMSYN01126796 2222*
0120010570999991973022706004+69367+024433FM-12+028599999V0201801N00101220001CN0700001N9-02701-02901999999ADDAA199000091AJ100389199999999AY101999GA1011+006009029GF101991011001004501999081IA1319KA1999N-02801MW1021REMSYN00526396
0128010570999991973022812004+69367+024433FM-12+028599999V0209991C00001006001CN0700001N9-02201-02601999999ADDAJ100389199999999AY101999GA1021+003009079GA2021+004509039GA3021+006009009GF106991021061002501031041IA1319MW1021REMSYN00526696
0120010570999991973030206004+69367+024433FM-12+028599999V0209991C00001000301CN0004001N9-02301-02501999999ADDAA199000091AJ100389199999999AY141999GA1091+999999999GF109991091999999999999999IA1319KA1999N-03201MW1431REMSYN00526996
0082010570999991973030412004+69367+024433FM-12+028599999V0201801N00101001501CN0700001N9-01101-01401999999ADDAJ100389199999999AY171999GA1081+001509079GF108991081061001501999999IA1319MW1021
0096010570999991973030512004+69367+024433FM-12+028599999V0202201N00101003001CN0700001N9-00601-00701999999ADDAJ100389199999999AY121999GA1051+003009079GF108991081061002501999999IA1319MW1021REMSYN00526796
0083010570999991973030518004+69367+024433FM-12+028599999V0201801N00051003001CN0100001N9-00601-00701999999ADDAA199999929AY171999GA1081+003009049GF108991081001002501021999KA1999M-00601MW1701
0096010570999991973030612004+69367+024433FM-12+028599999V0209991C00001003001CN0050001N9-00901-01001999999ADDAJ100389199999999AY171999GA1081+003009049GF108991081001002501011999IA1319MW1701REMSYN00526696
0120010570999991973030706004+69367+024433FM-12+028599999V0209991C000019999999N0700001N9-02201-02301999999ADDAA199000091AJ100389199999999AY121999GA1021+001509089GF105991021011001501999011IA1319KA1999N-02301MW1021REMSYN00526096
0083010570999991973030718004+69367+024433FM-12+028599999V0209991C00001220001CN0700001N9-02201-02401999999ADDAA199000091AY101999GA1011+003009039GF101991011001002501041999KA1999M-00901MW1021
0099010570999991973030818004+69367+024433FM-12+028599999V0209991C000019999999N0700001N9-00501-00801999999ADDAA199999929AY121999GA1021+001509089GA2041+003009059GF106991021011001501999999KA1999M-00301MW1021
0096010570999991973030912004+69367+024433FM-12+028599999V0203601N00151001501CN0030001N9-00501-00601999999ADDAJ100389199999999AY171999GA1081+001509049GF108991081001001501021999IA1319MW1701REMSYN00526296
0120010570999991973031006004+69367+024433FM-12+028599999V0209991C00001220001CN0700001N9-00601-00901999999ADDAA199000091AJ100389199999999AY131999GA1011+001509059GF101991011051001501999999IA1319KA1999N-00801MW1021REMSYN00525596
0099010570999991973031118004+69367+024433FM-12+028599999V0209991C00001030001CN0700001N9-00101-00601999999ADDAA199000091AY121999GA1031+001509089GA2021+006009039GF105991031021001501081999KA1999M+00101MW1021
0120010570999991973031206004+69367+024433FM-12+028599999V0202701N00101001501CN0050001N9+00101+00001999999ADDAA199999929AJ100389199999999AY121999GA1081+001509049GF108991081001001501021999IA1319KA1999N-00101MW1601REMSYN00525396
0112010570999991973031212004+69367+024433FM-12+028599999V0209991C00001006001CN0700001N9-00101-00301999999ADDAJ100389199999999AY181999GA1041+001509099GA2021+006009039GF106991041031001501081999IA1319MW1021REMSYN00525396
0136010570999991973031806004+69367+024433FM-12+028599999V0209991C00001001501CN0700001N9-02401-02601999999ADDAA199000091AJ100389199999999AY141999GA1061+001509079GA2021+003009999GF108991061061001501999999IA1319KA1999N-02801MW1021REMSYN00526896
0059010570999991973031912004+69367+024433FM-12+028599999V0209991C00001003001CN0700001N9-01201-01401999999ADDAY141999GA1061+003009009GF106991061001002501999021MW1021
0091010570999991973032212004+69367+024433FM-12+028599999V0201801N00151009001CN0700001N9-01001-01501999999ADDAY121999GA1021+003009039GA2031+006009009GA3021+009009029GF107991021001002501041021MW1021
0075010570999991973032412004+69367+024433FM-12+028599999V0202201N00151006001CN0700001N9+00301+99999999999ADDAY121999GA1021+003009059GA2051+006009009GF107991021051002501999021MW1021
0099010570999991973032718004+69367+024433FM-12+028599999V0202201N00251220001CN0700001N9-00401-01101999999ADDAA199000091AY121999GA1021+003009039GA2011+006009009GF103991021001002501051011KA1999M-00201MW1021
0059010570999991973032812004+69367+024433FM-12+028599999V0201801N00101220001CN0700001N9-00201-00901999999ADDAY101999GA1011+006009009GF101991011001004501999011MW1021
0099010570999991973032818004+69367+024433FM-12+028599999V0201801N00561003001CN0700001N9+00001-00401999999ADDAA199000091AY101999GA1061+003009089GA2011+006009039GF107991061011002501041999KA1999M+00101MW1021
0083010570999991973040418004+69367+024433FM-12+028599999V0209991C00001001501CN0200001N9-00301+99999999999ADDAA199000291AY171999GA1081+001509079GF108991081061001501999999KA1999M-00101MW1711
0099010570999991973040518004+69367+024433FM-12+028599999V0209991C00001220001CN0700001N9-00201-00801999999ADDAA199000091AY111999GA1011+001509089GA2011+006009009GF102991011011001501999011KA1999M-00101MW1021
0120010570999991973040606004+69367+024433FM-12+028599999V0201801N00251003001CN0040001N9-00501-00601999999ADDAA199001091AJ100389199999999AY171999GA1081+003009049GF108991081999002501021999IA1319KA1999N-02001MW1711REMSYN00525596
0136010570999991973040706004+69367+024433FM-12+028599999V0209991C00001003001CN0700001N9-00401-00501999999ADDAA199001091AJ100389199999999AY171999GA1031+001509089GA2041+003009049GF107991031021001501021999IA1319KA1999N-00501MW1021REMSYN00520096
0122010570999991973040806004+69367+024433FM-12+028599999V0209991C00001003001CN9999999N9-00601-00701999999ADDAA199999929AJ100389199999999AY171999GA1041+001509099GA2021+003009009GF106991041031001501999021IA1319KA1999N-01101MW1021
0059010570999991973040812004+69367+024433FM-12+028599999V0209991C00001220001CN0700001N9+00001-00501999999ADDAY121999GA1041+003009009GF104991041001002501999021MW1021
0115010570999991973040818004+69367+024433FM-12+028599999V0209991C00001006001CN0290001N9-00501-00701999999ADDAA199999929AY171999GA1031+001509079GA2011+003009039GA3031+006009009GF107991031061001501031021KA1999M+00201MW1701
0083010570999991973040918004+69367+024433FM-12+028599999V0203601N00101001501CN0040001N9-00301-00301999999ADDAA199001091AY171999GA1081+001509079GF108991081061001501999999KA1999M+00001MW1711
0136010570999991973041006004+69367+024433FM-12+028599999V0209991C000019999999N0090001N9-00301-00401999999ADDAA199001091AJ100389199999999AY171999GA1031+001509079GA2031+003009089GF106991031061001501999999IA1319KA1999N-00601MW1101REMSYN00525296
0059010570999991973041012004+69367+024433FM-12+028599999V0202201N00051001501CN0090001N9-00101+99999999999ADDAY171999GA1081+001509079GF108991081061001501999999MW1101
0155010570999991973041706004+69367+024433FM-12+028599999V0203201N00051006001CN0190001N9-00201-00301999999ADDAA199999999AJ100389199999999AY121999GA1021+003009059GA2061+006009049GF108991021051002501021999IA1319KA1999N-01001MW1701REMSYN00525596EQDQ01  00002PRCP99
0120010570999991973041806004+69367+024433FM-12+028599999V0201801N00101220001CN0700001N9-00501-00701999999ADDAA199999929AJ100389199999999AY171999GA1041+003009089GF104991041021002501999999IA1319KA1999N-01501MW1021REMSYN00525996
0059010570999991973041812004+69367+024433FM-12+028599999V0203601N00101220001CN0700001N9-00101-00701999999ADDAY101999GA1011+003009089GF101991011011002501999999MW1021
0059010570999991973041912004+69367+024433FM-12+028599999V0200601N00051220001CN0700001N9-00201-00901999999ADDAY101999GA1031+003009089GF103991031011002501999999MW1021
0092010570999991973041918004+69367+024433FM-12+028599999V0209991C00001003001CN0700001N9-00501-02001999999ADDAY121999GA1061+003009089GF106991061011002501999999MD1010512+9999MW1021EQDQ01+000512APC3  
0075010570999991973042012004+69367+024433FM-12+028599999V0200901N00101006001CN0700001N9-00201-00901999999ADDAY121999GA1021+003009089GA2041+006009049GF106991021021002501021999MW1021
0043010570999991973042112004+69367+024433FM-12+028599999V0201201N00101220001CN0700001N9-00201-00801999999ADDAY101999GF100991001001999999001001MW1021
0083010570999991973042318004+69367+024433FM-12+028599999V0209991C00001220001CN0700001N9+00001-00401999999ADDAA199000091AY101999GA1011+003009089GF104991011011001501051999KA1999M+00301MW1021
0059010570999991973042512004+69367+024433FM-12+028599999V0201801N00101003001CN0030001N9-00101-00401999999ADDAY171999GA1081+003009049GF108991081001002501021999MW1701
0059010570999991973042612004+69367+024433FM-12+028599999V0209991C00001001501CN0700001N9+00101-00501999999ADDAY181999GA1061+001509089GF106991061021001501999999MW1021
0099010570999991973042718004+69367+024433FM-12+028599999V0201401N001519999999N0700001N9+00001-00301999999ADDAA199004091AY161999GA1041+001509099GA2021+003009059GF106991041031001501999999KA1999M+00201MW1021
0075010570999991973042812004+69367+024433FM-12+028599999V0201801N00151003001CN0040001N9-00201-00401999999ADDAY181999GA1021+001509079GA2051+003009089GF107991071061001501999999MW1851
0059010570999991973042912004+69367+024433FM-12+028599999V0201801N00101220001CN0700001N9+00001-00801999999ADDAY101999GA1041+006009039GF104991041001004501031999MW1021
0099010570999991973042918004+69367+024433FM-12+028599999V0209991C00001006001CN0700001N9-00101-00801999999ADDAA199000091AY121999GA1031+003009009GA2021+006009089GF105991031031002501999999KA1999M+00201MW1021
0155010570999991973043006004+69367+024433FM-12+028599999V0200901N00151003001CN0700001N9-00201-00401999999ADDAA199999929AJ100759199999999AY171999GA1021+001509089GA2081+003009049GF199999021011001501021999IA1319KA1999N-00501MW1021REMSYN00525297EQDQ01+000062SCOTCV
0075010570999991973043012004+69367+024433FM-12+028599999V0200901N00251003001CN0700001N9-00101-00201999999ADDAY121999GA1021+001509089GA2081+003009049GF108991021011001501021999MW1021
0083010570999991973050118004+69367+024433FM-12+028599999V0209991C00001003001CN0700001N9+00101-00501999999ADDAA199003091AY171999GA1051+003009009GF105991051001002501999041KA1999M+00301MW1021
0120010570999991973050206004+69367+024433FM-12+028599999V0201401N00151001501CN0020001N9+00001+00001999999ADDAA199002091AJ100759199999999AY171999GA1081+001509079GF108991081061001501999999IA1319KA1999N-00401MW1711REMSYN00525497
0136010570999991973050306004+69367+024433FM-12+028599999V0201801N00101220001CN0700001N9+00201-00301999999ADDAA199999929AJ100759199999999AY171999GA1011+003009039GA2031+006009009GF104991011001002501041011IA1319KA1999N+00001MW1021REMSYN00525197
0075010570999991973050312004+69367+024433FM-12+028599999V0202701N001519999999N0700001N9+00301-00401999999ADDAY101999GA1011+003009039GA2041+006009009GF105991011001002501031011MW1021
0083010570999991973050318004+69367+024433FM-12+028599999V0203201N00101030001CN0700001N9+00201-00201999999ADDAA199000091AY101999GA1021+001509089GF107991021011001501031999KA1999M+00401MW1021
0059010570999991973050612004+69367+024433FM-12+028599999V0201801N00051001501CN0700001N9+00401-00401999999ADDAY171999GA1051+001509089GF105991051021001501999999MW1021
0136010570999991973050706004+69367+024433FM-12+028599999V0201401N00101220001CN0700001N9-00101-00501999999ADDAA199000091AJ100759199999999AY121999GA1011+001509079GA2011+003009089GF102991011061001501999999IA1319KA1999N-00401MW1021REMSYN00525497
0059010570999991973050912004+69367+024433FM-12+028599999V0201801N00101001501CN0030001N9+00201+00001999999ADDAY171999GA1081+001509049GF108991081001001501021999MW1701
0083010570999991973050918004+69367+024433FM-12+028599999V0201801N00051001501CN0700001N9+00301+00201999999ADDAA199000291AY161999GA1081+001509049GF108991081001001501021999KA1999M+00301MW1021
0120010570999991973051106004+69367+024433FM-12+028599999V0201401N00101001501CN0190001N9+00301+00301999999ADDAA199000091AJ100389199999999AY141999GA1081+001509049GF108991081001001501021999IA1319KA1999N+00201MW1101REMSYN00520096
0059010570999991973051112004+69367+024433FM-12+028599999V0201801N00151001501CN0090001N9+00501+00401999999ADDAY141999GA1081+001509049GF108991081001000251021999MW1101
0120010570999991973051206004+69367+024433FM-12+028599999V0201601N00101001201CN0190001N9+00201+00201999999ADDAA199000091AJ100389199999999AY141999GA1041+000909049GF108991081001001501021999IA1319KA1999N+00101MW1101REMSYN00525196
0059010570999991973051212004+69367+024433FM-12+028599999V0201801N00101001501CN0300001N9+00601+00001999999ADDAY141999GA1081+001509049GF108991081001001501011999MW1021
0104010570999991973051306004+69367+024433FM-12+028599999V0209991C00001220001CN0700001N9+00501-00201999999ADDAA199000091AJ100389199999999AY101999GF100991001001999999001001IA1319KA1999N-00401MW1021REMSYN00525196
0052010570999991973051312004+69367+024433FM-12+028599999V0209991C00001220001CN0700001N9+00601-00301999999ADDAY101999GA1011+003009009MW1021EQDQ01+000002SCOTCV
0118010570999991973051318004+69367+024433FM-12+028599999V0201801N00101220001CN0700001N9+00401-00101999999ADDAA199000091AY101999GA1011+003009039GA2011+006009009GF102991999031004501011999KA1999M+00701MW1021EQDQ01+000002SCOTLC
0120010570999991973051406004+69367+024433FM-12+028599999V0201401N00101003001CN0040001N9+00101+00001999999ADDAA199999929AJ100389199999999AY171999GA1081+003009049GF108991081001002501021999IA1319KA1999N+00101MW1681REMSYN00520096
0120010570999991973051506004+69367+024433FM-12+028599999V0203201N00101003001CN0200001N9+00101+00101999999ADDAA199003091AJ100389199999999AY161999GA1081+003009079GF108991081061002501999999IA1319KA1999N+00101MW1681REMSYN00525096
0075010570999991973051512004+69367+024433FM-12+028599999V0203201N00101003001CN0150001N9+00201+00101999999ADDAY171999GA1031+001509089GA2071+003009049GF107991031071001501021999MW1681
0171010570999991973051606004+69367+024433FM-12+028599999V0203401N00101001501CN0250001N9-00101-00401999999ADDAA199999999AJ100389199999999AY121999GA1041+001509089GA2021+001509099GA3071+003009049GF107991061031001501011999IA1319KA1999N-00301MW1851REMSYN00525296EQDQ01  00002PRCP99
0094010570999991973051812004+69367+024433FM-12+028599999V0201801N00101220001CN0700001N9+00601-00301999999ADDAY101999GA1011+006009009GA2011+006009029GF102991001001999999001051MW1021EQDQ01+000992SCOLCB
0102010570999991973051818004+69367+024433FM-12+028599999V0202201N00101220001CN0700001N9+00601-00301999999ADDAA199000091AY101999GA1011+006009029GF101991001001999999001081KA1999M+00701MW1021EQDQ01+000992SCOLCB
0120010570999991973052106004+69367+024433FM-12+028599999V0209991C00001003001CN0700001N9+00301+00201999999ADDAA199000091AJ100389199999999AY141999GA1061+003009009GF106991061001002501999031IA1199KA1999N-00101MW1021REMSYN00525366
0043010570999991973052212004+69367+024433FM-12+028599999V0201801N00101220001CN0700001N9+00701+00001999999ADDAY101999GF100991001001999999001001MW1021
0099010570999991973052418004+69367+024433FM-12+028599999V0209991C00001220001CN0700001N9+00301-00701999999ADDAA199000091AY101999GA1021+001509059GA2021+003009039GF104991021051001501051999KA1999M+00401MW1021
0136010570999991973052606004+69367+024433FM-12+028599999V0202701N001019999999N0700001N9+00201-00501999999ADDAA199000091AJ100009199999999AY101999GA1021+003009059GA2031+006009009GF105991021051002501999021IA1199KA1999N-00201MW1021REMSYN00525360
0075010570999991973052612004+69367+024433FM-12+028599999V0202701N00101006001CN0700001N9+00401-00701999999ADDAY101999GA1031+003009089GA2031+006009009GF106991031021002501999021MW1021
0075010570999991973052712004+69367+024433FM-12+028599999V0202701N00101220001CN0700001N9+00801+00001999999ADDAY121999GA1021+003009089GA2021+006009009GF104991021021002501999021MW1021
0083010570999991973052718004+69367+024433FM-12+028599999V0203601N00151003001CN0700001N9+00201+00001999999ADDAA199999929AY151999GA1061+003009099GF106991061031002501001001KA1999M+00801MW1021
0115010570999991973053018004+69367+024433FM-12+028599999V0209991C00001006001CN0700001N9+00801+00001999999ADDAA199000091AY121999GA1031+001509089GA2011+003009059GA3021+006009049GF106991031011001501021001KA1999M+01101MW1021
0130010570999991973060112004+69367+024433FM-12+028599999V0202201N00101220001CN9999999N9+01201+00001999999ADDGA1041+006009009GF199999001001999999001001REMSYN04121    01066 01202 84020 ///11 00900 08///EQDQ01+000002SCOTCVQ02+000992SCOLCB
0166010570999991973060506004+69367+024433FM-12+028599999V0202401N00101006001CN0750001N9+00901+00001999999ADDAA199000091AJ100009199999999AY101999GA1021+003009039GA2041+006009009GF106991021001004501041021IA1189IA2999+00109KA1999N+00401MW1021REMSYN02320150 70004 82310 84020
0095010570999991973060512004+69367+024433FM-12+028599999V0202401N00151006001CN0750001N9+01001-00301999999ADDAY121999GA1041+001509089GA2021+006009009GF106991041021001501001011MW1021REMSYN01184805 82020
0144010570999991973060518004+69367+024433FM-12+028599999V0202701N00261001501CN0750001N9+00801+99999999999ADDAA199000091AY121999GA1051+001509049GA2021+003009039GF107991999001001501021001KA1999M+01101MW1021REMSYN01770011 85405 82310EQDQ01+000052SCOTLC
0127010570999991973060606004+69367+024433FM-12+028599999V0202201N00151001501CN0300001N9+00801+00101999999ADDAA199999929AY121999GA1081+001509049GF108991081001001501021999IA1189IA2999+00209KA1999N+00401MW1601REMSYN01720256 79704 88405
0073010570999991973060612004+69367+024433FM-12+028599999V0202201N00151030001CN0750001N9+00901+00501999999ADDAY161999GA1041+003009049GF108991041071001501021999MW1021REMSYN00584410
0147010570999991973060618004+69367+024433FM-12+028599999V0202201N00151006001CN0750001N9+01001+00101999999ADDAA199999929AY121999GA1021+001509059GA2011+003009049GA3031+006009009GF106991021051001501021021KA1999M+01201MW1021REMSYN02379712 82605 81410 83020
0188010570999991973060806004+69367+024433FM-12+028599999V0202701N00151009001CN0750001N9+00701+00001999999ADDAA199000091AJ100009199999999AY121999GA1021+003009089GA2021+006009039GA3041+009009009GF106991021021002501041021IA1189IA2999+00409KA1999N+00501MW1021REMSYN02920450 70005 82810 82320 84030
0166010570999991973061006004+69367+024433FM-12+028599999V0200901N00101003001CN0750001N9+01001+00201999999ADDAA199000091AJ100009199999999AY121999GA1031+001509099GA2031+003009009GF106991031031001501001031IA1009IA2999+00309KA1999N+00501MW1021REMSYN02320300 70005 83905 83010
0144010570999991973061106004+69367+024433FM-12+028599999V0201401N00151001501CN0750001N9+00801+00801999999ADDAA199006091AJ100009199999999AY161999GA1081+001509049GF108991081001001501021001IA1109IA2999+00409KA1999N+00601MW1021REMSYN01720420 70606 88405
0120010570999991973061118004+69367+024433FM-12+028599999V0202201N00101220001CN0750001N9+01401-00101999999ADDAY121999GA1031+001509089GA2011+003009059GF104991999011001501001001MW1021REMSYN0177977  83805 81  0EQDQ01+000032SCOTLC
0073010570999991973061212004+69367+024433FM-12+028599999V0203601N00151003001CN0290001N9+00801+00401999999ADDAY161999GA1061+003009049GF108991021071001501021001MW1601REMSYN00586410
0103010570999991973061318004+69367+024433FM-12+028599999V0203601N00101220001CN0750001N9+00801-00101999999ADDAA199002091AY121999GA1021+003009039GF102991021001002501081001KA1999M+00901MW1021REMSYN01170209 82310
0073010570999991973061412004+69367+024433FM-12+028599999V0200401N00151003001CN0190001N9+99999+99999999999ADDAY161999GA1051+003009049GF108991031071001501021999MW1601REMSYN00585410
0125010570999991973061418004+69367+024433FM-12+028599999V0200401N00151030001CN0750001N9+00501+00301999999ADDAA199006091AY161999GA1021+003009059GA2031+006009049GF108991031071001501021001KA1999M+00801MW1021REMSYN01770608 82  0 83420
0095010570999991973061712004+69367+024433FM-12+028599999V0203601N00101220001CN0750001N9+00701-00401999999ADDAY121999GA1031+001509089GA2011+004509009GF104991031011001501999011MW1021REMSYN01183805 81015
0114010570999991973061812004+69367+024433FM-12+028599999V0209991C00001220001CN0750001N9+01301+00001999999ADDAJ100009199999999AY101999GA1011+003009089GF102991011011002501999011IA1109IA2999+01009MW1021REMSYN01181810 21020
0117010570999991973061912004+69367+024433FM-12+028599999V0203001N00101004501CN0750001N9+01801+00001999999ADDAY121999GA1031+001509089GA2031+001509059GA3021+004509039GF107991051041001501011999MW1021REMSYN01783805 83605 82315
0147010570999991973061918004+69367+024433FM-12+028599999V0209991C00001001501CN0300001N9+01601+00501999999ADDAA199999929AY181999GA1051+001509089GA2011+001509099GA3011+003009059GF107991071031001501999999KA1999M+01901MW1021REMSYN02379719 85805 81905 81  0
0182010570999991973062006004+69367+024433FM-12+028599999V0209991C00001220001CN0750001N9+01801+00701999999ADDAA199000091AJ100009199999999AY101999GA1011+001509089GA2011+003009039GA3011+006009009GF103991011021001501031011IA1009IA2999+00709KA1999N+00801MW1021REMSYN02320700 70008 81805 813&I
0117010570999991973062012004+69367+024433FM-12+028599999V0203601N00101003001CN0750001N9+01701+00501999999ADDAY101999GA1031+001509099GA2021+003009059GA3021+006009049GF107991031031001501021001MW1021REMSYN01783905 82  0 82420
0125010570999991973062018004+69367+024433FM-12+028599999V0200901N00101220001CN0750001N9+01501+00501999999ADDAA199000091AY121999GA1011+001509089GA2011+003009039GF102991011011001501031001KA1999M+02001MW1021REMSYN01770020 81805 81310
0154010570999991973062106004+69367+024433FM-12+028599999V0209991C00001220001CN0750001N9+01701+00801999999ADDAA199000091AJ100009199999999AL10699999AY101999GA1011+003009029GF101991011001002501001081IA1009IA2999+00609KA1999N+00601MW1021REMSYN01720600 70006 81210
0073010570999991973062112004+69367+024433FM-12+028599999V0209991C00001220001CN0750001N9+02201+00501999999ADDAY101999GA1021+003009089GF102991021011002501031001MW1021REMSYN00582810
0117010570999991973062312004+69367+024433FM-12+028599999V0209991C00001075001CN0750001N9+02101+00401999999ADDAY101999GA1021+003009089GA2021+006009039GA3011+009009009GF105991021011002501051021MW1021REMSYN01782810 82320 81030
0125010570999991973062318004+69367+024433FM-12+028599999V0202201N00151030001CN0750001N9+02001+00301999999ADDAA199000091AY121999GA1021+003009059GA2021+006009039GF106991021011001501031001KA1999M+02301MW1021REMSYN01770023 82  0 82320
0095010570999991973062412004+69367+024433FM-12+028599999V0202701N00101030001CN0750001N9+01501+00701999999ADDAY161999GA1021+003009049GA2021+006009009GF106991021071001501021021MW1021REMSYN01182410 82020
0147010570999991973062418004+69367+024433FM-12+028599999V0209991C00001003001CN0750001N9+01401+00601999999ADDAA199001091AY121999GA1021+001509089GA2031+003009059GA3011+006009039GF106991021011001501031001KA1999M+01701MW1021REMSYN02370117 82805 83  0 81320
0176010570999991973062506004+69367+024433FM-12+028599999V0209991C00001003001CN0750001N9+01201+00301999999ADDAA199000091AJ100009199999999AL10699999AY121999GA1051+003009049GA2031+006009039GF108991081001017501031001IA1009IA2999+00909KA1999N+01001MW1021REMSYN02320900 70010 85410 83320
0073010570999991973062512004+69367+024433FM-12+028599999V0209991C00001003001CN0750001N9+01401+00601999999ADDAY161999GA1051+003009049GF108991031071001501021001MW1021REMSYN00585410
0147010570999991973062518004+69367+024433FM-12+028599999V0203601N00101006001CN0750001N9+01401+00501999999ADDAA199999929AY121999GA1021+001509099GA2021+003009089GA3021+006009039GF106991021031001501051001KA1999M+01601MW1021REMSYN02379716 82905 82810 82320
0095010570999991973062612004+69367+024433FM-12+028599999V0203201N00101003001CN0750001N9+01701+00201999999ADDAY121999GA1041+001509089GA2021+003009009GF106991041021001501001021MW1021REMSYN01184805 82010
0117010570999991973062618004+69367+024433FM-12+028599999V0203601N00101003001CN0750001N9+01401+00401999999ADDAY121999GA1041+001509089GA2011+003009039GA3011+006009009GF106991041021001501001021MW1021REMSYN01784805 81310 81020
0166010570999991973062718004+69367+024433FM-12+028599999V0209991C00001003001CN0750001N9+01401+01001999999ADDAA199000391AY161999GA1041+001509049GA2031+001509049GA3031+003009039GF106991999001001501021001KA1999M+01701MW1021REMSYN02379317 84405 83405 83310EQDQ01+000032SCOTLC
0073010570999991973062812004+69367+024433FM-12+028599999V0200401N00101003001CN0060001N9+01201+01201999999ADDAY141999GA1081+003009079GF108991081061002501999999MW1101REMSYN00588710
0103010570999991973062818004+69367+024433FM-12+028599999V0209991C00001003001CN0200001N9+01301+01201999999ADDAA199999929AY121999GA1081+003009079GF108991081061002501999999KA1999M+01401MW1101REMSYN01179714 88710
0125010570999991973062918004+69367+024433FM-12+028599999V0200401N00101220001CN0750001N9+01301+00401999999ADDAA199000091AY111999GA1011+001509089GA2011+003009039GF102991011021001501081999KA1999M+01501MW1021REMSYN01770015 81805 81310
0101010570999991973070212004+69367+024433FM-12+028599999V0202201N00261220001CN0750001N9+02301+01301999999ADDAY121999GA1031+004509029GA2011+006009009GF106991021011001501001061MW1021REMSYN01712805 83215 81020
0069010570999991973070318004+69367+024433FM-12+028599999V0200401N001019999999N0750001N9+99999+99999999999ADDAY181999GF107991999999999999999999MW1021REMSYN017QOUAQIIPO   UNOUQ
0073010570999991973070412004+69367+024433FM-12+028599999V0203601N00101003001CN0200001N9+01001+01001999999ADDAY161999GA1081+003009079GF108991081061002501999999MW1631REMSYN00588710
0103010570999991973070418004+69367+024433FM-12+028599999V0203601N00101003001CN0250001N9+00801+00801999999ADDAA199009091AY161999GA1081+003009079GF108991081061002501999999KA1999M+01201MW1601REMSYN01170912 88710
0117010570999991973070512004+69367+024433FM-12+028599999V0209991C00001001501CN0750001N9+01401+00801999999ADDAY121999GA1051+001509089GA2021+004509029GA3021+006009009GF107991051021001501001061MW1021REMSYN01785805 82215 82020
0081010570999991973070712004+69367+024433FM-12+028599999V0202001N01131220001CN9999999N9+02501+00901999999ADDGA1011+003009089GA2011+006009029GF102991011011002501001051REMSYN01181810 81220
0103010570999991973070718004+69367+024433FM-12+028599999V0202201N00101220001CN0750001N9+02501+00901999999ADDAA199000091AY101999GA1011+006009009GF101991011001004501001011KA1999M+02501MW1021REMSYN01170025 81020
0057010570999991973070812004+69367+024433FM-12+028599999V0202401N00261220001CN0750001N9+02601+00701999999ADDAY101999GF100991001001999999001001MW1021REMSYN00580/89
0122010570999991973070818004+69367+024433FM-12+028599999V0202201N00261220001CN0550001N9+02501+01001999999ADDAA199000091AY101999GA1011+006009009GF101991001001999999001011KA1999M+02701MW1051REMSYN01170027 81020EQDQ01+000942SCOLCB
0073010570999991973070912004+69367+024433FM-12+028599999V0202401N00261220001CN0750001N9+02401+01001999999ADDAY101999GA1041+003009089GF104991041011002501001001MW1021REMSYN00584810
0144010570999991973071018004+69367+024433FM-12+028599999V0202201N00101220001CN0750001N9+02401+00201999999ADDAA199000091AY101999GA1011+006009009GA2011+006009029GF102991001001999999001051KA1999M+02501MW1021REMSYN01770025 81020 81220EQDQ01+000942SCOLCB
0176010570999991973071106004+69367+024433FM-12+028599999V0202201N00101220001CN0750001N9+01801+00301999999ADDAA199000091AJ100009199999999AL10699999AY101999GA1011+004509039GA2021+006009009GF103991011001004501081011IA1009IA2999+00709KA1999N+00901MW1021REMSYN02320700 70009 81315 82020
0117010570999991973071112004+69367+024433FM-12+028599999V0202701N00101220001CN0750001N9+02401+00301999999ADDAY101999GA1011+003009089GA2011+006009029GA3011+006009009GF103991011011002501001051MW1021REMSYN01781810 81220 81020
0103010570999991973071318004+69367+024433FM-12+028599999V0200401N00101003001CN0750001N9+01201+00901999999ADDAA199000091AY161999GA1081+003009079GF108991081061001501999999KA1999M+01201MW1021REMSYN01170012 88710
0125010570999991973071618004+69367+024433FM-12+028599999V0209991C00001001501CN0300001N9+01501+01401999999ADDAA199004091AY191999GA1061+001509079GA2031+003009049GF106991031061001501021001KA1999M+02301MW1601REMSYN01770423 86705 83410
0176010570999991973071806004+69367+024433FM-12+028599999V0201401N00101075001CN0750001N9+01801+01401999999ADDAA199002091AJ100009199999999AL10699999AY161999GA1021+001509089GA2031+003009009GF105991021011001501001021IA1089IA2999+00909KA1999N+01101MW1021REMSYN02320910 70211 82805 83010
0043010570999991973072012004+69367+024433FM-12+028599999V0201401N00101220001CN0250001N9+02701+00701999999ADDAY101999GF100991001001999999001001MW1051
0125010570999991973072018004+69367+024433FM-12+028599999V0201401N00101220001CN0750001N9+02401+00501999999ADDAA199000091AY101999GA1021+001509089GA2011+006009009GF103991021021001501001011KA1999M+02601MW1021REMSYN01770026 82805 81020
0095010570999991973072118004+69367+024433FM-12+028599999V0201401N00051220001CN0150001N9+02201+01501999999ADDAY101999GA1011+001509089GA2011+006009009GF102991011011001501001011MW1051REMSYN01181805 81020
0095010570999991973072212004+69367+024433FM-12+028599999V0201401N00101220001CN0750001N9+02301+00401999999ADDAY101999GA1011+003009009GA2021+006009029GF103991011001002501001021MW1021REMSYN01181010 82220
0125010570999991973072218004+69367+024433FM-12+028599999V0209991C00001220001CN0750001N9+02201+00501999999ADDAA199000091AY101999GA1021+003009009GA2021+006009029GF104991021001002501001021KA1999M+02401MW1021REMSYN01770024 82010 82220
0063010570999991973072306004+69367+024433FM-12+028599999V0201401N00101220001CN0750001N9+01701+00901999999ADDAY141999GF100991001001999999001001MW1021REMSYN0112?500 70007
0095010570999991973072412004+69367+024433FM-12+028599999V0201401N00101030001CN0750001N9+01901+00201999999ADDAY121999GA1031+008009089GA2021+003009049GF105991031021001501021001MW1021REMSYN01183895 82410
0147010570999991973072418004+69367+024433FM-12+028599999V0209991C00001006001CN0750001N9+01601+01201999999ADDAA199014091AY191999GA1021+001509089GA2021+003009049GA3021+006009009GF106991021011001501021021KA1999M+02401MW1021REMSYN02371424 82805 82410 82020
0144010570999991973072512004+69367+024433FM-12+028599999V0200901N00101003001CN0750001N9+01301+01101999999ADDAA106027091AY191999GA1041+001509059GA2031+003009049GF107991041051001501021001KA1999M+02201MW1021REMSYN01772722 84605 83410EQDQ01  02703PRCP99
0073010570999991973072712004+69367+024433FM-12+028599999V0203601N00101220001CN0750001N9+01201+00301999999ADDAY121999GA1041+001509089GF104991041021001501001001MW1021REMSYN00584805
0095010570999991973072812004+69367+024433FM-12+028599999V0203601N00101220001CN0750001N9+01401+00401999999ADDAY121999GA1011+001509089GA2021+006009009GF103991011011001501001021MW1021REMSYN01181805 82020
0176010570999991973073006004+69367+024433FM-12+028599999V0209991C00001006001CN0750001N9+01201+00701999999ADDAA199000091AJ100009199999999AL10699999AY141999GA1031+001509089GA2041+006009039GF107991031011001501051001IA1089IA2999+00309KA1999N+00401MW1021REMSYN02320310 70004 83805 84320
0125010570999991973080218004+69367+024433FM-12+028599999V0203201N00151075001CN0750001N9+00901+00401999999ADDAA199010091AY181999GA1021+001509099GA2011+006009009GF105991021031001501001021KA1999M+01401MW1021REMSYN01771014 82905 81020
0147010570999991973080318004+69367+024433FM-12+028599999V0200401N00151003001CN0750001N9+00901+00401999999ADDAA199999929AY181999GA1031+001509099GA2021+003009059GA3011+006009029GF106991031031001501001091KA1999M+01201MW1021REMSYN02379712 83905 82  0 81220
0198010570999991973080406004+69367+024433FM-12+028599999V0203601N00101006001CN0750001N9+00701+00301999999ADDAA199000091AJ100009199999999AL10699999AY121999GA1031+001509099GA2021+003009999GA3011+006009049GF106991031031001501021001IA1009IA2999+00009KA1999N+00201MW1021REMSYN02920000 70002 83905 82/10 81420
0114010570999991973080412004+69367+024433FM-12+028599999V0209991C000019999999N0750001N9+01201+00301999999ADDAY121999GA1041+001509089GA2041+003009059GF108991999021001501001001MW1021REMSYN01184805 84  0EQDQ01+000042SCOTLC
0126010570999991973080506004+69367+024433FM-12+028599999V0201401N00101220001CN0750001N9+00901+00701999999ADDAJ100009199999999AL10699999AY141999GF105991011061001501051091IA1009IA2999-00209MW1021REMSYN02925200 -1051 81100 82320 82130
0095010570999991973080512004+69367+024433FM-12+028599999V0201401N00101006001CN0750001N9+01301+00801999999ADDAY161999GA1011+003009089GA2071+006009049GF108991011011002501021001MW1021REMSYN01181810 87420
0176010570999991973080606004+69367+024433FM-12+028599999V0201401N00101006001CN0750001N9+01301+01101999999ADDAA199003091AJ100009199999999AL10699999AY161999GA1041+001509099GA2021+006009019GF106991041031001501001091IA1089IA2999+01009KA1999N+01101MW1021REMSYN02321010 70311 84905 82120
0117010570999991973080612004+69367+024433FM-12+028599999V0209991C00001003001CN0750001N9+01601+00801999999ADDAY121999GA1031+001509099GA2021+003009059GA3021+006009049GF107991031031001501021001MW1021REMSYN01783905 82  0 82420
0096010570999991973080618004+69367+024433FM-12+028599999V0201401N00101220001CN0750001N9+01601+00901999999ADDAA199001091AY181999GF105991021031001501081091KA1999M+01801MW1021REMSYN02070118 8290NTQPIWC 72
0125010570999991973080718004+69367+024433FM-12+028599999V0201601N001519999999N0750001N9+01501+01501999999ADDAA199003091AY191999GA1011+003009039GA2041+006009009GF105991011001002501081031KA1999M+01801MW1021REMSYN01770318 81310 84020
0176010570999991973080806004+69367+024433FM-12+028599999V0202701N00101003001CN0750001N9+01101+00501999999ADDAA199001091AJ100009199999999AL10699999AY161999GA1041+001509059GA2041+003009009GF108991041051001501001031IA1089IA2999+00709KA1999N+00901MW1021REMSYN02320710 70109 84605 84010
0154010570999991973081006004+69367+024433FM-12+028599999V0209991C00001220001CN0750001N9+00701+00601999999ADDAA199002091AJ100009199999999AL10699999AY161999GA1041+001509089GF104991041021001501001001IA1089IA2999+00109KA1999N+00201MW1021REMSYN01720110 70202 84805
0117010570999991973081012004+69367+024433FM-12+028599999V0201801N00151220001CN0300001N9+01301+00201999999ADDAY121999GA1021+001509089GA2011+003009059GA3011+006009009GF104991021011001501001021MW1021REMSYN01782805 81  0 81020
0095010570999991973081612004+69367+024433FM-12+028599999V0203601N00101001501CN0750001N9+01101+00301999999ADDAY121999GA1051+001509089GA2011+003009009GF106991051021001501001011MW1021REMSYN01185805 81010
0147010570999991973082218004+69367+024433FM-12+028599999V0202701N00101006001CN0750001N9+00801-00101999999ADDAA199000191AY181999GA1021+001509089GA2031+003009039GA3011+006009009GF106991021011001501041021KA1999M+01001MW1021REMSYN02379110 82805 83310 81020
0198010570999991973082506004+69367+024433FM-12+028599999V0203601N00261075001CN0750001N9+00401+00001999999ADDAA199000191AJ100009199999999AL10699999AY161999GA1021+001509089GA2021+003009039GA3011+006009009GF105991021021001501031031IA1009IA2999+00309KA1999N+00301MW1021REMSYN02920300 79103 82805 82310 81020
0198010570999991973082806004+69367+024433FM-12+028599999V0209991C00001030001CN0750001N9+00501+00401999999ADDAA199000091AJ100009199999999AL10699999AY121999GA1021+001509089GA2031+003009049GA3021+003009039GF107991021011001501071001IA1089IA2999-00309KA1999N-00101MW1021REMSYN02925310 70051 82805 83410 82310
0114010570999991973082812004+69367+024433FM-12+028599999V0209991C000019999999N0750001N9+01201+00201999999ADDAY121999GA1031+001509089GA2031+003009059GF106991999011001501001001MW1021REMSYN01183805 83  0EQDQ01+000032SCOTLC
0125010570999991973090418004+69367+024433FM-12+028599999V0201401N00101003001CN0750001N9+00801+00101999999ADDAA199999929AY161999GA1031+001509079GA2051+003009049GF108991031061001501021001KA1999M+01301MW1021REMSYN01779713 83705 85410
0117010570999991973092306004+69367+024433FM-12+028599999V0209991C00001012001CN0750001N9+00101-00201102951ADDAA199999929AY111999GA1061+012009059GF106991061051012501001001KA1999N-00201MD1310091+9999MW1011REMSYN01179752 86640
0073010570999991973100212004+69367+024433FM-12+028599999V0209991C00001030001CN0750001N9+00301+00201999999ADDAY171999GA1041+003009049GF106991021071001501021001MW1021REMSYN00584410
0125010570999991973100218004+69367+024433FM-12+028599999V0209991C00001220001CN0750001N9+00001-00101999999ADDAA199999929AY121999GA1011+001509059GA2011+060009039GF102991011051001501031001KA1999M+00501MW1021REMSYN01779705 81605 81370
0095010570999991973100412004+69367+024433FM-12+028599999V0209991C00001003001CN0750001N9+00601-00201999999ADDAY121999GA1031+001509079GA2031+003009049GF106991031061001501021001MW1021REMSYN01183705 83410
0095010570999991973100612004+69367+024433FM-12+028599999V0203201N00261220001CN0750001N9+00101-00501999999ADDAY181999GA1011+003009089GA2011+006009009GF102991011021002501001021MW1021REMSYN01181810 81020
0125010570999991973100618004+69367+024433FM-12+028599999V0202701N00101220001CN0750001N9-00301-00501999999ADDAA199999929AY121999GA1021+003009089GA2021+006009009GF104991021011001501001021KA1999M+00101MW1021REMSYN01779701 82810 82020
0188010570999991973100706004+69367+024433FM-12+028599999V0203201N00101220001CN0750001N9-00401-00501999999ADDAA199999929AJ100009199999999AY181999GA1021+001509089GA2011+003009039GA3011+006009009GF104991021011001501081021IA1139IA2999-00709KA1999N-00601MW1021REMSYN02925730 79756 82805 81310 81020
0117010570999991973100712004+69367+024433FM-12+028599999V0202701N00101220001CN0750001N9+00001-00601999999ADDAY101999GA1011+001509089GA2011+003009039GA3011+006009009GF103991011021001501081051MW1021REMSYN01781805 81310 81020
0125010570999991973100718004+69367+024433FM-12+028599999V0209991C00001220001CN0750001N9-00601-00801999999ADDAA199000091AY101999GA1011+003009039GA2011+006009029GF102991011001002501081081KA1999M+00001MW1021REMSYN01770000 81310 81220
0166010570999991973100806004+69367+024433FM-12+028599999V0209991C00001220001CN0750001N9-01001-01001999999ADDAA199000091AJ100009199999999AY101999GA1011+001509089GA2021+003009039GF104991011011001501081081IA1139IA2999-01109KA1999N-01201MW1021REMSYN02326130 70062 81805 82310
0117010570999991973100812004+69367+024433FM-12+028599999V0202701N00101030001CN0400001N9-00201-00701999999ADDAY181999GA1021+001509099GA2021+003009039GA3011+006009009GF106991031031001501081011MW1851REMSYN01782905 82310 81020
0147010570999991973100818004+69367+024433FM-12+028599999V0209991C00001220001CN0750001N9-00901-01101999999ADDAA199000291AY181999GA1011+001509089GA2011+003009039GA3011+006009009GF103991011011001501081021KA1999M-00201MW1021REMSYN02379252 81805 81310 81020
0095010570999991973100912004+69367+024433FM-12+028599999V0203601N00261220001CN0750001N9-00101-00601999999ADDAY111999GA1011+003009089GA2021+006009009GF103991011011002501001021MW1021REMSYN01181810 82020
0125010570999991973100918004+69367+024433FM-12+028599999V0203601N00101220001CN0750001N9-00601-00701999999ADDAA199000091AY101999GA1011+003009089GA2011+004509039GF102991011011002501061001KA1999M-00101MW1021REMSYN01770051 81810 81315
0117010570999991973101012004+69367+024433FM-12+028599999V0203601N00101006001CN0750001N9-00401-00801999999ADDAY181999GA1011+001509089GA2011+001509099GA3041+006009019GF106991021031001501001091MW1021REMSYN01781805 81905 84120
0125010570999991973101118004+69367+024433FM-12+028599999V0203201N00101220001CN0750001N9-01301-01301999999ADDAA199000091AY111999GA1011+003009089GA2031+006009029GF104991011011002501001081KA1999M-00201MW1021REMSYN01770052 81810 83220
0114010570999991973101312004+69367+024433FM-12+028599999V0203601N00101220001CN0750001N9-00701-00901999999ADDAY111999GA1021+006009029GA2021+006009009GF104991001001999999001081MW1021REMSYN01182220 82020EQDQ01+000942SCOLCB
0073010570999991973101412004+69367+024433FM-12+028599999V0201801N00101003001CN0400001N9-00201-00301999999ADDAY171999GA1081+003009049GF108991081001002501021999MW1701REMSYN00588410
0103010570999991973101418004+69367+024433FM-12+028599999V0201801N00101003001CN0300001N9-00101-00101999999ADDAA199000191AY171999GA1081+003009079GF108991081061002501999999KA1999M-00101MW1711REMSYN01179151 88710
0073010570999991973101512004+69367+024433FM-12+028599999V0209991C00001003001CN0050001N9-00201-00201999999ADDAY171999GA1081+003009049GF108991081001002501021999MW1711REMSYN00588510
0103010570999991973101518004+69367+024433FM-12+028599999V0202701N00101003001CN0060001N9-00401-00401999999ADDAA199001091AY171999GA1081+003009049GF108991081001002501021999KA1999M-00201MW1701REMSYN01170152 88510
0117010570999991973101812004+69367+024433FM-12+028599999V0209991C00001003001CN0750001N9-00701-00701999999ADDAY181999GA1011+001509089GA2011+001509099GA3051+003009039GF107991021031001501071999MW1021REMSYN01781805 81905 85310
0103010570999991973101818004+69367+024433FM-12+028599999V0209991C00001220001CN0750001N9-01101-01101999999ADDAA199999929AY171999GA1041+001509059GF104991041051001501001001KA1999M-00701MW1021REMSYN01179757 84605
0073010570999991973101912004+69367+024433FM-12+028599999V0209991C00001220001CN0750001N9-00901-01001999999ADDAY121999GA1021+003009039GF102991021001002501031001MW1021REMSYN00582310
0081010570999991973102118004+69367+024433FM-12+028599999V0209991C00001220001CN0750001N9-01901-02001999999ADDAA199000091AY101999GF100991001001999999001001KA1999M-01501MW1021REMSYN00570065
0114010570999991973102312004+69367+024433FM-12+028599999V0203001N00051006001CN0750001N9-00101-00201999999ADDAY171999GA1031+001509049GA2041+006009039GF107991999001001501021001MW1021REMSYN01183405 84320EQDQ01+000032SCOTLC
0081010570999991973102318004+69367+024433FM-12+028599999V0209991C00001220001CN0750001N9-01301-01401999999ADDAA199000691AY171999GF100991001001999999001001KA1999M-00101MW1021REMSYN00579651
0043010570999991973102412004+69367+024433FM-12+028599999V0209991C00001075001CN0750001N9-01001-01001999999ADDAY121999GF105991021061001501001021MW1021
0068010570999991973102818004+69367+024433FM-12+028599999V0201801N00151220001CN0750001N9-00101-00401999999ADDAA199999929AY161999GF100991001001999999001001MW1021REMSYN00579754
0149010570999991973110106004+69367+024433FM-12+028599999V0202001N00151006001CN0750001N9+00401+00101999999ADDAA199000091AY121999GA1031+003009059GA2031+006009009GF106991021051002501001021IA1199IA2999-00209KA1999N-00101MW1021REMSYN02325263 70051 83  0 83020
0117010570999991973110812004+69367+024433FM-12+028599999V0209991C00001030001CN0750001N9-02601-02801999999ADDAY121999GA1011+001509089GA2031+003009039GA3031+003009049GF107991011011001501071999MW1021REMSYN01781805 83310 83410
0103010570999991973111018004+69367+024433FM-12+028599999V0203201N00261075001CN0750001N9-00501-00801999999ADDAA199000691AY181999GA1031+003009009GF105991021071001501001031KA1999M-00201MW1021REMSYN01179652 83010
0073010570999991973111212004+69367+024433FM-12+028599999V0201801N00101220001CN0750001N9-01501-01601999999ADDAY101999GA1011+001509079GF101991011061001501001001MW1021REMSYN00581705
0073010570999991973120512004+69367+024433FM-12+028599999V0200901N00051220001CN0030001N9-03401-03401999999ADDAY141999GA1031+003009079GF103991031061002501001001MW1481REMSYN00583710
0073010570999991973122612004+69367+024433FM-12+028599999V0209991C00001001501CN0050001N9-00801-00801999999ADDAY171999GA1081+001509049GF108991081001001501021001MW1701REMSYN00588405
