0076010530999991973010100004+70683+023683FM-12+0070ENHF V0201401N00411004201CN0200001N9+00001-00101098901ADDAY181999GF108991081091004501999999MD1710502+9999MW1851EQDQ01+000502APC3  
0057010530999991973010103004+70683+023683FM-12+0070ENHF V0201801N00921004201CN0200001N9+00001-00301098102ADDAY181999GF108991081091004501999999MD1710801+9999MW1151
0130010530999991973010106004+70683+023683FM-12+0070ENHF V0209991C00001004201CN0200001N9+00101+00001999999ADDAA199003091AY181999GF108991081091004501999999KA1999N+00001MD1710612+9999MW1151REMSYN00570300EQDQ01+097493APOSLPQ02+000612APC3  
0076010530999991973010109004+70683+023683FM-12+0070ENHF V0203201N01021004201CN0200001N9+00101+00001098191ADDAY181999GF108991081091004501999999MD1210702+9999MW1831EQDQ01+000702APC3  
0106010530999991973010112004+70683+023683FM-12+0070ENHF V0203601N00971004201CN0300001N9+99999+99999100072ADDAY181999GF107991071091004501001001MD1210992+9999MW1161REMSYN00599188EQDQ01+100073APOSLPQ02+000992APC3  
0057010530999991973010118004+70683+023683FM-12+0070ENHF V0201801N00301220001CN0700001N9-00101-00501100741ADDAY181999GF100991001001999999001001MD1010071+9999MW1011
0076010530999991973010203004+70683+023683FM-12+0070ENHF V0202001N00771220001CN0750001N9+00101-00301098931ADDAY101999GF100991001001999999001001MD1710682+9999MW1021EQDQ01+000682APC3  
0081010530999991973010206004+70683+023683FM-12+0070ENHF V0202301N01131004201CN0040001N9+00301+00001098651ADDAA199000091AY121999GF108991081091004501999999KA1999N-00101MD1710281+9999MW1161
0057010530999991973010209004+70683+023683FM-12+0070ENHF V0202301N013819999999N0100001N9+00401-00101098451ADDAY181999GF108991081091999999999999MD1510201+9999MW1831
0057010530999991973010212004+70683+023683FM-12+0070ENHF V0202501N01751004201CN0100001N9+00301-00201098501ADDAY181999GF108991081091004501999999MD1010001+9999MW1811
0100010530999991973010218004+70683+023683FM-12+0070ENHF V0203601N00721002101CN0040001N9-00101-00301099081ADDAA199007091AY181999GF108991081091002501999999KA1999M+00401MD1310532+9999MW1851EQDQ01+000532APC3  
0057010530999991973010300004+70683+023683FM-12+0070ENHF V0203601N00461002401CN0050001N9-00301-00701099241ADDAY181999GF109991091999999999999999MD1210081+9999MW1161
0057010530999991973010303004+70683+023683FM-12+0070ENHF V0203401N00821002401CN0100001N9-00301-00601099351ADDAY181999GF109991091999999999999999MD1210111+9999MW1851
0057010530999991973010312004+70683+023683FM-12+0070ENHF V0202701N00971004201CN0400001N9-00301-01001100201ADDAY181999GF107991071091004501001001MD1210251+9999MW1151
0057010530999991973010315004+70683+023683FM-12+0070ENHF V0203201N01021004201CN0100001N9-00301-00901100531ADDAY181999GF108991081091004501999999MD1210351+9999MW1151
0057010530999991973010318004+70683+023683FM-12+0070ENHF V0203001N00821004201CN0015001N9-00201-00601100751ADDAY181999GF108991081091004501999999MD1210221+9999MW1851
0057010530999991973010400004+70683+023683FM-12+0070ENHF V0202701N00661002101CN0050001N9-00301-00401100951ADDAY181999GF108991081091002501999999MD1210091+9999MW1851
0057010530999991973010403004+70683+023683FM-12+0070ENHF V0202701N00461004201CN0100001N9-00101-00301100821ADDAY181999GF108991081091004501999999MD1710131+9999MW1151
0076010530999991973010409004+70683+023683FM-12+0070ENHF V0201801N003019999999N0750001N9-00201-01501099921ADDAY121999GF107991021001012501031081MD1710552+9999MW1011EQDQ01+000552APC3  
0057010530999991973010412004+70683+023683FM-12+0070ENHF V0202301N00361015001CN0750001N9-00201-01501099351ADDAY121999GF108991081001017501071999MD1710601+9999MW1021
0057010530999991973010415004+70683+023683FM-12+0070ENHF V0201801N007719999999N0750001N9-00101-01101098771ADDAY121999GF108991081001017501999999MD1710581+9999MW1021
0057010530999991973010418004+70683+023683FM-12+0070ENHF V0202701N00251007501CN0500001N9-00101-00201098441ADDAY181999GF108991081091008001999999MD1710331+9999MW1151
0057010530999991973010500004+70683+023683FM-12+0070ENHF V0202501N00561002101CN0030001N9+00101+00001097991ADDAY181999GF108991081091002501999999MD1610071+9999MW1841
0057010530999991973010503004+70683+023683FM-12+0070ENHF V0202501N00721002101CN0050001N9+00301+00101098021ADDAY181999GF108991081091002501999999MD1310031+9999MW1811
0095010530999991973010506004+70683+023683FM-12+0070ENHF V0200501N01641002101CN0030001N9+00101+00001098171ADDAA199008091AY181999GF108991081091002501999999KA1999N-00101MD1210151+9999MW1831REMSYN005914*7
0071010530999991973010509004+70683+023683FM-12+0070ENHF V0200601N01641002101CN0600001N9-00101-00401099211ADDAY121999GF108991081091002501999999MD1211041+9999MW1151REMSYN00599104
0071010530999991973010512004+70683+023683FM-12+0070ENHF V0200501N00771024001CN0600001N9-00201-00901099791ADDAY121999GF108991041051008001071999MD1210581+9999MW1021REMSYN00591427
0057010530999991973010515004+70683+023683FM-12+0070ENHF V0200201N00561004201CN0300001N9-00301-00601099871ADDAY181999GF108991061091004501071999MD1010101+9999MW1151
0057010530999991973010603004+70683+023683FM-12+0070ENHF V0202701N00411004201CN0030001N9-00301-00501100341ADDAY181999GF108991081091004501999999MD1710121+9999MW1851
0081010530999991973010606004+70683+023683FM-12+0070ENHF V0200901N00461004201CN0300001N9-00401-00701100321ADDAA199001091AY181999GF108991081091004501999999KA1999N-00401MD1510021+9999MW1021
0057010530999991973010609004+70683+023683FM-12+0070ENHF V0200701N00251004201CN0300001N9-00401-00901100651ADDAY121999GF108991081091004501999999MD1210331+9999MW1151
0057010530999991973010612004+70683+023683FM-12+0070ENHF V0203201N00461012001CN0500001N9-00401-01101101051ADDAY121999GF108991061081008001001021MD1210401+9999MW1151
0057010530999991973010615004+70683+023683FM-12+0070ENHF V0209991C00001012001CN0600001N9-00501-00801101241ADDAY121999GF108991061081008001001021MD1210191+9999MW1151
0057010530999991973010700004+70683+023683FM-12+0070ENHF V0202701N00301220001CN0500001N9-00401-00601101851ADDAY181999GF104991041091004501001001MD1110101+9999MW1151
0057010530999991973010703004+70683+023683FM-12+0070ENHF V0203201N00301004201CN0500001N9-00401-00601101751ADDAY181999GF106991061091004501001001MD1810101+9999MW1151
0081010530999991973010706004+70683+023683FM-12+0070ENHF V0202401N00101004201CN0500001N9-00301-00801101381ADDAA199001091AY181999GF108991081091004501999999KA1999N-00401MD1710371+9999MW1021
0057010530999991973010709004+70683+023683FM-12+0070ENHF V0202001N00411004201CN0100001N9-00201-00601101041ADDAY181999GF108991081091004501999999MD1710341+9999MW1851
0106010530999991973010712004+70683+023683FM-12+0070ENHF V0202001N00771024001CN0400001N9-00401-00901099852ADDAY181999GF108991021061002501021999MD1710992+9999MW1151REMSYN00599119EQDQ01+099853APOSLPQ02+000992APC3  
0076010530999991973010803004+70683+023683FM-12+0070ENHF V0203601N01281004201CN0200001N9-00201-00701099961ADDAY181999GF107991071091004501999999MD1210512+9999MW1151EQDQ01+000512APC3  
0095010530999991973010806004+70683+023683FM-12+0070ENHF V0203601N01591004201CN0100001N9-00301-00601100361ADDAA199007091AY181999GF108991081091004501999999KA1999N-00301MD1210401+9999MW1381REMSYN005914*7
0071010530999991973010812004+70683+023683FM-12+0070ENHF V0203601N01131004201CN0500001N9-00501-01401101241ADDAY181999GF106991061091004501001001MD1210301+9999MW1151REMSYN00591436
0095010530999991973010818004+70683+023683FM-12+0070ENHF V0203601N00721004201CN0300001N9-00501-01301101511ADDAA199999929AY131999GF106991061091004501001001KA1999M-00301MD1210101+9999MW1151REMSYN00591426
0057010530999991973010903004+70683+023683FM-12+0070ENHF V0201801N00511012001CN0500001N9-00401-00801100991ADDAY121999GF108991081081008001999999MD1710451+9999MW1031
0081010530999991973010906004+70683+023683FM-12+0070ENHF V0202001N00821012001CN0500001N9-00301-00601100301ADDAA199000091AY121999GF108991051081008001071999KA1999N-00601MD1710681+9999MW1021
0057010530999991973010909004+70683+023683FM-12+0070ENHF V0201801N01031007501CN0400001N9-00101-00401099581ADDAY121999GF108991081091008001999999MD1710721+9999MW1151
0057010530999991973010912004+70683+023683FM-12+0070ENHF V0202701N00721007501CN0400001N9+00301+00101099111ADDAY171999GF108991081071008001999999MD1710471+9999MW1601
0057010530999991973010915004+70683+023683FM-12+0070ENHF V0202701N00921004201CN0200001N9+00301+00001099061ADDAY171999GF108991081071004501999999MD1710051+9999MW1601
0057010530999991973011003004+70683+023683FM-12+0070ENHF V0203201N00721002101CN0600001N9-00101-00601099271ADDAY181999GF108991081091002501999999MD1210391+9999MW1151
0095010530999991973011006004+70683+023683FM-12+0070ENHF V0203201N00411002101CN0600001N9+00101-00101099411ADDAA199005091AY181999GF108991081091002501999999KA1999N-00501MD1210141+9999MW1151REMSYN005914*6
0076010530999991973011009004+70683+023683FM-12+0070ENHF V0203401N00611007501CN0700001N9+00101-00501100321ADDAY121999GF108991081031008001999999MD1210911+9999MW1021EQDQ01+000702APC3  
0057010530999991973011012004+70683+023683FM-12+0070ENHF V0203401N00671220001CN0700001N9+00001-00301100841ADDAY121999GF101991011031008001001011MD1210521+9999MW1021
0081010530999991973011106004+70683+023683FM-12+0070ENHF V0202701N00561002101CN0200001N9+00501+00301100921ADDAA199010091AY171999GF108991081071002501999999KA1999N-00101MD1610121+9999MW1601
0057010530999991973011109004+70683+023683FM-12+0070ENHF V0202701N00871004201CN0010001N9+00501+00301100931ADDAY161999GF108991081071004501999999MD1410001+9999MW1611
0071010530999991973011112004+70683+023683FM-12+0070ENHF V0202701N01231004201CN0100001N9+00501+00201100961ADDAY161999GF108991081071004501999999MD1310051+9999MW1601REMSYN00591446
0057010530999991973011115004+70683+023683FM-12+0070ENHF V0202701N01231004201CN0100001N9+00501+00301101121ADDAY161999GF108991081071004501999999MD1210161+9999MW1601
0100010530999991973011118004+70683+023683FM-12+0070ENHF V0202701N01131004201CN0200001N9+00501+00201101141ADDAA199004091AY161999GF108991081071004501999999KA1999M+99999MD1210021+9999MW1601EQDQ01 +00102ATMX  
0057010530999991973011209004+70683+023683FM-12+0070ENHF V0202701N01341004201CN0600001N9+00501+00201100571ADDAY181999GF108991081091004501999999MD1710281+9999MW1151
0071010530999991973011212004+70683+023683FM-12+0070ENHF V0202601N01131004201CN0400001N9+00601+00101100231ADDAY181999GF108991081091004501999999MD1710421+9999MW1151REMSYN00591437
0057010530999991973011215004+70683+023683FM-12+0070ENHF V0202701N01181004201CN0100001N9+00401+00201100041ADDAY181999GF108991081091004501999999MD1510191+9999MW1801
0095010530999991973011218004+70683+023683FM-12+0070ENHF V0202701N01131004201CN0080001N9+00201-00101100031ADDAA199002091AY181999GF108991081091004501999999KA1999M+00601MD1710011+9999MW1811REMSYN005914*6
0071010530999991973011300004+70683+023683FM-12+0070ENHF V0203201N00721004201CN0400001N9+00201-00301100331ADDAY181999GF107991071091004501001001MD1210481+9999MW1151REMSYN00591437
0057010530999991973011303004+70683+023683FM-12+0070ENHF V0202701N00611004201CN0300001N9+00201+00001100781ADDAY181999GF108991081091004501999999MD1210451+9999MW1151
0095010530999991973011306004+70683+023683FM-12+0070ENHF V0203201N00921004201CN0400001N9+00101-00201101361ADDAA199004091AY181999GF108991081091004501999999KA1999N+00001MD1210581+9999MW1151REMSYN00591426
0057010530999991973011309004+70683+023683FM-12+0070ENHF V0203401N00721007501CN0700001N9+00001-00401101901ADDAY121999GF108991071091008001999999MD1210641+9999MW1021
0057010530999991973011312004+70683+023683FM-12+0070ENHF V0203401N00461007501CN0700001N9-00101-00301102301ADDAY181999GF106991061091008001001001MD1210401+9999MW1151
0057010530999991973011315004+70683+023683FM-12+0070ENHF V0203401N00461007501CN0550001N9+00101-00601102551ADDAY181999GF108991081091008001999999MD1210251+9999MW1021
0081010530999991973011318004+70683+023683FM-12+0070ENHF V0203601N00461007501CN0500001N9+00201-00401102651ADDAA199001091AY121999GF107991071091008001001001KA1999M+00201MD1210101+9999MW1021
0057010530999991973011400004+70683+023683FM-12+0070ENHF V0202701N00511007501CN0700001N9+00201-00401102551ADDAY121999GF105991051091008001001001MD1810011+9999MW1021
0057010530999991973011403004+70683+023683FM-12+0070ENHF V0202301N00301220001CN0700001N9+00001-00501102221ADDAY101999GF100991999999999999999999MD1710331+9999MW1011
0081010530999991973011406004+70683+023683FM-12+0070ENHF V0202301N00361220001CN0700001N9+00101-00601101931ADDAA199000091AY101999GF100991001001999999001001KA1999N-00101MD1710291+9999MW1021
0057010530999991973011409004+70683+023683FM-12+0070ENHF V0202301N00411021001CN0700001N9+00101-00701101651ADDAY111999GF107991071001022501071999MD1710281+9999MW1031
0057010530999991973011412004+70683+023683FM-12+0070ENHF V0202301N00561021001CN0600001N9+00401-00301101351ADDAY121999GF107991061001022501071091MD1710301+9999MW1021
0057010530999991973011415004+70683+023683FM-12+0070ENHF V0202701N00771021001CN0600001N9+00401-00301101031ADDAY121999GF108991081001022501071999MD1710321+9999MW1021
0095010530999991973011418004+70683+023683FM-12+0070ENHF V0202401N01031220001CN0600001N9+00401-00401100681ADDAA199000091AY121999GF104991041001017501041001KA1999M+00401MD1710351+9999MW1011REMSYN00591426
0071010530999991973011500004+70683+023683FM-12+0070ENHF V0202501N00871007501CN0600001N9+00501-00101100511ADDAY111999GF108991051051008001071999MD1710071+9999MW1031REMSYN005914*6
0057010530999991973011503004+70683+023683FM-12+0070ENHF V0202701N00971012001CN0500001N9+00501+00001100421ADDAY121999GF108991081081008001999999MD1710091+9999MW1151
0076010530999991973011509004+70683+023683FM-12+0070ENHF V0202701N00821004201CN0500001N9+00401+00101098342ADDAY121999GF107991071091004501001001MD1210011+9999MW1151EQDQ01+098343APOSLP
0081010530999991973011518004+70683+023683FM-12+0070ENHF V0202701N00771004201CN0300001N9+00401+00201100151ADDAA199000591AY161999GF108991081071004501999999KA1999M+00501MD1710061+9999MW1601
0057010530999991973011609004+70683+023683FM-12+0070ENHF V0203601N00461004201CN0700001N9+00101-00501100691ADDAY121999GF107991071071004501001001MD1210191+9999MW1021
0057010530999991973011615004+70683+023683FM-12+0070ENHF V0209991C00001007501CN0600001N9+00001-00501101081ADDAY121999GF108991051051008001071999MD1210121+9999MW1021
0057010530999991973011703004+70683+023683FM-12+0070ENHF V0201801N00101024001CN0700001N9+00001-00601101301ADDAY121999GF108991041051008001071999MD1410001+9999MW1021
0057010530999991973011709004+70683+023683FM-12+0070ENHF V0209999999999220001CN0700001N9-00301-01101101451ADDAY111999GF102991011011008001031001MD1210061+9999MW1021
0057010530999991973011712004+70683+023683FM-12+0070ENHF V0201501N00561220001CN0700001N9-00401-01201101501ADDAY101999GF102991011011008001001011MD1110051+9999MW1021
0057010530999991973011715004+70683+023683FM-12+0070ENHF V0201801N00411220001CN0600001N9-00401-01101101471ADDAY101999GF102991011021008001031001MD1810041+9999MW1021
0081010530999991973011718004+70683+023683FM-12+0070ENHF V0202001N00821220001CN0600001N9-00301-00901101451ADDAA199000091AY101999GF101991011011008001001001KA1999M-00201MD1710021+9999MW1021
0057010530999991973011800004+70683+023683FM-12+0070ENHF V0201801N00821220001CN0700001N9-00401-00901101501ADDAY101999GF100991001001999999001001MD1210031+9999MW1011
0057010530999991973011803004+70683+023683FM-12+0070ENHF V0201801N00671220001CN0700001N9-00301-00801101521ADDAY101999GF100991001001999999001001MD1210021+9999MW1021
0057010530999991973011806004+70683+023683FM-12+0070ENHF V0201801N00511220001CN0700001N9-00201-00601101591ADDAY101999GF100991001001999999001001MD1210071+9999MW1021
0057010530999991973011812004+70683+023683FM-12+0070ENHF V0201801N00721220001CN0700001N9-00101-00501101761ADDAY101999GF102991011011008001001011MD1210071+9999MW1021
0057010530999991973011815004+70683+023683FM-12+0070ENHF V0201801N00301060001CN0700001N9-00101-00601101851ADDAY101999GF105991011011008001031011MD1310121+9999MW1031
0081010530999991973011818004+70683+023683FM-12+0070ENHF V0200401N00101220001CN0700001N9-00401-00701101941ADDAA199000091AY101999GF105991021001017501071011KA1999M-00101MD1210091+9999MW1021
0057010530999991973011821004+70683+023683FM-12+0070ENHF V0209999999999007501CN0400001N9+00101+00001102201ADDAY171999GF107991071051008001021001MD1210151+9999MW1151
0057010530999991973011909004+70683+023683FM-12+0070ENHF V0202301N00361012001CN0750001N9+00201+00001102411ADDAY121999GF106991061081008001001001MD1210141+9999MW1021
0057010530999991973011912004+70683+023683FM-12+0070ENHF V0202501N00461220001CN0750001N9+00201-00201102491ADDAY101999GF102991011011004501041001MD1110081+9999MW1021
0057010530999991973011915004+70683+023683FM-12+0070ENHF V0202401N00511024001CN0600001N9+00301-00201102491ADDAY121999GF106991031051008001071999MD1010031+9999MW1031
0057010530999991973012003004+70683+023683FM-12+0070ENHF V0202701N00411004201CN9999999N9+00201+00001102651ADDAY181999GF108991061091004501041999MD1210031+9999MW1151
0081010530999991973012006004+70683+023683FM-12+0070ENHF V0202701N00361004201CN0600001N9+00301+00101102711ADDAA199999929AY121999GF108991061091004501999999KA1999N+00201MD1210061+9999MW1021
0057010530999991973012015004+70683+023683FM-12+0070ENHF V0209991C00001220001CN0700001N9+00101+00001102841ADDAY111999GF102991021051008001001001MD1410001+9999MW1011
0057010530999991973012109004+70683+023683FM-12+0070ENHF V0209991C00001220001CN0700001N9-00101-01101102351ADDAY101999GF100991001001999999001001MD1710101+9999MW1021
0057010530999991973012112004+70683+023683FM-12+0070ENHF V0201801N00201220001CN0700001N9-00101-01301102161ADDAY101999GF101991011001022501041001MD1710191+9999MW1021
0057010530999991973012200004+70683+023683FM-12+0070ENHF V0209991C00001220001CN0700001N9-00601-00801101871ADDAY101999GF100991001001999999001001MD1710051+9999MW1021
0057010530999991973012203004+70683+023683FM-12+0070ENHF V0202001N002519999999N0700001N9-00401-00701101861ADDAY101999GF106991061001012501031001MD1710011+9999MW1031
0057010530999991973012209004+70683+023683FM-12+0070ENHF V0202201N00361021001CN0700001N9-00301-00501101791ADDAY121999GF108991081001022501071999MD1410001+9999MW1031
0057010530999991973012212004+70683+023683FM-12+0070ENHF V0202301N00561024001CN0700001N9-00301-00501101891ADDAY121999GF105991021021008001041001MD1010081+9999MW1021
0082010530999991973012218004+70683+023683FM-12+0070ENHF V0202201N00511004201CN0300001N9+00001-00201102001ADDAA199000291AY181999GF108991081091004501999999MD1210111+9999MW1151REMSYN0050****
0057010530999991973012309004+70683+023683FM-12+0070ENHF V0209991C00001004201CN0150001N9+00101+00001102621ADDAY181999GF108991081091004501999999MD1210151+9999MW1151
0057010530999991973012312004+70683+023683FM-12+0070ENHF V0209991C00001004201CN0500001N9+00101+00001102691ADDAY181999GF108991071031004501071999MD1210081+9999MW1101
0057010530999991973012315004+70683+023683FM-12+0070ENHF V0200501N00301220001CN0600001N9-00201-00501102721ADDAY111999GF102991011031008001071001MD1110031+9999MW1101
0081010530999991973012318004+70683+023683FM-12+0070ENHF V0200901N00301220001CN0700001N9+00001-00501102681ADDAA199002091AY101999GF102991011021008001071001KA1999M+00201MD1710041+9999MW1021
0057010530999991973012400004+70683+023683FM-12+0070ENHF V0200901N00561004201CN0700001N9-00401-01001102191ADDAY111999GF106991061071004501001001MD1710251+9999MW1021
0057010530999991973012403004+70683+023683FM-12+0070ENHF V0209991C00001024001CN0700001N9-00601-01101101831ADDAY121999GF106991041071004501011001MD1710361+9999MW1021
0081010530999991973012406004+70683+023683FM-12+0070ENHF V0201601N00411004201CN0700001N9-00501-01201101351ADDAA199000091AY121999GF108991081071004501999999KA1999N-00701MD1710481+9999MW1021
0057010530999991973012409004+70683+023683FM-12+0070ENHF V0202001N009219999999N0700001N9-00301-00801100771ADDAY121999GF108991031071004501999999MD1710601+9999MW1021
0057010530999991973012412004+70683+023683FM-12+0070ENHF V0202001N00821024001CN0300001N9-00201-00701100381ADDAY121999GF108991011071004501021999MD1710391+9999MW1101
0049010530999991973012415004+70683+023683FM-12+0070ENHF V0201801N00561024001CN0300001N9-00101-00401100001ADDGF108991011071004501021999MD1710381+9999MW1021
0081010530999991973012418004+70683+023683FM-12+0070ENHF V0202001N00411009001CN0030001N9+00101-00201099671ADDAA199000291AY181999GF108991081081004501999999KA1999M+00201MD1710331+9999MW1831
0057010530999991973012500004+70683+023683FM-12+0070ENHF V0209991C00001004201CN0400001N9+00201+00001099011ADDAY121999GF108991081071004501999999MD1710321+9999MW1021
0057010530999991973012503004+70683+023683FM-12+0070ENHF V0209991C00001004201CN0400001N9+00101-00201099011ADDAY121999GF108991081071004501999999MD1510021+9999MW1021
0057010530999991973012509004+70683+023683FM-12+0070ENHF V0202701N00201004201CN0700001N9+00101-00101099321ADDAY171999GF108991081071004501999999MD1210201+9999MW1681
0057010530999991973012512004+70683+023683FM-12+0070ENHF V0202701N00461004201CN0700001N9+00101-00201099531ADDAY171999GF108991051031004501061999MD1210201+9999MW1021
0057010530999991973012515004+70683+023683FM-12+0070ENHF V0209991C00001220001CN0700001N9+99999+99999099651ADDAY111999GF103991031001022501041001MD1210121+9999MW1011
0057010530999991973012600004+70683+023683FM-12+0070ENHF V0201601N00511220001CN0700001N9-00201-00501099521ADDAY101999GF103991031001017501071001MD1810171+9999MW1021
0057010530999991973012603004+70683+023683FM-12+0070ENHF V0201801N00461024001CN0700001N9-00201-00601099391ADDAY101999GF106991031061004501071999MD1710131+9999MW1031
0081010530999991973012606004+70683+023683FM-12+0070ENHF V0201601N00461220001CN0700001N9-00501-00901099281ADDAA199000091AY111999GF103991031001017501071001KA1999N-00601MD1710111+9999MW1021
0057010530999991973012609004+70683+023683FM-12+0070ENHF V0201301N00871024001CN0300001N9-00701-01001099371ADDAY111999GF108991041071004501071999MD1210091+9999MW1151
0057010530999991973012612004+70683+023683FM-12+0070ENHF V0201101N00821024001CN0200001N9-00901-01201099381ADDAY121999GF108991031071001501071999MD1210011+9999MW1101
0057010530999991973012615004+70683+023683FM-12+0070ENHF V0201401N00561002101CN0030001N9-01001-01201099501ADDAY121999GF108991081071002501999999MD1210121+9999MW1701
0071010530999991973012700004+70683+023683FM-12+0070ENHF V0201601N00921220001CN0600001N9-01301-01901099871ADDAY111999GF102991021081008001001001MD1210101+9999MW1021REMSYN005914*6
0057010530999991973012703004+70683+023683FM-12+0070ENHF V0201101N00251220001CN0600001N9-01401-02001100131ADDAY101999GF100991001001999999001001MD1310261+9999MW1021
0081010530999991973012706004+70683+023683FM-12+0070ENHF V0201601N00301220001CN0600001N9-01501-01901100191ADDAA199000091AY101999GF100991001001999999001001KA1999N-01501MD1110061+9999MW1021
0057010530999991973012709004+70683+023683FM-12+0070ENHF V0201401N00461220001CN0500001N9-01501-01801100231ADDAY101999GF103991021011008001001041MD1210041+9999MW1101
0057010530999991973012712004+70683+023683FM-12+0070ENHF V0202001N01081220001CN0300001N9-01401-01801100191ADDAY101999GF103991021011008001041001MD1710041+9999MW1101
0057010530999991973012715004+70683+023683FM-12+0070ENHF V0201801N00411220001CN0300001N9-01401-01801100371ADDAY101999GF101991011001022501041001MD1210181+9999MW1101
0057010530999991973012803004+70683+023683FM-12+0070ENHF V0201801N00671220001CN0700001N9+99999+99999100671ADDAY121999GF102991021001017501031001MD1710051+9999MW1011
0081010530999991973012806004+70683+023683FM-12+0070ENHF V0201801N00721220001CN0700001N9-01201-01601100621ADDAA199000091AY101999GF100991001001999999001001KA1999N-01801MD1710051+9999MW1011
0057010530999991973012809004+70683+023683FM-12+0070ENHF V0201801N00671220001CN0700001N9-01101-01401100601ADDAY101999GF101991011001022501041001MD1710021+9999MW1021
0057010530999991973012812004+70683+023683FM-12+0070ENHF V0201801N00461015001CN0700001N9-00701-01101100601ADDAY111999GF107991071001017501071999MD1010001+9999MW1031
0057010530999991973012815004+70683+023683FM-12+0070ENHF V0201801N00461220001CN0700001N9-01001-01401100631ADDAY111999GF103991011001022501041021MD1210031+9999MW1011
0057010530999991973012909004+70683+023683FM-12+0070ENHF V0202001N00411220001CN0700001N9-00801-01401100131ADDAY101999GF101991001001999999001051MD1510071+9999MW1021
0057010530999991973012912004+70683+023683FM-12+0070ENHF V0202001N00461060001CN0700001N9-00801-01401100121ADDAY101999GF105991041001999999051021MD1610021+9999MW1031
0057010530999991973012915004+70683+023683FM-12+0070ENHF V0202001N00461060001CN0700001N9-00701-01301100061ADDAY111999GF105991011021008001041011MD1610051+9999MW1031
0081010530999991973012918004+70683+023683FM-12+0070ENHF V0202001N00611220001CN0700001N9-00801-01301100141ADDAA199000091AY101999GF100991001001999999001001KA1999M-00601MD1210081+9999MW1011
0057010530999991973013000004+70683+023683FM-12+0070ENHF V0202101N00361220001CN0700001N9-00701-01201100141ADDAY111999GF104991041021008001001001MD1310021+9999MW1021
0057010530999991973013003004+70683+023683FM-12+0070ENHF V0202301N00671007501CN0700001N9-00901-01301100101ADDAY121999GF106991061021008001001001MD1710041+9999MW1021
0081010530999991973013006004+70683+023683FM-12+0070ENHF V0201801N00251007501CN0700001N9-00801-01201100091ADDAA199000091AY121999GF106991061021008001001001KA1999N-00901MD1710011+9999MW1021
0057010530999991973013009004+70683+023683FM-12+0070ENHF V0202701N004119999999N0700001N9+99999+99999100151ADDAY121999GF107991071001012501041999MD1210051+9999MW1021
0081010530999991973013018004+70683+023683FM-12+0070ENHF V0202301N00201007501CN0700001N9-00201-00501100431ADDAA199999929AY171999GF108991081001008001021999KA1999M-00201MD1210111+9999MW1021
0057010530999991973013109004+70683+023683FM-12+0070ENHF V0200401N00101220001CN0750001N9-00801-00901100361ADDAY101999GF103991001001999999001061MD1710121+9999MW1021
0057010530999991973013112004+70683+023683FM-12+0070ENHF V0200901N00301220001CN0600001N9-00201-00801100181ADDAY101999GF103991011001012501041061MD1710181+9999MW1021
0095010530999991973013118004+70683+023683FM-12+0070ENHF V0201101N00721021001CN0600001N9-00101-00701099761ADDAA199000091AY121999GF108991081001022501071999KA1999M-00101MD1710161+9999MW1031REMSYN00570051
0057010530999991973020103004+70683+023683FM-12+0070ENHF V0202001N00511220001CN0700001N9+00101-00401099321ADDAY111999GF101991011061004501071001MD1810231+9999MW1011
0081010530999991973020106004+70683+023683FM-12+0070ENHF V0202001N00411004201CN0700001N9+00201-00301099301ADDAA199000091AY101999GF108991071071004501999999KA1999N-00501MD1510021+9999MW1031
0057010530999991973020109004+70683+023683FM-12+0070ENHF V0202401N00721004201CN0500001N9+00301+00101099291ADDAY161999GF107991071071004501021999MD1710011+9999MW1021
0057010530999991973020112004+70683+023683FM-12+0070ENHF V0202501N00671004201CN0500001N9+00201+00101099301ADDAY171999GF106991061031004501001001MD1410001+9999MW1151
0057010530999991973020115004+70683+023683FM-12+0070ENHF V0202401N00671004201CN0300001N9+00101+00001099361ADDAY181999GF108991081091004501999999MD1110051+9999MW1261
0081010530999991973020118004+70683+023683FM-12+0070ENHF V0202301N00461004201CN0030001N9+00101+00001099361ADDAA199003091AY181999GF108991081091004501999999KA1999M+00301MD1410001+9999MW1831
0057010530999991973020209004+70683+023683FM-12+0070ENHF V0209991C00001007501CN0700001N9-00201-00501098551ADDAY181999GF106991061031008001061001MD1710301+9999MW1021
0057010530999991973020212004+70683+023683FM-12+0070ENHF V0200901N00411024001CN0700001N9-00101-00501098101ADDAY181999GF107991011071004501071061MD1710451+9999MW1031
0081010530999991973020218004+70683+023683FM-12+0070ENHF V0201101N00411024001CN0600001N9-00301-00701097731ADDAA199001091AY121999GF108991011071004501041061KA1999M+00001MD1610061+9999MW1151
0057010530999991973020300004+70683+023683FM-12+0070ENHF V0209991C00001002401CN0040001N9-00501-00601098211ADDAY171999GF109991091999999999999999MD1210241+9999MW1711
0057010530999991973020303004+70683+023683FM-12+0070ENHF V0209991C00001220001CN0700001N9-00701-01301098461ADDAY171999GF103991031091004501001001MD1210251+9999MW1011
0070010530999991973020309004+70683+023683FM-12+0070ENHF V0202301N00101024001CN0500001N9+99999+99999099652ADDAY181999GF106991041091004501061021MD1210281+9999EQDQ01+099653APOSLP
0057010530999991973020315004+70683+023683FM-12+0070ENHF V0202701N00921007501CN0300001N9-00301-00801099501ADDAY181999GF106991061091008001001001MD1210201+9999MW1151
0081010530999991973020318004+70683+023683FM-12+0070ENHF V0202701N00671004201CN0300001N9-00301-00801099891ADDAA199001091AY181999GF108991081091004501999999KA1999M+00101MD1210391+9999MW1151
0057010530999991973020400004+70683+023683FM-12+0070ENHF V0203101N00671004201CN0100001N9-00101-00301100231ADDAY181999GF108991081091004501999999MD1210221+9999MW1851
0057010530999991973020403004+70683+023683FM-12+0070ENHF V0203601N01181001201CN0005001N9-00101-00301100661ADDAY181999GF108991081091001501999999MD1210431+9999MW1861
0095010530999991973020406004+70683+023683FM-12+0070ENHF V0203601N01391002101CN0100001N9-00401-00601100861ADDAA199003091AY181999GF108991081091002501999999KA1999N-00501MD1210201+9999MW1851REMSYN005914*7
0057010530999991973020409004+70683+023683FM-12+0070ENHF V0203601N01031004201CN0500001N9-00401-00801101011ADDAY181999GF106991061091004501001001MD1110151+9999MW1151
0071010530999991973020412004+70683+023683FM-12+0070ENHF V0200401N00411004201CN0050001N9-00501-00701100891ADDAY181999GF108991081091004501999999MD1810121+9999MW1851REMSYN00591426
0057010530999991973020415004+70683+023683FM-12+0070ENHF V0200801N00411024001CN0600001N9-00501-00801100611ADDAY121999GF108991041071004501021999MD1710281+9999MW1031
0075010530999991973020418004+70683+023683FM-12+0070ENHF V0200701N00251024001CN0600001N9-00501-00801100341ADDAA199002091AY181999GF108991041071004501021999KA1999M-00301MD1710271+9999
0057010530999991973020500004+70683+023683FM-12+0070ENHF V0201401N00611007501CN0300001N9-00501-00801099551ADDAY131999GF106991061071008001001001MD1710321+9999MW1361
0057010530999991973020503004+70683+023683FM-12+0070ENHF V0201101N00821007501CN0300001N9-00601-01001099221ADDAY131999GF106991061071008001001001MD1710331+9999MW1361
0081010530999991973020506004+70683+023683FM-12+0070ENHF V0201101N00561004201CN0040001N9-00601-00901098931ADDAA199000291AY171999GF108991081071004501999999KA1999N-00601MD1710291+9999MW1711
0057010530999991973020509004+70683+023683FM-12+0070ENHF V0201401N00411007501CN0100001N9-00501-00801098761ADDAY171999GF108991081071008001999999MD1710151+9999MW1711
0057010530999991973020512004+70683+023683FM-12+0070ENHF V0201601N00461007501CN0020001N9-00501-00801098621ADDAY171999GF108991081071008001999999MD1710141+9999MW1731
0057010530999991973020515004+70683+023683FM-12+0070ENHF V0201501N00511007501CN0050001N9-00501-00801098501ADDAY171999GF108991081071008001999999MD1810181+9999MW1721
0068010530999991973020518004+70683+023683FM-12+0070ENHF V0201401N00411004201CN0080001N9-00501-00801098501ADDAA199002091AY171999GF108991081071004501999999MD1410001+9999MW1701
0057010530999991973020600004+70683+023683FM-12+0070ENHF V0200901N00461004201CN0050001N9-00501-00701098441ADDAY171999GF108991081071004501999999MD1710031+9999MW1711
0081010530999991973020606004+70683+023683FM-12+0070ENHF V0201801N00361004201CN0050001N9-00501-00801098141ADDAA199003091AY171999GF108991081071004501999999KA1999N-00601MD1710221+9999MW1711
0057010530999991973020609004+70683+023683FM-12+0070ENHF V0201401N00361004201CN9999999N9-00501-00801098071ADDAY171999GF108991051071004501021999MD1710071+9999MW1151
0057010530999991973020612004+70683+023683FM-12+0070ENHF V0201401N00151004201CN0200001N9-00501-00801097941ADDAY171999GF108991051071004501021999MD1710131+9999MW1151
0081010530999991973020618004+70683+023683FM-12+0070ENHF V0201301N00411007501CN0700001N9-00601-00901097661ADDAA199000591AY171999GF107991071071008001999999KA1999M-00401MD1710161+9999MW1011
0057010530999991973020700004+70683+023683FM-12+0070ENHF V0209991C00001220001CN0700001N9-00801-01301097391ADDAY101999GF100991001001999999001001MD1710101+9999MW1021
0057010530999991973020703004+70683+023683FM-12+0070ENHF V0209991C00001220001CN0700001N9-00801-01301097351ADDAY101999GF100991001001999999001001MD1710041+9999MW1021
0081010530999991973020706004+70683+023683FM-12+0070ENHF V0209991C00001220001CN0700001N9-00901-01401097391ADDAA199000091AY101999GF101991011071004501001011KA1999N-01101MD1210041+9999MW1021
0057010530999991973020709004+70683+023683FM-12+0070ENHF V0209991C00001220001CN0700001N9-01101-01501097471ADDAY101999GF101991011011008001001011MD1210081+9999MW1021
0081010530999991973020718004+70683+023683FM-12+0070ENHF V0209991C00001220001CN0700001N9-01401-02101097551ADDAA199000091AY101999GF101991001001999999001011KA1999M-00901MD1810021+9999MW1021
0057010530999991973020800004+70683+023683FM-12+0070ENHF V0201101N00301220001CN0700001N9-01001-01501097501ADDAY101999GF101991001001999999001011MD1710031+9999MW1021
0081010530999991973020806004+70683+023683FM-12+0070ENHF V0202001N00201220001CN0700001N9-01001-01501097611ADDAA199000091AY101999GF101991001001999999001011KA1999N-01101MD1110041+9999MW1021
0057010530999991973020809004+70683+023683FM-12+0070ENHF V0209991C00001220001CN0700001N9-01001-01501097761ADDAY101999GF102991011011008001001011MD1110111+9999MW1021
0057010530999991973020812004+70683+023683FM-12+0070ENHF V0200401N00101220001CN0700001N9-01401-01801097861ADDAY101999GF103991011011008001031011MD1210111+9999MW1021
0057010530999991973020815004+70683+023683FM-12+0070ENHF V0200501N00151220001CN0700001N9-01601-02001097981ADDAY101999GF103991011011008001051011MD1210101+9999MW1031
0081010530999991973020818004+70683+023683FM-12+0070ENHF V0200501N00201220001CN0700001N9-01401-01801098021ADDAA199000091AY101999GF103991011011008001051011KA1999M-00801MD1210041+9999MW1021
0057010530999991973020900004+70683+023683FM-12+0070ENHF V0209991C00001024001CN0700001N9-01201-01601098091ADDAY111999GF105991011011008001051001MD1010031+9999MW1031
0057010530999991973020903004+70683+023683FM-12+0070ENHF V0201801N00301007501CN0700001N9-01201-01601098161ADDAY121999GF108991081051008001999999MD1210071+9999MW1031
0081010530999991973020906004+70683+023683FM-12+0070ENHF V0209991C00001220001CN0700001N9+99999+99999098121ADDAA199000091AY121999GF102991021011008001001001KA1999N-01601MD1710041+9999MW1011
0057010530999991973020909004+70683+023683FM-12+0070ENHF V0200901N00361060001CN0700001N9-00601-01801098191ADDAY121999GF107991041001022501021061MD1210071+9999MW1021
0057010530999991973020912004+70683+023683FM-12+0070ENHF V0201201N00201021001CN0700001N9-00601-01801098221ADDAY121999GF107991051001022501051021MD1210021+9999MW1021
0057010530999991973020915004+70683+023683FM-12+0070ENHF V0201801N00101024001CN0600001N9-00601-02001098301ADDAY121999GF107991021031008001071999MD1210071+9999MW1031
0081010530999991973021006004+70683+023683FM-12+0070ENHF V0203601N00461000601CN0003001N9-00401-01001098801ADDAA199002091AY181999GF108991081091000751999999KA1999N-00901MD1210071+9999MW1861
0057010530999991973021012004+70683+023683FM-12+0070ENHF V0201101N00301004201CN0200001N9-00401-00701099021ADDAY181999GF108991061091004501021999MD1210111+9999MW1851
0057010530999991973021015004+70683+023683FM-12+0070ENHF V0209991C00001012001CN0600001N9-00601-01001099101ADDAY181999GF108991051081008001061021MD1210081+9999MW1021
0081010530999991973021018004+70683+023683FM-12+0070ENHF V0200901N00301220001CN0700001N9-00601-01301099121ADDAA199004091AY181999GF100991001001999999001001KA1999M-00301MD1210021+9999MW1011
0057010530999991973021100004+70683+023683FM-12+0070ENHF V0201801N00361004201CN0050001N9-00501-00901099191ADDAY111999GF108991081071004501999999MD1010001+9999MW1851
0081010530999991973021106004+70683+023683FM-12+0070ENHF V0209999999999004201CN0550001N9-00501-00901099661ADDAA199002091AY181999GF106991061071004501001001KA1999N-01001MD1210131+9999MW1151
0057010530999991973021109004+70683+023683FM-12+0070ENHF V0202701N00101220001CN0700001N9-00501-01001099801ADDAY181999GF104991031091004501001011MD1110161+9999MW1151
0057010530999991973021115004+70683+023683FM-12+0070ENHF V0201301N00511220001CN0700001N9-00701-01101099671ADDAY121999GF104991011081017501011999MD1710131+9999MW1011
0057010530999991973021203004+70683+023683FM-12+0070ENHF V0201801N00101220001CN0700001N9-00901-01301098211ADDAY131999GF100991001001999999001001MD1710261+9999MW1021
0076010530999991973021209004+70683+023683FM-12+0070ENHF V0201801N01231024001CN0700001N9-00401-00901097211ADDAY131999GF108991021011008001021999MD1710502+9999MW1361EQDQ01+000502APC3  
0057010530999991973021212004+70683+023683FM-12+0070ENHF V0202101N00511007501CN0500001N9+99999+99999999999ADDAY181999GF105991051091008001001001MD1710021+9999MW1151
0057010530999991973021215004+70683+023683FM-12+0070ENHF V0209999999999024001CN0300001N9-00401-00801097011ADDAY131999GF107991021081008001041011MD1710111+9999MW1361
0087010530999991973021218004+70683+023683FM-12+0070ENHF V0201801N00611024001CN0650001N9-00301-00701096931ADDAA199999929GF107991021071008001011999KA1999M-00301MD1710081+9999MW1171REMSYN005914*6
0057010530999991973021303004+70683+023683FM-12+0070ENHF V0202201N00101220001CN0600001N9+00001-00501096891ADDAY121999GF103991999999999999999999MD1210081+9999MW1021
0057010530999991973021309004+70683+023683FM-12+0070ENHF V0202001N00971004201CN0500001N9+00001-00601097081ADDAY121999GF106991051071004501041001MD1210121+9999MW1011
0071010530999991973021312004+70683+023683FM-12+0070ENHF V0202001N01181060001CN0700001N9-00101-00601097131ADDAY121999GF106991031021008001001051MD1310101+9999MW1031REMSYN00591436
0057010530999991973021315004+70683+023683FM-12+0070ENHF V0202001N01441060001CN0700001N9-00201-00901097051ADDAY121999GF107991041081008001001071MD1810101+9999MW1021
0095010530999991973021318004+70683+023683FM-12+0070ENHF V0201801N00971060001CN0700001N9-00301-00901097121ADDAA199000091AY131999GF107991041081008001001071KA1999M+00101MD1310071+9999MW1021REMSYN005914*7
0057010530999991973021500004+70683+023683FM-12+0070ENHF V0202701N00361007501CN0400001N9+00001-00701097771ADDAY121999GF108991081091008001999999MD1210181+9999MW1151
0076010530999991973021509004+70683+023683FM-12+0070ENHF V0203201N00511004201CN0300001N9-00301-00601099661ADDAY181999GF106991061091004501001001MD1210772+9999MW1361EQDQ01+000772APC3  
0071010530999991973021512004+70683+023683FM-12+0070ENHF V0202701N00151004201CN0200001N9-00201-00501100121ADDAY181999GF107991071091004501001001MD1210531+9999MW1851REMSYN00591416
0057010530999991973021515004+70683+023683FM-12+0070ENHF V0203001N00101004201CN9999999N9-00201-00401100461ADDAY181999GF105991051091004501001001MD1210311+9999MW1021
0057010530999991973021600004+70683+023683FM-12+0070ENHF V0201801N00461220001CN0700001N9-00201-00801100591ADDAY101999GF103991011081008001041011MD1010001+9999MW1021
0057010530999991973021609004+70683+023683FM-12+0070ENHF V0202401N00301004201CN0400001N9-00301-00501101131ADDAY181999GF107991071091004501999999MD1210221+9999MW1151
0057010530999991973021612004+70683+023683FM-12+0070ENHF V0202401N00301004201CN0500001N9-00201-00401101471ADDAY181999GF105991051091004501001001MD1210301+9999MW1261
0057010530999991973021615004+70683+023683FM-12+0070ENHF V0202401N00301004201CN0500001N9-00201-00701101641ADDAY181999GF105991051091004501999999MD1210171+9999MW1151
0043010530999991973021700004+70683+023683FM-12+0070ENHF V0202001N00361220001CN0700001N9-00301+99999102161ADDAY121999GF100991001001999999001001MW1021
0057010530999991973021703004+70683+023683FM-12+0070ENHF V0202001N00151220001CN0700001N9-00501-01401102161ADDAY101999GF100991999999999999999999MD1010001+9999MW1021
0081010530999991973021706004+70683+023683FM-12+0070ENHF V0209991C00001220001CN0700001N9-00801-01501102121ADDAA199000091AY101999GF100991001001999999001001KA1999N-01001MD1710041+9999MW1021
0057010530999991973021709004+70683+023683FM-12+0070ENHF V0202001N00201220001CN0700001N9-00401-01301102111ADDAY101999GF101991001001999999001051MD1710021+9999MW1031
0057010530999991973021712004+70683+023683FM-12+0070ENHF V0201801N00301220001CN0700001N9-00301-01201102081ADDAY101999GF101991001001999999001051MD1510041+9999MW1021
0057010530999991973021715004+70683+023683FM-12+0070ENHF V0200401N00051220001CN0700001N9-01001-01501102191ADDAY101999GF101991001001999999001011MD1710031+9999MW1021
0081010530999991973021718004+70683+023683FM-12+0070ENHF V0200501N00151220001CN0700001N9-01001-01501102031ADDAA199000091AY101999GF100991001001999999001001KA1999M-00301MD1710161+9999MW1021
0057010530999991973021800004+70683+023683FM-12+0070ENHF V0209991C00001220001CN0700001N9-01201-01501101921ADDAY101999GF100991001001999999001001MD1710051+9999MW1021
0081010530999991973021806004+70683+023683FM-12+0070ENHF V0209991C00001220001CN0700001N9-01101-01401101721ADDAA199000091AY101999GF100991001001999999001001KA1999N-01301MD1710121+9999MW1021
0057010530999991973021809004+70683+023683FM-12+0070ENHF V0202201N00511220001CN0700001N9-00401-01301101521ADDAY101999GF103991011001012501041011MD1710201+9999MW1031
0057010530999991973021812004+70683+023683FM-12+0070ENHF V0201801N00771220001CN0700001N9-00201-01201101201ADDAY101999GF102991011001012501041011MD1710321+9999MW1021
0057010530999991973021815004+70683+023683FM-12+0070ENHF V0202201N01081220001CN0700001N9-00401-00901100871ADDAY131999GF103991021081008001041001MD1710331+9999MW1361
0095010530999991973021818004+70683+023683FM-12+0070ENHF V0202201N00971220001CN0700001N9-00301-00901100561ADDAA199000091AY131999GF101991011081008001001001KA1999M-00201MD1710311+9999MW1011REMSYN005914*6
0071010530999991973021900004+70683+023683FM-12+0070ENHF V0201801N01341220001CN0700001N9-00201-00901099951ADDAY101999GF102991021001017501041001MD1710221+9999MW1021REMSYN00591427
0057010530999991973021909004+70683+023683FM-12+0070ENHF V0201801N01131024001CN0600001N9+99999+99999099391ADDAY121999GF107991011021008001071081MD1710121+9999MW1021
0043010530999991973021912004+70683+023683FM-12+0070ENHF V0201801N003019999999N0600001N9+00001-03201099421ADDAY121999GF108991999999999999999999MW1021
0076010530999991973021915004+70683+023683FM-12+0070ENHF V0201801N00301024001CN0600001N9+00101-00702099341ADDAY121999GF106991021021008001031001MD1710081+9999MW1011EQDQ01+026623ATOD  
0076010530999991973022000004+70683+023683FM-12+0070ENHF V0202301N00361220001CN0500001N9-00201-01001098591ADDAY101999GF103991031051008001001001MD1710502+9999MW1021EQDQ01+000502APC3  
0114010530999991973022006004+70683+023683FM-12+0070ENHF V0202001N00561015001CN0500001N9-00101-00701097352ADDAA199000091AY121999GF108991081001017501071999KA1999N-00401MD1710361+9999MW1021REMSYN00591436EQDQ01+097353APOSLP
0057010530999991973022009004+70683+023683FM-12+0070ENHF V0202701N00411024001CN0700001N9-00101-00601097171ADDAY121999GF107991021071008001071999MD1710181+9999MW1021
0057010530999991973022012004+70683+023683FM-12+0070ENHF V0202701N00971004201CN0200001N9-00201-00501097201ADDAY181999GF107991051091004501061081MD1210031+9999MW1361
0057010530999991973022015004+70683+023683FM-12+0070ENHF V0202701N00821004201CN0400001N9-00201-00601097321ADDAY181999GF107991061091004501001081MD1210121+9999MW1151
0081010530999991973022018004+70683+023683FM-12+0070ENHF V0202501N00921004201CN0600001N9-00101-01001097251ADDAA199999929AY181999GF105991051091004501001001KA1999M+00201MD1210031+9999MW1151
0090010530999991973022100004+70683+023683FM-12+0070ENHF V0200201N00971004201CN0300001N9-00201-00801097931ADDAY191999GF108991081091004501999999MD1210502+9999MW1361REMSYN005914*8EQDQ01+000502APC3  
0081010530999991973022106004+70683+023683FM-12+0070ENHF V0202701N00511004201CN0550001N9-00101-00401097921ADDAA199001091AY131999GF108991081091004501999999KA1999N-00301MD1710051+9999MW1151
0057010530999991973022109004+70683+023683FM-12+0070ENHF V0203401N01181004201CN9999999N9-00501-00801098331ADDAY181999GF108991081091004501999999MD1310401+9999MW1381
0071010530999991973022112004+70683+023683FM-12+0070ENHF V0203601N00821004201CN9999999N9-00501-00801098601ADDAY181999GF106991061091004501001001MD1210371+9999MW1381REMSYN00591437
0057010530999991973022115004+70683+023683FM-12+0070ENHF V0203601N00821004201CN9999999N9-00501-00701098831ADDAY181999GF108991081091004501999999MD1210171+9999MW1381
0103010530999991973022118004+70683+023683FM-12+0070ENHF V0200201N00871004201CN0300001N9-00501-01001098961ADDAY181999GF108991081091004501999999KA1999M+99999MD1210101+9999MW1151REMSYN0051****EQDQ01 +04502ATMX  
0057010530999991973022200004+70683+023683FM-12+0070ENHF V0201801N00361004201CN0550001N9-00301-01001098781ADDAY181999GF108991081091004501999999MD1710151+9999MW1021
0057010530999991973022203004+70683+023683FM-12+0070ENHF V0203601N00251007501CN0500001N9-00501-01301099291ADDAY121999GF105991051091008001001001MD1210051+9999MW1021
0081010530999991973022206004+70683+023683FM-12+0070ENHF V0202201N00361012001CN0600001N9-00401-00901099201ADDAA199999929AY121999GF106991051081008001041001KA1999N-00601MD1710091+9999MW1031
0057010530999991973022209004+70683+023683FM-12+0070ENHF V0202701N00611007501CN0300001N9-00301-00701099181ADDAY181999GF106991061091008001999999MD1510071+9999MW1161
0057010530999991973022303004+70683+023683FM-12+0070ENHF V0202701N00461220001CN0550001N9-00201-00601098671ADDAY121999GF103991031071004501001001MD1710111+9999MW1011
0081010530999991973022306004+70683+023683FM-12+0070ENHF V0202701N00361004201CN0040001N9-00201-00501098671ADDAA199001091AY181999GF108991081091004501999999KA1999N-00301MD1410001+9999MW1851
0057010530999991973022309004+70683+023683FM-12+0070ENHF V0202001N00301004201CN0600001N9-00201-00401098711ADDAY181999GF108991081091004501999999MD1210041+9999MW1151
0057010530999991973022312004+70683+023683FM-12+0070ENHF V0203401N00511004201CN0020001N9-00301-00501098901ADDAY181999GF108991081091004501999999MD1210191+9999MW1851
0057010530999991973022315004+70683+023683FM-12+0070ENHF V0203401N00411004201CN0300001N9-00301-00501099011ADDAY181999GF107991061091004501001081MD1210091+9999MW1151
0081010530999991973022318004+70683+023683FM-12+0070ENHF V0209991C00001004201CN0550001N9-00401-00801099131ADDAA199005091AY181999GF108991081091004501999999KA1999M-00101MD1210121+9999MW1021
0081010530999991973022506004+70683+023683FM-12+0070ENHF V0203201N00671004201CN0300001N9-00501-01101099921ADDAA199003091AY181999GF107991071091004501001001KA1999N-00501MD1210071+9999MW1151
0057010530999991973022509004+70683+023683FM-12+0070ENHF V0202701N00461007501CN0600001N9-00901-01301999999ADDAY121999GF105991051091008001001001MD1210051+9999MW1151
0057010530999991973022512004+70683+023683FM-12+0070ENHF V0203601N00361220001CN0600001N9-00501-01601100111ADDAY121999GF103991031021008001001001MD1210141+9999MW1021
0057010530999991973022515004+70683+023683FM-12+0070ENHF V0209991C00001024001CN0600001N9-00901-01501100221ADDAY111999GF106991031021008001041011MD1210111+9999MW1031
0081010530999991973022518004+70683+023683FM-12+0070ENHF V0209991C00001220001CN0700001N9-01001-01501100261ADDAA199001091AY111999GF101991011001022501041001KA1999M-00501MD1210041+9999MW1011
0081010530999991973022606004+70683+023683FM-12+0070ENHF V0209991C00001007501CN0600001N9-00801-01201100361ADDAA199000091AY121999GF105991051031008001071999KA1999N-01501MD1110011+9999MW1031
0057010530999991973022609004+70683+023683FM-12+0070ENHF V0202701N00251004201CN0600001N9-00501-00801100401ADDAY181999GF107991071091004501999999MD1210041+9999MW1151
0057010530999991973022612004+70683+023683FM-12+0070ENHF V0209991C00001004201CN0020001N9-00501-00701100451ADDAY181999GF108991081091004501999999MD1210051+9999MW1851
0081010530999991973022618004+70683+023683FM-12+0070ENHF V0209991C00001220001CN0600001N9-00801-00901100721ADDAA199003091AY181999GF103991031091004501001001KA1999M-00401MD1210101+9999MW1151
0057010530999991973022703004+70683+023683FM-12+0070ENHF V0209991C00001220001CN0700001N9-01001-01201100871ADDAY101999GF101991011031008001001001MD1210021+9999MW1021
0081010530999991973022706004+70683+023683FM-12+0070ENHF V0209991C00001220001CN0700001N9-01601-01801100911ADDAA199000091AY101999GF101991011021008001001001KA1999N-01601MD1210041+9999MW1021
0057010530999991973022709004+70683+023683FM-12+0070ENHF V0203601N00201220001CN0700001N9-01001-01301100961ADDAY101999GF103991999021008001001081MD1210051+9999MW1021
0057010530999991973022715004+70683+023683FM-12+0070ENHF V0201801N00361220001CN0700001N9-00501-01701100981ADDAY101999GF103991011001012501071011MD1210011+9999MW1021
0057010530999991973022800004+70683+023683FM-12+0070ENHF V0200701N00051220001CN0700001N9-01401-01901101131ADDAY101999GF100991001001999999001001MD1210051+9999MW1021
0081010530999991973022806004+70683+023683FM-12+0070ENHF V0200701N00101220001CN0700001N9-01601-01901101051ADDAA199000091AY101999GF100991999999999999999999KA1999N-01701MD1710041+9999MW1021
0057010530999991973022809004+70683+023683FM-12+0070ENHF V0200401N00101220001CN0700001N9-01301-01601999999ADDAY101999GF101991011011008001001001MD1710071+9999MW1021
0057010530999991973022812004+70683+023683FM-12+0070ENHF V0200701N00101220001CN0700001N9-01301-01601100911ADDAY101999GF101991011011008001001001MD1710071+9999MW1021
0140010530999991973022815004+70683+023683FM-12+0070ENHF V0200401N00051220001CN0700001N9-01601+99999100911ADDAY101999GA1999+009609009GF101991999071001501071041MD1010001+9999MW1021REMSYN023089** 41708 15667 1614*EQDQ01+024223ATOD  Q02    003SCCGA1
0081010530999991973022818004+70683+023683FM-12+0070ENHF V0209991C00001220001CN0700001N9-01801-02001100911ADDAA199000091AY101999GF100991001001999999001001KA1999M-00901MD1710021+9999MW1021
0057010530999991973030100004+70683+023683FM-12+0070ENHF V0209991C00001220001CN0700001N9-01501-01801101001ADDAY101999GF100991001001999999001001MD1210051+9999MW1021
0057010530999991973030103004+70683+023683FM-12+0070ENHF V0202001N00301220001CN0700001N9-00801-01301101111ADDAY101999GF100991001001999999001001MD1210111+9999MW1021
0081010530999991973030106004+70683+023683FM-12+0070ENHF V0202001N00301220001CN0700001N9-00801-01401101271ADDAA199000091AY101999GF101991011011008001001001KA1999N-01801MD1210161+9999MW1021
0057010530999991973030109004+70683+023683FM-12+0070ENHF V0202001N00411220001CN0700001N9-00701-01301101471ADDAY101999GF101991011011008001001001MD1210211+9999MW1021
0057010530999991973030112004+70683+023683FM-12+0070ENHF V0202501N00361220001CN0600001N9-00601-01301101641ADDAY101999GF100991001001999999001001MD1210171+9999MW1101
0057010530999991973030115004+70683+023683FM-12+0070ENHF V0203101N00151220001CN0600001N9-00901-01501101771ADDAY101999GF100991001001999999001001MD1210131+9999MW1101
0081010530999991973030118004+70683+023683FM-12+0070ENHF V0200501N00151220001CN0700001N9-01601-01901102011ADDAA199000091AY101999GF100991001001999999001001KA1999M-00501MD1210241+9999MW1021
0057010530999991973030203004+70683+023683FM-12+0070ENHF V0209991C00001220001CN0700001N9-01601-01801102221ADDAY101999GF100991001001999999001001MD1210071+9999MW1021
0081010530999991973030206004+70683+023683FM-12+0070ENHF V0200401N00051220001CN0700001N9-01601-01801102241ADDAA199000091AY101999GF100991001001999999001001KA1999N-01701MD1110021+9999MW1021
0057010530999991973030209004+70683+023683FM-12+0070ENHF V0200701N00101220001CN0700001N9-01101-01401102281ADDAY101999GF101991011011008001001011MD1210041+9999MW1021
0057010530999991973030215004+70683+023683FM-12+0070ENHF V0200401N00101220001CN0700001N9-01001-01301102261ADDAY101999GF101991001001999999001011MD1610021+9999MW1021
0081010530999991973030218004+70683+023683FM-12+0070ENHF V0201301N00461220001CN0700001N9-01001-01401102261ADDAA199000091AY101999GF101991001001999999001011KA1999M-00801MD1410001+9999MW1021
0090010530999991973030300004+70683+023683FM-12+0070ENHF V0209991C00001220001CN0700001N9-01301+99999102231ADDAY101999GF100991001001999999001001MD1010001+9999MW1021REMSYN00501***EQDQ01+023623ATOD  
0081010530999991973030306004+70683+023683FM-12+0070ENHF V0201401N00201220001CN0700001N9-01101-01501101941ADDAA199000091AY101999GF101991011071004501001001KA1999N-01601MD1710091+9999MW1021
0057010530999991973030309004+70683+023683FM-12+0070ENHF V0209999999999220001CN0300001N9-01201-01601101681ADDAY101999GF103991031021008001001001MD1710261+9999MW1101
0057010530999991973030312004+70683+023683FM-12+0070ENHF V0201801N00561220001CN0400001N9-00701-01201101331ADDAY101999GF101991011021008001001001MD1710351+9999MW1101
0057010530999991973030315004+70683+023683FM-12+0070ENHF V0202301N00511220001CN0300001N9+99999+99999101081ADDAY131999GF102991011021008001001081MD1710251+9999MW1361
0100010530999991973030318004+70683+023683FM-12+0070ENHF V0201801N00821220001CN0700001N9-00501-01201100941ADDAA199000091AY101999GF102991999021008001001001KA1999M-00501MD1710141+9999MW1021EQDQ01+000012SCOTLC
0095010530999991973030406004+70683+023683FM-12+0070ENHF V0200901N00051220001CN0700001N9-00701-01201100831ADDAA199000091AY121999GF104991011021008001031001KA1999N-00701MD1310081+9999MW1021REMSYN00591416
0057010530999991973030409004+70683+023683FM-12+0070ENHF V0203201N00301220001CN0700001N9-00301-00701100931ADDAY101999GF104991011021008001031001MD1210101+9999MW1021
0057010530999991973030412004+70683+023683FM-12+0070ENHF V0202201N00411220001CN0700001N9-00301-00901101101ADDAY101999GF103991011011008001001091MD1210171+9999MW1011
0057010530999991973030415004+70683+023683FM-12+0070ENHF V0202201N00361220001CN0700001N9-00201-00901101261ADDAY101999GF102991021001999999051091MD1210161+9999MW1011
0100010530999991973030418004+70683+023683FM-12+0070ENHF V0209999999999220001CN0700001N9-00301-00901101391ADDAA199000091AY101999GF102991999001017501051001KA1999M-00201MD1210131+9999MW1021EQDQ01+000012SCOTLC
0057010530999991973030500004+70683+023683FM-12+0070ENHF V0203401N00101220001CN0700001N9-00801-01101101531ADDAY101999GF101991011001017501051001MD1210031+9999MW1021
0081010530999991973030506004+70683+023683FM-12+0070ENHF V0201801N00361220001CN0700001N9-00401-00701101201ADDAA199000091AY101999GF101991001001999999001011KA1999N-01101MD1710241+9999MW1021
0057010530999991973030509004+70683+023683FM-12+0070ENHF V0201801N00101220001CN0700001N9+00001-01001101061ADDAY101999GF102991001001999999001021MD1710141+9999MW1021
0057010530999991973030512004+70683+023683FM-12+0070ENHF V0201801N00921220001CN0700001N9-00201-01201100851ADDAY101999GF101991001001999999001011MD1710201+9999MW1021
0057010530999991973030515004+70683+023683FM-12+0070ENHF V0202301N00611220001CN0700001N9-00201-01001100731ADDAY101999GF101991001001999999001011MD1710121+9999MW1021
0081010530999991973030518004+70683+023683FM-12+0070ENHF V0202001N00561220001CN0700001N9-00201-00901100701ADDAA199000091AY101999GF101991011001017501071001KA1999M+00001MD1710031+9999MW1021
0057010530999991973030603004+70683+023683FM-12+0070ENHF V0201601N00251220001CN0700001N9-00201-00601100471ADDAY101999GF102991001001999999001011MD1710041+9999MW1031
0081010530999991973030606004+70683+023683FM-12+0070ENHF V0209991C00001004201CN0100001N9-00401-00501100391ADDAA199001091AY171999GF108991081071004501999999KA1999N-00401MD1710081+9999MW1711
0057010530999991973030609004+70683+023683FM-12+0070ENHF V0209991C00001004201CN0040001N9-00401-00601100371ADDAY171999GF108991081071004501999999MD1710021+9999MW1711
0057010530999991973030612004+70683+023683FM-12+0070ENHF V0209991C00001004201CN0030001N9-00201-00601100391ADDAY171999GF108991081071004501999999MD1210021+9999MW1711
0081010530999991973030618004+70683+023683FM-12+0070ENHF V0209991C00001004201CN0030001N9-00201-00301100451ADDAA199003091AY171999GF108991081071004501999999KA1999M-00101MD1210031+9999MW1711
0057010530999991973030703004+70683+023683FM-12+0070ENHF V0209991C00001002101CN0025001N9-00101-00201100531ADDAY181999GF108991081091002501999999MD1210031+9999MW1851
0057010530999991973030709004+70683+023683FM-12+0070ENHF V0202701N00201002101CN0020001N9+00001-00101100721ADDAY171999GF108991081071002501999999MD1210121+9999MW1731
0057010530999991973030712004+70683+023683FM-12+0070ENHF V0209991C00001004201CN0030001N9+00001-00201100861ADDAY171999GF108991081071004501999999MD1210141+9999MW1731
0057010530999991973030715004+70683+023683FM-12+0070ENHF V0202301N00361024001CN0600001N9+00001-00401100881ADDAY121999GF105991031051008001051001MD1110021+9999MW1011
0081010530999991973030718004+70683+023683FM-12+0070ENHF V0209991C00001024001CN0600001N9-00401-00801100961ADDAA199002091AY121999GF106991021051008001051001KA1999M+00201MD1210081+9999MW1021
0081010530999991973030806004+70683+023683FM-12+0070ENHF V0202701N00301004201CN0700001N9+00001-00201101491ADDAA199000091AY121999GF108991081091004501999999KA1999N-00501MD1210151+9999MW1021
0057010530999991973030809004+70683+023683FM-12+0070ENHF V0202901N00251004201CN0400001N9+00101-00101101601ADDAY181999GF106991061091004501999999MD1210111+9999MW1831
0057010530999991973030812004+70683+023683FM-12+0070ENHF V0203601N00461004201CN0600001N9+00201-00101101731ADDAY181999GF107991071091004501999999MD1210131+9999MW1151
0057010530999991973030815004+70683+023683FM-12+0070ENHF V0203601N00251004201CN0600001N9+00101-00101101961ADDAY181999GF107991071091004501999999MD1210231+9999MW1151
0092010530999991973030818004+70683+023683FM-12+0070ENHF V0203201N00251024001CN0500001N9+00201-00301102091ADDAY181999GA1081+999999999GF199999031081008001071001MD1210131+9999MW1011EQDQ01+000062SCOTCV
0057010530999991973030900004+70683+023683FM-12+0070ENHF V0202401N00301220001CN0700001N9+00001-00501101861ADDAY101999GF100991001001999999001001MD1710201+9999MW1021
0114010530999991973030906004+70683+023683FM-12+0070ENHF V0201801N01131015001CN0600001N9+00001-00701100671ADDAA199000091AY121999GF108991081001017501021999KA1999N-00101MD1710742+9999MW1021REMSYN00591427EQDQ01+000742APC3  
0057010530999991973030909004+70683+023683FM-12+0070ENHF V0201801N00871004201CN0600001N9+00001-00201100201ADDAY181999GF108991081091004501999999MD1710471+9999MW1261
0071010530999991973030912004+70683+023683FM-12+0070ENHF V0202201N00971004201CN0400001N9+00201-00101099791ADDAY181999GF108991051091004501071999MD1710411+9999MW1151REMSYN00591426
0057010530999991973030915004+70683+023683FM-12+0070ENHF V0202701N01081004201CN0200001N9+00401+00101099591ADDAY181999GF108991081091004501999999MD1610201+9999MW1801
0095010530999991973030918004+70683+023683FM-12+0070ENHF V0202701N01031004201CN0200001N9+00201+00001099701ADDAA199002091AY181999GF108991081091004501999999KA1999M+01101MD1210111+9999MW1801REMSYN005914*6
0057010530999991973031000004+70683+023683FM-12+0070ENHF V0202701N00821220001CN0400001N9-00101-00401099711ADDAY181999GF104991041091004501001001MD1610011+9999MW1021
0057010530999991973031003004+70683+023683FM-12+0070ENHF V0202701N00721004201CN9999999N9-00201-00501099921ADDAY181999GF108991081091004501999999MD1110191+9999MW1861
0095010530999991973031006004+70683+023683FM-12+0070ENHF V0202701N00871004201CN0050001N9-00101-00601099951ADDAA199000591AY181999GF108991081091004501999999KA1999N-00301MD1010031+9999MW1851REMSYN005914*6
0057010530999991973031009004+70683+023683FM-12+0070ENHF V0202701N00921004201CN0100001N9+00001-00501099981ADDAY181999GF108991081091004501999999MD1210031+9999MW1151
0057010530999991973031012004+70683+023683FM-12+0070ENHF V0202701N01031004201CN0020001N9-00101-00601099981ADDAY181999GF108991081091004501999999MD1410001+9999MW1851
0057010530999991973031015004+70683+023683FM-12+0070ENHF V0202701N01181004201CN0006001N9+00001-00201099901ADDAY181999GF108991081091004501999999MD1810081+9999MW1861
0114010530999991973031018004+70683+023683FM-12+0070ENHF V0202701N01081004201CN0100001N9+00001-00201098562ADDAA199001091AY181999GF108991081091004501999999KA1999M+00101MD1710341+9999MW1151REMSYN00591427EQDQ01+098563APOSLP
0095010530999991973031106004+70683+023683FM-12+0070ENHF V0203201N00721004201CN0200001N9+00001-00101100461ADDAA199005091AY181999GF108991081091004501999999KA1999N-00101MD1210251+9999MW1151REMSYN005914*6
0057010530999991973031109004+70683+023683FM-12+0070ENHF V0202701N00721004201CN0300001N9+00101-00301100641ADDAY121999GF108991081091004501999999MD1210181+9999MW1151
0043010530999991973031112004+70683+023683FM-12+0070ENHF V0202701N00561004201CN0300001N9+00101+00101100611ADDAY181999GF108991081091004501999999MW1261
0114010530999991973031118004+70683+023683FM-12+0070ENHF V0202701N00971004201CN0030001N9+00301+00101098392ADDAA199001091AY181999GF108991081091004501999999KA1999M+00301MD1710081+9999MW1811REMSYN00591436EQDQ01+098393APOSLP
0057010530999991973031203004+70683+023683FM-12+0070ENHF V0202001N00251004201CN0600001N9+00101-00201100031ADDAY171999GF108991081071004501999999MD1710081+9999MW1161
0081010530999991973031206004+70683+023683FM-12+0070ENHF V0203201N00411004201CN0030001N9+00001-00201099931ADDAA199011091AY171999GF108991081071004501999999KA1999N+00001MD1710101+9999MW1691
0057010530999991973031212004+70683+023683FM-12+0070ENHF V0203201N00821004201CN0050001N9-00201-00501100371ADDAY181999GF108991081091004501999999MD1210181+9999MW1851
0057010530999991973031215004+70683+023683FM-12+0070ENHF V0203201N00721004201CN0100001N9-00301-00801100431ADDAY181999GF108991081091004501999999MD1010051+9999MW1381
0081010530999991973031218004+70683+023683FM-12+0070ENHF V0203201N00921004201CN9999999N9+99999+99999999999ADDAA199014091AY181999GF108991081091004501999999KA1999M+00201MD1710041+9999MW1321
0071010530999991973031300004+70683+023683FM-12+0070ENHF V0203101N01081000301CN0003001N9-00601-00801100201ADDAY181999GF109991091999999999999999MD1710111+9999MW1861REMSYN005914*6
0095010530999991973031306004+70683+023683FM-12+0070ENHF V0203101N00871004201CN0100001N9-00701-01101100131ADDAA199005091AY181999GF106991061091004501001001KA1999N-00801MD1710071+9999MW1361REMSYN005914*6
0057010530999991973031309004+70683+023683FM-12+0070ENHF V0203001N00771004201CN0015001N9-00601-00901100181ADDAY181999GF106991061091004501001001MD1310031+9999MW1851
0057010530999991973031315004+70683+023683FM-12+0070ENHF V0203201N01081004201CN0005001N9-00601-00901100401ADDAY181999GF108991081091004501999999MD1210211+9999MW1851
0095010530999991973031406004+70683+023683FM-12+0070ENHF V0203601N00771004201CN0200001N9-00601-01001101211ADDAA199002091AY181999GF108991081091004501999999KA1999N-00701MD1210101+9999MW1361REMSYN00591426
0057010530999991973031409004+70683+023683FM-12+0070ENHF V0203401N00461004201CN0040001N9-00601-00901101201ADDAY171999GF108991081071004501999999MD1410001+9999MW1701
0057010530999991973031412004+70683+023683FM-12+0070ENHF V0209991C00001004201CN0040001N9-00501-00701101121ADDAY171999GF108991081071004501999999MD1710081+9999MW1701
0057010530999991973031415004+70683+023683FM-12+0070ENHF V0200701N00101004201CN0100001N9-00501-00701100951ADDAY171999GF108991081071004501999999MD1710171+9999MW1701
0081010530999991973031418004+70683+023683FM-12+0070ENHF V0209991C00001004201CN0100001N9-00401-00601100801ADDAA199006091AY171999GF108991081071004501999999KA1999M-00301MD1710151+9999MW1701
0057010530999991973031500004+70683+023683FM-12+0070ENHF V0202701N00201004201CN0100001N9-00301-00501100871ADDAY181999GF108991081091004501999999MD1110101+9999MW1151
0057010530999991973031503004+70683+023683FM-12+0070ENHF V0202701N00301004201CN0100001N9-00301-00501100701ADDAY181999GF108991081091004501999999MD1710171+9999MW1851
0081010530999991973031506004+70683+023683FM-12+0070ENHF V0202401N00101004201CN0020001N9-00201-00301100561ADDAA199001091AY181999GF108991081001004501021999KA1999N-00401MD1710141+9999MW1731
0057010530999991973031509004+70683+023683FM-12+0070ENHF V0202301N00411004201CN9999999N9-00101-00201100231ADDAY171999GF108991081071004501999999MD1710321+9999MW1151
0057010530999991973031512004+70683+023683FM-12+0070ENHF V0202301N00411002101CN0010001N9-00101-00201099841ADDAY171999GF108991081071002501999999MD1710401+9999MW1731
0057010530999991973031515004+70683+023683FM-12+0070ENHF V0202701N01031002101CN0050001N9+00101-00201099281ADDAY171999GF108991081071002501999999MD1710561+9999MW1681
0081010530999991973031518004+70683+023683FM-12+0070ENHF V0202701N00301002101CN0100001N9-00101-00401099281ADDAA199003091AY181999GF108991081071002501999999KA1999M+00201MD1710031+9999MW1151
0057010530999991973031600004+70683+023683FM-12+0070ENHF V0203201N00721004201CN0300001N9-00301-00901099221ADDAY181999GF105991051091004501999999MD1610021+9999MW1021
0057010530999991973031603004+70683+023683FM-12+0070ENHF V0200401N01231004201CN0100001N9-00601-00801099501ADDAY181999GF108991081091004501999999MD1210241+9999MW1381
0095010530999991973031606004+70683+023683FM-12+0070ENHF V0203601N00971004201CN0250001N9-00601-01101099821ADDAA199002091AY181999GF108991081091004501999999KA1999N-00701MD1210281+9999MW1151REMSYN00591426
0076010530999991973031609004+70683+023683FM-12+0070ENHF V0203601N00971007501CN0700001N9-00701-01001100071ADDAY131999GF106991999091008001001001MD1210251+9999MW1361EQDQ01+000052SCOTLC
0057010530999991973031612004+70683+023683FM-12+0070ENHF V0203601N00821007501CN0300001N9-00701-01101100331ADDAY181999GF105991051091008001001001MD1210261+9999MW1361
0057010530999991973031615004+70683+023683FM-12+0070ENHF V0203601N00771007501CN0300001N9-00801-01201100531ADDAY181999GF106991061091008001001001MD1210201+9999MW1361
0081010530999991973031618004+70683+023683FM-12+0070ENHF V0203601N00461007501CN0400001N9-00801-01301100591ADDAA199001091AY181999GF105991051091008001001001KA1999M-00501MD1210061+9999MW1151
0057010530999991973031700004+70683+023683FM-12+0070ENHF V0209991C00001024001CN0600001N9-01101-01501100441ADDAY181999GF106991041091008001071001MD1710131+9999MW1151
0057010530999991973031703004+70683+023683FM-12+0070ENHF V0202301N00721001201CN0015001N9-00701-01001100041ADDAY181999GF109991091999999999999999MD1710401+9999MW1851
0081010530999991973031706004+70683+023683FM-12+0070ENHF V0203601N00671004201CN0040001N9-00501-01001099931ADDAA199002091AY181999GF107991071091004501999999KA1999N-01201MD1710111+9999MW1851
0057010530999991973031709004+70683+023683FM-12+0070ENHF V0203401N00361007501CN0500001N9-00701-01001099971ADDAY181999GF105991051091008001001001MD1310041+9999MW1151
0057010530999991973031712004+70683+023683FM-12+0070ENHF V0200401N00561220001CN0500001N9-00701-00901100171ADDAY181999GF104991041091004501001001MD1210201+9999MW1151
0057010530999991973031715004+70683+023683FM-12+0070ENHF V0203601N00411009001CN0050001N9-00701-01001100191ADDAY181999GF108991071081004501999999MD1210021+9999MW1851
0081010530999991973031806004+70683+023683FM-12+0070ENHF V0202001N00361004201CN0100001N9-00601-00901099751ADDAA199006091AY181999GF108991081091004501999999KA1999N-01001MD1710211+9999MW1851
0057010530999991973031809004+70683+023683FM-12+0070ENHF V0202701N00301004201CN0002001N9-00501-00601099691ADDAY181999GF108991081091004501999999MD1510061+9999MW1861
0057010530999991973031812004+70683+023683FM-12+0070ENHF V0203201N00411004201CN0300001N9-00401-01101099691ADDAY181999GF107991071091004501999999MD1410001+9999MW1151
0057010530999991973031815004+70683+023683FM-12+0070ENHF V0203201N00411004201CN0005001N9-00601-00901099761ADDAY181999GF108991081091004501999999MD1210171+9999MW1851
0092010530999991973031818004+70683+023683FM-12+0070ENHF V0200701N00671001201CN0100001N9+99999+99999098942ADDAY181999GF108991061011001501011051MD1110532+9999MW1151EQDQ01+098943APOSLPQ02+000532APC3  
0057010530999991973031903004+70683+023683FM-12+0070ENHF V0200401N00151007501CN0300001N9-00801-01101100161ADDAY181999GF108991081091008001999999MD1710091+9999MW1021
0081010530999991973031906004+70683+023683FM-12+0070ENHF V0200401N00101024001CN0500001N9-01001-01401099981ADDAA199001091AY121999GF107991021071008001011999KA1999N-01401MD1710181+9999MW1151
0057010530999991973031909004+70683+023683FM-12+0070ENHF V0202001N00461024001CN0600001N9-00601-01301099751ADDAY121999GF108991021071008001011999MD1710231+9999MW1021
0057010530999991973031912004+70683+023683FM-12+0070ENHF V0201801N00461220001CN0700001N9-00601-01501099491ADDAY131999GF106991021071008001001061MD1710241+9999MW1031
0057010530999991973031915004+70683+023683FM-12+0070ENHF V0201601N003619999999N0600001N9-00701-01401099401ADDAY121999GF107991999081008001041999MD1710091+9999MW1101
0081010530999991973031918004+70683+023683FM-12+0070ENHF V0201801N00301024001CN0600001N9-00501-00901999999ADDAA199000091AY121999GF108991031081008001041999KA1999M-00501MD1710051+9999MW1101
0057010530999991973032000004+70683+023683FM-12+0070ENHF V0201801N00301012001CN0600001N9-00501-01001099291ADDAY121999GF108991051081008001011999MD1710021+9999MW1021
0057010530999991973032003004+70683+023683FM-12+0070ENHF V0201801N00361220001CN0600001N9-00601-01101099261ADDAY121999GF103991021081008001041001MD1710031+9999MW1011
0081010530999991973032006004+70683+023683FM-12+0070ENHF V0201801N00411004201CN0600001N9-00601-00901099151ADDAA199000091AY121999GF107991071091004501001001KA1999N-00601MD1710111+9999MW1151
0057010530999991973032009004+70683+023683FM-12+0070ENHF V0201801N00771002101CN0015001N9-00601-00801099131ADDAY181999GF108991081091002501999999MD1610021+9999MW1851
0057010530999991973032012004+70683+023683FM-12+0070ENHF V0202001N00611004201CN0100001N9-00401-00801099091ADDAY181999GF108991081091004501999999MD1510061+9999MW1151
0057010530999991973032015004+70683+023683FM-12+0070ENHF V0202001N00561004201CN0020001N9-00501-00601099271ADDAY181999GF108991081091004501999999MD1210181+9999MW1851
0081010530999991973032018004+70683+023683FM-12+0070ENHF V0203201N00511004201CN0040001N9-00401-01001099451ADDAA199003091AY181999GF108991081091004501999999KA1999M-00301MD1210181+9999MW1851
0057010530999991973032103004+70683+023683FM-12+0070ENHF V0203601N00721004201CN9999999N9-00501-01001099941ADDAY181999GF108991081091004501999999MD1210181+9999MW1381
0081010530999991973032106004+70683+023683FM-12+0070ENHF V0203601N00361220001CN0700001N9-00701-01701100021ADDAA199002091AY181999GF103991031091004501001001KA1999N-00701MD1210081+9999MW1011
0081010530999991973032118004+70683+023683FM-12+0070ENHF V0202701N00361004201CN0300001N9-00601-01201100301ADDAA199005091AY181999GF107991071091004501001001KA1999M-00601MD1210071+9999MW1261
0057010530999991973032200004+70683+023683FM-12+0070ENHF V0209991C00001220001CN0700001N9-00901-01201100361ADDAY101999GF100991001001999999001001MD1010011+9999MW1021
0057010530999991973032203004+70683+023683FM-12+0070ENHF V0200501N00101220001CN0700001N9-01101-01401999999ADDAY101999GF100991001001999999001001MD1710021+9999MW1021
0081010530999991973032206004+70683+023683FM-12+0070ENHF V0202001N00361220001CN0700001N9-00601-01301100081ADDAA199000091AY101999GF103991001001999999001061KA1999N-01401MD1810261+9999MW1031
0057010530999991973032209004+70683+023683FM-12+0070ENHF V0201801N00921220001CN9999999N9-00801-01701099831ADDAY131999GF105991001001999999001061MD1710251+9999MW1381
0057010530999991973032212004+70683+023683FM-12+0070ENHF V0201801N00721220001CN9999999N9-00701-01001099421ADDAY131999GF106991011011008001001061MD1710401+9999MW1381
0057010530999991973032215004+70683+023683FM-12+0070ENHF V0202001N00871024001CN9999999N9-00701-01001099121ADDAY131999GF107991011011008001011999MD1710301+9999MW1381
0057010530999991973032300004+70683+023683FM-12+0070ENHF V0202301N00461012001CN0600001N9-00501-01001098521ADDAY121999GF108991081081008001999999MD1710151+9999MW1021
0081010530999991973032306004+70683+023683FM-12+0070ENHF V0200901N00301007501CN0040001N9-00501-00601097951ADDAA199001091AY181999GF108991081091008001999999KA1999N-00701MD1710291+9999MW1851
0057010530999991973032312004+70683+023683FM-12+0070ENHF V0202401N00361007501CN0700001N9+00201-00101097771ADDAY121999GF108991081051008001999999MD1210021+9999MW1021
0081010530999991973032318004+70683+023683FM-12+0070ENHF V0209991C00001004201CN0030001N9-00201-00301098331ADDAA199001091AY171999GF108991081071004501999999KA1999M+00201MD1210211+9999MW1711
0057010530999991973032400004+70683+023683FM-12+0070ENHF V0209991C00001001201CN0020001N9-00101-00201098551ADDAY171999GF109991091999999999999999MD1810051+9999MW1731
0081010530999991973032406004+70683+023683FM-12+0070ENHF V0202201N00721004201CN0200001N9+00101-00101098491ADDAA199006091AY171999GF108991081061004501999999KA1999N-00301MD1310071+9999MW1151
0057010530999991973032409004+70683+023683FM-12+0070ENHF V0202701N00921007501CN0700001N9+00301+00101098541ADDAY121999GF107991071031008001999999MD1210041+9999MW1021
0057010530999991973032412004+70683+023683FM-12+0070ENHF V0202401N00721007501CN0700001N9+00201-00101098661ADDAY121999GF107991071071008001001001MD1210121+9999MW1021
0057010530999991973032415004+70683+023683FM-12+0070ENHF V0202401N00461004201CN0600001N9+00201-00101098691ADDAY121999GF108991081071004501999999MD1310031+9999MW1151
0081010530999991973032418004+70683+023683FM-12+0070ENHF V0203001N00361004201CN0300001N9+00101+00001098781ADDAA199002091AY161999GF108991081071004501999999KA1999M+00301MD1210091+9999MW1611
0057010530999991973032503004+70683+023683FM-12+0070ENHF V0202201N00201004201CN0300001N9+00201+00101098611ADDAY161999GF108991081071004501999999MD1710111+9999MW1601
0057010530999991973032506004+70683+023683FM-12+0070ENHF V0202701N00671002101CN9999999N9+00401+00201098661ADDAY161999GF108991081071002501999999MD1210051+9999MW1611
0043010530999991973032509004+70683+023683FM-12+0070ENHF V0202701N00561002101CN9999999N9+00401+00201098811ADDGF108991081071002501999999MD1210151+9999
0057010530999991973032512004+70683+023683FM-12+0070ENHF V0202701N00151002101CN0200001N9+00301+00101098851ADDAY161999GF108991081071002501999999MD1210041+9999MW1611
0057010530999991973032515004+70683+023683FM-12+0070ENHF V0200501N00301004201CN0280001N9+00101+00001098801ADDAY161999GF108991081071004501999999MD1810051+9999MW1611
0081010530999991973032518004+70683+023683FM-12+0070ENHF V0209999999999004201CN0200001N9+00201+00101098801ADDAA199005091AY161999GF108991081071004501999999KA1999M+00401MD1410001+9999MW1611
0057010530999991973032615004+70683+023683FM-12+0070ENHF V0202701N00461004201CN0300001N9-00101-01001100841ADDAY181999GF108991081091004501999999MD1210491+9999MW1851
0097010530999991973032618004+70683+023683FM-12+0070ENHF V0202701N00871004201CN0300001N9-00101-00801101241ADDAA199001091AY181999GA1041+006609009GF108991081091004501999999KA1999M+00101MD1210401+9999MW1151
0057010530999991973032703004+70683+023683FM-12+0070ENHF V0202701N00721004201CN0600001N9-00201-01101102141ADDAY181999GF108991081091004501999999MD1210271+9999MW1151
0081010530999991973032706004+70683+023683FM-12+0070ENHF V0202201N00671007501CN0700001N9+00001-00901102021ADDAA199999999AY181999GF105991051031008001001001KA1999N-00401MD1410001+9999MW1011
0057010530999991973032709004+70683+023683FM-12+0070ENHF V0202201N00611220001CN0700001N9-00201-01301101961ADDAY111999GF102991001001999999001011MD1710061+9999MW1011
0057010530999991973032712004+70683+023683FM-12+0070ENHF V0202001N00461220001CN0700001N9-00101-01301101691ADDAY111999GF106991001001999999001061MD1710271+9999MW1031
0057010530999991973032715004+70683+023683FM-12+0070ENHF V0201801N00671060001CN0700001N9+00101-01301101531ADDAY121999GF107991041001017501041061MD1510161+9999MW1031
0081010530999991973032718004+70683+023683FM-12+0070ENHF V0202801N00671220001CN0700001N9+00101-01301101471ADDAA199000091AY101999GF103991011001017501041011KA1999M+00201MD1710061+9999MW1011
0057010530999991973032803004+70683+023683FM-12+0070ENHF V0202401N00461220001CN0700001N9+00301-00701101331ADDAY101999GF103991031001017501041001MD1210051+9999MW1031
0081010530999991973032806004+70683+023683FM-12+0070ENHF V0202401N00461220001CN0700001N9+00401-00601101361ADDAA199000091AY101999GF104991999999999999999999KA1999N+00001MD1210031+9999MW1031
0057010530999991973032809004+70683+023683FM-12+0070ENHF V0202001N00301220001CN0700001N9+00501-00801101431ADDAY101999GF103991031001017501041001MD1210051+9999MW1021
0057010530999991973032812004+70683+023683FM-12+0070ENHF V0202201N00301220001CN0700001N9+00501-00801101381ADDAY101999GF103991031001017501041001MD1710031+9999MW1021
0057010530999991973032815004+70683+023683FM-12+0070ENHF V0209991C00001220001CN0700001N9+00401-00601101281ADDAY101999GF104991011001017501031041MD1710121+9999MW1031
0081010530999991973032818004+70683+023683FM-12+0070ENHF V0202701N00251220001CN0700001N9+00201-00801101081ADDAA199000091AY101999GF101991011001999999041001KA1999M+00601MD1710201+9999MW1011
0057010530999991973032909004+70683+023683FM-12+0070ENHF V0202001N00721004201CN0700001N9+00301-00501099821ADDAY121999GF108991081071004501999999MD1510021+9999MW1021
0071010530999991973032912004+70683+023683FM-12+0070ENHF V0202701N01231004201CN0300001N9+00301-00201100001ADDAY121999GF106991061091004501999999MD1210181+9999MW1151REMSYN00591426
0057010530999991973032915004+70683+023683FM-12+0070ENHF V0202701N00971004201CN0300001N9+00201-00301100391ADDAY181999GF107991071091004501999999MD1210401+9999MW1151
0076010530999991973033003004+70683+023683FM-12+0070ENHF V0201801N010319999999N0600001N9-00101-00801100221ADDAY121999GF108991041001012501041071MD1710532+9999MW1021EQDQ01+000532APC3  
0081010530999991973033006004+70683+023683FM-12+0070ENHF V0201801N00771012001CN0700001N9+00301-00601099811ADDAA199000091AY121999GF108991081001012501021999KA1999N-00201MD1710411+9999MW1021
0057010530999991973033009004+70683+023683FM-12+0070ENHF V0201801N01031021001CN0700001N9+00201-00301099601ADDAY121999GF108991081001022501021999MD1710201+9999MW1021
0057010530999991973033012004+70683+023683FM-12+0070ENHF V0201801N00921021001CN0700001N9+00401-00201099471ADDAY121999GF108991081001022501021999MD1710121+9999MW1021
0057010530999991973033015004+70683+023683FM-12+0070ENHF V0201801N00771015001CN0700001N9+00501-00201099441ADDAY121999GF108991081001017501071999MD1710031+9999MW1021
0081010530999991973033018004+70683+023683FM-12+0070ENHF V0201801N00511015001CN0700001N9+00501-00101099461ADDAA199000091AY121999GF108991081001017501071999KA1999M+00601MD1210021+9999MW1021
0057010530999991973033100004+70683+023683FM-12+0070ENHF V0200401N00101220001CN0700001N9+00301-00101099461ADDAY121999GF104991041001017501071001MD1410001+9999MW1011
0057010530999991973033103004+70683+023683FM-12+0070ENHF V0200501N00201015001CN0700001N9+00301+00001099501ADDAY121999GF108991081001017501071999MD1210041+9999MW1031
0081010530999991973033106004+70683+023683FM-12+0070ENHF V0200501N00201015001CN0700001N9+00301+00001099561ADDAA199000091AY121999GF108991081001017501071999KA1999N+00201MD1210061+9999MW1021
0057010530999991973033109004+70683+023683FM-12+0070ENHF V0201601N00361015001CN0700001N9+00401-00501099471ADDAY121999GF108991081001017501071999MD1710091+9999MW1021
0057010530999991973033112004+70683+023683FM-12+0070ENHF V0201801N00411024001CN0600001N9+00401-00101099481ADDAY181999GF108991031031008001071999MD1410001+9999MW1021
0057010530999991973033115004+70683+023683FM-12+0070ENHF V0201801N00721024001CN0400001N9+00301-00101099351ADDAY121999GF108991031081008001071999MD1710131+9999MW1101
0081010530999991973033118004+70683+023683FM-12+0070ENHF V0201801N00561024001CN0400001N9+00301-00101099351ADDAA199000091AY121999GF108991031081008001071999KA1999M+00501MD1410001+9999MW1101
0057010530999991973040203004+70683+023683FM-12+0070ENHF V0202001N00511220001CN0700001N9+00101-00401098631ADDAY101999GF100991001001999999001001MD1110021+9999MW1021
0081010530999991973040206004+70683+023683FM-12+0070ENHF V0202001N00721220001CN0700001N9+00001-00501098721ADDAA199000091AY101999GF102991011011008001071011KA1999N+00001MD1210091+9999MW1031
0057010530999991973040212004+70683+023683FM-12+0070ENHF V0201901N00721220001CN0700001N9+00301-00201098831ADDAY101999GF102991011021008001001011MD1210061+9999MW1021
0057010530999991973040215004+70683+023683FM-12+0070ENHF V0201901N00721220001CN0700001N9+00401-00101098901ADDAY101999GF103991021021008001001011MD1210071+9999MW1031
0081010530999991973040218004+70683+023683FM-12+0070ENHF V0201801N00361220001CN0700001N9+00301-00201099021ADDAA199000091AY101999GF103991011011008001041081KA1999M+00401MD1210121+9999MW1021
0057010530999991973040300004+70683+023683FM-12+0070ENHF V0202401N00101012001CN0600001N9+00201-00301099111ADDAY121999GF108991081001012501021999MD1210061+9999MW1021
0100010530999991973040306004+70683+023683FM-12+0070ENHF V0201401N00101024001CN0700001N9+00201-00201098232ADDAA199000091AY121999GF107991031021008001071071KA1999N+00101MD1210091+9999MW1031EQDQ01+098233APOSLP
0057010530999991973040309004+70683+023683FM-12+0070ENHF V0201601N00411220001CN0700001N9+00301-00301098291ADDAY111999GF103991011021008001041011MD1210061+9999MW1011
0057010530999991973040312004+70683+023683FM-12+0070ENHF V0201401N00361220001CN0700001N9+00301-00301099421ADDAY121999GF106991031081008001001011MD1210151+9999MW1031
0057010530999991973040315004+70683+023683FM-12+0070ENHF V0201401N00301012001CN0600001N9+00301-00201099511ADDAY121999GF108991051081008001041071MD1210091+9999MW1021
0081010530999991973040318004+70683+023683FM-12+0070ENHF V0201401N00251021001CN0600001N9+00301+00001099611ADDAA199000091AY121999GF108991081001022501021999KA1999M+00301MD1210101+9999MW1021
0057010530999991973040403004+70683+023683FM-12+0070ENHF V0202301N00101004201CN9999999N9+00101-00101099951ADDAY121999GF108991061061004501999999MD1210111+9999MW1411
0057010530999991973040409004+70683+023683FM-12+0070ENHF V0209991C00001001201CN0200001N9+00101+00001100151ADDAY171999GF108991081061001501999999MD1210101+9999MW1501
0057010530999991973040412004+70683+023683FM-12+0070ENHF V0209991C00001002101CN0030001N9+00201+00001100201ADDAY181999GF108991081091002501999999MD1210051+9999MW1851
0081010530999991973040418004+70683+023683FM-12+0070ENHF V0209991C00001002101CN0200001N9+00101+00001100201ADDAA199003091AY121999GF108991071061002501999999KA1999M+00301MD1410001+9999MW1101
0081010530999991973040506004+70683+023683FM-12+0070ENHF V0209991C00001002101CN0300001N9-00101-00201100121ADDAA199004091AY181999GF107991071091002501999999KA1999N-00201MD1410001+9999MW1151
0057010530999991973040509004+70683+023683FM-12+0070ENHF V0209991C00001007501CN0700001N9+00101-00101100171ADDAY121999GF107991071031008001999999MD1210041+9999MW1021
0057010530999991973040512004+70683+023683FM-12+0070ENHF V0209991C00001007501CN0500001N9+00201+00001100201ADDAY181999GF106991061091008001001001MD1110031+9999MW1151
0057010530999991973040515004+70683+023683FM-12+0070ENHF V0200701N00101007501CN0500001N9+00001-00101100191ADDAY181999GF106991061031008001001001MD1810021+9999MW1031
0081010530999991973040518004+70683+023683FM-12+0070ENHF V0200701N00101220001CN0700001N9-00401-00601100211ADDAA199002091AY181999GF102991011021008001001081KA1999M+00201MD1210021+9999MW1011
0057010530999991973040609004+70683+023683FM-12+0070ENHF V0200401N00201024001CN0700001N9-00101-00601099791ADDAY121999GF108991021021008001051999MD1710131+9999MW1021
0057010530999991973040612004+70683+023683FM-12+0070ENHF V0200501N00561004201CN0100001N9-00101-00401099671ADDAY181999GF108991081091004501999999MD1710111+9999MW1151
0057010530999991973040615004+70683+023683FM-12+0070ENHF V0200401N00411004201CN0100001N9-00101-00401099641ADDAY121999GF108991061091004501071999MD1610031+9999MW1151
0081010530999991973040618004+70683+023683FM-12+0070ENHF V0200301N00461004201CN0100001N9-00101-00401099631ADDAA199999929AY181999GF108991081091004501999999KA1999M+00001MD1710011+9999MW1151
0057010530999991973040700004+70683+023683FM-12+0070ENHF V0209991C00001012001CN0700001N9-00301-00401099661ADDAY121999GF108991081081008001999999MD1410001+9999MW1021
0057010530999991973040703004+70683+023683FM-12+0070ENHF V0200701N00201024001CN0700001N9-00301-00401099661ADDAY121999GF108991021021008001011999MD1410001+9999MW1021
0081010530999991973040706004+70683+023683FM-12+0070ENHF V0200501N00101024001CN0100001N9-00301-00401099731ADDAA199000091AY121999GF108991031021008001011001KA1999N-00601MD1210071+9999MW1101
0057010530999991973040709004+70683+023683FM-12+0070ENHF V0209991C00001007501CN0300001N9-00101-00601099811ADDAY121999GF107991071031008001999999MD1210081+9999MW1151
0057010530999991973040712004+70683+023683FM-12+0070ENHF V0202701N00051001201CN0030001N9+00101-00101099921ADDAY181999GF107991071061001501999999MD1210111+9999MW1501
0057010530999991973040715004+70683+023683FM-12+0070ENHF V0203601N00251002101CN0100001N9+00001-00301100011ADDAY181999GF108991081091002501999999MD1210091+9999MW1151
0081010530999991973040718004+70683+023683FM-12+0070ENHF V0203601N00251004201CN0300001N9-00101-00201100161ADDAA199001091AY181999GF107991071091004501999999KA1999M+00201MD1210151+9999MW1151
0057010530999991973040800004+70683+023683FM-12+0070ENHF V0209991C00001007501CN0100001N9-00301-00401100351ADDAY171999GF108991081051008001999999MD1210101+9999MW1711
0057010530999991973040803004+70683+023683FM-12+0070ENHF V0209991C00001007501CN0700001N9-00401-00501100431ADDAY171999GF106991051051008001041999MD1210081+9999MW1011
0081010530999991973040806004+70683+023683FM-12+0070ENHF V0209991C00001004201CN0200001N9-00301-00401100531ADDAA199001091AY181999GF107991051031004501041011KA1999N-00601MD1210101+9999MW1151
0057010530999991973040809004+70683+023683FM-12+0070ENHF V0209991C00001024001CN0600001N9+00001-00201100621ADDAY111999GF105991031031008001041011MD1210091+9999MW1021
0057010530999991973040812004+70683+023683FM-12+0070ENHF V0200501N00301220001CN0600001N9-00101-00301100701ADDAY111999GF104991021031008001001011MD1210081+9999MW1011
0057010530999991973040815004+70683+023683FM-12+0070ENHF V0200901N00251220001CN0600001N9-00101-00301100751ADDAY101999GF103991021031008001001011MD1210051+9999MW1011
0081010530999991973040818004+70683+023683FM-12+0070ENHF V0200901N00151220001CN0700001N9-00101-00401100781ADDAA199000091AY101999GF101991011031008001001001KA1999M+00101MD1210031+9999MW1011
0057010530999991973040900004+70683+023683FM-12+0070ENHF V0201401N00461220001CN0700001N9-00201-00601100861ADDAY101999GF101991011071004501001001MD1210021+9999MW1021
0081010530999991973040906004+70683+023683FM-12+0070ENHF V0201401N00301220001CN0700001N9-00301-00601100881ADDAA199000091AY101999GF103991011021008001001021KA1999N-00401MD1210011+9999MW1021
0057010530999991973040909004+70683+023683FM-12+0070ENHF V0201801N00301220001CN0700001N9-00101-00601100871ADDAY101999GF103991011021008001001021MD1010011+9999MW1021
0057010530999991973040912004+70683+023683FM-12+0070ENHF V0201601N00461060001CN0700001N9+00101-00501100831ADDAY101999GF106991011021008001001021MD1710041+9999MW1021
0057010530999991973040915004+70683+023683FM-12+0070ENHF V0200901N001519999999N0700001N9+00101-00501100801ADDAY121999GF106991021001012501041021MD1710031+9999MW1021
0081010530999991973040918004+70683+023683FM-12+0070ENHF V0209991C00001021001CN0700001N9-00301-00501100771ADDAA199000091AY121999GF108991081001022501021999KA1999M+00201MD1710031+9999MW1031
0057010530999991973041000004+70683+023683FM-12+0070ENHF V0209991C00001015001CN0700001N9-00601-00701100651ADDAY121999GF108991081001017501021999MD1710081+9999MW1021
0057010530999991973041003004+70683+023683FM-12+0070ENHF V0200501N00101024001CN0300001N9-00501-00601100571ADDAY121999GF108991021061002501071999MD1710081+9999MW1151
0081010530999991973041006004+70683+023683FM-12+0070ENHF V0209991C00001024001CN0300001N9-00401-00501100531ADDAA199999929AY171999GF107991021061002501071999KA1999N-00601MD1610041+9999MW1151
0057010530999991973041009004+70683+023683FM-12+0070ENHF V0200601N00251220001CN0400001N9-00301-00601100511ADDAY121999GF101991011021008001001001MD1710021+9999MW1101
0057010530999991973041015004+70683+023683FM-12+0070ENHF V0200601N00251220001CN0400001N9-00101-00501100541ADDAY121999GF104991011021008001041011MD1210031+9999MW1101
0081010530999991973041018004+70683+023683FM-12+0070ENHF V0200501N00151220001CN0400001N9-00701-01001100541ADDAA199000091AY101999GF101991011081008001001001KA1999M+00101MD1410001+9999MW1101
0057010530999991973041100004+70683+023683FM-12+0070ENHF V0202301N00251220001CN0400001N9-00501-00601100631ADDAY101999GF104991041081008001001001MD1210031+9999MW1101
0057010530999991973041103004+70683+023683FM-12+0070ENHF V0202301N00361024001CN0500001N9-00101-00401100561ADDAY121999GF108991041081008001071999MD1810071+9999MW1101
0057010530999991973041109004+70683+023683FM-12+0070ENHF V0202001N00411004201CN0600001N9-00101-00401100501ADDAY121999GF108991081091004501999999MD1710051+9999MW1151
0057010530999991973041112004+70683+023683FM-12+0070ENHF V0202001N00511004201CN0300001N9+00001-00301100391ADDAY121999GF108991081091004501999999MD1710111+9999MW1151
0081010530999991973041118004+70683+023683FM-12+0070ENHF V0202301N00461007501CN0300001N9-00101-00201100211ADDAA199001091AY181999GF108991081091008001999999KA1999M+00101MD1710111+9999MW1151
0057010530999991973041200004+70683+023683FM-12+0070ENHF V0202701N00301004201CN0100001N9-00101-00301100021ADDAY181999GF107991071091004501999999MD1710091+9999MW1851
0057010530999991973041203004+70683+023683FM-12+0070ENHF V0202701N00361004201CN0300001N9+00001-00301099981ADDAY181999GF107991071091004501999999MD1710041+9999MW1151
0081010530999991973041206004+70683+023683FM-12+0070ENHF V0202201N00361007501CN0400001N9+00001-00301099921ADDAA199999929AY181999GF107991071091008001999999KA1999N-00101MD1710061+9999MW1151
0057010530999991973041209004+70683+023683FM-12+0070ENHF V0202201N00361004201CN0100001N9-00101-00401099931ADDAY181999GF108991081091004501999999MD1510031+9999MW1151
0057010530999991973041212004+70683+023683FM-12+0070ENHF V0202201N00201004201CN0300001N9+00101-00101099941ADDAY181999GF107991071091004501999999MD1110061+9999MW1151
0057010530999991973041215004+70683+023683FM-12+0070ENHF V0202201N00361004201CN0300001N9+00101-00101099961ADDAY181999GF105991051091004501001001MD1410001+9999MW1151
0057010530999991973041300004+70683+023683FM-12+0070ENHF V0202701N00511024001CN0700001N9+00001-00501100071ADDAY181999GF106991041021008001041001MD1410001+9999MW1021
0057010530999991973041303004+70683+023683FM-12+0070ENHF V0202701N00671007501CN0700001N9+00101-00401100061ADDAY121999GF107991051071008001071001MD1710011+9999MW1021
0100010530999991973041306004+70683+023683FM-12+0070ENHF V0202301N00611007501CN0700001N9+00101-00401100081ADDAA199000291AY121999GF107991051071008001071001KA1999N+00001MD1210021+9999MW1021EQDQ01+000822APC3  
0057010530999991973041309004+70683+023683FM-12+0070ENHF V0202301N00611004201CN0040001N9+00001-00201100141ADDAY181999GF108991061091004501021999MD1210061+9999MW1851
0057010530999991973041312004+70683+023683FM-12+0070ENHF V0202701N00721004201CN0300001N9+00001-00101100161ADDAY181999GF108991071091004501021999MD1210021+9999MW1151
0057010530999991973041315004+70683+023683FM-12+0070ENHF V0202701N00361004201CN9999999N9+00001-00201100181ADDAY181999GF108991081091004501999999MD1210021+9999MW1151
0081010530999991973041318004+70683+023683FM-12+0070ENHF V0202301N00251004201CN0700001N9+00001-00201100181ADDAA199000291AY181999GF107991071091004501001001KA1999M+00101MD1410001+9999MW1021
0057010530999991973041400004+70683+023683FM-12+0070ENHF V0200401N00151220001CN0700001N9-00301-00601099891ADDAY111999GF103991011021008001001011MD1710151+9999MW1011
0057010530999991973041403004+70683+023683FM-12+0070ENHF V0200501N00251220001CN0700001N9-00301-00601099691ADDAY101999GF103991011021008001001011MD1710201+9999MW1021
0081010530999991973041406004+70683+023683FM-12+0070ENHF V0201801N00671060001CN0700001N9-00201-01702099171ADDAA199000091AY101999GF107991011001022501041091KA1999N-00501MD1710521+9999MW1031
0057010530999991973041409004+70683+023683FM-12+0070ENHF V0201801N00611024001CN0600001N9-00201-01101099041ADDAY121999GF108991011021008001021999MD1710131+9999MW1101
0057010530999991973041412004+70683+023683FM-12+0070ENHF V0202701N00671001201CN0005001N9+00001-00201099121ADDAY181999GF108991081091001501999999MD1210081+9999MW1861
0057010530999991973041415004+70683+023683FM-12+0070ENHF V0202701N00821004201CN0030001N9-00301-00501099441ADDAY181999GF108991081091004501999999MD1210321+9999MW1851
0081010530999991973041418004+70683+023683FM-12+0070ENHF V0202301N00461004201CN0700001N9-00301-01501099311ADDAA199000291AY181999GF107991071071004501001001KA1999M+00101MD1710131+9999MW1021
0057010530999991973041500004+70683+023683FM-12+0070ENHF V0201801N01031004201CN0400001N9-00401-00701098821ADDAY181999GF108991081091004501999999MD1710281+9999MW1151
0114010530999991973041506004+70683+023683FM-12+0070ENHF V0203601N00721007501CN0600001N9-00201-00701099721ADDAA199002091AY181999GF107991051091008001041021KA1999N-00501MD1210712+9999MW1151REMSYN00591427EQDQ01+000712APC3  
0057010530999991973041512004+70683+023683FM-12+0070ENHF V0203201N00671004201CN0600001N9+00001-00601100311ADDAY181999GF107991071091004501001001MD1210401+9999MW1151
0081010530999991973041518004+70683+023683FM-12+0070ENHF V0202701N00461004201CN0300001N9+00001-00301100541ADDAA199001091AY181999GF107991061091004501001091KA1999M+00201MD1210071+9999MW1151
0057010530999991973041600004+70683+023683FM-12+0070ENHF V0203201N00561004201CN0040001N9-00201-00301100781ADDAY181999GF108991081091004501999999MD1210121+9999MW1161
0057010530999991973041603004+70683+023683FM-12+0070ENHF V0202701N00611004201CN9999999N9+99999+99999100821ADDAY181999GF108991081091004501999999MD1110041+9999MW1861
0057010530999991973041609004+70683+023683FM-12+0070ENHF V0202701N00511220001CN0700001N9+00001-01101100831ADDAY121999GF104991041021008001001021MD1210011+9999MW1011
0057010530999991973041612004+70683+023683FM-12+0070ENHF V0202301N00611220001CN0700001N9+00001-00401100921ADDAY121999GF104991021031008001001031MD1210081+9999MW1021
0081010530999991973041618004+70683+023683FM-12+0070ENHF V0209991C00001220001CN0700001N9-00401-00701100841ADDAA199000091AY101999GF102991011041008001001021KA1999M+00101MD1710021+9999MW1011
0057010530999991973041700004+70683+023683FM-12+0070ENHF V0200501N00301220001CN0700001N9-00701-01101100721ADDAY101999GF101991001001999999001051MD1610031+9999MW1021
0057010530999991973041703004+70683+023683FM-12+0070ENHF V0200701N00251220001CN0700001N9-00901-01301100701ADDAY101999GF103991001001999999001021MD1710021+9999MW1021
0081010530999991973041706004+70683+023683FM-12+0070ENHF V0200701N00101220001CN0700001N9-00801-01101100731ADDAA199000091AY101999GF102991001001999999001081KA1999N-01001MD1310031+9999MW1021
0057010530999991973041709004+70683+023683FM-12+0070ENHF V0209991C00001220001CN0700001N9-00401-00801100811ADDAY101999GF102991001001999999001081MD1210081+9999MW1021
0057010530999991973041712004+70683+023683FM-12+0070ENHF V0202201N00251220001CN0700001N9+00101-00501100841ADDAY111999GF105991011001017501071081MD1210031+9999MW1031
0057010530999991973041715004+70683+023683FM-12+0070ENHF V0202201N00101024001CN0700001N9+00101-00501100921ADDAY121999GF108991011011008001011999MD1210051+9999MW1021
0057010530999991973041803004+70683+023683FM-12+0070ENHF V0203201N00511004201CN0600001N9+00001-00301101401ADDAY181999GF108991081091004501999999MD1210211+9999MW1151
0081010530999991973041806004+70683+023683FM-12+0070ENHF V0203201N00301004201CN0600001N9-00101-00601101571ADDAA199999999AY181999GF107991071091004501999999KA1999N-00101MD1210171+9999MW1151
0057010530999991973041809004+70683+023683FM-12+0070ENHF V0202701N00361001201CN9999999N9-00101-00501101761ADDAY181999GF108991081091001501999999MD1210191+9999MW1861
0057010530999991973041812004+70683+023683FM-12+0070ENHF V0202901N00671004201CN0300001N9+00001-00701102001ADDAY181999GF107991071091004501999999MD1210241+9999MW1151
0057010530999991973041903004+70683+023683FM-12+0070ENHF V0200501N00201004201CN0070001N9-00401-00501102801ADDAY171999GF108991081001004501021999MD1210131+9999MW1711
0081010530999991973041906004+70683+023683FM-12+0070ENHF V0201401N00151004201CN0070001N9-00301-00501102891ADDAA199000591AY171999GF108991081001004501021999KA1999N-00401MD1210091+9999MW1711
0057010530999991973041909004+70683+023683FM-12+0070ENHF V0200901N00101024001CN0500001N9-00101-00401102961ADDAY181999GF106991031081008001071001MD1210071+9999MW1011
0057010530999991973041912004+70683+023683FM-12+0070ENHF V0201801N00201024001CN0600001N9+00001-00801103051ADDAY181999GF105991011081008001051001MD1210091+9999MW1011
0057010530999991973041915004+70683+023683FM-12+0070ENHF V0200901N00251220001CN0600001N9-00201-01001103051ADDAY111999GF101991011001017501071001MD1410001+9999MW1011
0081010530999991973041918004+70683+023683FM-12+0070ENHF V0200901N00301220001CN0700001N9-00201-00801103091ADDAA199999929AY111999GF102991011011008001071001KA1999M+00101MD1210041+9999MW1021
0057010530999991973042003004+70683+023683FM-12+0070ENHF V0200901N00251220001CN0700001N9-00401-01001103111ADDAY101999GF100991001001999999001001MD1410001+9999MW1021
0081010530999991973042006004+70683+023683FM-12+0070ENHF V0201301N00461220001CN0700001N9-00201-00901103071ADDAA199000091AY101999GF101991011011008001041001KA1999N-00501MD1710041+9999MW1031
0057010530999991973042009004+70683+023683FM-12+0070ENHF V0200901N00511220001CN0700001N9-00201-00701103081ADDAY101999GF101991011011008001031001MD1210011+9999MW1021
0057010530999991973042012004+70683+023683FM-12+0070ENHF V0201801N00411220001CN0700001N9+00101-00801102951ADDAY101999GF104991031021008001071001MD1710131+9999MW1031
0057010530999991973042015004+70683+023683FM-12+0070ENHF V0201801N00361220001CN0700001N9+00001-00801102841ADDAY101999GF101991011021008001001001MD1710111+9999MW1011
0081010530999991973042018004+70683+023683FM-12+0070ENHF V0201801N00361220001CN0700001N9-00101-01001102791ADDAA199000091AY101999GF101991011011008001001001KA1999M+00101MD1710051+9999MW1021
0057010530999991973042100004+70683+023683FM-12+0070ENHF V0201801N00721220001CN0700001N9-00301-01001102691ADDAY101999GF101991001001999999001021MD1710041+9999MW1021
0057010530999991973042103004+70683+023683FM-12+0070ENHF V0201801N00721220001CN0700001N9-00401-01001102671ADDAY101999GF100991001001999999001001MD1710021+9999MW1021
0081010530999991973042106004+70683+023683FM-12+0070ENHF V0201801N00921220001CN0700001N9-00301-00901102591ADDAA199000091AY101999GF100991001001999999001001KA1999N-00401MD1710081+9999MW1021
0057010530999991973042109004+70683+023683FM-12+0070ENHF V0201801N00821220001CN0700001N9-00201-00901102511ADDAY101999GF100991001001999999001001MD1710081+9999MW1021
0057010530999991973042112004+70683+023683FM-12+0070ENHF V0202001N00511220001CN0700001N9+00001-00901102531ADDAY101999GF100991001001999999001001MD1210021+9999MW1021
0057010530999991973042115004+70683+023683FM-12+0070ENHF V0201801N00611220001CN0700001N9+00001-01001102531ADDAY101999GF100991001001999999001001MD1410001+9999MW1021
0057010530999991973042200004+70683+023683FM-12+0070ENHF V0200501N00101220001CN0700001N9-00801-01301102601ADDAY101999GF100991001001999999001001MD1210081+9999MW1021
0057010530999991973042203004+70683+023683FM-12+0070ENHF V0200501N00101220001CN0700001N9-00901-01201102621ADDAY101999GF101991001001999999001011MD1110021+9999MW1021
0081010530999991973042206004+70683+023683FM-12+0070ENHF V0200501N00101220001CN0700001N9-00501-00801102611ADDAA199000091AY101999GF103991021001022501051011KA1999N-01001MD1710011+9999MW1031
0057010530999991973042209004+70683+023683FM-12+0070ENHF V0202001N00101015001CN0700001N9+00101-00501102611ADDAY111999GF107991071001017501071999MD1410001+9999MW1031
0057010530999991973042212004+70683+023683FM-12+0070ENHF V0202001N00101015001CN0700001N9+00201-00501102621ADDAY111999GF107991071001017501071999MD1410001+9999MW1021
0057010530999991973042215004+70683+023683FM-12+0070ENHF V0202201N00101015001CN0700001N9+00201-00601102621ADDAY121999GF107991071001017501071999MD1410001+9999MW1021
0081010530999991973042218004+70683+023683FM-12+0070ENHF V0209991C000019999999N0600001N9+00201-00401102621ADDAA199000091AY121999GF108991999999999999999999KA1999M+00201MD1410001+9999MW1021
0057010530999991973042300004+70683+023683FM-12+0070ENHF V0209991C00001024001CN0600001N9+00001-00401102631ADDAY121999GF108991031081008001071999MD1410001+9999MW1021
0057010530999991973042303004+70683+023683FM-12+0070ENHF V0200901N00051024001CN0600001N9-00401-00601102651ADDAY121999GF107991021081008001071001MD1210021+9999MW1021
0081010530999991973042306004+70683+023683FM-12+0070ENHF V0209991C00001024001CN0500001N9-00201-00401102621ADDAA199999929AY181999GF106991021081008001071001KA1999N-00401MD1410001+9999MW1151
0057010530999991973042315004+70683+023683FM-12+0070ENHF V0202401N00101024001CN0600001N9+00301-00101102651ADDAY121999GF106991021021008001071001MD1210011+9999MW1031
0081010530999991973042318004+70683+023683FM-12+0070ENHF V0202301N00361012001CN0600001N9+00201-00101102731ADDAA199000091AY121999GF107991051081008001071999KA1999M+00401MD1210081+9999MW1021
0057010530999991973042400004+70683+023683FM-12+0070ENHF V0203201N00251024001CN0600001N9+00201-00201102881ADDAY171999GF108991031071004501071999MD1210031+9999MW1681
0057010530999991973042403004+70683+023683FM-12+0070ENHF V0202201N00251024001CN0700001N9+00101-00601102771ADDAY121999GF105991011061008001031001MD1710111+9999MW1011
0057010530999991973042409004+70683+023683FM-12+0070ENHF V0201801N00461220001CN0700001N9+00201-00401102291ADDAY121999GF104991011021008001071081MD1710301+9999MW1011
0057010530999991973042412004+70683+023683FM-12+0070ENHF V0202001N00671060001CN0700001N9+00301-00401101951ADDAY121999GF106991011021008001071061MD1710341+9999MW1031
0057010530999991973042415004+70683+023683FM-12+0070ENHF V0202001N00611024001CN0700001N9+00301-00501101571ADDAY121999GF108991011011008001071999MD1710401+9999MW1021
