0057010550999991973010100004+71100+024000FM-12+001399999V0200901N00721004201CN0260001N9+00101-00201099141ADDAY181999GF108991081091004501999999MD1710491+9999MW1831
0071010550999991973010103004+71100+024000FM-12+001399999V0200701N01541004201CN0240001N9+00101-00101097961ADDAY181999GF108991081091004501999999MD1710991+9999MW1851REMSYN00599118
0081010550999991973010106004+71100+024000FM-12+001399999V0200701N01341004201CN0240001N9+00101-00101097581ADDAA199005091AY181999GF108991081091004501999999KA1999N+00101MD1710381+9999MW1831
0090010550999991973010109004+71100+024000FM-12+001399999V0200701N02261004201CN0260001N9+00001-00201098852ADDAY181999GF108991081091004501999999MD1311271+9999MW1831REMSYN00599127EQDQ01+098853APOSLP
0133010550999991973010112004+71100+024000FM-12+001399999V0203601N01231002101CN0140001N9+00001-00101100102ADDAA106002091AY181999GF108991081091002501999999MD1210992+9999MW1831REMSYN00599125EQDQ01+100103APOSLPQ02+000992APC3  Q03  00203PRCP99
0057010550999991973010115004+71100+024000FM-12+001399999V0203201N00611004201CN0260001N9+00101-00301100581ADDAY181999GF106991061091004501001001MD1210481+9999MW1151
0081010550999991973010118004+71100+024000FM-12+001399999V0202201N00611004201CN0260001N9+00101-00301100681ADDAA199002091AY181999GF108991081091004501999999KA1999M+00201MD1210101+9999MW1851
0057010550999991973010121004+71100+024000FM-12+001399999V0201801N00611004201CN0280001N9+00101-00201100411ADDAY181999GF108991081091004501999999MD1810271+9999MW1021
0087010550999991973010200004+71100+024000FM-12+001399999V0202201N01341007501CN0400001N9+00101-00301099601ADDAA106000291AY181999GF107991071091008001999999MD1710811+9999MW1021EQDQ01  00023PRCP99
0057010550999991973010203004+71100+024000FM-12+001399999V0202201N00611007501CN0400001N9+00401+00001098891ADDAY121999GF106991061091008001001001MD1710711+9999MW1021
0095010550999991973010206004+71100+024000FM-12+001399999V0202201N01641004201CN0240001N9+00401-00101098391ADDAA199001091AY181999GF108991081091004501999999KA1999N+00101MD1710501+9999MW1801REMSYN00591447
0057010550999991973010209004+71100+024000FM-12+001399999V0202201N02161004201CN0240001N9+00401+00201999999ADDAY181999GF108991081091004501999999MD1410001+9999MW1801
0087010550999991973010212004+71100+024000FM-12+001399999V0202701N02371004201CN0240001N9+00501+00101098311ADDAA106001091AY181999GF108991081091004501999999MD1810081+9999MW1801EQDQ01  00103PRCP99
0057010550999991973010215004+71100+024000FM-12+001399999V0203601N01541004201CN0240001N9+00201+00001098581ADDAY181999GF108991081091004501999999MD1310271+9999MW1811
0081010550999991973010218004+71100+024000FM-12+001399999V0203401N00921004201CN0220001N9+00001-00201099161ADDAA199003091AY181999GF108991081091004501999999KA1999M+00501MD1210581+9999MW1851
0057010550999991973010221004+71100+024000FM-12+001399999V0203401N00921004201CN0220001N9-00101-00501099231ADDAY181999GF108991081091004501999999MD1210071+9999MW1151
0057010550999991973010300004+71100+024000FM-12+001399999V0203201N00611004201CN0260001N9-00201-00701099271ADDAY121999GF108991081091004501999999MD1210041+9999MW1021
0057010550999991973010303004+71100+024000FM-12+001399999V0203101N01441220001CN0500001N9-00301-00701099411ADDAY181999GF103991031091008001001001MD1210141+9999MW1021
0081010550999991973010306004+71100+024000FM-12+001399999V0203101N01851220001CN0500001N9-00401-00701099631ADDAA199999999AY181999GF103991031091008001001001KA1999N-00401MD1210221+9999MW1021
0087010550999991973010312004+71100+024000FM-12+001399999V0203101N01951004201CN0400001N9-00301-00501100111ADDAA106001091AY181999GF106991061091004501001001MD1210301+9999MW1851EQDQ01  00103PRCP99
0057010550999991973010315004+71100+024000FM-12+001399999V0202901N02161220001CN0400001N9-00101-00501100501ADDAY181999GF104991041091008001001001MD1210391+9999MW1151
0081010550999991973010318004+71100+024000FM-12+001399999V0202901N02161007501CN0400001N9-00101-00301100621ADDAA199002091AY121999GF106991061091008001001001KA1999M-00101MD1210121+9999MW1801
0057010550999991973010321004+71100+024000FM-12+001399999V0203101N01951007501CN0400001N9-00201-00501100721ADDAY181999GF105991051091008001001001MD1210171+9999MW1851
0087010550999991973010400004+71100+024000FM-12+001399999V0203101N01751007501CN0400001N9-00101-00501100851ADDAA106000591AY181999GF105991051091008001001001MD1210061+9999MW1151EQDQ01  00053PRCP99
0057010550999991973010403004+71100+024000FM-12+001399999V0202701N01441220001CN0500001N9+00001-00401100721ADDAY181999GF103991031091008001001001MD1810131+9999MW1021
0114010550999991973010406004+71100+024000FM-12+001399999V0202201N00921220001CN0500001N9+00101-00201100371ADDAA199001091AY181999GF104991041091008001001001KA1999N-00201MD1710351+9999MW1021UA1M990199999REMSYN01170152 91448
0057010550999991973010409004+71100+024000FM-12+001399999V0201801N00821007501CN0600001N9-00101-00501099971ADDAY121999GF105991051091008001001001MD1710401+9999MW1021
0057010550999991973010412004+71100+024000FM-12+001399999V0201801N01031007501CN0500001N9+00001-00501099281ADDAY121999GF107991071091008001999999MD1710691+9999MW1021
0057010550999991973010415004+71100+024000FM-12+001399999V0201801N01021007501CN0500001N9-00101-00501098871ADDAY121999GF107991071091008001999999MD1710411+9999MW1021
0057010550999991973010418004+71100+024000FM-12+001399999V0202001N00511002101CN0040001N9+00101-00101098471ADDAY171999GF108991071071002501021999MD1710401+9999MW1731
0057010550999991973010421004+71100+024000FM-12+001399999V0202301N01021004201CN0140001N9+00401+00101098021ADDAY181999GF108991081091004501999999MD1710451+9999MW1831
0101010550999991973010500004+71100+024000FM-12+001399999V0202301N01031004201CN0220001N9+00301+00101097881ADDAA106002091AY181999GF108991081091004501999999MD1710141+9999MW1831REMSYN00591446EQDQ01  00203PRCP99
0071010550999991973010503004+71100+024000FM-12+001399999V0203101N02061004201CN0200001N9+00501+00301097951ADDAY181999GF108991081091004501999999MD1310071+9999MW1811REMSYN00591448
0095010550999991973010506004+71100+024000FM-12+001399999V0200401N02161004201CN0200001N9+00101-00101098451ADDAA199013091AY181999GF108991081091004501999999KA1999N+00101MD1210501+9999MW1841REMSYN00591459
0057010550999991973010509004+71100+024000FM-12+001399999V0203601N01441007501CN0500001N9-00101-00601099371ADDAY181999GF108991061091008001071999MD1210921+9999MW1151
0101010550999991973010512004+71100+024000FM-12+001399999V0203601N00921004201CN0200001N9-00201-00601099861ADDAA106001091AY181999GF108991081091004501999999MD1210491+9999MW1851REMSYN00591449EQDQ01  00103PRCP99
0057010550999991973010515004+71100+024000FM-12+001399999V0203401N00821004201CN0200001N9-00201-00601099971ADDAY181999GF108991081091004501999999MD1110111+9999MW1161
0095010550999991973010518004+71100+024000FM-12+001399999V0203601N01031220001CN0500001N9-00301-00701100091ADDAA199001091AY181999GF104991041091004501001001KA1999M+00101MD1210121+9999MW1151REMSYN00591446
0057010550999991973010521004+71100+024000FM-12+001399999V0203401N01031007501CN0500001N9-00301-00801100361ADDAY121999GF106991061091008001001001MD1210271+9999MW1021
0087010550999991973010600004+71100+024000FM-12+001399999V0203101N00921007501CN0280001N9-00201-00401100441ADDAA106000591AY181999GF107991071091008001999999MD1210081+9999MW1851EQDQ01  00053PRCP99
0071010550999991973010603004+71100+024000FM-12+001399999V0203201N00611220001CN0400001N9-00301-00801100401ADDAY181999GF104991041091008001001001MD1810041+9999MW1151REMSYN00591444
0081010550999991973010606004+71100+024000FM-12+001399999V0200501N00721007501CN0400001N9-00301-01001100401ADDAA199003091AY181999GF106991061091008001001001KA1999N-00401MD1410001+9999MW1151
0057010550999991973010609004+71100+024000FM-12+001399999V0200401N00821007501CN0400001N9-00201-01001100761ADDAY121999GF107991071091008001999999MD1310361+9999MW1151
0087010550999991973010612004+71100+024000FM-12+001399999V0203601N00721007501CN0300001N9-00201-00701101001ADDAA106000591AY181999GF107991071091008001999999MD1210241+9999MW1161EQDQ01  00053PRCP99
0057010550999991973010615004+71100+024000FM-12+001399999V0203101N00721007501CN0400001N9-00201-00701101341ADDAY181999GF107991071091008001999999MD1210341+9999MW1151
0081010550999991973010618004+71100+024000FM-12+001399999V0200401N01031007501CN0300001N9-00301-00501101451ADDAA199002091AY181999GF107991071091008001999999KA1999M-00201MD1210111+9999MW1151
0057010550999991973010621004+71100+024000FM-12+001399999V0203601N00611007501CN0300001N9-00201-00701101731ADDAY181999GF106991061091008001001001MD1210281+9999MW1151
0087010550999991973010700004+71100+024000FM-12+001399999V0203201N00921220001CN0300001N9-00301-00601101801ADDAA106000291AY181999GF103991031091008001001001MD1210071+9999MW1151EQDQ01  00023PRCP99
0071010550999991973010703004+71100+024000FM-12+001399999V0203101N01031220001CN0400001N9-00201-00701101651ADDAY181999GF103991031091008001001001MD1810151+9999MW1021REMSYN00591445
0081010550999991973010706004+71100+024000FM-12+001399999V0203101N00921007501CN0280001N9-00101-00601101351ADDAA199000591AY181999GF108991081091008001999999KA1999N-00301MD1710301+9999MW1851
0071010550999991973010709004+71100+024000FM-12+001399999V0202001N00921004201CN0400001N9-00101-00401100791ADDAY181999GF108991051091004501071999MD1010001+9999MW1151REMSYN00512***
0101010550999991973010712004+71100+024000FM-12+001399999V0201601N01231007501CN0500001N9-00201-00601099851ADDAA106999929AY121999GF108991081071008001999999MD1710941+9999MW1021REMSYN00591436EQDQ01  99993PRCP99
0057010550999991973010715004+71100+024000FM-12+001399999V0201601N01131004201CN9999999N9-00201-00401098911ADDAY181999GF108991081091004501999999MD1710941+9999MW1861
0095010550999991973010718004+71100+024000FM-12+001399999V0201401N00721001201CN0020001N9-00201-00401098541ADDAA199005091AY171999GF109991091999999999999999KA1999M-00101MD1610371+9999MW1731REMSYN00591436
0057010550999991973010721004+71100+024000FM-12+001399999V0200401N01541004201CN0040001N9-00201-00401098881ADDAY181999GF108991081091004501999999MD1310341+9999MW1851
0090010550999991973010803004+71100+024000FM-12+001399999V0203601N01851004201CN0280001N9-00101-00601100051ADDAY181999GF105991051091004501001001MD1210572+9999MW1161REMSYN00591448EQDQ01+000572APC3  
0095010550999991973010806004+71100+024000FM-12+001399999V0203601N01641004201CN0140001N9-00101-00501100421ADDAA199008091AY181999GF108991081091004501999999KA1999N-00201MD1210371+9999MW1851REMSYN00591448
0057010550999991973010809004+71100+024000FM-12+001399999V0203601N01751007501CN0280001N9-00301-00801100961ADDAY181999GF106991061091008001001001MD1210541+9999MW1151
0101010550999991973010812004+71100+024000FM-12+001399999V0203401N01541004201CN0280001N9-00301-00701101201ADDAA106999999AY181999GF107991071091004501999999MD1210241+9999MW1851REMSYN00591458EQDQ01  99993PRCP99
0057010550999991973010815004+71100+024000FM-12+001399999V0203401N01541004201CN0280001N9-00301-00701101381ADDAY181999GF107991071091004501999999MD1210181+9999MW1851
0095010550999991973010818004+71100+024000FM-12+001399999V0203601N00921220001CN0300001N9-00401-01001101531ADDAA199001091AY181999GF103991031091008001001001KA1999M-00101MD1210171+9999MW1151REMSYN00591447
0057010550999991973010821004+71100+024000FM-12+001399999V0203401N00411220001CN0500001N9-00501-01201101551ADDAY181999GF103991031091008001001001MD1110021+9999MW1151
0087010550999991973010900004+71100+024000FM-12+001399999V0202301N00411220001CN0500001N9-00401-01001101311ADDAA106000091AY121999GF102991021091008001001001MD1810241+9999MW1011EQDQ01  00003PRCP99
0071010550999991973010903004+71100+024000FM-12+001399999V0201801N00721007501CN0300001N9-00301-00801100881ADDAY121999GF106991061091008001001001MD1710431+9999MW1151REMSYN00591444
0081010550999991973010906004+71100+024000FM-12+001399999V0201801N01031007501CN0280001N9-00101-00401100261ADDAA199000591AY181999GF107991071091008001999999KA1999N-00501MD1710621+9999MW1851
0057010550999991973010909004+71100+024000FM-12+001399999V0202001N01031004201CN0140001N9+00001-00201099491ADDAY171999GF108991081091004501999999MD1710771+9999MW1711
0101010550999991973010912004+71100+024000FM-12+001399999V0203201N01441004201CN0400001N9+00501+00201099101ADDAA106002091AY181999GF108991061091004501021999MD1610391+9999MW1161REMSYN00591448EQDQ01  00203PRCP99
0057010550999991973010915004+71100+024000FM-12+001399999V0201201N01751007501CN0400001N9+00301+00101099051ADDAY181999GF107991071091008001999999MD1710051+9999MW1151
0095010550999991973010918004+71100+024000FM-12+001399999V0203201N01641220001CN0400001N9+00201+00001099021ADDAA199002091AY121999GF104991041091008001001001KA1999M+00501MD1710021+9999MW1011REMSYN00591448
0057010550999991973010921004+71100+024000FM-12+001399999V0203101N02061007501CN0280001N9+00301-00201098711ADDAY121999GF107991071091008001999999MD1710321+9999MW1021
0101010550999991973011000004+71100+024000FM-12+001399999V0203101N02261004201CN0240001N9-00101-00401098871ADDAA106999999AY181999GF108991081091004501999999MD1310161+9999MW1851REMSYN00591459EQDQ01  99993PRCP99
0071010550999991973011015004+71100+024000FM-12+001399999V0203401N00511007501CN0500001N9+00201+00001101101ADDAY121999GF106991061091008001001001MD1010001+9999MW1031REMSYN00501***
0081010550999991973011018004+71100+024000FM-12+001399999V0200401N00721007501CN0400001N9+00201+00001101201ADDAA199001091AY181999GF107991071091008001999999KA1999M+00301MD1210101+9999MW1161
0057010550999991973011021004+71100+024000FM-12+001399999V0200401N00301007501CN0400001N9+00101-00101101261ADDAY181999GF108991081091008001999999MD1210061+9999MW1161
0087010550999991973011100004+71100+024000FM-12+001399999V0202301N004119999999N0220001N9+00101-00101101181ADDAA106002091AY181999GF109991999999999999999999MD1810081+9999MW1831EQDQ01  00203PRCP99
0071010550999991973011103004+71100+024000FM-12+001399999V0202201N01031004201CN0220001N9+00201-00101100951ADDAY181999GF108991081091004501999999MD1710231+9999MW1831REMSYN00591445
0095010550999991973011106004+71100+024000FM-12+001399999V0202501N01391004201CN0220001N9+00601+00401100851ADDAA199008091AY181999GF108991081091004501999999KA1999N+00101MD1710101+9999MW1811REMSYN00591447
0057010550999991973011109004+71100+024000FM-12+001399999V0202701N01641004201CN0220001N9+00601+00401100821ADDAY181999GF108991081091004501999999MD1710031+9999MW1801
0057010550999991973011115004+71100+024000FM-12+001399999V0202701N01851004201CN0220001N9+00601+00401100991ADDAY181999GF108991081091004501999999MD1210111+9999MW1151
0095010550999991973011118004+71100+024000FM-12+001399999V0202701N01851004201CN0220001N9+00601+00401101021ADDAA199001091AY181999GF108991081091004501999999KA1999M+00601MD1210031+9999MW1151REMSYN00591458
0057010550999991973011121004+71100+024000FM-12+001399999V0203101N02061004201CN0220001N9+00601+00301101021ADDAY181999GF108991081091004501999999MD1410001+9999MW1801
0101010550999991973011200004+71100+024000FM-12+001399999V0202701N02061004201CN0220001N9+00601+00401101021ADDAA106001091AY181999GF108991081091004501999999MD1410001+9999MW1801REMSYN00591458EQDQ01  00103PRCP99
0071010550999991973011203004+71100+024000FM-12+001399999V0202701N01951004201CN0220001N9+00601+00301100871ADDAY181999GF108991081091004501999999MD1710151+9999MW1151REMSYN00591458
0095010550999991973011206004+71100+024000FM-12+001399999V0202501N01641004201CN0240001N9+00601+00401100671ADDAA199001091AY181999GF108991081091004501999999KA1999N+00501MD1710201+9999MW1151REMSYN00591458
0057010550999991973011209004+71100+024000FM-12+001399999V0202701N01851004201CN0260001N9+00601+00401100491ADDAY181999GF108991081091004501999999MD1710181+9999MW1801
0101010550999991973011212004+71100+024000FM-12+001399999V0202701N01951004201CN0240001N9+00601+00401100171ADDAA106000591AY181999GF108991081091004501999999MD1710321+9999MW1801REMSYN00591458EQDQ01  00053PRCP99
0057010550999991973011215004+71100+024000FM-12+001399999V0203101N02261004201CN0220001N9+00501+00301100031ADDAY181999GF108991081091004501999999MD1710141+9999MW1801
0095010550999991973011218004+71100+024000FM-12+001399999V0203101N02061004201CN0220001N9+00301+00001099971ADDAA199003091AY181999GF108991081091004501999999KA1999M+00601MD1710061+9999MW1831REMSYN00591459
0057010550999991973011221004+71100+024000FM-12+001399999V0203101N01641004201CN0220001N9+00301+00101099861ADDAY181999GF108991081091004501999999MD1710111+9999MW1151
0101010550999991973011300004+71100+024000FM-12+001399999V0203101N01751004201CN0240001N9+00401+00201100351ADDAA106000291AY181999GF106991061091004501001001MD1310491+9999MW1151REMSYN00591458EQDQ01  00023PRCP99
0071010550999991973011303004+71100+024000FM-12+001399999V0203101N01441007501CN0280001N9+00401-00101100651ADDAY181999GF107991071091008001999999MD1210301+9999MW1021REMSYN00591447
0095010550999991973011306004+71100+024000FM-12+001399999V0203401N01341007501CN0280001N9+00101-00301101311ADDAA199002091AY181999GF107991071091008001999999KA1999N+00101MD1210661+9999MW1151REMSYN00591458
0057010550999991973011309004+71100+024000FM-12+001399999V0203401N01441007501CN0280001N9+00001-00301101891ADDAY181999GF108991081091008001999999MD1210581+9999MW1161
0101010550999991973011312004+71100+024000FM-12+001399999V0203401N01131004201CN0220001N9+00101-00201102441ADDAA106000591AY181999GF108991081091004501999999MD1210551+9999MW1851REMSYN00591447EQDQ01  00053PRCP99
0057010550999991973011315004+71100+024000FM-12+001399999V0203401N01231007501CN0280001N9+00201-00301102551ADDAY181999GF108991081091008001999999MD1110111+9999MW1151
0095010550999991973011318004+71100+024000FM-12+001399999V0203101N01131007501CN0280001N9+00201-00301102581ADDAA199001091AY181999GF107991071091008001999999KA1999M+00201MD1210031+9999MW1151REMSYN00591446
0057010550999991973011321004+71100+024000FM-12+001399999V0209999999999060001CN0018001N9+99999+99999999999ADDGF106991021041022501001031MD1510001+9999REMSYN00552811
0101010550999991973011400004+71100+024000FM-12+001399999V0202701N01341004201CN0280001N9+00301-00101102381ADDAA106000291AY181999GF108991081091004501999999MD1710101+9999MW1151REMSYN00591446EQDQ01  00023PRCP99
0071010550999991973011403004+71100+024000FM-12+001399999V0202501N01031012001CN0400001N9+00201-00201102091ADDAY121999GF105991051041012501001001MD1710291+9999MW1011REMSYN00591445
0095010550999991973011406004+71100+024000FM-12+001399999V0202301N01341220001CN0400001N9+00301-00101101741ADDAA199000291AY121999GF104991031041012501041001KA1999N+00201MD1710351+9999MW1021REMSYN00591446
0057010550999991973011409004+71100+024000FM-12+001399999V0202301N01541007501CN0400001N9+00401-00101101401ADDAY181999GF108991081091008001999999MD1710341+9999MW1151
0101010550999991973011412004+71100+024000FM-12+001399999V0202201N01541007501CN0500001N9+00401+00001101211ADDAA106999929AY121999GF106991061091008001001001MD1710191+9999MW1021REMSYN00591447EQDQ01  99993PRCP99
0057010550999991973011415004+71100+024000FM-12+001399999V0202201N01751007501CN0400001N9+00501+00101100911ADDAY121999GF107991071091008001999999MD1710301+9999MW1021
0095010550999991973011418004+71100+024000FM-12+001399999V0202701N02061007501CN0400001N9+00401+00001100651ADDAA199999929AY121999GF107991071091008001999999KA1999M+00501MD1710261+9999MW1021REMSYN00591458
0057010550999991973011421004+71100+024000FM-12+001399999V0202501N01751007501CN0400001N9+00501+00201100501ADDAY121999GF108991051091008001071999MD1710151+9999MW1021
0101010550999991973011500004+71100+024000FM-12+001399999V0202701N01851007501CN0240001N9+00501+00301100431ADDAA106999929AY181999GF108991081091008001999999MD1710071+9999MW1801REMSYN00591458EQDQ01  99993PRCP99
0071010550999991973011503004+71100+024000FM-12+001399999V0202701N01851004201CN0220001N9+00501+00301100311ADDAY181999GF108991081091004501999999MD1710121+9999MW1801REMSYN00591458
0095010550999991973011506004+71100+024000FM-12+001399999V0202701N01751004201CN0220001N9+00501+00301100201ADDAA199001091AY181999GF108991081091004501999999KA1999N+00401MD1710111+9999MW1801REMSYN00591458
0057010550999991973011509004+71100+024000FM-12+001399999V0202701N01751004201CN0220001N9+00501+00301100211ADDAY181999GF108991081091004501999999MD1310011+9999MW1151
0101010550999991973011512004+71100+024000FM-12+001399999V0202501N01751004201CN0220001N9+00501+00301100161ADDAA106999929AY181999GF108991081091004501999999MD1810051+9999MW1151REMSYN00591448EQDQ01  99993PRCP99
0057010550999991973011515004+71100+024000FM-12+001399999V0203201N00411004201CN0140001N9+00401+00201100181ADDAY181999GF108991081091004501999999MD1310021+9999MW1161
0095010550999991973011518004+71100+024000FM-12+001399999V0202701N00821004201CN0140001N9+00401+00201100211ADDAA199007091AY181999GF108991081091004501999999KA1999M+00401MD1210031+9999MW1801REMSYN00591448
0057010550999991973011521004+71100+024000FM-12+001399999V0203101N00921007501CN0500001N9+00401+00101100241ADDAY181999GF107991071091008001999999MD1210031+9999MW1021
0087010550999991973011600004+71100+024000FM-12+001399999V0203101N00721007501CN0500001N9+00201-00301100361ADDAA106000591AY181999GF106991061091008001001001MD1210121+9999MW1021EQDQ01  00053PRCP99
0071010550999991973011603004+71100+024000FM-12+001399999V0203601N00721007501CN0500001N9+00201-00201100421ADDAY121999GF108991081091008001999999MD1210061+9999MW1021REMSYN00591444
0081010550999991973011606004+71100+024000FM-12+001399999V0203401N00821007501CN0500001N9+00201-00301100541ADDAA199000591AY121999GF108991081091008001999999KA1999N+00201MD1210121+9999MW1021
0057010550999991973011609004+71100+024000FM-12+001399999V0202601N00611007501CN0500001N9+00101-00401100781ADDAY121999GF106991061091008001001001MD1210241+9999MW1021
0087010550999991973011612004+71100+024000FM-12+001399999V0203601N00611007501CN0500001N9+00101-00401100941ADDAA106000091AY121999GF107991071091008001999999MD1210161+9999MW1021EQDQ01  00003PRCP99
0057010550999991973011615004+71100+024000FM-12+001399999V0203101N00511007501CN0500001N9+00101-00401101081ADDAY121999GF107991071091008001999999MD1210141+9999MW1021
0081010550999991973011618004+71100+024000FM-12+001399999V0203601N00411007501CN0500001N9+00001-00501101171ADDAA199000091AY121999GF106991061091008001001001KA1999M+00201MD1210091+9999MW1021
0057010550999991973011621004+71100+024000FM-12+001399999V0200901N00301004201CN0140001N9+00001-00401101281ADDAY181999GF108991081091004501999999MD1210111+9999MW1851
0057010550999991973011700004+71100+024000FM-12+001399999V0200501N00511007501CN0500001N9+00001-00601101331ADDAY181999GF107991071091008001999999MD1210051+9999MW1151
0071010550999991973011703004+71100+024000FM-12+001399999V0200901N00611007501CN0500001N9+00101-00401101321ADDAY121999GF108991081091008001999999MD1810011+9999MW1021REMSYN00591434
0081010550999991973011706004+71100+024000FM-12+001399999V0200701N00611007501CN0500001N9+00101-00501101341ADDAA199000091AY121999GF107991071091008001999999KA1999N+00001MD1310021+9999MW1021
0057010550999991973011709004+71100+024000FM-12+001399999V0201401N00821012001CN0500001N9+00001-00501101451ADDAY121999GF107991071071012501999999MD1210111+9999MW1021
0087010550999991973011712004+71100+024000FM-12+001399999V0201401N01031012001CN0500001N9-00101-00601101491ADDAA106000091AY121999GF107991071071012501999999MD1210041+9999MW1021EQDQ01  00003PRCP99
0057010550999991973011715004+71100+024000FM-12+001399999V0201401N01131220001CN0500001N9-00201-00701101521ADDAY121999GF103991031041012501001001MD1210031+9999MW1011
0084010550999991973011718004+71100+024000FM-12+001399999V0201401N01341220001CN0500001N9-00301-00701101541ADDAY101999GF101991011041012501001999KA1999M+00101MD1210051+9999MW1021REMSYN0059636*
0101010550999991973011800004+71100+024000FM-12+001399999V0201401N01031024001CN0500001N9-00101-00401101541ADDAA106000091AY121999GF106991031041012501061001MD1410001+9999MW1031REMSYN00591436EQDQ01  00003PRCP99
0071010550999991973011803004+71100+024000FM-12+001399999V0201401N01031220001CN0500001N9-00201-00501101551ADDAY121999GF103991011041012501001081MD1210011+9999MW1021REMSYN00591435
0081010550999991973011806004+71100+024000FM-12+001399999V0201401N00821220001CN0500001N9-00101-00401101581ADDAA199000091AY121999GF103991011041012501001081KA1999N-00301MD1210031+9999MW1021
0057010550999991973011809004+71100+024000FM-12+001399999V0201201N00611220001CN0500001N9-00101-00401101681ADDAY101999GF102991021001017501031001MD1210101+9999MW1021
0087010550999991973011812004+71100+024000FM-12+001399999V0201801N00411220001CN0600001N9+00001-00301101721ADDAA106000091AY101999GF102991021001017501031001MD1210041+9999MW1021EQDQ01  00003PRCP99
0057010550999991973011815004+71100+024000FM-12+001399999V0202001N00301024001CN0600001N9+00101-00301101791ADDAY121999GF106991031041012501051001MD1210071+9999MW1031
0081010550999991973011818004+71100+024000FM-12+001399999V0202001N003019999999N0600001N9+00201-00201101861ADDAA199000091AY121999GF108991081001012501071999KA1999M+00201MD1210071+9999MW1021
0057010550999991973011821004+71100+024000FM-12+001399999V0201601N00511021001CN0600001N9+00101-00201101951ADDAY121999GF108991081001022501071999MD1210091+9999MW1021
0057010550999991973011915004+71100+024000FM-12+001399999V0202501N01541007501CN0500001N9+00401+00101102331ADDAY121999GF108991061091008001071999MD1410001+9999MW1151
0114010550999991973011918004+71100+024000FM-12+001399999V0202301N01541004201CN0220001N9+00401+00201102351ADDAA199999929AY181999GF108991081091004501999999KA1999M+00501MD1210021+9999MW1801UA1M990199999REMSYN01179105 91447
0057010550999991973011921004+71100+024000FM-12+001399999V0202501N01331004201CN0220001N9+00501+00301102401ADDAY181999GF108991081091004501999999MD1210051+9999MW1801
0101010550999991973012000004+71100+024000FM-12+001399999V0202701N01231220001CN0400001N9+00501+00201102441ADDAA106001091AY181999GF104991041091004501001001MD1210041+9999MW1151REMSYN00591446EQDQ01  00103PRCP99
0071010550999991973012003004+71100+024000FM-12+001399999V0203201N01031004201CN0400001N9+00501+00201102511ADDAY181999GF106991061091004501001001MD1210071+9999MW1161REMSYN00591445
0095010550999991973012006004+71100+024000FM-12+001399999V0203201N01031004201CN0300001N9+00501+00301102591ADDAA199004091AY181999GF108991081091004501999999KA1999N+00401MD1210081+9999MW1831REMSYN00591446
0057010550999991973012009004+71100+024000FM-12+001399999V0202501N01031004201CN0400001N9+00501+00301102641ADDAY181999GF107991071091004501999999MD1210061+9999MW1801
0087010550999991973012012004+71100+024000FM-12+001399999V0202501N00821004201CN0400001N9+00401+00201102731ADDAA106003091AY181999GF107991071091004501999999MD1210081+9999MW1151EQDQ01  00303PRCP99
0057010550999991973012015004+71100+024000FM-12+001399999V0202501N00821004201CN0500001N9+00401+00101102781ADDAY181999GF107991071091004501999999MD1210051+9999MW1021
0081010550999991973012018004+71100+024000FM-12+001399999V0202501N00511004201CN0500001N9+00401+00201102801ADDAA199003091AY181999GF106991061091004501001001KA1999M+00501MD1210021+9999MW1021
0057010550999991973012021004+71100+024000FM-12+001399999V0202001N00411007501CN0500001N9+00301+00001102771ADDAY121999GF107991071091008001999999MD1810031+9999MW1021
0087010550999991973012100004+71100+024000FM-12+001399999V0201801N00411220001CN0600001N9+00201-00101102681ADDAA106000091AY101999GF101991011001017501051001MD1710091+9999MW1011EQDQ01  00003PRCP99
0082010550999991973012103004+71100+024000FM-12+001399999V0202001N00301220001CN0600001N9+00101-00201102541ADDAA199000091AY101999GF103991031001017501051001MD1710141+9999MW1021REMSYN00591432
0081010550999991973012106004+71100+024000FM-12+001399999V0202001N00411220001CN0600001N9+00101-00301102331ADDAA199000091AY101999GF103991031001017501051001KA1999N+00101MD1710211+9999MW1021
0057010550999991973012109004+71100+024000FM-12+001399999V0202001N00301220001CN0600001N9+00101-00301102271ADDAY101999GF102991021001017501051001MD1710061+9999MW1021
0087010550999991973012200004+71100+024000FM-12+001399999V0203101N00301007501CN0300001N9-00501-00701101151ADDAA106000091AY111999GF106991051031008001061001MD1210061+9999MW1031EQDQ01  00003PRCP99
0057010550999991973012315004+71100+024000FM-12+001399999V0202001N00611220001CN0700001N9+00101-00401101941ADDAY101999GF101991011001022501031001MD1710161+9999MW1021
0100010550999991973012318004+71100+024000FM-12+001399999V0200501N00721004201CN0400001N9+00201-00101102652ADDAA199000591AY181999GF108991081091004501999999KA1999M+00301MD1810041+9999MW1151EQDQ01+102653APOSLP
0057010550999991973012321004+71100+024000FM-12+001399999V0201401N008219999999N0400001N9+00101+99999102471ADDAY181999GF107991071091999999999041MW1021REMSYN00553718
0101010550999991973012400004+71100+024000FM-12+001399999V0201401N01231220001CN0600001N9-00101-00501102171ADDAA106000091AY101999GF101991011001022501031001MD1710301+9999MW1021REMSYN00591436EQDQ01  00003PRCP99
0071010550999991973012403004+71100+024000FM-12+001399999V0201401N01231220001CN0600001N9-00301-00701101791ADDAY121999GF103991031001022501041001MD1710381+9999MW1021REMSYN00591436
0095010550999991973012406004+71100+024000FM-12+001399999V0201401N00921220001CN0600001N9-00301-00701101321ADDAA199000091AY121999GF103991031001022501041001KA1999N-00501MD1710471+9999MW1021REMSYN00591436
0057010550999991973012409004+71100+024000FM-12+001399999V0201401N01441220001CN0600001N9-00301-00701100801ADDAY121999GF104991041001022501041001MD1710521+9999MW1021
0057010550999991973012412004+71100+024000FM-12+001399999V0202001N00821024001CN0300001N9-00201-00701100381ADDAY121999GF108991011071004501021999MD1710391+9999MW1101
0057010550999991973012415004+71100+024000FM-12+001399999V0201601N00301007501CN0280001N9-00101-00401100041ADDAY181999GF106991061091008001001001MD1710391+9999MW1151
0081010550999991973012418004+71100+024000FM-12+001399999V0201401N00511007501CN0280001N9+00201-00101099761ADDAA199999929AY121999GF106991061091008001001001KA1999M+00201MD1710281+9999MW1021
0057010550999991973012421004+71100+024000FM-12+001399999V0201801N00721004201CN0140001N9+00201+00001099471ADDAY181999GF108991081091004501999999MD1710291+9999MW1831
0087010550999991973012500004+71100+024000FM-12+001399999V0201801N00721004201CN0280001N9+00201+00001099161ADDAA106000591AY181999GF108991081091004501999999MD1710311+9999MW1151EQDQ01  00053PRCP99
0071010550999991973012503004+71100+024000FM-12+001399999V0201601N00821004201CN0220001N9+00101-00101099051ADDAY181999GF108991081091004501999999MD1710111+9999MW1831REMSYN00591435
0081010550999991973012506004+71100+024000FM-12+001399999V0202001N00301004201CN0140001N9+00101-00101099211ADDAA199006091AY181999GF108991081091004501999999KA1999N+00101MD1310161+9999MW1801
0057010550999991973012509004+71100+024000FM-12+001399999V0209991C00001004201CN0140001N9+00101-00101099371ADDAY181999GF108991081091004501999999MD1210161+9999MW1831
0087010550999991973012512004+71100+024000FM-12+001399999V0203201N00611004201CN0260001N9+00301+00101099541ADDAA106007091AY181999GF108991061091004501071999MD1210171+9999MW1151EQDQ01  00703PRCP99
0057010550999991973012515004+71100+024000FM-12+001399999V0202901N00921004201CN0260001N9+00401+00101099701ADDAY181999GF107991071091004501999999MD1210161+9999MW1151
0081010550999991973012518004+71100+024000FM-12+001399999V0202301N00301007501CN0400001N9+00401+00001099741ADDAA199009091AY181999GF108991081091008001999999KA1999M+00401MD1110401+9999MW1151
0057010550999991973012521004+71100+024000FM-12+001399999V0201401N01031007501CN0300001N9+00101-00201099711ADDAY181999GF107991071091008001999999MD1810031+9999MW1151
0101010550999991973012600004+71100+024000FM-12+001399999V0201601N01131007501CN0400001N9+00001-00301099651ADDAA106000091AY121999GF106991061091008001001001MD1710061+9999MW1021REMSYN00591446EQDQ01  00003PRCP99
0095010550999991973012606004+71100+024000FM-12+001399999V0201601N01541220001CN0500001N9-00401-00701099421ADDAA199000091AY101999GF102991021001022501041001KA1999N-00401MD1710081+9999MW1021REMSYN00591447
0057010550999991973012609004+71100+024000FM-12+001399999V0201401N01541220001CN0260001N9-00501-00801099441ADDAY121999GF104991021051012501051001MD1310021+9999MW1021
0077010550999991973012612004+71100+024000FM-12+001399999V0201201N01751012001CN0260001N9-00701-01001099441ADDAY121999GF107991071071012501999999MD1010001+9999MW1021REMSYN0111**** 91438
0057010550999991973012615004+71100+024000FM-12+001399999V0201201N01751012001CN9999999N9-00801-01101099611ADDAY121999GF107991071071012501999999MD1210171+9999MW1021
0101010550999991973012618004+71100+024000FM-12+001399999V0201201N01851012001CN0260001N9-01001-01301099701ADDAA199000091AY121999GF108991081071012501999999KA1999M-00401MD1010001+9999MW1021REMSYN01109*** 91438
0057010550999991973012621004+71100+024000FM-12+001399999V0201401N01541007501CN0180001N9-01201-01501099901ADDAY181999GF108991081091008001999999MD1210201+9999MW1851
0101010550999991973012700004+71100+024000FM-12+001399999V0201401N01541004201CN0140001N9-01101-01301100061ADDAA106000591AY181999GF108991081091004501999999MD1210161+9999MW1851REMSYN00591447EQDQ01  00053PRCP99
0071010550999991973012703004+71100+024000FM-12+001399999V0201401N01441004201CN0140001N9-00801-01101100171ADDAY181999GF106991061091004501001001MD1210111+9999MW1151REMSYN00591447
0095010550999991973012706004+71100+024000FM-12+001399999V0201201N01541220001CN0260001N9-01201-01501100091ADDAA199000591AY121999GF104991041091008001001001KA1999N-01201MD1810081+9999MW1021REMSYN00591448
0057010550999991973012709004+71100+024000FM-12+001399999V0201401N01851220001CN0260001N9-01201-01501100201ADDAY121999GF103991031061004501001001MD1510111+9999MW1021
0101010550999991973012712004+71100+024000FM-12+001399999V0201401N01341220001CN0280001N9-01201-01401100341ADDAA106000091AY121999GF103991031061002501001001MD1210141+9999MW1021REMSYN00591448EQDQ01  00003PRCP99
0057010550999991973012715004+71100+024000FM-12+001399999V0201401N01341220001CN0280001N9-01101-01401100371ADDAY121999GF103991031061004501001001MD1210031+9999MW1021
0095010550999991973012718004+71100+024000FM-12+001399999V0201401N01541220001CN0260001N9-01001-01301100421ADDAA199000091AY121999GF104991041061004501001001KA1999M-01001MD1210051+9999MW1021REMSYN00591447
0057010550999991973012721004+71100+024000FM-12+001399999V0201601N02061220001CN0260001N9-01001-01301100461ADDAY121999GF103991031061004501001001MD1210041+9999MW1021
0101010550999991973012800004+71100+024000FM-12+001399999V0201601N01951220001CN0260001N9-01001-01201100461ADDAA106000091AY101999GF102991021061008001001001MD1410001+9999MW1021REMSYN00591448EQDQ01  00003PRCP99
0071010550999991973012803004+71100+024000FM-12+001399999V0201601N01441220001CN0260001N9-01001-01201100641ADDAY101999GF102991021061008001001001MD1210181+9999MW1021REMSYN00591447
0095010550999991973012806004+71100+024000FM-12+001399999V0201401N01341220001CN0400001N9-00901-01101100591ADDAA199000091AY101999GF102991021061004501001001KA1999N-01101MD1810051+9999MW1021REMSYN00591447
0057010550999991973012809004+71100+024000FM-12+001399999V0201601N00821220001CN0280001N9-00801-01001100591ADDAY121999GF104991041061004501001001MD1410001+9999MW1021
0101010550999991973012812004+71100+024000FM-12+001399999V0201601N00821012001CN0400001N9-00501-00701100571ADDAA106000091AY121999GF106991061041012501001001MD1810021+9999MW1031REMSYN00591436EQDQ01  00003PRCP99
0057010550999991973012815004+71100+024000FM-12+001399999V0201601N01341024001CN0400001N9-00601-00801100511ADDAY121999GF106991031041012501041001MD1710061+9999MW1021
0114010550999991973012818004+71100+024000FM-12+001399999V0201601N01341220001CN0400001N9-00601-00901100431ADDAA199000091AY121999GF104991041001017501031001KA1999M+99999MD1710081+9999MW1021REMSYN00591436EQDQ01 -01502ATMX  
0057010550999991973012821004+71100+024000FM-12+001399999V0201601N01441220001CN0400001N9-00501-00801100331ADDAY101999GF100991001001999999001001MD1710101+9999MW1021
0101010550999991973012900004+71100+024000FM-12+001399999V0201601N01231220001CN0500001N9-00501-00901100301ADDAA106000091AY101999GF101991011061008001001001MD1710031+9999MW1021REMSYN00591437EQDQ01  00003PRCP99
0071010550999991973012903004+71100+024000FM-12+001399999V0201601N01031220001CN0500001N9-00501-00901100271ADDAY101999GF101991011061008001001001MD1710031+9999MW1021REMSYN00591435
0095010550999991973012906004+71100+024000FM-12+001399999V0201601N00921220001CN0600001N9-00601-00901100191ADDAA199000091AY101999GF100991001001999999001001KA1999N-00701MD1710081+9999MW1021REMSYN00591436
0057010550999991973012909004+71100+024000FM-12+001399999V0201601N01031220001CN0600001N9-00601-00901100131ADDAY101999GF101991011021008001001001MD1710061+9999MW1021
0087010550999991973012912004+71100+024000FM-12+001399999V0201601N00821015001CN0600001N9-00501-00801100101ADDAA106000091AY121999GF106991061001017501071999MD1710031+9999MW1031EQDQ01  00003PRCP99
0057010550999991973012915004+71100+024000FM-12+001399999V0201601N00721004201CN0280001N9-00501-00701100041ADDAY181999GF108991081091004501999999MD1710061+9999MW1851
0081010550999991973012918004+71100+024000FM-12+001399999V0202001N00511220001CN0500001N9-00201-00701100031ADDAA199999929AY181999GF104991041091008001999999KA1999M-00201MD1710011+9999MW1151
0057010550999991973012921004+71100+024000FM-12+001399999V0202001N00611220001CN0500001N9-00201-00701100051ADDAY121999GF102991021091008001999999MD1310021+9999MW1021
0087010550999991973013000004+71100+024000FM-12+001399999V0202201N01031220001CN0500001N9-00201-00701100071ADDAA106000091AY121999GF102991021051012501001001MD1210021+9999MW1021EQDQ01  00003PRCP99
0071010550999991973013003004+71100+024000FM-12+001399999V0201801N00721220001CN0500001N9-00301-00701100061ADDAY121999GF102991021041012501001001MD1710011+9999MW1021REMSYN00591434
0081010550999991973013006004+71100+024000FM-12+001399999V0202001N00611220001CN0500001N9-00201-00701100041ADDAA199000091AY121999GF103991011041008001051001KA1999N-00401MD1710021+9999MW1021
0057010550999991973013009004+71100+024000FM-12+001399999V0202201N00821007501CN0140001N9-00201-01501100101ADDAY181999GF107991071091008001001001MD1310061+9999MW1151
0057010550999991973013012004+71100+024000FM-12+001399999V0202201N01031004201CN0140001N9-00101-00301100151ADDAY181999GF108991081091004501999999MD1210051+9999MW1851
0057010550999991973013015004+71100+024000FM-12+001399999V0202201N00921007501CN0180001N9+00101-00101100281ADDAY181999GF107991071091008001999999MD1210131+9999MW1151
0081010550999991973013018004+71100+024000FM-12+001399999V0202501N00921007501CN0180001N9+00201+00001999999ADDAA199000291AY181999GF108991081091008001999999KA1999M+00201MD1210121+9999MW1021
0057010550999991973013021004+71100+024000FM-12+001399999V0202501N00821007501CN0260001N9+00201+00001100491ADDAY181999GF106991061091008001001001MD1210091+9999MW1021
0095010550999991973013106004+71100+024000FM-12+001399999V0202201N00511007501CN0500001N9+00201-00101100431ADDAA199000291AY121999GF106991061091008001001001KA1999N+00201MD1710101+9999MW1021REMSYN00579302
0057010550999991973013109004+71100+024000FM-12+001399999V0202201N00511220001CN0500001N9+00101-00101100371ADDAY121999GF103991031001017501061001MD1710061+9999MW1021
0082010550999991973013112004+71100+024000FM-12+001399999V0201801N01021220001CN0500001N9+00001-00201100151ADDAA199000091AY121999GF104991041001017501061001MD1710221+9999MW1021REMSYN005700//
0057010550999991973013115004+71100+024000FM-12+001399999V0201601N01021024001CN0500001N9+00001-00401099921ADDAY121999GF106991041071012501021999MD1710231+9999MW1031
0095010550999991973013118004+71100+024000FM-12+001399999V0202001N00821220001CN0500001N9+00101-00401099821ADDAA199000091AY121999GF104991041001017501061001KA1999M+00201MD1710101+9999MW1021REMSYN00570002
0057010550999991973013121004+71100+024000FM-12+001399999V0202001N00611220001CN0500001N9+00201-00201099641ADDAY121999GF104991041001017501061001MD1710181+9999MW1021
0087010550999991973020100004+71100+024000FM-12+001399999V0202001N00821007501CN0260001N9+00201-00201099541ADDAA106000091AY121999GF107991071041008001999999MD1710191+9999MW1021EQDQ01  00003PRCP99
0071010550999991973020103004+71100+024000FM-12+001399999V0202201N00921007501CN0400001N9+00201-00101099281ADDAY121999GF107991071091008001999999MD1710101+9999MW1021REMSYN00591435
0120010550999991973020106004+71100+024000FM-12+001399999V0202201N016419999999N0280001N9+00801+99999099281ADDAA199000291AY181999GF108991999021022501001031KA1999N+00201MD1010001+9999MW1801REMSYN01101716 91447EQDQ01+023423ATOD  
0057010550999991973020109004+71100+024000FM-12+001399999V0202201N01441004201CN0280001N9+00301+00101099241ADDAY181999GF108991081091004501999999MD1710041+9999MW1151
0101010550999991973020112004+71100+024000FM-12+001399999V0202501N01441004201CN0180001N9+00301+00101099261ADDAA106001091AY181999GF108991081091004501999999MD1310021+9999MW1801REMSYN00591447EQDQ01  00103PRCP99
0057010550999991973020115004+71100+024000FM-12+001399999V0202501N01641004201CN0260001N9+00401-00101099331ADDAY181999GF106991061091004501001001MD1210071+9999MW1151
0095010550999991973020118004+71100+024000FM-12+001399999V0202701N01341004201CN0280001N9+00301-00101099341ADDAA199001091AY181999GF107991071091004501999999KA1999M+00401MD1210011+9999MW1151REMSYN00591447
0057010550999991973020121004+71100+024000FM-12+001399999V0202701N00721004201CN0260001N9+00201+00001099251ADDAY181999GF108991081091004501999999MD1810091+9999MW1831
0101010550999991973020200004+71100+024000FM-12+001399999V0202701N00511004201CN0260001N9+00101-00101099131ADDAA106001091AY181999GF108991081091004501999999MD1710121+9999MW1831REMSYN00591446EQDQ01  00103PRCP99
0071010550999991973020203004+71100+024000FM-12+001399999V0202701N01231004201CN0260001N9+00101-00101099091ADDAY181999GF108991081091004501999999MD1710041+9999MW1151REMSYN00591446
0095010550999991973020206004+71100+024000FM-12+001399999V0202701N00821004201CN0260001N9+00101-00301098941ADDAA199004091AY181999GF106991061091004501999999KA1999N+00001MD1710151+9999MW1151REMSYN00591446
0057010550999991973020209004+71100+024000FM-12+001399999V0203101N00411007501CN0260001N9+00101-00301098561ADDAY121999GF106991061091008001001001MD1710381+9999MW1151
0087010550999991973020212004+71100+024000FM-12+001399999V0201401N00511007501CN0280001N9+00001-00301098161ADDAA106999999AY181999GF106991061091008001001001MD1710401+9999MW1151EQDQ01  99993PRCP99
0057010550999991973020215004+71100+024000FM-12+001399999V0201401N00921007501CN0500001N9+00001-00401097821ADDAY181999GF105991051091008001001001MD1710341+9999MW1021
0081010550999991973020218004+71100+024000FM-12+001399999V0201601N00511007501CN0500001N9-00101-00501097801ADDAA199001091AY121999GF105991051091008001001001KA1999M+00101MD1710021+9999MW1021
0057010550999991973020221004+71100+024000FM-12+001399999V0201601N00301007501CN0400001N9-00201-00601097981ADDAY121999GF107991071091008001999999MD1310181+9999MW1021
0087010550999991973020300004+71100+024000FM-12+001399999V0201601N00201220001CN0500001N9-00101-00501098291ADDAA106000091AY121999GF104991041091008001999999MD1210311+9999MW1021EQDQ01  00003PRCP99
0071010550999991973020303004+71100+024000FM-12+001399999V0200901N00611007501CN0280001N9+00001-00201098531ADDAY181999GF106991061091008001001001MD1210241+9999MW1151REMSYN00591434
0081010550999991973020306004+71100+024000FM-12+001399999V0203601N00511007501CN0500001N9+00101-00501098771ADDAA199001091AY181999GF106991061091008001001001KA1999N-00201MD1210241+9999MW1021
0057010550999991973020309004+71100+024000FM-12+001399999V0203401N00101220001CN9999999N9+00001-00601098951ADDAY121999GF104991041091008001051001MD1210181+9999MW1021
0101010550999991973020312004+71100+024000FM-12+001399999V0202701N02061002101CN9999999N9-00101-00301099481ADDAA106001091AY181999GF108991081091002501999999MD1210531+9999MW1861REMSYN00591448EQDQ01  00103PRCP99
0057010550999991973020315004+71100+024000FM-12+001399999V0202701N01441004201CN0220001N9-00101-00701099671ADDAY181999GF106991061091004501001001MD1210191+9999MW1151
0095010550999991973020318004+71100+024000FM-12+001399999V0202901N01131220001CN0260001N9+00001-00801099851ADDAA199001091AY181999GF104991041091008001001001KA1999M+00201MD1210181+9999MW1021REMSYN00591448
0057010550999991973020321004+71100+024000FM-12+001399999V0202201N01031220001CN0500001N9+00001-00301100021ADDAY121999GF103991031091008001001001MD1210171+9999MW1021
0101010550999991973020400004+71100+024000FM-12+001399999V0203601N00411220001CN0500001N9+00001-00301099921ADDAA106000091AY121999GF102991021091008001001001MD1810101+9999MW1021REMSYN00591446EQDQ01  00003PRCP99
0071010550999991973020403004+71100+024000FM-12+001399999V0203401N02471004201CN0260001N9-00201-00501100511ADDAY181999GF108991081091004501999999MD1310531+9999MW1151REMSYN00591449
0071010550999991973020406004+71100+024000FM-12+001399999V0203601N01341004201CN0260001N9-00201-00601100871ADDAY181999GF108991081091004501999999MD1210361+9999MW1151REMSYN00591449
0057010550999991973020409004+71100+024000FM-12+001399999V0203601N01231002101CN0040001N9-00301-00501100971ADDAY171999GF108991081091002501999999MD1210101+9999MW1721
0101010550999991973020412004+71100+024000FM-12+001399999V0200401N01231002101CN0180001N9-00301-00601100891ADDAA106002091AY171999GF108991061071002501021999MD1810081+9999MW1701REMSYN00591446EQDQ01  00203PRCP99
0057010550999991973020415004+71100+024000FM-12+001399999V0200401N01231004201CN0240001N9-00301-00801100611ADDAY171999GF107991071091004501999999MD1710281+9999MW1151
0095010550999991973020418004+71100+024000FM-12+001399999V0200901N01031007501CN0400001N9-00301-00801100371ADDAA199003091AY171999GF106991061091008001001001KA1999M-00201MD1710241+9999MW1021REMSYN00591446
0057010550999991973020421004+71100+024000FM-12+001399999V0200701N01231007501CN0400001N9-00301-00701099971ADDAY121999GF106991061091008001999999MD1710401+9999MW1021
0101010550999991973020500004+71100+024000FM-12+001399999V0201201N01231004201CN0400001N9-00301-00801099641ADDAA106001091AY181999GF106991061091004501001001MD1710331+9999MW1021REMSYN00591446EQDQ01  00103PRCP99
0071010550999991973020503004+71100+024000FM-12+001399999V0201401N01231007501CN0400001N9-00301-00701099331ADDAY181999GF106991061091008001001001MD1710311+9999MW1021REMSYN00591446
0095010550999991973020506004+71100+024000FM-12+001399999V0201401N01231007501CN0400001N9-00301-00701099021ADDAA199001091AY121999GF107991071091008001999999KA1999N-00301MD1710311+9999MW1021REMSYN00591446
0057010550999991973020509004+71100+024000FM-12+001399999V0200901N01341004201CN9999999N9-00301-00501098841ADDAY181999GF108991081091004501999999MD1710181+9999MW1861
0101010550999991973020512004+71100+024000FM-12+001399999V0201401N01031004201CN0040001N9-00401-00601098741ADDAA106006091AY171999GF108991081091004501999999MD1710101+9999MW1731REMSYN00591436EQDQ01  00603PRCP99
0057010550999991973020515004+71100+024000FM-12+001399999V0200901N01751004201CN0040001N9-00301-00501098561ADDAY171999GF108991081091004501999999MD1710181+9999MW1721
0095010550999991973020518004+71100+024000FM-12+001399999V0200701N01641004201CN0140001N9-00301-00501098551ADDAA199011091AY171999GF108991081091004501999999KA1999M-00301MD1710011+9999MW1701REMSYN00591448
0057010550999991973020521004+71100+024000FM-12+001399999V0200701N01851004201CN0180001N9-00401-00701098611ADDAY181999GF108991081091004501999999MD1310061+9999MW1851
0101010550999991973020600004+71100+024000FM-12+001399999V0200701N01851004201CN0280001N9-00401-00701999999ADDAA106003091AY181999GF108991081091004501999999MD1210111+9999MW1851REMSYN00591448EQDQ01  00303PRCP99
0071010550999991973020603004+71100+024000FM-12+001399999V0200701N01751004201CN9999999N9-00401-00401098401ADDAY181999GF108991081091004501999999MD1710151+9999MW1861REMSYN00591448
0095010550999991973020606004+71100+024000FM-12+001399999V0200901N01541004201CN0100001N9-00501-00701098291ADDAA199007091AY181999GF108991081091004501999999KA1999N-00501MD1710111+9999MW1711REMSYN00591448
0057010550999991973020609004+71100+024000FM-12+001399999V0200901N01231004201CN0280001N9-00501-00801098251ADDAY181999GF108991081091004501999999MD1710041+9999MW1851
0101010550999991973020612004+71100+024000FM-12+001399999V0200901N01031004201CN0180001N9-00501-00801098091ADDAA106002091AY181999GF108991081091004501999999MD1710161+9999MW1851REMSYN00591447EQDQ01  00203PRCP99
0057010550999991973020615004+71100+024000FM-12+001399999V0201201N01031004201CN0220001N9-00501-00901097931ADDAY181999GF108991081091004501999999MD1710161+9999MW1851
0081010550999991973020618004+71100+024000FM-12+001399999V0201201N03501004201CN0260001N9+99999+99999097741ADDAA199005091AY181999GF107991071091004501999999KA1999M-00401MD1710171+9999MW1151
0057010550999991973020621004+71100+024000FM-12+001399999V0201201N00611004201CN0260001N9-00401-00601097601ADDAY181999GF107991071091004501999999MD1710161+9999MW1151
0087010550999991973020700004+71100+024000FM-12+001399999V0201201N00511220001CN0280001N9-00501-00901097481ADDAA106000091AY181999GF104991041091004501001001MD1710121+9999MW1021EQDQ01  00003PRCP99
0071010550999991973020703004+71100+024000FM-12+001399999V0201201N00511220001CN0500001N9-00501-00801097431ADDAY111999GF100991001001999999001001MD1710051+9999MW1021REMSYN00591443
0081010550999991973020706004+71100+024000FM-12+001399999V0201201N00721220001CN0600001N9-00501-00901097431ADDAA199000091AY101999GF100991001001999999001001KA1999N-00501MD1410001+9999MW1021
0057010550999991973020709004+71100+024000FM-12+001399999V0201601N00411220001CN0600001N9-00601-01001097531ADDAY101999GF102991021001017501081001MD1310101+9999MW1021
0087010550999991973020712004+71100+024000FM-12+001399999V0201601N00411220001CN0600001N9-00601-01001097551ADDAA106000091AY101999GF101991011001017501031001MD1210021+9999MW1021EQDQ01  00003PRCP99
0057010550999991973020715004+71100+024000FM-12+001399999V0201601N00511220001CN0600001N9-00601-01001097581ADDAY101999GF101991011001017501081001MD1210031+9999MW1021
0081010550999991973020718004+71100+024000FM-12+001399999V0201601N00611220001CN0600001N9-00601-01101097561ADDAA199000091AY101999GF102991021001017501081001KA1999M-00501MD1810021+9999MW1021
0057010550999991973020721004+71100+024000FM-12+001399999V0201601N00511220001CN0600001N9-00601-00701097561ADDAY101999GF101991011011017501001001MD1410001+9999MW1021
0087010550999991973020800004+71100+024000FM-12+001399999V0201601N00611220001CN0600001N9-00601-01001097561ADDAA106000091AY101999GF101991011011017501001001MD1410001+9999MW1021EQDQ01  00003PRCP99
0071010550999991973020803004+71100+024000FM-12+001399999V0201601N00721220001CN0600001N9-00701-01001097591ADDAY101999GF101991011011017501001001MD1310031+9999MW1021REMSYN00591434
0081010550999991973020806004+71100+024000FM-12+001399999V0201601N00821220001CN0600001N9-00701-01001097661ADDAA199000091AY101999GF100991001001999999001001KA1999N-00701MD1210071+9999MW1021
0057010550999991973020809004+71100+024000FM-12+001399999V0201601N00921220001CN0600001N9-00701-01101097761ADDAY101999GF100991001001999999001001MD1210101+9999MW1021
0087010550999991973020812004+71100+024000FM-12+001399999V0201601N00721220001CN0600001N9-00601-01001097901ADDAA106000091AY101999GF100991001001999999001001MD1210141+9999MW1021EQDQ01  00003PRCP99
0057010550999991973020815004+71100+024000FM-12+001399999V0201601N00611220001CN0600001N9-00701-01101098011ADDAY101999GF100991001001999999001001MD1210111+9999MW1021
0081010550999991973020818004+71100+024000FM-12+001399999V0201601N00721220001CN0600001N9-00701-01101999999ADDAA199000091AY101999GF100991001001999999001001KA1999M-00601MD1210061+9999MW1021
0057010550999991973020821004+71100+024000FM-12+001399999V0201601N00611220001CN0600001N9-00601-01001098091ADDAY101999GF100991001001999999001001MD1210021+9999MW1021
0087010550999991973020900004+71100+024000FM-12+001399999V0201601N00611015001CN0500001N9-00601-01001098151ADDAA106000091AY121999GF106991061001017501061001MD1210061+9999MW1031EQDQ01  00003PRCP99
0071010550999991973020903004+71100+024000FM-12+001399999V0201601N00611220001CN0500001N9-00501-00901098231ADDAY111999GF104991041001017501041001MD1210081+9999MW1021REMSYN00591434
0081010550999991973020906004+71100+024000FM-12+001399999V0201601N00611024001CN0400001N9-00501-00901098251ADDAA199000091AY121999GF105991031081012501051001KA1999N-00701MD1210021+9999MW1031
0057010550999991973020909004+71100+024000FM-12+001399999V0201601N00821024001CN0500001N9-00401-01001098251ADDAY121999GF105991031081012501051001MD1410001+9999MW1021
0087010550999991973020912004+71100+024000FM-12+001399999V0201601N00821015001CN0500001N9-00401-00901098301ADDAA106000091AY121999GF106991061081012501001001MD1210051+9999MW1031EQDQ01  00003PRCP99
0057010550999991973020915004+71100+024000FM-12+001399999V0201601N00821024001CN0500001N9-00401-01001098351ADDAY121999GF106991041081012501071001MD1210051+9999MW1021
0081010550999991973020918004+71100+024000FM-12+001399999V0201601N00611220001CN0500001N9-00401-01001098521ADDAA199000091AY121999GF104991041081012501001001KA1999M-00301MD1210171+9999MW1021
0057010550999991973020921004+71100+024000FM-12+001399999V0201601N00611220001CN0600001N9-00401-00901098601ADDAY121999GF103991031001017501061001MD1210081+9999MW1021
0087010550999991973021000004+71100+024000FM-12+001399999V0201601N00511220001CN0600001N9-00401-00901098601ADDAA106000091AY121999GF103991031001017501061001MD1410001+9999MW1021EQDQ01  00003PRCP99
0071010550999991973021003004+71100+024000FM-12+001399999V0202901N01031007501CN0400001N9-00301-00901098761ADDAY181999GF107991071091008001999999MD1310161+9999MW1151REMSYN00591435
0095010550999991973021006004+71100+024000FM-12+001399999V0203401N00921007501CN0280001N9-00101-00701098941ADDAA199000291AY181999GF107991071091008001999999KA1999N-00501MD1210181+9999MW1151REMSYN00591436
0057010550999991973021009004+71100+024000FM-12+001399999V0203401N00511007501CN0500001N9-00201-01101099001ADDAY121999GF107991071091008001999999MD1210061+9999MW1021
0087010550999991973021012004+71100+024000FM-12+001399999V0203601N00411007501CN0500001N9-00201-01201099081ADDAA106000091AY121999GF107991071091008001999999MD1210081+9999MW1021EQDQ01  00003PRCP99
0057010550999991973021015004+71100+024000FM-12+001399999V0200401N00821004201CN0260001N9-00201-00701099171ADDAY181999GF108991081091004501999999MD1210091+9999MW1851
0081010550999991973021018004+71100+024000FM-12+001399999V0201601N00511007501CN0280001N9-00201-00501099221ADDAA199002091AY181999GF106991061091008001001001KA1999M-00101MD1210051+9999MW1151
0057010550999991973021021004+71100+024000FM-12+001399999V0201601N00511220001CN0400001N9-00301-00701099241ADDAY121999GF104991041091008001001001MD1210021+9999MW1021
0087010550999991973021100004+71100+024000FM-12+001399999V0201601N00611220001CN0400001N9-00401-00801099331ADDAA106000091AY111999GF103991031091008001001001MD1210091+9999MW1021EQDQ01  00003PRCP99
0071010550999991973021103004+71100+024000FM-12+001399999V0203101N01851004201CN0240001N9-00301-00601099461ADDAY181999GF108991081091004501999999MD1210131+9999MW1851REMSYN00591448
0095010550999991973021106004+71100+024000FM-12+001399999V0203101N01441004201CN0280001N9-00301-00801099631ADDAA199000591AY181999GF107991071091004501999999KA1999N-00401MD1210171+9999MW1151REMSYN00591448
0057010550999991973021109004+71100+024000FM-12+001399999V0202701N01031004201CN0280001N9-00401-01301099741ADDAY181999GF106991061091004501001001MD1210111+9999MW1021
0101010550999991973021112004+71100+024000FM-12+001399999V0202701N00721004201CN0400001N9-00301-01201099801ADDAA106000091AY121999GF106991061091004501001001MD1210061+9999MW1021REMSYN00591447EQDQ01  00003PRCP99
0057010550999991973021115004+71100+024000FM-12+001399999V0202201N00151004201CN0500001N9-00401-01101099741ADDAY121999GF106991061091004501001001MD1810061+9999MW1021
0081010550999991973021118004+71100+024000FM-12+001399999V0201201N01031004201CN0500001N9-00401-01101099401ADDAA199000091AY121999GF105991051091004501001001KA1999M-00301MD1710341+9999MW1021
0057010550999991973021121004+71100+024000FM-12+001399999V0201601N01641012001CN0500001N9-00701-00901098841ADDAY121999GF105991051081008001001001MD1710561+9999MW1021
0101010550999991973021200004+71100+024000FM-12+001399999V0201601N01441015001CN0500001N9-00701-01101098491ADDAA106000091AY121999GF105991051081012501001001MD1710351+9999MW1021REMSYN00591437EQDQ01  00003PRCP99
0071010550999991973021203004+71100+024000FM-12+001399999V0201601N01851007501CN0600001N9-00701-01101098071ADDAY181999GF106991061091008001001001MD1710421+9999MW1151REMSYN00591438
0095010550999991973021206004+71100+024000FM-12+001399999V0201601N01951004201CN0220001N9-00601-00901097691ADDAA199999929AY181999GF107991071091004501999999KA1999N-00801MD1710381+9999MW1021REMSYN00591438
0057010550999991973021209004+71100+024000FM-12+001399999V0201601N01641007501CN0400001N9-00301-00701097511ADDAY121999GF106991061091008001001001MD1710181+9999MW1021
0101010550999991973021212004+71100+024000FM-12+001399999V0201601N01231015001CN0400001N9-00301-00701097211ADDAA106000091AY121999GF107991051081012501051001MD1710301+9999MW1021REMSYN00591438EQDQ01  00003PRCP99
0057010550999991973021215004+71100+024000FM-12+001399999V0201401N00821007501CN0400001N9-00201-00601097041ADDAY121999GF107991071091008001999999MD1710171+9999MW1021
0095010550999991973021218004+71100+024000FM-12+001399999V0201601N00721007501CN0400001N9-00201-00601096951ADDAA199000091AY121999GF106991061091008001001001KA1999M-00201MD1710091+9999MW1021REMSYN00591436
0057010550999991973021221004+71100+024000FM-12+001399999V0201601N00411007501CN0400001N9-00101-00401096901ADDAY121999GF107991071091008001999999MD1710051+9999MW1021
0087010550999991973021300004+71100+024000FM-12+001399999V0202001N00721004201CN0220001N9-00101-00301096841ADDAA106002091AY181999GF108991081091004501999999MD1710061+9999MW1851EQDQ01  00203PRCP99
0071010550999991973021303004+71100+024000FM-12+001399999V0202201N00611007501CN0240001N9+00001-00201096941ADDAY181999GF107991071091008001999999MD1310101+9999MW1151REMSYN00591434
0081010550999991973021306004+71100+024000FM-12+001399999V0202201N00301007501CN0260001N9+00001-00301096991ADDAA199003091AY181999GF107991071091008001999999KA1999N-00101MD1210051+9999MW1151
0057010550999991973021309004+71100+024000FM-12+001399999V0201601N01031007501CN0500001N9+00001-00401096991ADDAY121999GF106991061091008001001001MD1410001+9999MW1021
0087010550999991973021312004+71100+024000FM-12+001399999V0201601N01031007501CN0300001N9-00101+99999097091ADDAA106000091AY121999GF107991071091008001999999MW1021REMSYN00591436EQDQ01  00003PRCP99
0057010550999991973021315004+71100+024000FM-12+001399999V0201601N01131024001CN0500001N9-00101-00501097101ADDAY121999GF107991041041008001021999MD1210011+9999MW1021
0095010550999991973021318004+71100+024000FM-12+001399999V0201601N01341024001CN0500001N9-00201-00601097171ADDAA199000091AY121999GF108991021041008001021999KA1999M+00101MD1210071+9999MW1021REMSYN00591436
0057010550999991973021321004+71100+024000FM-12+001399999V0201601N01341007501CN0600001N9-00301-00701097371ADDAY121999GF106991061091008001001001MD1210201+9999MW1021
0142010550999991973021400004+71100+024000FM-12+001399999V0201601N01441007501CN0400001N9-00401-00801097371ADDAA106000091AJ100389199999999AY121999GF105991051091008001001001IA1009MD1410001+9999MW1021REMSYN02391437 20106 93646 00373EQDQ01  00003PRCP99
0071010550999991973021403004+71100+024000FM-12+001399999V0201601N01441007501CN0400001N9-00401-00801097331ADDAY121999GF106991061091008001001001MD1710041+9999MW1021REMSYN00591437
0095010550999991973021406004+71100+024000FM-12+001399999V0201601N01231220001CN0500001N9-00401-00801097401ADDAA199000091AY121999GF104991041091008001001001KA1999N-00501MD1310071+9999MW1021REMSYN00591437
0057010550999991973021409004+71100+024000FM-12+001399999V0201601N01341007501CN0400001N9-00301-00701097461ADDAY121999GF107991051021008001051999MD1210061+9999MW1021
0101010550999991973021412004+71100+024000FM-12+001399999V0201601N01131007501CN0500001N9-00201-00401097571ADDAA106000091AY121999GF106991061091008001001001MD1210111+9999MW1021REMSYN00591436EQDQ01  00003PRCP99
0057010550999991973021415004+71100+024000FM-12+001399999V0201601N01231007501CN0500001N9-00101-00301097511ADDAY121999GF106991061091008001001001MD1810061+9999MW1021
0095010550999991973021418004+71100+024000FM-12+001399999V0201601N00921007501CN0500001N9-00101-00301097551ADDAA199000091AY121999GF106991061091008001001001KA1999M-00101MD1310041+9999MW1021REMSYN00591436
0057010550999991973021421004+71100+024000FM-12+001399999V0201601N00411024001CN0500001N9+00001-00201097611ADDAY121999GF106991041091008001021001MD1210061+9999MW1021
0087010550999991973021500004+71100+024000FM-12+001399999V0202501N00721007501CN0400001N9+00301-00101097771ADDAA106999929AY181999GF107991071091008001999999MD1210161+9999MW1161EQDQ01  99993PRCP99
0071010550999991973021503004+71100+024000FM-12+001399999V0202501N01341007501CN0400001N9+00701+00101097961ADDAY121999GF107991071091008001999999MD1210191+9999MW1021REMSYN00591436
0095010550999991973021506004+71100+024000FM-12+001399999V0203101N01751004201CN0280001N9+00001-00301098791ADDAA199000591AY181999GF108991081091004501999999KA1999N-00101MD1210831+9999MW1151REMSYN00591448
0057010550999991973021509004+71100+024000FM-12+001399999V0203101N01341004201CN0280001N9-00201-00501099641ADDAY181999GF108991081091004501999999MD1210851+9999MW1851
0101010550999991973021512004+71100+024000FM-12+001399999V0203401N00921004201CN0400001N9-00101-00401100101ADDAA106999929AY181999GF106991061091004501001001MD1210471+9999MW1151REMSYN00591447EQDQ01  99993PRCP99
0092010550999991973021515004+71100+024000FM-12+001399999V02099999999999999999N9999999N9-00101-00401999999ADDAY181999GF108991999091004501999999MD1210371+9999MW1151EQDQ01+000002SCOTLCQ02+101473APOSLP
0081010550999991973021518004+71100+024000FM-12+001399999V0202301N00611004201CN0280001N9-00101-00501100541ADDAA199001091AY181999GF108991081091004501999999KA1999M-00101MD1110071+9999MW1851
0057010550999991973021521004+71100+024000FM-12+001399999V0202301N00721007501CN0280001N9-00201-00401100611ADDAY181999GF106991061091008001001001MD1210071+9999MW1151
0087010550999991973021600004+71100+024000FM-12+001399999V0203101N01031002101CN9999999N9-00201-00301100641ADDAA106002091AY181999GF108991081091002501999999MD1210031+9999MW1861EQDQ01  00203PRCP99
0071010550999991973021603004+71100+024000FM-12+001399999V0203101N00821004201CN0280001N9-00201-00401100651ADDAY181999GF108991081091004501999999MD1210011+9999MW1851REMSYN00591444
0081010550999991973021606004+71100+024000FM-12+001399999V0203101N00301004201CN0280001N9-00201-00401100841ADDAA199004091AY181999GF108991081091004501999999KA1999N-00301MD1210191+9999MW1151
0057010550999991973021609004+71100+024000FM-12+001399999V0200201N00511002101CN9999999N9-00301-00401101151ADDAY181999GF108991081091002501999999MD1210311+9999MW1861
0087010550999991973021612004+71100+024000FM-12+001399999V0200401N00511002101CN9999999N9-00301-00401101521ADDAA106005091AY181999GF108991081091002501999999MD1210371+9999MW1861EQDQ01  00503PRCP99
0057010550999991973021615004+71100+024000FM-12+001399999V0209999999999002101CN9999999N9-00201-00301101681ADDAY181999GF108991081091002501999999MD1010001+9999MW1861
0081010550999991973021618004+71100+024000FM-12+001399999V0200401N00721004201CN0050001N9-00201-00301101931ADDAA199009091AY181999GF108991081091004501999999KA1999M-00201MD1210251+9999MW1161
0057010550999991973021621004+71100+024000FM-12+001399999V0201801N00201007501CN0400001N9-00201-00401102051ADDAY181999GF106991061091008001001001MD1210091+9999MW1151
0087010550999991973021700004+71100+024000FM-12+001399999V0202301N00821004201CN0400001N9-00101-00201102101ADDAA106000591AY181999GF107991071091004501999999MD1210051+9999MW1161EQDQ01  00053PRCP99
0071010550999991973021703004+71100+024000FM-12+001399999V0202001N00611220001CN0600001N9-00101-00501102101ADDAY181999GF100991001001999999001001MD1410001+9999MW1021REMSYN00591444
0081010550999991973021706004+71100+024000FM-12+001399999V0201601N00611220001CN0600001N9-00301-00601102061ADDAA199000591AY111999GF100991001001999999001001KA1999N-00301MD1810041+9999MW1021
0057010550999991973021709004+71100+024000FM-12+001399999V0201601N00611220001CN0600001N9-00301-00601102031ADDAY101999GF102991021001022501041001MD1710031+9999MW1021
0087010550999991973021712004+71100+024000FM-12+001399999V0201601N00511220001CN0600001N9-00201-00701101991ADDAA106000091AY101999GF101991011001022501041001MD1710041+9999MW1021EQDQ01  00003PRCP99
0057010550999991973021715004+71100+024000FM-12+001399999V0201801N00721220001CN0600001N9-00201-00501101951ADDAY101999GF101991011001022501041001MD1710041+9999MW1021
0081010550999991973021718004+71100+024000FM-12+001399999V0201601N00611220001CN0600001N9-00201-00601101931ADDAA199000091AY101999GF100991001001999999001001KA1999M-00101MD1710021+9999MW1021
0057010550999991973021721004+71100+024000FM-12+001399999V0201601N00511220001CN0600001N9-00201-00601101931ADDAY101999GF100991001001999999001001MD1410001+9999MW1021
0087010550999991973021800004+71100+024000FM-12+001399999V0201601N00511220001CN0600001N9-00101-00601101831ADDAA106000091AY101999GF100991001001999999001001MD1810101+9999MW1021EQDQ01  00003PRCP99
0071010550999991973021803004+71100+024000FM-12+001399999V0201601N00511220001CN0600001N9-00201-00601101711ADDAY101999GF100991001001999999001001MD1710121+9999MW1021REMSYN00591433
0076010550999991973021809004+71100+024000FM-12+001399999V0201601N009219999999N0600001N9-00301-00801101421ADDAY101999GF100991001001999999001001MD1710161+9999MW1021EQDQ01+000082SCOTCV
0101010550999991973021812004+71100+024000FM-12+001399999V0201601N01341220001CN0600001N9-00301-00601101221ADDAA106000091AY101999GF100991001001999999001001MD1710201+9999MW1021REMSYN00591436EQDQ01  00003PRCP99
0057010550999991973021815004+71100+024000FM-12+001399999V0201601N01341220001CN0600001N9-00201-00301100801ADDAY101999GF100991001001999999001001MD1710421+9999MW1021
0095010550999991973021818004+71100+024000FM-12+001399999V0201601N00921220001CN0600001N9-00201-00401100561ADDAA199000091AY101999GF100991001001999999001001KA1999M-00201MD1710241+9999MW1021REMSYN00591436
0057010550999991973021821004+71100+024000FM-12+001399999V0201601N00821220001CN0600001N9-00201-00401100291ADDAY101999GF100991001001999999001001MD1710271+9999MW1021
0101010550999991973021900004+71100+024000FM-12+001399999V0201601N01131220001CN0600001N9-00101-00301099991ADDAA106000091AY101999GF103991031001022501041001MD1710301+9999MW1021REMSYN00591436EQDQ01  00003PRCP99
0071010550999991973021903004+71100+024000FM-12+001399999V0201601N01441220001CN0600001N9+00001-00201099721ADDAY121999GF104991041001017501061001MD1710271+9999MW1021REMSYN00591437
0095010550999991973021906004+71100+024000FM-12+001399999V0201601N01441024001CN0500001N9+00001-00201099601ADDAA199000091AY121999GF105991031081008001051001KA1999N-00201MD1710121+9999MW1031REMSYN00591437
0057010550999991973021909004+71100+024000FM-12+001399999V0201801N00721024001CN0500001N9+00201-00101099481ADDAY121999GF107991011041008001011999MD1710121+9999MW1031
0139010550999991973021912004+71100+024000FM-12+001399999V0202001N005119999999N0500001N9+99999+99999099411ADDAA106000091AY121999GA1999+003009059GF108991999051999999999999MD1710071+9999MW1031REMSYN01193*21 062**EQDQ01    003SCCGA1Q02  00003PRCP99
0057010550999991973021915004+71100+024000FM-12+001399999V0202001N00721007501CN0500001N9+00301-00301099361ADDAY121999GF106991061071008001001001MD1710051+9999MW1021
0096010550999991973021918004+71100+024000FM-12+001399999V0202301N01341002401CN0030001N9+00101+00001099491ADDAA199001091AY181999GF109991091999999999999999KA1999M+00301MD1310131+9999MW1841REMSYN00691446(
0057010550999991973021921004+71100+024000FM-12+001399999V0201601N00511007501CN0400001N9+00101+00001099151ADDAY181999GF106991061091008001001001MD1810341+9999MW1151
0101010550999991973022000004+71100+024000FM-12+001399999V0201601N01031220001CN0600001N9-00101-00401098631ADDAA106000591AY181999GF101991011011017501001001MD1710521+9999MW1021REMSYN00591446EQDQ01  00053PRCP99
0063010550999991973022003004+71100+024000FM-12+001399999V0201601N01231007501CN0500001N9+00001-00401097881ADDGF106991061091008001999999MD1710751+9999MW1031REMSYN00591446
0095010550999991973022006004+71100+024000FM-12+001399999V0201601N00611004201CN0120001N9+00001-00301097351ADDAA199999999AY181999GF108991081091004501999999KA1999N-00201MD1710531+9999MW1831REMSYN00591446
0057010550999991973022009004+71100+024000FM-12+001399999V0202501N01031004201CN0280001N9+00101-00301097061ADDAY181999GF107991071091004501999999MD1710191+9999MW1161
0101010550999991973022012004+71100+024000FM-12+001399999V0202701N01441004201CN0280001N9+00201-00401097021ADDAA106001091AY181999GF107991071091004501999999MD1710141+9999MW1151REMSYN00591447EQDQ01  00103PRCP99
0057010550999991973022015004+71100+024000FM-12+001399999V0202701N01851004201CN0280001N9+00101-00401097071ADDAY181999GF107991071091004501999999MD1310051+9999MW1161
0095010550999991973022018004+71100+024000FM-12+001399999V0202501N01641007501CN0300001N9+00101-00401097111ADDAA199002091AY181999GF105991051091008001001001KA1999M+00201MD1210041+9999MW1151REMSYN00591448
0057010550999991973022021004+71100+024000FM-12+001399999V0203201N01231004201CN0030001N9+00101+00001097281ADDAY181999GF108991081091004501999999MD1210171+9999MW1841
0101010550999991973022100004+71100+024000FM-12+001399999V0203401N01441004201CN0240001N9+00101-00401097821ADDAA106002091AY181999GF108991081091004501999999MD1210541+9999MW1151REMSYN00591448EQDQ01  00203PRCP99
0071010550999991973022103004+71100+024000FM-12+001399999V0203401N01341220001CN0280001N9+99999+99999097951ADDAY181999GF104991041091008001001001MD1210131+9999MW1151REMSYN00591446
0095010550999991973022106004+71100+024000FM-12+001399999V0203401N00821004201CN0280001N9-00101-00201097791ADDAA199002091AY181999GF107991071091004501999999KA1999N-00101MD1810161+9999MW1851REMSYN00591447
0076010550999991973022109004+71100+024000FM-12+001399999V0203401N01441004201CN0280001N9-00301-00601999999ADDAY181999GF108991081091004501999999MD1310552+9999MW1851EQDQ01+000552APC3  
0101010550999991973022112004+71100+024000FM-12+001399999V0203401N01541004201CN0280001N9-00301-00601098671ADDAA106001091AY181999GF107991071091004501999999MD1210331+9999MW1161REMSYN00591447EQDQ01  00103PRCP99
0057010550999991973022115004+71100+024000FM-12+001399999V0203601N01441004201CN0280001N9-00401-00701098871ADDAY181999GF106991061091004501001001MD1210201+9999MW1161
0095010550999991973022118004+71100+024000FM-12+001399999V0203601N01341004201CN0140001N9-00401-00701099011ADDAA199001091AY181999GF108991081091004501999999KA1999M-00101MD1210141+9999MW1851REMSYN00591447
0057010550999991973022121004+71100+024000FM-12+001399999V0203601N01031004201CN0260001N9-00501-00801099211ADDAY181999GF106991061091004501999999MD1210201+9999MW1151
0101010550999991973022200004+71100+024000FM-12+001399999V0203101N00921004201CN0280001N9-00501-00801099311ADDAA106000591AY181999GF108991081091004501999999MD1210101+9999MW1851REMSYN00591446EQDQ01  00053PRCP99
0077010550999991973022203004+71100+024000FM-12+001399999V0203101N004119999999N0280001N9+99999+99999999999ADDAY181999GF106991051041999999999999MD1410001+9999MW1151REMSYN01156102 91446
0081010550999991973022206004+71100+024000FM-12+001399999V0202701N00821004201CN0280001N9-00201-00501099191ADDAA199000591AY181999GF108991081091004501999999KA1999N-00501MD1710121+9999MW1151
0057010550999991973022209004+71100+024000FM-12+001399999V0203101N00511004201CN0280001N9-00201-00401099191ADDAY181999GF107991071091004501999999MD1410001+9999MW1851
0087010550999991973022212004+71100+024000FM-12+001399999V0203101N00721004201CN0220001N9-00101-00201099141ADDAA106003091AY181999GF108991081091004501999999MD1810051+9999MW1851EQDQ01  00303PRCP99
0057010550999991973022215004+71100+024000FM-12+001399999V0203101N01131004201CN9999999N9-00101-00401099051ADDAY181999GF107991071091004501999999MD1710091+9999MW1861
0095010550999991973022218004+71100+024000FM-12+001399999V0203101N01231004201CN0260001N9-00101-00601099011ADDAA199004091AY181999GF107991071091004501999999KA1999M-00101MD1710041+9999MW1161REMSYN00591446
0057010550999991973022221004+71100+024000FM-12+001399999V0202501N00921004201CN0220001N9+00001-00201098881ADDAY181999GF108991081091004501999999MD1710131+9999MW1851
0101010550999991973022300004+71100+024000FM-12+001399999V0202501N01341004201CN0280001N9-00101-00301098751ADDAA106003091AY181999GF107991071091004501999999MD1710131+9999MW1151REMSYN00591446EQDQ01  00303PRCP99
0071010550999991973022303004+71100+024000FM-12+001399999V0203101N00921004201CN0280001N9-00101-00401098671ADDAY181999GF107991071091004501999999MD1710081+9999MW1851REMSYN00591445
0095010550999991973022306004+71100+024000FM-12+001399999V0203101N00611004201CN0260001N9-00201-00301098651ADDAA199006091AY181999GF107991071091004501999999KA1999N-00201MD1710021+9999MW1851REMSYN00591446
0057010550999991973022309004+71100+024000FM-12+001399999V0203601N00721002101CN9999999N9-00301-00401098811ADDAY181999GF108991081091002501999999MD1310161+9999MW1861
0087010550999991973022312004+71100+024000FM-12+001399999V0203401N00721004201CN0280001N9+99999+99999999999ADDAA106001091AY181999GF108991081091004501999999MD1210151+9999MW1151EQDQ01  00103PRCP99
0057010550999991973022315004+71100+024000FM-12+001399999V0203601N00611004201CN0400001N9-00201-00501099071ADDAY181999GF106991061091004501001001MD1210171+9999MW1151
0081010550999991973022318004+71100+024000FM-12+001399999V0203601N00511004201CN0280001N9-00301-00601099201ADDAA199001091AY181999GF108991081091004501999999KA1999M-00201MD1210131+9999MW1851
0057010550999991973022321004+71100+024000FM-12+001399999V0203101N00301007501CN0500001N9-00301-00901099301ADDAY181999GF105991051091008001001001MD1210101+9999MW1021
0101010550999991973022500004+71100+024000FM-12+001399999V0203401N01131004201CN0280001N9-00301-00501099741ADDAA106000291AY181999GF105991051091004501001001MD1210061+9999MW1151REMSYN00591446EQDQ01  00023PRCP99
0071010550999991973022503004+71100+024000FM-12+001399999V0203601N01031004201CN0280001N9-00301-00501099761ADDAY181999GF107991071091004501999999MD1210021+9999MW1851REMSYN00591445
0095010550999991973022506004+71100+024000FM-12+001399999V0203601N01031002101CN9999999N9-00501-00601099831ADDAA199003091AY181999GF108991081091002501999999KA1999N-00501MD1210071+9999MW1861REMSYN00591446
0095010550999991973022512004+71100+024000FM-12+001399999V0203601N01131004201CN0020001N9-00401-01101100111ADDAA106000091AY181999GF105991051091004501001001MD1210141+9999REMSYN00591446EQDQ01  00003PRCP99
0057010550999991973022515004+71100+024000FM-12+001399999V0203601N00821024001CN0400001N9-00401-01101100201ADDAY121999GF107991041091008001021999MD1210091+9999MW1151
0081010550999991973022518004+71100+024000FM-12+001399999V0203201N00611220001CN0500001N9-00501-01101100271ADDAA199000091AY121999GF104991041091017501051051KA1999M-00401MD1210071+9999MW1021
0057010550999991973022521004+71100+024000FM-12+001399999V0203101N00511007501CN0500001N9-00401-01101100301ADDAY121999GF105991051091008001001001MD1210031+9999MW1021
0087010550999991973022600004+71100+024000FM-12+001399999V0203101N00611220001CN0600001N9-00401-00901100321ADDAA106000091AY121999GF104991041091008001001001MD1210021+9999MW1021EQDQ01  00003PRCP99
0071010550999991973022603004+71100+024000FM-12+001399999V0203401N00511004201CN0140001N9-00401-00501100331ADDAY181999GF108991081091004501999999MD1210011+9999MW1851REMSYN00591443
0081010550999991973022606004+71100+024000FM-12+001399999V0203601N00511004201CN0140001N9-00401-00501100381ADDAA199000591AY181999GF108991081091004501999999KA1999N-00501MD1210051+9999MW1851
0057010550999991973022609004+71100+024000FM-12+001399999V0200701N00611004201CN0260001N9-00301-00601100431ADDAY181999GF107991071091004501999999MD1210051+9999MW1851
0087010550999991973022612004+71100+024000FM-12+001399999V0202501N00411007501CN0280001N9-00201-00301100561ADDAA106000291AY181999GF106991061091008001001001MD1210131+9999MW1151EQDQ01  00023PRCP99
0057010550999991973022615004+71100+024000FM-12+001399999V0200901N00511002101CN0030001N9-00401-00501100641ADDAY171999GF108991061071002501021999MD1210081+9999MW1711
0081010550999991973022618004+71100+024000FM-12+001399999V0203101N00511220001CN0280001N9-00201-00701100691ADDAA199005091AY171999GF104991041091008001001001KA1999M-00201MD1210051+9999MW1151
0057010550999991973022621004+71100+024000FM-12+001399999V0203101N00411007501CN0280001N9-00301-00901100761ADDAY181999GF106991061091008001001001MD1210081+9999MW1151
0087010550999991973022700004+71100+024000FM-12+001399999V0203101N00511220001CN0400001N9-00401-01001100781ADDAA106000091AY121999GF103991031091008001001001MD1210021+9999MW1021EQDQ01  00003PRCP99
0071010550999991973022703004+71100+024000FM-12+001399999V0202701N00411220001CN0600001N9-00201-01201100811ADDAY121999GF103991031001017501061001MD1210031+9999MW1021REMSYN00591433
0081010550999991973022706004+71100+024000FM-12+001399999V0202701N00611007501CN0280001N9-00201-00301100841ADDAA199000091AY121999GF105991051091008001001001KA1999N-00301MD1210031+9999MW1151
0057010550999991973022709004+71100+024000FM-12+001399999V0201801N00511024001CN0500001N9-00201-00501100911ADDAY121999GF106991011041008001041999MD1210071+9999MW1021
0087010550999991973022712004+71100+024000FM-12+001399999V0201601N00721220001CN0600001N9-00301-00801100951ADDAA106000091AY121999GF105991001001999999001081MD1210041+9999MW1021EQDQ01  00003PRCP99
0057010550999991973022715004+71100+024000FM-12+001399999V0201601N00821220001CN0600001N9+99999+99999100981ADDAY121999GF103991031001022501041001MD1210031+9999MW1021
0081010550999991973022718004+71100+024000FM-12+001399999V0201601N00821220001CN0500001N9-00501-01001100991ADDAA199000091AY101999GF102991021001022501041001KA1999M-00201MD1210011+9999MW1021
0057010550999991973022721004+71100+024000FM-12+001399999V0201601N00721220001CN0600001N9-00501-00701101051ADDAY101999GF100991001001999999001001MD1210061+9999MW1021
0087010550999991973022800004+71100+024000FM-12+001399999V0201601N00611220001CN0600001N9-00601-00701101091ADDAA106000091AY101999GF100991001001999999001001MD1210041+9999MW1021EQDQ01  00003PRCP99
0071010550999991973022803004+71100+024000FM-12+001399999V0201601N00511220001CN0600001N9-00501-00701101011ADDAY101999GF102991021001017501051001MD1810081+9999MW1021REMSYN00591433
0081010550999991973022806004+71100+024000FM-12+001399999V0201601N00611220001CN0600001N9-00601-00801100961ADDAA199000091AY121999GF103991031001017501041001KA1999N-00601MD1710051+9999MW1021
0057010550999991973022809004+71100+024000FM-12+001399999V0201601N00511220001CN0600001N9-00601-00701100961ADDAY101999GF100991001001999999001001MD1410001+9999MW1021
0087010550999991973022812004+71100+024000FM-12+001399999V0201601N00921220001CN0600001N9-00601-00701100891ADDAA106000091AY101999GF100991001001999999001001MD1810071+9999MW1021EQDQ01  00003PRCP99
0057010550999991973022815004+71100+024000FM-12+001399999V0201401N00821220001CN0600001N9-00601-00801100891ADDAY101999GF100991001001999999001001MD1410001+9999MW1021
0081010550999991973022818004+71100+024000FM-12+001399999V0201401N00411220001CN0600001N9-00701-00801100891ADDAA199000091AY101999GF100991001001999999001001KA1999M-00601MD1410001+9999MW1021
0057010550999991973022821004+71100+024000FM-12+001399999V0201401N00411220001CN0600001N9-00701-00801100911ADDAY101999GF100991001001999999001001MD1210021+9999MW1021
0087010550999991973030100004+71100+024000FM-12+001399999V0201601N00511220001CN0600001N9-00601-00801101001ADDAA106000091AY101999GF100991001001999999001001MD1210011+9999MW1021EQDQ01  00003PRCP99
0071010550999991973030103004+71100+024000FM-12+001399999V0201601N00871220001CN0600001N9-00701-00801101161ADDAY101999GF100991001001999999001001MD1210161+9999MW1021REMSYN00591435
0081010550999991973030106004+71100+024000FM-12+001399999V0201601N00721220001CN0600001N9-00701-00801101261ADDAA199000091AY101999GF100991001001999999001001KA1999N-00701MD1210101+9999MW1021
0057010550999991973030109004+71100+024000FM-12+001399999V0201601N00721220001CN0600001N9-00601-00701101451ADDAY101999GF101991011021008001001001MD1210191+9999MW1021
0087010550999991973030112004+71100+024000FM-12+001399999V0201601N00611220001CN0600001N9-00601-00701101661ADDAA106000091AY101999GF101991011021008001001001MD1210211+9999MW1021EQDQ01  00003PRCP99
0057010550999991973030115004+71100+024000FM-12+001399999V0201601N00511220001CN0600001N9-00501-00701101791ADDAY101999GF101991011021008001001001MD1210131+9999MW1021
0081010550999991973030118004+71100+024000FM-12+001399999V0201801N00301220001CN0600001N9-00601-00701101951ADDAA199000091AY101999GF100991001001999999001001KA1999M-00501MD1210161+9999MW1021
0057010550999991973030121004+71100+024000FM-12+001399999V0201801N00411220001CN0600001N9-00501-00601102051ADDAY101999GF100991001001999999001001MD1210101+9999MW1021
0087010550999991973030200004+71100+024000FM-12+001399999V0201801N00511220001CN0600001N9-00501-00601102101ADDAA106000091AY101999GF100991001001999999001001MD1210051+9999MW1021EQDQ01  00003PRCP99
0071010550999991973030203004+71100+024000FM-12+001399999V0201801N00301220001CN0600001N9-00601-00701102151ADDAY101999GF100991001001999999001001MD1210051+9999MW1021REMSYN00541432
0081010550999991973030206004+71100+024000FM-12+001399999V0201601N00511220001CN0600001N9-00501-00601102181ADDAA199000091AY101999GF100991001001999999001001KA1999N-00601MD1210031+9999MW1021
0057010550999991973030209004+71100+024000FM-12+001399999V0201601N00511220001CN0600001N9-00501-00701102241ADDAY101999GF100991001001999999001001MD1210061+9999MW1021
0087010550999991973030212004+71100+024000FM-12+001399999V0201601N00511220001CN0600001N9-00501-00601102271ADDAA106000091AY101999GF100991001001999999001001MD1210031+9999MW1021EQDQ01  00003PRCP99
0057010550999991973030215004+71100+024000FM-12+001399999V0201401N00511220001CN0600001N9+99999+99999999999ADDAY101999GF100991001001999999001001MD1210021+9999MW1021
0081010550999991973030218004+71100+024000FM-12+001399999V0201401N00611220001CN0600001N9-00601-00801102291ADDAA199000091AY101999GF100991001001999999001001KA1999M-00501MD1410001+9999MW1021
0057010550999991973030221004+71100+024000FM-12+001399999V0201401N00821220001CN0600001N9-00601-00801102221ADDAY101999GF100991001001999999001001MD1710071+9999MW1021
0071010550999991973030303004+71100+024000FM-12+001399999V0201401N00921220001CN0060001N9-00701-01101102061ADDAY101999GF100991001001999999001001MD1710101+9999MW1021REMSYN00591435
0123010550999991973030306004+71100+024000FM-12+001399999V0201401N01031220001CN0600001N9+99999+99999101881ADDAA199000091AY101999GA1091+006009009GF101991999999999999999999KA1999N-00701MD1710181+9999MW1021REMSYN01791438 01062 10000
0057010550999991973030309004+71100+024000FM-12+001399999V0201401N00921220001CN0600001N9-00701-00901101661ADDAY121999GF102991021061008001001001MD1710221+9999MW1021
0101010550999991973030312004+71100+024000FM-12+001399999V0201401N01231007501CN0500001N9-00701-00801101371ADDAA106000091AY121999GF106991061061008001001001MD1710291+9999MW1031REMSYN00591436EQDQ01  00003PRCP99
0057010550999991973030315004+71100+024000FM-12+001399999V0201601N00511220001CN0600001N9-00501-00701101011ADDAY121999GF102991021061008001001001MD1710261+9999MW1011
0095010550999991973030318004+71100+024000FM-12+001399999V0201601N00511220001CN0600001N9-00501-00701100981ADDAA199000091AY121999GF103991031001022501051001KA1999M-00501MD1710131+9999MW1021REMSYN00591436
0057010550999991973030321004+71100+024000FM-12+001399999V0201601N00611220001CN0600001N9-00301-00501100861ADDAY101999GF100991001001999999001001MD1710121+9999MW1021
0087010550999991973030400004+71100+024000FM-12+001399999V0201601N01031220001CN0600001N9-00301-00501100801ADDAA106000091AY101999GF100991001001999999001001MD1710061+9999MW1021EQDQ01  00003PRCP99
0071010550999991973030403004+71100+024000FM-12+001399999V0201601N01341220001CN0600001N9-00301-00401100801ADDAY101999GF100991001001999999001001MD1410001+9999MW1021REMSYN00591436
0095010550999991973030406004+71100+024000FM-12+001399999V0201601N01131015001CN0600001N9-00401-00501100801ADDAA199000091AY121999GF105991051051017501001001KA1999N-00401MD1410001+9999MW1031REMSYN00591436
0057010550999991973030409004+71100+024000FM-12+001399999V0201601N00921220001CN0600001N9-00201-00401100881ADDAY111999GF103991031001017501061001MD1310081+9999MW1021
0101010550999991973030412004+71100+024000FM-12+001399999V0201401N01231220001CN0600001N9-00201-00401101061ADDAA106000091AY121999GF103991031001017501041001MD1210181+9999MW1021REMSYN00591436EQDQ01  00003PRCP99
0057010550999991973030415004+71100+024000FM-12+001399999V0201401N00511220001CN0600001N9-00101-00401101221ADDAY121999GF104991041001017501051001MD1210161+9999MW1021
0095010550999991973030418004+71100+024000FM-12+001399999V0201801N00511220001CN0600001N9+00301-00301101291ADDAA199000091AY121999GF104991041001017501051001KA1999M+00301MD1210071+9999MW1021REMSYN00591436
0057010550999991973030421004+71100+024000FM-12+001399999V0201801N00611220001CN0600001N9+00301-00301101371ADDAY121999GF102991021001017501051001MD1210081+9999MW1021
0087010550999991973030500004+71100+024000FM-12+001399999V0201801N00721220001CN0600001N9+00101-00401101431ADDAA106000091AY101999GF100991001001999999001001MD1210061+9999MW1021EQDQ01  00003PRCP99
0071010550999991973030503004+71100+024000FM-12+001399999V0201801N00511220001CN0600001N9+00001-00401101381ADDAY101999GF100991001001999999001001MD1810051+9999MW1021REMSYN00591443
0081010550999991973030506004+71100+024000FM-12+001399999V0201801N00721220001CN0600001N9-00101-00301101231ADDAA199000091AY101999GF100991001001999999001001KA1999N-00101MD1710151+9999MW1021
0057010550999991973030509004+71100+024000FM-12+001399999V0201601N00921220001CN0600001N9-00101-00401101071ADDAY121999GF103991001001999999001031MD1710161+9999MW1021
0087010550999991973030512004+71100+024000FM-12+001399999V0201601N01031220001CN0600001N9-00101-00501100891ADDAA106000091AY101999GF101991001001999999001031MD1710181+9999MW1021EQDQ01  00003PRCP99
0057010550999991973030515004+71100+024000FM-12+001399999V0201601N01031220001CN0600001N9-00101-00301100711ADDAY101999GF100991001001999999001001MD1710181+9999MW1021
0095010550999991973030518004+71100+024000FM-12+001399999V0201601N00611220001CN0600001N9-00101-00301100691ADDAA199000091AY101999GF100991001001999999001001KA1999M-00101MD1610021+9999MW1021REMSYN00591446
0057010550999991973030521004+71100+024000FM-12+001399999V0201601N00511220001CN0600001N9-00101-00201100631ADDAY101999GF100991001001999999001001MD1710061+9999MW1021
0087010550999991973030600004+71100+024000FM-12+001399999V0201601N00611220001CN0600001N9-00101-00201100561ADDAA106000091AY101999GF102991021001017501031001MD1710071+9999MW1021EQDQ01  00003PRCP99
0071010550999991973030603004+71100+024000FM-12+001399999V0201801N00611220001CN0600001N9-00101-00201100511ADDAY101999GF102991021001017501031001MD1710051+9999MW1021REMSYN00591444
0081010550999991973030606004+71100+024000FM-12+001399999V0201801N00611004201CN0140001N9-00201-00301100431ADDAA199999929AY181999GF108991081091004501999999KA1999N-00201MD1710081+9999MW1851
0057010550999991973030609004+71100+024000FM-12+001399999V0201801N00301004201CN0050001N9-00201-00301100431ADDAY181999GF108991081091004501999999MD1410001+9999MW1851
0087010550999991973030612004+71100+024000FM-12+001399999V0201601N00301002101CN9999999N9-00201-00301100461ADDAA106000591AY181999GF108991081091002501999999MD1310031+9999MW1851EQDQ01  00053PRCP99
0057010550999991973030615004+71100+024000FM-12+001399999V0201601N00201004201CN0140001N9-00101-00201100431ADDAY181999GF108991081091004501999999MD1810031+9999MW1151
0081010550999991973030618004+71100+024000FM-12+001399999V0201601N00201004201CN0140001N9-00101-00201100431ADDAA199001091AY181999GF108991081091004501999999KA1999M-00101MD1410001+9999MW1851
0057010550999991973030621004+71100+024000FM-12+001399999V0201601N00511220001CN0500001N9-00101-00201100491ADDAY181999GF104991041091004501001001MD1210061+9999MW1151
0087010550999991973030700004+71100+024000FM-12+001399999V0201801N00411002101CN0140001N9-00101-00201100531ADDAA106001091AY181999GF108991081091002501999999MD1210041+9999MW1851EQDQ01  00103PRCP99
0071010550999991973030703004+71100+024000FM-12+001399999V0201601N00361002101CN0140001N9+00001-00101100591ADDAY181999GF108991081091002501999999MD1210061+9999MW1851REMSYN00591433
0081010550999991973030706004+71100+024000FM-12+001399999V0201601N00411004201CN0220001N9-00101-00101100651ADDAA199001091AY181999GF108991081091004501999999KA1999N-00201MD1210061+9999MW1151
0057010550999991973030709004+71100+024000FM-12+001399999V0201401N00301024001CN0240001N9+00001-00101100751ADDAY181999GF106991041091004501041001MD1210101+9999MW1151
0087010550999991973030712004+71100+024000FM-12+001399999V0201601N00411004201CN0240001N9+00001-00101100841ADDAA106000091AY121999GF106991051091004501041001MD1210091+9999MW1161EQDQ01  00003PRCP99
0057010550999991973030715004+71100+024000FM-12+001399999V0201801N00201002101CN0040001N9+00101+00001100881ADDAY181999GF108991081091002501999999MD1210041+9999MW1841
0081010550999991973030718004+71100+024000FM-12+001399999V0201601N00411002401CN0030001N9+00001+00001100901ADDAA199007091AY171999GF109991091999999999999999KA1999M+00101MD1210021+9999MW1731
0057010550999991973030721004+71100+024000FM-12+001399999V0201401N00511001201CN0020001N9+00001+00001100961ADDAY171999GF109991091999999999999999MD1710061+9999MW1731
0087010550999991973030800004+71100+024000FM-12+001399999V0200901N00301004201CN0220001N9+00001-00101101101ADDAA106005091AY181999GF106991061091004501001001MD1210141+9999MW1151EQDQ01  00503PRCP99
0071010550999991973030803004+71100+024000FM-12+001399999V0203201N00201004201CN0220001N9+00101-00101101291ADDAY181999GF108991081091004501999999MD1210191+9999MW1151REMSYN00591432
0081010550999991973030806004+71100+024000FM-12+001399999V0203201N00511002101CN0040001N9+00101-00101101421ADDAA199007091AY181999GF108991081091002501999999KA1999N+00001MD1210131+9999MW1841
0057010550999991973030809004+71100+024000FM-12+001399999V0202901N00301004201CN0300001N9+00101+00001101541ADDAY181999GF106991061091004501001001MD1210121+9999MW1151
0087010550999991973030812004+71100+024000FM-12+001399999V0203401N00301004201CN0280001N9+00201+00101101711ADDAA106001091AY181999GF107991071091004501001001MD1210171+9999MW1151EQDQ01  00103PRCP99
0057010550999991973030815004+71100+024000FM-12+001399999V0200201N00201220001CN0280001N9+00201+00101101931ADDAY181999GF104991041091004501001001MD1210221+9999MW1151
0081010550999991973030818004+71100+024000FM-12+001399999V0202901N00511004201CN0240001N9+00201+00101102001ADDAA199002091AY181999GF107991071091004501999999KA1999M+00201MD1210071+9999MW1151
0057010550999991973030821004+71100+024000FM-12+001399999V0202501N00611220001CN0500001N9+00201-00301102011ADDAY121999GF103991031091008001001001MD1210011+9999MW1011
0087010550999991973030900004+71100+024000FM-12+001399999V0202701N00611007501CN0400001N9+00201-00201101811ADDAA106000091AY121999GF106991061091008001001001MD1710201+9999MW1021EQDQ01  00003PRCP99
0071010550999991973030903004+71100+024000FM-12+001399999V0201601N01131007501CN0400001N9+00101-00201101311ADDAY121999GF107991071091008001999999MD1710501+9999MW1021REMSYN00591436
0095010550999991973030906004+71100+024000FM-12+001399999V0201801N01031004201CN0400001N9+00201-00401100691ADDAA199000091AY121999GF108991081091004501999999KA1999N+00001MD1710621+9999MW1021REMSYN00591436
0057010550999991973030909004+71100+024000FM-12+001399999V0202001N00921004201CN0140001N9+00301+00201100071ADDAY181999GF108991081091004501999999MD1710621+9999MW1831
0101010550999991973030912004+71100+024000FM-12+001399999V0202301N01441002101CN0140001N9+00501+00301099681ADDAA106002091AY181999GF108991081091002501999999MD1710391+9999MW1811REMSYN00591447EQDQ01  00203PRCP99
0057010550999991973030915004+71100+024000FM-12+001399999V0202501N01751004201CN0140001N9+00501+00101099481ADDAY181999GF108991081091004501999999MD1610201+9999MW1161
0084010550999991973030918004+71100+024000FM-12+001399999V0202901N02161004201CN0220001N9+00201-00101099661ADDAY181999GF108991081091004501999999KA1999M+00501MD1310181+9999MW1151REMSYN00591449
0057010550999991973030921004+71100+024000FM-12+001399999V0202901N01851004201CN0220001N9+00101-00101099641ADDAY181999GF108991081091004501999999MD1810021+9999MW1831
0101010550999991973031000004+71100+024000FM-12+001399999V0202901N02061002101CN0140001N9+00001-00301099641ADDAA106001091AY181999GF108991081091002501999999MD1410001+9999MW1851REMSYN00591448EQDQ01  00103PRCP99
0071010550999991973031003004+71100+024000FM-12+001399999V0202901N01751002101CN0140001N9+00001-00301099831ADDAY181999GF108991081091002501999999MD1210191+9999MW1851REMSYN00591458
0095010550999991973031006004+71100+024000FM-12+001399999V0203201N01851004201CN0220001N9+00001-00301099881ADDAA199002091AY181999GF108991081091004501999999KA1999N-00101MD1210061+9999MW1151REMSYN00591458
0057010550999991973031009004+71100+024000FM-12+001399999V0202901N01951004201CN0220001N9+00101-00301099911ADDAY181999GF107991071091004501999999MD1210031+9999MW1151
0101010550999991973031012004+71100+024000FM-12+001399999V0202701N02161004201CN0140001N9+00201-00201099891ADDAA106999929AY181999GF108991081091004501999999MD1810021+9999MW1151REMSYN00591459EQDQ01  99993PRCP99
0057010550999991973031015004+71100+024000FM-12+001399999V0202501N01951004201CN0140001N9+00201+00101099731ADDAY181999GF108991081091004501999999MD1710161+9999MW1151
0095010550999991973031018004+71100+024000FM-12+001399999V0202701N02161002101CN0140001N9+00201+00101099451ADDAA199000591AY181999GF108991081091002501999999KA1999M+00301MD1710281+9999MW1801REMSYN00591459
0057010550999991973031021004+71100+024000FM-12+001399999V0202901N02061002101CN0040001N9+00201+00101099521ADDAY181999GF108991081091002501999999MD1310071+9999MW1841
0101010550999991973031100004+71100+024000FM-12+001399999V0203201N01751002101CN0140001N9+00201+00001099861ADDAA106001091AY181999GF108991081091002501999999MD1210341+9999MW1831REMSYN00591458EQDQ01  00103PRCP99
0071010550999991973031103004+71100+024000FM-12+001399999V0203201N01231004201CN0140001N9+00201-00201100181ADDAY181999GF108991081091004501999999MD1210321+9999MW1151REMSYN00591456
0095010550999991973031106004+71100+024000FM-12+001399999V0202701N01131004201CN0220001N9+00201-00201100411ADDAA199001091AY181999GF108991081091004501999999KA1999N+00101MD1210231+9999MW1151REMSYN00591447
0057010550999991973031109004+71100+024000FM-12+001399999V0202701N01341004201CN0220001N9+00201-00201100571ADDAY181999GF108991081091004501999999MD1210161+9999MW1151
0101010550999991973031112004+71100+024000FM-12+001399999V0202701N01341004201CN0500001N9+00301+00101100501ADDAA106000091AY121999GF108991081091004501999999MD1810071+9999MW1151REMSYN00591447EQDQ01  00003PRCP99
0076010550999991973031115004+71100+024000FM-12+001399999V02099999999999999999N0140001N9+00401+99999100381ADDAY181999GF108991999999999999999999MD1710121+9999MW1801EQDQ01+024023ATOD  
0095010550999991973031118004+71100+024000FM-12+001399999V0202901N01751002101CN0140001N9+00401+00301100231ADDAA199002091AY181999GF108991081091002501999999KA1999M+00401MD1710151+9999MW1831REMSYN00591448
0057010550999991973031121004+71100+024000FM-12+001399999V0202701N01851002101CN0140001N9+00401+00101100191ADDAY181999GF108991081091002501999999MD1710041+9999MW1151
0087010550999991973031200004+71100+024000FM-12+001399999V0202901N01641002101CN0140001N9+00201+00101100081ADDAA106001091AY181999GF108991081091002501999999MD1710111+9999MW1801EQDQ01  00103PRCP99
0071010550999991973031203004+71100+024000FM-12+001399999V0203201N01341004201CN0240001N9+00201+00101100041ADDAY181999GF108991081091004501999999MD1710041+9999MW1151REMSYN00591446
0095010550999991973031206004+71100+024000FM-12+001399999V0203201N01231004201CN0280001N9+00201-00201099951ADDAA199002091AY181999GF107991071091004501999999KA1999N+00101MD1710091+9999MW1151REMSYN00591447
0057010550999991973031209004+71100+024000FM-12+001399999V0202901N01701004201CN0280001N9+00101-00401100131ADDAY121999GF106991061091004501001001MD1310181+9999MW1021
0101010550999991973031212004+71100+024000FM-12+001399999V0202901N02061004201CN0260001N9-00101-00201100281ADDAA106000291AY181999GF108991081091004501999999MD1210151+9999MW1851REMSYN00591448EQDQ01  00023PRCP99
0057010550999991973031215004+71100+024000FM-12+001399999V0202901N02161004201CN0260001N9-00201-00401100331ADDAY181999GF108991081091004501999999MD1210051+9999MW1151
0082010550999991973031218004+71100+024000FM-12+001399999V0202901N02161004201CN0260001N9-00301-00601100321ADDAA199000591AY181999GF107991071091004501999999MD1810011+9999MW1851REMSYN00591459
0057010550999991973031221004+71100+024000FM-12+001399999V0203201N02061004201CN0280001N9-00301-00401100211ADDAY181999GF106991061091004501001001MD1710111+9999MW1151
0101010550999991973031300004+71100+024000FM-12+001399999V0203201N02061002101CN0140001N9-00401-00601100101ADDAA106001091AY181999GF108991081091002501999999MD1710111+9999MW1851REMSYN00591459EQDQ01  00103PRCP99
0071010550999991973031303004+71100+024000FM-12+001399999V0203201N01951002101CN0140001N9-00401-00601100031ADDAY181999GF108991081091002501999999MD1710071+9999MW1161REMSYN00591458
0095010550999991973031306004+71100+024000FM-12+001399999V0203201N02061004201CN0140001N9-00501-00701099991ADDAA199002091AY181999GF107991071091004501999999KA1999N-00501MD1710041+9999MW1151REMSYN00591459
0057010550999991973031309004+71100+024000FM-12+001399999V0203201N02061004201CN0280001N9-00401-00701099991ADDAY181999GF106991061091004501001001MD1410001+9999MW1151
0101010550999991973031312004+71100+024000FM-12+001399999V0203201N02371002101CN0140001N9-00301-00601099991ADDAA106001091AY181999GF108991081091002501999999MD1410001+9999MW1851REMSYN00591459EQDQ01  00103PRCP99
0108010550999991973031315004+71100+024000FM-12+001399999V0200701N00511220001CN0450001N9+99999+99999999999ADDAY111999GF101991011041008001001001MD1210271+9999MW1011EQDQ01+025823ATOT  Q02+025423ATOD  Q03+101083APOSLP
0095010550999991973031318004+71100+024000FM-12+001399999V0203401N01751004201CN0280001N9-00301-00601100421ADDAA199003091AY181999GF106991061091004501001001KA1999M-00201MD1210181+9999MW1161REMSYN00591458
0057010550999991973031321004+71100+024000FM-12+001399999V0203401N01751004201CN0260001N9-00401-00701100681ADDAY181999GF106991061091004501001001MD1210261+9999MW1851
0101010550999991973031400004+71100+024000FM-12+001399999V0203401N01751004201CN0260001N9-00401-00801100881ADDAA106000291AY181999GF107991071091004501999999MD1210201+9999MW1151REMSYN00591458EQDQ01  00023PRCP99
0071010550999991973031403004+71100+024000FM-12+001399999V0203401N01641004201CN0260001N9-00401-00601101061ADDAY181999GF106991061091004501001001MD1210181+9999MW1151REMSYN00591447
0114010550999991973031406004+71100+024000FM-12+001399999V0203601N01231004201CN0400001N9-00401-00701999999ADDAA199001091AY181999GF106991061091004501001001KA1999N-00501MD1210061+9999MW1151REMSYN00591447EQDQ01+100123APOSLP
0057010550999991973031409004+71100+024000FM-12+001399999V0203201N00821004201CN0240001N9-00401-00701101141ADDAY181999GF107991071091004501999999MD1210021+9999MW1151
0101010550999991973031412004+71100+024000FM-12+001399999V0203201N00411002101CN0140001N9-00401-00501101081ADDAA106999929AY181999GF108991081091002501999999MD1810061+9999MW1161REMSYN00591446EQDQ01  99993PRCP99
0057010550999991973031415004+71100+024000FM-12+001399999V0201601N00511002101CN0140001N9-00501-00601100891ADDAY181999GF108991081091002501999999MD1710191+9999MW1151
0081010550999991973031418004+71100+024000FM-12+001399999V0200901N00721002101CN0100001N9-00501-00601100811ADDAA199002091AY181999GF108991081091002501999999KA1999M-00401MD1710081+9999MW1851
0057010550999991973031421004+71100+024000FM-12+001399999V0201401N00301220001CN0400001N9-00401-00601100851ADDAY181999GF103991031091004501001001MD1310041+9999MW1151
0087010550999991973031500004+71100+024000FM-12+001399999V0203401N00511024001CN0280001N9-00301-00601100821ADDAA106000591AY181999GF108991041091004501021999MD1810031+9999MW1151EQDQ01  00053PRCP99
0071010550999991973031503004+71100+024000FM-12+001399999V0202901N00921004201CN0240001N9-00301-00501100691ADDAY181999GF108991081091004501999999MD1710131+9999MW1851REMSYN00591445
0081010550999991973031506004+71100+024000FM-12+001399999V0202901N00721002101CN0180001N9-00201-00301100421ADDAA199001091AY181999GF108991081091002501999999KA1999N-00501MD1710261+9999MW1851
0087010550999991973031512004+71100+024000FM-12+001399999V0202701N00721002101CN9999999N9+00001-00101099791ADDAA106001091AY181999GF108991081091002501999999MD1710421+9999MW1861EQDQ01  00103PRCP99
0076010550999991973031515004+71100+024000FM-12+001399999V0203401N01851004201CN0280001N9+00101+00001099152ADDAY181999GF105991051091004501001001MD1710641+9999MW1151EQDQ01+099153APOSLP
0095010550999991973031518004+71100+024000FM-12+001399999V0203201N01341004201CN0280001N9+00001-00401099261ADDAA199005091AY181999GF107991071091004501999999KA1999M+00301MD1310151+9999MW1161REMSYN00591428
0057010550999991973031521004+71100+024000FM-12+001399999V0202901N01341002101CN9999999N9-00201-00301099191ADDAY181999GF108991081091002501999999MD1810071+9999MW1861
0101010550999991973031600004+71100+024000FM-12+001399999V0200201N01031000301CN0005001N9-00401-00501099371ADDAA106003091AY171999GF109991091999999999999999MD1310181+9999MW1751REMSYN00591447EQDQ01  00303PRCP99
