0048080870999991972011005004+42200-001450FM-15+0295LEBR V0209991C00001220001CN0112001N1+00521+00301999999ADDGF100991999999999999999999EQDQ01+000000PRSWM2
0048080870999991972011006004+42200-001450FM-15+0295LEBR V0209991C00001220001CN0112001N1+00521+00351999999ADDGF100991999999999999999999EQDQ01+000000PRSWM2
0064080870999991972011010004+42200-001450FM-15+0295LEBR V0202401N001012200019N0112001N1+00631+00131999999ADDGA1021+090009009GF102991999999999999999999EQDQ01+000000PRSWM2
0080080870999991972011014004+42200-001450FM-15+0295LEBR V0200101N001512200019N0112001N1+01241+00741999999ADDGA1011+036009039GA2021+090009009GF102991999999999999999999EQDQ01+000000PRSWM2
0080080870999991972011105004+42200-001450FM-15+0295LEBR V0201601N003112200019N0112001N1+00411+00191999999ADDGA1011+036009039GA2011+090009009GF102991999999999999999999EQDQ01+000000PRSWM2
0080080870999991972011107004+42200-001450FM-15+0295LEBR V0201401N005112200019N0112001N1+00411+00191999999ADDGA1021+036009039GA2051+075009029GF107991999999999999999999EQDQ01+000000PRSWM2
0112080870999991972011108004+42200-001450FM-15+0295LEBR V0201501N006710420019N0112001N1+00461+00241999999ADDGA1011+003009079GA2011+021009039GA3051+042009039GA4061+075009029GF107991999999999999999999EQDQ01+000000PRSWM2
0112080870999991972011109004+42200-001450FM-15+0295LEBR V0201301N008710450019N0112001N1+00521+00301999999ADDGA1011+003009079GA2011+024009039GA3051+045009049GA4061+066009029GF108991999999999999999999EQDQ01+000000PRSWM2
0096080870999991972011111004+42200-001450FM-15+0295LEBR V0201301N007710450019N0112001N1+00581+00301999999ADDGA1011+006009059GA2061+045009049GA3051+066009029GF108991999999999999999999EQDQ01+000000PRSWM2
0096080870999991972011113004+42200-001450FM-15+0295LEBR V0201301N008710450019N0112001N1+00801+00411999999ADDGA1011+006009059GA2061+045009049GA3051+066009029GF108991999999999999999999EQDQ01+000000PRSWM2
0096080870999991972011114004+42200-001450FM-15+0295LEBR V0201301N008710480019N0112001N1+00851+00461999999ADDGA1011+007509059GA2051+048009049GA3051+066009029GF108991999999999999999999EQDQ01+000000PRSWM2
0064080870999991972011205004+42200-001450FM-15+0295LEBR V0202601N001012200019N0112001N1+00521+00411999999ADDGA1031+036009039GF102991999999999999999999EQDQ01+000000PRSWM2
0064080870999991972011206004+42200-001450FM-15+0295LEBR V0209991C000012200019N0112001N1+00521+00461999999ADDGA1031+042009039GF102991999999999999999999EQDQ01+000000PRSWM2
0080080870999991972011208004+42200-001450FM-15+0295LEBR V0203101N004110150019N0112001N1+00631+00241999999ADDGA1061+015009059GA2031+042009039GF108991999999999999999999EQDQ01+000000PRSWM2
0096080870999991972011210004+42200-001450FM-15+0295LEBR V0203401N003610150019N0112001N1+00741+00351999999ADDGA1041+010509059GA2031+024009039GA3031+042009039GF107991999999999999999999EQDQ01+000000PRSWM2
0080080870999991972011211004+42200-001450FM-15+0295LEBR V0203101N008710210019N0112001N1+00801+00301999999ADDGA1041+012009059GA2041+021009039GF107991999999999999999999EQDQ01+000000PRSWM2
0096080870999991972011213004+42200-001450FM-15+0295LEBR V0203101N006210135019N0112001N1+00911+00411999999ADDGA1011+007509059GA2051+013509059GA3031+024009039GF107991999999999999999999EQDQ01+000000PRSWM2
0096080870999991972011214004+42200-001450FM-15+0295LEBR V0203101N007710108019N0112001N1+00961+00461999999ADDGA1021+008409059GA2051+010809059GA3051+024009039GF108991999999999999999999EQDQ01+000000PRSWM2
0048080870999991972011305004+42200-001450FM-15+0295LEBR V0209991C00001220001CN0112001N1+00081+00021999999ADDGF100991999999999999999999EQDQ01+000000PRSWM2
0048080870999991972011306004+42200-001450FM-15+0295LEBR V0200101N00151220001CN0112001N1+00131+00021999999ADDGF100991999999999999999999EQDQ01+000000PRSWM2
0112080870999991972011308004+42200-001450FM-15+0295LEBR V0209991C000010300019N0112001N1+00131-00041999999ADDGA1011+004509059GA2011+015009059GA3021+024009039GA4051+030009039GF107991999999999999999999EQDQ01+000000PRSWM2
0112080870999991972011310004+42200-001450FM-15+0295LEBR V0202401N001510300019N0112001N1+00631+00241999999ADDGA1011+006009059GA2011+015009059GA3051+030009039GA4051+048009039GF107991999999999999999999EQDQ01+000000PRSWM2
0112080870999991972011311004+42200-001450FM-15+0295LEBR V0200901N006210300019N0112001N1+00801+00301999999ADDGA1011+006009059GA2021+021009039GA3041+030009039GA4041+048009039GF107991999999999999999999EQDQ01+000000PRSWM2
0096080870999991972011313004+42200-001450FM-15+0295LEBR V0201101N005110150019N0112001N1+00801+00301999999ADDGA1011+007509059GA2051+015009059GA3051+030009039GF107991999999999999999999EQDQ01+000000PRSWM2
0099080870999991972011314004+42200-001450FM-15+0295LEBR V0201201N005110210019N0112001N1+00851+00461999999ADDGA1011+007509059GA2021+015009059GA3061+021009039GA4051+030009039GF108991999999999999999999MW1801
0096080870999991972011315004+42200-001450FM-15+0295LEBR V0203301N005710105019N0112001N1+00801+00521999999ADDGA1031+004509059GA2051+010509059GA3051+015009059GF108991999999999999999999EQDQ01+000000PRSWM2
0064080870999991972011705004+42200-001450FM-15+0295LEBR V0203301N001010300019N0112001N1+00411+00191999999ADDGA1071+030009039GF107991999999999999999999EQDQ01+000000PRSWM2
0064080870999991972011706004+42200-001450FM-15+0295LEBR V0203401N001510330019N0112001N1+00351+00131999999ADDGA1071+033009039GF107991999999999999999999EQDQ01+000000PRSWM2
0064080870999991972011708004+42200-001450FM-15+0295LEBR V0209991V007210360019N0112001N1+00461+00241999999ADDGA1071+036009039GF107991999999999999999999EQDQ01+000000PRSWM2
0080080870999991972011710004+42200-001450FM-15+0295LEBR V0209991V005710360019N0112001N1+00461+00241999999ADDGA1011+004509079GA2081+036009039GF108991999999999999999999EQDQ01+000000PRSWM2
0096080870999991972011711004+42200-001450FM-15+0295LEBR V0209991V005110270019N0112001N1+00411+00191999999ADDGA1021+004509079GA2031+006009059GA3081+027009039GF108991999999999999999999EQDQ01+000000PRSWM2
0083080870999991972011712004+42200-001450FM-15+0295LEBR V0209991V005110240019N0112001N1+00521+00351999999ADDGA1021+004509079GA2041+006009059GA3081+024009039GF108991999999999999999999MW1511
0083080870999991972011713004+42200-001450FM-15+0295LEBR V0203301N008210240019N0112001N1+00581+00301999999ADDGA1031+004509079GA2031+006009059GA3081+024009039GF108991999999999999999999MW1511
0096080870999991972011714004+42200-001450FM-15+0295LEBR V0203201N005110060019N0112001N1+00631+00351999999ADDGA1041+004509079GA2051+006009059GA3081+024009039GF108991999999999999999999EQDQ01+000000PRSWM2
0051080870999991972011805004+42200-001450FM-15+0295LEBR V0203201N008712200019N0112001N1+00521+00301999999ADDGA1041+009009059GF102991999999999999999999MW1611
0051080870999991972011806004+42200-001450FM-15+0295LEBR V0209991V006212200019N0112001N1+00521+00351999999ADDGA1031+009009059GF102991999999999999999999MW1611
0067080870999991972011808004+42200-001450FM-15+0295LEBR V0203201N008212200019N0112001N1+00461+00241999999ADDGA1011+003609079GA2031+012009059GF102991999999999999999999MW1611
0080080870999991972011810004+42200-001450FM-15+0295LEBR V0203301N008712200019N0112001N1+00631+00351999999ADDGA1011+004509079GA2041+008409059GF102991999999999999999999EQDQ01+000000PRSWM2
0064080870999991972011811004+42200-001450FM-15+0295LEBR V0203201N009312200019N0112001N1+00691+00301999999ADDGA1041+008409059GF102991999999999999999999EQDQ01+000000PRSWM2
0080080870999991972011813004+42200-001450FM-15+0295LEBR V0203401N010310090019N0112001N1+00691+00301999999ADDGA1031+004509079GA2051+009009059GF107991999999999999999999EQDQ01+000000PRSWM2
0067080870999991972011814004+42200-001450FM-15+0295LEBR V0209991V008712200019N0112001N1+00961+00241999999ADDGA1021+004509079GA2041+009009059GF102991999999999999999999MW1611
0048080870999991972011905004+42200-001450FM-15+0295LEBR V0203301N00211220001CN0112001N1+00301+00021999999ADDGF100991999999999999999999EQDQ01+000000PRSWM2
0048080870999991972011906004+42200-001450FM-15+0295LEBR V0203401N00151220001CN0112001N1+00241+00021999999ADDGF100991999999999999999999EQDQ01+000000PRSWM2
0048080870999991972011908004+42200-001450FM-15+0295LEBR V0200101N00151220001CN0112001N1+00241-00041999999ADDGF100991999999999999999999EQDQ01+000000PRSWM2
0064080870999991972011909004+42200-001450FM-15+0295LEBR V0203501N002112200019N0112001N1+00191-00091999999ADDGA1011+018009079GF102991999999999999999999EQDQ01+000000PRSWM2
0064080870999991972011912004+42200-001450FM-15+0295LEBR V0203301N005712200019N0112001N1+00461+00131999999ADDGA1011+018009079GF102991999999999999999999EQDQ01+000000PRSWM2
0064080870999991972011914004+42200-001450FM-15+0295LEBR V0203301N006712200019N0112001N1+00631+00241999999ADDGA1011+018009059GF102991999999999999999999EQDQ01+000000PRSWM2
0064080870999991972012005004+42200-001450FM-15+0295LEBR V0201201N006212200019N0112001N1+00411+00191999999ADDGA1031+012009059GF102991999999999999999999EQDQ01+000000PRSWM2
0064080870999991972012006004+42200-001450FM-15+0295LEBR V0201201N007712200019N0112001N1+00351+00131999999ADDGA1031+012009059GF102991999999999999999999EQDQ01+000000PRSWM2
0064080870999991972012008004+42200-001450FM-15+0295LEBR V0201201N007712200019N0112001N1+00351+00131999999ADDGA1031+012009059GF102991999999999999999999EQDQ01+000000PRSWM2
0080080870999991972012009004+42200-001450FM-15+0295LEBR V0201401N007210120019N0112001N1+00301+00081999999ADDGA1021+004509079GA2061+012009059GF107991999999999999999999EQDQ01+000000PRSWM2
0080080870999991972012012004+42200-001450FM-15+0295LEBR V0203601N001010150019N0112001N1+00631+00521999999ADDGA1031+004509079GA2071+015009059GF108991999999999999999999EQDQ01+000000PRSWM2
0096080870999991972012014004+42200-001450FM-15+0295LEBR V0203401N002110150019N0112001N1+00741+00461999999ADDGA1021+004509079GA2031+009009059GA3081+015009059GF108991999999999999999999EQDQ01+000000PRSWM2
0083080870999991972012015004+42200-001450FM-15+0295LEBR V0203401N002610090019N0112001N1+00691+00521999999ADDGA1021+004509079GA2061+009009059GA3081+015009059GF108991999999999999999999MW1801
0048080870999991972012405004+42200-001450FM-15+0295LEBR V0203401N00101220001CN0112001N1-00201-00591999999ADDGF100991999999999999999999EQDQ01+000000PRSWM2
0048080870999991972012406004+42200-001450FM-15+0295LEBR V0203301N00151220001CN0112001N1-00151-00531999999ADDGF100991999999999999999999EQDQ01+000000PRSWM2
0064080870999991972012408004+42200-001450FM-15+0295LEBR V0209991C000012200019N0112001N1-00261-00651999999ADDGA1011+069009009GF102991999999999999999999EQDQ01+000000PRSWM2
0080080870999991972012410004+42200-001450FM-15+0295LEBR V0209991C000012200019N0112001N1+00131-00481999999ADDGA1011+042009039GA2011+069009009GF102991999999999999999999EQDQ01+000000PRSWM2
0080080870999991972012411004+42200-001450FM-15+0295LEBR V0201301N001012200019N0112001N1+00521-00591999999ADDGA1011+042009039GA2011+069009009GF102991999999999999999999EQDQ01+000000PRSWM2
0080080870999991972012413004+42200-001450FM-15+0295LEBR V0203301N002612200019N0112001N1+00911+00021999999ADDGA1011+042009039GA2011+069009009GF102991999999999999999999EQDQ01+000000PRSWM2
0064080870999991972012414004+42200-001450FM-15+0295LEBR V0203301N002612200019N0112001N1+01021+00131999999ADDGA1011+042009039GF102991999999999999999999EQDQ01+000000PRSWM2
0064080870999991972012505004+42200-001450FM-15+0295LEBR V0203001N006212200019N0112001N1+00521+00081999999ADDGA1021+012009059GF102991999999999999999999EQDQ01+000000PRSWM2
0064080870999991972012506004+42200-001450FM-15+0295LEBR V0203101N006210135019N0112001N1+00521+00131999999ADDGA1071+013509059GF107991999999999999999999EQDQ01+000000PRSWM2
0080080870999991972012508004+42200-001450FM-15+0295LEBR V0202901N007210270019N0112001N1+00461+00021999999ADDGA1021+013509059GA2041+027009039GF107991999999999999999999EQDQ01+000000PRSWM2
0080080870999991972012510004+42200-001450FM-15+0295LEBR V0203201N004612200019N0112001N1+00631+00131999999ADDGA1021+012009059GA2021+027009039GF102991999999999999999999EQDQ01+000000PRSWM2
0080080870999991972012511004+42200-001450FM-15+0295LEBR V0203001N006210210019N0112001N1+00691+00081999999ADDGA1021+012009059GA2051+021009039GF107991999999999999999999EQDQ01+000000PRSWM2
0096080870999991972012512004+42200-001450FM-15+0295LEBR V0203101N007210135019N0112001N1+00851+00241999999ADDGA1011+007509059GA2051+013509059GA3051+021009039GF107991999999999999999999EQDQ01+000000PRSWM2
0083080870999991972012514004+42200-001450FM-15+0295LEBR V0203101N007710120019N0112001N1+00851+00461999999ADDGA1021+006009059GA2041+012009059GA3061+030009039GF108991999999999999999999MW1801
0064080870999991972012605004+42200-001450FM-15+0295LEBR V0203201N004112200019N0112001N1+00581+00081999999ADDGA1021+042009039GF102991999999999999999999EQDQ01+000000PRSWM2
0080080870999991972012606004+42200-001450FM-15+0295LEBR V0203201N004112200019N0112001N1+00631+00131999999ADDGA1021+012009059GA2021+042009039GF102991999999999999999999EQDQ01+000000PRSWM2
0080080870999991972012608004+42200-001450FM-15+0295LEBR V0203101N005112200019N0112001N1+00631+00241999999ADDGA1011+010509059GA2031+021009039GF102991999999999999999999EQDQ01+000000PRSWM2
0080080870999991972012609004+42200-001450FM-15+0295LEBR V0203101N006210240019N0112001N1+00801+00301999999ADDGA1031+012009059GA2041+024009039GF107991999999999999999999EQDQ01+000000PRSWM2
0080080870999991972012610004+42200-001450FM-15+0295LEBR V0203101N008710135019N0112001N1+00961+00461999999ADDGA1051+013509059GA2041+024009039GF107991999999999999999999EQDQ01+000000PRSWM2
0080080870999991972012611004+42200-001450FM-15+0295LEBR V0203001N008710240019N0112001N1+00911+00411999999ADDGA1031+013509059GA2041+024009039GF107991999999999999999999EQDQ01+000000PRSWM2
0096080870999991972012613004+42200-001450FM-15+0295LEBR V0203201N007710240019N0112001N1+01021+00411999999ADDGA1021+009009059GA2031+013509059GA3041+024009039GF107991999999999999999999EQDQ01+000000PRSWM2
0112080870999991972012614004+42200-001450FM-15+0295LEBR V0203201N008712200019N0112001N1+01131+00461999999ADDGA1011+009009059GA2021+013509059GA3021+024009039GA4021+042009039GF102991999999999999999999EQDQ01+000000PRSWM2
0080080870999991972012705004+42200-001450FM-15+0295LEBR V0202801N002610270019N0112001N1+00801+00411999999ADDGA1021+012009059GA2051+027009039GF107991999999999999999999EQDQ01+000000PRSWM2
0080080870999991972012706004+42200-001450FM-15+0295LEBR V0202201N002110135019N0112001N1+00851+00461999999ADDGA1061+013509059GA2051+027009039GF108991999999999999999999EQDQ01+000000PRSWM2
0080080870999991972012707004+42200-001450FM-15+0295LEBR V0203101N007210240019N0112001N1+00801+00411999999ADDGA1031+013509059GA2051+024009039GF107991999999999999999999EQDQ01+000000PRSWM2
0096080870999991972012708004+42200-001450FM-15+0295LEBR V0203001N007710135019N0112001N1+00851+00461999999ADDGA1021+006009059GA2051+013509059GA3051+024009039GF108991999999999999999999EQDQ01+000000PRSWM2
0096080870999991972012709004+42200-001450FM-15+0295LEBR V0203101N005710135019N0112001N1+00911+00411999999ADDGA1041+009009059GA2031+013509059GA3051+024009039GF108991999999999999999999EQDQ01+000000PRSWM2
0096080870999991972012711004+42200-001450FM-15+0295LEBR V0203101N008210135019N0112001N1+01021+00301999999ADDGA1011+009009059GA2051+013509059GA3031+024009039GF107991999999999999999999EQDQ01+000000PRSWM2
0080080870999991972012713004+42200-001450FM-15+0295LEBR V0203201N009310210019N0112001N1+01021+00301999999ADDGA1021+012009059GA2041+021009039GF107991999999999999999999EQDQ01+000000PRSWM2
0080080870999991972012714004+42200-001450FM-15+0295LEBR V0203201N007712200019N0112001N1+01131+00351999999ADDGA1021+012009059GA2021+021009039GF102991999999999999999999EQDQ01+000000PRSWM2
0070080870999991972013105004+42200-001450FM-15+0295LEBR V0209991C000012200019N0096001N1-00201-00311999999ADDGA1041+018009039GF102991999999999999999999MW1441EQDQ01+000452PRSWM2
0070080870999991972013106004+42200-001450FM-15+0295LEBR V0209991C000010210019N0080001N1-00151-00261999999ADDGA1061+021009039GF107991999999999999999999MW1441EQDQ01+000452PRSWM2
0070080870999991972013107004+42200-001450FM-15+0295LEBR V0201201N003612200019N0048001N1-00311-00421999999ADDGA1011+024009039GF102991999999999999999999MW1441EQDQ01+000452PRSWM2
0070080870999991972013108004+42200-001450FM-15+0295LEBR V0201301N003612200019N0064001N1-00261-00371999999ADDGA1011+024009039GF102991999999999999999999MW1441EQDQ01+000452PRSWM2
0070080870999991972013109004+42200-001450FM-15+0295LEBR V0201401N004610210019N0080001N1+00021-00201999999ADDGA1071+021009039GF107991999999999999999999MW1441EQDQ01+000452PRSWM2
0064080870999991972013111004+42200-001450FM-15+0295LEBR V0201401N005110180019N0112001N1+00021-00421999999ADDGA1071+018009039GF107991999999999999999999EQDQ01+000000PRSWM2
0064080870999991972013113004+42200-001450FM-15+0295LEBR V0201201N008712200019N0112001N1+00191-00481999999ADDGA1011+018009039GF102991999999999999999999EQDQ01+000000PRSWM2
0064080870999991972013114004+42200-001450FM-15+0295LEBR V0201101N008712200019N0112001N1+00351-00531999999ADDGA1011+018009039GF102991999999999999999999EQDQ01+000000PRSWM2
0035080870999991972020105004+42200-001450FM-15+0295LEBR V0201201N011810090019N0112001N1+00521+00191999999ADDGF108991999999999999999999MW1801
0035080870999991972020106004+42200-001450FM-15+0295LEBR V0201201N012910090019N0112001N1+00521+00241999999ADDGF108991999999999999999999MW1611
0035080870999991972020107004+42200-001450FM-15+0295LEBR V0201201N012910090019N0112001N1+00301+00081999999ADDGF108991999999999999999999MW1611
0035080870999991972020108004+42200-001450FM-15+0295LEBR V0201201N012910120019N0112001N1+00461+00131999999ADDGF108991999999999999999999MW1611
0035080870999991972020109004+42200-001450FM-15+0295LEBR V0201201N011810075019N0112001N1+00521+00301999999ADDGF108991999999999999999999MW1611
0035080870999991972020110004+42200-001450FM-15+0295LEBR V0201201N012910075019N0112001N1+00631+00131999999ADDGF108991999999999999999999MW1611
0035080870999991972020112004+42200-001450FM-15+0295LEBR V0201201N010310120019N0112001N1+00631+00241999999ADDGF108991999999999999999999MW1611
0035080870999991972020113004+42200-001450FM-15+0295LEBR V0201201N005110120019N0112001N1+00691+00191999999ADDGF108991999999999999999999MW1611
0035080870999991972020114004+42200-001450FM-15+0295LEBR V0201601N001510090019N0036001N1+00961+00131999999ADDGF108991999999999999999999MW1631
0048080870999991972020115004+42200-001450FM-15+0295LEBR V0203301N005110090019N0112001N1+00911+00081999999ADDGF108991999999999999999999EQDQ01+000000PRSWM2
0048080870999991972020206004+42200-001450FM-15+0295LEBR V0201501N003110105019N0112001N1+00021-00371999999ADDGF108991999999999999999999EQDQ01+000000PRSWM2
0048080870999991972020207004+42200-001450FM-15+0295LEBR V0201001N003610210019N0112001N1+00021-00421999999ADDGF108991999999999999999999EQDQ01+000000PRSWM2
0035080870999991972020208004+42200-001450FM-15+0295LEBR V0201201N006210210019N0112001N1+00131-00371999999ADDGF108991999999999999999999MW1611
0035080870999991972020209004+42200-001450FM-15+0295LEBR V0201201N009310150019N0112001N1+00301-00311999999ADDGF108991999999999999999999MW1611
0035080870999991972020211004+42200-001450FM-15+0295LEBR V0201201N009310135019N0096001N1+00411-00421999999ADDGF108991999999999999999999MW1631
0048080870999991972020213004+42200-001450FM-15+0295LEBR V0201301N007710150019N0112001N1+00521-00201999999ADDGF108991999999999999999999EQDQ01+000000PRSWM2
0048080870999991972020214004+42200-001450FM-15+0295LEBR V0201301N008710210019N0112001N1+00521+00021999999ADDGF108991999999999999999999EQDQ01+000000PRSWM2
0035080870999991972020305004+42200-001450FM-15+0295LEBR V0201201N008210075019N0096001N1+00581+00411999999ADDGF108991999999999999999999MW1631
0035080870999991972020306004+42200-001450FM-15+0295LEBR V0201201N005710075019N0096001N1+00521+00461999999ADDGF108991999999999999999999MW1631
0035080870999991972020307004+42200-001450FM-15+0295LEBR V0201401N007210075019N0096001N1+00521+00301999999ADDGF108991999999999999999999MW1631
0035080870999991972020308004+42200-001450FM-15+0295LEBR V0201301N007710090019N0096001N1+00461+00351999999ADDGF108991999999999999999999MW1611
0048080870999991972020310004+42200-001450FM-15+0295LEBR V0201201N007710180019N0112001N1+00961+00131999999ADDGF107991999999999999999999EQDQ01+000000PRSWM2
0035080870999991972020312004+42200-001450FM-15+0295LEBR V0201201N009310150019N0028001N1+00961+00631999999ADDGF108991999999999999999999MW1631
0048080870999991972020705004+42200-001450FM-15+0295LEBR V0203401N001512200019N0112001N1+00911+00581999999ADDGF107991999999999999999999EQDQ01+000000PRSWM2
0048080870999991972020706004+42200-001450FM-15+0295LEBR V0202101N002610270019N0112001N1+01021+00631999999ADDGF108991999999999999999999EQDQ01+000000PRSWM2
0048080870999991972020708004+42200-001450FM-15+0295LEBR V0209991C000010360019N0112001N1+00851+00521999999ADDGF108991999999999999999999EQDQ01+000000PRSWM2
0048080870999991972020710004+42200-001450FM-15+0295LEBR V0203001N002110150019N0112001N1+00961+00631999999ADDGF108991999999999999999999EQDQ01+000000PRSWM2
0035080870999991972020711004+42200-001450FM-15+0295LEBR V0202401N004110150019N0112001N1+00911+00691999999ADDGF108991999999999999999999MW1611
0048080870999991972020713004+42200-001450FM-15+0295LEBR V0209991C000010240019N0112001N1+01021+00691999999ADDGF108991999999999999999999EQDQ01+000000PRSWM2
0048080870999991972020714004+42200-001450FM-15+0295LEBR V0209991C000010270019N0112001N1+01131+00631999999ADDGF107991999999999999999999EQDQ01+000000PRSWM2
0048080870999991972020805004+42200-001450FM-15+0295LEBR V0202301N002112200019N0112001N1+00301+00191999999ADDGF102991999999999999999999EQDQ01+000000PRSWM2
0048080870999991972020806004+42200-001450FM-15+0295LEBR V0209991C000012200019N0112001N1+00241+00131999999ADDGF102991999999999999999999EQDQ01+000000PRSWM2
0048080870999991972020808004+42200-001450FM-15+0295LEBR V0209991C000012200019N0112001N1+00131+00021999999ADDGF102991999999999999999999EQDQ01+000000PRSWM2
0048080870999991972020810004+42200-001450FM-15+0295LEBR V0209991C000012200019N0112001N1+00521+00351999999ADDGF102991999999999999999999EQDQ01+000000PRSWM2
0048080870999991972020811004+42200-001450FM-15+0295LEBR V0209991C000012200019N0112001N1+01191+00691999999ADDGF102991999999999999999999EQDQ01+000000PRSWM2
0048080870999991972020813004+42200-001450FM-15+0295LEBR V0202501N002112200019N0112001N1+01521+00801999999ADDGF102991999999999999999999EQDQ01+000000PRSWM2
0048080870999991972020814004+42200-001450FM-15+0295LEBR V0203101N006212200019N0112001N1+01521+00631999999ADDGF102991999999999999999999EQDQ01+000000PRSWM2
0048080870999991972020906004+42200-001450FM-15+0295LEBR V0203301N001512200019N0112001N1+00461+00131999999ADDGF102991999999999999999999EQDQ01+000000PRSWM2
0048080870999991972020907004+42200-001450FM-15+0295LEBR V0203301N001512200019N0112001N1+00411+00021999999ADDGF102991999999999999999999EQDQ01+000000PRSWM2
0048080870999991972020908004+42200-001450FM-15+0295LEBR V0203201N001512200019N0112001N1+00351+00131999999ADDGF102991999999999999999999EQDQ01+000000PRSWM2
0048080870999991972020910004+42200-001450FM-15+0295LEBR V0203101N004112200019N0112001N1+00631+00131999999ADDGF102991999999999999999999EQDQ01+000000PRSWM2
0048080870999991972020911004+42200-001450FM-15+0295LEBR V0203101N003612200019N0112001N1+01021+00411999999ADDGF102991999999999999999999EQDQ01+000000PRSWM2
0048080870999991972020913004+42200-001450FM-15+0295LEBR V0203001N004110750019N0112001N1+01021+00191999999ADDGF107991999999999999999999EQDQ01+000000PRSWM2
0048080870999991972020914004+42200-001450FM-15+0295LEBR V0203001N004610750019N0112001N1+00961+00131999999ADDGF107991999999999999999999EQDQ01+000000PRSWM2
0048080870999991972020915004+42200-001450FM-15+0295LEBR V0203101N004610090019N0112001N1+00911+00081999999ADDGF107991999999999999999999EQDQ01+000000PRSWM2
0035080870999991972021005004+42200-001450FM-15+0295LEBR V0203101N001510240019N0112001N1+00411+00191999999ADDGF107991999999999999999999MW1611
0035080870999991972021006004+42200-001450FM-15+0295LEBR V0209991C000010270019N0112001N1+00461+00241999999ADDGF108991999999999999999999MW1611
0035080870999991972021008004+42200-001450FM-15+0295LEBR V0209991C000010120019N0112001N1+00461+00351999999ADDGF108991999999999999999999MW1611
0035080870999991972021010004+42200-001450FM-15+0295LEBR V0209991C000010135019N0112001N1+00521+00461999999ADDGF108991999999999999999999MW1611
0035080870999991972021011004+42200-001450FM-15+0295LEBR V0209991C000010120019N0112001N1+00581+00521999999ADDGF108991999999999999999999MW1611
0048080870999991972021013004+42200-001450FM-15+0295LEBR V0209991C000010180019N0112001N1+00801+00521999999ADDGF107991999999999999999999EQDQ01+000000PRSWM2
0048080870999991972021014004+42200-001450FM-15+0295LEBR V0200201N002110300019N0112001N1+00961+00461999999ADDGF107991999999999999999999EQDQ01+000000PRSWM2
0048080870999991972021405004+42200-001450FM-15+0295LEBR V0203101N004110300019N0112001N1+00521+00081999999ADDGF107991999999999999999999EQDQ01+000000PRSWM2
0048080870999991972021406004+42200-001450FM-15+0295LEBR V0203301N003110084019N0112001N1+00521+00131999999ADDGF107991999999999999999999EQDQ01+000000PRSWM2
0048080870999991972021407004+42200-001450FM-15+0295LEBR V0203101N007712200019N0112001N1+00411+00081999999ADDGF102991999999999999999999EQDQ01+000000PRSWM2
0048080870999991972021408004+42200-001450FM-15+0295LEBR V0203101N008712200019N0112001N1+00461+00131999999ADDGF102991999999999999999999EQDQ01+000000PRSWM2
0048080870999991972021410004+42200-001450FM-15+0295LEBR V0203201N006212200019N0112001N1+00521+00131999999ADDGF102991999999999999999999EQDQ01+000000PRSWM2
0048080870999991972021411004+42200-001450FM-15+0295LEBR V0203101N006212200019N0112001N1+00801+00301999999ADDGF102991999999999999999999EQDQ01+000000PRSWM2
0048080870999991972021412004+42200-001450FM-15+0295LEBR V0203301N005110090019N0112001N1+00961+00461999999ADDGF107991999999999999999999EQDQ01+000000PRSWM2
0048080870999991972021415004+42200-001450FM-15+0295LEBR V0203401N004612200019N0112001N1+01191+00691999999ADDGF102991999999999999999999EQDQ01+000000PRSWM2
0048080870999991972021505004+42200-001450FM-15+0295LEBR V0209991C00001220001CN0112001N1+00021-00311999999ADDGF100991999999999999999999EQDQ01+000000PRSWM2
0048080870999991972021506004+42200-001450FM-15+0295LEBR V0209991C00001220001CN0112001N1+00021-00261999999ADDGF100991999999999999999999EQDQ01+000000PRSWM2
0048080870999991972021508004+42200-001450FM-15+0295LEBR V0209991C000012200019N0112001N1+00021-00261999999ADDGF102991999999999999999999EQDQ01+000000PRSWM2
0048080870999991972021509004+42200-001450FM-15+0295LEBR V0209991C000012200019N0112001N1+00301-00201999999ADDGF102991999999999999999999EQDQ01+000000PRSWM2
0048080870999991972021511004+42200-001450FM-15+0295LEBR V0209991C000012200019N0112001N1+01071+00411999999ADDGF102991999999999999999999EQDQ01+000000PRSWM2
0048080870999991972021513004+42200-001450FM-15+0295LEBR V0201101N001510750019N0112001N1+01411+00411999999ADDGF107991999999999999999999EQDQ01+000000PRSWM2
0048080870999991972021514004+42200-001450FM-15+0295LEBR V0201201N004110750019N0112001N1+01461+00631999999ADDGF107991999999999999999999EQDQ01+000000PRSWM2
0048080870999991972021605004+42200-001450FM-15+0295LEBR V0201501N005710210019N0112001N1+00581+00191999999ADDGF108991999999999999999999EQDQ01+000000PRSWM2
0048080870999991972021606004+42200-001450FM-15+0295LEBR V0201701N005110360019N0112001N1+00631+00241999999ADDGF108991999999999999999999EQDQ01+000000PRSWM2
0048080870999991972021608004+42200-001450FM-15+0295LEBR V0201801N002610360019N0112001N1+00741+00241999999ADDGF108991999999999999999999EQDQ01+000000PRSWM2
0048080870999991972021610004+42200-001450FM-15+0295LEBR V0201601N004110270019N0112001N1+00961+00241999999ADDGF108991999999999999999999EQDQ01+000000PRSWM2
0048080870999991972021611004+42200-001450FM-15+0295LEBR V0201301N007710240019N0112001N1+00911+00191999999ADDGF107991999999999999999999EQDQ01+000000PRSWM2
0048080870999991972021613004+42200-001450FM-15+0295LEBR V0201401N007710270019N0112001N1+01071+00521999999ADDGF107991999999999999999999EQDQ01+000000PRSWM2
0048080870999991972021614004+42200-001450FM-15+0295LEBR V0201401N008710090019N0112001N1+01241+00741999999ADDGF107991999999999999999999EQDQ01+000000PRSWM2
0048080870999991972021705004+42200-001450FM-15+0295LEBR V0202501N001510420019N0112001N1+00691+00411999999ADDGF107991999999999999999999EQDQ01+000000PRSWM2
0048080870999991972021706004+42200-001450FM-15+0295LEBR V0202001N003612200019N0112001N1+00741+00461999999ADDGF102991999999999999999999EQDQ01+000000PRSWM2
0048080870999991972021708004+42200-001450FM-15+0295LEBR V0209991C000012200019N0112001N1+00631+00021999999ADDGF102991999999999999999999EQDQ01+000000PRSWM2
0048080870999991972021710004+42200-001450FM-15+0295LEBR V0202301N004612200019N0112001N1+00851+00351999999ADDGF102991999999999999999999EQDQ01+000000PRSWM2
0048080870999991972021711004+42200-001450FM-15+0295LEBR V0202301N005110180019N0112001N1+01071+00521999999ADDGF107991999999999999999999EQDQ01+000000PRSWM2
0048080870999991972021713004+42200-001450FM-15+0295LEBR V0202701N005110180019N0112001N1+01191+00521999999ADDGF108991999999999999999999EQDQ01+000000PRSWM2
0048080870999991972021714004+42200-001450FM-15+0295LEBR V0203501N005110150019N0112001N1+01351+00631999999ADDGF108991999999999999999999EQDQ01+000000PRSWM2
0048080870999991972022205004+42200-001450FM-15+0295LEBR V0209991C00001220001CN0112001N1+00301+00081999999ADDGF100991999999999999999999EQDQ01+000000PRSWM2
0048080870999991972022206004+42200-001450FM-15+0295LEBR V0201201N00151220001CN0112001N1+00351+00131999999ADDGF100991999999999999999999EQDQ01+000000PRSWM2
0048080870999991972022207004+42200-001450FM-15+0295LEBR V0200501N00211220001CN0112001N1+00081+00021999999ADDGF100991999999999999999999EQDQ01+000000PRSWM2
0035080870999991972022209004+42200-001450FM-15+0295LEBR V0201201N00101220001CN0096001N1+00521+00301999999ADDGF100991999999999999999999MW1051
0035080870999991972022210004+42200-001450FM-15+0295LEBR V0209991C000010090019N0096001N1+00631+00351999999ADDGF107991999999999999999999MW1051
0035080870999991972022211004+42200-001450FM-15+0295LEBR V0201701N001010066019N0096001N1+00691+00301999999ADDGF107991999999999999999999MW1051
0048080870999991972022212004+42200-001450FM-15+0295LEBR V0201501N003612200019N0112001N1+00741+00351999999ADDGF102991999999999999999999EQDQ01+000000PRSWM2
0048080870999991972022213004+42200-001450FM-15+0295LEBR V0202601N001510240019N0112001N1+00911+00411999999ADDGF107991999999999999999999EQDQ01+000000PRSWM2
0048080870999991972022214004+42200-001450FM-15+0295LEBR V0201401N001510240019N0112001N1+01021+00521999999ADDGF107991999999999999999999EQDQ01+000000PRSWM2
0035080870999991972022305004+42200-001450FM-15+0295LEBR V0201201N004110090019N0112001N1+00581+00301999999ADDGF108991999999999999999999MW1611
0048080870999991972022306004+42200-001450FM-15+0295LEBR V0201101N004610096019N0112001N1+00631+00351999999ADDGF108991999999999999999999EQDQ01+000000PRSWM2
0035080870999991972022307004+42200-001450FM-15+0295LEBR V0201501N002610075019N0096001N1+00581+00411999999ADDGF108991999999999999999999MW1611
0035080870999991972022308004+42200-001450FM-15+0295LEBR V0209991C000010096019N0096001N1+00631+00461999999ADDGF108991999999999999999999MW1611
0035080870999991972022309004+42200-001450FM-15+0295LEBR V0201201N005110054019N0112001N1+00691+00521999999ADDGF108991999999999999999999MW1611
0048080870999991972022310004+42200-001450FM-15+0295LEBR V0201501N005110054019N0112001N1+00741+00521999999ADDGF108991999999999999999999EQDQ01+000000PRSWM2
0048080870999991972022311004+42200-001450FM-15+0295LEBR V0201401N006210054019N0112001N1+00801+00521999999ADDGF108991999999999999999999EQDQ01+000000PRSWM2
0048080870999991972022312004+42200-001450FM-15+0295LEBR V0201201N008710060019N0112001N1+00961+00631999999ADDGF108991999999999999999999EQDQ01+000000PRSWM2
0035080870999991972022313004+42200-001450FM-15+0295LEBR V0201301N006210078019N0112001N1+00911+00581999999ADDGF108991999999999999999999MW1611
0048080870999991972022314004+42200-001450FM-15+0295LEBR V0201201N007710090019N0112001N1+00961+00631999999ADDGF108991999999999999999999EQDQ01+000000PRSWM2
0048080870999991972022405004+42200-001450FM-15+0295LEBR V0200701N001510090019N0112001N1+00801+00581999999ADDGF108991999999999999999999EQDQ01+000000PRSWM2
0048080870999991972022406004+42200-001450FM-15+0295LEBR V0209991C000010120019N0112001N1+00851+00631999999ADDGF107991999999999999999999EQDQ01+000000PRSWM2
0048080870999991972022408004+42200-001450FM-15+0295LEBR V0209991C000010120019N0112001N1+00741+00521999999ADDGF108991999999999999999999EQDQ01+000000PRSWM2
0048080870999991972022410004+42200-001450FM-15+0295LEBR V0200601N002110270019N0112001N1+00851+00521999999ADDGF108991999999999999999999EQDQ01+000000PRSWM2
0048080870999991972022411004+42200-001450FM-15+0295LEBR V0209991C000010270019N0112001N1+00911+00521999999ADDGF108991999999999999999999EQDQ01+000000PRSWM2
0048080870999991972022413004+42200-001450FM-15+0295LEBR V0201201N003110270019N0112001N1+01021+00521999999ADDGF108991999999999999999999EQDQ01+000000PRSWM2
0048080870999991972022414004+42200-001450FM-15+0295LEBR V0201301N003110210019N0112001N1+01021+00631999999ADDGF108991999999999999999999EQDQ01+000000PRSWM2
0048080870999991972022805004+42200-001450FM-15+0295LEBR V0209991C000012200019N0112001N1+00081-00091999999ADDGF102991999999999999999999EQDQ01+000000PRSWM2
0035080870999991972022806004+42200-001450FM-15+0295LEBR V0209991C000012200019N0112001N1+00021-00041999999ADDGF102991999999999999999999MW1451
0048080870999991972022808004+42200-001450FM-15+0295LEBR V0209991C000012200019N0112001N1+00131-00151999999ADDGF107991999999999999999999EQDQ01+000000PRSWM2
0048080870999991972022810004+42200-001450FM-15+0295LEBR V0209991C000012200019N0112001N1+00351-00151999999ADDGF102991999999999999999999EQDQ01+000000PRSWM2
0048080870999991972022811004+42200-001450FM-15+0295LEBR V0209991C000012200019N0112001N1+00411+00021999999ADDGF107991999999999999999999EQDQ01+000000PRSWM2
0048080870999991972022813004+42200-001450FM-15+0295LEBR V0209991C000012200019N0112001N1+01191+00301999999ADDGF102991999999999999999999EQDQ01+000000PRSWM2
0048080870999991972022814004+42200-001450FM-15+0295LEBR V0209991C000012200019N0112001N1+01351+00461999999ADDGF102991999999999999999999EQDQ01+000000PRSWM2
0035080870999991972022905004+42200-001450FM-15+0295LEBR V0202201N00151220001CN0096001N1+00411+00191999999ADDGF100991999999999999999999MW1051
0035080870999991972022906004+42200-001450FM-15+0295LEBR V0202601N00151220001CN0080001N1+00131-00041999999ADDGF100991999999999999999999MW1051
0048080870999991972022908004+42200-001450FM-15+0295LEBR V0209991C00001220001CN0112001N1+00021-00261999999ADDGF100991999999999999999999EQDQ01+000000PRSWM2
0048080870999991972022910004+42200-001450FM-15+0295LEBR V0202201N00211220001CN0112001N1+00741+00241999999ADDGF100991999999999999999999EQDQ01+000000PRSWM2
0048080870999991972022911004+42200-001450FM-15+0295LEBR V0203201N00211220001CN0112001N1+00911+00301999999ADDGF100991999999999999999999EQDQ01+000000PRSWM2
0048080870999991972022913004+42200-001450FM-15+0295LEBR V0203401N00311220001CN0112001N1+01071+00521999999ADDGF100991999999999999999999EQDQ01+000000PRSWM2
0048080870999991972022914004+42200-001450FM-15+0295LEBR V0203501N00261220001CN0112001N1+01351+00631999999ADDGF100991999999999999999999EQDQ01+000000PRSWM2
0035080870999991972030105004+42200-001450FM-15+0295LEBR V0209991C000010210019N0112001N1+00691+00301999999ADDGF108991999999999999999999MW1611
0035080870999991972030106004+42200-001450FM-15+0295LEBR V0209991C000010180019N0112001N1+00741+00351999999ADDGF108991999999999999999999MW1611
0035080870999991972030108004+42200-001450FM-15+0295LEBR V0203501N001010150019N0112001N1+00741+00351999999ADDGF108991999999999999999999MW1611
0035080870999991972030109004+42200-001450FM-15+0295LEBR V0203401N001010060019N0112001N1+00801+00521999999ADDGF108991999999999999999999MW1611
0035080870999991972030111004+42200-001450FM-15+0295LEBR V0203401N001010069019N0080001N1+00801+00581999999ADDGF108991999999999999999999MW1611
0035080870999991972030112004+42200-001450FM-15+0295LEBR V0203301N003110063019N0096001N1+00851+00521999999ADDGF108991999999999999999999MW1611
0035080870999991972030113004+42200-001450FM-15+0295LEBR V0209991V007210120019N0112001N1+00801+00521999999ADDGF108991999999999999999999MW1611
0048080870999991972030205004+42200-001450FM-15+0295LEBR V0203201N003112200019N0112001N1+00301+00021999999ADDGF102991999999999999999999EQDQ01+000000PRSWM2
0048080870999991972030206004+42200-001450FM-15+0295LEBR V0203201N004612200019N0112001N1+00241-00151999999ADDGF102991999999999999999999EQDQ01+000000PRSWM2
0048080870999991972030208004+42200-001450FM-15+0295LEBR V0203101N002612200019N0112001N1+00021-00261999999ADDGF102991999999999999999999EQDQ01+000000PRSWM2
0048080870999991972030210004+42200-001450FM-15+0295LEBR V0203401N003612200019N0112001N1+00351+00021999999ADDGF102991999999999999999999EQDQ01+000000PRSWM2
0048080870999991972030211004+42200-001450FM-15+0295LEBR V0203501N004612200019N0112001N1+00911+00301999999ADDGF102991999999999999999999EQDQ01+000000PRSWM2
0048080870999991972030213004+42200-001450FM-15+0295LEBR V0203301N005712200019N0112001N1+01071+00411999999ADDGF102991999999999999999999EQDQ01+000000PRSWM2
0048080870999991972030214004+42200-001450FM-15+0295LEBR V0202601N003612200019N0112001N1+01461+00631999999ADDGF102991999999999999999999EQDQ01+000000PRSWM2
0048080870999991972030605004+42200-001450FM-15+0295LEBR V0201201N002610240019N0112001N1+00521+00191999999ADDGF107991999999999999999999EQDQ01+000000PRSWM2
0048080870999991972030606004+42200-001450FM-15+0295LEBR V0200901N004110120019N0112001N1+00521+00241999999ADDGF107991999999999999999999EQDQ01+000000PRSWM2
0048080870999991972030608004+42200-001450FM-15+0295LEBR V0200501N002610270019N0112001N1+00521+00241999999ADDGF107991999999999999999999EQDQ01+000000PRSWM2
0048080870999991972030610004+42200-001450FM-15+0295LEBR V0201201N006210360019N0112001N1+00741+00241999999ADDGF107991999999999999999999EQDQ01+000000PRSWM2
0048080870999991972030611004+42200-001450FM-15+0295LEBR V0201001N006710420019N0112001N1+00801+00081999999ADDGF107991999999999999999999EQDQ01+000000PRSWM2
0048080870999991972030613004+42200-001450FM-15+0295LEBR V0201701N002610600019N0112001N1+01071+00411999999ADDGF108991999999999999999999EQDQ01+000000PRSWM2
0048080870999991972030614004+42200-001450FM-15+0295LEBR V0202301N012310135019N0112001N1+01131+00461999999ADDGF108991999999999999999999EQDQ01+000000PRSWM2
0048080870999991972030705004+42200-001450FM-15+0295LEBR V0201501N003112200019N0112001N1+00301+00191999999ADDGF107991999999999999999999EQDQ01+000000PRSWM2
0048080870999991972030706004+42200-001450FM-15+0295LEBR V0201401N002110270019N0112001N1+00351+00241999999ADDGF107991999999999999999999EQDQ01+000000PRSWM2
0048080870999991972030708004+42200-001450FM-15+0295LEBR V0202301N004610600019N0112001N1+00521+00351999999ADDGF107991999999999999999999EQDQ01+000000PRSWM2
0048080870999991972030710004+42200-001450FM-15+0295LEBR V0202401N006712200019N0112001N1+00961+00131999999ADDGF107991999999999999999999EQDQ01+000000PRSWM2
0048080870999991972030711004+42200-001450FM-15+0295LEBR V0202301N007712200019N0112001N1+01021+00081999999ADDGF107991999999999999999999EQDQ01+000000PRSWM2
0048080870999991972030713004+42200-001450FM-15+0295LEBR V0202701N006710600019N0112001N1+01411+00081999999ADDGF107991999999999999999999EQDQ01+000000PRSWM2
0048080870999991972030714004+42200-001450FM-15+0295LEBR V0202801N006210270019N0112001N1+01461+00131999999ADDGF108991999999999999999999EQDQ01+000000PRSWM2
0048080870999991972030805004+42200-001450FM-15+0295LEBR V0202401N008210060019N0112001N1+00521+00191999999ADDGF108991999999999999999999EQDQ01+000000PRSWM2
0048080870999991972030806004+42200-001450FM-15+0295LEBR V0202201N008210240019N0112001N1+00521+00241999999ADDGF107991999999999999999999EQDQ01+000000PRSWM2
0048080870999991972030808004+42200-001450FM-15+0295LEBR V0202401N007210240019N0112001N1+00521+00241999999ADDGF107991999999999999999999EQDQ01+000000PRSWM2
0048080870999991972030809004+42200-001450FM-15+0295LEBR V0202401N005110210019N0112001N1+00801+00081999999ADDGF108991999999999999999999EQDQ01+000000PRSWM2
0048080870999991972030811004+42200-001450FM-15+0295LEBR V0201101N003610210019N0112001N1+00911-00091999999ADDGF108991999999999999999999EQDQ01+000000PRSWM2
0048080870999991972030813004+42200-001450FM-15+0295LEBR V0201301N003610600019N0112001N1+01191+00191999999ADDGF108991999999999999999999EQDQ01+000000PRSWM2
0048080870999991972030814004+42200-001450FM-15+0295LEBR V0201301N004110600019N0112001N1+01131+00241999999ADDGF108991999999999999999999EQDQ01+000000PRSWM2
0048080870999991972030905004+42200-001450FM-15+0295LEBR V0203601N001012200019N0112001N1+00081-00201999999ADDGF102991999999999999999999EQDQ01+000000PRSWM2
0048080870999991972030906004+42200-001450FM-15+0295LEBR V0203601N001510300019N0112001N1+00131-00151999999ADDGF107991999999999999999999EQDQ01+000000PRSWM2
0048080870999991972030908004+42200-001450FM-15+0295LEBR V0200701N001012200019N0112001N1+00021-00151999999ADDGF102991999999999999999999EQDQ01+000000PRSWM2
0048080870999991972030909004+42200-001450FM-15+0295LEBR V0200701N002112200019N0112001N1+00581+00191999999ADDGF102991999999999999999999EQDQ01+000000PRSWM2
0048080870999991972030911004+42200-001450FM-15+0295LEBR V0203301N004612200019N0112001N1+01021+00301999999ADDGF102991999999999999999999EQDQ01+000000PRSWM2
0048080870999991972030913004+42200-001450FM-15+0295LEBR V0203301N006212200019N0112001N1+01071+00411999999ADDGF102991999999999999999999EQDQ01+000000PRSWM2
0048080870999991972030914004+42200-001450FM-15+0295LEBR V0203401N005112200019N0112001N1+01131+00461999999ADDGF102991999999999999999999EQDQ01+000000PRSWM2
0048080870999991972031305004+42200-001450FM-15+0295LEBR V0201401N002610300019N0112001N1+00691+00411999999ADDGF108991999999999999999999EQDQ01+000000PRSWM2
0035080870999991972031306004+42200-001450FM-15+0295LEBR V0201201N006210270019N0112001N1+00741+00461999999ADDGF108991999999999999999999MW1801
0048080870999991972031308004+42200-001450FM-15+0295LEBR V0201201N004610120019N0112001N1+00631+00461999999ADDGF107991999999999999999999EQDQ01+000000PRSWM2
0048080870999991972031310004+42200-001450FM-15+0295LEBR V0201301N005710240019N0112001N1+00851+00521999999ADDGF107991999999999999999999EQDQ01+000000PRSWM2
0048080870999991972031311004+42200-001450FM-15+0295LEBR V0201201N007712200019N0112001N1+01191+00691999999ADDGF102991999999999999999999EQDQ01+000000PRSWM2
0048080870999991972031313004+42200-001450FM-15+0295LEBR V0201301N006710090019N0112001N1+01301+00691999999ADDGF107991999999999999999999EQDQ01+000000PRSWM2
0048080870999991972031314004+42200-001450FM-15+0295LEBR V0201301N008712200019N0112001N1+01351+00741999999ADDGF102991999999999999999999EQDQ01+000000PRSWM2
0048080870999991972031405004+42200-001450FM-15+0295LEBR V0201201N009810240019N0112001N1+00911+00521999999ADDGF107991999999999999999999EQDQ01+000000PRSWM2
0048080870999991972031406004+42200-001450FM-15+0295LEBR V0201201N010312200019N0112001N1+00961+00521999999ADDGF102991999999999999999999EQDQ01+000000PRSWM2
0048080870999991972031408004+42200-001450FM-15+0295LEBR V0201201N007710270019N0112001N1+00851+00521999999ADDGF107991999999999999999999EQDQ01+000000PRSWM2
0048080870999991972031409004+42200-001450FM-15+0295LEBR V0201301N006710105019N0112001N1+00911+00521999999ADDGF107991999999999999999999EQDQ01+000000PRSWM2
0048080870999991972031410004+42200-001450FM-15+0295LEBR V0201301N009810270019N0112001N1+00961+00521999999ADDGF107991999999999999999999EQDQ01+000000PRSWM2
0048080870999991972031411004+42200-001450FM-15+0295LEBR V0201201N010310390019N0112001N1+01021+00581999999ADDGF107991999999999999999999EQDQ01+000000PRSWM2
0048080870999991972031413004+42200-001450FM-15+0295LEBR V0201201N009310330019N0112001N1+01071+00521999999ADDGF107991999999999999999999EQDQ01+000000PRSWM2
0048080870999991972031414004+42200-001450FM-15+0295LEBR V0201201N009810330019N0112001N1+01131+00631999999ADDGF107991999999999999999999EQDQ01+000000PRSWM2
0035080870999991972031505004+42200-001450FM-15+0295LEBR V0201101N007210120019N0112001N1+01021+00801999999ADDGF108991999999999999999999MW1611
0035080870999991972031506004+42200-001450FM-15+0295LEBR V0201001N005710135019N0096001N1+01021+00961999999ADDGF108991999999999999999999MW1611
0035080870999991972031508004+42200-001450FM-15+0295LEBR V0201001N007210210019N0112001N1+01021+00851999999ADDGF107991999999999999999999MW1611
0048080870999991972031510004+42200-001450FM-15+0295LEBR V0201201N004610120019N0112001N1+01351+01021999999ADDGF108991999999999999999999EQDQ01+000000PRSWM2
0035080870999991972031511004+42200-001450FM-15+0295LEBR V0201101N005110096019N0096001N1+01301+01191999999ADDGF108991999999999999999999MW1611
0035080870999991972031512004+42200-001450FM-15+0295LEBR V0200901N003610150019N0112001N1+01461+01241999999ADDGF108991999999999999999999MW1611
0035080870999991972031514004+42200-001450FM-15+0295LEBR V0201101N008710150019N0112001N1+01461+01241999999ADDGF108991999999999999999999MW1611
0048080870999991972031605004+42200-001450FM-15+0295LEBR V0201901N00211220001CN0112001N1+00521+00521999999ADDGF100991999999999999999999EQDQ01+000000PRSWM2
0048080870999991972031606004+42200-001450FM-15+0295LEBR V0201401N002112200019N0112001N1+00631+00521999999ADDGF102991999999999999999999EQDQ01+000000PRSWM2
0035080870999991972031608004+42200-001450FM-15+0295LEBR V0209991C000010240019N0096001N1+00521+00461999999ADDGF107991999999999999999999MW1051
0048080870999991972031609004+42200-001450FM-15+0295LEBR V0202401N001510060019N0112001N1+00911+00521999999ADDGF107991999999999999999999EQDQ01+000000PRSWM2
0048080870999991972031610004+42200-001450FM-15+0295LEBR V0202501N002110750019N0112001N1+01021+00521999999ADDGF108991999999999999999999EQDQ01+000000PRSWM2
0048080870999991972031611004+42200-001450FM-15+0295LEBR V0200801N001510060019N0112001N1+01071+00521999999ADDGF107991999999999999999999EQDQ01+000000PRSWM2
0048080870999991972031612004+42200-001450FM-15+0295LEBR V0201101N004612200019N0112001N1+01241+00461999999ADDGF107991999999999999999999EQDQ01+000000PRSWM2
0048080870999991972031614004+42200-001450FM-15+0295LEBR V0201201N005712200019N0112001N1+01351+00521999999ADDGF107991999999999999999999EQDQ01+000000PRSWM2
0048080870999991972032005004+42200-001450FM-15+0295LEBR V0201201N006210120019N0112001N1+00911+00581999999ADDGF108991999999999999999999EQDQ01+000000PRSWM2
0048080870999991972032006004+42200-001450FM-15+0295LEBR V0201101N006710120019N0112001N1+00961+00631999999ADDGF107991999999999999999999EQDQ01+000000PRSWM2
0048080870999991972032008004+42200-001450FM-15+0295LEBR V0201101N004610135019N0112001N1+00961+00521999999ADDGF107991999999999999999999EQDQ01+000000PRSWM2
0048080870999991972032009004+42200-001450FM-15+0295LEBR V0201101N006210210019N0112001N1+01021+00581999999ADDGF107991999999999999999999EQDQ01+000000PRSWM2
0048080870999991972032011004+42200-001450FM-15+0295LEBR V0201101N003110240019N0112001N1+01301+00581999999ADDGF107991999999999999999999EQDQ01+000000PRSWM2
0048080870999991972032013004+42200-001450FM-15+0295LEBR V0201101N002110150019N0112001N1+01411+00521999999ADDGF107991999999999999999999EQDQ01+000000PRSWM2
0035080870999991972032014004+42200-001450FM-15+0295LEBR V0201601N004110105019N0112001N1+01461+00851999999ADDGF107991999999999999999999MW1801
0048080870999991972032105004+42200-001450FM-15+0295LEBR V0203401N001512200019N0112001N1+00411+00081999999ADDGF102991999999999999999999EQDQ01+000000PRSWM2
0048080870999991972032106004+42200-001450FM-15+0295LEBR V0203601N001012200019N0112001N1+00461+00131999999ADDGF102991999999999999999999EQDQ01+000000PRSWM2
0048080870999991972032108004+42200-001450FM-15+0295LEBR V0209991C000012200019N0112001N1+00351+00021999999ADDGF102991999999999999999999EQDQ01+000000PRSWM2
0048080870999991972032109004+42200-001450FM-15+0295LEBR V0201601N001012200019N0112001N1+00801+00301999999ADDGF102991999999999999999999EQDQ01+000000PRSWM2
0048080870999991972032111004+42200-001450FM-15+0295LEBR V0202801N001012200019N0112001N1+01301+00581999999ADDGF102991999999999999999999EQDQ01+000000PRSWM2
0048080870999991972032113004+42200-001450FM-15+0295LEBR V0200801N002612200019N0112001N1+01521+00691999999ADDGF102991999999999999999999EQDQ01+000000PRSWM2
0048080870999991972032205004+42200-001450FM-15+0295LEBR V0201201N00101220001CN0112001N1+00411+00191999999ADDGF100991999999999999999999EQDQ01+000000PRSWM2
0048080870999991972032206004+42200-001450FM-15+0295LEBR V0203501N001012200019N0112001N1+00461+00241999999ADDGF102991999999999999999999EQDQ01+000000PRSWM2
0048080870999991972032208004+42200-001450FM-15+0295LEBR V0209991C000012200019N0112001N1+00461+00241999999ADDGF102991999999999999999999EQDQ01+000000PRSWM2
0048080870999991972032210004+42200-001450FM-15+0295LEBR V0202701N002112200019N0112001N1+00741+00351999999ADDGF102991999999999999999999EQDQ01+000000PRSWM2
0048080870999991972032211004+42200-001450FM-15+0295LEBR V0201901N001012200019N0112001N1+01411+00521999999ADDGF102991999999999999999999EQDQ01+000000PRSWM2
0048080870999991972032213004+42200-001450FM-15+0295LEBR V0202401N001012200019N0112001N1+01571+00581999999ADDGF102991999999999999999999EQDQ01+000000PRSWM2
0048080870999991972032214004+42200-001450FM-15+0295LEBR V0203301N002612200019N0112001N1+01741+00631999999ADDGF102991999999999999999999EQDQ01+000000PRSWM2
0048080870999991972032305004+42200-001450FM-15+0295LEBR V0201301N002612200019N0112001N1+00691+00411999999ADDGF102991999999999999999999EQDQ01+000000PRSWM2
0048080870999991972032306004+42200-001450FM-15+0295LEBR V0201001N003110270019N0112001N1+00741+00461999999ADDGF107991999999999999999999EQDQ01+000000PRSWM2
0048080870999991972032308004+42200-001450FM-15+0295LEBR V0201401N002612200019N0112001N1+00631+00351999999ADDGF102991999999999999999999EQDQ01+000000PRSWM2
0048080870999991972032310004+42200-001450FM-15+0295LEBR V0202001N001012200019N0112001N1+01241+00461999999ADDGF102991999999999999999999EQDQ01+000000PRSWM2
0048080870999991972032311004+42200-001450FM-15+0295LEBR V0202201N001012200019N0112001N1+01411+00411999999ADDGF107991999999999999999999EQDQ01+000000PRSWM2
0048080870999991972032313004+42200-001450FM-15+0295LEBR V0201101N006712200019N0112001N1+02021+00521999999ADDGF107991999999999999999999EQDQ01+000000PRSWM2
0048080870999991972032314004+42200-001450FM-15+0295LEBR V0201501N007212200019N0112001N1+02131+00521999999ADDGF102991999999999999999999EQDQ01+000000PRSWM2
0048080870999991972032705004+42200-001450FM-15+0295LEBR V0203101N004112200019N0112001N1+00521+00191999999ADDGF102991999999999999999999EQDQ01+000000PRSWM2
0048080870999991972032706004+42200-001450FM-15+0295LEBR V0203101N003612200019N0112001N1+00521+00241999999ADDGF102991999999999999999999EQDQ01+000000PRSWM2
0048080870999991972032707004+42200-001450FM-15+0295LEBR V0203101N004112200019N0112001N1+00581+00191999999ADDGF102991999999999999999999EQDQ01+000000PRSWM2
0048080870999991972032709004+42200-001450FM-15+0295LEBR V0203301N006712200019N0112001N1+00911+00411999999ADDGF102991999999999999999999EQDQ01+000000PRSWM2
0048080870999991972032711004+42200-001450FM-15+0295LEBR V0203501N008212200019N0112001N1+01191+00191999999ADDGF102991999999999999999999EQDQ01+000000PRSWM2
0048080870999991972032713004+42200-001450FM-15+0295LEBR V0203101N005712200019N0112001N1+01411+00301999999ADDGF102991999999999999999999EQDQ01+000000PRSWM2
0048080870999991972032714004+42200-001450FM-15+0295LEBR V0203001N005112200019N0112001N1+01521+00241999999ADDGF102991999999999999999999EQDQ01+000000PRSWM2
0048080870999991972032805004+42200-001450FM-15+0295LEBR V0209991C00001220001CN0112001N1+00521+00081999999ADDGF100991999999999999999999EQDQ01+000000PRSWM2
0048080870999991972032806004+42200-001450FM-15+0295LEBR V0209991C00001220001CN0112001N1+00521+00241999999ADDGF100991999999999999999999EQDQ01+000000PRSWM2
0048080870999991972032808004+42200-001450FM-15+0295LEBR V0209991C00001220001CN0112001N1+00351+00241999999ADDGF100991999999999999999999EQDQ01+000000PRSWM2
0048080870999991972032810004+42200-001450FM-15+0295LEBR V0209991C00001220001CN0112001N1+01021+00351999999ADDGF100991999999999999999999EQDQ01+000000PRSWM2
0048080870999991972032811004+42200-001450FM-15+0295LEBR V0209991C00001220001CN0112001N1+01301+00191999999ADDGF100991999999999999999999EQDQ01+000000PRSWM2
0048080870999991972032813004+42200-001450FM-15+0295LEBR V0202901N00361220001CN0112001N1+02071+00691999999ADDGF100991999999999999999999EQDQ01+000000PRSWM2
0048080870999991972032814004+42200-001450FM-15+0295LEBR V0203201N00361220001CN0112001N1+02351+00851999999ADDGF100991999999999999999999EQDQ01+000000PRSWM2
0035080870999991972032905004+42200-001450FM-15+0295LEBR V0209991C000012200019N0028001N1+00581+00521999999ADDGF102991999999999999999999MW1451
0035080870999991972032906004+42200-001450FM-15+0295LEBR V0209991C000012200019N0018001N1+00631+00521999999ADDGF107991999999999999999999MW1451
0035080870999991972032907004+42200-001450FM-15+0295LEBR V0203201N001012200019N0064001N1+00691+00521999999ADDGF102991999999999999999999MW1451
0035080870999991972032908004+42200-001450FM-15+0295LEBR V0209991C000012200019N0064001N1+00521+00351999999ADDGF102991999999999999999999MW1451
0048080870999991972032910004+42200-001450FM-15+0295LEBR V0209991C000012200019N0112001N1+01131+00521999999ADDGF102991999999999999999999EQDQ01+000000PRSWM2
0048080870999991972032911004+42200-001450FM-15+0295LEBR V0209991C000012200019N0112001N1+01301+00691999999ADDGF102991999999999999999999EQDQ01+000000PRSWM2
0048080870999991972032913004+42200-001450FM-15+0295LEBR V0203201N001512200019N0112001N1+01911+00691999999ADDGF107991999999999999999999EQDQ01+000000PRSWM2
0048080870999991972032914004+42200-001450FM-15+0295LEBR V0203301N001512200019N0112001N1+02131+00741999999ADDGF107991999999999999999999EQDQ01+000000PRSWM2
0035080870999991972033008004+42200-001450FM-15+0295LEBR V0209991C000012200019N0064001N1+00961+00741999999ADDGF102991999999999999999999MW1051
0035080870999991972033009004+42200-001450FM-15+0295LEBR V0209991C000012200019N0036001N1+01071+00521999999ADDGF102991999999999999999999MW1051
0035080870999991972033010004+42200-001450FM-15+0295LEBR V0209991C000012200019N0064001N1+01241+00521999999ADDGF102991999999999999999999MW1051
0035080870999991972033011004+42200-001450FM-15+0295LEBR V0209991C000012200019N0064001N1+01301+00521999999ADDGF102991999999999999999999MW1051
0048080870999991972040305004+42200-001450FM-15+0295LEBR V0201601N00101220001CN0112001N1+01021+00801999999ADDGF100991999999999999999999EQDQ01+000000PRSWM2
0048080870999991972040306004+42200-001450FM-15+0295LEBR V0202801N00151220001CN0112001N1+01021+00851999999ADDGF100991999999999999999999EQDQ01+000000PRSWM2
0035080870999991972040308004+42200-001450FM-15+0295LEBR V0203401N00101220001CN0096001N1+00851+00631999999ADDGF100991999999999999999999MW1051
0048080870999991972040310004+42200-001450FM-15+0295LEBR V0200301N00151220001CN0112001N1+01461+00961999999ADDGF100991999999999999999999EQDQ01+000000PRSWM2
0048080870999991972040311004+42200-001450FM-15+0295LEBR V0203301N00261220001CN0112001N1+02021+01191999999ADDGF100991999999999999999999EQDQ01+000000PRSWM2
0048080870999991972040313004+42200-001450FM-15+0295LEBR V0203601N00151220001CN0112001N1+02301+01411999999ADDGF100991999999999999999999EQDQ01+000000PRSWM2
0048080870999991972040314004+42200-001450FM-15+0295LEBR V0203201N00361220001CN0112001N1+02461+01461999999ADDGF100991999999999999999999EQDQ01+000000PRSWM2
0048080870999991972040405004+42200-001450FM-15+0295LEBR V0203201N001012200019N0112001N1+00911+00691999999ADDGF102991999999999999999999EQDQ01+000000PRSWM2
0048080870999991972040406004+42200-001450FM-15+0295LEBR V0209991C000010420019N0112001N1+00961+00741999999ADDGF107991999999999999999999EQDQ01+000000PRSWM2
0048080870999991972040408004+42200-001450FM-15+0295LEBR V0200601N002112200019N0112001N1+01131+00741999999ADDGF102991999999999999999999EQDQ01+000000PRSWM2
0048080870999991972040409004+42200-001450FM-15+0295LEBR V0201301N004112200019N0112001N1+01691+00801999999ADDGF102991999999999999999999EQDQ01+000000PRSWM2
0048080870999991972040411004+42200-001450FM-15+0295LEBR V0201001N005112200019N0112001N1+02071+01021999999ADDGF102991999999999999999999EQDQ01+000000PRSWM2
0048080870999991972040413004+42200-001450FM-15+0295LEBR V0203201N001512200019N0112001N1+02571+01301999999ADDGF107991999999999999999999EQDQ01+000000PRSWM2
0048080870999991972040414004+42200-001450FM-15+0295LEBR V0202301N003110600019N0112001N1+02631+01351999999ADDGF107991999999999999999999EQDQ01+000000PRSWM2
0048080870999991972040505004+42200-001450FM-15+0295LEBR V0203401N001510300019N0112001N1+00911+00691999999ADDGF107991999999999999999999EQDQ01+000000PRSWM2
0048080870999991972040506004+42200-001450FM-15+0295LEBR V0202901N002610114019N0112001N1+00961+00741999999ADDGF108991999999999999999999EQDQ01+000000PRSWM2
0048080870999991972040508004+42200-001450FM-15+0295LEBR V0203201N004610150019N0112001N1+01021+00741999999ADDGF108991999999999999999999EQDQ01+000000PRSWM2
0048080870999991972040509004+42200-001450FM-15+0295LEBR V0203301N004610120019N0112001N1+01071+00411999999ADDGF108991999999999999999999EQDQ01+000000PRSWM2
0048080870999991972040511004+42200-001450FM-15+0295LEBR V0203301N007710600019N0112001N1+01191+00521999999ADDGF107991999999999999999999EQDQ01+000000PRSWM2
0048080870999991972040513004+42200-001450FM-15+0295LEBR V0203301N004110240019N0112001N1+01521+00521999999ADDGF108991999999999999999999EQDQ01+000000PRSWM2
0048080870999991972040514004+42200-001450FM-15+0295LEBR V0203601N005110210019N0112001N1+01631+00521999999ADDGF108991999999999999999999EQDQ01+000000PRSWM2
0048080870999991972040605004+42200-001450FM-15+0295LEBR V0202401N001512200019N0112001N1+00521+00301999999ADDGF102991999999999999999999EQDQ01+000000PRSWM2
0048080870999991972040606004+42200-001450FM-15+0295LEBR V0209991C000012200019N0112001N1+00521+00351999999ADDGF102991999999999999999999EQDQ01+000000PRSWM2
0048080870999991972040608004+42200-001450FM-15+0295LEBR V0209991C000012200019N0112001N1+00631+00241999999ADDGF107991999999999999999999EQDQ01+000000PRSWM2
0048080870999991972040609004+42200-001450FM-15+0295LEBR V0202601N003612200019N0112001N1+01191+00521999999ADDGF102991999999999999999999EQDQ01+000000PRSWM2
0048080870999991972040611004+42200-001450FM-15+0295LEBR V0203101N002110480019N0112001N1+01571+00521999999ADDGF107991999999999999999999EQDQ01+000000PRSWM2
0048080870999991972040613004+42200-001450FM-15+0295LEBR V0203501N002110480019N0112001N1+01801+00691999999ADDGF108991999999999999999999EQDQ01+000000PRSWM2
0048080870999991972040614004+42200-001450FM-15+0295LEBR V0203101N004110480019N0112001N1+02241+00961999999ADDGF107991999999999999999999EQDQ01+000000PRSWM2
0048080870999991972041007004+42200-001450FM-15+0295LEBR V0203201N008712200019N0112001N1+00581+00301999999ADDGF102991999999999999999999EQDQ01+000000PRSWM2
0048080870999991972041008004+42200-001450FM-15+0295LEBR V0203201N006212200019N0112001N1+00741+00351999999ADDGF102991999999999999999999EQDQ01+000000PRSWM2
0048080870999991972041009004+42200-001450FM-15+0295LEBR V0203201N006712200019N0112001N1+00911+00301999999ADDGF107991999999999999999999EQDQ01+000000PRSWM2
0048080870999991972041011004+42200-001450FM-15+0295LEBR V0203101N007210600019N0112001N1+01071+00411999999ADDGF107991999999999999999999EQDQ01+000000PRSWM2
0048080870999991972041013004+42200-001450FM-15+0295LEBR V0203301N006210270019N0112001N1+01071+00081999999ADDGF108991999999999999999999EQDQ01+000000PRSWM2
0048080870999991972041014004+42200-001450FM-15+0295LEBR V0203301N010810270019N0112001N1+01131+00351999999ADDGF108991999999999999999999EQDQ01+000000PRSWM2
0035080870999991972041105004+42200-001450FM-15+0295LEBR V0209991C000010033019N0096001N1+00581+00521999999ADDGF108991999999999999999999MW1511
0048080870999991972041106004+42200-001450FM-15+0295LEBR V0209991C000010096019N0112001N1+00631+00521999999ADDGF108991999999999999999999EQDQ01+000000PRSWM2
0048080870999991972041107004+42200-001450FM-15+0295LEBR V0203101N001010180019N0112001N1+00911+00801999999ADDGF107991999999999999999999EQDQ01+000000PRSWM2
0048080870999991972041109004+42200-001450FM-15+0295LEBR V0203101N002110180019N0112001N1+01301+00521999999ADDGF108991999999999999999999EQDQ01+000000PRSWM2
0048080870999991972041111004+42200-001450FM-15+0295LEBR V0203101N007210180019N0112001N1+01521+00691999999ADDGF108991999999999999999999EQDQ01+000000PRSWM2
0048080870999991972041113004+42200-001450FM-15+0295LEBR V0203401N011310180019N0112001N1+01691+00801999999ADDGF108991999999999999999999EQDQ01+000000PRSWM2
0048080870999991972041205004+42200-001450FM-15+0295LEBR V0203001N010810600019N0112001N1+00801+00581999999ADDGF107991999999999999999999EQDQ01+000000PRSWM2
0048080870999991972041206004+42200-001450FM-15+0295LEBR V0202901N009810600019N0112001N1+00851+00631999999ADDGF107991999999999999999999EQDQ01+000000PRSWM2
0035080870999991972041207004+42200-001450FM-15+0295LEBR V0209991V010810093019N0080001N1+00801+00691999999ADDGF108991999999999999999999MW1611
0048080870999991972041209004+42200-001450FM-15+0295LEBR V0203101N008210120019N0112001N1+00801+00521999999ADDGF107991999999999999999999EQDQ01+000000PRSWM2
0035080870999991972041210004+42200-001450FM-15+0295LEBR V0203101N009810105019N0112001N1+00851+00741999999ADDGF108991999999999999999999MW1611
0035080870999991972041211004+42200-001450FM-15+0295LEBR V0203301N009810069019N0064001N1+00801+00691999999ADDGF108991999999999999999999MW1801
0048080870999991972041213004+42200-001450FM-15+0295LEBR V0203301N013410120019N0112001N1+99999+99999999999ADDGF108991999999999999999999EQDQ01+000000PRSWM2
0048080870999991972041214004+42200-001450FM-15+0295LEBR V0203301N012310120019N0112001N1+99999+99999999999ADDGF108991999999999999999999EQDQ01+000000PRSWM2
0048080870999991972041305004+42200-001450FM-15+0295LEBR V0203301N006212200019N0112001N1+00691+99999999999ADDGF102991999999999999999999EQDQ01+000000PRSWM2
0048080870999991972041306004+42200-001450FM-15+0295LEBR V0203201N005712200019N0112001N1+00851+99999999999ADDGF107991999999999999999999EQDQ01+000000PRSWM2
0048080870999991972041308004+42200-001450FM-15+0295LEBR V0203301N006712200019N0112001N1+00961+99999999999ADDGF107991999999999999999999EQDQ01+000000PRSWM2
0048080870999991972041309004+42200-001450FM-15+0295LEBR V0203201N007210360019N0112001N1+01021+99999999999ADDGF107991999999999999999999EQDQ01+000000PRSWM2
0048080870999991972041311004+42200-001450FM-15+0295LEBR V0203301N005110150019N0112001N1+01071+99999999999ADDGF107991999999999999999999EQDQ01+000000PRSWM2
0048080870999991972041313004+42200-001450FM-15+0295LEBR V0203201N005710120019N0112001N1+01071+99999999999ADDGF107991999999999999999999EQDQ01+000000PRSWM2
0048080870999991972041314004+42200-001450FM-15+0295LEBR V0203501N007210120019N0112001N1+01461+99999999999ADDGF107991999999999999999999EQDQ01+000000PRSWM2
0035080870999991972041705004+42200-001450FM-15+0295LEBR V0203201N008710075019N0112001N1+99999+99999999999ADDGF107991999999999999999999MW1801
0048080870999991972041706004+42200-001450FM-15+0295LEBR V0203101N008710090019N0112001N1+99999+99999999999ADDGF107991999999999999999999EQDQ01+000000PRSWM2
0048080870999991972041707004+42200-001450FM-15+0295LEBR V0203201N008210090019N0112001N1+00801+00581999999ADDGF107991999999999999999999EQDQ01+000000PRSWM2
0048080870999991972041709004+42200-001450FM-15+0295LEBR V0203001N007710180019N0112001N1+01021+00581999999ADDGF107991999999999999999999EQDQ01+000000PRSWM2
0048080870999991972041711004+42200-001450FM-15+0295LEBR V0203501N008210210019N0112001N1+01301+00411999999ADDGF107991999999999999999999EQDQ01+000000PRSWM2
0048080870999991972041713004+42200-001450FM-15+0295LEBR V0203501N008710270019N0112001N1+01071+00521999999ADDGF107991999999999999999999EQDQ01+000000PRSWM2
0048080870999991972041714004+42200-001450FM-15+0295LEBR V0203401N008212200019N0112001N1+01131+00631999999ADDGF107991999999999999999999EQDQ01+000000PRSWM2
0048080870999991972041805004+42200-001450FM-15+0295LEBR V0203201N006212200019N0112001N1+00691+00411999999ADDGF102991999999999999999999EQDQ01+000000PRSWM2
0048080870999991972041806004+42200-001450FM-15+0295LEBR V0203201N006212200019N0112001N1+00741+00351999999ADDGF102991999999999999999999EQDQ01+000000PRSWM2
0048080870999991972041807004+42200-001450FM-15+0295LEBR V0203201N007710600019N0112001N1+00801+00521999999ADDGF107991999999999999999999EQDQ01+000000PRSWM2
0048080870999991972041809004+42200-001450FM-15+0295LEBR V0203501N008712200019N0112001N1+01071+00801999999ADDGF102991999999999999999999EQDQ01+000000PRSWM2
0048080870999991972041810004+42200-001450FM-15+0295LEBR V0203301N010312200019N0112001N1+01351+00741999999ADDGF102991999999999999999999EQDQ01+000000PRSWM2
0048080870999991972041813004+42200-001450FM-15+0295LEBR V0203401N011812200019N0112001N1+01301+00581999999ADDGF102991999999999999999999EQDQ01+000000PRSWM2
0048080870999991972041814004+42200-001450FM-15+0295LEBR V0203501N008712200019N0112001N1+01461+01021999999ADDGF102991999999999999999999EQDQ01+000000PRSWM2
0048080870999991972041905004+42200-001450FM-15+0295LEBR V0203301N008712200019N0112001N1+00801+00411999999ADDGF102991999999999999999999EQDQ01+000000PRSWM2
0048080870999991972041906004+42200-001450FM-15+0295LEBR V0203301N007712200019N0112001N1+00851+00461999999ADDGF102991999999999999999999EQDQ01+000000PRSWM2
0048080870999991972041908004+42200-001450FM-15+0295LEBR V0203201N009310240019N0112001N1+01021+00851999999ADDGF108991999999999999999999EQDQ01+000000PRSWM2
0035080870999991972041909004+42200-001450FM-15+0295LEBR V0203201N007210090019N0080001N1+01191+00911999999ADDGF108991999999999999999999MW1611
0035080870999991972041910004+42200-001450FM-15+0295LEBR V0203201N005710075019N0048001N1+01241+00961999999ADDGF108991999999999999999999MW1611
0035080870999991972041911004+42200-001450FM-15+0295LEBR V0203201N005110120019N0080001N1+01411+01021999999ADDGF107991999999999999999999MW1051
0048080870999991972041913004+42200-001450FM-15+0295LEBR V0203501N006210105019N0112001N1+01301+01021999999ADDGF108991999999999999999999EQDQ01+000000PRSWM2
0048080870999991972041914004+42200-001450FM-15+0295LEBR V0203401N006210270019N0112001N1+01461+00961999999ADDGF107991999999999999999999EQDQ01+000000PRSWM2
0048080870999991972042006004+42200-001450FM-15+0295LEBR V0203301N007212200019N0112001N1+00461+00241999999ADDGF102991999999999999999999EQDQ01+000000PRSWM2
0048080870999991972042007004+42200-001450FM-15+0295LEBR V0203201N007712200019N0112001N1+00301+00021999999ADDGF102991999999999999999999EQDQ01+000000PRSWM2
0048080870999991972042010004+42200-001450FM-15+0295LEBR V0203501N008712200019N0112001N1+00961+00241999999ADDGF102991999999999999999999EQDQ01+000000PRSWM2
0048080870999991972042011004+42200-001450FM-15+0295LEBR V0203401N010312200019N0112001N1+01071+00411999999ADDGF102991999999999999999999EQDQ01+000000PRSWM2
0048080870999991972042013004+42200-001450FM-15+0295LEBR V0203301N007712200019N0112001N1+01191+00581999999ADDGF102991999999999999999999EQDQ01+000000PRSWM2
0048080870999991972042014004+42200-001450FM-15+0295LEBR V0203401N008212200019N0112001N1+01351+00631999999ADDGF102991999999999999999999EQDQ01+000000PRSWM2
0048080870999991972042405004+42200-001450FM-15+0295LEBR V0203201N003610150019N0112001N1+00911+00581999999ADDGF108991999999999999999999EQDQ01+000000PRSWM2
0048080870999991972042406004+42200-001450FM-15+0295LEBR V0203101N002610096019N0112001N1+00961+00631999999ADDGF108991999999999999999999EQDQ01+000000PRSWM2
0035080870999991972042407004+42200-001450FM-15+0295LEBR V0203101N004610075019N0096001N1+00911+00581999999ADDGF108991999999999999999999MW1051
0035080870999991972042408004+42200-001450FM-15+0295LEBR V0203301N004110150019N0096001N1+01021+00631999999ADDGF107991999999999999999999MW1051
0035080870999991972042409004+42200-001450FM-15+0295LEBR V0203101N006212200019N0096001N1+01071+00581999999ADDGF102991999999999999999999MW1051
0035080870999991972042411004+42200-001450FM-15+0295LEBR V0203101N005712200019N0096001N1+01571+01021999999ADDGF102991999999999999999999MW1051
0048080870999991972042413004+42200-001450FM-15+0295LEBR V0203201N006712200019N0112001N1+01801+01301999999ADDGF102991999999999999999999EQDQ01+000000PRSWM2
0048080870999991972042414004+42200-001450FM-15+0295LEBR V0203301N006212200019N0112001N1+01851+01351999999ADDGF102991999999999999999999EQDQ01+000000PRSWM2
0048080870999991972042505004+42200-001450FM-15+0295LEBR V0203301N008712200019N0112001N1+01021+00801999999ADDGF102991999999999999999999EQDQ01+000000PRSWM2
0048080870999991972042506004+42200-001450FM-15+0295LEBR V0203301N006212200019N0112001N1+00961+00741999999ADDGF102991999999999999999999EQDQ01+000000PRSWM2
0048080870999991972042508004+42200-001450FM-15+0295LEBR V0203201N00721220001CN0112001N1+01131+00961999999ADDGF100991999999999999999999EQDQ01+000000PRSWM2
0048080870999991972042510004+42200-001450FM-15+0295LEBR V0203301N007212200019N0112001N1+01461+01021999999ADDGF102991999999999999999999EQDQ01+000000PRSWM2
0048080870999991972042511004+42200-001450FM-15+0295LEBR V0203501N008712200019N0112001N1+01691+01071999999ADDGF102991999999999999999999EQDQ01+000000PRSWM2
0048080870999991972042513004+42200-001450FM-15+0295LEBR V0203501N009312200019N0112001N1+01801+01071999999ADDGF102991999999999999999999EQDQ01+000000PRSWM2
0048080870999991972042514004+42200-001450FM-15+0295LEBR V0203401N011310150019N0112001N1+01631+01241999999ADDGF107991999999999999999999EQDQ01+000000PRSWM2
0048080870999991972042605004+42200-001450FM-15+0295LEBR V0203401N005712200019N0112001N1+00521-00201999999ADDGF102991999999999999999999EQDQ01+000000PRSWM2
0048080870999991972042606004+42200-001450FM-15+0295LEBR V0203401N006210300019N0112001N1+00521-00151999999ADDGF107991999999999999999999EQDQ01+000000PRSWM2
0048080870999991972042608004+42200-001450FM-15+0295LEBR V0203301N006210240019N0112001N1+00521-00151999999ADDGF108991999999999999999999EQDQ01+000000PRSWM2
0048080870999991972042609004+42200-001450FM-15+0295LEBR V0203301N003110210019N0112001N1+00581+00081999999ADDGF108991999999999999999999EQDQ01+000000PRSWM2
0048080870999991972042611004+42200-001450FM-15+0295LEBR V0203401N003612200019N0112001N1+00801+00191999999ADDGF102991999999999999999999EQDQ01+000000PRSWM2
0048080870999991972042613004+42200-001450FM-15+0295LEBR V0203201N007212200019N0112001N1+01191+00301999999ADDGF102991999999999999999999EQDQ01+000000PRSWM2
0048080870999991972042614004+42200-001450FM-15+0295LEBR V0203401N003110240019N0112001N1+01241+00461999999ADDGF107991999999999999999999EQDQ01+000000PRSWM2
0048080870999991972042705004+42200-001450FM-15+0295LEBR V0203101N004612200019N0112001N1+00521+00081999999ADDGF102991999999999999999999EQDQ01+000000PRSWM2
0048080870999991972042706004+42200-001450FM-15+0295LEBR V0203201N006712200019N0112001N1+00461+00021999999ADDGF102991999999999999999999EQDQ01+000000PRSWM2
0048080870999991972042708004+42200-001450FM-15+0295LEBR V0203201N012910096019N0112001N1+00521+00241999999ADDGF107991999999999999999999EQDQ01+000000PRSWM2
0048080870999991972042709004+42200-001450FM-15+0295LEBR V0203001N009310105019N0112001N1+00691+00411999999ADDGF107991999999999999999999EQDQ01+000000PRSWM2
0048080870999991972042711004+42200-001450FM-15+0295LEBR V0203101N010310105019N0112001N1+00911+00521999999ADDGF108991999999999999999999EQDQ01+000000PRSWM2
0048080870999991972042713004+42200-001450FM-15+0295LEBR V0203001N008210096019N0112001N1+00911+00521999999ADDGF107991999999999999999999EQDQ01+000000PRSWM2
0048080870999991972042714004+42200-001450FM-15+0295LEBR V0203001N008710120019N0112001N1+01241+00961999999ADDGF107991999999999999999999EQDQ01+000000PRSWM2
0035080870999991972050205004+42200-001450FM-15+0295LEBR V0203601N005710075019N0096001N1+00911+00801999999ADDGF108991999999999999999999MW1611
0035080870999991972050206004+42200-001450FM-15+0295LEBR V0200101N007210081019N0096001N1+00961+00851999999ADDGF108991999999999999999999MW1611
0035080870999991972050207004+42200-001450FM-15+0295LEBR V0203301N003610081019N0096001N1+00911+00801999999ADDGF108991999999999999999999MW1611
0035080870999991972050209004+42200-001450FM-15+0295LEBR V0203301N005110069019N0112001N1+01021+00801999999ADDGF108991999999999999999999MW1611
0035080870999991972050210004+42200-001450FM-15+0295LEBR V0203201N005110060019N0096001N1+01131+00961999999ADDGF108991999999999999999999MW1611
0035080870999991972050213004+42200-001450FM-15+0295LEBR V0203401N004610069019N0096001N1+01301+01021999999ADDGF108991999999999999999999MW1611
0035080870999991972050214004+42200-001450FM-15+0295LEBR V0203301N005710066019N0096001N1+01461+01131999999ADDGF108991999999999999999999MW1611
0048080870999991972050305004+42200-001450FM-15+0295LEBR V0203101N005110300019N0112001N1+00911+00521999999ADDGF108991999999999999999999EQDQ01+000000PRSWM2
0048080870999991972050306004+42200-001450FM-15+0295LEBR V0209991C000010600019N0112001N1+00961+00521999999ADDGF108991999999999999999999EQDQ01+000000PRSWM2
0048080870999991972050308004+42200-001450FM-15+0295LEBR V0203101N003612200019N0112001N1+01131+00631999999ADDGF107991999999999999999999EQDQ01+000000PRSWM2
0048080870999991972050309004+42200-001450FM-15+0295LEBR V0203201N004112200019N0112001N1+01691+00691999999ADDGF107991999999999999999999EQDQ01+000000PRSWM2
0048080870999991972050311004+42200-001450FM-15+0295LEBR V0200101N010812200019N0112001N1+01801+00691999999ADDGF107991999999999999999999EQDQ01+000000PRSWM2
0048080870999991972050313004+42200-001450FM-15+0295LEBR V0203401N013912200019N0112001N1+02301+00911999999ADDGF107991999999999999999999EQDQ01+000000PRSWM2
0048080870999991972050314004+42200-001450FM-15+0295LEBR V0203301N010812200019N0112001N1+02351+00961999999ADDGF107991999999999999999999EQDQ01+000000PRSWM2
0048080870999991972050405004+42200-001450FM-15+0295LEBR V0203301N007210090019N0112001N1+01071+00801999999ADDGF108991999999999999999999EQDQ01+000000PRSWM2
0048080870999991972050406004+42200-001450FM-15+0295LEBR V0203101N005110090019N0112001N1+01131+00851999999ADDGF108991999999999999999999EQDQ01+000000PRSWM2
0035080870999991972050407004+42200-001450FM-15+0295LEBR V0203001N004610210019N0096001N1+01021+00801999999ADDGF108991999999999999999999MW1051
0035080870999991972050408004+42200-001450FM-15+0295LEBR V0203301N007210090019N0096001N1+01021+00851999999ADDGF108991999999999999999999MW1051
0048080870999991972050409004+42200-001450FM-15+0295LEBR V0203501N006710090019N0112001N1+01411+00911999999ADDGF108991999999999999999999EQDQ01+000000PRSWM2
0048080870999991972050410004+42200-001450FM-15+0295LEBR V0203401N006210090019N0112001N1+01521+01021999999ADDGF108991999999999999999999EQDQ01+000000PRSWM2
0048080870999991972050411004+42200-001450FM-15+0295LEBR V0203401N010810090019N0112001N1+01521+00911999999ADDGF108991999999999999999999EQDQ01+000000PRSWM2
0048080870999991972050413004+42200-001450FM-15+0295LEBR V0203401N009310600019N0112001N1+01691+00911999999ADDGF107991999999999999999999EQDQ01+000000PRSWM2
0048080870999991972050414004+42200-001450FM-15+0295LEBR V0203501N010810135019N0112001N1+01851+01021999999ADDGF107991999999999999999999EQDQ01+000000PRSWM2
0048080870999991972050415004+42200-001450FM-15+0295LEBR V0203301N010810135019N0112001N1+01801+01021999999ADDGF107991999999999999999999EQDQ01+000000PRSWM2
0048080870999991972050805004+42200-001450FM-15+0295LEBR V0201301N003612200019N0112001N1+01071+00911999999ADDGF102991999999999999999999EQDQ01+000000PRSWM2
0048080870999991972050806004+42200-001450FM-15+0295LEBR V0201101N002112200019N0112001N1+01131+00961999999ADDGF102991999999999999999999EQDQ01+000000PRSWM2
0048080870999991972050807004+42200-001450FM-15+0295LEBR V0209991C000012200019N0112001N1+01021+00911999999ADDGF102991999999999999999999EQDQ01+000000PRSWM2
0048080870999991972050808004+42200-001450FM-15+0295LEBR V0201401N00511220001CN0112001N1+01241+00851999999ADDGF100991999999999999999999EQDQ01+000000PRSWM2
0048080870999991972050809004+42200-001450FM-15+0295LEBR V0201101N00511220001CN0112001N1+01521+01191999999ADDGF100991999999999999999999EQDQ01+000000PRSWM2
0048080870999991972050810004+42200-001450FM-15+0295LEBR V0200901N005112200019N0112001N1+01851+01351999999ADDGF102991999999999999999999EQDQ01+000000PRSWM2
0048080870999991972050811004+42200-001450FM-15+0295LEBR V0201101N006212200019N0112001N1+02021+01411999999ADDGF102991999999999999999999EQDQ01+000000PRSWM2
0048080870999991972050813004+42200-001450FM-15+0295LEBR V0201201N004112200019N0112001N1+02411+01571999999ADDGF102991999999999999999999EQDQ01+000000PRSWM2
0048080870999991972050814004+42200-001450FM-15+0295LEBR V0201601N004110600019N0112001N1+02461+01521999999ADDGF107991999999999999999999EQDQ01+000000PRSWM2
0035080870999991972050815004+42200-001450FM-15+0295LEBR V0201801N002610150019N0112001N1+02301+01801999999ADDGF107991999999999999999999MW1611
0048080870999991972050905004+42200-001450FM-15+0295LEBR V0209991C000012200019N0112001N1+01071+01021999999ADDGF102991999999999999999999EQDQ01+000000PRSWM2
0048080870999991972050906004+42200-001450FM-15+0295LEBR V0209991C000012200019N0112001N1+01021+00961999999ADDGF102991999999999999999999EQDQ01+000000PRSWM2
0048080870999991972050907004+42200-001450FM-15+0295LEBR V0209991C000012200019N0112001N1+01021+00801999999ADDGF102991999999999999999999EQDQ01+000000PRSWM2
0048080870999991972050908004+42200-001450FM-15+0295LEBR V0209991C000012200019N0112001N1+01241+00961999999ADDGF102991999999999999999999EQDQ01+000000PRSWM2
0048080870999991972050909004+42200-001450FM-15+0295LEBR V0203401N001510240019N0112001N1+01801+01021999999ADDGF107991999999999999999999EQDQ01+000000PRSWM2
0048080870999991972050910004+42200-001450FM-15+0295LEBR V0203401N003612200019N0112001N1+02021+01131999999ADDGF102991999999999999999999EQDQ01+000000PRSWM2
0048080870999991972050911004+42200-001450FM-15+0295LEBR V0203401N002112200019N0112001N1+99999+99999999999ADDGF102991999999999999999999EQDQ01+000000PRSWM2
0048080870999991972050913004+42200-001450FM-15+0295LEBR V0203201N005112200019N0112001N1+99999+99999999999ADDGF102991999999999999999999EQDQ01+000000PRSWM2
0048080870999991972050914004+42200-001450FM-15+0295LEBR V0203501N002612200019N0112001N1+02631+99999999999ADDGF102991999999999999999999EQDQ01+000000PRSWM2
0048080870999991972050915004+42200-001450FM-15+0295LEBR V0203601N003112200019N0112001N1+02911+99999999999ADDGF102991999999999999999999EQDQ01+000000PRSWM2
0048080870999991972051005004+42200-001450FM-15+0295LEBR V0202701N00101220001CN0112001N1+01191+99999999999ADDGF100991999999999999999999EQDQ01+000000PRSWM2
0048080870999991972051006004+42200-001450FM-15+0295LEBR V0202601N00151220001CN0112001N1+00961+99999999999ADDGF100991999999999999999999EQDQ01+000000PRSWM2
0048080870999991972051007004+42200-001450FM-15+0295LEBR V0202601N00101220001CN0112001N1+01071+99999999999ADDGF100991999999999999999999EQDQ01+000000PRSWM2
0048080870999991972051008004+42200-001450FM-15+0295LEBR V0203101N00261220001CN0112001N1+01241+99999999999ADDGF100991999999999999999999EQDQ01+000000PRSWM2
0048080870999991972051009004+42200-001450FM-15+0295LEBR V0203501N003112200019N0112001N1+01571+99999999999ADDGF102991999999999999999999EQDQ01+000000PRSWM2
0048080870999991972051010004+42200-001450FM-15+0295LEBR V0203501N005112200019N0112001N1+02021+99999999999ADDGF102991999999999999999999EQDQ01+000000PRSWM2
0048080870999991972051011004+42200-001450FM-15+0295LEBR V0203301N005112200019N0112001N1+02181+99999999999ADDGF102991999999999999999999EQDQ01+000000PRSWM2
0048080870999991972051013004+42200-001450FM-15+0295LEBR V0203301N004112200019N0112001N1+02681+99999999999ADDGF102991999999999999999999EQDQ01+000000PRSWM2
0048080870999991972051014004+42200-001450FM-15+0295LEBR V0203501N006712200019N0112001N1+02851+99999999999ADDGF102991999999999999999999EQDQ01+000000PRSWM2
0048080870999991972051015004+42200-001450FM-15+0295LEBR V0203501N006712200019N0112001N1+02911+99999999999ADDGF102991999999999999999999EQDQ01+000000PRSWM2
0048080870999991972051505004+42200-001450FM-15+0295LEBR V0203101N008210240019N0112001N1+00801+00411999999ADDGF107991999999999999999999EQDQ01+000000PRSWM2
0048080870999991972051506004+42200-001450FM-15+0295LEBR V0203101N007710270019N0112001N1+00851+00461999999ADDGF107991999999999999999999EQDQ01+000000PRSWM2
0048080870999991972051507004+42200-001450FM-15+0295LEBR V0203101N006210240019N0112001N1+00801+00301999999ADDGF107991999999999999999999EQDQ01+000000PRSWM2
0048080870999991972051508004+42200-001450FM-15+0295LEBR V0203101N007212200019N0112001N1+01021+00461999999ADDGF102991999999999999999999EQDQ01+000000PRSWM2
0048080870999991972051509004+42200-001450FM-15+0295LEBR V0203101N007210210019N0112001N1+01021+00411999999ADDGF107991999999999999999999EQDQ01+000000PRSWM2
0048080870999991972051510004+42200-001450FM-15+0295LEBR V0203101N007710210019N0112001N1+01351+00521999999ADDGF107991999999999999999999EQDQ01+000000PRSWM2
0048080870999991972051511004+42200-001450FM-15+0295LEBR V0203201N007710105019N0112001N1+01301+00521999999ADDGF107991999999999999999999EQDQ01+000000PRSWM2
0048080870999991972051512004+42200-001450FM-15+0295LEBR V0203301N007710210019N0112001N1+01521+00631999999ADDGF108991999999999999999999EQDQ01+000000PRSWM2
0048080870999991972051513004+42200-001450FM-15+0295LEBR V0203201N008710150019N0112001N1+01521+00581999999ADDGF107991999999999999999999EQDQ01+000000PRSWM2
0048080870999991972051514004+42200-001450FM-15+0295LEBR V0203301N008710300019N0112001N1+01461+00631999999ADDGF107991999999999999999999EQDQ01+000000PRSWM2
0048080870999991972051515004+42200-001450FM-15+0295LEBR V0203301N008710300019N0112001N1+01411+00581999999ADDGF107991999999999999999999EQDQ01+000000PRSWM2
0048080870999991972051605004+42200-001450FM-15+0295LEBR V0203101N005710270019N0112001N1+00691+00301999999ADDGF107991999999999999999999EQDQ01+000000PRSWM2
0048080870999991972051606004+42200-001450FM-15+0295LEBR V0203001N005110270019N0112001N1+00741+00351999999ADDGF107991999999999999999999EQDQ01+000000PRSWM2
0048080870999991972051607004+42200-001450FM-15+0295LEBR V0203101N004610270019N0112001N1+00691+00301999999ADDGF107991999999999999999999EQDQ01+000000PRSWM2
0048080870999991972051608004+42200-001450FM-15+0295LEBR V0203101N006212200019N0112001N1+00851+00351999999ADDGF102991999999999999999999EQDQ01+000000PRSWM2
0048080870999991972051609004+42200-001450FM-15+0295LEBR V0203301N006712200019N0112001N1+00911+00411999999ADDGF102991999999999999999999EQDQ01+000000PRSWM2
0048080870999991972051610004+42200-001450FM-15+0295LEBR V0203201N007212200019N0112001N1+01241+00461999999ADDGF102991999999999999999999EQDQ01+000000PRSWM2
0048080870999991972051611004+42200-001450FM-15+0295LEBR V0203301N009312200019N0112001N1+01301+00301999999ADDGF102991999999999999999999EQDQ01+000000PRSWM2
0048080870999991972051612004+42200-001450FM-15+0295LEBR V0203201N007712200019N0112001N1+01461+00351999999ADDGF102991999999999999999999EQDQ01+000000PRSWM2
0048080870999991972051613004+42200-001450FM-15+0295LEBR V0203301N007212200019N0112001N1+01521+00301999999ADDGF102991999999999999999999EQDQ01+000000PRSWM2
0048080870999991972051614004+42200-001450FM-15+0295LEBR V0203101N008712200019N0112001N1+01631+00461999999ADDGF102991999999999999999999EQDQ01+000000PRSWM2
0048080870999991972051615004+42200-001450FM-15+0295LEBR V0203101N008712200019N0112001N1+01571+00411999999ADDGF102991999999999999999999EQDQ01+000000PRSWM2
0048080870999991972051705004+42200-001450FM-15+0295LEBR V0203101N005712200019N0112001N1+00411+00081999999ADDGF102991999999999999999999EQDQ01+000000PRSWM2
0048080870999991972051706004+42200-001450FM-15+0295LEBR V0203201N004112200019N0112001N1+00461+00131999999ADDGF102991999999999999999999EQDQ01+000000PRSWM2
0048080870999991972051707004+42200-001450FM-15+0295LEBR V0203101N005112200019N0112001N1+00521+00081999999ADDGF102991999999999999999999EQDQ01+000000PRSWM2
0048080870999991972051708004+42200-001450FM-15+0295LEBR V0203101N004612200019N0112001N1+00961+00351999999ADDGF102991999999999999999999EQDQ01+000000PRSWM2
0048080870999991972051709004+42200-001450FM-15+0295LEBR V0203201N005712200019N0112001N1+01021+00301999999ADDGF102991999999999999999999EQDQ01+000000PRSWM2
0048080870999991972051710004+42200-001450FM-15+0295LEBR V0203201N005112200019N0112001N1+01351+00351999999ADDGF102991999999999999999999EQDQ01+000000PRSWM2
0048080870999991972051711004+42200-001450FM-15+0295LEBR V0203301N002612200019N0112001N1+01411+00301999999ADDGF102991999999999999999999EQDQ01+000000PRSWM2
0048080870999991972051712004+42200-001450FM-15+0295LEBR V0202901N004112200019N0112001N1+01631+00461999999ADDGF102991999999999999999999EQDQ01+000000PRSWM2
0048080870999991972051713004+42200-001450FM-15+0295LEBR V0203301N003610120019N0112001N1+01571+00411999999ADDGF107991999999999999999999EQDQ01+000000PRSWM2
0048080870999991972051714004+42200-001450FM-15+0295LEBR V0203101N001510120019N0112001N1+01631+00461999999ADDGF107991999999999999999999EQDQ01+000000PRSWM2
0048080870999991972051715004+42200-001450FM-15+0295LEBR V0203401N005112200019N0112001N1+01571+00411999999ADDGF102991999999999999999999EQDQ01+000000PRSWM2
0048080870999991972051805004+42200-001450FM-15+0295LEBR V0203001N003112200019N0112001N1+00521+00191999999ADDGF102991999999999999999999EQDQ01+000000PRSWM2
0048080870999991972051806004+42200-001450FM-15+0295LEBR V0203101N003112200019N0112001N1+00521+00241999999ADDGF107991999999999999999999EQDQ01+000000PRSWM2
0048080870999991972051807004+42200-001450FM-15+0295LEBR V0203101N002112200019N0112001N1+00581+00301999999ADDGF107991999999999999999999EQDQ01+000000PRSWM2
0048080870999991972051808004+42200-001450FM-15+0295LEBR V0209991C000010600019N0112001N1+00851+00241999999ADDGF108991999999999999999999EQDQ01+000000PRSWM2
0048080870999991972051809004+42200-001450FM-15+0295LEBR V0202601N002112200019N0112001N1+01191+00411999999ADDGF102991999999999999999999EQDQ01+000000PRSWM2
0048080870999991972051810004+42200-001450FM-15+0295LEBR V0202601N003112200019N0112001N1+01461+00461999999ADDGF102991999999999999999999EQDQ01+000000PRSWM2
0048080870999991972051811004+42200-001450FM-15+0295LEBR V0203201N003612200019N0112001N1+01521+00411999999ADDGF102991999999999999999999EQDQ01+000000PRSWM2
0048080870999991972051813004+42200-001450FM-15+0295LEBR V0203101N004612200019N0112001N1+01801+00411999999ADDGF102991999999999999999999EQDQ01+000000PRSWM2
0048080870999991972051814004+42200-001450FM-15+0295LEBR V0203501N001512200019N0112001N1+01961+00461999999ADDGF102991999999999999999999EQDQ01+000000PRSWM2
0048080870999991972051815004+42200-001450FM-15+0295LEBR V0203301N003612200019N0112001N1+01911+00411999999ADDGF102991999999999999999999EQDQ01+000000PRSWM2
0048080870999991972052205004+42200-001450FM-15+0295LEBR V0203401N005112200019N0112001N1+01191+00581999999ADDGF107991999999999999999999EQDQ01+000000PRSWM2
0048080870999991972052206004+42200-001450FM-15+0295LEBR V0201501N004112200019N0112001N1+01241+00631999999ADDGF107991999999999999999999EQDQ01+000000PRSWM2
0048080870999991972052207004+42200-001450FM-15+0295LEBR V0201501N004110600019N0112001N1+01301+00581999999ADDGF107991999999999999999999EQDQ01+000000PRSWM2
0048080870999991972052208004+42200-001450FM-15+0295LEBR V0201401N003110240019N0112001N1+01461+00741999999ADDGF108991999999999999999999EQDQ01+000000PRSWM2
0048080870999991972052209004+42200-001450FM-15+0295LEBR V0201201N006710270019N0112001N1+01411+00691999999ADDGF107991999999999999999999EQDQ01+000000PRSWM2
0048080870999991972052210004+42200-001450FM-15+0295LEBR V0201101N007210270019N0112001N1+01631+00851999999ADDGF107991999999999999999999EQDQ01+000000PRSWM2
0048080870999991972052211004+42200-001450FM-15+0295LEBR V0201301N007210270019N0112001N1+01801+00801999999ADDGF107991999999999999999999EQDQ01+000000PRSWM2
0048080870999991972052212004+42200-001450FM-15+0295LEBR V0201201N004610360019N0112001N1+02021+01021999999ADDGF108991999999999999999999EQDQ01+000000PRSWM2
0048080870999991972052213004+42200-001450FM-15+0295LEBR V0201801N003610360019N0112001N1+02021+01021999999ADDGF108991999999999999999999EQDQ01+000000PRSWM2
0048080870999991972052214004+42200-001450FM-15+0295LEBR V0209991C000010120019N0112001N1+01961+00961999999ADDGF108991999999999999999999EQDQ01+000000PRSWM2
0035080870999991972052215004+42200-001450FM-15+0295LEBR V0201101N007710105019N0112001N1+01801+00911999999ADDGF108991999999999999999999MW1611
0048080870999991972052305004+42200-001450FM-15+0295LEBR V0203401N002612200019N0112001N1+01021+00911999999ADDGF102991999999999999999999EQDQ01+000000PRSWM2
0048080870999991972052306004+42200-001450FM-15+0295LEBR V0203301N002610360019N0112001N1+01021+00851999999ADDGF107991999999999999999999EQDQ01+000000PRSWM2
0048080870999991972052307004+42200-001450FM-15+0295LEBR V0203301N002110360019N0112001N1+01021+00691999999ADDGF107991999999999999999999EQDQ01+000000PRSWM2
0048080870999991972052308004+42200-001450FM-15+0295LEBR V0203201N002610360019N0112001N1+01131+00741999999ADDGF107991999999999999999999EQDQ01+000000PRSWM2
0048080870999991972052309004+42200-001450FM-15+0295LEBR V0203301N003612200019N0112001N1+01411+00581999999ADDGF107991999999999999999999EQDQ01+000000PRSWM2
0048080870999991972052310004+42200-001450FM-15+0295LEBR V0203201N004612200019N0112001N1+01851+00461999999ADDGF107991999999999999999999EQDQ01+000000PRSWM2
0048080870999991972052311004+42200-001450FM-15+0295LEBR V0203101N002612200019N0112001N1+02021+00411999999ADDGF107991999999999999999999EQDQ01+000000PRSWM2
0048080870999991972052312004+42200-001450FM-15+0295LEBR V0203201N002612200019N0112001N1+02131+00461999999ADDGF107991999999999999999999EQDQ01+000000PRSWM2
0048080870999991972052313004+42200-001450FM-15+0295LEBR V0203301N004612200019N0112001N1+02071+00411999999ADDGF107991999999999999999999EQDQ01+000000PRSWM2
0048080870999991972052314004+42200-001450FM-15+0295LEBR V0203301N005112200019N0112001N1+02241+00461999999ADDGF107991999999999999999999EQDQ01+000000PRSWM2
0048080870999991972052315004+42200-001450FM-15+0295LEBR V0203201N004112200019N0112001N1+02411+00521999999ADDGF102991999999999999999999EQDQ01+000000PRSWM2
0048080870999991972052405004+42200-001450FM-15+0295LEBR V0209991C000012200019N0112001N1+00911+00691999999ADDGF102991999999999999999999EQDQ01+000000PRSWM2
0048080870999991972052406004+42200-001450FM-15+0295LEBR V0209991C000012200019N0112001N1+00961+00741999999ADDGF107991999999999999999999EQDQ01+000000PRSWM2
0048080870999991972052407004+42200-001450FM-15+0295LEBR V0209991C000012200019N0112001N1+01071+00691999999ADDGF107991999999999999999999EQDQ01+000000PRSWM2
0048080870999991972052408004+42200-001450FM-15+0295LEBR V0209991C000012200019N0112001N1+01521+00741999999ADDGF107991999999999999999999EQDQ01+000000PRSWM2
0048080870999991972052409004+42200-001450FM-15+0295LEBR V0209991C000010600019N0112001N1+01801+00581999999ADDGF108991999999999999999999EQDQ01+000000PRSWM2
0048080870999991972052410004+42200-001450FM-15+0295LEBR V0209991C000010600019N0112001N1+02021+00741999999ADDGF108991999999999999999999EQDQ01+000000PRSWM2
0048080870999991972052411004+42200-001450FM-15+0295LEBR V0209991C000012200019N0112001N1+02181+00581999999ADDGF107991999999999999999999EQDQ01+000000PRSWM2
0048080870999991972052413004+42200-001450FM-15+0295LEBR V0209991C000010600019N0112001N1+02411+00191999999ADDGF108991999999999999999999EQDQ01+000000PRSWM2
0048080870999991972052414004+42200-001450FM-15+0295LEBR V0200101N001510600019N0112001N1+02631+00351999999ADDGF108991999999999999999999EQDQ01+000000PRSWM2
0048080870999991972052415004+42200-001450FM-15+0295LEBR V0200801N003110600019N0112001N1+02571+00301999999ADDGF108991999999999999999999EQDQ01+000000PRSWM2
0048080870999991972052505004+42200-001450FM-15+0295LEBR V0203001N001512200019N0112001N1+01411+01021999999ADDGF102991999999999999999999EQDQ01+000000PRSWM2
0048080870999991972052506004+42200-001450FM-15+0295LEBR V0209991C000012200019N0112001N1+01521+00961999999ADDGF107991999999999999999999EQDQ01+000000PRSWM2
0048080870999991972052507004+42200-001450FM-15+0295LEBR V0209991C000012200019N0112001N1+01571+00911999999ADDGF107991999999999999999999EQDQ01+000000PRSWM2
0048080870999991972052508004+42200-001450FM-15+0295LEBR V0203301N005712200019N0112001N1+01851+00851999999ADDGF107991999999999999999999EQDQ01+000000PRSWM2
0048080870999991972052509004+42200-001450FM-15+0295LEBR V0203201N005712200019N0112001N1+02181+00801999999ADDGF102991999999999999999999EQDQ01+000000PRSWM2
0048080870999991972052510004+42200-001450FM-15+0295LEBR V0203301N004612200019N0112001N1+02351+00851999999ADDGF102991999999999999999999EQDQ01+000000PRSWM2
0048080870999991972052511004+42200-001450FM-15+0295LEBR V0209991C000012200019N0112001N1+02571+00801999999ADDGF102991999999999999999999EQDQ01+000000PRSWM2
0048080870999991972052513004+42200-001450FM-15+0295LEBR V0209991C000012200019N0112001N1+03071+00801999999ADDGF102991999999999999999999EQDQ01+000000PRSWM2
0048080870999991972052514004+42200-001450FM-15+0295LEBR V0209991C000012200019N0112001N1+03131+00851999999ADDGF102991999999999999999999EQDQ01+000000PRSWM2
0048080870999991972052515004+42200-001450FM-15+0295LEBR V0209991C000012200019N0112001N1+03181+00801999999ADDGF102991999999999999999999EQDQ01+000000PRSWM2
0048080870999991972053005004+42200-001450FM-15+0295LEBR V0203201N005112200019N0112001N1+01301+00691999999ADDGF102991999999999999999999EQDQ01+000000PRSWM2
0048080870999991972053006004+42200-001450FM-15+0295LEBR V0203101N005112200019N0112001N1+01241+00741999999ADDGF102991999999999999999999EQDQ01+000000PRSWM2
0048080870999991972053007004+42200-001450FM-15+0295LEBR V0202901N005112200019N0112001N1+01411+00801999999ADDGF102991999999999999999999EQDQ01+000000PRSWM2
0048080870999991972053008004+42200-001450FM-15+0295LEBR V0203101N007712200019N0112001N1+01631+00741999999ADDGF102991999999999999999999EQDQ01+000000PRSWM2
0048080870999991972053009004+42200-001450FM-15+0295LEBR V0203101N007712200019N0112001N1+01801+00801999999ADDGF102991999999999999999999EQDQ01+000000PRSWM2
0048080870999991972053010004+42200-001450FM-15+0295LEBR V0203001N005710240019N0112001N1+01961+00851999999ADDGF107991999999999999999999EQDQ01+000000PRSWM2
0048080870999991972053011004+42200-001450FM-15+0295LEBR V0203101N005710330019N0112001N1+01911+00911999999ADDGF107991999999999999999999EQDQ01+000000PRSWM2
0048080870999991972053013004+42200-001450FM-15+0295LEBR V0203101N006212200019N0112001N1+02301+00801999999ADDGF102991999999999999999999EQDQ01+000000PRSWM2
0048080870999991972053014004+42200-001450FM-15+0295LEBR V0203001N005112200019N0112001N1+02521+00961999999ADDGF102991999999999999999999EQDQ01+000000PRSWM2
0048080870999991972053015004+42200-001450FM-15+0295LEBR V0203101N005112200019N0112001N1+02681+01191999999ADDGF102991999999999999999999EQDQ01+000000PRSWM2
0048080870999991972053105004+42200-001450FM-15+0295LEBR V0203001N005112200019N0112001N1+01191+00691999999ADDGF102991999999999999999999EQDQ01+000000PRSWM2
0048080870999991972053106004+42200-001450FM-15+0295LEBR V0203201N003610600019N0112001N1+01241+00631999999ADDGF107991999999999999999999EQDQ01+000000PRSWM2
0048080870999991972053107004+42200-001450FM-15+0295LEBR V0203201N007212200019N0112001N1+01301+00581999999ADDGF102991999999999999999999EQDQ01+000000PRSWM2
0048080870999991972053108004+42200-001450FM-15+0295LEBR V0203101N004112200019N0112001N1+01521+00741999999ADDGF102991999999999999999999EQDQ01+000000PRSWM2
0048080870999991972053109004+42200-001450FM-15+0295LEBR V0203101N008212200019N0112001N1+01801+00801999999ADDGF102991999999999999999999EQDQ01+000000PRSWM2
0048080870999991972053110004+42200-001450FM-15+0295LEBR V0203201N006712200019N0112001N1+02021+00851999999ADDGF102991999999999999999999EQDQ01+000000PRSWM2
0048080870999991972053111004+42200-001450FM-15+0295LEBR V0203201N007212200019N0112001N1+02181+00801999999ADDGF102991999999999999999999EQDQ01+000000PRSWM2
0048080870999991972053113004+42200-001450FM-15+0295LEBR V0203301N007712200019N0112001N1+02301+01021999999ADDGF102991999999999999999999EQDQ01+000000PRSWM2
0048080870999991972053114004+42200-001450FM-15+0295LEBR V0203201N007212200019N0112001N1+02461+00961999999ADDGF102991999999999999999999EQDQ01+000000PRSWM2
0048080870999991972053115004+42200-001450FM-15+0295LEBR V0203401N008712200019N0112001N1+02521+00911999999ADDGF102991999999999999999999EQDQ01+000000PRSWM2
0048080870999991972060505004+42200-001450FM-15+0295LEBR V0201001N003110240019N0112001N1+01521+01071999999ADDGF108991999999999999999999EQDQ01+000000PRSWM2
0048080870999991972060506004+42200-001450FM-15+0295LEBR V0201101N003110150019N0112001N1+01521+01131999999ADDGF108991999999999999999999EQDQ01+000000PRSWM2
0048080870999991972060507004+42200-001450FM-15+0295LEBR V0201101N003610150019N0112001N1+01571+01071999999ADDGF108991999999999999999999EQDQ01+000000PRSWM2
0048080870999991972060508004+42200-001450FM-15+0295LEBR V0201101N003110105019N0112001N1+01631+01131999999ADDGF107991999999999999999999EQDQ01+000000PRSWM2
0048080870999991972060509004+42200-001450FM-15+0295LEBR V0209991C000010090019N0112001N1+01801+01191999999ADDGF107991999999999999999999EQDQ01+000000PRSWM2
0048080870999991972060510004+42200-001450FM-15+0295LEBR V0202801N001510090019N0112001N1+01961+01241999999ADDGF108991999999999999999999EQDQ01+000000PRSWM2
0048080870999991972060511004+42200-001450FM-15+0295LEBR V0203101N002110240019N0112001N1+02021+01191999999ADDGF108991999999999999999999EQDQ01+000000PRSWM2
0048080870999991972060513004+42200-001450FM-15+0295LEBR V0202901N005710420019N0112001N1+02021+01191999999ADDGF107991999999999999999999EQDQ01+000000PRSWM2
0048080870999991972060514004+42200-001450FM-15+0295LEBR V0203001N010310420019N0112001N1+02021+01241999999ADDGF107991999999999999999999EQDQ01+000000PRSWM2
0048080870999991972060515004+42200-001450FM-15+0295LEBR V0203101N009310420019N0112001N1+02021+01191999999ADDGF107991999999999999999999EQDQ01+000000PRSWM2
0048080870999991972060605004+42200-001450FM-15+0295LEBR V0202801N002110360019N0112001N1+00691+00411999999ADDGF107991999999999999999999EQDQ01+000000PRSWM2
0048080870999991972060606004+42200-001450FM-15+0295LEBR V0202801N001510420019N0112001N1+00741+00461999999ADDGF107991999999999999999999EQDQ01+000000PRSWM2
0048080870999991972060607004+42200-001450FM-15+0295LEBR V0209991C000010360019N0112001N1+00911+00521999999ADDGF107991999999999999999999EQDQ01+000000PRSWM2
0048080870999991972060608004+42200-001450FM-15+0295LEBR V0202601N001010420019N0112001N1+01021+00521999999ADDGF107991999999999999999999EQDQ01+000000PRSWM2
0048080870999991972060609004+42200-001450FM-15+0295LEBR V0200101N001512200019N0112001N1+01301+00581999999ADDGF102991999999999999999999EQDQ01+000000PRSWM2
0048080870999991972060610004+42200-001450FM-15+0295LEBR V0209991C000012200019N0112001N1+01631+00521999999ADDGF102991999999999999999999EQDQ01+000000PRSWM2
0048080870999991972060611004+42200-001450FM-15+0295LEBR V0200101N002112200019N0112001N1+01801+00521999999ADDGF102991999999999999999999EQDQ01+000000PRSWM2
0048080870999991972060613004+42200-001450FM-15+0295LEBR V0200501N002612200019N0112001N1+02181+00411999999ADDGF102991999999999999999999EQDQ01+000000PRSWM2
0048080870999991972060614004+42200-001450FM-15+0295LEBR V0201601N002112200019N0112001N1+02351+00461999999ADDGF102991999999999999999999EQDQ01+000000PRSWM2
0048080870999991972060615004+42200-001450FM-15+0295LEBR V0201601N006212200019N0112001N1+02411+00411999999ADDGF102991999999999999999999EQDQ01+000000PRSWM2
0048080870999991972060705004+42200-001450FM-15+0295LEBR V0203401N001512200019N0112001N1+01301+00911999999ADDGF102991999999999999999999EQDQ01+000000PRSWM2
0048080870999991972060706004+42200-001450FM-15+0295LEBR V0203301N001512200019N0112001N1+01241+00851999999ADDGF102991999999999999999999EQDQ01+000000PRSWM2
0048080870999991972060707004+42200-001450FM-15+0295LEBR V0203001N003112200019N0112001N1+01301+00801999999ADDGF102991999999999999999999EQDQ01+000000PRSWM2
0048080870999991972060708004+42200-001450FM-15+0295LEBR V0203101N003612200019N0112001N1+01631+00741999999ADDGF102991999999999999999999EQDQ01+000000PRSWM2
0048080870999991972060709004+42200-001450FM-15+0295LEBR V0203101N002612200019N0112001N1+01911+00911999999ADDGF102991999999999999999999EQDQ01+000000PRSWM2
0048080870999991972060710004+42200-001450FM-15+0295LEBR V0203201N005712200019N0112001N1+02021+00961999999ADDGF102991999999999999999999EQDQ01+000000PRSWM2
0048080870999991972060711004+42200-001450FM-15+0295LEBR V0203101N005710300019N0112001N1+02181+01021999999ADDGF107991999999999999999999EQDQ01+000000PRSWM2
0048080870999991972060713004+42200-001450FM-15+0295LEBR V0203101N007712200019N0112001N1+02301+01021999999ADDGF102991999999999999999999EQDQ01+000000PRSWM2
0048080870999991972060714004+42200-001450FM-15+0295LEBR V0203301N008712200019N0112001N1+02351+01021999999ADDGF102991999999999999999999EQDQ01+000000PRSWM2
