0034082270999991972010100004+40483-003450FM-15+0607LETO V0202301N00261220001CN0100001N9+00001-00201999999ADDGA1031+024009039MA1102031999999
0034082270999991972010101004+40483-003450FM-15+0607LETO V0202101N00211220001CN0100001N9+00001-00101999999ADDGA1021+024009039MA1102031999999
0024082270999991972010102004+40483-003450FM-15+0607LETO V0209991C00001220001CN0060001N9+00001-00101999999ADDMA1102071999999MW1461
0024082270999991972010103004+40483-003450FM-15+0607LETO V0200601N00101220001CN0037001N9-00301-00301999999ADDMA1102131999999MW1461
0054082270999991972010104004+40483-003450FM-15+0607LETO V0200201N00101220001CN0037001N9-00101-00201999999ADDGA1021+003009079MA1102131999999MW1441REMMET0051FG//
0080082270999991972010105004+40483-003450FM-15+0607LETO V0203601N00151000601CN0009001N9+00101-00101999999ADDGA1091+000609999GF109991999999999999999999MA1102131999999MW1431REMMET005CIG02
0080082270999991972010106004+40483-003450FM-15+0607LETO V0209991C00001000301CN0006001N9+00001-00101999999ADDGA1091+000309999GF109991999999999999999999MA1102131999999MW1431REMMET005CIG01
0080082270999991972010107004+40483-003450FM-15+0607LETO V0209991C00001001501CN0018001N9+00101-00101999999ADDGA1091+001509999GF109991999999999999999999MA1102131999999MW1451REMMET005CIG05
0080082270999991972010108004+40483-003450FM-15+0607LETO V0200401N00211001501CN0015001N9+00101-00101999999ADDGA1091+001509999GF109991999999999999999999MA1102171999999MW1451REMMET005CIG05
0060082270999991972010109004+40483-003450FM-15+0607LETO V0200301N00151001801CN0015001N9+00101-00101999999ADDGA1061+001809079MA1102201999999MW1441REMMET011CIG06/2FG//
0076082270999991972010110004+40483-003450FM-15+0607LETO V0209991V002110027019N0037001N9+00201+00101999999ADDGA1011+000909079GA2061+002709079MA1102241999999MW1421REMMET011CIG04/1FG//
0095082270999991972010111004+40483-003450FM-15+0607LETO V0209991V001010045019N0070001N9+00201+00001999999ADDGA1011+002409079GA2031+003609079GA3051+004509079MA1102271999999MW1421REMMET014CIG15/HZ PRSNT
0103082270999991972010112004+40483-003450FM-15+0607LETO V0209991V002610300019N0100001N9+00301-00101999999ADDGA1011+007509059GA2041+015009059GA3081+030009049MA1102241999999REMMET028CIG100 OCNL CIG50/FUHZ ALQDS
0076082270999991972010113004+40483-003450FM-15+0607LETO V0209991V003110300019N0100001N9+00301-00101999999ADDGA1011+007509059GA2081+030009049MA1102131999999REMMET017CIG100/FUHZ ALQDS
0075082270999991972010114004+40483-003450FM-15+0607LETO V0209991V002610270019N0100001N9+00301-00101999999ADDGA1011+015009059GA2081+027009039MA1102071999999REMMET016CIG90/FUHZ ALQDS
0087082270999991972010115004+40483-003450FM-15+0607LETO V0209991V004110270019N0100001N9+00301-00101999999ADDGA1011+021009039GA2081+027009039MA1101961999999REMMET028CIG90/FUHZ ALQDS WND 020V060
0087082270999991972010116004+40483-003450FM-15+0607LETO V0209991V003610240019N0100001N9+00301-00101999999ADDGA1011+006009059GA2081+024009039MA1101961999999REMMET028CIG80/FUHZ ALQDS WND 040V090
0081082270999991972010117004+40483-003450FM-15+0607LETO V0209991V004110240019N0100001N9+00301-00101999999ADDGA1011+012009059GA2081+024009049MA1101801999999REMMET022CIG80/FUHZ WND 050V110
0054082270999991972010118004+40483-003450FM-15+0607LETO V0209991V00261021001CN0070001N9+00201+00001999999ADDGA1081+021009049MA1101801999999MW1601REMMET005CIG70
0078082270999991972010119004+40483-003450FM-15+0607LETO V0209991C000010210019N0100001N9+00201+00001999999ADDGA1021+015009059GA2081+021009049MA1101761999999MW1611REMMET013CIG70 WET RWY
0078082270999991972010120004+40483-003450FM-15+0607LETO V0200401N001510150019N0070001N9+00101-00101999999ADDGA1051+015009059GA2031+021009049MA1101731999999MW1681REMMET013CIG50 WET RWY
0084082270999991972010121004+40483-003450FM-15+0607LETO V0200701N003110060019N0047001N9+00101-00101999999ADDGA1011+002709079GA2051+006009079MA1101591999999MW1681REMMET019CIG20 1SN// WET RWY
0088082270999991972010122004+40483-003450FM-15+0607LETO V0200501N00261001501CN0024001N9+00101-00101999999ADDGA1091+001509999GF109991999999999999999999MA1101561999999MW1711REMMET013CIG05 WET RWY
0087082270999991972010123004+40483-003450FM-15+0607LETO V0200501N003610060019N0060001N9+00101-00101999999ADDGA1031+001509079GA2041+006009079MA1101421999999MW1611REMMET022CIG20 FG PRSNT WET RWY
0087082270999991972010200004+40483-003450FM-15+0607LETO V0200501N005110036019N0047001N9+00201+00001999999ADDGA1031+001509079GA2051+003609079MA1101251999999MW1611REMMET022CIG12 FG PRSNT WET RWY
0087082270999991972010201004+40483-003450FM-15+0607LETO V0200401N002610030019N0060001N9+00201+00101999999ADDGA1031+001509079GA2051+003009079MA1101191999999MW1611REMMET022CIG10 FG PRSNT WET RWY
0098082270999991972010202004+40483-003450FM-15+0607LETO V0200201N003610018019N0047001N9+00201+00101999999ADDGA1051+001809079GA2031+003009079MA1101121999999MW1611REMMET033CIG06 OCNL CIG10 FG PRSNT WET RWY
0090082270999991972010203004+40483-003450FM-15+0607LETO V0209991V004110027019N0090001N9+00201+00101999999ADDGA1021+001809079GA2061+002709079MA1101121999999MW1611REMMET025CIG09 WND 360V040 WET RWY
0067082270999991972010204004+40483-003450FM-15+0607LETO V0209991C00001002701CN0100001N9+00201+00101999999ADDGA1061+002709079MA1101151999999REMMET024CIG09 OCNL CIG30 WET RWY
0083082270999991972010205004+40483-003450FM-15+0607LETO V0209991V003110027019N0100001N9+00201+00101999999ADDGA1011+000609079GA2041+001809079MA1101191999999REMMET024CIG09 OCNL CIG06 WET RWY
0050082270999991972010206004+40483-003450FM-15+0607LETO V0203001N00311220001CN0100001N9+00101-00101999999ADDGA1011+001809079MA1101291999999REMMET007WET RWY
0050082270999991972010207004+40483-003450FM-15+0607LETO V0202801N00461220001CN0100001N9+00101-00101999999ADDGA1011+002709079MA1101321999999REMMET007WET RWY
0050082270999991972010208004+40483-003450FM-15+0607LETO V0202901N00411220001CN0100001N9+00101-00201999999ADDGA1011+002709079MA1101461999999REMMET007WET RWY
0056082270999991972010209004+40483-003450FM-15+0607LETO V0203301N00261220001CN0100001N9+00001-00201999999ADDGA1041+007509059MA1101591999999REMMET013TCU N WET RWY
0059082270999991972010210004+40483-003450FM-15+0607LETO V0209991C00001220001CN0100001N9+00101-00201999999ADDGA1051+008709059MA1101691999999REMMET016CIG29 TCU DSNT S
0034082270999991972010211004+40483-003450FM-15+0607LETO V0201801N00211220001CN0100001N9+00301-00101999999ADDGA1011+008709059MA1101801999999
0034082270999991972010212004+40483-003450FM-15+0607LETO V0202201N00311220001CN0100001N9+00401-00101999999ADDGA1011+009009059MA1101801999999
0034082270999991972010213004+40483-003450FM-15+0607LETO V0209991V00211220001CN0100001N9+00501-00201999999ADDGA1011+009009059MA1101801999999
0034082270999991972010214004+40483-003450FM-15+0607LETO V0209991V00211220001CN0100001N9+00601-00201999999ADDGA1021+009009059MA1101801999999
0034082270999991972010215004+40483-003450FM-15+0607LETO V0209991V00211220001CN0100001N9+00601-00301999999ADDGA1011+009009059MA1101761999999
0034082270999991972010216004+40483-003450FM-15+0607LETO V0209991V00211220001CN0100001N9+00701-00301999999ADDGA1011+009009059MA1101801999999
0034082270999991972010217004+40483-003450FM-15+0607LETO V0209991V00151220001CN0100001N9+00601-00301999999ADDGA1011+009009089MA1101831999999
0034082270999991972010218004+40483-003450FM-15+0607LETO V0209991C00001220001CN0100001N9+00501-00201999999ADDGA1011+009009059MA1101831999999
0034082270999991972010219004+40483-003450FM-15+0607LETO V0200301N00211220001CN0100001N9+00201-00201999999ADDGA1011+060009029MA1101901999999
0034082270999991972010220004+40483-003450FM-15+0607LETO V0209991V00151220001CN0100001N9+00101-00301999999ADDGA1011+060009029MA1101961999999
0018082270999991972010221004+40483-003450FM-15+0607LETO V0209991V00151220001CN0100001N9+00101-00301999999ADDMA1102031999999
0034082270999991972010222004+40483-003450FM-15+0607LETO V0200601N00051220001CN0100001N9+00001-00301999999ADDMA1102071999999REMMET007FU E-SE
0050082270999991972010223004+40483-003450FM-15+0607LETO V0200401N00261220001CN0100001N9+00001-00301999999ADDGA1011+024009039MA1102101999999REMMET007FU E-SE
0050082270999991972010300004+40483-003450FM-15+0607LETO V0209991V00101220001CN0100001N9-00201-00401999999ADDGA1011+024009039MA1102131999999REMMET007FU E-SE
0049082270999991972010301004+40483-003450FM-15+0607LETO V0209991V00101220001CN0100001N9-00101-00301999999ADDGA1011+060009009MA1102131999999REMMET006FU E-S
0047082270999991972010302004+40483-003450FM-15+0607LETO V0209991C00001220001CN0100001N9-00101-00401999999ADDGA1011+060009009MA1102131999999REMMET004FU E
0031082270999991972010303004+40483-003450FM-15+0607LETO V0209991C00001220001CN0100001N9-00201-00401999999ADDMA1102131999999REMMET004FU E
0049082270999991972010304004+40483-003450FM-15+0607LETO V0209991C00001220001CN0100001N9-00301-00501999999ADDGA1011+060009009MA1102131999999REMMET006FU E-S
0049082270999991972010305004+40483-003450FM-15+0607LETO V0209991C00001220001CN0100001N9-00301-00401999999ADDGA1011+060009009MA1102131999999REMMET006FU E-S
0049082270999991972010306004+40483-003450FM-15+0607LETO V0200701N00151220001CN0100001N9-00301-00401999999ADDGA1011+060009009MA1102131999999REMMET006FU E-S
0049082270999991972010307004+40483-003450FM-15+0607LETO V0200701N00151220001CN0100001N9-00401-00501999999ADDGA1011+060009009MA1102101999999REMMET006FU E-S
0036082270999991972010308004+40483-003450FM-15+0607LETO V0200801N00311220001CN0100001N9-00401-00701999999ADDMA1102131999999REMMET009FU E-S-SW
0036082270999991972010309004+40483-003450FM-15+0607LETO V0200301N00211220001CN0100001N9-00301-00501999999ADDMA1102171999999REMMET009FU E-S-SW
0049082270999991972010310004+40483-003450FM-15+0607LETO V0200801N00211220001CN0100001N9-00201-00401999999ADDMA1102201999999REMMET022FU E-S-SW VIS LWR SE-S
0036082270999991972010311004+40483-003450FM-15+0607LETO V0201301N00211220001CN0100001N9+00001-00201999999ADDMA1102201999999REMMET009FU E-S-SW
0050082270999991972010312004+40483-003450FM-15+0607LETO V0209991V00411220001CN0100001N9+00201-00201999999ADDMA1102241999999REMMET023FUHZ E-S-SW WND 080V140
0038082270999991972010313004+40483-003450FM-15+0607LETO V0209991V00261220001CN0100001N9+00401-00201999999ADDMA1102201999999REMMET011FUHZ E-S-SW
0038082270999991972010314004+40483-003450FM-15+0607LETO V0209991V00261220001CN0100001N9+00501-00201999999ADDMA1102131999999REMMET011FUHZ E-S-SW
0054082270999991972010315004+40483-003450FM-15+0607LETO V0209991V00261220001CN0100001N9+00601-00201999999ADDGA1011+060009009MA1102071999999REMMET011FUHZ E-S-SW
0054082270999991972010316004+40483-003450FM-15+0607LETO V0209991V00211220001CN0100001N9+00701-00201999999ADDGA1011+060009009MA1102071999999REMMET011FUHZ E-S-SW
0047082270999991972010317004+40483-003450FM-15+0607LETO V0200101N00101220001CN0100001N9+00701-00201999999ADDGA1021+060009009MA1102071999999REMMET004FU E
0072082270999991972010318004+40483-003450FM-15+0607LETO V0209991C000012200019N0100001N9+00401+00101999999ADDGA1011+036009039GA2051+060009009MA1102071999999REMMET013CIGNO FU E-SE
0047082270999991972010319004+40483-003450FM-15+0607LETO V0200501N00311220001CN0100001N9+00201-00101999999ADDGA1041+060009009MA1102071999999REMMET004FU E
0056082270999991972010320004+40483-003450FM-15+0607LETO V0200401N00311220001CN0100001N9+00201-00201999999ADDGA1021+060009009MA1102101999999REMMET0131FU03 FU E-SE
0056082270999991972010321004+40483-003450FM-15+0607LETO V0200601N00311220001CN0100001N9-00101-00201999999ADDGA1011+060009009MA1102131999999REMMET0131FU03 FU E-SE
0049082270999991972010322004+40483-003450FM-15+0607LETO V0200601N00361220001CN0100001N9-00101-00301999999ADDGA1011+060009009MA1102131999999REMMET006FU E-S
0049082270999991972010323004+40483-003450FM-15+0607LETO V0200701N00101220001CN0100001N9-00101-00301999999ADDGA1011+060009009MA1102171999999REMMET006FU E-S
0049082270999991972010400004+40483-003450FM-15+0607LETO V0209991V00211220001CN0100001N9-00201-00401999999ADDGA1021+060009009MA1102131999999REMMET006FU E-S
0049082270999991972010401004+40483-003450FM-15+0607LETO V0209991C00001220001CN0100001N9-00201-00301999999ADDGA1011+060009009MA1102101999999REMMET006FU E-S
0049082270999991972010402004+40483-003450FM-15+0607LETO V0200601N00261220001CN0100001N9-00301-00501999999ADDGA1011+060009009MA1102071999999REMMET006FU E-S
0049082270999991972010403004+40483-003450FM-15+0607LETO V0200801N00261220001CN0100001N9-00301-00501999999ADDGA1011+060009009MA1102101999999REMMET006FU E-S
0049082270999991972010404004+40483-003450FM-15+0607LETO V0209991V00101220001CN0100001N9-00301-00501999999ADDGA1011+060009009MA1102101999999REMMET006FU E-S
0049082270999991972010405004+40483-003450FM-15+0607LETO V0209991C00001220001CN0100001N9-00301-00501999999ADDGA1021+060009009MA1102101999999REMMET006FU E-S
0049082270999991972010406004+40483-003450FM-15+0607LETO V0200801N00211220001CN0100001N9-00401-00601999999ADDGA1021+060009009MA1102071999999REMMET006FU E-S
0049082270999991972010407004+40483-003450FM-15+0607LETO V0200801N00211220001CN0100001N9-00301-00601999999ADDGA1021+060009009MA1102071999999REMMET006FU E-S
0047082270999991972010408004+40483-003450FM-15+0607LETO V0209991C00001220001CN0100001N9-00401-00601999999ADDGA1011+012009059MA1102071999999REMMET004FU S
0052082270999991972010409004+40483-003450FM-15+0607LETO V0209991V00051220001CN0100001N9-00401-00601999999ADDGA1041+066009009MA1102101999999REMMET009FU E-S-SW
0058082270999991972010410004+40483-003450FM-15+0607LETO V0209991C00001220001CN0100001N9-00201-00501999999ADDGA1051+066009009MA1102171999999REMMET015CIGNO FU E-S-SW
0084082270999991972010411004+40483-003450FM-15+0607LETO V0209991C00001220001CN0100001N9-00101-00401999999ADDGA1081+066009009MA1102241999999REMMET041CIGNO/FU E-S-SW VIS LWR E-S APCH VIS 6000
0087082270999991972010412004+40483-003450FM-15+0607LETO V0209991V00101220001CN0100001N9+00101-00201999999ADDGA1081+066009009MA1102171999999REMMET044CIGNO/FU E-S-SW VIS LWR SE-SW APRCH VIS 9000
0072082270999991972010413004+40483-003450FM-15+0607LETO V0209991V00211220001CN0100001N9+00301-00101999999ADDGA1081+066009009MA1102071999999REMMET029CIGNO/FU E-S-SW VIS LWR SE-SW
0070082270999991972010414004+40483-003450FM-15+0607LETO V0209991V00151220001CN0100001N9+00401-00101999999ADDGA1081+066009029MA1102001999999REMMET027CIGNO FUHZ E-S-SW VIS LWR E
0070082270999991972010415004+40483-003450FM-15+0607LETO V0209991V00151220001CN0100001N9+00601-00201999999ADDGA1081+066009029MA1101861999999REMMET027CIGNO FUHZ E-S-SW VIS LWR E
0060082270999991972010416004+40483-003450FM-15+0607LETO V0209991V00101220001CN0100001N9+00601-00201999999ADDGA1081+066009029MA1101861999999REMMET017CIGNO/FUHZ E-S-SW
0057082270999991972010417004+40483-003450FM-15+0607LETO V0200501N00101220001CN0100001N9+00601-00201999999ADDGA1081+066009029MA1101861999999REMMET014CIGNO FUHZ E-S
0055082270999991972010418004+40483-003450FM-15+0607LETO V0200701N00211220001CN0100001N9+00201-00101999999ADDGA1081+060009029MA1101861999999REMMET012CIGNO FU E-S
0056082270999991972010419004+40483-003450FM-15+0607LETO V0200501N00151060001CN0100001N9+00101-00101999999ADDGA1081+060009029MA1101861999999REMMET013CIG200 FU E-S
0056082270999991972010420004+40483-003450FM-15+0607LETO V0200501N00211060001CN0100001N9+00001-00201999999ADDGA1081+060009029MA1101901999999REMMET013CIG200 FU E-S
0049082270999991972010421004+40483-003450FM-15+0607LETO V0200401N00151220001CN0100001N9-00101-00201999999ADDGA1041+060009029MA1101861999999REMMET006FU E-S
0049082270999991972010422004+40483-003450FM-15+0607LETO V0200601N00211220001CN0100001N9-00101-00301999999ADDGA1031+060009029MA1101861999999REMMET006FU E-S
0072082270999991972010423004+40483-003450FM-15+0607LETO V0200601N001010600019N0100001N9-00101-00301999999ADDGA1011+030009039GA2051+060009029MA1101901999999REMMET013CIG200 FU E-S
0055082270999991972010500004+40483-003450FM-15+0607LETO V0200901N00211220001CN0100001N9-00101-00301999999ADDGA1051+060009029MA1101861999999REMMET012CIGNO FU E-S
0055082270999991972010501004+40483-003450FM-15+0607LETO V0201001N00151220001CN0100001N9-00201-00301999999ADDGA1051+060009029MA1101831999999REMMET012CIGNO FU E-S
0071082270999991972010502004+40483-003450FM-15+0607LETO V0200901N001012200019N0100001N9-00101-00301999999ADDGA1011+012009059GA2051+060009029MA1101801999999REMMET012CIGNO FU E-S
0071082270999991972010503004+40483-003450FM-15+0607LETO V0201001N001012200019N0100001N9-00201-00301999999ADDGA1011+012009059GA2051+060009029MA1101761999999REMMET012CIGNO FU E-S
0071082270999991972010504004+40483-003450FM-15+0607LETO V0200701N001012200019N0100001N9-00201-00401999999ADDGA1011+012009059GA2051+060009029MA1101731999999REMMET012CIGNO FU E-S
0065082270999991972010505004+40483-003450FM-15+0607LETO V0209991C00001220001CN0100001N9-00301-00401999999ADDGA1011+024009039GA2031+060009029MA1101691999999REMMET006FU E-S
0049082270999991972010506004+40483-003450FM-15+0607LETO V0209991C00001220001CN0100001N9-00201-00401999999ADDGA1021+024009039MA1101661999999REMMET006FU E-S
0071082270999991972010507004+40483-003450FM-15+0607LETO V0203101N001512200019N0100001N9-00301-00501999999ADDGA1021+024009039GA2031+060009009MA1101661999999REMMET012CIGNO FU E-S
0074082270999991972010508004+40483-003450FM-15+0607LETO V0209991C000012200019N0100001N9-00301-00501999999ADDGA1011+024009039GA2051+060009029MA1101691999999REMMET015CIGNO FU E-S-SW
0077082270999991972010509004+40483-003450FM-15+0607LETO V0200501N000512200019N0100001N9-00301-00501999999ADDGA1011+024009039GA2071+060009009MA1101661999999REMMET018CIGNO FU HZ E-S-SW
0077082270999991972010510004+40483-003450FM-15+0607LETO V0209991C000012200019N0100001N9-00201-00401999999ADDGA1011+024009039GA2081+060009009MA1101731999999REMMET018CIGNO FU HZ E-S-SW
0077082270999991972010511004+40483-003450FM-15+0607LETO V0209991V002112200019N0100001N9+00101-00201999999ADDGA1021+030009039GA2081+060009009MA1101761999999REMMET018CIGNO FU HZ E-S-SW
0077082270999991972010512004+40483-003450FM-15+0607LETO V0209991V002612200019N0100001N9+00401-00201999999ADDGA1031+030009039GA2081+060009009MA1101731999999REMMET018CIGNO FU HZ E-S-SW
0071082270999991972010513004+40483-003450FM-15+0607LETO V0209991V001512200019N0100001N9+00501-00101999999ADDGA1011+010509059GA2081+060009009MA1101631999999REMMET012CIGNO HZ E-S
0072082270999991972010514004+40483-003450FM-15+0607LETO V0209991V002610600019N0100001N9+00601-00101999999ADDGA1011+010509059GA2081+060009009MA1101521999999REMMET013CIG200 HZ E-S
0071082270999991972010515004+40483-003450FM-15+0607LETO V0209991V001010240019N0100001N9+00701+00101999999ADDGA1021+010509059GA2061+060009009MA1101521999999REMMET012CIG80 HZ E-S
0048082270999991972010516004+40483-003450FM-15+0607LETO V0209991V00311006901CN0100001N9+00701+00101999999ADDGA1071+006909059MA1101521999999REMMET005CIG23
0058082270999991972010517004+40483-003450FM-15+0607LETO V0200601N00311006901CN0100001N9+00701+00201999999ADDGA1071+006909059MA1101521999999REMMET015CIG23 OCNLY LWR
0048082270999991972010518004+40483-003450FM-15+0607LETO V0200301N00361006301CN0100001N9+00701+00101999999ADDGA1071+006309059MA1101521999999REMMET005CIG21
0048082270999991972010519004+40483-003450FM-15+0607LETO V0200401N00411006301CN0100001N9+00601+00101999999ADDGA1081+006309059MA1101491999999REMMET005CIG21
0048082270999991972010520004+40483-003450FM-15+0607LETO V0200701N00311006301CN0100001N9+00601+00201999999ADDGA1081+006309059MA1101521999999REMMET005CIG21
0055082270999991972010521004+40483-003450FM-15+0607LETO V0200501N00211006901CN0100001N9+00501+00201999999ADDGA1081+006909059MA1101561999999REMMET012CIG23 FU E-S
0094082270999991972010522004+40483-003450FM-15+0607LETO V0200801N002110069019N0100001N9+00501+00201999999ADDGA1041+005709059GA2051+006909059MA1101561999999REMMET035CIG23 OCNL CIG19 FU E-S VIS LWR E-S
0083082270999991972010523004+40483-003450FM-15+0607LETO V0209991V001510057019N0100001N9+00401+00201999999ADDGA1051+005709059GA2031+006909059MA1101521999999REMMET024CIG19 FU E-S VIS LWR E-S
0083082270999991972010600004+40483-003450FM-15+0607LETO V0200501N001010057019N0100001N9+00401+00201999999ADDGA1061+005709059GA2031+006909059MA1101521999999REMMET024CIG19 FU E-S VIS LWR E-S
0072082270999991972010601004+40483-003450FM-15+0607LETO V0201001N003110051019N0100001N9+00501+00201999999ADDGA1051+005109079GA2031+006909059MA1101461999999REMMET013CIG17 FU E-SE
0056082270999991972010602004+40483-003450FM-15+0607LETO V0201001N00311005101CN0100001N9+00501+00201999999ADDGA1071+005109079MA1101391999999REMMET013CIG17 FU E-SE
0085082270999991972010603004+40483-003450FM-15+0607LETO V0209991V003110051019N0100001N9+00501+00301999999ADDGA1051+005109079GA2031+018009049MA1101321999999REMMET026CIG17 MOON DMLY VSB FU E-S
0055082270999991972010604004+40483-003450FM-15+0607LETO V0201001N00101005101CN0100001N9+00501+00301999999ADDGA1071+005109079MA1101421999999REMMET012CIG17 FU E-S
0055082270999991972010605004+40483-003450FM-15+0607LETO V0200901N00101005101CN0100001N9+00401+00301999999ADDGA1081+005109079MA1101391999999REMMET012CIG17 FU E-S
0087082270999991972010606004+40483-003450FM-15+0607LETO V0201001N00101004201CN0100001N9+00401+00301999999ADDGA1081+004209079MA1101391999999MW1501REMMET038CIG14 VIS E-SE 6000 IN FU PCPN VRY LGT
0068082270999991972010607004+40483-003450FM-15+0607LETO V0200601N00101004201CN0060001N9+00401+00301999999ADDGA1071+004209079MA1101391999999MW1701REMMET019CIG14 1SN// WET RWY
0074082270999991972010608004+40483-003450FM-15+0607LETO V0201001N00101005701CN0100001N9+00401+00301999999ADDGA1071+005709079MA1101391999999REMMET031CIG19 BINOVC ESE FU E-S WET RWY
0056082270999991972010609004+40483-003450FM-15+0607LETO V0209991V00101004801CN0100001N9+00401+00301999999ADDGA1071+004809059MA1101461999999REMMET013CIG16 WET RWY
0078082270999991972010610004+40483-003450FM-15+0607LETO V0209991C00001005701CN0100001N9+00501+00301999999ADDGA1061+005709079MA1101491999999REMMET035CIG19/0830 OVC 70/FGFU SE-S WET RWY
0065082270999991972010611004+40483-003450FM-15+0607LETO V0209991V00151006301CN0100001N9+00601+00401999999ADDGA1061+006309059MA1101561999999REMMET022CIG21 FUHZ E-S WET RWY
0081082270999991972010612004+40483-003450FM-15+0607LETO V0209991C000010084019N0100001N9+00701+00401999999ADDGA1031+006009059GA2051+008409059MA1101561999999REMMET022CIG28 FUHZ E-S WET RWY
0072082270999991972010613004+40483-003450FM-15+0607LETO V0209991V001010240019N0100001N9+00901+00401999999ADDGA1011+006009089GA2031+010509059MA1101491999999REMMET013CIG80 WET RWY
0078082270999991972010614004+40483-003450FM-15+0607LETO V0209991V001510120019N0100001N9+01001+00401999999ADDGA1031+006009089GA2031+012009059MA1101461999999REMMET019CIG40 BLDG CU ALQDS
0075082270999991972010615004+40483-003450FM-15+0607LETO V0202601N001010105019N0100001N9+00801+00401999999ADDGA1041+006609089GA2031+010509059MA1101421999999REMMET016CIG35 OCNL CIG22
0077082270999991972010616004+40483-003450FM-15+0607LETO V0209991V001010105019N0100001N9+00901+00401999999ADDGA1021+006009079GA2031+007509089MA1101421999999REMMET018CIG35 MDT CU ALQDS
0064082270999991972010617004+40483-003450FM-15+0607LETO V0200301N002110114019N0100001N9+00801+00401999999ADDGA1011+007509059GA2061+011409059MA1101461999999REMMET005CIG38
0080082270999991972010618004+40483-003450FM-15+0607LETO V0209991C000012200019N0100001N9+00701+00401999999ADDGA1011+007509059GA2031+011409059GA3061+060009029MA1101461999999REMMET005CIGNO
0064082270999991972010619004+40483-003450FM-15+0607LETO V0209991C000012200019N0100001N9+00501+00301999999ADDGA1021+011409059GA2061+060009029MA1101521999999REMMET005CIGNO
0049082270999991972010620004+40483-003450FM-15+0607LETO V0209991C00001220001CN0100001N9+00401+00201999999ADDGA1031+060009029MA1101521999999REMMET006FU E-S
0049082270999991972010621004+40483-003450FM-15+0607LETO V0209991C00001220001CN0100001N9+00401+00201999999ADDGA1021+060009009MA1101591999999REMMET006FU E-S
0050082270999991972010622004+40483-003450FM-15+0607LETO V0209991C00001220001CN0100001N9+00201-00101999999ADDGA1011+060009009MA1101631999999REMMET007FU E-SW
0050082270999991972010623004+40483-003450FM-15+0607LETO V0200801N00311220001CN0100001N9+00101-00101999999ADDGA1011+024009039MA1101631999999REMMET007FU E-SW
0046082270999991972010700004+40483-003450FM-15+0607LETO V0200701N00151220001CN0100001N9+00101-00101999999ADDMA1101661999999REMMET0191FU05 1FU12 FU E-SW
0056082270999991972010701004+40483-003450FM-15+0607LETO V0200601N00101220001CN0100001N9-00101-00201999999ADDGA1011+024009039MA1101691999999REMMET0131FU05 FU E-SE
0070082270999991972010702004+40483-003450FM-15+0607LETO V0200501N00051220001CN0100001N9-00101-00201999999ADDGA1011+024009039MA1101731999999REMMET0271FU02 FU E-SE VIS 7000 E-SE
0043082270999991972010703004+40483-003450FM-15+0607LETO V0200601N00101220001CN0100001N9-00101-00201999999ADDMA1101731999999REMMET0161FU02 FU E-S-SSW
0040082270999991972010704004+40483-003450FM-15+0607LETO V0209991C00001220001CN0100001N9-00101-00201999999ADDMA1101761999999REMMET0131FU02 FU E-SE
0040082270999991972010705004+40483-003450FM-15+0607LETO V0200801N00101220001CN0100001N9-00201-00301999999ADDMA1101731999999REMMET0131FU02 FU E-SE
0039082270999991972010706004+40483-003450FM-15+0607LETO V0209991C00001220001CN0100001N9-00201-00301999999ADDMA1101731999999REMMET0121FU02 FU E-S
0039082270999991972010707004+40483-003450FM-15+0607LETO V0209991C00001220001CN0100001N9-00201-00301999999ADDMA1101731999999REMMET0121FU02 FU E-S
0055082270999991972010708004+40483-003450FM-15+0607LETO V0209991C00001220001CN0100001N9-00201-00401999999ADDGA1011+024009039MA1101731999999REMMET0121FU02 FU E-S
0034082270999991972010709004+40483-003450FM-15+0607LETO V0209991C00001220001CN0100001N9-00201-00401999999ADDGA1011+030009039MA1101801999999
0076082270999991972010710004+40483-003450FM-15+0607LETO V0209991C00001220001CN0100001N9+00001-00201999999ADDGA1011+030009039GA2031+060009009MA1101831999999REMMET017VIS LWR E-S IN HZ
0079082270999991972010711004+40483-003450FM-15+0607LETO V0209991C00001220001CN0070001N9+00201-00101999999ADDGA1011+030009039GA2031+060009009MA1101901999999MW1061REMMET014VIS SE-SW 2800
0079082270999991972010712004+40483-003450FM-15+0607LETO V0209991C00001220001CN0060001N9+00401+00101999999ADDGA1011+030009039GA2031+060009009MA1101901999999MW1061REMMET014VIS SE-SW 2400
0093082270999991972010713004+40483-003450FM-15+0607LETO V0209991C00001220001CN0100001N9+00401+00101999999ADDGA1011+030009039MA1101831999999REMMET0501HZ// HZ ALQDS VIS SE-SSW 2800 AND  SW-NW-NNE 9999
0051082270999991972010714004+40483-003450FM-15+0607LETO V0209991V00101220001CN0100001N9+00601+00201999999ADDGA1011+030009039MA1101731999999REMMET008HZ ALQDS
0053082270999991972010715004+40483-003450FM-15+0607LETO V0209991V00101220001CN0100001N9+00701+00201999999ADDGA1021+060009009MA1101661999999REMMET010FUHZ ALQDS
0053082270999991972010716004+40483-003450FM-15+0607LETO V0202301N00261220001CN0100001N9+00701+00301999999ADDGA1011+060009009MA1101661999999REMMET010FUHZ ALQDS
0069082270999991972010717004+40483-003450FM-15+0607LETO V0202501N00361220001CN0037001N9+00801+00301999999ADDGA1011+002109079MA1101691999999MW1061REMMET0202HZ12 VIS SE-SW 2800
0080082270999991972010718004+40483-003450FM-15+0607LETO V0202301N00261000601CN0006001N9+00301+00201999999ADDGA1091+000609999GF109991999999999999999999MA1101731999999MW1471REMMET005CIG02
0080082270999991972010719004+40483-003450FM-15+0607LETO V0209991C00001000151CN0000001N9+00301+00201999999ADDGA1091+000159999GF109991999999999999999999MA1101761999999MW1471REMMET005CIG00
0080082270999991972010720004+40483-003450FM-15+0607LETO V0202701N00101000151CN0000001N9+00301+00201999999ADDGA1091+000159999GF109991999999999999999999MA1101761999999MW1451REMMET005CIG00
0080082270999991972010721004+40483-003450FM-15+0607LETO V0202901N00101000151CN0002001N9+00301+00201999999ADDGA1091+000159999GF109991999999999999999999MA1101831999999MW1431REMMET005CIG00
0080082270999991972010722004+40483-003450FM-15+0607LETO V0209991C00001000151CN0002001N9+00301+00201999999ADDGA1091+000159999GF109991999999999999999999MA1101861999999MW1451REMMET005CIG00
0080082270999991972010723004+40483-003450FM-15+0607LETO V0209991C00001000151CN0005001N9+00301+00201999999ADDGA1091+000159999GF109991999999999999999999MA1101831999999MW1471REMMET005CIG00
0080082270999991972010800004+40483-003450FM-15+0607LETO V0209991C00001000151CN0005001N9+00301+00201999999ADDGA1091+000159999GF109991999999999999999999MA1101831999999MW1431REMMET005CIG00
0080082270999991972010801004+40483-003450FM-15+0607LETO V0200801N00211000151CN0005001N9+00301+00201999999ADDGA1091+000159999GF109991999999999999999999MA1101761999999MW1451REMMET005CIG00
0080082270999991972010802004+40483-003450FM-15+0607LETO V0201001N00151000901CN0015001N9+00301+00201999999ADDGA1091+000909999GF109991999999999999999999MA1101691999999MW1471REMMET005CIG03
0076082270999991972010803004+40483-003450FM-15+0607LETO V0200601N001010018019N0037001N9+00301+00201999999ADDGA1011+000909079GA2061+001809079MA1101691999999MW1421REMMET011CIG06 2FG//
0076082270999991972010804004+40483-003450FM-15+0607LETO V0201001N001010024019N0047001N9+00301+00301999999ADDGA1011+001209079GA2071+002409079MA1101691999999MW1441REMMET011CIG08 1FG//
0080082270999991972010805004+40483-003450FM-15+0607LETO V0201201N00101000601CN0009001N9+00401+00301999999ADDGA1091+000609999GF109991999999999999999999MA1101631999999MW1451REMMET005CIG02
0080082270999991972010806004+40483-003450FM-15+0607LETO V0209991C00001000151CN0002001N9+00401+00301999999ADDGA1091+000159999GF109991999999999999999999MA1101631999999MW1451REMMET005CIG00
0060082270999991972010807004+40483-003450FM-15+0607LETO V0209991C00001001501CN0017001N9+00401+00301999999ADDGA1051+001509079MA1101591999999MW1421REMMET011CIG05 3FG//
0060082270999991972010808004+40483-003450FM-15+0607LETO V0209991C00001001201CN0024001N9+00401+00301999999ADDGA1051+001209079MA1101631999999MW1441REMMET011CIG04 3FG//
0060082270999991972010809004+40483-003450FM-15+0607LETO V0202001N00151001501CN0047001N9+00401+00301999999ADDGA1061+001509079MA1101631999999MW1421REMMET011CIG05 2FG//
0060082270999991972010810004+40483-003450FM-15+0607LETO V0209991C00001001801CN0060001N9+00401+00301999999ADDGA1061+001809079MA1101631999999MW1421REMMET011CIG06 1FG//
0076082270999991972010811004+40483-003450FM-15+0607LETO V0209991C000010036019N0070001N9+00501+00301999999ADDGA1021+001809079GA2051+003609079MA1101631999999MW1421REMMET011CIG12 1FG//
0070082270999991972010812004+40483-003450FM-15+0607LETO V0209991C000010036019N0090001N9+00601+00301999999ADDGA1021+001809079GA2061+003609079MA1101591999999MW1061REMMET005CIG12
0070082270999991972010813004+40483-003450FM-15+0607LETO V0202401N001010036019N0090001N9+00601+00401999999ADDGA1021+001809079GA2061+003609079MA1101561999999MW1051REMMET005CIG12
0073082270999991972010814004+40483-003450FM-15+0607LETO V0202201N002610036019N0100001N9+00701+00401999999ADDGA1021+001809079GA2061+003609079MA1101491999999REMMET014CIG12 HZ ALQDS
0087082270999991972010815004+40483-003450FM-15+0607LETO V0202301N002110042019N0070001N9+00701+00501999999ADDGA1021+002109079GA2061+004209079MA1101421999999MW1631REMMET022CIG14 HZ ALQDS WET RWY
0087082270999991972010816004+40483-003450FM-15+0607LETO V0202101N002610048019N0070001N9+00701+00601999999ADDGA1021+003009079GA2061+004809079MA1101391999999MW1611REMMET022CIG16 HZ ALQDS WET RWY
0088082270999991972010817004+40483-003450FM-15+0607LETO V0209991V002610030019N0070001N9+00701+00601999999ADDGA1011+001809079GA2081+003009079MA1101321999999MW1611REMMET023CIG10/VIS LWR E WET RWY
0086082270999991972010818004+40483-003450FM-15+0607LETO V0209991V003110036019N0060001N9+00701+00601999999ADDGA1011+001809079GA2081+003609079MA1101291999999MW1611REMMET021CIG12/CIG RGD WET RWY
0086082270999991972010819004+40483-003450FM-15+0607LETO V0202001N002110030019N0060001N9+00701+00601999999ADDGA1011+001809079GA2081+003009079MA1101321999999MW1611REMMET021CIG10/CIG RGD WET RWY
0098082270999991972010820004+40483-003450FM-15+0607LETO V0209991V004110045019N0070001N9+00701+00601999999ADDGA1011+002109079GA2081+004509079MA1101291999999MW1611REMMET033CIG15/CIG RGD WND 180V210 WET RWY
0098082270999991972010821004+40483-003450FM-15+0607LETO V0209991V004610045019N0090001N9+00701+00601999999ADDGA1011+002109079GA2081+004509079MA1101291999999MW1611REMMET033CIG15/CIG RGD WND 170V210 WET RWY
0062082270999991972010822004+40483-003450FM-15+0607LETO V0202201N00311003601CN0090001N9+00801+00601999999ADDGA1061+003609049MA1101251999999MW1611REMMET013CIG12 WET RWY
0078082270999991972010823004+40483-003450FM-15+0607LETO V0202101N004610042019N0100001N9+00701+00601999999ADDGA1021+002409079GA2061+004209049MA1101191999999MW1611REMMET013CIG14 WET RWY
0105082270999991972010900004+40483-003450FM-15+0607LETO V0202001N006210042019N0100001N9+00701+00601999999ADDGA1031+002409079GA2031+004209079GA3061+006609049MA1101081999999MW1611REMMET024CIG14 OCNL CIG22 WET RWY
0084082270999991972010901004+40483-003450FM-15+0607LETO V0209991V005710054019N0100001N9+00801+00601999999ADDGA1011+002409079GA2071+005409059MA1101021999999REMMET025CIG18 WND 160V220 WET RWY
0068082270999991972010902004+40483-003450FM-15+0607LETO V0209991V00621005401CN0100001N9+00801+00601999999ADDGA1011+002409079MA1100981999999REMMET025CIG18 WND 170V210 WET RWY
0084082270999991972010903004+40483-003450FM-15+0607LETO V0209991V005710054019N0100001N9+00801+00601999999ADDGA1061+005409059GA2031+006909059MA1100881999999REMMET025CIG18 WND 150V210 WET RWY
0090082270999991972010904004+40483-003450FM-15+0607LETO V0209991V005710063019N0090001N9+00701+00601999999ADDGA1031+005409059GA2051+006309059MA1100781999999MW1601REMMET025CIG21 WND 140V210 WET RWY
0101082270999991972010905004+40483-003450FM-15+0607LETO V0209991V005710063019N0100001N9+00701+00601999999ADDGA1031+005409059GA2041+006309059MA1100711999999MW1601REMMET036CIG21 OCNL CIG23 WND 160V220 WET RWY
0101082270999991972010906004+40483-003450FM-15+0607LETO V0209991V006210063019N0100001N9+00701+00601999999ADDGA1031+005409059GA2041+006309059MA1100681999999MW1601REMMET036CIG21 OCNL CIG18 WND 190V230 WET RWY
0095082270999991972010907004+40483-003450FM-15+0607LETO V0209991V006710069019N0100001N9+00801+00601999999ADDGA1041+005709059GA2051+006909059MA1100581999999REMMET036CIG23 OCNL CIG19 WND 180V240 WET RWY
0095082270999991972010908004+40483-003450FM-15+0607LETO V0209991V005110063019N0100001N9+00801+00601999999ADDGA1041+004809059GA2051+006309059MA1100641999999REMMET036CIG21 OCNL CIG16 WND 190V240 WET RWY
0090082270999991972010909004+40483-003450FM-15+0607LETO V0209991V007710045019N0070001N9+00801+00601999999ADDGA1021+001809079GA2051+004509079MA1100751999999MW1611REMMET025CIG15 WND 200V270 WET RWY
0072082270999991972010910004+40483-003450FM-15+0607LETO V0202401N005710045019N0100001N9+00801+00601999999ADDGA1011+000909079GA2041+004509079MA1100781999999REMMET013CIG15 WET RWY
0078082270999991972010911004+40483-003450FM-15+0607LETO V0202501N005710045019N0090001N9+00801+00601999999ADDGA1011+001209079GA2031+003609079MA1100911999999MW1601REMMET013CIG15 WET RWY
0072082270999991972010912004+40483-003450FM-15+0607LETO V0202701N004110120019N0100001N9+00801+00601999999ADDGA1011+002409079GA2031+009009059MA1100951999999REMMET013CIG40 WET RWY
0084082270999991972010913004+40483-003450FM-15+0607LETO V0209991V006210210019N0100001N9+00901+00401999999ADDGA1011+002409079GA2031+021009039MA1100951999999REMMET025CIG70 WND 290V330 WET RWY
0078082270999991972010914004+40483-003450FM-15+0607LETO V0209991V00771220001CN0100001N9+01101+00301999999ADDGA1011+009009059GA2031+021009039MA1100951999999REMMET019WND 270V330 WET RWY
0054082270999991972010915004+40483-003450FM-15+0607LETO V0209991V00771220001CN0100001N9+01101+00201999999ADDGA1031+012009059MA1100981999999REMMET011WND 290V340
0076082270999991972010916004+40483-003450FM-15+0607LETO V0209991V006210120019N0100001N9+01201+00201999999ADDGA1011+009009059GA2051+012009059MA1101051999999REMMET017CIG40 WND 290V340
0090082270999991972010917004+40483-003450FM-15+0607LETO V0209991V005110120019N0100001N9+01101+00101999999ADDGA1011+009009059GA2041+012009059MA1101191999999REMMET031CIG40/FU E AND S-SW WND 280V350
0076082270999991972010918004+40483-003450FM-15+0607LETO V0209991V005110150019N0100001N9+00801+00101999999ADDGA1021+012009059GA2031+015009059MA1101291999999REMMET017CIG50/WND 270V330
0076082270999991972010919004+40483-003450FM-15+0607LETO V0209991V005112200019N0100001N9+00701+00201999999ADDGA1031+015009059GA2031+021009039MA1101491999999REMMET017CIGNO/WND 290V350
0034082270999991972010920004+40483-003450FM-15+0607LETO V0209991V00101220001CN0100001N9+00401+00101999999ADDGA1011+015009059MA1101591999999
0049082270999991972010921004+40483-003450FM-15+0607LETO V0209991C00001220001CN0100001N9+00401+00001999999ADDGA1011+021009039MA1101731999999REMMET006PRESRR
0034082270999991972010922004+40483-003450FM-15+0607LETO V0209991V00101220001CN0100001N9+00201-00101999999ADDGA1011+060009009MA1101801999999
0018082270999991972010923004+40483-003450FM-15+0607LETO V0209991C00001220001CN0100001N9+00101-00201999999ADDMA1101861999999
0034082270999991972011000004+40483-003450FM-15+0607LETO V0209991C00001220001CN0100001N9+00101-00101999999ADDGA1011+027009039MA1101961999999
0034082270999991972011001004+40483-003450FM-15+0607LETO V0209991C00001220001CN0100001N9+00201-00101999999ADDGA1011+027009039MA1102001999999
0018082270999991972011002004+40483-003450FM-15+0607LETO V0209991V00101220001CN0100001N9+00101-00101999999ADDMA1102031999999
0018082270999991972011003004+40483-003450FM-15+0607LETO V0209991C00001220001CN0100001N9-00101-00201999999ADDMA1102101999999
0018082270999991972011004004+40483-003450FM-15+0607LETO V0209991C00001220001CN0100001N9+00101+00001999999ADDMA1102171999999
0034082270999991972011005004+40483-003450FM-15+0607LETO V0209991C00001220001CN0100001N9+00101-00201999999ADDGA1011+060009029MA1102171999999
0034082270999991972011006004+40483-003450FM-15+0607LETO V0209991C00001220001CN0100001N9-00101-00301999999ADDGA1011+060009029MA1102241999999
0034082270999991972011007004+40483-003450FM-15+0607LETO V0209991C00001220001CN0100001N9-00101-00301999999ADDGA1011+060009029MA1102301999999
0034082270999991972011008004+40483-003450FM-15+0607LETO V0209991C00001220001CN0100001N9-00201-00301999999ADDGA1011+060009029MA1102371999999
0065082270999991972011009004+40483-003450FM-15+0607LETO V0209991C00001220001CN0100001N9-00101-00301999999ADDGA1011+021009039MA1102471999999REMMET022FUHZ E-S-W VIS S-W7000
0073082270999991972011010004+40483-003450FM-15+0607LETO V0209991C00001220001CN0100001N9+00101-00101999999ADDGA1011+012009059MA1102541999999REMMET030ACSL NW FUHZ E-S-W VIS LWR S-W
0074082270999991972011011004+40483-003450FM-15+0607LETO V0209991V00101220001CN0100001N9+00301+00101999999ADDGA1011+021009039MA1102611999999REMMET031ACSL NW FUHZ E-S-W VIS S-W 9000
0073082270999991972011012004+40483-003450FM-15+0607LETO V0209991V00101220001CN0100001N9+00401+00101999999ADDGA1011+024009039MA1102611999999REMMET030ACSL NW FUHZ E-S-W VIS LWR S-W
0066082270999991972011013004+40483-003450FM-15+0607LETO V0209991V00151220001CN0100001N9+00601+00101999999ADDGA1011+024009039MA1102541999999REMMET023FUHZ ALQDS VIS S-W 9000
0085082270999991972011014004+40483-003450FM-15+0607LETO V0209991V00151220001CN0100001N9+00701+00201999999ADDGA1011+024009039MA1102471999999REMMET0423HZ50 HZFU ALQDS VIS LWR NE-E VIS S-W 7000
0079082270999991972011015004+40483-003450FM-15+0607LETO V0209991V00101220001CN0100001N9+00801+00201999999ADDGA1011+024009039MA1102471999999REMMET0361FU10 2HZ50 HZ FU ALQDS VIS LWR NE-E
0057082270999991972011016004+40483-003450FM-15+0607LETO V0209991V00261220001CN0100001N9+00901+00201999999ADDGA1011+009009059MA1102471999999REMMET0141FU10 HZUF N-E
0070082270999991972011017004+40483-003450FM-15+0607LETO V0202501N002112200019N0100001N9+00901+00201999999ADDGA1011+009009059GA2041+060009009MA1102471999999REMMET011CIGNO 1FU10
0087082270999991972011018004+40483-003450FM-15+0607LETO V0202501N003112200019N0100001N9+00801+00301999999ADDGA1011+009009059GA2051+060009009MA1102511999999REMMET028CIGNO ACSL DSNT N FU E AND S
0069082270999991972011019004+40483-003450FM-15+0607LETO V0202301N003112200019N0100001N9+00601+00301999999ADDGA1021+024009039GA2031+060009009MA1102541999999REMMET010CIGNO FU E
0066082270999991972011020004+40483-003450FM-15+0607LETO V0202401N00211220001CN0100001N9+00401+00301999999ADDGA1011+024009039GA2031+060009009MA1102541999999REMMET007FU E-SE
0062082270999991972011021004+40483-003450FM-15+0607LETO V0209991C00001220001CN0100001N9+00301+00201999999ADDGA1011+024009039MA1102571999999REMMET019FU E-S-SW VIS S7000
0062082270999991972011022004+40483-003450FM-15+0607LETO V0209991C00001220001CN0100001N9+00101+00001999999ADDGA1011+024009039MA1102571999999REMMET019FU ALQDS MIFG SE-SW
0038082270999991972011023004+40483-003450FM-15+0607LETO V0209991C00001220001CN0018001N9+00201+00101999999ADDMA1102571999999MW1461REMMET0052FG//
0054082270999991972011100004+40483-003450FM-15+0607LETO V0209991C00001220001CN0037001N9+00101+00001999999ADDGA1011+060009009MA1102571999999MW1441REMMET0052FG//
0066082270999991972011101004+40483-003450FM-15+0607LETO V0209991C00001220001CN0037001N9+00101-00101999999ADDGA1011+003309079MA1102541999999MW1441REMMET0172FG// VIS SW 0900
0087082270999991972011102004+40483-003450FM-15+0607LETO V0209991C000010030019N0026001N9+00201+00101999999ADDGA1011+001809079GA2051+003009079MA1102471999999MW1421REMMET022CIG10 OCNL CIGNO 1FG//
0076082270999991972011103004+40483-003450FM-15+0607LETO V0209991C000010030019N0026001N9+00301+00201999999ADDGA1011+001809079GA2061+003009079MA1102401999999MW1441REMMET011CIG10 1FG//
0060082270999991972011104004+40483-003450FM-15+0607LETO V0209991C00001003601CN0026001N9+00301+00201999999ADDGA1071+003609079MA1102371999999MW1441REMMET011CIG12 1FG//
0060082270999991972011105004+40483-003450FM-15+0607LETO V0209991C00001003601CN0026001N9+00301+00201999999ADDGA1071+003609079MA1102341999999MW1441REMMET011CIG12 1FG//
0087082270999991972011106004+40483-003450FM-15+0607LETO V0209991C000010033019N0026001N9+00401+00301999999ADDGA1031+002109079GA2041+003309079MA1102201999999MW1441REMMET022CIG11 OCNL CIG07 1FG//
0076082270999991972011107004+40483-003450FM-15+0607LETO V0209991C000010021019N0032001N9+00401+00301999999ADDGA1011+001509079GA2031+002109079MA1102131999999MW1441REMMET011CIG07 1FG//
0076082270999991972011108004+40483-003450FM-15+0607LETO V0209991C000010015019N0032001N9+00401+00301999999ADDGA1011+001209079GA2041+001509079MA1102131999999MW1441REMMET011CIG05 1FG//
0072082270999991972011109004+40483-003450FM-15+0607LETO V0209991C00001001801CN0034001N9+00401+00301999999ADDGA1081+001809079MA1102071999999MW1421REMMET023CIG06/1FG// VIS SE 4700
0090082270999991972011110004+40483-003450FM-15+0607LETO V0209991C00001001201CN0048001N9+00401+00301999999ADDGA1081+001209079MA1102071999999MW1421REMMET041CIG04/0839 10NW LETO OVC 35/VIS SE-S 6000
0106082270999991972011111004+40483-003450FM-15+0607LETO V0209991C000010021019N0048001N9+00401+00301999999ADDGA1041+001509079GA2081+002109079MA1102071999999MW1441REMMET041CIG07/0935 OVC LETO OVC 38/VIS SE-SW 3700
0080082270999991972011112004+40483-003450FM-15+0607LETO V0209991C000010270019N0048001N9+00501+00301999999ADDGA1011+002109079GA2061+027009049MA1102001999999MW1461REMMET015CIG980/FG ALQDS
0070082270999991972011113004+40483-003450FM-15+0607LETO V0209991V001010270019N0060001N9+00601+00301999999ADDGA1011+003009079GA2061+027009049MA1101831999999MW1061REMMET005CIG90
0073082270999991972011114004+40483-003450FM-15+0607LETO V0209991V000510180019N0100001N9+00701+00301999999ADDGA1011+003609059GA2081+030009049MA1101731999999REMMET014CIG60/HZ ALQDS
0082082270999991972011115004+40483-003450FM-15+0607LETO V0209991C000010180019N0100001N9+00701+00301999999ADDGA1011+021009039GA2061+030009049MA1101661999999REMMET023CIG60/BINOVC W HZ ALQDS
0086082270999991972011116004+40483-003450FM-15+0607LETO V0209991V002110180019N0100001N9+00701+00301999999ADDGA1011+021009039GA2051+030009049MA1101561999999REMMET027CIG60/VIS LWR NE-SE-S IN HZ
0075082270999991972011117004+40483-003450FM-15+0607LETO V0209991V002110180019N0100001N9+00801+00401999999ADDGA1031+021009039GA2031+030009049MA1101491999999REMMET016CIG60/FUHZ ALQDS
0075082270999991972011118004+40483-003450FM-15+0607LETO V0203501N004110240019N0100001N9+00701+00401999999ADDGA1011+010509059GA2061+024009039MA1101521999999REMMET016CIG80/FUHZ ALQDS
0075082270999991972011119004+40483-003450FM-15+0607LETO V0209991V003110210019N0100001N9+00701+00301999999ADDGA1021+009009059GA2081+021009049MA1101561999999REMMET016CIG70/FUHZ ALQDS
0106082270999991972011120004+40483-003450FM-15+0607LETO V0209991V004610138019N0090001N9+00601+00301999999ADDGA1011+009909059GA2041+013809059GA3081+021009049MA1101661999999MW1611REMMET025CIG46/WND 250V280 WET RWY
0078082270999991972011121004+40483-003450FM-15+0607LETO V0202201N002610210019N0070001N9+00601+00401999999ADDGA1011+009909059GA2081+021009049MA1101661999999MW1061REMMET013CIG70 WET RWY
0078082270999991972011122004+40483-003450FM-15+0607LETO V0202701N002110210019N0070001N9+00601+00301999999ADDGA1041+008709059GA2041+021009049MA1101661999999MW1061REMMET013CIG70 WET RWY
0071082270999991972011123004+40483-003450FM-15+0607LETO V0202401N00311006901CN0060001N9+00501+00401999999ADDGA1031+005709079MA1101661999999MW1611REMMET022CIG23 HZ PRSNT WET RWY
0091082270999991972011200004+40483-003450FM-15+0607LETO V0202401N002610033019N0070001N9+00501+00401999999ADDGA1021+001509079GA2031+003309079MA1101691999999MW1061REMMET026CIG11 LWR CLDS RAG WET RWY
0078082270999991972011201004+40483-003450FM-15+0607LETO V0202401N003110024019N0070001N9+00501+00401999999ADDGA1031+001509079GA2041+002409079MA1101691999999MW1411REMMET013CIG08/WET RWY
0081082270999991972011202004+40483-003450FM-15+0607LETO V0209991C000010033019N0100001N9+00401+00301999999ADDGA1021+002409079GA2041+003309079MA1101731999999REMMET022CIG11/HZ ALQDS WET RWY
0084082270999991972011203004+40483-003450FM-15+0607LETO V0209991V004610210019N0100001N9+00401+00201999999ADDGA1011+003009079GA2041+021009039MA1101761999999REMMET025CIG70 WND 250V320 WET RWY
0076082270999991972011204004+40483-003450FM-15+0607LETO V0209991V00511021001CN0100001N9+00401+00201999999ADDGA1051+021009039MA1101761999999REMMET033CIG70 FU E-SE WND 260V330 WET RWY
0068082270999991972011205004+40483-003450FM-15+0607LETO V0209991V00511008101CN0100001N9+00401+00001999999ADDGA1051+021009049MA1101801999999REMMET025CIG59 WND 260V310 WET RWY
0062082270999991972011206004+40483-003450FM-15+0607LETO V0209991V00771220001CN0100001N9+00301-00201999999ADDGA1011+021009049MA1101761999999REMMET019WND 280V330 WET RWY
0062082270999991972011207004+40483-003450FM-15+0607LETO V0209991V00721220001CN0100001N9+00301-00201999999ADDGA1011+021009049MA1101801999999REMMET019WND 280V340 WET RWY
0050082270999991972011208004+40483-003450FM-15+0607LETO V0202601N00411220001CN0100001N9+00301-00201999999ADDGA1021+021009039MA1101861999999REMMET007WET RWY
0059082270999991972011209004+40483-003450FM-15+0607LETO V0209991V00261220001CN0100001N9+00201-00301999999ADDGA1011+009009059MA1101961999999REMMET016FUHZ E-S WET RWY
0063082270999991972011210004+40483-003450FM-15+0607LETO V0209991V00511220001CN0100001N9+00401-00201999999ADDGA1011+009009059MA1102031999999REMMET020FUHZ E-S WND 270V330
0063082270999991972011211004+40483-003450FM-15+0607LETO V0209991V00461220001CN0100001N9+00601-00201999999ADDGA1011+010509059MA1102071999999REMMET020FUHZ E-S WND 280V340
0059082270999991972011212004+40483-003450FM-15+0607LETO V0209991V00411220001CN0100001N9+00801-00201999999ADDGA1011+010509059MA1102101999999REMMET016FU E WND 300V340
0054082270999991972011213004+40483-003450FM-15+0607LETO V0209991V00411220001CN0100001N9+00801-00201999999ADDGA1011+010509059MA1102031999999REMMET011WND 270V350
0054082270999991972011214004+40483-003450FM-15+0607LETO V0209991V00821220001CN0100001N9+00801-00201999999ADDGA1011+010509059MA1102001999999REMMET011WND 270V340
0062082270999991972011215004+40483-003450FM-15+0607LETO V0209991V00771220001CN0100001N9+00901-00301999999ADDGA1011+010509059MA1102001999999REMMET019ACSL SW WND 280V350
0049082270999991972011216004+40483-003450FM-15+0607LETO V0209991V00311220001CN0100001N9+01001-00401999999ADDGA1011+010509059MA1102001999999REMMET006ACSL S
0054082270999991972011217004+40483-003450FM-15+0607LETO V0209991V00461220001CN0100001N9+00901-00101999999ADDGA1021+012009059MA1102031999999REMMET011WND 270V320
0054082270999991972011218004+40483-003450FM-15+0607LETO V0209991V00461220001CN0100001N9+00601+00001999999ADDGA1031+012009059MA1102031999999REMMET011WND 300V350
0076082270999991972011219004+40483-003450FM-15+0607LETO V0209991V005110210019N0100001N9+00601+00101999999ADDGA1041+012009059GA2031+021009039MA1102031999999REMMET017CIG70 WND 270V310
0076082270999991972011220004+40483-003450FM-15+0607LETO V0209991V004610240019N0100001N9+00601+00101999999ADDGA1031+013509059GA2031+024009039MA1102071999999REMMET017CIG80 WND 250V300
0064082270999991972011221004+40483-003450FM-15+0607LETO V0202701N004610240019N0100001N9+00601+00201999999ADDGA1031+013509059GA2031+024009039MA1102071999999REMMET005CIG80
0076082270999991972011222004+40483-003450FM-15+0607LETO V0209991V003610240019N0100001N9+00601+00201999999ADDGA1031+013509059GA2041+024009039MA1102071999999REMMET017CIG80 WND 230V280
0080082270999991972011223004+40483-003450FM-15+0607LETO V0202401N004610240019N0100001N9+00601+00201999999ADDGA1011+007509059GA2031+013509059GA3051+024009039MA1102031999999REMMET005CIG80
0075082270999991972011300004+40483-003450FM-15+0607LETO V0202401N005110240019N0100001N9+00401+00201999999ADDGA1021+013509059GA2031+024009039MA1102031999999REMMET016CIG80 OCNL CIGNO
0064082270999991972011301004+40483-003450FM-15+0607LETO V0202501N005110240019N0100001N9+00401+00301999999ADDGA1051+024009039GA2031+060009029MA1101961999999REMMET005CIG80
0079082270999991972011302004+40483-003450FM-15+0607LETO V0202401N005110240019N0100001N9+00501+00301999999ADDGA1011+013509059GA2051+024009039MA1101901999999REMMET020CIG80 THN SPOTS IOVC
0087082270999991972011303004+40483-003450FM-15+0607LETO V0202501N002110240019N0100001N9+00401+00301999999ADDGA1031+003009079GA2051+024009039MA1101901999999REMMET028CIG80 FG NE-SE VIS LWR NE-SE
0090082270999991972011304004+40483-003450FM-15+0607LETO V0202301N005110021019N0060001N9+00601+00401999999ADDGA1061+002109079GA2031+024009039MA1101831999999MW1461REMMET025CIG07 OCNLY LWR HIR VIS W
0095082270999991972011305004+40483-003450FM-15+0607LETO V0209991V005110033019N0100001N9+00601+00501999999ADDGA1031+002409079GA2041+003309079MA1101761999999MW1601REMMET030CIG11 FG PRSNT E-S WND 230V270
0064082270999991972011306004+40483-003450FM-15+0607LETO V0202401N005710045019N0100001N9+00601+00401999999ADDGA1031+003309079GA2051+004509079MA1101731999999REMMET005CIG15
0064082270999991972011307004+40483-003450FM-15+0607LETO V0202401N005710036019N0100001N9+00601+00401999999ADDGA1021+002409079GA2041+003609079MA1101691999999REMMET005CIG12
0092082270999991972011308004+40483-003450FM-15+0607LETO V0209991V006210045019N0100001N9+00601+00401999999ADDGA1011+002409079GA2031+003609079GA3051+004509079MA1101691999999REMMET017CIG15 WND 210V260
0083082270999991972011309004+40483-003450FM-15+0607LETO V0202501N005110045019N0100001N9+00601+00401999999ADDGA1011+003609079GA2051+004509059MA1101691999999MW1801REMMET018CIG15 PCPN VRY LGT
0089082270999991972011310004+40483-003450FM-15+0607LETO V0202301N005110045019N0100001N9+00601+00301999999ADDGA1021+002409079GA2051+004509059MA1101661999999MW1611REMMET024CIG15 PCPN OCNLY VRY LGT
0117082270999991972011311004+40483-003450FM-15+0607LETO V0209991V006210069019N0100001N9+00701+00301999999ADDGA1011+002409079GA2041+004509059MA1101631999999MW1601REMMET052CIG23 OCNL CIG15/0915 OVC200/280 BKN 300/WND 210V260
0087082270999991972011312004+40483-003450FM-15+0607LETO V0209991V006710051019N0100001N9+00701+00301999999ADDGA1011+003609079GA2051+005109059MA1101631999999REMMET028CIG17 OCNL CIG23 WND 220V270
0092082270999991972011313004+40483-003450FM-15+0607LETO V0209991V005110042019N0090001N9+00701+00401999999ADDGA1021+003609079GA2041+004209079MA1101521999999MW1501REMMET027CIG14 VIS LWR E WND 200V250
0076082270999991972011314004+40483-003450FM-15+0607LETO V0209991V007710063019N0100001N9+00901+00601999999ADDGA1011+003009079GA2041+006309059MA1101391999999REMMET017CIG21 WND 220V280
0106082270999991972011315004+40483-003450FM-15+0607LETO V0203101N002110051019N0100001N9+00401+00201999999ADDGA1031+004209079GA2031+005109059MA1101421999999REMMET047CIG17/1329 OVC 80 /80BKN110/FUHZ E-S-SW WET RWY
0084082270999991972011316004+40483-003450FM-15+0607LETO V0209991V007710099019N0100001N9+00701+00101999999ADDGA1011+003009079GA2031+006909059MA1101421999999REMMET025CIG33 WND 270V340 WET RWY
0075082270999991972011317004+40483-003450FM-15+0607LETO V0209991V00511220001CN0100001N9+00701+00101999999ADDGA1011+007509089MA1101421999999REMMET032TCU NW AND E WND 280V340 WET RWY
0062082270999991972011318004+40483-003450FM-15+0607LETO V0209991V00361220001CN0100001N9+00601+00001999999ADDGA1011+007509089MA1101491999999REMMET019WND 250V310 WET RWY
0050082270999991972011319004+40483-003450FM-15+0607LETO V0203101N00411220001CN0100001N9+00501+00001999999ADDGA1021+009009059MA1101521999999REMMET007WET RWY
0062082270999991972011320004+40483-003450FM-15+0607LETO V0209991V00621220001CN0100001N9+00401-00101999999ADDGA1011+012009059MA1101561999999REMMET019WND 270V320 WET RWY
0050082270999991972011321004+40483-003450FM-15+0607LETO V0202401N00361220001CN0100001N9+00201-00101999999ADDGA1011+012009059MA1101631999999REMMET007WET RWY
0050082270999991972011322004+40483-003450FM-15+0607LETO V0209991V00211220001CN0100001N9+00101-00101999999ADDGA1011+012009059MA1101631999999REMMET007WET RWY
0034082270999991972011323004+40483-003450FM-15+0607LETO V0202601N00511220001CN0100001N9+00301-00201999999ADDGA1011+024009039MA1101591999999
0018082270999991972011400004+40483-003450FM-15+0607LETO V0201701N00311220001CN0100001N9+00201-00201999999ADDMA1101631999999
0018082270999991972011401004+40483-003450FM-15+0607LETO V0201501N00311220001CN0100001N9+00101-00201999999ADDMA1101631999999
0034082270999991972011402004+40483-003450FM-15+0607LETO V0201301N00211220001CN0100001N9+00101-00201999999ADDGA1021+024009039MA1101591999999
0034082270999991972011403004+40483-003450FM-15+0607LETO V0202401N00211220001CN0100001N9+00001-00201999999ADDGA1011+024009039MA1101591999999
0018082270999991972011404004+40483-003450FM-15+0607LETO V0209991C00001220001CN0100001N9-00201-00301999999ADDMA1101521999999
0034082270999991972011405004+40483-003450FM-15+0607LETO V0202701N00051220001CN0100001N9-00101-00201999999ADDGA1011+024009039MA1101561999999
0059082270999991972011406004+40483-003450FM-15+0607LETO V0200501N00051220001CN0100001N9-00101-00201999999ADDGA1011+024009039MA1101521999999REMMET0161FU06 FUHZ ALQDS
0059082270999991972011407004+40483-003450FM-15+0607LETO V0200301N00051220001CN0100001N9-00201-00301999999ADDGA1011+024009039MA1101491999999REMMET0161FU06 FUHZ ALQDS
0053082270999991972011408004+40483-003450FM-15+0607LETO V0200701N00211220001CN0100001N9-00301-00401999999ADDGA1021+024009039MA1101461999999REMMET010FUHZ ALQDS
0067082270999991972011409004+40483-003450FM-15+0607LETO V0209991C00001220001CN0100001N9-00301-00401999999ADDGA1041+024009039MA1101491999999REMMET024FUHZ ALQDS VIS LWR SE-SW
0091082270999991972011410004+40483-003450FM-15+0607LETO V0209991C000010300019N0100001N9+00001-00101999999ADDGA1031+024009039GA2051+030009039MA1101491999999REMMET032CIG100 FUHZ ALQDS VIS SE-SW 9000
0091082270999991972011411004+40483-003450FM-15+0607LETO V0209991V001510300019N0100001N9+00201+00101999999ADDGA1021+024009039GA2061+030009039MA1101521999999REMMET032CIG100 FUHZ ALQDS VIS SE-SW 9000
0086082270999991972011412004+40483-003450FM-15+0607LETO V0200301N001010300019N0090001N9+00201+00101999999ADDGA1011+024009039GA2081+030009049MA1101491999999MW1061REMMET021CIG100 VIS SE-SW 6000
0069082270999991972011413004+40483-003450FM-15+0607LETO V0209991V00101027001CN0090001N9+00301+00101999999ADDGA1081+027009049MA1101391999999MW1061REMMET020CIG90 VIS SE-SW 6000
0054082270999991972011414004+40483-003450FM-15+0607LETO V0200601N00211015001CN0048001N9+00201+00201999999ADDGA1081+015009049MA1101221999999MW1601REMMET005CIG50
0097082270999991972011415004+40483-003450FM-15+0607LETO V0209991V001510051019N0048001N9+00301+00201999999ADDGA1021+003909079GA2031+004509079GA3081+010509049MA1101121999999MW1611REMMET016CIG17 OCNL CIG15
0078082270999991972011416004+40483-003450FM-15+0607LETO V0209991V001510036019N0045001N9+00301+00201999999ADDGA1021+002709079GA2031+003609079MA1100981999999MW1611REMMET013CIG12 WET RWY
0094082270999991972011417004+40483-003450FM-15+0607LETO V0200401N001510030019N0090001N9+00301+00301999999ADDGA1021+002109079GA2041+003009079GA3051+005409049MA1100881999999MW1501REMMET013CIG10 WET RWY
0098082270999991972011418004+40483-003450FM-15+0607LETO V0203501N003110018019N0030001N9+00301+00301999999ADDGA1041+001809079GA2051+002409079MA1100881999999MW1511REMMET033CIG06 1FG// 1FU04 VIS E-S-SW 1900
0078082270999991972011419004+40483-003450FM-15+0607LETO V0209991V003110024019N0070001N9+00301+00201999999ADDGA1031+001809079GA2051+002409079MA1100781999999MW1511REMMET013CIG08 WET RWY
0090082270999991972011420004+40483-003450FM-15+0607LETO V0209991V003110024019N0090001N9+00301+00301999999ADDGA1041+001809079GA2051+002409079MA1100751999999MW1511REMMET025CIG08 VIS LWR E-S WET RWY
0078082270999991972011421004+40483-003450FM-15+0607LETO V0209991V001010024019N0048001N9+00301+00301999999ADDGA1031+001809079GA2051+002409079MA1100711999999MW1511REMMET013CIG08 WET RWY
0078082270999991972011422004+40483-003450FM-15+0607LETO V0209991C000010024019N0048001N9+00401+00401999999ADDGA1041+001809079GA2051+002409079MA1100681999999MW1511REMMET013CIG08 WET RWY
0078082270999991972011423004+40483-003450FM-15+0607LETO V0209991C000010036019N0090001N9+00401+00401999999ADDGA1011+001809079GA2061+003609079MA1100611999999MW1611REMMET013CIG12 WET RWY
0090082270999991972011500004+40483-003450FM-15+0607LETO V0209991V005710042019N0100001N9+00701+00601999999ADDGA1011+002409079GA2051+004209079MA1100541999999MW1611REMMET025CIG14 WND 180V230 WET RWY
0125082270999991972011501004+40483-003450FM-15+0607LETO V0209991V005710045019N0100001N9+00701+00601999999ADDGA1011+002409079GA2051+004509079GA3081+007509049MA1100541999999MW1611REMMET044CIG15/PCPN OCNLY VRY LGT WND 170V220 WET RWY
0133082270999991972011502004+40483-003450FM-15+0607LETO V0209991V006210033019N0100001N9+00701+00601999999ADDGA1011+002409079GA2051+003309079GA3051+004509079MA1100581999999MW1611REMMET052CIG11/CIG RAG PCPN OCNLY VRY LGT WND 170V220 WET RWY
0114082270999991972011503004+40483-003450FM-15+0607LETO V0209991V006210042019N0100001N9+00701+00601999999ADDGA1011+002409079GA2041+004209079GA3081+006909049MA1100541999999MW1611REMMET033CIG14/CIG RAG WND 170V220 WET RWY
0107082270999991972011504004+40483-003450FM-15+0607LETO V0209991V003610069019N0100001N9+00601+00601999999ADDGA1011+002109079GA2031+003609079GA3051+006909059MA1100641999999REMMET032CIG23/ST RAG WND 190V230 WET RWY
0080082270999991972011505004+40483-003450FM-15+0607LETO V0202301N005110027019N0100001N9+00701+00601999999ADDGA1011+002109079GA2041+002709079MA1100681999999REMMET021CIG09/CIG RAG WET RWY
0072082270999991972011506004+40483-003450FM-15+0607LETO V0202501N003110036019N0100001N9+00501+00401999999ADDGA1021+002709079GA2041+003609079MA1100751999999REMMET013CIG12 WET RWY
0050082270999991972011507004+40483-003450FM-15+0607LETO V0202201N00511220001CN0100001N9+00401+00401999999ADDGA1011+002709079MA1100751999999REMMET007WET RWY
0072082270999991972011508004+40483-003450FM-15+0607LETO V0202301N002610036019N0100001N9+00301+00301999999ADDGA1011+002709079GA2041+003609079MA1100881999999REMMET013CIG12 WET RWY
0081082270999991972011509004+40483-003450FM-15+0607LETO V0209991V002612200019N0100001N9+00301+00201999999ADDGA1011+002709079GA2041+060009009MA1100911999999REMMET022CIGNO HZ ALQDS WET RWY
0081082270999991972011510004+40483-003450FM-15+0607LETO V0202101N003112200019N0100001N9+00401+00301999999ADDGA1011+002709079GA2081+060009009MA1100951999999REMMET022CIGNO HZ ALQDS WET RWY
0074082270999991972011511004+40483-003450FM-15+0607LETO V0209991V001010600019N0100001N9+00501+00301999999ADDGA1031+003309079GA2051+060009009MA1101051999999REMMET015CIG200 HZ ALQDS
0073082270999991972011512004+40483-003450FM-15+0607LETO V0209991V002112200019N0100001N9+00701+00301999999ADDGA1011+003609079GA2051+060009009MA1101021999999REMMET014CIGNO HZ ALQDS
0080082270999991972011513004+40483-003450FM-15+0607LETO V0209991V002610063019N0100001N9+00701+00301999999ADDGA1011+003609079GA2031+006309059MA1100981999999REMMET021CIG21 CU BLDUPS ALQDS
0034082270999991972011514004+40483-003450FM-15+0607LETO V0209991V00261220001CN0100001N9+00801+00201999999ADDGA1011+006909059MA1100911999999
0064082270999991972011515004+40483-003450FM-15+0607LETO V0209991C000010090019N0100001N9+00801+00201999999ADDGA1011+006909059GA2041+009009089MA1100781999999REMMET005CIG30
0084082270999991972011516004+40483-003450FM-15+0607LETO V0209991V003110090019N0100001N9+00801+00101999999ADDGA1011+006909059GA2031+009009089MA1100751999999REMMET025CIG30 CU BLDUPS NE AND SW
0079082270999991972011517004+40483-003450FM-15+0607LETO V0201901N001510090019N0100001N9+00801+00001999999ADDGA1011+007509099GA2051+009009059MA1100711999999REMMET020CIG30 CB NNW TCU N-E
0078082270999991972011518004+40483-003450FM-15+0607LETO V0209991C000010090019N0100001N9+00701+00101999999ADDGA1011+007509059GA2041+009009059MA1100681999999REMMET019CIG30 CB NNW DSIPTD
0064082270999991972011519004+40483-003450FM-15+0607LETO V0209991C000012200019N0100001N9+00601+00201999999ADDGA1031+009909059GA2051+060009009MA1100611999999REMMET005CIGNO
0064082270999991972011520004+40483-003450FM-15+0607LETO V0209991V001012200019N0100001N9+00601+00201999999ADDGA1031+009909059GA2041+060009009MA1100581999999REMMET005CIGNO
0064082270999991972011521004+40483-003450FM-15+0607LETO V0201801N002110240019N0100001N9+00701+00201999999ADDGA1021+009009059GA2061+024009049MA1100511999999REMMET005CIG80
0098082270999991972011522004+40483-003450FM-15+0607LETO V0209991V001010240019N0100001N9+00701+00301999999ADDGA1011+009009059GA2031+012009059GA3051+024009049MA1100441999999REMMET023CIG80 OCNL VRY LGT PCPN
0065082270999991972011523004+40483-003450FM-15+0607LETO V0201801N004110600019N0100001N9+00701+00301999999ADDGA1021+012009059GA2051+060009009MA1100441999999REMMET006CIG200
0083082270999991972011600004+40483-003450FM-15+0607LETO V0209991V002110240019N0100001N9+00701+00301999999ADDGA1031+012009059GA2051+024009049MA1100311999999MW1601REMMET018CIG80 PCPN VRY LGT
0091082270999991972011601004+40483-003450FM-15+0607LETO V0209991V001010210019N0100001N9+00701+00401999999ADDGA1021+012009059GA2061+021009049MA1100241999999MW1611REMMET026CIG70 PCPN VRY LGT WET RWY
0090082270999991972011602004+40483-003450FM-15+0607LETO V0209991V004110210019N0100001N9+00701+00401999999ADDGA1031+012009059GA2081+021009049MA1100171999999MW1611REMMET025CIG70/WND 140V190 WET RWY
0094082270999991972011603004+40483-003450FM-15+0607LETO V0209991V001510069019N0100001N9+00601+00401999999ADDGA1011+004509079GA2051+006909059GA3081+021009049MA1100171999999MW1611REMMET013CIG23/WET RWY
0106082270999991972011604004+40483-003450FM-15+0607LETO V0209991V004110075019N0100001N9+00601+00501999999ADDGA1011+002409079GA2031+005109079GA3081+007509049MA1100101999999MW1611REMMET025CIG25/WND 160V200 WET RWY
0090082270999991972011605004+40483-003450FM-15+0607LETO V0209991V004610075019N0100001N9+00501+00401999999ADDGA1021+002409079GA2041+007509049MA1100071999999MW1611REMMET025CIG25/WND 170V210 WET RWY
0091082270999991972011606004+40483-003450FM-15+0607LETO V0209991V002610024019N0100001N9+00501+00401999999ADDGA1021+001509079GA2051+002409079MA1100071999999MW1611REMMET026CIG08/LWR CLDS RAG WET RWY
0091082270999991972011607004+40483-003450FM-15+0607LETO V0209991V002610024019N0100001N9+00501+00401999999ADDGA1011+001509079GA2041+002409079MA1100071999999MW1611REMMET026CIG08/LWR CLDS RAG WET RWY
0109082270999991972011608004+40483-003450FM-15+0607LETO V0209991V003610024019N0070001N9+00401+00401999999ADDGA1011+000609079GA2041+002409079MA1100071999999MW1411REMMET044CIG08 1FG// LWR CLDS RAG WND 210V250 WET RWY
0072082270999991972011609004+40483-003450FM-15+0607LETO V0202401N002110021019N0100001N9+00401+00301999999ADDGA1011+001209079GA2061+002109079MA1100071999999REMMET013CIG07 WET RWY
0111082270999991972011610004+40483-003450FM-15+0607LETO V0202401N002610021019N0100001N9+00401+00301999999ADDGA1021+001209079GA2061+002109079MA1100101999999REMMET052CIG07 THN SPOTS IOVC S BCFG AND LWRG VIS E-S WET RWY
0108082270999991972011611004+40483-003450FM-15+0607LETO V0209991V004110018019N0100001N9+00401+00301999999ADDGA1051+001809079GA2031+003009079MA1100101999999REMMET049CIG06 VIS NE-S 3700 BCFG NE-S WND 210V250 WET RWY
0092082270999991972011612004+40483-003450FM-15+0607LETO V0209991V004110036019N0100001N9+00401+00301999999ADDGA1011+002409079GA2061+003609079MA1100071999999REMMET033CIG12 CIG RAG WND 200V240 WET RWY
0100082270999991972011613004+40483-003450FM-15+0607LETO V0209991V004110060019N0100001N9+00501+00201999999ADDGA1011+003609079GA2031+005109079GA3061+006009059MA1099931999999REMMET025CIG20 WND 190V260 WET RWY
0111082270999991972011614004+40483-003450FM-15+0607LETO V0209991V005710060019N0100001N9+00501+00201999999ADDGA1011+004509079GA2041+005109079GA3061+006009059MA1099761999999REMMET036CIG20 OCNL CIG17 WND 190V260 WET RWY
0084082270999991972011615004+40483-003450FM-15+0607LETO V0209991V007210060019N0100001N9+00501+00101999999ADDGA1011+004509059GA2071+006009059MA1099591999999REMMET025CIG20 WND 180V250 WET RWY
0092082270999991972011616004+40483-003450FM-15+0607LETO V0209991V006710090019N0100001N9+00501+00101999999ADDGA1021+006009089GA2031+007509059GA3051+009009059MA1099531999999REMMET017CIG30 WND 210V270
0050082270999991972011617004+40483-003450FM-15+0607LETO V0202401N004112200019N0100001N9+00501+00001999999ADDGA1011+006009089GA2031+015009039MA1099421999999
0064082270999991972011618004+40483-003450FM-15+0607LETO V0202301N004110090019N0100001N9+00401+00101999999ADDGA1031+006309059GA2041+009009059MA1099361999999REMMET005CIG30
0076082270999991972011619004+40483-003450FM-15+0607LETO V0209991V005110090019N0100001N9+00401-00101999999ADDGA1031+006309059GA2051+009009059MA1099261999999REMMET017CIG30 WND 200V250
0094082270999991972011620004+40483-003450FM-15+0607LETO V0202201N002610063019N0090001N9+00101+00001999999ADDGA1021+001509079GA2031+006309059GA3051+009009059MA1099261999999MW1681REMMET013CIG21 WET RWY
0084082270999991972011621004+40483-003450FM-15+0607LETO V0201601N002110021019N0018001N9+00001+00001999999ADDGA1021+001509079GA2041+002109079MA1099091999999MW1711REMMET019CIG07 2SN// WET RWY
0088082270999991972011622004+40483-003450FM-15+0607LETO V0201001N00101000301CN0009001N9+00001+00001999999ADDGA1091+000309999GF109991999999999999999999MA1098951999999MW1731REMMET013CIG01 WET RWY
0088082270999991972011623004+40483-003450FM-15+0607LETO V0200501N00051000901CN0018001N9+00001+00001999999ADDGA1091+000909999GF109991999999999999999999MA1098821999999MW1711REMMET013CIG03 WET RWY
0088082270999991972011700004+40483-003450FM-15+0607LETO V0209991C00001000601CN0009001N9+00001+00001999999ADDGA1091+000609999GF109991999999999999999999MA1098781999999MW1731REMMET013CIG02 WET RWY
0092082270999991972011701004+40483-003450FM-15+0607LETO V0209991C00001001201CN0024001N9+00001+00001999999ADDGA1091+001209999GF109991999999999999999999MA1098781999999MW1711REMMET017CIG04/90402 SLR14
0087082270999991972011702004+40483-003450FM-15+0607LETO V0209991C00001001201CN0060001N9+00001-00101999999ADDGA1051+001209079MA1098781999999MW1711REMMET038CIG04 1SN// CIG RGD PCPN VRY LGT SLR14
0083082270999991972011703004+40483-003450FM-15+0607LETO V0209991C000010048019N0100001N9+00001-00101999999ADDGA1011+000909079GA2031+001509079MA1098781999999REMMET024CIG16 LWR CLDS RAG SLR14
0097082270999991972011704004+40483-003450FM-15+0607LETO V0209991C000010084019N0100001N9+00101-00101999999ADDGA1011+000909079GA2031+008409059MA1098781999999REMMET038CIG28 FG BANK E-SE VIS S-SE 6000 SLR14
0094082270999991972011705004+40483-003450FM-15+0607LETO V0209991C000010210019N0100001N9+00101-00101999999ADDGA1011+000909079GA2051+021009049MA1098821999999REMMET035CIG70 FG BNK N-E VIS N-E 2800 SLR14
0096082270999991972011706004+40483-003450FM-15+0607LETO V0209991C000010210019N0100001N9+00001-00101999999ADDGA1011+001209079GA2081+021009049MA1098881999999REMMET037CIG70/FG BANK N-NE VIS LWR N-NE SLR14
0076082270999991972011707004+40483-003450FM-15+0607LETO V0209991C000010210019N0100001N9+00001-00101999999ADDGA1011+001209079GA2081+021009049MA1098951999999REMMET017CIG70/90402 LSR14
0070082270999991972011708004+40483-003450FM-15+0607LETO V0209991C000010210019N0100001N9+00101-00101999999ADDGA1011+003009079GA2081+021009049MA1099091999999REMMET011CIG70/SLR14
0070082270999991972011709004+40483-003450FM-15+0607LETO V0209991C000010240019N0100001N9+00201-00201999999ADDGA1021+007509059GA2081+024009049MA1099191999999REMMET011CIG80 SLR14
0064082270999991972011710004+40483-003450FM-15+0607LETO V0209991V002110240019N0100001N9+00201-00201999999ADDGA1021+009009059GA2081+024009049MA1099291999999REMMET005CIG80
0087082270999991972011711004+40483-003450FM-15+0607LETO V0200101N002110240019N0100001N9+00201-00201999999ADDGA1031+009009059GA2071+024009049MA1099391999999REMMET028CIG80 BINOVC NW SUN DMLY VSB
0105082270999991972011712004+40483-003450FM-15+0607LETO V0203401N002610240019N0100001N9+00201-00201999999ADDGA1011+009009059GA2031+015009059GA3071+024009039MA1099461999999REMMET030CIG80 BINOVC NW THN SPOTS IOVC
0079082270999991972011713004+40483-003450FM-15+0607LETO V0200301N005110240019N0100001N9+00301-00201999999ADDGA1011+009009059GA2081+024009049MA1099461999999REMMET020CIG80 THN SPOTS IOVC
0089082270999991972011714004+40483-003450FM-15+0607LETO V0209991V002110240019N0100001N9+00301-00201999999ADDGA1011+009009059GA2031+015009059GA3071+024009049MA1099461999999REMMET014CIG80 VIRGA NW
0076082270999991972011715004+40483-003450FM-15+0607LETO V0209991V004610240019N0100001N9+00401-00101999999ADDGA1011+009009059GA2061+024009049MA1099491999999REMMET017CIG80 WND 340V020
0076082270999991972011716004+40483-003450FM-15+0607LETO V0209991V007710210019N0100001N9+00401-00201999999ADDGA1011+009009059GA2051+021009049MA1099531999999REMMET017CIG70 WND 330V020
0064082270999991972011717004+40483-003450FM-15+0607LETO V0203601N006710210019N0100001N9+00401-00201999999ADDGA1011+009009059GA2041+021009039MA1099631999999REMMET005CIG70
0050082270999991972011718004+40483-003450FM-15+0607LETO V0200101N005112200019N0100001N9+00401-00101999999ADDGA1011+009009059GA2031+021009039MA1099761999999
0050082270999991972011719004+40483-003450FM-15+0607LETO V0200201N005112200019N0100001N9+00301-00301999999ADDGA1011+009009059GA2051+021009039MA1099901999999
0070082270999991972011720004+40483-003450FM-15+0607LETO V0209991V00571220001CN0100001N9+00301-00301999999ADDGA1011+009009059GA2031+021009039MA1100001999999REMMET011WND 350V060
0054082270999991972011721004+40483-003450FM-15+0607LETO V0209991V00621220001CN0100001N9+00301-00301999999ADDGA1011+009009059MA1100101999999REMMET011WND 340V040
0054082270999991972011722004+40483-003450FM-15+0607LETO V0209991V00671220001CN0100001N9+00301-00301999999ADDGA1011+009009059MA1100141999999REMMET011WND 330V010
0034082270999991972011723004+40483-003450FM-15+0607LETO V0209991V00211220001CN0100001N9+00301-00301999999ADDGA1011+009009059MA1100201999999
0034082270999991972011800004+40483-003450FM-15+0607LETO V0209991V00101220001CN0100001N9+00201-00301999999ADDGA1011+009009059MA1100311999999
0054082270999991972011801004+40483-003450FM-15+0607LETO V0209991V00511220001CN0100001N9+00301-00301999999ADDGA1011+009009059MA1100441999999REMMET011WND 030V100
0034082270999991972011802004+40483-003450FM-15+0607LETO V0200101N00411220001CN0100001N9+00301-00101999999ADDGA1011+009009059MA1100471999999
0054082270999991972011803004+40483-003450FM-15+0607LETO V0209991V00621220001CN0100001N9+00301-00201999999ADDGA1011+009009059MA1100541999999REMMET011WND 360V050
0054082270999991972011804004+40483-003450FM-15+0607LETO V0209991V00771220001CN0100001N9+00301-00201999999ADDGA1011+009009059MA1100581999999REMMET011WND 340V050
0038082270999991972011805004+40483-003450FM-15+0607LETO V0209991V00821220001CN0100001N9+00301-00301999999ADDMA1100611999999REMMET011WND 360V040
0038082270999991972011806004+40483-003450FM-15+0607LETO V0209991V00511220001CN0100001N9+00201-00301999999ADDMA1100681999999REMMET011WND 350V040
0054082270999991972011807004+40483-003450FM-15+0607LETO V0209991V00621220001CN0100001N9+00301-00301999999ADDGA1011+012009059MA1100711999999REMMET011WND 340V080
0054082270999991972011808004+40483-003450FM-15+0607LETO V0209991V00621220001CN0100001N9+00301-00301999999ADDGA1011+012009059MA1100851999999REMMET011WND 040V060
0054082270999991972011809004+40483-003450FM-15+0607LETO V0209991V00721220001CN0100001N9+00301-00301999999ADDGA1011+009009059MA1100951999999REMMET011WND 360V040
0061082270999991972011810004+40483-003450FM-15+0607LETO V0209991V00821220001CN0100001N9+00301-00301999999ADDGA1011+009009059MA1101081999999REMMET018WND 360V040 FU E-W
0061082270999991972011811004+40483-003450FM-15+0607LETO V0209991V00931220001CN0100001N9+00501-00301999999ADDGA1011+009009059MA1101151999999REMMET018WND 360V050 FU E-W
0062082270999991972011812004+40483-003450FM-15+0607LETO V0209991V00871220001CN0100001N9+00601-00201999999ADDGA1011+009009059MA1101251999999REMMET019WND 360V040 FU SW-W
0054082270999991972011813004+40483-003450FM-15+0607LETO V0209991V01031220001CN0100001N9+00601-00201999999ADDGA1011+009009059MA1101221999999REMMET011WND 350V040
0054082270999991972011814004+40483-003450FM-15+0607LETO V0209991V01031220001CN0100001N9+00701-00101999999ADDGA1011+105009999MA1101191999999REMMET011WND 360V040
0054082270999991972011815004+40483-003450FM-15+0607LETO V0209991V00931220001CN0100001N9+00601-00201999999ADDGA1011+009009059MA1101221999999REMMET011WND 360V040
0054082270999991972011816004+40483-003450FM-15+0607LETO V0209991V00871220001CN0100001N9+00701-00201999999ADDGA1011+010509059MA1101321999999REMMET011WND 350V040
0054082270999991972011817004+40483-003450FM-15+0607LETO V0209991V00871220001CN0100001N9+00601-00201999999ADDGA1011+009009059MA1101321999999REMMET011WND 350V040
0034082270999991972011818004+40483-003450FM-15+0607LETO V0200101N00671220001CN0100001N9+00401-00201999999ADDGA1011+009009059MA1101421999999
0050082270999991972011819004+40483-003450FM-15+0607LETO V0203501N00361220001CN0100001N9+00301-00301999999ADDGA1011+009009059GA2031+075009009MA1101521999999
0034082270999991972011820004+40483-003450FM-15+0607LETO V0200201N00511220001CN0100001N9+00301-00301999999ADDGA1021+075009009MA1101631999999
0034082270999991972011821004+40483-003450FM-15+0607LETO V0200101N00361220001CN0100001N9+00201-00301999999ADDGA1011+075009009MA1101631999999
0018082270999991972011822004+40483-003450FM-15+0607LETO V0203001N00101220001CN0100001N9+00201-00301999999ADDMA1101691999999
0018082270999991972011823004+40483-003450FM-15+0607LETO V0209991V00211220001CN0100001N9+00101-00301999999ADDMA1101731999999
0018082270999991972011900004+40483-003450FM-15+0607LETO V0209991V00211220001CN0100001N9+00101-00401999999ADDMA1101731999999
0018082270999991972011901004+40483-003450FM-15+0607LETO V0209991C00001220001CN0100001N9-00101-00401999999ADDMA1101731999999
0018082270999991972011902004+40483-003450FM-15+0607LETO V0209991C00001220001CN0100001N9-00101-00401999999ADDMA1101731999999
0034082270999991972011903004+40483-003450FM-15+0607LETO V0209991C00001220001CN0100001N9-00101-00401999999ADDMA1101761999999REMMET007FU SE-S
0036082270999991972011904004+40483-003450FM-15+0607LETO V0209991C00001220001CN0100001N9-00201-00401999999ADDMA1101731999999REMMET009FUHZ SE-S
0018082270999991972011905004+40483-003450FM-15+0607LETO V0209991C00001220001CN0100001N9-00301-00401999999ADDMA1101731999999
0018082270999991972011906004+40483-003450FM-15+0607LETO V0209991C00001220001CN0100001N9-00301-00501999999ADDMA1101691999999
0037082270999991972011907004+40483-003450FM-15+0607LETO V0209991C00001220001CN0100001N9-00401-00701999999ADDMA1101691999999REMMET010FUHZ ALQDS
0037082270999991972011908004+40483-003450FM-15+0607LETO V0209991C00001220001CN0100001N9-00401-00501999999ADDMA1101731999999REMMET010FUHZ ALQDS
0073082270999991972011909004+40483-003450FM-15+0607LETO V0203101N00051220001CN0100001N9-00401-00501999999ADDGA1011+012009059MA1101761999999REMMET0302FU10 FUHZ ALQDS VIS S-SW 6000
0054082270999991972011910004+40483-003450FM-15+0607LETO V0209991C00001220001CN0022001N9-00101-00301999999ADDGA1011+012009059MA1101861999999MW1441REMMET0052FG//
0068082270999991972011911004+40483-003450FM-15+0607LETO V0209991V00051220001CN0028001N9+00101-00301999999ADDGA1011+060009009MA1101901999999MW1061REMMET0192HZ// VIS SE-S 1900
0067082270999991972011912004+40483-003450FM-15+0607LETO V0209991C00001220001CN0060001N9+00301-00201999999ADDGA1011+060009009MA1101901999999MW1061REMMET0181HZ// VIS E-S 3700
0053082270999991972011913004+40483-003450FM-15+0607LETO V0209991V00101220001CN0090001N9+00401-00201999999ADDMA1101831999999MW1061REMMET0201HZ// VIS E-ESE 6000
0047082270999991972011914004+40483-003450FM-15+0607LETO V0209991V00051220001CN0100001N9+00601-00101999999ADDMA1101761999999REMMET020FUHZ ALQDS VIS LWR E
0047082270999991972011915004+40483-003450FM-15+0607LETO V0209991V00101220001CN0100001N9+00701-00101999999ADDMA1101731999999REMMET020FUHZ ALQDS VIS LWR E
0053082270999991972011916004+40483-003450FM-15+0607LETO V0209991V00151220001CN0100001N9+00701-00101999999ADDMA1101731999999REMMET0261FU08 FUHZ ALQDS VIS LWR E
0043082270999991972011917004+40483-003450FM-15+0607LETO V0209991V00101220001CN0100001N9+00801-00101999999ADDMA1101731999999REMMET0161FU08 FUHZ ALQDS
0037082270999991972011918004+40483-003450FM-15+0607LETO V0209991C00001220001CN0100001N9+00701+00001999999ADDMA1101731999999REMMET010FUHZ ALQDS
0053082270999991972011919004+40483-003450FM-15+0607LETO V0209991V00101220001CN0100001N9+00401+00101999999ADDGA1011+018009059MA1101731999999REMMET010FUHZ ALQDS
0037082270999991972011920004+40483-003450FM-15+0607LETO V0201901N00211220001CN0100001N9+00301+00101999999ADDMA1101731999999REMMET010FUHZ ALQDS
0053082270999991972011921004+40483-003450FM-15+0607LETO V0209991C00001220001CN0100001N9+00101+00001999999ADDGA1011+018009059MA1101731999999REMMET010FUHZ ALQDS
0035082270999991972011922004+40483-003450FM-15+0607LETO V0209991C00001220001CN0100001N9+00001+00001999999ADDMA1101731999999REMMET008FU E-S-W
0049082270999991972011923004+40483-003450FM-15+0607LETO V0209991C00001220001CN0100001N9-00101-00101999999ADDGA1011+027009039MA1101691999999REMMET006FU E-S
0049082270999991972012000004+40483-003450FM-15+0607LETO V0209991V00051220001CN0100001N9+00101+00001999999ADDGA1011+030009039MA1101661999999REMMET006FU E-S
0072082270999991972012001004+40483-003450FM-15+0607LETO V0209991C000010300019N0100001N9+00001-00101999999ADDGA1011+007509059GA2061+030009039MA1101661999999REMMET013CIG100 FU E-S
0089082270999991972012002004+40483-003450FM-15+0607LETO V0200601N000510240019N0100001N9+00101+00101999999ADDGA1011+006009059GA2031+012009059GA3051+024009039MA1101561999999REMMET014CIG80 FU ALQDS
0089082270999991972012003004+40483-003450FM-15+0607LETO V0209991V001010240019N0100001N9+00301+00101999999ADDGA1011+006009059GA2031+012009059GA3051+024009039MA1101521999999REMMET014CIG80 FU ALQDS
0081082270999991972012004004+40483-003450FM-15+0607LETO V0209991C000010120019N0070001N9+00201+00101999999ADDGA1011+002109079GA2041+003609079MA1101421999999MW1061REMMET016CIG40 OCNL CIG12
0070082270999991972012005004+40483-003450FM-15+0607LETO V0209991C000010015019N0060001N9+00301+00201999999ADDGA1051+001509079GA2031+002409079MA1101291999999MW1461REMMET005CIG05
0080082270999991972012006004+40483-003450FM-15+0607LETO V0209991C00001000301CN0007001N9+00301+00201999999ADDGA1091+000309999GF109991999999999999999999MA1101191999999MW1501REMMET005CIG01
0088082270999991972012007004+40483-003450FM-15+0607LETO V0209991C00001000601CN0015001N9+00301+00301999999ADDGA1091+000609999GF109991999999999999999999MA1101081999999MW1511REMMET013CIG02 WET RWY
0084082270999991972012008004+40483-003450FM-15+0607LETO V0209991C000010003019N0020001N9+00301+00301999999ADDGA1031+000309079GA2031+000909079MA1101021999999MW1511REMMET019CIG01 3FG// WET RWY
0088082270999991972012009004+40483-003450FM-15+0607LETO V0209991C00001000301CN0004001N9+00301+00301999999ADDGA1091+000309999GF109991999999999999999999MA1100911999999MW1511REMMET013CIG01 WET RWY
0096082270999991972012010004+40483-003450FM-15+0607LETO V0209991V001010060019N0070001N9+00301+00301999999ADDGA1011+001509079GA2051+006009059MA1100981999999MW1611REMMET031CIG20/CB MOVD SE PRESRR WET RWY
0087082270999991972012011004+40483-003450FM-15+0607LETO V0209991C000010210019N0100001N9+00401+00301999999ADDGA1021+006009059GA2081+021009049MA1101121999999REMMET028CIG70/OVC 190/PRESRR WET RWY
0093082270999991972012012004+40483-003450FM-15+0607LETO V0209991V002110210019N0100001N9+00501+00401999999ADDGA1021+006909059GA2061+021009049MA1101121999999MW1601REMMET028CIG70/FG PRSNT ALQDS/WET RWY
0083082270999991972012013004+40483-003450FM-15+0607LETO V0202901N004110210019N0100001N9+00701+00301999999ADDGA1021+006909059GA2031+021009039MA1101051999999REMMET024CIG70 OCNL CIGNO WET RWY
0068082270999991972012014004+40483-003450FM-15+0607LETO V0209991V00621010501CN0100001N9+00901+00301999999ADDGA1051+010509059MA1101021999999REMMET025CIG35/WND 270V320 WET RWY
0089082270999991972012015004+40483-003450FM-15+0607LETO V0209991V005110105019N0100001N9+00801+00201999999ADDGA1011+009009099GA2051+010509059MA1100981999999REMMET030CIG35/CB S MOVG SE/WND 280V340
0089082270999991972012016004+40483-003450FM-15+0607LETO V0209991V005110105019N0100001N9+00801+00201999999ADDGA1011+009009099GA2051+010509059MA1101081999999REMMET030CIG35/CB S MOVG SE/WND 270V320
0120082270999991972012017004+40483-003450FM-15+0607LETO V0209991V003610105019N0100001N9+00701+00201999999ADDGA1021+009009099GA2041+010509059GA3051+060009009MA1101191999999MW1801REMMET039CIG35 CB ENE MOVG SE TCU SW WND 260V340
0110082270999991972012018004+40483-003450FM-15+0607LETO V0209991V010310105019N0100001N9+00401+00201999999ADDGA1041+009009099GA2031+010509059MA1101421999999MW1811REMMET045CIG35 CB OVHD MOVG S VIS N-E 3700 WND 340V070
0116082270999991972012019004+40483-003450FM-15+0607LETO V0209991V008710045019N0100001N9+00401+00201999999ADDGA1051+004509099GA2041+009009059MA1101491999999MW1801REMMET051CIG15 CB S-W-N AND OVHD MOVG SW WND 330V360 WET RWY
0128082270999991972012020004+40483-003450FM-15+0607LETO V0209991V006210240019N0100001N9+00401+00201999999ADDGA1011+004509099GA2041+009009059GA3051+024009039MA1101521999999REMMET053CIG80 OCNL CIG30 CB SW-NW MOVG SW WND 310V350 WET RWY
0101082270999991972012021004+40483-003450FM-15+0607LETO V0209991V007710540019N0100001N9+00401+00101999999ADDGA1021+009009059GA2041+024009039GA3051+054009029MA1101661999999REMMET026CIG180 WND 320V010 WET RWY
0096082270999991972012022004+40483-003450FM-15+0607LETO V0209991V007210540019N0100001N9+00401-00101999999ADDGA1021+024009039GA2041+054009029MA1101731999999REMMET037CIG180 OCNL CIGNO WND 310V010 WET RWY
0078082270999991972012023004+40483-003450FM-15+0607LETO V0209991V00821220001CN0100001N9+00401-00301999999ADDGA1011+024009039GA2031+054009009MA1101801999999REMMET019WND 320V020 WET RWY
0062082270999991972012100004+40483-003450FM-15+0607LETO V0209991V00571220001CN0100001N9+00301-00201999999ADDGA1031+021009039MA1101831999999REMMET019WND 350V040 WET RWY
0076082270999991972012101004+40483-003450FM-15+0607LETO V0209991V005110210019N0100001N9+00301-00201999999ADDGA1011+009009059GA2051+021009039MA1101901999999REMMET017CIG70 WND 320V010
0050082270999991972012102004+40483-003450FM-15+0607LETO V0209991V002112200019N0100001N9+00301-00101999999ADDGA1011+009009059GA2031+021009039MA1101961999999
0034082270999991972012103004+40483-003450FM-15+0607LETO V0209991V00101220001CN0100001N9+00101-00201999999ADDGA1011+021009039MA1102001999999
0054082270999991972012104004+40483-003450FM-15+0607LETO V0209991V00461220001CN0100001N9+00201-00301999999ADDGA1011+060009009MA1102031999999REMMET011WND 310V020
0034082270999991972012105004+40483-003450FM-15+0607LETO V0209991V00101220001CN0100001N9+00101-00401999999ADDGA1011+012009059MA1102031999999
0034082270999991972012106004+40483-003450FM-15+0607LETO V0209991C00001220001CN0100001N9+00301-00401999999ADDGA1011+012009059MA1102031999999
0034082270999991972012107004+40483-003450FM-15+0607LETO V0200201N00311220001CN0100001N9+00201-00401999999ADDGA1011+018009039MA1102031999999
0034082270999991972012108004+40483-003450FM-15+0607LETO V0209991V00311220001CN0100001N9+00101-00401999999ADDGA1011+010509059MA1102071999999
0057082270999991972012109004+40483-003450FM-15+0607LETO V0209991V00101220001CN0100001N9+00101-00401999999ADDGA1011+010509059MA1102101999999REMMET014FUHZ E AND S-W
0059082270999991972012110004+40483-003450FM-15+0607LETO V0209991V00101220001CN0100001N9+00301-00401999999ADDGA1011+010509059MA1102131999999REMMET0161FU06 FUHZ E-S-W
0061082270999991972012111004+40483-003450FM-15+0607LETO V0209991V00151220001CN0100001N9+00301-00301999999ADDGA1011+010509059MA1102131999999REMMET018ACSL NW FUHZ E-S-W
0061082270999991972012112004+40483-003450FM-15+0607LETO V0209991V00211220001CN0100001N9+00501-00301999999ADDGA1011+010509059MA1102131999999REMMET018ACSL NW FUHZ E-S-W
0061082270999991972012113004+40483-003450FM-15+0607LETO V0209991V00261220001CN0100001N9+00701-00301999999ADDGA1011+010509059MA1102071999999REMMET018ACSL NW FUHZ SE-SW
0054082270999991972012114004+40483-003450FM-15+0607LETO V0209991V00571220001CN0100001N9+00901-00201999999ADDGA1011+010509059MA1101961999999REMMET011WND 290V360
0063082270999991972012115004+40483-003450FM-15+0607LETO V0209991V00621220001CN0100001N9+00801-00201999999ADDGA1011+009009059MA1101901999999REMMET020ACSL WSW WND 300V010
0084082270999991972012116004+40483-003450FM-15+0607LETO V0209991V005710210019N0100001N9+00801-00201999999ADDGA1011+009009059GA2031+013509059MA1101901999999REMMET025CIG70/ACSL SW WND 290V360
0076082270999991972012117004+40483-003450FM-15+0607LETO V0209991V005710210019N0100001N9+00701-00201999999ADDGA1011+009009059GA2041+021009039MA1102001999999REMMET017CIG70 WND 310V360
0076082270999991972012118004+40483-003450FM-15+0607LETO V0209991V004110135019N0100001N9+00601+00101999999ADDGA1021+009009059GA2041+013509089MA1102001999999REMMET017CIG45 WND 340V030
0064082270999991972012119004+40483-003450FM-15+0607LETO V0203501N003110135019N0100001N9+00601-00101999999ADDGA1011+009009059GA2051+013509059MA1102001999999REMMET005CIG45
0082082270999991972012120004+40483-003450FM-15+0607LETO V0209991V003610135019N0100001N9+00501+00001999999ADDGA1011+009009059GA2041+013509059MA1102071999999MW1801REMMET017CIG45 WND 350V050
0064082270999991972012121004+40483-003450FM-15+0607LETO V0209991V001510135019N0100001N9+00401+00101999999ADDGA1051+013509059GA2031+021009039MA1102031999999REMMET005CIG45
0048082270999991972012122004+40483-003450FM-15+0607LETO V0203601N00101013501CN0100001N9+00501+00101999999ADDGA1061+013509059MA1102071999999REMMET005CIG45
0060082270999991972012123004+40483-003450FM-15+0607LETO V0209991V00571013501CN0100001N9+00501+00001999999ADDGA1071+013509059MA1102071999999REMMET017CIG45 WND 360V050
0054082270999991972012200004+40483-003450FM-15+0607LETO V0209991V00671220001CN0100001N9+00401-00101999999ADDGA1031+013509059MA1102071999999REMMET011WND 330V040
0034082270999991972012201004+40483-003450FM-15+0607LETO V0203401N00771220001CN0100001N9+00401-00101999999ADDGA1031+012009059MA1102031999999
0054082270999991972012202004+40483-003450FM-15+0607LETO V0209991V00821220001CN0100001N9+00401-00101999999ADDGA1011+012009059MA1102031999999REMMET011WND 330V020
0034082270999991972012203004+40483-003450FM-15+0607LETO V0203501N00671220001CN0100001N9+00301-00201999999ADDGA1011+012009059MA1102031999999
0034082270999991972012204004+40483-003450FM-15+0607LETO V0203601N00621220001CN0100001N9+00301-00201999999ADDGA1011+012009059MA1102031999999
0034082270999991972012205004+40483-003450FM-15+0607LETO V0203601N00511220001CN0100001N9+00301-00201999999ADDGA1011+012009059MA1102001999999
0054082270999991972012206004+40483-003450FM-15+0607LETO V0209991V00621220001CN0100001N9+00301-00201999999ADDGA1021+012009059MA1102031999999REMMET011WND 340V040
0054082270999991972012207004+40483-003450FM-15+0607LETO V0209991V00721220001CN0100001N9+00301-00201999999ADDGA1011+012009059MA1102031999999REMMET011WND 330V040
0054082270999991972012208004+40483-003450FM-15+0607LETO V0209991V00871220001CN0100001N9+00301-00301999999ADDGA1021+012009059MA1102071999999REMMET011WND 340V030
0054082270999991972012209004+40483-003450FM-15+0607LETO V0209991V00621220001CN0100001N9+00301-00301999999ADDGA1011+004509079MA1102131999999REMMET011WND 340V040
0054082270999991972012210004+40483-003450FM-15+0607LETO V0209991V00931220001CN0100001N9+00401-00201999999ADDGA1011+009009059MA1102171999999REMMET011WND 350V040
0054082270999991972012211004+40483-003450FM-15+0607LETO V0209991V00931220001CN0100001N9+00601-00201999999ADDGA1011+010509059MA1102241999999REMMET011WND 340V040
0054082270999991972012212004+40483-003450FM-15+0607LETO V0209991V00981220001CN0100001N9+00701-00101999999ADDGA1011+010509059MA1102271999999REMMET011WND 340V050
0054082270999991972012213004+40483-003450FM-15+0607LETO V0209991V01231220001CN0100001N9+00701-00201999999ADDGA1011+010509059MA1102171999999REMMET011WND 320V010
0061082270999991972012214004+40483-003450FM-15+0607LETO V0209991V01291220001CN0100001N9+00701-00201999999ADDGA1011+010509059MA1102131999999REMMET018ACSL W WND 320V010
0061082270999991972012215004+40483-003450FM-15+0607LETO V0209991V01031220001CN0100001N9+00801-00201999999ADDGA1011+010509059MA1102131999999REMMET018ACSL W WND 330V010
0054082270999991972012216004+40483-003450FM-15+0607LETO V0209991V01031220001CN0100001N9+00701-00401999999ADDGA1011+010509059MA1102101999999REMMET011WND 330V030
0054082270999991972012217004+40483-003450FM-15+0607LETO V0209991V01081220001CN0100001N9+00701-00301999999ADDGA1011+010509059MA1102101999999REMMET011WND 340V040
0054082270999991972012218004+40483-003450FM-15+0607LETO V0209991V01231220001CN0100001N9+00501-00401999999ADDGA1011+010509059MA1102101999999REMMET011WND 330V030
0054082270999991972012219004+40483-003450FM-15+0607LETO V0209991V00821220001CN0100001N9+00301-00401999999ADDGA1011+010509059MA1102171999999REMMET011WND 340V030
0038082270999991972012220004+40483-003450FM-15+0607LETO V0209991V00871220001CN0100001N9+00301-00401999999ADDMA1102201999999REMMET011WND 340V040
0038082270999991972012221004+40483-003450FM-15+0607LETO V0209991V00721220001CN0100001N9+00201-00401999999ADDMA1102241999999REMMET011WND 350V030
0038082270999991972012222004+40483-003450FM-15+0607LETO V0209991V00721220001CN0100001N9+00201-00401999999ADDMA1102271999999REMMET011WND 330V030
0018082270999991972012223004+40483-003450FM-15+0607LETO V0209991V00101220001CN0100001N9+00101-00601999999ADDMA1102301999999
0018082270999991972012300004+40483-003450FM-15+0607LETO V0200401N00311220001CN0100001N9-00101-00701999999ADDMA1102301999999
0038082270999991972012301004+40483-003450FM-15+0607LETO V0209991V00461220001CN0100001N9-00101-00601999999ADDMA1102271999999REMMET011WND 020V060
0018082270999991972012302004+40483-003450FM-15+0607LETO V0200201N00361220001CN0100001N9-00101-00601999999ADDMA1102301999999
0018082270999991972012303004+40483-003450FM-15+0607LETO V0202101N00151220001CN0100001N9-00301-00601999999ADDMA1102241999999
0018082270999991972012304004+40483-003450FM-15+0607LETO V0200501N00261220001CN0100001N9-00301-00601999999ADDMA1102241999999
0018082270999991972012305004+40483-003450FM-15+0607LETO V0200601N00361220001CN0100001N9-00201-00601999999ADDMA1102241999999
0018082270999991972012306004+40483-003450FM-15+0607LETO V0200301N00101220001CN0100001N9-00301-00601999999ADDMA1102241999999
0018082270999991972012307004+40483-003450FM-15+0607LETO V0209991V00101220001CN0100001N9-00301-00701999999ADDMA1102271999999
0054082270999991972012308004+40483-003450FM-15+0607LETO V0209991V00511220001CN0100001N9-00101-00701999999ADDGA1011+012009059MA1102271999999REMMET011WND 350V030
0034082270999991972012309004+40483-003450FM-15+0607LETO V0203501N00571220001CN0100001N9-00101-00701999999ADDGA1011+012009059MA1102271999999
0034082270999991972012310004+40483-003450FM-15+0607LETO V0203601N00671220001CN0100001N9+00201-00601999999ADDGA1011+012009059MA1102241999999
0054082270999991972012311004+40483-003450FM-15+0607LETO V0209991V00461220001CN0100001N9+00301-00701999999ADDGA1011+012009059MA1102201999999REMMET011WND 360V080
0054082270999991972012312004+40483-003450FM-15+0607LETO V0209991V00931220001CN0100001N9+00601-00901999999ADDGA1011+009009059MA1102171999999REMMET011WND 020V090
0054082270999991972012313004+40483-003450FM-15+0607LETO V0209991V00821220001CN0100001N9+00601-00901999999ADDGA1011+009009059MA1102131999999REMMET011WND 040V090
0054082270999991972012314004+40483-003450FM-15+0607LETO V0209991V00821220001CN0100001N9+00701-00901999999ADDGA1011+009009059MA1102071999999REMMET011WND 040V100
0054082270999991972012315004+40483-003450FM-15+0607LETO V0209991V00621220001CN0100001N9+00801-01101999999ADDGA1011+009009059MA1102031999999REMMET011WND 040V110
0038082270999991972012316004+40483-003450FM-15+0607LETO V0209991V00671220001CN0100001N9+00801-00901999999ADDMA1102001999999REMMET011WND 070V120
0018082270999991972012317004+40483-003450FM-15+0607LETO V0200901N00511220001CN0100001N9+00801-01001999999ADDMA1102031999999
0018082270999991972012318004+40483-003450FM-15+0607LETO V0200501N00151220001CN0100001N9+00601-00701999999ADDMA1102071999999
0018082270999991972012319004+40483-003450FM-15+0607LETO V0200301N00211220001CN0100001N9+00301-00601999999ADDMA1102101999999
0018082270999991972012320004+40483-003450FM-15+0607LETO V0203501N00361220001CN0100001N9-00101-00501999999ADDMA1102131999999
0018082270999991972012321004+40483-003450FM-15+0607LETO V0200601N00211220001CN0100001N9+00101-00601999999ADDMA1102171999999
0033082270999991972012322004+40483-003450FM-15+0607LETO V0200501N00411220001CN0100001N9-00201-00701999999ADDMA1102171999999REMMET006FU E-S
0033082270999991972012323004+40483-003450FM-15+0607LETO V0200301N00151220001CN0100001N9-00101-00601999999ADDMA1102171999999REMMET006FU E-S
0033082270999991972012400004+40483-003450FM-15+0607LETO V0202701N00101220001CN0100001N9-00401-00701999999ADDMA1102171999999REMMET006FU E-S
0033082270999991972012401004+40483-003450FM-15+0607LETO V0203601N00151220001CN0100001N9-00401-00701999999ADDMA1102201999999REMMET006FU E-S
0033082270999991972012402004+40483-003450FM-15+0607LETO V0200401N00261220001CN0100001N9-00501-00601999999ADDMA1102131999999REMMET006FU E-S
0033082270999991972012403004+40483-003450FM-15+0607LETO V0200401N00101220001CN0100001N9-00401-00601999999ADDMA1102131999999REMMET006FU E-S
0036082270999991972012404004+40483-003450FM-15+0607LETO V0200401N00101220001CN0100001N9-00501-00601999999ADDMA1102131999999REMMET009FU E-S-SW
0043082270999991972012405004+40483-003450FM-15+0607LETO V0200801N00261220001CN0100001N9-00601-00701999999ADDMA1102131999999REMMET0161FU04 FUHZ E-S-W
0043082270999991972012406004+40483-003450FM-15+0607LETO V0200201N00211220001CN0100001N9-00601-00701999999ADDMA1102131999999REMMET0161FU05 FUHZ ALQDS
0043082270999991972012407004+40483-003450FM-15+0607LETO V0202601N00151220001CN0100001N9-00801-00901999999ADDMA1102101999999REMMET0161FU05 FUHZ ALQDS
0059082270999991972012408004+40483-003450FM-15+0607LETO V0203101N00101220001CN0100001N9-00601-00801999999ADDGA1011+012009059MA1102131999999REMMET0161FU04 FUHZ ALQDS
0062082270999991972012409004+40483-003450FM-15+0607LETO V0209991C00001220001CN0100001N9-00601-00801999999ADDGA1011+024009039MA1102201999999REMMET019FUHZ ALQDS ACSL WNW
0072082270999991972012410004+40483-003450FM-15+0607LETO V0209991C00001220001CN0090001N9-00301-00601999999ADDGA1011+010509059MA1102241999999MW1061REMMET023VIS E-S-SW 6000 ACSL NW
0061082270999991972012411004+40483-003450FM-15+0607LETO V0209991V00101220001CN0100001N9-00101-00601999999ADDGA1011+024009039MA1102241999999REMMET018FUHZ ALQDS ACSL NW
0097082270999991972012412004+40483-003450FM-15+0607LETO V0209991V001012200019N0100001N9+00101-00701999999ADDGA1011+024009039GA2031+060009009MA1102201999999REMMET038CIGNO 1HZ// FUHZ ALQDS VIS E-S-SW 6000
0077082270999991972012413004+40483-003450FM-15+0607LETO V0209991V00101220001CN0100001N9+00301-00601999999ADDGA1011+024009039GA2031+060009009MA1102171999999REMMET018FUHZ ALQDS ACSL NW
0080082270999991972012414004+40483-003450FM-15+0607LETO V0209991V00101220001CN0100001N9+00401-00401999999ADDGA1011+024009039GA2031+060009009MA1102131999999REMMET021FUHZ ALQDS ACSL NW-NE
0064082270999991972012415004+40483-003450FM-15+0607LETO V0209991V00101220001CN0100001N9+00501-00401999999ADDGA1011+024009039MA1102071999999REMMET021FUHZ ALQDS ACSL ALQDS
0053082270999991972012416004+40483-003450FM-15+0607LETO V0209991V00211220001CN0100001N9+00701-00401999999ADDGA1011+024009039MA1102001999999REMMET010FUHZ ALQDS
0053082270999991972012417004+40483-003450FM-15+0607LETO V0209991V00211220001CN0100001N9+00601-00401999999ADDGA1011+024009039MA1102031999999REMMET010FUHZ ALQDS
0053082270999991972012418004+40483-003450FM-15+0607LETO V0201801N00101220001CN0100001N9+00501-00301999999ADDGA1011+045009039MA1102071999999REMMET010FUHZ ALQDS
0053082270999991972012419004+40483-003450FM-15+0607LETO V0209991C00001220001CN0100001N9+00101-00201999999ADDGA1011+024009039MA1102071999999REMMET010FUHZ ALQDS
0053082270999991972012420004+40483-003450FM-15+0607LETO V0209991C00001220001CN0100001N9+00001-00201999999ADDGA1011+024009039MA1102131999999REMMET010FUHZ ALQDS
0034082270999991972012421004+40483-003450FM-15+0607LETO V0209991C00001220001CN0100001N9-00201-00301999999ADDGA1011+060009029MA1102101999999
0050082270999991972012422004+40483-003450FM-15+0607LETO V0200101N00151220001CN0100001N9-00101-00301999999ADDGA1011+024009039GA2031+060009029MA1102171999999
0034082270999991972012423004+40483-003450FM-15+0607LETO V0209991C00001220001CN0100001N9-00101-00301999999ADDGA1011+024009039MA1102201999999
0034082270999991972012500004+40483-003450FM-15+0607LETO V0203401N00101220001CN0100001N9-00201-00301999999ADDGA1011+024009039MA1102201999999
0075082270999991972012501004+40483-003450FM-15+0607LETO V0200401N001512200019N0100001N9-00201-00301999999ADDGA1011+012009059GA2051+060009029MA1102201999999REMMET016CIGNO/FUHZ ALQDS
0076082270999991972012502004+40483-003450FM-15+0607LETO V0209991C000010600019N0100001N9-00201-00401999999ADDGA1041+021009039GA2031+060009029MA1102131999999REMMET017CIG200/FUHZ ALQDS
0053082270999991972012503004+40483-003450FM-15+0607LETO V0203501N00151220001CN0100001N9-00201-00401999999ADDGA1021+021009039MA1102131999999REMMET010FUHZ ALQDS
0069082270999991972012504004+40483-003450FM-15+0607LETO V0209991V00101220001CN0100001N9-00301-00401999999ADDGA1011+021009039GA2031+060009029MA1102131999999REMMET010FUHZ ALQDS
0060082270999991972012505004+40483-003450FM-15+0607LETO V0209991V00101060001CN0100001N9-00301-00401999999ADDGA1031+021009039MA1102131999999REMMET017CIG200/FUHZ ALQDS
0053082270999991972012506004+40483-003450FM-15+0607LETO V0209991C00001220001CN0100001N9-00301-00401999999ADDGA1021+021009039MA1102101999999REMMET010FUHZ ALQDS
0053082270999991972012507004+40483-003450FM-15+0607LETO V0209991V00101220001CN0100001N9-00301-00401999999ADDGA1021+021009039MA1102131999999REMMET010FUHZ ALQDS
0069082270999991972012508004+40483-003450FM-15+0607LETO V0209991V00151220001CN0100001N9-00301-00401999999ADDGA1011+021009039GA2031+060009029MA1102171999999REMMET010FUHZ ALQDS
0070082270999991972012509004+40483-003450FM-15+0607LETO V0209991V001012200019N0090001N9-00201-00401999999ADDGA1011+008409059GA2061+060009009MA1102201999999MW1041REMMET005CIGNO
0080082270999991972012510004+40483-003450FM-15+0607LETO V0209991C000012200019N0090001N9+00301+00101999999ADDGA1011+008409059GA2081+060009009MA1102271999999MW1061REMMET015CIGNO VIS S6000
0076082270999991972012511004+40483-003450FM-15+0607LETO V0209991V004612200019N0100001N9+00601+00001999999ADDGA1011+009009059GA2081+060009029MA1102301999999REMMET017CIGNO WND 360V040
0077082270999991972012512004+40483-003450FM-15+0607LETO V0209991V005710600019N0100001N9+00701+00001999999ADDGA1011+009009059GA2081+060009029MA1102341999999REMMET018CIG200 WND 350V030
