0075083970999991972010309004+37183-005617FM-15+0093LEMO V0209991C000012200019N0100001N9+00401+00001999999ADDGA1011+999999039GA2051+021009009MA1101801999999REMMET016CIGNO //       ÿ
0034083970999991972010310004+37183-005617FM-15+0093LEMO V0200601N00261220001CN0100001N9+00601+00101999999ADDGA1011+999999039MA1101861999999
0034083970999991972010311004+37183-005617FM-15+0093LEMO V0209991V00151220001CN0100001N9+00801+00201999999ADDGA1011+999999039MA1101961999999
0034083970999991972010312004+37183-005617FM-15+0093LEMO V0209991V00151220001CN0100001N9+01101+00401999999ADDGA1021+999999039MA1101961999999
0034083970999991972010313004+37183-005617FM-15+0093LEMO V0209991V00151220001CN0100001N9+01301+00601999999ADDGA1021+012009089MA1101861999999
0034083970999991972010314004+37183-005617FM-15+0093LEMO V0209991C00001220001CN0100001N9+01301+00601999999ADDGA1021+012009089MA1101801999999
0034083970999991972010315004+37183-005617FM-15+0093LEMO V0209991C00001220001CN0100001N9+01401+00701999999ADDGA1021+012009089MA1101761999999
0034083970999991972010316004+37183-005617FM-15+0093LEMO V0209991V00211220001CN0100001N9+01501+00701999999ADDGA1011+012009089MA1101801999999
0071083970999991972010409004+37183-005617FM-15+0093LEMO V0200301N001012200019N0100001N9+00801+00401999999ADDGA1011+007509089GA2081+021009029MA1101731999999REMMET012CIGNO//FIRST
0064083970999991972010410004+37183-005617FM-15+0093LEMO V0200401N001512200019N0100001N9+00901+00501999999ADDGA1011+007509089GA2081+021009029MA1101731999999REMMET005CIGNO
0064083970999991972010411004+37183-005617FM-15+0093LEMO V0200601N001512200019N0100001N9+01201+00601999999ADDGA1011+007509089GA2081+021009029MA1101731999999REMMET005CIGNO
0064083970999991972010412004+37183-005617FM-15+0093LEMO V0209991V002612200019N0100001N9+01601+00701999999ADDGA1011+010509089GA2081+021009029MA1101661999999REMMET005CIGNO
0064083970999991972010413004+37183-005617FM-15+0093LEMO V0209991C000012200019N0100001N9+01601+00701999999ADDGA1011+007509089GA2081+021009029MA1101561999999REMMET005CIGNO
0064083970999991972010414004+37183-005617FM-15+0093LEMO V0209991C000012200019N0100001N9+01701+00701999999ADDGA1011+007509089GA2081+021009029MA1101461999999REMMET005CIGNO
0064083970999991972010415004+37183-005617FM-15+0093LEMO V0209991C000012200019N0100001N9+01701+00701999999ADDGA1011+007509089GA2061+021009029MA1101391999999REMMET005CIGNO
0070083970999991972010416004+37183-005617FM-15+0093LEMO V0209991C000012200019N0100001N9+01701+00701999999ADDGA1011+007509089GA2051+021009029MA1101351999999REMMET011CIGNO//LAST
0072083970999991972010509004+37183-005617FM-15+0093LEMO V0209991C000010600019N0100001N9+00701+00301999999ADDGA1011+021009039GA2081+021009029MA1100981999999REMMET013CIG200//FIRST
0049083970999991972010510004+37183-005617FM-15+0093LEMO V0209991C00001060001CN0100001N9+00801+00401999999ADDGA1081+021009029MA1101051999999REMMET006CIG200
0049083970999991972010511004+37183-005617FM-15+0093LEMO V0209991C00001060001CN0100001N9+00901+00601999999ADDGA1081+021009029MA1101121999999REMMET006CIG200
0065083970999991972010512004+37183-005617FM-15+0093LEMO V0209991V002610270019N0100001N9+01001+00601999999ADDGA1051+027009039GA2081+021009029MA1101321999999REMMET006CIG090
0065083970999991972010513004+37183-005617FM-15+0093LEMO V0209991C000010270019N0100001N9+01101+00601999999ADDGA1061+999999039GA2081+021009029MA1101321999999REMMET006CIG090
0065083970999991972010514004+37183-005617FM-15+0093LEMO V0209991C000010240019N0100001N9+01101+00601999999ADDGA1051+999999039GA2081+021009029MA1101321999999REMMET006CIG080
0065083970999991972010515004+37183-005617FM-15+0093LEMO V0209991C000010240019N0100001N9+01201+00701999999ADDGA1061+999999039GA2081+021009029MA1101151999999REMMET006CIG080
0071083970999991972010516004+37183-005617FM-15+0093LEMO V0209991C000010600019N0100001N9+01301+00701999999ADDGA1041+999999039GA2081+021009029MA1101151999999REMMET012CIG200//LAST
0072083970999991972010609004+37183-005617FM-15+0093LEMO V0209991V002110042019N0100001N9+01201+00801999999ADDGA1011+003009059GA2071+004209059MA1101051999999REMMET013CIG014//FIRST
0049083970999991972010610004+37183-005617FM-15+0093LEMO V0201901N00511004801CN0100001N9+01301+00801999999ADDGA1071+004809059MA1101151999999REMMET006CIG016
0076083970999991972010611004+37183-005617FM-15+0093LEMO V0209991V005110066019N0100001N9+01301+00801999999ADDGA1011+003609059GA2081+006609059MA1101221999999REMMET017CIG22 WND 170 220
0065083970999991972010612004+37183-005617FM-15+0093LEMO V0201901N004110072019N0100001N9+01301+00801999999ADDGA1011+004209059GA2081+007209059MA1101291999999REMMET006CIG024
0067083970999991972010613004+37183-005617FM-15+0093LEMO V0202201N00311006001CN0100001N9+01201+00801999999ADDGA1071+006009059MA1101251999999REMMET024CIG020 OCNL VRY LGT PCPN
0057083970999991972010614004+37183-005617FM-15+0093LEMO V0202201N00621007201CN0100001N9+01201+00801999999ADDGA1071+007209059MA1101191999999REMMET014CIG024 CIG RGD
0073083970999991972010615004+37183-005617FM-15+0093LEMO V0202201N003110072019N0060001N9+01201+00801999999ADDGA1011+003009079GA2081+007209059MA1101191999999REMMET014CIG024 CIG RG4
0071083970999991972010616004+37183-005617FM-15+0093LEMO V0202901N001510015019N0100001N9+01201+00801999999ADDGA1061+001509079GA2081+007209059MA1101251999999REMMET012CIG005//LAST
0056083970999991972010709004+37183-005617FM-15+0093LEMO V0209991C00001003001CN0037001N9+00901+00701999999ADDGA1081+003009079MA1101831999999REMMET013CIG010//FIRST
0049083970999991972010710004+37183-005617FM-15+0093LEMO V0203601N00101000301CN0007001N9+00901+00701999999ADDGA1091+000309999MA1101931999999REMMET006CIG001
0049083970999991972010711004+37183-005617FM-15+0093LEMO V0200301N00101000901CN0028001N9+00901+00701999999ADDGA1091+000909999MA1102001999999REMMET006CIG003
0049083970999991972010712004+37183-005617FM-15+0093LEMO V0209991C00001000901CN0028001N9+01001+00701999999ADDGA1091+000909999MA1102031999999REMMET006CIG003
0049083970999991972010713004+37183-005617FM-15+0093LEMO V0209991C00001001501CN0100001N9+01101+00801999999ADDGA1081+001509079MA1101901999999REMMET006CIG005
0049083970999991972010714004+37183-005617FM-15+0093LEMO V0209991C00001002401CN0100001N9+01201+00801999999ADDGA1071+002409079MA1101801999999REMMET006CIG008
0049083970999991972010715004+37183-005617FM-15+0093LEMO V0209991C00001060001CN0100001N9+01301+00901999999ADDGA1041+003309059MA1101801999999REMMET006CIG200
0034083970999991972010716004+37183-005617FM-15+0093LEMO V0209991C00001220001CN0100001N9+01201+00801999999ADDGA1021+004209059MA1101801999999
0071083970999991972011009004+37183-005617FM-15+0093LEMO V0209991C000012200019N0100001N9+00301+00001999999ADDGA1011+999999039GA2051+999999009MA1102681999999REMMET012CIGNO//FIRST
0048083970999991972011010004+37183-005617FM-15+0093LEMO V0209991C00001220001CN0100001N9+00601+00301999999ADDGA1061+999999009MA1102781999999REMMET005CIGNO
0048083970999991972011011004+37183-005617FM-15+0093LEMO V0209991C00001220001CN0100001N9+00801+00401999999ADDGA1061+999999009MA1102841999999REMMET005CIGNO
0034083970999991972011012004+37183-005617FM-15+0093LEMO V0209991C00001220001CN0100001N9+01101+00601999999ADDGA1041+999999009MA1102881999999
0064083970999991972011013004+37183-005617FM-15+0093LEMO V0209991C000012200019N0100001N9+01201+00601999999ADDGA1011+009009089GA2061+999999009MA1102811999999REMMET005CIGNO
0048083970999991972011014004+37183-005617FM-15+0093LEMO V0209991C00001220001CN0100001N9+01301+00501999999ADDGA1061+999999009MA1102681999999REMMET005CIGNO
0048083970999991972011015004+37183-005617FM-15+0093LEMO V0209991C00001220001CN0100001N9+01301+00601999999ADDGA1071+999999009MA1102611999999REMMET005CIGNO
0054083970999991972011016004+37183-005617FM-15+0093LEMO V0209991C00001220001CN0100001N9+01401+00601999999ADDGA1071+999999009MA1102641999999REMMET011CIGNO//LAST
0055083970999991972011109004+37183-005617FM-15+0093LEMO V0209991C00001220001CN0070001N9+00301+00001999999ADDGA1071+999999009MA1102071999999REMMET012CIGNO//FIRST
0064083970999991972011110004+37183-005617FM-15+0093LEMO V0209991C000012200019N0100001N9+00601+00201999999ADDGA1011+999999039GA2071+999999009MA1102071999999REMMET005CIGNO
0064083970999991972011111004+37183-005617FM-15+0093LEMO V0209991C000012200019N0100001N9+00901+00401999999ADDGA1011+999999039GA2071+999999009MA1102131999999REMMET005CIGNO
0064083970999991972011112004+37183-005617FM-15+0093LEMO V0209991C000012200019N0100001N9+01101+00501999999ADDGA1011+999999039GA2071+999999009MA1102101999999REMMET005CIGNO
0064083970999991972011113004+37183-005617FM-15+0093LEMO V0209991V001512200019N0100001N9+01201+00501999999ADDGA1011+999999039GA2071+999999009MA1102071999999REMMET005CIGNO
0048083970999991972011114004+37183-005617FM-15+0093LEMO V0209991C00001220001CN0100001N9+01301+00501999999ADDGA1071+999999009MA1101931999999REMMET005CIGNO
0064083970999991972011115004+37183-005617FM-15+0093LEMO V0209991V001012200019N0100001N9+01401+00501999999ADDGA1011+999999039GA2071+999999009MA1101901999999REMMET005CIGNO
0098083970999991972011116004+37183-005617FM-15+0093LEMO V0209991V004612200019N0100001N9+01601+00801999999ADDGA1011+009009059GA2051+018009039GA3071+999999009MA1101801999999REMMET023CIGNO WND 170V230//LAST
0056083970999991972011209004+37183-005617FM-15+0093LEMO V0209991C00001000601CN0009001N9+00501+00201999999ADDGA1091+000609999MA1102681999999REMMET013CIG002//FIRST
0065083970999991972011210004+37183-005617FM-15+0093LEMO V0209991C00001220001CN0028001N9+00601+00301999999ADDGA1011+000609079MA1102711999999REMMET0222FG// VSBY SW-NW-N 0.7
0034083970999991972011211004+37183-005617FM-15+0093LEMO V0209991V00151220001CN0100001N9+00801+00401999999ADDGA1011+001809079MA1102741999999
0034083970999991972011212004+37183-005617FM-15+0093LEMO V0209991V00311220001CN0100001N9+00901+00601999999ADDGA1011+006009089MA1102781999999
0034083970999991972011213004+37183-005617FM-15+0093LEMO V0209991V00261220001CN0100001N9+01101+00501999999ADDGA1011+006009089MA1102681999999
0034083970999991972011214004+37183-005617FM-15+0093LEMO V0209991V00311220001CN0100001N9+01201+00401999999ADDGA1011+006009089MA1102641999999
0034083970999991972011215004+37183-005617FM-15+0093LEMO V0209991V00311220001CN0100001N9+01201+00401999999ADDGA1011+006609089MA1102611999999
0034083970999991972011216004+37183-005617FM-15+0093LEMO V0209991V00211220001CN0100001N9+01301+00401999999ADDGA1011+006609089MA1102571999999
0072083970999991972011309004+37183-005617FM-15+0093LEMO V0201901N001510096019N0100001N9+00801+00401999999ADDGA1051+009609059GA2031+999999039MA1102271999999REMMET013CIG032//FIRST
0065083970999991972011310004+37183-005617FM-15+0093LEMO V0201801N002110240019N0100001N9+00901+00601999999ADDGA1011+006009089GA2031+999999039MA1102271999999REMMET006CIG080
0065083970999991972011311004+37183-005617FM-15+0093LEMO V0202001N002110096019N0100001N9+01201+00701999999ADDGA1011+006009089GA2041+009609059MA1102301999999REMMET006CIG032
0084083970999991972011312004+37183-005617FM-15+0093LEMO V0202001N004110096019N0100001N9+01301+00801999999ADDGA1021+006009089GA2041+009609059MA1102271999999REMMET025CIG032 OCNLY  RY LGT RASH
0065083970999991972011313004+37183-005617FM-15+0093LEMO V0202201N004610096019N0100001N9+01301+00801999999ADDGA1021+005409089GA2061+009609059MA1102171999999REMMET006CIG032
0077083970999991972011314004+37183-005617FM-15+0093LEMO V0202201N005110096019N0100001N9+01301+00801999999ADDGA1031+005409089GA2081+009609059MA1102071999999REMMET018CIG032 RASHU  -W-N
0084083970999991972011315004+37183-005617FM-15+0093LEMO V0202201N004110096019N0100001N9+01301+00901999999ADDGA1031+005409089GA2061+009609059MA1102031999999REMMET025CIG032 PCPN O3NLY VRY LGT
0105083970999991972011316004+37183-005617FM-15+0093LEMO V0209991V005110240019N0100001N9+01301+00901999999ADDGA1011+003309079GA2031+005409089MA1101961999999REMMET046CIG080 WND 200V270 RASH E-S-SSW TCU SE-S//LAST
0072083970999991972011409004+37183-005617FM-15+0093LEMO V0202001N003110600019N0100001N9+01101+00801999999ADDGA1021+004809089GA2061+021009029MA1101521999999REMMET013CIG200//FIRST
0065083970999991972011410004+37183-005617FM-15+0093LEMO V0201901N003610600019N0100001N9+01201+00801999999ADDGA1021+004809089GA2081+021009029MA1101521999999REMMET006CIG200
0081083970999991972011411004+37183-005617FM-15+0093LEMO V0202001N005710600019N0100001N9+01201+00801999999ADDGA1011+005109089GA2031+012009059GA3081+021009029MA1101521999999REMMET006CIG200
0077083970999991972011412004+37183-005617FM-15+0093LEMO V0209991V006710600019N0100001N9+01301+00801999999ADDGA1011+005409089GA2081+021009029MA1101491999999REMMET018CIG200 WND 170V220
0090083970999991972011413004+37183-005617FM-15+0093LEMO V0209991V007210600019N0100001N9+01301+00801999999ADDGA1011+005409089GA2081+021009029MA1101391999999REMMET031CIG200 WND 190V220 PCPN VRY LGT
0094083970999991972011414004+37183-005617FM-15+0093LEMO V0202001N007210600019N0100001N9+01301+00801999999ADDGA1011+005409089GA2031+012009059GA3081+021009029MA1101251999999REMMET019CIG200 PCPN VRY LGT
0077083970999991972011415004+37183-005617FM-15+0093LEMO V0209991V007210600019N0100001N9+01301+00801999999ADDGA1011+005409089GA2081+021009029MA1101121999999REMMET018CIG200 WND 170V230
0101083970999991972011416004+37183-005617FM-15+0093LEMO V0209991V007210600019N0100001N9+01301+00701999999ADDGA1011+006609089GA2081+021009029MA1101051999999REMMET042CIG200 WND 170V220 OCNL VRY LGT RASH//LAST
0072083970999991972011709004+37183-005617FM-15+0093LEMO V0209991V002610600019N0100001N9+00501+00201999999ADDGA1011+006009089GA2051+021009009MA1100101999999REMMET013CIG200//FIRST
0077083970999991972011710004+37183-005617FM-15+0093LEMO V0209991V005710570019N0100001N9+00601+00201999999ADDGA1011+006009089GA2051+999999009MA1100141999999REMMET018CIG190 WND 250V310
0070083970999991972011711004+37183-005617FM-15+0093LEMO V0209991V00621220001CN0100001N9+00701+00301999999ADDGA1011+006009089GA2031+018009039MA1100171999999REMMET011WND 250V310
0070083970999991972011712004+37183-005617FM-15+0093LEMO V0209991V00931220001CN0100001N9+00901+00301999999ADDGA1011+006009089GA2041+999999009MA1100171999999REMMET011WND 260V320
0070083970999991972011713004+37183-005617FM-15+0093LEMO V0209991V00821220001CN0100001N9+00801+00201999999ADDGA1011+006009089GA2041+999999009MA1100201999999REMMET011WND 300V360
0054083970999991972011714004+37183-005617FM-15+0093LEMO V0209991V00871220001CN0100001N9+01001+00101999999ADDGA1031+007509089MA1100241999999REMMET011WND 290V350
0054083970999991972011715004+37183-005617FM-15+0093LEMO V0209991V00931220001CN0100001N9+01101+00101999999ADDGA1031+007509089MA1100201999999REMMET011WND 270V340
0060083970999991972011716004+37183-005617FM-15+0093LEMO V0209991V00871220001CN0100001N9+01101+00101999999ADDGA1041+007509089MA1100201999999REMMET017WND 270V350//LAST
0034083970999991972011809004+37183-005617FM-15+0093LEMO V0209991C00001220001CN0100001N9-00101-00301999999ADDGA1021+999999009MA1101321999999
0034083970999991972011810004+37183-005617FM-15+0093LEMO V0209991C00001220001CN0100001N9+00201+00001999999ADDGA1031+999999009MA1101421999999
0050083970999991972011811004+37183-005617FM-15+0093LEMO V0209991C00001220001CN0100001N9+00501+00101999999ADDGA1011+018009039GA2031+999999009MA1101561999999
0050083970999991972011812004+37183-005617FM-15+0093LEMO V0209991C00001220001CN0100001N9+00701+00101999999ADDGA1011+018009039GA2031+999999009MA1101561999999
0034083970999991972011813004+37183-005617FM-15+0093LEMO V0209991C00001220001CN0100001N9+00801+00001999999ADDGA1011+018009039MA1101561999999
0034083970999991972011814004+37183-005617FM-15+0093LEMO V0209991V00211220001CN0100001N9+00901+00101999999ADDGA1011+021009009MA1101521999999
0034083970999991972011815004+37183-005617FM-15+0093LEMO V0209991V00101220001CN0100001N9+01001+00101999999ADDGA1011+021009009MA1101561999999
0034083970999991972011816004+37183-005617FM-15+0093LEMO V0209991C00001220001CN0100001N9+01101+00201999999ADDGA1011+021009009MA1101561999999
0018083970999991972011909004+37183-005617FM-15+0093LEMO V0209991C00001220001CN0100001N9-00101-00201999999ADDMA1102131999999
0018083970999991972011910004+37183-005617FM-15+0093LEMO V0209991C00001220001CN0100001N9+00201+00101999999ADDMA1102201999999
0018083970999991972011911004+37183-005617FM-15+0093LEMO V0209991V00261220001CN0100001N9+00601+00101999999ADDMA1102241999999
0018083970999991972011912004+37183-005617FM-15+0093LEMO V0209991V00211220001CN0100001N9+00701+00201999999ADDMA1102301999999
0018083970999991972011913004+37183-005617FM-15+0093LEMO V0209991V00151220001CN0100001N9+00901+00201999999ADDMA1102271999999
0018083970999991972011914004+37183-005617FM-15+0093LEMO V0209991V00151220001CN0100001N9+01001+00301999999ADDMA1102201999999
0034083970999991972011915004+37183-005617FM-15+0093LEMO V0209991V00151220001CN0100001N9+01101+00301999999ADDGA1011+009009089MA1102201999999
0034083970999991972011916004+37183-005617FM-15+0093LEMO V0209991V00311220001CN0100001N9+01201+00301999999ADDGA1011+009009089MA1102201999999
0080083970999991972012009004+37183-005617FM-15+0093LEMO V0202301N007710021019N0034001N9+01201+00901999999ADDGA1021+001209079GA2071+002109079MA1101661999999REMMET021CIG007 CIG RG4//FIRST
0112083970999991972012010004+37183-005617FM-15+0093LEMO V0202301N008210027019N0090001N9+01201+00901999999ADDGA1011+001809079GA2051+002709079GA3081+004209059MA1101591999999REMMET037CIG009 CIG RGD PCPN VRY LGT 1 OVC 100
0077083970999991972012011004+37183-005617FM-15+0093LEMO V0209991V006210120019N0100001N9+01201+00901999999ADDGA1011+004809059GA2081+012009059MA1101731999999REMMET018CIG040 WND 290V340
0081083970999991972012012004+37183-005617FM-15+0093LEMO V0209991V003110120019N0100001N9+01201+00801999999ADDGA1011+004809059GA2051+012009059GA3071+999999049MA1101861999999REMMET006CIG040
0093083970999991972012013004+37183-005617FM-15+0093LEMO V0209991V003610240019N0100001N9+01201+00801999999ADDGA1011+004809059GA2031+012009059GA3071+999999039MA1101861999999REMMET018CIG080 WND 250V290
0077083970999991972012014004+37183-005617FM-15+0093LEMO V0209991V003610240019N0100001N9+01301+00801999999ADDGA1031+006009089GA2031+999999039MA1101661999999REMMET018CIG080 WND 250V330
0054083970999991972012015004+37183-005617FM-15+0093LEMO V0209991V00511220001CN0100001N9+01301+00601999999ADDGA1041+007509089MA1101761999999REMMET011WND 290V350
0060083970999991972012016004+37183-005617FM-15+0093LEMO V0209991V00671220001CN0100001N9+01301+00501999999ADDGA1011+009009089MA1101761999999REMMET017WND 310V010//LAST
0034083970999991972012109004+37183-005617FM-15+0093LEMO V0209991C00001220001CN0100001N9+00301+00101999999ADDGA1011+009009059MA1102541999999
0034083970999991972012110004+37183-005617FM-15+0093LEMO V0209991C00001220001CN0100001N9+00501+00101999999ADDGA1011+009009059MA1102611999999
0034083970999991972012111004+37183-005617FM-15+0093LEMO V0209991C00001220001CN0100001N9+00701+00101999999ADDGA1011+009009059MA1102641999999
0034083970999991972012112004+37183-005617FM-15+0093LEMO V0209991V00311220001CN0100001N9+00801+00101999999ADDGA1011+009009059MA1102681999999
0034083970999991972012113004+37183-005617FM-15+0093LEMO V0209991V00101220001CN0100001N9+00901+00101999999ADDGA1011+009009059MA1102571999999
0034083970999991972012114004+37183-005617FM-15+0093LEMO V0209991V00151220001CN0100001N9+01001+00101999999ADDGA1011+009009059MA1102471999999
0034083970999991972012115004+37183-005617FM-15+0093LEMO V0209991V00101220001CN0100001N9+01101+00101999999ADDGA1011+010509059MA1102401999999
0034083970999991972012116004+37183-005617FM-15+0093LEMO V0203601N00361220001CN0100001N9+01201+00101999999ADDGA1011+010509059MA1102371999999
0034083970999991972012409004+37183-005617FM-15+0093LEMO V0209991C00001220001CN0100001N9-00201-00401999999ADDGA1011+021009009MA1102471999999
0034083970999991972012410004+37183-005617FM-15+0093LEMO V0202601N00101220001CN0100001N9+00101-00401999999ADDGA1011+021009009MA1102541999999
0034083970999991972012411004+37183-005617FM-15+0093LEMO V0200701N00151220001CN0100001N9+00301-00301999999ADDGA1011+021009009MA1102611999999
0034083970999991972012412004+37183-005617FM-15+0093LEMO V0200601N00311220001CN0100001N9+00601-00301999999ADDGA1011+021009009MA1102611999999
0034083970999991972012413004+37183-005617FM-15+0093LEMO V0209991V00211220001CN0100001N9+00801-00301999999ADDGA1011+021009009MA1102511999999
0034083970999991972012414004+37183-005617FM-15+0093LEMO V0209991V00101220001CN0100001N9+00901-00301999999ADDGA1011+021009009MA1102401999999
0039083970999991972012415004+37183-005617FM-15+0093LEMO V0209991C00001220001CN0100001N9+01101-00301999999ADDMA1102401999999REMMET012CONTRAILS SW
0034083970999991972012416004+37183-005617FM-15+0093LEMO V0209991V00211220001CN0100001N9+01101-00301999999ADDGA1011+021009009MA1102401999999
0056083970999991972012509004+37183-005617FM-15+0093LEMO V0201401N00101030001CN0100001N9-00101-00201999999ADDGA1051+018009039MA1102541999999REMMET013CIG100//FIRST
0065083970999991972012510004+37183-005617FM-15+0093LEMO V0209991C000010096019N0100001N9+00301-00101999999ADDGA1051+009609059GA2031+018009039MA1102571999999REMMET006CIG032
0049083970999991972012511004+37183-005617FM-15+0093LEMO V0209991C00001010501CN0100001N9+00401+00201999999ADDGA1071+010509059MA1102641999999REMMET006CIG035
0034083970999991972012512004+37183-005617FM-15+0093LEMO V0209991C00001220001CN0100001N9+00701+00101999999ADDGA1031+012009059MA1102681999999
0034083970999991972012513004+37183-005617FM-15+0093LEMO V0209991V00101220001CN0100001N9+00901+00301999999ADDGA1011+006009059MA1102611999999
0064083970999991972012514004+37183-005617FM-15+0093LEMO V0209991V001012200019N0100001N9+01101+00401999999ADDGA1011+006009089GA2041+021009009MA1102541999999REMMET005CIGNO
0080083970999991972012515004+37183-005617FM-15+0093LEMO V0209991V001012200019N0100001N9+01101+00401999999ADDGA1011+007509089GA2031+999999039GA3061+021009009MA1102471999999REMMET005CIGNO
0071083970999991972012516004+37183-005617FM-15+0093LEMO V0209991V001010600019N0100001N9+01201+00401999999ADDGA1011+007509089GA2071+021009009MA1102441999999REMMET012CIG200//LAST
0034083970999991972012609004+37183-005617FM-15+0093LEMO V0209991C00001220001CN0100001N9-00101-00201999999ADDGA1011+021009009MA1102611999999
0034083970999991972012610004+37183-005617FM-15+0093LEMO V0209991C00001220001CN0100001N9+00201-00101999999ADDGA1011+018009039MA1102641999999
0034083970999991972012611004+37183-005617FM-15+0093LEMO V0209991C00001220001CN0100001N9+00601+00201999999ADDGA1011+018009039MA1102681999999
0034083970999991972012612004+37183-005617FM-15+0093LEMO V0209991C00001220001CN0100001N9+00801+00301999999ADDGA1011+018009039MA1102681999999
0034083970999991972012613004+37183-005617FM-15+0093LEMO V0209991C00001220001CN0100001N9+01001+00301999999ADDGA1011+018009039MA1102611999999
0034083970999991972012614004+37183-005617FM-15+0093LEMO V0209991C00001220001CN0100001N9+01101+00301999999ADDGA1011+009009089MA1102471999999
0034083970999991972012615004+37183-005617FM-15+0093LEMO V0209991V00101220001CN0100001N9+01201+00301999999ADDGA1011+009009089MA1102401999999
0034083970999991972012616004+37183-005617FM-15+0093LEMO V0209991V00151220001CN0100001N9+01301+00301999999ADDGA1011+009009089MA1102341999999
0034083970999991972012709004+37183-005617FM-15+0093LEMO V0209991C00001220001CN0100001N9+00101+00001999999ADDGA1011+018009039MA1102171999999
0034083970999991972012710004+37183-005617FM-15+0093LEMO V0209991C00001220001CN0100001N9+00301+00001999999ADDGA1011+018009039MA1102201999999
0034083970999991972012711004+37183-005617FM-15+0093LEMO V0209991C00001220001CN0100001N9+00701+00301999999ADDGA1011+018009039MA1102201999999
0034083970999991972012712004+37183-005617FM-15+0093LEMO V0209991C00001220001CN0100001N9+01001+00301999999ADDGA1011+018009039MA1102201999999
0034083970999991972012713004+37183-005617FM-15+0093LEMO V0209991C00001220001CN0100001N9+01201+00401999999ADDGA1011+009009089MA1102101999999
0034083970999991972012714004+37183-005617FM-15+0093LEMO V0209991C00001220001CN0100001N9+01301+00401999999ADDGA1011+009009089MA1101931999999
0034083970999991972012715004+37183-005617FM-15+0093LEMO V0209991V00101220001CN0100001N9+01301+00401999999ADDGA1011+009009089MA1101831999999
0034083970999991972012716004+37183-005617FM-15+0093LEMO V0209991V00311220001CN0100001N9+01401+00601999999ADDGA1011+999999009MA1101761999999
0056083970999991972012809004+37183-005617FM-15+0093LEMO V0209991C00001011401CN0070001N9+00401+00401999999ADDGA1061+011409059MA1101391999999REMMET013CIG038//FIRST
0081083970999991972012810004+37183-005617FM-15+0093LEMO V0209991C000010114019N0070001N9+00601+00401999999ADDGA1021+001509079GA2031+011409059MA1101421999999REMMET022CIG038 VSBY S5-SW 2300
0081083970999991972012811004+37183-005617FM-15+0093LEMO V0209991C000010114019N0070001N9+00701+00401999999ADDGA1021+000909079GA2031+011409059MA1101421999999REMMET022CIG038 VSBY S5-SW 2300
0034083970999991972012812004+37183-005617FM-15+0093LEMO V0209991C00001220001CN0070001N9+00801+00501999999ADDGA1021+003309059MA1101391999999
0034083970999991972012813004+37183-005617FM-15+0093LEMO V0209991C00001220001CN0100001N9+00901+00601999999ADDGA1021+003309059MA1101321999999
0034083970999991972012814004+37183-005617FM-15+0093LEMO V0209991C00001220001CN0100001N9+01101+00501999999ADDGA1011+004509089MA1101191999999
0034083970999991972012815004+37183-005617FM-15+0093LEMO V0209991C00001220001CN0100001N9+01201+00601999999ADDGA1021+006009089MA1101121999999
0034083970999991972012816004+37183-005617FM-15+0093LEMO V0209991V00151220001CN0100001N9+01301+00601999999ADDGA1021+009009089MA1101051999999
0056083970999991972013109004+37183-005617FM-15+0093LEMO V0209991C00001013501CN0100001N9+00701+00401999999ADDGA1071+013509059MA1101801999999REMMET013CIG045//FIRST
0049083970999991972013110004+37183-005617FM-15+0093LEMO V0209991C00001013501CN0100001N9+00901+00501999999ADDGA1081+013509059MA1101831999999REMMET006CIG045
0049083970999991972013111004+37183-005617FM-15+0093LEMO V0202201N00211013501CN0100001N9+01101+00701999999ADDGA1081+013509059MA1101901999999REMMET006CIG045
0065083970999991972013112004+37183-005617FM-15+0093LEMO V0202001N005710135019N0100001N9+01201+00701999999ADDGA1011+006009059GA2071+013509059MA1101901999999REMMET006CIG045
0083083970999991972013113004+37183-005617FM-15+0093LEMO V0202201N006710150019N0100001N9+01301+00801999999ADDGA1011+006009059GA2081+015009059MA1101901999999REMMET024CIG050 OCNL V9Y LGT RASH
0083083970999991972013114004+37183-005617FM-15+0093LEMO V0202201N007710135019N0100001N9+01401+00801999999ADDGA1031+006009059GA2081+013509059MA1101801999999REMMET024CIG045 OCNL V9Y LGT RASH
0083083970999991972013115004+37183-005617FM-15+0093LEMO V0202001N008210150019N0100001N9+01301+00801999999ADDGA1011+006009059GA2081+015009059MA1101731999999REMMET024CIG050 OCNL V9Y LGT RASH
0071083970999991972013116004+37183-005617FM-15+0093LEMO V0202101N007710150019N0100001N9+01401+00801999999ADDGA1021+006009059GA2071+015009059MA1101661999999REMMET012CIG050//LAST
0051083970999991972020109004+37183-005617FM-15+0093LEMO V0202501N00621220001CN0100001N9+01001+00801999999ADDGA1011+006609089MA1101761999999REMMET008// FIRST
0034083970999991972020110004+37183-005617FM-15+0093LEMO V0202701N00511220001CN0100001N9+01001+00801999999ADDGA1011+006609089MA1101861999999
0050083970999991972020111004+37183-005617FM-15+0093LEMO V0202401N00511220001CN0100001N9+01101+00801999999ADDGA1011+006609089GA2031+021009009MA1102001999999
0076083970999991972020112004+37183-005617FM-15+0093LEMO V0209991V006712200019N0100001N9+01301+00801999999ADDGA1011+006009089GA2051+021009009MA1102071999999REMMET017CIGNO WND 230 280
0077083970999991972020113004+37183-005617FM-15+0093LEMO V0209991V007210600019N0100001N9+01301+00801999999ADDGA1021+007509089GA2051+021009009MA1102131999999REMMET018CIG200 WND 240V290
0065083970999991972020114004+37183-005617FM-15+0093LEMO V0202701N005110600019N0100001N9+01301+00701999999ADDGA1021+007509089GA2071+021009029MA1102031999999REMMET006CIG200
0076083970999991972020115004+37183-005617FM-15+0093LEMO V0209991V004612200019N0100001N9+01401+00701999999ADDGA1021+007509089GA2081+021009029MA1102001999999REMMET017CIGNO WND 240 290
0084083970999991972020116004+37183-005617FM-15+0093LEMO V0209991V004112200019N0100001N9+01401+00701999999ADDGA1011+007509089GA2081+021009029MA1101961999999REMMET025CIGNO WND 220 270 // LAST
0107083970999991972020209004+37183-005617FM-15+0093LEMO V0202101N006210135019N0100001N9+01101+00801999999ADDGA1011+007509059GA2051+013509059GA3081+021009029MA1101901999999REMMET032CIG045 OCNL VRY LGT RASH //FIRST
0081083970999991972020210004+37183-005617FM-15+0093LEMO V0202201N005110120019N0100001N9+01201+00801999999ADDGA1011+007509059GA2061+012009059GA3081+021009029MA1102001999999REMMET006CIG040
0081083970999991972020211004+37183-005617FM-15+0093LEMO V0202201N006210120019N0100001N9+01301+00901999999ADDGA1011+006009059GA2061+012009059GA3081+021009029MA1102101999999REMMET006CIG040
0102083970999991972020212004+37183-005617FM-15+0093LEMO V0202301N007210120019N0100001N9+01301+01001999999ADDGA1011+003609059GA2061+012009059GA3081+021009029MA1102031999999REMMET027CIG040 LGT RA OCNLY VRY LGT
0081083970999991972020213004+37183-005617FM-15+0093LEMO V0202301N008710120019N0100001N9+01401+01001999999ADDGA1031+004509059GA2061+012009059GA3081+021009029MA1102001999999REMMET006CIG040
0074083970999991972020214004+37183-005617FM-15+0093LEMO V0202301N008710045019N0037001N9+01301+01001999999ADDGA1051+004509059GA2081+012009059MA1101901999999REMMET015CIG015 FG PRS5T
0065083970999991972020215004+37183-005617FM-15+0093LEMO V0202301N009310120019N0100001N9+01301+01001999999ADDGA1021+004509059GA2081+012009059MA1101801999999REMMET006CIG040
0094083970999991972020216004+37183-005617FM-15+0093LEMO V0202201N008710120019N0090001N9+01301+01001999999ADDGA1031+004809059GA2081+012009059MA1101731999999REMMET035CIG040 PCPN V9Y LGT FG PRSNT //LAST
0086083970999991972020309004+37183-005617FM-15+0093LEMO V0202301N010310180019N0100001N9+01401+01101999999ADDGA1021+004809089GA2061+999999059MA1101151999999REMMET027CIG060 PCPN V9Y LGT //FIRST
0065083970999991972020310004+37183-005617FM-15+0093LEMO V0202301N010810150019N0100001N9+01401+01101999999ADDGA1021+004809089GA2081+015009059MA1101151999999REMMET006CIG050
0095083970999991972020311004+37183-005617FM-15+0093LEMO V0202201N011310066019N0090001N9+01401+01101999999ADDGA1031+004209089GA2031+006609059GA3081+013509059MA1101121999999REMMET020CIG022 VSBY LWR S-SW
0081083970999991972020312004+37183-005617FM-15+0093LEMO V0202301N010310066019N0060001N9+01401+01101999999ADDGA1021+004209089GA2051+006609059GA3081+013509059MA1101151999999REMMET006CIG022
0081083970999991972020313004+37183-005617FM-15+0093LEMO V0202401N008210060019N0060001N9+01201+01101999999ADDGA1011+002409079GA2041+006009059GA3081+015009049MA1101191999999REMMET006CIG020
0065083970999991972020314004+37183-005617FM-15+0093LEMO V0202401N007710150019N0100001N9+01301+01101999999ADDGA1011+004209089GA2071+015009059MA1101121999999REMMET006CIG050
0065083970999991972020315004+37183-005617FM-15+0093LEMO V0202301N007210150019N0100001N9+01301+01101999999ADDGA1031+004209089GA2081+015009059MA1101051999999REMMET006CIG050
0080083970999991972020316004+37183-005617FM-15+0093LEMO V0202301N007710036019N0100001N9+01301+01101999999ADDGA1051+003609089GA2081+015009059MA1101051999999REMMET021CIG012 CIG RG4 //LAST
0089083970999991972020409004+37183-005617FM-15+0093LEMO V0202201N007710240019N0100001N9+01201+00901999999ADDGA1021+004509089GA2051+999999039GA3061+021009009MA1100851999999REMMET014CIG080 //FIRST
0094083970999991972020410004+37183-005617FM-15+0093LEMO V0202201N010310240019N0100001N9+01301+00901999999ADDGA1021+004509089GA2081+999999039MA1100781999999REMMET035CIG080 OCNL V9Y LGT RASH RASH NW-NE
0076083970999991972020411004+37183-005617FM-15+0093LEMO V0202201N012310210019N0100001N9+01301+00901999999ADDGA1021+005109089GA2081+999999039MA1100711999999REMMET017CIG070 RASH S -NW
0097083970999991972020412004+37183-005617FM-15+0093LEMO V0202201N012310120019N0100001N9+01401+00901999999ADDGA1011+005109089GA2051+012009059GA3081+999999039MA1100681999999REMMET022CIG040 PK WND 22/35 51
0097083970999991972020413004+37183-005617FM-15+0093LEMO V0202301N012310105019N0100001N9+01301+01001999999ADDGA1011+005109089GA2051+010509059GA3081+999999039MA1100711999999REMMET022CIG035 PK WND 23/35 38
0065083970999991972020414004+37183-005617FM-15+0093LEMO V0202501N008210090019N0047001N9+01101+01001999999ADDGA1041+003609089GA2081+009009049MA1100781999999REMMET006CIG030
0065083970999991972020415004+37183-005617FM-15+0093LEMO V0202401N006710120019N0090001N9+01101+00901999999ADDGA1021+003609089GA2081+012009049MA1100751999999REMMET006CIG040
0072083970999991972020416004+37183-005617FM-15+0093LEMO V0202401N006210120019N0070001N9+01201+00901999999ADDGA1031+003609089GA2081+012009049MA1100751999999REMMET013CIG040 //LAST
0050083970999991972020709004+37183-005617FM-15+0093LEMO V0202501N00311220001CN0100001N9+00801+00601999999ADDGA1011+006009089MA1101351999999REMMET007//FIRST
0034083970999991972020710004+37183-005617FM-15+0093LEMO V0202501N00461220001CN0100001N9+00901+00601999999ADDGA1011+006009089MA1101461999999
0054083970999991972020711004+37183-005617FM-15+0093LEMO V0209991V00411220001CN0100001N9+01201+00701999999ADDGA1011+006009089MA1101521999999REMMET011WND 240V290
0054083970999991972020712004+37183-005617FM-15+0093LEMO V0209991V00571220001CN0100001N9+01201+00701999999ADDGA1011+006009089MA1101631999999REMMET011WND 240V300
0054083970999991972020713004+37183-005617FM-15+0093LEMO V0209991V00511220001CN0100001N9+01301+00701999999ADDGA1021+006009089MA1101631999999REMMET011WND 250V300
0054083970999991972020714004+37183-005617FM-15+0093LEMO V0209991V00571220001CN0100001N9+01301+00601999999ADDGA1021+007509089MA1101631999999REMMET011WND 260V310
0054083970999991972020715004+37183-005617FM-15+0093LEMO V0209991V00511220001CN0100001N9+01401+00601999999ADDGA1021+007509089MA1101631999999REMMET011WND 270V320
0061083970999991972020716004+37183-005617FM-15+0093LEMO V0209991V00571220001CN0100001N9+01401+00601999999ADDGA1021+007509089MA1101631999999REMMET018WND 230V290 //LAST
0072083970999991972020809004+37183-005617FM-15+0093LEMO V0202101N003110120019N0090001N9+01001+00701999999ADDGA1041+007209059GA2061+012009059MA1102131999999REMMET013CIG040 //FIRS
0081083970999991972020810004+37183-005617FM-15+0093LEMO V0202101N002610072019N0060001N9+01101+00801999999ADDGA1031+002409079GA2051+007209059GA3071+012009059MA1102171999999REMMET006CIG024
0074083970999991972020811004+37183-005617FM-15+0093LEMO V0202001N002610072019N0022001N9+01101+00801999999ADDGA1031+001809079GA2081+007209059MA1102171999999REMMET015CIG024 FG PRS5T
0078083970999991972020812004+37183-005617FM-15+0093LEMO V0202201N005110021019N0100001N9+01201+00901999999ADDGA1051+002109079GA2081+007209059MA1102201999999REMMET019CIG007 PCPN V9Y LGT
0065083970999991972020813004+37183-005617FM-15+0093LEMO V0203001N004110072019N0100001N9+01401+01001999999ADDGA1021+002109079GA2031+007209059MA1102201999999REMMET006CIG024
0049083970999991972020814004+37183-005617FM-15+0093LEMO V0203001N00511007201CN0100001N9+01401+01001999999ADDGA1051+007209089MA1102171999999REMMET006CIG024
0049083970999991972020815004+37183-005617FM-15+0093LEMO V0203201N00361007201CN0100001N9+01501+01001999999ADDGA1061+007209089MA1102101999999REMMET006CIG024
0056083970999991972020816004+37183-005617FM-15+0093LEMO V0203201N00311007501CN0100001N9+01501+01001999999ADDGA1051+007509089MA1102031999999REMMET013CIG025 //LAST
0089083970999991972020909004+37183-005617FM-15+0093LEMO V0202601N002610600019N0028001N9+00601+00401999999ADDGA1011+999999039GA2051+021009009MA1102681999999REMMET030CIG200 VSBY S5-SW 0700 //FIRST
0065083970999991972020910004+37183-005617FM-15+0093LEMO V0202301N003110600019N0100001N9+00701+00501999999ADDGA1011+001209079GA2041+021009009MA1102741999999REMMET006CIG200
0080083970999991972020911004+37183-005617FM-15+0093LEMO V0202401N004612200019N0100001N9+00901+00601999999ADDGA1011+001209079GA2031+999999039GA3051+021009009MA1102741999999REMMET005CIGNO
0064083970999991972020912004+37183-005617FM-15+0093LEMO V0202701N005112200019N0100001N9+01101+00701999999ADDGA1021+004509059GA2051+021009009MA1102781999999REMMET005CIGNO
0077083970999991972020913004+37183-005617FM-15+0093LEMO V0209991V005710270019N0100001N9+01201+00701999999ADDGA1021+005709089GA2051+999999039MA1102641999999REMMET018CIG090 WND 230V280
0065083970999991972020914004+37183-005617FM-15+0093LEMO V0202601N006710600019N0100001N9+01301+00701999999ADDGA1021+007509089GA2061+021009009MA1102571999999REMMET006CIG200
0065083970999991972020915004+37183-005617FM-15+0093LEMO V0202601N007210150019N0100001N9+01301+00701999999ADDGA1021+007509089GA2071+015009059MA1102471999999REMMET006CIG050
0072083970999991972020916004+37183-005617FM-15+0093LEMO V0202601N006210150019N0100001N9+01301+00701999999ADDGA1011+007509089GA2081+015009059MA1102471999999REMMET013CIG050 //LAST
0072083970999991972021009004+37183-005617FM-15+0093LEMO V0202601N003110270019N0100001N9+00901+00801999999ADDGA1011+006009089GA2061+999999039MA1102681999999REMMET013CIG090 //FIRS
0065083970999991972021010004+37183-005617FM-15+0093LEMO V0202601N003110270019N0100001N9+00901+00801999999ADDGA1011+006009089GA2071+999999039MA1102741999999REMMET006CIG090
0065083970999991972021011004+37183-005617FM-15+0093LEMO V0202601N005110270019N0100001N9+01101+00801999999ADDGA1011+006009089GA2071+999999039MA1102741999999REMMET006CIG090
0065083970999991972021012004+37183-005617FM-15+0093LEMO V0202701N004110270019N0100001N9+01201+00801999999ADDGA1011+006009089GA2071+999999039MA1102811999999REMMET006CIG090
0065083970999991972021013004+37183-005617FM-15+0093LEMO V0202601N005110270019N0100001N9+01301+00801999999ADDGA1011+006009089GA2061+999999039MA1102781999999REMMET006CIG090
0034083970999991972021014004+37183-005617FM-15+0093LEMO V0202701N00511220001CN0100001N9+01501+00801999999ADDGA1021+006609089MA1102681999999
0061083970999991972021015004+37183-005617FM-15+0093LEMO V0209991V00461027001CN0100001N9+01601+00801999999ADDGA1041+007509089MA1102611999999REMMET018CIG090 WND 240V320
0072083970999991972021016004+37183-005617FM-15+0093LEMO V0202601N005110270019N0100001N9+01601+00801999999ADDGA1021+007509089GA2031+999999039MA1102611999999REMMET013CIG090 //LAST
0089083970999991972021109004+37183-005617FM-15+0093LEMO V0202201N004110027019N0047001N9+01001+00801999999ADDGA1011+000909079GA2041+002709079GA3051+007209059MA1102471999999REMMET014CIG009 //FIRST
0093083970999991972021110004+37183-005617FM-15+0093LEMO V0202301N004610027019N0070001N9+01101+00801999999ADDGA1011+000909079GA2041+002709079GA3061+007209059MA1102571999999REMMET018CIG009 VSBY N 4700
0065083970999991972021111004+37183-005617FM-15+0093LEMO V0202501N004110072019N0100001N9+01201+00901999999ADDGA1021+002709079GA2081+007209059MA1102541999999REMMET006CIG024
0077083970999991972021112004+37183-005617FM-15+0093LEMO V0209991V006210072019N0100001N9+01301+00901999999ADDGA1021+003009079GA2061+007209059MA1102541999999REMMET018CIG024 WND 230V280
0065083970999991972021113004+37183-005617FM-15+0093LEMO V0202501N007210072019N0100001N9+01401+00901999999ADDGA1051+007209089GA2031+021009009MA1102371999999REMMET006CIG024
0061083970999991972021114004+37183-005617FM-15+0093LEMO V0209991V00771007501CN0100001N9+01401+00901999999ADDGA1051+007509089MA1102271999999REMMET018CIG025 WND 230V280
0049083970999991972021115004+37183-005617FM-15+0093LEMO V0202601N00821007501CN0100001N9+01501+00901999999ADDGA1051+007509089MA1102171999999REMMET006CIG025
0072083970999991972021116004+37183-005617FM-15+0093LEMO V0202501N009310084019N0100001N9+01501+00901999999ADDGA1051+008409089GA2061+013509059MA1102171999999REMMET013CIG028 //LAST
0056083970999991972021409004+37183-005617FM-15+0093LEMO V0200401N00211220001CN0100001N9+00601+00401999999ADDGA1061+999999009MA1102681999999REMMET013CIGNO //FIRST
0048083970999991972021410004+37183-005617FM-15+0093LEMO V0200501N00261220001CN0100001N9+00801+00401999999ADDGA1051+999999009MA1102711999999REMMET005CIGNO
0048083970999991972021411004+37183-005617FM-15+0093LEMO V0200501N00461220001CN0100001N9+00901+00601999999ADDGA1051+999999009MA1102711999999REMMET005CIGNO
0034083970999991972021412004+37183-005617FM-15+0093LEMO V0200601N00621220001CN0100001N9+01101+00701999999ADDGA1041+999999009MA1102711999999
0034083970999991972021413004+37183-005617FM-15+0093LEMO V0200701N00571220001CN0100001N9+01201+00701999999ADDGA1021+999999009MA1102641999999
0034083970999991972021414004+37183-005617FM-15+0093LEMO V0200601N00671220001CN0100001N9+01501+00701999999ADDGA1021+999999009MA1102571999999
0034083970999991972021415004+37183-005617FM-15+0093LEMO V0200701N00621220001CN0100001N9+01701+00701999999ADDGA1011+999999009MA1102511999999
0049083970999991972021416004+37183-005617FM-15+0093LEMO V0200601N00571220001CN0100001N9+01701+00701999999ADDGA1011+999999009MA1102441999999REMMET006//LAST
0072083970999991972021509004+37183-005617FM-15+0093LEMO V0209991C000010600019N0100001N9+00601+00301999999ADDGA1011+018009039GA2071+021009009MA1101961999999REMMET013CIG200 //FIRS
0049083970999991972021510004+37183-005617FM-15+0093LEMO V0209991C00001060001CN0100001N9+00701+00301999999ADDGA1071+021009009MA1102001999999REMMET006CIG200
0049083970999991972021511004+37183-005617FM-15+0093LEMO V0200601N00101060001CN0100001N9+00901+00301999999ADDGA1081+021009029MA1101961999999REMMET006CIG200
0049083970999991972021512004+37183-005617FM-15+0093LEMO V0209991C00001060001CN0100001N9+01101+00401999999ADDGA1081+021009029MA1101861999999REMMET006CIG200
0065083970999991972021513004+37183-005617FM-15+0093LEMO V0209991V002110600019N0100001N9+01201+00501999999ADDGA1011+018009039GA2081+021009029MA1101861999999REMMET006CIG200
0065083970999991972021514004+37183-005617FM-15+0093LEMO V0209991V002110600019N0100001N9+01401+00601999999ADDGA1011+009009089GA2071+021009029MA1101761999999REMMET006CIG200
0065083970999991972021515004+37183-005617FM-15+0093LEMO V0209991V002110600019N0100001N9+01601+00601999999ADDGA1011+009009089GA2071+021009029MA1101691999999REMMET006CIG200
0072083970999991972021516004+37183-005617FM-15+0093LEMO V0209991V002610300019N0100001N9+01601+00601999999ADDGA1051+018009039GA2031+021009029MA1101631999999REMMET013CIG100 //LAST
0072083970999991972021609004+37183-005617FM-15+0093LEMO V0201901N001510300019N0100001N9+00601+00301999999ADDGA1051+030009039GA2061+060009009MA1100951999999REMMET013CIG100 //FIRS
0065083970999991972021610004+37183-005617FM-15+0093LEMO V0201701N001010300019N0100001N9+00801+00401999999ADDGA1051+030009039GA2061+060009009MA1100811999999REMMET006CIG100
0081083970999991972021611004+37183-005617FM-15+0093LEMO V0202901N001510300019N0100001N9+00901+00401999999ADDGA1011+007509059GA2061+030009039GA3021+060009009MA1100881999999REMMET006CIG100
0081083970999991972021612004+37183-005617FM-15+0093LEMO V0203201N001510360019N0100001N9+00901+00401999999ADDGA1031+008409059GA2061+030009039GA3011+060009009MA1100851999999REMMET006CIG120
0065083970999991972021613004+37183-005617FM-15+0093LEMO V0202301N003110300019N0100001N9+01101+00601999999ADDGA1031+008409059GA2061+030009039MA1100851999999REMMET006CIG100
0081083970999991972021614004+37183-005617FM-15+0093LEMO V0202401N003110300019N0100001N9+01201+00601999999ADDGA1021+009009089GA2051+030009039GA3011+060009009MA1100681999999REMMET006CIG100
0081083970999991972021615004+37183-005617FM-15+0093LEMO V0202701N004610300019N0100001N9+01301+00601999999ADDGA1021+009009089GA2051+030009039GA3021+060009009MA1100611999999REMMET006CIG100
0081083970999991972021616004+37183-005617FM-15+0093LEMO V0202501N005110300019N0100001N9+01301+00601999999ADDGA1031+009009089GA2041+030009039GA3021+060009009MA1100541999999REMMET006CIG100
0066083970999991972021709004+37183-005617FM-15+0093LEMO V0201701N00101220001CN0100001N9+00201+00101999999ADDGA1011+007509089GA2011+030009039MA1101021999999REMMET007//FIRST
0050083970999991972021710004+37183-005617FM-15+0093LEMO V0202001N00211220001CN0100001N9+00501+00201999999ADDGA1011+007509089GA2011+030009039MA1101121999999
0066083970999991972021711004+37183-005617FM-15+0093LEMO V0202301N00261220001CN0100001N9+00701+00201999999ADDGA1011+007509089GA2011+030009039GA3011+060009009MA1101191999999
0050083970999991972021712004+37183-005617FM-15+0093LEMO V0202601N00361220001CN0100001N9+00801+00201999999ADDGA1011+007509089GA2011+060009009MA1101191999999
0034083970999991972021713004+37183-005617FM-15+0093LEMO V0202601N00511220001CN0100001N9+01001+00301999999ADDGA1021+009009089MA1101151999999
0070083970999991972021714004+37183-005617FM-15+0093LEMO V0209991V00511220001CN0100001N9+01101+00301999999ADDGA1021+009009089GA2011+060009009MA1101081999999REMMET011WND 220V290
0050083970999991972021715004+37183-005617FM-15+0093LEMO V0202601N00621220001CN0100001N9+01201+00301999999ADDGA1021+009009089GA2011+060009009MA1101051999999
0077083970999991972021716004+37183-005617FM-15+0093LEMO V0209991V00511220001CN0100001N9+01201+00301999999ADDGA1031+009009089GA2011+060009009MA1101121999999REMMET018WND 260V330 / LAST
0066083970999991972021809004+37183-005617FM-15+0093LEMO V0202201N00211220001CN0100001N9+00401+00201999999ADDGA1021+027009039GA2021+060009009MA1101661999999REMMET007//FIRST
0065083970999991972021810004+37183-005617FM-15+0093LEMO V0202301N003610270019N0100001N9+00701+00301999999ADDGA1011+005109059GA2051+027009039MA1101761999999REMMET006CIG090
0050083970999991972021811004+37183-005617FM-15+0093LEMO V0202401N004112200019N0100001N9+00801+00401999999ADDGA1011+006009059GA2021+027009039MA1101801999999
0050083970999991972021812004+37183-005617FM-15+0093LEMO V0202401N004112200019N0100001N9+01001+00401999999ADDGA1011+006009059GA2021+027009039MA1101801999999
0034083970999991972021813004+37183-005617FM-15+0093LEMO V0202701N00411220001CN0100001N9+01101+00501999999ADDGA1031+007509089MA1101831999999
0034083970999991972021814004+37183-005617FM-15+0093LEMO V0203001N00261220001CN0100001N9+01101+00501999999ADDGA1031+007509089MA1101801999999
0034083970999991972021815004+37183-005617FM-15+0093LEMO V0202701N00361220001CN0100001N9+01201+00401999999ADDGA1041+009009089MA1101731999999
0056083970999991972021816004+37183-005617FM-15+0093LEMO V0202801N00411009001CN0100001N9+01301+00401999999ADDGA1061+009009089MA1101761999999REMMET013CIG030 //LAST
0072083970999991972022209004+37183-005617FM-15+0093LEMO V0200701N004110600019N0100001N9+00901+00301999999ADDGA1021+030009039GA2081+060009029MA1100541999999REMMET013CIG200 //FIRS
0065083970999991972022210004+37183-005617FM-15+0093LEMO V0200701N005110600019N0100001N9+01001+00301999999ADDGA1031+030009039GA2081+060009029MA1100611999999REMMET006CIG200
0065083970999991972022211004+37183-005617FM-15+0093LEMO V0200901N004110300019N0100001N9+01301+00401999999ADDGA1051+030009039GA2081+060009029MA1100641999999REMMET006CIG100
0065083970999991972022212004+37183-005617FM-15+0093LEMO V0200701N004110300019N0100001N9+01401+00501999999ADDGA1051+030009039GA2081+060009029MA1100641999999REMMET006CIG100
0065083970999991972022213004+37183-005617FM-15+0093LEMO V0200501N003610300019N0100001N9+01501+00601999999ADDGA1051+030009039GA2081+060009029MA1100581999999REMMET006CIG100
0065083970999991972022214004+37183-005617FM-15+0093LEMO V0203301N001510300019N0100001N9+01601+00601999999ADDGA1051+030009039GA2071+060009009MA1100581999999REMMET006CIG100
0065083970999991972022215004+37183-005617FM-15+0093LEMO V0203001N002110600019N0100001N9+01601+00601999999ADDGA1041+030009039GA2071+060009009MA1100511999999REMMET006CIG200
0088083970999991972022216004+37183-005617FM-15+0093LEMO V0202601N001510300019N0100001N9+01701+00601999999ADDGA1011+010509059GA2051+030009039GA3071+060009009MA1100441999999REMMET013CIG100 //LAST
0072083970999991972022309004+37183-005617FM-15+0093LEMO V0209991C000010270019N0100001N9+00801+00601999999ADDGA1051+027009039GA2041+060009009MA1100311999999REMMET013CIG090 //FIRS
0065083970999991972022310004+37183-005617FM-15+0093LEMO V0209991C000010600019N0100001N9+00901+00601999999ADDGA1031+027009039GA2061+060009009MA1100311999999REMMET006CIG200
0065083970999991972022311004+37183-005617FM-15+0093LEMO V0200601N001010270019N0100001N9+01001+00601999999ADDGA1051+027009039GA2031+060009009MA1100311999999REMMET006CIG090
0065083970999991972022312004+37183-005617FM-15+0093LEMO V0202301N001010600019N0100001N9+01101+00701999999ADDGA1031+027009039GA2051+060009009MA1100311999999REMMET006CIG200
0065083970999991972022313004+37183-005617FM-15+0093LEMO V0203001N001010600019N0100001N9+01201+00701999999ADDGA1031+027009039GA2051+060009009MA1100311999999REMMET006CIG200
0065083970999991972022314004+37183-005617FM-15+0093LEMO V0203401N001010600019N0100001N9+01301+00701999999ADDGA1031+027009039GA2081+060009029MA1100201999999REMMET006CIG200
0065083970999991972022315004+37183-005617FM-15+0093LEMO V0203401N001010600019N0100001N9+01501+00701999999ADDGA1041+027009039GA2081+060009029MA1100171999999REMMET006CIG200
0072083970999991972022316004+37183-005617FM-15+0093LEMO V0209991C000010600019N0100001N9+01601+00701999999ADDGA1041+027009039GA2081+060009029MA1100141999999REMMET013CIG200 //LAST
0066083970999991972022409004+37183-005617FM-15+0093LEMO V0202101N00261220001CN0100001N9+00701+00601999999ADDGA1011+004809059GA2011+027009039MA1100981999999REMMET007//FIRST
0050083970999991972022410004+37183-005617FM-15+0093LEMO V0202201N00261220001CN0100001N9+00901+00601999999ADDGA1031+004809089GA2011+027009039MA1101121999999
0034083970999991972022411004+37183-005617FM-15+0093LEMO V0202301N00361220001CN0100001N9+01201+00801999999ADDGA1021+005409089MA1101151999999
0034083970999991972022412004+37183-005617FM-15+0093LEMO V0202501N00411220001CN0100001N9+01401+00901999999ADDGA1031+006009089MA1101251999999
0034083970999991972022413004+37183-005617FM-15+0093LEMO V0202801N00361220001CN0100001N9+01401+00901999999ADDGA1021+006009089MA1101291999999
0034083970999991972022414004+37183-005617FM-15+0093LEMO V0202601N00411220001CN0100001N9+01601+00901999999ADDGA1031+006009089MA1101221999999
0034083970999991972022415004+37183-005617FM-15+0093LEMO V0202601N00461220001CN0100001N9+01601+00901999999ADDGA1031+006609089MA1101191999999
0065083970999991972022416004+37183-005617FM-15+0093LEMO V0202501N00461220001CN0100001N9+01601+00901999999ADDGA1031+007509089GA2011+060009009MA1101221999999REMMET006//LAST
0072083970999991972022509004+37183-005617FM-15+0093LEMO V0202201N001010105019N0028001N9+00701+00601999999ADDGA1101+000159999GA2061+010509059MA1102271999999REMMET013CIG035 //FIRS
0065083970999991972022510004+37183-005617FM-15+0093LEMO V0202101N001510105019N0047001N9+00801+00601999999ADDGA1011+001209079GA2051+010509059MA1102371999999REMMET006CIG035
0034083970999991972022511004+37183-005617FM-15+0093LEMO V0202601N00151220001CN0070001N9+01001+00701999999ADDGA1011+010509059MA1102441999999
0050083970999991972022512004+37183-005617FM-15+0093LEMO V0202701N002112200019N0090001N9+01201+00701999999ADDGA1011+004509059GA2011+060009009MA1102471999999
0066083970999991972022513004+37183-005617FM-15+0093LEMO V0202501N002112200019N0100001N9+01301+00701999999ADDGA1011+006009059GA2011+018009039GA3011+060009009MA1102471999999
0050083970999991972022514004+37183-005617FM-15+0093LEMO V0202701N002112200019N0100001N9+01401+00601999999ADDGA1011+007509089GA2011+060009009MA1102401999999
0050083970999991972022515004+37183-005617FM-15+0093LEMO V0203001N003112200019N0100001N9+01401+00601999999ADDGA1031+007509089GA2011+060009009MA1102401999999
0072083970999991972022516004+37183-005617FM-15+0093LEMO V0202701N004110240019N0100001N9+01501+00601999999ADDGA1041+007509089GA2041+024009039MA1102371999999REMMET013CIG080 //LAST
0072083970999991972022809004+37183-005617FM-15+0093LEMO V0209991C000010135019N0100001N9+00701+00401999999ADDGA1061+013509059GA2021+030009039MA1101661999999REMMET013CIG045 //FIRS
0065083970999991972022810004+37183-005617FM-15+0093LEMO V0201201N001010300019N0100001N9+00901+00401999999ADDGA1041+013509059GA2061+030009039MA1101661999999REMMET006CIG100
0065083970999991972022811004+37183-005617FM-15+0093LEMO V0201201N001510135019N0100001N9+01001+00401999999ADDGA1061+013509059GA2021+030009039MA1101631999999REMMET006CIG045
0081083970999991972022812004+37183-005617FM-15+0093LEMO V0200901N002110300019N0100001N9+01101+00401999999ADDGA1011+007509089GA2031+013509059GA3061+030009039MA1101521999999REMMET006CIG100
0081083970999991972022813004+37183-005617FM-15+0093LEMO V0201301N002610135019N0100001N9+01301+00401999999ADDGA1021+007509089GA2031+013509059GA3061+030009039MA1101461999999REMMET006CIG045
0093083970999991972022814004+37183-005617FM-15+0093LEMO V0209991V002110300019N0100001N9+01401+00401999999ADDGA1021+007509089GA2021+013509059GA3061+030009039MA1101321999999REMMET018CIG100 WND 170V230
0081083970999991972022815004+37183-005617FM-15+0093LEMO V0201801N003110135019N0100001N9+01401+00401999999ADDGA1021+007509089GA2051+013509059GA3021+030009039MA1101251999999REMMET006CIG045
0116083970999991972022816004+37183-005617FM-15+0093LEMO V0209991V003610135019N0100001N9+01401+00401999999ADDGA1021+007509089GA2051+013509059GA3021+030009039GA4011+060009009MA1101221999999REMMET025CIG045 WND 190V280 //LAST
0066083970999991972022909004+37183-005617FM-15+0093LEMO V0209991C00001220001CN0100001N9+00301+00201999999ADDGA1011+030009039GA2021+057009009MA1101931999999REMMET007//FIRST
0050083970999991972022910004+37183-005617FM-15+0093LEMO V0209991C00001220001CN0100001N9+00801+00301999999ADDGA1011+030009039GA2011+057009009MA1102001999999
0050083970999991972022911004+37183-005617FM-15+0093LEMO V0209991C00001220001CN0100001N9+01101+00401999999ADDGA1011+030009039GA2011+057009009MA1102001999999
0050083970999991972022912004+37183-005617FM-15+0093LEMO V0209991C00001220001CN0100001N9+01301+00401999999ADDGA1011+030009039GA2011+066009009MA1102001999999
0066083970999991972022913004+37183-005617FM-15+0093LEMO V0200201N00151220001CN0100001N9+01401+00501999999ADDGA1011+009009089GA2011+030009039GA3011+066009009MA1102001999999
0066083970999991972022914004+37183-005617FM-15+0093LEMO V0200201N00101220001CN0100001N9+01501+00501999999ADDGA1011+009009089GA2011+030009039GA3011+066009009MA1101901999999
0050083970999991972022915004+37183-005617FM-15+0093LEMO V0209991C00001220001CN0100001N9+01601+00501999999ADDGA1011+009009089GA2011+066009009MA1101831999999
0065083970999991972022916004+37183-005617FM-15+0093LEMO V0209991C00001220001CN0100001N9+01701+00601999999ADDGA1011+009009089GA2011+066009009MA1101801999999REMMET006//LAST
0034083970999991972030109004+37183-005617FM-15+0093LEMO V0202301N00311220001CN0100001N9+00701+00601999999ADDGA1011+027009039MA1102071999999
0065083970999991972030110004+37183-005617FM-15+0093LEMO V0202501N003110210019N0100001N9+00901+00601999999ADDGA1011+004509089GA2061+021009039MA1102131999999REMMET006CIG070
0065083970999991972030111004+37183-005617FM-15+0093LEMO V0202901N002110210019N0100001N9+01001+00601999999ADDGA1011+004509089GA2071+021009039MA1102131999999REMMET006CIG070
0065083970999991972030112004+37183-005617FM-15+0093LEMO V0202601N002610210019N0100001N9+01101+00601999999ADDGA1011+006009089GA2071+021009039MA1102131999999REMMET006CIG070
0081083970999991972030113004+37183-005617FM-15+0093LEMO V0202601N003110120019N0100001N9+01201+00601999999ADDGA1021+007509089GA2041+012009059GA3061+021009039MA1102071999999REMMET006CIG040
0081083970999991972030114004+37183-005617FM-15+0093LEMO V0202901N003110120019N0100001N9+01201+00601999999ADDGA1021+007509089GA2051+012009059GA3021+021009039MA1101961999999REMMET006CIG040
0065083970999991972030115004+37183-005617FM-15+0093LEMO V0202801N005110600019N0100001N9+01401+00601999999ADDGA1031+009009089GA2021+060009009MA1101801999999REMMET006CIG200
0072083970999991972030116004+37183-005617FM-15+0093LEMO V0203101N006710600019N0100001N9+01401+00501999999ADDGA1031+009009089GA2021+060009009MA1101761999999REMMET013CIG200//FIRST
0034083970999991972030209004+37183-005617FM-15+0093LEMO V0209991C00001220001CN0100001N9+00201-00201999999ADDGA1011+060009009MA1102541999999
0050083970999991972030210004+37183-005617FM-15+0093LEMO V0209991C000012200019N0100001N9+00601+00101999999ADDGA1011+030009039GA2011+060009009MA1102641999999
0050083970999991972030211004+37183-005617FM-15+0093LEMO V0209991C000012200019N0100001N9+00801+00101999999ADDGA1011+030009039GA2011+060009009MA1102681999999
0050083970999991972030212004+37183-005617FM-15+0093LEMO V0209991C000012200019N0100001N9+00901+00101999999ADDGA1011+007509089GA2011+060009009MA1102641999999
0050083970999991972030213004+37183-005617FM-15+0093LEMO V0202801N001012200019N0100001N9+01101+00101999999ADDGA1011+007509089GA2011+060009009MA1102681999999
0050083970999991972030214004+37183-005617FM-15+0093LEMO V0209991C000012200019N0100001N9+01201+00101999999ADDGA1011+007509089GA2011+060009009MA1102611999999
0066083970999991972030215004+37183-005617FM-15+0093LEMO V0202701N001012200019N0100001N9+01201+00101999999ADDGA1011+007509089GA2011+030009039GA3011+060009009MA1102571999999
0087083970999991972030216004+37183-005617FM-15+0093LEMO V0202801N002110600019N0100001N9+01001+00101999999ADDGA1011+007509089GA2011+030009039GA3051+060009029MA1102541999999REMMET012CIG200//LAST
0057083970999991972030309004+37183-005617FM-15+0093LEMO V0202101N00261002101CN0090001N9+00901+00601999999ADDGA1081+002109079MA1102371999999REMMET014CIGM007//FIRST
0081083970999991972030310004+37183-005617FM-15+0093LEMO V0202201N003610090019N0100001N9+01101+00801999999ADDGA1041+002109079GA2021+009009059GA3011+021009039MA1102401999999REMMET006CIG030
0081083970999991972030311004+37183-005617FM-15+0093LEMO V0202301N003610105019N0100001N9+01101+00901999999ADDGA1021+002109079GA2041+010509059GA3051+021009039MA1102441999999REMMET006CIG035
0065083970999991972030312004+37183-005617FM-15+0093LEMO V0202501N002110105019N0100001N9+01201+00901999999ADDGA1031+003009079GA2061+010509059MA1102441999999REMMET006CIG035
0065083970999991972030313004+37183-005617FM-15+0093LEMO V0209991C000010105019N0100001N9+01301+00901999999ADDGA1031+003009079GA2061+010509059MA1102401999999REMMET006CIG035
0081083970999991972030314004+37183-005617FM-15+0093LEMO V0202501N002610105019N0100001N9+01501+00901999999ADDGA1031+003609089GA2021+010509059GA3011+060009009MA1102301999999REMMET006CIG035
0065083970999991972030315004+37183-005617FM-15+0093LEMO V0203101N002610120019N0100001N9+01601+00801999999ADDGA1031+004809089GA2051+012009059MA1102201999999REMMET006CIG040
0083083970999991972030316004+37183-005617FM-15+0093LEMO V0209991V004110120019N0100001N9+01601+00801999999ADDGA1021+006009089GA2051+012009059MA1102101999999REMMET024CIG040 WND 230V290//LAST
0072083970999991972030609004+37183-005617FM-15+0093LEMO V0202501N004110150019N0100001N9+01201+00901999999ADDGA1021+004809059GA2071+015009059MA1101931999999REMMET013CIG050//FIRST
0065083970999991972030610004+37183-005617FM-15+0093LEMO V0202501N004610150019N0100001N9+01201+00901999999ADDGA1011+004809059GA2081+015009059MA1101931999999REMMET006CIG050
0065083970999991972030611004+37183-005617FM-15+0093LEMO V0202501N005110150019N0100001N9+01301+00901999999ADDGA1021+005409059GA2081+015009059MA1101931999999REMMET006CIG050
0065083970999991972030612004+37183-005617FM-15+0093LEMO V0202601N004110150019N0100001N9+01401+00901999999ADDGA1011+006009089GA2081+015009059MA1101961999999REMMET006CIG050
0065083970999991972030613004+37183-005617FM-15+0093LEMO V0202501N005710150019N0100001N9+01401+00901999999ADDGA1021+006009089GA2081+015009059MA1101901999999REMMET006CIG050
0065083970999991972030614004+37183-005617FM-15+0093LEMO V0202501N007210150019N0100001N9+01501+00901999999ADDGA1021+006009089GA2081+015009059MA1101801999999REMMET006CIG050
0065083970999991972030615004+37183-005617FM-15+0093LEMO V0202501N007210180019N0100001N9+01601+00801999999ADDGA1021+006909089GA2081+018009059MA1101691999999REMMET006CIG060
0071083970999991972030616004+37183-005617FM-15+0093LEMO V0202501N007210180019N0100001N9+01501+00801999999ADDGA1011+006909089GA2081+018009059MA1101661999999REMMET012CIG060//LAST
0072083970999991972030709004+37183-005617FM-15+0093LEMO V0202501N001510150019N0100001N9+00901+00601999999ADDGA1061+015009059GA2011+060009009MA1101561999999REMMET013CIG050//FIRST
0050083970999991972030710004+37183-005617FM-15+0093LEMO V0202401N003112200019N0100001N9+01001+00601999999ADDGA1011+015009059GA2021+060009009MA1101561999999
0065083970999991972030711004+37183-005617FM-15+0093LEMO V0202501N003610150019N0100001N9+01101+00601999999ADDGA1021+006009059GA2081+015009059MA1101561999999REMMET006CIG050
0065083970999991972030712004+37183-005617FM-15+0093LEMO V0202701N003610150019N0100001N9+01201+00601999999ADDGA1021+007509059GA2081+015009059MA1101491999999REMMET006CIG050
0081083970999991972030713004+37183-005617FM-15+0093LEMO V0202701N004110150019N0100001N9+01301+00601999999ADDGA1021+007509059GA2061+015009059GA3011+060009009MA1101421999999REMMET006CIG050
0097083970999991972030714004+37183-005617FM-15+0093LEMO V0202501N005110270019N0100001N9+01301+00501999999ADDGA1011+007509059GA2021+015009059GA3041+027009039GA4011+060009009MA1101291999999REMMET006CIG090
0081083970999991972030715004+37183-005617FM-15+0093LEMO V0202501N006210270019N0100001N9+01301+00601999999ADDGA1031+007509059GA2021+027009039GA3041+060009009MA1101151999999REMMET006CIG090
0097083970999991972030716004+37183-005617FM-15+0093LEMO V0202401N006210135019N0100001N9+01301+00601999999ADDGA1031+007509089GA2021+013509059GA3021+060009009MA1101051999999REMMET022CIG045 RASHU W-N//LAST
0066083970999991972030809004+37183-005617FM-15+0093LEMO V0203401N001512200019N0100001N9+00601+00301999999ADDGA1011+004509089GA2011+012009059GA3011+060009009MA1100981999999
0066083970999991972030810004+37183-005617FM-15+0093LEMO V0200401N002112200019N0100001N9+00801+00401999999ADDGA1011+004509089GA2011+012009059GA3011+060009009MA1101081999999
0066083970999991972030811004+37183-005617FM-15+0093LEMO V0200201N001512200019N0100001N9+00901+00401999999ADDGA1011+004509089GA2011+012009059GA3011+060009009MA1101051999999
0034083970999991972030812004+37183-005617FM-15+0093LEMO V0203301N00101220001CN0100001N9+00901+00401999999ADDGA1021+006009089MA1101021999999
0050083970999991972030813004+37183-005617FM-15+0093LEMO V0200301N001512200019N0100001N9+01101+00301999999ADDGA1021+007509089GA2011+060009009MA1100981999999
0050083970999991972030814004+37183-005617FM-15+0093LEMO V0203501N002112200019N0100001N9+01201+00301999999ADDGA1031+009009089GA2011+060009009MA1100911999999
0049083970999991972030815004+37183-005617FM-15+0093LEMO V0203201N00151010501CN0100001N9+01201+00401999999ADDGA1051+010509059MA1100881999999REMMET006CIG035
0055083970999991972030816004+37183-005617FM-15+0093LEMO V0203201N00211010501CN0100001N9+01201+00401999999ADDGA1061+010509059MA1100851999999REMMET012CIG035//LAST
0057083970999991972030909004+37183-005617FM-15+0093LEMO V0209991C00001000601CN0002001N9+00401+00201999999ADDGA1061+000609079MA1100981999999REMMET014CIGM002//FIRST
0050083970999991972030910004+37183-005617FM-15+0093LEMO V0209991C000012200019N0100001N9+00601+00401999999ADDGA1011+001209079GA2011+012009059MA1101051999999
0034083970999991972030911004+37183-005617FM-15+0093LEMO V0203201N00211220001CN0100001N9+00901+00501999999ADDGA1011+004509089MA1101121999999
0034083970999991972030912004+37183-005617FM-15+0093LEMO V0202801N00211220001CN0100001N9+01001+00601999999ADDGA1021+005409089MA1101121999999
0034083970999991972030913004+37183-005617FM-15+0093LEMO V0202701N00261220001CN0100001N9+01201+00701999999ADDGA1031+006009059MA1101121999999
0034083970999991972030914004+37183-005617FM-15+0093LEMO V0202901N00311220001CN0100001N9+01301+00501999999ADDGA1031+006009059MA1101081999999
0034083970999991972030915004+37183-005617FM-15+0093LEMO V0202401N00261220001CN0100001N9+01301+00501999999ADDGA1031+009009089MA1101021999999
0034083970999991972030916004+37183-005617FM-15+0093LEMO V0202701N00411220001CN0100001N9+01401+00601999999ADDGA1031+009009089MA1101021999999
0072083970999991972031009004+37183-005617FM-15+0093LEMO V0201801N003610135019N0100001N9+00901+00601999999ADDGA1021+007509059GA2081+013509059MA1100711999999REMMET013CIG045//FIRST
0065083970999991972031010004+37183-005617FM-15+0093LEMO V0202201N004110135019N0100001N9+01101+00801999999ADDGA1021+007509059GA2081+013509059MA1100711999999REMMET006CIG045
0065083970999991972031011004+37183-005617FM-15+0093LEMO V0202001N004110135019N0100001N9+01101+00701999999ADDGA1021+004509059GA2081+013509059MA1100711999999REMMET006CIG045
0065083970999991972031012004+37183-005617FM-15+0093LEMO V0201901N005110135019N0100001N9+00901+00601999999ADDGA1011+004509059GA2081+013509059MA1100711999999REMMET006CIG045
0097083970999991972031013004+37183-005617FM-15+0093LEMO V0201801N005110270019N0100001N9+01001+00601999999ADDGA1011+004509059GA2041+013509059GA3021+027009039GA4081+060009029MA1100641999999REMMET006CIG090
0097083970999991972031014004+37183-005617FM-15+0093LEMO V0202001N005710270019N0100001N9+01201+00601999999ADDGA1011+004509059GA2031+013509059GA3021+027009039GA4061+060009029MA1100581999999REMMET006CIG090
0114083970999991972031015004+37183-005617FM-15+0093LEMO V0202001N006710270019N0100001N9+01101+00701999999ADDGA1011+006009059GA2021+013509059GA3041+027009039GA4061+060009029MA1100471999999REMMET023CIG090 INTMT VRY LGT RA
0103083970999991972031016004+37183-005617FM-15+0093LEMO V0201801N006210600019N0100001N9+01201+00701999999ADDGA1011+006009059GA2011+013509059GA3021+027009039GA4051+060009029MA1100411999999REMMET012CIG200//LAST
0072083970999991972031309004+37183-005617FM-15+0093LEMO V0202901N002610096019N0090001N9+00801+00601999999ADDGA1051+009609059GA2081+024009049MA1101191999999REMMET013CIG032//FIRST
0081083970999991972031310004+37183-005617FM-15+0093LEMO V0200601N002110090019N0100001N9+00801+00601999999ADDGA1011+004809059GA2051+009009059GA3081+024009049MA1101191999999REMMET006CIG030
0081083970999991972031311004+37183-005617FM-15+0093LEMO V0200901N004110240019N0100001N9+01201+00801999999ADDGA1011+004809059GA2031+009009089GA3061+024009039MA1101221999999REMMET006CIG080
0089083970999991972031312004+37183-005617FM-15+0093LEMO V0201001N003110090019N0100001N9+01301+00901999999ADDGA1011+004809059GA2051+009009089GA3081+024009039MA1101151999999REMMET014CIG030 RASHU S
0081083970999991972031313004+37183-005617FM-15+0093LEMO V0201401N002110105019N0100001N9+01401+00901999999ADDGA1021+006009089GA2051+010509059GA3061+024009039MA1101151999999REMMET006CIG035
0093083970999991972031314004+37183-005617FM-15+0093LEMO V0209991V006710105019N0100001N9+01501+00901999999ADDGA1031+006009089GA2041+010509059GA3051+024009039MA1101081999999REMMET018CIG035 WND 150V230
0097083970999991972031315004+37183-005617FM-15+0093LEMO V0202001N006710600019N0100001N9+01601+00901999999ADDGA1021+006009089GA2021+010509059GA3011+027009039GA4041+060009009MA1100981999999REMMET006CIG200
0113083970999991972031316004+37183-005617FM-15+0093LEMO V0201901N006710600019N0100001N9+01601+00801999999ADDGA1031+006009089GA2011+010509059GA3011+027009039GA4051+060009009MA1100951999999REMMET022CIG200 RASHU W-N//LAST
0072083970999991972031409004+37183-005617FM-15+0093LEMO V0201801N002110210019N0100001N9+01001+00701999999ADDGA1031+010509059GA2081+021009049MA1101191999999REMMET013CIG070//FIRST
0065083970999991972031410004+37183-005617FM-15+0093LEMO V0201901N002110105019N0100001N9+01101+00701999999ADDGA1051+010509059GA2081+021009049MA1101251999999REMMET006CIG035
0065083970999991972031411004+37183-005617FM-15+0093LEMO V0201801N004110105019N0100001N9+01101+00801999999ADDGA1051+010509059GA2081+021009049MA1101291999999REMMET006CIG035
0081083970999991972031412004+37183-005617FM-15+0093LEMO V0202101N004110105019N0100001N9+01201+00801999999ADDGA1011+004509089GA2051+010509059GA3081+021009049MA1101291999999REMMET006CIG035
0103083970999991972031413004+37183-005617FM-15+0093LEMO V0209991V006710105019N0100001N9+01201+00901999999ADDGA1031+006009089GA2031+010509059GA3051+021009039MA1101321999999REMMET028CIG035 WND 200V270 RASHU W-N
0081083970999991972031414004+37183-005617FM-15+0093LEMO V0202901N001510090019N0100001N9+01201+00701999999ADDGA1051+009009089GA2031+012009059MA1101291999999REMMET022CIG030 RASHU 5E AND SE
0081083970999991972031415004+37183-005617FM-15+0093LEMO V0202101N006210210019N0100001N9+01201+00701999999ADDGA1021+009009089GA2011+012009059GA3071+021009049MA1101291999999REMMET006CIG070
0087083970999991972031416004+37183-005617FM-15+0093LEMO V0202001N006210210019N0100001N9+01201+00701999999ADDGA1011+009009089GA2021+012009059GA3081+021009039MA1101291999999REMMET012CIG070//LAST
0072083970999991972031509004+37183-005617FM-15+0093LEMO V0201601N001510096019N0100001N9+00901+00701999999ADDGA1061+009609059GA2081+027009049MA1101491999999REMMET013CIG032//FIRST
0065083970999991972031510004+37183-005617FM-15+0093LEMO V0201701N001510270019N0100001N9+01101+00701999999ADDGA1041+009609059GA2081+027009049MA1101521999999REMMET006CIG090
0081083970999991972031511004+37183-005617FM-15+0093LEMO V0202001N004110096019N0100001N9+01201+00801999999ADDGA1011+005409089GA2051+009609059GA3081+027009049MA1101561999999REMMET006CIG032
0094083970999991972031512004+37183-005617FM-15+0093LEMO V0202101N005110105019N0100001N9+01201+00801999999ADDGA1011+005709089GA2061+010509059GA3081+027009049MA1101591999999REMMET019CIG035 PCPN VRY LGT
0081083970999991972031513004+37183-005617FM-15+0093LEMO V0202101N006210105019N0100001N9+01101+00801999999ADDGA1011+005709089GA2061+010509059GA3081+027009049MA1101591999999REMMET006CIG035
0081083970999991972031514004+37183-005617FM-15+0093LEMO V0202001N005110105019N0100001N9+01101+00701999999ADDGA1011+005709089GA2061+010509059GA3081+027009049MA1101561999999REMMET006CIG035
0081083970999991972031515004+37183-005617FM-15+0093LEMO V0202001N003610105019N0100001N9+01101+00701999999ADDGA1021+006009089GA2041+010509059GA3081+027009049MA1101491999999REMMET006CIG035
0100083970999991972031516004+37183-005617FM-15+0093LEMO V0202101N004110270019N0100001N9+01101+00701999999ADDGA1011+006009089GA2031+012009059GA3081+027009049MA1101461999999REMMET025CIG090 PCPN VRY LGT//LAST
0072083970999991972031609004+37183-005617FM-15+0093LEMO V0209991C000010150019N0100001N9+00701+00401999999ADDGA1061+015009059GA2011+060009009MA1101931999999REMMET013CIG050//FIRST
0065083970999991972031610004+37183-005617FM-15+0093LEMO V0209991C000010150019N0100001N9+00901+00701999999ADDGA1061+015009059GA2011+060009009MA1102001999999REMMET006CIG050
0080083970999991972031611004+37183-005617FM-15+0093LEMO V0209991C000012200019N0100001N9+01101+00801999999ADDGA1021+007509089GA2021+015009059GA3011+060009009MA1102071999999REMMET005CIGNO
0050083970999991972031612004+37183-005617FM-15+0093LEMO V0209991C000012200019N0100001N9+01301+00801999999ADDGA1021+007509089GA2011+060009009MA1102071999999
0080083970999991972031613004+37183-005617FM-15+0093LEMO V0200301N001512200019N0100001N9+01301+00701999999ADDGA1031+007509089GA2011+015009059GA3011+060009009MA1102071999999REMMET005CIGNO
0065083970999991972031614004+37183-005617FM-15+0093LEMO V0209991C000010300019N0100001N9+01401+00601999999ADDGA1021+007509089GA2031+030009039MA1102031999999REMMET006CIG100
0081083970999991972031615004+37183-005617FM-15+0093LEMO V0200101N002610300019N0100001N9+01401+00701999999ADDGA1021+007509089GA2031+030009039GA3011+060009009MA1102001999999REMMET006CIG100
0081083970999991972031616004+37183-005617FM-15+0093LEMO V0203301N00211220001CN0100001N9+01501+00701999999ADDGA1011+009009089GA2011+030009039GA3011+060009009MA1101961999999REMMET006//LAST
0034083970999991972031709004+37183-005617FM-15+0093LEMO V0209991C00001220001CN0100001N9+00801+00501999999ADDGA1011+024009039MA1102301999999
0033083970999991972031710004+37183-005617FM-15+0093LEMO V0209991C00001220001CN0100001N9+01101+00801999999ADDMA1102341999999REMMET006FU W-N
0033083970999991972031711004+37183-005617FM-15+0093LEMO V0200501N00211220001CN0100001N9+01301+00801999999ADDMA1102371999999REMMET006FU W-N
0034083970999991972031712004+37183-005617FM-15+0093LEMO V0200601N00261220001CN0100001N9+01501+00801999999ADDGA1011+006009089MA1102341999999
0034083970999991972031713004+37183-005617FM-15+0093LEMO V0200601N00461220001CN0100001N9+01601+00801999999ADDGA1011+006009089MA1102241999999
0034083970999991972031714004+37183-005617FM-15+0093LEMO V0200601N00311220001CN0100001N9+01701+00801999999ADDGA1021+007509089MA1102131999999
0034083970999991972031715004+37183-005617FM-15+0093LEMO V0203601N00211220001CN0100001N9+01701+00801999999ADDGA1041+009009089MA1102071999999
0071083970999991972031716004+37183-005617FM-15+0093LEMO V0202901N002610270019N0100001N9+01701+00801999999ADDGA1031+009009089GA2041+027009039MA1102031999999REMMET012CIG090//LAST
0066083970999991972032009004+37183-005617FM-15+0093LEMO V0201401N001512200019N0100001N9+00701+00401999999ADDGA1011+006009089GA2011+027009039GA3011+060009009MA1101831999999
0066083970999991972032010004+37183-005617FM-15+0093LEMO V0209991C000012200019N0100001N9+01101+00401999999ADDGA1011+006009089GA2011+027009039GA3021+060009009MA1101861999999
0050083970999991972032011004+37183-005617FM-15+0093LEMO V0209991C000012200019N0100001N9+01301+00601999999ADDGA1021+006009089GA2021+060009009MA1101931999999
0064083970999991972032012004+37183-005617FM-15+0093LEMO V0209991C000012200019N0100001N9+01301+00401999999ADDGA1031+007509089GA2031+060009009MA1101901999999REMMET005CIGNO
0064083970999991972032013004+37183-005617FM-15+0093LEMO V0200301N001512200019N0100001N9+01301+00501999999ADDGA1021+009009089GA2051+060009009MA1101861999999REMMET005CIGNO
0064083970999991972032014004+37183-005617FM-15+0093LEMO V0200201N001512200019N0100001N9+01501+00401999999ADDGA1021+009009089GA2041+060009009MA1101801999999REMMET005CIGNO
0064083970999991972032015004+37183-005617FM-15+0093LEMO V0200801N001512200019N0100001N9+01501+00501999999ADDGA1031+010509089GA2021+060009009MA1101731999999REMMET005CIGNO
0050083970999991972032016004+37183-005617FM-15+0093LEMO V0200201N003112200019N0100001N9+01601+00601999999ADDGA1011+010509089GA2011+060009009MA1101661999999
0087083970999991972032109004+37183-005617FM-15+0093LEMO V0209991C000012200019N0100001N9+00801+00301999999ADDGA1011+007509089GA2011+018009059GA3031+060009009MA1101661999999REMMET012CIGNO//FIRST
0080083970999991972032110004+37183-005617FM-15+0093LEMO V0200801N002112200019N0100001N9+01201+00501999999ADDGA1011+007509089GA2021+018009059GA3041+060009009MA1101691999999REMMET005CIGNO
0066083970999991972032111004+37183-005617FM-15+0093LEMO V0209991C000010600019N0100001N9+01601+00601999999ADDGA1011+010509089GA2011+018009059GA3041+060009009MA1101691999999
0050083970999991972032112004+37183-005617FM-15+0093LEMO V0201501N001512200019N0100001N9+01801+00701999999ADDGA1011+007509089GA2041+060009009MA1101661999999
0065083970999991972032113004+37183-005617FM-15+0093LEMO V0201601N002110600019N0100001N9+01801+00601999999ADDGA1011+009009089GA2061+060009009MA1101591999999REMMET006CIG200
0081083970999991972032114004+37183-005617FM-15+0093LEMO V0203001N002610600019N0100001N9+01701+00701999999ADDGA1011+010509089GA2011+036009039GA3061+060009009MA1101591999999REMMET006CIG200
0081083970999991972032115004+37183-005617FM-15+0093LEMO V0203101N003110600019N0100001N9+01801+00801999999ADDGA1011+010509089GA2031+036009039GA3061+060009009MA1101561999999REMMET006CIG200
0087083970999991972032116004+37183-005617FM-15+0093LEMO V0202701N002610600019N0100001N9+01801+00701999999ADDGA1021+010509089GA2011+036009039GA3061+060009009MA1101521999999REMMET012CIG200//LAST
0018083970999991972032209004+37183-005617FM-15+0093LEMO V0200701N00151220001CN0100001N9+01001+00601999999ADDMA1101691999999
0018083970999991972032210004+37183-005617FM-15+0093LEMO V0200801N00261220001CN0100001N9+01401+00801999999ADDMA1101731999999
0018083970999991972032211004+37183-005617FM-15+0093LEMO V0209991C00001220001CN0100001N9+01601+00801999999ADDMA1101691999999
0034083970999991972032212004+37183-005617FM-15+0093LEMO V0201901N00151220001CN0100001N9+01801+00801999999ADDGA1011+060009009MA1101661999999
0034083970999991972032213004+37183-005617FM-15+0093LEMO V0201201N00211220001CN0100001N9+01901+00701999999ADDGA1011+060009009MA1101591999999
0034083970999991972032214004+37183-005617FM-15+0093LEMO V0202001N00151220001CN0100001N9+02101+00801999999ADDGA1011+060009009MA1101521999999
0050083970999991972032215004+37183-005617FM-15+0093LEMO V0202501N002612200019N0100001N9+02101+00801999999ADDGA1011+010509089GA2011+060009009MA1101461999999
0070083970999991972032216004+37183-005617FM-15+0093LEMO V0202901N001512200019N0100001N9+02101+00801999999ADDGA1011+012009089GA2051+060009009MA1101421999999REMMET011CIGNO//LAST
0072083970999991972032309004+37183-005617FM-15+0093LEMO V0202601N001010180019N0100001N9+01101+00701999999ADDGA1051+018009059GA2061+060009009MA1101591999999REMMET013CIG060//FIRST
0065083970999991972032310004+37183-005617FM-15+0093LEMO V0200601N001010180019N0100001N9+01201+00801999999ADDGA1061+018009059GA2041+060009009MA1101661999999REMMET006CIG060
0065083970999991972032311004+37183-005617FM-15+0093LEMO V0209991C000010180019N0100001N9+01301+00901999999ADDGA1061+018009059GA2041+060009009MA1101691999999REMMET006CIG060
0062083970999991972032312004+37183-005617FM-15+0093LEMO V0209991C00001018001CN0100001N9+01301+00901999999ADDGA1081+018009059MA1101731999999REMMET019CIG060 PCPN VRY LGT
0049083970999991972032313004+37183-005617FM-15+0093LEMO V0203601N00211018001CN0060001N9+01301+00901999999ADDGA1081+018009059MA1101731999999REMMET006CIG060
0065083970999991972032314004+37183-005617FM-15+0093LEMO V0200401N003110180019N0060001N9+01301+00901999999ADDGA1011+006009089GA2081+018009059MA1101661999999REMMET006CIG060
0081083970999991972032315004+37183-005617FM-15+0093LEMO V0200601N003110300019N0100001N9+01301+00901999999ADDGA1011+006009089GA2031+018009059GA3051+030009039MA1101661999999REMMET006CIG100
0087083970999991972032316004+37183-005617FM-15+0093LEMO V0200601N003610300019N0100001N9+01401+01001999999ADDGA1011+006009089GA2031+018009059GA3061+030009039MA1101631999999REMMET012CIG100//LAST
0102083970999991972032409004+37183-005617FM-15+0093LEMO V0201201N001010060019N0070001N9+01101+00801999999ADDGA1011+002109079GA2051+006009059GA3031+013509059MA1102171999999REMMET027CIG020 VSBY HIR S-SW//FIRST
0081083970999991972032410004+37183-005617FM-15+0093LEMO V0209991C000010150019N0100001N9+01201+00901999999ADDGA1011+003009089GA2021+006009059GA3051+015009059MA1102201999999REMMET006CIG050
0050083970999991972032411004+37183-005617FM-15+0093LEMO V0209991C000012200019N0100001N9+01401+00901999999ADDGA1031+006009089GA2011+027009039MA1102241999999
0034083970999991972032412004+37183-005617FM-15+0093LEMO V0203601N00211220001CN0100001N9+01401+00901999999ADDGA1041+007509089MA1102241999999
0065083970999991972032413004+37183-005617FM-15+0093LEMO V0203301N001510150019N0100001N9+01501+00801999999ADDGA1021+007509089GA2051+015009059MA1102201999999REMMET006CIG050
0050083970999991972032414004+37183-005617FM-15+0093LEMO V0201301N001012200019N0100001N9+01701+00901999999ADDGA1021+007509089GA2011+015009059MA1102201999999
0050083970999991972032415004+37183-005617FM-15+0093LEMO V0203301N002612200019N0100001N9+01601+00801999999ADDGA1021+007509089GA2011+015009059MA1102131999999
0050083970999991972032416004+37183-005617FM-15+0093LEMO V0202801N002612200019N0100001N9+01701+00801999999ADDGA1011+007509089GA2011+060009009MA1102071999999
0018083970999991972032709004+37183-005617FM-15+0093LEMO V0200601N00311220001CN0100001N9+01301+00901999999ADDMA1102131999999
0018083970999991972032710004+37183-005617FM-15+0093LEMO V0200601N00311220001CN0100001N9+01601+01001999999ADDMA1102131999999
0034083970999991972032711004+37183-005617FM-15+0093LEMO V0200601N00311220001CN0100001N9+01801+01101999999ADDGA1011+007509089MA1102131999999
0034083970999991972032712004+37183-005617FM-15+0093LEMO V0200701N00411220001CN0100001N9+02001+00901999999ADDGA1011+007509089MA1102131999999
0034083970999991972032713004+37183-005617FM-15+0093LEMO V0200701N00261220001CN0100001N9+02101+00901999999ADDGA1011+007509089MA1102071999999
0034083970999991972032714004+37183-005617FM-15+0093LEMO V0200701N00461220001CN0100001N9+02101+00901999999ADDGA1011+007509089MA1102001999999
0034083970999991972032715004+37183-005617FM-15+0093LEMO V0200801N00311220001CN0100001N9+02201+00901999999ADDGA1011+007509089MA1101931999999
0034083970999991972032716004+37183-005617FM-15+0093LEMO V0200501N00311220001CN0100001N9+02201+01001999999ADDGA1011+007509089MA1101831999999
0056083970999991972032809004+37183-005617FM-15+0093LEMO V0209991C00001060001CN0100001N9+01201+00801999999ADDGA1061+060009009MA1101561999999REMMET013CIG200//FIRST
0049083970999991972032810004+37183-005617FM-15+0093LEMO V0200801N00311060001CN0100001N9+01501+00801999999ADDGA1061+060009009MA1101521999999REMMET006CIG200
0034083970999991972032811004+37183-005617FM-15+0093LEMO V0200801N00411220001CN0100001N9+01801+00901999999ADDGA1041+060009009MA1101521999999
0050083970999991972032812004+37183-005617FM-15+0093LEMO V0200601N002612200019N0100001N9+01901+00901999999ADDGA1011+007509089GA2041+060009009MA1101491999999
0050083970999991972032813004+37183-005617FM-15+0093LEMO V0200601N002112200019N0100001N9+02101+00901999999ADDGA1011+007509089GA2041+060009009MA1101461999999
0064083970999991972032814004+37183-005617FM-15+0093LEMO V0209991C000012200019N0100001N9+02201+00701999999ADDGA1011+007509089GA2061+060009009MA1101421999999REMMET005CIGNO
0065083970999991972032815004+37183-005617FM-15+0093LEMO V0203201N002110600019N0100001N9+02201+00901999999ADDGA1011+007509089GA2061+060009009MA1101291999999REMMET006CIG200
0071083970999991972032816004+37183-005617FM-15+0093LEMO V0203601N001510600019N0100001N9+02301+00901999999ADDGA1011+013509089GA2071+060009009MA1101221999999REMMET012CIG200//LAST
0072083970999991972032909004+37183-005617FM-15+0093LEMO V0209991C000010360019N0100001N9+01401+00901999999ADDGA1041+013509059GA2061+036009039MA1101391999999REMMET013CIG120//FIRST
0065083970999991972032910004+37183-005617FM-15+0093LEMO V0209991C000010330019N0100001N9+01601+00901999999ADDGA1031+013509059GA2061+033009039MA1101461999999REMMET006CIG110
0080083970999991972032911004+37183-005617FM-15+0093LEMO V0200701N001512200019N0100001N9+01701+00901999999ADDGA1011+007509089GA2031+013509059GA3031+060009009MA1101461999999REMMET005CIGNO
0080083970999991972032912004+37183-005617FM-15+0093LEMO V0200601N002112200019N0100001N9+01901+01001999999ADDGA1011+007509089GA2031+015009059GA3031+060009009MA1101461999999REMMET005CIGNO
0080083970999991972032913004+37183-005617FM-15+0093LEMO V0209991C000012200019N0100001N9+01901+01001999999ADDGA1011+007509089GA2041+015009059GA3031+060009009MA1101421999999REMMET005CIGNO
0081083970999991972032914004+37183-005617FM-15+0093LEMO V0209991C000010135019N0100001N9+01901+01001999999ADDGA1011+007509089GA2061+013509089GA3031+060009009MA1101421999999REMMET006CIG045
0081083970999991972032915004+37183-005617FM-15+0093LEMO V0202301N001510120019N0100001N9+02001+01101999999ADDGA1011+007509089GA2051+012009089GA3011+060009009MA1101391999999REMMET006CIG040
0071083970999991972032916004+37183-005617FM-15+0093LEMO V0202501N002610120019N0100001N9+02101+01201999999ADDGA1051+012009089GA2011+060009009MA1101321999999REMMET012CIG040//LAST
0057083970999991972033009004+37183-005617FM-15+0093LEMO V0202401N00211002701CN0060001N9+01401+01101999999ADDGA1081+002709079MA1101831999999REMMET014CIGM009//FIRST
0066083970999991972033010004+37183-005617FM-15+0093LEMO V0202401N003110027019N0100001N9+01401+01101999999ADDGA1051+002709079GA2081+008409059MA1101931999999REMMET007CIGM009
0075083970999991972033011004+37183-005617FM-15+0093LEMO V0202301N004610036019N0100001N9+01601+01201999999ADDGA1051+003609079GA2071+008409059MA1101961999999REMMET016CIGM012 HZ AL8DS
0074083970999991972033012004+37183-005617FM-15+0093LEMO V0202301N004610090019N0100001N9+01601+01101999999ADDGA1031+004509059GA2081+006009059MA1102031999999REMMET015CIG030 HZ ALQ4S
0065083970999991972033013004+37183-005617FM-15+0093LEMO V0202301N004110090019N0100001N9+01601+01101999999ADDGA1031+004509059GA2081+009009059MA1102031999999REMMET006CIG030
0065083970999991972033014004+37183-005617FM-15+0093LEMO V0202401N005110090019N0100001N9+01801+01101999999ADDGA1011+004509059GA2071+009009089MA1102001999999REMMET006CIG030
0050083970999991972033015004+37183-005617FM-15+0093LEMO V0202501N00511007501CN0100001N9+01801+01101999999ADDGA1061+007509089MA1101961999999REMMET007CIGM025
0056083970999991972033016004+37183-005617FM-15+0093LEMO V0202501N00511007501CN0100001N9+01801+01101999999ADDGA1061+007509089MA1101961999999REMMET013CIGM025//LAST
0034083970999991972033109004+37183-005617FM-15+0093LEMO V0209991C00001220001CN0100001N9+01101+00701999999ADDGA1031+060009009MA1102301999999
0034083970999991972033110004+37183-005617FM-15+0093LEMO V0209991C00001220001CN0100001N9+01301+00901999999ADDGA1031+060009009MA1102301999999
0064083970999991972033111004+37183-005617FM-15+0093LEMO V0202901N001512200019N0100001N9+01501+01101999999ADDGA1041+005409089GA2031+060009009MA1102371999999REMMET005CIGNO
0065083970999991972033112004+37183-005617FM-15+0093LEMO V0203301N001510600019N0100001N9+01601+01101999999ADDGA1031+006009089GA2071+060009029MA1102371999999REMMET006CIG200
0065083970999991972033113004+37183-005617FM-15+0093LEMO V0203101N002110600019N0100001N9+01601+01101999999ADDGA1021+006009089GA2071+060009029MA1102371999999REMMET006CIG200
0065083970999991972033114004+37183-005617FM-15+0093LEMO V0203201N001510600019N0100001N9+01701+01101999999ADDGA1011+006009089GA2061+060009029MA1102371999999REMMET006CIG200
0081083970999991972033115004+37183-005617FM-15+0093LEMO V0203401N001510360019N0100001N9+01801+01101999999ADDGA1011+006009089GA2041+036009039GA3021+060009009MA1102301999999REMMET006CIG120
0087083970999991972033116004+37183-005617FM-15+0093LEMO V0200201N002610360019N0100001N9+01801+01101999999ADDGA1011+006009089GA2041+036009039GA3021+060009009MA1102201999999REMMET012CIG120//LAST
0050083970999991972040309004+37183-005617FM-15+0093LEMO V0201401N00101220001CN0100001N9+01401+00901999999ADDGA1031+066009009MA1102471999999REMMET007//FIRST
0034083970999991972040310004+37183-005617FM-15+0093LEMO V0209991C00001220001CN0100001N9+01701+00801999999ADDGA1021+066009009MA1102441999999
0034083970999991972040311004+37183-005617FM-15+0093LEMO V0209991C00001220001CN0100001N9+01801+00701999999ADDGA1021+060009009MA1102441999999
0034083970999991972040312004+37183-005617FM-15+0093LEMO V0209991C00001220001CN0100001N9+01901+00801999999ADDGA1021+060009009MA1102401999999
0034083970999991972040313004+37183-005617FM-15+0093LEMO V0209991C00001220001CN0100001N9+02101+01001999999ADDGA1031+060009009MA1102301999999
0050083970999991972040314004+37183-005617FM-15+0093LEMO V0202601N00151220001CN0100001N9+02201+01101999999ADDGA1011+012009089GA2031+060009009MA1102241999999
0050083970999991972040315004+37183-005617FM-15+0093LEMO V0202901N00151220001CN0100001N9+02301+01301999999ADDGA1011+012009089GA2021+060009009MA1102131999999
0065083970999991972040316004+37183-005617FM-15+0093LEMO V0203301N00151220001CN0100001N9+02401+01201999999ADDGA1011+012009089GA2011+060009009MA1102101999999REMMET006//LAST
0050083970999991972040409004+37183-005617FM-15+0093LEMO V0209991C00001220001CN0100001N9+01401+00801999999ADDGA1011+060009009MA1102101999999REMMET007//FIRST
0034083970999991972040410004+37183-005617FM-15+0093LEMO V0202301N00261220001CN0100001N9+01701+01001999999ADDGA1011+060009009MA1102071999999
0034083970999991972040411004+37183-005617FM-15+0093LEMO V0202501N00361220001CN0100001N9+01901+01101999999ADDGA1021+060009009MA1102071999999
0060083970999991972040412004+37183-005617FM-15+0093LEMO V0209991V00361220001CN0100001N9+01901+01301999999ADDGA1071+060009009MA1102001999999REMMET017CIGNO WND 190V270
0048083970999991972040413004+37183-005617FM-15+0093LEMO V0202601N00511220001CN0100001N9+02101+01401999999ADDGA1071+060009009MA1101961999999REMMET005CIGNO
0049083970999991972040414004+37183-005617FM-15+0093LEMO V0202701N00511060001CN0100001N9+02101+01401999999ADDGA1081+060009029MA1101931999999REMMET006CIG200
0081083970999991972040415004+37183-005617FM-15+0093LEMO V0202601N005710600019N0100001N9+02201+01101999999ADDGA1011+010509089GA2031+030009039GA3081+060009029MA1101861999999REMMET006CIG200
0087083970999991972040416004+37183-005617FM-15+0093LEMO V0202501N005712200019N0100001N9+02201+01201999999ADDGA1011+010509089GA2021+030009039GA3061+060009029MA1101831999999REMMET012CIGNO //LAST
0089083970999991972040509004+37183-005617FM-15+0093LEMO V0202301N003110270019N0100001N9+01301+00901999999ADDGA1011+012009059GA2061+027009039GA3011+060009009MA1102071999999REMMET014CIG090 //FIRST
0065083970999991972040510004+37183-005617FM-15+0093LEMO V0202501N002610270019N0100001N9+01401+01001999999ADDGA1011+012009059GA2071+027009039MA1102171999999REMMET006CIG090
0093083970999991972040511004+37183-005617FM-15+0093LEMO V0209991V003610270019N0100001N9+01601+01001999999ADDGA1011+006009089GA2011+012009059GA3071+027009039MA1102201999999REMMET018CIG090 WND 240V310
0066083970999991972040512004+37183-005617FM-15+0093LEMO V0202701N004612200019N0100001N9+01801+01101999999ADDGA1021+006909089GA2011+027009039GA3011+060009009MA1102201999999
0077083970999991972040513004+37183-005617FM-15+0093LEMO V0209991V004610270019N0100001N9+01801+01101999999ADDGA1021+010509089GA2051+027009039MA1102171999999REMMET018CIG090 WND 220V320
0065083970999991972040514004+37183-005617FM-15+0093LEMO V0202701N004110135019N0100001N9+01801+01101999999ADDGA1021+007509089GA2081+013509059MA1102131999999REMMET006CIG045
0081083970999991972040515004+37183-005617FM-15+0093LEMO V0202601N005110270019N0100001N9+01901+01201999999ADDGA1011+007509089GA2031+013509059GA3041+027009039MA1102071999999REMMET006CIG090
0072083970999991972040516004+37183-005617FM-15+0093LEMO V0202501N005110135019N0100001N9+01801+01201999999ADDGA1031+007509089GA2061+013509059MA1102031999999REMMET013CIG045 //LAST
0050083970999991972040609004+37183-005617FM-15+0093LEMO V0209991C000019999999N0032001N9+01201+00901999999ADDGA1101+000159999GA2011+060009009MA1102341999999
0069083970999991972040610004+37183-005617FM-15+0093LEMO V0200701N00211220001CN0100001N9+01401+01001999999ADDGA1011+001809079GA2021+060009009MA1102341999999REMMET010MIFG ALQDS
0034083970999991972040611004+37183-005617FM-15+0093LEMO V0200601N00261220001CN0100001N9+01701+01001999999ADDGA1031+060009009MA1102341999999
0034083970999991972040612004+37183-005617FM-15+0093LEMO V0200701N00211220001CN0100001N9+01901+00901999999ADDGA1031+060009009MA1102301999999
0034083970999991972040613004+37183-005617FM-15+0093LEMO V0200701N00261220001CN0100001N9+02101+00901999999ADDGA1031+060009009MA1102271999999
0034083970999991972040614004+37183-005617FM-15+0093LEMO V0200301N00211220001CN0100001N9+02201+01001999999ADDGA1021+060009009MA1102201999999
0034083970999991972040615004+37183-005617FM-15+0093LEMO V0200201N00311220001CN0100001N9+02201+00901999999ADDGA1041+060009009MA1102131999999
0055083970999991972040616004+37183-005617FM-15+0093LEMO V0200601N00211220001CN0100001N9+02201+01001999999ADDGA1061+060009009MA1102071999999REMMET012CIGNO //LAST
0034083970999991972040709004+37183-005617FM-15+0093LEMO V0200501N00211220001CN0100001N9+01601+01101999999ADDGA1021+060009009MA1101931999999
0034083970999991972040710004+37183-005617FM-15+0093LEMO V0200501N00311220001CN0100001N9+01901+01101999999ADDGA1031+060009009MA1101861999999
0048083970999991972040711004+37183-005617FM-15+0093LEMO V0200801N00311220001CN0100001N9+02101+01201999999ADDGA1051+060009009MA1101861999999REMMET005CIGNO
0048083970999991972040712004+37183-005617FM-15+0093LEMO V0200601N00311220001CN0100001N9+02301+01201999999ADDGA1061+060009009MA1101801999999REMMET005CIGNO
0048083970999991972040713004+37183-005617FM-15+0093LEMO V0200501N00311220001CN0100001N9+02401+01201999999ADDGA1061+060009009MA1101761999999REMMET005CIGNO
0048083970999991972040714004+37183-005617FM-15+0093LEMO V0200301N00151220001CN0100001N9+02501+01201999999ADDGA1061+060009009MA1101691999999REMMET005CIGNO
0080083970999991972040715004+37183-005617FM-15+0093LEMO V0203101N003112200019N0100001N9+02601+01001999999ADDGA1011+012009089GA2011+036009039GA3061+060009009MA1101661999999REMMET005CIGNO
0087083970999991972040716004+37183-005617FM-15+0093LEMO V0203101N003112200019N0100001N9+02601+01101999999ADDGA1011+012009089GA2011+036009039GA3081+060009029MA1101591999999REMMET012CIGNO //LAST
0034083970999991972041009004+37183-005617FM-15+0093LEMO V0202501N00151220001CN0100001N9+00801+00201999999ADDGA1021+066009009MA1102441999999
0034083970999991972041010004+37183-005617FM-15+0093LEMO V0203501N00211220001CN0100001N9+01001+00201999999ADDGA1021+066009009MA1102401999999
0034083970999991972041011004+37183-005617FM-15+0093LEMO V0202901N00101220001CN0100001N9+01201+00301999999ADDGA1021+066009009MA1102441999999
0050083970999991972041012004+37183-005617FM-15+0093LEMO V0202501N001512200019N0100001N9+01301+00301999999ADDGA1011+009009089GA2021+066009009MA1102341999999
0080083970999991972041013004+37183-005617FM-15+0093LEMO V0202601N002612200019N0100001N9+01401+00401999999ADDGA1011+009009089GA2011+030009039GA3031+066009009MA1102271999999REMMET005CIGNO
0092083970999991972041014004+37183-005617FM-15+0093LEMO V0209991V004112200019N0100001N9+01601+00301999999ADDGA1011+009009089GA2011+030009039GA3051+066009009MA1102241999999REMMET017CIGNO WND 260V340
0092083970999991972041015004+37183-005617FM-15+0093LEMO V0209991V003612200019N0100001N9+01701+00401999999ADDGA1011+009009089GA2021+030009039GA3051+066009009MA1102131999999REMMET017CIGNO WND 220V310
0100083970999991972041016004+37183-005617FM-15+0093LEMO V0209991V004110300019N0100001N9+01701+00401999999ADDGA1011+009009089GA2051+030009039GA3011+066009009MA1102071999999REMMET025CIG100 WND 230V310 //LAST
0072083970999991972041109004+37183-005617FM-15+0093LEMO V0202601N004610114019N0100001N9+01301+00901999999ADDGA1011+004209059GA2081+011409059MA1101931999999REMMET013CIG038 //FIRS
0065083970999991972041110004+37183-005617FM-15+0093LEMO V0202701N004110114019N0100001N9+01401+01001999999ADDGA1011+004209059GA2081+011409059MA1101931999999REMMET006CIG038
0065083970999991972041111004+37183-005617FM-15+0093LEMO V0202601N004110120019N0100001N9+01601+01101999999ADDGA1021+004809059GA2081+012009059MA1101931999999REMMET006CIG040
0065083970999991972041112004+37183-005617FM-15+0093LEMO V0203001N003610120019N0100001N9+01701+01101999999ADDGA1021+004809059GA2081+012009059MA1101901999999REMMET006CIG040
0049083970999991972041113004+37183-005617FM-15+0093LEMO V0202801N00411010501CN0100001N9+01801+01101999999ADDGA1071+010509059MA1101761999999REMMET006CIG035
0061083970999991972041114004+37183-005617FM-15+0093LEMO V0209991V00511010501CN0100001N9+01901+01101999999ADDGA1061+010509059MA1101691999999REMMET018CIG035 WND 240V310
0077083970999991972041115004+37183-005617FM-15+0093LEMO V0209991V005110105019N0100001N9+02101+01101999999ADDGA1061+010509059GA2011+060009009MA1101631999999REMMET018CIG035 WMD 220V300
0077083970999991972041116004+37183-005617FM-15+0093LEMO V0209991V00571220001CN0100001N9+02101+01101999999ADDGA1021+012009059GA2021+060009009MA1101491999999REMMET018WND 230V290 / LAST
0088083970999991972041209004+37183-005617FM-15+0093LEMO V0202401N001512200019N0100001N9+01201+00801999999ADDGA1011+004509089GA2011+027009039GA3061+060009009MA1101521999999REMMET013CIGNO //FIRST
0064083970999991972041210004+37183-005617FM-15+0093LEMO V0209991C000012200019N0100001N9+01301+00801999999ADDGA1011+005409089GA2061+060009009MA1101521999999REMMET005CIGNO
0080083970999991972041211004+37183-005617FM-15+0093LEMO V0202701N002112200019N0100001N9+01501+00801999999ADDGA1011+006009089GA2011+027009039GA3061+060009009MA1101561999999REMMET005CIGNO
0064083970999991972041212004+37183-005617FM-15+0093LEMO V0203201N002612200019N0100001N9+01601+00801999999ADDGA1011+006609089GA2051+060009009MA1101521999999REMMET005CIGNO
0064083970999991972041213004+37183-005617FM-15+0093LEMO V0202701N001512200019N0100001N9+01701+00701999999ADDGA1021+006609089GA2051+060009009MA1101461999999REMMET005CIGNO
0064083970999991972041214004+37183-005617FM-15+0093LEMO V0202701N002612200019N0100001N9+01801+00901999999ADDGA1021+006609089GA2051+060009009MA1101461999999REMMET005CIGNO
0064083970999991972041215004+37183-005617FM-15+0093LEMO V0203001N001512200019N0100001N9+01901+00801999999ADDGA1011+006609089GA2051+060009009MA1101421999999REMMET005CIGNO
0071083970999991972041216004+37183-005617FM-15+0093LEMO V0202501N002112200019N0100001N9+01901+00801999999ADDGA1011+009009089GA2061+060009009MA1101391999999REMMET012CIGNO //LAST
0034083970999991972041309004+37183-005617FM-15+0093LEMO V0200601N00511220001CN0100001N9+01401+00501999999ADDMA1101561999999REMMET007//FIRST
0018083970999991972041310004+37183-005617FM-15+0093LEMO V0200501N00411220001CN0100001N9+01801+99999999999ADDMA1101591999999
0018083970999991972041311004+37183-005617FM-15+0093LEMO V0200701N00511220001CN0100001N9+02101+00501999999ADDMA1101591999999
0018083970999991972041312004+37183-005617FM-15+0093LEMO V0200801N00461220001CN0100001N9+02201+00401999999ADDMA1101561999999
0038083970999991972041313004+37183-005617FM-15+0093LEMO V0209991V00461220001CN0100001N9+02401+00601999999ADDMA1101521999999REMMET011WND 040V110
0054083970999991972041314004+37183-005617FM-15+0093LEMO V0209991V00511220001CN0100001N9+02501+00401999999ADDGA1011+060009009MA1101461999999REMMET011WND 040V120
0054083970999991972041315004+37183-005617FM-15+0093LEMO V0209991V00461220001CN0100001N9+02601+00401999999ADDGA1011+060009009MA1101391999999REMMET011WND 030V100
0061083970999991972041316004+37183-005617FM-15+0093LEMO V0209991V00571220001CN0100001N9+02601+00501999999ADDGA1021+060009009MA1101321999999REMMET018WND 030V100 //LAST
0057083970999991972041409004+37183-005617FM-15+0093LEMO V0200601N00101060001CN0100001N9+01301+00501999999ADDGA1071+060009029MA1101491999999REMMET014CIG200 //FIRST
0049083970999991972041410004+37183-005617FM-15+0093LEMO V0200401N00211060001CN0100001N9+01701+00701999999ADDGA1071+060009029MA1101461999999REMMET006CIG200
0049083970999991972041411004+37183-005617FM-15+0093LEMO V0200601N00211060001CN0100001N9+02101+00701999999ADDGA1071+060009029MA1101461999999REMMET006CIG200
0049083970999991972041412004+37183-005617FM-15+0093LEMO V0200501N00261060001CN0100001N9+02401+00801999999ADDGA1061+060009029MA1101421999999REMMET006CIG200
0054083970999991972041413004+37183-005617FM-15+0093LEMO V0209991V00311220001CN0100001N9+02601+00701999999ADDGA1041+060009029MA1101561999999REMMET011WND 030V090
0076083970999991972041414004+37183-005617FM-15+0093LEMO V0209991V005112200019N0100001N9+02601+00701999999ADDGA1011+036009039GA2061+060009029MA1101321999999REMMET017CIGNO WND 040 100
0064083970999991972041415004+37183-005617FM-15+0093LEMO V0200401N004112200019N0100001N9+02701+00701999999ADDGA1011+036009039GA2061+060009029MA1101291999999REMMET005CIGNO
0071083970999991972041416004+37183-005617FM-15+0093LEMO V0200401N002612200019N0100001N9+02601+00701999999ADDGA1011+036009039GA2071+060009029MA1101221999999REMMET012CIGNO //LAST
0018083970999991972041709004+37183-005617FM-15+0093LEMO V0202701N00411220001CN0100001N9+01401+00101999999ADDMA1101351999999
0034083970999991972041710004+37183-005617FM-15+0093LEMO V0200701N00621220001CN0100001N9+01701+00101999999ADDGA1011+060009009MA1101421999999
0034083970999991972041711004+37183-005617FM-15+0093LEMO V0200601N00671220001CN0100001N9+01801+00001999999ADDGA1011+060009009MA1101461999999
0054083970999991972041712004+37183-005617FM-15+0093LEMO V0209991V00621220001CN0100001N9+01901+00101999999ADDGA1011+060009009MA1101391999999REMMET011WND 050V120
0054083970999991972041713004+37183-005617FM-15+0093LEMO V0209991V00511220001CN0100001N9+02101+00101999999ADDGA1011+060009009MA1101351999999REMMET011WND 020V100
0034083970999991972041714004+37183-005617FM-15+0093LEMO V0200701N00461220001CN0100001N9+02201+00101999999ADDGA1011+060009009MA1101291999999
0070083970999991972041715004+37183-005617FM-15+0093LEMO V0209991V00411220001CN0100001N9+02201+00201999999ADDGA1011+009009089GA2011+060009009MA1101221999999REMMET011WND 350V080
0077083970999991972041716004+37183-005617FM-15+0093LEMO V0209991V00361220001CN0100001N9+02201+00101999999ADDGA1011+009009089GA2011+060009009MA1101121999999REMMET018WND 010V090 / LAST
0034083970999991972041809004+37183-005617FM-15+0093LEMO V0200801N00461220001CN0100001N9+01201-00101999999ADDGA1031+060009009MA1101461999999
0034083970999991972041810004+37183-005617FM-15+0093LEMO V0200801N00511220001CN0100001N9+01401+00101999999ADDGA1031+060009009MA1101461999999
0054083970999991972041811004+37183-005617FM-15+0093LEMO V0209991V00511220001CN0100001N9+01601+00101999999ADDGA1021+060009009MA1101491999999REMMET011WND 010V110
