0142085090999991972010100004+38767-027100FM-15+0055LPLA V0200801N006210045019N0100001N9+01401+01301999999ADDGA1011+001809079GA2031+004509089GA3051+009009059GF108991999999999999999999MA1100881100201REMMET041CIG015RDGS SW-W OBSCD RADAT 88077 WET RWY
0114085090999991972010101004+38767-027100FM-15+0055LPLA V0200901N006210090019N0100001N9+01501+01301999999ADDGA1011+003009079GA2051+009009059GF107991999999999999999999MA1100911100221REMMET029CIG030RDGS SW-W OBSCD WET RWY
0133085090999991972010102004+38767-027100FM-15+0055LPLA V0201001N004110045019N0100001N9+01501+01301999999ADDGA1021+003009079GA2031+004509089GA3051+009009059GF108991999999999999999999MA1100881100191REMMET032CIG015HLTPS SW-W IN CLDS WET RWY
0136085090999991972010103004+38767-027100FM-15+0055LPLA V0201001N006210042019N0100001N9+01501+01301999999ADDGA1021+002709079GA2031+004209089GA3051+009009059GF108991999999999999999999MA1100911100241REMMET035CIG014INTMT RADZ HLTPS SW-W IN CLDS
0133085090999991972010104004+38767-027100FM-15+0055LPLA V0201001N006210090019N0100001N9+01501+01301999999ADDGA1011+002709079GA2031+004509089GA3051+009009059GF108991999999999999999999MA1100981100291REMMET032CIG030HLTPS SW-W IN CLDS WET RWY
0133085090999991972010105004+38767-027100FM-15+0055LPLA V0201001N006210048019N0100001N9+01501+01301999999ADDGA1011+002109079GA2031+004809089GA3051+009009059GF108991999999999999999999MA1100951100261REMMET032CIG016HLTPS SW-W IN CLDS WET RWY
0133085090999991972010106004+38767-027100FM-15+0055LPLA V0201001N005110045019N0100001N9+01501+01301999999ADDGA1011+002109079GA2031+004509089GA3051+009009059GF108991999999999999999999MA1100951100271REMMET032CIG015HLTPS SW-W IN CLDS WET RWY
0133085090999991972010107004+38767-027100FM-15+0055LPLA V0201001N006210045019N0100001N9+01501+01301999999ADDGA1011+002109079GA2031+004509089GA3051+009009059GF108991999999999999999999MA1100981100291REMMET032CIG015HLTPS SW-W IN CLDS WET RWY
0136085090999991972010108004+38767-027100FM-15+0055LPLA V0201201N005110045019N0080001N9+01401+01301999999ADDGA1011+001509079GA2031+003009079GA3051+009009059GF108991999999999999999999MA1101051100361MW1581REMMET029CIG015RDGS SW-W OBSCD WET RWY
0133085090999991972010109004+38767-027100FM-15+0055LPLA V0201101N006710045019N0100001N9+01501+01301999999ADDGA1011+001509079GA2031+003009079GA3051+009009059GF108991999999999999999999MA1101121100441REMMET032CIG015HLTPS SW-W IN CLDS WET RWY
0133085090999991972010110004+38767-027100FM-15+0055LPLA V0201101N006710045019N0100001N9+01501+01301999999ADDGA1011+001509079GA2031+004509089GA3051+009009059GF108991999999999999999999MA1101121100421REMMET032CIG015HLTPS SW-W IN CLDS WET RWY
0144085090999991972010111004+38767-027100FM-15+0055LPLA V0201101N007710045019N0100001N9+01601+01301999999ADDGA1011+001509079GA2031+003009079GA3051+009009059GF108991999999999999999999MA1101191100491REMMET043CIG015INTMT RADZ HLTPS SW-W IN CLDS WET RWY
0145085090999991972010112004+38767-027100FM-15+0055LPLA V0201101N007710045019N0100001N9+01601+01301999999ADDGA1011+001809079GA2031+003009079GA3051+009009059GF108991999999999999999999MA1101221100541REMMET044CIG015HLTPS SW-W IN CLDS RADAT 42096 WET RWY
0133085090999991972010113004+38767-027100FM-15+0055LPLA V0201201N008210045019N0100001N9+01601+01401999999ADDGA1011+001809079GA2031+004509089GA3051+009009059GF108991999999999999999999MA1101221100521REMMET032CIG015HLTPS SW-W IN CLDS WET RWY
0136085090999991972010114004+38767-027100FM-15+0055LPLA V0201201N008210045019N0090001N9+01601+01401999999ADDGA1011+001509079GA2031+002709079GA3051+009009059GF108991999999999999999999MA1101121100421MW1581REMMET029CIG015RDGS SW-W OBSCD WET RWY
0136085090999991972010115004+38767-027100FM-15+0055LPLA V0201301N007210045019N0060001N9+01601+01401999999ADDGA1011+001509079GA2031+002709079GA3051+009009059GF108991999999999999999999MA1101081100411MW1581REMMET029CIG015RDGS SW-W OBSCD WET RWY
0148085090999991972010116004+38767-027100FM-15+0055LPLA V0201301N007210042019N0048001N9+01601+01401999999ADDGA1011+001509079GA2031+002709079GA3051+009009059GF108991999999999999999999MA1101051100361MW1581REMMET041CIG014VIS N 2400 RDGS  SW-W OBSCD WET RWY
0122085090999991972010117004+38767-027100FM-15+0055LPLA V0201401N006710042019N0100001N9+01601+01401999999ADDGA1011+001809079GA2031+003009079GA3051+009009059GF108991999999999999999999MA1101021100321REMMET021CIG014RDGS SW-W OBSCD
0136085090999991972010118004+38767-027100FM-15+0055LPLA V0201501N005710042019N0080001N9+01601+01401999999ADDGA1011+001809079GA2031+003009079GA3051+009009059GF108991999999999999999999MA1101081100411MW1511REMMET029CIG014RDGS SW-W OBSCD WET RWY
0139085090999991972010119004+38767-027100FM-15+0055LPLA V0201401N006210045019N0090001N9+01601+01401999999ADDGA1011+001809079GA2031+004509089GA3051+008109059GF108991999999999999999999MA1101081100391MW1801REMMET032CIG015HLTPS SW-W IN CLDS WET RWY
0133085090999991972010120004+38767-027100FM-15+0055LPLA V0201401N005110081019N0100001N9+01601+01401999999ADDGA1011+003009079GA2031+004509089GA3051+008109059GF108991999999999999999999MA1101081100391REMMET032CIG027HLTPS SW-W IN CLDS WET RWY
0125085090999991972010121004+38767-027100FM-15+0055LPLA V0201401N003110045019N0100001N9+01601+01401999999ADDGA1021+003009079GA2031+004509089GA3051+008109059GF108991999999999999999999MA1101151100471REMMET024CIG015HLTPS SW-W IN CLDS
0133085090999991972010122004+38767-027100FM-15+0055LPLA V0201501N004610096019N0100001N9+01601+01401999999ADDGA1011+003009079GA2031+004509089GA3051+009609059GF107991999999999999999999MA1101151100461REMMET032CIG032HLTPS SW-W IN CLDS WET RWY
0133085090999991972010123004+38767-027100FM-15+0055LPLA V0201401N004110111019N0100001N9+01601+01301999999ADDGA1011+003009079GA2031+005409089GA3051+011109059GF107991999999999999999999MA1101151100461REMMET032CIG037HLTPS SW-W IN CLDS WET RWY
0135085090999991972010200004+38767-027100FM-15+0055LPLA V0201301N005710096019N0090001N9+01601+01401999999ADDGA1011+003009079GA2051+009609059GF108991999999999999999999MA1101081100411MW1801REMMET044CIG032HLTPS SW-W IN CLDS RADAT 73093 WET RWY
0117085090999991972010201004+38767-027100FM-15+0055LPLA V0201301N003610096019N0100001N9+01601+01301999999ADDGA1011+003009079GA2031+004809089GF106991999999999999999999MA1101081100391REMMET032CIG032HLTPS SW-W IN CLDS WET RWY
0117085090999991972010202004+38767-027100FM-15+0055LPLA V0201401N004610096019N0100001N9+01601+01401999999ADDGA1011+003009079GA2031+004809089GF106991999999999999999999MA1101021100321REMMET032CIG032HLTPS SW-W IN CLDS WET RWY
0128085090999991972010203004+38767-027100FM-15+0055LPLA V0201501N004110096019N0100001N9+01601+01301999999ADDGA1011+003009079GA2031+004809089GF106991999999999999999999MA1100981100301REMMET043CIG032TCU W-W-SW HLTPS SW-W IN CLDS WET RWY
0127085090999991972010204004+38767-027100FM-15+0055LPLA V0201601N004110096019N0100001N9+01601+01301999999ADDGA1011+003009079GA2031+004809089GF107991999999999999999999MA1101021100321REMMET042CIG032TCU ALQDS HLTPS SW-W IN CLDS WET RWY
0126085090999991972010205004+38767-027100FM-15+0055LPLA V0201301N002110096019N0100001N9+01601+01301999999ADDGA1011+003609079GA2031+004809089GF106991999999999999999999MA1101021100321REMMET041CIG032TCU S-SW HLTPS SW-W IN CLDS WET RWY
0117085090999991972010206004+38767-027100FM-15+0055LPLA V0201901N003110096019N0100001N9+01601+01201999999ADDGA1011+002709079GA2031+004509089GF106991999999999999999999MA1100951100271REMMET032CIG032HLTPS SW-W IN CLDS WET RWY
0117085090999991972010207004+38767-027100FM-15+0055LPLA V0201701N001510096019N0100001N9+01401+01201999999ADDGA1011+003009079GA2031+004509089GF107991999999999999999999MA1100911100221REMMET032CIG032HLTPS SW-W IN CLDS WET RWY
0117085090999991972010208004+38767-027100FM-15+0055LPLA V0201501N001010111019N0100001N9+01401+01201999999ADDGA1031+004509089GA2041+011109059GF107991999999999999999999MA1100881100191REMMET032CIG037HLTPS SW-W IN CLDS WET RWY
0117085090999991972010209004+38767-027100FM-15+0055LPLA V0202401N001510111019N0100001N9+01501+01101999999ADDGA1011+003009079GA2031+004509089GF107991999999999999999999MA1100911100241REMMET032CIG037HLTPS SW-W IN CLDS WET RWY
0117085090999991972010210004+38767-027100FM-15+0055LPLA V0202801N004110111019N0100001N9+01501+01201999999ADDGA1011+003009079GA2041+011109059GF107991999999999999999999MA1100951100261REMMET032CIG037HLTPS SW-W IN CLDS WET RWY
0130085090999991972010211004+38767-027100FM-15+0055LPLA V0202101N004110111019N0100001N9+01501+01101999999ADDGA1021+002409079GA2041+011109059GA3051+075009029GF108991999999999999999999MA1101081100391REMMET029CIG037RDGS SW-W OBSCD WET RWY
0125085090999991972010212004+38767-027100FM-15+0055LPLA V0202301N006210111019N0100001N9+01601+01001999999ADDGA1021+007209089GA2041+011109059GF107991999999999999999999MA1101191100511REMMET040CIG037HLTP W IN CLDS RADAT 10116 WET RWY
0076085090999991972010213004+38767-027100FM-15+0055LPLA V0202101N005110750019N0100001N9+01601+00801999999ADDGA1021+007509089GA2071+075009029GF107991999999999999999999MA1101121100421
0098085090999991972010214004+38767-027100FM-15+0055LPLA V0202101N006210750019N0100001N9+01601+00901999999ADDGA1021+007509089GA2061+075009029GF107991999999999999999999MA1100951100261REMMET013CIG250 PRESFR
0103085090999991972010215004+38767-027100FM-15+0055LPLA V0209991V004110111019N0100001N9+01701+01001999999ADDGA1031+007209089GA2031+011109059GF107991999999999999999999MA1100811100121REMMET018CIG250 WND 110V280
0124085090999991972010216004+38767-027100FM-15+0055LPLA V0209991V002610111019N0100001N9+01701+01001999999ADDGA1031+007209089GA2031+011109059GF107991999999999999999999MA1100811100121REMMET039CIG037SML ACLS WNW AND E HLTP W IN CLDS
0113085090999991972010217004+38767-027100FM-15+0055LPLA V0201801N003110111019N0100001N9+01701+01001999999ADDGA1031+007209089GA2031+011109059GF107991999999999999999999MA1100781100091REMMET028CIG037TCU WNW HLTP W IN CLDS
0133085090999991972010218004+38767-027100FM-15+0055LPLA V0209991V003110111019N0100001N9+01601+01001999999ADDGA1041+004509089GA2031+011109059GF107991999999999999999999MA1100681100001REMMET048CIG037PK WND 19/37 03 RASHU SW-W RDGS SW-W OBSCD
0125085090999991972010219004+38767-027100FM-15+0055LPLA V0202101N005110240019N0100001N9+01601+01001999999ADDGA1021+004509089GA2031+024009039GF107991999999999999999999MA1100611099921REMMET040CIG080PK WND 20/36 40 HLTPS SW-W IN CLDS
0105085090999991972010220004+38767-027100FM-15+0055LPLA V0201901N007710240019N0100001N9+01601+01001999999ADDGA1021+005409089GA2031+024009039GF107991999999999999999999MA1100581099891REMMET020CIG080HLTP W IN CLDS
0121085090999991972010221004+38767-027100FM-15+0055LPLA V0201801N005110111019N0100001N9+01601+00901999999ADDGA1021+007209089GA2031+011109059GA3051+075009029GF107991999999999999999999MA1100581099901REMMET020CIG037HLTP W IN CLDS
0105085090999991972010222004+38767-027100FM-15+0055LPLA V0201701N006710111019N0100001N9+01601+01101999999ADDGA1021+006609089GA2041+011109059GF107991999999999999999999MA1100511099821REMMET020CIG037HLTP W IN CLDS
0125085090999991972010223004+38767-027100FM-15+0055LPLA V0201901N006710111019N0100001N9+01601+01201999999ADDGA1031+004509089GA2041+011109059GF107991999999999999999999MA1100371099681REMMET040CIG037PK WND 18/41 54 HLTPS SW-W IN CLDS
0148085090999991972010300004+38767-027100FM-15+0055LPLA V0201901N009810111019N0100001N9+01701+01501999999ADDGA1041+004509089GA2031+011109059GF106991999999999999999999MA1100341099661REMMET063CIG037PK WND 19/43 25 TCU NW HLTPS SW-W IN CLDS RADAT 67L075096
0183085090999991972010301004+38767-027100FM-15+0055LPLA V0202901N005110096019N0100001N9+01301+01101999999ADDGA1011+001809079GA2031+004509089GA3051+009609059GF108991999999999999999999MA1100441099751MW1801REMMET076CIG032WSHFT 0025 FROPA PK WND 19/39 2353 TCU NE-E HLTPS SW-W IN CLDS WET RWY
0139085090999991972010302004+38767-027100FM-15+0055LPLA V0203101N008210099019N0080001N9+01201+01001999999ADDGA1031+002109079GA2041+009909059GA3081+024009049GF108991999999999999999999MA1100411099721MW1611REMMET032CIG033HLTPS SW-W IN CLDS WET RWY
0154085090999991972010303004+38767-027100FM-15+0055LPLA V0203201N010310099019N0090001N9+01201+00801999999ADDGA1031+002109079GA2031+009909059GA3081+024009049GF108991999999999999999999MA1100441099761MW1611REMMET047CIG035PK WND 31/35 30HLTPS SW-W IN CLDS WET RWY
0098085090999991972010304004+38767-027100FM-15+0055LPLA V0203101N006210099019N0100001N9+01201+00701999999ADDGA1021+006009089GA2061+009909059GF107991999999999999999999MA1100511099821REMMET013CIG033WET RWY
0093085090999991972010305004+38767-027100FM-15+0055LPLA V0203001N00361009901CN0100001N9+01201+00701999999ADDGA1031+007509089GF105991999999999999999999MA1100581099891REMMET024CIG033OCNL CIGNO WET RWY
0098085090999991972010306004+38767-027100FM-15+0055LPLA V0203001N006210099019N0100001N9+01101+00701999999ADDGA1041+007509089GA2031+009909059GF106991999999999999999999MA1100581099901REMMET013CIG033WET RWY
0098085090999991972010307004+38767-027100FM-15+0055LPLA V0203001N003610099019N0100001N9+01101+00701999999ADDGA1041+007509089GA2031+009909059GF106991999999999999999999MA1100581099891REMMET013CIG033WET RWY
0098085090999991972010308004+38767-027100FM-15+0055LPLA V0203001N002110099019N0100001N9+01001+00701999999ADDGA1031+006009089GA2031+009909059GF105991999999999999999999MA1100641099951REMMET013CIG033WET RWY
0098085090999991972010309004+38767-027100FM-15+0055LPLA V0202801N003110099019N0100001N9+01001+00601999999ADDGA1031+006009089GA2031+009909059GF106991999999999999999999MA1100711100031REMMET013CIG033WET RWY
0060085090999991972010310004+38767-027100FM-15+0055LPLA V0202701N00211220001CN0100001N9+00901+00201999999ADDGA1021+007509089GF103991999999999999999999MA1100711100021
0151085090999991972010311004+38767-027100FM-15+0055LPLA V0202701N003610105019N0100001N9+01001+00601999999ADDGA1031+007509089GA2041+010509059GF107991999999999999999999MA1100751100051REMMET066CIG035TWR WATERSPOUT 5N MOVG E B1015 E1020 OCNL XXSH TCU S WET RWY
0112085090999991972010312004+38767-027100FM-15+0055LPLA V0202901N004110750019N0100001N9+01201+00601999999ADDGA1011+007509099GA2031+007509089GF105991999999999999999999MA1100781100101REMMET027CIG250 CB S MOVG SE WET RWY
0102085090999991972010313004+38767-027100FM-15+0055LPLA V0203101N00411010501CN0100001N9+01201+00601999999ADDGA1041+007509089GF106991999999999999999999MA1100751100051REMMET033CIG035TCU SW RADAT 650 42 WET RWY
0103085090999991972010314004+38767-027100FM-15+0055LPLA V0203101N005110105019N0100001N9+01201+00601999999ADDGA1011+007509099GA2031+007509089GF105991999999999999999999MA1100641099951REMMET018CIG035CB W MOVG SS
0099085090999991972010315004+38767-027100FM-15+0055LPLA V0203101N00461220001CN0100001N9+01301+00601999999ADDGA1011+007509099GA2031+007509089GF104991999999999999999999MA1100581099901REMMET014CB WNW MOVG SE
0102085090999991972010316004+38767-027100FM-15+0055LPLA V0203201N004610750019N0100001N9+01301+00401999999ADDGA1011+007509099GA2031+007509089GF105991999999999999999999MA1100541099851REMMET017CIG250 CB MOVG SE
0105085090999991972010317004+38767-027100FM-15+0055LPLA V0203301N005110105019N0100001N9+01201+00401999999ADDGA1011+007509099GA2031+007509089GF105991999999999999999999MA1100611099921REMMET020CIG035CB WNW MOVG SE
0102085090999991972010318004+38767-027100FM-15+0055LPLA V0203301N003110105019N0100001N9+01201+00401999999ADDGA1011+007509099GA2031+007509089GF105991999999999999999999MA1100611099931REMMET017CIG035CB N MOVG S
0111085090999991972010319004+38767-027100FM-15+0055LPLA V0203301N003610114019N0100001N9+01201+00301999999ADDGA1021+007509099GA2031+007509089GF106991999999999999999999MA1100641099951REMMET026CIG038CB E AND SW-W MOVG S
0106085090999991972010320004+38767-027100FM-15+0055LPLA V0203301N005710114019N0100001N9+01101+00201999999ADDGA1011+007509099GA2031+007509089GF106991999999999999999999MA1100681099991REMMET021CIG038CB W-NW MOVG SE
0103085090999991972010321004+38767-027100FM-15+0055LPLA V0203401N005110114019N0100001N9+01201+00201999999ADDGA1011+007509099GA2031+011409059GF105991999999999999999999MA1100751100071REMMET018CIG038CB SW MOVG S
0085085090999991972010322004+38767-027100FM-15+0055LPLA V0203201N00411220001CN0100001N9+01201+00301999999ADDGA1021+007509089GF103991999999999999999999MA1100781100091REMMET016CB MOVD SE TCU W
0112085090999991972010323004+38767-027100FM-15+0055LPLA V0203301N001010075019N0090001N9+00901+00301999999ADDGA1011+007509099GA2041+007509089GF107991999999999999999999MA1100851100151MW1801REMMET021CIG025CB ALQDS MOVG S
0122085090999991972010400004+38767-027100FM-15+0055LPLA V0200101N005110111019N0100001N9+01201+00601999999ADDGA1021+007509099GA2031+008109089GF107991999999999999999999MA1100851100171REMMET037CIG037CB N AND SW MOVG SW RADAT 04672
0123085090999991972010401004+38767-027100FM-15+0055LPLA V0203201N003610081019N0100001N9+01201+00601999999ADDGA1021+007509099GA2041+008109089GF106991999999999999999999MA1100851100151REMMET038CIG027OCNL RASH CB S-SW MOVG S WET RWY
0113085090999991972010402004+38767-027100FM-15+0055LPLA V0203501N006210081019N0100001N9+01101+00501999999ADDGA1021+007509099GA2041+008109089GF106991999999999999999999MA1100851100151REMMET028CIG027CB NE-E MOVG S WET RWY
0120085090999991972010403004+38767-027100FM-15+0055LPLA V0203601N006710096019N0100001N9+01101+00601999999ADDGA1011+006009099GA2031+007509089GF106991999999999999999999MA1100911100241REMMET035CIG032OCNL RASH CB N MOVG S WET RWY
0110085090999991972010404004+38767-027100FM-15+0055LPLA V0203501N003610096019N0100001N9+01001+00501999999ADDGA1011+006009099GA2031+007509089GF106991999999999999999999MA1100981100291REMMET025CIG032CB S MOVG S WET RWY
0117085090999991972010405004+38767-027100FM-15+0055LPLA V0203501N007210096019N0100001N9+01101+00501999999ADDGA1031+006009099GA2031+009609059GF106991999999999999999999MA1100981100291REMMET032CIG032CB N AND SE MOVG S WET RWY
0110085090999991972010406004+38767-027100FM-15+0055LPLA V0203401N006710240019N0100001N9+01001+00301999999ADDGA1011+006909099GA2031+007509089GF106991999999999999999999MA1100981100301REMMET025CIG080CB S MOVG S WET RWY
0111085090999991972010407004+38767-027100FM-15+0055LPLA V0203401N008210096019N0100001N9+01201+00401999999ADDGA1011+006909099GA2031+007509089GF106991999999999999999999MA1100981100291REMMET026CIG032CB NW MOVG S WET RWY
0104085090999991972010408004+38767-027100FM-15+0055LPLA V0203301N00871220001CN0100001N9+01201+00501999999ADDGA1011+006909099GA2031+007509089GF103991999999999999999999MA1101021100321REMMET019CB S MOVG S WET RWY
0089085090999991972010409004+38767-027100FM-15+0055LPLA V0203301N00721220001CN0100001N9+01201+00401999999ADDGA1011+007509099GF104991999999999999999999MA1101081100411REMMET020CB NE MOVG S WET RWY
0095085090999991972010410004+38767-027100FM-15+0055LPLA V0203401N00821220001CN0100001N9+01201+00501999999ADDGA1011+007509099GF103991999999999999999999MA1101151100461REMMET026CB SE AND S MOVG S WET RWY
0104085090999991972010411004+38767-027100FM-15+0055LPLA V0203301N00721220001CN0100001N9+01201+00601999999ADDGA1011+007509099GA2031+008109089GF104991999999999999999999MA1101221100521REMMET019CB E MOVG S WET RWY
0104085090999991972010412004+38767-027100FM-15+0055LPLA V0203301N00821220001CN0100001N9+01301+00601999999ADDGA1011+007509099GA2031+008109089GF104991999999999999999999MA1101251100581REMMET019CB E MOVG S WET RWY
0098085090999991972010413004+38767-027100FM-15+0055LPLA V0203301N00771220001CN0100001N9+01301+00501999999ADDGA1041+008109089GF104991999999999999999999MA1101321100631REMMET029CB MOVD S RADAT 34057 WET RWY
0060085090999991972010414004+38767-027100FM-15+0055LPLA V0203201N00821220001CN0100001N9+01301+00501999999ADDGA1031+008109089GF103991999999999999999999MA1101251100561
0091085090999991972010415004+38767-027100FM-15+0055LPLA V0203301N00771220001CN0100001N9+01301+00801999999ADDGA1011+007509099GF103991999999999999999999MA1101251100581REMMET022OCNL RASH CB SE MOVG S
0100085090999991972010416004+38767-027100FM-15+0055LPLA V0203301N007712200019N0100001N9+01301+00601999999ADDGA1021+008109089GA2031+075009009GF104991999999999999999999MA1101221100521REMMET015CIGNO CB MOVD S
0060085090999991972010417004+38767-027100FM-15+0055LPLA V0203401N00621220001CN0100001N9+01301+00301999999ADDGA1031+008109089GF104991999999999999999999MA1101251100561
0060085090999991972010418004+38767-027100FM-15+0055LPLA V0203201N00671220001CN0100001N9+01301+00601999999ADDGA1031+008109089GF104991999999999999999999MA1101291100611
0060085090999991972010419004+38767-027100FM-15+0055LPLA V0203201N00411220001CN0100001N9+01201+00401999999ADDGA1031+008109089GF103991999999999999999999MA1101321100631
0091085090999991972010420004+38767-027100FM-15+0055LPLA V0203001N00261220001CN0100001N9+01201+00501999999ADDGA1031+008109089GF103991999999999999999999MA1101321100631REMMET022OCNL RASH TCU N AND SS
0075085090999991972010421004+38767-027100FM-15+0055LPLA V0202801N00151220001CN0100001N9+01001+00401999999ADDGA1021+008109089GF102991999999999999999999MA1101391100681REMMET006TCU SE
0060085090999991972010422004+38767-027100FM-15+0055LPLA V0202601N00101220001CN0100001N9+00901+00401999999ADDGA1011+008109089GF101991999999999999999999MA1101421100731
0060085090999991972010423004+38767-027100FM-15+0055LPLA V0202501N00151220001CN0100001N9+00801+00301999999ADDGA1011+008109089GF101991999999999999999999MA1101391100691
0060085090999991972010500004+38767-027100FM-15+0055LPLA V0202401N00101220001CN0100001N9+00901+00401999999ADDGA1011+008109089GF101991999999999999999999MA1101391100681
0084085090999991972010501004+38767-027100FM-15+0055LPLA V0202401N00101220001CN0100001N9+00901+00401999999ADDGA1011+008109089GF101991999999999999999999MA1101291100591REMMET015RADAT 70L047067
0060085090999991972010502004+38767-027100FM-15+0055LPLA V0202801N00151220001CN0100001N9+00801+00401999999ADDGA1011+009009089GF101991999999999999999999MA1101251100561
0060085090999991972010503004+38767-027100FM-15+0055LPLA V0202301N00101220001CN0100001N9+00901+00501999999ADDGA1011+009009089GF101991999999999999999999MA1101221100541
0076085090999991972010504004+38767-027100FM-15+0055LPLA V0202201N00151015001CN0100001N9+01101+00601999999ADDGA1011+009009089GA2071+015009059GF107991999999999999999999MA1101121100421
0076085090999991972010505004+38767-027100FM-15+0055LPLA V0202201N00211013501CN0100001N9+01201+00701999999ADDGA1011+009009089GA2061+013509059GF106991999999999999999999MA1101151100461
0076085090999991972010506004+38767-027100FM-15+0055LPLA V0202201N00211013501CN0100001N9+01201+00701999999ADDGA1011+009009089GA2061+013509059GF106991999999999999999999MA1101121100441
0076085090999991972010507004+38767-027100FM-15+0055LPLA V0202201N00361013501CN0100001N9+01201+00701999999ADDGA1011+009009089GA2071+013509059GF107991999999999999999999MA1101121100421
0076085090999991972010508004+38767-027100FM-15+0055LPLA V0202301N00411013501CN0100001N9+01301+00901999999ADDGA1011+009009089GA2071+013509059GF107991999999999999999999MA1101051100361
0115085090999991972010509004+38767-027100FM-15+0055LPLA V0202401N003110114019N0100001N9+01301+01001999999ADDGA1031+004509089GA2051+011409059GF107991999999999999999999MA1101081100411REMMET030CIG038RASHU SW HLTP SW IN CLDS
0110085090999991972010510004+38767-027100FM-15+0055LPLA V0203101N006210114019N0100001N9+01401+01101999999ADDGA1031+006009089GA2051+011409059GF107991999999999999999999MA1101191100491REMMET025CIG038OCNL HLTP W IN CLDS
0105085090999991972010511004+38767-027100FM-15+0055LPLA V0203101N005710114019N0100001N9+01501+01001999999ADDGA1031+006909089GA2051+011409059GF107991999999999999999999MA1101221100521REMMET020CIG038HLTP W IN CLDS
0103085090999991972010512004+38767-027100FM-15+0055LPLA V0203101N007710750019N0100001N9+01601+00901999999ADDGA1031+007509089GA2041+075009029GF106991999999999999999999MA1101321100641REMMET018CIG250 RADAT 12094
0060085090999991972010513004+38767-027100FM-15+0055LPLA V0203101N00771220001CN0100001N9+01601+00801999999ADDGA1011+008109089GF102991999999999999999999MA1101321100631
0076085090999991972010514004+38767-027100FM-15+0055LPLA V0203101N005710750019N0100001N9+01601+00701999999ADDGA1011+009009089GA2041+075009009GF105991999999999999999999MA1101291100591
0076085090999991972010515004+38767-027100FM-15+0055LPLA V0203001N004610750019N0100001N9+01601+00801999999ADDGA1011+009009089GA2061+075009009GF106991999999999999999999MA1101251100581
0076085090999991972010516004+38767-027100FM-15+0055LPLA V0202901N004110750019N0100001N9+01601+00701999999ADDGA1011+009009089GA2051+075009009GF106991999999999999999999MA1101291100591
0100085090999991972010517004+38767-027100FM-15+0055LPLA V0202801N002610114019N0100001N9+01401+00901999999ADDGA1021+007509089GA2051+011409059GF107991999999999999999999MA1101321100631REMMET015CIG038OCNL RASH
0105085090999991972010518004+38767-027100FM-15+0055LPLA V0202801N003110114019N0100001N9+01401+00901999999ADDGA1031+007509089GA2041+011409059GF107991999999999999999999MA1101421100711REMMET020CIG038HZ OBSCG RDG W
0096085090999991972010519004+38767-027100FM-15+0055LPLA V0203001N004110114019N0100001N9+01401+00801999999ADDGA1021+007509089GA2031+011409059GF107991999999999999999999MA1101491100791REMMET011CIG038TCU W
0076085090999991972010520004+38767-027100FM-15+0055LPLA V0202901N003110114019N0100001N9+01301+00801999999ADDGA1021+007509089GA2031+011409059GF106991999999999999999999MA1101561100861
0076085090999991972010521004+38767-027100FM-15+0055LPLA V0202801N001510114019N0100001N9+01301+00801999999ADDGA1021+007509089GA2031+011409059GF105991999999999999999999MA1101661100951
0139085090999991972010522004+38767-027100FM-15+0055LPLA V0203001N006210114019N0090001N9+01201+00801999999ADDGA1011+006009099GA2031+011409059GF106991999999999999999999MA1101831101131MW1801REMMET048CIG038CB N MOVG E PRESRR RDGS SW-W OBSCD WET RWY
0099085090999991972010523004+38767-027100FM-15+0055LPLA V0202901N003110300019N0100001N9+01201+00801999999ADDGA1021+007509089GA2031+030009039GF106991999999999999999999MA1101801101101REMMET014CIG100 WET RWY
0088085090999991972010600004+38767-027100FM-15+0055LPLA V0202801N00211220001CN0100001N9+01101+00701999999ADDGA1011+011409059GF101991999999999999999999MA1101801101081REMMET019RADAT 65054 WET RWY
0076085090999991972010601004+38767-027100FM-15+0055LPLA V0202701N00211220001CN0100001N9+01101+00701999999ADDGA1011+030009039GF101991999999999999999999MA1101761101061REMMET007WET RWY
0076085090999991972010602004+38767-027100FM-15+0055LPLA V0202701N00211220001CN0100001N9+01101+00701999999ADDGA1011+009009089GF101991999999999999999999MA1101761101061REMMET007WET RWY
0076085090999991972010603004+38767-027100FM-15+0055LPLA V0202701N00101220001CN0100001N9+01201+00701999999ADDGA1011+012009059GF102991999999999999999999MA1101761101051REMMET007WET RWY
0076085090999991972010604004+38767-027100FM-15+0055LPLA V0202701N00101220001CN0100001N9+01201+00701999999ADDGA1011+009009089GF101991999999999999999999MA1101831101131REMMET007WET RWY
0076085090999991972010605004+38767-027100FM-15+0055LPLA V0209991V00101220001CN0100001N9+01201+00701999999ADDGA1011+010509059GF102991999999999999999999MA1101831101131REMMET007WET RWY
0076085090999991972010606004+38767-027100FM-15+0055LPLA V0202201N00101220001CN0100001N9+01101+00601999999ADDGA1011+007509089GF103991999999999999999999MA1101831101121REMMET007WET RWY
0099085090999991972010607004+38767-027100FM-15+0055LPLA V0202301N001010750019N0100001N9+01101+00601999999ADDGA1011+010509059GA2051+075009029GF106991999999999999999999MA1101831101131REMMET014CIG250 WET RWY
0099085090999991972010608004+38767-027100FM-15+0055LPLA V0202201N001010750019N0100001N9+01101+00601999999ADDGA1011+009009089GA2071+075009029GF108991999999999999999999MA1101831101131REMMET014CIG250 WET RWY
0099085090999991972010609004+38767-027100FM-15+0055LPLA V0209991C000010750019N0100001N9+01101+00601999999ADDGA1011+010509059GA2051+075009029GF108991999999999999999999MA1101831101121REMMET014CIG250 WET RWY
0099085090999991972010610004+38767-027100FM-15+0055LPLA V0203001N001010750019N0100001N9+01201+00601999999ADDGA1011+009009089GA2061+075009029GF108991999999999999999999MA1101831101131REMMET014CIG250 WET RWY
0099085090999991972010611004+38767-027100FM-15+0055LPLA V0202001N001010360019N0100001N9+01301+00801999999ADDGA1011+009009089GA2051+075009029GF107991999999999999999999MA1101861101161REMMET014CIG120 WET RWY
0111085090999991972010612004+38767-027100FM-15+0055LPLA V0202101N002610360019N0100001N9+01401+00901999999ADDGA1011+007509089GA2061+075009029GF107991999999999999999999MA1101861101151REMMET026CIG120 RADAT 31082 WET RWY
0076085090999991972010613004+38767-027100FM-15+0055LPLA V0202401N003110360019N0100001N9+01501+00901999999ADDGA1011+007509089GA2061+075009029GF108991999999999999999999MA1101801101101
0092085090999991972010614004+38767-027100FM-15+0055LPLA V0202301N003610270019N0100001N9+01601+00901999999ADDGA1021+007509089GA2031+027009039GA3051+075009029GF108991999999999999999999MA1101631100931
0129085090999991972010615004+38767-027100FM-15+0055LPLA V0202201N007710270019N0100001N9+01601+00901999999ADDGA1021+007509089GA2031+027009039GA3051+075009029GF108991999999999999999999MA1101391100681REMMET028CIG090PK WND 20/46 33 PRESFR
0137085090999991972010616004+38767-027100FM-15+0055LPLA V0202101N008710270019N0100001N9+01601+00901999999ADDGA1021+006909089GA2041+027009039GA3051+075009029GF108991999999999999999999MA1101251100561REMMET036CIG090PK WND 20/45 07 HLTP W IN CLDS
0137085090999991972010617004+38767-027100FM-15+0055LPLA V0202101N011310270019N0100001N9+01601+01001999999ADDGA1021+006009089GA2041+027009039GA3051+075009029GF108991999999999999999999MA1101191100491REMMET036CIG090PK WND 20/51 25 HLTP W IN CLDS
0147085090999991972010618004+38767-027100FM-15+0055LPLA V0202101N008210270019N0100001N9+01601+01101999999ADDGA1031+005409089GA2041+027009039GA3051+075009029GF108991999999999999999999MA1101291100611REMMET046CIG090OCNL RASH PK WND 20/47 04 HLTP W IN CLDS
0136085090999991972010619004+38767-027100FM-15+0055LPLA V0202001N005110270019N0090001N9+01601+01001999999ADDGA1021+006009089GA2051+027009049GA3051+075009029GF108991999999999999999999MA1101221100521MW1611REMMET029CIG090RDGS SW-W OBSCD WET RWY
0159085090999991972010620004+38767-027100FM-15+0055LPLA V0202001N009310210019N0080001N9+01501+01001999999ADDGA1021+006009089GA2051+021009049GA3051+075009029GF108991999999999999999999MA1100981100291MW1631REMMET052CIG070PK WND 20/54 47 PRESFR RDGS SW-W OBSCD WET RWY
0152085090999991972010621004+38767-027100FM-15+0055LPLA V0202101N011310210019N0090001N9+01601+01101999999ADDGA1021+006009089GA2051+021009049GA3051+075009029GF108991999999999999999999MA1100911100241MW1611REMMET045CIG070PK WND 20/55 04 RDGS SW-W OBSCD WET RWY
0136085090999991972010622004+38767-027100FM-15+0055LPLA V0202101N014910180019N0080001N9+01601+01101999999ADDGA1021+004509089GA2061+018009049GF108991999999999999999999MA1100851100151MW1631REMMET045CIG060PK WND 20/63 54 RDGS SW-W OBSCD WET RWY
0136085090999991972010623004+38767-027100FM-15+0055LPLA V0202101N014410180019N0060001N9+01601+01201999999ADDGA1021+004509089GA2061+018009049GF108991999999999999999999MA1100711100021MW1631REMMET045CIG060PK WND 20/66 32 RDGS SW-W OBSCD WET RWY
0136085090999991972010700004+38767-027100FM-15+0055LPLA V0202101N012310150019N0048001N9+01601+01101999999ADDGA1021+005409089GA2071+015009049GF108991999999999999999999MA1100781100141MW1651REMMET045CIG050PK WND 20/59 20 RDGS SW-W OBSCD WET RWY
0155085090999991972010701004+38767-027100FM-15+0055LPLA V0202101N013410150019N0080001N9+01601+01101999999ADDGA1031+005409089GA2061+015009049GF108991999999999999999999MA1100581099891MW1631REMMET064CIG050PK WND 20/52 45 PRESFR RDGS SW-W OBSCD RADAT 82094 WET RWY
0140085090999991972010702004+38767-027100FM-15+0055LPLA V0202101N010310150019N0100001N9+01601+01101999999ADDGA1021+006009089GA2031+015009049GF107991999999999999999999MA1100441099751REMMET055CIG050PK WND 19/57 39 PRESFR HLTPS SW-W IN CLDS WET RWY
0143085090999991972010703004+38767-027100FM-15+0055LPLA V0202201N010310150019N0090001N9+01701+01401999999ADDGA1021+006009089GA2031+012009059GF108991999999999999999999MA1100271099591MW1611REMMET052CIG050PK WND 22/55 12 PRESFR RDGS SW-W OBSCD WET RWY
0143085090999991972010704004+38767-027100FM-15+0055LPLA V0202201N012310150019N0090001N9+01701+01501999999ADDGA1021+004809089GA2041+015009049GF108991999999999999999999MA1100141099451MW1631REMMET052CIG050PK WND 21/56 38 PRESFR RDGS SW-W OBSCD WET RWY
0153085090999991972010705004+38767-027100FM-15+0055LPLA V0202201N014410150019N0048001N9+01701+01501999999ADDGA1021+004809089GA2061+015009049GF108991999999999999999999MA1100031099351MW1631REMMET062CIG050PK WND 21/57 40VIS S 3200 PRESFR RDGS SW-W OBSCD WET RWY
0136085090999991972010706004+38767-027100FM-15+0055LPLA V0202401N012310150019N0048001N9+01701+01501999999ADDGA1021+004809089GA2061+015009049GF108991999999999999999999MA1100001099321MW1631REMMET045CIG050PK WND 21/60 05 RDGS SW-W OBSCD WET RWY
0173085090999991972010707004+38767-027100FM-15+0055LPLA V0203001N008210150019N0090001N9+01701+01201999999ADDGA1021+004509089GA2061+015009049GF108991999999999999999999MA1100141099451MW1611REMMET082CIG050WSHFT 0608 FROPA PK WND 32/44 04 PRESRR RA-OCNLY RA--RDGS SW-W OBSCD WET RWY
0120085090999991972010708004+38767-027100FM-15+0055LPLA V0202901N006210150019N0090001N9+01801+01101999999ADDGA1021+004509089GA2061+015009049GF108991999999999999999999MA1100241099551MW1611REMMET029CIG050RDGS SW-W OBSCD WET RWY
0114085090999991972010709004+38767-027100FM-15+0055LPLA V0203001N00361220001CN0100001N9+01801+00901999999ADDGA1011+006009089GA2031+009909059GF104991999999999999999999MA1100371099701REMMET029PRESRR HLTP W IN CLDS WET RWY
0060085090999991972010710004+38767-027100FM-15+0055LPLA V0202901N00511220001CN0100001N9+01401+00901999999ADDGA1021+007509089GF103991999999999999999999MA1100471099781
0060085090999991972010711004+38767-027100FM-15+0055LPLA V0202901N00411009901CN0100001N9+01401+00901999999ADDGA1031+007509089GF105991999999999999999999MA1100581099891
0084085090999991972010712004+38767-027100FM-15+0055LPLA V0202801N00311220001CN0100001N9+01401+01001999999ADDGA1011+007509089GF103991999999999999999999MA1100581099901REMMET015RADAT 76L059090
0060085090999991972010713004+38767-027100FM-15+0055LPLA V0202901N00621220001CN0100001N9+01501+01001999999ADDGA1021+007509089GF103991999999999999999999MA1100641099951
0084085090999991972010714004+38767-027100FM-15+0055LPLA V0202901N00571220001CN0100001N9+01401+01001999999ADDGA1031+007509089GF104991999999999999999999MA1100611099921REMMET015PK WND 27/35 35
0099085090999991972010715004+38767-027100FM-15+0055LPLA V0202801N00621220001CN0100001N9+01401+01001999999ADDGA1031+007509089GF104991999999999999999999MA1100541099861REMMET030PK WND 27/36 36 RASHU W TCU NW
0084085090999991972010716004+38767-027100FM-15+0055LPLA V0203001N00621220001CN0100001N9+01401+01001999999ADDGA1031+007509089GF103991999999999999999999MA1100541099851REMMET015PK WND 28/35 12
0060085090999991972010717004+38767-027100FM-15+0055LPLA V0202901N00621220001CN0100001N9+01501+01101999999ADDGA1021+007509089GF102991999999999999999999MA1100641099951
0076085090999991972010718004+38767-027100FM-15+0055LPLA V0203001N00511012001CN0100001N9+01401+01001999999ADDGA1021+007509089GA2041+012009059GF107991999999999999999999MA1100641099971
0076085090999991972010719004+38767-027100FM-15+0055LPLA V0202901N00461011401CN0100001N9+01301+00701999999ADDGA1021+007509089GA2051+011409059GF107991999999999999999999MA1100681099991
0076085090999991972010720004+38767-027100FM-15+0055LPLA V0203001N00361011401CN0100001N9+01301+00601999999ADDGA1021+007509089GA2051+011409059GF107991999999999999999999MA1100781100091
0076085090999991972010721004+38767-027100FM-15+0055LPLA V0202701N00461011401CN0100001N9+01301+00601999999ADDGA1021+007509089GA2041+011409059GF106991999999999999999999MA1100781100101
0076085090999991972010722004+38767-027100FM-15+0055LPLA V0202801N00461012001CN0100001N9+01301+00601999999ADDGA1021+007509089GA2051+012009059GF107991999999999999999999MA1100751100051
0092085090999991972010723004+38767-027100FM-15+0055LPLA V0202701N00411012001CN0100001N9+01301+00501999999ADDGA1021+012609059GA2051+010209059GA3001+999999999GF106991999999999999999999MA1100751100051
0080085090999991972010800004+38767-027100FM-15+0055LPLA V0202701N00511220001CN0100001N9+01301+00401999999ADDGA1021+007509089GF103991999999999999999999MA1100681100001REMMET011RADAT 80084
0060085090999991972010801004+38767-027100FM-15+0055LPLA V0202701N00361220001CN0100001N9+01301+00501999999ADDGA1011+007509089GF101991999999999999999999MA1100641099951
0112085090999991972010802004+38767-027100FM-15+0055LPLA V0202901N004110120019N0090001N9+01201+00701999999ADDGA1021+006009089GA2041+012009059GF106991999999999999999999MA1100611099921MW1801REMMET021CIG040CDR RADAT 80053
0104085090999991972010803004+38767-027100FM-15+0055LPLA V0202801N007210114019N0090001N9+01201+00701999999ADDGA1031+006009089GA2041+011409059GF107991999999999999999999MA1100581099901MW1801REMMET013CIG038WET RWY
0092085090999991972010804004+38767-027100FM-15+0055LPLA V0202901N00621220001CN0100001N9+01201+00601999999ADDGA1011+006009089GF103991999999999999999999MA1100641099951REMMET023PK WND 29/51 17 WET RWY
0089085090999991972010805004+38767-027100FM-15+0055LPLA V0202901N00511220001CN0100001N9+01201+00601999999ADDGA1011+006009099GF102991999999999999999999MA1100641099951REMMET020CB W MOVG SE WET RWY
0076085090999991972010806004+38767-027100FM-15+0055LPLA V0202901N00621220001CN0100001N9+01201+00601999999ADDGA1011+006009089GF102991999999999999999999MA1100641099971REMMET007WET RWY
0076085090999991972010807004+38767-027100FM-15+0055LPLA V0202901N00621220001CN0100001N9+01201+00601999999ADDGA1011+006009089GF102991999999999999999999MA1100581099891REMMET007WET RWY
0130085090999991972010808004+38767-027100FM-15+0055LPLA V0203001N005710114019N0090001N9+01001+00601999999ADDGA1011+006009099GA2041+011409059GF107991999999999999999999MA1100711100021MW1801REMMET039CIG038CB W AND E MOVG SS PRESRR WET RWY
0105085090999991972010809004+38767-027100FM-15+0055LPLA V0203001N00571220001CN0100001N9+01101+00501999999ADDGA1011+006009099GF102991999999999999999999MA1100751100071REMMET036PK WND 27/35 38 CB N MOVG SE WET RWY
0120085090999991972010810004+38767-027100FM-15+0055LPLA V0202901N00511220001CN0100001N9+01201+00401999999ADDGA1021+006009099GF103991999999999999999999MA1100811100121REMMET051CB W-NW AND NE MOVG SE RASHU W-NW OBSCG RDG WET RWY
0110085090999991972010811004+38767-027100FM-15+0055LPLA V0202901N00721220001CN0090001N9+01201+00501999999ADDGA1031+006009099GF104991999999999999999999MA1100911100221MW1801REMMET035CB W-NW MOVG SE RDG W OBSCD WET RWY
0104085090999991972010812004+38767-027100FM-15+0055LPLA V0202901N00621220001CN0100001N9+01301+00501999999ADDGA1021+006009099GF104991999999999999999999MA1101021100341REMMET035CB N-NE MOVG SE RADAT 74056 WET RWY
0089085090999991972010813004+38767-027100FM-15+0055LPLA V0202901N00721220001CN0100001N9+01301+00501999999ADDGA1011+006009099GF103991999999999999999999MA1101021100321REMMET020CB W MOVG SE WET RWY
0060085090999991972010814004+38767-027100FM-15+0055LPLA V0203001N00621220001CN0100001N9+01301+00401999999ADDGA1021+007509089GF102991999999999999999999MA1100981100291
0089085090999991972010815004+38767-027100FM-15+0055LPLA V0202901N00311011401CN0100001N9+01301+00501999999ADDGA1041+007509089GF105991999999999999999999MA1100981100301REMMET020CIG038TCU OVHD AND W
0060085090999991972010816004+38767-027100FM-15+0055LPLA V0202801N00411220001CN0100001N9+01301+00401999999ADDGA1021+007509089GF103991999999999999999999MA1100981100291
0060085090999991972010817004+38767-027100FM-15+0055LPLA V0202801N00311220001CN0100001N9+01301+00401999999ADDGA1021+007509089GF103991999999999999999999MA1101081100391
0060085090999991972010818004+38767-027100FM-15+0055LPLA V0202801N00261220001CN0100001N9+01301+00501999999ADDGA1021+007509089GF103991999999999999999999MA1101121100441
0060085090999991972010819004+38767-027100FM-15+0055LPLA V0202701N00211220001CN0100001N9+01201+00401999999ADDGA1031+007509089GF104991999999999999999999MA1101191100491
0076085090999991972010820004+38767-027100FM-15+0055LPLA V0209991C000010114019N0100001N9+01201+00401999999ADDGA1031+007509089GA2031+011409059GF105991999999999999999999MA1101191100491
0060085090999991972010821004+38767-027100FM-15+0055LPLA V0202201N00151220001CN0100001N9+01201+00401999999ADDGA1011+007509089GF101991999999999999999999MA1101121100441
0060085090999991972010822004+38767-027100FM-15+0055LPLA V0202101N00361220001CN0100001N9+01301+00501999999ADDGA1011+007509089GF101991999999999999999999MA1101121100421
0084085090999991972010823004+38767-027100FM-15+0055LPLA V0202101N00671220001CN0100001N9+01401+00601999999ADDGA1011+004509089GF101991999999999999999999MA1101081100391REMMET015HLTP SW IN CLDS
0137085090999991972010900004+38767-027100FM-15+0055LPLA V0202001N007710111019N0100001N9+01401+00701999999ADDGA1031+004509089GA2041+011109059GF106991999999999999999999MA1101021100341REMMET052CIG037PK WND 19/37 18 HLTPS SW-W IN CLDS RADAT 56100
0138085090999991972010901004+38767-027100FM-15+0055LPLA V0202101N010310111019N0090001N9+01501+00801999999ADDGA1041+004509089GA2041+011109059GF107991999999999999999999MA1100781100091MW1801REMMET047CIG037PK WND 20/50 54 PRESFR HLTPS SW-W IN CLDS
0134085090999991972010902004+38767-027100FM-15+0055LPLA V0202001N010310111019N0100001N9+01501+00901999999ADDGA1031+004509089GA2041+011109059GF107991999999999999999999MA1100751100051REMMET049CIG037PK WND 19/45 15 TCU SW-W HLTPS SW-W IN CLDS
0133085090999991972010903004+38767-027100FM-15+0055LPLA V0202001N007710111019N0100001N9+01601+00901999999ADDGA1021+004509089GA2031+011109059GF107991999999999999999999MA1100681100001REMMET048CIG037PK WND 18/45 03 HLTPS SW-W IN CLDS WET RWY
0152085090999991972010904004+38767-027100FM-15+0055LPLA V0202001N007210096019N0060001N9+01601+01101999999ADDGA1011+003009079GA2031+009609059GA3051+024009049GF108991999999999999999999MA1100681099991MW1611REMMET045CIG032PK WND 19/51 53 RDGS SW-  OBSCD WET RWY
0155085090999991972010905004+38767-027100FM-15+0055LPLA V0202101N010310096019N0100001N9+01601+01201999999ADDGA1021+003009079GA2031+009609059GA3051+024009049GF108991999999999999999999MA1100611099921REMMET054CIG032PK WND 20/49 32 INTMT RA RDGS SW-W OBSCD WET RWY
0162085090999991972010906004+38767-027100FM-15+0055LPLA V0202201N011310096019N0100001N9+01601+01201999999ADDGA1011+002709079GA2031+009609059GA3051+024009049GF108991999999999999999999MA1100371099701REMMET061CIG032PK WND 20/55 08 INTMT RA PRESFR RDGS SW-W OBSCD WET RWY
0164085090999991972010907004+38767-027100FM-15+0055LPLA V0202201N011310096019N0040001N9+01601+01301999999ADDGA1021+002409079GA2031+009609059GA3081+024009049GF108991999999999999999999MA1100271099581MW1631REMMET057CIG032PK WND 21/63 40 VIS SE 2400 RDGS SW-W OBSCD WET RWY
0149085090999991972010908004+38767-027100FM-15+0055LPLA V0202301N015410090019N0100001N9+01701+01201999999ADDGA1021+003009079GA2031+009009059GA3081+024009049GF108991999999999999999999MA1100311099621REMMET048CIG030PK WND 21/73 03 HLTPS SW-W IN CLDS WET RWY
0133085090999991972010909004+38767-027100FM-15+0055LPLA V0202301N012310096019N0100001N9+01701+01201999999ADDGA1011+003009079GA2031+004509089GF107991999999999999999999MA1100341099661REMMET048CIG032PK WND 21/61 46 HLTPS SW-W IN CLDS WET RWY
0133085090999991972010910004+38767-027100FM-15+0055LPLA V0202301N013410096019N0100001N9+01801+01301999999ADDGA1011+003009079GA2031+004509089GF107991999999999999999999MA1100471099781REMMET048CIG032PK WND 21/53 58 HLTPS SW-W IN CLDS WET RWY
0176085090999991972010911004+38767-027100FM-15+0055LPLA V0202901N007210096019N0048001N9+01301+01001999999ADDGA1011+002709079GA2031+009609059GA3051+021009049GF108991999999999999999999MA1100751100051MW1611REMMET069CIG032PK WND 22/48 58 WSHFT 1015 FROPA PRESRR RDGS SW-W OBSCD WET RWY
0132085090999991972010912004+38767-027100FM-15+0055LPLA V0203101N004110096019N0090001N9+01301+00901999999ADDGA1011+002709079GA2031+004809089GF108991999999999999999999MA1100751100071MW1581REMMET041CIG032RDGS SW-W OBSCD RADAT 88103 WET RWY
0136085090999991972010913004+38767-027100FM-15+0055LPLA V0203201N001510096019N0090001N9+01301+01001999999ADDGA1011+002709079GA2041+009609059GA3051+024009049GF108991999999999999999999MA1100711100021MW1581REMMET029CIG032RDGS SW-W OBSCD WET RWY
0113085090999991972010914004+38767-027100FM-15+0055LPLA V0201601N002110096019N0100001N9+01601+01101999999ADDGA1021+006009089GA2031+009609059GF107991999999999999999999MA1100581099891REMMET028CIG032HLTP W IN CLDS WET RWY
0109085090999991972010915004+38767-027100FM-15+0055LPLA V0202201N003110096019N0100001N9+01701+01101999999ADDGA1021+004209089GA2031+009609059GF107991999999999999999999MA1100541099861REMMET024CIG032HLTPS SW-W IN CLDS
0115085090999991972010916004+38767-027100FM-15+0055LPLA V0202201N006210096019N0090001N9+01501+01101999999ADDGA1011+003009079GA2031+009609059GF107991999999999999999999MA1100441099751MW1801REMMET024CIG032HLTPS SW-W IN CLDS
0119085090999991972010917004+38767-027100FM-15+0055LPLA V0202301N006710096019N0100001N9+01601+01101999999ADDGA1011+003009079GA2051+009609059GF107991999999999999999999MA1100441099751REMMET034CIG032OCNL RASH HLTPS SW-W IN CLDS
0127085090999991972010918004+38767-027100FM-15+0055LPLA V0202201N006710114019N0100001N9+01601+01101999999ADDGA1011+002409079GA2031+004509089GF107991999999999999999999MA1100541099861REMMET042CIG038OCNL RASH HLTPS SW-W IN CLDS WET RWY
0133085090999991972010919004+38767-027100FM-15+0055LPLA V0202301N008210114019N0100001N9+01601+01201999999ADDGA1011+002109079GA2031+004509089GF107991999999999999999999MA1100581099891REMMET048CIG038PK WND 22/39 47 HLTPS SW-W IN CLDS WET RWY
0155085090999991972010920004+38767-027100FM-15+0055LPLA V0202501N006210114019N0100001N9+01601+01201999999ADDGA1011+002109079GA2031+004509089GA3051+011409059GF107991999999999999999999MA1100681099991MW1801REMMET048CIG038PK WND 22/37 57 HLTPS SW-W IN CLDS WET RWY
0106085090999991972010921004+38767-027100FM-15+0055LPLA V0203201N00411220001CN0100001N9+01501+01101999999ADDGA1011+002109079GF103991999999999999999999MA1100781100101REMMET037WSHFT 2013 HLTPS SW-W IN CLDS WET RWY
0095085090999991972010922004+38767-027100FM-15+0055LPLA V0202901N00361220001CN0100001N9+01401+00901999999ADDGA1021+004509089GF103991999999999999999999MA1100911100221REMMET026HLTPS SW-W IN CLDS WET RWY
0092085090999991972010923004+38767-027100FM-15+0055LPLA V0203001N00211220001CN0100001N9+01401+00801999999ADDGA1011+004509089GF102991999999999999999999MA1100981100291REMMET023HLTP SW IN CLDS WET RWY
0104085090999991972011000004+38767-027100FM-15+0055LPLA V0203101N00101220001CN0100001N9+01301+00801999999ADDGA1011+004509089GF102991999999999999999999MA1101021100341REMMET035HLTP SW-IN CLDS RADAT 51077 WET RWY
0111085090999991972011001004+38767-027100FM-15+0055LPLA V0201701N00151220001CN0100001N9+01301+00701999999ADDGA1011+004509089GA2031+012009059GF103991999999999999999999MA1101021100321REMMET026HLTPS SW-W IN CLDS WET RWY
0076085090999991972011002004+38767-027100FM-15+0055LPLA V0209991C00001220001CN0100001N9+01301+00601999999ADDGA1011+006009089GF102991999999999999999999MA1100981100291REMMET007WET RWY
0092085090999991972011003004+38767-027100FM-15+0055LPLA V0209991C00001220001CN0100001N9+01201+00701999999ADDGA1011+006009089GA2031+011409059GF103991999999999999999999MA1100981100301REMMET007WET RWY
0092085090999991972011004004+38767-027100FM-15+0055LPLA V0209991C00001220001CN0100001N9+01201+00701999999ADDGA1011+006009089GA2031+011409059GF103991999999999999999999MA1100951100261REMMET007WET RWY
0092085090999991972011005004+38767-027100FM-15+0055LPLA V0209991C00001220001CN0100001N9+01201+00701999999ADDGA1011+006009089GA2031+011409059GF104991999999999999999999MA1100881100191REMMET007WET RWY
0117085090999991972011006004+38767-027100FM-15+0055LPLA V0203101N002110114019N0100001N9+01201+00701999999ADDGA1021+004509089GA2041+011409059GF105991999999999999999999MA1100781100101REMMET032CIG038HLTPS SW-W IN CLDS WET RWY
0136085090999991972011007004+38767-027100FM-15+0055LPLA V0203001N006710099019N0090001N9+01101+00701999999ADDGA1011+001809079GA2031+009909059GA3051+024009049GF108991999999999999999999MA1100911100221MW1611REMMET029CIG033RDGS SW-W OBSCD WET RWY
0136085090999991972011008004+38767-027100FM-15+0055LPLA V0203101N007710099019N0080001N9+01101+00601999999ADDGA1011+001809079GA2031+009909059GA3051+024009049GF108991999999999999999999MA1101021100321MW1621REMMET029CIG033RDGS SW-W OBSCD WET RWY
0119085090999991972011009004+38767-027100FM-15+0055LPLA V0203101N008710099019N0100001N9+01101+00601999999ADDGA1031+005109089GA2031+009909059GF107991999999999999999999MA1100981100301MW1801REMMET028CIG033HLTP W IN CLDS WET RWY
0120085090999991972011010004+38767-027100FM-15+0055LPLA V0203301N008210099019N0090001N9+01001+00601999999ADDGA1011+003009079GA2031+004209089GF108991999999999999999999MA1101121100421MW1801REMMET029CIG033RDGS SW-W OBSCD WET RWY
0120085090999991972011011004+38767-027100FM-15+0055LPLA V0203101N007210099019N0060001N9+01101+00501999999ADDGA1011+003009079GA2031+004509089GF108991999999999999999999MA1101221100521MW1811REMMET029CIG033RDGS SW-W OBSCD WET RWY
0132085090999991972011012004+38767-027100FM-15+0055LPLA V0203001N008210099019N0060001N9+01001+00601999999ADDGA1011+003009079GA2031+004509089GF108991999999999999999999MA1101321100641MW1811REMMET041CIG033RDGS SW-W OBSCD RADAT 64052 WET RWY
0136085090999991972011013004+38767-027100FM-15+0055LPLA V0203101N008210099019N0100001N9+01001+00301999999ADDGA1011+005409099GA2031+006009089GF108991999999999999999999MA1101461100761REMMET051CIG033CB W AND NE MOVG SE RASHU W OBSCG RDG WET RWY
0135085090999991972011014004+38767-027100FM-15+0055LPLA V0203101N006210099019N0100001N9+01001+00301999999ADDGA1031+005409089GA2031+009909059GF107991999999999999999999MA1101461100761REMMET050CIG033PK WND 31/41 19 OCNL RASH CB MOVD SE WET RWY
0133085090999991972011015004+38767-027100FM-15+0055LPLA V0202901N006210099019N0090001N9+00901+00201999999ADDGA1011+004809099GA2031+005409089GF107991999999999999999999MA1101521100811MW1801REMMET042CIG033PK WND 28/41 44 CB S MOVG SE WET RWY
0145085090999991972011016004+38767-027100FM-15+0055LPLA V0203001N011310060019N0090001N9+01101+00401999999ADDGA1021+005409099GA2031+006009089GF107991999999999999999999MA1101521100831MW1801REMMET054CIG020PK WND 30/41 51 CB S MOVG SE RDG W OBSCD WET RWY
0140085090999991972011017004+38767-027100FM-15+0055LPLA V0203001N00931009901CN0090001N9+01101+00201999999ADDGA1021+006009099GF106991999999999999999999MA1101591100901MW1801REMMET065CIG033PK WND 29/39 55 CB NW AND S MOVG SE RDGS SW-W OBSCD WET RWY
0097085090999991972011018004+38767-027100FM-15+0055LPLA V0203001N00931220001CN0100001N9+01101+00201999999ADDGA1011+005409099GF104991999999999999999999MA1101731101021REMMET028PK WND 30/40 07 CB S MOVG SE
0125085090999991972011019004+38767-027100FM-15+0055LPLA V0203001N00931220001CN0100001N9+01101-00101999999ADDGA1031+005409099GF104991999999999999999999MA1101861101161REMMET056PK WND 30/40 10 RASHU SW PRESRR CB ALQDS MOVG SE WET RWY
0104085090999991972011020004+38767-027100FM-15+0055LPLA V0203001N00771220001CN0100001N9+01001-00101999999ADDGA1011+005409099GF103991999999999999999999MA1101931101231REMMET035PK WND 30/35 37 PRESRR CB N MOVG SE
0112085090999991972011021004+38767-027100FM-15+0055LPLA V0203201N01231220001CN0100001N9+01101-00101999999ADDGA1011+005409099GF103991999999999999999999MA1102101101391REMMET043PK WND 32/46 50 RASHU W CB W MOVG SE PRESRR
0105085090999991972011022004+38767-027100FM-15+0055LPLA V0203201N00771220001CN0100001N9+01001-00101999999ADDGA1011+005409099GF103991999999999999999999MA1102241101541REMMET036PK WND 30/35 19 CB NE MOVG SE PRESRR
0133085090999991972011023004+38767-027100FM-15+0055LPLA V0203101N00821009901CN0090001N9+01001+00201999999ADDGA1021+005409099GF105991999999999999999999MA1102341101641MW1801REMMET058CIG033PK WND 34/39 07 CB OVHD AND E MOVG SE PRESRR WET RWY
0115085090999991972011100004+38767-027100FM-15+0055LPLA V0203201N00931220001CN0100001N9+01101+00201999999ADDGA1011+006009089GF102991999999999999999999MA1102401101691REMMET046PK WND 33/46 07 CB MOVD SE RADAT 62038 WET RWY
0099085090999991972011101004+38767-027100FM-15+0055LPLA V0203101N00771220001CN0100001N9+01101+00201999999ADDGA1011+006009089GF101991999999999999999999MA1102511101801REMMET030PK WND 32037 36 PRESRR WET RWY
0076085090999991972011102004+38767-027100FM-15+0055LPLA V0203201N00931009001CN0100001N9+01101+00201999999ADDGA1021+006009089GA2031+009009059GF105991999999999999999999MA1102541101841
0060085090999991972011103004+38767-027100FM-15+0055LPLA V0203101N00621220001CN0100001N9+01101+00101999999ADDGA1021+006009089GF103991999999999999999999MA1102611101901
0112085090999991972011104004+38767-027100FM-15+0055LPLA V0203101N005110114019N0100001N9+01001+00301999999ADDGA1011+004509099GA2031+011409059GF105991999999999999999999MA1102681101971REMMET027CIG038CB SE MOVG SE WET RWY
0109085090999991972011105004+38767-027100FM-15+0055LPLA V0203101N005110114019N0100001N9+01101+00201999999ADDGA1021+006009089GA2031+011409059GF105991999999999999999999MA1102711102011REMMET024CIG038CB MOVD SE WET RWY
0113085090999991972011106004+38767-027100FM-15+0055LPLA V0203001N003610114019N0100001N9+01101+00201999999ADDGA1021+006009089GA2031+011409059GF105991999999999999999999MA1102741102031REMMET028CIG038HLTP W IN CLDS WET RWY
0129085090999991972011107004+38767-027100FM-15+0055LPLA V0203001N005110099019N0100001N9+00901+00201999999ADDGA1011+005409099GA2031+006009089GF106991999999999999999999MA1102811102111REMMET044CIG033CB SE-S MOVG SE HLTP W IN CLDS WET RWY
0136085090999991972011108004+38767-027100FM-15+0055LPLA V0203101N006710114019N0100001N9+01101+00301999999ADDGA1021+005409089GA2031+011409059GF105991999999999999999999MA1102811102111REMMET051CIG038OCNL CIG0NO CB MOVD SE HLTP W IN CLDS WET RWY
0122085090999991972011109004+38767-027100FM-15+0055LPLA V0202801N004110099019N0100001N9+01101+00401999999ADDGA1011+005409099GA2031+009909059GF105991999999999999999999MA1102951102241REMMET037CIG033OCNL RASH CB SE MOVG SE WET RWY
0132085090999991972011110004+38767-027100FM-15+0055LPLA V0203201N007710114019N0100001N9+01101+00401999999ADDGA1021+006009099GA2031+007509089GF105991999999999999999999MA1102981102281MW1801REMMET041CIG38/BKN75/CB E-SE AND W MOVG SE WET RWY
0114085090999991972011111004+38767-027100FM-15+0055LPLA V0203001N00621024001CN0100001N9+01201+00401999999ADDGA1021+006009099GF105991999999999999999999MA1103081102381REMMET045CIG080OCNL RASH CB NE-E AND W MOVG SE WET RWY
0095085090999991972011112004+38767-027100FM-15+0055LPLA V0203101N00571024001CN0100001N9+01301+00401999999ADDGA1031+008109089GF105991999999999999999999MA1103181102471REMMET026CIG080CB MOVD SE TCU ALQDS
0116085090999991972011113004+38767-027100FM-15+0055LPLA V0203001N004610240019N0100001N9+01301+00401999999ADDGA1011+006009099GA2031+008109089GF105991999999999999999999MA1103181102481REMMET031CIG080CB NE MOVG SE RADAT 90047
0080085090999991972011114004+38767-027100FM-15+0055LPLA V0203101N00621024001CN0100001N9+01301+00401999999ADDGA1031+008109089GF105991999999999999999999MA1103121102411REMMET011CIG080TCU S
0086085090999991972011115004+38767-027100FM-15+0055LPLA V0203001N00511012001CN0100001N9+01301+00401999999ADDGA1031+008109089GF106991999999999999999999MA1103081102371REMMET017CIG040TCU N A(D W
0096085090999991972011116004+38767-027100FM-15+0055LPLA V0203001N004610120019N0100001N9+01301+00401999999ADDGA1031+008109089GA2031+012009059GF106991999999999999999999MA1103081102381REMMET011CIG040TCU N
0060085090999991972011117004+38767-027100FM-15+0055LPLA V0202901N00311220001CN0100001N9+01301+00401999999ADDGA1011+008109089GF103991999999999999999999MA1103121102411
0076085090999991972011118004+38767-027100FM-15+0055LPLA V0202701N001510114019N0100001N9+01301+00401999999ADDGA1011+008109089GA2061+011409059GF106991999999999999999999MA1103121102401
0076085090999991972011119004+38767-027100FM-15+0055LPLA V0202501N001010114019N0100001N9+01201+00501999999ADDGA1011+008109089GA2051+011409059GF105991999999999999999999MA1103121102411
0076085090999991972011120004+38767-027100FM-15+0055LPLA V0202801N004110114019N0100001N9+01201+00501999999ADDGA1011+007509089GA2061+011409059GF106991999999999999999999MA1103151102441
0060085090999991972011121004+38767-027100FM-15+0055LPLA V0202801N00411220001CN0100001N9+01301+00301999999ADDGA1011+007509089GF103991999999999999999999MA1103181102471
0076085090999991972011122004+38767-027100FM-15+0055LPLA V0202501N003110099019N0100001N9+01201+00401999999ADDGA1011+007509089GA2051+009909059GF105991999999999999999999MA1103221102511
0101085090999991972011123004+38767-027100FM-15+0055LPLA V0202601N001510099019N0100001N9+01201+00401999999ADDGA1011+007509089GA2041+009909059GF105991999999999999999999MA1103181102481REMMET016CIG033OCNL CIGNO
0084085090999991972011200004+38767-027100FM-15+0055LPLA V0209991C00001220001CN0100001N9+01201+00301999999ADDGA1011+009909059GF101991999999999999999999MA1103151102441REMMET015RADAT 89L053073
0060085090999991972011201004+38767-027100FM-15+0055LPLA V0202601N00261220001CN0100001N9+01301+00401999999ADDGA1011+007509089GF102991999999999999999999MA1103121102411
0076085090999991972011202004+38767-027100FM-15+0055LPLA V0202601N00311009901CN0100001N9+01301+00601999999ADDGA1011+007509089GA2041+009909059GF105991999999999999999999MA1103051102341
0076085090999991972011203004+38767-027100FM-15+0055LPLA V0202801N00311009901CN0100001N9+01301+00501999999ADDGA1011+007509089GA2041+009909059GF105991999999999999999999MA1102981102271
0076085090999991972011204004+38767-027100FM-15+0055LPLA V0202501N00411009901CN0100001N9+01301+00601999999ADDGA1011+007509089GA2041+009909059GF105991999999999999999999MA1102981102281
0076085090999991972011205004+38767-027100FM-15+0055LPLA V0202601N00311009901CN0100001N9+01301+00401999999ADDGA1011+007509089GA2041+009909059GF105991999999999999999999MA1102911102211
0076085090999991972011206004+38767-027100FM-15+0055LPLA V0202501N00411009901CN0100001N9+01301+00401999999ADDGA1021+007509089GA2051+009909059GF106991999999999999999999MA1102841102131
0076085090999991972011207004+38767-027100FM-15+0055LPLA V0202401N00411009901CN0100001N9+01301+00401999999ADDGA1021+007509089GA2051+009909059GF106991999999999999999999MA1102881102181
0076085090999991972011208004+38767-027100FM-15+0055LPLA V0202301N00411009901CN0100001N9+01301+00401999999ADDGA1011+007509089GA2041+009909059GF105991999999999999999999MA1102811102111
0076085090999991972011209004+38767-027100FM-15+0055LPLA V0202601N00511009901CN0100001N9+01401+00501999999ADDGA1011+007509089GA2041+009909059GF106991999999999999999999MA1102811102101
0076085090999991972011210004+38767-027100FM-15+0055LPLA V0202601N00411011401CN0100001N9+01401+00601999999ADDGA1011+008109089GA2051+011409059GF107991999999999999999999MA1102781102071
0107085090999991972011211004+38767-027100FM-15+0055LPLA V0202801N004610750019N0100001N9+01501+00601999999ADDGA1011+009009089GA2071+075009029GF107991999999999999999999MA1102811102111REMMET022CIG250 RADAT 80L058087
0092085090999991972011212004+38767-027100FM-15+0055LPLA V0202701N005710120019N0100001N9+01501+00601999999ADDGA1021+008109089GA2041+012009059GA3071+075009029GF107991999999999999999999MA1102841102131
0092085090999991972011213004+38767-027100FM-15+0055LPLA V0202701N005110135019N0100001N9+01601+00701999999ADDGA1011+008109089GA2051+013509059GA3071+075009029GF107991999999999999999999MA1102781102071
0098085090999991972011214004+38767-027100FM-15+0055LPLA V0202501N006210750019N0100001N9+01601+00701999999ADDGA1021+008109089GA2071+075009029GF107991999999999999999999MA1102641101941REMMET013CIG250 PRESFR
0108085090999991972011215004+38767-027100FM-15+0055LPLA V0202801N006710750019N0100001N9+01601+00701999999ADDGA1011+008109089GA2041+075009029GF105991999999999999999999MA1102611101901REMMET023CIG250 FEW SML ACSL S-W
0076085090999991972011216004+38767-027100FM-15+0055LPLA V0202901N007210120019N0100001N9+01601+00801999999ADDGA1021+007509089GA2041+012009059GF107991999999999999999999MA1102511101801
0097085090999991972011217004+38767-027100FM-15+0055LPLA V0202901N007210120019N0100001N9+01601+00801999999ADDGA1011+007509089GA2051+012009059GF107991999999999999999999MA1102541101841REMMET012CIG040ACSL W
0098085090999991972011218004+38767-027100FM-15+0055LPLA V0202801N006710270019N0100001N9+01601+00701999999ADDGA1011+007509089GA2041+027009039GF107991999999999999999999MA1102511101791REMMET013CIG090ACSL SE
0076085090999991972011219004+38767-027100FM-15+0055LPLA V0202801N005710270019N0100001N9+01601+00701999999ADDGA1021+007509089GA2031+027009039GF106991999999999999999999MA1102511101801
0076085090999991972011220004+38767-027100FM-15+0055LPLA V0202601N005110270019N0100001N9+01601+00701999999ADDGA1021+007509089GA2031+075009029GF106991999999999999999999MA1102511101801
0076085090999991972011221004+38767-027100FM-15+0055LPLA V0202501N004110270019N0100001N9+01601+00801999999ADDGA1011+007509089GA2031+027009039GF105991999999999999999999MA1102511101791
0092085090999991972011222004+38767-027100FM-15+0055LPLA V0202501N003610114019N0100001N9+01501+00801999999ADDGA1021+007509089GA2031+011409059GA3051+075009029GF107991999999999999999999MA1102471101771
0104085090999991972011223004+38767-027100FM-15+0055LPLA V0202501N003110105019N0090001N9+01401+00801999999ADDGA1011+007509089GA2051+010509059GF107991999999999999999999MA1102441101741MW1511REMMET013CIG035WET RWY
0131085090999991972011300004+38767-027100FM-15+0055LPLA V0202201N003610105019N0090001N9+01401+00901999999ADDGA1011+006909089GA2061+010509059GF107991999999999999999999MA1102371101661MW1511REMMET040CIG035HLTP W IN CLDS RADAT 94075 WET RWY
0136085090999991972011301004+38767-027100FM-15+0055LPLA V0202401N003610105019N0090001N9+01501+00901999999ADDGA1011+003009079GA2041+010509059GA3051+075009029GF107991999999999999999999MA1102301101601MW1511REMMET029CIG035RDGS SW-W OBSCD WET RWY
0136085090999991972011302004+38767-027100FM-15+0055LPLA V0202301N006210105019N0090001N9+01501+01001999999ADDGA1011+003009079GA2041+010509059GA3051+075009029GF107991999999999999999999MA1102201101501MW1511REMMET029CIG035RDGS SW-W OBSCD WET RWY
0136085090999991972011303004+38767-027100FM-15+0055LPLA V0202301N005110105019N0090001N9+01501+01001999999ADDGA1011+003009079GA2041+010509059GA3051+075009029GF107991999999999999999999MA1102031101321MW1511REMMET029CIG035RDGS SW-W OBSCD WET RWY
0117085090999991972011304004+38767-027100FM-15+0055LPLA V0202501N004110105019N0100001N9+01501+01101999999ADDGA1011+003009079GA2031+010509059GF106991999999999999999999MA1102001101301REMMET032CIG035HLTPS SW-W IN CLDS WET RWY
0139085090999991972011305004+38767-027100FM-15+0055LPLA V0202501N005110105019N0100001N9+01601+01101999999ADDGA1011+003009079GA2041+010509059GA3051+075009029GF107991999999999999999999MA1101961101271MW1511REMMET032CIG035HLTPS SW- WIN CLDS WET RWY
0136085090999991972011306004+38767-027100FM-15+0055LPLA V0202701N007210099019N0090001N9+01701+01101999999ADDGA1011+003009079GA2051+009909059GF108991999999999999999999MA1101861101151MW1611REMMET045CIG033PK WND 26/36 45 RDGS SW-W OBSCD WET RWY
0152085090999991972011307004+38767-027100FM-15+0055LPLA V0202801N009310099019N0090001N9+01701+01101999999ADDGA1011+003009079GA2051+009909059GA3051+024009049GF108991999999999999999999MA1101801101101MW1611REMMET045CIG033PK WND 26/37 18 RDGS SW-W OBSCD WET RWY
0149085090999991972011308004+38767-027100FM-15+0055LPLA V0202801N011310099019N0100001N9+01701+01101999999ADDGA1011+003009079GA2051+009909059GA3051+024009049GF108991999999999999999999MA1101761101061REMMET048CIG033PK WND 26/45 47 HLTPS SW-W IN CLDS WET RWY
0152085090999991972011309004+38767-027100FM-15+0055LPLA V0202901N008210099019N0090001N9+01601+01101999999ADDGA1021+003009079GA2051+009909059GA3051+024009049GF108991999999999999999999MA1101761101051MW1611REMMET045CIG033PK WND 27/39 24 RDGS SW-W OBSCD WET RWY
0129085090999991972011310004+38767-027100FM-15+0055LPLA V0202801N010310114019N0100001N9+01701+01101999999ADDGA1031+004509089GA2041+011409059GF107991999999999999999999MA1101731101031REMMET044CIG038PK WND 26/43 23 HLTP W IN CLDS WET RWY
0129085090999991972011311004+38767-027100FM-15+0055LPLA V0202701N009810099019N0100001N9+01701+01101999999ADDGA1031+005409089GA2051+009909059GF107991999999999999999999MA1101731101031REMMET044CIG033PK WND 27/53 25 HLTP W IN CLDS WET RWY
0125085090999991972011312004+38767-027100FM-15+0055LPLA V0202701N010310099019N0100001N9+01801+01201999999ADDGA1041+004509089GA2051+009909059GF107991999999999999999999MA1101731101021REMMET040CIG033PK WND 27/54 46 HLTPS SW-W IN CLDS
0137085090999991972011313004+38767-027100FM-15+0055LPLA V0202801N009810114019N0100001N9+01801+01201999999ADDGA1031+004209089GA2041+011409059GF107991999999999999999999MA1101691101001REMMET052CIG038PK WND 27/41 02 HLTPS SW-W IN CLDS RADAT 88091
0122085090999991972011314004+38767-027100FM-15+0055LPLA V0202701N010310114019N0100001N9+01801+01201999999ADDGA1031+004209089GA2051+011409059GF107991999999999999999999MA1101591100901REMMET037CIG038WND 27/43 28 HLTPS SW-W IN CLDS
0125085090999991972011315004+38767-027100FM-15+0055LPLA V0202801N010810114019N0100001N9+01901+01301999999ADDGA1031+004209089GA2041+011409059GF107991999999999999999999MA1101491100781REMMET040CIG038PK WND 27/46 45 HLTPS SW-W IN CLDS
0126085090999991972011316004+38767-027100FM-15+0055LPLA V0202801N009310099019N0100001N9+01701+01201999999ADDGA1041+005409089GA2041+009909059GF108991999999999999999999MA1101421100731MW1801REMMET035CIG033PK WND 27/43 22 HLTP W IN CLD
0129085090999991972011317004+38767-027100FM-15+0055LPLA V0202901N009310099019N0100001N9+01701+01201999999ADDGA1041+005409089GA2041+009909059GF108991999999999999999999MA1101421100731REMMET044CIG033PK WND 28/40 04 HLTP W IN CLDS WET RWY
0139085090999991972011318004+38767-027100FM-15+0055LPLA V0202901N007210099019N0080001N9+01701+01201999999ADDGA1041+004509089GA2041+009909059GF108991999999999999999999MA1101391100681MW1801REMMET048CIG033PK WND 29/36 37 HLTPS SW-W IN CLDS WET RWY
0149085090999991972011319004+38767-027100FM-15+0055LPLA V0202901N007710090019N0100001N9+01701+01201999999ADDGA1021+003009079GA2041+009009059GA3051+024009049GF108991999999999999999999MA1101391100691REMMET048CIG030PK WND 28/37 25 HLTPS SW-W IN CLDS WET RWY
0152085090999991972011320004+38767-027100FM-15+0055LPLA V0202901N007210072019N0090001N9+01701+01201999999ADDGA1021+002109079GA2031+007209059GA3051+024009049GF108991999999999999999999MA1101421100731MW1601REMMET045CIG024PK WND 28/35 12 RDGS SW-W OBSCD WET RWY
0129085090999991972011321004+38767-027100FM-15+0055LPLA V0203001N008210099019N0100001N9+01601+01201999999ADDGA1021+004509089GA2041+009909059GF107991999999999999999999MA1101491100791REMMET044CIG033PK WND 29/37 03 HLTP W IN CLDS WET RWY
0098085090999991972011322004+38767-027100FM-15+0055LPLA V0203001N007210240019N0100001N9+01601+01101999999ADDGA1011+005409089GA2031+011409059GF106991999999999999999999MA1101491100791REMMET013CIG080WET RWY
0072085090999991972011323004+38767-027100FM-15+0055LPLA V0203001N006710114019N0100001N9+01501+01001999999ADDGA1021+005409089GA2031+011409059MA1101491100791REMMET013CIG038WET RWY
0110085090999991972011400004+38767-027100FM-15+0055LPLA V0203001N008210114019N0100001N9+01501+01001999999ADDGA1021+005409089GA2031+011409059GF106991999999999999999999MA1101561100851REMMET025CIG038RADAT 10095 WET RWY
0098085090999991972011401004+38767-027100FM-15+0055LPLA V0203101N008210114019N0100001N9+01501+00801999999ADDGA1021+005409089GA2031+011409059GF106991999999999999999999MA1101631100931REMMET013CIG038WET RWY
0076085090999991972011402004+38767-027100FM-15+0055LPLA V0203101N008210114019N0100001N9+01401+00801999999ADDGA1021+005409089GA2031+011409059GF106991999999999999999999MA1101661100961
0092085090999991972011403004+38767-027100FM-15+0055LPLA V0203001N006210114019N0100001N9+01401+00601999999ADDGA1021+005409089GA2031+011409059GA3031+024009039GF106991999999999999999999MA1101631100911
0076085090999991972011404004+38767-027100FM-15+0055LPLA V0203001N007210114019N0100001N9+01401+00601999999ADDGA1021+005409089GA2031+011409059GF105991999999999999999999MA1101661100961
0091085090999991972011405004+38767-027100FM-15+0055LPLA V0203201N01131042001CN0100001N9+01301+00401999999ADDGA1021+005409089GF105991999999999999999999MA1101691101001REMMET022CIG140 PK WND 29139 44
0109085090999991972011406004+38767-027100FM-15+0055LPLA V0203101N011310420019N0100001N9+01301+00401999999ADDGA1021+006009089GA2031+042009039GF105991999999999999999999MA1101661100951REMMET024CIG140 PK WND 31/38 0456
0126085090999991972011407004+38767-027100FM-15+0055LPLA V0203201N013410114019N0080001N9+01301+00501999999ADDGA1031+006009089GA2031+011409059GF106991999999999999999999MA1101731101031MW1811REMMET035CIG038PK WND 32/39 0558 RDG W OBSCD
0107085090999991972011408004+38767-027100FM-15+0055LPLA V0203201N013410420019N0100001N9+01301+00201999999ADDGA1021+006009089GA2031+042009039GF105991999999999999999999MA1101761101061REMMET022CIG140 PK WND 32/39 48
0107085090999991972011409004+38767-027100FM-15+0055LPLA V0203201N012910420019N0100001N9+01201+00301999999ADDGA1011+007509089GA2031+011409059GF105991999999999999999999MA1101801101081REMMET022CIG140 PK WND 32/40 20
0106085090999991972011410004+38767-027100FM-15+0055LPLA V0203201N012310114019N0100001N9+01301+00201999999ADDGA1011+007509089GA2061+011409059GF107991999999999999999999MA1101901101201REMMET021CIG038PK WND 32/41 17
0132085090999991972011411004+38767-027100FM-15+0055LPLA V0203201N011310114019N0100001N9+01301+00201999999ADDGA1011+007509089GA2051+011409059GF106991999999999999999999MA1102001101301REMMET047CIG38/09 50 15SE 060U073/PK WND 32/37 15 PRESRR
0125085090999991972011412004+38767-027100FM-15+0055LPLA V0203101N009310114019N0100001N9+01201+00401999999ADDGA1011+007509089GA2051+011409059GF107991999999999999999999MA1102101101391REMMET040CIG038PK WND 32/35 17 PRESRR RADAT 97050
0106085090999991972011413004+38767-027100FM-15+0055LPLA V0203101N007210114019N0100001N9+01201+00301999999ADDGA1011+007509089GA2051+011409059GF106991999999999999999999MA1102071101371REMMET021CIG038PK WND 32/36 20
0076085090999991972011414004+38767-027100FM-15+0055LPLA V0203101N007710120019N0100001N9+01301+00301999999ADDGA1011+008109089GA2041+012009059GF105991999999999999999999MA1102001101301
0112085090999991972011415004+38767-027100FM-15+0055LPLA V0203101N008210120019N0090001N9+01301+00201999999ADDGA1021+008109089GA2031+012009059GF106991999999999999999999MA1101931101221MW1801REMMET021CIG040PK WND 31/35 50
0076085090999991972011416004+38767-027100FM-15+0055LPLA V0203101N007710120019N0100001N9+01301+00201999999ADDGA1011+008109089GA2051+012009059GF107991999999999999999999MA1101901101201
0076085090999991972011417004+38767-027100FM-15+0055LPLA V0203101N007710120019N0100001N9+01101+00401999999ADDGA1011+007509089GA2051+012009059GF106991999999999999999999MA1101931101231
0076085090999991972011418004+38767-027100FM-15+0055LPLA V0203001N009312200019N0100001N9+01201+00201999999ADDGA1011+007509089GA2031+012009059GF104991999999999999999999MA1101901101191
0076085090999991972011419004+38767-027100FM-15+0055LPLA V0203101N009810120019N0100001N9+01201+00301999999ADDGA1031+007509089GA2031+012009059GF106991999999999999999999MA1101931101231
0076085090999991972011420004+38767-027100FM-15+0055LPLA V0203001N009310114019N0100001N9+01201+00301999999ADDGA1021+007509089GA2051+011409059GF106991999999999999999999MA1101901101201
0112085090999991972011421004+38767-027100FM-15+0055LPLA V0203101N009810114019N0100001N9+01301+00201999999ADDGA1031+007509089GA2041+011409059GF106991999999999999999999MA1101901101191MW1801REMMET021CIG038PK WND 30/37 48
0117085090999991972011422004+38767-027100FM-15+0055LPLA V0203101N010810114019N0090001N9+01201+00401999999ADDGA1031+007509089GA2031+011409059GF105991999999999999999999MA1101931101231MW1801REMMET026CIG038PK WND 31/39 16 WR12
0099085090999991972011423004+38767-027100FM-15+0055LPLA V0203101N01131220001CN0100001N9+01201+00301999999ADDGA1021+006909089GF103991999999999999999999MA1101961101271REMMET030PK WND 30/40 40 HLTP W IN CLDS
0111085090999991972011500004+38767-027100FM-15+0055LPLA V0203101N01181220001CN0100001N9+01201+00101999999ADDGA1021+006909089GF102991999999999999999999MA1101961101251REMMET042PK WND 30/45 25 HLTP W IN CLDS RADAT 71051
0099085090999991972011501004+38767-027100FM-15+0055LPLA V0203101N01131220001CN0100001N9+01201+00201999999ADDGA1021+006909089GF103991999999999999999999MA1101961101271REMMET030PK WND 31/42 34 HLTP W IN CLDS
0090085090999991972011502004+38767-027100FM-15+0055LPLA V0203101N01291011401CN0100001N9+01201+00301999999ADDGA1031+007509089GF105991999999999999999999MA1101901101201REMMET021CIG038PK WND 31/41 27
0084085090999991972011503004+38767-027100FM-15+0055LPLA V0203101N01231220001CN0100001N9+01301+00301999999ADDGA1021+007509089GF103991999999999999999999MA1101831101121REMMET015PK WND 30/44 15
0090085090999991972011504004+38767-027100FM-15+0055LPLA V0203101N01291220001CN0100001N9+01301+00401999999ADDGA1021+007509089GF102991999999999999999999MA1101801101101REMMET021PK WND 31/47 33 TCU W
0084085090999991972011505004+38767-027100FM-15+0055LPLA V0203101N01231220001CN0100001N9+01301+00301999999ADDGA1011+007509089GF101991999999999999999999MA1101831101131REMMET015PK WND 31/41 19
0084085090999991972011506004+38767-027100FM-15+0055LPLA V0203101N01181220001CN0100001N9+01301+00301999999ADDGA1021+007509089GF102991999999999999999999MA1101801101081REMMET015PK WND 31/39 23
0084085090999991972011507004+38767-027100FM-15+0055LPLA V0203101N01231220001CN0100001N9+01301+00301999999ADDGA1031+007509089GF103991999999999999999999MA1101761101061REMMET015PK WND 31/39 47
0106085090999991972011508004+38767-027100FM-15+0055LPLA V0203001N011810120019N0100001N9+01301+00401999999ADDGA1031+007509089GA2031+012009059GF105991999999999999999999MA1101761101061REMMET021CIG040PK WND 30/39 14
0106085090999991972011509004+38767-027100FM-15+0055LPLA V0203101N011310114019N0100001N9+01301+00401999999ADDGA1031+007509089GA2031+011409059GF106991999999999999999999MA1101801101081REMMET021CIG038PK WND 30/39 17
0091085090999991972011510004+38767-027100FM-15+0055LPLA V0203101N01031060001CN0100001N9+01301+00401999999ADDGA1021+007509089GF105991999999999999999999MA1101801101101REMMET022CIG200 PK WND 30/45 21
0118085090999991972011511004+38767-027100FM-15+0055LPLA V0203001N008210114019N0100001N9+01301+00601999999ADDGA1031+007509009GA2051+015009049GF108991999999999999999999MA1101831101131REMMET033CIG038PK WND 31/37 57 RDG W OBSCD
0141085090999991972011512004+38767-027100FM-15+0055LPLA V0203001N008210114019N0090001N9+01301+00701999999ADDGA1021+007509089GA2031+011409059GA3061+027009049GF108991999999999999999999MA1101861101151MW1611REMMET034CIG038RDGS SW- W OBSCD RADAT 09389
0144085090999991972011513004+38767-027100FM-15+0055LPLA V0203001N008210114019N0100001N9+01401+00701999999ADDGA1021+007509089GA2031+011409059GA3061+027009049GF108991999999999999999999MA1101831101131MW1601REMMET037CIG038PK WND 30/37 32 RDGS SW-W OBSCD
0145085090999991972011514004+38767-027100FM-15+0055LPLA V0203001N009310114019N0100001N9+01401+00801999999ADDGA1021+007509089GA2031+011409059GA3061+027009049GF108991999999999999999999MA1101691101001MW1601REMMET038CIG038PK WND 32/39 U2 RDGS SW- W OBSCD
0186085090999991972011515004+38767-027100FM-15+0055LPLA V0203001N009310114019N0048001N9+01401+00901999999ADDGA1021+003309079GA2031+011409059GA3061+027009049GF108991999999999999999999MA1101591100881MW1611REMMET079CIG038PK WND 29/45 33 VIS NW AND N 3200 TWR VIS 3200 PRESFR RDG W OBSCD WET RWY
0182085090999991972011516004+38767-027100FM-15+0055LPLA V0203001N010310114019N0048001N9+01501+01001999999ADDGA1021+003309079GA2031+011409059GA3061+027009049GF108991999999999999999999MA1101561100861MW1581REMMET075CIG038PK WND 29/39 34 VIS NW AND N 3200 TWR VIS 1600 RDGS SW-W OSCD WET RWY
0126085090999991972011517004+38767-027100FM-15+0055LPLA V0203001N008710054019N0100001N9+01601+01101999999ADDGA1031+003309079GA2061+027009049GF108991999999999999999999MA1101521100831REMMET041CIG018PK WND 29/39 37 RDG W OBSCD WET RWY
0148085090999991972011518004+38767-027100FM-15+0055LPLA V0203001N009810054019N0100001N9+01601+01101999999ADDGA1021+003609079GA2031+005409089GA3051+027009049GF108991999999999999999999MA1101521100811MW1511REMMET041CIG018PK WND 29/36 03 RDG W OBSCD WET RWY
0130085090999991972011519004+38767-027100FM-15+0055LPLA V0203001N009810054019N0100001N9+01601+01101999999ADDGA1011+003609079GA2041+005409089GF107991999999999999999999MA1101561100861REMMET045CIG018PK WND 29/41 02 HLTP W IN CLDDS WET RWY
0129085090999991972011520004+38767-027100FM-15+0055LPLA V0203001N010310270019N0100001N9+01601+01101999999ADDGA1021+005409089GA2031+027009039GF105991999999999999999999MA1101561100861REMMET044CIG090PK WND 29/37 33 HLTP W IN CLDS WET RWY
0118085090999991972011521004+38767-027100FM-15+0055LPLA V0203001N010310114019N0100001N9+01601+01101999999ADDGA1021+006009089GA2031+011409059GF106991999999999999999999MA1101631100911REMMET033CIG038WND 29/39 18 HLTP W IN CLDS
0124085090999991972011522004+38767-027100FM-15+0055LPLA V0203001N010810114019N0090001N9+01601+01101999999ADDGA1031+005409089GA2031+011409059GF107991999999999999999999MA1101631100931MW1801REMMET033CIG038PK WND 29/42 33 RDG W OBSCD
0133085090999991972011523004+38767-027100FM-15+0055LPLA V0203001N010310099019N0100001N9+01601+01101999999ADDGA1021+004509089GA2041+009909059GF107991999999999999999999MA1101631100931REMMET048CIG033PK WND 29/41 01 HLTPS SW-W IN CLDS WET RWY
0145085090999991972011600004+38767-027100FM-15+0055LPLA V0203001N009810099019N0100001N9+01601+01101999999ADDGA1011+001809079GA2041+009909059GF107991999999999999999999MA1101661100951REMMET060CIG033PK WND 30/43 25 HLTPS SW-W IN CLDS RADAT 10850 WET RWY
0133085090999991972011601004+38767-027100FM-15+0055LPLA V0203101N009310099019N0100001N9+01601+01101999999ADDGA1011+002709079GA2031+004209089GF107991999999999999999999MA1101691101001REMMET048CIG033PK WND 29/36 09 HLTPS SW-W IN CLDS WET RWY
0129085090999991972011602004+38767-027100FM-15+0055LPLA V0203001N008710114019N0100001N9+01601+01101999999ADDGA1031+003609089GA2041+011409059GF107991999999999999999999MA1101691101001REMMET044CIG038PK WND 30/35 57 HLTP W IN CLDS WET RWY
0109085090999991972011603004+38767-027100FM-15+0055LPLA V0203101N009310099019N0100001N9+01601+01301999999ADDGA1031+003609089GA2041+009909059GF107991999999999999999999MA1101691100981REMMET024CIG033HLTPS SW-W IN CLDS
0121085090999991972011604004+38767-027100FM-15+0055LPLA V0203101N010310099019N0100001N9+01601+01301999999ADDGA1041+003609089GA2041+009909059GF107991999999999999999999MA1101691101001REMMET036CIG033PK WND 29/35 23 HLTP W IN CLDS
0121085090999991972011605004+38767-027100FM-15+0055LPLA V0203201N009810099019N0100001N9+01601+01301999999ADDGA1031+004809089GA2041+009909059GF107991999999999999999999MA1101731101031REMMET036CIG033PK WND 31/35 41 HLTP W IN CLDS
0105085090999991972011606004+38767-027100FM-15+0055LPLA V0203101N009310099019N0100001N9+01501+01201999999ADDGA1031+004809089GA2041+009909059GF106991999999999999999999MA1101731101021REMMET020CIG033HLTP W IN CLDS
0084085090999991972011607004+38767-027100FM-15+0055LPLA V0203201N01131220001CN0100001N9+01401+01001999999ADDGA1031+005109089GF104991999999999999999999MA1101831101131REMMET015PK WND 31/35 29
0083085090999991972011608004+38767-027100FM-15+0055LPLA V0203201N01231220001CN0100001N9+01401+01001999999ADDGA1021+004809089GF103991999999999999999999MA1101961101271REMMET014HLTP W IN CLDS
0106085090999991972011609004+38767-027100FM-15+0055LPLA V0203301N011810114019N0100001N9+01401+01001999999ADDGA1031+006009089GA2041+011409059GF107991999999999999999999MA1102071101351REMMET021CIG038PK WND 33/36 46
0106085090999991972011610004+38767-027100FM-15+0055LPLA V0203401N012310114019N0100001N9+01401+01101999999ADDGA1031+007509089GA2051+011409059GF107991999999999999999999MA1102131101431REMMET021CIG038PK WND 33/35 42
0122085090999991972011611004+38767-027100FM-15+0055LPLA V0203201N011310114019N0100001N9+01401+01001999999ADDGA1021+007509089GA2031+011409059GA3051+075009029GF106991999999999999999999MA1102241101541REMMET021CIG038PK WND 33/35 56
0102085090999991972011612004+38767-027100FM-15+0055LPLA V0203201N011310114019N0100001N9+01401+01001999999ADDGA1021+007509089GA2031+011409059GF106991999999999999999999MA1102341101631REMMET017CIG038RADAT 12030
0125085090999991972011613004+38767-027100FM-15+0055LPLA V0203301N010310114019N0100001N9+01501+00801999999ADDGA1021+007509089GA2051+011409059GF107991999999999999999999MA1102371101671REMMET040CIG38/1240 037 BKN VRBL OVC THN BKN ABV/
0092085090999991972011614004+38767-027100FM-15+0055LPLA V0203201N010810840019N0100001N9+01601+00901999999ADDGA1021+007509089GA2021+011409059GA3041+084009029GF106991999999999999999999MA1102341101641
0076085090999991972011615004+38767-027100FM-15+0055LPLA V0203101N008710114019N0100001N9+01501+00801999999ADDGA1021+007509089GA2041+011409059GF107991999999999999999999MA1102341101631
0076085090999991972011616004+38767-027100FM-15+0055LPLA V0203201N009310114019N0100001N9+01401+00801999999ADDGA1011+007509089GA2051+011409059GF107991999999999999999999MA1102371101671
0076085090999991972011617004+38767-027100FM-15+0055LPLA V0203201N008210114019N0100001N9+01401+00801999999ADDGA1021+007509089GA2031+011409059GF106991999999999999999999MA1102441101741
0105085090999991972011618004+38767-027100FM-15+0055LPLA V0203201N007210114019N0100001N9+01301+00801999999ADDGA1021+007509089GA2031+011409059GF106991999999999999999999MA1102511101791REMMET020CIG038HZ OBSCG RDG W
0106085090999991972011619004+38767-027100FM-15+0055LPLA V0203101N006710840019N0100001N9+01301+00801999999ADDGA1021+007509089GA2031+084009029GF105991999999999999999999MA1102541101841REMMET021CIG280 HZ OBSCG RDG W
0060085090999991972011620004+38767-027100FM-15+0055LPLA V0203101N00721220001CN0100001N9+01301+00701999999ADDGA1011+007509089GF104991999999999999999999MA1102571101871
0060085090999991972011621004+38767-027100FM-15+0055LPLA V0203201N00771220001CN0100001N9+01301+00701999999ADDGA1011+007509089GF104991999999999999999999MA1102641101931
0060085090999991972011622004+38767-027100FM-15+0055LPLA V0203101N00721220001CN0100001N9+01301+00701999999ADDGA1011+007509089GF103991999999999999999999MA1102681101971
0060085090999991972011623004+38767-027100FM-15+0055LPLA V0203101N00621220001CN0100001N9+01301+00801999999ADDGA1011+007509089GF103991999999999999999999MA1102741102041
0080085090999991972011700004+38767-027100FM-15+0055LPLA V0203001N00621220001CN0100001N9+01301+00801999999ADDGA1011+007509089GF101991999999999999999999MA1102741102031REMMET011RADAT 27116
0060085090999991972011701004+38767-027100FM-15+0055LPLA V0203001N00511084001CN0100001N9+01301+00801999999ADDGA1021+007509089GF105991999999999999999999MA1102741102041
0076085090999991972011702004+38767-027100FM-15+0055LPLA V0203001N00461011401CN0100001N9+01301+00901999999ADDGA1031+007509089GA2051+011409059GF107991999999999999999999MA1102711102011
0076085090999991972011703004+38767-027100FM-15+0055LPLA V0203001N00411011401CN0100001N9+01301+00901999999ADDGA1031+007509089GA2051+011409059GF107991999999999999999999MA1102711102001
0076085090999991972011704004+38767-027100FM-15+0055LPLA V0203001N00461011401CN0100001N9+01301+00901999999ADDGA1031+007509089GA2041+011409059GF106991999999999999999999MA1102741102041
0076085090999991972011705004+38767-027100FM-15+0055LPLA V0203101N00361009901CN0100001N9+01301+00901999999ADDGA1031+007509089GA2041+009909059GF105991999999999999999999MA1102711102011
0076085090999991972011706004+38767-027100FM-15+0055LPLA V0203001N00311009901CN0100001N9+01301+01001999999ADDGA1031+007509089GA2031+009909059GF105991999999999999999999MA1102741102031
0076085090999991972011707004+38767-027100FM-15+0055LPLA V0203001N00411009901CN0100001N9+01301+01001999999ADDGA1031+007509089GA2041+009909059GF106991999999999999999999MA1102711102011
0076085090999991972011708004+38767-027100FM-15+0055LPLA V0202801N00261009901CN0100001N9+01401+01101999999ADDGA1031+006009089GA2051+009909059GF107991999999999999999999MA1102741102041
0076085090999991972011709004+38767-027100FM-15+0055LPLA V0202701N00211009901CN0100001N9+01401+01101999999ADDGA1031+006009089GA2051+009909059GF107991999999999999999999MA1102781102071
0076085090999991972011710004+38767-027100FM-15+0055LPLA V0202801N00261009001CN0100001N9+01401+01101999999ADDGA1031+006009089GA2051+009009059GF107991999999999999999999MA1102781102071
0076085090999991972011711004+38767-027100FM-15+0055LPLA V0202801N00261009901CN0100001N9+01501+01201999999ADDGA1031+006909089GA2041+009909059GF106991999999999999999999MA1102811102111
0102085090999991972011712004+38767-027100FM-15+0055LPLA V0202901N003610114019N0100001N9+01601+01301999999ADDGA1031+006909089GA2041+011409059GF106991999999999999999999MA1102881102171REMMET017CIG038RADAT 13125
0076085090999991972011713004+38767-027100FM-15+0055LPLA V0203001N003610105019N0100001N9+01701+01301999999ADDGA1021+006909089GA2061+010509059GF107991999999999999999999MA1102811102111
0076085090999991972011714004+38767-027100FM-15+0055LPLA V0203001N004110114019N0100001N9+01701+01101999999ADDGA1031+007509089GA2051+011409059GF107991999999999999999999MA1102741102041
0076085090999991972011715004+38767-027100FM-15+0055LPLA V0203001N005710114019N0100001N9+01801+01201999999ADDGA1021+007209089GA2051+011409059GF106991999999999999999999MA1102681101961
0076085090999991972011716004+38767-027100FM-15+0055LPLA V0203001N005110105019N0100001N9+01801+01201999999ADDGA1031+007509089GA2041+010509059GF106991999999999999999999MA1102681101971
0076085090999991972011717004+38767-027100FM-15+0055LPLA V0203001N005110105019N0100001N9+01601+01201999999ADDGA1021+007509089GA2031+010509059GF105991999999999999999999MA1102681101971
0105085090999991972011718004+38767-027100FM-15+0055LPLA V0203001N004110105019N0100001N9+01601+01301999999ADDGA1021+006909089GA2031+010509059GF105991999999999999999999MA1102681101961REMMET020CIG035HLTP W IN CLDS
0076085090999991972011719004+38767-027100FM-15+0055LPLA V0203001N002110105019N0100001N9+01501+01101999999ADDGA1021+007509089GA2031+010509059GF105991999999999999999999MA1102711102011
0076085090999991972011720004+38767-027100FM-15+0055LPLA V0202401N001510105019N0100001N9+01401+00901999999ADDGA1021+007509089GA2031+010509059GF105991999999999999999999MA1102741102041
0076085090999991972011721004+38767-027100FM-15+0055LPLA V0202801N001510105019N0100001N9+01401+01001999999ADDGA1021+007509089GA2031+010509059GF105991999999999999999999MA1102781102071
0076085090999991972011722004+38767-027100FM-15+0055LPLA V0202201N001010105019N0100001N9+01401+01001999999ADDGA1021+007509089GA2031+010509059GF105991999999999999999999MA1102781102071
0076085090999991972011723004+38767-027100FM-15+0055LPLA V0202501N001010105019N0100001N9+01401+01001999999ADDGA1031+007509089GA2041+010509059GF106991999999999999999999MA1102811102111
0076085090999991972011800004+38767-027100FM-15+0055LPLA V0202201N001010105019N0100001N9+01401+01101999999ADDGA1031+007509089GA2041+010509059GF106991999999999999999999MA1102811102101
0076085090999991972011801004+38767-027100FM-15+0055LPLA V0209991C000010105019N0100001N9+01401+01101999999ADDGA1031+007509089GA2041+010509059GF107991999999999999999999MA1102781102071
0076085090999991972011802004+38767-027100FM-15+0055LPLA V0209991C000010099019N0100001N9+01401+01101999999ADDGA1021+007509089GA2051+009909059GF107991999999999999999999MA1102711102011
0076085090999991972011803004+38767-027100FM-15+0055LPLA V0202201N001010099019N0100001N9+01401+01101999999ADDGA1021+007509089GA2051+009909059GF107991999999999999999999MA1102681101961
0076085090999991972011804004+38767-027100FM-15+0055LPLA V0202401N002110099019N0100001N9+01501+00901999999ADDGA1021+007509089GA2041+009909059GF106991999999999999999999MA1102681101971
0076085090999991972011805004+38767-027100FM-15+0055LPLA V0202001N001010105019N0100001N9+01301+01001999999ADDGA1021+007509089GA2051+010509059GF106991999999999999999999MA1102681101971
0076085090999991972011806004+38767-027100FM-15+0055LPLA V0209991C000010105019N0100001N9+01401+01101999999ADDGA1021+007509089GA2041+010509059GF106991999999999999999999MA1102611101901
0076085090999991972011807004+38767-027100FM-15+0055LPLA V0201901N002110105019N0100001N9+01401+01101999999ADDGA1021+007509089GA2041+010509059GF106991999999999999999999MA1102611101911
0076085090999991972011808004+38767-027100FM-15+0055LPLA V0201901N001010105019N0100001N9+01401+01101999999ADDGA1021+007509089GA2031+010509059GF105991999999999999999999MA1102611101911
0076085090999991972011809004+38767-027100FM-15+0055LPLA V0202201N002110111019N0100001N9+01501+01201999999ADDGA1011+003609079GA2051+011109059GF107991999999999999999999MA1102571101861
0129085090999991972011810004+38767-027100FM-15+0055LPLA V0202501N004110090019N0100001N9+01601+01201999999ADDGA1011+003609079GA2051+009009059GF106991999999999999999999MA1102571101871REMMET044CIG30/0915 SCTD 16 BKN 30/HLTPS SW-W IN CLDS
0109085090999991972011811004+38767-027100FM-15+0055LPLA V0202401N005710096019N0100001N9+01701+01201999999ADDGA1011+003009079GA2051+009609059GF106991999999999999999999MA1102571101871REMMET024CIG032HLTPS SW-W IN CLDS
0122085090999991972011812004+38767-027100FM-15+0055LPLA V0202401N004110096019N0100001N9+01701+01301999999ADDGA1011+003609079GA2051+009609059GF106991999999999999999999MA1102571101861REMMET037CIG032HLTPS SW- W IN CLDS RADAT 13133
0109085090999991972011813004+38767-027100FM-15+0055LPLA V0202301N005110096019N0100001N9+01701+01301999999ADDGA1011+003009079GA2051+009609059GF106991999999999999999999MA1102571101871REMMET024CIG032HLTPS SW-W IN CLDS
0119085090999991972011814004+38767-027100FM-15+0055LPLA V0202401N007210096019N0100001N9+01701+01301999999ADDGA1011+003609079GA2041+009609059GF105991999999999999999999MA1102441101741REMMET034CIG032OCNL RASH HLTPS SW-W IN CLDS
0109085090999991972011815004+38767-027100FM-15+0055LPLA V0202301N004110096019N0100001N9+01701+01301999999ADDGA1011+001509079GA2051+009609059GF106991999999999999999999MA1102371101661REMMET024CIG032HLTPS SW-W IN CLDS
0125085090999991972011816004+38767-027100FM-15+0055LPLA V0209991V002110081019N0100001N9+01701+01301999999ADDGA1011+001509079GA2031+004809089GA3051+008109059GF107991999999999999999999MA1102371101671REMMET024CIG027HLTPS SW-W IN CLDS
0106085090999991972011817004+38767-027100FM-15+0055LPLA V0209991V002610096019N0100001N9+01701+01301999999ADDGA1011+003009079GA2041+009609059GF106991999999999999999999MA1102371101671REMMET021CIG032HLTP SW IN CLDS
0076085090999991972011818004+38767-027100FM-15+0055LPLA V0202801N002610096019N0100001N9+01701+01201999999ADDGA1021+004509089GA2031+009609059GF105991999999999999999999MA1102371101661
0106085090999991972011819004+38767-027100FM-15+0055LPLA V0209991V002110096019N0100001N9+01701+01301999999ADDGA1021+004209089GA2051+009609059GF106991999999999999999999MA1102371101671REMMET021CIG032HLTP SW IN CLDS
0106085090999991972011820004+38767-027100FM-15+0055LPLA V0202401N002610096019N0100001N9+01601+01201999999ADDGA1021+004209089GA2051+009609059GF106991999999999999999999MA1102441101741REMMET021CIG032HLTP SW IN CLDS
0060085090999991972011821004+38767-027100FM-15+0055LPLA V0202701N00511220001CN0100001N9+01601+01101999999ADDGA1011+007509089GF101991999999999999999999MA1102401101691
0060085090999991972011822004+38767-027100FM-15+0055LPLA V0209991V00151220001CN0100001N9+01501+01101999999ADDGA1011+007509089GF101991999999999999999999MA1102441101741
0060085090999991972011823004+38767-027100FM-15+0055LPLA V0202401N00311220001CN0100001N9+01501+01101999999ADDGA1011+004509089GF101991999999999999999999MA1102441101741
0060085090999991972011900004+38767-027100FM-15+0055LPLA V0202501N00211220001CN0100001N9+01501+01101999999ADDGA1011+004509089GF101991999999999999999999MA1102441101731
0096085090999991972011901004+38767-027100FM-15+0055LPLA V0209991C00001220001CN0100001N9+01401+01001999999ADDGA1021+007509089GA2011+011109059GF102991999999999999999999MA1102371101671REMMET011RADAT 25106
0076085090999991972011902004+38767-027100FM-15+0055LPLA V0209991C00001220001CN0100001N9+01501+01101999999ADDGA1011+007509089GA2011+011109059GF101991999999999999999999MA1102301101601
0060085090999991972011903004+38767-027100FM-15+0055LPLA V0209991V00261220001CN0100001N9+01501+01101999999ADDGA1011+007509089GF101991999999999999999999MA1102241101521
0060085090999991972011904004+38767-027100FM-15+0055LPLA V0209991V00211220001CN0100001N9+01601+01101999999ADDGA1011+007509089GF101991999999999999999999MA1102201101501
0076085090999991972011905004+38767-027100FM-15+0055LPLA V0209991V00151011101CN0100001N9+01601+01101999999ADDGA1021+006909089GA2031+011109059GF105991999999999999999999MA1102241101541
0121085090999991972011906004+38767-027100FM-15+0055LPLA V0203201N005110105019N0080001N9+01601+01201999999ADDGA1031+003309079GA2051+010509059GF108991999999999999999999MA1102241101521MW1511REMMET030CIG035RDG S SW-W OBSCD WET RWY
0147085090999991972011907004+38767-027100FM-15+0055LPLA V0203101N006210027019N0040001N9+01301+01201999999ADDGA1031+001809079GA2031+002709079GF108991999999999999999999MA1102301101601MW1581REMMET056CIG009VIS W NW 3200 TWR VIS 4800 RDGS SW-W OBSCD WET RWY
0132085090999991972011908004+38767-027100FM-15+0055LPLA V0203201N007710027019N0015001N9+01301+01201999999ADDGA1031+001809079GA2041+002709079GF108991999999999999999999MA1102401101701MW1511REMMET041CIG009VIS NW 0800 RDGS SW-W OBSCD WET RWY
0137085090999991972011909004+38767-027100FM-15+0055LPLA V0203101N008710021019N0032001N9+01201+01101999999ADDGA1031+001509079GA2051+002109079GF108991999999999999999999MA1102471101761MW1581REMMET046CIG007VIS NW 1600 TWR VIS 4000 RDGS SW-W /BSCD
0120085090999991972011910004+38767-027100FM-15+0055LPLA V0203101N007210036019N0060001N9+01201+01001999999ADDGA1021+001809079GA2031+003609079GF107991999999999999999999MA1102611101911MW1511REMMET029CIG012RDGS SW-W OBSCD WET RWY
0123085090999991972011911004+38767-027100FM-15+0055LPLA V0203101N006710099019N0100001N9+01301+00901999999ADDGA1031+006309089GA2041+009909059GF107991999999999999999999MA1102681101971REMMET038CIG033OCNL RASH HLTP W IN CLDS WET RWY
0141085090999991972011912004+38767-027100FM-15+0055LPLA V0203201N008210099019N0100001N9+01201+00901999999ADDGA1031+005409089GA2051+009909059GF107991999999999999999999MA1102781102071REMMET056CIG033PK WND 31/37 17 HLTP W IN CLDS RADAT 12093 WET RWY
0076085090999991972011913004+38767-027100FM-15+0055LPLA V0203201N010310105019N0100001N9+01301+00701999999ADDGA1031+007509089GA2031+010509059GF105991999999999999999999MA1102811102111
0060085090999991972011914004+38767-027100FM-15+0055LPLA V0203201N00571220001CN0100001N9+01301+00601999999ADDGA1031+007509089GF103991999999999999999999MA1102781102071
0084085090999991972011915004+38767-027100FM-15+0055LPLA V0203201N01291220001CN0100001N9+01401+00601999999ADDGA1031+007509089GF103991999999999999999999MA1102741102031REMMET015PK WND 32/35 23
0060085090999991972011916004+38767-027100FM-15+0055LPLA V0203201N01231009901CN0100001N9+01401+00601999999ADDGA1041+007509089GF105991999999999999999999MA1102811102111
0084085090999991972011917004+38767-027100FM-15+0055LPLA V0203301N01291220001CN0100001N9+01301+00501999999ADDGA1021+008109089GF103991999999999999999999MA1102841102141REMMET015PK WND 32/38 47
0084085090999991972011918004+38767-027100FM-15+0055LPLA V0203301N01231220001CN0100001N9+01201+00501999999ADDGA1031+008109089GF104991999999999999999999MA1102911102201REMMET015PK WND 32/37 17
0060085090999991972011919004+38767-027100FM-15+0055LPLA V0203301N01031011401CN0100001N9+01201+00501999999ADDGA1041+008109089GF105991999999999999999999MA1103051102341
0076085090999991972011920004+38767-027100FM-15+0055LPLA V0203301N01181009901CN0100001N9+01201+00601999999ADDGA1041+006909089GA2031+009909059GF106991999999999999999999MA1103081102381
0076085090999991972011921004+38767-027100FM-15+0055LPLA V0203401N00931009901CN0100001N9+01201+00501999999ADDGA1031+006909089GA2031+009909059GF105991999999999999999999MA1103151102441
0076085090999991972011922004+38767-027100FM-15+0055LPLA V0203501N01081009901CN0100001N9+01201+00501999999ADDGA1031+006909089GA2031+009909059GF105991999999999999999999MA1103251102551
0076085090999991972011923004+38767-027100FM-15+0055LPLA V0203501N00821009901CN0100001N9+01201+00401999999ADDGA1031+007509089GA2031+009909059GF105991999999999999999999MA1103321102611
0102085090999991972012000004+38767-027100FM-15+0055LPLA V0203301N011810099019N0100001N9+01101+00301999999ADDGA1031+007509089GA2031+009909059GF105991999999999999999999MA1103291102571REMMET017CIG033RADAT 13089
0076085090999991972012001004+38767-027100FM-15+0055LPLA V0203601N007210105019N0100001N9+01201+00201999999ADDGA1021+007509089GA2031+010509059GF105991999999999999999999MA1103351102651
0076085090999991972012002004+38767-027100FM-15+0055LPLA V0203601N007710105019N0100001N9+01201+00201999999ADDGA1031+007509089GA2031+010509059GF106991999999999999999999MA1103351102651
0076085090999991972012003004+38767-027100FM-15+0055LPLA V0200201N005110105019N0100001N9+01201+00301999999ADDGA1031+007509089GA2031+010509059GF106991999999999999999999MA1103391102681
0076085090999991972012004004+38767-027100FM-15+0055LPLA V0200101N004110105019N0100001N9+01201+00301999999ADDGA1031+007509089GA2041+010509059GF106991999999999999999999MA1103421102711
0076085090999991972012005004+38767-027100FM-15+0055LPLA V0200201N004110105019N0100001N9+01201+00301999999ADDGA1031+007509089GA2041+010509059GF106991999999999999999999MA1103451102751
0076085090999991972012006004+38767-027100FM-15+0055LPLA V0203301N005110105019N0100001N9+01201+00301999999ADDGA1021+007509089GA2041+010509059GF106991999999999999999999MA1103451102741
0076085090999991972012007004+38767-027100FM-15+0055LPLA V0203301N004110105019N0100001N9+01201+00201999999ADDGA1021+007509089GA2041+010509059GF106991999999999999999999MA1103521102811
0076085090999991972012008004+38767-027100FM-15+0055LPLA V0203601N003110105019N0100001N9+01201+00201999999ADDGA1031+007509089GA2031+010509059GF105991999999999999999999MA1103561102851
0076085090999991972012009004+38767-027100FM-15+0055LPLA V0200101N003110105019N0100001N9+01201+00201999999ADDGA1021+007509089GA2061+010509059GF107991999999999999999999MA1103621102911
0103085090999991972012010004+38767-027100FM-15+0055LPLA V0200501N001510105019N0100001N9+01201+00301999999ADDGA1021+007509089GA2061+010509059GF107991999999999999999999MA1103661102951REMMET018CIG35/0935 TPS 55/
0076085090999991972012011004+38767-027100FM-15+0055LPLA V0203601N001510105019N0100001N9+01301+00201999999ADDGA1021+007509089GA2061+010509059GF107991999999999999999999MA1103731103021
0109085090999991972012012004+38767-027100FM-15+0055LPLA V0203601N002610105019N0100001N9+01301+00301999999ADDGA1021+007509089GA2071+010509059GF107991999999999999999999MA1103761103051REMMET024CIG035RADAT 78L047 19086
0076085090999991972012013004+38767-027100FM-15+0055LPLA V0203601N002110105019N0100001N9+01301+00301999999ADDGA1021+007509089GA2071+010509059GF107991999999999999999999MA1103761103051
0076085090999991972012014004+38767-027100FM-15+0055LPLA V0203601N002610105019N0100001N9+01301+00301999999ADDGA1021+007509089GA2071+010509059GF107991999999999999999999MA1103691102981
0076085090999991972012015004+38767-027100FM-15+0055LPLA V0203601N002610105019N0100001N9+01301+00501999999ADDGA1021+007509089GA2071+010509059GF107991999999999999999999MA1103661102951
0076085090999991972012016004+38767-027100FM-15+0055LPLA V0203501N002110105019N0100001N9+01301+00401999999ADDGA1011+007509089GA2061+010509059GF106991999999999999999999MA1103591102881
0076085090999991972012017004+38767-027100FM-15+0055LPLA V0209991C000010105019N0100001N9+01301+00401999999ADDGA1021+007509089GA2031+010509059GF105991999999999999999999MA1103591102881
0060085090999991972012018004+38767-027100FM-15+0055LPLA V0209991C00001220001CN0100001N9+01301+00401999999ADDGA1011+007509089GF102991999999999999999999MA1103591102881
0060085090999991972012019004+38767-027100FM-15+0055LPLA V0209991C00001220001CN0100001N9+01101+00601999999ADDGA1011+007509089GF102991999999999999999999MA1103621102921
0060085090999991972012020004+38767-027100FM-15+0055LPLA V0209991C00001220001CN0100001N9+00801+00501999999ADDGA1011+008109089GF101991999999999999999999MA1103661102951
0044085090999991972012021004+38767-027100FM-15+0055LPLA V0209991C00001220001CN0100001N9+00701+00401999999ADDGF100991999999999999999999MA1103691102981
0076085090999991972012022004+38767-027100FM-15+0055LPLA V0202301N001012200019N0100001N9+00701+00401999999ADDGA1011+007509089GA2031+010509059GF104991999999999999999999MA1103691102981
