0066106190999991972010306004+49650+007250FM-15+0429EDEK V0209991V00211001801CN0100001N9-00101-00201999999ADDGA1081+001809079MA1101051999999MW1001REMMET017CIG06/90503/FIRST
0062106190999991972010307004+49650+007250FM-15+0429EDEK V0209991C00001002401CN0090001N9+00001-00201999999ADDGA1081+002409079MA1101121999999MW1061REMMET013CIG08/CIG RAG
0062106190999991972010308004+49650+007250FM-15+0429EDEK V0209991C00001002401CN0070001N9+00001-00201999999ADDGA1081+002409079MA1101151999999MW1061REMMET013CIG08/CIG RAG
0071106190999991972010309004+49650+007250FM-15+0429EDEK V0209991C00001002101CN0060001N9+00001-00201999999ADDGA1081+002109079MA1101121999999MW1461REMMET022CIG07/CIG RAG HZ PRSNT
0063106190999991972010310004+49650+007250FM-15+0429EDEK V0209991V00151002401CN0060001N9+00001-00201999999ADDGA1081+002409079MA1101151999999MW1441REMMET014CIG08/HZ PRSNT
0063106190999991972010311004+49650+007250FM-15+0429EDEK V0209991V00211002101CN0037001N9+00101-00201999999ADDGA1081+002109079MA1101191999999MW1701REMMET014CIG07/FG PRSNT
0059106190999991972010312004+49650+007250FM-15+0429EDEK V0209991V00151002101CN0060001N9+00101-00201999999ADDGA1081+002109079MA1101151999999MW1441REMMET010CIG07/RESN
0054106190999991972010313004+49650+007250FM-15+0429EDEK V0209991V00211002101CN0060001N9+00101-00201999999ADDGA1081+002109079MA1101121999999MW1441REMMET005CIG07
0063106190999991972010314004+49650+007250FM-15+0429EDEK V0209991V00211002101CN0037001N9+00001-00201999999ADDGA1081+002109079MA1101191999999MW1701REMMET014CIG07/FG PRSNT
0074106190999991972010315004+49650+007250FM-15+0429EDEK V0209991V00151002101CN0037001N9+00001-00201999999ADDGA1081+002109079MA1101221999999MW1701REMMET025CIG07/SN VRY LGT FG PRSNT
0076106190999991972010316004+49650+007250FM-15+0429EDEK V0209991V00101002101CN0018001N9+00001-00201999999ADDGA1081+002109079MA1101221999999MW1461REMMET027CIG07/INTMT VRY LGT SN/LAST
0082106190999991972010406004+49650+007250FM-15+0429EDEK V0202001N005110021019N0100001N9+00101-00101999999ADDGA1061+002109079GA2081+003609059MA1101321999999MW1701REMMET017CIG07/90507/FIRST
0079106190999991972010407004+49650+007250FM-15+0429EDEK V0202101N005110021019N0070001N9+00101-00101999999ADDGA1061+002109079GA2081+003609059MA1101351999999MW1701REMMET014CIG07/FG PRSNT
0079106190999991972010408004+49650+007250FM-15+0429EDEK V0202201N004610024019N0060001N9+00001-00101999999ADDGA1051+002409079GA2081+004809059MA1101461999999MW1701REMMET014CIG08/FG PRSNT
0079106190999991972010409004+49650+007250FM-15+0429EDEK V0202201N006210024019N0060001N9+00001-00101999999ADDGA1051+002409079GA2081+006009059MA1101491999999MW1701REMMET014CIG08/FG PRSNT
0079106190999991972010410004+49650+007250FM-15+0429EDEK V0202201N004610027019N0060001N9+00001-00101999999ADDGA1051+002709079GA2081+006009059MA1101491999999MW1701REMMET014CIG09/FG PRSNT
0075106190999991972010411004+49650+007250FM-15+0429EDEK V0202301N006210060019N0090001N9+00001-00101999999ADDGA1041+002109079GA2081+006009059MA1101491999999MW1421REMMET010CIG20/RESN
0092106190999991972010412004+49650+007250FM-15+0429EDEK V0202101N005110060019N0070001N9+00001-00101999999ADDGA1031+002109079GA2081+006009059MA1101491999999MW1701REMMET027CIG20/PCPN VRY LGT FG PRSNT
0092106190999991972010413004+49650+007250FM-15+0429EDEK V0202101N005110060019N0070001N9+00001-00101999999ADDGA1031+002109079GA2081+006009059MA1101491999999MW1701REMMET027CIG20/PCPN VRY LGT FG PRSNT
0075106190999991972010414004+49650+007250FM-15+0429EDEK V0202001N004610060019N0070001N9+00001-00101999999ADDGA1021+001809079GA2081+006009059MA1101521999999MW1441REMMET010CIG20/RESN
0070106190999991972010415004+49650+007250FM-15+0429EDEK V0202201N004110060019N0070001N9+00001-00101999999ADDGA1031+001809079GA2081+006009059MA1101561999999MW1441REMMET005CIG20
0075106190999991972010416004+49650+007250FM-15+0429EDEK V0202201N004110060019N0060001N9+00001-00101999999ADDGA1041+001809079GA2081+006009059MA1101561999999MW1461REMMET010CIG20/LAST
0104106190999991972010506004+49650+007250FM-15+0429EDEK V0209991V002110012019N0024001N9+00101+00001999999ADDGA1021+000609079GA2081+001209079MA1101731999999MW1701REMMET039CIG04/PCPN VRY LGT FG PRSNT/90505/FIRST
0092106190999991972010507004+49650+007250FM-15+0429EDEK V0209991V002110012019N0024001N9+00101+00001999999ADDGA1021+000609079GA2081+001209079MA1101731999999MW1711REMMET027CIG04/PCPN VRY LGT FG PRSNT
0075106190999991972010508004+49650+007250FM-15+0429EDEK V0209991V001010012019N0024001N9+00101+00001999999ADDGA1021+000609079GA2081+001209079MA1101801999999MW1441REMMET010CIG04/RESN
0070106190999991972010509004+49650+007250FM-15+0429EDEK V0209991V001510015019N0028001N9+00101+00001999999ADDGA1021+000609079GA2081+001509079MA1101861999999MW1421REMMET005CIG05
0086106190999991972010510004+49650+007250FM-15+0429EDEK V0209991V002110090019N0037001N9+00101+00001999999ADDGA1011+000609079GA2031+001509079GA3081+009009059MA1101901999999MW1421REMMET005CIG30
0070106190999991972010511004+49650+007250FM-15+0429EDEK V0209991V002110090019N0047001N9+00201+00101999999ADDGA1041+002109079GA2081+009009059MA1101861999999MW1421REMMET005CIG30
0070106190999991972010512004+49650+007250FM-15+0429EDEK V0209991V002110090019N0047001N9+00201+00101999999ADDGA1041+002409079GA2081+009009059MA1101861999999MW1441REMMET005CIG30
0070106190999991972010513004+49650+007250FM-15+0429EDEK V0209991V001510090019N0047001N9+00201+00101999999ADDGA1041+003309079GA2081+009009059MA1101861999999MW1441REMMET005CIG30
0070106190999991972010514004+49650+007250FM-15+0429EDEK V0209991V001510090019N0060001N9+00301+00101999999ADDGA1041+003309079GA2081+009009059MA1101801999999MW1421REMMET005CIG30
0070106190999991972010515004+49650+007250FM-15+0429EDEK V0209991V001010090019N0060001N9+00301+00101999999ADDGA1041+003609079GA2081+009009059MA1101831999999MW1441REMMET005CIG30
0075106190999991972010516004+49650+007250FM-15+0429EDEK V0209991V001010090019N0060001N9+00201+00101999999ADDGA1041+003609079GA2081+009009059MA1101831999999MW1441REMMET010CIG30/LAST
0092106190999991972010606004+49650+007250FM-15+0429EDEK V0209991V00101000601CN0006001N9-00101-00101999999ADDGA1091+000609999GF109991999999999999999999MA1101661999999MW1491REMMET017CIG02/90504/FIRST
0080106190999991972010607004+49650+007250FM-15+0429EDEK V0209991V00151000301CN0004001N9-00101-00101999999ADDGA1091+000309999GF109991999999999999999999MA1101691999999MW1491REMMET005CIG01
0054106190999991972010608004+49650+007250FM-15+0429EDEK V0209991V00151000601CN0011001N9-00201-00201999999ADDGA1081+000609079MA1101691999999MW1481REMMET005CIG02
0054106190999991972010609004+49650+007250FM-15+0429EDEK V0209991V00101000901CN0015001N9-00201-00201999999ADDGA1081+000909079MA1101691999999MW1421REMMET005CIG03
0054106190999991972010610004+49650+007250FM-15+0429EDEK V0209991V00101000901CN0015001N9-00101-00101999999ADDGA1081+000909079MA1101691999999MW1441REMMET005CIG03
0054106190999991972010611004+49650+007250FM-15+0429EDEK V0209991V00101000301CN0009001N9-00101-00101999999ADDGA1081+000309079MA1101691999999MW1461REMMET005CIG01
0054106190999991972010612004+49650+007250FM-15+0429EDEK V0209991V00101000601CN0015001N9-00101-00101999999ADDGA1081+000609079MA1101661999999MW1421REMMET005CIG02
0054106190999991972010613004+49650+007250FM-15+0429EDEK V0209991V00101000901CN0015001N9+00101+00001999999ADDGA1081+000909079MA1101661999999MW1441REMMET005CIG03
0054106190999991972010614004+49650+007250FM-15+0429EDEK V0209991V00101000901CN0015001N9+00101+00001999999ADDGA1081+000909079MA1101631999999MW1441REMMET005CIG03
0054106190999991972010615004+49650+007250FM-15+0429EDEK V0209991V00151000901CN0015001N9+00101+00001999999ADDGA1081+000909079MA1101631999999MW1441REMMET005CIG03
0059106190999991972010616004+49650+007250FM-15+0429EDEK V0209991V00151000901CN0015001N9+00101+00001999999ADDGA1081+000909079MA1101591999999MW1441REMMET010CIG03/LAST
0090106190999991972010706004+49650+007250FM-15+0429EDEK V0209991V001010021019N0028001N9-00201-00301999999ADDGA1061+002109079GA2081+004809059MA1101491999999MW1441REMMET025CIG07/CIG RAG/90503/FIRST
0078106190999991972010707004+49650+007250FM-15+0429EDEK V0209991V001010021019N0028001N9-00201-00301999999ADDGA1061+002109079GA2081+004809059MA1101521999999MW1441REMMET013CIG07/CIG RAG
0078106190999991972010708004+49650+007250FM-15+0429EDEK V0209991V001010021019N0028001N9-00201-00301999999ADDGA1051+002109079GA2081+004809059MA1101561999999MW1441REMMET013CIG07/CIG RAG
0070106190999991972010709004+49650+007250FM-15+0429EDEK V0209991V000510024019N0028001N9-00201-00301999999ADDGA1051+002409079GA2081+006009059MA1101631999999MW1441REMMET005CIG08
0070106190999991972010710004+49650+007250FM-15+0429EDEK V0209991V001010024019N0028001N9-00201-00301999999ADDGA1061+002409079GA2081+006009059MA1101661999999MW1441REMMET005CIG08
0070106190999991972010711004+49650+007250FM-15+0429EDEK V0209991V001510024019N0028001N9-00201-00301999999ADDGA1061+002409079GA2081+005409059MA1101691999999MW1441REMMET005CIG08
0054106190999991972010712004+49650+007250FM-15+0429EDEK V0209991V00101002701CN0028001N9-00101-00301999999ADDGA1081+002709079MA1101591999999MW1441REMMET005CIG09
0054106190999991972010713004+49650+007250FM-15+0429EDEK V0209991V00101002701CN0032001N9-00101-00301999999ADDGA1081+002709079MA1101591999999MW1421REMMET005CIG09
0054106190999991972010714004+49650+007250FM-15+0429EDEK V0209991V00151002401CN0032001N9-00101-00301999999ADDGA1081+002409079MA1101591999999MW1441REMMET005CIG08
0054106190999991972010715004+49650+007250FM-15+0429EDEK V0209991V00101002101CN0028001N9-00201-00301999999ADDGA1081+002109079MA1101561999999MW1461REMMET005CIG07
0059106190999991972010716004+49650+007250FM-15+0429EDEK V0209991V00211002101CN0028001N9-00201-00301999999ADDGA1081+002109079MA1101561999999MW1441REMMET010CIG07/LAST
0073106190999991972011006004+49650+007250FM-15+0429EDEK V0209991C00001000601CN0007001N9+00101+00101999999ADDGA1081+000609079MA1101491999999MW1611REMMET024CIG02/2FG// /90502/FIRST
0060106190999991972011007004+49650+007250FM-15+0429EDEK V0209991C00001000301CN0004001N9+00101+00101999999ADDGA1081+000309079MA1101491999999MW1611REMMET011CIG01/5FG//
0089106190999991972011008004+49650+007250FM-15+0429EDEK V0209991C00001000151CN0002001N9+00101+00101999999ADDGA1091+000159999GF109991999999999999999999MA1101491999999MW1611REMMET014CIG00/FG PRSNT
0089106190999991972011009004+49650+007250FM-15+0429EDEK V0209991C00001000151CN0002001N9+00101+00101999999ADDGA1091+000159999GF109991999999999999999999MA1101591999999MW1611REMMET014CIG00/FG PRSNT
0089106190999991972011010004+49650+007250FM-15+0429EDEK V0209991C00001000151CN0002001N9+00101+00101999999ADDGA1091+000159999GF109991999999999999999999MA1101631999999MW1611REMMET014CIG00/FG PRSNT
0089106190999991972011011004+49650+007250FM-15+0429EDEK V0209991C00001000151CN0002001N9+00101+00101999999ADDGA1091+000159999GF109991999999999999999999MA1101631999999MW1611REMMET014CIG00/FG PRSNT
0089106190999991972011012004+49650+007250FM-15+0429EDEK V0209991C00001000151CN0002001N9+00101+00101999999ADDGA1091+000159999GF109991999999999999999999MA1101631999999MW1611REMMET014CIG00/FG PRSNT
0089106190999991972011013004+49650+007250FM-15+0429EDEK V0209991C00001000151CN0002001N9+00101+00101999999ADDGA1091+000159999GF109991999999999999999999MA1101631999999MW1511REMMET014CIG00/FG PRSNT
0089106190999991972011014004+49650+007250FM-15+0429EDEK V0209991C00001000151CN0002001N9+00101+00101999999ADDGA1091+000159999GF109991999999999999999999MA1101631999999MW1511REMMET014CIG00/FG PRSNT
0089106190999991972011015004+49650+007250FM-15+0429EDEK V0209991C00001000151CN0002001N9+00101+00101999999ADDGA1091+000159999GF109991999999999999999999MA1101631999999MW1511REMMET014CIG00/FG PRSNT
0094106190999991972011016004+49650+007250FM-15+0429EDEK V0209991C00001000151CN0002001N9+00101+00101999999ADDGA1091+000159999GF109991999999999999999999MA1101631999999MW1511REMMET019CIG00/FG PRSNT/LAST
0089106190999991972011106004+49650+007250FM-15+0429EDEK V0201701N002610009019N0060001N9+00601+00501999999ADDGA1051+000909079GA2061+030009049MA1101691999999MW1441REMMET024CIG03/1FG// /90502/FIRST
0080106190999991972011107004+49650+007250FM-15+0429EDEK V0209991V00211000151CN0002001N9+00601+00601999999ADDGA1091+000159999GF109991999999999999999999MA1101731999999MW1471REMMET005CIG00
0083106190999991972011108004+49650+007250FM-15+0429EDEK V0209991V001010090019N0018001N9+00601+00601999999ADDGA1031+000909079GA2081+009009059MA1101731999999MW1421REMMET018CIG30/VIS N-E 0600
0080106190999991972011109004+49650+007250FM-15+0429EDEK V0209991C00001000301CN0002001N9+00601+00601999999ADDGA1091+000309999GF109991999999999999999999MA1101631999999MW1471REMMET005CIG01
0080106190999991972011110004+49650+007250FM-15+0429EDEK V0209991V00101000301CN0002001N9+00601+00601999999ADDGA1091+000309999GF109991999999999999999999MA1101631999999MW1451REMMET005CIG01
0076106190999991972011111004+49650+007250FM-15+0429EDEK V0209991V001510006019N0007001N9+00601+00601999999ADDGA1061+000609079GA2081+009009059MA1101591999999MW1421REMMET011CIG02/3FG//
0070106190999991972011112004+49650+007250FM-15+0429EDEK V0201501N004110105019N0024001N9+00701+00601999999ADDGA1031+000909079GA2081+010509059MA1101461999999MW1421REMMET005CIG35
0070106190999991972011113004+49650+007250FM-15+0429EDEK V0201301N004110105019N0024001N9+00701+00601999999ADDGA1031+000909079GA2081+010509059MA1101351999999MW1441REMMET005CIG35
0083106190999991972011114004+49650+007250FM-15+0429EDEK V0201201N004110006019N0013001N9+00801+00601999999ADDGA1061+000609079GA2061+012009059MA1101251999999MW1461REMMET018CIG02/VIS N-E 0700
0080106190999991972011115004+49650+007250FM-15+0429EDEK V0201201N00411000301CN0002001N9+00701+00601999999ADDGA1091+000309999GF109991999999999999999999MA1101221999999MW1471REMMET005CIG01
0085106190999991972011116004+49650+007250FM-15+0429EDEK V0201201N00461000301CN0002001N9+00601+00601999999ADDGA1091+000309999GF109991999999999999999999MA1101221999999MW1471REMMET010CIG01/LAST
0088106190999991972011206004+49650+007250FM-15+0429EDEK V0209991C000010012019N0013001N9+00401+00301999999ADDGA1061+001209079GA2081+002109079MA1101151999999MW1611REMMET023CIG04/2FG// 90502/FIRST
0076106190999991972011207004+49650+007250FM-15+0429EDEK V0209991C000010012019N0009001N9+00301+00201999999ADDGA1071+001209079GA2081+002109079MA1101151999999MW1611REMMET011CIG04/3FG//
0076106190999991972011208004+49650+007250FM-15+0429EDEK V0209991C000010012019N0013001N9+00301+00201999999ADDGA1071+001209079GA2081+002409079MA1101191999999MW1611REMMET011CIG04/2FG//
0060106190999991972011209004+49650+007250FM-15+0429EDEK V0209991C00001000901CN0009001N9+00301+00201999999ADDGA1081+000909079MA1101221999999MW1611REMMET011CIG03/3FG//
0060106190999991972011210004+49650+007250FM-15+0429EDEK V0209991C00001000901CN0009001N9+00301+00201999999ADDGA1081+000909079MA1101251999999MW1611REMMET011CIG03/3FG//
0060106190999991972011211004+49650+007250FM-15+0429EDEK V0209991C00001000901CN0009001N9+00301+00201999999ADDGA1081+000909079MA1101251999999MW1611REMMET011CIG03/3FG//
0060106190999991972011212004+49650+007250FM-15+0429EDEK V0209991C00001000901CN0009001N9+00301+00201999999ADDGA1081+000909079MA1101221999999MW1611REMMET011CIG03/4FG//
0065106190999991972011213004+49650+007250FM-15+0429EDEK V0209991C00001000901CN0009001N9+00401+00301999999ADDGA1081+000909079MA1101151999999MW1441REMMET016CIG03/4FG// RERA
0080106190999991972011214004+49650+007250FM-15+0429EDEK V0209991C00001000601CN0006001N9+00301+00201999999ADDGA1091+000609999GF109991999999999999999999MA1101151999999MW1471REMMET005CIG02
0080106190999991972011215004+49650+007250FM-15+0429EDEK V0209991C00001000601CN0006001N9+00301+00201999999ADDGA1091+000609999GF109991999999999999999999MA1101151999999MW1451REMMET005CIG02
0094106190999991972011216004+49650+007250FM-15+0429EDEK V0200201N00101000601CN0004001N9+00301+00201999999ADDGA1091+000609999GF109991999999999999999999MA1101191999999MW1601REMMET019CIG02/FG PRSNT/LAST
0092106190999991972011306004+49650+007250FM-15+0429EDEK V0209991C00001000901CN0004001N9+00101+00101999999ADDGA1091+000909999GF109991999999999999999999MA1101151999999MW1451REMMET017CIG03/90502/FIRST
0080106190999991972011307004+49650+007250FM-15+0429EDEK V0209991C00001000901CN0004001N9+00101+00101999999ADDGA1091+000909999GF109991999999999999999999MA1101151999999MW1451REMMET005CIG03
0080106190999991972011308004+49650+007250FM-15+0429EDEK V0209991C00001000901CN0004001N9+00101+00001999999ADDGA1091+000909999GF109991999999999999999999MA1101151999999MW1451REMMET005CIG03
0080106190999991972011309004+49650+007250FM-15+0429EDEK V0200101N00101000601CN0002001N9+00101+00001999999ADDGA1091+000609999GF109991999999999999999999MA1101221999999MW1471REMMET005CIG02
0080106190999991972011310004+49650+007250FM-15+0429EDEK V0209991V00151000901CN0004001N9+00001+00001999999ADDGA1091+000909999GF109991999999999999999999MA1101221999999MW1431REMMET005CIG03
0092106190999991972011311004+49650+007250FM-15+0429EDEK V0209991V00101001501CN0009001N9+00001+00001999999ADDGA1091+001509999GF109991999999999999999999MA1101151999999MW1431REMMET017CIG05/VIS SW 1700
0072106190999991972011312004+49650+007250FM-15+0429EDEK V0209991V00151001501CN0013001N9+00001+00001999999ADDGA1081+001509079MA1101151999999MW1421REMMET023CIG05/6FG// VIS SW 1700
0060106190999991972011313004+49650+007250FM-15+0429EDEK V0209991V00151001801CN0017001N9+00001+00001999999ADDGA1081+001809079MA1101121999999MW1421REMMET011CIG06/3FG//
0060106190999991972011314004+49650+007250FM-15+0429EDEK V0209991V00151001801CN0013001N9+00101+00001999999ADDGA1081+001809079MA1101081999999MW1461REMMET011CIG06/4FG//
0060106190999991972011315004+49650+007250FM-15+0429EDEK V0209991V00101001501CN0013001N9+00101+00001999999ADDGA1081+001509079MA1101081999999MW1441REMMET011CIG05/4FG//
0065106190999991972011316004+49650+007250FM-15+0429EDEK V0209991V00211001501CN0013001N9+00101+00001999999ADDGA1081+001509079MA1101081999999MW1441REMMET016CIG05/4FG// LAST
0092106190999991972011406004+49650+007250FM-15+0429EDEK V0209991V00151000301CN0007001N9-00101-00101999999ADDGA1091+000309999GF109991999999999999999999MA1100981999999MW1451REMMET017CIG01/90503/FIRST
0080106190999991972011407004+49650+007250FM-15+0429EDEK V0209991V00101000301CN0004001N9-00101-00101999999ADDGA1091+000309999GF109991999999999999999999MA1101021999999MW1471REMMET005CIG01
0080106190999991972011408004+49650+007250FM-15+0429EDEK V0209991V00101000601CN0006001N9-00101-00101999999ADDGA1091+000609999GF109991999999999999999999MA1101021999999MW1431REMMET005CIG02
0060106190999991972011409004+49650+007250FM-15+0429EDEK V0209991C00001000901CN0007001N9+00001-00101999999ADDGA1081+000909079MA1101051999999MW1421REMMET011CIG03/4FG//
0070106190999991972011410004+49650+007250FM-15+0429EDEK V0209991C000010036019N0015001N9+00001-00101999999ADDGA1031+001209079GA2081+003609079MA1101081999999MW1421REMMET005CIG12
0092106190999991972011411004+49650+007250FM-15+0429EDEK V0209991V000510015019N0011001N9+00001-00101999999ADDGA1021+000609079GA2051+001509079GA3081+003609079MA1101121999999MW1461REMMET011CIG05/2FG//
0076106190999991972011412004+49650+007250FM-15+0429EDEK V0209991V001010015019N0009001N9+00001-00101999999ADDGA1021+000609079GA2081+001509079MA1101081999999MW1461REMMET011CIG05/2FG//
0080106190999991972011413004+49650+007250FM-15+0429EDEK V0209991V00101000901CN0004001N9+00101+00001999999ADDGA1091+000909999GF109991999999999999999999MA1101051999999MW1471REMMET005CIG03
0076106190999991972011414004+49650+007250FM-15+0429EDEK V0209991C000010009019N0007001N9+00101+00001999999ADDGA1051+000909079GA2081+003009079MA1101051999999MW1421REMMET011CIG03/3FG//
0096106190999991972011415004+49650+007250FM-15+0429EDEK V0209991C000010003019N0002001N9+00101+00001999999ADDGA1091+000309999GA2081+003009079GF109991999999999999999999MA1101021999999MW1471REMMET005CIG01
0101106190999991972011416004+49650+007250FM-15+0429EDEK V0209991V001010001519N0000001N9+00101+00101999999ADDGA1091+000159999GA2081+003009079GF109991999999999999999999MA1101021999999MW1471REMMET010CIG00/LAST
0044106190999991972011706004+49650+007250FM-15+0429EDEK V0209991V00211220001CN0090001N9-00901-01301999999ADDMA1099831999999MW1061REMMET01190503/FIRST
0040106190999991972011707004+49650+007250FM-15+0429EDEK V0209991V00261220001CN0090001N9-00901-01301999999ADDGA1031+060009009MA1099831999999MW1061
0060106190999991972011708004+49650+007250FM-15+0429EDEK V0209991V00361220001CN0090001N9-00901-01301999999ADDGA1031+060009009MA1099831999999MW1061REMMET011WND 360V090
0040106190999991972011709004+49650+007250FM-15+0429EDEK V0209991V00261220001CN0090001N9-00901-01301999999ADDGA1031+060009009MA1099831999999MW1061
0060106190999991972011710004+49650+007250FM-15+0429EDEK V0209991V00361220001CN0090001N9-00901-01201999999ADDGA1041+060009009MA1099831999999MW1061REMMET011WND 010V100
0066106190999991972011711004+49650+007250FM-15+0429EDEK V0209991V00461220001CN0090001N9-00901-01201999999ADDGA1051+060009009MA1099831999999MW1061REMMET017CIGNO/WND 350V120
0066106190999991972011712004+49650+007250FM-15+0429EDEK V0209991V00411220001CN0090001N9-00801-01201999999ADDGA1051+060009009MA1099831999999MW1061REMMET017CIGNO/WND 360V110
0060106190999991972011713004+49650+007250FM-15+0429EDEK V0209991V00511220001CN0090001N9-00801-01201999999ADDGA1041+060009009MA1099801999999MW1061REMMET011WND 030V120
0066106190999991972011714004+49650+007250FM-15+0429EDEK V0209991V00461220001CN0090001N9-00701-01101999999ADDGA1051+060009009MA1099801999999MW1061REMMET017CIGNO/WND 360V110
0040106190999991972011715004+49650+007250FM-15+0429EDEK V0209991V00261220001CN0090001N9-00701-01101999999ADDGA1041+060009009MA1099831999999MW1061
0040106190999991972011716004+49650+007250FM-15+0429EDEK V0209991V00211220001CN0090001N9-00801-01201999999ADDGA1041+060009009MA1099861999999MW1061
0060106190999991972011806004+49650+007250FM-15+0429EDEK V0209991V00101220001CN0070001N9-01201-01601999999ADDGA1031+060009009MA1100371999999MW1061REMMET01190503/FIRST
0040106190999991972011807004+49650+007250FM-15+0429EDEK V0209991C00001220001CN0070001N9-01201-01601999999ADDGA1011+030009039MA1100441999999MW1061
0040106190999991972011808004+49650+007250FM-15+0429EDEK V0209991C00001220001CN0070001N9-01201-01601999999ADDGA1011+060009009MA1100441999999MW1061
0024106190999991972011809004+49650+007250FM-15+0429EDEK V0209991V00051220001CN0070001N9-01201-01601999999ADDMA1100511999999MW1061
0024106190999991972011810004+49650+007250FM-15+0429EDEK V0209991V00101220001CN0070001N9-01101-01601999999ADDMA1100541999999MW1061
0024106190999991972011811004+49650+007250FM-15+0429EDEK V0209991C00001220001CN0070001N9-01001-01501999999ADDMA1100581999999MW1061
0024106190999991972011812004+49650+007250FM-15+0429EDEK V0209991C00001220001CN0070001N9-00901-01301999999ADDMA1100611999999MW1061
0024106190999991972011813004+49650+007250FM-15+0429EDEK V0209991C00001220001CN0070001N9-00701-01201999999ADDMA1100641999999MW1061
0024106190999991972011814004+49650+007250FM-15+0429EDEK V0209991C00001220001CN0070001N9-00601-01001999999ADDMA1100681999999MW1061
0024106190999991972011815004+49650+007250FM-15+0429EDEK V0201101N00211220001CN0070001N9-00701-01201999999ADDMA1100751999999MW1061
0024106190999991972011816004+49650+007250FM-15+0429EDEK V0201101N00151220001CN0070001N9-00701-01201999999ADDMA1100811999999MW1061
0060106190999991972011906004+49650+007250FM-15+0429EDEK V0209991C00001220001CN0100001N9-00801-01001999999ADDGA1021+060009009MA1100911999999MW1001REMMET01190503/FIRST
0040106190999991972011907004+49650+007250FM-15+0429EDEK V0209991C00001220001CN0028001N9-00801-00901999999ADDGA1021+060009009MA1100911999999MW1061
0079106190999991972011908004+49650+007250FM-15+0429EDEK V0209991C000010090019N0024001N9-00801-00901999999ADDGA1041+004509079GA2081+009009059MA1100911999999MW1461REMMET014CIG30/HZ PRSNT
0070106190999991972011909004+49650+007250FM-15+0429EDEK V0209991C000010018019N0024001N9-00801-00901999999ADDGA1051+001809079GA2081+004509079MA1100951999999MW1441REMMET005CIG06
0070106190999991972011910004+49650+007250FM-15+0429EDEK V0202201N002110018019N0024001N9-00701-00801999999ADDGA1051+001809079GA2081+003009079MA1100951999999MW1441REMMET005CIG06
0054106190999991972011911004+49650+007250FM-15+0429EDEK V0209991V00101001501CN0018001N9-00601-00701999999ADDGA1081+001509079MA1100951999999MW1461REMMET005CIG05
0054106190999991972011912004+49650+007250FM-15+0429EDEK V0209991V00261001201CN0013001N9-00601-00701999999ADDGA1081+001209079MA1100911999999MW1461REMMET005CIG04
0070106190999991972011913004+49650+007250FM-15+0429EDEK V0202301N005110012019N0017001N9-00601-00701999999ADDGA1061+001209079GA2081+003009079MA1100881999999MW1421REMMET005CIG04
0070106190999991972011914004+49650+007250FM-15+0429EDEK V0202201N005110015019N0017001N9-00401-00601999999ADDGA1061+001509079GA2081+003009079MA1100811999999MW1441REMMET005CIG05
0070106190999991972011915004+49650+007250FM-15+0429EDEK V0202101N004110015019N0017001N9-00201-00401999999ADDGA1061+001509079GA2081+003009079MA1100851999999MW1441REMMET005CIG05
0075106190999991972011916004+49650+007250FM-15+0429EDEK V0202201N004110015019N0017001N9-00201-00401999999ADDGA1051+001509079GA2081+003009079MA1100851999999MW1441REMMET010CIG05/LAST
0066106190999991972012006004+49650+007250FM-15+0429EDEK V0209991V00211000901CN0018001N9+00201+00101999999ADDGA1081+000909079MA1100541999999MW1441REMMET017CIG03/90502/FIRST
0054106190999991972012007004+49650+007250FM-15+0429EDEK V0201601N00311000601CN0006001N9+00201+00101999999ADDGA1081+000609079MA1100541999999MW1461REMMET005CIG02
0054106190999991972012008004+49650+007250FM-15+0429EDEK V0209991V00211000601CN0011001N9+00201+00101999999ADDGA1081+000609079MA1100541999999MW1421REMMET005CIG02
0054106190999991972012009004+49650+007250FM-15+0429EDEK V0209991V00101000601CN0009001N9+00201+00101999999ADDGA1081+000609079MA1100471999999MW1461REMMET005CIG02
0054106190999991972012010004+49650+007250FM-15+0429EDEK V0209991V00101000601CN0009001N9+00201+00101999999ADDGA1081+000609079MA1100411999999MW1441REMMET005CIG02
0087106190999991972012011004+49650+007250FM-15+0429EDEK V0209991V001510600019N0070001N9+00401+00101999999ADDGA1011+000909079GA2031+030009039GA3051+060009009MA1100371999999MW1061REMMET006CIG200
0056106190999991972012012004+49650+007250FM-15+0429EDEK V0209991V002612200019N0070001N9+00501+00101999999ADDGA1011+000909079GA2031+060009009MA1100271999999MW1061
0056106190999991972012013004+49650+007250FM-15+0429EDEK V0209991V000512200019N0090001N9+00301+00101999999ADDGA1011+000309079GA2031+030009039MA1100201999999MW1061
0077106190999991972012014004+49650+007250FM-15+0429EDEK V0209991V00211220001CN0060001N9+00401+00101999999ADDGA1011+000609079GA2031+060009009MA1100141999999MW1461REMMET012VIS W-N 0900
0080106190999991972012015004+49650+007250FM-15+0429EDEK V0209991C00001000601CN0002001N9+00001-00101999999ADDGA1091+000609999GF109991999999999999999999MA1100101999999MW1471REMMET005CIG02
0085106190999991972012016004+49650+007250FM-15+0429EDEK V0209991C00001000301CN0000001N9-00101-00201999999ADDGA1091+000309999GF109991999999999999999999MA1100101999999MW1471REMMET010CIG01/LAST
0091106190999991972012106004+49650+007250FM-15+0429EDEK V0203601N002110060019N0060001N9+00101-00101999999ADDGA1021+003609079GA2081+006009059MA1100611999999MW1711REMMET026CIG20/FG PRSNT/90507/FIRST
0079106190999991972012107004+49650+007250FM-15+0429EDEK V0203601N001510060019N0060001N9+00101-00101999999ADDGA1021+003609079GA2081+006009059MA1100681999999MW1711REMMET014CIG20/FG PRSNT
0083106190999991972012108004+49650+007250FM-15+0429EDEK V0209991V001010060019N0100001N9+00101-00101999999ADDGA1031+003609079GA2081+006009059MA1100811999999MW1701REMMET018CIG20/PCPN VRY LGT
0083106190999991972012109004+49650+007250FM-15+0429EDEK V0209991V002110060019N0100001N9+00101-00101999999ADDGA1021+003609079GA2081+006009059MA1100881999999MW1701REMMET018CIG20/PCPN VRY LGT
0070106190999991972012110004+49650+007250FM-15+0429EDEK V0209991V001010060019N0100001N9+00101+00001999999ADDGA1021+003609079GA2081+006009059MA1101021999999MW1231REMMET005CIG20
0054106190999991972012111004+49650+007250FM-15+0429EDEK V0209991V00211006001CN0100001N9+00201+00001999999ADDGA1061+006009059MA1101081999999MW1001REMMET005CIG20
0070106190999991972012112004+49650+007250FM-15+0429EDEK V0209991V002610060019N0100001N9+00201+00001999999ADDGA1061+006009059GA2031+030009039MA1101121999999MW1001REMMET005CIG20
0082106190999991972012113004+49650+007250FM-15+0429EDEK V0209991V005110060019N0100001N9+00201+00001999999ADDGA1071+006009059GA2061+030009039MA1101191999999MW1001REMMET017CIG20/WND 310V040
0082106190999991972012114004+49650+007250FM-15+0429EDEK V0209991V004610075019N0100001N9+00101+00001999999ADDGA1071+007509059GA2061+030009039MA1101251999999MW1001REMMET017CIG25/WND 310V040
0071106190999991972012115004+49650+007250FM-15+0429EDEK V0209991V002610300019N0100001N9+00101-00101999999ADDGA1041+007509059GA2071+030009039MA1101321999999MW1001REMMET006CIG100
0076106190999991972012116004+49650+007250FM-15+0429EDEK V0209991V002610300019N0100001N9+00101-00101999999ADDGA1041+007509059GA2081+030009039MA1101421999999MW1001REMMET011CIG100/LAST
0066106190999991972012406004+49650+007250FM-15+0429EDEK V0209991C00001005401CN0100001N9-00401-00601999999ADDGA1081+005409059MA1101591999999MW1001REMMET017CIG18/90503/FIRST
0054106190999991972012407004+49650+007250FM-15+0429EDEK V0209991C00001005401CN0060001N9-00401-00601999999ADDGA1051+005409059MA1101591999999MW1061REMMET005CIG18
0040106190999991972012408004+49650+007250FM-15+0429EDEK V0209991C00001220001CN0037001N9-00601-00701999999ADDGA1031+003609059MA1101561999999MW1461
0024106190999991972012409004+49650+007250FM-15+0429EDEK V0209991C00001220001CN0047001N9-00601-00701999999ADDMA1101491999999MW1421
0024106190999991972012410004+49650+007250FM-15+0429EDEK V0202301N00261220001CN0047001N9-00301-00401999999ADDMA1101391999999MW1441
0040106190999991972012411004+49650+007250FM-15+0429EDEK V0202401N00411220001CN0047001N9-00101-00301999999ADDGA1021+004509059MA1101321999999MW1441
0040106190999991972012412004+49650+007250FM-15+0429EDEK V0202201N00621220001CN0047001N9-00101-00301999999ADDGA1021+004509059MA1101221999999MW1441
0040106190999991972012413004+49650+007250FM-15+0429EDEK V0202201N00571220001CN0070001N9+00001-00201999999ADDGA1021+004509059MA1101121999999MW1061
0070106190999991972012414004+49650+007250FM-15+0429EDEK V0202201N005710090019N0070001N9-00101-00201999999ADDGA1051+009009059GA2041+030009039MA1101081999999MW1061REMMET005CIG30
0070106190999991972012415004+49650+007250FM-15+0429EDEK V0202201N006210045019N0060001N9-00101-00201999999ADDGA1051+004509059GA2081+009009059MA1101021999999MW1061REMMET005CIG15
0075106190999991972012416004+49650+007250FM-15+0429EDEK V0202201N005110045019N0060001N9-00101-00301999999ADDGA1061+004509059GA2081+009009059MA1100981999999MW1061REMMET010CIG15/LAST
0066106190999991972012506004+49650+007250FM-15+0429EDEK V0209991V00151001801CN0024001N9-00101-00201999999ADDGA1081+001809079MA1100271999999MW1711REMMET017CIG06/90402/FIRST
0063106190999991972012507004+49650+007250FM-15+0429EDEK V0209991C00001001801CN0024001N9-00101-00201999999ADDGA1081+001809079MA1100271999999MW1711REMMET014CIG06/FG PRSNT
0063106190999991972012508004+49650+007250FM-15+0429EDEK V0202301N00101001501CN0018001N9-00101-00201999999ADDGA1081+001509079MA1100311999999MW1711REMMET014CIG05/FG PRSNT
0079106190999991972012509004+49650+007250FM-15+0429EDEK V0202401N002110015019N0018001N9-00101-00201999999ADDGA1061+001509079GA2081+003009059MA1100441999999MW1711REMMET014CIG05/FG PRSNT
0079106190999991972012510004+49650+007250FM-15+0429EDEK V0202401N002110015019N0018001N9-00101-00201999999ADDGA1061+001509079GA2081+003009059MA1100471999999MW1711REMMET014CIG05/FG PRSNT
0063106190999991972012511004+49650+007250FM-15+0429EDEK V0209991C00001001501CN0018001N9+00001-00101999999ADDGA1081+001509079MA1100541999999MW1711REMMET014CIG05/FG PRSNT
0069106190999991972012512004+49650+007250FM-15+0429EDEK V0209991C00001002101CN0028001N9+00001-00101999999ADDGA1081+002109079MA1100581999999MW1711REMMET020CIG07/FG PRSNT/90403
0092106190999991972012513004+49650+007250FM-15+0429EDEK V0209991V001010021019N0037001N9+00101-00101999999ADDGA1061+002109079GA2081+004509059MA1100611999999MW1701REMMET027CIG07/FG PRSNT PCPN VRY LGT
0092106190999991972012514004+49650+007250FM-15+0429EDEK V0209991V002110021019N0037001N9+00101-00101999999ADDGA1061+002109079GA2081+004509059MA1100711999999MW1711REMMET027CIG07/FG PRSNT PCPN VRY LGT
0092106190999991972012515004+49650+007250FM-15+0429EDEK V0209991V001510021019N0037001N9+00101-00101999999ADDGA1061+002109079GA2081+004509059MA1100811999999MW1711REMMET027CIG07/FG PRSNT PCPN VRY LGT
0097106190999991972012516004+49650+007250FM-15+0429EDEK V0209991V002610021019N0037001N9+00001-00101999999ADDGA1061+002109079GA2081+004509059MA1100881999999MW1711REMMET032CIG07/FG PRSNT PCPN VRY LGT/LAST
0092106190999991972012606004+49650+007250FM-15+0429EDEK V0202201N00211000901CN0006001N9-00401-00601999999ADDGA1091+000909999GF109991999999999999999999MA1101081999999MW1451REMMET017CIG03/90403/FIRST
0080106190999991972012607004+49650+007250FM-15+0429EDEK V0209991V00101000901CN0006001N9-00401-00601999999ADDGA1091+000909999GF109991999999999999999999MA1101051999999MW1451REMMET005CIG03
0080106190999991972012608004+49650+007250FM-15+0429EDEK V0202101N00151001201CN0007001N9-00401-00601999999ADDGA1091+001209999GF109991999999999999999999MA1101081999999MW1431REMMET005CIG04
0080106190999991972012609004+49650+007250FM-15+0429EDEK V0202001N00211001201CN0007001N9-00301-00601999999ADDGA1091+001209999GF109991999999999999999999MA1101021999999MW1451REMMET005CIG04
0060106190999991972012610004+49650+007250FM-15+0429EDEK V0202101N00151001801CN0017001N9-00301-00601999999ADDGA1081+001809079MA1100981999999MW1421REMMET011CIG06/2FG//
0062106190999991972012611004+49650+007250FM-15+0429EDEK V0202001N00261001801CN0026001N9-00301-00501999999ADDGA1081+001809079MA1100911999999MW1421REMMET013CIG06/CIG RAG
0060106190999991972012612004+49650+007250FM-15+0429EDEK V0202001N00211001801CN0034001N9-00201-00401999999ADDGA1051+001809079MA1100811999999MW1421REMMET011CIG06/90403
0062106190999991972012613004+49650+007250FM-15+0429EDEK V0201801N00261001801CN0047001N9-00101-00301999999ADDGA1051+001809079MA1100681999999MW1421REMMET013CIG06/CIG RAG
0057106190999991972012614004+49650+007250FM-15+0429EDEK V0201601N00311220001CN0060001N9-00101-00301999999ADDGA1031+001809079MA1100581999999MW1421REMMET008HZ PRSNT
0056106190999991972012615004+49650+007250FM-15+0429EDEK V0201401N00261220001CN0070001N9-00101-00301999999ADDGA1011+001809079GA2031+004509059MA1100471999999MW1061
0078106190999991972012616004+49650+007250FM-15+0429EDEK V0201401N00261220001CN0060001N9-00101-00301999999ADDGA1011+004509059GA2031+060009009MA1100411999999MW1461REMMET013HZ PRSNT/LAST
0066106190999991972012706004+49650+007250FM-15+0429EDEK V0202201N00411002401CN0028001N9+00001-00101999999ADDGA1081+002409079MA1098881999999MW1711REMMET017CIG08/90405/FIRST
0076106190999991972012707004+49650+007250FM-15+0429EDEK V0202301N00621002101CN0018001N9+00101-00101999999ADDGA1081+002109079MA1098951999999MW1701REMMET027CIG07/PCPN VRY LGT FG PRSNT
0059106190999991972012708004+49650+007250FM-15+0429EDEK V0202401N00511001501CN0022001N9+00101+00001999999ADDGA1081+001509079MA1098981999999MW1421REMMET010CIG05/RESN
0078106190999991972012709004+49650+007250FM-15+0429EDEK V0202401N007210021019N0070001N9+00101+00001999999ADDGA1061+002109079GA2081+004509059MA1099021999999MW1421REMMET013CIG07/CIG RAG
0063106190999991972012710004+49650+007250FM-15+0429EDEK V0202201N00621002101CN0037001N9+00101+00001999999ADDGA1081+002109079MA1099091999999MW1701REMMET014CIG07/FG PRSNT
0063106190999991972012711004+49650+007250FM-15+0429EDEK V0202301N00821001801CN0018001N9+00101+00001999999ADDGA1081+001809079MA1099091999999MW1711REMMET014CIG06/FG PRSNT
0069106190999991972012712004+49650+007250FM-15+0429EDEK V0202201N00621001801CN0018001N9+00001+00001999999ADDGA1081+001809079MA1099091999999MW1711REMMET020CIG06/FG PRSNT/90406
0063106190999991972012713004+49650+007250FM-15+0429EDEK V0202201N00671001801CN0026001N9+00001+00001999999ADDGA1081+001809079MA1099121999999MW1711REMMET014CIG06/FG PRSNT
0063106190999991972012714004+49650+007250FM-15+0429EDEK V0202201N00721001801CN0022001N9+00001+00001999999ADDGA1081+001809079MA1099121999999MW1711REMMET014CIG06/FG PRSNT
0063106190999991972012715004+49650+007250FM-15+0429EDEK V0202301N00621001801CN0018001N9+00001+00001999999ADDGA1081+001809079MA1099151999999MW1711REMMET014CIG06/FG PRSNT
0068106190999991972012716004+49650+007250FM-15+0429EDEK V0202201N00571001801CN0018001N9+00001+00001999999ADDGA1081+001809079MA1099191999999MW1711REMMET019CIG06/FG PRSNT/LAST
0082106190999991972012806004+49650+007250FM-15+0429EDEK V0209991V002110075019N0060001N9+00101-00101999999ADDGA1031+004509079GA2041+007509059MA1100171999999MW1441REMMET017CIG25/90403/FIRST
0089106190999991972012807004+49650+007250FM-15+0429EDEK V0209991V004110075019N0060001N9+00101-00101999999ADDGA1041+004509079GA2051+007509059MA1100441999999MW1441REMMET024CIG25/WND 010V110 PRESRR
0089106190999991972012808004+49650+007250FM-15+0429EDEK V0209991V004110009019N0024001N9+00101-00101999999ADDGA1061+000909079GA2081+003009079MA1100611999999MW1461REMMET024CIG03/WND 350V090/PRESRR
0086106190999991972012809004+49650+007250FM-15+0429EDEK V0209991V002610075019N0028001N9+00101-00101999999ADDGA1011+001509079GA2031+003909079GA3081+007509059MA1100611999999MW1421REMMET005CIG25
0086106190999991972012810004+49650+007250FM-15+0429EDEK V0209991V002610075019N0037001N9+00101-00101999999ADDGA1011+002109079GA2031+004509079GA3081+007509059MA1100641999999MW1421REMMET005CIG25
0098106190999991972012811004+49650+007250FM-15+0429EDEK V0209991V004110075019N0047001N9+00101-00101999999ADDGA1021+004509079GA2051+007509059GA3081+012009059MA1100641999999MW1421REMMET017CIG25/WND 330V090
0104106190999991972012812004+49650+007250FM-15+0429EDEK V0209991V004110075019N0047001N9+00101-00101999999ADDGA1021+004509079GA2061+007509059GA3081+012009059MA1100641999999MW1441REMMET023CIG25/WND 350V070/90403
0098106190999991972012813004+49650+007250FM-15+0429EDEK V0209991V003610075019N0047001N9+00101-00101999999ADDGA1021+004509079GA2051+007509059GA3081+012009059MA1100641999999MW1441REMMET017CIG25/WND 340V100
0070106190999991972012814004+49650+007250FM-15+0429EDEK V0209991V003110075019N0070001N9+00101-00101999999ADDGA1021+004509079GA2081+007509059MA1100641999999MW1421REMMET005CIG25
0082106190999991972012815004+49650+007250FM-15+0429EDEK V0209991V004110075019N0060001N9+00101-00101999999ADDGA1031+004509079GA2081+007509059MA1100641999999MW1461REMMET017CIG25/WND 360V080
0071106190999991972012816004+49650+007250FM-15+0429EDEK V0209991V00511004501CN0060001N9+00101-00101999999ADDGA1081+004509079MA1100641999999MW1441REMMET022CIG15/WND 010V090/LAST
0111106190999991972013106004+49650+007250FM-15+0429EDEK V0209991C000010210019N0070001N9-01301-01601999999ADDGA1031+006009059GA2051+021009039GA3061+060009009MA1101251999999MW1711REMMET030CIG70/PCPN VRY LGT/90403/FIRST
0092106190999991972013107004+49650+007250FM-15+0429EDEK V0209991C000010600019N0060001N9-01301-01601999999ADDGA1011+006009059GA2031+021009039GA3071+060009009MA1101321999999MW1061REMMET011CIG200/RESN
0079106190999991972013108004+49650+007250FM-15+0429EDEK V0209991C000010060019N0037001N9-01401-01701999999ADDGA1061+006009059GA2041+021009039MA1101391999999MW1461REMMET014CIG20/HZ PRSNT
0089106190999991972013109004+49650+007250FM-15+0429EDEK V0202601N001510060019N0018001N9-01201-01501999999ADDGA1011+003609079GA2061+006009059MA1101391999999MW1701REMMET024CIG20/1FG// PCPN VRY LGT
0081106190999991972013110004+49650+007250FM-15+0429EDEK V0209991V001010036019N0013001N9-01201-01501999999ADDGA1021+003609079GA2031+006009059MA1101421999999MW1461REMMET016CIG12/4FG// RESN
0040106190999991972013111004+49650+007250FM-15+0429EDEK V0202401N00311220001CN0034001N9-01001-01401999999ADDGA1021+004509059MA1101461999999MW1421
0054106190999991972013112004+49650+007250FM-15+0429EDEK V0202501N00361220001CN0090001N9-00901-01201999999ADDGA1031+007509059MA1101491999999MW1061REMMET00590403
0040106190999991972013113004+49650+007250FM-15+0429EDEK V0202501N00261220001CN0090001N9-00801-01201999999ADDGA1021+007509059MA1101461999999MW1061
0057106190999991972013114004+49650+007250FM-15+0429EDEK V0202401N00211220001CN0100001N9-00801-01201999999ADDGA1011+007509059MA1101461999999MW1001REMMET008HZ PRSNT
0041106190999991972013115004+49650+007250FM-15+0429EDEK V0202401N00211220001CN0100001N9-00801-01201999999ADDMA1101521999999MW1001REMMET008HZ PRSNT
0024106190999991972013116004+49650+007250FM-15+0429EDEK V0209991V00051220001CN0090001N9-00801-01201999999ADDMA1101521999999MW1061
0082106190999991972020106004+49650+007250FM-15+0429EDEK V0209991C000010240019N0037001N9-01301-01601999999ADDGA1031+006009059GA2081+024009039MA1101391999999MW1461REMMET017CIG80/90403/FIRST
0070106190999991972020107004+49650+007250FM-15+0429EDEK V0209991C000010240019N0037001N9-01301-01601999999ADDGA1031+006009059GA2081+024009039MA1101391999999MW1441REMMET005CIG80
0070106190999991972020108004+49650+007250FM-15+0429EDEK V0209991V000510240019N0037001N9-01201-01401999999ADDGA1021+006009059GA2081+024009039MA1101351999999MW1441REMMET005CIG80
0088106190999991972020109004+49650+007250FM-15+0429EDEK V0209991C000010240019N0037001N9-01201-01401999999ADDGA1031+006009059GA2081+024009039MA1101351999999MW1441REMMET023CIG80/1FG// VIS SW 1900
0090106190999991972020110004+49650+007250FM-15+0429EDEK V0209991V001010210019N0037001N9-01201-01401999999ADDGA1031+006009059GA2081+021009039MA1101291999999MW1441REMMET025CIG70/1FG// VIS S-SW 1900
0070106190999991972020111004+49650+007250FM-15+0429EDEK V0209991V000510240019N0037001N9-01001-01301999999ADDGA1021+006009059GA2081+024009039MA1101221999999MW1441REMMET005CIG80
0076106190999991972020112004+49650+007250FM-15+0429EDEK V0209991V001010240019N0037001N9-00801-01101999999ADDGA1011+007509059GA2081+024009039MA1101191999999MW1441REMMET011CIG80/90403
0054106190999991972020113004+49650+007250FM-15+0429EDEK V0209991V00051024001CN0037001N9-00701-01001999999ADDGA1081+024009039MA1101121999999MW1441REMMET005CIG80
0070106190999991972020114004+49650+007250FM-15+0429EDEK V0209991C000010240019N0037001N9-00701-01001999999ADDGA1021+007509059GA2061+024009039MA1101081999999MW1441REMMET005CIG80
0070106190999991972020115004+49650+007250FM-15+0429EDEK V0201001N002610240019N0047001N9-00501-00801999999ADDGA1021+007509059GA2071+024009039MA1101081999999MW1421REMMET005CIG80
0075106190999991972020116004+49650+007250FM-15+0429EDEK V0209991V001510240019N0037001N9-00501-00801999999ADDGA1031+007509059GA2081+024009039MA1101081999999MW1461REMMET010CIG80/LAST
0075106190999991972020206004+49650+007250FM-15+0429EDEK V0209991C00001001201CN0026001N9-00301-00401999999ADDGA1081+001209079MA1101021999999MW1711REMMET026CIG04/FG PRSNT/90404/FIRST
0063106190999991972020207004+49650+007250FM-15+0429EDEK V0209991C00001001201CN0007001N9-00301-00401999999ADDGA1081+001209079MA1101021999999MW1711REMMET014CIG04/FG PRSNT
0063106190999991972020208004+49650+007250FM-15+0429EDEK V0209991C00001001201CN0007001N9-00301-00401999999ADDGA1081+001209079MA1101051999999MW1711REMMET014CIG04/FG PRSNT
0075106190999991972020209004+49650+007250FM-15+0429EDEK V0209991C005710060019N9999999N9-00201-00401999999ADDGA1041+001209079GA2081+006009059MA1101051999999MW1421REMMET010CIG20/RESN
0086106190999991972020210004+49650+007250FM-15+0429EDEK V0201501N003110060019N0017001N9+00201+00001999999ADDGA1011+001209079GA2051+006009059GA3061+012009059MA1101051999999MW1421REMMET005CIG20
0040106190999991972020211004+49650+007250FM-15+0429EDEK V0201501N00261220001CN0070001N9+00401+00101999999ADDGA1031+012009059MA1101021999999MW1061
0054106190999991972020212004+49650+007250FM-15+0429EDEK V0201701N00361220001CN0100001N9+00701+00201999999ADDGA1011+030009039MA1100951999999MW1001REMMET00590404
0040106190999991972020213004+49650+007250FM-15+0429EDEK V0201701N00361220001CN0100001N9+00801+00201999999ADDGA1011+030009039MA1100911999999MW1001
0054106190999991972020214004+49650+007250FM-15+0429EDEK V0201401N00411015001CN0100001N9+00701+00201999999ADDGA1051+015009059MA1100881999999MW1001REMMET005CIG50
0040106190999991972020215004+49650+007250FM-15+0429EDEK V0201601N00361220001CN0100001N9+00701+00201999999ADDGA1011+015009059MA1100851999999MW1001
0024106190999991972020216004+49650+007250FM-15+0429EDEK V0201301N00311220001CN0100001N9+00601+00201999999ADDMA1100851999999MW1001
0082106190999991972020306004+49650+007250FM-15+0429EDEK V0209991C000010240019N0037001N9+00001-00101999999ADDGA1031+009009059GA2071+024009049MA1100811999999MW1441REMMET017CIG80/90403/FIRST
0070106190999991972020307004+49650+007250FM-15+0429EDEK V0209991C000010240019N0037001N9-00101-00201999999ADDGA1011+009009059GA2051+024009049MA1100811999999MW1441REMMET005CIG80
0040106190999991972020308004+49650+007250FM-15+0429EDEK V0209991C00001220001CN0037001N9-00201-00301999999ADDGA1041+024009049MA1100811999999MW1441
0054106190999991972020309004+49650+007250FM-15+0429EDEK V0209991C00001010501CN0018001N9-00101-00201999999ADDGA1061+010509059MA1100851999999MW1461REMMET005CIG35
0070106190999991972020310004+49650+007250FM-15+0429EDEK V0209991V001010240019N0018001N9-00101-00201999999ADDGA1031+010509059GA2081+024009049MA1100851999999MW1441REMMET005CIG80
0070106190999991972020311004+49650+007250FM-15+0429EDEK V0209991V001010240019N0024001N9-00101-00201999999ADDGA1031+010509059GA2081+024009049MA1100751999999MW1421REMMET005CIG80
0060106190999991972020312004+49650+007250FM-15+0429EDEK V0200901N00411024001CN0060001N9+00201+00001999999ADDGA1081+024009049MA1100681999999MW1421REMMET011CIG80/90403
0054106190999991972020313004+49650+007250FM-15+0429EDEK V0200901N00411024001CN0060001N9+00301+00001999999ADDGA1081+024009049MA1100611999999MW1441REMMET005CIG80
0054106190999991972020314004+49650+007250FM-15+0429EDEK V0209991V00261024001CN0060001N9+00401+00101999999ADDGA1081+024009049MA1100541999999MW1441REMMET005CIG80
0054106190999991972020315004+49650+007250FM-15+0429EDEK V0209991V00151024001CN0060001N9+00401+00101999999ADDGA1081+024009049MA1100441999999MW1441REMMET005CIG80
0059106190999991972020316004+49650+007250FM-15+0429EDEK V0209991V00101024001CN0060001N9+00401+00101999999ADDGA1081+024009049MA1100411999999MW1441REMMET010CIG80/LAST
0091106190999991972020406004+49650+007250FM-15+0429EDEK V0209991C000010015019N0026001N9+00001-00101999999ADDGA1061+001509079GA2081+003609059MA1100031999999MW1561REMMET026CIG05/FG PRSNT/90402/FIRST
0076106190999991972020407004+49650+007250FM-15+0429EDEK V0209991C000010015019N0018001N9+00001-00101999999ADDGA1061+001509079GA2081+003609059MA1100031999999MW1561REMMET011CIG05/1FG//
0080106190999991972020408004+49650+007250FM-15+0429EDEK V0209991C00001000901CN0004001N9+00001-00101999999ADDGA1091+000909999GF109991999999999999999999MA1100141999999MW1471REMMET005CIG03
0080106190999991972020409004+49650+007250FM-15+0429EDEK V0209991C00001000901CN0004001N9+00101+00001999999ADDGA1091+000909999GF109991999999999999999999MA1100171999999MW1451REMMET005CIG03
0080106190999991972020410004+49650+007250FM-15+0429EDEK V0209991C00001000901CN0004001N9+00101+00001999999ADDGA1091+000909999GF109991999999999999999999MA1100141999999MW1451REMMET005CIG03
0080106190999991972020411004+49650+007250FM-15+0429EDEK V0209991C00001000901CN0004001N9+00101+00001999999ADDGA1091+000909999GF109991999999999999999999MA1100141999999MW1451REMMET005CIG03
0100106190999991972020412004+49650+007250FM-15+0429EDEK V0209991C00001001201CN0004001N9+00101+00001999999ADDGA1091+001209999GF109991999999999999999999MA1100171999999MW1451REMMET025CIG04/SUN DMLY VSBL/90401
0080106190999991972020413004+49650+007250FM-15+0429EDEK V0209991V00051000601CN0002001N9+00201+00101999999ADDGA1091+000609999GF109991999999999999999999MA1100141999999MW1471REMMET005CIG02
0080106190999991972020414004+49650+007250FM-15+0429EDEK V0209991V00211000601CN0002001N9+00201+00101999999ADDGA1091+000609999GF109991999999999999999999MA1100101999999MW1451REMMET005CIG02
0080106190999991972020415004+49650+007250FM-15+0429EDEK V0209991C00001000601CN0002001N9+00201+00101999999ADDGA1091+000609999GF109991999999999999999999MA1100071999999MW1451REMMET005CIG02
0085106190999991972020416004+49650+007250FM-15+0429EDEK V0209991C00001000601CN0002001N9+00101+00001999999ADDGA1091+000609999GF109991999999999999999999MA1100071999999MW1451REMMET010CIG02/LAST
0060106190999991972021506004+49650+007250FM-15+0429EDEK V0209991C00001220001CN0100001N9-00101-00201999999ADDGA1041+024009039MA1101831999999MW1001REMMET01190500/FIRST
0055106190999991972021507004+49650+007250FM-15+0429EDEK V0209991C00001024001CN0100001N9-00101-00201999999ADDGA1061+024009039MA1101831999999MW1001REMMET006CIG080
0055106190999991972021508004+49650+007250FM-15+0429EDEK V0209991C00001024001CN0100001N9+00001-00201999999ADDGA1071+024009039MA1101831999999MW1001REMMET006CIG080
0055106190999991972021509004+49650+007250FM-15+0429EDEK V0209991C00001024001CN0100001N9+00201-00101999999ADDGA1071+024009039MA1101831999999MW1001REMMET006CIG080
0071106190999991972021510004+49650+007250FM-15+0429EDEK V0209991C000010240019N0047001N9+00301+00001999999ADDGA1011+002409079GA2071+024009039MA1101801999999MW1461REMMET006CIG080
0072106190999991972021511004+49650+007250FM-15+0429EDEK V0209991C000012200019N0100001N9+00301+00001999999ADDGA1011+003009079GA2011+024009039GA3011+060009009MA1101801999999MW1001
0074106190999991972021512004+49650+007250FM-15+0429EDEK V0201601N00361220001CN0100001N9+00701+00301999999ADDGA1021+007509089GA2011+024009039MA1101631999999MW1001REMMET009TCU ALQDS
0056106190999991972021513004+49650+007250FM-15+0429EDEK V0201401N00311220001CN0100001N9+00601+00301999999ADDGA1031+009009089MA1101521999999MW1001REMMET007TCU S-W
0070106190999991972021514004+49650+007250FM-15+0429EDEK V0201701N005112200019N0100001N9+00601+00301999999ADDGA1011+009009059GA2051+060009009MA1101421999999MW1001REMMET005CIGNO
0070106190999991972021515004+49650+007250FM-15+0429EDEK V0201801N004612200019N0100001N9+00601+00301999999ADDGA1011+009009059GA2061+060009009MA1101351999999MW1001REMMET005CIGNO
0076106190999991972021516004+49650+007250FM-15+0429EDEK V0201501N004110600019N0100001N9+00601+00301999999ADDGA1011+010509059GA2081+060009009MA1101291999999MW1001REMMET011CIG200/LAST
0083106190999991972021606004+49650+007250FM-15+0429EDEK V0201901N002610240019N0100001N9+00101-00201999999ADDGA1051+024009039GA2041+060009009MA1100681999999MW1001REMMET018CIG080/90500/FIRST
0080106190999991972021607004+49650+007250FM-15+0429EDEK V0209991C000010210019N0100001N9+00101-00201999999ADDGA1051+021009039GA2081+027009049MA1100681999999MW1001REMMET015CIG070/HZ PRSNT
0080106190999991972021608004+49650+007250FM-15+0429EDEK V0202601N001510270019N0100001N9+00101-00201999999ADDGA1031+021009039GA2081+027009049MA1100711999999MW1001REMMET015CIG090/HZ PRSNT
0096106190999991972021609004+49650+007250FM-15+0429EDEK V0202501N001510270019N0100001N9+00201-00101999999ADDGA1031+024009039GA2031+027009049GA3021+060009009MA1100751999999MW1001REMMET015CIG090/HZ PRSNT
0096106190999991972021610004+49650+007250FM-15+0429EDEK V0202501N001010240019N0100001N9+00301+00001999999ADDGA1051+024009039GA2061+030009049GA3021+060009009MA1100751999999MW1001REMMET015CIG080/HZ PRSNT
0080106190999991972021611004+49650+007250FM-15+0429EDEK V0202401N002110240019N0100001N9+00301+00001999999ADDGA1021+012009059GA2081+024009039MA1100711999999MW1001REMMET015CIG080/HZ PRSNT
0080106190999991972021612004+49650+007250FM-15+0429EDEK V0201201N002110240019N0100001N9+00401+00101999999ADDGA1011+012009059GA2071+024009039MA1100711999999MW1001REMMET015CIG080/HZ PRSNT
0057106190999991972021613004+49650+007250FM-15+0429EDEK V0202201N00361220001CN0100001N9+00601+00101999999ADDGA1041+024009039MA1100681999999MW1001REMMET008HZ PRSNT
0071106190999991972021614004+49650+007250FM-15+0429EDEK V0201701N004110240019N0100001N9+00601+00101999999ADDGA1061+024009039GA2021+060009009MA1100641999999MW1001REMMET006CIG080
0071106190999991972021615004+49650+007250FM-15+0429EDEK V0201501N003610240019N0100001N9+00601+00101999999ADDGA1061+024009039GA2021+060009009MA1100611999999MW1001REMMET006CIG080
0060106190999991972021616004+49650+007250FM-15+0429EDEK V0201301N00311024001CN0100001N9+00601+00101999999ADDGA1081+024009039MA1100581999999MW1001REMMET011CIG080/LAST
0060106190999991972021706004+49650+007250FM-15+0429EDEK V0209991C00001220001CN0060001N9+00101-00101999999ADDGA1031+024009039MA1100711999999MW1441REMMET01190501/FIRST
0055106190999991972021707004+49650+007250FM-15+0429EDEK V0209991C00001024001CN0060001N9+00101-00101999999ADDGA1081+024009039MA1100751999999MW1441REMMET006CIG080
0071106190999991972021708004+49650+007250FM-15+0429EDEK V0209991C000010240019N0060001N9+00101-00101999999ADDGA1061+024009039GA2081+030009049MA1100781999999MW1441REMMET006CIG080
0080106190999991972021709004+49650+007250FM-15+0429EDEK V0209991C000010300019N0070001N9+00201+00001999999ADDGA1031+024009039GA2081+030009049MA1100781999999MW1421REMMET015CIG100/HZ PRSNT
0071106190999991972021710004+49650+007250FM-15+0429EDEK V0209991C000010300019N0070001N9+00201+00001999999ADDGA1021+024009039GA2081+030009049MA1100781999999MW1061REMMET006CIG100
0071106190999991972021711004+49650+007250FM-15+0429EDEK V0209991C000010300019N0070001N9+00301+00001999999ADDGA1011+024009039GA2081+030009049MA1100751999999MW1061REMMET006CIG100
0071106190999991972021712004+49650+007250FM-15+0429EDEK V0200301N001510300019N0070001N9+00501+00001999999ADDGA1061+030009049GA2041+060009029MA1100751999999MW1061REMMET006CIG100
0055106190999991972021713004+49650+007250FM-15+0429EDEK V0209991C00001030001CN0070001N9+00601+00101999999ADDGA1081+030009049MA1100711999999MW1061REMMET006CIG100
0071106190999991972021714004+49650+007250FM-15+0429EDEK V0203501N001010300019N0070001N9+00501+00101999999ADDGA1031+024009039GA2081+030009049MA1100681999999MW1061REMMET006CIG100
0071106190999991972021715004+49650+007250FM-15+0429EDEK V0200301N002110300019N0070001N9+00501+00101999999ADDGA1031+024009039GA2081+030009049MA1100681999999MW1061REMMET006CIG100
0060106190999991972021716004+49650+007250FM-15+0429EDEK V0200401N00151024001CN0070001N9+00501+00101999999ADDGA1081+024009039MA1100681999999MW1061REMMET011CIG080/LAST
0083106190999991972021806004+49650+007250FM-15+0429EDEK V0209991V001010120019N0060001N9+00001-00101999999ADDGA1021+004509079GA2081+012009059MA1100881999999MW1441REMMET018CIG040/90502/FIRST
0071106190999991972021807004+49650+007250FM-15+0429EDEK V0209991V001510120019N0060001N9+00101-00101999999ADDGA1051+012009059GA2081+024009049MA1100951999999MW1441REMMET006CIG040
0055106190999991972021808004+49650+007250FM-15+0429EDEK V0200401N00211024001CN0060001N9+00101-00101999999ADDGA1081+024009049MA1100951999999MW1441REMMET006CIG080
0087106190999991972021809004+49650+007250FM-15+0429EDEK V0200301N001510600019N0060001N9+00101-00101999999ADDGA1011+010509059GA2031+024009049GA3081+060009029MA1100981999999MW1441REMMET006CIG200
0087106190999991972021810004+49650+007250FM-15+0429EDEK V0200501N001510600019N0070001N9+00301+00001999999ADDGA1011+010509059GA2031+024009049GA3081+060009029MA1100951999999MW1061REMMET006CIG200
0071106190999991972021811004+49650+007250FM-15+0429EDEK V0200301N003110600019N0070001N9+00401+00001999999ADDGA1031+024009049GA2081+060009029MA1100911999999MW1061REMMET006CIG200
0071106190999991972021812004+49650+007250FM-15+0429EDEK V0200801N003110600019N0070001N9+00701+00201999999ADDGA1011+030009039GA2081+060009029MA1100911999999MW1061REMMET006CIG200
0055106190999991972021813004+49650+007250FM-15+0429EDEK V0209991V00211060001CN0090001N9+00701+00201999999ADDGA1061+060009029MA1100881999999MW1061REMMET006CIG200
0055106190999991972021814004+49650+007250FM-15+0429EDEK V0209991V00101060001CN0090001N9+00701+00201999999ADDGA1071+060009029MA1100851999999MW1061REMMET006CIG200
0055106190999991972021815004+49650+007250FM-15+0429EDEK V0209991C00001060001CN0090001N9+00601+00201999999ADDGA1081+060009029MA1100881999999MW1061REMMET006CIG200
0060106190999991972021816004+49650+007250FM-15+0429EDEK V0200901N00151060001CN0090001N9+00501+00201999999ADDGA1081+060009029MA1100881999999MW1061REMMET011CIG200/LAST
0083106190999991972022206004+49650+007250FM-15+0429EDEK V0209991C000010240019N0002001N9+00001-00101999999ADDGA1041+000159999GA2051+024009039MA1101631999999MW1441REMMET018CIG080/90501/FIRST
0087106190999991972022207004+49650+007250FM-15+0429EDEK V0200801N001010240019N0002001N9+00001-00101999999ADDGA1041+000159999GA2021+024009039GA3061+060009009MA1101631999999MW1441REMMET006CIG080
0071106190999991972022208004+49650+007250FM-15+0429EDEK V0209991C000010600019N0002001N9+00001-00101999999ADDGA1041+000159999GA2061+060009009MA1101631999999MW1441REMMET006CIG200
0071106190999991972022209004+49650+007250FM-15+0429EDEK V0209991C000010600019N0002001N9+00001-00101999999ADDGA1051+000159999GA2041+060009009MA1101691999999MW1441REMMET006CIG200
0070106190999991972022210004+49650+007250FM-15+0429EDEK V0209991C000012200019N0013001N9+00301+00001999999ADDGA1021+000159999GA2031+060009009MA1101691999999MW1421REMMET005CIGNO
0040106190999991972022211004+49650+007250FM-15+0429EDEK V0209991V00211220001CN0034001N9+00501+00201999999ADDGA1031+060009009MA1101691999999MW1421
0040106190999991972022212004+49650+007250FM-15+0429EDEK V0209991V00211220001CN0047001N9+00601+00301999999ADDGA1031+060009009MA1101661999999MW1421
0072106190999991972022213004+49650+007250FM-15+0429EDEK V0209991V001012200019N0060001N9+00601+00301999999ADDGA1011+009009089GA2011+024009039GA3021+060009009MA1101661999999MW1061
0056106190999991972022214004+49650+007250FM-15+0429EDEK V0201401N003612200019N0060001N9+00601+00301999999ADDGA1011+024009039GA2031+060009009MA1101661999999MW1061
0087106190999991972022215004+49650+007250FM-15+0429EDEK V0209991V001010240019N0037001N9+00401+00201999999ADDGA1041+009009059GA2021+024009039GA3061+060009009MA1101661999999MW1061REMMET006CIG080
0092106190999991972022216004+49650+007250FM-15+0429EDEK V0209991V001010240019N0037001N9+00201+00001999999ADDGA1041+009009059GA2061+024009039GA3061+060009009MA1101661999999MW1061REMMET011CIG080/LAST
0068106190999991972022306004+49650+007250FM-15+0429EDEK V0200801N00261007501CN0026001N9+00101+00001999999ADDGA1081+007509059MA1101831999999MW1441REMMET019CIGE025/90500/FIRST
0056106190999991972022307004+49650+007250FM-15+0429EDEK V0201001N00361006001CN0026001N9+00101+00001999999ADDGA1081+006009059MA1101861999999MW1441REMMET007CIGB020
0056106190999991972022308004+49650+007250FM-15+0429EDEK V0200801N00151006001CN0026001N9+00201+00001999999ADDGA1081+006009059MA1101861999999MW1441REMMET007CIGB020
0056106190999991972022309004+49650+007250FM-15+0429EDEK V0200801N00411006001CN0026001N9+00301+00101999999ADDGA1081+006009059MA1101961999999MW1441REMMET007CIGB020
0072106190999991972022310004+49650+007250FM-15+0429EDEK V0200801N00411007501BN0026001N9+00401+00101999999ADDGA1011+003009079GA2071+007509059MA1101961999999MW1441REMMET007CIGB025
0071106190999991972022311004+49650+007250FM-15+0429EDEK V0200901N004610090019N0037001N9+00501+00201999999ADDGA1031+006009059GA2081+009009059MA1101961999999MW1061REMMET006CIG030
0071106190999991972022312004+49650+007250FM-15+0429EDEK V0201001N004110105019N0037001N9+00601+00201999999ADDGA1021+006009059GA2081+010509059MA1101961999999MW1061REMMET006CIG035
0072106190999991972022313004+49650+007250FM-15+0429EDEK V0200901N00511004501BN0037001N9+00501+00201999999ADDGA1061+004509059GA2081+010509059MA1101901999999MW1061REMMET007CIGB015
0072106190999991972022314004+49650+007250FM-15+0429EDEK V0200801N00621004501BN0037001N9+00501+00201999999ADDGA1051+004509059GA2081+010509059MA1101831999999MW1061REMMET007CIGB015
0072106190999991972022315004+49650+007250FM-15+0429EDEK V0200901N00461004501BN0037001N9+00501+00201999999ADDGA1051+004509059GA2081+010509059MA1101831999999MW1061REMMET007CIGB015
0113106190999991972022316004+49650+007250FM-15+0429EDEK V0201101N00571004501BN0037001N9+00501+00201999999ADDGA1011+003009079GA2051+004509059GA3081+010509059MA1101831999999MW1061REMMET032CIGB015/1538 10.0 NE 023OVC/LAST
0100106190999991972022406004+49650+007250FM-15+0429EDEK V0200801N00361003001EN0015001N9+00201+00001999999ADDGA1021+001509079GA2041+003009079GA3081+009009059MA1101661999999MW1441REMMET019CIGE010/90500/FIRST
0088106190999991972022407004+49650+007250FM-15+0429EDEK V0200901N00261003001EN0015001N9+00201+00001999999ADDGA1011+001509079GA2051+003009079GA3081+009009059MA1101691999999MW1441REMMET007CIGE010
0088106190999991972022408004+49650+007250FM-15+0429EDEK V0200801N00361003601EN0017001N9+00301+00101999999ADDGA1021+001809079GA2051+003609079GA3081+009009059MA1101661999999MW1421REMMET007CIGE012
0088106190999991972022409004+49650+007250FM-15+0429EDEK V0200801N00361006001EN0026001N9+00401+00201999999ADDGA1021+001809079GA2051+006009059GA3081+009009059MA1101661999999MW1421REMMET007CIGE020
0116106190999991972022410004+49650+007250FM-15+0429EDEK V0209991V00361006001EN0026001N9+00501+00301999999ADDGA1011+001809079GA2021+003009079GA3051+006009059GA4081+009009059MA1101631999999MW1441REMMET019CIGE020/WND 010V110
0088106190999991972022411004+49650+007250FM-15+0429EDEK V0201001N00411005401EN0026001N9+00501+00301999999ADDGA1011+001809079GA2051+005409059GA3081+009009059MA1101631999999MW1441REMMET007CIGE018
0084106190999991972022412004+49650+007250FM-15+0429EDEK V0209991V00461006001EN0026001N9+00401+00201999999ADDGA1061+006009059GA2081+009009059MA1101561999999MW1441REMMET019CIGE020/WND 070V150
0072106190999991972022413004+49650+007250FM-15+0429EDEK V0201001N00621007501EN0037001N9+00401+00201999999ADDGA1061+007509059GA2081+010509059MA1101521999999MW1421REMMET007CIGE025
0056106190999991972022414004+49650+007250FM-15+0429EDEK V0200901N00511007501CN0037001N9+00501+00201999999ADDGA1081+007509059MA1101491999999MW1441REMMET007CIGE025
0056106190999991972022415004+49650+007250FM-15+0429EDEK V0200901N00461007501CN0037001N9+00501+00201999999ADDGA1081+007509059MA1101491999999MW1441REMMET007CIGE025
0061106190999991972022416004+49650+007250FM-15+0429EDEK V0200701N00361007501CN0037001N9+00501+00201999999ADDGA1081+007509059MA1101491999999MW1441REMMET012CIGE025/LAST
0094106190999991972022506004+49650+007250FM-15+0429EDEK V0209991V00101000601CN0004001N9+00101+00101999999ADDGA1091+000609999GF109991999999999999999999MA1101251999999MW1451REMMET019CIGW002/90500/FIRST
0082106190999991972022507004+49650+007250FM-15+0429EDEK V0209991V00151000601CN0004001N9+00101+00101999999ADDGA1091+000609999GF109991999999999999999999MA1101251999999MW1451REMMET007CIGW002
0082106190999991972022508004+49650+007250FM-15+0429EDEK V0200401N00211000301CN0002001N9+00101+00101999999ADDGA1091+000309999GF109991999999999999999999MA1101251999999MW1471REMMET007CIGW001
0082106190999991972022509004+49650+007250FM-15+0429EDEK V0200501N00261000601CN0004001N9+00101+00101999999ADDGA1091+000609999GF109991999999999999999999MA1101251999999MW1431REMMET007CIGW002
0082106190999991972022510004+49650+007250FM-15+0429EDEK V0200401N00211001201CN0011001N9+00201+00101999999ADDGA1091+001209999GF109991999999999999999999MA1101321999999MW1431REMMET007CIGW004
0072106190999991972022511004+49650+007250FM-15+0429EDEK V0200301N00261001201BN0017001N9+00201+00101999999ADDGA1041+000159999GA2081+001209079MA1101351999999MW1421REMMET007CIGB004
0080106190999991972022512004+49650+007250FM-15+0429EDEK V0209991V001510600019N0032001N9+00301+00101999999ADDGA1041+001509079GA2061+060009029MA1101251999999MW1421REMMET015CIG200/HZ PRSNT
0054106190999991972022513004+49650+007250FM-15+0429EDEK V0209991V00151220001CN0070001N9+00601+00301999999ADDGA1051+060009029MA1101221999999MW1061REMMET005CIGNO
0040106190999991972022514004+49650+007250FM-15+0429EDEK V0209991V00211220001CN0070001N9+00901+00601999999ADDGA1041+060009029MA1101151999999MW1061
0055106190999991972022515004+49650+007250FM-15+0429EDEK V0209991V00211060001CN0070001N9+00901+00601999999ADDGA1061+060009029MA1101151999999MW1061REMMET006CIG200
0060106190999991972022516004+49650+007250FM-15+0429EDEK V0209991V00051060001CN0070001N9+00801+00501999999ADDGA1061+060009029MA1101151999999MW1061REMMET011CIG200/LAST
0100106190999991972022806004+49650+007250FM-15+0429EDEK V0209991C00001002101EN0015001N9+00201+00001999999ADDGA1021+000159999GA2041+002109079GA3081+004509079MA1101391999999MW1441REMMET019CIGE007/90500/FIRST
0072106190999991972022807004+49650+007250FM-15+0429EDEK V0209991V00101002101BN0013001N9+00201+00001999999ADDGA1021+000159999GA2081+002109079MA1101391999999MW1461REMMET007CIGB007
0072106190999991972022808004+49650+007250FM-15+0429EDEK V0209991C00001002101BN0015001N9+00201+00001999999ADDGA1021+000159999GA2081+002109079MA1101461999999MW1421REMMET007CIGB007
0072106190999991972022809004+49650+007250FM-15+0429EDEK V0200201N00151002101BN0015001N9+00301+00101999999ADDGA1021+000159999GA2081+002109079MA1101461999999MW1441REMMET007CIGB007
0072106190999991972022810004+49650+007250FM-15+0429EDEK V0200601N00101002101BN0017001N9+00301+00101999999ADDGA1021+000159999GA2081+002109079MA1101461999999MW1421REMMET007CIGB007
0072106190999991972022811004+49650+007250FM-15+0429EDEK V0209991V00101002101BN0017001N9+00301+00101999999ADDGA1021+000159999GA2081+002109079MA1101491999999MW1441REMMET007CIGB007
0072106190999991972022812004+49650+007250FM-15+0429EDEK V0209991V00101002401BN0017001N9+00401+00201999999ADDGA1021+000159999GA2081+002409079MA1101461999999MW1441REMMET007CIGB008
0072106190999991972022813004+49650+007250FM-15+0429EDEK V0209991V00101003001BN0022001N9+00501+00201999999ADDGA1051+003009079GA2061+007509059MA1101461999999MW1421REMMET007CIGB010
0071106190999991972022814004+49650+007250FM-15+0429EDEK V0209991V001510600019N0032001N9+00501+00201999999ADDGA1031+003009079GA2071+060009009MA1101461999999MW1061REMMET006CIG200
0071106190999991972022815004+49650+007250FM-15+0429EDEK V0209991V001510600019N0032001N9+00501+00201999999ADDGA1021+004509079GA2051+060009009MA1101461999999MW1061REMMET006CIG200
0060106190999991972022816004+49650+007250FM-15+0429EDEK V0209991V00101060001CN0032001N9+00501+00201999999ADDGA1071+060009009MA1101461999999MW1061REMMET011CIG200/LAST
0067106190999991972022906004+49650+007250FM-15+0429EDEK V0209991C00001010501CN0011001N9+00001-00101999999ADDGA1071+010509059MA1101561999999MW1441REMMET018CIG035/90504/FIRST
0055106190999991972022907004+49650+007250FM-15+0429EDEK V0209991C00001010501CN0011001N9+00001-00101999999ADDGA1071+010509059MA1101591999999MW1441REMMET006CIG035
0071106190999991972022908004+49650+007250FM-15+0429EDEK V0209991C000010600019N0011001N9+00101+00001999999ADDGA1031+010509059GA2081+060009029MA1101591999999MW1441REMMET006CIG200
0071106190999991972022909004+49650+007250FM-15+0429EDEK V0209991C000010600019N0015001N9+00301+00101999999ADDGA1021+030009039GA2081+060009029MA1101591999999MW1421REMMET006CIG200
0071106190999991972022910004+49650+007250FM-15+0429EDEK V0209991C000010360019N0020001N9+00501+00301999999ADDGA1051+036009039GA2071+060009029MA1101591999999MW1421REMMET006CIG120
0087106190999991972022911004+49650+007250FM-15+0429EDEK V0209991C000010360019N0024001N9+00501+00301999999ADDGA1011+007509089GA2051+036009039GA3081+060009029MA1101561999999MW1421REMMET006CIG120
0087106190999991972022912004+49650+007250FM-15+0429EDEK V0209991C000010360019N0037001N9+00701+00301999999ADDGA1011+007509089GA2051+036009039GA3081+060009029MA1101561999999MW1061REMMET006CIG120
0087106190999991972022913004+49650+007250FM-15+0429EDEK V0209991V001010360019N0037001N9+00801+00401999999ADDGA1021+007509089GA2041+036009039GA3081+060009029MA1101461999999MW1061REMMET006CIG120
0087106190999991972022914004+49650+007250FM-15+0429EDEK V0201101N001010360019N0037001N9+00701+00401999999ADDGA1031+009009059GA2041+036009039GA3081+060009029MA1101461999999MW1061REMMET006CIG120
0087106190999991972022915004+49650+007250FM-15+0429EDEK V0201001N000510105019N0037001N9+00701+00401999999ADDGA1061+010509059GA2041+036009039GA3081+060009029MA1101421999999MW1061REMMET006CIG035
0076106190999991972022916004+49650+007250FM-15+0429EDEK V0201201N001010105019N0037001N9+00701+00401999999ADDGA1061+010509059GA2081+024009049MA1101421999999MW1061REMMET011CIG035/LAST
0094106190999991972030106004+49650+007250FM-15+0429EDEK V0209991C00001000301CN0002001N9-00301-00301999999ADDGA1091+000309999GF109991999999999999999999MA1101291999999MW1491REMMET019CIGW001/90500/FIRST
0081106190999991972030107004+49650+007250FM-15+0429EDEK V0209991C00001220001WN0013001N9-00301-00301999999ADDGA1021+000159999GA2031+060009009MA1101321999999MW1481REMMET016CIGNO/VIS SW 0.4
0056106190999991972030108004+49650+007250FM-15+0429EDEK V0209991C00001220001WN0013001N9+00001-00201999999ADDGA1011+000159999GA2031+060009009MA1101351999999MW1441
0056106190999991972030109004+49650+007250FM-15+0429EDEK V0209991C00001220001WN0013001N9+00301+00001999999ADDGA1011+000159999GA2031+060009009MA1101351999999MW1441
0057106190999991972030110004+49650+007250FM-15+0429EDEK V0209991C00001220001CN0034001N9+00401+00201999999ADDGA1031+060009009MA1101351999999MW1421REMMET008HZ PRSNT
0040106190999991972030111004+49650+007250FM-15+0429EDEK V0201301N00361220001CN0047001N9+00901+00701999999ADDGA1021+060009009MA1101351999999MW1061
0040106190999991972030112004+49650+007250FM-15+0429EDEK V0201301N00311220001CN0060001N9+00901+00701999999ADDGA1021+060009009MA1101291999999MW1061
0056106190999991972030113004+49650+007250FM-15+0429EDEK V0201401N00211220001CN0070001N9+00901+00601999999ADDGA1011+010509089GA2021+060009009MA1101251999999MW1061
0040106190999991972030114004+49650+007250FM-15+0429EDEK V0201001N00211220001CN0070001N9+01001+00701999999ADDGA1021+009009089MA1101251999999MW1061
0056106190999991972030115004+49650+007250FM-15+0429EDEK V0200501N00311220001CN0070001N9+00901+00501999999ADDGA1021+009009089GA2021+060009009MA1101251999999MW1061
0056106190999991972030116004+49650+007250FM-15+0429EDEK V0200701N00211220001CN0070001N9+00901+00501999999ADDGA1011+009009089GA2021+060009009MA1101251999999MW1061
0087106190999991972030206004+49650+007250FM-15+0429EDEK V0202401N00151220001CN0060001N9-00301-00701999999ADDGA1021+027009039GA2021+060009009MA1101521999999MW1061REMMET022VIS SW 1.2/90504/FIRST
0075106190999991972030207004+49650+007250FM-15+0429EDEK V0209991C00001220001CN0060001N9-00201-00501999999ADDGA1011+027009039GA2031+060009009MA1101561999999MW1061REMMET010VIS SW 2.0
0059106190999991972030208004+49650+007250FM-15+0429EDEK V0209991C00001220001CN0060001N9+00001-00101999999ADDGA1031+060009009MA1101561999999MW1061REMMET010VIS SW 2.0
0040106190999991972030209004+49650+007250FM-15+0429EDEK V0209991C00001220001CN0070001N9+00301+00001999999ADDGA1031+060009009MA1101561999999MW1061
0040106190999991972030210004+49650+007250FM-15+0429EDEK V0209991C00001220001CN0070001N9+00601+00001999999ADDGA1031+060009009MA1101521999999MW1061
0040106190999991972030211004+49650+007250FM-15+0429EDEK V0209991V00101220001CN0070001N9+00701+00001999999ADDGA1031+060009009MA1101491999999MW1061
0040106190999991972030212004+49650+007250FM-15+0429EDEK V0209991V00151220001CN0070001N9+00801+00101999999ADDGA1031+060009009MA1101461999999MW1061
0056106190999991972030213004+49650+007250FM-15+0429EDEK V0209991V00211220001CN0100001N9+00801+00101999999ADDGA1011+006009089GA2021+060009009MA1101421999999MW1001
0056106190999991972030214004+49650+007250FM-15+0429EDEK V0209991V00211220001CN0100001N9+01001+00201999999ADDGA1011+006009089GA2031+060009009MA1101391999999MW1001
0056106190999991972030215004+49650+007250FM-15+0429EDEK V0209991V00261220001CN0100001N9+00901+00201999999ADDGA1011+006009089GA2031+060009009MA1101321999999MW1001
0040106190999991972030216004+49650+007250FM-15+0429EDEK V0201201N00411220001CN0100001N9+00901+00201999999ADDGA1021+060009009MA1101291999999MW1001
0060106190999991972030306004+49650+007250FM-15+0429EDEK V0209991C00001220001CN0090001N9-00301-00501999999ADDGA1021+060009009MA1100781999999MW1061REMMET01190504/FIRST
0040106190999991972030307004+49650+007250FM-15+0429EDEK V0209991C00001220001CN0090001N9-00301-00501999999ADDGA1021+060009009MA1100781999999MW1061
0024106190999991972030308004+49650+007250FM-15+0429EDEK V0209991C00001220001CN0090001N9-00201-00401999999ADDMA1100781999999MW1061
0040106190999991972030309004+49650+007250FM-15+0429EDEK V0209991C00001220001CN0090001N9+00101-00101999999ADDGA1011+060009009MA1100751999999MW1061
0040106190999991972030310004+49650+007250FM-15+0429EDEK V0209991C00001220001CN0090001N9+00401+00201999999ADDGA1011+060009009MA1100711999999MW1061
0054106190999991972030311004+49650+007250FM-15+0429EDEK V0209991C00001220001CN0060001N9+00601+00201999999ADDGA1061+060009009MA1100681999999MW1061REMMET005CIGNO
0054106190999991972030312004+49650+007250FM-15+0429EDEK V0201901N00461220001CN0060001N9+00601+00201999999ADDGA1071+060009009MA1100611999999MW1061REMMET005CIGNO
0054106190999991972030313004+49650+007250FM-15+0429EDEK V0202101N00571220001CN0070001N9+00701+00201999999ADDGA1061+060009009MA1100581999999MW1061REMMET005CIGNO
0084106190999991972030314004+49650+007250FM-15+0429EDEK V0202201N007210600019N0070001N9+00901+00301999999ADDGA1021+010509089GA2071+060009009MA1100471999999MW1061REMMET019CIG200/MDT CU ALQDS
0100106190999991972030315004+49650+007250FM-15+0429EDEK V0202201N007210300019N0070001N9+00801+00301999999ADDGA1021+010509089GA2051+030009039GA3081+060009029MA1100341999999MW1061REMMET019CIG100/MDT CU ALQDS
0105106190999991972030316004+49650+007250FM-15+0429EDEK V0202101N005110300019N0070001N9+00801+00301999999ADDGA1011+004509079GA2031+009009089GA3081+030009049MA1100341999999MW1061REMMET024CIG100/MDT CU ALQDS/LAST
0092106190999991972030606004+49650+007250FM-15+0429EDEK V0202301N005110090019N0037001N9+00201+00101999999ADDGA1061+009009059GA2041+024009039MA1099631999999MW1501REMMET027CIG030/FG PRSNT/90501/FIRST
0076106190999991972030607004+49650+007250FM-15+0429EDEK V0202401N006210090019N0028001N9+00201+00101999999ADDGA1031+003609079GA2061+009009059MA1099631999999MW1461REMMET011CIG030/REDZ
0071106190999991972030608004+49650+007250FM-15+0429EDEK V0202301N004610090019N0047001N9+00201+00101999999ADDGA1021+003609079GA2081+009009059MA1099661999999MW1421REMMET006CIG030
0071106190999991972030609004+49650+007250FM-15+0429EDEK V0202401N004610090019N0100001N9+00301+00101999999ADDGA1031+002409079GA2051+009009059MA1099661999999MW1001REMMET006CIG030
0071106190999991972030610004+49650+007250FM-15+0429EDEK V0202101N005110090019N0100001N9+00401+00201999999ADDGA1031+002409079GA2061+009009059MA1099661999999MW1001REMMET006CIG030
0087106190999991972030611004+49650+007250FM-15+0429EDEK V0202301N006210090019N0100001N9+00401+00201999999ADDGA1021+002409079GA2051+009009059GA3041+060009009MA1099631999999MW1001REMMET006CIG030
0070106190999991972030612004+49650+007250FM-15+0429EDEK V0202001N009312200019N0100001N9+00701+00301999999ADDGA1031+007509089GA2061+060009009MA1099491999999MW1001REMMET005CIGNO
0070106190999991972030613004+49650+007250FM-15+0429EDEK V0201901N006212200019N0100001N9+00701+00301999999ADDGA1021+009009089GA2061+060009009MA1099461999999MW1001REMMET005CIGNO
0087106190999991972030614004+49650+007250FM-15+0429EDEK V0201801N008210600019N0100001N9+00701+00201999999ADDGA1011+009009089GA2021+027009039GA3061+060009029MA1099321999999MW1001REMMET006CIG200
0071106190999991972030615004+49650+007250FM-15+0429EDEK V0201701N006210600019N0100001N9+00901+00201999999ADDGA1041+027009039GA2061+060009029MA1099221999999MW1001REMMET006CIG200
0076106190999991972030616004+49650+007250FM-15+0429EDEK V0201601N007710270019N0100001N9+00901+00201999999ADDGA1051+027009039GA2041+060009029MA1099121999999MW1001REMMET011CIG090/LAST
0099106190999991972030706004+49650+007250FM-15+0429EDEK V0202201N004110600019N0100001N9+00301+00001999999ADDGA1011+009009059GA2031+030009039GA3081+060009029MA1099661999999MW1001REMMET018CIG200/90502/FIRST
0087106190999991972030707004+49650+007250FM-15+0429EDEK V0202201N003610270019N0100001N9+00301+00001999999ADDGA1011+006009059GA2051+027009049GA3081+060009029MA1099731999999MW1001REMMET006CIG090
0096106190999991972030708004+49650+007250FM-15+0429EDEK V0202401N004610270019N0100001N9+00401+00101999999ADDGA1021+006009059GA2061+027009049GA3071+060009029MA1099701999999MW1001REMMET015CIG090/BINOVC W
0076106190999991972030709004+49650+007250FM-15+0429EDEK V0202201N005110270019N0100001N9+00401+00101999999ADDGA1021+006009059GA2081+027009049MA1099761999999MW1001REMMET011CIG090/RERA
0087106190999991972030710004+49650+007250FM-15+0429EDEK V0202101N005110270019N0100001N9+00501+00201999999ADDGA1011+003609059GA2021+006009059GA3081+027009049MA1099801999999MW1001REMMET006CIG090
0100106190999991972030711004+49650+007250FM-15+0429EDEK V0202101N004610270019N0100001N9+00701+00201999999ADDGA1011+003609059GA2031+006009059GA3081+027009049MA1099831999999MW1001REMMET019CIG090/OCNL CIGE020
0100106190999991972030712004+49650+007250FM-15+0429EDEK V0202201N005110270019N0100001N9+00701+00201999999ADDGA1011+003609059GA2031+006009059GA3081+027009049MA1099801999999MW1001REMMET019CIG090/OCNL CIGE020
0095106190999991972030713004+49650+007250FM-15+0429EDEK V0202101N006210090019N0100001N9+00701+00201999999ADDGA1011+004509059GA2051+009009059GA3061+027009049MA1099801999999MW1001REMMET014CIG030/RASHU S
0087106190999991972030714004+49650+007250FM-15+0429EDEK V0202001N004110090019N0100001N9+00701+00201999999ADDGA1021+004509059GA2051+009009059GA3041+027009049MA1099861999999MW1001REMMET006CIG030
0082106190999991972030715004+49650+007250FM-15+0429EDEK V0202001N005110090019N0100001N9+00601+00201999999ADDGA1061+009009059GA2031+027009039MA1099901999999MW1001REMMET017CIG030/RASHU SW-W
0092106190999991972030716004+49650+007250FM-15+0429EDEK V0201601N006210270019N0100001N9+00701+00201999999ADDGA1041+009009059GA2031+027009039GA3041+060009009MA1099901999999MW1001REMMET011CIG090/LAST
0060106190999991972030806004+49650+007250FM-15+0429EDEK V0209991C00001220001CN0100001N9+00001-00101999999ADDGA1041+009009059MA1100371999999MW1001REMMET01190504/FIRST
0040106190999991972030807004+49650+007250FM-15+0429EDEK V0209991C00001220001CN0100001N9-00101-00201999999ADDGA1041+010509059MA1100411999999MW1001
0070106190999991972030808004+49650+007250FM-15+0429EDEK V0209991C000012200019N0100001N9+00201+00001999999ADDGA1011+010509059GA2061+060009009MA1100411999999MW1001REMMET005CIGNO
0070106190999991972030809004+49650+007250FM-15+0429EDEK V0209991C000012200019N0100001N9+00301+00001999999ADDGA1011+010509059GA2061+060009009MA1100441999999MW1001REMMET005CIGNO
0070106190999991972030810004+49650+007250FM-15+0429EDEK V0209991C000012200019N0100001N9+00701+00301999999ADDGA1011+007509089GA2061+060009009MA1100471999999MW1001REMMET005CIGNO
0071106190999991972030811004+49650+007250FM-15+0429EDEK V0209991V000510600019N0100001N9+00801+00301999999ADDGA1011+009009089GA2071+060009009MA1100471999999MW1001REMMET006CIG200
0071106190999991972030812004+49650+007250FM-15+0429EDEK V0209991V002110600019N0100001N9+00901+00301999999ADDGA1011+009009089GA2071+060009029MA1100471999999MW1001REMMET006CIG200
0071106190999991972030813004+49650+007250FM-15+0429EDEK V0209991V001010600019N0100001N9+00901+00301999999ADDGA1011+009009089GA2071+060009029MA1100471999999MW1001REMMET006CIG200
0078106190999991972030814004+49650+007250FM-15+0429EDEK V0209991V001010600019N0100001N9+00901+00301999999ADDGA1031+009009089GA2071+060009029MA1100471999999MW1001REMMET013CIG200/TCU SW
0078106190999991972030815004+49650+007250FM-15+0429EDEK V0209991V001010600019N0100001N9+00901+00301999999ADDGA1031+009009089GA2081+060009029MA1100471999999MW1001REMMET013CIG200/TCU SW
0076106190999991972030816004+49650+007250FM-15+0429EDEK V0209991V001510600019N0100001N9+00901+00301999999ADDGA1031+009009089GA2081+060009029MA1100471999999MW1001REMMET011CIG200/LAST
0083106190999991972030906004+49650+007250FM-15+0429EDEK V0209991C000010105019N0100001N9-00101-00201999999ADDGA1051+009009059GA2051+060009009MA1100751999999MW1001REMMET018CIG035/90504/FIRST
0040106190999991972030907004+49650+007250FM-15+0429EDEK V0209991C00001220001CN0100001N9+00201+00001999999ADDGA1031+009009059MA1100781999999MW1001
0040106190999991972030908004+49650+007250FM-15+0429EDEK V0209991C00001220001CN0100001N9+00401+00101999999ADDGA1011+009009059MA1100781999999MW1001
0040106190999991972030909004+49650+007250FM-15+0429EDEK V0209991C00001220001CN0100001N9+00701+00201999999ADDGA1011+030009039MA1100781999999MW1001
0040106190999991972030910004+49650+007250FM-15+0429EDEK V0209991V00261220001CN0100001N9+00801+00301999999ADDGA1011+009009089MA1100751999999MW1001
0040106190999991972030911004+49650+007250FM-15+0429EDEK V0201101N00361220001CN0100001N9+00901+00301999999ADDGA1011+009009089MA1100711999999MW1001
0040106190999991972030912004+49650+007250FM-15+0429EDEK V0201001N00361220001CN0100001N9+01001+00301999999ADDGA1021+009009089MA1100681999999MW1001
0061106190999991972030913004+49650+007250FM-15+0429EDEK V0209991V00211220001CN0100001N9+01101+00301999999ADDGA1031+009009089MA1100681999999MW1001REMMET012MDT CU ALQDS
0078106190999991972030914004+49650+007250FM-15+0429EDEK V0200901N002612200019N0100001N9+01101+00301999999ADDGA1031+009009089GA2031+060009029MA1100681999999MW1001REMMET013CIGNO/TCU E-S
0070106190999991972030915004+49650+007250FM-15+0429EDEK V0200401N002612200019N0100001N9+00901+00301999999ADDGA1031+009009089GA2041+060009029MA1100611999999MW1001REMMET005CIGNO
0075106190999991972030916004+49650+007250FM-15+0429EDEK V0200901N003112200019N0100001N9+00801+00301999999ADDGA1021+009009089GA2051+060009029MA1100581999999MW1001REMMET010CIGNO/LAST
0083106190999991972031006004+49650+007250FM-15+0429EDEK V0209991V001510240019N0060001N9+00401+00201999999ADDGA1021+009009059GA2081+024009049MA1100581999999MW1061REMMET018CIG080/90501/FIRST
0080106190999991972031007004+49650+007250FM-15+0429EDEK V0200301N003610090019N0037001N9+00301+00201999999ADDGA1051+009009059GA2081+024009049MA1100541999999MW1511REMMET015CIG030/FG PRSNT
0097106190999991972031008004+49650+007250FM-15+0429EDEK V0200301N00361006001EN0018001N9+00201+00201999999ADDGA1031+003609079GA2061+006009059GA3081+018009049MA1100541999999MW1611REMMET016CIGE020/FG PRSNT
0081106190999991972031009004+49650+007250FM-15+0429EDEK V0200301N00411006001EN0015001N9+00201+00201999999ADDGA1041+002409079GA2081+006009059MA1100611999999MW1611REMMET016CIGE020/FG PRSNT
0081106190999991972031010004+49650+007250FM-15+0429EDEK V0200301N00311006001EN0017001N9+00201+00201999999ADDGA1031+002409079GA2081+006009059MA1100641999999MW1611REMMET016CIGE020/FG PRSNT
0097106190999991972031011004+49650+007250FM-15+0429EDEK V0200301N00621006001EN0020001N9+00301+00201999999ADDGA1021+002409079GA2051+006009059GA3081+015009049MA1100641999999MW1611REMMET016CIGE020/FG PRSNT
0097106190999991972031012004+49650+007250FM-15+0429EDEK V0200301N00461006001EN0026001N9+00301+00201999999ADDGA1021+001809079GA2051+006009059GA3081+015009049MA1100611999999MW1601REMMET016CIGE020/FG PRSNT
0107106190999991972031013004+49650+007250FM-15+0429EDEK V0200301N005110150019N0047001N9+00301+00201999999ADDGA1021+002409079GA2021+006009059GA3081+015009049MA1100581999999MW1601REMMET026CIG050/RA VRY LGT/FG PRSNT
0117106190999991972031014004+49650+007250FM-15+0429EDEK V0200201N006210150019N0040001N9+00301+00201999999ADDGA1021+002409079GA2021+006009059GA3081+015009049MA1100581999999MW1601REMMET036CIG050/RA VRY LGT OCNLY LGT/FG PRSNT
0092106190999991972031015004+49650+007250FM-15+0429EDEK V0200301N005710150019N0047001N9+00301+00201999999ADDGA1031+003009079GA2021+006009059GA3081+015009049MA1100581999999MW1421REMMET011CIG050/RERA
0092106190999991972031016004+49650+007250FM-15+0429EDEK V0200401N004110180019N0047001N9+00301+00201999999ADDGA1011+003009079GA2031+006009059GA3081+018009049MA1100581999999MW1441REMMET011CIG060/LAST
0076106190999991972031306004+49650+007250FM-15+0429EDEK V0200601N00151220001CN0100001N9-00401-00701999999ADDGA1011+030009039GA2031+060009009MA1101731999999MW1001REMMET01190505/FIRST
0040106190999991972031307004+49650+007250FM-15+0429EDEK V0200501N00311220001CN0100001N9-00301-00701999999ADDGA1031+060009009MA1101731999999MW1001
0040106190999991972031308004+49650+007250FM-15+0429EDEK V0200701N00411220001CN0100001N9+00101-00201999999ADDGA1021+060009009MA1101761999999MW1001
0040106190999991972031309004+49650+007250FM-15+0429EDEK V0201001N00511220001CN0100001N9+00201-00201999999ADDGA1021+060009009MA1101761999999MW1001
0040106190999991972031310004+49650+007250FM-15+0429EDEK V0201101N00411220001CN0100001N9+00201-00201999999ADDGA1031+060009009MA1101761999999MW1001
0040106190999991972031311004+49650+007250FM-15+0429EDEK V0201101N00461220001CN0100001N9+00301-00301999999ADDGA1041+060009009MA1101761999999MW1001
0054106190999991972031312004+49650+007250FM-15+0429EDEK V0201101N00411220001CN0100001N9+00301-00301999999ADDGA1051+060009009MA1101731999999MW1001REMMET005CIGNO
0066106190999991972031313004+49650+007250FM-15+0429EDEK V0209991V00411220001CN0100001N9+00301-00301999999ADDGA1061+060009009MA1101691999999MW1001REMMET017CIGNO/WND 070V160
0054106190999991972031314004+49650+007250FM-15+0429EDEK V0209991V00211220001CN0100001N9+00601-00201999999ADDGA1061+060009009MA1101661999999MW1001REMMET005CIGNO
0054106190999991972031315004+49650+007250FM-15+0429EDEK V0209991V00151220001CN0100001N9+00601-00101999999ADDGA1051+060009029MA1101661999999MW1001REMMET005CIGNO
0040106190999991972031316004+49650+007250FM-15+0429EDEK V0209991V00211220001CN0100001N9+00601+00001999999ADDGA1041+060009029MA1101661999999MW1001
0060106190999991972031406004+49650+007250FM-15+0429EDEK V0209991C00001220001CN0090001N9-00201-00301999999ADDGA1011+030009039MA1101931999999MW1061REMMET01190500/FIRST
0040106190999991972031407004+49650+007250FM-15+0429EDEK V0209991C00001220001CN0100001N9+00201-00101999999ADDGA1021+030009039MA1101931999999MW1001
0071106190999991972031408004+49650+007250FM-15+0429EDEK V0209991C000010300019N0100001N9+00201-00101999999ADDGA1011+009009089GA2071+030009039MA1102001999999MW1001REMMET006CIG100
0071106190999991972031409004+49650+007250FM-15+0429EDEK V0209991C000010240019N0090001N9+00501+00201999999ADDGA1011+009009089GA2071+024009039MA1102071999999MW1061REMMET006CIG080
0087106190999991972031410004+49650+007250FM-15+0429EDEK V0209991C000010240019N0090001N9+00701+00201999999ADDGA1011+009009089GA2051+024009039GA3081+060009029MA1102071999999MW1061REMMET006CIG080
0056106190999991972031411004+49650+007250FM-15+0429EDEK V0209991V001512200019N0100001N9+01101+00301999999ADDGA1011+009009089GA2031+060009029MA1102031999999MW1001
0040106190999991972031412004+49650+007250FM-15+0429EDEK V0202501N00511220001CN0100001N9+01301+00401999999ADDGA1011+024009039MA1101961999999MW1001
0040106190999991972031413004+49650+007250FM-15+0429EDEK V0202501N00411220001CN0100001N9+01401+00301999999ADDGA1011+024009039MA1101901999999MW1001
0040106190999991972031414004+49650+007250FM-15+0429EDEK V0202501N00261220001CN0100001N9+01501+00301999999ADDGA1011+009009089MA1101901999999MW1001
0040106190999991972031415004+49650+007250FM-15+0429EDEK V0209991V00261220001CN0100001N9+01401+00301999999ADDGA1011+009009089MA1101861999999MW1001
0040106190999991972031416004+49650+007250FM-15+0429EDEK V0201701N00361220001CN0100001N9+01401+00301999999ADDGA1011+009009089MA1101861999999MW1001
0060106190999991972031506004+49650+007250FM-15+0429EDEK V0209991C00001220001CN0090001N9-00101-00301999999ADDGA1011+060009009MA1102031999999MW1061REMMET01190504/FIRST
0040106190999991972031507004+49650+007250FM-15+0429EDEK V0209991C00001220001CN0090001N9+00401+00101999999ADDGA1011+060009009MA1102031999999MW1061
0040106190999991972031508004+49650+007250FM-15+0429EDEK V0209991C00001220001CN0090001N9+00901+00201999999ADDGA1011+060009009MA1102131999999MW1061
0040106190999991972031509004+49650+007250FM-15+0429EDEK V0209991C00001220001CN0100001N9+00901+00201999999ADDGA1011+060009009MA1102131999999MW1001
0040106190999991972031510004+49650+007250FM-15+0429EDEK V0209991V00211220001CN0100001N9+01201+00301999999ADDGA1011+060009009MA1102131999999MW1001
0040106190999991972031511004+49650+007250FM-15+0429EDEK V0201101N00411220001CN0100001N9+01501+00301999999ADDGA1011+060009009MA1102131999999MW1001
0040106190999991972031512004+49650+007250FM-15+0429EDEK V0201201N00511220001CN0100001N9+01701+00701999999ADDGA1021+060009009MA1102131999999MW1001
0040106190999991972031513004+49650+007250FM-15+0429EDEK V0201101N00411220001CN0100001N9+01801+00601999999ADDGA1021+060009009MA1102131999999MW1001
0040106190999991972031514004+49650+007250FM-15+0429EDEK V0200901N00361220001CN0100001N9+01801+00601999999ADDGA1021+060009009MA1102101999999MW1001
0040106190999991972031515004+49650+007250FM-15+0429EDEK V0201201N00311220001CN0100001N9+01801+00601999999ADDGA1021+060009009MA1102031999999MW1001
0040106190999991972031516004+49650+007250FM-15+0429EDEK V0200801N00311220001CN0100001N9+01701+00601999999ADDGA1021+060009009MA1102031999999MW1001
0060106190999991972031606004+49650+007250FM-15+0429EDEK V0209991C00001220001CN0100001N9+00401+00101999999ADDGA1031+060009009MA1102171999999MW1001REMMET01190504/FIRST
0040106190999991972031607004+49650+007250FM-15+0429EDEK V0209991C00001220001CN0100001N9+00501+00101999999ADDGA1021+060009009MA1102171999999MW1001
0040106190999991972031608004+49650+007250FM-15+0429EDEK V0200301N00361220001CN0100001N9+00801+00001999999ADDGA1011+060009009MA1102201999999MW1001
0044106190999991972031609004+49650+007250FM-15+0429EDEK V0209991V00411220001CN0100001N9+01001+00101999999ADDMA1102301999999MW1001REMMET011WND 010V120
0041106190999991972031610004+49650+007250FM-15+0429EDEK V0209991V00211220001CN0100001N9+01101+00101999999ADDMA1102271999999MW1001REMMET008HZ PRSNT
0041106190999991972031611004+49650+007250FM-15+0429EDEK V0209991V00261220001CN0100001N9+01301+00201999999ADDMA1102241999999MW1001REMMET008HZ PRSNT
0024106190999991972031612004+49650+007250FM-15+0429EDEK V0209991V00211220001CN0100001N9+01301+00401999999ADDMA1102171999999MW1001
0024106190999991972031613004+49650+007250FM-15+0429EDEK V0201001N00511220001CN0100001N9+01401+00401999999ADDMA1102131999999MW1001
0044106190999991972031614004+49650+007250FM-15+0429EDEK V0209991V00511220001CN0100001N9+01501+00401999999ADDMA1102101999999MW1001REMMET011WND 030V110
0024106190999991972031615004+49650+007250FM-15+0429EDEK V0200801N00361220001CN0100001N9+01601+00401999999ADDMA1102071999999MW1001
0024106190999991972031616004+49650+007250FM-15+0429EDEK V0209991V00211220001CN0100001N9+01701+00401999999ADDMA1102031999999MW1001
0060106190999991972031706004+49650+007250FM-15+0429EDEK V0209991C00001220001CN0100001N9+00101-00201999999ADDGA1011+060009009MA1102131999999MW1001REMMET01190500/FIRST
0040106190999991972031707004+49650+007250FM-15+0429EDEK V0209991C00001220001CN0100001N9+00501+00101999999ADDGA1011+060009009MA1102131999999MW1001
0024106190999991972031708004+49650+007250FM-15+0429EDEK V0200401N00151220001CN0100001N9+00701+00101999999ADDMA1102131999999MW1001
0024106190999991972031709004+49650+007250FM-15+0429EDEK V0209991V00151220001CN0100001N9+00901+00101999999ADDMA1102131999999MW1001
0024106190999991972031710004+49650+007250FM-15+0429EDEK V0203501N00211220001CN0100001N9+01101+00201999999ADDMA1102131999999MW1001
0024106190999991972031711004+49650+007250FM-15+0429EDEK V0209991V00261220001CN0100001N9+01501+00201999999ADDMA1102101999999MW1001
0024106190999991972031712004+49650+007250FM-15+0429EDEK V0201001N00411220001CN0100001N9+01801+00201999999ADDMA1102101999999MW1001
0024106190999991972031713004+49650+007250FM-15+0429EDEK V0200701N00311220001CN0100001N9+01701+00201999999ADDMA1102101999999MW1001
0040106190999991972031714004+49650+007250FM-15+0429EDEK V0200801N00361220001CN0100001N9+01701+00201999999ADDGA1031+060009029MA1102071999999MW1001
0054106190999991972031715004+49650+007250FM-15+0429EDEK V0201001N00411220001CN0100001N9+01601+00201999999ADDGA1051+060009029MA1102031999999MW1001REMMET005CIGNO
0059106190999991972031716004+49650+007250FM-15+0429EDEK V0200801N00361220001CN0100001N9+01601+00201999999ADDGA1051+060009029MA1102031999999MW1001REMMET010CIGNO/LAST
0107106190999991972032006004+49650+007250FM-15+0429EDEK V0209991C000012200019N0100001N9+00301+00101999999ADDGA1011+010509089GA2021+030009039GA3041+060009009MA1101591999999MW1001REMMET026CIGNO/HZ PRSNT/90500/FIRST
0079106190999991972032007004+49650+007250FM-15+0429EDEK V0209991C000012200019N0100001N9+00501+00101999999ADDGA1011+010509089GA2041+060009009MA1101631999999MW1001REMMET014CIGNO/HZ PRSNT
0057106190999991972032008004+49650+007250FM-15+0429EDEK V0209991C00001220001CN0100001N9+00801+00201999999ADDGA1021+060009029MA1101631999999MW1001REMMET008HZ PRSNT
0041106190999991972032009004+49650+007250FM-15+0429EDEK V0209991C00001220001CN0100001N9+01201+00201999999ADDMA1101661999999MW1001REMMET008HZ PRSNT
0024106190999991972032010004+49650+007250FM-15+0429EDEK V0209991C00001220001CN0100001N9+01501+00401999999ADDMA1101661999999MW1001
0056106190999991972032011004+49650+007250FM-15+0429EDEK V0209991V00151220001CN0100001N9+01701+00201999999ADDGA1011+009009089GA2011+060009009MA1101661999999MW1001
0056106190999991972032012004+49650+007250FM-15+0429EDEK V0209991V00211220001CN0100001N9+01801+00601999999ADDGA1011+009009089GA2011+060009009MA1101631999999MW1001
0083106190999991972032013004+49650+007250FM-15+0429EDEK V0209991V00411220001CN0100001N9+01901+00501999999ADDGA1021+009009089GA2011+060009009MA1101561999999MW1001REMMET018TCU NW/WND 080V170
0077106190999991972032014004+49650+007250FM-15+0429EDEK V0200801N00361220001CN0100001N9+01801+00501999999ADDGA1031+009009089GA2011+060009009MA1101561999999MW1001REMMET012MDT CU ALQDS
0058106190999991972032015004+49650+007250FM-15+0429EDEK V0200901N00101220001CN0100001N9+01901+00501999999ADDGA1031+009009089MA1101521999999MW1001REMMET009MDT CU NW
0056106190999991972032016004+49650+007250FM-15+0429EDEK V0200801N00361220001CN0100001N9+01901+00501999999ADDGA1021+009009089GA2011+030009039MA1101491999999MW1001
0107106190999991972032106004+49650+007250FM-15+0429EDEK V0209991C000012200019N0100001N9+00301+00101999999ADDGA1011+009009089GA2021+030009039GA3021+060009009MA1101731999999MW1001REMMET026CIGNO/HZ PRSNT/90500/FIRST
0079106190999991972032107004+49650+007250FM-15+0429EDEK V0209991C000012200019N0100001N9+00801+00501999999ADDGA1021+030009039GA2031+060009009MA1101801999999MW1001REMMET014CIGNO/HZ PRSNT
0057106190999991972032108004+49650+007250FM-15+0429EDEK V0209991C00001220001CN0100001N9+00901+00501999999ADDGA1031+060009009MA1101831999999MW1001REMMET008HZ PRSNT
0040106190999991972032109004+49650+007250FM-15+0429EDEK V0200301N00101220001CN0100001N9+01201+00501999999ADDGA1031+060009009MA1101861999999MW1001
0040106190999991972032110004+49650+007250FM-15+0429EDEK V0200401N00311220001CN0100001N9+01301+00601999999ADDGA1041+060009009MA1101861999999MW1001
0057106190999991972032111004+49650+007250FM-15+0429EDEK V0200601N00261220001CN0100001N9+01301+00601999999ADDGA1021+060009009MA1101861999999MW1001REMMET008HZ PRSNT
0057106190999991972032112004+49650+007250FM-15+0429EDEK V0200401N00361220001CN0100001N9+01501+00701999999ADDGA1011+009009089MA1101831999999MW1001REMMET008HZ PRSNT
0073106190999991972032113004+49650+007250FM-15+0429EDEK V0200501N00361220001CN0100001N9+01701+00801999999ADDGA1011+009009089GA2031+030009039MA1101801999999MW1001REMMET008HZ PRSNT
0073106190999991972032114004+49650+007250FM-15+0429EDEK V0200701N00411220001CN0100001N9+01701+00801999999ADDGA1011+010509089GA2031+030009039MA1101761999999MW1001REMMET008HZ PRSNT
0040106190999991972032115004+49650+007250FM-15+0429EDEK V0200601N00211220001CN0100001N9+01701+00701999999ADDGA1031+030009039MA1101731999999MW1001
0040106190999991972032116004+49650+007250FM-15+0429EDEK V0200601N00101220001CN0100001N9+01701+00601999999ADDGA1031+030009039MA1101691999999MW1001
0060106190999991972032206004+49650+007250FM-15+0429EDEK V0209991C00001220001CN0100001N9+00401+00101999999ADDGA1031+030009039MA1102031999999MW1001REMMET01190500/FIRST
0040106190999991972032207004+49650+007250FM-15+0429EDEK V0209991C00001220001CN0100001N9+00401+00101999999ADDGA1021+030009039MA1102031999999MW1001
0024106190999991972032208004+49650+007250FM-15+0429EDEK V0209991C00001220001CN0100001N9+00901+00301999999ADDMA1102071999999MW1001
0024106190999991972032209004+49650+007250FM-15+0429EDEK V0203401N00101220001CN0100001N9+01201+00301999999ADDMA1102131999999MW1001
0040106190999991972032210004+49650+007250FM-15+0429EDEK V0200501N00261220001CN0100001N9+01401+00301999999ADDGA1011+009009089MA1102131999999MW1001
0040106190999991972032211004+49650+007250FM-15+0429EDEK V0200801N00261220001CN0100001N9+01501+00301999999ADDGA1011+009009089MA1102131999999MW1001
0040106190999991972032212004+49650+007250FM-15+0429EDEK V0203301N00151220001CN0100001N9+01601+00301999999ADDGA1011+009009089MA1102131999999MW1001
0040106190999991972032213004+49650+007250FM-15+0429EDEK V0200201N00411220001CN0100001N9+01701+00301999999ADDGA1011+009009089MA1102071999999MW1001
0040106190999991972032214004+49650+007250FM-15+0429EDEK V0200701N00211220001CN0100001N9+01601+00301999999ADDGA1011+010509089MA1102031999999MW1001
0040106190999991972032215004+49650+007250FM-15+0429EDEK V0200601N00101220001CN0100001N9+01701+00301999999ADDGA1011+012009089MA1102031999999MW1001
0040106190999991972032216004+49650+007250FM-15+0429EDEK V0200401N00311220001CN0100001N9+01601+00301999999ADDGA1011+015009059MA1102001999999MW1001
0044106190999991972032306004+49650+007250FM-15+0429EDEK V0209991C00001220001CN0037001N9+00101-00101999999ADDMA1102001999999MW1441REMMET01190500/FIRST
0024106190999991972032307004+49650+007250FM-15+0429EDEK V0202101N00101220001CN0037001N9+00301+00101999999ADDMA1102031999999MW1441
0024106190999991972032308004+49650+007250FM-15+0429EDEK V0202201N00101220001CN0037001N9+00801+00501999999ADDMA1102031999999MW1441
0024106190999991972032309004+49650+007250FM-15+0429EDEK V0203401N00101220001CN0047001N9+01101+00501999999ADDMA1102101999999MW1061
0024106190999991972032310004+49650+007250FM-15+0429EDEK V0203101N00151220001CN0070001N9+01301+00501999999ADDMA1102101999999MW1061
0024106190999991972032311004+49650+007250FM-15+0429EDEK V0202701N00151220001CN0100001N9+01401+00401999999ADDMA1102071999999MW1001
0024106190999991972032312004+49650+007250FM-15+0429EDEK V0202801N00361220001CN0100001N9+01601+00401999999ADDMA1102001999999MW1001
0024106190999991972032313004+49650+007250FM-15+0429EDEK V0203401N00151220001CN0100001N9+01601+00401999999ADDMA1102001999999MW1001
0024106190999991972032314004+49650+007250FM-15+0429EDEK V0203401N00211220001CN0100001N9+01601+00401999999ADDMA1101931999999MW1001
0024106190999991972032315004+49650+007250FM-15+0429EDEK V0203601N00151220001CN0100001N9+01601+00401999999ADDMA1101861999999MW1001
0024106190999991972032316004+49650+007250FM-15+0429EDEK V0203201N00261220001CN0100001N9+01601+00401999999ADDMA1101831999999MW1001
0092106190999991972032406004+49650+007250FM-15+0429EDEK V0200401N004110270019N0100001N9+00201-00101999999ADDGA1031+006009059GA2041+027009039MA1102171999999MW1001REMMET027CIG090/HZ PRSNT/90500/FIRST
0056106190999991972032407004+49650+007250FM-15+0429EDEK V0200301N006212200019N0100001N9+00301+00101999999ADDGA1021+007509059GA2021+024009039MA1102271999999MW1001
0040106190999991972032408004+49650+007250FM-15+0429EDEK V0200501N00411220001CN0100001N9+00301+00101999999ADDGA1011+007509089MA1102301999999MW1001
0040106190999991972032409004+49650+007250FM-15+0429EDEK V0200501N00411220001CN0100001N9+00401+00201999999ADDGA1011+027009039MA1102341999999MW1001
0024106190999991972032410004+49650+007250FM-15+0429EDEK V0200501N00511220001CN0100001N9+00601+00201999999ADDMA1102341999999MW1001
0024106190999991972032411004+49650+007250FM-15+0429EDEK V0200501N00411220001CN0100001N9+00701+00201999999ADDMA1102341999999MW1001
0024106190999991972032412004+49650+007250FM-15+0429EDEK V0200401N00311220001CN0100001N9+00901+00301999999ADDMA1102341999999MW1001
0044106190999991972032413004+49650+007250FM-15+0429EDEK V0209991V00361220001CN0100001N9+01101+00401999999ADDMA1102271999999MW1001REMMET011WND 010V140
0044106190999991972032414004+49650+007250FM-15+0429EDEK V0209991V00361220001CN0100001N9+01201+00401999999ADDMA1102241999999MW1001REMMET011WND 360V130
0024106190999991972032415004+49650+007250FM-15+0429EDEK V0200601N00261220001CN0100001N9+01201+00401999999ADDMA1102171999999MW1001
0024106190999991972032416004+49650+007250FM-15+0429EDEK V0200301N00211220001CN0100001N9+01301+00301999999ADDMA1102171999999MW1001
0068106190999991972032706004+49650+007250FM-15+0429EDEK V0202501N00821002101CN0100001N9+00301+00201999999ADDGA1081+002109079MA1100341999999MW1611REMMET019CIGB007/90502/FIRST
