0060106330999991972010100004+50050+008333FM-15+0143EDOU V0209991V00771006001CN0100001N9+00301-00301999999ADDGA1081+006009059MA1102201999999REMMET017CIG20 WND 030V090
0060106330999991972010101004+50050+008333FM-15+0143EDOU V0209991V00771006001CN0100001N9+00301-00301999999ADDGA1081+006009059MA1102171999999REMMET017CIG20 WND 030V090
0060106330999991972010102004+50050+008333FM-15+0143EDOU V0209991V00671007501CN0100001N9+00301-00301999999ADDGA1081+007509059MA1102171999999REMMET017CIG25 WND 030V080
0076106330999991972010103004+50050+008333FM-15+0143EDOU V0209991V007212200019N0100001N9+00301-00301999999ADDGA1021+007509059GA2031+060009009MA1102171999999REMMET017CIGNO WND 040V100
0064106330999991972010104004+50050+008333FM-15+0143EDOU V0200701N005112200019N0100001N9+00301-00301999999ADDGA1031+007509059GA2051+060009029MA1102101999999REMMET005CIGNO
0064106330999991972010105004+50050+008333FM-15+0143EDOU V0200701N006212200019N0100001N9+00301-00301999999ADDGA1031+007509059GA2041+060009009MA1102071999999REMMET005CIGNO
0064106330999991972010106004+50050+008333FM-15+0143EDOU V0200701N006212200019N0100001N9+00301-00301999999ADDGA1031+010509059GA2031+060009009MA1102101999999REMMET005CIGNO
0065106330999991972010107004+50050+008333FM-15+0143EDOU V0200701N006210510019N0100001N9+00301-00301999999ADDGA1031+010509059GA2031+051009009MA1102101999999REMMET006CIG170
0065106330999991972010108004+50050+008333FM-15+0143EDOU V0200701N006710510019N0100001N9+00301-00301999999ADDGA1021+010509059GA2061+051009009MA1102101999999REMMET006CIG170
0064106330999991972010109004+50050+008333FM-15+0143EDOU V0200801N005712200019N0100001N9+00401-00301999999ADDGA1011+010509059GA2081+051009009MA1102171999999REMMET005CIGNO
0064106330999991972010110004+50050+008333FM-15+0143EDOU V0200801N006712200019N0100001N9+00401-00201999999ADDGA1021+010509059GA2081+051009029MA1102201999999REMMET005CIGNO
0064106330999991972010111004+50050+008333FM-15+0143EDOU V0200801N006212200019N0100001N9+00501-00201999999ADDGA1021+012009059GA2081+051009029MA1102171999999REMMET005CIGNO
0064106330999991972010112004+50050+008333FM-15+0143EDOU V0200801N006712200019N0100001N9+00501-00201999999ADDGA1011+012009059GA2081+051009029MA1102171999999REMMET005CIGNO
0065106330999991972010113004+50050+008333FM-15+0143EDOU V0200801N005110510019N0100001N9+00601-00201999999ADDGA1031+012009059GA2081+051009029MA1102131999999REMMET006CIG170
0065106330999991972010114004+50050+008333FM-15+0143EDOU V0200801N005110510019N0100001N9+00601-00201999999ADDGA1041+010509059GA2081+051009029MA1102131999999REMMET006CIG170
0086106330999991972010115004+50050+008333FM-15+0143EDOU V0200901N004110090019N0090001N9+00501-00201999999ADDGA1051+009009059GA2031+030009039GA3081+051009029MA1102171999999MW1061REMMET005CIG30
0098106330999991972010116004+50050+008333FM-15+0143EDOU V0200901N003610300019N0090001N9+00401-00201999999ADDGA1041+009009059GA2031+030009039GA3081+051009029MA1102201999999MW1061REMMET017CIG100 OCNL CIG30
0064106330999991972010117004+50050+008333FM-15+0143EDOU V0200901N003110090019N0100001N9+00401-00201999999ADDGA1051+009009059GA2031+030009039MA1102201999999REMMET005CIG30
0048106330999991972010118004+50050+008333FM-15+0143EDOU V0201001N00261007501CN0100001N9+00401-00201999999ADDGA1081+007509059MA1102241999999REMMET005CIG25
0065106330999991972010119004+50050+008333FM-15+0143EDOU V0200901N002110600019N0100001N9+00301-00201999999ADDGA1041+007509059GA2031+060009029MA1102241999999REMMET006CIG200
0076106330999991972010120004+50050+008333FM-15+0143EDOU V0200901N003110300019N0100001N9+00301-00201999999ADDGA1041+006309059GA2031+030009039MA1102241999999REMMET017CIG100 OCNL CIG21
0064106330999991972010121004+50050+008333FM-15+0143EDOU V0201001N003112200019N0100001N9+00101-00301999999ADDGA1011+007509059GA2071+060009009MA1102271999999REMMET005CIGNO
0048106330999991972010122004+50050+008333FM-15+0143EDOU V0201101N00311220001CN0100001N9+00201-00301999999ADDGA1071+060009009MA1102271999999REMMET005CIGNO
0048106330999991972010123004+50050+008333FM-15+0143EDOU V0200901N00311220001CN0100001N9+00101-00301999999ADDGA1071+060009009MA1102271999999REMMET005CIGNO
0034106330999991972010200004+50050+008333FM-15+0143EDOU V0200901N00261220001CN0100001N9+00101-00301999999ADDGA1031+060009009MA1102241999999
0034106330999991972010201004+50050+008333FM-15+0143EDOU V0200901N00311220001CN0100001N9+00101-00301999999ADDGA1031+060009009MA1102241999999
0048106330999991972010202004+50050+008333FM-15+0143EDOU V0200901N00311006001CN0100001N9+00001-00401999999ADDGA1071+006009059MA1102241999999REMMET005CIG20
0054106330999991972010203004+50050+008333FM-15+0143EDOU V0200801N00311005101CN0090001N9+00101-00301999999ADDGA1081+005109059MA1102241999999MW1061REMMET005CIG17
0054106330999991972010204004+50050+008333FM-15+0143EDOU V0200901N00311005401CN0090001N9+00101-00401999999ADDGA1061+005409059MA1102201999999MW1061REMMET005CIG18
0054106330999991972010205004+50050+008333FM-15+0143EDOU V0200801N00261008401CN0090001N9+00101-00401999999ADDGA1071+008409059MA1102201999999MW1061REMMET005CIG28
0048106330999991972010206004+50050+008333FM-15+0143EDOU V0200901N00311008401CN0100001N9+00101-00401999999ADDGA1071+008409059MA1102171999999REMMET005CIG28
0062106330999991972010207004+50050+008333FM-15+0143EDOU V0200901N00311003001CN0070001N9+00101-00401999999ADDGA1081+003009079MA1102171999999MW1061REMMET013CIG10 WET RWY
0062106330999991972010208004+50050+008333FM-15+0143EDOU V0200901N00571003301CN0070001N9+00101-00301999999ADDGA1081+003309079MA1102171999999MW1061REMMET013CIG11 WET RWY
0062106330999991972010209004+50050+008333FM-15+0143EDOU V0200901N00461003301CN0070001N9+00101-00301999999ADDGA1081+003309079MA1102171999999MW1061REMMET013CIG11 WET RWY
0062106330999991972010210004+50050+008333FM-15+0143EDOU V0201001N00261004201CN0060001N9+00201-00301999999ADDGA1081+004209079MA1102201999999MW1061REMMET013CIG14 WET RWY
0062106330999991972010211004+50050+008333FM-15+0143EDOU V0201001N00211004201CN0060001N9+00201-00301999999ADDGA1081+004209079MA1102131999999MW1061REMMET013CIG14 WET RWY
0062106330999991972010212004+50050+008333FM-15+0143EDOU V0201101N00361004801CN0070001N9+00201-00301999999ADDGA1081+004809079MA1102031999999MW1061REMMET013CIG16 WET RWY
0062106330999991972010213004+50050+008333FM-15+0143EDOU V0200901N00361004801CN0070001N9+00301-00301999999ADDGA1081+004809079MA1102001999999MW1061REMMET013CIG16 WET RWY
0062106330999991972010214004+50050+008333FM-15+0143EDOU V0201001N00261004801CN0070001N9+00301-00301999999ADDGA1081+004809079MA1101961999999MW1061REMMET013CIG16 WET RWY
0062106330999991972010215004+50050+008333FM-15+0143EDOU V0201101N00261004801CN0070001N9+00301-00301999999ADDGA1081+004809059MA1101931999999MW1061REMMET013CIG16 WET RWY
0062106330999991972010216004+50050+008333FM-15+0143EDOU V0200901N00311004801CN0060001N9+00201-00301999999ADDGA1081+004809059MA1101861999999MW1061REMMET013CIG16 WET RWY
0062106330999991972010217004+50050+008333FM-15+0143EDOU V0201001N00311004801CN0090001N9+00201-00301999999ADDGA1081+004809059MA1101801999999MW1061REMMET013CIG16 WET RWY
0062106330999991972010218004+50050+008333FM-15+0143EDOU V0200801N00461004801CN0090001N9+00201-00301999999ADDGA1081+004809059MA1101801999999MW1061REMMET013CIG16 WET RWY
0062106330999991972010219004+50050+008333FM-15+0143EDOU V0200801N00461004801CN0090001N9+00301-00301999999ADDGA1081+004809059MA1101731999999MW1061REMMET013CIG16 WET RWY
0056106330999991972010220004+50050+008333FM-15+0143EDOU V0200801N00621005701CN0100001N9+00301-00301999999ADDGA1081+005709059MA1101661999999REMMET013CIG19 WET RWY
0056106330999991972010221004+50050+008333FM-15+0143EDOU V0200701N00571006001CN0100001N9+00301-00301999999ADDGA1081+006009059MA1101661999999REMMET013CIG20 WET RWY
0056106330999991972010222004+50050+008333FM-15+0143EDOU V0200801N00511005401CN0100001N9+00301-00301999999ADDGA1081+005409059MA1101661999999REMMET013CIG18 WET RWY
0056106330999991972010223004+50050+008333FM-15+0143EDOU V0200701N00621004501CN0100001N9+00301-00301999999ADDGA1081+004509059MA1101631999999REMMET013CIG15 WET RWY
0056106330999991972010300004+50050+008333FM-15+0143EDOU V0200801N00621004501CN0100001N9+00301-00201999999ADDGA1081+004509059MA1101491999999REMMET013CIG15 WET RWY
0056106330999991972010301004+50050+008333FM-15+0143EDOU V0200901N00571004501CN0100001N9+00301-00301999999ADDGA1081+004509059MA1101521999999REMMET013CIG15 WET RWY
0056106330999991972010302004+50050+008333FM-15+0143EDOU V0200801N00511004501CN0100001N9+00301-00301999999ADDGA1081+004509059MA1101521999999REMMET013CIG15 WET RWY
0056106330999991972010303004+50050+008333FM-15+0143EDOU V0200801N00411004501CN0100001N9+00301-00301999999ADDGA1081+004509059MA1101521999999REMMET013CIG15 WET RWY
0056106330999991972010304004+50050+008333FM-15+0143EDOU V0200801N00411004501CN0100001N9+00301-00301999999ADDGA1081+004509059MA1101461999999REMMET013CIG15 WET RWY
0056106330999991972010305004+50050+008333FM-15+0143EDOU V0200801N00361004501CN0100001N9+00301-00301999999ADDGA1081+004509059MA1101421999999REMMET013CIG15 WET RWY
0056106330999991972010306004+50050+008333FM-15+0143EDOU V0200901N00311004501CN0100001N9+00301-00301999999ADDGA1081+004509059MA1101491999999REMMET013CIG15 WET RWY
0056106330999991972010307004+50050+008333FM-15+0143EDOU V0201301N00261004501CN0100001N9+00301-00301999999ADDGA1081+004509059MA1101491999999REMMET013CIG15 WET RWY
0062106330999991972010308004+50050+008333FM-15+0143EDOU V0201101N00261004501CN0090001N9+00301-00301999999ADDGA1081+004509059MA1101521999999MW1061REMMET013CIG15 WET RWY
0065106330999991972010309004+50050+008333FM-15+0143EDOU V0200901N00211004501CN0070001N9+00301-00301999999ADDGA1081+004509059MA1101521999999MW1061REMMET016CIG15 RCR NORMAL
0054106330999991972010310004+50050+008333FM-15+0143EDOU V0201601N00211004501CN0070001N9+00301-00301999999ADDGA1081+004509059MA1101591999999MW1061REMMET005CIG15
0054106330999991972010311004+50050+008333FM-15+0143EDOU V0200901N00151004801CN0070001N9+00301-00301999999ADDGA1081+004809059MA1101561999999MW1061REMMET005CIG16
0054106330999991972010312004+50050+008333FM-15+0143EDOU V0200701N00101004801CN0070001N9+00301-00301999999ADDGA1081+004809059MA1101491999999MW1061REMMET005CIG16
0054106330999991972010313004+50050+008333FM-15+0143EDOU V0209991V00051004801CN0060001N9+00301-00301999999ADDGA1081+004809059MA1101491999999MW1061REMMET005CIG16
0054106330999991972010314004+50050+008333FM-15+0143EDOU V0201801N00101005101CN0060001N9+00301-00301999999ADDGA1081+005109059MA1101561999999MW1061REMMET005CIG17
0054106330999991972010315004+50050+008333FM-15+0143EDOU V0201901N00211005101CN0060001N9+00301-00201999999ADDGA1081+005109059MA1101591999999MW1061REMMET005CIG17
0054106330999991972010316004+50050+008333FM-15+0143EDOU V0202101N00211005101CN0060001N9+00301-00201999999ADDGA1081+005109059MA1101631999999MW1061REMMET005CIG17
0054106330999991972010317004+50050+008333FM-15+0143EDOU V0201901N00151005101CN0060001N9+00301-00201999999ADDGA1081+005109059MA1101631999999MW1061REMMET005CIG17
0070106330999991972010318004+50050+008333FM-15+0143EDOU V0201801N001510045019N0070001N9+00301-00201999999ADDGA1051+004509059GA2031+006309059MA1101631999999MW1061REMMET005CIG15
0072106330999991972010319004+50050+008333FM-15+0143EDOU V0201901N00151005101CN0060001N9+00301-00201999999ADDGA1081+005109059MA1101661999999MW1061REMMET023CIG17 OCNL VRY LGT RASN
0054106330999991972010320004+50050+008333FM-15+0143EDOU V0201901N00101003901CN0060001N9+00301-00201999999ADDGA1081+003909079MA1101691999999MW1061REMMET005CIG13
0054106330999991972010321004+50050+008333FM-15+0143EDOU V0201801N00151004201CN0060001N9+00301-00201999999ADDGA1081+004209079MA1101731999999MW1061REMMET005CIG14
0070106330999991972010322004+50050+008333FM-15+0143EDOU V0201901N001510045019N0060001N9+00301-00201999999ADDGA1051+004209079GA2031+006309059MA1101731999999MW1061REMMET005CIG15
0064106330999991972010323004+50050+008333FM-15+0143EDOU V0209991V00151006301CN0100001N9+00301-00201999999ADDGA1081+006309059MA1101731999999REMMET021CIG21 VIS INCRG RPDLY
0070106330999991972010400004+50050+008333FM-15+0143EDOU V0201801N002610075019N0090001N9+00201-00201999999ADDGA1021+004509059GA2061+007509059MA1101761999999MW1061REMMET005CIG25
0079106330999991972010401004+50050+008333FM-15+0143EDOU V0201601N001510063019N0090001N9+00201-00201999999ADDGA1021+004509059GA2061+006309059MA1101761999999MW1061REMMET014CIG21 CLDS RGD
0070106330999991972010402004+50050+008333FM-15+0143EDOU V0201501N002110063019N0090001N9+00201-00201999999ADDGA1021+004509059GA2071+006309059MA1101761999999MW1061REMMET005CIG21
0079106330999991972010403004+50050+008333FM-15+0143EDOU V0209991V000510060019N0060001N9+00201-00201999999ADDGA1031+002109079GA2071+006009059MA1101801999999MW1061REMMET014CIG20 ST INCRG
0070106330999991972010404004+50050+008333FM-15+0143EDOU V0209991C000010069019N0060001N9+00201-00201999999ADDGA1031+002109079GA2071+006909059MA1101801999999MW1061REMMET005CIG23
0070106330999991972010405004+50050+008333FM-15+0143EDOU V0209991V000510069019N0070001N9+00201-00201999999ADDGA1021+002109079GA2071+006909059MA1101731999999MW1061REMMET005CIG23
0070106330999991972010406004+50050+008333FM-15+0143EDOU V0209991C000010060019N0070001N9+00301-00201999999ADDGA1011+002109079GA2071+006009059MA1101761999999MW1061REMMET005CIG20
0070106330999991972010407004+50050+008333FM-15+0143EDOU V0201701N001510060019N0070001N9+00201-00201999999ADDGA1011+002109079GA2061+006009059MA1101801999999MW1061REMMET005CIG20
0070106330999991972010408004+50050+008333FM-15+0143EDOU V0201701N003610060019N0060001N9+00201-00201999999ADDGA1011+002109079GA2051+006009059MA1101831999999MW1061REMMET005CIG20
0086106330999991972010409004+50050+008333FM-15+0143EDOU V0201701N002610045019N0060001N9+00201-00201999999ADDGA1011+001509079GA2081+004509059MA1101901999999MW1061REMMET021CIG15 OCNL VRY LGT RA
0087106330999991972010410004+50050+008333FM-15+0143EDOU V0201701N003110015019N0060001N9+00201-00101999999ADDGA1051+001509079GA2081+003609079MA1101901999999MW1681REMMET022CIG05 HZ PRSNT WET RWY
0106106330999991972010411004+50050+008333FM-15+0143EDOU V0201801N005110015019N0060001N9+00301-00101999999ADDGA1051+001509079GA2081+003609079MA1101861999999MW1611REMMET041CIG05 RGD VIS SW-NW 7000 HZ PRSNT WET RWY
0115106330999991972010412004+50050+008333FM-15+0143EDOU V0201901N003610030019N0070001N9+00301-00101999999ADDGA1021+001509079GA2051+003009079MA1101861999999MW1061REMMET050CIG10 RGD VIS INCRG SLOLY OCNL BINOVC OVHD WET RWY
0094106330999991972010413004+50050+008333FM-15+0143EDOU V0202001N003610069019N0090001N9+00301-00101999999ADDGA1041+003009079GA2081+006909059MA1101831999999MW1061REMMET029CIG23 OCNL VRY LGT RA WET RWY
0078106330999991972010414004+50050+008333FM-15+0143EDOU V0202201N003110063019N0090001N9+00301-00201999999ADDGA1031+003909079GA2081+006309059MA1101861999999MW1061REMMET013CIG21 WET RWY
0072106330999991972010415004+50050+008333FM-15+0143EDOU V0202101N002610063019N0100001N9+00301-00201999999ADDGA1061+006309059GA2041+018009039MA1101901999999REMMET013CIG21 WET RWY
0078106330999991972010416004+50050+008333FM-15+0143EDOU V0202001N002110060019N0090001N9+00301-00201999999ADDGA1061+006009059GA2041+018009039MA1102001999999MW1061REMMET013CIG20 WET RWY
0062106330999991972010417004+50050+008333FM-15+0143EDOU V0202001N00151006001CN0090001N9+00301-00201999999ADDGA1081+006009059MA1102001999999MW1061REMMET013CIG20 WET RWY
0078106330999991972010418004+50050+008333FM-15+0143EDOU V0201801N001010060019N0090001N9+00301-00201999999ADDGA1041+004509059GA2071+006009059MA1102031999999MW1061REMMET013CIG20 WET RWY
0078106330999991972010419004+50050+008333FM-15+0143EDOU V0201901N001010045019N0090001N9+00301-00201999999ADDGA1031+003609059GA2071+004509059MA1102071999999MW1061REMMET013CIG15 WET RWY
0078106330999991972010420004+50050+008333FM-15+0143EDOU V0201901N000510045019N0090001N9+00301-00201999999ADDGA1031+003609059GA2071+004509059MA1102101999999MW1061REMMET013CIG15 WET RWY
0078106330999991972010421004+50050+008333FM-15+0143EDOU V0201701N000510045019N0090001N9+00301-00101999999ADDGA1021+003609059GA2081+004509059MA1102101999999MW1061REMMET013CIG15 WET RWY
0094106330999991972010422004+50050+008333FM-15+0143EDOU V0201001N001010045019N0090001N9+00301-00101999999ADDGA1021+003609059GA2041+004509059GA3061+006609059MA1102131999999MW1061REMMET013CIG15 WET RWY
0094106330999991972010423004+50050+008333FM-15+0143EDOU V0201201N001010045019N0090001N9+00301-00101999999ADDGA1011+003609059GA2051+004509059GA3051+006609059MA1102131999999MW1061REMMET013CIG15 WET RWY
0078106330999991972010500004+50050+008333FM-15+0143EDOU V0201801N002610045019N0090001N9+00301-00101999999ADDGA1051+004509059GA2061+007509059MA1102171999999MW1061REMMET013CIG15 WET RWY
0078106330999991972010501004+50050+008333FM-15+0143EDOU V0209991V000510045019N0090001N9+00301-00101999999ADDGA1051+004509059GA2071+007509059MA1102171999999MW1061REMMET013CIG15 WET RWY
0078106330999991972010502004+50050+008333FM-15+0143EDOU V0200901N001010045019N0090001N9+00301-00101999999ADDGA1061+004509059GA2041+007509059MA1102171999999MW1061REMMET013CIG15 WET RWY
0078106330999991972010503004+50050+008333FM-15+0143EDOU V0209991C000010051019N0090001N9+00201-00101999999ADDGA1061+005109059GA2031+007509059MA1102171999999MW1061REMMET013CIG17 WET RWY
0062106330999991972010504004+50050+008333FM-15+0143EDOU V0209991C00001005101CN0090001N9+00201-00101999999ADDGA1081+005109059MA1102201999999MW1061REMMET013CIG17 WET RWY
0089106330999991972010505004+50050+008333FM-15+0143EDOU V0201101N001010051019N0090001N9+00201-00201999999ADDGA1051+005109059GA2031+007509059MA1102171999999MW1061REMMET024CIG17 OCNL CIG23 WET RWY
0105106330999991972010506004+50050+008333FM-15+0143EDOU V0201001N000510048019N0090001N9+00301-00201999999ADDGA1051+004809059GA2031+007509059MA1102171999999MW1061REMMET040CIG16 OCNL CIG23 OCNL VRY LGT RA WET RWY
0082106330999991972010507004+50050+008333FM-15+0143EDOU V0209991V002610048019N0070001N9+00201-00201999999ADDGA1011+002109079GA2061+004809059MA1102171999999MW1061REMMET017CIG16 RGD WET RWY
0078106330999991972010508004+50050+008333FM-15+0143EDOU V0201001N000510120019N0040001N9+00201-00201999999ADDGA1041+004809059GA2051+012009059MA1102241999999MW1061REMMET013CIG40 WET RWY
0062106330999991972010509004+50050+008333FM-15+0143EDOU V0201501N00101018001CN0040001N9+00301-00201999999ADDGA1081+018009049MA1102271999999MW1061REMMET013CIG60 WET RWY
0078106330999991972010510004+50050+008333FM-15+0143EDOU V0201401N001510180019N0037001N9+00301-00201999999ADDGA1031+015009059GA2061+018009049MA1102301999999MW1061REMMET013CIG60 WET RWY
0078106330999991972010511004+50050+008333FM-15+0143EDOU V0201401N002110150019N0037001N9+00401-00101999999ADDGA1041+003009079GA2051+015009059MA1102301999999MW1061REMMET013CIG50 WET RWY
0079106330999991972010512004+50050+008333FM-15+0143EDOU V0201301N001510300019N0037001N9+00401-00101999999ADDGA1011+003009079GA2071+030009039MA1102301999999MW1061REMMET014CIG100 WET RWY
0063106330999991972010513004+50050+008333FM-15+0143EDOU V0209991C00001030001CN0022001N9+00401-00101999999ADDGA1051+030009039MA1102241999999MW1061REMMET014CIG100 WET RWY
0063106330999991972010514004+50050+008333FM-15+0143EDOU V0209991C00001030001CN0026001N9+00401-00101999999ADDGA1051+030009039MA1102241999999MW1061REMMET014CIG100 WET RWY
0074106330999991972010515004+50050+008333FM-15+0143EDOU V0201001N00051030001CN0028001N9+00401-00101999999ADDGA1051+030009039MA1102201999999MW1061REMMET025CIG100 VIS W 3700 WET RWY
0067106330999991972010516004+50050+008333FM-15+0143EDOU V0209991C00001220001CN0030001N9+00301-00201999999ADDGA1021+015009059MA1102201999999MW1061REMMET018VIS W 3700 WET RWY
0056106330999991972010517004+50050+008333FM-15+0143EDOU V0209991C00001220001CN0060001N9+00101-00301999999ADDGA1011+015009059MA1102201999999MW1061REMMET007WET RWY
0056106330999991972010518004+50050+008333FM-15+0143EDOU V0209991C00001220001CN0060001N9+00101-00301999999ADDGA1021+015009059MA1102201999999MW1061REMMET007WET RWY
0078106330999991972010519004+50050+008333FM-15+0143EDOU V0200901N001510240019N0060001N9+00101-00301999999ADDGA1021+015009059GA2061+024009039MA1102201999999MW1061REMMET013CIG80 WET RWY
0062106330999991972010520004+50050+008333FM-15+0143EDOU V0200801N00211024001CN0047001N9+00101-00301999999ADDGA1071+024009039MA1102201999999MW1061REMMET013CIG80 WET RWY
0073106330999991972010521004+50050+008333FM-15+0143EDOU V0200801N00151021001CN0047001N9+00101-00301999999ADDGA1081+021009039MA1102201999999MW1061REMMET024CIG70 VIS E 7000 WET RWY
0062106330999991972010522004+50050+008333FM-15+0143EDOU V0200801N00151024001CN0040001N9+00101-00301999999ADDGA1081+024009039MA1102201999999MW1061REMMET013CIG80 WET RWY
0062106330999991972010523004+50050+008333FM-15+0143EDOU V0209991C00001024001CN0040001N9+00101-00301999999ADDGA1081+024009039MA1102201999999MW1061REMMET013CIG80 WET RWY
0062106330999991972010600004+50050+008333FM-15+0143EDOU V0200801N00261024001CN0037001N9+00101-00301999999ADDGA1071+024009039MA1102171999999MW1461REMMET013CIG80 WET RWY
0062106330999991972010601004+50050+008333FM-15+0143EDOU V0200801N00151024001CN0037001N9+00101-00301999999ADDGA1071+024009039MA1102171999999MW1441REMMET013CIG80 WET RWY
0078106330999991972010602004+50050+008333FM-15+0143EDOU V0200701N002610240019N0030001N9+00001-00301999999ADDGA1041+001509079GA2081+024009039MA1102171999999MW1441REMMET013CIG80 WET RWY
0078106330999991972010603004+50050+008333FM-15+0143EDOU V0200801N001010240019N0022001N9+00001-00301999999ADDGA1041+001509079GA2081+024009039MA1102131999999MW1441REMMET013CIG80 WET RWY
0087106330999991972010604004+50050+008333FM-15+0143EDOU V0200601N003110015019N0026001N9+00001-00301999999ADDGA1071+001509079GA2031+018009059MA1102131999999MW1421REMMET022CIG05 HZ PRSNT WET RWY
0071106330999991972010605004+50050+008333FM-15+0143EDOU V0200801N00261001501CN0020001N9+00001-00301999999ADDGA1081+001509079MA1102101999999MW1461REMMET022CIG05 HZ PRSNT WET RWY
0071106330999991972010606004+50050+008333FM-15+0143EDOU V0200701N00151001501CN0022001N9+00001-00301999999ADDGA1081+001509079MA1102101999999MW1421REMMET022CIG05 HZ PRSNT WET RWY
0083106330999991972010607004+50050+008333FM-15+0143EDOU V0200801N00261001501CN0022001N9+00101-00301999999ADDGA1081+001509079MA1102131999999MW1441REMMET034CIG05 VIS SW 2800 HZ PRSNT WET RWY
0099106330999991972010608004+50050+008333FM-15+0143EDOU V0200901N002610018019N0026001N9+00001-00401999999ADDGA1051+001809079GA2031+003609079MA1102171999999MW1441REMMET034CIG06 VIS SW 3400 HZ PRSNT WET RWY
0106106330999991972010609004+50050+008333FM-15+0143EDOU V0200801N002610300019N0034001N9+00001-00401999999ADDGA1021+001809079GA2051+030009039MA1102171999999MW1061REMMET041CIG100 VIS N 2600 E 3700 FG PRSNT WET RWY
0127106330999991972010610004+50050+008333FM-15+0143EDOU V0200801N003610018019N0026001N9+00101-00401999999ADDGA1061+001809079GA2061+030009039MA1102201999999MW1061REMMET062CIG06 PTLY THN/TK OFF EDAW UNK 12/VIS NW 3400 FG PRSNT WET RWY
0101106330999991972010611004+50050+008333FM-15+0143EDOU V0200701N003110300019N0026001N9+00101-00301999999ADDGA1031+002109079GA2041+030009039MA1102171999999MW1061REMMET036CIG100/1HZ// FG PRSNT WET RWY NORMAL
0104106330999991972010612004+50050+008333FM-15+0143EDOU V0200601N004610300019N0030001N9+00101-00301999999ADDGA1031+002109079GA2061+030009039MA1102071999999MW1061REMMET039CIG100/1HZ// VIS N 2600 W 3700 FG PRSNT
0097106330999991972010613004+50050+008333FM-15+0143EDOU V0200801N003612200019N0030001N9+00101-00401999999ADDGA1011+002109079GA2031+030009039MA1102031999999MW1061REMMET032CIGNO/1HZ// VIS NW 3700 FG PRSNT
0068106330999991972010614004+50050+008333FM-15+0143EDOU V0200801N00411220001CN0034001N9+00101-00401999999ADDGA1011+002109079MA1102031999999MW1061REMMET019VIS W 3700 FG PRSNT
0068106330999991972010615004+50050+008333FM-15+0143EDOU V0200801N00361220001CN0034001N9+00101-00401999999ADDGA1011+002109079MA1102031999999MW1061REMMET019VIS W 3700 FG PRSNT
0084106330999991972010616004+50050+008333FM-15+0143EDOU V0200801N00361220001CN0037001N9+00001-00401999999ADDGA1011+002109079GA2031+030009039MA1102071999999MW1061REMMET019VIS N 3400 FG PRSNT
0040106330999991972010617004+50050+008333FM-15+0143EDOU V0201001N00361220001CN0060001N9+00001-00401999999ADDGA1031+030009039MA1102071999999MW1061
0040106330999991972010618004+50050+008333FM-15+0143EDOU V0200801N00571220001CN0060001N9-00101-00501999999ADDGA1021+030009039MA1102071999999MW1061
0040106330999991972010619004+50050+008333FM-15+0143EDOU V0200701N00461220001CN0037001N9-00101-00401999999ADDGA1011+030009039MA1102071999999MW1061
0040106330999991972010620004+50050+008333FM-15+0143EDOU V0200901N00411220001CN0037001N9+00001-00401999999ADDGA1011+030009039MA1102071999999MW1061
0040106330999991972010621004+50050+008333FM-15+0143EDOU V0200801N00461220001CN0037001N9+00001-00401999999ADDGA1011+030009039MA1102101999999MW1061
0070106330999991972010622004+50050+008333FM-15+0143EDOU V0200901N004110033019N0037001N9+00001-00401999999ADDGA1071+003309079GA2031+024009039MA1102101999999MW1061REMMET005CIG11
0070106330999991972010623004+50050+008333FM-15+0143EDOU V0200901N005110033019N0048001N9+00101-00401999999ADDGA1061+003309079GA2051+006009059MA1102101999999MW1061REMMET005CIG11
0054106330999991972010700004+50050+008333FM-15+0143EDOU V0200901N00511003301CN0048001N9+00101-00301999999ADDGA1081+003309079MA1102101999999MW1061REMMET005CIG11
0063106330999991972010701004+50050+008333FM-15+0143EDOU V0200901N00621003301CN0048001N9+00001-00401999999ADDGA1081+003309079MA1102071999999MW1851REMMET014CIG11 HZ PRSNT
0054106330999991972010702004+50050+008333FM-15+0143EDOU V0200901N00621003601CN0070001N9+00101-00401999999ADDGA1081+003609079MA1102071999999MW1061REMMET005CIG12
0054106330999991972010703004+50050+008333FM-15+0143EDOU V0200901N00511003901CN0070001N9+00001-00401999999ADDGA1081+003909079MA1102071999999MW1061REMMET005CIG13
0060106330999991972010704004+50050+008333FM-15+0143EDOU V0200101N00571003601CN0070001N9+00001-00501999999ADDGA1081+003609079MA1102071999999MW1061REMMET011CIG12 IR16P
0060106330999991972010705004+50050+008333FM-15+0143EDOU V0201001N00511003601CN0070001N9+00001-00501999999ADDGA1081+003609079MA1102071999999MW1061REMMET011CIG12 IR16P
0060106330999991972010706004+50050+008333FM-15+0143EDOU V0200901N00461003601CN0070001N9+00001-00501999999ADDGA1081+003609079MA1102101999999MW1061REMMET011CIG12 IR16P
0069106330999991972010707004+50050+008333FM-15+0143EDOU V0200801N00411003601CN0070001N9+00001-00501999999ADDGA1081+003609079MA1102101999999MW1701REMMET020CIG12 HZ PRSNT IR16P
0060106330999991972010708004+50050+008333FM-15+0143EDOU V0200901N00511003601CN0070001N9+00001-00501999999ADDGA1081+003609079MA1102131999999MW1061REMMET011CIG12 IR19P
0060106330999991972010709004+50050+008333FM-15+0143EDOU V0201001N00621003901CN0070001N9+00101-00501999999ADDGA1071+003909079MA1102131999999MW1061REMMET011CIG13 IR19P
0040106330999991972010710004+50050+008333FM-15+0143EDOU V0200901N00461004501CN0060001N9+00101-00501999999ADDGA1071+004509059MA1102131999999MW1061
0060106330999991972010711004+50050+008333FM-15+0143EDOU V0200901N00411004201CN0060001N9+00101-00401999999ADDGA1071+004209059MA1102101999999MW1061REMMET011CIG14 IR19P
0071106330999991972010712004+50050+008333FM-15+0143EDOU V0200601N00361004201CN0060001N9+00101-00401999999ADDGA1081+004209059MA1102071999999MW1061REMMET022CIG14 VIS N 4700 IR19P
0083106330999991972010713004+50050+008333FM-15+0143EDOU V0200401N00361004801CN0070001N9+00101-00401999999ADDGA1081+004809059MA1102031999999MW1061REMMET034CIG16 CIG LFTG AND VIS INCRG IR19P
0060106330999991972010714004+50050+008333FM-15+0143EDOU V0200601N00361004501CN0070001N9+00101-00501999999ADDGA1081+004509059MA1102001999999MW1061REMMET011CIG15 IR16P
0060106330999991972010715004+50050+008333FM-15+0143EDOU V0200501N00311004801CN0070001N9+00101-00501999999ADDGA1081+004809059MA1102001999999MW1061REMMET011CIG16 IR16P
0060106330999991972010716004+50050+008333FM-15+0143EDOU V0200501N00261004801CN0070001N9+00101-00501999999ADDGA1081+004809059MA1102001999999MW1061REMMET011CIG16 IR17P
0060106330999991972010717004+50050+008333FM-15+0143EDOU V0200601N00151004801CN0070001N9+00101-00401999999ADDGA1081+004809059MA1102031999999MW1061REMMET011CIG16 IR17P
0060106330999991972010718004+50050+008333FM-15+0143EDOU V0201001N00211004501CN0090001N9+00101-00401999999ADDGA1081+004509059MA1102001999999MW1061REMMET011CIG15 IR17P
0060106330999991972010719004+50050+008333FM-15+0143EDOU V0201001N00211004501CN0090001N9+00101-00401999999ADDGA1081+004509059MA1102001999999MW1061REMMET011CIG15 IR17P
0060106330999991972010720004+50050+008333FM-15+0143EDOU V0200801N00311004501CN0090001N9+00101-00401999999ADDGA1081+004509059MA1102001999999MW1061REMMET011CIG15 IR17P
0060106330999991972010721004+50050+008333FM-15+0143EDOU V0200901N00261004501CN0090001N9+00101-00501999999ADDGA1081+004509059MA1102031999999MW1061REMMET011CIG15 IR17P
0060106330999991972010722004+50050+008333FM-15+0143EDOU V0200601N00261004801CN0090001N9+00101-00501999999ADDGA1081+004809059MA1102001999999MW1061REMMET011CIG16 IR17P
0060106330999991972010723004+50050+008333FM-15+0143EDOU V0200601N00151004501CN0090001N9+00101-00501999999ADDGA1081+004509059MA1102001999999MW1061REMMET011CIG15 IR17P
0060106330999991972010800004+50050+008333FM-15+0143EDOU V0209991V00101004501CN0090001N9+00101-00501999999ADDGA1081+004509059MA1101931999999MW1061REMMET011CIG15 IR13P
0054106330999991972010801004+50050+008333FM-15+0143EDOU V0200701N00151004501CN0100001N9+00101-00501999999ADDGA1081+004509059MA1101931999999REMMET011CIG15 IR13P
0054106330999991972010802004+50050+008333FM-15+0143EDOU V0200801N00261004801CN0100001N9+00101-00501999999ADDGA1081+004809059MA1101901999999REMMET011CIG16 IR13P
0054106330999991972010803004+50050+008333FM-15+0143EDOU V0200901N00211004801CN0100001N9+00101-00501999999ADDGA1081+004809059MA1101861999999REMMET011CIG16 IR13P
0054106330999991972010804004+50050+008333FM-15+0143EDOU V0201001N00211004801CN0100001N9+00101-00401999999ADDGA1081+004809059MA1101801999999REMMET011CIG16 IR13P
0076106330999991972010805004+50050+008333FM-15+0143EDOU V0200901N001510048019N0090001N9+00101-00501999999ADDGA1061+004809059GA2031+024009039MA1101761999999MW1061REMMET011CIG16 IR13P
0076106330999991972010806004+50050+008333FM-15+0143EDOU V0200601N002110048019N0090001N9+00101-00501999999ADDGA1051+004809059GA2031+024009039MA1101801999999MW1061REMMET011CIG16 IR15P
0076106330999991972010807004+50050+008333FM-15+0143EDOU V0200701N002610120019N0060001N9+00101-00501999999ADDGA1041+004809059GA2071+012009059MA1101801999999MW1061REMMET011CIG40 IR15P
0091106330999991972010808004+50050+008333FM-15+0143EDOU V0200801N005110012019N0015001N9+00001-00401999999ADDGA1021+000609079GA2061+001209079MA1101801999999MW1711REMMET026CIG04/5SN// FG PRSNT IR15P
0103106330999991972010809004+50050+008333FM-15+0143EDOU V0200901N004610045019N0034001N9+00001-00401999999ADDGA1021+003009079GA2041+004509059GA3061+006009059MA1101731999999MW1421REMMET022CIG15 VRY LGT SN LSR18
0096106330999991972010810004+50050+008333FM-15+0143EDOU V0200801N003610045019N0037001N9+00101-00401999999ADDGA1041+003009079GA2061+018009059MA1101731999999MW1441REMMET031CIG15 OCNL CIG60 HZ PRSNT LSR18
0103106330999991972010811004+50050+008333FM-15+0143EDOU V0200901N004110066019N0037001N9+00101-00301999999ADDGA1011+003009079GA2031+003609079GA3071+006609059MA1101691999999MW1441REMMET022CIG22 HZ PRSNT WET RWY
0087106330999991972010812004+50050+008333FM-15+0143EDOU V0201001N003610069019N0037001N9+00101-00301999999ADDGA1031+003609079GA2071+006909059MA1101631999999MW1711REMMET022CIG23 HZ PRSNT WET RWY
0087106330999991972010813004+50050+008333FM-15+0143EDOU V0201001N003610057019N0037001N9+00201-00301999999ADDGA1021+003609079GA2081+005709059MA1101591999999MW1441REMMET022CIG19 HZ PRSNT WET RWY
0087106330999991972010814004+50050+008333FM-15+0143EDOU V0200901N002610051019N0026001N9+00201-00301999999ADDGA1041+003609079GA2081+005109059MA1101561999999MW1711REMMET022CIG17 FG PRSNT WET RWY
0103106330999991972010815004+50050+008333FM-15+0143EDOU V0200901N003610048019N0037001N9+00101-00301999999ADDGA1031+003009079GA2031+004809059GA3081+006909059MA1101561999999MW1441REMMET022CIG16 HZ PRSNT WET RWY
0094106330999991972010816004+50050+008333FM-15+0143EDOU V0200901N003110027019N0022001N9+00101-00301999999ADDGA1071+002709079GA2031+004809059MA1101521999999MW1711REMMET029CIG09 FG AND HZ PRSNT WET RWY
0084106330999991972010817004+50050+008333FM-15+0143EDOU V0200801N00361002101CN0022001N9+00101-00301999999ADDGA1081+002109079MA1101521999999MW1711REMMET035CIG07/2SN// FG AND HZ PRSNT WET RWY
0077106330999991972010818004+50050+008333FM-15+0143EDOU V0200901N00361001201CN0015001N9+00101-00301999999ADDGA1081+001209079MA1101561999999MW1711REMMET028CIG04/7SN// FG PRSNT WET RWY
0087106330999991972010819004+50050+008333FM-15+0143EDOU V0200901N003610021019N0020001N9+00101-00301999999ADDGA1051+002109079GA2081+003909079MA1101521999999MW1681REMMET022CIG07 FG PRSNT WET RWY
0087106330999991972010820004+50050+008333FM-15+0143EDOU V0200901N003110036019N0020001N9+00101-00301999999ADDGA1041+001509079GA2081+003609079MA1101521999999MW1711REMMET022CIG12 FG PRSNT WET RWY
0087106330999991972010821004+50050+008333FM-15+0143EDOU V0200801N001010030019N0018001N9+00101-00301999999ADDGA1031+001509079GA2081+003009079MA1101521999999MW1681REMMET022CIG10 FG PRSNT WET RWY
0087106330999991972010822004+50050+008333FM-15+0143EDOU V0209991C000010027019N0020001N9+00101-00201999999ADDGA1031+000909079GA2081+002709079MA1101521999999MW1511REMMET022CIG09 FG PRSNT WET RWY
0087106330999991972010823004+50050+008333FM-15+0143EDOU V0209991C000010027019N0015001N9+00101-00201999999ADDGA1031+000909079GA2081+002709079MA1101521999999MW1511REMMET022CIG09 FG PRSNT WET RWY
0078106330999991972010900004+50050+008333FM-15+0143EDOU V0209991C000010027019N0015001N9+00101-00201999999ADDGA1031+000909079GA2071+002709079MA1101521999999MW1461REMMET013CIG09 WET RWY
0078106330999991972010901004+50050+008333FM-15+0143EDOU V0209991C000010027019N0015001N9+00001-00301999999ADDGA1021+000909079GA2061+002709079MA1101491999999MW1441REMMET013CIG09 WET RWY
0078106330999991972010902004+50050+008333FM-15+0143EDOU V0209991C000010024019N0015001N9-00101-00401999999ADDGA1031+000909079GA2071+002409079MA1101521999999MW1481REMMET013CIG08 WET RWY
0082106330999991972010903004+50050+008333FM-15+0143EDOU V0209991C000010021019N0013001N9-00101-00401999999ADDGA1041+000909079GA2041+002109079MA1101521999999MW1481REMMET017CIG07 RGD WET RWY
0090106330999991972010904004+50050+008333FM-15+0143EDOU V0209991C000010015019N0011001N9+00101-00301999999ADDGA1041+001509079GA2031+002409079MA1101491999999MW1421REMMET025CIG05/1FG// CIG RGD IR12P
0090106330999991972010905004+50050+008333FM-15+0143EDOU V0209991C000010021019N0013001N9+00101-00301999999ADDGA1011+001509079GA2061+002109079MA1101491999999MW1441REMMET025CIG07/1FG// CIG RGD IR12P
0083106330999991972010906004+50050+008333FM-15+0143EDOU V0209991C00001001801CN0015001N9+00101-00301999999ADDGA1081+001809079MA1101561999999MW1441REMMET034CIG06 RGD 1FG// VIS W 1100 WET RWY
0072106330999991972010907004+50050+008333FM-15+0143EDOU V0209991C00001001801CN0015001N9+00101-00301999999ADDGA1081+001809079MA1101561999999MW1441REMMET023CIG06 RGD 1FG// WET RWY
0068106330999991972010908004+50050+008333FM-15+0143EDOU V0209991C00001001501CN0011001N9+00101-00301999999ADDGA1081+001509079MA1101561999999MW1441REMMET019CIG05/2FG// WET RWY
0068106330999991972010909004+50050+008333FM-15+0143EDOU V0209991C00001001201CN0006001N9+00101-00301999999ADDGA1081+001209079MA1101631999999MW1441REMMET019CIG04/5FG// WET RWY
0068106330999991972010910004+50050+008333FM-15+0143EDOU V0209991C00001001501CN0006001N9+00101-00201999999ADDGA1081+001509079MA1101631999999MW1421REMMET019CIG05/5FG// WET RWY
0068106330999991972010911004+50050+008333FM-15+0143EDOU V0209991C00001027001CN0009001N9+00301+00101999999ADDGA1071+027009039MA1101631999999MW1441REMMET019CIG90/3FG// WET RWY
0068106330999991972010912004+50050+008333FM-15+0143EDOU V0203601N00051024001CN0011001N9+00301+00101999999ADDGA1081+024009049MA1101561999999MW1421REMMET019CIG80/3FG// WET RWY
0084106330999991972010913004+50050+008333FM-15+0143EDOU V0209991C000010090019N0013001N9+00301+00101999999ADDGA1031+009009059GA2071+021009049MA1101561999999MW1441REMMET019CIG30/3FG// WET RWY
0093106330999991972010914004+50050+008333FM-15+0143EDOU V0200901N002110210019N0017001N9+00301+00101999999ADDGA1011+009009059GA2071+021009049MA1101561999999MW1441REMMET028CIG70/2FG// HZ PRSNT WET RWY
0080106330999991972010915004+50050+008333FM-15+0143EDOU V0201201N00051021001CN0030001N9+00301+00001999999ADDGA1061+021009039MA1101591999999MW1421REMMET031CIG70/1FG// VIS NW 3700 WET RWY
0068106330999991972010916004+50050+008333FM-15+0143EDOU V0200101N00151024001CN0030001N9+00201-00101999999ADDGA1071+024009039MA1101631999999MW1441REMMET019CIG80/1FG// WET RWY
0078106330999991972010917004+50050+008333FM-15+0143EDOU V0209991C000010240019N0037001N9+00201+00001999999ADDGA1041+012009059GA2061+024009039MA1101631999999MW1441REMMET013CIG80 WET RWY
0078106330999991972010918004+50050+008333FM-15+0143EDOU V0200601N001510240019N0040001N9+00301+00001999999ADDGA1031+012009059GA2061+024009039MA1101691999999MW1421REMMET013CIG80 WET RWY
0078106330999991972010919004+50050+008333FM-15+0143EDOU V0209991C000010240019N0047001N9+00301+00001999999ADDGA1021+012009059GA2081+024009039MA1101731999999MW1421REMMET013CIG80 WET RWY
0078106330999991972010920004+50050+008333FM-15+0143EDOU V0209991C000010240019N0047001N9+00201-00101999999ADDGA1021+012009059GA2081+024009039MA1101731999999MW1441REMMET013CIG80 WET RWY
0056106330999991972010921004+50050+008333FM-15+0143EDOU V0200801N00101220001CN0047001N9+00201-00101999999ADDGA1031+024009039MA1101761999999MW1441REMMET007WET RWY
0056106330999991972010922004+50050+008333FM-15+0143EDOU V0203601N00051220001CN0047001N9+00201-00101999999ADDGA1021+009009059MA1101801999999MW1441REMMET007WET RWY
0062106330999991972010923004+50050+008333FM-15+0143EDOU V0209991C00001013501CN0047001N9+00101-00201999999ADDGA1061+013509059MA1101801999999MW1401REMMET013CIG45 WET RWY
0062106330999991972011000004+50050+008333FM-15+0143EDOU V0200901N00101013501CN0048001N9+00201-00101999999ADDGA1081+013509059MA1101761999999MW1401REMMET013CIG45 WET RWY
0062106330999991972011001004+50050+008333FM-15+0143EDOU V0200701N00101013501CN0048001N9+00201-00101999999ADDGA1081+013509059MA1101761999999MW1401REMMET013CIG45 WET RWY
0073106330999991972011002004+50050+008333FM-15+0143EDOU V0200801N00101013501CN0048001N9+00301+00001999999ADDGA1081+013509059MA1101801999999MW1801REMMET024CIG45 BCFG PRSNT WET RWY
0062106330999991972011003004+50050+008333FM-15+0143EDOU V0200701N00211013501CN0048001N9+00201-00101999999ADDGA1081+013509059MA1101831999999MW1401REMMET013CIG45 WET RWY
0062106330999991972011004004+50050+008333FM-15+0143EDOU V0200801N00101010501CN0037001N9+00201+00001999999ADDGA1081+010509059MA1101801999999MW1401REMMET013CIG35 WET RWY
0062106330999991972011005004+50050+008333FM-15+0143EDOU V0200601N00211010501CN0037001N9+00301+00001999999ADDGA1081+010509059MA1101831999999MW1061REMMET013CIG35 WET RWY
0078106330999991972011006004+50050+008333FM-15+0143EDOU V0201101N001510039019N0037001N9+00301+00001999999ADDGA1051+003909079GA2081+010509059MA1101831999999MW1061REMMET013CIG13 WET RWY
0103106330999991972011007004+50050+008333FM-15+0143EDOU V0200901N003110039019N0022001N9+00301+00101999999ADDGA1031+002409079GA2071+003909079GA3061+009009059MA1101861999999MW1511REMMET022CIG13 HZ PRSNT WET RWY
0087106330999991972011008004+50050+008333FM-15+0143EDOU V0200901N002610024019N0011001N9+00201+00101999999ADDGA1071+002409079GA2041+003609079MA1101931999999MW1511REMMET022CIG08 HZ PRSNT WET RWY
0071106330999991972011009004+50050+008333FM-15+0143EDOU V0200801N00151002401CN0015001N9+00201+00101999999ADDGA1081+002409079MA1102001999999MW1511REMMET022CIG08 HZ PRSNT WET RWY
0087106330999991972011010004+50050+008333FM-15+0143EDOU V0200701N001510024019N0015001N9+00301+00101999999ADDGA1021+001209079GA2081+002409079MA1102001999999MW1511REMMET022CIG08 HZ PRSNT WET RWY
0084106330999991972011011004+50050+008333FM-15+0143EDOU V0201001N002610021019N0009001N9+00301+00101999999ADDGA1021+001209079GA2081+002109079MA1101931999999MW1611REMMET019CIG07/3FG// WET RWY
0084106330999991972011012004+50050+008333FM-15+0143EDOU V0200601N001510027019N0011001N9+00301+00201999999ADDGA1051+002709079GA2071+007509059MA1101931999999MW1611REMMET019CIG09/3FG// WET RWY
0084106330999991972011013004+50050+008333FM-15+0143EDOU V0200701N000510027019N0013001N9+00301+00201999999ADDGA1031+001209079GA2081+002709079MA1101931999999MW1611REMMET019CIG09/2FG// WET RWY
0084106330999991972011014004+50050+008333FM-15+0143EDOU V0209991C000010027019N0011001N9+00301+00201999999ADDGA1021+001209079GA2081+002709079MA1101901999999MW1511REMMET019CIG09/3FG// WET RWY
0080106330999991972011015004+50050+008333FM-15+0143EDOU V0200401N00211002401CN0013001N9+00401+00201999999ADDGA1081+002409079MA1101901999999MW1511REMMET031CIG08/2FG// VIS SW 1100 WET RWY
0068106330999991972011016004+50050+008333FM-15+0143EDOU V0209991V00051002101CN0013001N9+00401+00201999999ADDGA1081+002109079MA1101931999999MW1511REMMET019CIG07/2FG// WET RWY
0077106330999991972011017004+50050+008333FM-15+0143EDOU V0200801N00051001201CN0013001N9+00401+00201999999ADDGA1081+001209079MA1101901999999MW1511REMMET028CIG04/3FG// CLDS RGD WET RWY
0085106330999991972011018004+50050+008333FM-15+0143EDOU V0209991C00001000901CN0006001N9+00401+00201999999ADDGA1081+000909079MA1102031999999MW1581REMMET036CIG03/4FG// CIG AND VIS LWRG WET RWY
0076106330999991972011019004+50050+008333FM-15+0143EDOU V0209991C00001000901CN0006001N9+00401+00201999999ADDGA1081+000909079MA1102071999999MW1581REMMET027CIG03/4FG// CIG RGD WET RWY
0085106330999991972011020004+50050+008333FM-15+0143EDOU V0209991C00001001201CN0007001N9+00401+00201999999ADDGA1081+001209079MA1102101999999MW1441REMMET036CIG04/4FG// VRY LGT RA PRSNT WET RWY
0085106330999991972011021004+50050+008333FM-15+0143EDOU V0209991C00001000901CN0007001N9+00401+00201999999ADDGA1081+000909079MA1102101999999MW1441REMMET036CIG03/4FG// VRY LGT RA PRSNT WET RWY
0080106330999991972011022004+50050+008333FM-15+0143EDOU V0209991C00001000601CN0005001N9+00401+00301999999ADDGA1081+000609079MA1102101999999MW1581REMMET031CIG02/6FG// VIS NW 0400 WET RWY
0068106330999991972011023004+50050+008333FM-15+0143EDOU V0209991C00001000601CN0002001N9+00401+00301999999ADDGA1081+000609079MA1102101999999MW1511REMMET019CIG02/7FG// WET RWY
0068106330999991972011100004+50050+008333FM-15+0143EDOU V0209991C00001002101CN0006001N9+00301+00201999999ADDGA1081+000609079MA1102131999999MW1441REMMET019CIG07/7FG// WET RWY
0068106330999991972011101004+50050+008333FM-15+0143EDOU V0209991C00001000901CN0007001N9+00301+00201999999ADDGA1081+000909079MA1102201999999MW1421REMMET019CIG03/5FG// WET RWY
0068106330999991972011102004+50050+008333FM-15+0143EDOU V0209991C00001000901CN0007001N9+00301+00201999999ADDGA1081+000909079MA1102201999999MW1441REMMET019CIG03/5FG// WET RWY
0068106330999991972011103004+50050+008333FM-15+0143EDOU V0209991C00001000601CN0006001N9+00301+00201999999ADDGA1081+000609079MA1102201999999MW1441REMMET019CIG02/6FG// WET RWY
0088106330999991972011104004+50050+008333FM-15+0143EDOU V0209991C00001000601CN0002001N9+00401+00301999999ADDGA1091+000609999GF109991999999999999999999MA1102201999999MW1471REMMET013CIG02 WET RWY
0088106330999991972011105004+50050+008333FM-15+0143EDOU V0209991C00001000601CN0001001N9+00401+00301999999ADDGA1091+000609999GF109991999999999999999999MA1102201999999MW1471REMMET013CIG02 WET RWY
0088106330999991972011106004+50050+008333FM-15+0143EDOU V0200101N00101000601CN0001001N9+00401+00301999999ADDGA1091+000609999GF109991999999999999999999MA1102131999999MW1451REMMET013CIG02 WET RWY
0088106330999991972011107004+50050+008333FM-15+0143EDOU V0209991C00001000301CN0001001N9+00401+00301999999ADDGA1091+000309999GF109991999999999999999999MA1102131999999MW1451REMMET013CIG01 WET RWY
0088106330999991972011108004+50050+008333FM-15+0143EDOU V0209991V00051000301CN0000001N9+00401+00301999999ADDGA1091+000309999GF109991999999999999999999MA1102101999999MW1471REMMET013CIG01 WET RWY
0088106330999991972011109004+50050+008333FM-15+0143EDOU V0200901N00151000601CN0002001N9+00501+00401999999ADDGA1091+000609999GF109991999999999999999999MA1102031999999MW1431REMMET013CIG02 WET RWY
0088106330999991972011110004+50050+008333FM-15+0143EDOU V0200901N00211000601CN0004001N9+00501+00401999999ADDGA1091+000609999GF109991999999999999999999MA1102031999999MW1431REMMET013CIG02 WET RWY
0099106330999991972011111004+50050+008333FM-15+0143EDOU V0201001N00151000601CN0004001N9+00501+00401999999ADDGA1091+000609999GF109991999999999999999999MA1102001999999MW1451REMMET024CIG02 VIS E 0500 WET RWY
0085106330999991972011112004+50050+008333FM-15+0143EDOU V0200801N00311001501CN0006001N9+00601+00501999999ADDGA1051+001509079MA1101861999999MW1421REMMET036CIG05/4FG// VIS INCRG PRESFR WET RWY
0078106330999991972011113004+50050+008333FM-15+0143EDOU V0200801N00461001201CN0015001N9+00601+00501999999ADDGA1061+001209079MA1101801999999MW1421REMMET029CIG04/4FG// VIS INCRG WET RWY
0100106330999991972011114004+50050+008333FM-15+0143EDOU V0200801N006210033019N0017001N9+00701+00501999999ADDGA1021+001209079GA2031+003309079GA3071+024009039MA1101731999999MW1441REMMET019CIG11/3FG// WET RWY
0104106330999991972011115004+50050+008333FM-15+0143EDOU V0200901N006710600019N0026001N9+00601+00501999999ADDGA1011+003009079GA2031+024009039GA3051+060009009MA1101691999999MW1421REMMET023CIG200 HZ PRSNT WET RWY
0094106330999991972011116004+50050+008333FM-15+0143EDOU V0200901N007210240019N0040001N9+00601+00401999999ADDGA1041+002109079GA2081+024009039MA1101631999999MW1061REMMET029CIG80 ST THIN AND RGD WET RWY
0078106330999991972011117004+50050+008333FM-15+0143EDOU V0200901N007710240019N0070001N9+00601+00401999999ADDGA1031+002409079GA2081+024009039MA1101631999999MW1061REMMET013CIG80 WET RWY
0078106330999991972011118004+50050+008333FM-15+0143EDOU V0200901N007210240019N0070001N9+00601+00401999999ADDGA1021+002409079GA2081+024009039MA1101631999999MW1061REMMET013CIG80 WET RWY
0078106330999991972011119004+50050+008333FM-15+0143EDOU V0200901N006710240019N0060001N9+00601+00401999999ADDGA1041+002109079GA2081+024009039MA1101631999999MW1061REMMET013CIG80 WET RWY
0094106330999991972011120004+50050+008333FM-15+0143EDOU V0200901N006710240019N0060001N9+00601+00401999999ADDGA1021+002109079GA2041+024009039GA3051+054009009MA1101631999999MW1061REMMET013CIG80 WET RWY
0094106330999991972011121004+50050+008333FM-15+0143EDOU V0200901N006210240019N0060001N9+00601+00401999999ADDGA1011+002109079GA2041+024009039GA3051+054009009MA1101591999999MW1061REMMET013CIG80 WET RWY
0094106330999991972011122004+50050+008333FM-15+0143EDOU V0200901N005110240019N0070001N9+00601+00401999999ADDGA1011+002109079GA2041+024009039GA3051+054009009MA1101591999999MW1061REMMET013CIG80 WET RWY
0079106330999991972011123004+50050+008333FM-15+0143EDOU V0200901N005710540019N0090001N9+00601+00401999999ADDGA1021+024009039GA2061+054009009MA1101591999999MW1061REMMET014CIG180 WET RWY
0079106330999991972011200004+50050+008333FM-15+0143EDOU V0200801N006210540019N0070001N9+00601+00301999999ADDGA1041+024009039GA2061+054009009MA1101591999999MW1061REMMET014CIG180 WET RWY
0078106330999991972011201004+50050+008333FM-15+0143EDOU V0200801N006710240019N0060001N9+00601+00301999999ADDGA1051+024009039GA2061+054009009MA1101561999999MW1061REMMET013CIG80 WET RWY
0078106330999991972011202004+50050+008333FM-15+0143EDOU V0200801N005710240019N0060001N9+00601+00301999999ADDGA1061+024009039GA2041+054009009MA1101591999999MW1061REMMET013CIG80 WET RWY
0078106330999991972011203004+50050+008333FM-15+0143EDOU V0200701N006210240019N0060001N9+00601+00301999999ADDGA1061+024009039GA2041+054009009MA1101591999999MW1601REMMET013CIG80 WET RWY
0111106330999991972011204004+50050+008333FM-15+0143EDOU V0200801N005710240019N0060001N9+00601+00301999999ADDGA1061+024009039GA2041+054009009MA1101631999999MW1601REMMET046CIG80 VRY LGT RA OCNLY LGT RA HZ PRSNT WET RWY
0093106330999991972011205004+50050+008333FM-15+0143EDOU V0200801N005110150019N0060001N9+00601+00301999999ADDGA1051+015009059GA2061+024009039MA1101591999999MW1061REMMET028CIG50 CNL VRY LGT RA WET RWY
0122106330999991972011206004+50050+008333FM-15+0143EDOU V0200901N005110060019N0060001N9+00501+00301999999ADDGA1041+002709079GA2061+013509059MA1101661999999MW1611REMMET057CIG20 OCNL CIG09 LGT RA OCNLY VRY LGT RA HZ PRSNT WET RWY
0071106330999991972011207004+50050+008333FM-15+0143EDOU V0200901N00511002701CN0060001N9+00401+00301999999ADDGA1081+002709079MA1101661999999MW1611REMMET022CIG09 HZ PRSNT WET RWY
0071106330999991972011208004+50050+008333FM-15+0143EDOU V0200801N00511002701CN0037001N9+00401+00301999999ADDGA1081+002709079MA1101661999999MW1611REMMET022CIG09 FG PRSNT WET RWY
0087106330999991972011209004+50050+008333FM-15+0143EDOU V0200801N005110027019N0047001N9+00401+00301999999ADDGA1051+002709079GA2081+006909059MA1101691999999MW1611REMMET022CIG09 FG PRSNT WET RWY
0087106330999991972011210004+50050+008333FM-15+0143EDOU V0200801N005710027019N0037001N9+00401+00301999999ADDGA1061+002709079GA2081+006909059MA1101691999999MW1611REMMET022CIG09 FG PRSNT WET RWY
0099106330999991972011211004+50050+008333FM-15+0143EDOU V0200901N003610027019N0048001N9+00501+00301999999ADDGA1051+002709079GA2041+004209049MA1101691999999MW1611REMMET034CIG09/1015 OVC 35/HZ PRSNT WET RWY
0087106330999991972011212004+50050+008333FM-15+0143EDOU V0200801N004110063019N0048001N9+00501+00301999999ADDGA1041+003009079GA2081+006309049MA1101591999999MW1611REMMET022CIG21 HZ PRSNT WET RWY
0078106330999991972011213004+50050+008333FM-15+0143EDOU V0200801N004110033019N0040001N9+00501+00301999999ADDGA1051+003309079GA2041+007509059MA1101521999999MW1061REMMET013CIG11 WET RWY
0087106330999991972011214004+50050+008333FM-15+0143EDOU V0200801N004110036019N0037001N9+00501+00301999999ADDGA1021+002109079GA2081+003609079MA1101521999999MW1401REMMET022CIG12 HZ PRSNT WET RWY
0062106330999991972011215004+50050+008333FM-15+0143EDOU V0200901N00461003001CN0037001N9+00501+00301999999ADDGA1081+003009079MA1101561999999MW1061REMMET013CIG10 WET RWY
0062106330999991972011216004+50050+008333FM-15+0143EDOU V0200901N00411003301CN0037001N9+00501+00201999999ADDGA1081+003309079MA1101561999999MW1061REMMET013CIG11 WET RWY
0078106330999991972011217004+50050+008333FM-15+0143EDOU V0200801N003610033019N0047001N9+00401+00201999999ADDGA1061+003309079GA2061+006009059MA1101591999999MW1061REMMET013CIG11 WET RWY
0088106330999991972011218004+50050+008333FM-15+0143EDOU V0200701N004610060019N0060001N9+00401+00201999999ADDGA1031+003309079GA2081+006009059MA1101591999999MW1441REMMET023CIG120 HZ PRSNT WET RWY
0088106330999991972011219004+50050+008333FM-15+0143EDOU V0200801N004110060019N0060001N9+00401+00201999999ADDGA1011+003309079GA2081+006009059MA1101631999999MW1441REMMET023CIG120 HZ PRSNT WET RWY
0078106330999991972011220004+50050+008333FM-15+0143EDOU V0200901N006210060019N0070001N9+00401+00101999999ADDGA1041+003909079GA2071+006009059MA1101631999999MW1061REMMET013CIG20 WET RWY
0062106330999991972011221004+50050+008333FM-15+0143EDOU V0200901N00621004501CN0070001N9+00301+00101999999ADDGA1081+004509059MA1101631999999MW1061REMMET013CIG15 WET RWY
0062106330999991972011222004+50050+008333FM-15+0143EDOU V0200801N00511004501CN0070001N9+00301+00101999999ADDGA1081+004509059MA1101631999999MW1061REMMET013CIG15 WET RWY
0062106330999991972011223004+50050+008333FM-15+0143EDOU V0200901N00571004501CN0060001N9+00301+00001999999ADDGA1081+004509059MA1101631999999MW1061REMMET013CIG15 WET RWY
0062106330999991972011300004+50050+008333FM-15+0143EDOU V0200901N00571005101CN0060001N9+00301+00001999999ADDGA1081+005109059MA1101661999999MW1061REMMET013CIG17 WET RWY
0078106330999991972011301004+50050+008333FM-15+0143EDOU V0200901N005710057019N0060001N9+00301-00101999999ADDGA1061+005709059GA2041+007509059MA1101661999999MW1061REMMET013CIG19 WET RWY
0102106330999991972011302004+50050+008333FM-15+0143EDOU V0200901N006710057019N0048001N9+00301-00101999999ADDGA1061+005709059GA2041+007509059MA1101661999999MW1061REMMET037CIG19 VIS DCRG SLOLY FG PRSNT WET RWY
0087106330999991972011303004+50050+008333FM-15+0143EDOU V0200901N005710057019N0048001N9+00301-00101999999ADDGA1061+005709059GA2041+007509059MA1101661999999MW1061REMMET022CIG19 FG PRSNT WET RWY
0062106330999991972011304004+50050+008333FM-15+0143EDOU V0200901N00511005101CN0060001N9+00301-00101999999ADDGA1081+005109059MA1101661999999MW1061REMMET013CIG17 WET RWY
0062106330999991972011305004+50050+008333FM-15+0143EDOU V0200901N00511004801CN0060001N9+00201-00201999999ADDGA1081+004809059MA1101631999999MW1061REMMET013CIG16 WET RWY
0062106330999991972011306004+50050+008333FM-15+0143EDOU V0200901N00571005101CN0060001N9+00201-00201999999ADDGA1081+005109059MA1101631999999MW1061REMMET013CIG17 WET RWY
0078106330999991972011307004+50050+008333FM-15+0143EDOU V0200901N005110048019N0060001N9+00201-00201999999ADDGA1061+004809059GA2051+007509059MA1101661999999MW1061REMMET013CIG16 WET RWY
0083106330999991972011308004+50050+008333FM-15+0143EDOU V0200901N00511004801CN0040001N9+00201-00201999999ADDGA1081+004809059MA1101661999999MW1061REMMET034CIG16/0730 OVR EDAW OVC 55 WET RWY
0078106330999991972011309004+50050+008333FM-15+0143EDOU V0200901N006210075019N0048001N9+00201-00201999999ADDGA1031+004809059GA2081+007509059MA1101691999999MW1061REMMET013CIG25 WET RWY
0078106330999991972011310004+50050+008333FM-15+0143EDOU V0200901N006210069019N0048001N9+00201-00201999999ADDGA1041+004509059GA2081+006909059MA1101691999999MW1061REMMET013CIG23 WET RWY
0070106330999991972011311004+50050+008333FM-15+0143EDOU V0200901N006210099019N0048001N9+00201-00201999999ADDGA1021+004509059GA2081+009909059MA1101661999999MW1061REMMET005CIG33
0065106330999991972011312004+50050+008333FM-15+0143EDOU V0200901N00461012001CN0060001N9+00201-00201999999ADDGA1081+012009059MA1101661999999MW1061REMMET016CIG40 VIS N 7000
0068106330999991972011313004+50050+008333FM-15+0143EDOU V0200901N00511012001CN0060001N9+00301-00201999999ADDGA1081+012009059MA1101631999999MW1061REMMET019CIG40 VIS N-NE 7000
0084106330999991972011314004+50050+008333FM-15+0143EDOU V0200901N005110120019N0060001N9+00301-00201999999ADDGA1031+004509059GA2061+012009059MA1101591999999MW1061REMMET019CIG40 VIS N-NE 7000
0070106330999991972011315004+50050+008333FM-15+0143EDOU V0201001N005710120019N0070001N9+00201-00201999999ADDGA1041+004509059GA2061+012009059MA1101591999999MW1061REMMET005CIG40
0070106330999991972011316004+50050+008333FM-15+0143EDOU V0201001N004610045019N0070001N9+00201-00201999999ADDGA1061+004509059GA2031+012009059MA1101591999999MW1061REMMET005CIG15
0048106330999991972011317004+50050+008333FM-15+0143EDOU V0201101N00511003601CN0100001N9+00201-00201999999ADDGA1081+003609079MA1101631999999REMMET005CIG12
0048106330999991972011318004+50050+008333FM-15+0143EDOU V0201101N00411003601CN0100001N9+00101-00301999999ADDGA1081+003609079MA1101591999999REMMET005CIG12
0048106330999991972011319004+50050+008333FM-15+0143EDOU V0201001N00411003601CN0100001N9+00101-00301999999ADDGA1081+003609079MA1101591999999REMMET005CIG12
0048106330999991972011320004+50050+008333FM-15+0143EDOU V0200801N00411003601CN0100001N9+00101-00301999999ADDGA1081+003609079MA1101591999999REMMET005CIG12
0054106330999991972011321004+50050+008333FM-15+0143EDOU V0200901N00411003601CN0090001N9+00101-00301999999ADDGA1081+003609079MA1101521999999MW1061REMMET005CIG12
0054106330999991972011322004+50050+008333FM-15+0143EDOU V0200901N00361003601CN0090001N9+00101-00301999999ADDGA1081+003609079MA1101521999999MW1061REMMET005CIG12
0054106330999991972011323004+50050+008333FM-15+0143EDOU V0200901N00311003901CN0090001N9+00101-00301999999ADDGA1081+003909079MA1101561999999MW1061REMMET005CIG13
0054106330999991972011400004+50050+008333FM-15+0143EDOU V0200801N00261003601CN0090001N9+00101-00201999999ADDGA1081+003609079MA1101461999999MW1061REMMET005CIG12
0054106330999991972011401004+50050+008333FM-15+0143EDOU V0200901N00261003601CN0070001N9+00101-00201999999ADDGA1081+003609079MA1101391999999MW1061REMMET005CIG12
0054106330999991972011402004+50050+008333FM-15+0143EDOU V0200901N00311003601CN0070001N9+00101-00201999999ADDGA1081+003609079MA1101391999999MW1061REMMET005CIG12
0054106330999991972011403004+50050+008333FM-15+0143EDOU V0200901N00361003601CN0070001N9+00101-00301999999ADDGA1081+003609079MA1101391999999MW1061REMMET005CIG12
0054106330999991972011404004+50050+008333FM-15+0143EDOU V0200901N00361004201CN0070001N9+00101-00301999999ADDGA1081+004209079MA1101391999999MW1061REMMET005CIG14
0054106330999991972011405004+50050+008333FM-15+0143EDOU V0200901N00261004501CN0070001N9+00101-00301999999ADDGA1081+004509059MA1101391999999MW1061REMMET005CIG15
0054106330999991972011406004+50050+008333FM-15+0143EDOU V0200901N00261004201CN0070001N9+00101-00301999999ADDGA1081+004209059MA1101421999999MW1061REMMET005CIG14
0054106330999991972011407004+50050+008333FM-15+0143EDOU V0200801N00311004201CN0060001N9+00101-00301999999ADDGA1081+004209059MA1101421999999MW1061REMMET005CIG14
0068106330999991972011408004+50050+008333FM-15+0143EDOU V0200801N00311004201CN0060001N9+00101-00301999999ADDGA1081+004209059MA1101461999999MW1061REMMET019CIG14 VIS NW-N 4700
0054106330999991972011409004+50050+008333FM-15+0143EDOU V0200801N00311004201CN0060001N9+00101-00301999999ADDGA1081+004209059MA1101491999999MW1061REMMET005CIG14
0065106330999991972011410004+50050+008333FM-15+0143EDOU V0200901N00361003301CN0047001N9+00101-00301999999ADDGA1081+003309079MA1101491999999MW1061REMMET016CIG11 VIS N 3700
0054106330999991972011411004+50050+008333FM-15+0143EDOU V0200901N00311003001CN0037001N9+00101-00201999999ADDGA1081+003009079MA1101521999999MW1061REMMET005CIG10
0075106330999991972011412004+50050+008333FM-15+0143EDOU V0200901N00361003001CN0037001N9+00101-00201999999ADDGA1081+003009079MA1101421999999MW1061REMMET026CIG10/1HZ// VIS NW-NE 3000
0065106330999991972011413004+50050+008333FM-15+0143EDOU V0200901N00361003001CN0037001N9+00201-00201999999ADDGA1081+003009079MA1101391999999MW1061REMMET016CIG10 VIS N 3400
0065106330999991972011414004+50050+008333FM-15+0143EDOU V0200901N00361003301CN0037001N9+00201-00201999999ADDGA1081+003309079MA1101391999999MW1061REMMET016CIG11 VIS N 3400
0070106330999991972011415004+50050+008333FM-15+0143EDOU V0200901N00361003301CN0037001N9+00201-00201999999ADDGA1081+003309079MA1101391999999MW1061REMMET021CIG11 VIS INCRG SLTLY
0054106330999991972011416004+50050+008333FM-15+0143EDOU V0200901N00311003301CN0037001N9+00201-00201999999ADDGA1081+003309079MA1101391999999MW1061REMMET005CIG11
0054106330999991972011417004+50050+008333FM-15+0143EDOU V0200801N00311003301CN0037001N9+00201-00201999999ADDGA1081+003309079MA1101421999999MW1061REMMET005CIG11
0054106330999991972011418004+50050+008333FM-15+0143EDOU V0200701N00261003301CN0037001N9+00201-00201999999ADDGA1081+003309079MA1101461999999MW1061REMMET005CIG11
0070106330999991972011419004+50050+008333FM-15+0143EDOU V0200701N002610033019N0037001N9+00101-00201999999ADDGA1061+003309079GA2041+003609079MA1101461999999MW1061REMMET005CIG11
0058106330999991972011420004+50050+008333FM-15+0143EDOU V0200901N00311003301CN0037001N9+00101-00201999999ADDGA1081+003309079MA1101461999999MW1061REMMET009CIG11 RGD
0054106330999991972011421004+50050+008333FM-15+0143EDOU V0200801N00361003301CN0037001N9+00101-00201999999ADDGA1081+003309079MA1101461999999MW1061REMMET005CIG11
0054106330999991972011422004+50050+008333FM-15+0143EDOU V0200801N00361003301CN0037001N9+00101-00201999999ADDGA1081+003309079MA1101491999999MW1061REMMET005CIG11
0054106330999991972011423004+50050+008333FM-15+0143EDOU V0200801N00411003001CN0037001N9+00101-00201999999ADDGA1081+003009079MA1101521999999MW1061REMMET005CIG10
0054106330999991972011500004+50050+008333FM-15+0143EDOU V0200801N00411003001CN0037001N9+00101-00201999999ADDGA1081+003009079MA1101591999999MW1061REMMET005CIG10
0054106330999991972011501004+50050+008333FM-15+0143EDOU V0200801N00411003001CN0037001N9+00101-00201999999ADDGA1081+003009079MA1101561999999MW1061REMMET005CIG10
0054106330999991972011502004+50050+008333FM-15+0143EDOU V0200601N00411003001CN0037001N9+00101-00201999999ADDGA1081+003009079MA1101561999999MW1061REMMET005CIG10
0054106330999991972011503004+50050+008333FM-15+0143EDOU V0200701N00411003301CN0037001N9+00101-00201999999ADDGA1081+003309079MA1101521999999MW1061REMMET005CIG11
0054106330999991972011504004+50050+008333FM-15+0143EDOU V0200801N00361003301CN0060001N9+00101-00301999999ADDGA1081+003309079MA1101521999999MW1061REMMET005CIG11
0054106330999991972011505004+50050+008333FM-15+0143EDOU V0200801N00411003301CN0060001N9+00101-00301999999ADDGA1081+003309079MA1101521999999MW1061REMMET005CIG11
0061106330999991972011506004+50050+008333FM-15+0143EDOU V0200701N00411220001CN0070001N9+00001-00401999999ADDGA1031+005109079MA1101491999999MW1061REMMET012VIS S-W 9999
0070106330999991972011507004+50050+008333FM-15+0143EDOU V0200801N003610099019N0090001N9+00001-00301999999ADDGA1021+005109079GA2051+009909059MA1101491999999MW1061REMMET005CIG33
0040106330999991972011508004+50050+008333FM-15+0143EDOU V0200801N00411220001CN0060001N9+00001-00301999999ADDGA1011+009909059MA1101521999999MW1061
0024106330999991972011509004+50050+008333FM-15+0143EDOU V0200901N00571220001CN0070001N9+00101-00401999999ADDMA1101521999999MW1061
0024106330999991972011510004+50050+008333FM-15+0143EDOU V0200901N00771220001CN0070001N9+00201-00401999999ADDMA1101521999999MW1061
0024106330999991972011511004+50050+008333FM-15+0143EDOU V0201001N00721220001CN0070001N9+00201-00301999999ADDMA1101521999999MW1061
0024106330999991972011512004+50050+008333FM-15+0143EDOU V0201001N00671220001CN0070001N9+00301-00301999999ADDMA1101461999999MW1061
0024106330999991972011513004+50050+008333FM-15+0143EDOU V0200901N00511220001CN0070001N9+00301-00201999999ADDMA1101461999999MW1061
0024106330999991972011514004+50050+008333FM-15+0143EDOU V0201001N00571220001CN0070001N9+00401-00201999999ADDMA1101421999999MW1061
0024106330999991972011515004+50050+008333FM-15+0143EDOU V0201001N00511220001CN0060001N9+00301-00301999999ADDMA1101461999999MW1061
0038106330999991972011516004+50050+008333FM-15+0143EDOU V0201001N00461220001CN0060001N9+00201-00301999999ADDMA1101461999999MW1061REMMET0051HZ10
0038106330999991972011517004+50050+008333FM-15+0143EDOU V0200901N00511220001CN0070001N9+00101-00301999999ADDMA1101461999999MW1061REMMET0051HZ10
0024106330999991972011518004+50050+008333FM-15+0143EDOU V0200901N00621220001CN0070001N9+00101-00301999999ADDMA1101561999999MW1061
0024106330999991972011519004+50050+008333FM-15+0143EDOU V0200901N00511220001CN0070001N9+00101-00401999999ADDMA1101591999999MW1061
0024106330999991972011520004+50050+008333FM-15+0143EDOU V0200801N00461220001CN0070001N9+00001-00401999999ADDMA1101631999999MW1061
0024106330999991972011521004+50050+008333FM-15+0143EDOU V0200901N00461220001CN0070001N9+00001-00401999999ADDMA1101661999999MW1061
0024106330999991972011522004+50050+008333FM-15+0143EDOU V0200901N00411220001CN0070001N9-00101-00501999999ADDMA1101691999999MW1061
0040106330999991972011523004+50050+008333FM-15+0143EDOU V0200901N00461220001CN0070001N9-00101-00601999999ADDGA1011+030009039MA1101691999999MW1061
0040106330999991972011600004+50050+008333FM-15+0143EDOU V0200801N00411220001CN0070001N9-00201-00601999999ADDGA1031+027009039MA1101661999999MW1061
0056106330999991972011601004+50050+008333FM-15+0143EDOU V0200901N00721220001CN0070001N9-00201-00701999999ADDGA1011+012009059GA2031+024009039MA1101631999999MW1061
0070106330999991972011602004+50050+008333FM-15+0143EDOU V0200901N006210180019N0090001N9-00201-00701999999ADDGA1021+012009059GA2071+018009059MA1101631999999MW1061REMMET005CIG60
0070106330999991972011603004+50050+008333FM-15+0143EDOU V0200901N006210180019N0090001N9-00201-00801999999ADDGA1021+012009059GA2071+018009059MA1101661999999MW1061REMMET005CIG60
0064106330999991972011604004+50050+008333FM-15+0143EDOU V0200901N006210180019N0100001N9-00201-00801999999ADDGA1021+012009059GA2071+018009059MA1101591999999REMMET005CIG60
0048106330999991972011605004+50050+008333FM-15+0143EDOU V0201001N00771018001CN0100001N9-00201-00801999999ADDGA1081+018009059MA1101561999999REMMET005CIG60
0034106330999991972011606004+50050+008333FM-15+0143EDOU V0201001N00721220001CN0100001N9-00301-00901999999ADDGA1011+018009059MA1101491999999
0034106330999991972011607004+50050+008333FM-15+0143EDOU V0201001N00721220001CN0100001N9-00301-00901999999ADDGA1011+036009049MA1101491999999
0034106330999991972011608004+50050+008333FM-15+0143EDOU V0200901N00671220001CN0100001N9-00401-01001999999ADDGA1011+060009009MA1101491999999
0034106330999991972011609004+50050+008333FM-15+0143EDOU V0200801N00721220001CN0100001N9-00301-00901999999ADDGA1011+060009009MA1101421999999
0034106330999991972011610004+50050+008333FM-15+0143EDOU V0200901N00771220001CN0100001N9-00301-01001999999ADDGA1011+060009009MA1101351999999
0034106330999991972011611004+50050+008333FM-15+0143EDOU V0200901N00771220001CN0100001N9-00201-00901999999ADDGA1011+060009009MA1101251999999
0018106330999991972011612004+50050+008333FM-15+0143EDOU V0200801N00771220001CN0100001N9-00101-00901999999ADDMA1101081999999
0034106330999991972011613004+50050+008333FM-15+0143EDOU V0201001N00771220001CN0100001N9-00101-00901999999ADDGA1011+060009009MA1101021999999
0034106330999991972011614004+50050+008333FM-15+0143EDOU V0201001N00771220001CN0100001N9-00101-00901999999ADDGA1031+060009009MA1100911999999
0034106330999991972011615004+50050+008333FM-15+0143EDOU V0201001N00621220001CN0100001N9-00101-00901999999ADDGA1041+060009009MA1100881999999
0064106330999991972011616004+50050+008333FM-15+0143EDOU V0200901N006212200019N0100001N9-00201-00901999999ADDGA1011+036009039GA2051+060009009MA1100781999999REMMET005CIGNO
0064106330999991972011617004+50050+008333FM-15+0143EDOU V0201001N005112200019N0100001N9-00201-01001999999ADDGA1011+036009039GA2051+060009009MA1100781999999REMMET005CIGNO
0034106330999991972011618004+50050+008333FM-15+0143EDOU V0200801N00411220001CN0100001N9-00301-01001999999ADDGA1031+060009009MA1100751999999
0034106330999991972011619004+50050+008333FM-15+0143EDOU V0200801N00621220001CN0100001N9-00301-01101999999ADDGA1031+060009009MA1100681999999
0034106330999991972011620004+50050+008333FM-15+0143EDOU V0200901N00621220001CN0100001N9-00301-01101999999ADDGA1041+060009009MA1100681999999
0034106330999991972011621004+50050+008333FM-15+0143EDOU V0201001N00721220001CN0100001N9-00301-01101999999ADDGA1021+060009009MA1100611999999
0034106330999991972011622004+50050+008333FM-15+0143EDOU V0201001N00511220001CN0100001N9-00301-01101999999ADDGA1021+060009009MA1100611999999
0034106330999991972011623004+50050+008333FM-15+0143EDOU V0200901N00771220001CN0100001N9-00401-01201999999ADDGA1011+060009009MA1100541999999
0034106330999991972011700004+50050+008333FM-15+0143EDOU V0200901N00721220001CN0100001N9-00401-01201999999ADDGA1011+060009009MA1100611999999
0034106330999991972011701004+50050+008333FM-15+0143EDOU V0200901N00621220001CN0100001N9-00501-01201999999ADDGA1011+060009009MA1100611999999
0040106330999991972011702004+50050+008333FM-15+0143EDOU V0200801N00671220001CN0090001N9-00601-01201999999ADDGA1011+060009009MA1100611999999MW1061
0040106330999991972011703004+50050+008333FM-15+0143EDOU V0200801N00671220001CN0090001N9-00601-01201999999ADDGA1011+060009009MA1100581999999MW1061
0034106330999991972011704004+50050+008333FM-15+0143EDOU V0200801N00821220001CN0100001N9-00601-01201999999ADDGA1041+060009009MA1100541999999
0048106330999991972011705004+50050+008333FM-15+0143EDOU V0200801N00821220001CN0100001N9-00601-01201999999ADDGA1061+060009009MA1100511999999REMMET005CIGNO
0048106330999991972011706004+50050+008333FM-15+0143EDOU V0200801N00721220001CN0100001N9-00701-01301999999ADDGA1051+060009009MA1100471999999REMMET005CIGNO
0034106330999991972011707004+50050+008333FM-15+0143EDOU V0200801N00821220001CN0100001N9-00701-01301999999ADDGA1041+060009009MA1100471999999
0048106330999991972011708004+50050+008333FM-15+0143EDOU V0200801N00821220001CN0100001N9-00701-01301999999ADDGA1061+060009029MA1100511999999REMMET005CIGNO
0048106330999991972011709004+50050+008333FM-15+0143EDOU V0200801N00821220001CN0100001N9-00701-01301999999ADDGA1071+060009029MA1100541999999REMMET005CIGNO
0054106330999991972011710004+50050+008333FM-15+0143EDOU V0200801N00931220001CN0090001N9-00601-01301999999ADDGA1071+060009029MA1100581999999MW1061REMMET005CIGNO
0054106330999991972011711004+50050+008333FM-15+0143EDOU V0200801N01031220001CN0090001N9-00601-01301999999ADDGA1081+060009029MA1100511999999MW1061REMMET005CIGNO
0048106330999991972011712004+50050+008333FM-15+0143EDOU V0201001N01031220001CN0100001N9-00401-01301999999ADDGA1081+060009029MA1100411999999REMMET005CIGNO
0048106330999991972011713004+50050+008333FM-15+0143EDOU V0200701N00931220001CN0100001N9-00401-01301999999ADDGA1081+060009029MA1100411999999REMMET005CIGNO
0048106330999991972011714004+50050+008333FM-15+0143EDOU V0200801N00931220001CN0100001N9-00401-01301999999ADDGA1061+060009029MA1100411999999REMMET005CIGNO
0048106330999991972011715004+50050+008333FM-15+0143EDOU V0200801N00821220001CN0100001N9-00301-01201999999ADDGA1061+051009029MA1100411999999REMMET005CIGNO
0048106330999991972011716004+50050+008333FM-15+0143EDOU V0200801N00821220001CN0100001N9-00401-01301999999ADDGA1061+051009029MA1100441999999REMMET005CIGNO
0064106330999991972011717004+50050+008333FM-15+0143EDOU V0200701N007212200019N0100001N9-00501-01301999999ADDGA1021+030009039GA2041+060009029MA1100511999999REMMET005CIGNO
0064106330999991972011718004+50050+008333FM-15+0143EDOU V0200801N007212200019N0100001N9-00501-01301999999ADDGA1031+030009039GA2041+060009029MA1100581999999REMMET005CIGNO
0064106330999991972011719004+50050+008333FM-15+0143EDOU V0200801N007712200019N0100001N9-00601-01301999999ADDGA1031+030009039GA2041+060009029MA1100611999999REMMET005CIGNO
0070106330999991972011720004+50050+008333FM-15+0143EDOU V0200801N008212200019N0090001N9-00701-01301999999ADDGA1031+030009039GA2051+060009029MA1100641999999MW1061REMMET005CIGNO
0056106330999991972011721004+50050+008333FM-15+0143EDOU V0200701N007212200019N0090001N9-00701-01301999999ADDGA1011+030009039GA2031+060009009MA1100641999999MW1061
0040106330999991972011722004+50050+008333FM-15+0143EDOU V0200801N00771220001CN0090001N9-00701-01301999999ADDGA1031+060009009MA1100641999999MW1061
0034106330999991972011723004+50050+008333FM-15+0143EDOU V0200701N00721220001CN0100001N9-00701-01301999999ADDGA1021+060009009MA1100711999999
0040106330999991972011800004+50050+008333FM-15+0143EDOU V0200701N00721220001CN0090001N9-00801-01301999999ADDGA1021+060009009MA1100641999999MW1061
0040106330999991972011801004+50050+008333FM-15+0143EDOU V0200701N00671220001CN0090001N9-00801-01301999999ADDGA1021+060009009MA1100681999999MW1061
0040106330999991972011802004+50050+008333FM-15+0143EDOU V0200801N00621220001CN0090001N9-00801-01401999999ADDGA1021+060009009MA1100711999999MW1061
0040106330999991972011803004+50050+008333FM-15+0143EDOU V0200801N00571220001CN0090001N9-00901-01401999999ADDGA1021+060009009MA1100751999999MW1061
0024106330999991972011804004+50050+008333FM-15+0143EDOU V0200801N00461220001CN0090001N9-00901-01401999999ADDMA1100781999999MW1061
0024106330999991972011805004+50050+008333FM-15+0143EDOU V0200701N00511220001CN0090001N9-00901-01401999999ADDMA1100811999999MW1061
0040106330999991972011806004+50050+008333FM-15+0143EDOU V0200801N00461220001CN0090001N9-00901-01401999999ADDGA1011+060009009MA1100881999999MW1061
0040106330999991972011807004+50050+008333FM-15+0143EDOU V0200701N00361220001CN0090001N9-01001-01401999999ADDGA1011+060009009MA1100951999999MW1061
0024106330999991972011808004+50050+008333FM-15+0143EDOU V0200801N00461220001CN0090001N9-01001-01401999999ADDMA1101021999999MW1061
0024106330999991972011809004+50050+008333FM-15+0143EDOU V0200801N00621220001CN0090001N9-00801-01301999999ADDMA1101081999999MW1061
0024106330999991972011810004+50050+008333FM-15+0143EDOU V0200801N00571220001CN0090001N9-00701-01301999999ADDMA1101151999999MW1061
0018106330999991972011811004+50050+008333FM-15+0143EDOU V0200801N00411220001CN0100001N9-00601-01301999999ADDMA1101151999999
0044106330999991972011812004+50050+008333FM-15+0143EDOU V0209991V00411220001CN0090001N9-00601-01201999999ADDMA1101121999999MW1061REMMET011WND 070V140
0024106330999991972011813004+50050+008333FM-15+0143EDOU V0200901N00411220001CN0048001N9-00501-01201999999ADDMA1101121999999MW1061
0024106330999991972011814004+50050+008333FM-15+0143EDOU V0201001N00311220001CN0048001N9-00501-01201999999ADDMA1101191999999MW1061
0024106330999991972011815004+50050+008333FM-15+0143EDOU V0200901N00361220001CN0048001N9-00601-01401999999ADDMA1101221999999MW1061
0024106330999991972011816004+50050+008333FM-15+0143EDOU V0200601N00151220001CN0048001N9-00601-01201999999ADDMA1101251999999MW1061
0024106330999991972011817004+50050+008333FM-15+0143EDOU V0209991C00001220001CN0048001N9-00701-01201999999ADDMA1101321999999MW1061
0024106330999991972011818004+50050+008333FM-15+0143EDOU V0200601N00051220001CN0070001N9-00701-01201999999ADDMA1101391999999MW1061
0024106330999991972011819004+50050+008333FM-15+0143EDOU V0203001N00101220001CN0070001N9-00801-01201999999ADDMA1101421999999MW1061
0024106330999991972011820004+50050+008333FM-15+0143EDOU V0209991C00001220001CN0070001N9-00901-01201999999ADDMA1101461999999MW1061
0024106330999991972011821004+50050+008333FM-15+0143EDOU V0209991C00001220001CN0070001N9-00901-01301999999ADDMA1101461999999MW1061
0024106330999991972011822004+50050+008333FM-15+0143EDOU V0203401N00151220001CN0070001N9-00801-01201999999ADDMA1101461999999MW1061
0024106330999991972011823004+50050+008333FM-15+0143EDOU V0203401N00051220001CN0060001N9-00801-01201999999ADDMA1101461999999MW1061
0024106330999991972011900004+50050+008333FM-15+0143EDOU V0209991C00001220001CN0060001N9-00901-01201999999ADDMA1101461999999MW1061
0024106330999991972011901004+50050+008333FM-15+0143EDOU V0209991C00001220001CN0060001N9-00801-01201999999ADDMA1101421999999MW1061
0024106330999991972011902004+50050+008333FM-15+0143EDOU V0209991C00001220001CN0037001N9-00801-01201999999ADDMA1101421999999MW1061
0024106330999991972011903004+50050+008333FM-15+0143EDOU V0209991C00001220001CN0037001N9-00801-01201999999ADDMA1101461999999MW1061
0024106330999991972011904004+50050+008333FM-15+0143EDOU V0200801N00051220001CN0037001N9-00901-01201999999ADDMA1101461999999MW1061
0024106330999991972011905004+50050+008333FM-15+0143EDOU V0203201N00051220001CN0037001N9-00901-01201999999ADDMA1101461999999MW1061
0024106330999991972011906004+50050+008333FM-15+0143EDOU V0209991V00051220001CN0032001N9-00901-01201999999ADDMA1101421999999MW1061
0065106330999991972011907004+50050+008333FM-15+0143EDOU V0209991C00001220001CN0028001N9-00901-01201999999ADDGA1011+060009009MA1101461999999MW1061REMMET0161HZ// MIFG PRSNT
0081106330999991972011908004+50050+008333FM-15+0143EDOU V0209991C00001220001CN0022001N9-00801-01101999999ADDGA1081+060009009MA1101491999999MW1061REMMET032CIGNO 1HZ// 1FU01 VIS SW-NW 1900
0087106330999991972011909004+50050+008333FM-15+0143EDOU V0201601N000510240019N0024001N9-00601-00901999999ADDGA1021+015009059GA2081+024009049MA1101491999999MW1061REMMET022CIG80/2HZ// VIS N 1900
0090106330999991972011910004+50050+008333FM-15+0143EDOU V0209991V001010240019N0017001N9-00601-00901999999ADDGA1021+015009059GA2081+024009049MA1101491999999MW1061REMMET025CIG80/2HZ// VIS W-NW 1900
0067106330999991972011911004+50050+008333FM-15+0143EDOU V0209991V00101004501CN0022001N9-00501-00901999999ADDGA1081+004509079MA1101421999999MW1061REMMET018CIG15/2HZ// OVC 30
0060106330999991972011912004+50050+008333FM-15+0143EDOU V0201901N00101004501CN0020001N9-00501-00901999999ADDGA1081+004509079MA1101351999999MW1061REMMET011CIG15/2HZ//
0060106330999991972011913004+50050+008333FM-15+0143EDOU V0209991V00211004501CN0022001N9-00401-00801999999ADDGA1081+004509079MA1101321999999MW1061REMMET011CIG15/2HZ//
0060106330999991972011914004+50050+008333FM-15+0143EDOU V0201801N00101004501CN0020001N9-00401-00801999999ADDGA1081+004509079MA1101291999999MW1061REMMET011CIG15/2HZ//
0074106330999991972011915004+50050+008333FM-15+0143EDOU V0209991C00001004501CN0015001N9-00301-00801999999ADDGA1061+004509079MA1101251999999MW1061REMMET025CIG15/2HZ// VIS W-NW 2100
0060106330999991972011916004+50050+008333FM-15+0143EDOU V0209991C00001004501CN0015001N9-00301-00701999999ADDGA1051+004509079MA1101251999999MW1061REMMET011CIG15/3HZ//
0060106330999991972011917004+50050+008333FM-15+0143EDOU V0209991C00001004501CN0022001N9-00201-00701999999ADDGA1051+004509079MA1101251999999MW1061REMMET011CIG15/3HZ//
0060106330999991972011918004+50050+008333FM-15+0143EDOU V0209991C00001003601CN0022001N9-00201-00601999999ADDGA1081+003609079MA1101251999999MW1061REMMET011CIG12/2HZ//
0060106330999991972011919004+50050+008333FM-15+0143EDOU V0200301N00101003601CN0022001N9-00201-00601999999ADDGA1081+003609079MA1101251999999MW1061REMMET011CIG12/2HZ//
0060106330999991972011920004+50050+008333FM-15+0143EDOU V0209991C00001003601CN0026001N9-00101-00501999999ADDGA1071+003609079MA1101251999999MW1061REMMET011CIG12/1HZ//
0054106330999991972011921004+50050+008333FM-15+0143EDOU V0209991C00001004501CN0026001N9-00101-00501999999ADDGA1081+004509079MA1101251999999MW1061REMMET005CIG15
0054106330999991972011922004+50050+008333FM-15+0143EDOU V0209991C00001004501CN0026001N9+00001-00401999999ADDGA1081+004509079MA1101251999999MW1061REMMET005CIG15
0054106330999991972011923004+50050+008333FM-15+0143EDOU V0209991C00001004501CN0026001N9+00001-00301999999ADDGA1081+004509079MA1101251999999MW1061REMMET005CIG15
0054106330999991972012000004+50050+008333FM-15+0143EDOU V0209991C00001004501CN0026001N9+00001-00301999999ADDGA1081+004509079MA1101291999999MW1061REMMET005CIG15
0063106330999991972012001004+50050+008333FM-15+0143EDOU V0209991C00001004201CN0017001N9+00001-00201999999ADDGA1081+004209079MA1101251999999MW1511REMMET014CIG14 FG PRSNT
0063106330999991972012002004+50050+008333FM-15+0143EDOU V0200601N00101004201CN0013001N9+00001-00201999999ADDGA1081+004209079MA1101221999999MW1561REMMET014CIG14 FG PRSNT
0065106330999991972012003004+50050+008333FM-15+0143EDOU V0209991C00001003901CN0017001N9+00101-00201999999ADDGA1081+003909079MA1101191999999MW1561REMMET016CIG13/2FG// IR//
0065106330999991972012004004+50050+008333FM-15+0143EDOU V0201101N00211003601CN0013001N9+00101-00201999999ADDGA1081+003609079MA1101121999999MW1561REMMET016CIG12/3FG// IR10
0081106330999991972012005004+50050+008333FM-15+0143EDOU V0201001N002110015019N0005001N9+00101-00101999999ADDGA1041+001509079GA2031+003009079MA1101051999999MW1511REMMET016CIG05/4FG// IR10
0081106330999991972012006004+50050+008333FM-15+0143EDOU V0209991C000010015019N0007001N9+00101-00101999999ADDGA1031+001509079GA2051+003009079MA1101021999999MW1511REMMET016CIG05/3FG// IR08
0081106330999991972012007004+50050+008333FM-15+0143EDOU V0209991C000010036019N0015001N9+00101-00101999999ADDGA1031+001509079GA2071+003609079MA1100981999999MW1441REMMET016CIG12/3FG// IR08
0081106330999991972012008004+50050+008333FM-15+0143EDOU V0209991C000010060019N0009001N9+00101-00101999999ADDGA1011+001509079GA2061+006009059MA1100981999999MW1441REMMET016CIG20/2FG// IR15
0081106330999991972012009004+50050+008333FM-15+0143EDOU V0201001N001510090019N0020001N9+00201-00101999999ADDGA1011+001509079GA2051+009009059MA1100911999999MW1421REMMET016CIG30/1FG// IR15
0078106330999991972012010004+50050+008333FM-15+0143EDOU V0201001N004112200019N0024001N9+00301-00101999999ADDGA1011+009009059GA2051+024009039MA1100851999999MW1061REMMET013CIGNO WET RWY
0078106330999991972012011004+50050+008333FM-15+0143EDOU V0200801N004612200019N0024001N9+00301-00201999999ADDGA1011+024009039GA2041+045009039MA1100811999999MW1061REMMET013CIGNO WET RWY
0090106330999991972012012004+50050+008333FM-15+0143EDOU V0209991V005112200019N0034001N9+00401-00201999999ADDGA1011+024009039GA2061+075009019MA1100711999999MW1061REMMET025CIGNO WND 050V110 WET RWY
0062106330999991972012013004+50050+008333FM-15+0143EDOU V0200801N00511220001CN0037001N9+00401-00301999999ADDGA1061+075009019MA1100611999999MW1061REMMET013CIGNO WET RWY
0062106330999991972012014004+50050+008333FM-15+0143EDOU V0200901N00461220001CN0037001N9+00401-00301999999ADDGA1051+075009009MA1100581999999MW1061REMMET013CIGNO WET RWY
0056106330999991972012015004+50050+008333FM-15+0143EDOU V0200901N00511220001CN0037001N9+00301-00401999999ADDGA1041+075009009MA1100511999999MW1061REMMET007WET RWY
0068106330999991972012016004+50050+008333FM-15+0143EDOU V0200901N00461220001CN0037001N9+00201-00401999999ADDGA1031+075009009MA1100511999999MW1061REMMET019VIS NE 2600 WET RWY
0056106330999991972012017004+50050+008333FM-15+0143EDOU V0200801N00211220001CN0037001N9+00101-00401999999ADDGA1031+075009009MA1100511999999MW1061REMMET007WET RWY
0056106330999991972012018004+50050+008333FM-15+0143EDOU V0200801N00261220001CN0040001N9+00101-00401999999ADDGA1011+060009009MA1100511999999MW1061REMMET007WET RWY
0056106330999991972012019004+50050+008333FM-15+0143EDOU V0200501N00051220001CN0040001N9-00101-00401999999ADDGA1011+060009009MA1100511999999MW1061REMMET007WET RWY
0056106330999991972012020004+50050+008333FM-15+0143EDOU V0209991C00001220001CN0040001N9-00101-00401999999ADDGA1011+060009009MA1100511999999MW1061REMMET007WET RWY
0056106330999991972012021004+50050+008333FM-15+0143EDOU V0209991C00001220001CN0040001N9-00201-00501999999ADDGA1011+060009009MA1100511999999MW1061REMMET007WET RWY
0056106330999991972012022004+50050+008333FM-15+0143EDOU V0203501N00151220001CN0037001N9-00201-00601999999ADDGA1011+060009009MA1100581999999MW1061REMMET007WET RWY
0056106330999991972012023004+50050+008333FM-15+0143EDOU V0209991C00001220001CN0037001N9-00201-00501999999ADDGA1021+027009039MA1100581999999MW1061REMMET007WET RWY
0078106330999991972012100004+50050+008333FM-15+0143EDOU V0209991C000010135019N0037001N9-00201-00401999999ADDGA1051+013509059GA2031+027009039MA1100581999999MW1061REMMET013CIG45 WET RWY
0062106330999991972012101004+50050+008333FM-15+0143EDOU V0209991C00001013501CN0037001N9-00201-00401999999ADDGA1061+013509059MA1100581999999MW1061REMMET013CIG45 WET RWY
0062106330999991972012102004+50050+008333FM-15+0143EDOU V0209991C00001013501CN0037001N9-00101-00401999999ADDGA1061+013509059MA1100611999999MW1061REMMET013CIG45 WET RWY
0062106330999991972012103004+50050+008333FM-15+0143EDOU V0209991C00001013501CN0037001N9-00101-00401999999ADDGA1061+013509059MA1100641999999MW1061REMMET013CIG45 WET RWY
0087106330999991972012104004+50050+008333FM-15+0143EDOU V0209991C000010063019N0026001N9+00001-00301999999ADDGA1071+006309059GA2041+012009059MA1100751999999MW1771REMMET022CIG21 HZ PRSNT WET RWY
0087106330999991972012105004+50050+008333FM-15+0143EDOU V0209991C000010063019N0015001N9+00001-00301999999ADDGA1031+004209079GA2071+006309059MA1100811999999MW1711REMMET022CIG21 HZ PRSNT WET RWY
0084106330999991972012106004+50050+008333FM-15+0143EDOU V0209991C000010039019N0011001N9+00001-00301999999ADDGA1031+001209079GA2051+003909079MA1100911999999MW1711REMMET019CIG13/3FG// WET RWY
0100106330999991972012107004+50050+008333FM-15+0143EDOU V0209991C000010012019N0006001N9+00001-00201999999ADDGA1041+001209079GA2031+003609079GA3061+010509059MA1101021999999MW1711REMMET019CIG04/4FG// WET RWY
0084106330999991972012108004+50050+008333FM-15+0143EDOU V0209991C000010048019N0006001N9+00001-00201999999ADDGA1021+001209079GA2061+004809059MA1101081999999MW1711REMMET019CIG16/3FG// WET RWY
0084106330999991972012109004+50050+008333FM-15+0143EDOU V0209991C000010045019N0007001N9+00101-00201999999ADDGA1021+001209079GA2061+004509059MA1101191999999MW1711REMMET019CIG15/2FG// WET RWY
0117106330999991972012110004+50050+008333FM-15+0143EDOU V0209991C000010048019N0070001N9+00101-00201999999ADDGA1011+001209079GA2051+004809059MA1101251999999MW1701REMMET052CIG16/1FG// VIS INCRG RPDLY VIS LWR IN FG NE WET RWY
0093106330999991972012111004+50050+008333FM-15+0143EDOU V0203301N003110051019N0090001N9+00301-00201999999ADDGA1011+003009079GA2081+005109059MA1101291999999MW1421REMMET028CIG17 LWR CLDS INCRG WET RWY
0072106330999991972012112004+50050+008333FM-15+0143EDOU V0203201N004110051019N0100001N9+00201-00101999999ADDGA1011+063009999GA2081+005109059MA1101421999999REMMET013CIG17 WET RWY
0088106330999991972012113004+50050+008333FM-15+0143EDOU V0203301N004610051019N0100001N9+00301-00101999999ADDGA1011+063009999GA2061+005109059GA3061+006009059MA1101461999999REMMET013CIG17 WET RWY
0094106330999991972012114004+50050+008333FM-15+0143EDOU V0209991V002110060019N0090001N9+00301-00101999999ADDGA1011+003009079GA2051+006009059GA3051+024009039MA1101561999999MW1061REMMET013CIG20 WET RWY
0088106330999991972012115004+50050+008333FM-15+0143EDOU V0200401N002110090019N0100001N9+00301-00101999999ADDGA1011+063009999GA2021+006009059GA3061+009009059MA1101691999999REMMET013CIG30 WET RWY
0088106330999991972012116004+50050+008333FM-15+0143EDOU V0209991C000010099019N0100001N9+00301-00101999999ADDGA1011+006009059GA2051+009909059GA3041+027009039MA1101761999999REMMET013CIG33 WET RWY
0072106330999991972012117004+50050+008333FM-15+0143EDOU V0209991C000010096019N0100001N9+00201-00101999999ADDGA1061+009609059GA2051+027009039MA1101861999999REMMET013CIG32 WET RWY
0072106330999991972012118004+50050+008333FM-15+0143EDOU V0209991C000010270019N0100001N9+00201-00101999999ADDGA1041+010509059GA2041+027009039MA1101931999999REMMET013CIG90 WET RWY
0072106330999991972012119004+50050+008333FM-15+0143EDOU V0209991C000010270019N0100001N9+00101-00201999999ADDGA1031+010509059GA2031+027009039MA1102071999999REMMET013CIG90 WET RWY
0056106330999991972012120004+50050+008333FM-15+0143EDOU V0203601N00101027001CN0100001N9+00101-00101999999ADDGA1051+027009039MA1102071999999REMMET013CIG90 WET RWY
0056106330999991972012121004+50050+008333FM-15+0143EDOU V0200101N00211027001CN0100001N9+00201-00101999999ADDGA1061+027009039MA1102131999999REMMET013CIG90 WET RWY
0062106330999991972012122004+50050+008333FM-15+0143EDOU V0203601N00361027001CN0090001N9+00001-00301999999ADDGA1051+027009039MA1102171999999MW1061REMMET013CIG90 WET RWY
0056106330999991972012123004+50050+008333FM-15+0143EDOU V0203501N00311220001CN0090001N9+00001-00201999999ADDGA1021+027009039MA1102241999999MW1061REMMET007WET RWY
0078106330999991972012200004+50050+008333FM-15+0143EDOU V0203601N002112200019N0090001N9+00001-00201999999ADDGA1021+009009059GA2031+027009039MA1102201999999MW1061REMMET013CIGNO WET RWY
0078106330999991972012201004+50050+008333FM-15+0143EDOU V0203501N003110270019N0090001N9+00101-00201999999ADDGA1031+009009059GA2051+027009039MA1102241999999MW1061REMMET013CIG90 WET RWY
0078106330999991972012202004+50050+008333FM-15+0143EDOU V0203501N003110120019N0090001N9+00101-00201999999ADDGA1051+105009999GA2041+027009039MA1102271999999MW1061REMMET013CIG40 WET RWY
0078106330999991972012203004+50050+008333FM-15+0143EDOU V0203401N002610120019N0060001N9+00101-00201999999ADDGA1051+012009059GA2031+027009039MA1102371999999MW1061REMMET013CIG40 WET RWY
0078106330999991972012204004+50050+008333FM-15+0143EDOU V0203601N004110150019N0070001N9+00101-00201999999ADDGA1051+015009059GA2031+027009039MA1102371999999MW1061REMMET013CIG50 WET RWY
0078106330999991972012205004+50050+008333FM-15+0143EDOU V0200101N002610270019N0070001N9+00001-00301999999ADDGA1021+015009059GA2031+027009039MA1102401999999MW1061REMMET013CIG90 WET RWY
0072106330999991972012206004+50050+008333FM-15+0143EDOU V0200101N00361220001CN0070001N9+00001-00301999999ADDGA1011+015009059GA2031+027009039MA1102511999999MW1061REMMET007WET RWY
0118106330999991972012207004+50050+008333FM-15+0143EDOU V0200101N003610600019N0100001N9+00101-00201999999ADDGA1011+105009999GA2031+027009039GA3061+060009009MA1102571999999REMMET043CIG200 PTLY THN VIS SW-W 7000 IN HZ WET RWY
0088106330999991972012208004+50050+008333FM-15+0143EDOU V0203601N004610105019N0090001N9+00101-00201999999ADDGA1051+010509059GA2031+027009039MA1102611999999MW1061REMMET023CIG35 VIS HIR S WET RWY
0073106330999991972012209004+50050+008333FM-15+0143EDOU V0200201N00311010501CN0100001N9+00201-00201999999ADDGA1071+010509059MA1102681999999REMMET030CIG35 VIS N 9000 IN HZ WET RWY
0086106330999991972012210004+50050+008333FM-15+0143EDOU V0200101N004110105019N0100001N9+00201-00101999999ADDGA1011+006009089GA2051+010509059MA1102711999999REMMET027CIG35 SC DCRG SLOLY WET RWY
0089106330999991972012211004+50050+008333FM-15+0143EDOU V0203601N002610360019N0100001N9+00301-00101999999ADDGA1011+006009089GA2031+010509059GA3061+036009039MA1102741999999REMMET014CIG120 WET RWY
0073106330999991972012212004+50050+008333FM-15+0143EDOU V0200101N003110360019N0100001N9+00401-00101999999ADDGA1011+006009089GA2061+036009039MA1102741999999REMMET014CIG120 WET RWY
0072106330999991972012213004+50050+008333FM-15+0143EDOU V0203501N002610270019N0100001N9+00401-00201999999ADDGA1041+010509059GA2061+027009039MA1102741999999REMMET013CIG90 WET RWY
0072106330999991972012214004+50050+008333FM-15+0143EDOU V0203501N002610105019N0100001N9+00401-00201999999ADDGA1061+010509059GA2041+027009039MA1102741999999REMMET013CIG35 WET RWY
0072106330999991972012215004+50050+008333FM-15+0143EDOU V0203501N002610105019N0100001N9+00401-00201999999ADDGA1061+010509059GA2041+027009039MA1102741999999REMMET013CIG35 WET RWY
0072106330999991972012216004+50050+008333FM-15+0143EDOU V0203501N001510105019N0100001N9+00201-00301999999ADDGA1071+010509059GA2031+027009039MA1102811999999REMMET013CIG35 WET RWY
0056106330999991972012217004+50050+008333FM-15+0143EDOU V0200101N00261010501CN0100001N9+00201-00301999999ADDGA1081+010509059MA1102841999999REMMET013CIG35 WET RWY
0048106330999991972012218004+50050+008333FM-15+0143EDOU V0200101N00261010501CN0100001N9+00201-00301999999ADDGA1081+010509059MA1102881999999REMMET005CIG35
0048106330999991972012219004+50050+008333FM-15+0143EDOU V0203601N00211010501CN0100001N9+00101-00201999999ADDGA1081+010509059MA1102881999999REMMET005CIG35
0048106330999991972012220004+50050+008333FM-15+0143EDOU V0200101N00211010501CN0100001N9+00201-00301999999ADDGA1081+010509059MA1102881999999REMMET005CIG35
0048106330999991972012221004+50050+008333FM-15+0143EDOU V0203601N00211010501CN0100001N9+00101-00301999999ADDGA1081+010509059MA1102881999999REMMET005CIG35
0048106330999991972012222004+50050+008333FM-15+0143EDOU V0200101N00101010501CN0100001N9+00101-00301999999ADDGA1081+010509059MA1102881999999REMMET005CIG35
0034106330999991972012223004+50050+008333FM-15+0143EDOU V0200101N00151220001CN0100001N9+00101-00301999999ADDGA1011+010509059MA1102881999999
0034106330999991972012300004+50050+008333FM-15+0143EDOU V0200201N00261220001CN0100001N9-00101-00401999999ADDGA1011+027009039MA1102911999999
0018106330999991972012301004+50050+008333FM-15+0143EDOU V0200301N00261220001CN0100001N9-00101-00501999999ADDMA1102911999999
0018106330999991972012302004+50050+008333FM-15+0143EDOU V0200401N00211220001CN0100001N9-00201-00601999999ADDMA1102881999999
0018106330999991972012303004+50050+008333FM-15+0143EDOU V0200301N00101220001CN0100001N9-00301-00601999999ADDMA1102881999999
0018106330999991972012304004+50050+008333FM-15+0143EDOU V0200301N00101220001CN0100001N9-00301-00601999999ADDMA1102841999999
0018106330999991972012305004+50050+008333FM-15+0143EDOU V0209991C00001220001CN0100001N9-00201-00601999999ADDMA1102841999999
0034106330999991972012306004+50050+008333FM-15+0143EDOU V0209991C00001220001CN0100001N9-00201-00601999999ADDGA1031+007509059MA1102811999999
0048106330999991972012307004+50050+008333FM-15+0143EDOU V0209991C00001006901CN0100001N9-00201-00501999999ADDGA1061+006909059MA1102841999999REMMET005CIG23
0061106330999991972012308004+50050+008333FM-15+0143EDOU V0209991C00001006901CN0100001N9-00201-00401999999ADDGA1071+006909059MA1102881999999REMMET018CIG23/0720 OVC 040
0048106330999991972012309004+50050+008333FM-15+0143EDOU V0209991C00001006901CN0100001N9-00101-00301999999ADDGA1071+006909059MA1102881999999REMMET005CIG23
0048106330999991972012310004+50050+008333FM-15+0143EDOU V0209991C00001006901CN0100001N9+00101-00301999999ADDGA1081+006909059MA1102841999999REMMET005CIG23
0048106330999991972012311004+50050+008333FM-15+0143EDOU V0200301N00151006901CN0100001N9+00201-00301999999ADDGA1081+006909059MA1102841999999REMMET005CIG23
0074106330999991972012312004+50050+008333FM-15+0143EDOU V0200501N00211006901CN0100001N9+00201-00401999999ADDGA1081+006909059MA1102681999999REMMET031CIG23 PTLY THN VIS S 6000 IN HZ
0074106330999991972012313004+50050+008333FM-15+0143EDOU V0200501N00211006601CN0100001N9+00201-00401999999ADDGA1081+006609059MA1102641999999REMMET031CIG22 PTLY THN VIS S 7000 IN HZ
0065106330999991972012314004+50050+008333FM-15+0143EDOU V0200601N00311006601CN0100001N9+00201-00401999999ADDGA1081+006609059MA1102611999999REMMET022CIG22 VIS S 9000 IN HZ
0048106330999991972012315004+50050+008333FM-15+0143EDOU V0200401N00261006301CN0100001N9+00201-00401999999ADDGA1081+006309059MA1102571999999REMMET005CIG21
0048106330999991972012316004+50050+008333FM-15+0143EDOU V0200301N00211007501CN0100001N9+00101-00401999999ADDGA1071+007509059MA1102541999999REMMET005CIG25
0060106330999991972012317004+50050+008333FM-15+0143EDOU V0209991C00001007501CN0100001N9+00101-00301999999ADDGA1071+007509059MA1102511999999REMMET017CIG25 BINOVC OVHD
0060106330999991972012318004+50050+008333FM-15+0143EDOU V0209991C00001007501CN0100001N9+00101-00301999999ADDGA1071+007509059MA1102511999999REMMET017CIG25 BINOVC OVHD
0054106330999991972012319004+50050+008333FM-15+0143EDOU V0209991C00001007801CN0090001N9+00101-00401999999ADDGA1081+007809059MA1102471999999MW1061REMMET005CIG26
0054106330999991972012320004+50050+008333FM-15+0143EDOU V0209991C00001007801CN0090001N9+00101-00301999999ADDGA1081+007809059MA1102441999999MW1061REMMET005CIG26
0064106330999991972012321004+50050+008333FM-15+0143EDOU V0209991C000010078019N0100001N9+00101-00301999999ADDGA1031+004809059GA2081+007809059MA1102401999999REMMET005CIG26
0064106330999991972012322004+50050+008333FM-15+0143EDOU V0209991C000010069019N0100001N9+00101-00301999999ADDGA1041+004509059GA2051+006909059MA1102371999999REMMET005CIG23
0070106330999991972012323004+50050+008333FM-15+0143EDOU V0209991C000010045019N0090001N9+00001-00401999999ADDGA1061+004509059GA2051+007509059MA1102341999999MW1061REMMET005CIG15
0054106330999991972012400004+50050+008333FM-15+0143EDOU V0209991C00001004501CN0090001N9+00001-00301999999ADDGA1081+004509059MA1102241999999MW1061REMMET005CIG15
0054106330999991972012401004+50050+008333FM-15+0143EDOU V0209991C00001003601CN0090001N9+00001-00301999999ADDGA1081+003609079MA1102171999999MW1061REMMET005CIG12
0054106330999991972012402004+50050+008333FM-15+0143EDOU V0209991C00001003001CN0070001N9+00001-00301999999ADDGA1081+003009079MA1102131999999MW1061REMMET005CIG10
0070106330999991972012403004+50050+008333FM-15+0143EDOU V0209991C000010030019N0070001N9+00001-00301999999ADDGA1051+003009079GA2051+012009059MA1102071999999MW1061REMMET005CIG10
0070106330999991972012404004+50050+008333FM-15+0143EDOU V0209991C000010030019N0070001N9-00101-00301999999ADDGA1051+003009079GA2051+012009059MA1102001999999MW1061REMMET005CIG10
0070106330999991972012405004+50050+008333FM-15+0143EDOU V0209991C000010030019N0060001N9+00001-00301999999ADDGA1051+003009079GA2061+012009059MA1101961999999MW1061REMMET005CIG10
0086106330999991972012406004+50050+008333FM-15+0143EDOU V0209991C000010045019N0060001N9+00001-00301999999ADDGA1021+003009079GA2041+004509079GA3061+012009059MA1102001999999MW1061REMMET005CIG15
0076106330999991972012407004+50050+008333FM-15+0143EDOU V0209991C00001004801CN0060001N9+00001-00301999999ADDGA1081+004809059MA1101931999999MW1061REMMET027CIG16/0611 OVR EDAW TPS 059
0054106330999991972012408004+50050+008333FM-15+0143EDOU V0209991C00001004501CN0034001N9+00001-00301999999ADDGA1081+004509059MA1101901999999MW1061REMMET005CIG15
0076106330999991972012409004+50050+008333FM-15+0143EDOU V0209991C000010036019N0037001N9+00001-00301999999ADDGA1021+003009079GA2081+003609059MA1101861999999MW1061REMMET011CIG12/1HZ//
0089106330999991972012410004+50050+008333FM-15+0143EDOU V0209991C000010036019N0032001N9+00001-00301999999ADDGA1011+002709079GA2081+003609059MA1101831999999MW1711REMMET024CIG12 RGD/1HZ// FG PRSNT
0098106330999991972012411004+50050+008333FM-15+0143EDOU V0209991C000010030019N0032001N9+00101-00301999999ADDGA1011+002409079GA2071+003009059MA1101731999999MW1061REMMET033CIG10/1HZ// SUN DMLY VSBL WET RWY
0062106330999991972012412004+50050+008333FM-15+0143EDOU V0201601N00151003301CN0034001N9+00101-00201999999ADDGA1051+003309059MA1101661999999MW1061REMMET013CIG11 WET RWY
0078106330999991972012413004+50050+008333FM-15+0143EDOU V0201601N002610033019N0032001N9+00201-00201999999ADDGA1051+003309059GA2041+004809059MA1101561999999MW1061REMMET013CIG11 WET RWY
0078106330999991972012414004+50050+008333FM-15+0143EDOU V0201601N004110048019N0022001N9+00101-00201999999ADDGA1021+003309059GA2051+004809059MA1101491999999MW1061REMMET013CIG16 WET RWY
0100106330999991972012415004+50050+008333FM-15+0143EDOU V0201701N003610033019N0018001N9+00101-00201999999ADDGA1011+002409079GA2051+003309059GA3051+004809059MA1101461999999MW1061REMMET019CIG11/1HZ// WET RWY
0100106330999991972012416004+50050+008333FM-15+0143EDOU V0201401N002110054019N0026001N9+00101-00201999999ADDGA1021+003609059GA2031+005409059GA3051+007509059MA1101391999999MW1061REMMET019CIG18/1HZ// WET RWY
0078106330999991972012417004+50050+008333FM-15+0143EDOU V0201601N003110090019N0045001N9+00101-00301999999ADDGA1031+007509059GA2051+009009059MA1101351999999MW1061REMMET013CIG30 WET RWY
0078106330999991972012418004+50050+008333FM-15+0143EDOU V0201801N002610090019N0047001N9+00101-00301999999ADDGA1031+007509059GA2071+009009059MA1101321999999MW1061REMMET013CIG30 WET RWY
0078106330999991972012419004+50050+008333FM-15+0143EDOU V0201601N001010075019N0047001N9+00101-00301999999ADDGA1051+007509059GA2061+009009059MA1101251999999MW1061REMMET013CIG25 WET RWY
0077106330999991972012420004+50050+008333FM-15+0143EDOU V0201801N00261004801CN0018001N9+00101-00301999999ADDGA1081+004809059MA1101191999999MW1711REMMET028CIG16/6SN// HZ PRSNT WET RWY
0060106330999991972012421004+50050+008333FM-15+0143EDOU V0201501N00211005101CN0024001N9+00101-00201999999ADDGA1081+005109059MA1101121999999MW1061REMMET011CIG17 LSR19
0069106330999991972012422004+50050+008333FM-15+0143EDOU V0201601N00151004801CN0024001N9+00101-00201999999ADDGA1081+004809059MA1101051999999MW1701REMMET020CIG16 HZ PRSNT LSR19
0075106330999991972012423004+50050+008333FM-15+0143EDOU V0201701N00151004801CN0020001N9+00101-00201999999ADDGA1081+004809079MA1101021999999MW1711REMMET026CIG16/4SN// HZ PRSNT LSR19
0107106330999991972012500004+50050+008333FM-15+0143EDOU V0201601N002110024019N0017001N9+00101-00201999999ADDGA1021+001209079GA2061+002409079GA3071+004809059MA1100911999999MW1711REMMET026CIG08/5SN// HZ PRSNT LSR19
0094106330999991972012501004+50050+008333FM-15+0143EDOU V0201501N002610009019N0011001N9+00101-00201999999ADDGA1061+000909079GA2061+001809079MA1100851999999MW1711REMMET029CIG03/6SN// HZ PRSNT LSRSLR12
0094106330999991972012502004+50050+008333FM-15+0143EDOU V0201501N002610009019N0011001N9+00101-00201999999ADDGA1081+000909079GA2061+001809079MA1100811999999MW1711REMMET029CIG03/6SN// HZ PRSNT LSRSLR12
0078106330999991972012503004+50050+008333FM-15+0143EDOU V0201501N00261000901CN0011001N9+00101-00201999999ADDGA1081+000909079MA1100711999999MW1711REMMET029CIG03/6SN// HZ PRSNT LSRSLR12
0079106330999991972012504004+50050+008333FM-15+0143EDOU V0201701N00211000901CN0009001N9+00101-00201999999ADDGA1081+000909079MA1100711999999MW1731REMMET030CIG03 RGD 6SN// FG PRSNT LSR07
0073106330999991972012505004+50050+008333FM-15+0143EDOU V0201801N00211000901CN0013001N9+00101-00201999999ADDGA1081+000909079MA1100681999999MW1681REMMET024CIG03 RGD FG PRSNT LSR07
0095106330999991972012506004+50050+008333FM-15+0143EDOU V0209991C000010012019N0013001N9+00101-00201999999ADDGA1051+001209079GA2031+001809079MA1100681999999MW1711REMMET030CIG04 RGD FG PRSNT 90402 LSR10
0091106330999991972012507004+50050+008333FM-15+0143EDOU V0209991C000010012019N0013001N9+00101-00201999999ADDGA1051+001209079GA2041+001809079MA1100681999999MW1711REMMET026CIG04/2SN// FG PRSNT LSR10
0082106330999991972012508004+50050+008333FM-15+0143EDOU V0209991C000010018019N0009001N9+00101-00201999999ADDGA1031+000909079GA2051+001809079MA1100751999999MW1711REMMET017CIG06/3FG// LSR15
0082106330999991972012509004+50050+008333FM-15+0143EDOU V0209991C000010018019N0009001N9+00101-00201999999ADDGA1021+000909079GA2061+001809079MA1100781999999MW1711REMMET017CIG06/3FG// LSR15
