0060106405999991972010306004+50183+008650FM-15+0104EDEN V0200301N00151007501CN0090001N9+00101-00101999999ADDGA1081+007509059MA1101421999999MW1061REMMET011CIG25/90500
0054106405999991972010307004+50183+008650FM-15+0104EDEN V0209991V00151007501CN0090001N9+00201-00101999999ADDGA1081+007509059MA1101521999999MW1061REMMET005CIG25
0054106405999991972010308004+50183+008650FM-15+0104EDEN V0200401N00261006001CN0090001N9+00201+00101999999ADDGA1081+006009059MA1101521999999MW1061REMMET005CIG20
0054106405999991972010309004+50183+008650FM-15+0104EDEN V0200601N00311004801CN0090001N9+00101-00101999999ADDGA1081+004809059MA1101491999999MW1061REMMET005CIG16
0054106405999991972010310004+50183+008650FM-15+0104EDEN V0200601N00211004801CN0090001N9+00201-00101999999ADDGA1081+004809059MA1101561999999MW1061REMMET005CIG16
0054106405999991972010311004+50183+008650FM-15+0104EDEN V0200401N00211004801CN0070001N9+00201-00101999999ADDGA1081+004809059MA1101521999999MW1061REMMET005CIG16
0066106405999991972010312004+50183+008650FM-15+0104EDEN V0200401N00311005401CN0070001N9+00201-00101999999ADDGA1071+005409059MA1101391999999MW1061REMMET017CIG18 BINOVC OVHD
0054106405999991972010313004+50183+008650FM-15+0104EDEN V0200601N00101006001CN0070001N9+00201-00101999999ADDGA1081+006009059MA1101421999999MW1061REMMET005CIG20
0054106405999991972010314004+50183+008650FM-15+0104EDEN V0209991C00001006001CN0070001N9+00201-00101999999ADDGA1081+006009059MA1101521999999MW1061REMMET005CIG20
0054106405999991972010315004+50183+008650FM-15+0104EDEN V0200901N00101005401CN0070001N9+00201+00001999999ADDGA1081+005409059MA1101591999999MW1061REMMET005CIG18
0070106405999991972010316004+50183+008650FM-15+0104EDEN V0209991C000010054019N0070001N9+00201+00001999999ADDGA1021+004209059GA2081+005409059MA1101591999999MW1061REMMET005CIG18
0082106405999991972010406004+50183+008650FM-15+0104EDEN V0202101N00101006001CN0070001N9+00201+00101999999ADDGA1081+006009059MA1101761999999MW1601REMMET033CIG20 FG PRSNT PCPN VRY LGT/90501
0068106405999991972010407004+50183+008650FM-15+0104EDEN V0202101N00411006001CN0070001N9+00201+00101999999ADDGA1081+006009059MA1101801999999MW1441REMMET019CIG20 HZ PRSNT RERA
0079106405999991972010408004+50183+008650FM-15+0104EDEN V0201901N005110060019N0070001N9+00301+00201999999ADDGA1061+006009059GA2081+012009059MA1101831999999MW1441REMMET014CIG20 HZ PRSNT
0079106405999991972010409004+50183+008650FM-15+0104EDEN V0202001N005110075019N0070001N9+00301+00201999999ADDGA1051+007509059GA2081+012009059MA1101831999999MW1611REMMET014CIG25 HZ PRSNT
0079106405999991972010410004+50183+008650FM-15+0104EDEN V0202001N006210075019N0060001N9+00301+00301999999ADDGA1051+999999059GA2081+012009059MA1101801999999MW1611REMMET014CIG25 HZ PRSNT
0090106405999991972010411004+50183+008650FM-15+0104EDEN V0202001N006210090019N0060001N9+00301+00301999999ADDGA1041+003009079GA2081+009009059MA1101861999999MW1611REMMET025CIG30 OCNL CIG10 FG PRSNT
0096106405999991972010412004+50183+008650FM-15+0104EDEN V0202101N006210090019N0070001N9+00301+00201999999ADDGA1041+003009079GA2071+009009059MA1101801999999MW1611REMMET031CIG30 RA OCNLY VRY LGT FG PRSNT
0090106405999991972010413004+50183+008650FM-15+0104EDEN V0202201N007210036019N0070001N9+00301+00301999999ADDGA1051+003609079GA2061+007509059MA1101801999999MW1611REMMET025CIG12 RA VRY LGT FG PRSNT
0090106405999991972010414004+50183+008650FM-15+0104EDEN V0202001N006210036019N0070001N9+00301+00201999999ADDGA1051+003609079GA2081+007509059MA1101801999999MW1611REMMET025CIG12 RA VRY LGT FG PRSNT
0106106405999991972010415004+50183+008650FM-15+0104EDEN V0201901N005110075019N0070001N9+00201+00101999999ADDGA1031+003609079GA2041+007509059GA3061+012009059MA1101861999999MW1611REMMET025CIG25 RA VRY LGT FG PRSNT
0106106405999991972010416004+50183+008650FM-15+0104EDEN V0202001N005110075019N0070001N9+00201+00101999999ADDGA1041+003609079GA2051+007509059GA3081+012009059MA1101931999999MW1611REMMET025CIG25 RA VRY LGT FG PRSNT
0060106405999991972010506004+50183+008650FM-15+0104EDEN V0209991C00001007501CN0070001N9+00201+00101999999ADDGA1081+007509059MA1102201999999MW1441REMMET011CIG25/90502
0070106405999991972010507004+50183+008650FM-15+0104EDEN V0209991C000010075019N0070001N9+00201+00101999999ADDGA1061+007509059GA2081+015009059MA1102241999999MW1441REMMET005CIG25
0070106405999991972010508004+50183+008650FM-15+0104EDEN V0200901N001510150019N0060001N9+00201+00001999999ADDGA1021+007509059GA2051+015009059MA1102271999999MW1461REMMET005CIG50
0070106405999991972010509004+50183+008650FM-15+0104EDEN V0200901N001010240019N0070001N9+00101+00001999999ADDGA1011+008409059GA2051+024009039MA1102341999999MW1421REMMET005CIG80
0040106405999991972010510004+50183+008650FM-15+0104EDEN V0201101N00211220001CN0070001N9+00301+00201999999ADDGA1031+024009039MA1102341999999MW1441
0057106405999991972010511004+50183+008650FM-15+0104EDEN V0200601N00101220001CN0070001N9+00301+00101999999ADDGA1031+024009039MA1102271999999MW1441REMMET008HZ PRSNT
0040106405999991972010512004+50183+008650FM-15+0104EDEN V0200601N00151220001CN0070001N9+00401+00101999999ADDGA1041+024009039MA1102201999999MW1061
0054106405999991972010513004+50183+008650FM-15+0104EDEN V0209991C00001024001CN0070001N9+00401+00101999999ADDGA1051+024009039MA1102171999999MW1061REMMET005CIG80
0040106405999991972010514004+50183+008650FM-15+0104EDEN V0200401N00151220001CN0070001N9+00401+00201999999ADDGA1041+024009039MA1102171999999MW1061
0040106405999991972010515004+50183+008650FM-15+0104EDEN V0200201N00261220001CN0070001N9+00401+00101999999ADDGA1031+024009039MA1102171999999MW1061
0057106405999991972010516004+50183+008650FM-15+0104EDEN V0209991C00001220001CN0045001N9+00401+00201999999ADDGA1021+024009039MA1102171999999MW1111REMMET008HZ PRSNT
0061106405999991972010606004+50183+008650FM-15+0104EDEN V0201001N00311060001CN0070001N9+00001-00101999999ADDGA1081+060009009MA1102101999999MW1441REMMET012CIG200/90504
0071106405999991972010607004+50183+008650FM-15+0104EDEN V0201101N003110600019N0060001N9+00001-00101999999ADDGA1031+001509079GA2081+060009009MA1102131999999MW1461REMMET006CIG200
0070106405999991972010608004+50183+008650FM-15+0104EDEN V0200901N001010018019N0060001N9+00001-00201999999ADDGA1051+001809079GA2081+060009029MA1102131999999MW1441REMMET005CIG06
0070106405999991972010609004+50183+008650FM-15+0104EDEN V0201001N002110015019N0060001N9+00001-00201999999ADDGA1051+001509079GA2081+003609079MA1102131999999MW1441REMMET005CIG05
0085106405999991972010610004+50183+008650FM-15+0104EDEN V0200601N002110015019N0070001N9+00001-00201999999ADDGA1051+001509079GA2081+030009049MA1102131999999MW1421REMMET020CIG05 THN SPTS INOVC
0080106405999991972010611004+50183+008650FM-15+0104EDEN V0200301N003110300019N0070001N9+00001-00201999999ADDGA1021+001809079GA2061+030009049MA1102101999999MW1441REMMET015CIG100 HZ PRSNT
0070106405999991972010612004+50183+008650FM-15+0104EDEN V0200601N001010270019N0070001N9+00001-00201999999ADDGA1031+001809079GA2071+027009049MA1102071999999MW1061REMMET005CIG90
0070106405999991972010613004+50183+008650FM-15+0104EDEN V0200301N001512200019N0070001N9+00101-00201999999ADDGA1011+003009079GA2051+030009049MA1102031999999MW1061REMMET005CIGNO
0071106405999991972010614004+50183+008650FM-15+0104EDEN V0209991C000010600019N0070001N9+00101-00101999999ADDGA1031+036009039GA2051+060009009MA1102031999999MW1061REMMET006CIG200
0087106405999991972010615004+50183+008650FM-15+0104EDEN V0200601N001010360019N0070001N9+00101-00101999999ADDGA1021+021009049GA2031+036009039GA3061+060009009MA1102031999999MW1061REMMET006CIG120
0071106405999991972010616004+50183+008650FM-15+0104EDEN V0201201N001510300019N0060001N9+00101-00101999999ADDGA1031+021009039GA2081+030009049MA1102071999999MW1061REMMET006CIG100
0060106405999991972010706004+50183+008650FM-15+0104EDEN V0200801N00151003601CN0070001N9+00001-00201999999ADDGA1081+003609059MA1102031999999MW1441REMMET011CIG12/90503
0054106405999991972010707004+50183+008650FM-15+0104EDEN V0200701N00101003601CN0060001N9+00001-00201999999ADDGA1081+003609079MA1102031999999MW1461REMMET005CIG12
0070106405999991972010708004+50183+008650FM-15+0104EDEN V0209991C000010036019N0060001N9+00001-00201999999ADDGA1051+003609079GA2081+006009059MA1102071999999MW1441REMMET005CIG12
0094106405999991972010709004+50183+008650FM-15+0104EDEN V0200501N002110036019N0070001N9+00001-00201999999ADDGA1051+003609079GA2081+015009059MA1102031999999MW1421REMMET029CIG12 THN SPTS INOVC HZ PRSNT
0070106405999991972010710004+50183+008650FM-15+0104EDEN V0200401N002110042019N0070001N9+00101-00101999999ADDGA1051+004209079GA2081+015009059MA1102031999999MW1061REMMET005CIG14
0070106405999991972010711004+50183+008650FM-15+0104EDEN V0200301N002110042019N0070001N9+00101-00201999999ADDGA1051+004209079GA2081+015009059MA1102031999999MW1061REMMET005CIG14
0070106405999991972010712004+50183+008650FM-15+0104EDEN V0200301N002110150019N0070001N9+00101-00201999999ADDGA1031+004209079GA2081+015009059MA1102001999999MW1061REMMET005CIG50
0070106405999991972010713004+50183+008650FM-15+0104EDEN V0200501N001510036019N0070001N9+00101-00201999999ADDGA1051+003609079GA2081+006009059MA1101961999999MW1061REMMET005CIG12
0070106405999991972010714004+50183+008650FM-15+0104EDEN V0200201N000510048019N0070001N9+00101-00301999999ADDGA1041+003009079GA2081+004809059MA1101931999999MW1061REMMET005CIG16
0070106405999991972010715004+50183+008650FM-15+0104EDEN V0200401N001010060019N0070001N9+00101-00301999999ADDGA1031+003609079GA2081+006009059MA1101961999999MW1061REMMET005CIG20
0070106405999991972010716004+50183+008650FM-15+0104EDEN V0200801N000510060019N0070001N9+00101-00201999999ADDGA1031+003609079GA2081+006009059MA1101961999999MW1061REMMET005CIG20
0096106405999991972011006004+50183+008650FM-15+0104EDEN V0200801N001010075019N0018001N9+00101+00101999999ADDGA1021+004509079GA2081+007509059MA1101901999999MW1601REMMET031CIG25 FG PRSNT RA VRY LGT/90502
0092106405999991972011007004+50183+008650FM-15+0104EDEN V0209991C000010075019N0015001N9+00101+00101999999ADDGA1041+004509079GA2081+007509059MA1101931999999MW1581REMMET027CIG25 FG PRSNT PCPN VRY LGT
0074106405999991972011008004+50183+008650FM-15+0104EDEN V0200301N00101002401CN0011001N9+00201+00201999999ADDGA1081+002409079MA1101961999999MW1601REMMET025CIG08 FG PRSNT RA VRY LGT
0086106405999991972011009004+50183+008650FM-15+0104EDEN V0209991C00001002401CN0011001N9+00201+00201999999ADDGA1081+002409079MA1102001999999MW1601REMMET037CIG08 VIS NW 1900 FG PRSNT RA VRY LGT
0084106405999991972011010004+50183+008650FM-15+0104EDEN V0209991C00001002401CN0011001N9+00201+00201999999ADDGA1081+002409079MA1102001999999MW1611REMMET035CIG08 FG PRSNT RA VRY LGT OCNLY LGT
0074106405999991972011011004+50183+008650FM-15+0104EDEN V0209991C00001002401CN0011001N9+00201+00201999999ADDGA1081+002409079MA1101961999999MW1611REMMET025CIG08 FG PRSNT RA VRY LGT
0075106405999991972011012004+50183+008650FM-15+0104EDEN V0209991C00001002401CN0011001N9+00201+00201999999ADDGA1081+002409079MA1101931999999MW1611REMMET026CIG08 VIS NW 1900 FG PRSNT
0075106405999991972011013004+50183+008650FM-15+0104EDEN V0200601N00101003001CN0011001N9+00201+00101999999ADDGA1081+003009079MA1101931999999MW1611REMMET026CIG10 VIS SE 0700 FG PRSNT
0083106405999991972011014004+50183+008650FM-15+0104EDEN V0209991C00001003001CN0011001N9+00201+00201999999ADDGA1081+003009079MA1101931999999MW1611REMMET034CIG10 VIS SE 0600 NW 1500 FG PRSNT
0075106405999991972011015004+50183+008650FM-15+0104EDEN V0209991C00001003001CN0009001N9+00201+00201999999ADDGA1081+003009079MA1101931999999MW1611REMMET026CIG10 VIS SE 0600 FG PRSNT
0074106405999991972011016004+50183+008650FM-15+0104EDEN V0209991C00001002701CN0009001N9+00201+00201999999ADDGA1081+002709079MA1101931999999MW1511REMMET025CIG09 FG PRSNT DZ VRY LGT
0086106405999991972011106004+50183+008650FM-15+0104EDEN V0209991C00001000301CN0001001N9+00301+00301999999ADDGA1091+000309999GF109991999999999999999999MA1102031999999MW1451REMMET011CIG01/90502
0080106405999991972011107004+50183+008650FM-15+0104EDEN V0209991C00001000301CN0001001N9+00301+00301999999ADDGA1091+000309999GF109991999999999999999999MA1102001999999MW1451REMMET005CIG01
0060106405999991972011108004+50183+008650FM-15+0104EDEN V0209991C00001001201CN0004001N9+00301+00301999999ADDGA1081+001209079MA1102031999999MW1421REMMET011CIG04 5FG//
0060106405999991972011109004+50183+008650FM-15+0104EDEN V0209991C00001001201CN0004001N9+00301+00301999999ADDGA1081+001209079MA1102001999999MW1441REMMET011CIG04 5FG//
0060106405999991972011110004+50183+008650FM-15+0104EDEN V0209991C00001001201CN0007001N9+00301+00301999999ADDGA1081+001209079MA1101961999999MW1421REMMET011CIG04 4FG//
0060106405999991972011111004+50183+008650FM-15+0104EDEN V0209991C00001001501CN0009001N9+00401+00401999999ADDGA1081+001509079MA1101931999999MW1421REMMET011CIG05 3FG//
0072106405999991972011112004+50183+008650FM-15+0104EDEN V0209991C00001001501CN0013001N9+00501+00401999999ADDGA1081+001509079MA1101831999999MW1421REMMET023CIG05 2FG// VIS NW 1900
0083106405999991972011113004+50183+008650FM-15+0104EDEN V0209991C00001001501CN0015001N9+00501+00401999999ADDGA1081+001509079MA1101801999999MW1421REMMET034CIG05 1FG// /5SE 13OVC/VIS NW 1900
0054106405999991972011114004+50183+008650FM-15+0104EDEN V0209991C00001002101CN0018001N9+00601+00501999999ADDGA1081+002109079MA1101731999999MW1421REMMET005CIG07
0079106405999991972011115004+50183+008650FM-15+0104EDEN V0200601N001510024019N0045001N9+00601+00401999999ADDGA1061+002409079GA2081+004509059MA1101691999999MW1421REMMET014CIG08 HZ PRSNT
0079106405999991972011116004+50183+008650FM-15+0104EDEN V0200901N002110024019N0048001N9+00501+00401999999ADDGA1051+002409079GA2081+004509059MA1101691999999MW1421REMMET014CIG08 HZ PRSNT
0076106405999991972011206004+50183+008650FM-15+0104EDEN V0200501N003110075019N0100001N9+00501+00301999999ADDGA1051+007509059GA2081+024009049MA1101521999999MW1001REMMET011CIG25/90502
0070106405999991972011207004+50183+008650FM-15+0104EDEN V0200901N002110060019N0100001N9+00401+00301999999ADDGA1061+006009059GA2081+024009049MA1101561999999MW1001REMMET005CIG20
0070106405999991972011208004+50183+008650FM-15+0104EDEN V0200901N002110060019N0090001N9+00401+00401999999ADDGA1061+006009059GA2081+024009049MA1101591999999MW1461REMMET005CIG20
0054106405999991972011209004+50183+008650FM-15+0104EDEN V0200901N00211005101CN0090001N9+00401+00301999999ADDGA1081+005109059MA1101591999999MW1441REMMET005CIG17
0070106405999991972011210004+50183+008650FM-15+0104EDEN V0201001N002110051019N0090001N9+00401+00301999999ADDGA1061+005109059GA2081+021009049MA1101591999999MW1441REMMET005CIG17
0090106405999991972011211004+50183+008650FM-15+0104EDEN V0209991C000010051019N0070001N9+00401+00301999999ADDGA1061+005109059GA2081+021009049MA1101591999999MW1601REMMET025CIG17 FG PRSNT RA VRY LGT
0074106405999991972011212004+50183+008650FM-15+0104EDEN V0201101N00101004501CN0070001N9+00601+00501999999ADDGA1081+004509059MA1101561999999MW1611REMMET025CIG15 FG PRSNT RA VRY LGT
0090106405999991972011213004+50183+008650FM-15+0104EDEN V0200701N002110045019N0070001N9+00601+00601999999ADDGA1071+004509059GA2081+021009049MA1101521999999MW1611REMMET025CIG15 FG PRSNT RA VRY LGT
0059106405999991972011214004+50183+008650FM-15+0104EDEN V0200901N00311005401CN0070001N9+00501+00501999999ADDGA1081+005409059MA1101521999999MW1441REMMET010CIG18 RERA
0071106405999991972011215004+50183+008650FM-15+0104EDEN V0200901N00151003901CN0070001N9+00401+00401999999ADDGA1081+003909059MA1101561999999MW1441REMMET022CIG13 INTMT VRY LGT RA
0054106405999991972011216004+50183+008650FM-15+0104EDEN V0200701N00261003901CN0060001N9+00401+00401999999ADDGA1081+003909059MA1101561999999MW1461REMMET005CIG13
0060106405999991972011306004+50183+008650FM-15+0104EDEN V0200801N00211007501CN0090001N9+00201+00101999999ADDGA1081+007509059MA1101631999999MW1061REMMET011CIG25/90501
0054106405999991972011307004+50183+008650FM-15+0104EDEN V0200601N00151009001CN0090001N9+00201+00101999999ADDGA1081+009009059MA1101631999999MW1061REMMET005CIG30
0070106405999991972011308004+50183+008650FM-15+0104EDEN V0201201N001010090019N0070001N9+00101-00101999999ADDGA1051+009009059GA2071+024009039MA1101631999999MW1061REMMET005CIG30
0054106405999991972011309004+50183+008650FM-15+0104EDEN V0201101N00311009001CN0070001N9+00101+00001999999ADDGA1081+009009059MA1101691999999MW1061REMMET005CIG30
0063106405999991972011310004+50183+008650FM-15+0104EDEN V0201001N00311010501CN0070001N9+00201+00001999999ADDGA1081+010509059MA1101691999999MW1061REMMET014CIG35 FU PRSNT
0054106405999991972011311004+50183+008650FM-15+0104EDEN V0200901N00411010501CN0070001N9+00201+00001999999ADDGA1081+010509059MA1101661999999MW1061REMMET005CIG35
0054106405999991972011312004+50183+008650FM-15+0104EDEN V0200901N00311010501CN0070001N9+00201+00001999999ADDGA1081+010509059MA1101591999999MW1061REMMET005CIG35
0067106405999991972011313004+50183+008650FM-15+0104EDEN V0201201N00311010501CN0070001N9+00301+00101999999ADDGA1071+010509059MA1101591999999MW1061REMMET018CIG35 BINOVC ALQDS
0070106405999991972011314004+50183+008650FM-15+0104EDEN V0201201N005110105019N0070001N9+00201-00101999999ADDGA1061+010509059GA2031+021009039MA1101561999999MW1061REMMET005CIG35
0054106405999991972011315004+50183+008650FM-15+0104EDEN V0201201N00411012001CN0070001N9+00201-00201999999ADDGA1071+012009059MA1101561999999MW1061REMMET005CIG40
0092106405999991972011316004+50183+008650FM-15+0104EDEN V0201201N004110105019N0070001N9+00201-00201999999ADDGA1051+010509059GA2041+036009039GA3051+060009029MA1101561999999MW1061REMMET011CIG35/1FU10
0060106405999991972011406004+50183+008650FM-15+0104EDEN V0201201N00311007501CN0100001N9+00001-00201999999ADDGA1081+007509059MA1101421999999MW1001REMMET011CIG25/90500
0054106405999991972011407004+50183+008650FM-15+0104EDEN V0201301N00211004501CN0100001N9+00001-00201999999ADDGA1081+004509059MA1101421999999MW1001REMMET005CIG15
0054106405999991972011408004+50183+008650FM-15+0104EDEN V0200901N00261004501CN0090001N9+00001-00201999999ADDGA1081+004509059MA1101421999999MW1061REMMET005CIG15
0054106405999991972011409004+50183+008650FM-15+0104EDEN V0201101N00311004501CN0090001N9+00001-00201999999ADDGA1081+004509059MA1101421999999MW1061REMMET005CIG15
0054106405999991972011410004+50183+008650FM-15+0104EDEN V0201201N00211004501CN0090001N9+00101-00201999999ADDGA1081+004509059MA1101491999999MW1061REMMET005CIG15
0054106405999991972011411004+50183+008650FM-15+0104EDEN V0200901N00261004501CN0090001N9+00101-00201999999ADDGA1081+004509059MA1101491999999MW1061REMMET005CIG15
0054106405999991972011412004+50183+008650FM-15+0104EDEN V0201001N00311004501CN0090001N9+00101-00201999999ADDGA1081+004509059MA1101461999999MW1061REMMET005CIG15
0084106405999991972011413004+50183+008650FM-15+0104EDEN V0200601N00151004501CN0090001N9+00201-00201999999ADDGA1081+004509079MA1101461999999MW1061REMMET035CIG15 VIS W-N 7000 SUN VSB THRU OVC
0065106405999991972011414004+50183+008650FM-15+0104EDEN V0200601N00151004501CN0060001N9+00201-00201999999ADDGA1081+004509079MA1101421999999MW1061REMMET016CIG15 VIS E 4500
0063106405999991972011415004+50183+008650FM-15+0104EDEN V0209991V00211006001CN0037001N9+00101-00201999999ADDGA1081+006009079MA1101421999999MW1061REMMET014CIG20 FU PRSNT
0079106405999991972011416004+50183+008650FM-15+0104EDEN V0209991V00261006001CN0037001N9+00101-00201999999ADDGA1081+006009079MA1101421999999MW1061REMMET030CIG20 FU PRSNT THN SPOTS INOVC
0054106405999991972011706004+50183+008650FM-15+0104EDEN V0200601N00211220001CN0100001N9-00801-01001999999ADDGA1031+060009009MA1100581999999MW1001REMMET00590503
0040106405999991972011707004+50183+008650FM-15+0104EDEN V0200401N00411220001CN0090001N9-00801-01101999999ADDGA1031+060009009MA1100581999999MW1061
0040106405999991972011708004+50183+008650FM-15+0104EDEN V0200501N00311220001CN0090001N9-00801-01201999999ADDGA1041+060009009MA1100581999999MW1061
0075106405999991972011709004+50183+008650FM-15+0104EDEN V0209991V00511220001CN0100001N9-00701-01101999999ADDGA1061+060009009MA1100581999999MW1001REMMET026CIGNO WND 030V090 HZ PRSNT
0063106405999991972011710004+50183+008650FM-15+0104EDEN V0200701N00621220001CN0100001N9-00701-01001999999ADDGA1061+060009009MA1100581999999MW1001REMMET014CIGNO HZ PRSNT
0063106405999991972011711004+50183+008650FM-15+0104EDEN V0200601N00721220001CN0100001N9-00601-01101999999ADDGA1061+060009009MA1100511999999MW1001REMMET014CIGNO HZ PRSNT
0063106405999991972011712004+50183+008650FM-15+0104EDEN V0200501N00621220001CN0100001N9-00501-01001999999ADDGA1051+060009009MA1100441999999MW1001REMMET014CIGNO HZ PRSNT
0040106405999991972011713004+50183+008650FM-15+0104EDEN V0200801N00621220001CN0100001N9-00401-00901999999ADDGA1041+060009009MA1100371999999MW1001
0054106405999991972011714004+50183+008650FM-15+0104EDEN V0200801N00721220001CN0100001N9-00401-01001999999ADDGA1061+060009009MA1100371999999MW1001REMMET005CIGNO
0054106405999991972011715004+50183+008650FM-15+0104EDEN V0200801N00411220001CN0100001N9-00401-00901999999ADDGA1071+060009009MA1100411999999MW1001REMMET005CIGNO
0054106405999991972011716004+50183+008650FM-15+0104EDEN V0200701N00721220001CN0100001N9-00501-01101999999ADDGA1071+060009009MA1100441999999MW1001REMMET005CIGNO
0040106405999991972011806004+50183+008650FM-15+0104EDEN V0200301N00311220001CN0090001N9-01201-01501999999ADDGA1021+060009009MA1100911999999MW1061
0040106405999991972011807004+50183+008650FM-15+0104EDEN V0200401N00461220001CN0070001N9-01201-01501999999ADDGA1011+060009009MA1100951999999MW1061
0041106405999991972011808004+50183+008650FM-15+0104EDEN V0200501N00361220001CN0060001N9-01101-01301999999ADDMA1101051999999MW1061REMMET008FU PRSNT
0041106405999991972011809004+50183+008650FM-15+0104EDEN V0200401N00411220001CN0060001N9-01001-01101999999ADDMA1101081999999MW1061REMMET008FU PRSNT
0041106405999991972011810004+50183+008650FM-15+0104EDEN V0200201N00411220001CN0060001N9-00901-01101999999ADDMA1101151999999MW1061REMMET008FU PRSNT
0041106405999991972011811004+50183+008650FM-15+0104EDEN V0200501N00311220001CN0060001N9-00801-01201999999ADDMA1101151999999MW1061REMMET008FU PRSNT
0024106405999991972011812004+50183+008650FM-15+0104EDEN V0200601N00211220001CN0070001N9-00701-01201999999ADDMA1101151999999MW1061
0040106405999991972011813004+50183+008650FM-15+0104EDEN V0200601N00101220001CN0070001N9-00601-01201999999ADDGA1011+060009009MA1101151999999MW1061
0040106405999991972011814004+50183+008650FM-15+0104EDEN V0203601N00101220001CN0070001N9-00501-01001999999ADDGA1011+060009009MA1101191999999MW1061
0024106405999991972011815004+50183+008650FM-15+0104EDEN V0200401N00051220001CN0070001N9-00501-01001999999ADDMA1101221999999MW1061
0024106405999991972011816004+50183+008650FM-15+0104EDEN V0209991C00001220001CN0070001N9-00601-00901999999ADDMA1101291999999MW1061
0038106405999991972011906004+50183+008650FM-15+0104EDEN V0209991C00001220001CN0060001N9-00901-01101999999ADDMA1101391999999MW1061REMMET00590503
0024106405999991972011907004+50183+008650FM-15+0104EDEN V0209991C00001220001CN0045001N9-00901-01001999999ADDMA1101391999999MW1481
0040106405999991972011908004+50183+008650FM-15+0104EDEN V0201901N00211220001CN0022001N9-00801-00901999999ADDGA1041+060009009MA1101461999999MW1481
0054106405999991972011909004+50183+008650FM-15+0104EDEN V0202101N00211220001CN0022001N9-00701-00901999999ADDGA1031+060009009MA1101461999999MW1441REMMET0051FG//
0055106405999991972011910004+50183+008650FM-15+0104EDEN V0202101N00361060001CN0022001N9-00601-00901999999ADDGA1061+060009029MA1101461999999MW1441REMMET006CIG200
0061106405999991972011911004+50183+008650FM-15+0104EDEN V0202101N00411060001CN0018001N9-00501-00801999999ADDGA1071+060009029MA1101351999999MW1461REMMET012CIG200/1FG//
0076106405999991972011912004+50183+008650FM-15+0104EDEN V0202201N002110060019N0018001N9-00501-00801999999ADDGA1051+006009059GA2081+030009049MA1101321999999MW1441REMMET011CIG20/2FG//
0076106405999991972011913004+50183+008650FM-15+0104EDEN V0202101N002110060019N0018001N9-00401-00701999999ADDGA1051+006009059GA2081+030009049MA1101251999999MW1441REMMET011CIG20/2FG//
0092106405999991972011914004+50183+008650FM-15+0104EDEN V0202101N001010054019N0015001N9-00301-00601999999ADDGA1011+003609079GA2061+005409059GA3081+024009049MA1101251999999MW1461REMMET011CIG18/2FG//
0092106405999991972011915004+50183+008650FM-15+0104EDEN V0202401N003110045019N0015001N9-00301-00701999999ADDGA1021+003609059GA2061+004509059GA3081+009009059MA1101251999999MW1441REMMET011CIG15/2FG//
0076106405999991972011916004+50183+008650FM-15+0104EDEN V0202101N001510045019N0011001N9-00301-00701999999ADDGA1031+003609059GA2081+004509059MA1101251999999MW1461REMMET011CIG15/3FG//
0060106405999991972012006004+50183+008650FM-15+0104EDEN V0209991C00001005401CN0018001N9+00001-00101999999ADDGA1081+005409059MA1100911999999MW1441REMMET011CIG18/90501
0054106405999991972012007004+50183+008650FM-15+0104EDEN V0209991C00001005401CN0018001N9+00201+00001999999ADDGA1081+005409059MA1100911999999MW1441REMMET005CIG18
0070106405999991972012008004+50183+008650FM-15+0104EDEN V0209991C000010240019N0018001N9+00101-00101999999ADDGA1031+004509059GA2061+024009039MA1100911999999MW1441REMMET005CIG80
0096106405999991972012009004+50183+008650FM-15+0104EDEN V0200901N000510600019N0047001N9+00201-00101999999ADDGA1021+006009059GA2031+024009039GA3061+060009009MA1100851999999MW1421REMMET015CIG200 HZ PRSNT
0040106405999991972012010004+50183+008650FM-15+0104EDEN V0201001N00211220001CN0037001N9+00201-00201999999ADDGA1021+060009009MA1100781999999MW1061
0040106405999991972012011004+50183+008650FM-15+0104EDEN V0201101N00211220001CN0047001N9+00301-00101999999ADDGA1021+060009009MA1100711999999MW1061
0040106405999991972012012004+50183+008650FM-15+0104EDEN V0201201N00311220001CN0047001N9+00401-00301999999ADDGA1041+060009019MA1100611999999MW1061
0071106405999991972012013004+50183+008650FM-15+0104EDEN V0200301N002110600019N0047001N9+00401-00401999999ADDGA1041+045009039GA2031+060009009MA1100611999999MW1061REMMET006CIG200
0040106405999991972012014004+50183+008650FM-15+0104EDEN V0201201N00311220001CN0047001N9+00401-00401999999ADDGA1031+045009039MA1100511999999MW1061
0056106405999991972012015004+50183+008650FM-15+0104EDEN V0201201N002112200019N0037001N9+00401-00301999999ADDGA1011+045009039GA2031+060009009MA1100511999999MW1061
0075106405999991972012016004+50183+008650FM-15+0104EDEN V0209991C00001220001CN0037001N9+00201-00201999999ADDGA1011+045009039GA2031+060009009MA1100511999999MW1061REMMET010VIS E 2800
0068106405999991972012106004+50183+008650FM-15+0104EDEN V0209991C00001003601CN0022001N9-00101-00201999999ADDGA1081+003609079MA1100681999999MW1711REMMET019CIG12 WET SNW/90507
0071106405999991972012107004+50183+008650FM-15+0104EDEN V0209991C00001003001CN0009001N9-00101-00101999999ADDGA1081+003009079MA1100781999999MW1711REMMET022CIG10 FG PRSNT WET SNW
0091106405999991972012108004+50183+008650FM-15+0104EDEN V0209991C00001003601CN0007001N9+00001-00101999999ADDGA1081+003609079MA1100911999999MW1711REMMET042CIG12 VIS NE0900 FG PRSNT SN OCNLY VRY LGT
0081106405999991972012109004+50183+008650FM-15+0104EDEN V0209991C00001003601CN0011001N9+00001-00101999999ADDGA1081+003609079MA1101121999999MW1701REMMET032CIG12 FG PRSNT SN VRY LGT PRESRR
0071106405999991972012110004+50183+008650FM-15+0104EDEN V0209991C00001003601CN0007001N9+00101-00101999999ADDGA1081+003609079MA1101191999999MW1711REMMET022CIG12 FG PRSNT WET SNW
0087106405999991972012111004+50183+008650FM-15+0104EDEN V0209991C00001003601CN0007001N9+00201+00001999999ADDGA1081+003609079MA1101291999999MW1711REMMET038CIG12 FG PRSNT SN VRY LGT SUN DMLY VSB
0100106405999991972012112004+50183+008650FM-15+0104EDEN V0209991C000010600019N0009001N9+00201+00001999999ADDGA1041+003609079GA2081+060009029MA1101351999999MW1421REMMET035CIG200 OCNL VRY LGT SN SUN DMLY VSB
0127106405999991972012113004+50183+008650FM-15+0104EDEN V0200301N000510600019N0026001N9+00301+00001999999ADDGA1011+003009079GA2031+012009059GA3081+060009029MA1101321999999MW1421REMMET046CIG200 VSBY W-NW 6000 INCRG RPDLY SUN DMLY VSB
0128106405999991972012114004+50183+008650FM-15+0104EDEN V0200901N001510090019N0037001N9+00301+00001999999ADDGA1011+003009079GA2051+009009059GA3071+060009029MA1101321999999MW1421REMMET047CIG30 BINOVC OVHD OCNL VRY LGT RASH VSBY NW9999
0107106405999991972012115004+50183+008650FM-15+0104EDEN V0200901N001010090019N0037001N9+00201-00201999999ADDGA1011+003609079GA2041+009009059GA3061+060009009MA1101421999999MW1441REMMET026CIG30 HZ PRSNT VSBY NW9000
0114106405999991972012116004+50183+008650FM-15+0104EDEN V0209991C000010090019N0037001N9+00201-00101999999ADDGA1021+003609079GA2051+009009059GA3071+060009009MA1101631999999MW1441REMMET033CIG30 HZ PRSNT VSBY NW9000 PRESRR
0060106405999991972012406004+50183+008650FM-15+0104EDEN V0209991C00001009001CN0070001N9-00101-00201999999ADDGA1081+009009059MA1101931999999MW1441REMMET011CIG30/90505
0054106405999991972012407004+50183+008650FM-15+0104EDEN V0209991C00001009001CN0060001N9+00001+00001999999ADDGA1081+009009059MA1101901999999MW1461REMMET005CIG30
0054106405999991972012408004+50183+008650FM-15+0104EDEN V0209991C00001009001CN0037001N9+00101-00201999999ADDGA1081+009009059MA1101931999999MW1461REMMET005CIG30
0054106405999991972012409004+50183+008650FM-15+0104EDEN V0209991C00001009001CN0030001N9+00101+00001999999ADDGA1081+009009059MA1101831999999MW1461REMMET005CIG30
0083106405999991972012410004+50183+008650FM-15+0104EDEN V0209991C000010090019N0030001N9+00101-00101999999ADDGA1031+003009079GA2081+009009059MA1101801999999MW1441REMMET018CIG30 ST LYR INCRG
0070106405999991972012411004+50183+008650FM-15+0104EDEN V0202101N002110030019N0028001N9+00101-00101999999ADDGA1051+003009079GA2081+009009059MA1101691999999MW1441REMMET005CIG10
0070106405999991972012412004+50183+008650FM-15+0104EDEN V0201901N003110030019N0028001N9+00101-00101999999ADDGA1051+003009079GA2081+009009059MA1101591999999MW1441REMMET005CIG10
0070106405999991972012413004+50183+008650FM-15+0104EDEN V0202001N004110036019N0034001N9+00201-00201999999ADDGA1051+003609079GA2061+009009059MA1101491999999MW1421REMMET005CIG12
0070106405999991972012414004+50183+008650FM-15+0104EDEN V0201901N004110090019N0034001N9+00201-00201999999ADDGA1051+009009059GA2061+012009059MA1101421999999MW1061REMMET005CIG30
0079106405999991972012415004+50183+008650FM-15+0104EDEN V0201801N003110090019N0028001N9+00201-00101999999ADDGA1021+003609079GA2081+009009059MA1101391999999MW1461REMMET014CIG30 HZ PRSNT
0079106405999991972012416004+50183+008650FM-15+0104EDEN V0202101N002110030019N0022001N9+00201-00101999999ADDGA1051+003009079GA2081+008409059MA1101351999999MW1461REMMET014CIG10 HZ PRSNT
0069106405999991972012506004+50183+008650FM-15+0104EDEN V0201201N00261003001CN0011001N9+00001-00101999999ADDGA1081+003009079MA1100641999999MW1711REMMET020CIG10 FG PRSNT/90402
0076106405999991972012507004+50183+008650FM-15+0104EDEN V0201201N00311003001CN0015001N9+00001-00101999999ADDGA1081+003009079MA1100681999999MW1711REMMET027CIG10 FG PRSNT PCPN VRY LGT
0086106405999991972012508004+50183+008650FM-15+0104EDEN V0200901N00211002101CN0011001N9+00001+00001999999ADDGA1081+002109079MA1100751999999MW1711REMMET037CIG07 FG PRSNT PCPN VRY LGT OCNLY LGT
0075106405999991972012510004+50183+008650FM-15+0104EDEN V0201001N00101002101CN0011001N9+00001-00101999999ADDGA1081+002109079MA1100811999999MW1711REMMET026CIG07 VIS SE 0700 FG PRSNT
0076106405999991972012511004+50183+008650FM-15+0104EDEN V0209991C00001002101CN0011001N9+00101-00101999999ADDGA1081+002109079MA1100851999999MW1711REMMET027CIG07 FG PRSNT PCPN VRY LGT
0069106405999991972012512004+50183+008650FM-15+0104EDEN V0209991C00001002101CN0009001N9+00101-00101999999ADDGA1081+002109079MA1100881999999MW1711REMMET020CIG07 FG PRSNT/90402
0063106405999991972012513004+50183+008650FM-15+0104EDEN V0209991C00001002101CN0009001N9+00101-00101999999ADDGA1081+002109079MA1100881999999MW1711REMMET014CIG07 FG PRSNT
0080106405999991972012514004+50183+008650FM-15+0104EDEN V0200601N00101002401CN0009001N9+00101-00101999999ADDGA1081+002409079MA1100951999999MW1711REMMET031CIG08 FG PRSNT SN OCNLY VRY LGT
0074106405999991972012515004+50183+008650FM-15+0104EDEN V0209991C00001002101CN0011001N9+00001-00101999999ADDGA1081+002109079MA1101021999999MW1711REMMET025CIG07 FG PRSNT SN VRY LGT
0063106405999991972012516004+50183+008650FM-15+0104EDEN V0209991C00001002101CN0009001N9+00001-00101999999ADDGA1081+002109079MA1101121999999MW1711REMMET014CIG07 FG PRSNT
0086106405999991972012606004+50183+008650FM-15+0104EDEN V0209991C00001000601CN0002001N9+00001+00001999999ADDGA1091+000609999GF109991999999999999999999MA1101391999999MW1451REMMET011CIG02/90402
0080106405999991972012607004+50183+008650FM-15+0104EDEN V0209991C00001000601CN0002001N9+00001-00101999999ADDGA1091+000609999GF109991999999999999999999MA1101391999999MW1451REMMET005CIG02
0060106405999991972012608004+50183+008650FM-15+0104EDEN V0209991C00001001201CN0004001N9-00101-00201999999ADDGA1081+001209079MA1101391999999MW1421REMMET011CIG04/5FG//
0060106405999991972012609004+50183+008650FM-15+0104EDEN V0201901N00101001501CN0009001N9-00101-00201999999ADDGA1081+001509079MA1101421999999MW1421REMMET011CIG05/3FG//
0073106405999991972012610004+50183+008650FM-15+0104EDEN V0209991C00001002101CN0013001N9-00101-00201999999ADDGA1081+002109079MA1101391999999MW1421REMMET024CIG07/2FG// VSBY NW 1900
0060106405999991972012611004+50183+008650FM-15+0104EDEN V0202001N00151002401CN0015001N9-00101-00201999999ADDGA1081+002409079MA1101321999999MW1421REMMET011CIG08/2FG//
0067106405999991972012612004+50183+008650FM-15+0104EDEN V0202201N00151002401CN0017001N9+00001-00101999999ADDGA1081+002409079MA1101221999999MW1421REMMET018CIG08/2FG// /90402
0060106405999991972012613004+50183+008650FM-15+0104EDEN V0202401N00261002401CN0017001N9+00001-00101999999ADDGA1081+002409079MA1101121999999MW1441REMMET011CIG08/2FG//
0054106405999991972012614004+50183+008650FM-15+0104EDEN V0202701N00101002401CN0022001N9+00101-00101999999ADDGA1081+002409079MA1101051999999MW1421REMMET005CIG08
0082106405999991972012615004+50183+008650FM-15+0104EDEN V0209991C000010024019N0028001N9+00101-00101999999ADDGA1061+002409079GA2071+003609059MA1100911999999MW1421REMMET017CIG08 BINOVC SW-W
0054106405999991972012616004+50183+008650FM-15+0104EDEN V0203201N00101002401CN0028001N9+00101-00101999999ADDGA1081+002409079MA1100851999999MW1441REMMET005CIG08
0082106405999991972012706004+50183+008650FM-15+0104EDEN V0209991C00001002101CN0018001N9+00001+00001999999ADDGA1081+002109079MA1099151999999MW1771REMMET033CIG07 FG PRSNT PCPN VRY LGT/90402
0059106405999991972012707004+50183+008650FM-15+0104EDEN V0202201N00511002101CN0018001N9+00001+00001999999ADDGA1081+002109079MA1099121999999MW1441REMMET010CIG07 RESN
0060106405999991972012708004+50183+008650FM-15+0104EDEN V0202401N00311002101CN0015001N9+00101+00001999999ADDGA1081+002109079MA1099221999999MW1461REMMET011CIG07/1FG//
0054106405999991972012709004+50183+008650FM-15+0104EDEN V0201601N00211002401CN0022001N9+00201+00101999999ADDGA1081+002409079MA1099261999999MW1421REMMET005CIG08
0054106405999991972012710004+50183+008650FM-15+0104EDEN V0201801N00261002401CN0034001N9+00201+00101999999ADDGA1081+002409079MA1099321999999MW1421REMMET005CIG08
0089106405999991972012711004+50183+008650FM-15+0104EDEN V0202001N005110054019N0047001N9+00201+00001999999ADDGA1041+003009079GA2071+005409059MA1099391999999MW1421REMMET024CIG18 HZ PRSNT BINOVC SE
0098106405999991972012712004+50183+008650FM-15+0104EDEN V0201901N007210075019N0060001N9+00201+00001999999ADDGA1041+003609079GA2081+007509059MA1099391999999MW1801REMMET033CIG25 FG PRSNT PCPN VRY LGT/90402
0079106405999991972012713004+50183+008650FM-15+0104EDEN V0201801N006210075019N0070001N9+00201+00101999999ADDGA1031+003609079GA2081+007509059MA1099361999999MW1601REMMET014CIG25 FG PRSNT
0079106405999991972012714004+50183+008650FM-15+0104EDEN V0202101N003110036019N0070001N9+00201+00101999999ADDGA1051+003609079GA2081+008409059MA1099391999999MW1611REMMET014CIG12 FG PRSNT
0091106405999991972012715004+50183+008650FM-15+0104EDEN V0202001N004110084019N0070001N9+00201+00001999999ADDGA1021+003609079GA2051+008409059GA3061+060009029MA1099461999999MW1441REMMET010CIG28 RERA
0070106405999991972012716004+50183+008650FM-15+0104EDEN V0202101N004110090019N0090001N9+00301+00101999999ADDGA1051+009009059GA2081+060009029MA1099531999999MW1421REMMET005CIG30
0076106405999991972012806004+50183+008650FM-15+0104EDEN V0209991C000010210019N0090001N9+00301+00101999999ADDGA1021+010509059GA2041+021009039MA1100711999999MW1061REMMET011CIG70/90505
0070106405999991972012807004+50183+008650FM-15+0104EDEN V0200201N002110105019N0100001N9+00301+00101999999ADDGA1061+010509059GA2031+021009039MA1100781999999MW1001REMMET005CIG35
0070106405999991972012808004+50183+008650FM-15+0104EDEN V0200501N001510210019N0100001N9+00301+00101999999ADDGA1011+004509059GA2061+075009009MA1100911999999MW1001REMMET005CIG70
0086106405999991972012809004+50183+008650FM-15+0104EDEN V0200501N003610210019N0090001N9+00301+00001999999ADDGA1021+004509059GA2041+021009039GA3061+075009009MA1100951999999MW1061REMMET005CIG70
0070106405999991972012810004+50183+008650FM-15+0104EDEN V0200301N003112200019N0100001N9+00401+00001999999ADDGA1011+004509059GA2061+075009009MA1100981999999MW1001REMMET005CIGNO
0070106405999991972012811004+50183+008650FM-15+0104EDEN V0200301N005110150019N0090001N9+00401+00001999999ADDGA1011+004509059GA2071+015009059MA1100981999999MW1061REMMET005CIG50
0066106405999991972012812004+50183+008650FM-15+0104EDEN V0209991V00621012001CN0028001N9+00301+00001999999ADDGA1081+012009059MA1101021999999MW1461REMMET017CIG40 WND 360V060
0054106405999991972012813004+50183+008650FM-15+0104EDEN V0200201N00511009001CN0028001N9+00301+00001999999ADDGA1081+009009059MA1101021999999MW1441REMMET005CIG30
0054106405999991972012814004+50183+008650FM-15+0104EDEN V0200301N00511009001CN0034001N9+00301+00101999999ADDGA1081+009009059MA1101021999999MW1421REMMET005CIG30
0054106405999991972012815004+50183+008650FM-15+0104EDEN V0200301N00621006001CN0037001N9+00201+00101999999ADDGA1081+006009059MA1101081999999MW1421REMMET005CIG20
0054106405999991972012816004+50183+008650FM-15+0104EDEN V0200201N00511006001CN0037001N9+00201+00101999999ADDGA1081+006009059MA1101151999999MW1441REMMET005CIG20
0082106405999991972013106004+50183+008650FM-15+0104EDEN V0202501N00211003001CN0037001N9-00901-01101999999ADDGA1051+003009079MA1101801999999MW1701REMMET033CIG10 FG PRSNT PCPN VRY LGT/90509
0053106405999991972013107004+50183+008650FM-15+0104EDEN V0202101N00211220001CN0037001N9-00901-01101999999ADDGA1031+003009079MA1101831999999MW1441REMMET004RESN
0040106405999991972013108004+50183+008650FM-15+0104EDEN V0202201N00211220001CN0028001N9-00901-01201999999ADDGA1041+003009079MA1101861999999MW1461
0040106405999991972013109004+50183+008650FM-15+0104EDEN V0201901N00101220001CN0022001N9-00801-01101999999ADDGA1031+003009079MA1101931999999MW1461
0024106405999991972013110004+50183+008650FM-15+0104EDEN V0201901N00311220001CN0022001N9-00701-01001999999ADDMA1101931999999MW1061
0040106405999991972013111004+50183+008650FM-15+0104EDEN V0202001N00261220001CN0034001N9-00601-01001999999ADDGA1011+009009059MA1101961999999MW1061
0040106405999991972013112004+50183+008650FM-15+0104EDEN V0202101N00411220001CN0034001N9-00601-00901999999ADDGA1021+009009059MA1101931999999MW1061
0040106405999991972013113004+50183+008650FM-15+0104EDEN V0202401N00511220001CN0047001N9-00601-01001999999ADDGA1031+009009059MA1101931999999MW1061
0040106405999991972013114004+50183+008650FM-15+0104EDEN V0202301N00311220001CN0060001N9-00501-00801999999ADDGA1021+007509059MA1101931999999MW1061
0040106405999991972013115004+50183+008650FM-15+0104EDEN V0202501N00411220001CN0070001N9-00501-00801999999ADDGA1031+007509059MA1102031999999MW1061
0040106405999991972013116004+50183+008650FM-15+0104EDEN V0202401N00311220001CN0070001N9-00601-00801999999ADDGA1031+007509059MA1102071999999MW1061
0076106405999991972020106004+50183+008650FM-15+0104EDEN V0200901N002110240019N0060001N9-01101-01301999999ADDGA1021+009009059GA2051+024009039MA1102071999999MW1441REMMET011CIG80/90508
0070106405999991972020107004+50183+008650FM-15+0104EDEN V0201001N002110240019N0028001N9-01101-01201999999ADDGA1031+009009059GA2081+024009039MA1102031999999MW1481REMMET005CIG80
0082106405999991972020108004+50183+008650FM-15+0104EDEN V0200301N003110240019N0022001N9-01101-01101999999ADDGA1021+009009059GA2081+024009039MA1102031999999MW1481REMMET017CIG80 VIS SE 1900
0083106405999991972020109004+50183+008650FM-15+0104EDEN V0200801N002110240019N0022001N9-00901-00901999999ADDGA1031+003009079GA2081+024009039MA1102001999999MW1481REMMET018CIG80 ST LYR INCRG
0105106405999991972020110004+50183+008650FM-15+0104EDEN V0200601N002110240019N0022001N9-00701-00801999999ADDGA1021+003009079GA2081+024009039MA1101961999999MW1441REMMET040CIG80/0929 3.5E TOP FG20/THN SPOTS INOVC
0054106405999991972020111004+50183+008650FM-15+0104EDEN V0200701N00101024001CN0026001N9-00601-00601999999ADDGA1081+024009039MA1101901999999MW1421REMMET005CIG80
0076106405999991972020112004+50183+008650FM-15+0104EDEN V0200501N00101024001CN0026001N9-00401-00701999999ADDGA1071+024009039MA1101801999999MW1441REMMET027CIG80 BINOVC ALQDS HZ PRSNT
0054106405999991972020113004+50183+008650FM-15+0104EDEN V0200201N00211054001CN0034001N9-00401-00701999999ADDGA1061+024009039MA1101661999999MW1061REMMET005CIG80
0054106405999991972020114004+50183+008650FM-15+0104EDEN V0209991C00001024001CN0047001N9-00401-00701999999ADDGA1051+024009039MA1101631999999MW1061REMMET005CIG80
0054106405999991972020115004+50183+008650FM-15+0104EDEN V0200101N00151024001CN0037001N9-00401-00801999999ADDGA1051+024009039MA1101631999999MW1061REMMET005CIG80
0054106405999991972020116004+50183+008650FM-15+0104EDEN V0200301N00051024001CN0037001N9-00501-00801999999ADDGA1061+024009039MA1101591999999MW1061REMMET005CIG80
0076106405999991972020206004+50183+008650FM-15+0104EDEN V0209991C00001003601CN0018001N9-00101-00101999999ADDGA1081+003609079MA1101491999999MW1441REMMET027CIG12 OCNL VRY LGT DZ/90507
0054106405999991972020207004+50183+008650FM-15+0104EDEN V0209991C00001003001CN0015001N9-00101-00101999999ADDGA1081+003009079MA1101491999999MW1461REMMET005CIG10
0069106405999991972020208004+50183+008650FM-15+0104EDEN V0209991C00001003001CN0015001N9+00101+00001999999ADDGA1081+003009079MA1101491999999MW1441REMMET020CIG10 VIS SW-NW 1900
0066106405999991972020209004+50183+008650FM-15+0104EDEN V0209991C00001003001CN0015001N9+00101+00001999999ADDGA1081+003009079MA1101561999999MW1441REMMET017CIG10 VIS NW 1900
0101106405999991972020210004+50183+008650FM-15+0104EDEN V0209991C000010075019N0017001N9+00101+00001999999ADDGA1011+003009079GA2041+007509059GA3081+012009059MA1101521999999MW1421REMMET020CIG25 VIS SW-NW 2300
0070106405999991972020211004+50183+008650FM-15+0104EDEN V0200301N002110120019N0017001N9+00301+00101999999ADDGA1021+007509059GA2061+012009059MA1101461999999MW1441REMMET005CIG40
0040106405999991972020212004+50183+008650FM-15+0104EDEN V0209999999999220001CN0034001N9+00301+00001999999ADDGA1011+012009059MA1101391999999MW1061
0040106405999991972020213004+50183+008650FM-15+0104EDEN V0201101N00211220001CN0034001N9+00401+00001999999ADDGA1021+027009039MA1101291999999MW1061
0054106405999991972020214004+50183+008650FM-15+0104EDEN V0200601N00101024001CN0047001N9+00401+00001999999ADDGA1061+024009039MA1101221999999MW1061REMMET005CIG80
0054106405999991972020215004+50183+008650FM-15+0104EDEN V0200901N00211024001CN0047001N9+00501+00101999999ADDGA1061+024009039MA1101251999999MW1061REMMET005CIG80
0054106405999991972020216004+50183+008650FM-15+0104EDEN V0209991C00001024001CN0047001N9+00501+00101999999ADDGA1061+024009039MA1101251999999MW1061REMMET005CIG80
0054106405999991972020306004+50183+008650FM-15+0104EDEN V0200601N00101220001CN0070001N9-00101-00201999999ADDGA1021+012009059MA1101351999999MW1441REMMET00590504
0040106405999991972020307004+50183+008650FM-15+0104EDEN V0201301N00511220001CN0060001N9-00201-00301999999ADDGA1031+027009039MA1101391999999MW1461
0055106405999991972020308004+50183+008650FM-15+0104EDEN V0201201N00211030001CN0070001N9-00201-00401999999ADDGA1061+030009039MA1101351999999MW1061REMMET006CIG100
0056106405999991972020309004+50183+008650FM-15+0104EDEN V0201201N002112200019N0070001N9-00101-00401999999ADDGA1011+030009039GA2031+060009009MA1101351999999MW1061
0071106405999991972020310004+50183+008650FM-15+0104EDEN V0200801N001510300019N0070001N9+00001-00301999999ADDGA1051+030009039GA2031+060009009MA1101321999999MW1061REMMET006CIG100
0070106405999991972020311004+50183+008650FM-15+0104EDEN V0209991C000012200019N0070001N9+00101-00301999999ADDGA1041+030009039GA2041+060009009MA1101251999999MW1061REMMET005CIGNO
0071106405999991972020312004+50183+008650FM-15+0104EDEN V0209991C000010600019N0070001N9+00301-00201999999ADDGA1041+030009039GA2031+060009009MA1101151999999MW1061REMMET006CIG200
0054106405999991972020313004+50183+008650FM-15+0104EDEN V0201001N00261027001CN0070001N9+00301-00201999999ADDGA1061+027009039MA1101051999999MW1061REMMET005CIG90
0071106405999991972020314004+50183+008650FM-15+0104EDEN V0200901N004110600019N0070001N9+00301-00401999999ADDGA1021+024009039GA2041+030009039MA1100981999999MW1061REMMET006CIG200
0071106405999991972020315004+50183+008650FM-15+0104EDEN V0209991C000010300019N0070001N9+00301-00301999999ADDGA1011+999999999GA2071+030009039MA1100911999999MW1061REMMET006CIG100
0070106405999991972020316004+50183+008650FM-15+0104EDEN V0200901N002110270019N0070001N9+00301-00101999999ADDGA1071+027009039GA2031+060009009MA1100881999999MW1061REMMET005CIG90
0114106405999991972020406004+50183+008650FM-15+0104EDEN V0200601N001010090019N0060001N9-00101-00101999999ADDGA1031+003009079GA2041+009009059GA3081+024009039MA1100511999999MW1661REMMET033CIG30 FG PRSNT PCPN VRY LGT/90504
0108106405999991972020407004+50183+008650FM-15+0104EDEN V0201001N001010090019N0060001N9-00101-00101999999ADDGA1031+003009079GA2061+009009059GA3081+024009039MA1100541999999MW1511REMMET027CIG30 FG PRSNT PCPN VRY LGT
0090106405999991972020408004+50183+008650FM-15+0104EDEN V0200901N001010240019N0060001N9-00101-00201999999ADDGA1041+009009059GA2081+024009049MA1100541999999MW1441REMMET025CIG80 REDZ THN SPTS INOVC
0070106405999991972020409004+50183+008650FM-15+0104EDEN V0201501N000510240019N0060001N9+00001-00201999999ADDGA1031+009009059GA2081+024009049MA1100581999999MW1441REMMET005CIG80
0094106405999991972020410004+50183+008650FM-15+0104EDEN V0201201N001510240019N0070001N9+00101-00101999999ADDGA1031+009009059GA2081+024009049MA1100541999999MW1421REMMET029CIG80 HZ PRSNT THN SPTS INOVC
0070106405999991972020411004+50183+008650FM-15+0104EDEN V0200901N001010240019N0070001N9+00101-00101999999ADDGA1031+009009059GA2081+024009049MA1100541999999MW1061REMMET005CIG80
0070106405999991972020412004+50183+008650FM-15+0104EDEN V0209991C000010210019N0070001N9+00101-00101999999ADDGA1011+009009059GA2081+021009049MA1100511999999MW1061REMMET005CIG70
0090106405999991972020413004+50183+008650FM-15+0104EDEN V0209991C000010210019N0060001N9+00201-00101999999ADDGA1041+003309079GA2081+021009049MA1100511999999MW1461REMMET025CIG70 OCNL CIG11 HZ PRSNT
0079106405999991972020414004+50183+008650FM-15+0104EDEN V0203601N001510210019N0060001N9+00201-00101999999ADDGA1041+003309079GA2081+021009049MA1100511999999MW1441REMMET014CIG70 HZ PRSNT
0086106405999991972020415004+50183+008650FM-15+0104EDEN V0200301N001510210019N0060001N9+00201-00101999999ADDGA1031+003309079GA2031+007509059GA3081+021009049MA1100511999999MW1441REMMET005CIG70
0106106405999991972020416004+50183+008650FM-15+0104EDEN V0200101N002610090019N0060001N9+00101-00101999999ADDGA1021+003309079GA2041+009009059GA3081+021009049MA1100471999999MW1441REMMET025CIG30 VIS E3700 W-NW 2600
0077106405999991972020706004+50183+008650FM-15+0104EDEN V0209991C000010600019N0060001N9+00301+00001999999ADDGA1021+024009039GA2041+060009029MA1100851999999MW1061REMMET012CIG200/90500
0082106405999991972020707004+50183+008650FM-15+0104EDEN V0209991C000012200019N0047001N9+00301+00101999999ADDGA1011+024009039GA2041+060009029MA1100881999999MW1111REMMET017CIGNO HZ/FU PRSNT
0079106405999991972020708004+50183+008650FM-15+0104EDEN V0209991C000012200019N0047001N9+00301+00101999999ADDGA1011+024009039GA2051+060009009MA1100881999999MW1111REMMET014CIGNO HZ PRSNT
0040106405999991972020709004+50183+008650FM-15+0104EDEN V0209991C00001220001CN0040001N9+00401+00001999999ADDGA1011+024009039MA1100951999999MW1061
0054106405999991972020710004+50183+008650FM-15+0104EDEN V0209991C00001220001CN0040001N9+00601+00101999999ADDGA1011+024009039MA1100981999999MW1061REMMET0051HZ//
0074106405999991972020711004+50183+008650FM-15+0104EDEN V0209991C00001220001CN0060001N9+00801+00101999999ADDGA1031+060009009MA1100951999999MW1061REMMET0251022 10NE TPS HZ 30/1HZ//
0055106405999991972020712004+50183+008650FM-15+0104EDEN V0209991C00001060001CN0060001N9+00901+00101999999ADDGA1071+060009029MA1100851999999MW1061REMMET006CIG200
0055106405999991972020713004+50183+008650FM-15+0104EDEN V0203401N00151060001CN0060001N9+00801+00201999999ADDGA1081+060009029MA1100781999999MW1061REMMET006CIG200
0071106405999991972020714004+50183+008650FM-15+0104EDEN V0203601N002110600019N0060001N9+00901+00201999999ADDGA1031+030009049GA2081+060009029MA1100751999999MW1061REMMET006CIG200
0096106405999991972020715004+50183+008650FM-15+0104EDEN V0209991C000010300019N0060001N9+00901+00301999999ADDGA1051+030009049GA2081+060009029MA1100711999999MW1061REMMET031CIG100/1428 7NE TPS HZ 25/1FU35
0095106405999991972020716004+50183+008650FM-15+0104EDEN V0200301N002610600019N0060001N9+00901+00401999999ADDGA1031+030009049GA2071+060009029MA1100711999999MW1061REMMET030CIG200 VIS NE-SE 4100 FU PRSNT
0076106405999991972020806004+50183+008650FM-15+0104EDEN V0209991C000010090019N0037001N9+00201+00101999999ADDGA1051+009009059GA2071+021009049MA1101151999999MW1441REMMET011CIG30/90501
0070106405999991972020807004+50183+008650FM-15+0104EDEN V0209991C000010105019N0028001N9+00301+00201999999ADDGA1051+010509059GA2081+021009049MA1101151999999MW1461REMMET005CIG35
0104106405999991972020808004+50183+008650FM-15+0104EDEN V0209991C000010240019N0018001N9+00301+00101999999ADDGA1041+010509059GA2051+024009039GA3081+060009029MA1101221999999MW1461REMMET023CIG80/0732 4NE TPS HZ15
0087106405999991972020809004+50183+008650FM-15+0104EDEN V0209991C000010600019N0018001N9+00401+00101999999ADDGA1011+010509059GA2031+024009039GA3051+060009009MA1101221999999MW1441REMMET006CIG200
0076106405999991972020810004+50183+008650FM-15+0104EDEN V0209991C000012200019N0011001N9+00701+00301999999ADDGA1011+009009059GA2051+060009009MA1101221999999MW1061REMMET011CIGNO 2HZ//
0081106405999991972020811004+50183+008650FM-15+0104EDEN V0209991C000010240019N0011001N9+01001+00501999999ADDGA1061+024009039GA2051+060009009MA1101221999999MW1061REMMET016CIG80 VIS N 1900
0091106405999991972020812004+50183+008650FM-15+0104EDEN V0200301N003110240019N0015001N9+01001+00501999999ADDGA1051+024009039GA2061+060009009MA1101221999999MW1061REMMET026CIG80 2HZ// VIS SW-NW 2300
0119106405999991972020813004+50183+008650FM-15+0104EDEN V0200301N002110240019N0011001N9+01001+00601999999ADDGA1021+009009059GA2051+024009039GA3071+060009029MA1101221999999MW1061REMMET038CIG80 3HZ// VIS SE0700 SW0900 FU PRSNT
0076106405999991972020814004+50183+008650FM-15+0104EDEN V0200301N002110090019N0007001N9+00901+00701999999ADDGA1061+009009059GA2081+024009039MA1101221999999MW1441REMMET011CIG30 3FG//
0115106405999991972020815004+50183+008650FM-15+0104EDEN V0200501N001510105019N0015001N9+00901+00601999999ADDGA1061+010509059GA2081+024009039MA1101221999999MW1421REMMET050CIG35/1410 20E 40BKN/1FG// VIS SW-NW 2300 HZ PRSNT
0054106405999991972020816004+50183+008650FM-15+0104EDEN V0209991C00001009001CN0022001N9+00901+00601999999ADDGA1081+009009059MA1101191999999MW1421REMMET005CIG30
0054106405999991972020906004+50183+008650FM-15+0104EDEN V0209991C00001220001CN0018001N9+00101+00101999999ADDGA1011+000159999MA1100851999999MW1441REMMET00590501
0085106405999991972020907004+50183+008650FM-15+0104EDEN V0209991C000010240019N0018001N9+00301+00201999999ADDGA1011+000159999GA2061+024009039MA1100881999999MW1441REMMET020CIG080 VIS SE-SW 0.5
0071106405999991972020908004+50183+008650FM-15+0104EDEN V0209991C000010300019N0011001N9+00301+00201999999ADDGA1021+000159999GA2061+030009039MA1100851999999MW1461REMMET006CIG100
0080106405999991972020909004+50183+008650FM-15+0104EDEN V0209991C000010300019N0013001N9+00401+00201999999ADDGA1021+000159999GA2071+030009039MA1100881999999MW1421REMMET015CIG100 BINOVC S
0084106405999991972020910004+50183+008650FM-15+0104EDEN V0209991C000010300019N0017001N9+00401+00201999999ADDGA1021+000159999GA2071+030009039MA1100851999999MW1421REMMET019CIG100 BINOVC ALQDS
0096106405999991972020911004+50183+008650FM-15+0104EDEN V0209991C000010105019N0022001N9+00501+00201999999ADDGA1011+000159999GA2051+010509059GA3071+024009039MA1100851999999MW1421REMMET015CIG035 HZ PRSNT
0087106405999991972020912004+50183+008650FM-15+0104EDEN V0209991C000010105019N0022001N9+00601+00201999999ADDGA1011+000159999GA2041+010509059GA3081+024009039MA1100811999999MW1061REMMET006CIG035
0103106405999991972020913004+50183+008650FM-15+0104EDEN V0200901N002110090019N0022001N9+00601+00201999999ADDGA1051+009009059GA2071+021009039MA1100751999999MW1411REMMET038CIG030 VIS E-SE 0.8 BINOVC SW HZ PRSNT
0072106405999991972020914004+50183+008650FM-15+0104EDEN V0202201N002610075019N0022001N9+00701+00401999999ADDGA1061+007509059GA2081+021009039MA1100751999999MW1061REMMET007CIGE025
0067106405999991972020915004+50183+008650FM-15+0104EDEN V0202401N00101007501CN0022001N9+00701+00401999999ADDGA1081+007509059MA1100681999999MW1061REMMET018CIGE025 VIS NW 5.0
0072106405999991972020916004+50183+008650FM-15+0104EDEN V0209991C000010075019N0026001N9+00701+00401999999ADDGA1051+007509059GA2081+013509059MA1100641999999MW1061REMMET007CIGE025
0083106405999991972021006004+50183+008650FM-15+0104EDEN V0209991C000010045019N0034001N9+00501+00301999999ADDGA1011+003009079GA2081+004509059MA1100811999999MW1441REMMET018CIGE015 RERA/90501
0081106405999991972021007004+50183+008650FM-15+0104EDEN V0209991C000010030019N0034001N9+00401+00201999999ADDGA1051+003009079GA2081+004509059MA1100851999999MW1441REMMET016CIGB010 VIS E2.2
0098106405999991972021008004+50183+008650FM-15+0104EDEN V0209991C000010051019N0040001N9+00401+00201999999ADDGA1051+005109079GA2081+007509059MA1100951999999MW1611REMMET033CIGE017 RA OCNLY VRY LGT FG PRSNT
0077106405999991972021009004+50183+008650FM-15+0104EDEN V0209991C000010084019N0037001N9+00601+00401999999ADDGA1021+005109079GA2081+008409059MA1100951999999MW1461REMMET012CIGE028 RERA
0076106405999991972021010004+50183+008650FM-15+0104EDEN V0202501N00151008401CN0037001N9+00701+00501999999ADDGA1081+008409059MA1100981999999MW1601REMMET027CIGE028 RA VRY LGT FG PRSNT
0096106405999991972021011004+50183+008650FM-15+0104EDEN V0209991C000010075019N0047001N9+00801+00401999999ADDGA1051+007509059GA2071+021009039MA1100981999999MW1421REMMET031CIGE025 BINOVC NW HZ PRSNT RERA
0072106405999991972021012004+50183+008650FM-15+0104EDEN V0209991C000010075019N0060001N9+00801+00401999999ADDGA1051+007509059GA2081+024009039MA1100951999999MW1061REMMET007CIGE025
0092106405999991972021013004+50183+008650FM-15+0104EDEN V0209991C000010075019N0060001N9+00801+00501999999ADDGA1061+007509059GA2081+024009039MA1100881999999MW1611REMMET027CIGE025 RA VRY LGT HZ PRSNT
0093106405999991972021014004+50183+008650FM-15+0104EDEN V0202501N002110075019N0060001N9+00801+00501999999ADDGA1011+005409059GA2051+007509059GA3081+024009039MA1100851999999MW1061REMMET012CIGE025 RERA
0104106405999991972021015004+50183+008650FM-15+0104EDEN V0202201N002110075019N0060001N9+00701+00401999999ADDGA1011+006009059GA2041+007509059GA3051+012009059GA4081+024009039MA1100851999999MW1061REMMET007CIGE025
0094106405999991972021016004+50183+008650FM-15+0104EDEN V0202501N002110075019N0040001N9+00701+00401999999ADDGA1051+007509059GA2081+012009059MA1100851999999MW1611REMMET029CIGE025 RA VRY LGT FGHZ PRSNT
0087106405999991972021106004+50183+008650FM-15+0104EDEN V0202101N005110060019N0018001N9+00401+00401999999ADDGA1021+003609079GA2081+006009059MA1100031999999MW1611REMMET022CIGE020 FG PRSNT/90502
0092106405999991972021107004+50183+008650FM-15+0104EDEN V0202001N005110060019N0018001N9+00401+00401999999ADDGA1041+003609079GA2081+006009059MA1100031999999MW1611REMMET027CIGE020 VIS SE 0.8 FG PRSNT
0101106405999991972021108004+50183+008650FM-15+0104EDEN V0202001N007210021019N0026001N9+00401+00401999999ADDGA1071+002109079GA2081+006009059MA1100031999999MW1501REMMET036CIGB007 VIS E2.2 DZ VRY LGT FG PRSNT
0056106405999991972021109004+50183+008650FM-15+0104EDEN V0202001N00411002401CN0037001N9+00401+00301999999ADDGA1081+002409079MA1099971999999MW1421REMMET007CIGB008
0072106405999991972021110004+50183+008650FM-15+0104EDEN V0202001N00721002401CN0040001N9+00401+00401999999ADDGA1081+002409079MA1099861999999MW1421REMMET023CIGB008 OCNL VRY LGT RA
0072106405999991972021111004+50183+008650FM-15+0104EDEN V0202101N005110036019N0040001N9+00401+00401999999ADDGA1051+003609079GA2081+006009059MA1099761999999MW1441REMMET007CIGE012
0091106405999991972021112004+50183+008650FM-15+0104EDEN V0201801N006210036019N0048001N9+00601+00501999999ADDGA1051+003609079GA2071+006009059MA1099591999999MW1421REMMET026CIGE012 HZ PRSNT BINOVC NE
0072106405999991972021113004+50183+008650FM-15+0104EDEN V0201801N004110075019N0070001N9+00701+00501999999ADDGA1041+004509059GA2081+007509059MA1099461999999MW1061REMMET007CIGE025
0072106405999991972021114004+50183+008650FM-15+0104EDEN V0201501N00261006001CN0070001N9+00701+00501999999ADDGA1081+006009059MA1099261999999MW1061REMMET023CIGE020 PRESFR VIS E5.0
0065106405999991972021115004+50183+008650FM-15+0104EDEN V0201601N00511007501CN0090001N9+00701+00601999999ADDGA1081+007509059MA1099121999999MW1801REMMET016CIGE025 HZ PRSNT
0098106405999991972021116004+50183+008650FM-15+0104EDEN V0201601N003610075019N0090001N9+00701+00701999999ADDGA1051+007509059GA2081+018009049MA1098981999999MW1611REMMET033CIGE025 RA OCNLY VRY LGT FG PRSNT
0061106405999991972021406004+50183+008650FM-15+0104EDEN V0201201N00151027001CN0100001N9+00101+00101999999ADDGA1071+027009049MA1101051999999MW1001REMMET012CIG090/90501
0062106405999991972021407004+50183+008650FM-15+0104EDEN V0209991C00001024001CN0100001N9+00101-00101999999ADDGA1071+024009049MA1101191999999MW1001REMMET013CIG080 PRESRR
0108106405999991972021408004+50183+008650FM-15+0104EDEN V0200401N002110240019N0100001N9+00201-00101999999ADDGA1011+009009059GA2041+024009049GA3041+060009009MA1101291999999MW1001REMMET027CIG080 NMRS CONTRAILS ALQDS
0086106405999991972021409004+50183+008650FM-15+0104EDEN V0209991C000010600019N0090001N9+00301+00001999999ADDGA1021+024009039GA2051+060009029MA1101391999999MW1061REMMET021CIG200 HILLTPS NW VSB
0067106405999991972021410004+50183+008650FM-15+0104EDEN V0209991C00001220001CN0090001N9+00501+00001999999ADDGA1071+060009029MA1101491999999MW1061REMMET018CIGNO VIS W-NW 4.0
0071106405999991972021411004+50183+008650FM-15+0104EDEN V0200101N001010600019N0090001N9+00701+00101999999ADDGA1011+009009059GA2071+060009029MA1101591999999MW1061REMMET006CIG200
0118106405999991972021412004+50183+008650FM-15+0104EDEN V0201301N002110600019N0090001N9+00901+00201999999ADDGA1011+007509059GA2011+009009089GA3021+024009039GA4061+060009009MA1101631999999MW1061REMMET021CIG200 SC TPG MTNS NW
0102106405999991972021413004+50183+008650FM-15+0104EDEN V0202501N003112200019N0100001N9+00801+00201999999ADDGA1011+006009059GA2031+024009039GA3071+060009009MA1101691999999MW1001REMMET021CIGNO SC BHND MTNS NW
0097106405999991972021414004+50183+008650FM-15+0104EDEN V0203101N002610210019N0100001N9+00701+00101999999ADDGA1011+007509089GA2051+021009039GA3071+060009009MA1101691999999MW1001REMMET016CIG065 MDT CU SE
0087106405999991972021415004+50183+008650FM-15+0104EDEN V0202801N005110090019N0100001N9+00701+00201999999ADDGA1011+006009059GA2061+009009059GA3041+060009009MA1101801999999MW1001REMMET006CIG030
0087106405999991972021416004+50183+008650FM-15+0104EDEN V0202701N004110090019N0100001N9+00701+00201999999ADDGA1011+004509059GA2071+009009059GA3031+060009009MA1101861999999MW1001REMMET006CIG030
0077106405999991972021506004+50183+008650FM-15+0104EDEN V0200901N001010090019N0070001N9+00201+00101999999ADDGA1011+004509059GA2081+009009059MA1102131999999MW1061REMMET012CIG030/90501
0055106405999991972021507004+50183+008650FM-15+0104EDEN V0209991C00001009001CN0070001N9+00201+00101999999ADDGA1081+009009059MA1102131999999MW1061REMMET006CIG030
0055106405999991972021508004+50183+008650FM-15+0104EDEN V0209991C00001012001CN0070001N9+00301+00101999999ADDGA1071+012009059MA1102171999999MW1061REMMET006CIG040
0064106405999991972021509004+50183+008650FM-15+0104EDEN V0209991C00001013501CN0060001N9+00501+00201999999ADDGA1071+013509059MA1102131999999MW1061REMMET015CIG045 VIS E2.0
0056106405999991972021510004+50183+008650FM-15+0104EDEN V0200601N002112200019N0040001N9+00601+00201999999ADDGA1021+009009089GA2021+013509059MA1102101999999MW1061
0040106405999991972021511004+50183+008650FM-15+0104EDEN V0201201N00211220001CN0060001N9+00701+00201999999ADDGA1041+009009089MA1102071999999MW1061
0040106405999991972021512004+50183+008650FM-15+0104EDEN V0201401N00101220001CN0070001N9+00801+00201999999ADDGA1041+009009089MA1101961999999MW1061
0040106405999991972021513004+50183+008650FM-15+0104EDEN V0200701N00211220001CN0070001N9+00901+00301999999ADDGA1031+009009089MA1101861999999MW1061
0080106405999991972021514004+50183+008650FM-15+0104EDEN V0201801N002110120019N0100001N9+00901+00201999999ADDGA1041+009009089GA2021+012009059MA1101761999999MW1001REMMET015CIG040 HZ PRSNT
0070106405999991972021515004+50183+008650FM-15+0104EDEN V0201401N002112200019N0100001N9+00901+00001999999ADDGA1031+009009089GA2021+060009009MA1101691999999MW1001REMMET005CIGNO
0071106405999991972021516004+50183+008650FM-15+0104EDEN V0201401N001510600019N0100001N9+00801+00001999999ADDGA1021+009009089GA2051+060009029MA1101661999999MW1001REMMET006CIG200
0093106405999991972021606004+50183+008650FM-15+0104EDEN V0201301N005110240019N0100001N9+00301+00101999999ADDGA1011+006009059GA2061+024009039GA3041+060009029MA1101121999999MW1001REMMET012CIG080/90500
0087106405999991972021607004+50183+008650FM-15+0104EDEN V0201301N003610600019N0090001N9+00301-00101999999ADDGA1011+007509059GA2031+024009039GA3071+060009029MA1101151999999MW1061REMMET006CIG200
0086106405999991972021608004+50183+008650FM-15+0104EDEN V0201301N002112200019N0090001N9+00301-00101999999ADDGA1011+007509089GA2021+024009039GA3061+060009009MA1101121999999MW1061REMMET005CIGNO
0087106405999991972021609004+50183+008650FM-15+0104EDEN V0201201N002610600019N0090001N9+00401-00101999999ADDGA1011+012009089GA2041+024009039GA3031+060009009MA1101121999999MW1061REMMET006CIG200
0071106405999991972021610004+50183+008650FM-15+0104EDEN V0201401N003110600019N0090001N9+00601+00001999999ADDGA1041+024009039GA2031+060009009MA1101121999999MW1061REMMET006CIG200
0071106405999991972021611004+50183+008650FM-15+0104EDEN V0201701N002110240019N0090001N9+00701-00101999999ADDGA1051+024009039GA2031+060009009MA1101081999999MW1061REMMET006CIG080
0071106405999991972021612004+50183+008650FM-15+0104EDEN V0202501N002610600019N0090001N9+00701-00101999999ADDGA1041+030009039GA2061+060009029MA1101021999999MW1061REMMET006CIG200
0087106405999991972021613004+50183+008650FM-15+0104EDEN V0202401N002110300019N0090001N9+00701+00001999999ADDGA1021+010509059GA2051+030009039GA3081+060009029MA1100981999999MW1061REMMET006CIG100
0071106405999991972021614004+50183+008650FM-15+0104EDEN V0202501N003110300019N0090001N9+00701+00101999999ADDGA1031+010509059GA2081+030009039MA1100951999999MW1061REMMET006CIG100
0110106405999991972021615004+50183+008650FM-15+0104EDEN V0203101N001010300019N0070001N9+00701+00001999999ADDGA1021+012009059GA2061+030009039GA3071+060009029MA1100911999999MW1061REMMET029CIG100 VIS NW 7.0 BINOVC OVHD
0087106405999991972021616004+50183+008650FM-15+0104EDEN V0209991C000010300019N0070001N9+00701+00101999999ADDGA1021+015009059GA2061+030009039GA3081+060009029MA1100911999999MW1061REMMET006CIG100
0054106405999991972021706004+50183+008650FM-15+0104EDEN V0201101N00151220001CN0090001N9+00101-00101999999ADDGA1031+024009039MA1101081999999MW1061REMMET00590500
0071106405999991972021707004+50183+008650FM-15+0104EDEN V0209991C000010600019N0070001N9+00101-00101999999ADDGA1031+027009039GA2021+060009009MA1101151999999MW1061REMMET006CIG200
0071106405999991972021708004+50183+008650FM-15+0104EDEN V0201001N001010600019N0070001N9+00101-00201999999ADDGA1031+027009039GA2031+060009009MA1101191999999MW1061REMMET006CIG200
0071106405999991972021709004+50183+008650FM-15+0104EDEN V0200701N001010270019N0070001N9+00301-00101999999ADDGA1051+027009039GA2061+060009029MA1101221999999MW1061REMMET006CIG090
0071106405999991972021710004+50183+008650FM-15+0104EDEN V0200301N002110600019N0070001N9+00301-00101999999ADDGA1021+027009039GA2081+060009029MA1101191999999MW1061REMMET006CIG200
0070106405999991972021711004+50183+008650FM-15+0104EDEN V0200301N00261060001CN0070001N9+00401+00001999999ADDGA1081+060009029MA1101121999999MW1061REMMET021CIG200 THN SPTS INOVC
0086106405999991972021712004+50183+008650FM-15+0104EDEN V0200301N002110600019N0070001N9+00501+00001999999ADDGA1021+030009039GA2081+060009029MA1101081999999MW1061REMMET021CIG200 THN SPTS INOVC
0071106405999991972021713004+50183+008650FM-15+0104EDEN V0200201N003110600019N0070001N9+00601+00101999999ADDGA1021+030009039GA2061+060009029MA1101021999999MW1061REMMET006CIG200
0071106405999991972021714004+50183+008650FM-15+0104EDEN V0200301N003610270019N0070001N9+00701+00101999999ADDGA1061+027009049GA2081+060009029MA1101021999999MW1061REMMET006CIG090
0055106405999991972021715004+50183+008650FM-15+0104EDEN V0200301N00311027001CN0070001N9+00701+00201999999ADDGA1081+027009049MA1101021999999MW1061REMMET006CIG090
0071106405999991972021716004+50183+008650FM-15+0104EDEN V0200301N001510270019N0070001N9+00601+00101999999ADDGA1071+027009039GA2071+060009029MA1101021999999MW1061REMMET006CIG090
0054106405999991972021806004+50183+008650FM-15+0104EDEN V0200901N00151220001CN0047001N9-00101-00101999999ADDGA1041+060009009MA1101351999999MW1441REMMET00590501
0063106405999991972021807004+50183+008650FM-15+0104EDEN V0200701N00101220001CN0028001N9+00001-00101999999ADDGA1061+060009009MA1101391999999MW1461REMMET014CIGNO HZ PRSNT
0054106405999991972021808004+50183+008650FM-15+0104EDEN V0203601N00101220001CN0037001N9+00101+00001999999ADDGA1051+060009009MA1101351999999MW1061REMMET005CIGNO
0070106405999991972021809004+50183+008650FM-15+0104EDEN V0200601N001512200019N0037001N9+00201+00001999999ADDGA1011+030009039GA2061+060009009MA1101321999999MW1061REMMET005CIGNO
0070106405999991972021810004+50183+008650FM-15+0104EDEN V0200401N002112200019N0028001N9+00301+00001999999ADDGA1011+030009039GA2061+060009009MA1101321999999MW1061REMMET005CIGNO
0073106405999991972021811004+50183+008650FM-15+0104EDEN V0200401N00211220001CN0028001N9+00401+00101999999ADDGA1051+060009009MA1101321999999MW1061REMMET024CIGNO/1022 4W TPS HZ 025
0070106405999991972021812004+50183+008650FM-15+0104EDEN V0200101N00311060001CN0028001N9+00501+00501999999ADDGA1081+060009029MA1101251999999MW1061REMMET021CIG200 THN SPTS INOVC
0068106405999991972021813004+50183+008650FM-15+0104EDEN V0200101N00411060001CN0034001N9+00601+00001999999ADDGA1081+060009029MA1101151999999MW1061REMMET019CIG200 SUN DMLY VSB
0055106405999991972021814004+50183+008650FM-15+0104EDEN V0200201N00411060001CN0034001N9+00701+00101999999ADDGA1061+060009029MA1101151999999MW1061REMMET006CIG200
0071106405999991972021815004+50183+008650FM-15+0104EDEN V0200201N003110600019N0047001N9+00801+00001999999ADDGA1031+036009039GA2061+060009009MA1101151999999MW1061REMMET006CIG200
0071106405999991972021816004+50183+008650FM-15+0104EDEN V0200201N005110600019N0040001N9+00701+00001999999ADDGA1031+036009049GA2071+060009029MA1101121999999MW1061REMMET006CIG200
0070106405999991972022206004+50183+008650FM-15+0104EDEN V0209991C00001220001CN0013001N9+00001+00001999999ADDGA1011+000159999GA2031+024009039MA1102031999999MW1441REMMET00590501
0059106405999991972022207004+50183+008650FM-15+0104EDEN V0209991C00001220001CN0013001N9+00101+00001999999ADDGA1021+000159999MA1102071999999MW1441REMMET010BCFG PRSNT
0057106405999991972022208004+50183+008650FM-15+0104EDEN V0209991C00001220001CN0017001N9+00201+00101999999ADDGA1011+000159999MA1102101999999MW1421REMMET008HZ PRSNT
0040106405999991972022209004+50183+008650FM-15+0104EDEN V0200801N00101220001CN0034001N9+00201+00001999999ADDGA1021+060009009MA1102131999999MW1061
0055106405999991972022210004+50183+008650FM-15+0104EDEN V0201201N00101012001CN0040001N9+00501+00101999999ADDGA1051+012009059MA1102131999999MW1061REMMET006CIG040
0055106405999991972022211004+50183+008650FM-15+0104EDEN V0209991C00001012001CN0047001N9+00501+00101999999ADDGA1061+012009059MA1102131999999MW1061REMMET006CIG040
0071106405999991972022212004+50183+008650FM-15+0104EDEN V0201501N003110600019N0060001N9+00601+00101999999ADDGA1041+012009059GA2031+060009009MA1102071999999MW1061REMMET006CIG200
0071106405999991972022213004+50183+008650FM-15+0104EDEN V0209991C000010600019N0060001N9+00701+00201999999ADDGA1011+010509059GA2061+060009009MA1102031999999MW1061REMMET006CIG200
0054106405999991972022214004+50183+008650FM-15+0104EDEN V0209991C00001220001CN0070001N9+00701+00101999999ADDGA1051+060009009MA1102001999999MW1061REMMET005CIGNO
0054106405999991972022215004+50183+008650FM-15+0104EDEN V0209991C00001220001CN0070001N9+00701+00001999999ADDGA1051+060009009MA1102001999999MW1061REMMET005CIGNO
0070106405999991972022216004+50183+008650FM-15+0104EDEN V0201401N004112200019N0070001N9+00801+00101999999ADDGA1011+024009039GA2061+060009009MA1102031999999MW1061REMMET005CIGNO
0061106405999991972022306004+50183+008650FM-15+0104EDEN V0200401N00261009001CN0015001N9+00401+00301999999ADDGA1081+009009059MA1102301999999MW1441REMMET012CIG030/90500
0067106405999991972022307004+50183+008650FM-15+0104EDEN V0200401N00311009001CN0015001N9+00401+00301999999ADDGA1071+009009059MA1102341999999MW1441REMMET018CIG030 BINOVC OVHD
0066106405999991972022308004+50183+008650FM-15+0104EDEN V0200501N00151009001CN0015001N9+00401+00201999999ADDGA1081+009009059MA1102401999999MW1441REMMET017CIG030 VIS NW 1.0
0068106405999991972022309004+50183+008650FM-15+0104EDEN V0200301N00261009001CN0018001N9+00501+00301999999ADDGA1071+009009059MA1102471999999MW1421REMMET019CIG030 BINOVC ALQDS
0055106405999991972022310004+50183+008650FM-15+0104EDEN V0200301N00361010501CN0026001N9+00601+00301999999ADDGA1081+010509059MA1102471999999MW1421REMMET006CIG035
0055106405999991972022311004+50183+008650FM-15+0104EDEN V0200201N00211009001CN0034001N9+00701+00301999999ADDGA1081+009009059MA1102441999999MW1061REMMET006CIG030
0055106405999991972022312004+50183+008650FM-15+0104EDEN V0200301N00101012001CN0047001N9+00801+00201999999ADDGA1061+012009059MA1102341999999MW1061REMMET006CIG040
0055106405999991972022313004+50183+008650FM-15+0104EDEN V0200901N00511012001CN0070001N9+00901+00201999999ADDGA1051+012009059MA1102271999999MW1061REMMET006CIG040
0071106405999991972022314004+50183+008650FM-15+0104EDEN V0200801N003110150019N0070001N9+01001+00301999999ADDGA1021+010509059GA2061+015009059MA1102201999999MW1061REMMET006CIG050
0071106405999991972022315004+50183+008650FM-15+0104EDEN V0200701N004110150019N0070001N9+01001+00301999999ADDGA1041+010509059GA2071+015009059MA1102171999999MW1061REMMET006CIG050
0071106405999991972022316004+50183+008650FM-15+0104EDEN V0200601N003110150019N0060001N9+00901+00301999999ADDGA1031+009009059GA2081+015009059MA1102171999999MW1061REMMET006CIG050
0077106405999991972022406004+50183+008650FM-15+0104EDEN V0200201N002110105019N0028001N9+00501+00201999999ADDGA1011+007509059GA2081+010509059MA1102131999999MW1061REMMET012CIG035/90500
0071106405999991972022407004+50183+008650FM-15+0104EDEN V0200401N001510105019N0028001N9+00501+00201999999ADDGA1021+007509059GA2081+010509059MA1102171999999MW1061REMMET006CIG035
0071106405999991972022408004+50183+008650FM-15+0104EDEN V0200101N002610105019N0028001N9+00501+00201999999ADDGA1031+007509059GA2081+010509059MA1102131999999MW1061REMMET006CIG035
0072106405999991972022409004+50183+008650FM-15+0104EDEN V0200301N001010084019N0034001N9+00601+00201999999ADDGA1051+008409059GA2081+010509059MA1102131999999MW1061REMMET007CIGE028
0071106405999991972022410004+50183+008650FM-15+0104EDEN V0200401N003110099019N0047001N9+00701+00201999999ADDGA1051+009909059GA2081+013509059MA1102101999999MW1061REMMET006CIG033
0071106405999991972022411004+50183+008650FM-15+0104EDEN V0200701N004110135019N0060001N9+00701+00101999999ADDGA1021+009909059GA2081+013509059MA1102031999999MW1061REMMET006CIG045
0071106405999991972022412004+50183+008650FM-15+0104EDEN V0200701N005110135019N0070001N9+00801+00201999999ADDGA1031+009009059GA2081+013509059MA1102001999999MW1061REMMET006CIG045
0071106405999991972022413004+50183+008650FM-15+0104EDEN V0200501N003110135019N0070001N9+00801+00201999999ADDGA1021+009009059GA2081+013509059MA1101931999999MW1061REMMET006CIG045
0071106405999991972022414004+50183+008650FM-15+0104EDEN V0200401N002110135019N0070001N9+00901+00301999999ADDGA1031+009009059GA2081+013509059MA1101901999999MW1061REMMET006CIG045
0071106405999991972022415004+50183+008650FM-15+0104EDEN V0200201N001510135019N0060001N9+00901+00301999999ADDGA1031+009009059GA2081+013509059MA1101861999999MW1061REMMET006CIG045
0071106405999991972022416004+50183+008650FM-15+0104EDEN V0200301N002110135019N0060001N9+00801+00201999999ADDGA1021+010509059GA2081+013509059MA1101831999999MW1061REMMET006CIG045
0088106405999991972022506004+50183+008650FM-15+0104EDEN V0200601N00101220001CN0015001N9+00101+00101999999ADDGA1021+000159999GA2021+060009009MA1101631999999MW1441REMMET023VIS SE 0.6 NW 1.0/90501
0077106405999991972022507004+50183+008650FM-15+0104EDEN V0200901N00101220001CN0015001N9+00001+00001999999ADDGA1021+000159999GA2011+060009009MA1101691999999MW1441REMMET012VIS W-NW 1.0
0077106405999991972022508004+50183+008650FM-15+0104EDEN V0200701N00151220001CN0018001N9+00201+00201999999ADDGA1011+000159999GA2021+060009009MA1101691999999MW1421REMMET012VIS E-SE 0.4
0097106405999991972022509004+50183+008650FM-15+0104EDEN V0200401N004112200019N0015001N9+00201+00101999999ADDGA1011+000159999GA2041+060009009MA1101691999999MW1421REMMET032CIGNO VIS SE 0.4 NW 1.0 HZ PRSNT
0089106405999991972022510004+50183+008650FM-15+0104EDEN V0200301N00361220001CN0015001N9+00401+00201999999ADDGA1031+060009009MA1101691999999MW1411REMMET0400935 5SE TPS FG 15/VIS W-NW 1.8 HZ PRSNT
0070106405999991972022511004+50183+008650FM-15+0104EDEN V0200301N00411220001CN0026001N9+00601+00201999999ADDGA1061+060009009MA1101691999999MW1061REMMET021CIGNO/1020 3E 010 UNK
0054106405999991972022512004+50183+008650FM-15+0104EDEN V0200401N00311220001CN0060001N9+00701+00201999999ADDGA1061+060009009MA1101631999999MW1061REMMET005CIGNO
0054106405999991972022513004+50183+008650FM-15+0104EDEN V0203601N00411220001CN0060001N9+00801+00101999999ADDGA1051+060009009MA1101521999999MW1061REMMET005CIGNO
0040106405999991972022514004+50183+008650FM-15+0104EDEN V0200301N00411220001CN0070001N9+00901+00201999999ADDGA1031+060009009MA1101491999999MW1061
0054106405999991972022515004+50183+008650FM-15+0104EDEN V0203601N00411220001CN0070001N9+00901+00101999999ADDGA1051+060009009MA1101421999999MW1061REMMET005CIGNO
0054106405999991972022516004+50183+008650FM-15+0104EDEN V0203601N00311220001CN0070001N9+00901+00201999999ADDGA1061+060009009MA1101391999999MW1061REMMET005CIGNO
0088106405999991972022806004+50183+008650FM-15+0104EDEN V0209991C00001000901CN0007001N9+00301+00301999999ADDGA1091+000909999GF109991999999999999999999MA1101831999999MW1451REMMET013CIGW003/90501
0088106405999991972022807004+50183+008650FM-15+0104EDEN V0209991C000010012019N0006001N9+00301+00301999999ADDGA1041+000159999GA2031+001209079GA3081+005409059MA1101861999999MW1461REMMET007CIGE004
0088106405999991972022808004+50183+008650FM-15+0104EDEN V0209991C000010054019N0007001N9+00401+00401999999ADDGA1031+000159999GA2011+001509079GA3081+005409059MA1101861999999MW1421REMMET007CIGE018
0086106405999991972022809004+50183+008650FM-15+0104EDEN V0200801N001010045019N0007001N9+00401+00401999999ADDGA1041+000159999GA2081+004509059MA1101831999999MW1441REMMET021CIGE015 VIS N0.6 W1.0
0083106405999991972022810004+50183+008650FM-15+0104EDEN V0200301N002110045019N0022001N9+00601+00501999999ADDGA1021+000159999GA2081+004509059MA1101831999999MW1421REMMET018CIGE015 VIS NW 1.8
0072106405999991972022811004+50183+008650FM-15+0104EDEN V0200501N003110075019N0026001N9+00601+00501999999ADDGA1011+000159999GA2081+007509059MA1101831999999MW1421REMMET007CIGE025
0065106405999991972022812004+50183+008650FM-15+0104EDEN V0200601N00261007501CN0034001N9+00701+00401999999ADDGA1081+007509059MA1101901999999MW1421REMMET016CIGE025 HZ PRSNT
0081106405999991972022813004+50183+008650FM-15+0104EDEN V0200401N00311009001CN0040001N9+00701+00401999999ADDGA1081+009009059MA1101831999999MW1061REMMET032CIG030 MIFG E-S OCNL BINOVC OVHD
0055106405999991972022814004+50183+008650FM-15+0104EDEN V0200501N00411009001CN0037001N9+00801+00301999999ADDGA1081+009009059MA1101801999999MW1061REMMET006CIG030
0067106405999991972022815004+50183+008650FM-15+0104EDEN V0209991V00461010501CN0037001N9+00801+00301999999ADDGA1081+010509059MA1101801999999MW1061REMMET018CIG035 WND 010V090
0055106405999991972022816004+50183+008650FM-15+0104EDEN V0200401N00151010501CN0037001N9+00801+00301999999ADDGA1081+010509059MA1101831999999MW1061REMMET006CIG035
0077106405999991972022906004+50183+008650FM-15+0104EDEN V0200501N001010120019N0037001N9+00401+00301999999ADDGA1051+012009059GA2081+021009039MA1101931999999MW1441REMMET012CIG040/90500
0071106405999991972022907004+50183+008650FM-15+0104EDEN V0200201N002610240019N0037001N9+00501+00301999999ADDGA1031+012009059GA2081+024009039MA1101961999999MW1441REMMET006CIG080
0071106405999991972022908004+50183+008650FM-15+0104EDEN V0209991C000010240019N0028001N9+00501+00301999999ADDGA1021+012009059GA2081+024009039MA1102001999999MW1461REMMET006CIG080
0080106405999991972022909004+50183+008650FM-15+0104EDEN V0200601N002110240019N0034001N9+00501+00301999999ADDGA1021+012009059GA2081+024009039MA1102001999999MW1421REMMET015CIG080 HZ PRSNT
0083106405999991972022910004+50183+008650FM-15+0104EDEN V0200301N001010240019N0034001N9+00601+00301999999ADDGA1031+012009059GA2071+024009039MA1101961999999MW1061REMMET018CIG080 BINOVC OVHD
0068106405999991972022911004+50183+008650FM-15+0104EDEN V0200301N00211024001CN0034001N9+00701+00401999999ADDGA1071+024009039MA1101931999999MW1061REMMET019CIG080 BINOVC ALQDS
0068106405999991972022912004+50183+008650FM-15+0104EDEN V0200301N00101024001CN0034001N9+00801+00401999999ADDGA1071+024009039MA1101861999999MW1061REMMET019CIG080 BINOVC ALQDS
0109106405999991972022913004+50183+008650FM-15+0104EDEN V0200801N002110240019N0100001N9+00901+00301999999ADDGA1011+009009059GA2071+024009039MA1101801999999MW1001REMMET044CIG080 BINOVC ALQDS VIS INCRG RPDLY HZ PRSNT
0071106405999991972022914004+50183+008650FM-15+0104EDEN V0200101N000510240019N0100001N9+00901+00201999999ADDGA1011+009009059GA2061+024009039MA1101761999999MW1001REMMET006CIG080
0067106405999991972022915004+50183+008650FM-15+0104EDEN V0200301N00101024001CN0100001N9+00901+00201999999ADDGA1071+024009039MA1101731999999MW1001REMMET018CIG080 BINOVC OVHD
0084106405999991972022916004+50183+008650FM-15+0104EDEN V0200501N001010240019N0100001N9+00901+00201999999ADDGA1031+010509059GA2071+024009039MA1101731999999MW1001REMMET019CIG080 BINOVC ALQDS
0082106405999991972030106004+50183+008650FM-15+0104EDEN V0200701N00151024001CN0028001N9+00001-00101999999ADDGA1071+024009039MA1101731999999MW1441REMMET033CIG080 BINOVC OVHD HZ PRSNT/90500
0064106405999991972030107004+50183+008650FM-15+0104EDEN V0200601N00151024001CN0028001N9+00001-00101999999ADDGA1061+024009039MA1101761999999MW1441REMMET015CIG080 HZ PRSNT
0064106405999991972030108004+50183+008650FM-15+0104EDEN V0200901N00261024001CN0028001N9+00101-00101999999ADDGA1061+024009039MA1101801999999MW1441REMMET015CIG080 HZ PRSNT
0055106405999991972030109004+50183+008650FM-15+0104EDEN V0200501N00211024001CN0028001N9+00201-00101999999ADDGA1061+024009039MA1101801999999MW1061REMMET006CIG080
0055106405999991972030110004+50183+008650FM-15+0104EDEN V0200701N00211024001CN0028001N9+00301-00201999999ADDGA1061+024009039MA1101801999999MW1061REMMET006CIG080
0055106405999991972030111004+50183+008650FM-15+0104EDEN V0200401N00211024001CN0037001N9+00601+00101999999ADDGA1051+024009039MA1101801999999MW1061REMMET006CIG080
0040106405999991972030112004+50183+008650FM-15+0104EDEN V0200801N00101220001CN0037001N9+00701+00001999999ADDGA1011+060009009MA1101731999999MW1061
0040106405999991972030113004+50183+008650FM-15+0104EDEN V0200601N00261220001CN0047001N9+00901+00101999999ADDGA1011+060009009MA1101631999999MW1061
0040106405999991972030114004+50183+008650FM-15+0104EDEN V0201401N00101220001CN0060001N9+00901+00101999999ADDGA1021+060009009MA1101631999999MW1061
0054106405999991972030206004+50183+008650FM-15+0104EDEN V0200701N00211220001CN0022001N9-00201-00301999999ADDGA1011+000159999MA1101931999999MW1441REMMET00590500
0040106405999991972030207004+50183+008650FM-15+0104EDEN V0200801N00151220001CN0022001N9-00101-00201999999ADDGA1011+000159999MA1101961999999MW1441
0082106405999991972030208004+50183+008650FM-15+0104EDEN V0200701N00211000601CN0004001N9-00201-00301999999ADDGA1091+000609999GF109991999999999999999999MA1101931999999MW1471REMMET007CIGB002
0082106405999991972030209004+50183+008650FM-15+0104EDEN V0200501N00411000901CN0006001N9-00101-00201999999ADDGA1091+000909999GF109991999999999999999999MA1101961999999MW1431REMMET007CIGB003
0082106405999991972030210004+50183+008650FM-15+0104EDEN V0200501N00211000901CN0007001N9-00101-00301999999ADDGA1091+000909999GF109991999999999999999999MA1101961999999MW1431REMMET007CIGB003
0088106405999991972030211004+50183+008650FM-15+0104EDEN V0200601N003612200019N0018001N9+00201-00201999999ADDGA1041+000159999GA2021+060009009MA1101931999999MW1421REMMET023CIGNO VIS E0.7 HZ PRSNT
0040106405999991972030212004+50183+008650FM-15+0104EDEN V0200301N00211220001CN0028001N9+00401-00201999999ADDGA1041+060009009MA1101861999999MW1061
0054106405999991972030213004+50183+008650FM-15+0104EDEN V0200301N00151220001CN0047001N9+00601+00001999999ADDGA1061+060009009MA1101761999999MW1061REMMET005CIGNO
0054106405999991972030214004+50183+008650FM-15+0104EDEN V0200901N00211220001CN0060001N9+00901+00101999999ADDGA1051+060009009MA1101731999999MW1061REMMET005CIGNO
0054106405999991972030306004+50183+008650FM-15+0104EDEN V0200501N00101220001CN0022001N9-00201-00201999999ADDGA1011+000159999MA1101291999999MW1441REMMET00590500
0086106405999991972030307004+50183+008650FM-15+0104EDEN V0200701N001012200019N0018001N9-00201-00301999999ADDGA1011+000159999GA2021+021009039GA3041+060009009MA1101291999999MW1461REMMET005CIGNO
0082106405999991972030308004+50183+008650FM-15+0104EDEN V0200801N00211000601CN0002001N9-00201-00201999999ADDGA1091+000609999GF109991999999999999999999MA1101221999999MW1471REMMET007CIGB002
0082106405999991972030309004+50183+008650FM-15+0104EDEN V0200601N00211000601CN0002001N9-00101-00201999999ADDGA1091+000609999GF109991999999999999999999MA1101191999999MW1451REMMET007CIGB002
0082106405999991972030310004+50183+008650FM-15+0104EDEN V0200701N00101000901CN0004001N9-00101-00201999999ADDGA1091+000909999GF109991999999999999999999MA1101151999999MW1431REMMET007CIGB003
0073106405999991972030311004+50183+008650FM-15+0104EDEN V0200501N00151220001CN0013001N9+00201-00101999999ADDGA1031+000159999GA2011+003609079MA1101081999999MW1421REMMET008HZ PRSNT
0056106405999991972030312004+50183+008650FM-15+0104EDEN V0201101N00101220001CN0022001N9+00501+00101999999ADDGA1011+000159999GA2011+060009009MA1100911999999MW1061
0040106405999991972030313004+50183+008650FM-15+0104EDEN V0209991C00001220001CN0034001N9+00901+00201999999ADDGA1041+060009009MA1100811999999MW1061
0054106405999991972030314004+50183+008650FM-15+0104EDEN V0209991C00001220001CN0037001N9+01001+00101999999ADDGA1051+060009009MA1100751999999MW1061REMMET005CIGNO
0078106405999991972030606004+50183+008650FM-15+0104EDEN V0201901N003110060019N0070001N9+00401+00201999999ADDGA1051+006009059GA2081+012009059MA1100071999999MW1441REMMET013CIGE020/90502
0085106405999991972030607004+50183+008650FM-15+0104EDEN V0201901N003110060019N0070001N9+00401+00201999999ADDGA1051+006009059GA2071+012009059MA1100071999999MW1441REMMET020CIGE020 BINOVC ALQDS
0071106405999991972030608004+50183+008650FM-15+0104EDEN V0202001N003110120019N0090001N9+00501+00201999999ADDGA1041+007509059GA2071+012009059MA1100031999999MW1421REMMET006CIG040
0087106405999991972030609004+50183+008650FM-15+0104EDEN V0202101N005110120019N0100001N9+00501+00201999999ADDGA1031+007509059GA2061+012009059MA1100031999999MW1001REMMET022CIG040 OCNL VRY LGT RA
0076106405999991972030610004+50183+008650FM-15+0104EDEN V0202101N003610120019N0090001N9+00601+00201999999ADDGA1041+007509059GA2071+012009059MA1100001999999MW1061REMMET011CIG040 RERA
0071106405999991972030611004+50183+008650FM-15+0104EDEN V0201801N003110120019N0100001N9+00601+00201999999ADDGA1031+007509059GA2061+010509059MA1099971999999MW1001REMMET006CIG040
0087106405999991972030612004+50183+008650FM-15+0104EDEN V0201901N003110090019N0100001N9+00701+00201999999ADDGA1021+005409059GA2041+009009089GA3061+060009009MA1099931999999MW1001REMMET006CIG030
0087106405999991972030613004+50183+008650FM-15+0104EDEN V0202001N002610120019N0100001N9+00801+00301999999ADDGA1031+009009089GA2021+012009059GA3051+060009009MA1099861999999MW1001REMMET006CIG040
0070106405999991972030614004+50183+008650FM-15+0104EDEN V0202101N003112200019N0100001N9+00901+00001999999ADDGA1041+009009089GA2041+060009009MA1099731999999MW1001REMMET005CIGNO
0077106405999991972030706004+50183+008650FM-15+0104EDEN V0202001N005110300019N0100001N9+00401+00201999999ADDGA1031+010509059GA2081+030009039MA1099971999999MW1001REMMET012CIG100/90502
0071106405999991972030707004+50183+008650FM-15+0104EDEN V0202101N004610300019N0100001N9+00401+00201999999ADDGA1021+010509059GA2081+030009039MA1100071999999MW1001REMMET006CIG100
0071106405999991972030708004+50183+008650FM-15+0104EDEN V0202101N005110105019N0100001N9+00401+00101999999ADDGA1051+010509059GA2081+030009039MA1100101999999MW1001REMMET006CIG035
0087106405999991972030709004+50183+008650FM-15+0104EDEN V0202101N005110114019N0100001N9+00701+00201999999ADDGA1011+007509089GA2051+011409059GA3081+036009049MA1100141999999MW1001REMMET006CIG038
0087106405999991972030710004+50183+008650FM-15+0104EDEN V0201901N004110360019N0100001N9+00801+00301999999ADDGA1011+007509089GA2041+012009059GA3071+036009049MA1100171999999MW1001REMMET006CIG120
0087106405999991972030711004+50183+008650FM-15+0104EDEN V0202201N005110105019N0100001N9+00901+00301999999ADDGA1021+006609089GA2041+010509059GA3081+036009049MA1100171999999MW1001REMMET006CIG035
0087106405999991972030712004+50183+008650FM-15+0104EDEN V0202101N004110090019N0100001N9+01001+00401999999ADDGA1031+006009089GA2051+009009059GA3051+030009039MA1100141999999MW1001REMMET006CIG030
0087106405999991972030713004+50183+008650FM-15+0104EDEN V0202001N004110099019N0100001N9+01001+00301999999ADDGA1031+007209089GA2031+009909059GA3071+027009049MA1100141999999MW1001REMMET006CIG033
0087106405999991972030714004+50183+008650FM-15+0104EDEN V0202101N005110105019N0100001N9+01001+00201999999ADDGA1031+008409089GA2051+010509059GA3081+060009029MA1100141999999MW1001REMMET006CIG035
0088106405999991972030806004+50183+008650FM-15+0104EDEN V0209991C00001000301CN0001001N9+00201+00201999999ADDGA1091+000309999GF109991999999999999999999MA1100711999999MW1451REMMET013CIGW001/90501
0082106405999991972030807004+50183+008650FM-15+0104EDEN V0201101N00211000301CN0002001N9+00201+00201999999ADDGA1091+000309999GF109991999999999999999999MA1100751999999MW1431REMMET007CIGW001
0082106405999991972030808004+50183+008650FM-15+0104EDEN V0209991C00001000301CN0002001N9+00201+00201999999ADDGA1091+000309999GF109991999999999999999999MA1100781999999MW1451REMMET007CIGW001
0082106405999991972030809004+50183+008650FM-15+0104EDEN V0201001N00101000301CN0002001N9+00201+00101999999ADDGA1091+000309999GF109991999999999999999999MA1100811999999MW1451REMMET007CIGW001
0082106405999991972030810004+50183+008650FM-15+0104EDEN V0209991C00001000901CN0004001N9+00201+00101999999ADDGA1091+000909999GF109991999999999999999999MA1100851999999MW1431REMMET007CIGB003
0082106405999991972030811004+50183+008650FM-15+0104EDEN V0209991C00001001201CN0006001N9+00401+00201999999ADDGA1091+001209999GF109991999999999999999999MA1100881999999MW1431REMMET007CIGB004
0085106405999991972030812004+50183+008650FM-15+0104EDEN V0200701N001510024019N0015001N9+00501+00301999999ADDGA1051+000159999GA2041+002409079MA1100851999999MW1421REMMET020CIGB008 SUN DMLY VSB
0070106405999991972030813004+50183+008650FM-15+0104EDEN V0200301N001012200019N0022001N9+00601+00201999999ADDGA1031+000159999GA2051+060009009MA1100851999999MW1061REMMET005CIGNO
0086106405999991972030814004+50183+008650FM-15+0104EDEN V0209991C000012200019N0037001N9+00801+00301999999ADDGA1011+000159999GA2011+007509089GA3061+060009029MA1100781999999MW1061REMMET005CIGNO
0088106405999991972030906004+50183+008650FM-15+0104EDEN V0209991C00001000601CN0001001N9-00101-00101999999ADDGA1091+000609999GF109991999999999999999999MA1101221999999MW1491REMMET013CIGB002/90501
0082106405999991972030907004+50183+008650FM-15+0104EDEN V0209991C00001000601CN0001001N9-00101-00101999999ADDGA1091+000609999GF109991999999999999999999MA1101221999999MW1451REMMET007CIGB002
0082106405999991972030908004+50183+008650FM-15+0104EDEN V0200601N00101000601CN0001001N9+00101+00001999999ADDGA1091+000609999GF109991999999999999999999MA1101191999999MW1451REMMET007CIGB002
0082106405999991972030909004+50183+008650FM-15+0104EDEN V0200601N00211000901CN0002001N9+00201+00101999999ADDGA1091+000909999GF109991999999999999999999MA1101081999999MW1431REMMET007CIGB003
0082106405999991972030910004+50183+008650FM-15+0104EDEN V0200401N00211000901CN0004001N9+00201+00101999999ADDGA1091+000909999GF109991999999999999999999MA1101051999999MW1431REMMET007CIGE003
0072106405999991972030911004+50183+008650FM-15+0104EDEN V0200701N002110012019N0013001N9+00401+00201999999ADDGA1061+000159999GA2041+001209079MA1101051999999MW1421REMMET007CIGE004
0098106405999991972030912004+50183+008650FM-15+0104EDEN V0200701N003112200019N0034001N9+00701+00401999999ADDGA1011+000159999GA2021+009009089GA3021+060009009MA1101021999999MW1061REMMET017CIGNO CLRNG RPDLY
0076106405999991972030913004+50183+008650FM-15+0104EDEN V0200701N00411220001CN0070001N9+01001+00401999999ADDGA1021+009009089GA2021+060009009MA1100951999999MW1061REMMET011MDT CU NW-N
0096106405999991972030914004+50183+008650FM-15+0104EDEN V0200301N003110300019N0100001N9+01101+00301999999ADDGA1031+009009089GA2031+030009039GA3051+060009009MA1100911999999MW1001REMMET015CIG100 MDT CU N
0080106405999991972031008004+50183+008650FM-15+0104EDEN V0203601N006210120019N0022001N9+00401+00301999999ADDGA1031+005409079GA2081+012009059MA1100981999999MW1611REMMET015CIG040 FG PRSNT
0080106405999991972031009004+50183+008650FM-15+0104EDEN V0200101N005110114019N0028001N9+00401+00301999999ADDGA1041+004809079GA2081+011409059MA1101021999999MW1611REMMET015CIG038 FG PRSNT
0080106405999991972031010004+50183+008650FM-15+0104EDEN V0203601N008210120019N0034001N9+00501+00301999999ADDGA1031+006009079GA2081+012009059MA1101021999999MW1611REMMET015CIG040 FG PRSNT
0092106405999991972031011004+50183+008650FM-15+0104EDEN V0200301N007210120019N0037001N9+00601+00401999999ADDGA1021+005409079GA2041+012009059GA3081+024009049MA1100951999999MW1421REMMET011CIG040 RERA
0091106405999991972031012004+50183+008650FM-15+0104EDEN V0200201N007210120019N0037001N9+00501+00301999999ADDGA1041+006009059GA2081+012009059MA1100911999999MW1601REMMET026CIG040 FG PRSNT RA VRY LGT
0093106405999991972031013004+50183+008650FM-15+0104EDEN V0200201N005110105019N0037001N9+00501+00301999999ADDGA1041+005409079GA2081+010509059MA1100911999999MW1611REMMET028CIG035 FG PRSNT PCPN VRY LGT
0107106405999991972031014004+50183+008650FM-15+0104EDEN V0203601N005110105019N0047001N9+00401+00301999999ADDGA1011+004209079GA2041+005409079GA3081+010509059MA1100911999999MW1611REMMET026CIG035 FG PRSNT RA VRY LGT
0038106405999991972031306004+50183+008650FM-15+0104EDEN V0200201N00261220001CN0100001N9-00101-00301999999ADDMA1102341999999MW1001REMMET00590500
0024106405999991972031307004+50183+008650FM-15+0104EDEN V0200401N00211220001CN0100001N9+00001-00401999999ADDMA1102341999999MW1001
0024106405999991972031308004+50183+008650FM-15+0104EDEN V0200501N00211220001CN0100001N9+00201-00401999999ADDMA1102301999999MW1001
0024106405999991972031309004+50183+008650FM-15+0104EDEN V0201101N00411220001CN0100001N9+00301-00301999999ADDMA1102131999999MW1001
0024106405999991972031310004+50183+008650FM-15+0104EDEN V0201201N00511220001CN0100001N9+00501-00501999999ADDMA1102131999999MW1001
0024106405999991972031311004+50183+008650FM-15+0104EDEN V0201201N00311220001CN0100001N9+00701-00401999999ADDMA1102201999999MW1001
0024106405999991972031312004+50183+008650FM-15+0104EDEN V0201201N00411220001CN0100001N9+00801-00301999999ADDMA1102131999999MW1001
0024106405999991972031313004+50183+008650FM-15+0104EDEN V0201201N00411220001CN0100001N9+00801-00401999999ADDMA1102071999999MW1001
0024106405999991972031314004+50183+008650FM-15+0104EDEN V0201201N00511220001CN0100001N9+01001-00201999999ADDMA1102031999999MW1001
0077106405999991972031406004+50183+008650FM-15+0104EDEN V0209991C000010240019N0090001N9-00101-00301999999ADDGA1051+024009039GA2031+060009029MA1102401999999MW1441REMMET012CIG080/90500
0054106405999991972031407004+50183+008650FM-15+0104EDEN V0209991C00001220001CN0090001N9+00101-00201999999ADDGA1071+060009009MA1102401999999MW1441REMMET005CIGNO
0054106405999991972031408004+50183+008650FM-15+0104EDEN V0200701N00101220001CN0090001N9+00401-00101999999ADDGA1061+060009009MA1102401999999MW1061REMMET005CIGNO
0054106405999991972031409004+50183+008650FM-15+0104EDEN V0209991C00001220001CN0090001N9+00501+00001999999ADDGA1051+072009009MA1102401999999MW1061REMMET005CIGNO
0054106405999991972031410004+50183+008650FM-15+0104EDEN V0209991C00001220001CN0090001N9+00701+00101999999ADDGA1061+075009009MA1102441999999MW1061REMMET005CIGNO
0054106405999991972031411004+50183+008650FM-15+0104EDEN V0209991C00001220001CN0090001N9+01101+00301999999ADDGA1061+075009009MA1102371999999MW1061REMMET005CIGNO
0040106405999991972031412004+50183+008650FM-15+0104EDEN V0209991C00001220001CN0070001N9+01301+00401999999ADDGA1031+075009009MA1102301999999MW1061
0040106405999991972031413004+50183+008650FM-15+0104EDEN V0200901N00101220001CN0070001N9+01501+00401999999ADDGA1021+075009009MA1102241999999MW1061
0040106405999991972031414004+50183+008650FM-15+0104EDEN V0201201N00051220001CN0070001N9+01701+00501999999ADDGA1031+075009009MA1102171999999MW1061
0054106405999991972031506004+50183+008650FM-15+0104EDEN V0209991C00001220001CN0060001N9+00001-00201999999ADDGA1011+060009009MA1102371999999MW1441REMMET00590501
0040106405999991972031507004+50183+008650FM-15+0104EDEN V0200601N00101220001CN0060001N9+00201-00201999999ADDGA1011+060009009MA1102441999999MW1441
0024106405999991972031508004+50183+008650FM-15+0104EDEN V0200601N00211220001CN0060001N9+00301-00201999999ADDMA1102441999999MW1061
0040106405999991972031509004+50183+008650FM-15+0104EDEN V0200901N00101220001CN0060001N9+00701+00201999999ADDGA1011+060009009MA1102511999999MW1061
0024106405999991972031510004+50183+008650FM-15+0104EDEN V0200701N00151220001CN0090001N9+01101+00501999999ADDMA1102471999999MW1061
0040106405999991972031511004+50183+008650FM-15+0104EDEN V0200701N00101220001CN0100001N9+01301+00501999999ADDGA1011+066009009MA1102441999999MW1001
0040106405999991972031512004+50183+008650FM-15+0104EDEN V0201201N00101220001CN0100001N9+01601+00601999999ADDGA1011+075009009MA1102401999999MW1001
0040106405999991972031513004+50183+008650FM-15+0104EDEN V0201201N00051220001CN0100001N9+01701+00501999999ADDGA1011+075009009MA1102341999999MW1001
0038106405999991972031606004+50183+008650FM-15+0104EDEN V0200601N00261220001CN0090001N9+00201-00101999999ADDMA1102571999999MW1061REMMET00590501
0041106405999991972031607004+50183+008650FM-15+0104EDEN V0200701N00051220001CN0090001N9+00301+00001999999ADDMA1102641999999MW1061REMMET008VIS E2.5
0024106405999991972031608004+50183+008650FM-15+0104EDEN V0200701N00101220001CN0090001N9+00701+00301999999ADDMA1102641999999MW1061
0024106405999991972031609004+50183+008650FM-15+0104EDEN V0209991C00001220001CN0090001N9+00801+00301999999ADDMA1102641999999MW1061
0024106405999991972031610004+50183+008650FM-15+0104EDEN V0200801N00311220001CN0090001N9+01301+00501999999ADDMA1102571999999MW1061
0024106405999991972031611004+50183+008650FM-15+0104EDEN V0200801N00211220001CN0090001N9+01401+00401999999ADDMA1102511999999MW1061
0024106405999991972031612004+50183+008650FM-15+0104EDEN V0200801N00101220001CN0090001N9+01601+00301999999ADDMA1102441999999MW1061
0024106405999991972031613004+50183+008650FM-15+0104EDEN V0200301N00101220001CN0090001N9+01701+00401999999ADDMA1102341999999MW1061
0024106405999991972031614004+50183+008650FM-15+0104EDEN V0200301N00051220001CN0090001N9+01801+00401999999ADDMA1102301999999MW1061
0063106405999991972031706004+50183+008650FM-15+0104EDEN V0209991C00001220001CN0037001N9+00201+00101999999ADDGA1011+075009009MA1102541999999MW1441REMMET014VIS E1.0/90501
0066106405999991972031707004+50183+008650FM-15+0104EDEN V0200701N00101220001CN0037001N9+00301+00101999999ADDGA1011+075009009MA1102541999999MW1441REMMET017VIS E1.0 HZ PRSNT
0057106405999991972031708004+50183+008650FM-15+0104EDEN V0200501N00101220001CN0037001N9+00601+00201999999ADDGA1011+075009009MA1102541999999MW1061REMMET008VIS E1.0
0059106405999991972031709004+50183+008650FM-15+0104EDEN V0200401N00361220001CN0047001N9+00901+00301999999ADDGA1021+075009009MA1102511999999MW1061REMMET010VIS NW 4.0
0040106405999991972031710004+50183+008650FM-15+0104EDEN V0200201N00211220001CN0090001N9+01301+00501999999ADDGA1031+075009009MA1102441999999MW1061
0040106405999991972031711004+50183+008650FM-15+0104EDEN V0200101N00211220001CN0100001N9+01401+00401999999ADDGA1031+075009009MA1102401999999MW1001
0040106405999991972031712004+50183+008650FM-15+0104EDEN V0200601N00311220001CN0100001N9+01701+00401999999ADDGA1021+075009009MA1102341999999MW1001
0040106405999991972031713004+50183+008650FM-15+0104EDEN V0200601N00411220001CN0100001N9+01801+00401999999ADDGA1031+075009009MA1102271999999MW1001
0040106405999991972031714004+50183+008650FM-15+0104EDEN V0200601N00511220001CN0100001N9+01901+00201999999ADDGA1011+075009009MA1102201999999MW1001
0054106405999991972032006004+50183+008650FM-15+0104EDEN V0209991C00001220001CN0022001N9+00301+00201999999ADDGA1031+060009009MA1101931999999MW1441REMMET00590501
0040106405999991972032007004+50183+008650FM-15+0104EDEN V0209991C00001220001CN0022001N9+00401+00301999999ADDGA1021+060009009MA1101961999999MW1441
0057106405999991972032008004+50183+008650FM-15+0104EDEN V0200601N00151220001CN0026001N9+00701+00401999999ADDGA1021+060009009MA1101961999999MW1421REMMET008HZ PRSNT
0057106405999991972032009004+50183+008650FM-15+0104EDEN V0209991C00001220001CN0034001N9+01001+00501999999ADDGA1011+060009009MA1101961999999MW1421REMMET008HZ PRSNT
0024106405999991972032010004+50183+008650FM-15+0104EDEN V0200401N00101220001CN0047001N9+01301+00401999999ADDMA1101931999999MW1061
0024106405999991972032011004+50183+008650FM-15+0104EDEN V0209991C00001220001CN0060001N9+01601+00601999999ADDMA1101901999999MW1061
0024106405999991972032012004+50183+008650FM-15+0104EDEN V0200701N00051220001CN0060001N9+01801+00601999999ADDMA1101831999999MW1061
0024106405999991972032013004+50183+008650FM-15+0104EDEN V0200601N00151220001CN0070001N9+02101+00301999999ADDMA1101731999999MW1061
0040106405999991972032014004+50183+008650FM-15+0104EDEN V0200501N00211220001CN0070001N9+02101+00201999999ADDGA1011+009009089MA1101691999999MW1061
0054106405999991972032106004+50183+008650FM-15+0104EDEN V0200901N00151220001CN0060001N9+00601+00301999999ADDGA1041+024009039MA1102031999999MW1061REMMET00590500
0040106405999991972032107004+50183+008650FM-15+0104EDEN V0200801N00211220001CN0060001N9+00701+00301999999ADDGA1021+060009009MA1102071999999MW1061
0040106405999991972032108004+50183+008650FM-15+0104EDEN V0201001N00261220001CN0060001N9+01001+00401999999ADDGA1011+060009009MA1102071999999MW1061
0024106405999991972032109004+50183+008650FM-15+0104EDEN V0200701N00151220001CN0070001N9+01301+00201999999ADDMA1102071999999MW1061
