0054106570999991972010305004+49767+009483FM-15+0338EDOF V0200901N00411003301CN0100001N9-00101-00101999999ADDGA1051+003309079MA1101391999999MW1001REMMET005CIG11
0060106570999991972010306004+49767+009483FM-15+0338EDOF V0200601N00261004501CN0100001N9-00101-00101999999ADDGA1071+004509059MA1101391999999MW1001REMMET011CIG15/90505
0054106570999991972010307004+49767+009483FM-15+0338EDOF V0200701N00261004501CN0100001N9-00101-00101999999ADDGA1061+004509059MA1101461999999MW1001REMMET005CIG15
0054106570999991972010308004+49767+009483FM-15+0338EDOF V0201101N00211003901CN0060001N9-00101-00101999999ADDGA1081+003909059MA1101631999999MW1061REMMET005CIG13
0054106570999991972010309004+49767+009483FM-15+0338EDOF V0200601N00311003901CN0060001N9-00101-00101999999ADDGA1081+003909059MA1101631999999MW1061REMMET005CIG13
0070106570999991972010310004+49767+009483FM-15+0338EDOF V0200801N003610039019N0060001N9-00101-00101999999ADDGA1061+003909059GA2081+006009059MA1101691999999MW1061REMMET005CIG13
0069106570999991972010311004+49767+009483FM-15+0338EDOF V0200701N00311004501CN0034001N9+00001-00101999999ADDGA1081+004509059MA1101521999999MW1441REMMET020CIG15 1FG// HZ PRSNT
0079106570999991972010312004+49767+009483FM-15+0338EDOF V0200801N002610027019N0048001N9+00001-00101999999ADDGA1061+002709059GA2081+006009059MA1101461999999MW1421REMMET014CIG09 HZ PRSNT
0079106570999991972010313004+49767+009483FM-15+0338EDOF V0209991V001510027019N0048001N9+00101-00101999999ADDGA1061+002709059GA2081+006009059MA1101461999999MW1441REMMET014CIG09 HZ PRSNT
0079106570999991972010314004+49767+009483FM-15+0338EDOF V0209991V001010024019N0048001N9+00101-00101999999ADDGA1051+002409059GA2081+006009059MA1101521999999MW1441REMMET014CIG08 HZ PRSNT
0079106570999991972010315004+49767+009483FM-15+0338EDOF V0209991V001510024019N0045001N9+00101-00101999999ADDGA1061+002409059GA2081+006009059MA1101591999999MW1461REMMET014CIG08 HZ PRSNT
0054106570999991972010316004+49767+009483FM-15+0338EDOF V0209991V00051003001CN0037001N9+00101-00101999999ADDGA1081+003009059MA1101631999999MW1461REMMET005CIG10
0054106570999991972010317004+49767+009483FM-15+0338EDOF V0209991V00101003001CN0037001N9+00101-00101999999ADDGA1081+003009059MA1101631999999MW1441REMMET005CIG10
0066106570999991972010405004+49767+009483FM-15+0338EDOF V0201101N00151006001CN0018001N9+00001+00001999999ADDGA1081+006009059MA1101861999999MW1441REMMET017CIG20/RADAT 72030
0060106570999991972010406004+49767+009483FM-15+0338EDOF V0202501N00101006001CN0018001N9+00001+00001999999ADDGA1081+006009059MA1101861999999MW1441REMMET011CIG20/90507
0054106570999991972010407004+49767+009483FM-15+0338EDOF V0201201N00101006001CN0018001N9+00001+00001999999ADDGA1061+006009059MA1101901999999MW1441REMMET005CIG20
0086106570999991972010408004+49767+009483FM-15+0338EDOF V0201501N001510060019N0026001N9+00101+00001999999ADDGA1051+006009059GA2061+021009039MA1101931999999MW1421REMMET021CIG20 VIS INCRG SLWLY
0088106570999991972010409004+49767+009483FM-15+0338EDOF V0202101N003610060019N0032001N9+00101+00001999999ADDGA1051+006009059GA2081+021009039MA1101961999999MW1441REMMET023CIG20 OCNL VRY LGT SNSH
0104106570999991972010410004+49767+009483FM-15+0338EDOF V0202201N002610060019N0047001N9+00101+00001999999ADDGA1051+006009059GA2081+021009039MA1102031999999MW1701REMMET039CIG20 PCPN VRY LGT FG PRSNT/RADAT 85022
0070106570999991972010411004+49767+009483FM-15+0338EDOF V0202101N003110045019N0047001N9+00201+00001999999ADDGA1061+004509059GA2071+021009039MA1101961999999MW1441REMMET005CIG15
0087106570999991972010412004+49767+009483FM-15+0338EDOF V0202301N002110042019N0048001N9+00201+00001999999ADDGA1051+004209059GA2081+021009039MA1101931999999MW1421REMMET022CIG14 OCNLY VRY LGT DZ
0070106570999991972010413004+49767+009483FM-15+0338EDOF V0202101N002610045019N0048001N9+00201+00101999999ADDGA1051+004509059GA2081+018009039MA1101931999999MW1441REMMET005CIG15
0070106570999991972010414004+49767+009483FM-15+0338EDOF V0202101N003110030019N0048001N9+00201+00101999999ADDGA1061+003009059GA2081+007509059MA1101931999999MW1441REMMET005CIG10
0054106570999991972010415004+49767+009483FM-15+0338EDOF V0202001N00411003001CN0048001N9+00201+00101999999ADDGA1081+003009059MA1101961999999MW1441REMMET005CIG10
0054106570999991972010416004+49767+009483FM-15+0338EDOF V0202301N00261003001CN0060001N9+00201+00101999999ADDGA1081+003009059MA1102031999999MW1441REMMET005CIG10
0070106570999991972010417004+49767+009483FM-15+0338EDOF V0202201N002110210019N0060001N9+00101+00001999999ADDGA1041+003009059GA2031+060009009MA1102071999999MW1441REMMET005CIG70
0080106570999991972010505004+49767+009483FM-15+0338EDOF V0209991C00001000151CN0000001N9-00301-00301999999ADDGA1091+000159999GF109991999999999999999999MA1102201999999MW1451REMMET005CIG00
0103106570999991972010506004+49767+009483FM-15+0338EDOF V0209991V00101001201CN0006001N9-00201-00201999999ADDGA1091+001209999GF109991999999999999999999MA1102171999999MW1431REMMET028CIG04/90504/RADAT 00L016G025
0080106570999991972010507004+49767+009483FM-15+0338EDOF V0209991C00001000301CN0000001N9-00201-00201999999ADDGA1091+000309999GF109991999999999999999999MA1102201999999MW1471REMMET005CIG01
0080106570999991972010508004+49767+009483FM-15+0338EDOF V0200601N00211000301CN0000001N9-00201-00201999999ADDGA1091+000309999GF109991999999999999999999MA1102301999999MW1451REMMET005CIG01
0080106570999991972010509004+49767+009483FM-15+0338EDOF V0200701N00211000301CN0000001N9-00101-00201999999ADDGA1091+000309999GF109991999999999999999999MA1102301999999MW1451REMMET005CIG01
0080106570999991972010510004+49767+009483FM-15+0338EDOF V0200701N00151000301CN0000001N9-00101-00201999999ADDGA1091+000309999GF109991999999999999999999MA1102341999999MW1451REMMET005CIG01
0091106570999991972010511004+49767+009483FM-15+0338EDOF V0200901N00211000301CN0000001N9-00101-00201999999ADDGA1091+000309999GF109991999999999999999999MA1102341999999MW1451REMMET016CIG01/RADAT ZERO
0080106570999991972010512004+49767+009483FM-15+0338EDOF V0201101N00151000301CN0000001N9-00101-00201999999ADDGA1091+000309999GF109991999999999999999999MA1102271999999MW1451REMMET005CIG01
0080106570999991972010513004+49767+009483FM-15+0338EDOF V0201101N00151000301CN0000001N9-00101-00201999999ADDGA1091+000309999GF109991999999999999999999MA1102271999999MW1451REMMET005CIG01
0080106570999991972010514004+49767+009483FM-15+0338EDOF V0200701N00211000151CN0000001N9-00101-00101999999ADDGA1091+000159999GF109991999999999999999999MA1102271999999MW1451REMMET005CIG00
0080106570999991972010515004+49767+009483FM-15+0338EDOF V0200801N00211000151CN0000001N9-00101-00101999999ADDGA1091+000159999GF109991999999999999999999MA1102271999999MW1451REMMET005CIG00
0080106570999991972010516004+49767+009483FM-15+0338EDOF V0200901N00211000151CN0000001N9-00101-00101999999ADDGA1091+000159999GF109991999999999999999999MA1102301999999MW1451REMMET005CIG00
0080106570999991972010517004+49767+009483FM-15+0338EDOF V0201201N00211000151CN0000001N9-00101-00101999999ADDGA1091+000159999GF109991999999999999999999MA1102271999999MW1451REMMET005CIG00
0091106570999991972010605004+49767+009483FM-15+0338EDOF V0200801N00261000301CN0002001N9-00201-00201999999ADDGA1091+000309999GF109991999999999999999999MA1102131999999MW1451REMMET016CIG01/RADAT ZERO
0086106570999991972010606004+49767+009483FM-15+0338EDOF V0200901N00311000301CN0002001N9-00201-00301999999ADDGA1091+000309999GF109991999999999999999999MA1102131999999MW1451REMMET011CIG01/90504
0080106570999991972010607004+49767+009483FM-15+0338EDOF V0200601N00311000151CN0001001N9-00201-00301999999ADDGA1091+000159999GF109991999999999999999999MA1102171999999MW1471REMMET005CIG00
0080106570999991972010608004+49767+009483FM-15+0338EDOF V0200601N00261000151CN0001001N9-00201-00301999999ADDGA1091+000159999GF109991999999999999999999MA1102171999999MW1451REMMET005CIG00
0080106570999991972010609004+49767+009483FM-15+0338EDOF V0200501N00261000151CN0001001N9-00201-00301999999ADDGA1091+000159999GF109991999999999999999999MA1102201999999MW1451REMMET005CIG00
0091106570999991972010610004+49767+009483FM-15+0338EDOF V0200801N00311000301CN0002001N9-00201-00301999999ADDGA1091+000309999GF109991999999999999999999MA1102201999999MW1431REMMET016CIG01/RADAT ZERO
0080106570999991972010611004+49767+009483FM-15+0338EDOF V0200501N00311000601CN0004001N9-00201-00301999999ADDGA1091+000609999GF109991999999999999999999MA1102171999999MW1431REMMET005CIG02
0080106570999991972010612004+49767+009483FM-15+0338EDOF V0200501N00211000601CN0006001N9-00201-00301999999ADDGA1091+000609999GF109991999999999999999999MA1102131999999MW1431REMMET005CIG02
0080106570999991972010613004+49767+009483FM-15+0338EDOF V0200701N00311000901CN0007001N9-00201-00201999999ADDGA1091+000909999GF109991999999999999999999MA1102101999999MW1431REMMET005CIG03
0080106570999991972010614004+49767+009483FM-15+0338EDOF V0200801N00261000901CN0011001N9-00201-00201999999ADDGA1091+000909999GF109991999999999999999999MA1102071999999MW1451REMMET005CIG03
0080106570999991972010615004+49767+009483FM-15+0338EDOF V0200901N00311001201CN0013001N9-00201-00201999999ADDGA1091+001209999GF109991999999999999999999MA1102131999999MW1431REMMET005CIG04
0080106570999991972010616004+49767+009483FM-15+0338EDOF V0200601N00311000901CN0011001N9-00201-00301999999ADDGA1091+000909999GF109991999999999999999999MA1102131999999MW1471REMMET005CIG03
0080106570999991972010617004+49767+009483FM-15+0338EDOF V0200901N00311000901CN0011001N9-00201-00201999999ADDGA1091+000909999GF109991999999999999999999MA1102131999999MW1451REMMET005CIG03
0065106570999991972010705004+49767+009483FM-15+0338EDOF V0200901N00311002101CN0015001N9-00201-00301999999ADDGA1081+002109079MA1102031999999MW1441REMMET016CIG07/RADAT ZERO
0060106570999991972010706004+49767+009483FM-15+0338EDOF V0209991V00151002101CN0017001N9-00201-00301999999ADDGA1081+002109079MA1102031999999MW1421REMMET011CIG07/90504
0054106570999991972010707004+49767+009483FM-15+0338EDOF V0200801N00361002101CN0017001N9-00201-00301999999ADDGA1081+002109079MA1102031999999MW1441REMMET005CIG07
0054106570999991972010708004+49767+009483FM-15+0338EDOF V0200701N00311002101CN0018001N9-00201-00201999999ADDGA1081+002109079MA1102031999999MW1481REMMET005CIG07
0063106570999991972010709004+49767+009483FM-15+0338EDOF V0200901N00261002101CN0018001N9-00201-00301999999ADDGA1081+002109079MA1102071999999MW1711REMMET014CIG07 FG PRSNT
0074106570999991972010710004+49767+009483FM-15+0338EDOF V0200801N00311002401CN0018001N9-00201-00201999999ADDGA1081+002409079MA1102031999999MW1711REMMET025CIG08 SN VRY LGT FG PRSNT
0091106570999991972010711004+49767+009483FM-15+0338EDOF V0200801N00311002401CN0022001N9-00101-00201999999ADDGA1081+002409079MA1102031999999MW1711REMMET042CIG08 SN OCNLY VRY LGT FG PRSNT/RADAT ZERO
0074106570999991972010712004+49767+009483FM-15+0338EDOF V0200901N00311002401CN0022001N9-00101-00201999999ADDGA1081+002409079MA1102001999999MW1701REMMET025CIG08 SN VRY LGT FG PRSNT
0054106570999991972010713004+49767+009483FM-15+0338EDOF V0200401N00261002401CN0026001N9-00101-00201999999ADDGA1081+002409079MA1102001999999MW1421REMMET005CIG08
0054106570999991972010714004+49767+009483FM-15+0338EDOF V0200401N00311002401CN0026001N9-00101-00201999999ADDGA1081+002409079MA1101961999999MW1441REMMET005CIG08
0054106570999991972010715004+49767+009483FM-15+0338EDOF V0200701N00311002401CN0026001N9-00101-00201999999ADDGA1081+002409079MA1102001999999MW1441REMMET005CIG08
0054106570999991972010716004+49767+009483FM-15+0338EDOF V0200501N00261002401CN0026001N9-00101-00201999999ADDGA1081+002409079MA1102031999999MW1441REMMET005CIG08
0054106570999991972010717004+49767+009483FM-15+0338EDOF V0200501N00211002401CN0026001N9-00101-00201999999ADDGA1081+002409079MA1102071999999MW1441REMMET005CIG08
0104106570999991972011005004+49767+009483FM-15+0338EDOF V0200601N00211000301CN0002001N9-00101-00101999999ADDGA1091+000309999GF109991999999999999999999MA1101861999999MW1561REMMET029CIG01 FG PRSNT/RADAT //028068
0079106570999991972011006004+49767+009483FM-15+0338EDOF V0200101N00211001501CN0011001N9-00101-00101999999ADDGA1081+001509079MA1101861999999MW1581REMMET030CIG05 5FG// PCPN VRY LGT/90506
0073106570999991972011007004+49767+009483FM-15+0338EDOF V0209991V00101001501CN0011001N9-00101-00101999999ADDGA1081+001509079MA1101931999999MW1581REMMET024CIG05 6FG// PCPN VRY LGT
0073106570999991972011008004+49767+009483FM-15+0338EDOF V0200801N00211001501CN0011001N9-00101-00101999999ADDGA1081+001509079MA1102031999999MW1561REMMET024CIG05 5FG// PCPN VRY LGT
0073106570999991972011009004+49767+009483FM-15+0338EDOF V0200701N00261000901CN0004001N9-00101-00101999999ADDGA1081+000909079MA1102071999999MW1561REMMET024CIG03 6FG// PCPN VRY LGT
0085106570999991972011010004+49767+009483FM-15+0338EDOF V0200601N00311000901CN0004001N9-00101-00101999999ADDGA1081+000909079MA1102071999999MW1561REMMET036CIG03 6FG// PCPN VRY LGT/RADAT 94058
0083106570999991972011011004+49767+009483FM-15+0338EDOF V0200601N00261000901CN0002001N9+00001+00001999999ADDGA1081+000909079MA1102071999999MW1581REMMET034CIG03 7FG// PCPN VRY LGT OCNLY LGT
0089106570999991972011012004+49767+009483FM-15+0338EDOF V0200701N00211000601CN0000001N9+00001+00001999999ADDGA1091+000609999GF109991999999999999999999MA1102031999999MW1581REMMET014CIG02 FG PRSNT
0089106570999991972011013004+49767+009483FM-15+0338EDOF V0200401N00211000901CN0001001N9+00001+00001999999ADDGA1091+000909999GF109991999999999999999999MA1102031999999MW1611REMMET014CIG03 FG PRSNT
0089106570999991972011014004+49767+009483FM-15+0338EDOF V0200501N00261000901CN0001001N9+00101+00101999999ADDGA1091+000909999GF109991999999999999999999MA1102031999999MW1611REMMET014CIG03 FG PRSNT
0089106570999991972011015004+49767+009483FM-15+0338EDOF V0200501N00311000901CN0000001N9+00101+00101999999ADDGA1091+000909999GF109991999999999999999999MA1102071999999MW1611REMMET014CIG03 FG PRSNT
0089106570999991972011016004+49767+009483FM-15+0338EDOF V0200801N00361000151CN0000001N9+00101+00101999999ADDGA1091+000159999GF109991999999999999999999MA1102071999999MW1611REMMET014CIG00 FG PRSNT
0089106570999991972011017004+49767+009483FM-15+0338EDOF V0200601N00261000151CN0000001N9+00101+00101999999ADDGA1091+000159999GF109991999999999999999999MA1102071999999MW1611REMMET014CIG00 FG PRSNT
0099106570999991972011105004+49767+009483FM-15+0338EDOF V0209991V00101000151CN0000001N9+00101+00101999999ADDGA1091+000159999GF109991999999999999999999MA1102241999999MW1471REMMET024CIG00/RADAT 00L013014045
0086106570999991972011106004+49767+009483FM-15+0338EDOF V0200601N00211000151CN0000001N9+00101+00101999999ADDGA1091+000159999GF109991999999999999999999MA1102171999999MW1451REMMET011CIG00/90505
0080106570999991972011107004+49767+009483FM-15+0338EDOF V0200701N00261000151CN0000001N9+00101+00101999999ADDGA1091+000159999GF109991999999999999999999MA1102201999999MW1451REMMET005CIG00
0080106570999991972011108004+49767+009483FM-15+0338EDOF V0200701N00151000301CN0001001N9+00101+00101999999ADDGA1091+000309999GF109991999999999999999999MA1102201999999MW1431REMMET005CIG01
0080106570999991972011109004+49767+009483FM-15+0338EDOF V0200701N00211000301CN0001001N9+00101+00101999999ADDGA1091+000309999GF109991999999999999999999MA1102131999999MW1451REMMET005CIG01
0080106570999991972011110004+49767+009483FM-15+0338EDOF V0200801N00261000301CN0000001N9+00101+00101999999ADDGA1091+000309999GF109991999999999999999999MA1102131999999MW1471REMMET005CIG01
0080106570999991972011111004+49767+009483FM-15+0338EDOF V0200701N00311000301CN0000001N9+00101+00101999999ADDGA1091+000309999GF109991999999999999999999MA1102031999999MW1451REMMET005CIG01
0080106570999991972011112004+49767+009483FM-15+0338EDOF V0200501N00311000301CN0000001N9+00201+00201999999ADDGA1091+000309999GF109991999999999999999999MA1102001999999MW1451REMMET005CIG01
0080106570999991972011113004+49767+009483FM-15+0338EDOF V0200601N00411000301CN0000001N9+00201+00201999999ADDGA1091+000309999GF109991999999999999999999MA1101931999999MW1451REMMET005CIG01
0080106570999991972011114004+49767+009483FM-15+0338EDOF V0200501N00311000301CN0000001N9+00201+00201999999ADDGA1091+000309999GF109991999999999999999999MA1101901999999MW1451REMMET005CIG01
0080106570999991972011115004+49767+009483FM-15+0338EDOF V0200701N00411000301CN0000001N9+00201+00201999999ADDGA1091+000309999GF109991999999999999999999MA1101861999999MW1451REMMET005CIG01
0080106570999991972011116004+49767+009483FM-15+0338EDOF V0200901N00311000151CN0000001N9+00201+00201999999ADDGA1091+000159999GF109991999999999999999999MA1101831999999MW1471REMMET005CIG00
0080106570999991972011117004+49767+009483FM-15+0338EDOF V0200801N00261000151CN0000001N9+00301+00301999999ADDGA1091+000159999GF109991999999999999999999MA1101801999999MW1451REMMET005CIG00
0073106570999991972011205004+49767+009483FM-15+0338EDOF V0200801N00361002101CN0018001N9+00201+00201999999ADDGA1081+002109079MA1101661999999MW1441REMMET024CIG07/RADAT 00L027063084
0067106570999991972011206004+49767+009483FM-15+0338EDOF V0201001N00211002101CN0026001N9+00201+00201999999ADDGA1081+002109079MA1101661999999MW1421REMMET018CIG07 3FG// /90502
0060106570999991972011207004+49767+009483FM-15+0338EDOF V0201201N00261003001CN0034001N9+00201+00201999999ADDGA1081+003009079MA1101691999999MW1441REMMET011CIG10 2FG//
0060106570999991972011208004+49767+009483FM-15+0338EDOF V0201101N00311003001CN0028001N9+00201+00201999999ADDGA1081+003009079MA1101731999999MW1461REMMET011CIG10 4FG//
0060106570999991972011209004+49767+009483FM-15+0338EDOF V0201001N00361002101CN0013001N9+00201+00201999999ADDGA1081+002109079MA1101731999999MW1441REMMET011CIG07 5FG//
0096106570999991972011210004+49767+009483FM-15+0338EDOF V0201201N003110012019N0015001N9+00301+00201999999ADDGA1041+001209079GA2081+002109059MA1101731999999MW1421REMMET031CIG04 4FG// /RADAT 00L023048069
0076106570999991972011211004+49767+009483FM-15+0338EDOF V0201201N003610018019N0026001N9+00301+00201999999ADDGA1011+001209079GA2081+001809059MA1101661999999MW1441REMMET011CIG06 2FG//
0076106570999991972011212004+49767+009483FM-15+0338EDOF V0201201N003110024019N0026001N9+00201+00201999999ADDGA1061+002409079GA2081+006009059MA1101631999999MW1611REMMET011CIG08 1FG//
0070106570999991972011213004+49767+009483FM-15+0338EDOF V0201001N004110210019N0030001N9+00301+00101999999ADDGA1061+002109079GA2081+006009059MA1101631999999MW1441REMMET005CIG07
0070106570999991972011214004+49767+009483FM-15+0338EDOF V0201201N003110021019N0034001N9+00301+00101999999ADDGA1071+002109079GA2081+006009059MA1101631999999MW1421REMMET005CIG07
0070106570999991972011215004+49767+009483FM-15+0338EDOF V0201101N003610027019N0034001N9+00301+00101999999ADDGA1051+002709079GA2081+006009059MA1101661999999MW1441REMMET005CIG09
0081106570999991972011216004+49767+009483FM-15+0338EDOF V0201001N003610027019N0037001N9+00201+00101999999ADDGA1051+002709079GA2081+006009059MA1101661999999MW1441REMMET016CIG09 OCNL CIG20
0070106570999991972011217004+49767+009483FM-15+0338EDOF V0201101N003610027019N0037001N9+00201+00001999999ADDGA1051+002709079GA2081+006009059MA1101661999999MW1441REMMET005CIG09
0089106570999991972011305004+49767+009483FM-15+0338EDOF V0201001N004110033019N0070001N9-00101-00301999999ADDGA1061+003309079GA2081+007509059MA1101691999999MW1061REMMET024CIG11/RADAT 00L015049060
0076106570999991972011306004+49767+009483FM-15+0338EDOF V0201101N003610030019N0070001N9-00101-00301999999ADDGA1061+003009079GA2081+007509059MA1101691999999MW1061REMMET011CIG10/90501
0071106570999991972011307004+49767+009483FM-15+0338EDOF V0201001N00511003001CN0060001N9-00101-00301999999ADDGA1081+003009079MA1101691999999MW1061REMMET022CIG10 BCFG IN VLYS N-E
0075106570999991972011308004+49767+009483FM-15+0338EDOF V0201101N00461002401CN0060001N9-00101-00301999999ADDGA1081+002409079MA1101691999999MW1061REMMET026CIG08 VIS N-E 4700 IN BCFG
0071106570999991972011309004+49767+009483FM-15+0338EDOF V0201001N00411002401CN0060001N9-00101-00301999999ADDGA1081+002409079MA1101731999999MW1061REMMET022CIG08 BCFG IN VLYS N-E
0070106570999991972011310004+49767+009483FM-15+0338EDOF V0201201N00461002401CN0070001N9-00101-00301999999ADDGA1081+002409079MA1101731999999MW1061REMMET021CIG08/RADAT 66L052098
0054106570999991972011311004+49767+009483FM-15+0338EDOF V0201101N00411002701CN0070001N9-00101-00301999999ADDGA1081+002709079MA1101661999999MW1061REMMET005CIG09
0054106570999991972011312004+49767+009483FM-15+0338EDOF V0201101N00621002701CN0070001N9-00101-00301999999ADDGA1081+002709079MA1101631999999MW1061REMMET005CIG09
0054106570999991972011313004+49767+009483FM-15+0338EDOF V0201001N00411002701CN0090001N9-00101-00301999999ADDGA1081+002709079MA1101591999999MW1061REMMET005CIG09
0054106570999991972011314004+49767+009483FM-15+0338EDOF V0201301N00511002701CN0090001N9-00101-00301999999ADDGA1081+002709079MA1101591999999MW1061REMMET005CIG09
0054106570999991972011315004+49767+009483FM-15+0338EDOF V0201001N00411002701CN0090001N9-00101-00301999999ADDGA1081+002709079MA1101591999999MW1061REMMET005CIG09
0054106570999991972011316004+49767+009483FM-15+0338EDOF V0200801N00361002401CN0090001N9-00201-00301999999ADDGA1081+002409079MA1101591999999MW1061REMMET005CIG08
0054106570999991972011317004+49767+009483FM-15+0338EDOF V0200901N00411002401CN0090001N9-00201-00301999999ADDGA1081+002409079MA1101561999999MW1061REMMET005CIG08
0070106570999991972011405004+49767+009483FM-15+0338EDOF V0200701N00411002101CN0048001N9-00301-00401999999ADDGA1081+002109079MA1101391999999MW1441REMMET021CIG07/RADAT 64L036050
0069106570999991972011406004+49767+009483FM-15+0338EDOF V0200901N00361002101CN0048001N9-00301-00401999999ADDGA1081+002109079MA1101421999999MW1441REMMET020CIG07 HZ PRSNT/90501
0063106570999991972011407004+49767+009483FM-15+0338EDOF V0200801N00411002101CN0048001N9-00301-00401999999ADDGA1081+002109079MA1101421999999MW1441REMMET014CIG07 HZ PRSNT
0063106570999991972011408004+49767+009483FM-15+0338EDOF V0200601N00461002101CN0040001N9-00301-00401999999ADDGA1081+002109079MA1101461999999MW1461REMMET014CIG07 HZ PRSNT
0063106570999991972011409004+49767+009483FM-15+0338EDOF V0200501N00461001801CN0040001N9-00201-00301999999ADDGA1081+001809079MA1101491999999MW1441REMMET014CIG06 HZ PRSNT
0063106570999991972011410004+49767+009483FM-15+0338EDOF V0200901N00411001801CN0040001N9-00201-00301999999ADDGA1081+001809079MA1101521999999MW1441REMMET014CIG06 HZ PRSNT
0074106570999991972011411004+49767+009483FM-15+0338EDOF V0200601N00361002101CN0040001N9-00201-00301999999ADDGA1081+002109079MA1101491999999MW1441REMMET025CIG07 HZ PRSNT/RADAT ZERO
0063106570999991972011412004+49767+009483FM-15+0338EDOF V0200601N00411002101CN0040001N9-00201-00301999999ADDGA1081+002109079MA1101491999999MW1441REMMET014CIG07 HZ PRSNT
0079106570999991972011413004+49767+009483FM-15+0338EDOF V0200501N005110021019N0040001N9-00201-00301999999ADDGA1031+001209079GA2081+002109079MA1101461999999MW1441REMMET014CIG07 HZ PRSNT
0079106570999991972011414004+49767+009483FM-15+0338EDOF V0200701N004110012019N0030001N9-00201-00301999999ADDGA1061+001209079GA2081+002109079MA1101461999999MW1441REMMET014CIG04 HZ PRSNT
0070106570999991972011415004+49767+009483FM-15+0338EDOF V0200701N004110012019N0028001N9-00201-00301999999ADDGA1051+001209079GA2081+002409079MA1101461999999MW1461REMMET005CIG04
0070106570999991972011416004+49767+009483FM-15+0338EDOF V0200601N004110021019N0018001N9-00201-00301999999ADDGA1031+001209079GA2081+002109079MA1101461999999MW1441REMMET005CIG07
0070106570999991972011417004+49767+009483FM-15+0338EDOF V0200901N004110021019N0018001N9-00201-00301999999ADDGA1031+001209079GA2081+002109079MA1101461999999MW1441REMMET005CIG07
0054106570999991972011705004+49767+009483FM-15+0338EDOF V0200901N00511220001CN0090001N9-00901-01201999999ADDGA1051+060009009MA1100441999999MW1061REMMET005CIGNO
0060106570999991972011706004+49767+009483FM-15+0338EDOF V0200901N00621220001CN0090001N9-00901-01201999999ADDGA1051+060009009MA1100441999999MW1061REMMET011CIGNO/90500
0056106570999991972011707004+49767+009483FM-15+0338EDOF V0200801N005112200019N0090001N9-00901-01201999999ADDGA1011+024009049GA2031+060009009MA1100471999999MW1061
0040106570999991972011708004+49767+009483FM-15+0338EDOF V0200901N00671220001CN0090001N9-00901-01201999999ADDGA1041+060009009MA1100471999999MW1061
0054106570999991972011709004+49767+009483FM-15+0338EDOF V0201001N00571220001CN0090001N9-00901-01201999999ADDGA1061+060009009MA1100471999999MW1061REMMET005CIGNO
0054106570999991972011710004+49767+009483FM-15+0338EDOF V0200901N00671220001CN0090001N9-00801-01301999999ADDGA1061+060009009MA1100471999999MW1061REMMET005CIGNO
0054106570999991972011711004+49767+009483FM-15+0338EDOF V0200901N00621220001CN0090001N9-00701-01201999999ADDGA1061+060009009MA1100441999999MW1061REMMET005CIGNO
0054106570999991972011712004+49767+009483FM-15+0338EDOF V0200901N00671220001CN0100001N9-00601-01201999999ADDGA1061+060009009MA1100411999999MW1001REMMET005CIGNO
0054106570999991972011713004+49767+009483FM-15+0338EDOF V0201101N00621220001CN0100001N9-00601-01201999999ADDGA1051+060009009MA1100311999999MW1001REMMET005CIGNO
0054106570999991972011714004+49767+009483FM-15+0338EDOF V0200901N00671220001CN0100001N9-00601-01201999999ADDGA1051+060009009MA1100241999999MW1001REMMET005CIGNO
0040106570999991972011715004+49767+009483FM-15+0338EDOF V0201101N00721220001CN0100001N9-00601-01201999999ADDGA1041+060009009MA1100271999999MW1001
0040106570999991972011716004+49767+009483FM-15+0338EDOF V0200601N00621220001CN0100001N9-00701-01201999999ADDGA1031+060009009MA1100371999999MW1001
0040106570999991972011717004+49767+009483FM-15+0338EDOF V0201101N00511220001CN0100001N9-00701-01301999999ADDGA1031+060009009MA1100411999999MW1001
0024106570999991972011805004+49767+009483FM-15+0338EDOF V0200601N00461220001CN0060001N9-01201-01301999999ADDMA1100751999999MW1061
0050106570999991972011806004+49767+009483FM-15+0338EDOF V0200501N00411220001CN0060001N9-01201-01301999999ADDMA1100781999999MW1061REMMET017RADAT 50068/90503
0024106570999991972011807004+49767+009483FM-15+0338EDOF V0200501N00311220001CN0060001N9-01201-01301999999ADDMA1100881999999MW1061
0024106570999991972011808004+49767+009483FM-15+0338EDOF V0200501N00311220001CN0070001N9-01201-01301999999ADDMA1100951999999MW1061
0024106570999991972011809004+49767+009483FM-15+0338EDOF V0200801N00311220001CN0060001N9-01101-01301999999ADDMA1100981999999MW1061
0024106570999991972011810004+49767+009483FM-15+0338EDOF V0200701N00311220001CN0060001N9-01001-01201999999ADDMA1101021999999MW1061
0024106570999991972011811004+49767+009483FM-15+0338EDOF V0200601N00311220001CN0070001N9-00801-01201999999ADDMA1101021999999MW1061
0024106570999991972011812004+49767+009483FM-15+0338EDOF V0200801N00361220001CN0070001N9-00701-01101999999ADDMA1101021999999MW1061
0024106570999991972011813004+49767+009483FM-15+0338EDOF V0200701N00311220001CN0090001N9-00601-01101999999ADDMA1101051999999MW1061
0024106570999991972011814004+49767+009483FM-15+0338EDOF V0200801N00361220001CN0070001N9-00601-01101999999ADDMA1101081999999MW1061
0024106570999991972011815004+49767+009483FM-15+0338EDOF V0200701N00311220001CN0070001N9-00601-01001999999ADDMA1101121999999MW1061
0024106570999991972011816004+49767+009483FM-15+0338EDOF V0200601N00261220001CN0060001N9-00601-01101999999ADDMA1101221999999MW1061
0024106570999991972011817004+49767+009483FM-15+0338EDOF V0200701N00261220001CN0060001N9-00701-01001999999ADDMA1101251999999MW1061
0038106570999991972011905004+49767+009483FM-15+0338EDOF V0200901N00211220001CN0018001N9-01101-01101999999ADDMA1101391999999MW1441REMMET0053FG//
0045106570999991972011906004+49767+009483FM-15+0338EDOF V0200301N00211220001CN0018001N9-01101-01101999999ADDMA1101391999999MW1441REMMET0123FG// /90503
0038106570999991972011907004+49767+009483FM-15+0338EDOF V0209991V00101220001CN0026001N9-01101-01101999999ADDMA1101461999999MW1421REMMET0051FG//
0054106570999991972011908004+49767+009483FM-15+0338EDOF V0209991V00211220001CN0026001N9-01101-01101999999ADDGA1021+060009009MA1101461999999MW1441REMMET0051FG//
0063106570999991972011909004+49767+009483FM-15+0338EDOF V0200701N00261220001CN0026001N9-00901-00901999999ADDGA1061+060009009MA1101491999999MW1441REMMET014CIGNO HZ PRSNT
0063106570999991972011910004+49767+009483FM-15+0338EDOF V0200601N00311220001CN0026001N9-00801-00901999999ADDGA1061+060009009MA1101461999999MW1441REMMET014CIGNO HZ PRSNT
0063106570999991972011911004+49767+009483FM-15+0338EDOF V0200801N00361220001CN0026001N9-00801-00901999999ADDGA1061+060009009MA1101351999999MW1441REMMET014CIGNO HZ PRSNT
0054106570999991972012405004+49767+009483FM-15+0338EDOF V0209991V00101007501CN0018001N9-00201-00201999999ADDGA1081+007509059MA1102001999999MW1441REMMET005CIG25
0060106570999991972012406004+49767+009483FM-15+0338EDOF V0209991V00101007501CN0018001N9-00201-00201999999ADDGA1081+007509059MA1101961999999MW1441REMMET011CIG25/90507
0067106570999991972012407004+49767+009483FM-15+0338EDOF V0200501N00151007501CN0009001N9-00201-00201999999ADDGA1081+007509059MA1101931999999MW1461REMMET018CIG25 VIS N-E 0700
0080106570999991972012408004+49767+009483FM-15+0338EDOF V0200401N00151007501CN0007001N9-00201-00201999999ADDGA1081+007509059MA1101901999999MW1701REMMET031CIG25 2FG// SN VRY LGT FG PRSNT
0060106570999991972012409004+49767+009483FM-15+0338EDOF V0209991V00101007501CN0006001N9-00201-00201999999ADDGA1081+007509059MA1101861999999MW1461REMMET011CIG25 4FG//
0080106570999991972012410004+49767+009483FM-15+0338EDOF V0200501N00211007501CN0015001N9-00201-00201999999ADDGA1081+007509059MA1101801999999MW1701REMMET031CIG25 4FG// SN VRY LGT FG PRSNT
0096106570999991972012411004+49767+009483FM-15+0338EDOF V0209991V001510018019N0015001N9-00201-00201999999ADDGA1021+001809079GA2081+007509059MA1101731999999MW1701REMMET031CIG06 4FG// SN VRY LGT FG PRSNT
0076106570999991972012412004+49767+009483FM-15+0338EDOF V0209991V001010018019N0015001N9-00101-00101999999ADDGA1031+001809079GA2081+007509059MA1101691999999MW1441REMMET011CIG06 4FG//
0076106570999991972012413004+49767+009483FM-15+0338EDOF V0209991V000510018019N0015001N9+00001-00101999999ADDGA1051+001809079GA2081+006009059MA1101661999999MW1441REMMET011CIG06 4FG//
0076106570999991972012414004+49767+009483FM-15+0338EDOF V0209991V001010018019N0015001N9+00001-00101999999ADDGA1051+001809079GA2081+006009059MA1101591999999MW1441REMMET011CIG06 4FG//
0076106570999991972012415004+49767+009483FM-15+0338EDOF V0202201N002110018019N0015001N9+00001-00101999999ADDGA1051+001809079GA2071+006009059MA1101521999999MW1441REMMET011CIG06 4FG//
0076106570999991972012416004+49767+009483FM-15+0338EDOF V0202001N002110060019N0030001N9+00001-00201999999ADDGA1011+001809079GA2051+006009059MA1101421999999MW1441REMMET011CIG20 2FG//
0076106570999991972012417004+49767+009483FM-15+0338EDOF V0202101N002610060019N0030001N9-00101-00201999999ADDGA1011+001809079GA2061+006009059MA1101391999999MW1441REMMET011CIG20 2FG//
0090106570999991972012505004+49767+009483FM-15+0338EDOF V0209991V001010021019N0015001N9-00401-00401999999ADDGA1061+002109079GA2081+006009059MA1100751999999MW1711REMMET025CIG07 FG PRSNT/RADAT ZERO
0085106570999991972012506004+49767+009483FM-15+0338EDOF V0200801N001010021019N0015001N9-00401-00401999999ADDGA1051+002109079GA2081+006009059MA1100751999999MW1711REMMET020CIG07 FG PRSNT/90401
0079106570999991972012507004+49767+009483FM-15+0338EDOF V0200501N002110021019N0007001N9-00401-00401999999ADDGA1051+002109079GA2081+006009059MA1100751999999MW1711REMMET014CIG07 FG PRSNT
0080106570999991972012508004+49767+009483FM-15+0338EDOF V0200601N00101001201CN0007001N9-00401-00401999999ADDGA1081+001209079MA1100781999999MW1711REMMET031CIG04 SN OCNLY VRY LGT FG PRSNT
0063106570999991972012509004+49767+009483FM-15+0338EDOF V0200401N00261001201CN0011001N9-00401-00401999999ADDGA1081+001209079MA1100851999999MW1711REMMET014CIG04 FG PRSNT
0074106570999991972012510004+49767+009483FM-15+0338EDOF V0200501N00151002101CN0011001N9-00301-00301999999ADDGA1081+002109079MA1100881999999MW1711REMMET025CIG07 FG PRSNT/RADAT ZERO
0074106570999991972012511004+49767+009483FM-15+0338EDOF V0200601N00211002101CN0011001N9-00301-00301999999ADDGA1081+002109079MA1100881999999MW1711REMMET025CIG07 VIS W 1700 FG PRSNT
0069106570999991972012512004+49767+009483FM-15+0338EDOF V0200601N00151002101CN0011001N9-00301-00301999999ADDGA1081+002109079MA1100881999999MW1711REMMET020CIG07 FG PRSNT/90401
0063106570999991972012513004+49767+009483FM-15+0338EDOF V0200301N00151002101CN0009001N9-00301-00301999999ADDGA1081+002109079MA1100881999999MW1711REMMET014CIG07 FG PRSNT
0063106570999991972012514004+49767+009483FM-15+0338EDOF V0200501N00101002101CN0011001N9-00201-00301999999ADDGA1081+002109079MA1100981999999MW1711REMMET014CIG07 FG PRSNT
0063106570999991972012515004+49767+009483FM-15+0338EDOF V0200101N00101002101CN0011001N9-00201-00201999999ADDGA1081+002109079MA1101051999999MW1711REMMET014CIG07 FG PRSNT
0063106570999991972012516004+49767+009483FM-15+0338EDOF V0209991V00101002101CN0011001N9-00201-00201999999ADDGA1081+002109079MA1101081999999MW1711REMMET014CIG07 FG PRSNT
0063106570999991972012517004+49767+009483FM-15+0338EDOF V0209991C00001002101CN0011001N9-00201-00201999999ADDGA1081+002109079MA1101121999999MW1711REMMET014CIG07 FG PRSNT
0066106570999991972012605004+49767+009483FM-15+0338EDOF V0209991C00001001201CN0007001N9+00001-00101999999ADDGA1081+001209079MA1101421999999MW1441REMMET017CIG04/RADAT 86014
0077106570999991972012606004+49767+009483FM-15+0338EDOF V0209991C00001001201CN0007001N9+00001-00101999999ADDGA1081+001209079MA1101421999999MW1701REMMET028CIG04 4FG// SN VRY LGT/90402
0077106570999991972012607004+49767+009483FM-15+0338EDOF V0209991C00001000901CN0006001N9+00001+00001999999ADDGA1081+000909079MA1101421999999MW1461REMMET028CIG03 6FG// INTMT VRY LGT SN
0060106570999991972012608004+49767+009483FM-15+0338EDOF V0209991C00001000901CN0006001N9+00001+00001999999ADDGA1081+000909079MA1101421999999MW1441REMMET011CIG03 6FG//
0060106570999991972012609004+49767+009483FM-15+0338EDOF V0209991C00001001201CN0009001N9+00101+00001999999ADDGA1081+001209079MA1101421999999MW1441REMMET011CIG04 5FG//
0060106570999991972012610004+49767+009483FM-15+0338EDOF V0209991C00001001501CN0006001N9+00101+00001999999ADDGA1081+001509079MA1101351999999MW1441REMMET011CIG05 5FG//
0060106570999991972012611004+49767+009483FM-15+0338EDOF V0209991C00001001501CN0002001N9+00101-00201999999ADDGA1081+001509079MA1101321999999MW1461REMMET011CIG05 4FG//
0080106570999991972012612004+49767+009483FM-15+0338EDOF V0200601N00151001501CN0002001N9+00001-00101999999ADDGA1081+001509079MA1101221999999MW1441REMMET031CIG05 4FG// /90401 /RADAT 70015
0060106570999991972012613004+49767+009483FM-15+0338EDOF V0209991V00101001501CN0006001N9+00101-00101999999ADDGA1081+001509079MA1101121999999MW1421REMMET011CIG05 3FG//
0060106570999991972012614004+49767+009483FM-15+0338EDOF V0209991V00151001201CN0007001N9+00101-00101999999ADDGA1081+001209079MA1101051999999MW1421REMMET011CIG04 2FG//
0060106570999991972012615004+49767+009483FM-15+0338EDOF V0201101N00311002401CN0015001N9+00101-00101999999ADDGA1071+002409059MA1100981999999MW1421REMMET011CIG08 1FG//
0054106570999991972012616004+49767+009483FM-15+0338EDOF V0209991V00151003601CN0034001N9+00001-00101999999ADDGA1081+003609059MA1100951999999MW1421REMMET005CIG12
0054106570999991972012617004+49767+009483FM-15+0338EDOF V0209991V00151003601CN0034001N9+00001-00101999999ADDGA1081+003609059MA1100881999999MW1441REMMET005CIG12
0072106570999991972012705004+49767+009483FM-15+0338EDOF V0200301N00101001501CN0006001N9-00201-00201999999ADDGA1081+001509079MA1099291999999MW1711REMMET023CIG05 5FG// /RADAT ZERO
0067106570999991972012706004+49767+009483FM-15+0338EDOF V0200401N00151001501CN0006001N9-00201-00201999999ADDGA1081+001509079MA1099221999999MW1711REMMET018CIG05 5FG// /90403
0079106570999991972012707004+49767+009483FM-15+0338EDOF V0200401N00151001501CN0004001N9-00101-00101999999ADDGA1081+001509079MA1099221999999MW1711REMMET030CIG05 6FG// PCPN OCNLY VRY LGT
0071106570999991972012708004+49767+009483FM-15+0338EDOF V0200501N00101000901CN0007001N9-00101-00101999999ADDGA1081+000909079MA1099291999999MW1711REMMET022CIG03 4FG// SN VRY LGT
0077106570999991972012709004+49767+009483FM-15+0338EDOF V0202001N00211001801CN0015001N9+00001-00101999999ADDGA1081+001809079MA1099391999999MW1421REMMET028CIG06 3FG// INTMT VRY LGT SN
0070106570999991972012710004+49767+009483FM-15+0338EDOF V0202001N004110045019N0090001N9+00201+00101999999ADDGA1051+004509079GA2081+007509059MA1099461999999MW1061REMMET005CIG15
0070106570999991972012711004+49767+009483FM-15+0338EDOF V0202101N005110030019N0100001N9+00301+00101999999ADDGA1051+003009079GA2081+007509059MA1099591999999MW1001REMMET005CIG10
0076106570999991972012712004+49767+009483FM-15+0338EDOF V0202101N006710030019N0100001N9+00301+00101999999ADDGA1021+001809079GA2041+003009059MA1099591999999MW1001REMMET011CIG10/90401
0070106570999991972012713004+49767+009483FM-15+0338EDOF V0202301N005110045019N0100001N9+00301+00001999999ADDGA1021+002109079GA2061+004509059MA1099561999999MW1001REMMET005CIG15
0083106570999991972012714004+49767+009483FM-15+0338EDOF V0202101N006210030019N0100001N9+00201+00001999999ADDGA1031+001809079GA2081+003009059MA1099591999999MW1511REMMET018CIG10 PCPN VRY LGT
0099106570999991972012715004+49767+009483FM-15+0338EDOF V0202001N005710030019N0100001N9+00201+00001999999ADDGA1021+001809079GA2061+003009059GA3081+006009059MA1099631999999MW1511REMMET018CIG10 PCPN VRY LGT
0086106570999991972012716004+49767+009483FM-15+0338EDOF V0202101N005110030019N0100001N9+00201+00101999999ADDGA1031+001809079GA2051+003009059GA3081+006009059MA1099701999999MW1511REMMET005CIG10
0086106570999991972012717004+49767+009483FM-15+0338EDOF V0202101N004110036019N0100001N9+00101+00001999999ADDGA1021+001809079GA2031+003609059GA3081+007509059MA1099761999999MW1511REMMET005CIG12
0089106570999991972012805004+49767+009483FM-15+0338EDOF V0200301N002110060019N0037001N9+00101+00101999999ADDGA1051+006009059GA2081+009009059MA1100681999999MW1441REMMET024CIG20 3FG// /RADAT 83028
0083106570999991972012806004+49767+009483FM-15+0338EDOF V0209991C000010060019N0037001N9+00101+00101999999ADDGA1051+006009059GA2081+009009059MA1100751999999MW1441REMMET018CIG20 3FG// /90505
0060106570999991972012807004+49767+009483FM-15+0338EDOF V0200301N00211004501CN0037001N9+00201+00101999999ADDGA1081+004509059MA1100781999999MW1441REMMET011CIG15 2FG//
0060106570999991972012808004+49767+009483FM-15+0338EDOF V0200401N00361004501CN0037001N9+00201+00101999999ADDGA1071+004509059MA1100881999999MW1441REMMET011CIG15 2FG//
0076106570999991972012809004+49767+009483FM-15+0338EDOF V0200101N003110075019N0047001N9+00201+00001999999ADDGA1011+003009079GA2071+007509059MA1100911999999MW1421REMMET011CIG25 1FG//
0105106570999991972012810004+49767+009483FM-15+0338EDOF V0200301N003610090019N0090001N9+00301+00101999999ADDGA1011+002109079GA2061+009009059GA3051+021009039MA1100981999999MW1061REMMET024CIG30 1HZ// /RADAT 87020
0070106570999991972012811004+49767+009483FM-15+0338EDOF V0200201N004110090019N0060001N9+00101+00001999999ADDGA1041+002109079GA2081+009009059MA1100951999999MW1061REMMET005CIG30
0070106570999991972012812004+49767+009483FM-15+0338EDOF V0200201N005110027019N0060001N9+00201-00101999999ADDGA1051+002709079GA2081+009009059MA1100911999999MW1061REMMET005CIG09
0070106570999991972012813004+49767+009483FM-15+0338EDOF V0200301N004610027019N0060001N9+00101+00001999999ADDGA1061+002709079GA2081+009009059MA1100881999999MW1061REMMET005CIG09
0070106570999991972012814004+49767+009483FM-15+0338EDOF V0200301N005110027019N0060001N9+00101+00001999999ADDGA1051+002709079GA2081+009009059MA1100851999999MW1061REMMET005CIG09
0079106570999991972012815004+49767+009483FM-15+0338EDOF V0200401N005110030019N0040001N9+00101+00001999999ADDGA1051+003009079GA2081+010509059MA1100911999999MW1461REMMET014CIG10 HZ PRSNT
0079106570999991972012816004+49767+009483FM-15+0338EDOF V0200301N006210030019N0037001N9+00001-00301999999ADDGA1061+003009079GA2081+010509059MA1100951999999MW1461REMMET014CIG10 HZ PRSNT
0079106570999991972012817004+49767+009483FM-15+0338EDOF V0200301N005110045019N0037001N9-00101-00201999999ADDGA1061+004509079GA2081+010509059MA1100981999999MW1441REMMET014CIG15 HZ PRSNT
0072106570999991972013105004+49767+009483FM-15+0338EDOF V0209991C00001009001CN0018001N9-01201-01201999999ADDGA1031+009009059MA1101591999999MW1441REMMET023CIG30 4FG// /RADAT ZERO
0067106570999991972013106004+49767+009483FM-15+0338EDOF V0202401N00211009001CN0018001N9-01201-01201999999ADDGA1051+009009059MA1101661999999MW1441REMMET018CIG30 4FG// /90402
0060106570999991972013107004+49767+009483FM-15+0338EDOF V0209991C00001009001CN0011001N9-01401-01401999999ADDGA1031+009009059MA1101761999999MW1461REMMET011CIG30 4FG//
0060106570999991972013108004+49767+009483FM-15+0338EDOF V0209991C00001009001CN0015001N9-01301-01301999999ADDGA1061+009009059MA1101761999999MW1421REMMET011CIG30 3FG//
0071106570999991972013109004+49767+009483FM-15+0338EDOF V0209991C00001010501CN0017001N9-01101-01101999999ADDGA1071+010509059MA1101831999999MW1711REMMET022CIG35 2FG// SN VRY LGT
0071106570999991972013110004+49767+009483FM-15+0338EDOF V0209991V00101012001CN0018001N9-01001-01101999999ADDGA1071+012009059MA1101901999999MW1711REMMET022CIG40 2FG// SN VRY LGT
0071106570999991972013111004+49767+009483FM-15+0338EDOF V0201401N00151012001CN0018001N9-00901-00901999999ADDGA1071+012009059MA1101901999999MW1711REMMET022CIG40 2FG// SN VRY LGT
0093106570999991972013112004+49767+009483FM-15+0338EDOF V0209991C000010120019N0022001N9-00801-00801999999ADDGA1031+004509079GA2071+012009059MA1101931999999MW1421REMMET028CIG40 1FG// RADAT ZERO/90401
0087106570999991972013113004+49767+009483FM-15+0338EDOF V0209991C000010120019N0032001N9-00701-00801999999ADDGA1021+004509079GA2061+012009059MA1101901999999MW1711REMMET022CIG40 1FG// SN VRY LGT
0087106570999991972013114004+49767+009483FM-15+0338EDOF V0209991V000510120019N0032001N9-00601-00701999999ADDGA1011+004509079GA2051+012009059MA1101931999999MW1711REMMET022CIG40 1FG// SN VRY LGT
0076106570999991972013115004+49767+009483FM-15+0338EDOF V0209991C000010120019N0032001N9-00701-00801999999ADDGA1011+004509079GA2051+012009059MA1101961999999MW1441REMMET011CIG40 1FG//
0060106570999991972013116004+49767+009483FM-15+0338EDOF V0209991C00001012001CN0030001N9-00901-01001999999ADDGA1051+012009059MA1102001999999MW1461REMMET011CIG40 3FG//
0060106570999991972013117004+49767+009483FM-15+0338EDOF V0209991C00001009001CN0030001N9-01001-01101999999ADDGA1071+009009059MA1102071999999MW1441REMMET011CIG30 3FG//
0072106570999991972020105004+49767+009483FM-15+0338EDOF V0209991V00101001501CN0015001N9-01201-01201999999ADDGA1081+001509079MA1102001999999MW1441REMMET023CIG05 3FG// /RADAT ZERO
0067106570999991972020106004+49767+009483FM-15+0338EDOF V0209991V00051001501CN0015001N9-01201-01201999999ADDGA1081+001509079MA1101961999999MW1441REMMET018CIG05 3FG// /90401
0060106570999991972020107004+49767+009483FM-15+0338EDOF V0200401N00211001201CN0015001N9-01201-01201999999ADDGA1081+001209079MA1101931999999MW1441REMMET011CIG04 3FG//
0060106570999991972020108004+49767+009483FM-15+0338EDOF V0200501N00151000901CN0015001N9-01201-01201999999ADDGA1081+000909079MA1101901999999MW1441REMMET011CIG03 3FG//
0060106570999991972020109004+49767+009483FM-15+0338EDOF V0200301N00261001201CN0015001N9-01101-01101999999ADDGA1081+001209079MA1101861999999MW1441REMMET011CIG04 2FG//
0060106570999991972020110004+49767+009483FM-15+0338EDOF V0200401N00151001801CN0017001N9-00901-00901999999ADDGA1081+001809079MA1101861999999MW1441REMMET011CIG06 2FG//
0082106570999991972020111004+49767+009483FM-15+0338EDOF V0200601N00211002101CN0017001N9-00701-00701999999ADDGA1081+002109079MA1101831999999MW1711REMMET033CIG07 2FG// SN VRY LGT/RADAT ZERO
0083106570999991972020112004+49767+009483FM-15+0338EDOF V0200501N002610021019N0017001N9-00601-00601999999ADDGA1041+002109079GA2081+024009049MA1101761999999MW1441REMMET018CIG07 2FG// /90401
0076106570999991972020113004+49767+009483FM-15+0338EDOF V0200601N002610240019N0018001N9-00401-00401999999ADDGA1011+002109079GA2051+024009049MA1101691999999MW1441REMMET011CIG80 2FG//
0076106570999991972020114004+49767+009483FM-15+0338EDOF V0200701N002110240019N0018001N9-00401-00401999999ADDGA1031+007509059GA2071+024009049MA1101661999999MW1441REMMET011CIG80 1FG//
0076106570999991972020115004+49767+009483FM-15+0338EDOF V0200501N002110060019N0018001N9-00301-00301999999ADDGA1061+006009059GA2081+024009049MA1101661999999MW1441REMMET011CIG20 2FG//
0076106570999991972020116004+49767+009483FM-15+0338EDOF V0200401N002110060019N0018001N9-00401-00401999999ADDGA1061+006009059GA2081+024009049MA1101631999999MW1441REMMET011CIG20 2FG//
0060106570999991972020117004+49767+009483FM-15+0338EDOF V0200501N00211006001CN0018001N9-00401-00401999999ADDGA1081+006009059MA1101631999999MW1441REMMET011CIG20 2FG//
0105106570999991972020205004+49767+009483FM-15+0338EDOF V0200301N002110075019N0018001N9-00201-00201999999ADDGA1021+002109079GA2081+007509059MA1101631999999MW1511REMMET040CIG25 1FG// PCPN VRY LGT/RADAT 00M016040
0083106570999991972020206004+49767+009483FM-15+0338EDOF V0200601N002610075019N0018001N9-00201-00301999999ADDGA1011+002109079GA2081+007509059MA1101591999999MW1441REMMET018CIG25 2FG// /90401
0060106570999991972020207004+49767+009483FM-15+0338EDOF V0200501N00211007501CN0018001N9-00201-00301999999ADDGA1081+007509059MA1101591999999MW1441REMMET011CIG25 2FG//
0076106570999991972020208004+49767+009483FM-15+0338EDOF V0200401N002110075019N0018001N9-00201-00301999999ADDGA1061+007509059GA2081+021009049MA1101521999999MW1581REMMET011CIG25 2FG//
0089106570999991972020209004+49767+009483FM-15+0338EDOF V0200301N00151007501CN0018001N9-00201-00301999999ADDGA1081+007509059MA1101631999999MW1661REMMET040CIG25 1FG// PCPN VRY LGT/RADAT 00L018044
0040106570999991972020210004+49767+009483FM-15+0338EDOF V0200301N00151010501CN0018001N9-00101-00201999999ADDGA1081+010509059MA1101631999999MW1441
0060106570999991972020211004+49767+009483FM-15+0338EDOF V0200401N00311010501CN0018001N9-00101-00201999999ADDGA1081+010509059MA1101591999999MW1441REMMET011CIG35 1FG//
0067106570999991972020212004+49767+009483FM-15+0338EDOF V0200601N00261010501CN0018001N9+00201-00101999999ADDGA1051+010509059MA1101561999999MW1441REMMET018CIG35 1FG// /90401
0060106570999991972020213004+49767+009483FM-15+0338EDOF V0200501N00311010501CN0028001N9+00301-00101999999ADDGA1041+010509059MA1101491999999MW1061REMMET011CIG35 1HZ//
0054106570999991972020214004+49767+009483FM-15+0338EDOF V0200501N00211220001CN0034001N9+00301-00101999999ADDGA1031+010509059MA1101491999999MW1061REMMET0051HZ//
0054106570999991972020215004+49767+009483FM-15+0338EDOF V0200601N00361220001CN0034001N9+00301+00001999999ADDGA1011+010509059MA1101461999999MW1061REMMET0051HZ//
0054106570999991972020216004+49767+009483FM-15+0338EDOF V0200601N00261220001CN0034001N9+00201+00001999999ADDGA1011+010509059MA1101461999999MW1061REMMET0051HZ//
0054106570999991972020217004+49767+009483FM-15+0338EDOF V0200601N00361220001CN0034001N9+00101+00001999999ADDGA1011+010509059MA1101461999999MW1061REMMET0051HZ//
0077106570999991972020305004+49767+009483FM-15+0338EDOF V0200601N00151001201CN0011001N9-00501-00501999999ADDGA1081+001209079MA1101491999999MW1441REMMET028CIG04 5FG// /RADAT 84L020056
0067106570999991972020306004+49767+009483FM-15+0338EDOF V0200601N00211001201CN0011001N9-00501-00501999999ADDGA1081+001209079MA1101491999999MW1441REMMET018CIG04 5FG// /90401
0060106570999991972020307004+49767+009483FM-15+0338EDOF V0200701N00311001201CN0009001N9-00401-00401999999ADDGA1081+001209079MA1101461999999MW1461REMMET011CIG04 5FG//
0076106570999991972020308004+49767+009483FM-15+0338EDOF V0200901N002610012019N0009001N9-00401-00401999999ADDGA1081+001209079GA2999+999999089MA1101461999999MW1441REMMET011CIG04 5FG//
0060106570999991972020309004+49767+009483FM-15+0338EDOF V0200701N00411001201CN0007001N9-00401-00401999999ADDGA1081+001209079MA1101461999999MW1441REMMET011CIG04 5FG//
0060106570999991972020310004+49767+009483FM-15+0338EDOF V0200801N00411001201CN0013001N9-00401-00401999999ADDGA1081+001209079MA1101461999999MW1421REMMET011CIG04 4FG//
0077106570999991972020311004+49767+009483FM-15+0338EDOF V0200901N00311001501CN0013001N9-00401-00401999999ADDGA1081+001509079MA1101421999999MW1441REMMET028CIG05 4FG// /RADAT 90L013048
0067106570999991972020312004+49767+009483FM-15+0338EDOF V0200901N00411001501CN0017001N9-00401-00401999999ADDGA1081+001509079MA1101321999999MW1421REMMET018CIG05 3FG// /90401
0060106570999991972020313004+49767+009483FM-15+0338EDOF V0200601N00361001501CN0017001N9-00301-00301999999ADDGA1081+001509079MA1101191999999MW1441REMMET011CIG05 3FG//
0060106570999991972020314004+49767+009483FM-15+0338EDOF V0200601N00511001501CN0017001N9-00301-00301999999ADDGA1081+001509079MA1101121999999MW1441REMMET011CIG05 3FG//
0060106570999991972020315004+49767+009483FM-15+0338EDOF V0200701N00461001501CN0017001N9-00301-00401999999ADDGA1081+001509079MA1101021999999MW1441REMMET011CIG05 2FG//
0080106570999991972020316004+49767+009483FM-15+0338EDOF V0200801N003610600019N0017001N9-00301-00401999999ADDGA1021+001509079GA2061+060009029MA1101021999999MW1441REMMET015CIG200 HZ PRSNT
0086106570999991972020317004+49767+009483FM-15+0338EDOF V0200601N002110600019N0011001N9-00401-00501999999ADDGA1021+024009049GA2061+060009029MA1100981999999MW1461REMMET021CIG200 1FG// HZ PRSNT
0079106570999991972020405004+49767+009483FM-15+0338EDOF V0200301N00311002101CN0037001N9-00401-00401999999ADDGA1081+002109079MA1100611999999MW1661REMMET030CIG07 FG PRSNT/RADAT 96H027098
0085106570999991972020406004+49767+009483FM-15+0338EDOF V0209991C000010021019N0037001N9-00301-00301999999ADDGA1051+002109079GA2081+006009059MA1100641999999MW1661REMMET020CIG07 FG PRSNT/90401
0079106570999991972020407004+49767+009483FM-15+0338EDOF V0200301N003110021019N0037001N9-00301-00301999999ADDGA1051+002109079GA2081+006009059MA1100681999999MW1661REMMET014CIG07 FG PRSNT
0082106570999991972020408004+49767+009483FM-15+0338EDOF V0200401N00261002701CN0037001N9-00301-00301999999ADDGA1081+002709079MA1100641999999MW1661REMMET033CIG09 FG PRSNT PCPN OCNLY VRY LGT
0054106570999991972020409004+49767+009483FM-15+0338EDOF V0200401N00211004201CN0018001N9-00301-00301999999ADDGA1081+004209079MA1100711999999MW1441REMMET005CIG14
0054106570999991972020410004+49767+009483FM-15+0338EDOF V0200501N00151007501CN0018001N9-00201-00301999999ADDGA1081+007509079MA1100751999999MW1441REMMET005CIG25
0070106570999991972020411004+49767+009483FM-15+0338EDOF V0200401N00261007501CN0022001N9-00201-00301999999ADDGA1081+007509079MA1100681999999MW1421REMMET021CIG25/RADAT 00L022057
0070106570999991972020412004+49767+009483FM-15+0338EDOF V0200601N002110030019N0024001N9-00201-00301999999ADDGA1051+003009079GA2081+024009049MA1100641999999MW1421REMMET005CIG10
0079106570999991972020413004+49767+009483FM-15+0338EDOF V0200501N002610027019N0024001N9-00101-00301999999ADDGA1061+002709079GA2081+024009049MA1100641999999MW1441REMMET014CIG09 HZ PRSNT
0095106570999991972020414004+49767+009483FM-15+0338EDOF V0200401N002610027019N0026001N9-00101-00301999999ADDGA1061+002709079GA2081+024009049MA1100611999999MW1611REMMET030CIG09 PCPN VRY LGT FG/HZ PRSNT
0076106570999991972020415004+49767+009483FM-15+0338EDOF V0200501N00311002701CN0018001N9-00101-00201999999ADDGA1081+002709079MA1100641999999MW1661REMMET027CIG09 PCPN VRY LGT FG PRSNT
0070106570999991972020416004+49767+009483FM-15+0338EDOF V0200601N003610210019N0017001N9-00101-00201999999ADDGA1041+002709079GA2071+021009039MA1100541999999MW1441REMMET005CIG70
0086106570999991972020417004+49767+009483FM-15+0338EDOF V0200301N005110210019N0017001N9-00101-00201999999ADDGA1011+002109079GA2041+021009039GA3071+060009029MA1100541999999MW1441REMMET005CIG70
0054106570999991972020705004+49767+009483FM-15+0338EDOF V0200501N00101024001CN0090001N9+00101+00001999999ADDGA1081+024009049MA1101021999999MW1061REMMET005CIG80
0072106570999991972020706004+49767+009483FM-15+0338EDOF V0200301N00101024001CN0090001N9+00101+00001999999ADDGA1071+024009049MA1101051999999MW1061REMMET023CIG80/RADAT 64084/90506
0054106570999991972020707004+49767+009483FM-15+0338EDOF V0200301N00101220001CN0100001N9+00101+00001999999ADDGA1051+060009029MA1101121999999MW1001REMMET005CIGNO
0040106570999991972020708004+49767+009483FM-15+0338EDOF V0200301N00151220001CN0100001N9+00201+00001999999ADDGA1041+060009029MA1101151999999MW1001
0040106570999991972020709004+49767+009483FM-15+0338EDOF V0200401N00211220001CN0100001N9+00201-00101999999ADDGA1041+060009029MA1101151999999MW1001
0054106570999991972020710004+49767+009483FM-15+0338EDOF V0200501N00211220001CN0100001N9+00301-00101999999ADDGA1061+060009009MA1101151999999MW1001REMMET005CIGNO
0092106570999991972020711004+49767+009483FM-15+0338EDOF V0200501N003612200019N0100001N9+00401-00101999999ADDGA1011+003009079GA2061+060009009MA1101121999999MW1001REMMET027CIGNO/1NW SCT25/RADAT 54080
0076106570999991972020712004+49767+009483FM-15+0338EDOF V0200401N003110120019N0060001N9+00401+00001999999ADDGA1021+003009079GA2061+060009009MA1101051999999MW1061REMMET011CIGNO 1HZ//
0061106570999991972020713004+49767+009483FM-15+0338EDOF V0200601N00211060001CN0070001N9+00501+00001999999ADDGA1071+060009029MA1100981999999MW1061REMMET012CIG200 2HZ//
0061106570999991972020714004+49767+009483FM-15+0338EDOF V0200401N00311060001CN0070001N9+00601+00001999999ADDGA1061+060009029MA1100951999999MW1061REMMET012CIG200 2HZ//
0061106570999991972020715004+49767+009483FM-15+0338EDOF V0200301N00261060001CN0070001N9+00501+00101999999ADDGA1051+060009029MA1100951999999MW1061REMMET012CIG200 2HZ//
0054106570999991972020716004+49767+009483FM-15+0338EDOF V0209991V00151220001CN0060001N9+00401+00001999999ADDGA1031+060009029MA1100951999999MW1061REMMET0051HZ//
0054106570999991972020717004+49767+009483FM-15+0338EDOF V0200401N00211220001CN0060001N9+00401+00201999999ADDGA1031+060009029MA1100911999999MW1061REMMET0051HZ//
0066106570999991972020805004+49767+009483FM-15+0338EDOF V0209991C00001009001CN0037001N9+00101-00101999999ADDGA1071+009009059MA1101121999999MW1441REMMET017CIG30/RADAT 53080
0076106570999991972020806004+49767+009483FM-15+0338EDOF V0209991C000010090019N0037001N9+00101-00101999999ADDGA1051+009009059GA2071+060009029MA1101121999999MW1441REMMET011CIG30/90306
0083106570999991972020807004+49767+009483FM-15+0338EDOF V0209991C000010240019N0030001N9+00101-00101999999ADDGA1041+009009059GA2081+060009029MA1101221999999MW1461REMMET018CIG80 VIS N-E 2300
0093106570999991972020808004+49767+009483FM-15+0338EDOF V0209991C000010600019N0022001N9+00101-00101999999ADDGA1021+030009039GA2071+060009029MA1101291999999MW1441REMMET028CIG200 VIS N-E 1700 HZ PRSNT
0077106570999991972020809004+49767+009483FM-15+0338EDOF V0209991V001010600019N0022001N9+00101-00101999999ADDGA1021+007509059GA2071+060009029MA1101321999999MW1441REMMET012CIG200 1HZ//
0077106570999991972020810004+49767+009483FM-15+0338EDOF V0209991C000010600019N0026001N9+00301+00101999999ADDGA1011+007509059GA2071+060009029MA1101351999999MW1061REMMET012CIG200 1HZ//
0077106570999991972020811004+49767+009483FM-15+0338EDOF V0209991V000510600019N0037001N9+00601+00401999999ADDGA1011+007509059GA2071+060009029MA1101351999999MW1061REMMET012CIG200 1HZ//
0076106570999991972020812004+49767+009483FM-15+0338EDOF V0209991C000012200019N0090001N9+00801+00401999999ADDGA1011+006009059GA2061+060009009MA1101351999999MW1061REMMET011CIGNO 1HZ//
0071106570999991972020813004+49767+009483FM-15+0338EDOF V0209991V000510600019N0100001N9+00801+00401999999ADDGA1011+006009059GA2061+060009029MA1101351999999MW1001REMMET006CIG200
0071106570999991972020814004+49767+009483FM-15+0338EDOF V0209991C000010600019N0100001N9+00801+00401999999ADDGA1011+006009059GA2061+060009029MA1101321999999MW1001REMMET006CIG200
0055106570999991972020815004+49767+009483FM-15+0338EDOF V0200601N00101060001CN0100001N9+00701+00401999999ADDGA1061+060009029MA1101291999999MW1001REMMET006CIG200
0055106570999991972020816004+49767+009483FM-15+0338EDOF V0200601N00211060001CN0090001N9+00601+00401999999ADDGA1051+060009029MA1101291999999MW1061REMMET006CIG200
0055106570999991972020817004+49767+009483FM-15+0338EDOF V0200401N00211060001CN0090001N9+00501+00301999999ADDGA1051+060009029MA1101321999999MW1061REMMET006CIG200
0083106570999991972020905004+49767+009483FM-15+0338EDOF V0209991V001010600019N0007001N9-00101-00101999999ADDGA1051+000159999GA2021+060009009MA1100911999999MW1441REMMET018CIG200/RADAT 60078
0093106570999991972020906004+49767+009483FM-15+0338EDOF V0200401N002110240019N0007001N9+00001+00001999999ADDGA1031+000159999GA2021+024009039GA3021+060009009MA1100851999999MW1441REMMET012CIG080/90506
0071106570999991972020907004+49767+009483FM-15+0338EDOF V0209991C000010240019N0001001N9-00101-00101999999ADDGA1061+000159999GA2021+024009039MA1100911999999MW1461REMMET006CIG080
0071106570999991972020908004+49767+009483FM-15+0338EDOF V0209991V001010600019N0004001N9-00101-00101999999ADDGA1041+000159999GA2031+060009009MA1100911999999MW1421REMMET006CIG200
0071106570999991972020909004+49767+009483FM-15+0338EDOF V0200301N001510600019N0004001N9+00001+00001999999ADDGA1041+000159999GA2031+060009009MA1100911999999MW1441REMMET006CIG200
0083106570999991972020910004+49767+009483FM-15+0338EDOF V0200401N002110600019N0015001N9+00101-00101999999ADDGA1031+000159999GA2051+060009009MA1100881999999MW1421REMMET018CIG200 VIS N-E 0.5
0071106570999991972020911004+49767+009483FM-15+0338EDOF V0200201N002610600019N0015001N9+00201+00101999999ADDGA1031+000159999GA2051+060009009MA1100881999999MW1441REMMET006CIG200
0071106570999991972020912004+49767+009483FM-15+0338EDOF V0200101N002110600019N0018001N9+00201+00101999999ADDGA1021+000159999GA2061+060009029MA1100851999999MW1441REMMET006CIG200
0071106570999991972020913004+49767+009483FM-15+0338EDOF V0200401N001010600019N0018001N9+00301+00101999999ADDGA1021+000159999GA2061+060009029MA1100811999999MW1441REMMET006CIG200
0071106570999991972020914004+49767+009483FM-15+0338EDOF V0200601N001010600019N0018001N9+00401+00101999999ADDGA1021+000159999GA2061+060009029MA1100711999999MW1441REMMET006CIG200
0071106570999991972020915004+49767+009483FM-15+0338EDOF V0209991C000010600019N0018001N9+00301+00101999999ADDGA1021+000159999GA2041+060009029MA1100711999999MW1441REMMET006CIG200
0071106570999991972020916004+49767+009483FM-15+0338EDOF V0209991C000010600019N0018001N9+00301+00101999999ADDGA1021+000159999GA2041+060009029MA1100711999999MW1441REMMET006CIG200
0071106570999991972020917004+49767+009483FM-15+0338EDOF V0209991C000010600019N0018001N9+00201+00001999999ADDGA1021+000159999GA2041+060009029MA1100751999999MW1441REMMET006CIG200
0084106570999991972021005004+49767+009483FM-15+0338EDOF V0202901N001510015019N0006001N9+00301+00301999999ADDGA1031+000159999GA2081+001509079MA1100811999999MW1441REMMET019CIGM005/RADAT 00025
0078106570999991972021006004+49767+009483FM-15+0338EDOF V0202701N002110015019N0007001N9+00301+00301999999ADDGA1031+000159999GA2081+001509079MA1100851999999MW1421REMMET013CIGM005/90506
0098106570999991972021007004+49767+009483FM-15+0338EDOF V0202801N002610012019N0011001N9+00301+00301999999ADDGA1021+000159999GA2051+001209079GA3081+007509059MA1100881999999MW1611REMMET017CIGM004 VIS W 0.9
0104106570999991972021008004+49767+009483FM-15+0338EDOF V0202701N002610012019N0015001N9+00301+00301999999ADDGA1011+000159999GA2041+001209079GA3051+007509059GA4081+021009049MA1100951999999MW1421REMMET007CIGM004
0107106570999991972021009004+49767+009483FM-15+0338EDOF V0202801N003110012019N0017001N9+00301+00301999999ADDGA1051+001209079GA2031+002109079GA3081+007509059MA1100981999999MW1581REMMET026CIGM004 VIS W 1.0 FG PRSNT
0109106570999991972021010004+49767+009483FM-15+0338EDOF V0202801N002610075019N0018001N9+00401+00301999999ADDGA1031+001209079GA2051+007509059GA3081+021009049MA1100981999999MW1611REMMET028CIGE025 VIS N-E 0.8 FG PRSNT
0109106570999991972021011004+49767+009483FM-15+0338EDOF V0202601N001510075019N0018001N9+00401+00301999999ADDGA1031+001209079GA2051+007509059GA3081+021009049MA1100981999999MW1611REMMET028CIGE025 VIS N-E 0.8 FG PRSNT
0104106570999991972021012004+49767+009483FM-15+0338EDOF V0202701N002610075019N0026001N9+00501+00301999999ADDGA1011+000159999GA2011+001209079GA3051+007509059GA4081+021009049MA1100981999999MW1421REMMET007CIGE025
0071106570999991972021013004+49767+009483FM-15+0338EDOF V0202801N002110210019N0036001N9+00601+00301999999ADDGA1031+007509059GA2081+021009049MA1100951999999MW1061REMMET006CIG070
0071106570999991972021014004+49767+009483FM-15+0338EDOF V0202501N001510210019N0036001N9+00601+00301999999ADDGA1031+007509059GA2081+021009049MA1100951999999MW1061REMMET006CIG070
0071106570999991972021015004+49767+009483FM-15+0338EDOF V0209991C000010210019N0047001N9+00501+00301999999ADDGA1041+007509059GA2081+021009049MA1100951999999MW1061REMMET006CIG070
0071106570999991972021016004+49767+009483FM-15+0338EDOF V0209991C000010210019N0047001N9+00501+00301999999ADDGA1041+007509059GA2081+021009049MA1100951999999MW1061REMMET006CIG070
0071106570999991972021017004+49767+009483FM-15+0338EDOF V0209991C000010210019N0047001N9+00401+00301999999ADDGA1041+007509059GA2081+021009049MA1100981999999MW1061REMMET006CIG070
0072106570999991972021105004+49767+009483FM-15+0338EDOF V0209991C000010012019N0000001N9+00101+00101999999ADDGA1071+000159999GA2081+001209079MA1100371999999MW1581REMMET007CIGM004
0078106570999991972021106004+49767+009483FM-15+0338EDOF V0209991C000010012019N0009001N9+00101+00101999999ADDGA1051+000159999GA2081+001209079MA1100311999999MW1511REMMET013CIGM004/90502
0072106570999991972021107004+49767+009483FM-15+0338EDOF V0209991C000010012019N0009001N9+00101+00101999999ADDGA1051+000159999GA2081+001209079MA1100271999999MW1441REMMET007CIGM004
0088106570999991972021108004+49767+009483FM-15+0338EDOF V0209991C000010027019N0015001N9+00101+00101999999ADDGA1031+000159999GA2011+001209079GA3081+002709079MA1100201999999MW1421REMMET007CIGM009
0072106570999991972021109004+49767+009483FM-15+0338EDOF V0201501N000510027019N0015001N9+00201+00101999999ADDGA1031+000159999GA2081+002709079MA1100101999999MW1441REMMET007CIGM009
0088106570999991972021110004+49767+009483FM-15+0338EDOF V0201801N002110036019N0017001N9+00401+00301999999ADDGA1021+000159999GA2061+003609079GA3081+009009059MA1100071999999MW1441REMMET007CIGM012
0081106570999991972021111004+49767+009483FM-15+0338EDOF V0201801N002110042019N0060001N9+00501+00201999999ADDGA1051+004209079GA2081+009009059MA1099971999999MW1441REMMET016CIGM014 HZ PRSNT
0082106570999991972021112004+49767+009483FM-15+0338EDOF V0201601N001510036019N0060001N9+00501+00201999999ADDGA1061+003609059GA2081+009009059MA1099831999999MW1061REMMET017CIGM012/7SE 30BKN
0088106570999991972021113004+49767+009483FM-15+0338EDOF V0201301N002610039019N0100001N9+00601+00301999999ADDGA1061+003909059GA2031+009009059GA3031+060009009MA1099661999999MW1001REMMET007CIGM013
0103106570999991972021114004+49767+009483FM-15+0338EDOF V0201301N004110090019N0100001N9+00701+00201999999ADDGA1021+003909059GA2041+009009059GA3021+024009039GA4061+060009009MA1099491999999MW1001REMMET006CIG030
0087106570999991972021115004+49767+009483FM-15+0338EDOF V0201201N002110090019N0100001N9+00701+00301999999ADDGA1011+004509059GA2041+009009059GA3081+021009039MA1099391999999MW1001REMMET006CIG030
0071106570999991972021116004+49767+009483FM-15+0338EDOF V0201301N003110090019N0100001N9+00701+00301999999ADDGA1061+009009059GA2081+021009039MA1099261999999MW1611REMMET006CIG030
0087106570999991972021117004+49767+009483FM-15+0338EDOF V0201301N004110090019N0100001N9+00601+00301999999ADDGA1021+004509059GA2051+009009059GA3081+021009049MA1099191999999MW1801REMMET006CIG030
0071106570999991972021405004+49767+009483FM-15+0338EDOF V0201201N003110240019N0100001N9+00001-00201999999ADDGA1051+024009039GA2071+060009009MA1100881999999MW1001REMMET006CIG080
0077106570999991972021406004+49767+009483FM-15+0338EDOF V0202001N002610210019N0100001N9+00101-00201999999ADDGA1051+021009039GA2061+060009009MA1100981999999MW1001REMMET012CIG070/90501
0087106570999991972021407004+49767+009483FM-15+0338EDOF V0202701N003610210019N0100001N9+00101-00101999999ADDGA1041+012009059GA2061+021009039GA3061+060009009MA1101151999999MW1001REMMET006CIG070
0071106570999991972021408004+49767+009483FM-15+0338EDOF V0202501N003610210019N0100001N9+00101-00101999999ADDGA1061+021009039GA2071+060009009MA1101321999999MW1001REMMET006CIG070
0071106570999991972021409004+49767+009483FM-15+0338EDOF V0202501N003610210019N0100001N9+00201+00001999999ADDGA1051+021009039GA2071+060009009MA1101461999999MW1001REMMET006CIG070
0086106570999991972021410004+49767+009483FM-15+0338EDOF V0202501N005110600019N0100001N9+00301+00001999999ADDGA1031+021009039GA2061+060009009MA1101491999999MW1001REMMET021CIG200/0900 10W 25SCT
0087106570999991972021411004+49767+009483FM-15+0338EDOF V0202801N003610600019N0100001N9+00401+00101999999ADDGA1011+006009059GA2021+021009039GA3071+060009029MA1101521999999MW1001REMMET006CIG200
0087106570999991972021412004+49767+009483FM-15+0338EDOF V0202901N004110600019N0100001N9+00601+00101999999ADDGA1011+006009059GA2011+021009039GA3071+060009029MA1101591999999MW1001REMMET006CIG200
0071106570999991972021413004+49767+009483FM-15+0338EDOF V0203001N002610600019N0100001N9+00501+00001999999ADDGA1031+007509059GA2061+060009009MA1101661999999MW1001REMMET006CIG200
0082106570999991972021414004+49767+009483FM-15+0338EDOF V0202701N004110600019N0090001N9+00601-00101999999ADDGA1041+007509089GA2061+060009009MA1101691999999MW1061REMMET017CIG200 MDT CU N-E
0077106570999991972021415004+49767+009483FM-15+0338EDOF V0202601N002610600019N0090001N9+00501+00101999999ADDGA1021+007509089GA2061+060009009MA1101761999999MW1061REMMET012CIG200 TCU S
0103106570999991972021416004+49767+009483FM-15+0338EDOF V0202701N004110075019N0090001N9+00501+00201999999ADDGA1071+007509089GA2081+060009029MA1101861999999MW1051MW2891REMMET032CIGE025 GRB57 HLSTO 1/8 HZ PRSNT
0071106570999991972021505004+49767+009483FM-15+0338EDOF V0209991C000010120019N0070001N9+00201+00101999999ADDGA1051+012009059GA2081+021009049MA1102241999999MW1061REMMET006CIG040
0077106570999991972021506004+49767+009483FM-15+0338EDOF V0209991C000010120019N0070001N9+00201+00101999999ADDGA1051+012009059GA2071+021009049MA1102171999999MW1061REMMET012CIG040/90501
0071106570999991972021507004+49767+009483FM-15+0338EDOF V0209991C000010105019N0090001N9+00201+00101999999ADDGA1051+010509059GA2061+024009049MA1102171999999MW1061REMMET006CIG035
0071106570999991972021508004+49767+009483FM-15+0338EDOF V0202401N001010105019N0070001N9+00201+00101999999ADDGA1051+010509059GA2071+021009049MA1102201999999MW1061REMMET006CIG035
0080106570999991972021509004+49767+009483FM-15+0338EDOF V0209991C000010105019N0090001N9+00301+00201999999ADDGA1051+010509059GA2071+021009049MA1102241999999MW1601REMMET015CIG035 HZ PRSNT
0114106570999991972021510004+49767+009483FM-15+0338EDOF V0209991C000010210019N0090001N9+00501+00201999999ADDGA1021+006009089GA2021+010509059GA3041+021009049GA4061+060009009MA1102201999999MW1061REMMET017CIG070 MDT CU W-N
0098106570999991972021511004+49767+009483FM-15+0338EDOF V0201201N001510105019N0090001N9+00601+00101999999ADDGA1031+006009089GA2021+010509059GA3031+060009009MA1102131999999MW1061REMMET017CIG035 TCU S-W-NE
0111106570999991972021512004+49767+009483FM-15+0338EDOF V0209991V002610060019N0100001N9+00501+00001999999ADDGA1011+006009099GA2041+006009089GA3031+010509059MA1102071999999MW1001REMMET030CIGE020 CB NW MOV NE TCU S-W-E
0102106570999991972021513004+49767+009483FM-15+0338EDOF V0209991V002110105019N0100001N9+00601-00101999999ADDGA1021+006009089GA2031+010509059MA1101961999999MW1001REMMET037CIG035 OCNL CIGNO CB DSIPTD TCU ALQDS
0070106570999991972021514004+49767+009483FM-15+0338EDOF V0209991V00211220001CN0100001N9+00601-00101999999ADDGA1021+006009089GA2021+010509059MA1101901999999MW1001REMMET005TCU N
0076106570999991972021515004+49767+009483FM-15+0338EDOF V0201301N00151220001CN0100001N9+00601-00101999999ADDGA1011+006009089GA2021+010509059MA1101831999999MW1001REMMET011TCU N AND E
0071106570999991972021516004+49767+009483FM-15+0338EDOF V0201101N002110120019N0100001N9+00601-00101999999ADDGA1011+006009089GA2061+012009059MA1101801999999MW1001REMMET006CIG040
0071106570999991972021605004+49767+009483FM-15+0338EDOF V0200601N002610600019N0090001N9-00101-00201999999ADDGA1021+024009049GA2061+060009029MA1101191999999MW1061REMMET006CIG200
0077106570999991972021606004+49767+009483FM-15+0338EDOF V0200301N001510600019N0070001N9-00101-00201999999ADDGA1031+024009049GA2051+060009029MA1101151999999MW1061REMMET012CIG200/90501
0071106570999991972021607004+49767+009483FM-15+0338EDOF V0209991V001010600019N0070001N9-00101-00201999999ADDGA1031+024009049GA2071+060009029MA1101191999999MW1061REMMET006CIG200
0087106570999991972021608004+49767+009483FM-15+0338EDOF V0200501N002610600019N0060001N9+00001-00201999999ADDGA1011+007509059GA2031+021009039GA3081+060009029MA1101191999999MW1061REMMET006CIG200
0087106570999991972021609004+49767+009483FM-15+0338EDOF V0200701N002110600019N0070001N9+00101-00201999999ADDGA1011+007509059GA2021+021009039GA3071+060009029MA1101191999999MW1061REMMET006CIG200
0071106570999991972021610004+49767+009483FM-15+0338EDOF V0201001N001010600019N0070001N9+00201-00201999999ADDGA1011+027009039GA2071+060009029MA1101191999999MW1061REMMET006CIG200
0071106570999991972021611004+49767+009483FM-15+0338EDOF V0200601N001510600019N0070001N9+00301-00101999999ADDGA1011+027009039GA2071+060009029MA1101191999999MW1061REMMET006CIG200
0055106570999991972021612004+49767+009483FM-15+0338EDOF V0200601N00051060001CN0100001N9+00501-00101999999ADDGA1061+060009029MA1101151999999MW1001REMMET006CIG200
0054106570999991972021613004+49767+009483FM-15+0338EDOF V0200901N00261220001CN0100001N9+00601+00001999999ADDGA1051+060009009MA1101081999999MW1001REMMET005CIGNO
0071106570999991972021614004+49767+009483FM-15+0338EDOF V0200601N002110240019N0100001N9+00601+00001999999ADDGA1051+024009039GA2071+060009009MA1101081999999MW1001REMMET006CIG080
0071106570999991972021615004+49767+009483FM-15+0338EDOF V0200901N002610240019N0100001N9+00601+00001999999ADDGA1051+024009039GA2071+060009009MA1101081999999MW1001REMMET006CIG080
0071106570999991972021616004+49767+009483FM-15+0338EDOF V0200901N003110240019N0100001N9+00501+00001999999ADDGA1051+024009039GA2071+060009009MA1101051999999MW1001REMMET006CIG080
0087106570999991972021705004+49767+009483FM-15+0338EDOF V0200501N001510240019N0060001N9-00101-00201999999ADDGA1021+009009059GA2041+024009049GA3051+060009029MA1101081999999MW1061REMMET006CIG080
0093106570999991972021706004+49767+009483FM-15+0338EDOF V0200401N002110270019N0060001N9-00101-00201999999ADDGA1011+009009059GA2071+027009039GA3021+060009029MA1101081999999MW1061REMMET012CIG090/90501
0088106570999991972021707004+49767+009483FM-15+0338EDOF V0200301N003110600019N0060001N9-00101-00201999999ADDGA1021+027009039GA2071+060009029MA1101121999999MW1061REMMET023CIG200 BCFG IN VLYS N-E
0081106570999991972021708004+49767+009483FM-15+0338EDOF V0200301N00261220001CN0060001N9-00101-00201999999ADDGA1011+027009039GA2021+060009009MA1101191999999MW1061REMMET016BCFG IN VLYS N-E
0072106570999991972021709004+49767+009483FM-15+0338EDOF V0200401N00311027001CN0060001N9+00101-00201999999ADDGA1071+027009039MA1101251999999MW1061REMMET023CIG090 BCFG IN VLYS N-E
0087106570999991972021710004+49767+009483FM-15+0338EDOF V0200601N002610600019N0060001N9+00301-00101999999ADDGA1021+027009039GA2051+060009029MA1101221999999MW1061REMMET022CIG200/RADAT 72L024049
0071106570999991972021711004+49767+009483FM-15+0338EDOF V0200601N005110600019N0060001N9+00401-00101999999ADDGA1011+027009039GA2071+060009029MA1101151999999MW1061REMMET006CIG200
0071106570999991972021712004+49767+009483FM-15+0338EDOF V0200401N004610600019N0070001N9+00501+00001999999ADDGA1011+027009039GA2071+060009029MA1101121999999MW1061REMMET006CIG200
0071106570999991972021713004+49767+009483FM-15+0338EDOF V0200501N004110600019N0070001N9+00501+00001999999ADDGA1041+027009039GA2071+060009029MA1101081999999MW1061REMMET006CIG200
0071106570999991972021714004+49767+009483FM-15+0338EDOF V0200501N003110240019N0060001N9+00501+00001999999ADDGA1051+024009039GA2071+060009029MA1101021999999MW1061REMMET006CIG080
0055106570999991972021715004+49767+009483FM-15+0338EDOF V0200301N00151021001CN0060001N9+00401+00001999999ADDGA1081+021009039MA1101021999999MW1061REMMET006CIG070
0055106570999991972021716004+49767+009483FM-15+0338EDOF V0200401N00361021001CN0060001N9+00401+00001999999ADDGA1081+021009039MA1100981999999MW1061REMMET006CIG070
0056106570999991972021805004+49767+009483FM-15+0338EDOF V0200401N003112200019N0015001N9-00201-00201999999ADDGA1031+000159999GA2011+060009009MA1101251999999MW1441
0098106570999991972021806004+49767+009483FM-15+0338EDOF V0200501N00261220001CN0015001N9-00301-00301999999ADDGA1031+000159999GA2011+060009009MA1101291999999MW1441REMMET033VIS N-E 0.5/90501/RADAT 85L020///
0093106570999991972021807004+49767+009483FM-15+0338EDOF V0200401N00311220001CN0015001N9-00201-00201999999ADDGA1021+000159999GA2011+024009039GA3011+060009009MA1101321999999MW1441REMMET0123W HZ TPS 25
0087106570999991972021808004+49767+009483FM-15+0338EDOF V0200501N00361220001CN0018001N9-00201-00201999999ADDGA1021+000159999GA2021+060009009MA1101321999999MW1441REMMET022VIS NE-SE 0.5 HZ PRSNT
0080106570999991972021809004+49767+009483FM-15+0338EDOF V0200401N004110600019N0022001N9-00101-00201999999ADDGA1011+000159999GA2051+060009029MA1101321999999MW1421REMMET015CIG200 HZ PRSNT
0112106570999991972021810004+49767+009483FM-15+0338EDOF V0200601N003110600019N0024001N9+00001-00101999999ADDGA1011+000159999GA2021+030009049GA3081+060009029MA1101321999999MW1421REMMET031CIG200 HZ PRSNT/RADAT 82L024078
0096106570999991972021811004+49767+009483FM-15+0338EDOF V0200501N002110600019N0026001N9+00201-00101999999ADDGA1011+000159999GA2021+027009049GA3081+060009029MA1101291999999MW1421REMMET015CIG200 HZ PRSNT
0087106570999991972021812004+49767+009483FM-15+0338EDOF V0200501N003610600019N0026001N9+00301-00101999999ADDGA1011+000159999GA2021+027009049GA3081+060009029MA1101291999999MW1061REMMET006CIG200
0087106570999991972021813004+49767+009483FM-15+0338EDOF V0200301N004110600019N0034001N9+00301-00101999999ADDGA1011+000159999GA2031+024009049GA3071+060009029MA1101191999999MW1061REMMET006CIG200
0071106570999991972021814004+49767+009483FM-15+0338EDOF V0200501N003110600019N0070001N9+00501+00001999999ADDGA1021+024009049GA2061+060009009MA1101191999999MW1061REMMET006CIG200
0070106570999991972021815004+49767+009483FM-15+0338EDOF V0200401N003612200019N0070001N9+00601+00001999999ADDGA1011+024009049GA2041+060009009MA1101191999999MW1061REMMET005CIGNO
0040106570999991972021816004+49767+009483FM-15+0338EDOF V0200401N00361220001CN0070001N9+00601+00001999999ADDGA1041+060009009MA1101221999999MW1061
0082106570999991972022205004+49767+009483FM-15+0338EDOF V0200501N00311000301CN0002001N9+00001+00001999999ADDGA1091+000309999GF109991999999999999999999MA1102071999999MW1451REMMET007CIGW001
0088106570999991972022206004+49767+009483FM-15+0338EDOF V0200701N00311000301CN0002001N9+00001+00001999999ADDGA1091+000309999GF109991999999999999999999MA1102071999999MW1451REMMET013CIGW001/90501
0082106570999991972022207004+49767+009483FM-15+0338EDOF V0200801N00361000601CN0004001N9+00001+00001999999ADDGA1091+000609999GF109991999999999999999999MA1102131999999MW1431REMMET007CIGW002
0082106570999991972022208004+49767+009483FM-15+0338EDOF V0200601N00311000601CN0004001N9+00201+00101999999ADDGA1091+000609999GF109991999999999999999999MA1102171999999MW1451REMMET007CIGW002
0082106570999991972022209004+49767+009483FM-15+0338EDOF V0200901N00261000601CN0004001N9+00101+00101999999ADDGA1091+000609999GF109991999999999999999999MA1102171999999MW1451REMMET007CIGW002
0072106570999991972022210004+49767+009483FM-15+0338EDOF V0200601N002610006019N0011001N9+00201+00101999999ADDGA1061+000159999GA2081+000609079MA1102171999999MW1441REMMET007CIGM002
0072106570999991972022211004+49767+009483FM-15+0338EDOF V0200901N003610006019N0011001N9+00201+00101999999ADDGA1051+000159999GA2081+000609079MA1102171999999MW1421REMMET007CIGM002
0072106570999991972022212004+49767+009483FM-15+0338EDOF V0200801N003610012019N0017001N9+00201+00101999999ADDGA1031+000159999GA2081+001209079MA1102131999999MW1421REMMET007CIGM004
0072106570999991972022213004+49767+009483FM-15+0338EDOF V0200701N002610018019N0022001N9+00101+00001999999ADDGA1021+000159999GA2081+001809079MA1102101999999MW1421REMMET007CIGM006
0072106570999991972022214004+49767+009483FM-15+0338EDOF V0200801N003610021019N0022001N9+00201-00101999999ADDGA1021+000159999GA2081+002109079MA1102101999999MW1441REMMET007CIGM007
0072106570999991972022215004+49767+009483FM-15+0338EDOF V0200601N003110027019N0022001N9+00201+00001999999ADDGA1021+000159999GA2081+002709079MA1102101999999MW1441REMMET007CIGM009
0072106570999991972022216004+49767+009483FM-15+0338EDOF V0200901N003610027019N0028001N9+00201+00001999999ADDGA1011+000159999GA2081+002709079MA1102101999999MW1441REMMET007CIGM009
0072106570999991972022305004+49767+009483FM-15+0338EDOF V0200301N001510030019N0060001N9+00201+00101999999ADDGA1051+003009079GA2081+009009059MA1102271999999MW1061REMMET007CIGM010
0078106570999991972022306004+49767+009483FM-15+0338EDOF V0209991C000010030019N0060001N9+00201+00101999999ADDGA1061+003009079GA2081+009009059MA1102301999999MW1061REMMET013CIGM010/90501
0072106570999991972022307004+49767+009483FM-15+0338EDOF V0200301N001510030019N0060001N9+00201+00101999999ADDGA1051+003009079GA2081+009009059MA1102341999999MW1061REMMET007CIGM010
0072106570999991972022308004+49767+009483FM-15+0338EDOF V0200401N001510030019N0060001N9+00301+00101999999ADDGA1061+003009079GA2081+009009059MA1102371999999MW1061REMMET007CIGM010
0072106570999991972022309004+49767+009483FM-15+0338EDOF V0200501N003110045019N0060001N9+00301+00101999999ADDGA1051+004509079GA2081+009009059MA1102401999999MW1061REMMET007CIGM015
0072106570999991972022310004+49767+009483FM-15+0338EDOF V0200501N003610045019N0070001N9+00401+00101999999ADDGA1051+004509079GA2081+009009059MA1102441999999MW1061REMMET007CIGE015
0072106570999991972022311004+49767+009483FM-15+0338EDOF V0200801N004110045019N0070001N9+00401+00101999999ADDGA1051+004509079GA2081+009009059MA1102441999999MW1061REMMET007CIGE015
0072106570999991972022312004+49767+009483FM-15+0338EDOF V0200901N003110045019N0070001N9+00401+00101999999ADDGA1051+004509079GA2081+009009059MA1102401999999MW1061REMMET007CIGE015
0072106570999991972022313004+49767+009483FM-15+0338EDOF V0200801N003610048019N0070001N9+00501+00201999999ADDGA1051+004809079GA2081+009009059MA1102371999999MW1061REMMET007CIGM016
0072106570999991972022314004+49767+009483FM-15+0338EDOF V0200901N003610048019N0070001N9+00601+00201999999ADDGA1061+004809079GA2081+009009059MA1102301999999MW1061REMMET007CIGM016
0072106570999991972022315004+49767+009483FM-15+0338EDOF V0200501N003610048019N0070001N9+00501+00201999999ADDGA1061+004809079GA2081+009009059MA1102301999999MW1061REMMET007CIGM016
0056106570999991972022316004+49767+009483FM-15+0338EDOF V0200801N00261004801CN0070001N9+00501+00201999999ADDGA1081+004809079MA1102301999999MW1061REMMET007CIGM016
0088106570999991972022405004+49767+009483FM-15+0338EDOF V0200701N002110024019N0018001N9+00301+00201999999ADDGA1011+000159999GA2081+002409079MA1102171999999MW1441REMMET023CIGM008/RADAT 97L018030
0094106570999991972022406004+49767+009483FM-15+0338EDOF V0200901N002110024019N0018001N9+00301+00201999999ADDGA1011+000159999GA2041+002409079GA3081+010509059MA1102131999999MW1441REMMET013CIGM008/90501
0071106570999991972022407004+49767+009483FM-15+0338EDOF V0200901N002610105019N0022001N9+00401+00201999999ADDGA1031+002409079GA2081+010509059MA1102171999999MW1421REMMET006CIG035
0080106570999991972022408004+49767+009483FM-15+0338EDOF V0200801N003110105019N0026001N9+00401+00301999999ADDGA1021+002709079GA2081+010509059MA1102171999999MW1421REMMET015CIG035 HZ PRSNT
0081106570999991972022409004+49767+009483FM-15+0338EDOF V0200601N003610030019N0030001N9+00401+00201999999ADDGA1051+003009079GA2081+009009059MA1102131999999MW1441REMMET016CIGM010 HZ PRSNT
0092106570999991972022410004+49767+009483FM-15+0338EDOF V0200601N003110105019N0037001N9+00401+00201999999ADDGA1031+003009079GA2081+010509059MA1102101999999MW1441REMMET027CIG035 HZ PRSNT/RADAT 95028
0080106570999991972022411004+49767+009483FM-15+0338EDOF V0200501N003610105019N0047001N9+00501+00301999999ADDGA1031+004509059GA2081+010509059MA1102071999999MW1421REMMET015CIG035 HZ PRSNT
0086106570999991972022412004+49767+009483FM-15+0338EDOF V0200601N004610105019N0060001N9+00601+00301999999ADDGA1021+004509059GA2081+010509059MA1102001999999MW1061REMMET021CIG035 BCFG IN VLY NE
0083106570999991972022413004+49767+009483FM-15+0338EDOF V0209991V004110105019N0070001N9+00601+00201999999ADDGA1021+004509059GA2081+010509059MA1101961999999MW1061REMMET018CIG035 WND 030V090
0071106570999991972022414004+49767+009483FM-15+0338EDOF V0200801N004110105019N0070001N9+00601+00201999999ADDGA1031+004509059GA2081+010509059MA1101931999999MW1061REMMET006CIG035
0071106570999991972022415004+49767+009483FM-15+0338EDOF V0200401N003610120019N0070001N9+00701+00201999999ADDGA1031+006009059GA2081+012009059MA1101901999999MW1061REMMET006CIG040
0055106570999991972022416004+49767+009483FM-15+0338EDOF V0200501N00311012001CN0070001N9+00701+00201999999ADDGA1071+012009059MA1101861999999MW1061REMMET006CIG040
0040106570999991972022505004+49767+009483FM-15+0338EDOF V0200501N00211220001CN0018001N9-00101-00101999999ADDGA1021+000159999MA1101631999999MW1441
0069106570999991972022506004+49767+009483FM-15+0338EDOF V0200401N00211220001CN0009001N9-00101-00101999999ADDGA1061+000159999MA1101631999999MW1461REMMET020VIS DCRG RPDLY/90504
0087106570999991972022507004+49767+009483FM-15+0338EDOF V0200301N002110600019N0015001N9-00101-00101999999ADDGA1031+000159999GA2021+060009009MA1101631999999MW1421REMMET022CIG200 VIS INCRG SLWLY
0070106570999991972022508004+49767+009483FM-15+0338EDOF V0200401N002612200019N0015001N9+00101-00101999999ADDGA1021+000159999GA2061+060009009MA1101631999999MW1441REMMET005CIGNO
0070106570999991972022509004+49767+009483FM-15+0338EDOF V0200501N002112200019N0022001N9+00201+00101999999ADDGA1011+000159999GA2061+060009009MA1101661999999MW1421REMMET005CIGNO
0070106570999991972022510004+49767+009483FM-15+0338EDOF V0200801N001512200019N0026001N9+00301+00201999999ADDGA1011+000159999GA2061+060009009MA1101661999999MW1421REMMET005CIGNO
0070106570999991972022511004+49767+009483FM-15+0338EDOF V0200401N002112200019N0048001N9+00501+00101999999ADDGA1011+000159999GA2061+060009009MA1101661999999MW1421REMMET005CIGNO
0054106570999991972022512004+49767+009483FM-15+0338EDOF V0200601N00151220001CN0070001N9+00701+00101999999ADDGA1051+060009009MA1101591999999MW1061REMMET005CIGNO
0054106570999991972022513004+49767+009483FM-15+0338EDOF V0200301N00211220001CN0070001N9+00801+00201999999ADDGA1051+060009009MA1101591999999MW1061REMMET005CIGNO
0040106570999991972022514004+49767+009483FM-15+0338EDOF V0200301N00211220001CN0100001N9+00801+00201999999ADDGA1031+060009009MA1101491999999MW1001
0040106570999991972022515004+49767+009483FM-15+0338EDOF V0200101N00361220001CN0100001N9+00801+00201999999ADDGA1031+060009009MA1101491999999MW1001
0040106570999991972022516004+49767+009483FM-15+0338EDOF V0200101N00311220001CN0100001N9+00701+00201999999ADDGA1021+060009009MA1101491999999MW1001
0072106570999991972022805004+49767+009483FM-15+0338EDOF V0209991C000010015019N0009001N9+00201+00201999999ADDGA1031+000159999GA2081+001509079MA1101731999999MW1441REMMET007CIGM005
0078106570999991972022806004+49767+009483FM-15+0338EDOF V0209991C000010015019N0004001N9+00201+00201999999ADDGA1041+000159999GA2081+001509079MA1101731999999MW1461REMMET013CIGM005/90501
0072106570999991972022807004+49767+009483FM-15+0338EDOF V0209991C000010015019N0004001N9+00201+00201999999ADDGA1041+000159999GA2081+001509079MA1101761999999MW1441REMMET007CIGM005
0072106570999991972022808004+49767+009483FM-15+0338EDOF V0209991C000010012019N0004001N9+00201+00201999999ADDGA1051+000159999GA2081+001209079MA1101801999999MW1441REMMET007CIGM004
0072106570999991972022809004+49767+009483FM-15+0338EDOF V0209991C000010012019N0007001N9+00301+00201999999ADDGA1051+000159999GA2081+001209079MA1101831999999MW1421REMMET007CIGM004
0088106570999991972022810004+49767+009483FM-15+0338EDOF V0209991C000010021019N0015001N9+00301+00201999999ADDGA1031+000159999GA2021+002109079GA3071+009009059MA1101831999999MW1421REMMET007CIGE007
0071106570999991972022811004+49767+009483FM-15+0338EDOF V0200301N001010090019N0024001N9+00501+00301999999ADDGA1011+000159999GA2061+009009059MA1101831999999MW1421REMMET006CIG030
0087106570999991972022812004+49767+009483FM-15+0338EDOF V0200601N001510600019N0034001N9+00701+00401999999ADDGA1011+000159999GA2031+009009059GA3051+060009009MA1101801999999MW1061REMMET006CIG200
0071106570999991972022813004+49767+009483FM-15+0338EDOF V0200901N002110090019N0034001N9+00701+00501999999ADDGA1011+000159999GA2061+009009059MA1101801999999MW1061REMMET006CIG030
0071106570999991972022814004+49767+009483FM-15+0338EDOF V0200901N001010090019N0034001N9+00601+00201999999ADDGA1051+009009059GA2041+021009039MA1101761999999MW1061REMMET006CIG030
0055106570999991972022815004+49767+009483FM-15+0338EDOF V0200601N00101009001CN0060001N9+00601+00301999999ADDGA1071+009009059MA1101761999999MW1061REMMET006CIG030
0055106570999991972022816004+49767+009483FM-15+0338EDOF V0200301N00051009001CN0060001N9+00601+00301999999ADDGA1071+009009059MA1101761999999MW1061REMMET006CIG030
0071106570999991972022905004+49767+009483FM-15+0338EDOF V0209991C000010090019N0037001N9+00301+00201999999ADDGA1061+009009059GA2081+024009049MA1101861999999MW1441REMMET006CIG030
0077106570999991972022906004+49767+009483FM-15+0338EDOF V0209991C000010090019N0037001N9+00301+00201999999ADDGA1061+009009059GA2081+024009049MA1101901999999MW1441REMMET012CIG030/90500
0081106570999991972022907004+49767+009483FM-15+0338EDOF V0209991C000010090019N0037001N9+00401+00301999999ADDGA1061+009009059GA2081+024009049MA1101961999999MW1441REMMET016CIG030 VIS E 1.6
0071106570999991972022908004+49767+009483FM-15+0338EDOF V0209991C000010090019N0028001N9+00501+00301999999ADDGA1051+009009059GA2081+024009049MA1101961999999MW1441REMMET006CIG030
0071106570999991972022909004+49767+009483FM-15+0338EDOF V0209991C000010090019N0017001N9+00601+00401999999ADDGA1021+000159999GA2081+009009059MA1102001999999MW1441REMMET006CIG030
0071106570999991972022910004+49767+009483FM-15+0338EDOF V0200401N001010090019N0017001N9+00501+00401999999ADDGA1021+000159999GA2081+009009059MA1101961999999MW1441REMMET006CIG030
0071106570999991972022911004+49767+009483FM-15+0338EDOF V0200701N001010090019N0017001N9+00601+00201999999ADDGA1021+000159999GA2081+009009059MA1101901999999MW1441REMMET006CIG030
0071106570999991972022912004+49767+009483FM-15+0338EDOF V0200701N001010090019N0018001N9+00601+00201999999ADDGA1011+000159999GA2081+009009059MA1101861999999MW1441REMMET006CIG030
0096106570999991972022913004+49767+009483FM-15+0338EDOF V0209991V002110090019N0022001N9+00601+00101999999ADDGA1011+000159999GA2061+009009059GA3081+021009039MA1101831999999MW1421REMMET015CIG030 HZ PRSNT
0071106570999991972022914004+49767+009483FM-15+0338EDOF V0209991V001510105019N0045001N9+00701+00001999999ADDGA1051+010509059GA2081+021009039MA1101801999999MW1061REMMET006CIG035
0071106570999991972022915004+49767+009483FM-15+0338EDOF V0200401N002110210019N0060001N9+00601-00101999999ADDGA1031+010509059GA2071+021009039MA1101731999999MW1061REMMET006CIG070
0071106570999991972022916004+49767+009483FM-15+0338EDOF V0209991V001010210019N0060001N9+00601-00101999999ADDGA1031+010509059GA2071+021009039MA1101731999999MW1061REMMET006CIG070
0087106570999991972030105004+49767+009483FM-15+0338EDOF V0209991C000010090019N0018001N9+00201+00101999999ADDGA1021+000159999GA2041+009009059GA3061+024009049MA1101691999999MW1441REMMET006CIG030
0077106570999991972030106004+49767+009483FM-15+0338EDOF V0200301N001010105019N0018001N9+00201+00101999999ADDGA1021+000159999GA2081+010509059MA1101731999999MW1441REMMET012CIG035/90500
0071106570999991972030107004+49767+009483FM-15+0338EDOF V0200401N001010105019N0018001N9+00301+00201999999ADDGA1021+000159999GA2071+010509059MA1101731999999MW1441REMMET006CIG035
0071106570999991972030108004+49767+009483FM-15+0338EDOF V0200401N002110105019N0024001N9+00301+00201999999ADDGA1021+000159999GA2071+010509059MA1101731999999MW1421REMMET006CIG035
0087106570999991972030109004+49767+009483FM-15+0338EDOF V0200501N002110105019N0024001N9+00401+00301999999ADDGA1021+000159999GA2061+010509059GA3051+021009049MA1101761999999MW1441REMMET006CIG035
0071106570999991972030110004+49767+009483FM-15+0338EDOF V0200501N001010105019N0024001N9+00401+00201999999ADDGA1021+000159999GA2061+010509059MA1101761999999MW1441REMMET006CIG035
0080106570999991972030111004+49767+009483FM-15+0338EDOF V0200401N002110105019N0024001N9+00501+00101999999ADDGA1011+000159999GA2071+010509059MA1101761999999MW1441REMMET015CIG035 HZ PRSNT
0080106570999991972030112004+49767+009483FM-15+0338EDOF V0200501N001510120019N0024001N9+00601+00201999999ADDGA1011+000159999GA2081+012009059MA1101731999999MW1441REMMET015CIG040 HZ PRSNT
0085106570999991972030113004+49767+009483FM-15+0338EDOF V0200601N002610120019N0028001N9+00701+00201999999ADDGA1011+000159999GA2081+012009059MA1101661999999MW1061REMMET020CIG040 VLYS N-E OBSC
0087106570999991972030114004+49767+009483FM-15+0338EDOF V0200601N003110210019N0048001N9+00701-00101999999ADDGA1011+006009089GA2021+012009059GA3061+021009039MA1101631999999MW1061REMMET006CIG070
0071106570999991972030115004+49767+009483FM-15+0338EDOF V0200301N002110210019N0060001N9+00701-00101999999ADDGA1051+021009039GA2051+060009029MA1101631999999MW1061REMMET006CIG070
0071106570999991972030116004+49767+009483FM-15+0338EDOF V0200401N001510210019N0060001N9+00701-00101999999ADDGA1011+009009059GA2071+021009039MA1101661999999MW1061REMMET006CIG070
0056106570999991972030205004+49767+009483FM-15+0338EDOF V0209991C000012200019N0018001N9-00101-00101999999ADDGA1021+000159999GA2021+024009049MA1101831999999MW1441
0070106570999991972030206004+49767+009483FM-15+0338EDOF V0209991C00001220001CN0018001N9-00101-00101999999ADDGA1021+000159999GA2021+024009039MA1101861999999MW1441REMMET00590500
0071106570999991972030207004+49767+009483FM-15+0338EDOF V0209991C000010240019N0018001N9+00001-00101999999ADDGA1021+000159999GA2041+024009039MA1101901999999MW1441REMMET006CIG080
0071106570999991972030208004+49767+009483FM-15+0338EDOF V0209991C000010210019N0018001N9+00001-00101999999ADDGA1021+000159999GA2061+021009039MA1101901999999MW1441REMMET006CIG070
0071106570999991972030209004+49767+009483FM-15+0338EDOF V0200301N000510210019N0018001N9+00301+00001999999ADDGA1021+000159999GA2061+021009039MA1101901999999MW1441REMMET006CIG070
0071106570999991972030210004+49767+009483FM-15+0338EDOF V0200301N001010210019N0028001N9+00401+00101999999ADDGA1011+000159999GA2051+021009039MA1101901999999MW1441REMMET006CIG070
0087106570999991972030211004+49767+009483FM-15+0338EDOF V0200801N002110600019N0034001N9+00501+00001999999ADDGA1011+000159999GA2021+021009039GA3051+060009029MA1101831999999MW1061REMMET006CIG200
0054106570999991972030212004+49767+009483FM-15+0338EDOF V0209991V00051220001CN0060001N9+00701-00101999999ADDGA1051+060009029MA1101761999999MW1061REMMET005CIGNO
0054106570999991972030213004+49767+009483FM-15+0338EDOF V0200901N00211220001CN0060001N9+00701-00101999999ADDGA1061+060009029MA1101731999999MW1061REMMET005CIGNO
0070106570999991972030214004+49767+009483FM-15+0338EDOF V0209991C000012200019N0070001N9+00801-00201999999ADDGA1021+007509059GA2061+060009029MA1101691999999MW1061REMMET005CIGNO
0070106570999991972030215004+49767+009483FM-15+0338EDOF V0200701N001512200019N0070001N9+00901-00201999999ADDGA1011+007509059GA2061+060009029MA1101661999999MW1061REMMET005CIGNO
0054106570999991972030216004+49767+009483FM-15+0338EDOF V0200801N00101220001CN0060001N9+00801-00101999999ADDGA1061+060009029MA1101631999999MW1061REMMET005CIGNO
0055106570999991972030305004+49767+009483FM-15+0338EDOF V0200301N00211021001CN0037001N9-00101-00201999999ADDGA1081+021009039MA1101221999999MW1441REMMET006CIG070
0077106570999991972030306004+49767+009483FM-15+0338EDOF V0200401N001010210019N0037001N9-00101-00201999999ADDGA1031+010509059GA2081+021009039MA1101191999999MW1441REMMET012CIG070/90501
0071106570999991972030307004+49767+009483FM-15+0338EDOF V0209991C000010210019N0028001N9-00101-00201999999ADDGA1021+010509059GA2071+021009039MA1101191999999MW1441REMMET006CIG070
0064106570999991972030308004+49767+009483FM-15+0338EDOF V0209991V00051018001CN0028001N9+00001-00101999999ADDGA1071+018009039MA1101191999999MW1441REMMET015CIG060 HZ PRSNT
0064106570999991972030309004+49767+009483FM-15+0338EDOF V0200501N00211018001CN0030001N9+00201-00101999999ADDGA1071+018009039MA1101151999999MW1421REMMET015CIG060 HZ PRSNT
0056106570999991972030310004+49767+009483FM-15+0338EDOF V0200601N002612200019N0037001N9+00301-00101999999ADDGA1011+000159999GA2021+060009009MA1101081999999MW1061
0056106570999991972030311004+49767+009483FM-15+0338EDOF V0209991C000012200019N0060001N9+00701+00001999999ADDGA1011+000159999GA2011+060009009MA1101051999999MW1061
0056106570999991972030312004+49767+009483FM-15+0338EDOF V0200801N001012200019N0070001N9+00801+00101999999ADDGA1021+009009089GA2011+060009009MA1101151999999MW1061
0071106570999991972030313004+49767+009483FM-15+0338EDOF V0200901N002610600019N0070001N9+00801+00101999999ADDGA1041+009009089GA2021+060009009MA1101151999999MW1061REMMET006CIG200
0071106570999991972030314004+49767+009483FM-15+0338EDOF V0201501N003110090019N0100001N9+00901+00101999999ADDGA1051+009009089GA2011+060009009MA1100981999999MW1001REMMET006CIG030
0071106570999991972030315004+49767+009483FM-15+0338EDOF V0201101N003110600019N0100001N9+00901+00201999999ADDGA1041+009009089GA2021+060009009MA1100851999999MW1001REMMET006CIG200
0071106570999991972030316004+49767+009483FM-15+0338EDOF V0201001N003610600019N0100001N9+00801+00201999999ADDGA1041+009009089GA2011+060009009MA1100851999999MW1001REMMET006CIG200
0055106570999991972030605004+49767+009483FM-15+0338EDOF V0202101N00311024001CN0100001N9+00201-00101999999ADDGA1061+024009039MA1100071999999MW1001REMMET006CIG080
0077106570999991972030606004+49767+009483FM-15+0338EDOF V0202201N004110240019N0100001N9+00301+00001999999ADDGA1031+009009059GA2081+024009039MA1100101999999MW1001REMMET012CIG080/90501
0071106570999991972030607004+49767+009483FM-15+0338EDOF V0201901N002610240019N0100001N9+00301+00001999999ADDGA1021+010509059GA2061+024009039MA1100141999999MW1001REMMET006CIG080
0071106570999991972030608004+49767+009483FM-15+0338EDOF V0201901N002110240019N0100001N9+00301+00001999999ADDGA1031+009009059GA2031+024009039MA1100141999999MW1001REMMET006CIG080
0056106570999991972030609004+49767+009483FM-15+0338EDOF V0202001N005112200019N0100001N9+00501+00001999999ADDGA1011+004509089GA2031+009009059MA1100101999999MW1001
0056106570999991972030610004+49767+009483FM-15+0338EDOF V0201901N004612200019N0100001N9+00601+00001999999ADDGA1021+004509089GA2021+009009059MA1100101999999MW1001
0056106570999991972030611004+49767+009483FM-15+0338EDOF V0202001N004112200019N0100001N9+00701+00101999999ADDGA1031+004509089GA2011+009009059MA1100031999999MW1001
0056106570999991972030612004+49767+009483FM-15+0338EDOF V0202301N00311006001CN0100001N9+00701+00201999999ADDGA1061+006009089MA1100001999999MW1001REMMET007CIGE020
0072106570999991972030613004+49767+009483FM-15+0338EDOF V0202001N003110060019N0100001N9+00701+00201999999ADDGA1051+006009089GA2021+009009059MA1099931999999MW1001REMMET007CIGE020
0088106570999991972030614004+49767+009483FM-15+0338EDOF V0201801N003110060019N0100001N9+00701+00201999999ADDGA1051+006009089GA2021+009009059GA3031+060009009MA1099831999999MW1001REMMET007CIGE020
0087106570999991972030615004+49767+009483FM-15+0338EDOF V0201801N004110600019N0100001N9+00801+00201999999ADDGA1021+006009089GA2021+009009059GA3041+060009009MA1099761999999MW1001REMMET006CIG200
0087106570999991972030616004+49767+009483FM-15+0338EDOF V0201801N002610600019N0100001N9+00801+00201999999ADDGA1011+006009089GA2021+009009059GA3051+060009009MA1099701999999MW1001REMMET006CIG200
0071106570999991972030705004+49767+009483FM-15+0338EDOF V0201801N003110090019N0100001N9+00501+00301999999ADDGA1051+009009059GA2081+024009049MA1100001999999MW1001REMMET006CIG030
0093106570999991972030706004+49767+009483FM-15+0338EDOF V0202201N002110240019N0100001N9+00501+00301999999ADDGA1011+004509089GA2021+009009059GA3081+024009049MA1100101999999MW1001REMMET012CIG080/90501
0087106570999991972030707004+49767+009483FM-15+0338EDOF V0209991V001510240019N0100001N9+00501+00301999999ADDGA1011+004509089GA2031+012009059GA3081+024009049MA1100171999999MW1611REMMET006CIG080
0087106570999991972030708004+49767+009483FM-15+0338EDOF V0209991V001010240019N0100001N9+00601+00301999999ADDGA1011+004509089GA2021+012009059GA3081+024009049MA1100201999999MW1211REMMET006CIG080
0087106570999991972030709004+49767+009483FM-15+0338EDOF V0209991V002110240019N0100001N9+00601+00401999999ADDGA1021+004509089GA2011+012009059GA3081+024009049MA1100241999999MW1001REMMET006CIG080
0100106570999991972030710004+49767+009483FM-15+0338EDOF V0209991V004110057019N0100001N9+00601+00201999999ADDGA1021+004509089GA2041+005709059GA3081+024009049MA1100271999999MW1001REMMET019CIGM019 WND 150V230
0072106570999991972030711004+49767+009483FM-15+0338EDOF V0201801N002610054019N0100001N9+00701+00301999999ADDGA1061+005409059GA2081+024009049MA1100311999999MW1211REMMET007CIGM018
0072106570999991972030712004+49767+009483FM-15+0338EDOF V0201501N002110054019N0100001N9+00701+00301999999ADDGA1061+005409059GA2081+021009049MA1100271999999MW1611REMMET007CIGM018
0072106570999991972030713004+49767+009483FM-15+0338EDOF V0201501N002110054019N0100001N9+00801+00301999999ADDGA1061+005409059GA2081+021009049MA1100271999999MW1611REMMET007CIGM018
0056106570999991972030714004+49767+009483FM-15+0338EDOF V0201501N00361005101CN0100001N9+00801+00301999999ADDGA1081+005109059MA1100311999999MW1611REMMET007CIGM017
0072106570999991972030715004+49767+009483FM-15+0338EDOF V0201101N002110051019N0100001N9+00701+00401999999ADDGA1051+005109059GA2081+021009049MA1100311999999MW1211REMMET007CIGM017
0072106570999991972030716004+49767+009483FM-15+0338EDOF V0201101N002610051019N0100001N9+00701+00401999999ADDGA1051+005109059GA2081+021009049MA1100311999999MW1001REMMET007CIGM017
0082106570999991972030805004+49767+009483FM-15+0338EDOF V0209991C00001000151CN0000001N9+00201+00201999999ADDGA1091+000159999GF109991999999999999999999MA1100711999999MW1451REMMET007CIGW000
0088106570999991972030806004+49767+009483FM-15+0338EDOF V0209991C00001000151CN0000001N9+00201+00201999999ADDGA1091+000159999GF109991999999999999999999MA1100751999999MW1451REMMET013CIGW000/90501
0082106570999991972030807004+49767+009483FM-15+0338EDOF V0209991C00001000151CN0000001N9+00301+00301999999ADDGA1091+000159999GF109991999999999999999999MA1100751999999MW1451REMMET007CIGW000
0082106570999991972030808004+49767+009483FM-15+0338EDOF V0209991C00001000301CN0002001N9+00301+00301999999ADDGA1091+000309999GF109991999999999999999999MA1100781999999MW1431REMMET007CIGW001
0082106570999991972030809004+49767+009483FM-15+0338EDOF V0209991C00001000301CN0002001N9+00401+00401999999ADDGA1091+000309999GF109991999999999999999999MA1100811999999MW1451REMMET007CIGW001
0082106570999991972030810004+49767+009483FM-15+0338EDOF V0202101N00051000601CN0004001N9+00401+00401999999ADDGA1091+000609999GF109991999999999999999999MA1100851999999MW1431REMMET007CIGW002
0109106570999991972030811004+49767+009483FM-15+0338EDOF V0209991C00001000601CN0007001N9+00401+00301999999ADDGA1091+000609999GF109991999999999999999999MA1100851999999MW1431REMMET034CIGW002 VIS SW 0.9 VIS INCRG SLWLY
0095106570999991972030812004+49767+009483FM-15+0338EDOF V0209991V002112200019N0070001N9+00801+00301999999ADDGA1021+002409089GA2051+060009009MA1100851999999MW1421REMMET030CIGNO VIS INCRG RPDLY MDT CU N
0081106570999991972030813004+49767+009483FM-15+0338EDOF V0209991V002112200019N0100001N9+00901+00201999999ADDGA1021+004509089GA2041+060009009MA1100811999999MW1001REMMET016CIGNO MDT CU W-N
0070106570999991972030814004+49767+009483FM-15+0338EDOF V0200701N003112200019N0100001N9+01001+00201999999ADDGA1021+004509089GA2041+060009009MA1100781999999MW1001REMMET005CIGNO
0070106570999991972030815004+49767+009483FM-15+0338EDOF V0200601N002612200019N0100001N9+01001+00201999999ADDGA1021+006009089GA2041+060009009MA1100781999999MW1001REMMET005CIGNO
0087106570999991972030816004+49767+009483FM-15+0338EDOF V0209991V002110600019N0100001N9+00901+00101999999ADDGA1011+006009089GA2021+010509059GA3061+060009029MA1100781999999MW1001REMMET006CIG200
