0117295390999991971010100004+55667+084400FM-12+020199999V0209991C00001024001CN0090001N9-01611-01781103671ADDAA106016091AA299004091AY171999GF108991081001999999021999HL10009IA1319IA2999-02119KA1999N-01781MD1710031+9999MW1731
0057295390999991971010103004+55667+084400FM-12+020199999V0209991C00001030001CN0060001N9-01721-01721103631ADDAY171999GF108991021051008001071999MD1710041+9999MW1711
0092295390999991971010106004+55667+084400FM-12+020199999V0200201N00101007201CN0060001N9-01501-01721103621ADDAY171999GA1071+007209059GF107991999051008001001001MD1410001+9999MW1711EQDQ01+000012SCOTLC
0057295390999991971010109004+55667+084400FM-12+020199999V0209991C00001024001CN0080001N9-01611-01781103641ADDAY171999GF108991081001999999021999MD1210011+9999MW1711
0111295390999991971010112004+55667+084400FM-12+020199999V0209991C00001220001CN0080001N9-01781-01891103661ADDAA106004091AA299001091AY171999GF100991001001999999001001KA1999M-01501MD1110021+9999MW1221EQDQ01+000002APC3  
0057295390999991971010115004+55667+084400FM-12+020199999V0209991C00001220001CN0200001N9-01781-02001103611ADDAY101999GF100991001001999999001001MD1710051+9999MW1101
0057295390999991971010118004+55667+084400FM-12+020199999V0209991C00001220001CN0020001N9-02001-02221103621ADDAY101999GF100991001001999999001001MD1710011+9999MW1101
0057295390999991971010121004+55667+084400FM-12+020199999V0209991C00001220001CN0200001N9-02001-02281103541ADDAY101999GF100991001001999999001001MD1710031+9999MW1021
0106295390999991971010200004+55667+084400FM-12+020199999V0209991C00001220001CN0300001N9-02001-02221103481ADDAA199000091AY101999GF100991001001999999001001HL10009IA1319IA2999-02789KA1999N-02221MD1710111+9999MW1021
0057295390999991971010203004+55667+084400FM-12+020199999V0202301N00411220001CN0250001N9-01721-01891103261ADDAY111999GF106991001001999999001021MD1710181+9999MW1031
0057295390999991971010206004+55667+084400FM-12+020199999V0202301N00621024001CN0290001N9-01281-01611103141ADDAY111999GF108991081001999999071999MD1710071+9999MW1021
0057295390999991971010209004+55667+084400FM-12+020199999V0202301N00821024001CN0270001N9-01111-01391102941ADDAY131999GF108991081001999999071999MD1710191+9999MW1361
0081295390999991971010212004+55667+084400FM-12+020199999V0202301N00981024001CN0150001N9-01001-01221102791ADDAA199000091AY131999GF108991081001999999071999KA1999M-01001MD1710141+9999MW1361
0057295390999991971010215004+55667+084400FM-12+020199999V0202301N01181024001CN0020001N9-00891-01001102551ADDAY171999GF108991081001999999021999MD1710221+9999MW1711
0057295390999991971010218004+55667+084400FM-12+020199999V0202301N01181024001CN0020001N9-00721-00781102191ADDAY171999GF108991081001999999021999MD1710321+9999MW1711
0057295390999991971010221004+55667+084400FM-12+020199999V0202301N01391004501CN0015001N9-00501-00611101971ADDAY181999GF108991081031004501999999MD1710201+9999MW1851
0117295390999991971010300004+55667+084400FM-12+020199999V0202301N01591004501CN0020001N9-00501-00721101871ADDAA106008091AA299002091AY181999GF108991081031004501999999HL10009IA1319IA2999-01119KA1999N-01001MD1710101+9999MW1851
0108295390999991971010303004+55667+084400FM-12+020199999V0202301N01591003901CN0050001N9-00391-00721101621ADDAY181999GA1091+003909999GF109991091091004501999999MD1710191+9999MW1861EQDQ01+000082SCOTCVQ02+000082SCOTLC
0057295390999991971010306004+55667+084400FM-12+020199999V0202301N01391024001CN0120001N9-00501-00891101481ADDAY181999GF107991071001999999031001MD1710191+9999MW1381
0108295390999991971010309004+55667+084400FM-12+020199999V0202301N01591003001CN0015001N9-00501-00781101221ADDAY181999GA1091+003009999GF109991091091004501999999MD1710261+9999MW1861EQDQ01+000082SCOTCVQ02+000082SCOTLC
0092295390999991971010312004+55667+084400FM-12+020199999V0202301N01591004501CN0021001N9-00501-00611100981ADDAA106004091AA299001091AY181999GF108991081091004501999999KA1999M-00391MD1710231+9999MW1861
0057295390999991971010318004+55667+084400FM-12+020199999V0202301N01391004501CN0020001N9-00281-00501100671ADDAY181999GF108991081091004501999999MD1710161+9999MW1861
0114295390999991971010321004+55667+084400FM-12+020199999V0202301N01591220001CN0018001N9-00501-00781100731ADDAY181999GA1021+004209039GA2999+999999099GF108991081091004501999999IA1089MD1310041+9999MW1861EQDQ01    003SCCGA2
0117295390999991971010400004+55667+084400FM-12+020199999V0202301N01181220001CN0150001N9-00781-01281100851ADDAA106004091AA299001091AY181999GF100991001001999999001001HL10009IA1319IA2999-01229KA1999N-00781MD1210091+9999MW1361
0057295390999991971010403004+55667+084400FM-12+020199999V0202301N01181024001CN0040001N9+99999+99999999999ADDAY181999GF107991071001999999071001MD1210231+9999MW1861
0057295390999991971010406004+55667+084400FM-12+020199999V0202301N00981024001CN0070001N9-01001-01391999999ADDAY181999GF107991071001999999071001MD1210181+9999MW1861
0057295390999991971010409004+55667+084400FM-12+020199999V0202301N00821024001CN0060001N9-00891-01501999999ADDAY171999GF107991071001999999071001MD1210161+9999MW1711
0092295390999991971010412004+55667+084400FM-12+020199999V0202301N00721024001CN0100001N9-01391-01611999999ADDAA106001091AA299000391AY171999GF107991071001999999071001KA1999M-00781MD1210061+9999MW1711
0057295390999991971010415004+55667+084400FM-12+020199999V0202301N00411024001CN0120001N9-01281-01501101961ADDAY171999GF108991081001999999011999MD1210311+9999MW1111
0057295390999991971010418004+55667+084400FM-12+020199999V0202301N00311220001CN0210001N9-01501-01721101961ADDAY171999GF102991001001999999001011MD1210401+9999MW1011
0057295390999991971010421004+55667+084400FM-12+020199999V0202301N00311220001CN0290001N9-01781-02001102891ADDAY101999GF100991001001999999001001MD1710451+9999MW1021
0057295390999991971010500004+55667+084400FM-12+020199999V0202301N00511220001CN0300001N9-02111-02221103261ADDAY101999GF102991001001999999001021MD1210351+9999MW1021
0057295390999991971010503004+55667+084400FM-12+020199999V0202301N00621220001CN0200001N9-02111-02391103551ADDAY111999GF106991001001999999001011MD1210281+9999MW1021
0057295390999991971010506004+55667+084400FM-12+020199999V0202301N00821220001CN0250001N9-01891-02221103671ADDAY131999GF107991011001999999041011MD1210141+9999MW1361
0057295390999991971010509004+55667+084400FM-12+020199999V0202301N00821220001CN0200001N9-01781-02221103761ADDAY131999GF108991001001999999001091MD1210101+9999MW1361
0081295390999991971010512004+55667+084400FM-12+020199999V0202301N00721220001CN0280001N9-01891-02281103891ADDAA199000091AY131999GF107991001001999999001011KA1999M-01721MD1210121+9999MW1361
0057295390999991971010518004+55667+084400FM-12+020199999V0202301N00981024001CN0300001N9-01781-02111103891ADDAY131999GF108991081001999999021999MD1710201+9999MW1361
0079295390999991971010521004+55667+084400FM-12+020199999V0202101N01181024001CN0300001N9-01611-02111102811ADDAA106067091AA299017091AY171999GF108991081001999999021999MD1710081+9999MW1711
0095295390999991971010600004+55667+084400FM-12+020199999V0202301N01391024001CN0300001N9-01221-01721102131ADDAY171999GF108991081001999999071999HL10009IA1319IA2999-02229KA1999N-01891MD1710631+9999MW1711
0057295390999991971010603004+55667+084400FM-12+020199999V0202301N01181024001CN0180001N9-01001-01721101821ADDAY171999GF108991081001999999071999MD1710281+9999MW1381
0057295390999991971010606004+55667+084400FM-12+020199999V0202301N01181024001CN0020001N9-01001-01221101731ADDAY171999GF108991081001999999011999MD1710081+9999MW1731
0092295390999991971010612004+55667+084400FM-12+020199999V0202301N00821024001CN0130001N9-01001-01221102021ADDAA106002091AA299000591AY171999GF108991081001999999011999KA1999M-00891MD1210241+9999MW1711
0057295390999991971010615004+55667+084400FM-12+020199999V0202301N00721024001CN0110001N9-01001-01111102091ADDAY171999GF108991081001999999021999MD1210071+9999MW1711
0057295390999991971010618004+55667+084400FM-12+020199999V0202301N00511024001CN0090001N9-01001-01111102181ADDAY171999GF108991081001999999021999MD1210091+9999MW1711
0057295390999991971010621004+55667+084400FM-12+020199999V0202301N00621004501CN0300001N9-01001-01111102251ADDAY171999GF107991071031004501001001MD1210071+9999MW1221
0117295390999991971010700004+55667+084400FM-12+020199999V0202301N00311030001CN0200001N9-01001-01111102251ADDAA106001091AA299000391AY171999GF108991031031004501021999HL10009IA1319IA2999-01619KA1999N-01221MD1410001+9999MW1851
0057295390999991971010703004+55667+084400FM-12+020199999V0202301N00311024001CN0130001N9-01001-01111102201ADDAY171999GF108991081001999999021999MD1710051+9999MW1711
0057295390999991971010706004+55667+084400FM-12+020199999V0202301N00411024001CN0150001N9-01001-01221101931ADDAY171999GF108991081001999999071999MD1710271+9999MW1711
0057295390999991971010709004+55667+084400FM-12+020199999V0202301N00621024001CN0210001N9-00891-01111101521ADDAY171999GF108991081001999999021999MD1710391+9999MW1021
0078295390999991971010712004+55667+084400FM-12+020199999V0202301N00101024001CN0070001N9-00781-01001101181ADDAA106001091AA299000391AY171999GF108991081001999999011999KA1999M-00781MW1731
0057295390999991971010718004+55667+084400FM-12+020199999V0202301N00981024001CN0050001N9-00891-01001100551ADDAY171999GF108991081001999999011999MD1710221+9999MW1731
0117295390999991971010800004+55667+084400FM-12+020199999V0202301N00821024001CN0080001N9-01221-01501101131ADDAA106008091AA299002091AY171999GF108991081001999999021999HL10009IA1319IA2999-01289KA1999N-01221MD1210351+9999MW1711
0057295390999991971010803004+55667+084400FM-12+020199999V0202501N00721004501CN0100001N9-01501-01781101491ADDAY131999GF107991071071004501041001MD1210321+9999MW1361
0057295390999991971010806004+55667+084400FM-12+020199999V0202501N00621220001CN0120001N9-01611-01891101761ADDAY131999GF100991001001999999001001MD1210251+9999MW1361
0057295390999991971010809004+55667+084400FM-12+020199999V0202301N00511220001CN0140001N9-01721-02221101911ADDAY131999GF100991001001999999001001MD1210141+9999MW1361
0081295390999991971010812004+55667+084400FM-12+020199999V0202301N00511220001CN0100001N9-02001-02281101991ADDAA199000091AY131999GF100991001001999999001001KA1999M-01111MD1210051+9999MW1021
0057295390999991971010815004+55667+084400FM-12+020199999V0202301N00211220001CN0280001N9-02221-02391101921ADDAY111999GF106991001001999999001011MD1810091+9999MW1031
0057295390999991971010818004+55667+084400FM-12+020199999V0202301N00411024001CN0110001N9-02111-02281101781ADDAY171999GF108991081001999999011999MD1710121+9999MW1711
0057295390999991971010821004+55667+084400FM-12+020199999V0202301N00511024001CN0150001N9-02111-02391101791ADDAY171999GF108991081001999999011999MD1310011+9999MW1711
0117295390999991971010900004+55667+084400FM-12+020199999V0202301N00511220001CN0180001N9-02501-02781101981ADDAA106001091AA299000391AY171999GF100991001001999999001001HL10009IA1319IA2999-02619KA1999N-02501MD1210131+9999MW1011
0057295390999991971010903004+55667+084400FM-12+020199999V0202301N00411024001CN0150001N9-02611-02891102191ADDAY111999GF108991061001999999071071MD1210201+9999MW1031
0057295390999991971010906004+55667+084400FM-12+020199999V0202001N00621220001CN0120001N9-02391-02721102271ADDAY111999GF108991001001999999001071MD1210101+9999MW1021
0057295390999991971010909004+55667+084400FM-12+020199999V0202001N00411220001CN0190001N9-02221-02501102251ADDAY121999GF107991001001999999001011MD1210011+9999MW1021
0067295390999991971010912004+55667+084400FM-12+020199999V0209991C00001220001CN0250001N9+99999+99999102191ADDAA199000091AY111999GF102991021011017501001021KA1999M-02111MW1021
0057295390999991971010918004+55667+084400FM-12+020199999V0202301N00311220001CN0300001N9-02391-02611102121ADDAY111999GF108991001001999999001071MD1710131+9999MW1021
0057295390999991971010921004+55667+084400FM-12+020199999V0202301N00211220001CN0300001N9-02281-02611102061ADDAY121999GF108991001001999999001071MD1710041+9999MW1021
0106295390999991971011000004+55667+084400FM-12+020199999V0209991C00001220001CN0250001N9-02221-02391101871ADDAA199000091AY121999GF108991001001999999011071HL10009IA1319IA2999-02789KA1999N-02501MD1710231+9999MW1021
0057295390999991971011003004+55667+084400FM-12+020199999V0202301N00411024001CN0200001N9-01891-02111101801ADDAY121999GF108991081001999999071999MD1710041+9999MW1021
0057295390999991971011006004+55667+084400FM-12+020199999V0202501N00511024001CN0110001N9-01721-02001101641ADDAY171999GF108991081001999999071999MD1710141+9999MW1711
0057295390999991971011009004+55667+084400FM-12+020199999V0202301N00411024001CN0150001N9-01391-01611101351ADDAY171999GF108991081001999999021999MD1710261+9999MW1711
0092295390999991971011012004+55667+084400FM-12+020199999V0202301N00211024001CN0160001N9-01391-01501101191ADDAA106004091AA299001091AY171999GF108991081001999999011999KA1999M-01221MD1710151+9999MW1711
0057295390999991971011015004+55667+084400FM-12+020199999V0202301N00101030001CN0150001N9-01281-01501101131ADDAY171999GF108991031071004501011999MD1710051+9999MW1711
0057295390999991971011018004+55667+084400FM-12+020199999V0202901N00101220001CN0130001N9-01501-01721101191ADDAY171999GF108991001001999999001071MD1310041+9999MW1221
0057295390999991971011021004+55667+084400FM-12+020199999V0202901N00621220001CN0300001N9-02221-02501101591ADDAY111999GF102991001001999999001011MD1210321+9999MW1021
0117295390999991971011100004+55667+084400FM-12+020199999V0202701N00621024001CN0300001N9-02501-02781101971ADDAA106004091AA299001091AY111999GF107991071001999999071001HL10009IA1319IA2999-02399KA1999N-02501MD1210331+9999MW1021
0057295390999991971011103004+55667+084400FM-12+020199999V0202701N00621024001CN0120001N9-02611-02891102351ADDAY121999GF106991061001999999041001MD1210371+9999MW1021
0057295390999991971011106004+55667+084400FM-12+020199999V0202701N00821220001CN0150001N9-02611-02891102381ADDAY131999GF100991001001999999001001MD1210031+9999MW1361
0057295390999991971011109004+55667+084400FM-12+020199999V0202301N00821220001CN0170001N9-02281-02611102511ADDAY131999GF106991001001999999001021MD1810021+9999MW1361
0081295390999991971011112004+55667+084400FM-12+020199999V0202301N00981220001CN0120001N9-02001-02281102061ADDAA199000091AY131999GF106991001001999999001021KA1999M-02001MD1710401+9999MW1361
0092295390999991971011118004+55667+084400FM-12+020199999V0202301N01591024001CN0010001N9-01391-01611100402ADDAY171999GF108991081001999999021999MD1710962+9999MW1731EQDQ01+100403APOSLPQ02+000962APC3  
0076295390999991971011121004+55667+084400FM-12+020199999V0202301N02011024001CN0006001N9-01111-01221099472ADDAY171999GF108991081001999999021999MD1710881+9999MW1731EQDQ01+099473APOSLP
0095295390999991971011200004+55667+084400FM-12+020199999V0200701N00211024001CN0140001N9-01001-01221099721ADDAY121999GF108991081001999999021999HL10009IA1209IA2999-02399KA1999N-02281MD1710381+9999MW1031
0092295390999991971011212004+55667+084400FM-12+020199999V0202301N02011024001CN0003001N9+99999+99999099721ADDAA106020091AA299005091AY171999GF108991081001999999021999KA1999M-02501MD1410001+9999MW1731
0057295390999991971011218004+55667+084400FM-12+020199999V0202301N01801024001CN0003001N9-00781-00891099721ADDAY171999GF108991081001999999999999MD1810061+9999MW1731
0057295390999991971011318004+55667+084400FM-12+020199999V0202301N00621220001CN0170001N9-01111-01281099721ADDAY171999GF100991001001999999001001MD1210391+9999MW1011
0117295390999991971011400004+55667+084400FM-12+020199999V0209991C00001030001CN0050001N9-02001-02281099381ADDAA106004091AA299001091AY171999GF108991041071004501011999HL10009IA1319IA2999-02229KA1999N-02001MD1810181+9999MW1731
0057295390999991971011403004+55667+084400FM-12+020199999V0200501N00211030001CN0050001N9-02001-02221099071ADDAY171999GF108991021071004501021999MD1710291+9999MW1731
0108295390999991971011412004+55667+084400FM-12+020199999V0202301N00871220001CN0150001N9-02501-02781099071ADDAY131999GA1999+054009049GF104991041001999999071001MD1310992+9999MW1361EQDQ01+000992APC3  Q02    003SCCGA1
0092295390999991971011418004+55667+084400FM-12+020199999V0202301N00511220001CN0300001N9-03221-03611101452ADDAY131999GF100991001001999999001001MD1210592+9999MW1021EQDQ01+101453APOSLPQ02+000592APC3  
0057295390999991971011421004+55667+084400FM-12+020199999V0202301N00821220001CN0300001N9-03281-03611101741ADDAY101999GF100991001001999999001001MD1210281+9999MW1021
0106295390999991971011500004+55667+084400FM-12+020199999V0202301N00621220001CN0300001N9-03281-03611101811ADDAA199000091AY101999GF100991001001999999001001HL10009IA1319IA2999-03729KA1999N-03391MD1210061+9999MW1021
0057295390999991971011506004+55667+084400FM-12+020199999V0202301N00821220001CN0200001N9-03001-03391101891ADDAY131999GF102991001001999999001011MD1210051+9999MW1361
0051295390999991971011509004+55667+084400FM-12+020199999V0202301N00821220001CN0090001N9-02781-03221101941ADDAY131999GF108991001001999999001021MD1210071+9999
0081295390999991971011512004+55667+084400FM-12+020199999V0202001N00981220001CN0090001N9-02611-02891101851ADDAA199000091AY131999GF102991001001999999001999KA1999M-02611MD1810061+9999MW1361
0057295390999991971011518004+55667+084400FM-12+020199999V0202301N01181024001CN0015001N9-02221-02501101831ADDAY171999GF108991081001999999011999MD1710011+9999MW1731
0117295390999991971011600004+55667+084400FM-12+020199999V0202301N01181024001CN0025001N9-02111-02391101741ADDAA106004091AA299001091AY171999GF108991081001999999011999HL10009IA1319IA2999-02789KA1999N-02611MD1810101+9999MW1731
0057295390999991971011603004+55667+084400FM-12+020199999V0202301N01591024001CN0001001N9-01721-01891101361ADDAY171999GF108991081001999999021999MD1710101+9999MW1731
0057295390999991971011606004+55667+084400FM-12+020199999V0202301N01591024001CN0001001N9-01721-01891101361ADDAY171999GF108991081001999999021999MD1710101+9999MW1731
0057295390999991971011609004+55667+084400FM-12+020199999V0202301N01591024001CN0001001N9-01501-01721101151ADDAY171999GF108991081001999999021999MD1710181+9999MW1731
0092295390999991971011612004+55667+084400FM-12+020199999V0202301N01591024001CN0002001N9-01501-01721101001ADDAA106004091AA299001091AY171999GF108991081001999999021999KA1999M-01391MD1710151+9999MW1731
0057295390999991971011615004+55667+084400FM-12+020199999V0202301N01801024001CN0005001N9-01501-01721100741ADDAY171999GF108991081001999999021999MD1710241+9999MW1731
0057295390999991971011618004+55667+084400FM-12+020199999V0202301N01801024001CN0005001N9-01281-01501100521ADDAY171999GF108991081001999999021999MD1710201+9999MW1731
0057295390999991971011621004+55667+084400FM-12+020199999V0202301N02981024001CN0001001N9-01501-01721100701ADDAY171999GF108991081001999999011999MD1310161+9999MW1731
0117295390999991971011700004+55667+084400FM-12+020199999V0202301N02781024001CN0004001N9-02281-02611101671ADDAA106008091AA299002091AY171999GF108991081001999999011999HL10009IA1319IA2999-02399KA1999N-02281MD1210971+9999MW1731
0092295390999991971011706004+55667+084400FM-12+020199999V0202301N00821220001CN0220001N9-02781-03281103262ADDAY131999GF108991001001999999001071MD1210552+9999MW1361EQDQ01+103263APOSLPQ02+000552APC3  
0057295390999991971011709004+55667+084400FM-12+020199999V0202301N00621220001CN0200001N9-02721-03221103481ADDAY131999GF108991001001999999001071MD1210221+9999MW1361
0070295390999991971011712004+55667+084400FM-12+020199999V0202301N00311075001CN0300001N9-02781-03281103671ADDAY131999GF108991021001999999041071KA1999M-02111MD1210181+9999MW1021
0057295390999991971011715004+55667+084400FM-12+020199999V0202301N00211220001CN0300001N9-02781-03281103731ADDAY101999GF100991001001999999001001MD1210061+9999MW1021
0057295390999991971011718004+55667+084400FM-12+020199999V0209991C00001220001CN0300001N9-03001-03221103891ADDAY101999GF100991001001999999001001MD1210141+9999MW1021
0057295390999991971011721004+55667+084400FM-12+020199999V0209991C00001220001CN0300001N9-03111-03501104031ADDAY101999GF100991001001999999001001MD1210121+9999MW1021
0106295390999991971011800004+55667+084400FM-12+020199999V0209991C00001220001CN0300001N9-03221-03501104141ADDAA199000091AY101999GF100991001001999999001001HL10009IA1319IA2999-03899KA1999N-03221MD1210101+9999MW1021
0057295390999991971011806004+55667+084400FM-12+020199999V0200501N00211024001CN0200001N9-02891-03111104021ADDAY111999GF106991061001999999051001MD1810181+9999MW1031
0057295390999991971011809004+55667+084400FM-12+020199999V0202301N00211024001CN0240001N9-01891-02221103691ADDAY121999GF108991081001999999071999MD1710211+9999MW1021
0092295390999991971011812004+55667+084400FM-12+020199999V0201801N00621024001CN0290001N9-01501-01781103381ADDAA106001091AA299000391AY171999GF108991081001999999021999KA1999M-01501MD1710271+9999MW1711
0057295390999991971011815004+55667+084400FM-12+020199999V0201801N00871004501CN0300001N9-01001-01391102961ADDAY171999GF108991081031004501999999MD1710361+9999MW1021
0057295390999991971011818004+55667+084400FM-12+020199999V0201801N00821220001CN0300001N9-00891-01281102691ADDAY171999GF100991001001999999001001MD1710251+9999MW1361
0062295390999991971011821004+55667+084400FM-12+020199999V0202101N01181004501CN0300001N9-00781-01221102571ADDAY131999GF108991999031004501999061MW1561EQDQ01+000082SCOTLC
0092295390999991971011903004+55667+084400FM-12+020199999V0202301N00871004201CN0200001N9-00781-01001100032ADDAY171999GA1081+004209099GF108991081091004501999999MD1310051+9999MW1361EQDQ01+100033APOSLP
0108295390999991971011906004+55667+084400FM-12+020199999V0202201N01181003601CN0080001N9-00721-00891100091ADDAY181999GA1091+003609999GF109991091091004501999999MD1210061+9999MW1861EQDQ01+000082SCOTCVQ02+000082SCOTLC
0076295390999991971011909004+55667+084400FM-12+020199999V0202301N00981024001CN0100001N9-00611-00891102512ADDAY181999GF108991081001999999071999MD1810071+9999MW1361EQDQ01+102513APOSLP
0092295390999991971011912004+55667+084400FM-12+020199999V0202301N00821024001CN0120001N9-00721-00891102601ADDAA106001091AA299000391AY131999GF108991081001999999071999KA1999M-00611MD1310081+9999MW1361
0057295390999991971011918004+55667+084400FM-12+020199999V0202301N00821004501CN0190001N9-00611-00781102661ADDAY181999GF108991081091004501999999MD1210021+9999MW1851
0073295390999991971011921004+55667+084400FM-12+020199999V0202301N00411003901CN0150001N9-00721-00781102651ADDAY181999GA1081+003909099GF108991081091004501999999MD1810021+9999MW1851
0117295390999991971012000004+55667+084400FM-12+020199999V0202301N00411030001CN0170001N9-00781-00891102641ADDAA106002091AA299000591AY181999GF107991041091004501071001HL10009IA1319IA2999-00899KA1999N-00781MD1710021+9999MW1851
0057295390999991971012003004+55667+084400FM-12+020199999V0202301N00311024001CN0180001N9-00781-00891102571ADDAY181999GF108991081001999999021999MD1710071+9999MW1711
0057295390999991971012006004+55667+084400FM-12+020199999V0202001N00101024001CN0120001N9-00721-00891102491ADDAY171999GF108991081001999999021999MD1710071+9999MW1731
0057295390999991971012009004+55667+084400FM-12+020199999V0202001N00311024001CN0120001N9-00611-00721102321ADDAY171999GF108991081001999999021999MD1710161+9999MW1731
0092295390999991971012012004+55667+084400FM-12+020199999V0202001N00101024001CN0300001N9-00721-00891102291ADDAA106004091AA299001091AY171999GF108991081001999999021999KA1999M-00611MD1710041+9999MW1221
0057295390999991971012015004+55667+084400FM-12+020199999V0202301N00311024001CN0300001N9-00721-01221102191ADDAY121999GF108991081001999999021999MD1310081+9999MW1021
0057295390999991971012018004+55667+084400FM-12+020199999V0202301N00211024001CN0200001N9-00891-01001102161ADDAY171999GF108991081001999999011999MD1810051+9999MW1711
0057295390999991971012021004+55667+084400FM-12+020199999V0202001N00411024001CN0160001N9-00891-01001102161ADDAY171999GF108991081001999999021999MD1410001+9999MW1711
0117295390999991971012100004+55667+084400FM-12+020199999V0202301N00411024001CN0280001N9-00891-01111102191ADDAA106002091AA299000591AY171999GF107991071001999999031001HL10009IA1319IA2999-01119KA1999N-01001MD1810011+9999MW1221
0057295390999991971012106004+55667+084400FM-12+020199999V0202301N00621220001CN0150001N9-00781-01001102181ADDAY171999GF103991031071004501001001MD1210021+9999MW1221
0092295390999991971012112004+55667+084400FM-12+020199999V0202301N00821024001CN0170001N9-00891-01111102351ADDAA106075091AA224999999AY131999GF108991081001999999021999KA1999M-00721MD1210101+9999MW1361
0057295390999991971012118004+55667+084400FM-12+020199999V0202501N00721220001CN0170001N9-01111-01281102751ADDAY171999GF108991001001999999021999MD1210241+9999MW1711
0117295390999991971012200004+55667+084400FM-12+020199999V0202301N00511024001CN0170001N9-01111-01221103101ADDAA106002091AA299000591AY171999GF108991081001999999021999HL10009IA1319IA2999-01899KA1999N-01221MD1210141+9999MW1711
0057295390999991971012203004+55667+084400FM-12+020199999V0202301N00411024001CN0190001N9-01111-01221103291ADDAY171999GF108991081001999999021999MD1810191+9999MW1711
0057295390999991971012206004+55667+084400FM-12+020199999V0202301N00211024001CN0220001N9-01001-01221103211ADDAY171999GF106991061001999999051001MD1710071+9999MW1221
0057295390999991971012209004+55667+084400FM-12+020199999V0202301N00511030001CN0190001N9-01001-01221103211ADDAY121999GF106991021091004501071001MD1410001+9999MW1021
0092295390999991971012212004+55667+084400FM-12+020199999V0202001N00411021001CN0260001N9-00891-01001103111ADDAA106075091AA224999999AY121999GF108991081001022501071999KA1999M-00781MD1710091+9999MW1021
0057295390999991971012215004+55667+084400FM-12+020199999V0202301N00821004501CN0070001N9-00781-00891103061ADDAY181999GF108991081031004501999999MD1710051+9999MW1851
0057295390999991971012218004+55667+084400FM-12+020199999V0202301N00721004501CN0120001N9-00781-00891102901ADDAY181999GF108991081031004501999999MD1710091+9999MW1851
0057295390999991971012221004+55667+084400FM-12+020199999V0202301N00821004501CN0090001N9-00781-00891102821ADDAY181999GF108991081031004501999999MD1710081+9999MW1851
0117295390999991971012300004+55667+084400FM-12+020199999V0202301N00821004501CN0080001N9-00781-00891102811ADDAA106004091AA299001091AY181999GF108991061031004501021999HL10009IA1319IA2999-01009KA1999N-00891MD1710011+9999MW1851
0108295390999991971012303004+55667+084400FM-12+020199999V0202301N00311012001CN0060001N9-00781-00891102951ADDAY181999GA1091+012009019GF109991091091004501999999MD1310141+9999MW1851EQDQ01+000082SCOTCVQ02+000082SCOTLC
0108295390999991971012306004+55667+084400FM-12+020199999V0202301N00311012001CN0060001N9-00781-00891102951ADDAY181999GA1091+012009019GF109991091091004501999999MD1310141+9999MW1851EQDQ01+000082SCOTCVQ02+000082SCOTLC
0057295390999991971012309004+55667+084400FM-12+020199999V0202501N00311030001CN0150001N9-00781-00891103271ADDAY181999GF106991021091004501031021MD1210181+9999MW1011
0092295390999991971012312004+55667+084400FM-12+020199999V0202301N00621024001CN0190001N9-00891-01111103411ADDAA106004091AA299001091AY181999GF107991071001999999031001KA1999M-00781MD1210121+9999MW1021
0057295390999991971012315004+55667+084400FM-12+020199999V0202301N00411024001CN0160001N9-00891-01111103561ADDAY121999GF108991081001999999051071MD1210151+9999MW1021
0057295390999991971012318004+55667+084400FM-12+020199999V0202501N00411030001CN0120001N9-00891-01111103631ADDAY181999GF108991041091004501071999MD1210021+9999MW1851
0073295390999991971012321004+55667+084400FM-12+020199999V0202301N00511004201CN0140001N9-01001-01111103651ADDAY181999GA1081+004209099GF108991081091004501999999MD1210011+9999MW1851
0133295390999991971012400004+55667+084400FM-12+020199999V0202301N00211004201CN0130001N9-01111-01221103701ADDAA106002091AA299000591AY181999GA1081+004209099GF108991081091004501999999HL10009IA1319IA2999-01229KA1999N-01111MD1210041+9999MW1851
0057295390999991971012403004+55667+084400FM-12+020199999V0202301N00101024001CN0220001N9-01111-01221103691ADDAY181999GF108991081001999999021999MD1710011+9999MW1021
0073295390999991971012406004+55667+084400FM-12+020199999V0202301N00511006001CN0150001N9-01001-01221103641ADDAY171999GA1071+006009059GF107991071051008001001001MD1710041+9999MW1711
0057295390999991971012409004+55667+084400FM-12+020199999V0202301N00211024001CN0270001N9-01001-01281103601ADDAY171999GF107991061001999999051011MD1710041+9999MW1021
0092295390999991971012412004+55667+084400FM-12+020199999V0202001N00101220001CN0080001N9-01391-01611103651ADDAA106001091AA299000391AY171999GF100991001001999999001001KA1999M-01001MD1310011+9999MW1101
0057295390999991971012418004+55667+084400FM-12+020199999V0202301N00621024001CN0110001N9-01221-01391103511ADDAY111999GF108991081001999999021999MD1710081+9999MW1031
0073295390999991971012503004+55667+084400FM-12+020199999V0202301N00721005401CN0270001N9-01281-01501103521ADDAY171999GA1081+005409059GF108991081051004501999999MD1510071+9999MW1361
0057295390999991971012506004+55667+084400FM-12+020199999V0202301N00721220001CN0120001N9-01221-01501103581ADDAY171999GF100991001001999999001001MD1810071+9999MW1361
0057295390999991971012509004+55667+084400FM-12+020199999V0202301N00721024001CN0270001N9-01281-01611103611ADDAY131999GF107991071001999999051001MD1210021+9999MW1361
0092295390999991971012512004+55667+084400FM-12+020199999V0202301N00621024001CN0070001N9-01221-01391103651ADDAA106075091AA224999999AY131999GF108991081001999999071999KA1999M-01111MD1210021+9999MW1361
0057295390999991971012515004+55667+084400FM-12+020199999V0202001N00721024001CN0200001N9-01221-01391103621ADDAY131999GF108991081001999999021999MD1410001+9999MW1361
0057295390999991971012518004+55667+084400FM-12+020199999V0202001N00721024001CN0270001N9-01221-01391103561ADDAY131999GF108991081001999999021999MD1710061+9999MW1361
0057295390999991971012521004+55667+084400FM-12+020199999V0202001N00721024001CN0220001N9-01281-01501103511ADDAY131999GF108991081001999999021999MD1710061+9999MW1361
0057295390999991971012600004+55667+084400FM-12+020199999V0202001N00721024001CN0220001N9-01281-01501103511ADDAY131999GF108991081001999999021999MD1710061+9999MW1361
0057295390999991971012603004+55667+084400FM-12+020199999V0202301N00621220001CN0220001N9-01281-01501103411ADDAY171999GF108991021001999999041011MD1410001+9999MW1221
0057295390999991971012606004+55667+084400FM-12+020199999V0202301N00821030001CN0200001N9-01111-01391103291ADDAY181999GF108991011091004501091999MD1710091+9999MW1361
0057295390999991971012609004+55667+084400FM-12+020199999V0202301N00721220001CN0240001N9-01001-01281103211ADDAY131999GF108991021091004501001011MD1710071+9999MW1361
0092295390999991971012612004+55667+084400FM-12+020199999V0202301N00721075001CN0300001N9-01001-01221103171ADDAA106075091AA224999999AY131999GF108991021001999999041021KA1999M-00891MD1710041+9999MW1361
0057295390999991971012615004+55667+084400FM-12+020199999V0209991C99999220001CN0250001N9-00891-01221103031ADDAY131999GF108991001001999999001021MD1710131+9999MW1361
0057295390999991971012618004+55667+084400FM-12+020199999V0202001N00721220001CN0060001N9-00891-01001103001ADDAY131999GF108991001001999999021999MD1710031+9999MW1711
0057295390999991971012621004+55667+084400FM-12+020199999V0202001N00621024001CN0100001N9-00891-01001102991ADDAY171999GF108991081001999999021999MD1710011+9999MW1711
0117295390999991971012700004+55667+084400FM-12+020199999V0202001N00311024001CN0040001N9-00891-01001102951ADDAA106004091AA299001091AY171999GF108991081001999999021999HL10009IA1319IA2999-01289KA1999N-01001MD1710041+9999MW1711
0057295390999991971012703004+55667+084400FM-12+020199999V0202301N00411024001CN0120001N9-00891-01001102991ADDAY171999GF108991081001999999021999MD1310041+9999MW1711
0057295390999991971012706004+55667+084400FM-12+020199999V0202301N00311030001CN0090001N9-00891-01001102991ADDAY181999GF107991031091004501031001MD1210011+9999MW1851
0057295390999991971012709004+55667+084400FM-12+020199999V0202001N00211030001CN0210001N9-00781-00891102991ADDAY181999GF107991031051008001031001MD1410001+9999MW1021
0092295390999991971012712004+55667+084400FM-12+020199999V0202001N00101024001CN0240001N9-00781-00891103091ADDAA106002091AA299000591AY181999GF108991081001999999071999KA1999M-00781MD1310101+9999MW1021
0073295390999991971012718004+55667+084400FM-12+020199999V0202301N00101004201CN0280001N9-00721-00891103091ADDAY181999GA1081+004209099GF108991081091004501999999MD1210011+9999MW1021
0133295390999991971012800004+55667+084400FM-12+020199999V0202301N00101004801CN0300001N9-00781-00891103191ADDAA106075091AA224999999AY181999GA1081+004809099GF108991081091004501999999HL10009IA1319IA2999-01009KA1999N-00781MD1210091+9999MW1261
0057295390999991971012803004+55667+084400FM-12+020199999V0202301N00411024001CN0210001N9-00781-01001103251ADDAY121999GF108991081001999999021999MD1210061+9999MW1021
0076295390999991971012806004+55667+084400FM-12+020199999V0202301N00411024001CN0210001N9-00781-01001103261ADDAY121999GF108991999001999999011001MD1210011+9999MW1021EQDQ01+000072SCOTLC
0057295390999991971012809004+55667+084400FM-12+020199999V0202301N00211220001CN0210001N9-00781-01111103261ADDAY121999GF108991001001999999001011MD1410001+9999MW1021
0081295390999991971012812004+55667+084400FM-12+020199999V0202301N00411024001CN0300001N9-01001-01221103461ADDAA199000091AY121999GF107991071001999999011001KA1999M-00721MD1210051+9999MW1021
0057295390999991971012815004+55667+084400FM-12+020199999V0202301N00101220001CN0290001N9-01001-01221103341ADDAY111999GF100991001001999999001001MD1410001+9999MW1011
0073295390999991971012818004+55667+084400FM-12+020199999V0202301N00411004501CN0180001N9-01001-01111103321ADDAY111999GA1081+004509099GF108991081091004501999999MD1810021+9999MW1031
0084295390999991971012821004+55667+084400FM-12+020199999V0202301N00411015001CN0110001N9+99999+99999103321ADDAA106999999AA299390091AY181999GF199999081081017501061999MW1851EQDQ01  99982PRCP06
0133295390999991971012900004+55667+084400FM-12+020199999V0202301N00411004801CN0130001N9-01001-01221103171ADDAA106002091AA299000591AY181999GA1081+004809099GF108991081091004501999999HL10009IA1319IA2999-01619KA1999N-01221MD1710031+9999MW1851
0057295390999991971012903004+55667+084400FM-12+020199999V0202301N00511024001CN0100001N9-01001-01221103131ADDAY181999GF108991081001999999021999MD1710041+9999MW1711
0057295390999991971012906004+55667+084400FM-12+020199999V0202301N00621030001CN0120001N9-01001-01221103121ADDAY171999GF108991031071004501021999MD1710021+9999MW1711
0057295390999991971012909004+55667+084400FM-12+020199999V0202301N00721024001CN0140001N9-00891-01221103121ADDAY171999GF108991081001999999021999MD1310011+9999MW1711
0092295390999991971012912004+55667+084400FM-12+020199999V0202301N00511024001CN0250001N9-00891-01111103121ADDAA106001091AA299000391AY171999GF108991081001999999071999KA1999M-00891MD1410001+9999MW1361
0057295390999991971012915004+55667+084400FM-12+020199999V0202301N00311024001CN0300001N9-01001-01221103091ADDAY131999GF108991081001999999021999MD1710031+9999MW1021
0057295390999991971012918004+55667+084400FM-12+020199999V0202301N00311024001CN0300001N9-01001-01221103091ADDAY131999GF108991081001999999021999MD1410001+9999MW1021
0117295390999991971013000004+55667+084400FM-12+020199999V0202301N00511024001CN0300001N9-01001-01111103081ADDAA106001091AA299000391AY171999GF108991081001999999021999HL10009IA1319IA2999-01119KA1999N-01001MD1710011+9999MW1221
0057295390999991971013006004+55667+084400FM-12+020199999V0202501N00211024001CN0120001N9-00781-01111103141ADDAY171999GF108991081001999999071999MD1810041+9999MW1711
0057295390999991971013009004+55667+084400FM-12+020199999V0202601N002119999999N0170001N9-00781-01111103191ADDAY171999GF108991081001999999071999MD1310051+9999MW1021
0092295390999991971013012004+55667+084400FM-12+020199999V0202701N00101024001CN0110001N9-01001-01221103371ADDAA106075091AA224999999AY171999GF108991081001999999071999KA1999M-00781MD1210151+9999MW1021
0057295390999991971013015004+55667+084400FM-12+020199999V0209991C00001024001CN0110001N9-01111-01111103381ADDAY121999GF108991081001999999071999MD1410001+9999MW1021
0106295390999991971013100004+55667+084400FM-12+020199999V0209991C00001000151CN0005001N9-01781-01891103581ADDAA199000091AY141999GF109991091999000251999999HL10009IA1319IA2999-02229KA1999N-01891MD1210061+9999MW1491
0073295390999991971013103004+55667+084400FM-12+020199999V0209991C00001003001CN0009001N9-01781-01891103681ADDAY141999GA1091+003009999GF109991091999000251999999MD1210101+9999MW1491
0057295390999991971013106004+55667+084400FM-12+020199999V0209991C00001220001CN0030001N9-01501-01891103691ADDAY141999GF100991001001999999001001MD1210041+9999MW1101
0057295390999991971013109004+55667+084400FM-12+020199999V0209991C00001220001CN0032001N9-01281-01611103721ADDAY101999GF102991001001999999001011MD1210051+9999MW1101
0081295390999991971013112004+55667+084400FM-12+020199999V0209991C00001220001CN0027001N9-01611-01721103891ADDAA199000091AY101999GF101991001001999999001011KA1999M-01221MD1210131+9999MW1101
0057295390999991971013118004+55667+084400FM-12+020199999V0209991C00001000151CN0001001N9-02001-02111104091ADDAY141999GF109991091999000251999999MD1210051+9999MW1491
0057295390999991971013121004+55667+084400FM-12+020199999V0209991C00001000151CN0001001N9-02221-02281104191ADDAY141999GF109991091999000251999999MD1210081+9999MW1491
0106295390999991971020100004+55667+084400FM-12+020199999V0209991C00001000151CN0002001N9-02001-02111104191ADDAA199000091AY141999GF109991091999000251999999HL10009IA1319IA2999-02619KA1999N-02221MD1210021+9999MW1491
0057295390999991971020103004+55667+084400FM-12+020199999V0209991C00001000151CN0002001N9-02111-02221104261ADDAY141999GF109991091999000251999999MD1210071+9999MW1491
0043295390999991971020106004+55667+084400FM-12+020199999V0209991C00001220001CN0030001N9-01611-02221104281ADDAY141999GF100991001001999999001001MW1101
0057295390999991971020109004+55667+084400FM-12+020199999V0209991C00001220001CN0060001N9-01501-01611104311ADDAY101999GF100991001001999999001001MD1210041+9999MW1101
0081295390999991971020112004+55667+084400FM-12+020199999V0209991C00001220001CN0080001N9-01891-02001104501ADDAA199000091AY111999GF106991001001999999001011KA1999M-01391MD1210131+9999MW1101
0057295390999991971020115004+55667+084400FM-12+020199999V0209991C00001220001CN0021001N9-01781-01891104541ADDAY141999GF108991001001999999001071MD1210051+9999MW1101
0057295390999991971020118004+55667+084400FM-12+020199999V0209991C00001000151CN0001001N9-01781-01891104601ADDAY141999GF109991091999000251999999MD1210061+9999MW1491
0106295390999991971020200004+55667+084400FM-12+020199999V0209991C00001000151CN0002001N9-01501-01611104631ADDAA199000091AY141999GF109991091999000251999999HL10009IA1319IA2999-02729KA1999N-02001MD1210011+9999MW1491
0057295390999991971020206004+55667+084400FM-12+020199999V0209991C00001024001CN0019001N9-01001-01111104621ADDAY141999GF107991071001999999031001MD1810021+9999MW1101
0057295390999991971020209004+55667+084400FM-12+020199999V0209991C00001220001CN0060001N9-01001-01111104451ADDAY111999GF103991031001999999031001MD1710171+9999MW1101
0081295390999991971020212004+55667+084400FM-12+020199999V0209991C00001024001CN0050001N9-01111-01221104571ADDAA199000091AY111999GF106991061001999999071001KA1999M-01001MD1210121+9999MW1101
0057295390999991971020215004+55667+084400FM-12+020199999V0209991C00001024001CN0048001N9-01001-01111104521ADDAY121999GF108991081001999999071999MD1710051+9999MW1101
0117295390999991971020300004+55667+084400FM-12+020199999V0209991C00001024001CN0170001N9-01281-01391104351ADDAA106002091AA299000591AY121999GF199999081001999999021999HL10009IA1319IA2999-01619KA1999N-01391MD1810111+9999MW1171
0057295390999991971020303004+55667+084400FM-12+020199999V0209991C00001024001CN0100001N9-01391-01501104451ADDAY171999GF108991081001999999071999MD1310121+9999MW1711
0057295390999991971020306004+55667+084400FM-12+020199999V0209991C00001220001CN0150001N9-01221-01281104241ADDAY171999GF105991001001999999001011MD1810231+9999MW1021
0057295390999991971020309004+55667+084400FM-12+020199999V0209991C00001220001CN0200001N9-01111-01281104171ADDAY101999GF100991001001999999001001MD1710061+9999MW1021
0092295390999991971020312004+55667+084400FM-12+020199999V0209991C00001220001CN0150001N9-01501-01501104121ADDAA106075091AA224999999AY101999GF100991001001999999001001KA1999M-01111MD1710081+9999MW1021
0057295390999991971020315004+55667+084400FM-12+020199999V0200201N00311220001CN0300001N9-01891-02221104261ADDAY101999GF100991001001999999001001MD1110041+9999MW1021
0057295390999991971020318004+55667+084400FM-12+020199999V0200201N00211220001CN0300001N9-02221-02281104351ADDAY101999GF100991001001999999001001MD1210101+9999MW1021
0057295390999991971020321004+55667+084400FM-12+020199999V0200201N00311220001CN0350001N9-02501-02721104441ADDAY101999GF100991001001999999001001MD1210061+9999MW1021
0106295390999991971020400004+55667+084400FM-12+020199999V0200201N00211220001CN0350001N9-02721-02891104521ADDAA199000091AY101999GF100991001001999999001001HL10009IA1319IA2999-03119KA1999N-02721MD1210041+9999MW1021
0057295390999991971020403004+55667+084400FM-12+020199999V0209991C00001220001CN0120001N9-02891-03111104611ADDAY101999GF100991001001999999001001MD1210071+9999MW1021
0057295390999991971020406004+55667+084400FM-12+020199999V0209991C00001220001CN0140001N9-02501-02721104351ADDAY101999GF100991001001999999001001MD1810031+9999MW1021
0057295390999991971020409004+55667+084400FM-12+020199999V0209991C00001220001CN0210001N9-02501-02501104531ADDAY101999GF100991001001999999001001MD1310021+9999MW1021
0081295390999991971020412004+55667+084400FM-12+020199999V0209991C00001220001CN0090001N9-02501-02721104521ADDAA199000091AY101999GF102991001001999999001021KA1999M-02281MD1810031+9999MW1101
0057295390999991971020418004+55667+084400FM-12+020199999V0209991C00001220001CN0250001N9-01781-03001104341ADDAY121999GF108991001001999999001071MD1710121+9999MW1021
0106295390999991971020500004+55667+084400FM-12+020199999V0209991C00001024001CN0120001N9-02721-02891104051ADDAA199000091AY121999GF108991081001999999031999HL10009IA1319IA2999-03119KA1999N-02781MD1710141+9999MW1021
0057295390999991971020503004+55667+084400FM-12+020199999V0209991C00001220001CN0050001N9-02611-02781103931ADDAY111999GF102991001001999999001011MD1710101+9999MW1101
0057295390999991971020506004+55667+084400FM-12+020199999V0200901N00211220001CN0070001N9-02221-02391103691ADDAY111999GF106991001001999999001021MD1710191+9999MW1101
0057295390999991971020509004+55667+084400FM-12+020199999V0200701N00211220001CN0080001N9-02221-02501103561ADDAY121999GF104991001001999999001021MD1710131+9999MW1101
0081295390999991971020512004+55667+084400FM-12+020199999V0200501N00211024001CN0050001N9-02281-02501103541ADDAA199000091AY121999GF108991081001999999071999KA1999M-02221MD1710031+9999MW1101
0076295390999991971020515004+55667+084400FM-12+020199999V0200201N00101015001CN0046001N9-02001-02501103421ADDAY171999GF108991999081017501011001MD1710171+9999MW1711EQDQ01+000082SCOTLC
0057295390999991971020518004+55667+084400FM-12+020199999V0200201N00211024001CN0080001N9-02611-02781103301ADDAY171999GF107991071001999999031001MD1710191+9999MW1221
0057295390999991971020521004+55667+084400FM-12+020199999V0200201N00101220001CN0130001N9-02781-03001103141ADDAY111999GF100991001001999999001001MD1710091+9999MW1011
0117295390999991971020600004+55667+084400FM-12+020199999V0209991C00001220001CN0120001N9-02891-03111103051ADDAA106028091AA299007091AY111999GF100991001001999999001001HL10009IA1319IA2999-03619KA1999N-02891MD1710101+9999MW1021
0057295390999991971020606004+55667+084400FM-12+020199999V0209991C00001220001CN0080001N9-02781-03001102891ADDAY111999GF107991001001999999001021MD1710081+9999MW1101
0057295390999991971020609004+55667+084400FM-12+020199999V0209991C00001220001CN0500001N9-02501-02781102831ADDAY121999GF107991001001999999001021MD1710031+9999MW1021
0076295390999991971020615004+55667+084400FM-12+020199999V0200501N00101024001CN0200001N9-02391-02501102541ADDAY121999GF108991999001999999051001MD1210071+9999MW1101EQDQ01+000072SCOTLC
0057295390999991971020618004+55667+084400FM-12+020199999V0200501N00211024001CN0040001N9-02221-02391102341ADDAY121999GF108991081001999999071999MD1710161+9999MW1711
0057295390999991971020621004+55667+084400FM-12+020199999V0200501N00101024001CN0090001N9-02001-02111102151ADDAY171999GF108991081001999999011999MD1710171+9999MW1711
0117295390999991971020700004+55667+084400FM-12+020199999V0200501N00211220001CN0070001N9-02001-02111102071ADDAA106002091AA299000591AY171999GF103991001001999999001021HL10009IA1319IA2999-02509KA1999N-02611MD1710081+9999MW1101
0057295390999991971020703004+55667+084400FM-12+020199999V0200501N00211024001CN0170001N9-01891-02001102051ADDAY121999GF108991081001999999071999MD1710011+9999MW1021
0057295390999991971020706004+55667+084400FM-12+020199999V0200501N00211220001CN0200001N9-01501-01721101731ADDAY121999GF108991001001999999001021MD1710261+9999MW1021
0057295390999991971020709004+55667+084400FM-12+020199999V0209991C00001024001CN0220001N9-01281-01611101681ADDAY121999GF108991051001999999011011MD1710041+9999MW1021
0081295390999991971020712004+55667+084400FM-12+020199999V0209991C00001024001CN0200001N9-01391-01501101861ADDAA199000091AY121999GF106991061001999999011001KA1999M-01281MD1310161+9999MW1021
0057295390999991971020715004+55667+084400FM-12+020199999V0209991C00001220001CN0180001N9-01611-01721102011ADDAY121999GF107991001001999999001011MD1210031+9999MW1021
0057295390999991971020718004+55667+084400FM-12+020199999V0209991C000019999999N0150001N9-01781-01891102021ADDAY121999GF106991041001999999999999MD1210091+9999MW1021
0057295390999991971020721004+55667+084400FM-12+020199999V0209991C00001024001CN0150001N9-01611-01721102061ADDAY121999GF107991071001999999071001MD1210061+9999MW1021
0117295390999991971020800004+55667+084400FM-12+020199999V0209991C00001024001CN0120001N9-01281-01391102111ADDAA106075091AA224999999AY171999GF108991081001999999021999HL10009IA1319IA2999-02399KA1999N-01781MD1210061+9999MW1221
0057295390999991971020806004+55667+084400FM-12+020199999V0209991C00001030001CN0500001N9-00781-01001102111ADDAY181999GF107991031091004501031001MD1210041+9999MW1021
0057295390999991971020809004+55667+084400FM-12+020199999V0209991C00001220001CN0500001N9-00611-01001102191ADDAY111999GF103991031001999999031001MD1210091+9999MW1011
0108295390999991971020812004+55667+084400FM-12+020199999V0209991C00001007501CN0280001N9-00611-00891102301ADDAA106075091AA224999999AY111999GA1081+007509059GF108991081051008001999999KA1999M-00501MD1210101+9999MW1031
0057295390999991971020815004+55667+084400FM-12+020199999V0209991C00001220001CN0200001N9-00721-00891102331ADDAY111999GF100991001001999999001001MD1210021+9999MW1011
0057295390999991971020818004+55667+084400FM-12+020199999V0209991C00001220001CN0024001N9-00891-01001102451ADDAY111999GF100991001001999999001001MD1210101+9999MW1101
0057295390999991971020821004+55667+084400FM-12+020199999V0209991C00001220001CN0021001N9-01281-01391102491ADDAY141999GF100991001001999999001001MD1410001+9999MW1101
0057295390999991971020903004+55667+084400FM-12+020199999V0209991C00001220001CN0008001N9-01501-01611102481ADDAY141999GF100991001001999999001001MD1810041+9999MW1481
0057295390999991971020906004+55667+084400FM-12+020199999V0203601N00101220001CN0050001N9-01001-01001102341ADDAY141999GF100991001001999999001001MD1710091+9999MW1101
0057295390999991971020909004+55667+084400FM-12+020199999V0200201N00211220001CN0090001N9-00611-00721102231ADDAY111999GF105991001001999999001021MD1710061+9999MW1101
0111295390999991971020912004+55667+084400FM-12+020199999V0200501N00411220001CN0170001N9-00501-00781102261ADDAA106999999AA299300091AY111999GF107991001001999999001021KA1999M-00501MD1310031+9999MW1021EQDQ01  99982PRCP06
0057295390999991971020915004+55667+084400FM-12+020199999V0200501N00411220001CN0190001N9-00891-01001102261ADDAY121999GF106991001001999999001021MD1810031+9999MW1021
0057295390999991971020918004+55667+084400FM-12+020199999V0200501N00411220001CN0220001N9-01001-01221102221ADDAY111999GF103991001001999999001011MD1710041+9999MW1011
0057295390999991971020921004+55667+084400FM-12+020199999V0200501N00211220001CN0280001N9-01111-01221102251ADDAY101999GF102991001001999999001011MD1310021+9999MW1021
0106295390999991971021000004+55667+084400FM-12+020199999V0200501N00211220001CN0260001N9-01391-01501102311ADDAA199000091AY101999GF102991001001999999001011HL10009IA1319IA2999-01789KA1999N-01391MD1210021+9999MW1021
0057295390999991971021003004+55667+084400FM-12+020199999V0200501N00101220001CN0500001N9-01501-01611102391ADDAY101999GF102991001001999999001011MD1210061+9999MW1021
0057295390999991971021006004+55667+084400FM-12+020199999V0200901N00101220001CN0250001N9-01221-01501102431ADDAY111999GF107991001001999999001011MD1210081+9999MW1021
0057295390999991971021009004+55667+084400FM-12+020199999V0202701N00311024001CN0150001N9-00781-01111102601ADDAY121999GF108991081001999999071999MD1210201+9999MW1031
0081295390999991971021012004+55667+084400FM-12+020199999V0202701N00721024001CN0200001N9-00611-00891102851ADDAA199000091AY121999GF108991081001999999021999KA1999M-00611MD1210261+9999MW1021
0057295390999991971021015004+55667+084400FM-12+020199999V0202301N00511024001CN0170001N9-00891-01391103111ADDAY121999GF108991081001999999011999MD1210231+9999MW1021
0057295390999991971021018004+55667+084400FM-12+020199999V0202301N00621220001CN0150001N9-01281-01611103231ADDAY121999GF108991001001999999001071MD1210091+9999MW1021
0057295390999991971021021004+55667+084400FM-12+020199999V0202301N00211220001CN0150001N9-01781-01891103271ADDAY111999GF100991001001999999001001MD1810021+9999MW1011
0106295390999991971021100004+55667+084400FM-12+020199999V0202301N00101220001CN0090001N9-01781-01891103171ADDAA199000091AY111999GF100991001001999999001001HL10009IA1319IA2999-02619KA1999N-01891MD1710101+9999MW1101
0057295390999991971021103004+55667+084400FM-12+020199999V0209991C00001220001CN0090001N9-01891-02001103141ADDAY101999GF100991001001999999001001MD1710041+9999MW1101
0057295390999991971021106004+55667+084400FM-12+020199999V0201801N00511220001CN0200001N9-01391-01611102951ADDAY101999GF104991001001999999001011MD1710131+9999MW1021
0057295390999991971021109004+55667+084400FM-12+020199999V0201601N00311024001CN0250001N9-01221-01501102751ADDAY111999GF107991071001999999051001MD1710171+9999MW1021
0081295390999991971021112004+55667+084400FM-12+020199999V0201601N00311024001CN0300001N9-01221-01391102531ADDAA199000091AY111999GF108991081001999999021999KA1999M-01111MD1710221+9999MW1021
0057295390999991971021115004+55667+084400FM-12+020199999V0201801N00411024001CN0200001N9-01221-01391102361ADDAY171999GF108991081001999999011999MD1710171+9999MW1711
0057295390999991971021118004+55667+084400FM-12+020199999V0209991C00001220001CN0250001N9-01391-01501102221ADDAY171999GF108991001001999999001071MD1710151+9999MW1221
0117295390999991971021200004+55667+084400FM-12+020199999V0202701N00411220001CN0140001N9-01611-01721102181ADDAA106075091AA224999999AY121999GF108991001001999999001071HL10009IA1319IA2999-02399KA1999N-01721MD1310021+9999MW1021
0057295390999991971021203004+55667+084400FM-12+020199999V0202701N00411220001CN0090001N9-02001-02111102401ADDAY121999GF106991001001999999001021MD1210161+9999MW1101
0057295390999991971021206004+55667+084400FM-12+020199999V0202901N00411220001CN0110001N9-01891-02221102531ADDAY111999GF102991001001999999001011MD1210141+9999MW1011
0057295390999991971021209004+55667+084400FM-12+020199999V0202901N00511220001CN0240001N9-01781-02111102701ADDAY101999GF100991001001999999001001MD1210181+9999MW1021
0081295390999991971021212004+55667+084400FM-12+020199999V0202501N00101220001CN0180001N9-02001-02281102891ADDAA199000091AY101999GF100991001001999999001001KA1999M-01611MD1210161+9999MW1021
0057295390999991971021215004+55667+084400FM-12+020199999V0209991C00001220001CN0300001N9-02001-02221103011ADDAY101999GF100991001001999999001001MD1210121+9999MW1221
0057295390999991971021218004+55667+084400FM-12+020199999V0209991C00001024001CN0300001N9-02281-02501103101ADDAY171999GF107991071001999999051001MD1210061+9999MW1031
0057295390999991971021221004+55667+084400FM-12+020199999V0209991C00001024001CN0200001N9-02221-02391103251ADDAY171999GF108991081001999999021999MD1210161+9999MW1711
0117295390999991971021300004+55667+084400FM-12+020199999V0209991C00001024001CN0170001N9-02221-02391103331ADDAA106001091AA299000391AY171999GF107991071001999999071001HL10009IA1319IA2999-02899KA1999N-02391MD1210081+9999MW1711
0057295390999991971021303004+55667+084400FM-12+020199999V0209991C00001220001CN0080001N9-02501-02721103601ADDAY171999GF101991011001999999041001MD1210221+9999MW1101
0057295390999991971021306004+55667+084400FM-12+020199999V0209991C00001220001CN0080001N9-02001-02281103631ADDAY171999GF100991001001999999001001MD1210091+9999MW1101
0057295390999991971021309004+55667+084400FM-12+020199999V0209991C00001220001CN0170001N9-01781-02391103661ADDAY101999GF100991001001999999001001MD1210051+9999MW1021
0057295390999991971021312004+55667+084400FM-12+020199999V0209991C00001220001CN0200001N9-02001-02281103751ADDAY101999GF100991001001999999001001MD1210071+9999MW1021
0057295390999991971021315004+55667+084400FM-12+020199999V0209991C00001220001CN0180001N9-02281-02501103771ADDAY101999GF100991001001999999001001MD1810011+9999MW1021
0057295390999991971021318004+55667+084400FM-12+020199999V0209991C00001220001CN0060001N9-02611-02781103671ADDAY101999GF100991001001999999001001MD1710141+9999MW1101
0076295390999991971021321004+55667+084400FM-12+020199999V0209991C00001220001CN0050001N9-02721-02891103621ADDAY101999GF100991001001999999001001MD1710051+9999MW1101EQDQ01+000002APC3  
0106295390999991971021400004+55667+084400FM-12+020199999V0209991C00001220001CN0050001N9-02781-03001103441ADDAA199000091AY101999GF100991001001999999001001HL10009IA1319IA2999-03619KA1999N-02781MD1710181+9999MW1101
0057295390999991971021403004+55667+084400FM-12+020199999V0209991C00001220001CN0080001N9-02781-03001103381ADDAY101999GF100991001001999999001001MD1710061+9999MW1101
0057295390999991971021406004+55667+084400FM-12+020199999V0203401N00311220001CN0090001N9-02001-02221103301ADDAY101999GF100991001001999999001001MD1310011+9999MW1101
0057295390999991971021409004+55667+084400FM-12+020199999V0203401N00211220001CN0200001N9-01611-02111103271ADDAY101999GF100991001001999999001001MD1210011+9999MW1021
0081295390999991971021412004+55667+084400FM-12+020199999V0203201N00311220001CN0170001N9-01891-02281103371ADDAA199000091AY101999GF100991001001999999001001KA1999M-01611MD1210071+9999MW1021
0057295390999991971021415004+55667+084400FM-12+020199999V0203201N00211220001CN0350001N9-02221-02501103561ADDAY101999GF100991001001999999001001MD1210151+9999MW1021
0057295390999991971021418004+55667+084400FM-12+020199999V0203201N00101220001CN0350001N9-02391-02611103681ADDAY101999GF100991001001999999001001MD1210091+9999MW1021
0057295390999991971021421004+55667+084400FM-12+020199999V0203201N00101220001CN0350001N9-02501-02721103741ADDAY101999GF100991001001999999001001MD1210051+9999MW1021
0106295390999991971021500004+55667+084400FM-12+020199999V0203201N00101220001CN0290001N9-02781-03001103751ADDAA199000091AY101999GF100991001001999999001001HL10009IA1319IA2999-03399KA1999N-02781MD1810021+9999MW1021
0057295390999991971021503004+55667+084400FM-12+020199999V0203201N00101220001CN0060001N9-02781-03001103791ADDAY101999GF100991001001999999001001MD1310041+9999MW1101
0057295390999991971021506004+55667+084400FM-12+020199999V0209991C00001220001CN0180001N9-02391-02721103691ADDAY101999GF100991001001999999001001MD1810061+9999MW1021
0057295390999991971021509004+55667+084400FM-12+020199999V0203201N00211024001CN0200001N9-02221-02501103561ADDAY101999GF106991061001999999011001MD1710101+9999MW1021
0116295390999991971021512004+55667+084400FM-12+020199999V0203201N00211024001CN0220001N9-02391-02611103591ADDAA199000091AY121999GF106991061001999999011001KA1999M-02001MD1210031+9999MW1021EQDQ01+000062APCTENQ02+000002APC3  
0057295390999991971021515004+55667+084400FM-12+020199999V0200501N00311024001CN0300001N9-02281-02611103441ADDAY121999GF107991071001999999011001MD1710141+9999MW1021
0057295390999991971021518004+55667+084400FM-12+020199999V0200501N00311220001CN0300001N9-02391-02721103391ADDAY111999GF100991001001999999001001MD1710041+9999MW1021
0057295390999991971021521004+55667+084400FM-12+020199999V0200501N00311220001CN0300001N9-02391-02721103381ADDAY111999GF108991001001999999001071MD1710011+9999MW1021
0106295390999991971021600004+55667+084400FM-12+020199999V0200501N00101220001CN0300001N9-02501-02721103301ADDAA199000091AY111999GF107991001001999999001081HL10009IA1319IA2999-02899KA1999N-02501MD1710091+9999MW1021
0057295390999991971021603004+55667+084400FM-12+020199999V0200501N00101075001CN0500001N9-02611-02891103251ADDAY121999GF106991031001999999041021MD1710061+9999MW1021
0057295390999991971021606004+55667+084400FM-12+020199999V0201601N00101024001CN0500001N9-02111-02501103191ADDAY121999GF105991051001999999031001MD1710011+9999MW1021
0057295390999991971021609004+55667+084400FM-12+020199999V0202501N00101220001CN0500001N9-01611-02221103101ADDAY111999GF100991001001999999001001MD1710041+9999MW1011
0081295390999991971021612004+55667+084400FM-12+020199999V0209991C00001220001CN0180001N9-01891-02391103081ADDAA199000091AY111999GF100991001001999999001001KA1999M-01501MD1710051+9999MW1021
0057295390999991971021615004+55667+084400FM-12+020199999V0209991C00001220001CN0150001N9-02111-02391103061ADDAY101999GF100991001001999999001001MD1710041+9999MW1021
0057295390999991971021618004+55667+084400FM-12+020199999V0209991C00001220001CN0170001N9-02221-02391102971ADDAY101999GF100991001001999999001001MD1710101+9999MW1021
0106295390999991971021700004+55667+084400FM-12+020199999V0209991C00001220001CN0150001N9-02501-02721102741ADDAA199000091AY101999GF100991001001999999001001HL10009IA1319IA2999-03399KA1999N-02781MD1710161+9999MW1021
0057295390999991971021703004+55667+084400FM-12+020199999V0200501N00101220001CN0080001N9-02611-02781102661ADDAY101999GF100991001001999999001001MD1710081+9999MW1101
0057295390999991971021706004+55667+084400FM-12+020199999V0200501N00101220001CN0090001N9-02001-02281102401ADDAY101999GF101991001001999999001011MD1710201+9999MW1101
0057295390999991971021709004+55667+084400FM-12+020199999V0200501N00511220001CN0130001N9-01721-02001102121ADDAY111999GF105991001001999999001021MD1710231+9999MW1031
0092295390999991971021712004+55667+084400FM-12+020199999V0200901N00411024001CN0018001N9-01501-01611101861ADDAA106091091AA299023091AY171999GF108991081001999999021999KA1999M-01501MD1710241+9999MW1711
0057295390999991971021715004+55667+084400FM-12+020199999V0209991C00001024001CN0021001N9-01391-01501101591ADDAY171999GF108991081001999999021999MD1710251+9999MW1711
0057295390999991971021718004+55667+084400FM-12+020199999V0201401N00101024001CN0024001N9-01281-01391101391ADDAY171999GF108991081001999999021999MD1710191+9999MW1711
0057295390999991971021721004+55667+084400FM-12+020199999V0209991C00001220001CN0080001N9-01221-01281101201ADDAY171999GF100991001001999999001001MD1710131+9999MW1101
0117295390999991971021800004+55667+084400FM-12+020199999V0209991C00001220001CN0170001N9-01281-01391100931ADDAA106004091AA299001091AY171999GF108991001001999999001071HL10009IA1319IA2999-01789KA1999N-01501MD1710281+9999MW1031
0057295390999991971021803004+55667+084400FM-12+020199999V0209991C00001024001CN0120001N9-01111-01221100591ADDAY171999GF108991081001999999021999MD1710301+9999MW1711
0057295390999991971021806004+55667+084400FM-12+020199999V0209991C00001220001CN0180001N9-00891-01111100331ADDAY171999GF106991001001999999001011MD1710341+9999MW1221
0057295390999991971021809004+55667+084400FM-12+020199999V0202001N00621024001CN0170001N9-00721-00891100131ADDAY171999GF108991081001999999021999MD1710171+9999MW1711
0092295390999991971021812004+55667+084400FM-12+020199999V0202501N00621220001CN0200001N9-01391-01891100241ADDAA106002091AA299000591AY171999GF108991001001999999001011KA1999M-00611MD1310041+9999MW1021
0057295390999991971021815004+55667+084400FM-12+020199999V0202301N00621024001CN0170001N9-01781-02111100541ADDAY121999GF108991081001999999021999MD1210251+9999MW1021
0057295390999991971021818004+55667+084400FM-12+020199999V0202301N00871220001CN0150001N9-02221-02501100821ADDAY131999GF108991001001999999001071MD1210241+9999MW1361
0087295390999991971021900004+55667+084400FM-12+020199999V0202301N01181220001CN0130001N9-02281-02611101271ADDAA199000091AY131999GF108991001001999999001071IA1319KA1999N-02281MD1210261+9999MW1361
0057295390999991971021906004+55667+084400FM-12+020199999V0202301N01181220001CN0250001N9-02391-02721101641ADDAY131999GF108991001001999999001071MD1210171+9999MW1361
0057295390999991971021909004+55667+084400FM-12+020199999V0202301N01181220001CN0250001N9-02391-02891101871ADDAY131999GF107991001001999999001021MD1210221+9999MW1361
0081295390999991971021912004+55667+084400FM-12+020199999V0202301N00511220001CN0090001N9-02501-02781102081ADDAA199000091AY131999GF107991001001999999001021KA1999M-02281MD1210181+9999MW1101
0057295390999991971021918004+55667+084400FM-12+020199999V0202301N00211220001CN0300001N9-03001-03221102361ADDAY101999GF100991001001999999001001MD1210181+9999MW1021
0106295390999991971022000004+55667+084400FM-12+020199999V0202301N00311220001CN0350001N9-03391-03611102601ADDAA199000091AY101999GF100991001001999999001001HL10009IA1319IA2999-03899KA1999N-03391MD1210131+9999MW1021
0076295390999991971022003004+55667+084400FM-12+020199999V0202501N00511220001CN0140001N9-03391-03721102791ADDAY101999GF100991001001999999001001MD1210191+9999MW1021EQDQ01+000592APC3  
0057295390999991971022006004+55667+084400FM-12+020199999V0202501N00621220001CN0500001N9-03281-03721103031ADDAY101999GF102991001001999999001011MD1710241+9999MW1021
0057295390999991971022009004+55667+084400FM-12+020199999V0202301N00621220001CN0500001N9-03221-03721103261ADDAY111999GF105991001001999999001021MD1210241+9999MW1031
0081295390999991971022012004+55667+084400FM-12+020199999V0202501N00311220001CN0500001N9-03281-03721103491ADDAA199000091AY111999GF100991001001999999001001KA1999M-03111MD1210221+9999MW1011
0057295390999991971022015004+55667+084400FM-12+020199999V0209991C00001220001CN0300001N9-03611-03891103741ADDAY101999GF100991001001999999001001MD1210201+9999MW1021
0057295390999991971022018004+55667+084400FM-12+020199999V0209991C00001220001CN0300001N9-03721-04001103831ADDAY101999GF100991001001999999001001MD1210081+9999MW1021
0057295390999991971022021004+55667+084400FM-12+020199999V0209991C00001220001CN0080001N9-03721-04001103911ADDAY101999GF100991001001999999001001MD1210081+9999MW1001
0106295390999991971022100004+55667+084400FM-12+020199999V0209991C00001220001CN0300001N9-03721-04001104021ADDAA199000091AY101999GF100991001001999999001001HL10009IA1319IA2999-04619KA1999N-03781MD1210111+9999MW1021
0057295390999991971022103004+55667+084400FM-12+020199999V0209991C00001220001CN0150001N9-03781-04111104161ADDAY101999GF100991001001999999001001MD1210111+9999MW1021
0043295390999991971022106004+55667+084400FM-12+020199999V0209991C00001220001CN0210001N9-03391-03721104041ADDAY101999GF100991001001999999001001MW1021
0057295390999991971022109004+55667+084400FM-12+020199999V0200901N00101220001CN0260001N9-02891-03281103961ADDAY101999GF100991001001999999001001MD1710021+9999MW1021
0081295390999991971022112004+55667+084400FM-12+020199999V0200901N00101220001CN0500001N9-03001-03391104021ADDAA199000091AY101999GF100991001001999999001001KA1999M-02781MD1310041+9999MW1021
0057295390999991971022115004+55667+084400FM-12+020199999V0200901N00101220001CN0170001N9-03221-03501103961ADDAY101999GF100991001001999999001001MD1810081+9999MW1021
0057295390999991971022118004+55667+084400FM-12+020199999V0200501N00101220001CN0210001N9-03391-03721103921ADDAY101999GF100991001001999999001001MD1710061+9999MW1021
0057295390999991971022121004+55667+084400FM-12+020199999V0200501N00211220001CN0140001N9-03501-03781103881ADDAY101999GF100991001001999999001001MD1710051+9999MW1021
0087295390999991971022200004+55667+084400FM-12+020199999V0200501N00101220001CN0120001N9-03501-03781103841ADDAA199000091AY101999GF100991001001999999001001IA1319KA1999N-03501MD1710041+9999MW1021
0057295390999991971022203004+55667+084400FM-12+020199999V0200201N00101220001CN0120001N9-03391-03721103791ADDAY111999GF108991001001999999001011MD1710041+9999MW1021
0057295390999991971022206004+55667+084400FM-12+020199999V0200501N00101220001CN0200001N9-03001-03281103641ADDAY111999GF108991001001999999001071MD1710081+9999MW1021
0057295390999991971022209004+55667+084400FM-12+020199999V0200201N00101220001CN0120001N9-02721-03111103641ADDAY121999GF108991001001999999001071MD1710031+9999MW1021
0081295390999991971022212004+55667+084400FM-12+020199999V0203601N00211220001CN0130001N9-02781-03111103651ADDAA199000091AY121999GF108991001001999999001071KA1999M-02611MD1310041+9999MW1021
0057295390999991971022215004+55667+084400FM-12+020199999V0203601N00211220001CN0250001N9-03001-03221103701ADDAY121999GF108991001001999999001071MD1210031+9999MW1021
0057295390999991971022218004+55667+084400FM-12+020199999V0203601N00101220001CN0300001N9-03001-03281103651ADDAY111999GF100991001001999999001001MD1810051+9999MW1011
0057295390999991971022221004+55667+084400FM-12+020199999V0203601N00101220001CN0300001N9-03111-03281103641ADDAY101999GF100991001001999999001001MD1710031+9999MW1021
0106295390999991971022300004+55667+084400FM-12+020199999V0203601N00211220001CN0300001N9-03281-03501103631ADDAA199000091AY101999GF100991001001999999001001HL10009IA1319IA2999-03619KA1999N-03281MD1710031+9999MW1021
0057295390999991971022303004+55667+084400FM-12+020199999V0203601N00621220001CN0170001N9-03391-03721103531ADDAY101999GF100991001001999999001001MD1710101+9999MW1021
0057295390999991971022306004+55667+084400FM-12+020199999V0200201N00411220001CN0500001N9-03001-03281103541ADDAY101999GF100991001001999999001001MD1310051+9999MW1021
0057295390999991971022309004+55667+084400FM-12+020199999V0200201N00511220001CN0500001N9-02611-03111103451ADDAY101999GF100991001001999999001001MD1810051+9999MW1021
0081295390999991971022312004+55667+084400FM-12+020199999V0203601N00511220001CN0500001N9-02721-03111103561ADDAA199000091AY101999GF100991001001999999001001KA1999M-02501MD1310101+9999MW1021
0076295390999991971022315004+55667+084400FM-12+020199999V0203601N005119999999N0300001N9-02781-03221103511ADDAY101999GF199999999011999999011001MD1810011+9999MW1021EQDQ01+000002SCOTLC
0057295390999991971022318004+55667+084400FM-12+020199999V0203601N00621220001CN0300001N9-02721-03111103461ADDAY101999GF100991001001999999001001MD1710071+9999MW1021
0057295390999991971022321004+55667+084400FM-12+020199999V0203601N00511220001CN0350001N9-02891-03281103481ADDAY101999GF100991001001999999001001MD1410001+9999MW1021
0106295390999991971022400004+55667+084400FM-12+020199999V0203601N00621220001CN0350001N9-03001-03281103541ADDAA199000091AY101999GF100991001001999999001001HL10009IA1319IA2999-03509KA1999N-03001MD1310041+9999MW1021
0057295390999991971022403004+55667+084400FM-12+020199999V0200201N00411220001CN0500001N9-03001-03281103621ADDAY101999GF100991001001999999001001MD1210081+9999MW1021
0057295390999991971022406004+55667+084400FM-12+020199999V0203601N00311220001CN0500001N9-02611-03111103571ADDAY101999GF100991001001999999001001MD1810031+9999MW1021
0057295390999991971022409004+55667+084400FM-12+020199999V0203601N00311220001CN0500001N9-02281-03001103471ADDAY101999GF100991001001999999001001MD1710041+9999MW1021
0081295390999991971022412004+55667+084400FM-12+020199999V0203601N00211220001CN0500001N9-02501-03221103531ADDAA199000091AY101999GF100991001001999999001001KA1999M-02281MD1310031+9999MW1021
0057295390999991971022415004+55667+084400FM-12+020199999V0203601N00211220001CN0300001N9-02721-03221103631ADDAY101999GF100991001001999999001001MD1710081+9999MW1021
0057295390999991971022421004+55667+084400FM-12+020199999V0203601N00211220001CN0400001N9-03001-03221103501ADDAY101999GF100991001001999999001001MD1210041+9999MW1021
0106295390999991971022500004+55667+084400FM-12+020199999V0203601N00211220001CN0350001N9-03001-03221103451ADDAA199000091AY101999GF100991001001999999001001HL10009IA1319IA2999-03619KA1999N-03111MD1210051+9999MW1021
0057295390999991971022503004+55667+084400FM-12+020199999V0203601N00311220001CN0190001N9-03221-03391103481ADDAY101999GF100991001001999999001001MD1310011+9999MW1021
0057295390999991971022506004+55667+084400FM-12+020199999V0203201N00411220001CN0500001N9-02611-03001103331ADDAY101999GF100991001001999999001001MD1810081+9999MW1021
0057295390999991971022509004+55667+084400FM-12+020199999V0200501N00511220001CN0500001N9-02221-02781103211ADDAY101999GF100991001001999999001001MD1710081+9999MW1021
0081295390999991971022512004+55667+084400FM-12+020199999V0203601N00411220001CN0500001N9-02281-02891103301ADDAA199000091AY101999GF100991001001999999001001KA1999M-02111MD1310081+9999MW1021
0057295390999991971022515004+55667+084400FM-12+020199999V0200201N00311220001CN0300001N9-02001-02221103501ADDAY101999GF100991001001999999001001MD1810021+9999MW1021
0057295390999991971022518004+55667+084400FM-12+020199999V0200201N00411220001CN0350001N9-02781-03221103281ADDAY101999GF100991001001999999001001MD1710061+9999MW1021
0057295390999991971022521004+55667+084400FM-12+020199999V0203601N00411220001CN0210001N9-02891-03221103321ADDAY101999GF100991001001999999001001MD1710031+9999MW1021
0106295390999991971022600004+55667+084400FM-12+020199999V0200501N00311220001CN0350001N9-03111-03391103381ADDAA199000091AY101999GF100991001001999999001001HL10009IA1319IA2999-03399KA1999N-03111MD1210041+9999MW1021
0057295390999991971022606004+55667+084400FM-12+020199999V0200201N00511220001CN0500001N9-02611-03001103501ADDAY101999GF100991001001999999001001MD1210041+9999MW1021
0057295390999991971022609004+55667+084400FM-12+020199999V0203601N00411220001CN0500001N9-02221-02781103481ADDAY101999GF100991001001999999001001MD1210031+9999MW1021
0081295390999991971022612004+55667+084400FM-12+020199999V0203601N00411220001CN0250001N9-02281-02891103591ADDAA199000091AY101999GF100991001001999999001001KA1999M-02221MD1210101+9999MW1021
0057295390999991971022615004+55667+084400FM-12+020199999V0203601N00211220001CN0300001N9-02611-03111103751ADDAY101999GF100991001001999999001001MD1210121+9999MW1021
0057295390999991971022618004+55667+084400FM-12+020199999V0203601N00211220001CN0350001N9-02721-03111103711ADDAY101999GF100991001001999999001001MD1810051+9999MW1021
0057295390999991971022621004+55667+084400FM-12+020199999V0203601N00211220001CN0300001N9-02391-03221103841ADDAY101999GF100991001001999999001001MD1310111+9999MW1021
0106295390999991971022700004+55667+084400FM-12+020199999V0203601N00211220001CN0300001N9-03001-03221103821ADDAA199000091AY101999GF100991001001999999001001HL10009IA1319IA2999-03399KA1999N-03001MD1810031+9999MW1021
0057295390999991971022703004+55667+084400FM-12+020199999V0203401N00101220001CN0250001N9-03001-03221103891ADDAY101999GF100991001001999999001001MD1210071+9999MW1021
0057295390999991971022706004+55667+084400FM-12+020199999V0203601N00101220001CN0500001N9-02391-02891103891ADDAY101999GF100991001001999999001001MD1210061+9999MW1021
0057295390999991971022709004+55667+084400FM-12+020199999V0203401N00311220001CN0500001N9-02111-02781103841ADDAY101999GF100991001001999999001001MD1810011+9999MW1021
0057295390999991971022715004+55667+084400FM-12+020199999V0203201N00311220001CN0300001N9-02501-03001104061ADDAY101999GF100991001001999999001001MD1210071+9999MW1021
0057295390999991971022718004+55667+084400FM-12+020199999V0203201N00311220001CN0350001N9-02721-03111104091ADDAY101999GF100991001001999999001001MD1210011+9999MW1021
0106295390999991971022800004+55667+084400FM-12+020199999V0203401N00211220001CN0350001N9-02891-03221104051ADDAA199000091AY101999GF100991001001999999001001HL10009IA1319IA2999-03899KA1999N-02891MD1710021+9999MW1021
0057295390999991971022806004+55667+084400FM-12+020199999V0203601N00211220001CN0500001N9-02391-02891103951ADDAY101999GF100991001001999999001001MD1810081+9999MW1021
0057295390999991971022809004+55667+084400FM-12+020199999V0203601N00101220001CN0500001N9-02111-02781103831ADDAY101999GF100991001001999999001001MD1710081+9999MW1021
0081295390999991971022812004+55667+084400FM-12+020199999V0203601N00101220001CN0500001N9-02221-03001103891ADDAA199000091AY101999GF100991001001999999001001KA1999M-02001MD1310051+9999MW1021
0057295390999991971022815004+55667+084400FM-12+020199999V0203401N00101220001CN0300001N9-02391-03001103891ADDAY101999GF100991001001999999001001MD1710031+9999MW1021
0057295390999991971022818004+55667+084400FM-12+020199999V0203401N00101220001CN0300001N9-02611-03001103821ADDAY101999GF100991001001999999001001MD1710091+9999MW1021
0057295390999991971022821004+55667+084400FM-12+020199999V0203601N00101220001CN0300001N9-02781-03001103711ADDAY121999GF100991001001999999001001MD1710051+9999MW1021
0106295390999991971030100004+55667+084400FM-12+020199999V0203601N00101220001CN0300001N9-02781-03001103801ADDAA199000091AY101999GF100991001001999999001001HL10009IA1319IA2999-03509KA1999N-02781MD1310031+9999MW1021
0057295390999991971030103004+55667+084400FM-12+020199999V0203601N00101220001CN0190001N9-02781-03001103881ADDAY101999GF100991001001999999001001MD1210081+9999MW1021
0057295390999991971030106004+55667+084400FM-12+020199999V0203601N00311220001CN0500001N9-02221-02721103811ADDAY101999GF100991001001999999001001MD1410001+9999MW1021
0057295390999991971030109004+55667+084400FM-12+020199999V0203601N00411220001CN0500001N9-01891-02501103821ADDAY101999GF100991001001999999001001MD1210041+9999MW1081
0081295390999991971030112004+55667+084400FM-12+020199999V0203601N00411220001CN0500001N9-02111-02781103971ADDAA199000091AY101999GF100991001001999999001001KA1999M-01781MD1210111+9999MW1021
0057295390999991971030115004+55667+084400FM-12+020199999V0203601N00311220001CN0290001N9-02391-03001104061ADDAY101999GF100991001001999999001001MD1210061+9999MW1021
0057295390999991971030118004+55667+084400FM-12+020199999V0203601N00101220001CN0300001N9-02391-02891104131ADDAY101999GF100991001001999999001001MD1210071+9999MW1021
0057295390999991971030121004+55667+084400FM-12+020199999V0209991C00001220001CN0300001N9-02611-03001104181ADDAY101999GF100991001001999999001001MD1210091+9999MW1021
0106295390999991971030200004+55667+084400FM-12+020199999V0203601N00211220001CN0300001N9-02781-03111104291ADDAA199000091AY101999GF100991001001999999001001HL10009IA1319IA2999-03399KA1999N-02891MD1210091+9999MW1021
0057295390999991971030203004+55667+084400FM-12+020199999V0203401N00311220001CN0500001N9-02281-02721104471ADDAY101999GF100991001001999999001001MD1210091+9999MW1021
0057295390999991971030209004+55667+084400FM-12+020199999V0203201N00211220001CN0500001N9-02001-02721104481ADDAY101999GF100991001001999999001001MD1210041+9999MW1021
0081295390999991971030212004+55667+084400FM-12+020199999V0202701N00211220001CN0080001N9-02001-02611104631ADDAA199000091AY101999GF100991001001999999001001KA1999M-01891MD1210151+9999MW1041
0043295390999991971030215004+55667+084400FM-12+020199999V0202701N00101220001CN0200001N9-02281-02781104891ADDAY101999GF100991001001999999001001MW1021
0057295390999991971030218004+55667+084400FM-12+020199999V0202701N00101220001CN0240001N9-02391-02781104901ADDAY101999GF100991001001999999001001MD1410001+9999MW1021
0057295390999991971030221004+55667+084400FM-12+020199999V0202701N00101220001CN0300001N9-02781-03001104951ADDAY101999GF100991001001999999001001MD1210051+9999MW1021
0106295390999991971030300004+55667+084400FM-12+020199999V0202701N00101220001CN0300001N9-02891-03111999999ADDAA199000091AY101999GF100991001001999999001001HL10009IA1319IA2999-03509KA1999N-03001MD1410001+9999MW1021
0057295390999991971030303004+55667+084400FM-12+020199999V0202501N00101220001CN0080001N9-02781-03001999999ADDAY101999GF100991001001999999001001MD1210081+9999MW1041
0057295390999991971030306004+55667+084400FM-12+020199999V0202501N00311220001CN0500001N9-02221-02611999999ADDAY101999GF100991001001999999001001MD1210031+9999MW1021
0057295390999991971030309004+55667+084400FM-12+020199999V0202501N00511220001CN0500001N9-01891-02391104931ADDAY111999GF106991001001999999001011MD1710081+9999MW1031
0081295390999991971030312004+55667+084400FM-12+020199999V0202301N00101220001CN0500001N9-02001-02501104921ADDAA199000091AY111999GF106991001001999999001011KA1999M-01781MD1710021+9999MW1021
0057295390999991971030318004+55667+084400FM-12+020199999V0202301N00311220001CN0140001N9-02721-02891999999ADDAY111999GF100991001001999999001001MD1210011+9999MW1021
0057295390999991971030321004+55667+084400FM-12+020199999V0202301N00411220001CN0110001N9-02721-02891999999ADDAY101999GF100991001001999999001001MD1810041+9999MW1021
0106295390999991971030400004+55667+084400FM-12+020199999V0202301N00411220001CN0120001N9-02891-03111104981ADDAA199000091AY101999GF100991001001999999001001HL10009IA1319IA2999-03289KA1999N-02891MD1710041+9999MW1021
0057295390999991971030403004+55667+084400FM-12+020199999V0202301N00511220001CN0150001N9-02781-03001999999ADDAY101999GF100991001001999999001001MD1310031+9999MW1021
0057295390999991971030406004+55667+084400FM-12+020199999V0202301N00621220001CN0500001N9-02221-02501104891ADDAY101999GF100991001001999999001001MD1810041+9999MW1021
0057295390999991971030409004+55667+084400FM-12+020199999V0202301N00621220001CN0500001N9-02001-02501104841ADDAY101999GF100991001001999999001001MD1710031+9999MW1021
0081295390999991971030412004+55667+084400FM-12+020199999V0202301N00311220001CN0500001N9-02221-02611104811ADDAA199000091AY101999GF102991001001999999001011KA1999M-02001MD1710051+9999MW1021
0057295390999991971030418004+55667+084400FM-12+020199999V0209991C00001220001CN0300001N9-02611-02891104781ADDAY101999GF100991001001999999001001MD1710041+9999MW1021
0106295390999991971030500004+55667+084400FM-12+020199999V0209991C00001220001CN0300001N9-02891-03111104681ADDAA199000091AY101999GF100991001001999999001001HL10009IA1319IA2999-03729KA1999N-03001MD1710081+9999MW1021
0057295390999991971030503004+55667+084400FM-12+020199999V0202301N00311220001CN0090001N9-02721-02891104661ADDAY101999GF100991001001999999001001MD1410001+9999MW1101
0057295390999991971030506004+55667+084400FM-12+020199999V0202701N00411220001CN0500001N9-02111-02611104551ADDAY101999GF101991001001999999001021MD1810041+9999MW1021
0057295390999991971030509004+55667+084400FM-12+020199999V0202701N00211220001CN0500001N9-01891-02501104411ADDAY101999GF101991001001999999001011MD1710111+9999MW1021
0068295390999991971030512004+55667+084400FM-12+020199999V0202701N00101220001CN0500001N9-01891-02501104341ADDAA199000091AY101999GF101991001001999999001011MD1710071+9999MW1021
0057295390999991971030515004+55667+084400FM-12+020199999V0209991C00001220001CN0170001N9-02221-02721104311ADDAY101999GF100991001001999999001001MD1710061+9999MW1021
0057295390999991971030518004+55667+084400FM-12+020199999V0202701N00101220001CN0210001N9-02391-02781104311ADDAY101999GF100991001001999999001001MD1710021+9999MW1021
0057295390999991971030521004+55667+084400FM-12+020199999V0209991C00001220001CN0190001N9-02611-02891104361ADDAY101999GF100991001001999999001001MD1310031+9999MW1021
0106295390999991971030600004+55667+084400FM-12+020199999V0209991C00001220001CN0150001N9-02611-02891104321ADDAA199000091AY101999GF100991001001999999001001HL10009IA1319IA2999-03509KA1999N-02611MD1810041+9999MW1021
0057295390999991971030606004+55667+084400FM-12+020199999V0201701N00101220001CN0250001N9-02001-02391104331ADDAY101999GF100991001001999999001001MD1210031+9999MW1021
0057295390999991971030609004+55667+084400FM-12+020199999V0202701N00101220001CN0270001N9-01611-02281104221ADDAY101999GF100991001001999999001001MD1810061+9999MW1021
0081295390999991971030612004+55667+084400FM-12+020199999V0209991C00001220001CN0290001N9-01781-02501104221ADDAA199000091AY101999GF100991001001999999001001KA1999M-01611MD1710021+9999MW1021
0043295390999991971030615004+55667+084400FM-12+020199999V0202701N00101220001CN0160001N9-02001-02391104311ADDAY101999GF100991001001999999001001MW1021
0057295390999991971030618004+55667+084400FM-12+020199999V0209991C00001220001CN0180001N9-02391-02721104311ADDAY101999GF100991001001999999001001MD1810041+9999MW1021
0057295390999991971030621004+55667+084400FM-12+020199999V0209991C00001220001CN0150001N9-02391-02721104271ADDAY101999GF100991001001999999001001MD1710041+9999MW1021
0106295390999991971030700004+55667+084400FM-12+020199999V0209991C00001220001CN0150001N9-02611-02781104351ADDAA199000091AY101999GF100991001001999999001001HL10009IA1319IA2999-03509KA1999N-02781MD1310061+9999MW1021
0057295390999991971030703004+55667+084400FM-12+020199999V0209991C00001220001CN0500001N9-02391-02721104331ADDAY101999GF100991001001999999001001MD1410001+9999MW1021
0057295390999991971030706004+55667+084400FM-12+020199999V0202701N00101220001CN0500001N9-01611-02221104241ADDAY101999GF100991001001999999001001MD1410001+9999MW1021
0057295390999991971030709004+55667+084400FM-12+020199999V0202501N00101220001CN0500001N9-01391-02111104181ADDAY111999GF106991001001999999001011MD1710041+9999MW1021
0081295390999991971030712004+55667+084400FM-12+020199999V0209991C00001220001CN0120001N9-01501-02111104201ADDAA199000091AY111999GF106991001001999999001011KA1999M-01391MD1310011+9999MW1021
0106295390999991971030800004+55667+084400FM-12+020199999V0202301N00101220001CN0070001N9-02501-02721104441ADDAA199000091AY101999GF101991011001999999041001HL10009IA1319IA2999-03289KA1999N-02501MD1210051+9999MW1101
0057295390999991971030803004+55667+084400FM-12+020199999V0202301N00411220001CN0060001N9-02281-02501104591ADDAY101999GF102991001001999999001011MD1210161+9999MW1101
0057295390999991971030806004+55667+084400FM-12+020199999V0202501N00621220001CN0110001N9-01611-02001104551ADDAY101999GF102991001001999999001011MD1210031+9999MW1021
0057295390999991971030809004+55667+084400FM-12+020199999V0202001N00411220001CN0130001N9-01391-02001104571ADDAY101999GF100991001001999999001001MD1210041+9999MW1021
0081295390999991971030812004+55667+084400FM-12+020199999V0202301N00411220001CN0130001N9-01501-02001104621ADDAA199000091AY101999GF100991001001999999001001KA1999M-01391MD1210041+9999MW1021
0057295390999991971030815004+55667+084400FM-12+020199999V0202301N00411220001CN0280001N9-01891-02281104731ADDAY101999GF100991001001999999001001MD1210071+9999MW1021
0057295390999991971030818004+55667+084400FM-12+020199999V0202301N00411220001CN0300001N9-02001-02281104761ADDAY101999GF101991001001999999001091MD1210021+9999MW1021
0057295390999991971030821004+55667+084400FM-12+020199999V0202301N00311220001CN0300001N9-02221-02501104821ADDAY101999GF100991001001999999001001MD1210041+9999MW1021
0106295390999991971030900004+55667+084400FM-12+020199999V0202001N00311220001CN0110001N9-02281-02611104861ADDAA199000091AY101999GF101991001001999999001011HL10009IA1319IA2999-02789KA1999N-02281MD1210031+9999MW1021
0057295390999991971030906004+55667+084400FM-12+020199999V0202301N00621220001CN0190001N9-01611-01891999999ADDAY111999GF105991001001999999001011MD1210271+9999MW1031
0057295390999991971030909004+55667+084400FM-12+020199999V0202301N00621220001CN0500001N9-01221-01611999999ADDAY121999GF107991001001999999001011MD1810031+9999MW1021
0081295390999991971030912004+55667+084400FM-12+020199999V0202301N00101220001CN0500001N9-01391-01781999999ADDAA199000091AY121999GF104991001001999999001011KA1999M-01221MD1310031+9999MW1021
0057295390999991971030915004+55667+084400FM-12+020199999V0209991C00001220001CN0270001N9-01781-02221999999ADDAY111999GF100991001001999999001001MD1210021+9999MW1011
0057295390999991971030918004+55667+084400FM-12+020199999V0202301N00101220001CN0290001N9-01781-02111999999ADDAY111999GF100991001001999999001001MD1210021+9999MW1021
0057295390999991971030921004+55667+084400FM-12+020199999V0209991C00001220001CN0300001N9-02001-02281999999ADDAY101999GF100991001001999999001001MD1810031+9999MW1021
0106295390999991971031000004+55667+084400FM-12+020199999V0209991C00001220001CN0230001N9-02111-02281999999ADDAA199000091AY101999GF100991001001999999001001HL10009IA1319IA2999-03229KA1999N-02221MD1710011+9999MW1021
0057295390999991971031003004+55667+084400FM-12+020199999V0209991C00001220001CN0110001N9-02001-02281999999ADDAY101999GF101991001001999999001011MD1310011+9999MW1021
0057295390999991971031006004+55667+084400FM-12+020199999V0203401N00211220001CN0250001N9-01281-01781999999ADDAY101999GF102991001001999999001011MD1810051+9999MW1021
0057295390999991971031009004+55667+084400FM-12+020199999V0203401N00211220001CN0290001N9-01001-01611104851ADDAY101999GF102991001001999999001011MD1710121+9999MW1021
0081295390999991971031012004+55667+084400FM-12+020199999V0203401N00211220001CN0260001N9-01111-01721104731ADDAA199000091AY101999GF104991001001999999001011KA1999M-01001MD1710111+9999MW1021
0043295390999991971031015004+55667+084400FM-12+020199999V0203201N00211220001CN0240001N9-01281-02111104821ADDAY101999GF102991001001999999001011MW1021
0057295390999991971031018004+55667+084400FM-12+020199999V0209991C00001220001CN0200001N9-01501-01781104731ADDAY101999GF100991001001999999001001MD1810121+9999MW1021
0057295390999991971031021004+55667+084400FM-12+020199999V0203401N002119999999N0200001N9+99999+99999104731ADDAY101999GF199999999071000751071999MD1710041+9999MW1021
0106295390999991971031100004+55667+084400FM-12+020199999V0203601N00211220001CN0170001N9-01781-02111104681ADDAA199000091AY101999GF100991001001999999001001HL10009IA1319IA2999-02229KA1999N-01781MD1710041+9999MW1021
0057295390999991971031106004+55667+084400FM-12+020199999V0209991C00001220001CN0500001N9-00611-01891104581ADDAY101999GF100991001001999999001001MD1710031+9999MW1021
0057295390999991971031109004+55667+084400FM-12+020199999V0209991C00001220001CN0500001N9-00611-01721104361ADDAY101999GF100991001001999999001001MD1710131+9999MW1021
0081295390999991971031112004+55667+084400FM-12+020199999V0200501N00311220001CN0250001N9-00611-00891104321ADDAA199000091AY111999GF100991001001999999001001KA1999M-00501MD1710041+9999MW1021
0057295390999991971031118004+55667+084400FM-12+020199999V0203601N00411220001CN0300001N9-01281-01781104101ADDAY101999GF100991001001999999001001MD1710201+9999MW1021
0106295390999991971031200004+55667+084400FM-12+020199999V0200501N00211220001CN0300001N9-01721-02001104011ADDAA199000091AY101999GF101991001001999999001011HL10009IA1319IA2999-02399KA1999N-01781MD1310031+9999MW1021
0057295390999991971031203004+55667+084400FM-12+020199999V0200201N00211220001CN0500001N9-01501-01891103791ADDAY101999GF100991001001999999001001MD1810191+9999MW1021
0057295390999991971031206004+55667+084400FM-12+020199999V0200701N00411220001CN0500001N9-00781-01501103601ADDAY101999GF100991001001999999001001MD1710121+9999MW1021
0057295390999991971031209004+55667+084400FM-12+020199999V0200501N00311220001CN0500001N9-00281-01221103421ADDAY101999GF100991001001999999001001MD1710131+9999MW1021
0081295390999991971031212004+55667+084400FM-12+020199999V0200501N00511220001CN0500001N9-00281-01111103371ADDAA199000091AY101999GF100991001001999999001001KA1999M-00111MD1710051+9999MW1021
0057295390999991971031215004+55667+084400FM-12+020199999V0200201N00311220001CN0300001N9-00781-01611103351ADDAY101999GF100991001001999999001001MD1710071+9999MW1021
0057295390999991971031218004+55667+084400FM-12+020199999V0200501N00511220001CN0300001N9-01001-01721103331ADDAY101999GF100991001001999999001001MD1710041+9999MW1021
0043295390999991971031221004+55667+084400FM-12+020199999V0200201N00411220001CN0300001N9-01111-01721103181ADDAY101999GF100991001001999999001001MW1021
0106295390999991971031300004+55667+084400FM-12+020199999V0200201N00511220001CN0300001N9-01281-01781103221ADDAA199000091AY101999GF101991001001999999001011HL10009IA1319IA2999-02229KA1999N-01281MD1310031+9999MW1021
0057295390999991971031303004+55667+084400FM-12+020199999V0200201N00511220001CN0180001N9-01221-01721103261ADDAY101999GF101991001001999999001011MD1210041+9999MW1021
0057295390999991971031306004+55667+084400FM-12+020199999V0200501N00211220001CN0500001N9-00721-01281103171ADDAY101999GF100991001001999999001001MD1810041+9999MW1021
0057295390999991971031309004+55667+084400FM-12+020199999V0200701N00101220001CN0500001N9-00281-01111103101ADDAY101999GF100991001001999999001001MD1710031+9999MW1021
0057295390999991971031312004+55667+084400FM-12+020199999V0209991C00001220001CN0290001N9-00781-01611103121ADDAY101999GF100991001001999999001001MD1310061+9999MW1021
0057295390999991971031315004+55667+084400FM-12+020199999V0209991C00001220001CN0290001N9-00781-01611103121ADDAY101999GF100991001001999999001001MD1310061+9999MW1021
0057295390999991971031318004+55667+084400FM-12+020199999V0200501N00311220001CN0300001N9-01001-01611103171ADDAY101999GF100991001001999999001001MD1810031+9999MW1021
0057295390999991971031321004+55667+084400FM-12+020199999V0200501N00211220001CN0300001N9-01221-01721103211ADDAY101999GF100991001001999999001001MD1310021+9999MW1021
0106295390999991971031400004+55667+084400FM-12+020199999V0200501N00211220001CN0270001N9-01281-01721103291ADDAA199000091AY101999GF100991001001999999001001HL10009IA1319IA2999-02009KA1999N-01281MD1210081+9999MW1021
0057295390999991971031403004+55667+084400FM-12+020199999V0200201N00311220001CN0280001N9-01001-01391103321ADDAY101999GF100991001001999999001001MD1210041+9999MW1021
0057295390999991971031406004+55667+084400FM-12+020199999V0200501N00101220001CN0500001N9-00611-01221103171ADDAY101999GF100991001001999999001001MD1710151+9999MW1021
0057295390999991971031409004+55667+084400FM-12+020199999V0200701N00311220001CN0500001N9-00221-00891103021ADDAY101999GF100991001001999999001001MD1710121+9999MW1021
0081295390999991971031412004+55667+084400FM-12+020199999V0200201N00101220001CN0500001N9-00221-01001102881ADDAA199000091AY101999GF102991021001999999031001KA1999M+00001MD1710131+9999MW1021
0057295390999991971031415004+55667+084400FM-12+020199999V0200901N00511220001CN0300001N9-00611-01281102791ADDAY101999GF100991001001999999001001MD1710131+9999MW1021
0057295390999991971031418004+55667+084400FM-12+020199999V0200501N00411220001CN0300001N9-00891-01501102541ADDAY101999GF100991001001999999001001MD1710271+9999MW1021
0057295390999991971031421004+55667+084400FM-12+020199999V0200501N00211220001CN0300001N9-01111-01611102321ADDAY111999GF106991001001999999071091MD1710241+9999MW1031
0106295390999991971031500004+55667+084400FM-12+020199999V0200501N00211220001CN0300001N9-01001-01501102081ADDAA199000091AY111999GF103991001001999999001021HL10009IA1319IA2999-01729KA1999N-01111MD1710211+9999MW1011
0057295390999991971031506004+55667+084400FM-12+020199999V0200501N00311220001CN0500001N9-00611-01221101671ADDAY111999GF108991001001999999001021MD1710121+9999MW1021
0057295390999991971031509004+55667+084400FM-12+020199999V0200701N00311024001CN0150001N9-00391-00891101671ADDAY171999GF108991081001999999021999MD1210021+9999MW1711
0092295390999991971031512004+55667+084400FM-12+020199999V0200701N00721024001CN0120001N9-00391-00611101841ADDAA106002091AA299000591AY171999GF108991081001999999021999KA1999M-00281MD1210151+9999MW1711
0057295390999991971031515004+55667+084400FM-12+020199999V0200701N00101024001CN0200001N9-00391-00501101961ADDAY171999GF108991081001999999021999MD1210121+9999MW1711
0057295390999991971031518004+55667+084400FM-12+020199999V0202301N00411024001CN0110001N9-00391-00391102161ADDAY171999GF108991081001999999021999MD1210201+9999MW1711
0117295390999991971031600004+55667+084400FM-12+020199999V0202701N00621004501CN0100001N9-00501-00611102611ADDAA106001091AA299000391AY171999GF108991081031004501999999HL10009IA1319IA2999-00619KA1999N-00501MD1210201+9999MW1021
0073295390999991971031603004+55667+084400FM-12+020199999V0202501N00621005101CN0080001N9-00501-00721102831ADDAY121999GA1071+005109099GF107991071091004501001001MD1210211+9999MW1101
0073295390999991971031606004+55667+084400FM-12+020199999V0202001N00511006301CN0120001N9-00281-00611102711ADDAY121999GA1061+006309059GF108991081091004501999999MD1810091+9999MW1021
0092295390999991971031609004+55667+084400FM-12+020199999V0202001N00411006601CN0150001N9-00221-00501102521ADDAY121999GA1081+006609059GF108991999051008001011011MD1710181+9999MW1021EQDQ01+000082SCOTLC
0097295390999991971031612004+55667+084400FM-12+020199999V0202001N00101006301CN0140001N9-00221-00391102541ADDAA199000091AY101999GA1081+006309059GF108991081051008001999999KA1999M-00111MD1710121+9999MW1021
0073295390999991971031615004+55667+084400FM-12+020199999V0202001N00101006301CN0160001N9-00221-00281102341ADDAY111999GA1081+006309059GF108991081051008001999999MD1710201+9999MW1021
0057295390999991971031618004+55667+084400FM-12+020199999V0201401N00101024001CN0220001N9-00281-00391101911ADDAY121999GF108991081001999999021999MD1710431+9999MW1021
0057295390999991971031621004+55667+084400FM-12+020199999V0201401N00311024001CN0220001N9-00281-00391101491ADDAY121999GF108991081001999999021999MD1710411+9999MW1021
0106295390999991971031700004+55667+084400FM-12+020199999V0201401N00311024001CN0220001N9-00281-00501101491ADDAA199000091AY121999GF108991081001999999021999HL10009IA1209IA2999-00729KA1999N-00391MD1710231+9999MW1021
0057295390999991971031703004+55667+084400FM-12+020199999V0201801N00211024001CN0500001N9+00111-00391100771ADDAY121999GF108991081001999999091999MD1710121+9999MW1021
0057295390999991971031706004+55667+084400FM-12+020199999V0202301N00621220001CN0500001N9+00281-00281100751ADDAY121999GF100991001001999999001001MD1410001+9999MW1021
0057295390999991971031709004+55667+084400FM-12+020199999V0202301N00821030001CN0500001N9+00281+00001100661ADDAY121999GF108991021091004501091999MD1710091+9999MW1021
0108295390999991971031712004+55667+084400FM-12+020199999V0202301N00871002101CN0150001N9+00111+00111100631ADDAA106075091AA224999999AY151999GA1081+002109079GF108991081061002501999999KA1999M+00391MD1710041+9999MW1511
0057295390999991971031718004+55667+084400FM-12+020199999V0202301N00871004501CN0110001N9+00001-00111100731ADDAY181999GF108991081091004501999999MD1210021+9999MW1801
0057295390999991971031721004+55667+084400FM-12+020199999V0202301N00981004501CN0300001N9-00111-00391100411ADDAY181999GF108991081091004501999999MD1810311+9999MW1021
0117295390999991971031800004+55667+084400FM-12+020199999V0202001N01391024001CN0013001N9-00281-00721100391ADDAA106004091AA299001091AY181999GF108991081001999999021999HL10009IA1319IA2999-00509KA1999N-00281MD1710041+9999MW1711
0073295390999991971031803004+55667+084400FM-12+020199999V0202201N01181003301CN0020001N9-00391-00611100361ADDAY171999GA1061+003309079GF108991061071004501021999MD1710041+9999MW1711
0073295390999991971031806004+55667+084400FM-12+020199999V0202301N01181003301CN0015001N9-00391-00611100331ADDAY171999GA1071+003309099GF107991071031004501001001MD1710031+9999MW1851
0073295390999991971031809004+55667+084400FM-12+020199999V0202301N01181003301CN0010001N9-00281-00501100391ADDAY181999GA1051+003309079GF107991071031004501001001MD1710071+9999MW1851
0108295390999991971031812004+55667+084400FM-12+020199999V0202301N00621004201CN0050001N9-00391-00611100671ADDAA106004091AA299001091AY181999GA1071+004209099GF107991071031004501001001KA1999M-00281MD1210271+9999MW1381
0057295390999991971031815004+55667+084400FM-12+020199999V0202301N00821004501CN0050001N9-00611-00891101231ADDAY181999GF108991081091004501999999MD1210521+9999MW1861
0057295390999991971031818004+55667+084400FM-12+020199999V0202301N00621220001CN0300001N9-00891-01281101711ADDAY181999GF100991001001999999001001MD1210451+9999MW1261
0057295390999991971031821004+55667+084400FM-12+020199999V0202301N00621220001CN0300001N9-00891-01221101921ADDAY101999GF104991041091004501001001MD1210201+9999MW1021
0133295390999991971031900004+55667+084400FM-12+020199999V0202301N00621003901CN0060001N9-01001-01221102011ADDAA106004091AA299001091AY111999GA1051+003909099GF107991051091004501051001HL10009IA1319IA2999-01119KA1999N-01001MD1210081+9999MW1851
0057295390999991971031903004+55667+084400FM-12+020199999V0202501N00511030001CN0010001N9-00891-01001102111ADDAY171999GF107991031071004501071001MD1210111+9999MW1751
0057295390999991971031906004+55667+084400FM-12+020199999V0202501N00621004501CN0170001N9-00611-01001102161ADDAY171999GF105991051011004501001001MD1210081+9999MW1361
0057295390999991971031909004+55667+084400FM-12+020199999V0202301N00721220001CN0500001N9-00501-00891102171ADDAY131999GF103991031011004501001001MD1210021+9999MW1021
0092295390999991971031912004+55667+084400FM-12+020199999V0202301N00511024001CN0500001N9-00611-00721102261ADDAA106001091AA299000391AY121999GF108991081001999999021999KA1999M-00501MD1210081+9999MW1021
0057295390999991971031918004+55667+084400FM-12+020199999V0202301N00511024001CN0120001N9-00611-00721102381ADDAY171999GF108991081001999999021999MD1210031+9999MW1731
0117295390999991971032000004+55667+084400FM-12+020199999V0202501N00311030001CN0140001N9-00611-00721102481ADDAA106004091AA299001091AY171999GF108991031071004501021999HL10009IA1319IA2999-01119KA1999N-00891MD1210061+9999MW1711
0057295390999991971032003004+55667+084400FM-12+020199999V0202301N00211030001CN0110001N9-00721-00891102481ADDAY181999GF106991021091004501031001MD1810011+9999MW1261
0057295390999991971032006004+55667+084400FM-12+020199999V0202301N00621024001CN0090001N9-00501-00721102631ADDAY181999GF105991051001999999031001MD1310171+9999MW1101
0057295390999991971032009004+55667+084400FM-12+020199999V0202301N00621004501CN0080001N9-00391-00611102541ADDAY121999GF108991081071004501001001MD1810081+9999MW1101
0057295390999991971032015004+55667+084400FM-12+020199999V0202001N00311024001CN0090001N9-00501-00721102371ADDAY121999GF108991081001999999021999MD1710161+9999MW1101
0057295390999991971032018004+55667+084400FM-12+020199999V0202001N00311024001CN0300001N9-00721-00891102231ADDAY121999GF108991081001999999021999MD1710141+9999MW1021
0057295390999991971032021004+55667+084400FM-12+020199999V0202301N00511024001CN0300001N9-00781-00891102021ADDAY121999GF108991081001999999021999MD1710221+9999MW1021
0106295390999991971032100004+55667+084400FM-12+020199999V0202001N00511024001CN0300001N9-00721-00781101811ADDAA199000091AY121999GF108991081001999999021999HL10009IA1319IA2999-01009KA1999N-00781MD1710201+9999MW1021
0057295390999991971032106004+55667+084400FM-12+020199999V0202301N00621024001CN0500001N9-00281-01001101131ADDAY121999GF108991081001999999011999MD1710301+9999MW1021
0081295390999991971032112004+55667+084400FM-12+020199999V0202301N00621220001CN0500001N9-00221-01001100881ADDAA199000091AY111999GF101991011001999999051001KA1999M+00001MD1310021+9999MW1011
0057295390999991971032115004+55667+084400FM-12+020199999V0202501N00311220001CN0290001N9-00501-00891101031ADDAY101999GF100991001001999999001001MD1210121+9999MW1021
0057295390999991971032118004+55667+084400FM-12+020199999V0202501N00311220001CN0300001N9-00721-00891101211ADDAY101999GF100991001001999999001001MD1210161+9999MW1021
0106295390999991971032200004+55667+084400FM-12+020199999V0202001N00511220001CN0150001N9-01001-01001101311ADDAA199000091AY101999GF102991021001999999041011HL10009IA1209IA2999-01399KA1999N-01001MD1810051+9999MW1031
0057295390999991971032203004+55667+084400FM-12+020199999V0202301N00721024001CN0150001N9-00721-00781101131ADDAY111999GF105991051001999999031001MD1710141+9999MW1021
0057295390999991971032206004+55667+084400FM-12+020199999V0202301N00721024001CN0230001N9-00281-00721100971ADDAY121999GF105991051001999999031001MD1710121+9999MW1021
0057295390999991971032209004+55667+084400FM-12+020199999V0202301N00821220001CN0270001N9+00001-00611100831ADDAY121999GF106991001001999999001091MD1710121+9999MW1021
0081295390999991971032212004+55667+084400FM-12+020199999V0202301N00821220001CN0230001N9-00111-00721100811ADDAA199000091AY111999GF101991001001999999001011KA1999M+00001MD1710021+9999MW1021
0057295390999991971032215004+55667+084400FM-12+020199999V0202301N00821220001CN0300001N9-00281-00721100851ADDAY101999GF100991001001999999001001MD1310021+9999MW1011
0057295390999991971032218004+55667+084400FM-12+020199999V0202301N00411220001CN0300001N9-00501-00891100831ADDAY101999GF100991001001999999001001MD1810041+9999MW1021
0106295390999991971032300004+55667+084400FM-12+020199999V0209991C00001220001CN0170001N9-00891-01781100641ADDAA199000091AY111999GF107991001001999999001021HL10009IA1209IA2999-01509KA1999N-00891MD1710191+9999MW1031
0057295390999991971032303004+55667+084400FM-12+020199999V0202301N00101024001CN0250001N9-00721-01111100601ADDAY121999GF108991081001999999011999MD1710031+9999MW1021
0057295390999991971032306004+55667+084400FM-12+020199999V0202501N00101220001CN0500001N9-00221-00721100621ADDAY121999GF108991001001999999001071MD1310071+9999MW1021
0057295390999991971032309004+55667+084400FM-12+020199999V0202501N00101024001CN0500001N9-00111-00721100741ADDAY121999GF108991081001999999011999MD1210121+9999MW1021
0092295390999991971032312004+55667+084400FM-12+020199999V0202501N00101024001CN0060001N9-00221-00281101041ADDAA106075091AA224999999AY111999GF108991081001999999021999KA1999M+00001MD1210291+9999MW1571
0043295390999991971032315004+55667+084400FM-12+020199999V0202701N00311024001CN0060001N9-00221-00221101321ADDAY171999GF108991081001999999021999MW1711
0057295390999991971032318004+55667+084400FM-12+020199999V0202701N00411030001CN0050001N9-00281-00391101531ADDAY171999GF108991041071004501021999MD1210201+9999MW1731
