0117295480999991971010100004+55617+086417FM-12+999999999V0209991C00001220001CN0100001N9-02221-02501103781ADDAA106001091AA299000391AY171999GF108991001001999999001021HL10009IA1319IA2999-02399KA1999N-02221MD1810021+9999MW1711
0057295480999991971010103004+55617+086417FM-12+999999999V0209991C000019999999N0100001N9-02281-02611103811ADDAY171999GF108991021001022501041021MD1310021+9999MW1711
0057295480999991971010106004+55617+086417FM-12+999999999V0209991C00001220001CN0200001N9-02111-02391103871ADDAY171999GF101991011001022501041001MD1310081+9999MW1011
0057295480999991971010109004+55617+086417FM-12+999999999V0209991C00001220001CN0200001N9-01781-02111103751ADDAY101999GF101991011001022501041061MD1810081+9999MW1021
0092295480999991971010112004+55617+086417FM-12+999999999V0209991C00001220001CN0100001N9-02111-02501103821ADDAA106001091AA299000391AY101999GF100991001001999999001001KA1999M-01781MD1310021+9999MW1021
0057295480999991971010115004+55617+086417FM-12+999999999V0209991C00001220001CN0100001N9-02501-02781103791ADDAY101999GF100991001001999999001001MD1810061+9999MW1021
0057295480999991971010118004+55617+086417FM-12+999999999V0209991C00001220001CN0100001N9-02501-02781103781ADDAY171999GF106991001001999999001021MD1610011+9999MW1711
0117295480999991971010200004+55617+086417FM-12+999999999V0209991C00001220001CN0100001N9-01891-02221103541ADDAA106075091AA224999999AY171999GF101991001001999999001021HL10009IA1319IA2999-03119KA1999N-02721MD1310071+9999MW1021
0057295480999991971010206004+55617+086417FM-12+999999999V0201801N00621075001CN0200001N9-01221-01611103291ADDAY111999GF107991031051008001001021MD1710141+9999MW1021
0057295480999991971010209004+55617+086417FM-12+999999999V0201801N00311007801CN0200001N9-01001-01391103071ADDAY121999GF107991071051008001001001MD1710201+9999MW1021
0081295480999991971010212004+55617+086417FM-12+999999999V0201801N00821007801CN0100001N9-01001-01281102931ADDAA199000091AY131999GF108991081051008001999999KA1999M-01001MD1710131+9999MW1361
0057295480999991971010215004+55617+086417FM-12+999999999V0202001N01181007801CN0100001N9-00891-01111102771ADDAY131999GF108991081051008001999999MD1710141+9999MW1711
0076295480999991971010218004+55617+086417FM-12+999999999V0201801N01181001501CN0020001N9-00781-00891102471ADDAY171999GF108991999071001501011999MD1810281+9999MW1731EQDQ01+000082SCOTLC
0076295480999991971010221004+55617+086417FM-12+999999999V0201801N01181004501CN0020001N9-00611-00721102221ADDAY171999GF108991999071004501021091MD1710231+9999MW1731EQDQ01+000082SCOTLC
0136295480999991971010300004+55617+086417FM-12+999999999V0201801N01181004501CN0100001N9-00391-00611102051ADDAA106028091AA299007091AY171999GF108991999071004501021999HL10009IA1319IA2999-01229KA1999N-01001MD1610141+9999MW1381EQDQ01+000082SCOTLC
0076295480999991971010303004+55617+086417FM-12+999999999V0201801N01181004501CN0040001N9-00501-00721101961ADDAY171999GF108991999071004501021999MD1710101+9999MW1711EQDQ01+000082SCOTLC
0057295480999991971010306004+55617+086417FM-12+999999999V0201801N01591030001CN0200001N9-00501-00891101651ADDAY171999GF107991031051008001041021MD1810301+9999MW1381
0057295480999991971010309004+55617+086417FM-12+999999999V0201801N01591007801CN0200001N9-00281-00891101331ADDAY131999GF107991071051008001041001MD1710301+9999MW1381
0092295480999991971010312004+55617+086417FM-12+999999999V0201801N01591007801CN0040001N9-00391-00611101251ADDAA106002091AA299000591AY131999GF108991081051008001999999KA1999M-00221MD1610081+9999MW1711
0057295480999991971010318004+55617+086417FM-12+999999999V0201801N02011007801CN0100001N9-00281-00721100811ADDAY171999GF108991081051008001999999MD1710101+9999MW1391
0106295480999991971010400004+55617+086417FM-12+999999999V0201801N01591007801CN0100001N9-00281-01111100771ADDAA199000091AY131999GF108991081051008001999999HL10009IA1209IA2999-01899KA1999N-00501MD1610081+9999MW1381
0057295480999991971010403004+55617+086417FM-12+999999999V0202301N01181030001CN0200001N9-00891-01611101091ADDAY131999GF107991041051008001041011MD1310281+9999MW1381
0057295480999991971010406004+55617+086417FM-12+999999999V0201801N01181220001CN0200001N9-01001-01391101331ADDAY131999GF107991031081008001001011MD1210231+9999MW1711
0057295480999991971010409004+55617+086417FM-12+999999999V0202301N01181007801CN0200001N9-00891-01391101451ADDAY171999GF108991051051008001001021MD1110121+9999MW1711
0092295480999991971010412004+55617+086417FM-12+999999999V0202301N00311220001CN0100001N9-01111-01501101621ADDAA106001091AA299000391AY171999GF108991001001999999001021KA1999M-00501MD1210141+9999MW1021
0057295480999991971010418004+55617+086417FM-12+999999999V0202301N00311021001CN0100001N9-01281-01611102231ADDAY171999GF108991081001022501021999MD1210331+9999MW1711
0057295480999991971010421004+55617+086417FM-12+999999999V0202701N00511220001CN0100001N9-01501-01781102651ADDAY171999GF108991001001999999001021MD1210391+9999MW1711
0117295480999991971010500004+55617+086417FM-12+999999999V0202701N00311220001CN0100001N9-01891-02221103201ADDAA106004091AA299001091AY171999GF108991001001999999001021HL10009IA1319IA2999-02229KA1999N-01891MD1210501+9999MW1761
0057295480999991971010503004+55617+086417FM-12+999999999V0202301N00311007801CN0100001N9-02001-02281103701ADDAY171999GF107991071051008001001001MD1210471+9999MW1771
0057295480999991971010506004+55617+086417FM-12+999999999V0202301N00721220001CN0200001N9-01721-02001103831ADDAY171999GF106991001001999999001011MD1110151+9999MW1361
0057295480999991971010509004+55617+086417FM-12+999999999V0202001N00871220001CN0200001N9-01611-02111103951ADDAY171999GF105991001001999999001011MD1210131+9999MW1361
0092295480999991971010512004+55617+086417FM-12+999999999V0201801N00871220001CN0100001N9-01781-02221104111ADDAA106075091AA224999999AY131999GF103991001001999999001011KA1999M-01611MD1210141+9999MW1361
0057295480999991971010518004+55617+086417FM-12+999999999V0201801N00871220001CN0100001N9-01721-02111103731ADDAY131999GF108991001001999999001071MD1810281+9999MW1361
0057295480999991971010521004+55617+086417FM-12+999999999V0201801N01181220001CN0100001N9-01611-02111103241ADDAY131999GF108991001001999999001071MD1810491+9999MW1381
0082295480999991971010600004+55617+086417FM-12+999999999V0201801N011819999999N0100001N9-01281-02001102521ADDAY131999GF108991021001022501041021HL10009IA1319IA2999-02229MD1010691+9999MW1381
0057295480999991971010603004+55617+086417FM-12+999999999V0201801N01181021001CN0200001N9-01111-01781102031ADDAY131999GF108991081001022501071999MD1710461+9999MW1381
0057295480999991971010606004+55617+086417FM-12+999999999V0201801N01181021001CN0040001N9-01001-01611101881ADDAY131999GF108991081001022501021999MD1610131+9999MW1711
0076295480999991971010609004+55617+086417FM-12+999999999V0201801N00871004501CN0020001N9-01001-01221101881ADDAY171999GF108991999071004501021999MD1410001+9999MW1731EQDQ01+000082SCOTLC
0092295480999991971010612004+55617+086417FM-12+999999999V0201801N00411007801CN0040001N9-01001-01281102011ADDAA106016091AA299004091AY171999GF107991071051008001001001KA1999M-01001MD1310121+9999MW1711
0057295480999991971010618004+55617+086417FM-12+999999999V0202301N00211007801CN0100001N9-01001-01221102231ADDAY171999GF108991081051008001999999MD1110061+9999MW1711
0057295480999991971010621004+55617+086417FM-12+999999999V0202301N00311007801CN0100001N9-01001-01111102321ADDAY171999GF108991081051008001999999MD1210091+9999MW1711
0057295480999991971010703004+55617+086417FM-12+999999999V0202301N00311007801CN0040001N9-01111-01221102291ADDAY171999GF108991081051008001999999MD1810041+9999MW1711
0057295480999991971010706004+55617+086417FM-12+999999999V0202301N00411030001CN0040001N9-01001-01221102161ADDAY171999GF108991041071004501021999MD1810121+9999MW1711
0057295480999991971010709004+55617+086417FM-12+999999999V0202301N01181004501CN0040001N9-00891-01111101811ADDAY171999GF108991061071004501021999MD1810321+9999MW1711
0111295480999991971010712004+55617+086417FM-12+999999999V0202301N01181004501CN0040001N9-00781-01001101361ADDAA106002091AA299000591AY171999GF108991999071004501021999KA1999M-00781MD1710451+9999MW1711EQDQ01+000082SCOTLC
0092295480999991971010718004+55617+086417FM-12+999999999V0202301N01591004501CN0010001N9-00721-00891100462ADDAY171999GF108991999071004501021999MD1710391+9999MW1731EQDQ01+000082SCOTLCQ02+100463APOSLP
0076295480999991971010721004+55617+086417FM-12+999999999V0202301N01181004501CN0020001N9-00891-01221100581ADDAY171999GF108991999071004501021999MD1310091+9999MW1731EQDQ01+000082SCOTLC
0136295480999991971010800004+55617+086417FM-12+999999999V0202301N00821004501CN0040001N9-01111-01391100861ADDAA106031091AA299008091AY171999GF108991999071004501021999HL10009IA1319IA2999-01229KA1999N-01111MD1310261+9999MW1711EQDQ01+000082SCOTLC
0057295480999991971010803004+55617+086417FM-12+999999999V0202301N00821007801CN0040001N9-01281-01611101351ADDAY171999GF108991081091008001999999MD1310461+9999MW1851
0057295480999991971010806004+55617+086417FM-12+999999999V0202301N00721075001CN0040001N9-01501-01781101701ADDAY171999GF108991031081008001001071MD1210311+9999MW1851
0043295480999991971010809004+55617+086417FM-12+999999999V0202301N00821220001CN0200001N9-01501-02001101911ADDAY181999GF101991011001022501041001MW1361
0092295480999991971010812004+55617+086417FM-12+999999999V0202301N00211220001CN0100001N9-01891-02221102151ADDAA106002091AA299000591AY181999GF105991001999999999001011KA1999M-01111MD1210201+9999MW1021
0057295480999991971010815004+55617+086417FM-12+999999999V0202001N00511220001CN0100001N9-01891-02221102001ADDAY171999GF108991001001999999001071MD1810161+9999MW1781
0057295480999991971010818004+55617+086417FM-12+999999999V0202301N00311004501CN0040001N9-02001-02281101861ADDAY171999GF108991081061004501999999MD1710141+9999MW1771
0057295480999991971010821004+55617+086417FM-12+999999999V0202301N00411004501CN0040001N9-01891-02221101751ADDAY171999GF108991081061004501999999MD1710091+9999MW1771
0117295480999991971010900004+55617+086417FM-12+999999999V0202001N00511220001CN0040001N9-02221-02501101921ADDAA106002091AA299000591AY171999GF108991001001999999001021HL10009IA1319IA2999-02399KA1999N-02221MD1310131+9999MW1771
0057295480999991971010903004+55617+086417FM-12+999999999V0202001N00511220001CN0040001N9-02391-02721102241ADDAY171999GF108991001001999999001021MD1310301+9999MW1711
0057295480999991971010906004+55617+086417FM-12+999999999V0202301N00411021001CN0020001N9-02281-02611102401ADDAY171999GF108991081001022501011999MD1110161+9999MW1731
0092295480999991971010912004+55617+086417FM-12+999999999V0202001N00411220001CN0100001N9-02111-02391102331ADDAA106004091AA299001091AY171999GF108991001001999999001071KA1999M-02001MD1710021+9999MW1711
0057295480999991971010915004+55617+086417FM-12+999999999V0202001N00311220001CN0100001N9-02221-02501102321ADDAY171999GF108991001001999999001071MD1710021+9999MW1711
0057295480999991971010918004+55617+086417FM-12+999999999V0202301N00211220001CN0100001N9-02221-02501102181ADDAY171999GF108991001001999999001071MD1810141+9999MW1021
0057295480999991971010921004+55617+086417FM-12+999999999V0202301N00311220001CN0100001N9-02001-02281102111ADDAY121999GF108991001001999999001071MD1610051+9999MW1021
0117295480999991971011000004+55617+086417FM-12+999999999V0209991C00001021001CN0100001N9-02001-02281102001ADDAA106001091AA299000391AY171999GF108991081001022501021999HL10009IA1319IA2999-02789KA1999N-02221MD1810111+9999MW1711
0057295480999991971011003004+55617+086417FM-12+999999999V0202301N00621030001CN0040001N9-01611-01891101871ADDAY171999GF108991021051008001011999MD1710081+9999MW1711
0057295480999991971011006004+55617+086417FM-12+999999999V0202001N00821021001CN0040001N9-01501-01781101681ADDAY171999GF108991081001022501011999MD1810171+9999MW1711
0057295480999991971011009004+55617+086417FM-12+999999999V0202001N00411021001CN0040001N9-01281-01611101411ADDAY171999GF108991081001022501021999MD1710141+9999MW1711
0092295480999991971011012004+55617+086417FM-12+999999999V0202001N00311021001CN0040001N9-01221-01501101241ADDAA106008091AA299002091AY171999GF108991081001022501021999KA1999M-01221MD1710161+9999MW1711
0114295480999991971011015004+55617+086417FM-12+999999999V0202001N00511220001CN0040001N9-01221-01391101171ADDAY171999GA1021+004809009GA2999+999999049GF108991081001022501011999IA1199MD1610061+9999MW1711EQDQ01    003SCCGA2
0057295480999991971011018004+55617+086417FM-12+999999999V0202301N00411021001CN0040001N9-01221-01391100991ADDAY171999GF108991081001022501011999MD1810181+9999MW1711
0057295480999991971011021004+55617+086417FM-12+999999999V0202701N00211021001CN0040001N9-01391-01611101241ADDAY171999GF108991081001022501011999MD1310221+9999MW1711
0117295480999991971011100004+55617+086417FM-12+999999999V0202701N00311220001CN0100001N9-02111-02391101741ADDAA106008091AA299002091AY171999GF103991001001999999001011HL10009IA1319IA2999-02399KA1999N-02111MD1310411+9999MW1781
0057295480999991971011103004+55617+086417FM-12+999999999V0202001N00311075001CN0200001N9-02501-02781102211ADDAY171999GF108991031051008001001021MD1210411+9999MW1781
0057295480999991971011106004+55617+086417FM-12+999999999V0202001N00621220001CN0100001N9-02391-02781102471ADDAY171999GF102991001001999999001011MD1110251+9999MW1361
0057295480999991971011109004+55617+086417FM-12+999999999V0202301N00511220001CN0100001N9-02391-02781102661ADDAY131999GF108991001001999999001071MD1210181+9999MW1361
0092295480999991971011112004+55617+086417FM-12+999999999V0201801N00511220001CN0100001N9-02111-02501102351ADDAA106075091AA224999999AY131999GF108991001001999999001071KA1999M-02111MD1810271+9999MW1021
0092295480999991971011118004+55617+086417FM-12+999999999V0201801N02011021001CN0100001N9-01721-02001100912ADDAY131999GF108991081001022501021999MD1810842+9999MW1391EQDQ01+100913APOSLPQ02+000842APC3  
0057295480999991971011121004+55617+086417FM-12+999999999V0201801N02011030001CN0010001N9-01281-01611099941ADDAY171999GF108991031071004501021999MD1710901+9999MW1731
0117295480999991971011200004+55617+086417FM-12+999999999V0201801N02011030001CN0010001N9-01111-01391099351ADDAA106012091AA299003091AY171999GF108991031071004501021999HL10009IA1319IA2999-02399KA1999N-02111MD1610631+9999MW1731
0057295480999991971011203004+55617+086417FM-12+999999999V0201801N02011000601CN0000501N9-00891-01111098961ADDAY171999GF199999091011000751011011MD1610301+9999MW1771
0057295480999991971011206004+55617+086417FM-12+999999999V0202001N02521000151CN0000501N9-00891-01111098831ADDAY171999GF109991091999000251999999MD1610111+9999MW1751
0057295480999991971011209004+55617+086417FM-12+999999999V0202301N02521000151CN0000501N9-00781-01001098711ADDAY171999GF109991091999000251999999MD1710111+9999MW1751
0092295480999991971011212004+55617+086417FM-12+999999999V0202001N02521000151CN0000501N9-00781-01001098701ADDAA106008091AA299002091AY171999GF109991091999000251999999KA1999M-00781MD1410001+9999MW1751
0057295480999991971011218004+55617+086417FM-12+999999999V0201801N02521000151CN0002001N9-00721-00891098591ADDAY171999GF109991091999000251999999MD1810111+9999MW1751
0057295480999991971011315004+55617+086417FM-12+999999999V0201801N00721007801CN0100001N9-00391-00611098631ADDAY171999GF108991081051008001999999MD1310021+9999MW1711
0057295480999991971011318004+55617+086417FM-12+999999999V0202001N00871007801CN0040001N9-00391-00501098721ADDAY171999GF108991081051008001999999MD1310101+9999MW1711
0076295480999991971011321004+55617+086417FM-12+999999999V0202501N00981220001CN0100001N9-01001-01281099322ADDAY181999GF108991001001999999001071MD1310521+9999MW1361EQDQ01+099323APOSLP
0117295480999991971011400004+55617+086417FM-12+999999999V0209991C00001021001CN0040001N9-01391-01611099221ADDAA106004091AA299001091AY171999GF108991081001022501011999HL10009IA1319IA2999-01399KA1999N-01391MD1810141+9999MW1711
0057295480999991971011403004+55617+086417FM-12+999999999V0209991C00001004501CN0040001N9-01391-01611098941ADDAY171999GF108991081051004501999999MD1810271+9999MW1711
0076295480999991971011406004+55617+086417FM-12+999999999V0202001N00821004501CN0020001N9-00391-00502098212ADDAY171999GF108991081091004501999999MD1810611+9999MW1851EQDQ01+098213APOSLP
0057295480999991971011409004+55617+086417FM-12+999999999V0201801N01181004501CN0200001N9-00281-00721999999ADDAY181999GF107991071091004501001001MD1610211+9999MW1381
0076295480999991971011415004+55617+086417FM-12+999999999V0202301N00821220001CN0100001N9-01611-03111100671ADDAY171999GF107991001001999999001071MD1310992+9999MW1361EQDQ01+000992APC3  
0057295480999991971011418004+55617+086417FM-12+999999999V0202301N00821220001CN0100001N9-02781-03281101461ADDAY131999GF108991001001999999001071MD1210791+9999MW1361
0057295480999991971011421004+55617+086417FM-12+999999999V0202301N00721220001CN0100001N9-03111-03611101851ADDAY131999GF100991001001999999001001MD1110351+9999MW1361
0117295480999991971011500004+55617+086417FM-12+999999999V0202301N00511220001CN0100001N9-03221-03721101991ADDAA106075091AA224999999AY131999GF100991001001999999001001HL10009IA1319IA2999-03119KA1999N-03221MD1110131+9999MW1361
0057295480999991971011503004+55617+086417FM-12+999999999V0202301N00311220001CN0200001N9-03221-03611102111ADDAY131999GF102991001001999999001021MD1210111+9999MW1021
0057295480999991971011506004+55617+086417FM-12+999999999V0202301N00871220001CN0200001N9-03001-03391102121ADDAY131999GF103991001001999999001011MD1110041+9999MW1361
0057295480999991971011509004+55617+086417FM-12+999999999V0201801N01181220001CN0200001N9-02781-03281102221ADDAY131999GF108991001001999999001071MD1310111+9999MW1361
0081295480999991971011512004+55617+086417FM-12+999999999V0201801N01591220001CN0100001N9-02721-03111102271ADDAA199000091AY131999GF106991001001999999001011KA1999M-02611MD1210071+9999MW1381
0124295480999991971011515004+55617+086417FM-12+999999999V0201801N02011220001CN0100001N9-02501-03001102211ADDAY131999GA1999+999999009GA2071+999999019GF199999001001999999001011MD1810041+9999MW1391EQDQ01+000052SCOTCVQ02    003SCCGA1
0057295480999991971011518004+55617+086417FM-12+999999999V0201801N01591030001CN0020001N9-02391-02891102131ADDAY131999GF108991031071004501021999MD1710061+9999MW1731
0117295480999991971011600004+55617+086417FM-12+999999999V0201801N01181030001CN0010001N9-02001-02281102021ADDAA106016091AA299004091AY171999GF108991031071004501011999HL10009IA1319IA2999-02729KA1999N-02721MD1810061+9999MW1751
0076295480999991971011606004+55617+086417FM-12+999999999V0202001N01591004501CN0010001N9-01721-02001101581ADDAY171999GF108991999071004501021999MD1710201+9999MW1731EQDQ01+000082SCOTLC
0076295480999991971011609004+55617+086417FM-12+999999999V0201801N02011004501CN0005001N9-01501-01781101461ADDAY171999GF108991999071004501021999MD1710111+9999MW1751EQDQ01+000082SCOTLC
0111295480999991971011612004+55617+086417FM-12+999999999V0201801N02011004501CN0005001N9-01501-01781101271ADDAA106004091AA299001091AY171999GF108991999071004501021999KA1999M-01391MD1710181+9999MW1751EQDQ01+000082SCOTLC
0076295480999991971011615004+55617+086417FM-12+999999999V0201801N02521004501CN0005001N9-01281-01611101091ADDAY171999GF108991999071004501021999MD1710161+9999MW1751EQDQ01+000082SCOTLC
0076295480999991971011618004+55617+086417FM-12+999999999V0201801N02521004501CN0005001N9-01221-01501100821ADDAY131999GF108991999071004501021999MD1710251+9999MW1751EQDQ01+000082SCOTLC
0076295480999991971011621004+55617+086417FM-12+999999999V0201801N02521004501CN0005001N9-01221-01501100731ADDAY171999GF108991999071004501021999MD1610081+9999MW1751EQDQ01+000082SCOTLC
0127295480999991971011700004+55617+086417FM-12+999999999V0201801N02521007801CN0040001N9-02001-02391100731ADDAA106004091AA299001091AY171999GF108991081091008001999999KA1999N-02001MD1410001+9999MW1851EQDQ01+000032APCTENQ02+000712APC3  
0092295480999991971011706004+55617+086417FM-12+999999999V0202301N00981220001CN0200001N9-02721-03281103252ADDAY181999GF106991001001999999001021MD1210642+9999MW1361EQDQ01+103253APOSLPQ02+000642APC3  
0057295480999991971011709004+55617+086417FM-12+999999999V0202001N00821220001CN0200001N9-02611-03281103661ADDAY131999GF108991001001999999001071MD1210411+9999MW1361
0092295480999991971011712004+55617+086417FM-12+999999999V0202301N00211220001CN0100001N9-02611-03221103681ADDAA106075091AA224999999AY131999GF107991001001999999001021KA1999M-02001MD1110021+9999MW1021
0057295480999991971011715004+55617+086417FM-12+999999999V0209991C00001220001CN0100001N9-02781-03281103771ADDAY121999GF108991001001999999001021MD1210071+9999MW1021
0057295480999991971011718004+55617+086417FM-12+999999999V0209991C00001220001CN0100001N9-03111-03501103871ADDAY121999GF106991001001999999001021MD1210071+9999MW1021
0106295480999991971011800004+55617+086417FM-12+999999999V0209991C00001220001CN0020001N9-03781-04111104281ADDAA199000091AY111999GF100991001001999999001001HL10009IA1319IA2999-04119KA1999N-03781MD1210111+9999MW1101
0057295480999991971011803004+55617+086417FM-12+999999999V0209991C00001220001CN0040001N9-04111-04391104451ADDAY141999GF102991001001999999001011MD1210131+9999MW1101
0057295480999991971011806004+55617+086417FM-12+999999999V0209991C00001220001CN0200001N9-03391-03781104311ADDAY141999GF100991001001999999001001MD1110051+9999MW1021
0057295480999991971011809004+55617+086417FM-12+999999999V0201801N00211021001CN0200001N9-02111-02391103921ADDAY171999GF107991061001022501031021MD1810221+9999MW1711
0092295480999991971011812004+55617+086417FM-12+999999999V0201901N00411021001CN0040001N9-01611-01891103671ADDAA106002091AA299000591AY171999GF108991081001022501021999KA1999M-01611MD1710201+9999MW1711
0057295480999991971011818004+55617+086417FM-12+999999999V0202001N01181220001CN0100001N9-00781-01281102931ADDAY171999GF108991001001999999001021MD1710321+9999MW1381
0117295480999991971011900004+55617+086417FM-12+999999999V0202001N01181007801CN0100001N9-00721-01281102671ADDAA106075091AA224999999AY131999GF108991081051008001999999HL10009IA1319IA2999-01899KA1999N-01721MD1710131+9999MW1021
0078295480999991971011906004+55617+086417FM-12+999999999V0202001N00821007801CN0200001N9-00721-01281102741ADDAY171999GF108991081051008001999999MW1711EQDQ01+000012APCTENQ02+000002APC3  
0057295480999991971011909004+55617+086417FM-12+999999999V0202001N00721007801CN0040001N9-00721-01001102731ADDAY171999GF108991081051008001999999MD1810011+9999MW1711
0092295480999991971011912004+55617+086417FM-12+999999999V0202301N00821007801CN0100001N9-00611-01111102741ADDAA106002091AA299000591AY171999GF108991081051008001999999KA1999M-00611MD1310011+9999MW1711
0078295480999991971011918004+55617+086417FM-12+999999999V0209991C00001004501CN0040001N9-00611-00721102711ADDAY171999GF108991051071004501021999MW1711EQDQ01+000062APCTENQ02+000002APC3  
0057295480999991971011921004+55617+086417FM-12+999999999V0209991C00001004501CN0040001N9-00611-00721102691ADDAY171999GF108991051071004501021999MD1810021+9999MW1711
0117295480999991971012000004+55617+086417FM-12+999999999V0209991C00001004501CN0020001N9-00721-01001102661ADDAA106008091AA299002091AY171999GF108991051071004501021999HL10009IA1319IA2999-00729KA1999N-00721MD1810051+9999MW1731
0057295480999991971012003004+55617+086417FM-12+999999999V0202301N00311007801CN0100001N9-00781-01001102641ADDAY171999GF108991081051008001999999MD1610021+9999MW1711
0057295480999991971012006004+55617+086417FM-12+999999999V0201801N00411220001CN0100001N9-00721-00891102611ADDAY171999GF108991001001999999001071MD1710021+9999MW1711
0057295480999991971012009004+55617+086417FM-12+999999999V0201801N00511021001CN0100001N9-00611-00721102441ADDAY171999GF108991081001022501021999MD1810151+9999MW1711
0092295480999991971012012004+55617+086417FM-12+999999999V0202001N00211021001CN0100001N9-00611-00891102401ADDAA106004091AA299001091AY171999GF108991081001022501071999KA1999M-00611MD1610041+9999MW1021
0057295480999991971012015004+55617+086417FM-12+999999999V0209991C00001220001CN0100001N9-00611-01221102271ADDAY111999GF103991001001999999001011MD1810141+9999MW1011
0057295480999991971012018004+55617+086417FM-12+999999999V0202301N00311220001CN0100001N9-00891-01111102231ADDAY171999GF108991001001999999001021MD1710061+9999MW1711
0057295480999991971012021004+55617+086417FM-12+999999999V0202001N00721021001CN0100001N9-00891-01111102271ADDAY171999GF108991081001022501021999MD1310041+9999MW1711
0095295480999991971012100004+55617+086417FM-12+999999999V0201801N00511021001CN0040001N9-00891-01111102251ADDAY171999GF108991081001022501021999HL10009IA1319IA2999-01009KA1999N-00891MD1810021+9999MW1711
0057295480999991971012103004+55617+086417FM-12+999999999V0201801N00511030001CN0100001N9-00891-01111102301ADDAY171999GF108991021071004501021999MD1310051+9999MW1711
0057295480999991971012106004+55617+086417FM-12+999999999V0202001N00621007801CN0040001N9-00781-01001102291ADDAY171999GF108991051051008001001021MD1810011+9999MW1711
0092295480999991971012112004+55617+086417FM-12+999999999V0202001N00721007801CN0100001N9-00891-01221102411ADDAA106004091AA299001091AY171999GF108991081051008001999999KA1999M-00781MD1210071+9999MW1361
0057295480999991971012118004+55617+086417FM-12+999999999V0202301N00821004501CN0040001N9-01001-01281102651ADDAY131999GF108991051071004501021999MD1310161+9999MW1711
0117295480999991971012200004+55617+086417FM-12+999999999V0202301N00311004501CN0100001N9-01111-01281103101ADDAA106004091AA299001091AY171999GF108991051071004501021999HL10009IA1319IA2999-01229KA1999N-01111MD1210201+9999MW1711
0057295480999991971012203004+55617+086417FM-12+999999999V0202001N00211004501CN0100001N9-01111-01391103271ADDAY171999GF108991081051004501999999MD1210171+9999MW1711
0057295480999991971012206004+55617+086417FM-12+999999999V0202301N00411007801CN0100001N9-01001-01281103261ADDAY171999GF107991071051008001001001MD1410001+9999MW1711
0057295480999991971012209004+55617+086417FM-12+999999999V0202301N00211007801CN0040001N9-01001-01281103261ADDAY171999GF107991061051008001041001MD1410001+9999MW1711
0092295480999991971012212004+55617+086417FM-12+999999999V0202001N00311007801CN0100001N9-00891-01221103181ADDAA106001091AA299000391AY171999GF108991081051008001999999KA1999M-00891MD1810071+9999MW1711
0057295480999991971012215004+55617+086417FM-12+999999999V0202301N00511007801CN0100001N9-00781-01001103091ADDAY171999GF108991081051008001999999MD1710081+9999MW1711
0057295480999991971012218004+55617+086417FM-12+999999999V0202301N00311007801CN0100001N9-00781-00891102991ADDAY171999GF108991081051008001999999MD1710081+9999MW1711
0076295480999991971012221004+55617+086417FM-12+999999999V0201801N00621004501CN0100001N9-00781-00891102891ADDAY171999GF108991999071004501021999MD1710101+9999MW1711EQDQ01+000082SCOTLC
0136295480999991971012300004+55617+086417FM-12+999999999V0202301N00411004501CN0020001N9-00781-00891102891ADDAA106002091AA299000591AY171999GF108991999071004501021999HL10009IA1319IA2999-01009KA1999N-01001MD1410001+9999MW1731EQDQ01+000082SCOTLC
0076295480999991971012303004+55617+086417FM-12+999999999V0202301N00311004501CN0040001N9-00781-00891102931ADDAY171999GF108991999071004501021999MD1310041+9999MW1711EQDQ01+000082SCOTLC
0057295480999991971012306004+55617+086417FM-12+999999999V0202301N00411007801CN0200001N9-00781-01111103021ADDAY171999GF108991081091008001999999MD1310081+9999MW1851
0057295480999991971012309004+55617+086417FM-12+999999999V0202301N00411030001CN0200001N9-00781-01111103231ADDAY181999GF107991031051008001031011MD1310201+9999MW1711
0092295480999991971012312004+55617+086417FM-12+999999999V0202301N00311220001CN0100001N9-00781-01111103441ADDAA106004091AA299001091AY181999GF108991001001999999001021KA1999M-00721MD1210201+9999MW1711
0057295480999991971012315004+55617+086417FM-12+999999999V0209991C00001021001CN0100001N9-00891-01111103551ADDAY171999GF108991081001022501021999MD1110111+9999MW1711
0057295480999991971012318004+55617+086417FM-12+999999999V0209991C00001021001CN0100001N9-00891-01111103651ADDAY171999GF108991081001022501021999MD1210091+9999MW1711
0057295480999991971012321004+55617+086417FM-12+999999999V0209991C00001021001CN0040001N9-01001-01111103681ADDAY171999GF108991081001022501021999MD1110021+9999MW1711
0117295480999991971012400004+55617+086417FM-12+999999999V0202301N00411021001CN0040001N9-01001-01221103731ADDAA106008091AA299002091AY171999GF108991081001022501021999HL10009IA1319IA2999-01009KA1999N-01001MD1310051+9999MW1711
0057295480999991971012403004+55617+086417FM-12+999999999V0202001N00311021001CN0100001N9-01001-01221103761ADDAY171999GF108991081001022501071999MD1210031+9999MW1711
0057295480999991971012406004+55617+086417FM-12+999999999V0202001N00511021001CN0040001N9-01001-01221103721ADDAY171999GF108991081001022501071999MD1810041+9999MW1711
0057295480999991971012409004+55617+086417FM-12+999999999V0202001N00511007801CN0040001N9-01001-01221103691ADDAY171999GF108991081051008001999999MD1710031+9999MW1711
0092295480999991971012412004+55617+086417FM-12+999999999V0202301N002119999999N0100001N9-01221-01391103741ADDAA106001091AA299000391AY171999GF108991021001022501041021KA1999M-00781MD1310031+9999MW1781
0057295480999991971012415004+55617+086417FM-12+999999999V0202301N00211220001CN0100001N9-01391-01611103721ADDAY171999GF106991001001999999001011MD1810051+9999MW1781
0057295480999991971012418004+55617+086417FM-12+999999999V0202001N00311220001CN0100001N9-01391-01611103671ADDAY171999GF108991001001999999001021MD1710051+9999MW1711
0057295480999991971012421004+55617+086417FM-12+999999999V0202301N00511000151CN0100001N9-01221-01391103561ADDAY171999GF108991081001000251021999MD1710021+9999MW1711
0117295480999991971012500004+55617+086417FM-12+999999999V0202001N00621021001CN0100001N9-01111-01281103481ADDAA106001091AA299000391AY171999GF108991081001022501021999HL10009IA1319IA2999-01789KA1999N-01501MD1710071+9999MW1711
0057295480999991971012503004+55617+086417FM-12+999999999V0202301N00621030001CN0040001N9-01111-01281103531ADDAY171999GF108991021071004501021999MD1310061+9999MW1711
0057295480999991971012506004+55617+086417FM-12+999999999V0202301N00511021001CN0040001N9-01111-01221103601ADDAY171999GF108991081001022501071999MD1210061+9999MW1711
0057295480999991971012509004+55617+086417FM-12+999999999V0202001N00621021001CN0040001N9-01111-01391103651ADDAY171999GF108991081001022501071999MD1210051+9999MW1711
0092295480999991971012512004+55617+086417FM-12+999999999V0201801N00411021001CN0040001N9-01221-01391103721ADDAA106004091AA299001091AY171999GF108991081001022501021999KA1999M-01111MD1210061+9999MW1711
0057295480999991971012515004+55617+086417FM-12+999999999V0202301N00311021001CN0040001N9-01221-01391103731ADDAY171999GF108991081001022501021999MD1110021+9999MW1711
0057295480999991971012518004+55617+086417FM-12+999999999V0202301N00511021001CN0040001N9-01281-01501103711ADDAY171999GF108991081001022501021999MD1810031+9999MW1711
0057295480999991971012521004+55617+086417FM-12+999999999V0202301N00511021001CN0040001N9-01391-01611103681ADDAY171999GF108991081001022501021999MD1710051+9999MW1711
0117295480999991971012600004+55617+086417FM-12+999999999V0202001N006219999999N0100001N9-01391-01611103641ADDAA106004091AA299001091AY171999GF108991031001022501041021HL10009IA1319IA2999-01729KA1999N-01391MD1710041+9999MW1711
0057295480999991971012603004+55617+086417FM-12+999999999V0202001N00621030001CN0040001N9-01281-01501103591ADDAY171999GF108991031051008001071999MD1710031+9999MW1711
0057295480999991971012606004+55617+086417FM-12+999999999V0201601N00621220001CN0200001N9-01111-01391103451ADDAY171999GF108991001001999999001071MD1810121+9999MW1711
0057295480999991971012609004+55617+086417FM-12+999999999V0201601N00821030001CN0040001N9-01111-01391103401ADDAY171999GF108991031071004501011999MD1610051+9999MW1711
0092295480999991971012612004+55617+086417FM-12+999999999V0201801N00511021001CN0100001N9-01001-01221103351ADDAA106001091AA299000391AY171999GF108991081001022501071999KA1999M-01001MD1710041+9999MW1711
0057295480999991971012615004+55617+086417FM-12+999999999V0201801N00821220001CN0100001N9-01001-01391103241ADDAY171999GF108991001001999999001021MD1710111+9999MW1361
0057295480999991971012618004+55617+086417FM-12+999999999V0201801N00821021001CN0100001N9-01001-01221103151ADDAY131999GF108991081001022501021999MD1710081+9999MW1711
0057295480999991971012621004+55617+086417FM-12+999999999V0202001N00821021001CN0040001N9-00891-01221103141ADDAY171999GF108991081001022501021999MD1610011+9999MW1711
0117295480999991971012700004+55617+086417FM-12+999999999V0202001N00621021001CN0020001N9-00891-01111102981ADDAA106004091AA299001091AY171999GF108991081001022501021999HL10009IA1319IA2999-01229KA1999N-01001MD1810151+9999MW1711
0057295480999991971012703004+55617+086417FM-12+999999999V0202001N00411030001CN0200001N9-00891-01111103051ADDAY171999GF107991031051008001041011MD1310071+9999MW1711
0057295480999991971012706004+55617+086417FM-12+999999999V0201801N00311220001CN0200001N9-00781-01001103071ADDAY171999GF108991001001999999001071MD1110031+9999MW1711
0057295480999991971012709004+55617+086417FM-12+999999999V0201801N00511007801CN0100001N9-00781-01001103101ADDAY171999GF107991061051008001031001MD1210031+9999MW1711
0092295480999991971012712004+55617+086417FM-12+999999999V0201801N00211007801CN0100001N9-00781-00891103151ADDAA106002091AA299000591AY171999GF108991081051008001999999KA1999M-00781MD1210041+9999MW1711
0057295480999991971012718004+55617+086417FM-12+999999999V0209991C00001007801CN0100001N9-00781-01001103211ADDAY171999GF108991081051008001999999MD1110021+9999MW1711
0057295480999991971012803004+55617+086417FM-12+999999999V0202301N00211007801CN0200001N9-00891-01111103371ADDAY171999GF108991081051008001999999MD1310091+9999MW1021
0057295480999991971012806004+55617+086417FM-12+999999999V0202001N00511030001CN0200001N9-00781-01001103371ADDAY171999GF107991041051008001031001MD1110011+9999MW1711
0057295480999991971012809004+55617+086417FM-12+999999999V0202001N00311075001CN0200001N9-00781-01001103391ADDAY171999GF108991011011008001001021MD1210021+9999MW1021
0092295480999991971012812004+55617+086417FM-12+999999999V0202001N002119999999N0100001N9-01001-01111103421ADDAA106001091AA299000391AY171999GF108991021001022501041021KA1999M-00721MD1110011+9999MW1711
0057295480999991971012815004+55617+086417FM-12+999999999V0209991C00001220001CN0100001N9-01111-01221103441ADDAY171999GF108991001001999999001011MD1210011+9999MW1781
0057295480999991971012818004+55617+086417FM-12+999999999V0209991C00001220001CN0100001N9-01391-01501103431ADDAY171999GF108991001001999999001011MD1810041+9999MW1781
0057295480999991971012821004+55617+086417FM-12+999999999V0201801N00211220001CN0100001N9-01281-01391103361ADDAY171999GF108991001001999999001021MD1710061+9999MW1021
0117295480999991971012900004+55617+086417FM-12+999999999V0201001N00311220001CN0100001N9-01111-01221103331ADDAA106001091AA299000391AY171999GF108991001001999999001021HL10009IA1319IA2999-02009KA1999N-01391MD1610021+9999MW1711
0057295480999991971012903004+55617+086417FM-12+999999999V0202001N00511021001CN0040001N9-01111-01221103291ADDAY171999GF108991081001022501021999MD1710031+9999MW1711
0057295480999991971012906004+55617+086417FM-12+999999999V0202301N00621021001CN0040001N9-01001-01221103261ADDAY171999GF108991081001022501071999MD1710021+9999MW1711
0092295480999991971012912004+55617+086417FM-12+999999999V0209991C00001007801CN0100001N9-00891-01111103171ADDAA106008091AA299002091AY171999GF108991081051008001999999KA1999M-00781MD1610011+9999MW1711
0057295480999991971012915004+55617+086417FM-12+999999999V0202001N00411007801CN0100001N9-00891-01111103151ADDAY171999GF108991081051008001999999MD1710011+9999MW1711
0057295480999991971012918004+55617+086417FM-12+999999999V0202001N00311007801CN0100001N9-00891-01111103161ADDAY171999GF108991081051008001999999MD1410001+9999MW1711
0117295480999991971013000004+55617+086417FM-12+999999999V0202001N005119999999N0100001N9-01001-01111103121ADDAA106002091AA299000591AY171999GF108991051051999999999999HL10009IA1319IA2999-01009KA1999N-01001MD1810051+9999MW1711
0043295480999991971013003004+55617+086417FM-12+999999999V0201801N00311007801CN0100001N9-01001-01781103191ADDAY171999GF108991081051008001999999MW1711
0092295480999991971013006004+55617+086417FM-12+999999999V0201801N002119999999N0040001N9-00891-01111103181ADDAY171999GF108991041001022501041071MD1710011+9999MW1711EQDQ01+000012APCTENQ02+000002APC3  
0057295480999991971013009004+55617+086417FM-12+999999999V0202301N00311007801CN0020001N9-00891-01111103261ADDAY171999GF108991051091008001001021MD1310081+9999MW1851
0092295480999991971013012004+55617+086417FM-12+999999999V0209991C00001220001CN0040001N9-01221-01281103401ADDAA106002091AA299000591AY181999GF103991031051008001001001KA1999M-00781MD1210111+9999MW1011
0057295480999991971013015004+55617+086417FM-12+999999999V0209991C00001220001CN0100001N9-01721-01891103511ADDAY171999GF102991021001022501041001MD1110051+9999MW1781
0117295480999991971013100004+55617+086417FM-12+999999999V0209991C00001220001CN0040001N9-01891-02111103641ADDAA106075091AA224999999AY101999GF102991001001999999001021HL10009IA1319IA2999-02399KA1999N-02111MD1110031+9999MW1101
0057295480999991971013106004+55617+086417FM-12+999999999V0209991C00001220001CN0040001N9-01281-01391103681ADDAY171999GF100991001001999999001001MD1110031+9999MW1101
0057295480999991971013109004+55617+086417FM-12+999999999V0209991C00001220001CN0100001N9-00721-01111103661ADDAY101999GF102991001001999999001021MD1210041+9999MW1021
0092295480999991971013112004+55617+086417FM-12+999999999V0209991C00001220001CN0100001N9-01281-01391103851ADDAA106075091AA224999999AY101999GF102991001001999999001021KA1999M-00721MD1310121+9999MW1021
0092295480999991971013115004+55617+086417FM-12+999999999V0209991C000019999999N0100001N9-01781-02221103991ADDAY101999GF199999999011001501001081MD1210141+9999MW1021EQDQ01+000042APCTENQ02+000012APC3  
0057295480999991971013118004+55617+086417FM-12+999999999V0209991C00001220001CN0100001N9-02221-02391104081ADDAY101999GF100991001001999999001001MD1210091+9999MW1021
0057295480999991971013121004+55617+086417FM-12+999999999V0209991C00001220001CN0100001N9-02501-02781104181ADDAY101999GF100991001001999999001001MD1210061+9999MW1021
0106295480999991971020100004+55617+086417FM-12+999999999V0209991C00001220001CN0100001N9-02611-02891104251ADDAA199000091AY101999GF100991001001999999001001HL10009IA1319IA2999-03009KA1999N-02611MD1210061+9999MW1021
0057295480999991971020103004+55617+086417FM-12+999999999V0209991C00001220001CN0100001N9-02781-03001104291ADDAY101999GF100991001001999999001001MD1110021+9999MW1021
0057295480999991971020106004+55617+086417FM-12+999999999V0209991C00001220001CN0100001N9-01891-02221104311ADDAY101999GF100991001001999999001001MD1310121+9999MW1021
0057295480999991971020109004+55617+086417FM-12+999999999V0209991C00001220001CN0200001N9-00891-01611104181ADDAY101999GF100991001001999999001001MD1810021+9999MW1021
0081295480999991971020112004+55617+086417FM-12+999999999V0209991C00001220001CN0100001N9-01281-01501104361ADDAA199000091AY101999GF100991001001999999001001KA1999M-00891MD1310131+9999MW1021
0057295480999991971020115004+55617+086417FM-12+999999999V0209991C00001220001CN0100001N9-01721-01891104491ADDAY101999GF100991001001999999001001MD1210081+9999MW1021
0057295480999991971020118004+55617+086417FM-12+999999999V0209991C00001220001CN0100001N9-02111-02281104601ADDAY101999GF100991001001999999001001MD1210061+9999MW1021
0057295480999991971020121004+55617+086417FM-12+999999999V0209991C00001220001CN0100001N9-02221-02391104621ADDAY101999GF100991001001999999001001MD1110021+9999MW1021
0117295480999991971020200004+55617+086417FM-12+999999999V0209991C00001220001CN0100001N9-02001-02221104661ADDAA106075091AA224999999AY171999GF108991001001999999001021HL10009IA1319IA2999-02899KA1999N-02391MD1210051+9999MW1781
0057295480999991971020203004+55617+086417FM-12+999999999V0209991C00001004501CN0010001N9-01781-02001104671ADDAY141999GF108991081061004501999999MD1210041+9999MW1771
0057295480999991971020206004+55617+086417FM-12+999999999V0209991C00001007801CN0040001N9-01281-01501104561ADDAY141999GF107991071051008001001001MD1810051+9999MW1771
0057295480999991971020209004+55617+086417FM-12+999999999V0209991C00001030001CN0100001N9-00891-01221104491ADDAY171999GF107991031051008001031011MD1710031+9999MW1021
0092295480999991971020212004+55617+086417FM-12+999999999V0209991C00001030001CN0100001N9-01111-01221104531ADDAA106075091AA224999999AY171999GF107991031051008001031001KA1999M-00781MD1310021+9999MW1711
0057295480999991971020215004+55617+086417FM-12+999999999V0209991C00001002401CN0100001N9-01281-01391104481ADDAY171999GF107991051081002501021999MD1810071+9999MW1711
0057295480999991971020218004+55617+086417FM-12+999999999V0209991C00001220001CN0100001N9-01281-01391104371ADDAY171999GF106991001001999999001021MD1710111+9999MW1781
0057295480999991971020221004+55617+086417FM-12+999999999V0209991C00001220001CN0100001N9-01501-01611104421ADDAY171999GF108991001001999999999021MD1310031+9999MW1781
0117295480999991971020300004+55617+086417FM-12+999999999V0203601N00311220001CN0100001N9-01501-01611104071ADDAA106001091AA299000391AY171999GF108991001001999999001021HL10009IA1319IA2999-01789KA1999N-01501MD1810341+9999MW1781
0057295480999991971020303004+55617+086417FM-12+999999999V0209991C00001220001CN0200001N9-01721-01781104271ADDAY171999GF100991001001999999001001MD1310171+9999MW1761
0057295480999991971020306004+55617+086417FM-12+999999999V0209991C00001220001CN0000001N9-01391-01721104111ADDAY171999GF100991001001999999001001MD1810131+9999MW1271
0092295480999991971020312004+55617+086417FM-12+999999999V0203601N00411220001CN0500001N9-01781-02111104131ADDAA106075091AA224999999AY101999GF100991001001999999001001KA1999M-01111MD1310091+9999MW1021
0057295480999991971020315004+55617+086417FM-12+999999999V0203601N00311220001CN0100001N9-02001-02281104211ADDAY101999GF100991001001999999001001MD1110041+9999MW1021
0057295480999991971020318004+55617+086417FM-12+999999999V0203601N00211220001CN0100001N9-02281-02611104351ADDAY101999GF100991001001999999001001MD1310111+9999MW1021
0057295480999991971020321004+55617+086417FM-12+999999999V0209991C00001220001CN0100001N9-02611-02891104441ADDAY101999GF100991001001999999001001MD1110051+9999MW1021
0106295480999991971020400004+55617+086417FM-12+999999999V0209991C00001220001CN0100001N9-03111-03391104581ADDAA199000091AY101999GF100991001001999999001001HL10009IA1319IA2999-03789KA1999N-03111MD1210081+9999MW1021
0057295480999991971020403004+55617+086417FM-12+999999999V0203601N00101220001CN0200001N9-03221-03501104671ADDAY101999GF102991011001022501041011MD1210081+9999MW1761
0057295480999991971020406004+55617+086417FM-12+999999999V0209991C00001220001CN0500001N9-02221-03501104491ADDAY101999GF101991001001999999001011MD1810061+9999MW1021
0057295480999991971020409004+55617+086417FM-12+999999999V0203601N00311220001CN0500001N9-01721-02392104421ADDAY101999GF100991001001999999001001MD1610011+9999MW1021
0081295480999991971020412004+55617+086417FM-12+999999999V0209991C00001220001CN0100001N9-02281-02611104551ADDAA199000091AY101999GF102991001001999999001021KA1999M-01281MD1310061+9999MW1021
0057295480999991971020418004+55617+086417FM-12+999999999V0209991C00001220001CN0100001N9-03001-03281104481ADDAY111999GF108991001001999999001071MD1710071+9999MW1021
0125295480999991971020500004+55617+086417FM-12+999999999V0209991C00001220001CN0100001N9-03221-03501104281ADDAA199999999AY121999GF106991001001999999001011HL10009IA1319IA2999-03619KA1999N-03221MD1710121+9999MW1761EQDQ01  00002PRCP99
0057295480999991971020503004+55617+086417FM-12+999999999V0209991C00001220001CN0200001N9-03221-03501104131ADDAY121999GF106991001001999999001011MD1710141+9999MW1021
0057295480999991971020506004+55617+086417FM-12+999999999V0209991C00001220001CN0500001N9-02611-02891103851ADDAY121999GF108991001001999999001071MD1710201+9999MW1021
0057295480999991971020509004+55617+086417FM-12+999999999V0209991C00001220001CN0500001N9-01721-02221103571ADDAY121999GF108991001001999999001071MD1710171+9999MW1021
0067295480999991971020512004+55617+086417FM-12+999999999V0209991C00001220001CN0100001N9-02001-02281103551ADDAA199000091AY121999GF108991001001999999001071KA1999M-01721MW1021
0057295480999991971020518004+55617+086417FM-12+999999999V0209991C000019999999N0100001N9-02391-02721103171ADDAY171999GF107991041001022501031021MD1710221+9999MW1781
0057295480999991971020521004+55617+086417FM-12+999999999V0209991C00001220001CN0100001N9-02501-02781103041ADDAY171999GF105991001001999999001011MD1710141+9999MW1781
0117295480999991971020600004+55617+086417FM-12+999999999V0209991C00001220001CN0100001N9-02891-03221103011ADDAA106075091AA224999999AY171999GF106991001001999999001011HL10009IA1319IA2999-03289KA1999N-02891MD1610061+9999MW1781
0057295480999991971020603004+55617+086417FM-12+999999999V0209991C00001220001CN0200001N9-03111-03391103021ADDAY171999GF101991011001022501041001MD1610021+9999MW1011
0057295480999991971020606004+55617+086417FM-12+999999999V0209991C00001220001CN0200001N9-02611-03001102901ADDAY171999GF101991001001999999001011MD1810061+9999MW1021
0057295480999991971020609004+55617+086417FM-12+999999999V0209991C00001220001CN0100001N9-01891-02391102821ADDAY111999GF106991001001999999001021MD1410001+9999MW1031
0057295480999991971020615004+55617+086417FM-12+999999999V0209991C00001220001CN0100001N9-02391-02721102681ADDAY121999GF108991001001999999001071MD1810141+9999MW1021
0057295480999991971020618004+55617+086417FM-12+999999999V0209991C00001220001CN0100001N9-02391-02721102481ADDAY171999GF108991001001999999001071MD1710191+9999MW1711
0057295480999991971020621004+55617+086417FM-12+999999999V0209991C00001220001CN0100001N9-02281-02611102311ADDAY171999GF108991001001999999001071MD1710161+9999MW1711
0117295480999991971020700004+55617+086417FM-12+999999999V0209991C00001220001CN0100001N9-02391-02721102231ADDAA106001091AA299000391AY171999GF108991001001999999001021HL10009IA1319IA2999-02789KA1999N-02501MD1610091+9999MW1021
0057295480999991971020703004+55617+086417FM-12+999999999V0209991C00001220001CN0200001N9-02281-02501102071ADDAY121999GF108991001001999999001021MD1810151+9999MW1021
0057295480999991971020706004+55617+086417FM-12+999999999V0209991C000019999999N0200001N9-01281-01781101841ADDAY121999GF108991021001022501041021MD1710111+9999MW1021
0057295480999991971020709004+55617+086417FM-12+999999999V0209991C000019999999N0200001N9-00781-01611101781ADDAY121999GF108991021001022501041021MD1410001+9999MW1021
0081295480999991971020712004+55617+086417FM-12+999999999V0209991C00001220001CN0100001N9-01111-01501101891ADDAA199000091AY121999GF108991001001999999001021KA1999M-00781MD1310081+9999MW1021
0057295480999991971020715004+55617+086417FM-12+999999999V0209991C000019999999N0100001N9-01501-01721101951ADDAY121999GF108991031001999999999999MD1110011+9999MW1021
0057295480999991971020718004+55617+086417FM-12+999999999V0209991C000019999999N0100001N9-01721-01891102041ADDAY121999GF108991031001022501041021MD1310071+9999MW1021
0057295480999991971020721004+55617+086417FM-12+999999999V0209991C000019999999N0100001N9-01611-01781102161ADDAY121999GF108991001001999999999999MD1210121+9999MW1021
0117295480999991971020800004+55617+086417FM-12+999999999V0209991C00001220001CN0100001N9-01391-01611102201ADDAA106001091AA299000391AY171999GF108991001001999999001071HL10009IA1319IA2999-02289KA1999N-01781MD1110071+9999MW1711
0057295480999991971020806004+55617+086417FM-12+999999999V0209991C00001007801CN0200001N9-00721-01111102191ADDAY171999GF107991051999008001041011MD1810021+9999MW1021
0057295480999991971020809004+55617+086417FM-12+999999999V0209991C00001007801CN0200001N9-00391-00721102231ADDAY171999GF107991071051008001001001MD1310071+9999MW1021
0092295480999991971020812004+55617+086417FM-12+999999999V0209991C00001007801CN0100001N9-00611-00891102341ADDAA106002091AA299000591AY171999GF107991051051008001031001KA1999M-00391MD1210091+9999MW1021
0057295480999991971020815004+55617+086417FM-12+999999999V0209991C00001007801CN0100001N9-00721-00781102391ADDAY171999GF108991081051008001999999MD1110031+9999MW1711
0057295480999991971020818004+55617+086417FM-12+999999999V0209991C00001007801CN0100001N9-00721-00721102431ADDAY171999GF108991081051008001999999MD1210041+9999MW1711
0057295480999991971020821004+55617+086417FM-12+999999999V0209991C00001007801CN0100001N9-01001-01001102451ADDAY171999GF107991071051008001001001MD1410001+9999MW1021
0079295480999991971020900004+55617+086417FM-12+999999999V0209991C00001220001CN0100001N9-01391-01501102541ADDAA106001091AA299000391AY171999GF102991001001999999001021MD1310041+9999MW1011
0057295480999991971020903004+55617+086417FM-12+999999999V0209991C00001220001CN0200001N9-01221-01281102451ADDAY101999GF101991001001999999001011MD1810071+9999MW1021
0057295480999991971020906004+55617+086417FM-12+999999999V0200201N00211220001CN0500001N9-00281-00721102261ADDAY101999GF101991001001999999001011MD1710091+9999MW1021
0057295480999991971020909004+55617+086417FM-12+999999999V0200201N00721220001CN0500001N9-00221-00891102201ADDAY131999GF102991001001999999001011MD1710051+9999MW1361
0081295480999991971020912004+55617+086417FM-12+999999999V0200201N00511220001CN0200001N9-00611-00891102271ADDAA199000091AY131999GF102991001001999999001011KA1999M-00221MD1310031+9999MW1021
0057295480999991971020915004+55617+086417FM-12+999999999V0203601N00211220001CN0100001N9-00781-01001102291ADDAY101999GF100991001001999999001001MD1410001+9999MW1021
0057295480999991971020918004+55617+086417FM-12+999999999V0200501N00721220001CN0100001N9-00891-01111102341ADDAY131999GF100991001001999999001001MD1310041+9999MW1361
0043295480999991971020921004+55617+086417FM-12+999999999V0200501N00511220001CN0100001N9-01221-01501102381ADDAY131999GF100991001001999999001001MW1021
0106295480999991971021000004+55617+086417FM-12+999999999V0200501N00311220001CN0100001N9-01391-01611102401ADDAA199000091AY131999GF100991001001999999001001HL10009IA1319IA2999-01899KA1999N-01391MD1410001+9999MW1021
0057295480999991971021003004+55617+086417FM-12+999999999V0200201N00411220001CN0200001N9-01391-01611102481ADDAY101999GF101991001001999999001011MD1310081+9999MW1021
0057295480999991971021006004+55617+086417FM-12+999999999V0209991C00001220001CN0200001N9-00781-01391102461ADDAY101999GF102991001001999999001011MD1110041+9999MW1021
0057295480999991971021009004+55617+086417FM-12+999999999V0209991C00001220001CN0200001N9-00281-01281102541ADDAY111999GF108991001001999999001071MD1310131+9999MW1031
0081295480999991971021012004+55617+086417FM-12+999999999V0202301N00101220001CN0040001N9-00891-01281102911ADDAA199000091AY111999GF108991001001999999001021KA1999M-00221MD1310301+9999MW1101
0057295480999991971021015004+55617+086417FM-12+999999999V0202301N00101007801CN0100001N9-00781-01001103041ADDAY171999GF108991081051008001999999MD1110131+9999MW1711
0057295480999991971021018004+55617+086417FM-12+999999999V0202301N00311021001CN0100001N9-00891-01221103161ADDAY171999GF108991081001022501011999MD1210111+9999MW1021
0057295480999991971021021004+55617+086417FM-12+999999999V0202301N00511220001CN0100001N9-01221-01611103241ADDAY171999GF108991001001999999001071MD1110051+9999MW1781
0057295480999991971021103004+55617+086417FM-12+999999999V0209991C00001220001CN0100001N9-01721-01891103211ADDAY101999GF100991001001999999001001MD1710041+9999MW1761
0057295480999991971021109004+55617+086417FM-12+999999999V0202301N00311220001CN0200001N9-01111-01501102871ADDAY171999GF102991001001999999001011MD1810211+9999MW1021
0092295480999991971021112004+55617+086417FM-12+999999999V0202301N004119999999N0200001N9-01221-01611102761ADDAA106075091AA224999999AY171999GF108991021001022501041021KA1999M-01111MD1610131+9999MW1031
0057295480999991971021115004+55617+086417FM-12+999999999V0201601N00411030001CN0040001N9-01221-01391102551ADDAY171999GF108991011011022501051999MD1710201+9999MW1711
0057295480999991971021118004+55617+086417FM-12+999999999V0201801N00311021001CN0100001N9-01111-01391102371ADDAY171999GF108991081001022501011999MD1710171+9999MW1711
0117295480999991971021200004+55617+086417FM-12+999999999V0209991C00001220001CN0100001N9-01391-01501102161ADDAA106004091AA299001091AY171999GF108991001001999999001071HL10009IA1319IA2999-02119KA1999N-01391MD1710101+9999MW1711
0057295480999991971021203004+55617+086417FM-12+999999999V0209991C00001220001CN0100001N9-01721-01891102211ADDAY171999GF108991001001999999001071MD1610031+9999MW1711
0092295480999991971021206004+55617+086417FM-12+999999999V0202001N00311220001CN0200001N9-01501-01781102361ADDAY171999GA1051+999999999GF199999001001999999001011MD1310161+9999MW1711EQDQ01+000022SCOTCV
0057295480999991971021209004+55617+086417FM-12+999999999V0202301N00311220001CN0200001N9-01501-01891102571ADDAY171999GF103991031051008001001001MD1210201+9999MW1021
0092295480999991971021212004+55617+086417FM-12+999999999V0202301N00211075001CN0100001N9-01781-02111102811ADDAA106001091AA299000391AY171999GF107991041051008001001021KA1999M-01281MD1210201+9999MW1781
0057295480999991971021215004+55617+086417FM-12+999999999V0209991C00001007801CN0100001N9-02001-02281102971ADDAY171999GF108991081051008001999999MD1210141+9999MW1781
0057295480999991971021218004+55617+086417FM-12+999999999V0209991C00001030001CN0100001N9-02111-02391103111ADDAY171999GF106991031051008001041011MD1210121+9999MW1781
0057295480999991971021221004+55617+086417FM-12+999999999V0209991C00001220001CN0100001N9-02501-02781103291ADDAY171999GF106991001001999999001011MD1210131+9999MW1781
0117295480999991971021300004+55617+086417FM-12+999999999V0209991C00001220001CN0100001N9-02501-02781103351ADDAA106001091AA299000391AY171999GF106991001001999999001011HL10009IA1319IA2999-02899KA1999N-02501MD1110051+9999MW1781
0057295480999991971021303004+55617+086417FM-12+999999999V0209991C00001220001CN0040001N9-02611-02891103561ADDAY171999GF102991021001022501041001MD1310201+9999MW1101
0057295480999991971021306004+55617+086417FM-12+999999999V0209991C00001220001CN0020001N9-01781-02221103541ADDAY171999GF100991001001999999001001MD1110071+9999MW1101
0057295480999991971021309004+55617+086417FM-12+999999999V0202301N00211021001CN0040001N9-01611-02001103621ADDAY111999GF107991061001022501031011MD1210071+9999MW1101
0092295480999991971021312004+55617+086417FM-12+999999999V0209991C00001220001CN0020001N9-02001-02281103741ADDAA106075091AA224999999AY111999GF103991001001999999001011KA1999M-01611MD1210101+9999MW1101
0057295480999991971021315004+55617+086417FM-12+999999999V0209991C00001220001CN0010001N9-02611-02891103801ADDAY101999GF104991001001999999001011MD1810011+9999MW1101
0057295480999991971021318004+55617+086417FM-12+999999999V0209991C00001220001CN0010001N9-03001-03281103811ADDAY101999GF102991001001999999001011MD1810041+9999MW1101
0057295480999991971021321004+55617+086417FM-12+999999999V0209991C00001220001CN0010001N9-03221-03501103671ADDAY101999GF102991001001999999001011MD1810161+9999MW1101
0106295480999991971021400004+55617+086417FM-12+999999999V0209991C00001220001CN0020001N9-03281-03611103511ADDAA199000091AY101999GF100991001001999999001001HL10009IA1319IA2999-03729KA1999N-03391MD1710171+9999MW1101
0057295480999991971021403004+55617+086417FM-12+999999999V0209991C00001220001CN0020001N9-03221-03501103391ADDAY101999GF100991001001999999001001MD1610101+9999MW1761
0057295480999991971021406004+55617+086417FM-12+999999999V0200501N00511220001CN0200001N9-01721-02112103131ADDAY101999GF100991001001999999001001MD1710081+9999MW1021
0057295480999991971021409004+55617+086417FM-12+999999999V0200501N00311220001CN0200001N9-01501-02111103091ADDAY101999GF100991001001999999001001MD1610021+9999MW1021
0081295480999991971021412004+55617+086417FM-12+999999999V0203601N00211220001CN0200001N9-02001-02281103331ADDAA199000091AY101999GF100991001001999999001001KA1999M-01501MD1310181+9999MW1021
0057295480999991971021418004+55617+086417FM-12+999999999V0209991C00001220001CN0100001N9-02781-03111103621ADDAY101999GF100991001001999999001001MD1210101+9999MW1021
0057295480999991971021421004+55617+086417FM-12+999999999V0209991C00001220001CN0100001N9-03281-03611103761ADDAY101999GF100991001001999999001001MD1210071+9999MW1021
0095295480999991971021500004+55617+086417FM-12+999999999V0209991C00001220001CN0100001N9-03391-03721103801ADDAY101999GF100991001001999999001001HL10009IA1319IA2999-04009KA1999N-03781MD1110041+9999MW1021
0057295480999991971021503004+55617+086417FM-12+999999999V0209991C00001220001CN0100001N9-03281-03611103831ADDAY101999GF100991001001999999001001MD1210041+9999MW1761
0057295480999991971021506004+55617+086417FM-12+999999999V0203601N00311220001CN0500001N9-02111-02391103601ADDAY101999GF100991001001999999001001MD1810091+9999MW1021
0057295480999991971021509004+55617+086417FM-12+999999999V0203601N00311220001CN0500001N9-01721-02221103491ADDAY101999GF102991001001999999001011MD1710061+9999MW1021
0081295480999991971021512004+55617+086417FM-12+999999999V0203601N00311007801CN0200001N9-02001-02391103641ADDAA199000091AY111999GF106991061051008001001001KA1999M-01721MD1810111+9999MW1031
0057295480999991971021515004+55617+086417FM-12+999999999V0203601N003119999999N0100001N9-02281-02611103441ADDAY121999GF108991031001022501041021MD1810221+9999MW1021
0057295480999991971021518004+55617+086417FM-12+999999999V0203601N003119999999N0100001N9-02281-02611103411ADDAY121999GF108991021001022501041021MD1610031+9999MW1021
0057295480999991971021521004+55617+086417FM-12+999999999V0203601N003119999999N0100001N9-02281-02611103371ADDAY121999GF108991021001022501041071MD1710051+9999MW1021
0106295480999991971021600004+55617+086417FM-12+999999999V0203601N00101220001CN0100001N9-02501-02781103321ADDAA199000091AY121999GF108991001001999999001071HL10009IA1319IA2999-02899KA1999N-02501MD1710071+9999MW1021
0057295480999991971021606004+55617+086417FM-12+999999999V0202001N00311220001CN0500001N9-01781-02391103131ADDAY121999GF105991001001999999001011MD1810081+9999MW1021
0057295480999991971021609004+55617+086417FM-12+999999999V0202301N00211021001CN0500001N9-01611-02281103111ADDAY121999GF107991051001022501031011MD1410001+9999MW1021
0081295480999991971021612004+55617+086417FM-12+999999999V0202301N00101220001CN0500001N9-02001-02501103121ADDAA199000091AY121999GF106991001001999999001011KA1999M-01611MD1810041+9999MW1021
0057295480999991971021615004+55617+086417FM-12+999999999V0209991C00001220001CN0020001N9-02391-02721103101ADDAY121999GF105991001001999999001021MD1710071+9999MW1101
0057295480999991971021618004+55617+086417FM-12+999999999V0209991C00001220001CN0020001N9-02781-03111103101ADDAY121999GF105991001001999999001021MD1710041+9999MW1101
0106295480999991971021700004+55617+086417FM-12+999999999V0209991C00001220001CN0020001N9-03111-03391102921ADDAA199000091AY121999GF106991001001999999001021HL10009IA1319IA2999-03509KA1999N-03111MD1710131+9999MW1101
0057295480999991971021703004+55617+086417FM-12+999999999V0209991C00001220001CN0010001N9-03221-03501102831ADDAY111999GF103991001001999999001021MD1710091+9999MW1101
0057295480999991971021706004+55617+086417FM-12+999999999V0209991C00001220001CN0040001N9-02221-02611102501ADDAY111999GF105991001001999999001021MD1810201+9999MW1101
0057295480999991971021709004+55617+086417FM-12+999999999V0209991C00001220001CN0100001N9-01112-01781102171ADDAY121999GF108991001001999999001071MD1710211+9999MW1021
0081295480999991971021712004+55617+086417FM-12+999999999V0209991C00001220001CN0100001N9-01221-01781101911ADDAA199000091AY121999GF108991001001999999001021KA1999M-01111MD1710261+9999MW1021
0057295480999991971021715004+55617+086417FM-12+999999999V0209991C000019999999N0040001N9-01111-01611101651ADDAY171999GF108991999999017501001999MD1710261+9999MW1711
0057295480999991971021718004+55617+086417FM-12+999999999V0201801N00211021001CN0040001N9-01001-01111101411ADDAY171999GF108991081001022501021999MD1710201+9999MW1711
0057295480999991971021721004+55617+086417FM-12+999999999V0201801N00101021001CN0040001N9-00891-01001101241ADDAY171999GF108991081001022501021999MD1710161+9999MW1711
0117295480999991971021800004+55617+086417FM-12+999999999V0209991C00001021001CN0100001N9-01001-01111101011ADDAA106012091AA299003091AY171999GF108991081001022501011999HL10009IA1319IA2999-01729KA1999N-01281MD1710231+9999MW1711
0057295480999991971021803004+55617+086417FM-12+999999999V0209991C00001021001CN0040001N9-00891-01001100671ADDAY171999GF108991081001022501011999MD1710331+9999MW1711
0057295480999991971021806004+55617+086417FM-12+999999999V0201601N00101007801CN0040001N9-00611-00781100361ADDAY171999GF107991071091008001001001MD1710281+9999MW1851
0057295480999991971021809004+55617+086417FM-12+999999999V0201801N00311007801CN0100001N9-00501-00891100201ADDAY181999GF108991061091008001001071MD1610141+9999MW1021
0092295480999991971021812004+55617+086417FM-12+999999999V0202501N00621004501CN0005001N9-00721-00891100011ADDAA106008091AA299002091AY181999GF108991081091004501999999KA1999M-00501MD1710201+9999MW1861
0057295480999991971021815004+55617+086417FM-12+999999999V0202001N00721075001CN0100001N9-01391-01721100481ADDAY181999GF107991021091008001001021MD1310381+9999MW1851
0057295480999991971021818004+55617+086417FM-12+999999999V0202301N00821220001CN0100001N9-01891-02281100911ADDAY181999GF108991001001999999001021MD1210381+9999MW1361
0092295480999991971021900004+55617+086417FM-12+999999999V0202301N01181021001CN0020001N9-02111-02501101281ADDAA106004091AA299001091AY131999GF108991081001022501021999KA1999N-02221MD1310231+9999MW1711
0057295480999991971021903004+55617+086417FM-12+999999999V0202001N00981021001CN0100001N9-02221-02611101531ADDAY171999GF108991081001022501011999MD1210231+9999MW1711
0057295480999991971021906004+55617+086417FM-12+999999999V0202001N01181021001CN0100001N9-02221-02611101741ADDAY171999GF108991081001022501011999MD1210211+9999MW1711
0057295480999991971021909004+55617+086417FM-12+999999999V0202301N01181021001CN0100001N9-02111-02501101891ADDAY171999GF108991081001022501011999MD1210151+9999MW1711
0092295480999991971021912004+55617+086417FM-12+999999999V0202301N00821021001CN0200001N9-02281-02721102131ADDAA106002091AA299000591AY171999GF108991081001022501011999KA1999M-02111MD1210211+9999MW1711
0057295480999991971021918004+55617+086417FM-12+999999999V0209991C00001220001CN0100001N9-03001-03281102411ADDAY171999GF105991001001999999001011MD1210111+9999MW1781
0057295480999991971022003004+55617+086417FM-12+999999999V0202301N00621021001CN0100001N9-03001-03391102761ADDAY171999GF108991081001022501021999MD1210171+9999MW1711
0057295480999991971022006004+55617+086417FM-12+999999999V0202301N00871021001CN0100001N9-03001-03391102921ADDAY171999GF108991081001022501011999MD1210161+9999MW1711
0057295480999991971022009004+55617+086417FM-12+999999999V0202301N00511007801CN0200001N9-03111-03721103161ADDAY171999GF107991071051008001001001MD1210231+9999MW1361
0092295480999991971022012004+55617+086417FM-12+999999999V0202301N00311220001CN0200001N9-03221-03611103471ADDAA106001091AA299000391AY131999GF108991001001999999001021KA1999M-03001MD1210281+9999MW1711
0057295480999991971022015004+55617+086417FM-12+999999999V0209991C00001220001CN0100001N9-03501-03891103791ADDAY171999GF105991001001999999001011MD1210281+9999MW1781
0057295480999991971022018004+55617+086417FM-12+999999999V0209991C00001220001CN0040001N9-03781-04111103921ADDAY171999GF105991001001999999001011MD1110081+9999MW1781
0057295480999991971022021004+55617+086417FM-12+999999999V0209991C00001220001CN0010001N9-04221-04501104061ADDAY171999GF101991001001999999001011MD1210101+9999MW1101
0117295480999991971022100004+55617+086417FM-12+999999999V0209991C00001220001CN0005001N9-04391-04721104211ADDAA106001091AA299000391AY171999GF100991001001999999001001HL10009IA1319IA2999-04619KA1999N-04391MD1210121+9999MW1441
0057295480999991971022103004+55617+086417FM-12+999999999V0209991C00001220001CN0002001N9-04281-04611104261ADDAY141999GF100991001001999999001001MD1110011+9999MW1461
0057295480999991971022106004+55617+086417FM-12+999999999V0209991C00001220001CN0200001N9-03111-03501104091ADDAY141999GF100991001001999999001001MD1810021+9999MW1021
0057295480999991971022109004+55617+086417FM-12+999999999V0209991C00001220001CN0200001N9-02721-03221103971ADDAY171999GF108991001001999999001071MD1810071+9999MW1711
0092295480999991971022112004+55617+086417FM-12+999999999V0209991C00001220001CN0200001N9-02891-03281104001ADDAA106075091AA224999999AY171999GF108991001001999999001011KA1999M-02721MD1410001+9999MW1021
0057295480999991971022115004+55617+086417FM-12+999999999V0209991C00001220001CN0100001N9-03281-03501103981ADDAY111999GF102991001001999999001011MD1810061+9999MW1011
0057295480999991971022118004+55617+086417FM-12+999999999V0209991C00001220001CN0100001N9-03501-03781103911ADDAY111999GF102991001001999999001011MD1710101+9999MW1761
0057295480999991971022121004+55617+086417FM-12+999999999V0209991C00001220001CN0100001N9-03891-04221103971ADDAY101999GF102991001001999999001011MD1410001+9999MW1761
0106295480999991971022200004+55617+086417FM-12+999999999V0209991C00001220001CN0020001N9-04501-04781103851ADDAA199000091AY101999GF102991001001999999001011HL10009IA1319IA2999-04399KA1999N-04501MD1810011+9999MW1101
0057295480999991971022203004+55617+086417FM-12+999999999V0209991C00001220001CN0020001N9-03781-04111103831ADDAY141999GF108991001001999999001071MD1710051+9999MW1711
0057295480999991971022206004+55617+086417FM-12+999999999V0209991C00001220001CN0200001N9-02501-03001103591ADDAY141999GF108991001001999999001071MD1710081+9999MW1781
0057295480999991971022209004+55617+086417FM-12+999999999V0203601N00211220001CN0200001N9-02281-02781103511ADDAY171999GF108991001001999999001071MD1710051+9999MW1711
0092295480999991971022212004+55617+086417FM-12+999999999V0203601N00311220001CN0200001N9-02721-03111103631ADDAA106001091AA299000391AY171999GF108991001001999999001071KA1999M-02281MD1310071+9999MW1711
0057295480999991971022215004+55617+086417FM-12+999999999V0203601N00311220001CN0100001N9-02721-03111103581ADDAY171999GF108991001001999999011021MD1810051+9999MW1711
0057295480999991971022218004+55617+086417FM-12+999999999V0203601N00311220001CN0100001N9-02781-03221103531ADDAY171999GF108991001001999999001021MD1710061+9999MW1021
0117295480999991971022300004+55617+086417FM-12+999999999V0203601N00511220001CN0100001N9-03111-03501103531ADDAA106001091AA299000391AY171999GF108991001001999999001021HL10009IA1319IA2999-03289KA1999N-03111MD1710031+9999MW1711
0057295480999991971022303004+55617+086417FM-12+999999999V0203601N00411220001CN0500001N9-03221-03611103451ADDAY111999GF102991001001999999001011MD1810091+9999MW1011
0057295480999991971022306004+55617+086417FM-12+999999999V0203601N00511220001CN0500001N9-02721-03111103361ADDAY111999GF100991001001999999001001MD1610031+9999MW1021
0057295480999991971022309004+55617+086417FM-12+999999999V0200501N00411220001CN0500001N9-02501-03001103341ADDAY101999GF100991001001999999001001MD1410001+9999MW1021
0081295480999991971022312004+55617+086417FM-12+999999999V0203601N00311220001CN0500001N9-02721-03221103471ADDAA199000091AY101999GF100991001001999999001001KA1999M-02281MD1310111+9999MW1021
0057295480999991971022315004+55617+086417FM-12+999999999V0203601N00211220001CN0100001N9-02891-03281103421ADDAY101999GF100991001001999999001001MD1810071+9999MW1021
0057295480999991971022318004+55617+086417FM-12+999999999V0203601N00821220001CN0100001N9-02611-03111103361ADDAY101999GF100991001001999999001001MD1610031+9999MW1021
0057295480999991971022321004+55617+086417FM-12+999999999V0203601N00511220001CN0100001N9-02781-03281103341ADDAY101999GF100991001001999999001001MD1310061+9999MW1021
0106295480999991971022400004+55617+086417FM-12+999999999V0203601N00411220001CN0100001N9-03001-03391103451ADDAA199000091AY101999GF100991001001999999001001HL10009IA1319IA2999-03509KA1999N-03001MD1810021+9999MW1021
0057295480999991971022403004+55617+086417FM-12+999999999V0203601N00511220001CN0200001N9-03001-03391103531ADDAY101999GF101991001001999999001011MD1310081+9999MW1021
0057295480999991971022406004+55617+086417FM-12+999999999V0203601N00511220001CN0500001N9-02391-03111103391ADDAY101999GF101991001001999999001011MD1810071+9999MW1021
0057295480999991971022409004+55617+086417FM-12+999999999V0200201N00511220001CN0500001N9-02221-03111103341ADDAY101999GF101991001001999999001011MD1610021+9999MW1021
0081295480999991971022412004+55617+086417FM-12+999999999V0200201N00411220001CN0200001N9-02501-03281103471ADDAA199000091AY101999GF100991001001999999001001KA1999M-02221MD1310091+9999MW1021
0043295480999991971022415004+55617+086417FM-12+999999999V0203601N00511220001CN0100001N9-02781-03501103521ADDAY101999GF100991001001999999001001MW1021
0057295480999991971022418004+55617+086417FM-12+999999999V0209991C00001220001CN0100001N9-03281-03721103501ADDAY101999GF100991001001999999001001MD1810091+9999MW1021
0057295480999991971022421004+55617+086417FM-12+999999999V0209991C00001220001CN0100001N9-03501-03891103461ADDAY101999GF100991001001999999001001MD1710071+9999MW1761
0106295480999991971022500004+55617+086417FM-12+999999999V0209991C00001220001CN0100001N9-03611-03891103501ADDAA199000091AY101999GF100991001001999999001001HL10009IA1319IA2999-04399KA1999N-03611MD1310031+9999MW1021
0057295480999991971022503004+55617+086417FM-12+999999999V0209991C00001220001CN0100001N9-03501-03891103461ADDAY101999GF100991001001999999001001MD1810021+9999MW1761
0057295480999991971022506004+55617+086417FM-12+999999999V0200201N00511220001CN0200001N9-02281-03001103161ADDAY101999GF100991001001999999001001MD1810161+9999MW1021
0057295480999991971022509004+55617+086417FM-12+999999999V0203601N00511220001CN0500001N9-02111-03111103141ADDAY101999GF100991001001999999001001MD1410001+9999MW1021
0081295480999991971022512004+55617+086417FM-12+999999999V0203601N00311220001CN0200001N9-02501-03391103241ADDAA199000091AY101999GF100991001001999999001001KA1999M-02111MD1310061+9999MW1021
0057295480999991971022515004+55617+086417FM-12+999999999V0200201N00511220001CN0100001N9-02501-03221103261ADDAY101999GF100991001001999999001001MD1110011+9999MW1021
0057295480999991971022518004+55617+086417FM-12+999999999V0200201N00621220001CN0100001N9-02611-03281103211ADDAY101999GF100991001001999999001001MD1810071+9999MW1021
0057295480999991971022521004+55617+086417FM-12+999999999V0203601N00411220001CN0100001N9-02781-03391103241ADDAY101999GF100991001001999999001001MD1310011+9999MW1021
0106295480999991971022600004+55617+086417FM-12+999999999V0203601N00511220001CN0100001N9-03001-03391103281ADDAA199000091AY101999GF100991001001999999001001HL10009IA1319IA2999-03289KA1999N-03001MD1210021+9999MW1021
0057295480999991971022603004+55617+086417FM-12+999999999V0203601N00621220001CN0500001N9-03111-03501103371ADDAY101999GF100991001001999999001001MD1310081+9999MW1021
0057295480999991971022606004+55617+086417FM-12+999999999V0203601N00511220001CN0500001N9-02391-02721103281ADDAY101999GF100991001001999999001001MD1810021+9999MW1021
0057295480999991971022609004+55617+086417FM-12+999999999V0203201N00511220001CN0500001N9-02221-03001103461ADDAY101999GF100991001001999999001001MD1310211+9999MW1021
0081295480999991971022612004+55617+086417FM-12+999999999V0203601N00311220001CN0500001N9-02391-03221103551ADDAA199000091AY101999GF100991001001999999001001KA1999M-02221MD1110061+9999MW1021
0057295480999991971022615004+55617+086417FM-12+999999999V0203601N00311220001CN0100001N9-02611-03111103601ADDAY101999GF100991001001999999001001MD1110021+9999MW1021
0057295480999991971022618004+55617+086417FM-12+999999999V0203601N00311220001CN0100001N9-03111-03501103651ADDAY101999GF100991001001999999001001MD1810021+9999MW1021
0057295480999991971022621004+55617+086417FM-12+999999999V0203601N00311220001CN0100001N9-03221-03721103401ADDAY101999GF100991001001999999001001MD1810021+9999MW1021
0087295480999991971022700004+55617+086417FM-12+999999999V0209991C00001220001CN0100001N9-03501-03891103671ADDAA199000091AY101999GF100991001001999999001001IA1319KA1999N-03501MD1310221+9999MW1021
0057295480999991971022703004+55617+086417FM-12+999999999V0209991C00001220001CN0200001N9-03281-03721103841ADDAY101999GF100991001001999999001001MD1310181+9999MW1021
0057295480999991971022706004+55617+086417FM-12+999999999V0203601N00721220001CN0500001N9-02281-03001103741ADDAY101999GF100991001001999999001001MD1110021+9999MW1021
0057295480999991971022709004+55617+086417FM-12+999999999V0203601N00511220001CN0500001N9-02001-02781103661ADDAY101999GF100991001001999999001001MD1810041+9999MW1021
0081295480999991971022712004+55617+086417FM-12+999999999V0200201N00411220001CN0500001N9-02281-03001103901ADDAA199000091AY101999GF100991001001999999001001KA1999M-02001MD1310201+9999MW1021
0057295480999991971022715004+55617+086417FM-12+999999999V0203601N00101220001CN0100001N9-02721-03221103981ADDAY101999GF100991001001999999001001MD1110031+9999MW1021
0057295480999991971022718004+55617+086417FM-12+999999999V0209991C00001220001CN0100001N9-03221-03611104051ADDAY101999GF100991001001999999001001MD1410001+9999MW1021
0057295480999991971022721004+55617+086417FM-12+999999999V0209991C00001220001CN0100001N9-03391-03781103961ADDAY101999GF100991001001999999001001MD1810101+9999MW1021
0125295480999991971022800004+55617+086417FM-12+999999999V0209991C00001220001CN0100001N9-03611-03891104091ADDAA199999999AY101999GF100991001001999999001001HL10009IA1319IA2999-04399KA1999N-03611MD1310101+9999MW1761EQDQ01  00002PRCP99
0092295480999991971022803004+55617+086417FM-12+999999999V0209991C00001220001CN0040001N9-03501-03891104081ADDAY101999GF100991001001999999001001MD1710011+9999MW1101EQDQ01+000042APCTENQ02+000802APC3  
0057295480999991971022806004+55617+086417FM-12+999999999V0200201N00211220001CN0500001N9-02111-02891103781ADDAY101999GF100991001001999999001001MD1810121+9999MW1021
0057295480999991971022809004+55617+086417FM-12+999999999V0200701N00871220001CN0500001N9-01891-02891103661ADDAY101999GF100991001001999999001001MD1710091+9999MW1021
0057295480999991971022815004+55617+086417FM-12+999999999V0209991C00001220001CN0100001N9-02781-03281103851ADDAY101999GF100991001001999999001001MD1810021+9999MW1021
0126295480999991971022818004+55617+086417FM-12+999999999V0209991C00001002101CN0100001N9-03221-03781103821ADDAY101999GA1061+002109089GF199999999999999999001001MW1761EQDQ01+000002SCOTCVQ02+000002SCOTLCQ03+000002SCOLCGQ04+000992SCOLCB
0125295480999991971030100004+55617+086417FM-12+999999999V0209991C00001220001CN0100001N9-03501-03891103801ADDAA199999999AY101999GF100991001001999999001001HL10009IA1319IA2999-04289KA1999N-03501MD1610011+9999MW1761EQDQ01  00002PRCP99
0057295480999991971030103004+55617+086417FM-12+999999999V0209991C00001220001CN0100001N9-03391-03781103971ADDAY101999GF100991001001999999001001MD1310181+9999MW1761
0057295480999991971030106004+55617+086417FM-12+999999999V0200501N00511220001CN0500001N9-02221-03111103691ADDAY101999GF100991001001999999001001MD1810131+9999MW1021
0057295480999991971030109004+55617+086417FM-12+999999999V0200501N00511220001CN0500001N9-01891-02891103551ADDAY101999GF100991001001999999001001MD1710101+9999MW1021
0081295480999991971030112004+55617+086417FM-12+999999999V0200501N00311220001CN0500001N9-02221-03111103891ADDAA199000091AY101999GF100991001001999999001001KA1999M-01891MD1310291+9999MW1021
0057295480999991971030115004+55617+086417FM-12+999999999V0209991C00001220001CN0100001N9-02781-03281104011ADDAY101999GF100991001001999999001001MD1110051+9999MW1021
0057295480999991971030118004+55617+086417FM-12+999999999V0209991C00001220001CN0100001N9-03221-03611104101ADDAY101999GF100991001001999999001001MD1210031+9999MW1021
0057295480999991971030121004+55617+086417FM-12+999999999V0209991C00001220001CN0100001N9-03221-03611104101ADDAY101999GF100991001001999999001001MD1410001+9999MW1021
0125295480999991971030200004+55617+086417FM-12+999999999V0209991C00001220001CN0100001N9-03391-03781104261ADDAA199999999AY101999GF100991001001999999001001HL10009IA1319IA2999-04289KA1999N-03501MD1310141+9999MW1761EQDQ01  00002PRCP99
0057295480999991971030203004+55617+086417FM-12+999999999V0209991C00001220001CN0200001N9-03281-03721104421ADDAY101999GF100991001001999999001001MD1210161+9999MW1761
0057295480999991971030206004+55617+086417FM-12+999999999V0209991C00001220001CN0500001N9-02002-02781104291ADDAY101999GF100991001001999999001001MD1110031+9999MW1021
0081295480999991971030212004+55617+086417FM-12+999999999V0203601N00101220001CN0500001N9-02001-02891104551ADDAA199000091AY101999GF100991001001999999001001KA1999M-01611MD1310201+9999MW1021
0057295480999991971030215004+55617+086417FM-12+999999999V0209991C00001220001CN0100001N9-02721-03221104801ADDAY101999GF100991001001999999001001MD1210171+9999MW1021
0057295480999991971030218004+55617+086417FM-12+999999999V0209991C00001220001CN0100001N9-03221-03611104941ADDAY101999GF100991001001999999001001MD1110081+9999MW1761
0057295480999991971030221004+55617+086417FM-12+999999999V0209991C00001220001CN0100001N9-03391-03781999999ADDAY101999GF100991001001999999001001MD1210061+9999MW1761
0125295480999991971030300004+55617+086417FM-12+999999999V0209991C00001220001CN0100001N9-03611-03891999999ADDAA199999999AY101999GF100991001001999999001001HL10009IA1319IA2999-04009KA1999N-03611MD1210101+9999MW1761EQDQ01  00002PRCP99
0057295480999991971030303004+55617+086417FM-12+999999999V0209991C00001220001CN0040001N9-03111-03501999999ADDAY101999GF103991001001999999001011MD1210061+9999MW1761
0057295480999991971030306004+55617+086417FM-12+999999999V0202001N00511220001CN0100001N9-02281-02781999999ADDAY171999GF106991001001999999001021MD1110021+9999MW1781
0057295480999991971030309004+55617+086417FM-12+999999999V0202001N00411220001CN0200001N9-02001-02611104961ADDAY171999GF105991001001999999001011MD1810081+9999MW1021
0092295480999991971030312004+55617+086417FM-12+999999999V0209991C00001220001CN0040001N9-02221-02611999999ADDAA106075091AA224999999AY171999GF106991001001999999001021KA1999M-02001MD1310021+9999MW1101
0057295480999991971030315004+55617+086417FM-12+999999999V0202301N00211220001CN0100001N9-02391-02721999999ADDAY111999GF102991001001999999001011MD1210041+9999MW1011
0057295480999991971030318004+55617+086417FM-12+999999999V0202301N00101220001CN0040001N9-02611-02891999999ADDAY111999GF100991001001999999001001MD1810021+9999MW1101
0059295480999991971030321004+55617+086417FM-12+999999999V0209991C00001220001CN0040001N9-02781+99999999999ADDAY101999GA1011+000909079GF199999999071022501999999MW1101
0125295480999991971030400004+55617+086417FM-12+999999999V0209991C00001220001CN0100001N9-03001-03281999999ADDAA199999999AY101999GF102991001001999999001021HL10009IA1319IA2999-03509KA1999N-03001MD1610011+9999MW1761EQDQ01  00002PRCP99
0057295480999991971030403004+55617+086417FM-12+999999999V0209991C00001220001CN0040001N9-02721-03001999999ADDAY101999GF102991001001999999001021MD1310071+9999MW1101
0057295480999991971030406004+55617+086417FM-12+999999999V0202001N00311220001CN0040001N9-02221-02721104971ADDAY101999GF102991001001999999001011MD1810081+9999MW1101
0043295480999991971030409004+55617+086417FM-12+999999999V0202301N00511220001CN0100001N9-01891-02501104851ADDAY101999GF102991001001999999001011MW1021
0081295480999991971030412004+55617+086417FM-12+999999999V0202301N00311220001CN0200001N9-02111-02721104841ADDAA199000091AY101999GF101991001001999999001021KA1999M-01891MD1610021+9999MW1021
0057295480999991971030415004+55617+086417FM-12+999999999V0209991C00001220001CN0100001N9-02611-02891104871ADDAY101999GF100991001001999999001001MD1710021+9999MW1021
0057295480999991971030418004+55617+086417FM-12+999999999V0209991C00001220001CN0040001N9-03001-03281104871ADDAY101999GF100991001001999999001001MD1810051+9999MW1101
0106295480999991971030500004+55617+086417FM-12+999999999V0209991C00001220001CN0020001N9-03501-03891104821ADDAA199000091AY101999GF102991001001999999001021HL10009IA1319IA2999-03789KA1999N-03501MD1610031+9999MW1101
0057295480999991971030503004+55617+086417FM-12+999999999V0209991C00001220001CN0010001N9-03221-03501104771ADDAY141999GF102991001001999999001011MD1610021+9999MW1761
0057295480999991971030506004+55617+086417FM-12+999999999V0202301N00211220001CN0040001N9-02001-02611104481ADDAY141999GF101991001001999999001011MD1810141+9999MW1101
0057295480999991971030509004+55617+086417FM-12+999999999V0203201N00311220001CN0500001N9-01611-02501104241ADDAY101999GF100991001001999999001001MD1710191+9999MW1021
0081295480999991971030512004+55617+086417FM-12+999999999V0202301N00311220001CN0500001N9-02001-02781104171ADDAA199000091AY101999GF100991001001999999001001KA1999M-01501MD1610011+9999MW1021
0057295480999991971030515004+55617+086417FM-12+999999999V0209991C00001220001CN0100001N9-02611-03111104371ADDAY101999GF100991001001999999001001MD1810041+9999MW1021
0057295480999991971030518004+55617+086417FM-12+999999999V0209991C00001220001CN0100001N9-03221-03611104371ADDAY101999GF100991001001999999001001MD1410001+9999MW1021
0057295480999991971030521004+55617+086417FM-12+999999999V0209991C00001220001CN0040001N9-03391-03781104441ADDAY101999GF100991001001999999001001MD1310031+9999MW1101
0106295480999991971030600004+55617+086417FM-12+999999999V0209991C00001220001CN0010001N9-03611-03891104471ADDAA199000091AY101999GF100991001001999999001001HL10009IA1319IA2999-04009KA1999N-03611MD1410001+9999MW1101
0057295480999991971030606004+55617+086417FM-12+999999999V0201801N00311220001CN0200001N9-01781-02611104201ADDAY141999GF100991001001999999001001MD1810061+9999MW1021
0057295480999991971030609004+55617+086417FM-12+999999999V0202701N00101220001CN0500001N9-01281-02391104101ADDAY101999GF100991001001999999001001MD1710061+9999MW1021
0081295480999991971030612004+55617+086417FM-12+999999999V0209991C00001220001CN0200001N9-01721-02611104161ADDAA199000091AY101999GF100991001001999999001001KA1999M-01221MD1310021+9999MW1021
0057295480999991971030615004+55617+086417FM-12+999999999V0209991C00001220001CN0100001N9-02391-02891104301ADDAY101999GF100991001001999999001001MD1310071+9999MW1021
0057295480999991971030618004+55617+086417FM-12+999999999V0209991C00001220001CN0100001N9-02781-03221104331ADDAY101999GF100991001001999999001001MD1810031+9999MW1761
0057295480999991971030621004+55617+086417FM-12+999999999V0209991C00001220001CN0100001N9-03221-03611104391ADDAY101999GF100991001001999999001001MD1310011+9999MW1761
0106295480999991971030700004+55617+086417FM-12+999999999V0209991C00001220001CN0100001N9-03391-03781104411ADDAA199000091AY101999GF100991001001999999001001HL10009IA1319IA2999-03789KA1999N-03391MD1410001+9999MW1021
0057295480999991971030703004+55617+086417FM-12+999999999V0209991C00001220001CN0200001N9-03001-03391104401ADDAY101999GF101991001001999999001011MD1310041+9999MW1021
0076295480999991971030706004+55617+086417FM-12+999999999V0209991C00001220001CN0500001N9-01282-02112104171ADDAY101999GF100991001001999999001001MD1810041+9999MW1021EQDQ01+026043ATOT  
0057295480999991971030709004+55617+086417FM-12+999999999V0209991C00001220001CN0500001N9-00891-02111104041ADDAY101999GF100991001001999999001001MD1810081+9999MW1021
0081295480999991971030712004+55617+086417FM-12+999999999V0202001N00311220001CN0500001N9-01501-02281104131ADDAA199000091AY101999GF103991001001999999001021KA1999M-00891MD1310031+9999MW1021
0057295480999991971030715004+55617+086417FM-12+999999999V0209991C00001220001CN0100001N9-02001-02891104271ADDAY111999GF108991001001999999001071MD1310081+9999MW1031
0125295480999991971030800004+55617+086417FM-12+999999999V0209991C00001220001CN0020001N9-02891-03221104541ADDAA199999999AY101999GF102991001001999999001011HL10009IA1319IA2999-03399KA1999N-02891MD1210051+9999MW1761EQDQ01  00002PRCP99
0057295480999991971030803004+55617+086417FM-12+999999999V0209991C00001220001CN0040001N9-02501-02781104601ADDAY101999GF102991001001999999001011MD1310111+9999MW1761
0057295480999991971030806004+55617+086417FM-12+999999999V0202001N00211220001CN0200001N9-01391-01781104541ADDAY101999GF101991001001999999001011MD1110051+9999MW1021
0057295480999991971030809004+55617+086417FM-12+999999999V0202301N00311220001CN0100001N9-01221-01891104541ADDAY101999GF108991001001999999001011MD1110021+9999MW1021
0081295480999991971030812004+55617+086417FM-12+999999999V0202301N00211220001CN0040001N9-01391-02001104621ADDAA199000091AY101999GF101991001001999999001011KA1999M-01221MD1310071+9999MW1101
0057295480999991971030815004+55617+086417FM-12+999999999V0209991C00001220001CN0040001N9-01891-02221104761ADDAY101999GF100991001001999999001001MD1210081+9999MW1101
0057295480999991971030818004+55617+086417FM-12+999999999V0209991C00001220001CN0040001N9-02221-02501104881ADDAY101999GF100991001001999999001001MD1210091+9999MW1761
0057295480999991971030821004+55617+086417FM-12+999999999V0209991C00001220001CN0040001N9-02221-02501104881ADDAY101999GF100991001001999999001001MD1210091+9999MW1761
0125295480999991971030900004+55617+086417FM-12+999999999V0209991C00001220001CN0040001N9-02501-02781999999ADDAA199999999AY111999GF106991001001999999001021HL10009IA1319IA2999-03399KA1999N-02501MD1110041+9999MW1761EQDQ01  00002PRCP99
0057295480999991971030906004+55617+086417FM-12+999999999V0202001N00511220001CN0200001N9-01391-02001999999ADDAY111999GF102991001001999999001021MD1110071+9999MW1021
0057295480999991971030909004+55617+086417FM-12+999999999V0202001N00511220001CN0200001N9-01281-01891999999ADDAY111999GF108991001001999999001071MD1810061+9999MW1031
0081295480999991971030912004+55617+086417FM-12+999999999V0202301N00311220001CN0200001N9-01391-02111999999ADDAA199000091AY111999GF108991001001999999001011KA1999M-01221MD1310041+9999MW1021
0057295480999991971030915004+55617+086417FM-12+999999999V0209991C00001220001CN0100001N9-02001-02391999999ADDAY111999GF102991001001999999001011MD1110021+9999MW1011
0057295480999991971030918004+55617+086417FM-12+999999999V0209991C00001220001CN0100001N9-02221-02501999999ADDAY111999GF102991001001999999001011MD1410001+9999MW1021
0057295480999991971030921004+55617+086417FM-12+999999999V0209991C00001220001CN0100001N9-02721-02891999999ADDAY101999GF101991001001999999001011MD1310081+9999MW1761
0125295480999991971031000004+55617+086417FM-12+999999999V0209991C00001220001CN0100001N9-03001-03281999999ADDAA199999999AY101999GF101991001001999999001011HL10009IA1319IA2999-03399KA1999N-03001MD1810071+9999MW1761EQDQ01  00002PRCP99
0076295480999991971031003004+55617+086417FM-12+999999999V0209991C00001220001CN0200001N9+99999+99999999999ADDAY101999GF100991001001999999001001MD1010722+9999MW1021EQDQ01+000722APC3  
0057295480999991971031006004+55617+086417FM-12+999999999V0200501N00311220001CN0500001N9-01001-02001104851ADDAY101999GF102991001001999999001021MD1810171+9999MW1021
0057295480999991971031009004+55617+086417FM-12+999999999V0200201N00311220001CN0500001N9-00721-01781104731ADDAY101999GF102991001001999999001011MD1610091+9999MW1021
0081295480999991971031012004+55617+086417FM-12+999999999V0203601N00411220001CN0500001N9-01001-02001104751ADDAA199000091AY101999GF102991001001999999001011KA1999M-00501MD1610041+9999MW1021
0057295480999991971031015004+55617+086417FM-12+999999999V0209991C00001220001CN0100001N9-01391-02111104711ADDAY101999GF102991001001999999001011MD1710051+9999MW1021
0057295480999991971031018004+55617+086417FM-12+999999999V0209991C00001220001CN0100001N9-01891-02221104671ADDAY101999GF100991001001999999001001MD1810101+9999MW1021
0057295480999991971031021004+55617+086417FM-12+999999999V0209991C00001220001CN0100001N9-02111-02391104661ADDAY101999GF100991001001999999001001MD1610021+9999MW1021
0106295480999991971031100004+55617+086417FM-12+999999999V0209991C00001220001CN0100001N9-02221-02501104681ADDAA199000091AY101999GF100991001001999999001001HL10009IA1009IA2999-03119KA1999N-02281MD1410001+9999MW1021
0057295480999991971031103004+55617+086417FM-12+999999999V0209991C00001220001CN0200001N9-02001-02281104671ADDAY101999GF100991001001999999001001MD1310011+9999MW1021
0057295480999991971031106004+55617+086417FM-12+999999999V0200501N00311220001CN0500001N9-00611-01721104411ADDAY101999GF100991001001999999001001MD1810101+9999MW1021
0057295480999991971031109004+55617+086417FM-12+999999999V0200201N00311220001CN0500001N9-00391-01721104291ADDAY101999GF100991001001999999001001MD1710091+9999MW1021
0081295480999991971031112004+55617+086417FM-12+999999999V0200501N00511220001CN0500001N9-00611-01781104311ADDAA199000091AY101999GF100991001001999999001001KA1999M-00391MD1410001+9999MW1021
0057295480999991971031115004+55617+086417FM-12+999999999V0200501N00311220001CN0100001N9-00891-01781104251ADDAY101999GF100991001001999999001001MD1810091+9999MW1021
0057295480999991971031118004+55617+086417FM-12+999999999V0209991C00001220001CN0100001N9-01391-01891104131ADDAY101999GF100991001001999999001001MD1710171+9999MW1021
0106295480999991971031200004+55617+086417FM-12+999999999V0209991C00001220001CN0100001N9-02001-02281103941ADDAA199000091AY101999GF100991001001999999001001HL10009IA1319IA2999-02789KA1999N-02001MD1710131+9999MW1021
0057295480999991971031203004+55617+086417FM-12+999999999V0209991C00001220001CN0200001N9-01111-01781103751ADDAY101999GF100991001001999999001001MD1710091+9999MW1021
0057295480999991971031206004+55617+086417FM-12+999999999V0200701N00511220001CN0500001N9-00111-01721103481ADDAY101999GF100991001001999999001001MD1710171+9999MW1021
0057295480999991971031209004+55617+086417FM-12+999999999V0200701N00621220001CN0500001N9-00111-01611103351ADDAY101999GF100991001001999999001001MD1710121+9999MW1021
0081295480999991971031212004+55617+086417FM-12+999999999V0200701N00511220001CN0500001N9-00281-01611103431ADDAA199000091AY101999GF100991001001999999001001KA1999M+00001MD1310051+9999MW1021
0057295480999991971031218004+55617+086417FM-12+999999999V0200201N00101220001CN0100001N9-00611-02001103261ADDAY101999GF100991001001999999001001MD1810131+9999MW1021
0057295480999991971031221004+55617+086417FM-12+999999999V0200501N00211220001CN0100001N9-01111-01891103241ADDAY101999GF100991001001999999001001MD1610081+9999MW1021
0106295480999991971031300004+55617+086417FM-12+999999999V0209991C00001220001CN0100001N9-01391-01891103271ADDAA199000091AY101999GF100991001001999999001001HL10009IA1319IA2999-02399KA1999N-01501MD1410001+9999MW1021
0057295480999991971031303004+55617+086417FM-12+999999999V0200201N00311220001CN0500001N9-01001-01721103251ADDAY101999GF100991001001999999001001MD1310021+9999MW1021
0057295480999991971031306004+55617+086417FM-12+999999999V0200201N00311220001CN0500001N9-00281-01501103161ADDAY101999GF100991001001999999001001MD1810091+9999MW1021
0057295480999991971031309004+55617+086417FM-12+999999999V0200501N00511220001CN0500001N9+00001-01391102991ADDAY101999GF100991001001999999001001MD1710061+9999MW1021
0081295480999991971031312004+55617+086417FM-12+999999999V0203601N00311220001CN0500001N9-00281-01501103061ADDAA199000091AY101999GF100991001001999999001001KA1999M+00001MD1310041+9999MW1021
0057295480999991971031318004+55617+086417FM-12+999999999V0200501N00311220001CN0100001N9-00781-01891103101ADDAY101999GF100991001001999999001001MD1710011+9999MW1021
0057295480999991971031321004+55617+086417FM-12+999999999V0200501N00311220001CN0100001N9-01001-01781103141ADDAY101999GF100991001001999999001001MD1310031+9999MW1021
0106295480999991971031400004+55617+086417FM-12+999999999V0209991C00001220001CN0100001N9-01611-01891103301ADDAA199000091AY101999GF100991001001999999001001HL10009IA1209IA2999-02229KA1999N-01611MD1310101+9999MW1021
0057295480999991971031403004+55617+086417FM-12+999999999V0203601N00101220001CN0200001N9-00891-01611103301ADDAY101999GF100991001001999999001001MD1210071+9999MW1021
0057295480999991971031406004+55617+086417FM-12+999999999V0200501N00511220001CN0500001N9-00221-01281103171ADDAY101999GF100991001001999999001001MD1810061+9999MW1021
0057295480999991971031409004+55617+086417FM-12+999999999V0200501N00511220001CN0500001N9+00001-01501103041ADDAY101999GF100991001001999999001001MD1710111+9999MW1021
0081295480999991971031412004+55617+086417FM-12+999999999V0200501N00511220001CN0500001N9-00281-01501102981ADDAA199000091AY101999GF100991001001999999001001KA1999M+00001MD1710081+9999MW1021
0057295480999991971031415004+55617+086417FM-12+999999999V0200501N00311220001CN0100001N9-00501-01611102881ADDAY101999GF100991001001999999001001MD1710121+9999MW1021
0057295480999991971031418004+55617+086417FM-12+999999999V0200501N00101220001CN0100001N9-00611-01611102581ADDAY101999GF100991001001999999001001MD1810291+9999MW1021
0057295480999991971031421004+55617+086417FM-12+999999999V0200501N00101220001CN0100001N9-00781-01781102321ADDAY101999GF101991001001999999001011MD1710281+9999MW1021
0106295480999991971031500004+55617+086417FM-12+999999999V0200201N00311220001CN0100001N9-01001-01891102121ADDAA199000091AY111999GF105991001001999999001011HL10009IA1209IA2999-01789KA1999N-01111MD1710211+9999MW1031
0057295480999991971031503004+55617+086417FM-12+999999999V0203601N00311220001CN0500001N9-00891-02001101891ADDAY121999GF107991001001999999001081MD1710211+9999MW1021
0057295480999991971031506004+55617+086417FM-12+999999999V0200501N003119999999N0500001N9-00221-01611101711ADDAY121999GF108991021001022501041071MD1610111+9999MW1021
0057295480999991971031509004+55617+086417FM-12+999999999V0200501N00211021001CN0500001N9+00001-01221101671ADDAY121999GF108991081001022501071999MD1610031+9999MW1021
0092295480999991971031512004+55617+086417FM-12+999999999V0200501N00101021001CN0040001N9-00281-00391101831ADDAA106004091AA299001091AY171999GF108991081001022501021999KA1999M+00111MD1310131+9999MW1711
0057295480999991971031515004+55617+086417FM-12+999999999V0202301N00311021001CN0040001N9-00221-00281101961ADDAY171999GF108991081001022501021999MD1210141+9999MW1711
0057295480999991971031518004+55617+086417FM-12+999999999V0202301N00511021001CN0100001N9-00281-00501102211ADDAY171999GF108991081001022501021999MD1210231+9999MW1711
0117295480999991971031600004+55617+086417FM-12+999999999V0202301N00411021001CN0100001N9-00391-00611102601ADDAA106008091AA299002091AY171999GF108991081001022501021999HL10009IA1319IA2999-00399KA1999N-00391MD1210171+9999MW1711
0057295480999991971031603004+55617+086417FM-12+999999999V0202301N00311004501CN0040001N9-00391-00501102791ADDAY171999GF108991081051004501999999MD1210191+9999MW1771
0057295480999991971031606004+55617+086417FM-12+999999999V0202301N00511004501CN0100001N9-00281-00501102801ADDAY171999GF108991081091004501999999MD1110021+9999MW1851
0057295480999991971031609004+55617+086417FM-12+999999999V0202001N00721004501CN0100001N9-00221-00501102761ADDAY171999GF108991081061004501999999MD1810031+9999MW1771
0092295480999991971031612004+55617+086417FM-12+999999999V0202001N00621004501CN0200001N9-00111-00391102611ADDAA106002091AA299000591AY171999GF108991081051004501999999KA1999M-00111MD1810111+9999MW1771
0057295480999991971031615004+55617+086417FM-12+999999999V0201801N00621004501CN0100001N9-00111-00281102441ADDAY171999GF108991081051004501999999MD1710171+9999MW1771
0057295480999991971031618004+55617+086417FM-12+999999999V0201901N00511004501CN0100001N9-00221-00281102061ADDAY171999GF108991081051004501999999MD1810371+9999MW1021
0117295480999991971031700004+55617+086417FM-12+999999999V0209991C000019999999N0100001N9-00221-00391101281ADDAA106075091AA224999999AY121999GF108991021001022501041021HL10009IA1209IA2999-00619KA1999N-00221MD1710391+9999MW1021
0057295480999991971031703004+55617+086417FM-12+999999999V0201801N00511007801CN0200001N9+00281-00391100921ADDAY121999GF108991081051008001999999MD1710311+9999MW1021
0057295480999991971031706004+55617+086417FM-12+999999999V0202501N00721220001CN0200001N9+00501-00501100821ADDAY121999GF108991001001999999001071MD1610081+9999MW1021
0057295480999991971031709004+55617+086417FM-12+999999999V0202001N00721007801CN0200001N9+00501-00391100651ADDAY121999GF108991081051008001999999MD1810161+9999MW1021
0081295480999991971031712004+55617+086417FM-12+999999999V0202301N00821007801CN0200001N9+00501+00001100611ADDAA199000091AY121999GF108991081051008001999999KA1999M+00611MD1610041+9999MW1021
0043295480999991971031715004+55617+086417FM-12+999999999V0202301N00871007801CN0100001N9+00221+00001100651ADDAY161999GF108991081051008001999999MW1211
0057295480999991971031718004+55617+086417FM-12+999999999V0202301N00821004501CN0040001N9+00001+00001100821ADDAY161999GF108991081051004501999999MD1310151+9999MW1711
0057295480999991971031721004+55617+086417FM-12+999999999V0202301N00821004501CN0100001N9+00001-00221100771ADDAY171999GF108991081051004501999999MD1810051+9999MW1021
0117295480999991971031800004+55617+086417FM-12+999999999V0202301N01181004501CN0010001N9-00221-00281100521ADDAA106008091AA299002091AY181999GF108991081091004501999999HL10009IA1209IA2999-00119KA1999N-00221MD1810261+9999MW1861
0057295480999991971031806004+55617+086417FM-12+999999999V0202301N01591004501CN0100001N9-00391-00781100491ADDAY181999GF108991081091004501999999MD1810071+9999MW1851
0057295480999991971031809004+55617+086417FM-12+999999999V0202301N01181004501CN0010001N9-00391-00611100491ADDAY181999GF108991081081004501999999MD1410001+9999MW1861
0092295480999991971031812004+55617+086417FM-12+999999999V0202301N01181004501CN0020001N9-00391-00501100591ADDAA106008091AA299002091AY181999GF108991081091004501999999KA1999M-00221MD1310101+9999MW1851
0057295480999991971031815004+55617+086417FM-12+999999999V0202501N00981004501CN0020001N9-00501-00611100921ADDAY181999GF108991081091004501999999MD1310321+9999MW1851
0070295480999991971031818004+55617+086417FM-12+999999999V0202701N00821004501CN0200001N9-00781-01111101441ADDAY181999GF107991071091004501001001MD1310481+9999EQDQ01+000582PRSWM1
0057295480999991971031821004+55617+086417FM-12+999999999V0202301N00211220001CN0100001N9-01001-01281101801ADDAY181999GF102991001001999999001011MD1210321+9999MW1011
0117295480999991971031900004+55617+086417FM-12+999999999V0202301N00511007801CN0040001N9-01001-01221101931ADDAA106008091AA299002091AY181999GF108991081051008001999999HL10009IA1319IA2999-01509KA1999N-01001MD1110131+9999MW1711
0057295480999991971031903004+55617+086417FM-12+999999999V0202301N00621030001CN0100001N9-00891-01111102071ADDAY171999GF108991031071004501011999MD1210151+9999MW1711
0057295480999991971031906004+55617+086417FM-12+999999999V0202301N00821007801CN0040001N9-00611-01001102131ADDAY171999GF107991071091008001001001MD1110081+9999MW1851
0057295480999991971031909004+55617+086417FM-12+999999999V0202301N00411007801CN0200001N9-00611-01001102201ADDAY181999GF107991071091008001001001MD1210071+9999MW1851
0092295480999991971031912004+55617+086417FM-12+999999999V0202301N00411007801CN0200001N9-00721-00891102311ADDAA106004091AA299001091AY181999GF107991061091008001041001KA1999M-00611MD1210101+9999MW1851
0057295480999991971031915004+55617+086417FM-12+999999999V0202301N00211007801CN0100001N9-00611-00891102341ADDAY181999GF108991081051008001999999MD1110031+9999MW1021
0057295480999991971031918004+55617+086417FM-12+999999999V0209991C00001007801CN0100001N9-00611-00781102401ADDAY171999GF108991081051008001999999MD1210061+9999MW1711
0057295480999991971031921004+55617+086417FM-12+999999999V0209991C00001007801CN0100001N9-00721-00891102441ADDAY171999GF108991081051008001999999MD1210031+9999MW1711
0117295480999991971032000004+55617+086417FM-12+999999999V0209991C00001007801CN0100001N9-00781-00891102511ADDAA106004091AA299001091AY171999GF107991071051008001001001HL10009IA1319IA2999-00899KA1999N-00781MD1210061+9999MW1711
0057295480999991971032003004+55617+086417FM-12+999999999V0201801N00311007801CN0100001N9-00721-00891102561ADDAY171999GF107991071051008001001001MD1210071+9999MW1711
0057295480999991971032006004+55617+086417FM-12+999999999V0201801N00311007801CN0200001N9-00501-00891102641ADDAY171999GF106991061081008001001001MD1210091+9999MW1021
0057295480999991971032009004+55617+086417FM-12+999999999V0202001N00511007801CN0200001N9-00281-00891102581ADDAY181999GF108991061081008001001021MD1810041+9999MW1021
0092295480999991971032012004+55617+086417FM-12+999999999V0202001N00311007801CN0100001N9-00391-00611102571ADDAA106001091AA299000391AY181999GF108991061081008001001021KA1999M-00281MD1710021+9999MW1851
0057295480999991971032015004+55617+086417FM-12+999999999V0202301N00411007801CN0100001N9-00391-00611102471ADDAY181999GF108991081051008001999999MD1810101+9999MW1711
0057295480999991971032018004+55617+086417FM-12+999999999V0202001N00621007801CN0100001N9-00391-00611102311ADDAY171999GF108991081051008001999999MD1710161+9999MW1711
0117295480999991971032100004+55617+086417FM-12+999999999V0202001N00621021001CN0100001N9-00611-00891101911ADDAA106001091AA299000391AY171999GF108991081001022501071999HL10009IA1319IA2999-00899KA1999N-00611MD1710201+9999MW1021
0057295480999991971032106004+55617+086417FM-12+999999999V0201801N00721220001CN0200001N9-00281-01001101911ADDAY131999GF108991001001999999001071MD1810341+9999MW1361
0111295480999991971032112004+55617+086417FM-12+999999999V0201801N01181007801CN0200001N9-00221-00391100842ADDAA106075091AA224999999AY171999GF108991081051008001999999KA1999M+00001MD1610141+9999MW1771EQDQ01+100843APOSLP
0057295480999991971032115004+55617+086417FM-12+999999999V0202301N00311220001CN0100001N9-00221-00721100861ADDAY171999GF108991001001999999001021MD1310011+9999MW1021
0057295480999991971032118004+55617+086417FM-12+999999999V0209991C00001220001CN0100001N9-00611-01111101151ADDAY171999GF103991001001999999001011MD1310251+9999MW1011
0057295480999991971032121004+55617+086417FM-12+999999999V0201801N00211220001CN0100001N9-00781-01111101361ADDAY101999GF103991001001999999011011MD1210181+9999MW1021
