0101295400999991971010100004+56083+086033FM-12+999999999V0209991C00001220001CN0200001N9-02781-03001103821ADDAY101999GF100991001001999999001001HL10009IA1319IA2999-03229MD1010782+9999MW1021EQDQ01+000782APC3  
0057295400999991971010106004+56083+086033FM-12+999999999V0209991C00001220001CN0100001N9-02611-02891103831ADDAY101999GF100991001001999999001001MD1810031+9999MW1021
0057295400999991971010109004+56083+086033FM-12+999999999V0209991C00001220001CN0100001N9-02221-02721103801ADDAY101999GF100991001001999999001001MD1410001+9999MW1021
0081295400999991971010112004+56083+086033FM-12+999999999V0209991C00001220001CN0180001N9-02611-02891103871ADDAA199000091AY101999GF100991001001999999001001KA1999M-02221MD1210041+9999MW1021
0057295400999991971010115004+56083+086033FM-12+999999999V0209991C00001220001CN0160001N9-02891-03281103811ADDAY101999GF100991001001999999001001MD1810101+9999MW1021
0057295400999991971010118004+56083+086033FM-12+999999999V0209991C00001220001CN0100001N9-02781-03111103811ADDAY101999GF102991001001999999001011MD1710021+9999MW1031
0076295400999991971010121004+56083+086033FM-12+999999999V0209991C00001220001CN0090001N9-02781-03001103691ADDAY101999GF104991001001999999001071MD1810121+9999MW1021EQDQ01+000702APC3  
0106295400999991971010200004+56083+086033FM-12+999999999V0209991C00001220001CN0100001N9-02781-03111103561ADDAA199000091AY101999GF104991001001999999001011HL10009IA1319IA2999-03399KA1999N-03001MD1710121+9999MW1021
0057295400999991971010206004+56083+086033FM-12+999999999V0202001N00721220001CN0100001N9-01221-01721103071ADDAY131999GF108991001001999999001091MD1710171+9999MW1361
0057295400999991971010209004+56083+086033FM-12+999999999V0202001N01181024001CN0100001N9-01001-01391102821ADDAY131999GF108991061001999999031011MD1710231+9999MW1361
0081295400999991971010212004+56083+086033FM-12+999999999V0202001N01391024001CN0090001N9-00891-01281102651ADDAA199000091AY131999GF108991061001999999031071KA1999M-00891MD1710161+9999MW1381
0057295400999991971010215004+56083+086033FM-12+999999999V0201801N01181024001CN0060001N9-00781-01111102461ADDAY131999GF108991081001999999021999MD1710181+9999MW1381
0057295400999991971010218004+56083+086033FM-12+999999999V0201801N01181024001CN0046001N9-00781-01001102261ADDAY171999GF108991081001999999021999MD1710201+9999MW1711
0057295400999991971010221004+56083+086033FM-12+999999999V0202001N01391024001CN0038001N9-00611-00781101931ADDAY171999GF108991081001999999021999MD1710311+9999MW1711
0117295400999991971010300004+56083+086033FM-12+999999999V0202001N01391024001CN0039001N9-00391-00501101721ADDAA106016091AA299004091AY171999GF108991081001999999021999HL10009IA1319IA2999-01009KA1999N-00891MD1710191+9999MW1711
0057295400999991971010303004+56083+086033FM-12+999999999V0202301N01391024001CN0040001N9-00501-00611101591ADDAY171999GF108991081001999999021999MD1710131+9999MW1711
0057295400999991971010306004+56083+086033FM-12+999999999V0202001N01801030001CN0020001N9-00391-00721101381ADDAY171999GF108991021071004501011999MD1710201+9999MW1711
0057295400999991971010309004+56083+086033FM-12+999999999V0202001N01801024001CN0020001N9-00281-00891101051ADDAY171999GF108991081001999999021999MD1710391+9999MW1711
0092295400999991971010312004+56083+086033FM-12+999999999V0202001N01801024001CN0016001N9-00391-00721100921ADDAA106016091AA299004091AY171999GF108991081001999999021999KA1999M-00221MD1710121+9999MW1711
0057295400999991971010318004+56083+086033FM-12+999999999V0202001N02011024001CN0018001N9-00281-00501100521ADDAY171999GF108991081001999999021999MD1710161+9999MW1711
0057295400999991971010321004+56083+086033FM-12+999999999V0202001N02011024001CN0021001N9-00281-00721100491ADDAY171999GF108991081001999999021999MD1110041+9999MW1711
0057295400999991971010403004+56083+086033FM-12+999999999V0202301N01391220001CN0040001N9-00891-01111100831ADDAY171999GF106991021071004501001011MD1210251+9999MW1381
0092295400999991971010406004+56083+086033FM-12+999999999V0202301N01181024001CN0040001N9-01001-01391101181ADDAA106071091AA299018091AY171999GF108991081001999999021999KA1999N-02001MD1210211+9999MW1711
0057295400999991971010409004+56083+086033FM-12+999999999V0202001N01181024001CN0040001N9-01001-01391101271ADDAY171999GF108991081001999999021999MD1210191+9999MW1711
0092295400999991971010412004+56083+086033FM-12+999999999V0202301N00821024001CN0044001N9-01111-01501101481ADDAA106004091AA299001091AY171999GF108991081001999999021999KA1999M-00891MD1210211+9999MW1711
0057295400999991971010418004+56083+086033FM-12+999999999V0202301N00621024001CN0060001N9-01221-01611102041ADDAY171999GF108991081001999999021999MD1210201+9999MW1711
0057295400999991971010421004+56083+086033FM-12+999999999V0202501N00621220001CN0160001N9-01501-01891102521ADDAY171999GF100991001001999999001001MD1210451+9999MW1011
0117295400999991971010500004+56083+086033FM-12+999999999V0202001N00511220001CN0200001N9-01891-02221102981ADDAA106004091AA299001091AY101999GF100991001001999999001001HL10009IA1319IA2999-02119KA1999N-01891MD1210431+9999MW1021
0057295400999991971010503004+56083+086033FM-12+999999999V0202001N00621220001CN0100001N9-02001-02281103371ADDAY111999GF106991001001999999001011MD1210371+9999MW1031
0057295400999991971010506004+56083+086033FM-12+999999999V0202001N00311220001CN0100001N9-01721-02111103511ADDAY121999GF106991001001999999001011MD1210151+9999MW1021
0057295400999991971010509004+56083+086033FM-12+999999999V0202001N00821220001CN0100001N9-01611-02111103591ADDAY131999GF106991001001999999001011MD1210101+9999MW1361
0081295400999991971010512004+56083+086033FM-12+999999999V0202001N00981220001CN0280001N9-01611-02111103741ADDAA199000091AY131999GF106991001001999999001011KA1999M-01611MD1210141+9999MW1361
0057295400999991971010515004+56083+086033FM-12+999999999V0202301N00981220001CN0170001N9-01721-02001103701ADDAY131999GF106991001001999999001011MD1210041+9999MW1361
0057295400999991971010518004+56083+086033FM-12+999999999V0202001N00981220001CN0150001N9-01721-02221103401ADDAY131999GF106991001001999999001011MD1810371+9999MW1361
0057295400999991971010521004+56083+086033FM-12+999999999V0202601N01591220001CN0170001N9-01501-02111102841ADDAY131999GF106991001001999999001011MD1710541+9999MW1361
0106295400999991971010600004+56083+086033FM-12+999999999V0202301N01591220001CN0100001N9-01221-01781102221ADDAA199000091AY131999GF106991001001999999001011HL10009IA1319IA2999-01899KA1999N-01781MD1710601+9999MW1361
0057295400999991971010603004+56083+086033FM-12+999999999V0202001N01591024001CN0040001N9-01001-01781101781ADDAY131999GF108991081001999999071999MD1710421+9999MW1381
0057295400999991971010606004+56083+086033FM-12+999999999V0202001N01591024001CN0040001N9-00891-01501101661ADDAY171999GF108991081001999999021999MD1710121+9999MW1711
0043295400999991971010609004+56083+086033FM-12+999999999V0202001N01181024001CN0040001N9-00891-01391101671ADDAY171999GF108991081001999999021999MW1711
0092295400999991971010612004+56083+086033FM-12+999999999V0202001N01181024001CN0080001N9-01001-01281101881ADDAA106002091AA299000591AY171999GF108991081001999999021999KA1999M-00891MD1210211+9999MW1711
0057295400999991971010615004+56083+086033FM-12+999999999V0202001N00821024001CN0060001N9-01001-01281102011ADDAY171999GF108991081001999999021999MD1210131+9999MW1711
0057295400999991971010618004+56083+086033FM-12+999999999V0202001N00821024001CN0060001N9-00891-01221102091ADDAY171999GF108991081001999999021999MD1210081+9999MW1711
0117295400999991971010700004+56083+086033FM-12+999999999V0202001N00511024001CN0070001N9-01001-01221102231ADDAA106002091AA299000591AY171999GF108991081001999999021999HL10009IA1319IA2999-01229KA1999N-01001MD1410001+9999MW1711
0057295400999991971010706004+56083+086033FM-12+999999999V0202001N00721024001CN0100001N9-01001-01281101971ADDAY171999GF108991081001999999071999MD1710211+9999MW1221
0057295400999991971010709004+56083+086033FM-12+999999999V0201801N00821024001CN0040001N9-00891-01281101551ADDAY171999GF108991081001999999021999MD1710391+9999MW1771
0092295400999991971010712004+56083+086033FM-12+999999999V0201801N01181024001CN0040001N9-00781-01221101141ADDAA106002091AA299000591AY171999GF108991081001999999021999KA1999M-00781MD1710411+9999MW1711
0057295400999991971010718004+56083+086033FM-12+999999999V0201801N01591024001CN0026001N9-00721-00891100401ADDAY171999GF108991081001999999021999MD1710231+9999MW1711
0057295400999991971010721004+56083+086033FM-12+999999999V0202301N01591024001CN0032001N9-00891-01221100391ADDAY171999GF108991081001999999021999MD1710031+9999MW1711
0117295400999991971010800004+56083+086033FM-12+999999999V0202301N01391024001CN0029001N9-01111-01281100691ADDAA106012091AA299003091AY171999GF108991081001999999021999HL10009IA1319IA2999-01119KA1999N-01111MD1310291+9999MW1711
0057295400999991971010803004+56083+086033FM-12+999999999V0202301N01181024001CN0040001N9-01281-01611101091ADDAY171999GF108991081001999999021999MD1210361+9999MW1711
0057295400999991971010806004+56083+086033FM-12+999999999V0202301N01181220001CN0040001N9-01391-01781101411ADDAY171999GF106991001001999999001011MD1210311+9999MW1381
0057295400999991971010809004+56083+086033FM-12+999999999V0202301N01181220001CN0040001N9-01611-02001101751ADDAY171999GF106991001001999999001011MD1210311+9999MW1381
0092295400999991971010812004+56083+086033FM-12+999999999V0202301N00621220001CN0500001N9-01781-02111101951ADDAA106004091AA299001091AY171999GF106991001001999999001011KA1999M-00781MD1210091+9999MW1021
0057295400999991971010815004+56083+086033FM-12+999999999V0201601N00411220001CN0500001N9-02001-02281101841ADDAY121999GF106991001001999999001011MD1110031+9999MW1021
0057295400999991971010818004+56083+086033FM-12+999999999V0201801N00411220001CN0500001N9-02001-02281101821ADDAY121999GF106991001001999999001011MD1710021+9999MW1021
0057295400999991971010821004+56083+086033FM-12+999999999V0202001N00621024001CN0060001N9-01891-02221101581ADDAY171999GF108991081001999999021999MD1710111+9999MW1711
0095295400999991971010900004+56083+086033FM-12+999999999V0202001N00621024001CN0070001N9-01891-02721101741ADDAY171999GF108991081001999999021999HL10009IA1319IA2999-02289KA1999N-02001MD1310151+9999MW1711
0057295400999991971010903004+56083+086033FM-12+999999999V0202001N00621220001CN0100001N9-02391-02781102041ADDAY171999GF106991001001999999001011MD1210251+9999MW1021
0057295400999991971010906004+56083+086033FM-12+999999999V0202001N00621220001CN0100001N9-02281-02721102171ADDAY171999GF106991001001999999001011MD1210141+9999MW1021
0057295400999991971010909004+56083+086033FM-12+999999999V0202001N005119999999N0100001N9-02221-02611102221ADDAY121999GF106991031001999999031011MD1210051+9999MW1021
0070295400999991971010912004+56083+086033FM-12+999999999V0201801N00211220001CN0070001N9-02501-02781102261ADDAY121999GF105991001001999999001011KA1999M-02111MD1210021+9999MW1101
0057295400999991971010918004+56083+086033FM-12+999999999V0201801N00101220001CN0080001N9-02391-02721102171ADDAY131999GF108991001001999999001071MD1810081+9999MW1101
0057295400999991971010921004+56083+086033FM-12+999999999V0209991C00001220001CN0060001N9-02281-02611102071ADDAY121999GF108991001001999999001071MD1710081+9999MW1101
0117295400999991971011000004+56083+086033FM-12+999999999V0201801N00211024001CN0060001N9-02111-02391101901ADDAA106001091AA299000391AY171999GF108991081001999999021999HL10009IA1319IA2999-03229KA1999N-02781MD1710161+9999MW1711
0057295400999991971011003004+56083+086033FM-12+999999999V0202001N00211024001CN0040001N9-01891-02221101741ADDAY171999GF108991081001999999021999MD1710141+9999MW1711
0057295400999991971011006004+56083+086033FM-12+999999999V0202001N00621024001CN0040001N9-01611-01891101651ADDAY171999GF108991081001999999021999MD1710081+9999MW1711
0057295400999991971011009004+56083+086033FM-12+999999999V0202301N00511024001CN0040001N9-01391-01721101351ADDAY171999GF108991081001999999021999MD1710271+9999MW1711
0092295400999991971011012004+56083+086033FM-12+999999999V0201801N00411024001CN0080001N9-01281-01611101161ADDAA106004091AA299001091AY171999GF108991081001999999021999KA1999M-01281MD1710191+9999MW1711
0057295400999991971011015004+56083+086033FM-12+999999999V0201801N003119999999N0280001N9-01391-01721101041ADDAY171999GF106991031001999999031011MD1710111+9999MW1221
0057295400999991971011018004+56083+086033FM-12+999999999V0202301N00511024001CN0300001N9-01281-01611100991ADDAY171999GF108991081001999999011999MD1710051+9999MW1021
0057295400999991971011021004+56083+086033FM-12+999999999V0202901N00621024001CN0300001N9-01781-02111101201ADDAY121999GF108991081001999999011999MD1310171+9999MW1021
0117295400999991971011100004+56083+086033FM-12+999999999V0202901N005119999999N0290001N9-02281-02611101611ADDAA106001091AA299000391AY121999GF108991031001999999031011HL10009IA1319IA2999-02399KA1999N-02281MD1210361+9999MW1021
0057295400999991971011103004+56083+086033FM-12+999999999V0202301N00511220001CN0100001N9-02501-02781102011ADDAY121999GF106991001001999999001011MD1210381+9999MW1021
0057295400999991971011106004+56083+086033FM-12+999999999V0202301N00721220001CN0100001N9-02391-02781102261ADDAY131999GF103991001001999999001011MD1210251+9999MW1361
0057295400999991971011109004+56083+086033FM-12+999999999V0202301N00721220001CN0100001N9-02221-02611102351ADDAY131999GF106991001001999999001011MD1210121+9999MW1361
0076295400999991971011118004+56083+086033FM-12+999999999V0201801N02421220001CN0032001N9-01721-02001100621ADDAY131999GF108991001001999999001071MD1710852+9999MW1381EQDQ01+000852APC3  
0076295400999991971011121004+56083+086033FM-12+999999999V0202001N02781024001CN0005001N9-01281-01501099672ADDAY171999GF108991081001999999021999MD1710951+9999MW1711EQDQ01+099673APOSLP
0057295400999991971011206004+56083+086033FM-12+999999999V0201801N99999000151CN0000501N9-00891-01001098361ADDAY171999GF109991091999000251999999MD1710141+9999MW1391
0092295400999991971011212004+56083+086033FM-12+999999999V0201801N02781000151CN0001001N9-00781-00891098281ADDAA106039091AA299010091AY131999GF109991091999000251999999KA1999M-00721MD1710031+9999MW1391
0057295400999991971011215004+56083+086033FM-12+999999999V0202001N999999999999N0001001N9-00721-00891098321ADDAY131999GF199999091999999999999999MD1310041+9999MW1391
0057295400999991971011218004+56083+086033FM-12+999999999V0202001N02781000151CN0001001N9-00721-00891098321ADDAY131999GF109991091999000251999999MD1410001+9999MW1391
0057295400999991971011221004+56083+086033FM-12+999999999V0202001N02781000151CN0001001N9-00721-00891098341ADDAY131999GF109991091999000251999999MD1210021+9999MW1391
0057295400999991971011306004+56083+086033FM-12+999999999V0202001N01591030001CN0020001N9-00721-00721098481ADDAY171999GF108991031071004501021999MD1810031+9999MW1731
0076295400999991971011321004+56083+086033FM-12+999999999V0201801N00821024001CN0060001N9-01001-01111099161ADDAY171999GF108991081001999999021999MD1210702+9999MW1711EQDQ01+000702APC3  
0117295400999991971011400004+56083+086033FM-12+999999999V0203201N00721024001CN0060001N9-01781-01891099281ADDAA106008091AA299002091AY171999GF108991081001999999021999HL10009IA1319IA2999-01229KA1999N-01781MD1210051+9999MW1711
0076295400999991971011406004+56083+086033FM-12+999999999V0200501N00511030001CN0010001N9-01611-01721098381ADDAY171999GF108991031071004501021999MD1710562+9999MW1731EQDQ01+000562APC3  
0057295400999991971011409004+56083+086033FM-12+999999999V0203401N00511030001CN0020001N9-01611-01721098021ADDAY171999GF108991031071004501021999MD1710361+9999MW1731
0076295400999991971011418004+56083+086033FM-12+999999999V0202301N01591220001CN0043001N9-02891-03281101191ADDAY171999GF105991001001999999001011MD1210892+9999MW1381EQDQ01+000892APC3  
0057295400999991971011421004+56083+086033FM-12+999999999V0201801N01181220001CN0048001N9-03221-03611101621ADDAY131999GF105991001001999999001011MD1210391+9999MW1381
0117295400999991971011500004+56083+086033FM-12+999999999V0201801N00821220001CN0250001N9-03221-03501101771ADDAA106001091AA299000391AY131999GF105991001001999999001011HL10009IA1319IA2999-03619KA1999N-03221MD1210141+9999MW1361
0057295400999991971011503004+56083+086033FM-12+999999999V0201801N00821220001CN0100001N9-03111-03391101881ADDAY131999GF102991001001999999001011MD1210111+9999MW1361
0057295400999991971011506004+56083+086033FM-12+999999999V0201801N00821220001CN0100001N9-03001-03281101951ADDAY131999GF100991001001999999001001MD1210081+9999MW1361
0057295400999991971011509004+56083+086033FM-12+999999999V0201801N00821220001CN0100001N9-02781-03111101991ADDAY131999GF108991001001999999001011MD1210061+9999MW1361
0081295400999991971011512004+56083+086033FM-12+999999999V0201801N01591220001CN0020001N9-02611-02891102051ADDAA199000091AY131999GF108991001001999999001011KA1999M-02611MD1210081+9999MW1381
0057295400999991971011518004+56083+086033FM-12+999999999V0201801N02011024001CN0017001N9-02281-02611101971ADDAY171999GF108991081001999999021999MD1310051+9999MW1711
0057295400999991971011521004+56083+086033FM-12+999999999V0201801N01801024001CN0019001N9-02221-02501101951ADDAY171999GF108991081001999999021999MD1810021+9999MW1711
0117295400999991971011600004+56083+086033FM-12+999999999V0201801N01801024001CN0016001N9-02001-02221101831ADDAA106008091AA299002091AY171999GF108991081001999999021999HL10009IA1319IA2999-02899KA1999N-02721MD1710091+9999MW1711
0057295400999991971011606004+56083+086033FM-12+999999999V0201801N02011004501CN0020001N9-01721-01891101381ADDAY171999GF108991051071004501021999MD1710261+9999MW1731
0057295400999991971011609004+56083+086033FM-12+999999999V0201801N02421030001CN0005001N9-01501-01721101301ADDAY171999GF108991031071004501021999MD1610081+9999MW1731
0092295400999991971011612004+56083+086033FM-12+999999999V0201801N02421030001CN0005001N9-01391-01611101101ADDAA106012091AA299003091AY171999GF108991031071004501021999KA1999M-01391MD1710181+9999MW1731
0057295400999991971011615004+56083+086033FM-12+999999999V0201801N02421030001CN0005001N9-01391-01611100931ADDAY171999GF108991031071004501021999MD1710161+9999MW1731
0057295400999991971011618004+56083+086033FM-12+999999999V0201801N02421030001CN0005001N9-01221-01391100631ADDAY171999GF108991031071004501021999MD1710291+9999MW1731
0057295400999991971011621004+56083+086033FM-12+999999999V0201801N02421024001CN0005001N9-01221-01281100481ADDAY171999GF108991081001999999021999MD1710141+9999MW1731
0152295400999991971011700004+56083+086033FM-12+999999999V0201801N99999000151CN0001001N9-01891-02111100481ADDAA106433092AA299110092AY171999GF109991091999000251999999HL10009IA1319IA2999-02009KA1999N-01891MD1410001+9999MW1391EQDQ01+000032APCTENQ02+000572APC3  
0092295400999991971011706004+56083+086033FM-12+999999999V0202301N01591220001CN0040001N9-02611-03001102762ADDAY131999GF108991001001999999001011MD1210732+9999MW1381EQDQ01+102763APOSLPQ02+000732APC3  
0057295400999991971011709004+56083+086033FM-12+999999999V0202001N01181220001CN0040001N9-02721-03111103321ADDAY131999GF106991001001999999001011MD1210551+9999MW1381
0070295400999991971011712004+56083+086033FM-12+999999999V0202001N01181220001CN0190001N9-02611-03001103511ADDAY131999GF106991001001999999001011KA1999M-01781MD1210191+9999MW1361
0057295400999991971011718004+56083+086033FM-12+999999999V0202001N00411220001CN0180001N9-02891-03281103751ADDAY131999GF106991001001999999001011MD1210051+9999MW1021
0057295400999991971011721004+56083+086033FM-12+999999999V0202001N00211220001CN0500001N9-03221-03391104011ADDAY121999GF106991001001999999001011MD1210241+9999MW1021
0106295400999991971011800004+56083+086033FM-12+999999999V0201801N00411220001CN0500001N9-03501-03721104171ADDAA199000091AY121999GF106991001001999999001011HL10009IA1319IA2999-03789KA1999N-03611MD1210121+9999MW1021
0057295400999991971011803004+56083+086033FM-12+999999999V0201801N00211220001CN0010001N9-03721-03891104321ADDAY111999GF100991001001999999001001MD1210141+9999MW1101
0057295400999991971011806004+56083+086033FM-12+999999999V0209991C00001220001CN0020001N9-03111-03281104151ADDAY101999GF100991001001999999001001MD1810111+9999MW1101
0057295400999991971011809004+56083+086033FM-12+999999999V0201401N00211220001CN0040001N9-02391-02721103941ADDAY111999GF108991001001999999001091MD1710161+9999MW1101
0078295400999991971011812004+56083+086033FM-12+999999999V0201401N00311024001CN0060001N9-02111-02391103621ADDAA106001091AA299000391AY171999GF108991081001999999021999KA1999M-02111MW1711
0057295400999991971011818004+56083+086033FM-12+999999999V0201401N01591220001CN0060001N9-00781-01221102781ADDAY171999GF106991001001999999001011MD1710301+9999MW1381
0117295400999991971011900004+56083+086033FM-12+999999999V0201801N01591024001CN0070001N9-00721-01111102361ADDAA106001091AA299000391AY131999GF108991081001999999021999HL10009IA1319IA2999-02229KA1999N-02111MD1710221+9999MW1381
0057295400999991971011903004+56083+086033FM-12+999999999V0202001N01181030001CN0040001N9-00721-01001102481ADDAY171999GF108991031051008001021999MD1310111+9999MW1711
0057295400999991971011906004+56083+086033FM-12+999999999V0202001N01181024001CN0040001N9-00721-00891102501ADDAY171999GF108991081001999999021999MD1210031+9999MW1711
0057295400999991971011909004+56083+086033FM-12+999999999V0202001N01181024001CN0040001N9-00611-00891102461ADDAY171999GF108991081001999999021999MD1810041+9999MW1711
0092295400999991971011912004+56083+086033FM-12+999999999V0202001N01181024001CN0042001N9-00611-00891102511ADDAA106001091AA299000391AY171999GF108991081001999999021999KA1999M-00611MD1310051+9999MW1711
0057295400999991971011915004+56083+086033FM-12+999999999V0202301N01181024001CN0070001N9-00611-00781102511ADDAY171999GF108991081001999999021999MD1410001+9999MW1711
0057295400999991971011918004+56083+086033FM-12+999999999V0201801N01181024001CN0060001N9-00611-00781102521ADDAY171999GF108991081001999999021999MD1210011+9999MW1711
0076295400999991971011921004+56083+086033FM-12+999999999V0202001N00621024001CN0060001N9-00611-00611102201ADDAY171999GF108991081001999999021999MD1710321+9999MW1711EQDQ01+000002APC3  
0117295400999991971012000004+56083+086033FM-12+999999999V0202001N00411024001CN0060001N9-00611-00781102511ADDAA106004091AA299001091AY171999GF108991081001999999021999HL10009IA1319IA2999-00789KA1999N-00611MD1710011+9999MW1711
0057295400999991971012003004+56083+086033FM-12+999999999V0201801N00511024001CN0040001N9-00781-01001102531ADDAY171999GF108991081001999999021999MD1310011+9999MW1711
0043295400999991971012006004+56083+086033FM-12+999999999V0202001N00511024001CN0040001N9-00721-00891102521ADDAY171999GF108991081001999999021999MW1711
0057295400999991971012009004+56083+086033FM-12+999999999V0202001N00411024001CN0040001N9-00611-00781102401ADDAY171999GF108991081001999999021999MD1710111+9999MW1711
0092295400999991971012012004+56083+086033FM-12+999999999V0202001N00411024001CN0050001N9-00611-00611102311ADDAA106004091AA299001091AY171999GF108991081001999999021999KA1999M-00501MD1710091+9999MW1711
0057295400999991971012015004+56083+086033FM-12+999999999V0201801N00621024001CN0450001N9-00611-00891102211ADDAY171999GF108991081001999999051999MD1710101+9999MW1221
0057295400999991971012018004+56083+086033FM-12+999999999V0201801N00621024001CN0450001N9-00611-01001102051ADDAY121999GF108991081001999999031999MD1710151+9999MW1021
0057295400999991971012021004+56083+086033FM-12+999999999V0201801N00621001501CN0070001N9-00781-01001102081ADDAY171999GF108991081091001501999999MD1310011+9999MW1711
0117295400999991971012100004+56083+086033FM-12+999999999V0201801N00621024001CN0050001N9-00781-01001102081ADDAA106002091AA299000591AY171999GF108991081001999999021999HL10009IA1319IA2999-01009KA1999N-00781MD1410001+9999MW1711
0057295400999991971012103004+56083+086033FM-12+999999999V0201801N00511024001CN0040001N9-00781-01001102121ADDAY171999GF108991081001999999021999MD1010141+9999MW1711
0057295400999991971012106004+56083+086033FM-12+999999999V0201801N00511024001CN0040001N9-00721-00891102101ADDAY171999GF108991081001999999021999MD1810021+9999MW1711
0057295400999991971012109004+56083+086033FM-12+999999999V0202001N00821024001CN0040001N9-00721-00891102091ADDAY171999GF108991081001999999021999MD1710011+9999MW1711
0092295400999991971012112004+56083+086033FM-12+999999999V0202001N00981024001CN0042001N9-00781-01001102121ADDAA106002091AA299000591AY171999GF108991081001999999021999KA1999M-00721MD1310031+9999MW1711
0057295400999991971012118004+56083+086033FM-12+999999999V0202001N00981024001CN0040001N9-01001-01221102491ADDAY171999GF108991081001999999021999MD1210221+9999MW1711
0117295400999991971012200004+56083+086033FM-12+999999999V0202001N00721024001CN0080001N9-01111-01281103001ADDAA106004091AA299001091AY171999GF108991081001999999021999HL10009IA1319IA2999-01399KA1999N-01111MD1210221+9999MW1711
0057295400999991971012203004+56083+086033FM-12+999999999V0202001N00721024001CN0040001N9-01111-01221103081ADDAY171999GF108991081001999999021999MD1210081+9999MW1711
0057295400999991971012206004+56083+086033FM-12+999999999V0202001N00621024001CN0100001N9-01001-01221103141ADDAY171999GF108991081001999999071999MD1210051+9999MW1221
0057295400999991971012209004+56083+086033FM-12+999999999V0202001N00211024001CN0100001N9-01001-01391103091ADDAY121999GF107991071001999999031001MD1810041+9999MW1021
0092295400999991971012212004+56083+086033FM-12+999999999V0202001N00821024001CN0080001N9-00891-01221103031ADDAA106001091AA299000391AY171999GF108991081001999999021091KA1999M-00721MD1710061+9999MW1711
0057295400999991971012218004+56083+086033FM-12+999999999V0202001N00981024001CN0048001N9-00781-01001102831ADDAY171999GF108991081001999999021999MD1710071+9999MW1711
0057295400999991971012221004+56083+086033FM-12+999999999V0202001N00981024001CN0042001N9-00721-00891102731ADDAY171999GF108991081001999999021999MD1710101+9999MW1711
0117295400999991971012300004+56083+086033FM-12+999999999V0202001N00821024001CN0070001N9-00781-00891102701ADDAA106002091AA299000591AY171999GF108991081001999999021999HL10009IA1319IA2999-01009KA1999N-00891MD1710031+9999MW1711
0057295400999991971012303004+56083+086033FM-12+999999999V0202001N00821024001CN0040001N9-00721-00891102771ADDAY171999GF108991081001999999021999MD1310071+9999MW1711
0057295400999991971012306004+56083+086033FM-12+999999999V0202301N00821024001CN0040001N9-00781-01001102881ADDAY171999GF108991081001999999021999MD1210111+9999MW1711
0057295400999991971012309004+56083+086033FM-12+999999999V0202301N00721030001CN0040001N9-00721-00891103051ADDAY171999GF108991021071008001021999MD1210181+9999MW1711
0092295400999991971012312004+56083+086033FM-12+999999999V0202301N00721030001CN0070001N9-00781-01001103261ADDAA106004091AA299001091AY171999GF108991031071004501021999KA1999M-00721MD1210191+9999MW1711
0057295400999991971012315004+56083+086033FM-12+999999999V0202501N00721024001CN0070001N9-00781-01001103391ADDAY171999GF108991081001999999021999MD1210131+9999MW1711
0094295400999991971012318004+56083+086033FM-12+999999999V0202501N00721220001CN0070001N9-00891-01221103481ADDAY171999GA1021+000909039GA2071+999999049GF108991081001999999021999MW1711EQDQ01+000992SCOLCB
0057295400999991971012321004+56083+086033FM-12+999999999V0202301N00721024001CN0070001N9-00891-01111103521ADDAY171999GF108991081001999999021999MD1210041+9999MW1711
0117295400999991971012400004+56083+086033FM-12+999999999V0202301N00721024001CN0080001N9-00891-01111103561ADDAA106002091AA299000591AY171999GF108991081001999999021999HL10009IA1319IA2999-01119KA1999N-00891MD1210031+9999MW1711
0057295400999991971012403004+56083+086033FM-12+999999999V0202301N00621024001CN0040001N9-01001-01221103631ADDAY171999GF108991081001999999071999MD1210061+9999MW1711
0057295400999991971012406004+56083+086033FM-12+999999999V0202001N00411024001CN0040001N9-00891-01221103611ADDAY171999GF108991081001999999071999MD1810021+9999MW1711
0057295400999991971012409004+56083+086033FM-12+999999999V0202001N00411024001CN0040001N9-00891-01221103541ADDAY171999GF108991081999999999071999MD1710061+9999MW1711
0092295400999991971012412004+56083+086033FM-12+999999999V0202001N00511024001CN0090001N9-01001-01281103581ADDAA106001091AA299000391AY171999GF108991081001999999021999KA1999M-00781MD1310041+9999MW1711
0057295400999991971012415004+56083+086033FM-12+999999999V0202001N00411024001CN0300001N9-01111-01391103491ADDAY171999GF107991071001999999031001MD1710091+9999MW1021
0057295400999991971012418004+56083+086033FM-12+999999999V0202001N00411220001CN0350001N9-01281-01611103441ADDAY171999GF103991031001999999031001MD1710071+9999MW1011
0092295400999991971012500004+56083+086033FM-12+999999999V0202001N00821024001CN0060001N9-01111-01281103241ADDAA106001091AA299000391AY171999GF108991081001999999021999KA1999N-01281MD1710061+9999MW1711
0057295400999991971012503004+56083+086033FM-12+999999999V0202001N01181024001CN0040001N9-01001-01221103291ADDAY171999GF108991081001999999021999MD1310051+9999MW1711
0057295400999991971012506004+56083+086033FM-12+999999999V0202001N01181024001CN0040001N9-01001-01221103351ADDAY171999GF108991081001999999021999MD1210061+9999MW1731
0092295400999991971012512004+56083+086033FM-12+999999999V0202801N00621024001CN0050001N9-01221-01501103511ADDAA106004091AA299001091AY171999GF108991081001999999021999KA1999M-01001MD1210091+9999MW1711
0057295400999991971012515004+56083+086033FM-12+999999999V0202001N00511024001CN0050001N9-01111-01281103551ADDAY171999GF108991081001999999021999MD1210041+9999MW1711
0057295400999991971012518004+56083+086033FM-12+999999999V0202001N00511024001CN0050001N9-01111-01281103491ADDAY171999GF108991081001999999021999MD1810061+9999MW1711
0057295400999991971012521004+56083+086033FM-12+999999999V0201801N00511024001CN0050001N9-01281-01501103501ADDAY171999GF108991081001999999021999MD1410001+9999MW1711
0117295400999991971012600004+56083+086033FM-12+999999999V0202001N00511024001CN0050001N9-01221-01391103401ADDAA106001091AA299000391AY171999GF108991081001999999011999HL10009IA1319IA2999-01509KA1999N-01391MD1810091+9999MW1711
0057295400999991971012603004+56083+086033FM-12+999999999V0201801N01181024001CN0040001N9-01221-01501103351ADDAY171999GF108991081001999999021999MD1710051+9999MW1711
0057295400999991971012606004+56083+086033FM-12+999999999V0202001N01181024001CN0040001N9-01111-01391103281ADDAY171999GF108991081001999999021999MD1710051+9999MW1711
0057295400999991971012609004+56083+086033FM-12+999999999V0201801N01181024001CN0040001N9-01001-01281103151ADDAY171999GF108991081001999999021999MD1710131+9999MW1711
0092295400999991971012612004+56083+086033FM-12+999999999V0202001N00981024001CN0070001N9-01001-01221103081ADDAA106001091AA299000391AY171999GF108991081001999999021999KA1999M-01001MD1710061+9999MW1711
0057295400999991971012615004+56083+086033FM-12+999999999V0202001N00981024001CN0070001N9-00891-01221103061ADDAY171999GF108991081001999999021999MD1710021+9999MW1711
0057295400999991971012618004+56083+086033FM-12+999999999V0202001N00981024001CN0070001N9-00891-01221102991ADDAY171999GF108991081001999999021999MD1810071+9999MW1711
0057295400999991971012621004+56083+086033FM-12+999999999V0202001N00981024001CN0070001N9-00781-01111102961ADDAY171999GF108991081001999999999999MD1710021+9999MW1711
0117295400999991971012700004+56083+086033FM-12+999999999V0202001N00821024001CN0070001N9-00891-01111102951ADDAA106001091AA299000391AY171999GF108991081001999999021999HL10009IA1319IA2999-01229KA1999N-00891MD1710011+9999MW1711
0057295400999991971012703004+56083+086033FM-12+999999999V0201801N00821024001CN0040001N9-00781-01111102971ADDAY171999GF108991081001999999021999MD1310021+9999MW1711
0057295400999991971012706004+56083+086033FM-12+999999999V0202001N00411024001CN0040001N9-00781-01001102991ADDAY171999GF108991081001999999021999MD1210021+9999MW1711
0057295400999991971012709004+56083+086033FM-12+999999999V0202001N00411024001CN0040001N9-00721-01001102991ADDAY171999GF108991081001999999021999MD1410001+9999MW1711
0092295400999991971012712004+56083+086033FM-12+999999999V0201801N00211024001CN0060001N9-00781-01001103041ADDAA106002091AA299000591AY171999GF108991081001999999021999KA1999M-00721MD1210051+9999MW1711
0057295400999991971012718004+56083+086033FM-12+999999999V0202001N00411024001CN0080001N9-00781-00891103111ADDAY171999GF108991081001999999021999MD1210041+9999MW1711
0057295400999991971012803004+56083+086033FM-12+999999999V0202001N00511024001CN0040001N9-00781-01001103231ADDAY171999GF108991081001999999021999MD1210091+9999MW1711
0057295400999991971012806004+56083+086033FM-12+999999999V0202001N00621030001CN0040001N9-00721-01001103241ADDAY171999GF108991021051008001021999MD1210011+9999MW1711
0099295400999991971012809004+56083+086033FM-12+999999999V0202001N00621024001CN0040001N9-00721-00891103241ADDAJ100009199999999AY171999GF108991081001999999021999IA1319MD1410001+9999MW1711EQDQ01+000022APCTEN
0092295400999991971012812004+56083+086033FM-12+999999999V0202001N00511024001CN0300001N9-00781-01111103291ADDAA106001091AA299000391AY171999GF106991061001999999031001KA1999M-00611MD1210041+9999MW1221
0057295400999991971012815004+56083+086033FM-12+999999999V0202001N00411024001CN0400001N9-01001-01221103321ADDAY121999GF105991051001999999031001MD1210021+9999MW1011
0057295400999991971012818004+56083+086033FM-12+999999999V0202001N00511220001CN0300001N9-01111-01221103241ADDAY111999GF102991021001999999031001MD1710091+9999MW1011
0057295400999991971012821004+56083+086033FM-12+999999999V0202001N00621024001CN0300001N9-01111-01221103231ADDAY111999GF108991081001999999071999MD1410001+9999MW1031
0043295400999991971012900004+56083+086033FM-12+999999999V0202001N00621004501CN0045001N9-01001-01221103151ADDAY171999GF108991081001004501021999MW1731
0057295400999991971012903004+56083+086033FM-12+999999999V0202001N00511024001CN0040001N9-01001-01111103161ADDAY171999GF108991081001999999021999MD1310011+9999MW1731
0057295400999991971012906004+56083+086033FM-12+999999999V0202001N00511024001CN0040001N9-00891-01111103081ADDAY171999GF108991081001999999021999MD1810071+9999MW1731
0057295400999991971012909004+56083+086033FM-12+999999999V0202001N00621024001CN0040001N9-00781-01001103051ADDAY171999GF108991081001999999021999MD1710021+9999MW1711
0092295400999991971012912004+56083+086033FM-12+999999999V0202001N00621024001CN0046001N9-00891-01001103051ADDAA106008091AA299002091AY171999GF108991081001999999021999KA1999M-00781MD1410001+9999MW1711
0057295400999991971012915004+56083+086033FM-12+999999999V0202001N00621024001CN0049001N9-00781-01111103041ADDAY171999GF108991081001999999021999MD1810011+9999MW1711
0057295400999991971012918004+56083+086033FM-12+999999999V0202001N00621024001CN0044001N9-00891-01111102991ADDAY171999GF108991081001999999021999MD1710051+9999MW1711
0117295400999991971013000004+56083+086033FM-12+999999999V0202001N00621024001CN0045001N9-00891-01111103021ADDAA106004091AA299001091AY171999GF108991081001999999021999HL10009IA1319IA2999-01009KA1999N-01001MD1210011+9999MW1711
0057295400999991971013003004+56083+086033FM-12+999999999V0202001N00621024001CN0040001N9-00891-01111103091ADDAY171999GF108991081001999999021999MD1210071+9999MW1711
0057295400999991971013006004+56083+086033FM-12+999999999V0202001N00621024001CN0040001N9-00891-01111103101ADDAY111999GF108991081001999999021999MD1210011+9999MW1711
0043295400999991971013009004+56083+086033FM-12+999999999V0202001N002119999999N0100001N9-00781-01221103151ADDAY171999GF105991021071999999999999MW1011
0092295400999991971013012004+56083+086033FM-12+999999999V0201801N00101220001CN0019001N9-01391-01611103331ADDAA106001091AA299000391AY171999GF105991001001999999001011KA1999M-00781MD1210141+9999MW1701
0117295400999991971013100004+56083+086033FM-12+999999999V0201801N00211024001CN0041001N9-01891-02001103611ADDAA106001091AA299000391AY171999GF108991081001999999021011HL10009IA1319IA2999-02399KA1999N-02221MD1210091+9999MW1711
0057295400999991971013103004+56083+086033FM-12+999999999V0201801N00211024001CN0040001N9-02001-02221103711ADDAY171999GF108991081001999999021999MD1210091+9999MW1711
0057295400999991971013106004+56083+086033FM-12+999999999V0209991C00001220001CN0040001N9-01781-02001103741ADDAY171999GF103991001001999999001011MD1210041+9999MW1101
0057295400999991971013109004+56083+086033FM-12+999999999V0209991C00001220001CN0040001N9-01391-01721103731ADDAY111999GF105991001001999999001011MD1210021+9999MW1701
0092295400999991971013112004+56083+086033FM-12+999999999V0209991C00001220001CN0039001N9-01891-02111103891ADDAA106001091AA299000391AY121999GF106991001001999999001021KA1999M-01281MD1210131+9999MW1101
0057295400999991971013115004+56083+086033FM-12+999999999V0209991C00001220001CN0070001N9-02221-02391103991ADDAY111999GF103991001001999999001011MD1210071+9999MW1101
0057295400999991971013118004+56083+086033FM-12+999999999V0209991C00001220001CN0090001N9-02611-02781104051ADDAY101999GF102991001001999999001011MD1210031+9999MW1101
0106295400999991971020100004+56083+086033FM-12+999999999V0209991C00001024001CN0070001N9-02501-02721104201ADDAA199000091AY121999GF108991051001999999031071HL10009IA1319IA2999-03119KA1999N-02721MD1210111+9999MW1101
0057295400999991971020106004+56083+086033FM-12+999999999V0209991C00001220001CN0040001N9-02001-02221104321ADDAY141999GF108991001001999999001071MD1210041+9999MW1101
0081295400999991971020112004+56083+086033FM-12+999999999V0209991C00001220001CN0080001N9-02001-02221104431ADDAA199000091AY121999GF108991001001999999001071KA1999M-01781MD1210081+9999MW1101
0057295400999991971020115004+56083+086033FM-12+999999999V0209991C00001220001CN0005001N9-02111-02281104471ADDAY141999GF107991001001999999001071MD1210041+9999MW1441
0057295400999991971020118004+56083+086033FM-12+999999999V0209991C00001024001CN0015001N9-02001-02221104451ADDAY141999GF108991081001999999021999MD1710021+9999MW1711
0057295400999991971020121004+56083+086033FM-12+999999999V0209991C00001024001CN0021001N9-01721-01781104511ADDAY171999GF108991081001999999021999MD1210071+9999MW1711
0117295400999991971020200004+56083+086033FM-12+999999999V0209991C00001024001CN0042001N9-01501-01611104531ADDAA106001091AA299000391AY171999GF108991081001999999021999HL10009IA1319IA2999-02399KA1999N-02111MD1210041+9999MW1711
0073295400999991971020203004+56083+086033FM-12+999999999V0209991C00001004801CN0020001N9-01281-01391104551ADDAY171999GA1081+004809079GF108991081061004501999999MD1210031+9999MW1771
0057295400999991971020209004+56083+086033FM-12+999999999V0209991C00001024001CN0040001N9-00891-01001104591ADDAY171999GF108991081001999999021999MD1810021+9999MW1771
0117295400999991971020212004+56083+086033FM-12+999999999V0209991C00001024001CN0035001N9-01111-01221104511ADDAA106002091AA299000591AY171999GF108991081001999999021999HL10009IA1319IA2999-02399KA1999M-00891MD1410001+9999MW1711
0057295400999991971020215004+56083+086033FM-12+999999999V0209991C00001024001CN0040001N9-01221-01281104521ADDAY171999GF108991081001999999021999MD1410001+9999MW1711
0117295400999991971020300004+56083+086033FM-12+999999999V0209991C00001220001CN0080001N9-01781-01891104391ADDAA106001091AA299000391AY171999GF100991001001999999001001HL10009IA1319IA2999-02399KA1999N-01891MD1710131+9999MW1101
0057295400999991971020303004+56083+086033FM-12+999999999V0209991C00001024001CN0040001N9-02221-02281104301ADDAY171999GF108991081001999999021999MD1710081+9999MW1711
0057295400999991971020306004+56083+086033FM-12+999999999V0209991C00001024001CN0040001N9-01781-02001104131ADDAY171999GF108991081001999999021999MD1710131+9999MW1221
0057295400999991971020309004+56083+086033FM-12+999999999V0203601N00311220001CN0100001N9-01501-01781104021ADDAY101999GF100991001001999999001001MD1710091+9999MW1021
0070295400999991971020312004+56083+086033FM-12+999999999V0200501N00311220001CN0100001N9-02111-02391104151ADDAY101999GF100991001001999999001001KA1999M-01391MD1310101+9999MW1021
0057295400999991971020315004+56083+086033FM-12+999999999V0203601N00411220001CN0300001N9-02281-02391104301ADDAY101999GF100991001001999999001001MD1210111+9999MW1021
0057295400999991971020318004+56083+086033FM-12+999999999V0209991C00001220001CN0450001N9-02721-02781104381ADDAY101999GF100991001001999999001001MD1210061+9999MW1021
0156295400999991971020321004+56083+086033FM-12+999999999V0209991C00001000301CN0500001N9-03111-03221104541ADDAY101999GA1091+000309999GF199999091001999999001001MD1210161+9999MW1021EQDQ01+000002SCOTCVQ02+000002SCOTLCQ03+000992SCOLCBQ04+000042APCTENQ05+000332APC3  
0106295400999991971020400004+56083+086033FM-12+999999999V0209991C00001220001CN0500001N9-03611-03781104631ADDAA199000091AY101999GF100991001001999999001001HL10009IA1319IA2999-03729KA1999N-03721MD1210041+9999MW1021
0057295400999991971020403004+56083+086033FM-12+999999999V0209991C00001024001CN0040001N9-03611+99999104661ADDAY121999GF106991061001999999031001MD1210031+9999MW1101
0057295400999991971020406004+56083+086033FM-12+999999999V0209991C00001220001CN0040001N9-02781-03001104641ADDAY111999GF102991001001999999001011MD1210051+9999MW1101
0057295400999991971020409004+56083+086033FM-12+999999999V0203601N00101220001CN0040001N9-02391-02721104561ADDAY101999GF102991001001999999001011MD1710051+9999MW1101
0081295400999991971020412004+56083+086033FM-12+999999999V0209991C00001220001CN0100001N9-02611-02781104611ADDAA199000091AY101999GF102991001001999999001011KA1999M-02391MD1210041+9999MW1021
0057295400999991971020418004+56083+086033FM-12+999999999V0209991C00001220001CN0450001N9-03391-03611104481ADDAY111999GF106991001001999999001011MD1810111+9999MW1031
0106295400999991971020500004+56083+086033FM-12+999999999V0209991C00001220001CN0500001N9-03501-03721104251ADDAA199000091AY121999GF106991001001999999001011HL10009IA1319IA2999-03899KA1999N-03611MD1710151+9999MW1021
0057295400999991971020503004+56083+086033FM-12+999999999V0209991C00001220001CN0040001N9-03281-03501104121ADDAY121999GF108991001001999999001071MD1710091+9999MW1101
0057295400999991971020506004+56083+086033FM-12+999999999V0209991C00001220001CN0040001N9-02781-03001103921ADDAY121999GF108991001001999999001071MD1710171+9999MW1101
0057295400999991971020509004+56083+086033FM-12+999999999V0209991C00001220001CN0040001N9-02721-02891103771ADDAY121999GF108991001001999999001071MD1710251+9999MW1101
0081295400999991971020512004+56083+086033FM-12+999999999V0209991C00001220001CN0040001N9-02721-02891103691ADDAA199000091AY121999GF108991001001999999001071KA1999M-02391MD1710071+9999MW1101
0057295400999991971020515004+56083+086033FM-12+999999999V0209991C00001220001CN0070001N9-02781-03001103501ADDAY121999GF108991001001999999001071MD1710191+9999MW1101
0057295400999991971020518004+56083+086033FM-12+999999999V0203601N00101024001CN0080001N9-02891-03111103291ADDAY121999GF107991071001999999031001MD1710211+9999MW1101
0057295400999991971020521004+56083+086033FM-12+999999999V0203601N00101024001CN0060001N9-03001-03221103121ADDAY121999GF107991071001999999031001MD1710171+9999MW1101
0057295400999991971020603004+56083+086033FM-12+999999999V0209991C00001220001CN0040001N9-03501-03781103061ADDAY121999GF108991001001999999001071MD1710021+9999MW1101
0057295400999991971020606004+56083+086033FM-12+999999999V0209991C00001220001CN0040001N9-02781-03001102911ADDAY121999GF108991001001999999001071MD1710101+9999MW1101
0057295400999991971020609004+56083+086033FM-12+999999999V0200501N00101220001CN0040001N9-02611-02891102971ADDAY101999GF100991001001999999001001MD1710021+9999MW1101
0081295400999991971020612004+56083+086033FM-12+999999999V0209991C00001220001CN0100001N9-02891-03111102901ADDAA199000091AY111999GF108991001001999999001011KA1999M-02611MD1310011+9999MW1031
0057295400999991971020615004+56083+086033FM-12+999999999V0209991C000019999999N0450001N9-02891-03111102791ADDAY121999GF106991031001001501031011MD1810111+9999MW1011
0057295400999991971020618004+56083+086033FM-12+999999999V0209991C000019999999N0450001N9-03221-03391102611ADDAY121999GF106991041001999999031011MD1710201+9999MW1021
0057295400999991971020621004+56083+086033FM-12+999999999V0209991C000019999999N0450001N9-03281-03501102561ADDAY121999GF106991041001999999031011MD1710221+9999MW1021
0106295400999991971020700004+56083+086033FM-12+999999999V0209991C00001220001CN0500001N9-02781-03001102381ADDAA199000091AY121999GF108991001001999999001071HL10009IA1319IA2999-03729KA1999N-03391MD1710051+9999MW1031
0057295400999991971020703004+56083+086033FM-12+999999999V0209991C000019999999N0100001N9-02611-02721102181ADDAY171999GF108991031001999999031011MD1710171+9999MW1031
0057295400999991971020706004+56083+086033FM-12+999999999V0200201N00211024001CN0100001N9-02001-02221102011ADDAY171999GF108991081001999999031999MD1710131+9999MW1021
0057295400999991971020709004+56083+086033FM-12+999999999V0200501N003119999999N0200001N9-01721-02001101941ADDAY121999GF108991031001999999031071MD1710041+9999MW1021
0092295400999991971020712004+56083+086033FM-12+999999999V0200501N003119999999N0100001N9-01891-02221101941ADDAA106075091AA224999999AY121999GF108991031001999999031091KA1999M-01611MD1710011+9999MW1021
0057295400999991971020715004+56083+086033FM-12+999999999V0203401N002119999999N0400001N9-02281-02501102041ADDAY121999GF108991001001999999999999MD1310071+9999MW1011
0057295400999991971020718004+56083+086033FM-12+999999999V0203201N002119999999N0400001N9-02221-02391102081ADDAY121999GF108991001001999999999999MD1210041+9999MW1021
0057295400999991971020721004+56083+086033FM-12+999999999V0209991C00001220001CN0250001N9-02221-02281102181ADDAY101999GF103991001001999999001011MD1210091+9999MW1111
0057295400999991971020806004+56083+086033FM-12+999999999V0209991C00001220001CN0040001N9-01281-01611102221ADDAY171999GF106991001001999999001061MD1710021+9999MW1221
0057295400999991971020809004+56083+086033FM-12+999999999V0209991C00001024001CN0040001N9-00781-01111102251ADDAY171999GF108991081001999999071011MD1210061+9999MW1711
0108295400999991971020812004+56083+086033FM-12+999999999V0200901N00101006601CN0040001N9-00781-01111102321ADDAA106004091AA299001091AY171999GA1051+006609079GF108991061071008001021999KA1999M-00781MD1210071+9999MW1711
0057295400999991971020815004+56083+086033FM-12+999999999V0209991C00001024001CN0150001N9-01111-01221102421ADDAY171999GF108991081001999999071999MD1210091+9999MW1021
0073295400999991971020818004+56083+086033FM-12+999999999V0209991C00001006001CN0120001N9-01281-01391102391ADDAY121999GA1081+006009059GF108991081051008001999999MD1810051+9999MW1031
0073295400999991971020821004+56083+086033FM-12+999999999V0209991C00001006601CN0120001N9-01001-01111102531ADDAY121999GA1081+006609059GF108991081051008001999999MD1210161+9999MW1021
0057295400999991971020903004+56083+086033FM-12+999999999V0200501N00101220001CN0040001N9-01221-01281102521ADDAY111999GF102991001001999999001011MD1710031+9999MW1101
0057295400999991971020906004+56083+086033FM-12+999999999V0200501N00411220001CN0040001N9-00721-01501102401ADDAY101999GF102991001001999999001011MD1710081+9999MW1101
0057295400999991971020909004+56083+086033FM-12+999999999V0200501N00621220001CN0100001N9-00501-00721102381ADDAY101999GF100991001001999999001001MD1410001+9999MW1021
0081295400999991971020912004+56083+086033FM-12+999999999V0200901N00511220001CN0100001N9-01111-01111102461ADDAA199000091AY101999GF100991001001999999001001KA1999M-00391MD1210301+9999MW1021
0057295400999991971020915004+56083+086033FM-12+999999999V0200501N00411220001CN0300001N9-01111-01281102531ADDAY101999GF100991001001999999001001MD1210071+9999MW1021
0057295400999991971020918004+56083+086033FM-12+999999999V0200501N00621220001CN0220001N9-01391-01721102591ADDAY101999GF100991001001999999001001MD1210031+9999MW1021
0057295400999991971020921004+56083+086033FM-12+999999999V0200501N00411220001CN0250001N9-01611-01781102621ADDAY101999GF100991001001999999001001MD1210011+9999MW1021
0106295400999991971021000004+56083+086033FM-12+999999999V0200501N00621220001CN0170001N9-01721-01891102611ADDAA199000091AY101999GF100991001001999999001001HL10009IA1319IA2999-02009KA1999N-01781MD1710021+9999MW1021
0057295400999991971021006004+56083+086033FM-12+999999999V0200501N00511220001CN0100001N9-01391-01721102631ADDAY101999GF100991001001999999001001MD1210011+9999MW1021
0057295400999991971021009004+56083+086033FM-12+999999999V0200901N00411220001CN0100001N9-01111-01501102681ADDAY111999GF106991001001999999001011MD1210061+9999MW1031
0081295400999991971021012004+56083+086033FM-12+999999999V0200901N00211220001CN0100001N9-01391-01721102841ADDAA199000091AY121999GF108991001001999999001091KA1999M-01111MD1210151+9999MW1031
0057295400999991971021015004+56083+086033FM-12+999999999V0202001N00511024001CN0080001N9-01001-01221102911ADDAY171999GF108991081001999999021999MD1210101+9999MW1711
0057295400999991971021018004+56083+086033FM-12+999999999V0202001N00621024001CN0080001N9-00781-01001102971ADDAY171999GF108991081001999999021999MD1210071+9999MW1711
0057295400999991971021021004+56083+086033FM-12+999999999V0202001N00621024001CN0050001N9-01111-01391103071ADDAY171999GF108991081001999999021011MD1210091+9999MW1711
0057295400999991971021106004+56083+086033FM-12+999999999V0201801N00411220001CN0040001N9-01221-01501102971ADDAY111999GF100991001001999999001001MD1710061+9999MW1101
0057295400999991971021109004+56083+086033FM-12+999999999V0202001N00411220001CN0040001N9-01111-01501102831ADDAY111999GF106991001001999999001011MD1710121+9999MW1101
0081295400999991971021112004+56083+086033FM-12+999999999V0202001N00511220001CN0040001N9-01221-01611102691ADDAA199000091AY121999GF106991001001999999001011KA1999M-01111MD1710161+9999MW1101
0057295400999991971021118004+56083+086033FM-12+999999999V0202001N00411024001CN0070001N9-01221-01391102331ADDAY171999GF108991081001999999021999MD1710141+9999MW1711
0117295400999991971021200004+56083+086033FM-12+999999999V0209991C00001024001CN0080001N9-01611-01721102131ADDAA106002091AA299000591AY171999GF108991081001999999021999HL10009IA1319IA2999-02009KA1999N-01611MD1710081+9999MW1711
0057295400999991971021203004+56083+086033FM-12+999999999V0201801N00101220001CN0040001N9-02001-02111102201ADDAY171999GF106991001001999999001011MD1310041+9999MW1221
0057295400999991971021206004+56083+086033FM-12+999999999V0201801N00101220001CN0040001N9-01501-01721102241ADDAY171999GF103991001001999999001011MD1310071+9999MW1101
0057295400999991971021209004+56083+086033FM-12+999999999V0202301N00101220001CN0040001N9-01221-01611102361ADDAY101999GF100991001001999999001001MD1210151+9999MW1101
0092295400999991971021212004+56083+086033FM-12+999999999V0202501N00101220001CN0040001N9-01611-01781102611ADDAA106001091AA299000391AY111999GF106991001001999999001011KA1999M-01111MD1010001+9999MW1101
0057295400999991971021215004+56083+086033FM-12+999999999V0202501N00311024001CN0050001N9-01781-02001102891ADDAY171999GF108991081001999999021999MD1210171+9999MW1711
0057295400999991971021218004+56083+086033FM-12+999999999V0202501N00311220001CN0250001N9-02221-02391102931ADDAY171999GF105991001001999999001011MD1210101+9999MW1221
0057295400999991971021221004+56083+086033FM-12+999999999V0209991C00001220001CN0230001N9-02391-02611103161ADDAY121999GF108991001001999999001071MD1210211+9999MW1031
0117295400999991971021300004+56083+086033FM-12+999999999V0209991C00001220001CN0230001N9-02501-02721103261ADDAA106001091AA299000391AY121999GF103991001001999999001011HL10009IA1319IA2999-03009KA1999N-02501MD1210311+9999MW1021
0057295400999991971021303004+56083+086033FM-12+999999999V0202001N00311024001CN0040001N9-02391-02611103421ADDAY171999GF108991081001999999021061MD1210151+9999MW1711
0057295400999991971021306004+56083+086033FM-12+999999999V0209991C00001220001CN0040001N9-01891-02221103491ADDAY171999GF100991001001999999001001MD1210111+9999MW1101
0057295400999991971021309004+56083+086033FM-12+999999999V0202001N00211220001CN0100001N9-01611-02001103511ADDAY101999GF100991001001999999001001MD1210051+9999MW1021
0092295400999991971021312004+56083+086033FM-12+999999999V0202001N00211220001CN0100001N9-02111-02281103661ADDAA106001091AA299000391AY101999GF100991001001999999001001KA1999M-01501MD1210121+9999MW1021
0057295400999991971021318004+56083+086033FM-12+999999999V0209991C00001220001CN0250001N9-03001-03221103731ADDAY101999GF100991001001999999001001MD1810021+9999MW1021
0057295400999991971021321004+56083+086033FM-12+999999999V0209991C00001220001CN0260001N9-03391-03611103671ADDAY101999GF100991001001999999001001MD1710081+9999MW1021
0106295400999991971021400004+56083+086033FM-12+999999999V0209991C00001220001CN0250001N9-03611-03781103561ADDAA199000091AY101999GF100991001001999999001001HL10009IA1319IA2999-03789KA1999N-03611MD1710131+9999MW1021
0057295400999991971021403004+56083+086033FM-12+999999999V0209991C00001220001CN0040001N9-03501-03721103501ADDAY101999GF100991001001999999001001MD1710061+9999MW1101
0057295400999991971021406004+56083+086033FM-12+999999999V0209991C00001220001CN0100001N9-02391-02781103331ADDAY101999GF100991001001999999001001MD1710071+9999MW1101
0057295400999991971021409004+56083+086033FM-12+999999999V0209991C00001220001CN0040001N9-02001-02281103271ADDAY101999GF100991001001999999001001MD1710021+9999MW1101
0081295400999991971021412004+56083+086033FM-12+999999999V0209991C00001220001CN0100001N9-02221-02501103371ADDAA199000091AY101999GF100991001001999999001001KA1999M-01781MD1310081+9999MW1021
0043295400999991971021415004+56083+086033FM-12+999999999V0209991C00001220001CN0500001N9-02781-03001103491ADDAY101999GF100991001001999999001001MW1021
0057295400999991971021418004+56083+086033FM-12+999999999V0209991C00001220001CN0500001N9-03391-03611103501ADDAY101999GF100991001001999999001001MD1210011+9999MW1021
0057295400999991971021421004+56083+086033FM-12+999999999V0209991C00001220001CN0500001N9-03611-03781103781ADDAY101999GF100991001001999999001001MD1210211+9999MW1021
0106295400999991971021500004+56083+086033FM-12+999999999V0209991C00001220001CN0500001N9-03781-04001103811ADDAA199000091AY101999GF100991001001999999001001HL10009IA1319IA2999-04119KA1999N-03891MD1210021+9999MW1021
0057295400999991971021503004+56083+086033FM-12+999999999V0209991C00001220001CN0020001N9-03891-04111103831ADDAY101999GF100991001001999999001001MD1210011+9999MW1101
0057295400999991971021506004+56083+086033FM-12+999999999V0209991C00001220001CN0040001N9-02781-02891103801ADDAY101999GF100991001001999999001001MD1210051+9999MW1101
0057295400999991971021509004+56083+086033FM-12+999999999V0209991C00001220001CN0100001N9-02111-02501103611ADDAY101999GF100991001001999999001001MD1810131+9999MW1021
0081295400999991971021512004+56083+086033FM-12+999999999V0209991C00001220001CN0100001N9-02501-02781103621ADDAA199000091AY111999GF100991001001999999001001KA1999M-02111MD1710011+9999MW1021
0057295400999991971021515004+56083+086033FM-12+999999999V0209991C00001220001CN0300001N9-03001-03221103561ADDAY121999GF105991001001999999001011MD1710091+9999MW1021
0057295400999991971021518004+56083+086033FM-12+999999999V0209991C000019999999N0260001N9-03111-03281103531ADDAY121999GF106991031001999999031011MD1710031+9999MW1031
0057295400999991971021521004+56083+086033FM-12+999999999V0209991C00001220001CN0280001N9-03221-03391103531ADDAY121999GF108991001001999999001071MD1710011+9999MW1021
0106295400999991971021600004+56083+086033FM-12+999999999V0209991C00001024001CN0400001N9-03111-03281103451ADDAA199000091AY121999GF108991081001999999011999HL10009IA1319IA2999-03619KA1999N-03281MD1710081+9999MW1031
0057295400999991971021603004+56083+086033FM-12+999999999V0209991C00001220001CN0040001N9-02891-03111103321ADDAY121999GF108991001001999999001999MD1710101+9999MW1101
0057295400999991971021606004+56083+086033FM-12+999999999V0209991C00001220001CN0040001N9-02281-02611103201ADDAY121999GF108991001001999999001071MD1710091+9999MW1101
0057295400999991971021609004+56083+086033FM-12+999999999V0209991C00001220001CN0040001N9-02001-02391103131ADDAY121999GF108991001001999999001091MD1710031+9999MW1101
0081295400999991971021612004+56083+086033FM-12+999999999V0209991C00001220001CN0040001N9-02391-02721103081ADDAA199000091AY111999GF100991001001999999001001KA1999M-01891MD1710081+9999MW1101
0057295400999991971021615004+56083+086033FM-12+999999999V0209991C00001220001CN0045001N9-02891-03111103091ADDAY121999GF100991001001999999001001MD1710041+9999MW1101
0057295400999991971021618004+56083+086033FM-12+999999999V0209991C00001220001CN0049001N9-03221-03391103041ADDAY101999GF100991001001999999001001MD1710061+9999MW1101
0057295400999991971021621004+56083+086033FM-12+999999999V0209991C00001220001CN0048001N9-03501-03721103021ADDAY101999GF100991001001999999001001MD1710061+9999MW1101
0087295400999991971021700004+56083+086033FM-12+999999999V0209991C00001220001CN0050001N9-03721-03891102941ADDAA199000091AY101999GF100991001001999999001001IA1319KA1999N-03721MD1710081+9999MW1101
0057295400999991971021706004+56083+086033FM-12+999999999V0209991C00001220001CN0040001N9-02721-03001102601ADDAY101999GF100991001001999999001001MD1710151+9999MW1101
0057295400999991971021709004+56083+086033FM-12+999999999V0209991C00001220001CN0040001N9-01891-02281102311ADDAY101999GF100991001001999999001001MD1710231+9999MW1101
0081295400999991971021712004+56083+086033FM-12+999999999V0200501N00311024001CN0040001N9-01781-02111102061ADDAA199000091AY111999GF108991081001999999021999KA1999M-01721MD1710221+9999MW1101
0057295400999991971021718004+56083+086033FM-12+999999999V0209991C00001024001CN0060001N9-01501-01611101461ADDAY171999GF108991081001999999021999MD1710241+9999MW1711
0057295400999991971021721004+56083+086033FM-12+999999999V0209991C00001024001CN0080001N9-01501-01611101261ADDAY171999GF108991081001999999021999MD1710181+9999MW1711
0117295400999991971021800004+56083+086033FM-12+999999999V0209991C00001024001CN0080001N9-01221-01281100981ADDAA106008091AA299002091AY171999GF108991081001999999021999HL10009IA1319IA2999-02289KA1999N-01781MD1710261+9999MW1711
0057295400999991971021803004+56083+086033FM-12+999999999V0201801N00211024001CN0040001N9-01001-01111100681ADDAY171999GF108991081001999999021999MD1710291+9999MW1711
0057295400999991971021806004+56083+086033FM-12+999999999V0209991C00001000151CN0040001N9-00781-00891100381ADDAY171999GF108991071081000251091021MD1710271+9999MW1711
0057295400999991971021809004+56083+086033FM-12+999999999V0201401N00211024001CN0040001N9-00721-00781100081ADDAY171999GF108991081001999999021999MD1710301+9999MW1711
0092295400999991971021812004+56083+086033FM-12+999999999V0201401N00311024001CN0040001N9-01001-01001100011ADDAA106008091AA299002091AY171999GF108991081001999999021999KA1999M-00611MD1710081+9999MW1711
0057295400999991971021815004+56083+086033FM-12+999999999V0202301N01591024001CN0060001N9-01391-01721100281ADDAY171999GF108991081001999999021999MD1310231+9999MW1711
0057295400999991971021818004+56083+086033FM-12+999999999V0202301N01591024001CN0040001N9-01721-01781100611ADDAY171999GF108991081001999999021999MD1210301+9999MW1711
0057295400999991971021821004+56083+086033FM-12+999999999V0202301N01591024001CN0044001N9-02001-02221100841ADDAY171999GF108991081001999999021999MD1210211+9999MW1711
0117295400999991971021900004+56083+086033FM-12+999999999V0202301N01391024001CN0050001N9-02111-02391101071ADDAA106008091AA299002091AY171999GF108991081001999999021999HL10009IA1319IA2999-02289KA1999N-02221MD1210221+9999MW1711
0057295400999991971021903004+56083+086033FM-12+999999999V0202301N01181024001CN0040001N9-02221-02501101301ADDAY171999GF108991081001999999021999MD1110221+9999MW1711
0057295400999991971021906004+56083+086033FM-12+999999999V0202301N01181024001CN0040001N9-02221-02501101521ADDAY171999GF108991081001999999021999MD1210221+9999MW1711
0057295400999991971021909004+56083+086033FM-12+999999999V0202301N01181024001CN0040001N9-02111-02391101731ADDAY171999GF108991081001999999021999MD1210211+9999MW1711
0104295400999991971021912004+56083+086033FM-12+999999999V0202301N01181024001CN0040001N9-02281-02611101961ADDAA106001091AA299000391AY171999GF108991081001999999071999HL10009IA1319IA2999-02509MD1210201+9999MW1381
0057295400999991971021915004+56083+086033FM-12+999999999V0202301N00511220001CN0500001N9-02721-02891102101ADDAY131999GF100991001001999999001001MD1210131+9999MW1021
0057295400999991971021918004+56083+086033FM-12+999999999V0202301N00411220001CN0450001N9-02891-03111102251ADDAY131999GF100991001001999999001001MD1210121+9999MW1021
0117295400999991971022000004+56083+086033FM-12+999999999V0201801N00311024001CN0090001N9-03001-03221102451ADDAA106001091AA299000391AY171999GF108991081001999999021999HL10009IA1319IA2999-03899KA1999N-03221MD1210101+9999MW1711
0057295400999991971022003004+56083+086033FM-12+999999999V0201801N00211220001CN0040001N9-03221-03391102651ADDAY171999GF108991001001999999001091MD1210191+9999MW1101
0057295400999991971022006004+56083+086033FM-12+999999999V0202001N00621024001CN0040001N9-03001-03221102831ADDAY171999GF108991081001999999021999MD1310181+9999MW1711
0057295400999991971022009004+56083+086033FM-12+999999999V0202301N00621024001CN0100001N9-03001-03391103061ADDAY171999GF108991081001999999071999MD1210231+9999MW1221
0092295400999991971022012004+56083+086033FM-12+999999999V0202301N00621024001CN0040001N9-03221-03501103311ADDAA106001091AA299000391AY171999GF108991081001999999021999KA1999M-03001MD1210231+9999MW1711
0057295400999991971022015004+56083+086033FM-12+999999999V0201801N00211220001CN0110001N9-03501-03721103621ADDAY171999GF100991001001999999001001MD1210291+9999MW1021
0057295400999991971022018004+56083+086033FM-12+999999999V0201801N00211220001CN0200001N9-03781-04001103791ADDAY101999GF100991001001999999001001MD1210141+9999MW1021
0057295400999991971022021004+56083+086033FM-12+999999999V0201801N00311220001CN0030001N9-04111-04281103951ADDAY101999GF100991001001999999001001MD1210131+9999MW1101
0106295400999991971022100004+56083+086033FM-12+999999999V0209991C00001220001CN0009001N9-04221-04391104101ADDAA199000091AY141999GF100991001001999999001001HL10009IA1319IA2999-04619KA1999N-04221MD1210131+9999MW1281
0057295400999991971022103004+56083+086033FM-12+999999999V0209991C00001220001CN0005001N9-04221-04391104231ADDAY141999GF100991001001999999001001MD1210131+9999MW1441
0057295400999991971022106004+56083+086033FM-12+999999999V0209991C00001220001CN0005001N9-03391-03611104111ADDAY141999GF100991001001999999001001MD1010051+9999MW1441
0057295400999991971022109004+56083+086033FM-12+999999999V0209991C00001220001CN0040001N9-02891-03221104021ADDAY141999GF100991001001999999001001MD1710051+9999MW1101
0081295400999991971022112004+56083+086033FM-12+999999999V0209991C00001220001CN0000501N9-03221-03501104081ADDAA199000091AY141999GF100991001001999999001001KA1999M-02891MD1010341+9999MW1041
0057295400999991971022115004+56083+086033FM-12+999999999V0209991C00001220001CN0500001N9-03391-03721104051ADDAY101999GF100991001001999999001001MD1810051+9999MW1021
0057295400999991971022118004+56083+086033FM-12+999999999V0209991C00001220001CN0500001N9-03501-03721103961ADDAY101999GF100991001001999999001001MD1710101+9999MW1021
0043295400999991971022121004+56083+086033FM-12+999999999V0209991C00001220001CN0500001N9-03501-03721103961ADDAY101999GF100991001001999999001001MW1021
0106295400999991971022200004+56083+086033FM-12+999999999V0209991C00001220001CN0070001N9-04001-04221103951ADDAA199000091AY101999GF100991001001999999001001HL10009IA1319IA2999-04399KA1999N-04001MD1710021+9999MW1101
0057295400999991971022203004+56083+086033FM-12+999999999V0209991C00001220001CN0040001N9-03781-04001103941ADDAY111999GF106991001001999999001011MD1310011+9999MW1101
0057295400999991971022206004+56083+086033FM-12+999999999V0200201N00311220001CN0040001N9-03221-03391103821ADDAY131999GF106991001001999999001011MD1810071+9999MW1101
0057295400999991971022209004+56083+086033FM-12+999999999V0200501N00411220001CN0100001N9-02721-03001103671ADDAY121999GF105991001001999999001011MD1710091+9999MW1021
0081295400999991971022212004+56083+086033FM-12+999999999V0200501N00311024001CN0100001N9-02721-03001103671ADDAA199000091AY121999GF108991081001999999071999KA1999M-02721MD1710021+9999MW1031
0057295400999991971022215004+56083+086033FM-12+999999999V0209991C00001220001CN0500001N9-03001-03281103711ADDAY171999GF100991001001999999001001MD1310021+9999MW1011
0057295400999991971022218004+56083+086033FM-12+999999999V0209991C00001220001CN0500001N9-03221-03391103681ADDAY171999GF100991001001999999001001MD1710041+9999MW1021
0117295400999991971022300004+56083+086033FM-12+999999999V0209991C00001220001CN0500001N9-03391-03611103671ADDAA106001091AA299000391AY101999GF100991001001999999001001HL10009IA1319IA2999-03789KA1999N-03501MD1710011+9999MW1021
0057295400999991971022303004+56083+086033FM-12+999999999V0209991C00001220001CN0100001N9-03501-03721103631ADDAY101999GF100991001001999999001001MD1710051+9999MW1021
0057295400999991971022306004+56083+086033FM-12+999999999V0203601N00511220001CN0100001N9-03111-03281103541ADDAY101999GF100991001001999999001001MD1710051+9999MW1021
0057295400999991971022309004+56083+086033FM-12+999999999V0200201N00511220001CN0100001N9-02781-03111103521ADDAY101999GF100991001001999999001001MD1410001+9999MW1021
0081295400999991971022312004+56083+086033FM-12+999999999V0203601N00211220001CN0100001N9-02781-03221103561ADDAA199000091AY101999GF100991001001999999001001KA1999M-02781MD1210041+9999MW1021
0057295400999991971022315004+56083+086033FM-12+999999999V0203601N00211220001CN0500001N9-03221-03391103551ADDAY101999GF100991001001999999001001MD1810041+9999MW1021
0051295400999991971022321004+56083+086033FM-12+999999999V0203201N002119999999N0350001N9+99999+99999103581ADDAY101999GF199999999071017501071081MD1710171+9999
0106295400999991971022400004+56083+086033FM-12+999999999V0203201N00311220001CN0500001N9-03221-03391103611ADDAA199000091AY101999GF100991001001999999001001HL10009IA1319IA2999-04119KA1999N-03281MD1210031+9999MW1021
0057295400999991971022403004+56083+086033FM-12+999999999V0203401N00211220001CN0200001N9-03391-03611103681ADDAY101999GF100991001001999999001001MD1210051+9999MW1021
0057295400999991971022406004+56083+086033FM-12+999999999V0203601N00411220001CN0100001N9-02781-03111103551ADDAY101999GF100991001001999999001001MD1810081+9999MW1021
0057295400999991971022409004+56083+086033FM-12+999999999V0203601N00211220001CN0200001N9-02391-02781103471ADDAY101999GF100991001001999999001001MD1710051+9999MW1021
0081295400999991971022412004+56083+086033FM-12+999999999V0203401N00211220001CN0100001N9-02721-03111103501ADDAA199000091AY101999GF100991001001999999001001KA1999M-02391MD1310021+9999MW1021
0057295400999991971022418004+56083+086033FM-12+999999999V0209991C00001220001CN0450001N9-03501-03721103551ADDAY101999GF100991001001999999001001MD1810051+9999MW1021
0106295400999991971022500004+56083+086033FM-12+999999999V0209991C00001220001CN0200001N9-04001-04221103551ADDAA199000091AY101999GF100991001001999999001001HL10009IA1319IA2999-04289KA1999N-04001MD1410001+9999MW1021
0057295400999991971022503004+56083+086033FM-12+999999999V0209991C00001220001CN0005001N9-03781-04001103531ADDAY141999GF100991001001999999001001MD1410001+9999MW1441
0057295400999991971022506004+56083+086033FM-12+999999999V0209991C00001220001CN0100001N9-02501-02891103341ADDAY141999GF100991001001999999001001MD1710091+9999MW1021
0057295400999991971022509004+56083+086033FM-12+999999999V0203601N00411220001CN0100001N9-02391-02781103301ADDAY101999GF100991001001999999001001MD1710041+9999MW1021
0081295400999991971022512004+56083+086033FM-12+999999999V0203601N00311220001CN0100001N9-02501-03001103351ADDAA199000091AY101999GF100991001001999999001001KA1999M-02391MD1310051+9999MW1021
0057295400999991971022515004+56083+086033FM-12+999999999V0200201N00211220001CN0500001N9-02781-03001103391ADDAY101999GF100991001001999999001001MD1210011+9999MW1021
0057295400999991971022518004+56083+086033FM-12+999999999V0203601N00211220001CN0500001N9-03501-03721103371ADDAY101999GF100991001001999999001001MD1810071+9999MW1021
0127295400999991971022600004+56083+086033FM-12+999999999V0200201N00211220001CN0500001N9-03721-03891103431ADDAA199000091AY101999GF100991001001999999001001HL10009IA1319IA2999-03899KA1999N-03721MW1021EQDQ01+000042APCTENQ02+000032APC3  
0057295400999991971022603004+56083+086033FM-12+999999999V0203601N00311220001CN0100001N9-03281-03501103551ADDAY101999GF100991001001999999001001MD1210151+9999MW1021
0057295400999991971022606004+56083+086033FM-12+999999999V0200201N00411220001CN0100001N9-02781-03111103501ADDAY101999GF100991001001999999001001MD1410001+9999MW1021
0057295400999991971022609004+56083+086033FM-12+999999999V0203601N00311220001CN0100001N9-02281-02721103491ADDAY101999GF100991001001999999001001MD1210031+9999MW1021
0081295400999991971022612004+56083+086033FM-12+999999999V0203601N00211220001CN0100001N9-02391-02781103581ADDAA199000091AY101999GF100991001001999999001001KA1999M-02281MD1210081+9999MW1021
0043295400999991971022615004+56083+086033FM-12+999999999V0203601N00311220001CN0500001N9-02781-03111103791ADDAY101999GF100991001001999999001001MW1021
0057295400999991971022618004+56083+086033FM-12+999999999V0209991C00001220001CN0500001N9-03111-03221103681ADDAY101999GF100991001001999999001001MD1810031+9999MW1021
0057295400999991971022621004+56083+086033FM-12+999999999V0209991C00001220001CN0500001N9-03221-03391103701ADDAY101999GF100991001001999999001001MD1310011+9999MW1021
0106295400999991971022700004+56083+086033FM-12+999999999V0209991C00001220001CN0500001N9-03781-04001103831ADDAA199000091AY101999GF100991001001999999001001HL10009IA1319IA2999-04289KA1999N-03781MD1210071+9999MW1021
0057295400999991971022703004+56083+086033FM-12+999999999V0209991C00001220001CN0005001N9-03611-03781103941ADDAY141999GF100991001001999999001001MD1210121+9999MW1441
0057295400999991971022706004+56083+086033FM-12+999999999V0209991C00001220001CN0040001N9-02391-02781103901ADDAY141999GF100991001001999999001001MD1210061+9999MW1101
0057295400999991971022709004+56083+086033FM-12+999999999V0200201N00411220001CN0200001N9-02221-02611103851ADDAY101999GF100991001001999999001001MD1810031+9999MW1021
0081295400999991971022712004+56083+086033FM-12+999999999V0203401N00411220001CN0100001N9-02391-02781103961ADDAA199000091AY101999GF100991001001999999001001KA1999M-02221MD1310091+9999MW1021
0057295400999991971022715004+56083+086033FM-12+999999999V0209991C00001220001CN0500001N9-02891-03221104311ADDAY101999GF100991001001999999001001MD1210031+9999MW1021
0057295400999991971022718004+56083+086033FM-12+999999999V0209991C00001220001CN0500001N9-03391-03611104071ADDAY101999GF100991001001999999001001MD1410001+9999MW1021
0057295400999991971022721004+56083+086033FM-12+999999999V0209991C00001220001CN0500001N9-03721-03891104101ADDAY101999GF100991001001999999001001MD1410001+9999MW1021
0056295400999991971022800004+56083+086033FM-12+999999999V0209991C00001220001CN0042001N9-03891-04111104171ADDAY101999GF100991001001999999001001KA1999N-03891MW1101
0057295400999991971022803004+56083+086033FM-12+999999999V0209991C00001220001CN0005001N9-03891-04111104121ADDAY141999GF100991001001999999001001MD1210011+9999MW1441
0057295400999991971022806004+56083+086033FM-12+999999999V0209991C00001220001CN0040001N9-02611-03002103961ADDAY141999GF100991001001999999001001MD1810061+9999MW1101
0062295400999991971022809004+56083+086033FM-12+999999999V0209991C000019999999N0100001N9-01891-03111103791ADDAY101999GF199999999011017501999999MW1021EQDQ01+000002SCOTLC
0081295400999991971022812004+56083+086033FM-12+999999999V0203201N00101220001CN0100001N9-02391-02891103851ADDAA199000091AY101999GF100991001001999999001001KA1999M-01891MD1310011+9999MW1021
0057295400999991971022815004+56083+086033FM-12+999999999V0209991C00001220001CN0500001N9-02781-03111103871ADDAY101999GF100991001001999999001001MD1810011+9999MW1021
0057295400999991971022818004+56083+086033FM-12+999999999V0209991C00001220001CN0500001N9-03391-03611103871ADDAY101999GF100991001001999999001001MD1710051+9999MW1021
0106295400999991971030100004+56083+086033FM-12+999999999V0209991C00001220001CN0035001N9-03781-04001103881ADDAA199000091AY101999GF100991001001999999001001HL10009IA1319IA2999-04229KA1999N-03781MD1810031+9999MW1101
0057295400999991971030103004+56083+086033FM-12+999999999V0209991C00001220001CN0002001N9-03611-03781103841ADDAY141999GF100991001001999999001001MD1210061+9999MW1441
0057295400999991971030106004+56083+086033FM-12+999999999V0209991C00001220001CN0080001N9-02281-02781103791ADDAY141999GF100991001001999999001001MD1710041+9999MW1101
0057295400999991971030109004+56083+086033FM-12+999999999V0200501N00411220001CN0200001N9-02001-02501103771ADDAY101999GF100991001001999999001001MD1310021+9999MW1021
0081295400999991971030112004+56083+086033FM-12+999999999V0203201N00311220001CN0200001N9-02221-02721103901ADDAA199000091AY101999GF100991001001999999001001KA1999M-02001MD1210111+9999MW1021
0057295400999991971030115004+56083+086033FM-12+999999999V0209991C00001220001CN0500001N9-02721-03001103971ADDAY101999GF100991001001999999001001MD1210041+9999MW1021
0057295400999991971030118004+56083+086033FM-12+999999999V0203401N00211220001CN0500001N9-02611-02891104001ADDAY101999GF100991001001999999001001MD1210031+9999MW1021
0057295400999991971030121004+56083+086033FM-12+999999999V0209991C00001220001CN0500001N9-03391-03611104111ADDAY101999GF100991001001999999001001MD1210041+9999MW1021
0106295400999991971030200004+56083+086033FM-12+999999999V0209991C00001220001CN0015001N9-03721-03891104241ADDAA199000091AY101999GF100991001001999999001001HL10009IA1319IA2999-04229KA1999N-03721MD1210101+9999MW1101
0057295400999991971030203004+56083+086033FM-12+999999999V0209991C00001220001CN0007001N9-03611-03781104361ADDAY141999GF100991001001999999001001MD1210121+9999MW1441
0057295400999991971030206004+56083+086033FM-12+999999999V0209991C00001220001CN0200001N9-02281-02781104381ADDAY141999GF100991001001999999001001MD1210141+9999MW1021
0057295400999991971030209004+56083+086033FM-12+999999999V0209991C00001220001CN0200001N9-02001-02501104401ADDAY101999GF100991001001999999001001MD1210041+9999MW1021
0081295400999991971030212004+56083+086033FM-12+999999999V0209991C00001220001CN0200001N9-02111-02611104491ADDAA199000091AY101999GF100991001001999999001001KA1999M-01891MD1210081+9999MW1021
0057295400999991971030215004+56083+086033FM-12+999999999V0201401N003119999999N0500001N9-02781-03111104711ADDAY101999GF199999999071017501071081MD1010121+9999MW1021
0057295400999991971030218004+56083+086033FM-12+999999999V0201801N00411220001CN0500001N9-03221-03391104781ADDAY101999GF100991001001999999001001MD1210041+9999MW1021
0057295400999991971030221004+56083+086033FM-12+999999999V0201801N00311220001CN0500001N9-03221-03391104841ADDAY101999GF100991001001999999001001MD1210041+9999MW1021
0106295400999991971030300004+56083+086033FM-12+999999999V0201801N00311220001CN0500001N9-03221-03391104911ADDAA199000091AY101999GF100991001001999999001001HL10009IA1319IA2999-03619KA1999N-03221MD1210081+9999MW1021
0057295400999991971030303004+56083+086033FM-12+999999999V0202001N00211220001CN0018001N9-02891-03111104941ADDAY111999GF105991001001999999001011MD1210041+9999MW1101
0057295400999991971030306004+56083+086033FM-12+999999999V0202301N00411220001CN0080001N9-02221-02501104911ADDAY121999GF105991001001999999001011MD1210041+9999MW1101
0057295400999991971030309004+56083+086033FM-12+999999999V0202301N00621220001CN0060001N9-01781-02111104761ADDAY121999GF105991001001999999001011MD1810121+9999MW1101
0081295400999991971030312004+56083+086033FM-12+999999999V0202301N00511220001CN0200001N9-02001-02281104811ADDAA199000091AY121999GF105991001001999999001011KA1999M-01391MD1310041+9999MW1021
0057295400999991971030315004+56083+086033FM-12+999999999V0201801N00311220001CN0300001N9-02611-02781104901ADDAY111999GF100991001001999999001001MD1210051+9999MW1021
0057295400999991971030318004+56083+086033FM-12+999999999V0201801N00211220001CN0500001N9-02611-02781104921ADDAY101999GF100991001001999999001001MD1210011+9999MW1021
0057295400999991971030321004+56083+086033FM-12+999999999V0201801N00511220001CN0500001N9-02721-02891104891ADDAY101999GF105991001001999999001011MD1810031+9999MW1031
0106295400999991971030400004+56083+086033FM-12+999999999V0201801N00511220001CN0450001N9-02721-02891104861ADDAA199000091AY121999GF105991001001999999001011HL10009IA1319IA2999-03009KA1999N-02721MD1710051+9999MW1021
0057295400999991971030403004+56083+086033FM-12+999999999V0202001N00621220001CN0060001N9-02611-02781104851ADDAY111999GF100991001001999999001001MD1310011+9999MW1101
0057295400999991971030406004+56083+086033FM-12+999999999V0202301N00621220001CN0200001N9-02001-02281104761ADDAY111999GF106991001001999999001011MD1710041+9999MW1031
0057295400999991971030409004+56083+086033FM-12+999999999V0202301N00981220001CN0200001N9-01781-02221104691ADDAY121999GF102991001001999999001011MD1710061+9999MW1021
0081295400999991971030412004+56083+086033FM-12+999999999V0202001N00311220001CN0200001N9-02001-02391104661ADDAA199000091AY121999GF105991001001999999001011KA1999M-01781MD1710031+9999MW1011
0057295400999991971030418004+56083+086033FM-12+999999999V0202001N00311220001CN0300001N9-02611-02891104691ADDAY101999GF100991001001999999001001MD1410001+9999MW1021
0106295400999991971030500004+56083+086033FM-12+999999999V0202001N00311220001CN0300001N9-02891-03111104611ADDAA199000091AY101999GF100991001001999999001001HL10009IA1319IA2999-03289KA1999N-02891MD1710091+9999MW1021
0057295400999991971030503004+56083+086033FM-12+999999999V0201801N00211220001CN0060001N9-02721-02891104561ADDAY111999GF107991001001999999001011MD1710031+9999MW1101
0057295400999991971030506004+56083+086033FM-12+999999999V0202301N00211220001CN0060001N9-02001-02281104401ADDAY111999GF103991001001999999001011MD1710091+9999MW1101
0057295400999991971030509004+56083+086033FM-12+999999999V0209991C00001220001CN0200001N9-01611-02111104231ADDAY101999GF100991001001999999001001MD1710141+9999MW1021
0081295400999991971030512004+56083+086033FM-12+999999999V0209991C00001220001CN0200001N9-01611-02221104121ADDAA199000091AY101999GF100991001001999999001001KA1999M-01391MD1710101+9999MW1021
0057295400999991971030515004+56083+086033FM-12+999999999V0209991C00001220001CN0500001N9-02501-02781104151ADDAY101999GF100991001001999999001001MD1710051+9999MW1021
0057295400999991971030518004+56083+086033FM-12+999999999V0209991C00001220001CN0500001N9-02891-03111104221ADDAY101999GF100991001001999999001001MD1310051+9999MW1021
0057295400999991971030521004+56083+086033FM-12+999999999V0201801N00101220001CN0500001N9-03111-03281104231ADDAY101999GF100991001001999999001001MD1810011+9999MW1021
0106295400999991971030600004+56083+086033FM-12+999999999V0201801N00101220001CN0140001N9-03221-03391104251ADDAA199000091AY101999GF100991001001999999001001HL10009IA1319IA2999-03619KA1999N-03281MD1310011+9999MW1021
0057295400999991971030603004+56083+086033FM-12+999999999V0201801N00211220001CN0060001N9-03001-03221104321ADDAY101999GF100991001001999999001001MD1210071+9999MW1101
0057295400999991971030609004+56083+086033FM-12+999999999V0209991C00001220001CN0200001N9-01501-02111104101ADDAY121999GF105991001001999999001011MD1810181+9999MW1011
0081295400999991971030612004+56083+086033FM-12+999999999V0209991C00001220001CN0200001N9-01611-02111104091ADDAA199000091AY111999GF100991001001999999001001KA1999M-01281MD1710031+9999MW1011
0057295400999991971030615004+56083+086033FM-12+999999999V0202001N00211220001CN0500001N9-02611-02891104261ADDAY101999GF100991001001999999001001MD1310111+9999MW1021
0057295400999991971030618004+56083+086033FM-12+999999999V0209991C00001220001CN0500001N9-02721-02891104221ADDAY101999GF100991001001999999001001MD1810031+9999MW1021
0057295400999991971030621004+56083+086033FM-12+999999999V0209991C00001220001CN0500001N9+99999+99999104301ADDAY101999GF100991001001999999001001MD1210031+9999MW1021
0106295400999991971030700004+56083+086033FM-12+999999999V0209991C00001220001CN0500001N9-03221-03391104311ADDAA199000091AY101999GF100991001001999999001001HL10009IA1319IA2999-03289KA1999N-03221MD1410001+9999MW1021
0057295400999991971030703004+56083+086033FM-12+999999999V0209991C00001220001CN0060001N9-02891-03111104311ADDAY111999GF105991001001999999001011MD1210031+9999MW1101
0057295400999991971030706004+56083+086033FM-12+999999999V0209991C00001220001CN0060001N9-01611-02001104201ADDAY121999GF105991001001999999001011MD1810011+9999MW1101
0081295400999991971030712004+56083+086033FM-12+999999999V0209991C00001220001CN0200001N9-01391-01781104041ADDAA199000091AY121999GF106991001001999999001011KA1999M-01001MD1710031+9999MW1021
0057295400999991971030715004+56083+086033FM-12+999999999V0201801N00311220001CN0400001N9-01891-02221104131ADDAY121999GF108991001001999999001071MD1310061+9999MW1031
0106295400999991971030800004+56083+086033FM-12+999999999V0201801N00511220001CN0300001N9-02281-02391104301ADDAA199000091AY121999GF106991001001999999001011HL10009IA1319IA2999-02729KA1999N-02281MD1210041+9999MW1021
0057295400999991971030803004+56083+086033FM-12+999999999V0202001N00411220001CN0200001N9-02111-02281104401ADDAY121999GF108991001001999999001061MD1210121+9999MW1021
0057295400999991971030806004+56083+086033FM-12+999999999V0202301N00411220001CN0200001N9-01391-01721104441ADDAY121999GF107991001001999999001091MD1210081+9999MW1021
0057295400999991971030809004+56083+086033FM-12+999999999V0202301N00511220001CN0200001N9-01001-01391104371ADDAY121999GF105991001001999999001011MD1710041+9999MW1011
0081295400999991971030812004+56083+086033FM-12+999999999V0202301N00211220001CN0200001N9-01281-01721104451ADDAA199000091AY111999GF102991001001999999001011KA1999M-01001MD1210071+9999MW1011
0057295400999991971030815004+56083+086033FM-12+999999999V0202301N00311220001CN0500001N9-01781-02111104521ADDAY101999GF100991001001999999001001MD1210021+9999MW1021
0057295400999991971030818004+56083+086033FM-12+999999999V0201801N00411220001CN0500001N9-02001-02221104711ADDAY111999GF105991001001999999001011MD1210171+9999MW1031
0057295400999991971030821004+56083+086033FM-12+999999999V0201801N00411220001CN0500001N9-02111-02281104811ADDAY121999GF105991001001999999001011MD1210081+9999MW1021
0106295400999991971030900004+56083+086033FM-12+999999999V0201801N00411220001CN0200001N9-02221-02391104851ADDAA199000091AY121999GF106991001001999999001011HL10009IA1319IA2999-02789KA1999N-02221MD1210041+9999MW1021
0057295400999991971030906004+56083+086033FM-12+999999999V0202001N00511220001CN0060001N9-01281-01721104921ADDAY121999GF105991001001999999001011MD1210041+9999MW1101
0057295400999991971030909004+56083+086033FM-12+999999999V0202001N00621220001CN0200001N9-01111-01501104931ADDAY121999GF106991001001999999001011MD1210011+9999MW1031
0081295400999991971030912004+56083+086033FM-12+999999999V0202001N00511220001CN0200001N9-01391-02281999999ADDAA199000091AY121999GF106991001001999999001011KA1999M-01111MD1210071+9999MW1021
0057295400999991971030918004+56083+086033FM-12+999999999V0201801N00101220001CN0500001N9-02111-02281999999ADDAY101999GF100991001001999999001001MD1210011+9999MW1011
0106295400999991971031000004+56083+086033FM-12+999999999V0201601N00211220001CN0070001N9-02611-02781999999ADDAA199000091AY101999GF102991001001999999001011HL10009IA1319IA2999-03229KA1999N-02611MD1410001+9999MW1101
0057295400999991971031003004+56083+086033FM-12+999999999V0209991C00001220001CN0018001N9-02001-02611999999ADDAY111999GF104991001001999999001011MD1210051+9999MW1101
0057295400999991971031006004+56083+086033FM-12+999999999V0209991C00001220001CN0200001N9-01391-01781104991ADDAY121999GF106991001001999999001011MD1810111+9999MW1021
0057295400999991971031009004+56083+086033FM-12+999999999V0203601N00311220001CN0200001N9-00891-01611104811ADDAY121999GF105991001001999999001011MD1710151+9999MW1021
0081295400999991971031012004+56083+086033FM-12+999999999V0203601N00211220001CN0200001N9-01111-01611104721ADDAA199000091AY111999GF103991001001999999001011KA1999M-00891MD1710091+9999MW1011
0057295400999991971031015004+56083+086033FM-12+999999999V0209991C00001220001CN0500001N9-01611-01891104791ADDAY101999GF100991001001999999001001MD1310031+9999MW1021
0057295400999991971031018004+56083+086033FM-12+999999999V0209991C00001220001CN0500001N9-02221-02391104781ADDAY101999GF100991001001999999001001MD1810061+9999MW1021
0057295400999991971031021004+56083+086033FM-12+999999999V0209991C00001220001CN0500001N9-02391-02611104761ADDAY101999GF100991001001999999001001MD1710041+9999MW1021
0106295400999991971031100004+56083+086033FM-12+999999999V0209991C00001220001CN0500001N9-02781-03001104811ADDAA199000091AY101999GF100991001001999999001001HL10009IA1319IA2999-03119KA1999N-02781MD1310021+9999MW1021
0057295400999991971031103004+56083+086033FM-12+999999999V0209991C00001220001CN0015001N9-02281-02501104751ADDAY101999GF100991001001999999001001MD1810011+9999MW1101
0057295400999991971031106004+56083+086033FM-12+999999999V0200201N00311220001CN0042001N9-01111-01501104551ADDAY101999GF100991001001999999001001MD1710111+9999MW1101
0057295400999991971031109004+56083+086033FM-12+999999999V0200201N00511220001CN0200001N9-00721-01281104431ADDAY101999GF100991001001999999001001MD1710101+9999MW1021
0081295400999991971031112004+56083+086033FM-12+999999999V0200201N00411220001CN0270001N9-00721-01221104361ADDAA199000091AY101999GF100991001001999999001001KA1999M-00611MD1710061+9999MW1021
0057295400999991971031115004+56083+086033FM-12+999999999V0200501N00311220001CN0500001N9-01501-01781104381ADDAY101999GF100991001001999999001001MD1710041+9999MW1021
0057295400999991971031118004+56083+086033FM-12+999999999V0209991C00001220001CN0500001N9-01611-01891104261ADDAY101999GF100991001001999999001001MD1710121+9999MW1021
0057295400999991971031121004+56083+086033FM-12+999999999V0209991C00001220001CN0500001N9-01501-01781104051ADDAY101999GF100991001001999999001001MD1710191+9999MW1021
0057295400999991971031203004+56083+086033FM-12+999999999V0200201N00311220001CN0060001N9-01391-01721103921ADDAY101999GF100991001001999999001001MD1710061+9999MW1021
0057295400999991971031206004+56083+086033FM-12+999999999V0200701N00621220001CN0200001N9-00611-01111103711ADDAY101999GF100991001001999999001001MD1710151+9999MW1021
0057295400999991971031209004+56083+086033FM-12+999999999V0200501N00621220001CN0200001N9-00391-01391103571ADDAY101999GF100991001001999999001001MD1710131+9999MW1021
0057295400999991971031218004+56083+086033FM-12+999999999V0200501N00511220001CN0500001N9-01111-01501103411ADDAY101999GF100991001001999999001001MD1710131+9999MW1021
0057295400999991971031221004+56083+086033FM-12+999999999V0200501N00511220001CN0500001N9-01221-01721103321ADDAY101999GF100991001001999999001001MD1710091+9999MW1021
0106295400999991971031300004+56083+086033FM-12+999999999V0200201N00311220001CN0500001N9-01391-01891103331ADDAA199000091AY101999GF100991001001999999001001HL10009IA1319IA2999-02399KA1999N-01501MD1410001+9999MW1021
0057295400999991971031303004+56083+086033FM-12+999999999V0200701N00411220001CN0200001N9-01111-01501103381ADDAY101999GF100991001001999999001001MD1210061+9999MW1021
0057295400999991971031306004+56083+086033FM-12+999999999V0200501N00511220001CN0200001N9-00611-01281103211ADDAY101999GF100991001001999999001001MD1710131+9999MW1021
0057295400999991971031309004+56083+086033FM-12+999999999V0200501N00511220001CN0200001N9-00391-01111103161ADDAY101999GF100991001001999999001001MD1710031+9999MW1021
0081295400999991971031312004+56083+086033FM-12+999999999V0200501N00311220001CN0200001N9-00391-01111103131ADDAA199000091AY101999GF100991001001999999001001KA1999M-00281MD1710031+9999MW1021
0076295400999991971031315004+56083+086033FM-12+999999999V0209991C00001220001CN0500001N9-01001-01391103161ADDAY101999GF100991001001999999001001MD1710011+9999MW1021EQDQ01+009992WODIR 
0057295400999991971031318004+56083+086033FM-12+999999999V0203601N00101220001CN0500001N9-01281-01611103201ADDAY101999GF100991001001999999001001MD1310021+9999MW1021
0081295400999991971031400004+56083+086033FM-12+999999999V0201801N00101220001CN0180001N9-02221-02281103401ADDAA199000091AY101999GF100991001001999999001001KA1999N-02221MD1210091+9999MW1021
0057295400999991971031403004+56083+086033FM-12+999999999V0209991C00001220001CN0042001N9-01781-02001103591ADDAY101999GF100991001001999999001001MD1210221+9999MW1101
0057295400999991971031406004+56083+086033FM-12+999999999V0200201N00211220001CN0200001N9-00501-01221103361ADDAY101999GF100991001001999999001001MD1810151+9999MW1021
0057295400999991971031409004+56083+086033FM-12+999999999V0200701N00821220001CN0200001N9-00221-01111103191ADDAY101999GF100991001001999999001001MD1710141+9999MW1021
0081295400999991971031412004+56083+086033FM-12+999999999V0200901N00621220001CN0200001N9-00221-01111103101ADDAA199000091AY101999GF100991001001999999001001KA1999M-00221MD1710091+9999MW1021
0057295400999991971031415004+56083+086033FM-12+999999999V0200901N00511220001CN0500001N9-00781-01391102991ADDAY101999GF100991001001999999001001MD1710141+9999MW1021
0057295400999991971031418004+56083+086033FM-12+999999999V0200501N00621220001CN0500001N9-00891-01501102751ADDAY101999GF100991001001999999001001MD1710251+9999MW1021
0057295400999991971031421004+56083+086033FM-12+999999999V0200501N00621220001CN0500001N9-01111-01501102441ADDAY101999GF100991001001999999001001MD1710321+9999MW1021
0106295400999991971031500004+56083+086033FM-12+999999999V0200901N00511220001CN0500001N9-01221-01611102261ADDAA199000091AY101999GF100991001001999999001001HL10009IA1319IA2999-02229KA1999N-01281MD1710181+9999MW1021
0057295400999991971031503004+56083+086033FM-12+999999999V0200901N00411220001CN0200001N9-01001-01391102001ADDAY111999GF106991001001999999001011MD1710241+9999MW1031
0057295400999991971031506004+56083+086033FM-12+999999999V0200901N00821220001CN0200001N9-00391-01281101831ADDAY121999GF106991001001999999001011MD1710121+9999MW1021
0057295400999991971031509004+56083+086033FM-12+999999999V0200901N00621220001CN0200001N9-00221-01111101741ADDAY121999GF106991001001999999001011MD1710081+9999MW1021
0081295400999991971031512004+56083+086033FM-12+999999999V0200901N00411024001CN0200001N9-00221-01001101841ADDAA199000091AY121999GF108991061001999999031011KA1999M-00111MD1310101+9999MW1031
0057295400999991971031515004+56083+086033FM-12+999999999V0200901N00211024001CN0049001N9-00501-00501101921ADDAY171999GF108991081001999999021999MD1210071+9999MW1711
0057295400999991971031518004+56083+086033FM-12+999999999V0209991C00001024001CN0060001N9-00501-00501102051ADDAY171999GF108991081001999999021999MD1210121+9999MW1711
0117295400999991971031600004+56083+086033FM-12+999999999V0202001N00411024001CN0080001N9-00281-00391102471ADDAA106004091AA299001091AY171999GF108991081001999999021999HL10009IA1319IA2999-00619KA1999N-00501MD1210191+9999MW1711
0057295400999991971031603004+56083+086033FM-12+999999999V0202301N006219999999N0070001N9-00281-00391102671ADDAY171999GF105991031001999999031011MD1210191+9999MW1101
0043295400999991971031606004+56083+086033FM-12+999999999V0202001N006219999999N0080001N9-00221-00391102671ADDAY171999GF108991041001999999031011MW1101
0073295400999991971031609004+56083+086033FM-12+999999999V0202001N00621006601CN0060001N9-00111-00501102631ADDAY121999GA1081+006609059GF108991081051008001999999MD1710031+9999MW1101
0086295400999991971031612004+56083+086033FM-12+999999999V0201801N00211005101CN0060001N9-00111-00281102551ADDAY121999GA1081+005109059GF108991081051004501999999KA1999M+00001MD1710091+9999MW1101
0073295400999991971031615004+56083+086033FM-12+999999999V0202001N00511005701CN0060001N9-00111-00221102341ADDAY121999GA1081+005709059GF108991081051004501999999MD1710191+9999MW1101
0073295400999991971031618004+56083+086033FM-12+999999999V0201401N00511004801CN0200001N9-00111-00221101971ADDAY121999GA1081+004809079GF108991081051004501999999MD1710361+9999MW1101
0073295400999991971031621004+56083+086033FM-12+999999999V0201101N00411005701CN0500001N9-00221-00281101651ADDAY121999GA1081+005709059GF108991081051004501999999MD1710351+9999MW1021
0122295400999991971031700004+56083+086033FM-12+999999999V0201101N00621003601CN0500001N9-00221-00281101231ADDAA199000091AY121999GA1081+003609059GF108991081051004501999999HL10009IA1319IA2999-00509KA1999N-00221MD1710411+9999MW1021
0057295400999991971031703004+56083+086033FM-12+999999999V0201801N00101220001CN0200001N9+00001-00221100801ADDAY121999GF108991001001999999001071MD1710411+9999MW1011
0057295400999991971031706004+56083+086033FM-12+999999999V0202001N00411024001CN0200001N9+00501-00281100581ADDAY121999GF108991081001999999011999MD1710181+9999MW1031
0057295400999991971031709004+56083+086033FM-12+999999999V0202001N00621024001CN0200001N9+00611+00001100491ADDAY121999GF108991081001999999021999MD1710091+9999MW1021
0081295400999991971031712004+56083+086033FM-12+999999999V0202001N00621024001CN0200001N9+00391+00221100441ADDAA199000091AY121999GF108991081001999999021999KA1999M+00611MD1710061+9999MW1021
0057295400999991971031715004+56083+086033FM-12+999999999V0201801N01181030001CN0500001N9+00221+00111100451ADDAY121999GF108991021051012501011999MD1410001+9999MW1021
0073295400999991971031718004+56083+086033FM-12+999999999V0202301N01181004801CN0080001N9+00111+00001100581ADDAY171999GA1061+004809079GF108991061071004501021999MD1210171+9999MW1681
0057295400999991971031721004+56083+086033FM-12+999999999V0202001N01181220001CN0300001N9+00001-00111100581ADDAY171999GF100991001001999999001001MD1410001+9999MW1011
0117295400999991971031800004+56083+086033FM-12+999999999V0202301N01181024001CN0040001N9-00221-00221100381ADDAA106008091AA299002091AY171999GF108991081001999999021999HL10009IA1319IA2999-00289KA1999N-00221MD1710201+9999MW1711
0057295400999991971031803004+56083+086033FM-12+999999999V0202301N01591024001CN0023001N9-00281-00611100331ADDAY171999GF108991081001999999021999MD1710071+9999MW1711
0057295400999991971031806004+56083+086033FM-12+999999999V0202301N01591024001CN0022001N9-00281-00611100261ADDAY171999GF108991081001999999021999MD1710071+9999MW1711
0057295400999991971031809004+56083+086033FM-12+999999999V0202001N01591024001CN0038001N9-00281-00391100271ADDAY171999GF108991081001999999021999MD1310011+9999MW1711
0092295400999991971031812004+56083+086033FM-12+999999999V0202301N00981024001CN0039001N9-00281-00391100361ADDAA106004091AA299001091AY171999GF108991081001999999021999KA1999M-00281MD1210091+9999MW1711
0057295400999991971031815004+56083+086033FM-12+999999999V0202301N00981024001CN0040001N9-00391-00611100721ADDAY171999GF108991081001999999021999MD1210361+9999MW1711
0057295400999991971031818004+56083+086033FM-12+999999999V0202301N00981024001CN0040001N9-00781-00891101231ADDAY171999GF108991081001999999021999MD1210471+9999MW1711
0057295400999991971031821004+56083+086033FM-12+999999999V0202301N00821024001CN0040001N9+00001+99999101561ADDAY171999GF108991081001999999011999MD1210261+9999MW1711
0117295400999991971031900004+56083+086033FM-12+999999999V0202301N00821024001CN0040001N9-00891-01111101701ADDAA106004091AA299001091AY171999GF108991081001999999011999HL10009IA1319IA2999-01229KA1999N-01111MD1210181+9999MW1711
0057295400999991971031903004+56083+086033FM-12+999999999V0202301N00981024001CN0041001N9-00781-00891101801ADDAY171999GF108991081001999999021999MD1210121+9999MW1711
0057295400999991971031906004+56083+086033FM-12+999999999V0202301N00821024001CN0034001N9-00611-00891101911ADDAY171999GF108991081001999999021999MD1210121+9999MW1711
0057295400999991971031909004+56083+086033FM-12+999999999V0202301N00821024001CN0050001N9-00501-00721101961ADDAY171999GF108991081001999999021999MD1210071+9999MW1711
0092295400999991971031912004+56083+086033FM-12+999999999V0202301N00821024001CN0070001N9-00611-00721102091ADDAA106001091AA299000391AY171999GF108991081001999999021999KA1999M-00221MD1210101+9999MW1711
0092295400999991971031915004+56083+086033FM-12+999999999V0202301N007219999999N0230001N9-00721-00721102181ADDAY171999GF108991031001999999031999MD1210091+9999MW1361EQDQ01+000072APCTENQ02+000782APC3  
0057295400999991971031918004+56083+086033FM-12+999999999V0202301N00621220001CN0300001N9-00781-00891102241ADDAY171999GF103991001001999999001011MD1210061+9999MW1011
0057295400999991971031921004+56083+086033FM-12+999999999V0202301N00411024001CN0350001N9-00611-00721102321ADDAY111999GF108991081001999999071999MD1210091+9999MW1031
0095295400999991971032000004+56083+086033FM-12+999999999V0202301N00411030001CN0280001N9-00611-00721102381ADDAY121999GF108991031051008001031999HL10009IA1319IA2999-01229KA1999N-00891MD1210061+9999MW1031
0057295400999991971032003004+56083+086033FM-12+999999999V0202001N00411030001CN0036001N9-00611-00721102471ADDAY171999GF108991031071004501011999MD1210091+9999MW1711
0057295400999991971032006004+56083+086033FM-12+999999999V0202301N00411024001CN0070001N9-00281-00501102481ADDAY171999GF108991051001999999011011MD1210031+9999MW1711
0057295400999991971032009004+56083+086033FM-12+999999999V0202301N00821075001CN0070001N9-00221-00721102321ADDAY171999GF108991021011012501001071MD1810151+9999MW1101
0086295400999991971032012004+56083+086033FM-12+999999999V0202301N00411004501CN0080001N9-00281-00501102411ADDAY171999GA1051+004509079GF108991051071004501011999KA1999M-00221MD1310081+9999MW1101
0057295400999991971032015004+56083+086033FM-12+999999999V0202001N006219999999N0090001N9-00501-00611102311ADDAY111999GF108991021001999999031011MD1810111+9999MW1101
0057295400999991971032018004+56083+086033FM-12+999999999V0202001N00621024001CN0090001N9-00501-00611102151ADDAY121999GF108991061001999999031011MD1710161+9999MW1101
0057295400999991971032021004+56083+086033FM-12+999999999V0202001N00621024001CN0090001N9-00501-00721101931ADDAY121999GF108991051001999999031011MD1710201+9999MW1101
0106295400999991971032100004+56083+086033FM-12+999999999V0202001N00821024001CN0090001N9+99999+99999101731ADDAA199000091AY121999GF108991081001999999031999HL10009IA1319IA2999-00789KA1999N-00611MD1710221+9999MW1101
0057295400999991971032103004+56083+086033FM-12+999999999V0201801N00621024001CN0070001N9-00391-00721101491ADDAY111999GF108991081001999999011999MD1710211+9999MW1101
0057295400999991971032106004+56083+086033FM-12+999999999V0201801N00621024001CN0080001N9-00221-00781101181ADDAY121999GF108991081001999999011999MD1710301+9999MW1101
0057295400999991971032109004+56083+086033FM-12+999999999V0201801N00621024001CN0200001N9+00001-01001100871ADDAY121999GF108991081001999999011999MD1710291+9999MW1021
0081295400999991971032112004+56083+086033FM-12+999999999V0201801N00621220001CN0200001N9+00001-00501100701ADDAA199000091AY111999GF103991031001999999031001KA1999M+00111MD1710171+9999MW1011
0057295400999991971032115004+56083+086033FM-12+999999999V0201801N00411220001CN0500001N9-00281-00781100751ADDAY101999GF100991001001999999001001MD1310031+9999MW1011
0057295400999991971032118004+56083+086033FM-12+999999999V0201801N00621220001CN0500001N9-00611-00891100961ADDAY101999GF100991001001999999001001MD1210191+9999MW1021
0057295400999991971032121004+56083+086033FM-12+999999999V0201801N00411220001CN0500001N9-00781-01001101151ADDAY101999GF100991001001999999001001MD1210171+9999MW1021
0106295400999991971032200004+56083+086033FM-12+999999999V0202001N00511024001CN0150001N9-00781-00891101171ADDAA199000091AY111999GF108991081001999999011999HL10009IA1319IA2999-01399KA1999N-00781MD1210021+9999MW1031
0057295400999991971032203004+56083+086033FM-12+999999999V0202001N00621024001CN0040001N9-00611-00891101071ADDAY121999GF108991081001999999011999MD1810091+9999MW1101
0057295400999991971032206004+56083+086033FM-12+999999999V0202001N007219999999N0200001N9-00111-00611100891ADDAY121999GF106991031001999999031011MD1710141+9999MW1011
0057295400999991971032209004+56083+086033FM-12+999999999V0202001N008219999999N0200001N9+00111-00611100691ADDAY121999GF106991031001999999031011MD1710191+9999MW1021
0081295400999991971032212004+56083+086033FM-12+999999999V0202001N011819999999N0200001N9+00111-00611100621ADDAA199000091AY121999GF106991021001999999031011KA1999M+00111MD1710071+9999MW1021
0057295400999991971032215004+56083+086033FM-12+999999999V0202301N00511220001CN0200001N9-00111-01001100841ADDAY121999GF106991001001999999001011MD1710071+9999MW1021
0057295400999991971032218004+56083+086033FM-12+999999999V0202001N00211024001CN0500001N9-00221-00781100651ADDAY121999GF108991081001999999011999MD1410001+9999MW1021
0106295400999991971032300004+56083+086033FM-12+999999999V0201801N00411024001CN0200001N9-00221-01001100601ADDAA199000091AY121999GF108991081001999999011999HL10009IA1319IA2999-01009KA1999N-00611MD1810101+9999MW1021
0057295400999991971032303004+56083+086033FM-12+999999999V0202001N00311024001CN0042001N9-00501-00891100541ADDAY121999GF108991081001999999071999MD1710051+9999MW1101
0057295400999991971032306004+56083+086033FM-12+999999999V0209991C00001024001CN0200001N9-00111-00721100531ADDAY121999GF108991081001999999071999MD1310021+9999MW1021
0057295400999991971032309004+56083+086033FM-12+999999999V0203201N00211024001CN0200001N9-00111-00501100651ADDAY121999GF108991081001999999071999MD1210101+9999MW1021
0070295400999991971032312004+56083+086033FM-12+999999999V0202701N00511024001CN0080001N9-00111-00281100861ADDAY171999GF108991081001999999071999KA1999M+00001MD1210231+9999MW1711
0057295400999991971032315004+56083+086033FM-12+999999999V0202701N00511024001CN0050001N9-00221-00281101121ADDAY171999GF108991081001999999071999MD1210251+9999MW1711
0057295400999991971032318004+56083+086033FM-12+999999999V0202301N00511024001CN0049001N9-00281-00391101301ADDAY171999GF108991081001999999021999MD1210181+9999MW1711
0057295400999991971032321004+56083+086033FM-12+999999999V0202001N00821024001CN0015001N9-00391-00391101421ADDAY171999GF108991081001999999021999MD1210121+9999MW1711
