0057295410999991971010103004+56067+085617FM-12+025099999V0209991C00001075001CN0100001N9+99999+99999103761ADDAY121999GF107991021051008001001021MD1410001+9999MW1021
0057295410999991971010106004+56067+085617FM-12+025099999V0202501N00101220001CN0040001N9-02221-02501103781ADDAY111999GF101991011051008001001001MD1210011+9999MW1101
0092295410999991971010109004+56067+085617FM-12+025099999V0202501N00101220001CN0040001N9-01891-02111103741ADDAY101999GF102991021051008001001011MD1710041+9999MW1101EQDQ01+000012APCTENQ02+000002APC3  
0081295410999991971010112004+56067+085617FM-12+025099999V0202501N00101220001CN0048001N9-02281-02501103831ADDAA199000091AY101999GF103991011051008001001011KA1999M-01781MD1310041+9999MW1101
0057295410999991971010115004+56067+085617FM-12+025099999V0209991C00001220001CN0050001N9-02611-02781103761ADDAY101999GF100991001001999999001001MD1710111+9999MW1111
0057295410999991971010118004+56067+085617FM-12+025099999V0202501N00101007801CN0100001N9-02721-03001103771ADDAY111999GF107991071051008001001001MD1710011+9999MW1031
0106295410999991971010200004+56067+085617FM-12+025099999V0209991C00001220001CN0140001N9-02391-02721103551ADDAA199000091AY111999GF100991001001999999001001HL10009IA1319IA2999-03229KA1999N-02781MD1710111+9999MW1021
0057295410999991971010203004+56067+085617FM-12+025099999V0201801N00311220001CN0200001N9-02001-02281103551ADDAY101999GF103991001001999999001021MD1710411+9999MW1021
0057295410999991971010206004+56067+085617FM-12+025099999V0202001N00721030001CN0100001N9-01221-01611103241ADDAY131999GF108991031011017501061041MD1310041+9999MW1361
0057295410999991971010209004+56067+085617FM-12+025099999V0202001N00721007801CN0100001N9-01111-01391102921ADDAY131999GF108991081001008001021999MD1710201+9999MW1361
0081295410999991971010212004+56067+085617FM-12+025099999V0202301N01081007801CN0230001N9-01001-01221102761ADDAA199000091AY131999GF108991081031008001999999KA1999M-01001MD1710151+9999MW1361
0057295410999991971010215004+56067+085617FM-12+025099999V0202301N01081007801CN0120001N9-00781-01001102761ADDAY131999GF108991081031008001999999MD1710211+9999MW1361
0037295410999991971010218004+56067+085617FM-12+025099999V0202001N01491030001CN0041001N9-00611+99999102761ADDAY131999GF108991021021022501051081
0117295410999991971010300004+56067+085617FM-12+025099999V0202001N01181007801CN0080001N9-00391-00611101841ADDAA106008091AA299002091AY181999GF107991071031008001001001HL10009IA1319IA2999-01229KA1999N-01001MD1710101+9999MW1851
0057295410999991971010303004+56067+085617FM-12+025099999V0202001N01491007801CN0020001N9-00611-00721101681ADDAY181999GF108991081031008001999999MD1710181+9999MW1851
0057295410999991971010306004+56067+085617FM-12+025099999V0202001N01491007801CN0020001N9-00501-00721101411ADDAY181999GF107991071031008001001001MD1710241+9999MW1851
0057295410999991971010309004+56067+085617FM-12+025099999V0202001N01491007801CN0100001N9-00391-00611101081ADDAY131999GF107991061031008001001021MD1710321+9999MW1361
0092295410999991971010312004+56067+085617FM-12+025099999V0202001N01591007801CN0025001N9-00501-00721100991ADDAA106012091AA299003091AY181999GF108991081031008001999999KA1999M-00391MD1810101+9999MW1851
0062295410999991971010318004+56067+085617FM-12+025099999V0202001N020119999999N0040001N9-00391-01001100991ADDAY181999GF108991999031999999081999MW1851EQDQ01+000082SCOTLC
0057295410999991971010321004+56067+085617FM-12+025099999V0202001N01591007801CN0032001N9+99999+99999100991ADDAY181999GF108991081031008001999999MD1710031+9999MW1851
0057295410999991971010403004+56067+085617FM-12+025099999V0202501N00821007801CN0100001N9-01001-01221100941ADDAY131999GF107991071031008001001001MD1210221+9999MW1361
0057295410999991971010406004+56067+085617FM-12+025099999V0202501N00981007801CN0040001N9-01111-01281101191ADDAY131999GF107991071031008001001001MD1210231+9999MW1851
0057295410999991971010409004+56067+085617FM-12+025099999V0202001N00721007801CN0100001N9-01221-01281101351ADDAY181999GF108991081031008001999999MD1210151+9999MW1851
0079295410999991971010412004+56067+085617FM-12+025099999V0202001N00721007801CN0080001N9-01281-01501101571ADDAA106004091AA299001091AY181999GF107991061031008001001011MD1210171+9999MW1851
0057295410999991971010415004+56067+085617FM-12+025099999V0202501N007219999999N0090001N9-01281-01611101811ADDAY171999GF108991021999008001021999MD1210291+9999MW1711
0057295410999991971010418004+56067+085617FM-12+025099999V0202501N00511007801CN0080001N9-01391-01611102201ADDAY171999GF108991081001008001021999MD1210361+9999MW1711
0057295410999991971010421004+56067+085617FM-12+025099999V0202501N00211220001CN0200001N9-01721-01891102711ADDAY171999GF100991001001999999001001MD1310451+9999MW1021
0117295410999991971010500004+56067+085617FM-12+025099999V0202501N00211220001CN0150001N9-02001-02281103121ADDAA106004091AA299001091AY171999GF100991001001999999001001HL10009IA1319IA2999-02289KA1999N-02111MD1210371+9999MW1011
0057295410999991971010503004+56067+085617FM-12+025099999V0202001N00311220001CN0200001N9-02221-02391103431ADDAY111999GF106991001001999999001051MD1210311+9999MW1021
0057295410999991971010506004+56067+085617FM-12+025099999V0202001N00511075001CN0200001N9-01781-02221103601ADDAY121999GF107991031001999999041051MD1210181+9999MW1021
0057295410999991971010509004+56067+085617FM-12+025099999V0202001N00511220001CN0500001N9-01781-02111103751ADDAY121999GF107991001001999999001021MD1210131+9999MW1011
0081295410999991971010512004+56067+085617FM-12+025099999V0202001N00621220001CN0280001N9-01781-02221103881ADDAA199000091AY121999GF105991001001999999001021KA1999M-01721MD1310131+9999MW1021
0057295410999991971010518004+56067+085617FM-12+025099999V0201801N00821220001CN0150001N9-01891-02281103451ADDAY131999GF107991001001999999001021MD1710341+9999MW1361
0057295410999991971010521004+56067+085617FM-12+025099999V0201801N00721220001CN0130001N9-01781-02111102951ADDAY131999GF107991001001999999001021MD1710461+9999MW1361
0106295410999991971010600004+56067+085617FM-12+025099999V0201601N01081007801CN0140001N9-01611-01891102341ADDAA199000091AY131999GF108991081031008001999999HL10009IA1319IA2999-02119KA1999N-02001MD1710571+9999MW1361
0057295410999991971010603004+56067+085617FM-12+025099999V0202001N00981007801CN0200001N9-01111-01501101741ADDAY131999GF108991081031008001999999MD1710521+9999MW1361
0057295410999991971010606004+56067+085617FM-12+025099999V0202001N00981007801CN0020001N9-01001-01221101681ADDAY181999GF108991081031008001999999MD1710051+9999MW1851
0092295410999991971010612004+56067+085617FM-12+025099999V0202301N00721007801CN0070001N9-01111-01281101951ADDAA106004091AA299001091AY181999GF107991061031008001001021KA1999M-01001MD1310301+9999MW1851
0057295410999991971010615004+56067+085617FM-12+025099999V0202301N00721007801CN0070001N9-01111-01221102091ADDAY181999GF107991071031008001999999MD1210121+9999MW1851
0057295410999991971010618004+56067+085617FM-12+025099999V0202301N00511007801CN0090001N9-01001-01221102121ADDAY181999GF108991081031008001999999MD1210051+9999MW1851
0057295410999991971010621004+56067+085617FM-12+025099999V0202501N00211007801CN0080001N9-01001-01221102211ADDAY181999GF107991071031008001001001MD1210091+9999MW1851
0117295410999991971010700004+56067+085617FM-12+025099999V0202001N00101007801CN0090001N9-01001-01221102251ADDAA106004091AA299001091AY181999GF108991081031008001999999HL10009IA1319IA2999-01229KA1999N-01221MD1210041+9999MW1851
0057295410999991971010703004+56067+085617FM-12+025099999V0202001N00411007801CN0040001N9-01111-01281102221ADDAY181999GF107991071031008001001001MD1810051+9999MW1851
0057295410999991971010706004+56067+085617FM-12+025099999V0202001N00511007801CN0040001N9-01111-01281101961ADDAY181999GF108991081031008001999999MD1710241+9999MW1861
0057295410999991971010709004+56067+085617FM-12+025099999V0202001N00721007801CN0040001N9-01001-01281101611ADDAY181999GF108991081031008001999999MD1710341+9999MW1851
0092295410999991971010712004+56067+085617FM-12+025099999V0202001N00721007801CN0080001N9-00891-01221101211ADDAA106002091AA299000591AY181999GF108991081031008001999999KA1999M-00891MD1710401+9999MW1851
0076295410999991971010718004+56067+085617FM-12+025099999V0202001N00981007801CN0070001N9-00781-01001100372ADDAY181999GF108991081031008001999999MD1710291+9999MW1851EQDQ01+100373APOSLP
0057295410999991971010721004+56067+085617FM-12+025099999V0202501N00981007801CN0048001N9-01001-01221100521ADDAY181999GF108991081031008001999999MD1210091+9999MW1851
0117295410999991971010800004+56067+085617FM-12+025099999V0202501N00821007801CN0080001N9-01221-01281100831ADDAA106016091AA299004091AY181999GF108991081031008001999999HL10009IA1319IA2999-01289KA1999N-01221MD1210291+9999MW1851
0057295410999991971010803004+56067+085617FM-12+025099999V0202501N00411007801CN0040001N9-01501-01611101301ADDAY181999GF107991051031008001001021MD1210431+9999MW1851
0057295410999991971010806004+56067+085617FM-12+025099999V0202501N00621007801CN0040001N9-01611-01891101551ADDAY181999GF107991051031008001001021MD1210241+9999MW1851
0057295410999991971010809004+56067+085617FM-12+025099999V0202501N00621024001CN0040001N9-01721-01891101811ADDAY181999GF107991051001999999021021MD1210221+9999MW1851
0079295410999991971010812004+56067+085617FM-12+025099999V0202501N00511220001CN0290001N9-01891-02221101921ADDAA106004091AA299001091AY171999GF104991001001999999001051MD1210091+9999MW1011
0057295410999991971010815004+56067+085617FM-12+025099999V0202301N00411220001CN0150001N9-02111-02391101891ADDAY111999GF107991001001999999001051MD1710051+9999MW1031
0057295410999991971010818004+56067+085617FM-12+025099999V0202001N00311220001CN0200001N9-02111-02281101741ADDAY111999GF107991001001999999001011MD1810151+9999MW1021
0057295410999991971010821004+56067+085617FM-12+025099999V0202501N00621007801CN0080001N9-02001-02281101701ADDAY171999GF108991081001008001021999MD1610031+9999MW1711
0152295410999991971010900004+56067+085617FM-12+025099999V0202501N00511220001CN0180001N9-02391-02721101871ADDAA106002091AA299000591AY171999GA1021+001509009GF107991001001999999001011HL10009IA1319IA2999-02619KA1999N-02391MD1310111+9999MW1021EQDQ01+000992SCOLCB
0057295410999991971010903004+56067+085617FM-12+025099999V0202301N00311075001CN0100001N9-02611-02781102151ADDAY121999GF107991021001999999041051MD1210251+9999MW1021
0057295410999991971010906004+56067+085617FM-12+025099999V0202301N00511220001CN0100001N9-02391-02721102261ADDAY121999GF107991001001999999001051MD1210121+9999MW1021
0057295410999991971010909004+56067+085617FM-12+025099999V0202001N00211075001CN0100001N9+99999+99999102261ADDAY121999GF107991031001999999041051MD1410001+9999MW1021
0081295410999991971010912004+56067+085617FM-12+025099999V0202001N00311220001CN0170001N9-02391-02721102291ADDAA199000091AY121999GF101991001001999999001021KA1999M-02281MD1210031+9999MW1021
0057295410999991971010918004+56067+085617FM-12+025099999V0202001N00311220001CN0220001N9-02391-02721102161ADDAY121999GF107991001001999999001011MD1710151+9999MW1021
0057295410999991971010921004+56067+085617FM-12+025099999V0202001N00211024001CN0240001N9-02281-02501102111ADDAY121999GF108991081001999999021999MD1710061+9999MW1021
0117295410999991971011000004+56067+085617FM-12+025099999V0202301N00101024001CN0080001N9-02221-02391101941ADDAA106002091AA299000591AY171999GF108991081001999999021999HL10009IA1319IA2999-02789KA1999N-02501MD1710121+9999MW1711
0057295410999991971011003004+56067+085617FM-12+025099999V0202001N00511075001CN0200001N9-02001-02221101801ADDAY171999GF108991031051017501001051MD1710111+9999MW1221
0057295410999991971011006004+56067+085617FM-12+025099999V0202301N00621024001CN0040001N9-01721-01891101651ADDAY171999GF108991081001999999021999MD1710121+9999MW1711
0057295410999991971011009004+56067+085617FM-12+025099999V0202001N00411007801CN0040001N9-01611-01781101391ADDAY171999GF108991081001008001021999MD1710231+9999MW1711
0092295410999991971011012004+56067+085617FM-12+025099999V0202001N00511007801CN0090001N9-01391-01611101201ADDAA106008091AA299002091AY171999GF108991081001008001021999KA1999M-01221MD1710171+9999MW1711
0057295410999991971011015004+56067+085617FM-12+025099999V0202301N00511220001CN0070001N9-01391-01611101081ADDAY171999GF108991001001999999001071MD1710121+9999MW1711
0057295410999991971011018004+56067+085617FM-12+025099999V0202901N00101220001CN0090001N9-01501-01611101061ADDAY171999GF108991001001999999001071MD1710021+9999MW1711
0057295410999991971011021004+56067+085617FM-12+025099999V0202901N00311220001CN0060001N9-02001-02221101371ADDAY171999GF108991001001999999001071MD1310231+9999MW1711
0117295410999991971011100004+56067+085617FM-12+025099999V0202701N00211220001CN0280001N9-02501-02721101781ADDAA106008091AA299002091AY171999GF106991001001999999001011HL10009IA1319IA2999-02729KA1999N-02501MD1210331+9999MW1021
0057295410999991971011103004+56067+085617FM-12+025099999V0202501N00511220001CN0100001N9-02611-02781102141ADDAY121999GF107991021051008001001011MD1210341+9999MW1021
0057295410999991971011106004+56067+085617FM-12+025099999V0202501N00411220001CN0100001N9-02611-02781102401ADDAY121999GF106991001001999999001021MD1710251+9999MW1021
0057295410999991971011109004+56067+085617FM-12+025099999V0202001N00411220001CN0200001N9-02391-02721102451ADDAY121999GF107991001001999999001011MD1210071+9999MW1021
0081295410999991971011112004+56067+085617FM-12+025099999V0202001N00621220001CN0200001N9-02281-02501102161ADDAA199000091AY121999GF107991001001999999001051KA1999M-02281MD1710261+9999MW1021
0076295410999991971011121004+56067+085617FM-12+025099999V0201801N01591024001CN0060001N9-01391-01611099672ADDAY171999GF108991081001999999021999MD1710912+9999MW1711EQDQ01+000912APC3  
0057295410999991971011218004+56067+085617FM-12+025099999V0202001N00981015001CN9999999N9-00781+99999099671ADDAY171999GF108991051091017501001021MD1210251+9999MW1711
0057295410999991971011221004+56067+085617FM-12+025099999V0202001N02011000151CN9999999N9+99999+99999099671ADDAY171999GF108991071011000251999999MD1410001+9999MW1711
0057295410999991971011315004+56067+085617FM-12+025099999V0202001N007219999999N0037001N9-00501+99999099671ADDAY131999GF108991011021999999999999MD1210051+9999MW1371
0098295410999991971011400004+56067+085617FM-12+025099999V0202501N00101220001CN0080001N9-02001-02221099671ADDAY171999GA1999+063009029GF108991081001999999021999IA1319MD1710091+9999MW1711EQDQ01    003SCCGA1
0057295410999991971011409004+56067+085617FM-12+025099999V0209999900101007801CN0040001N9-01501-01611099671ADDAY171999GF107991061031008001001021MD1710281+9999MW1851
0143295410999991971011412004+56067+085617FM-12+025099999V0202701N007219999999N0140001N9-02501-02721099671ADDAA106012091AA299003091AY131999GF105991999031008001001001KA1999M-01391MD1410001+9999MW1361EQDQ01+000032SCOTLCQ02+000022APCTENQ03+000892APC3  
0062295410999991971011418004+56067+085617FM-12+025099999V0202301N00821075001CN0150001N9-03221-03391101412ADDAY131999GF105991021031008001001071MW1361EQDQ01+101413APOSLP
0057295410999991971011421004+56067+085617FM-12+025099999V0202301N00721220001CN0120001N9-03281-03501101731ADDAY131999GF102991001001999999001071MD1210311+9999MW1361
0106295410999991971011500004+56067+085617FM-12+025099999V0202001N00721220001CN0170001N9-03391-03611101841ADDAA199000091AY131999GF104991001001999999001071HL10009IA1319IA2999-03619KA1999N-03391MD1210081+9999MW1361
0057295410999991971011506004+56067+085617FM-12+025099999V0202001N00721220001CN0200001N9-03111-03281101971ADDAY131999GF102991001001999999001071MD1210041+9999MW1361
0057295410999991971011509004+56067+085617FM-12+025099999V0202001N00821220001CN0100001N9-02891-03221102011ADDAY131999GF107991001001999999001021MD1310081+9999MW1361
0081295410999991971011512004+56067+085617FM-12+025099999V0202001N00871220001CN0110001N9-02781-03001102061ADDAA199000091AY131999GF102991001001999999001021KA1999M-02721MD1110061+9999MW1361
0057295410999991971011515004+56067+085617FM-12+025099999V0202001N00981220001CN0160001N9-02611-02781102021ADDAY131999GF108991001001999999001071MD1810011+9999MW1361
0057295410999991971011518004+56067+085617FM-12+025099999V0201801N00721007801CN0070001N9-02391-02721101941ADDAY181999GF108991081031008001999999MD1710051+9999MW1851
0043295410999991971011521004+56067+085617FM-12+025099999V0202001N00821000601CN0060001N9+99999+99999101961ADDAY171999GF108991081071000751999999MW1711
0082295410999991971011600004+56067+085617FM-12+025099999V0202001N00821024001CN0070001N9-02221-02391101891ADDAY171999GF108991081001999999021999HL10009IA1319IA2999-02789MD1810071+9999MW1711
0057295410999991971011606004+56067+085617FM-12+025099999V0202001N01181007801CN0020001N9-01781-02111101341ADDAY171999GF108991081001008001021999MD1710241+9999MW1711
0057295410999991971011609004+56067+085617FM-12+025099999V0202001N01181007801CN0020001N9-01611-01781101201ADDAY171999GF108991081001008001021999MD1710111+9999MW1711
0092295410999991971011612004+56067+085617FM-12+025099999V0202001N01181007801CN0050001N9-01611-01721100991ADDAA106008091AA299002091AY171999GF108991081001008001021999KA1999M-01611MD1710211+9999MW1711
0057295410999991971011615004+56067+085617FM-12+025099999V0202001N01181007801CN0035001N9-01501-01721100871ADDAY171999GF108991081001008001021999MD1710101+9999MW1711
0057295410999991971011618004+56067+085617FM-12+025099999V0202001N00981007801CN0040001N9-01391-01611100601ADDAY171999GF108991081001008001021999MD1710251+9999MW1711
0057295410999991971011621004+56067+085617FM-12+025099999V0202001N01181007801CN0032001N9-01281-01391100461ADDAY171999GF108991081001008001021999MD1710121+9999MW1711
0152295410999991971011700004+56067+085617FM-12+025099999V0202001N01491024001CN0039001N9-02001-02281100461ADDAA106020091AA299005091AY171999GF108991081001999999021999HL10009IA1319IA2999-02229KA1999N-02221MD1410001+9999MW1711EQDQ01+000032APCTENQ02+000782APC3  
0092295410999991971011706004+56067+085617FM-12+025099999V0202501N00821220001CN0200001N9-02891-03221103072ADDAY171999GF103991001001999999001021MD1210542+9999MW1361EQDQ01+103073APOSLPQ02+000542APC3  
0057295410999991971011709004+56067+085617FM-12+025099999V0202501N00511075001CN0200001N9-02891-03221103461ADDAY131999GF107991031051008001001021MD1210371+9999MW1021
0092295410999991971011712004+56067+085617FM-12+025099999V0202301N00311007801CN0350001N9-02781-03001103611ADDAA106002091AA299000591AY131999GF108991081031008001999999KA1999M-02001MD1210161+9999MW1021
0057295410999991971011715004+56067+085617FM-12+025099999V0202501N00211220001CN0350001N9-02781-03001103711ADDAY121999GF107991001001999999001051MD1210101+9999MW1021
0057295410999991971011718004+56067+085617FM-12+025099999V0209991C00001220001CN0450001N9-03221-03391103801ADDAY121999GF107991001001999999001011MD1210041+9999MW1021
0057295410999991971011721004+56067+085617FM-12+025099999V0202501N00101220001CN0400001N9-03781-04001104101ADDAY121999GF106991001001999999001021MD1210191+9999MW1011
0106295410999991971011800004+56067+085617FM-12+025099999V0209991C00001220001CN0050001N9-04111-04281104271ADDAA199000091AY111999GF100991001001999999001001HL10009IA1319IA2999-04399KA1999N-04111MD1210121+9999MW1101
0057295410999991971011803004+56067+085617FM-12+025099999V0209991C00001220001CN0200001N9-04221-04391104421ADDAY101999GF100991001001999999001001MD1210151+9999MW1021
0057295410999991971011806004+56067+085617FM-12+025099999V0209991C00001220001CN0020001N9-03221-03391104161ADDAY101999GF100991001001999999001001MD1810121+9999MW1101
0057295410999991971011809004+56067+085617FM-12+025099999V0201601N00211030001CN0100001N9-02391-02721103841ADDAY111999GF107991021031008001051021MD1710201+9999MW1031
0057295410999991971011815004+56067+085617FM-12+025099999V0201801N00821007801CN0060001N9-01281-01501103121ADDAY181999GF108991081031008001999999MD1110351+9999MW1851
0057295410999991971011818004+56067+085617FM-12+025099999V0201801N00821007801CN0090001N9-01001-01221102791ADDAY181999GF108991081031008001999999MD1710281+9999MW1851
0057295410999991971011903004+56067+085617FM-12+025099999V0202301N00621007801CN0200001N9-00781-01111102581ADDAY181999GF108991081031008001999999MD1310051+9999MW1261
0057295410999991971011906004+56067+085617FM-12+025099999V0202001N00511007801CN0040001N9-00781-01001102541ADDAY181999GF108991081031008001999999MD1810041+9999MW1851
0057295410999991971011909004+56067+085617FM-12+025099999V0202301N00621007801CN0040001N9-00721-00891102541ADDAY181999GF108991081031008001999999MD1410001+9999MW1851
0092295410999991971011912004+56067+085617FM-12+025099999V0202301N00621007801CN0080001N9-00721-00891102581ADDAA106004091AA299001091AY181999GF108991081031008001999999KA1999M-00721MD1310051+9999MW1851
0057295410999991971011918004+56067+085617FM-12+025099999V0202001N00511007801CN0080001N9-00721-00781102601ADDAY181999GF108991081031008001999999MD1410001+9999MW1851
0057295410999991971011921004+56067+085617FM-12+025099999V0202301N00721007801CN0060001N9-00611-00721102561ADDAY181999GF108991081031008001999999MD1810031+9999MW1851
0117295410999991971012000004+56067+085617FM-12+025099999V0202301N00411007801CN0090001N9-00721-00781102541ADDAA106012091AA299003091AY181999GF108991081031008001999999HL10009IA1319IA2999-00789KA1999N-00721MD1710031+9999MW1851
0057295410999991971012003004+56067+085617FM-12+025099999V0202001N00211024001CN0040001N9-00781-00891102561ADDAY181999GF108991081001999999021999MD1310011+9999MW1711
0057295410999991971012006004+56067+085617FM-12+025099999V0202001N00101024001CN0040001N9-00781-00891102531ADDAY171999GF108991081001999999021999MD1810031+9999MW1711
0057295410999991971012009004+56067+085617FM-12+025099999V0202001N00411024001CN0100001N9-00721-00781102411ADDAY171999GF108991081001999999021999MD1710111+9999MW1021
0092295410999991971012012004+56067+085617FM-12+025099999V0202001N00411007801CN0080001N9-00721-00781102341ADDAA106008091AA299002091AY171999GF108991081001008001021999KA1999M-00721MD1710071+9999MW1711
0057295410999991971012015004+56067+085617FM-12+025099999V0202001N00211024001CN0400001N9-00781-00891102321ADDAY171999GF108991081001999999021999MD1710111+9999MW1021
0057295410999991971012018004+56067+085617FM-12+025099999V0202301N00411007801CN0090001N9-00781-01001102151ADDAY171999GF108991081001008001021999MD1610081+9999MW1711
0057295410999991971012021004+56067+085617FM-12+025099999V0202001N00511007801CN0080001N9-00891-01111102161ADDAY171999GF108991081001008001021999MD1410001+9999MW1711
0117295410999991971012100004+56067+085617FM-12+025099999V0202001N00721007801CN0070001N9-00891-01111102161ADDAA106004091AA299001091AY181999GF108991081031008001999999HL10009IA1319IA2999-01119KA1999N-01001MD1410001+9999MW1851
0057295410999991971012106004+56067+085617FM-12+025099999V0202301N00721007801CN0040001N9-00781-01001102151ADDAY181999GF107991071031008001001001MD1810021+9999MW1851
0057295410999991971012109004+56067+085617FM-12+025099999V0202301N00721007801CN0040001N9-00781-01111102151ADDAY181999GF108991081031008001999999MD1410001+9999MW1851
0092295410999991971012112004+56067+085617FM-12+025099999V0202301N00821007801CN0070001N9-00891-01221102211ADDAA106008091AA299002091AY181999GF108991081031008001999999KA1999M-00781MD1210051+9999MW1851
0057295410999991971012118004+56067+085617FM-12+025099999V0202501N00411007801CN0080001N9-01111-01281102571ADDAY181999GF108991081031008001999999MD1210181+9999MW1851
0117295410999991971012200004+56067+085617FM-12+025099999V0202501N00211007801CN0090001N9-01221-01391103021ADDAA106004091AA299001091AY181999GF108991081031008001999999HL10009IA1319IA2999-01229KA1999N-01281MD1210181+9999MW1851
0057295410999991971012206004+56067+085617FM-12+025099999V0202301N00411007801CN0100001N9-01111-01281103201ADDAY181999GF107991051031008001051011MD1210031+9999MW1021
0057295410999991971012209004+56067+085617FM-12+025099999V0202001N00411030001CN0100001N9-01001-01281103101ADDAY121999GF107991031031008001031001MD1710091+9999MW1021
0092295410999991971012212004+56067+085617FM-12+025099999V0202001N00511007801CN0090001N9-00891-01111103311ADDAA106001091AA299000391AY181999GF108991081031008001999999KA1999M-00891MD1610021+9999MW1851
0057295410999991971012215004+56067+085617FM-12+025099999V0202001N00411007801CN0090001N9-00891-01111102951ADDAY181999GF108991081031008001999999MD1710101+9999MW1851
0057295410999991971012221004+56067+085617FM-12+025099999V0202301N00511007801CN0060001N9-00781-01001102771ADDAY181999GF108991081031008001999999MD1810081+9999MW1851
0057295410999991971012303004+56067+085617FM-12+025099999V0202501N00511007801CN0040001N9-00781-01001102851ADDAY181999GF108991081031008001999999MD1210091+9999MW1851
0057295410999991971012306004+56067+085617FM-12+025099999V0202501N00511075001CN0040001N9-00781-01111102961ADDAY181999GF107991021031008001001021MD1310101+9999MW1851
0057295410999991971012309004+56067+085617FM-12+025099999V0202501N00621075001CN0040001N9-00781-01001103121ADDAY181999GF107991031031008001001021MD1210151+9999MW1851
0092295410999991971012312004+56067+085617FM-12+025099999V0202501N00621007801CN0090001N9-00891-01111103351ADDAA106008091AA299002091AY181999GF108991081031008001999999KA1999M-00781MD1310221+9999MW1851
0057295410999991971012315004+56067+085617FM-12+025099999V0202301N00621007801CN0090001N9-00891-01001103441ADDAY181999GF108991081031008001999999MD1210091+9999MW1851
0057295410999991971012318004+56067+085617FM-12+025099999V0202301N00311007801CN0090001N9-01001-01111103531ADDAY181999GF108991081031008001999999MD1210081+9999MW1851
0057295410999991971012321004+56067+085617FM-12+025099999V0202301N00311007801CN0070001N9-01001-01111103571ADDAY181999GF108991081031008001999999MD1210031+9999MW1851
0117295410999991971012400004+56067+085617FM-12+025099999V0202001N00411220001CN0090001N9-01001-01221103611ADDAA106004091AA299001091AY181999GF108991001999999999999999HL10009IA1319IA2999-01119KA1999N-01111MD1210041+9999MW1851
0057295410999991971012403004+56067+085617FM-12+025099999V0202001N00311007801CN0040001N9-01111-01281103681ADDAY181999GF108991081031008001999999MD1210051+9999MW1851
0057295410999991971012406004+56067+085617FM-12+025099999V0202001N00411075001CN0040001N9-01001-01281103601ADDAY181999GF107991031031008001001021MD1810061+9999MW1851
0043295410999991971012409004+56067+085617FM-12+025099999V0202301N00511007801CN0040001N9-01001-01281103541ADDAY181999GF107991051031008001001021MW1851
0092295410999991971012412004+56067+085617FM-12+025099999V0202001N00411007801CN0090001N9-01111-01281103611ADDAA106002091AA299000591AY181999GF108991081031008001999999KA1999M-01001MD1310041+9999MW1851
0057295410999991971012418004+56067+085617FM-12+025099999V0202001N00621007801CN0090001N9-01281-01501103471ADDAY181999GF108991081031008001999999MD1810101+9999MW1851
0057295410999991971012421004+56067+085617FM-12+025099999V0202001N00621007801CN0080001N9-01281-01391103401ADDAY181999GF108991081031008001999999MD1710071+9999MW1851
0057295410999991971012503004+56067+085617FM-12+025099999V0202501N00721007801CN0040001N9-01221-01281103411ADDAY181999GF108991081031008001999999MD1210071+9999MW1851
0043295410999991971012506004+56067+085617FM-12+025099999V0202301N00411007801CN0040001N9-01221-01391103461ADDAY181999GF108991081031008001999999MW1851
0057295410999991971012509004+56067+085617FM-12+025099999V0202001N00511000151CN0040001N9-01221-01281103501ADDAY181999GF107991061051000251021999MD1210041+9999MW1851
0092295410999991971012512004+56067+085617FM-12+025099999V0202001N00511007801CN0070001N9-01281-01501103591ADDAA106008091AA299002091AY181999GF108991081031008001999999KA1999M-01111MD1210071+9999MW1851
0057295410999991971012515004+56067+085617FM-12+025099999V0202001N00411007801CN0090001N9-01221-01391103581ADDAY181999GF108991081031008001999999MD1210011+9999MW1851
0057295410999991971012518004+56067+085617FM-12+025099999V0202001N00311007801CN0090001N9-01221-01391103541ADDAY181999GF108991081031008001999999MD1710041+9999MW1851
0057295410999991971012521004+56067+085617FM-12+025099999V0202001N00311007801CN0080001N9-01391-01611103541ADDAY181999GF108991081031008001999999MD1710031+9999MW1851
0117295410999991971012600004+56067+085617FM-12+025099999V0202001N00411007801CN0080001N9-01391-01611103481ADDAA106002091AA299000591AY181999GF108991081031008001999999HL10009IA1319IA2999-01399KA1999N-01501MD1710061+9999MW1851
0057295410999991971012603004+56067+085617FM-12+025099999V0201801N00621007801CN0040001N9-01391-01611103421ADDAY181999GF108991081031008001999999MD1710061+9999MW1851
0043295410999991971012606004+56067+085617FM-12+025099999V0201801N00511024001CN0040001N9-01221-01781103321ADDAY171999GF108991081001999999011999MW1711
0057295410999991971012609004+56067+085617FM-12+025099999V0202001N00511007801CN0040001N9-01111-01281103201ADDAY181999GF106991051031008001001021MD1710101+9999MW1851
0092295410999991971012612004+56067+085617FM-12+025099999V0201801N00621007801CN0130001N9-01111-01221103131ADDAA106002091AA299000591AY181999GF108991081031008001999999KA1999M-01111MD1710071+9999MW1021
0057295410999991971012615004+56067+085617FM-12+025099999V0202001N00411007801CN0060001N9-01111-01281103081ADDAY181999GF108991081031008001999999MD1710051+9999MW1851
0057295410999991971012618004+56067+085617FM-12+025099999V0202001N00511007801CN0080001N9-01001-01221102991ADDAY181999GF108991081031008001999999MD1710071+9999MW1851
0057295410999991971012621004+56067+085617FM-12+025099999V0202501N00511007801CN0070001N9-01001-01221102981ADDAY181999GF107991071031008001001001MD1710011+9999MW1851
0117295410999991971012700004+56067+085617FM-12+025099999V0202001N00411007801CN0090001N9-01001-01221102941ADDAA106004091AA299001091AY181999GF108991081031008001999999HL10009IA1319IA2999-01229KA1999N-01221MD1710041+9999MW1851
0057295410999991971012703004+56067+085617FM-12+025099999V0202001N00511007801CN0040001N9-01001-01221103011ADDAY181999GF107991051031008001001021MD1310071+9999MW1851
0057295410999991971012706004+56067+085617FM-12+025099999V0202001N00411007801CN0040001N9-00891-01111102961ADDAY181999GF108991081031008001999999MD1710031+9999MW1851
0057295410999991971012709004+56067+085617FM-12+025099999V0202001N00411075001CN0040001N9-00781-01001102961ADDAY181999GF107991041031008001001021MD1210011+9999MW1851
0092295410999991971012712004+56067+085617FM-12+025099999V0202001N00511007801CN0090001N9-00891-01111103081ADDAA106004091AA299001091AY181999GF108991081031008001999999KA1999M-00781MD1210091+9999MW1851
0057295410999991971012718004+56067+085617FM-12+025099999V0202001N00311007801CN0230001N9-00891-01111103151ADDAY181999GF108991081031008001999999MD1210061+9999MW1021
0057295410999991971012803004+56067+085617FM-12+025099999V0202001N00311007801CN0100001N9-00891-01111103271ADDAY121999GF108991081031008001999999MD1210091+9999MW1021
0057295410999991971012806004+56067+085617FM-12+025099999V0202801N00411075001CN0100001N9-00781-00891103251ADDAY121999GF107991041031008001001021MD1410001+9999MW1021
0057295410999991971012809004+56067+085617FM-12+025099999V0202001N00211075001CN0200001N9-00781-00891103271ADDAY121999GF107991031031008001001021MD1210021+9999MW1021
0081295410999991971012812004+56067+085617FM-12+025099999V0201801N00211075001CN0240001N9-01001-01221103301ADDAA199000091AY121999GF107991021031008001001021KA1999M-00501MD1310011+9999MW1021
0057295410999991971012815004+56067+085617FM-12+025099999V0201801N00101007801CN0280001N9-01221-01391103361ADDAY121999GF107991071051008001001001MD1210031+9999MW1021
0117295410999991971012900004+56067+085617FM-12+025099999V0202001N00411007801CN0080001N9-01111-01281103181ADDAA106001091AA299000391AY171999GF108991081001008001021999HL10009IA1319IA2999-01789KA1999N-01391MD1310011+9999MW1711
0057295410999991971012903004+56067+085617FM-12+025099999V0202001N00311007801CN0040001N9-01111-01281103181ADDAY171999GF108991081001008001021999MD1510001+9999MW1711
0057295410999991971012906004+56067+085617FM-12+025099999V0202001N00511075001CN0040001N9-01001-01221103101ADDAY181999GF107991031031008001001021MD1710071+9999MW1851
0057295410999991971012915004+56067+085617FM-12+025099999V0202001N00211007801CN0080001N9-01001-01221103111ADDAY181999GF108991081031008001999999MD1710041+9999MW1851
0057295410999991971012918004+56067+085617FM-12+025099999V0202001N00311007801CN0070001N9-01001-01221103061ADDAY181999GF108991081031008001999999MD1710051+9999MW1851
0117295410999991971013000004+56067+085617FM-12+025099999V0202001N00101007801CN0060001N9-01001-01221103071ADDAA106004091AA299001091AY181999GF108991081031008001999999HL10009IA1319IA2999-01119KA1999N-01111MD1310011+9999MW1851
0057295410999991971013003004+56067+085617FM-12+025099999V0202001N00101007801CN0040001N9-01001-01221103121ADDAY181999GF108991081031008001999999MD1210051+9999MW1851
0057295410999991971013006004+56067+085617FM-12+025099999V0202001N00101007801CN0100001N9-01001-01221103161ADDAY181999GF107991061031008001001021MD1210041+9999MW1011
0092295410999991971013012004+56067+085617FM-12+025099999V0209991C00001007801CN0170001N9-01221-01391103341ADDAA106002091AA299000591AY121999GF106991051051008001001011KA1999M-00781MD1210091+9999MW1021
0057295410999991971013015004+56067+085617FM-12+025099999V0209991C00001220001CN0230001N9-01721-01891103441ADDAY121999GF107991001001999999001011MD1210041+9999MW1021
0043295410999991971013018004+56067+085617FM-12+025099999V0209991C00001220001CN0160001N9-02001-02111103541ADDAY121999GF107991001001999999001011MW1021
0092295410999991971013100004+56067+085617FM-12+025099999V0209991C00001220001CN0038001N9-01891-02221103651ADDAA106276092AA299070091AY121999GF108991001001999999001071KA1999N-02281MD1310131+9999MW1101
0057295410999991971013103004+56067+085617FM-12+025099999V0209991C00001220001CN0005001N9-01721-01891103711ADDAY121999GF108991001001999999001071MD1210081+9999MW1101
0057295410999991971013106004+56067+085617FM-12+025099999V0209991C00001220001CN0040001N9-01391-01611103691ADDAY111999GF100991001001999999001001MD1210021+9999MW1101
0057295410999991971013109004+56067+085617FM-12+025099999V0209991C00001220001CN0100001N9-01001-01221103641ADDAY101999GF100991001001999999001001MD1010011+9999MW1021
0070295410999991971013112004+56067+085617FM-12+025099999V0209991C00001220001CN0032001N9-01391-01611103841ADDAY101999GF102991021061008001001001KA1999M-00611MD1310141+9999MW1101
0057295410999991971013118004+56067+085617FM-12+025099999V0209991C00001004501CN0025001N9-02111-02281104071ADDAY121999GF108991081061004501999999MD1210041+9999MW1101
0092295410999991971020100004+56067+085617FM-12+025099999V0209991C00001012301CN0001001N9-02281-02391104221ADDAA106075091AA224999999AY141999GF108991081041012501999999KA1999N-02501MD1210071+9999MW1481
0057295410999991971020103004+56067+085617FM-12+025099999V0209991C00001220001CN0010001N9-02281-02501104331ADDAY141999GF108991001001999999001071MD1210091+9999MW1421
0057295410999991971020106004+56067+085617FM-12+025099999V0209991C00001220001CN0020001N9-01501-01721104251ADDAY141999GF100991001001999999001001MD1210021+9999MW1101
0057295410999991971020109004+56067+085617FM-12+025099999V0209991C00001220001CN0100001N9-01001-01221104231ADDAY101999GF100991001001999999001001MD1210051+9999MW1021
0081295410999991971020112004+56067+085617FM-12+025099999V0209991C00001220001CN0043001N9-01281-01391104361ADDAA199000091AY101999GF100991001001999999001001KA1999M-00781MD1210101+9999MW1101
0057295410999991971020115004+56067+085617FM-12+025099999V0209991C00001220001CN0048001N9-01781-02111104481ADDAY101999GF100991001001999999001001MD1210041+9999MW1101
0057295410999991971020118004+56067+085617FM-12+025099999V0209991C00001220001CN0031001N9-01611-01781104521ADDAY111999GF108991001001999999001071MD1210061+9999MW1101
0057295410999991971020121004+56067+085617FM-12+025099999V0209991C00001220001CN0002001N9-01501-01611104541ADDAY141999GF108991001001999999001071MD1210031+9999MW1481
0095295410999991971020200004+56067+085617FM-12+025099999V0209991C00001220001CN0004001N9-01391-01501104561ADDAY141999GF108991001001999999001071HL10009IA1319IA2999-02619KA1999N-02111MD1210041+9999MW1481
0057295410999991971020203004+56067+085617FM-12+025099999V0203201N00211004501CN0005001N9-01281-01391104581ADDAY141999GF108991081061004501999999MD1210041+9999MW1441
0057295410999991971020206004+56067+085617FM-12+025099999V0202901N00101007801CN0040001N9-01111-01221104551ADDAY181999GF107991071031008001001001MD1810011+9999MW1851
0057295410999991971020209004+56067+085617FM-12+025099999V0209991C00001220001CN0100001N9-00781-01001104581ADDAY181999GF102991001001999999001091MD1710031+9999MW1011
0092295410999991971020212004+56067+085617FM-12+025099999V0203201N00211024001CN0070001N9-00891-01001104501ADDAA106001091AA299000391AY181999GF108991081001999999021999KA1999M-00721MD1410001+9999MW1711
0057295410999991971020215004+56067+085617FM-12+025099999V0202901N00101024001CN0070001N9-01001-01221104491ADDAY171999GF108991081001999999021999MD1710021+9999MW1711
0057295410999991971020218004+56067+085617FM-12+025099999V0202901N00211007801CN0050001N9-01111-01281104461ADDAY171999GF108991081001008001021999MD1710041+9999MW1711
0057295410999991971020221004+56067+085617FM-12+025099999V0202901N00211007801CN0170001N9-01111-01281104341ADDAY171999GF108991081001008001021999MD1710121+9999MW1171
0117295410999991971020300004+56067+085617FM-12+025099999V0202901N00101007801CN0060001N9-01391-01501104351ADDAA106004091AA299001091AY171999GF107991061031008001001021HL10009IA1319IA2999-01619KA1999N-01391MD1710021+9999MW1851
0057295410999991971020303004+56067+085617FM-12+025099999V0209991C00001220001CN0100001N9-01611-01781104331ADDAY181999GF102991001001999999001011MD1710051+9999MW1761
0057295410999991971020306004+56067+085617FM-12+025099999V0209991C00001220001CN0100001N9-01391-01501104191ADDAY181999GF100991001001999999001001MD1710111+9999MW1761
0070295410999991971020312004+56067+085617FM-12+025099999V0200201N00211220001CN0170001N9-01781-02111104171ADDAY101999GF102991021051008001001001KA1999M-01111MD1310071+9999MW1021
0057295410999991971020315004+56067+085617FM-12+025099999V0200701N00211220001CN0150001N9-02111-02281104231ADDAY101999GF103991001001999999001011MD1310061+9999MW1021
0057295410999991971020318004+56067+085617FM-12+025099999V0200701N00211220001CN0080001N9-02391-02721104391ADDAY111999GF108991001001999999001071MD1210061+9999MW1761
0057295410999991971020321004+56067+085617FM-12+025099999V0200701N00211220001CN0090001N9-02721-03001104521ADDAY121999GF107991001001999999001011MD1210091+9999MW1761
0117295410999991971020400004+56067+085617FM-12+025099999V0200701N00101220001CN0010001N9-02891-03221104551ADDAA106075091AA224999999AY121999GF107991001001999999001011HL10009IA1319IA2999-03289KA1999N-02891MD1210011+9999MW1761
0057295410999991971020406004+56067+085617FM-12+025099999V0209991C00001220001CN0040001N9-02391-02721104561ADDAY141999GF100991001001999999001001MD1810011+9999MW1101
0057295410999991971020409004+56067+085617FM-12+025099999V0209991C00001220001CN0100001N9-02111-02391104501ADDAY101999GF100991001001999999001001MD1710021+9999MW1021
0081295410999991971020412004+56067+085617FM-12+025099999V0200701N00101220001CN0049001N9-02501-02781104551ADDAA199000091AY111999GF108991001001999999001071KA1999M-02111MD1710011+9999MW1101
0057295410999991971020418004+56067+085617FM-12+025099999V0200701N00101220001CN0210001N9-02781-03001104411ADDAY121999GF108991001001999999001071MD1710151+9999MW1761
0125295410999991971020500004+56067+085617FM-12+025099999V0209991C00001220001CN0150001N9-02891-03221104211ADDAA199999999AY121999GF107991001001999999001011HL10009IA1319IA2999-03399KA1999N-03001MD1710121+9999MW1761EQDQ01  00002PRCP99
0057295410999991971020503004+56067+085617FM-12+025099999V0200701N00101075001CN0020001N9-02891-03221104071ADDAY121999GF106991021051008001001021MD1710141+9999MW1101
0057295410999991971020506004+56067+085617FM-12+025099999V0200901N00101220001CN0100001N9-02391-02721103801ADDAY121999GF107991001001999999001021MD1710191+9999MW1021
0057295410999991971020509004+56067+085617FM-12+025099999V0200701N00101220001CN0040001N9-02111-02281103601ADDAY121999GF107991001001999999001091MD1710141+9999MW1101
0081295410999991971020512004+56067+085617FM-12+025099999V0200701N00101220001CN0048001N9-02611-02781103621ADDAA199000091AY121999GF107991001001999999001021KA1999M-02111MD1610051+9999MW1101
0057295410999991971020515004+56067+085617FM-12+025099999V0209991C00001007801CN0070001N9-02721-03001103481ADDAY121999GF107991071051008001001001MD1710161+9999MW1101
0057295410999991971020518004+56067+085617FM-12+025099999V0200501N00101220001CN0037001N9-02721-03001103301ADDAY121999GF108991001001999999001071MD1710171+9999MW1101
0057295410999991971020521004+56067+085617FM-12+025099999V0209991C00001220001CN0032001N9-02891-03221103111ADDAY121999GF107991001001999999001011MD1810211+9999MW1761
0057295410999991971020603004+56067+085617FM-12+025099999V0200501N00101220001CN0010001N9-03281-03501103081ADDAY111999GF100991001001999999001001MD1710061+9999MW1761
0057295410999991971020606004+56067+085617FM-12+025099999V0200501N00101220001CN0100001N9-02391-02721102851ADDAY111999GF100991001001999999001001MD1810091+9999MW1761
0057295410999991971020609004+56067+085617FM-12+025099999V0200501N00101220001CN0200001N9-02111-02391102811ADDAY111999GF107991001001999999001051MD1410001+9999MW1031
0057295410999991971020615004+56067+085617FM-12+025099999V0200501N00101220001CN0070001N9-02721-03001102721ADDAY121999GF107991001001999999001091MD1710131+9999MW1761
0057295410999991971020618004+56067+085617FM-12+025099999V0200701N00211220001CN0090001N9-02611-02781102521ADDAY121999GF108991001001999999001051MD1710191+9999MW1761
0057295410999991971020621004+56067+085617FM-12+025099999V0200701N00211220001CN0046001N9-02501-02721102401ADDAY121999GF108991001001999999001071MD1710111+9999MW1761
0125295410999991971020700004+56067+085617FM-12+025099999V0200201N00211220001CN0037001N9-02611-02781102291ADDAA199999999AY121999GF107991001001999999001011HL10009IA1319IA2999-03289KA1999N-02781MD1710121+9999MW1761EQDQ01  00002PRCP99
0057295410999991971020706004+56067+085617FM-12+025099999V0200701N00211075001CN0200001N9-02111-02281102001ADDAY121999GF107991031051008001001051MD1710091+9999MW1021
0057295410999991971020709004+56067+085617FM-12+025099999V0200701N00211075001CN0100001N9-01721-02111101931ADDAY121999GF107991031051008001001021MD1710031+9999MW1021
0081295410999991971020712004+56067+085617FM-12+025099999V0200701N00101220001CN0140001N9-01781-02111102001ADDAA199000091AY121999GF107991001001999999001091KA1999M-01501MD1310061+9999MW1021
0057295410999991971020715004+56067+085617FM-12+025099999V0200701N001019999999N0100001N9-02001-02221102021ADDAY121999GF107991041051999999999999MD1410001+9999MW1021
0057295410999991971020718004+56067+085617FM-12+025099999V0200701N00101220001CN0110001N9-02111-02281102081ADDAY121999GF107991031001999999031011MD1310051+9999MW1021
0057295410999991971020721004+56067+085617FM-12+025099999V0209991C000019999999N0110001N9-01891-02111102151ADDAY121999GF108991081001999999999999MD1210081+9999MW1021
0057295410999991971020806004+56067+085617FM-12+025099999V0201601N00211075001CN0100001N9-00891-01111102191ADDAY171999GF107991041051008001001021MD1210041+9999MW1021
0057295410999991971020809004+56067+085617FM-12+025099999V0201601N00101075001CN0100001N9-00721-00891102231ADDAY121999GF107991021021008001001021MD1210071+9999MW1021
0092295410999991971020812004+56067+085617FM-12+025099999V0209991C00001007801CN0044001N9-01001-01221102341ADDAA106002091AA299000591AY121999GF107991061051008001001021KA1999M-00611MD1210071+9999MW1101
0057295410999991971020815004+56067+085617FM-12+025099999V0209991C00001007801CN0050001N9-01111-01281102421ADDAY121999GF108991081051008001999999MD1210061+9999MW1101
0057295410999991971020818004+56067+085617FM-12+025099999V0209991C00001007801CN0070001N9-00781-00891102401ADDAY121999GF108991081051008001999999MD1210021+9999MW1101
0057295410999991971020821004+56067+085617FM-12+025099999V0209991C00001024001CN0016001N9-01221-01221102501ADDAY121999GF108991081001999999021999MD1210051+9999MW1101
0106295410999991971020900004+56067+085617FM-12+025099999V0209991C00001024001CN0044001N9-01111-01281102501ADDAA199000091AY121999GF108991081001999999021999HL10009IA1319IA2999-02009KA1999N-01281MD1110011+9999MW1101
0057295410999991971020903004+56067+085617FM-12+025099999V0209991C00001220001CN0020001N9-00891-01111102471ADDAY121999GF108991001001999999001071MD1410001+9999MW1101
0057295410999991971020906004+56067+085617FM-12+025099999V0200701N00101220001CN0040001N9-00721-00891102401ADDAY111999GF100991001001999999001001MD1810041+9999MW1101
0057295410999991971020909004+56067+085617FM-12+025099999V0200701N00411220001CN0100001N9-00501-00721102331ADDAY101999GF100991001001999999001001MD1710051+9999MW1021
0081295410999991971020912004+56067+085617FM-12+025099999V0200501N00211220001CN0150001N9-00721-00891102351ADDAA199000091AY111999GF108991001001999999001071KA1999M-00391MD1410001+9999MW1021
0057295410999991971020915004+56067+085617FM-12+025099999V0200701N00411220001CN0160001N9-01001-01221102431ADDAY121999GF107991001001999999001011MD1210041+9999MW1021
0057295410999991971020918004+56067+085617FM-12+025099999V0200701N00511220001CN0250001N9-01221-01391102461ADDAY121999GF105991001001999999001011MD1410001+9999MW1021
0125295410999991971021000004+56067+085617FM-12+025099999V0200701N00311220001CN0032001N9-01721-01891102521ADDAA199999999AY111999GF107991001001999999001011HL10009IA1319IA2999-01789KA1999N-01721MD1810011+9999MW1761EQDQ01  00002PRCP99
0057295410999991971021003004+56067+085617FM-12+025099999V0200701N00411220001CN0040001N9-01781-02001102591ADDAY111999GF100991001001999999001001MD1210061+9999MW1761
0057295410999991971021006004+56067+085617FM-12+025099999V0200901N00411220001CN0100001N9-01281-01611102531ADDAY111999GF101991001001999999001021MD1410001+9999MW1761
0057295410999991971021009004+56067+085617FM-12+025099999V0200701N00211220001CN0200001N9-01111-01391102631ADDAY111999GF107991001001999999001021MD1210021+9999MW1031
0057295410999991971021015004+56067+085617FM-12+025099999V0202501N00511007801CN0100001N9-00781-01001102951ADDAY121999GF108991081031008001999999MD1110251+9999MW1021
0057295410999991971021018004+56067+085617FM-12+025099999V0202501N00311024001CN0150001N9-01111-01281103091ADDAY121999GF108991081001999999021999MD1210101+9999MW1021
0057295410999991971021021004+56067+085617FM-12+025099999V0202501N00311024001CN0160001N9-01391-01611103151ADDAY121999GF108991081001999999021999MD1110011+9999MW1021
0092295410999991971021100004+56067+085617FM-12+025099999V0202501N00101220001CN0120001N9-01721-02001103201ADDAA106047091AA299012091AY121999GF108991001001999999001071KA1999N-01891MD1310071+9999MW1761
0057295410999991971021103004+56067+085617FM-12+025099999V0202001N00101024001CN0200001N9-01781-02111103151ADDAY121999GF108991081001999999021999MD1810041+9999MW1761
0057295410999991971021106004+56067+085617FM-12+025099999V0202001N00411024001CN0040001N9-01281-01501102981ADDAY111999GF107991071001999999011001MD1110111+9999MW1711
0057295410999991971021109004+56067+085617FM-12+025099999V0202001N00511075001CN0200001N9-01221-01501102861ADDAY171999GF106991021051008001001021MD1710101+9999MW1021
0092295410999991971021112004+56067+085617FM-12+025099999V0202001N00411007801CN0140001N9-01281-01611102691ADDAA106075091AA224999999AY171999GF108991081051008001999999KA1999M-01111MD1710191+9999MW1021
0057295410999991971021118004+56067+085617FM-12+025099999V0201601N00311024001CN0080001N9-01281-01501102311ADDAY171999GF108991081001999999021999MD1710171+9999MW1711
0117295410999991971021200004+56067+085617FM-12+025099999V0209991C00001024001CN0070001N9-01781-02001102191ADDAA106004091AA299001091AY171999GF108991081001999999021999HL10009IA1319IA2999-02229KA1999N-01781MD1710061+9999MW1711
0057295410999991971021203004+56067+085617FM-12+025099999V0209991C00001220001CN0100001N9-01891-02111102271ADDAY171999GF107991021051008001001011MD1310061+9999MW1021
0057295410999991971021206004+56067+085617FM-12+025099999V0202501N00101220001CN0200001N9-01391-01611102331ADDAY171999GF107991001001999999001011MD1210131+9999MW1761
0057295410999991971021209004+56067+085617FM-12+025099999V0202501N00101220001CN0200001N9-01391-01721102501ADDAY111999GF102991001001999999001011MD1210171+9999MW1761
0092295410999991971021212004+56067+085617FM-12+025099999V0202501N00101220001CN0280001N9-02001-02281102801ADDAA106001091AA299000391AY101999GF101991011051008001001001KA1999M-01221MD1210201+9999MW1021
0057295410999991971021215004+56067+085617FM-12+025099999V0202001N00101024001CN0080001N9-02111-02391102921ADDAY171999GF108991081001999999021999MD1210111+9999MW1711
0057295410999991971021221004+56067+085617FM-12+025099999V0202501N00101024001CN0180001N9-02391-02721103221ADDAY171999GF108991081001999999021999MD1210131+9999MW1021
0117295410999991971021300004+56067+085617FM-12+025099999V0209991C00001024001CN0120001N9-02391-02721103311ADDAA106001091AA299000391AY171999GF108991081001999999021999HL10009IA1319IA2999-03009KA1999N-02501MD1210071+9999MW1761
0057295410999991971021303004+56067+085617FM-12+025099999V0202501N00101024001CN0040001N9-02391-02721103441ADDAY171999GF107991061001999999011021MD1210131+9999MW1711
0057295410999991971021306004+56067+085617FM-12+025099999V0203201N00101220001CN0100001N9-01781-02001103491ADDAY171999GF102991001001999999001021MD1210131+9999MW1021
0057295410999991971021309004+56067+085617FM-12+025099999V0209991C00001220001CN0100001N9-01391-01721103491ADDAY101999GF100991001001999999001001MD1110051+9999MW1021
0092295410999991971021312004+56067+085617FM-12+025099999V0209991C00001220001CN0160001N9-02001-02281103681ADDAA106001091AA299000391AY101999GF100991001001999999001001KA1999M-01391MD1210111+9999MW1021
0057295410999991971021315004+56067+085617FM-12+025099999V0209991C00001220001CN0260001N9-02611-02781103801ADDAY101999GF100991001001999999001001MD1210031+9999MW1021
0057295410999991971021318004+56067+085617FM-12+025099999V0209991C00001220001CN0190001N9-02891-03221103751ADDAY101999GF100991001001999999001001MD1810091+9999MW1021
0125295410999991971021400004+56067+085617FM-12+025099999V0209991C00001220001CN0130001N9-02721-03001103491ADDAA199999999AY121999GF107991001001999999001011HL10009IA1319IA2999-03509KA1999N-03221MD1710141+9999MW1761EQDQ01  00002PRCP99
0057295410999991971021403004+56067+085617FM-12+025099999V0203401N00101220001CN0040001N9-02611-02781103351ADDAY111999GF100991001001999999001001MD1610121+9999MW1761
0057295410999991971021406004+56067+085617FM-12+025099999V0200701N00211220001CN0100001N9-02001-02281103271ADDAY111999GF100991001001999999001001MD1410001+9999MW1761
0057295410999991971021409004+56067+085617FM-12+025099999V0200201N00211220001CN0500001N9-01721-02111103241ADDAY101999GF100991001001999999001001MD1010021+9999MW1021
0081295410999991971021412004+56067+085617FM-12+025099999V0200201N00101220001CN0110001N9-02001-02281103371ADDAA199000091AY101999GF100991001001999999001001KA1999M-01721MD1110081+9999MW1021
0057295410999991971021418004+56067+085617FM-12+025099999V0209991C00001220001CN0070001N9-02611-02781103611ADDAY101999GF100991001001999999001001MD1210071+9999MW1761
0057295410999991971021421004+56067+085617FM-12+025099999V0209991C00001220001CN0038001N9-02781-03001103711ADDAY111999GF108991001001999999001071MD1110061+9999MW1761
0125295410999991971021500004+56067+085617FM-12+025099999V0209991C00001220001CN0031001N9-03001-03281103751ADDAA199999999AY121999GF108991001001999999001071HL10009IA1319IA2999-03509KA1999N-03221MD1310021+9999MW1761EQDQ01  00002PRCP99
0057295410999991971021503004+56067+085617FM-12+025099999V0209991C00001220001CN0200001N9-03391-03611103841ADDAY111999GF100991001001999999001001MD1210031+9999MW1021
0057295410999991971021506004+56067+085617FM-12+025099999V0200201N00101220001CN0200001N9-02111-02391103601ADDAY111999GF100991001001999999001001MD1810051+9999MW1021
0057295410999991971021509004+56067+085617FM-12+025099999V0201101N00211220001CN0500001N9-02001-02221103571ADDAY101999GF102991001001999999001091MD1710021+9999MW1031
0081295410999991971021512004+56067+085617FM-12+025099999V0201101N00211024001CN0190001N9-02281-02501103601ADDAA199000091AY111999GF108991081001999999021999KA1999M-01891MD1410001+9999MW1021
0057295410999991971021515004+56067+085617FM-12+025099999V0200701N00411220001CN0200001N9-02391-02721103481ADDAY121999GF107991001001999999001011MD1810141+9999MW1021
0057295410999991971021518004+56067+085617FM-12+025099999V0200701N00311024001CN0040001N9-02501-02781103501ADDAY121999GF199999081001999999021999MD1010001+9999MW1021
0057295410999991971021521004+56067+085617FM-12+025099999V0200701N00311024001CN0110001N9-02611-02781103441ADDAY121999GF108991081001999999021999MD1710071+9999MW1761
0125295410999991971021600004+56067+085617FM-12+025099999V0200701N00211220001CN0110001N9-02501-02781103361ADDAA199999999AY121999GF107991001001999999001011HL10009IA1319IA2999-03009KA1999N-02611MD1710071+9999MW1761EQDQ01  00002PRCP99
0057295410999991971021603004+56067+085617FM-12+025099999V0209991C00001075001CN0040001N9-02721-03001103341ADDAY121999GF107991031091008001001021MD1710061+9999MW1761
0057295410999991971021606004+56067+085617FM-12+025099999V0209991C00001075001CN0200001N9-02001-02281103201ADDAY121999GF107991021051008001001091MD1710021+9999MW1021
0057295410999991971021609004+56067+085617FM-12+025099999V0209991C00001220001CN0200001N9-01391-01781103031ADDAY121999GF107991001001999999001021MD1710081+9999MW1021
0081295410999991971021612004+56067+085617FM-12+025099999V0209991C00001220001CN0100001N9-01891-02281103051ADDAA199000091AY121999GF107991001001999999001011KA1999M-01391MD1710051+9999MW1021
0057295410999991971021618004+56067+085617FM-12+025099999V0209991C00001220001CN0160001N9-03001-03221103081ADDAY121999GF107991001001999999001081MD1710101+9999MW1021
0106295410999991971021700004+56067+085617FM-12+025099999V0209991C00001220001CN0080001N9-03281-03501102941ADDAA199000091AY121999GF107991001001999999001011HL10009IA1319IA2999-03619KA1999N-03391MD1710101+9999MW1101
0057295410999991971021703004+56067+085617FM-12+025099999V0209991C00001220001CN0040001N9-03221-03501102801ADDAY121999GF107991001001999999001011MD1710101+9999MW1101
0057295410999991971021706004+56067+085617FM-12+025099999V0209991C00001220001CN0020001N9-02001-02281102431ADDAY111999GF100991001001999999001001MD1610201+9999MW1101
0057295410999991971021709004+56067+085617FM-12+025099999V0200701N00101220001CN0040001N9-01391-01721102191ADDAY111999GF107991001001999999001011MD1710161+9999MW1101
0081295410999991971021712004+56067+085617FM-12+025099999V0200701N00101220001CN0040001N9-01611-01891102001ADDAA199000091AY111999GF107991041051008001001011KA1999M-01391MD1710211+9999MW1101
0057295410999991971021715004+56067+085617FM-12+025099999V0200701N00101007801CN0090001N9-01721-01891101691ADDAY171999GF108991081001008001021999MD1710321+9999MW1711
0057295410999991971021718004+56067+085617FM-12+025099999V0200701N00101007801CN0070001N9-01501-01721101421ADDAY171999GF108991081001008001021999MD1710221+9999MW1711
0057295410999991971021721004+56067+085617FM-12+025099999V0200701N00101007801CN0080001N9-01111-01281101171ADDAY171999GF108991081001008001021999MD1710201+9999MW1711
0117295410999991971021800004+56067+085617FM-12+025099999V0202001N00101007801CN0090001N9-01281-01391100991ADDAA106004091AA299001091AY171999GF108991081001008001021999HL10009IA1319IA2999-01789KA1999N-01721MD1710191+9999MW1711
0057295410999991971021803004+56067+085617FM-12+025099999V0201801N00101024001CN0040001N9-01221-01281100681ADDAY171999GF108991081001999999021999MD1710301+9999MW1711
0057295410999991971021806004+56067+085617FM-12+025099999V0201801N00101220001CN0100001N9-00781-01001100361ADDAY171999GF107991021021008001001011MD1710251+9999MW1021
0057295410999991971021809004+56067+085617FM-12+025099999V0202001N00311220001CN0040001N9-00721-00891100161ADDAY181999GF107991021031008001001011MD1710191+9999MW1851
0092295410999991971021812004+56067+085617FM-12+025099999V0202501N00511007801CN0040001N9-00891-01111100011ADDAA106004091AA299001091AY181999GF108991081031008001999999KA1999M-00611MD1710171+9999MW1851
0057295410999991971021815004+56067+085617FM-12+025099999V0202501N00821220001CN0120001N9-01611-01891100351ADDAY181999GF107991021021008001001011MD1310251+9999MW1361
0057295410999991971021818004+56067+085617FM-12+025099999V0202301N00821007801CN0130001N9-02111-02281100721ADDAY181999GF108991081031008001999999MD1210281+9999MW1361
0057295410999991971021821004+56067+085617FM-12+025099999V0202301N00821007801CN0060001N9-02221-02501100881ADDAY181999GF108991081031008001999999MD1110151+9999MW1851
0092295410999991971021900004+56067+085617FM-12+025099999V0202301N00721007801CN0090001N9-02391-02721101151ADDAA106004091AA299001091AY181999GF108991081031008001999999KA1999N-02391MD1210241+9999MW1851
0057295410999991971021906004+56067+085617FM-12+025099999V0202301N00821024001CN0040001N9-02391-02721101591ADDAY181999GF108991081001999999021999MD1210201+9999MW1711
0057295410999991971021909004+56067+085617FM-12+025099999V0202301N00721024001CN0040001N9-02281-02501101791ADDAY171999GF108991081001999999021999MD1210191+9999MW1711
0092295410999991971021912004+56067+085617FM-12+025099999V0202301N00511007801CN0100001N9-02501-02781102021ADDAA106004091AA299001091AY171999GF108991081001008001021999KA1999M-02281MD1210211+9999MW1031
0057295410999991971021918004+56067+085617FM-12+025099999V0202301N00311220001CN0200001N9-03001-03281102331ADDAY171999GF107991001001999999001011MD1210091+9999MW1021
0057295410999991971022003004+56067+085617FM-12+025099999V0202001N00311220001CN0200001N9-03281-03501102671ADDAY171999GF107991001001999999001021MD1210121+9999MW1021
0057295410999991971022006004+56067+085617FM-12+025099999V0202301N00511220001CN0100001N9-03221-03391102901ADDAY171999GF108991001001999999001071MD1210231+9999MW1021
0057295410999991971022009004+56067+085617FM-12+025099999V0202501N00411220001CN0100001N9-03221-03391103131ADDAY121999GF108991001001999999001071MD1210231+9999MW1021
0092295410999991971022012004+56067+085617FM-12+025099999V0202501N00211220001CN0100001N9-03281-03501103451ADDAA106001091AA299000391AY121999GF107991031051008001001011KA1999M-03221MD1210281+9999MW1021
0057295410999991971022015004+56067+085617FM-12+025099999V0202501N00101220001CN0250001N9-03721-03891103711ADDAY111999GF100991001001999999001001MD1210201+9999MW1021
0057295410999991971022018004+56067+085617FM-12+025099999V0202501N00101220001CN0140001N9-04221-04391103931ADDAY111999GF107991001001999999001011MD1210141+9999MW1031
0057295410999991971022021004+56067+085617FM-12+025099999V0209991C00001220001CN0170001N9-04501-04721104101ADDAY121999GF107991001001999999001011MD1210111+9999MW1021
0106295410999991971022100004+56067+085617FM-12+025099999V0209991C00001220001CN0200001N9-04611-04781104201ADDAA199000091AY121999GF106991001001999999001011HL10009IA1319IA2999-04899KA1999N-04611MD1210081+9999MW1021
0098295410999991971022103004+56067+085617FM-12+025099999V0202701N00511024001CN0230001N9+99999+99999104201ADDAA106001091AA299000391AY171999GF108991061001999999071071IA1319KA1999N-01611MD1710031+9999MW1711
0057295410999991971022106004+56067+085617FM-12+025099999V0209991C00001220001CN0100001N9-03281-03501104071ADDAY141999GF100991001001999999001001MD1810031+9999MW1761
0057295410999991971022109004+56067+085617FM-12+025099999V0209991C00001220001CN0200001N9-02891-03221103971ADDAY121999GF100991001001999999001001MD1610041+9999MW1021
0070295410999991971022112004+56067+085617FM-12+025099999V0201101N00101220001CN0020001N9-03001-03221104031ADDAY101999GF100991001001999999001001KA1999M-02781MD1210051+9999MW1101
0057295410999991971022115004+56067+085617FM-12+025099999V0200701N00101220001CN0280001N9-03281-03501104031ADDAY101999GF100991001001999999001001MD1810051+9999MW1021
0057295410999991971022118004+56067+085617FM-12+025099999V0209991C00001220001CN0036001N9-03501-03721104011ADDAY101999GF100991001001999999001001MD1710041+9999MW1101
0057295410999991971022121004+56067+085617FM-12+025099999V0209991C00001220001CN0031001N9-03501-03721103931ADDAY101999GF100991001001999999001001MD1710071+9999MW1101
0106295410999991971022200004+56067+085617FM-12+025099999V0200501N00211220001CN0033001N9-03501-03721103891ADDAA199000091AY101999GF100991001001999999001001HL10009IA1319IA2999-04119KA1999N-03501MD1710031+9999MW1101
0057295410999991971022203004+56067+085617FM-12+025099999V0200701N00311220001CN0040001N9-03501-03781103881ADDAY111999GF107991001001999999001011MD1710031+9999MW1101
0057295410999991971022206004+56067+085617FM-12+025099999V0200701N00211220001CN0100001N9-03001-03221103711ADDAY111999GF107991001001999999001011MD1810081+9999MW1021
0057295410999991971022209004+56067+085617FM-12+025099999V0200701N00311220001CN0100001N9-02891-03001103871ADDAY121999GF107991001001999999001011MD1710011+9999MW1021
0081295410999991971022212004+56067+085617FM-12+025099999V0200701N00311220001CN0100001N9-02781-03001103721ADDAA199000091AY121999GF107991001001999999001011KA1999M-02781MD1110041+9999MW1021
0057295410999991971022215004+56067+085617FM-12+025099999V0200501N00101220001CN0130001N9-03001-03221103711ADDAY121999GF107991001001999999001011MD1810031+9999MW1761
0057295410999991971022218004+56067+085617FM-12+025099999V0200501N00101220001CN0120001N9-03001-03281103601ADDAY121999GF108991001001999999001071MD1710111+9999MW1761
0106295410999991971022300004+56067+085617FM-12+025099999V0200201N00211220001CN0050001N9-03391-03611103701ADDAA199000091AY121999GF108991001001999999001071HL10009IA1319IA2999-03619KA1999N-03391MD1210031+9999MW1101
0057295410999991971022303004+56067+085617FM-12+025099999V0200201N00211220001CN0005001N9-03501-03721103651ADDAY141999GF100991001001999999001001MD1810061+9999MW1441
0057295410999991971022306004+56067+085617FM-12+025099999V0200201N00211220001CN0200001N9-02891-03221103491ADDAY141999GF100991001001999999001001MD1710081+9999MW1021
0057295410999991971022309004+56067+085617FM-12+025099999V0200201N00211220001CN0200001N9-02781-03001103501ADDAY101999GF100991001001999999001001MD1310021+9999MW1021
0081295410999991971022312004+56067+085617FM-12+025099999V0200501N00211220001CN0200001N9-02781-03001103621ADDAA199000091AY101999GF100991001001999999001001KA1999M-02721MD1210121+9999MW1021
0057295410999991971022315004+56067+085617FM-12+025099999V0200201N00211220001CN0200001N9-02781-03001103551ADDAY101999GF100991001001999999001001MD1810071+9999MW1021
0057295410999991971022318004+56067+085617FM-12+025099999V0200201N00311220001CN0350001N9-02781-03001103531ADDAY101999GF103991001001999999001011MD1810021+9999MW1021
0057295410999991971022321004+56067+085617FM-12+025099999V0200201N00411220001CN0280001N9-03001-03221103541ADDAY111999GF107991001001999999001011MD1710011+9999MW1021
0125295410999991971022400004+56067+085617FM-12+025099999V0200201N00411220001CN0150001N9-03221-03391103621ADDAA199999999AY111999GF100991001001999999001001HL10009IA1319IA2999-03509KA1999N-03221MD1310051+9999MW1761EQDQ01  00002PRCP99
0057295410999991971022403004+56067+085617FM-12+025099999V0200201N00101220001CN0010001N9-03281-03501103711ADDAY101999GF100991001001999999001001MD1210071+9999MW1101
0057295410999991971022406004+56067+085617FM-12+025099999V0200501N00311220001CN0200001N9-02611-02781103521ADDAY101999GF100991001001999999001001MD1810081+9999MW1021
0057295410999991971022409004+56067+085617FM-12+025099999V0200501N00211220001CN0200001N9-02391-02721103421ADDAY101999GF100991001001999999001001MD1710071+9999MW1021
0081295410999991971022412004+56067+085617FM-12+025099999V0200201N00211220001CN0200001N9-02611-02781103531ADDAA199000091AY101999GF100991001001999999001001KA1999M-02221MD1310081+9999MW1021
0057295410999991971022418004+56067+085617FM-12+025099999V0200201N00211220001CN0220001N9-02891-03221103501ADDAY101999GF100991001001999999001001MD1810111+9999MW1021
0057295410999991971022421004+56067+085617FM-12+025099999V0200201N00101220001CN0260001N9-03111-03281103501ADDAY111999GF107991001001999999001011MD1710021+9999MW1021
0106295410999991971022500004+56067+085617FM-12+025099999V0200201N00211220001CN0070001N9-03221-03391103491ADDAA199000091AY111999GF107991001001999999001011HL10009IA1319IA2999-03619KA1999N-03221MD1710031+9999MW1101
0057295410999991971022506004+56067+085617FM-12+025099999V0200701N00311220001CN0200001N9-02611-02781103301ADDAY141999GF100991001001999999001001MD1710081+9999MW1021
0070295410999991971022512004+56067+085617FM-12+025099999V0200501N00311220001CN0100001N9-02391-02781103331ADDAY101999GF100991001001999999001001KA1999M-02281MD1210061+9999MW1021
0057295410999991971022515004+56067+085617FM-12+025099999V0200501N00311220001CN0200001N9-02721-03001103381ADDAY101999GF100991001001999999001001MD1410001+9999MW1021
0057295410999991971022518004+56067+085617FM-12+025099999V0200701N00311220001CN0250001N9-02781-03001103341ADDAY111999GF107991001001999999001011MD1710061+9999MW1021
0043295410999991971022521004+56067+085617FM-12+025099999V0200501N00211220001CN0150001N9-03111-03281103371ADDAY121999GF107991001001999999001011MW1761
0125295410999991971022600004+56067+085617FM-12+025099999V0200201N00211220001CN0100001N9-03281-03501103461ADDAA199999999AY111999GF100991001001999999001001HL10009IA1319IA2999-03509KA1999N-03281MD1310041+9999MW1761EQDQ01  00002PRCP99
0057295410999991971022603004+56067+085617FM-12+025099999V0200201N00211220001CN0010001N9-03221-03391103531ADDAY111999GF108991001001999999001071MD1210091+9999MW1761
0057295410999991971022606004+56067+085617FM-12+025099999V0200501N00411220001CN0200001N9-02501-02781103441ADDAY111999GF100991001001999999001001MD1210011+9999MW1021
0057295410999991971022609004+56067+085617FM-12+025099999V0200701N00311220001CN0200001N9-02221-02721103411ADDAY101999GF100991001001999999001001MD1210021+9999MW1021
0081295410999991971022612004+56067+085617FM-12+025099999V0200201N00211220001CN0200001N9-02391-02781103611ADDAA199000091AY101999GF100991001001999999001001KA1999M-02221MD1210171+9999MW1021
0043295410999991971022615004+56067+085617FM-12+025099999V0200201N00211220001CN0190001N9-02721-03001103731ADDAY101999GF100991001001999999001001MW1021
0057295410999991971022618004+56067+085617FM-12+025099999V0200201N00101220001CN0220001N9-02781-03001103721ADDAY111999GF100991001001999999001001MD1810021+9999MW1021
0057295410999991971022621004+56067+085617FM-12+025099999V0200201N00101220001CN0070001N9-03001-03221103721ADDAY121999GF100991001001999999001001MD1710021+9999MW1761
0057295410999991971022703004+56067+085617FM-12+025099999V0200201N00211220001CN0040001N9-03221-03391103951ADDAY111999GF100991001001999999001001MD1210121+9999MW1101
0057295410999991971022706004+56067+085617FM-12+025099999V0200501N00211220001CN0500001N9-02391-02721103831ADDAY111999GF100991001001999999001001MD1010001+9999MW1021
0057295410999991971022709004+56067+085617FM-12+025099999V0200501N00211220001CN0500001N9-02391-02501103841ADDAY101999GF100991001001999999001001MD1310041+9999MW1021
0081295410999991971022712004+56067+085617FM-12+025099999V0200201N00211220001CN0200001N9-02391-02781104011ADDAA199000091AY101999GF100991001001999999001001KA1999M-02221MD1210141+9999MW1021
0057295410999991971022715004+56067+085617FM-12+025099999V0200201N00101220001CN0260001N9-02611-02781104061ADDAY111999GF107991001001999999001011MD1210021+9999MW1021
0057295410999991971022718004+56067+085617FM-12+025099999V0200201N00101220001CN0270001N9-02781-03001104041ADDAY111999GF107991001001999999001011MD1810051+9999MW1021
0057295410999991971022721004+56067+085617FM-12+025099999V0200201N00101220001CN0140001N9-02891-03221104061ADDAY121999GF107991001001999999001011MD1410001+9999MW1021
0125295410999991971022800004+56067+085617FM-12+025099999V0200201N00101220001CN0039001N9-03111-03281104061ADDAA199999999AY121999GF107991001001999999001021HL10009IA1319IA2999-03729KA1999N-03221MD1710021+9999MW1761EQDQ01  00002PRCP99
0057295410999991971022803004+56067+085617FM-12+025099999V0200201N00211220001CN0010001N9-03111-03281104061ADDAY141999GF108991001001999999001071MD1410001+9999MW1281
0057295410999991971022806004+56067+085617FM-12+025099999V0200501N00311220001CN0500001N9-02281-02501103881ADDAY141999GF100991001001999999001001MD1810061+9999MW1021
0043295410999991971022809004+56067+085617FM-12+025099999V0200501N00411220001CN0500001N9-02001-02111103761ADDAY101999GF100991001001999999001001MW1021
0057295410999991971022815004+56067+085617FM-12+025099999V0200201N00101220001CN0270001N9-02501-02781103901ADDAY101999GF100991001001999999001001MD1810011+9999MW1021
0057295410999991971022818004+56067+085617FM-12+025099999V0200201N00211220001CN0170001N9-02611-02781103821ADDAY111999GF107991001001999999001011MD1710091+9999MW1021
0106295410999991971030100004+56067+085617FM-12+025099999V0200201N00101220001CN0180001N9-03001-03221103851ADDAA199000091AY111999GF100991001001999999001001HL10009IA1319IA2999-03619KA1999N-03111MD1310021+9999MW1021
0057295410999991971030103004+56067+085617FM-12+025099999V0200201N00101220001CN0010001N9-03001-03221103901ADDAY101999GF101991001001999999001011MD1210051+9999MW1101
0057295410999991971030106004+56067+085617FM-12+025099999V0200701N00311220001CN0200001N9-02221-02391103761ADDAY101999GF100991001001999999001001MD1810021+9999MW1021
0057295410999991971030109004+56067+085617FM-12+025099999V0200201N00311220001CN0500001N9-02001-02501103741ADDAY101999GF100991001001999999001001MD1310011+9999MW1021
0081295410999991971030112004+56067+085617FM-12+025099999V0200201N00101220001CN0100001N9-02221-02721103921ADDAA199000091AY101999GF100991001001999999001001KA1999M-02001MD1210151+9999MW1021
0043295410999991971030115004+56067+085617FM-12+025099999V0200201N002119999999N0100001N9-02721+99999103921ADDAY101999GF199999011071000251081081MW1021
0057295410999991971030118004+56067+085617FM-12+025099999V0200201N00211220001CN0200001N9-02501-02781104021ADDAY111999GF107991001001999999001011MD1810011+9999MW1021
0057295410999991971030121004+56067+085617FM-12+025099999V0200201N00101220001CN0250001N9-02781-03001104131ADDAY121999GF107991001001999999001011MD1310071+9999MW1021
0106295410999991971030200004+56067+085617FM-12+025099999V0200201N00101220001CN0100001N9-02891-03221104241ADDAA199000091AY121999GF107991001001999999001011HL10009IA1319IA2999-03619KA1999N-02891MD1510091+9999MW1021
0057295410999991971030203004+56067+085617FM-12+025099999V0200201N00101220001CN0200001N9-02111-02501104341ADDAY111999GF100991001001999999001001MD1210101+9999MW1021
0057295410999991971030209004+56067+085617FM-12+025099999V0200201N00101220001CN0500001N9-01891-02391104371ADDAY101999GF100991001001999999001001MD1210071+9999MW1021
0081295410999991971030212004+56067+085617FM-12+025099999V0203201N00101220001CN0100001N9-02111-02501104571ADDAA199000091AY101999GF100991001001999999001001KA1999M-01781MD1210161+9999MW1021
0057295410999991971030215004+56067+085617FM-12+025099999V0202901N00101220001CN0130001N9-02501-02781104741ADDAY101999GF100991001001999999001001MD1210111+9999MW1021
0057295410999991971030218004+56067+085617FM-12+025099999V0209991C00001220001CN0120001N9-03221-03391104861ADDAY111999GF107991001001999999001011MD1110031+9999MW1021
0057295410999991971030221004+56067+085617FM-12+025099999V0209991C00001220001CN0080001N9-03611-03781104981ADDAY121999GF107991001001999999001011MD1310041+9999MW1101
0081295410999991971030300004+56067+085617FM-12+025099999V0209991C00001220001CN0060001N9-03611-03781999999ADDAA199000091AY121999GF107991001001999999001011KA1999N-03721MD1210051+9999MW1101
0057295410999991971030303004+56067+085617FM-12+025099999V0202901N00101220001CN0200001N9-03221-03391999999ADDAY111999GF101991001001999999001011MD1210081+9999MW1761
0057295410999991971030306004+56067+085617FM-12+025099999V0202501N00211220001CN0500001N9-02111-02391104901ADDAY111999GF106991001001999999001011MD1410001+9999MW1031
0057295410999991971030309004+56067+085617FM-12+025099999V0202501N00311075001CN0200001N9-01891-02281104841ADDAY121999GF106991021011008001001091MD1810031+9999MW1021
0081295410999991971030312004+56067+085617FM-12+025099999V0202301N00411075001CN0500001N9-02221-02501104901ADDAA199000091AY121999GF105991021001999999041021KA1999M-01891MD1310021+9999MW1021
0057295410999991971030318004+56067+085617FM-12+025099999V0202301N00211220001CN0230001N9-02611-02781104931ADDAY111999GF107991001001999999001011MD1710031+9999MW1761
0057295410999991971030321004+56067+085617FM-12+025099999V0202301N00311220001CN0190001N9-02721-03001104921ADDAY121999GF107991001001999999001021MD1710031+9999MW1761
0125295410999991971030400004+56067+085617FM-12+025099999V0202001N00311220001CN0140001N9-02781-03001104871ADDAA199999999AY121999GF107991001001999999001021HL10009IA1319IA2999-03229KA1999N-02781MD1710031+9999MW1761EQDQ01  00002PRCP99
0057295410999991971030403004+56067+085617FM-12+025099999V0202001N00411220001CN0100001N9-02611-02781104881ADDAY111999GF100991001001999999001001MD1310011+9999MW1761
0057295410999991971030406004+56067+085617FM-12+025099999V0202301N00621220001CN0200001N9-02111-02391104811ADDAY111999GF100991001001999999001001MD1410001+9999MW1021
0057295410999991971030409004+56067+085617FM-12+025099999V0202301N00721220001CN0200001N9-02001-02281104751ADDAY131999GF100991001001999999001001MD1610051+9999MW1361
0081295410999991971030412004+56067+085617FM-12+025099999V0202001N00511220001CN0500001N9-02221-02501104731ADDAA199000091AY131999GF107991001001999999001011KA1999M-02001MD1710031+9999MW1021
0057295410999991971030415004+56067+085617FM-12+025099999V0202301N00101220001CN0300001N9-02391-02721104771ADDAY111999GF100991001001999999001001MD1710011+9999MW1021
0057295410999991971030418004+56067+085617FM-12+025099999V0202301N00101220001CN0400001N9-02721-03001104731ADDAY111999GF100991001001999999001001MD1710061+9999MW1021
0106295410999991971030500004+56067+085617FM-12+025099999V0209991C00001220001CN0280001N9-03111-03281104691ADDAA199000091AY101999GF100991001001999999001001HL10009IA1319IA2999-03729KA1999N-03221MD1710071+9999MW1021
0057295410999991971030503004+56067+085617FM-12+025099999V0209991C00001220001CN0100001N9-02781-03001104591ADDAY111999GF106991001001999999001011MD1710051+9999MW1761
0057295410999991971030506004+56067+085617FM-12+025099999V0202501N00211220001CN0100001N9-01891-02281104391ADDAY111999GF101991001001999999001011MD1710071+9999MW1011
0057295410999991971030509004+56067+085617FM-12+025099999V0202501N00211220001CN0100001N9-01611-02111104251ADDAY101999GF101991001001999999001011MD1710111+9999MW1021
0081295410999991971030512004+56067+085617FM-12+025099999V0202701N00101220001CN0200001N9-02001-02391104241ADDAA199000091AY101999GF101991001001999999001011KA1999M-01611MD1610051+9999MW1021
0043295410999991971030515004+56067+085617FM-12+025099999V0202701N00101220001CN0250001N9-02501-02781104241ADDAY121999GF101991001001999999001021MW1021
0057295410999991971030518004+56067+085617FM-12+025099999V0209991C00001220001CN0300001N9-03001-03221104301ADDAY111999GF107991001001999999001011MD1710061+9999MW1021
0057295410999991971030521004+56067+085617FM-12+025099999V0209991C00001220001CN0350001N9-03501-03721104381ADDAY111999GF100991001001999999001001MD1410001+9999MW1021
0125295410999991971030600004+56067+085617FM-12+025099999V0202501N00101220001CN0150001N9-03501-03721104431ADDAA199999999AY111999GF107991001001999999001011HL10009IA1319IA2999-04009KA1999N-03501MD1310041+9999MW1761EQDQ01  00002PRCP99
0057295410999991971030606004+56067+085617FM-12+025099999V0202501N00101220001CN0200001N9-01781-02221104191ADDAY111999GF102991001001999999001021MD1810011+9999MW1021
0057295410999991971030609004+56067+085617FM-12+025099999V0202901N00101220001CN0200001N9-01391-01891104071ADDAY101999GF101991001001999999001021MD1710061+9999MW1021
0081295410999991971030612004+56067+085617FM-12+025099999V0202901N00101220001CN0200001N9-01721-02221104121ADDAA199000091AY101999GF101991001001999999001021KA1999M-01281MD1310011+9999MW1021
0057295410999991971030615004+56067+085617FM-12+025099999V0202901N00101220001CN0290001N9+99999+99999104311ADDAY101999GF100991001001999999001001MD1210071+9999MW1021
0057295410999991971030618004+56067+085617FM-12+025099999V0209991C00001220001CN0400001N9-02111-02221104331ADDAY101999GF100991001001999999001001MD1810031+9999MW1021
0057295410999991971030621004+56067+085617FM-12+025099999V0209991C00001220001CN0270001N9-03001-03281104361ADDAY101999GF101991001001999999001011MD1410001+9999MW1021
0106295410999991971030700004+56067+085617FM-12+025099999V0209991C00001220001CN0350001N9-03501-03721104451ADDAA199000091AY101999GF101991001001999999001011HL10009IA1319IA2999-03789KA1999N-03501MD1310011+9999MW1021
0057295410999991971030703004+56067+085617FM-12+025099999V0209991C00001220001CN0200001N9-02781-03001104371ADDAY101999GF101991001001999999001011MD1210031+9999MW1021
0057295410999991971030706004+56067+085617FM-12+025099999V0202701N00101220001CN0200001N9-01392-01892104161ADDAY101999GF102991001001999999001011MD1810021+9999MW1021
0081295410999991971030712004+56067+085617FM-12+025099999V0202501N00101220001CN0200001N9-01501-02111104161ADDAA199000091AY111999GF105991001001999999001011KA1999M-01221MD1310051+9999MW1021
0106295410999991971030800004+56067+085617FM-12+025099999V0209991C00001220001CN0190001N9-02391-02721104401ADDAA199000091AY111999GF102991001001999999001011HL10009IA1319IA2999-03229KA1999N-02611MD1210071+9999MW1021
0057295410999991971030803004+56067+085617FM-12+025099999V0202501N00211220001CN0100001N9-02281-02501104511ADDAY101999GF102991011001999999041021MD1210131+9999MW1021
0057295410999991971030806004+56067+085617FM-12+025099999V0202501N00411220001CN0200001N9-01221-01611104411ADDAY101999GF101991001001999999001011MD1210011+9999MW1021
0057295410999991971030809004+56067+085617FM-12+025099999V0202501N00411220001CN0200001N9-01221-01611104411ADDAY101999GF101991001001999999001011MD1210011+9999MW1021
0081295410999991971030812004+56067+085617FM-12+025099999V0202301N00311220001CN0200001N9-01501-01891104541ADDAA199000091AY101999GF101991001001999999001011KA1999M-01221MD1310081+9999MW1021
0057295410999991971030815004+56067+085617FM-12+025099999V0202301N00211220001CN0450001N9-01891-02221104631ADDAY101999GF100991001001999999001001MD1210091+9999MW1021
0057295410999991971030818004+56067+085617FM-12+025099999V0202501N00211220001CN0300001N9-02111-02501104721ADDAY101999GF100991001001999999001001MD1810031+9999MW1021
0057295410999991971030821004+56067+085617FM-12+025099999V0209991C00001220001CN0180001N9-02221-02501104811ADDAY101999GF100991001001999999001001MD1310051+9999MW1021
0106295410999991971030900004+56067+085617FM-12+025099999V0201601N00101220001CN0280001N9-02391-02721104921ADDAA199000091AY101999GF101991001001999999001011HL10009IA1319IA2999-03119KA1999N-02611MD1210071+9999MW1021
0057295410999991971030906004+56067+085617FM-12+025099999V0202301N00411220001CN0040001N9-01501-01781104931ADDAY171999GF108991001001999999001071MD1110031+9999MW1711
0057295410999991971030909004+56067+085617FM-12+025099999V0202001N00411220001CN0040001N9-01281-01611104941ADDAY171999GF108991001001999999001071MD1310041+9999MW1711
0092295410999991971030912004+56067+085617FM-12+025099999V0202001N00311220001CN0100001N9-01391-01721999999ADDAA106075091AA224999999AY171999GF108991001001999999001051KA1999M-01281MD1210061+9999MW1021
0057295410999991971030918004+56067+085617FM-12+025099999V0202001N00101220001CN0250001N9-02221-02391999999ADDAY121999GF108991001001999999001071MD1810021+9999MW1021
0057295410999991971030921004+56067+085617FM-12+025099999V0202001N00211220001CN0300001N9-02611-02781999999ADDAY121999GF108991001001999999001071MD1710031+9999MW1021
0106295410999991971031000004+56067+085617FM-12+025099999V0202001N00101220001CN0350001N9-02781-03221999999ADDAA199000091AY121999GF107991001001999999001011HL10009IA1319IA2999-03229KA1999N-02891MD1310031+9999MW1021
0057295410999991971031003004+56067+085617FM-12+025099999V0202301N00101220001CN0100001N9-02391-02721999999ADDAY111999GF102991001001999999001011MD1210021+9999MW1011
0076295410999991971031006004+56067+085617FM-12+025099999V0209991C00001220001CN0200001N9-00782-01392104861ADDAY111999GF100991001001999999001001MD1810111+9999MW1021EQDQ01+026543ATOT  
0057295410999991971031009004+56067+085617FM-12+025099999V0200701N00211220001CN0200001N9-00781-01391104751ADDAY101999GF101991001001999999001011MD1710111+9999MW1021
0081295410999991971031012004+56067+085617FM-12+025099999V0200701N00311220001CN0200001N9-01111-01611104741ADDAA199000091AY101999GF101991001001999999001041KA1999M-00611MD1610051+9999MW1021
0057295410999991971031015004+56067+085617FM-12+025099999V0200701N00101220001CN0200001N9-01391-01721104791ADDAY101999GF101991001001999999001021MD1310071+9999MW1021
0057295410999991971031018004+56067+085617FM-12+025099999V0200501N00101220001CN0230001N9-01611-02001104731ADDAY111999GF107991001001999999001011MD1810081+9999MW1021
0106295410999991971031100004+56067+085617FM-12+025099999V0209991C00001220001CN0210001N9-01891-02221104671ADDAA199000091AY121999GF107991001001999999001011HL10009IA1319IA2999-02509KA1999N-01891MD1410001+9999MW1021
0057295410999991971031106004+56067+085617FM-12+025099999V0200701N00311220001CN0200001N9-00891-01281104481ADDAY111999GF100991001001999999001001MD1810091+9999MW1021
0057295410999991971031109004+56067+085617FM-12+025099999V0200701N00511220001CN0200001N9-00611-01221104361ADDAY101999GF100991001001999999001001MD1710081+9999MW1021
0067295410999991971031112004+56067+085617FM-12+025099999V0200701N00311220001CN0200001N9-00781-01281104391ADDAA199000091AY101999GF100991001001999999001001KA1999M-00611MW1021
0057295410999991971031115004+56067+085617FM-12+025099999V0200701N00101220001CN0300001N9-01111-01611104351ADDAY101999GF100991001001999999001001MD1810081+9999MW1021
0057295410999991971031118004+56067+085617FM-12+025099999V0200701N00101220001CN0280001N9-01281-01721104191ADDAY111999GF107991001001999999001011MD1710181+9999MW1021
0106295410999991971031200004+56067+085617FM-12+025099999V0200501N00211220001CN0190001N9-01611-02001103961ADDAA199000091AY111999GF101991001001999999001021HL10009IA1319IA2999-02399KA1999N-01721MD1710101+9999MW1021
0057295410999991971031203004+56067+085617FM-12+025099999V0200701N00211220001CN0100001N9-01281-01611103841ADDAY101999GF100991001001999999001001MD1710081+9999MW1021
0057295410999991971031206004+56067+085617FM-12+025099999V0200701N00511220001CN0100001N9-00611-01111103621ADDAY101999GF100991001001999999001001MD1710131+9999MW1021
0057295410999991971031209004+56067+085617FM-12+025099999V0200701N00511220001CN0200001N9-00281-00891103481ADDAY101999GF100991001001999999001001MD1710101+9999MW1021
0081295410999991971031212004+56067+085617FM-12+025099999V0200701N00621220001CN0200001N9-00391-01001103421ADDAA199000091AY101999GF100991001001999999001001KA1999M-00281MD1610061+9999MW1021
0057295410999991971031218004+56067+085617FM-12+025099999V0200701N00511220001CN0170001N9-00891-01391103351ADDAY101999GF100991001001999999001001MD1810151+9999MW1021
0106295410999991971031300004+56067+085617FM-12+025099999V0200701N00211220001CN0450001N9-01281-01781103331ADDAA199000091AY101999GF100991001001999999001001HL10009IA1319IA2999-02009KA1999N-01391MD1710021+9999MW1021
0057295410999991971031303004+56067+085617FM-12+025099999V0200701N00101220001CN0100001N9-01111-01611103351ADDAY101999GF199999001001999999001071MD1210041+9999MW1021
0057295410999991971031306004+56067+085617FM-12+025099999V0200701N00311220001CN0100001N9-00611-01221103181ADDAY101999GF100991001001999999001001MD1810091+9999MW1021
0057295410999991971031309004+56067+085617FM-12+025099999V0200701N00411220001CN0200001N9-00281-01001103131ADDAY101999GF100991001001999999001001MD1610021+9999MW1021
0057295410999991971031315004+56067+085617FM-12+025099999V0200501N00211220001CN0200001N9-00721-01281103151ADDAY111999GF105991001001999999001011MD1310021+9999MW1021
0057295410999991971031318004+56067+085617FM-12+025099999V0200501N00101220001CN0250001N9-01111-01391103171ADDAY111999GF107991001001999999001011MD1510021+9999MW1021
0057295410999991971031321004+56067+085617FM-12+025099999V0209991C00001220001CN0300001N9-01221-01611103261ADDAY121999GF107991001001999999001011MD1210071+9999MW1021
0106295410999991971031400004+56067+085617FM-12+025099999V0200701N00211220001CN0200001N9-01281-01611103351ADDAA199000091AY121999GF107991001001999999001011HL10009IA1209IA2999-02009KA1999N-01391MD1210071+9999MW1021
0057295410999991971031403004+56067+085617FM-12+025099999V0200701N00211220001CN0100001N9-01001-01391103361ADDAY111999GF100991001001999999001001MD1210061+9999MW1021
0057295410999991971031406004+56067+085617FM-12+025099999V0200701N00511220001CN0200001N9-00391-01001103231ADDAY111999GF100991001001999999001001MD1810061+9999MW1021
0057295410999991971031409004+56067+085617FM-12+025099999V0200701N00411220001CN0200001N9-00221-00891103131ADDAY101999GF100991001001999999001001MD1710081+9999MW1021
0081295410999991971031412004+56067+085617FM-12+025099999V0200701N00511220001CN0200001N9-00281-01001103061ADDAA199000091AY101999GF100991001001999999001001KA1999M-00221MD1710081+9999MW1021
0057295410999991971031415004+56067+085617FM-12+025099999V0200701N00511220001CN0300001N9-00611-01221102891ADDAY101999GF100991001001999999001001MD1710191+9999MW1021
0057295410999991971031418004+56067+085617FM-12+025099999V0200701N00311220001CN0240001N9-00781-01281102651ADDAY111999GF107991001001999999001011MD1810261+9999MW1021
0057295410999991971031421004+56067+085617FM-12+025099999V0209991C00001220001CN0200001N9-01221-01611102431ADDAY121999GF107991001001999999001011MD1710261+9999MW1021
0106295410999991971031500004+56067+085617FM-12+025099999V0200701N00211220001CN0190001N9-01281-01611102251ADDAA199000091AY121999GF107991001001999999001021HL10009IA1209IA2999-02009KA1999N-01391MD1710191+9999MW1021
0043295410999991971031503004+56067+085617FM-12+025099999V0200701N003119999999N0200001N9-01111-01501101971ADDAY121999GF106991001001999999091999MW1021
0057295410999991971031506004+56067+085617FM-12+025099999V0200501N00211220001CN0200001N9-00501-01001101761ADDAY121999GF106991001001999999001051MD1610131+9999MW1021
0057295410999991971031509004+56067+085617FM-12+025099999V0200701N00211024001CN0200001N9-00221-00891101711ADDAY121999GF107991051001999999031021MD1610021+9999MW1021
0057295410999991971031515004+56067+085617FM-12+025099999V0200901N00101007801CN0060001N9-00391-00501101961ADDAY171999GF108991081001008001021999MD1210101+9999MW1711
0057295410999991971031518004+56067+085617FM-12+025099999V0202301N00211220001CN0280001N9-00391-00501102091ADDAY171999GF108991001001999999001071MD1210121+9999MW1021
0057295410999991971031521004+56067+085617FM-12+025099999V0202501N00311220001CN0160001N9-00501-00611102331ADDAY121999GF108991001001999999001081MD1210231+9999MW1021
0117295410999991971031600004+56067+085617FM-12+025099999V0202301N00311220001CN0150001N9-00501-00721102571ADDAA106002091AA299000591AY121999GF108991001001999999001071HL10009IA1319IA2999-00619KA1999N-00501MD1210221+9999MW1021
0057295410999991971031603004+56067+085617FM-12+025099999V0202501N00411007801CN0100001N9-00501-00721102761ADDAY121999GF107991061031008001001021MD1210191+9999MW1021
0057295410999991971031606004+56067+085617FM-12+025099999V0202001N00511075001CN0100001N9-00281-00611102681ADDAY121999GF107991041031008001001021MD1810051+9999MW1021
0057295410999991971031609004+56067+085617FM-12+025099999V0202001N00411007801CN0100001N9-00221-00391102671ADDAY121999GF108991081031008001999999MD1410001+9999MW1021
0081295410999991971031612004+56067+085617FM-12+025099999V0202001N00411007801CN0100001N9-00221-00391102541ADDAA199000091AY121999GF108991081031008001999999KA1999M-00111MD1610131+9999MW1021
0057295410999991971031615004+56067+085617FM-12+025099999V0202001N00211007801CN0230001N9-00221-00391102391ADDAY121999GF108991081031008001999999MD1710131+9999MW1021
0057295410999991971031618004+56067+085617FM-12+025099999V0202001N00311007801CN0150001N9-00221-00391101951ADDAY121999GF108991081031008001999999MD1810441+9999MW1021
0057295410999991971031621004+56067+085617FM-12+025099999V0202001N00311007801CN0130001N9-00221-00391101651ADDAY121999GF108991081031008001999999MD1710291+9999MW1021
0106295410999991971031700004+56067+085617FM-12+025099999V0202001N00721007801CN0280001N9-00221-00391101191ADDAA199000091AY131999GF107991071031008001001051HL10009IA1319IA2999-00509KA1999N-00281MD1810441+9999MW1361
0057295410999991971031703004+56067+085617FM-12+025099999V0202001N00621007801CN0100001N9-00111-00501100841ADDAY131999GF107991071031008001001021MD1710341+9999MW1021
0057295410999991971031706004+56067+085617FM-12+025099999V0202001N00821075001CN0200001N9+00391-00221100671ADDAY131999GF107991031031008001001051MD1610101+9999MW1021
0057295410999991971031709004+56067+085617FM-12+025099999V0202301N00621007801CN0200001N9+00391-00111100541ADDAY121999GF108991081031008001999999MD1810131+9999MW1021
0081295410999991971031712004+56067+085617FM-12+025099999V0202301N00821007801CN0100001N9+00221+00001100561ADDAA199000091AY121999GF108991081031008001999999KA1999M+00391MD1510001+9999MW1021
0057295410999991971031715004+56067+085617FM-12+025099999V0202301N00981007801CN0090001N9+00111-00111100571ADDAY181999GF108991081031008001999999MD1410001+9999MW1801
0057295410999991971031718004+56067+085617FM-12+025099999V0202501N00621007801CN0130001N9-00111-00111100671ADDAY181999GF108991081031008001999999MD1110081+9999MW1021
0057295410999991971031721004+56067+085617FM-12+025099999V0202301N00821007801CN0250001N9-00111-00281100571ADDAY181999GF108991081031008001999999MD1710101+9999MW1021
0117295410999991971031800004+56067+085617FM-12+025099999V0202301N00981007801CN0110001N9-00221-00391100381ADDAA106012091AA299003091AY181999GF108991081031008001999999HL10009IA1209IA2999-00289KA1999N-00281MD1710211+9999MW1261
0057295410999991971031803004+56067+085617FM-12+025099999V0202501N00981007801CN0010001N9-00501-00611100371ADDAY181999GF108991081031008001999999MD1710031+9999MW1861
0057295410999991971031806004+56067+085617FM-12+025099999V0202301N00981007801CN0040001N9-00501-00611100291ADDAY181999GF107991071031008001001001MD1710081+9999MW1851
0057295410999991971031809004+56067+085617FM-12+025099999V0202301N00981007801CN0020001N9-00391-00611100281ADDAY181999GF108991081031008001999999MD1310011+9999MW1851
0092295410999991971031812004+56067+085617FM-12+025099999V0202501N00821007801CN0040001N9-00391-00501100481ADDAA106016091AA299004091AY181999GF108991081031008001999999KA1999M-00221MD1210181+9999MW1851
0057295410999991971031815004+56067+085617FM-12+025099999V0202901N00821007801CN0070001N9-00611-00781100941ADDAY181999GF108991081031008001999999MD1210421+9999MW1851
0057295410999991971031818004+56067+085617FM-12+025099999V0202701N00721007801CN0110001N9-00891-01221101401ADDAY181999GF107991061031008001001011MD1210421+9999MW1361
0057295410999991971031821004+56067+085617FM-12+025099999V0202501N00411007801CN0070001N9-01001-01281101671ADDAY131999GF108991081031008001999999MD1110241+9999MW1851
0117295410999991971031900004+56067+085617FM-12+025099999V0202501N00721007801CN0060001N9-01001-01281101801ADDAA106008091AA299002091AY181999GF108991081031008001999999HL10009IA1209IA2999-01229KA1999N-01111MD1210131+9999MW1851
0057295410999991971031903004+56067+085617FM-12+025099999V0202501N00721007801CN0040001N9-00891-01111101951ADDAY181999GF108991081031008001999999MD1210161+9999MW1851
0057295410999991971031906004+56067+085617FM-12+025099999V0202501N00721007801CN0040001N9-00721-01111102341ADDAY181999GF107991061031008001001021MD1210411+9999MW1851
0057295410999991971031909004+56067+085617FM-12+025099999V0202501N00721007801CN0040001N9-00611-00891102081ADDAY181999GF108991081031008001999999MD1810251+9999MW1851
0092295410999991971031912004+56067+085617FM-12+025099999V0202501N00821007801CN0100001N9-00721-00891102161ADDAA106004091AA299001091AY181999GF107991061031008001001011KA1999M-00611MD1310071+9999MW1361
0057295410999991971031915004+56067+085617FM-12+025099999V0202501N00511007801CN0090001N9-00721-00891102251ADDAY181999GF108991081031008001999999MD1210091+9999MW1851
0057295410999991971031918004+56067+085617FM-12+025099999V0202501N00311007801CN0200001N9-00721-00891102291ADDAY181999GF108991081031008001999999MD1210041+9999MW1021
0057295410999991971031921004+56067+085617FM-12+025099999V0202501N00211007801CN0220001N9-00721-00891102331ADDAY121999GF108991081031008001999999MD1210041+9999MW1021
0117295410999991971032000004+56067+085617FM-12+025099999V0202501N00101007801CN0280001N9-00781-00891102421ADDAA106002091AA299000591AY121999GF108991081031008001999999HL10009IA1319IA2999-00899KA1999N-00781MD1210071+9999MW1021
0057295410999991971032003004+56067+085617FM-12+025099999V0202501N00511007801CN0040001N9-00611-00781102511ADDAY181999GF107991071031008001001001MD1210101+9999MW1851
0057295410999991971032006004+56067+085617FM-12+025099999V0202001N00411007801CN0040001N9-00391-00721102551ADDAY181999GF107991071031008001001001MD1210071+9999MW1851
0057295410999991971032009004+56067+085617FM-12+025099999V0202301N00511220001CN0040001N9-00391-00611102471ADDAY181999GF107991041031008001001011MD1810081+9999MW1851
0057295410999991971032015004+56067+085617FM-12+025099999V0202001N00511007801CN0210001N9-00611-00721102391ADDAY121999GF107991071031008001001001MD1710081+9999MW1021
0057295410999991971032018004+56067+085617FM-12+025099999V0202001N00621007801CN0280001N9-00501-00781102231ADDAY121999GF108991081031008001999999MD1710151+9999MW1021
0057295410999991971032021004+56067+085617FM-12+025099999V0202001N00621007801CN0170001N9-00721-00891102041ADDAY121999GF107991071031008001001001MD1710211+9999MW1021
0106295410999991971032100004+56067+085617FM-12+025099999V0202001N00511007801CN0300001N9-00721-00891101831ADDAA199000091AY121999GF108991081031008001999999HL10009IA1319IA2999-00789KA1999N-00781MD1710191+9999MW1021
0057295410999991971032106004+56067+085617FM-12+025099999V0202001N00621075001CN0100001N9-00391-00721101271ADDAY131999GF107991031031008001001021MD1710261+9999MW1021
0067295410999991971032112004+56067+085617FM-12+025099999V0202501N00721220001CN0200001N9-00221-00721100761ADDAA199000091AY131999GF103991021031008001001021KA1999M+00001MW1361
0057295410999991971032115004+56067+085617FM-12+025099999V0202501N00511220001CN0200001N9-00501-00891100871ADDAY131999GF103991001001999999001011MD1310081+9999MW1021
0057295410999991971032118004+56067+085617FM-12+025099999V0202501N00101220001CN0250001N9-00891-01111101131ADDAY131999GF107991001001999999001011MD1110191+9999MW1021
0057295410999991971032121004+56067+085617FM-12+025099999V0202301N00411220001CN0300001N9-01001-01221101291ADDAY121999GF107991001001999999001011MD1310151+9999MW1021
0106295410999991971032200004+56067+085617FM-12+025099999V0202001N00511220001CN0150001N9-00891-01111101291ADDAA199000091AY121999GF107991001001999999001021HL10009IA1319IA2999-01509KA1999N-01111MD1210011+9999MW1021
0057295410999991971032203004+56067+085617FM-12+025099999V0202001N00411075001CN0200001N9-00611-00781101151ADDAY121999GF107991041031008001001021MD1810101+9999MW1021
0057295410999991971032206004+56067+085617FM-12+025099999V0202001N00981030001CN0200001N9-00221-00611100941ADDAY131999GF107991031011008001031011MD1710161+9999MW1361
0057295410999991971032209004+56067+085617FM-12+025099999V0202301N01591075001CN0100001N9-00111-00501100781ADDAY131999GF107991021031008001001021MD1710131+9999MW1371
0081295410999991971032212004+56067+085617FM-12+025099999V0202301N01181075001CN0200001N9-00111-00501100721ADDAA199000091AY131999GF107991021001999999041091KA1999M+00001MD1710061+9999MW1361
0057295410999991971032215004+56067+085617FM-12+025099999V0202001N00981024001CN0190001N9-00221-00721100701ADDAY131999GF107991051001999999031021MD1710041+9999MW1361
0057295410999991971032218004+56067+085617FM-12+025099999V0202501N00411220001CN0220001N9-00391-00891100701ADDAY131999GF107991001001999999001011MD1610021+9999MW1021
0106295410999991971032300004+56067+085617FM-12+025099999V0202501N00101007801CN0200001N9-00611-00891100621ADDAA199000091AY121999GF108991081031008001999999HL10009IA1319IA2999-00789KA1999N-00721MD1810131+9999MW1021
0057295410999991971032303004+56067+085617FM-12+025099999V0202501N00101075001CN0200001N9-00611-01111100591ADDAY121999GF107991021001999999031021MD1610031+9999MW1021
0057295410999991971032306004+56067+085617FM-12+025099999V0202501N00101220001CN0200001N9-00111-00611100591ADDAY121999GF107991041001999999031011MD1410001+9999MW1021
0057295410999991971032309004+56067+085617FM-12+025099999V0202501N00101007801CN0200001N9-00111-00501100671ADDAY121999GF108991081031008001999999MD1310141+9999MW1021
0092295410999991971032312004+56067+085617FM-12+025099999V0202501N00101024001CN0040001N9-00281-00501100951ADDAA106075091AA224999999AY171999GF108991081001999999021999KA1999M-00111MD1210241+9999MW1711
0057295410999991971032315004+56067+085617FM-12+025099999V0202501N00311007801CN0070001N9-00281-00391101221ADDAY171999GF108991081001008001021999MD1210271+9999MW1711
0057295410999991971032318004+56067+085617FM-12+025099999V0202501N00411007801CN0060001N9-00281-00391101361ADDAY171999GF108991081001008001021999MD1210141+9999MW1711
0057295410999991971032321004+56067+085617FM-12+025099999V0202701N00311007801CN0190001N9-00391-00721101641ADDAY171999GF107991071031008001001001MD1210251+9999MW1021
0057295410999991971032403004+56067+085617FM-12+025099999V0202301N00411007801CN0200001N9-00611-00891102121ADDAY121999GF107991071031008001001001MD1210151+9999MW1021
0057295410999991971032406004+56067+085617FM-12+025099999V0202501N00621024001CN0500001N9-00281-00721102101ADDAY121999GF108991081001999999021999MD1110011+9999MW1021
0057295410999991971032409004+56067+085617FM-12+025099999V0202301N00721007801CN0100001N9-00221-00501101931ADDAY131999GF108991081031008001999999MD1810151+9999MW1361
0092295410999991971032412004+56067+085617FM-12+025099999V0202301N00721007801CN0040001N9-00221-00391101751ADDAA106075091AA224999999AY181999GF108991081031008001999999KA1999M-00221MD1710171+9999MW1851
0057295410999991971032415004+56067+085617FM-12+025099999V0202301N00981007801CN0060001N9-00221-00221101441ADDAY181999GF108991071031008001999999MD1710311+9999MW1851
0057295410999991971032418004+56067+085617FM-12+025099999V0202301N01591007801CN0030001N9+00001-00111101161ADDAY181999GF108991081031008001999999MD1710241+9999MW1861
0117295410999991971032500004+56067+085617FM-12+025099999V0202301N01591007801CN0200001N9+00001+00001101171ADDAA106028091AA299007091AY181999GF108991081031008001999999HL10009IA1319IA2999-00229KA1999N-00281MD1810031+9999MW1371
0057295410999991971032503004+56067+085617FM-12+025099999V0202001N01181004501CN0100001N9+00111+00001100961ADDAY121999GF108991081031004501999999MD1710201+9999MW1021
0057295410999991971032506004+56067+085617FM-12+025099999V0202301N01591030001CN0200001N9+00281-00111100741ADDAY121999GF107991041031008001031011MD1710181+9999MW1021
0057295410999991971032509004+56067+085617FM-12+025099999V0202301N01391007801CN0500001N9+00281-00111100781ADDAY121999GF108991081031008001999999MD1310041+9999MW1021
0081295410999991971032512004+56067+085617FM-12+025099999V0202301N01181004501CN0500001N9+00221-00221100631ADDAA199000091AY121999GF108991081031004501999999KA1999M+00391MD1810161+9999MW1021
0057295410999991971032515004+56067+085617FM-12+025099999V0202501N01491007801CN0200001N9+00221-00221100501ADDAY121999GF108991081031008001999999MD1810131+9999MW1021
0057295410999991971032518004+56067+085617FM-12+025099999V0202501N01591007801CN0090001N9+00221-00111100331ADDAY181999GF108991081031008001999999MD1810171+9999MW1801
0117295410999991971032600004+56067+085617FM-12+025099999V0202301N00981007801CN0200001N9+00001-00391100281ADDAA106004091AA299001091AY181999GF108991081031008001999999HL10009IA1209IA2999-00119KA1999N+00001MD1710051+9999MW1021
0057295410999991971032603004+56067+085617FM-12+025099999V0202501N00981007801CN0040001N9-00221-00501100371ADDAY181999GF107991071031008001001001MD1310061+9999MW1851
0057295410999991971032606004+56067+085617FM-12+025099999V0202501N00821007801CN0040001N9-00391-00891100421ADDAY181999GF106991061031008001001001MD1210031+9999MW1851
0057295410999991971032609004+56067+085617FM-12+025099999V0202901N01181007801CN0500001N9-00391-01391100601ADDAY181999GF107991061031008001001011MD1210171+9999MW1021
0092295410999991971032612004+56067+085617FM-12+025099999V0202901N00981007801CN0500001N9-01001-01721100601ADDAA106001091AA299000391AY181999GF105991051031008001001001KA1999M+00001MD1210441+9999MW1021
0043295410999991971032615004+56067+085617FM-12+025099999V0202901N00621007801CN0080001N9-01111-01611101501ADDAY181999GF106991061031008001001001MW1851
0057295410999991971032618004+56067+085617FM-12+025099999V0202901N00981007801CN0060001N9-01501-01891102091ADDAY181999GF107991061031008001001011MD1310511+9999MW1851
0117295410999991971032700004+56067+085617FM-12+025099999V0202901N00311220001CN0100001N9-01721-02111103031ADDAA106004091AA299001091AY181999GF107991031031008001001011HL10009IA1209IA2999-01789KA1999N-01781MD1210441+9999MW1021
0057295410999991971032703004+56067+085617FM-12+025099999V0202501N00511007801CN0200001N9-01501-02001103401ADDAY121999GF106991061011008001001001MD1210381+9999MW1011
0043295410999991971032706004+56067+085617FM-12+025099999V0202501N008219999999N0200001N9+99999+99999103401ADDAY121999GF108991061021999999999999MW1021
