0117295570999991971010100004+55750+088150FM-12+018999999V0200901N00211024001CN0040001N9-02111-02281103851ADDAA106002091AA299000591AY171999GF107991071001999999041001HL10009IA1319IA2999-02399KA1999N-02221MD1710041+9999MW1711
0057295570999991971010106004+55750+088150FM-12+018999999V0200901N00311220001CN0200001N9-02221-02391103851ADDAY171999GF100991001001999999001001MD1810031+9999MW1021
0092295570999991971010112004+55750+088150FM-12+018999999V0200901N00211220001CN0200001N9-02281-02501103911ADDAA106001091AA299000391AY101999GF100991001001999999001001KA1999M-02001MD1010001+9999MW1021
0043295570999991971010115004+55750+088150FM-12+018999999V0200901N00411220001CN0200001N9+99999+99999103941ADDAY101999GF100991001001999999001001MW1021
0057295570999991971010118004+55750+088150FM-12+018999999V0200901N00211220001CN0040001N9-02501-02721103911ADDAY171999GF102991021001999999041001MD1810021+9999MW1711
0057295570999991971010121004+55750+088150FM-12+018999999V0201101N00311220001CN0200001N9-02501-02721103851ADDAY171999GF100991001001999999001001MD1710051+9999MW1021
0117295570999991971010200004+55750+088150FM-12+018999999V0201101N00101220001CN0200001N9-02391-02611103741ADDAA106075091AA224999999AY171999GF100991001001999999001001HL10009IA1319IA2999-02729KA1999N-02611MD1710101+9999MW1021
0057295570999991971010206004+55750+088150FM-12+018999999V0200501N00211220001CN0500001N9-01781-02001103371ADDAY101999GF100991001001999999001001MD1710151+9999MW1021
0057295570999991971010209004+55750+088150FM-12+018999999V0202301N00981075001CN0500001N9-00502-01501103001ADDAY131999GF108991021001999999041071MD1710231+9999MW1361
0081295570999991971010212004+55750+088150FM-12+018999999V0202001N00981075001CN0200001N9-00611-01111102821ADDAA199000091AY131999GF108991021031008001001071KA1999M-00501MD1710281+9999MW1361
0111295570999991971010215004+55750+088150FM-12+018999999V0202301N01391012301CN0200001N9-00501-00891102371ADDAA106236091AA299060091AY131999GF108991081031012501999999KA1999M+99999MD1710431+9999MW1371EQDQ01 +04722ATMX  
0073295570999991971010218004+55750+088150FM-12+018999999V0202301N01181014101CN0040001N9-00501-01001102331ADDAY131999GA1081+014109059GF108991081051012501999999MD1710041+9999MW1711
0057295570999991971010221004+55750+088150FM-12+018999999V0202301N01591012301CN0040001N9-00391-00721101921ADDAY171999GF108991081051012501999999MD1710391+9999MW1711
0117295570999991971010300004+55750+088150FM-12+018999999V0202301N01591012301CN0040001N9-00221-00721101881ADDAA106075091AA224999999AY171999GF108991081051012501999999HL10009IA1319IA2999-00789KA1999N-00611MD1710021+9999MW1711
0057295570999991971010303004+55750+088150FM-12+018999999V0202301N01391030001CN0200001N9-00221-00781101851ADDAY171999GF108991031051008001041999MD1610031+9999MW1361
0057295570999991971010306004+55750+088150FM-12+018999999V0202301N01591030001CN0200001N9-00111-00781101511ADDAY171999GF108991021051012501041011MD1710331+9999MW1361
0057295570999991971010309004+55750+088150FM-12+018999999V0202001N01591030001CN0200001N9-00111-00781101361ADDAY131999GF108991011051012501041011MD1610181+9999MW1361
0092295570999991971010312004+55750+088150FM-12+018999999V0202001N02011030001CN0040001N9-00111-00611101001ADDAA106075091AA224999999AY131999GF106991021051012501041001KA1999M+00001MD1810361+9999MW1711
0057295570999991971010315004+55750+088150FM-12+018999999V0202301N01591024001CN0200001N9-00111-00781100901ADDAY171999GF108991081001999999011999MD1710101+9999MW1361
0073295570999991971010318004+55750+088150FM-12+018999999V0202001N01181015001CN0040001N9-00111-00721100791ADDAY131999GA1081+015009059GF108991081051017501999999MD1710101+9999MW1711
0073295570999991971010321004+55750+088150FM-12+018999999V0202001N01391014101CN0040001N9-00221-00781100721ADDAY171999GA1081+014109049GF108991081001012501021999MD1710081+9999MW1711
0133295570999991971010400004+55750+088150FM-12+018999999V0202001N00981009301CN0040001N9-00391-00721100751ADDAA106001091AA299000391AY171999GA1081+009309049GF108991081001008001021999HL10009IA1209IA2999-00399KA1999N-00391MD1310011+9999MW1711
0057295570999991971010403004+55750+088150FM-12+018999999V0202501N01591075001CN0040001N9-00611-01001100971ADDAY171999GF108991021091004501001071MD1210191+9999MW1851
0057295570999991971010406004+55750+088150FM-12+018999999V0202501N01181030001CN0200001N9-00721-01281101191ADDAY181999GF108991021031008001041071MD1210211+9999MW1361
0057295570999991971010409004+55750+088150FM-12+018999999V0202001N01181075001CN0200001N9-00781-01391101291ADDAY131999GF108991021031008001001071MD1210091+9999MW1361
0092295570999991971010412004+55750+088150FM-12+018999999V0202301N00981220001CN0200001N9-00891-01501101521ADDAA106004091AA299001091AY131999GF108991001001999999001071KA1999M-00391MD1210211+9999MW1361
0057295570999991971010415004+55750+088150FM-12+018999999V0202501N00721030001CN0040001N9-01001-01391101781ADDAY131999GF108991021051008001011999MD1210251+9999MW1711
0057295570999991971010418004+55750+088150FM-12+018999999V0202501N00621007801CN0040001N9-01111-01501102081ADDAY131999GF108991051051008001011999MD1210271+9999MW1711
0057295570999991971010421004+55750+088150FM-12+018999999V0202501N00721075001CN0040001N9-01221-01611102461ADDAY171999GF108991021051008001001071MD1210371+9999MW1711
0117295570999991971010500004+55750+088150FM-12+018999999V0202501N00621220001CN0200001N9-01391-01721102991ADDAA106002091AA299000591AY171999GF108991001001999999001071HL10009IA1209IA2999-01789KA1999N-01391MD1210491+9999MW1031
0057295570999991971010503004+55750+088150FM-12+018999999V0202301N00981220001CN0200001N9-01501-01891103391ADDAY131999GF102991011001999999041041MD1210381+9999MW1361
0057295570999991971010506004+55750+088150FM-12+018999999V0202301N01391220001CN0200001N9-01281-01781103491ADDAY131999GF108991001001999999001071MD1210131+9999MW1361
0057295570999991971010509004+55750+088150FM-12+018999999V0202301N01181075001CN0200001N9-01281-01891103631ADDAY131999GF108991011001999999041071MD1210121+9999MW1361
0081295570999991971010512004+55750+088150FM-12+018999999V0202001N01391220001CN0200001N9-01391-01891103701ADDAA199000091AY131999GF102991011001999999041011KA1999M-01221MD1110051+9999MW1361
0076295570999991971010518004+55750+088150FM-12+018999999V0202001N00981000151CN0200001N9-01281-02001103631ADDAY131999GF108991999091000251071999MD1710031+9999MW1361EQDQ01+000082SCOTLC
0057295570999991971010521004+55750+088150FM-12+018999999V0202001N00821220001CN0200001N9-01111-02281103031ADDAY131999GF106991021001999999041011MD1710541+9999MW1021
0087295570999991971010600004+55750+088150FM-12+018999999V0202001N00621024001CN0200001N9-00781-01891102541ADDAA199000091AY131999GF108991081001999999071999IA1209KA1999N-01391MD1710461+9999MW1021
0057295570999991971010603004+55750+088150FM-12+018999999V0202001N00981015001CN0500001N9-00611-01781102091ADDAY121999GF108991061001017501021999MD1710421+9999MW1021
0057295570999991971010606004+55750+088150FM-12+018999999V0202001N00981030001CN0500001N9-00391-01781101781ADDAY121999GF108991021051012501071021MD1710381+9999MW1031
0057295570999991971010609004+55750+088150FM-12+018999999V0202301N00871075001CN0500001N9-00721-01391101831ADDAY131999GF108991021051012501001021MD1310021+9999MW1021
0092295570999991971010612004+55750+088150FM-12+018999999V0202301N00821220001CN0200001N9-00781-01391102001ADDAA106075091AA224999999AY121999GF108991001001999999001021KA1999M-00391MD1210151+9999MW1031
0092295570999991971010615004+55750+088150FM-12+018999999V0202501N00981012301CN0200001N9-00781-01391102071ADDAY121999GA1061+999999999GF108991999051012501041999MD1210071+9999MW1021EQDQ01+000082SCOTLC
0073295570999991971010618004+55750+088150FM-12+018999999V0202301N00981014101CN0040001N9-00781-01391102181ADDAY171999GA1081+014109049GF108991081001012501021999MD1210111+9999MW1711
0073295570999991971010621004+55750+088150FM-12+018999999V0202501N00511011701CN0040001N9-00781-01221102321ADDAY171999GA1051+011709049GF108991081001012501021999MD1210141+9999MW1711
0133295570999991971010700004+55750+088150FM-12+018999999V0202301N00621012601CN0040001N9-00781-01221102331ADDAA106075091AA224999999AY171999GA1081+012609049GF108991081001012501021999HL10009IA1209IA2999-00899KA1999N-00781MD1110011+9999MW1711
0057295570999991971010703004+55750+088150FM-12+018999999V0202301N00311030001CN0200001N9-00891-01281102341ADDAY171999GF108991021051012501041999MD1810011+9999MW1021
0057295570999991971010706004+55750+088150FM-12+018999999V0202001N00511030001CN0200001N9-00721-01221102151ADDAY171999GF108991021031008001011999MD1810171+9999MW1261
0094295570999991971010712004+55750+088150FM-12+018999999V0202001N00871009901CN0200001N9-00611-00611101361ADDAA106075091AA224999999AY121999GA1081+009909059GF108991061999999999999999KA1999M-00501MW1021
0057295570999991971010715004+55750+088150FM-12+018999999V0202001N00981024001CN0040001N9-00611-00891100901ADDAY171999GF108991081001999999011999MD1710451+9999MW1781
0057295570999991971010718004+55750+088150FM-12+018999999V0202001N01391007801CN0010001N9-00501-00891100501ADDAY171999GF108991081001008001021999MD1710391+9999MW1731
0057295570999991971010721004+55750+088150FM-12+018999999V0202501N01591004501CN0005001N9-00721-01001100481ADDAY171999GF108991081001004501021999MD1710041+9999MW1751
0117295570999991971010800004+55750+088150FM-12+018999999V0202501N00981075001CN0040001N9-00891-01281100701ADDAA106004091AA299001091AY171999GF108991031051008001001071HL10009IA1209IA2999-01009KA1999N-00891MD1310201+9999MW1711
0073295570999991971010803004+55750+088150FM-12+018999999V0202501N00981220001CN0040001N9-01111-01501101101ADDAY171999GA1041+005109059GF108991041051008001001071MD1210371+9999MW1711
0076295570999991971010806004+55750+088150FM-12+018999999V0202501N00981220001CN0200001N9-01221-01721101411ADDAY171999GF102991021051012501001001MD1210311+9999MW1361EQDQ01+000672APC3  
0057295570999991971010809004+55750+088150FM-12+018999999V0202301N01391220001CN0200001N9-01391-01891101711ADDAY131999GF102991021001999999041001MD1210261+9999MW1361
0092295570999991971010812004+55750+088150FM-12+018999999V0202301N00821220001CN0200001N9-01501-02001101941ADDAA106075091AA224999999AY131999GF100991001001999999001001KA1999M-00891MD1210221+9999MW1361
0057295570999991971010815004+55750+088150FM-12+018999999V0202001N00311220001CN0200001N9-01501-02001101911ADDAY131999GF103991001001999999001011MD1810031+9999MW1021
0057295570999991971010818004+55750+088150FM-12+018999999V0202001N00511220001CN0200001N9-01611-02111101751ADDAY131999GF103991001001999999001011MD1710171+9999MW1021
0076295570999991971010821004+55750+088150FM-12+018999999V0202001N00981004501CN0200001N9-01611-02111101601ADDAY111999GF108991999071004501011999MD1710151+9999MW1021EQDQ01+000082SCOTLC
0106295570999991971010900004+55750+088150FM-12+018999999V0202501N00511075001CN0200001N9-01611-02111101721ADDAA199000091AY111999GF108991021001999999041071HL10009IA1209IA2999-02399KA1999N-01611MD1310121+9999MW1021
0057295570999991971010903004+55750+088150FM-12+018999999V0202501N00871075001CN0200001N9-02001-02501102101ADDAY121999GF108991041001999999041071MD1210331+9999MW1021
0057295570999991971010906004+55750+088150FM-12+018999999V0202701N00981075001CN0200001N9-01891-02501102271ADDAY121999GF108991021001999999041021MD1210171+9999MW1021
0057295570999991971010909004+55750+088150FM-12+018999999V0202301N00511075001CN0200001N9-01781-02391102271ADDAY121999GF108991031001999999041071MD1110011+9999MW1021
0081295570999991971010912004+55750+088150FM-12+018999999V0202301N00311220001CN0200001N9-01781-02391102311ADDAA199000091AY121999GF108991001001999999001071KA1999M-01611MD1310041+9999MW1021
0057295570999991971010915004+55750+088150FM-12+018999999V0202501N00311220001CN0200001N9-01891-02391102291ADDAY121999GF108991001001999999001071MD1810031+9999MW1021
0057295570999991971010918004+55750+088150FM-12+018999999V0202001N00101220001CN0200001N9-01891-02281102231ADDAY121999GF108991001001999999001071MD1710071+9999MW1021
0057295570999991971010921004+55750+088150FM-12+018999999V0200701N00311220001CN0040001N9-02001-02281102201ADDAY171999GF108991001001999999001071MD1710041+9999MW1711
0117295570999991971011000004+55750+088150FM-12+018999999V0209991C00001220001CN0040001N9-02001-02221102111ADDAA106001091AA299000391AY171999GF108991001001999999001071HL10009IA1209IA2999-02509KA1999N-02001MD1710081+9999MW1711
0073295570999991971011003004+55750+088150FM-12+018999999V0202301N00621220001CN0200001N9-01391-01781101851ADDAY171999GA1031+004209079GF108991031071004501001071MD1710181+9999MW1221
0057295570999991971011006004+55750+088150FM-12+018999999V0202301N00821075001CN0200001N9-01221-01781101741ADDAY171999GF108991021001999999041071MD1710081+9999MW1361
0057295570999991971011009004+55750+088150FM-12+018999999V0202001N00981024001CN0200001N9-01221-01721101461ADDAY131999GF108991061001999999041071MD1710271+9999MW1361
0092295570999991971011012004+55750+088150FM-12+018999999V0202301N00621024001CN0040001N9-01111-01501101351ADDAA106001091AA299000391AY131999GF108991081001999999011999KA1999M-01111MD1710101+9999MW1711
0057295570999991971011015004+55750+088150FM-12+018999999V0202301N00981220001CN0040001N9-01111-01501101161ADDAY171999GF108991001001999999001071MD1710191+9999MW1711
0057295570999991971011018004+55750+088150FM-12+018999999V0202301N00821220001CN0040001N9-01221-01611101091ADDAY171999GF108991001001999999001071MD1710081+9999MW1711
0057295570999991971011021004+55750+088150FM-12+018999999V0202501N00721220001CN0040001N9-01221-01611101081ADDAY171999GF108991001001999999001071MD1610011+9999MW1711
0117295570999991971011100004+55750+088150FM-12+018999999V0202901N00821030001CN0010001N9-01501-01721101361ADDAA106001091AA299000391AY171999GF108991021051008001021999HL10009IA1209IA2999-01509KA1999N-01501MD1310241+9999MW1731
0057295570999991971011103004+55750+088150FM-12+018999999V0202901N00511030001CN0100001N9-02001-02281101921ADDAY171999GF108991021051008001041071MD1210491+9999MW1711
0057295570999991971011106004+55750+088150FM-12+018999999V0202501N00721220001CN0200001N9-01891-02391102181ADDAY171999GF101991011051012501001001MD1210261+9999MW1361
0057295570999991971011109004+55750+088150FM-12+018999999V0202301N00981220001CN0200001N9-01891-02501102451ADDAY131999GF101991011051012501001001MD1210261+9999MW1361
0092295570999991971011112004+55750+088150FM-12+018999999V0202001N00981220001CN0200001N9-01891-02391102311ADDAA106002091AA299000591AY131999GF108991001001999999001071KA1999M-01501MD1810141+9999MW1361
0092295570999991971011118004+55750+088150FM-12+018999999V0202001N00981075001CN0200001N9-01501-02111100902ADDAY131999GF107991031001999999041081MD1710682+9999MW1361EQDQ01+100903APOSLPQ02+000682APC3  
0057295570999991971011121004+55750+088150FM-12+018999999V0202001N01591024001CN0005001N9-01111-01501100001ADDAY171999GF108991081001999999011999MD1710991+9999MW1751
0117295570999991971011200004+55750+088150FM-12+018999999V0202301N02011024001CN0005001N9-00891-01221099391ADDAA106002091AA299000591AY171999GF108991081001999999011999HL10009IA1209IA2999-02119KA1999N-01781MD1710561+9999MW1751
0057295570999991971011206004+55750+088150FM-12+018999999V0202501N02011000151CN0000501N9-00721-00891099391ADDAY171999GF109991091999000251999999MD1710211+9999MW1751
0057295570999991971011303004+55750+088150FM-12+018999999V0202501N01181075001CN0040001N9-00611-01001098771ADDAY171999GF108991021091004501001071MD1210121+9999MW1851
0057295570999991971011306004+55750+088150FM-12+018999999V0202001N00981075001CN0200001N9-00391-00891098701ADDAY181999GF108991021051012501001071MD1810051+9999MW1361
0073295570999991971011309004+55750+088150FM-12+018999999V0201801N00411220001CN0200001N9-00281-00891098711ADDAY131999GA1041+004509079GF107991061091004501001011MD1310021+9999MW1021
0057295570999991971011315004+55750+088150FM-12+018999999V0202001N01181075001CN0040001N9-00281-00781098701ADDAY181999GF108991021051008001001071MD1310051+9999MW1711
0043295570999991971011318004+55750+088150FM-12+018999999V0202001N00981015001CN0040001N9-00281-00781098901ADDAY171999GF108991051051017501999999MW1781
0057295570999991971011321004+55750+088150FM-12+018999999V0202301N01181030001CN0040001N9-00281-00781099101ADDAY171999GF108991031031008001041999MD1210271+9999MW1851
0117295570999991971011400004+55750+088150FM-12+018999999V0209991C00001075001CN0040001N9-00611-00781099191ADDAA106001091AA299000391AY171999GF108991021031008001001071HL10009IA1209IA2999-00899KA1999N-00611MD1210061+9999MW1851
0043295570999991971011403004+55750+088150FM-12+018999999V0202001N00511030001CN0200001N9-00391-00721098951ADDAY181999GF108991021031008001041999MW1261
0057295570999991971011406004+55750+088150FM-12+018999999V0201801N00821030001CN0040001N9-00281-00611098501ADDAY171999GF108991031031008001021999MD1710431+9999MW1851
0057295570999991971011409004+55750+088150FM-12+018999999V0201801N00981007801CN0010001N9-00221-00391098071ADDAY131999GF108991081031008001999999MD1710411+9999MW1861
0092295570999991971011412004+55750+088150FM-12+018999999V0202301N02011220001CN0000501N9-00721-01001098391ADDAA106002091AA299000591AY181999GF103991031031008001001001KA1999M-00111MD1310321+9999MW1861
0092295570999991971011418004+55750+088150FM-12+018999999V0202501N01591220001CN0200001N9-02391-03001101152ADDAY181999GF108991001001999999001071MD1210802+9999MW1361EQDQ01+101153APOSLPQ02+000802APC3  
0057295570999991971011421004+55750+088150FM-12+018999999V0202501N00981220001CN0200001N9-02611-03221101491ADDAY131999GF100991001001999999001001MD1210311+9999MW1361
0117295570999991971011500004+55750+088150FM-12+018999999V0202701N00511220001CN0200001N9-02781-03281101901ADDAA106002091AA299000591AY131999GF100991001001999999001001HL10009IA1209IA2999-03009KA1999N-02781MD1210371+9999MW1021
0057295570999991971011503004+55750+088150FM-12+018999999V0202501N00311220001CN0200001N9-02781-03281102101ADDAY111999GF108991001001999999001071MD1210201+9999MW1021
0057295570999991971011506004+55750+088150FM-12+018999999V0202001N00821220001CN0200001N9-02611-03391102191ADDAY111999GF101991001001999999001021MD1210111+9999MW1011
0057295570999991971011509004+55750+088150FM-12+018999999V0202001N00721220001CN0200001N9-02611-03281102341ADDAY111999GF107991001001999999001041MD1210141+9999MW1031
0081295570999991971011512004+55750+088150FM-12+018999999V0202001N00981075001CN0200001N9-02611-03281102391ADDAA199000091AY111999GF108991021001999999041071KA1999M-02611MD1210051+9999MW1021
0057295570999991971011515004+55750+088150FM-12+018999999V0202001N00511220001CN0200001N9-02391-03111102331ADDAY111999GF101991001001999999001011MD1810031+9999MW1021
0057295570999991971011518004+55750+088150FM-12+018999999V0202001N01591220001CN0200001N9-02221-02611102191ADDAY131999GF108991001001999999001071MD1710121+9999MW1371
0057295570999991971011521004+55750+088150FM-12+018999999V0202001N01391220001CN0200001N9-02001-02781102251ADDAY131999GF108991001001999999001071MD1310081+9999MW1371
0117295570999991971011600004+55750+088150FM-12+018999999V0202001N01181075001CN0010001N9-01781-02281102191ADDAA106075091AA224999999AY131999GF108991021031008001001071HL10009IA1209IA2999-02899KA1999N-02501MD1810031+9999MW1861
0057295570999991971011603004+55750+088150FM-12+018999999V0202001N00871030001CN0100001N9-01721-02281102031ADDAY181999GF108991021031008001011999MD1710131+9999MW1851
0057295570999991971011606004+55750+088150FM-12+018999999V0202301N00981075001CN0200001N9-01501-02111101821ADDAY181999GF108991031031008001001071MD1710191+9999MW1361
0081295570999991971011609004+55750+088150FM-12+018999999V0202001N00821008401CN0200001N9-01391-02281101681ADDAA106067091AA299017091AY131999GA1061+008409099GF108991041999999999999999MW1851
0108295570999991971011612004+55750+088150FM-12+018999999V0202001N00721014101CN0040001N9-01221-01781101471ADDAA106075091AA224999999AY181999GA1081+014109049GF108991081001012501021999KA1999M-01221MD1710171+9999MW1711
0057295570999991971011615004+55750+088150FM-12+018999999V0202001N00981075001CN0200001N9-01221-01891101311ADDAY171999GF108991031001999999041071MD1710161+9999MW1361
0043295570999991971011618004+55750+088150FM-12+018999999V0202301N00981024001CN0040001N9-01001-01611101101ADDAY131999GF108991081001999999011999MW1711
0057295570999991971011621004+55750+088150FM-12+018999999V0202001N01591024001CN0010001N9-01111-01611100941ADDAY171999GF108991081001999999011999MD1710161+9999MW1731
0098295570999991971011700004+55750+088150FM-12+018999999V0202301N01391007801CN0000501N9-01111-01501101111ADDAA106001091AA299000391AY171999GF108991081001008001021999IA1109KA1999N-01221MD1310161+9999MW1731
0115295570999991971011703004+55750+088150FM-12+018999999V0202301N01181004501CN0200001N9-02111-02781102402ADDAJ100009199999999AY171999GF108991081091004501999999IA1209MD1210992+9999MW1361EQDQ01+102403APOSLPQ02+000992APC3  
0057295570999991971011706004+55750+088150FM-12+018999999V0202501N00981220001CN0200001N9-02281-03111103031ADDAY171999GF107991001001999999001011MD1210601+9999MW1361
0057295570999991971011709004+55750+088150FM-12+018999999V0202301N00981024001CN0200001N9-02221-03001103341ADDAY131999GF108991081001999999011999MD1210311+9999MW1031
0079295570999991971011712004+55750+088150FM-12+018999999V0202501N00511220001CN0200001N9-02281-03001103611ADDAA106001091AA299000391AY131999GF108991001001999999001071MD1210251+9999MW1021
0057295570999991971011715004+55750+088150FM-12+018999999V0202901N00311220001CN0200001N9-02281-03111103661ADDAY121999GF108991001001999999001071MD1110061+9999MW1021
0057295570999991971011718004+55750+088150FM-12+018999999V0203401N00211220001CN0200001N9-02391-03001103821ADDAY121999GF108991001001999999001071MD1310131+9999MW1021
0057295570999991971011721004+55750+088150FM-12+018999999V0209991C00001220001CN0200001N9-02001-03001104071ADDAY121999GF108991001001999999001011MD1210161+9999MW1021
0106295570999991971011800004+55750+088150FM-12+018999999V0209991C00001220001CN0200001N9-03111-03501104211ADDAA199000091AY111999GF100991001001999999001001HL10009IA1209IA2999-03229KA1999N-03111MD1210141+9999MW1021
0057295570999991971011803004+55750+088150FM-12+018999999V0201801N00311220001CN0200001N9-03221-03501104411ADDAY101999GF101991011001999999041001MD1210181+9999MW1031
0057295570999991971011806004+55750+088150FM-12+018999999V0201401N00101220001CN0200001N9-02501-02891104311ADDAY101999GF102991001001999999001041MD1810021+9999MW1031
0057295570999991971011809004+55750+088150FM-12+018999999V0201101N00211220001CN0200001N9-02111-02611104141ADDAY101999GF100991001001999999001001MD1710111+9999MW1021
0081295570999991971011812004+55750+088150FM-12+018999999V0201401N00211024001CN0200001N9-02281-02611103981ADDAA199000091AY111999GF108991051001999999041071KA1999M-02111MD1710181+9999MW1031
0057295570999991971011815004+55750+088150FM-12+018999999V0200901N00211024001CN0200001N9-01891-02221103651ADDAY121999GF108991081001999999041001MD1710281+9999MW1021
0073295570999991971011818004+55750+088150FM-12+018999999V0202001N00821021001CN0200001N9-00721-01391103161ADDAY121999GA1081+021009039GF108991081001022501071999MD1710341+9999MW1021
0057295570999991971011821004+55750+088150FM-12+018999999V0202001N00511024001CN0200001N9-00391-01391102821ADDAY121999GF108991061001999999041071MD1710301+9999MW1021
0106295570999991971011900004+55750+088150FM-12+018999999V0202001N00821075001CN0200001N9-00391-01281102621ADDAA199000091AY121999GF108991031001999999041071HL10009IA1199IA2999-02289KA1999N-02391MD1710201+9999MW1021
0057295570999991971011903004+55750+088150FM-12+018999999V0202301N01391030001CN0200001N9-00391-01391102611ADDAY121999GF108991021051008001041011MD1510011+9999MW1021
0057295570999991971011906004+55750+088150FM-12+018999999V0202301N00981030001CN0200001N9-00391-01221102661ADDAY121999GF108991011051008001041011MD1210051+9999MW1021
0057295570999991971011909004+55750+088150FM-12+018999999V0202301N01181220001CN0200001N9-00391-01111102651ADDAY121999GF107991021001999999041011MD1810031+9999MW1021
0097295570999991971011912004+55750+088150FM-12+018999999V0202001N00981012601CN0200001N9-00501-01111102701ADDAA199000091AY121999GA1071+012609059GF108991071051012501001071KA1999M-00391MD1310061+9999MW1031
0057295570999991971011915004+55750+088150FM-12+018999999V0202001N00871220001CN0200001N9-00501-01001102671ADDAY111999GF103991021001999999041011MD1810031+9999MW1001
0057295570999991971011918004+55750+088150FM-12+018999999V0202001N00311220001CN0200001N9-00501-01001102701ADDAY111999GF106991031001999999041041MD1310031+9999MW1031
0057295570999991971011921004+55750+088150FM-12+018999999V0202001N00511075001CN0200001N9-00501-01001102671ADDAY121999GF108991021001999999041071MD1810031+9999MW1021
0106295570999991971012000004+55750+088150FM-12+018999999V0202001N00511075001CN0200001N9-00501-00891102661ADDAA199000091AY121999GF108991041001999999041071HL10009IA1199IA2999-00899KA1999N-00611MD1710021+9999MW1021
0057295570999991971012003004+55750+088150FM-12+018999999V0202001N00311075001CN0200001N9-00501-01001102631ADDAY121999GF108991021001999999041071MD1610021+9999MW1021
0057295570999991971012006004+55750+088150FM-12+018999999V0202001N00211220001CN0200001N9-00391-00891102581ADDAY121999GF108991001001999999001071MD1810041+9999MW1021
0057295570999991971012009004+55750+088150FM-12+018999999V0201801N00211024001CN0200001N9-00281-00721102501ADDAY171999GF108991081001999999021999MD1710071+9999MW1711
0108295570999991971012012004+55750+088150FM-12+018999999V0202001N00411014101CN0040001N9-00281-00891102451ADDAA106001091AA299000391AY171999GA1081+014109059GF108991081051012501999999KA1999M-00281MD1710041+9999MW1711
0057295570999991971012015004+55750+088150FM-12+018999999V0201401N00101220001CN0200001N9-00391-01001102321ADDAY171999GF108991001001999999001071MD1710141+9999MW1011
0057295570999991971012018004+55750+088150FM-12+018999999V0201401N00211075001CN0200001N9-00721-01281102171ADDAY171999GF108991021001999999041071MD1710181+9999MW1021
0057295570999991971012021004+55750+088150FM-12+018999999V0202301N00721024001CN0200001N9-00611-01221102171ADDAY121999GF108991061001999999041071MD1310011+9999MW1021
0117295570999991971012100004+55750+088150FM-12+018999999V0202001N00821024001CN0200001N9-00721-01221102151ADDAA106075091AA224999999AY121999GF108991061001999999041071HL10009IA1209IA2999-01009KA1999N-00781MD1810031+9999MW1021
0057295570999991971012103004+55750+088150FM-12+018999999V0202001N00621024001CN0200001N9-00721-01221102241ADDAY121999GF107991061001999999041011MD1310091+9999MW1021
0057295570999991971012106004+55750+088150FM-12+018999999V0202301N00821024001CN0200001N9-00501-01111102231ADDAY121999GF107991071001999999041001MD1110011+9999MW1021
0057295570999991971012109004+55750+088150FM-12+018999999V0202001N00821220001CN0200001N9-00721-01221102271ADDAY131999GF101991001001999999001011MD1310021+9999MW1361
0081295570999991971012112004+55750+088150FM-12+018999999V0202001N00871024001CN0200001N9-00721-01221102341ADDAA199000091AY131999GF108991081001999999071999KA1999M-00501MD1210071+9999MW1361
0073295570999991971012115004+55750+088150FM-12+018999999V0202001N00821008101CN0040001N9-00781-01221102391ADDAY131999GA1051+008109059GF108991051051008001001071MD1210041+9999MW1711
0073295570999991971012118004+55750+088150FM-12+018999999V0202501N00981014101CN0040001N9-00781-01221102521ADDAY131999GA1081+014109049GF108991081001012501021999MD1210121+9999MW1711
0073295570999991971012121004+55750+088150FM-12+018999999V0202301N00981009301CN0040001N9-00891-01281102761ADDAY171999GA1081+009309049GF108991081001008001021999MD1210231+9999MW1711
0133295570999991971012200004+55750+088150FM-12+018999999V0202501N00821009301CN0040001N9-01001-01391103031ADDAA106075091AA224999999AY171999GA1081+009309049GF108991081001008001021999HL10009IA1209IA2999-01009KA1999N-01001MD1210251+9999MW1711
0073295570999991971012203004+55750+088150FM-12+018999999V0202501N00721005101CN0040001N9-01001-01391103231ADDAY171999GA1081+005109059GF108991081051004501999999MD1210201+9999MW1711
0057295570999991971012206004+55750+088150FM-12+018999999V0202501N00511075001CN0040001N9-01001-01391103231ADDAY171999GF108991021051008001001071MD1010001+9999MW1711
0057295570999991971012209004+55750+088150FM-12+018999999V0202301N00511024001CN0200001N9-00891-01391103201ADDAY171999GF108991061001999999041071MD1710021+9999MW1021
0092295570999991971012212004+55750+088150FM-12+018999999V0202501N00721024001CN0200001N9-00891-01391103151ADDAA106075091AA224999999AY171999GF108991081001999999071999KA1999M-00891MD1710051+9999MW1031
0073295570999991971012215004+55750+088150FM-12+018999999V0202301N00411018001CN0200001N9-00781-01221103081ADDAY121999GA1061+018009039GF108991021031008001071999MD1710061+9999MW1021
0073295570999991971012218004+55750+088150FM-12+018999999V0202001N00871018001CN0200001N9-00721-01111102961ADDAY121999GA1081+018009039GF108991081001022501071999MD1710101+9999MW1021
0073295570999991971012221004+55750+088150FM-12+018999999V0202301N00981018001CN0200001N9-00611-01221102851ADDAY121999GA1081+018009039GF108991081001022501071999MD1710101+9999MW1021
0117295570999991971012300004+55750+088150FM-12+018999999V0202301N00981024001CN0040001N9-00611-01111102801ADDAA106075091AA224999999AY171999GF108991081001999999011999HL10009IA1209IA2999-01119KA1999N-00891MD1710051+9999MW1711
0057295570999991971012303004+55750+088150FM-12+018999999V0202301N00871030001CN0200001N9-00611-01221102911ADDAY171999GF108991021051008001041071MD1310111+9999MW1711
0057295570999991971012306004+55750+088150FM-12+018999999V0202501N00981030001CN0200001N9-00611-01111102921ADDAY171999GF108991031031008001071999MD1110011+9999MW1851
0057295570999991971012309004+55750+088150FM-12+018999999V0202301N00981030001CN0040001N9-00721-01111103111ADDAY181999GF108991021031008001011999MD1310171+9999MW1851
0108295570999991971012312004+55750+088150FM-12+018999999V0202301N00871014101CN0040001N9-00721-01221103311ADDAA106075091AA224999999AY181999GA1051+014109059GF108991081031012501999999KA1999M-00611MD1210021+9999MW1851
0073295570999991971012315004+55750+088150FM-12+018999999V0202001N00821220001CN0040001N9-00781-01281103501ADDAY181999GA1041+014109099GF108991081031012501999999MD1210171+9999MW1851
0057295570999991971012318004+55750+088150FM-12+018999999V0202001N00821024001CN0040001N9-00781-01281103611ADDAY181999GF108991081001999999041001MD1210101+9999MW1711
0057295570999991971012321004+55750+088150FM-12+018999999V0202501N00511024001CN0200001N9-00781-01281103641ADDAY171999GF107991071001999999041001MD1210031+9999MW1021
0117295570999991971012400004+55750+088150FM-12+018999999V0202501N00511075001CN0200001N9-00891-01391103711ADDAA106075091AA224999999AY171999GF108991031001999999041071HL10009IA1209IA2999-01009KA1999N-00891MD1210061+9999MW1021
0057295570999991971012403004+55750+088150FM-12+018999999V0209991C00001024001CN0200001N9-00891-01391103741ADDAY121999GF108991081001999999041001MD1210031+9999MW1021
0057295570999991971012406004+55750+088150FM-12+018999999V0202001N00311075001CN0200001N9-00781-01221103701ADDAY121999GF108991031001999999071021MD1810031+9999MW1021
0057295570999991971012409004+55750+088150FM-12+018999999V0202001N00511075001CN0200001N9-00721-01391103671ADDAY121999GF108991041001999999041071MD1710021+9999MW1021
0081295570999991971012412004+55750+088150FM-12+018999999V0202301N00101024001CN0200001N9-00781-01281103661ADDAA199000091AY121999GF108991081001999999041999KA1999M-00611MD1710021+9999MW1021
0073295570999991971012415004+55750+088150FM-12+018999999V0202001N00101008101CN0040001N9+00001-01221103661ADDAY171999GA1081+008109059GF108991081051008001999999MD1710021+9999MW1711
0057295570999991971012418004+55750+088150FM-12+018999999V0202301N00311030001CN0200001N9-00891-01391103581ADDAY171999GF108991021051008001041071MD1710071+9999MW1011
0057295570999991971012421004+55750+088150FM-12+018999999V0202301N00311075001CN0200001N9-01001-01391103471ADDAY121999GF108991021001999999041071MD1710101+9999MW1021
0057295570999991971012500004+55750+088150FM-12+018999999V0202301N00511012301CN0200001N9-00781-01281103331ADDAY121999GF108991061051012501071999MD1710121+9999MW1031
0057295570999991971012503004+55750+088150FM-12+018999999V0202301N00511030001CN0100001N9-00781-01391103321ADDAY181999GF108991021031008001071999MD1610011+9999MW1851
0057295570999991971012506004+55750+088150FM-12+018999999V0202501N00981030001CN0200001N9-00781-01281103351ADDAY181999GF108991021031008001041071MD1310031+9999MW1261
0057295570999991971012509004+55750+088150FM-12+018999999V0202501N00871030001CN0200001N9-00781-01281103431ADDAY181999GF108991021031008001071999MD1210081+9999MW1851
0108295570999991971012512004+55750+088150FM-12+018999999V0202501N00981010801CN0200001N9-00781-01501103531ADDAA106075091AA224999999AY181999GA1051+010809059GF108991051051012501041999KA1999M-00781MD1210091+9999MW1021
0073295570999991971012515004+55750+088150FM-12+018999999V0202301N00721009301CN0040001N9-00891-01281103601ADDAY171999GA1081+009309049GF108991081001008001021999MD1210051+9999MW1711
0057295570999991971012518004+55750+088150FM-12+018999999V0202301N00721075001CN0040001N9-00891-01501103511ADDAY171999GF108991031051008001001081MD1810071+9999MW1711
0057295570999991971012521004+55750+088150FM-12+018999999V0202501N00101220001CN0200001N9-01221-01501103621ADDAY171999GF100991001001999999001001MD1310061+9999MW1021
0117295570999991971012600004+55750+088150FM-12+018999999V0200901N00311220001CN0200001N9-01501-01721103611ADDAA106075091AA224999999AY171999GF100991001001999999001001HL10009IA1209IA2999-01789KA1999N-01501MD1810041+9999MW1021
0057295570999991971012603004+55750+088150FM-12+018999999V0209991C00001220001CN0100001N9-01501-01721103601ADDAY111999GF108991001001999999001011MD1610011+9999MW1021
0057295570999991971012606004+55750+088150FM-12+018999999V0202301N00511220001CN0200001N9-00721-01391103431ADDAY111999GF108991001001999999001071MD1810071+9999MW1021
0057295570999991971012609004+55750+088150FM-12+018999999V0201001N00621220001CN0200001N9-00721-01391103371ADDAY121999GF108991021001999999041011MD1710061+9999MW1021
0081295570999991971012612004+55750+088150FM-12+018999999V0202001N00411220001CN0200001N9-00891-01281103331ADDAA199000091AY121999GF107991021001999999041011KA1999M-00611MD1710061+9999MW1021
0057295570999991971012615004+55750+088150FM-12+018999999V0202001N00821220001CN0200001N9-00781-01281103151ADDAY181999GF101991011001999999041001MD1710111+9999MW1261
0057295570999991971012618004+55750+088150FM-12+018999999V0202001N00621220001CN0200001N9-00721-01281103161ADDAY181999GF100991001001999999001001MD1710041+9999MW1021
0073295570999991971012621004+55750+088150FM-12+018999999V0202001N00871011701CN0200001N9-00611-01221103101ADDAY111999GA1051+011709059GF108991081031012501999999MD1710051+9999MW1021
0133295570999991971012700004+55750+088150FM-12+018999999V0202001N00211015001CN0040001N9-00611-01111103051ADDAA106075091AA224999999AY171999GA1081+015009059GF108991081051017501999999HL10009IA1209IA2999-01289KA1999N-00891MD1710051+9999MW1711
0057295570999991971012703004+55750+088150FM-12+018999999V0202001N00411075001CN0500001N9-00611-01111103101ADDAY171999GF108991021091004501001071MD1310051+9999MW1761
0073295570999991971012706004+55750+088150FM-12+018999999V0202301N00511006001CN0100001N9-00611-01001103051ADDAY171999GA1081+006009099GF108991081091008001999999MD1810051+9999MW1851
0073295570999991971012709004+55750+088150FM-12+018999999V0202301N00621006601CN0500001N9-00501-01221103071ADDAY181999GA1081+006609099GF108991081031008001999999MD1310031+9999MW1021
0092295570999991971012712004+55750+088150FM-12+018999999V0209991C00001075001CN0040001N9-00611-00891103151ADDAA106075091AA224999999AY181999GF108991021031008001001071KA1999M-00501MD1210071+9999MW1851
0057295570999991971012718004+55750+088150FM-12+018999999V0200901N00101007801CN0040001N9-00781-00781103251ADDAY181999GF108991081031008001999999MD1110031+9999MW1851
0117295570999991971012800004+55750+088150FM-12+018999999V0201101N00101007801CN0040001N9-00781-00891103301ADDAA106004091AA299001091AY181999GF108991081031008001999999HL10009IA1209IA2999-00789KA1999N-00781MD1210031+9999MW1851
0073295570999991971012803004+55750+088150FM-12+018999999V0209991C00001220001CN0100001N9-00891-00891103381ADDAY181999GA1041+005409059GF108991081031008001999999MD1210071+9999MW1851
0057295570999991971012806004+55750+088150FM-12+018999999V0203601N00101030001CN0200001N9-00611-00891103331ADDAY181999GF108991031031008001041021MD1810021+9999MW1261
0057295570999991971012809004+55750+088150FM-12+018999999V0209991C00001024001CN0500001N9-00611-01111103331ADDAY121999GF108991051001999999041071MD1310011+9999MW1011
0092295570999991971012812004+55750+088150FM-12+018999999V0209991C00001075001CN0200001N9-01111-01391103471ADDAA106001091AA299000391AY121999GF108991021001999999041071KA1999M-00501MD1210081+9999MW1021
0057295570999991971012815004+55750+088150FM-12+018999999V0209991C00001220001CN0200001N9-01611-01781103501ADDAY111999GF102991001001999999001011MD1810031+9999MW1011
0057295570999991971012818004+55750+088150FM-12+018999999V0209999999999220001CN0200001N9-01891-02001103491ADDAY111999GF100991001001999999001001MD1710041+9999MW1021
0057295570999991971012821004+55750+088150FM-12+018999999V0209991C00001220001CN0200001N9-02001-02111103491ADDAY101999GF100991001001999999001001MD1710021+9999MW1021
0106295570999991971012900004+55750+088150FM-12+018999999V0201601N00211075001CN0200001N9-01781-01891103401ADDAA199000091AY111999GF108991031001999999041071HL10009IA1319IA2999-02119KA1999N-02111MD1710061+9999MW1031
0057295570999991971012903004+55750+088150FM-12+018999999V0200901N00211024001CN0040001N9-01501-01611103371ADDAY171999GF108991081001999999011999MD1410001+9999MW1711
0076295570999991971012906004+55750+088150FM-12+018999999V0200901N00311075001CN0200001N9-01221-01391103291ADDAY171999GF108991021051012501001071MD1810081+9999MW1711EQDQ01+000002APC3  
0057295570999991971012909004+55750+088150FM-12+018999999V0202501N00511075001CN0200001N9-00721-01281103191ADDAY171999GF108991041001999999041071MD1710051+9999MW1021
0092295570999991971012912004+55750+088150FM-12+018999999V0202001N00211075001CN0200001N9-00781-01281103211ADDAA106001091AA299000391AY171999GF108991031001999999041071KA1999M-00721MD1310011+9999MW1021
0073295570999991971012915004+55750+088150FM-12+018999999V0202301N00311011701CN0040001N9-00781-01221103161ADDAY171999GA1081+011709059GF108991081051012501999999MD1810051+9999MW1711
0073295570999991971012918004+55750+088150FM-12+018999999V0202301N00211010801CN0040001N9-00721-01221103061ADDAY171999GA1081+010809059GF108991081051012501999999MD1710091+9999MW1711
0057295570999991971013000004+55750+088150FM-12+018999999V0200501N00821012301CN0040001N9-00781-01111103071ADDAY171999GF108991081031012501999999MD1810011+9999MW1851
0073295570999991971013003004+55750+088150FM-12+018999999V0209991C00001004801CN0040001N9-00781-00891103121ADDAY181999GA1081+004809099GF108991081031004501999999MD1310051+9999MW1851
0073295570999991971013006004+55750+088150FM-12+018999999V0209991C00001220001CN0100001N9-00721-00891103151ADDAY181999GA1021+006009099GF108991021031008001041999MD1210041+9999MW1851
0057295570999991971013009004+55750+088150FM-12+018999999V0209991C00001220001CN0100001N9-00891-01001103201ADDAY181999GF108991021031008001001011MD1210031+9999MW1851
0092295570999991971013012004+55750+088150FM-12+018999999V0209991C00001030001CN0020001N9-01221-01281103401ADDAA106004091AA299001091AY181999GF108991021031008001041999KA1999M-00721MD1210171+9999MW1861
0124295570999991971013015004+55750+088150FM-12+018999999V0200901N00211220001CN0040001N9-01391-01501103471ADDAY181999GA1999+000159009GA2999+999999099GF108991001001999999001071MD1210041+9999MW1711EQDQ01    003SCCGA1Q02    003SCCGA2
0057295570999991971013018004+55750+088150FM-12+018999999V0209991C00001220001CN0200001N9-02001-02111103591ADDAY171999GF102991001001999999001011MD1210051+9999MW1011
0117295570999991971013100004+55750+088150FM-12+018999999V0200901N00211075001CN0040001N9-02111-02221103721ADDAA106002091AA299000591AY181999GF108991031031008001001071HL10009IA1319IA2999-02229KA1999N-02281MD1210071+9999MW1851
0057295570999991971013103004+55750+088150FM-12+018999999V0201101N00211220001CN0040001N9-02221-02281103821ADDAY181999GF108991001001999999001071MD1210091+9999MW1101
0057295570999991971013106004+55750+088150FM-12+018999999V0200701N00101220001CN0040001N9-01891-02001103801ADDAY181999GF103991001001999999001011MD1210011+9999MW1101
0057295570999991971013109004+55750+088150FM-12+018999999V0209991C00001220001CN0100001N9-01721-02001103821ADDAY111999GF107991001001999999001011MD1210051+9999MW1021
0092295570999991971013112004+55750+088150FM-12+018999999V0209991C00001220001CN0100001N9-02001-02111103981ADDAA106075091AA224999999AY111999GF100991001001999999001001KA1999M-01721MD1210121+9999MW1011
0057295570999991971013115004+55750+088150FM-12+018999999V0200901N00211220001CN0200001N9-02221-02281104101ADDAY101999GF100991001001999999001001MD1210101+9999MW1021
0057295570999991971013118004+55750+088150FM-12+018999999V0200901N00101220001CN0200001N9-02281-02391104141ADDAY101999GF100991001001999999001001MD1110031+9999MW1021
0057295570999991971013121004+55750+088150FM-12+018999999V0209991C00001220001CN0200001N9-02501-02721104191ADDAY101999GF100991001001999999001001MD1310021+9999MW1021
0106295570999991971020100004+55750+088150FM-12+018999999V0209991C00001220001CN0200001N9-02611-02781104281ADDAA199000091AY101999GF100991001001999999001001HL10009IA1319IA2999-02509KA1999N-02721MD1210071+9999MW1021
0057295570999991971020103004+55750+088150FM-12+018999999V0201101N00211220001CN0040001N9-02611-02781104351ADDAY101999GF102991021001999999041001MD1210071+9999MW1101
0057295570999991971020106004+55750+088150FM-12+018999999V0209991C00001220001CN0040001N9-01891-02221104241ADDAY101999GF102991021001999999041001MD1110011+9999MW1101
0043295570999991971020109004+55750+088150FM-12+018999999V0209991C00001220001CN0040001N9-01721-02001104311ADDAY101999GF104991001001999999071011MW1101
0081295570999991971020112004+55750+088150FM-12+018999999V0200201N00101024001CN0200001N9-02001-02281104501ADDAA199000091AY111999GF106991061001999999041001KA1999M-01721MD1210151+9999MW1031
0057295570999991971020115004+55750+088150FM-12+018999999V0209991C00001220001CN0200001N9-02221-02391104501ADDAY111999GF100991001001999999001001MD1810021+9999MW1021
0057295570999991971020118004+55750+088150FM-12+018999999V0209991C00001024001CN0200001N9-02281-02501104561ADDAY111999GF107991071001999999041001MD1310051+9999MW1021
0057295570999991971020121004+55750+088150FM-12+018999999V0209991C00001024001CN0040001N9-01891-02111104551ADDAY171999GF107991071001999999041001MD1210031+9999MW1711
0117295570999991971020200004+55750+088150FM-12+018999999V0209991C00001007801CN0010001N9-01721-01891104541ADDAA106002091AA299000591AY171999GF106991061031008001001001HL10009IA1319IA2999-02399KA1999N-02391MD1210021+9999MW1861
0057295570999991971020203004+55750+088150FM-12+018999999V0209991C00001030001CN0010001N9-01611-01721104591ADDAY181999GF108991031031008001041999MD1210061+9999MW1861
0057295570999991971020206004+55750+088150FM-12+018999999V0209991C000019999999N0010001N9-01391-01501104511ADDAY181999GF108991999999008001041071MD1810031+9999MW1731
0057295570999991971020209004+55750+088150FM-12+018999999V0202001N00101030001CN0040001N9-01111-01391104501ADDAY171999GF108991021031008001041071MD1410001+9999MW1851
0092295570999991971020212004+55750+088150FM-12+018999999V0209991C00001030001CN0040001N9-01221-01281104521ADDAA106008091AA299002091AY171999GF108991021031008001041999KA1999M-01001MD1310011+9999MW1851
0057295570999991971020215004+55750+088150FM-12+018999999V0209991C00001075001CN0040001N9-01611-01721104551ADDAY181999GF108991021001999999041071MD1810021+9999MW1711
0073295570999991971020218004+55750+088150FM-12+018999999V0209991C00001005701CN0040001N9-01781-01891104511ADDAY171999GA1051+005709099GF108991051031004501041071MD1710061+9999MW1851
0057295570999991971020221004+55750+088150FM-12+018999999V0209991C00001004501CN0040001N9-01721-01891104371ADDAY181999GF108991051031004501071999MD1710151+9999MW1851
0117295570999991971020300004+55750+088150FM-12+018999999V0209991C00001007801CN0040001N9-01781-01891104331ADDAA106001091AA299000391AY181999GF108991081031008001999999HL10009IA1319IA2999-02119KA1999N-02001MD1710051+9999MW1851
0057295570999991971020303004+55750+088150FM-12+018999999V0202501N00211030001CN0040001N9-01721-01781104321ADDAY181999GF107991021051008001041001MD1710101+9999MW1851
0057295570999991971020306004+55750+088150FM-12+018999999V0202701N00311075001CN0200001N9-01611-01891104031ADDAY181999GF106991031001999999041021MD1710171+9999MW1761
0057295570999991971020309004+55750+088150FM-12+018999999V0202901N00101220001CN0200001N9-01781-02111104021ADDAY181999GF101991001001999999001011MD1610031+9999MW1021
0092295570999991971020312004+55750+088150FM-12+018999999V0209991C00001220001CN0200001N9-02391-02501104201ADDAA106001091AA299000391AY111999GF100991001001999999001001KA1999M-01501MD1310111+9999MW1021
0057295570999991971020315004+55750+088150FM-12+018999999V0209991C00001220001CN0200001N9-03111-03281104401ADDAY101999GF101991011001999999041001MD1210101+9999MW1011
0057295570999991971020318004+55750+088150FM-12+018999999V0209991C00001220001CN0200001N9-03281-03501104481ADDAY101999GF100991001001999999001001MD1210061+9999MW1021
0106295570999991971020400004+55750+088150FM-12+018999999V0209991C00001220001CN0200001N9-03891-04221104761ADDAA199000091AY101999GF100991001001999999001001HL10009IA1319IA2999-03399KA1999N-03891MD1210081+9999MW1021
0057295570999991971020403004+55750+088150FM-12+018999999V0209991C00001220001CN0010001N9-03721-03891104851ADDAY111999GF105991001001999999001011MD1210021+9999MW1101
0057295570999991971020406004+55750+088150FM-12+018999999V0209991C00001220001CN0020001N9-03001-03221104681ADDAY111999GF103991001001999999001011MD1210011+9999MW1101
0057295570999991971020409004+55750+088150FM-12+018999999V0200901N00101220001CN0200001N9-02721-03001104641ADDAY101999GF103991001001999999001011MD1410001+9999MW1761
0081295570999991971020412004+55750+088150FM-12+018999999V0201101N00101220001CN0200001N9-02891-03111104711ADDAA199000091AY101999GF100991001001999999001001KA1999M-02611MD1310051+9999MW1021
0057295570999991971020415004+55750+088150FM-12+018999999V0209991C00001220001CN0200001N9-03391-03611104711ADDAY101999GF100991001001999999001001MD1810071+9999MW1021
0057295570999991971020418004+55750+088150FM-12+018999999V0209991C00001220001CN0200001N9-03391-03611104581ADDAY101999GF101991001001999999001011MD1710131+9999MW1021
0057295570999991971020421004+55750+088150FM-12+018999999V0209991C00001220001CN0200001N9-03501-03721104491ADDAY121999GF100991001001999999001001MD1710101+9999MW1021
0106295570999991971020500004+55750+088150FM-12+018999999V0209991C00001220001CN0200001N9-03721-03891104431ADDAA199000091AY101999GF100991001001999999001001HL10009IA1319IA2999-03619KA1999N-03781MD1710091+9999MW1021
0057295570999991971020503004+55750+088150FM-12+018999999V0200901N00211220001CN0100001N9-03281-03501104221ADDAY111999GF107991001001999999001041MD1710151+9999MW1031
0057295570999991971020506004+55750+088150FM-12+018999999V0209991C00001220001CN0200001N9-02721-03001103981ADDAY111999GF107991001001999999001011MD1710171+9999MW1021
0057295570999991971020509004+55750+088150FM-12+018999999V0200701N00311220001CN0200001N9-02391-02721103801ADDAY121999GF108991001001999999001011MD1710131+9999MW1021
0081295570999991971020512004+55750+088150FM-12+018999999V0201101N00311220001CN0200001N9-02721-02891103711ADDAA199000091AY121999GF108991001001999999001071KA1999M-02391MD1710111+9999MW1021
0057295570999991971020515004+55750+088150FM-12+018999999V0200901N00211220001CN0200001N9-02781-03001103521ADDAY121999GF108991001001999999001071MD1710201+9999MW1021
0057295570999991971020518004+55750+088150FM-12+018999999V0200901N00211220001CN0200001N9-02611-02891103301ADDAY121999GF108991001001999999001071MD1710201+9999MW1021
0057295570999991971020521004+55750+088150FM-12+018999999V0201101N00101220001CN0040001N9-02611-02891103091ADDAY171999GF108991001001999999001071MD1710201+9999MW1711
0117295570999991971020600004+55750+088150FM-12+018999999V0209991C00001220001CN0040001N9-02611-02891102981ADDAA106001091AA299000391AY171999GF108991001999999999001071HL10009IA1319IA2999-02789KA1999N-02781MD1710111+9999MW1711
0057295570999991971020606004+55750+088150FM-12+018999999V0209991C00001220001CN0100001N9-02391-02781102881ADDAY171999GF100991001001999999001001MD1510021+9999MW1761
0057295570999991971020609004+55750+088150FM-12+018999999V0200901N00101220001CN0100001N9-02391-02781102931ADDAY101999GF100991001001999999001001MD1210051+9999MW1021
0092295570999991971020612004+55750+088150FM-12+018999999V0201601N00101220001CN0100001N9-02721-03001103001ADDAA106001091AA299000391AY111999GF108991001001999999001071KA1999M-02391MD1110031+9999MW1021
0057295570999991971020615004+55750+088150FM-12+018999999V0201101N00411220001CN0200001N9-02611-02891102871ADDAY121999GF108991001001999999001051MD1810121+9999MW1021
0057295570999991971020618004+55750+088150FM-12+018999999V0200901N00411220001CN0200001N9-02391-02721102661ADDAY121999GF108991001001999999001071MD1710181+9999MW1021
0057295570999991971020621004+55750+088150FM-12+018999999V0200901N00411220001CN0200001N9-02501-02781102511ADDAY121999GF108991001001999999001071MD1710161+9999MW1021
0117295570999991971020700004+55750+088150FM-12+018999999V0200901N00411220001CN0040001N9-02391-02721102421ADDAA106075091AA224999999AY171999GF108991001001999999001071HL10009IA1319IA2999-02789KA1999N-02721MD1710081+9999MW1711
0057295570999991971020703004+55750+088150FM-12+018999999V0200901N00311220001CN0200001N9-02391-02721102311ADDAY171999GF108991001001999999001071MD1710111+9999MW1021
0057295570999991971020706004+55750+088150FM-12+018999999V0200901N00511075001CN0200001N9-01781-02111102111ADDAY171999GF108991041001999999041071MD1710131+9999MW1021
0057295570999991971020709004+55750+088150FM-12+018999999V0200901N00511220001CN0200001N9-01501-01781101981ADDAY121999GF108991001001999999001071MD1710081+9999MW1021
0111295570999991971020712004+55750+088150FM-12+018999999V0200901N003119999999N0200001N9-01721-02001101991ADDAA106075091AA224999999AY121999GF108991999091999999071999KA1999M-01501MD1610011+9999MW1021EQDQ01+000002SCOTLC
0057295570999991971020715004+55750+088150FM-12+018999999V0200901N00311024001CN0200001N9-01781-02111102051ADDAY121999GF108991071001999999041071MD1310051+9999MW1021
0057295570999991971020718004+55750+088150FM-12+018999999V0209991C000019999999N0200001N9-01891-02111102151ADDAY121999GF108991061001999999999999MD1210061+9999MW1021
0057295570999991971020721004+55750+088150FM-12+018999999V0209991C00001220001CN0200001N9-01001-02111102241ADDAY111999GF102991021001999999041011MD1210081+9999MW1011
0106295570999991971020800004+55750+088150FM-12+018999999V0209991C00001220001CN0040001N9-01891-02111102321ADDAA199000091AY111999GF108991001001999999001071HL10009IA1319IA2999-02229KA1999N-02221MD1210091+9999MW1101
0057295570999991971020806004+55750+088150FM-12+018999999V0200901N00311030001CN0200001N9-01001-01221102301ADDAY171999GF108991021051008001041999MD1810011+9999MW1021
0057295570999991971020809004+55750+088150FM-12+018999999V0200901N00211030001CN0200001N9-00721-01001102331ADDAY171999GF108991031051012501041999MD1310061+9999MW1711
0092295570999991971020812004+55750+088150FM-12+018999999V0200901N00211030001CN0040001N9-00891-01001102431ADDAA106002091AA299000591AY171999GF108991031031008001041999KA1999M-00721MD1210081+9999MW1851
0073295570999991971020815004+55750+088150FM-12+018999999V0200901N00101009301CN0200001N9-00891-01111102491ADDAY181999GA1081+009309099GF108991081031008001999999MD1210061+9999MW1021
0073295570999991971020818004+55750+088150FM-12+018999999V0209991C00001012601CN0200001N9-00781-00891102491ADDAY181999GA1081+012609059GF108991081051012501999999MD1210011+9999MW1021
0073295570999991971020821004+55750+088150FM-12+018999999V0209991C00001010801CN0200001N9-00781-00891102541ADDAY121999GA1081+010809059GF108991081051012501999999MD1210041+9999MW1021
0133295570999991971020900004+55750+088150FM-12+018999999V0201101N00101011701CN0200001N9+99999+99999102591ADDAA106075091AA224999999AY121999GA1071+011709059GF107991071051012501001001HL10009IA1319IA2999-01009KA1999N-00891MD1210051+9999MW1021
0057295570999991971020903004+55750+088150FM-12+018999999V0201101N00311220001CN0100001N9-01221-01281102651ADDAY121999GF104991001001999999001011MD1210021+9999MW1021
0057295570999991971020906004+55750+088150FM-12+018999999V0200701N00511220001CN0200001N9-00781-01221102481ADDAY111999GF102991001001999999001011MD1810121+9999MW1011
0057295570999991971020909004+55750+088150FM-12+018999999V0200901N00721220001CN0200001N9-00721-00891102441ADDAY131999GF101991001001999999001011MD1710031+9999MW1361
0081295570999991971020912004+55750+088150FM-12+018999999V0200701N00511220001CN0200001N9-01001-01221102541ADDAA199000091AY131999GF101991001001999999001011KA1999M-00611MD1310061+9999MW1021
0057295570999991971020915004+55750+088150FM-12+018999999V0200901N00511220001CN0200001N9-01391-01501102681ADDAY101999GF100991001001999999001001MD1110091+9999MW1021
0057295570999991971020918004+55750+088150FM-12+018999999V0201101N00511220001CN0200001N9-01391-01501102681ADDAY101999GF100991001001999999001001MD1410001+9999MW1021
0057295570999991971020921004+55750+088150FM-12+018999999V0201101N00411220001CN0200001N9-01721-01781102751ADDAY101999GF103991001001999999001021MD1310041+9999MW1761
0125295570999991971021000004+55750+088150FM-12+018999999V0201101N00511220001CN0200001N9-01781-01891102731ADDAA199999999AY101999GF102991001001999999001021HL10009IA1319IA2999-01899KA1999N-01781MD1810031+9999MW1761EQDQ01  00002PRCP99
0057295570999991971021003004+55750+088150FM-12+018999999V0200901N00511220001CN0040001N9-01781-02001102771ADDAY101999GF102991001001999999001011MD1310041+9999MW1101
0057295570999991971021006004+55750+088150FM-12+018999999V0200901N00621220001CN0200001N9-01391-01721102711ADDAY101999GF102991001001999999001041MD1810021+9999MW1031
0057295570999991971021009004+55750+088150FM-12+018999999V0200901N00511220001CN0200001N9-01281-01721102781ADDAY101999GF101991001001999999001021MD1310091+9999MW1021
0081295570999991971021012004+55750+088150FM-12+018999999V0201101N00211030001CN0100001N9-01721-02001102971ADDAA199000091AY111999GF106991021051008001041001KA1999M-01221MD1210191+9999MW1031
0073295570999991971021015004+55750+088150FM-12+018999999V0200901N00211010801CN0040001N9-01391-01721103071ADDAY181999GA1081+010809099GF108991081031012501999999MD1210081+9999MW1851
0073295570999991971021018004+55750+088150FM-12+018999999V0202501N00101012601CN0200001N9-00721-00891103011ADDAY181999GA1081+012609099GF108991081031012501999999MD1210011+9999MW1261
0073295570999991971021021004+55750+088150FM-12+018999999V0202501N00411220001CN0200001N9-00721-01111102991ADDAY121999GA1041+012609059GF108991081031012501999999MD1810011+9999MW1031
0117295570999991971021100004+55750+088150FM-12+018999999V0202501N00511220001CN0200001N9-00891-01281103051ADDAA106075091AA224999999AY121999GF108991001001999999001071HL10009IA1319IA2999-01899KA1999N-01781MD1310031+9999MW1021
0057295570999991971021103004+55750+088150FM-12+018999999V0202301N00621220001CN0200001N9-01111-01501103011ADDAY111999GF102991001001999999001011MD1810051+9999MW1011
0057295570999991971021106004+55750+088150FM-12+018999999V0202501N00411220001CN0200001N9-01391-01611102971ADDAY111999GF100991001001999999001001MD1710011+9999MW1011
0057295570999991971021109004+55750+088150FM-12+018999999V0202501N00511220001CN0200001N9-00781-01611102871ADDAY101999GF100991001001999999001001MD1710101+9999MW1021
0081295570999991971021112004+55750+088150FM-12+018999999V0209991C00001220001CN0200001N9-01391-01721102911ADDAA199000091AY101999GF102991001001999999001021KA1999M-00721MD1710031+9999MW1031
0057295570999991971021115004+55750+088150FM-12+018999999V0201101N00411075001CN0200001N9-01611-01781102761ADDAY111999GF108991031001999999041071MD1710171+9999MW1031
0057295570999991971021118004+55750+088150FM-12+018999999V0200901N00311220001CN0200001N9-01501-01781102511ADDAY111999GF108991001001999999001071MD1710231+9999MW1021
0057295570999991971021121004+55750+088150FM-12+018999999V0200901N00311220001CN0200001N9-01501-01781102331ADDAY121999GF108991001001999999001071MD1710191+9999MW1021
0117295570999991971021200004+55750+088150FM-12+018999999V0209991C00001030001CN0040001N9-01391-01611102231ADDAA106075091AA224999999AY171999GF108991021051008001011999HL10009IA1319IA2999-02229KA1999N-01781MD1710081+9999MW1711
0057295570999991971021203004+55750+088150FM-12+018999999V0201601N00311075001CN0100001N9-01501-01721102211ADDAY171999GF108991011001999999041071MD1610031+9999MW1221
0057295570999991971021206004+55750+088150FM-12+018999999V0203401N00101075001CN0100001N9-01221-01501102221ADDAY171999GF108991021051008001001071MD1310051+9999MW1711
0057295570999991971021209004+55750+088150FM-12+018999999V0202901N00311075001CN0100001N9-01281-01611102421ADDAY171999GF108991011051008001001071MD1210181+9999MW1021
0092295570999991971021212004+55750+088150FM-12+018999999V0202301N00511075001CN0040001N9-01391-01721102671ADDAA106001091AA299000391AY171999GF108991021051012501001071KA1999M-01001MD1210231+9999MW1711
0043295570999991971021215004+55750+088150FM-12+018999999V0202301N00511220001CN0200001N9-01721-02001102821ADDAY171999GF102991021001999999041001MW1021
0057295570999991971021218004+55750+088150FM-12+018999999V0202301N00411024001CN0040001N9-01781-02111102961ADDAY171999GF108991061001999999041071MD1210131+9999MW1711
0057295570999991971021221004+55750+088150FM-12+018999999V0203201N00101220001CN0200001N9-02221-02391103141ADDAY171999GF100991001001999999001001MD1210131+9999MW1021
0117295570999991971021300004+55750+088150FM-12+018999999V0209991C00001220001CN0200001N9-02281-02501103271ADDAA106075091AA224999999AY171999GF102991021001999999041001HL10009IA1319IA2999-03119KA1999N-02391MD1210111+9999MW1031
0057295570999991971021303004+55750+088150FM-12+018999999V0209991C00001220001CN0100001N9-02501-02721103461ADDAY111999GF108991001001999999001011MD1210161+9999MW1021
0057295570999991971021306004+55750+088150FM-12+018999999V0202701N00411220001CN0200001N9-01501-01891103421ADDAY111999GF102991001001999999001011MD1210081+9999MW1021
0057295570999991971021309004+55750+088150FM-12+018999999V0203401N00311220001CN0100001N9-01611-01891103511ADDAY111999GF108991001001999999001041MD1210081+9999MW1761
0081295570999991971021312004+55750+088150FM-12+018999999V0209991C00001220001CN0100001N9-02001-02111103721ADDAA199000091AY111999GF101991001001999999001021KA1999M-01501MD1210141+9999MW1021
0057295570999991971021315004+55750+088150FM-12+018999999V0201801N00211220001CN0200001N9-02501-02611103811ADDAY101999GF100991001001999999001001MD1210031+9999MW1021
0057295570999991971021318004+55750+088150FM-12+018999999V0209991C00001220001CN0200001N9-02721-02891103781ADDAY101999GF100991001001999999001001MD1810051+9999MW1021
0057295570999991971021321004+55750+088150FM-12+018999999V0209991C00001220001CN0200001N9-03001-03221103661ADDAY101999GF100991001001999999001001MD1710141+9999MW1021
0106295570999991971021400004+55750+088150FM-12+018999999V0209991C00001220001CN0200001N9-03111-03281103531ADDAA199000091AY101999GF100991001001999999001001HL10009IA1319IA2999-03399KA1999N-03111MD1710141+9999MW1021
0057295570999991971021403004+55750+088150FM-12+018999999V0209991C00001220001CN0040001N9-03001-03221103401ADDAY101999GF100991001001999999001001MD1710121+9999MW1101
0057295570999991971021406004+55750+088150FM-12+018999999V0209991C00001220001CN0100001N9-02391-02721103251ADDAY101999GF100991001001999999001001MD1710071+9999MW1761
0057295570999991971021409004+55750+088150FM-12+018999999V0203401N00211220001CN0100001N9-02221-02611103221ADDAY101999GF100991001001999999001001MD1510011+9999MW1021
0081295570999991971021412004+55750+088150FM-12+018999999V0209991C00001220001CN0100001N9-02611-02891103371ADDAA199000091AY101999GF101991001001999999001011KA1999M-01781MD1210101+9999MW1021
0057295570999991971021415004+55750+088150FM-12+018999999V0209991C00001024001CN0040001N9-02721-02891103481ADDAY171999GF108991081001999999011999MD1210101+9999MW1711
0057295570999991971021418004+55750+088150FM-12+018999999V0209991C00001030001CN0040001N9-02501-02781103511ADDAY171999GF108991021051008001011999MD1210061+9999MW1711
0057295570999991971021421004+55750+088150FM-12+018999999V0209991C00001220001CN0200001N9-02721-02891103601ADDAY171999GF101991001001999999001021MD1110061+9999MW1011
0117295570999991971021500004+55750+088150FM-12+018999999V0209991C00001220001CN0200001N9-03281-03501103751ADDAA106075091AA224999999AY171999GF100991001001999999001001HL10009IA1319IA2999-03729KA1999N-03281MD1310071+9999MW1761
0057295570999991971021503004+55750+088150FM-12+018999999V0209991C00001220001CN0200001N9-03111-03281103821ADDAY101999GF100991001001999999001001MD1210081+9999MW1761
0057295570999991971021506004+55750+088150FM-12+018999999V0200901N00101220001CN0040001N9-02611-02891103741ADDAY101999GF100991001001999999001001MD1810011+9999MW1101
0057295570999991971021509004+55750+088150FM-12+018999999V0203201N00101220001CN0100001N9-02281-02721103661ADDAY101999GF101991001001999999001021MD1710031+9999MW1031
0081295570999991971021512004+55750+088150FM-12+018999999V0209991C00001024001CN0100001N9-02721-02891103601ADDAA199000091AY111999GF108991051001999999041021KA1999M-02111MD1710051+9999MW1031
0100295570999991971021515004+55750+088150FM-12+018999999V0209991C00001024001CN0100001N9-02721-02891103601ADDAA199000091AY111999GF108991051011999999041021KA1999M-02111MD1710051+9999MW1031EQDQ01+000992SCOLCB
0043295570999991971021518004+55750+088150FM-12+018999999V0209991C00001220001CN0100001N9-03001-03221103571ADDAY111999GF108991001999999999001071MW1031
0057295570999991971021521004+55750+088150FM-12+018999999V0209991C00001220001CN0100001N9-02891-03111103511ADDAY121999GF108991001001999999001071MD1710051+9999MW1021
0106295570999991971021600004+55750+088150FM-12+018999999V0209991C00001220001CN0100001N9-03001-03221103461ADDAA199000091AY121999GF108991001001999999001071HL10009IA1319IA2999-03399KA1999N-03111MD1710061+9999MW1021
0057295570999991971021603004+55750+088150FM-12+018999999V0209991C00001220001CN0200001N9-02721-02891103361ADDAY121999GF108991001001999999001071MD1710061+9999MW1021
0057295570999991971021606004+55750+088150FM-12+018999999V0209991C00001075001CN0100001N9-02221-02611103271ADDAY121999GF108991011001999999031071MD1710031+9999MW1021
0057295570999991971021609004+55750+088150FM-12+018999999V0209991C00001220001CN0200001N9-02001-02391103181ADDAY121999GF108991001001999999001021MD1710071+9999MW1021
0081295570999991971021612004+55750+088150FM-12+018999999V0209991C00001220001CN0200001N9-02221-02501103151ADDAA199000091AY121999GF108991001001999999001071KA1999M-01781MD1710041+9999MW1021
0057295570999991971021618004+55750+088150FM-12+018999999V0200901N00101220001CN0200001N9-02891-03111103101ADDAY111999GF100991001001999999001001MD1710051+9999MW1021
0057295570999991971021621004+55750+088150FM-12+018999999V0209991C00001075001CN0040001N9-02781-03001103001ADDAY171999GF108991021001999999041071MD1710091+9999MW1711
0117295570999991971021700004+55750+088150FM-12+018999999V0209991C00001220001CN0040001N9-03001-03221102951ADDAA106075091AA224999999AY171999GF105991011001999999041011HL10009IA1319IA2999-03509KA1999N-03001MD1710081+9999MW1711
0057295570999991971021703004+55750+088150FM-12+018999999V0201101N00101220001CN0040001N9-02891-03111102801ADDAY171999GF100991001001999999001001MD1710131+9999MW1101
0057295570999991971021706004+55750+088150FM-12+018999999V0200901N00101220001CN0100001N9-02221-02501102591ADDAY171999GF101991001001999999001011MD1710121+9999MW1021
0057295570999991971021709004+55750+088150FM-12+018999999V0200901N00311220001CN0100001N9-01781-02721102451ADDAY101999GF100991001001999999001001MD1610091+9999MW1021
0092295570999991971021712004+55750+088150FM-12+018999999V0200901N00211220001CN0040001N9-02001-02281102291ADDAA106075091AA224999999AY101999GF102991001001999999001021KA1999M-01781MD1810191+9999MW1101
0057295570999991971021715004+55750+088150FM-12+018999999V0201201N00211220001CN0200001N9-01891-02221101881ADDAY111999GF108991001001999999001071MD1710371+9999MW1031
0073295570999991971021718004+55750+088150FM-12+018999999V0201601N00101021001CN0040001N9-01501-01781101631ADDAY171999GA1081+021009049GF108991081001022501021999MD1710211+9999MW1711
0073295570999991971021721004+55750+088150FM-12+018999999V0201601N00211220001CN0200001N9-01391-01611101361ADDAY171999GA1041+011709059GF108991041051012501001071MD1710251+9999MW1011
0117295570999991971021800004+55750+088150FM-12+018999999V0200901N00311075001CN0200001N9-01391-01611101161ADDAA106001091AA299000391AY171999GF108991031001999999071071HL10009IA1319IA2999-02229KA1999N-02111MD1710201+9999MW1021
0057295570999991971021803004+55750+088150FM-12+018999999V0200701N00311075001CN0100001N9-01221-01391100811ADDAY121999GF108991021051012501001071MD1710311+9999MW1021
0057295570999991971021806004+55750+088150FM-12+018999999V0200901N00411024001CN0040001N9-00891-01221100491ADDAY171999GF108991081001999999011999MD1710291+9999MW1711
0057295570999991971021809004+55750+088150FM-12+018999999V0202501N00511075001CN0200001N9-00391-00781100231ADDAY171999GF108991021051008001001071MD1710201+9999MW1711
0043295570999991971021812004+55750+088150FM-12+018999999V0200201N00211220001CN0100001N9-00781-01721100021ADDAY171999GF108991001001999999001031MW1021
0073295570999991971021815004+55750+088150FM-12+018999999V0202301N00981014101CN0040001N9-00611-01111100061ADDAY181999GA1081+014109099GF108991081031012501999999MD1310041+9999MW1851
0057295570999991971021818004+55750+088150FM-12+018999999V0202501N01181220001CN0200001N9-01501-01891100691ADDAY181999GF108991001001999999001071MD1210521+9999MW1361
0057295570999991971021821004+55750+088150FM-12+018999999V0202301N01181220001CN0200001N9-01781-02281101041ADDAY111999GF108991001001999999001071MD1210321+9999MW1311
0117295570999991971021900004+55750+088150FM-12+018999999V0202301N00981220001CN0200001N9-01891-02391101211ADDAA106002091AA299000591AY131999GF108991001001999999001071HL10009IA1319IA2999-02009KA1999N-01891MD1210151+9999MW1361
0057295570999991971021906004+55750+088150FM-12+018999999V0202301N01391030001CN0040001N9-01891-02391101661ADDAY131999GF108991021051008001041081MD1210241+9999MW1711
0057295570999991971021909004+55750+088150FM-12+018999999V0202301N01181075001CN0200001N9-01891-02501101811ADDAY171999GF108991021051008001001021MD1210151+9999MW1361
0092295570999991971021912004+55750+088150FM-12+018999999V0202301N00981220001CN0200001N9-02001-02611102061ADDAA106075091AA224999999AY171999GF108991001001999999001071KA1999M-01781MD1210231+9999MW1361
0057295570999991971021915004+55750+088150FM-12+018999999V0202501N00411220001CN0200001N9-02111-02611102191ADDAY131999GF102991001001999999001081MD1210101+9999MW1011
0057295570999991971021918004+55750+088150FM-12+018999999V0202501N00411220001CN0200001N9-02281-02891102321ADDAY131999GF100991001001999999001001MD1210111+9999MW1021
0081295570999991971022000004+55750+088150FM-12+018999999V0202501N00101220001CN0200001N9-02781-03221102561ADDAA199000091AY111999GF106991001001999999001041KA1999N-02781MD1210181+9999MW1031
0081295570999991971022003004+55750+088150FM-12+018999999V0202501N00101220001CN0200001N9-02781-03221102561ADDAA199000091AY111999GF106991001001999999001041KA1999N-02781MD1210081+9999MW1031
0057295570999991971022006004+55750+088150FM-12+018999999V0202501N00981024001CN0100001N9-02501-03111102761ADDAY171999GF108991081001999999011999MD1210071+9999MW1711
0057295570999991971022009004+55750+088150FM-12+018999999V0202701N00821030001CN0040001N9-02611-03111102981ADDAY171999GF108991031051012501021999MD1210201+9999MW1711
0092295570999991971022012004+55750+088150FM-12+018999999V0202501N00871075001CN0040001N9-02781-03281103341ADDAA106001091AA299000391AY171999GF108991021051008001001071KA1999M-02281MD1210331+9999MW1711
0057295570999991971022015004+55750+088150FM-12+018999999V0202901N00311075001CN0040001N9-03001-03391103681ADDAY171999GF106991021051008001001021MD1210311+9999MW1711
0057295570999991971022018004+55750+088150FM-12+018999999V0209991C00001220001CN0040001N9-03221-03611103871ADDAY171999GF103991011051008001001021MD1210151+9999MW1711
0057295570999991971022021004+55750+088150FM-12+018999999V0202001N00211220001CN0200001N9-03721-04001104021ADDAY171999GF100991001001999999001001MD1210091+9999MW1761
0117295570999991971022100004+55750+088150FM-12+018999999V0201801N00311220001CN0200001N9-03781-04111104161ADDAA106075091AA224999999AY171999GF100991001001999999001001HL10009IA1319IA2999-04009KA1999N-03781MD1210121+9999MW1761
0057295570999991971022103004+55750+088150FM-12+018999999V0209999900101220001CN0200001N9-03611-03891104221ADDAY101999GF101991001001999999001011MD1210091+9999MW1021
0057295570999991971022106004+55750+088150FM-12+018999999V0200501N00411220001CN0100001N9-03001-03391104121ADDAY111999GF106991001001999999001041MD1810031+9999MW1031
0057295570999991971022109004+55750+088150FM-12+018999999V0200901N00411220001CN0040001N9-02781-03221104051ADDAY121999GF106991001001999999001011MD1710041+9999MW1101
0100295570999991971022112004+55750+088150FM-12+018999999V0200901N00211220001CN0100001N9-03001-03391104091ADDAA199999999AY111999GF101991001001999999001021KA1999M-02721MD1310011+9999MW1761EQDQ01  00002PRCP99
0057295570999991971022115004+55750+088150FM-12+018999999V0200901N00211220001CN0200001N9-03221-03501104121ADDAY101999GF100991001001999999001001MD1210011+9999MW1021
0057295570999991971022118004+55750+088150FM-12+018999999V0200901N00211220001CN0040001N9-03221-03501104031ADDAY171999GF104991001001999999001061MD1810091+9999MW1711
0057295570999991971022121004+55750+088150FM-12+018999999V0200901N00211220001CN0040001N9-03281-03721103981ADDAY171999GF102991001001999999001011MD1710071+9999MW1711
0117295570999991971022200004+55750+088150FM-12+018999999V0200901N00211220001CN0040001N9-03281-03611103941ADDAA106001091AA299000391AY171999GF108991001001999999001071HL10009IA1319IA2999-03509KA1999N-03281MD1710041+9999MW1711
0057295570999991971022203004+55750+088150FM-12+018999999V0209991C00001220001CN0200001N9-03221-03501103881ADDAY171999GF108991001001999999001071MD1710041+9999MW1711
0057295570999991971022206004+55750+088150FM-12+018999999V0200701N00311220001CN0200001N9-02781-03221103721ADDAY171999GF108991001001999999001071MD1610101+9999MW1711
0057295570999991971022209004+55750+088150FM-12+018999999V0200701N00411220001CN0100001N9-02501-02891103661ADDAY171999GF108991001001999999001071MD1810021+9999MW1711
0092295570999991971022212004+55750+088150FM-12+018999999V0200701N00211220001CN0040001N9-02611-02891103701ADDAA106002091AA299000591AY171999GF108991001001999999001071KA1999M-02501MD1310021+9999MW1111
0057295570999991971022215004+55750+088150FM-12+018999999V0201101N00101220001CN0040001N9-02891-03221103671ADDAY171999GF100991001001999999001001MD1810051+9999MW1111
0057295570999991971022218004+55750+088150FM-12+018999999V0201101N00101220001CN0040001N9-03111-03391103601ADDAY171999GF100991001001999999001001MD1710101+9999MW1111
0117295570999991971022300004+55750+088150FM-12+018999999V0209991C00001220001CN0200001N9-03281-03781103591ADDAA106001091AA299000391AY171999GF100991001001999999001001HL10009IA1319IA2999-03509KA1999N-03281MD1610011+9999MW1761
0057295570999991971022303004+55750+088150FM-12+018999999V0209991C00001220001CN0040001N9-03281-03611103531ADDAY171999GF108991001001999999001071MD1810031+9999MW1711
0057295570999991971022306004+55750+088150FM-12+018999999V0209991C00001220001CN0100001N9-02781-03221103431ADDAY171999GF100991001001999999001001MD1710041+9999MW1761
0057295570999991971022309004+55750+088150FM-12+018999999V0209991C00001220001CN0100001N9-02501-03111103391ADDAY101999GF103991001001999999001011MD1510001+9999MW1021
0092295570999991971022312004+55750+088150FM-12+018999999V0209991C00001220001CN0100001N9-02721-03111103491ADDAA106001091AA299000391AY101999GF102991001001999999001011KA1999M-02391MD1210071+9999MW1021
0057295570999991971022318004+55750+088150FM-12+018999999V0209991C00001220001CN0200001N9-03391-03721103591ADDAY101999GF100991001001999999001001MD1410001+9999MW1021
0057295570999991971022321004+55750+088150FM-12+018999999V0209991C00001220001CN0200001N9-03391-03721103561ADDAY101999GF100991001001999999001001MD1810031+9999MW1021
0106295570999991971022400004+55750+088150FM-12+018999999V0201801N00211220001CN0200001N9-03721-04001103641ADDAA199000091AY101999GF100991001001999999001001HL10009IA1319IA2999-04009KA1999N-03721MD1310051+9999MW1021
0057295570999991971022403004+55750+088150FM-12+018999999V0201801N00101220001CN0200001N9-03501-03781103651ADDAY101999GF100991001001999999001001MD1210031+9999MW1021
0057295570999991971022406004+55750+088150FM-12+018999999V0200501N00211220001CN0200001N9-02891-03281103531ADDAY101999GF100991001001999999001001MD1810061+9999MW1021
0057295570999991971022409004+55750+088150FM-12+018999999V0202901N00101220001CN0200001N9-02611-03111103451ADDAY101999GF100991001001999999001001MD1710031+9999MW1021
0081295570999991971022412004+55750+088150FM-12+018999999V0209991C00001220001CN0200001N9-02781-03281103541ADDAA199000091AY101999GF101991001001999999001011KA1999M-02391MD1310071+9999MW1021
0057295570999991971022415004+55750+088150FM-12+018999999V0209991C00001220001CN0200001N9-03391-03721103631ADDAY101999GF100991001001999999001001MD1210011+9999MW1021
0057295570999991971022418004+55750+088150FM-12+018999999V0209991C00001220001CN0200001N9-03611-03891103601ADDAY101999GF100991001001999999001001MD1810051+9999MW1021
0106295570999991971022500004+55750+088150FM-12+018999999V0209991C00001220001CN0200001N9-03721-04001103551ADDAA199000091AY101999GF100991001001999999001001HL10009IA1209IA2999-04119KA1999N-03781MD1310221+9999MW1021
0057295570999991971022503004+55750+088150FM-12+018999999V0209991C00001220001CN0100001N9-03391-03721103501ADDAY101999GF100991001001999999001001MD1810011+9999MW1021
0057295570999991971022506004+55750+088150FM-12+018999999V0201101N00411220001CN0200001N9-02781-03281103321ADDAY101999GF100991001001999999001001MD1710101+9999MW1021
0057295570999991971022509004+55750+088150FM-12+018999999V0201101N00311220001CN0200001N9-02391-03001103261ADDAY101999GF100991001001999999001001MD1610011+9999MW1021
0081295570999991971022512004+55750+088150FM-12+018999999V0200701N00511220001CN0200001N9-02611-03221103351ADDAA199000091AY101999GF100991001001999999001001KA1999M-02281MD1310061+9999MW1021
0057295570999991971022515004+55750+088150FM-12+018999999V0200901N00211220001CN0200001N9-03001-03391103411ADDAY101999GF100991001001999999001001MD1110011+9999MW1021
0057295570999991971022518004+55750+088150FM-12+018999999V0200901N00311220001CN0200001N9-03281-03611103351ADDAY101999GF100991001001999999001001MD1810101+9999MW1021
0057295570999991971022521004+55750+088150FM-12+018999999V0209991C00001220001CN0200001N9-03501-03781103381ADDAY101999GF100991001001999999001001MD1310011+9999MW1021
0106295570999991971022600004+55750+088150FM-12+018999999V0201801N00311220001CN0200001N9-03721-04001103441ADDAA199000091AY101999GF100991001001999999001001HL10009IA1209IA2999-04009KA1999N-03721MD1210031+9999MW1021
0043295570999991971022603004+55750+088150FM-12+018999999V0209991C00001220001CN0100001N9-03391-03721103471ADDAY101999GF100991001001999999001001MW1761
0057295570999991971022606004+55750+088150FM-12+018999999V0209991C00001220001CN0100001N9-02781-03281103421ADDAY101999GF100991001001999999001001MD1210031+9999MW1021
0057295570999991971022609004+55750+088150FM-12+018999999V0202701N00101220001CN0200001N9-02391-03001103451ADDAY101999GF100991001001999999001001MD1210081+9999MW1021
0081295570999991971022612004+55750+088150FM-12+018999999V0209991C00001220001CN0100001N9-02721-03221103631ADDAA199000091AY101999GF100991001001999999001001KA1999M-02391MD1210141+9999MW1021
0057295570999991971022615004+55750+088150FM-12+018999999V0209991C00001220001CN0200001N9-03281-03611103731ADDAY101999GF100991001001999999001001MD1210021+9999MW1021
0057295570999991971022618004+55750+088150FM-12+018999999V0209991C00001220001CN0200001N9-03611-03891103761ADDAY101999GF100991001001999999001001MD1410001+9999MW1021
0057295570999991971022621004+55750+088150FM-12+018999999V0209991C00001220001CN0200001N9-03781-04111103771ADDAY101999GF100991001001999999001001MD1810021+9999MW1021
0081295570999991971022700004+55750+088150FM-12+018999999V0209991C00001220001CN0200001N9-03891-04221103871ADDAA199000091AY101999GF100991001001999999001001KA1999N-03891MD1310081+9999MW1021
0057295570999991971022703004+55750+088150FM-12+018999999V0209991C00001220001CN0100001N9-03721-04001103941ADDAY101999GF100991001001999999001001MD1210091+9999MW1761
0057295570999991971022706004+55750+088150FM-12+018999999V0200701N00211220001CN0040001N9-02891-03391103881ADDAY141999GF100991001001999999001001MD1210041+9999MW1101
0057295570999991971022709004+55750+088150FM-12+018999999V0200701N00101220001CN0100001N9-02391-03001103821ADDAY101999GF100991001001999999001001MD1410001+9999MW1021
0081295570999991971022712004+55750+088150FM-12+018999999V0209991C00001220001CN0100001N9-02611-03111103961ADDAA199000091AY101999GF102991001001999999001041KA1999M-02001MD1310111+9999MW1031
0057295570999991971022715004+55750+088150FM-12+018999999V0201801N00101220001CN0200001N9-03391-03721104091ADDAY101999GF100991001001999999001001MD1210031+9999MW1021
0057295570999991971022718004+55750+088150FM-12+018999999V0201801N00101220001CN0200001N9-03611-03891104111ADDAY101999GF100991001001999999001001MD1410001+9999MW1021
0106295570999991971022800004+55750+088150FM-12+018999999V0209991C00001220001CN0200001N9-03891-04221104141ADDAA199000091AY101999GF100991001001999999001001HL10009IA1209IA2999-04229KA1999N-03891MD1310011+9999MW1021
0057295570999991971022803004+55750+088150FM-12+018999999V0209991C00001220001CN0040001N9-03611-03891104091ADDAY101999GF100991001001999999001001MD1410001+9999MW1101
0057295570999991971022806004+55750+088150FM-12+018999999V0200701N00101220001CN0100001N9-02721-03221103931ADDAY101999GF100991001001999999001001MD1810051+9999MW1761
0057295570999991971022809004+55750+088150FM-12+018999999V0202701N00101220001CN0200001N9-02391-03001103821ADDAY101999GF100991001001999999001001MD1710071+9999MW1021
0081295570999991971022812004+55750+088150FM-12+018999999V0209991C00001220001CN0200001N9-02721-03221103911ADDAA199000091AY101999GF100991001001999999001001KA1999M-02281MD1310051+9999MW1021
0057295570999991971022818004+55750+088150FM-12+018999999V0201601N00101220001CN0200001N9-03501-03781103941ADDAY101999GF100991001001999999001001MD1710051+9999MW1021
0106295570999991971030100004+55750+088150FM-12+018999999V0209991C00001220001CN0200001N9+99999+99999103871ADDAA199000091AY101999GF101991001001999999001041HL10009IA1209IA2999-04119KA1999N-03781MD1710011+9999MW1021
0057295570999991971030103004+55750+088150FM-12+018999999V0209991C00001220001CN0100001N9+99999+99999103891ADDAY101999GF100991001001999999001001MD1310051+9999MW1761
0057295570999991971030106004+55750+088150FM-12+018999999V0200701N00211220001CN0100001N9-02781-03221103781ADDAY101999GF100991001001999999001001MD1810021+9999MW1021
0057295570999991971030109004+55750+088150FM-12+018999999V0202701N00311220001CN0500001N9+99999+99999103871ADDAY101999GF100991001001999999001001MD1810061+9999MW1021
0081295570999991971030112004+55750+088150FM-12+018999999V0203601N00101220001CN0200001N9-02611-03221103951ADDAA199000091AY101999GF100991001001999999001001KA1999M-02221MD1210131+9999MW1021
0057295570999991971030118004+55750+088150FM-12+018999999V0209991C00001220001CN0200001N9-03391-03721104041ADDAY121999GF100991001001999999001001MD1810031+9999MW1021
0057295570999991971030121004+55750+088150FM-12+018999999V0209991C00001220001CN0200001N9-03611-03891104131ADDAY101999GF100991001001999999001001MD1310011+9999MW1021
0106295570999991971030200004+55750+088150FM-12+018999999V0209991C00001220001CN0200001N9-03781-04111104271ADDAA199000091AY101999GF100991001001999999001001HL10009IA1209IA2999-04119KA1999N-03781MD1210111+9999MW1021
0057295570999991971030206004+55750+088150FM-12+018999999V0203601N00311220001CN0100001N9-02721-03111104341ADDAY101999GF100991001001999999001001MD1210081+9999MW1021
0057295570999991971030209004+55750+088150FM-12+018999999V0202901N00211220001CN0200001N9-02281-02781104391ADDAY101999GF100991001001999999001001MD1210101+9999MW1021
0081295570999991971030212004+55750+088150FM-12+018999999V0209991C00001220001CN0200001N9-02501-03001104541ADDAA199000091AY101999GF100991001001999999001001KA1999M-02221MD1210121+9999MW1021
0057295570999991971030215004+55750+088150FM-12+018999999V0202001N00411220001CN0200001N9-02891-03221104701ADDAY101999GF100991001001999999001001MD1210121+9999MW1021
0057295570999991971030218004+55750+088150FM-12+018999999V0202001N00311220001CN0200001N9-02781-03111104741ADDAY101999GF101991001001999999001011MD1210051+9999MW1021
0057295570999991971030221004+55750+088150FM-12+018999999V0202301N00211220001CN0200001N9-02721-03001104761ADDAY101999GF100991001001999999001001MD1210021+9999MW1021
0106295570999991971030300004+55750+088150FM-12+018999999V0202001N00511220001CN0200001N9-02611-03001104831ADDAA199000091AY101999GF102991001001999999001011HL10009IA1209IA2999-03619KA1999N-03221MD1210081+9999MW1021
0057295570999991971030303004+55750+088150FM-12+018999999V0202001N00621220001CN0100001N9-02391-02891104891ADDAY171999GF108991001001999999001041MD1210091+9999MW1221
0057295570999991971030306004+55750+088150FM-12+018999999V0202501N00821220001CN0100001N9-02001-02611104881ADDAY171999GF104991001001999999001011MD1210031+9999MW1021
0057295570999991971030309004+55750+088150FM-12+018999999V0202501N00621220001CN0200001N9-01781-02281104801ADDAY111999GF108991001001999999001011MD1810051+9999MW1021
0092295570999991971030312004+55750+088150FM-12+018999999V0202001N00511220001CN0200001N9-02001-02611104881ADDAA106075091AA224999999AY111999GF102991001001999999001011KA1999M-01781MD1310051+9999MW1021
0057295570999991971030315004+55750+088150FM-12+018999999V0202301N00311220001CN0200001N9-02221-02721104921ADDAY111999GF106991001001999999001061MD1210021+9999MW1031
0057295570999991971030318004+55750+088150FM-12+018999999V0202301N00101220001CN0200001N9-02221-02721104951ADDAY121999GF108991001001999999001071MD1210031+9999MW1021
0057295570999991971030321004+55750+088150FM-12+018999999V0202001N00101220001CN0200001N9-02501-02781104951ADDAY111999GF102991001001999999001011MD1810041+9999MW1011
0106295570999991971030400004+55750+088150FM-12+018999999V0202301N00101220001CN0200001N9-02721-02891104941ADDAA199000091AY111999GF101991001001999999001011HL10009IA1209IA2999-03399KA1999N-02781MD1610011+9999MW1021
0057295570999991971030403004+55750+088150FM-12+018999999V0209991C00001220001CN0040001N9-02611-02891999999ADDAY101999GF102991001001999999001011MD1310051+9999MW1101
0057295570999991971030406004+55750+088150FM-12+018999999V0202301N00411220001CN0200001N9-01721-02391104791ADDAY101999GF101991001001999999001011MD1810101+9999MW1021
0057295570999991971030409004+55750+088150FM-12+018999999V0202701N00621220001CN0200001N9-01611-02391104691ADDAY101999GF101991001001999999001011MD1710091+9999MW1021
0081295570999991971030412004+55750+088150FM-12+018999999V0202701N00211220001CN0500001N9-01891-02501104701ADDAA199000091AY101999GF102991001001999999001011KA1999M-01611MD1710031+9999MW1021
0057295570999991971030415004+55750+088150FM-12+018999999V0209991C00001220001CN0200001N9-02391-02781104751ADDAY101999GF100991001001999999001001MD1410001+9999MW1021
0057295570999991971030418004+55750+088150FM-12+018999999V0209991C00001220001CN0200001N9-03001-03281104861ADDAY101999GF100991001001999999001001MD1310021+9999MW1021
0106295570999991971030500004+55750+088150FM-12+018999999V0201801N00101220001CN0200001N9-02891-03111104681ADDAA199000091AY101999GF100991001001999999001001HL10009IA1209IA2999-03619KA1999N-03111MD1710091+9999MW1021
0057295570999991971030503004+55750+088150FM-12+018999999V0209991C00001220001CN9999999N9-02891-03221104651ADDAY111999GF106991001001999999001061MD1610031+9999MW1101
0057295570999991971030506004+55750+088150FM-12+018999999V0209991C00001220001CN0200001N9-01891-02391104431ADDAY111999GF103991001001999999001011MD1810111+9999MW1021
0057295570999991971030509004+55750+088150FM-12+018999999V0203201N00211220001CN0200001N9-01721-02281104241ADDAY101999GF102991001001999999001011MD1710161+9999MW1021
0081295570999991971030512004+55750+088150FM-12+018999999V0209991C00001220001CN0200001N9-01891-02501104201ADDAA199000091AY101999GF101991001001999999001011KA1999M-01501MD1710071+9999MW1021
0057295570999991971030515004+55750+088150FM-12+018999999V0202001N00311220001CN0200001N9-02611-02891104241ADDAY101999GF100991001001999999001001MD1710031+9999MW1021
0057295570999991971030518004+55750+088150FM-12+018999999V0201801N00211220001CN0200001N9-02891-03111104221ADDAY101999GF100991001001999999001001MD1710051+9999MW1021
0057295570999991971030521004+55750+088150FM-12+018999999V0209991C00001220001CN0200001N9-02891-03221104281ADDAY101999GF100991001001999999001001MD1310041+9999MW1021
0106295570999991971030600004+55750+088150FM-12+018999999V0201801N00211220001CN0200001N9-03391-03611104371ADDAA199000091AY101999GF100991001001999999001001HL10009IA1209IA2999-03729KA1999N-03391MD1210031+9999MW1021
0057295570999991971030606004+55750+088150FM-12+018999999V0203601N00211220001CN0040001N9-01891-02391104231ADDAY101999GF108991001001999999001071MD1210011+9999MW1101
0057295570999991971030609004+55750+088150FM-12+018999999V0203401N00101220001CN0200001N9-01611-02281104141ADDAY101999GF102991001001999999001011MD1810051+9999MW1021
0067295570999991971030612004+55750+088150FM-12+018999999V0209991C00001220001CN0200001N9-01781-02391104171ADDAA199000091AY101999GF100991001001999999001001KA1999M-01391MW1021
0081295570999991971030615004+55750+088150FM-12+018999999V0209991C00001220001CN0200001N9-01781-02391104171ADDAA199000091AY101999GF100991001001999999001001KA1999M-01391MD1310011+9999MW1021
0057295570999991971030618004+55750+088150FM-12+018999999V0201801N00311220001CN0200001N9-02611-02891104281ADDAY101999GF100991001001999999001001MD1810031+9999MW1021
0057295570999991971030621004+55750+088150FM-12+018999999V0201801N00311220001CN0200001N9-02891-03111104321ADDAY101999GF100991001001999999001001MD1310011+9999MW1021
0106295570999991971030700004+55750+088150FM-12+018999999V0209991C00001220001CN0200001N9-03001-03221104361ADDAA199000091AY101999GF100991001001999999001001HL10009IA1209IA2999-03289KA1999N-03001MD1110011+9999MW1021
0057295570999991971030703004+55750+088150FM-12+018999999V0209991C00001220001CN0100001N9-02721-03001104341ADDAY101999GF102991001001999999001011MD1310021+9999MW1021
0057295570999991971030706004+55750+088150FM-12+018999999V0200901N00101220001CN0100001N9-01891-02501104221ADDAY101999GF100991001001999999001001MD1810031+9999MW1021
0081295570999991971030712004+55750+088150FM-12+018999999V0209991C00001220001CN0200001N9-01721-02281104161ADDAA199000091AY101999GF100991001001999999001001KA1999M-01221MD1310011+9999MW1021
0057295570999991971030715004+55750+088150FM-12+018999999V0202001N00211220001CN0200001N9-02221-02501104221ADDAY111999GF108991001001999999001071MD1410001+9999MW1031
0057295570999991971030718004+55750+088150FM-12+018999999V0209991C00001220001CN0200001N9-02391-02721104301ADDAY111999GF108991001001999999001071MD1310081+9999MW1021
0057295570999991971030721004+55750+088150FM-12+018999999V0209991C00001220001CN0200001N9-02391-02721104351ADDAY121999GF108991041001999999041011MD1210051+9999MW1031
0081295570999991971030800004+55750+088150FM-12+018999999V0209991C00001075001CN0200001N9-02501-02781104401ADDAA199000091AY121999GF108991011001999999041071KA1999N-02501MD1210041+9999MW1021
0057295570999991971030803004+55750+088150FM-12+018999999V0209991C00001220001CN0040001N9-02001-02281104481ADDAY111999GF106991001001999999001011MD1210131+9999MW1101
0057295570999991971030806004+55750+088150FM-12+018999999V0202901N00311220001CN0200001N9-01111-01781104361ADDAY111999GF104991001001999999001041MD1810011+9999MW1031
0057295570999991971030809004+55750+088150FM-12+018999999V0203201N00311220001CN0200001N9-01111-01721104381ADDAY121999GF106991021001999999041011MD1310021+9999MW1031
0081295570999991971030812004+55750+088150FM-12+018999999V0201401N00211220001CN0200001N9-01281-01781104491ADDAA199000091AY111999GF102991001001999999001011KA1999M-01111MD1210091+9999MW1021
0057295570999991971030815004+55750+088150FM-12+018999999V0201801N00411220001CN0200001N9-01781-02111104691ADDAY101999GF100991001001999999001001MD1210131+9999MW1021
0057295570999991971030818004+55750+088150FM-12+018999999V0202001N00211220001CN0200001N9-02111-02281104841ADDAY101999GF100991001001999999001001MD1210111+9999MW1021
0057295570999991971030821004+55750+088150FM-12+018999999V0202001N00101220001CN0200001N9-02501-02781104981ADDAY101999GF100991001001999999001001MD1210091+9999MW1021
0106295570999991971030900004+55750+088150FM-12+018999999V0209991C00001220001CN0200001N9-02721-02891999999ADDAA199000091AY101999GF100991001001999999001001HL10009IA1209IA2999-03119KA1999N-02781MD1210081+9999MW1021
0057295570999991971030903004+55750+088150FM-12+018999999V0200901N00101220001CN0040001N9-02001-02281999999ADDAY101999GF100991001001999999001001MD1210111+9999MW1101
0057295570999991971030906004+55750+088150FM-12+018999999V0200701N00311220001CN0200001N9-01281-01501999999ADDAY101999GF100991001001999999001001MD1210021+9999MW1021
0057295570999991971030909004+55750+088150FM-12+018999999V0200901N00211220001CN0200001N9-01001-01721104961ADDAY101999GF100991001001999999001001MD1810051+9999MW1021
0057295570999991971030912004+55750+088150FM-12+018999999V0201601N00211220001CN0200001N9-01221-01891999999ADDAY101999GF102991011001999999041011MD1310041+9999MW1021
0057295570999991971030915004+55750+088150FM-12+018999999V0202001N00311220001CN0200001N9-01891-02221999999ADDAY101999GF100991001001999999001001MD1210041+9999MW1021
0057295570999991971030918004+55750+088150FM-12+018999999V0202001N00101220001CN0200001N9-02281-02611999999ADDAY101999GF100991001001999999001001MD1210031+9999MW1021
0057295570999991971030921004+55750+088150FM-12+018999999V0201801N00101220001CN0200001N9-02501-02781999999ADDAY101999GF100991001001999999001001MD1810051+9999MW1021
0106295570999991971031000004+55750+088150FM-12+018999999V0201601N00211220001CN0200001N9-02721-02891999999ADDAA199000091AY101999GF101991001001999999001011HL10009IA1209IA2999-03009KA1999N-02721MD1710021+9999MW1021
0057295570999991971031003004+55750+088150FM-12+018999999V0209991C00001220001CN0040001N9-02221-02501999999ADDAY101999GF100991001001999999001001MD1310011+9999MW1101
0057295570999991971031006004+55750+088150FM-12+018999999V0201401N00101220001CN0200001N9-01501-01891104971ADDAY101999GF100991001001999999001001MD1810101+9999MW1021
0057295570999991971031009004+55750+088150FM-12+018999999V0200701N00511220001CN0200001N9-00891-01611104771ADDAY101999GF100991001001999999001001MD1710131+9999MW1021
0081295570999991971031012004+55750+088150FM-12+018999999V0200701N00411220001CN0200001N9-01221-01721104741ADDAA199000091AY101999GF101991001001999999001011KA1999M-00781MD1710061+9999MW1021
0057295570999991971031015004+55750+088150FM-12+018999999V0201101N00311220001CN0200001N9-01721-02001104771ADDAY101999GF100991001001999999001001MD1710031+9999MW1021
0057295570999991971031018004+55750+088150FM-12+018999999V0201601N00101220001CN0200001N9-02221-02391104801ADDAY101999GF100991001001999999001001MD1710031+9999MW1021
0057295570999991971031021004+55750+088150FM-12+018999999V0201801N00211220001CN0200001N9-02281-02501104751ADDAY101999GF100991001001999999001001MD1710061+9999MW1021
0106295570999991971031100004+55750+088150FM-12+018999999V0201601N00311220001CN0200001N9-02281-02611104731ADDAA199000091AY101999GF100991001001999999001001HL10009IA1209IA2999-03009KA1999N-02281MD1710021+9999MW1021
0057295570999991971031103004+55750+088150FM-12+018999999V0200901N00101220001CN0200001N9-01891-02221104721ADDAY101999GF100991001001999999001001MD1310031+9999MW1761
0057295570999991971031106004+55750+088150FM-12+018999999V0200701N00211220001CN0200001N9-01221-01611104531ADDAY101999GF100991001001999999001001MD1810091+9999MW1021
0057295570999991971031109004+55750+088150FM-12+018999999V0200901N00621220001CN0200001N9-00721-01391104391ADDAY101999GF100991001001999999001001MD1710091+9999MW1021
0081295570999991971031112004+55750+088150FM-12+018999999V0200901N00311220001CN0200001N9-01001-01391104421ADDAA199000091AY101999GF101991001001999999001011KA1999M-00611MD1510001+9999MW1021
0057295570999991971031115004+55750+088150FM-12+018999999V0201101N00311220001CN0200001N9-01501-01781104461ADDAY101999GF100991001001999999001001MD1810021+9999MW1021
0057295570999991971031118004+55750+088150FM-12+018999999V0201401N00311220001CN0200001N9-01611-01891104351ADDAY101999GF100991001001999999001001MD1710121+9999MW1021
0057295570999991971031121004+55750+088150FM-12+018999999V0201101N00211220001CN0200001N9-01891-02221104281ADDAY101999GF100991001001999999001001MD1710101+9999MW1021
0106295570999991971031200004+55750+088150FM-12+018999999V0201601N00211220001CN0200001N9-02111-02391104161ADDAA199000091AY101999GF100991001001999999001001HL10009IA1209IA2999-02789KA1999N-02111MD1710141+9999MW1021
0057295570999991971031203004+55750+088150FM-12+018999999V0201101N00211220001CN0200001N9-01611-02001104061ADDAY101999GF100991001001999999001001MD1710041+9999MW1021
0057295570999991971031206004+55750+088150FM-12+018999999V0200901N00721220001CN0200001N9-00781-01281103801ADDAY101999GF100991001001999999001001MD1710171+9999MW1021
0057295570999991971031209004+55750+088150FM-12+018999999V0200901N00821220001CN0200001N9-00611-01281103671ADDAY101999GF100991001001999999001001MD1710111+9999MW1021
0081295570999991971031212004+55750+088150FM-12+018999999V0200901N00311220001CN0500001N9-00781-01391103701ADDAA199000091AY101999GF100991001001999999001001KA1999M-00611MD1310011+9999MW1021
0057295570999991971031215004+55750+088150FM-12+018999999V0200901N00211220001CN0200001N9-01281-01721103671ADDAY101999GF100991001001999999001001MD1810091+9999MW1021
0043295570999991971031218004+55750+088150FM-12+018999999V0209991C00001220001CN0200001N9-01781-02001103571ADDAY101999GF100991001001999999001001MW1021
0057295570999991971031221004+55750+088150FM-12+018999999V0201601N00211220001CN0200001N9-01891-02221103491ADDAY101999GF100991001001999999001001MD1710091+9999MW1021
0106295570999991971031300004+55750+088150FM-12+018999999V0201401N00211220001CN0200001N9-02001-02221103471ADDAA199000091AY101999GF100991001001999999001001HL10009IA1209IA2999-02619KA1999N-02001MD1710041+9999MW1021
0057295570999991971031303004+55750+088150FM-12+018999999V0200701N00211220001CN0200001N9-01501-01891103451ADDAY101999GF100991001001999999001001MD1310041+9999MW1021
0057295570999991971031306004+55750+088150FM-12+018999999V0200901N00411220001CN0200001N9-00781-01391103261ADDAY101999GF100991001001999999001001MD1810111+9999MW1021
0057295570999991971031309004+55750+088150FM-12+018999999V0200701N00311220001CN0500001N9-00391-01221103141ADDAY101999GF100991001001999999001001MD1710081+9999MW1021
0081295570999991971031312004+55750+088150FM-12+018999999V0209991C00001220001CN0200001N9-00611-01281103351ADDAA199000091AY101999GF100991001001999999001001KA1999M-00391MD1710011+9999MW1021
0057295570999991971031318004+55750+088150FM-12+018999999V0201801N00211220001CN0200001N9-01891-02001103291ADDAY101999GF100991001001999999001001MD1810031+9999MW1021
0057295570999991971031321004+55750+088150FM-12+018999999V0201601N00101220001CN0200001N9-01891-02001103331ADDAY101999GF100991001001999999001001MD1310031+9999MW1021
0106295570999991971031400004+55750+088150FM-12+018999999V0201601N00101220001CN0200001N9-02281-02391103521ADDAA199000091AY101999GF100991001001999999001001HL10009IA1209IA2999-02729KA1999N-02281MD1210151+9999MW1021
0057295570999991971031403004+55750+088150FM-12+018999999V0200901N00101220001CN0200001N9-01721-02001103531ADDAY101999GF100991001001999999001001MD1210121+9999MW1021
0057295570999991971031406004+55750+088150FM-12+018999999V0200901N00721220001CN0200001N9-00781-01281103391ADDAY101999GF100991001001999999001001MD1810041+9999MW1021
0057295570999991971031409004+55750+088150FM-12+018999999V0200901N00511220001CN0200001N9-00281-01221103271ADDAY101999GF100991001001999999001001MD1710071+9999MW1021
0081295570999991971031412004+55750+088150FM-12+018999999V0200901N00311220001CN0200001N9-00611-01221103211ADDAA199000091AY101999GF100991001001999999001001KA1999M-00281MD1710091+9999MW1021
0057295570999991971031415004+55750+088150FM-12+018999999V0200901N00411220001CN0200001N9-01221-01611103131ADDAY101999GF100991001001999999001001MD1710141+9999MW1021
0057295570999991971031418004+55750+088150FM-12+018999999V0200901N00101220001CN0200001N9-01221-01721102951ADDAY101999GF100991001001999999001001MD1710201+9999MW1021
0057295570999991971031421004+55750+088150FM-12+018999999V0200901N00311220001CN0200001N9-01501-01781102711ADDAY101999GF100991001001999999001001MD1710251+9999MW1021
0106295570999991971031500004+55750+088150FM-12+018999999V0200701N00411220001CN0200001N9-01501-01781102371ADDAA199000091AY101999GF101991011001999999041001HL10009IA1209IA2999-02119KA1999N-01501MD1710331+9999MW1031
0057295570999991971031503004+55750+088150FM-12+018999999V0200701N00511220001CN0500001N9-01111-01501102171ADDAY111999GF106991001001999999001021MD1710151+9999MW1031
0057295570999991971031506004+55750+088150FM-12+018999999V0200901N00821220001CN0200001N9-00281-01221101831ADDAY111999GF107991001001999999001061MD1710231+9999MW1021
0057295570999991971031509004+55750+088150FM-12+018999999V0201101N00871220001CN0200001N9-00221-01221101821ADDAY121999GF108991001001999999001071MD1710041+9999MW1021
0092295570999991971031512004+55750+088150FM-12+018999999V0201101N00311024001CN0200001N9-00281-01111101911ADDAA106075091AA224999999AY171999GF108991081001999999021999KA1999M-00221MD1310081+9999MW1711
0073295570999991971031515004+55750+088150FM-12+018999999V0200901N00101010801CN0040001N9-00501-00611102051ADDAY171999GA1081+010809049GF108991081001012501021999MD1210111+9999MW1711
0073295570999991971031518004+55750+088150FM-12+018999999V0201401N00871007501CN0040001N9-00111-00611102191ADDAY171999GA1081+007509049GF108991081001008001021999MD1210181+9999MW1711
0057295570999991971031521004+55750+088150FM-12+018999999V0201801N00621024001CN0040001N9-00281-00501102491ADDAY171999GF108991081001999999021999MD1210191+9999MW1711
0133295570999991971031600004+55750+088150FM-12+018999999V0202301N00511008101CN0040001N9-00281-00721102641ADDAA106008091AA299002091AY171999GA1081+008109049GF108991081001008001021999HL10009IA1209IA2999-00509KA1999N-00501MD1210201+9999MW1711
0057295570999991971031603004+55750+088150FM-12+018999999V0202301N00511030001CN0200001N9-00281-00721102761ADDAY171999GF108991021051008001021999MD1210121+9999MW1711
0057295570999991971031606004+55750+088150FM-12+018999999V0202501N00821030001CN0200001N9-00111-00721102741ADDAY171999GF108991031051008001041011MD1410001+9999MW1711
0073295570999991971031609004+55750+088150FM-12+018999999V0202301N00721007201CN0200001N9+00001-00611102741ADDAY171999GA1081+007209059GF108991081051008001999999MD1310011+9999MW1361
0108295570999991971031612004+55750+088150FM-12+018999999V0202301N00411006001CN0200001N9-00111-00611102641ADDAA106075091AA224999999AY131999GA1081+006009059GF108991081051004501999999KA1999M+00111MD1810111+9999MW1021
0073295570999991971031615004+55750+088150FM-12+018999999V0202301N00311007201CN0200001N9-00221-00611102441ADDAY121999GA1081+007209059GF108991081051008001999999MD1710201+9999MW1021
0073295570999991971031618004+55750+088150FM-12+018999999V0209991C00001012601CN0200001N9-00501-00721102231ADDAY121999GA1081+012609049GF108991081001012501021999MD1710241+9999MW1021
0057295570999991971031621004+55750+088150FM-12+018999999V0200901N00211075001CN0200001N9-00611-00721101881ADDAY121999GF108991011031008001001071MD1710351+9999MW1011
0106295570999991971031700004+55750+088150FM-12+018999999V0201101N00311030001CN0200001N9-00611-00721101511ADDAA199000091AY121999GF108991021051008001021999HL10009IA1209IA2999-01009KA1999N-00611MD1710371+9999MW1021
0057295570999991971031703004+55750+088150FM-12+018999999V0200701N00311024001CN0500001N9-00281-00721101151ADDAY121999GF108991061001999999041071MD1710361+9999MW1021
0057295570999991971031706004+55750+088150FM-12+018999999V0200701N00211220001CN0500001N9+00611-00221100681ADDAY121999GF107991001001999999001011MD1710321+9999MW1021
0057295570999991971031709004+55750+088150FM-12+018999999V0202001N00821220001CN0500001N9+99999+99999100481ADDAY121999GF108991001001999999001011MD1710161+9999MW1021
0081295570999991971031712004+55750+088150FM-12+018999999V0202301N00621075001CN0500001N9+00721-00281100461ADDAA199000091AY121999GF108991041001999999041071KA1999M+01221MD1710051+9999MW1021
0073295570999991971031715004+55750+088150FM-12+018999999V0202001N00101014101CN0200001N9+00611-00221100531ADDAY111999GA1081+014109059GF108991081051012501999999MD1310061+9999MW1031
