0106295510999991971010100004+56200+087750FM-12+013499999V0200701N00101220001CN0100001N9-02721-02891103881ADDAA199000091AY101999GF100991001001999999001001HL10009IA1209IA2999-03229KA1999N-02891MD1710031+9999MW1021
0057295510999991971010103004+56200+087750FM-12+013499999V0200501N00101220001CN0100001N9-02721-03001103921ADDAY101999GF100991001001999999001001MD1210041+9999MW1021
0057295510999991971010106004+56200+087750FM-12+013499999V0200501N00211220001CN0100001N9-02391-02721103901ADDAY101999GF100991001001999999001001MD1410001+9999MW1021
0057295510999991971010109004+56200+087750FM-12+013499999V0200501N00311220001CN0200001N9-02001-02281103871ADDAY101999GF100991001001999999001001MD1410001+9999MW1021
0081295510999991971010112004+56200+087750FM-12+013499999V0200501N00211220001CN0100001N9-02221-02391103871ADDAA199000091AY101999GF100991001001999999001001KA1999M-02001MD1810011+9999MW1021
0057295510999991971010115004+56200+087750FM-12+013499999V0209991C00001220001CN0100001N9-02221-02611103891ADDAY101999GF100991001001999999001001MD1210021+9999MW1021
0057295510999991971010118004+56200+087750FM-12+013499999V0209991C00001220001CN0100001N9-02391-02781103941ADDAY101999GF100991001001999999001001MD1210061+9999MW1021
0043295510999991971010121004+56200+087750FM-12+013499999V0209991C00001220001CN0100001N9-02391-02611103691ADDAY101999GF100991001001999999001001MW1021
0106295510999991971010200004+56200+087750FM-12+013499999V0201101N00411220001CN0100001N9-02221-02391103591ADDAA199000091AY101999GF100991001001999999001001HL10009IA1209IA2999-03009KA1999N-02611MD1810081+9999MW1021
0043295510999991971010206004+56200+087750FM-12+013499999V0201401N00411220001CN0200001N9-01221-01891103161ADDAY111999GF106991001001999999001011MW1031
0057295510999991971010209004+56200+087750FM-12+013499999V0202301N00981220001CN0200001N9-00721-01391102891ADDAY121999GF108991021001999999031011MD1710241+9999MW1021
0081295510999991971010212004+56200+087750FM-12+013499999V0202301N01591024001CN0100001N9-00721-01221102651ADDAA199000091AY131999GF108991081001999999021061KA1999M-00721MD1710241+9999MW1361
0057295510999991971010215004+56200+087750FM-12+013499999V0202301N01591024001CN0100001N9-00611-01111102511ADDAY131999GF108991081001999999021999MD1810121+9999MW1361
0057295510999991971010218004+56200+087750FM-12+013499999V0202301N01181024001CN0100001N9-00721-01891102351ADDAY131999GF108991081001999999021999MD1710161+9999MW1361
0057295510999991971010221004+56200+087750FM-12+013499999V0202301N01591024001CN0040001N9-00501-00891101971ADDAY171999GF108991081001999999021999MD1710351+9999MW1711
0117295510999991971010300004+56200+087750FM-12+013499999V0202301N01591024001CN0040001N9-00281-00721101761ADDAA106001091AA299000391AY171999GF108991081001999999021999HL10009IA1209IA2999-01009KA1999N-00781MD1710211+9999MW1711
0057295510999991971010303004+56200+087750FM-12+013499999V0202301N02011024001CN0020001N9-00281-00611101661ADDAY171999GF108991081001999999021999MD1710071+9999MW1711
0057295510999991971010306004+56200+087750FM-12+013499999V0202001N02011024001CN0020001N9-00281-00721101431ADDAY171999GF108991051001999999031011MD1710221+9999MW1391
0057295510999991971010309004+56200+087750FM-12+013499999V0202001N02011030001CN0010001N9-00221-00721101181ADDAY131999GF107991021051012501031011MD1710241+9999MW1391
0092295510999991971010312004+56200+087750FM-12+013499999V0202301N01801220001CN0020001N9-00221-00501100971ADDAA106002091AA299000591AY171999GF108991021001999999031011KA1999M-00221MD1710201+9999MW1711
0057295510999991971010318004+56200+087750FM-12+013499999V0202301N02011024001CN0020001N9-00221-00611100571ADDAY171999GF108991081001999999999999MD1710221+9999MW1711
0057295510999991971010409004+56200+087750FM-12+013499999V0202301N01591007801CN0040001N9-00891-01391101271ADDAY171999GF107991061021008001001021MD1210191+9999MW1711
0092295510999991971010412004+56200+087750FM-12+013499999V0202301N01181220001CN0100001N9-00891-01391101411ADDAA106004091AA299001091AY171999GF103991001001999999001011KA1999M-00281MD1210131+9999MW1781
0057295510999991971010415004+56200+087750FM-12+013499999V0202301N00981024001CN0040001N9-01111-01501101691ADDAY171999GF108991081001999999021999MD1210271+9999MW1711
0057295510999991971010418004+56200+087750FM-12+013499999V0202301N00981024001CN0040001N9-01221-01501101981ADDAY171999GF108991081001999999021999MD1210271+9999MW1711
0057295510999991971010421004+56200+087750FM-12+013499999V0202301N01181024001CN0040001N9-01501-01611102411ADDAY171999GF108991081001999999021999MD1210421+9999MW1711
0057295510999991971010503004+56200+087750FM-12+013499999V0202001N00621220001CN0200001N9-01721-02001103341ADDAY101999GF102991001001999999999999MD1210431+9999MW1031
0057295510999991971010506004+56200+087750FM-12+013499999V0202001N01391220001CN0200001N9-01501-01891103481ADDAY121999GF108991001001999999001071MD1110161+9999MW1021
0057295510999991971010509004+56200+087750FM-12+013499999V0202001N01391220001CN0200001N9-01391-01891103561ADDAY131999GF108991001001999999001051MD1210091+9999MW1381
0081295510999991971010512004+56200+087750FM-12+013499999V0202301N00981220001CN0100001N9-01501-02111103711ADDAA199000091AY131999GF106991001001999999001051KA1999M-00891MD1210131+9999MW1381
0057295510999991971010515004+56200+087750FM-12+013499999V0202001N01391220001CN0100001N9-01501-02111103741ADDAY131999GF108991001001999999001051MD1810031+9999MW1381
0057295510999991971010518004+56200+087750FM-12+013499999V0202001N00981220001CN0100001N9-01501-02111103501ADDAY131999GF108991001001999999001071MD1710231+9999MW1381
0057295510999991971010521004+56200+087750FM-12+013499999V0202001N01591220001CN0100001N9-01281-02111103081ADDAY131999GF108991001001999999001071MD1710391+9999MW1381
0106295510999991971010600004+56200+087750FM-12+013499999V0202001N01591220001CN0100001N9-01111-01721102421ADDAA199000091AY131999GF108991001001999999001071HL10009IA1209IA2999-01899KA1999N-01611MD1710641+9999MW1381
0057295510999991971010603004+56200+087750FM-12+013499999V0201801N01591024001CN0040001N9-00781-01721101931ADDAY131999GF108991051001999999051071MD1710461+9999MW1381
0057295510999991971010606004+56200+087750FM-12+013499999V0201801N01591024001CN0040001N9-00611-01721101671ADDAY131999GF108991081001999999021999MD1610251+9999MW1381
0057295510999991971010609004+56200+087750FM-12+013499999V0202001N01391024001CN0040001N9-00781-01221101681ADDAY131999GF108991081001999999021999MD1410001+9999MW1711
0092295510999991971010612004+56200+087750FM-12+013499999V0202001N01181024001CN0040001N9-00781-01391101841ADDAA106075091AA224999999AY171999GF108991081001999999021999KA1999M-00611MD1010161+9999MW1711
0057295510999991971010615004+56200+087750FM-12+013499999V0202301N01181024001CN0040001N9-00891-01281101961ADDAY171999GF108991081001999999021999MD1110111+9999MW1711
0057295510999991971010618004+56200+087750FM-12+013499999V0202301N00621024001CN0040001N9-00891-01281102061ADDAY171999GF108991081001999999021999MD1210101+9999MW1711
0057295510999991971010621004+56200+087750FM-12+013499999V0202301N00721024001CN0040001N9-00891-01221102191ADDAY171999GF108991081001999999021999MD1210121+9999MW1711
0117295510999991971010700004+56200+087750FM-12+013499999V0202001N00621220001CN0100001N9-01001-01281102191ADDAA106075091AA224999999AY171999GF108991001001999999001011HL10009IA1209IA2999-01119KA1999N-01001MD1410001+9999MW1781
0057295510999991971010703004+56200+087750FM-12+013499999V0202001N00721024001CN0100001N9-00891-01221102271ADDAY171999GF108991081001999999021999MD1210081+9999MW1711
0057295510999991971010706004+56200+087750FM-12+013499999V0201801N00621024001CN0100001N9-00891-01281102031ADDAY171999GF108991081001999999021999MD1710221+9999MW1781
0057295510999991971010709004+56200+087750FM-12+013499999V0201801N00621024001CN0100001N9-00781-01221101721ADDAY171999GF108991081001999999021999MD1710311+9999MW1021
0092295510999991971010712004+56200+087750FM-12+013499999V0202001N00871024001CN0040001N9-00611-01001101301ADDAA106001091AA299000391AY171999GF108991081001999999021999KA1999M-00611MD1710401+9999MW1711
0057295510999991971010718004+56200+087750FM-12+013499999V0202001N01181024001CN0040001N9-00611-00721100361ADDAY171999GF108991081001999999021999MD1710431+9999MW1711
0057295510999991971010721004+56200+087750FM-12+013499999V0202001N015919999999N0040001N9-00611-00721100221ADDAY171999GF108991081001999999021999MD1710391+9999MW1731
0117295510999991971010800004+56200+087750FM-12+013499999V0202001N01181024001CN0040001N9-01001-01281100591ADDAA106002091AA299000591AY171999GF108991081001999999021999HL10009IA1209IA2999-01009KA1999N-01001MD1310201+9999MW1711
0057295510999991971010803004+56200+087750FM-12+013499999V0202501N01181024001CN0040001N9-01221-01611101011ADDAY171999GF108991081001999999071999MD1210401+9999MW1711
0057295510999991971010806004+56200+087750FM-12+013499999V0202501N01591007801CN0040001N9-01221-01611101291ADDAY171999GF107991061021008001001031MD1210291+9999MW1711
0057295510999991971010809004+56200+087750FM-12+013499999V0202301N00981007801CN0040001N9-01391-01781101661ADDAY171999GF107991061021008001001031MD1210311+9999MW1221
0092295510999991971010812004+56200+087750FM-12+013499999V0202301N00981220001CN0100001N9-01721-02111101821ADDAA106004091AA299001091AY131999GF100991001001999999001001KA1999M-00781MD1210161+9999MW1361
0057295510999991971010815004+56200+087750FM-12+013499999V0202301N00511220001CN0100001N9-01781-02111101841ADDAY131999GF108991001001999999001011MD1210011+9999MW1021
0057295510999991971010818004+56200+087750FM-12+013499999V0202301N00511220001CN0100001N9-01891-02221101791ADDAY131999GF108991001001999999001071MD1710121+9999MW1031
0082295510999991971010821004+56200+087750FM-12+013499999V0202301N00311220001CN0100001N9-01781-02001101641ADDAY121999GF108991001001999999001031HL10009IA1209IA2999-01009MD1210021+9999MW1171
0117295510999991971010900004+56200+087750FM-12+013499999V0202301N00621220001CN0100001N9-01891-02281101651ADDAA106075091AA224999999AY171999GF108991001001999999001071HL10009IA1209IA2999-02509KA1999N-02001MD1410001+9999MW1711
0057295510999991971010903004+56200+087750FM-12+013499999V0202301N00721220001CN0200001N9-02001-02501102021ADDAY171999GF100991001001999999001001MD1210341+9999MW1221
0057295510999991971010906004+56200+087750FM-12+013499999V0202301N00821220001CN0100001N9-02111-02501102221ADDAY171999GF108991001001999999001021MD1210221+9999MW1711
0057295510999991971010909004+56200+087750FM-12+013499999V0202301N00511220001CN0200001N9-02001-02501102251ADDAY171999GF108991001001999999001021MD1210041+9999MW1021
0070295510999991971010912004+56200+087750FM-12+013499999V0202301N00511220001CN0100001N9-02221-02501102261ADDAY121999GF107991001001999999001081KA1999M-01611MD1510001+9999MW1021
0057295510999991971010915004+56200+087750FM-12+013499999V0202301N00511220001CN0100001N9-02221-02891102301ADDAY121999GF107991001001999999001071MD1810041+9999MW1021
0057295510999991971010918004+56200+087750FM-12+013499999V0202301N00411220001CN0100001N9-02281-02611102161ADDAY121999GF107991001001999999001081MD1710141+9999MW1021
0057295510999991971010921004+56200+087750FM-12+013499999V0202301N00311024001CN0100001N9-02221-02391102201ADDAY121999GF108991081001999999011999MD1210041+9999MW1021
0117295510999991971011000004+56200+087750FM-12+013499999V0202301N00511024001CN0040001N9-02001-02281102021ADDAA106001091AA299000391AY171999GF108991081001999999011999HL10009IA1319IA2999-02619KA1999N-02281MD1710161+9999MW1711
0057295510999991971011003004+56200+087750FM-12+013499999V0201101N00311024001CN0020001N9-01891-02221101831ADDAY171999GF108991081001999999011999MD1710181+9999MW1711
0057295510999991971011006004+56200+087750FM-12+013499999V0202001N00511024001CN0020001N9-01391-01721101611ADDAY171999GF108991081001999999011999MD1710181+9999MW1711
0057295510999991971011009004+56200+087750FM-12+013499999V0202001N00621024001CN0020001N9-01281-01611101401ADDAY171999GF108991081001999999011999MD1710201+9999MW1711
0057295510999991971011012004+56200+087750FM-12+013499999V0202001N00511024001CN0040001N9-01281-01721101231ADDAY171999GF108991081001999999011999MD1710171+9999MW1711
0057295510999991971011015004+56200+087750FM-12+013499999V0202301N00511024001CN0040001N9-01221-01501101051ADDAY171999GF108991081001999999011999MD1710061+9999MW1711
0057295510999991971011018004+56200+087750FM-12+013499999V0202301N00721024001CN0040001N9-01221-01501100981ADDAY171999GF108991081001999999011999MD1510071+9999MW1711
0057295510999991971011021004+56200+087750FM-12+013499999V0202301N00821024001CN0040001N9-01391-01721101031ADDAY171999GF108991081001999999011999MD1510041+9999MW1711
0117295510999991971011100004+56200+087750FM-12+013499999V0202701N00821220001CN0100001N9-01891-02221101411ADDAA106001091AA299000391AY171999GF108991001001999999001071HL10009IA1319IA2999-02119KA1999N-02001MD1210321+9999MW1021
0057295510999991971011103004+56200+087750FM-12+013499999V0202501N00721220001CN0200001N9-02221-02501101911ADDAY121999GF108991001001999999001071MD1210481+9999MW1031
0057295510999991971011106004+56200+087750FM-12+013499999V0202501N00871220001CN0200001N9-02221-02501102131ADDAY131999GF100991001001999999001001MD1210221+9999MW1361
0057295510999991971011109004+56200+087750FM-12+013499999V0202001N00721220001CN0200001N9-02111-02611102331ADDAY131999GF100991001001999999001001MD1110201+9999MW1361
0081295510999991971011112004+56200+087750FM-12+013499999V0202001N01181220001CN0100001N9-02001-02391102171ADDAA199000091AY131999GF108991001001999999001071KA1999M-01891MD1810161+9999MW1361
0076295510999991971011118004+56200+087750FM-12+013499999V0201801N01391220001CN0040001N9-01721-02111101001ADDAY131999GF108991001001999999001071MD1810722+9999MW1381EQDQ01+000722APC3  
0057295510999991971011121004+56200+087750FM-12+013499999V0201801N01801024001CN0010001N9-01221-01391099982ADDAY131999GF108991081001999999021999MD1710971+9999MW1711
0084295510999991971011200004+56200+087750FM-12+013499999V0202001N02011024001CN0010001N9-01001-01391099981ADDAY171999GA1999+063009059GF108991081001999999021999HL10009IA1209IA2999-02399MW1731
0043295510999991971011221004+56200+087750FM-12+013499999V0202001N015919999999N0020001N9-00611-01501099981ADDAY171999GF199999999001999999021999MW1731
0057295510999991971011306004+56200+087750FM-12+013499999V0202001N01591030001CN0040001N9-00501-00781098621ADDAY171999GF107991031021008001041001MD1110061+9999MW1711
0057295510999991971011309004+56200+087750FM-12+013499999V0202001N01591030001CN0040001N9-00281-00781098571ADDAY171999GF108991021071008001021999MD1710051+9999MW1711
0092295510999991971011312004+56200+087750FM-12+013499999V0202001N00621007801CN0100001N9-00391-00721098581ADDAA106075091AA224999999AY171999GF108991051071008001021999KA1999M-00281MD1810011+9999MW1781
0057295510999991971011315004+56200+087750FM-12+013499999V0202001N00981030001CN0040001N9-00281-00721098571ADDAY171999GF108991021071008001021999MD1710011+9999MW1711
0057295510999991971011318004+56200+087750FM-12+013499999V0202001N00981024001CN0040001N9-00611-01001099041ADDAY171999GF108991081001999999021999MD1210421+9999MW1711
0057295510999991971011321004+56200+087750FM-12+013499999V0202001N00981024001CN0040001N9-00611-01001099041ADDAY171999GF108991081001999999021999MD1210421+9999MW1711
0117295510999991971011400004+56200+087750FM-12+013499999V0202701N00621024001CN0100001N9-00781-01281099321ADDAA106001091AA299000391AY171999GF108991081001999999021999HL10009IA1209IA2999-01009KA1999N-00891MD1210271+9999MW1711
0057295510999991971011403004+56200+087750FM-12+013499999V0203201N00311024001CN0020001N9-01391-01721099001ADDAY171999GF108991081001999999021999MD1710351+9999MW1711
0108295510999991971011409004+56200+087750FM-12+013499999V0202001N01591001501CN9999999N9-00221-00501999999ADDAY171999GA1051+001509099GF108991999031001501051999MD1710502+9999MW1851EQDQ01+000082SCOTLCQ02+000502APC3  
0092295510999991971011412004+56200+087750FM-12+013499999V0202001N020119999999N0000001N9-00781-01001098241ADDAA106004091AA299001091AY181999GF108991999999999999999999KA1999M-00221MD1310321+9999MW1391
0092295510999991971011418004+56200+087750FM-12+013499999V0202301N02011220001CN0010001N9-02611-02891101042ADDAY171999GF100991001001999999001001MD1210702+9999MW1391EQDQ01+101043APOSLPQ02+000702APC3  
0057295510999991971011421004+56200+087750FM-12+013499999V0202301N01181220001CN0040001N9-02891-03391101551ADDAY131999GF100991001001999999001001MD1210471+9999MW1381
0117295510999991971011500004+56200+087750FM-12+013499999V0202301N00621220001CN0100001N9-03001-03391101821ADDAA106002091AA299000591AY131999GF100991001001999999001001HL10009IA1209IA2999-03229KA1999N-03111MD1210251+9999MW1361
0057295510999991971011503004+56200+087750FM-12+013499999V0201801N00621220001CN0100001N9-03001-03391102011ADDAY101999GF100991001001999999001001MD1210191+9999MW1021
0057295510999991971011506004+56200+087750FM-12+013499999V0202301N01181220001CN0040001N9-02781-03281102081ADDAY131999GF101991001001999999001011MD1310091+9999MW1381
0057295510999991971011509004+56200+087750FM-12+013499999V0201901N01181220001CN0040001N9+99999+99999102171ADDAY131999GF108991001001999999001041MD1210111+9999MW1381
0081295510999991971011512004+56200+087750FM-12+013499999V0202001N01181220001CN0040001N9-02611-03221102291ADDAA199000091AY131999GF100991001001999999001001KA1999M-02611MD1210111+9999MW1381
0057295510999991971011518004+56200+087750FM-12+013499999V0202001N01591024001CN0040001N9-02221-02611102131ADDAY131999GF108991081001999999011999MD1210031+9999MW1381
0076295510999991971011521004+56200+087750FM-12+013499999V0202001N01591024001CN0040001N9-02001-02391102321ADDAY131999GF199999081011999999011999MD1210091+9999MW1781EQDQ01+000992SCOLCB
0117295510999991971011600004+56200+087750FM-12+013499999V0202001N01391220001CN0040001N9-01891-02281102031ADDAA106075091AA224999999AY171999GF108991001001999999001071HL10009IA1209IA2999-02789KA1999N-02611MD1710041+9999MW1781
0057295510999991971011606004+56200+087750FM-12+013499999V0202001N01391024001CN0020001N9-01611-02111101651ADDAY171999GF108991081001999999011999MD1710241+9999MW1711
0057295510999991971011609004+56200+087750FM-12+013499999V0202001N01591024001CN0010001N9-01391-01721101461ADDAY171999GF108991081001999999011999MD1710171+9999MW1711
0092295510999991971011612004+56200+087750FM-12+013499999V0202001N01591024001CN0010001N9-01281-02221101361ADDAA106002091AA299000591AY171999GF108991081001999999021999KA1999M-01281MD1710141+9999MW1711
0057295510999991971011615004+56200+087750FM-12+013499999V0202001N01591024001CN0010001N9-01221-01611101111ADDAY171999GF108991081001999999021999MD1710201+9999MW1711
0057295510999991971011618004+56200+087750FM-12+013499999V0202001N01391024001CN0020001N9-01111-01501100951ADDAY171999GF108991081001999999021999MD1710141+9999MW1711
0057295510999991971011621004+56200+087750FM-12+013499999V0201801N00981024001CN0010001N9-01111-01391100741ADDAY171999GF108991081001999999021999MD1510211+9999MW1711
0076295510999991971011706004+56200+087750FM-12+013499999V0202701N01591220001CN0040001N9-02391-03111102971ADDAY131999GF106991001001999999001021MD1210742+9999MW1381EQDQ01+000742APC3  
0057295510999991971011709004+56200+087750FM-12+013499999V0202501N01181220001CN0020001N9-02611-03281103361ADDAY131999GF108991001001999999001021MD1210381+9999MW1381
0081295510999991971011712004+56200+087750FM-12+013499999V0202301N01181220001CN0040001N9-02501-03281103541ADDAA199000091AY131999GF108991001001999999001021KA1999M-02001MD1210171+9999MW1381
0057295510999991971011715004+56200+087750FM-12+013499999V0202301N00721220001CN0100001N9-02501-03221103661ADDAY131999GF108991001001999999001021MD1210121+9999MW1021
0057295510999991971011718004+56200+087750FM-12+013499999V0202001N00311220001CN0100001N9-02891-03281103771ADDAY111999GF100991001001999999001001MD1210111+9999MW1011
0057295510999991971011721004+56200+087750FM-12+013499999V0202701N00101220001CN0100001N9-03001-03391104101ADDAY111999GF100991001001999999001001MD1210281+9999MW1021
0106295510999991971011800004+56200+087750FM-12+013499999V0209991C00001220001CN0100001N9-03391-03781104161ADDAA199000091AY101999GF100991001001999999001001HL10009IA1209IA2999-03619KA1999N-03501MD1210031+9999MW1021
0057295510999991971011803004+56200+087750FM-12+013499999V0209991C00001220001CN0020001N9-03611-03891104371ADDAY101999GF100991001001999999001001MD1210181+9999MW1041
0076295510999991971011809004+56200+087750FM-12+013499999V0209991C00001220001CN0200001N9-02391-02891104121ADDAY101999GF100991001001999999001001MD1710702+9999MW1021EQDQ01+000702APC3  
0081295510999991971011812004+56200+087750FM-12+013499999V0201101N00511220001CN0100001N9-02221-02501103871ADDAA199000091AY111999GF102991001001999999001011KA1999M-02221MD1710251+9999MW1021
0057295510999991971011815004+56200+087750FM-12+013499999V0201101N00621024001CN0040001N9-01781-02111103481ADDAY171999GF108991081001999999021999MD1710361+9999MW1711
0057295510999991971011818004+56200+087750FM-12+013499999V0201401N00621024001CN0100001N9-01111-01501103031ADDAY171999GF108991081001999999021999MD1710381+9999MW1781
0120295510999991971011900004+56200+087750FM-12+013499999V0201101N01391024001CN0100001N9-00501-01281102521ADDAA106999999AA299240091AY121999GF108991081001999999999999IA1209MD1710572+9999MW1021EQDQ01+000572APC3  Q02  94502PRCP06
0073295510999991971011903004+56200+087750FM-12+013499999V0202301N01181003901CN0100001N9-00501-01221102521ADDAY121999GA1081+003909059GF108991081051004501999999MD1710011+9999MW1021
0073295510999991971011906004+56200+087750FM-12+013499999V0202001N01181005401CN0200001N9-00611-01111102551ADDAY121999GA1071+005409059GF107991071051004501001001MD1210041+9999MW1031
0057295510999991971011909004+56200+087750FM-12+013499999V0202001N01181024001CN0200001N9-00611-01221102531ADDAY121999GF107991071001999999031001MD1510031+9999MW1021
0081295510999991971011912004+56200+087750FM-12+013499999V0202001N01181024001CN0100001N9-00501-01111102591ADDAA199000091AY121999GF108991081001999999021999KA1999M-00221MD1210061+9999MW1021
0057295510999991971011918004+56200+087750FM-12+013499999V0202001N00981024001CN0040001N9-00611-00781102581ADDAY171999GF108991081001999999021999MD1210011+9999MW1711
0057295510999991971011921004+56200+087750FM-12+013499999V0202001N00721024001CN0040001N9-00501-00781102521ADDAY171999GF108991081001999999021999MD1710041+9999MW1711
0117295510999991971012000004+56200+087750FM-12+013499999V0202001N00721024001CN0040001N9-00611-00891102511ADDAA106001091AA299000391AY171999GF108991081001999999021999HL10009IA1209IA2999-00789KA1999N-00721MD1710021+9999MW1711
0057295510999991971012003004+56200+087750FM-12+013499999V0202001N00721220001CN0100001N9-00611-00891102571ADDAY171999GF108991001001999999021999MD1310061+9999MW1711
0057295510999991971012009004+56200+087750FM-12+013499999V0201401N00101024001CN0100001N9-00501-00781102511ADDAY171999GF108991081001999999011999MD1510051+9999MW1711
0092295510999991971012012004+56200+087750FM-12+013499999V0201401N00411220001CN0040001N9-00611-00721102351ADDAA106004091AA299001091AY171999GF108991001001999999001071KA1999M-00501MD1710161+9999MW1711
0057295510999991971012015004+56200+087750FM-12+013499999V0201801N00101220001CN0040001N9-00501-01892102421ADDAY121999GF108991001001999999021091MD1510081+9999MW1021
0057295510999991971012018004+56200+087750FM-12+013499999V0201601N00411220001CN0040001N9-00611-01221102401ADDAY121999GF108991001001999999001071MD1710101+9999MW1021
0092295510999991971012021004+56200+087750FM-12+013499999V0202001N00621220001CN0040001N9-00781-01001102111ADDAY121999GF108991001001999999001071MD1710291+9999MW1021EQDQ01+000042APCTENQ02+000512APC3  
0070295510999991971012100004+56200+087750FM-12+013499999V0201801N00621220001CN0040001N9-00891-01001102261ADDAY121999GF108991001001999999001071KA1999N-00891MD1210041+9999MW1021
0057295510999991971012103004+56200+087750FM-12+013499999V0202001N00621024001CN0040001N9-00781-01221102181ADDAY171999GF108991081001999999021999MD1210111+9999MW1711
0057295510999991971012106004+56200+087750FM-12+013499999V0202001N00721007801CN0040001N9-00721-01111102141ADDAY171999GF107991061051008001031001MD1710041+9999MW1711
0073295510999991971012109004+56200+087750FM-12+013499999V0202001N00621005401CN0200001N9-00721-01111101851ADDAY121999GA1061+005409059GF107991061051004501031001MD1210041+9999MW1031
0092295510999991971012112004+56200+087750FM-12+013499999V0202001N00621024001CN0100001N9-00781-01221102181ADDAA106004091AA299001091AY121999GF106991061001999999031001KA1999M-00501MD1410001+9999MW1011
0073295510999991971012118004+56200+087750FM-12+013499999V0202301N00871004801CN0020001N9-00781-01221102401ADDAY171999GA1081+004809049GF108991081001008001021999MD1310181+9999MW1731
0117295510999991971012200004+56200+087750FM-12+013499999V0202301N00511024001CN0100001N9-01001-01281102911ADDAA106004091AA299001091AY171999GF108991081001999999071999HL10009IA1319IA2999-01119KA1999N-01001MD1310331+9999MW1781
0073295510999991971012203004+56200+087750FM-12+013499999V0202301N00511006001CN0100001N9-01001-01391103121ADDAY171999GA1081+006009059GF108991081051008001999999MD1210201+9999MW1711
0057295510999991971012206004+56200+087750FM-12+013499999V0202001N00411024001CN0200001N9-01001-01391103151ADDAY171999GF108991051001999999031011MD1210031+9999MW1021
0057295510999991971012209004+56200+087750FM-12+013499999V0202301N00411024001CN0200001N9-01001-01501103121ADDAY121999GF108991061001999999031011MD1610031+9999MW1021
0092295510999991971012212004+56200+087750FM-12+013499999V0202301N00621024001CN0100001N9-01001-01391103071ADDAA106075091AA224999999AY121999GF108991081001999999031999KA1999M-00721MD1710041+9999MW1021
0057295510999991971012215004+56200+087750FM-12+013499999V0202301N00721024001CN0100001N9-00781-01281102951ADDAY121999GF108991081001999999021999MD1710111+9999MW1021
0057295510999991971012218004+56200+087750FM-12+013499999V0202301N00721024001CN0040001N9-00721-01111102891ADDAY171999GF108991081001999999021999MD1710061+9999MW1711
0057295510999991971012221004+56200+087750FM-12+013499999V0202301N00721024001CN0040001N9-00721-01111102791ADDAY171999GF108991081001999999021999MD1710101+9999MW1711
0117295510999991971012300004+56200+087750FM-12+013499999V0202301N00721024001CN0040001N9-00721-01001102731ADDAA106001091AA299000391AY171999GF108991081001999999021999HL10009IA1319IA2999-01119KA1999N-01001MD1610051+9999MW1711
0057295510999991971012303004+56200+087750FM-12+013499999V0202301N00721024001CN0040001N9-00721-01001102831ADDAY171999GF107991071001999999031001MD1210091+9999MW1711
0057295510999991971012306004+56200+087750FM-12+013499999V0202301N00621024001CN0040001N9-00721-01001102861ADDAY171999GF108991061001999999031011MD1210041+9999MW1711
0057295510999991971012309004+56200+087750FM-12+013499999V0202301N00621024001CN0020001N9-00721-01001103051ADDAY171999GF108991081001999999021999MD1210181+9999MW1711
0092295510999991971012312004+56200+087750FM-12+013499999V0202301N00621024001CN0040001N9-00781-01001103241ADDAA106001091AA299000391AY171999GF108991081001999999021999KA1999M-00611MD1210181+9999MW1711
0057295510999991971012315004+56200+087750FM-12+013499999V0202301N00621024001CN0040001N9-00781-01001103391ADDAY171999GF108991081001999999021999MD1210151+9999MW1711
0057295510999991971012318004+56200+087750FM-12+013499999V0202001N00511024001CN0040001N9-00781-01111103481ADDAY171999GF108991081001999999021999MD1210091+9999MW1711
0057295510999991971012321004+56200+087750FM-12+013499999V0202001N00411024001CN0040001N9-00891-01221103541ADDAY171999GF108991081001999999021999MD1110051+9999MW1711
0092295510999991971012400004+56200+087750FM-12+013499999V0202001N00511024001CN0040001N9-00891-01281103581ADDAA106002091AA299000591AY171999GF108991081001999999021999KA1999N-01001MD1310041+9999MW1711
0057295510999991971012403004+56200+087750FM-12+013499999V0202001N00511024001CN0040001N9-00891-01281103671ADDAY171999GF108991081001999999021999MD1210091+9999MW1711
0057295510999991971012406004+56200+087750FM-12+013499999V0202001N00511024001CN0200001N9-00781-01281103611ADDAY171999GF108991081001999999021999MD1710051+9999MW1781
0057295510999991971012409004+56200+087750FM-12+013499999V0201801N00511024001CN0200001N9-00781-01281103611ADDAY171999GF108991081001999999021999MD1410001+9999MW1031
0092295510999991971012412004+56200+087750FM-12+013499999V0202001N00621024001CN0100001N9-00891-01281103601ADDAA106075091AA224999999AY171999GF108991081001999999021999KA1999M-00781MD1710011+9999MW1781
0057295510999991971012418004+56200+087750FM-12+013499999V0202001N00621024001CN0100001N9-01111-01501103501ADDAY171999GF107991071001999999031001MD1610061+9999MW1021
0057295510999991971012421004+56200+087750FM-12+013499999V0202001N00871024001CN0100001N9-01221-01611103221ADDAY131999GF107991071001999999031001MD1710141+9999MW1361
0117295510999991971012500004+56200+087750FM-12+013499999V0202001N00721024001CN0100001N9-01001-01281103241ADDAA106075091AA224999999AY131999GF107991071001999999031001HL10009IA1209IA2999-01399KA1999N-01221MD1710121+9999MW1361
0057295510999991971012503004+56200+087750FM-12+013499999V0202301N00621024001CN0040001N9-00891-01281103291ADDAY171999GF108991081001999999021999MD1210051+9999MW1711
0073295510999991971012506004+56200+087750FM-12+013499999V0202301N00721004801CN0020001N9-00891-01281103311ADDAY171999GA1081+004809049GF108991081001004501021999MD1210021+9999MW1731
0057295510999991971012509004+56200+087750FM-12+013499999V0202301N01181004501CN0020001N9-00891-01221103361ADDAY171999GF108991081001004501021999MD1310061+9999MW1731
0108295510999991971012512004+56200+087750FM-12+013499999V0202501N01181004201CN0040001N9-01001-01391103461ADDAA106002091AA299000591AY171999GA1081+004209049GF108991081001004501021999KA1999M-00891MD1210071+9999MW1711
0057295510999991971012515004+56200+087750FM-12+013499999V0202001N00871004501CN0040001N9-01001-01391103671ADDAY171999GF108991081001004501021999MD1210021+9999MW1711
0073295510999991971012518004+56200+087750FM-12+013499999V0202001N00511004201CN0040001N9-01001-01391103491ADDAY171999GA1081+004209049GF108991081001004501021999MD1510041+9999MW1711
0073295510999991971012521004+56200+087750FM-12+013499999V0202001N00511004201CN0040001N9-01221-01611103501ADDAY171999GA1081+004209049GF108991081001004501999021MD1210011+9999MW1711
0133295510999991971012600004+56200+087750FM-12+013499999V0201801N00511004201CN0040001N9-01391-01391103531ADDAA106002091AA299000591AY171999GA1081+004209059GF108991081051004501999999HL10009IA1319IA2999-01399KA1999N-01391MD1410001+9999MW1021
0092295510999991971012603004+56200+087750FM-12+013499999V0201801N00511006901CN0200001N9-01221-01501103461ADDAY121999GA1081+006909059GF199999071051008001001001MD1710061+9999MW1221EQDQ01+000072SCOTCV
0057295510999991971012606004+56200+087750FM-12+013499999V0202001N006219999999N0200001N9-00891-01281103351ADDAY171999GF108991999091999999001061MD1710091+9999MW1021
0057295510999991971012609004+56200+087750FM-12+013499999V0202001N00621075001CN0200001N9-00781-01221103231ADDAY131999GF108991021001999999031071MD1710111+9999MW1361
0092295510999991971012612004+56200+087750FM-12+013499999V0201801N00621075001CN0100001N9-00891-01281103211ADDAA106075091AA224999999AY131999GF108991041001999999031071KA1999M-00781MD1710031+9999MW1361
0057295510999991971012615004+56200+087750FM-12+013499999V0201801N00621024001CN0100001N9-00891-01221103151ADDAY131999GF107991071001999999031001MD1710051+9999MW1361
0057295510999991971012618004+56200+087750FM-12+013499999V0201801N00721024001CN0040001N9-00781-01111103101ADDAY171999GF108991081001999999021999MD1710051+9999MW1221
0057295510999991971012621004+56200+087750FM-12+013499999V0201801N00511024001CN0040001N9-00781-01111103071ADDAY171999GF108991081001999999021999MD1710021+9999MW1711
0117295510999991971012700004+56200+087750FM-12+013499999V0201801N00511024001CN0040001N9-00781-01221103031ADDAA106075091AA224999999AY171999GF108991081001999999021999HL10009IA1319IA2999-01119KA1999N-01001MD1710041+9999MW1711
0057295510999991971012703004+56200+087750FM-12+013499999V0202001N00411024001CN0100001N9-00781-01221103081ADDAY171999GF108991081001999999051999MD1310041+9999MW1711
0057295510999991971012706004+56200+087750FM-12+013499999V0201801N00511024001CN0100001N9-00721-01111103021ADDAY171999GF108991081001999999021999MD1510041+9999MW1711
0057295510999991971012709004+56200+087750FM-12+013499999V0202001N00511024001CN0100001N9-00781-00891103031ADDAY171999GF108991081001999999021999MD1310021+9999MW1711
0092295510999991971012712004+56200+087750FM-12+013499999V0209991C00001024001CN0100001N9-00721-01001103101ADDAA106001091AA299000391AY171999GF108991081001999999021999KA1999M-00611MD1110041+9999MW1711
0057295510999991971012718004+56200+087750FM-12+013499999V0201801N00311024001CN0040001N9-00721-00891103181ADDAY171999GF108991081001999999021999MD1110021+9999MW1711
0117295510999991971012800004+56200+087750FM-12+013499999V0201801N00411024001CN0040001N9-00781-01001103231ADDAA106002091AA299000591AY171999GF108991081001999999021999HL10009IA1319IA2999-00899KA1999N-00781MD1210031+9999MW1711
0057295510999991971012803004+56200+087750FM-12+013499999V0201801N00511024001CN0100001N9-00781-01001103301ADDAY171999GF108991081001999999021999MD1110061+9999MW1711
0057295510999991971012806004+56200+087750FM-12+013499999V0202001N00621024001CN0200001N9-00611-01001103271ADDAY171999GF108991081001999999021999MD1810021+9999MW1781
0057295510999991971012809004+56200+087750FM-12+013499999V0202001N00511024001CN0200001N9-00611-01001103301ADDAY171999GF108991051001999999031011MD1210031+9999MW1021
0092295510999991971012812004+56200+087750FM-12+013499999V0202001N00621024001CN0100001N9-00721-01221103371ADDAA106002091AA299000591AY121999GF108991081001999999051999KA1999M-00611MD1210061+9999MW1031
0057295510999991971012815004+56200+087750FM-12+013499999V0201801N00411220001CN0100001N9-01111-01391103381ADDAY101999GF100991001001999999001001MD1610021+9999MW1021
0057295510999991971012818004+56200+087750FM-12+013499999V0201801N00511220001CN0100001N9-01221-01611103311ADDAY101999GF100991001001999999001001MD1810071+9999MW1021
0070295510999991971012900004+56200+087750FM-12+013499999V0201801N00621024001CN0040001N9-01111-01391103251ADDAY171999GF108991081001999999051999KA1999N-01611MD1710061+9999MW1711
0057295510999991971012903004+56200+087750FM-12+013499999V0201801N00511024001CN0040001N9-00891-01111103211ADDAY171999GF108991081001999999021999MD1610041+9999MW1711
0057295510999991971012906004+56200+087750FM-12+013499999V0201801N00511024001CN0040001N9-00781-01221103151ADDAY171999GF108991081001999999021999MD1510051+9999MW1711
0092295510999991971012912004+56200+087750FM-12+013499999V0201801N00511024001CN0040001N9-01001-01221103081ADDAA106004091AA299001091AY171999GF107991071001999999031001KA1999M-00781MD1810071+9999MW1711
0057295510999991971012915004+56200+087750FM-12+013499999V0201801N00511024001CN0040001N9-00781-01111103111ADDAY171999GF108991081001999999021999MD1210031+9999MW1711
0057295510999991971012918004+56200+087750FM-12+013499999V0202001N00511024001CN0040001N9-00781-01001103021ADDAY171999GF108991081001999999021999MD1610081+9999MW1711
0111295510999991971013000004+56200+087750FM-12+013499999V0202001N00511024001CN0040001N9-00891-01111103031ADDAA106004091AA299001091AY171999GF108991081001999999021999HL10009IA1319IA2999-01399KA1999N-01001MD1510001+9999
0043295510999991971013003004+56200+087750FM-12+013499999V0202301N00211021001CN0020001N9-00891-01001103121ADDAY171999GF108991081001022501011999MW1711
0057295510999991971013009004+56200+087750FM-12+013499999V0202301N00311220001CN0040001N9-00781-01111103201ADDAY171999GF108991001001999999001071MD1210081+9999MW1711
0092295510999991971013012004+56200+087750FM-12+013499999V0202001N00311220001CN0040001N9-01221-01221103331ADDAA106002091AA299000591AY171999GF108991001001999999001081KA1999M-00721MD1310101+9999MW1711
0057295510999991971013018004+56200+087750FM-12+013499999V0202001N00211024001CN0040001N9-01391-01501103481ADDAY171999GF108991081001999999021999MD1210071+9999MW1401
0117295510999991971013100004+56200+087750FM-12+013499999V0202001N00211024001CN0040001N9-01501-01611103611ADDAA106001091AA299000391AY171999GF108991081001999999021999HL10009IA1319IA2999-01729KA1999N-01721MD1310091+9999MW1101
0057295510999991971013103004+56200+087750FM-12+013499999V0209991C00001220001CN0020001N9-01781-01891103731ADDAY171999GF108991001001999999001071MD1210091+9999MW1711
0057295510999991971013106004+56200+087750FM-12+013499999V0209991C00001220001CN0040001N9-01611-01721103741ADDAY171999GF108991001001999999001011MD1210021+9999MW1221
0057295510999991971013109004+56200+087750FM-12+013499999V0209991C00001220001CN0040001N9-01611-01891103781ADDAY121999GF108991001001999999001011MD1310041+9999MW1101
0092295510999991971013112004+56200+087750FM-12+013499999V0201401N00211220001CN0040001N9-01891-02221103901ADDAA106001091AA299000391AY121999GF108991001001999999001011KA1999M-01391MD1110101+9999MW1101
0057295510999991971013118004+56200+087750FM-12+013499999V0209991C00001000151CN0005001N9-02221-02281104061ADDAY141999GF109991091999000251999999MD1110041+9999MW1491
0057295510999991971013121004+56200+087750FM-12+013499999V0209991C00001000151CN0005001N9+99999+99999104211ADDAY141999GF109991091999000251999999MD1710171+9999MW1491
0106295510999991971020100004+56200+087750FM-12+013499999V0209991C00001000151CN0005001N9-02111-02221104151ADDAA199000091AY141999GF109991091999000251999999HL10009IA1319IA2999-02509KA1999N-02221MD1110041+9999MW1491
0057295510999991971020103004+56200+087750FM-12+013499999V0209991C00001220001CN0010001N9-02391-02611104311ADDAY141999GF107991031001999999031011MD1210121+9999MW1421
0057295510999991971020106004+56200+087750FM-12+013499999V0209991C00001024001CN0020001N9-01891-02221104331ADDAY141999GF106991061001999999031001MD1710061+9999MW1181
0057295510999991971020109004+56200+087750FM-12+013499999V0209991C00001220001CN0020001N9-02001-02001104361ADDAY111999GF102991001001999999001011MD1210041+9999MW1101
0081295510999991971020112004+56200+087750FM-12+013499999V0209991C00001220001CN0020001N9-02001-02281104481ADDAA199000091AY111999GF108991001001999999001011KA1999M-01721MD1210101+9999MW1101
0057295510999991971020115004+56200+087750FM-12+013499999V0209991C00001024001CN0040001N9-02001-02221104481ADDAY111999GF107991071001999999031001MD1410001+9999MW1101
0057295510999991971020118004+56200+087750FM-12+013499999V0209991C00001000151CN0005001N9-02001-02221104541ADDAY141999GF109991091999000251999999MD1310061+9999MW1491
0106295510999991971020200004+56200+087750FM-12+013499999V0209991C00001024001CN0020001N9-02001-02221104621ADDAA199000091AY141999GF108991081001999999011999HL10009IA1319IA2999-02289KA1999N-02221MD1210041+9999MW1101
0057295510999991971020203004+56200+087750FM-12+013499999V0201801N00211024001CN0020001N9-02501-02611104551ADDAY171999GF108991081001999999051001MD1210041+9999MW1711
0057295510999991971020206004+56200+087750FM-12+013499999V0209991C00001007801CN0020001N9-01221-01282104571ADDAY171999GF108991081091008001001999MD1310021+9999MW1781
0057295510999991971020209004+56200+087750FM-12+013499999V0200901N00311024001CN0020001N9-01001-01281104511ADDAY171999GF108991081001999999051001MD1610031+9999MW1781
0092295510999991971020212004+56200+087750FM-12+013499999V0200501N00101220001CN0020001N9-01501-01611104581ADDAA106002091AA299000591AY171999GF108991001001999999001021KA1999M-01001MD1210031+9999MW1101
0057295510999991971020215004+56200+087750FM-12+013499999V0209991C00001220001CN0020001N9-01781-02001104601ADDAY121999GF108991001001999999001091MD1410001+9999MW1101
0057295510999991971020218004+56200+087750FM-12+013499999V0209991C00001024001CN0040001N9-01611-01781104531ADDAY171999GF108991081001999999021999MD1710061+9999MW1711
0057295510999991971020221004+56200+087750FM-12+013499999V0209991C00001024001CN0040001N9-01721-01891104451ADDAY171999GF108991081001999999021999MD1710091+9999MW1711
0117295510999991971020300004+56200+087750FM-12+013499999V0209991C00001024001CN0040001N9-01781-02001104331ADDAA106001091AA299000391AY171999GF108991081001999999021999HL10009IA1319IA2999-02009KA1999N-01891MD1510121+9999MW1711
0076295510999991971020303004+56200+087750FM-12+013499999V0202901N00411220001CN0040001N9-01891-02111104261ADDAY171999GF108991001001999999001011MD1810071+9999MW1781EQDQ01+000882APC3  
0057295510999991971020306004+56200+087750FM-12+013499999V0203201N00311220001CN0200001N9-01721-02111104121ADDAY171999GF101991011001999999031001MD1710121+9999MW1031
0057295510999991971020309004+56200+087750FM-12+013499999V0202901N00511220001CN0200001N9-01611-01891103991ADDAY101999GF100991001001999999001001MD1710121+9999MW1021
0092295510999991971020312004+56200+087750FM-12+013499999V0203601N00511220001CN0100001N9-02001-02281104151ADDAA106002091AA299000591AY101999GF100991001001999999001001KA1999M-01501MD1310171+9999MW1021
0057295510999991971020315004+56200+087750FM-12+013499999V0202701N00411220001CN0100001N9-02281-02281104331ADDAY101999GF100991001001999999001001MD1210141+9999MW1021
0057295510999991971020318004+56200+087750FM-12+013499999V0202701N00311220001CN0100001N9-02501-02781104451ADDAY101999GF100991001001999999001001MD1310161+9999MW1021
0043295510999991971020321004+56200+087750FM-12+013499999V0209991C00001220001CN0100001N9-03001-03001104571ADDAY101999GF100991001001999999001001MW1021
0106295510999991971020400004+56200+087750FM-12+013499999V0200501N00311220001CN0100001N9-03001-03221104601ADDAA199000091AY101999GF100991001001999999001001HL10009IA1319IA2999-03789KA1999N-03611MD1210031+9999MW1021
0057295510999991971020403004+56200+087750FM-12+013499999V0209991C00001220001CN0020001N9-03501-03721104741ADDAY111999GF108991001001999999001021MD1310101+9999MW1101
0057295510999991971020406004+56200+087750FM-12+013499999V0209991C00001220001CN0200001N9-02721-02891104671ADDAY111999GF102991001001999999001011MD1510001+9999MW1011
0057295510999991971020409004+56200+087750FM-12+013499999V0209991C00001220001CN0200001N9-02391-02781104621ADDAY111999GF102991001001999999001011MD1610031+9999MW1021
0081295510999991971020412004+56200+087750FM-12+013499999V0209991C00001220001CN0040001N9-03111-03281104741ADDAA199000091AY101999GF100991001001999999001001KA1999M-02391MD1210071+9999MW1101
0057295510999991971020418004+56200+087750FM-12+013499999V0209991C00001220001CN0020001N9-03281-03501104581ADDAY101999GF100991001001999999001001MD1810101+9999MW1101
0125295510999991971020500004+56200+087750FM-12+013499999V0209991C00001220001CN0020001N9-03721+99999104371ADDAA199999999AY101999GF100991001001999999001001HL10009IA1319IA2999-04009KA1999N-03781MD1710151+9999MW1761EQDQ01  00002PRCP99
0057295510999991971020503004+56200+087750FM-12+013499999V0209991C00001220001CN0020001N9-03111-03281104231ADDAY111999GF108991001001999999001011MD1710131+9999MW1101
0076295510999991971020506004+56200+087750FM-12+013499999V0209991C00001220001CN0040001N9-02781-03001104041ADDAY111999GF108991001001999999001011HL10009IA2999-04789MD1710111+9999MW1101
0057295510999991971020509004+56200+087750FM-12+013499999V0209991C00001220001CN0200001N9-02391-02781103841ADDAY121999GF108991001001999999001011MD1710171+9999MW1021
0081295510999991971020512004+56200+087750FM-12+013499999V0200901N00511220001CN0100001N9-02391-02781103701ADDAA199000091AY121999GF106991001001999999001011KA1999M-02391MD1710141+9999MW1021
0057295510999991971020515004+56200+087750FM-12+013499999V0200901N00311220001CN0100001N9-02611-02891103521ADDAY121999GF108991001001999999001071MD1710181+9999MW1021
0057295510999991971020518004+56200+087750FM-12+013499999V0200901N00211220001CN0100001N9-02721-02891103341ADDAY121999GF107991001001999999001071MD1710191+9999MW1021
0057295510999991971020521004+56200+087750FM-12+013499999V0200901N00211220001CN0100001N9-02781-03001103131ADDAY121999GF108991001001999999001071MD1710211+9999MW1021
0106295510999991971020600004+56200+087750FM-12+013499999V0200901N00101220001CN0100001N9-02781-03001103021ADDAA199000091AY121999GF108991001001999999001071HL10009IA1319IA2999-02899KA1999N-02781MD1710111+9999MW1021
0057295510999991971020603004+56200+087750FM-12+013499999V0209991C00001024001CN0020001N9-03111-03281103001ADDAY171999GF106991061001999999031001MD1710051+9999MW1101
0057295510999991971020606004+56200+087750FM-12+013499999V0209991C00001220001CN0040001N9-02501-03001102831ADDAY171999GF100991001001999999001001MD1710111+9999MW1761
0043295510999991971020609004+56200+087750FM-12+013499999V0209991C00001220001CN0020001N9-02221-03111102801ADDAY101999GF100991001001999999001001MW1101
0057295510999991971020615004+56200+087750FM-12+013499999V0209991C00001220001CN0100001N9-03001-03281102841ADDAY111999GF108991001001999999001011MD1710121+9999MW1031
0057295510999991971020618004+56200+087750FM-12+013499999V0200501N00311220001CN0100001N9-03001-03221102651ADDAY111999GF108991001001999999001011MD1710181+9999MW1021
0057295510999991971020621004+56200+087750FM-12+013499999V0200501N00411220001CN0100001N9-02891-03111102531ADDAY121999GF108991001001999999001011MD1710121+9999MW1021
0106295510999991971020700004+56200+087750FM-12+013499999V0200501N00211220001CN0100001N9-02891-03221102411ADDAA199000091AY121999GF108991001001999999001011HL10009IA1319IA2999-03619KA1999N-03391MD1610101+9999MW1021
0057295510999991971020703004+56200+087750FM-12+013499999V0200501N00511220001CN0200001N9-02611-02891102331ADDAY121999GF106991011001999999031011MD1710061+9999MW1021
0057295510999991971020706004+56200+087750FM-12+013499999V0200501N00311220001CN0200001N9-02001-02281102101ADDAY121999GF108991001001999999001071MD1610181+9999MW1021
0057295510999991971020709004+56200+087750FM-12+013499999V0200701N00311220001CN0200001N9-01501-01891102011ADDAY121999GF108991001001999999001021MD1710051+9999MW1021
0081295510999991971020712004+56200+087750FM-12+013499999V0200701N00411220001CN0100001N9-01501-01891102041ADDAA199000091AY121999GF108991001001999999001021KA1999M-01391MD1710011+9999MW1021
0057295510999991971020715004+56200+087750FM-12+013499999V0200501N004119999999N0100001N9-01781-02111102021ADDAY121999GF108991001001999999999999MD1710021+9999MW1021
0057295510999991971020718004+56200+087750FM-12+013499999V0200701N00211220001CN0100001N9-01891-02221102091ADDAY111999GF108991001001999999001021MD1210061+9999MW1031
0057295510999991971020721004+56200+087750FM-12+013499999V0202701N002119999999N0100001N9-01891-02221102151ADDAY111999GF107991071001999999999999MD1310061+9999MW1031
0057295510999991971020806004+56200+087750FM-12+013499999V0200201N00101024001CN0040001N9-00781-01221102291ADDAY171999GF108991081001999999021999MD1310031+9999MW1711
0092295510999991971020812004+56200+087750FM-12+013499999V0209991C00001024001CN0100001N9-01001-01221102381ADDAA106004091AA299001091AY171999GF107991071001999999031001KA1999M-00781MD1410001+9999MW1781
0057295510999991971020815004+56200+087750FM-12+013499999V0209991C00001024001CN0040001N9-01001-01111102421ADDAY171999GF108991081001999999021999MD1010041+9999MW1711
0057295510999991971020818004+56200+087750FM-12+013499999V0209991C00001024001CN0100001N9-01001-01111102491ADDAY171999GF107991071001999999031001MD1010071+9999MW1781
0057295510999991971020821004+56200+087750FM-12+013499999V0209991C00001024001CN0100001N9-01001-01111102551ADDAY171999GF108991081001999999031999MD1210061+9999MW1781
0117295510999991971020900004+56200+087750FM-12+013499999V0209991C00001024001CN0100001N9-00891-01001102561ADDAA106075091AA224999999AY171999GF108991081001999999021999HL10009IA1319IA2999-01399KA1999N-01111MD1310021+9999MW1021
0057295510999991971020903004+56200+087750FM-12+013499999V0200501N00311024001CN0200001N9-00781-00891102581ADDAY121999GF108991081001999999041999MD1210021+9999MW1121
0057295510999991971020906004+56200+087750FM-12+013499999V0200501N00311220001CN0200001N9-00501-00891102511ADDAY121999GF105991001001999999001011MD1710061+9999MW1011
0057295510999991971020909004+56200+087750FM-12+013499999V0200501N00721220001CN0200001N9-00501-00891102451ADDAY111999GF100991001001999999001001MD1810061+9999MW1011
0057295510999991971020912004+56200+087750FM-12+013499999V0200501N00621220001CN0100001N9-00781-01221102621ADDAY131999GF100991001001999999001001MD1210151+9999MW1361
0057295510999991971020915004+56200+087750FM-12+013499999V0200501N00621220001CN0100001N9-01221-01611102651ADDAY131999GF100991001001999999001001MD1410001+9999MW1361
0057295510999991971020918004+56200+087750FM-12+013499999V0200501N00621220001CN0100001N9-01391-01721102691ADDAY131999GF100991001001999999001001MD1110031+9999MW1361
0106295510999991971021000004+56200+087750FM-12+013499999V0200501N00621220001CN0100001N9-01781-02221102731ADDAA199000091AY131999GF100991001001999999001001HL10009IA1209IA2999-02119KA1999N-01781MD1810151+9999MW1361
0100295510999991971021003004+56200+087750FM-12+013499999V0200901N00511220001CN0200001N9-01891-02281102791ADDAA199000091AY131999GF100991001001999999001001KA1999N+99999MD1110051+9999MW1361EQDQ01 -01782ATMN  
0057295510999991971021006004+56200+087750FM-12+013499999V0200901N00511220001CN0200001N9-01501-02111102721ADDAY131999GF100991001001999999001001MD1710071+9999MW1021
0057295510999991971021009004+56200+087750FM-12+013499999V0200901N00511220001CN0200001N9-01001-01781102751ADDAY101999GF100991001001999999001001MD1210051+9999MW1021
0081295510999991971021012004+56200+087750FM-12+013499999V0201101N00411220001CN0100001N9-01221-02001102881ADDAA199000091AY101999GF102991021001999999031011KA1999M-00781MD1110111+9999MW1031
0057295510999991971021015004+56200+087750FM-12+013499999V0201101N00101220001CN0100001N9-01221-01611102941ADDAY111999GF108991001001999999001011MD1010061+9999MW1031
0057295510999991971021018004+56200+087750FM-12+013499999V0201601N00211024001CN0040001N9-01111-01281102951ADDAY171999GF108991081001999999021999MD1210031+9999MW1711
0057295510999991971021021004+56200+087750FM-12+013499999V0202301N00511024001CN0100001N9-00781-01221102941ADDAY121999GF108991081001999999021999MD1010001+9999MW1721
0117295510999991971021100004+56200+087750FM-12+013499999V0202301N00411024001CN0100001N9-01111-01391103041ADDAA106075091AA224999999AY171999GF108991081001999999021999HL10009IA1319IA2999-01729KA1999N-01391MD1210071+9999MW1021
0057295510999991971021103004+56200+087750FM-12+013499999V0202301N00101220001CN0020001N9-01501-01721103081ADDAY111999GF100991001001999999001001MD1010021+9999MW1041
0043295510999991971021106004+56200+087750FM-12+013499999V0209991C00001220001CN0040001N9-00891-01611103021ADDAY111999GF100991001001999999001001MW1041
0057295510999991971021109004+56200+087750FM-12+013499999V0202301N00511220001CN0200001N9-00891-01611102881ADDAY101999GF100991001001999999001001MD1710141+9999MW1021
0081295510999991971021112004+56200+087750FM-12+013499999V0202301N00411220001CN0020001N9-01221-01611102841ADDAA199000091AY101999GF100991001001999999001001KA1999M-00781MD1710061+9999MW1041
0043295510999991971021115004+56200+087750FM-12+013499999V0201401N00311024001CN0020001N9-01391-01611102651ADDAY121999GF108991081001999999031001MW1041
0057295510999991971021118004+56200+087750FM-12+013499999V0201401N00311024001CN0100001N9-01221-01611102481ADDAY121999GF108991081001999999011999MD1710151+9999MW1021
0092295510999991971021200004+56200+087750FM-12+013499999V0201401N00211024001CN0020001N9-01221-01611102171ADDAA106075091AA224999999AY171999GF108991081001999999011999KA1999N-01391MD1710111+9999MW1711
0057295510999991971021203004+56200+087750FM-12+013499999V0201601N00211220001CN0020001N9-01281-01391102141ADDAY171999GF108991001001999999001011MD1710041+9999MW1221
0057295510999991971021206004+56200+087750FM-12+013499999V0202701N00311220001CN0040001N9-01221-01501102211ADDAY171999GF108991001001999999001011MD1310081+9999MW1781
0057295510999991971021209004+56200+087750FM-12+013499999V0202501N00311220001CN0100001N9-01221-01611102351ADDAY171999GF108991001001999999001011MD1210141+9999MW1021
0092295510999991971021212004+56200+087750FM-12+013499999V0202301N00411220001CN0100001N9-01721-01891102591ADDAA106002091AA299000591AY171999GF108991001001999999001071KA1999M-01001MD1210201+9999MW1021
0057295510999991971021215004+56200+087750FM-12+013499999V0202301N00621024001CN0040001N9-01611-01891102761ADDAY171999GF108991081001999999021999MD1210171+9999MW1711
0057295510999991971021218004+56200+087750FM-12+013499999V0202301N00311220001CN0100001N9-02001-02221102921ADDAY171999GF108991001001999999001011MD1210131+9999MW1031
0057295510999991971021221004+56200+087750FM-12+013499999V0202301N00511220001CN0100001N9-02221-02391103051ADDAY171999GF108991001001999999001071MD1310121+9999MW1711
0117295510999991971021300004+56200+087750FM-12+013499999V0202301N00511220001CN0040001N9-02221-02391103171ADDAA106001091AA299000391AY171999GF108991001001999999001071HL10009IA1319IA2999-02729KA1999N-02281MD1210121+9999MW1711
0057295510999991971021303004+56200+087750FM-12+013499999V0202501N00211220001CN0040001N9-02111-02391103341ADDAY171999GF108991001001999999001011MD1210161+9999MW1711
0057295510999991971021306004+56200+087750FM-12+013499999V0202701N00411220001CN0200001N9-01781-02111103461ADDAY171999GF108991001001999999001011MD1210221+9999MW1021
0057295510999991971021309004+56200+087750FM-12+013499999V0202901N00411220001CN0200001N9-01721-02221103511ADDAY111999GF100991001001999999001001MD1210051+9999MW1011
0092295510999991971021312004+56200+087750FM-12+013499999V0209991C00001220001CN0100001N9-02221-02391103671ADDAA106075091AA224999999AY111999GF100991001001999999001001KA1999M-01721MD1210131+9999MW1021
0057295510999991971021315004+56200+087750FM-12+013499999V0209991C00001220001CN0100001N9-02501-02891103741ADDAY101999GF100991001001999999001001MD1210111+9999MW1021
0057295510999991971021318004+56200+087750FM-12+013499999V0209991C00001220001CN0100001N9-02501-03001103851ADDAY111999GF108991001001999999001011MD1210081+9999MW1031
0057295510999991971021321004+56200+087750FM-12+013499999V0209991C00001220001CN0100001N9-02501-03001103781ADDAY121999GF108991001001999999001071MD1210021+9999MW1021
0106295510999991971021400004+56200+087750FM-12+013499999V0209991C00001220001CN0100001N9-03001-03221103531ADDAA199000091AY111999GF100991001001999999001001HL10009IA1319IA2999-03289KA1999N-03221MD1810221+9999MW1011
0081295510999991971021403004+56200+087750FM-12+013499999V0209991C00001220001CN0040001N9-03111-03391103481ADDAA199000091AY111999GF199999001001999999001071KA1999N-03281MD1510051+9999MW1011
0057295510999991971021406004+56200+087750FM-12+013499999V0209991C00001220001CN0040001N9-02391-02611103241ADDAY111999GF100991001001999999001001MD1710141+9999MW1011
0057295510999991971021409004+56200+087750FM-12+013499999V0202701N00411220001CN0200001N9+99999+99999103191ADDAY101999GF100991001001999999001001MD1710051+9999MW1021
0081295510999991971021412004+56200+087750FM-12+013499999V0202901N00411220001CN0100001N9-02221-02501103251ADDAA199000091AY101999GF100991001001999999001001KA1999M-01891MD1210041+9999MW1021
0057295510999991971021415004+56200+087750FM-12+013499999V0202901N00211220001CN0100001N9-02611-02781103401ADDAY101999GF100991001001999999001001MD1210121+9999MW1021
0057295510999991971021418004+56200+087750FM-12+013499999V0202901N00211220001CN0100001N9-02891-03111103491ADDAY101999GF100991001001999999001001MD1210091+9999MW1021
0057295510999991971021421004+56200+087750FM-12+013499999V0202901N00101220001CN0100001N9-03001-03221103721ADDAY101999GF100991001001999999001001MD1110211+9999MW1021
0106295510999991971021500004+56200+087750FM-12+013499999V0209991C00001220001CN0100001N9-03221-03391103691ADDAA199000091AY101999GF100991001001999999001001HL10009IA1319IA2999-03619KA1999N-03391MD1210101+9999MW1021
0057295510999991971021503004+56200+087750FM-12+013499999V0209991C00001220001CN0200001N9-03391-03611103771ADDAY101999GF100991001001999999001001MD1210061+9999MW1021
0057295510999991971021506004+56200+087750FM-12+013499999V0209991C00001220001CN0200001N9-02281-02611103681ADDAY101999GF100991001001999999001001MD1010001+9999MW1021
0057295510999991971021509004+56200+087750FM-12+013499999V0201601N00311220001CN0100001N9-02111-02611103671ADDAY101999GF100991001001999999001001MD1510001+9999MW1021
0081295510999991971021512004+56200+087750FM-12+013499999V0209991C00001220001CN0020001N9-02611-02891103611ADDAA199000091AY101999GF102991021001999999051999KA1999M-01721MD1710091+9999MW1041
0057295510999991971021515004+56200+087750FM-12+013499999V0209991C00001220001CN0020001N9-02721-02891103581ADDAY101999GF100991001001999999001001MD1810041+9999MW1041
0057295510999991971021518004+56200+087750FM-12+013499999V0203601N00101220001CN0040001N9-03001-03221103571ADDAY101999GF100991001001999999001001MD1110041+9999MW1021
0057295510999991971021521004+56200+087750FM-12+013499999V0209991C00001220001CN0040001N9-03001-03221103531ADDAY101999GF100991001001999999001001MD1710041+9999MW1021
0106295510999991971021600004+56200+087750FM-12+013499999V0209991C00001220001CN0040001N9-02891-03111103471ADDAA199000091AY101999GF100991001001999999001001HL10009IA1319IA2999-03619KA1999N-03111MD1510051+9999MW1021
0057295510999991971021603004+56200+087750FM-12+013499999V0200501N00101220001CN0200001N9-02721-02891103381ADDAY111999GF108991001001999999001071MD1610071+9999MW1081
0057295510999991971021606004+56200+087750FM-12+013499999V0209991C00001220001CN0100001N9-02221-02501103221ADDAY111999GF108991001001999999001071MD1710091+9999MW1041
0057295510999991971021609004+56200+087750FM-12+013499999V0209991C00001220001CN0200001N9-01891-02391103141ADDAY121999GF108991001001999999001011MD1510081+9999MW1021
0081295510999991971021612004+56200+087750FM-12+013499999V0209991C00001220001CN0100001N9-02281-02721103131ADDAA199000091AY111999GF100991001001999999001001KA1999M-01781MD1710041+9999MW1021
0057295510999991971021615004+56200+087750FM-12+013499999V0209991C00001220001CN0040001N9-02781-03001103081ADDAY101999GF100991001001999999001001MD1710081+9999MW1101
0057295510999991971021618004+56200+087750FM-12+013499999V0209991C00001220001CN0040001N9-02891-03111103011ADDAY101999GF100991001001999999001001MD1710081+9999MW1101
0106295510999991971021700004+56200+087750FM-12+013499999V0209991C00001220001CN0040001N9-03281-03611102901ADDAA199000091AY101999GF100991001001999999001001HL10009IA1319IA2999-03789KA1999N-03501MD1710081+9999MW1101
0057295510999991971021706004+56200+087750FM-12+013499999V0209991C00001220001CN0020001N9-01891-02221102531ADDAY111999GF105991001001999999001011MD1710151+9999MW1101
0057295510999991971021709004+56200+087750FM-12+013499999V0209991C00001220001CN0040001N9-01781-02501102201ADDAY111999GF102991001001999999001011MD1710101+9999MW1041
0081295510999991971021712004+56200+087750FM-12+013499999V0200901N00211220001CN0100001N9-01781-02221102161ADDAA199000091AY111999GF108991001001999999001011KA1999M-01611MD1710271+9999MW1041
0057295510999991971021715004+56200+087750FM-12+013499999V0200501N00411220001CN0040001N9-01781-02111101831ADDAY121999GF108991001001999999001011MD1710321+9999MW1041
0057295510999991971021718004+56200+087750FM-12+013499999V0200501N00101024001CN0100001N9-01501-01781101521ADDAY171999GF108991081001999999021999MD1710291+9999MW1711
0057295510999991971021721004+56200+087750FM-12+013499999V0201401N00211024001CN0040001N9-01391-01611101271ADDAY171999GF108991081001999999021999MD1710231+9999MW1711
0117295510999991971021800004+56200+087750FM-12+013499999V0201601N00311024001CN0040001N9-01221-01281101041ADDAA106075091AA224999999AY171999GF108991081001999999021999HL10009IA1319IA2999-02119KA1999N-02001MD1710211+9999MW1711
0057295510999991971021803004+56200+087750FM-12+013499999V0201401N00311024001CN0020001N9-01111-01221100731ADDAY171999GF108991081001999999021999MD1710301+9999MW1711
0057295510999991971021806004+56200+087750FM-12+013499999V0201101N00211024001CN0020001N9-00721-00891100451ADDAY171999GF108991081001999999021999MD1710241+9999MW1711
0057295510999991971021809004+56200+087750FM-12+013499999V0200701N00101024001CN0100001N9-00611-00891100081ADDAY171999GF108991081001999999021999MD1710371+9999MW1781
0092295510999991971021812004+56200+087750FM-12+013499999V0200901N00311220001CN0200001N9-01001-01111100061ADDAA106012091AA299003091AY171999GF108991001001999999001011KA1999M-00611MD1710071+9999MW1021
0057295510999991971021815004+56200+087750FM-12+013499999V0202301N00981024001CN0020001N9-00781-00891100001ADDAY171999GF108991081001999999021999MD1510041+9999MW1711
0057295510999991971021818004+56200+087750FM-12+013499999V0202301N00981220001CN0020001N9-01721-02221100361ADDAY171999GF100991001001999999001001MD1210491+9999MW1381
0057295510999991971021821004+56200+087750FM-12+013499999V0202301N00721220001CN0040001N9-01891-02281100841ADDAY171999GF100991001001999999001001MD1210261+9999MW1381
0117295510999991971021900004+56200+087750FM-12+013499999V0202301N00721220001CN0040001N9-02001-02281101071ADDAA106004091AA299001091AY171999GF108991001001999999001071HL10009IA1209IA2999-02119KA1999N-02111MD1010211+9999MW1711
0057295510999991971021903004+56200+087750FM-12+013499999V0202301N00621024001CN0040001N9-02001-02391101291ADDAY171999GF108991081001999999021999MD1210211+9999MW1711
0057295510999991971021906004+56200+087750FM-12+013499999V0202301N00821024001CN0040001N9-02001-02501101511ADDAY171999GF108991081001999999021999MD1210221+9999MW1781
0057295510999991971021909004+56200+087750FM-12+013499999V0202301N00621220001CN0040001N9-01891-02391101731ADDAY171999GF108991001001999999001011MD1210211+9999MW1381
0092295510999991971021912004+56200+087750FM-12+013499999V0202001N00621024001CN0040001N9-02001-02281101901ADDAA106001091AA299000391AY171999GF108991081001999999021999KA1999M-01781MD1210171+9999MW1381
0057295510999991971021915004+56200+087750FM-12+013499999V0202301N00411220001CN0100001N9-02501-02891102141ADDAY131999GF100991001001999999001001MD1210201+9999MW1011
0057295510999991971021918004+56200+087750FM-12+013499999V0202001N00721220001CN0100001N9-02611-02891102261ADDAY131999GF100991001001999999001001MD1210121+9999MW1021
0081295510999991971022000004+56200+087750FM-12+013499999V0202001N00621220001CN0100001N9-02891-03111102531ADDAA199000091AY101999GF100991001001999999001001KA1999N-03111MD1210161+9999MW1021
0057295510999991971022003004+56200+087750FM-12+013499999V0202001N00511220001CN0200001N9-02781-03111102711ADDAY111999GF108991001001999999001071MD1210191+9999MW1031
0057295510999991971022006004+56200+087750FM-12+013499999V0202501N00411220001CN0040001N9-02611-03001102751ADDAY171999GF108991001001999999001071MD1210051+9999MW1711
0043295510999991971022009004+56200+087750FM-12+013499999V0202501N00511024001CN0020001N9-02781-03221103011ADDAY171999GF108991081001999999999999MW1711
0092295510999991971022012004+56200+087750FM-12+013499999V0202501N00621220001CN0200001N9-03001-03391103331ADDAA106075091AA224999999AY171999GF108991001001999999001011KA1999M-02611MD1210291+9999MW1221
0057295510999991971022015004+56200+087750FM-12+013499999V0202501N00511220001CN0100001N9-03221-03501103621ADDAY111999GF100991001001999999001001MD1210281+9999MW1121
0057295510999991971022018004+56200+087750FM-12+013499999V0202001N00511220001CN0100001N9-03221-03501103781ADDAY111999GF100991001001999999001001MD1210151+9999MW1021
0057295510999991971022021004+56200+087750FM-12+013499999V0201801N00211220001CN0100001N9-03391-03721103891ADDAY101999GF100991001001999999001001MD1210091+9999MW1021
0106295510999991971022100004+56200+087750FM-12+013499999V0209991C00001220001CN0100001N9-03891-04221104041ADDAA199000091AY101999GF100991001001999999001001HL10009IA1209IA2999-04509KA1999N-04001MD1210151+9999MW1021
0057295510999991971022103004+56200+087750FM-12+013499999V0209991C00001220001CN0002001N9-04001-04281104211ADDAY101999GF100991001001999999001001MD1210121+9999MW1441
0057295510999991971022106004+56200+087750FM-12+013499999V0209991C00001220001CN0020001N9-03001-03391104131ADDAY141999GF100991001001999999001001MD1410001+9999MW1021
0057295510999991971022109004+56200+087750FM-12+013499999V0200701N00211220001CN0200001N9-02891-03391104081ADDAY101999GF100991001001999999001001MD1610041+9999MW1021
0081295510999991971022112004+56200+087750FM-12+013499999V0200501N00101220001CN0200001N9-03111-03391104101ADDAA199000091AY101999GF100991001001999999001001KA1999M-02721MD1210011+9999MW1021
0057295510999991971022115004+56200+087750FM-12+013499999V0200701N00211220001CN0100001N9-03281-03611104081ADDAY101999GF199999001001999999001011MD1710051+9999MW1021
0057295510999991971022118004+56200+087750FM-12+013499999V0200501N00211220001CN0100001N9-03391-03721104041ADDAY101999GF100991001001999999001001MD1710041+9999MW1021
0057295510999991971022121004+56200+087750FM-12+013499999V0200501N00311220001CN0100001N9-03611-03891103981ADDAY101999GF100991001001999999001001MD1710081+9999MW1021
0106295510999991971022200004+56200+087750FM-12+013499999V0200501N00311220001CN0100001N9-03611-03891103951ADDAA199000091AY101999GF100991001001999999001001HL10009IA1209IA2999-03729KA1999N-03721MD1610031+9999MW1021
0057295510999991971022203004+56200+087750FM-12+013499999V0200501N00511220001CN0200001N9-03501-03781103931ADDAY101999GF102991001001999999001011MD1810011+9999MW1031
0057295510999991971022206004+56200+087750FM-12+013499999V0200501N00311220001CN0200001N9-02891-03221103761ADDAY101999GF102991001001999999001011MD1710111+9999MW1021
0057295510999991971022209004+56200+087750FM-12+013499999V0200501N00511220001CN0200001N9-02391-02781103681ADDAY111999GF108991001001999999001011MD1710041+9999MW1021
0081295510999991971022212004+56200+087750FM-12+013499999V0200501N00411220001CN0200001N9-02501-02891103701ADDAA199000091AY121999GF100991001001999999001001KA1999M-02391MD1510011+9999MW1021
0057295510999991971022215004+56200+087750FM-12+013499999V0200501N00411220001CN0100001N9-02781-03221103721ADDAY121999GF100991001001999999001001MD1410001+9999MW1021
0057295510999991971022218004+56200+087750FM-12+013499999V0200501N00511220001CN0100001N9-03001-03391103651ADDAY111999GF100991001001999999001001MD1710091+9999MW1011
0106295510999991971022300004+56200+087750FM-12+013499999V0209991C00001220001CN0100001N9-03281-03611103591ADDAA199000091AY101999GF100991001001999999001001HL10009IA1209IA2999-03509KA1999N-03281MD1010041+9999MW1021
0057295510999991971022303004+56200+087750FM-12+013499999V0200501N00311220001CN0200001N9-03281-03611103551ADDAY101999GF100991001001999999001001MD1710031+9999MW1021
0057295510999991971022306004+56200+087750FM-12+013499999V0200501N00411220001CN0200001N9-02721-03111103441ADDAY101999GF100991001001999999001001MD1710061+9999MW1021
0057295510999991971022309004+56200+087750FM-12+013499999V0200501N00411220001CN0200001N9-02281-02891103421ADDAY101999GF100991001001999999001001MD1010001+9999MW1021
0081295510999991971022312004+56200+087750FM-12+013499999V0209991C00001220001CN0100001N9-02391-03111103491ADDAA199000091AY101999GF100991001001999999001001KA1999M-02001MD1310161+9999MW1021
0043295510999991971022315004+56200+087750FM-12+013499999V0209991C00001220001CN0100001N9-02611-03221103541ADDAY101999GF100991001001999999001001MW1021
0057295510999991971022318004+56200+087750FM-12+013499999V0200501N00411220001CN0100001N9-02781-03391103541ADDAY101999GF100991001001999999001001MD1410001+9999MW1021
0057295510999991971022321004+56200+087750FM-12+013499999V0200501N00311220001CN0100001N9-03001-03391103541ADDAY101999GF100991001001999999001001MD1610021+9999MW1021
0106295510999991971022400004+56200+087750FM-12+013499999V0209991C00001220001CN0100001N9-03501-03781103601ADDAA199000091AY101999GF100991001001999999001001HL10009IA1209IA2999-04229KA1999N-03611MD1210021+9999MW1021
0057295510999991971022403004+56200+087750FM-12+013499999V0209991C00001220001CN0040001N9-03501-03781103661ADDAY101999GF100991001001999999001001MD1210081+9999MW1041
0057295510999991971022406004+56200+087750FM-12+013499999V0200501N00211220001CN0200001N9-02611-03221103531ADDAY111999GF102991001001999999001011MD1710121+9999MW1021
0057295510999991971022409004+56200+087750FM-12+013499999V0200901N00211220001CN0200001N9-02111-02891103411ADDAY111999GF100991001001999999001001MD1710041+9999MW1021
0081295510999991971022412004+56200+087750FM-12+013499999V0203201N00311220001CN0200001N9-02501-03221103471ADDAA199000091AY101999GF100991001001999999001001KA1999M-02001MD1210031+9999MW1021
0057295510999991971022418004+56200+087750FM-12+013499999V0200201N00211220001CN0100001N9-03221-03501103521ADDAY101999GF100991001001999999001001MD1710051+9999MW1021
0106295510999991971022500004+56200+087750FM-12+013499999V0200501N00211220001CN0100001N9-03611-03891103491ADDAA199000091AY101999GF100991001001999999001001HL10009IA1209IA2999-04119KA1999N-03611MD1710031+9999MW1021
0043295510999991971022503004+56200+087750FM-12+013499999V0200501N00211220001CN0200001N9-02502-03001103351ADDAY101999GF100991001001999999001001MW1021
0057295510999991971022506004+56200+087750FM-12+013499999V0200501N00211220001CN0200001N9-02501-02891103321ADDAY101999GF100991001001999999001001MD1710111+9999MW1021
0057295510999991971022509004+56200+087750FM-12+013499999V0200501N00311220001CN0200001N9-02111-02891103251ADDAY101999GF100991001001999999001001MD1810031+9999MW1021
0081295510999991971022512004+56200+087750FM-12+013499999V0200501N00311220001CN0200001N9-02281-03111103301ADDAA199000091AY101999GF100991001001999999001001KA1999M-02111MD1210031+9999MW1021
0057295510999991971022515004+56200+087750FM-12+013499999V0200501N00511220001CN0100001N9-02721-03001103411ADDAY101999GF100991001001999999001001MD1810081+9999MW1021
0057295510999991971022518004+56200+087750FM-12+013499999V0200501N00621220001CN0100001N9-02781-03221103411ADDAY101999GF100991001001999999001001MD1710081+9999MW1021
0043295510999991971022521004+56200+087750FM-12+013499999V0200501N00411220001CN0100001N9-03001-03281103391ADDAY101999GF100991001001999999001001MW1021
0106295510999991971022600004+56200+087750FM-12+013499999V0200501N00511220001CN0100001N9-03111-03391103371ADDAA199000091AY101999GF100991001001999999001001HL10009IA1209IA2999-03399KA1999N-03221MD1310011+9999MW1021
0057295510999991971022606004+56200+087750FM-12+013499999V0209991C00001220001CN0200001N9-02391-03001103441ADDAY101999GF100991001001999999001001MD1210041+9999MW1021
0057295510999991971022609004+56200+087750FM-12+013499999V0202701N00101220001CN0200001N9-02001-03001103401ADDAY101999GF100991001001999999001001MD1810011+9999MW1021
0081295510999991971022612004+56200+087750FM-12+013499999V0209991C00001220001CN0040001N9-02391-03111103551ADDAA199000091AY101999GF100991001001999999001001KA1999M-01891MD1210121+9999MW1041
0043295510999991971022615004+56200+087750FM-12+013499999V0200501N00311220001CN0040001N9-02611-03001103691ADDAY101999GF100991001001999999001001MW1041
0057295510999991971022618004+56200+087750FM-12+013499999V0200501N00311220001CN0100001N9-02781-03221103721ADDAY101999GF100991001001999999001001MD1210071+9999MW1021
0057295510999991971022621004+56200+087750FM-12+013499999V0200501N00211220001CN0100001N9-03391-03721103721ADDAY101999GF100991001001999999001001MD1810051+9999MW1021
0120295510999991971022700004+56200+087750FM-12+013499999V0209991C00001007801CN0040001N9+99999+99999103761ADDAA106004091AA299001091AY171999GF107991071051008001001001IA1209MD1210091+9999MW1731EQDQ01+025103ATOT  Q02+024933ATOD  
0057295510999991971022703004+56200+087750FM-12+013499999V0209991C00001220001CN0200001N9-03391-03721103881ADDAY101999GF100991001001999999001001MD1210121+9999MW1021
0057295510999991971022706004+56200+087750FM-12+013499999V0200901N00211220001CN0200001N9-02391-03001103821ADDAY101999GF100991001001999999001001MD1210021+9999MW1021
0057295510999991971022709004+56200+087750FM-12+013499999V0202701N00211220001CN0200001N9-01891-02721103821ADDAY101999GF100991001001999999001001MD1510031+9999MW1021
0081295510999991971022712004+56200+087750FM-12+013499999V0209991C00001220001CN0200001N9-02221-02891103871ADDAA199000091AY101999GF100991001001999999001001KA1999M-01891MD1510041+9999MW1021
0057295510999991971022715004+56200+087750FM-12+013499999V0209991C00001220001CN0100001N9-02891-03281104011ADDAY101999GF100991001001999999001001MD1110081+9999MW1021
0057295510999991971022718004+56200+087750FM-12+013499999V0209991C00001220001CN0100001N9-03391-03721104091ADDAY101999GF100991001001999999001001MD1110041+9999MW1021
0057295510999991971022721004+56200+087750FM-12+013499999V0209991C00001220001CN0100001N9-03501-03781104071ADDAY101999GF100991001001999999001001MD1810031+9999MW1021
0093295510999991971022800004+56200+087750FM-12+013499999V0203601N00101220001CN0100001N9-03501-03781104061ADDAA199000091AY101999GF100991001001999999001001HL10009IA1209IA2999-04229MD1510031+9999MW1021
0057295510999991971022803004+56200+087750FM-12+013499999V0209991C00001220001CN0040001N9-03611-03891104071ADDAY101999GF100991001001999999001001MD1510001+9999MW1041
0057295510999991971022806004+56200+087750FM-12+013499999V0209991C00001220001CN0100001N9-02721-03111103871ADDAY101999GF100991001001999999001001MD1810121+9999MW1021
0057295510999991971022809004+56200+087750FM-12+013499999V0209991C00001220001CN0200001N9-02001-02781103791ADDAY101999GF100991001001999999001001MD1810031+9999MW1021
0068295510999991971022812004+56200+087750FM-12+013499999V0209991C00001220001CN0200001N9-02391-03001103781ADDAA199000091AY101999GF100991001001999999001001MD1710041+9999MW1021
0057295510999991971022815004+56200+087750FM-12+013499999V0209991C00001220001CN0100001N9-02891-03221103831ADDAY101999GF100991001001999999001001MD1410001+9999MW1021
0057295510999991971022818004+56200+087750FM-12+013499999V0209991C00001220001CN0100001N9-03391-03721103861ADDAY101999GF100991001001999999001001MD1410001+9999MW1021
0106295510999991971030100004+56200+087750FM-12+013499999V0209991C00001220001CN0100001N9-03721-04001103821ADDAA199000091AY101999GF100991001001999999001001HL10009IA1209IA2999-04119KA1999N-03781MD1210021+9999MW1021
0057295510999991971030103004+56200+087750FM-12+013499999V0203401N00101220001CN0040001N9-03221-03501103841ADDAY101999GF100991001001999999001001MD1310061+9999MW1041
0057295510999991971030106004+56200+087750FM-12+013499999V0200901N00311220001CN0200001N9-02391-03001103761ADDAY101999GF100991001001999999001001MD1710021+9999MW1021
0057295510999991971030109004+56200+087750FM-12+013499999V0202301N00211220001CN0200001N9-02001-02721103741ADDAY101999GF100991001001999999001001MD1310011+9999MW1021
0081295510999991971030112004+56200+087750FM-12+013499999V0202001N00211220001CN0200001N9-02391-03001103891ADDAA199000091AY101999GF100991001001999999001001KA1999M-02001MD1210121+9999MW1021
0057295510999991971030115004+56200+087750FM-12+013499999V0209991C00001220001CN0100001N9-02891+99999104011ADDAY101999GF100991001001999999001001MD1810281+9999MW1021
0057295510999991971030118004+56200+087750FM-12+013499999V0209991C00001220001CN0100001N9-03281-03611104071ADDAY101999GF100991001001999999001001MD1310031+9999MW1021
0057295510999991971030121004+56200+087750FM-12+013499999V0209991C00001220001CN0100001N9-03281-03611104071ADDAY101999GF100991001001999999001001MD1510001+9999MW1021
0106295510999991971030200004+56200+087750FM-12+013499999V0209991C00001220001CN0100001N9-03611-03891104201ADDAA199000091AY101999GF100991001001999999001001HL10009IA1209IA2999-04229KA1999N-03721MD1210101+9999MW1021
0057295510999991971030203004+56200+087750FM-12+013499999V0209991C00001220001CN0200001N9-03501-03781104351ADDAY101999GF100991001001999999001001MD1210141+9999MW1021
0057295510999991971030206004+56200+087750FM-12+013499999V0209991C00001220001CN0200001N9-02281-02721104341ADDAY101999GF100991001001999999001001MD1210091+9999MW1021
0057295510999991971030209004+56200+087750FM-12+013499999V0209991C00001220001CN0200001N9-01781-02611104281ADDAY101999GF100991001001999999001001MD1810011+9999MW1021
0081295510999991971030212004+56200+087750FM-12+013499999V0202701N00311220001CN0200001N9-02221-02721104471ADDAA199000091AY101999GF100991001001999999001001KA1999M-01781MD1210161+9999MW1021
0057295510999991971030215004+56200+087750FM-12+013499999V0202501N00411220001CN0100001N9-02721-03111104641ADDAY101999GF100991001001999999001001MD1210131+9999MW1021
0057295510999991971030218004+56200+087750FM-12+013499999V0202501N00511220001CN0100001N9-02781-03111104651ADDAY101999GF100991001001999999001001MD1210011+9999MW1021
0057295510999991971030221004+56200+087750FM-12+013499999V0202001N00311220001CN0100001N9-02781-03111104731ADDAY101999GF100991001001999999001001MD1210071+9999MW1021
0106295510999991971030300004+56200+087750FM-12+013499999V0202001N00311220001CN0100001N9-02891-03111104771ADDAA199000091AY101999GF100991001001999999001001HL10009IA1209IA2999-03509KA1999N-03001MD1210041+9999MW1021
0057295510999991971030303004+56200+087750FM-12+013499999V0202301N00411220001CN0040001N9-02721-03001104881ADDAY171999GF106991001001999999001011MD1210111+9999MW1781
0057295510999991971030306004+56200+087750FM-12+013499999V0202301N00621220001CN0100001N9-02001-02501104841ADDAY171999GF104991001001999999001011MD1810021+9999MW1011
0057295510999991971030309004+56200+087750FM-12+013499999V0202301N00721220001CN0040001N9-01781-02221104821ADDAY171999GF107991001001999999001011MD1610021+9999MW1711
0092295510999991971030312004+56200+087750FM-12+013499999V0202301N00721220001CN0200001N9+99999+99999104821ADDAA106075091AA224999999AY171999GF108991021001999999031011KA1999M-01781MD1210021+9999MW1021
0057295510999991971030315004+56200+087750FM-12+013499999V0202301N00721220001CN0100001N9-02221-02501104861ADDAY121999GF107991001001999999001011MD1210041+9999MW1021
0057295510999991971030318004+56200+087750FM-12+013499999V0202001N00621220001CN0100001N9-02391-02781104881ADDAY121999GF106991001001999999001011MD1410001+9999MW1021
0057295510999991971030321004+56200+087750FM-12+013499999V0202001N00511220001CN0100001N9-02611-02891104911ADDAY121999GF106991001001999999001011MD1210021+9999MW1021
0106295510999991971030400004+56200+087750FM-12+013499999V0201801N00411220001CN0100001N9-02611-02891104851ADDAA199000091AY111999GF100991001001999999001001HL10009IA1209IA2999-03009KA1999N-02721MD1610041+9999MW1011
0057295510999991971030403004+56200+087750FM-12+013499999V0201801N00621220001CN0040001N9-02501-02721104681ADDAY101999GF100991001001999999001001MD1010001+9999MW1011
0057295510999991971030406004+56200+087750FM-12+013499999V0202301N00511220001CN0200001N9-02001-02501104791ADDAY101999GF100991001001999999001001MD1710121+9999MW1021
0057295510999991971030409004+56200+087750FM-12+013499999V0202301N00621220001CN0200001N9-01781-02391104601ADDAY101999GF100991001001999999001001MD1710081+9999MW1021
0081295510999991971030412004+56200+087750FM-12+013499999V0202201N00411220001CN0200001N9-01781-02501104661ADDAA199000091AY111999GF105991001001999999001011KA1999M-01721MD1710031+9999MW1011
0092295510999991971030415004+56200+087750FM-12+013499999V0202301N00511220001CN0100001N9-02221-02611104681ADDAY111999GF100991001001999999001001MD1210021+9999MW1021EQDQ01+000042APCTENQ02+000012APC3  
0057295510999991971030418004+56200+087750FM-12+013499999V0202301N00621220001CN0100001N9-02391-02781104731ADDAY101999GF100991001001999999001001MD1210031+9999MW1021
0106295510999991971030500004+56200+087750FM-12+013499999V0202301N00511220001CN0100001N9-02781-03001104621ADDAA199000091AY101999GF100991001001999999001001HL10009IA1209IA2999-03119KA1999N-02781MD1710111+9999MW1021
0057295510999991971030506004+56200+087750FM-12+013499999V0202001N00101220001CN0200001N9-01721-02281104381ADDAY101999GF100991001001999999001001MD1710111+9999MW1011
0057295510999991971030509004+56200+087750FM-12+013499999V0203201N00311220001CN0200001N9-01611-02281104151ADDAY101999GF100991001001999999001001MD1710181+9999MW1021
0081295510999991971030512004+56200+087750FM-12+013499999V0202701N00211220001CN0200001N9-01891-02501104031ADDAA199000091AY101999GF100991001001999999001001KA1999M-01611MD1810071+9999MW1021
0057295510999991971030515004+56200+087750FM-12+013499999V0202301N00311220001CN0100001N9-02111-02611104151ADDAY101999GF100991001001999999001001MD1410001+9999MW1021
0057295510999991971030518004+56200+087750FM-12+013499999V0202301N00411220001CN0100001N9-02721-03001104191ADDAY101999GF100991001001999999001001MD1410001+9999MW1021
0057295510999991971030521004+56200+087750FM-12+013499999V0201801N00211220001CN0100001N9-02781-03001104191ADDAY101999GF100991001001999999001001MD1610011+9999MW1021
0106295510999991971030600004+56200+087750FM-12+013499999V0201801N00211220001CN0100001N9-03001-03221104251ADDAA199000091AY101999GF100991001001999999001001HL10009IA1209IA2999-03619KA1999N-03221MD1310041+9999MW1021
0057295510999991971030603004+56200+087750FM-12+013499999V0209991C00001220001CN0020001N9-02781-03001104301ADDAY111999GF108991001001999999001011MD1710061+9999MW1041
0057295510999991971030606004+56200+087750FM-12+013499999V0209991C00001220001CN0200001N9-01612-02281104191ADDAY111999GF102991001001999999001011MD1510021+9999MW1021
0057295510999991971030609004+56200+087750FM-12+013499999V0209991C00001220001CN0200001N9-01611-02281104191ADDAY111999GF102991001001999999001011MD1510021+9999MW1021
0081295510999991971030612004+56200+087750FM-12+013499999V0209991C00001220001CN0200001N9-01611-02391104101ADDAA199000091AY101999GF100991001001999999001001KA1999M-01281MD1710011+9999MW1021
0057295510999991971030618004+56200+087750FM-12+013499999V0209991C00001220001CN0100001N9-02501-02781104211ADDAY101999GF100991001001999999001001MD1510041+9999MW1021
0057295510999991971030621004+56200+087750FM-12+013499999V0209991C00001220001CN0100001N9-02891-03111104251ADDAY101999GF100991001001999999001001MD1510001+9999MW1021
0106295510999991971030700004+56200+087750FM-12+013499999V0209991C00001220001CN0100001N9-03111-03281104271ADDAA199000091AY101999GF100991001001999999001001HL10009IA1209IA2999-03619KA1999N-03111MD1210011+9999MW1021
0057295510999991971030703004+56200+087750FM-12+013499999V0209991C00001220001CN0100001N9-02891-03111104371ADDAY101999GF100991001001999999001001MD1310111+9999MW1021
0057295510999991971030706004+56200+087750FM-12+013499999V0209991C00001220001CN0100001N9-01721-02281104241ADDAY101999GF100991001001999999001001MD1610041+9999MW1011
0043295510999991971030709004+56200+087750FM-12+013499999V0209991C00001220001CN0200001N9-01221-02001104111ADDAY101999GF100991001001999999001001MW1021
0081295510999991971030712004+56200+087750FM-12+013499999V0209991C00001220001CN0040001N9-01501-02221104071ADDAA199000091AY101999GF103991001001999999001011KA1999M-01221MD1710041+9999MW1041
0057295510999991971030715004+56200+087750FM-12+013499999V0201801N00411220001CN0100001N9-01781-02221104131ADDAY111999GF108991001001999999001071MD1210021+9999MW1021
0106295510999991971030800004+56200+087750FM-12+013499999V0201801N00311220001CN0100001N9-02111-02391104311ADDAA199000091AY111999GF100991001001999999001001HL10009IA1209IA2999-02399KA1999N-02111MD1210081+9999MW1021
0057295510999991971030803004+56200+087750FM-12+013499999V0202001N00211220001CN0100001N9-01781-02111104401ADDAY111999GF108991001001999999001011MD1210111+9999MW1011
0057295510999991971030806004+56200+087750FM-12+013499999V0202501N00511220001CN0100001N9-01391-01781104431ADDAY101999GF100991001001999999001001MD1110041+9999MW1011
0057295510999991971030809004+56200+087750FM-12+013499999V0209991C00001220001CN0200001N9-00891-01611104401ADDAY101999GF100991001001999999001001MD1410001+9999MW1021
0081295510999991971030812004+56200+087750FM-12+013499999V0209991C00001220001CN0200001N9-01111-01721104451ADDAA199000091AY101999GF100991001001999999001001KA1999M-00891MD1310071+9999MW1021
0057295510999991971030815004+56200+087750FM-12+013499999V0202301N00511220001CN0100001N9-01611-02001104591ADDAY101999GF100991001001999999001001MD1210111+9999MW1021
0057295510999991971030818004+56200+087750FM-12+013499999V0201601N00411220001CN0100001N9-01781-02111104681ADDAY101999GF100991001001999999001001MD1110081+9999MW1021
0057295510999991971030821004+56200+087750FM-12+013499999V0201601N00411220001CN0100001N9-02001-02111104681ADDAY101999GF100991001001999999001001MD1110081+9999MW1021
0106295510999991971030900004+56200+087750FM-12+013499999V0201801N00411220001CN0100001N9-02111-02391104901ADDAA199000091AY101999GF100991001001999999001001HL10009IA1209IA2999-02509KA1999N-02111MD1310061+9999MW1021
0057295510999991971030906004+56200+087750FM-12+013499999V0202001N00411220001CN0200001N9-01221-01781999999ADDAY121999GF100991001001999999001001MD1210061+9999MW1021
0057295510999991971030909004+56200+087750FM-12+013499999V0201801N00511220001CN0200001N9-00891-01611104931ADDAY111999GF100991001001999999001001MD1810031+9999MW1011
0081295510999991971030912004+56200+087750FM-12+013499999V0201801N00411220001CN0200001N9-01221-01781999999ADDAA199000091AY111999GF100991001001999999001001KA1999M-00891MD1210051+9999MW1021
0057295510999991971030915004+56200+087750FM-12+013499999V0201801N00311220001CN0100001N9-01501-02111999999ADDAY111999GF100991001001999999001001MD1410001+9999MW1011
0057295510999991971030918004+56200+087750FM-12+013499999V0201601N00211220001CN0100001N9-02001-02391999999ADDAY111999GF100991001001999999001001MD1210071+9999MW1021
0106295510999991971031000004+56200+087750FM-12+013499999V0209991C00001220001CN0100001N9-02611-02891999999ADDAA199000091AY101999GF100991001001999999001001HL10009IA1209IA2999-03289KA1999N-02721MD1710011+9999MW1021
0057295510999991971031003004+56200+087750FM-12+013499999V0209991C00001220001CN0040001N9-02391-02721999999ADDAY101999GF100991001001999999001001MD1010041+9999MW1041
0057295510999991971031006004+56200+087750FM-12+013499999V0200901N00311220001CN0200001N9-01221-01612999999ADDAY101999GF100991001001999999001001MD1710091+9999MW1021
0057295510999991971031009004+56200+087750FM-12+013499999V0200901N00101220001CN0200001N9-00781-01611104821ADDAY101999GF100991001001999999001001MD1710151+9999MW1021
0081295510999991971031012004+56200+087750FM-12+013499999V0200901N00311220001CN0200001N9-00891-01611104761ADDAA199000091AY101999GF100991001001999999001001KA1999M-00721MD1710091+9999MW1021
0057295510999991971031015004+56200+087750FM-12+013499999V0200901N00101220001CN0200001N9-01501-02001104791ADDAY101999GF100991001001999999001001MD1410001+9999MW1021
0057295510999991971031018004+56200+087750FM-12+013499999V0201101N00311220001CN0200001N9-01721-02001104761ADDAY101999GF100991001001999999001001MD1610061+9999MW1021
0057295510999991971031021004+56200+087750FM-12+013499999V0201101N00411220001CN0200001N9-02111-02281104741ADDAY101999GF100991001001999999001001MD1710041+9999MW1021
0057295510999991971031100004+56200+087750FM-12+013499999V0201401N00411220001CN0200001N9-02221-02281104741ADDAY101999GF100991001001999999001001MD1410001+9999MW1021
0057295510999991971031103004+56200+087750FM-12+013499999V0200901N00311220001CN0200001N9-01891-02111104761ADDAY101999GF100991001001999999001001MD1510031+9999MW1021
0043295510999991971031106004+56200+087750FM-12+013499999V0200901N00411220001CN0200001N9-01001-01611104561ADDAY101999GF100991001001999999001001MW1021
0057295510999991971031109004+56200+087750FM-12+013499999V0200901N00411220001CN0200001N9-00501-01501104451ADDAY101999GF100991001001999999001001MD1710091+9999MW1021
0081295510999991971031112004+56200+087750FM-12+013499999V0200901N00311220001CN0100001N9-00611-01611104421ADDAA199000091AY101999GF100991001001999999001001KA1999M-00391MD1510031+9999MW1021
0057295510999991971031115004+56200+087750FM-12+013499999V0200901N00211220001CN0100001N9-01111-01611104431ADDAY101999GF100991001001999999001001MD1710021+9999MW1021
0057295510999991971031118004+56200+087750FM-12+013499999V0200901N00411220001CN0100001N9-01391-01781104351ADDAY101999GF100991001001999999001001MD1710101+9999MW1021
0057295510999991971031121004+56200+087750FM-12+013499999V0200901N00511220001CN0100001N9-01611-01891104271ADDAY101999GF100991001001999999001001MD1710101+9999MW1021
0106295510999991971031200004+56200+087750FM-12+013499999V0200901N00621220001CN0200001N9-01721-01891104161ADDAA199000091AY101999GF100991001001999999001001HL10009IA1209IA2999-02289KA1999N-01781MD1710111+9999MW1021
0057295510999991971031203004+56200+087750FM-12+013499999V0200701N00511220001CN0200001N9-01391-01721104041ADDAY101999GF100991001001999999001001MD1710091+9999MW1021
0057295510999991971031206004+56200+087750FM-12+013499999V0200901N00721220001CN0200001N9-00721-01611103841ADDAY101999GF100991001001999999001001MD1710161+9999MW1021
0057295510999991971031209004+56200+087750FM-12+013499999V0200901N00511220001CN0200001N9-00221-01281103651ADDAY101999GF100991001001999999001001MD1610151+9999MW1021
0081295510999991971031212004+56200+087750FM-12+013499999V0200901N00411220001CN0200001N9-00391-01391103661ADDAA199000091AY101999GF100991001001999999001001KA1999M-00221MD1410001+9999MW1021
0057295510999991971031215004+56200+087750FM-12+013499999V0200901N00621220001CN0100001N9-00781-01721103621ADDAY101999GF100991001001999999001001MD1010181+9999MW1021
0057295510999991971031218004+56200+087750FM-12+013499999V0200901N00621220001CN0100001N9-01001-01721103501ADDAY101999GF100991001001999999001001MD1710121+9999MW1021
0106295510999991971031300004+56200+087750FM-12+013499999V0200901N00511220001CN0100001N9-01391-01891103411ADDAA199000091AY101999GF100991001001999999001001HL10009IA1209IA2999-02399KA1999N-01501MD1310011+9999MW1021
0057295510999991971031303004+56200+087750FM-12+013499999V0200501N00511220001CN0200001N9-01111-01721103511ADDAY101999GF100991001001999999001001MD1710021+9999MW1021
0057295510999991971031306004+56200+087750FM-12+013499999V0200701N00211220001CN0200001N9-00611-01281103291ADDAY101999GF100991001001999999001001MD1610091+9999MW1021
0057295510999991971031309004+56200+087750FM-12+013499999V0200901N00211220001CN0200001N9-00221-01111103121ADDAY101999GF100991001001999999001001MD1710141+9999MW1021
0081295510999991971031312004+56200+087750FM-12+013499999V0200901N00411220001CN0200001N9-00221-01281103101ADDAA199000091AY101999GF100991001001999999001001KA1999M-00221MD1710021+9999MW1021
0057295510999991971031318004+56200+087750FM-12+013499999V0200501N00101220001CN0100001N9-01501-02001103221ADDAY101999GF100991001001999999001001MD1410001+9999MW1021
0106295510999991971031400004+56200+087750FM-12+013499999V0200501N00511220001CN0100001N9-01721-01781103351ADDAA199000091AY101999GF100991001001999999001001HL10009IA1209IA2999-02619KA1999N-02001MD1210091+9999MW1021
0057295510999991971031403004+56200+087750FM-12+013499999V0209991C00001220001CN0200001N9-01221-01501103521ADDAY101999GF100991001001999999001001MD1210211+9999MW1021
0057295510999991971031406004+56200+087750FM-12+013499999V0200901N00511220001CN0200001N9-00501-01891103451ADDAY101999GF100991001001999999001001MD1510021+9999MW1021
0057295510999991971031409004+56200+087750FM-12+013499999V0200901N00511220001CN0200001N9+00001-01221103281ADDAY101999GF100991001001999999001001MD1610131+9999MW1021
0081295510999991971031412004+56200+087750FM-12+013499999V0201101N00511220001CN0200001N9-00111-01221103191ADDAA199000091AY101999GF100991001001999999001001KA1999M+00001MD1710101+9999MW1021
0057295510999991971031415004+56200+087750FM-12+013499999V0200701N00411220001CN0200001N9-00611-01281103081ADDAY101999GF100991001001999999001001MD1710141+9999MW1021
0057295510999991971031418004+56200+087750FM-12+013499999V0200701N00311220001CN0200001N9-00891-01391102881ADDAY101999GF100991001001999999001001MD1710201+9999MW1021
0057295510999991971031421004+56200+087750FM-12+013499999V0200701N00411220001CN0200001N9-01111-01501102691ADDAY101999GF100991001001999999001001MD1710201+9999MW1021
0081295510999991971031500004+56200+087750FM-12+013499999V0200901N00621220001CN0200001N9-01111-01501102451ADDAA199000091AY101999GF100991001001999999001001KA1999N-01221MD1710241+9999MW1021
0076295510999991971031503004+56200+087750FM-12+013499999V0200901N00721220001CN0200001N9-00781-01391102281ADDAY111999GF102991999999999999001001MD1510141+9999MW1021EQDQ01+000002SCOTLC
0057295510999991971031506004+56200+087750FM-12+013499999V0200701N00721220001CN0200001N9-00281-01111101961ADDAY111999GF106991001001999999001011MD1710281+9999MW1021
0057295510999991971031509004+56200+087750FM-12+013499999V0201101N00721220001CN0200001N9-00111-01001101841ADDAY121999GF106991001001999999001011MD1710111+9999MW1021
0081295510999991971031512004+56200+087750FM-12+013499999V0200901N00511220001CN0200001N9-00111-01111101891ADDAA199000091AY121999GF107991001001999999001021KA1999M-00111MD1210051+9999MW1021
0057295510999991971031515004+56200+087750FM-12+013499999V0200901N00511024001CN0020001N9-00391-00611102011ADDAY171999GF108991081001999999021999MD1210111+9999MW1731
0057295510999991971031518004+56200+087750FM-12+013499999V0200901N00211024001CN0020001N9-00391-00501102111ADDAY171999GF108991081001999999021999MD1210091+9999MW1731
0133295510999991971031600004+56200+087750FM-12+013499999V0202301N00621006001CN0100001N9-00281-00501102501ADDAA106008091AA299002091AY171999GA1081+006009059GF108991081051008001999999HL10009IA1319IA2999-00619KA1999N-00501MD1210201+9999MW1711
0073295510999991971031603004+56200+087750FM-12+013499999V0202001N00721006301CN0040001N9-00281-00391102641ADDAY171999GA1081+006309059GF108991081051008001999999MD1210071+9999MW1711
0073295510999991971031606004+56200+087750FM-12+013499999V0202001N00721008701CN0200001N9-00111-00611102711ADDAY171999GA1081+008709059GF108991081051008001999999MD1210081+9999MW1021
0073295510999991971031609004+56200+087750FM-12+013499999V0202301N00721010501CN0200001N9+00001-00611102681ADDAY171999GA1081+010509059GF108991081051012501999999MD1510021+9999MW1021
0108295510999991971031612004+56200+087750FM-12+013499999V0202301N00721010201CN0200001N9-00111-00501102611ADDAA106075091AA224999999AY121999GA1081+010209059GF108991081051012501999999KA1999M+00001MD1810071+9999MW1021
0073295510999991971031615004+56200+087750FM-12+013499999V0202301N00621010501CN0100001N9-00221-00391102401ADDAY121999GA1081+010509059GF108991081051012501999999MD1710211+9999MW1021
0073295510999991971031618004+56200+087750FM-12+013499999V0202301N00721010201CN0100001N9-00111-00281102171ADDAY121999GA1081+010209059GF108991081051012501999999MD1710231+9999MW1021
0073295510999991971031621004+56200+087750FM-12+013499999V0202301N00511010501CN0100001N9-00221-00391101831ADDAY121999GA1081+010509059GF108991081051012501999999MD1710331+9999MW1021
0122295510999991971031700004+56200+087750FM-12+013499999V0202301N00411010201CN0100001N9-00281-00611101471ADDAA199000091AY121999GA1081+010209059GF108991081051012501999999HL10009IA1209IA2999-00509KA1999N-00391MD1710361+9999MW1021
0057295510999991971031703004+56200+087750FM-12+013499999V0201401N00511220001CN0200001N9-00111-00721100951ADDAY121999GF108991001001999999001011MD1710501+9999MW1021
0057295510999991971031706004+56200+087750FM-12+013499999V0201601N00211220001CN0200001N9+00501-00501100691ADDAY121999GF108991001001999999001011MD1710211+9999MW1021
0057295510999991971031709004+56200+087750FM-12+013499999V0202301N01391007801CN0200001N9+00721-00391100461ADDAY121999GF108991081071008001999999MD1710211+9999MW1021
0068295510999991971031712004+56200+087750FM-12+013499999V0202301N01391024001CN0200001N9+00501-00391100421ADDAA199000091AY121999GF108991081001999999021999MD1810071+9999MW1021
0057295510999991971031715004+56200+087750FM-12+013499999V0202301N01181024001CN0200001N9+00391-00111100401ADDAY121999GF108991081001999999021999MD1710021+9999MW1021
0057295510999991971031718004+56200+087750FM-12+013499999V0201601N01591024001CN0200001N9+00111+00001100641ADDAY121999GF108991081001999999021999MD1210201+9999MW1021
0057295510999991971031721004+56200+087750FM-12+013499999V0201601N01591024001CN0200001N9+00111+00001100661ADDAY121999GF108991081001999999021999MD1210201+9999MW1021
0122295510999991971031800004+56200+087750FM-12+013499999V0201601N01801004201CN0200001N9+00001-00111100541ADDAA199000091AY121999GA1081+004209059GF108991081051004501999999HL10009IA1209IA2999-00229KA1999N+00001MD1810111+9999MW1021
0057295510999991971031803004+56200+087750FM-12+013499999V0202301N01591024001CN0020001N9-00221-00501100381ADDAY171999GF108991081001999999021999MD1510151+9999MW1731
0057295510999991971031806004+56200+087750FM-12+013499999V0202301N01591030001CN0040001N9-00281-00721100371ADDAY171999GF108991021071004501021999MD1510021+9999MW1711
0057295510999991971031809004+56200+087750FM-12+013499999V0202301N01801024001CN0040001N9-00281-00611100361ADDAY171999GF108991081001999999021999MD1510001+9999MW1711
0092295510999991971031812004+56200+087750FM-12+013499999V0202301N01591024001CN0020001N9-00281-00611100371ADDAA106075091AA224999999AY171999GF108991081001999999021999KA1999M-00221MD1510001+9999MW1731
0057295510999991971031815004+56200+087750FM-12+013499999V0202301N01391024001CN0040001N9-00281-00611100561ADDAY171999GF108991081001999999021999MD1210181+9999MW1711
0057295510999991971031818004+56200+087750FM-12+013499999V0202301N011819999999N0040001N9-00721-01001101081ADDAY171999GF108991011091001501999999MD1210481+9999MW1711
0103295510999991971031900004+56200+087750FM-12+013499999V0202301N006219999999N0100001N9-00781-01001101631ADDAA106001091AA299000391AY171999GF108991999999999999999999HL10009IA1209IA2999-01399KA1999N-01001MW1781
0057295510999991971031903004+56200+087750FM-12+013499999V0202301N00981024001CN0040001N9-00781-01111101731ADDAY171999GF108991081001999999021999MD1210101+9999MW1711
0057295510999991971031906004+56200+087750FM-12+013499999V0202301N01181024001CN0010001N9-00611-01001101901ADDAY171999GF108991081001999999021999MD1210181+9999MW1711
0057295510999991971031909004+56200+087750FM-12+013499999V0202501N01391024001CN0040001N9-00501-01001101921ADDAY171999GF108991081001999999021999MD1210021+9999MW1711
0057295510999991971031915004+56200+087750FM-12+013499999V0202501N01181024001CN0040001N9-00781-01221102181ADDAY171999GF107991071001999999031001MD1810091+9999MW1711
0057295510999991971031918004+56200+087750FM-12+013499999V0202501N00871024001CN0040001N9-00721-01001102201ADDAY171999GF108991081001999999021999MD1210021+9999MW1711
0057295510999991971031921004+56200+087750FM-12+013499999V0202501N00871024001CN0040001N9-00781-01001102301ADDAY171999GF108991081001999999021999MD1210101+9999MW1711
0117295510999991971032000004+56200+087750FM-12+013499999V0202501N00871024001CN0040001N9-00781-01001102401ADDAA106001091AA299000391AY171999GF108991081001999999021999HL10009IA1209IA2999-01229KA1999N-00891MD1210101+9999MW1711
0057295510999991971032003004+56200+087750FM-12+013499999V0202301N00621220001CN0100001N9-00611-00891102481ADDAY171999GF108991001001999999001011MD1210091+9999MW1711
0057295510999991971032006004+56200+087750FM-12+013499999V0202301N00411220001CN0200001N9-00281-00501102481ADDAY171999GF108991031011004501001011MD1110021+9999MW1221
0057295510999991971032009004+56200+087750FM-12+013499999V0202501N00871024001CN0040001N9-00221-00281102411ADDAY171999GF108991081001999999021999MD1810071+9999MW1711
0092295510999991971032012004+56200+087750FM-12+013499999V0202001N00511220001CN0200001N9-00281-00501102461ADDAA106001091AA299000391AY171999GF108991021031008001001011KA1999M-00221MD1210051+9999MW1781
0057295510999991971032015004+56200+087750FM-12+013499999V0202001N00721030001CN0100001N9-00391-00781102371ADDAY171999GF108991021071008001021999MD1710111+9999MW1021
0057295510999991971032018004+56200+087750FM-12+013499999V0202301N00821024001CN0100001N9-00391-00721102211ADDAY121999GF108991081001999999021999MD1710141+9999MW1021
0057295510999991971032021004+56200+087750FM-12+013499999V0202301N00721024001CN0100001N9-00391-00781102021ADDAY121999GF108991081001999999021999MD1710181+9999MW1021
0117295510999991971032100004+56200+087750FM-12+013499999V0202001N00721024001CN0200001N9-00391-00781101781ADDAA106075091AA224999999AY121999GF108991081001999999021999HL10009IA1209IA2999-00729KA1999N-00501MD1710241+9999MW1021
0057295510999991971032103004+56200+087750FM-12+013499999V0202001N00871220001CN0200001N9-00111-01001101251ADDAY121999GF108991001001999999001071MD1710291+9999MW1021
0081295510999991971032112004+56200+087750FM-12+013499999V0202301N00981220001CN0200001N9+00001-00501100801ADDAA199000091AY121999GF108991001001999999021999KA1999M+00111MD1710201+9999MW1021
0057295510999991971032115004+56200+087750FM-12+013499999V0202301N00871220001CN0100001N9-00221-00391100701ADDAY111999GF100991001001999999001001MD1810071+9999MW1011
0057295510999991971032118004+56200+087750FM-12+013499999V0202501N00871220001CN0100001N9-00391-00611100791ADDAY121999GF100991001001999999001001MD1710021+9999MW1001
0057295510999991971032121004+56200+087750FM-12+013499999V0202001N00871220001CN0100001N9-00611-00891101171ADDAY101999GF100991001001999999001001MD1210351+9999MW1021
0057295510999991971032200004+56200+087750FM-12+013499999V0202301N00721220001CN0100001N9-00721-01221101241ADDAY101999GF100991001001999999001001MD1210061+9999MW1021
0057295510999991971032203004+56200+087750FM-12+013499999V0202001N00871220001CN0200001N9-00391-00891101121ADDAY111999GF100991001001999999001001MD1710091+9999MW1021
0057295510999991971032206004+56200+087750FM-12+013499999V0202001N01181220001CN0200001N9+00001-00721100941ADDAY111999GF107991001001999999001091MD1710151+9999MW1021
0081295510999991971032212004+56200+087750FM-12+013499999V0202001N01181220001CN0200001N9+00221-01221100591ADDAA199000091AY121999GF107991001001999999001011KA1999M+00221MD1710111+9999MW1021
