0106295530999991971010100004+56233+089583FM-12+029199999V0209991C00001220001CN0170001N9-02501-02721104021ADDAA199000091AY101999GF100991001001999999001001HL10009IA1319IA2999-03289KA1999N-02501MD1210011+9999MW1021
0057295530999991971010103004+56233+089583FM-12+029199999V0200901N00101220001CN0040001N9-02721-02891104071ADDAY101999GF101991001001999999001011MD1210011+9999MW1041
0057295530999991971010106004+56233+089583FM-12+029199999V0200901N00211220001CN0130001N9-02221-02391104001ADDAY101999GF100991001001999999001001MD1210011+9999MW1021
0057295530999991971010109004+56233+089583FM-12+029199999V0200701N00101220001CN0140001N9-02111-02281103981ADDAY101999GF100991001001999999001001MD1410001+9999MW1021
0081295530999991971010112004+56233+089583FM-12+029199999V0200901N00101220001CN0040001N9-02611-02891104081ADDAA199000091AY101999GF100991001001999999001001KA1999M-02001MD1310021+9999MW1101
0057295530999991971010115004+56233+089583FM-12+029199999V0201101N00101220001CN0040001N9-02501-02891104091ADDAY101999GF100991001001999999001001MD1810011+9999MW1101
0057295530999991971010118004+56233+089583FM-12+029199999V0201101N00211220001CN0080001N9-02281-02501103921ADDAY101999GF100991001001999999001001MD1710091+9999MW1101
0076295530999991971010121004+56233+089583FM-12+029199999V0201401N00211220001CN0070001N9-02221-02391103881ADDAY101999GF100991001001999999001001MD1710031+9999MW1101EQDQ01    993SCOTCV
0106295530999991971010200004+56233+089583FM-12+029199999V0201601N00211220001CN0070001N9-02001-02221103771ADDAA199000091AY101999GF100991001001999999001001HL10009IA1319IA2999-03229KA1999N-02781MD1710081+9999MW1101
0057295530999991971010206004+56233+089583FM-12+029199999V0201601N00311220001CN0210001N9-01611-01891103421ADDAY121999GF103991001001999999001011MD1710141+9999MW1021
0081295530999991971010212004+56233+089583FM-12+029199999V0202301N00621024001CN0170001N9-00721-01111102761ADDAA199000091AY121999GF108991081001999999071999KA1999M-00721MD1710291+9999MW1021
0057295530999991971010215004+56233+089583FM-12+029199999V0202301N00821007801CN0034001N9-00721-00891102521ADDAY181999GF108991081091008001999999MD1710231+9999MW1861
0057295530999991971010218004+56233+089583FM-12+029199999V0202301N00621007801CN0033001N9-00721-00781102391ADDAY181999GF108991081091008001999999MD1710121+9999MW1861
0057295530999991971010221004+56233+089583FM-12+029199999V0202301N00871007801CN0029001N9-00611-00781102071ADDAY181999GF108991081091008001999999MD1710301+9999MW1861
0117295530999991971010300004+56233+089583FM-12+029199999V0202301N00511007801CN0029001N9-00501-00611101831ADDAA106012091AA299003091AY181999GF108991081091008001999999HL10009IA1319IA2999-01009KA1999N-00721MD1710221+9999MW1861
0057295530999991971010303004+56233+089583FM-12+029199999V0202301N00981030001CN0190001N9-00281-00611101701ADDAY181999GF108991031091012501071999MD1710091+9999MW1381
0057295530999991971010306004+56233+089583FM-12+029199999V0202501N00981030001CN0080001N9-00281-00781101521ADDAY181999GF108991031091012501071999MD1710121+9999MW1381
0057295530999991971010309004+56233+089583FM-12+029199999V0202301N00981030001CN0180001N9-00221-00781101411ADDAY181999GF107991041091008001031001MD1710151+9999MW1381
0092295530999991971010312004+56233+089583FM-12+029199999V0202301N00981030001CN0160001N9-00221-00721101081ADDAA106008091AA299002091AY181999GF108991041091008001071999KA1999M-00221MD1710321+9999MW1381
0057295530999991971010318004+56233+089583FM-12+029199999V0202301N01181007801CN0035001N9-00111-00781100691ADDAY181999GF108991081091008001999999MD1710201+9999MW1861
0103295530999991971010400004+56233+089583FM-12+029199999V0202001N00981007801CN0029001N9-00391-00611100681ADDAA106002091AA299000591AY181999GF108991081091008001999999HL10009IA1319IA2999-00509KA1999N-00391MW1861
0057295530999991971010406004+56233+089583FM-12+029199999V0202501N01181007801CN0070001N9-00781-01281101061ADDAY181999GF106991061091008001001001MD1210271+9999MW1851
0057295530999991971010409004+56233+089583FM-12+029199999V0202501N01081007801CN0060001N9-00891-01281101261ADDAY181999GF107991071091008001001001MD1210171+9999MW1851
0092295530999991971010412004+56233+089583FM-12+029199999V0202301N00621007801CN0060001N9-00891-01391101431ADDAA106002091AA299000591AY181999GF107991061091008001001011KA1999M-00391MD1210171+9999MW1851
0043295530999991971010415004+56233+089583FM-12+029199999V0202501N00621007801CN0049001N9-01001-01391101611ADDAY181999GF108991081091008001999999MW1851
0057295530999991971010418004+56233+089583FM-12+029199999V0202501N00621007801CN0050001N9-01221-01501101951ADDAY181999GF108991081091008001999999MD1210291+9999MW1851
0057295530999991971010421004+56233+089583FM-12+029199999V0202501N00511007801CN0050001N9-01281-01611102291ADDAY181999GF108991081091008001999999MD1210311+9999MW1851
0117295530999991971010500004+56233+089583FM-12+029199999V0202901N00411007801CN0050001N9-01501-01781102831ADDAA106002091AA299000591AY181999GF105991051091008001001001HL10009IA1319IA2999-01619KA1999N-01501MD1210491+9999MW1851
0057295530999991971010503004+56233+089583FM-12+029199999V0202501N00411220001CN0080001N9-01721-02001103181ADDAY181999GF102991001001999999001011MD1210311+9999MW1041
0057295530999991971010506004+56233+089583FM-12+029199999V0202301N00511220001CN0200001N9-01391-01781103401ADDAY181999GF107991001001999999001061MD1210271+9999MW1361
0057295530999991971010509004+56233+089583FM-12+029199999V0202301N00621220001CN0210001N9-01281-01891103631ADDAY131999GF108991001001999999001071MD1210141+9999MW1361
0092295530999991971010512004+56233+089583FM-12+029199999V0202301N00721220001CN0220001N9-01501-02111103651ADDAA106075091AA224999999AY131999GF103991001001999999001051KA1999M-01281MD1210081+9999MW1361
0057295530999991971010518004+56233+089583FM-12+029199999V0202001N00621220001CN0240001N9-01611-02221103611ADDAY131999GF103991001001999999001011MD1810161+9999MW1361
0057295530999991971010521004+56233+089583FM-12+029199999V0201801N00721220001CN0240001N9-01501-02221103181ADDAY131999GF105991001001999999001011MD1710401+9999MW1361
0106295530999991971010600004+56233+089583FM-12+029199999V0201601N00721024001CN0210001N9-01281-02111102731ADDAA199000091AY131999GF107991061001999999071011HL10009IA1319IA2999-01899KA1999N-01611MD1710401+9999MW1361
0057295530999991971010603004+56233+089583FM-12+029199999V0201601N00981024001CN0200001N9-01281-02111102311ADDAY131999GF108991081001999999071999MD1710411+9999MW1361
0076295530999991971010606004+56233+089583FM-12+029199999V0201601N00821012301CN0150001N9-01221-01891101921ADDAY131999GF108991999021012501071999MD1710361+9999MW1361EQDQ01+000082SCOTLC
0057295530999991971010609004+56233+089583FM-12+029199999V0202001N00721012301CN0080001N9-00721-01501101691ADDAY181999GF108991081091012501999999MD1710131+9999MW1851
0092295530999991971010612004+56233+089583FM-12+029199999V0202501N00511007801CN0080001N9-00891-01111101931ADDAA106075091AA224999999AY181999GF106991061091008001001001KA1999M-00611MD1310181+9999MW1861
0043295530999991971010615004+56233+089583FM-12+029199999V0202501N00511007801CN0110001N9-00891-01281102031ADDAY181999GF108991081091008001999999MW1851
0057295530999991971010618004+56233+089583FM-12+029199999V0202501N00511007801CN0110001N9-00891-01221102091ADDAY181999GF108991081091008001999999MD1210051+9999MW1851
0057295530999991971010621004+56233+089583FM-12+029199999V0202301N00411007801CN0100001N9-00891-01221102221ADDAY181999GF107991071091008001001001MD1210131+9999MW1851
0117295530999991971010700004+56233+089583FM-12+029199999V0202301N00411012301CN0080001N9-01001-01221102311ADDAA106001091AA299000391AY181999GF108991051091012501071999HL10009IA1319IA2999-01119KA1999N-01001MD1210081+9999MW1851
0057295530999991971010703004+56233+089583FM-12+029199999V0202301N00311007801CN0060001N9-01001-01221102421ADDAY181999GF108991081091008001999999MD1210111+9999MW1851
0057295530999991971010706004+56233+089583FM-12+029199999V0202001N00311024001CN0110001N9-00891-01281102211ADDAY181999GF108991051001999999071071MD1810201+9999MW1711
0057295530999991971010709004+56233+089583FM-12+029199999V0201801N00311024001CN0250001N9-00781-01281101911ADDAY171999GF108991081001999999071999MD1710271+9999MW1021
0092295530999991971010712004+56233+089583FM-12+029199999V0201601N00511030001CN0190001N9-00781-01281101471ADDAA106001091AA299000391AY171999GF108991041071008001071999KA1999M-00781MD1710421+9999MW1021
0057295530999991971010715004+56233+089583FM-12+029199999V0201801N00621024001CN0090001N9-00611-01221100971ADDAY171999GF108991081001999999071999MD1710461+9999MW1711
0057295530999991971010718004+56233+089583FM-12+029199999V0202501N00871024001CN0046001N9-00611-01001100521ADDAY171999GF108991081001999999071999MD1710431+9999MW1731
0117295530999991971010800004+56233+089583FM-12+029199999V0202501N00821007801CN0017001N9-00891-01281100471ADDAA106004091AA299001091AY181999GF108991081091008001999999HL10009IA1319IA2999-01009KA1999N-01001MD1310151+9999MW1861
0057295530999991971010803004+56233+089583FM-12+029199999V0202701N00721007801CN0011001N9-01111-01281100861ADDAY181999GF108991081091008001999999MD1210351+9999MW1861
0057295530999991971010806004+56233+089583FM-12+029199999V0202501N00821007801CN0023001N9-01221-01501101201ADDAY181999GF108991081091008001999999MD1210321+9999MW1861
0057295530999991971010809004+56233+089583FM-12+029199999V0202501N00821007801CN0021001N9-01391-01721101521ADDAY181999GF106991061091008001001001MD1210281+9999MW1861
0092295530999991971010812004+56233+089583FM-12+029199999V0202501N00721007801CN0022001N9-01611-01891101791ADDAA106002091AA299000591AY181999GF106991061091008001001001KA1999M-00891MD1210221+9999MW1861
0057295530999991971010815004+56233+089583FM-12+029199999V0202501N00311220001CN0300001N9-01781-02111101871ADDAY181999GF103991001001999999001011MD1210051+9999MW1021
0057295530999991971010818004+56233+089583FM-12+029199999V0209991C00001220001CN0500001N9-01891-02221101821ADDAY181999GF103991001001999999001011MD1810061+9999MW1021
0057295530999991971010821004+56233+089583FM-12+029199999V0202001N00101220001CN0500001N9-02111-02391101841ADDAY121999GF108991001001999999001071MD1710011+9999MW1021
0117295530999991971010900004+56233+089583FM-12+029199999V0209991C00001024001CN0042001N9-01891-02111101621ADDAA106001091AA299000391AY171999GF108991081001999999011999HL10009IA1319IA2999-03009KA1999N-02111MD1710181+9999MW1711
0057295530999991971010903004+56233+089583FM-12+029199999V0202301N00621024001CN0070001N9-02001-02281101911ADDAY171999GF108991081001999999011999MD1310261+9999MW1711
0057295530999991971010906004+56233+089583FM-12+029199999V0202501N00621220001CN0180001N9-02111-02501102151ADDAY171999GF102991011001999999051011MD1210221+9999MW1361
0057295530999991971010909004+56233+089583FM-12+029199999V0202501N00511220001CN0150001N9-02111-02611102241ADDAY131999GF107991001001999999001021MD1210091+9999MW1021
0092295530999991971010912004+56233+089583FM-12+029199999V0202301N00101024001CN0040001N9-02391-02721102351ADDAA106075091AA224999999AY131999GF107991071001999999031001KA1999M-01781MD1210051+9999MW1041
0057295530999991971010918004+56233+089583FM-12+029199999V0209991C00001220001CN0080001N9-02501-02781102391ADDAY121999GF108991001001999999001071MD1210021+9999MW1101
0057295530999991971010921004+56233+089583FM-12+029199999V0209991C00001024001CN0070001N9-02281-02501102331ADDAY171999GF108991081001999999011999MD1810031+9999MW1711
0117295530999991971011000004+56233+089583FM-12+029199999V0201601N00211024001CN0031001N9-02111-02281102161ADDAA106004091AA299001091AY171999GF108991081001999999071999HL10009IA1319IA2999-03119KA1999N-02611MD1710131+9999MW1731
0057295530999991971011003004+56233+089583FM-12+029199999V0201601N00211024001CN0080001N9-02001-02221101911ADDAY171999GF108991081001999999071999MD1710211+9999MW1711
0057295530999991971011006004+56233+089583FM-12+029199999V0201601N00211024001CN0080001N9-01721-01891101831ADDAY171999GF108991081001999999071999MD1710051+9999MW1711
0057295530999991971011009004+56233+089583FM-12+029199999V0201601N00311012301CN0040001N9-01501-01721101621ADDAY181999GF108991081091012501999999MD1710171+9999MW1851
0092295530999991971011012004+56233+089583FM-12+029199999V0201601N00311012301CN0050001N9-01501-01721101461ADDAA106002091AA299000591AY181999GF108991081091012501999999KA1999M-01501MD1710151+9999MW1851
0057295530999991971011015004+56233+089583FM-12+029199999V0201801N00411024001CN0060001N9-01281-01501101201ADDAY181999GF108991081001999999011999MD1710231+9999MW1711
0057295530999991971011018004+56233+089583FM-12+029199999V0202001N00511024001CN0049001N9-01281-01501101051ADDAY171999GF108991081001999999011999MD1710141+9999MW1731
0057295530999991971011021004+56233+089583FM-12+029199999V0202301N00411024001CN0043001N9-01281-01501100981ADDAY171999GF108991081001999999011999MD1710071+9999MW1731
0117295530999991971011100004+56233+089583FM-12+029199999V0202701N00511220001CN0060001N9-01501-01781101171ADDAA106004091AA299001091AY171999GF108991001001999999001071HL10009IA1319IA2999-01619KA1999N-01501MD1310151+9999MW1711
0057295530999991971011103004+56233+089583FM-12+029199999V0202701N00311220001CN0080001N9-02111-02391101671ADDAY171999GF107991001001999999001021MD1210401+9999MW1711
0057295530999991971011106004+56233+089583FM-12+029199999V0202501N00621220001CN0080001N9-02221-02501101991ADDAY171999GF100991001001999999001001MD1210291+9999MW1101
0057295530999991971011109004+56233+089583FM-12+029199999V0202501N00511220001CN0070001N9-02221-02501102341ADDAY131999GF102991001001999999001011MD1210331+9999MW1101
0057295530999991971011112004+56233+089583FM-12+029199999V0202501N00511220001CN0070001N9-02221-02501102341ADDAY131999GF102991001001999999001011MD1210331+9999MW1101
0076295530999991971011118004+56233+089583FM-12+029199999V0201801N00621024001CN0070001N9-01721-02281101351ADDAY131999GF108991081001999999071999MD1710592+9999MW1101EQDQ01+000592APC3  
0057295530999991971011121004+56233+089583FM-12+029199999V0201801N00981007801CN0010001N9-01501-01721100581ADDAY181999GF108991081091008001999999MD1710771+9999MW1861
0117295530999991971011200004+56233+089583FM-12+029199999V0201801N00821007801CN0029001N9-00891-01281099931ADDAA106002091AA299000591AY181999GF108991081091008001999999HL10009IA1319IA2999-02399KA1999N-02111MD1710491+9999MW1861
0057295530999991971011203004+56233+089583FM-12+029199999V0202001N01291007801CN0007001N9-00781-01001099041ADDAY181999GF108991081091008001999999MD1710841+9999MW1861
0057295530999991971011206004+56233+089583FM-12+029199999V0202301N01181007801CN0004001N9-00781-00781098761ADDAY181999GF108991081091008001999999MD1710271+9999MW1861
0057295530999991971011209004+56233+089583FM-12+029199999V0202301N01291007801CN0004001N9-00721-00781098651ADDAY181999GF108991081091008001999999MD1710091+9999MW1861
0092295530999991971011212004+56233+089583FM-12+029199999V0202301N01491007801CN0006001N9-00721-00891098601ADDAA106004091AA299001091AY181999GF108991081091008001999999KA1999M-00281MD1710051+9999MW1861
0057295530999991971011218004+56233+089583FM-12+029199999V0202301N01391007801CN0003001N9-00501-00721098521ADDAY181999GF108991081091008001999999MD1710031+9999MW1861
0057295530999991971011221004+56233+089583FM-12+029199999V0202301N01181007801CN0009001N9-00611-00891098561ADDAY181999GF108991081091008001999999MD1310031+9999MW1861
0117295530999991971011300004+56233+089583FM-12+029199999V0202301N01181007801CN0011001N9-00611-01221098581ADDAA106004091AA299001091AY181999GF106991061091008001001001HL10009IA1319IA2999-00789KA1999N-00721MD1210021+9999MW1861
0057295530999991971011303004+56233+089583FM-12+029199999V0202301N00981030001CN0080001N9-00611-01221098761ADDAY181999GF108991021091008001071999MD1210171+9999MW1851
0057295530999991971011306004+56233+089583FM-12+029199999V0202301N00721030001CN0290001N9-00501-01111098801ADDAY181999GF108991021071008001071999MD1210051+9999MW1361
0043295530999991971011309004+56233+089583FM-12+029199999V0202301N00981030001CN0300001N9-00391-01721098791ADDAY131999GF108991041091008001071999MW1361
0092295530999991971011312004+56233+089583FM-12+029199999V0201601N00311007801CN0170001N9-00391-00781098811ADDAA106075091AA224999999AY181999GF108991081091008001999999KA1999M-00391MD1310021+9999MW1851
0057295530999991971011315004+56233+089583FM-12+029199999V0202001N00411075001CN0240001N9-00391-00781098801ADDAY181999GF107991021091008001001021MD1810011+9999MW1021
0057295530999991971011318004+56233+089583FM-12+029199999V0202301N00821007801CN0080001N9-00391-00781098811ADDAY181999GF106991061091008001001001MD1310011+9999MW1851
0057295530999991971011321004+56233+089583FM-12+029199999V0202301N00981007801CN0050001N9-00281-00721098991ADDAY181999GF107991071091008001001001MD1210191+9999MW1851
0117295530999991971011400004+56233+089583FM-12+029199999V0202301N00411220001CN0210001N9-00611-01111099221ADDAA106002091AA299000591AY181999GF102991021091008001001001HL10009IA1319IA2999-00899KA1999N-00611MD1210191+9999MW1261
0057295530999991971011403004+56233+089583FM-12+029199999V0201601N00211030001CN0500001N9-00721-01001099011ADDAY121999GF107991021091008001041011MD1810131+9999MW1031
0057295530999991971011406004+56233+089583FM-12+029199999V0201601N00511024001CN0500001N9-00391-00891098711ADDAY121999GF107991061001999999041011MD1710371+9999MW1021
0057295530999991971011409004+56233+089583FM-12+029199999V0201801N00621075001CN0200001N9-00221-00781098191ADDAY121999GF105991021091008001041071MD1710451+9999MW1021
0092295530999991971011412004+56233+089583FM-12+029199999V0202301N00871007801CN0005001N9-00391-00891098211ADDAA106002091AA299000591AY181999GF108991081091008001999999KA1999M-00111MD1710011+9999MW1861
0057295530999991971011415004+56233+089583FM-12+029199999V0202301N01391007801CN0005001N9-01891-02221098211ADDAY181999GF106991061091008001001001MD1310151+9999MW1861
0062295530999991971011418004+56233+089583FM-12+029199999V0202501N00821007801CN0020001N9-02501-02891100932ADDAY181999GF105991051091008001001001MW1861EQDQ01+100933APOSLP
0057295530999991971011421004+56233+089583FM-12+029199999V0202701N00621220001CN0200001N9-02721-03221101381ADDAY181999GF105991001001999999001061MD1210391+9999MW1261
0117295530999991971011500004+56233+089583FM-12+029199999V0202701N00311220001CN0200001N9-03001-03611101981ADDAA106004091AA299001091AY181999GF103991001001999999001051HL10009IA1319IA2999-03229KA1999N-03001MD1210531+9999MW1021
0057295530999991971011506004+56233+089583FM-12+029199999V0202001N00311220001CN0200001N9-02781-03281102171ADDAY121999GF107991001001999999001021MD1210101+9999MW1021
0057295530999991971011509004+56233+089583FM-12+029199999V0202501N00511220001CN0200001N9-02611-03221102301ADDAY121999GF100991001001999999001001MD1210161+9999MW1021
0057295530999991971011515004+56233+089583FM-12+029199999V0201801N00621220001CN0200001N9-02611-03221102451ADDAY101999GF101991001001999999001011MD1210021+9999MW1021
0057295530999991971011518004+56233+089583FM-12+029199999V0201601N00511220001CN0200001N9-02721-03221102461ADDAY101999GF101991001001999999001011MD1810011+9999MW1021
0057295530999991971011521004+56233+089583FM-12+029199999V0201801N00511220001CN0350001N9-02281-02891102401ADDAY121999GF108991001001999999001071MD1310011+9999MW1021
0106295530999991971011600004+56233+089583FM-12+029199999V0202001N00621024001CN0500001N9-01891-02721102231ADDAA199000091AY121999GF108991081001999999071999HL10009IA1319IA2999-03119KA1999N-02781MD1810111+9999MW1021
0057295530999991971011606004+56233+089583FM-12+029199999V0201801N00821024001CN0110001N9-01501-02001101891ADDAY171999GF108991081001999999021999MD1710161+9999MW1711
0070295530999991971011609004+56233+089583FM-12+029199999V0202001N00621024001CN0270001N9-01391-02001101751ADDAY171999GF108991081001999999021999MD1710121+9999EQDQ01+000252PRSWM1
0092295530999991971011612004+56233+089583FM-12+029199999V0202001N00821024001CN0060001N9-01281-02001101561ADDAA106075091AA224999999AY171999GF108991081001999999021999KA1999M-01281MD1710171+9999MW1711
0057295530999991971011615004+56233+089583FM-12+029199999V0202001N00621024001CN0100001N9-01281-01891101511ADDAY171999GF108991081001999999021999MD1710051+9999MW1711
0057295530999991971011618004+56233+089583FM-12+029199999V0202001N00871007801CN0050001N9-01111-01891101231ADDAY181999GF108991081091008001999999MD1710241+9999MW1851
0057295530999991971011621004+56233+089583FM-12+029199999V0202001N00871007801CN0050001N9-01221-01501101051ADDAY181999GF108991081091008001999999MD1710191+9999MW1851
0111295530999991971011700004+56233+089583FM-12+029199999V0202501N01081007801CN0005001N9-01111-01501100961ADDAA106002091AA299000591AY181999GF108991081091008001999999HL10009IA2999-01509KA1999N-01281MD1710071+9999MW1861
0092295530999991971011706004+56233+089583FM-12+029199999V0202701N01291007801CN0050001N9-02391-03001102732ADDAY181999GF105991051091008001001001MD1210682+9999MW1851EQDQ01+102733APOSLPQ02+000682APC3  
0057295530999991971011709004+56233+089583FM-12+029199999V0202501N00821220001CN0270001N9-02501-03281103221ADDAY181999GF106991001001999999001061MD1210461+9999MW1361
0092295530999991971011712004+56233+089583FM-12+029199999V0202501N00311220001CN0200001N9-02501-03281103551ADDAA106001091AA299000391AY181999GF104991001001999999001021KA1999M-02221MD1210321+9999MW1021
0057295530999991971011715004+56233+089583FM-12+029199999V0202701N00211220001CN0200001N9-02501-03281103671ADDAY121999GF108991001001999999001071MD1210121+9999MW1021
0057295530999991971011718004+56233+089583FM-12+029199999V0209991C00001075001CN0200001N9-02611-03281103821ADDAY121999GF108991021001999999041071MD1210121+9999MW1021
0057295530999991971011721004+56233+089583FM-12+029199999V0202301N00101220001CN0200001N9-02721-03221103961ADDAY121999GF107991001001999999001011MD1210121+9999MW1021
0106295530999991971011800004+56233+089583FM-12+029199999V0209991C00001220001CN0200001N9-02781-03281104121ADDAA199000091AY121999GF100991001001999999001001HL10009IA1319IA2999-03729KA1999N-02891MD1210141+9999MW1021
0057295530999991971011803004+56233+089583FM-12+029199999V0201401N00101220001CN0200001N9-03111-03501104421ADDAY101999GF101991001001999999001011MD1210231+9999MW1021
0057295530999991971011806004+56233+089583FM-12+029199999V0201401N00101220001CN0230001N9-02391-03001104321ADDAY101999GF100991001001999999001001MD1210021+9999MW1021
0057295530999991971011809004+56233+089583FM-12+029199999V0201401N00211220001CN0250001N9-02281-02891104311ADDAY101999GF100991001001999999001001MD1210011+9999MW1021
0081295530999991971011812004+56233+089583FM-12+029199999V0201101N00311220001CN0210001N9-02391-02891104211ADDAA199000091AY101999GF101991001001999999001011KA1999M-02281MD1810121+9999MW1021
0043295530999991971011815004+56233+089583FM-12+029199999V0201601N00511024001CN0250001N9-02001-02391103861ADDAY121999GF108991081001999999011999MW1031
0057295530999991971011818004+56233+089583FM-12+029199999V0201601N00721024001CN0260001N9-01611-01891103421ADDAY121999GF108991081001999999011999MD1710371+9999MW1021
0106295530999991971011900004+56233+089583FM-12+029199999V0201801N00721024001CN0250001N9-01221-01721102801ADDAA199000091AY121999GF108991081001999999071999HL10009IA1319IA2999-02729KA1999N-02391MD1710281+9999MW1021
0057295530999991971011903004+56233+089583FM-12+029199999V0202001N00721024001CN0500001N9-00501-01221102591ADDAY121999GF108991081001999999071999MD1710101+9999MW1021
0057295530999991971011906004+56233+089583FM-12+029199999V0202301N00621220001CN0200001N9-00391-01111102571ADDAY121999GF105991021001999999031011MD1710011+9999MW1021
0081295530999991971011912004+56233+089583FM-12+029199999V0202001N00721024001CN0140001N9-00501-01111102681ADDAA199000091AY121999GF108991081001999999071999KA1999M-00391MD1310091+9999MW1021
0043295530999991971011915004+56233+089583FM-12+029199999V0202001N00721012301CN0050001N9-00501-00891102611ADDAY181999GF107991071091012501001001MW1851
0057295530999991971011918004+56233+089583FM-12+029199999V0202001N00621024001CN0060001N9-00611-00781102561ADDAY181999GF108991081001999999011999MD1710061+9999MW1711
0057295530999991971011921004+56233+089583FM-12+029199999V0202301N00721024001CN0060001N9-00611-00891102581ADDAY171999GF108991081001999999011999MD1310021+9999MW1711
0117295530999991971012000004+56233+089583FM-12+029199999V0202001N00411007801CN0048001N9-00611-00721102611ADDAA106002091AA299000591AY181999GF107991071091008001001001HL10009IA1319IA2999-00899KA1999N-00721MD1210031+9999MW1851
0057295530999991971012003004+56233+089583FM-12+029199999V0202001N00311024001CN0060001N9-00611-00781102621ADDAY181999GF108991081001999999071999MD1210011+9999MW1711
0057295530999991971012006004+56233+089583FM-12+029199999V0202301N00311024001CN0060001N9-00501-00721102571ADDAY181999GF108991081001999999011999MD1810041+9999MW1711
0057295530999991971012009004+56233+089583FM-12+029199999V0202301N00211075001CN0190001N9-00611-00781102531ADDAY171999GF107991031001999999071021MD1710051+9999MW1021
0092295530999991971012012004+56233+089583FM-12+029199999V0201601N00211024001CN0039001N9-00611-00721102501ADDAA106002091AA299000591AY171999GF108991081001999999021999KA1999M-00501MD1710031+9999MW1731
0057295530999991971012015004+56233+089583FM-12+029199999V0201801N00101024001CN0070001N9-00501-00611102451ADDAY171999GF108991081001999999999999MD1710041+9999MW1711
0057295530999991971012018004+56233+089583FM-12+029199999V0201601N00411024001CN0080001N9-00611-00781102271ADDAY171999GF108991081001999999011999MD1710181+9999MW1101
0057295530999991971012021004+56233+089583FM-12+029199999V0201601N00411030001CN0170001N9-00781-01281102161ADDAY121999GF108991031051008001021999MD1710141+9999MW1021
0117295530999991971012100004+56233+089583FM-12+029199999V0202301N00411024001CN0050001N9-00891-01001102231ADDAA106002091AA299000591AY171999GF108991081001999999011999HL10009IA1319IA2999-01229KA1999N-01001MD1310051+9999MW1711
0057295530999991971012106004+56233+089583FM-12+029199999V0202301N00411024001CN0140001N9-00781-01001102161ADDAY171999GF107991071001999999051001MD1710011+9999MW1021
0092295530999991971012112004+56233+089583FM-12+029199999V0202301N00621030001CN0060001N9-00781-01281102221ADDAA106001091AA299000391AY181999GF107991041091008001071001KA1999M-00611MD1210051+9999MW1851
0057295530999991971012118004+56233+089583FM-12+029199999V0202301N00721007801CN0016001N9-00891-01111102331ADDAY181999GF108991081091008001999999MD1210041+9999MW1861
0057295530999991971012203004+56233+089583FM-12+029199999V0202501N00511007801CN0070001N9-01111-01391103101ADDAY181999GF108991081091008001999999MD1210251+9999MW1851
0057295530999991971012206004+56233+089583FM-12+029199999V0202501N00311007801CN0050001N9-01111-01501103181ADDAY181999GF107991051091008001001011MD1210071+9999MW1851
0057295530999991971012209004+56233+089583FM-12+029199999V0202501N00411007801CN0080001N9-01111-01501103201ADDAY181999GF107991051091008001041011MD1210021+9999MW1851
0092295530999991971012212004+56233+089583FM-12+029199999V0202001N00311007801CN0041001N9-01221-01501103171ADDAA106001091AA299000391AY181999GF107991051091008001001011KA1999M-01111MD1810071+9999MW1851
0057295530999991971012215004+56233+089583FM-12+029199999V0202301N00411007801CN0070001N9-01001-01391103001ADDAY181999GF108991061091008001001011MD1710131+9999MW1851
0057295530999991971012218004+56233+089583FM-12+029199999V0202301N00621007801CN0050001N9-00781-01111102891ADDAY181999GF108991081091008001999999MD1710091+9999MW1851
0057295530999991971012221004+56233+089583FM-12+029199999V0202301N00621007801CN0070001N9-00781-01221102851ADDAY181999GF108991061091008001071999MD1710021+9999MW1851
0117295530999991971012300004+56233+089583FM-12+029199999V0202001N00621007801CN0050001N9-00721-01001102791ADDAA106001091AA299000391AY181999GF108991061091008001071999HL10009IA1319IA2999-02009KA1999N-01221MD1710051+9999MW1851
0057295530999991971012303004+56233+089583FM-12+029199999V0202501N00311007801CN0049001N9-00781-00891102821ADDAY181999GF108991051091008001071999MD1310021+9999MW1851
0057295530999991971012306004+56233+089583FM-12+029199999V0202301N00511007801CN0070001N9-00721-00891102831ADDAY181999GF108991081091008001999999MD1210021+9999MW1851
0057295530999991971012309004+56233+089583FM-12+029199999V0202501N00411007801CN0100001N9-00781-01001103001ADDAY181999GF108991081091008001999999MD1210151+9999MW1151
0092295530999991971012312004+56233+089583FM-12+029199999V0202501N00511007801CN0036001N9-00781-00891103211ADDAA106002091AA299000591AY181999GF108991081091008001999999KA1999M-00721MD1210201+9999MW1861
0057295530999991971012315004+56233+089583FM-12+029199999V0202501N00511007801CN0042001N9-00891-01111103411ADDAY181999GF108991051091008001071999MD1210181+9999MW1851
0043295530999991971012318004+56233+089583FM-12+029199999V0202501N00511007801CN0037001N9-00891-01111103521ADDAY181999GF108991081091008001999999MW1861
0057295530999991971012321004+56233+089583FM-12+029199999V0202301N00411007801CN0050001N9-01001-01111103591ADDAY181999GF106991061091008001001001MD1210061+9999MW1851
0117295530999991971012400004+56233+089583FM-12+029199999V0202301N00411024001CN0080001N9-01001-01221103641ADDAA106002091AA299000591AY181999GF108991081001999999011999HL10009IA1319IA2999-01229KA1999N-01001MD1210051+9999MW1711
0057295530999991971012403004+56233+089583FM-12+029199999V0202301N00411024001CN0070001N9-01001-01221103711ADDAY171999GF107991071001999999071001MD1210071+9999MW1711
0057295530999991971012406004+56233+089583FM-12+029199999V0202301N00411220001CN0140001N9-01001-01281103681ADDAY171999GF102991021001999999051001MD1710031+9999MW1221
0057295530999991971012409004+56233+089583FM-12+029199999V0202301N00411220001CN0060001N9+99999+99999103671ADDAY181999GF106991041091008001001011MD1410001+9999MW1851
0092295530999991971012412004+56233+089583FM-12+029199999V0201801N00101220001CN0046001N9-01111-01281103681ADDAA106075091AA224999999AY181999GF107991021001999999041011KA1999M-00891MD1810021+9999MW1101
0057295530999991971012418004+56233+089583FM-12+029199999V0202301N00211024001CN0060001N9-01001-01281103561ADDAY121999GF108991081001999999021999MD1710021+9999MW1101
0117295530999991971012500004+56233+089583FM-12+029199999V0202001N00511007801CN0080001N9-01001-01391103351ADDAA106075091AA224999999AY171999GF106991061091008001001001HL10009IA1319IA2999-02009KA1999N-01221MD1710161+9999MW1711
0057295530999991971012503004+56233+089583FM-12+029199999V0202301N00621030001CN0060001N9-01001-01221103281ADDAY181999GF107991041091008001031001MD1710071+9999MW1851
0057295530999991971012506004+56233+089583FM-12+029199999V0202501N00411007801CN0019001N9-00891-01111103191ADDAY181999GF108991081091008001999999MD1710091+9999MW1861
0057295530999991971012509004+56233+089583FM-12+029199999V0202501N00621007801CN0017001N9-00891-01111103291ADDAY181999GF108991081091008001999999MD1310101+9999MW1861
0092295530999991971012512004+56233+089583FM-12+029199999V0202501N00511007801CN0045001N9-01001-01221103401ADDAA106004091AA299001091AY181999GF108991081091008001999999KA1999M-00891MD1210101+9999MW1861
0057295530999991971012515004+56233+089583FM-12+029199999V0202501N006219999999N0038001N9-01001-01221103501ADDAY181999GF108991081091999999999999MD1210101+9999MW1861
0057295530999991971012518004+56233+089583FM-12+029199999V0202501N00411007801CN0060001N9-01001-01221103501ADDAY181999GF108991081091008001999999MD1410001+9999MW1851
0057295530999991971012521004+56233+089583FM-12+029199999V0202301N00311007801CN0080001N9-01111-01281103541ADDAY181999GF108991081091008001999999MD1310021+9999MW1851
0117295530999991971012600004+56233+089583FM-12+029199999V0202301N00211220001CN0120001N9-01391-01501103611ADDAA106001091AA299000391AY181999GF107991031001999999011011HL10009IA1319IA2999-02009KA1999N-01391MD1210021+9999MW1711
0057295530999991971012603004+56233+089583FM-12+029199999V0201801N00211220001CN0150001N9-01391-01611103581ADDAY171999GF107991031001999999041011MD1810021+9999MW1041
0057295530999991971012606004+56233+089583FM-12+029199999V0202001N00411220001CN0250001N9-00891-01501103431ADDAY171999GF107991031001999999041011MD1710081+9999MW1021
0057295530999991971012609004+56233+089583FM-12+029199999V0202301N00311220001CN0280001N9-00781-01391103361ADDAY121999GF107991021001999999041011MD1710051+9999MW1021
0092295530999991971012612004+56233+089583FM-12+029199999V0202001N00411220001CN0100001N9-00891-01391103321ADDAA106075091AA224999999AY121999GF105991021001999999041011KA1999M-00781MD1710061+9999MW1041
0057295530999991971012615004+56233+089583FM-12+029199999V0201801N00511220001CN0220001N9-00891-01391103241ADDAY121999GF108991001001999999001071MD1710081+9999MW1021
0057295530999991971012618004+56233+089583FM-12+029199999V0202301N00511030001CN0250001N9-00721-01281103151ADDAY121999GF108991031051012501021999MD1710061+9999MW1031
0057295530999991971012621004+56233+089583FM-12+029199999V0202301N00511024001CN0240001N9-00721-01281103091ADDAY121999GF108991081001999999021999MD1710061+9999MW1021
0106295530999991971012700004+56233+089583FM-12+029199999V0202001N00311030001CN0200001N9-00721-01221103111ADDAA199000091AY121999GF108991031051012501071999HL10009IA1319IA2999-01289KA1999N-00891MD1310021+9999MW1021
0057295530999991971012703004+56233+089583FM-12+029199999V0201601N00311007801CN0011001N9-00891-01001103191ADDAY181999GF108991081091008001999999MD1210051+9999MW1861
0057295530999991971012706004+56233+089583FM-12+029199999V0201601N00211007801CN0050001N9-00781-00891103131ADDAY181999GF108991051091008001071999MD1810041+9999MW1851
0057295530999991971012709004+56233+089583FM-12+029199999V0201801N00211007801CN0048001N9-00721-00721103131ADDAY181999GF108991081091008001999999MD1310011+9999MW1861
0092295530999991971012712004+56233+089583FM-12+029199999V0201801N00211007801CN0047001N9-00781-00781103171ADDAA106008091AA299002091AY181999GF108991081091008001999999KA1999M-00611MD1210031+9999MW1861
0057295530999991971012718004+56233+089583FM-12+029199999V0201801N00101024001CN0080001N9-00781-00891103251ADDAY181999GF108991081001999999021999MD1210031+9999MW1711
0057295530999991971012803004+56233+089583FM-12+029199999V0201801N00101030001CN0090001N9-01001-01111103391ADDAY181999GF107991021091012501031001MD1210061+9999MW1851
0057295530999991971012806004+56233+089583FM-12+029199999V0201801N00211220001CN0090001N9-00721-00891103311ADDAY181999GF103991021999012501031011MD1810041+9999MW1851
0057295530999991971012809004+56233+089583FM-12+029199999V0202001N00311030001CN0140001N9-00781-01111103351ADDAY181999GF107991021091008001031011MD1310031+9999MW1031
0092295530999991971012812004+56233+089583FM-12+029199999V0201801N00211030001CN0060001N9-01111-01221103441ADDAA106001091AA299000391AY181999GF107991021091008001031011KA1999M-00721MD1210041+9999MW1851
0057295530999991971012815004+56233+089583FM-12+029199999V0201801N00101007801CN0060001N9-01001-01111103451ADDAY181999GF105991051091008001001001MD1210081+9999MW1851
0057295530999991971012818004+56233+089583FM-12+029199999V0201801N00101220001CN0070001N9-01391-01501103441ADDAY181999GF100991001001999999001001MD1810071+9999MW1261
0098295530999991971012900004+56233+089583FM-12+029199999V0201801N00101220001CN0032001N9-01501-01611103451ADDAA106075091AA224999999AY121999GF100991001001999999001001IA1319KA1999N-01501MD1410001+9999MW1101
0057295530999991971012903004+56233+089583FM-12+029199999V0201801N00211220001CN0110001N9-01391-01721103361ADDAY101999GF102991001001999999001021MD1810071+9999MW1021
0057295530999991971012906004+56233+089583FM-12+029199999V0201801N00211220001CN0140001N9-01221-01391103271ADDAY101999GF100991001001999999001001MD1710061+9999MW1021
0057295530999991971012909004+56233+089583FM-12+029199999V0201801N00311220001CN0110001N9-00781-01281103191ADDAY101999GF100991001001999999001001MD1710021+9999MW1021
0081295530999991971012912004+56233+089583FM-12+029199999V0201801N00211220001CN0060001N9-01391-01501103281ADDAA199000091AY121999GF106991021001999999031011KA1999M-00781MD1410001+9999MW1101
0057295530999991971012915004+56233+089583FM-12+029199999V0201801N00101012301CN0032001N9-01221-01281103211ADDAY181999GF108991081091012501999999MD1810041+9999MW1861
0057295530999991971012918004+56233+089583FM-12+029199999V0201801N00211024001CN0049001N9-01111-01221103121ADDAY181999GF108991081001999999021999MD1710071+9999MW1711
0117295530999991971013000004+56233+089583FM-12+029199999V0202001N00211007801CN0033001N9-00891-01001103071ADDAA106004091AA299001091AY171999GF108991081001008001021999HL10009IA1319IA2999-02009KA1999N-01391MD1810021+9999MW1731
0057295530999991971013003004+56233+089583FM-12+029199999V0202301N00211007801CN0031001N9-00891-01001103121ADDAY181999GF108991081091008001999999MD1310041+9999MW1861
0057295530999991971013006004+56233+089583FM-12+029199999V0202301N002119999999N0039001N9-00781-01001103111ADDAY181999GF108991021091008001999999MD1110021+9999MW1861
0057295530999991971013009004+56233+089583FM-12+029199999V0202301N00211030001CN0090001N9-00781-01111103161ADDAY181999GF105991021091008001031001MD1210051+9999MW1101
0092295530999991971013012004+56233+089583FM-12+029199999V0202301N00101030001CN0017001N9-01111-01221103341ADDAA106004091AA299001091AY181999GF106991011091008001031011KA1999M-00781MD1210131+9999MW1101
0057295530999991971013015004+56233+089583FM-12+029199999V0202301N00101220001CN0034001N9-01281-01391103431ADDAY121999GF102991021001999999041001MD1210061+9999MW1101
0106295530999991971013100004+56233+089583FM-12+029199999V0201601N00101220001CN0030001N9-01891-02001103681ADDAA199000091AY141999GF100991001001999999001001HL10009IA1319IA2999-02789KA1999N-01891MD1210071+9999MW1101
0057295530999991971013103004+56233+089583FM-12+029199999V0209991C00001220001CN0001001N9-01781-01891103751ADDAY141999GF107991001001999999001011MD1210081+9999MW1441
0057295530999991971013106004+56233+089583FM-12+029199999V0209991C00001220001CN0050001N9-01891-02001103811ADDAY141999GF106991001001999999001011MD1210051+9999MW1101
0057295530999991971013109004+56233+089583FM-12+029199999V0209991C00001220001CN0060001N9-01501-01611103831ADDAY121999GF103991001001999999001011MD1210071+9999MW1101
0081295530999991971013112004+56233+089583FM-12+029199999V0209991C00001220001CN0043001N9-01781-01891103981ADDAA199000091AY121999GF102991001001999999001011KA1999M-01391MD1210101+9999MW1101
0057295530999991971013115004+56233+089583FM-12+029199999V0209991C00001220001CN0040001N9-02001-02111104091ADDAY101999GF102991001001999999001011MD1210081+9999MW1101
0057295530999991971013118004+56233+089583FM-12+029199999V0209991C00001220001CN0039001N9-02111-02281104131ADDAY101999GF102991001001999999001011MD1210021+9999MW1101
0117295530999991971020100004+56233+089583FM-12+029199999V0209991C00001220001CN0018001N9-02221-02391104251ADDAA106999999AA224999999AY101999GF102991001001999999001011HL10009IA1319IA2999-03009KA1999N-02221MD1210061+9999MW1101
0057295530999991971020106004+56233+089583FM-12+029199999V0209991C00001220001CN0060001N9-01501-01611104211ADDAY121999GF103991031001999999031001MD1810021+9999MW1101
0057295530999991971020109004+56233+089583FM-12+029199999V0202301N00101024001CN0090001N9-01281-01391104231ADDAY121999GF107991071001999999031001MD1310041+9999MW1101
0081295530999991971020112004+56233+089583FM-12+029199999V0202301N00101024001CN0043001N9-01391-01611104321ADDAA199000091AY121999GF107991071001999999031001KA1999M-01111MD1210081+9999MW1101
0057295530999991971020115004+56233+089583FM-12+029199999V0202501N00101024001CN0030001N9-01611-01891104421ADDAY121999GF107991071001999999031001MD1210061+9999MW1101
0057295530999991971020118004+56233+089583FM-12+029199999V0202501N00211024001CN0090001N9-01501-01721104391ADDAY171999GF108991081001999999071999MD1810011+9999MW1711
0057295530999991971020121004+56233+089583FM-12+029199999V0202301N00211024001CN0060001N9-01501-01721104391ADDAY171999GF108991081001999999021999MD1410001+9999MW1711
0117295530999991971020200004+56233+089583FM-12+029199999V0202501N00101024001CN0060001N9-01501-01721104421ADDAA106004091AA299001091AY171999GF108991081001999999011999HL10009IA1319IA2999-02009KA1999N-01611MD1310031+9999MW1711
0043295530999991971020203004+56233+089583FM-12+029199999V0202301N00211220001CN0050001N9-01501-01721104481ADDAY171999GF108991001001999999071999MW1711
0057295530999991971020206004+56233+089583FM-12+029199999V0201801N00101012301CN0060001N9-01221-01501104431ADDAY181999GF108991071091012501071999MD1410001+9999MW1851
0057295530999991971020209004+56233+089583FM-12+029199999V0200501N00101220001CN0080001N9-01111-01501104481ADDAY181999GF102991001001999999001011MD1210061+9999MW1101
0092295530999991971020212004+56233+089583FM-12+029199999V0203601N00211075001CN0034001N9-01391-01501104541ADDAA106039091AA299010091AY181999GF107991031001999999041021KA1999M-01001MD1210021+9999MW1101
0076295530999991971020215004+56233+089583FM-12+029199999V0209991C000019999999N0070001N9-01501-01611104541ADDAY171999GF107991999051008001001001MD1810021+9999MW1711EQDQ01+000012SCOTLC
0057295530999991971020218004+56233+089583FM-12+029199999V0203201N00101007801CN0100001N9-01281-01391104451ADDAY171999GF108991081051008001999999MD1710061+9999MW1711
0057295530999991971020221004+56233+089583FM-12+029199999V0202501N00211007801CN0060001N9-01611-01721104391ADDAY171999GF108991081061008001999999MD1710111+9999MW1711
0117295530999991971020300004+56233+089583FM-12+029199999V0202501N00211024001CN0070001N9-01781-01891104241ADDAA106001091AA299000391AY171999GF105991051001999999011001HL10009IA1319IA2999-02789KA1999N-01781MD1710171+9999MW1711
0057295530999991971020306004+56233+089583FM-12+029199999V0203401N00101220001CN0290001N9-02001-02221104011ADDAY171999GF107991031001999999041011MD1710121+9999MW1021
0057295530999991971020309004+56233+089583FM-12+029199999V0203601N00101220001CN0200001N9-02111-02281104031ADDAY121999GF101991011001999999041001MD1310011+9999MW1021
0092295530999991971020312004+56233+089583FM-12+029199999V0203601N00101220001CN0230001N9-02221-02391104211ADDAA106075091AA224999999AY121999GF105991021001999999041011KA1999M-01721MD1210151+9999MW1021
0057295530999991971020315004+56233+089583FM-12+029199999V0203401N00211220001CN0350001N9-02391-02611104271ADDAY121999GF100991001001999999001001MD1210031+9999MW1021
0057295530999991971020318004+56233+089583FM-12+029199999V0203601N00101220001CN0500001N9-02611-02781104311ADDAY121999GF100991001001999999001001MD1210011+9999MW1021
0092295530999991971020400004+56233+089583FM-12+029199999V0201401N00101220001CN0200001N9-03111-03281104601ADDAA199000091AY101999GF100991001001999999001001HL10009IA1319IA2999-04119KA1999N-03111MW1021
0057295530999991971020403004+56233+089583FM-12+029199999V0209991C00001220001CN0040001N9-03221-03391104741ADDAY101999GF100991001001999999001001MD1210121+9999MW1041
0057295530999991971020406004+56233+089583FM-12+029199999V0209991C00001220001CN0200001N9-02501-02721104611ADDAY101999GF102991001001999999001011MD1410001+9999MW1021
0057295530999991971020409004+56233+089583FM-12+029199999V0209991C00001220001CN0200001N9-02501-02721104631ADDAY101999GF103991001001999999001011MD1310021+9999MW1021
0057295530999991971020412004+56233+089583FM-12+029199999V0200901N00101220001CN0100001N9-02891-03111104731ADDAY101999GF102991001001999999001011MD1210031+9999MW1021
0057295530999991971020418004+56233+089583FM-12+029199999V0201101N00211220001CN0200001N9-03111-03281104661ADDAY101999GF102991001001999999001011MD1810121+9999MW1021
0106295530999991971020500004+56233+089583FM-12+029199999V0201101N00311220001CN0200001N9-03111-03781104601ADDAA199000091AY101999GF102991001001999999001011HL10009IA1319IA2999-04009KA1999N-03221MD1710091+9999MW1021
0057295530999991971020506004+56233+089583FM-12+029199999V0201101N00411220001CN0200001N9-02611-02891104081ADDAY121999GF106991001001999999001011MD1710171+9999MW1021
0057295530999991971020509004+56233+089583FM-12+029199999V0201101N00311220001CN0200001N9-02501-02781103941ADDAY121999GF104991001001999999001011MD1710111+9999MW1021
0081295530999991971020512004+56233+089583FM-12+029199999V0200901N00311220001CN0200001N9-02721-02891103871ADDAA199000091AY121999GF102991001001999999001011KA1999M-02501MD1710111+9999MW1021
0057295530999991971020515004+56233+089583FM-12+029199999V0200901N00311220001CN0200001N9-02721-02891103681ADDAY121999GF106991001001999999001061MD1710181+9999MW1021
0057295530999991971020518004+56233+089583FM-12+029199999V0201101N00211220001CN0200001N9-02781-03001103451ADDAY121999GF108991001001999999001071MD1710241+9999MW1021
0057295530999991971020521004+56233+089583FM-12+029199999V0200901N00101220001CN0200001N9-02781-03001103231ADDAY121999GF107991001001999999001011MD1710211+9999MW1021
0057295530999991971020603004+56233+089583FM-12+029199999V0200701N00211220001CN0200001N9-02891-03111102981ADDAY121999GF107991001001999999001021MD1710071+9999MW1021
0057295530999991971020606004+56233+089583FM-12+029199999V0201101N00211220001CN0100001N9-02281-02501102831ADDAY121999GF103991001001999999001021MD1710051+9999MW1021
0057295530999991971020609004+56233+089583FM-12+029199999V0200901N00101220001CN0110001N9-02111-02391102831ADDAY101999GF102991001001999999001011MD1310031+9999MW1021
0081295530999991971020612004+56233+089583FM-12+029199999V0201401N00101220001CN0070001N9-02501-02781102961ADDAA199000091AY101999GF102991001001999999001051KA1999M-02111MD1210061+9999MW1101
0057295530999991971020615004+56233+089583FM-12+029199999V0201401N00101220001CN0040001N9-02721-02891102951ADDAY121999GF105991001001999999001061MD1810041+9999MW1101
0057295530999991971020618004+56233+089583FM-12+029199999V0201101N00101220001CN0040001N9-02721-02891102861ADDAY121999GF105991001001999999001061MD1710091+9999MW1101
0057295530999991971020621004+56233+089583FM-12+029199999V0201101N00101220001CN0040001N9-02721-02891102801ADDAY121999GF104991001001999999001061MD1710021+9999MW1101
0106295530999991971020700004+56233+089583FM-12+029199999V0200901N00211220001CN0040001N9-03111-03281102721ADDAA199000091AY121999GF103991001001999999001011HL10009IA1319IA2999-03399KA1999N-03111MD1710051+9999MW1101
0057295530999991971020703004+56233+089583FM-12+029199999V0200901N00211220001CN0040001N9-03001-03221102591ADDAY121999GF105991001001999999001021MD1710111+9999MW1101
0057295530999991971020706004+56233+089583FM-12+029199999V0200901N00211220001CN0060001N9-02111-02281102331ADDAY121999GF107991001001999999001011MD1710111+9999MW1101
0057295530999991971020709004+56233+089583FM-12+029199999V0200901N00311220001CN0070001N9-02111-02391102281ADDAY121999GF107991021091012501001011MD1710051+9999MW1101
0081295530999991971020712004+56233+089583FM-12+029199999V0200901N00411220001CN0040001N9-02111-02391102291ADDAA199000091AY121999GF107991021091012501001011KA1999M-02001MD1310011+9999MW1101
0057295530999991971020718004+56233+089583FM-12+029199999V0200501N003119999999N0070001N9-02111-02281102091ADDAY121999GF106991031001999999999999MD1710071+9999MW1101
0057295530999991971020721004+56233+089583FM-12+029199999V0202001N00101024001CN0060001N9-02001-02221102191ADDAY121999GF107991061001999999031011MD1310111+9999MW1101
0057295530999991971020806004+56233+089583FM-12+029199999V0201801N00101220001CN0070001N9-01001-01391102351ADDAY171999GF107991001001999999001021MD1210101+9999MW1711
0057295530999991971020809004+56233+089583FM-12+029199999V0201101N00101024001CN0080001N9-00891-01111102361ADDAY171999GF108991081001999999071999MD1210021+9999MW1711
0092295530999991971020812004+56233+089583FM-12+029199999V0201101N00211024001CN0050001N9-01001-01111102421ADDAA106002091AA299000591AY111999GF108991081001999999011999KA1999M-00891MD1210051+9999MW1671
0057295530999991971020815004+56233+089583FM-12+029199999V0201101N00101007801CN0070001N9-01001-01111102541ADDAY181999GF108991081091008001999999MD1210111+9999MW1851
0057295530999991971020818004+56233+089583FM-12+029199999V0200901N00101007801CN0070001N9-01001-01111102541ADDAY181999GF107991071091008001001001MD1410001+9999MW1851
0057295530999991971020821004+56233+089583FM-12+029199999V0200201N00101007801CN0070001N9-01001-01111102551ADDAY181999GF108991081091008001999999MD1310011+9999MW1851
0057295530999991971020903004+56233+089583FM-12+029199999V0200701N00311015001CN0090001N9-01001-01111102741ADDAY181999GF107991071051017501001001MD1210051+9999MW1711
0057295530999991971020906004+56233+089583FM-12+029199999V0200701N00311012301CN0080001N9-00891-01001102681ADDAY171999GF107991071051012501001001MD1810041+9999MW1711
0057295530999991971020909004+56233+089583FM-12+029199999V0200701N00511075001CN0090001N9-00891-01221102711ADDAY171999GF106991041051012501001021MD1310021+9999MW1101
0092295530999991971020912004+56233+089583FM-12+029199999V0200701N00511220001CN0300001N9-01281-01611102851ADDAA106075091AA224999999AY171999GF101991011001999999041001KA1999M-00891MD1210081+9999MW1021
0057295530999991971020915004+56233+089583FM-12+029199999V0200901N00511220001CN0400001N9-01391-01781102881ADDAY101999GF100991001001999999001001MD1210021+9999MW1021
0057295530999991971020918004+56233+089583FM-12+029199999V0200701N00511220001CN0350001N9-01781-02111102971ADDAY101999GF100991001001999999001001MD1210021+9999MW1021
0076295530999991971020921004+56233+089583FM-12+029199999V0200701N00411220001CN0300001N9-02001-02281103051ADDAY101999GF100991001001999999001001MD1210051+9999MW1021EQDQ01    993SCOTCV
0081295530999991971021000004+56233+089583FM-12+029199999V0200701N00411220001CN0290001N9-02221-02391103121ADDAA199000091AY101999GF100991001001999999001001KA1999N-02221MD1210031+9999MW1021
0057295530999991971021003004+56233+089583FM-12+029199999V0200701N00511220001CN0500001N9-02281-02611103101ADDAY101999GF101991001001999999001011MD1810021+9999MW1021
0057295530999991971021006004+56233+089583FM-12+029199999V0200701N00511220001CN0300001N9-01781-02281103021ADDAY101999GF101991001001999999001011MD1710011+9999MW1021
0057295530999991971021009004+56233+089583FM-12+029199999V0200701N00511220001CN0240001N9-01391-02111102941ADDAY101999GF100991001001999999001001MD1710011+9999MW1021
0081295530999991971021012004+56233+089583FM-12+029199999V0200901N00211220001CN0230001N9-01611-02111103041ADDAA199000091AY101999GF102991001001999999001051KA1999M-01391MD1310051+9999MW1021
0057295530999991971021015004+56233+089583FM-12+029199999V0200901N00211007801CN0200001N9-01781-02111103141ADDAY121999GF105991051091008001081001MD1210071+9999MW1031
0057295530999991971021018004+56233+089583FM-12+029199999V0202501N00211007801CN0038001N9-01221-01501103041ADDAY181999GF108991081091008001999999MD1410001+9999MW1861
0057295530999991971021021004+56233+089583FM-12+029199999V0202301N00211007801CN0042001N9-01001-01111102981ADDAY181999GF108991081001008001021999MD1810031+9999MW1731
0057295530999991971021103004+56233+089583FM-12+029199999V0202501N00311012301CN0050001N9-01111-01501103021ADDAY181999GF107991051091012501001011MD1410001+9999MW1851
0057295530999991971021106004+56233+089583FM-12+029199999V0202501N00311220001CN0060001N9-01001-01391102961ADDAY181999GF106991021091012501001011MD1810031+9999MW1101
0057295530999991971021109004+56233+089583FM-12+029199999V0202501N00311220001CN0070001N9-01001-01501102921ADDAY121999GF101991001001999999001011MD1710041+9999MW1101
0092295530999991971021112004+56233+089583FM-12+029199999V0201601N00101220001CN0010001N9-01391-01721102941ADDAA106001091AA299000391AY121999GF102991001001999999001011KA1999M-01001MD1710031+9999MW1101
0057295530999991971021118004+56233+089583FM-12+029199999V0201101N00211220001CN0060001N9-01611-01721102621ADDAY121999GF108991001001999999001071MD1710191+9999MW1101
0098295530999991971021200004+56233+089583FM-12+029199999V0201601N00101030001CN0050001N9-01501-01611102251ADDAA106024091AA299006091AY171999GF108991021071008001011999IA1319KA1999N-01721MD1710171+9999MW1731
0057295530999991971021203004+56233+089583FM-12+029199999V0202501N00101024001CN0049001N9-01281-01391102161ADDAY171999GF108991081001999999011999MD1710061+9999MW1731
0057295530999991971021206004+56233+089583FM-12+029199999V0202301N00211220001CN0080001N9-01221-01501102151ADDAY171999GF106991001001999999001011MD1310011+9999MW1101
0057295530999991971021209004+56233+089583FM-12+029199999V0202501N00101220001CN0090001N9-01111-01391102231ADDAY171999GF106991001001999999001021MD1210091+9999MW1711
0092295530999991971021212004+56233+089583FM-12+029199999V0202501N00311075001CN0060001N9-01391-01611102421ADDAA106004091AA299001091AY171999GF107991031001999999011021KA1999M-01111MD1210151+9999MW1711
0057295530999991971021215004+56233+089583FM-12+029199999V0202501N00411024001CN0050001N9-01611-01781102611ADDAY171999GF108991081001999999071999MD1210141+9999MW1711
0057295530999991971021218004+56233+089583FM-12+029199999V0202501N00411024001CN0060001N9-01781-02001102791ADDAY171999GF108991081001999999071999MD1210151+9999MW1711
0117295530999991971021300004+56233+089583FM-12+029199999V0202501N00411024001CN0028001N9-02001-02221103091ADDAA106001091AA299000391AY171999GF108991081001999999071999HL10009IA1319IA2999-02119KA1999N-02001MD1210071+9999MW1731
0076295530999991971021303004+56233+089583FM-12+029199999V0202501N003119999999N0028001N9-02111-02391103261ADDAY171999GF106991999001999999011001MD1210161+9999MW1731EQDQ01+000012SCOTLC
0057295530999991971021306004+56233+089583FM-12+029199999V0202501N00411024001CN0032001N9-01781-02111103361ADDAY171999GF106991061001999999011001MD1210131+9999MW1731
0057295530999991971021309004+56233+089583FM-12+029199999V0202501N00311024001CN0041001N9-01721-02001103411ADDAY171999GF107991071001999999051001MD1210071+9999MW1101
0092295530999991971021312004+56233+089583FM-12+029199999V0202701N00211220001CN0030001N9-02001-02281103591ADDAA106002091AA299000591AY171999GF100991001001999999001001KA1999M-01721MD1210131+9999MW1101
0057295530999991971021315004+56233+089583FM-12+029199999V0202701N00211220001CN0080001N9-02221-02501103651ADDAY101999GF100991001001999999001001MD1210031+9999MW1101
0057295530999991971021318004+56233+089583FM-12+029199999V0202501N00211220001CN0090001N9-02391-02721103691ADDAY101999GF100991001001999999001001MD1210011+9999MW1101
0057295530999991971021321004+56233+089583FM-12+029199999V0202301N00101220001CN0060001N9-02391-02721103641ADDAY101999GF100991001001999999001001MD1810051+9999MW1101
0106295530999991971021400004+56233+089583FM-12+029199999V0201801N00101220001CN0040001N9-02611-02891103531ADDAA199000091AY121999GF106991001001999999001011HL10009IA1319IA2999-03729KA1999N-02721MD1710141+9999MW1101
0057295530999991971021403004+56233+089583FM-12+029199999V0201601N00101220001CN0040001N9-02721-02891103351ADDAY141999GF102991001001999999001011MD1710181+9999MW1101
0057295530999991971021406004+56233+089583FM-12+029199999V0203301N00101220001CN0080001N9-02001-02221103131ADDAY141999GF102991001001999999001011MD1710121+9999MW1101
0057295530999991971021409004+56233+089583FM-12+029199999V0203201N00101220001CN0090001N9-01891-02111103111ADDAY101999GF100991001001999999001001MD1410001+9999MW1101
0081295530999991971021412004+56233+089583FM-12+029199999V0203401N00101220001CN0040001N9-02281-02501103251ADDAA199000091AY101999GF101991001001999999001041KA1999M-01891MD1310081+9999MW1101
0057295530999991971021418004+56233+089583FM-12+029199999V0209991C00001220001CN0300001N9-02611-02891103481ADDAY181999GF101991011091008001001001MD1210071+9999MW1261
0117295530999991971021500004+56233+089583FM-12+029199999V0209991C00001220001CN0200001N9-03001-03221103661ADDAA106075091AA224999999AY101999GF100991001001999999001001HL10009IA1319IA2999-04009KA1999N-03001MD1210051+9999MW1021
0057295530999991971021503004+56233+089583FM-12+029199999V0209991C00001220001CN0010001N9-02891-03111103701ADDAY101999GF100991001001999999001001MD1210061+9999MW1101
0057295530999991971021506004+56233+089583FM-12+029199999V0202701N00101220001CN0210001N9-02221-02501103701ADDAY141999GF107991001001999999001011MD1210111+9999MW1021
0057295530999991971021509004+56233+089583FM-12+029199999V0200901N00101220001CN0210001N9-02111-02281103581ADDAY121999GF103991001001999999001011MD1810101+9999MW1021
0081295530999991971021512004+56233+089583FM-12+029199999V0209991C00001220001CN0040001N9-02391-02721103671ADDAA199000091AY121999GF102991001001999999001011KA1999M-01891MD1310041+9999MW1021
0057295530999991971021515004+56233+089583FM-12+029199999V0209991C00001220001CN0200001N9-02721-02891103621ADDAY101999GF102991001001999999001011MD1810101+9999MW1021
0057295530999991971021518004+56233+089583FM-12+029199999V0209991C00001220001CN0200001N9-02721-02891103611ADDAY121999GF105991021001999999041011MD1710011+9999MW1021
0057295530999991971021521004+56233+089583FM-12+029199999V0200901N00101220001CN0200001N9-02781-03001103591ADDAY121999GF106991001001999999001071MD1710031+9999MW1021
0106295530999991971021600004+56233+089583FM-12+029199999V0200901N00101220001CN0200001N9-03001-03221103601ADDAA199000091AY121999GF105991001001999999001061HL10009IA1319IA2999-03619KA1999N-03001MD1710031+9999MW1021
0043295530999991971021603004+56233+089583FM-12+029199999V0201401N00101220001CN0200001N9-02781-03001103431ADDAY121999GF108991001001999999001071MW1021
0057295530999991971021606004+56233+089583FM-12+029199999V0202001N00211220001CN0280001N9-02221-02501103251ADDAY121999GF108991001001999999001071MD1710081+9999MW1021
0057295530999991971021609004+56233+089583FM-12+029199999V0200501N00211024001CN0090001N9-02001-02501103181ADDAY121999GF107991061001999999011011MD1710041+9999MW1101
0081295530999991971021612004+56233+089583FM-12+029199999V0200901N00101220001CN0080001N9-02221-02501103101ADDAA199000091AY121999GF105991001001999999001011KA1999M-02001MD1710111+9999MW1101
0057295530999991971021615004+56233+089583FM-12+029199999V0202301N00101220001CN0046001N9-02501-02721103081ADDAY121999GF103991001001999999001011MD1710051+9999MW1101
0057295530999991971021618004+56233+089583FM-12+029199999V0202501N00101220001CN0020001N9-02501-02781103021ADDAY121999GF101991001001999999001011MD1710061+9999MW1101
0106295530999991971021700004+56233+089583FM-12+029199999V0201801N00101220001CN0040001N9-02781-03001102941ADDAA199000091AY101999GF102991001001999999001011HL10009IA1319IA2999-03619KA1999N-02781MD1710051+9999MW1101
0057295530999991971021703004+56233+089583FM-12+029199999V0201601N00101220001CN0040001N9-02611-02781102861ADDAY101999GF100991001001999999001001MD1710051+9999MW1101
0057295530999991971021706004+56233+089583FM-12+029199999V0209991C00001220001CN0060001N9-01781-02111102581ADDAY101999GF100991001001999999001001MD1710151+9999MW1101
0057295530999991971021709004+56233+089583FM-12+029199999V0200701N00101220001CN0070001N9-01781-02221102521ADDAY101999GF100991001001999999001001MD1710061+9999MW1101
0081295530999991971021712004+56233+089583FM-12+029199999V0201101N00211220001CN0070001N9-02221-02501102321ADDAA199000091AY101999GF102991001001999999001011KA1999M-01781MD1710161+9999MW1101
0057295530999991971021715004+56233+089583FM-12+029199999V0201101N00311220001CN0060001N9-02111-02391102121ADDAY101999GF103991001001999999001011MD1710271+9999MW1101
0057295530999991971021718004+56233+089583FM-12+029199999V0201601N00511024001CN0060001N9-01721-02001101741ADDAY171999GF108991081001999999011999MD1710301+9999MW1711
0057295530999991971021721004+56233+089583FM-12+029199999V0201601N00211024001CN9999999N9-01611-01781101511ADDAY171999GF108991081001999999021999MD1710211+9999MW1761
0117295530999991971021800004+56233+089583FM-12+029199999V0201801N00411024001CN0050001N9-01501-01721101231ADDAA106002091AA299000591AY171999GF108991081001999999011999HL10009IA1319IA2999-03009KA1999N-02391MD1710261+9999MW1711
0057295530999991971021803004+56233+089583FM-12+029199999V0201401N00311024001CN0060001N9-01281-01721101051ADDAY171999GF108991081001999999011999MD1710221+9999MW1711
0057295530999991971021806004+56233+089583FM-12+029199999V0201401N00411024001CN0050001N9-01111-01391100651ADDAY171999GF108991081001999999011999MD1710281+9999MW1711
0057295530999991971021809004+56233+089583FM-12+029199999V0201601N00511024001CN0070001N9-01001-01221100351ADDAY171999GF108991081001999999011999MD1710271+9999MW1711
0092295530999991971021812004+56233+089583FM-12+029199999V0201101N00211024001CN0070001N9-01221-01501100271ADDAA106002091AA299000591AY171999GF108991061001999999011071KA1999M-01001MD1710111+9999MW1101
0057295530999991971021818004+56233+089583FM-12+029199999V0202501N00101007801CN0035001N9-01281-01721100471ADDAY181999GF108991051091008001071999MD1310391+9999MW1851
0117295530999991971021900004+56233+089583FM-12+029199999V0202301N00511220001CN0200001N9-02001-02501101211ADDAA106002091AA299000591AY181999GF102991021001999999041001HL10009IA1319IA2999-02399KA1999N-02001MD1210201+9999MW1021
0057295530999991971021903004+56233+089583FM-12+029199999V0202501N00211012301CN0017001N9-01891-02221101341ADDAY181999GF108991081091012501999999MD1210151+9999MW1861
0057295530999991971021906004+56233+089583FM-12+029199999V0202501N00621012301CN0049001N9-01891-02281101531ADDAY181999GF107991071091012501001001MD1210191+9999MW1851
0057295530999991971021909004+56233+089583FM-12+029199999V0202301N00721012301CN0070001N9-02001-02391101761ADDAY181999GF107991061091012501001011MD1210201+9999MW1851
0092295530999991971021912004+56233+089583FM-12+029199999V0202501N00311220001CN0070001N9-02221-02501102011ADDAA106002091AA299000591AY181999GF103991011001999999041011KA1999M-01891MD1210211+9999MW1101
0057295530999991971021918004+56233+089583FM-12+029199999V0201801N00101220001CN0040001N9-02611-02891102361ADDAY121999GF100991001001999999001001MD1210111+9999MW1101
0098295530999991971022000004+56233+089583FM-12+029199999V0202701N00101220001CN0040001N9-02781-03001102541ADDAA106075091AA224999999AY171999GF103991001001999999001051IA1319KA1999N-02781MD1210111+9999MW1101
0057295530999991971022006004+56233+089583FM-12+029199999V0202701N00101220001CN0050001N9-02501-02891102761ADDAY171999GF108991001001999999001071MD1210121+9999MW1711
0057295530999991971022009004+56233+089583FM-12+029199999V0202901N00311007801CN0038001N9-02501-02891102881ADDAY171999GF108991081999008001999999MD1210121+9999MW1711
0092295530999991971022012004+56233+089583FM-12+029199999V0202901N00311024001CN0060001N9-02721-03111103271ADDAA106002091AA299000591AY171999GF108991081001999999011999KA1999M-02391MD1210331+9999MW1711
0057295530999991971022015004+56233+089583FM-12+029199999V0202301N00211024001CN0040001N9-03001-03391103571ADDAY171999GF107991061001999999011011MD1210231+9999MW1711
0057295530999991971022018004+56233+089583FM-12+029199999V0202001N00101024001CN0040001N9-03221-03611103791ADDAY171999GF107991061001999999011011MD1210181+9999MW1711
0057295530999991971022021004+56233+089583FM-12+029199999V0209991C00001220001CN0040001N9-03391-03781103981ADDAY171999GF102991001001999999001011MD1210131+9999MW1101
0092295530999991971022100004+56233+089583FM-12+029199999V0201801N00101220001CN0040001N9-03781-04111104181ADDAA106001091AA299000391AY171999GF102991001001999999001011KA1999N-03781MD1210151+9999MW1101
0057295530999991971022103004+56233+089583FM-12+029199999V0201801N00101220001CN0020001N9-03391-03721104221ADDAY101999GF100991001001999999001001MD1210141+9999MW1101
0057295530999991971022106004+56233+089583FM-12+029199999V0201801N00211220001CN0100001N9-03001-03391104171ADDAY101999GF103991001001999999001011MD1210021+9999MW1021
0057295530999991971022109004+56233+089583FM-12+029199999V0201601N00101220001CN0200001N9-02891-03391104151ADDAY101999GF103991001001999999001011MD1410001+9999MW1021
0081295530999991971022112004+56233+089583FM-12+029199999V0200701N00101220001CN0200001N9-03111-03501104211ADDAA199000091AY101999GF103991001001999999001011KA1999M-02781MD1310021+9999MW1021
0057295530999991971022115004+56233+089583FM-12+029199999V0200901N00211220001CN0200001N9-03281-03611104231ADDAY101999GF102991001001999999001011MD1210021+9999MW1021
0057295530999991971022118004+56233+089583FM-12+029199999V0200701N00101220001CN0200001N9-03501-03781104181ADDAY101999GF102991001001999999001011MD1810121+9999MW1021
0057295530999991971022121004+56233+089583FM-12+029199999V0200701N00211220001CN0200001N9-03611-03891104181ADDAY101999GF102991001001999999001011MD1710021+9999MW1021
0106295530999991971022200004+56233+089583FM-12+029199999V0200701N00211220001CN0200001N9-03611-03891104111ADDAA199000091AY101999GF102991001001999999001011HL10009IA1319IA2999-04229KA1999N-03721MD1710061+9999MW1021
0057295530999991971022203004+56233+089583FM-12+029199999V0200701N00211220001CN0100001N9-03611-03891104041ADDAY101999GF102991001001999999001011MD1710071+9999MW1021
0057295530999991971022206004+56233+089583FM-12+029199999V0200501N00211220001CN0100001N9-03221-03501103861ADDAY101999GF102991001001999999001011MD1710081+9999MW1021
0057295530999991971022209004+56233+089583FM-12+029199999V0200701N00411220001CN0100001N9-02891-03391103771ADDAY101999GF102991001001999999001011MD1710011+9999MW1021
0081295530999991971022212004+56233+089583FM-12+029199999V0200501N00311220001CN0500001N9-02781-03281103751ADDAA199000091AY121999GF108991001001999999001071KA1999M-02781MD1710021+9999MW1031
0057295530999991971022215004+56233+089583FM-12+029199999V0200501N00311220001CN0100001N9-03001-03281103781ADDAY171999GF108991001001999999001071MD1710011+9999MW1711
0057295530999991971022218004+56233+089583FM-12+029199999V0200701N00411220001CN0100001N9-03111-03391103721ADDAY171999GF108991001001999999001071MD1710081+9999MW1711
0057295530999991971022221004+56233+089583FM-12+029199999V0201701N00211220001CN0100001N9-03391-03721103731ADDAY171999GF102991001001999999001071MD1710041+9999MW1711
0117295530999991971022300004+56233+089583FM-12+029199999V0200701N00101075001CN0100001N9-03391-03721103711ADDAA106075091AA224999999AY171999GF108991041001999999011071HL10009IA1319IA2999-03729KA1999N-03391MD1710021+9999MW1711
0057295530999991971022303004+56233+089583FM-12+029199999V0200701N00411024001CN0040001N9-03281-03611103681ADDAY171999GF108991081001999999011999MD1710011+9999MW1711
0057295530999991971022306004+56233+089583FM-12+029199999V0200701N00411220001CN0040001N9-02721-03221103491ADDAY171999GF105991001001999999001011MD1710091+9999MW1101
0057295530999991971022309004+56233+089583FM-12+029199999V0200701N00511220001CN0200001N9-02281-03111103411ADDAY121999GF105991001001999999001011MD1710011+9999MW1021
0092295530999991971022312004+56233+089583FM-12+029199999V0200501N00411220001CN0300001N9-02391-03221103481ADDAA106075091AA224999999AY121999GF105991001001999999001011KA1999M-02221MD1310051+9999MW1021
0057295530999991971022315004+56233+089583FM-12+029199999V0200501N00411220001CN0200001N9-02611-03221103571ADDAY121999GF102991001001999999001011MD1210041+9999MW1021
0057295530999991971022318004+56233+089583FM-12+029199999V0200901N00211220001CN0200001N9-03001-03391103581ADDAY121999GF102991001001999999001011MD1810041+9999MW1021
0057295530999991971022321004+56233+089583FM-12+029199999V0200501N00101220001CN0100001N9-03221-03611103611ADDAY101999GF102991001001999999001011MD1710011+9999MW1021
0106295530999991971022400004+56233+089583FM-12+029199999V0200501N00101220001CN0200001N9-03281-03611103671ADDAA199000091AY101999GF101991001001999999001011HL10009IA1319IA2999-04509KA1999N-03501MD1310051+9999MW1021
0057295530999991971022403004+56233+089583FM-12+029199999V0200501N00211220001CN0200001N9-03221-03501103671ADDAY101999GF100991001001999999001001MD1210011+9999MW1021
0057295530999991971022406004+56233+089583FM-12+029199999V0200501N00211220001CN0200001N9-02781-03111103521ADDAY101999GF100991001001999999001001MD1810071+9999MW1021
0057295530999991971022409004+56233+089583FM-12+029199999V0200501N00101220001CN0230001N9-02501-03221103431ADDAY101999GF100991001001999999001001MD1710041+9999MW1021
0081295530999991971022412004+56233+089583FM-12+029199999V0203201N00101220001CN0200001N9-02611-03221103481ADDAA199000091AY101999GF100991001001999999001001KA1999M-02391MD1310031+9999MW1021
0057295530999991971022415004+56233+089583FM-12+029199999V0200501N00101220001CN0200001N9-02891-03221103561ADDAY101999GF100991001001999999001001MD1210031+9999MW1021
0057295530999991971022418004+56233+089583FM-12+029199999V0209991C00001220001CN0200001N9-03111-03391103571ADDAY101999GF100991001001999999001001MD1810031+9999MW1021
0057295530999991971022421004+56233+089583FM-12+029199999V0200701N00101220001CN0200001N9-03281-03611103571ADDAY101999GF100991001001999999001001MD1710031+9999MW1021
0106295530999991971022500004+56233+089583FM-12+029199999V0200901N00101220001CN0200001N9-03501-03781103641ADDAA199000091AY101999GF100991001001999999001001HL10009IA1319IA2999-04229KA1999N-03501MD1310031+9999MW1021
0057295530999991971022503004+56233+089583FM-12+029199999V0200701N00211220001CN0020001N9-03281-03611103571ADDAY101999GF100991001001999999001001MD1810031+9999MW1101
0057295530999991971022506004+56233+089583FM-12+029199999V0200501N00211220001CN0040001N9-02781-03111103401ADDAY101999GF100991001001999999001001MD1710081+9999MW1101
0057295530999991971022509004+56233+089583FM-12+029199999V0200701N00411220001CN0040001N9-02501-03111103371ADDAY101999GF100991001001999999001001MD1310021+9999MW1101
0081295530999991971022512004+56233+089583FM-12+029199999V0200501N00311220001CN0100001N9-02501-03111103441ADDAA199000091AY101999GF100991001001999999001001KA1999M-02501MD1210071+9999MW1021
0057295530999991971022518004+56233+089583FM-12+029199999V0200701N00311220001CN0200001N9-03221-03501103551ADDAY101999GF100991001001999999001001MD1310031+9999MW1021
0057295530999991971022521004+56233+089583FM-12+029199999V0200701N00211220001CN0200001N9-03391-03721103561ADDAY101999GF100991001001999999001001MD1810021+9999MW1021
0106295530999991971022600004+56233+089583FM-12+029199999V0200701N00211220001CN0200001N9-03391-03721103531ADDAA199000091AY101999GF100991001001999999001001HL10009IA1319IA2999-04009KA1999N-03501MD1710041+9999MW1021
0057295530999991971022603004+56233+089583FM-12+029199999V0200701N00101220001CN0040001N9-03281-03611103521ADDAY101999GF101991001001999999001011MD1310011+9999MW1101
0043295530999991971022606004+56233+089583FM-12+029199999V0200501N00311220001CN0040001N9-02781-03721103471ADDAY101999GF100991001001999999001001MW1101
0057295530999991971022609004+56233+089583FM-12+029199999V0200701N00211220001CN0180001N9-02391-03001103481ADDAY101999GF100991001001999999001001MD1210071+9999MW1021
0081295530999991971022612004+56233+089583FM-12+029199999V0209991C00001220001CN0230001N9-02501-03111103581ADDAA199000091AY101999GF101991001001999999001011KA1999M-02391MD1210091+9999MW1021
0057295530999991971022615004+56233+089583FM-12+029199999V0203601N00101220001CN0200001N9-02781-03221103671ADDAY101999GF100991001001999999001001MD1210041+9999MW1021
0057295530999991971022618004+56233+089583FM-12+029199999V0200501N00211220001CN0200001N9-03001-03281103681ADDAY101999GF100991001001999999001001MD1810031+9999MW1021
0057295530999991971022621004+56233+089583FM-12+029199999V0200701N00211220001CN0200001N9-03221-03501103741ADDAY101999GF100991001001999999001001MD1310021+9999MW1021
0106295530999991971022700004+56233+089583FM-12+029199999V0200701N00211220001CN0200001N9-03281-03611103821ADDAA199000091AY101999GF100991001001999999001001HL10009IA1319IA2999-04009KA1999N-03391MD1210071+9999MW1021
0057295530999991971022703004+56233+089583FM-12+029199999V0200701N00211220001CN0040001N9-03221-03501103881ADDAY101999GF100991001001999999001001MD1210071+9999MW1041
0057295530999991971022706004+56233+089583FM-12+029199999V0200501N00211220001CN0040001N9-02721-03001103851ADDAY101999GF102991001001999999001011MD1210051+9999MW1101
0057295530999991971022709004+56233+089583FM-12+029199999V0200501N00211220001CN0040001N9-02721-03001103851ADDAY101999GF102991001001999999001011MD1210051+9999MW1101
0068295530999991971022712004+56233+089583FM-12+029199999V0200501N00101220001CN0200001N9-02501-03111103951ADDAA199000091AY101999GF101991001001999999001011MD1210091+9999MW1021
0057295530999991971022715004+56233+089583FM-12+029199999V0203601N00101220001CN0200001N9-02501-03111103921ADDAY101999GF100991001001999999001001MD1810031+9999MW1021
0057295530999991971022718004+56233+089583FM-12+029199999V0200701N00101220001CN0200001N9-02891-03281103981ADDAY101999GF100991001001999999001001MD1710011+9999MW1021
0057295530999991971022721004+56233+089583FM-12+029199999V0200701N00101220001CN0200001N9-03111-03391104001ADDAY101999GF100991001001999999001001MD1710021+9999MW1021
0106295530999991971022800004+56233+089583FM-12+029199999V0200701N00101220001CN0100001N9-03221-03501104051ADDAA199000091AY101999GF100991001001999999001001HL10009IA1319IA2999-04229KA1999N-03281MD1310031+9999MW1021
0057295530999991971022806004+56233+089583FM-12+029199999V0200501N00211220001CN0200001N9-02501-03111103911ADDAY101999GF102991001001999999001011MD1810031+9999MW1021
0057295530999991971022809004+56233+089583FM-12+029199999V0200901N00211220001CN0100001N9-02781-03281103881ADDAY101999GF100991001001999999001001MD1710121+9999MW1021
0057295530999991971022815004+56233+089583FM-12+029199999V0203601N00101220001CN0200001N9-02891-03391103931ADDAY101999GF102991001001999999001011MD1410001+9999MW1021
0057295530999991971022818004+56233+089583FM-12+029199999V0200701N00101220001CN0200001N9-02891-03221103871ADDAY101999GF100991001001999999001001MD1810061+9999MW1021
0057295530999991971022821004+56233+089583FM-12+029199999V0200901N00101220001CN0200001N9-03001-03221103811ADDAY101999GF100991001001999999001001MD1710071+9999MW1021
0106295530999991971030100004+56233+089583FM-12+029199999V0200701N00101220001CN0200001N9-03221-03501103861ADDAA199000091AY101999GF100991001001999999001001HL10009IA1319IA2999-04009KA1999N-03281MD1310011+9999MW1021
0057295530999991971030103004+56233+089583FM-12+029199999V0200701N00211220001CN0200001N9-03111-03391103861ADDAY101999GF100991001001999999001001MD1210021+9999MW1021
0057295530999991971030106004+56233+089583FM-12+029199999V0200501N00311220001CN0200001N9-02611-03001103791ADDAY101999GF100991001001999999001001MD1210011+9999MW1021
0057295530999991971030109004+56233+089583FM-12+029199999V0200701N00211220001CN0210001N9-02221-02891103771ADDAY101999GF100991001001999999001001MD1210041+9999MW1021
0043295530999991971030112004+56233+089583FM-12+029199999V0203201N00101220001CN0230001N9-02391-03221103891ADDAY101999GF100991001001999999001001MW1021
0057295530999991971030115004+56233+089583FM-12+029199999V0203601N00211220001CN0500001N9-02391-03111103931ADDAY101999GF100991001001999999001001MD1210041+9999MW1021
0057295530999991971030118004+56233+089583FM-12+029199999V0200501N00211220001CN0200001N9-02721-03111103991ADDAY101999GF100991001001999999001001MD1210011+9999MW1021
0057295530999991971030121004+56233+089583FM-12+029199999V0200201N00211220001CN0200001N9-03281-03501104091ADDAY101999GF100991001001999999001001MD1410001+9999MW1021
0106295530999991971030200004+56233+089583FM-12+029199999V0209991C00001220001CN0200001N9-03111-03391104091ADDAA199000091AY101999GF100991001001999999001001HL10009IA1319IA2999-04009KA1999N-03391MD1310021+9999MW1021
0057295530999991971030203004+56233+089583FM-12+029199999V0203201N00101220001CN0100001N9-03111-03391104201ADDAY101999GF100991001001999999001001MD1210111+9999MW1021
0057295530999991971030206004+56233+089583FM-12+029199999V0203201N00101220001CN0100001N9-02391-02721104151ADDAY101999GF102991001001999999001011MD1210071+9999MW1021
0057295530999991971030209004+56233+089583FM-12+029199999V0202901N00101220001CN0500001N9-02001-02721104191ADDAY101999GF102991001001999999001011MD1210091+9999MW1021
0081295530999991971030212004+56233+089583FM-12+029199999V0202301N00211220001CN0110001N9-02221-02891104301ADDAA199000091AY101999GF102991001001999999001011KA1999M-02001MD1210081+9999MW1041
0057295530999991971030218004+56233+089583FM-12+029199999V0202301N00311220001CN0200001N9-02721-03001104621ADDAY101999GF103991001001999999001011MD1210031+9999MW1021
0057295530999991971030221004+56233+089583FM-12+029199999V0202501N00211220001CN0200001N9-02721-03001104641ADDAY101999GF103991001001999999001011MD1210021+9999MW1021
0057295530999991971030303004+56233+089583FM-12+029199999V0202501N00311220001CN0040001N9-02721-03001104841ADDAY121999GF107991001001999999001021MD1210121+9999MW1101
0057295530999991971030306004+56233+089583FM-12+029199999V0202501N00511024001CN0046001N9-02111-02611104751ADDAY171999GF107991071001999999011011MD1210011+9999MW1711
0057295530999991971030309004+56233+089583FM-12+029199999V0202501N00511007801CN0110001N9-02001-02501104741ADDAY181999GF107991051091008001001011MD1410001+9999MW1851
0092295530999991971030312004+56233+089583FM-12+029199999V0202501N00821220001CN0200001N9-02111-02721104791ADDAA106001091AA299000391AY181999GF107991031001999999041011KA1999M-01781MD1310041+9999MW1021
0057295530999991971030318004+56233+089583FM-12+029199999V0202301N00311220001CN0100001N9-02501-02891104891ADDAY121999GF102991001001999999001051MD1210031+9999MW1011
0057295530999991971030321004+56233+089583FM-12+029199999V0202301N00511220001CN0100001N9-02391-02721104871ADDAY121999GF105991001999999999001011MD1110011+9999MW1021
0106295530999991971030400004+56233+089583FM-12+029199999V0202301N00311220001CN0100001N9-02391-02721104851ADDAA199000091AY121999GF104991001001999999001051HL10009IA1319IA2999-02899KA1999N-02501MD1710021+9999MW1021
0057295530999991971030403004+56233+089583FM-12+029199999V0202301N00411220001CN0060001N9-02281-02721104891ADDAY101999GF101991001001999999001011MD1310061+9999MW1101
0057295530999991971030406004+56233+089583FM-12+029199999V0202301N00511220001CN0140001N9-02001-02611104821ADDAY131999GF107991001001999999001011MD1810031+9999MW1361
0057295530999991971030409004+56233+089583FM-12+029199999V0202301N00621220001CN0240001N9-01781-02501104721ADDAY131999GF106991001001999999001011MD1710071+9999MW1021
0081295530999991971030412004+56233+089583FM-12+029199999V0202301N00311220001CN0080001N9-02001-02611104681ADDAA199000091AY131999GF105991001001999999001011KA1999M-01781MD1710061+9999MW1041
0057295530999991971030418004+56233+089583FM-12+029199999V0202701N00101220001CN0220001N9-02391-02891104701ADDAY121999GF105991001001999999001011MD1710021+9999MW1021
0106295530999991971030500004+56233+089583FM-12+029199999V0209991C00001220001CN0040001N9-02611-02891104611ADDAA199000091AY121999GF103991001001999999001011HL10009IA1319IA2999-03229KA1999N-02611MD1710041+9999MW1041
0057295530999991971030503004+56233+089583FM-12+029199999V0202301N00311220001CN0080001N9-02281-02611104531ADDAY101999GF102991001001999999001011MD1710031+9999MW1041
0057295530999991971030506004+56233+089583FM-12+029199999V0202301N00311220001CN0250001N9-01891-02391104371ADDAY121999GF105991001001999999001011MD1710101+9999MW1021
0057295530999991971030509004+56233+089583FM-12+029199999V0202301N00311220001CN0280001N9-01721-02391104181ADDAY121999GF102991001001999999001011MD1710151+9999MW1021
0092295530999991971030512004+56233+089583FM-12+029199999V0201001N02211015001CN0041001N9+99999-02001104181ADDAY191999GF107991071051017501001081MD1010001+9999MW1361EQDQ01+027433ATOT  Q02+000672APC3  
0057295530999991971030515004+56233+089583FM-12+029199999V0202501N00211220001CN0230001N9-02221-02721104111ADDAY101999GF102991001001999999999011MD1710021+9999MW1021
0092295530999991971030518004+56233+089583FM-12+029199999V0202501N00211220001CN0210001N9-02391-02721104151ADDAY101999GF102991001001999999001011MD1210041+9999MW1021EQDQ01+000072APCTENQ02+000832APC3  
0057295530999991971030521004+56233+089583FM-12+029199999V0202501N00211220001CN0200001N9-02501-02781104161ADDAY101999GF102991001001999999001011MD1410001+9999MW1021
0106295530999991971030600004+56233+089583FM-12+029199999V0202501N00211220001CN0200001N9-02611-02891104221ADDAA199000091AY101999GF102991001001999999001011HL10009IA1319IA2999-03229KA1999N-02611MD1310031+9999MW1021
0057295530999991971030603004+56233+089583FM-12+029199999V0202301N00101220001CN0110001N9-02281-02611104141ADDAY101999GF103991001001999999001051MD1810021+9999MW1041
0057295530999991971030606004+56233+089583FM-12+029199999V0202501N00311220001CN0260001N9-01781-02391104111ADDAY101999GF103991001001999999001051MD1310031+9999MW1021
0057295530999991971030609004+56233+089583FM-12+029199999V0202701N00211220001CN0280001N9-01501-02391104041ADDAY101999GF102991001001999999001011MD1810021+9999MW1021
0081295530999991971030612004+56233+089583FM-12+029199999V0202301N00101220001CN0110001N9-01781-02611104141ADDAA199000091AY101999GF102991001001999999001011KA1999M-01391MD1310051+9999MW1041
0057295530999991971030615004+56233+089583FM-12+029199999V0202301N00101220001CN0043001N9-02111-02611104201ADDAY101999GF102991001001999999001011MD1210021+9999MW1041
0057295530999991971030618004+56233+089583FM-12+029199999V0202301N00101220001CN0070001N9-02281-02611104251ADDAY101999GF102991001001999999001011MD1210021+9999MW1101
0057295530999991971030621004+56233+089583FM-12+029199999V0201801N00101220001CN0040001N9-02501-02781104261ADDAY101999GF102991001001999999001011MD1810021+9999MW1101
0106295530999991971030700004+56233+089583FM-12+029199999V0201801N00101220001CN0040001N9-02611-02781104301ADDAA199000091AY101999GF102991001001999999001011HL10009IA1319IA2999-03399KA1999N-02611MD1310021+9999MW1101
0057295530999991971030703004+56233+089583FM-12+029199999V0201401N00101220001CN0070001N9-02281-02611104271ADDAY101999GF103991001001999999001011MD1210021+9999MW1101
0057295530999991971030706004+56233+089583FM-12+029199999V0200701N00101220001CN0210001N9-01611-02281104191ADDAY101999GF102991001001999999001011MD1210021+9999MW1021
0081295530999991971030712004+56233+089583FM-12+029199999V0202301N00101220001CN0080001N9-01611-02391104131ADDAA199000091AY121999GF106991001001999999001011KA1999M-01281MD1710021+9999MW1041
0057295530999991971030715004+56233+089583FM-12+029199999V0201801N00101220001CN0210001N9-02001-02501104221ADDAY121999GF102991001001999999001051MD1310031+9999MW1021
0057295530999991971030718004+56233+089583FM-12+029199999V0202301N00101220001CN0200001N9-02001-02501104221ADDAY121999GF105991001001999999001061MD1410001+9999MW1021
0106295530999991971030800004+56233+089583FM-12+029199999V0202301N00211024001CN0200001N9-02001-02501104291ADDAA199000091AY121999GF107991071001999999041001HL10009IA1319IA2999-03009KA1999N-02111MD1210051+9999MW1021
0057295530999991971030803004+56233+089583FM-12+029199999V0202301N00311220001CN0200001N9-01721-02111104381ADDAY121999GF105991001001999999001011MD1210131+9999MW1021
0057295530999991971030806004+56233+089583FM-12+029199999V0202301N00311220001CN0200001N9-01281-01891104401ADDAY121999GF105991001001999999001011MD1210081+9999MW1021
0057295530999991971030809004+56233+089583FM-12+029199999V0202501N00211220001CN0200001N9-01001-01721104391ADDAY121999GF105991001001999999001011MD1210041+9999MW1021
0081295530999991971030812004+56233+089583FM-12+029199999V0202301N00211220001CN0200001N9-01281-01781104491ADDAA199000091AY121999GF103991001001999999001011KA1999M-01001MD1210051+9999MW1021
0057295530999991971030815004+56233+089583FM-12+029199999V0202301N00101220001CN0080001N9-01611-02001104641ADDAY101999GF102991001001999999001011MD1210101+9999MW1101
0057295530999991971030818004+56233+089583FM-12+029199999V0202501N00211220001CN0230001N9-01781-02111104771ADDAY101999GF103991001001999999001011MD1210091+9999MW1021
0057295530999991971030821004+56233+089583FM-12+029199999V0202001N00101220001CN0190001N9-02001-02221104901ADDAY101999GF102991001001999999001011MD1210101+9999MW1021
0106295530999991971030900004+56233+089583FM-12+029199999V0201801N00101220001CN0060001N9-02111-02281999999ADDAA199000091AY101999GF102991001001999999001011HL10009IA1319IA2999-03119KA1999N-02111MD1210081+9999MW1101
0057295530999991971030906004+56233+089583FM-12+029199999V0202001N00411220001CN0210001N9-01221-01891999999ADDAY101999GF102991001001999999001011MD1210051+9999MW1021
0057295530999991971030909004+56233+089583FM-12+029199999V0202301N00311220001CN0280001N9-01001-01781999999ADDAY101999GF102991001001999999001011MD1810021+9999MW1021
0081295530999991971030912004+56233+089583FM-12+029199999V0201801N00101220001CN0060001N9-01221-02001999999ADDAA199000091AY101999GF102991001001999999001011KA1999M-01001MD1310041+9999MW1041
0089295530999991971030915004+56233+089583FM-12+029199999V0201801N00101220001CN0160001N9-01721-02221999999ADDAY121999GF102991001001999999001011KA1999M+99999MD1010121+9999MW1001EQDQ01 -03112ATMX  
0057295530999991971030918004+56233+089583FM-12+029199999V0201801N00101220001CN0190001N9-01721-02001999999ADDAY101999GF101991001001999999001011MD1210021+9999MW1021
0057295530999991971030921004+56233+089583FM-12+029199999V0201101N00101220001CN0210001N9-02111-02221999999ADDAY101999GF101991001001999999001011MD1810031+9999MW1021
0125295530999991971031000004+56233+089583FM-12+029199999V0209991C00001220001CN0110001N9-02001-02001999999ADDAA199000091AY101999GF102991001001999999001011HL10009IA1319IA2999-03229KA1999N-02221MD1110702+9999MW1041EQDQ01+000702APC3  
0057295530999991971031006004+56233+089583FM-12+029199999V0200901N00101220001CN0110001N9-01001-01721104931ADDAY101999GF100991001001999999001001MD1710061+9999MW1021
0057295530999991971031009004+56233+089583FM-12+029199999V0200701N00311220001CN0150001N9-00891-01781104831ADDAY101999GF100991001001999999001001MD1710081+9999MW1021
0081295530999991971031012004+56233+089583FM-12+029199999V0200501N00101220001CN0100001N9-01001-01781104791ADDAA199000091AY101999GF102991001001999999001011KA1999M-00891MD1710061+9999MW1041
0057295530999991971031018004+56233+089583FM-12+029199999V0200701N00101220001CN0200001N9-01611-01891104811ADDAY101999GF100991001001999999001001MD1710061+9999MW1021
0057295530999991971031021004+56233+089583FM-12+029199999V0200701N00101220001CN0180001N9-01001-02001104791ADDAY101999GF100991001001999999001001MD1710051+9999MW1021
0106295530999991971031100004+56233+089583FM-12+029199999V0200701N00211220001CN0170001N9-02001-02111104811ADDAA199000091AY101999GF101991001001999999001011HL10009IA1319IA2999-03119KA1999N-02111MD1710011+9999MW1021
0057295530999991971031103004+56233+089583FM-12+029199999V0201101N00211220001CN0090001N9-01611-01891104751ADDAY101999GF101991001001999999001011MD1410001+9999MW1101
0057295530999991971031106004+56233+089583FM-12+029199999V0200701N00101220001CN0140001N9-01111-01721104651ADDAY101999GF102991001001999999001011MD1810021+9999MW1021
0057295530999991971031109004+56233+089583FM-12+029199999V0200501N00311220001CN0150001N9-00781-01501104541ADDAY101999GF102991001001999999001011MD1710061+9999MW1021
0081295530999991971031112004+56233+089583FM-12+029199999V0200701N00211220001CN0090001N9-01001-01721104581ADDAA199000091AY101999GF102991001001999999001011KA1999M-00781MD1310011+9999MW1101
0057295530999991971031115004+56233+089583FM-12+029199999V0201401N00101220001CN0080001N9-01221-01721104541ADDAY101999GF102991001001999999001011MD1810061+9999MW1101
0057295530999991971031118004+56233+089583FM-12+029199999V0200701N00211220001CN0090001N9-01501-01781104471ADDAY101999GF102991001001999999001011MD1710121+9999MW1101
0057295530999991971031121004+56233+089583FM-12+029199999V0200701N00101220001CN0080001N9-01611-01781104361ADDAY101999GF100991001001999999001001MD1710021+9999MW1101
0057295530999991971031203004+56233+089583FM-12+029199999V0200701N00311220001CN0230001N9-01391-01721104181ADDAY101999GF100991001001999999001001MD1710061+9999MW1021
0057295530999991971031206004+56233+089583FM-12+029199999V0200701N00311220001CN0200001N9-00781-01721103821ADDAY101999GF100991001001999999001001MD1710081+9999MW1021
0057295530999991971031209004+56233+089583FM-12+029199999V0200501N00311220001CN0190001N9-00281-01281103821ADDAY101999GF100991001001999999001001MD1710111+9999MW1021
0057295530999991971031218004+56233+089583FM-12+029199999V0200701N00311220001CN0500001N9-01001-01781103861ADDAY101999GF100991001001999999001001MD1710181+9999MW1021
0057295530999991971031221004+56233+089583FM-12+029199999V0200901N00101220001CN0090001N9-01281-02001103481ADDAY101999GF100991001001999999001001MD1710141+9999MW1021
0106295530999991971031300004+56233+089583FM-12+029199999V0200701N00721220001CN0300001N9-00781-01891103521ADDAA199000091AY101999GF199999001001999999071999HL10009IA1319IA2999-02289KA1999N-01501MD1310011+9999MW1021
0057295530999991971031306004+56233+089583FM-12+029199999V0200501N00211220001CN0230001N9-00781-01611103431ADDAY101999GF100991001001999999001001MD1310031+9999MW1021
0057295530999991971031309004+56233+089583FM-12+029199999V0200701N00311220001CN0260001N9-00501-01391103241ADDAY101999GF100991001001999999001001MD1810151+9999MW1021
0057295530999991971031315004+56233+089583FM-12+029199999V0200501N00211220001CN0500001N9-00781-01611103261ADDAY101999GF100991001001999999001001MD1810031+9999MW1021
0057295530999991971031318004+56233+089583FM-12+029199999V0200701N00211220001CN0500001N9-01111-01721103251ADDAY101999GF100991001001999999001001MD1710061+9999MW1021
0057295530999991971031321004+56233+089583FM-12+029199999V0200701N00211220001CN0500001N9-01281-01781103271ADDAY101999GF100991001001999999001001MD1710011+9999MW1021
0093295530999991971031400004+56233+089583FM-12+029199999V0200701N00311220001CN0200001N9-01281-01721103391ADDAA199000091AY101999GF100991001001999999001001HL10009IA1319IA2999-02619MD1310121+9999MW1021
0057295530999991971031403004+56233+089583FM-12+029199999V0200701N00211220001CN0170001N9-01221-01611103431ADDAY101999GF100991001001999999001001MD1210061+9999MW1021
0057295530999991971031406004+56233+089583FM-12+029199999V0200501N00311220001CN0180001N9-00501-01611102951ADDAY101999GF100991001001999999001001MD1810481+9999MW1021
0057295530999991971031409004+56233+089583FM-12+029199999V0200501N00411220001CN0500001N9-00221-01281103321ADDAY101999GF100991001001999999001001MD1310111+9999MW1021
0081295530999991971031412004+56233+089583FM-12+029199999V0200701N00311220001CN0500001N9-00281-01391103261ADDAA199000091AY101999GF100991001001999999001001KA1999M-00221MD1810071+9999MW1021
0057295530999991971031415004+56233+089583FM-12+029199999V0200701N00411220001CN0170001N9-00721-01721103221ADDAY101999GF100991001001999999001001MD1110021+9999MW1021
0057295530999991971031418004+56233+089583FM-12+029199999V0200701N00411220001CN0200001N9-01001-01611103091ADDAY101999GF100991001001999999001001MD1710161+9999MW1021
0106295530999991971031500004+56233+089583FM-12+029199999V0200701N00311220001CN0500001N9-01391-01781102721ADDAA199000091AY101999GF100991001001999999001001HL10009IA1319IA2999-02119KA1999N-01501MD1710221+9999MW1021
0057295530999991971031503004+56233+089583FM-12+029199999V0200501N00101220001CN0240001N9-00891-01501102511ADDAY101999GF101991001001999999001011MD1710141+9999MW1021
0057295530999991971031506004+56233+089583FM-12+029199999V0200701N00411220001CN0240001N9-00281-01221102171ADDAY101999GF101991001001999999001011MD1710241+9999MW1021
0057295530999991971031509004+56233+089583FM-12+029199999V0201101N00621220001CN0500001N9+00111-01221102001ADDAY121999GF105991001001999999001011MD1710121+9999MW1021
0081295530999991971031512004+56233+089583FM-12+029199999V0200901N00211220001CN0500001N9-00221-00891102031ADDAA199000091AY121999GF107991031001999999041011KA1999M+00111MD1710011+9999MW1021
0057295530999991971031515004+56233+089583FM-12+029199999V0201801N00411024001CN0500001N9-00391-01001102071ADDAY121999GF108991081001999999011999MD1710031+9999MW1031
0057295530999991971031518004+56233+089583FM-12+029199999V0201801N00101024001CN0060001N9-00501-00501102161ADDAY171999GF108991081001999999021999MD1310121+9999MW1731
0057295530999991971031521004+56233+089583FM-12+029199999V0202301N00211000601CN0100001N9-00391-00611102351ADDAY181999GF108991081071000751001999MD1210191+9999MW1711
0117295530999991971031600004+56233+089583FM-12+029199999V0202301N00101030001CN0040001N9-00281-00391102501ADDAA106004091AA299001091AY171999GF108991021071008001021999HL10009IA1319IA2999-02009KA1999N-00501MD1210171+9999MW1731
0057295530999991971031603004+56233+089583FM-12+029199999V0202301N00511007801CN0033001N9-00281-00501102671ADDAY181999GF107991051091008001031001MD1210161+9999MW1861
0057295530999991971031606004+56233+089583FM-12+029199999V0202301N00721030001CN0070001N9-00281-00501102771ADDAY181999GF107991021091008001031011MD1210101+9999MW1851
0057295530999991971031609004+56233+089583FM-12+029199999V0202301N00411007801CN0110001N9-00111-00721102691ADDAY181999GF108991051091008001071999MD1810051+9999MW1851
0092295530999991971031612004+56233+089583FM-12+029199999V0201801N00211004501CN0130001N9-00221-00611102681ADDAA106002091AA299000591AY181999GF107991051051004501031011KA1999M-00111MD1710031+9999MW1021
0057295530999991971031615004+56233+089583FM-12+029199999V0202001N00211030001CN0080001N9-00221-00611102481ADDAY171999GF108991031051008001071999MD1710191+9999MW1711
0057295530999991971031618004+56233+089583FM-12+029199999V0201101N00211030001CN0200001N9-00391-00611102211ADDAY171999GF108991031051008001071999MD1710291+9999MW1021
0057295530999991971031621004+56233+089583FM-12+029199999V0201101N00101030001CN0200001N9-00391-00611101951ADDAY121999GF108991031051008001071999MD1710261+9999MW1021
0117295530999991971031700004+56233+089583FM-12+029199999V0201401N00311007801CN0200001N9-00391-00721101621ADDAA106075091AA224999999AY121999GF108991051051008001071999HL10009IA1319IA2999-00899KA1999N-00501MD1710301+9999MW1031
0057295530999991971031703004+56233+089583FM-12+029199999V0201401N00411220001CN0400001N9-00111-00721101281ADDAY121999GF107991001001999999001011MD1710291+9999MW1021
0057295530999991971031706004+56233+089583FM-12+029199999V0201401N00721075001CN0500001N9+00221-00501100811ADDAY121999GF107991031001999999041021MD1710421+9999MW1031
0057295530999991971031709004+56233+089583FM-12+029199999V0201601N00411220001CN0500001N9+00501-00391100571ADDAY121999GF107991001001999999001011MD1710191+9999MW1021
0097295530999991971031712004+56233+089583FM-12+029199999V0202501N00211007801CN0500001N9+00501-00281100491ADDAA199000091AY121999GA1081+007809059GF108991081051008001999999KA1999M+00501MD1710221+9999MW1021
0057295530999991971031715004+56233+089583FM-12+029199999V0202501N00411024001CN0150001N9+00501-00281100431ADDAY121999GF108991081001999999021999MD1710071+9999MW1031
0057295530999991971031718004+56233+089583FM-12+029199999V0202501N00821007801CN0190001N9+00281+00221100491ADDAY161999GF108991051071008001021999MD1310031+9999MW1611
0073295530999991971031721004+56233+089583FM-12+029199999V0202701N00721005401CN0500001N9+00111-00221100701ADDAY161999GA1081+005409059GF108991081051004501999999MD1210171+9999MW1011
0111295530999991971031800004+56233+089583FM-12+029199999V0202301N00721220001CN0200001N9-00111-00281100641ADDAA106004091AA299001091AY161999GF102991021071008001031001HL10009IA2999-00899KA1999N-00111MD1810071+9999MW1011
0057295530999991971031803004+56233+089583FM-12+029199999V0202001N00821075001CN0500001N9+00111-00501100321ADDAY121999GF108991031091008001001071MD1710291+9999MW1031
0057295530999991971031806004+56233+089583FM-12+029199999V0202501N00721007801CN0021001N9-00221-00501100321ADDAY181999GF108991061091008001001071MD1710021+9999MW1861
0057295530999991971031809004+56233+089583FM-12+029199999V0202301N00871007801CN0011001N9-00391-00611100391ADDAY181999GF108991081091008001999999MD1310021+9999MW1861
0092295530999991971031812004+56233+089583FM-12+029199999V0202301N00871007801CN0034001N9-00391-00721100421ADDAA106004091AA299001091AY181999GF108991081091008001999999KA1999M+00111MD1210031+9999MW1861
0057295530999991971031815004+56233+089583FM-12+029199999V0202501N00821007801CN0025001N9-00391-00501100541ADDAY181999GF108991081091008001999999MD1210121+9999MW1861
0057295530999991971031818004+56233+089583FM-12+029199999V0202901N00821007801CN0015001N9-00501-00611100791ADDAY181999GF108991081091008001999999MD1210221+9999MW1861
0057295530999991971031821004+56233+089583FM-12+029199999V0202901N00511007801CN0150001N9-00781-01221101291ADDAY181999GF106991061091008001001001MD1210451+9999MW1851
0117295530999991971031900004+56233+089583FM-12+029199999V0202301N00511007801CN0040001N9-01001-01221101601ADDAA106004091AA299001091AY181999GF108991081091008001999999HL10009IA1319IA2999-01009KA1999N-01001MD1210281+9999MW1851
0057295530999991971031903004+56233+089583FM-12+029199999V0202301N00871007801CN0030001N9-00891-01111101701ADDAY181999GF108991081091008001999999MD1210101+9999MW1861
0057295530999991971031906004+56233+089583FM-12+029199999V0202701N00721007801CN0035001N9-00721-01111101801ADDAY181999GF107991071091008001001001MD1210131+9999MW1861
0057295530999991971031909004+56233+089583FM-12+029199999V0202701N00821007801CN0030001N9-00611-01001101861ADDAY181999GF107991061091008001001011MD1210071+9999MW1861
0092295530999991971031912004+56233+089583FM-12+029199999V0202501N00511007801CN0080001N9-00721-00891102001ADDAA106004091AA299001091AY181999GF107991051091008001001011KA1999M-00611MD1210121+9999MW1851
0057295530999991971031915004+56233+089583FM-12+029199999V0202701N00511220001CN0100001N9-00891-01221102121ADDAY181999GF104991041091012501001001MD1210081+9999MW1851
0057295530999991971031918004+56233+089583FM-12+029199999V0202501N00411007801CN0090001N9-00781-01001102191ADDAY181999GF108991081091008001999999MD1210091+9999MW1851
0057295530999991971031921004+56233+089583FM-12+029199999V0202501N00211007801CN0100001N9-00781-01001102581ADDAY181999GF108991081091008001999999MD1210381+9999MW1851
0117295530999991971032000004+56233+089583FM-12+029199999V0202501N00311007801CN0040001N9-00781-00891102401ADDAA106001091AA299000391AY181999GF108991081091008001999999HL10009IA1319IA2999-01229KA1999N-00891MD1210031+9999MW1851
0057295530999991971032003004+56233+089583FM-12+029199999V0202501N00311220001CN0060001N9-00721-00891102491ADDAY181999GF107991001001999999001011MD1210091+9999MW1711
0057295530999991971032006004+56233+089583FM-12+029199999V0202301N00411220001CN0170001N9-00501-01001102521ADDAY181999GF107991021021008001001011MD1210061+9999MW1221
0057295530999991971032009004+56233+089583FM-12+029199999V0202501N00311007801CN0080001N9-00281-00781102471ADDAY181999GF106991061091008001001001MD1810021+9999MW1851
0079295530999991971032012004+56233+089583FM-12+029199999V0202001N00311007801CN0080001N9-00501-00721102501ADDAA106001091AA299000391AY181999GF107991051091008001001011MD1410001+9999MW1851
0057295530999991971032015004+56233+089583FM-12+029199999V0202301N00211007801CN0090001N9-00611-00891102461ADDAY181999GF107991051091008001001011MD1810051+9999MW1851
0057295530999991971032018004+56233+089583FM-12+029199999V0202301N00411007801CN0090001N9-00501-00721102291ADDAY181999GF107991061091008001001011MD1710151+9999MW1851
0057295530999991971032021004+56233+089583FM-12+029199999V0202301N00411007801CN0100001N9-00501-00781102081ADDAY181999GF108991081091008001999999MD1710211+9999MW1851
0117295530999991971032100004+56233+089583FM-12+029199999V0202001N00511007801CN0100001N9-00501-00891101911ADDAA106001091AA299000391AY181999GF108991081091008001999999HL10009IA1319IA2999-00789KA1999N-00611MD1710161+9999MW1851
0057295530999991971032106004+56233+089583FM-12+029199999V0202001N00621024001CN0290001N9-00221-01001101911ADDAY181999GF108991081001999999011999MD1710221+9999MW1021
0092295530999991971032112004+56233+089583FM-12+029199999V0201801N00411024001CN0500001N9-00111-00891100821ADDAA106075091AA224999999AY121999GF108991081001999999071999KA1999M+00001MD1710241+9999MW1021
0057295530999991971032115004+56233+089583FM-12+029199999V0202501N00411024001CN0050001N9-00221-00501100811ADDAY171999GF108991081001999999071999MD1710031+9999MW1711
0057295530999991971032118004+56233+089583FM-12+029199999V0202701N00411024001CN0080001N9-00391-00721100911ADDAY171999GF108991081001999999071999MD1310071+9999MW1711
0057295530999991971032121004+56233+089583FM-12+029199999V0202501N00511220001CN0250001N9-00501-00891101071ADDAY171999GF103991001001999999001011MD1210151+9999MW1221
0117295530999991971032200004+56233+089583FM-12+029199999V0202301N00311030001CN0190001N9-00611-01001101221ADDAA106075091AA224999999AY171999GF108991041051008001071999HL10009IA1319IA2999-01009KA1999N-00721MD1210131+9999MW1021
0057295530999991971032203004+56233+089583FM-12+029199999V0202301N00621220001CN0230001N9-00501-01001101191ADDAY121999GF106991001001999999001071MD1810021+9999MW1011
0057295530999991971032206004+56233+089583FM-12+029199999V0202301N00821220001CN0260001N9-00111-00891101021ADDAY121999GF103991011011012501041011MD1710101+9999MW1031
0057295530999991971032209004+56233+089583FM-12+029199999V0202301N00821220001CN0260001N9+00221-00781100821ADDAY121999GF105991001001999999001021MD1710161+9999MW1021
0081295530999991971032212004+56233+089583FM-12+029199999V0202301N00621024001CN0500001N9+00111-01001100661ADDAA199000091AY121999GF108991081001999999071999KA1999M+00221MD1710171+9999MW1021
0057295530999991971032215004+56233+089583FM-12+029199999V0202301N00621220001CN0500001N9+00001-01111100661ADDAY121999GF102991021001999999041001MD1710011+9999MW1021
0057295530999991971032218004+56233+089583FM-12+029199999V0202301N00511220001CN0500001N9-00221-00891100641ADDAY121999GF100991001001999999001001MD1710051+9999MW1021
0106295530999991971032300004+56233+089583FM-12+029199999V0202001N00411220001CN0230001N9-00501-00781100721ADDAA199000091AY101999GF103991021001999999041011HL10009IA1209IA2999-01119KA1999N-00501MD1810011+9999MW1021
0057295530999991971032303004+56233+089583FM-12+029199999V0202501N00211024001CN0200001N9-00221-00721100581ADDAY121999GF108991081001999999071999MD1710101+9999MW1021
0043295530999991971032306004+56233+089583FM-12+029199999V0202701N00311024001CN0280001N9+00001-00721100471ADDAY121999GF107991051001999999041011MW1021
