0106295620999991971010100004+56100+091667FM-12+033099999V0209991C00001220001CN0500001N9-02611-02891104181ADDAA199000091AY101999GF100991001001999999001001HL10009IA1319IA2999-03009KA1999N-02611MD1210121+9999MW1021
0057295620999991971010103004+56100+091667FM-12+033099999V0209991C00001220001CN0100001N9-02721-02891104161ADDAY101999GF100991001001999999001001MD1810031+9999MW1021
0057295620999991971010106004+56100+091667FM-12+033099999V0209991C00001220001CN0040001N9-02611-02781104091ADDAY101999GF100991001001999999001001MD1710061+9999MW1101
0057295620999991971010109004+56100+091667FM-12+033099999V0209991C00001220001CN0040001N9-02221-02391104071ADDAY101999GF100991001001999999001001MD1310061+9999MW1101
0081295620999991971010112004+56100+091667FM-12+033099999V0209991C00001220001CN0290001N9-02391-02611104201ADDAA199000091AY101999GF100991001001999999001001KA1999M-02221MD1210091+9999MW1021
0057295620999991971010115004+56100+091667FM-12+033099999V0209991C00001220001CN0160001N9-02391-02611104181ADDAY101999GF100991001001999999001001MD1710021+9999MW1021
0057295620999991971010118004+56100+091667FM-12+033099999V0209991C00001220001CN0140001N9-02391-02611104161ADDAY101999GF100991001001999999001001MD1710021+9999MW1021
0057295620999991971010121004+56100+091667FM-12+033099999V0209991C00001220001CN0190001N9-02391-02611104191ADDAY101999GF100991001001999999001001MD1310031+9999MW1021
0093295620999991971010200004+56100+091667FM-12+033099999V0209991C00001220001CN0200001N9-02281-02611104031ADDAA199000091AY101999GF100991001001999999001001HL10009IA1319IA2999-03619MD1810161+9999MW1021
0057295620999991971010206004+56100+091667FM-12+033099999V0209991C00001220001CN0500001N9-01391-01721103581ADDAY101999GF102991001001999999001021MD1710191+9999MW1021
0081295620999991971010212004+56100+091667FM-12+033099999V0200901N00101220001CN0500001N9-01111-01501103111ADDAA199000091AY111999GF108991001001999999001071KA1999M-01111MD1710321+9999MW1021
0057295620999991971010215004+56100+091667FM-12+033099999V0202001N00411021001CN0500001N9-01001-01391102801ADDAY121999GF108991081001022501021999MD1710281+9999MW1021
0057295620999991971010218004+56100+091667FM-12+033099999V0202301N00511021001CN0070001N9-00781-01221102531ADDAY171999GF108991081001022501021999MD1710221+9999MW1711
0076295620999991971010221004+56100+091667FM-12+033099999V0202001N00311007801CN0031001N9-00781-00781102371ADDAY171999GF108991999071008001021999MD1710151+9999MW1731EQDQ01+000082SCOTLC
0136295620999991971010300004+56100+091667FM-12+033099999V0202001N00511007801CN0023001N9-00611-00611102091ADDAA106016091AA299004091AY171999GF108991999071008001021999HL10009IA1319IA2999-01619KA1999N-01221MD1710251+9999MW1731EQDQ01+000082SCOTLC
0076295620999991971010303004+56100+091667FM-12+033099999V0202001N00721007801CN0020001N9-00391-00391101881ADDAY171999GF108991999071008001021999MD1710151+9999MW1731EQDQ01+000082SCOTLC
0057295620999991971010306004+56100+091667FM-12+033099999V0202001N00821021001CN0200001N9-00221-00721101771ADDAY171999GF108991081001022501021999MD1710081+9999MW1381
0057295620999991971010309004+56100+091667FM-12+033099999V0202001N00821030001CN0200001N9-00111-00891101581ADDAY131999GF108991031091008001071999MD1710181+9999MW1381
0092295620999991971010312004+56100+091667FM-12+033099999V0202301N00871021001CN0290001N9+00001-00891101351ADDAA106012091AA299003091AY131999GF108991081001022501071999KA1999M+00111MD1710201+9999MW1381
0057295620999991971010318004+56100+091667FM-12+033099999V0202301N00821021001CN0060001N9-00111-00781100941ADDAY171999GF108991081001022501021999MD1710261+9999MW1711
0127295620999991971010403004+56100+091667FM-12+033099999V0202501N00981007801CN0040001N9-00281-00891100781ADDAA106091091AA299023091AY171999GF108991999071008001021999KA1999N+99999MD1310041+9999MW1711EQDQ01+000082SCOTLCQ02 -00222ATMN  
0076295620999991971010406004+56100+091667FM-12+033099999V0202501N00981012301CN0040001N9-00501-00891100971ADDAY171999GF108991999071012501021999MD1210131+9999MW1711EQDQ01+000082SCOTLC
0057295620999991971010409004+56100+091667FM-12+033099999V0202501N00981007801CN0040001N9-00721-01391101261ADDAY171999GF108991081091008001999999MD1210261+9999MW1851
0092295620999991971010412004+56100+091667FM-12+033099999V0202001N00311220001CN0500001N9-01001-01391101551ADDAA106002091AA299000591AY181999GF105991001001999999001021KA1999M-00111MD1210211+9999MW1021
0057295620999991971010415004+56100+091667FM-12+033099999V0202701N00621030001CN0500001N9-00891-01611101611ADDAY121999GF108991031071008001011999MD1210081+9999MW1021
0057295620999991971010418004+56100+091667FM-12+033099999V0202701N008219999999N0060001N9-01221-02111101891ADDAY171999GF108991021011999999999999MD1110101+9999MW1711
0057295620999991971010421004+56100+091667FM-12+033099999V0202701N00981021001CN0060001N9-01111-01391102161ADDAY171999GF108991081001022501021999MD1210291+9999MW1711
0092295620999991971010500004+56100+091667FM-12+033099999V0202701N00821021001CN0050001N9-01281-01501102541ADDAA106004091AA299001091AY171999GF108991081001022501011999KA1999N-01281MD1210381+9999MW1711
0057295620999991971010503004+56100+091667FM-12+033099999V0202701N00411030001CN0040001N9-01391-01611103191ADDAY171999GF108991021071008001011999MD1210511+9999MW1711
0057295620999991971010506004+56100+091667FM-12+033099999V0202501N00511220001CN0100001N9-01501-01781103471ADDAY171999GF103991031011012501001001MD1210311+9999MW1021
0076295620999991971010509004+56100+091667FM-12+033099999V0202001N00311220001CN0200001N9-01391-01781103621ADDAY111999GF107991001999999999001011MD1210151+9999MW1021EQDQ01+000782APC3  
0092295620999991971010512004+56100+091667FM-12+033099999V0202301N00211220001CN0500001N9-01391-01891103701ADDAA106075091AA224999999AY111999GF100991001001999999001001KA1999M-01281MD1210051+9999MW1011
0057295620999991971010518004+56100+091667FM-12+033099999V0202501N00211220001CN0500001N9-01721-02501103881ADDAY101999GF100991001001999999001001MD1210011+9999MW1021
0057295620999991971010521004+56100+091667FM-12+033099999V0209991C00001220001CN0500001N9-01781-02281103771ADDAY101999GF103991001001999999001021MD1810131+9999MW1021
0106295620999991971010600004+56100+091667FM-12+033099999V0202501N00411220001CN0500001N9-01281-02221103161ADDAA199000091AY111999GF106991001001999999001021HL10009IA1319IA2999-02509KA1999N-01781MD1710491+9999MW1021
0057295620999991971010603004+56100+091667FM-12+033099999V0202601N00411021001CN0200001N9-01111-01891102701ADDAY121999GF108991081001022501011999MD1710411+9999MW1021
0057295620999991971010606004+56100+091667FM-12+033099999V0201801N00621021001CN0200001N9-00891-01781102221ADDAY121999GF108991081001022501011999MD1710401+9999MW1021
0057295620999991971010609004+56100+091667FM-12+033099999V0201801N00821021001CN0100001N9-00781-01781101911ADDAY171999GF108991081001022501021999MD1710301+9999MW1381
0092295620999991971010612004+56100+091667FM-12+033099999V0202301N00821021001CN0270001N9-00781-01781101921ADDAA106075091AA224999999AY171999GF108991081001022501011999KA1999M-00721MD1310011+9999MW1381
0043295620999991971010615004+56100+091667FM-12+033099999V0202301N00411021001CN0170001N9-00781-01111102081ADDAY171999GF108991071001022501021999MW1711
0057295620999991971010618004+56100+091667FM-12+033099999V0202301N00211021001CN0170001N9-00781-01111102121ADDAY171999GF108991081001022501011999MD1010041+9999MW1711
0043295620999991971010621004+56100+091667FM-12+033099999V0202501N00311021001CN0100001N9-00891-01001102261ADDAY171999GF108991081001022501021999MW1711
0117295620999991971010700004+56100+091667FM-12+033099999V0202301N00311021001CN0080001N9-01001-01111102381ADDAA106075091AA224999999AY171999GF108991081001022501021999HL10009IA1319IA2999-01009KA1999N-01001MD1210101+9999MW1711
0043295620999991971010703004+56100+091667FM-12+033099999V0202301N00101021001CN0100001N9-01001-01721102431ADDAY171999GF108991081001022501021999MW1711
0057295620999991971010706004+56100+091667FM-12+033099999V0209991C00001220001CN0200001N9-00891-01001102331ADDAY171999GF108991001001999999001071MD1810081+9999MW1021
0092295620999991971010712004+56100+091667FM-12+033099999V0201801N00311220001CN0500001N9-00781-01221101831ADDAA106075091AA224999999AY121999GF108991001001999999001071KA1999M-00721MD1710251+9999MW1021
0076295620999991971010718004+56100+091667FM-12+033099999V0202001N01181030001CN0060001N9-00501-01111101831ADDAY171999GF108991031071008001011999MD1710512+9999MW1711EQDQ01+000512APC3  
0101295620999991971010800004+56100+091667FM-12+033099999V0202501N01391021001CN0080001N9-00781-01001100402ADDAY171999GF108991081001022501021999HL10009IA1319IA2999-01119MD1710101+9999MW1711EQDQ01+100403APOSLP
0057295620999991971010803004+56100+091667FM-12+033099999V0202701N01391007801CN0040001N9-01001-01281100721ADDAY181999GF108991081091008001999999MD1310261+9999MW1851
0057295620999991971010806004+56100+091667FM-12+033099999V0202701N00981030001CN0040001N9-01111-01501101091ADDAY181999GF108991011091008001011999MD1210341+9999MW1851
0057295620999991971010809004+56100+091667FM-12+033099999V0202701N01181007801CN0040001N9-01281-01611101431ADDAY181999GF107991071091008001001001MD1210311+9999MW1851
0057295620999991971010815004+56100+091667FM-12+033099999V0202301N00621220001CN0500001N9-01611-01891101911ADDAY181999GF103991031001022501041001MD1210151+9999MW1261
0057295620999991971010818004+56100+091667FM-12+033099999V0202301N00211220001CN0500001N9-01781-02111101911ADDAY181999GF108991001001999999001071MD1810041+9999MW1031
0057295620999991971010821004+56100+091667FM-12+033099999V0202001N00101220001CN0500001N9-01891-02221101841ADDAY121999GF106991001001999999001021MD1710091+9999MW1021
0117295620999991971010900004+56100+091667FM-12+033099999V0209991C00001021001CN0500001N9-01891-02221101801ADDAA106075091AA224999999AY121999GF108991081001022501011999HL10009IA1319IA2999-02899KA1999N-02111MD1710041+9999MW1021
0057295620999991971010903004+56100+091667FM-12+033099999V0202501N00101021001CN0040001N9-01891-02111101871ADDAY171999GF108991081001022501021999MD1310071+9999MW1711
0057295620999991971010906004+56100+091667FM-12+033099999V0202301N00311220001CN0100001N9-01781-02111102031ADDAY171999GF106991001001999999001061MD1210181+9999MW1021
0057295620999991971010909004+56100+091667FM-12+033099999V0202501N00311220001CN0040001N9-02111-02391102361ADDAY171999GF108991001001999999001071MD1210241+9999MW1711
0092295620999991971010912004+56100+091667FM-12+033099999V0209991C00001220001CN0500001N9-02221-02391102381ADDAA106002091AA299000591AY171999GF106991001001999999001091KA1999M-01781MD1210011+9999MW1021
0057295620999991971010918004+56100+091667FM-12+033099999V0209991C00001220001CN0230001N9-02281-02501102431ADDAY121999GF108991001001999999001071MD1810051+9999MW1021
0117295620999991971011000004+56100+091667FM-12+033099999V0201101N00211220001CN0060001N9-02001-02221102311ADDAA106002091AA299000591AY171999GF108991001001999999001071HL10009IA1319IA2999-03009KA1999N-02611MD1710011+9999MW1711
0057295620999991971011003004+56100+091667FM-12+033099999V0201601N00211021001CN0040001N9-01781-02001102151ADDAY171999GF108991081001022501011999MD1710091+9999MW1711
0057295620999991971011006004+56100+091667FM-12+033099999V0201601N00211220001CN0040001N9-01611-01781101981ADDAY171999GF108991001001999999001071MD1710131+9999MW1711
0057295620999991971011009004+56100+091667FM-12+033099999V0202001N00411220001CN0040001N9-01611-01721101831ADDAY171999GF108991001001999999001071MD1710121+9999MW1711
0092295620999991971011012004+56100+091667FM-12+033099999V0202001N00211021001CN0500001N9-01281-01721101541ADDAA106002091AA299000591AY171999GF108991081001022501011999KA1999M-01281MD1710251+9999MW1021
0057295620999991971011015004+56100+091667FM-12+033099999V0202501N00211220001CN0060001N9-01221-01501101311ADDAY171999GF108991001001999999001071MD1710211+9999MW1711
0057295620999991971011018004+56100+091667FM-12+033099999V0202001N00311220001CN0080001N9-01281-01501101211ADDAY171999GF108991001001999999001071MD1710121+9999MW1711
0057295620999991971011021004+56100+091667FM-12+033099999V0209991C00001021001CN0060001N9-01221-01391101081ADDAY171999GF108991081001022501011999MD1710131+9999MW1711
0117295620999991971011100004+56100+091667FM-12+033099999V0202001N00211220001CN0170001N9-01391-01611101101ADDAA106002091AA299000591AY171999GF108991001001999999001071HL10009IA1319IA2999-01619KA1999N-01391MD1410001+9999MW1711
0057295620999991971011103004+56100+091667FM-12+033099999V0202701N00511021001CN0040001N9-01391-01611101321ADDAY171999GF108991081001022501021999MD1210221+9999MW1711
0057295620999991971011106004+56100+091667FM-12+033099999V0202501N00621021001CN0100001N9-01781-02111101701ADDAY171999GF108991081001022501011999MD1210381+9999MW1711
0111295620999991971011112004+56100+091667FM-12+033099999V0202301N00411220001CN0300001N9-02001-02281102502ADDAA106002091AA299000591AY171999GF108991001001999999001071KA1999M-01281MD1210251+9999MW1021EQDQ01+102503APOSLP
0057295620999991971011118004+56100+091667FM-12+033099999V0201801N00311220001CN0500001N9-01781-02281101881ADDAY121999GF108991001001999999001071MD1710441+9999MW1021
0057295620999991971011121004+56100+091667FM-12+033099999V0202001N00621220001CN0300001N9-01611-02281101231ADDAY121999GF107991001001999999001071MD1710591+9999MW1021
0130295620999991971011200004+56100+091667FM-12+033099999V0201801N00821081001CN0170001N9-01391-01781100342ADDAA106999999AA299400092AY171999GA1071+081009019GF108991081001022501011999MD1710821+9999MW1711EQDQ01+100343APOSLPQ02  99982PRCP06
0057295620999991971011306004+56100+091667FM-12+033099999V0202501N00821021001CN0100001N9-00501-01001099081ADDAY131999GF108991081001022501021999MD1210101+9999MW1711
0076295620999991971011309004+56100+091667FM-12+033099999V0201801N00821007801CN0100001N9-00391-00781099051ADDAY171999GF108991999071008001021999MD1810011+9999MW1711EQDQ01+000082SCOTLC
0092295620999991971011312004+56100+091667FM-12+033099999V0201801N00721007801CN0100001N9-00391-00891098951ADDAA106002091AA299000591AY171999GF108991081091008001999999KA1999M-00281MD1710101+9999MW1851
0057295620999991971011315004+56100+091667FM-12+033099999V0202001N00721030001CN0150001N9-00221-00891098951ADDAY181999GF108991011071000251081021MD1310031+9999MW1851
0057295620999991971011318004+56100+091667FM-12+033099999V0202001N00721220001CN0500001N9-00281-00781099151ADDAY181999GF108991001001999999001071MD1210191+9999MW1381
0057295620999991971011321004+56100+091667FM-12+033099999V0202001N00621012301CN0500001N9-00391-00891099211ADDAY171999GF107991071051012501001001MD1210041+9999MW1221
0117295620999991971011400004+56100+091667FM-12+033099999V0202301N00411220001CN0500001N9-00501-01001099391ADDAA106075091AA224999999AY171999GF101991011051012501001001HL10009IA1319IA2999-01009KA1999N-00501MD1210141+9999MW1011
0057295620999991971011403004+56100+091667FM-12+033099999V0201801N00871220001CN0500001N9-00501-01001099401ADDAY101999GF102991021001022501041001MD1210011+9999MW1021
0057295620999991971011406004+56100+091667FM-12+033099999V0201801N00621220001CN0500001N9-00111-01001098991ADDAY111999GF105991001001999999001021MD1810321+9999MW1031
0057295620999991971011409004+56100+091667FM-12+033099999V0201401N00411030001CN0500001N9-00281-00891098611ADDAY131999GF105991021091008001091001MD1710391+9999MW1021
0076295620999991971011418004+56100+091667FM-12+033099999V0202501N01391220001CN0500001N9-00221-00891099781ADDAY171999GF108991001001999999001071MD1210942+9999MW1381EQDQ01+000942APC3  
0124295620999991971011421004+56100+091667FM-12+033099999V0202501N00721220001CN0500001N9-02002-02502099781ADDAY131999GF108991001001999999001071MD1410001+9999MW1381EQDQ01+025323ATOT  Q02+024823ATOD  Q03+000022APCTENQ04+000992APC3  
0152295620999991971011500004+56100+091667FM-12+033099999V0202901N00211220001CN0500001N9-02611-03111101882ADDAA106002091AA299000591AY131999GF108991001001999999001071HL10009IA1319IA2999-02729KA1999N-02611MD1210502+9999MW1021EQDQ01+101883APOSLPQ02+000502APC3  
0057295620999991971011506004+56100+091667FM-12+033099999V0209991C00001220001CN0200001N9-02721-03221102151ADDAY111999GF100991001001999999001001MD1210071+9999MW1021
0057295620999991971011509004+56100+091667FM-12+033099999V0209991C00001220001CN0100001N9-02611-03221102331ADDAY101999GF100991001001999999001001MD1210181+9999MW1021
0081295620999991971011512004+56100+091667FM-12+033099999V0209991C00001220001CN0500001N9-02891-03391102631ADDAA199000091AY101999GF101991001001999999001021KA1999M-02501MD1210231+9999MW1021
0057295620999991971011518004+56100+091667FM-12+033099999V0201401N00411220001CN0500001N9-02501-03111102791ADDAY101999GF100991001001999999001001MD1210071+9999MW1021
0106295620999991971011600004+56100+091667FM-12+033099999V0201801N00721220001CN0100001N9-01891-02781102591ADDAA199000091AY131999GF108991001001999999001071HL10009IA1319IA2999-03509KA1999N-03001MD1810101+9999MW1381
0057295620999991971011606004+56100+091667FM-12+033099999V0202301N00511220001CN0200001N9-01391-02281102181ADDAY131999GF108991001001999999001071MD1710211+9999MW1021
0057295620999991971011609004+56100+091667FM-12+033099999V0202001N00621021001CN0200001N9-01281-02221101971ADDAY121999GF108991081001022501011999MD1710171+9999MW1021
0057295620999991971011612004+56100+091667FM-12+033099999V0201801N00721021001CN0300001N9-01281-02221101931ADDAY131999GF108991081001022501011999MD1710041+9999MW1381
0057295620999991971011615004+56100+091667FM-12+033099999V0202001N00821021001CN0500001N9-01111-02111101751ADDAY131999GF108991081001022501021999MD1710151+9999MW1381
0057295620999991971011618004+56100+091667FM-12+033099999V0201801N00821021001CN0500001N9-01001-02111101561ADDAY131999GF108991081001022501021999MD1710181+9999MW1381
0057295620999991971011621004+56100+091667FM-12+033099999V0201801N00721021001CN0500001N9-01001-02001101421ADDAY131999GF108991081001022501011999MD1710121+9999MW1381
0117295620999991971011700004+56100+091667FM-12+033099999V0202001N00211021001CN0060001N9-01001-01611101351ADDAA106075091AA224999999AY171999GF108991081001022501021999HL10009IA1319IA2999-01399KA1999N-01281MD1710071+9999MW1711
0092295620999991971011706004+56100+091667FM-12+033099999V0202501N01181220001CN0040001N9-01891-02611102662ADDAY171999GF100991001001999999001001MD1210932+9999MW1381EQDQ01+102663APOSLPQ02+000932APC3  
0057295620999991971011709004+56100+091667FM-12+033099999V0202501N00981220001CN0100001N9-02111-02891103221ADDAY131999GF108991001001999999001071MD1210491+9999MW1381
0092295620999991971011712004+56100+091667FM-12+033099999V0202301N00511220001CN0300001N9-02281-03001103551ADDAA106004091AA299001091AY131999GF102991001001999999001011KA1999M-01891MD1210291+9999MW1021
0057295620999991971011715004+56100+091667FM-12+033099999V0202301N00211021001CN0500001N9-02391-03111103731ADDAY111999GF108991081001022501011999MD1210151+9999MW1031
0057295620999991971011718004+56100+091667FM-12+033099999V0202301N00101021001CN0500001N9-02391-03001103791ADDAY111999GF108991081001022501011999MD1210061+9999MW1021
0057295620999991971011721004+56100+091667FM-12+033099999V0209991C00001021001CN0500001N9-02501-03111103971ADDAY101999GF108991081001022501011999MD1210131+9999MW1021
0106295620999991971011800004+56100+091667FM-12+033099999V0209991C00001220001CN0500001N9-02721-03221104141ADDAA199000091AY121999GF108991001001999999001071HL10009IA1319IA2999-03009KA1999N-02781MD1210151+9999MW1021
0051295620999991971011803004+56100+091667FM-12+033099999V0209991C00001220001CN0040001N9-02781-03221104351ADDAY121999GF108991001001999999001071MD1210191+9999
0057295620999991971011809004+56100+091667FM-12+033099999V0209991C00001220001CN0100001N9-02221-02781104461ADDAY101999GF100991001001999999001001MD1210101+9999MW1021
0081295620999991971011812004+56100+091667FM-12+033099999V0200901N00311220001CN0500001N9-02221-02721104381ADDAA199000091AY101999GF100991001001999999001001KA1999M-02001MD1810081+9999MW1021
0057295620999991971011815004+56100+091667FM-12+033099999V0200901N003119999999N0210001N9-02221-02501104081ADDAY111999GF108991081071999999999999MD1710171+9999MW1031
0057295620999991971011818004+56100+091667FM-12+033099999V0200901N00211220001CN0500001N9-01611-02001103771ADDAY111999GF108991001001999999001071MD1710301+9999MW1021
0106295620999991971011900004+56100+091667FM-12+033099999V0201801N00511021001CN0500001N9-00891-01391103151ADDAA199000091AY121999GF108991081001022501011999HL10009IA1319IA2999-02619KA1999N-02281MD1710181+9999MW1021
0057295620999991971011903004+56100+091667FM-12+033099999V0201801N00621021001CN0500001N9-00781-01611102901ADDAY121999GF108991081001022501071999MD1710201+9999MW1021
0057295620999991971011906004+56100+091667FM-12+033099999V0201801N00621220001CN0500001N9-00611-01501102791ADDAY111999GF103991031001022501041001MD1610091+9999MW1011
0057295620999991971011909004+56100+091667FM-12+033099999V0202001N00511075001CN0200001N9-00501-01391102771ADDAY111999GF105991021001022501031021MD1710111+9999MW1021
0081295620999991971011912004+56100+091667FM-12+033099999V0202001N00411021001CN0120001N9-00721-01391102831ADDAA199000091AY111999GF108991081001022501071999KA1999M-00281MD1310041+9999MW1021
0057295620999991971011918004+56100+091667FM-12+033099999V0209991C00001024001CN0500001N9-00891-01501102831ADDAY121999GF108991081001999999021999MD1710031+9999MW1021
0057295620999991971011921004+56100+091667FM-12+033099999V0201801N00311220001CN0500001N9-00501-01111102711ADDAY121999GF108991001001999999001071MD1310071+9999MW1021
0106295620999991971012000004+56100+091667FM-12+033099999V0209991C00001021001CN0500001N9-00501-01111102721ADDAA199000091AY121999GF108991081001022501011999HL10009IA1319IA2999-01119KA1999N-01001MD1210011+9999MW1021
0057295620999991971012003004+56100+091667FM-12+033099999V0202001N00311021001CN0100001N9-00501-00891102691ADDAY171999GF108991081001022501021999MD1810031+9999MW1711
0057295620999991971012006004+56100+091667FM-12+033099999V0202301N00411220001CN0200001N9-00391-00891102641ADDAY171999GF108991001001999999001071MD1710021+9999MW1021
0057295620999991971012009004+56100+091667FM-12+033099999V0202001N00211220001CN0200001N9-00391-00781102541ADDAY121999GF108991001001999999001071MD1710071+9999MW1021
0092295620999991971012012004+56100+091667FM-12+033099999V0209991C00001021001CN0080001N9-00611-00611102591ADDAA106001091AA299000391AY171999GF108991081001022501021999KA1999M-00281MD1310011+9999MW1711
0057295620999991971012015004+56100+091667FM-12+033099999V0209991C00001021001CN0070001N9-00611-00721102611ADDAY171999GF108991081001022501021999MD1210021+9999MW1711
0057295620999991971012018004+56100+091667FM-12+033099999V0201601N00311220001CN0500001N9-00611-01221102431ADDAY171999GF102991001001999999001021MD1810151+9999MW1011
0057295620999991971012021004+56100+091667FM-12+033099999V0201401N00411220001CN0500001N9-00781-01391102311ADDAY101999GF102991001001999999001021MD1710151+9999MW1021
0117295620999991971012100004+56100+091667FM-12+033099999V0201801N00311075001CN0350001N9-00891-01501102281ADDAA106002091AA299000591AY111999GF106991031001022501091021HL10009IA1319IA2999-01509KA1999N-01001MD1710051+9999MW1031
0057295620999991971012106004+56100+091667FM-12+033099999V0202301N00101021001CN0200001N9-00611-01001102261ADDAY171999GF108991081001022501011999MD1810011+9999MW1021
0092295620999991971012112004+56100+091667FM-12+033099999V0201801N00101021001CN0500001N9-00721-01111102331ADDAA106001091AA299000391AY171999GF108991081001022501011999KA1999M-00501MD1210041+9999MW1021
0057295620999991971012118004+56100+091667FM-12+033099999V0202501N00511021001CN0060001N9-00781-00891102331ADDAY171999GF108991081001022501021999MD1710011+9999MW1711
0136295620999991971012200004+56100+091667FM-12+033099999V0202501N00721007801CN0060001N9-01001-01111102731ADDAA106004091AA299001091AY171999GF108991999071008001021999HL10009IA1319IA2999-01119KA1999N-01111MD1210221+9999MW1711EQDQ01+000082SCOTLC
0079295620999991971012203004+56100+091667FM-12+033099999V0202501N00721021001CN0040001N9-01111-01221103011ADDAA106999999AA224999999AY171999GF108991081001022501011999MD1210281+9999MW1711
0057295620999991971012206004+56100+091667FM-12+033099999V0202301N00511220001CN0100001N9-01111-01391103201ADDAY171999GF103991021091008001001011MD1210161+9999MW1031
0057295620999991971012209004+56100+091667FM-12+033099999V0202301N00311220001CN0100001N9-01111-01391103231ADDAY101999GF103991031091008001001001MD1110031+9999MW1021
0092295620999991971012212004+56100+091667FM-12+033099999V0202301N00211021001CN0110001N9-01221-01391103271ADDAA106001091AA299000391AY111999GF108991081001022501011999KA1999M-01001MD1210031+9999MW1031
0076295620999991971012218004+56100+091667FM-12+033099999V0202301N004119999999N0500001N9-00891-01281103071ADDAY121999GF108991001999999999999999MD1710101+9999MW1021EQDQ01    083SCOLCG
0057295620999991971012221004+56100+091667FM-12+033099999V0202301N00311021001CN0500001N9-00891-01221102971ADDAY121999GF108991081001022501021999MD1710091+9999MW1021
0117295620999991971012300004+56100+091667FM-12+033099999V0202301N00311021001CN0080001N9-00721-01111102861ADDAA106075091AA224999999AY171999GF108991081001022501021999HL10009IA1319IA2999-02229KA1999N-01391MD1710081+9999MW1711
0057295620999991971012303004+56100+091667FM-12+033099999V0202501N00211021001CN0100001N9-00611-01001102811ADDAY171999GF108991081001022501021999MD1710041+9999MW1711
0057295620999991971012306004+56100+091667FM-12+033099999V0202501N00511007801CN0040001N9-00721-00721102901ADDAY171999GF108991081091008001999999MD1310081+9999MW1851
0098295620999991971012309004+56100+091667FM-12+033099999V0202501N00821021001CN0100001N9-00721-00891102971ADDAA106999999AA299400092AY181999GF108991081001022501021999MD1210071+9999MW1711EQDQ01  99982PRCP06
0092295620999991971012312004+56100+091667FM-12+033099999V0202501N00721021001CN0080001N9-00781-00891103141ADDAA106004091AA299001091AY181999GF108991081001022501011999KA1999M-00501MD1210131+9999MW1711
0057295620999991971012315004+56100+091667FM-12+033099999V0202301N00511021001CN0070001N9-00891-00891103401ADDAY171999GF108991081001022501021999MD1210241+9999MW1711
0057295620999991971012318004+56100+091667FM-12+033099999V0202301N00311021001CN0060001N9-01001-01001103571ADDAY131999GF108991081001022501021999MD1210151+9999MW1711
0057295620999991971012321004+56100+091667FM-12+033099999V0202001N00311021001CN0060001N9-01001-01111103701ADDAY171999GF108991081001022501021999MD1210111+9999MW1711
0117295620999991971012400004+56100+091667FM-12+033099999V0202001N00211021001CN0060001N9-01001-01111103771ADDAA106004091AA299001091AY171999GF108991081001022501021999HL10009IA1319IA2999-01229KA1999N-01111MD1210071+9999MW1711
0057295620999991971012406004+56100+091667FM-12+033099999V0209991C00001220001CN0040001N9-00781-01111103771ADDAY171999GF100991001001999999001001MD1810031+9999MW1101
0057295620999991971012409004+56100+091667FM-12+033099999V0202001N00311220001CN0040001N9-00781-01111103751ADDAY101999GF103991031011012501001001MD1710021+9999MW1101
0092295620999991971012412004+56100+091667FM-12+033099999V0201801N00311220001CN0280001N9-01001-01221103801ADDAA106075091AA224999999AY121999GF105991021001022501071061KA1999M-00611MD1310011+9999MW1021
0057295620999991971012418004+56100+091667FM-12+033099999V0209991C00001021001CN0500001N9-01111-01391103571ADDAY171999GF108991081001022501011999MD1810081+9999MW1021
0117295620999991971012500004+56100+091667FM-12+033099999V0209991C00001015001CN0500001N9-01111-01281103471ADDAA106001091AA299000391AY121999GF108991081091017501999999HL10009IA1319IA2999-01399KA1999N-01221MD1710081+9999MW1021
0076295620999991971012503004+56100+091667FM-12+033099999V0201801N00311021001CN0200001N9-01221-01501103421ADDAY121999GF107991999001022501071001MD1710061+9999MW1021EQDQ01+000062SCOTLC
0057295620999991971012506004+56100+091667FM-12+033099999V0201801N00411021001CN0040001N9-00891-01001103301ADDAY171999GF108991081001022501021999MD1710081+9999MW1711
0057295620999991971012509004+56100+091667FM-12+033099999V0202001N00411021001CN9999999N9-00891-01001103321ADDAY171999GF108991081001022501021999MD1310021+9999MW1711
0092295620999991971012512004+56100+091667FM-12+033099999V0202301N00511021001CN0080001N9-00891-01001103371ADDAA106008091AA299002091AY171999GF108991081001022501021999KA1999M-00781MD1210051+9999MW1711
0057295620999991971012515004+56100+091667FM-12+033099999V0202301N00511021001CN0060001N9-01001-01111103531ADDAY171999GF108991081001022501021999MD1010141+9999MW1711
0057295620999991971012518004+56100+091667FM-12+033099999V0202301N00311021001CN0060001N9-01001-01111103601ADDAY171999GF108991081001022501021999MD1310071+9999MW1711
0057295620999991971012521004+56100+091667FM-12+033099999V0202001N00411021001CN0060001N9-01111-01221103611ADDAY171999GF108991081001022501021999MD1410001+9999MW1711
0117295620999991971012600004+56100+091667FM-12+033099999V0202301N00211021001CN0050001N9-01111-01221103681ADDAA106004091AA299001091AY171999GF108991081001022501021999HL10009IA1319IA2999-01229KA1999N-01111MD1310051+9999MW1711
0057295620999991971012603004+56100+091667FM-12+033099999V0201601N00101021001CN0100001N9-01111-01221103681ADDAY171999GF107991071001022501031001MD1410001+9999MW1021
0057295620999991971012606004+56100+091667FM-12+033099999V0209991C00001021001CN0200001N9-00891-01111103571ADDAY171999GF106991061001022501031001MD1810061+9999MW1021
0057295620999991971012609004+56100+091667FM-12+033099999V0202301N00211220001CN0200001N9-00721-01111103451ADDAY121999GF105991001001999999001021MD1710081+9999MW1021
0092295620999991971012612004+56100+091667FM-12+033099999V0209991C00001220001CN0500001N9-00781-01221103461ADDAA106075091AA224999999AY111999GF102991001001999999001021KA1999M-00611MD1710011+9999MW1021
0057295620999991971012615004+56100+091667FM-12+033099999V0202001N00101220001CN0500001N9-01111-01281103411ADDAY121999GF103991001001999999001021MD1710101+9999MW1021
0057295620999991971012618004+56100+091667FM-12+033099999V0201801N00311220001CN0500001N9-01001-01281103381ADDAY101999GF103991001001999999001021MD1710021+9999MW1021
0106295620999991971012700004+56100+091667FM-12+033099999V0201801N00311021001CN0500001N9-00781-01111103311ADDAA199000091AY111999GF108991081001022501071999HL10009IA1319IA2999-01619KA1999N-01111MD1810031+9999MW1021
0057295620999991971012703004+56100+091667FM-12+033099999V0201801N00211021001CN0500001N9-00721-01111103271ADDAY121999GF108991081001022501071999MD1710021+9999MW1021
0057295620999991971012706004+56100+091667FM-12+033099999V0202001N00211021001CN0500001N9-00611-01111103221ADDAY121999GF108991081001022501011999MD1710041+9999MW1021
0057295620999991971012709004+56100+091667FM-12+033099999V0202001N00311021001CN0500001N9-00611-01001103231ADDAY121999GF107991071001022501051001MD1310011+9999MW1021
0081295620999991971012712004+56100+091667FM-12+033099999V0202301N00211021001CN0500001N9-00721-01001103381ADDAA199000091AY121999GF108991081001022501011999KA1999M-00611MD1210081+9999MW1021
0057295620999991971012718004+56100+091667FM-12+033099999V0201601N00211220001CN0500001N9-00891-01221103411ADDAY111999GF100991001001999999001001MD1210041+9999MW1021
0117295620999991971012800004+56100+091667FM-12+033099999V0201401N00101021001CN0150001N9-00891-01111103431ADDAA106075091AA224999999AY171999GF108991081001022501011999HL10009IA1319IA2999-01729KA1999N-01001MD1210021+9999MW1711
0057295620999991971012803004+56100+091667FM-12+033099999V0201101N00101220001CN0100001N9-01001-01221103391ADDAY171999GF100991001001999999001001MD1810161+9999MW1011
0057295620999991971012806004+56100+091667FM-12+033099999V0209991C00001220001CN0200001N9-00501-00891103371ADDAY171999GF100991001001999999001001MD1310061+9999MW1021
0057295620999991971012809004+56100+091667FM-12+033099999V0201601N00101220001CN0100001N9-00611-01001103381ADDAY101999GF103991031001022501081001MD1410001+9999MW1021
0092295620999991971012812004+56100+091667FM-12+033099999V0201801N00101220001CN0500001N9-00781-01111103341ADDAA106075091AA224999999AY111999GF105991001001999999001021KA1999M-00281MD1810071+9999MW1021
0057295620999991971012815004+56100+091667FM-12+033099999V0209991C00001021001CN0070001N9-01001-01001103541ADDAY171999GF108991081001022501011999MD1310161+9999MW1711
0057295620999991971012818004+56100+091667FM-12+033099999V0209991C00001021001CN0070001N9-01001-01111103481ADDAY171999GF108991081001022501011999MD1710061+9999MW1711
0098295620999991971012900004+56100+091667FM-12+033099999V0200901N00101021001CN0500001N9-01221-01281103431ADDAA106001091AA299000391AY171999GF108991081001022501011999IA1319KA1999N-01281MD1710021+9999MW1031
0057295620999991971012903004+56100+091667FM-12+033099999V0209991C00001075001CN0200001N9-01111-01221103431ADDAY121999GF106991031001022501051021MD1310011+9999MW1021
0057295620999991971012906004+56100+091667FM-12+033099999V0209991C00001220001CN0500001N9-00781-01221103311ADDAY111999GF100991001001999999001001MD1810071+9999MW1011
0043295620999991971012909004+56100+091667FM-12+033099999V0202001N00101220001CN0200001N9-00721-01221103271ADDAY101999GF100991001001999999001001MW1021
0081295620999991971012912004+56100+091667FM-12+033099999V0209991C00001220001CN0500001N9-01111-01391103311ADDAA199000091AY101999GF100991001001999999001001KA1999M-00501MD1710031+9999MW1021
0057295620999991971012915004+56100+091667FM-12+033099999V0209991C00001220001CN0500001N9-01221-01501103341ADDAY101999GF100991001001999999001001MD1310021+9999MW1021
0057295620999991971012918004+56100+091667FM-12+033099999V0209991C00001220001CN0500001N9-01391-01501103281ADDAY101999GF100991001001999999001001MD1810091+9999MW1021
0117295620999991971013000004+56100+091667FM-12+033099999V0209991C00001021001CN0150001N9-01221-01281103151ADDAA106001091AA299000391AY171999GF108991081001022501011999HL10009IA1319IA2999-02009KA1999N-01501MD1710071+9999MW1711
0057295620999991971013003004+56100+091667FM-12+033099999V0209991C00001021001CN0040001N9-01221-01281103221ADDAY171999GF108991081001022501021999MD1310071+9999MW1711
0057295620999991971013006004+56100+091667FM-12+033099999V0209991C00001021001CN0040001N9-01001-01111103211ADDAY171999GF108991081001022501011999MD1210011+9999MW1711
0057295620999991971013009004+56100+091667FM-12+033099999V0202901N00311030001CN0040001N9-00781-00891103191ADDAY171999GF108991031071008001011999MD1210021+9999MW1711
0092295620999991971013012004+56100+091667FM-12+033099999V0209991C00001021001CN0100001N9-01001-01111103311ADDAA106008091AA299002091AY171999GF108991081001022501011999KA1999M-00781MD1210081+9999MW1711
0057295620999991971013015004+56100+091667FM-12+033099999V0209991C00001021001CN0090001N9-01111-01221103431ADDAY171999GF108991081001022501011999MD1210111+9999MW1711
0057295620999991971013106004+56100+091667FM-12+033099999V0209991C00001220001CN0100001N9-01281-01391103761ADDAY111999GF100991001001999999001001MD1210011+9999MW1021
0057295620999991971013109004+56100+091667FM-12+033099999V0209991C00001220001CN0040001N9-01001-01221103771ADDAY101999GF100991001001999999001001MD1210141+9999MW1101
0081295620999991971013112004+56100+091667FM-12+033099999V0209991C00001220001CN0060001N9-01281-01391103911ADDAA199000091AY101999GF100991001001999999001001KA1999M-00781MD1210111+9999MW1101
0057295620999991971013115004+56100+091667FM-12+033099999V0209991C00001220001CN0070001N9-01611-01721104021ADDAY101999GF100991001001999999001001MD1210051+9999MW1101
0057295620999991971013118004+56100+091667FM-12+033099999V0209991C00001220001CN0080001N9-02001-02111104151ADDAY101999GF100991001001999999001001MD1210041+9999MW1101
0057295620999991971020106004+56100+091667FM-12+033099999V0209991C00001220001CN0040001N9-01721+99999104301ADDAY111999GF101991011001022501041001MD1210011+9999MW1101
0057295620999991971020109004+56100+091667FM-12+033099999V0209991C00001021001CN0200001N9-01111-01501104191ADDAY111999GF106991061001022501051001MD1710011+9999MW1021
0092295620999991971020112004+56100+091667FM-12+033099999V0209991C00001021001CN0070001N9-01281-01501104311ADDAA106075091AA224999999AY171999GF106991061001022501031001KA1999M-01111MD1310101+9999MW1711
0057295620999991971020115004+56100+091667FM-12+033099999V0209991C00001220001CN0100001N9-01501-01611104401ADDAY171999GF108991001001999999001071MD1210041+9999MW1711
0057295620999991971020118004+56100+091667FM-12+033099999V0209991C00001021001CN0070001N9-01391-01721104421ADDAY171999GF108991081001022501011999MD1210011+9999MW1711
0057295620999991971020121004+56100+091667FM-12+033099999V0202001N00101021001CN0060001N9-01501-01611104371ADDAY171999GF108991081001022501021999MD1810041+9999MW1711
0117295620999991971020200004+56100+091667FM-12+033099999V0202001N00101021001CN0060001N9-01391-01501104401ADDAA106001091AA299000391AY171999GF108991081001022501021999HL10009IA1319IA2999-02289KA1999N-01721MD1310051+9999MW1711
0057295620999991971020203004+56100+091667FM-12+033099999V0209991C00001021001CN0040001N9-01391-01501104461ADDAY171999GF108991081001022501021999MD1810061+9999MW1711
0057295620999991971020206004+56100+091667FM-12+033099999V0209991C00001220001CN0100001N9-01221-01391104461ADDAY171999GF108991001001999999001071MD1310041+9999MW1711
0057295620999991971020209004+56100+091667FM-12+033099999V0209991C00001220001CN0100001N9-01111-01391104531ADDAY171999GF100991001001999999001001MD1210081+9999MW1021
0092295620999991971020212004+56100+091667FM-12+033099999V0209991C00001220001CN0500001N9-01391-01501104651ADDAA106004091AA299001091AY171999GF102991001001999999001021KA1999M-00891MD1210071+9999MW1021
0057295620999991971020215004+56100+091667FM-12+033099999V0209991C00001021001CN0100001N9-01781-01891104561ADDAY171999GF108991081001022501011999MD1810161+9999MW1711
0057295620999991971020218004+56100+091667FM-12+033099999V0209991C00001220001CN0080001N9-01891-02001104501ADDAY171999GF108991001001999999001071MD1710091+9999MW1711
0057295620999991971020221004+56100+091667FM-12+033099999V0209991C00001007801CN0070001N9-01721-01781104271ADDAY171999GF108991081091008001999999MD1710181+9999MW1851
0117295620999991971020300004+56100+091667FM-12+033099999V0202301N00101220001CN0070001N9-02001-02111104191ADDAA106001091AA299000391AY181999GF100991001001999999001001HL10009IA1319IA2999-02619KA1999N-02111MD1710131+9999MW1101
0057295620999991971020303004+56100+091667FM-12+033099999V0202301N00311030001CN0040001N9-02001-02111104071ADDAY111999GF108991021071008001011999MD1710121+9999MW1101
0057295620999991971020306004+56100+091667FM-12+033099999V0202901N00211030001CN0100001N9-02001-02111103961ADDAY181999GF105991031091008001021001MD1610111+9999MW1021
0057295620999991971020309004+56100+091667FM-12+033099999V0203601N00101075001CN0040001N9-01891-02001103911ADDAY181999GF106991031091008001001021MD1510021+9999MW1851
0092295620999991971020312004+56100+091667FM-12+033099999V0203601N00101220001CN0500001N9-02111-02221104011ADDAA106002091AA299000591AY181999GF102991001001999999001021KA1999M-01721MD1210061+9999MW1021
0057295620999991971020315004+56100+091667FM-12+033099999V0209991C00001220001CN0500001N9-02281-02501104021ADDAY101999GF100991001001999999001001MD1810021+9999MW1021
0057295620999991971020318004+56100+091667FM-12+033099999V0200201N00101220001CN0500001N9-02721-02891104261ADDAY101999GF100991001001999999001001MD1310171+9999MW1021
0057295620999991971020321004+56100+091667FM-12+033099999V0209991C00001220001CN0500001N9-03001-03221104431ADDAY101999GF100991001001999999001001MD1210211+9999MW1021
0106295620999991971020400004+56100+091667FM-12+033099999V0209991C00001220001CN0500001N9-03391-03611104661ADDAA199000091AY101999GF100991001001999999001001HL10009IA1009IA2999-03789KA1999N-03391MD1210121+9999MW1021
0057295620999991971020403004+56100+091667FM-12+033099999V0209991C00001220001CN0200001N9-03391-03611104761ADDAY101999GF100991001001999999001001MD1210101+9999MW1021
0057295620999991971020406004+56100+091667FM-12+033099999V0209991C00001220001CN0200001N9-02781-03001104651ADDAY101999GF100991001001999999001001MD1210021+9999MW1021
0057295620999991971020409004+56100+091667FM-12+033099999V0209991C00001220001CN0200001N9-02221-02501104601ADDAY101999GF100991001001999999001001MD1210061+9999MW1021
0081295620999991971020412004+56100+091667FM-12+033099999V0209991C00001220001CN0500001N9-02611-02781104761ADDAA199000091AY101999GF100991001001999999001001KA1999M-02221MD1210091+9999MW1021
0057295620999991971020418004+56100+091667FM-12+033099999V0209991C00001220001CN0500001N9-03221-03391104831ADDAY101999GF100991001001999999001001MD1810061+9999MW1021
0092295620999991971020500004+56100+091667FM-12+033099999V0200801N99999220001CN0500001N9-03781-04001104851ADDAA199000091AY101999GF100991001001999999001001HL10009IA1319IA2999-03789KA1999N-03781MW1021
0057295620999991971020503004+56100+091667FM-12+033099999V0209991C00001220001CN0500001N9-03111-03281104551ADDAY101999GF100991001001999999001001MD1710141+9999MW1021
0057295620999991971020506004+56100+091667FM-12+033099999V0209991C00001220001CN0500001N9-02501-02721104301ADDAY101999GF100991001001999999001001MD1710121+9999MW1021
0057295620999991971020509004+56100+091667FM-12+033099999V0209991C00001220001CN0500001N9-01891-02281104031ADDAY101999GF100991001001999999001001MD1710151+9999MW1021
0081295620999991971020512004+56100+091667FM-12+033099999V0200501N00211220001CN0070001N9-02391-02721103991ADDAA199000091AY101999GF100991001001999999001001KA1999M-01781MD1710121+9999MW1101
0057295620999991971020515004+56100+091667FM-12+033099999V0209991C00001220001CN0070001N9-02721-02891103801ADDAY101999GF100991001001999999001001MD1710221+9999MW1111
0057295620999991971020518004+56100+091667FM-12+033099999V0209991C00001220001CN0090001N9-02721-02891103581ADDAY101999GF100991001001999999001001MD1710221+9999MW1101
0057295620999991971020521004+56100+091667FM-12+033099999V0209991C00001220001CN0500001N9-02721-02891103271ADDAY121999GF100991001001999999001001MD1710291+9999MW1021
0106295620999991971020600004+56100+091667FM-12+033099999V0200501N00211220001CN0160001N9-02721-02891103171ADDAA199000091AY111999GF108991001001999999001071HL10009IA1319IA2999-03229KA1999N-02781MD1710101+9999MW1031
0057295620999991971020603004+56100+091667FM-12+033099999V0200501N00101075001CN0040001N9-02501-02721102991ADDAY171999GF108991021001022501041071MD1710151+9999MW1711
0057295620999991971020606004+56100+091667FM-12+033099999V0209991C00001220001CN0040001N9-02221-02501102861ADDAY171999GF106991001001999999001011MD1710071+9999MW1711
0057295620999991971020609004+56100+091667FM-12+033099999V0209991C00001220001CN0040001N9-01891-02221102861ADDAY171999GF100991001001999999001001MD1310051+9999MW1101
0092295620999991971020612004+56100+091667FM-12+033099999V0209991C00001220001CN0050001N9-02221-02391103041ADDAA106002091AA299000591AY171999GF100991001001999999001001KA1999M-01781MD1210131+9999MW1101
0057295620999991971020615004+56100+091667FM-12+033099999V0200901N00101220001CN0060001N9-02111-02611103041ADDAY101999GF100991001001999999001001MD1810031+9999MW1101
0057295620999991971020618004+56100+091667FM-12+033099999V0209991C00001220001CN0070001N9-03111+99999103351ADDAY101999GF100991001001999999001001MD1710081+9999MW1101
0057295620999991971020621004+56100+091667FM-12+033099999V0209991C00001220001CN0070001N9-03111-03281103001ADDAY101999GF100991001001999999001001MD1710091+9999MW1101
0106295620999991971020700004+56100+091667FM-12+033099999V0209991C00001220001CN0060001N9-03391-03611102941ADDAA199000091AY101999GF100991001001999999001001HL10009IA1319IA2999-03729KA1999N-03391MD1710101+9999MW1101
0057295620999991971020703004+56100+091667FM-12+033099999V0209991C00001220001CN0040001N9-03281-03501102831ADDAY101999GF100991001001999999001001MD1710101+9999MW1101
0057295620999991971020706004+56100+091667FM-12+033099999V0209991C00001220001CN0100001N9-02501-02781102511ADDAY101999GF102991001001999999001051MD1710171+9999MW1021
0057295620999991971020709004+56100+091667FM-12+033099999V0209991C00001220001CN0100001N9-01721-02111102391ADDAY111999GF106991001001999999001051MD1710011+9999MW1021
0092295620999991971020712004+56100+091667FM-12+033099999V0209991C00001220001CN0160001N9-01721-02001102371ADDAA106075091AA224999999AY171999GF108991001001999999001071KA1999M-01611MD1310021+9999MW1711
0057295620999991971020715004+56100+091667FM-12+033099999V0200901N00101220001CN0120001N9-01891-02001102301ADDAY121999GF106991001001999999001061MD1810101+9999MW1021
0057295620999991971020718004+56100+091667FM-12+033099999V0209991C000019999999N0090001N9-02111-02221102301ADDAY121999GF107991001001999999999999MD1710051+9999MW1161
0057295620999991971020721004+56100+091667FM-12+033099999V0209991C00001220001CN0090001N9-02221-02391102301ADDAY121999GF107991021001022501041011MD1710011+9999MW1101
0095295620999991971020800004+56100+091667FM-12+033099999V0209991C00001021001CN0090001N9-02001-02221102421ADDAY121999GF107991071001022501031001HL10009IA1319IA2999-02399KA1999N-02221MD1310151+9999MW1101
0057295620999991971020806004+56100+091667FM-12+033099999V0209991C00001220001CN0040001N9-01111-01391102431ADDAY171999GF106991001001999999001061MD1210091+9999MW1711
0057295620999991971020809004+56100+091667FM-12+033099999V0209991C00001220001CN0040001N9-00721-00891102401ADDAY171999GF106991001001999999001061MD1210041+9999MW1711
0092295620999991971020812004+56100+091667FM-12+033099999V0209991C00001021001CN0070001N9-00781-00891102551ADDAA106001091AA299000391AY171999GF108991081001022501071999KA1999M-00501MD1210111+9999MW1711
0057295620999991971020815004+56100+091667FM-12+033099999V0209991C00001021001CN0120001N9-00891-00891102551ADDAY171999GF108991081001022501011999MD1810011+9999MW1711
0057295620999991971020818004+56100+091667FM-12+033099999V0209991C00001220001CN0500001N9-01111-01111102561ADDAY171999GF106991001001999999001051MD1710011+9999MW1021
0057295620999991971020821004+56100+091667FM-12+033099999V0209991C00001220001CN0090001N9-01221-01281102651ADDAY171999GF108991001001999999001071MD1310061+9999MW1711
0117295620999991971020900004+56100+091667FM-12+033099999V0209991C00001021001CN0120001N9-01001-01001102701ADDAA106001091AA299000391AY171999GF108991081001022501011999HL10009IA1319IA2999-01619KA1999N-01221MD1210071+9999MW1711
0057295620999991971020903004+56100+091667FM-12+033099999V0209991C00001012301CN0040001N9-01001-01001102811ADDAY171999GF107991071051012501001001MD1210111+9999MW1711
0057295620999991971020906004+56100+091667FM-12+033099999V0209991C00001007801CN0040001N9-00721-00781102761ADDAY171999GF108991081051008001999999MD1410001+9999MW1711
0057295620999991971020909004+56100+091667FM-12+033099999V0200501N00211021001CN0200001N9-00781-01111102761ADDAY171999GF106991061001022501031001MD1710011+9999MW1021
0092295620999991971020912004+56100+091667FM-12+033099999V0209991C00001220001CN0500001N9-01281-01501102921ADDAA106001091AA299000391AY171999GF100991001001999999001001KA1999M-00611MD1310081+9999MW1021
0057295620999991971020915004+56100+091667FM-12+033099999V0209991C00001220001CN0500001N9-01721-01781103091ADDAY101999GF100991001001999999001001MD1210091+9999MW1021
0057295620999991971020918004+56100+091667FM-12+033099999V0209991C00001220001CN0500001N9-01781-02111103121ADDAY101999GF100991001001999999001001MD1210011+9999MW1021
0057295620999991971020921004+56100+091667FM-12+033099999V0209991C00001220001CN0500001N9-02001-02281103211ADDAY101999GF100991001001999999001001MD1210041+9999MW1021
0106295620999991971021000004+56100+091667FM-12+033099999V0209991C00001220001CN0500001N9-02221-02501103241ADDAA199000091AY101999GF100991001001999999001001HL10009IA1319IA2999-02899KA1999N-02221MD1210011+9999MW1021
0057295620999991971021003004+56100+091667FM-12+033099999V0209991C00001220001CN0100001N9-02111-02391103261ADDAY101999GF100991001001999999001001MD1210031+9999MW1021
0057295620999991971021006004+56100+091667FM-12+033099999V0200701N00211220001CN0100001N9-01221-01781103061ADDAY101999GF100991001001999999001001MD1810021+9999MW1021
0057295620999991971021009004+56100+091667FM-12+033099999V0200701N00311220001CN0200001N9-01221-01781103021ADDAY101999GF100991001001999999001001MD1710041+9999MW1021
0081295620999991971021012004+56100+091667FM-12+033099999V0200701N00101220001CN0500001N9-01781-02111103171ADDAA199000091AY101999GF100991001001999999001001KA1999M-01001MD1310031+9999MW1021
0057295620999991971021015004+56100+091667FM-12+033099999V0200501N00101220001CN0500001N9-02001-02281103311ADDAY101999GF100991001001999999001001MD1210071+9999MW1021
0057295620999991971021018004+56100+091667FM-12+033099999V0200501N00211021001CN0500001N9-02111-02281103321ADDAY111999GF107991071001022501031001MD1410001+9999MW1021
0057295620999991971021021004+56100+091667FM-12+033099999V0209991C00001021001CN0060001N9-01781-02001103191ADDAY171999GF108991081001022501021999MD1710051+9999MW1711
0057295620999991971021103004+56100+091667FM-12+033099999V0202501N002119999999N0040001N9-01111-01221103001ADDAY171999GF108991081001999999021999MD1510021+9999MW1711
0057295620999991971021106004+56100+091667FM-12+033099999V0202501N00311030001CN0100001N9-01001-01111102971ADDAY171999GF108991041071008001011999MD1810021+9999MW1221
0057295620999991971021109004+56100+091667FM-12+033099999V0202301N00511220001CN0200001N9-00891-01391102961ADDAY121999GF103991021011012501001021MD1310011+9999MW1011
0092295620999991971021112004+56100+091667FM-12+033099999V0209991C00001220001CN0250001N9-01281-01501103031ADDAA106004091AA299001091AY121999GF102991001001999999001021KA1999M-00781MD1210011+9999MW1021
0057295620999991971021115004+56100+091667FM-12+033099999V0209991C00001220001CN0500001N9-01501-01611102961ADDAY101999GF102991001001999999001021MD1810111+9999MW1021
0057295620999991971021118004+56100+091667FM-12+033099999V0201401N00101220001CN0090001N9-01611-01721102861ADDAY101999GF100991001001999999001001MD1710111+9999MW1101
0057295620999991971021121004+56100+091667FM-12+033099999V0209991C00001220001CN0500001N9-02221-02391102591ADDAY111999GF108991001001999999001071MD1710151+9999MW1021
0082295620999991971021200004+56100+091667FM-12+033099999V0200901N00411021001CN0100001N9-01221-01391102311ADDAY111999GF108991081001022501011999HL10009IA1319IA2999-02399MD1710201+9999MW1101
0057295620999991971021203004+56100+091667FM-12+033099999V0200701N00211021001CN0040001N9-01281-01391102171ADDAY171999GF108991081001022501021999MD1510161+9999MW1711
0057295620999991971021206004+56100+091667FM-12+033099999V0209991C00001021001CN0040001N9-01221-01281102101ADDAY171999GF108991081001022501011999MD1610051+9999MW1711
0057295620999991971021209004+56100+091667FM-12+033099999V0202501N00411021001CN0040001N9-01111-01281102151ADDAY171999GF108991081001022501011999MD1210061+9999MW1711
0092295620999991971021212004+56100+091667FM-12+033099999V0202301N00211021001CN0080001N9-01281-01391102341ADDAA106004091AA299001091AY171999GF108991081001022501011999KA1999M-01001MD1210171+9999MW1711
0057295620999991971021215004+56100+091667FM-12+033099999V0202001N00101220001CN0110001N9-01611-01721102501ADDAY171999GF108991001001999999001071MD1210111+9999MW1711
0057295620999991971021218004+56100+091667FM-12+033099999V0209991C00001021001CN0060001N9-01721-01781102891ADDAY171999GF108991081001022501011999MD1210221+9999MW1711
0117295620999991971021300004+56100+091667FM-12+033099999V0209991C00001021001CN0060001N9-01891-02001102941ADDAA106004091AA299001091AY171999GF108991081001022501011999HL10009IA1319IA2999-02509KA1999N-01891MD1210011+9999MW1711
0057295620999991971021303004+56100+091667FM-12+033099999V0209991C00001220001CN0040001N9-02111-02221103261ADDAY171999GF104991001001999999001021MD1210281+9999MW1101
0057295620999991971021306004+56100+091667FM-12+033099999V0202501N00411220001CN0040001N9-01781-02111103351ADDAY171999GF106991001001999999001011MD1210131+9999MW1101
0057295620999991971021309004+56100+091667FM-12+033099999V0202301N00211220001CN0040001N9-01721-02001103431ADDAY121999GF105991001001999999001021MD1210101+9999MW1101
0092295620999991971021312004+56100+091667FM-12+033099999V0209991C00001220001CN0070001N9-02001-02221103621ADDAA106004091AA299001091AY111999GF102991001001999999001021KA1999M-01611MD1210121+9999MW1101
0057295620999991971021318004+56100+091667FM-12+033099999V0209991C00001220001CN0070001N9-02281-02391103731ADDAY111999GF108991001001999999001071MD1810011+9999MW1101
0057295620999991971021321004+56100+091667FM-12+033099999V0209991C00001220001CN0100001N9-02391-02501103661ADDAY111999GF100991001001999999001001MD1710101+9999MW1021
0106295620999991971021400004+56100+091667FM-12+033099999V0209991C00001220001CN0500001N9-02721-02781103601ADDAA199000091AY111999GF100991001001999999001001HL10009IA1319IA2999-03509KA1999N-02781MD1710111+9999MW1021
0057295620999991971021403004+56100+091667FM-12+033099999V0209991C00001220001CN0040001N9-02781-02891103481ADDAY101999GF100991001001999999001001MD1710141+9999MW1101
0057295620999991971021406004+56100+091667FM-12+033099999V0209991C00001220001CN0200001N9-02001-02111103211ADDAY101999GF100991001001999999001001MD1710121+9999MW1021
0081295620999991971021412004+56100+091667FM-12+033099999V0209991C00001220001CN0090001N9-01891-02111103131ADDAA199000091AY101999GF100991001001999999001001KA1999M-01391MD1310051+9999MW1101
0057295620999991971021415004+56100+091667FM-12+033099999V0209991C00001021001CN0060001N9-02221-02281103231ADDAY171999GF108991081001022501011999MD1210051+9999MW1711
0057295620999991971021418004+56100+091667FM-12+033099999V0209991C00001021001CN0090001N9-02611-02781103441ADDAY171999GF107991061001022501011021MD1210121+9999MW1711
0117295620999991971021500004+56100+091667FM-12+033099999V0209991C00001021001CN0500001N9-02891-03111103661ADDAA106001091AA299000391AY171999GF105991051001022501031001HL10009IA1319IA2999-03399KA1999N-03001MD1210061+9999MW1021
0057295620999991971021503004+56100+091667FM-12+033099999V0209991C00001220001CN0040001N9-03001-03221103751ADDAY111999GF100991001001999999001001MD1210071+9999MW1101
0057295620999991971021506004+56100+091667FM-12+033099999V0209991C00001220001CN0100001N9-02391-02611103631ADDAY111999GF100991001001999999001001MD1810011+9999MW1021
0057295620999991971021509004+56100+091667FM-12+033099999V0202001N00101220001CN0100001N9-02001-02501103591ADDAY101999GF100991001001999999001001MD1310021+9999MW1021
0057295620999991971021515004+56100+091667FM-12+033099999V0209991C00001220001CN0210001N9-02501-02721103681ADDAY101999GF103991001001999999001021MD1310011+9999MW1021
0057295620999991971021518004+56100+091667FM-12+033099999V0209991C00001220001CN0500001N9-02891-03111103731ADDAY101999GF100991001001999999001001MD1810021+9999MW1021
0057295620999991971021521004+56100+091667FM-12+033099999V0209991C00001220001CN0500001N9-03001-03221103741ADDAY101999GF103991001001999999001051MD1310011+9999MW1021
0106295620999991971021600004+56100+091667FM-12+033099999V0209991C00001220001CN0500001N9-03111-03281103731ADDAA199000091AY111999GF105991001001999999001061HL10009IA1319IA2999-03729KA1999N-03391MD1810041+9999MW1021
0057295620999991971021603004+56100+091667FM-12+033099999V0209991C00001220001CN0200001N9-02891-03111103581ADDAY121999GF108991001001999999001071MD1710121+9999MW1021
0057295620999991971021606004+56100+091667FM-12+033099999V0209991C00001220001CN0200001N9-02111-02391103361ADDAY121999GF108991001001999999001071MD1710081+9999MW1021
0057295620999991971021609004+56100+091667FM-12+033099999V0209991C00001220001CN0200001N9-01611-02111103101ADDAY121999GF108991001001999999001071MD1710131+9999MW1021
0081295620999991971021612004+56100+091667FM-12+033099999V0200501N00101220001CN0200001N9-01891-02221103101ADDAA199000091AY121999GF108991001001999999001071KA1999M-01501MD1710071+9999MW1021
0057295620999991971021615004+56100+091667FM-12+033099999V0209991C00001220001CN0500001N9-02221-02391103061ADDAY121999GF108991001001999999001071MD1710091+9999MW1021
0057295620999991971021618004+56100+091667FM-12+033099999V0209991C00001220001CN0210001N9-02501-02721103081ADDAY111999GF100991001001999999001001MD1710041+9999MW1021
0104295620999991971021700004+56100+091667FM-12+033099999V0209991C00001220001CN0500001N9-02781-03001103071ADDAA106999999AA224999999AY111999GF106991001001999999001071HL10009IA1319IA2999-03729MD1310011+9999MW1021
0057295620999991971021703004+56100+091667FM-12+033099999V0209991C00001220001CN0040001N9-02721-02891102951ADDAY111999GF100991001001999999001001MD1810101+9999MW1101
0057295620999991971021706004+56100+091667FM-12+033099999V0209991C00001220001CN0040001N9-01781-02111102711ADDAY111999GF100991001001999999001001MD1710071+9999MW1101
0057295620999991971021709004+56100+091667FM-12+033099999V0209991C00001220001CN0040001N9-01611-02001102551ADDAY101999GF100991001001999999001001MD1710101+9999MW1101
0092295620999991971021712004+56100+091667FM-12+033099999V0200701N00101220001CN0040001N9-01721-02001102481ADDAY101999GF100991001001999999001001MD1710071+9999MW1101EQDQ01+000002APCTENQ02+000642APC3  
0057295620999991971021715004+56100+091667FM-12+033099999V0200501N00211220001CN0080001N9-01781-02111102331ADDAY101999GF100991001001999999001001MD1710161+9999MW1101
0057295620999991971021718004+56100+091667FM-12+033099999V0201101N00101220001CN0080001N9-01611-01891102011ADDAY111999GF108991001001999999001071MD1710261+9999MW1101
0062295620999991971021721004+56100+091667FM-12+033099999V0201101N003119999999N0070001N9-01391-01721101671ADDAY121999GF108991999999999999001001MW1101EQDQ01+000002SCOTLC
0117295620999991971021800004+56100+091667FM-12+033099999V0201401N00211021001CN0070001N9-01281-01391101411ADDAA106001091AA299000391AY171999GF108991081001022501021999HL10009IA1319IA2999-02899KA1999N-01891MD1710211+9999MW1711
0057295620999991971021803004+56100+091667FM-12+033099999V0201401N00101024001CN0040001N9-01111-01221101211ADDAY171999GF108991081001999999021999MD1710171+9999MW1711
0057295620999991971021806004+56100+091667FM-12+033099999V0201101N00101220001CN0200001N9-00781-01111100851ADDAY171999GF108991001001999999001071MD1710291+9999MW1021
0057295620999991971021809004+56100+091667FM-12+033099999V0201101N00101021001CN0040001N9-00721-00781100521ADDAY171999GF108991081001022501011999MD1710311+9999MW1711
0092295620999991971021812004+56100+091667FM-12+033099999V0201401N00101021001CN0200001N9-00611-00721100321ADDAA106004091AA299001091AY171999GF108991081001022501021999KA1999M-00611MD1710161+9999MW1021
0057295620999991971021818004+56100+091667FM-12+033099999V0209991C00001021001CN0060001N9-01001-01111100201ADDAY171999GF108991081001022501021999MD1310051+9999MW1711
0043295620999991971021821004+56100+091667FM-12+033099999V0202501N00871021001CN0070001N9-01221-01391100901ADDAY171999GF108991081001022501021999MW1711
0117295620999991971021900004+56100+091667FM-12+033099999V0202501N00511220001CN0230001N9-01721-02281101281ADDAA106008091AA299002091AY171999GF108991001001999999001071HL10009IA1319IA2999-01619KA1999N-01721MD1210381+9999MW1021
0057295620999991971021903004+56100+091667FM-12+033099999V0202001N00621021001CN0100001N9-01781-02281101431ADDAY121999GF108991081001022501011999MD1210131+9999MW1021
0057295620999991971021906004+56100+091667FM-12+033099999V0202301N00621220001CN0100001N9-01611-02111101571ADDAY121999GF106991031091008001001061MD1210171+9999MW1021
0057295620999991971021909004+56100+091667FM-12+033099999V0202301N00721007801CN0100001N9-01611-02221101681ADDAY131999GF106991061091008001001001MD1210091+9999MW1381
0092295620999991971021912004+56100+091667FM-12+033099999V0202701N00411220001CN0100001N9-01891-02281102021ADDAA106075091AA224999999AY181999GF103991031001022501041001KA1999M-01501MD1210281+9999MW1261
0057295620999991971021918004+56100+091667FM-12+033099999V0209991C00001220001CN0500001N9-02391-02721102421ADDAY101999GF100991001001999999001001MD1210161+9999MW1021
0106295620999991971022000004+56100+091667FM-12+033099999V0201101N00101220001CN0500001N9-03111-03281102631ADDAA199000091AY101999GF100991001001999999001001HL10009IA1319IA2999-03899KA1999N-03221MD1210021+9999MW1061
0057295620999991971022003004+56100+091667FM-12+033099999V0209991C00001220001CN0200001N9-03221-03391102741ADDAY111999GF108991001001999999001071MD1210101+9999MW1021
0057295620999991971022006004+56100+091667FM-12+033099999V0209991C00001220001CN0100001N9-02281-02781102741ADDAY111999GF102991001001999999001021MD1210161+9999MW1011
0062295620999991971022009004+56100+091667FM-12+033099999V0202501N001019999999N0100001N9-02221-02721102781ADDAY111999GF108991999081999999071999MW1021EQDQ01+000002SCOTLC
0092295620999991971022012004+56100+091667FM-12+033099999V0209991C00001021001CN0040001N9-02221-02391102841ADDAA106075091AA224999999AY171999GF108991081001022501011999KA1999M-02111MD1210051+9999MW1711
0057295620999991971022015004+56100+091667FM-12+033099999V0202701N00411021001CN0110001N9-02501-02781102841ADDAY171999GF108991081001022501021999MD1210221+9999MW1711
0057295620999991971022018004+56100+091667FM-12+033099999V0202701N00721021001CN0090001N9-02781-03001103661ADDAY171999GF108991081001022501011999MD1210281+9999MW1711
0057295620999991971022021004+56100+091667FM-12+033099999V0202701N00411220001CN0300001N9-03111-03281103911ADDAY171999GF105991001001999999001061MD1210201+9999MW1221
0117295620999991971022100004+56100+091667FM-12+033099999V0209991C00001220001CN0270001N9-03281-03501104111ADDAA106002091AA299000591AY171999GF105991001001999999001061HL10009IA1319IA2999-04119KA1999N-03391MD1210121+9999MW1021
0057295620999991971022103004+56100+091667FM-12+033099999V0209991C00001220001CN0040001N9-03391-03611104271ADDAY111999GF100991001001999999001001MD1210131+9999MW1101
0057295620999991971022106004+56100+091667FM-12+033099999V0209991C00001220001CN0100001N9-02891-03281104211ADDAY111999GF108991001001999999001071MD1210051+9999MW1021
0057295620999991971022109004+56100+091667FM-12+033099999V0203401N00211021001CN0100001N9-02781-03221104041ADDAY121999GF108991081001022501011999MD1810141+9999MW1021
0081295620999991971022112004+56100+091667FM-12+033099999V0209991C00001220001CN0100001N9+99999+99999104181ADDAA199000091AY121999GF100991001001999999001001KA1999M-02721MD1310111+9999MW1021
0057295620999991971022121004+56100+091667FM-12+033099999V0209991C00001220001CN0500001N9-03281-03501104191ADDAY101999GF100991001001999999001001MD1710011+9999MW1021
0057295620999991971022203004+56100+091667FM-12+033099999V0209991C00001220001CN0040001N9-04001-04281104231ADDAY101999GF100991001001999999001001MD1710061+9999MW1101
0057295620999991971022206004+56100+091667FM-12+033099999V0209991C00001220001CN0040001N9-02891-03221103881ADDAY101999GF100991001001999999001001MD1710091+9999MW1101
0057295620999991971022209004+56100+091667FM-12+033099999V0200701N00411220001CN0040001N9-02391-02781103731ADDAY171999GF108991001001999999001071MD1710061+9999MW1711
0092295620999991971022212004+56100+091667FM-12+033099999V0200701N00411220001CN0100001N9-02781-03111103861ADDAA106075091AA224999999AY171999GF108991001001999999001071KA1999M-02391MD1310061+9999MW1711
0057295620999991971022215004+56100+091667FM-12+033099999V0209991C00001220001CN0500001N9-03001-03221103851ADDAY171999GF100991001001999999001001MD1810051+9999MW1021
0057295620999991971022218004+56100+091667FM-12+033099999V0200501N00101220001CN0050001N9-03001-03221103781ADDAY171999GF108991001001999999001071MD1710071+9999MW1711
0057295620999991971022221004+56100+091667FM-12+033099999V0209991C00001021001CN0050001N9-02891-03111103771ADDAY171999GF108991081001022501011999MD1310011+9999MW1711
0117295620999991971022300004+56100+091667FM-12+033099999V0209991C00001220001CN0500001N9-03111-03281103721ADDAA106075091AA224999999AY171999GF100991001001999999001001HL10009IA1309IA2999-03119KA1999N-03221MD1810081+9999MW1021
0057295620999991971022303004+56100+091667FM-12+033099999V0200501N00211220001CN0500001N9-03001-03281103741ADDAY101999GF100991001001999999001001MD1210031+9999MW1021
0057295620999991971022306004+56100+091667FM-12+033099999V0200501N00311220001CN0500001N9-02281-03001103541ADDAY101999GF100991001001999999001001MD1810061+9999MW1021
0057295620999991971022309004+56100+091667FM-12+033099999V0200501N00311220001CN0500001N9-02221-03111103471ADDAY101999GF100991001001999999001001MD1710161+9999MW1021
0081295620999991971022312004+56100+091667FM-12+033099999V0200501N00311220001CN0500001N9-02721-03221103691ADDAA199000091AY101999GF100991001001999999001001KA1999M-02001MD1310071+9999MW1021
0057295620999991971022315004+56100+091667FM-12+033099999V0200501N00211220001CN0500001N9-02891-03281103681ADDAY101999GF100991001001999999001001MD1810051+9999MW1021
0057295620999991971022318004+56100+091667FM-12+033099999V0200501N00101220001CN0500001N9-03111-03281103641ADDAY101999GF100991001001999999001001MD1710071+9999MW1021
0057295620999991971022321004+56100+091667FM-12+033099999V0209991C00001220001CN0500001N9-03281-03501103681ADDAY101999GF100991001001999999001001MD1710021+9999MW1021
0106295620999991971022400004+56100+091667FM-12+033099999V0209991C00001220001CN0070001N9-04281-04612103721ADDAA199000091AY101999GF100991001001999999001001HL10009IA1319IA2999-04789KA1999N-04501MD1710031+9999MW1101
0057295620999991971022403004+56100+091667FM-12+033099999V0209991C00001220001CN0040001N9-03781-04001103751ADDAY101999GF100991001001999999001001MD1410001+9999MW1101
0057295620999991971022406004+56100+091667FM-12+033099999V0209991C00001220001CN0200001N9-02611-03221103401ADDAY101999GF100991001001999999001001MD1810091+9999MW1021
0057295620999991971022409004+56100+091667FM-12+033099999V0209991C00001220001CN0200001N9-02221-03111103251ADDAY101999GF100991001001999999001001MD1710061+9999MW1021
0081295620999991971022412004+56100+091667FM-12+033099999V0200501N00311220001CN0200001N9-02611-03501103441ADDAA199000091AY101999GF100991001001999999001001KA1999M-01891MD1310101+9999MW1021
0057295620999991971022415004+56100+091667FM-12+033099999V0209991C00001220001CN0500001N9-02891-03391103491ADDAY101999GF100991001001999999001001MD1810011+9999MW1011
0057295620999991971022418004+56100+091667FM-12+033099999V0200501N00101220001CN0500001N9-03221-03501103571ADDAY101999GF100991001001999999001001MD1310031+9999MW1021
0057295620999991971022421004+56100+091667FM-12+033099999V0209991C00001220001CN0500001N9-03721-04001103701ADDAY101999GF100991001001999999001001MD1210011+9999MW1021
0106295620999991971022500004+56100+091667FM-12+033099999V0209991C00001220001CN0500001N9-03781-04111103741ADDAA199000091AY101999GF100991001001999999001001HL10009IA1319IA2999-04119KA1999N-03781MD1210011+9999MW1021
0057295620999991971022506004+56100+091667FM-12+033099999V0209991C00001220001CN0100001N9-02501-03111103421ADDAY101999GF100991001001999999001001MD1810051+9999MW1021
0057295620999991971022509004+56100+091667FM-12+033099999V0200701N00211220001CN0100001N9-02221-02781103301ADDAY101999GF100991001001999999001001MD1710051+9999MW1021
0081295620999991971022512004+56100+091667FM-12+033099999V0200701N00211220001CN0100001N9-02611-03221103431ADDAA199000091AY101999GF100991001001999999001001KA1999M-02221MD1310051+9999MW1021
0062295620999991971022515004+56100+091667FM-12+033099999V0209991C00001220001CN0500001N9-02891-03111103581ADDAY101999GF100991001001999999001001MW1021EQDQ01    993SCOTCV
0057295620999991971022518004+56100+091667FM-12+033099999V0209991C00001220001CN0500001N9-03001-03221103501ADDAY101999GF100991001001999999001001MD1810101+9999MW1021
0106295620999991971022600004+56100+091667FM-12+033099999V0209991C00001220001CN0500001N9-03221-03391103501ADDAA199000091AY101999GF100991001001999999001001HL10009IA1319IA2999-04009KA1999N-03501MD1310021+9999MW1021
0057295620999991971022606004+56100+091667FM-12+033099999V0209991C00001220001CN0500001N9-02221-02781103261ADDAY101999GF100991001001999999001001MD1710041+9999MW1021
0057295620999991971022609004+56100+091667FM-12+033099999V0200501N00311220001CN0200001N9-02111-02781103311ADDAY101999GF100991001001999999001001MD1310041+9999MW1021
0043295620999991971022612004+56100+091667FM-12+033099999V0200201N00511220001CN0200001N9-02891-03001103521ADDAY101999GF101991001001999999001011MW1021
0057295620999991971022615004+56100+091667FM-12+033099999V0209991C00001220001CN0500001N9-02781-03221103641ADDAY101999GF100991001001999999001001MD1210071+9999MW1021
0057295620999991971022618004+56100+091667FM-12+033099999V0209991C00001220001CN0500001N9-02891-03221103711ADDAY101999GF100991001001999999001001MD1210051+9999MW1021
0057295620999991971022621004+56100+091667FM-12+033099999V0209991C00001220001CN0500001N9-03391-03781103841ADDAY101999GF100991001001999999001001MD1210021+9999MW1021
0106295620999991971022700004+56100+091667FM-12+033099999V0209991C00001220001CN0500001N9-03501-03721103901ADDAA199000091AY101999GF100991001001999999001001HL10009IA1319IA2999-04119KA1999N-03611MD1210041+9999MW1021
0057295620999991971022703004+56100+091667FM-12+033099999V0209991C00001220001CN0040001N9-03501-03721103941ADDAY101999GF100991001001999999001001MD1210041+9999MW1101
0057295620999991971022706004+56100+091667FM-12+033099999V0209991C00001220001CN0100001N9-02221-02781103741ADDAY101999GF100991001001999999001001MD1210061+9999MW1021
0057295620999991971022709004+56100+091667FM-12+033099999V0200201N00311220001CN0100001N9-02111-02891103741ADDAY101999GF100991001001999999001001MD1210011+9999MW1021
0081295620999991971022712004+56100+091667FM-12+033099999V0200501N00311220001CN0200001N9-02501-03111103921ADDAA199000091AY101999GF100991001001999999001001KA1999M-02001MD1210081+9999MW1021
0057295620999991971022715004+56100+091667FM-12+033099999V0200701N00311220001CN0500001N9-02721-03221104001ADDAY101999GF100991001001999999001001MD1210061+9999MW1021
0057295620999991971022718004+56100+091667FM-12+033099999V0200201N00101220001CN0500001N9-02891-03221104121ADDAY101999GF100991001001999999001001MD1210071+9999MW1021
0057295620999991971022721004+56100+091667FM-12+033099999V0209991C00001220001CN0500001N9-03221-03391104151ADDAY101999GF100991001001999999001001MD1810021+9999MW1021
0087295620999991971022800004+56100+091667FM-12+033099999V0209991C00001220001CN0500001N9-03721-03891104231ADDAA199000091AY101999GF100991001001999999001001IA1319KA1999N-03781MD1710031+9999MW1021
0057295620999991971022806004+56100+091667FM-12+033099999V0209991C00001220001CN0500001N9-02501-03111103931ADDAY101999GF100991001001999999001001MD1810061+9999MW1021
0057295620999991971022809004+56100+091667FM-12+033099999V0203601N00101220001CN0500001N9-02281-02781103861ADDAY101999GF100991001001999999001001MD1710121+9999MW1021
0081295620999991971022812004+56100+091667FM-12+033099999V0209991C00001220001CN0500001N9-02111-02721103781ADDAA199000091AY101999GF100991001001999999001001KA1999M-01721MD1310071+9999MW1021
0057295620999991971022815004+56100+091667FM-12+033099999V0200501N00101220001CN0500001N9-02721-03221103841ADDAY101999GF100991001001999999001001MD1810041+9999MW1021
0057295620999991971022818004+56100+091667FM-12+033099999V0200501N00101220001CN0500001N9-02781-03221103501ADDAY101999GF100991001001999999001001MD1310041+9999MW1021
0106295620999991971030100004+56100+091667FM-12+033099999V0209991C00001220001CN0500001N9-03281-03611103951ADDAA199000091AY101999GF100991001001999999001001HL10009IA1319IA2999-04009KA1999N-03391MD1310061+9999MW1021
0057295620999991971030103004+56100+091667FM-12+033099999V0209991C00001220001CN0200001N9-03501-03781104021ADDAY101999GF102991001001999999001021MD1210071+9999MW1021
0057295620999991971030106004+56100+091667FM-12+033099999V0209991C00001220001CN0200001N9-02111-02781103701ADDAY101999GF102991001001999999001021MD1810051+9999MW1021
0057295620999991971030109004+56100+091667FM-12+033099999V0200201N00311220001CN0200001N9-01891-02721103641ADDAY101999GF101991001001999999001011MD1710021+9999MW1021
0057295620999991971030115004+56100+091667FM-12+033099999V0209991C00001220001CN0500001N9-02391-02891103921ADDAY101999GF100991001001999999001001MD1210071+9999MW1021
0057295620999991971030118004+56100+091667FM-12+033099999V0209991C00001220001CN0500001N9-02781-03111104021ADDAY101999GF100991001001999999001001MD1210031+9999MW1021
0043295620999991971030121004+56100+091667FM-12+033099999V0209991C00001220001CN0500001N9-03391-03611104131ADDAY101999GF100991001001999999001001MW1021
0106295620999991971030200004+56100+091667FM-12+033099999V0209991C00001220001CN0500001N9-03721-04001104281ADDAA199000091AY101999GF100991001001999999001001HL10009IA1319IA2999-04229KA1999N-03721MD1310101+9999MW1021
0057295620999991971030203004+56100+091667FM-12+033099999V0209991C00001220001CN0100001N9-03611-03781104291ADDAY101999GF100991001001999999001001MD1210031+9999MW1021
0057295620999991971030206004+56100+091667FM-12+033099999V0209991C00001220001CN0200001N9-02391-03001104081ADDAY101999GF100991001001999999001001MD1210031+9999MW1021
0057295620999991971030209004+56100+091667FM-12+033099999V0202901N00211220001CN0200001N9-02001-02501104081ADDAY101999GF100991001001999999001001MD1210061+9999MW1021
0081295620999991971030212004+56100+091667FM-12+033099999V0202501N00311220001CN0100001N9-02281-02721104301ADDAA199000091AY111999GF106991001001999999001021KA1999M-01781MD1210181+9999MW1021
0057295620999991971030218004+56100+091667FM-12+033099999V0202301N00211220001CN0100001N9-02781-03001104661ADDAY121999GF106991001001999999001061MD1210061+9999MW1021
0057295620999991971030221004+56100+091667FM-12+033099999V0209991C00001220001CN0070001N9-02781-03001104671ADDAY171999GF106991001001999999001061MD1210011+9999MW1711
0111295620999991971030300004+56100+091667FM-12+033099999V0209991C00001220001CN0500001N9-02781-03001104771ADDAA106002091AA299000591AY171999GF105991001001999999001021HL10009IA2999-04619KA1999N-02781MD1210071+9999MW1021
0057295620999991971030303004+56100+091667FM-12+033099999V0209991C00001220001CN0040001N9-02611-02891104791ADDAY171999GF107991001001999999001061MD1210091+9999MW1711
0057295620999991971030306004+56100+091667FM-12+033099999V0202301N00511220001CN0040001N9-02281-02611104741ADDAY171999GF108991001001999999001071MD1210011+9999MW1711
0057295620999991971030309004+56100+091667FM-12+033099999V0202501N00511075001CN0040001N9-02111-02501104751ADDAY171999GF107991021011012501001061MD1210041+9999MW1711
0092295620999991971030312004+56100+091667FM-12+033099999V0202301N00211220001CN0200001N9-02221-02501104831ADDAA106002091AA299000591AY171999GF106991001001999999001021KA1999M-02111MD1210061+9999MW1021
0057295620999991971030315004+56100+091667FM-12+033099999V0202301N002119999999N0500001N9-02391-02611104961ADDAY121999GF105991001001999999999021MD1210081+9999MW1021
0057295620999991971030318004+56100+091667FM-12+033099999V0209991C00001220001CN0500001N9-02611-02891104981ADDAY121999GF106991001001999999001021MD1810021+9999MW1021
0057295620999991971030321004+56100+091667FM-12+033099999V0209991C00001220001CN0500001N9-02721-02891999999ADDAY121999GF105991001001999999001021MD1310121+9999MW1021
0117295620999991971030400004+56100+091667FM-12+033099999V0209991C00001220001CN0070001N9-02891-03111999999ADDAA106075091AA224999999AY171999GF108991001001999999001071HL10009IA1319IA2999-03289KA1999N-02891MD1810091+9999MW1711
0057295620999991971030403004+56100+091667FM-12+033099999V0209991C00001220001CN0200001N9-02391-02611104991ADDAY171999GF105991001001999999001021MD1310021+9999MW1021
0057295620999991971030406004+56100+091667FM-12+033099999V0202501N00211220001CN0500001N9-01781-02391104851ADDAY171999GF102991001001999999001021MD1810041+9999MW1021
0057295620999991971030409004+56100+091667FM-12+033099999V0202501N00311220001CN0500001N9-02111-02501104691ADDAY101999GF102991001001999999001021MD1710111+9999MW1021
0092295620999991971030412004+56100+091667FM-12+033099999V0209991C00001220001CN0500001N9-01891-02221104801ADDAA106075091AA224999999AY101999GF102991001001999999001021KA1999M-01281MD1310061+9999MW1021
0057295620999991971030418004+56100+091667FM-12+033099999V0209991C00001220001CN0500001N9-02391-02891104721ADDAY101999GF100991001001999999001001MD1710051+9999MW1021
0106295620999991971030500004+56100+091667FM-12+033099999V0209991C00001220001CN0500001N9-02891-03111104771ADDAA199000091AY101999GF103991001001999999001021HL10009IA1319IA2999-03399KA1999N-02891MD1710041+9999MW1021
0057295620999991971030503004+56100+091667FM-12+033099999V0209991C00001220001CN0040001N9-02781-03001104691ADDAY101999GF103991001001999999001021MD1710051+9999MW1101
0057295620999991971030506004+56100+091667FM-12+033099999V0202301N00211220001CN0500001N9-01781-02391104381ADDAY101999GF102991001001999999001021MD1710121+9999MW1021
0057295620999991971030509004+56100+091667FM-12+033099999V0202501N00411220001CN0200001N9-01611-02391104161ADDAY111999GF105991001001999999001021MD1710161+9999MW1021
0081295620999991971030512004+56100+091667FM-12+033099999V0202501N00101220001CN0500001N9-01891-02611104151ADDAA199000091AY111999GF102991001001999999001021KA1999M-01391MD1710071+9999MW1021
0057295620999991971030515004+56100+091667FM-12+033099999V0209991C00001220001CN0500001N9-02111-02781104121ADDAY101999GF100991001001999999001001MD1710081+9999MW1021
0057295620999991971030518004+56100+091667FM-12+033099999V0209991C00001220001CN0500001N9-02611-02891104241ADDAY101999GF100991001001999999001001MD1310041+9999MW1021
0057295620999991971030521004+56100+091667FM-12+033099999V0209991C00001220001CN0500001N9-02781-03001104251ADDAY101999GF100991001001999999001001MD1810021+9999MW1021
0106295620999991971030600004+56100+091667FM-12+033099999V0209991C00001220001CN0500001N9-03001-03221104341ADDAA199000091AY101999GF101991001001999999001021HL10009IA1319IA2999-03619KA1999N-03111MD1310041+9999MW1021
0057295620999991971030606004+56100+091667FM-12+033099999V0202001N00101220001CN0200001N9-01781-02391104131ADDAY101999GF103991001001999999001021MD1210011+9999MW1021
0057295620999991971030609004+56100+091667FM-12+033099999V0202001N00101220001CN0200001N9-01781-02391104131ADDAY101999GF103991001001999999001021MD1210011+9999MW1021
0081295620999991971030612004+56100+091667FM-12+033099999V0209991C00001220001CN0100001N9-01721-02391103971ADDAA199000091AY101999GF100991001001999999001001KA1999M-01391MD1710101+9999MW1021
0057295620999991971030615004+56100+091667FM-12+033099999V0209991C00001220001CN0500001N9-02111-02501104271ADDAY101999GF100991001001999999001001MD1310221+9999MW1021
0057295620999991971030618004+56100+091667FM-12+033099999V0209991C00001220001CN0500001N9-02611-02891104391ADDAY101999GF100991001001999999001001MD1210031+9999MW1021
0057295620999991971030621004+56100+091667FM-12+033099999V0209991C00001220001CN0500001N9-02781-03001104421ADDAY101999GF100991001001999999001001MD1410001+9999MW1021
0057295620999991971030703004+56100+091667FM-12+033099999V0209991C00001220001CN0200001N9-02781-03001104361ADDAY111999GF106991001001999999001061MD1810091+9999MW1021
0057295620999991971030706004+56100+091667FM-12+033099999V0209991C00001220001CN0200001N9-01501-02221104191ADDAY111999GF102991001001999999001011MD1310061+9999MW1021
0081295620999991971030712004+56100+091667FM-12+033099999V0209991C00001220001CN0200001N9-01281-02221104071ADDAA199000091AY101999GF102991001001999999001021KA1999M-01001MD1310051+9999MW1021
0076295620999991971030715004+56100+091667FM-12+033099999V0209991C000019999999N0500001N9-01611-02391104141ADDAY141999GF108991999091999999071999MD1210011+9999MW1001EQDQ01+000002SCOTLC
0057295620999991971030718004+56100+091667FM-12+033099999V0209991C00001220001CN0500001N9-01891-02611104231ADDAY111999GF108991001001999999001071MD1210031+9999MW1021
0106295620999991971030800004+56100+091667FM-12+033099999V0209991C00001021001CN0500001N9-02281-02721104321ADDAA199000091AY121999GF108991081001022501011999HL10009IA1319IA2999-02899KA1999N-02391MD1810051+9999MW1021
0057295620999991971030803004+56100+091667FM-12+033099999V0209991C00001021001CN0500001N9-01891-02281104501ADDAY121999GF106991061001022501031001MD1310221+9999MW1021
0057295620999991971030806004+56100+091667FM-12+033099999V0209991C00001220001CN0500001N9-01221-02001104341ADDAY121999GF106991001001999999001021MD1810021+9999MW1021
0057295620999991971030809004+56100+091667FM-12+033099999V0202701N00101220001CN0500001N9-01111-01781104401ADDAY121999GF106991001001999999001021MD1310071+9999MW1021
0081295620999991971030812004+56100+091667FM-12+033099999V0202301N00101220001CN0500001N9-01391-02001104521ADDAA199000091AY111999GF100991001001999999001001KA1999M-00891MD1210071+9999MW1021
0057295620999991971030815004+56100+091667FM-12+033099999V0209991C00001220001CN0500001N9-01611-02001104641ADDAY101999GF100991001001999999001001MD1210091+9999MW1021
0057295620999991971030818004+56100+091667FM-12+033099999V0202001N00101220001CN0500001N9-02001-02221104841ADDAY101999GF100991001001999999001001MD1210101+9999MW1021
0043295620999991971030821004+56100+091667FM-12+033099999V0209991C000019999999N0500001N9-02281-02281999999ADDAY101999GF199999001999999999011071MW1021
0106295620999991971030900004+56100+091667FM-12+033099999V0209991C00001220001CN0500001N9-02501-02721999999ADDAA199000091AY101999GF100991001001999999001001HL10009IA1319IA2999-03119KA1999N-02501MD1210111+9999MW1021
0057295620999991971030906004+56100+091667FM-12+033099999V0209991C00001220001CN0500001N9-01001-01611999999ADDAY101999GF100991001001999999001001MD1210011+9999MW1021
0057295620999991971030909004+56100+091667FM-12+033099999V0209991C00001220001CN0200001N9-00891-02001104971ADDAY101999GF100991001001999999001001MD1810081+9999MW1021
0081295620999991971030912004+56100+091667FM-12+033099999V0209991C00001220001CN0200001N9-01111-01891999999ADDAA199000091AY101999GF102991001001999999001021KA1999M-00611MD1310021+9999MW1021
0057295620999991971030915004+56100+091667FM-12+033099999V0209991C00001220001CN0500001N9-01501-02001999999ADDAY101999GF100991001001999999001001MD1210081+9999MW1021
0057295620999991971030918004+56100+091667FM-12+033099999V0209991C00001220001CN0500001N9-01781-02001999999ADDAY101999GF100991001001999999001001MD1210021+9999MW1021
0057295620999991971030921004+56100+091667FM-12+033099999V0209991C00001220001CN0500001N9-02221-02281999999ADDAY101999GF100991001001999999001001MD1810021+9999MW1021
0043295620999991971031003004+56100+091667FM-12+033099999V0209991C00001220001CN0100001N9-02281-02391999999ADDAY121999GF100991001001999999001001MW1021
0057295620999991971031006004+56100+091667FM-12+033099999V0209991C00001220001CN0100001N9-01001-01611999999ADDAY101999GF100991001001999999001001MD1810221+9999MW1021
0057295620999991971031009004+56100+091667FM-12+033099999V0200501N00101220001CN0100001N9-00611-01611104961ADDAY101999GF100991001001999999001001MD1710121+9999MW1021
0081295620999991971031012004+56100+091667FM-12+033099999V0200501N00211220001CN0100001N9-00781-01721104731ADDAA199000091AY101999GF100991001001999999001001KA1999M-00281MD1710061+9999MW1021
0057295620999991971031015004+56100+091667FM-12+033099999V0200701N00411220001CN0500001N9-01281-01781104861ADDAY101999GF100991001001999999001001MD1310061+9999MW1021
0057295620999991971031018004+56100+091667FM-12+033099999V0209991C00001220001CN0500001N9-01611-01891104861ADDAY101999GF100991001001999999001001MD1810071+9999MW1021
0057295620999991971031021004+56100+091667FM-12+033099999V0209991C00001220001CN0500001N9-01891-02001104801ADDAY101999GF100991001001999999001001MD1710101+9999MW1021
0106295620999991971031100004+56100+091667FM-12+033099999V0209991C00001220001CN0500001N9-02391-02501104951ADDAA199000091AY101999GF100991001001999999001001HL10009IA1319IA2999-03009KA1999N-02391MD1310051+9999MW1021
0057295620999991971031106004+56100+091667FM-12+033099999V0209991C00001220001CN0100001N9-00721-01391104541ADDAY101999GF100991001001999999001001MD1810091+9999MW1021
0057295620999991971031109004+56100+091667FM-12+033099999V0200501N00311220001CN0100001N9-00221-01281104381ADDAY101999GF100991001001999999001001MD1710081+9999MW1021
0081295620999991971031112004+56100+091667FM-12+033099999V0200701N00411220001CN0200001N9-00611-01611104481ADDAA199000091AY101999GF100991001001999999001001KA1999M-00221MD1310031+9999MW1021
0057295620999991971031115004+56100+091667FM-12+033099999V0209991C00001220001CN0500001N9-01001-01781104601ADDAY101999GF100991001001999999001001MD1210051+9999MW1021
0057295620999991971031118004+56100+091667FM-12+033099999V0209991C00001220001CN0500001N9-01501-02111104481ADDAY101999GF100991001001999999001001MD1810201+9999MW1021
0057295620999991971031121004+56100+091667FM-12+033099999V0209991C00001220001CN0500001N9-01721-02111104471ADDAY101999GF100991001001999999001001MD1710041+9999MW1021
0057295620999991971031200004+56100+091667FM-12+033099999V0209991C00001220001CN0500001N9-01611-02221104361ADDAY101999GF100991001001999999001001MD1710091+9999MW1021
0057295620999991971031203004+56100+091667FM-12+033099999V0209991C00001220001CN0500001N9-01001-01501104241ADDAY101999GF100991001001999999001001MD1710031+9999MW1021
0057295620999991971031206004+56100+091667FM-12+033099999V0209991C00001220001CN0500001N9-00111-01391103881ADDAY101999GF100991001001999999001001MD1710181+9999MW1021
0057295620999991971031209004+56100+091667FM-12+033099999V0200501N00511220001CN0500001N9-00221-01611103811ADDAY101999GF100991001001999999001001MD1710081+9999MW1021
0081295620999991971031212004+56100+091667FM-12+033099999V0200501N00101220001CN0500001N9-00391-01001103831ADDAA199000091AY101999GF100991001001999999001001KA1999M+00001MD1710031+9999MW1021
0043295620999991971031215004+56100+091667FM-12+033099999V0200701N00211220001CN0500001N9-00781-01281103831ADDAY101999GF100991001001999999001001MW1021
0057295620999991971031218004+56100+091667FM-12+033099999V0200701N00101220001CN0500001N9-01001-01611103691ADDAY101999GF100991001001999999001001MD1710181+9999MW1021
0082295620999991971031300004+56100+091667FM-12+033099999V0209991C00001220001CN0500001N9-01221-01611103491ADDAY101999GF100991001001999999001001HL10009IA1319IA2999-02229MD1710061+9999MW1021
0057295620999991971031306004+56100+091667FM-12+033099999V0209991C00001220001CN0500001N9-00221-01281103231ADDAY101999GF100991001001999999001001MD1810111+9999MW1021
0057295620999991971031309004+56100+091667FM-12+033099999V0200201N00511220001CN0500001N9-00221-01391103171ADDAY101999GF100991001001999999001001MD1710061+9999MW1021
0057295620999991971031315004+56100+091667FM-12+033099999V0200901N00101220001CN0500001N9-00781-01611103271ADDAY101999GF100991001001999999001001MD1810051+9999MW1021
0057295620999991971031318004+56100+091667FM-12+033099999V0209991C00001220001CN0500001N9-01281-01781103331ADDAY101999GF100991001001999999001001MD1710011+9999MW1021
0106295620999991971031400004+56100+091667FM-12+033099999V0209991C00001220001CN0500001N9-02221-02281103581ADDAA199000091AY101999GF100991001001999999001001HL10009IA1319IA2999-02619KA1999N-02221MD1310091+9999MW1021
0057295620999991971031403004+56100+091667FM-12+033099999V0209991C00001220001CN0100001N9-01781-02001103571ADDAY101999GF100991001001999999001001MD1210061+9999MW1021
0057295620999991971031406004+56100+091667FM-12+033099999V0209991C00001220001CN0100001N9-00281-01111103341ADDAY101999GF100991001001999999001001MD1210031+9999MW1021
0057295620999991971031409004+56100+091667FM-12+033099999V0209991C00001220001CN0200001N9-00111-01611103231ADDAY101999GF100991001001999999001001MD1810081+9999MW1021
0081295620999991971031412004+56100+091667FM-12+033099999V0209991C00001220001CN0100001N9-00111-01391103311ADDAA199000091AY101999GF100991001001999999001001KA1999M+00111MD1310081+9999MW1021
0057295620999991971031415004+56100+091667FM-12+033099999V0200901N00311220001CN0500001N9-00611-01391103381ADDAY101999GF100991001001999999001001MD1810021+9999MW1021
0057295620999991971031418004+56100+091667FM-12+033099999V0200901N00411220001CN0500001N9-00721-01501103191ADDAY101999GF100991001001999999001001MD1710201+9999MW1021
0057295620999991971031421004+56100+091667FM-12+033099999V0200701N00621220001CN0500001N9-00781-01501102951ADDAY101999GF100991001001999999001001MD1710231+9999MW1021
0106295620999991971031500004+56100+091667FM-12+033099999V0200701N00511220001CN0500001N9-00781-01501102731ADDAA199000091AY101999GF100991001001999999001001HL10009IA1319IA2999-01509KA1999N-00891MD1710221+9999MW1021
0057295620999991971031506004+56100+091667FM-12+033099999V0200901N00411220001CN0200001N9+00111-01221102251ADDAY101999GF101991001001999999001021MD1710181+9999MW1021
0057295620999991971031509004+56100+091667FM-12+033099999V0200701N00511220001CN0200001N9+00111-01281102111ADDAY101999GF101991001001999999001021MD1710141+9999MW1021
0081295620999991971031512004+56100+091667FM-12+033099999V0200701N00311220001CN0200001N9-00221-01391102131ADDAA199000091AY101999GF103991001001999999001021KA1999M+00221MD1710021+9999MW1021
0057295620999991971031515004+56100+091667FM-12+033099999V0200901N00211220001CN0500001N9-00391-01501102131ADDAY101999GF103991001001999999001021MD1710031+9999MW1021
0057295620999991971031518004+56100+091667FM-12+033099999V0202001N00101220001CN0500001N9-00721-01611102151ADDAY111999GF106991001001999999001021MD1310011+9999MW1021
0043295620999991971031521004+56100+091667FM-12+033099999V0209991C00001021001CN0070001N9-00611-01391102361ADDAY171999GF108991081001022501021999MW1711
0117295620999991971031600004+56100+091667FM-12+033099999V0209991C00001021001CN0070001N9-00501-00501102571ADDAA106001091AA299000391AY171999GF108991081001022501021999HL10009IA1319IA2999-01229KA1999N-00721MD1210191+9999MW1711
0057295620999991971031603004+56100+091667FM-12+033099999V0202501N00311030001CN0020001N9-00281-00391102731ADDAY171999GF108991031071008001011999MD1210211+9999MW1711
0057295620999991971031606004+56100+091667FM-12+033099999V0202701N00621004501CN0200001N9-00221-00611102781ADDAY171999GF108991081091004501999999MD1210171+9999MW1021
0092295620999991971031609004+56100+091667FM-12+033099999V0202701N00411006601CN0200001N9-00111+99999102771ADDAY181999GA1071+006609099GF107991071091008001001001MD1410001+9999MW1021EQDQ01+025433ATOD  
0127295620999991971031612004+56100+091667FM-12+033099999V0202301N00211006601CN0200001N9-00221-00721102811ADDAA106004091AA299001091AY181999GA1051+006609049GF108991999071008001021999KA1999M-00111MD1210031+9999MW1021EQDQ01+000082SCOTLC
0057295620999991971031615004+56100+091667FM-12+033099999V0201801N00311021001CN0500001N9-00281-00721102641ADDAY121999GF108991081001022501011999MD1810191+9999MW1021
0057295620999991971031618004+56100+091667FM-12+033099999V0201801N00101021001CN0500001N9-00391-00781102361ADDAY121999GF108991081001022501021999MD1710271+9999MW1021
0043295620999991971031621004+56100+091667FM-12+033099999V0201601N00211021001CN0500001N9-00281-00721102111ADDAY121999GF108991081001022501071999MW1021
0106295620999991971031700004+56100+091667FM-12+033099999V0209991C00001021001CN0500001N9-00281-00721101851ADDAA199000091AY121999GF108991081001022501071999HL10009IA1319IA2999-00899KA1999N-00391MD1710231+9999MW1021
0057295620999991971031703004+56100+091667FM-12+033099999V0201401N00101021001CN0500001N9+00001-00501101511ADDAY121999GF108991081001022501011999MD1710311+9999MW1021
0057295620999991971031706004+56100+091667FM-12+033099999V0201801N00311220001CN0500001N9+00611-00391101031ADDAY121999GF106991001001999999001061MD1710371+9999MW1011
0057295620999991971031709004+56100+091667FM-12+033099999V0202001N00411220001CN0500001N9+00781-00501100701ADDAY121999GF105991001001999999001021MD1710281+9999MW1021
0081295620999991971031712004+56100+091667FM-12+033099999V0201601N00311021001CN0500001N9+00611-00391100511ADDAA199000091AY121999GF108991081001022501071999KA1999M+01001MD1710221+9999MW1021
0057295620999991971031715004+56100+091667FM-12+033099999V0202301N00211021001CN0500001N9+00501-00391100431ADDAY121999GF108991081001022501021999MD1710101+9999MW1021
0057295620999991971031718004+56100+091667FM-12+033099999V0202301N00311021001CN0500001N9+00611-00391100381ADDAY121999GF108991081001022501021999MD1710031+9999MW1021
0057295620999991971031721004+56100+091667FM-12+033099999V0202301N00981021001CN0160001N9+00221+00111100721ADDAY161999GF108991081001022501021999MD1310291+9999MW1611
0117295620999991971031800004+56100+091667FM-12+033099999V0202301N00821220001CN0500001N9+00111-00281100861ADDAA106075091AA224999999AY161999GF104991021091008001001021HL10009IA1319IA2999-00229KA1999N+00111MD1210101+9999MW1011
0057295620999991971031803004+56100+091667FM-12+033099999V0202501N00621007801CN0100001N9+00111-00781100571ADDAY101999GF108991081091008001001001MD1010261+9999MW1021
0057295620999991971031806004+56100+091667FM-12+033099999V0202501N01181007801CN0040001N9-00111-00111100471ADDAY181999GF108991081091008001999999MD1710131+9999MW1851
0057295620999991971031809004+56100+091667FM-12+033099999V0202501N00981007801CN0040001N9-00221-00501100391ADDAY181999GF108991081091008001999999MD1710091+9999MW1851
0092295620999991971031812004+56100+091667FM-12+033099999V0202501N00981007801CN0100001N9-00391-01001100461ADDAA106002091AA299000591AY181999GF108991081091008001999999KA1999M+00221MD1310031+9999MW1851
0057295620999991971031815004+56100+091667FM-12+033099999V0202301N00981007801CN0060001N9-00391-00891100551ADDAY181999GF108991081091008001999999MD1210091+9999MW1851
0057295620999991971031818004+56100+091667FM-12+033099999V0202701N00981007801CN0070001N9-00501-00501100701ADDAY181999GF108991081091008001999999MD1210131+9999MW1851
0057295620999991971031821004+56100+091667FM-12+033099999V0202701N01391007801CN0070001N9-00781-01221101091ADDAY181999GF107991071091008001001001MD1210321+9999MW1851
0111295620999991971031900004+56100+091667FM-12+033099999V0202701N00871007801CN9999999N9-01001-01391101571ADDAA106004091AA299001091AY181999GF106991061091008001001001HL10009IA2999-01899KA1999N-01001MD1210421+9999MW1381
0076295620999991971031903004+56100+091667FM-12+033099999V0202301N00511007801CN0040001N9-00891-01001101771ADDAY181999GF108991999071008001021999MD1210221+9999MW1711EQDQ01+000082SCOTLC
0057295620999991971031906004+56100+091667FM-12+033099999V0202301N01181007801CN0040001N9-00721-01001101791ADDAY171999GF108991051071008001011999MD1210061+9999MW1711
0057295620999991971031909004+56100+091667FM-12+033099999V0202501N00871007801CN0040001N9-00611-01001101841ADDAY181999GF108991061091008001001071MD1210061+9999MW1851
0057295620999991971031915004+56100+091667FM-12+033099999V0202501N00621021001CN0060001N9-00721-00891102061ADDAY171999GF108991081001022501021999MD1210111+9999MW1711
0043295620999991971031918004+56100+091667FM-12+033099999V0202501N00511021001CN0070001N9-00721-00891102151ADDAY171999GF108991081001022501021999MW1711
0057295620999991971031921004+56100+091667FM-12+033099999V0202501N00211021001CN0500001N9-01001-01001102291ADDAY171999GF108991081001022501011999MD1210081+9999MW1021
0117295620999991971032000004+56100+091667FM-12+033099999V0202701N00311021001CN0100001N9-01001-01111102351ADDAA106002091AA299000591AY171999GF108991081001022501011999HL10009IA1319IA2999-01289KA1999N-01001MD1210061+9999MW1021
0057295620999991971032003004+56100+091667FM-12+033099999V0202501N00311220001CN0100001N9-00721-00891102441ADDAY121999GF106991021011012501001011MD1210151+9999MW1021
0057295620999991971032006004+56100+091667FM-12+033099999V0202301N00411220001CN0100001N9-00611-00891102471ADDAY181999GF104991041091008001001001MD1210041+9999MW1021
0057295620999991971032009004+56100+091667FM-12+033099999V0202501N00621220001CN0200001N9-00391-01111102461ADDAY181999GF104991041091008001001001MD1210021+9999MW1851
0092295620999991971032012004+56100+091667FM-12+033099999V0202301N00511075001CN0100001N9-00501-00891102581ADDAA106075091AA224999999AY181999GF107991021091008001001021KA1999M-00281MD1210071+9999MW1851
0057295620999991971032015004+56100+091667FM-12+033099999V0202301N00411075001CN0070001N9-00611-00611102581ADDAY181999GF107991041091008001001061MD1810011+9999MW1851
0057295620999991971032018004+56100+091667FM-12+033099999V0202001N00211030001CN0070001N9-00721-00781102471ADDAY181999GF108991021091008001021999MD1710091+9999MW1851
0057295620999991971032021004+56100+091667FM-12+033099999V0201801N00211021001CN0300001N9-00611-00891102331ADDAY181999GF108991081001022501011999MD1710121+9999MW1021
0117295620999991971032100004+56100+091667FM-12+033099999V0201801N00411220001CN0100001N9-00721-00891102171ADDAA106001091AA299000391AY181999GF108991001001999999001071HL10009IA1319IA2999-01399KA1999N-00781MD1710171+9999MW1021
0057295620999991971032106004+56100+091667FM-12+033099999V0202301N00621220001CN0500001N9-00111-01001101501ADDAY171999GF108991001001999999001071MD1710331+9999MW1021
0092295620999991971032112004+56100+091667FM-12+033099999V0209991C00001021001CN0500001N9+00001-00891101011ADDAA106075091AA224999999AY121999GF108991081001022501011999KA1999M+00111MD1710281+9999MW1021
0057295620999991971032115004+56100+091667FM-12+033099999V0202001N00311021001CN0500001N9-00111-00781100801ADDAY121999GF108991081001022501021999MD1710191+9999MW1021
0057295620999991971032118004+56100+091667FM-12+033099999V0202501N00511021001CN0130001N9-00221-00611100801ADDAY171999GF108991081001022501021999MD1710011+9999MW1711
0057295620999991971032121004+56100+091667FM-12+033099999V0202001N00821007801CN0036001N9-00281-00391100951ADDAY171999GF108991081091008001999999MD1310111+9999MW1861
0117295620999991971032200004+56100+091667FM-12+033099999V0202501N00411021001CN0200001N9-00501-00781101241ADDAA106002091AA299000591AY181999GF107991071001022501031001HL10009IA1319IA2999-00789KA1999N-00611MD1210251+9999MW1021
0057295620999991971032203004+56100+091667FM-12+033099999V0202301N00621220001CN0200001N9-00391-00891101301ADDAY121999GF106991021071008001001061MD1210081+9999MW1021
0057295620999991971032206004+56100+091667FM-12+033099999V0202301N00621007801CN0200001N9-00111-00891101171ADDAY121999GF107991071091008001001001MD1810091+9999MW1021
0057295620999991971032209004+56100+091667FM-12+033099999V0202001N00721220001CN0200001N9+00111-00891101101ADDAY131999GF106991001001999999001021MD1710041+9999MW1021
0081295620999991971032212004+56100+091667FM-12+033099999V0202001N00821021001CN0500001N9+00221-00891100761ADDAA199000091AY131999GF106991061001022501051001KA1999M+00391MD1710301+9999MW1021
0057295620999991971032215004+56100+091667FM-12+033099999V0202301N00511220001CN0500001N9+00221-00781100651ADDAY111999GF102991001001999999001021MD1710121+9999MW1021
0057295620999991971032218004+56100+091667FM-12+033099999V0202301N00511220001CN0500001N9-00111-00891100661ADDAY111999GF103991001001999999001021MD1310011+9999MW1021
0106295620999991971032300004+56100+091667FM-12+033099999V0202301N00311021001CN0200001N9-00281-00781100751ADDAA199000091AY111999GF106991061001022501011001HL10009IA1319IA2999-00729KA1999N-00281MD1310041+9999MW1021
0057295620999991971032303004+56100+091667FM-12+033099999V0202001N00211220001CN0100001N9-00221-00721100591ADDAY121999GF108991001001999999001071MD1810141+9999MW1021
0057295620999991971032306004+56100+091667FM-12+033099999V0202701N00211220001CN0100001N9+00111-00781100491ADDAY121999GF108991001001999999001071MD1710061+9999MW1021
0057295620999991971032309004+56100+091667FM-12+033099999V0202701N00101220001CN0100001N9+00221-00501100461ADDAY121999GF108991001001999999001071MD1710021+9999MW1021
0081295620999991971032312004+56100+091667FM-12+033099999V0202501N00101021001CN0100001N9+00001-00721100551ADDAA199000091AY121999GF108991081001022501021999KA1999M+00281MD1310061+9999MW1021
0057295620999991971032315004+56100+091667FM-12+033099999V0202501N00211021001CN0500001N9-00111-00501100831ADDAY121999GF108991081001022501021999MD1210281+9999MW1021
0057295620999991971032318004+56100+091667FM-12+033099999V0202501N00411021001CN0060001N9-00281-00281101201ADDAY171999GF108991081001022501021999MD1210311+9999MW1711
0117295620999991971032400004+56100+091667FM-12+033099999V0202301N00621007801CN0040001N9-00281-00281101501ADDAA106004091AA299001091AY171999GF108991061071008001021999HL10009IA1319IA2999-00399KA1999N-00391MD1210151+9999MW1711
0076295620999991971032403004+56100+091667FM-12+033099999V0202901N00511007801CN0040001N9-00391-00501101711ADDAY171999GF108991999071008001021999MD1210191+9999MW1711EQDQ01+000082SCOTLC
0057295620999991971032406004+56100+091667FM-12+033099999V0202801N00871075001CN0200001N9-00281-01001101931ADDAY181999GF108991031071008001001071MD1210231+9999MW1381
0057295620999991971032409004+56100+091667FM-12+033099999V0202701N00821021001CN0200001N9-00281-01001101951ADDAY131999GF108991081001022501021999MD1210011+9999MW1381
0092295620999991971032412004+56100+091667FM-12+033099999V0202501N00311021001CN0040001N9-00391-00611101971ADDAA106002091AA299000591AY171999GF108991081001022501021999KA1999M-00281MD1210011+9999MW1711
0057295620999991971032415004+56100+091667FM-12+033099999V0202501N00101021001CN0060001N9-00391-00501101711ADDAY171999GF108991081001022501021999MD1810241+9999MW1711
0057295620999991971032418004+56100+091667FM-12+033099999V0202501N00311021001CN0060001N9-00391-00391101391ADDAY171999GF108991081001022501021999MD1710301+9999MW1711
0057295620999991971032421004+56100+091667FM-12+033099999V0202501N00511021001CN0060001N9-00221-00221101201ADDAY171999GF108991081001022501021999MD1710161+9999MW1711
0117295620999991971032500004+56100+091667FM-12+033099999V0202501N00621021001CN0040001N9+00001+00001101211ADDAA106008091AA299002091AY171999GF108991081001022501021999HL10009IA1319IA2999-00619KA1999N-00501MD1310031+9999MW1711
0057295620999991971032503004+56100+091667FM-12+033099999V0202301N00621030001CN0200001N9+00111+00111101061ADDAY171999GF108991021071008001011999MD1810131+9999MW1021
0057295620999991971032506004+56100+091667FM-12+033099999V0202001N00871030001CN0200001N9+00391-00111100711ADDAY161999GF108991021091008001021999MD1710291+9999MW1021
