0106295670999991971010100004+55683+090500FM-12+999999999V0209991C00001220001CN0500001N9-02111-02111104151ADDAA199000091AY101999GF100991001001999999001001HL10009IA1319IA2999-02789KA1999N-02281MD1810021+9999MW1021
0057295670999991971010106004+55683+090500FM-12+999999999V0209991C00001220001CN0500001N9-02111-02111104201ADDAY101999GF102991001001999999001011MD1110011+9999MW1021
0081295670999991971010112004+55683+090500FM-12+999999999V0209991C00001220001CN0500001N9-02221-02221104261ADDAA199000091AY101999GF100991001001999999001001KA1999M-01721MD1110021+9999MW1021
0057295670999991971010115004+55683+090500FM-12+999999999V0209991C00001220001CN0500001N9-02221-02221104251ADDAY101999GF100991001001999999001001MD1810011+9999MW1021
0057295670999991971010118004+55683+090500FM-12+999999999V0209991C00001220001CN0500001N9-02221-02221104211ADDAY101999GF100991001001999999001001MD1610041+9999MW1021
0057295670999991971010121004+55683+090500FM-12+999999999V0201601N00101220001CN0500001N9-02221-02221104161ADDAY101999GF100991001001999999001001MD1710041+9999MW1021
0106295670999991971010200004+55683+090500FM-12+999999999V0201801N00211220001CN0500001N9-02111-02111104071ADDAA199000091AY101999GF100991001001999999001001HL10009IA1319IA2999-03009KA1999N-02391MD1710071+9999MW1021
0057295670999991971010203004+55683+090500FM-12+999999999V0202301N00511220001CN0500001N9-02111-02111103951ADDAY101999GF100991001001999999001001MD1710121+9999MW1021
0057295670999991971010206004+55683+090500FM-12+999999999V0202301N00411220001CN0500001N9-01721-01721103781ADDAY101999GF100991001001999999001001MD1710071+9999MW1021
0057295670999991971010209004+55683+090500FM-12+999999999V0202301N00211220001CN0500001N9-01611-01611103571ADDAY101999GF103991001001999999001021MD1810181+9999MW1021
0081295670999991971010212004+55683+090500FM-12+999999999V0202301N00821220001CN0500001N9-01221-01391103371ADDAA199000091AY131999GF102991001001999999001021KA1999M-01221MD1710121+9999MW1361
0057295670999991971010215004+55683+090500FM-12+999999999V0202301N00821024001CN0290001N9-01001-01111102901ADDAY131999GF108991081001999999011999MD1710411+9999MW1361
0057295670999991971010218004+55683+090500FM-12+999999999V0202301N00101007801CN0027001N9-00611-00611102721ADDAY131999GF108991081001008001021999MD1610101+9999MW1731
0057295670999991971010221004+55683+090500FM-12+999999999V0202001N00621007801CN0028001N9-00501-00501102391ADDAY171999GF108991081001008001021999MD1810301+9999MW1731
0117295670999991971010300004+55683+090500FM-12+999999999V0202301N00511007801CN0100001N9-00391-00391102191ADDAA106024091AA299006091AY171999GF108991081001008001021999HL10009IA1319IA2999-01789KA1999N-01221MD1710171+9999MW1711
0057295670999991971010303004+55683+090500FM-12+999999999V0202301N00981007801CN0210001N9-00281-00501102031ADDAY171999GF107991071051008001001001MD1710131+9999MW1361
0057295670999991971010306004+55683+090500FM-12+999999999V0202301N01181021001CN0060001N9-00221-00721101921ADDAY171999GF107991071001022501071001MD1710091+9999MW1381
0057295670999991971010309004+55683+090500FM-12+999999999V0202301N00981021001CN9999999N9-00111-00721101741ADDAY131999GF106991061001022501071001MD1710151+9999MW1361
0092295670999991971010312004+55683+090500FM-12+999999999V0202001N01391021001CN0023001N9-00221-00611101491ADDAA106001091AA299000391AY131999GF106991061001022501071001KA1999M+00001MD1710261+9999MW1381
0057295670999991971010318004+55683+090500FM-12+999999999V0202001N01181021001CN0160001N9-00221-00721101111ADDAY131999GF108991081001022501071999MD1710251+9999MW1361
0057295670999991971010321004+55683+090500FM-12+999999999V0202001N01181021001CN0120001N9-00221-00721101061ADDAY131999GF108991081001022501071999MD1710051+9999MW1381
0057295670999991971010403004+55683+090500FM-12+999999999V0202001N01181021001CN0160001N9-00501-00781101091ADDAY131999GF107991071001022501071001MD1310051+9999MW1381
0057295670999991971010406004+55683+090500FM-12+999999999V0202301N01181021001CN0080001N9-00721-01111101321ADDAY171999GF108991081001022501071999MD1210181+9999MW1711
0057295670999991971010409004+55683+090500FM-12+999999999V0202501N007219999999N0500001N9-00721-01221101521ADDAY171999GF106991021001022501041011MD1210191+9999MW1361
0092295670999991971010412004+55683+090500FM-12+999999999V0202301N00511220001CN0500001N9-01001-01501101791ADDAA106075091AA224999999AY171999GF106991001001999999001011KA1999M-00281MD1210211+9999MW1021
0057295670999991971010415004+55683+090500FM-12+999999999V0202301N00821024001CN0100001N9-01001-01391101891ADDAY121999GF108991081001999999011999MD1210101+9999MW1711
0057295670999991971010418004+55683+090500FM-12+999999999V0202301N00721024001CN0070001N9-01111-01221102121ADDAY171999GF108991081001999999011999MD1210191+9999MW1711
0117295670999991971010500004+55683+090500FM-12+999999999V0202501N00821024001CN0070001N9-01391-01501102961ADDAA106001091AA299000391AY171999GF108991081001999999021999HL10009IA1319IA2999-01509KA1999N-01391MD1310451+9999MW1711
0057295670999991971010503004+55683+090500FM-12+999999999V0202701N00821220001CN0500001N9-01721-01781103491ADDAY171999GF103991001001999999001021MD1210451+9999MW1361
0057295670999991971010506004+55683+090500FM-12+999999999V0202501N00511220001CN0500001N9-01391-01781103581ADDAY171999GF102991001001999999001011MD1210261+9999MW1021
0043295670999991971010509004+55683+090500FM-12+999999999V0202001N00511220001CN0500001N9-01281-02111103861ADDAY111999GF107991001001999999999999MW1021
0092295670999991971010512004+55683+090500FM-12+999999999V0202301N00821220001CN0500001N9-01391-02111103991ADDAA106001091AA299000391AY111999GF106991001001999999001011KA1999M-01281MD1110111+9999MW1021
0057295670999991971010515004+55683+090500FM-12+999999999V0202301N00721220001CN0500001N9-01391-02111103971ADDAY111999GF100991001001999999001001MD1810021+9999MW1021
0057295670999991971010518004+55683+090500FM-12+999999999V0202301N00511220001CN0500001N9-01281-02111103891ADDAY111999GF100991001001999999001001MD1710061+9999MW1021
0057295670999991971010521004+55683+090500FM-12+999999999V0202001N00871024001CN0500001N9-01221-02221103561ADDAY111999GF108991081001999999011999MD1710301+9999MW1021
0106295670999991971010600004+55683+090500FM-12+999999999V0201801N00871024001CN0500001N9-01501-02221103171ADDAA199000091AY111999GF108991081001999999011999HL10009IA1319IA2999-01899KA1999N-01611MD1710421+9999MW1021
0057295670999991971010606004+55683+090500FM-12+999999999V0201601N00821021001CN0500001N9-01111-01781102351ADDAY121999GF108991081001022501071999MD1710421+9999MW1021
0057295670999991971010609004+55683+090500FM-12+999999999V0202301N00821021001CN0500001N9-00781-01611102011ADDAY121999GF107991071001022501071001MD1610271+9999MW1021
0081295670999991971010612004+55683+090500FM-12+999999999V0202301N00101024001CN0500001N9-00891-01391102171ADDAA199000091AY121999GF108991081001999999011999KA1999M-00721MD1310141+9999MW1021
0057295670999991971010615004+55683+090500FM-12+999999999V0202301N00211024001CN0500001N9-00781-01221102251ADDAY121999GF108991081001999999021999MD1210091+9999MW1021
0057295670999991971010618004+55683+090500FM-12+999999999V0202301N00311024001CN0500001N9-00891-01221102331ADDAY121999GF108991081001999999021999MD1210061+9999MW1021
0057295670999991971010621004+55683+090500FM-12+999999999V0202301N00101024001CN0500001N9-00891-01221102461ADDAY171999GF108991081001999999021999MD1210121+9999MW1221
0117295670999991971010700004+55683+090500FM-12+999999999V0202501N00211024001CN0500001N9-00891-01221102531ADDAA106075091AA224999999AY171999GF108991081001999999021999HL10009IA1319IA2999-01009KA1999N-00891MD1110071+9999MW1021
0057295670999991971010703004+55683+090500FM-12+999999999V0202001N00101024001CN0500001N9-01221-01281102631ADDAY121999GF108991081001999999021999MD1110041+9999MW1021
0057295670999991971010706004+55683+090500FM-12+999999999V0201801N00211024001CN0500001N9-00891-01111102441ADDAY121999GF108991081001999999011999MD1810131+9999MW1021
0057295670999991971010709004+55683+090500FM-12+999999999V0201801N00411024001CN0500001N9-00721-01111102221ADDAY121999GF108991081001999999011999MD1710181+9999MW1021
0081295670999991971010712004+55683+090500FM-12+999999999V0201801N00721024001CN0500001N9-00781-01221101941ADDAA199000091AY121999GF108991081001999999011999KA1999M-00721MD1710271+9999MW1021
0057295670999991971010715004+55683+090500FM-12+999999999V0202001N00821220001CN0500001N9-00721-01111101381ADDAY121999GF108991001001999999001071MD1810531+9999MW1021
0057295670999991971010718004+55683+090500FM-12+999999999V0202001N00821220001CN0500001N9-00721-01111100991ADDAY121999GF108991001001999999001071MD1710371+9999MW1021
0057295670999991971010721004+55683+090500FM-12+999999999V0201801N00981220001CN0500001N9-00721-01001100631ADDAY121999GF108991001001999999001071MD1710341+9999MW1021
0117295670999991971010800004+55683+090500FM-12+999999999V0201801N01391024001CN0020001N9-00891-01001100781ADDAA106001091AA299000391AY171999GF108991081001999999021999HL10009IA1319IA2999-01009KA1999N-00891MD1310111+9999MW1711
0057295670999991971010803004+55683+090500FM-12+999999999V0202301N01391024001CN0019001N9-01111-01221101191ADDAY171999GF108991081001999999021999MD1210361+9999MW1711
0057295670999991971010806004+55683+090500FM-12+999999999V0202701N01801024001CN0005001N9-01221-01221101521ADDAY171999GF108991081001999999011999MD1210291+9999MW1391
0057295670999991971010809004+55683+090500FM-12+999999999V0202301N01391021001CN0130001N9-01281-01781101811ADDAY131999GF105991051001022501041001MD1210261+9999MW1371
0092295670999991971010812004+55683+090500FM-12+999999999V0202301N01591021001CN0200001N9-01501-01891102031ADDAA106002091AA299000591AY131999GF105991051001022501031001KA1999M-00891MD1210171+9999MW1371
0057295670999991971010815004+55683+090500FM-12+999999999V0202301N00511220001CN0250001N9-01721-02111102121ADDAY131999GF100991001001999999001001MD1110051+9999MW1021
0057295670999991971010818004+55683+090500FM-12+999999999V0202001N00511220001CN0500001N9-01891-02281102051ADDAY131999GF102991001001999999001011MD1810121+9999MW1021
0106295670999991971010900004+55683+090500FM-12+999999999V0202001N00311024001CN0290001N9-01721-02111101861ADDAA199000091AY111999GF108991081001999999021999HL10009IA1319IA2999-02509KA1999N-02001MD1710081+9999MW1021
0057295670999991971010903004+55683+090500FM-12+999999999V0202701N00821024001CN0500001N9-01781-02221102131ADDAY171999GF108991081001999999021999MD1310231+9999MW1761
0057295670999991971010906004+55683+090500FM-12+999999999V0202701N00721024001CN0300001N9-02001-02221102461ADDAY171999GF108991081001999999011999MD1210271+9999MW1021
0057295670999991971010909004+55683+090500FM-12+999999999V0202501N00311021001CN0260001N9-01891-02281102501ADDAY121999GF107991071001022501071001MD1110061+9999MW1021
0092295670999991971010912004+55683+090500FM-12+999999999V0209991C00001024001CN0150001N9-02001-02111102561ADDAA106001091AA299000391AY171999GF108991051001999999011071KA1999M-01611MD1110041+9999MW1711
0057295670999991971010915004+55683+090500FM-12+999999999V0209991C00001024001CN9999999N9-02221-02281102641ADDAY171999GF108991081001999999011999MD1110041+9999MW1221
0057295670999991971010918004+55683+090500FM-12+999999999V0202501N00101024001CN0090001N9-02001-02001102691ADDAY171999GF108991061001999999011071MD1410001+9999MW1711
0057295670999991971010921004+55683+090500FM-12+999999999V0209991C00001024001CN0120001N9-02221-02221102411ADDAY171999GF108991051001999999011071MD1810221+9999MW1711
0117295670999991971011000004+55683+090500FM-12+999999999V0209991C00001024001CN0100001N9-01781-01781102281ADDAA106002091AA299000591AY171999GF108991081001999999011999HL10009IA1319IA2999-02619KA1999N-02221MD1710051+9999MW1711
0057295670999991971011003004+55683+090500FM-12+999999999V0201601N00211024001CN0100001N9-01781-01781102271ADDAY171999GF108991081001999999021999MD1710011+9999MW1711
0057295670999991971011006004+55683+090500FM-12+999999999V0201801N00311024001CN0110001N9-01501-01501102051ADDAY171999GF108991081001999999021999MD1610141+9999MW1711
0057295670999991971011009004+55683+090500FM-12+999999999V0202001N00511024001CN0290001N9-01281-01611101831ADDAY171999GF108991081001999999021999MD1610171+9999MW1021
0092295670999991971011012004+55683+090500FM-12+999999999V0202001N00621024001CN0260001N9-01221-01501101661ADDAA106001091AA299000391AY171999GF108991081001999999011999KA1999M-01221MD1710151+9999MW1021
0057295670999991971011015004+55683+090500FM-12+999999999V0202001N00411220001CN0500001N9-01221-01501101461ADDAY121999GF108991001001999999001071MD1510191+9999MW1021
0057295670999991971011018004+55683+090500FM-12+999999999V0202001N00311220001CN0500001N9-01391-01721101401ADDAY121999GF108991001001999999001071MD1610091+9999MW1021
0106295670999991971011100004+55683+090500FM-12+999999999V0202301N00511024001CN0300001N9-01391-01391101551ADDAA199000091AY121999GF108991051001999999011071HL10009IA1319IA2999-01789KA1999N-01611MD1310051+9999MW1021
0057295670999991971011103004+55683+090500FM-12+999999999V0202201N01181024001CN0034001N9-01611-01891101861ADDAY171999GF108991081001999999021999MD1210401+9999MW1711
0057295670999991971011106004+55683+090500FM-12+999999999V0202501N01181220001CN0120001N9-02001-02111102261ADDAY171999GF100991001001999999001001MD1210341+9999MW1361
0057295670999991971011109004+55683+090500FM-12+999999999V0202701N00871220001CN0260001N9-01781-02221102511ADDAY131999GF102991001001999999001011MD1210281+9999MW1361
0057295670999991971011112004+55683+090500FM-12+999999999V0202701N00871220001CN0260001N9-01781-02221102511ADDAY131999GF102991001001999999001011MD1210281+9999MW1361
0076295670999991971011118004+55683+090500FM-12+999999999V0201801N00621024001CN0500001N9-01781-02001101801ADDAY111999GF108991081001999999021999MD1710562+9999MW1021EQDQ01+000562APC3  
0092295670999991971011121004+55683+090500FM-12+999999999V0201801N01181024001CN0500001N9-01391-01891101801ADDAY121999GF108991081001999999011999MD1410001+9999MW1021EQDQ01+000072APCTENQ02+000772APC3  
0141295670999991971011200004+55683+090500FM-12+999999999V0201801N01391024001CN0200001N9-01001-01501100102ADDAA199000091AY121999GF108991081001999999011999HL10009IA1319IA2999-02399KA1999N-02281MD1710682+9999MW1361EQDQ01+100103APOSLPQ02+000682APC3  
0057295670999991971011203004+55683+090500FM-12+999999999V0201801N01391024001CN0037001N9-00781-01001099501ADDAY131999GF108991081001999999021999MD1710541+9999MW1381
0057295670999991971011206004+55683+090500FM-12+999999999V0201801N01391024001CN0013001N9-00781-00891099131ADDAY131999GF108991081001999999021999MD1610321+9999MW1381
0057295670999991971011209004+55683+090500FM-12+999999999V0202301N01391024001CN0019001N9-00611-00891099081ADDAY171999GF108991081001999999021999MD1610051+9999MW1711
0092295670999991971011212004+55683+090500FM-12+999999999V0202301N01391024001CN0022001N9-00501-00891099011ADDAA106002091AA299000591AY171999GF108991081001999999021999KA1999M-00501MD1610051+9999MW1711
0057295670999991971011215004+55683+090500FM-12+999999999V0202301N01391021001CN0037001N9+99999+99999099011ADDAY171999GF108991051091022501011001MD1110181+9999MW1711
0057295670999991971011221004+55683+090500FM-12+999999999V0202301N018019999999N0038001N9-00391-00891099011ADDAY171999GF105991031001022501071021MD1810081+9999MW1311
0049295670999991971011300004+55683+090500FM-12+999999999V0202501N00981021001CN0160001N9-00611-01111099011ADDAY171999GF106991061001022501071001IA1319MW1091
0043295670999991971011303004+55683+090500FM-12+999999999V0202501N00411007801CN0500001N9-00611-01001099201ADDAY131999GF108991081091008001999999MW1021
0057295670999991971011306004+55683+090500FM-12+999999999V0202301N00101007801CN0500001N9-00501-00721099191ADDAY131999GF108991081091008001999999MD1110011+9999MW1021
0057295670999991971011309004+55683+090500FM-12+999999999V0202501N00821007801CN0500001N9-00391-01111099141ADDAY121999GF108991081091008001999999MD1810031+9999MW1021
0081295670999991971011312004+55683+090500FM-12+999999999V0202001N00871007801CN0500001N9-00281-00891099061ADDAA199000091AY121999GF108991081091008001999999KA1999M-00281MD1610061+9999MW1021
0057295670999991971011315004+55683+090500FM-12+999999999V0202001N00621007801CN0500001N9-00391-00781099111ADDAY121999GF107991071091008001001001MD1310031+9999MW1021
0057295670999991971011318004+55683+090500FM-12+999999999V0202001N00821007801CN0500001N9-00391-00891099171ADDAY121999GF107991071091008001001001MD1310061+9999MW1021
0057295670999991971011321004+55683+090500FM-12+999999999V0202001N00721024001CN0500001N9-00501-01001099351ADDAY121999GF108991081001999999011999MD1210151+9999MW1021
0057295670999991971011403004+55683+090500FM-12+999999999V0201801N00721220001CN0500001N9-00721-00891099431ADDAY101999GF103991001001999999001021MD1810101+9999MW1021
0057295670999991971011406004+55683+090500FM-12+999999999V0201601N00821220001CN0500001N9-00391-00781099081ADDAY111999GF106991001001999999001021MD1710281+9999MW1021
0057295670999991971011409004+55683+090500FM-12+999999999V0201601N00721220001CN0300001N9-00281-00611098661ADDAY111999GF103991031091008001001001MD1610381+9999MW1021
0092295670999991971011412004+55683+090500FM-12+999999999V0202501N02011007801CN0001001N9-00391-00501098661ADDAA106008091AA299002091AY171999GF108991081001008001021999KA1999M-00111MD1310041+9999MW1751
0076295670999991971011418004+55683+090500FM-12+999999999V0202301N01591220001CN0200001N9-01221-01221098661ADDAY171999GF100991001001999999001001MD1210992+9999MW1011EQDQ01+000992APC3  
0092295670999991971011421004+55683+090500FM-12+999999999V0202201N00981220001CN0200001N9-02501-03002101722ADDAY101999GF100991001001999999001001MD1310491+9999MW1021EQDQ01+024323ATOD  Q02+101723APOSLP
0117295670999991971011500004+55683+090500FM-12+999999999V0202301N00411220001CN0200001N9-02781-03111102151ADDAA106008091AA299002091AY101999GF100991001001999999001001HL10009IA1199IA2999-02899KA1999N-02781MD1210431+9999MW1021
0057295670999991971011503004+55683+090500FM-12+999999999V0209991C00001220001CN0100001N9-02891-03111102321ADDAY101999GF102991001001999999001021MD1110141+9999MW1101
0057295670999991971011506004+55683+090500FM-12+999999999V0201401N00101220001CN0500001N9-02721-03111102371ADDAY101999GF101991001001999999001011MD1110101+9999MW1021
0057295670999991971011509004+55683+090500FM-12+999999999V0202301N00211220001CN0260001N9-02611-02891102541ADDAY111999GF106991001001999999001021MD1310181+9999MW1031
0081295670999991971011512004+55683+090500FM-12+999999999V0209991C00001220001CN0200001N9-02721-03001102761ADDAA199000091AY111999GF107991001001999999001021KA1999M-02501MD1210191+9999MW1021
0043295670999991971011515004+55683+090500FM-12+999999999V0202501N00721220001CN0200001N9-02611+99999102821ADDAY111999GF102991001001999999081041MW1021
0057295670999991971011518004+55683+090500FM-12+999999999V0202301N00511220001CN0200001N9-02501-03221102801ADDAY111999GF103991001001999999001021MD1410001+9999MW1021
0057295670999991971011521004+55683+090500FM-12+999999999V0202301N00821220001CN0200001N9-02391-03221102831ADDAY121999GF107991001001999999001021MD1310051+9999MW1011
0106295670999991971011600004+55683+090500FM-12+999999999V0202301N00871220001CN0200001N9-02111-02781102671ADDAA199000091AY111999GF108991001001999999001071HL10009IA1199IA2999-03289KA1999N-02781MD1810091+9999MW1021
0057295670999991971011606004+55683+090500FM-12+999999999V0201801N00821024001CN0120001N9-01501-02281102191ADDAY121999GF108991081001999999021999MD1710241+9999MW1021
0057295670999991971011609004+55683+090500FM-12+999999999V0202001N01391024001CN0044001N9-01281-02111102001ADDAY131999GF108991081001999999021999MD1610141+9999MW1381
0081295670999991971011612004+55683+090500FM-12+999999999V0201801N01181024001CN0200001N9-01281-02001101901ADDAA199000091AY131999GF108991081001999999021999KA1999M-01281MD1710101+9999MW1021
0057295670999991971011615004+55683+090500FM-12+999999999V0202001N00821007801CN0200001N9-01221-01891101791ADDAY121999GF107991071091008001001001MD1710081+9999MW1021
0057295670999991971011618004+55683+090500FM-12+999999999V0202301N01591007801CN0020001N9-01221-01611101661ADDAY181999GF107991071091008001001001MD1710131+9999MW1381
0057295670999991971011621004+55683+090500FM-12+999999999V0202301N02011007801CN0002001N9-01111-01391101481ADDAY181999GF107991071091008001001001MD1710151+9999MW1861
0134295670999991971011700004+55683+090500FM-12+999999999V0202301N02421007801CN0020001N9-01111-01721101441ADDAA106001091AA299000391AJ100009199999999AY181999GF106991061091008001001001HL10009IA1189IA2999-01509KA1999N-01391MD1610041+9999MW1381
0092295670999991971011706004+55683+090500FM-12+999999999V0202701N01801220001CN0041001N9-01891-02611102952ADDAY131999GF100991001001999999001001MD1210752+9999MW1381EQDQ01+102953APOSLPQ02+000752APC3  
0057295670999991971011709004+55683+090500FM-12+999999999V0202701N00871220001CN0180001N9-02221-03001103341ADDAY131999GF103991001001999999001021MD1210311+9999MW1021
0081295670999991971011712004+55683+090500FM-12+999999999V0202701N00311021001CN0500001N9-02391-03111103781ADDAA199000091AY131999GF105991051001022501071001KA1999M-01891MD1210391+9999MW1021
0057295670999991971011715004+55683+090500FM-12+999999999V0209991C00001024001CN0500001N9-02501-03001103901ADDAY121999GF108991081001999999011999MD1210081+9999MW1021
0057295670999991971011718004+55683+090500FM-12+999999999V0202701N00211024001CN0500001N9-02611-03111103991ADDAY121999GF108991081001999999011999MD1110091+9999MW1021
0057295670999991971011721004+55683+090500FM-12+999999999V0209991C00001024001CN0500001N9-02501-03001104171ADDAY121999GF108991081001999999011999MD1310111+9999MW1021
0117295670999991971011800004+55683+090500FM-12+999999999V0202901N00101220001CN0500001N9-02721-03001104331ADDAA106075091AA224999999AY121999GF100991001001999999001001HL10009IA1199IA2999-03229KA1999N-02721MD1210111+9999MW1021
0043295670999991971011803004+55683+090500FM-12+999999999V0209991C00001220001CN0260001N9-02781-02891104561ADDAY101999GF102991001001999999001011MW1021
0057295670999991971011806004+55683+090500FM-12+999999999V0201801N00211220001CN0500001N9-02281-02781104511ADDAY101999GF100991001001999999001001MD1110061+9999MW1021
0057295670999991971011809004+55683+090500FM-12+999999999V0201401N00211220001CN0500001N9-02001-02501104481ADDAY101999GF100991001001999999001001MD1110041+9999MW1021
0081295670999991971011812004+55683+090500FM-12+999999999V0201601N00311220001CN0500001N9-02281-02611104441ADDAA199000091AY101999GF100991001001999999001001KA1999M-02001MD1810111+9999MW1021
0057295670999991971011818004+55683+090500FM-12+999999999V0201801N00511024001CN0280001N9-01391-01721104441ADDAY171999GF108991081001999999021999MD1610241+9999MW1711
0104295670999991971011900004+55683+090500FM-12+999999999V0201601N00721220001CN0500001N9-01221-01611104441ADDAA106002091AA299000591AY171999GF108991001001999999001071HL10009IA1199IA2999-02509MD1710181+9999MW1021
0057295670999991971011903004+55683+090500FM-12+999999999V0201801N00821021001CN0500001N9-00721-01221104441ADDAY121999GF108991081001022501071999MD1710251+9999MW1021
0076295670999991971011906004+55683+090500FM-12+999999999V0202001N00871021001CN0500001N9-00391-01111102862ADDAY121999GF106991061001022501071001MD1610041+9999MW1021EQDQ01+102863APOSLP
0057295670999991971011909004+55683+090500FM-12+999999999V0202301N005119999999N0350001N9-00611-01111102941ADDAY121999GF105991031001022501041021MD1310041+9999MW1021
0081295670999991971011912004+55683+090500FM-12+999999999V0202001N00411220001CN0500001N9-00721-01111103001ADDAA199000091AY111999GF104991001001999999001021KA1999M-00281MD1110041+9999MW1021
0057295670999991971011915004+55683+090500FM-12+999999999V0201801N00411220001CN0500001N9-00611-00891102941ADDAY111999GF102991021001022501031001MD1810041+9999MW1021
0057295670999991971011918004+55683+090500FM-12+999999999V0201801N00621220001CN0500001N9-00721-01111102951ADDAY111999GF100991001001999999001001MD1610011+9999MW1021
0076295670999991971011921004+55683+090500FM-12+999999999V0201801N00511220001CN0500001N9-00781-01111102961ADDAY101999GF100991001001999999001001MD1310011+9999MW1021EQDQ01+000002APC3  
0106295670999991971012000004+55683+090500FM-12+999999999V0202301N00311220001CN0500001N9-00721-01001102921ADDAA199000091AY101999GF103991031001022501071001HL10009IA1199IA2999-01009KA1999N-00781MD1810041+9999MW1021
0057295670999991971012003004+55683+090500FM-12+999999999V0202001N00511021001CN0500001N9-00781-00891102811ADDAY111999GF108991081001022501071999MD1710111+9999MW1021
0057295670999991971012006004+55683+090500FM-12+999999999V0202701N00311220001CN0200001N9-00611-01001102611ADDAY121999GF108991001001999999001071MD1810241+9999MW1021
0057295670999991971012009004+55683+090500FM-12+999999999V0202001N00411024001CN0100001N9-00501-00781102771ADDAY171999GF108991081001999999021999MD1310031+9999MW1711
0092295670999991971012012004+55683+090500FM-12+999999999V0201801N00101024001CN0500001N9-00611-00611102731ADDAA106075091AA224999999AY171999GF108991081001999999021999KA1999M-00501MD1810061+9999MW1021
0057295670999991971012015004+55683+090500FM-12+999999999V0202001N00211220001CN0500001N9-00781-01221102711ADDAY111999GF100991001001999999001001MD1610051+9999MW1021
0057295670999991971012018004+55683+090500FM-12+999999999V0202001N00101220001CN0500001N9-00891-01221102571ADDAY111999GF100991001001999999001001MD1810151+9999MW1021
0057295670999991971012021004+55683+090500FM-12+999999999V0202001N00411220001CN0500001N9-01221-01501102471ADDAY101999GF101991001001999999001011MD1710151+9999MW1021
0136295670999991971012100004+55683+090500FM-12+999999999V0202301N00621220001CN0500001N9-00781-01281102421ADDAA106999999AA299200092AY111999GF108991001001999999001071HL10009IA1199IA2999-01619KA1999N-01281MD1310021+9999MW1031EQDQ01  78702PRCP06
0057295670999991971012106004+55683+090500FM-12+999999999V0202001N00721021001CN0500001N9-00611-01111102481ADDAY121999GF106991061001022501071001MD1410001+9999MW1021
0057295670999991971012109004+55683+090500FM-12+999999999V0202301N00311220001CN0500001N9-00501-01001102421ADDAY111999GF104991041001022501031001MD1810041+9999MW1021
0081295670999991971012112004+55683+090500FM-12+999999999V0202001N00621021001CN0500001N9-00781-01221102541ADDAA199000091AY111999GF106991061001022501071001KA1999M-00391MD1310071+9999MW1031
0057295670999991971012118004+55683+090500FM-12+999999999V0202001N00871024001CN0500001N9-00891-01281102681ADDAY171999GF108991081001999999021999MD1110071+9999MW1221
0117295670999991971012200004+55683+090500FM-12+999999999V0202301N01181024001CN0040001N9-01111-01111103121ADDAA106002091AA299000591AY171999GF108991081001999999021999HL10009IA1199IA2999-01229KA1999N-01111MD1110141+9999MW1711
0043295670999991971012203004+55683+090500FM-12+999999999V0202701N00721021001CN0070001N9-01221-01221103371ADDAY171999GF108991081001022501071999MW1711
0057295670999991971012206004+55683+090500FM-12+999999999V0202501N00511024001CN0080001N9-01111-01111103441ADDAY171999GF108991081001999999011999MD1110091+9999MW1711
0057295670999991971012209004+55683+090500FM-12+999999999V0202501N00211021001CN0500001N9-01221-01281103461ADDAY171999GF107991071001022501031001MD1410001+9999MW1021
0092295670999991971012212004+55683+090500FM-12+999999999V0209991C00001021001CN0500001N9-01391-01391103511ADDAA106001091AA299000391AY171999GF106991061001022501031001KA1999M-01111MD1310011+9999MW1021
0057295670999991971012218004+55683+090500FM-12+999999999V0201801N00511024001CN0500001N9-01111-01221103281ADDAY121999GF108991081001999999021999MD1710151+9999MW1021
0057295670999991971012221004+55683+090500FM-12+999999999V0201801N00411024001CN0500001N9-01001-01221103181ADDAY121999GF108991081001999999021999MD1610081+9999MW1021
0117295670999991971012300004+55683+090500FM-12+999999999V0201801N00621024001CN0080001N9-00781-00891103131ADDAA106075091AA224999999AY171999GF108991081001999999021999HL10009IA1319IA2999-01899KA1999N-01501MD1610011+9999MW1711
0057295670999991971012303004+55683+090500FM-12+999999999V0202001N00511024001CN0100001N9-00721-00891103051ADDAY171999GF108991081001999999021999MD1610071+9999MW1711
0057295670999991971012306004+55683+090500FM-12+999999999V0202001N00411024001CN0100001N9-00611-00781103001ADDAY171999GF108991081001999999021999MD1610021+9999MW1711
0057295670999991971012309004+55683+090500FM-12+999999999V0201801N00721024001CN0019001N9-00781-01001103171ADDAY171999GF108991081001999999011999MD1310131+9999MW1731
0057295670999991971012312004+55683+090500FM-12+999999999V0202501N00721024001CN0050001N9-00891-01111103461ADDAY171999GF108991081001999999021999MD1210261+9999MW1711
0057295670999991971012315004+55683+090500FM-12+999999999V0202501N00511024001CN0070001N9-01001-01111103701ADDAY171999GF108991081001999999021999MD1210211+9999MW1711
0057295670999991971012318004+55683+090500FM-12+999999999V0202501N00411024001CN0090001N9-01001-01111103851ADDAY171999GF108991081001999999021999MD1210141+9999MW1711
0057295670999991971012321004+55683+090500FM-12+999999999V0202001N00311007801CN0110001N9-01001-01111103881ADDAY171999GF108991081001008001021999MD1110031+9999MW1711
0104295670999991971012400004+55683+090500FM-12+999999999V0202001N00311007801CN0500001N9-01001-01221103941ADDAA106002091AA299000591AY171999GF108991081001008001021999HL10009IA1319IA2999-01229MD1110051+9999MW1021
0057295670999991971012403004+55683+090500FM-12+999999999V0202001N00511021001CN0150001N9-01111-01221104011ADDAY121999GF107991071001022501031001MD1110051+9999MW1021
0057295670999991971012406004+55683+090500FM-12+999999999V0202001N00511220001CN0210001N9-00891-01111103941ADDAY111999GF103991001001999999001011MD1810031+9999MW1021
0081295670999991971012412004+55683+090500FM-12+999999999V0209991C00001021001CN0500001N9-01221-01281103951ADDAA199000091AY111999GF107991071001022501071001KA1999M-00781MD1410001+9999MW1021
0057295670999991971012418004+55683+090500FM-12+999999999V0202001N00511021001CN0500001N9-01111-01221103781ADDAY121999GF107991071001022501071001MD1710091+9999MW1021
0057295670999991971012503004+55683+090500FM-12+999999999V0202001N00621021001CN0280001N9-01111-01391103621ADDAY121999GF108991081001022501071999MD1610031+9999MW1021
0057295670999991971012506004+55683+090500FM-12+999999999V0202301N00621030001CN0150001N9-00721-00891103441ADDAY181999GF108991041091008001011999MD1710101+9999MW1851
0057295670999991971012509004+55683+090500FM-12+999999999V0202301N00821024001CN0110001N9-00781-00891103561ADDAY181999GF108991081001999999021999MD1310101+9999MW1711
0092295670999991971012512004+55683+090500FM-12+999999999V0202501N00721024001CN0039001N9-00891-00891103651ADDAA106002091AA299000591AY181999GF108991081001999999021999KA1999M-00721MD1110071+9999MW1711
0057295670999991971012515004+55683+090500FM-12+999999999V0202501N00821007801CN0048001N9-01001-01221103751ADDAY171999GF108991081001008001021999MD1210071+9999MW1711
0057295670999991971012518004+55683+090500FM-12+999999999V0202501N00511007801CN0049001N9-01111-01221103811ADDAY171999GF108991081001008001021999MD1110031+9999MW1711
0057295670999991971012521004+55683+090500FM-12+999999999V0202501N00311007801CN0080001N9-01111-01221103811ADDAY171999GF108991081001008001021999MD1110011+9999MW1711
0117295670999991971012600004+55683+090500FM-12+999999999V0209991C00001007801CN0100001N9-01221-01221103831ADDAA106001091AA299000391AY171999GF108991081001008001021999HL10009IA1319IA2999-01789KA1999N-01391MD1410001+9999MW1711
0057295670999991971012603004+55683+090500FM-12+999999999V0202301N00311021001CN0500001N9-01281-01391103851ADDAY171999GF106991061001022501031001MD1410001+9999MW1021
0043295670999991971012606004+55683+090500FM-12+999999999V0202301N00411220001CN0350001N9-01001-01391103741ADDAY101999GF103991011071017501011081MW1081
0057295670999991971012609004+55683+090500FM-12+999999999V0209991C00001220001CN0500001N9-01001-01391103621ADDAY111999GF107991001001999999001021MD1710131+9999MW1021
0092295670999991971012612004+55683+090500FM-12+999999999V0202301N00101021001CN0500001N9-01221-01501103691ADDAA106075091AA224999999AY111999GF108991061001022501071011KA1999M-00781MD1310031+9999MW1021
0057295670999991971012615004+55683+090500FM-12+999999999V0202501N00311220001CN0500001N9-01221-01501103641ADDAY121999GF106991001001999999001011MD1610051+9999MW1021
0057295670999991971012618004+55683+090500FM-12+999999999V0201801N00511024001CN0500001N9-01001-01281103531ADDAY121999GF108991081001999999021999MD1610071+9999MW1021
0057295670999991971012621004+55683+090500FM-12+999999999V0202001N00311024001CN0500001N9-01001-01221103491ADDAY121999GF108991081001999999021999MD1610031+9999MW1021
0106295670999991971012700004+55683+090500FM-12+999999999V0202001N00311024001CN0500001N9-01001-01221103461ADDAA199000091AY121999GF108991081001999999021999HL10009IA1319IA2999-01729KA1999N-01281MD1610031+9999MW1021
0057295670999991971012703004+55683+090500FM-12+999999999V0201801N00511021001CN0500001N9-01001-01221103421ADDAY121999GF107991061001022501071011MD1610021+9999MW1021
0057295670999991971012706004+55683+090500FM-12+999999999V0201801N00311024001CN0500001N9-00781-00891103371ADDAY121999GF108991081001999999011999MD1610041+9999MW1021
0057295670999991971012709004+55683+090500FM-12+999999999V0201801N00311024001CN0100001N9-00721-00721103351ADDAY171999GF108991061001999999011071MD1410001+9999MW1711
0092295670999991971012712004+55683+090500FM-12+999999999V0201801N00101024001CN0450001N9-01001-01111103421ADDAA106075091AA224999999AY171999GF108991081001999999011999KA1999M-00611MD1310031+9999MW1711
0057295670999991971012718004+55683+090500FM-12+999999999V0201801N00101024001CN0036001N9-00891-01001103531ADDAY171999GF108991081001999999011999MD1110041+9999MW1711
0057295670999991971012803004+55683+090500FM-12+999999999V0201801N00211220001CN0180001N9-01221-01221103661ADDAY171999GF102991021001022501041001MD1310061+9999MW1281
0057295670999991971012806004+55683+090500FM-12+999999999V0202001N00101220001CN0290001N9-00891-00891103611ADDAY171999GF104991041001022501031001MD1110011+9999MW1021
0057295670999991971012809004+55683+090500FM-12+999999999V0202001N00211220001CN0290001N9-00891-01001103621ADDAY111999GF106991001001999999001011MD1110011+9999MW1021
0092295670999991971012812004+55683+090500FM-12+999999999V0209991C00001021001CN0290001N9-01111-01111103691ADDAA106075091AA224999999AY171999GF106991061001022501071001KA1999M-00891MD1110031+9999MW1711
0057295670999991971012815004+55683+090500FM-12+999999999V0209991C00001024001CN0110001N9-01221-01221103701ADDAY171999GF108991081001999999021999MD1810011+9999MW1711
0057295670999991971012818004+55683+090500FM-12+999999999V0209991C00001220001CN0500001N9-01281-01281103671ADDAY171999GF100991001001999999001001MD1810051+9999MW1221
0057295670999991971012821004+55683+090500FM-12+999999999V0209991C00001220001CN0500001N9-01281-01281103661ADDAY101999GF100991001001999999001001MD1610011+9999MW1021
0117295670999991971012900004+55683+090500FM-12+999999999V0209991C00001024001CN0500001N9-01501-01501103661ADDAA106075091AA224999999AY111999GF108991081001999999021999HL10009IA1319IA2999-02229KA1999N-01611MD1810041+9999MW1031
0057295670999991971012903004+55683+090500FM-12+999999999V0209991C00001220001CN0500001N9-01611-01611103671ADDAY121999GF105991001001999999001021MD1710011+9999MW1021
0057295670999991971012906004+55683+090500FM-12+999999999V0202001N00101220001CN0500001N9-01221-01391103551ADDAY111999GF100991001001999999001001MD1710041+9999MW1021
0057295670999991971012909004+55683+090500FM-12+999999999V0202001N00211220001CN0500001N9-01001-01391103431ADDAY101999GF102991001001999999001011MD1710071+9999MW1021
0081295670999991971012912004+55683+090500FM-12+999999999V0202301N00101220001CN0500001N9-01281-01391103481ADDAA199000091AY101999GF102991001001999999001011KA1999M-00891MD1610011+9999MW1021
0057295670999991971012918004+55683+090500FM-12+999999999V0201801N00101007801CN0100001N9-01221-01221103391ADDAY171999GF108991081001008001021999MD1710061+9999MW1711
0117295670999991971013000004+55683+090500FM-12+999999999V0201801N00101007801CN0070001N9-01001-01001103321ADDAA106004091AA299001091AY171999GF108991081001008001021999HL10009IA1319IA2999-02119KA1999N-01501MD1610011+9999MW1711
0057295670999991971013003004+55683+090500FM-12+999999999V0201801N00211007801CN0070001N9-01001-01001103331ADDAY171999GF108991081001008001021999MD1310011+9999MW1711
0057295670999991971013006004+55683+090500FM-12+999999999V0202001N00311007801CN0080001N9-01001+99999103341ADDAY171999GF108991081001008001021999MD1110031+9999MW1711
0057295670999991971013009004+55683+090500FM-12+999999999V0209991C00001024001CN0090001N9-01001+99999103411ADDAY171999GF108991061001999999011071MD1310051+9999MW1711
0092295670999991971013012004+55683+090500FM-12+999999999V0209991C00001220001CN0002001N9-01501-01501103651ADDAA106004091AA299001091AY141999GF105991001001999999001021KA1999M-00891MD1210131+9999MW1481
0057295670999991971013018004+55683+090500FM-12+999999999V0209991C00001000151CN0001001N9-01891-01891103851ADDAY171999GF109991091999000251999999MD1110031+9999MW1491
0117295670999991971013100004+55683+090500FM-12+999999999V0209991C00001220001CN0003001N9-01781-01781104011ADDAA106001091AA299000391AY141999GF100991001001999999001001HL10009IA1319IA2999-02009KA1999N-02001MD1110011+9999MW1481
0057295670999991971013103004+55683+090500FM-12+999999999V0209991C00001220001CN0005001N9-02001-02001104061ADDAY141999GF100991001001999999001001MD1110011+9999MW1481
0057295670999991971013106004+55683+090500FM-12+999999999V0202001N00211220001CN0180001N9-01501-01501103961ADDAY141999GF101991001001999999001011MD1110011+9999MW1021
0057295670999991971013109004+55683+090500FM-12+999999999V0202001N00211220001CN0200001N9-01281-01281104001ADDAY101999GF100991001001999999001001MD1110071+9999MW1021
0081295670999991971013112004+55683+090500FM-12+999999999V0209991C00001000151CN0001001N9-02111-02111104291ADDAA199000091AY141999GF109991091999000251999999KA1999M-01221MD1310121+9999MW1471
0057295670999991971013118004+55683+090500FM-12+999999999V0209991C00001220001CN0500001N9-02001-02001104361ADDAY141999GF100991001001999999001001MD1110031+9999MW1021
0141295670999991971020100004+55683+090500FM-12+999999999V0209991C00001220001CN0500001N9-02111-02111104481ADDAA199000091AY101999GA1031+999999049GF199999001001999999001001HL10009IA1319IA2999-03009KA1999N-02391MD1310081+9999MW1021EQDQ01+000002SCOTCV
0057295670999991971020103004+55683+090500FM-12+999999999V0202001N00101021001CN0260001N9-01891-01891104501ADDAY111999GF106991061001022501071001MD1110061+9999MW1021
0057295670999991971020106004+55683+090500FM-12+999999999V0202001N00101220001CN0180001N9-01721-01721104501ADDAY111999GF100991001001999999001001MD1110041+9999MW1111
0081295670999991971020112004+55683+090500FM-12+999999999V0202001N00411021001CN0500001N9-01721-01721104591ADDAA199000091AY111999GF106991061001022501031001KA1999M-01611MD1310051+9999MW1031
0057295670999991971020115004+55683+090500FM-12+999999999V0202001N00311220001CN0450001N9-01721-02001104681ADDAY111999GF100991001001999999001001MD1110021+9999MW1021
0057295670999991971020118004+55683+090500FM-12+999999999V0202001N00211220001CN0500001N9-02111-02111104711ADDAY111999GF100991001001999999001001MD1110041+9999MW1021
0057295670999991971020121004+55683+090500FM-12+999999999V0202001N00311024001CN0290001N9-01611-01611104661ADDAY111999GF108991081001999999021999MD1110031+9999MW1021
0117295670999991971020200004+55683+090500FM-12+999999999V0202001N00311007801CN0090001N9-01611-01611104691ADDAA106002091AA299000591AY171999GF108991081001008001021999HL10009IA1319IA2999-02509KA1999N-02111MD1110011+9999MW1711
0057295670999991971020203004+55683+090500FM-12+999999999V0202001N00101024001CN0090001N9-01391-01391104741ADDAY171999GF108991081001999999011999MD1310091+9999MW1711
0057295670999991971020206004+55683+090500FM-12+999999999V0202001N00101024001CN0130001N9-01281-01281104731ADDAY171999GF108991081001999999011999MD1110011+9999MW1711
0057295670999991971020209004+55683+090500FM-12+999999999V0202301N00211024001CN0110001N9-01111-01111104591ADDAY171999GF108991081001999999011999MD1810011+9999MW1711
0092295670999991971020212004+55683+090500FM-12+999999999V0202901N00621220001CN0130001N9-01501-01721104441ADDAA106075091AA224999999AY101999GF100991001001999999001001KA1999M-01111MD1410001+9999MW1021
0057295670999991971020215004+55683+090500FM-12+999999999V0209991C00001220001CN0001001N9-02111-02111104911ADDAY141999GF100991001001999999001001MD1310011+9999MW1481
0057295670999991971020218004+55683+090500FM-12+999999999V0209991C00001220001CN0002001N9-02111-02111104831ADDAY141999GF100991001001999999001001MD1810061+9999MW1481
0057295670999991971020221004+55683+090500FM-12+999999999V0209991C00001024001CN0230001N9-02221-02221104691ADDAY141999GF108991081001999999011999MD1710141+9999MW1711
0117295670999991971020300004+55683+090500FM-12+999999999V0202001N00311024001CN0060001N9-01721-01721104331ADDAA106002091AA299000591AY171999GF108991081001999999011999HL10009IA1319IA2999-02789KA1999N-02501MD1710241+9999MW1711
0057295670999991971020303004+55683+090500FM-12+999999999V0202501N00411024001CN0230001N9-02111-02111104311ADDAY171999GF108991081001999999011999MD1710101+9999MW1711
0057295670999991971020306004+55683+090500FM-12+999999999V0202701N00621220001CN0240001N9-01781-01781104131ADDAY171999GF106991001001999999081999MD1710121+9999MW1021
0057295670999991971020309004+55683+090500FM-12+999999999V0202901N00311220001CN0260001N9-01501-01501104031ADDAY121999GF107991001001999999001021MD1710031+9999MW1021
0092295670999991971020312004+55683+090500FM-12+999999999V0203601N00311220001CN0280001N9-02281-02281104361ADDAA106075091AA224999999AY111999GF101991001001999999001021KA1999M-01501MD1310121+9999MW1021
0057295670999991971020315004+55683+090500FM-12+999999999V0203601N00211007801CN0080001N9-02281-02281104421ADDAY111999GF108991061001008001011071MD1210051+9999MW1711
0057295670999991971020318004+55683+090500FM-12+999999999V0203601N00311220001CN0500001N9-02501-02501104501ADDAY171999GF100991001001999999001001MD1110031+9999MW1011
0057295670999991971020321004+55683+090500FM-12+999999999V0203601N00211220001CN0500001N9-02501-02501104581ADDAY101999GF100991001001999999001001MD1310231+9999MW1021
0117295670999991971020400004+55683+090500FM-12+999999999V0209991C00001220001CN0500001N9-03001-03001104751ADDAA106001091AA299000391AY101999GF100991001001999999001001HL10009IA1319IA2999-03899KA1999N-03221MD1210081+9999MW1021
0057295670999991971020403004+55683+090500FM-12+999999999V0209991C00001220001CN0060001N9-03281-03281104951ADDAY101999GF100991001001999999001001MD1210101+9999MW1101
0057295670999991971020406004+55683+090500FM-12+999999999V0209991C00001220001CN0050001N9-02501-02501104821ADDAY101999GF100991001001999999001001MD1110051+9999MW1101
0057295670999991971020409004+55683+090500FM-12+999999999V0209991C00001220001CN0070001N9-02391-02391104811ADDAY101999GF100991001001999999001001MD1110011+9999MW1101
0081295670999991971020412004+55683+090500FM-12+999999999V0209991C00001220001CN0050001N9-03001-03001999999ADDAA199000091AY101999GF102991001001999999001021KA1999M-02391MD1710081+9999MW1101
0043295670999991971020415004+55683+090500FM-12+999999999V0209991C000019999999N0130001N9-03111-03721999999ADDAY101999GF199999999999022501081011MW1021
0057295670999991971020418004+55683+090500FM-12+999999999V0209991C00001220001CN0180001N9-03221-03221104951ADDAY101999GF100991001001999999001001MD1810131+9999MW1021
0106295670999991971020500004+55683+090500FM-12+999999999V0203201N00101220001CN0220001N9-03111-03111104751ADDAA199000091AY101999GF102991001001999999001021HL10009IA1319IA2999-03899KA1999N-03281MD1610061+9999MW1021
0057295670999991971020503004+55683+090500FM-12+999999999V0209991C00001220001CN0180001N9-03111-03111104641ADDAY111999GF106991001001999999001011MD1710111+9999MW1021
0057295670999991971020506004+55683+090500FM-12+999999999V0201601N00101220001CN0220001N9-02611-02611104361ADDAY111999GF106991001001999999001011MD1710161+9999MW1021
0057295670999991971020509004+55683+090500FM-12+999999999V0201401N00411220001CN0270001N9-02391-02391104151ADDAY121999GF106991001001999999001011MD1710161+9999MW1021
0081295670999991971020512004+55683+090500FM-12+999999999V0201401N00211220001CN0500001N9-02501-02501104051ADDAA199000091AY121999GF105991001001999999001011KA1999M-02391MD1710121+9999MW1021
0057295670999991971020518004+55683+090500FM-12+999999999V0201401N00101220001CN0500001N9-02611-02611103521ADDAY121999GF108991001001999999001071MD1810321+9999MW1021
0057295670999991971020521004+55683+090500FM-12+999999999V0209991C00001024001CN0160001N9-02501-02501103421ADDAY171999GF108991081001999999011999MD1710081+9999MW1711
0092295670999991971020600004+55683+090500FM-12+999999999V0209991C00001024001CN0220001N9-02501-02501103221ADDAA106001091AA299000391AY171999GF108991081001999999011999KA1999N-02781MD1610191+9999MW1711
0057295670999991971020606004+55683+090500FM-12+999999999V0202001N00311220001CN0250001N9-02281-02281103061ADDAY171999GF100991001001999999001001MD1610041+9999MW1021
0057295670999991971020609004+55683+090500FM-12+999999999V0202001N00211220001CN0240001N9-02221-02221103041ADDAY101999GF100991001001999999001001MD1410001+9999MW1021
0092295670999991971020612004+55683+090500FM-12+999999999V0202001N00211220001CN0500001N9-02501-02501103261ADDAA106001091AA299000391AY101999GF102991001001999999001021KA1999M-02221MD1310151+9999MW1021
0057295670999991971020615004+55683+090500FM-12+999999999V0202301N00211220001CN0500001N9-02611-02611103171ADDAY111999GF108991001001999999001071MD1810101+9999MW1021
0057295670999991971020618004+55683+090500FM-12+999999999V0209991C00001220001CN0500001N9-02721-02721103091ADDAY111999GF108991001001999999001071MD1710181+9999MW1021
0057295670999991971020621004+55683+090500FM-12+999999999V0209991C00001220001CN0500001N9-02611-02611102911ADDAY121999GF108991001001999999001071MD1710151+9999MW1021
0106295670999991971020700004+55683+090500FM-12+999999999V0209991C00001220001CN0500001N9-02611-02611102841ADDAA199000091AY111999GF100991001001999999001001HL10009IA1319IA2999-03619KA1999N-02781MD1610071+9999MW1021
0057295670999991971020703004+55683+090500FM-12+999999999V0209991C00001220001CN0120001N9-02391-02391102721ADDAY111999GF105991001001999999001021MD1710071+9999MW1021
0057295670999991971020706004+55683+090500FM-12+999999999V0202001N00311220001CN0140001N9-02111-02111102571ADDAY111999GF107991001001999999001021MD1710091+9999MW1021
0057295670999991971020709004+55683+090500FM-12+999999999V0202001N00101220001CN0100001N9-01891-01891102461ADDAY121999GF107991001001999999001021MD1710071+9999MW1021
0081295670999991971020712004+55683+090500FM-12+999999999V0202001N00101021001CN0500001N9-01891-01891102411ADDAA199000091AY121999GF106991051001022501071021KA1999M-01721MD1610041+9999MW1021
0057295670999991971020718004+55683+090500FM-12+999999999V0202001N005119999999N0500001N9-01391-01501102261ADDAY121999GF107991021001022501051011MD1610021+9999MW1021
0106295670999991971020800004+55683+090500FM-12+999999999V0202001N00411024001CN0500001N9-01391-01501102481ADDAA199000091AY121999GF108991081001999999011999HL10009IA1319IA2999-02009KA1999N-02001MD1210131+9999MW1021
0057295670999991971020806004+55683+090500FM-12+999999999V0202001N00101024001CN0280001N9-01001-01111102591ADDAY171999GF108991081001999999011999MD1110071+9999MW1221
0057295670999991971020809004+55683+090500FM-12+999999999V0202001N00211024001CN0140001N9-00891-01001102571ADDAY171999GF108991081001999999011999MD1410001+9999MW1711
0092295670999991971020812004+55683+090500FM-12+999999999V0209991C00001007801CN0070001N9-00891-01111102691ADDAA106002091AA299000591AY171999GF108991081001008001021999KA1999M-00891MD1310111+9999MW1711
0057295670999991971020815004+55683+090500FM-12+999999999V0209991C00001024001CN0090001N9-00891-01111102751ADDAY171999GF108991081001999999011999MD1210061+9999MW1711
0057295670999991971020818004+55683+090500FM-12+999999999V0209991C00001024001CN0500001N9-01001-01001102791ADDAY171999GF108991081001999999011999MD1110021+9999MW1221
0057295670999991971020821004+55683+090500FM-12+999999999V0209991C00001024001CN0500001N9-00891-00891102771ADDAY121999GF108991081001999999011999MD1410001+9999MW1021
0117295670999991971020900004+55683+090500FM-12+999999999V0209991C00001024001CN0500001N9-01001-01111102891ADDAA106001091AA299000391AY121999GF108991081001999999011999HL10009IA1319IA2999-01229KA1999N-01001MD1310091+9999MW1021
0057295670999991971020903004+55683+090500FM-12+999999999V0209991C00001021001CN0210001N9-00891-00891102901ADDAY171999GF108991081001022501071999MD1110031+9999MW1221
0043295670999991971020906004+55683+090500FM-12+999999999V0200901N008719999999N0200001N9-01391-01611103081ADDAY171999GF108991999051999999001071MW1711
0057295670999991971020909004+55683+090500FM-12+999999999V0200701N00101220001CN0160001N9-00781-00781102781ADDAY101999GF100991001001999999001001MD1810041+9999MW1021
0092295670999991971020912004+55683+090500FM-12+999999999V0201601N00211220001CN0500001N9-01111-01111102841ADDAA106075091AA224999999AY101999GF102991001001999999001021KA1999M-00721MD1410001+9999MW1021
0057295670999991971020915004+55683+090500FM-12+999999999V0200701N00211220001CN0500001N9-01501-01501103021ADDAY101999GF100991001001999999001001MD1310091+9999MW1021
0057295670999991971020918004+55683+090500FM-12+999999999V0200501N00311220001CN0500001N9-01781-01781103131ADDAY101999GF100991001001999999001001MD1110041+9999MW1021
0057295670999991971020921004+55683+090500FM-12+999999999V0200501N00211220001CN0500001N9-02111-02111103231ADDAY101999GF100991001001999999001001MD1110041+9999MW1021
0106295670999991971021000004+55683+090500FM-12+999999999V0200701N00211220001CN0500001N9-02221-02221103261ADDAA199000091AY101999GF100991001001999999001001HL10009IA1199IA2999-02899KA1999N-02221MD1110011+9999MW1021
0057295670999991971021003004+55683+090500FM-12+999999999V0200201N00101220001CN0300001N9-02111-02111103261ADDAY101999GF101991001001999999001011MD1110021+9999MW1021
0057295670999991971021006004+55683+090500FM-12+999999999V0200501N00211220001CN0300001N9-01721-01721103181ADDAY101999GF101991001001999999001021MD1110011+9999MW1021
0057295670999991971021009004+55683+090500FM-12+999999999V0201101N00311220001CN0350001N9-01391-02001103121ADDAY101999GF100991001001999999001001MD1410001+9999MW1021
0081295670999991971021012004+55683+090500FM-12+999999999V0201101N00101220001CN0500001N9-01611-02111103231ADDAA199000091AY101999GF101991001001999999001021KA1999M-01391MD1110061+9999MW1021
0057295670999991971021015004+55683+090500FM-12+999999999V0202301N00311021001CN0500001N9-01721-01781103331ADDAY111999GF107991071001022501031001MD1110081+9999MW1021
0057295670999991971021018004+55683+090500FM-12+999999999V0209991C00001024001CN0050001N9-01501-01501103371ADDAY171999GF108991081001999999011999MD1110081+9999MW1711
0057295670999991971021021004+55683+090500FM-12+999999999V0209991C00001021001CN0070001N9-01281-01281103291ADDAY171999GF107991071001022501071001MD1810041+9999MW1711
0068295670999991971021100004+55683+090500FM-12+999999999V0202001N00101007801CN0070001N9-01221-01221103271ADDAY171999GF108991081001008001021999HL10009IA1319IA2999-02619MW1711
0057295670999991971021103004+55683+090500FM-12+999999999V0202501N001019999999N0250001N9-01391-01391103311ADDAY171999GF106991031001022501071011MD1410001+9999MW1021
0057295670999991971021106004+55683+090500FM-12+999999999V0202701N00101220001CN0450001N9-01221-01391103241ADDAY171999GF100991001001999999001001MD1810031+9999MW1021
0057295670999991971021109004+55683+090500FM-12+999999999V0202701N00101220001CN0260001N9-01221-01501103221ADDAY101999GF102991001001999999001011MD1610021+9999MW1021
0092295670999991971021112004+55683+090500FM-12+999999999V0202501N00211220001CN0500001N9-01501-01501103191ADDAA106075091AA224999999AY101999GF101991001001999999001011KA1999M-00781MD1810091+9999MW1021
0043295670999991971021115004+55683+090500FM-12+999999999V0201801N001019999999N0500001N9-01501-01721103041ADDAY111999GF107991071071999999999999MW1031
0057295670999991971021118004+55683+090500FM-12+999999999V0201601N00311220001CN0500001N9-01501-01501102891ADDAY111999GF108991001001999999001071MD1710141+9999MW1021
0117295670999991971021200004+55683+090500FM-12+999999999V0201801N00311024001CN0500001N9-01281-01281102501ADDAA106001091AA299000391AY171999GF108991081001999999011999HL10009IA1319IA2999-02509KA1999N-01611MD1710081+9999MW1021
0057295670999991971021203004+55683+090500FM-12+999999999V0202001N00311024001CN0090001N9-01391-01391102431ADDAY171999GF108991081001999999011999MD1610091+9999MW1711
0057295670999991971021206004+55683+090500FM-12+999999999V0202501N00311024001CN0080001N9-01391-01391102401ADDAY171999GF108991081001999999011999MD1610031+9999MW1711
0057295670999991971021209004+55683+090500FM-12+999999999V0202501N00101220001CN0230001N9-01281-01391102481ADDAY171999GF107991001001999999001021MD1310101+9999MW1021
0092295670999991971021212004+55683+090500FM-12+999999999V0202301N00211220001CN0150001N9-01721-01721102741ADDAA106004091AA299001091AY171999GF102991001001999999001021KA1999M-01221MD1210171+9999MW1021
0057295670999991971021215004+55683+090500FM-12+999999999V0202501N00821220001CN0500001N9-01721-01781102901ADDAY171999GF103991001001999999001021MD1210151+9999MW1361
0057295670999991971021218004+55683+090500FM-12+999999999V0202501N00311220001CN0500001N9-01781-02001103031ADDAY171999GF100991001001999999001001MD1210101+9999MW1021
0117295670999991971021300004+55683+090500FM-12+999999999V0202701N00981220001CN0300001N9-02001-02001103281ADDAA106075091AA224999999AY131999GF108991001001999999001071HL10009IA1319IA2999-02229KA1999N-02001MD1210091+9999MW1361
0043295670999991971021303004+55683+090500FM-12+999999999V0202701N00871024001CN0060001N9-02001-02001103471ADDAY171999GF108991081001999999011999MW1711
0057295670999991971021306004+55683+090500FM-12+999999999V0202701N00981024001CN0120001N9-01781-01891103571ADDAY171999GF108991081001999999011999MD1210131+9999MW1711
0057295670999991971021309004+55683+090500FM-12+999999999V0202701N00511024001CN0050001N9-01721-01781103651ADDAY171999GF108991081001999999011999MD1310261+9999MW1711
0092295670999991971021312004+55683+090500FM-12+999999999V0202701N00311024001CN0070001N9-02221-02221103911ADDAA106002091AA299000591AY171999GF108991081001999999011999KA1999M-01721MD1210151+9999MW1711
0057295670999991971021315004+55683+090500FM-12+999999999V0209991C00001220001CN0250001N9-02391-02391104001ADDAY171999GF100991001001999999001001MD1210041+9999MW1761
0057295670999991971021318004+55683+090500FM-12+999999999V0209991C00001024001CN0200001N9-02391-02391104001ADDAY171999GF108991081001999999011999MD1410001+9999MW1711
0051295670999991971021321004+55683+090500FM-12+999999999V0202501N00101220001CN0110001N9-02391-02391103871ADDAY171999GF100991001001999999001001MD1810131+9999
0117295670999991971021400004+55683+090500FM-12+999999999V0202501N00101220001CN0070001N9-02391-02391103711ADDAA106075091AA224999999AY171999GF100991001001999999001001HL10009IA1319IA2999-03289KA1999N-02721MD1710141+9999MW1101
0057295670999991971021403004+55683+090500FM-12+999999999V0202301N00101220001CN0080001N9-02611-02611103711ADDAY101999GF100991001001999999001001MD1610041+9999MW1101
0057295670999991971021409004+55683+090500FM-12+999999999V0202301N00101220001CN0130001N9-01891-01891103601ADDAY101999GF100991001001999999001001MD1610081+9999MW1021
0081295670999991971021412004+55683+090500FM-12+999999999V0202501N00101220001CN0150001N9-02501-02501103481ADDAA199000091AY101999GF102991001001999999001021KA1999M-01781MD1310091+9999MW1021
0057295670999991971021418004+55683+090500FM-12+999999999V0202901N00511024001CN0500001N9-02281-02611103641ADDAY111999GF108991081001999999021999MD1210091+9999MW1031
0057295670999991971021421004+55683+090500FM-12+999999999V0209991C00001220001CN0500001N9-02721-02721103801ADDAY111999GF102991001001999999001021MD1110081+9999MW1021
0106295670999991971021500004+55683+090500FM-12+999999999V0202901N003119999999N0500001N9-02721-02721103871ADDAA199000091AY111999GF106991041001022501071021HL10009IA1319IA2999-03229KA1999N-02781MD1110051+9999MW1021
0057295670999991971021503004+55683+090500FM-12+999999999V0202501N00511220001CN0170001N9-02721-02721103901ADDAY111999GF102991001001999999001021MD1110031+9999MW1011
0057295670999991971021506004+55683+090500FM-12+999999999V0202501N00311220001CN0230001N9-02281-02281103871ADDAY111999GF101991001001999999001011MD1110051+9999MW1021
0057295670999991971021509004+55683+090500FM-12+999999999V0202501N00101220001CN0180001N9-02391-02391103851ADDAY101999GF101991001001999999001011MD1810041+9999MW1021
0081295670999991971021512004+55683+090500FM-12+999999999V0202701N00211220001CN0500001N9-02611-02611103921ADDAA199000091AY101999GF102991001001999999001021KA1999M-02001MD1310031+9999MW1021
0057295670999991971021518004+55683+090500FM-12+999999999V0209991C00001220001CN0500001N9-02721-02721103801ADDAY101999GF100991001001999999001001MD1710081+9999MW1021
0106295670999991971021600004+55683+090500FM-12+999999999V0209991C00001220001CN0500001N9-02781-02781103731ADDAA199000091AY101999GF102991001001999999001011HL10009IA1319IA2999-03509KA1999N-03001MD1810111+9999MW1021
0057295670999991971021603004+55683+090500FM-12+999999999V0209991C00001220001CN0240001N9-02611-02611103651ADDAY111999GF106991001001999999001011MD1610031+9999MW1031
0057295670999991971021606004+55683+090500FM-12+999999999V0202501N00101220001CN0200001N9-02221-02221103451ADDAY111999GF106991001001999999001011MD1710111+9999MW1021
0057295670999991971021609004+55683+090500FM-12+999999999V0202001N00311220001CN0240001N9-01891-02001103331ADDAY121999GF107991001001999999001021MD1710061+9999MW1021
0081295670999991971021612004+55683+090500FM-12+999999999V0202001N00311220001CN0500001N9-02111-02221103331ADDAA199000091AY121999GF104991001001999999001021KA1999M-01891MD1610041+9999MW1021
0057295670999991971021615004+55683+090500FM-12+999999999V0202001N00211220001CN0500001N9-02611-02721103351ADDAY111999GF100991001001999999001001MD1710071+9999MW1021
0057295670999991971021618004+55683+090500FM-12+999999999V0202001N00101220001CN0500001N9-02721-02781103301ADDAY111999GF100991001001999999001001MD1710071+9999MW1021
0106295670999991971021700004+55683+090500FM-12+999999999V0202001N00211220001CN0500001N9-02501-02501103131ADDAA199000091AY101999GF103991001001999999001011HL10009IA1319IA2999-03229KA1999N-02781MD1710051+9999MW1021
0057295670999991971021703004+55683+090500FM-12+999999999V0202001N00211220001CN0210001N9-02391-02391103041ADDAY101999GF103991001001999999001011MD1710071+9999MW1021
0057295670999991971021706004+55683+090500FM-12+999999999V0202001N00211220001CN0220001N9-02001-02001102841ADDAY101999GF100991001001999999001001MD1710111+9999MW1021
0057295670999991971021709004+55683+090500FM-12+999999999V0201601N00101220001CN0180001N9-01781-02111102721ADDAY101999GF101991001001999999001011MD1710081+9999MW1021
0081295670999991971021712004+55683+090500FM-12+999999999V0201601N00211220001CN0210001N9-02221-02281102671ADDAA199000091AY111999GF105991001001999999001011KA1999M-01721MD1710121+9999MW1021
0057295670999991971021718004+55683+090500FM-12+999999999V0201801N00311024001CN0450001N9-01781-01891102111ADDAY111999GF108991081001999999021999MD1710261+9999MW1031
0117295670999991971021800004+55683+090500FM-12+999999999V0202001N00511024001CN0500001N9-01611-01611101591ADDAA106002091AA299000591AY171999GF108991081001999999011999HL10009IA1319IA2999-02899KA1999N-02391MD1710221+9999MW1021
0057295670999991971021803004+55683+090500FM-12+999999999V0202001N00511024001CN0230001N9-01501-01501101281ADDAY171999GF108991081001999999011999MD1710271+9999MW1711
0057295670999991971021806004+55683+090500FM-12+999999999V0202001N00511024001CN0080001N9-01281-01281100921ADDAY171999GF108991081001999999011999MD1710311+9999MW1711
0057295670999991971021809004+55683+090500FM-12+999999999V0202001N00511024001CN0240001N9-01001-01001100651ADDAY171999GF108991081001999999011999MD1610201+9999MW1021
0057295670999991971021818004+55683+090500FM-12+999999999V0202001N00981024001CN0040001N9+99999+99999100471ADDAY151999GF108991081001999999021999MD1310241+9999MW1711
0043295670999991971021821004+55683+090500FM-12+999999999V0202001N007219999999N0500001N9+99999+99999100471ADDAY171999GF199999999071017501071071MW1221
0117295670999991971021900004+55683+090500FM-12+999999999V0202001N00511220001CN0500001N9-02221-02721101521ADDAA106004091AA299001091AY171999GF100991001001999999001001HL10009IA1319IA2999-02619KA1999N-02221MD1110181+9999MW1021
0057295670999991971021906004+55683+090500FM-12+999999999V0202001N00821024001CN0210001N9-01721-02281101781ADDAY131999GF108991081001999999011999MD1210161+9999MW1361
0057295670999991971021909004+55683+090500FM-12+999999999V0202001N00871024001CN0300001N9-01891-02501102021ADDAY131999GF108991081001999999011999MD1210181+9999MW1361
0081295670999991971021912004+55683+090500FM-12+999999999V0202501N00721220001CN0500001N9-02281-02781102311ADDAA199000091AY131999GF102991001001999999001021KA1999M-01611MD1210201+9999MW1011
0057295670999991971021918004+55683+090500FM-12+999999999V0202301N00101220001CN0500001N9-02501-02891102561ADDAY101999GF100991001001999999001001MD1110051+9999MW1021
0106295670999991971022000004+55683+090500FM-12+999999999V0209991C00001220001CN0500001N9-02721-03001102711ADDAA199000091AY101999GF101991001001999999001021HL10009IA1319IA2999-03399KA1999N-02721MD1110031+9999MW1021
0057295670999991971022003004+55683+090500FM-12+999999999V0202301N00411220001CN0210001N9-02611-03001102831ADDAY111999GF108991001001999999001071MD1310131+9999MW1021
0057295670999991971022006004+55683+090500FM-12+999999999V0202301N00311024001CN0080001N9-02501-02781102951ADDAY171999GF108991081001999999011999MD1210141+9999MW1711
0057295670999991971022009004+55683+090500FM-12+999999999V0200201N00411024001CN0050001N9-02391-02501102971ADDAY171999GF108991081001999999011999MD1110031+9999MW1711
0092295670999991971022012004+55683+090500FM-12+999999999V0202901N00821024001CN0036001N9-02611-02721103331ADDAA106002091AA299000591AY171999GF108991081001999999021999KA1999M-02391MD1210291+9999MW1711
0057295670999991971022015004+55683+090500FM-12+999999999V0202901N00871024001CN0200001N9-02781-02891103731ADDAY171999GF108991081001999999021999MD1210351+9999MW1711
0057295670999991971022018004+55683+090500FM-12+999999999V0202701N00721021001CN0090001N9-02781-03001103981ADDAY171999GF108991081001022501011999MD1210281+9999MW1711
0057295670999991971022021004+55683+090500FM-12+999999999V0209991C00001220001CN0350001N9-03391-03611104231ADDAY111999GF100991001001999999001001MD1110031+9999MW1011
0117295670999991971022100004+55683+090500FM-12+999999999V0209991C00001220001CN0500001N9-03391-03611104361ADDAA106001091AA299000391AY111999GF100991001001999999001001HL10009IA1319IA2999-03789KA1999N-03391MD1110121+9999MW1021
0057295670999991971022103004+55683+090500FM-12+999999999V0201601N00101220001CN0260001N9-03281-03501104431ADDAY101999GF102991001001999999001011MD1110091+9999MW1021
0057295670999991971022106004+55683+090500FM-12+999999999V0201601N00101220001CN0290001N9-03001-03391104401ADDAY101999GF100991001001999999001001MD1110041+9999MW1021
0057295670999991971022109004+55683+090500FM-12+999999999V0202501N00101220001CN0260001N9-02781-03221104361ADDAY101999GF101991001001999999001011MD1410001+9999MW1021
0081295670999991971022112004+55683+090500FM-12+999999999V0200701N00311220001CN0150001N9-03221-03501104451ADDAA199000091AY101999GF102991001001999999001021KA1999M-02781MD1410001+9999MW1021
0057295670999991971022115004+55683+090500FM-12+999999999V0200701N00101220001CN0500001N9-03221-03501104341ADDAY101999GF100991001001999999001001MD1810071+9999MW1021
0106295670999991971022200004+55683+090500FM-12+999999999V0200701N00101220001CN0500001N9-03281-03501104251ADDAA199000091AY101999GF100991001001999999001001HL10009IA1319IA2999-03899KA1999N-03281MD1610031+9999MW1021
0057295670999991971022203004+55683+090500FM-12+999999999V0209991C00001024001CN0100001N9-03111-03221104151ADDAY171999GF108991081001999999011999MD1610041+9999MW1711
0057295670999991971022206004+55683+090500FM-12+999999999V0200701N00101024001CN0090001N9-03111-03221104071ADDAY171999GF108991081001999999011999MD1810041+9999MW1711
0057295670999991971022209004+55683+090500FM-12+999999999V0200701N00101024001CN0120001N9-02891-03001103971ADDAY171999GF108991081001999999011999MD1710051+9999MW1221
0092295670999991971022212004+55683+090500FM-12+999999999V0200701N00311024001CN0100001N9-02781-02891103831ADDAA106002091AA299000591AY171999GF108991081001999999011999KA1999M-02781MD1710101+9999MW1711
0057295670999991971022215004+55683+090500FM-12+999999999V0200701N00211024001CN0060001N9-02721-02721103841ADDAY171999GF108991081001999999011999MD1010041+9999MW1711
0057295670999991971022218004+55683+090500FM-12+999999999V0200701N00311024001CN0120001N9-03001-03001103831ADDAY171999GF108991081001999999011999MD1710081+9999MW1711
0057295670999991971022221004+55683+090500FM-12+999999999V0200701N003119999999N0080001N9-03111-03221103831ADDAY171999GF108991081001999999999999MD1610031+9999MW1711
0117295670999991971022300004+55683+090500FM-12+999999999V0200701N00511024001CN0060001N9-03111-03221103791ADDAA106001091AA299000391AY171999GF108991081001999999011999HL10009IA1319IA2999-03289KA1999N-03221MD1610041+9999MW1711
0057295670999991971022303004+55683+090500FM-12+999999999V0200701N00411024001CN0100001N9-03111-03221103801ADDAY171999GF108991081001999999011999MD1310011+9999MW1711
0057295670999991971022306004+55683+090500FM-12+999999999V0200701N00311220001CN0210001N9-02891-03001103701ADDAY171999GF108991001001999999001071MD1810051+9999MW1221
0057295670999991971022309004+55683+090500FM-12+999999999V0200501N00311220001CN0200001N9-02501-02781103541ADDAY111999GF102991001001999999001011MD1610061+9999MW1021
0092295670999991971022312004+55683+090500FM-12+999999999V0200501N00311220001CN0500001N9-02611-03111103651ADDAA106002091AA299000591AY111999GF102991001001999999001011KA1999M-02391MD1310081+9999MW1021
0057295670999991971022315004+55683+090500FM-12+999999999V0200501N00411220001CN0500001N9-03001-03391103741ADDAY101999GF100991001001999999001001MD1410001+9999MW1021
0057295670999991971022318004+55683+090500FM-12+999999999V0200701N00721220001CN0500001N9-03111-03391103771ADDAY101999GF100991001001999999001001MD1410001+9999MW1021
0087295670999991971022400004+55683+090500FM-12+999999999V0200501N00101220001CN0300001N9-03281-03391103811ADDAA199000091AY101999GF100991001001999999001001IA1319KA1999N-03281MD1310011+9999MW1021
0057295670999991971022403004+55683+090500FM-12+999999999V0200501N00211220001CN0080001N9-03221-03281103781ADDAY101999GF100991001001999999001001MD1410001+9999MW1101
0057295670999991971022406004+55683+090500FM-12+999999999V0200501N00101220001CN0220001N9-03001-03111103641ADDAY101999GF100991001001999999001001MD1810081+9999MW1021
0057295670999991971022409004+55683+090500FM-12+999999999V0209991C00001220001CN0250001N9-02781-03001103621ADDAY101999GF100991001001999999001001MD1410001+9999MW1021
0081295670999991971022412004+55683+090500FM-12+999999999V0203601N00101220001CN0230001N9-02781-03221103721ADDAA199000091AY101999GF101991001001999999001021KA1999M-02391MD1310111+9999MW1021
0076295670999991971022415004+55683+090500FM-12+999999999V0209991C00001220001CN0500001N9-03501+99999103971ADDAY101999GF100991001001999999001001MD1010251+9999MW1021EQDQ01+000852APC3  
0057295670999991971022418004+55683+090500FM-12+999999999V0209991C00001220001CN0500001N9-03611-03781103921ADDAY101999GF100991001001999999001001MD1810071+9999MW1021
0106295670999991971022500004+55683+090500FM-12+999999999V0209991C00001220001CN0500001N9-03281-03501103771ADDAA199000091AY101999GF102991001001999999001021HL10009IA1319IA2999-04289KA1999N-03721MD1410001+9999MW1021
0057295670999991971022503004+55683+090500FM-12+999999999V0209991C00001220001CN0060001N9-03111-03281103721ADDAY101999GF102991001001999999001011MD1410001+9999MW1101
0057295670999991971022506004+55683+090500FM-12+999999999V0203401N00101220001CN0180001N9-03001-03111103601ADDAY101999GF102991001001999999001011MD1810091+9999MW1021
0057295670999991971022509004+55683+090500FM-12+999999999V0200201N00101220001CN0120001N9-02781-03111103731ADDAY101999GF100991001001999999001001MD1310161+9999MW1021
0081295670999991971022512004+55683+090500FM-12+999999999V0200701N00101220001CN0100001N9-02721-03111103601ADDAA199000091AY101999GF100991001001999999001001KA1999M-02721MD1810091+9999MW1021
0057295670999991971022515004+55683+090500FM-12+999999999V0200501N00101220001CN0190001N9-03001-03111103641ADDAY101999GF100991001001999999001001MD1610031+9999MW1021
0057295670999991971022518004+55683+090500FM-12+999999999V0200501N00101220001CN0300001N9-03111-03281103611ADDAY101999GF100991001001999999001001MD1810061+9999MW1021
0057295670999991971022521004+55683+090500FM-12+999999999V0200501N00101220001CN0500001N9-03111-03221103571ADDAY101999GF100991001001999999001001MD1610041+9999MW1021
0106295670999991971022600004+55683+090500FM-12+999999999V0200501N00211220001CN0050001N9-03281-03501103641ADDAA199000091AY101999GF101991001001999999001011HL10009IA1319IA2999-04119KA1999N-03391MD1310021+9999MW1101
0057295670999991971022606004+55683+090500FM-12+999999999V0200501N00101220001CN0150001N9-03001-03111103701ADDAY101999GF100991001001999999001001MD1210041+9999MW1021
0057295670999991971022609004+55683+090500FM-12+999999999V0209991C00001220001CN0160001N9-02721-02891103651ADDAY101999GF102991001001999999001011MD1210061+9999MW1021
0081295670999991971022612004+55683+090500FM-12+999999999V0209991C00001220001CN0300001N9-03001-03391103831ADDAA199000091AY101999GF102991001001999999001021KA1999M-02501MD1310111+9999MW1021
0057295670999991971022615004+55683+090500FM-12+999999999V0209991C00001220001CN0300001N9-03281-03501103981ADDAY101999GF100991001001999999001001MD1210071+9999MW1021
0057295670999991971022618004+55683+090500FM-12+999999999V0209991C00001220001CN0500001N9-03221-03281103941ADDAY101999GF100991001001999999001001MD1810011+9999MW1021
0057295670999991971022621004+55683+090500FM-12+999999999V0209991C00001220001CN0500001N9-03221-03281103991ADDAY101999GF100991001001999999001001MD1310031+9999MW1021
0057295670999991971022703004+55683+090500FM-12+999999999V0209991C00001220001CN0050001N9+99999+99999104071ADDAY101999GF102991001001999999001011MD1210081+9999MW1101
0057295670999991971022706004+55683+090500FM-12+999999999V0200501N00101220001CN0150001N9-03001-03111104101ADDAY101999GF102991001001999999001011MD1210051+9999MW1021
0057295670999991971022709004+55683+090500FM-12+999999999V0209991C00001220001CN0190001N9-02391-02891104031ADDAY101999GF100991001001999999001001MD1110051+9999MW1021
0081295670999991971022712004+55683+090500FM-12+999999999V0200501N00101220001CN0250001N9-02781-03221104201ADDAA199000091AY101999GF101991001001999999001011KA1999M-02281MD1210021+9999MW1021
0057295670999991971022715004+55683+090500FM-12+999999999V0209991C00001220001CN0400001N9-03221-03391104301ADDAY101999GF100991001001999999001001MD1110011+9999MW1021
0057295670999991971022718004+55683+090500FM-12+999999999V0209991C00001220001CN0500001N9-03221-03391104311ADDAY101999GF100991001001999999001001MD1110011+9999MW1021
0057295670999991971022721004+55683+090500FM-12+999999999V0209991C00001220001CN0500001N9-03281-03501104351ADDAY101999GF100991001001999999001001MD1110031+9999MW1021
0106295670999991971022800004+55683+090500FM-12+999999999V0209991C00001220001CN0250001N9-03391-03611104311ADDAA199000091AY101999GF100991001001999999001001HL10009IA1319IA2999-04289KA1999N-03611MD1810021+9999MW1021
0057295670999991971022803004+55683+090500FM-12+999999999V0209991C00001220001CN0500001N9-03001-03111104251ADDAY101999GF100991001001999999001001MD1310041+9999MW1021
0057295670999991971022806004+55683+090500FM-12+999999999V0209991C00001220001CN0110001N9-02501-02721104111ADDAY101999GF100991001001999999001001MD1810031+9999MW1101
0057295670999991971022809004+55683+090500FM-12+999999999V0203601N00101220001CN0120001N9-02501-02781103991ADDAY101999GF100991001001999999001001MD1710111+9999MW1021
0081295670999991971022812004+55683+090500FM-12+999999999V0203601N00101220001CN0180001N9-02781-03221103981ADDAA199000091AY101999GF100991001001999999001001KA1999M-02111MD1610071+9999MW1021
0057295670999991971022815004+55683+090500FM-12+999999999V0209991C00001220001CN0200001N9-03111-03501104171ADDAY101999GF100991001001999999001001MD1310111+9999MW1021
0057295670999991971022818004+55683+090500FM-12+999999999V0203601N00101220001CN0500001N9-03281-03611104171ADDAY101999GF100991001001999999001001MD1810041+9999MW1021
0106295670999991971030100004+55683+090500FM-12+999999999V0203401N00101220001CN0500001N9-03501-03611104141ADDAA199000091AY101999GF100991001001999999001001HL10009IA1319IA2999-04229KA1999N-03611MD1410001+9999MW1021
0057295670999991971030106004+55683+090500FM-12+999999999V0203601N00101220001CN0230001N9-02721-02891103961ADDAY101999GF100991001001999999001001MD1810011+9999MW1021
0057295670999991971030109004+55683+090500FM-12+999999999V0200201N00101220001CN0220001N9-02501-02781103981ADDAY101999GF100991001001999999001001MD1310061+9999MW1021
0081295670999991971030112004+55683+090500FM-12+999999999V0203601N00211220001CN0500001N9-02721-03111104091ADDAA199000091AY101999GF102991001001999999001011KA1999M-02281MD1210061+9999MW1021
0057295670999991971030115004+55683+090500FM-12+999999999V0203601N00311220001CN0500001N9-02501-03001104131ADDAY101999GF100991001001999999001001MD1210081+9999MW1021
0057295670999991971030118004+55683+090500FM-12+999999999V0203601N00101220001CN0500001N9-02891-03111104211ADDAY101999GF100991001001999999001001MD1810011+9999MW1021
0057295670999991971030121004+55683+090500FM-12+999999999V0203601N00101220001CN0500001N9-03111-03391104291ADDAY101999GF100991001001999999001001MD1610011+9999MW1021
0141295670999991971030200004+55683+090500FM-12+999999999V0203601N00101220001CN0400001N9-03281-03281104381ADDAA199000091AY101999GF100991001001999999001001HL10009IA1319IA2999-04119KA1999N-03501MD1210091+9999MW1021EQDQ01+000042APCTENQ02+000092APC3  
0057295670999991971030203004+55683+090500FM-12+999999999V0200501N00101220001CN0250001N9-02891-03001104431ADDAY101999GF100991001001999999001001MD1210131+9999MW1021
0057295670999991971030206004+55683+090500FM-12+999999999V0202901N00511220001CN0230001N9-02611-02891104431ADDAY101999GF100991001001999999001001MD1110071+9999MW1021
0057295670999991971030209004+55683+090500FM-12+999999999V0202901N00311220001CN0250001N9-02391-02721104471ADDAY101999GF100991001001999999001001MD1110071+9999MW1021
0081295670999991971030212004+55683+090500FM-12+999999999V0202701N00211220001CN0230001N9-02781-03001104741ADDAA199000091AY101999GF102991001001999999001011KA1999M-02391MD1310171+9999MW1021
0057295670999991971030215004+55683+090500FM-12+999999999V0202501N00311220001CN0500001N9-02891-03111104901ADDAY101999GF100991001001999999001001MD1210141+9999MW1021
0057295670999991971030218004+55683+090500FM-12+999999999V0202501N00101220001CN0500001N9-03001-03221104961ADDAY101999GF100991001001999999001001MD1110041+9999MW1021
0057295670999991971030221004+55683+090500FM-12+999999999V0202501N00211220001CN0500001N9-03111-03221999999ADDAY101999GF100991001001999999001001MD1110051+9999MW1021
0106295670999991971030300004+55683+090500FM-12+999999999V0202301N00211220001CN0260001N9-03001-03221999999ADDAA199000091AY101999GF103991001001999999001021HL10009IA1319IA2999-03509KA1999N-03111MD1310101+9999MW1021
0057295670999991971030303004+55683+090500FM-12+999999999V0202501N00511220001CN0120001N9-02611-02891999999ADDAY111999GF106991001001999999001021MD1210101+9999MW1031
0057295670999991971030306004+55683+090500FM-12+999999999V0202701N00821024001CN0050001N9-02221-02501999999ADDAY171999GF106991051001999999011021MD1210051+9999MW1711
0057295670999991971030309004+55683+090500FM-12+999999999V0202701N00721220001CN0260001N9-02221-02281999999ADDAY171999GF103991001001999999001011MD1810041+9999MW1361
0092295670999991971030312004+55683+090500FM-12+999999999V0202701N00411220001CN0280001N9-02391-02611999999ADDAA106002091AA299000591AY171999GF103991001001999999001061KA1999M-02111MD1210171+9999MW1021
0057295670999991971030315004+55683+090500FM-12+999999999V0202301N00311220001CN0300001N9-02721-02781999999ADDAY101999GF100991001001999999001001MD1110131+9999MW1021
0057295670999991971030318004+55683+090500FM-12+999999999V0202001N00211220001CN0500001N9-02721-02781999999ADDAY101999GF100991001001999999001001MD1410001+9999MW1021
0057295670999991971030321004+55683+090500FM-12+999999999V0202001N00211220001CN0500001N9-02781-02891999999ADDAY101999GF100991001001999999001001MD1110011+9999MW1021
0106295670999991971030400004+55683+090500FM-12+999999999V0202001N00311220001CN0500001N9-02781-02891999999ADDAA199000091AY101999GF102991001001999999001021HL10009IA1319IA2999-03619KA1999N-02891MD1810031+9999MW1021
0057295670999991971030403004+55683+090500FM-12+999999999V0202001N00411220001CN0290001N9-02501-02891999999ADDAY101999GF102991001001999999001021MD1310031+9999MW1021
0057295670999991971030406004+55683+090500FM-12+999999999V0202001N00511220001CN0240001N9-02001-02391999999ADDAY101999GF102991001001999999001011MD1810011+9999MW1021
0057295670999991971030409004+55683+090500FM-12+999999999V0202301N00511220001CN0270001N9-01781-02391104971ADDAY101999GF102991001001999999001011MD1710111+9999MW1021
0081295670999991971030412004+55683+090500FM-12+999999999V0202001N00511220001CN0250001N9-02391-02721999999ADDAA199000091AY101999GF102991001001999999001021KA1999M-01781MD1610081+9999MW1021
0057295670999991971030415004+55683+090500FM-12+999999999V0202701N00101220001CN0230001N9-02611-02891999999ADDAY101999GF100991001001999999001001MD1310111+9999MW1021
0057295670999991971030418004+55683+090500FM-12+999999999V0202701N00211220001CN0500001N9-02391-02781104981ADDAY101999GF100991001001999999001001MD1810131+9999MW1021
0106295670999991971030500004+55683+090500FM-12+999999999V0209991C00001220001CN0500001N9-03001-03111104891ADDAA199000091AY101999GF102991001001999999001021HL10009IA1319IA2999-03789KA1999N-03001MD1710061+9999MW1021
0057295670999991971030503004+55683+090500FM-12+999999999V0202001N00211220001CN0270001N9-02611-02721104851ADDAY121999GF102991001001999999001091MD1310051+9999MW1021
0057295670999991971030506004+55683+090500FM-12+999999999V0202001N00311220001CN0230001N9-02001-02391104581ADDAY101999GF102991001001999999001011MD1810141+9999MW1021
0057295670999991971030509004+55683+090500FM-12+999999999V0202001N00211220001CN0200001N9-01721-02281104371ADDAY101999GF102991001001999999001011MD1710131+9999MW1021
0081295670999991971030512004+55683+090500FM-12+999999999V0202001N00211220001CN0240001N9-02221-02501104411ADDAA199000091AY101999GF101991001001999999001021KA1999M-01501MD1710071+9999MW1021
0057295670999991971030515004+55683+090500FM-12+999999999V0202001N00211220001CN0500001N9-02501-02721104431ADDAY101999GF100991001001999999001001MD1610041+9999MW1021
0057295670999991971030518004+55683+090500FM-12+999999999V0202001N00211220001CN0500001N9-02501-02721104431ADDAY101999GF100991001001999999001001MD1410001+9999MW1021
0057295670999991971030521004+55683+090500FM-12+999999999V0202001N00101220001CN0500001N9-02611-02781104441ADDAY101999GF100991001001999999001001MD1810011+9999MW1021
0106295670999991971030600004+55683+090500FM-12+999999999V0202501N00101220001CN0250001N9-02891-03001104511ADDAA199000091AY101999GF100991001001999999001001HL10009IA1319IA2999-03789KA1999N-03001MD1410001+9999MW1021
0057295670999991971030606004+55683+090500FM-12+999999999V0202301N00311220001CN0290001N9-01781-02281104351ADDAY101999GF102991001001999999001021MD1210021+9999MW1021
0057295670999991971030609004+55683+090500FM-12+999999999V0202301N00101220001CN0130001N9-01781-02221104361ADDAY101999GF102991001001999999001021MD1110011+9999MW1021
0081295670999991971030612004+55683+090500FM-12+999999999V0202301N00101220001CN0400001N9-02221-02501104441ADDAA199000091AY101999GF102991001001999999001021KA1999M-01501MD1410001+9999MW1021
0057295670999991971030615004+55683+090500FM-12+999999999V0202501N00101220001CN0500001N9-02501-02611104551ADDAY101999GF100991001001999999001001MD1110041+9999MW1021
0057295670999991971030618004+55683+090500FM-12+999999999V0209991C00001220001CN0500001N9-02501-02611104521ADDAY101999GF100991001001999999001001MD1810031+9999MW1021
0106295670999991971030700004+55683+090500FM-12+999999999V0202301N00101220001CN0500001N9-02781-02891104591ADDAA199000091AY101999GF101991001001999999001011HL10009IA1319IA2999-03509KA1999N-02891MD1410001+9999MW1021
0057295670999991971030703004+55683+090500FM-12+999999999V0202301N00101220001CN0250001N9-02391-02501104531ADDAY111999GF104991001001999999001011MD1310031+9999MW1021
0057295670999991971030706004+55683+090500FM-12+999999999V0202301N00311220001CN0300001N9-01721-02281104371ADDAY111999GF103991001001999999001011MD1410001+9999MW1021
0081295670999991971030712004+55683+090500FM-12+999999999V0209991C00001220001CN0280001N9-01781-02221104351ADDAA199000091AY101999GF102991001001999999001021KA1999M-01501MD1610021+9999MW1021
0057295670999991971030718004+55683+090500FM-12+999999999V0202001N00101220001CN0500001N9-02221-02501104501ADDAY111999GF108991001001999999001071MD1410001+9999MW1031
0106295670999991971030800004+55683+090500FM-12+999999999V0202001N00101024001CN0500001N9-02221-02501104611ADDAA199000091AY121999GF108991081001999999011999HL10009IA1319IA2999-02789KA1999N-02391MD1210071+9999MW1021
0057295670999991971030803004+55683+090500FM-12+999999999V0202301N00311220001CN0200001N9-02001-02281104661ADDAY111999GF104991031001022501041011MD1210091+9999MW1021
0057295670999991971030806004+55683+090500FM-12+999999999V0202301N00511220001CN0210001N9-01501-01891104611ADDAY111999GF101991001001999999001011MD1110061+9999MW1021
0057295670999991971030809004+55683+090500FM-12+999999999V0202301N00411021001CN0200001N9-01281-01611104651ADDAY111999GF106991061001022501031001MD1210061+9999MW1021
0081295670999991971030812004+55683+090500FM-12+999999999V0202301N00311220001CN0280001N9-01721-01891104781ADDAA199000091AY111999GF102991001001999999001021KA1999M-01221MD1210051+9999MW1021
0070295670999991971030815004+55683+090500FM-12+999999999V0209991C00001220001CN0500001N9-01891-02001104971ADDAY111999GF100991001001999999001001MD1310131+9999EQDQ01    993SCOTCV
0057295670999991971030818004+55683+090500FM-12+999999999V0209991C00001220001CN0500001N9-02001-02111999999ADDAY101999GF100991001001999999001001MD1110071+9999MW1021
0057295670999991971030821004+55683+090500FM-12+999999999V0202301N00211220001CN0500001N9-02001-02111999999ADDAY101999GF100991001001999999001001MD1110061+9999MW1021
0106295670999991971030900004+55683+090500FM-12+999999999V0209991C00001220001CN0500001N9-02391-02501999999ADDAA199000091AY101999GF102991001001999999001021HL10009IA1319IA2999-03119KA1999N-02391MD1310091+9999MW1021
0057295670999991971030906004+55683+090500FM-12+999999999V0209991C00001220001CN0220001N9-01221-01721999999ADDAY101999GF100991001001999999001001MD1110121+9999MW1021
0057295670999991971030909004+55683+090500FM-12+999999999V0202001N00211220001CN0220001N9-01281-01721999999ADDAY101999GF100991001001999999001001MD1810121+9999MW1021
0081295670999991971030912004+55683+090500FM-12+999999999V0202001N00101220001CN0150001N9-01501-01781999999ADDAA199000091AY101999GF102991001001999999001011KA1999M-01111MD1310041+9999MW1021
0057295670999991971030915004+55683+090500FM-12+999999999V0209991C00001220001CN0500001N9-01781-01891999999ADDAY101999GF100991001001999999001001MD1210031+9999MW1021
0057295670999991971030918004+55683+090500FM-12+999999999V0209991C00001220001CN0500001N9-02001-02001999999ADDAY101999GF100991001001999999001001MD1810011+9999MW1021
0057295670999991971030921004+55683+090500FM-12+999999999V0209991C00001220001CN0500001N9-02221-02221999999ADDAY101999GF100991001001999999001001MD1610021+9999MW1021
0057295670999991971031006004+55683+090500FM-12+999999999V0203201N00211220001CN0070001N9-01501-01611999999ADDAY141999GF100991001001999999001001MD1810071+9999MW1101
0057295670999991971031009004+55683+090500FM-12+999999999V0202001N00311220001CN0150001N9-01221-01501999999ADDAY101999GF100991001001999999001001MD1710091+9999MW1021
0081295670999991971031012004+55683+090500FM-12+999999999V0203201N00101220001CN0190001N9-01221-01611104971ADDAA199000091AY101999GF101991001001999999001011KA1999M-00891MD1710101+9999MW1021
0057295670999991971031015004+55683+090500FM-12+999999999V0203201N00101220001CN0500001N9-01501-01721999999ADDAY101999GF100991001001999999001001MD1610011+9999MW1021
0057295670999991971031018004+55683+090500FM-12+999999999V0209991C00001220001CN0500001N9-01611-01781104991ADDAY101999GF100991001001999999001001MD1710061+9999MW1021
0057295670999991971031021004+55683+090500FM-12+999999999V0209991C00001220001CN0500001N9-01781-02001104991ADDAY101999GF100991001001999999001001MD1710051+9999MW1021
0106295670999991971031100004+55683+090500FM-12+999999999V0209991C00001220001CN0500001N9-02281-02391999999ADDAA199000091AY101999GF100991001001999999001001HL10009IA1319IA2999-03289KA1999N-02391MD1410001+9999MW1021
0057295670999991971031103004+55683+090500FM-12+999999999V0209991C00001220001CN0500001N9-01781-01781999999ADDAY101999GF100991001001999999001001MD1310061+9999MW1021
0057295670999991971031106004+55683+090500FM-12+999999999V0209991C00001220001CN0300001N9-01001-01391104801ADDAY101999GF100991001001999999001001MD1810071+9999MW1021
0057295670999991971031109004+55683+090500FM-12+999999999V0203201N00311220001CN0180001N9-01221-01391104821ADDAY101999GF101991001001999999001021MD1610021+9999MW1021
0081295670999991971031112004+55683+090500FM-12+999999999V0203201N00101220001CN0190001N9-01221-01611104741ADDAA199000091AY101999GF101991001001999999001021KA1999M-00781MD1710071+9999MW1021
0057295670999991971031115004+55683+090500FM-12+999999999V0209991C00001220001CN0350001N9-01391-01501104781ADDAY101999GF100991001001999999001001MD1710011+9999MW1021
0057295670999991971031118004+55683+090500FM-12+999999999V0209991C00001220001CN0400001N9-01501-01721104661ADDAY101999GF100991001001999999001001MD1810141+9999MW1021
0057295670999991971031121004+55683+090500FM-12+999999999V0209991C00001220001CN0450001N9-01721-01781104581ADDAY101999GF100991001001999999001001MD1710101+9999MW1021
0106295670999991971031200004+55683+090500FM-12+999999999V0209991C00001220001CN0290001N9-01891-01891104511ADDAA199000091AY101999GF100991001001999999001001HL10009IA1319IA2999-03009KA1999N-02001MD1710111+9999MW1021
0057295670999991971031203004+55683+090500FM-12+999999999V0209991C00001220001CN0250001N9-01501-01611104361ADDAY101999GF100991001001999999001001MD1610061+9999MW1021
0057295670999991971031206004+55683+090500FM-12+999999999V0209991C00001220001CN0300001N9-01111-01501104221ADDAY101999GF100991001001999999001001MD1610061+9999MW1021
0057295670999991971031209004+55683+090500FM-12+999999999V0200201N00101220001CN0300001N9-00721-01391104001ADDAY101999GF100991001001999999001001MD1710141+9999MW1021
0057295670999991971031215004+55683+090500FM-12+999999999V0200701N00101220001CN0500001N9-01001-01611103891ADDAY101999GF100991001001999999001001MD1610051+9999MW1021
0057295670999991971031218004+55683+090500FM-12+999999999V0209991C00001220001CN0500001N9-01221-01721103811ADDAY101999GF100991001001999999001001MD1810171+9999MW1021
0057295670999991971031221004+55683+090500FM-12+999999999V0209991C00001220001CN0500001N9-01391-01781103691ADDAY101999GF100991001001999999001001MD1710101+9999MW1021
0106295670999991971031300004+55683+090500FM-12+999999999V0209991C00001220001CN0230001N9-01501-01611103681ADDAA199000091AY101999GF100991001001999999001001HL10009IA1319IA2999-02789KA1999N-01611MD1610031+9999MW1021
0057295670999991971031303004+55683+090500FM-12+999999999V0209991C00001220001CN0300001N9-01281-01611103711ADDAY101999GF100991001001999999001001MD1310071+9999MW1021
0057295670999991971031306004+55683+090500FM-12+999999999V0200701N00101220001CN0280001N9-00781-01281103531ADDAY101999GF100991001001999999001001MD1810081+9999MW1021
0057295670999991971031309004+55683+090500FM-12+999999999V0200701N00101220001CN0200001N9-00721-01111103441ADDAY101999GF100991001001999999001001MD1710071+9999MW1021
0081295670999991971031312004+55683+090500FM-12+999999999V0200701N00101220001CN0260001N9-00781-01391103481ADDAA199000091AY101999GF100991001001999999001001KA1999M-00391MD1310021+9999MW1021
0057295670999991971031315004+55683+090500FM-12+999999999V0209991C00001220001CN0200001N9-01001-01391103471ADDAY101999GF100991001001999999001001MD1810061+9999MW1021
0057295670999991971031318004+55683+090500FM-12+999999999V0209991C00001220001CN0350001N9-01391-01611103451ADDAY101999GF100991001001999999001001MD1710081+9999MW1021
0043295670999991971031321004+55683+090500FM-12+999999999V0209991C00001220001CN0290001N9-01721-02611103471ADDAY101999GF100991001001999999001001MW1021
0106295670999991971031400004+55683+090500FM-12+999999999V0209991C00001220001CN0120001N9-01721-01721103541ADDAA199000091AY101999GF100991001001999999001001HL10009IA1319IA2999-03009KA1999N-01781MD1310071+9999MW1021
0057295670999991971031403004+55683+090500FM-12+999999999V0209991C00001220001CN0050001N9-01281-01281103671ADDAY101999GF100991001001999999001001MD1210201+9999MW1101
0057295670999991971031406004+55683+090500FM-12+999999999V0200701N00311220001CN0250001N9-01001-01391103631ADDAY101999GF100991001001999999001001MD1110021+9999MW1021
0081295670999991971031412004+55683+090500FM-12+999999999V0209991C00001220001CN0210001N9-00891-01391103511ADDAA199000091AY101999GF100991001001999999001001KA1999M-00391MD1710091+9999MW1021
0057295670999991971031415004+55683+090500FM-12+999999999V0209991C00001220001CN0290001N9-01001-01391103471ADDAY101999GF100991001001999999001001MD1710051+9999MW1021
0057295670999991971031418004+55683+090500FM-12+999999999V0209991C00001220001CN0500001N9-01111-01501103271ADDAY101999GF100991001001999999001001MD1710211+9999MW1021
0106295670999991971031500004+55683+090500FM-12+999999999V0201101N00311220001CN0500001N9-01221-01611103271ADDAA199000091AY101999GF100991001001999999001001HL10009IA1209IA2999-02619KA1999N-01281MD1710221+9999MW1021
0057295670999991971031506004+55683+090500FM-12+999999999V0201101N00511220001CN0500001N9-00391-01221102371ADDAY101999GF103991001001999999001021MD1710141+9999MW1021
0057295670999991971031509004+55683+090500FM-12+999999999V0201401N00411220001CN0500001N9-00111-00891102211ADDAY111999GF106991001001999999001021MD1710091+9999MW1021
0081295670999991971031512004+55683+090500FM-12+999999999V0201601N00311021001CN0500001N9-00281-00891102201ADDAA199000091AY111999GF107991071001022501071001KA1999M-00111MD1610051+9999MW1021
0057295670999991971031515004+55683+090500FM-12+999999999V0202301N00311024001CN0090001N9-00721-00781102331ADDAY121999GF108991081001999999021999MD1310051+9999MW1711
0057295670999991971031518004+55683+090500FM-12+999999999V0202001N00211007801CN0080001N9-00781-00891102431ADDAY171999GF108991081001008001021999MD1210081+9999MW1711
0117295670999991971031600004+55683+090500FM-12+999999999V0202501N00721007801CN0100001N9-00391-00391102781ADDAA106001091AA299000391AY171999GF108991081001008001021999HL10009IA1209IA2999-00899KA1999N-00891MD1210221+9999MW1711
0057295670999991971031603004+55683+090500FM-12+999999999V0202001N00621007801CN0070001N9-00391-00501102941ADDAY171999GF108991081001008001021999MD1210161+9999MW1711
0057295670999991971031606004+55683+090500FM-12+999999999V0202001N00621007801CN0060001N9-00281-00391103071ADDAY171999GF108991081001008001021999MD1110141+9999MW1711
0057295670999991971031609004+55683+090500FM-12+999999999V0201601N00311021001CN0270001N9-00221-00611102961ADDAY171999GF106991061001022501071001MD1810091+9999MW1011
0092295670999991971031612004+55683+090500FM-12+999999999V0201601N00101021001CN0300001N9-00391-00721102931ADDAA106002091AA299000591AY171999GF107991051001022501071021KA1999M-00111MD1610061+9999MW1021
0057295670999991971031615004+55683+090500FM-12+999999999V0209991C00001024001CN0400001N9-00611-00781102791ADDAY121999GF108991081001999999021999MD1710171+9999MW1021
0057295670999991971031618004+55683+090500FM-12+999999999V0209991C00001024001CN0500001N9-00611-00721102491ADDAY121999GF108991081001999999021999MD1710291+9999MW1021
0106295670999991971031700004+55683+090500FM-12+999999999V0209991C00001024001CN0550001N9-00611-00721101951ADDAA199000091AY121999GF108991081001999999021999HL10009IA1209IA2999-01009KA1999N-00721MD1710221+9999MW1021
0057295670999991971031703004+55683+090500FM-12+999999999V0201601N00511024001CN0500001N9-00221-00391101951ADDAY121999GF108991081001999999011999MD1610351+9999MW1021
0057295670999991971031706004+55683+090500FM-12+999999999V0201601N00721220001CN0500001N9+00221-00501101111ADDAY111999GF104991041001022501091001MD1710291+9999MW1011
0057295670999991971031709004+55683+090500FM-12+999999999V0201601N00311021001CN0500001N9+00391-00111100901ADDAY111999GF105991051001022501071001MD1610171+9999MW1021
0081295670999991971031712004+55683+090500FM-12+999999999V0201801N00411007801CN0500001N9+00391-00611100681ADDAA199000091AY111999GF108991081031008001999999KA1999M+00391MD1810121+9999MW1021
0057295670999991971031715004+55683+090500FM-12+999999999V0202501N00721021001CN0500001N9+00611+00111100621ADDAY121999GF108991081001022501071999MD1610021+9999MW1021
0057295670999991971031718004+55683+090500FM-12+999999999V0202701N00871007801CN0300001N9+00281-00111100751ADDAY121999GF108991081051008001999999MD1310071+9999MW1021
0057295670999991971031721004+55683+090500FM-12+999999999V0202501N00821220001CN0500001N9+00111-00221100971ADDAY111999GF102991021051008001001001MD1310191+9999MW1011
0106295670999991971031800004+55683+090500FM-12+999999999V0202301N00511220001CN0500001N9-00221-00501101001ADDAA199000091AY111999GF102991021001022501041001HL10009IA1209IA2999-00509KA1999N-00221MD1810031+9999MW1021
0043295670999991971031803004+55683+090500FM-12+999999999V0202301N00981021001CN0500001N9+00111+00001100681ADDAY111999GF106991061001022501071001MW1031
0057295670999991971031806004+55683+090500FM-12+999999999V0202501N01801021001CN0290001N9-00111-00501100651ADDAY171999GF107991071001022501071001MD1610071+9999MW1221
0057295670999991971031809004+55683+090500FM-12+999999999V0202301N01591007801CN0220001N9-00221-00721100681ADDAY121999GF108991081091008001999999MD1310011+9999MW1021
0092295670999991971031812004+55683+090500FM-12+999999999V0202301N01591007801CN0190001N9-00391-00891100731ADDAA106075091AA224999999AY121999GF108991081091008001999999KA1999M+00111MD1110011+9999MW1021
0057295670999991971031815004+55683+090500FM-12+999999999V0202301N01591021001CN0500001N9-00501-00891100871ADDAY121999GF108991081001022501071999MD1310121+9999MW1021
0057295670999991971031818004+55683+090500FM-12+999999999V0202301N01391021001CN0500001N9-00501-00891101051ADDAY121999GF108991081001022501071999MD1210171+9999MW1021
0057295670999991971031821004+55683+090500FM-12+999999999V0202301N01591007801CN0260001N9-00721-00891101051ADDAY181999GF108991081091008001999999MD1310411+9999MW1021
0136295670999991971031900004+55683+090500FM-12+999999999V0202301N01181021001CN0150001N9-01111-01221102042ADDAA106001091AA299000391AY181999GF108991081001022501071999HL10009IA1209IA2999-01399KA1999N-01111MD1210431+9999MW1361EQDQ01+102043APOSLP
0057295670999991971031903004+55683+090500FM-12+999999999V0202301N01391024001CN0060001N9-00781-01111102021ADDAY131999GF108991081001999999011999MD1110031+9999MW1381
0057295670999991971031906004+55683+090500FM-12+999999999V0202501N01591030001CN0070001N9-00721-01001102101ADDAY181999GF108991031091008001011999MD1110091+9999MW1331
0057295670999991971031909004+55683+090500FM-12+999999999V0202501N00981007801CN0120001N9-00721-01001102181ADDAY181999GF108991081091008001999999MD1110081+9999MW1851
0092295670999991971031912004+55683+090500FM-12+999999999V0202501N00981004501CN0150001N9-00611-01001102271ADDAA106001091AA299000391AY181999GF108991081091004501999999KA1999M-00611MD1310101+9999MW1851
0057295670999991971031915004+55683+090500FM-12+999999999V0202501N00981220001CN0280001N9-00781-01391102441ADDAY181999GF103991031091008001001001MD1210131+9999MW1361
0057295670999991971031918004+55683+090500FM-12+999999999V0202301N00821220001CN0500001N9-00891-01391102511ADDAY181999GF100991001001999999001001MD1110051+9999MW1021
0057295670999991971031921004+55683+090500FM-12+999999999V0202501N00871007801CN0090001N9-00781-01221102541ADDAY181999GF108991081091008001999999MD1110051+9999MW1851
0117295670999991971032000004+55683+090500FM-12+999999999V0202501N00511024001CN0180001N9-01221-01221102681ADDAA106001091AA299000391AY181999GF108991081001999999011999HL10009IA1209IA2999-01399KA1999N-01221MD1310061+9999MW1261
0057295670999991971032003004+55683+090500FM-12+999999999V0202301N00511024001CN0130001N9-00781-00891102721ADDAY171999GF108991081001999999011999MD1210111+9999MW1711
0057295670999991971032006004+55683+090500FM-12+999999999V0202301N00411007801CN0170001N9-00501-00721102741ADDAY181999GF107991071091008001001001MD1110071+9999MW1851
0076295670999991971032009004+55683+090500FM-12+999999999V0202501N00821007801CN0050001N9-00391-01001102691ADDAY181999GF107991071021008001001041MD1810051+9999MW1861EQDQ01+000682APC3  
0092295670999991971032012004+55683+090500FM-12+999999999V0202501N00511007801CN0120001N9-00391-00391102711ADDAA106001091AA299000391AY181999GF108991081091008001999999KA1999M-00391MD1310021+9999MW1851
0057295670999991971032015004+55683+090500FM-12+999999999V0202301N00101220001CN0290001N9-00891-00891102771ADDAY171999GF100991001001999999001001MD1810031+9999MW1011
0057295670999991971032018004+55683+090500FM-12+999999999V0202301N00311024001CN0250001N9-00891-00891102651ADDAY171999GF108991081001999999011999MD1810111+9999MW1021
0057295670999991971032021004+55683+090500FM-12+999999999V0202301N00211220001CN0500001N9-01001-01001102661ADDAY121999GF100991001001999999001001MD1710021+9999MW1021
0117295670999991971032100004+55683+090500FM-12+999999999V0202001N00511021001CN0300001N9-00781-01111102311ADDAA106075091AA224999999AY111999GF108991081001022501071999HL10009IA1209IA2999-01509KA1999N-01001MD1710191+9999MW1021
0057295670999991971032106004+55683+090500FM-12+999999999V0202001N00871024001CN0500001N9-00221-00781101721ADDAY121999GF108991081001999999021999MD1710251+9999MW1021
0081295670999991971032112004+55683+090500FM-12+999999999V0202001N00721021001CN0350001N9-00221-00721101071ADDAA199000091AY121999GF108991081001022501071999KA1999M-00111MD1710311+9999MW1021
0057295670999991971032115004+55683+090500FM-12+999999999V0202301N00511024001CN0500001N9-00221-00721100991ADDAY121999GF108991081001999999021999MD1610071+9999MW1021
0057295670999991971032118004+55683+090500FM-12+999999999V0202301N00981024001CN0040001N9-00281-00611101131ADDAY171999GF108991081001999999021999MD1310081+9999MW1711
0057295670999991971032121004+55683+090500FM-12+999999999V0202301N00871024001CN0040001N9-00391-00781101231ADDAY171999GF108991081001999999021999MD1310081+9999MW1711
0117295670999991971032200004+55683+090500FM-12+999999999V0202301N00621021001CN0500001N9-00721-00891101541ADDAA106001091AA299000391AY171999GF108991081001022501071999HL10009IA1209IA2999-01399KA1999N-00721MD1210101+9999MW1021
0076295670999991971032206004+55683+090500FM-12+999999999V0202001N00821220001CN0280001N9-00111-00781101351ADDAY111999GF103991001001999999001021MD1810722+9999MW1021EQDQ01+000722APC3  
0057295670999991971032209004+55683+090500FM-12+999999999V0202301N008219999999N0450001N9+00221-00721101081ADDAY111999GF107991041001022501081021MD1710211+9999MW1021
0081295670999991971032212004+55683+090500FM-12+999999999V0202001N006219999999N0500001N9+00001-00501100961ADDAA199000091AY111999GF106991021001022501041011KA1999M+00281MD1710141+9999MW1021
0057295670999991971032215004+55683+090500FM-12+999999999V0202001N00871220001CN0500001N9-00221-00781101011ADDAY111999GF100991001001999999001001MD1310011+9999MW1021
0057295670999991971032218004+55683+090500FM-12+999999999V0202001N00511220001CN0500001N9-00281-00611100991ADDAY111999GF100991001001999999001001MD1810041+9999MW1021
0125295670999991971032300004+55683+090500FM-12+999999999V0202501N00311021001CN0300001N9-00721-01001100941ADDAA199000091AY111999GF108991061001022501071021HL10009IA1199IA2999-01289KA1999N-00721MD1810722+9999MW1031EQDQ01+000722APC3  
0057295670999991971032303004+55683+090500FM-12+999999999V0202501N00211024001CN0250001N9-00281-00391100811ADDAY121999GF108991081001999999011999MD1610041+9999MW1021
0057295670999991971032306004+55683+090500FM-12+999999999V0202501N00211024001CN0240001N9-00111-00111100641ADDAY121999GF108991081001999999011999MD1810131+9999MW1021
0057295670999991971032309004+55683+090500FM-12+999999999V0202501N00211024001CN0300001N9+00001-00221100711ADDAY121999GF108991081001999999011999MD1310091+9999MW1021
0081295670999991971032312004+55683+090500FM-12+999999999V0202501N00411007801CN0500001N9+00001-00111100891ADDAA199000091AY121999GF108991081091008001999999KA1999M+00001MD1210171+9999MW1021
0057295670999991971032315004+55683+090500FM-12+999999999V0202301N00411007801CN0500001N9-00221-00391101301ADDAY121999GF105991051051008001001001MD1210351+9999MW1021
0057295670999991971032318004+55683+090500FM-12+999999999V0202401N00871007801CN0130001N9-00281-00281101491ADDAY171999GF108991081051008001999999MD1210161+9999MW1711
