0057375490999991971010100004+41683+044950FM-12+049099999V0203201N00821220001CN0160001N9+00611+00001102611ADDAY101061GF100991001001999999001001MD1310031+9999MW1021
0057375490999991971010103004+41683+044950FM-12+049099999V0203201N00511036001CN0160001N9+00611+00001102531ADDAY111031GF106991021051017501031001MD1810011+9999MW1011
0123375490999991971010106004+41683+044950FM-12+049099999V0203201N00511036001CN0160001N9+00501-00111102851ADDAA199000091AJ100009199999999AY121061GF108991021051017501021999IA1009KA1999N+99999MD1310211+9999MW1021EQDQ01 +00612ATMN  
0057375490999991971010109004+41683+044950FM-12+049099999V0203201N00511015001CN0160001N9+00891+00221102711ADDAY121031GF108991051031017501021999MD1810051+9999MW1021
0057375490999991971010112004+41683+044950FM-12+049099999V0202901N00411090001CN0160001N9+01001+00221102491ADDAY121061GF106991021051017501041031MD1710191+9999MW1011
0057375490999991971010115004+41683+044950FM-12+049099999V0203201N00411220001CN0130001N9+00611+00281102531ADDAY121031GF106991021001999999031041MD1710041+9999MW1021
0081375490999991971010118004+41683+044950FM-12+049099999V0203201N00511220001CN0130001N9+00501+00001102481ADDAA199000091AY111061GF100991001001999999001001KA1999M+01001MD1710071+9999MW1011
0057375490999991971010121004+41683+044950FM-12+049099999V0203201N00621220001CN0160001N9+00501+00501102421ADDAY101031GF100991001001999999001001MD1710061+9999MW1021
0057375490999991971010200004+41683+044950FM-12+049099999V0203201N01181220001CN0160001N9+00391+00001102441ADDAY101061GF100991001001999999001001MD1510001+9999MW1021
0057375490999991971010203004+41683+044950FM-12+049099999V0203201N01181220001CN0160001N9+00391+00001102401ADDAY101031GF100991001001999999001001MD1810041+9999MW1021
0104375490999991971010206004+41683+044950FM-12+049099999V0203201N01181220001CN0160001N9+00781+00001102561ADDAA199000091AJ100009199999999AY101061GF100991001001999999001001IA1009KA1999N+00391MD1310241+9999MW1021
0057375490999991971010209004+41683+044950FM-12+049099999V0202901N00211024001CN0160001N9+01391+00281102501ADDAY101031GF107991071001999999071011MD1210051+9999MW1021
0057375490999991971010212004+41683+044950FM-12+049099999V0203201N00721012301CN0160001N9+01721-00221102401ADDAY121061GF107991071051012501071011MD1010031+9999MW1021
0057375490999991971010215004+41683+044950FM-12+049099999V0200201N00311220001CN0060001N9+01111-00221102691ADDAY111031GF103991011051017501031001MD1310161+9999MW1011
0081375490999991971010218004+41683+044950FM-12+049099999V0203201N00411220001CN0160001N9+00781+00001102961ADDAA199000091AY101061GF103991031001999999031011KA1999M+01721MD1210201+9999MW1021
0057375490999991971010221004+41683+044950FM-12+049099999V0203201N00101220001CN0160001N9+00611+00111103271ADDAY101031GF104991041001999999031011MD1210251+9999MW1021
0057375490999991971010300004+41683+044950FM-12+049099999V0203201N00311220001CN0160001N9+00501+00111103401ADDAY101061GF100991001001999999001001MD1210081+9999MW1011
0057375490999991971010303004+41683+044950FM-12+049099999V0209991C00001220001CN0160001N9+00111+00001103381ADDAY101031GF100991001001999999001001MD1810081+9999MW1021
0104375490999991971010306004+41683+044950FM-12+049099999V0209991C00001220001CN0130001N9+00501+00111103301ADDAA199000091AJ100009199999999AY101061GF104991031001999999031011IA1009KA1999N+00111MD1710041+9999MW1021
0057375490999991971010309004+41683+044950FM-12+049099999V0202701N00101024001CN0040001N9+01221+00001102881ADDAY111031GF107991051001999999031041MD1710211+9999MW1011
0057375490999991971010312004+41683+044950FM-12+049099999V0202901N00211220001CN0080001N9+01391+00001102601ADDAY121061GF106991031001999999031011MD1710211+9999MW1011
0057375490999991971010315004+41683+044950FM-12+049099999V0203201N00101220001CN0100001N9+00721-01001102761ADDAY121031GF106991041001999999041011MD1710091+9999MW1031
0081375490999991971010318004+41683+044950FM-12+049099999V0200501N00211024001CN0160001N9+00281-00111102811ADDAA199000091AY121061GF106991061001999999031001KA1999M+01501MD1310051+9999MW1031
0057375490999991971010321004+41683+044950FM-12+049099999V0201101N00101015001CN0160001N9+00221-00111102861ADDAY121031GF106991061051017501031001MD1110031+9999MW1021
0057375490999991971010400004+41683+044950FM-12+049099999V0209991C00001220001CN0160001N9+00221-00111102961ADDAY121061GF102991021051017501031001MD1210111+9999MW1011
0057375490999991971010403004+41683+044950FM-12+049099999V0200501N00101220001CN0160001N9+00111-00221102881ADDAY101031GF102991021001999999031001MD1810111+9999MW1021
0104375490999991971010406004+41683+044950FM-12+049099999V0202901N00511220001CN0100001N9+00611-00111102881ADDAA199000091AJ100009199999999AY111061GF104991021051017501071001IA1009KA1999N+00111MD1310111+9999MW1011
0057375490999991971010409004+41683+044950FM-12+049099999V0202901N00721036001CN0080001N9+01001+00111102541ADDAY121031GF106991021051017501071001MD1810241+9999MW1011
0057375490999991971010412004+41683+044950FM-12+049099999V0203201N00981036001CN0100001N9+01501-00111102281ADDAY121061GF106991021051017501031001MD1710171+9999MW1011
0057375490999991971010415004+41683+044950FM-12+049099999V0202501N00621220001CN0100001N9+01001-00281102451ADDAY111031GF104991041001999999031001MD1310081+9999MW1011
0081375490999991971010418004+41683+044950FM-12+049099999V0203601N00311024001CN0110001N9+00891-00501102541ADDAA199000091AY111061GF105991051001999999031001KA1999M+01611MD1210041+9999MW1031
0057375490999991971010421004+41683+044950FM-12+049099999V0203201N00511220001CN0100001N9+00781-00391102541ADDAY111031GF104991041001999999031001MD1810011+9999MW1011
0057375490999991971010500004+41683+044950FM-12+049099999V0203201N00981220001CN0130001N9+00611-00281102611ADDAY111061GF102991021001999999031001MD1310031+9999MW1011
0057375490999991971010503004+41683+044950FM-12+049099999V0203201N00821220001CN0160001N9+00611-00391102581ADDAY101031GF102991021001999999031001MD1810031+9999MW1031
0104375490999991971010506004+41683+044950FM-12+049099999V0203201N01181220001CN0100001N9+00781-00391102731ADDAA199000091AJ100009199999999AY111061GF105991031001999999031011IA1009KA1999N+00501MD1310091+9999MW1011
0057375490999991971010509004+41683+044950FM-12+049099999V0203201N01181024001CN0100001N9+01391-00501102501ADDAY121031GF107991061001999999031011MD1810111+9999MW1021
0057375490999991971010512004+41683+044950FM-12+049099999V0203201N00981220001CN0130001N9+01721-00111102361ADDAY121061GF105991001001999999001051MD1710071+9999MW1021
0057375490999991971010515004+41683+044950FM-12+049099999V0203201N00721090001CN0160001N9+01221+00001102551ADDAY121031GF106991031001999999031051MD1310081+9999MW1021
0081375490999991971010518004+41683+044950FM-12+049099999V0202901N00621220001CN0160001N9+00891-00221102881ADDAA199000091AY111061GF102991021001999999031001KA1999M+01721MD1810161+9999MW1021
0057375490999991971010521004+41683+044950FM-12+049099999V0200901N00411220001CN0160001N9+00611-00221103211ADDAY111031GF101991011001999999031001MD1210311+9999MW1011
0057375490999991971010600004+41683+044950FM-12+049099999V0202301N00101036001CN0130001N9+00281+00111103461ADDAY111061GF105991021051017501031001MD1210201+9999MW1031
0120375490999991971010603004+41683+044950FM-12+049099999V0200701N00101007501CN0080001N9+00391+00281103431ADDAA199000091AJ100009199999999AY121031GA1061+007509059GF108991061051008001021999IA1009KA1999N+00281MD1810011+9999MW1101
0081375490999991971010606004+41683+044950FM-12+049099999V0209991C00001007801CN0020001N9+00611+00391103431ADDAA199000091AY121061GF108991081051008001999999KA1999N+00281MD1310051+9999MW1101
0073375490999991971010609004+41683+044950FM-12+049099999V0202001N00101006901CN0040001N9+00781+00391103151ADDAY121031GA1051+006909059GF108991051051008001071999MD1810231+9999MW1101
0043375490999991971010615004+41683+044950FM-12+049099999V0200201N00211220001CN0050001N9+00281+00111102781ADDAY111031GF104991031001999999071011MW1101
0081375490999991971010618004+41683+044950FM-12+049099999V0209991C00001220001CN0040001N9+00001-00221102801ADDAA199000091AY121061GF106991031001999999031011KA1999M+01001MD1710041+9999MW1101
0057375490999991971010621004+41683+044950FM-12+049099999V0209991C00001220001CN0100001N9-00111-00221102741ADDAY121031GF106991041001999999031011MD1710081+9999MW1101
0057375490999991971010700004+41683+044950FM-12+049099999V0209991C00001220001CN0100001N9-00111-00221102631ADDAY111061GF105991021001999999031011MD1710121+9999MW1101
0057375490999991971010703004+41683+044950FM-12+049099999V0203201N00311220001CN0050001N9+00111+00001102321ADDAY111031GF104991001001999999001041MD1710151+9999MW1101
0104375490999991971010706004+41683+044950FM-12+049099999V0203201N00621220001CN0050001N9+00501+00001102391ADDAA199000091AJ100009199999999AY111061GF106991031001999999031041IA1009KA1999N-00111MD1310051+9999MW1101
0057375490999991971010709004+41683+044950FM-12+049099999V0203201N01181024001CN0100001N9+01221-00501102071ADDAY121031GF107991071001999999031041MD1810151+9999MW1031
0057375490999991971010712004+41683+044950FM-12+049099999V0203201N02011220001CN0100001N9+01721-00721101781ADDAY121061GF106991041001999999031011MD1710191+9999MW1011
0057375490999991971010715004+41683+044950FM-12+049099999V0203201N01591036001CN0130001N9+01281-00781101971ADDAY121031GF107991021051017501031001MD1310111+9999MW1021
0081375490999991971010718004+41683+044950FM-12+049099999V0203201N02011036001CN0170001N9+01001-00221102311ADDAA199000091AY121061GF107991031051017501071001KA1999M+01781MD1210251+9999MW1021
0057375490999991971010721004+41683+044950FM-12+049099999V0203201N02011036001CN0160001N9+00891+00111102551ADDAY121031GF105991031051017501071001MD1210251+9999MW1011
0057375490999991971010800004+41683+044950FM-12+049099999V0200501N00621220001CN0130001N9+00721+00001103141ADDAY111061GF104991021051012501031001MD1210521+9999MW1021
0057375490999991971010803004+41683+044950FM-12+049099999V0201401N00211012301CN0080001N9+00501+00281103481ADDAY121031GF108991051051012501021999MD1210281+9999MW1101
0123375490999991971010806004+41683+044950FM-12+049099999V0201401N00211000151CN0007001N9+00391+00391103811ADDAA199000091AJ100009199999999AY141061GF109991091999000251999999IA1009KA1999N+99999MD1210281+9999MW1431EQDQ01 +00502ATMN  
0073375490999991971010809004+41683+044950FM-12+049099999V0201101N00411003901CN0050001N9+00391+00221103941ADDAY141031GA1081+003909079GF108991999071004501021999MD1210131+9999MW1101
0073375490999991971010812004+41683+044950FM-12+049099999V0201401N00621004801CN0035001N9+00281+00001103981ADDAY141061GA1081+004809079GF108991999071004501021999MD1210011+9999MW1611
0057375490999991971010815004+41683+044950FM-12+049099999V0201101N00311004501CN0050001N9+00111+00001104231ADDAY161031GF108991999071004501021999MD1210201+9999MW1611
0108375490999991971010818004+41683+044950FM-12+049099999V0201101N00211004501CN0040001N9+00111+00001104391ADDAA106008091AA299002091AY151061GA1081+999999999GF108991999071004501021999KA1999M+00501MD1210151+9999MW1611
0057375490999991971010821004+41683+044950FM-12+049099999V0201801N00101004501CN0050001N9+00001-00111104491ADDAY141031GF108991999071004501021999MD1210071+9999MW1611
0057375490999991971010900004+41683+044950FM-12+049099999V0201401N00211004501CN0050001N9+00001-00221104271ADDAY161061GF108991999071004501021999MD1810111+9999MW1101
0057375490999991971010903004+41683+044950FM-12+049099999V0209991C00001004501CN0080001N9+00001-00281104141ADDAY121031GF108991999071004501021999MD1710211+9999MW1101
0131375490999991971010906004+41683+044950FM-12+049099999V0201401N00211003001CN0035001N9+00001-00221104021ADDAA106008091AA299002091AJ100009199999999AY121061GA1081+003009079GF108991999071004501021999IA1109KA1999N-00111MD1710141+9999MW1101
0073375490999991971010909004+41683+044950FM-12+049099999V0201101N00101001501CN0015001N9+00001-00111103761ADDAY121031GA1081+001509079GF108991999071001501021999MD1710251+9999MW1101
0073375490999991971010912004+41683+044950FM-12+049099999V0201601N00101002401CN0025001N9+00111-00221103441ADDAY121061GA1081+002409059GF108991081051002501999999MD1710291+9999MW1101
0073375490999991971010915004+41683+044950FM-12+049099999V0209991C00001005401CN0050001N9+00001-00391103281ADDAY121031GA1081+005409059GF108991081051004501999999MD1710161+9999MW1101
0097375490999991971010918004+41683+044950FM-12+049099999V0200501N00101005701CN0050001N9+00001-00501103241ADDAA199000091AY121061GA1081+005709059GF108991081051004501999999KA1999M+00111MD1710041+9999MW1101
0057375490999991971010921004+41683+044950FM-12+049099999V0200201N00101004501CN0050001N9+00001-00391103131ADDAY121031GF108991081051004501999999MD1710091+9999MW1101
0111375490999991971011000004+41683+044950FM-12+049099999V0209991C000019999999N0050001N9+00001-00391102961ADDAA106106091AA299027091AY121061GF108991021051004501999999KA1999N+99999MD1710111+9999MW1101EQDQ01 +01392ATMN  
0057375490999991971011003004+41683+044950FM-12+049099999V0209991C00001004501CN0050001N9-00111-00391102831ADDAY121031GF108991081051004501999999MD1710211+9999MW1101
0104375490999991971011006004+41683+044950FM-12+049099999V0202701N00211036001CN0040001N9-00111-00281102711ADDAA199000091AJ100009199999999AY121061GF107991041051012501071001IA1089KA1999N-00111MD1710111+9999MW1101
0057375490999991971011009004+41683+044950FM-12+049099999V0202901N00721015001CN0040001N9+00391-00391102421ADDAY121031GF107991061051017501071001MD1710171+9999MW1101
0057375490999991971011012004+41683+044950FM-12+049099999V0201401N00411036001CN0050001N9+00611-00281102311ADDAY121061GF106991031051017501071011MD1710071+9999MW1101
0057375490999991971011015004+41683+044950FM-12+049099999V0200901N00211036001CN0050001N9+00221-00111102691ADDAY121031GF106991021051017501071001MD1310281+9999MW1101
0081375490999991971011018004+41683+044950FM-12+049099999V0200901N00211024001CN0050001N9+00111-00111103061ADDAA199000091AY121061GF107991071001999999011001KA1999M+00721MD1310331+9999MW1101
0057375490999991971011021004+41683+044950FM-12+049099999V0209991C00001015001CN0050001N9+00111-00221103151ADDAY121031GF108991051061017501031001MD1210091+9999MW1101
0073375490999991971011100004+41683+044950FM-12+049099999V0209991C00001005701CN0100001N9+00001-00221103291ADDAY121061GA1061+005709049GF108991061051004501021999MD1210111+9999MW1101
0114375490999991971011103004+41683+044950FM-12+049099999V0209991C00001005701CN0050001N9+00001-00221103241ADDAA199000091AJ100009199999999AY121031GA1061+005709049GF108991061051008001021999KA1999N+00001MD1810051+9999MW1101
0120375490999991971011106004+41683+044950FM-12+049099999V0209991C00001006601CN0050001N9+00111-00111103281ADDAA199000091AJ100009199999999AY121061GA1081+006609059GF108991081051008001999999IA1089KA1999N+00001MD1310071+9999MW1101
0073375490999991971011109004+41683+044950FM-12+049099999V0209991C00001006901CN0050001N9+00221-00221103161ADDAY121031GA1081+006909059GF108991081051008001999999MD1810091+9999MW1161
0057375490999991971011112004+41683+044950FM-12+049099999V0209991C00001007801CN0040001N9+00221+00221102991ADDAY121061GF108991999051008001021999MD1510121+9999MW1101
0057375490999991971011115004+41683+044950FM-12+049099999V0209991C00001002401CN0030001N9+00221-00111102831ADDAY121031GF108991081051002501999999MD1710151+9999MW1101
0097375490999991971011118004+41683+044950FM-12+049099999V0209991C00001003901CN0030001N9+00111-00111102731ADDAA199000091AY121061GA1081+003909059GF108991081051004501999999KA1999M+00281MD1710111+9999MW1101
0057375490999991971011121004+41683+044950FM-12+049099999V0203401N00211012301CN0100001N9+00111-00111102611ADDAY121031GF107991061051012501071001MD1710121+9999MW1101
0057375490999991971011200004+41683+044950FM-12+049099999V0203201N00211015001CN0100001N9+00221-00111102421ADDAY101061GF107991061061017501071001MD1710161+9999MW1021
0081375490999991971011203004+41683+044950FM-12+049099999V0203201N00211220001CN0160001N9+00111-00391102201ADDAA199000091AY121031GF102991021001999999031001KA1999N-00111MD1710131+9999MW1021
0093375490999991971011206004+41683+044950FM-12+049099999V0203201N00981220001CN0130001N9+00111-00501102111ADDAJ100009199999999AY111061GF100991001001999999001001IA1089KA1999N+00111MD1710041+9999MW1021
0057375490999991971011209004+41683+044950FM-12+049099999V0203201N01591220001CN0100001N9+00721-00281101511ADDAY101031GF100991001001999999001001MD1710361+9999MW1021
0057375490999991971011212004+41683+044950FM-12+049099999V0203201N02011220001CN0100001N9+01111-00221101451ADDAY101061GF100991001001999999001001MD1710201+9999MW1021
0081375490999991971011218004+41683+044950FM-12+049099999V0203201N02011220001CN0160001N9+00781+00001101501ADDAA199000091AY101061GF100991001001999999001001KA1999M+01221MD1810011+9999MW1011
0057375490999991971011221004+41683+044950FM-12+049099999V0203201N01801220001CN0160001N9+00611-00111101481ADDAY101031GF100991001001999999001001MD1710051+9999MW1021
0057375490999991971011300004+41683+044950FM-12+049099999V0203201N02011024001CN0160001N9+00721+00111101561ADDAY111061GF106991061001999999031001MD1210011+9999MW1031
0057375490999991971011303004+41683+044950FM-12+049099999V0203501N02211036001CN0160001N9+00721+00001101271ADDAY121031GF108991021051017501021999MD1810241+9999MW1021
0104375490999991971011306004+41683+044950FM-12+049099999V0203201N02011036001CN0160001N9+00781+00001101271ADDAA199000091AJ100009199999999AY121061GF106991031051017501051001IA1009KA1999N+00611MD1310041+9999MW1011
0057375490999991971011309004+41683+044950FM-12+049099999V0203201N02211036001CN0160001N9+01001+00001101021ADDAY121031GF107991031051017501011001MD1810171+9999MW1031
0057375490999991971011312004+41683+044950FM-12+049099999V0203201N02211036001CN0160001N9+00891+00111100941ADDAY121061GF107991031051017501011001MD1710111+9999MW1011
0057375490999991971011315004+41683+044950FM-12+049099999V0203201N02211036001CN0160001N9+00721+00001100981ADDAY121031GF106991021051017501041001MD1410001+9999MW1021
0081375490999991971011318004+41683+044950FM-12+049099999V0203201N02521036001CN0160001N9+00611-00111101051ADDAA199000091AY111061GF105991021051017501031001KA1999M+01111MD1310051+9999MW1031
0057375490999991971011321004+41683+044950FM-12+049099999V0203201N02311036001CN0160001N9+00501-00111101071ADDAY121031GF107991021051017501071001MD1010001+9999MW1021
0057375490999991971011400004+41683+044950FM-12+049099999V0203201N02011036001CN0160001N9+00501-00111101071ADDAY121061GF108991031051017501021999MD1410001+9999MW1021
0057375490999991971011403004+41683+044950FM-12+049099999V0203201N02011036001CN0100001N9+00501-00111101021ADDAY121031GF107991041051017501071999MD1810051+9999MW1021
0123375490999991971011406004+41683+044950FM-12+049099999V0203201N01701012301CN0100001N9+00281-00781101621ADDAA199000091AJ100009199999999AY121061GF107991061051012501021001IA1009KA1999N+99999MD1310531+9999MW1021EQDQ01 +00392ATMN  
0057375490999991971011409004+41683+044950FM-12+049099999V0203201N01391036001CN0160001N9+00501-00891101951ADDAY111031GF107991031051017501031001MD1210371+9999MW1031
0057375490999991971011412004+41683+044950FM-12+049099999V0201401N00721004501CN0030001N9-00111-00501102541ADDAY171061GF108991061031004501021999MD1210411+9999MW1701
0057375490999991971011415004+41683+044950FM-12+049099999V0200901N00411004501CN0040001N9-00281-00501103021ADDAY171031GF108991999071004501021999MD1210411+9999MW1711
0092375490999991971011418004+41683+044950FM-12+049099999V0201401N00511015001CN0130001N9-00391-00721103261ADDAA106051091AA299013091AY171061GF108991061051017501021999KA1999M+00501MD1210201+9999MW1021
0057375490999991971011421004+41683+044950FM-12+049099999V0201401N00411012301CN0130001N9-00501-00721103271ADDAY171031GF108991061051012501021999MD1210201+9999MW1021
0076375490999991971011500004+41683+044950FM-12+049099999V0201401N00621015001CN0130001N9-00501-00891103962ADDAY121061GF107991051051017501031001MD1210231+9999MW1021EQDQ01+103963APOSLP
0057375490999991971011503004+41683+044950FM-12+049099999V0209991C00001036001CN0160001N9-00721-01001103831ADDAY121031GF106991031051017501031001MD1810161+9999MW1011
0070375490999991971011506004+41683+044950FM-12+049099999V0201601N00101036001CN0100001N9-00721-01221103881ADDAY121061GF107991031051000751071001KA1999N-00781MD1710041+9999MW1001
0057375490999991971011509004+41683+044950FM-12+049099999V0202001N00211220001CN0130001N9-00391-01281103521ADDAY111031GF102991021001999999031001MD1710191+9999MW1021
0081375490999991971011512004+41683+044950FM-12+049099999V0209991C00001220001CN0080001N9-00781-01111103131ADDAA199000091AY111061GF102991011051017501041001KA1999M-00391MD1710151+9999MW1101
0057375490999991971011515004+41683+044950FM-12+049099999V0200901N00101220001CN0080001N9+99999+99999103251ADDAY111031GF100991001001999999001001MD1710121+9999MW1101
0081375490999991971011518004+41683+044950FM-12+049099999V0209991C00001220001CN0080001N9-00781-01111103131ADDAA199000091AY111061GF102991011051017501041001KA1999M-00391MD1710151+9999MW1101
0062375490999991971011521004+41683+044950FM-12+049099999V0209991C00001220001CN0080001N9-01001-01001103221ADDAY111031GF100991001001999999001001MW1101EQDQ01    993SCOTCV
0068375490999991971011600004+41683+044950FM-12+049099999V0209991C00001220001CN0080001N9-01001-01221103131ADDAA199000091AY101061GF100991001001999999001001MD1710091+9999MW1101
0104375490999991971011603004+41683+044950FM-12+049099999V0209991C00001220001CN0180001N9-01001-01281103011ADDAA199000091AJ100009199999999AY101031GF101991011001999999031001IA1139KA1999N-01001MD1510151+9999MW1101
0104375490999991971011606004+41683+044950FM-12+049099999V0203201N00101220001CN0050001N9-00781-01221103051ADDAA199000091AJ100009199999999AY101061GF100991001001999999001001IA1139KA1999N-01001MD1310081+9999MW1101
0057375490999991971011612004+41683+044950FM-12+049099999V0201601N00211220001CN0100001N9+00111-01281102941ADDAY101061GF102991021001999999031001MD1710021+9999MW1021
0057375490999991971011615004+41683+044950FM-12+049099999V0200501N00211220001CN0050001N9-00501-01001102821ADDAY101031GF100991001001999999001001MD1310111+9999MW1101
0081375490999991971011618004+41683+044950FM-12+049099999V0203601N00101220001CN0080001N9-00611-01001102811ADDAA199000091AY101061GF100991001001999999001001KA1999M+00221MD1810011+9999MW1101
0057375490999991971011621004+41683+044950FM-12+049099999V0203201N00101220001CN0050001N9-00781-01221102841ADDAY101031GF100991001001999999001001MD1710011+9999MW1101
0057375490999991971011700004+41683+044950FM-12+049099999V0209991C00001220001CN0050001N9-00781-01111102791ADDAY101061GF100991001001999999001001MD1710051+9999MW1101
0104375490999991971011703004+41683+044950FM-12+049099999V0209991C00001220001CN0050001N9-00891-01221102741ADDAA199000091AJ100009199999999AY101031GF100991001001999999001001IA1139KA1999N-00891MD1710071+9999MW1101
0104375490999991971011706004+41683+044950FM-12+049099999V0203201N00211220001CN0100001N9-00501-01001102701ADDAA199000091AJ100009199999999AY101061GF100991001001999999001001IA1139KA1999N-00891MD1310041+9999MW1021
0057375490999991971011709004+41683+044950FM-12+049099999V0203201N00311220001CN0100001N9+00221-00781102381ADDAY101031GF100991001001999999001001MD1810151+9999MW1021
0057375490999991971011712004+41683+044950FM-12+049099999V0202001N00211220001CN0100001N9+00391-00721102241ADDAY101061GF100991001001999999001001MD1710081+9999MW1021
0081375490999991971011718004+41683+044950FM-12+049099999V0200501N00211220001CN0100001N9-00111-01001102631ADDAA199000091AY101061GF100991001001999999001001KA1999M+00501MD1210121+9999MW1021
0057375490999991971011721004+41683+044950FM-12+049099999V0209991C00001220001CN0100001N9-00501-00781102991ADDAY101031GF100991001001999999001001MD1210081+9999MW1101
0057375490999991971011800004+41683+044950FM-12+049099999V0203401N00101220001CN0100001N9-00721-01001102641ADDAY101061GF100991001001999999001001MD1310031+9999MW1021
0057375490999991971011803004+41683+044950FM-12+049099999V0202901N00211220001CN0100001N9-00611-01001102671ADDAY101031GF100991001001999999001001MD1810041+9999MW1021
0104375490999991971011806004+41683+044950FM-12+049099999V0202901N00311220001CN0050001N9-00721-00891102541ADDAA199000091AJ100009199999999AY101061GF100991001001999999001001IA1139KA1999N-00721MD1310151+9999MW1101
0068375490999991971011812004+41683+044950FM-12+049099999V0201801N00211220001CN0080001N9+00501-01001102381ADDAA199000091AY101061GF100991001001999999001001MD1710111+9999MW1101
0057375490999991971011815004+41683+044950FM-12+049099999V0200901N00311220001CN0080001N9+00001-00781102631ADDAY101031GF100991001001999999001001MD1310131+9999MW1101
0081375490999991971011818004+41683+044950FM-12+049099999V0200201N00211220001CN0050001N9-00391-00781102881ADDAA199000091AY101061GF100991001001999999001001KA1999M+00611MD1210151+9999MW1101
0057375490999991971011821004+41683+044950FM-12+049099999V0209991C00001220001CN0100001N9-00501-00781102991ADDAY101031GF100991001001999999001001MD1210081+9999MW1101
0057375490999991971011900004+41683+044950FM-12+049099999V0202701N00101220001CN0050001N9-00611-00781103011ADDAY101061GF100991001001999999001001MD1410001+9999MW1101
0104375490999991971011903004+41683+044950FM-12+049099999V0209991C00001220001CN0050001N9-00781-00891102981ADDAA199000091AJ100009199999999AY101031GF100991001001999999001001IA1139KA1999N-00781MD1810071+9999MW1101
0104375490999991971011906004+41683+044950FM-12+049099999V0203201N00411024001CN0030001N9-00281-00721102941ADDAA199000091AJ100009199999999AY111061GF106991051001999999031011IA1139KA1999N-00781MD1310071+9999MW1101
0057375490999991971011912004+41683+044950FM-12+049099999V0201601N00101220001CN0050001N9+00501-01221102631ADDAY121061GF107991001001999999001061MD1710151+9999MW1101
0057375490999991971011915004+41683+044950FM-12+049099999V0200701N00211220001CN0030001N9-00281-01001102701ADDAY121031GF104991001001999999001011MD1310071+9999MW1101
0081375490999991971011918004+41683+044950FM-12+049099999V0203601N00101220001CN0050001N9-00391-00781102761ADDAA199000091AY101061GF102991021001999999031001KA1999M+00721MD1210041+9999MW1101
0043375490999991971011921004+41683+044950FM-12+049099999V0209991C00001220001CN0050001N9-00611-00781102811ADDAY101031GF100991001001999999001001MW1101
0057375490999991971012000004+41683+044950FM-12+049099999V0209991C00001220001CN0050001N9-00611-00891102871ADDAY101061GF102991021001999999031001MD1210051+9999MW1101
0104375490999991971012003004+41683+044950FM-12+049099999V0203201N00311220001CN0100001N9-00611-00891102841ADDAA199000091AJ100009199999999AY101031GF102991021001999999031001IA1139KA1999N-00721MD1810031+9999MW1101
0104375490999991971012006004+41683+044950FM-12+049099999V0202901N00211220001CN0030001N9-00281-00781102741ADDAA199000091AJ100009199999999AY111061GF105991021001999999031011IA1139KA1999N-00721MD1710031+9999MW1101
0057375490999991971012012004+41683+044950FM-12+049099999V0201601N00101220001CN0020001N9+00391-01111102441ADDAY111061GF104991021051008001031001MD1710121+9999MW1101
0057375490999991971012015004+41683+044950FM-12+049099999V0200501N00211036001CN0025001N9-00111-00781102561ADDAY111031GF105991021051017501031001MD1310011+9999MW1101
0081375490999991971012018004+41683+044950FM-12+049099999V0200901N00101036001CN0035001N9-00281-00721102591ADDAA199000091AY121061GF106991021051017501031001KA1999M+00391MD1810011+9999MW1101
0057375490999991971012021004+41683+044950FM-12+049099999V0201101N00101220001CN0035001N9-00391-00781102711ADDAY121031GF104991011051017501031001MD1310091+9999MW1101
0057375490999991971012100004+41683+044950FM-12+049099999V0200501N00211036001CN0035001N9-00611-00781102891ADDAY121061GF106991021051017501031001MD1210021+9999MW1101
0057375490999991971012103004+41683+044950FM-12+049099999V0203601N00101036001CN0035001N9-00721-00891102781ADDAY121031GF106991021051017501031001MD1810031+9999MW1101
0104375490999991971012106004+41683+044950FM-12+049099999V0209991C00001220001CN0012001N9-00391-00501102781ADDAA199000091AJ100009199999999AY111061GF100991001001999999001001IA1139KA1999N-00781MD1710071+9999MW1101
0057375490999991971012109004+41683+044950FM-12+049099999V0202301N00101220001CN0012001N9+00221-00281102591ADDAY141031GF100991001001999999001001MD1810051+9999MW1101
0057375490999991971012112004+41683+044950FM-12+049099999V0201801N00211220001CN0030001N9+00501-00721102401ADDAY141061GF100991001001999999001001MD1710121+9999MW1101
0081375490999991971012118004+41683+044950FM-12+049099999V0200201N00311220001CN0040001N9-00391-00721102751ADDAA199000091AY101061GF102991021001999999031001KA1999M+00501MD1210121+9999MW1101
0043375490999991971012121004+41683+044950FM-12+049099999V0203201N00101220001CN0040001N9-00611-00781102871ADDAY101031GF100991001001999999001001MW1101
0057375490999991971012200004+41683+044950FM-12+049099999V0203401N00101220001CN0040001N9-00721-00891102871ADDAY101061GF100991001001999999001001MD1810041+9999MW1101
0104375490999991971012203004+41683+044950FM-12+049099999V0200501N00101220001CN0040001N9-00721-00891102831ADDAA199000091AJ100009199999999AY101031GF100991001001999999001001IA1139KA1999N-00781MD1710041+9999MW1101
0104375490999991971012206004+41683+044950FM-12+049099999V0209991C00001220001CN0030001N9-00281-00281102911ADDAA199000091AJ100009199999999AY101061GF100991001001999999001001IA1139KA1999N-00781MD1310161+9999MW1101
0057375490999991971012209004+41683+044950FM-12+049099999V0209991C00001220001CN0035001N9+00281-00391102711ADDAY101031GF100991001001999999001001MD1810071+9999MW1101
0057375490999991971012212004+41683+044950FM-12+049099999V0201601N00101220001CN0040001N9+00501-00611102591ADDAY101061GF100991001001999999001001MD1710071+9999MW1101
0057375490999991971012215004+41683+044950FM-12+049099999V0201601N00311220001CN0040001N9+00501-00611102591ADDAY101031GF100991001001999999001001MD1710071+9999MW1101
0081375490999991971012218004+41683+044950FM-12+049099999V0200701N00311220001CN0050001N9-00391-00721103051ADDAA199000091AY101061GF100991001001999999001001KA1999M+00501MD1210171+9999MW1101
0057375490999991971012221004+41683+044950FM-12+049099999V0200501N00311220001CN0050001N9-00611-00891103191ADDAY101031GF100991001001999999001001MD1210081+9999MW1101
0057375490999991971012300004+41683+044950FM-12+049099999V0200501N00211220001CN0080001N9-00611-00721103251ADDAY101061GF100991001001999999001001MD1210091+9999MW1101
0057375490999991971012303004+41683+044950FM-12+049099999V0209991C00001220001CN0050001N9-00721-00781103311ADDAY101031GF100991001001999999001001MD1210041+9999MW1101
0104375490999991971012306004+41683+044950FM-12+049099999V0209991C00001220001CN0022001N9-00281-00391103361ADDAA199000091AJ100009199999999AY101061GF100991001001999999001001IA1139KA1999N-00781MD1210131+9999MW1101
0057375490999991971012312004+41683+044950FM-12+049099999V0201401N00311220001CN0030001N9+00391-00391103081ADDAY101061GF100991001001999999001001MD1710081+9999MW1101
0057375490999991971012315004+41683+044950FM-12+049099999V0200901N00211220001CN0050001N9-00111-00721103361ADDAY101031GF100991001001999999001001MD1310171+9999MW1101
0081375490999991971012318004+41683+044950FM-12+049099999V0200201N00211220001CN0050001N9-00391-00611103561ADDAA199000091AY101061GF100991001001999999001001KA1999M+00501MD1210091+9999MW1101
0057375490999991971012321004+41683+044950FM-12+049099999V0202901N00101220001CN0050001N9-00611-00781103701ADDAY101031GF100991001001999999001001MD1210111+9999MW1101
0057375490999991971012400004+41683+044950FM-12+049099999V0209991C00001220001CN0050001N9-00721-00781103761ADDAY101061GF100991001001999999001001MD1210041+9999MW1101
0104375490999991971012403004+41683+044950FM-12+049099999V0209991C00001220001CN0040001N9-00781-00781103701ADDAA199000091AJ100009199999999AY101031GF100991001001999999001001IA1139KA1999N-00781MD1810091+9999MW1101
0104375490999991971012406004+41683+044950FM-12+049099999V0209991C00001220001CN0030001N9-00281-00501103551ADDAA199000091AJ100009199999999AY101061GF100991001001999999001001IA1139KA1999N-00781MD1710071+9999MW1101
0057375490999991971012409004+41683+044950FM-12+049099999V0202001N00101220001CN0040001N9+00501-00281103401ADDAY101031GF100991001001999999001001MD1810081+9999MW1101
0057375490999991971012412004+41683+044950FM-12+049099999V0201801N00101220001CN0040001N9+00611-00721103091ADDAY101061GF100991001001999999001001MD1710251+9999MW1101
0057375490999991971012415004+41683+044950FM-12+049099999V0200501N00211220001CN0040001N9-00111-00781103391ADDAY101031GF100991001001999999001001MD1310121+9999MW1101
0081375490999991971012418004+41683+044950FM-12+049099999V0200501N00311220001CN0050001N9-00281-00611103451ADDAA199000091AY101061GF100991001001999999001001KA1999M+00721MD1210031+9999MW1101
0057375490999991971012421004+41683+044950FM-12+049099999V0202901N00101220001CN0040001N9-00391-00611103391ADDAY101031GF100991001001999999001001MD1810081+9999MW1101
0057375490999991971012500004+41683+044950FM-12+049099999V0209991C00001220001CN0050001N9-00721-00781103381ADDAY101061GF100991001001999999001001MD1710051+9999MW1101
0057375490999991971012503004+41683+044950FM-12+049099999V0202501N00101220001CN0030001N9-00721-01001103271ADDAY101031GF100991001001999999001001MD1710151+9999MW1101
0104375490999991971012506004+41683+044950FM-12+049099999V0209991C00001220001CN0017001N9-00281-00391103091ADDAA199000091AJ100009199999999AY101061GF102991001001999999001011IA1139KA1999N-00781MD1710051+9999MW1101
0057375490999991971012509004+41683+044950FM-12+049099999V0202301N00211220001CN0030001N9+00501-00721102761ADDAY101031GF100991001001999999001001MD1710121+9999MW1101
0057375490999991971012512004+41683+044950FM-12+049099999V0201601N00311220001CN0030001N9+00611-00721102681ADDAY101061GF100991001001999999001001MD1710131+9999MW1101
0057375490999991971012515004+41683+044950FM-12+049099999V0200701N00311220001CN0050001N9-00111-01001102771ADDAY101031GF100991001001999999001001MD1310051+9999MW1101
0081375490999991971012518004+41683+044950FM-12+049099999V0200201N00211220001CN0050001N9-00501-00891102941ADDAA199000091AY101061GF100991001001999999001001KA1999M+00721MD1210041+9999MW1101
0057375490999991971012521004+41683+044950FM-12+049099999V0200201N00211220001CN0050001N9-00611-01001102971ADDAY101031GF100991001001999999001001MD1110031+9999MW1101
0057375490999991971012600004+41683+044950FM-12+049099999V0200201N00871220001CN0050001N9-00721-01001103061ADDAY101061GF100991001001999999001001MD1310081+9999MW1101
0104375490999991971012603004+41683+044950FM-12+049099999V0209991C00001220001CN0050001N9-00891-01221103131ADDAA199000091AJ100009199999999AY101031GF100991001001999999001001IA1139KA1999N-00891MD1210031+9999MW1101
0104375490999991971012606004+41683+044950FM-12+049099999V0209991C00001220001CN0013001N9-00391-00391103031ADDAA199000091AJ100009199999999AY101061GF100991001001999999001001IA1139KA1999N-00891MD1210011+9999MW1101
0057375490999991971012609004+41683+044950FM-12+049099999V0202001N00211220001CN0030001N9+00221-00391102821ADDAY101031GF100991001001999999001001MD1810081+9999MW1101
0057375490999991971012612004+41683+044950FM-12+049099999V0201401N00311220001CN0008001N9+00391-00391102631ADDAY141061GF100991001001999999001001MD1710131+9999MW1461
0057375490999991971012615004+41683+044950FM-12+049099999V0200101N00211220001CN0050001N9+00001-00611102701ADDAY141031GF100991001001999999001001MD1710011+9999MW1101
0081375490999991971012618004+41683+044950FM-12+049099999V0200501N00311220001CN0080001N9-00501-00721102881ADDAA199000091AY101061GF100991001001999999001001KA1999M+00501MD1310081+9999MW1101
0057375490999991971012621004+41683+044950FM-12+049099999V0200901N00411220001CN0180001N9-00611-00781102881ADDAY101031GF100991001001999999001001MD1310081+9999MW1101
0057375490999991971012700004+41683+044950FM-12+049099999V0209991C00001220001CN0080001N9-00501-00721102801ADDAY101061GF100991001001999999001001MD1810041+9999MW1101
0057375490999991971012703004+41683+044950FM-12+049099999V0200501N00211220001CN0050001N9-00781-00891102871ADDAY101031GF100991001001999999001001MD1710081+9999MW1101
0104375490999991971012706004+41683+044950FM-12+049099999V0209991C00001220001CN0020001N9-00391-00501102841ADDAA199000091AJ100009199999999AY101061GF100991001001999999001001IA1139KA1999N-00891MD1310071+9999MW1101
0057375490999991971012709004+41683+044950FM-12+049099999V0201601N00101220001CN0030001N9+00501-00891102601ADDAY101031GF100991001001999999001001MD1810051+9999MW1101
0057375490999991971012712004+41683+044950FM-12+049099999V0201601N00211220001CN0030001N9+00501-00721102491ADDAY101061GF100991001001999999001001MD1710111+9999MW1101
0057375490999991971012715004+41683+044950FM-12+049099999V0200901N00211220001CN0050001N9-00111-01001102601ADDAY101031GF100991001001999999001001MD1710011+9999MW1101
0081375490999991971012718004+41683+044950FM-12+049099999V0200201N00311220001CN0050001N9-00391-00781102781ADDAA199000091AY101061GF100991001001999999001001KA1999M+00501MD1310111+9999MW1101
0057375490999991971012721004+41683+044950FM-12+049099999V0203501N00211220001CN0050001N9-00501-00721102511ADDAY101031GF100991001001999999001001MD1210051+9999MW1101
0057375490999991971012800004+41683+044950FM-12+049099999V0200201N00101220001CN0050001N9-00721-00781102861ADDAY101061GF100991001001999999001001MD1810041+9999MW1101
0081375490999991971012803004+41683+044950FM-12+049099999V0200501N00101220001CN0050001N9-00891-00891102861ADDAA199000091AY101031GF100991001001999999001001KA1999N-00891MD1710051+9999MW1101
0104375490999991971012806004+41683+044950FM-12+049099999V0209991C00001220001CN0030001N9-00391-00501102721ADDAA199000091AJ100009199999999AY101061GF100991001001999999001001IA1139KA1999N-00891MD1710011+9999MW1101
0057375490999991971012809004+41683+044950FM-12+049099999V0209991C00001220001CN0040001N9+00391-00781102461ADDAY101031GF100991001001999999001001MD1710081+9999MW1101
0057375490999991971012812004+41683+044950FM-12+049099999V0201401N00211220001CN0040001N9+00611-00891102281ADDAY101061GF100991001001999999001001MD1710131+9999MW1101
0057375490999991971012815004+41683+044950FM-12+049099999V0200701N00871220001CN0050001N9+00111-00781102391ADDAY101031GF100991001001999999001001MD1510001+9999MW1101
0081375490999991971012818004+41683+044950FM-12+049099999V0200701N00211220001CN0080001N9-00391-00891102511ADDAA199000091AY101061GF100991001001999999001001KA1999M+00721MD1210111+9999MW1101
0057375490999991971012821004+41683+044950FM-12+049099999V0200501N00211220001CN0080001N9-00501-00781102701ADDAY101031GF100991001001999999001001MD1210051+9999MW1101
0104375490999991971012900004+41683+044950FM-12+049099999V0209991C00001220001CN0050001N9-00501-00611102701ADDAA199000091AJ100009199999999AY101061GF100991001001999999001001IA1139KA1999N-00721MD1310011+9999MW1101
0104375490999991971012906004+41683+044950FM-12+049099999V0209991C00001015001CN0015001N9-00221-00281102681ADDAA199000091AJ100009199999999AY121061GF107991051051017501031001IA1139KA1999N-00721MD1210041+9999MW1101
0057375490999991971012909004+41683+044950FM-12+049099999V0201801N00101220001CN0040001N9+00281-00501102321ADDAY101031GF100991001001999999001001MD1810241+9999MW1101
0057375490999991971012912004+41683+044950FM-12+049099999V0201801N00311220001CN0040001N9+00501-00721102271ADDAY101061GF100991001001999999001001MD1710151+9999MW1101
0057375490999991971012915004+41683+044950FM-12+049099999V0201101N00211220001CN0020001N9-00111-00721102401ADDAY101031GF100991001001999999001001MD1410001+9999MW1101
0081375490999991971012918004+41683+044950FM-12+049099999V0200201N00101220001CN0040001N9-00221-00891102561ADDAA199000091AY101061GF100991001001999999001001KA1999M+00611MD1310081+9999MW1101
0057375490999991971012921004+41683+044950FM-12+049099999V0209991C00001220001CN0040001N9-00611-01001102661ADDAY101031GF100991001001999999001001MD1210071+9999MW1101
0057375490999991971013000004+41683+044950FM-12+049099999V0209991C00001220001CN0050001N9-00611-00891102651ADDAY101061GF100991001001999999001001MD1210091+9999MW1101
0057375490999991971013003004+41683+044950FM-12+049099999V0202901N00211036001CN0050001N9-00221-00721102671ADDAY111031GF107991041051017501031011MD1410001+9999MW1101
0104375490999991971013006004+41683+044950FM-12+049099999V0209991C00001036001CN0040001N9-00221-00611102891ADDAA199000091AJ100009199999999AY111061GF108991041051017501021999IA1139KA1999N-00611MD1310211+9999MW1101
0057375490999991971013009004+41683+044950FM-12+049099999V0200901N00101036001CN0040001N9+00111-00501102881ADDAY121031GF108991041051012501021999MD1210051+9999MW1101
0057375490999991971013012004+41683+044950FM-12+049099999V0202301N00101220001CN0030001N9+00501-00501102501ADDAY111061GF104991021051017501031001MD1810191+9999MW1101
0067375490999991971013015004+41683+044950FM-12+049099999V0209991C00001220001CN0020001N9+00111-00611102641ADDAA199000091AY111031GF104991041001999999071001KA1999M+00501MW1101
0081375490999991971013018004+41683+044950FM-12+049099999V0209991C00001036001CN0040001N9-00111-00501102681ADDAA199000091AY111061GF105991011051017501031001KA1999M+00611MD1410001+9999MW1101
0057375490999991971013021004+41683+044950FM-12+049099999V0203601N00101220001CN0040001N9-00111-00611102561ADDAY101031GF103991031001999999011001MD1510111+9999MW1101
0057375490999991971013100004+41683+044950FM-12+049099999V0203601N00101220001CN0040001N9-00281-00611102561ADDAY101061GF103991031001999999031001MD1710111+9999MW1101
0104375490999991971013103004+41683+044950FM-12+049099999V0203201N01391220001CN0160001N9+00221-00221102441ADDAA199000091AJ100009199999999AY101031GF102991021001999999031011IA1139KA1999N-00391MD1710011+9999MW1021
0104375490999991971013106004+41683+044950FM-12+049099999V0203201N01591220001CN0160001N9+00501+00001102511ADDAA199000091AJ100009199999999AY101061GF103991011011017501031001IA1089KA1999N-00391MD1310131+9999MW1021
0057375490999991971013109004+41683+044950FM-12+049099999V0203201N02111220001CN0060001N9+00721-00221102501ADDAY101031GF102991011021017501031001MD1210031+9999MW1021
0057375490999991971013112004+41683+044950FM-12+049099999V0203201N01801220001CN0160001N9+00781-00501102461ADDAY101061GF101991011021017501031001MD1810011+9999MW1021
0057375490999991971013115004+41683+044950FM-12+049099999V0203201N01391220001CN0150001N9+00501-00391102761ADDAY101031GF101991011051017501031001MD1310231+9999MW1021
0043375490999991971013118004+41683+044950FM-12+049099999V0200501N00721220001CN0160001N9+00221-00391103081ADDAY101061GF103991031001999999031001MW1021
0104375490999991971020100004+41683+044950FM-12+049099999V0209991C00001007801CN0080001N9+00001-00221103111ADDAA199000091AJ100009199999999AY121061GF108991051051008001021999IA1009KA1999N+00001MD1810071+9999MW1101
0131375490999991971020106004+41683+044950FM-12+049099999V0209991C00001004801CN0040001N9+00111+00001103241ADDAA106075091AA224999999AJ100009199999999AY121061GA1061+004809099GF108991061051004501021999IA1009KA1999N+00001MD1310121+9999MW1101
0057375490999991971020109004+41683+044950FM-12+049099999V0201801N00211004501CN0025001N9+00281+00111103111ADDAY121031GF108991061051004501021999MD1810081+9999MW1101
0057375490999991971020112004+41683+044950FM-12+049099999V0201601N00211004501CN0020001N9+00281+00221103021ADDAY141061GF108991061051004501021999MD1710041+9999MW1101
0097375490999991971020118004+41683+044950FM-12+049099999V0200901N00211006301CN0050001N9+00111-00111102951ADDAA199000091AY121061GA1051+006309059GF108991051051008001021999KA1999M+00391MD1710011+9999MW1101
0057375490999991971020121004+41683+044950FM-12+049099999V0209991C00001012301CN0100001N9+00001-00221102961ADDAY121031GF108991051051012501021999MD1710041+9999MW1021
0057375490999991971020200004+41683+044950FM-12+049099999V0209991C00001012301CN0100001N9+00001-00221102771ADDAY121061GF108991051051012501021999MD1710121+9999MW1021
0120375490999991971020203004+41683+044950FM-12+049099999V0200901N00101006901CN0100001N9-00111-00221102651ADDAA199000091AJ100009199999999AY121031GA1051+006909059GF108991051051008001021999IA1009KA1999N-00111MD1710131+9999MW1021
0120375490999991971020206004+41683+044950FM-12+049099999V0209991C00001006601CN0040001N9+00001-00281102581ADDAA199000091AJ100009199999999AY121061GA1081+006609059GF108991081051008001999999IA1009KA1999N-00111MD1710051+9999MW1101
0067375490999991971020209004+41683+044950FM-12+049099999V0202801N00211024001CN0048001N9+00221-00281102371ADDAY111031GA1061+024009049GF106991061081008001999001MD1710211+9999
0057375490999991971020212004+41683+044950FM-12+049099999V0202301N00311220001CN0040001N9+00281-00281102041ADDAY111061GF103991021051008001031001MD1710231+9999MW1101
0057375490999991971020215004+41683+044950FM-12+049099999V0202701N00211220001CN0080001N9+00001-00501101981ADDAY111031GF106991031001999999031041MD1710121+9999MW1101
0081375490999991971020218004+41683+044950FM-12+049099999V0200201N00211036001CN0080001N9+00001-00391101921ADDAA199000091AY111061GF107991021061008001031001KA1999M+00391MD1710051+9999MW1101
0057375490999991971020300004+41683+044950FM-12+049099999V0200201N00101012301CN0080001N9+00001-00391101741ADDAY121061GF108991051051012501021999MD1710131+9999MW1101
0080375490999991971020303004+41683+044950FM-12+049099999V0209991C00001036001CN0080001N9-00111-00501101661ADDAJ100009199999999AY121031GF107991041051012501071001IA1009MD1710091+9999MW1101
0104375490999991971020306004+41683+044950FM-12+049099999V0209991C00001220001CN0040001N9+00001-00221101561ADDAA199000091AJ100009199999999AY121061GF106991001001999999031021IA1009KA1999N-00221MD1710081+9999MW1101
0057375490999991971020309004+41683+044950FM-12+049099999V0201401N00211220001CN0040001N9+00501-00501101421ADDAY101031GF105991021001999999031011MD1710131+9999MW1101
0057375490999991971020312004+41683+044950FM-12+049099999V0201401N00411220001CN0040001N9+00611-00391101211ADDAY121061GF105991041001999999031011MD1710081+9999MW1101
0057375490999991971020315004+41683+044950FM-12+049099999V0201101N00211036001CN0040001N9+00501-00501101341ADDAY121031GF107991031051017501031011MD1310041+9999MW1101
0081375490999991971020318004+41683+044950FM-12+049099999V0203401N00101036001CN0080001N9+00221-00391101431ADDAA199000091AY121061GF107991041051017501071001KA1999M+00611MD1210091+9999MW1101
0057375490999991971020321004+41683+044950FM-12+049099999V0203401N00101036001CN0080001N9+00111-00501101421ADDAY121031GF107991041051017501071001MD1210091+9999MW1021
0057375490999991971020400004+41683+044950FM-12+049099999V0203601N00211012301CN0040001N9-00221-00501101701ADDAY121061GF108991051051012501021001MD1210091+9999MW1101
0057375490999991971020403004+41683+044950FM-12+049099999V0209991C00001036001CN0040001N9-00221-00501101791ADDAY121031GF107991031051017501031001MD1210081+9999MW1101
0104375490999991971020406004+41683+044950FM-12+049099999V0209991C00001036001CN0030001N9+00111-00111101791ADDAA199000091AJ100009199999999AY121061GF108991031051017501021999IA1009KA1999N-00221MD1210071+9999MW1101
0057375490999991971020409004+41683+044950FM-12+049099999V0209991C00001036001CN0013001N9+00391-00391101701ADDAY121031GF108991021051017501011999MD1810031+9999MW1101
0057375490999991971020412004+41683+044950FM-12+049099999V0201501N00211036001CN0030001N9+00781-00501101481ADDAY121061GF106991021051017501031001MD1710121+9999MW1101
0057375490999991971020415004+41683+044950FM-12+049099999V0209991C00001036001CN0050001N9+00611-00501101581ADDAY121031GF107991021051017501031001MD1310051+9999MW1101
0081375490999991971020418004+41683+044950FM-12+049099999V0209991C00001024001CN0080001N9+00391-00221101741ADDAA199000091AY121061GF106991061001999999011001KA1999M+01001MD1210111+9999MW1101
0057375490999991971020500004+41683+044950FM-12+049099999V0201401N00101015001CN0080001N9+00111-00221101861ADDAY111061GF108991051051017501021999MD1010001+9999MW1101
0057375490999991971020503004+41683+044950FM-12+049099999V0202901N00101007801CN0080001N9+00111-00221101881ADDAY121031GF108991051051008001021999MD1310031+9999MW1101
0139375490999991971020506004+41683+044950FM-12+049099999V0209991C00001220001CN0035001N9+00111-00221102011ADDAA199000091AJ100009199999999AY121061GA1999+000609099GF108991051051012501021999IA1009KA1999N-00111MD1210121+9999MW1101EQDQ01    003SCCGA1
0057375490999991971020509004+41683+044950FM-12+049099999V0201401N00211012301CN0035001N9+00611-00281101841ADDAY121031GF108991051051012501021011MD1810071+9999MW1101
0057375490999991971020512004+41683+044950FM-12+049099999V0209991C00001036001CN0025001N9+00721-00281101651ADDAY121061GF107991031051012501071001MD1710161+9999MW1101
0057375490999991971020515004+41683+044950FM-12+049099999V0200701N00211220001CN0040001N9+00281-00281101701ADDAY111031GF103991031001999999031001MD1710041+9999MW1101
0081375490999991971020518004+41683+044950FM-12+049099999V0203201N00101024001CN0050001N9+00111-00281101761ADDAA199000091AY121061GF105991051001999999031001KA1999M+00781MD1310031+9999MW1101
0057375490999991971020521004+41683+044950FM-12+049099999V0200501N00101036001CN0050001N9-00111-00221101751ADDAY111031GF107991021051017501071001MD1210011+9999MW1101
0057375490999991971020600004+41683+044950FM-12+049099999V0201101N00211036001CN0050001N9+00111-00221101521ADDAY121061GF108991041051017501021999MD1710111+9999MW1021
0057375490999991971020603004+41683+044950FM-12+049099999V0209991C00001036001CN0050001N9+00111-00221101501ADDAY121031GF108991041051017501021999MD1710111+9999MW1101
0104375490999991971020606004+41683+044950FM-12+049099999V0201401N00101220001CN0030001N9+00221+00001101481ADDAA199000091AJ100009199999999AY111061GF105991031001999999031011IA1009KA1999N-00281MD1710051+9999MW1101
0057375490999991971020609004+41683+044950FM-12+049099999V0203201N01491036001CN0100001N9+00781+00001101141ADDAY121031GF106991031081017501031001MD1710201+9999MW1021
0057375490999991971020612004+41683+044950FM-12+049099999V0203201N02621036001CN0130001N9+00891-00111101021ADDAY131061GF106991041081017501031001MD1710091+9999MW1091
0057375490999991971020615004+41683+044950FM-12+049099999V0203201N02211036001CN0160001N9+00391-00391101311ADDAY131031GF105991021051017501031001MD1310171+9999MW1031
0081375490999991971020618004+41683+044950FM-12+049099999V0203201N02211220001CN0160001N9+00281-00281101511ADDAA199000091AY111061GF102991021001999999031001KA1999M+00891MD1210171+9999MW1011
0057375490999991971020621004+41683+044950FM-12+049099999V0203201N01391220001CN0160001N9+00281-00281101501ADDAY111031GF104991041001999999031001MD1810011+9999MW1021
0057375490999991971020700004+41683+044950FM-12+049099999V0203201N01591220001CN0160001N9+00281-00501101541ADDAY111061GF102991021001999999031001MD1310041+9999MW1021
0084375490999991971020703004+41683+044950FM-12+049099999V0203201N01291220001CN0160001N9+00111-00501101511ADDAA199000091AJ100009199999999AY101031GF102991021001999999031001KA1999N+00001MW1011
0104375490999991971020706004+41683+044950FM-12+049099999V0203201N00721036001CN0160001N9+00221-00391101391ADDAA199000091AJ100009199999999AY111061GF106991031051017501031001IA1089KA1999N+00001MD1010091+9999MW1031
0057375490999991971020709004+41683+044950FM-12+049099999V0203201N00871036001CN0130001N9+00501-00391101071ADDAY121031GF107991041051012501031001MD1710211+9999MW1021
0057375490999991971020712004+41683+044950FM-12+049099999V0203201N01491036001CN0130001N9+00501-00501100811ADDAY121061GF107991041051017501071001MD1710251+9999MW1031
0057375490999991971020715004+41683+044950FM-12+049099999V0203201N008219999999N0160001N9+00281-00391100781ADDAY121031GF108991051051999999999999MD1710051+9999MW1021
0081375490999991971020718004+41683+044950FM-12+049099999V0203201N01181036001CN0160001N9+00281-00391100781ADDAA199000091AY121061GF106991031051017501031001KA1999M+00501MD1510001+9999MW1011
0057375490999991971020721004+41683+044950FM-12+049099999V0203201N013919999999N0160001N9+00221-00501101111ADDAY121031GF106991031051999999999999MD1510001+9999MW1011
0057375490999991971020800004+41683+044950FM-12+049099999V0203201N02211220001CN0160001N9-00221-00891101431ADDAY101061GF102991011051017501031001MD1210371+9999MW1021
0057375490999991971020803004+41683+044950FM-12+049099999V0203201N02211220001CN0160001N9-00391-01111101721ADDAY101031GF100991001001999999001001MD1210211+9999MW1021
0093375490999991971020806004+41683+044950FM-12+049099999V0203201N01801220001CN0160001N9-00221-01281102001ADDAJ100009199999999AY101061GF101991011001999999031001IA1009KA1999N-00391MD1210311+9999MW1031
0057375490999991971020809004+41683+044950FM-12+049099999V0203201N02111220001CN0160001N9+00001-01111101941ADDAY101031GF104991021051017501031001MD1810011+9999MW1031
0057375490999991971020812004+41683+044950FM-12+049099999V0203201N02521220001CN0160001N9+00111-01221101821ADDAY101061GF102991011011017501031001MD1710091+9999MW1011
0057375490999991971020815004+41683+044950FM-12+049099999V0203201N00981220001CN0160001N9-00111-01111102081ADDAY101031GF104991021051017501031001MD1310201+9999MW1021
0081375490999991971020818004+41683+044950FM-12+049099999V0203201N00981220001CN0160001N9-00111-00891102071ADDAA199000091AY111061GF102991021051017501001001KA1999M+00221MD1410001+9999MW1011
0057375490999991971020821004+41683+044950FM-12+049099999V0203201N00311220001CN0160001N9-00281-00891102101ADDAY101031GF102991021001999999031001MD1810011+9999MW1031
0057375490999991971020900004+41683+044950FM-12+049099999V0203401N00621024001CN0160001N9-00391-00891102101ADDAY101061GF107991999001999999031001MD1710041+9999MW1021
0057375490999991971020903004+41683+044950FM-12+049099999V0203601N00211036001CN0130001N9-00391-00721101911ADDAY121031GF108991021051017501021999MD1510171+9999MW1021
0104375490999991971020906004+41683+044950FM-12+049099999V0209991C00001036001CN0100001N9-00221-00891101791ADDAA199000091AJ100009199999999AY121061GF107991031051017501071001IA1009KA1999N-00501MD1710081+9999MW1031
0057375490999991971020909004+41683+044950FM-12+049099999V0201801N00211036001CN0080001N9+00221-01111101461ADDAY121031GF108991021051017501021999MD1710241+9999MW1011
0057375490999991971020912004+41683+044950FM-12+049099999V0201801N00211036001CN0080001N9+00501-01001100931ADDAY121061GF106991021051012501031001MD1710491+9999MW1011
0057375490999991971020915004+41683+044950FM-12+049099999V0200501N00211036001CN0100001N9+00111-01001100871ADDAY121031GF108991031051017501021999MD1710131+9999MW1031
0067375490999991971020918004+41683+044950FM-12+049099999V0200501N00311036001CN0130001N9-00111-01111100771ADDAA199000091AY121061GF108991041051017501021999KA1999M+00611MW1021
0104375490999991971021000004+41683+044950FM-12+049099999V0203201N00311036001CN0160001N9-00221-01111100591ADDAA199000091AJ100009199999999AY121061GF108991041051017501021999IA1009KA1999N-00221MD1310081+9999MW1021
0104375490999991971021003004+41683+044950FM-12+049099999V0203201N02011036001CN0160001N9-00221-01111100591ADDAA199000091AJ100009199999999AY121031GF108991041051017501021999IA1009KA1999N-00221MD1310081+9999MW1021
0104375490999991971021006004+41683+044950FM-12+049099999V0203201N02781036001CN0160001N9-00221-01391100931ADDAA199000091AJ100009199999999AY121061GF107991041051017501031011IA1009KA1999N-00221MD1210311+9999MW1021
0057375490999991971021009004+41683+044950FM-12+049099999V0203201N02681220001CN0160001N9+00001-01611101121ADDAY111031GF102991021001999999031001MD1210231+9999MW1011
0057375490999991971021012004+41683+044950FM-12+049099999V0203201N01591036001CN0160001N9+00001+99999101261ADDAY111061GF106991031011017501031011MD1210151+9999MW1031
0057375490999991971021015004+41683+044950FM-12+049099999V0203201N00821012301CN0160001N9-00221-01501101471ADDAY111031GF107991051031012501071001MD1210131+9999MW1031
0081375490999991971021018004+41683+044950FM-12+049099999V0203201N00411012301CN0160001N9-00281-01111101631ADDAA199000091AY121061GF107991051051012501071001KA1999M+00221MD1210131+9999MW1021
0057375490999991971021021004+41683+044950FM-12+049099999V0203201N00721220001CN0160001N9-00391-01111101721ADDAY111031GF104991021051017501031001MD1210081+9999MW1011
0057375490999991971021100004+41683+044950FM-12+049099999V0202701N00101220001CN0160001N9-00501-01111101801ADDAY111061GF103991021051017501031001MD1210051+9999MW1011
0104375490999991971021103004+41683+044950FM-12+049099999V0200501N00311024001CN0160001N9-00781-01281101881ADDAA199000091AJ100009199999999AY111031GF106991061001999999071001IA1009KA1999N-00781MD1210041+9999MW1031
0104375490999991971021106004+41683+044950FM-12+049099999V0201001N00211036001CN0130001N9-00501-01221101811ADDAA199000091AJ100009199999999AY111061GF106991021051017501031001IA1009KA1999N-00781MD1010141+9999MW1021
0057375490999991971021109004+41683+044950FM-12+049099999V0201601N00411036001CN0100001N9+00111-01391101631ADDAY121031GF105991021081017501031001MD1710041+9999MW1011
0057375490999991971021112004+41683+044950FM-12+049099999V0203201N01181015001CN0160001N9-00111-01001101591ADDAY121061GF108991061051017501021999MD1710091+9999MW1031
0057375490999991971021115004+41683+044950FM-12+049099999V0203201N00311015001CN0160001N9-00281-00891101631ADDAY121031GF107991061051017501001011MD1310041+9999MW1031
0081375490999991971021118004+41683+044950FM-12+049099999V0203201N00511012301CN0160001N9-00281-00781101851ADDAA199000091AY171061GF108991061031012501021999KA1999M+00221MD1210141+9999MW1021
0057375490999991971021121004+41683+044950FM-12+049099999V0203201N00721012301CN0130001N9-00281-01001101951ADDAY121031GF106991061031012501031001MD1210051+9999MW1721
0057375490999991971021200004+41683+044950FM-12+049099999V0203201N00721220001CN0160001N9-00501-01111101921ADDAY111061GF102991021001999999031001MD1810031+9999MW1021
0115375490999991971021206004+41683+044950FM-12+049099999V0209991C00001036001CN0080001N9-00391-00721101931ADDAA106075091AA224999999AJ100009199999999AY121061GF106991031051017501031001IA1139KA1999N-00781MD1310011+9999MW1101
0057375490999991971021209004+41683+044950FM-12+049099999V0201401N00211036001CN0100001N9+00221-01221101671ADDAY121031GF107991041051017501031001MD1810121+9999MW1021
0057375490999991971021212004+41683+044950FM-12+049099999V0203201N00821015001CN0100001N9+00221-01001101481ADDAY121061GF107991051051017501031001MD1710091+9999MW1031
0057375490999991971021215004+41683+044950FM-12+049099999V0203201N00821220001CN0160001N9-00111-00891101501ADDAY111031GF103991021051017501031001MD1710031+9999MW1011
0081375490999991971021218004+41683+044950FM-12+049099999V0203401N00211220001CN0160001N9-00391-00891101651ADDAA199000091AY111061GF102991021001999999031001KA1999M+00281MD1310071+9999MW1021
0043375490999991971021221004+41683+044950FM-12+049099999V0209991C000019999999N9999999N9-00501-01001101711ADDAY111031GF199999021091002501011071MW1101
0068375490999991971021300004+41683+044950FM-12+049099999V0209991C00001220001CN0160001N9-00611-01001101701ADDAA199000091AY101061GF100991001001999999001001MD1810031+9999MW1021
0104375490999991971021303004+41683+044950FM-12+049099999V0203601N00211220001CN0130001N9-00891-01221101641ADDAA199000091AJ100009199999999AY101031GF102991021001999999031001IA1009KA1999N-00891MD1710121+9999MW1021
0104375490999991971021306004+41683+044950FM-12+049099999V0200201N00101220001CN0060001N9-00391-00781101531ADDAA199000091AJ100009199999999AY101061GF102991021001999999031001IA1009KA1999N-01001MD1310011+9999MW1101
0057375490999991971021312004+41683+044950FM-12+049099999V0203201N01901036001CN0130001N9+00001-01221101141ADDAY111061GF106991021051017501031001MD1710121+9999MW1031
0057375490999991971021315004+41683+044950FM-12+049099999V0203201N01701220001CN0160001N9-00391-00891101431ADDAY111031GF103991021051017501031001MD1310171+9999MW1011
0081375490999991971021318004+41683+044950FM-12+049099999V0203201N01181220001CN0160001N9-00721-01501101711ADDAA199000091AY111061GF102991021001999999031001KA1999M+00221MD1210201+9999MW1021
0057375490999991971021321004+41683+044950FM-12+049099999V0203201N00721220001CN0160001N9-00891-01611101771ADDAY101031GF100991001001999999001001MD1210031+9999MW1021
0043375490999991971021400004+41683+044950FM-12+049099999V0203201N00721220001CN0160001N9-00781-01221101771ADDAY101061GF100991001001999999001001MW1021
0057375490999991971021403004+41683+044950FM-12+049099999V0203201N00721220001CN0160001N9-00781-01221101771ADDAY101031GF100991001001999999001001MD1410001+9999MW1021
0104375490999991971021406004+41683+044950FM-12+049099999V0203201N00871220001CN0160001N9-00501-01111101851ADDAA199000091AJ100009199999999AY111061GF106991021001999999071011IA1139KA1999N-01001MD1210151+9999MW1021
0057375490999991971021409004+41683+044950FM-12+049099999V0203201N01181220001CN0130001N9-00111-01281101741ADDAY121031GF104991021051017501031001MD1810031+9999MW1021
0057375490999991971021412004+41683+044950FM-12+049099999V0203201N00981220001CN0160001N9+00111-01611101581ADDAY111061GF106991041001017501031011MD1710111+9999MW1031
0057375490999991971021415004+41683+044950FM-12+049099999V0203201N00821036001CN0160001N9-00111-01721101771ADDAY121031GF106991021051017501071011MD1710131+9999MW1021
0081375490999991971021418004+41683+044950FM-12+049099999V0203201N00621036001CN0160001N9-00111-01281101941ADDAA199000091AY121061GF106991021051017501071001KA1999M+00111MD1210171+9999MW1011
0057375490999991971021421004+41683+044950FM-12+049099999V0202701N00211220001CN0160001N9-00391-01391102141ADDAY111031GF104991999001999999031001MD1210151+9999MW1031
0057375490999991971021500004+41683+044950FM-12+049099999V0203201N00211220001CN0160001N9-00721-01391102251ADDAY111061GF101991011001999999031001MD1210041+9999MW1011
0057375490999991971021503004+41683+044950FM-12+049099999V0203201N00211220001CN0160001N9-00891-01501102321ADDAY101031GF104991041001999999031001MD1310031+9999MW1031
0104375490999991971021506004+41683+044950FM-12+049099999V0203201N00511036001CN0100001N9-00281-01111102261ADDAA199000091AJ100009199999999AY111061GF106991031051017501041001IA1139KA1999N-01001MD1210071+9999MW1021
0057375490999991971021509004+41683+044950FM-12+049099999V0203201N00721036001CN0100001N9+00281-00111102131ADDAY121031GF106991031051017501041001MD1410001+9999MW1031
0068375490999991971021512004+41683+044950FM-12+049099999V0203201N00981036001CN0100001N9+00391-00891102121ADDAA199000091AY121061GF106991031051017501031001MD1310011+9999MW1021
0057375490999991971021515004+41683+044950FM-12+049099999V0203201N00981036001CN0130001N9+00111-01611102201ADDAY111031GF105991021051017501031001MD1210011+9999MW1031
0081375490999991971021518004+41683+044950FM-12+049099999V0203201N00821220001CN0160001N9+00001-00391102411ADDAA199000091AY111061GF103991021051017501031001KA1999M+00501MD1210171+9999MW1011
0057375490999991971021521004+41683+044950FM-12+049099999V0203201N00721220001CN0130001N9-00111-00281102531ADDAY111031GF102991021001999999031001MD1210091+9999MW1031
0057375490999991971021600004+41683+044950FM-12+049099999V0203201N00311036001CN0160001N9-00391-00501102601ADDAY111061GF105991031051017501031001MD1210071+9999MW1031
0057375490999991971021603004+41683+044950FM-12+049099999V0203401N00511090001CN0160001N9-00281-00611102601ADDAY121031GF105991021051017501031011MD1410001+9999MW1021
0104375490999991971021606004+41683+044950FM-12+049099999V0203201N00411220001CN0100001N9+00001-00391102591ADDAA199000091AJ100009199999999AY121061GF106991031001999999031041IA1139KA1999N-00501MD1310051+9999MW1031
0057375490999991971021609004+41683+044950FM-12+049099999V0203201N00621220001CN0100001N9+00501-00781102391ADDAY121031GF106991031001999999031011MD1810091+9999MW1021
0057375490999991971021612004+41683+044950FM-12+049099999V0203201N00981220001CN0100001N9+00891-00891102121ADDAY111061GF102991021001999999031001MD1710161+9999MW1021
0057375490999991971021615004+41683+044950FM-12+049099999V0203201N00411024001CN0130001N9+00501-01721102171ADDAY111031GF106991061001999999031001MD1710041+9999MW1031
0081375490999991971021618004+41683+044950FM-12+049099999V0200201N00411036001CN0130001N9+00111-00891102261ADDAA199000091AY111061GF106991031051017501031001KA1999M+00891MD1310011+9999MW1031
0068375490999991971021700004+41683+044950FM-12+049099999V0203201N00311220001CN0100001N9-00221-00781102361ADDAA199000091AY111061GF103991031001999999031001MD1310031+9999MW1021
0104375490999991971021703004+41683+044950FM-12+049099999V0203201N00411220001CN0100001N9-00221-00501102251ADDAA199000091AJ100009199999999AY121031GF104991041001999999031001IA1009KA1999N-00281MD1810121+9999MW1031
0104375490999991971021706004+41683+044950FM-12+049099999V0202901N00211036001CN0080001N9+00221-00501102221ADDAA199000091AJ100009199999999AY121061GF107991021051017501071001IA1009KA1999N-00281MD1310041+9999MW1101
0057375490999991971021709004+41683+044950FM-12+049099999V0202901N00211036001CN0080001N9+00721-00721102111ADDAY121031GF107991021051012501071001MD1810091+9999MW1101
0057375490999991971021712004+41683+044950FM-12+049099999V0202901N00211036001CN0080001N9+01001-00611101781ADDAY121061GF108991021051012501011999MD1710151+9999MW1101
0057375490999991971021715004+41683+044950FM-12+049099999V0203201N00211004501CN0080001N9+00781-00891101861ADDAY121031GF106991061001004501071001MD1310041+9999MW1011
0081375490999991971021718004+41683+044950FM-12+049099999V0200201N00311024001CN0100001N9+00001-00781102221ADDAA199000091AY121061GF106991999001999999031001KA1999M+01001MD1210171+9999MW1031
0057375490999991971021721004+41683+044950FM-12+049099999V0200701N00411036001CN0100001N9+00221-00721102331ADDAY121031GF108991031051017501021011MD1210131+9999MW1021
0104375490999991971021800004+41683+044950FM-12+049099999V0201101N00101036001CN0100001N9-00221-00721102551ADDAA199000091AJ100009199999999AY111061GF106991021051017501031001IA1139KA1999N-00221MD1210091+9999MW1031
0120375490999991971021806004+41683+044950FM-12+049099999V0202001N00101003901CN0040001N9+00111+00001102531ADDAA199000091AJ100009199999999AY121061GA1081+003909059GF108991081051004501999999IA1139KA1999N-00221MD1210131+9999MW1101
0073375490999991971021809004+41683+044950FM-12+049099999V0209991C00001004501CN0015001N9+00221+00001102551ADDAY121031GA1081+004509059GF108991999051004501021999MD1810051+9999MW1101
0057375490999991971021812004+41683+044950FM-12+049099999V0202301N00311007801CN0050001N9+00281-00111102261ADDAY121061GF108991061051008001021999MD1710241+9999MW1101
0073375490999991971021815004+41683+044950FM-12+049099999V0202001N00211006901CN0050001N9+00281-00221102181ADDAY121031GA1061+006909059GF108991061051008001021999MD1710081+9999MW1101
0081375490999991971021818004+41683+044950FM-12+049099999V0209991C00001007801CN0080001N9+00221-00111102181ADDAA199000091AY121061GF108991061051008001021999KA1999M+00281MD1710031+9999MW1101
0057375490999991971021821004+41683+044950FM-12+049099999V0209991C00001004501CN0080001N9+00221-00111102131ADDAY121031GF108991999051004501021999MD1710061+9999MW1101
0073375490999991971021900004+41683+044950FM-12+049099999V0209991C00001005401CN0100001N9+00221-00221101951ADDAY121061GA1081+005409059GF108991081051004501999999MD1710121+9999MW1021
0120375490999991971021903004+41683+044950FM-12+049099999V0209991C00001005401CN0100001N9+00111-00221101821ADDAA199000091AJ100009199999999AY121031GA1061+005409059GF108991061051004501021999IA1009KA1999N+00111MD1710151+9999MW1021
0104375490999991971021906004+41683+044950FM-12+049099999V0209991C00001036001CN0030001N9+00221-00221101771ADDAA199000091AJ100009199999999AY121061GF107991031051012501011001IA1009KA1999N+00111MD1710031+9999MW1101
0057375490999991971021909004+41683+044950FM-12+049099999V0209991C00001036001CN0030001N9+00611-00281101531ADDAY121031GF107991031051017501071001MD1710161+9999MW1101
0057375490999991971021912004+41683+044950FM-12+049099999V0201401N00211036001CN0030001N9+00781-00281101351ADDAY121061GF107991031051017501071001MD1710121+9999MW1101
0057375490999991971021915004+41683+044950FM-12+049099999V0200901N00211036001CN0020001N9+00611-00391101401ADDAY121031GF108991041051017501021999MD1310011+9999MW1101
0081375490999991971021918004+41683+044950FM-12+049099999V0202901N00211012301CN0050001N9+00391+00001101571ADDAA199000091AY181061GF108991061031012501021999KA1999M+00891MD1210121+9999MW1101
0057375490999991971022000004+41683+044950FM-12+049099999V0203201N00511220001CN0050001N9+00281+00111101711ADDAY121061GF104991031051017501031001MD1810031+9999MW1101
0109375490999991971022003004+41683+044950FM-12+049099999V0203201N00721220001CN0100001N9+00221+00001101561ADDAA106002091AA299000591AJ100009199999999AY111031GF104991021051017501031001KA1999N+00221MD1710161+9999MW1011
0115375490999991971022006004+41683+044950FM-12+049099999V0202901N00511220001CN0040001N9+00391+00221101731ADDAA106002091AA299000591AJ100009199999999AY101061GF100991001001999999001001IA1089KA1999N+00221MD1310071+9999MW1101
0057375490999991971022012004+41683+044950FM-12+049099999V0203201N00981036001CN0130001N9+01501-00391101291ADDAY111061GF106991031051017501031011MD1710161+9999MW1031
0057375490999991971022015004+41683+044950FM-12+049099999V0203201N00511220001CN0130001N9+01221-00611101361ADDAY111031GF103991021051017501031001MD1310011+9999MW1021
0081375490999991971022018004+41683+044950FM-12+049099999V0200501N00311220001CN0160001N9+00611-00611101601ADDAA199000091AY111061GF100991001001999999001001KA1999M+01501MD1210111+9999MW1011
0057375490999991971022021004+41683+044950FM-12+049099999V0209991C00001220001CN0160001N9+00111-00611101781ADDAY101031GF100991001001999999001001MD1210081+9999MW1021
0057375490999991971022100004+41683+044950FM-12+049099999V0200701N00311220001CN0160001N9+00391-00501101841ADDAY101061GF100991001001999999001001MD1210131+9999MW1021
0104375490999991971022103004+41683+044950FM-12+049099999V0200901N00311220001CN0100001N9+00001-00111101951ADDAA199000091AJ100009199999999AY101031GF100991001001999999001001IA1009KA1999N+00001MD1210031+9999MW1021
0120375490999991971022106004+41683+044950FM-12+049099999V0202901N00211003601CN0040001N9+00221+00111101931ADDAA199000091AJ100009199999999AY111061GA1081+003609059GF108991081051004501999999IA1009KA1999N-00111MD1210011+9999MW1101
0057375490999991971022109004+41683+044950FM-12+049099999V0202301N00101220001CN0050001N9+00721-00781101691ADDAY111031GF102991021001999999031001MD1810121+9999MW1101
0057375490999991971022112004+41683+044950FM-12+049099999V0202001N00211220001CN0030001N9+01111-00281101421ADDAY111061GF102991021001999999031001MD1710271+9999MW1101
0057375490999991971022115004+41683+044950FM-12+049099999V0201101N00211220001CN0030001N9+00781-00391101351ADDAY121031GF102991021001999999031001MD1710041+9999MW1101
0081375490999991971022118004+41683+044950FM-12+049099999V0200501N00511220001CN0100001N9+00501-00111101531ADDAA199000091AY101061GF100991001001999999001001KA1999M+01281MD1310111+9999MW1021
0057375490999991971022200004+41683+044950FM-12+049099999V0201801N00101036001CN0100001N9+00221+00001101681ADDAY111061GF108991031051017501021999MD1810041+9999MW1031
0057375490999991971022203004+41683+044950FM-12+049099999V0209991C00001004501CN0020001N9+00281+00111101681ADDAY121031GF108991999051004501021999MD1810031+9999MW1101
0109375490999991971022206004+41683+044950FM-12+049099999V0209991C000019999999N0017001N9+00391+99999101581ADDAA199000091AJ100009199999999AY121061GF108991001999999999001011IA1089KA1999N+00111MW1401EQDQ01    023SCOLCG
0073375490999991971022209004+41683+044950FM-12+049099999V0209991C00001003901CN0020001N9+00391+00221101481ADDAY141031GA1081+003909059GF108991081051004501999999MD1710111+9999MW1101
0073375490999991971022212004+41683+044950FM-12+049099999V0201401N00211003901CN0030001N9+00501+00001101231ADDAY121061GA1071+003909059GF108991061051004501021999MD1710211+9999MW1101
0057375490999991971022215004+41683+044950FM-12+049099999V0209991C00001004501CN0016001N9+00391+00221101181ADDAY121031GF108991061051004501021999MD1710051+9999MW1101
0116375490999991971022218004+41683+044950FM-12+049099999V0203201N00211004501CN0035001N9+00391+00221101161ADDAA199999999AY161061GA1081+004509079GF108991999071004501021999KA1999M+00501MD1710031+9999MW1611EQDQ01  00002PRCP99
0073375490999991971022221004+41683+044950FM-12+049099999V0202701N00101060001CN0030001N9+00281+00221101111ADDAY141031GA1081+060009079GF108991999071004501021999MD1710051+9999MW1611
0057375490999991971022300004+41683+044950FM-12+049099999V0209991C00001000151CN0005001N9+00281+00281101071ADDAY161061GF109991091999000251999999MD1710041+9999MW1471
0111375490999991971022303004+41683+044950FM-12+049099999V0202901N00311007801CN0040001N9+00281+00221101081ADDAA106020091AA299005091AY141031GF107991061051008001071001KA1999N+99999MD1310011+9999MW1101EQDQ01 +00722ATMN  
0115375490999991971022306004+41683+044950FM-12+049099999V0203201N00981036001CN0100001N9+00721+00221101071ADDAA106020091AA299005091AJ100009199999999AY141061GF106991021041017501031011IA1109KA1999N+00221MD1210071+9999MW1011
0057375490999991971022309004+41683+044950FM-12+049099999V0203201N01391036001CN0160001N9+01001+00001101051ADDAY121031GF105991021051017501031001MD1210041+9999MW1011
0068375490999991971022312004+41683+044950FM-12+049099999V0203201N01901220001CN0160001N9+01111-00221100981ADDAA199000091AY121061GF103991021051017501031001MD1810151+9999MW1011
0057375490999991971022315004+41683+044950FM-12+049099999V0203201N01591036001CN0160001N9+00721-00221101241ADDAY111031GF105991021041017501061001MD1310171+9999MW1031
0081375490999991971022318004+41683+044950FM-12+049099999V0203201N00821036001CN0160001N9+00611+00001101581ADDAA199000091AY111061GF106991031051017501031001KA1999M+01221MD1210311+9999MW1031
0057375490999991971022321004+41683+044950FM-12+049099999V0203201N00721036001CN0160001N9+00501+00001101591ADDAY121031GF106991031051017501031001MD1210311+9999MW1031
0057375490999991971022400004+41683+044950FM-12+049099999V0203201N00511036001CN0100001N9+00501+00001101761ADDAY121061GF105991031071017501031001MD1210031+9999MW1021
0102375490999991971022403004+41683+044950FM-12+049099999V0203201N00411036001CN0160001N9+00391-00111101811ADDAA106087091AA299022091AJ100009199999999AY111031GF106991031051017501071001IA1009MD1210031+9999MW1031
0104375490999991971022406004+41683+044950FM-12+049099999V0203101N00211036001CN0100001N9+00501+00001101931ADDAA199000091AJ100009199999999AY111061GF106991021051017501031001IA1009KA1999N+00281MD1210131+9999MW1021
0057375490999991971022409004+41683+044950FM-12+049099999V0202501N00101220001CN0050001N9+00891-00221101871ADDAY111031GF104991021011017501031001MD1210031+9999MW1031
0057375490999991971022412004+41683+044950FM-12+049099999V0201401N00621036001CN0080001N9+01111-00111101721ADDAY111061GF107991041031017501071001MD1810111+9999MW1011
0079375490999991971022415004+41683+044950FM-12+049099999V0201101N00211015001CN0100001N9+00781+00001101851ADDAA106008091AA299002091AY121031GF108991051051017501071999MD1310071+9999MW1031
0097375490999991971022418004+41683+044950FM-12+049099999V0201401N00211005701CN0080001N9+00611+00391102101ADDAA199000091AY121061GA1081+005709059GF108991081051004501999999KA1999M+01221MD1210201+9999MW1101
0057375490999991971022421004+41683+044950FM-12+049099999V0209991C00001007801CN0050001N9+00501+00391102161ADDAY121031GF108991081051008001999999MD1210041+9999MW1101
0057375490999991971022500004+41683+044950FM-12+049099999V0200201N00101007801CN0050001N9+00501+00391102141ADDAY121061GF108991081051008001999999MD1810031+9999MW1101
0057375490999991971022503004+41683+044950FM-12+049099999V0209991C00001004501CN0050001N9+00501+00391102201ADDAY121031GF108991061051004501021999MD1310051+9999MW1101
0120375490999991971022506004+41683+044950FM-12+049099999V0201801N00101003001CN0020001N9+00501+00391102261ADDAA199000091AJ100009199999999AY121061GA1081+003009059GF108991081051004501999999IA1009KA1999N+00501MD1210051+9999MW1101
0073375490999991971022509004+41683+044950FM-12+049099999V0201101N00101007801CN0040001N9+00891+00221102091ADDAY121031GA1051+007809059GF106991051051008001071001MD1810071+9999MW1101
0057375490999991971022512004+41683+044950FM-12+049099999V0202001N00101012301CN0050001N9+01001-00221101981ADDAY121061GF107991061051012501071001MD1710091+9999MW1101
0057375490999991971022515004+41683+044950FM-12+049099999V0201401N00211036001CN0020001N9+00721-00111101971ADDAY121031GF107991021051012501071001MD1710031+9999MW1101
0081375490999991971022518004+41683+044950FM-12+049099999V0200501N00211220001CN0100001N9+00611-00111102061ADDAA199000091AY111061GF104991041001999999031001KA1999M+01111MD1310031+9999MW1011
0043375490999991971022521004+41683+044950FM-12+049099999V0200501N00211220001CN0100001N9+00391+00001102121ADDAY111031GF104991041001999999031001MW1021
0057375490999991971022600004+41683+044950FM-12+049099999V0200501N00101220001CN0080001N9+00001-00221102341ADDAY111061GF104991999001999999031001MD1210041+9999MW1101
0057375490999991971022603004+41683+044950FM-12+049099999V0200201N00101220001CN0080001N9+00001-00111102301ADDAY111031GF199999021001999999031001MD1810041+9999MW1101
0104375490999991971022606004+41683+044950FM-12+049099999V0209991C00001036001CN0040001N9+00611+00281102091ADDAA199000091AJ100009199999999AY121061GF107991031051017501031001IA1009KA1999N+00001MD1310011+9999MW1011
0057375490999991971022609004+41683+044950FM-12+049099999V0201101N00101036001CN0040001N9+00891+00221101881ADDAY121031GF107991041051017501031001MD1810131+9999MW1031
0057375490999991971022612004+41683+044950FM-12+049099999V0201801N00101036001CN0040001N9+01001+00111101611ADDAY121061GF108991031051017501031001MD1710161+9999MW1031
0057375490999991971022615004+41683+044950FM-12+049099999V0201401N00311036001CN0040001N9+00891+00111101411ADDAY121031GF105991031051017501031001MD1710211+9999MW1101
0081375490999991971022618004+41683+044950FM-12+049099999V0201401N00101220001CN0080001N9+00501+00001101351ADDAA199000091AY111061GF104991021051017501031001KA1999M+01001MD1710131+9999MW1101
0057375490999991971022700004+41683+044950FM-12+049099999V0200901N00211007801CN0050001N9+00391+00221100951ADDAY121061GF108991081051008001999999MD1710211+9999MW1101
0120375490999991971022703004+41683+044950FM-12+049099999V0201401N00211004801CN0040001N9+00281+00221100621ADDAA199000091AJ100009199999999AY121031GA1081+004809059GF108991081051004501999999IA1009KA1999N+00221MD1710331+9999MW1101
0109375490999991971022706004+41683+044950FM-12+049099999V0209991C00001003001CN0018001N9+00391+00391100321ADDAJ100009199999999AY141061GA1081+003009079GF108991081051004501999999IA1089KA1999N+00221MD1710251+9999MW1101
0073375490999991971022709004+41683+044950FM-12+049099999V0200501N00311004501CN0100001N9+00391+00221100231ADDAY181031GA1081+004509099GF108991081031004501999999MD1710091+9999MW1801
0057375490999991971022712004+41683+044950FM-12+049099999V0203201N02521036001CN0150001N9+00781-00111099901ADDAY181061GF106991031051017501081001MD1710231+9999MW1011
0057375490999991971022715004+41683+044950FM-12+049099999V0203201N02521036001CN0160001N9+00611-00111100051ADDAY121031GF106991031051017501071001MD1310161+9999MW1021
0092375490999991971022718004+41683+044950FM-12+049099999V0203201N02781220001CN0160001N9+00501-00221101121ADDAA106020091AA299005091AY111061GF104991031051017501031001KA1999M+00891MD1210041+9999MW1021
0057375490999991971022721004+41683+044950FM-12+049099999V0203201N02621220001CN0160001N9+00281-00391101431ADDAY111031GF104991021051017501031001MD1210241+9999MW1011
0076375490999991971022800004+41683+044950FM-12+049099999V0203201N02521220001CN0160001N9+00221-00501100632ADDAY111061GF104991031051017501031001MD1210191+9999MW1011EQDQ01+100633APOSLP
0057375490999991971022803004+41683+044950FM-12+049099999V0203201N02421220001CN0160001N9+00221-00501100721ADDAY101031GF102991021051017501031001MD1210081+9999MW1021
0104375490999991971022806004+41683+044950FM-12+049099999V0203201N02211036001CN0160001N9+00501-00281100951ADDAA199000091AJ100009199999999AY121061GF105991021031017501031001IA1009KA1999N+00221MD1210281+9999MW1021
0057375490999991971022809004+41683+044950FM-12+049099999V0203201N02011220001CN0160001N9+00781-00611101041ADDAY101031GF102991021051017501031001MD1210131+9999MW1011
0057375490999991971022812004+41683+044950FM-12+049099999V0203201N01391220001CN0160001N9+01111-00891101121ADDAY101061GF102991011051017501031001MD1210131+9999MW1021
0057375490999991971022815004+41683+044950FM-12+049099999V0203201N00821220001CN0160001N9+01001-01111101311ADDAY101031GF102991021001999999031001MD1210161+9999MW1021
0081375490999991971022818004+41683+044950FM-12+049099999V0200701N00311220001CN0160001N9+00281-01111101681ADDAA199000091AY101061GF100991001001999999001001KA1999M+01221MD1210211+9999MW1011
0057375490999991971030100004+41683+044950FM-12+049099999V0203201N00411036001CN0160001N9+00221-00781101931ADDAY111061GF106991031051017501071001MD1210121+9999MW1031
0104375490999991971030103004+41683+044950FM-12+049099999V0203201N00211220001CN0160001N9+00501-00721102031ADDAA199000091AJ100009199999999AY121031GF104991041051017501999999IA1009KA1999N+00221MD1210121+9999MW1021
0104375490999991971030106004+41683+044950FM-12+049099999V0202901N00411220001CN0130001N9+00721-00611102081ADDAA199000091AJ100009199999999AY111061GF103991021051017501031001IA1009KA1999N+00111MD1210131+9999MW1011
0057375490999991971030112004+41683+044950FM-12+049099999V0201401N00211036001CN0080001N9+01111-00501101951ADDAY111061GF106991021051017501031001MD1810121+9999MW1011
0057375490999991971030115004+41683+044950FM-12+049099999V0201101N00211220001CN0080001N9+00891-00721102031ADDAY111031GF105991041001999999031011MD1310041+9999MW1011
0081375490999991971030118004+41683+044950FM-12+049099999V0200501N003119999999N0160001N9+00391-00611102231ADDAA199000091AY111061GF105991999001999999031001KA1999M+01221MD1210091+9999MW1021
0057375490999991971030121004+41683+044950FM-12+049099999V0200701N00311220001CN0100001N9+00111-00501102301ADDAY101031GF100991001001999999001001MD1210091+9999MW1011
0076375490999991971030200004+41683+044950FM-12+049099999V0209991C00001220001CN0130001N9+00111-00281102421ADDAY101061GF100991001001999999001001HL10009IA2999+02009MD1210071+9999MW1021
0104375490999991971030203004+41683+044950FM-12+049099999V0200201N00211220001CN0100001N9-00111-00391102441ADDAA199000091AJ100009199999999AY101031GF103991031001999999031001IA1009KA1999N-00111MD1810031+9999MW1031
0104375490999991971030206004+41683+044950FM-12+049099999V0203201N00211220001CN0050001N9+00501-00221102351ADDAA199000091AJ100009199999999AY101061GF102991021001999999031001IA1009KA1999N-00111MD1310051+9999MW1101
0057375490999991971030209004+41683+044950FM-12+049099999V0201201N00101220001CN0050001N9+01391-00281102181ADDAY101031GF102991011011017501031001MD1810091+9999MW1011
0057375490999991971030212004+41683+044950FM-12+049099999V0202001N003119999999N0130001N9+01721-00721101851ADDAY111061GF106991999001017501031001MD1710151+9999MW1031
0081375490999991971030218004+41683+044950FM-12+049099999V0202901N00511036001CN0100001N9+01111+00001102071ADDAA199000091AY111061GF107991031051017501071001KA1999M+01721MD1810051+9999MW1031
0057375490999991971030221004+41683+044950FM-12+049099999V0202901N00311220001CN0160001N9+00891-00111102161ADDAY111031GF103991021051017501031001MD1310051+9999MW1011
0057375490999991971030300004+41683+044950FM-12+049099999V0200201N00211220001CN0160001N9+00501-00111102311ADDAY111061GF102991021001999999031001MD1310051+9999MW1021
0104375490999991971030303004+41683+044950FM-12+049099999V0209991C00001220001CN0100001N9+00111-00281102471ADDAA199000091AJ100009199999999AY101031GF102991021001999999031001IA1009KA1999N+00111MD1210071+9999MW1031
0104375490999991971030306004+41683+044950FM-12+049099999V0203201N00411220001CN0080001N9+00721+00001102431ADDAA199000091AJ100009199999999AY101061GF102991021001999999031011IA1009KA1999N+00111MD1210081+9999MW1031
0057375490999991971030309004+41683+044950FM-12+049099999V0201101N00311220001CN0080001N9+01501-00281102061ADDAY111031GF103991021001999999031011MD1810201+9999MW1011
0057375490999991971030312004+41683+044950FM-12+049099999V0201301N00871036001CN0080001N9+01721-00391101751ADDAY111061GF105991021051017501031001MD1710241+9999MW1011
0081375490999991971030318004+41683+044950FM-12+049099999V0201401N00211015001CN0130001N9+01001+00391101851ADDAA199000091AY121061GF108991061051017501031001KA1999M+01781MD1810091+9999MW1021
0057375490999991971030321004+41683+044950FM-12+049099999V0209991C00001036001CN0130001N9+00611+00391101751ADDAY121031GF107991041051017501031001MD1710161+9999MW1021
0057375490999991971030400004+41683+044950FM-12+049099999V0209991C00001012301CN0050001N9+00391+00391101551ADDAY121061GF108991061051012501001999MD1710131+9999MW1101
0091375490999991971030403004+41683+044950FM-12+049099999V0209991C00001012301CN0050001N9+00391+00391101551ADDAA199000091AJ100009199999999AY121031GF108991061051012501021999IA1009MD1710131+9999MW1101
0104375490999991971030406004+41683+044950FM-12+049099999V0203201N00211036001CN0030001N9+00721+00721101491ADDAA199000091AJ100009199999999AY121061GF105991031051017501031001IA1009KA1999N+00391MD1310111+9999MW1101
0057375490999991971030409004+41683+044950FM-12+049099999V0203201N02011036001CN0160001N9+01221+00001101611ADDAY121031GF107991031051017501031001MD1210011+9999MW1031
0057375490999991971030412004+41683+044950FM-12+049099999V0203201N02211036001CN0160001N9+01221-00111101461ADDAY121061GF105991011051017501031001MD1810041+9999MW1011
0057375490999991971030415004+41683+044950FM-12+049099999V0203201N02011220001CN0160001N9+00781-00221101521ADDAY111031GF104991041001999999031001MD1710011+9999MW1011
0081375490999991971030418004+41683+044950FM-12+049099999V0203201N02981220001CN0160001N9+00501-00111101831ADDAA199000091AY111061GF102991021001999999031001KA1999M+01391MD1310261+9999MW1031
0068375490999991971030421004+41683+044950FM-12+049099999V0203201N02781036001CN0160001N9+00281-00281102181ADDAA199000091AY111031GF105991011051017501031001MD1210201+9999MW1011
0079375490999991971030503004+41683+044950FM-12+049099999V0203201N02681220001CN0150001N9+00281-00501102251ADDAA106999999AA224999999AY101031GF102991011051017501031001MD1210051+9999MW1011
0104375490999991971030506004+41683+044950FM-12+049099999V0203201N02311220001CN0100001N9+00501-00501102571ADDAA199000091AJ100009199999999AY111061GF102991021051017501031001IA1009KA1999N+00281MD1210331+9999MW1021
0057375490999991971030509004+41683+044950FM-12+049099999V0203201N01901220001CN0160001N9+00891-00391102441ADDAY101031GF101991011001999999031001MD1810041+9999MW1021
0057375490999991971030512004+41683+044950FM-12+049099999V0203201N01591220001CN0160001N9+01221-00721102361ADDAY101061GF100991001001999999001001MD1710031+9999MW1021
0057375490999991971030515004+41683+044950FM-12+049099999V0203201N00721220001CN0100001N9+01001-00891102421ADDAY121031GF100991001001999999001001MD1310031+9999MW1021
0081375490999991971030518004+41683+044950FM-12+049099999V0200901N00981220001CN0160001N9+00501+00111102881ADDAA199000091AY101061GF100991001001999999001001KA1999M+01281MD1210331+9999MW1021
0057375490999991971030521004+41683+044950FM-12+049099999V0201101N00411015001CN0160001N9+00391+00001103141ADDAY111031GF108991051051017501021999MD1210231+9999MW1021
0073375490999991971030600004+41683+044950FM-12+049099999V0201401N00511008101CN0130001N9+00281+00221103141ADDAY121061GA1061+008109059GF108991061051008001021999MD1810011+9999MW1021
0120375490999991971030603004+41683+044950FM-12+049099999V0201801N00211003901CN0100001N9+00221+00221103201ADDAA199000091AJ100009199999999AY121031GA1051+003909079GF108991061051004501021999IA1009KA1999N+00221MD1310031+9999MW1021
0120375490999991971030606004+41683+044950FM-12+049099999V0201601N00311002401CN0040001N9+00281+00221103121ADDAA199000091AJ100009199999999AY121061GA1081+002409079GF108991999071002501021999IA1009KA1999N+00221MD1210041+9999MW1101
0073375490999991971030609004+41683+044950FM-12+049099999V0201801N00211004501CN0050001N9+00391+00221103071ADDAY121031GA1081+004509079GF108991061071004501021999MD1810041+9999MW1101
0057375490999991971030612004+41683+044950FM-12+049099999V0201601N00411036001CN0080001N9+00611-00111102991ADDAY121061GF108991041051012501021999MD1710111+9999MW1101
0057375490999991971030615004+41683+044950FM-12+049099999V0201101N00211036001CN0160001N9+00611+00001102911ADDAY121031GF108991041051017501021999MD1710081+9999MW1021
0081375490999991971030618004+41683+044950FM-12+049099999V0201101N00211012301CN0130001N9+00391-00111103011ADDAA199000091AY121061GF108991051051012501021999KA1999M+00611MD1310051+9999MW1021
0057375490999991971030621004+41683+044950FM-12+049099999V0201101N00211012301CN0130001N9+00391-00111103041ADDAY121031GF108991061051012501021999MD1210031+9999MW1021
0057375490999991971030700004+41683+044950FM-12+049099999V0201401N00101012301CN0160001N9+00281-00111103021ADDAY121061GF108991061051012501021999MD1810041+9999MW1021
0057375490999991971030703004+41683+044950FM-12+049099999V0201401N00211007801CN0100001N9+00221+00001102951ADDAY121031GF108991081051008001999999MD1710091+9999MW1021
0081375490999991971030706004+41683+044950FM-12+049099999V0201601N00211004501CN0040001N9+00281+00221102991ADDAA199000091AY121061GF108991081051004501999999KA1999N+00221MD1310051+9999MW1101
0057375490999991971030709004+41683+044950FM-12+049099999V0201401N00211012301CN0080001N9+00501-00221102851ADDAY121031GF108991051031012501021999MD1810091+9999MW1101
0079375490999991971030712004+41683+044950FM-12+049099999V0202001N00101036001CN0100001N9+00721-00391102591ADDAA106999999AA224999999AY121061GF106991021031012501031001MD1710201+9999MW1011
0081375490999991971030718004+41683+044950FM-12+049099999V0201401N00211036001CN0130001N9+00391-00501102541ADDAA199000091AY121061GF108991041031017501021999KA1999M+00781MD1710011+9999MW1021
0057375490999991971030721004+41683+044950FM-12+049099999V0201401N00101036001CN0130001N9+00281-00611102541ADDAY121031GF108991041031017501021999MD1710011+9999MW1021
0057375490999991971030800004+41683+044950FM-12+049099999V0209991C00001036001CN0130001N9+00391-00221102551ADDAY121061GF108991041051017501031001MD1310011+9999MW1021
0090375490999991971030803004+41683+044950FM-12+049099999V0209991C00001015001CN0130001N9+00281-00111102421ADDAA199000091AJ100009199999999AY121031GF108991051031017501021999IA1009KA1999N+00281MW1021
0104375490999991971030806004+41683+044950FM-12+049099999V0203201N00721220001CN0080001N9+00501-00221102341ADDAA199000091AJ100009199999999AY111061GF100991001001999999001001IA1009KA1999N+00281MD1710051+9999MW1021
0057375490999991971030809004+41683+044950FM-12+049099999V0202701N00721015001CN0080001N9+00891-00391102011ADDAY111031GF105991051051017501031001MD1610201+9999MW1011
0057375490999991971030812004+41683+044950FM-12+049099999V0203201N01181220001CN0100001N9+01611-00611101571ADDAY111061GF100991001001999999001001MD1710281+9999MW1021
0057375490999991971030815004+41683+044950FM-12+049099999V0202501N00311024001CN0130001N9+01281-00391101641ADDAY111031GF106991051001999999031041MD1710011+9999MW1031
0081375490999991971030818004+41683+044950FM-12+049099999V0203101N00211220001CN0160001N9+00611-00611101861ADDAA199000091AY111061GF102991021001999999031001KA1999M+01721MD1310091+9999MW1011
0057375490999991971030821004+41683+044950FM-12+049099999V0200501N00311220001CN0160001N9+00611-00501101731ADDAY111031GF106991031001999999031011MD1810121+9999MW1031
0068375490999991971030900004+41683+044950FM-12+049099999V0201801N00411036001CN0130001N9+00501-00391101691ADDAA199000091AY121061GF106991021051017501071001MD1710051+9999MW1031
0123375490999991971030906004+41683+044950FM-12+049099999V0203201N01491012301CN0050001N9+00501+00111101661ADDAA199999999AJ100009199999999AY181061GF108991061031012501021999IA1009KA1999N+00501MD1310211+9999MW1251EQDQ01  00002PRCP99
0057375490999991971030909004+41683+044950FM-12+049099999V0203201N02781036001CN0130001N9+00721-00281101631ADDAY121031GF108991041051012501021999MD1810071+9999MW1021
0057375490999991971030915004+41683+044950FM-12+049099999V0203201N02011036001CN0160001N9+00611-00501101751ADDAY121031GF108991031051017501021999MD1310091+9999MW1021
0092375490999991971030918004+41683+044950FM-12+049099999V0203201N02011036001CN0160001N9+00501-00391101641ADDAA106001091AA299000391AY121061GF108991041051012501021999KA1999M+00781MD1810111+9999MW1021
0057375490999991971030921004+41683+044950FM-12+049099999V0203501N01181036001CN0160001N9+00501-00501101791ADDAY121031GF108991041051012501021999MD1310131+9999MW1021
0057375490999991971031000004+41683+044950FM-12+049099999V0203201N00981036001CN0160001N9+00501-00281101731ADDAY121061GF108991041051012501021999MD1810091+9999MW1021
0057375490999991971031003004+41683+044950FM-12+049099999V0203201N00621036001CN0160001N9+00391+00001101911ADDAY121031GF108991041051012501021999MD1310171+9999MW1021
0104375490999991971031006004+41683+044950FM-12+049099999V0203201N00311012301CN0100001N9+00501+00111102031ADDAA199000091AJ100009199999999AY121061GF108991051031012501021041IA1009KA1999N+00281MD1210131+9999MW1021
0073375490999991971031009004+41683+044950FM-12+049099999V0203201N00511008101CN0100001N9+00611+00221101941ADDAY121031GA1051+008109059GF108991051031008001021999MD1810051+9999MW1021
0057375490999991971031012004+41683+044950FM-12+049099999V0202901N00101036001CN0100001N9+00891+00001101631ADDAY121061GF107991031051012501031001MD1710231+9999MW1011
0057375490999991971031015004+41683+044950FM-12+049099999V0203201N00411036001CN0100001N9+00781+00001101611ADDAY121031GF106991031051017501031001MD1710051+9999MW1011
0081375490999991971031018004+41683+044950FM-12+049099999V0202901N00101036001CN0100001N9+00391+00001101661ADDAA199000091AY121061GF105991021051017501031001KA1999M+00891MD1710041+9999MW1021
0057375490999991971031021004+41683+044950FM-12+049099999V0202601N00411007801CN0100001N9+00281+00111101551ADDAY111031GF107991999001008001071001MD1610131+9999MW1031
0057375490999991971031100004+41683+044950FM-12+049099999V0203201N00311036001CN0100001N9+01281+00111101381ADDAY121061GF106991021031017501071001MD1710151+9999MW1011
0091375490999991971031103004+41683+044950FM-12+049099999V0203201N00101036001CN0080001N9+00112-00111101321ADDAA199000091AJ100009199999999AY121031GF105991021051017501031001IA1009MD1710121+9999MW1101
0081375490999991971031106004+41683+044950FM-12+049099999V0209991C00001012301CN0040001N9+00611+00221101041ADDAA199000091AY121061GF108991061051012501021999KA1999N+00001MD1710131+9999MW1101
0057375490999991971031109004+41683+044950FM-12+049099999V0203201N00821012301CN0080001N9+00891+00611101011ADDAY181031GF108991051031012501021999MD1710011+9999MW1801
0057375490999991971031112004+41683+044950FM-12+049099999V0203201N01801015001CN0160001N9+00891+00391100741ADDAY151061GF106991061031017501071001MD1710211+9999MW1021
0092375490999991971031115004+41683+044950FM-12+049099999V0203201N02111036001CN0160001N9+00611+00221100831ADDAA106001091AA299000391AY121031GF106991041031012501071011KA1999M+01111MD1310031+9999MW1021
0092375490999991971031118004+41683+044950FM-12+049099999V0203201N02111036001CN0160001N9+00501+00001100901ADDAA106001091AA299000391AY121061GF106991041031012501071001KA1999M+01111MD1210051+9999MW1011
0057375490999991971031121004+41683+044950FM-12+049099999V0203201N01391012301CN0160001N9+00391+00111100931ADDAY181031GF107991051031012501031001MD1210011+9999MW1251
0057375490999991971031200004+41683+044950FM-12+049099999V0203201N01591012301CN0160001N9+00391-00221100941ADDAY121061GF108991061031012501021999MD1210031+9999MW1021
0057375490999991971031203004+41683+044950FM-12+049099999V0203201N015919999999N0160001N9+00281-00111100981ADDAY121031GF106991041061017501999999MD1110041+9999MW1021
0115375490999991971031206004+41683+044950FM-12+049099999V0203201N01391036001CN0160001N9+00501+00001101101ADDAA106012091AA299003091AJ100009199999999AY121061GF107991041051008001021001IA1089KA1999N+00281MD1310151+9999MW1021
0057375490999991971031209004+41683+044950FM-12+049099999V0203201N01181012301CN0160001N9+00611-00111101121ADDAY121031GF108991051051012501021999MD1210041+9999MW1021
0057375490999991971031212004+41683+044950FM-12+049099999V0203201N00621012301CN0130001N9+00611+00111101141ADDAY121061GF108991051051012501021999MD1210031+9999MW1021
0057375490999991971031215004+41683+044950FM-12+049099999V0203401N00981004501CN0100001N9+00501+00281101231ADDAY161031GF108991051071004501021999MD1210091+9999MW1611
0092375490999991971031218004+41683+044950FM-12+049099999V0203201N00981012301CN0160001N9+00501+00111101321ADDAA106012091AA299003091AY121061GF108991061031012501021999KA1999M+00721MD1210051+9999MW1021
0057375490999991971031221004+41683+044950FM-12+049099999V0203201N00981012301CN0160001N9+00501+00111101331ADDAY121031GF108991061031012501021999MD1210011+9999MW1021
0087375490999991971031300004+41683+044950FM-12+049099999V0203601N00211012301CN0100001N9+00281+00111101221ADDAA199999999AY181061GF108991061031012501021999MD1810161+9999MW1801EQDQ01  00002PRCP99
0057375490999991971031303004+41683+044950FM-12+049099999V0201101N00211007801CN0050001N9+00281+00221101441ADDAY181031GF108991061051008001021999MD1810051+9999MW1251
0131375490999991971031306004+41683+044950FM-12+049099999V0209991C00001006301CN0050001N9+00281+00221101481ADDAA106008091AA299002091AJ100009199999999AY181061GA1051+006309059GF108991061071008001021999IA1109KA1999N+00281MD1310111+9999MW1611
0073375490999991971031309004+41683+044950FM-12+049099999V0201401N00311005401CN0050001N9+00391+00281101401ADDAY161031GA1081+005409079GF108991999051004501021999MD1810041+9999MW1611
0073375490999991971031312004+41683+044950FM-12+049099999V0200901N00311007501CN0100001N9+00501+00221101361ADDAY121061GA1061+007509079GF108991061071008001021999MD1710031+9999MW1021
0073375490999991971031315004+41683+044950FM-12+049099999V0200901N00511005401CN0080001N9+00391+00281101471ADDAY161031GA1081+005409079GF108991999071004501021999MD1310081+9999MW1611
0092375490999991971031318004+41683+044950FM-12+049099999V0200701N00211012301CN0130001N9+00391+00391101611ADDAA106016091AA299004091AY161061GF108991061051012501021999KA1999M+00501MD1210151+9999MW1021
0057375490999991971031321004+41683+044950FM-12+049099999V0200901N00101012301CN0130001N9+00391+00221101591ADDAY121031GF108991061051012501021999MD1810051+9999MW1021
0057375490999991971031400004+41683+044950FM-12+049099999V0203601N00211007801CN0100001N9+00391+00001101511ADDAY121061GF108991061051008001021999MD1710081+9999MW1021
0057375490999991971031403004+41683+044950FM-12+049099999V0200701N00101004501CN0080001N9+00281+00281101491ADDAY121031GF108991061051004501021999MD1710041+9999MW1101
0120375490999991971031406004+41683+044950FM-12+049099999V0201801N00311001501CN0022001N9+00391+00391101681ADDAA199000091AJ100009199999999AY121061GA1081+001509079GF108991999071001501021999IA1109KA1999N+00281MD1310201+9999MW1101
0073375490999991971031409004+41683+044950FM-12+049099999V0202901N00101001501CN0020001N9+00391+00391101551ADDAY141031GA1081+001509079GF108991081051001501999999MD1810031+9999MW1511
0043375490999991971031412004+41683+044950FM-12+049099999V0203401N01181012301CN0130001N9+00391+00281101551ADDAY121061GF108991081051012501999999MW1021
0108375490999991971031415004+41683+044950FM-12+049099999V0203201N01591007801CN0100001N9+00281+00111101611ADDAA106075091AA224999999AY121031GA1081+007809099GF108991061031008001021999KA1999M+00501MD1710151+9999MW1021
0108375490999991971031418004+41683+044950FM-12+049099999V0203201N02311008401CN0130001N9+00111-00111101541ADDAA106075091AA224999999AY181061GA1061+008409099GF108991061031008001021999KA1999M+00501MD1710111+9999MW1021
0057375490999991971031421004+41683+044950FM-12+049099999V0203201N02621007801CN0100001N9+00001-00221101401ADDAY121031GF108991061031008001021999MD1710091+9999MW1021
0057375490999991971031500004+41683+044950FM-12+049099999V0203201N02781012301CN0160001N9+00001-00221101631ADDAY121061GF108991061031012501021999MD1310161+9999MW1021
0115375490999991971031503004+41683+044950FM-12+049099999V0203201N02881012301CN0130001N9+00111-00391101631ADDAA106001091AA299000391AJ100009199999999AY121031GF108991061031012501021999IA1089KA1999N+00001MD1210031+9999MW1121
0115375490999991971031506004+41683+044950FM-12+049099999V0203201N02521036001CN0160001N9+00221-00611101701ADDAA106001091AA299000391AJ100009199999999AY121061GF105991021051017501031001IA1089KA1999N+00001MD1210081+9999MW1011
0057375490999991971031512004+41683+044950FM-12+049099999V0203201N02211036001CN0160001N9+00501-00781101831ADDAY121061GF106991031031017501071001MD1210041+9999MW1011
0057375490999991971031515004+41683+044950FM-12+049099999V0203201N02211036001CN0160001N9+00281-00721101921ADDAY121031GF107991031051017501071001MD1210081+9999MW1011
0081375490999991971031518004+41683+044950FM-12+049099999V0203201N00821036001CN0160001N9+00221-00721102241ADDAA199000091AY121061GF105991021051017501031001KA1999M+00501MD1210291+9999MW1011
0057375490999991971031521004+41683+044950FM-12+049099999V0203201N00511220001CN0160001N9+00501-00611102341ADDAY101031GF101991011001999999031001MD1210051+9999MW1011
0057375490999991971031600004+41683+044950FM-12+049099999V0203201N00981220001CN0160001N9+00111-00611102381ADDAY121061GF101991011001999999031001MD1110191+9999MW1021
0104375490999991971031603004+41683+044950FM-12+049099999V0203201N00721220001CN0160001N9-00281-00501102471ADDAA199000091AJ100009199999999AY101031GF100991001001999999001001IA1009KA1999N-00281MD1310051+9999MW1021
0104375490999991971031606004+41683+044950FM-12+049099999V0203201N00511220001CN0100001N9+00111-00611102521ADDAA199000091AJ100009199999999AY101061GF102991001001999999001011IA1009KA1999N-00281MD1210151+9999MW1031
0057375490999991971031609004+41683+044950FM-12+049099999V0202001N00101220001CN0130001N9+00721-00721102351ADDAY111031GF106991041001999999031011MD1810041+9999MW1031
