0057375530999991971010100004+41933+045383FM-12+056299999V0202701N99999220001CN0200001N9+99999+99999999999ADDAY101061GF100991001001999999001001MD1210061+9999MW1011
0057375530999991971010121004+41933+045383FM-12+056299999V0201801N99999220001CN0200001N9+99999+99999999999ADDAY101031GF100991001001999999001001MD1710091+9999MW1021
0043375530999991971010200004+41933+045383FM-12+056299999V0201801N99999220001CN0200001N9+99999+99999999999ADDAY101061GF199999001001999999001081MW1021
0037375530999991971010221004+41933+045383FM-12+056299999V0201601N99999220001CN9999999N9+99999+99999999999ADDAY121031GF102991001001999999031011
0123375530999991971010303004+41933+045383FM-12+056299999V0201801N00311220001CN0200001N9+00611+00111999999ADDAA199000091AJ100009199999999AY101031GF100991001001999999001001HL10009IA1009IA2999+00119KA1999N+00501MD1710131+9999MW1021
0057375530999991971010315004+41933+045383FM-12+056299999V0202301N99999220001CN0200001N9+99999+99999999999ADDAY101031GF101991001001999999001071MD1710011+9999MW1011
0081375530999991971010515004+41933+045383FM-12+056299999V0202901N99999220001CN9999999N9+99999+99999100411ADDAA199000091AY101031GF199999001001999999001091KA1999M+02111MD1310171+9999MW1121
0068375530999991971010715004+41933+045383FM-12+056299999V0202701N99999220001CN0200001N9+99999+99999100411ADDAA199000091AY121031GF108991001001999999031011MD1210071+9999MW1021
0123375530999991971011003004+41933+045383FM-12+056299999V0209991C00001036001CN0200001N9-00281-00281999999ADDAA199000091AJ100009199999999AY111031GF106991021051012501031001HL10009IA1089IA2999-00289KA1999N-00281MD1710271+9999MW1011
0068375530999991971011015004+41933+045383FM-12+056299999V0200901N999999999999N0005001N9+99999+99999999999ADDAA199000091AY141031GF199999091999999999999999MD1310361+9999MW1451
0117375530999991971011403004+41933+045383FM-12+056299999V0200901N004119999999N0002001N9+00001+00001999999ADDAA106008091AA299002091AY171031GF199999091999999999999999HL10009IA1089IA2999+00009KA1999N+00001MD1710011+9999MW1701
0106375530999991971011603004+41933+045383FM-12+056299999V0202001N00101220001CN0200001N9-00781-01281999999ADDAA199000091AY101031GF100991001001999999001001HL10009IA1319IA2999-01229KA1999N-01001MD1710071+9999MW1021
0068375530999991971011812004+41933+045383FM-12+056299999V0209991C99999220001CN0500001N9+99999+99999999999ADDAA199000091AY101061GF100991001001999999001001MD1710261+9999MW1021
0123375530999991971012203004+41933+045383FM-12+056299999V0209991C00001220001CN0200001N9-00391-00781999999ADDAA199000091AJ100009199999999AY101031GF100991001001999999001001HL10009IA1139IA2999-00789KA1999N-00391MD1210021+9999MW1021
0043375530999991971012321004+41933+045383FM-12+056299999V0202301N99999220001CN0200001N9+99999+99999999999ADDAY101031GF100991001001999999001001MW1021
0068375530999991971012400004+41933+045383FM-12+056299999V0209991C99999220001CN0200001N9+99999+99999999999ADDAA199000091AY101061GF100991001001999999001001MD1710061+9999MW1021
0076375530999991971012421004+41933+045383FM-12+056299999V0201801N99999220001CN9999999N9+99999+99999999999ADDAY101031GF100991001001999999001001MD1810081+9999MW1181EQDQ01    993SCOTCV
0123375530999991971012603004+41933+045383FM-12+056299999V0209991C00001220001CN0200001N9+99999+99999999999ADDAA199000091AJ100009199999999AY101031GF100991001001999999001001HL10009IA1139IA2999-00789KA1999N-00111MD1210081+9999MW1021
0043375530999991971012615004+41933+045383FM-12+056299999V0201801N99999220001CN0200001N9+99999+99999999999ADDAY101031GF100991001001999999001001MW1021
0068375530999991971012715004+41933+045383FM-12+056299999V0201801N99999220001CN0200001N9+99999+99999999999ADDAA199000091AY101031GF100991001001999999001001MD1210041+9999MW1021
0123375530999991971012803004+41933+045383FM-12+056299999V0202001N00101220001CN0200001N9-00391-00891999999ADDAA199000091AJ100009199999999AY101031GF100991001001999999001001HL10009IA1139IA2999-00789KA1999N-00501MD1710131+9999MW1021
0057375530999991971020203004+41933+045383FM-12+056299999V0202001N00101012301CN0200001N9-00111-00391999999ADDAY121031GF108991081051012501999999MD1710181+9999MW1021
0123375530999991971020303004+41933+045383FM-12+056299999V0203001N00101220001CN0200001N9-00111-00501104821ADDAA199000091AJ100009199999999AY101031GF100991001001999999001001HL10009IA1139IA2999-00399KA1999N-00281MD1710151+9999MW1011
0057375530999991971020321004+41933+045383FM-12+056299999V0202701N999999999999N0100001N9+99999+99999104821ADDAY121031GF107991021051999999999999MD1210021+9999MW1031
0081375530999991971020503004+41933+045383FM-12+056299999V0201801N00101220001CN0200001N9+99999+99999999999ADDAA199000091AY101031GF106991001001999999031011KA1999N+00221MD1410001+9999MW1021
0057375530999991971020521004+41933+045383FM-12+056299999V0201801N99999012301CN0200001N9+99999+99999999999ADDAY111031GF107991999051012501001001MD1110011+9999MW1031
0076375530999991971020600004+41933+045383FM-12+056299999V0202301N99999220001CN0200001N9+99999+99999104781ADDAY111061GF102991001001999999071051MD1110802+9999MW1011EQDQ01+000802APC3  
0043375530999991971021021004+41933+045383FM-12+056299999V0202701N99999036001CN0080001N9+99999+99999104781ADDAY121031GF106991031041008001061091MW1011
0092375530999991971021218004+41933+045383FM-12+056299999V0202301N99999220001CN0200001N9+99999+99999104851ADDAA106075091AA224999999AY101061GF102991021051012501001001KA1999M-00611MD1210051+9999MW1011
0057375530999991971021303004+41933+045383FM-12+056299999V0202301N00101220001CN0200001N9-00721+99999104701ADDAY101031GF102991021051012501001001MD1710081+9999MW1021
0081375530999991971021903004+41933+045383FM-12+056299999V0209991C00001220001CN0040001N9+00111-00221999999ADDAA199000091AY121031GF108991999001999999031001KA1999N-00391MD1710141+9999MW1001
0057375530999991971022121004+41933+045383FM-12+056299999V0209991C99999220001CN0040001N9+99999+99999999999ADDAY121031GF105991999001999999031001MD1210101+9999MW1031
0081375530999991971022203004+41933+045383FM-12+056299999V0201801N00101220001CN0040001N9+99999+99999104971ADDAA199000091AY111031GF108991999001999999031001KA1999N+01501MD1710041+9999MW1101
0057375530999991971022321004+41933+045383FM-12+056299999V0209991C99999007801CN0100001N9+99999+99999104971ADDAY151031GF108991081051008001999999MD1210081+9999MW1801
0057375530999991971022403004+41933+045383FM-12+056299999V0209991C00001004501CN0040001N9+00391+00281999999ADDAY151031GF108991081001004501021999MD1210051+9999MW1501
0051375530999991971022521004+41933+045383FM-12+056299999V0209991C99999007801CN0200001N9+99999+99999999999ADDAY121031GF108991081051008001999999MD1210081+9999
0057375530999991971022603004+41933+045383FM-12+056299999V0209991C00001220001CN0200001N9+00221+00111999999ADDAY121031GF104991041051008001001001MD1710101+9999MW1011
0068375530999991971022700004+41933+045383FM-12+056299999V0209991C99999220001CN0200001N9+99999+99999999999ADDAA199000091AY121061GF107991999001999999021001MD1210321+9999MW1021
0043375530999991971022703004+41933+045383FM-12+056299999V0209991C00001012301CN0020001N9+00391+00391103981ADDAY121031GF108991081061012501999999MW1101
0043375530999991971030521004+41933+045383FM-12+056299999V0201101N99999012301CN0200001N9+99999+99999999999ADDAY121031GF107991061051012501031001MW1031
0057375530999991971030603004+41933+045383FM-12+056299999V0201101N99999007801CN0100001N9+99999+99999999999ADDAY121031GF108991081051008001999999MD1210011+9999MW1031
0062375530999991971030700004+41933+045383FM-12+056299999V0200901N002119999999N9999999N9+00221+00111100771ADDAA199000091AY121061GF108991061999999999999999MD1410001+9999
0057375530999991971031200004+41933+045383FM-12+056299999V0202701N00211012301CN0100001N9+00281+00221100771ADDAY161061GF108991081001012501021999MD1210091+9999MW1601
0062375530999991971031415004+41933+045383FM-12+056299999V0202701N99999007801CN0040001N9+99999+99999104671ADDAA199000091AY131031GF108991081001008001021999MD1710121+9999
0087375530999991971031418004+41933+045383FM-12+056299999V0202701N99999007801CN0040001N9+99999+99999104671ADDAA199999999AY131061GF108991081001008001021999MD1710121+9999MW1661EQDQ01  00002PRCP99
0057375530999991971031421004+41933+045383FM-12+056299999V0203401N99999007801CN0200001N9+99999+99999104621ADDAY131031GF108991081001008001021999MD1710051+9999MW1061
0057375530999991971031718004+41933+045383FM-12+056299999V0200701N99999012301CN0200001N9+99999+99999104621ADDAY121061GF108991999051012501001081MD1210071+9999MW1031
0057375530999991971031903004+41933+045383FM-12+056299999V0202301N99999220001CN0100001N9+99999+99999104621ADDAY111031GF102991021031012501999999MD1710141+9999MW1001
0068375530999991971032012004+41933+045383FM-12+056299999V0200901N999999999999N0500001N9+99999+99999999999ADDAA199000091AY121061GF199999021021017501031011MD1710041+9999MW1021
0057375530999991971032103004+41933+045383FM-12+056299999V0209991C99999012301CN0100001N9+99999+99999999999ADDAY161031GF108991081051012501999999MD1710071+9999MW1631
0057375530999991971032118004+41933+045383FM-12+056299999V0209991C99999012301CN9999999N9+99999+99999999999ADDAY131061GF107991071051012501001001MD1210151+9999MW1201
0057375530999991971032121004+41933+045383FM-12+056299999V0202301N99999012301CN0100001N9+99999+99999999999ADDAY131031GF108991081051012501999999MD1210041+9999MW1201
0068375530999991971032200004+41933+045383FM-12+056299999V0209991C00001012301CN0100001N9+00611+00501999999ADDAA199000091AY101061GF108991081051012501999999MD1210011+9999MW1021
0070375530999991971032203004+41933+045383FM-12+056299999V0209991C99999007801CN9999999N9+99999+99999999999ADDAY141031GF199999051051008001999999KA1999N+00501MD1210021+9999MW1201
0068375530999991971032300004+41933+045383FM-12+056299999V0209999999999012301CN0200001N9+00501+00391999999ADDAA199000091AY121061GF108991081051012501999999MD1210131+9999MW1031
0081375530999991971032906004+41933+045383FM-12+056299999V0203201N99999220001CN0500001N9+99999+99999999999ADDAA199000091AY101061GF100991001001999999001001KA1999N+01001MD1210041+9999MW1011
0068375530999991971033000004+41933+045383FM-12+056299999V0201401N00211012301CN0200001N9+00891+00721999999ADDAA199000091AY101061GF107991071041012501001999MD1410001+9999MW1031
0043375530999991971033006004+41933+045383FM-12+056299999V0201401N99999007801CN0500001N9+99999+99999999999ADDAY121061GF107991071051008001041001MW1021
0079375530999991971033018004+41933+045383FM-12+056299999V0201101N99999220001CN0200001N9+99999+99999999999ADDAA106075091AA224999999AY101061GF100991001001999999001001MD1210061+9999MW1011
0057375530999991971033021004+41933+045383FM-12+056299999V0201101N99999220001CN0200001N9+99999+99999104831ADDAY101031GF100991001001999999001001MD1710091+9999MW1021
0068375530999991971033100004+41933+045383FM-12+056299999V0202001N00101220001CN0200001N9+00781+00391104571ADDAA199000091AY121061GF107991999001999999031001MD1710081+9999MW1031
0068375530999991971033103004+41933+045383FM-12+056299999V0202001N99999220001CN0200001N9+99999+99999104571ADDAA199000091AY121031GF107991999001999999031001MD1710081+9999MW1031
0057375530999991971033121004+41933+045383FM-12+056299999V0201801N99999007801CN0100001N9+99999+99999104371ADDAY121031GF108991081001008001021999MD1210041+9999MW1601
0116375530999991971040200004+41933+045383FM-12+056299999V0209991C00001012301CN0100001N9+00221+00111999999ADDAA199999999AY161061GF108991081001012501021999KA1999N+99999MD1210041+9999MW1611EQDQ01  00002PRCP99Q02 +00892ATMN  
0043375530999991971040203004+41933+045383FM-12+056299999V0200901N00311012301CN0100001N9+00221+00111999999ADDAY161031GF108991999051012501021999MW1611
0081375530999991971040318004+41933+045383FM-12+056299999V0209991C00001012301CN0500001N9+00611+00281999999ADDAA199000091AY121061GF108991081051012501999999KA1999M+00721MD1210151+9999MW1031
0079375530999991971040400004+41933+045383FM-12+056299999V0209991C00001012301CN0200001N9+00501+00281999999ADDAA106999999AA224999999AY131061GF108991081051012501999999MD1210071+9999MW1321
0057375530999991971040421004+41933+045383FM-12+056299999V0209991C00001012301CN0200001N9+00391+00281999999ADDAY111031GF108991081051012501999999MD1710061+9999MW1031
0057375530999991971040603004+41933+045383FM-12+056299999V0202701N001019999999N0200001N9+00611+00501999999ADDAY111031GF106991041051999999031011MD1710111+9999MW1021
0057375530999991971040703004+41933+045383FM-12+056299999V0209991C00001220001CN0200001N9+00721+00391999999ADDAY101031GF103991031041012501001001MD1210041+9999MW1011
0079375530999991971041012004+41933+045383FM-12+056299999V0209991C00001012301CN0040001N9+00391+00281999999ADDAA106016091AA299004091AY161061GF108991081001012501999999MD1710011+9999MW1631
0092375530999991971041015004+41933+045383FM-12+056299999V0200901N00101007801CN0100001N9+00611+00221999999ADDAA106004091AA299001091AY121031GF108991081051008001999999KA1999M+00781MD1710081+9999MW1021
0079375530999991971041412004+41933+045383FM-12+056299999V0202701N00101012301CN9999999N9+01221+00611103231ADDAA106008091AA299002091AY161061GF108991081001012501021999MD1210071+9999MW1611
0057375530999991971041503004+41933+045383FM-12+056299999V0202701N00101220001CN0500001N9+00721+00281103551ADDAY101031GF103991031011017501001001MD1210071+9999MW1031
0057375530999991971041509004+41933+045383FM-12+056299999V0200901N00211015001CN0500001N9+01611+00721103651ADDAY121031GF107991051051017501031001MD1710061+9999MW1031
0079375530999991971041512004+41933+045383FM-12+056299999V0200501N00311012301CN0100001N9+01281+01001103901ADDAA106008091AA299002091AY181061GF108991071091012501031999MD1210251+9999MW1811
0057375530999991971041515004+41933+045383FM-12+056299999V0203201N00311220001CN0500001N9+01281+00891103981ADDAY181031GF104991021051017501031001MD1210081+9999MW1011
0092375530999991971041518004+41933+045383FM-12+056299999V0201801N00211012301CN0200001N9+01111+00781104081ADDAA106008091AA299002091AY111061GF108991081031012501999999KA1999M+01611MD1210101+9999MW1031
0057375530999991971041521004+41933+045383FM-12+056299999V0202701N00411007801CN0100001N9+01001+00891104141ADDAY181031GF108991081091008001999999MD1210061+9999MW1801
0051375530999991971041600004+41933+045383FM-12+056299999V0202701N00311007801CN0020001N9+00781+00721104251ADDAY181061GF108991081091008001999999MD1210091+9999
0092375530999991971041606004+41933+045383FM-12+056299999V0202901N00511220001CN0500001N9+01001+00891104431ADDAA106122091AA299031091AY111061GF103991021051012501031011KA1999N+00781MD1210021+9999MW1011
0057375530999991971041609004+41933+045383FM-12+056299999V0209991C00001012301CN0500001N9+01501+00891104361ADDAY121031GF108991061051012501031001MD1710071+9999MW1031
0079375530999991971041612004+41933+045383FM-12+056299999V0200901N00211015001CN0500001N9+01501+00781104321ADDAA106047091AA299012091AY121061GF108991999071017501011011MD1610041+9999MW1031
0057375530999991971041615004+41933+045383FM-12+056299999V0200901N00211015001CN0500001N9+01501+01001104281ADDAY121031GF107991071051017501001001MD1710041+9999MW1011
0057375530999991971041618004+41933+045383FM-12+056299999V0200901N00101015001CN0200001N9+01391+00721104221ADDAY161061GF108991081999017501021999MD1710061+9999MW1611
0079375530999991971041700004+41933+045383FM-12+056299999V0209991C00001007801CN0100001N9+01001+00891104221ADDAA106031091AA299008091AY161061GF108991081091008001999999MD1210041+9999MW1631
0092375530999991971041703004+41933+045383FM-12+056299999V0209991C00001007801CN0200001N9+01001+00891104251ADDAA106039091AA299010091AY161031GF107991071091008001001999KA1999N+00781MD1210021+9999MW1011
0092375530999991971041706004+41933+045383FM-12+056299999V0200901N00211001501CN0100001N9+01111+01001104441ADDAA106039091AA299010091AY141061GF107991071051001501001001KA1999N+00781MD1210191+9999MW1011
0057375530999991971041709004+41933+045383FM-12+056299999V0200901N00101001501CN0100001N9+01281+01001104411ADDAY161031GF106991061051001501001001MD1710031+9999MW1011
0079375530999991971041712004+41933+045383FM-12+056299999V0209991C00001001501CN0200001N9+01611+00891104311ADDAA106055091AA299014091AY121061GF106991061051001501001001MD1710101+9999MW1031
0089375530999991971041715004+41933+045383FM-12+056299999V0202901N00101220001CN0100001N9+01221+01001104311ADDAY101031GA1021+000609029GA2071+999999049GF107991071001008001021001MD1010371+9999MW1651
0092375530999991971041718004+41933+045383FM-12+056299999V0202701N00211007801CN0200001N9+01111+00501104561ADDAA106059091AA299015091AY161061GF108991081051008001999999KA1999M+01611MD1210251+9999MW1031
0079375530999991971041800004+41933+045383FM-12+056299999V0202701N00211012301CN0200001N9+00781+00391104511ADDAA106008091AA299002091AY121061GF106991061051012501001001MD1710061+9999MW1011
0043375530999991971041803004+41933+045383FM-12+056299999V0209991C00001012301CN0500001N9+00781+00391104621ADDAY121031GF106991061051012501001999MW1011
0081375530999991971041806004+41933+045383FM-12+056299999V0202601N00101001501CN0500001N9+01001+00391104681ADDAA199000091AY121061GF107991071051001501001001KA1999N+00721MD1210161+9999MW1031
0057375530999991971042006004+41933+045383FM-12+056299999V0200701N00211220001CN0500001N9+00891+00391999999ADDAY121061GF102991021021017501001001MD1410001+9999MW1011
0057375530999991971042009004+41933+045383FM-12+056299999V0201101N00311015001CN0500001N9+01221+00391999999ADDAY121031GF105991051021017501001001MD1710021+9999MW1031
0068375530999991971042012004+41933+045383FM-12+056299999V0200901N00511015001CN0500001N9+01281+00501999999ADDAA199000091AY121061GF107991051021017501031001MD1710111+9999MW1031
0057375530999991971042015004+41933+045383FM-12+056299999V0201101N00411015001CN0500001N9+01221+00281999999ADDAY121031GF107991061021017501031001MD1210071+9999MW1021
0081375530999991971042018004+41933+045383FM-12+056299999V0201601N00101036001CN0200001N9+01111+00501999999ADDAA199000091AY121061GF106991041051017501031001KA1999M+01501MD1210071+9999MW1011
0057375530999991971042021004+41933+045383FM-12+056299999V0200901N00311015001CN0200001N9+00781+00611999999ADDAY121031GF108991051061017501031001MD1210101+9999MW1031
0079375530999991971042100004+41933+045383FM-12+056299999V0200901N00211007801CN0200001N9+00721+00611999999ADDAA106075091AA224999999AY161061GF108991081051008001999999MD1210061+9999MW1611
0057375530999991971042103004+41933+045383FM-12+056299999V0200901N00411007801CN9999999N9+00611+00501999999ADDAY161031GF108991081999008001021999MD1210101+9999MW1511
0057375530999991971042109004+41933+045383FM-12+056299999V0203201N00211004501CN0040001N9+00891+00611999999ADDAY121031GF108991081051004501999999MD1210011+9999MW1101
0068375530999991971042112004+41933+045383FM-12+056299999V0201401N00101004501CN0100001N9+01221+00611999999ADDAA199000091AY121061GF105991051051004501001001MD1710151+9999MW1011
0081375530999991971042115004+41933+045383FM-12+056299999V0201401N00101220001CN0200001N9+01221+00501999999ADDAA199000091AY101031GF102991021051001501001001KA1999M+01221MD1710111+9999MW1011
0081375530999991971042118004+41933+045383FM-12+056299999V0201401N00101001501CN0200001N9+00781+00391999999ADDAA199000091AY101061GF105991051051001501001001KA1999M+01221MD1210031+9999MW1011
0068375530999991971042200004+41933+045383FM-12+056299999V0209991C00001001501CN0200001N9+00781+00721999999ADDAA199000091AY121061GF108991081051001501999999MD1710021+9999MW1031
0081375530999991971042206004+41933+045383FM-12+056299999V0201801N00101001501CN0200001N9+01111+00611999999ADDAA199000091AY121061GF108991081051001501999999KA1999N+00611MD1710021+9999MW1031
0068375530999991971042212004+41933+045383FM-12+056299999V0200901N00101001501CN0200001N9+01391+00391999999ADDAA199000091AY121061GF108991051051001501011001MD1710141+9999MW1031
0043375530999991971042215004+41933+045383FM-12+056299999V0200901N00101015001CN0200001N9+01391+00721999999ADDAY121031GF106991061021017501001999MW1031
0081375530999991971042218004+41933+045383FM-12+056299999V0200901N00101001501CN0200001N9+01111+00501999999ADDAA199000091AY121061GF107991071051001501001001KA1999M+01611MD1210051+9999MW1031
0057375530999991971042221004+41933+045383FM-12+056299999V0209991C00001001501CN0200001N9+01001+00781999999ADDAY121031GF107991071051001501001001MD1710021+9999MW1031
0068375530999991971042300004+41933+045383FM-12+056299999V0209991C00001001501CN0200001N9+01001+00611999999ADDAA199000091AY121061GF108991081051001501999999MD1610181+9999MW1031
0057375530999991971042303004+41933+045383FM-12+056299999V0209991C00001001501CN0200001N9+00891+00611104961ADDAY121031GF108991081051001501999999MD1710121+9999MW1031
0081375530999991971042306004+41933+045383FM-12+056299999V0200701N00101036001CN0200001N9+01221+00781999999ADDAA199000091AY121061GF107991041051012501031001KA1999N+00891MD1210041+9999MW1011
0068375530999991971042312004+41933+045383FM-12+056299999V0200901N001019999999N0200001N9+01721+00611104631ADDAA199000091AY121061GF107991031061002501001999MD1110261+9999MW1021
0057375530999991971042318004+41933+045383FM-12+056299999V0200901N00511036001CN0200001N9+01391+00721104591ADDAY121061GF107991041051012501031001MD1710041+9999MW1021
0079375530999991971042403004+41933+045383FM-12+056299999V0209991C00001007801CN0100001N9+01001+01001104541ADDAA106075091AA224999999AY161031GF108991081001008001021999MD1710081+9999MW1611
0079375530999991971042412004+41933+045383FM-12+056299999V0200901N004119999999N0500001N9+01391+00891104541ADDAA106012091AA299003091AY121061GF106991031051999999031001MD1410001+9999MW1011
0057375530999991971042415004+41933+045383FM-12+056299999V0203201N00411220001CN0500001N9+01501+00281104531ADDAY101031GF102991021011017501031001MD1710011+9999MW1011
0081375530999991971042418004+41933+045383FM-12+056299999V0202901N00311220001CN0200001N9+00891+00281104721ADDAA199000091AY101061GF100991001001999999001001KA1999M+01611MD1210191+9999MW1011
0081375530999991971042506004+41933+045383FM-12+056299999V0203201N00101220001CN0500001N9+01281+00501104911ADDAA199000091AY101061GF100991001001999999001001KA1999N+00611MD1210151+9999MW1021
0068375530999991971042512004+41933+045383FM-12+056299999V0201401N00211090001CN0500001N9+01781+00281104761ADDAA199000091AY121061GF106991021051002501001081MD1410001+9999MW1031
0081375530999991971042518004+41933+045383FM-12+056299999V0201901N00101220001CN0100001N9+01221+00391104841ADDAA199000091AY101061GF103991031051004501001001KA1999M+01781MD1210091+9999MW1011
0068375530999991971042600004+41933+045383FM-12+056299999V0202301N00211220001CN0200001N9+00781+00221999999ADDAA199000091AY101061GF100991001001999999001001MD1310031+9999MW1011
0081375530999991971042606004+41933+045383FM-12+056299999V0201801N00101090001CN0500001N9+01501+00501999999ADDAA199000091AY101061GF106991021011017501001081KA1999N+00611MD1210251+9999MW1011
0068375530999991971042612004+41933+045383FM-12+056299999V0202701N00101220001CN0500001N9+02281+00501999999ADDAA199000091AY101061GF105991021011017501001011MD1710041+9999MW1011
0081375530999991971042618004+41933+045383FM-12+056299999V0202701N00101220001CN0200001N9+01891+00281999999ADDAA199000091AY101061GF100991001001999999001001KA1999M+02501MD1210011+9999MW1011
0057375530999991971042621004+41933+045383FM-12+056299999V0202701N00101220001CN0200001N9+01611+00281999999ADDAY101031GF100991001001999999001001MD1210031+9999MW1001
0068375530999991971042700004+41933+045383FM-12+056299999V0209999900101220001CN0200001N9+00502+00501999999ADDAA199000091AY101061GF100991001001999999001001MD1710051+9999MW1011
0057375530999991971042706004+41933+045383FM-12+056299999V0209991C00001036001CN0500001N9+01281+01001999999ADDAY111061GF105991011011017501031001MD1210261+9999MW1601
0057375530999991971042709004+41933+045383FM-12+056299999V0202701N00721220001CN0500001N9+02001+00721999999ADDAY101031GF103991021011017501031001MD1210021+9999MW1011
0079375530999991971042712004+41933+045383FM-12+056299999V0202701N00721220001CN0500001N9+02111+00221999999ADDAA106008091AA299002091AY101061GF101991011011017501001001MD1710021+9999MW1011
0057375530999991971042715004+41933+045383FM-12+056299999V0202701N00311220001CN0500001N9+01891+00221999999ADDAY101031GF101991011011017501001001MD1210061+9999MW1021
0092375530999991971042718004+41933+045383FM-12+056299999V0202701N00511220001CN0200001N9+01611+00221999999ADDAA106008091AA299002091AY101061GF100991001001999999001001KA1999M+02221MD1210211+9999MW1011
0057375530999991971042721004+41933+045383FM-12+056299999V0202701N00211220001CN0200001N9+01281+00221999999ADDAY101031GF100991001001999999001001MD1210071+9999MW1021
0057375530999991971042800004+41933+045383FM-12+056299999V0202701N00511220001CN0200001N9+01611+00221999999ADDAY101061GF100991001001999999001001MD1210211+9999MW1011
0057375530999991971042803004+41933+045383FM-12+056299999V0202701N00101220001CN0200001N9+00891+00391999999ADDAY101031GF100991001001999999001001MD1210201+9999MW1011
0081375530999991971042806004+41933+045383FM-12+056299999V0209991C00001220001CN0200001N9+01391+00781999999ADDAA199000091AY101061GF101991011051001501001001KA1999N+00721MD1210061+9999MW1031
0068375530999991971042812004+41933+045383FM-12+056299999V0200901N00101220001CN0200001N9+02001+00501999999ADDAA199000091AY101061GF102991021051000751001001MD1810181+9999MW1031
0081375530999991971042818004+41933+045383FM-12+056299999V0201801N00101220001CN0200001N9+01501+00721999999ADDAA199000091AY101061GF102991011051008001011001KA1999M+02001MD1210011+9999MW1031
0068375530999991971042900004+41933+045383FM-12+056299999V0202201N00211220001CN0200001N9+01001+00721999999ADDAA199000091AY101061GF102991021051004501001001MD1710041+9999MW1011
0081375530999991971042906004+41933+045383FM-12+056299999V0202601N00101220001CN0200001N9+01501+00891999999ADDAA199000091AY101061GF101991011011012501001001KA1999N+00891MD1610121+9999MW1011
0043375530999991971042909004+41933+045383FM-12+056299999V0200901N00101220001CN0200001N9+02001+00891999999ADDAY101031GF102991021011017501001999MW1011
0068375530999991971042912004+41933+045383FM-12+056299999V0200901N00101220001CN0200001N9+02281+00891999999ADDAA199000091AY101061GF105991021011017501001011MD1710291+9999MW1011
0043375530999991971042915004+41933+045383FM-12+056299999V0200901N00101220001CN0200001N9+02221+00721999999ADDAY101031GF100991001001999999001001MW1011
0057375530999991971043006004+41933+045383FM-12+056299999V0200701N00211220001CN0200001N9+01781+01111999999ADDAY121061GF107991001001999999031011MD1410001+9999MW1031
0057375530999991971043009004+41933+045383FM-12+056299999V0200501N00211220001CN0200001N9+01391+01111999999ADDAY121031GF108991999001999999031001MD1710041+9999MW1021
0068375530999991971043012004+41933+045383FM-12+056299999V0200501N00211090001CN0200001N9+02111+01001999999ADDAA199000091AY121061GF105991011011017501031011MD1710021+9999MW1011
0057375530999991971050306004+41933+045383FM-12+056299999V0203201N00101220001CN0500001N9+01891+01281999999ADDAY101061GF103991011011999999031001MD1710011+9999MW1011
0057375530999991971050309004+41933+045383FM-12+056299999V0200501N00211036001CN0500001N9+02221+01111999999ADDAY111031GF107991011011017501031011MD1710171+9999MW1031
0068375530999991971050312004+41933+045383FM-12+056299999V0200901N00311036001CN0500001N9+02391+01111999999ADDAA199000091AY121061GF107991011011017501031011MD1710211+9999MW1021
0057375530999991971050315004+41933+045383FM-12+056299999V0200501N00101220001CN0500001N9+02281+01111999999ADDAY121031GF107991001001999999031011MD1710061+9999MW1021
0068375530999991971050321004+41933+045383FM-12+056299999V0201801N00101220001CN0200001N9+01781+01281999999ADDAA199000091AY121031GF107991001001999999031011MD1210051+9999MW1021
0081375530999991971050406004+41933+045383FM-12+056299999V0202001N004119999999N0500001N9+99999+99999999999ADDAA199000091AY121061GF106991011999004501001999KA1999N+01391MD1210011+9999MW1031
0057375530999991971050409004+41933+045383FM-12+056299999V0200901N00211220001CN0500001N9+02501+01001999999ADDAY121031GF106991999001999999041001MD1710011+9999MW1021
0081375530999991971050418004+41933+045383FM-12+056299999V0201401N00211036001CN0200001N9+02111+00781999999ADDAA199000091AY121061GF105991021051017501031001KA1999M+03001MD1210121+9999MW1011
0068375530999991971050500004+41933+045383FM-12+056299999V0202001N00101220001CN0200001N9+01611+00891999999ADDAA199000091AY101061GF100991001001999999001001MD1210051+9999MW1021
0100375530999991971050506004+41933+045383FM-12+056299999V0203201N00101220001CN0500001N9+01221+01001999999ADDAA199000091AY101061GF102991011011012501001011KA1999N+99999MD1210031+9999MW1031EQDQ01 +01392ATMN  
0068375530999991971050512004+41933+045383FM-12+056299999V0200901N00211220001CN0200001N9+02721+00721999999ADDAA199000091AY111061GF107991011011012501001011MD1710051+9999MW1031
0081375530999991971050518004+41933+045383FM-12+056299999V0202701N00101012301CN0200001N9+02111+01221999999ADDAA199000091AY121061GF107991061041012501001011KA1999M+02721MD1210121+9999MW1021
0057375530999991971050521004+41933+045383FM-12+056299999V0202301N00101012301CN0200001N9+01781+01111999999ADDAY121031GF107991061041012501001011MD1210051+9999MW1021
0068375530999991971050600004+41933+045383FM-12+056299999V0202701N00211012301CN0100001N9+01781+01111999999ADDAA199000091AY121061GF108991081041012501999999MD1210081+9999MW1031
0081375530999991971050606004+41933+045383FM-12+056299999V0202701N00311036001CN0200001N9+02221+01001999999ADDAA199000091AY121061GF107991011051017501031011KA1999N+01611MD1210011+9999MW1021
0057375530999991971050609004+41933+045383FM-12+056299999V0202701N00311220001CN0500001N9+02611+00501999999ADDAY111031GF102991011011017501031011MD1710141+9999MW1011
0068375530999991971050612004+41933+045383FM-12+056299999V0203201N00311220001CN0500001N9+02721+00781104901ADDAA199000091AY101061GF102991011011017501031001MD1710141+9999MW1021
0079375530999991971050700004+41933+045383FM-12+056299999V0209991C00001007801CN0100001N9+01721+01391999999ADDAA106075091AA224999999AY151061GF108991081001008001021999MD1210151+9999MW1511
0070375530999991971050706004+41933+045383FM-12+056299999V0203601N00211002401CN0200001N9+01891+01501999999ADDAY151061GF107991051031002501011081KA1999N+01611MD1710301+9999MW1011
0057375530999991971050709004+41933+045383FM-12+056299999V0200901N00311036001CN0200001N9+02111+01391999999ADDAY121031GF105991031011017501031001MD1710051+9999MW1011
0098375530999991971050712004+41933+045383FM-12+056299999V0209991C00001015001CN0500001N9+02281+01281999999ADDAA106999999AA299400091AY121061GF107991051021017501031001MD1710151+9999MW1031EQDQ01  99982PRCP06
0092375530999991971050715004+41933+045383FM-12+056299999V0209991C00001012301CN0500001N9+02221+01501999999ADDAA106075091AA224999999AY121031GF107991051051012501031001KA1999M+02611MD1410001+9999MW1021
0057375530999991971050718004+41933+045383FM-12+056299999V0209991C00001036001CN0200001N9+01891+01391999999ADDAY121061GF107991021051012501031001MD1210121+9999MW1011
0068375530999991971050800004+41933+045383FM-12+056299999V0209991C00001012301CN0200001N9+01611+01001999999ADDAA199000091AY121061GF108991081051012501999999MD1210061+9999MW1021
0057375530999991971050806004+41933+045383FM-12+056299999V0203601N00101015001CN0200001N9+01721+01391999999ADDAY121061GF108991081051017501999999MD1210021+9999MW1021
0068375530999991971050812004+41933+045383FM-12+056299999V0203201N00311220001CN0200001N9+02001+01221999999ADDAA199000091AY121061GF106991999001999999031001MD1710211+9999MW1011
0057375530999991971050906004+41933+045383FM-12+056299999V0203201N00101036001CN0200001N9+02001+01221104991ADDAY111061GF106991011021012501041011MD1210011+9999MW1031
0057375530999991971050915004+41933+045383FM-12+056299999V0200901N00101220001CN0200001N9+02721+01221104451ADDAY101031GF101991011041012501001001MD1710161+9999MW1011
0081375530999991971050918004+41933+045383FM-12+056299999V0209991C000019999999N0100001N9+02221+01111104481ADDAA199000091AY121061GF107991071061999999999999KA1999M+02721MD1210031+9999MW1031
0057375530999991971050921004+41933+045383FM-12+056299999V0209991C00001012301CN0200001N9+01891+01111104681ADDAY121031GF106991061061012501001001MD1210201+9999MW1011
0100375530999991971051006004+41933+045383FM-12+056299999V0201801N00101036001CN0200001N9+01281+01221104731ADDAA199000091AY121061GF106991021021017501041011KA1999N+99999MD1710061+9999MW1031EQDQ01 +01502ATMN  
0057375530999991971051009004+41933+045383FM-12+056299999V0200901N00101012301CN0200001N9+02111+00891104721ADDAY121031GF108991081091012501999999MD1710071+9999MW1031
0068375530999991971051012004+41933+045383FM-12+056299999V0200901N00101012301CN0200001N9+02221+01111104501ADDAA199000091AY121061GF108991081091012501999999MD1710221+9999MW1031
0070375530999991971051018004+41933+045383FM-12+056299999V0202701N00101012301CN0200001N9+01391+01221104711ADDAY121061GF108991081051012501999999KA1999M+02281MD1710011+9999MW1031
0057375530999991971051021004+41933+045383FM-12+056299999V0202701N00101012301CN0200001N9+01391+01111104711ADDAY121031GF108991081051012501999999MD1710011+9999MW1031
0065375530999991971051100004+41933+045383FM-12+056299999V0200901N00101036001CN0200001N9+01281+01221104611ADDAA106012091AA299003091AY121061GF108991041051012501031999MW1031
0043375530999991971051106004+41933+045383FM-12+056299999V0203401N003119999999N0500001N9+01501+01221104591ADDAY161061GF105991999999999999999999MW1011
0079375530999991971051112004+41933+045383FM-12+056299999V0203401N00311036001CN0500001N9+02001+00891104361ADDAA106004091AA299001091AY121061GF106991021011017501031001MD1710151+9999MW1011
0092375530999991971051115004+41933+045383FM-12+056299999V0202901N00311036001CN0500001N9+01891+01001104351ADDAA106004091AA299001091AY121031GF107991031011017501031001KA1999M+02221MD1710011+9999MW1031
0092375530999991971051118004+41933+045383FM-12+056299999V0202901N00311220001CN0200001N9+01501+01001104501ADDAA106004091AA299001091AY121061GF103991021051017501011001KA1999M+02221MD1210151+9999MW1011
0092375530999991971051206004+41933+045383FM-12+056299999V0200901N00211007801CN0100001N9+01281+01221104911ADDAA106012091AA299003091AY161061GF108991081001008001021999KA1999N+01221MD1210121+9999MW1611
0057375530999991971051209004+41933+045383FM-12+056299999V0200901N00101007801CN0100001N9+01221+01221104961ADDAY161031GF108991081001008001021999MD1210051+9999MW1611
0079375530999991971051212004+41933+045383FM-12+056299999V0203601N00101004501CN0020001N9+01221+01221104991ADDAA106091091AA299023091AY161061GF108991081001004501021999MD1210031+9999MW1611
0057375530999991971051215004+41933+045383FM-12+056299999V0203601N00211004501CN0020001N9+01281+01281999999ADDAY161031GF108991081001004501021999MD1210031+9999MW1101
0092375530999991971051218004+41933+045383FM-12+056299999V0200901N00101007801CN0100001N9+01281+01221999999ADDAA106083091AA299021091AY161061GF108991081001008001021999KA1999M+01281MD1210071+9999MW1611
0079375530999991971051300004+41933+045383FM-12+056299999V0200901N00101007801CN0100001N9+01001+01001999999ADDAA106012091AA299003091AY161061GF108991081001008001021999MD1210171+9999MW1601
0057375530999991971051303004+41933+045383FM-12+056299999V0200901N00101007801CN0100001N9+01111+01001999999ADDAY161031GF108991081001008001021999MD1710031+9999MW1611
0092375530999991971051306004+41933+045383FM-12+056299999V0200901N00101007801CN0100001N9+01111+01001999999ADDAA106008091AA299002091AY161061GF108991081061008001999999KA1999N+01001MD1210201+9999MW1511
0057375530999991971051309004+41933+045383FM-12+056299999V0209991C00001007801CN0200001N9+01391+01111999999ADDAY151031GF108991081061008001999999MD1710011+9999MW1011
0079375530999991971051312004+41933+045383FM-12+056299999V0200901N00101007801CN0500001N9+01721+01221999999ADDAA106075091AA224999999AY121061GF108991081061008001999999MD1710121+9999MW1021
0057375530999991971051315004+41933+045383FM-12+056299999V0200901N00101012301CN0500001N9+01611+01391999999ADDAY121031GF108991081061012501999999MD1710021+9999MW1021
0070375530999991971051318004+41933+045383FM-12+056299999V0209991C00001012301CN0200001N9+01391+01281999999ADDAY121061GF105991051011012501001001KA1999M+01721MD1210021+9999MW1011
0057375530999991971051321004+41933+045383FM-12+056299999V0209991C00001012301CN0100001N9+01281+01221999999ADDAY121031GF108991081061012501999999MD1210081+9999MW1031
0068375530999991971051400004+41933+045383FM-12+056299999V0209991C00001012301CN0100001N9+01281+01221999999ADDAA199000091AY121061GF108991081061012501999999MD1710051+9999MW1021
0081375530999991971051406004+41933+045383FM-12+056299999V0202701N00101015001CN0300001N9+01611+01281999999ADDAA199000091AY131061GF106991061021017501001001KA1999N+01001MD1710121+9999MW1321
0081375530999991971051415004+41933+045383FM-12+056299999V0200901N00101036001CN0200001N9+02001+01391104801ADDAA199000091AY121031GF108991041021017501041011KA1999M+02221MD1710071+9999MW1031
0075375530999991971051418004+41933+045383FM-12+056299999V0202701N001019999999N0100001N9+01781+01501104811ADDAA199000091AY191061GF108991081001999999021999KA1999M+02221MD1410001+9999
0079375530999991971051500004+41933+045383FM-12+056299999V0202701N00101012301CN0200001N9+01391+01001104701ADDAA106075091AA224999999AY121061GF106991061011012501001001MD1710111+9999MW1031
0081375530999991971051506004+41933+045383FM-12+056299999V0203601N00211036001CN0500001N9+01891+01281104661ADDAA199000091AY121061GF107991011011017501031001KA1999N+01391MD1710031+9999MW1051
0057375530999991971051509004+41933+045383FM-12+056299999V0209991C00001036001CN0500001N9+02001+01391104641ADDAY121031GF107991011011017501031001MD1710041+9999MW1021
0068375530999991971051512004+41933+045383FM-12+056299999V0209991C00001036001CN0500001N9+02111+01391104521ADDAA199000091AY121061GF106991021021017501031001MD1610121+9999MW1031
0081375530999991971051518004+41933+045383FM-12+056299999V0200701N00101036001CN0200001N9+01891+01281104531ADDAA199000091AY121061GF105991021051017501031001KA1999M+02221MD1210071+9999MW1011
0043375530999991971051521004+41933+045383FM-12+056299999V0202501N00211220001CN0200001N9+01501+01111104561ADDAY101031GF102991999001999999031001MW1011
0068375530999991971051600004+41933+045383FM-12+056299999V0202001N00101036001CN0200001N9+01391+00891104551ADDAA199000091AY121061GF106991021051017501031001MD1210011+9999MW1031
0057375530999991971051603004+41933+045383FM-12+056299999V0209991C00001036001CN0500001N9+01501+01111104611ADDAY121031GF105991011051017501031001MD1210041+9999MW1011
0081375530999991971051606004+41933+045383FM-12+056299999V0202701N00211220001CN0500001N9+02111+01001104691ADDAA199000091AY111061GF101991011011017501001001KA1999N+01391MD1210081+9999MW1011
0079375530999991971051612004+41933+045383FM-12+056299999V0200901N00311036001CN0500001N9+02281+01391104611ADDAA106075091AA224999999AY191061GF106991031091017501031001MD1710071+9999MW1951
0057375530999991971051709004+41933+045383FM-12+056299999V0200201N00101007801CN0200001N9+01611+01281999999ADDAY121031GF107991061021008001011001MD1210011+9999MW1011
0079375530999991971051712004+41933+045383FM-12+056299999V0209991C00001012301CN0200001N9+01891+01221999999ADDAA106024091AA299006091AY121061GF106991051011012501011051MD1710181+9999MW1011
0092375530999991971051718004+41933+045383FM-12+056299999V0209991C00001007801CN0020001N9+01611+01281999999ADDAA106024091AA299006091AY161061GF108991081001008001999999KA1999M+01891MD1210021+9999MW1611
0057375530999991971051721004+41933+045383FM-12+056299999V0201401N00211007801CN0100001N9+01281+01001999999ADDAY161031GF108991081001008001999999MD1210231+9999MW1611
0079375530999991971051800004+41933+045383FM-12+056299999V0201801N00211007801CN0100001N9+01221+01001999999ADDAA106020091AA299005091AY161061GF108991081001008001021999MD1710021+9999MW1611
0043375530999991971051803004+41933+045383FM-12+056299999V0201901N00101007801CN0040001N9+01111+01001999999ADDAY161031GF108991081001008001999999MW1611
0092375530999991971051806004+41933+045383FM-12+056299999V0200901N00101007801CN0040001N9+01111+01001999999ADDAA106028091AA299007091AY161061GF108991081001008001021999KA1999N+01001MD1210201+9999MW1611
0043375530999991971051809004+41933+045383FM-12+056299999V0202701N00101012301CN0100001N9+01221+01111999999ADDAY121031GF108991081061012501999999MW1031
0079375530999991971051812004+41933+045383FM-12+056299999V0202701N00101012301CN0200001N9+99999+00891999999ADDAA106028091AA299007091AY121061GF108991081051012501999999MD1710081+9999MW1021
0057375530999991971051815004+41933+045383FM-12+056299999V0202701N00101012301CN0200001N9+01281+01001999999ADDAY121031GF108991081051012501999999MD1210031+9999MW1031
0068375530999991971051912004+41933+045383FM-12+056299999V0202701N00211220001CN0500001N9+02111+01221999999ADDAA199000091AY111061GF101991011011017501031001MD1710141+9999MW1011
0057375530999991971051915004+41933+045383FM-12+056299999V0200901N00411036001CN0500001N9+02001+01221999999ADDAY121031GF105991021011017501031001MD1210021+9999MW1031
0081375530999991971051918004+41933+045383FM-12+056299999V0201801N00101015001CN0200001N9+01781+01221999999ADDAA199000091AY121061GF107991061051017501031001KA1999M+02221MD1210211+9999MW1031
0057375530999991971051921004+41933+045383FM-12+056299999V0202701N00101015001CN0200001N9+01721+01221999999ADDAY121031GF107991061051017501031001MD1410001+9999MW1021
0057375530999991971052006004+41933+045383FM-12+056299999V0209991C00001220001CN0500001N9+01781+01221999999ADDAY101061GF101991011011017501001001MD1710041+9999MW1011
0068375530999991971052012004+41933+045383FM-12+056299999V0200901N00511036001CN0200001N9+02281+01221999999ADDAA199000091AY111061GF106991041091017501031001MD1710211+9999MW1171
0081375530999991971052018004+41933+045383FM-12+056299999V0202701N00211220001CN0200001N9+01721+01111999999ADDAA199000091AY191061GF100991001001999999001001KA1999M+02391MD1210041+9999MW1011
0057375530999991971052021004+41933+045383FM-12+056299999V0202701N00101220001CN0200001N9+01391+01001104991ADDAY101031GF100991001001999999001001MD1710121+9999MW1021
0068375530999991971052100004+41933+045383FM-12+056299999V0202301N00211220001CN0200001N9+01221+01221104871ADDAA199000091AY111061GF104991999001999999031001MD1710121+9999MW1031
0057375530999991971052103004+41933+045383FM-12+056299999V0209991C00001220001CN0500001N9+01391+01111104821ADDAY121031GF106991001001999999031011MD1710051+9999MW1031
0081375530999991971052106004+41933+045383FM-12+056299999V0209991C00001036001CN0500001N9+01781+01281104821ADDAA199000091AY121061GF106991011011012501011011KA1999N+01221MD1710021+9999MW1031
0057375530999991971052109004+41933+045383FM-12+056299999V0200901N00101015001CN0500001N9+02001+01111104691ADDAY191031GF107991071091017501001011MD1710111+9999MW1031
0079375530999991971052112004+41933+045383FM-12+056299999V0203201N00101012301CN0200001N9+02001+01281104591ADDAA106075091AA224999999AY191061GF108991081091012501999999MD1710101+9999MW1951
0057375530999991971052506004+41933+045383FM-12+056299999V0209991C00001220001CN0500001N9+02001+01391104691ADDAY121061GF101991011051012501001001MD1210041+9999MW1011
0068375530999991971052512004+41933+045383FM-12+056299999V0200501N00101015001CN0500001N9+02391+01221104481ADDAA199000091AY121061GF106991061051017501001001MD1710091+9999MW1031
0057375530999991971052515004+41933+045383FM-12+056299999V0203201N00101220001CN0500001N9+02391+01391104391ADDAY121031GF104991041001999999031011MD1710091+9999MW1011
0081375530999991971052518004+41933+045383FM-12+056299999V0203201N00101220001CN0200001N9+01781+00891104501ADDAA199000091AY121061GF105991011051017501001011KA1999M+02391MD1210111+9999MW1031
0057375530999991971052521004+41933+045383FM-12+056299999V0202301N00211220001CN0200001N9+01611+00891104511ADDAY121031GF104991041051017501001001MD1210011+9999MW1011
0068375530999991971052600004+41933+045383FM-12+056299999V0202301N00211007801CN0200001N9+01611+00891104421ADDAA199000091AY121061GF105991051041008001001001MD1710091+9999MW1031
0057375530999991971052603004+41933+045383FM-12+056299999V0209991C00001036001CN0500001N9+01781+01221104391ADDAY121031GF107991031041008001031001MD1710031+9999MW1031
0081375530999991971052606004+41933+045383FM-12+056299999V0202601N00101015001CN0500001N9+02111+01221104351ADDAA199000091AY181061GF108991061051017501031001KA1999N+01611MD1710041+9999MW1031
0079375530999991971052612004+41933+045383FM-12+056299999V0202701N00101012301CN0000001N9+01611+01501104671ADDAA106012091AA299003091AY151061GF108991081091012501999999MD1210241+9999MW1591
0092375530999991971052618004+41933+045383FM-12+056299999V0202701N00101015001CN0200001N9+01501+01281104801ADDAA106020091AA299005091AY121061GF106991051051017501031001KA1999M+02501MD1210221+9999MW1031
0079375530999991971052700004+41933+045383FM-12+056299999V0202701N00101220001CN0200001N9+01611+01111104861ADDAA106020091AA299005091AY101061GF100991001001999999001001MD1210041+9999MW1011
0057375530999991971052703004+41933+045383FM-12+056299999V0202701N00101220001CN0500001N9+01721+01111104861ADDAY101031GF102991021011017501001001MD1410001+9999MW1011
0081375530999991971052706004+41933+045383FM-12+056299999V0202701N00101220001CN0500001N9+02001+01221104851ADDAA199000091AY101061GF103991031011017501001001KA1999N+01391MD1710011+9999MW1011
0057375530999991971052709004+41933+045383FM-12+056299999V0200901N00411220001CN0500001N9+02221+01501104891ADDAY101031GF102991021011017501001011MD1210041+9999MW1011
0068375530999991971052712004+41933+045383FM-12+056299999V0200901N00511015001CN0200001N9+02281+01391104811ADDAA199000091AY191061GF107991061091017501021001MD1710071+9999MW1071
0057375530999991971052715004+41933+045383FM-12+056299999V0201801N00101012301CN0200001N9+01781+01501104881ADDAY191031GF108991081091012501999999MD1210071+9999MW1951
0057375530999991971052721004+41933+045383FM-12+056299999V0209991C00001012301CN0200001N9+01501+01281999999ADDAY101031GF107991071051012501001001MD1210031+9999MW1011
0079375530999991971052800004+41933+045383FM-12+056299999V0209991C00001012301CN0200001N9+01501+01391999999ADDAA106043091AA299011091AY121061GF107991051051012501031001MD1210051+9999MW1011
0076375530999991971052803004+41933+045383FM-12+056299999V0209991C00001012301CN0500001N9+01611+01391999999ADDAY121031GF107991051051012501031001MD1210522+9999MW1021EQDQ01+000522APC3  
0070375530999991971052806004+41933+045383FM-12+056299999V0200901N00101012301CN0200001N9+01721+01501999999ADDAY121061GF108991081051012501999999KA1999N+01501MD1210041+9999MW1021
0068375530999991971052812004+41933+045383FM-12+056299999V0209991C00001012301CN0200001N9+02221+01611999999ADDAA199000091AY121061GF107991051051012501031001MD1710081+9999MW1011
0081375530999991971052818004+41933+045383FM-12+056299999V0201801N00101012301CN0200001N9+01781+01501999999ADDAA199000091AY121061GF108991081051012501999999KA1999M+02281MD1210041+9999MW1031
0057375530999991971052821004+41933+045383FM-12+056299999V0201801N00101007801CN0100001N9+01611+01611999999ADDAY151031GF108991081001008001021999MD1210041+9999MW1611
0079375530999991971052900004+41933+045383FM-12+056299999V0200901N00101007801CN0100001N9+01501+01501999999ADDAA106083091AA299021091AY161061GF108991081001008001021999MD1710151+9999MW1611
0057375530999991971052903004+41933+045383FM-12+056299999V0200901N00211000151CN0005001N9+01391+01391999999ADDAY161031GF108991081999000251999999MD1710021+9999MW1651
0092375530999991971052906004+41933+045383FM-12+056299999V0200901N00101004501CN0100001N9+01391+01281999999ADDAA106087091AA299022091AY161061GF108991081001004501999999KA1999N+01391MD1410001+9999MW1021
0057375530999991971052909004+41933+045383FM-12+056299999V0209991C00001004501CN0100001N9+01611+01391999999ADDAY121031GF108991081001004501051999MD1210031+9999MW1021
0079375530999991971052912004+41933+045383FM-12+056299999V0209991C00001012301CN0100001N9+01611+01221104971ADDAA106087091AA299022091AY161061GF108991081061012501999999MD1710081+9999MW1021
0057375530999991971052915004+41933+045383FM-12+056299999V0209991C00001012301CN0100001N9+01611+01391104891ADDAY121031GF108991081061012501999999MD1710081+9999MW1011
0051375530999991971053003004+41933+045383FM-12+056299999V0202301N00101012301CN9999999N9+01391+01111104831ADDAY121031GF199999081061012501001011MD1710041+9999
0057375530999991971053009004+41933+045383FM-12+056299999V0200901N00101012301CN0100001N9+02111+01221104831ADDAY121031GF108991071051012501031001MD1710101+9999MW1031
0111375530999991971053012004+41933+045383FM-12+056299999V0202701N00101015001CN0200001N9+01781+01111104881ADDAA106008091AA299002091AY121061GF106991061011017501001001KA1999M+99999MD1210051+9999MW1031EQDQ01 +01392ATMX  
0100375530999991971053018004+41933+045383FM-12+056299999V0200901N00101012301CN0200001N9+01611+01501104891ADDAA199999999AY191061GF108991081061012501999999KA1999M+02281MD1210191+9999MW1951EQDQ01  00002PRCP99
0057375530999991971053021004+41933+045383FM-12+056299999V0209991C00001012301CN0200001N9+01611+01391104811ADDAY121031GF108991081051012501999999MD1710081+9999MW1031
0092375530999991971053106004+41933+045383FM-12+056299999V0200901N00101012301CN0200001N9+01501+00891999999ADDAA106024091AA299006091AY121061GF108991081051012501999999KA1999N+01391MD1710011+9999MW1021
0068375530999991971053112004+41933+045383FM-12+056299999V0200501N00211220001CN0200001N9+02221+01501104761ADDAA199000091AY101061GF101991011011012501001001MD1710231+9999MW1021
0081375530999991971053118004+41933+045383FM-12+056299999V0201801N001019999999N0100001N9+01781+01501104851ADDAA199000091AY111061GF108991999051012501001001KA1999M+02501MD1210161+9999MW1011
0057375530999991971053121004+41933+045383FM-12+056299999V0209991C00001220001CN0200001N9+01781+01501104891ADDAY111031GF108991001001999999999999MD1210041+9999MW1031
0068375530999991971060100004+41933+045383FM-12+056299999V0201801N00211220001CN0200001N9+01721+01391104861ADDAA199000091AY121061GF108991001001999999031011MD1710031+9999MW1021
0057375530999991971060103004+41933+045383FM-12+056299999V0201801N00101220001CN0200001N9+01721+01391104801ADDAY111031GF103991001001999999031011MD1710061+9999MW1011
0081375530999991971060106004+41933+045383FM-12+056299999V0200901N00101090001CN0200001N9+01891+01391104741ADDAA199000091AY111061GF106991021011012501001091KA1999N+01501MD1710061+9999MW1031
0051375530999991971060109004+41933+045383FM-12+056299999V0200901N001019999999N0002001N9+02111+01391104641ADDAY111031GF199999021011012501011001MD1710101+9999
0068375530999991971060112004+41933+045383FM-12+056299999V0200901N00211220001CN0200001N9+02281+01501104341ADDAA199000091AY111061GF102991021011012501001001MD1710301+9999MW1011
0092375530999991971060118004+41933+045383FM-12+056299999V0209991C00001007801CN0100001N9+01891+01611104431ADDAA106075091AA224999999AY111061GF108991081001008001999999KA1999M+02281MD1210011+9999MW1901
0057375530999991971060121004+41933+045383FM-12+056299999V0209991C00001007801CN0100001N9+01721+01611104521ADDAY161031GF108991081001008001999999MD1210091+9999MW1611
0079375530999991971060200004+41933+045383FM-12+056299999V0209991C00001012301CN0200001N9+01611+01501104501ADDAA106024091AA299006091AY161061GF108991081041012501999999MD1710051+9999MW1031
0057375530999991971060203004+41933+045383FM-12+056299999V0209991C00001007801CN0200001N9+01611+01501104501ADDAY161031GF108991081001008001999999MD1410001+9999MW1611
0092375530999991971060206004+41933+045383FM-12+056299999V0202701N00101015001CN0500001N9+01611+01221104641ADDAA106024091AA299006091AY161061GF107991051051017501031001KA1999N+01611MD1210141+9999MW1011
0079375530999991971060212004+41933+045383FM-12+056299999V0202701N00211036001CN0500001N9+01501+01111104751ADDAA106083091AA299021091AY191061GF107991021051017501031001MD1210091+9999MW1951
0092375530999991971060218004+41933+045383FM-12+056299999V0201801N00101036001CN0200001N9+01501+01221104891ADDAA106059091AA299015091AY121061GF106991041051012501031001KA1999M+02001MD1210141+9999MW1021
0068375530999991971060300004+41933+045383FM-12+056299999V0201801N00101000601CN0200001N9+01391+01221104911ADDAA199000091AY111061GF108991081051000751999999MD1210011+9999MW1031
0100375530999991971060306004+41933+045383FM-12+056299999V0201601N00311007801CN0200001N9+01611+01111999999ADDAA199999999AY161061GF108991081051008001999999KA1999N+01281MD1210011+9999MW1611EQDQ01  00002PRCP99
0057375530999991971060309004+41933+045383FM-12+056299999V0201401N00311012301CN0500001N9+01781+01001104991ADDAY161031GF107991071051012501001001MD1710021+9999MW1011
0079375530999991971060312004+41933+045383FM-12+056299999V0201101N00101012301CN0500001N9+02001+00891104851ADDAA106075091AA224999999AY121061GF106991061091012501001001MD1610141+9999MW1011
0057375530999991971060315004+41933+045383FM-12+056299999V0209991C00001015001CN0500001N9+02001+00891104771ADDAY121031GF107991071051017501001001MD1710081+9999MW1031
0092375530999991971060318004+41933+045383FM-12+056299999V0202501N00101015001CN0200001N9+01611+01221104791ADDAA106075091AA224999999AY121061GF107991071051017501001001KA1999M+02111MD1210021+9999MW1021
0057375530999991971060321004+41933+045383FM-12+056299999V0209991C00001015001CN0200001N9+01501+01221104721ADDAY121031GF107991071051017501001001MD1710071+9999MW1021
0068375530999991971060400004+41933+045383FM-12+056299999V0209991C00001015001CN0200001N9+01501+01111104701ADDAA199000091AY121061GF107991071051017501001001MD1710021+9999MW1021
0057375530999991971060403004+41933+045383FM-12+056299999V0202901N00101015001CN0500001N9+01391+01281104711ADDAY121031GF107991071051017501001001MD1210011+9999MW1021
0081375530999991971060406004+41933+045383FM-12+056299999V0202701N00101015001CN0200001N9+01721+01111104611ADDAA199000091AY121061GF108991999051017501001001KA1999N+01391MD1710101+9999MW1021
0057375530999991971060409004+41933+045383FM-12+056299999V0200901N00101015001CN0200001N9+01891+01221104611ADDAY121031GF108991999051017501001001MD1410001+9999MW1021
0057375530999991971060415004+41933+045383FM-12+056299999V0209991C00001007801CN0200001N9+02001+01111104421ADDAY121031GF108991081051008001999999MD1710091+9999MW1031
0070375530999991971060418004+41933+045383FM-12+056299999V0200901N00101007801CN0200001N9+01611+01221104561ADDAY121061GF108991081051008001999999KA1999M+02001MD1210101+9999MW1031
0079375530999991971060500004+41933+045383FM-12+056299999V0202701N00101012301CN0200001N9+01391+01281104671ADDAA106002091AA299000591AY161061GF108991081011012501999999MD1210101+9999MW1611
0057375530999991971060503004+41933+045383FM-12+056299999V0202701N00101012301CN0200001N9+01391+01281104671ADDAY161031GF108991081001012501021999MD1410001+9999MW1611
0092375530999991971060506004+41933+045383FM-12+056299999V0209991C00001001501CN0200001N9+01391+01281104741ADDAA106008091AA299002091AY161061GF108991081001001501021999KA1999N+01391MD1210071+9999MW1611
0057375530999991971060509004+41933+045383FM-12+056299999V0202301N00101007801CN0200001N9+01611+01281104711ADDAY161031GF108991081041008001999999MD1710031+9999MW1011
0079375530999991971060512004+41933+045383FM-12+056299999V0202701N00101090001CN0500001N9+01891+01111104511ADDAA106004091AA299001091AY121061GF105991021011008001011011MD1710201+9999MW1011
0057375530999991971060515004+41933+045383FM-12+056299999V0209991C00001036001CN0500001N9+02001+01111104501ADDAY191031GF106991031031008001011001MD1710011+9999MW1031
0092375530999991971060518004+41933+045383FM-12+056299999V0202701N00101012301CN0200001N9+01721+01221104561ADDAA106004091AA299001091AY121061GF106991061051012501001001KA1999M+02001MD1210061+9999MW1031
0057375530999991971060521004+41933+045383FM-12+056299999V0209991C00001012301CN0200001N9+01611+01221104551ADDAY121031GF108991081051012501999999MD1710011+9999MW1031
0068375530999991971060600004+41933+045383FM-12+056299999V0209991C00001220001CN0200001N9+01501+01001104501ADDAA199000091AY121061GF104991041051012501001001MD1710051+9999MW1011
0057375530999991971060603004+41933+045383FM-12+056299999V0202301N00101220001CN0500001N9+01611+01111104591ADDAY121031GF103991999061999999001001MD1210011+9999MW1011
0081375530999991971060606004+41933+045383FM-12+056299999V0202701N00211036001CN0500001N9+01891+01111104531ADDAA199000091AY161061GF105991041051017501031001KA1999N+01391MD1210021+9999MW1031
0057375530999991971060609004+41933+045383FM-12+056299999V0200501N00101036001CN0500001N9+02221+01111104521ADDAY121031GF105991021021017501031001MD1710011+9999MW1021
0068375530999991971060612004+41933+045383FM-12+056299999V0200901N00211036001CN0500001N9+02391+00781104461ADDAA199000091AY121061GF105991031091017501031001MD1710061+9999MW1171
0057375530999991971060615004+41933+045383FM-12+056299999V0202701N00101036001CN0500001N9+02001+01391104471ADDAY191031GF106991031051017501031001MD1210011+9999MW1031
0092375530999991971060618004+41933+045383FM-12+056299999V0201801N00211220001CN0200001N9+01611+01111104541ADDAA106075091AA224999999AY111061GF102991999001999999031001KA1999M+02501MD1210071+9999MW1011
0057375530999991971060621004+41933+045383FM-12+056299999V0201801N00101012301CN0200001N9+01721+01001104521ADDAY111031GF107991061051012501031001MD1710021+9999MW1031
0068375530999991971060700004+41933+045383FM-12+056299999V0201801N00211036001CN0200001N9+01721+01001104501ADDAA199000091AY121061GF107991031051012501031001MD1710021+9999MW1021
0081375530999991971060706004+41933+045383FM-12+056299999V0202701N00101015001CN0500001N9+02111+01281104601ADDAA199000091AY121061GF107991051051017501031001KA1999N+01611MD1210071+9999MW1021
0057375530999991971060709004+41933+045383FM-12+056299999V0200901N00101036001CN0200001N9+02281+01111104571ADDAY121031GF106991021021017501031001MD1710031+9999MW1031
0079375530999991971060712004+41933+045383FM-12+056299999V0202701N00101012301CN0100001N9+01721+01281104681ADDAA106004091AA299001091AY191061GF107991071091012501001001MD1210111+9999MW1951
0057375530999991971060718004+41933+045383FM-12+056299999V0202701N00101220001CN0200001N9+01611+01221104871ADDAY111061GF102991999001999999031001MD1710091+9999MW1011
0068375530999991971060800004+41933+045383FM-12+056299999V0202701N00101220001CN0200001N9+01391+00891104631ADDAA199000091AY101061GF100991001001999999001001MD1710091+9999MW1011
0057375530999991971060806004+41933+045383FM-12+056299999V0202701N00101220001CN0500001N9+02111+01281104801ADDAY111061GF102991021011017501001001MD1710011+9999MW1011
0057375530999991971060809004+41933+045383FM-12+056299999V0200701N00411220001CN0500001N9+02391+01501104761ADDAY101031GF102991021021017501001001MD1710041+9999MW1021
0068375530999991971060812004+41933+045383FM-12+056299999V0203601N00101220001CN0500001N9+02611+01221104671ADDAA199000091AY101061GF103991021021017501031011MD1710091+9999MW1031
0057375530999991971060815004+41933+045383FM-12+056299999V0201101N00101036001CN0500001N9+02501+01391104621ADDAY121031GF107991021011017501031011MD1710051+9999MW1031
0081375530999991971060818004+41933+045383FM-12+056299999V0202301N00101036001CN0200001N9+02001+01391104771ADDAA199000091AY121061GF105991021051017501031001KA1999M+02781MD1210151+9999MW1011
0057375530999991971060821004+41933+045383FM-12+056299999V0201801N00101036001CN0200001N9+01891+01281104821ADDAY121031GF106991021051017501031001MD1210051+9999MW1031
0057375530999991971060906004+41933+045383FM-12+056299999V0209991C00001220001CN0500001N9+02281+01391104751ADDAY121061GF105991011011012501031091MD1410001+9999MW1031
0057375530999991971060909004+41933+045383FM-12+056299999V0201101N00311220001CN0500001N9+02611+01611104751ADDAY111031GF103991021021017501031091MD1410001+9999MW1031
0068375530999991971060912004+41933+045383FM-12+056299999V0201101N00311220001CN0500001N9+02781+01221104611ADDAA199000091AY101061GF102991021011017501031001MD1810141+9999MW1011
0057375530999991971060915004+41933+045383FM-12+056299999V0200901N00101036001CN0500001N9+02721+01501104611ADDAY101031GF106991021031012501031001MD1410001+9999MW1031
0081375530999991971060918004+41933+045383FM-12+056299999V0202301N00211220001CN0200001N9+02221+01391104681ADDAA199000091AY121061GF102991021051012501001001KA1999M+02781MD1210071+9999MW1011
0057375530999991971060921004+41933+045383FM-12+056299999V0202101N00101220001CN0500001N9+02001+01281104711ADDAY121031GF102991021051012501001001MD1210031+9999MW1021
0068375530999991971061000004+41933+045383FM-12+056299999V0202301N00101220001CN0200001N9+01781+01281104711ADDAA199000091AY101061GF102991021051012501001001MD1710101+9999MW1011
0081375530999991971061006004+41933+045383FM-12+056299999V0202701N00311036001CN0500001N9+02391+01501104611ADDAA199000091AY121061GF105991031051017501031011KA1999N+01781MD1210031+9999MW1021
0057375530999991971061009004+41933+045383FM-12+056299999V0202701N00211220001CN0500001N9+02781+01111104501ADDAY111031GF102991011011017501031011MD1710111+9999MW1011
0068375530999991971061012004+41933+045383FM-12+056299999V0200901N00311220001CN0500001N9+03001+01001104371ADDAA199000091AY101061GF102991011011017501031011MD1710131+9999MW1021
0057375530999991971061015004+41933+045383FM-12+056299999V0202701N00511220001CN0500001N9+02611+01221104361ADDAY101031GF102991011011017501031011MD1710011+9999MW1021
0057375530999991971061021004+41933+045383FM-12+056299999V0202701N00211036001CN0500001N9+02001+01111104421ADDAY121031GF106991031051012501031001MD1710011+9999MW1021
0068375530999991971061100004+41933+045383FM-12+056299999V0202701N00821012301CN0200001N9+01891+01001104431ADDAA199000091AY121061GF106991061051012501001001MD1210011+9999MW1021
0057375530999991971061103004+41933+045383FM-12+056299999V0202701N00821036001CN0500001N9+02001+01001104461ADDAY121031GF106991041051017501031001MD1210031+9999MW1021
0116375530999991971061106004+41933+045383FM-12+056299999V0200901N00101012301CN0200001N9+01721+01391104821ADDAA199999999AY161061GF108991081001012501021999KA1999N+99999MD1210361+9999MW1611EQDQ01  00002PRCP99Q02 +01892ATMN  
0057375530999991971061109004+41933+045383FM-12+056299999V0202701N00101012301CN0500001N9+02221+01001104671ADDAY121031GF107991999051012501001001MD1710151+9999MW1031
0079375530999991971061112004+41933+045383FM-12+056299999V0202701N00101012301CN0200001N9+02111+01391104621ADDAA106075091AA224999999AY161061GF108991081001012501021999MD1210051+9999MW1611
0092375530999991971061118004+41933+045383FM-12+056299999V0202701N00101015001CN0200001N9+01781+01221104671ADDAA106075091AA224999999AY121061GF106991061011017501001001KA1999M+02391MD1210011+9999MW1031
0068375530999991971061200004+41933+045383FM-12+056299999V0202701N00101012301CN0200001N9+01611+01221104631ADDAA199000091AY121061GF107991061051012501031001MD1410001+9999MW1031
0057375530999991971061203004+41933+045383FM-12+056299999V0202701N00101012301CN0200001N9+01781+01111104681ADDAY121031GF108991081051012501999999MD1210051+9999MW1031
0081375530999991971061206004+41933+045383FM-12+056299999V0202901N00411036001CN0500001N9+02221+01391104681ADDAA199000091AY121061GF107991041051017501031001KA1999N+01501MD1210011+9999MW1011
0057375530999991971061209004+41933+045383FM-12+056299999V0203201N00511036001CN0500001N9+02501+01221104621ADDAY121031GF106991021051012501031001MD1710061+9999MW1011
0068375530999991971061212004+41933+045383FM-12+056299999V0200201N00101220001CN0500001N9+02721+01281104601ADDAA199000091AY121061GF104991021051017501031001MD1710021+9999MW1011
0057375530999991971061215004+41933+045383FM-12+056299999V0209991C00001036001CN0500001N9+02501+01501104641ADDAY121031GF107991021051017501031001MD1210041+9999MW1031
0081375530999991971061218004+41933+045383FM-12+056299999V0202301N00211015001CN0200001N9+02111+01221104831ADDAA199000091AY121061GF107991071051017501001001KA1999M+02781MD1210191+9999MW1031
0057375530999991971061221004+41933+045383FM-12+056299999V0202901N00211015001CN0200001N9+02001+01281104831ADDAY101031GF107991071051017501001001MD1410001+9999MW1021
0068375530999991971061300004+41933+045383FM-12+056299999V0203601N00101220001CN0200001N9+01781+01221104731ADDAA199000091AY111061GF103991021051017501031001MD1710101+9999MW1011
0057375530999991971061303004+41933+045383FM-12+056299999V0209991C00001220001CN0500001N9+01891+01281104731ADDAY101031GF102991999001999999031001MD1410001+9999MW1011
0081375530999991971061306004+41933+045383FM-12+056299999V0203201N00101220001CN0500001N9+02501+01001104711ADDAA199000091AY101061GF101991011011017501001001KA1999N+01721MD1710021+9999MW1011
0057375530999991971061309004+41933+045383FM-12+056299999V0200501N00101220001CN0500001N9+02781+01221104651ADDAY121031GF102991021031012501001001MD1710061+9999MW1031
0068375530999991971061312004+41933+045383FM-12+056299999V0209991C00001220001CN0500001N9+02891+01221104611ADDAA199000091AY101061GF102991021021012501001001MD1710041+9999MW1021
0057375530999991971061315004+41933+045383FM-12+056299999V0209991C00001220001CN0500001N9+02891+01391104571ADDAY101031GF101991011021012501001001MD1710041+9999MW1011
0081375530999991971061318004+41933+045383FM-12+056299999V0202301N00211220001CN0200001N9+02221+01221104701ADDAA199000091AY101061GF101991011051012501001001KA1999M+02891MD1210131+9999MW1021
0057375530999991971061321004+41933+045383FM-12+056299999V0202701N00101220001CN0200001N9+02001+01111104711ADDAY101031GF101991011051012501001001MD1210011+9999MW1021
0057375530999991971061400004+41933+045383FM-12+056299999V0209991C00001220001CN0200001N9+02001+01281104771ADDAY101061GF100991001001999999001001MD1210051+9999MW1011
0081375530999991971061406004+41933+045383FM-12+056299999V0203201N00211220001CN0500001N9+02391+01391104761ADDAA199000091AY101061GF101991011011017501001001KA1999N+01781MD1710011+9999MW1031
0057375530999991971061409004+41933+045383FM-12+056299999V0200501N00211220001CN0500001N9+02781+01391104731ADDAY101031GF102991021021017501001001MD1710031+9999MW1031
0068375530999991971061412004+41933+045383FM-12+056299999V0209991C000019999999N0500001N9+02781+01391104591ADDAA199000091AY111061GF106991041061017501999999MD1710141+9999MW1031
0057375530999991971061415004+41933+045383FM-12+056299999V0202701N00101036001CN0500001N9+02781+01501104511ADDAY121031GF106991011011017501031011MD1710081+9999MW1021
0081375530999991971061418004+41933+045383FM-12+056299999V0202701N00101220001CN0200001N9+02221+01611104601ADDAA199000091AY111061GF101991011051012501001001KA1999M+03001MD1210091+9999MW1011
0081375530999991971061506004+41933+045383FM-12+056299999V0202701N00101036001CN0500001N9+02001+01501104911ADDAA199000091AY121061GF106991041051008001031001KA1999N+01611MD1710031+9999MW1031
0057375530999991971061509004+41933+045383FM-12+056299999V0202701N00101220001CN0500001N9+02221+01281104901ADDAY111031GF104991041011017501001001MD1710011+9999MW1011
0079375530999991971061512004+41933+045383FM-12+056299999V0203401N00721220001CN0500001N9+02391+01281104831ADDAA106039091AA299010091AY101061GF103991021021017501031091MD1710071+9999MW1011
0081375530999991971061518004+41933+045383FM-12+056299999V0202701N00101220001CN0200001N9+01781+01111999999ADDAA199000091AY101061GF103991031011017501001001KA1999M+02501MD1310281+9999MW1011
0057375530999991971061521004+41933+045383FM-12+056299999V0202701N00101220001CN0200001N9+01781+01001999999ADDAY101031GF100991001001999999001001MD1710071+9999MW1011
0068375530999991971061600004+41933+045383FM-12+056299999V0200901N00101220001CN0200001N9+01501+01001999999ADDAA199000091AY101061GF100991001001999999001001MD1210051+9999MW1011
0057375530999991971061603004+41933+045383FM-12+056299999V0202701N00101220001CN0500001N9+01611+01111999999ADDAY111031GF102991021011017501001001MD1210071+9999MW1011
0081375530999991971061606004+41933+045383FM-12+056299999V0203601N00211015001CN0500001N9+02001+01111999999ADDAA199000091AY111061GF106991061021017501001001KA1999N+01501MD1210211+9999MW1031
0057375530999991971061609004+41933+045383FM-12+056299999V0200901N00101012301CN0500001N9+02221+01281999999ADDAY121031GF106991061041012501001001MD1710071+9999MW1021
0068375530999991971061612004+41933+045383FM-12+056299999V0201401N00101012301CN0500001N9+02281+01281999999ADDAA199000091AY121061GF106991061021012501001001MD1710061+9999MW1021
0057375530999991971061615004+41933+045383FM-12+056299999V0201401N00311012301CN0200001N9+02221+01221999999ADDAY121031GF106991061021012501001001MD1210061+9999MW1021
0081375530999991971061618004+41933+045383FM-12+056299999V0209991C00001220001CN0200001N9+01611+01391999999ADDAA199000091AY121061GF104991041051012501001001KA1999M+02281MD1210271+9999MW1011
0068375530999991971061700004+41933+045383FM-12+056299999V0209991C00001012301CN0100001N9+01501+01281999999ADDAA199000091AY121061GF108991081051012501999999MD1210011+9999MW1021
0081375530999991971061706004+41933+045383FM-12+056299999V0200201N00101220001CN0500001N9+01891+01391999999ADDAA199000091AY111061GF102991021051017501001001KA1999N+01501MD1710091+9999MW1011
0057375530999991971061709004+41933+045383FM-12+056299999V0200901N00411015001CN0500001N9+02281+01221999999ADDAY111031GF105991051011017501001001MD1710231+9999MW1031
0068375530999991971061712004+41933+045383FM-12+056299999V0200901N00101220001CN0500001N9+02391+01221999999ADDAA199000091AY111061GF102991021021017501001001MD1710181+9999MW1011
0057375530999991971061715004+41933+045383FM-12+056299999V0200701N00101220001CN0500001N9+02391+01221999999ADDAY101031GF102991021021017501001001MD1710111+9999MW1021
0081375530999991971061718004+41933+045383FM-12+056299999V0202901N00211220001CN0200001N9+02111+00001999999ADDAA199000091AY101061GF101991011051017501031001KA1999M+02611MD1210061+9999MW1011
0057375530999991971061721004+41933+045383FM-12+056299999V0202701N00721036001CN0200001N9+02001-00221999999ADDAY121031GF106991021051017501031011MD1710021+9999MW1031
0068375530999991971061800004+41933+045383FM-12+056299999V0202901N00101036001CN0200001N9+01611+00281999999ADDAA199000091AY121061GF106991021051017501031001MD1710051+9999MW1021
0057375530999991971061803004+41933+045383FM-12+056299999V0202901N00211015001CN0500001N9+01611+00781104971ADDAY121031GF106991051051017501031001MD1710031+9999MW1031
0081375530999991971061806004+41933+045383FM-12+056299999V0202701N00511220001CN0500001N9+01891+00611104981ADDAA199000091AY111061GF102991021051017501031001KA1999N+01391MD1210011+9999MW1011
0057375530999991971061809004+41933+045383FM-12+056299999V0202701N00871036001CN0500001N9+02111+00501104961ADDAY111031GF106991011011017501031001MD1710021+9999MW1031
0068375530999991971061812004+41933+045383FM-12+056299999V0202701N00311090001CN0500001N9+02221+00781104911ADDAA199000091AY111061GF105991011011017501031011MD1710051+9999MW1021
0057375530999991971061815004+41933+045383FM-12+056299999V0202701N00511090001CN0500001N9+01891+00501104911ADDAY121031GF105991011011017501031011MD1410001+9999MW1021
0081375530999991971061818004+41933+045383FM-12+056299999V0202701N00311220001CN0200001N9+01611+00281104981ADDAA199000091AY111061GF101991011011012501001001KA1999M+02281MD1210071+9999MW1011
0057375530999991971061821004+41933+045383FM-12+056299999V0202701N00101012301CN0200001N9+01501+00781104801ADDAY121031GF106991061051012501001001MD1710071+9999MW1031
0068375530999991971061900004+41933+045383FM-12+056299999V0202701N00311036001CN0200001N9+01391+00281999999ADDAA199000091AY111061GF106991031051012501031001MD1210051+9999MW1031
0081375530999991971061906004+41933+045383FM-12+056299999V0202701N00101220001CN0500001N9+01721+00391999999ADDAA199000091AY111061GF102991021011012501001001KA1999N+01281MD1210101+9999MW1011
0068375530999991971061912004+41933+045383FM-12+056299999V0200901N00101015001CN0500001N9+02111+00611999999ADDAA199000091AY111061GF107991071011017501001001MD1410001+9999MW1031
0081375530999991971061918004+41933+045383FM-12+056299999V0202701N00101220001CN0200001N9+01501+00721104871ADDAA199000091AY111061GF103991031011017501001001KA1999M+02221MD1710201+9999MW1011
0057375530999991971061921004+41933+045383FM-12+056299999V0202701N00101012301CN0200001N9+01501+00781104801ADDAY121031GF106991061051012501001001MD1710071+9999MW1031
0068375530999991971062000004+41933+045383FM-12+056299999V0202701N00101012301CN0200001N9+01391+00501104711ADDAA199000091AY121061GF105991051051012501001001MD1710091+9999MW1031
0057375530999991971062003004+41933+045383FM-12+056299999V0202701N00101012301CN0200001N9+01391+01001104611ADDAY121031GF108991061051012501031001MD1410001+9999MW1031
0081375530999991971062006004+41933+045383FM-12+056299999V0202701N00101036001CN0500001N9+01721+01001104551ADDAA199000091AY121061GF106991021051012501031001KA1999N+01391MD1710161+9999MW1011
0057375530999991971062009004+41933+045383FM-12+056299999V0200501N00101220001CN0500001N9+02391+00781104241ADDAY121031GF101991011001002501061001MD1510311+9999MW1011
0079375530999991971062012004+41933+045383FM-12+056299999V0202701N00211007801CN0500001N9+01891+01281104181ADDAA106012091AA299003091AY161061GF108991081001008001021999MD1710061+9999MW1611
0092375530999991971062018004+41933+045383FM-12+056299999V0203201N00101012301CN0200001N9+01891+01281104171ADDAA106016091AA299004091AY121061GF106991061051012501001001KA1999M+02391MD1210081+9999MW1011
0057375530999991971062021004+41933+045383FM-12+056299999V0203201N00101220001CN0200001N9+01781+01221104031ADDAY121031GF103991031041012501001001MD1710141+9999MW1011
0068375530999991971062100004+41933+045383FM-12+056299999V0203201N00101220001CN0200001N9+01501+01001103981ADDAA199000091AY101061GF103991999001999999031001MD1710051+9999MW1011
0057375530999991971062103004+41933+045383FM-12+056299999V0202901N001019999999N0500001N9+01501+01111103951ADDAY101031GF107991999041012501001001MD1710031+9999MW1031
0081375530999991971062106004+41933+045383FM-12+056299999V0202701N00311220001CN0500001N9+02111+01221103901ADDAA199000091AY111061GF102991011011017501031001KA1999N+01391MD1710051+9999MW1011
0057375530999991971062109004+41933+045383FM-12+056299999V0203201N00511015001CN0500001N9+02221+01001103871ADDAY111031GF107991061051017501031001MD1710031+9999MW1031
0079375530999991971062112004+41933+045383FM-12+056299999V0202701N00311036001CN0500001N9+01781+01001104261ADDAA106075091AA224999999AY181061GF106991041051017501031001MD1210391+9999MW1011
0057375530999991971062115004+41933+045383FM-12+056299999V0202701N00411220001CN0500001N9+01721+00501104401ADDAY111031GF102991021051017501001001MD1210141+9999MW1011
0092375530999991971062118004+41933+045383FM-12+056299999V0202701N00211220001CN0200001N9+01501+00501104671ADDAA106075091AA224999999AY101061GF101991011051012501001001KA1999M+02281MD1210271+9999MW1011
0068375530999991971062200004+41933+045383FM-12+056299999V0202701N00311220001CN0200001N9+01221+00781104771ADDAA199000091AY101061GF100991001001999999001001MD1210101+9999MW1021
0057375530999991971062203004+41933+045383FM-12+056299999V0202701N00211220001CN0500001N9+01281+00501104891ADDAY101031GF100991001001999999001001MD1210121+9999MW1021
0081375530999991971062206004+41933+045383FM-12+056299999V0202701N00101220001CN0500001N9+01721+00721104981ADDAA199000091AY101061GF103991031011017501001001KA1999N+01111MD1210091+9999MW1011
0057375530999991971062209004+41933+045383FM-12+056299999V0200901N00101220001CN0500001N9+02001+00721999999ADDAY101031GF104991021011017501031001MD1210221+9999MW1011
0068375530999991971062212004+41933+045383FM-12+056299999V0200901N00101015001CN0500001N9+02111+00611999999ADDAA199000091AY121061GF106991061011017501001001MD1710041+9999MW1031
0057375530999991971062215004+41933+045383FM-12+056299999V0200901N00101220001CN0500001N9+02221+00721999999ADDAY101031GF102991021021017501001001MD1410001+9999MW1011
0081375530999991971062218004+41933+045383FM-12+056299999V0203601N00101220001CN0200001N9+01721+00781999999ADDAA199000091AY101061GF102991021011017501001001KA1999M+02281MD1210031+9999MW1011
0068375530999991971062300004+41933+045383FM-12+056299999V0200901N00101220001CN0200001N9+01281+00781999999ADDAA199000091AY111061GF103991031011017501001001MD1410001+9999MW1011
0057375530999991971062303004+41933+045383FM-12+056299999V0202701N00101015001CN0200001N9+01501+00891999999ADDAY121031GF106991061011017501001001MD1410001+9999MW1031
0081375530999991971062306004+41933+045383FM-12+056299999V0200501N00101012301CN0500001N9+01891+01001999999ADDAA199000091AY121061GF107991071051012501001001KA1999N+01281MD1210041+9999MW1031
0068375530999991971062312004+41933+045383FM-12+056299999V0209991C00001220001CN0500001N9+02281+01111104951ADDAA199000091AY121061GF104991041021012501001001MD1710111+9999MW1011
0057375530999991971062315004+41933+045383FM-12+056299999V0209991C00001012301CN0500001N9+02281+01221104881ADDAY121031GF108991999021012501041001MD1710061+9999MW1031
0081375530999991971062318004+41933+045383FM-12+056299999V0202301N00211220001CN0200001N9+01891+01001104941ADDAA199000091AY121061GF104991021051012501041001KA1999M+02281MD1210061+9999MW1011
0068375530999991971062400004+41933+045383FM-12+056299999V0202701N00211220001CN9999999N9+01501+00781104881ADDAA199000091AY121061GF199999031051017501001001MD1710101+9999MW1121
0081375530999991971062406004+41933+045383FM-12+056299999V0203201N00101220001CN0500001N9+02111+01111104811ADDAA199000091AY101061GF102991021021012501001001KA1999N+01281MD1710081+9999MW1011
0068375530999991971062412004+41933+045383FM-12+056299999V0200501N00101220001CN0500001N9+02721+01111104361ADDAA199000091AY101061GF102991011021017501031001MD1710211+9999MW1011
0057375530999991971062415004+41933+045383FM-12+056299999V0202901N00621220001CN0500001N9+02721+00611104331ADDAY101031GF101991011021017501001001MD1710061+9999MW1011
0081375530999991971062418004+41933+045383FM-12+056299999V0202901N00101220001CN0200001N9+02221+00501104491ADDAA199000091AY101061GF100991001001999999001001KA1999M+02781MD1210191+9999MW1011
0068375530999991971062500004+41933+045383FM-12+056299999V0202901N00101220001CN0200001N9+01891+00391104511ADDAA199000091AY101061GF100991001001999999001001MD1210021+9999MW1021
0057375530999991971062503004+41933+045383FM-12+056299999V0202901N00821220001CN0500001N9+01891+00721104621ADDAY101031GF100991001001999999001001MD1210121+9999MW1021
0081375530999991971062506004+41933+045383FM-12+056299999V0203201N00411220001CN0500001N9+02221+01221104651ADDAA199000091AY101061GF100991001001999999001001KA1999N+01611MD1710301+9999MW1021
0057375530999991971062509004+41933+045383FM-12+056299999V0200901N00101220001CN0500001N9+02281+01001104631ADDAY101031GF102991021051008001031001MD1210021+9999MW1021
0068375530999991971062512004+41933+045383FM-12+056299999V0200901N00101036001CN0500001N9+02611+01001104671ADDAA199000091AY111061GF106991041051017501031001MD1210011+9999MW1031
0057375530999991971062515004+41933+045383FM-12+056299999V0200901N00211220001CN0500001N9+02501+01001104691ADDAY101031GF103991021051017501031001MD1210031+9999MW1011
0081375530999991971062518004+41933+045383FM-12+056299999V0209991C00001036001CN0200001N9+02221+01221104871ADDAA199000091AY121061GF106991031051012501031001KA1999M+02721MD1210181+9999MW1031
0043375530999991971062521004+41933+045383FM-12+056299999V0200901N00311220001CN0200001N9+02001+01221999999ADDAY121031GF105991999001999999031001MW1011
0068375530999991971062600004+41933+045383FM-12+056299999V0201401N00101220001CN0100001N9+99999+99999999999ADDAA199000091AY111061GF107991999001999999031001MD1210101+9999MW1031
0081375530999991971062606004+41933+045383FM-12+056299999V0209991C00001015001CN0200001N9+01891+01221999999ADDAA199000091AY121061GF108991081051017501999999KA1999N+01721MD1210051+9999MW1031
0068375530999991971062612004+41933+045383FM-12+056299999V0200701N00101220001CN0200001N9+02501+01221999999ADDAA199000091AY121061GF102991021021012501001001MD1710221+9999MW1011
0057375530999991971062615004+41933+045383FM-12+056299999V0209991C00001220001CN0200001N9+02391+01001104871ADDAY101031GF104991011021017501011011MD1710131+9999MW1031
0081375530999991971062618004+41933+045383FM-12+056299999V0202301N00101012301CN0200001N9+02001+01221104991ADDAA199000091AY121061GF106991061051012501001001KA1999M+02501MD1210121+9999MW1031
0043375530999991971062700004+41933+045383FM-12+056299999V0209991C00001012301CN0200001N9+01891+01221999999ADDAY121061GF108991081041012501999999MW1031
0081375530999991971062706004+41933+045383FM-12+056299999V0209991C00001012301CN0200001N9+02111+01281999999ADDAA199000091AY121061GF108991081051012501999999KA1999N+01611MD1210031+9999MW1021
0079375530999991971062712004+41933+045383FM-12+056299999V0200901N00101012301CN0200001N9+01891+01111104911ADDAA106075091AA224999999AY191061GF108991081001012501021999MD1710111+9999MW1611
0057375530999991971062806004+41933+045383FM-12+056299999V0200501N00101036001CN0500001N9+01781+01391104751ADDAY111061GF106991011011017501031001MD1710021+9999MW1011
0068375530999991971062812004+41933+045383FM-12+056299999V0200501N002119999999N0500001N9+01721+01221104431ADDAA199000091AY111061GF106991999011017501001001MD1710201+9999MW1011
0081375530999991971062818004+41933+045383FM-12+056299999V0201801N00101012301CN0200001N9+02111+01281104471ADDAA199000091AY111061GF107991051051012501031001KA1999M+02611MD1210121+9999MW1031
0068375530999991971062900004+41933+045383FM-12+056299999V0209991C00001012301CN0200001N9+01781+01391104441ADDAA199000091AY121061GF107991071051012501001001MD1710031+9999MW1021
0057375530999991971062903004+41933+045383FM-12+056299999V0209991C00001036001CN0500001N9+01781+01391104501ADDAY121031GF107991021051017501031001MD1210061+9999MW1021
0081375530999991971062906004+41933+045383FM-12+056299999V0200501N00101036001CN0200001N9+02001+01391104551ADDAA199000091AY121061GF108991041051012501031001KA1999N+01781MD1210051+9999MW1031
0057375530999991971062909004+41933+045383FM-12+056299999V0200901N00211012301CN0200001N9+02111+01281104551ADDAY121031GF108991061091012501031001MD1410001+9999MW1021
0068375530999991971062912004+41933+045383FM-12+056299999V0200901N00411220001CN0500001N9+02391+01221104411ADDAA199000091AY111061GF102991021011012501001001MD1710041+9999MW1011
0057375530999991971062915004+41933+045383FM-12+056299999V0200901N00211220001CN0500001N9+02391+01281104381ADDAY101031GF102991021011012501001001MD1710031+9999MW1011
0081375530999991971062918004+41933+045383FM-12+056299999V0202001N00101220001CN0200001N9+01781+01281104521ADDAA199000091AY101061GF102991021011017501001001KA1999M+02501MD1210141+9999MW1021
0068375530999991971063000004+41933+045383FM-12+056299999V0209991C00001012301CN0200001N9+01781+01391104621ADDAA199000091AY121061GF107991071051012501001001MD1210051+9999MW1031
0057375530999991971063003004+41933+045383FM-12+056299999V0201601N00101036001CN0500001N9+01721+01281104751ADDAY121031GF106991041051017501031001MD1210131+9999MW1011
0081375530999991971063006004+41933+045383FM-12+056299999V0200901N00101015001CN0200001N9+02221+01501104731ADDAA199000091AY121061GF106991051051017501031001KA1999N+01611MD1710021+9999MW1031
0057375530999991971063009004+41933+045383FM-12+056299999V0202701N00101012301CN0200001N9+02111+01501104751ADDAY161031GF108991081001012501021999MD1210021+9999MW1611
0057375530999991971063012004+41933+045383FM-12+056299999V0202701N00101012301CN0200001N9+02501+01501104631ADDAY121061GF108991081051012501999999MD1210011+9999MW1031
0092375530999991971063018004+41933+045383FM-12+056299999V0202701N00101220001CN0200001N9+02001+01391104821ADDAA106075091AA224999999AY111061GF103991031011017501001001KA1999M+02611MD1210191+9999MW1011
0057375530999991971063021004+41933+045383FM-12+056299999V0202701N00101220001CN0200001N9+01781+01391104821ADDAY101031GF100991001001999999001001MD1410001+9999MW1011
