0109375560999991971010303004+41733+045333FM-12+080699999V0203401N00211220001CN0200001N9+00501+99999103651ADDAA199000091AJ100009199999999AY101031GF100991001001999999001001HL10009IA1009IA2999+00009KA1999N+00501MW1021
0057375560999991971010409004+41733+045333FM-12+080699999V0203601N99999220001CN0010001N9+99999+99999102711ADDAY101031GF100991001001999999001001MD1710211+9999MW1101
0068375560999991971010500004+41733+045333FM-12+080699999V0203601N99999220001CN0200001N9+99999+99999103071ADDAA199000091AY101061GF100991001001999999001001MD1710011+9999MW1021
0068375560999991971010512004+41733+045333FM-12+080699999V0203001N99999220001CN0200001N9+99999+99999103131ADDAA199000091AY101061GF103991001001999999001011MD1610031+9999MW1021
0081375560999991971010518004+41733+045333FM-12+080699999V0209991C99999220001CN0200001N9+99999+99999103201ADDAA199000091AY101061GF100991001001999999001001KA1999M+02001MD1310071+9999MW1021
0068375560999991971010521004+41733+045333FM-12+080699999V0203401N00101220001CN0040001N9+99999+99999103721ADDAA199000091AY101031GF100991001001999999001001MD1210111+9999MW1401
0081375560999991971010603004+41733+045333FM-12+080699999V0200201N00101220001CN0040001N9+99999+99999103021ADDAA199000091AY101031GF100991001001999999001001KA1999N+00781MD1610021+9999MW1401
0043375560999991971010921004+41733+045333FM-12+080699999V0209991C00001002401CN0010001N9-00281+99999103251ADDAY121031GF108991081061002501999999MW1101
0068375560999991971011015004+41733+045333FM-12+080699999V0209991C99999220001CN0100001N9+99999+99999103031ADDAA199000091AY121031GF108991001001999999001071MD1210271+9999MW1021
0057375560999991971011021004+41733+045333FM-12+080699999V0209991C00001220001CN0100001N9-00221-00391103361ADDAY121031GF108991001001999999001071MD1210081+9999MW1021
0123375560999991971011203004+41733+045333FM-12+080699999V0203601N00211220001CN0200001N9-00221-00501102351ADDAA199000091AJ100009199999999AY101031GF100991001001999999001001HL10009IA1139IA2999-00509KA1999N-00391MD1710231+9999MW1021
0057375560999991971011318004+41733+045333FM-12+080699999V0203201N99999007801CN0200001N9+99999+99999101591ADDAY121061GF108991081061008001999999MD1710011+9999MW1021
0057375560999991971011321004+41733+045333FM-12+080699999V0203201N00721007801CN0200001N9+00501-00221101591ADDAY121031GF108991081061008001999999MD1710011+9999MW1021
0057375560999991971011518004+41733+045333FM-12+080699999V0209991C99999220001CN0002001N9+99999+99999102341ADDAY141061GF100991001001999999001001MD1710041+9999MW1441
0092375560999991971011703004+41733+045333FM-12+080699999V0203601N00311220001CN0200001N9-00721-01001102341ADDAA199000091AY101031GF100991001001999999001001HL10009IA1309IA2999-01119KA1999N-00721MW1021
0068375560999991971012200004+41733+045333FM-12+080699999V0203601N99999220001CN0200001N9+99999+99999102861ADDAA199000091AY101061GF100991001001999999001001MD1810031+9999MW1021
0043375560999991971012421004+41733+045333FM-12+080699999V0203601N00311220001CN0200001N9-00281-00781103421ADDAY101031GF100991001001999999001001MW1021
0068375560999991971012600004+41733+045333FM-12+080699999V0203601N99999220001CN0200001N9+99999+99999103141ADDAA199000091AY101061GF100991001001999999001001MD1210101+9999MW1021
0123375560999991971012603004+41733+045333FM-12+080699999V0203401N00311220001CN0200001N9-00611-01111103141ADDAA199000091AJ100009199999999AY101031GF100991001001999999001001HL10009IA1139IA2999-00789KA1999N-00611MD1410001+9999MW1021
0057375560999991971012718004+41733+045333FM-12+080699999V0203401N99999220001CN0100001N9+99999+99999102841ADDAY101061GF100991001001999999001001MD1310021+9999MW1021
0087375560999991971012803004+41733+045333FM-12+080699999V0203601N00311220001CN0200001N9-00611-00891102791ADDAA199000091AY101031GF100991001001999999001001IA1009KA1999N-00611MD1610101+9999MW1021
0104375560999991971012903004+41733+045333FM-12+080699999V0203601N00311220001CN0500001N9-00611-00891102741ADDAA199000091AJ100009199999999AY101031GF100991001001999999001001IA1139KA1999N-00721MD1510041+9999MW1021
0057375560999991971013021004+41733+045333FM-12+080699999V0203401N00101007801CN0100001N9+00001-00281102221ADDAY111031GF107991071061008001001001MD1710081+9999MW1031
0068375560999991971013100004+41733+045333FM-12+080699999V0203401N99999012301CN0100001N9+99999+99999102761ADDAA199000091AY111061GF106991061051012501001001MD1710061+9999MW1021
0123375560999991971013103004+41733+045333FM-12+080699999V0203401N00101220001CN0100001N9-00281-00391102741ADDAA199000091AJ100009199999999AY111031GF100991001001999999001001HL10009IA1139IA2999-00619KA1999N-00391MD1110021+9999MW1021
0057375560999991971013121004+41733+045333FM-12+080699999V0209991C00001007801CN0040001N9+00001+00001103341ADDAY121031GF108991081061008001999999MD1210011+9999MW1021
0079375560999991971020100004+41733+045333FM-12+080699999V0209991C00001007801CN0040001N9-00111-00221103341ADDAA106075091AA224999999AY121061GF108991081001008001021999MD1410001+9999MW1711
0134375560999991971020103004+41733+045333FM-12+080699999V0209991C000019999999N0002001N9-00111-00111103321ADDAA106001091AA299000391AJ100009199999999AY171031GF199999091999999999999999HL10009IA1189IA2999+00009KA1999N-00111MD1510021+9999MW1711
0057375560999991971020118004+41733+045333FM-12+080699999V0209991C99999002401CN0010001N9+99999+99999103181ADDAY171061GF108991081061002501999999MD1410001+9999MW1771
0057375560999991971020200004+41733+045333FM-12+080699999V0209991C00001000151CN0005001N9-00221-00221102981ADDAY181061GF109991091999000251999999MD1110161+9999MW1771
0134375560999991971020203004+41733+045333FM-12+080699999V0209991C00001007801CN0040001N9-00281-00391102801ADDAA106001091AA299000391AJ100009199999999AY171031GF106991061061008001001001HL10009IA1189IA2999-00289KA1999N-00281MD1810181+9999MW1281
0123375560999991971020303004+41733+045333FM-12+080699999V0203401N00101220001CN0100001N9-00281-00721102801ADDAA199000091AJ100009199999999AY121031GF108991001001999999001071HL10009IA1139IA2999-00289KA1999N-00281MD1110151+9999MW1011
0123375560999991971020403004+41733+045333FM-12+080699999V0203601N00101024001CN0100001N9-00111-00391102071ADDAA199000091AJ100009199999999AY111031GF108991081001999999011999HL10009IA1139IA2999-00399KA1999N-00221MD1310111+9999MW1031
0099375560999991971020503004+41733+045333FM-12+080699999V0203401N00211012301CN0100001N9+00001-00281102291ADDAJ100009199999999AY111031GF199999081051012501999999HL10009IA1139IA2999-00229MD1410001+9999MW1021
0123375560999991971020603004+41733+045333FM-12+080699999V0201601N00101220001CN0040001N9-00111-00221102291ADDAA199000091AJ100009199999999AY141031GF100991001001999999001001HL10009IA1139IA2999-00509KA1999N-00221MD1710051+9999MW1401
0134375560999991971021003004+41733+045333FM-12+080699999V0203401N01591015001CN0200001N9-00221-01221102291ADDAA106001091AA299000391AJ100009199999999AY171031GF108991081051017501999999HL10009IA1309IA2999-00399KA1999N-00221MD1710031+9999MW1021
0084375560999991971021100004+41733+045333FM-12+080699999V0203201N00211021001CN0200001N9+99999+99999102291ADDAA106999999AA299300091AY111061GF108991071011022501001011MW1021EQDQ01  99982PRCP06
0117375560999991971021203004+41733+045333FM-12+080699999V0203201N00311220001CN0200001N9-00781-01221102291ADDAA106002091AA299000591AY111031GF108991001001999999001071HL10009IA1319IA2999+00009KA1999N-00781MD1410001+9999MW1021
0057375560999991971021218004+41733+045333FM-12+080699999V0202901N99999220001CN0200001N9+99999+99999101831ADDAY111061GF100991001001999999001001MD1110021+9999MW1011
0068375560999991971021300004+41733+045333FM-12+080699999V0203201N00311220001CN0200001N9-00721-01221101751ADDAA199000091AY101061GF100991001001999999001001MD1710131+9999MW1021
0111375560999991971021303004+41733+045333FM-12+080699999V0203401N00311220001CN0200001N9-00781-01281101701ADDAA106999999AA299270091AY101031GF100991001001999999001001KA1999N-00781MD1610051+9999MW1021EQDQ01  99982PRCP06
0057375560999991971021318004+41733+045333FM-12+080699999V0203401N99999220001CN0200001N9+99999+99999101691ADDAY101061GF100991001001999999001001MD1210211+9999MW1021
0057375560999991971021321004+41733+045333FM-12+080699999V0202901N00981220001CN0200001N9-00891-01501101671ADDAY101031GF100991001001999999001001MD1710021+9999MW1021
0068375560999991971021400004+41733+045333FM-12+080699999V0202901N00871220001CN0200001N9-00781-01611101661ADDAA199000091AY101061GF100991001001999999001001MD1710011+9999MW1021
0057375560999991971021521004+41733+045333FM-12+080699999V0209991C00001220001CN0200001N9-00111-00501102701ADDAY101031GF101991001001999999001011MD1210051+9999MW1021
0068375560999991971021600004+41733+045333FM-12+080699999V0202701N00211220001CN9999999N9-00221-00611102701ADDAA199000091AY101061GF104991041001999999051001MD1410001+9999MW1031
0057375560999991971021621004+41733+045333FM-12+080699999V0203401N00311015001CN0200001N9+00111-00781102601ADDAY111031GF107991071051017501001001MD1710021+9999MW1031
0054375560999991971021700004+41733+045333FM-12+080699999V0209991C00001220001CN0200001N9+00001-00721102571ADDAA199000091AY111061GF106991001001999999001021MW1021
0142375560999991971021703004+41733+045333FM-12+080699999V0203401N00211220001CN0200001N9-00611-00781102501ADDAA199000091AJ100009199999999AY121031GF106991001001999999001071HL10009IA1009IA2999-00509KA1999N+99999MD1810071+9999MW1021EQDQ01 -00112ATMN  
0057375560999991971021718004+41733+045333FM-12+080699999V0203601N99999024001CN0200001N9+99999+99999102551ADDAY121061GF108991081001999999999999MD1310161+9999MW1021
0057375560999991971021721004+41733+045333FM-12+080699999V0209991C00001015001CN0200001N9+00221-00501102701ADDAY121031GF108991081051017501999999MD1210151+9999MW1021
0068375560999991971021800004+41733+045333FM-12+080699999V0200901N00101007801CN0100001N9+00001-00111102751ADDAA199000091AY121061GF108991081061008001999999MD1210051+9999MW1021
0104375560999991971021803004+41733+045333FM-12+080699999V0209991C00001000151CN0005001N9-00111-01111102791ADDAA199000091AJ100009199999999AY121031GF109991091999000251999999IA1009KA1999N-00111MD1210041+9999MW1471
0123375560999991971021903004+41733+045333FM-12+080699999V0209991C00001004501CN0020001N9-00221-00281102791ADDAA199000091AJ100009199999999AY121031GF108991081061004501999999HL10009IA1009IA2999-00229KA1999N-00221MD1110141+9999MW1101
0123375560999991971022003004+41733+045333FM-12+080699999V0203201N00211220001CN0200001N9+00221-00111102791ADDAA199000091AJ100009199999999AY101031GF100991001001999999001001HL10009IA1009IA2999-00289KA1999N+00111MD1610021+9999MW1021
0057375560999991971022021004+41733+045333FM-12+080699999V0202001N00101220001CN0200001N9+00281-00611102281ADDAY101031GF100991001001999999001001MD1210101+9999MW1021
0123375560999991971022103004+41733+045333FM-12+080699999V0203401N00101000151CN0005001N9+00001-00111102301ADDAA199000091AJ100009199999999AY121031GF109991091999000251999999HL10009IA1009IA2999-00289KA1999N-00111MD1610011+9999MW1431
0057375560999991971022118004+41733+045333FM-12+080699999V0203601N99999220001CN0200001N9+99999+99999102071ADDAY101061GF100991001001999999001001MD1210081+9999MW1021
0057375560999991971022121004+41733+045333FM-12+080699999V0209991C000019999999N0100001N9+00281+00111102051ADDAY101031GF108991021051001501999999MD1710021+9999MW1021
0123375560999991971022203004+41733+045333FM-12+080699999V0209991C00001002401CN0010001N9+00111-00111102031ADDAA199000091AJ100009199999999AY121031GF108991081061002501999999HL10009IA1009IA2999-00119KA1999N+00001MD1710051+9999MW1101
0079375560999991971022303004+41733+045333FM-12+080699999V0203601N00101007801CN0020001N9+00221+00221102031ADDAA106035091AA299009091AY161031GF108991999071008001021999MD1810041+9999MW1611
0057375560999991971022321004+41733+045333FM-12+080699999V0201101N00101000151CN0005001N9+00391+00281102111ADDAY141031GF109991091999000251999999MD1410001+9999MW1451
0057375560999991971022400004+41733+045333FM-12+080699999V0209991C00001000151CN0002001N9+00281+00281102221ADDAY141061GF109991091999000251999999MD1210111+9999MW1451
0134375560999991971022503004+41733+045333FM-12+080699999V0209991C00001000151CN0002001N9+00281+00281102581ADDAA106002091AA299000591AJ100009199999999AY151031GF109991091999000251999999HL10009IA1089IA2999+00399KA1999N+00281MD1410001+9999MW1451
0068375560999991971022700004+41733+045333FM-12+080699999V0209991C00001002401CN0010001N9+00281+00221101281ADDAA199000091AY121061GF108991081061002501999999MD1710361+9999MW1101
0123375560999991971022703004+41733+045333FM-12+080699999V0209991C00001001501CN0010001N9+00281+00221101091ADDAA199000091AJ100009199999999AY121031GF108991081061001501999999HL10009IA1089IA2999+00289KA1999N+00281MD1710191+9999MW1101
0068375560999991971022800004+41733+045333FM-12+080699999V0203201N01591220001CN0200001N9+00221-00391100961ADDAA199000091AY111061GF102991001001999999001021MD1210151+9999MW1021
0079375560999991971022812004+41733+045333FM-12+080699999V0203401N99999012301CN0200001N9+99999+99999100731ADDAA106002091AA299000591AY121061GF105991051091012501001001MD1210191+9999MW1021
0142375560999991971030203004+41733+045333FM-12+080699999V0209991C00001220001CN0200001N9+00221-00501102621ADDAA199000091AJ100009199999999AY121031GF199999001001999999001011HL10009IA1009IA2999-00509KA1999N+00001MD1510522+9999MW1031EQDQ01+000522APC3  
0117375560999991971030303004+41733+045333FM-12+080699999V0203401N00211220001CN9999999N9+99999+99999102621ADDAA199000091AJ100009199999999AY171031GF100991001001999999001001HL10009IA1009IA2999+00009KA1999N+00281MD1310031+9999
0057375560999991971030521004+41733+045333FM-12+080699999V0209991C999999999999N0005001N9+99999+99999103381ADDAY141031GF199999091999999999999999MD1210021+9999MW1451
0092375560999991971030603004+41733+045333FM-12+080699999V0209991C00001000151CN0002001N9+00001+00001103441ADDAA106075091AA224999999AY151031GF109991091999000251999999KA1999N+00001MD1310011+9999MW1511
0076375560999991971031212004+41733+045333FM-12+080699999V0203501N99999220001CN0008001N9+99999+99999103441ADDAY101061GF101991999999999999999999MD1510702+9999MW1331EQDQ01+000702APC3  
0079375560999991971031400004+41733+045333FM-12+080699999V0200901N99999001501CN0010001N9+99999+99999103441ADDAA106016091AA299004091AY151061GF108991081061001501999999MD1710061+9999MW1511
0057375560999991971031421004+41733+045333FM-12+080699999V0209991C999999999999N0005001N9+99999+99999101891ADDAY151031GF199999091999999999999999MD1710121+9999MW1511
0057375560999991971031521004+41733+045333FM-12+080699999V0209991C99999220001CN0200001N9+99999+99999101891ADDAY101031GF100991001001999999001001MD1210071+9999MW1021
0087375560999991971031600004+41733+045333FM-12+080699999V0203401N99999220001CN9999999N9+99999+99999102512ADDAA199000091AY101061GF100991001001999999001001MD1210061+9999MW1021EQDQ01+102513APOSLP
0123375560999991971031703004+41733+045333FM-12+080699999V0203601N00211024001CN0200001N9+00111-00391102691ADDAA199000091AJ100009199999999AY121031GF108991081001999999011999HL10009IA1139IA2999-00229KA1999N+00001MD1610031+9999MW1021
0092375560999991971032103004+41733+045333FM-12+080699999V0203601N00101007801CN0040001N9+00281+00221102511ADDAA106043091AA299011091AY121031GF108991061061008001001071KA1999N+00281MD1310061+9999MW1101
0057375560999991971032118004+41733+045333FM-12+080699999V0209991C999999999999N9999999N9+99999+99999102511ADDAY181061GF107991071031999999001999MD1110161+9999MW1011
0057375560999991971032121004+41733+045333FM-12+080699999V0209991C99999004501CN0010001N9+99999+99999102511ADDAY121031GF108991081061004501999999MD1210031+9999MW1101
0068375560999991971032300004+41733+045333FM-12+080699999V0209991C99999002401CN0010001N9+99999+99999102801ADDAA199000091AY141061GF108991081061002501999999MD1810101+9999MW1101
0098375560999991971032303004+41733+045333FM-12+080699999V0209991C00001002401CN0020001N9+00281+00221102791ADDAA106999999AA299220091AY121031GF107991071061002501001001MD1610011+9999MW1101EQDQ01  86602PRCP06
0057375560999991971032909004+41733+045333FM-12+080699999V0202501N99999220001CN0200001N9+99999+99999102441ADDAY101031GF101991011011012501001001MD1710081+9999MW1031
0068375560999991971032912004+41733+045333FM-12+080699999V0201801N99999220001CN0200001N9+99999+99999102401ADDAA199000091AY101061GF100991001001999999001001MD1610041+9999MW1021
0068375560999991971033000004+41733+045333FM-12+080699999V0200901N99999002401CN0010001N9+99999+99999102191ADDAA199000091AY111061GF108991081061002501999999MD1710031+9999MW1101
0057375560999991971033021004+41733+045333FM-12+080699999V0203601N99999220001CN0200001N9+99999+99999102121ADDAY101031GF100991001001999999001001MD1810071+9999MW1021
0123375560999991971033103004+41733+045333FM-12+080699999V0203401N00311220001CN0100001N9+00501+00281101921ADDAA199000091AJ100009199999999AY101031GF100991001001999999001001HL10009IA1009IA2999+00229KA1999N+00501MD1610061+9999MW1021
0057375560999991971040121004+41733+045333FM-12+080699999V0209991C00001004501CN0040001N9+00721+99999102151ADDAY121031GF108991081091004501999999MD1210021+9999MW1801
0057375560999991971040318004+41733+045333FM-12+080699999V0209991C000019999999N0100001N9+99999+99999102771ADDAY121061GF108991999001017501001999MD1210131+9999MW1021
0104375560999991971040403004+41733+045333FM-12+080699999V0209991C00001004501CN0020001N9+00281+00221102731ADDAA199000091AJ100009199999999AY111031GF108991081061004501999999IA1089KA1999N+00281MD1610011+9999MW1101
0079375560999991971040500004+41733+045333FM-12+080699999V0209991C00001002401CN0040001N9+00221+00111102681ADDAA106002091AA299000591AY161061GF108991081001002501021999MD1810041+9999MW1101
0054375560999991971040600004+41733+045333FM-12+080699999V0209991C00001004501CN0040001N9+00391+00281102401ADDAA199000091AY121061GF108991081061004501999999MW1101
0123375560999991971040703004+41733+045333FM-12+080699999V0209991C00001220001CN0200001N9+00501+00221101911ADDAA199000091AJ100009199999999AY111031GF100991001001999999001001HL10009IA1009IA2999+00229KA1999N+00501MD1510041+9999MW1021
0057375560999991971041018004+41733+045333FM-12+080699999V0209991C00001004501CN0100001N9+99999+99999102751ADDAY121061GF108991081061004501999999MD1710031+9999MW1021
0068375560999991971041100004+41733+045333FM-12+080699999V0209991C00001015001CN0100001N9+00281+00221102531ADDAA199000091AY121061GF107991071051017501001001MD1710131+9999MW1011
0123375560999991971041103004+41733+045333FM-12+080699999V0203601N00101220001CN0200001N9+00221+00001102491ADDAA199000091AJ100009199999999AY111031GF101991001001999999001011HL10009IA1109IA2999+00009KA1999N+00111MD1710041+9999MW1011
0057375560999991971041121004+41733+045333FM-12+080699999V0203601N00211220001CN0200001N9+00721+99999102181ADDAY101031GF100991001001999999001001MD1110021+9999MW1021
0123375560999991971041203004+41733+045333FM-12+080699999V0203601N00211220001CN0200001N9+00501+00281102061ADDAA199000091AJ100009199999999AY111031GF108991001001999999001071HL10009IA1009IA2999+00289KA1999N+00501MD1710071+9999MW1021
0043375560999991971041321004+41733+045333FM-12+080699999V0209991C00001007801CN0100001N9+01001+99999100591ADDAY121031GF108991081001008001011999MW1611
0079375560999991971041400004+41733+045333FM-12+080699999V0209991C00001007801CN0040001N9+00891+00781100451ADDAA106004091AA299001091AY161061GF108991051001008001021999MD1710141+9999MW1611
0073375560999991971041500004+41733+045333FM-12+080699999V0209991C00001007801CN0200001N9+00611+00281100831ADDAY121061GA1011+999999009GF107991071051008001001001MD1210011+9999MW1011
0117375560999991971041503004+41733+045333FM-12+080699999V0209991C00001015001CN0200001N9+00611+00281100851ADDAA106075091AA224999999AY121031GF106991061051017501001001HL10009IA1109IA2999+00229KA1999N+00501MD1210021+9999MW1021
0079375560999991971041700004+41733+045333FM-12+080699999V0201101N00411000151CN0002001N9+00891+00891101541ADDAA106035091AA299009091AY181061GF109991091999000251999999MD1210111+9999MW1631
0079375560999991971041715004+41733+045333FM-12+080699999V0209991C99999012301CN0200001N9+99999+99999101551ADDAA106002091AA299000591AY111031GF107991061091012501001031MD1210021+9999MW1031
0057375560999991971041718004+41733+045333FM-12+080699999V0200201N00211220001CN0200001N9+99999+99999101661ADDAY111061GF104991001001999999011021MD1110061+9999MW1021
0057375560999991971041721004+41733+045333FM-12+080699999V0203401N00211220001CN0200001N9+00891+99999101771ADDAY111031GF102991001001999999001021MD1110061+9999MW1021
0123375560999991971041903004+41733+045333FM-12+080699999V0209991C00001002401CN0010001N9+00391+00281101771ADDAA199000091AJ100009199999999AY111031GF107991071071002501999999HL10009IA1089IA2999+00289KA1999N+00391MD1110101+9999MW1101
0043375560999991971041918004+41733+045333FM-12+080699999V0203201N001019999999N0200001N9+99999+99999101771ADDAY111061GF105991999051999999011091MW1031
0057375560999991971042418004+41733+045333FM-12+080699999V0202901N00511220001CN0200001N9+99999+99999101971ADDAY111061GF100991001001999999001001MD1210171+9999MW1021
0068375560999991971042500004+41733+045333FM-12+080699999V0209999900311220001CN0200001N9+00781+00111101961ADDAA199000091AY101061GF100991001001999999001001MD1710021+9999MW1021
0057375560999991971042518004+41733+045333FM-12+080699999V0203401N00211220001CN0200001N9+99999+99999102091ADDAY111061GF100991001001999999001001MD1110041+9999MW1011
0057375560999991971042521004+41733+045333FM-12+080699999V0203401N00211220001CN0200001N9+00781+99999102191ADDAY101031GF100991001001999999001001MD1410001+9999MW1021
0081375560999991971042915004+41733+045333FM-12+080699999V0209991C99999220001CN0200001N9+99999+99999102461ADDAA199000091AY101031GF102991001001999999001011KA1999M+02281MD1710031+9999MW1011
0057375560999991971042918004+41733+045333FM-12+080699999V0203401N00211220001CN0200001N9+99999+99999102561ADDAY101061GF100991001001999999001001MD1310101+9999MW1011
0062375560999991971042921004+41733+045333FM-12+080699999V0203401N003119999999N0200001N9+99999+99999102561ADDAY101031GF199999001999999999001031MW1021EQDQ01    083SCOLCG
0068375560999991971043015004+41733+045333FM-12+080699999V0209991C99999012301CN0200001N9+99999+99999102561ADDAA199000091AY121031GF108991081021012501999999MD1210031+9999MW1021
0081375560999991971050303004+41733+045333FM-12+080699999V0203601N99999220001CN0200001N9+99999+99999102881ADDAA199000091AY111031GF106991001001999999999999KA1999N+01001MD1710011+9999MW1031
0057375560999991971050318004+41733+045333FM-12+080699999V0203601N99999220001CN0200001N9+99999+99999102511ADDAY121061GF108991001001999999001071MD1310031+9999MW1021
0081375560999991971050403004+41733+045333FM-12+080699999V0202901N99999220001CN0200001N9+99999+99999102411ADDAA199000091AY101031GF103991021001999999081011KA1999N+01281MD1610051+9999MW1031
0081375560999991971050503004+41733+045333FM-12+080699999V0203401N99999220001CN0200001N9+99999+99999102651ADDAA199000091AY101031GF100991001001999999001001KA1999N+01281MD1310091+9999MW1021
0057375560999991971050600004+41733+045333FM-12+080699999V0203401N00211220001CN0200001N9+01391+99999102651ADDAY111061GF102991001001999999001011MD1410001+9999MW1021
0079375560999991971050715004+41733+045333FM-12+080699999V0209991C99999012301CN0200001N9+99999+99999102651ADDAA106001091AA299000391AY121031GF108991081031012501999999MD1410001+9999MW1031
0057375560999991971050900004+41733+045333FM-12+080699999V0203601N00101220001CN0200001N9+01281+01001102451ADDAY181061GF105991001001999999001011MD1710031+9999MW1021
0057375560999991971051018004+41733+045333FM-12+080699999V0209991C99999007801CN0100001N9+99999+99999101921ADDAY191061GF108991081091008001999999MD1710091+9999MW1801
0079375560999991971051100004+41733+045333FM-12+080699999V0209991C00001012301CN0100001N9+01221+01111101761ADDAA106063091AA299016091AY181061GF108991081051012501999999MD1710071+9999MW1021
0057375560999991971051121004+41733+045333FM-12+080699999V0203401N99999015001CN0200001N9+99999+99999101851ADDAY121031GF108991081051017501999999MD1210061+9999MW1021
0079375560999991971051200004+41733+045333FM-12+080699999V0209991C00001007801CN0100001N9+01221+00891101981ADDAA106075091AA224999999AY121061GF108991081031008001999999MD1210131+9999MW1801
0068375560999991971051400004+41733+045333FM-12+080699999V0209991C00001004501CN0020001N9+01221+01111101981ADDAA199000091AY121061GF108991081061004501999999MD1410001+9999MW1101
0068375560999991971051415004+41733+045333FM-12+080699999V0203401N99999012301CN0200001N9+99999+99999102111ADDAA199000091AY121031GF106991061051012501001001MD1710081+9999MW1021
0057375560999991971051418004+41733+045333FM-12+080699999V0203201N99999000151CN0200001N9+99999+99999102091ADDAY121061GF106991061061000251001999MD1510011+9999MW1131
0057375560999991971051521004+41733+045333FM-12+080699999V0203401N99999015001CN0200001N9+99999+99999101851ADDAY121031GF108991081051017501999999MD1210021+9999MW1021
0068375560999991971051600004+41733+045333FM-12+080699999V0203401N00411220001CN0200001N9+01281+00891101881ADDAA199000091AY111061GF102991021001999999031001MD1110031+9999MW1011
0057375560999991971051918004+41733+045333FM-12+080699999V0209991C99999090001CN0200001N9+99999+99999102801ADDAY111061GF107991041091012501001031MD1210211+9999MW1131
0057375560999991971051921004+41733+045333FM-12+080699999V0209991C99999012301CN0200001N9+99999+99999102801ADDAY121031GF108991081031012501999999MD1410001+9999MW1021
0057375560999991971052018004+41733+045333FM-12+080699999V0203601N99999220001CN0200001N9+99999+99999102801ADDAY111061GF100991001001999999001001MD1210021+9999MW1011
0057375560999991971052121004+41733+045333FM-12+080699999V0203401N99999220001CN9999999N9+99999+99999102011ADDAY101031GF100991001001999999001001MD1210031+9999MW1021
0068375560999991971052200004+41733+045333FM-12+080699999V0203401N00101024001CN0200001N9+01281+00781101991ADDAA199000091AY111061GF108991081001999999011999MD1810021+9999MW1031
0079375560999991971052300004+41733+045333FM-12+080699999V0203401N00101220001CN0100001N9+01111+00891102081ADDAA106091091AA299023091AY101061GF100991001001999999001001MD1810021+9999MW1021
0070375560999991971052400004+41733+045333FM-12+080699999V0203401N00311220001CN0002001N9+01111+00891102091ADDAY101061GF100991001001999999001001MD1810021+9999EQDQ01    993SCOTCV
0073375560999991971052900004+41733+045333FM-12+080699999V0201601N02311000151CN0002001N9+01281+01281102091ADDAA106075091AA299019091AY101061GF199999091999000251999999MD1710161+9999
0043375560999991971053121004+41733+045333FM-12+080699999V0203401N99999220001CN0100001N9+99999+99999102171ADDAY111031GF199999001001999999001071MW1011
0057375560999991971060100004+41733+045333FM-12+080699999V0203401N002119999999N0100001N9+01611+01111102211ADDAY111061GF199999001999999999091999MD1210051+9999MW1011
0079375560999991971060200004+41733+045333FM-12+080699999V0203601N00101012301CN0100001N9+01391+01281102211ADDAA106031091AA299008091AY181061GF108991081031012501999999MD1110091+9999MW1021
0068375560999991971060300004+41733+045333FM-12+080699999V0203401N00101012301CN0200001N9+01221+01001102211ADDAA199000091AY111061GF108991081051012501999999MD1210021+9999MW1021
0057375560999991971060318004+41733+045333FM-12+080699999V0203601N00101012301CN0200001N9+01501+01221102081ADDAY121061GF108991081031012501999999MD1710061+9999MW1251
0043375560999991971060321004+41733+045333FM-12+080699999V0203401N00211012301CN0200001N9+01501+01111101981ADDAY121031GF108991081031012501999999MW1021
0057375560999991971060418004+41733+045333FM-12+080699999V0209991C00001012301CN0200001N9+01391+00891101891ADDAY121061GF108991081031012501999999MD1210081+9999MW1031
0079375560999991971060500004+41733+045333FM-12+080699999V0209991C00001012301CN0200001N9+01391+01001101891ADDAA106075091AA224999999AY181061GF108991081031012501999999MD1410001+9999MW1031
0057375560999991971060521004+41733+045333FM-12+080699999V0200401N99999024001CN0300001N9+01391+01001101851ADDAY131031GF106991061001999999061001MD1810111+9999MW1311
0068375560999991971060700004+41733+045333FM-12+080699999V0203001N99999220001CN0200001N9+01391+00891101831ADDAA199000091AY111061GF102991001001999999001011MD1810061+9999MW1021
0057375560999991971060721004+41733+045333FM-12+080699999V0203601N00311220001CN0200001N9+01391+00781102041ADDAY101031GF100991001001999999001001MD1810151+9999MW1021
0043375560999991971060800004+41733+045333FM-12+080699999V0203601N00311024001CN0200001N9+01281+99999101991ADDAY101061GF108991081001999999999081MW1021
0057375560999991971060918004+41733+045333FM-12+080699999V0203601N00411220001CN0200001N9+02001+01391102031ADDAY111061GF102991021001999999031001MD1210071+9999MW1011
0068375560999991971061000004+41733+045333FM-12+080699999V0203601N00411220001CN0200001N9+01611+01221101971ADDAA199000091AY101061GF102991021051017501001001MD1710061+9999MW1021
0070375560999991971061100004+41733+045333FM-12+080699999V0203201N00721012301CN0200001N9+02001+00001101691ADDAY101061GF199999081031012501999999MD1810702+9999EQDQ01+000702APC3  
0079375560999991971061700004+41733+045333FM-12+080699999V0203401N00101220001CN0200001N9+01221+01001101691ADDAA106999999AA224999999AY101061GF100991001001999999001001MD1110011+9999MW1021
0043375560999991971061718004+41733+045333FM-12+080699999V0202901N00621220001CN0200001N9+01891+00111102371ADDAY101061GF102991021051017501001001MW1021
0057375560999991971061818004+41733+045333FM-12+080699999V0202901N00511220001CN0200001N9+01391+00391102371ADDAY111061GF100991001001999999001001MD1210091+9999MW1011
0057375560999991971061821004+41733+045333FM-12+080699999V0202901N00821220001CN0200001N9+01281+00391102371ADDAY101031GF100991001001999999001001MD1710051+9999MW1021
0068375560999991971062000004+41733+045333FM-12+080699999V0203601N99999220001CN0200001N9+01281+00281101921ADDAA199000091AY101061GF100991001001999999001001MD1710121+9999MW1021
0057375560999991971062121004+41733+045333FM-12+080699999V0202901N01591220001CN0500001N9+01221+00721101971ADDAY101031GF100991001001999999001001MD1210141+9999MW1021
0068375560999991971062200004+41733+045333FM-12+080699999V0209999999999220001CN0500001N9+01281+00611101991ADDAA199000091AY101061GF100991001001999999001001MD1210021+9999MW1021
0057375560999991971062218004+41733+045333FM-12+080699999V0203401N00311220001CN0200001N9+01391+00781102321ADDAY101061GF100991001001999999001001MD1310131+9999MW1021
0057375560999991971062221004+41733+045333FM-12+080699999V0203401N00311220001CN0200001N9+01391+00721102351ADDAY101031GF100991001001999999001001MD1110031+9999MW1021
0054375560999991971062300004+41733+045333FM-12+080699999V0209991C00001220001CN0200001N9+01221+99999102321ADDAA199000091AY101061GF102991001001999999001071MW1031
0057375560999991971062318004+41733+045333FM-12+080699999V0203401N00311220001CN0200001N9+01721+01001102261ADDAY111061GF100991001001999999001001MD1310091+9999MW1011
0068375560999991971062321004+41733+045333FM-12+080699999V0203401N00311220001CN0200001N9+01391+00891102191ADDAA199000091AY111031GF100991001001999999001001MD1810071+9999MW1021
0057375560999991971062421004+41733+045333FM-12+080699999V0203201N00981220001CN0200001N9+01891+00891101841ADDAY101031GF100991001001999999001001MD1410001+9999MW1021
0068375560999991971062500004+41733+045333FM-12+080699999V0203201N00871220001CN0200001N9+01721+00781101841ADDAA199000091AY101061GF100991001001999999001001MD1410001+9999MW1021
0087375560999991971062600004+41733+045333FM-12+080699999V0200201N00101220001CN0200001N9+01721+01001101841ADDAA199000091AY101061GF100991001001999999001001MD1210051+9999MW1011EQDQ01    993SCOTCV
0057375560999991971062621004+41733+045333FM-12+080699999V0203401N002119999999N0200001N9+99999+99999102211ADDAY121031GF108991021999000251071999MD1410001+9999MW1021
0057375560999991971062918004+41733+045333FM-12+080699999V0203601N00311220001CN0200001N9+01781+01111101841ADDAY101061GF100991001001999999001001MD1110111+9999MW1021
0068375560999991971063000004+41733+045333FM-12+080699999V0203601N00211012301CN0200001N9+01611+01111101901ADDAA199000091AY111061GF108991081031012501999999MD1810041+9999MW1021
