0068375750999991971010100004+41633+046483FM-12+051899999V0200501N00411220001CN0500001N9+00501-00221102241ADDAA199000091AY101061GF100991001001999999001001MD1210091+9999MW1021
0057375750999991971010103004+41633+046483FM-12+051899999V0203601N00311220001CN0500001N9+00721-00221102281ADDAY101031GF100991001001999999001001MD1210061+9999MW1021
0123375750999991971010106004+41633+046483FM-12+051899999V0201401N00101220001CN0500001N9+00611-00221102421ADDAA199000091AJ100009199999999AY111061GF108991001001999999001021HL10009IA1109IA2999+00009KA1999N+00391MD1210131+9999MW1031
0068375750999991971010112004+41633+046483FM-12+051899999V0200901N00311024001CN0500001N9+01001+00001102001ADDAA199000091AY121061GF108991081001999999021001MD1710291+9999MW1021
0057375750999991971010115004+41633+046483FM-12+051899999V0200501N00101024001CN0500001N9+01001+00221101981ADDAY121031GF108991081001999999021001MD1710021+9999MW1021
0081375750999991971010118004+41633+046483FM-12+051899999V0200501N00311220001CN0500001N9+01001+00221101981ADDAA199000091AY121061GF108991001001999999001021KA1999M+01111MD1410001+9999MW1021
0057375750999991971010121004+41633+046483FM-12+051899999V0200501N00101220001CN0500001N9+00721+00221101971ADDAY121031GF108991001001999999001021MD1710011+9999MW1021
0068375750999991971010200004+41633+046483FM-12+051899999V0200501N00101220001CN0500001N9+00721+00001101871ADDAA199000091AY121061GF108991001001999999001021MD1710081+9999MW1021
0057375750999991971010203004+41633+046483FM-12+051899999V0200501N00311220001CN0500001N9+00891+00111101771ADDAY111031GF100991001001999999001001MD1810071+9999MW1011
0123375750999991971010206004+41633+046483FM-12+051899999V0200201N00411220001CN0500001N9+01221+00111102061ADDAA199000091AJ100009199999999AY111061GF108991001001999999001031HL10009IA1109IA2999+00229KA1999N+00721MD1310231+9999MW1031
0057375750999991971010209004+41633+046483FM-12+051899999V0202701N00311220001CN0500001N9+01611+00281102061ADDAY121031GF108991001001999999001041MD1110061+9999MW1021
0068375750999991971010212004+41633+046483FM-12+051899999V0209991C00001220001CN0500001N9+01781+00281102141ADDAA199000091AY121061GF108991001001999999001091MD1210031+9999MW1021
0081375750999991971010218004+41633+046483FM-12+051899999V0201801N00511220001CN0500001N9+01501+00391102611ADDAA199000091AY121061GF108991001001999999001021KA1999M+02001MD1210291+9999MW1021
0068375750999991971010300004+41633+046483FM-12+051899999V0201101N00411220001CN0500001N9+00891+00281102901ADDAA199000091AY111061GF102991021051012501001001MD1710071+9999MW1011
0057375750999991971010303004+41633+046483FM-12+051899999V0200901N00311220001CN0500001N9+00781+00221102771ADDAY101031GF100991001001999999001001MD1610151+9999MW1011
0123375750999991971010306004+41633+046483FM-12+051899999V0200201N00411220001CN0500001N9+00891+00221102721ADDAA199000091AJ100009199999999AY101061GF102991001001999999001011HL10009IA1089IA2999+00289KA1999N+00781MD1610021+9999MW1031
0057375750999991971010309004+41633+046483FM-12+051899999V0202901N00311220001CN0500001N9+01391+00501102381ADDAY101031GF102991001001999999001011MD1710251+9999MW1021
0068375750999991971010312004+41633+046483FM-12+051899999V0202301N00311220001CN0500001N9+01611+00501102191ADDAA199000091AY111061GF108991001001999999001011MD1710131+9999MW1031
0081375750999991971010318004+41633+046483FM-12+051899999V0200501N00311220001CN0500001N9+00891+00001102301ADDAA199000091AY121061GF108991001001999999001021KA1999M+01721MD1310071+9999MW1021
0057375750999991971010321004+41633+046483FM-12+051899999V0200501N00211220001CN0500001N9+00611+00001102321ADDAY121031GF108991001001999999001021MD1210021+9999MW1021
0068375750999991971010400004+41633+046483FM-12+051899999V0200201N00101220001CN0500001N9+00781-00221102341ADDAA199000091AY121061GF108991001001999999001021MD1210031+9999MW1021
0057375750999991971010403004+41633+046483FM-12+051899999V0200201N00211220001CN0500001N9+00721-00281102291ADDAY121031GF106991001001999999001021MD1810101+9999MW1011
0142375750999991971010406004+41633+046483FM-12+051899999V0200501N00211220001CN0500001N9+00501-00221102291ADDAA199000091AJ100009199999999AY121061GF108991001001999999001021HL10009IA1089IA2999+00229KA1999N+99999MD1410001+9999MW1021EQDQ01 +00612ATMN  
0057375750999991971010409004+41633+046483FM-12+051899999V0202701N00211024001CN0500001N9+01281+00221102181ADDAY121031GF108991071001999999031021MD1710071+9999MW1021
0068375750999991971010412004+41633+046483FM-12+051899999V0209991C00001090001CN0500001N9+01501+00281101871ADDAA199000091AY121061GF108991031001999999031021MD1710191+9999MW1021
0043375750999991971010415004+41633+046483FM-12+051899999V0200501N00101001501CN0500001N9+99999+99999101871ADDAY121031GF105991051011001501011021MW1011
0081375750999991971010418004+41633+046483FM-12+051899999V0200501N00101220001CN0500001N9+01111+00001102161ADDAA199000091AY121061GF105991001001999999041011KA1999M+01611MD1210091+9999MW1021
0068375750999991971010500004+41633+046483FM-12+051899999V0200201N00411220001CN0500001N9+01221-00221102061ADDAA199000091AY111061GF100991001001999999001001MD1410001+9999MW1011
0057375750999991971010503004+41633+046483FM-12+051899999V0200901N00311220001CN0500001N9+01111-00221102031ADDAY101031GF100991001001999999001001MD1710041+9999MW1021
0123375750999991971010506004+41633+046483FM-12+051899999V0200701N00311220001CN0500001N9+01281-00111102141ADDAA199000091AJ100009199999999AY111061GF108991001001999999001021HL10009IA1089IA2999+00229KA1999N+01001MD1210131+9999MW1031
0057375750999991971010509004+41633+046483FM-12+051899999V0202901N00101090001CN0500001N9+01891+01282101961ADDAY121031GF108991011011017501001021MD1810041+9999MW1021
0068375750999991971010512004+41633+046483FM-12+051899999V0209991C00001220001CN0500001N9+02001+00391101911ADDAA199000091AY121061GF108991001001999999001011MD1510051+9999MW1021
0057375750999991971010515004+41633+046483FM-12+051899999V0200501N00211220001CN0300001N9+01501+00001102131ADDAY121031GF108991001001999999001011MD1210171+9999MW1021
0081375750999991971010518004+41633+046483FM-12+051899999V0201801N00411220001CN0500001N9+01001+00111102531ADDAA199000091AY121061GF108991001001999999001021KA1999M+02221MD1210241+9999MW1021
0068375750999991971010600004+41633+046483FM-12+051899999V0201801N00101220001CN0500001N9+00501+00111102931ADDAA199000091AY121061GF108991001001999999001021MD1210201+9999MW1021
0057375750999991971010603004+41633+046483FM-12+051899999V0200501N00101024001CN0500001N9+00501+00111102991ADDAY121031GF108991051001999999041021MD1810021+9999MW1021
0123375750999991971010606004+41633+046483FM-12+051899999V0200501N00101220001CN0200001N9+00281+00111103091ADDAA199000091AJ100009199999999AY121061GF108991001001999999001021HL10009IA1089IA2999+00009KA1999N+00221MD1310051+9999MW1021
0057375750999991971010609004+41633+046483FM-12+051899999V0202301N00101002401CN0040001N9+00611+00281102721ADDAY121031GF108991081021002501999999MD1810311+9999MW1021
0068375750999991971010612004+41633+046483FM-12+051899999V0202301N00101220001CN0200001N9+00781+00111102341ADDAA199000091AY121061GF108991001001999999001021MD1710311+9999MW1021
0057375750999991971010615004+41633+046483FM-12+051899999V0200901N00211220001CN0130001N9+00501+00281102331ADDAY121031GF108991001001999999001021MD1610081+9999MW1021
0057375750999991971010618004+41633+046483FM-12+051899999V0200901N00101220001CN0130001N9+00281+00221102331ADDAY121061GF108991001001999999001021MD1710041+9999MW1021
0057375750999991971010621004+41633+046483FM-12+051899999V0201101N00101024001CN0270001N9+99999+99999102301ADDAY121031GF108991081001999999999999MD1810031+9999MW1021
0068375750999991971010700004+41633+046483FM-12+051899999V0201101N00211220001CN0300001N9+00221+00221102111ADDAA199000091AY121061GF108991001001999999001021MD1810131+9999MW1021
0057375750999991971010703004+41633+046483FM-12+051899999V0201401N00101220001CN0190001N9+00221+00111101931ADDAY121031GF108991001001999999001021MD1810161+9999MW1021
0123375750999991971010706004+41633+046483FM-12+051899999V0203401N00211220001CN0200001N9+00391+00111101891ADDAA199000091AJ100009199999999AY121061GF108991001001999999001021HL10009IA1139IA2999-00119KA1999N+00221MD1410001+9999MW1021
0057375750999991971010709004+41633+046483FM-12+051899999V0200901N00211220001CN0200001N9+01281+00391101591ADDAY121031GF108991001001999999001011MD1710131+9999MW1021
0068375750999991971010712004+41633+046483FM-12+051899999V0202501N00211220001CN0500001N9+01501+00721101351ADDAA199000091AY121061GF108991001001999999001011MD1710151+9999MW1021
0057375750999991971010715004+41633+046483FM-12+051899999V0200201N00311220001CN0500001N9+00222-00221101521ADDAY121031GF108991001001999999001071MD1310081+9999MW1021
0081375750999991971010718004+41633+046483FM-12+051899999V0200901N00411220001CN0400001N9+00891+00221101521ADDAA199000091AY121061GF108991001001999999001071KA1999M+01611MD1210311+9999MW1021
0057375750999991971010721004+41633+046483FM-12+051899999V0201801N00621220001CN0280001N9+00501+00001102441ADDAY121031GF108991001001999999001021MD1210421+9999MW1021
0068375750999991971010800004+41633+046483FM-12+051899999V0201801N00621004501CN0090001N9+00611+00221102891ADDAA199000091AY121061GF108991081021004501999999MD1210451+9999MW1021
0123375750999991971010806004+41633+046483FM-12+051899999V0201801N00101002401CN0010001N9+00221+00111103401ADDAA199000091AJ100009199999999AY121061GF108991081001002501021999HL10009IA1089IA2999+00119KA1999N+00221MD1210331+9999MW1021
0057375750999991971010809004+41633+046483FM-12+051899999V0201801N00101001501CN0010001N9+00221+00111103661ADDAY161031GF108991081031001501999999MD1210161+9999MW1601
0079375750999991971010812004+41633+046483FM-12+051899999V0202701N00101002401CN0010001N9+00111+00001103731ADDAA106008091AA299002091AY161061GF108991081021002501999999MD1210041+9999MW1811
0092375750999991971010818004+41633+046483FM-12+051899999V0201401N00511002401CN0032001N9+00001+00001104131ADDAA106012091AA299003091AY171061GF108991081021002501999999KA1999M+00391MD1210221+9999MW1711
0057375750999991971010821004+41633+046483FM-12+051899999V0201401N00211002401CN0030001N9+00111+00001104151ADDAY171031GF108991081021002501999999MD1110031+9999MW1731
0079375750999991971010900004+41633+046483FM-12+051899999V0201801N00211002401CN0035001N9-00111-00281104011ADDAA106016091AA299004091AY171061GF108991081021002501999999MD1610181+9999MW1711
0057375750999991971010903004+41633+046483FM-12+051899999V0200501N00101002401CN0035001N9-00111-00221103831ADDAY171031GF108991081021002501999999MD1710181+9999MW1711
0117375750999991971010906004+41633+046483FM-12+051899999V0203201N00211002401CN0100001N9-00111-00111103651ADDAA106002091AA299000591AY171061GF108991081021002501999999HL10009IA1319IA2999+00009KA1999N-00111MD1610181+9999MW1021
0057375750999991971010909004+41633+046483FM-12+051899999V0203201N00211002401CN0100001N9+00221-00221103281ADDAY121031GF107991071071002501001001MD1710311+9999MW1021
0068375750999991971010912004+41633+046483FM-12+051899999V0202701N00101004501CN0040001N9+00111-00111102981ADDAA199000091AY121061GF108991081051004501999999MD1710291+9999MW1021
0057375750999991971010915004+41633+046483FM-12+051899999V0201801N00211004501CN0140001N9+00111-00281102821ADDAY121031GF108991081051004501999999MD1710151+9999MW1021
0081375750999991971010918004+41633+046483FM-12+051899999V0202701N00211004501CN0170001N9+00111-00281102791ADDAA199000091AY121061GF108991081051004501999999KA1999M+00221MD1710031+9999MW1021
0057375750999991971010921004+41633+046483FM-12+051899999V0202701N00101004501CN0170001N9+00111-00281102651ADDAY121031GF108991081051004501999999MD1710141+9999MW1021
0068375750999991971011000004+41633+046483FM-12+051899999V0202701N00101004501CN0170001N9+00111-00221102491ADDAA199000091AY121061GF108991081051004501999999MD1710141+9999MW1021
0057375750999991971011003004+41633+046483FM-12+051899999V0200501N00101001501CN0041001N9-00111-00891102311ADDAY121031GF108991081041001501999999MD1710201+9999MW1021
0123375750999991971011006004+41633+046483FM-12+051899999V0200901N00101001501CN0010001N9-00221-00391102311ADDAA199000091AJ100009199999999AY121061GF108991081021001501999999HL10009IA1109IA2999+00009KA1999N-00221MD1710021+9999MW1021
0057375750999991971011009004+41633+046483FM-12+051899999V0201801N00101001501CN0010001N9+00001-00221102091ADDAY121031GF108991081021001501999999MD1710181+9999MW1021
0068375750999991971011012004+41633+046483FM-12+051899999V0201801N00101002401CN0040001N9+00221-00111102101ADDAA199000091AY121061GF108991081021002501999999MD1310041+9999MW1021
0057375750999991971011015004+41633+046483FM-12+051899999V0200501N00211220001CN0240001N9+00111+00001102471ADDAY121031GF108991001001999999999021MD1210341+9999MW1021
0081375750999991971011018004+41633+046483FM-12+051899999V0201401N00211220001CN0220001N9+00001-00111102711ADDAA199000091AY121061GF108991001001999999001021KA1999M+00281MD1210211+9999MW1021
0068375750999991971011100004+41633+046483FM-12+051899999V0200501N00101004501CN0110001N9+00221+00001102831ADDAA199000091AY121061GF108991081051004501999999MD1310031+9999MW1021
0057375750999991971011103004+41633+046483FM-12+051899999V0201101N00101002401CN0050001N9+00221+00001102811ADDAY121031GF108991081021002501999999MD1610021+9999MW1021
0123375750999991971011106004+41633+046483FM-12+051899999V0201001N00511012301CN0500001N9+00221-00111102801ADDAA199000091AJ100009199999999AY121061GF108991081081012501999999HL10009IA1089IA2999-00119KA1999N+00001MD1010031+9999MW1021
0057375750999991971011109004+41633+046483FM-12+051899999V0201801N00311002401CN0500001N9+00221+00001102751ADDAY121031GF108991081021002501999999MD1810051+9999MW1021
0068375750999991971011112004+41633+046483FM-12+051899999V0201801N00101007801CN0200001N9+00281-00721102561ADDAA199000091AY121061GF108991081051008001999999MD1110211+9999MW1021
0057375750999991971011115004+41633+046483FM-12+051899999V0203401N00101002401CN0120001N9+00221-00111102431ADDAY121031GF108991081021002501999999MD1710141+9999MW1021
0081375750999991971011118004+41633+046483FM-12+051899999V0202701N00101007801CN0120001N9+00221-00111102291ADDAA199000091AY121061GF108991081051008001999999KA1999M+00391MD1710131+9999MW1021
0068375750999991971011200004+41633+046483FM-12+051899999V0200901N00211220001CN0400001N9+00001-00501101931ADDAA199000091AY111061GF100991001001999999001001MD1710201+9999MW1021
0123375750999991971011206004+41633+046483FM-12+051899999V0200501N00211220001CN0500001N9+00001-00391101691ADDAA199000091AJ100009199999999AY101061GF100991001001999999001001HL10009IA1139IA2999-00289KA1999N-00221MD1410001+9999MW1021
0057375750999991971011209004+41633+046483FM-12+051899999V0200501N00101220001CN0500001N9+00501-00111101371ADDAY101031GF100991001001999999001001MD1710201+9999MW1021
0068375750999991971011212004+41633+046483FM-12+051899999V0201801N00101220001CN0500001N9+01001+00001101171ADDAA199000091AY101061GF100991001001999999001001MD1710111+9999MW1021
0081375750999991971011218004+41633+046483FM-12+051899999V0200501N00211220001CN0500001N9+00111-00111101341ADDAA199000091AY101061GF102991001001999999001011KA1999M+01111MD1410001+9999MW1031
0057375750999991971011221004+41633+046483FM-12+051899999V0203601N00101220001CN0500001N9+00221-00221101311ADDAY101031GF103991001001999999001011MD1610031+9999MW1031
0068375750999991971011300004+41633+046483FM-12+051899999V0203601N00211220001CN0500001N9+00111-00221101271ADDAA199000091AY111061GF102991001001999999001011MD1610041+9999MW1011
0057375750999991971011303004+41633+046483FM-12+051899999V0200501N00311220001CN0500001N9+00221-00221101021ADDAY111031GF108991001001999999031021MD1710221+9999MW1031
0123375750999991971011306004+41633+046483FM-12+051899999V0209991C00001024001CN0500001N9+00281+00001101001ADDAA199000091AJ100009199999999AY111061GF108991061001999999031041HL10009IA1139IA2999-00229KA1999N+00001MD1410001+9999MW1021
0057375750999991971011309004+41633+046483FM-12+051899999V0209991C00001220001CN0500001N9+00501+00111100881ADDAY121031GF108991001001999999001021MD1810081+9999MW1021
0068375750999991971011312004+41633+046483FM-12+051899999V0201401N00101220001CN0500001N9+00611-00221100771ADDAA199000091AY121061GF108991001001999999001021MD1510101+9999MW1021
0057375750999991971011315004+41633+046483FM-12+051899999V0200501N00101220001CN0100001N9+00391-00111100851ADDAY121031GF108991001001999999001021MD1210051+9999MW1021
0100375750999991971011318004+41633+046483FM-12+051899999V0201801N00211007801CN0050001N9+00501-00111100851ADDAA199999999AY121061GF108991081021008001999999KA1999M+00721MD1210021+9999MW1521EQDQ01  00002PRCP99
0057375750999991971011321004+41633+046483FM-12+051899999V0201801N00101007801CN0020001N9+00501-00111100851ADDAY121031GF108991081021008001999999MD1210051+9999MW1611
0079375750999991971011400004+41633+046483FM-12+051899999V0201801N00411002401CN0026001N9+00111-00111101031ADDAA106028091AA299007091AY161061GF108991081021002501999999MD1210041+9999MW1711
0079375750999991971011403004+41633+046483FM-12+051899999V0201801N00211002401CN0025001N9+00111-00221101041ADDAA106063091AA299016091AY171031GF108991081021002501999999MD1210011+9999MW1711
0092375750999991971011406004+41633+046483FM-12+051899999V0201601N00411007801CN0005001N9+00001-00111101571ADDAA106063091AA299016091AY171061GF108991081021008001999999KA1999N+00001MD1310441+9999MW1731
0043375750999991971011409004+41633+046483FM-12+051899999V0201601N00621007801CN0040001N9+00111-00221101841ADDAY171031GF108991081021008001999999MW1711
0079375750999991971011412004+41633+046483FM-12+051899999V0201801N00871001501CN0005001N9-00281-00391102281ADDAA106091091AA299023091AY171061GF108991081021001501999999MD1210371+9999MW1731
0057375750999991971011415004+41633+046483FM-12+051899999V0202001N00511001501CN0005001N9-00501-00611102871ADDAY171031GF108991081021001501999999MD1210521+9999MW1731
0092375750999991971011418004+41633+046483FM-12+051899999V0202001N00511001501CN0004001N9-00611-00781103221ADDAA106063091AA299016091AY171061GF108991081021001501999999KA1999M+00611MD1210311+9999MW1731
0079375750999991971011500004+41633+046483FM-12+051899999V0209991C00001001501CN0021001N9-00781-01111103531ADDAA106008091AA299002091AY171061GF108991081021001501999999MD1210081+9999MW1711
0057375750999991971011503004+41633+046483FM-12+051899999V0209991C00001001501CN0140001N9-00781-01001103471ADDAY111031GF108991081021001501999999MD1610061+9999MW1071
0117375750999991971011506004+41633+046483FM-12+051899999V0202301N00101007801CN0040001N9-00781-01001103451ADDAA106004091AA299001091AY171061GF108991081021008001999999HL10009IA1319IA2999-01229KA1999N-00891MD1710021+9999MW1711
0057375750999991971011509004+41633+046483FM-12+051899999V0202701N00101220001CN0500001N9-00221-00721103191ADDAY171031GF103991031021008001001001MD1710111+9999MW1011
0079375750999991971011512004+41633+046483FM-12+051899999V0202701N00101220001CN0500001N9-00391-00781102921ADDAA106002091AA299000591AY171061GF103991031021008001081001MD1610301+9999MW1031
0057375750999991971011515004+41633+046483FM-12+051899999V0200501N00101220001CN0400001N9-00781-01001102911ADDAY101031GF103991001001999999001011MD1710101+9999MW1021
0092375750999991971011518004+41633+046483FM-12+051899999V0200501N00101220001CN0400001N9-01001-01221102821ADDAA106001091AA299000391AY101061GF100991001001999999001001KA1999M-00221MD1710121+9999MW1011
0057375750999991971011521004+41633+046483FM-12+051899999V0200501N00211220001CN0350001N9-01111-01281102711ADDAY101031GF100991001001999999001001MD1710121+9999MW1021
0068375750999991971011600004+41633+046483FM-12+051899999V0200501N00211220001CN0400001N9-01111-01281102621ADDAA199000091AY101061GF100991001001999999001001MD1710081+9999MW1021
0057375750999991971011603004+41633+046483FM-12+051899999V0200501N00101220001CN0400001N9-01111-01391102521ADDAY101031GF100991001001999999001001MD1710101+9999MW1021
0106375750999991971011606004+41633+046483FM-12+051899999V0200501N00211220001CN0500001N9-01001-01221102651ADDAA199000091AY101061GF102991021001999999041001HL10009IA1319IA2999-02009KA1999N-01221MD1310131+9999MW1031
0068375750999991971011612004+41633+046483FM-12+051899999V0200501N00101024001CN0500001N9-00611-00781102311ADDAA199000091AY111061GF106991061001999999041001MD1710051+9999MW1031
0057375750999991971011615004+41633+046483FM-12+051899999V0200501N00211024001CN0220001N9-00611-00891102331ADDAY121031GF106991061001999999031001MD1210021+9999MW1021
0081375750999991971011618004+41633+046483FM-12+051899999V0201401N00211220001CN0500001N9-00501-00891102361ADDAA199000091AY111061GF102991021001999999031001KA1999M-00221MD1210031+9999MW1011
0057375750999991971011621004+41633+046483FM-12+051899999V0200501N00211220001CN0500001N9-00721-01001102381ADDAY101031GF103991031001999999041001MD1710021+9999MW1031
0068375750999991971011700004+41633+046483FM-12+051899999V0200501N00511024001CN0500001N9-00391-01001102281ADDAA199000091AY111061GF107991071001999999031001MD1110031+9999MW1031
0106375750999991971011706004+41633+046483FM-12+051899999V0209991C00001090001CN0200001N9-00611-00891102301ADDAA199000091AY111061GF108991021001999999041071HL10009IA1159IA2999-01289KA1999N-00781MD1310101+9999MW1031
0057375750999991971011709004+41633+046483FM-12+051899999V0203601N00101220001CN0500001N9-00501-00611102151ADDAY111031GF102991011011017501001051MD1810101+9999MW1011
0068375750999991971011712004+41633+046483FM-12+051899999V0209991C00001220001CN0500001N9+00221-00391101981ADDAA199000091AY111061GF101991011001999999041001MD1510051+9999MW1011
0057375750999991971011715004+41633+046483FM-12+051899999V0200501N00211220001CN0500001N9-00391-00721102161ADDAY101031GF100991001001999999001001MD1210051+9999MW1011
0097375750999991971011718004+41633+046483FM-12+051899999V0200501N00211000151CN0500001N9-00501-00891102251ADDAA199000091AY101061GA1051+000159089GF199999999999999999001001KA1999M+00221MD1210061+9999MW1021
0068375750999991971011800004+41633+046483FM-12+051899999V0200901N00211220001CN0500001N9-00611-00891102241ADDAA199000091AY101061GF100991001001999999001001MD1810041+9999MW1021
0081375750999991971011806004+41633+046483FM-12+051899999V0200201N00101220001CN0200001N9-00501-00891102351ADDAA199000091AY101061GF100991001001999999001001KA1999N-00611MD1310131+9999MW1021
0068375750999991971011812004+41633+046483FM-12+051899999V0202301N00101220001CN0200001N9+00221-00391102111ADDAA199000091AY101061GF100991001001999999001001MD1710081+9999MW1021
0057375750999991971011815004+41633+046483FM-12+051899999V0201101N00211220001CN0200001N9-00221-00391102291ADDAY101031GF103991001001999999001051MD1310111+9999MW1031
0073375750999991971011821004+41633+046483FM-12+051899999V0200501N00211000151CN0210001N9-00391-00611102541ADDAY101031GA1051+000159089GF199999999999999999001001MD1210041+9999MW1021
0068375750999991971011900004+41633+046483FM-12+051899999V0200501N00311220001CN0270001N9-00501-00781102551ADDAA199000091AY101061GF100991001001999999001001MD1710011+9999MW1021
0057375750999991971011903004+41633+046483FM-12+051899999V0201401N00101220001CN0450001N9-00501-00781102501ADDAY101031GF102991001001999999001021MD1610051+9999MW1031
0106375750999991971011906004+41633+046483FM-12+051899999V0201401N00101220001CN0500001N9-00391-00721102511ADDAA199000091AY101061GF103991001001999999001021HL10009IA1319IA2999-01229KA1999N-00721MD1310031+9999MW1031
0068375750999991971011912004+41633+046483FM-12+051899999V0202701N00101220001CN0500001N9+00281-00611102141ADDAA199000091AY111061GF108991001001999999001021MD1710191+9999MW1031
0057375750999991971011915004+41633+046483FM-12+051899999V0200501N00101220001CN0200001N9-00221-00611102261ADDAY111031GF103991031001999999041001MD1310021+9999MW1011
0081375750999991971011918004+41633+046483FM-12+051899999V0200501N00211220001CN0280001N9-00391-00721102311ADDAA199000091AY111061GF103991001001999999001021KA1999M+00611MD1210011+9999MW1021
0068375750999991971012000004+41633+046483FM-12+051899999V0200501N00101220001CN0300001N9-00611-00891102431ADDAA199000091AY101061GF100991001001999999001001MD1210021+9999MW1021
0043375750999991971012003004+41633+046483FM-12+051899999V0200501N00211220001CN0300001N9-00611+99999102361ADDAY101031GF100991001001999999001001MW1021
0068375750999991971012012004+41633+046483FM-12+051899999V0200501N00101220001CN0200001N9+00281-00281102151ADDAA199000091AY111061GF105991001001999999001011MD1710171+9999MW1011
0057375750999991971012015004+41633+046483FM-12+051899999V0203601N00101220001CN0500001N9-00111-00611102181ADDAY111031GF102991001001999999001021MD1610051+9999MW1011
0070375750999991971012018004+41633+046483FM-12+051899999V0200501N00101220001CN0500001N9-00391-00721102311ADDAY111061GF100991001001999999001001KA1999M+00501MD1210071+9999MW1011
0057375750999991971012021004+41633+046483FM-12+051899999V0203601N00311220001CN0500001N9-00391-00721102361ADDAY101031GF100991001001999999001001MD1210051+9999MW1021
0068375750999991971012100004+41633+046483FM-12+051899999V0200501N00211220001CN0500001N9-00501-00721102361ADDAA199000091AY101061GF100991001001999999001001MD1710031+9999MW1021
0057375750999991971012103004+41633+046483FM-12+051899999V0200501N00211220001CN0500001N9-00501-00891102381ADDAY101031GF100991001001999999001001MD1210021+9999MW1021
0123375750999991971012106004+41633+046483FM-12+051899999V0209991C00001220001CN0200001N9-00391-00721102351ADDAA199000091AJ100009199999999AY101061GF100991001001999999001001HL10009IA1009IA2999-00899KA1999N-00721MD1410001+9999MW1021
0057375750999991971012109004+41633+046483FM-12+051899999V0201801N00101220001CN0200001N9+00221-00281102251ADDAY101031GF100991001001999999001001MD1210011+9999MW1021
0084375750999991971012112004+41633+046483FM-12+051899999V0201801N00101000151CN0200001N9+00281-00281102091ADDAA199000091AY101061GA1051+000159099GF199999999999999999001001MD1810131+9999MW1021
0081375750999991971012118004+41633+046483FM-12+051899999V0200501N00311220001CN0500001N9-00111-00611102291ADDAA199000091AY101061GF100991001001999999001001KA1999M+00391MD1210111+9999MW1011
0057375750999991971012209004+41633+046483FM-12+051899999V0202901N00101220001CN0200001N9+00221-00281102391ADDAY101031GF101991011011008001001001MD1810021+9999MW1031
0068375750999991971012212004+41633+046483FM-12+051899999V0202901N00101220001CN0200001N9+00391-00281102291ADDAA199000091AY101061GF100991001001999999001001MD1610061+9999MW1011
0081375750999991971012218004+41633+046483FM-12+051899999V0200501N00211220001CN0500001N9-00221-00721102611ADDAA199000091AY101061GF100991001001999999001001KA1999M+00611MD1210141+9999MW1021
0057375750999991971012221004+41633+046483FM-12+051899999V0200501N00211220001CN0500001N9-00281-00611102731ADDAY101031GF100991001001999999001001MD1210081+9999MW1021
0068375750999991971012300004+41633+046483FM-12+051899999V0200201N00101220001CN0500001N9-00281-00611102811ADDAA199000091AY111061GF100991001001999999001001MD1210081+9999MW1021
0057375750999991971012303004+41633+046483FM-12+051899999V0200501N00211024001CN0500001N9-00221-00501102821ADDAY121031GF107991071001999999041001MD1210041+9999MW1031
0106375750999991971012306004+41633+046483FM-12+051899999V0209991C00001004501CN0100001N9-00111-00391102911ADDAA199000091AY121061GF108991081021004501999999HL10009IA1139IA2999-00729KA1999N-00281MD1210101+9999MW1021
0068375750999991971012312004+41633+046483FM-12+051899999V0202701N00101220001CN0200001N9+00391-00281102791ADDAA199000091AY111061GF103991001001999999001021MD1410001+9999MW1011
0057375750999991971012315004+41633+046483FM-12+051899999V0201101N00211220001CN0190001N9+00001-00111102951ADDAY101031GF100991001001999999001001MD1310071+9999MW1011
0081375750999991971012318004+41633+046483FM-12+051899999V0201101N00211220001CN0190001N9-00111-00281103121ADDAA199000091AY101061GF100991001001999999001001KA1999M+00501MD1110141+9999MW1021
0057375750999991971012321004+41633+046483FM-12+051899999V0201101N00101220001CN0100001N9-00221-00391103241ADDAY101031GF100991001001999999001001MD1210091+9999MW1021
0068375750999991971012400004+41633+046483FM-12+051899999V0201101N00211220001CN0090001N9-00391-00611103181ADDAA199000091AY101061GF100991001001999999001001MD1710081+9999MW1021
0057375750999991971012403004+41633+046483FM-12+051899999V0200901N00311220001CN0090001N9-00391-00721103121ADDAY101031GF100991001001999999001001MD1710061+9999MW1021
0106375750999991971012406004+41633+046483FM-12+051899999V0200501N00211220001CN0200001N9-00221-00501103191ADDAA199000091AY101061GF100991001001999999001001HL10009IA1139IA2999-00729KA1999N-00501MD1210111+9999MW1021
0068375750999991971012412004+41633+046483FM-12+051899999V0202501N00101220001CN0200001N9+00501-00221102811ADDAA199000091AY101061GF100991001001999999001001MD1710171+9999MW1021
0081375750999991971012418004+41633+046483FM-12+051899999V0200501N00101220001CN0300001N9-00111-00721102921ADDAA199000091AY101061GF100991001001999999001001KA1999M+00721MD1710011+9999MW1021
0057375750999991971012421004+41633+046483FM-12+051899999V0200501N00211220001CN0280001N9-00221-00721102921ADDAY101031GF100991001001999999001001MD1710011+9999MW1021
0084375750999991971012500004+41633+046483FM-12+051899999V0200501N00211220001CN0290001N9-00281-00721102831ADDAA106999999AA299200091AY101061GF100991001001999999001001MW1021EQDQ01  78702PRCP06
0057375750999991971012503004+41633+046483FM-12+051899999V0200501N00101220001CN0290001N9-00391-00781102741ADDAY101031GF100991001001999999001001MD1710101+9999MW1021
0106375750999991971012506004+41633+046483FM-12+051899999V0200201N00101220001CN0200001N9-00111-00721102711ADDAA199000091AY101061GF100991001001999999001001HL10009IA1309IA2999-00899KA1999N-00391MD1210021+9999MW1021
0057375750999991971012509004+41633+046483FM-12+051899999V0201801N00211220001CN0200001N9+00391-00111102381ADDAY101031GF100991001001999999001001MD1710211+9999MW1021
0068375750999991971012512004+41633+046483FM-12+051899999V0202701N00211220001CN0200001N9+00501-00111102311ADDAA199000091AY101061GF100991001001999999001001MD1710121+9999MW1021
0057375750999991971012515004+41633+046483FM-12+051899999V0202701N00101220001CN0500001N9+00111-00221102411ADDAY101031GF100991001001999999001001MD1310041+9999MW1021
0081375750999991971012518004+41633+046483FM-12+051899999V0200501N00211220001CN0270001N9-00111-00391102511ADDAA199000091AY121061GF100991001001999999001001KA1999M+00611MD1010061+9999MW1021
0068375750999991971012600004+41633+046483FM-12+051899999V0200201N00311220001CN0200001N9-00281-00391102691ADDAA199000091AY101061GF100991001001999999001001MD1110121+9999MW1021
0057375750999991971012603004+41633+046483FM-12+051899999V0200201N00311220001CN0200001N9-00391-00501102691ADDAY101031GF100991001001999999001001MD1410001+9999MW1021
0106375750999991971012606004+41633+046483FM-12+051899999V0201101N00101220001CN0200001N9-00221-00391102621ADDAA199000091AY101061GF100991001001999999001001HL10009IA1309IA2999-00729KA1999N-00501MD1710031+9999MW1021
0057375750999991971012609004+41633+046483FM-12+051899999V0203201N00101220001CN0200001N9+00221-00221102471ADDAY101031GF101991011011008001001001MD1710071+9999MW1021
0068375750999991971012612004+41633+046483FM-12+051899999V0203201N00211220001CN0200001N9+00501-00391102281ADDAA199000091AY101061GF100991001001999999001001MD1710141+9999MW1021
0057375750999991971012615004+41633+046483FM-12+051899999V0200501N00211220001CN0200001N9+00001-00611102331ADDAY101031GF100991001001999999001001MD1710021+9999MW1021
0081375750999991971012618004+41633+046483FM-12+051899999V0200501N00211220001CN0500001N9+00221-00721102461ADDAA199000091AY101061GF100991001001999999001001KA1999M+00501MD1310071+9999MW1021
0057375750999991971012621004+41633+046483FM-12+051899999V0200201N00101220001CN0500001N9-00221-00781102501ADDAY101031GF100991001001999999001001MD1210041+9999MW1021
0068375750999991971012700004+41633+046483FM-12+051899999V0200901N00101220001CN0500001N9-00281-00721102431ADDAA199000091AY101061GF100991001001999999001001MD1810091+9999MW1021
0057375750999991971012703004+41633+046483FM-12+051899999V0200501N00211220001CN0500001N9-00281-00781102351ADDAY101031GF100991001001999999001001MD1710071+9999MW1021
0106375750999991971012706004+41633+046483FM-12+051899999V0200501N00101220001CN0200001N9-00221-00721102371ADDAA199000091AY101061GF100991001001999999001001HL10009IA1309IA2999-00619KA1999N-00391MD1310051+9999MW1021
0057375750999991971012709004+41633+046483FM-12+051899999V0202301N00211220001CN0200001N9+00281-00221102331ADDAY101031GF100991001001999999001001MD1210031+9999MW1021
0068375750999991971012712004+41633+046483FM-12+051899999V0202301N00211220001CN0200001N9+00501-00221102131ADDAA199000091AY101061GF100991001001999999001001MD1710141+9999MW1021
0057375750999991971012715004+41633+046483FM-12+051899999V0201101N00211220001CN0200001N9+00001-00281102211ADDAY101031GF100991001001999999001001MD1810011+9999MW1021
0081375750999991971012718004+41633+046483FM-12+051899999V0200901N00101220001CN0180001N9-00111-00611102311ADDAA199000091AY101061GF100991001001999999001001KA1999M+00611MD1110081+9999MW1021
0057375750999991971012721004+41633+046483FM-12+051899999V0201101N00211220001CN0220001N9-00281-00501102371ADDAY101031GF100991001001999999001001MD1010011+9999MW1021
0068375750999991971012800004+41633+046483FM-12+051899999V0200901N00211220001CN0190001N9-00281-00611102321ADDAA199000091AY101061GF100991001001999999001001MD1810051+9999MW1021
0057375750999991971012803004+41633+046483FM-12+051899999V0200901N00311220001CN0350001N9-00281-00611102241ADDAY101031GF100991001001999999001001MD1710091+9999MW1021
0106375750999991971012806004+41633+046483FM-12+051899999V0200501N00211220001CN0200001N9-00221-00501102291ADDAA199000091AY101061GF100991001001999999001001HL10009IA1189IA2999-00399KA1999N-00391MD1110081+9999MW1021
0057375750999991971012809004+41633+046483FM-12+051899999V0201801N00211220001CN0200001N9+00281-00111102131ADDAY101031GF100991001001999999001001MD1710061+9999MW1021
0068375750999991971012812004+41633+046483FM-12+051899999V0202701N00101220001CN0200001N9+00501-00221102051ADDAA199000091AY101061GF100991001001999999001001MD1710131+9999MW1021
0057375750999991971012815004+41633+046483FM-12+051899999V0200501N00211220001CN0200001N9+00111-00721102101ADDAY101031GF100991001001999999001001MD1310051+9999MW1021
0081375750999991971012818004+41633+046483FM-12+051899999V0200501N00211220001CN0180001N9-00221-00611102241ADDAA199000091AY101061GF100991001001999999001001KA1999M+00611MD1210091+9999MW1021
0068375750999991971012900004+41633+046483FM-12+051899999V0200501N00311004501CN0100001N9-00221-00611102161ADDAA199000091AY111061GF108991081021004501999999MD1710061+9999MW1031
0106375750999991971012906004+41633+046483FM-12+051899999V0200201N00101220001CN0200001N9-00221-00721102201ADDAA199000091AY111061GF100991001001999999001001HL10009IA1189IA2999-00509KA1999N-00281MD1210021+9999MW1011
0068375750999991971012912004+41633+046483FM-12+051899999V0202701N00101220001CN0200001N9+00501-00281101851ADDAA199000091AY101061GF100991001001999999001001MD1710131+9999MW1021
0057375750999991971012915004+41633+046483FM-12+051899999V0200501N00411220001CN0200001N9+00001-00221101951ADDAY101031GF100991001001999999001001MD1410001+9999MW1021
0081375750999991971012918004+41633+046483FM-12+051899999V0200501N00311220001CN0190001N9-00111-00501102191ADDAA199000091AY101061GF100991001001999999001001KA1999M+00501MD1210211+9999MW1021
0057375750999991971012921004+41633+046483FM-12+051899999V0200501N00211220001CN0120001N9-00111-00611102251ADDAY101031GF100991001001999999001001MD1110061+9999MW1021
0068375750999991971013000004+41633+046483FM-12+051899999V0200201N00311220001CN0100001N9-00281-00501102341ADDAA199000091AY101061GF100991001001999999001001MD1110041+9999MW1021
0057375750999991971013003004+41633+046483FM-12+051899999V0200501N00211220001CN0100001N9-00281-00611102411ADDAY101031GF100991001001999999001001MD1310071+9999MW1021
0123375750999991971013006004+41633+046483FM-12+051899999V0200901N00101220001CN0200001N9-00111-00391102521ADDAA199000091AJ100009199999999AY101061GF100991001001999999001001HL10009IA1009IA2999-00509KA1999N-00391MD1210141+9999MW1021
0043375750999991971013009004+41633+046483FM-12+051899999V0202901N00101220001CN0200001N9+00281+00001102421ADDAY101031GF100991001001999999001001MW1021
0068375750999991971013012004+41633+046483FM-12+051899999V0202301N00311220001CN0200001N9+00611-00281102221ADDAA199000091AY101061GF100991001001999999001001MD1810121+9999MW1021
0057375750999991971013015004+41633+046483FM-12+051899999V0200501N00211220001CN0200001N9+00111-00501102241ADDAY101031GF100991001001999999001001MD1710081+9999MW1021
0081375750999991971013018004+41633+046483FM-12+051899999V0200501N00211220001CN0500001N9+00001-00611102331ADDAA199000091AY101061GF100991001001999999001001KA1999M+00611MD1310071+9999MW1021
0057375750999991971013021004+41633+046483FM-12+051899999V0200201N00211220001CN0500001N9-00111-00721102221ADDAY101031GF100991001001999999001001MD1810121+9999MW1021
0068375750999991971013100004+41633+046483FM-12+051899999V0200501N00211220001CN0500001N9-00111-00721102161ADDAA199000091AY101061GF100991001001999999001001MD1710071+9999MW1021
0057375750999991971013103004+41633+046483FM-12+051899999V0200501N00101220001CN0500001N9-00221-00721102171ADDAY101031GF100991001001999999001001MD1710011+9999MW1021
0123375750999991971013106004+41633+046483FM-12+051899999V0200501N00211220001CN0200001N9+00001-00501102251ADDAA199000091AJ100009199999999AY111061GF105991001001999999001031HL10009IA1189IA2999-00509KA1999N-00281MD1310121+9999MW1031
0057375750999991971013109004+41633+046483FM-12+051899999V0201801N00311220001CN0200001N9+00391-00501102301ADDAY121031GF105991001001999999001021MD1510111+9999MW1021
0068375750999991971013112004+41633+046483FM-12+051899999V0201801N00311090001CN0200001N9+00611-00281102281ADDAA199000091AY121061GF106991021021012501001021MD1110021+9999MW1031
0057375750999991971013115004+41633+046483FM-12+051899999V0201801N00311220001CN0100001N9+00111+00001102601ADDAY121031GF108991001001999999001071MD1210221+9999MW1031
0081375750999991971013118004+41633+046483FM-12+051899999V0209991C00001007801CN0100001N9+00221-00111102761ADDAA199000091AY121061GF108991081051008001999999KA1999M+00611MD1210171+9999MW1021
0043375750999991971013121004+41633+046483FM-12+051899999V0209991C000019999999N0100001N9+00501+99999102761ADDAY121031GF108991999999999999999999MW1021
0087375750999991971020100004+41633+046483FM-12+051899999V0209991C00001007801CN0110001N9+00221-00111102751ADDAA199999999AY171061GF108991081001008001021999MD1810011+9999MW1711EQDQ01  00002PRCP99
0131375750999991971020106004+41633+046483FM-12+051899999V0209991C00001002401CN0020001N9+00111-00111102881ADDAJ100009199999999AY171061GF108991081001002501021999HL10009IA1189IA2999+00009KA1999N+99999MD1210101+9999MW1711EQDQ01 +00222ATMN  
0057375750999991971020109004+41633+046483FM-12+051899999V0201801N00211002401CN0020001N9+00221+00001102781ADDAY171031GF108991999071002501021999MD1710071+9999MW1711
0079375750999991971020112004+41633+046483FM-12+051899999V0202001N00101007801CN0100001N9+00281+00001102641ADDAA106001091AA299000391AY171061GF107991071071008001001001MD1710131+9999MW1021
0092375750999991971020118004+41633+046483FM-12+051899999V0201801N00101002401CN0048001N9+00111-00111102631ADDAA106004091AA299001091AY171061GF108991081021002501999999KA1999M+00391MD1710011+9999MW1021
0079375750999991971020200004+41633+046483FM-12+051899999V0200501N00101002401CN0048001N9+00111-00111102371ADDAA106004091AA299001091AY121061GF108991081021002501999999MD1710141+9999MW1011
0057375750999991971020203004+41633+046483FM-12+051899999V0200501N00101000151CN0001001N9+00001-00111102231ADDAY141031GF109991091999000251999999MD1710141+9999MW1451
0123375750999991971020206004+41633+046483FM-12+051899999V0200901N00211007801CN0200001N9-00111-00611102251ADDAA199000091AJ100009199999999AY141061GF105991051051008001001001HL10009IA1139IA2999-00119KA1999N-00111MD1410001+9999MW1011
0057375750999991971020212004+41633+046483FM-12+051899999V0202701N00101007801CN0200001N9+00281-00391101681ADDAY121061GF108991081051008001999999MD1710241+9999MW1031
0057375750999991971020215004+41633+046483FM-12+051899999V0202701N00101007801CN0200001N9+00221-00501101541ADDAY121031GF107991071051008001001001MD1710171+9999MW1021
0081375750999991971020218004+41633+046483FM-12+051899999V0200501N00101007801CN0140001N9+00221-00391101501ADDAA199000091AY121061GF108991081051008001999999KA1999M+00391MD1710041+9999MW1021
0068375750999991971020300004+41633+046483FM-12+051899999V0200501N00311012301CN0200001N9+00001-00501101321ADDAA199000091AY121061GF107991071051012501001001MD1710131+9999MW1021
0123375750999991971020306004+41633+046483FM-12+051899999V0201401N00311220001CN0200001N9+00001-00391101141ADDAA199000091AJ100009199999999AY121061GF108991001001999999001071HL10009IA1139IA2999-00229KA1999N-00111MD1710041+9999MW1031
0057375750999991971020309004+41633+046483FM-12+051899999V0209991C00001220001CN0200001N9+00501-00391100921ADDAY111031GF103991031001999999041001MD1810121+9999MW1011
0068375750999991971020312004+41633+046483FM-12+051899999V0209991C00001220001CN0200001N9+00501-00281100831ADDAA199000091AY111061GF108991001001999999001021MD1610071+9999MW1031
0057375750999991971020315004+41633+046483FM-12+051899999V0200501N00101220001CN0200001N9+00281-00221100951ADDAY121031GF108991001001999999001021MD1210061+9999MW1021
0081375750999991971020318004+41633+046483FM-12+051899999V0209991C00001220001CN0300001N9+00281-00221101061ADDAA199000091AY121061GF108991001001999999001021KA1999M+00721MD1210111+9999MW1021
0057375750999991971020321004+41633+046483FM-12+051899999V0200501N00101220001CN0210001N9+00281-00111101101ADDAY121031GF108991001001999999001021MD1410001+9999MW1021
0068375750999991971020400004+41633+046483FM-12+051899999V0209991C00001220001CN0300001N9+00111-00111101231ADDAA199000091AY111061GF100991001001999999001001MD1210121+9999MW1011
0057375750999991971020403004+41633+046483FM-12+051899999V0209991C00001015001CN0270001N9+00111-00221101291ADDAY111031GF108991081051017501999999MD1210061+9999MW1031
0123375750999991971020406004+41633+046483FM-12+051899999V0200501N00101024001CN0200001N9+00221-00391101321ADDAA199000091AJ100009199999999AY111061GF108991051001999999041021HL10009IA1139IA2999-00119KA1999N+00001MD1810041+9999MW1021
0057375750999991971020409004+41633+046483FM-12+051899999V0202701N00101024001CN0200001N9+00391-00281101261ADDAY121031GF108991081001999999021999MD1710021+9999MW1021
0068375750999991971020412004+41633+046483FM-12+051899999V0202701N00211024001CN0200001N9+00721-00281101121ADDAA199000091AY121061GF107991071001999999011001MD1710071+9999MW1021
0057375750999991971020415004+41633+046483FM-12+051899999V0201101N00311090001CN0200001N9+00501+00221101281ADDAY121031GF108991021001999999041071MD1310121+9999MW1021
0081375750999991971020418004+41633+046483FM-12+051899999V0200901N00211220001CN0190001N9+00281+00111101521ADDAA199000091AY111061GF102991021001999999041001KA1999M+00781MD1210191+9999MW1011
0068375750999991971020500004+41633+046483FM-12+051899999V0200901N00211024001CN0110001N9+00221+00001101551ADDAA199000091AY111061GF108991081001999999021999MD1710011+9999MW1031
0057375750999991971020503004+41633+046483FM-12+051899999V0200901N00211004501CN0100001N9+00221+00001101511ADDAY121031GF108991081051004501999999MD1010001+9999MW1021
0123375750999991971020506004+41633+046483FM-12+051899999V0200501N00211024001CN0200001N9+00281+00001101601ADDAA199000091AJ100009199999999AY121061GF107991071001999999011001HL10009IA1139IA2999-00119KA1999N+00111MD1210121+9999MW1021
0057375750999991971020509004+41633+046483FM-12+051899999V0202301N00211024001CN0200001N9+00611+00001101511ADDAY121031GF107991071001999999011001MD1710041+9999MW1021
0068375750999991971020512004+41633+046483FM-12+051899999V0202001N00101036001CN0200001N9+00781+00111101251ADDAA199000091AY121061GF108991031021008001011001MD1710211+9999MW1021
0057375750999991971020515004+41633+046483FM-12+051899999V0200501N00211036001CN0100001N9+00501-00221101271ADDAY121031GF108991031051008001031999MD1710031+9999MW1021
0081375750999991971020518004+41633+046483FM-12+051899999V0200201N00211007801CN0130001N9+00221-00221101381ADDAA199000091AY121061GF106991061051008001001001KA1999M+00891MD1310031+9999MW1011
0057375750999991971020521004+41633+046483FM-12+051899999V0200501N00101007801CN0150001N9+00281-00221101301ADDAY121031GF108991081051008001999999MD1710051+9999MW1031
0057375750999991971020600004+41633+046483FM-12+051899999V0200501N00101007801CN0200001N9+00221-00111101261ADDAY121061GF105991051051008001001001MD1710081+9999MW1021
0057375750999991971020603004+41633+046483FM-12+051899999V0200501N00101007801CN0200001N9+00111-00221101121ADDAY121031GF105991051051008001001001MD1710131+9999MW1021
0123375750999991971020606004+41633+046483FM-12+051899999V0200201N001019999999N0200001N9+00281-00221100901ADDAA199000091AJ100009199999999AY121061GF108991999021008001001001HL10009IA1139IA2999-00119KA1999N+00001MD1710181+9999MW1031
0068375750999991971020612004+41633+046483FM-12+051899999V0202701N00211036001CN0200001N9+01001-00221100591ADDAA199000091AY121061GF108991021021012501041021MD1710171+9999MW1021
0057375750999991971020615004+41633+046483FM-12+051899999V0203201N00511012301CN0500001N9+00781-00391100761ADDAY121031GF107991071091012501001001MD1210131+9999MW1021
0081375750999991971020618004+41633+046483FM-12+051899999V0203201N003119999999N0500001N9+00721-00281100951ADDAA199000091AY121061GF106991999001999999041001KA1999M+01221MD1210161+9999MW1011
0043375750999991971020621004+41633+046483FM-12+051899999V0209991C00001220001CN0500001N9+00281-00281101091ADDAY111031GF102991999001999999041001MW1011
0068375750999991971020700004+41633+046483FM-12+051899999V0209991C00001220001CN0500001N9+00221-00501101101ADDAA199000091AY101061GF100991001001999999001001MD1210011+9999MW1011
0057375750999991971020703004+41633+046483FM-12+051899999V0209991C00001012301CN0300001N9+00221-00281101071ADDAY111031GF108991081051012501999999MD1010051+9999MW1031
0123375750999991971020706004+41633+046483FM-12+051899999V0201601N00101015001CN0500001N9+00221-00281100981ADDAA199000091AJ100009199999999AY111061GF107991071051017501001001HL10009IA1139IA2999-00229KA1999N+00111MD1510091+9999MW1021
0057375750999991971020709004+41633+046483FM-12+051899999V0203201N00311024001CN0500001N9+00611-00391100611ADDAY121031GF106991061001999999031001MD1710281+9999MW1011
0068375750999991971020712004+41633+046483FM-12+051899999V0203401N00411090001CN0500001N9+00781-00611100251ADDAA199000091AY121061GF105991011021017501041021MD1710311+9999MW1011
0057375750999991971020715004+41633+046483FM-12+051899999V0203401N002119999999N0500001N9+00501-00611100251ADDAY121031GF106991061051999999999999MD1710041+9999MW1031
0081375750999991971020718004+41633+046483FM-12+051899999V0200501N00101024001CN0500001N9+00391-00611100401ADDAA199000091AY121061GF107991071001999999041001KA1999M+00891MD1310131+9999MW1031
0068375750999991971020800004+41633+046483FM-12+051899999V0203601N00101012301CN0500001N9+00221-00611100701ADDAA199000091AY121061GF108991081051012501999999MD1210191+9999MW1021
0057375750999991971020803004+41633+046483FM-12+051899999V0200501N00211220001CN0500001N9+00111-00611100731ADDAY111031GF102991021051012501001001MD1210131+9999MW1011
0076375750999991971020809004+41633+046483FM-12+051899999V0200701N00871220001CN0500001N9+00221-01611101622ADDAY101031GF103991021021012501001011MD1210101+9999MW1031EQDQ01+101623APOSLP
0068375750999991971020812004+41633+046483FM-12+051899999V0200501N00721012301CN0500001N9+00111-01281101541ADDAA199000091AY111061GF107991071021012501001001MD1710011+9999MW1031
0057375750999991971020815004+41633+046483FM-12+051899999V0200501N00511036001CN0500001N9+00221-01221101611ADDAY121031GF105991021091008001041001MD1310081+9999MW1151
0123375750999991971020818004+41633+046483FM-12+051899999V0201001N00311220001CN0500001N9-00111-00891101701ADDAA199000091AJ100009199999999AY111061GF100991001001999999001001HL10009IA1009IA2999+01619KA1999M+00501MD1110041+9999MW1011
0068375750999991971020900004+41633+046483FM-12+051899999V0201101N00311220001CN0500001N9-00391-01111101611ADDAA199000091AY111061GF106991001001999999001021MD1710161+9999MW1031
0057375750999991971020903004+41633+046483FM-12+051899999V0201801N00101220001CN0500001N9-00391-01001101411ADDAY121031GF108991001001999999001071MD1610181+9999MW1031
0123375750999991971020906004+41633+046483FM-12+051899999V0201101N00211220001CN0500001N9-00221-00781101371ADDAA199000091AJ100009199999999AY121061GF108991001001999999001021HL10009IA1139IA2999-00619KA1999N-00721MD1410001+9999MW1021
0057375750999991971020909004+41633+046483FM-12+051899999V0202301N00211220001CN0500001N9+00281-00611101141ADDAY121031GF106991001001999999001011MD1710121+9999MW1011
0068375750999991971020912004+41633+046483FM-12+051899999V0202701N00411220001CN0500001N9+00611-00611100611ADDAA199000091AY111061GF103991011011017501001011MD1710461+9999MW1011
0057375750999991971020915004+41633+046483FM-12+051899999V0200201N00211220001CN0500001N9+00281-00891100461ADDAY111031GF108991031051012501001011MD1710191+9999MW1031
0081375750999991971020918004+41633+046483FM-12+051899999V0200501N00211090001CN0500001N9+00111-00721100351ADDAA199000091AY111061GF108991031001999999031091KA1999M+00721MD1710141+9999MW1021
0054375750999991971021000004+41633+046483FM-12+051899999V0200901N00311220001CN0350001N9+00001-01001100351ADDAA199000091AY121061GF100991001001999999001001MW1021
0057375750999991971021003004+41633+046483FM-12+051899999V0200501N00101002401CN0009001N9-00111-00391100351ADDAY171031GF108991081021002501999999MD1310011+9999MW1731
0117375750999991971021006004+41633+046483FM-12+051899999V0203201N00511002401CN0500001N9-00111-01111100351ADDAA106004091AA299001091AY171061GF108991081021002501999999HL10009IA1089IA2999-00229KA1999N-00221MD1210241+9999MW1021
0079375750999991971021012004+41633+046483FM-12+051899999V0202701N01701220001CN0500001N9+00391-01221100841ADDAA106004091AA299001091AY111061GF102991021021012501001001MD1210221+9999MW1011
0057375750999991971021015004+41633+046483FM-12+051899999V0200501N01491220001CN0500001N9+00111-00391100961ADDAY111031GF105991001001999999001031MD1210061+9999MW1031
0081375750999991971021018004+41633+046483FM-12+051899999V0200501N00311220001CN0500001N9-00221-01221101201ADDAA199000091AY111061GF105991001001999999041011KA1999M+00391MD1210181+9999MW1021
0068375750999991971021100004+41633+046483FM-12+051899999V0200501N00211220001CN0500001N9-00281-00891101381ADDAA199000091AY121061GF106991999001999999041001MD1210041+9999MW1021
0057375750999991971021103004+41633+046483FM-12+051899999V0200501N00311220001CN0500001N9-00721-01281101471ADDAY121031GF108991001001999999001011MD1210011+9999MW1031
0123375750999991971021106004+41633+046483FM-12+051899999V0202501N00311220001CN0500001N9-00281-00891101451ADDAA199000091AJ100009199999999AY121061GF108991001001999999001071HL10009IA1139IA2999-00789KA1999N-00781MD1210061+9999MW1021
0068375750999991971021109004+41633+046483FM-12+051899999V0203401N00211220001CN0500001N9+00221-00781101161ADDAA199000091AY111031GF102991021021017501001001MD1610131+9999MW1011
0057375750999991971021115004+41633+046483FM-12+051899999V0200501N00211220001CN0500001N9+00001-01281101181ADDAY101031GF102991021021017501001001MD1710021+9999MW1031
0081375750999991971021118004+41633+046483FM-12+051899999V0200501N00101024001CN0500001N9-00221-01221101341ADDAA199000091AY121061GF105991051001999999041001KA1999M+00281MD1310111+9999MW1031
0068375750999991971021200004+41633+046483FM-12+051899999V0200501N00101090001CN0500001N9-00221-01001101451ADDAA199000091AY121061GF108991031021008001001021MD1410001+9999MW1031
0057375750999991971021203004+41633+046483FM-12+051899999V0200501N00101220001CN0500001N9-00281-01111101421ADDAY121031GF108991001001999999001021MD1810051+9999MW1021
0123375750999991971021206004+41633+046483FM-12+051899999V0202701N00511090001CN0500001N9-00221-01001101471ADDAA199000091AJ100009199999999AY121061GF108991031091012501001021HL10009IA1139IA2999-00619KA1999N-00501MD1210071+9999MW1021
0057375750999991971021209004+41633+046483FM-12+051899999V0202701N00411090001CN0500001N9+00221-00781101321ADDAY121031GF106991021091012501001021MD1710081+9999MW1011
0068375750999991971021212004+41633+046483FM-12+051899999V0202701N00621090001CN0500001N9+00281-01111101111ADDAA199000091AY121061GF105991021091008001001021MD1710171+9999MW1011
0057375750999991971021215004+41633+046483FM-12+051899999V0203201N00211024001CN0500001N9+00111-01281101131ADDAY121031GF106991061001999999031001MD1710021+9999MW1031
0081375750999991971021218004+41633+046483FM-12+051899999V0200501N00311024001CN0500001N9-00111-01221101181ADDAA199000091AY121061GF107991071001999999031001KA1999M+00391MD1210011+9999MW1031
0057375750999991971021221004+41633+046483FM-12+051899999V0203601N00211024001CN0500001N9-00221-01111101201ADDAY121031GF106991061001999999031001MD1410001+9999MW1011
0068375750999991971021300004+41633+046483FM-12+051899999V0200501N00311220001CN0500001N9-00281-01221101211ADDAA199000091AY111061GF100991001001999999001001MD1410001+9999MW1011
0057375750999991971021303004+41633+046483FM-12+051899999V0200501N00311220001CN0500001N9-00281-01391101081ADDAY101031GF100991001001999999001001MD1710131+9999MW1021
0123375750999991971021306004+41633+046483FM-12+051899999V0200201N00211220001CN0500001N9-00111-01001101031ADDAA199000091AJ100009199999999AY111061GF106991001001999999001021HL10009IA1139IA2999-00619KA1999N-00281MD1610021+9999MW1031
0068375750999991971021312004+41633+046483FM-12+051899999V0202901N00621090001CN0500001N9+00391-01001100611ADDAA199000091AY111061GF106991021091008001001021MD1710141+9999MW1031
0057375750999991971021315004+41633+046483FM-12+051899999V0202701N00621090001CN0500001N9+00111-01001100661ADDAY121031GF108991021001999999031021MD1710011+9999MW1031
0081375750999991971021318004+41633+046483FM-12+051899999V0202701N00411024001CN0400001N9-00221-01281100971ADDAA199000091AY121061GF105991051001999999031001KA1999M+00501MD1210231+9999MW1011
0057375750999991971021321004+41633+046483FM-12+051899999V0203201N00621220001CN0500001N9-00391-01721101091ADDAY111031GF102991001001999999001021MD1210081+9999MW1011
0068375750999991971021400004+41633+046483FM-12+051899999V0200501N00411220001CN0500001N9-00721-01721101191ADDAA199000091AY111061GF100991001001999999001001MD1210051+9999MW1011
0057375750999991971021403004+41633+046483FM-12+051899999V0200501N00211220001CN0500001N9-00781-01721101291ADDAY101031GF100991001001999999001001MD1210071+9999MW1021
0123375750999991971021406004+41633+046483FM-12+051899999V0200501N00101220001CN0500001N9-00501-01391101401ADDAA199000091AJ100009199999999AY101061GF100991001001999999001001HL10009IA1139IA2999-01119KA1999N-00891MD1210161+9999MW1021
0068375750999991971021412004+41633+046483FM-12+051899999V0202701N00211090001CN0500001N9+00221-01501101341ADDAA199000091AY101061GF108991021021012501001021MD1810081+9999MW1031
0081375750999991971021418004+41633+046483FM-12+051899999V0202701N00511220001CN0500001N9+00001-01221101611ADDAA199000091AY121061GF106991001001999999001021KA1999M+00221MD1210161+9999MW1011
0068375750999991971021500004+41633+046483FM-12+051899999V0200501N00411220001CN0500001N9-00391-01281101771ADDAA199000091AY111061GF103991031001999999031001MD1410001+9999MW1011
0057375750999991971021503004+41633+046483FM-12+051899999V0200501N00511220001CN0500001N9-00391-01281101771ADDAY101031GF100991001001999999001001MD1410001+9999MW1011
0123375750999991971021506004+41633+046483FM-12+051899999V0200501N00311024001CN0500001N9-00111-01281101731ADDAA199000091AJ100009199999999AY111061GF108991061001999999031021HL10009IA1139IA2999-00789KA1999N-00501MD1210031+9999MW1031
0068375750999991971021512004+41633+046483FM-12+051899999V0202701N00511090001CN0500001N9+00501-00891101731ADDAA199000091AY121061GF105991021021012501001021MD1210041+9999MW1011
0057375750999991971021515004+41633+046483FM-12+051899999V0200501N00101220001CN0500001N9+00221-00891101761ADDAY111031GF102991021021012501001001MD1810031+9999MW1011
0081375750999991971021518004+41633+046483FM-12+051899999V0200501N00101220001CN0500001N9+00111-00891101681ADDAA199000091AY111061GF102991021021012501001001KA1999M+00611MD1310201+9999MW1031
0057375750999991971021521004+41633+046483FM-12+051899999V0200501N00101220001CN0500001N9-00111-00891101681ADDAY101031GF100991001001999999001001MD1210031+9999MW1021
0068375750999991971021600004+41633+046483FM-12+051899999V0200501N00211220001CN0500001N9-00111-01001101691ADDAA199000091AY101061GF100991001001999999001001MD1210051+9999MW1021
0057375750999991971021603004+41633+046483FM-12+051899999V0200501N00211220001CN0500001N9+00001-00891102041ADDAY111031GF108991001001999999001021MD1810051+9999MW1031
0081375750999991971021606004+41633+046483FM-12+051899999V0200201N00311220001CN0500001N9+00221-00221102121ADDAA199000091AY111061GF108991001001999999001021KA1999N-00221MD1210011+9999MW1021
0057375750999991971021609004+41633+046483FM-12+051899999V0202701N00311220001CN0500001N9+00611-00611102031ADDAY121031GF105991001001999999001021MD1810091+9999MW1011
0068375750999991971021612004+41633+046483FM-12+051899999V0202701N00411220001CN0500001N9+00891-00501101781ADDAA199000091AY111061GF103991001001999999001021MD1710101+9999MW1011
0057375750999991971021615004+41633+046483FM-12+051899999V0200501N00311220001CN0500001N9+00611-00721101771ADDAY101031GF101991001001999999001011MD1710061+9999MW1011
0081375750999991971021618004+41633+046483FM-12+051899999V0200501N00411220001CN0500001N9+00391-00501101811ADDAA199000091AY101061GF100991001001999999001001KA1999M+01001MD1410001+9999MW1011
0057375750999991971021621004+41633+046483FM-12+051899999V0200901N00511220001CN0500001N9+00391-00721101811ADDAY101031GF100991001001999999001001MD1410001+9999MW1021
0068375750999991971021700004+41633+046483FM-12+051899999V0200501N00411024001CN0500001N9+00391-00721101791ADDAA199000091AY111061GF107991071001999999031001MD1710021+9999MW1031
0057375750999991971021703004+41633+046483FM-12+051899999V0200501N00311220001CN0500001N9+00391-00721101721ADDAY111031GF103991001001999999001011MD1710071+9999MW1011
0123375750999991971021706004+41633+046483FM-12+051899999V0200501N00311220001CN0500001N9+00721-00221101611ADDAA199000091AJ100009199999999AY111061GF108991001001999999001021HL10009IA1139IA2999-00229KA1999N+00281MD1810031+9999MW1031
0057375750999991971021709004+41633+046483FM-12+051899999V0202301N00211220001CN0500001N9+01001-00111101501ADDAY121031GF108991001001999999001021MD1710061+9999MW1021
0068375750999991971021712004+41633+046483FM-12+051899999V0202301N00211220001CN0500001N9+01221-01001101371ADDAA199000091AY121061GF106991021021012501001011MD1710091+9999MW1011
0081375750999991971021718004+41633+046483FM-12+051899999V0200501N00311220001CN0300001N9+00391-00501101811ADDAA199000091AY121061GF107991001001999999001091KA1999M+01281MD1210191+9999MW1011
0057375750999991971021721004+41633+046483FM-12+051899999V0209999900311004501CN0100001N9+00391-00501101961ADDAY121031GF108991081021004501999999MD1210151+9999MW1031
0068375750999991971021800004+41633+046483FM-12+051899999V0200901N00211002401CN0046001N9+00111-00391102111ADDAA199000091AY121061GF108991081021002501999999MD1210071+9999MW1021
0057375750999991971021803004+41633+046483FM-12+051899999V0201401N00101002401CN0046001N9+00111-00281102141ADDAY121031GF108991081021002501999999MD1210031+9999MW1021
0123375750999991971021806004+41633+046483FM-12+051899999V0200501N00101004501CN0100001N9+00221-00221102211ADDAA199000091AJ100009199999999AY121061GF108991081021004501999999HL10009IA1139IA2999-00229KA1999N+00001MD1210091+9999MW1021
0057375750999991971021809004+41633+046483FM-12+051899999V0200501N00101004501CN0100001N9+00281-00111102171ADDAY121031GF108991999021004501999011MD1810061+9999MW1021
0068375750999991971021812004+41633+046483FM-12+051899999V0202701N00101004501CN0100001N9+00391-00111101831ADDAA199000091AY121061GF108991081021004501999999MD1710261+9999MW1021
0057375750999991971021815004+41633+046483FM-12+051899999V0202701N00211007801CN0100001N9+00391-00111101791ADDAY121031GF108991081021008001999999MD1610041+9999MW1021
0081375750999991971021818004+41633+046483FM-12+051899999V0200501N00211004501CN0150001N9+00221-00281101801ADDAA199000091AY121061GF108991081021004501999999KA1999M+00781MD1810031+9999MW1021
0057375750999991971021821004+41633+046483FM-12+051899999V0200501N00211007801CN0150001N9+00221-00221101651ADDAY121031GF108991081021008001999999MD1710141+9999MW1021
0068375750999991971021900004+41633+046483FM-12+051899999V0200201N00211007801CN0160001N9+00111-00281101561ADDAA199000091AY121061GF108991081021008001999999MD1710101+9999MW1021
0123375750999991971021906004+41633+046483FM-12+051899999V0209991C00001090001CN0200001N9+00281-00111101321ADDAA199000091AJ100009199999999AY121061GF108991041001999999031071HL10009IA1139IA2999-00229KA1999N+00001MD1410001+9999MW1021
0057375750999991971021909004+41633+046483FM-12+051899999V0202701N00211220001CN0200001N9+00611+00001101191ADDAY121031GF108991021001999999041011MD1810081+9999MW1021
0068375750999991971021912004+41633+046483FM-12+051899999V0201801N00211220001CN0200001N9+00891+00111100951ADDAA199000091AY121061GF108991001001999999001071MD1610171+9999MW1021
0057375750999991971021915004+41633+046483FM-12+051899999V0201801N00101012301CN0200001N9+00611+00001100941ADDAY121031GF107991071051012501001001MD1710061+9999MW1031
0081375750999991971021918004+41633+046483FM-12+051899999V0200501N00101007801CN0100001N9+00501-00111101061ADDAA199000091AY121061GF108991081021008001999999KA1999M+00891MD1310101+9999MW1021
0068375750999991971022000004+41633+046483FM-12+051899999V0200501N00101007801CN0100001N9+00391-00111101261ADDAA199000091AY121061GF108991081021008001999999MD1810051+9999MW1021
0057375750999991971022003004+41633+046483FM-12+051899999V0200201N00211220001CN0100001N9+00221-00111101071ADDAY121031GF103991031051012501001001MD1710031+9999MW1011
0123375750999991971022006004+41633+046483FM-12+051899999V0200701N00211220001CN0200001N9+00721+00001101221ADDAA199000091AJ100009199999999AY121061GF103991001001999999001021HL10009IA1139IA2999-00119KA1999N+00221MD1310241+9999MW1021
0068375750999991971022009004+41633+046483FM-12+051899999V0202701N00311220001CN0500001N9+01111-00781101041ADDAY101031GF102991021071022501071001HL10009IA1009IA2999+01119MW1011
0068375750999991971022012004+41633+046483FM-12+051899999V0202701N00511220001CN0500001N9+01501-00501100981ADDAA199000091AY101061GF103991031021012501001021MD1710061+9999MW1031
0057375750999991971022015004+41633+046483FM-12+051899999V0200901N00411220001CN0200001N9+01111-00111101091ADDAY101031GF103991011021017501041001MD1210031+9999MW1021
0081375750999991971022018004+41633+046483FM-12+051899999V0201401N00211007801CN0500001N9+00891+99999101271ADDAA199000091AY111061GF106991061051008001001001KA1999M+01781MD1210141+9999MW1031
0057375750999991971022021004+41633+046483FM-12+051899999V0202301N00411090001CN0500001N9+00611+00001101411ADDAY121031GF108991041051008001001021MD1210071+9999MW1021
0068375750999991971022100004+41633+046483FM-12+051899999V0202001N00311220001CN0500001N9+00221+00001101591ADDAA199000091AY111061GF102991021001999999041001MD1310101+9999MW1011
0057375750999991971022103004+41633+046483FM-12+051899999V0201401N00211220001CN0500001N9+00111+00001101521ADDAY101031GF101991011001999999041001MD1610081+9999MW1011
0123375750999991971022106004+41633+046483FM-12+051899999V0200501N00211024001CN0200001N9+00391+00111101501ADDAA199000091AJ100009199999999AY111061GF107991071001999999011001HL10009IA1139IA2999-00229KA1999N+00111MD1210031+9999MW1031
0057375750999991971022109004+41633+046483FM-12+051899999V0200901N00101004501CN0100001N9+00501+00281101811ADDAY121031GF108991081051004501999999MD1310011+9999MW1021
0068375750999991971022112004+41633+046483FM-12+051899999V0200201N00101220001CN0200001N9+01111+00221101001ADDAA199000091AY111061GF103991011021017501001021MD1710221+9999MW1011
0057375750999991971022115004+41633+046483FM-12+051899999V0200501N00101220001CN0200001N9+01111+00001100961ADDAY101031GF103991011999999999001021MD1710051+9999MW1021
0081375750999991971022118004+41633+046483FM-12+051899999V0201801N00511220001CN0400001N9+00391+00001101271ADDAA199000091AY101061GF103991001001999999001021KA1999M+01281MD1310171+9999MW1021
0068375750999991971022200004+41633+046483FM-12+051899999V0200201N00101002401CN0220001N9+00281+00111101291ADDAA199000091AY111061GF108991081021002501999999MD1810041+9999MW1031
0057375750999991971022203004+41633+046483FM-12+051899999V0200501N00211002401CN0220001N9+00281+00001101261ADDAY121031GF108991081021002501999999MD1710031+9999MW1021
0123375750999991971022206004+41633+046483FM-12+051899999V0209991C00001002401CN0040001N9+00281-00111101251ADDAA199000091AJ100009199999999AY121061GF108991081021002501999999HL10009IA1089IA2999-00229KA1999N+00111MD1410001+9999MW1021
0068375750999991971022212004+41633+046483FM-12+051899999V0202701N00211002401CN0040001N9+00501+00001100871ADDAA199000091AY121061GF108991081021002501999999MD1710211+9999MW1021
0057375750999991971022215004+41633+046483FM-12+051899999V0209991C00001002401CN0040001N9+00391+00001100831ADDAY121031GF108991081021002501999999MD1610041+9999MW1021
0081375750999991971022218004+41633+046483FM-12+051899999V0202301N00101002401CN0070001N9+00391+00001100751ADDAA199000091AY121061GF108991081021002501999999KA1999M+01001MD1710081+9999MW1021
0079375750999991971022300004+41633+046483FM-12+051899999V0200501N00101002401CN0060001N9+00281+00221100711ADDAA106004091AA299001091AY161061GF108991081021002501999999MD1710061+9999MW1611
0134375750999991971022306004+41633+046483FM-12+051899999V0202301N001019999999N9999999N9+00281+00281100881ADDAA106008091AA299002091AJ100009199999999AY161061GF108991011999999999999999HL10009IA1109IA2999+00229KA1999N+00221MD1210201+9999MW1611
0057375750999991971022309004+41633+046483FM-12+051899999V0209991C99999001501CN0020001N9+00391+00391100961ADDAY141031GF108991081021001501999999MD1210081+9999MW1281
0079375750999991971022312004+41633+046483FM-12+051899999V0202501N00211001501CN0200001N9+00611+00391100931ADDAA106008091AA299002091AY141061GF108991081021001501999999MD1310011+9999MW1021
0057375750999991971022315004+41633+046483FM-12+051899999V0200501N00101007801CN0200001N9+00611+00221100951ADDAY121031GF108991081051008001999999MD1210021+9999MW1021
0092375750999991971022318004+41633+046483FM-12+051899999V0200501N00101007801CN0150001N9+00501+00281101241ADDAA106004091AA299001091AY121061GF108991081021008001999999KA1999M+00721MD1210261+9999MW1021
0057375750999991971022321004+41633+046483FM-12+051899999V0200501N00101007801CN0050001N9+00391+00221101371ADDAY121031GF108991081021008001999999MD1210101+9999MW1021
0079375750999991971022400004+41633+046483FM-12+051899999V0200501N00101007801CN0100001N9+00501+00221101391ADDAA106004091AA299001091AY121061GF108991081021008001999999MD1210061+9999MW1601
0057375750999991971022403004+41633+046483FM-12+051899999V0200201N00101007801CN0060001N9+00391+00111101391ADDAY161031GF108991081021008001999999MD1210031+9999MW1611
0134375750999991971022406004+41633+046483FM-12+051899999V0200901N00101002401CN0020001N9+00501+00281101571ADDAA106012091AA299003091AJ100009199999999AY161061GF108991081021002501999999HL10009IA1109IA2999+00229KA1999N+00391MD1210141+9999MW1021
0057375750999991971022409004+41633+046483FM-12+051899999V0201101N00101001501CN0020001N9+00501+00281101651ADDAY121031GF108991081021001501999999MD1210081+9999MW1021
0079375750999991971022412004+41633+046483FM-12+051899999V0201801N00211002401CN0020001N9+00781+00281101541ADDAA106012091AA299003091AY161061GF108991999021002501071999MD1710061+9999MW1021
0057375750999991971022415004+41633+046483FM-12+051899999V0201401N00311002401CN0020001N9+00611+00281101601ADDAY121031GF108991999021002501071011MD1210021+9999MW1021
0092375750999991971022418004+41633+046483FM-12+051899999V0200501N00101001501CN0040001N9+00391+00221101781ADDAA106004091AA299001091AY161061GF108991081001001501031999KA1999M+00891MD1210131+9999MW1021
0043375750999991971022421004+41633+046483FM-12+051899999V0200501N00101024001CN0040001N9+00391+99999101841ADDAY121031GF108991081001999999999999MW1021
0057375750999991971022503004+41633+046483FM-12+051899999V0209991C00001001501CN0040001N9+00391+00281101801ADDAY121031GF108991081001001501021999MD1210011+9999MW1021
0123375750999991971022506004+41633+046483FM-12+051899999V0202501N00211090001CN0200001N9+00611+00391101791ADDAA199000091AJ100009199999999AY121061GF108991031051008001001021HL10009IA1089IA2999+00229KA1999N+00281MD1810031+9999MW1021
0068375750999991971022512004+41633+046483FM-12+051899999V0202701N00101036001CN0200001N9+01111+00221101601ADDAA199000091AY121061GF108991031021008001041011MD1610151+9999MW1021
0081375750999991971022518004+41633+046483FM-12+051899999V0200501N00311007801CN0110001N9+00721-00111101701ADDAA199000091AY121061GF108991081021008001999999KA1999M+01221MD1310041+9999MW1021
0057375750999991971022521004+41633+046483FM-12+051899999V0200501N00211007801CN0130001N9+00501+00001101751ADDAY121031GF108991081021008001999999MD1210021+9999MW1021
0068375750999991971022600004+41633+046483FM-12+051899999V0200501N00101220001CN0350001N9+00391-00111101741ADDAA199000091AY111061GF103991001001999999001021MD1810031+9999MW1011
0057375750999991971022603004+41633+046483FM-12+051899999V0200201N00211220001CN0350001N9+00281-00221101711ADDAY101031GF102991001001999999001011MD1710031+9999MW1011
0123375750999991971022606004+41633+046483FM-12+051899999V0200501N00211220001CN0200001N9+00501+00111101761ADDAA199000091AJ100009199999999AY111061GF106991001001999999001021HL10009IA1139IA2999-00119KA1999N+00111MD1210071+9999MW1031
0057375750999991971022609004+41633+046483FM-12+051899999V0202301N00311015001CN0200001N9+00891+00221101591ADDAY121031GF106991061021017501001001MD1710091+9999MW1031
0068375750999991971022612004+41633+046483FM-12+051899999V0202001N00211015001CN0200001N9+01111+00281101251ADDAA199000091AY121061GF108991999021017501031001MD1710181+9999MW1031
0057375750999991971022615004+41633+046483FM-12+051899999V0201101N00211090001CN0200001N9+00891+00391101071ADDAY121031GF108991021001022501041071MD1810221+9999MW1021
0100375750999991971022618004+41633+046483FM-12+051899999V0200901N00211001501CN0060001N9+00721+00501100961ADDAA199999999AY121061GF108991081021001501999999KA1999M+01281MD1710131+9999MW1611EQDQ01  00002PRCP99
0068375750999991971022700004+41633+046483FM-12+051899999V0201401N00211007801CN0090001N9+00611+00281100431ADDAA199000091AY161061GF108991081051008001999999MD1710281+9999MW1031
0057375750999991971022703004+41633+046483FM-12+051899999V0202501N00311001501CN0047001N9+00391+00391100241ADDAY121031GF108991081021001501999999MD1710201+9999MW1021
0112375750999991971022706004+41633+046483FM-12+051899999V0209991C00001001501CN0010001N9+00391+00221100021ADDAJ100009199999999AY121061GF108991081021001501999999HL10009IA1089IA2999+00229KA1999N+00391MD1710221+9999MW1021
0057375750999991971022709004+41633+046483FM-12+051899999V0202701N00101001501CN0010001N9+00391+00281099681ADDAY121031GF108991081021001501999999MD1710311+9999MW1611
0079375750999991971022712004+41633+046483FM-12+051899999V0202701N00101001501CN0010001N9+00281+00281099661ADDAA106028091AA299007091AY161061GF108991081021001501999999MD1710071+9999MW1611
0057375750999991971022715004+41633+046483FM-12+051899999V0200501N00411001501CN0010001N9+00391+00281099671ADDAY161031GF108991081021001501999999MD1210041+9999MW1611
0092375750999991971022718004+41633+046483FM-12+051899999V0200501N00311001501CN0039001N9+00501+00281099821ADDAA106031091AA299008091AY161061GF108991081021001501999999KA1999M+00891MD1210151+9999MW1021
0057375750999991971022721004+41633+046483FM-12+051899999V0203601N00311001501CN0042001N9+00391+00221099921ADDAY161031GF108991081021001501999999MD1210081+9999MW1611
0079375750999991971022800004+41633+046483FM-12+051899999V0200501N00311001501CN0046001N9+00391+00221100091ADDAA106016091AA299004091AY161061GF108991081021001501999999MD1210161+9999MW1211
0057375750999991971022803004+41633+046483FM-12+051899999V0200201N00211007801CN0500001N9+00391+00111100211ADDAY121031GF108991081021008001999999MD1210121+9999MW1021
0134375750999991971022806004+41633+046483FM-12+051899999V0201801N00101007801CN0500001N9+00281-00111100641ADDAA106012091AA299003091AJ100009199999999AY121061GF107991071051008001001001HL10009IA1109IA2999+00229KA1999N+00281MD1210381+9999MW1021
0057375750999991971022809004+41633+046483FM-12+051899999V0202301N00211007801CN0500001N9+00721-00111100731ADDAY121031GF108991061051008001001021MD1210171+9999MW1021
0068375750999991971022812004+41633+046483FM-12+051899999V0200501N00101007801CN0500001N9+01001-00391100781ADDAA199000091AY121061GF105991051091008001001001MD1210091+9999MW1011
0057375750999991971022815004+41633+046483FM-12+051899999V0200201N00211220001CN0500001N9+00891-01281100911ADDAY111031GF102991021001999999041001MD1210131+9999MW1011
0081375750999991971022818004+41633+046483FM-12+051899999V0200501N00311220001CN0500001N9+00501-00501101271ADDAA199000091AY111061GF102991021001999999041001KA1999M+01221MD1210251+9999MW1011
0054375750999991971030100004+41633+046483FM-12+051899999V0200501N00211220001CN0500001N9+00391-00611101541ADDAA199000091AY101061GF100991001001999999001001MW1021
0037375750999991971030103004+41633+046483FM-12+051899999V0209999999999001501CN0016001N9+00221+99999101541ADDAY121031GF108991051061001501001091
0054375750999991971030106004+41633+046483FM-12+051899999V0202501N00511007801CN0500001N9+00391+99999101541ADDAA199000091AY111061GF108991081051008001999999MW1031
0057375750999991971030109004+41633+046483FM-12+051899999V0203201N00211220001CN0500001N9+01001+00281101721ADDAY121031GF108991001001999999001011MD1110031+9999MW1021
0057375750999991971030112004+41633+046483FM-12+051899999V0202301N00211036001CN0500001N9+01221+00111101601ADDAY121061GF108991011021017501031021MD1610101+9999MW1021
0057375750999991971030118004+41633+046483FM-12+051899999V0201801N00211007801CN0120001N9+00721+00111101771ADDAY121061GF108991081051008001999999MD1210051+9999MW1021
0057375750999991971030121004+41633+046483FM-12+051899999V0201801N00211007801CN0180001N9+00391+00001101871ADDAY121031GF106991061051008001001001MD1210071+9999MW1011
0068375750999991971030200004+41633+046483FM-12+051899999V0200501N00211220001CN0180001N9+00281+00001101941ADDAA199000091AY111061GF103991001001999999001021MD1210031+9999MW1011
0057375750999991971030203004+41633+046483FM-12+051899999V0200201N00211220001CN0300001N9+00281-00111101871ADDAY101031GF102991001001999999001011MD1810071+9999MW1011
0123375750999991971030206004+41633+046483FM-12+051899999V0200901N00211220001CN0200001N9+00721+00001101871ADDAA199000091AJ100009199999999AY111061GF106991001001999999001021HL10009IA1139IA2999-00119KA1999N+00221MD1210071+9999MW1031
0057375750999991971030209004+41633+046483FM-12+051899999V0202001N00211220001CN0200001N9+01281+00001101751ADDAY111031GF103991001001999999001021MD1410001+9999MW1011
0068375750999991971030212004+41633+046483FM-12+051899999V0202301N00311220001CN0500001N9+01721+00001101501ADDAA199000091AY111061GF103991011021012501001011MD1710181+9999MW1021
0057375750999991971030215004+41633+046483FM-12+051899999V0201101N00211220001CN0500001N9+01391+00111101581ADDAY101031GF102991021051017501001001MD1210021+9999MW1011
0081375750999991971030218004+41633+046483FM-12+051899999V0201101N00411220001CN0250001N9+01111+00001101731ADDAA199000091AY101061GF102991021001999999041001KA1999M+01781MD1110101+9999MW1021
0068375750999991971030300004+41633+046483FM-12+051899999V0209991C00001220001CN9999999N9+00611+00001101941ADDAA199000091AY111061GF105991001001999999001021MD1710061+9999MW1031
0057375750999991971030303004+41633+046483FM-12+051899999V0201401N00101220001CN0200001N9+00501+00111102021ADDAY121031GF108991001001999999001011MD1310041+9999MW1031
0123375750999991971030306004+41633+046483FM-12+051899999V0202701N00101220001CN0500001N9+00891+00111101911ADDAA199000091AJ100009199999999AY121061GF101991011091999999001081HL10009IA1089IA2999+00119KA1999N+00501MD1710111+9999MW1011
0057375750999991971030309004+41633+046483FM-12+051899999V0202701N00211220001CN0500001N9+01281+00221101801ADDAY111031GF106991011011017501001011MD1810081+9999MW1031
0068375750999991971030312004+41633+046483FM-12+051899999V0201801N00211220001CN0500001N9+01501+00281101541ADDAA199000091AY111061GF108991001001999999001021MD1710221+9999MW1031
0081375750999991971030318004+41633+046483FM-12+051899999V0200501N00311220001CN0080001N9+00721+00391101621ADDAA199000091AY121061GF108991001001999999001071KA1999M+01611MD1210091+9999MW1021
0068375750999991971030400004+41633+046483FM-12+051899999V0203601N00101220001CN0180001N9+00721+00391101231ADDAA199000091AY121061GF100991001001999999001001MD1710171+9999MW1021
0110375750999991971030406004+41633+046483FM-12+051899999V0202301N00311024001CN0200001N9+00891+00281101091ADDAA199000091AJ100009199999999AY121061GF108991051001999999031021HL10009IA1089IA2999+00229MD1410001+9999MW1021
0057375750999991971030409004+41633+046483FM-12+051899999V0200501N00101024001CN0200001N9+01611+00501100851ADDAY121031GF107991071001999999011001MD1810061+9999MW1021
0068375750999991971030412004+41633+046483FM-12+051899999V0202301N00411090001CN0200001N9+01891+00281100811ADDAA199000091AY121061GF108991031091012501001091MD1710021+9999MW1021
0057375750999991971030415004+41633+046483FM-12+051899999V0201801N00211090001CN0500001N9+01501+00221100911ADDAY121031GF106991031001999999041021MD1210031+9999MW1011
0081375750999991971030418004+41633+046483FM-12+051899999V0200501N00101024001CN0500001N9+01221+00221100961ADDAA199000091AY121061GF107991071001999999041001KA1999M+02001MD1410001+9999MW1031
0057375750999991971030421004+41633+046483FM-12+051899999V0201801N00211024001CN0500001N9+00781+00111101311ADDAY121031GF107991071001999999041001MD1210251+9999MW1021
0068375750999991971030500004+41633+046483FM-12+051899999V0201801N00311012301CN0500001N9+00501+00001101351ADDAA199000091AY121061GF108991081051012501999999MD1210281+9999MW1031
0057375750999991971030503004+41633+046483FM-12+051899999V0201801N00211007801CN0500001N9+00391-00221102021ADDAY121031GF106991061081008001001001MD1210311+9999MW1811
0134375750999991971030506004+41633+046483FM-12+051899999V0209991C00001220001CN0500001N9+00611+00001102111ADDAA106012091AA299003091AJ100009199999999AY161061GF102991021011008001001001HL10009IA1109IA2999+00289KA1999N+00281MD1210131+9999MW1011
0057375750999991971030509004+41633+046483FM-12+051899999V0201201N00311220001CN0500001N9+01001+00111102081ADDAY101031GF102991021021008001001001MD1110051+9999MW1021
0079375750999991971030512004+41633+046483FM-12+051899999V0202701N00211220001CN0500001N9+01221-00501102061ADDAA106012091AA299003091AY101061GF102991021021008001001001MD1310011+9999MW1031
0057375750999991971030515004+41633+046483FM-12+051899999V0201601N00411220001CN0500001N9+00781-00891102351ADDAY101031GF102991021021999999001081MD1510001+9999MW1031
0081375750999991971030518004+41633+046483FM-12+051899999V0201801N00311007801CN0080001N9+00391+00111102641ADDAA199000091AY111061GF107991071091008001001001KA1999M+01611MD1210261+9999MW1031
0057375750999991971030521004+41633+046483FM-12+051899999V0201801N00511002401CN0080001N9+00281-00111102721ADDAY121031GF108991081021002501999999MD1110051+9999MW1021
0079375750999991971030600004+41633+046483FM-12+051899999V0201801N00211002401CN0023001N9+00221+00111102881ADDAA106004091AA299001091AY161061GF108991081021002501999999MD1210071+9999MW1611
0057375750999991971030603004+41633+046483FM-12+051899999V0201801N00211001501CN0016001N9+00221+00001102781ADDAY161031GF108991081021001501999999MD1810021+9999MW1611
0134375750999991971030606004+41633+046483FM-12+051899999V0201801N00211002401CN0020001N9+00221+00111102891ADDAA106004091AA299001091AJ100009199999999AY161061GF108991081021002501999999HL10009IA1109IA2999+00289KA1999N+00111MD1310101+9999MW1611
0057375750999991971030609004+41633+046483FM-12+051899999V0200201N00101002401CN0040001N9+00221+00111102921ADDAY161031GF108991081021002501999999MD1210031+9999MW1021
0079375750999991971030612004+41633+046483FM-12+051899999V0200501N00211002401CN0100001N9+00501-00221102651ADDAA106004091AA299001091AY161061GF108991081021002501999999MD1710211+9999MW1021
0057375750999991971030615004+41633+046483FM-12+051899999V0200201N00101002401CN0100001N9+00391-00221102661ADDAY121031GF108991081021002501999999MD1410001+9999MW1021
0092375750999991971030618004+41633+046483FM-12+051899999V0201801N00101002401CN0120001N9+00391-00221102711ADDAA106094091AA299024091AY121061GF108991081021002501999999KA1999M+00781MD1210051+9999MW1021
0068375750999991971030700004+41633+046483FM-12+051899999V0201801N00311002401CN0130001N9+00221+00001102711ADDAA199000091AY121061GF108991081021002501999999MD1810071+9999MW1021
0123375750999991971030706004+41633+046483FM-12+051899999V0201801N00101001501CN0010001N9+00221+00111102601ADDAA199000091AJ100009199999999AY121061GF108991081021001501999999HL10009IA1109IA2999+00229KA1999N+00111MD1710051+9999MW1021
0057375750999991971030709004+41633+046483FM-12+051899999V0201801N00101002401CN0010001N9+00391+00001102471ADDAY121031GF108991081021002501999999MD1710081+9999MW1021
0068375750999991971030712004+41633+046483FM-12+051899999V0202201N00101007801CN0200001N9+00501-00391102301ADDAA199000091AY121061GF108991081051008001999999MD1710161+9999MW1021
0057375750999991971030715004+41633+046483FM-12+051899999V0202701N00101007801CN0100001N9+00501-00611102161ADDAY121031GF108991081051008001999999MD1710121+9999MW1021
0081375750999991971030718004+41633+046483FM-12+051899999V0200501N00211007801CN0170001N9+00391-00281102181ADDAA199000091AY121061GF108991081051008001999999KA1999M+00611MD1410001+9999MW1021
0057375750999991971030721004+41633+046483FM-12+051899999V0203601N00211007801CN0230001N9+00391-00281102151ADDAY121031GF199999081051008001999999MD1710031+9999MW1021
0068375750999991971030800004+41633+046483FM-12+051899999V0200501N00211220001CN0290001N9+00281-00611102101ADDAA199000091AY121061GF108991001001999999001071MD1710061+9999MW1021
0123375750999991971030806004+41633+046483FM-12+051899999V0200201N00101220001CN0200001N9+00391-00501101911ADDAA199000091AJ100009199999999AY121061GF108991001001999999001021HL10009IA1139IA2999-00119KA1999N+00111MD1710061+9999MW1031
0057375750999991971030809004+41633+046483FM-12+051899999V0202701N00211220001CN0200001N9+00781-00281101681ADDAY111031GF103991001001999999001091MD1710151+9999MW1011
0068375750999991971030812004+41633+046483FM-12+051899999V0202701N00101220001CN0200001N9+01221-00221101401ADDAA199000091AY111061GF106991001001999999001021MD1710191+9999MW1031
0057375750999991971030815004+41633+046483FM-12+051899999V0202701N00101220001CN0500001N9+01111-00281101321ADDAY111031GF102991021001999999041001MD1710111+9999MW1011
0068375750999991971030818004+41633+046483FM-12+051899999V0200501N00211220001CN0250001N9+00721-00281101521ADDAA199000091AY111061GF100991001001999999001001MD1310141+9999MW1011
0057375750999991971030821004+41633+046483FM-12+051899999V0200501N00101220001CN0250001N9+00501-00221101541ADDAY111031GF106991001001999999001021MD1210061+9999MW1031
0068375750999991971030900004+41633+046483FM-12+051899999V0200501N00211220001CN0150001N9+00501-00221101261ADDAA199000091AY121061GF108991001001999999001021MD1710181+9999MW1031
0123375750999991971030906004+41633+046483FM-12+051899999V0200901N00211007801CN0200001N9+00611+00001101091ADDAA199000091AJ100009199999999AY121061GF108991081051008001999999HL10009IA1089IA2999+00229KA1999N+00391MD1210081+9999MW1021
0057375750999991971030909004+41633+046483FM-12+051899999V0201401N00211007801CN0200001N9+00611+00391101341ADDAY161031GF108991081021008001999999MD1210231+9999MW1611
0079375750999991971030912004+41633+046483FM-12+051899999V0203401N00311036001CN0500001N9+00891+00221101211ADDAA106004091AA299001091AY161061GF108991021011008001071999MD1610071+9999MW1021
0057375750999991971030921004+41633+046483FM-12+051899999V0200201N00211220001CN0500001N9+00391+00001101361ADDAY121031GF108991001001999999001021MD1410001+9999MW1021
0068375750999991971031000004+41633+046483FM-12+051899999V0200501N00211012301CN0500001N9+00501-00501101361ADDAA199000091AY121061GF108991081051012501999999MD1210031+9999MW1021
0057375750999991971031003004+41633+046483FM-12+051899999V0200501N00211007801CN0500001N9+00391-00501101411ADDAY121031GF108991081021008001999999MD1210021+9999MW1021
0100375750999991971031006004+41633+046483FM-12+051899999V0201801N00101012301CN0500001N9+00501-00221101721ADDAA199999999AY161061GF108991081021012501999999KA1999N+00281MD1210311+9999MW1611EQDQ01  00002PRCP99
0057375750999991971031009004+41633+046483FM-12+051899999V0203601N00101007801CN0500001N9+00501+00001101611ADDAY161031GF108991081021008001999999MD1810091+9999MW1021
0079375750999991971031012004+41633+046483FM-12+051899999V0203201N00211007801CN0500001N9+00501+00221101371ADDAA106004091AA299001091AY161061GF107991071051008001001001MD1710231+9999MW1211
0057375750999991971031015004+41633+046483FM-12+051899999V0203601N00211007801CN0200001N9+00501+00281101271ADDAY121031GF108991081051008001999999MD1610101+9999MW1611
0092375750999991971031018004+41633+046483FM-12+051899999V0209991C00001012301CN0230001N9+00501+00391101261ADDAA106004091AA299001091AY161061GF105991051051012501001001KA1999M+00891MD1810011+9999MW1011
0068375750999991971031100004+41633+046483FM-12+051899999V0209991C00001024001CN0300001N9+00721+00391100791ADDAA199000091AY121061GF108991061001999999071021MD1710191+9999MW1021
0123375750999991971031106004+41633+046483FM-12+051899999V0200501N00101024001CN0500001N9+01001+00281100641ADDAA199000091AJ100009199999999AY121061GF108991061001999999071021HL10009IA1109IA2999+00229KA1999N+00391MD1710061+9999MW1021
0057375750999991971031109004+41633+046483FM-12+051899999V0200501N00101012301CN0500001N9+01281+00501100601ADDAY121031GF108991081051012501999999MD1710031+9999MW1611
0079375750999991971031112004+41633+046483FM-12+051899999V0200201N00511090001CN0500001N9+01721+00501100191ADDAA106004091AA299001091AY161061GF106991031021008001001021MD1710291+9999MW1011
0057375750999991971031115004+41633+046483FM-12+051899999V0200501N00211007801CN0500001N9+01281+00501100211ADDAY161031GF107991071091008001001001MD1710041+9999MW1031
0092375750999991971031118004+41633+046483FM-12+051899999V0200201N00211024001CN0500001N9+01111-00501100311ADDAA106002091AA299000591AY161061GF107991071001999999011001KA1999M+01891MD1210061+9999MW1021
0057375750999991971031121004+41633+046483FM-12+051899999V0202701N00211007801CN0500001N9+00721+00391100381ADDAY191031GF107991071091008001001001MD1410001+9999MW1291
0068375750999991971031200004+41633+046483FM-12+051899999V0203601N00211007801CN0500001N9+00611+00221100591ADDAA199000091AY191061GF107991071091008001999999MD1210171+9999MW1021
0057375750999991971031203004+41633+046483FM-12+051899999V0200201N00211012301CN0500001N9+00721+00221100601ADDAY121031GF108991081091012501999999MD1210041+9999MW1021
0134375750999991971031206004+41633+046483FM-12+051899999V0201401N00101004501CN0500001N9+00611-00281100771ADDAA106001091AA299000391AJ100009199999999AY121061GF108991081091004501999999HL10009IA1109IA2999+00399KA1999N+00501MD1210141+9999MW1021
0057375750999991971031209004+41633+046483FM-12+051899999V0201801N00211004501CN0500001N9+00781+00221100781ADDAY121031GF108991081021004501999999MD1210041+9999MW1021
0068375750999991971031212004+41633+046483FM-12+051899999V0201801N00311004501CN0100001N9+00721+00221100841ADDAA199000091AY121061GF108991081021004501999999MD1210041+9999MW1021
0057375750999991971031215004+41633+046483FM-12+051899999V0201801N00101002401CN0010001N9+00611+00221100861ADDAY121031GF108991081021002501999999MD1410001+9999MW1601
0079375750999991971031218004+41633+046483FM-12+051899999V0200501N00101002401CN0011001N9+00391+00221101021ADDAA106002091AA299000591AY161061GF108991081021002501999999MD1310121+9999MW1601
0057375750999991971031221004+41633+046483FM-12+051899999V0200501N00101002401CN0011001N9+00281+00111101101ADDAY161031GF108991081021002501999999MD1210041+9999MW1611
0079375750999991971031300004+41633+046483FM-12+051899999V0200201N00101002401CN0015001N9+00221+00111101071ADDAA106051091AA299013091AY161061GF108991081021002501999999MD1810051+9999MW1611
0134375750999991971031306004+41633+046483FM-12+051899999V0202501N00311004501CN0100001N9+00391+00281101101ADDAA106059091AA299015091AJ100009199999999AY161061GF108991999071004501021999HL10009IA1109IA2999+00289KA1999N+00221MD1210101+9999MW1021
0079375750999991971031312004+41633+046483FM-12+051899999V0201801N00211002401CN0040001N9+00501+00281101031ADDAA106012091AA299003091AY161061GF108991081011002501999999MD1710031+9999MW1021
0057375750999991971031315004+41633+046483FM-12+051899999V0201101N00211002401CN0040001N9+00501+00221101051ADDAY161031GF108991081021002501999999MD1210021+9999MW1021
0092375750999991971031318004+41633+046483FM-12+051899999V0201401N00101002401CN0011001N9+00391+00281101181ADDAA106008091AA299002091AY181061GF108991081021002501999999KA1999M+00611MD1210091+9999MW1021
0057375750999991971031321004+41633+046483FM-12+051899999V0201401N00101002401CN0011001N9+00391+00221101201ADDAY161031GF108991081021002501999999MD1210021+9999MW1021
0079375750999991971031400004+41633+046483FM-12+051899999V0201801N00101002401CN0011001N9+00391+00221101191ADDAA106001091AA299000391AY161061GF108991081021002501999999MD1710011+9999MW1611
0057375750999991971031403004+41633+046483FM-12+051899999V0201401N00101002401CN0040001N9+00391+00221101101ADDAY161031GF108991081021002501999999MD1710071+9999MW1021
0134375750999991971031406004+41633+046483FM-12+051899999V0202301N00101001501CN0010001N9+00391+00281101261ADDAA106001091AA299000391AJ100009199999999AY161061GF108991081001001501021999HL10009IA1109IA2999+00289KA1999N+00391MD1210141+9999MW1021
0057375750999991971031409004+41633+046483FM-12+051899999V0201401N00101001501CN0010001N9+00391+00281101261ADDAY121031GF108991081001001501021999MD1410001+9999MW1021
0068375750999991971031412004+41633+046483FM-12+051899999V0209991C00001001501CN0010001N9+00501+00281101171ADDAA199000091AY121061GF108991081001001501021999MD1710061+9999MW1021
0043375750999991971031415004+41633+046483FM-12+051899999V0203201N00311001501CN0100001N9+00501+00221101101ADDAY121031GF108991081021001501999999MW1021
0100375750999991971031418004+41633+046483FM-12+051899999V0201801N00101002401CN0038001N9+00391+00391101041ADDAA199999999AY161061GF108991081021002501999999KA1999M+00501MD1710081+9999MW1611EQDQ01  00002PRCP99
0079375750999991971031500004+41633+046483FM-12+051899999V0209991C00001002401CN0038001N9+00221+00221101211ADDAA106063091AA299016091AY161061GF108991081021002501999999MD1210071+9999MW1631
0057375750999991971031503004+41633+046483FM-12+051899999V0200501N00101002401CN0040001N9+00221+00221101151ADDAY161031GF108991081021002501999999MD1710041+9999MW1631
0134375750999991971031506004+41633+046483FM-12+051899999V0202501N00101002401CN0010001N9+00001+00001101191ADDAA106083091AA299021091AJ100009199999999AY171061GF108991081021002501999999HL10009IA1109IA2999+00009KA1999N+00001MD1410001+9999MW1731
0057375750999991971031509004+41633+046483FM-12+051899999V0200201N00101002401CN0040001N9+00221+00001101431ADDAY171031GF108991081021002501999999MD1310261+9999MW1731
0079375750999991971031512004+41633+046483FM-12+051899999V0200501N00101007801CN0500001N9+00501+00111101331ADDAA106043091AA299011091AY171061GF108991081021008001999999MD1810031+9999MW1021
0057375750999991971031515004+41633+046483FM-12+051899999V0200501N00101036001CN0500001N9+00611+00001101321ADDAY121031GF107991031021008001041001MD1710101+9999MW1011
0092375750999991971031518004+41633+046483FM-12+051899999V0200201N00101220001CN0450001N9+00221-00221101751ADDAA106024091AA299006091AY111061GF100991001001999999001001KA1999M+00721MD1210431+9999MW1011
0057375750999991971031521004+41633+046483FM-12+051899999V0200501N00101015001CN0300001N9+00111-00111101801ADDAY111031GF107991071051017501001001MD1310031+9999MW1031
0068375750999991971031600004+41633+046483FM-12+051899999V0209991C00001015001CN0300001N9+00001-00111101971ADDAA199000091AY121061GF107991071051017501001001MD1210151+9999MW1021
0057375750999991971031603004+41633+046483FM-12+051899999V0200501N00101220001CN0200001N9+00001-00391101951ADDAY111031GF100991001001999999001001MD1710021+9999MW1011
0123375750999991971031606004+41633+046483FM-12+051899999V0201801N00211220001CN0200001N9+00111-00221102171ADDAA199000091AJ100009199999999AY111061GF102991001001999999001021HL10009IA1139IA2999-00119KA1999N-00111MD1310221+9999MW1031
0057375750999991971031609004+41633+046483FM-12+051899999V0202701N00101007801CN0100001N9+00391+00001102091ADDAY111031GF107991071091008001001001MD1710021+9999MW1031
0068375750999991971031612004+41633+046483FM-12+051899999V0202701N00211007801CN0100001N9+00721-00221101931ADDAA199000091AY111061GF108991999021008001001021MD1710101+9999MW1021
0057375750999991971031615004+41633+046483FM-12+051899999V0202701N00211220001CN0500001N9+00611-00281101871ADDAY111031GF102991021051012501001001MD1710061+9999MW1011
0081375750999991971031618004+41633+046483FM-12+051899999V0200501N00211220001CN0500001N9+00391-00221101981ADDAA199000091AY111061GF103991031001999999041001KA1999M+00781MD1310071+9999MW1031
0068375750999991971031700004+41633+046483FM-12+051899999V0200501N00211024001CN0500001N9+00221-00281102051ADDAA199000091AY111061GF105991051001999999041001MD1810031+9999MW1031
0057375750999991971031703004+41633+046483FM-12+051899999V0200501N00211024001CN0200001N9+00111-00391101941ADDAY121031GF105991051001999999041001MD1710061+9999MW1031
0123375750999991971031706004+41633+046483FM-12+051899999V0201801N00211220001CN0500001N9+00391-00111101971ADDAA199000091AJ100009199999999AY121061GF108991001001999999001021HL10009IA1139IA2999-00119KA1999N+00001MD1310051+9999MW1031
0057375750999991971031709004+41633+046483FM-12+051899999V0201801N00101220001CN0500001N9+00781+00111101791ADDAY121031GF108991001001999999001011MD1710101+9999MW1021
0068375750999991971031712004+41633+046483FM-12+051899999V0202301N00101220001CN0500001N9+01001+00111101651ADDAA199000091AY121061GF108991001001999999001021MD1710101+9999MW1021
0081375750999991971031718004+41633+046483FM-12+051899999V0200501N00211007801CN0190001N9+00721+00001101691ADDAA199000091AY121061GF108991081051008001999999KA1999M+01111MD1310031+9999MW1021
0057375750999991971031721004+41633+046483FM-12+051899999V0201801N00211007801CN0170001N9+00611+00001101541ADDAY121031GF108991081051008001999999MD1810151+9999MW1021
0068375750999991971031800004+41633+046483FM-12+051899999V0200201N00211007801CN0190001N9+00611-00111101461ADDAA199000091AY121061GF106991061051008001001001MD1710081+9999MW1011
0057375750999991971031803004+41633+046483FM-12+051899999V0200201N00211012301CN0200001N9+00611+00111101361ADDAY121031GF108991081051012501999999MD1710091+9999MW1031
0123375750999991971031806004+41633+046483FM-12+051899999V0209991C00001090001CN0500001N9+00891+00281101291ADDAA199000091AJ100009199999999AY121061GF108991011001999999041071HL10009IA1089IA2999+00289KA1999N+00501MD1810011+9999MW1021
0057375750999991971031809004+41633+046483FM-12+051899999V0202701N00101090001CN0500001N9+01391+00501101121ADDAY121031GF108991011021017501001071MD1810091+9999MW1021
0068375750999991971031812004+41633+046483FM-12+051899999V0203201N00211220001CN0500001N9+01781+00391100871ADDAA199000091AY121061GF108991001001999999001071MD1710161+9999MW1021
0057375750999991971031815004+41633+046483FM-12+051899999V0202301N00101220001CN0200001N9+01611+00281100831ADDAY121031GF108991001001999999001021MD1710081+9999MW1021
0081375750999991971031818004+41633+046483FM-12+051899999V0200501N00211220001CN0070001N9+01221-00111100711ADDAA199000091AY121061GF106991001001999999001021KA1999M+01891MD1710181+9999MW1011
0068375750999991971031900004+41633+046483FM-12+051899999V0200501N00311220001CN0300001N9+01221-00111100771ADDAA199000091AY121061GF108991001001999999001011MD1410001+9999MW1021
0123375750999991971031906004+41633+046483FM-12+051899999V0202701N00211220001CN0200001N9+01281+00111100811ADDAA199000091AJ100009199999999AY111061GF108991001001999999001031HL10009IA1089IA2999+00399KA1999N+00891MD1210091+9999MW1031
0043375750999991971031909004+41633+046483FM-12+051899999V0201801N003119999999N0200001N9+01611+00001100731ADDAY121031GF107991999001999999011001MW1021
0068375750999991971031912004+41633+046483FM-12+051899999V0202301N00211220001CN0200001N9+01781+00391100441ADDAA199000091AY121061GF108991001001999999001071MD1710191+9999MW1021
0057375750999991971031915004+41633+046483FM-12+051899999V0202001N00411090001CN0200001N9+01221+00611100591ADDAY121031GF108991021021017501001071MD1310041+9999MW1021
0081375750999991971031918004+41633+046483FM-12+051899999V0201601N00411220001CN0130001N9+00891+00721100901ADDAA199000091AY121061GF108991001001999999001071KA1999M+01891MD1210231+9999MW1001
0057375750999991971031921004+41633+046483FM-12+051899999V0201801N00211024001CN0100001N9+00721+00501101131ADDAY121031GF108991081001999999021999MD1210191+9999MW1611
0079375750999991971032000004+41633+046483FM-12+051899999V0202301N00101002401CN0050001N9+00611+00611101161ADDAA106001091AA299000391AY121061GF108991999021002501011011MD1410001+9999MW1611
0057375750999991971032003004+41633+046483FM-12+051899999V0202001N001019999999N0002001N9+00611+00611101271ADDAY161031GF199999091999999999999999MD1110111+9999MW1611
0134375750999991971032006004+41633+046483FM-12+051899999V0201801N001019999999N0002001N9+00611+00611101321ADDAA106004091AA299001091AJ100009199999999AY191061GF199999091999999999999999HL10009IA1109IA2999+00619KA1999N+00501MD1210051+9999MW1611
0057375750999991971032009004+41633+046483FM-12+051899999V0201801N00211002401CN0010001N9+00781+00611101421ADDAY161031GF108991081021002501999999MD1210131+9999MW1021
0079375750999991971032012004+41633+046483FM-12+051899999V0201801N00311002401CN0010001N9+00891+00391101321ADDAA106004091AA299001091AY161061GF108991081021002501999999MD1810071+9999MW1021
0057375750999991971032015004+41633+046483FM-12+051899999V0201401N00311002401CN0100001N9+00891+00501101391ADDAY121031GF108991081021002501999999MD1510051+9999MW1021
0092375750999991971032018004+41633+046483FM-12+051899999V0201801N00511002401CN0060001N9+00721+00501101701ADDAA106004091AA299001091AY161061GF108991081021002501999999KA1999M+01221MD1210261+9999MW1611
0079375750999991971032100004+41633+046483FM-12+051899999V0200501N00311002401CN0080001N9+00501+00221101771ADDAA106039091AA299010091AY161061GF108991081021002501999999MD1410001+9999MW1631
0057375750999991971032103004+41633+046483FM-12+051899999V0200201N00101002401CN0100001N9+00501+00391101741ADDAY161031GF108991081021002501999999MD1710031+9999MW1611
0134375750999991971032106004+41633+046483FM-12+051899999V0203201N00101002401CN0100001N9+00611+00391101811ADDAA106055091AA299014091AJ100009199999999AY161061GF108991081021002501999999HL10009IA1109IA2999+00509KA1999N+00501MD1210091+9999MW1611
0057375750999991971032109004+41633+046483FM-12+051899999V0203201N00101002401CN0100001N9+00721+00281101851ADDAY161031GF108991081021002501999999MD1210051+9999MW1611
0079375750999991971032112004+41633+046483FM-12+051899999V0202301N00101002401CN0100001N9+00721+00501101731ADDAA106028091AA299007091AY161061GF108991999071002501021999MD1810121+9999MW1611
0057375750999991971032115004+41633+046483FM-12+051899999V0201801N00211007801CN0500001N9+00781+00391101621ADDAY121031GF105991051021008001001001MD1710071+9999MW1011
0092375750999991971032118004+41633+046483FM-12+051899999V0201801N00101007801CN0020001N9+00721+00501101851ADDAA106016091AA299004091AY121061GF108991081021008001999999KA1999M+00891MD1310151+9999MW1611
0057375750999991971032121004+41633+046483FM-12+051899999V0200501N00101004501CN0021001N9+00611+00391101881ADDAY161031GF108991081031004501999999MD1210071+9999MW1611
0079375750999991971032200004+41633+046483FM-12+051899999V0200501N00101007801CN0036001N9+00501+00281101961ADDAA106008091AA299002091AY161061GF108991081031008001999999MD1210021+9999MW1021
0057375750999991971032203004+41633+046483FM-12+051899999V0200501N00101001501CN0010001N9+00501+00391102021ADDAY121031GF108991081031001501999999MD1210041+9999MW1601
0134375750999991971032206004+41633+046483FM-12+051899999V0202301N00211000151CN0002001N9+00391+00391102171ADDAA106012091AA299003091AJ100009199999999AY161061GF109991091999000251999999HL10009IA1109IA2999+00509KA1999N+00391MD1310131+9999MW1451
0057375750999991971032209004+41633+046483FM-12+051899999V0202001N00311002401CN0020001N9+00611+00501102201ADDAY141031GF108991999071002501021999MD1110111+9999MW1281
0079375750999991971032212004+41633+046483FM-12+051899999V0209991C00001007801CN0200001N9+00781+00501102091ADDAA106002091AA299000591AY141061GF107991071021008001001001MD1710111+9999MW1011
0057375750999991971032215004+41633+046483FM-12+051899999V0202501N00211007801CN0500001N9+00781+00281101991ADDAY121031GF107991071091008001001001MD1710101+9999MW1021
0081375750999991971032218004+41633+046483FM-12+051899999V0201601N00101007801CN0140001N9+00721+00281102121ADDAA199000091AY121061GF108991081091008001999999KA1999M+01001MD1310111+9999MW1031
0068375750999991971032300004+41633+046483FM-12+051899999V0200501N00211220001CN0400001N9+00281+00111102151ADDAA199000091AY111061GF102991001001999999001021MD1810091+9999MW1011
