0101376030999991971010103004+41450+043850FM-12+999999999V0209991C00001220001CN0200001N9+00001+99999099701ADDAY101031GF103991001001999999031021HL10009IA1209IA2999-01229MD1010702+9999MW1031EQDQ01+000702APC3  
0057376030999991971010218004+41450+043850FM-12+999999999V0209991C99999220001CN9999999N9+99999+99999099701ADDAY101061GF102991001001999999031011MD1210111+9999MW1021
0106376030999991971010303004+41450+043850FM-12+999999999V0209991C00001220001CN9999999N9-00501-01221098001ADDAA199000091AY101031GF100991001001999999001001HL10009IA1209IA2999-01009KA1999N-00611MD1810121+9999MW1021
0043376030999991971010318004+41450+043850FM-12+999999999V0201801N99999220001CN0100001N9+99999+99999099891ADDAY121061GF107991001001999999041021MW1021
0057376030999991971010321004+41450+043850FM-12+999999999V0201801N00721220001CN0100001N9+00001-00891099911ADDAY121031GF107991001001999999041021MD1310021+9999MW1021
0057376030999991971010421004+41450+043850FM-12+999999999V0201801N00411220001CN0100001N9+00111-00891099931ADDAY121031GF107991001001999999041011MD1810101+9999MW1021
0043376030999991971010518004+41450+043850FM-12+999999999V0201801N99999220001CN0100001N9+99999+99999099941ADDAY121061GF106991001001999999041011MW1031
0054376030999991971010600004+41450+043850FM-12+999999999V0209991C00001220001CN0100001N9-00111-00891100001ADDAA199000091AY111061GF102991001001999999001011MW1011
0068376030999991971010712004+41450+043850FM-12+999999999V0202001N99999220001CN0200001N9+99999+99999100001ADDAA199000091AY121061GF107991001001999999041021MD1710111+9999MW1021
0057376030999991971010918004+41450+043850FM-12+999999999V0209991C99999220001CN0100001N9+99999+99999099401ADDAY111061GF105991999001999999031001MD1610081+9999MW1011
0057376030999991971010921004+41450+043850FM-12+999999999V0209991C00001036001CN0100001N9-00611-00891099421ADDAY121031GF107991031051008001031001MD1310021+9999MW1031
0057376030999991971011000004+41450+043850FM-12+999999999V0209991C00001220001CN0100001N9-00891-00891099501ADDAY111061GF101991001001999999001999MD1810021+9999MW1011
0106376030999991971011003004+41450+043850FM-12+999999999V0209991C00001220001CN0100001N9-00781-00891099401ADDAA199000091AY121031GF105991999001999999031001HL10009IA1209IA2999-01619KA1999N-01001MD1710081+9999MW1011
0068376030999991971011015004+41450+043850FM-12+999999999V0209991C99999220001CN0100001N9+99999+99999099461ADDAA199000091AY121031GF107991001001999999041011MD1310081+9999MW1021
0057376030999991971011406004+41450+043850FM-12+999999999V0209991C99999007801CN0200001N9+99999+99999098341ADDAY121061GF105991051051008001001001MD1310311+9999MW1011
0068376030999991971011412004+41450+043850FM-12+999999999V0203201N99999220001CN0500001N9+99999+99999098541ADDAA199000091AY111061GF101991011051008001041001MD1210141+9999MW1011
0057376030999991971011618004+41450+043850FM-12+999999999V0209991C99999220001CN9999999N9+99999+99999098861ADDAY101061GF100991001001999999001001MD1210041+9999MW1021
0068376030999991971011700004+41450+043850FM-12+999999999V0209991C00001220001CN0500001N9-01221-01391098811ADDAA199000091AY101061GF100991001001999999001001MD1710071+9999MW1021
0057376030999991971011703004+41450+043850FM-12+999999999V0209991C00001220001CN0500001N9-01501-02281098561ADDAY101031GF100991001001999999001001MD1710171+9999MW1021
0068376030999991971012400004+41450+043850FM-12+999999999V0209991C00001220001CN9999999N9-01611-02281098561ADDAA199000091AY101061GF100991001001999999001001MD1810011+9999MW1021
0081376030999991971012503004+41450+043850FM-12+999999999V0209991C00001220001CN9999999N9+99999+99999099521ADDAA199000091AY101031GF100991001001999999001001KA1999N+00501MD1310011+9999MW1021
0057376030999991971012521004+41450+043850FM-12+999999999V0209991C00001220001CN0005001N9-01221-02221099211ADDAY101031GF100991001001999999001001MD1710051+9999MW1021
0081376030999991971012603004+41450+043850FM-12+999999999V0209991C00001220001CN0005001N9-01501-02221099191ADDAA199000091AY101031GF101991001001999999001011KA1999N-01611MD1810021+9999MW1021
0057376030999991971012700004+41450+043850FM-12+999999999V0209991C00001220001CN0200001N9-01111-02001099031ADDAY101061GF100991001001999999001001MD1710031+9999MW1021
0106376030999991971012703004+41450+043850FM-12+999999999V0209991C00001220001CN0200001N9-01391-02221098941ADDAA199000091AY101031GF100991001001999999001001HL10009IA1209IA2999-02009KA1999N-01391MD1710041+9999MW1021
0057376030999991971012721004+41450+043850FM-12+999999999V0209991C00001220001CN9999999N9-01221-01891098901ADDAY101031GF100991001001999999001001MD1810051+9999MW1021
0043376030999991971012800004+41450+043850FM-12+999999999V0209991C00001220001CN9999999N9-01501-02111098861ADDAY101061GF100991001001999999001001MW1021
0117376030999991971012803004+41450+043850FM-12+999999999V0209991C00001220001CN9999999N9-01611-02111098871ADDAY101031GA1999+054009009GF100991001001999999001001HL10009IA1209IA2999-02729MD1510011+9999MW1021EQDQ01    003SCCGA1
0068376030999991971012812004+41450+043850FM-12+999999999V0209991C99999220001CN0500001N9+99999+99999098781ADDAA199000091AY101061GF100991001001999999001001MD1810091+9999MW1021
0106376030999991971012903004+41450+043850FM-12+999999999V0201801N00211220001CN9999999N9-01281-01721098671ADDAA199000091AY101031GF100991001001999999001001HL10009IA1319IA2999-02619KA1999N-01611MD1710081+9999MW1021
0057376030999991971012921004+41450+043850FM-12+999999999V0209991C00001220001CN9999999N9-01221-01501099001ADDAY101031GF102991001001999999001011MD1210031+9999MW1021
0057376030999991971013121004+41450+043850FM-12+999999999V0202701N00411220001CN9999999N9-01001-01221099241ADDAY111031GF101991011051008001001001MD1210061+9999MW1011
0079376030999991971020100004+41450+043850FM-12+999999999V0209991C00001220001CN0200001N9-01501-01721099201ADDAA106999999AA224999999AY101061GF199999001001999999071041MD1710081+9999MW1011
0057376030999991971020103004+41450+043850FM-12+999999999V0209991C00001220001CN0200001N9-01611-01611099191ADDAY101031GF100991001001999999001001MD1210011+9999MW1021
0057376030999991971020121004+41450+043850FM-12+999999999V0201801N00621220001CN0005001N9-01221-01721098921ADDAY101031GF100991001001999999001001MD1710121+9999MW1021
0068376030999991971020200004+41450+043850FM-12+999999999V0201801N00721220001CN0005001N9+99999+99999098831ADDAA199000091AY101061GF100991001001999999001001MD1710091+9999MW1021
0106376030999991971020203004+41450+043850FM-12+999999999V0201801N00511220001CN0005001N9-01221-01721098791ADDAA199000091AY101031GF100991001001999999001001HL10009IA1319IA2999-01729KA1999N-01281MD1710061+9999MW1021
0114376030999991971020218004+41450+043850FM-12+999999999V0201101N999999999999N0500001N9+99999+99999098151ADDAA106999999AA299300091AY121061GF107991999999017501001011MD1110882+9999MW1031EQDQ01+000882APC3  Q02  99982PRCP06
0057376030999991971020300004+41450+043850FM-12+999999999V0201801N00871220001CN0700001N9-00781-01221098121ADDAY121061GF105991001001999999041011MD1710011+9999MW1021
0106376030999991971020303004+41450+043850FM-12+999999999V0201801N01181220001CN0700001N9-00781-01221098141ADDAA199000091AY121031GF105991001001999999041011HL10009IA1209IA2999-01119KA1999N-00891MD1810031+9999MW1021
0057376030999991971020318004+41450+043850FM-12+999999999V0202001N99999220001CN0100001N9+99999+99999098031ADDAY121061GF199999001001999999041021MD1810011+9999MW1031
0043376030999991971020321004+41450+043850FM-12+999999999V0202001N00871220001CN0100001N9-00611-01001098131ADDAY121031GF105991001001999999041021MW1011
0057376030999991971020400004+41450+043850FM-12+999999999V0202001N00981220001CN0100001N9-00501-00781098031ADDAY121061GF107991001001999999041021MD1810011+9999MW1031
0079376030999991971020500004+41450+043850FM-12+999999999V0209991C00001220001CN9999999N9-00891-00891098641ADDAA106001091AA299000391AY121061GF106991001001999999021011MD1810031+9999MW1011
0106376030999991971020603004+41450+043850FM-12+999999999V0202001N00411220001CN0100001N9-00721-00891098361ADDAA199000091AY101031GF103991011051008001999001HL10009IA1209IA2999-01729KA1999N-00781MD1710141+9999MW1031
0117376030999991971021003004+41450+043850FM-12+999999999V0202701N01801004501CN9999999N9-01391-01391098361ADDAA106016091AA299004091AY171031GF108991081071004501999999HL10009IA1209IA2999-01119KA1999N-01391MD1710011+9999MW1711
0108376030999991971021100004+41450+043850FM-12+999999999V0201801N00511220001CN0200001N9+99999+99999098361ADDAY121061GA1999+195009049GF107991071999999999999001MD1110802+9999MW1021EQDQ01+000802APC3  Q02    003SCCGA1
0057376030999991971021103004+41450+043850FM-12+999999999V0201801N00511007801CN0100001N9-01611-01721098361ADDAY121031GF199999091051008001999999MD1210031+9999MW1021
0095376030999991971021203004+41450+043850FM-12+999999999V0202701N01591004501CN0005001N9-01611-01611098361ADDAY131031GF108991081061004501999999HL10009IA1209IA2999-02009KA1999N-01721MD1710011+9999MW1391
0057376030999991971021218004+41450+043850FM-12+999999999V0202301N99999220001CN0100001N9+99999+99999999999ADDAY111061GF103991001001999999031011MD1210091+9999MW1011
0057376030999991971021300004+41450+043850FM-12+999999999V0202301N00871220001CN0100001N9-01721-01891999999ADDAY111061GF104991011051008001031001MD1710101+9999MW1011
0087376030999991971021303004+41450+043850FM-12+999999999V0202301N00621007801CN0100001N9-01781-02001999999ADDAA199000091AY111031GF106991051051008001031001IA1209KA1999N-01781MD1710171+9999MW1031
0106376030999991971021403004+41450+043850FM-12+999999999V0202701N00981036001CN9999999N9-01781-02111999999ADDAA199000091AY121031GF106991031041008001041001HL10009IA1209IA2999-02119KA1999N-01891MD1410001+9999MW1031
0057376030999991971021421004+41450+043850FM-12+999999999V0201601N01181007801CN0005001N9-01611-02111999999ADDAY131031GF106991061051008001001001MD1510101+9999MW1361
0057376030999991971021503004+41450+043850FM-12+999999999V0202301N01291220001CN0100001N9-01391-01721999999ADDAY131031GF107991001001999999031011MD1810081+9999MW1361
0043376030999991971021518004+41450+043850FM-12+999999999V0202001N999999999999N0005001N9+99999+99999999999ADDAY131061GF199999011081999999071999MW1071
0057376030999991971021621004+41450+043850FM-12+999999999V0201401N00621220001CN0005001N9-00891-01281999999ADDAY121031GF105991999001999999041001MD1710021+9999MW1011
0068376030999991971021700004+41450+043850FM-12+999999999V0201401N00511220001CN0005001N9-00781-01221999999ADDAA199000091AY121061GF106991999001999999041001MD1710051+9999MW1021
0106376030999991971021703004+41450+043850FM-12+999999999V0201401N00721220001CN0010001N9-00721-01111999999ADDAA199000091AY121031GF105991001001999999041011HL10009IA1209IA2999-01619KA1999N-01001MD1710061+9999MW1021
0057376030999991971021803004+41450+043850FM-12+999999999V0201801N00721220001CN0200001N9-00781-00891999999ADDAY111031GF103991021051008001041011MD1510021+9999MW1031
0057376030999991971021900004+41450+043850FM-12+999999999V0201801N00621007801CN0100001N9-00391-00721098471ADDAY121061GF107991061051008001041001MD1310021+9999MW1021
0106376030999991971021903004+41450+043850FM-12+999999999V0201801N00821007801CN0100001N9-00221-00391098451ADDAA199000091AY121031GF107991061051008001041001HL10009IA1209IA2999-00619KA1999N-00611MD1810121+9999MW1021
0079376030999991971022000004+41450+043850FM-12+999999999V0201801N00411220001CN0100001N9-00501-01721098601ADDAA106999999AA224999999AY101061GF102991021051008001001001MD1810031+9999MW1011
0079376030999991971022003004+41450+043850FM-12+999999999V0201801N00311220001CN0100001N9-00611-01721098551ADDAY111031GA1011+021009029GF199999001001999999001001IA1209MD1710051+9999MW1011
0068376030999991971022200004+41450+043850FM-12+999999999V0201801N00511220001CN9999999N9-00391-00501098391ADDAA199000091AY101061GF100991001001999999001001MD1710081+9999MW1011
0057376030999991971022303004+41450+043850FM-12+999999999V0209991C000019999999N0005001N9-00501+99999098391ADDAY171031GF108991001999999999999999MD1410001+9999MW1711
0057376030999991971022318004+41450+043850FM-12+999999999V0209991C99999220001CN9999999N9+99999+99999098391ADDAY111061GF101991001001999999031071MD1210121+9999MW1011
0076376030999991971022421004+41450+043850FM-12+999999999V0209991C00001220001CN0040001N9+00281+99999098391ADDAY111031GF100991001001999999001001MD1310131+9999MW1201EQDQ01    993SCOTCV
0125376030999991971022500004+41450+043850FM-12+999999999V0209991C00001036001CN0200001N9-00892-01111098391ADDAA199000091AY111061GF105991011051008001041001HL10009IA1209IA2999-01619KA1999N-01281MD1410001+9999MW1031EQDQ01+026433ATOT  
0068376030999991971022600004+41450+043850FM-12+999999999V0201801N00871007801CN9999999N9-00221-00501098801ADDAA199000091AY121061GF108991081071008001999999MD1810061+9999MW1031
0068376030999991971022621004+41450+043850FM-12+999999999V0201801N01081007801CN0040001N9+00111-00221098801ADDAA199000091AY121031GF107991071051008001001001MD1710271+9999MW1021
0057376030999991971022703004+41450+043850FM-12+999999999V0201801N01181036001CN0040001N9+00001-00111098801ADDAY121031GF108991021061004501021999MD1710161+9999MW1021
0080376030999991971022721004+41450+043850FM-12+999999999V0202301N00211007801CN0005001N9-00781-01111999999ADDAJ100009199999999AY121031GF105991051051008001001001IA1009MD1310021+9999MW1011
0068376030999991971022800004+41450+043850FM-12+999999999V0202301N00621007801CN0005001N9-00891-01111999999ADDAA199000091AY121061GF105991051051008001001001MD1210081+9999MW1021
0057376030999991971030121004+41450+043850FM-12+999999999V0202001N99999036001CN9999999N9+99999+99999099041ADDAY121031GF107991041051008001041021MD1410001+9999MW1021
0057376030999991971030203004+41450+043850FM-12+999999999V0201801N00821007801CN0200001N9-00221-00611099081ADDAY121031GF107991061051008001041001MD1710021+9999MW1021
0106376030999991971030603004+41450+043850FM-12+999999999V0209991C00001220001CN0200001N9-01501-02221099311ADDAA199000091AY101031GF100991001001999999001001HL10009IA1309IA2999-02619KA1999N-01611MD1710071+9999MW1021
0068376030999991971030700004+41450+043850FM-12+999999999V0209991C99999220001CN0100001N9+99999+99999099311ADDAA199000091AY111061GF101991001001999999001011MD1710131+9999MW1111
0087376030999991971030703004+41450+043850FM-12+999999999V0209991C00001220001CN0100001N9-01221-01391098012ADDAA199000091AY111031GF101991001001999999001011MD1710131+9999MW1111EQDQ01+098013APOSLP
0136376030999991971031203004+41450+043850FM-12+999999999V0209991C00001004501CN0060001N9-00611-00611999999ADDAA106063091AA299016091AY171031GF108991081071004501999999HL10009IA1209IA2999-00399KA1999N-00721MD1710812+9999MW1711EQDQ01+000812APC3  
0051376030999991971031309004+41450+043850FM-12+999999999V0209991C99999002401CN9999999N9+99999+99999999999ADDAY171031GF199999081071002501999999MD1810061+9999
0106376030999991971031603004+41450+043850FM-12+999999999V0202001N00511220001CN0200001N9-01111+99999999999ADDAA199000091AY101031GF103991001001999999001011HL10009IA1209IA2999-01619KA1999N-01111MD1710011+9999MW1031
0068376030999991971031700004+41450+043850FM-12+999999999V0201801N99999036001CN0005001N9+99999+99999098961ADDAA199000091AY131061GF108991031051008001021999MD1710021+9999MW1361
0068376030999991971031712004+41450+043850FM-12+999999999V0201801N99999036001CN0100001N9+99999+99999098771ADDAA199000091AY131061GF107991031051008001041001MD1710061+9999MW1371
0057376030999991971031818004+41450+043850FM-12+999999999V0201801N99999220001CN0100001N9+99999+99999098661ADDAY121061GF105991001001999999041011MD1710011+9999MW1021
0057376030999991971032021004+41450+043850FM-12+999999999V0209991C99999220001CN0100001N9+99999+99999098801ADDAY101031GF100991001001999999001001MD1210021+9999MW1011
0106376030999991971032103004+41450+043850FM-12+999999999V0202001N00211004501CN0100001N9-00611-00611098891ADDAA199000091AY121031GF107991071061004501001001HL10009IA1209IA2999-01229KA1999N-00781MD1810011+9999MW1031
0068376030999991971032200004+41450+043850FM-12+999999999V0209991C99999220001CN9999999N9+99999+99999099031ADDAA199000091AY101061GF100991001001999999001001MD1210021+9999MW1021
0106376030999991971032203004+41450+043850FM-12+999999999V0209991C00001220001CN0500001N9-00891-01221099051ADDAA199000091AY101031GF100991001001999999001001HL10009IA1209IA2999-01399KA1999N-01001MD1210021+9999MW1021
0106376030999991971032303004+41450+043850FM-12+999999999V0209991C00001220001CN0200001N9-00501-01501099051ADDAA199000091AY101031GF106991001001999999001011HL10009IA1209IA2999-01399KA1999N-00501MD1810011+9999MW1031
0057376030999991971032718004+41450+043850FM-12+999999999V0209991C99999004501CN9999999N9+99999+99999099051ADDAY131061GF106991061061004501001001MD1710041+9999MW1881
0098376030999991971032803004+41450+043850FM-12+999999999V0209991C00001004501CN0200001N9+00221-00111099051ADDAA106012091AA299003091AY171031GF199999071071004501031001IA1209KA1999N+00111MD1210011+9999MW1021
0123376030999991971032903004+41450+043850FM-12+999999999V0201801N00211220001CN0200001N9-00221-00221099001ADDAA199000091AJ100009199999999AY101031GF102991021051008001001001HL10009IA1209IA2999-00789KA1999N-00391MD1210041+9999MW1021
0068376030999991971033000004+41450+043850FM-12+999999999V0209991C99999220001CN0100001N9+99999+99999099061ADDAA199000091AY101061GF100991001001999999001001MD1710081+9999MW1021
0123376030999991971033003004+41450+043850FM-12+999999999V0209991C00001220001CN0500001N9-00391-00611099051ADDAA199000091AJ100009199999999AY101031GF100991001001999999001001HL10009IA1209IA2999-00789KA1999N-00391MD1710011+9999MW1021
0057376030999991971033021004+41450+043850FM-12+999999999V0201801N99999220001CN9999999N9+99999+99999098611ADDAY101031GF100991001001999999001001MD1810101+9999MW1021
0123376030999991971033103004+41450+043850FM-12+999999999V0201801N00821220001CN0500001N9+00111-00501098421ADDAA199000091AJ100009199999999AY101031GF100991001001999999001001HL10009IA1209IA2999-00619KA1999N-00111MD1710101+9999MW1021
0070376030999991971040303004+41450+043850FM-12+999999999V0209991C00001220001CN0100001N9-00611-00611098751ADDAY121031GF103991001001999999041011KA1999N-00721MD1210111+9999MW1031
0057376030999991971040318004+41450+043850FM-12+999999999V0209991C00001220001CN0100001N9-00111-00611098761ADDAY111061GF107991001001999999041021MD1410001+9999MW1031
0079376030999991971040403004+41450+043850FM-12+999999999V0209991C000019999999N0040001N9-00281-00391098741ADDAY111031GA1061+999999999GF199999081051999999999999IA1089MD1410001+9999MW1221
0120376030999991971040603004+41450+043850FM-12+999999999V0209991C00001220001CN0500001N9+00781+99999098741ADDAA106999999AA299270091AJ100009199999999AY101031GF103991999001000751051081IA1209KA1999N+00781MW1031EQDQ01  99982PRCP06
0068376030999991971040700004+41450+043850FM-12+999999999V0209991C99999220001CN0100001N9+99999+99999098741ADDAA199000091AY111061GF101991011051008001001001MD1810031+9999MW1011
0059376030999991971041009004+41450+043850FM-12+999999999V0200901N99999005101CN0100001N9+99999+99999098741ADDAY171031GA1051+005109079GF107991061061004501041001MW1761
0098376030999991971041012004+41450+043850FM-12+999999999V0200901N999999999999N0002001N9+99999+99999098741ADDAA106999999AA299320091AY171061GF199999091999999999999999MD1710051+9999MW1451EQDQ01  99982PRCP06
0079376030999991971041100004+41450+043850FM-12+999999999V0209991C99999220001CN0100001N9+99999+99999098831ADDAA106008091AA299002091AY171061GF102991999001999999031001MD1710081+9999MW1011
0057376030999991971041121004+41450+043850FM-12+999999999V0209991C00001220001CN0100001N9+00111-00221098681ADDAY131031GF106991999001999999031001MD1710051+9999MW1011
0057376030999991971041421004+41450+043850FM-12+999999999V0201801N00311036001CN0100001N9-00221-00221999999ADDAY121031GF106991031051012501011999MD1210021+9999MW1011
0057376030999991971041500004+41450+043850FM-12+999999999V0201801N99999036001CN0100001N9+99999+99999999999ADDAY121061GF106991031051012501011999MD1210021+9999MW1011
0057376030999991971041518004+41450+043850FM-12+999999999V0209991C00001004501CN0005001N9+00281+00001098051ADDAY191061GF108991081071004501999999MD1210081+9999MW1611
0043376030999991971041618004+41450+043850FM-12+999999999V0209999900871007801CN0005001N9+00501+00001098091ADDAY171061GF108991071021008001999041MW1711
0134376030999991971041703004+41450+043850FM-12+999999999V0209991C00001036001CN0100001N9-00221-00391098211ADDAA106016091AA299004091AJ100009199999999AY171031GF107991021051008001041011HL10009IA1209IA2999-00119KA1999N-00221MD1210181+9999MW1021
0079376030999991971041715004+41450+043850FM-12+999999999V0202301N99999007801CN0100001N9+99999+99999098251ADDAA106001091AA299000391AY111031GF106991051051008001001021MD1310051+9999MW1031
0057376030999991971041718004+41450+043850FM-12+999999999V0209991C00001004501CN0002001N9-00111-00111098451ADDAY171061GF108991081071004501999999MD1210201+9999MW1731
0117376030999991971041803004+41450+043850FM-12+999999999V0201801N00511007801CN0200001N9-00281-00391098411ADDAA106020091AA299005091AY171031GF107991061051008001041001HL10009IA1209IA2999-00119KA1999N-00281MD1710021+9999MW1011
0057376030999991971041918004+41450+043850FM-12+999999999V0209991C00001220001CN9999999N9-00221+99999098031ADDAY111061GF100991001001999999001001MD1210111+9999MW1011
0067376030999991971042003004+41450+043850FM-12+999999999V0202001N00211220001CN0500001N9-00391-00781098151ADDAA199000091AY101031GF100991001001999999001001KA1999N-00501MW1021
0043376030999991971042221004+41450+043850FM-12+999999999V0200901N00871000151CN9999999N9+00281-00281098151ADDAY101031GF105991051061000251999999MW1021
0057376030999991971042318004+41450+043850FM-12+999999999V0200501N00411004501CN0005001N9+00111-00111098481ADDAY171061GF108991081061004501999999MD1510081+9999MW1711
0079376030999991971042321004+41450+043850FM-12+999999999V0209991C000019999999N0005001N9+00221+00001098571ADDAA106004091AA299001091AY171031GF108991999041999999061999MD1810171+9999MW1021
0057376030999991971042418004+41450+043850FM-12+999999999V0202301N00511220001CN0005001N9+00001-00281098661ADDAY111061GF102991021999008001001001MD1210091+9999MW1011
0079376030999991971042421004+41450+043850FM-12+999999999V0209991C00001220001CN0005001N9-00111-00501098711ADDAA106999999AA224999999AY101031GF101991011051999999999999MD1210051+9999MW1011
0051376030999991971042521004+41450+043850FM-12+999999999V0209991C00001220001CN0100001N9+00111-00501098941ADDAY121031GF100991001001999999001001MD1510101+9999
0057376030999991971042621004+41450+043850FM-12+999999999V0201401N00621004501CN0005001N9+00391+00281099091ADDAY161031GF108991081071004501999999MD1210051+9999MW1211
0079376030999991971042700004+41450+043850FM-12+999999999V0201101N99999007801CN9999999N9+99999+99999099041ADDAA106002091AA299000591AY161061GF108991081051008001999999MD1810051+9999MW1021
0057376030999991971042721004+41450+043850FM-12+999999999V0209991C00001220001CN9999999N9+00111-00391099041ADDAY101031GF100991001001999999001001MD1210111+9999MW1021
0081376030999991971042915004+41450+043850FM-12+999999999V0203201N99999220001CN0500001N9+99999+99999098361ADDAA199000091AY111031GF106991021011012501001011KA1999M+01501MD1710041+9999MW1021
0057376030999991971042918004+41450+043850FM-12+999999999V0209991C00001090001CN0100001N9+00721+00111098441ADDAY111061GF106991011011012501001031MD1210081+9999MW1011
0087376030999991971043000004+41450+043850FM-12+999999999V0209991C99999220001CN0100001N9+99999+99999099372ADDAA199000091AY121061GF107991001001999999041031MD1710091+9999MW1031EQDQ01+099373APOSLP
0073376030999991971043009004+41450+043850FM-12+999999999V0209991C99999007501CN0100001N9+99999+99999099321ADDAY101031GA1081+007509059GF108991081051008001999999MD1710011+9999MW1021
0068376030999991971043012004+41450+043850FM-12+999999999V0209991C99999007801CN0100001N9+99999+99999099221ADDAA199000091AY101061GF199999071051008001999999MD1710081+9999MW1021
0068376030999991971043015004+41450+043850FM-12+999999999V0201401N99999036001CN0100001N9+99999+99999099281ADDAA199000091AY121031GF108991031051008001021999MD1510051+9999MW1021
0123376030999991971050203004+41450+043850FM-12+999999999V0209991C00001220001CN0500001N9+99999+99999099581ADDAA199000091AJ100009199999999AY101031GF100991001001999999001001HL10009IA1189IA2999-00289KA1999N+00001MD1710051+9999MW1021
0081376030999991971050303004+41450+043850FM-12+999999999V0209991C00001220001CN0500001N9+99999+99999099561ADDAA199000091AY101031GF101991999001999999031001KA1999N+00001MD1810141+9999MW1021
0057376030999991971050418004+41450+043850FM-12+999999999V0209999999999220001CN0100001N9+99999+99999099571ADDAY121061GF105991001001999999031021MD1510001+9999MW1011
0057376030999991971050421004+41450+043850FM-12+999999999V0209991C00001220001CN0100001N9+00781+00281099581ADDAY111031GF103991001001999999041021MD1210011+9999MW1011
0097376030999991971050503004+41450+043850FM-12+999999999V0209991C00001120001CN0500001N9+99999+99999099541ADDAA199000091AY101031GA1071+120009089GF199999001001999999001001KA1999N+00611MD1710011+9999MW1011
0123376030999991971050603004+41450+043850FM-12+999999999V0201801N003119999999N9999999N9+99999+99999099471ADDAA199000091AJ100009199999999AY131031GF107991011051008001001999HL10009IA1189IA2999+00229KA1999N+00721MD1410001+9999MW1311
0079376030999991971050715004+41450+043850FM-12+999999999V0203601N99999012301CN9999999N9+99999+99999099221ADDAA106008091AA299002091AY191031GF107991071011012501001001MD1710031+9999MW1281
0106376030999991971050903004+41450+043850FM-12+999999999V0209991C00001220001CN0500001N9+99999+99999099221ADDAJ100009199999999AY191031GF199999001001999999041021HL10009IA1089IA2999+00229KA1999N+00281MD1810141+9999
0068376030999991971051000004+41450+043850FM-12+999999999V0209991C00001220001CN9999999N9+00721+00221099221ADDAA199000091AY101061GF100991001001999999001001MD1710051+9999MW1021
0057376030999991971051021004+41450+043850FM-12+999999999V0209991C00001007801CN9999999N9+00501+00281098621ADDAY161031GF108991081051008001999999MD1710071+9999MW1021
0037376030999991971051121004+41450+043850FM-12+999999999V0209991C00001007801CN0005001N9+00501+00391098651ADDAY121031GF107991071071008001001001
0079376030999991971051200004+41450+043850FM-12+999999999V0209991C00001012301CN0005001N9+00391+00281098651ADDAA106008091AA299002091AY121061GF108991081071012501999999MD1410001+9999MW1021
0084376030999991971051415004+41450+043850FM-12+999999999V0202001N99999036001CN0200001N9+99999+99999098831ADDAA199000091AY121031GA1051+999999099GF107991021051008001041011MD1710091+9999MW1021
0057376030999991971051418004+41450+043850FM-12+999999999V0202001N99999007801CN0100001N9+99999+99999099001ADDAY121061GF105991051051008001001061MD1510071+9999MW1011
0068376030999991971051500004+41450+043850FM-12+999999999V0201801N00621220001CN0100001N9+00721+00221098991ADDAA199000091AY111061GF101991011011008001051001MD1710011+9999MW1011
0057376030999991971051521004+41450+043850FM-12+999999999V0209991C00001004501CN0040001N9+00391+00281099041ADDAY101031GF105991051061004501001001MD1410001+9999MW1011
0057376030999991971051621004+41450+043850FM-12+999999999V0209991C00001004501CN0040001N9+00391+00281099041ADDAY101031GF105991051061004501001001MD1410001+9999MW1011
0057376030999991971051918004+41450+043850FM-12+999999999V0209991C999999999999N0005001N9+99999+99999098481ADDAY181061GF107991071091999999001999MD1210121+9999MW1071
0057376030999991971051921004+41450+043850FM-12+999999999V0209991C00001220001CN0100001N9+00611+00281098461ADDAY191031GF100991001001999999001001MD1810021+9999MW1011
0079376030999991971052100004+41450+043850FM-12+999999999V0209991C00001007801CN9999999N9+00391+00111098461ADDAA106004091AA299001091AY121061GF107991051051008001041001MD1710111+9999MW1031
0057376030999991971052121004+41450+043850FM-12+999999999V0209991C00001220001CN0500001N9+00611+00281098841ADDAY101031GF103991021051008001031001MD1510021+9999MW1031
0109376030999991971052203004+41450+043850FM-12+999999999V0209991C00001220001CN0500001N9+99999+99999098811ADDAA199000091AJ100009199999999AY101031GF100991001001999999001001HL10009IA1089IA2999+00009KA1999N+00281MW1011
0079376030999991971052300004+41450+043850FM-12+999999999V0209991C00001007801CN0100001N9+00611+00391098891ADDAA106008091AA299002091AY121061GF107991061051008001031001MD1710031+9999MW1031
0057376030999991971052900004+41450+043850FM-12+999999999V0201001N00311002401CN0005001N9+00611+00611099001ADDAY161061GF108991081071002501999999MD1810181+9999MW1631
0043376030999991971053100004+41450+043850FM-12+999999999V0209999900981220001CN9999999N9+99999+99999099001ADDAY161061GF107991011021017501001011MW1601
0057376030999991971053121004+41450+043850FM-12+999999999V0200501N99999220001CN0100001N9+00781+00391099001ADDAY181031GF103991031011012501001001MD1810031+9999MW1011
0057376030999991971060209004+41450+043850FM-12+999999999V0209991C99999007801CN0500001N9+99999+99999098781ADDAY191031GF107991061051008001001011MD1210091+9999MW1021
0043376030999991971060400004+41450+043850FM-12+999999999V0209991C00001004501CN9999999N9+00721+00501098771ADDAY121061GF107991071051004501001001MW1021
0057376030999991971060418004+41450+043850FM-12+999999999V0200901N003119999999N0005001N9+00501+00281098631ADDAY121061GF108991081999999999999999MD1710011+9999MW1121
0043376030999991971060421004+41450+043850FM-12+999999999V0200501N00311007801CN0020001N9+00391+00391098671ADDAY121031GF107991071999008001001001MW1011
0079376030999991971060500004+41450+043850FM-12+999999999V0209991C00001004501CN0260001N9+00391+00391098711ADDAA106004091AA299001091AY121061GF199999081071004501999999MD1210041+9999MW1161
0065376030999991971060700004+41450+043850FM-12+999999999V0209991C00001220001CN0100001N9+00611+00611098811ADDAA106012091AA299003091AY111061GF103991031051008001001001MW1021
0079376030999991971060712004+41450+043850FM-12+999999999V0209991C999999999999N0100001N9+99999+99999098831ADDAA106024091AA299006091AY191061GF107991999021008001001001MD1410001+9999MW1291
0076376030999991971060918004+41450+043850FM-12+999999999V0202501N00311007801CN0040001N9+02001+01501098831ADDAY191061GF107991071051008001011001MD1310572+9999MW1031EQDQ01+000572APC3  
0057376030999991971061000004+41450+043850FM-12+999999999V0209991C00001220001CN0100001N9+01001+00221098831ADDAY111061GF102991011051008001041001MD1810111+9999MW1011
0043376030999991971061418004+41450+043850FM-12+999999999V0200901N00511007801CN0005001N9+01001+00781098831ADDAY191061GF108991081051008001999999MW1171
0057376030999991971061621004+41450+043850FM-12+999999999V0209991C00001220001CN0100001N9+00501+00111099541ADDAY101031GF100991001001999999001001MD1810031+9999MW1021
0057376030999991971061721004+41450+043850FM-12+999999999V0202001N00511007801CN9999999N9+00781+00391099451ADDAY121031GF105991051051008001001001MD1410001+9999MW1021
0057376030999991971061818004+41450+043850FM-12+999999999V0202701N00621007801CN0005001N9+01001-00111099211ADDAY121061GF105991051051008001051001MD1810051+9999MW1021
0057376030999991971061821004+41450+043850FM-12+999999999V0202701N01181007801CN0005001N9+00221-00111099151ADDAY121031GF106991061051008001001001MD1710061+9999MW1031
0073376030999991971061900004+41450+043850FM-12+999999999V0202701N00981220001CN0005001N9+00281-00221099101ADDAY121061GA1081+999999999GF199999041051008001001001MD1710051+9999MW1011
0057376030999991971061918004+41450+043850FM-12+999999999V0202301N00411220001CN0100001N9+01001+00391099101ADDAY111061GF103991999001999999041001MD1710021+9999MW1011
0057376030999991971062021004+41450+043850FM-12+999999999V0209991C00001004501CN9999999N9+00781+00611099101ADDAY191031GF105991051071004501001001MD1810091+9999MW1011
0057376030999991971062121004+41450+043850FM-12+999999999V0202301N00211007801CN9999999N9+00221+00111099101ADDAY121031GF107991051051008001041001MD1410001+9999MW1021
0043376030999991971062218004+41450+043850FM-12+999999999V0200901N00511007801CN0100001N9+99999+99999099101ADDAY121061GF105991051051008001001001MW1011
0068376030999991971062300004+41450+043850FM-12+999999999V0200901N00411220001CN0100001N9+00221+00111099131ADDAA199000091AY101061GF101991999001999999031001MD1810011+9999MW1011
0043376030999991971062321004+41450+043850FM-12+999999999V0209991C00001220001CN0005001N9+00891+00111099201ADDAY111031GF100991001001999999001001MW1011
0068376030999991971062400004+41450+043850FM-12+999999999V0209991C00001220001CN0005001N9+00281+00111099151ADDAA199000091AY101061GF100991001001999999001001MD1810051+9999MW1021
0057376030999991971062418004+41450+043850FM-12+999999999V0202701N00511220001CN0100001N9+01001+00721099041ADDAY111061GF103991031051008001001001MD1310101+9999MW1011
0043376030999991971062421004+41450+043850FM-12+999999999V0202301N00211220001CN0100001N9+00781+00391099041ADDAY101031GF104991041051008001001001MW1031
0085376030999991971062503004+41450+043850FM-12+999999999V0202301N99999004501CN0500001N9+99999+99999099061ADDAJ100009199999999AY121031GF106991061071004501001001HL10009IA1009IA2999+00399MW1031
0057376030999991971062509004+41450+043850FM-12+999999999V0202001N99999220001CN0500001N9+99999+99999099061ADDAY101031GF102991021011008001001001MD1810011+9999MW1011
0057376030999991971062621004+41450+043850FM-12+999999999V0203201N00311220001CN9999999N9+00781+00501099131ADDAY111031GF101991011051008001001001MD1810041+9999MW1011
0057376030999991971062918004+41450+043850FM-12+999999999V0200901N00211007801CN0005001N9+01001+00721098851ADDAY191061GF105991051091008001041001MD1210111+9999MW1171
0079376030999991971063000004+41450+043850FM-12+999999999V0209991C00001007801CN0005001N9+00891+00781098791ADDAA106008091AA299002091AY191061GF108991081091008001999999MD1810071+9999MW1951
