0068376210999991971010221004+41450+044550FM-12+053499999V0209991C99999220001CN0500001N9+99999+99999999999ADDAA199000091AY121031GF104991041051012501001001MD1210161+9999MW1011
0104376210999991971010303004+41450+044550FM-12+053499999V0202701N00411012301CN0500001N9+00721+00111999999ADDAA199000091AJ100009199999999AY121031GF106991061051012501001001IA1089KA1999N+00721MD1810101+9999MW1031
0057376210999991971010421004+41450+044550FM-12+053499999V0203201N99999012301CN0500001N9+99999+99999999999ADDAY121031GF107991071051012501001001MD1810051+9999MW1031
0068376210999991971010500004+41450+044550FM-12+053499999V0201601N00211007801CN0200001N9+01001+00001999999ADDAA199000091AY121061GF108991081051008001999999MD1710021+9999MW1031
0121376210999991971010600004+41450+044550FM-12+053499999V0200501N00311004501CN0020001N9-00111+99999999999ADDAA106004091AA299001091AJ100009199999999AY121061GF199999081051004501021999HL10009IA1089IA2999+00229MD1210021+9999MW1151
0068376210999991971010921004+41450+044550FM-12+053499999V0203201N99999036001CN0500001N9+99999+99999999999ADDAA199000091AY111031GF105991041051012501031001MD1710171+9999MW1011
0068376210999991971011000004+41450+044550FM-12+053499999V0203201N00211036001CN0500001N9-00111-00281999999ADDAA199000091AY111061GF105991041051012501031001MD1710171+9999MW1011
0123376210999991971011403004+41450+044550FM-12+053499999V0202001N00101012301CN0500001N9+00281+00281104601ADDAA199000091AJ100009199999999AY121031GF107991071051012501001001HL10009IA1089IA2999+00009KA1999N+00281MD1310021+9999MW1011
0043376210999991971011521004+41450+044550FM-12+053499999V0200701N99999220001CN0500001N9+99999+99999999999ADDAY101031GF100991001001999999001001MW1011
0068376210999991971011600004+41450+044550FM-12+053499999V0202701N00411220001CN0500001N9-01001-01281999999ADDAA199000091AY101061GF100991001001999999001001MD1710131+9999MW1021
0057376210999991971011603004+41450+044550FM-12+053499999V0202701N00211220001CN0500001N9-01001-01281999999ADDAY101031GF102991021051012501001001MD1710011+9999MW1031
0123376210999991971011703004+41450+044550FM-12+053499999V0209991C00001220001CN0200001N9-00721-00891999999ADDAA199000091AJ100009199999999AY101031GF100991001001999999001001HL10009IA1139IA2999-00729KA1999N-00721MD1710101+9999MW1011
0068376210999991971012400004+41450+044550FM-12+053499999V0200501N00311220001CN0500001N9-00281-00391999999ADDAA199000091AY101061GF100991001001999999001001MD1410001+9999MW1021
0057376210999991971012421004+41450+044550FM-12+053499999V0202701N99999220001CN0500001N9+99999+99999999999ADDAY101031GF100991001001999999001001MD1810071+9999MW1021
0068376210999991971012600004+41450+044550FM-12+053499999V0202701N00211012301CN0500001N9-00221-00781999999ADDAA199000091AY111061GF105991051051012501001001MD1810111+9999MW1031
0092376210999991971012606004+41450+044550FM-12+053499999V0201801N999999999999N9999999N9+99999+99999999999ADDAA106075091AA224999999AY151061GF199999091999999999999999KA1999N-00111MD1410001+9999MW1561
0123376210999991971012703004+41450+044550FM-12+053499999V0202701N00101220001CN0500001N9-00501-00721999999ADDAA199000091AJ100009199999999AY101031GF100991001001999999001001HL10009IA1139IA2999-00899KA1999N-00501MD1710071+9999MW1011
0057376210999991971012721004+41450+044550FM-12+053499999V0209991C99999220001CN0200001N9+99999+99999999999ADDAY101031GF100991001001999999001001MD1310071+9999MW1021
0081376210999991971012903004+41450+044550FM-12+053499999V0203201N005119999999N0500001N9-00221-00721999999ADDAA199000091AY111031GF107991001001999999061011KA1999N-00501MD1710021+9999MW1031
0068376210999991971013100004+41450+044550FM-12+053499999V0202701N00211012301CN0200001N9+00111-00281999999ADDAA199000091AY121061GF108991081051012501999999MD1710061+9999MW1021
0123376210999991971013103004+41450+044550FM-12+053499999V0202701N00211012301CN0500001N9+00111-00281999999ADDAA199000091AJ100009199999999AY121031GF107991071051012501001001HL10009IA1009IA2999-00289KA1999N+00001MD1410001+9999MW1011
0134376210999991971020203004+41450+044550FM-12+053499999V0209991C00001004501CN0040001N9+00001-00111999999ADDAA106075091AA224999999AJ100009199999999AY171031GF108991081051004501999999HL10009IA1089IA2999-00119KA1999N+00001MD1710151+9999MW1711
0117376210999991971020303004+41450+044550FM-12+053499999V0209991C00001012301CN0500001N9-00111-00221999999ADDAA199000091AJ100009199999999AY121031GF108991081051012501999999HL10009IA2999-00899KA1999N-00221MD1710141+9999MW1021
0057376210999991971020321004+41450+044550FM-12+053499999V0202701N00101007801CN0200001N9+00001-00391999999ADDAY121031GF108991081051008001999999MD1210171+9999MW1031
0054376210999991971020400004+41450+044550FM-12+053499999V0202701N001019999999N0200001N9+00111-00391099101ADDAA199000091AY121061GF108991081091999999999999MW1021
0067376210999991971020403004+41450+044550FM-12+053499999V0203201N00101007801CN0200001N9+00001-00391999999ADDAA199000091AY121031GF108991081051008001999999KA1999N+00001MW1021
0123376210999991971020503004+41450+044550FM-12+053499999V0202701N00211012301CN0500001N9+00111-00221999999ADDAA199000091AJ100009199999999AY121031GF108991081051012501999999HL10009IA1089IA2999-00119KA1999N+00111MD1210051+9999MW1021
0068376210999991971020600004+41450+044550FM-12+053499999V0202701N00211012301CN0200001N9+00111-00221099901ADDAA199000091AY121061GF107991071051012501001001MD1710141+9999MW1021
0158376210999991971020603004+41450+044550FM-12+053499999V0202701N00101220001CN0500001N9+00001-00281104932ADDAA199000091AJ100009199999999AY111031GF104991041051012501001001HL10009IA1009IA2999-00399KA1999N+99999MD1710061+9999MW1011EQDQ01+104933APOSLPQ02 +00112ATMN  
0057376210999991971020818004+41450+044550FM-12+053499999V0202701N99999012301CN0500001N9+99999+99999999999ADDAY111061GF105991051051012501001001MD1210131+9999MW1031
0095376210999991971021003004+41450+044550FM-12+053499999V0203201N00101012301CN0200001N9+00001-00891104121ADDAY171031GF108991081051012501999999HL10009IA1209IA2999-00399KA1999N-00111MD1310131+9999MW1021
0057376210999991971021021004+41450+044550FM-12+053499999V0209991C000019999999N0500001N9+00891-00891104121ADDAY121031GF105991999051012501001001MD1210151+9999MW1001
0123376210999991971021103004+41450+044550FM-12+053499999V0209991C00001220001CN0500001N9+00721-00781104911ADDAA199000091AJ100009199999999AY101031GF103991021051012501001011HL10009IA1139IA2999-00899KA1999N-00721MD1810141+9999MW1011
0123376210999991971021203004+41450+044550FM-12+053499999V0200501N00211012301CN0500001N9-00501-01221999999ADDAA199000091AJ100009199999999AY121031GF107991071051012501001001HL10009IA1139IA2999-01119KA1999N-00501MD1810021+9999MW1021
0109376210999991971021303004+41450+044550FM-12+053499999V0202701N00101220001CN0500001N9+99999+99999104771ADDAA199000091AJ100009199999999AY101031GF101991999001000751999031HL10009IA1139IA2999-01229KA1999N-00781MW1011
0068376210999991971021315004+41450+044550FM-12+053499999V0200501N999999999999N0500001N9+99999+99999104611ADDAA199000091AY121031GF107991999001999999999999MD1310041+9999MW1021
0057376210999991971021321004+41450+044550FM-12+053499999V0203601N00211220001CN0500001N9-00611-01611104851ADDAY101031GF100991001001999999001001MD1310021+9999MW1021
0068376210999991971021400004+41450+044550FM-12+053499999V0202501N00311220001CN0500001N9-00891-01611104951ADDAA199000091AY101061GF100991001001999999001001MD1410001+9999MW1021
0123376210999991971021403004+41450+044550FM-12+053499999V0202701N00311220001CN0500001N9-00891-01721104361ADDAA199000091AJ100009199999999AY101031GF102991011051012501001011HL10009IA1139IA2999-01229KA1999N-00891MD1310011+9999MW1031
0123376210999991971021503004+41450+044550FM-12+053499999V0209991C00001012301CN0200001N9-00611-01281999999ADDAA199000091AJ100009199999999AY111031GF107991071051012501001001HL10009IA1139IA2999-00789KA1999N-00611MD1410001+9999MW1031
0068376210999991971021600004+41450+044550FM-12+053499999V0202701N00511220001CN0500001N9-00391-01001999999ADDAA199000091AY111061GF103991031051012501001001MD1210071+9999MW1011
0057376210999991971021621004+41450+044550FM-12+053499999V0202701N00101012301CN0500001N9+00111-00221999999ADDAY121031GF107991071051012501001001MD1810031+9999MW1031
0068376210999991971021700004+41450+044550FM-12+053499999V0202701N00311220001CN0500001N9+00001-00391099611ADDAA199000091AY121061GF104991041051012501001001MD1710071+9999MW1011
0123376210999991971021703004+41450+044550FM-12+053499999V0201301N00411220001CN0500001N9-00221-00281999999ADDAA199000091AJ100009199999999AY101031GF102991021051012501001001HL10009IA1009IA2999-00899KA1999N-00221MD1710041+9999MW1011
0057376210999991971021721004+41450+044550FM-12+053499999V0209991C00001012301CN0500001N9+00391-00721999999ADDAY121031GF108991081051012501999999MD1210131+9999MW1031
0068376210999991971021800004+41450+044550FM-12+053499999V0209991C00001012301CN0500001N9+00391-00611999999ADDAA199000091AY121061GF108991081051012501999999MD1210141+9999MW1021
0123376210999991971021903004+41450+044550FM-12+053499999V0202701N00311007801CN0500001N9-00111-00281999999ADDAA199000091AJ100009199999999AY121031GF108991081051008001999999HL10009IA1009IA2999-00289KA1999N-00111MD1710081+9999MW1021
0134376210999991971022003004+41450+044550FM-12+053499999V0200901N00101220001CN0500001N9+00221+00111999999ADDAA106075091AA224999999AJ100009199999999AY111031GF107991031051012501001011HL10009IA1139IA2999-00229KA1999N+00221MD1810031+9999MW1011
0043376210999991971022018004+41450+044550FM-12+053499999V0202701N99999220001CN0500001N9+99999+99999999999ADDAY101061GF104991041051012501001001MW1031
0057376210999991971022021004+41450+044550FM-12+053499999V0202601N00101220001CN0500001N9+00611-00721999999ADDAY101031GF102991021051012501001001MD1210051+9999MW1011
0057376210999991971022321004+41450+044550FM-12+053499999V0209991C00001220001CN0500001N9+00501+00221999999ADDAY101031GF103991031051012501001001MD1210091+9999MW1011
0079376210999991971022400004+41450+044550FM-12+053499999V0209991C00001012301CN0500001N9+00391+00221999999ADDAA106075091AA224999999AY111061GF107991071051012501001001MD1210031+9999MW1031
0081376210999991971022503004+41450+044550FM-12+053499999V0209991C00001007801CN0100001N9+00391+00391999999ADDAA199000091AY121031GF108991081051008001999999KA1999N-00111MD1410001+9999MW1021
0051376210999991971022521004+41450+044550FM-12+053499999V0202701N00211220001CN0500001N9+00281+00111999999ADDAY111031GF104991041051012501001001MD1210061+9999
0068376210999991971022700004+41450+044550FM-12+053499999V0202701N00211007801CN0100001N9+00391+00111104301ADDAA199000091AY121061GF108991081051008001999999MD1710241+9999MW1031
0123376210999991971022703004+41450+044550FM-12+053499999V0200501N00211007801CN0200001N9+00281+00281104181ADDAA199000091AJ100009199999999AY121031GF108991081051008001999999HL10009IA1009IA2999+00229KA1999N+00281MD1710211+9999MW1021
0068376210999991971022800004+41450+044550FM-12+053499999V0202701N00101220001CN0500001N9+00611-00501999999ADDAA199000091AY121061GF105991031051012501001011MD1210321+9999MW1021
0079376210999991971030600004+41450+044550FM-12+053499999V0200901N99999007801CN9999999N9+99999+99999999999ADDAA106075091AA224999999AY151061GF108991081051008001999999MD1210031+9999MW1551
0120376210999991971030603004+41450+044550FM-12+053499999V0200901N00311007801CN0100001N9+00221+00221999999ADDAA106075091AA224999999AJ100009199999999AY151031GF108991081051008001999999HL10009IA1009IA2999+00119KA1999N+00221MW1811
0062376210999991971030700004+41450+044550FM-12+053499999V0200901N999999999999N0000501N9+99999+99999999999ADDAA199000091AY151061GF199999081051999999999999MD1710061+9999
0084376210999991971030703004+41450+044550FM-12+053499999V0203601N00311007801CN0100001N9+00221+99999999999ADDAA106999999AA299270091AY121031GF108991081051008001999999MW1021EQDQ01  99982PRCP06
0089376210999991971031103004+41450+044550FM-12+053499999V0202701N00101220001CN0500001N9+00281+99999104761ADDAA199000091AY111031GA1999+006009029GF106991061021017501001071MW1031EQDQ01    003SCCGA1
0057376210999991971031421004+41450+044550FM-12+053499999V0209991C99999007801CN0100001N9+99999+99999104971ADDAY161031GF108991081051008001999999MD1710071+9999MW1211
0043376210999991971031521004+41450+044550FM-12+053499999V0203601N99999220001CN0500001N9+99999+99999999999ADDAY101031GF100991001001999999001001MW1021
0123376210999991971031603004+41450+044550FM-12+053499999V0202701N00211220001CN0500001N9-00221-00721999999ADDAA199000091AJ100009199999999AY101031GF100991001001999999001001HL10009IA1139IA2999-00509KA1999N-00221MD1210041+9999MW1021
0123376210999991971031703004+41450+044550FM-12+053499999V0202701N00211007801CN0200001N9+00221-00281999999ADDAA199000091AJ100009199999999AY121031GF108991081051008001999999HL10009IA1139IA2999-00229KA1999N+00111MD1710011+9999MW1021
0093376210999991971031903004+41450+044550FM-12+053499999V0202701N00211000601CN0500001N9+99999+99999999999ADDAJ100009199999999AY141031GF106991061001000751999999HL10009IA1009IA2999+00229MD1710051+9999
0134376210999991971032103004+41450+044550FM-12+053499999V0203201N00101220001CN0500001N9+00221+00001999999ADDAA106999999AA224999999AJ100009199999999AY111031GF101991011051012501001001HL10009IA1089IA2999+00009KA1999N+00221MD1210031+9999MW1011
0134376210999991971032203004+41450+044550FM-12+053499999V0209991C00001012301CN0500001N9+00501+00221999999ADDAA106075091AA224999999AJ100009199999999AY121031GF108991081091012501999999HL10009IA1089IA2999+00509KA1999N+00501MD1310051+9999MW1021
0057376210999991971032909004+41450+044550FM-12+053499999V0200901N99999220001CN0500001N9+99999+99999999999ADDAY121031GF101991011011012501001001MD1710061+9999MW1021
0068376210999991971032912004+41450+044550FM-12+053499999V0202701N99999220001CN0500001N9+99999+99999999999ADDAA199000091AY101061GF101991011011012501001001MD1710111+9999MW1031
0068376210999991971033000004+41450+044550FM-12+053499999V0200901N99999012301CN0200001N9+99999+99999999999ADDAA199000091AY121061GF108991081051012501999999MD1210011+9999MW1021
0109376210999991971033003004+41450+044550FM-12+053499999V0200901N00101007801CN0100001N9+00781+00781999999ADDAA199000091AJ100009199999999AY121031GF108991081051008001999999HL10009IA1009IA2999+01009KA1999N+00781MW1021
0092376210999991971040403004+41450+044550FM-12+053499999V0200501N00101007801CN0100001N9+99999+99999999999ADDAA106075091AA224999999AY151031GF108991081051008001999999KA1999N+00501MD1810021+9999MW1511
0068376210999991971040600004+41450+044550FM-12+053499999V0209991C00001012301CN0500001N9+00611+00501999999ADDAA199000091AY111061GF108991081051012501999999MD1210011+9999MW1021
0068376210999991971040700004+41450+044550FM-12+053499999V0209991C00001012301CN0200001N9+00501+00391104901ADDAA199000091AY121061GF108991081051012501999999MD1710021+9999MW1021
0068376210999991971040703004+41450+044550FM-12+053499999V0209991C00001012301CN0200001N9+99999+99999104901ADDAA199000091AY121031GF108991081051012501999999MD1710021+9999MW1021
0092376210999991971041018004+41450+044550FM-12+053499999V0202701N99999220001CN0200001N9+99999+99999999999ADDAY121061GA1999+000159009GF108991081051008001999999MD1710041+9999MW1021EQDQ01    003SCCGA1
0068376210999991971041100004+41450+044550FM-12+053499999V0203601N00211007801CN0100001N9+00501+00281999999ADDAA199000091AY121061GF108991081051008001999999MD1710141+9999MW1021
0057376210999991971041121004+41450+044550FM-12+053499999V0200901N99999012301CN0500001N9+99999+99999999999ADDAY111031GF108991081051012501999999MD1410001+9999MW1031
0057376210999991971041321004+41450+044550FM-12+053499999V0202701N99999012301CN0200001N9+99999+99999999999ADDAY121031GF108991081051012501999999MD1710141+9999MW1021
0098376210999991971041400004+41450+044550FM-12+053499999V0202701N00101012301CN0040001N9+99999+99999999999ADDAA106004091AA299001091AY181061GF108991081051012501999999MD1710602+9999MW1041EQDQ01+000602APC3  
0068376210999991971041500004+41450+044550FM-12+053499999V0209991C00001012301CN0500001N9+01001+00611103921ADDAA199000091AY121061GF107991071051012501001001MD1210031+9999MW1021
0081376210999991971041503004+41450+044550FM-12+053499999V0209991C00001220001CN0500001N9+99999+99999103901ADDAA199000091AY111031GF105991031051012501001011KA1999N+00611MD1810021+9999MW1011
0057376210999991971041521004+41450+044550FM-12+053499999V0209991C99999012301CN0500001N9+99999+99999103901ADDAY181031GF108991081091012501999999MD1410001+9999MW1021
0092376210999991971041703004+41450+044550FM-12+053499999V0202701N00101220001CN0500001N9+99999+99999103901ADDAA106055091AA299014091AY111031GF104991999001999999999999KA1999N+00611MD1210071+9999MW1011
0079376210999991971041715004+41450+044550FM-12+053499999V0203201N99999012301CN0500001N9+99999+99999104411ADDAA106999999AA224999999AY121031GF106991061051012501001001MD1310031+9999MW1011
0068376210999991971041800004+41450+044550FM-12+053499999V0200901N00411012301CN0500001N9+00891+00391104411ADDAA199000091AY121061GF107991071051012501999999MD1210021+9999MW1021
0081376210999991971041903004+41450+044550FM-12+053499999V0209991C00001012301CN0500001N9+99999+99999104411ADDAA199000091AY111031GF107991071051012501001001KA1999N+00611MD1210021+9999MW1031
0092376210999991971042003004+41450+044550FM-12+053499999V0202701N002119999999N0500001N9+99999+99999104411ADDAA106197091AA299050091AY101031GF199999999999999999001001KA1999N+00281MD1210081+9999MW1021
0057376210999991971042418004+41450+044550FM-12+053499999V0209991C999999999999N0500001N9+99999+99999104411ADDAY121061GF107991031999012501001011MD1210181+9999MW1021
0057376210999991971042421004+41450+044550FM-12+053499999V0200501N99999220001CN0500001N9+99999+99999104411ADDAY121031GF107991031031012501001011MD1210061+9999MW1021
0043376210999991971042500004+41450+044550FM-12+053499999V0200501N00411001501CN0500001N9+00721+99999999999ADDAY121061GF105991051999001501999999MW1011
0057376210999991971042518004+41450+044550FM-12+053499999V0202301N99999220001CN9999999N9+99999+99999999999ADDAY111061GF100991001001999999001001MD1210111+9999MW1071
0057376210999991971042521004+41450+044550FM-12+053499999V0202701N99999220001CN0500001N9+99999+99999999999ADDAY101031GF100991001001999999001001MD1210041+9999MW1021
0100376210999991971042703004+41450+044550FM-12+053499999V0200901N00511012301CN9999999N9+99999+99999999999ADDAA199999999AY101031GF108991081051012501999999KA1999N+00721MD1310301+9999MW1631EQDQ01  00002PRCP99
0068376210999991971042915004+41450+044550FM-12+053499999V0200901N99999036001CN0500001N9+99999+99999999999ADDAA199000091AY111031GF106991011021012501031021MD1710051+9999MW1031
0057376210999991971042918004+41450+044550FM-12+053499999V0202701N99999012301CN0500001N9+99999+99999999999ADDAY111061GF106991061051012501999999MD1210011+9999MW1031
0081376210999991971050303004+41450+044550FM-12+053499999V0202501N99999220001CN0500001N9+99999+99999999999ADDAA199000091AY111031GF108991021001999999011011KA1999N+01281MD1310011+9999MW1031
0068376210999991971050500004+41450+044550FM-12+053499999V0202701N00311220001CN0500001N9+01501+00891999999ADDAA199000091AY101061GF100991001001999999001001MD1210061+9999MW1021
0081376210999991971050503004+41450+044550FM-12+053499999V0202701N99999220001CN0500001N9+99999+99999999999ADDAA199000091AY101031GF102991001001999999001011KA1999N+01391MD1210101+9999MW1031
0079376210999991971051000004+41450+044550FM-12+053499999V0200501N00101220001CN0500001N9+01391+01111104921ADDAA106004091AA299001091AY101061GF100991001001999999001001MD1210121+9999MW1021
0057376210999991971051018004+41450+044550FM-12+053499999V0202701N99999007801CN0200001N9+99999+99999104921ADDAY181061GF108991081091008001999999MD1210041+9999MW1811
0057376210999991971051121004+41450+044550FM-12+053499999V0202701N99999012301CN0200001N9+99999+99999104801ADDAY121031GF107991051051012501001011MD1810011+9999MW1011
0065376210999991971051300004+41450+044550FM-12+053499999V0202701N00821012301CN0200001N9+01221+01111104801ADDAA106008091AA299002091AY121061GF108991081051012501999999MW1021
0078376210999991971051400004+41450+044550FM-12+053499999V0202701N00211220001CN0500001N9+99999+99999104801ADDAA106236091AA299060091AY111061GF107991999001999999081001KA1999N+00001MW1031
0068376210999991971051415004+41450+044550FM-12+053499999V0209991C99999012301CN0200001N9+99999+99999104951ADDAA199000091AY121031GF107991071051012501001001MD1710131+9999MW1021
0057376210999991971051418004+41450+044550FM-12+053499999V0200901N99999012301CN0500001N9+99999+99999104981ADDAY121061GF107991071051012501001001MD1310031+9999MW1021
0057376210999991971051521004+41450+044550FM-12+053499999V0202701N99999007801CN0100001N9+99999+99999104761ADDAY121031GF108991081051008001999999MD1210091+9999MW1021
0098376210999991971051700004+41450+044550FM-12+053499999V0200901N003119999999N0200001N9+99999+99999999999ADDAA106004091AA299001091AY121061GF108991001999999999999999MD1210131+9999MW1021EQDQ01    013SCOLCG
0057376210999991971051915004+41450+044550FM-12+053499999V0200901N99999220001CN0500001N9+99999+99999999999ADDAY121031GF107991041091012501001011MD1210191+9999MW1021
0057376210999991971051921004+41450+044550FM-12+053499999V0200901N99999012301CN0200001N9+99999+99999999999ADDAY161031GF108991081051012501999999MD1210051+9999MW1611
0079376210999991971052000004+41450+044550FM-12+053499999V0209991C00001012301CN0200001N9+01501+01281999999ADDAA106002091AA299000591AY121061GF108991081051012501999999MD1810031+9999MW1021
0057376210999991971052021004+41450+044550FM-12+053499999V0202701N99999012301CN0200001N9+99999+99999999999ADDAY121031GF108991081051012501999999MD1810141+9999MW1021
0079376210999991971052200004+41450+044550FM-12+053499999V0202701N00311007801CN0100001N9+01391+01001999999ADDAA106075091AA224999999AY181061GF108991081051008001999999MD1710031+9999MW1031
0057376210999991971052221004+41450+044550FM-12+053499999V0200501N99999012301CN0500001N9+99999+99999104881ADDAY191031GF106991061051012501001001MD1810111+9999MW1801
0079376210999991971052400004+41450+044550FM-12+053499999V0202701N00821220001CN0500001N9+01391+00891999999ADDAA106028091AA299007091AY101061GF100991001001999999001001MD1810011+9999MW1011
0057376210999991971052421004+41450+044550FM-12+053499999V0200301N99999220001CN0500001N9+99999+99999104931ADDAY101031GF103991999061000251011999MD1110071+9999MW1011
0057376210999991971060318004+41450+044550FM-12+053499999V0202701N99999007801CN0100001N9+99999+99999999999ADDAY181061GF108991081091008001999999MD1310091+9999MW1801
0076376210999991971060400004+41450+044550FM-12+053499999V0203601N002119999999N0100001N9+01721+99999104791ADDAY181061GF108991081091999999999999MD1110702+9999MW1021EQDQ01+000702APC3  
0057376210999991971060418004+41450+044550FM-12+053499999V0201801N99999012301CN0500001N9+99999+99999104771ADDAY181061GF199999051051012501031001MD1210061+9999MW1011
0057376210999991971060421004+41450+044550FM-12+053499999V0202701N00511220001CN0200001N9+01391+01001104771ADDAY121031GF102991999081008001061999MD1410001+9999MW1031
0057376210999991971060618004+41450+044550FM-12+053499999V0202701N99999220001CN0500001N9+99999+99999104761ADDAY121061GF107991021051012501001011MD1210061+9999MW1021
0057376210999991971060621004+41450+044550FM-12+053499999V0202701N00411220001CN0500001N9+01891+01111104761ADDAY121031GF107991021051012501001011MD1210061+9999MW1021
0057376210999991971060721004+41450+044550FM-12+053499999V0202701N00821012301CN0500001N9+01611+01501104931ADDAY121031GF106991061091012501001001MD1310101+9999MW1021
0057376210999991971060921004+41450+044550FM-12+053499999V0202701N00411220001CN0500001N9+02001+01111104891ADDAY101031GF102991011051012501031001MD1810021+9999MW1011
0057376210999991971061421004+41450+044550FM-12+053499999V0202701N00211012301CN0002001N9+01891+01391999999ADDAY191031GF108991081091012501999999MD1210211+9999MW1951
0079376210999991971061500004+41450+044550FM-12+053499999V0200701N00511012301CN0200001N9+01781+01281999999ADDAA106001091AA299000391AY191061GF108991081091012501999999MD1810041+9999MW1291
0057376210999991971061821004+41450+044550FM-12+053499999V0209991C00001220001CN0500001N9+01721+00221999999ADDAY111031GF100991001001999999001001MD1210031+9999MW1011
0057376210999991971061921004+41450+044550FM-12+053499999V0203201N00211012301CN0200001N9+01501+00721999999ADDAY111031GF105991051051012501001001MD1810041+9999MW1031
0068376210999991971062000004+41450+044550FM-12+053499999V0202701N00411012301CN0200001N9+01611+00721999999ADDAA199000091AY121061GF107991071051012501001001MD1710071+9999MW1031
0067376210999991971062200004+41450+044550FM-12+053499999V0209991C00001220001CN0500001N9+01611+00391999999ADDAA199000091AY101061GF100991001001999999001001KA1999N+01001MW1021
0057376210999991971062221004+41450+044550FM-12+053499999V0202701N00311220001CN0500001N9+01501+00781999999ADDAY101031GF100991001001999999001001MD1210051+9999MW1011
0081376210999991971062300004+41450+044550FM-12+053499999V0209991C00001220001CN9999999N9+01221+00781999999ADDAA199000091AY101061GF100991001001999999001001MD1810021+9999EQDQ01    993SCOTCV
0057376210999991971062421004+41450+044550FM-12+053499999V0202701N00211220001CN0500001N9+02111+00891104851ADDAY101031GF100991001001999999001001MD1210081+9999MW1011
0068376210999991971062500004+41450+044550FM-12+053499999V0202701N00621220001CN0500001N9+02001+00781104901ADDAA199000091AY101061GF100991001001999999001001MD1210051+9999MW1021
0057376210999991971062521004+41450+044550FM-12+053499999V0202701N00101012301CN0500001N9+02001+00721999999ADDAY121031GF107991071051012501001001MD1210071+9999MW1021
0068376210999991971062700004+41450+044550FM-12+053499999V0202701N00101012301CN0200001N9+01891+01221999999ADDAA199000091AY121061GF108991081051012501999999MD1810041+9999MW1021
0068376210999991971062900004+41450+044550FM-12+053499999V0202701N00411012301CN0500001N9+01891+01281999999ADDAA199000091AY121061GF108991081051012501999999MD1810041+9999MW1031
