0057376390999991971010221004+41117+045417FM-12+036499999V0202501N99999220001CN0500001N9+99999+99999103161ADDAY101031GF100991001001999999001001MD1210181+9999MW1011
0057376390999991971010303004+41117+045417FM-12+036499999V0202501N00211220001CN0500001N9+00281+99999103231ADDAY101031GF100991001001999999001001MD1810061+9999MW1021
0057376390999991971010321004+41117+045417FM-12+036499999V0202701N99999220001CN0300001N9+99999+99999103231ADDAY121031GF105991021001999999041011MD1310051+9999MW1021
0068376390999991971010518004+41117+045417FM-12+036499999V0201101N99999220001CN0290001N9+99999+99999102741ADDAA199000091AY121061GF102991011001999999041051MD1310171+9999MW1011
0073376390999991971010921004+41117+045417FM-12+036499999V0209991C99999005401CN0500001N9+99999+99999103061ADDAY121031GA1081+005409059GF108991081051999999999999MD1610041+9999MW1021
0057376390999991971011015004+41117+045417FM-12+036499999V0201401N99999220001CN0130001N9+99999+99999102551ADDAY111031GF102991021001999999999001MD1310221+9999MW1011
0068376390999991971011400004+41117+045417FM-12+036499999V0201401N99999024001CN0500001N9+99999+99999102261ADDAA199000091AY121061GF108991081001999999091999MD1210021+9999MW1021
0057376390999991971012203004+41117+045417FM-12+036499999V0202501N00211220001CN0150001N9-00611+99999102261ADDAY101031GF100991001001999999001001MD1410001+9999MW1021
0068376390999991971012400004+41117+045417FM-12+036499999V0202701N99999220001CN0140001N9+99999+99999102261ADDAA199000091AY101061GF100991001001999999001001MD1410001+9999MW1021
0068376390999991971012600004+41117+045417FM-12+036499999V0200901N99999220001CN0060001N9+99999+99999103011ADDAA199000091AY101061GF100991001001999999001001MD1310201+9999MW1101
0057376390999991971012603004+41117+045417FM-12+036499999V0209991C000019999999N0004001N9-00781+99999103081ADDAY141031GF199999091999999999999999MD1110031+9999MW1441
0057376390999991971012703004+41117+045417FM-12+036499999V0202901N00101220001CN0300001N9-00611+99999102711ADDAY101031GF100991001001999999001001MD1710041+9999MW1021
0057376390999991971012803004+41117+045417FM-12+036499999V0202701N00311220001CN0500001N9-00611+99999102621ADDAY101031GF100991001001999999001001MD1810091+9999MW1021
0054376390999991971013000004+41117+045417FM-12+036499999V0202501N99999220001CN0050001N9+99999+99999102661ADDAA199000091AY101061GF100991001001999999001001MW1101
0068376390999991971013100004+41117+045417FM-12+036499999V0202301N999999999999N0070001N9+99999+99999102501ADDAA199000091AY111061GF199999999001999999071999MD1410001+9999MW1101
0043376390999991971013103004+41117+045417FM-12+036499999V0202301N00101220001CN0040001N9-00281+99999102531ADDAY111031GF100991001001999999001001MW1101
0068376390999991971020100004+41117+045417FM-12+036499999V0209991C00001024001CN0100001N9-00111-00221103081ADDAA199000091AY121061GF108991081001999999091999MD1410001+9999MW1021
0073376390999991971020103004+41117+045417FM-12+036499999V0209991C00001002401CN0100001N9+00111-00111103041ADDAY121031GA1081+002409059GF108991081051002501999999MD1410001+9999MW1021
0100376390999991971020200004+41117+045417FM-12+036499999V0209991C00001024001CN0060001N9-00111-00221102731ADDAA199000091AY121061GF107991071001999999091001KA1999N+99999MD1610121+9999MW1101EQDQ01 +01112ATMN  
0057376390999991971020203004+41117+045417FM-12+036499999V0202501N00311024001CN0070001N9-00281-00611102621ADDAY121031GF107991071001999999091999MD1210151+9999MW1101
0057376390999991971020303004+41117+045417FM-12+036499999V0202501N00101220001CN0100001N9-00111-00221102621ADDAY111031GF100991001001999999001001MD1810121+9999MW1011
0073376390999991971020321004+41117+045417FM-12+036499999V0202701N00101014101CN0140001N9+00111-00111101501ADDAY121031GA1081+014109059GF108991081051012501999999MD1210101+9999MW1021
0068376390999991971020400004+41117+045417FM-12+036499999V0209991C00001220001CN0160001N9-00111-00281101591ADDAA199000091AY111061GF100991001001999999001001MD1210061+9999MW1011
0057376390999991971020403004+41117+045417FM-12+036499999V0202901N00311024001CN0120001N9-00111-00221101731ADDAY111031GF107991071001999999081001MD1210141+9999MW1031
0043376390999991971020603004+41117+045417FM-12+036499999V0202501N00211220001CN0120001N9-00221-00281101731ADDAY101031GF102991021001999999041001MW1011
0073376390999991971021003004+41117+045417FM-12+036499999V0203201N00821007801CN0300001N9+00001-00891101731ADDAY171031GA1081+007809059GF108991081051008001999999MD1310241+9999MW1021
0057376390999991971021021004+41117+045417FM-12+036499999V0202501N00211220001CN0500001N9-00501+99999101731ADDAY101031GF101991011001008001041001MD1610131+9999MW1021
0057376390999991971021103004+41117+045417FM-12+036499999V0209991C00001024001CN0500001N9+00501-00111101731ADDAY111031GF105991051001999999051011MD1810111+9999MW1031
0057376390999991971021203004+41117+045417FM-12+036499999V0202301N00211220001CN0500001N9-00721+99999101881ADDAY101031GF100991001001999999001001MD1810081+9999MW1021
0068376390999991971021300004+41117+045417FM-12+036499999V0202701N00511220001CN0500001N9-00611+99999101611ADDAA199000091AY101061GF100991001001999999001001MD1810051+9999MW1021
0057376390999991971021321004+41117+045417FM-12+036499999V0203201N00411220001CN0290001N9+99999+99999101581ADDAY101031GF100991001001999999001001MD1210201+9999MW1021
0073376390999991971021518004+41117+045417FM-12+036499999V0203201N99999220001CN0500001N9+99999+99999102321ADDAA106999999AA224999999AY181061GF100991001001999999001001MD1310131+9999
0057376390999991971021521004+41117+045417FM-12+036499999V0202701N00101220001CN0500001N9-00221-00611102481ADDAY111031GF107991031001999999041011MD1210121+9999MW1031
0057376390999991971021621004+41117+045417FM-12+036499999V0202701N00211220001CN0500001N9+00221-01221102131ADDAY101031GF100991001001999999001001MD1810031+9999MW1021
0068376390999991971021700004+41117+045417FM-12+036499999V0209991C00001220001CN0500001N9+00001-00221102201ADDAA199000091AY101061GF100991001001999999001001MD1410001+9999MW1021
0057376390999991971021703004+41117+045417FM-12+036499999V0209991C00001220001CN0160001N9-00221-00611102151ADDAY111031GF107991001001999999001071MD1810071+9999MW1031
0068376390999991971021718004+41117+045417FM-12+036499999V0201401N99999024001CN9999999N9+99999+99999102081ADDAA199000091AY121061GF107991071001999999091001MD1310161+9999MW1021
0057376390999991971021721004+41117+045417FM-12+036499999V0201401N00511220001CN0240001N9+00221-00611102241ADDAY111031GF100991001001999999001001MD1110161+9999MW1011
0086376390999991971021800004+41117+045417FM-12+036499999V0201401N00511220001CN0210001N9+00111-00221102281ADDAA199000091AY101061GF100991001001999999001001KA1999N+99999MW1021EQDQ01 +01112ATMN  
0073376390999991971021903004+41117+045417FM-12+036499999V0202701N00101006601CN0100001N9+00111-00111102281ADDAY121031GA1081+006609059GF108991081051008001999999MD1610081+9999MW1021
0068376390999991971022000004+41117+045417FM-12+036499999V0202301N00311220001CN0180001N9+00111-00111101661ADDAA199000091AY111061GF100991001001999999001001MD1310061+9999MW1011
0057376390999991971022003004+41117+045417FM-12+036499999V0202701N00101220001CN0500001N9-00111-00281101691ADDAY101031GF100991001001999999001001MD1410001+9999MW1021
0073376390999991971022103004+41117+045417FM-12+036499999V0200901N00311003601CN0130001N9+00281+00111101821ADDAY111031GA1081+003609059GF108991081051004501999999MD1110041+9999MW1031
0073376390999991971022203004+41117+045417FM-12+036499999V0202301N00311003301CN0270001N9+00221+00221101651ADDAY121031GA1081+003309059GF108991081051004501999999MD1810011+9999MW1021
0076376390999991971022300004+41117+045417FM-12+036499999V0202501N00211007801CN0050001N9+00281+00281101041ADDAY161061GF108991081051008001999999MD1710862+9999MW1181EQDQ01+000862APC3  
0057376390999991971022303004+41117+045417FM-12+036499999V0202501N00101015001CN0060001N9+00221+00221101071ADDAY121031GF107991071051017501001001MD1310021+9999MW1101
0054376390999991971022400004+41117+045417FM-12+036499999V0203201N003119999999N0500001N9+00611+00111101071ADDAA199000091AY121061GF108991011001999999071999MW1021
0073376390999991971022503004+41117+045417FM-12+036499999V0202501N00311004801CN0060001N9+00501+00281102041ADDAY121031GA1081+004809059GF108991081051004501999999MD1410001+9999MW1101
0057376390999991971022521004+41117+045417FM-12+036499999V0202501N00311220001CN0100001N9+00281+00221102081ADDAY111031GF103991031001999999061001MD1310051+9999MW1011
0068376390999991971022800004+41117+045417FM-12+036499999V0209999900311220001CN0500001N9+00391-00221102081ADDAA199000091AY111061GF100991001001999999001001MD1210211+9999MW1021
0043376390999991971030518004+41117+045417FM-12+036499999V0201101N99999220001CN0500001N9+99999+99999102811ADDAY101061GF100991001001999999001001MW1021
0073376390999991971030521004+41117+045417FM-12+036499999V0201101N99999004501CN0500001N9+99999+99999103051ADDAY111031GA1081+999999059GF108991081051004501999999MD1210201+9999MW1031
0073376390999991971030603004+41117+045417FM-12+036499999V0201401N00411003601CN0500001N9+00281+00111103111ADDAY121031GA1081+003609059GF108991081051004501999999MD1110021+9999MW1021
0073376390999991971030703004+41117+045417FM-12+036499999V0201401N00511001501CN0050001N9+00281+00221102821ADDAY121031GA1081+001509079GF108991081061001501999999MD1810061+9999MW1101
0057376390999991971031200004+41117+045417FM-12+036499999V0203201N99999012301CN0500001N9+99999+99999100981ADDAY181061GF108991081051012501999999MD1110031+9999MW1021
0057376390999991971031203004+41117+045417FM-12+036499999V0203201N00211015001CN0500001N9+00501+00221101001ADDAY121031GF108991081051017501999999MD1110021+9999MW1021
0059376390999991971031403004+41117+045417FM-12+036499999V0201101N00311004501CN0110001N9+00391+00391101461ADDAY121031GA1061+999999019GF108991081051004501999999MW1021
0108376390999991971031500004+41117+045417FM-12+036499999V0203201N99999006901CN0500001N9+99999+99999101511ADDAA106008091AA299002091AY161061GA1081+006909059GF108991081051008001999999KA1999N+01111MD1310061+9999MW1021
0043376390999991971031603004+41117+045417FM-12+036499999V0202701N00101220001CN0300001N9-00221-00391102371ADDAY101031GF100991001001999999001001MW1021
0057376390999991971031703004+41117+045417FM-12+036499999V0202501N00211024001CN0240001N9+00111-00221102331ADDAY121031GF108991081001999999091999MD1410001+9999MW1021
0057376390999991971031903004+41117+045417FM-12+036499999V0202301N00311024001CN0200001N9+00001+00001101361ADDAY121031GF105991051001999999999999MD1310021+9999MW1011
0057376390999991971032103004+41117+045417FM-12+036499999V0203201N00101024001CN0100001N9+00721+00221102011ADDAY121031GF108991081001999999071999MD1110021+9999MW1021
0087376390999991971032118004+41117+045417FM-12+036499999V0201101N99999036001CN0400001N9+99999+99999102081ADDAA199999999AY181061GF107991031091012501091001MD1310141+9999MW1801EQDQ01  00002PRCP99
0043376390999991971032509004+41117+045417FM-12+036499999V0200701N99999090001CN9999999N9+99999+99999999999ADDAY121031GF108991021001999999041071MW1021
0068376390999991971032718004+41117+045417FM-12+036499999V0202301N99999024001CN0200001N9+99999+99999100791ADDAA199000091AY121061GF108991081001999999021999MD1310081+9999MW1021
0057376390999991971033021004+41117+045417FM-12+036499999V0201401N99999220001CN0450001N9+99999+99999101431ADDAY111031GF100991001001999999001001MD1810181+9999MW1011
0076376390999991971033103004+41117+045417FM-12+036499999V0202501N00311220001CN0200001N9+00391+00221103002ADDAY101031GF100991001001999999001001MD1810111+9999MW1021EQDQ01+103003APOSLP
0084376390999991971040318004+41117+045417FM-12+036499999V0201101N99999011101CN0300001N9+99999+99999102161ADDAA199000091AY121061GA1081+011109059GF108991081051012501999999MD1310101+9999MW1021
0073376390999991971040321004+41117+045417FM-12+036499999V0201101N99999011101CN0500001N9+99999+99999102241ADDAY121031GA1081+011109059GF108991081051012501999999MD1210081+9999MW1011
0084376390999991971040400004+41117+045417FM-12+036499999V0201101N00311012901CN0500001N9+00611+00281102261ADDAA199000091AY121061GA1081+012909059GF108991081051012501999999MD1410001+9999MW1021
0073376390999991971040421004+41117+045417FM-12+036499999V0201401N99999005101CN0300001N9+99999+99999102271ADDAY161031GA1081+005109079GF108991999071004501021001MD1210041+9999MW1611
0043376390999991971040703004+41117+045417FM-12+036499999V0202101N004119999999N0100001N9+99999+99999101351ADDAY101031GF199999001001999999011999MW1021
0100376390999991971041100004+41117+045417FM-12+036499999V0202501N00311220001CN0500001N9+00221+00221102081ADDAA199000091AY111061GF101991011001999999041001KA1999N+99999MD1710151+9999MW1021EQDQ01 +01112ATMN  
0051376390999991971041203004+41117+045417FM-12+036499999V0202501N00311220001CN0100001N9+99999+99999101431ADDAY111031GF106991011001999999041011MD1810021+9999
0079376390999991971041400004+41117+045417FM-12+036499999V0209991C00001024001CN0500001N9+01001+00891099671ADDAA106004091AA299001091AY161061GF108991081081999999001999MD1710101+9999MW1021
0067376390999991971041418004+41117+045417FM-12+036499999V0203201N99999024001CN0500001N9+99999+99999100091ADDAY121061GA1011+999999029GF107991071001999999091001MD1110101+9999
0057376390999991971041503004+41117+045417FM-12+036499999V0202701N00211007801CN0200001N9+99999+99999100251ADDAY121031GF107991071999008001091001MD1110011+9999MW1021
0057376390999991971041518004+41117+045417FM-12+036499999V0202501N999999999999N0500001N9+99999+99999100481ADDAY121061GF107991011001002501011061MD1010171+9999MW1021
0057376390999991971041521004+41117+045417FM-12+036499999V0203201N99999036001CN0220001N9+99999+99999100581ADDAY181031GF108991031091012501091999MD1010101+9999MW1801
0057376390999991971041715004+41117+045417FM-12+036499999V0200201N99999012301CN0200001N9+99999+99999100701ADDAY191031GF107991071091012501001001MD1710091+9999MW1951
0057376390999991971041721004+41117+045417FM-12+036499999V0203201N99999024001CN0500001N9+99999+99999101121ADDAY121031GF106991061001999999091001MD1210171+9999MW1011
0057376390999991971041800004+41117+045417FM-12+036499999V0203201N00721024001CN0500001N9+01001+00391101121ADDAY121061GF106991061001999999091001MD1210171+9999MW1011
0076376390999991971041803004+41117+045417FM-12+036499999V0202701N003119999999N0200001N9+99999+99999102702ADDAY121031GF107991999091999999011001MD1710061+9999MW1021EQDQ01+102703APOSLP
0086376390999991971041900004+41117+045417FM-12+036499999V0202701N00311220001CN0500001N9+00501+00501101831ADDAA199000091AY111061GF101991011001999999021021KA1999N+99999MW1011EQDQ01 +01112ATMN  
0068376390999991971041918004+41117+045417FM-12+036499999V0203101N99999015001CN0240001N9+99999+99999100991ADDAA199000091AY101061GF108991081051017501999999MD1310301+9999MW1101
0076376390999991971042003004+41117+045417FM-12+036499999V0202501N00311220001CN0200001N9+99999+99999099251ADDAY101031GF100991001001999999001001MD1310622+9999MW1021EQDQ01+000622APC3  
0079376390999991971042400004+41117+045417FM-12+036499999V0202701N00211021001CN0450001N9+01111+00721101121ADDAA106001091AA299000391AY181061GF107991071001022501091001MD1710401+9999MW1021
0076376390999991971042418004+41117+045417FM-12+036499999V0203201N99999220001CN0500001N9+99999+99999101351ADDAY111061GF100991001001999999001001MD1310732+9999MW1011EQDQ01+000732APC3  
0057376390999991971042421004+41117+045417FM-12+036499999V0202301N99999220001CN0500001N9+99999+99999101471ADDAY101031GF100991001001999999001001MD1210081+9999MW1021
0132376390999991971042500004+41117+045417FM-12+036499999V0202301N00101220001CN0300001N9+00611+00281101431ADDAA199999999AY101061GF100991001001999999001001KA1999N+99999MD1810061+9999MW1201EQDQ01    993SCOTCVQ02  00002PRCP99Q03 +01112ATMN  
0057376390999991971042703004+41117+045417FM-12+036499999V0203201N00721024001CN0200001N9+99999+99999101521ADDAY101031GF199999071001999999091001MD1310171+9999MW1221
0057376390999991971042915004+41117+045417FM-12+036499999V0201101N99999220001CN0200001N9+99999+99999101331ADDAY101031GF101991011001999999041001MD1710111+9999MW1031
0068376390999991971042918004+41117+045417FM-12+036499999V0201101N99999220001CN0500001N9+99999+99999101521ADDAA199000091AY101061GF101991011001999999041001MD1310081+9999MW1021
0057376390999991971043015004+41117+045417FM-12+036499999V0200201N99999024001CN0200001N9+99999+99999101401ADDAY181031GF108991081001999999091999MD1710051+9999MW1021
0057376390999991971050421004+41117+045417FM-12+036499999V0202501N99999090001CN0500001N9+01891+99999101551ADDAY121031GF107991021001999999041021MD1210041+9999MW1021
0068376390999991971050500004+41117+045417FM-12+036499999V0200301N00311220001CN0500001N9+01721+01001101691ADDAA199000091AY111061GF100991001001999999001001MD1310101+9999MW1011
0057376390999991971050503004+41117+045417FM-12+036499999V0202701N99999220001CN0200001N9+99999+99999101751ADDAY101031GF100991001001999999001001MD1110041+9999MW1021
0057376390999991971050521004+41117+045417FM-12+036499999V0202001N99999090001CN0500001N9+01891+99999101331ADDAY121031GF106991011001999999081031MD1210071+9999MW1021
0098376390999991971050600004+41117+045417FM-12+036499999V0201401N00311220001CN0500001N9+01611+01001101421ADDAA106999999AA299300091AY111061GF100991001001999999001001MD1110051+9999MW1011EQDQ01  99982PRCP06
0057376390999991971050603004+41117+045417FM-12+036499999V0202301N99999024001CN0200001N9+99999+99999101581ADDAY111031GF107991071001999999051001MD1310151+9999MW1031
0092376390999991971050900004+41117+045417FM-12+036499999V0202501N00311024001CN0500001N9+01611+01391101551ADDAA106004091AA299001091AY121061GF107991071001999999091999KA1999N+01111MD1710021+9999MW1021
0057376390999991971050918004+41117+045417FM-12+036499999V0209991C99999220001CN0500001N9+99999+99999100881ADDAY101061GF102991021001999999081001MD1110371+9999MW1131
0081376390999991971051000004+41117+045417FM-12+036499999V0203201N00511220001CN0500001N9+01611+01001101041ADDAA199000091AY101061GF100991001001999999001001KA1999N+01111MD1310071+9999MW1021
0076376390999991971051200004+41117+045417FM-12+036499999V0202901N00311024001CN0300001N9+01281+01001101081ADDAY121061GF107991071001999999091071MD1010812+9999MW1011EQDQ01+000812APC3  
0119376390999991971051400004+41117+045417FM-12+036499999V0209999999999006001CN0210001N9+01391+01221101081ADDAA199000091AY111061GA1999+000159009GA2081+006009009GF199999071051017501001001MD1810051+9999MW1031EQDQ01    003SCCGA1
0057376390999991971051415004+41117+045417FM-12+036499999V0201401N99999024001CN0200001N9+99999+99999101081ADDAY121031GF107991071001999999091001MD1610121+9999MW1021
0057376390999991971051621004+41117+045417FM-12+036499999V0201401N99999024001CN0450001N9+01611+99999101081ADDAY191031GF107991071001999999091001MD1110141+9999MW1021
0073376390999991971051921004+41117+045417FM-12+036499999V0202701N99999012901CN0500001N9+01611+99999101881ADDAY121031GA1081+012909059GF108991081051012501999999MD1810011+9999MW1131
0068376390999991971052000004+41117+045417FM-12+036499999V0201401N00311220001CN0500001N9+01501+01111101901ADDAA199000091AY111061GF101991011001999999041001MD1310011+9999MW1011
0068376390999991971052200004+41117+045417FM-12+036499999V0202501N00311220001CN0500001N9+01501+01111101901ADDAA199000091AY111061GF102991021001999999081001MD1410001+9999MW1031
0057376390999991971052221004+41117+045417FM-12+036499999V0202301N99999220001CN0500001N9+01501+99999101231ADDAY191031GF102991021001999999041001MD1110131+9999MW1031
0092376390999991971052300004+41117+045417FM-12+036499999V0202701N00101024001CN0200001N9+01391+01221101231ADDAA106008091AA299002091AY191061GF107991071001999999081001KA1999N+01111MD1410001+9999MW1031
0068376390999991971052800004+41117+045417FM-12+036499999V0203401N00101220001CN0500001N9+01611+01281101341ADDAA199000091AY121061GF104991041001999999041001MD1210031+9999MW1011
0068376390999991971052821004+41117+045417FM-12+036499999V0201001N99999036001CN0500001N9+01891+99999101451ADDAA199000091AY121031GF108991021091012501091999MD1310121+9999MW1021
0079376390999991971053100004+41117+045417FM-12+036499999V0200501N00311220001CN0200001N9+01611+01001101311ADDAA106999999AA224999999AY111061GF102991021001999999041001MD1110061+9999MW1011
0065376390999991971060218004+41117+045417FM-12+036499999V0202001N99999024001CN0500001N9+99999+99999101351ADDAA106008091AA299002091AY191061GF107991071001999999051001MW1021
0057376390999991971060300004+41117+045417FM-12+036499999V0209991C00001024001CN0500001N9+01611+01281101351ADDAY121061GF107991071001999999081001MD1810021+9999MW1021
0065376390999991971060318004+41117+045417FM-12+036499999V0202301N99999024001CN0500001N9+99999+99999101061ADDAA106001091AA299000391AY191061GF107991071001999999081001MW1021
0057376390999991971060421004+41117+045417FM-12+036499999V0202501N00411024001CN0500001N9+99999+99999100961ADDAY121031GF107991071001999999091001MD1110011+9999MW1021
0068376390999991971060500004+41117+045417FM-12+036499999V0203401N00311024001CN0500001N9+01501+01221100961ADDAA199000091AY121061GF108991081001999999091999MD1810011+9999MW1021
0072376390999991971060900004+41117+045417FM-12+036499999V0201101N00211220001CN0500001N9+02891+01391101051ADDAY191061GA1041+999999009GF199999011999000751999011KA1999N+01391MW1021
0057376390999991971060921004+41117+045417FM-12+036499999V0202901N00721024001CN0500001N9+99999+99999100971ADDAY111031GF107991071001999999091001MD1110041+9999MW1031
0057376390999991971061109004+41117+045417FM-12+036499999V0203201N99999024001CN0100001N9+99999+99999100941ADDAY121031GF108991081001999999071999MD1410001+9999MW1021
0057376390999991971061421004+41117+045417FM-12+036499999V0203201N007219999999N0210001N9+99999+99999101011ADDAY111031GF107991999999999999091031MD1310121+9999MW1131
0079376390999991971061500004+41117+045417FM-12+036499999V0203201N00211036001CN9999999N9+99999+99999101171ADDAA106004091AA299001091AY181061GF108991031091012501091999MD1110091+9999MW1201
0057376390999991971061521004+41117+045417FM-12+036499999V0202901N00311220001CN0500001N9+99999+99999101171ADDAY101031GF100991001001999999001001MD1010091+9999MW1011
0057376390999991971061821004+41117+045417FM-12+036499999V0202501N00311220001CN0500001N9+99999+99999101531ADDAY101031GF100991001001999999001001MD1810031+9999MW1021
0057376390999991971062121004+41117+045417FM-12+036499999V0202901N002119999999N0500001N9+99999+99999101391ADDAY101031GF108991999999999999001001MD1110101+9999MW1021
0132376390999991971062200004+41117+045417FM-12+036499999V0202001N00211220001CN0200001N9+00891+00611101441ADDAA199999999AY101061GF100991001001999999001001KA1999N+99999MD1410001+9999MW1201EQDQ01    993SCOTCVQ02  00002PRCP99Q03 +01112ATMN  
0076376390999991971062521004+41117+045417FM-12+036499999V0209991C00001220001CN0500001N9+99999+99999101441ADDAY111031GF100991001001999999001001MD1410001+9999MW1771EQDQ01    993SCOTCV
0087376390999991971062700004+41117+045417FM-12+036499999V0203201N00211036001CN0100001N9+01221+01221101441ADDAA199999999AY171061GF108991031051017501081999MD1410001+9999MW1221EQDQ01  00002PRCP99
0043376390999991971062721004+41117+045417FM-12+036499999V0202901N001019999999N0300001N9+99999+99999101381ADDAY121031GF108991081061999999999999MW1021
0079376390999991971062900004+41117+045417FM-12+036499999V0209991C00001015001CN0350001N9+02001+01611101381ADDAA106002091AA299000591AY181061GF108991051091017501999999MD1310031+9999MW1801
0087376390999991971062918004+41117+045417FM-12+036499999V02099999999999999999N0500001N9+99999+99999100751ADDAA199000091AY101061GF100991001001999999001001MD1310121+9999MW1011EQDQ01    993SCOTCV
0081376390999991971063000004+41117+045417FM-12+036499999V0202501N00211024001CN0500001N9+01891+01391100871ADDAA199000091AY111061GF107991071001999999091001KA1999N+01111MD1110061+9999MW1031
