0057379890999991971010103004+38450+048883FM-12-002199999V0202701N00211220001CN0500001N9+01501+99999102591ADDAY101031GF100991001001999999001001MD1210041+9999MW1021
0057379890999991971010203004+38450+048883FM-12-002199999V0202301N00101220001CN0500001N9+00721+99999102591ADDAY101031GF100991001001999999001001MD1310011+9999MW1021
0068379890999991971010412004+38450+048883FM-12-002199999V0209991C99999220001CN0500001N9+99999+99999102301ADDAA199000091AY101061GF102991001001999999001051MD1710121+9999MW1021
0068379890999991971010518004+38450+048883FM-12-002199999V0202701N99999007801CN0140001N9+99999+99999103201ADDAA199000091AY121061GF107991071051008001001001MD1210331+9999MW1021
0057379890999991971010621004+38450+048883FM-12-002199999V0209999999999007801CN0040001N9+99999+99999102491ADDAY121031GF199999081051008001999999MD1710151+9999MW1021
0057379890999991971010921004+38450+048883FM-12-002199999V0202701N99999220001CN0500001N9+99999+99999103031ADDAY101031GF199999001999999999001001MD1710131+9999MW1021
0068379890999991971011000004+38450+048883FM-12-002199999V0202701N99999220001CN0500001N9+99999+99999102871ADDAA199000091AY101061GF100991001001999999001001MD1710161+9999MW1021
0057379890999991971011015004+38450+048883FM-12-002199999V0203601N99999007801CN0170001N9+99999+99999102781ADDAY121031GF108991081051008001999999MD1210191+9999MW1021
0057379890999991971011203004+38450+048883FM-12-002199999V0203601N00101007801CN0500001N9+00501+99999102091ADDAY121031GF108991081051008001999999MD1710221+9999MW1021
0057379890999991971011600004+38450+048883FM-12-002199999V0203601N99999004501CN0041001N9+99999+99999102821ADDAY171061GF108991081001004501021999MD1710091+9999MW1711
0068379890999991971012200004+38450+048883FM-12-002199999V0202701N99999220001CN0500001N9+99999+99999102641ADDAA199000091AY101061GF100991001001999999001001MD1210051+9999MW1021
0081379890999991971012400004+38450+048883FM-12-002199999V0202701N99999220001CN0500001N9+99999+99999999999ADDAA199000091AY101061GF100991001001999999001001MD1310031+9999EQDQ01    993SCOTCV
0068379890999991971012418004+38450+048883FM-12-002199999V0202701N99999220001CN0500001N9+99999+99999103241ADDAA199000091AY101061GF100991001001999999001001MD1810091+9999MW1021
0057379890999991971012421004+38450+048883FM-12-002199999V0202701N99999220001CN0500001N9+99999+99999103191ADDAY101031GF100991001001999999001001MD1710051+9999MW1021
0043379890999991971012603004+38450+048883FM-12-002199999V0203201N00101007801CN0140001N9+00001+99999102791ADDAY111031GF106991061051008001001999MW1031
0057379890999991971012721004+38450+048883FM-12-002199999V0203201N99999220001CN0500001N9+99999+99999102551ADDAY101031GF100991001001999999001001MD1810031+9999MW1021
0068379890999991971012800004+38450+048883FM-12-002199999V0202701N99999220001CN0500001N9+99999+99999102601ADDAA199000091AY101061GF100991001001999999001001MD1310051+9999MW1021
0057379890999991971012803004+38450+048883FM-12-002199999V0202701N00101220001CN0500001N9+00001+99999102501ADDAY101031GF100991001001999999001001MD1810101+9999MW1021
0081379890999991971012818004+38450+048883FM-12-002199999V0202701N99999220001CN0500001N9+99999+99999999999ADDAA199000091AY101061GF100991001001999999001001MD1410001+9999EQDQ01    993SCOTCV
0057379890999991971013003004+38450+048883FM-12-002199999V0202701N00101220001CN0500001N9-00111+99999102531ADDAY101031GF100991001001999999001001MD1210021+9999MW1021
0076379890999991971013021004+38450+048883FM-12-002199999V0202701N99999220001CN0200001N9+99999+99999102501ADDAY101031GF100991001001999999001001MD1710281+9999MW1201EQDQ01    993SCOTCV
0068379890999991971020100004+38450+048883FM-12-002199999V0203201N00101007801CN0170001N9+00281+00001103151ADDAA199000091AY121061GF108991081051008001999999MD1410001+9999MW1021
0057379890999991971020103004+38450+048883FM-12-002199999V0203201N00101007801CN0170001N9+00391+00001103081ADDAY121031GF108991081051008001999999MD1710071+9999MW1021
0057379890999991971020203004+38450+048883FM-12-002199999V0202701N00101220001CN0500001N9+00001-00221103081ADDAY101031GF100991001001999999001001MD1110121+9999MW1021
0057379890999991971020321004+38450+048883FM-12-002199999V0202701N99999007801CN0150001N9+99999+99999101391ADDAY121031GF108991081051008001999999MD1310021+9999MW1021
0068379890999991971020400004+38450+048883FM-12-002199999V0202701N00101220001CN0500001N9+00721+00221101411ADDAA199000091AY111061GF100991001001999999001001MD1210011+9999MW1011
0068379890999991971021000004+38450+048883FM-12-002199999V0209991C00001220001CN0220001N9+00001-00111100201ADDAA199000091AY101061GF103991031999999999999001MD1710251+9999MW1031
0057379890999991971021003004+38450+048883FM-12-002199999V0202701N00311007801CN0220001N9+01001+00221099891ADDAY121031GF108991081001008001091999MD1710341+9999MW1021
0057379890999991971021203004+38450+048883FM-12-002199999V0202701N00101220001CN0500001N9+00111-00221099891ADDAY101031GF100991001001999999001001MD1810021+9999MW1021
0068379890999991971021300004+38450+048883FM-12-002199999V0203101N999999999999N0210001N9+00281+00111101301ADDAA199000091AY121061GF108991999999001501999999MD1710061+9999MW1021
0079379890999991971021318004+38450+048883FM-12-002199999V0203201N99999007801CN0170001N9+99999+99999101221ADDAA106020091AA299005091AY171061GF108991081051008001999999MD1210041+9999MW1021
0057379890999991971021321004+38450+048883FM-12-002199999V0203201N99999007801CN0160001N9+99999+99999101261ADDAY121031GF108991081051008001999999MD1210041+9999MW1021
0065379890999991971021400004+38450+048883FM-12-002199999V0203601N00311007801CN0180001N9+00111-00611101421ADDAA106004091AA299001091AY121061GF108991999051008001011021MW1021
0057379890999991971021403004+38450+048883FM-12-002199999V0203601N00311007801CN0210001N9+00001-00611101611ADDAY121031GF108991081051008001999999MD1210191+9999MW1021
0057379890999991971021503004+38450+048883FM-12-002199999V0202701N00101220001CN0500001N9+00281-00281101981ADDAY111031GF103991031001999999041001MD1710031+9999MW1011
0057379890999991971021521004+38450+048883FM-12-002199999V0202301N99999220001CN0500001N9+99999+99999101981ADDAY101031GF100991001001999999001001MD1210111+9999MW1021
0068379890999991971021700004+38450+048883FM-12-002199999V0202301N00511220001CN0500001N9+00891-01001102121ADDAA199000091AY101061GF100991001001999999001001MD1810061+9999MW1021
0057379890999991971021703004+38450+048883FM-12-002199999V0202301N00511220001CN0500001N9+00891-01111102091ADDAY101031GF100991001001999999001001MD1710031+9999MW1021
0057379890999991971021721004+38450+048883FM-12-002199999V0203201N99999220001CN0500001N9+99999+99999102091ADDAY111031GF100991001001999999001001MD1210111+9999MW1011
0068379890999991971021800004+38450+048883FM-12-002199999V0203201N00101007801CN0220001N9+00501+00281102391ADDAA199000091AY111061GF108991081051008001999999MD1210021+9999MW1031
0057379890999991971022003004+38450+048883FM-12-002199999V0200501N001019999999N9999999N9+00721+00501102391ADDAY111031GF199999081051999999999999MD1210101+9999MW1021
0057379890999991971022203004+38450+048883FM-12-002199999V0202701N00101007801CN0200001N9+00721+00611101531ADDAY121031GF108991081051008001999999MD1710011+9999MW1021
0051379890999991971022300004+38450+048883FM-12-002199999V0203601N00411007801CN0002001N9+00721+00611101531ADDAY121061GF199999081051008001999999MD1310081+9999
0057379890999991971022503004+38450+048883FM-12-002199999V0202701N00101220001CN0500001N9+00391+00391101531ADDAY111031GF100991001001999999001001MD1210121+9999MW1011
0051379890999991971022521004+38450+048883FM-12-002199999V0203201N99999220001CN9999999N9+99999+99999101531ADDAY101031GF100991001001999999001001MD1810051+9999
0068379890999991971022700004+38450+048883FM-12-002199999V0202701N00101007801CN0070001N9+00781+00721100751ADDAA199000091AY121061GF108991081061008001999999MD1710331+9999MW1021
0057379890999991971022703004+38450+048883FM-12-002199999V0202701N00101007801CN0080001N9+00721+00721100431ADDAY121031GF108991081061008001999999MD1710321+9999MW1021
0081379890999991971022800004+38450+048883FM-12-002199999V0202301N00101220001CN0500001N9+00721+00611100491ADDAA199000091AY121061GF100991001001999999001001MD1210181+9999EQDQ01    993SCOTCV
0057379890999991971030203004+38450+048883FM-12-002199999V0202701N00101220001CN0500001N9+00501+00391102231ADDAY111031GF100991001001999999001001MD1310021+9999MW1011
0068379890999991971030300004+38450+048883FM-12-002199999V0209991C00001007801CN0080001N9+99999+99999102211ADDAA199000091AY121061GF108991081061008001999999MD1310031+9999MW1021
0092379890999991971030518004+38450+048883FM-12-002199999V0201101N99999004501CN0047001N9+99999+99999103271ADDAA106012091AA299003091AY161061GF108991071071004501021999KA1999M+01001MD1210121+9999MW1611
0079379890999991971030521004+38450+048883FM-12-002199999V0201801N99999007801CN0210001N9+99999+99999103081ADDAA106028091AA299007091AY161031GF108991081051008001999999MD1710181+9999MW1021
0079379890999991971030600004+38450+048883FM-12-002199999V0201801N00101007801CN0210001N9+99999+99999103081ADDAA106028091AA299007091AY161061GF108991081051008001999999MD1710181+9999MW1021
0079379890999991971030618004+38450+048883FM-12-002199999V0201401N99999004501CN0080001N9+99999+99999103081ADDAA106075091AA224999999AY161061GF108991071071004501011999MD1210041+9999MW1021
0098379890999991971031103004+38450+048883FM-12-002199999V0209991C00001220001CN0500001N9+00501+00391103081ADDAA106999999AA299400091AY101031GF100991001001999999001001MD1710261+9999MW1021EQDQ01  99982PRCP06
0057379890999991971031203004+38450+048883FM-12-002199999V0203201N00101007801CN0200001N9+00721+00611101251ADDAY121031GF108991081051008001999999MD1210171+9999MW1021
0057379890999991971031421004+38450+048883FM-12-002199999V0203201N99999004501CN0048001N9+99999+99999101591ADDAY161031GF108991071071004501021011MD1810011+9999MW1611
0079379890999991971031500004+38450+048883FM-12-002199999V0201801N00211012301CN0100001N9+99999+99999101521ADDAA106051091AA299013091AY161061GF108991081051012501999999MD1710071+9999MW1021
0057379890999991971031503004+38450+048883FM-12-002199999V0200901N00211007801CN0040001N9+00721+00501101531ADDAY121031GF108991081051008001999999MD1310011+9999MW1021
0057379890999991971031603004+38450+048883FM-12-002199999V0203201N00101007801CN0040001N9+00501+00391101531ADDAY161031GF108991081051008001999999MD1210061+9999MW1021
0054379890999991971031700004+38450+048883FM-12-002199999V0209999900101007801CN0210001N9+99999+99999102351ADDAA199000091AY111061GF108991081051008001999999MW1021
0057379890999991971031703004+38450+048883FM-12-002199999V0202701N00101007801CN0500001N9+00721+00501102341ADDAY121031GF108991081051008001999999MD1710011+9999MW1021
0057379890999991971032103004+38450+048883FM-12-002199999V0201801N00101007801CN0200001N9+00781+00611102121ADDAY121031GF108991081051008001999999MD1810071+9999MW1021
0087379890999991971032118004+38450+048883FM-12-002199999V0201401N99999024001CN0100001N9+99999+99999102251ADDAA199999999AY121061GF199999061001999999041001MD1210111+9999MW1221EQDQ01  00002PRCP99
0099379890999991971032121004+38450+048883FM-12-002199999V0201801N99999007801CN0140001N9+99999+99999102281ADDAJ100009199999999AY121031GF108991081051008001999999HL10009IA1089IA2999+01229MD1210031+9999MW1021
0057379890999991971032303004+38450+048883FM-12-002199999V0202701N00101007801CN0200001N9+00721+00611102461ADDAY121031GF108991081051008001999999MD1710011+9999MW1021
0057379890999991971032800004+38450+048883FM-12-002199999V0203201N00101007801CN0200001N9+99999+99999102461ADDAY121061GF108991081051008001999999MD1210031+9999MW1021
0057379890999991971033003004+38450+048883FM-12-002199999V0209991C00001007801CN0100001N9+01001+00891102461ADDAY121031GF108991081051008001999999MD1310011+9999MW1001
0057379890999991971033021004+38450+048883FM-12-002199999V0201401N999999999999N0100001N9+99999+99999101481ADDAY121031GF199999081091999999999999MD1710091+9999MW1221
0068379890999991971033100004+38450+048883FM-12-002199999V0201401N00311007801CN0140001N9+99999+99999101351ADDAA199000091AY121061GF108991081051008001999999MD1710171+9999MW1021
0057379890999991971033103004+38450+048883FM-12-002199999V0201401N00311004501CN0040001N9+01001+01001101251ADDAY121031GF108991081061004501999999MD1710061+9999MW1021
0057379890999991971040203004+38450+048883FM-12-002199999V0203601N00211004501CN0040001N9+99999+99999102271ADDAY161031GF108991071071004501021999MD1210151+9999MW1601
0070379890999991971040421004+38450+048883FM-12-002199999V0201701N999999999999N0110001N9+99999+99999102211ADDAY161031GF199999001999999999999999MD1810031+9999EQDQ01    063SCOLCG
0068379890999991971040600004+38450+048883FM-12-002199999V0202701N99999007801CN0160001N9+99999+99999101781ADDAA199000091AY121061GF108991081051008001999999MD1710171+9999MW1021
0057379890999991971040603004+38450+048883FM-12-002199999V0202701N00101007801CN0200001N9+99999+99999101731ADDAY121031GF108991081051008001999999MD1710051+9999MW1021
0068379890999991971040912004+38450+048883FM-12-002199999V0200701N99999007801CN9999999N9+99999+99999102881ADDAA199000091AY121061GF108991081051008001999999MD1810121+9999MW1121
0057379890999991971041018004+38450+048883FM-12-002199999V0201801N99999007801CN0150001N9+99999+99999102231ADDAY121061GF108991081051008001999999MD1710071+9999MW1021
0068379890999991971041100004+38450+048883FM-12-002199999V0202301N99999220001CN0200001N9+99999+99999101961ADDAA199000091AY111061GF100991001001999999001001MD1710291+9999MW1011
0057379890999991971041121004+38450+048883FM-12-002199999V0202301N99999024001CN0270001N9+99999+99999101431ADDAY111031GF105991051001999999011001MD1710081+9999MW1031
0076379890999991971041203004+38450+048883FM-12-002199999V0209991C00001007801CN0200001N9+99999+99999100082ADDAY121031GF108991081051008001999999MD1710011+9999MW1021EQDQ01+100083APOSLP
0057379890999991971041503004+38450+048883FM-12-002199999V0201401N00101024001CN0500001N9+99999+99999100101ADDAY121031GF106991061001999999071001MD1210111+9999MW1021
0057379890999991971041521004+38450+048883FM-12-002199999V0200501N99999007801CN0200001N9+99999+99999100481ADDAY111031GF106991061051008001001001MD1410001+9999MW1031
0054379890999991971041718004+38450+048883FM-12-002199999V0200501N99999007801CN0130001N9+99999+99999101101ADDAA199000091AY111061GF108991999051008001999091MW1031
0068379890999991971041800004+38450+048883FM-12-002199999V0200901N99999220001CN0500001N9+99999+99999101261ADDAA199000091AY111061GF100991001001999999001001MD1810011+9999MW1011
0043379890999991971041903004+38450+048883FM-12-002199999V0202701N001019999999N0100001N9+99999+99999102031ADDAY161031GF108991999001012501001061MW1601
0079379890999991971041918004+38450+048883FM-12-002199999V0202301N99999007801CN0140001N9+99999+99999102161ADDAA106004091AA299001091AY161061GF108991081051008001999999MD1210071+9999MW1021
0057379890999991971042003004+38450+048883FM-12-002199999V0202701N00211000151CN0500001N9+99999+99999102291ADDAY111031GF106991061071000251999999MD1310101+9999MW1031
0068379890999991971042418004+38450+048883FM-12-002199999V0209991C99999007801CN0140001N9+99999+99999101131ADDAA199000091AY121061GF108991081051008001999999MD1210091+9999MW1021
0057379890999991971042421004+38450+048883FM-12-002199999V0209991C99999004501CN0060001N9+99999+99999101301ADDAY161031GF108991071071004501021999MD1210181+9999MW1611
0079379890999991971042500004+38450+048883FM-12-002199999V0201401N99999004501CN0060001N9+99999+99999101261ADDAA106012091AA299003091AY161061GF108991071071004501021999MD1810041+9999MW1611
0057379890999991971042521004+38450+048883FM-12-002199999V0201801N99999220001CN0500001N9+99999+99999104311ADDAY101031GF100991001001999999001001MD1410001+9999MW1011
0057379890999991971042915004+38450+048883FM-12-002199999V0201401N99999007801CN0500001N9+99999+99999101791ADDAY111031GF105991051061008001001001MD1710111+9999MW1031
0057379890999991971043015004+38450+048883FM-12-002199999V0209991C999999999999N0002001N9+99999+99999101661ADDAY141031GF199999091999999999999999MD1410001+9999MW1451
0057379890999991971050121004+38450+048883FM-12-002199999V0202301N99999015001CN0250001N9+01611+99999102281ADDAY121031GF108991081091017501999999MD1210021+9999MW1021
0057379890999991971050221004+38450+048883FM-12-002199999V0201401N99999220001CN0500001N9+01391+99999102091ADDAY101031GF100991001001999999001001MD1810011+9999MW1021
0043379890999991971050300004+38450+048883FM-12-002199999V0202701N001019999999N0500001N9+99999+99999102091ADDAY101061GF199999999021017501001091MW1021
0092379890999991971050400004+38450+048883FM-12-002199999V0209991C00001220001CN0240001N9+01391+01281101371ADDAY101061GA1021+999999019GF199999001001999999001001MD1110702+9999MW1021EQDQ01+000702APC3  
0057379890999991971050403004+38450+048883FM-12-002199999V0201801N99999220001CN0500001N9+99999+99999101371ADDAY101031GF100991001001999999001001MD1410001+9999MW1021
0057379890999991971050418004+38450+048883FM-12-002199999V0201801N99999220001CN0500001N9+99999+99999101401ADDAY101061GF100991001001999999001001MD1310061+9999MW1021
0068379890999991971050500004+38450+048883FM-12-002199999V0203201N00211220001CN0500001N9+01501+01391101511ADDAA199000091AY101061GF100991001001999999001001MD1210051+9999MW1021
0057379890999991971050503004+38450+048883FM-12-002199999V0202701N99999220001CN0500001N9+99999+99999101671ADDAY101031GF100991001001999999001001MD1210161+9999MW1021
0043379890999991971050521004+38450+048883FM-12-002199999V0200801N99999220001CN0500001N9+01721+99999101401ADDAY101031GF100991001001999999001001MW1021
0043379890999991971050715004+38450+048883FM-12-002199999V0200501N99999220001CN0500001N9+99999+99999101401ADDAY101031GF100991001001999999001001MW1021
0057379890999991971050921004+38450+048883FM-12-002199999V0202701N99999004501CN0200001N9+01611+99999101401ADDAY121031GF108991081061004501999999MD1210091+9999MW1021
0043379890999991971051200004+38450+048883FM-12-002199999V0200901N00411007801CN0130001N9+01611+01221101421ADDAY121061GF108991081051008001999999MW1021
0062379890999991971051300004+38450+048883FM-12-002199999V0200501N00101007801CN9999999N9+01501+01221101751ADDAA199000091AY121061GF199999061051008001001001MD1810021+9999
0068379890999991971051400004+38450+048883FM-12-002199999V0202301N00101007801CN0160001N9+99999+99999101741ADDAA199000091AY121061GF106991061051008001999999MD1710071+9999MW1021
0057379890999991971051415004+38450+048883FM-12-002199999V0201401N99999024001CN0500001N9+99999+99999101261ADDAY121031GF106991061001999999041001MD1710111+9999MW1021
0068379890999991971051418004+38450+048883FM-12-002199999V0201401N999999999999N0260001N9+99999+99999101241ADDAA199000091AY121061GF105991999001999999041001MD1710021+9999MW1021
0043379890999991971051500004+38450+048883FM-12-002199999V0202701N001019999999N0500001N9+01221+01001101241ADDAY111061GF199999999041017501011001MW1171
0068379890999991971051700004+38450+048883FM-12-002199999V0203201N00311220001CN0500001N9+01611+01281101411ADDAA199000091AY111061GF100991001001999999001001MD1210061+9999MW1021
0068379890999991971051918004+38450+048883FM-12-002199999V0209991C99999220001CN0500001N9+99999+99999101921ADDAA199000091AY101061GF100991001001999999001001MD1210101+9999MW1021
0057379890999991971051921004+38450+048883FM-12-002199999V0203201N99999220001CN0500001N9+01501+99999101881ADDAY101031GF199999001999999999001999MD1810041+9999MW1021
0068379890999991971052000004+38450+048883FM-12-002199999V0202701N00101220001CN0500001N9+01501+01221101871ADDAA199000091AY101061GF100991001001999999001001MD1710011+9999MW1021
0057379890999991971052200004+38450+048883FM-12-002199999V0202701N00101220001CN0500001N9+01111+01111101871ADDAY101061GF100991001001999999001001MD1710011+9999MW1021
0068379890999991971052400004+38450+048883FM-12-002199999V0202701N00101220001CN0500001N9+01781+01611101871ADDAA199000091AY101061GF100991001001999999001001MD1810041+9999MW1021
0054379890999991971052600004+38450+048883FM-12-002199999V0209991C00001220001CN0270001N9+02001+01001100581ADDAA199000091AY101061GF103991031001000751031001MW1021
0043379890999991971052721004+38450+048883FM-12-002199999V0202701N99999007801CN0140001N9+01891+99999100581ADDAY121031GF108991081051008001999999MW1021
0043379890999991971053100004+38450+048883FM-12-002199999V0202701N002119999999N0500001N9+99999+99999101401ADDAY101061GF199999999031017501011041MW1021
0103379890999991971060100004+38450+048883FM-12-002199999V0202701N00101220001CN0300001N9+01501+01391101031ADDAA199999999AY101061GF100991001001999999001001MD1710171+9999MW1201EQDQ01    993SCOTCVQ02  00002PRCP99
0068379890999991971060300004+38450+048883FM-12-002199999V0202701N00101007801CN0150001N9+01781+01221101411ADDAA199000091AY101061GF108991999051008001011011MD1210011+9999MW1021
0057379890999991971060318004+38450+048883FM-12-002199999V0202301N999999999999N0040001N9+99999+99999101241ADDAY101061GF199999999999000251999999MD1710011+9999MW1011
0073379890999991971060418004+38450+048883FM-12-002199999V0203201N999999999999N0130001N9+99999+99999999999ADDAA199999999AY181061GF108991999091999999011081MW1801EQDQ01  00002PRCP99
0057379890999991971060421004+38450+048883FM-12-002199999V0202701N00211220001CN0500001N9+01721+01501100761ADDAY181031GF100991001001999999001001MD1810181+9999MW1021
0092379890999991971060500004+38450+048883FM-12-002199999V0202701N007219999999N0350001N9+99999+99999098072ADDAY111061GF199999999071017501001011MD1110802+9999MW1881EQDQ01+098073APOSLPQ02+000802APC3  
0057379890999991971060903004+38450+048883FM-12-002199999V0202701N999999999999N0500001N9+99999+99999101951ADDAY121031GF105991999001999999999011MD1410001+9999MW1021
0057379890999991971060921004+38450+048883FM-12-002199999V0202701N00101024001CN0250001N9+02111+01391100701ADDAY121031GF105991051001999999071001MD1410001+9999MW1021
0068379890999991971061418004+38450+048883FM-12-002199999V0202701N99999220001CN0500001N9+99999+99999100751ADDAA199000091AY101061GF100991001001999999001001MD1710031+9999MW1021
0057379890999991971061421004+38450+048883FM-12-002199999V0202701N00211220001CN0500001N9+02221+01391100741ADDAY101031GF100991001001999999001001MD1710011+9999MW1021
0068379890999991971061500004+38450+048883FM-12-002199999V0202701N00101024001CN0260001N9+02221+01281100691ADDAA199000091AY111061GF106991061001999999091001MD1710051+9999MW1031
0068379890999991971061700004+38450+048883FM-12-002199999V0202701N00101220001CN0500001N9+01721+01281101951ADDAA199000091AY101061GF100991001001999999001001MD1810041+9999MW1021
0057379890999991971061821004+38450+048883FM-12-002199999V0203201N00211007801CN0110001N9+01781+01501101601ADDAY181031GF108991081091008001999999MD1210071+9999MW1801
0043379890999991971061921004+38450+048883FM-12-002199999V0201001N00101220001CN0500001N9+01721+01391101041ADDAY101031GF100991001001999999001001MW1021
0057379890999991971062000004+38450+048883FM-12-002199999V0202701N00101220001CN0500001N9+01501+01221100911ADDAY101061GF100991001001999999001001MD1710111+9999MW1021
0070379890999991971062021004+38450+048883FM-12-002199999V0201401N00101220001CN0500001N9+99999+99999999999ADDAY101031GF100991001001999999001001MD1710131+9999EQDQ01    993SCOTCV
0079379890999991971062200004+38450+048883FM-12-002199999V0200901N00411007801CN0100001N9+02001+01611101231ADDAA106075091AA224999999AY121061GF108991081091008001999999MD1210221+9999MW1021
0057379890999991971062221004+38450+048883FM-12-002199999V0202301N00101220001CN0070001N9+02001+01611101421ADDAY111031GF103991031001022501041001MD1410001+9999MW1011
0068379890999991971062300004+38450+048883FM-12-002199999V0202701N00101007801CN0070001N9+01781+01501101391ADDAA199000091AY121061GF106991061051008001001001MD1810011+9999MW1021
0057379890999991971062318004+38450+048883FM-12-002199999V0209991C99999220001CN0500001N9+99999+99999101341ADDAY111061GF100991001001999999001001MD1310111+9999MW1011
0068379890999991971062600004+38450+048883FM-12-002199999V0202701N00511220001CN0500001N9+01781+01001101551ADDAA199000091AY101061GF100991001001999999001001MD1810011+9999MW1021
