0068379850999991971010100004+38733+048833FM-12-001199999V0202501N00511220001CN0040001N9+00781+00001102531ADDAA199000091AY101061GF100991001001999999001001MD1210121+9999MW1021
0057379850999991971010103004+38733+048833FM-12-001199999V0203201N00311220001CN0040001N9+00281+00001102611ADDAY101031GF100991001001999999001001MD1210081+9999MW1021
0123379850999991971010106004+38733+048833FM-12-001199999V0202301N00101220001CN0200001N9+00891+00221102801ADDAA199000091AJ100009199999999AY101061GF100991001001999999001001HL10009IA1089IA2999+00009KA1999N+00281MD1210191+9999MW1021
0057379850999991971010109004+38733+048833FM-12-001199999V0201401N00211220001CN0200001N9+01281+00391102511ADDAY101031GF102991021001022501041001MD1810291+9999MW1031
0068379850999991971010112004+38733+048833FM-12-001199999V0201401N00101220001CN0200001N9+01281+00001102351ADDAA199000091AY101061GF104991041001022501041001MD1710161+9999MW1031
0057379850999991971010115004+38733+048833FM-12-001199999V0209991C00001220001CN0200001N9+01501+00891102261ADDAY101031GF100991001001999999001001MD1710091+9999MW1011
0081379850999991971010118004+38733+048833FM-12-001199999V0209991C00001220001CN0040001N9+00721+00611102271ADDAA199000091AY101061GF100991001001999999001001KA1999M+01501MD1310011+9999MW1031
0057379850999991971010121004+38733+048833FM-12-001199999V0209991C00001220001CN0040001N9+00611+00111102081ADDAY101031GF100991001001999999001001MD1810111+9999MW1011
0068379850999991971010200004+38733+048833FM-12-001199999V0203201N00101220001CN0040001N9+00501+00281102031ADDAA199000091AY101061GF100991001001999999001001MD1710051+9999MW1021
0057379850999991971010203004+38733+048833FM-12-001199999V0203201N00101220001CN0040001N9+00611+00281102031ADDAY101031GF100991001001999999001001MD1410001+9999MW1021
0123379850999991971010206004+38733+048833FM-12-001199999V0200801N00101220001CN0200001N9+00891+00501102211ADDAA199000091AJ100009199999999AY121061GF103991021001022501041011HL10009IA1089IA2999+00119KA1999N+00391MD1310181+9999MW1031
0057379850999991971010209004+38733+048833FM-12-001199999V0203601N00211220001CN0200001N9+01781+01001102351ADDAY101031GF102991021001022501041001MD1210141+9999MW1011
0068379850999991971010212004+38733+048833FM-12-001199999V0202301N00311220001CN0200001N9+01501+00721102621ADDAA199000091AY101061GF100991001001999999001001MD1210271+9999MW1011
0057379850999991971010215004+38733+048833FM-12-001199999V0202301N00311220001CN0040001N9+01221+00891102891ADDAY101031GF102991999001022501041001MD1210271+9999MW1031
0081379850999991971010218004+38733+048833FM-12-001199999V0201801N00101220001CN0040001N9+01001+00501103101ADDAA199000091AY101061GF100991001001999999001001KA1999M+02001MD1210211+9999MW1011
0057379850999991971010221004+38733+048833FM-12-001199999V0201801N00211220001CN0040001N9+00721+00391103131ADDAY101031GF100991001001999999001001MD1210031+9999MW1021
0068379850999991971010300004+38733+048833FM-12-001199999V0202301N00211220001CN0040001N9+00501+00281103071ADDAA199000091AY101061GF100991001001999999001001MD1810061+9999MW1021
0057379850999991971010303004+38733+048833FM-12-001199999V0202701N00211220001CN0040001N9+00611+00391102891ADDAY101031GF100991001001999999001001MD1710181+9999MW1021
0123379850999991971010306004+38733+048833FM-12-001199999V0200201N00311220001CN0200001N9+00721+00391102901ADDAA199000091AJ100009199999999AY101061GF100991001001999999001001HL10009IA1089IA2999+00229KA1999N+00391MD1310011+9999MW1021
0057379850999991971010309004+38733+048833FM-12-001199999V0200201N00311220001CN0200001N9+01221+00611102811ADDAY101031GF102991021001022501041001MD1810091+9999MW1031
0068379850999991971010312004+38733+048833FM-12-001199999V0201401N00311220001CN0200001N9+01391+00611102731ADDAA199000091AY101061GF102991021001022501041001MD1710081+9999MW1021
0081379850999991971010318004+38733+048833FM-12-001199999V0202701N00211220001CN0040001N9+00611+00391102701ADDAA199000091AY101061GF102991021081022501041001KA1999M+01501MD1810091+9999MW1021
0057379850999991971010321004+38733+048833FM-12-001199999V0202301N00211220001CN0040001N9+00391+00281102611ADDAY101031GF102991021001022501041001MD1710091+9999MW1021
0068379850999991971010400004+38733+048833FM-12-001199999V0202301N00211220001CN0040001N9+00391+00281102531ADDAA199000091AY101061GF102991021001022501041001MD1710081+9999MW1021
0057379850999991971010403004+38733+048833FM-12-001199999V0202301N00211220001CN0040001N9+00221+00221102521ADDAY101031GF102991021001022501041001MD1710011+9999MW1021
0123379850999991971010406004+38733+048833FM-12-001199999V0203201N00211021001CN0200001N9+00501+00391102581ADDAA199000091AJ100009199999999AY111061GF105991051001022501041001HL10009IA1139IA2999-00119KA1999N+00221MD1310061+9999MW1031
0057379850999991971010409004+38733+048833FM-12-001199999V0200901N00211220001CN0200001N9+01221+00391102361ADDAY111031GF103991031001022501041001MD1810221+9999MW1011
0068379850999991971010412004+38733+048833FM-12-001199999V0201801N00211220001CN0200001N9+01221+00501102231ADDAA199000091AY111061GF103991031001022501041001MD1710131+9999MW1021
0057379850999991971010415004+38733+048833FM-12-001199999V0201801N00211220001CN0040001N9+00721+00611102271ADDAY111031GF102991021001022501041001MD1310061+9999MW1011
0081379850999991971010418004+38733+048833FM-12-001199999V0202301N00211220001CN0040001N9+00391+00391102341ADDAA199000091AY101061GF102991021001022501041001KA1999M+01281MD1310071+9999MW1021
0057379850999991971010421004+38733+048833FM-12-001199999V0201801N00211220001CN0040001N9+00781+00221102271ADDAY101031GF100991001001999999001001MD1810071+9999MW1021
0068379850999991971010500004+38733+048833FM-12-001199999V0203601N00311220001CN0040001N9+00281+00111102321ADDAA199000091AY101061GF100991001001999999001001MD1310051+9999MW1021
0057379850999991971010503004+38733+048833FM-12-001199999V0202701N00101220001CN0040001N9+00221+00221102321ADDAY101031GF100991001001999999001001MD1410001+9999MW1021
0123379850999991971010506004+38733+048833FM-12-001199999V0203201N00101220001CN0200001N9+00391+00391102551ADDAA199000091AJ100009199999999AY101061GF102991021001022501041001HL10009IA1139IA2999-00229KA1999N+00111MD1310231+9999MW1031
0057379850999991971010509004+38733+048833FM-12-001199999V0200501N00101220001CN0200001N9+01111+00721102521ADDAY101031GF104991041001022501041001MD1810031+9999MW1031
0068379850999991971010512004+38733+048833FM-12-001199999V0200901N00211002401CN0100001N9+00891+00781102611ADDAA199000091AY111061GF108991081071002501999999MD1310091+9999MW1031
0057379850999991971010515004+38733+048833FM-12-001199999V0209991C00001007801CN0040001N9+00891+00781102971ADDAY121031GF108991081051008001999999MD1210361+9999MW1021
0081379850999991971010518004+38733+048833FM-12-001199999V0209991C00001220001CN0040001N9+00781+00721103251ADDAA199000091AY111061GF102991021001022501041001KA1999M+01221MD1210281+9999MW1011
0068379850999991971010600004+38733+048833FM-12-001199999V0203201N00101007801CN0040001N9+00721+00501103211ADDAA199000091AY111061GF108991081051008001999999MD1810091+9999MW1031
0057379850999991971010603004+38733+048833FM-12-001199999V0203201N00211007801CN0040001N9+00781+00721103181ADDAY121031GF108991081051008001999999MD1710031+9999MW1021
0123379850999991971010606004+38733+048833FM-12-001199999V0203601N00211007801CN0100001N9+00781+00721103241ADDAA199000091AJ100009199999999AY121061GF108991081051008001999999HL10009IA1089IA2999+00399KA1999N+00501MD1310061+9999MW1021
0043379850999991971010609004+38733+048833FM-12-001199999V0203601N00211007801CN0100001N9+00891+00721103101ADDAY121031GF108991081051008001999999MW1021
0068379850999991971010612004+38733+048833FM-12-001199999V0200901N00211007801CN0100001N9+00891+00611102831ADDAA199000091AY121061GF108991081061008001999999MD1710271+9999MW1021
0057379850999991971010615004+38733+048833FM-12-001199999V0203201N00101007801CN0040001N9+00781+00611102761ADDAY121031GF108991081051008001999999MD1710071+9999MW1021
0081379850999991971010618004+38733+048833FM-12-001199999V0201401N00101007801CN0040001N9+00891+00501102641ADDAA199000091AY121061GF108991081051008001999999KA1999M+01001MD1710121+9999MW1021
0057379850999991971010621004+38733+048833FM-12-001199999V0202701N00101007801CN0040001N9+00721+00611102491ADDAY121031GF108991081051008001999999MD1710151+9999MW1021
0068379850999991971010700004+38733+048833FM-12-001199999V0202701N00211220001CN0040001N9+00281+00281102371ADDAA199000091AY111061GF100991001001999999001001MD1710121+9999MW1011
0057379850999991971010703004+38733+048833FM-12-001199999V0202701N00311220001CN0040001N9+00281+00111102181ADDAY101031GF100991001001999999001001MD1710191+9999MW1021
0123379850999991971010706004+38733+048833FM-12-001199999V0202301N00211220001CN0200001N9+00721+00391102221ADDAA199000091AJ100009199999999AY101061GF103991031001022501041011HL10009IA1089IA2999+00009KA1999N+00221MD1310041+9999MW1031
0057379850999991971010709004+38733+048833FM-12-001199999V0201801N00101220001CN0200001N9+01281+00721102051ADDAY101031GF103991031001022501041011MD1810171+9999MW1021
0068379850999991971010712004+38733+048833FM-12-001199999V0201801N00101220001CN0200001N9+01221+00781101901ADDAA199000091AY101061GF103991031001022501041011MD1710151+9999MW1021
0057379850999991971010715004+38733+048833FM-12-001199999V0200901N00101220001CN0040001N9+00781+00721102221ADDAY101031GF103991031001022501041011MD1310321+9999MW1021
0100379850999991971010718004+38733+048833FM-12-001199999V0202701N00211007801CN0100001N9+00891+00891102971ADDAA199999999AY161061GF108991051051008001021999KA1999M+01501MD1210141+9999MW1601EQDQ01  00002PRCP99
0057379850999991971010721004+38733+048833FM-12-001199999V0200901N00721007801CN0040001N9+01001+00501103331ADDAY121031GF108991081051008001999999MD1210511+9999MW1021
0087379850999991971010800004+38733+048833FM-12-001199999V0200901N00411004501CN0040001N9+00501+00501103531ADDAA199999999AY121061GF108991999071004501021999MD1210201+9999MW1611EQDQ01  00002PRCP99
0057379850999991971010803004+38733+048833FM-12-001199999V0200701N00621004501CN0040001N9+00721+00391103721ADDAY161031GF108991999071004501021999MD1210191+9999MW1611
0134379850999991971010806004+38733+048833FM-12-001199999V0200901N00721004501CN0040001N9+00611+00391104101ADDAA106016091AA299004091AJ100009199999999AY161061GF108991999071004501021999HL10009IA1109IA2999+00399KA1999N+00501MD1210381+9999MW1611
0057379850999991971010809004+38733+048833FM-12-001199999V0200501N00621004501CN0040001N9+00611+00391104201ADDAY161031GF108991999071004501021999MD1210101+9999MW1211
0079379850999991971010812004+38733+048833FM-12-001199999V0200501N00721004501CN0040001N9+00501+00281104271ADDAA106024091AA299006091AY161061GF108991999071004501021999MD1210071+9999MW1211
0057379850999991971010815004+38733+048833FM-12-001199999V0200501N00621004501CN0040001N9+00501+00111104421ADDAY161031GF108991999071004501021999MD1210151+9999MW1021
0092379850999991971010818004+38733+048833FM-12-001199999V0203201N00621004501CN0040001N9+00281+00221104541ADDAA106012091AA299003091AY161061GF108991999071004501021999KA1999M+00721MD1210121+9999MW1021
0057379850999991971010821004+38733+048833FM-12-001199999V0203201N00411007801CN0040001N9+00281+00111104361ADDAY121031GF108991081051008001999999MD1810181+9999MW1021
0111379850999991971010900004+38733+048833FM-12-001199999V0203401N00211007801CN0040001N9+00281+00111104161ADDAA106004091AA299001091AY121061GF108991081051008001999999KA1999N+99999MD1710201+9999MW1021EQDQ01 +01112ATMN  
0057379850999991971010903004+38733+048833FM-12-001199999V0203401N00311007801CN0040001N9+00221+00111103981ADDAY121031GF108991081051008001999999MD1710181+9999MW1021
0123379850999991971010906004+38733+048833FM-12-001199999V0203201N00311021001CN0200001N9+00391+00221103931ADDAA199000091AJ100009199999999AY121061GF106991061001022501041001HL10009IA1109IA2999+00229KA1999N+00221MD1710051+9999MW1011
0057379850999991971010909004+38733+048833FM-12-001199999V0203601N00311021001CN0040001N9+00611+00221103591ADDAY121031GF108991081001022501041001MD1710341+9999MW1031
0068379850999991971010912004+38733+048833FM-12-001199999V0200501N00101021001CN0200001N9+00611+00221103391ADDAA199000091AY121061GF105991051001022501041001MD1710201+9999MW1011
0057379850999991971010915004+38733+048833FM-12-001199999V0201801N00101220001CN0040001N9+00221+00221103261ADDAY111031GF102991021001022501041001MD1710131+9999MW1011
0081379850999991971010918004+38733+048833FM-12-001199999V0209991C00001220001CN0040001N9+00111+00001103131ADDAA199000091AY101061GF100991001001999999001001KA1999M+00721MD1710131+9999MW1011
0057379850999991971010921004+38733+048833FM-12-001199999V0209991C00001220001CN0040001N9+00001-00111102951ADDAY101031GF100991001001999999001001MD1710181+9999MW1021
0068379850999991971011000004+38733+048833FM-12-001199999V0203201N00101220001CN0040001N9+00001-00111102871ADDAA199000091AY101061GF100991001001999999001001MD1710081+9999MW1021
0057379850999991971011003004+38733+048833FM-12-001199999V0203201N00101220001CN0040001N9-00111-00221102731ADDAY101031GF100991001001999999001001MD1710141+9999MW1021
0123379850999991971011006004+38733+048833FM-12-001199999V0202701N00101012301CN0200001N9+00111-00111102711ADDAA199000091AJ100009199999999AY111061GF107991071051012501001001HL10009IA1139IA2999-00399KA1999N-00221MD1710021+9999MW1031
0057379850999991971011009004+38733+048833FM-12-001199999V0203601N00411007801CN0100001N9+00391+00111102541ADDAY121031GF108991081051008001999999MD1710171+9999MW1031
0068379850999991971011012004+38733+048833FM-12-001199999V0200501N00311220001CN0100001N9+00611+00221102541ADDAA199000091AY111061GF103991031051008001001001MD1410001+9999MW1011
0057379850999991971011015004+38733+048833FM-12-001199999V0202701N00211220001CN0040001N9+00391+00281102841ADDAY101031GF102991021001022501041001MD1310281+9999MW1011
0100379850999991971011018004+38733+048833FM-12-001199999V0202701N00211004501CN0040001N9+00501+00391102931ADDAA199999999AY161061GF108991999071004501021999KA1999M+00721MD1210111+9999MW1611EQDQ01  00002PRCP99
0057379850999991971011021004+38733+048833FM-12-001199999V0202701N00211004501CN0040001N9+00611+00501103081ADDAY161031GF108991999071004501021999MD1210151+9999MW1611
0079379850999991971011100004+38733+048833FM-12-001199999V0202701N00211007801CN0040001N9+00611+00501103121ADDAA106008091AA299002091AY161061GF108991081051008001999999MD1210041+9999MW1021
0057379850999991971011103004+38733+048833FM-12-001199999V0203201N00211007801CN0040001N9+00501+00391103161ADDAY121031GF108991081051008001999999MD1210041+9999MW1021
0134379850999991971011106004+38733+048833FM-12-001199999V0202701N00101007801CN0200001N9+00501+00391103191ADDAA106008091AA299002091AJ100009199999999AY121061GF108991081051008001999999HL10009IA1109IA2999+00289KA1999N+00391MD1210031+9999MW1021
0057379850999991971011109004+38733+048833FM-12-001199999V0203201N00101007801CN0200001N9+00611+00501103051ADDAY121031GF108991081051008001999999MD1810011+9999MW1021
0068379850999991971011112004+38733+048833FM-12-001199999V0203601N00101007801CN0200001N9+00611+00501102831ADDAA199000091AY121061GF108991081051008001999999MD1710221+9999MW1021
0057379850999991971011115004+38733+048833FM-12-001199999V0209991C00001007801CN0040001N9+00501+00501102721ADDAY121031GF108991081051008001999999MD1710111+9999MW1021
0081379850999991971011118004+38733+048833FM-12-001199999V0200201N00101007801CN0040001N9+00501+00501102591ADDAA199000091AY121061GF108991081051008001999999KA1999M+00611MD1710131+9999MW1021
0068379850999991971011200004+38733+048833FM-12-001199999V0200201N00101007801CN0040001N9+00611+00501102241ADDAA199000091AY121061GF108991081051008001999999MD1710141+9999MW1021
0057379850999991971011203004+38733+048833FM-12-001199999V0209991C00001007801CN0040001N9+00391+00391102151ADDAY121031GF108991081051008001999999MD1710091+9999MW1021
0123379850999991971011206004+38733+048833FM-12-001199999V0201601N00101007801CN0100001N9+00611+00501102051ADDAA199000091AJ100009199999999AY121061GF108991081051008001999999HL10009IA1109IA2999+00509KA1999N+00391MD1710101+9999MW1021
0057379850999991971011209004+38733+048833FM-12-001199999V0201101N00101007801CN0100001N9+00781+00281101831ADDAY121031GF108991081051008001999999MD1710221+9999MW1021
0068379850999991971011212004+38733+048833FM-12-001199999V0201601N00101220001CN0100001N9+00891+00391101711ADDAA199000091AY111061GF103991031051008001001001MD1710121+9999MW1011
0057379850999991971011215004+38733+048833FM-12-001199999V0201801N00101220001CN0040001N9+00501+00391101631ADDAY101031GF100991001001999999001001MD1710081+9999MW1011
0081379850999991971011218004+38733+048833FM-12-001199999V0209991C00001220001CN0040001N9+00281+00221101531ADDAA199000091AY101061GF100991001001999999001001KA1999M+00891MD1710101+9999MW1021
0057379850999991971011221004+38733+048833FM-12-001199999V0202701N00101220001CN0040001N9+00221+00221101511ADDAY101031GF100991001001999999001001MD1610021+9999MW1021
0068379850999991971011300004+38733+048833FM-12-001199999V0209991C00001220001CN0040001N9+00111+00111101431ADDAA199000091AY101061GF100991001001999999001001MD1810081+9999MW1021
0057379850999991971011303004+38733+048833FM-12-001199999V0202001N00101220001CN0040001N9+00001+00001101321ADDAY101031GF100991001001999999001001MD1710111+9999MW1021
0123379850999991971011306004+38733+048833FM-12-001199999V0203201N00101220001CN0200001N9+00221+00221101401ADDAA199000091AJ100009199999999AY121061GF100991001001999999001001HL10009IA1139IA2999-00119KA1999N+00001MD1310081+9999MW1021
0057379850999991971011309004+38733+048833FM-12-001199999V0200501N00211220001CN0200001N9+00781+00611101231ADDAY101031GF101991011001022501041001MD1810171+9999MW1031
0068379850999991971011312004+38733+048833FM-12-001199999V0201401N00101220001CN0200001N9+00891+00391101191ADDAA199000091AY101061GF101991011001022501041001MD1710041+9999MW1021
0057379850999991971011315004+38733+048833FM-12-001199999V0203201N00101021001CN0040001N9+00721+00501101281ADDAY111031GF106991061001022501041001MD1310091+9999MW1031
0100379850999991971011318004+38733+048833FM-12-001199999V0203201N00101004501CN0040001N9+00611+00611101231ADDAA199999999AY161061GF108991999071004501021999KA1999M+01001MD1210051+9999MW1611EQDQ01  00002PRCP99
0057379850999991971011321004+38733+048833FM-12-001199999V0203201N00101004501CN0040001N9+00611+00611101441ADDAY161031GF108991999071004501021999MD1210111+9999MW1611
0079379850999991971011400004+38733+048833FM-12-001199999V0200501N00511004501CN0040001N9+00391+00391101491ADDAA106079091AA299020091AY161061GF108991999071004501021999MD1210251+9999MW1651
0057379850999991971011403004+38733+048833FM-12-001199999V0200501N00411004501CN0040001N9+00281+00281102041ADDAY161031GF108991999071004501021999MD1210351+9999MW1631
0153379850999991971011406004+38733+048833FM-12-001199999V0203601N00511002401CN0005001N9+00001+00001102591ADDAA106110091AA299028091AJ100009199999999AY171061GF108991999071002501021999HL10009IA1109IA2999+00229KA1999N+99999MD1210551+9999MW1711EQDQ01 +00222ATMN  
0057379850999991971011415004+38733+048833FM-12-001199999V0203601N01181002401CN0005001N9-00221-00391103581ADDAY171031GF108991999071002501021999MD1210291+9999MW1711
0092379850999991971011418004+38733+048833FM-12-001199999V0203601N00721002401CN0005001N9-00221-00281103741ADDAA106028091AA299007091AY171061GF108991999071002501021999KA1999M+00721MD1210161+9999MW1711
0057379850999991971011421004+38733+048833FM-12-001199999V0203201N00621002401CN0005001N9-00391-00611103591ADDAY171031GF108991999071002501021999MD1210051+9999MW1711
0079379850999991971011500004+38733+048833FM-12-001199999V0203201N00721002401CN0005001N9-00391-00391103611ADDAA106024091AA299006091AY171061GF108991999071002501021999MD1810181+9999MW1711
0057379850999991971011503004+38733+048833FM-12-001199999V0203201N00721002401CN0005001N9-00391-00501103611ADDAY171031GF108991999071002501021999MD1410001+9999MW1711
0117379850999991971011506004+38733+048833FM-12-001199999V0203601N00411004501CN0010001N9-00281-00391103631ADDAA106047091AA299012091AY171061GF108991999071004501021999HL10009IA1209IA2999-00399KA1999N-00391MD1310021+9999MW1731
0057379850999991971011509004+38733+048833FM-12-001199999V0203601N00621002401CN0010001N9-00391-00611103401ADDAY171031GF108991999071002501021999MD1810231+9999MW1731
0079379850999991971011512004+38733+048833FM-12-001199999V0203601N00411002401CN0010001N9-00391-00611103201ADDAA106031091AA299008091AY171061GF108991999071002501021999MD1710201+9999MW1711
0057379850999991971011515004+38733+048833FM-12-001199999V0203601N00411002401CN0040001N9-00391-00611103231ADDAY171031GF108991999071002501021999MD1310031+9999MW1221
0092379850999991971011518004+38733+048833FM-12-001199999V0203601N00621004501CN0040001N9-00391-00611103111ADDAA106012091AA299003091AY171061GF108991999071004501021999KA1999M-00221MD1810121+9999MW1021
0057379850999991971011521004+38733+048833FM-12-001199999V0203601N00311004501CN0040001N9-00391-00501102901ADDAY171031GF108991999071004501021999MD1710211+9999MW1711
0079379850999991971011600004+38733+048833FM-12-001199999V0203601N00511004501CN0040001N9-00391-00501102831ADDAA106004091AA299001091AY171061GF108991999071004501021999MD1710071+9999MW1711
0057379850999991971011603004+38733+048833FM-12-001199999V0203601N00311004501CN0040001N9-00391-00611102661ADDAY171031GF108991999071004501021999MD1710171+9999MW1021
0117379850999991971011606004+38733+048833FM-12-001199999V0203601N00411007801CN0200001N9-00281-00281102731ADDAA106004091AA299001091AY121061GF108991081051008001999999HL10009IA1209IA2999-00399KA1999N-00391MD1310091+9999MW1021
0079379850999991971011612004+38733+048833FM-12-001199999V0203601N00411007801CN0200001N9-00111-00221102581ADDAA106008091AA299002091AY121061GF108991081051008001999999MD1710131+9999MW1021
0043379850999991971011615004+38733+048833FM-12-001199999V0203601N00311012301CN0040001N9-00501-00501102661ADDAY121031GF108991081051012501001001MW1011
0070379850999991971011618004+38733+048833FM-12-001199999V0203201N00311012301CN0040001N9-00721-00781102691ADDAY121061GF105991051051012501001001KA1999M-00111MD1210031+9999MW1021
0057379850999991971011621004+38733+048833FM-12-001199999V0202701N001019999999N0040001N9-00781-00891102681ADDAY121031GF105991999051012501001001MD1810011+9999MW1021
0068379850999991971011700004+38733+048833FM-12-001199999V0202701N00211220001CN0040001N9-00891-00891102701ADDAA199000091AY101061GF103991031001022501041001MD1710021+9999MW1011
0106379850999991971011706004+38733+048833FM-12-001199999V0203201N00101220001CN0200001N9-00501-00611102651ADDAA199000091AY101061GF103991031001999999041001HL10009IA1209IA2999-01729KA1999N-00891MD1310091+9999MW1021
0057379850999991971011709004+38733+048833FM-12-001199999V0203201N00101220001CN0200001N9+00111-00281102431ADDAY101031GF102991021001999999041001MD1810131+9999MW1011
0068379850999991971011712004+38733+048833FM-12-001199999V0203401N00101220001CN0200001N9+00111-00221102371ADDAA199000091AY101061GF100991001001999999001001MD1710011+9999MW1011
0057379850999991971011715004+38733+048833FM-12-001199999V0203401N00211220001CN0040001N9-00391-00501102421ADDAY101031GF100991001001999999001001MD1310061+9999MW1021
0081379850999991971011718004+38733+048833FM-12-001199999V0203601N00211220001CN0040001N9-00721-00781102471ADDAA199000091AY101061GF103991031001999999041001KA1999M+00221MD1210051+9999MW1031
0057379850999991971011721004+38733+048833FM-12-001199999V0203401N00211220001CN0040001N9-00501-00501102461ADDAY101031GF103991031001999999041001MD1810011+9999MW1021
0068379850999991971011800004+38733+048833FM-12-001199999V0203401N00311021001CN0040001N9-00501-00501102531ADDAA199000091AY111061GF106991061001022501041001MD1310071+9999MW1031
0057379850999991971011803004+38733+048833FM-12-001199999V0202701N001019999999N0005001N9-01111-01111102561ADDAY141031GF199999091999999999999999MD1210031+9999MW1421
0125379850999991971011806004+38733+048833FM-12-001199999V0209991C00001220001CN0200001N9-00611-00721102701ADDAA199000091AY141061GF100991001001999999001001HL10009IA1209IA2999-01729KA1999N-01221MD1210141+9999MW1281EQDQ01    993SCOTCV
0068379850999991971011812004+38733+048833FM-12-001199999V0203601N00101220001CN0200001N9+00001-00281102561ADDAA199000091AY101061GF100991001001999999001001MD1710031+9999MW1021
0057379850999991971011815004+38733+048833FM-12-001199999V0202301N00101220001CN0040001N9-00281-00391102691ADDAY101031GF100991001001999999001001MD1310141+9999MW1021
0081379850999991971011818004+38733+048833FM-12-001199999V0209991C00001220001CN0040001N9-00721-00721102771ADDAA199000091AY101061GF100991001001999999001001KA1999M+00001MD1210081+9999MW1021
0057379850999991971011821004+38733+048833FM-12-001199999V0203201N00101220001CN0040001N9-00781-00891102781ADDAY141031GF100991001001999999001001MD1110011+9999MW1441
0068379850999991971011900004+38733+048833FM-12-001199999V0203201N00101220001CN0040001N9-01111-01111102811ADDAA199000091AY141061GF100991001001999999001001MD1210031+9999MW1421
0057379850999991971011903004+38733+048833FM-12-001199999V0209991C00001220001CN0040001N9-01001-01001102821ADDAY141031GF100991001001999999001001MD1110011+9999MW1021
0106379850999991971011906004+38733+048833FM-12-001199999V0203601N00211220001CN0200001N9-00721-00891102871ADDAA199000091AY101061GF100991001001999999001001HL10009IA1209IA2999-01899KA1999N-01221MD1210051+9999MW1021
0068379850999991971011912004+38733+048833FM-12-001199999V0200501N00101220001CN0200001N9+00221-00221102641ADDAA199000091AY101061GF100991001001999999001001MD1710131+9999MW1021
0057379850999991971011915004+38733+048833FM-12-001199999V0202701N00101000151CN0040001N9+00001-00221102671ADDAY111031GF107991071051000251001999MD1310031+9999MW1031
0081379850999991971011918004+38733+048833FM-12-001199999V0202701N00101220001CN0040001N9-00281-00391102691ADDAA199000091AY111061GF100991001001999999001001KA1999M+00391MD1210031+9999MW1011
0057379850999991971011921004+38733+048833FM-12-001199999V0202701N00101220001CN0040001N9-00281-00391102641ADDAY101031GF100991001001999999001001MD1810051+9999MW1021
0068379850999991971012000004+38733+048833FM-12-001199999V0200501N00101220001CN0040001N9-00721-00781102611ADDAA199000091AY101061GF100991001001999999001001MD1710031+9999MW1021
0057379850999991971012003004+38733+048833FM-12-001199999V0203201N00101220001CN0040001N9-00721-00781102631ADDAY101031GF100991001001999999001001MD1310021+9999MW1021
0106379850999991971012006004+38733+048833FM-12-001199999V0200201N00101220001CN0040001N9-00611-00611102731ADDAA199000091AY101061GF100991001001999999001001HL10009IA1209IA2999-01289KA1999N-00781MD1210101+9999MW1021
0068379850999991971012012004+38733+048833FM-12-001199999V0200201N00101220001CN0040001N9-00221-00221102571ADDAA199000091AY101061GF100991001001999999001001MD1710121+9999MW1021
0057379850999991971012015004+38733+048833FM-12-001199999V0202701N00101220001CN0040001N9+00001-00221102551ADDAY101031GF100991001001999999001001MD1710021+9999MW1021
0081379850999991971012018004+38733+048833FM-12-001199999V0203201N00101220001CN0040001N9-00281-00391102601ADDAA199000091AY101061GF100991001001999999001001KA1999M+00001MD1710051+9999MW1021
0043379850999991971012021004+38733+048833FM-12-001199999V0203201N001019999999N0040001N9-00611-00781102611ADDAY101031GF199999999091999999081031MW1021
0068379850999991971012100004+38733+048833FM-12-001199999V0203201N00101220001CN0040001N9-00721-00781102591ADDAA199000091AY101061GF100991001001999999001001MD1710051+9999MW1021
0057379850999991971012103004+38733+048833FM-12-001199999V0203201N00101220001CN0040001N9-00721-00781102691ADDAY101031GF100991001001999999001001MD1310061+9999MW1021
0106379850999991971012106004+38733+048833FM-12-001199999V0200201N00101220001CN0200001N9-00611-00611102681ADDAA199000091AY101061GF100991001001999999001001HL10009IA1209IA2999-01229KA1999N-01001MD1210061+9999MW1021
0068379850999991971012109004+38733+048833FM-12-001199999V0200201N00211220001CN0200001N9+00281-00111102501ADDAA199000091AY101031GF100991001001999999001001MD1710071+9999MW1021
0081379850999991971012118004+38733+048833FM-12-001199999V0203601N00101220001CN0040001N9-00391-00501102571ADDAA199000091AY101061GF100991001001999999001001KA1999M+00281MD1210051+9999MW1021
0068379850999991971012200004+38733+048833FM-12-001199999V0203401N00101220001CN0040001N9-00721-00781102581ADDAA199000091AY101061GF100991001001999999001001MD1310031+9999MW1021
0057379850999991971012203004+38733+048833FM-12-001199999V0203601N00101220001CN0040001N9-00501-00611102641ADDAY101031GF100991001001999999001001MD1210061+9999MW1021
0106379850999991971012206004+38733+048833FM-12-001199999V0209991C00001220001CN0200001N9-00391-00501102791ADDAA199000091AY101061GF100991001001999999001001HL10009IA1199IA2999-01229KA1999N-00781MD1210151+9999MW1021
0057379850999991971012209004+38733+048833FM-12-001199999V0200201N00101021001CN0200001N9+00221-00111102721ADDAY111031GF105991051001022501041001MD1810081+9999MW1031
0068379850999991971012212004+38733+048833FM-12-001199999V0203601N00211220001CN0200001N9+00391+00111102671ADDAA199000091AY111061GF103991031001022501041001MD1710051+9999MW1011
0081379850999991971012218004+38733+048833FM-12-001199999V0202901N00101220001CN0040001N9-00111-00221102931ADDAA199000091AY111061GF100991001001999999001001KA1999M+00391MD1210141+9999MW1011
0057379850999991971012221004+38733+048833FM-12-001199999V0203201N00101220001CN0040001N9-00281-00391103001ADDAY101031GF100991001001999999001001MD1210101+9999MW1021
0068379850999991971012300004+38733+048833FM-12-001199999V0200901N00211021001CN0040001N9+00001-00111103021ADDAA199000091AY111061GF106991061001022501041001MD1210051+9999MW1031
0057379850999991971012303004+38733+048833FM-12-001199999V0203201N00101007801CN0040001N9-00111-00111103141ADDAY121031GF108991081051008001999999MD1210121+9999MW1031
0106379850999991971012306004+38733+048833FM-12-001199999V0203601N00101007801CN0200001N9+00001-00111103211ADDAA199000091AY111061GF105991051051008001001001HL10009IA1199IA2999-00619KA1999N-00391MD1210071+9999MW1011
0068379850999991971012312004+38733+048833FM-12-001199999V0200501N00211220001CN0200001N9+00611+00221103181ADDAA199000091AY111061GF100991001001999999001001MD1710021+9999MW1011
0057379850999991971012315004+38733+048833FM-12-001199999V0202301N00211220001CN0040001N9+00221+00111103261ADDAY101031GF100991001001999999001001MD1310081+9999MW1021
0051379850999991971012318004+38733+048833FM-12-001199999V0203201N00981220001CN0022001N9+99999+99999103261ADDAY121061GF102991999031001501001001MD1510001+9999
0057379850999991971012321004+38733+048833FM-12-001199999V0203201N00101220001CN0040001N9-00111-00221103381ADDAY101031GF100991001001999999001001MD1210071+9999MW1011
0068379850999991971012400004+38733+048833FM-12-001199999V0203601N00101220001CN0040001N9-00221-00281103411ADDAA199000091AY101061GF100991001001999999001001MD1210031+9999MW1021
0043379850999991971012403004+38733+048833FM-12-001199999V0202701N00101220001CN0040001N9-00391-00501103391ADDAY101031GF100991001001999999001001MW1021
0106379850999991971012406004+38733+048833FM-12-001199999V0202301N00101220001CN0200001N9-00111-00221103451ADDAA199000091AY101061GF100991001001999999001001HL10009IA1199IA2999-00899KA1999N-00501MD1310061+9999MW1021
0057379850999991971012409004+38733+048833FM-12-001199999V0201101N00101220001CN0200001N9+00391+00001103421ADDAY101031GF100991001001999999001001MD1810031+9999MW1021
0068379850999991971012412004+38733+048833FM-12-001199999V0201801N00101220001CN0200001N9+00611+00221103251ADDAA199000091AY101061GF100991001001999999001001MD1710171+9999MW1021
0057379850999991971012415004+38733+048833FM-12-001199999V0201801N00101220001CN0040001N9+00391+00281103281ADDAY101031GF100991001001999999001001MD1310031+9999MW1021
0081379850999991971012418004+38733+048833FM-12-001199999V0202301N00101220001CN0040001N9+00001-00111103191ADDAA199000091AY101061GF100991001001999999001001KA1999M+00611MD1810091+9999MW1021
0057379850999991971012421004+38733+048833FM-12-001199999V0203601N00211220001CN0040001N9-00111-00111103151ADDAY101031GF100991001001999999001001MD1710041+9999MW1021
0068379850999991971012500004+38733+048833FM-12-001199999V0203201N00211220001CN0040001N9-00281-00281103071ADDAA199000091AY101061GF100991001001999999001001MD1710081+9999MW1021
0106379850999991971012506004+38733+048833FM-12-001199999V0209991C00001220001CN0200001N9-00111-00221103051ADDAA199000091AY101061GF100991001001999999001001HL10009IA1199IA2999-00899KA1999N-00501MD1310021+9999MW1021
0057379850999991971012509004+38733+048833FM-12-001199999V0203601N00101220001CN0200001N9+00501-00221102891ADDAY101031GF100991001001999999001001MD1810161+9999MW1021
0068379850999991971012512004+38733+048833FM-12-001199999V0200901N00101220001CN0200001N9+00501+00111102751ADDAA199000091AY101061GF100991001001999999001001MD1710141+9999MW1021
0057379850999991971012515004+38733+048833FM-12-001199999V0202701N00101220001CN0040001N9+00221+00111102731ADDAY101031GF100991001001999999001001MD1610021+9999MW1021
0081379850999991971012518004+38733+048833FM-12-001199999V0202701N00101220001CN0040001N9+00001-00111102721ADDAA199000091AY101061GF100991001001999999001001KA1999M+00611MD1610011+9999MW1021
0057379850999991971012521004+38733+048833FM-12-001199999V0203201N00101220001CN0040001N9-00111-00221102721ADDAY101031GF103991031001999999041001MD1310021+9999MW1031
0068379850999991971012600004+38733+048833FM-12-001199999V0203201N00101220001CN0040001N9-00221-00281102781ADDAA199000091AY101061GF103991031001999999041001MD1210051+9999MW1021
0057379850999991971012603004+38733+048833FM-12-001199999V0203601N00101021001CN0040001N9-00111-00221102761ADDAY111031GF106991061001022501041001MD1810021+9999MW1031
0106379850999991971012606004+38733+048833FM-12-001199999V0200501N00101021001CN0200001N9-00221-00221102841ADDAA199000091AY111061GF106991061001022501041001HL10009IA1159IA2999-00399KA1999N-00221MD1310081+9999MW1021
0057379850999991971012609004+38733+048833FM-12-001199999V0200501N00211021001CN0200001N9+00391+00111102781ADDAY121031GF105991051001022501041001MD1810071+9999MW1011
0068379850999991971012612004+38733+048833FM-12-001199999V0200501N00211220001CN0200001N9+00611+00001102681ADDAA199000091AY111061GF102991021001022501041001MD1710101+9999MW1011
0057379850999991971012615004+38733+048833FM-12-001199999V0202301N00101220001CN0040001N9+00221+00221102681ADDAY101031GF102991021001022501041001MD1410001+9999MW1021
0081379850999991971012618004+38733+048833FM-12-001199999V0203601N00101220001CN0040001N9+00111+00001102691ADDAA199000091AY101061GF100991001001999999001001KA1999M+00611MD1310011+9999MW1021
0057379850999991971012621004+38733+048833FM-12-001199999V0209991C00001220001CN0040001N9+00001-00111102681ADDAY101031GF102991021001022501041001MD1410001+9999MW1031
0068379850999991971012700004+38733+048833FM-12-001199999V0203201N00101220001CN0040001N9-00221-00281102681ADDAA199000091AY101061GF102991021001022501041001MD1410001+9999MW1021
0057379850999991971012703004+38733+048833FM-12-001199999V0203201N00101021001CN0040001N9-00281-00281102651ADDAY111031GF105991051001022501041001MD1810031+9999MW1031
0106379850999991971012706004+38733+048833FM-12-001199999V0203401N00101220001CN0200001N9-00111-00221102661ADDAA199000091AY111061GF102991021001022501031001HL10009IA1159IA2999-00119KA1999N-00281MD1310011+9999MW1011
0057379850999991971012709004+38733+048833FM-12-001199999V0203001N00411220001CN0200001N9+00501-00111102681ADDAY101031GF100991001001999999001001MD1310041+9999MW1011
0068379850999991971012712004+38733+048833FM-12-001199999V0200501N00411220001CN0200001N9+00721+00111102491ADDAA199000091AY101061GF100991001001999999001001MD1710141+9999MW1021
0057379850999991971012715004+38733+048833FM-12-001199999V0202701N00211220001CN0040001N9+00281+00111102471ADDAY101031GF100991001001999999001001MD1710021+9999MW1021
0081379850999991971012718004+38733+048833FM-12-001199999V0203401N00211220001CN0040001N9+00111+00001102531ADDAA199000091AY101061GF100991001001999999001001KA1999M+00721MD1310061+9999MW1021
0057379850999991971012721004+38733+048833FM-12-001199999V0203201N00101220001CN0040001N9+00001-00111102541ADDAY101031GF100991001001999999001001MD1210011+9999MW1021
0068379850999991971012800004+38733+048833FM-12-001199999V0203201N00101220001CN0040001N9-00221-00281102631ADDAA199000091AY101061GF100991001001999999001001MD1510101+9999MW1021
0057379850999991971012803004+38733+048833FM-12-001199999V0202701N00101220001CN0040001N9-00221-00281102551ADDAY101031GF102991021001022501031001MD1810081+9999MW1031
0106379850999991971012806004+38733+048833FM-12-001199999V0209991C00001220001CN0200001N9-00111-00221102611ADDAA199000091AY101061GF102991021001022501031001HL10009IA1189IA2999-00509KA1999N-00281MD1310061+9999MW1021
0057379850999991971012809004+38733+048833FM-12-001199999V0200201N00101220001CN0200001N9+00501+00111102531ADDAY101031GF104991041001022501031011MD1810081+9999MW1031
0068379850999991971012812004+38733+048833FM-12-001199999V0200501N00211220001CN0200001N9+00611+00001102431ADDAA199000091AY101061GF101991011001022501031001MD1710101+9999MW1011
0057379850999991971012815004+38733+048833FM-12-001199999V0202501N00101220001CN0040001N9+00281+00111102441ADDAY101031GF101991011001022501031001MD1210011+9999MW1021
0081379850999991971012818004+38733+048833FM-12-001199999V0202701N00101220001CN0040001N9+00001+00001102421ADDAA199000091AY101061GF101991011001022501031001KA1999M+00611MD1810021+9999MW1021
0068379850999991971012900004+38733+048833FM-12-001199999V0203201N00101021001CN0040001N9+00001-00111102371ADDAA199000091AY111061GF105991051001022501031001MD1710021+9999MW1031
0123379850999991971012906004+38733+048833FM-12-001199999V0209991C00001220001CN0200001N9+00221-00111102421ADDAA199000091AJ100009199999999AY101061GF102991021001999999031001HL10009IA1139IA2999-00619KA1999N-00221MD1310081+9999MW1031
0057379850999991971012909004+38733+048833FM-12-001199999V0200501N00211220001CN0200001N9+00721+00221102381ADDAY101031GF102991021001999999031001MD1810041+9999MW1021
0068379850999991971012912004+38733+048833FM-12-001199999V0200501N00311220001CN0200001N9+00721+00001102301ADDAA199000091AY101061GF100991001001999999001001MD1710081+9999MW1011
0057379850999991971012915004+38733+048833FM-12-001199999V0202501N00211220001CN0040001N9+00391+00111102331ADDAY101031GF103991031001999999041001MD1310031+9999MW1031
0081379850999991971012918004+38733+048833FM-12-001199999V0202701N00101220001CN0040001N9+00001-00111102351ADDAA199000091AY101061GF103991031001999999041001KA1999M+00781MD1210021+9999MW1021
0057379850999991971012921004+38733+048833FM-12-001199999V0209991C00001220001CN0040001N9-00111-00221102401ADDAY101031GF102991021001999999041001MD1210061+9999MW1011
0068379850999991971013000004+38733+048833FM-12-001199999V0202701N00101220001CN0040001N9-00111-00281102461ADDAA199000091AY101061GF100991001001999999001001MD1210061+9999MW1011
0123379850999991971013006004+38733+048833FM-12-001199999V0203201N00101220001CN0200001N9+00001-00111102751ADDAA199000091AJ100009199999999AY101061GF101991011001022501041001HL10009IA1139IA2999-00509KA1999N-00221MD1210181+9999MW1031
0057379850999991971013009004+38733+048833FM-12-001199999V0202601N00511220001CN0200001N9+00721-00111102701ADDAY121031GF101991011001022501041001MD1810021+9999MW1011
0068379850999991971013012004+38733+048833FM-12-001199999V0200501N00511220001CN0200001N9+00891+00001102621ADDAA199000091AY101061GF100991001001999999001001MD1710121+9999MW1011
0057379850999991971013015004+38733+048833FM-12-001199999V0209991C00001220001CN0040001N9+00281+00111102621ADDAY101031GF100991001001999999001001MD1410001+9999MW1021
0081379850999991971013018004+38733+048833FM-12-001199999V0202701N00101220001CN0040001N9+00111-00111102591ADDAA199000091AY101061GF100991001001999999001001KA1999M+00891MD1810031+9999MW1021
0057379850999991971013021004+38733+048833FM-12-001199999V0202501N00101220001CN0040001N9-00111-00221102481ADDAY101031GF100991001001999999001001MD1710111+9999MW1021
0068379850999991971013100004+38733+048833FM-12-001199999V0203201N00101220001CN0040001N9-00281-00281102401ADDAA199000091AY101061GF100991001001999999001001MD1710081+9999MW1021
0057379850999991971013103004+38733+048833FM-12-001199999V0203201N00101220001CN0040001N9-00221-00281102461ADDAY101031GF102991021001022501041001MD1310071+9999MW1031
0123379850999991971013106004+38733+048833FM-12-001199999V0203601N00311007801CN0100001N9+00221+00001102641ADDAA199000091AJ100009199999999AY111061GF107991071051008001001001HL10009IA1139IA2999-00619KA1999N-00281MD1210171+9999MW1031
0057379850999991971013109004+38733+048833FM-12-001199999V0203601N00311007801CN0100001N9+00501+00001102781ADDAY121031GF108991081051008001999999MD1210141+9999MW1031
0068379850999991971013112004+38733+048833FM-12-001199999V0200501N00211007801CN0100001N9+00611+00111102851ADDAA199000091AY121061GF108991081051008001999999MD1210071+9999MW1021
0057379850999991971013115004+38733+048833FM-12-001199999V0203601N00101007801CN0040001N9+00391+00221103021ADDAY121031GF107991071051008001001001MD1210171+9999MW1011
0081379850999991971013118004+38733+048833FM-12-001199999V0203201N00101007801CN0040001N9+00391+00221103121ADDAA199000091AY121061GF108991081051008001999999KA1999M+00721MD1210101+9999MW1031
0068379850999991971020100004+38733+048833FM-12-001199999V0203201N00101220001CN0040001N9+00001+00001103111ADDAA199000091AY111061GF102991021051008001001001MD1410001+9999MW1011
0057379850999991971020103004+38733+048833FM-12-001199999V0203601N00211007801CN0040001N9+00281+00111103121ADDAY111031GF108991081051008001999999MD1310011+9999MW1031
0123379850999991971020106004+38733+048833FM-12-001199999V0203401N00101007801CN0200001N9+00391+00221103181ADDAA199000091AJ100009199999999AY121061GF108991081051008001999999HL10009IA1089IA2999-00289KA1999N+00001MD1210061+9999MW1021
0057379850999991971020109004+38733+048833FM-12-001199999V0200501N00211007801CN0200001N9+00721+00111103121ADDAY121031GF106991061051008001999999MD1810061+9999MW1011
0068379850999991971020112004+38733+048833FM-12-001199999V0200901N00211220001CN0200001N9+00721+00111102911ADDAA199000091AY121061GF104991041051008001031001MD1710211+9999MW1021
0057379850999991971020115004+38733+048833FM-12-001199999V0209991C000019999999N0040001N9+00391+00221103021ADDAY101031GF105991999051008001001001MD1310111+9999MW1001
0081379850999991971020118004+38733+048833FM-12-001199999V0202501N00101220001CN0040001N9+00111-00221102981ADDAA199000091AY111061GF103991031001999999041001KA1999M+00781MD1810051+9999MW1001
0057379850999991971020121004+38733+048833FM-12-001199999V0209991C00001220001CN0040001N9-00111-00111102901ADDAY101031GF100991001001999999001001MD1710071+9999MW1011
0054379850999991971020200004+38733+048833FM-12-001199999V0202501N001019999999N0040001N9+99999+99999102901ADDAA199000091AY131061GF199999999071012501051011MW1001
0057379850999991971020203004+38733+048833FM-12-001199999V0202501N00101220001CN0040001N9-00111-00391102621ADDAY101031GF100991001001999999001001MD1710141+9999MW1021
0117379850999991971020206004+38733+048833FM-12-001199999V0202301N00101220001CN0200001N9+00391-00221102511ADDAA199000091AJ100009199999999AY101061GF100991001001999999001001HL10009IA2999-00619KA1999N-00221MD1710111+9999MW1021
0043379850999991971020209004+38733+048833FM-12-001199999V0201801N00511220001CN0200001N9+00781+00001102261ADDAY101031GF100991001001999999001001MW1021
0057379850999991971020212004+38733+048833FM-12-001199999V0201801N00621220001CN0200001N9+00891+00111101941ADDAY101061GF100991001001999999001001MD1710321+9999MW1021
0057379850999991971020215004+38733+048833FM-12-001199999V0201801N00211220001CN0040001N9+00501+00111101851ADDAY101031GF100991001001999999001001MD1610091+9999MW1031
0081379850999991971020218004+38733+048833FM-12-001199999V0201801N00101220001CN0040001N9+00111-00111101761ADDAA199000091AY101061GF102991021001022501041001KA1999M+00891MD1710091+9999MW1031
0068379850999991971020300004+38733+048833FM-12-001199999V0202301N00101220001CN0040001N9+00001-00111101521ADDAA199000091AY101061GF104991041001022501041001MD1710121+9999MW1031
0057379850999991971020303004+38733+048833FM-12-001199999V0202301N00101007801CN0040001N9+00001+00001101451ADDAY111031GF108991081051008001999999MD1710071+9999MW1031
0123379850999991971020306004+38733+048833FM-12-001199999V0202301N00101012301CN0100001N9+00281+00001101461ADDAA199000091AJ100009199999999AY121061GF108991081051012501999999HL10009IA1139IA2999-00399KA1999N-00221MD1310011+9999MW1021
0057379850999991971020309004+38733+048833FM-12-001199999V0200501N00211220001CN0200001N9+00891+00111101261ADDAY111031GF103991031001022501041001MD1810101+9999MW1011
0068379850999991971020312004+38733+048833FM-12-001199999V0201401N00311220001CN0200001N9+00721+00221101241ADDAA199000091AY111061GF103991031001022501041001MD1710121+9999MW1021
0057379850999991971020315004+38733+048833FM-12-001199999V0202301N00101000151CN0040001N9+00501+00221101231ADDAY111031GF106991061081000251041001MD1710011+9999MW1031
0081379850999991971020318004+38733+048833FM-12-001199999V0202701N00101021001CN0040001N9+00281+00111101331ADDAA199000091AY111061GF107991071001022501041001KA1999M+01001MD1310101+9999MW1031
0057379850999991971020321004+38733+048833FM-12-001199999V0202701N00101021001CN0040001N9+00281+00111101341ADDAY121031GF107991071001022501041001MD1110011+9999MW1021
0074379850999991971020400004+38733+048833FM-12-001199999V0202701N00101220001CN0040001N9+00221+00111101331ADDAA199000091AY111061GF102991021001022501041001IA1199MD1810011+9999MW1011
0057379850999991971020403004+38733+048833FM-12-001199999V0203201N00101220001CN0040001N9+00001+00001101411ADDAY101031GF102991021001022501041001MD1310081+9999MW1021
0123379850999991971020406004+38733+048833FM-12-001199999V0200201N00101021001CN0200001N9+00391+00221101571ADDAA199000091AJ100009199999999AY111061GF105991051001022501041001HL10009IA1089IA2999-00289KA1999N+00001MD1210161+9999MW1031
0057379850999991971020409004+38733+048833FM-12-001199999V0203601N00211021001CN0200001N9+00781+00221101601ADDAY111031GF105991051001022501041001MD1210031+9999MW1021
0068379850999991971020412004+38733+048833FM-12-001199999V0200501N00211021001CN0200001N9+00781+00281101571ADDAA199000091AY111061GF108991081001022501041001MD1810031+9999MW1031
0057379850999991971020415004+38733+048833FM-12-001199999V0203201N00101021001CN0040001N9+00391+00281101521ADDAY111031GF108991081001022501041001MD1710051+9999MW1021
0081379850999991971020418004+38733+048833FM-12-001199999V0202701N00101021001CN0040001N9+00391+00281101831ADDAA199000091AY111061GF108991081001022501041001KA1999M+00891MD1310311+9999MW1021
0068379850999991971020500004+38733+048833FM-12-001199999V0203201N00101021001CN0040001N9+00281+00111101811ADDAA199000091AY111061GF108991081001022501041001MD1310051+9999MW1021
0057379850999991971020503004+38733+048833FM-12-001199999V0203201N00101021001CN0040001N9+00391+00221101831ADDAY111031GF108991081001022501041001MD1210021+9999MW1021
0123379850999991971020506004+38733+048833FM-12-001199999V0203201N00101004501CN0040001N9+00611+00391101971ADDAA199000091AJ100009199999999AY121061GF108991081081004501999999HL10009IA1089IA2999-00119KA1999N+00221MD1210141+9999MW1021
0057379850999991971020509004+38733+048833FM-12-001199999V0203401N00211004501CN0040001N9+00721+00501101881ADDAY121031GF108991081051004501999999MD1810091+9999MW1021
0079379850999991971020512004+38733+048833FM-12-001199999V0203201N00101004501CN0010001N9+00721+00501101751ADDAA106075091AA224999999AY151061GF108991081061004501999999MD1710171+9999MW1511
0057379850999991971020515004+38733+048833FM-12-001199999V0202701N00101004501CN0010001N9+00611+00611101711ADDAY151031GF108991081061004501999999MD1710041+9999MW1511
0092379850999991971020518004+38733+048833FM-12-001199999V0209991C00001004501CN0010001N9+00611+00501101651ADDAA106001091AA299000391AY151061GF108991081061004501999999KA1999M+00721MD1710061+9999MW1021
0057379850999991971020521004+38733+048833FM-12-001199999V0209991C00001004501CN0010001N9+00611+00501101521ADDAY121031GF108991081061004501999999MD1710131+9999MW1021
0068379850999991971020600004+38733+048833FM-12-001199999V0209991C00001007801CN0040001N9+00501+00391101411ADDAA199000091AY121061GF108991081051008001999999MD1710111+9999MW1021
0057379850999991971020603004+38733+048833FM-12-001199999V0203401N00101007801CN0040001N9+00391+00391101341ADDAY121031GF108991081051008001999999MD1710071+9999MW1021
0123379850999991971020606004+38733+048833FM-12-001199999V0203201N00101007801CN0040001N9+00611+00501101371ADDAA199000091AJ100009199999999AY121061GF108991081051008001999999HL10009IA1089IA2999+00229KA1999N+00391MD1310031+9999MW1021
0057379850999991971020609004+38733+048833FM-12-001199999V0201401N00211021001CN0200001N9+01111+00281101141ADDAY121031GF106991061001022501041001MD1810231+9999MW1011
0068379850999991971020612004+38733+048833FM-12-001199999V0201601N00211220001CN0200001N9+01001+00501100941ADDAA199000091AY101061GF102991021001022501041001MD1710201+9999MW1011
0089379850999991971020615004+38733+048833FM-12-001199999V0201801N00211220001CN0040001N9+00721+00501100981ADDAY101031GA1071+999999019GA2091+999999049GF199999001001999999001001MD1310061+9999MW1011
0068379850999991971020618004+38733+048833FM-12-001199999V0203201N00101220001CN0040001N9+00281+00221101181ADDAA199000091AY101061GF104991999001022501041001MD1210201+9999MW1031
0057379850999991971020621004+38733+048833FM-12-001199999V0200501N00511220001CN0040001N9+00611+00391101541ADDAY101031GF104991041001022501041001MD1210361+9999MW1021
0068379850999991971020700004+38733+048833FM-12-001199999V0200901N00721007801CN0040001N9+00501+00391101681ADDAA199000091AY121061GF108991081051008001999999MD1210141+9999MW1031
0057379850999991971020703004+38733+048833FM-12-001199999V0202301N00211007801CN0040001N9+00611+00501101511ADDAY121031GF108991999051008001011011MD1810171+9999MW1021
0123379850999991971020706004+38733+048833FM-12-001199999V0202301N00101012301CN0200001N9+00781+00501101301ADDAA199000091AJ100009199999999AY121061GF107991071051012501001001HL10009IA1089IA2999+00009KA1999N+00221MD1710211+9999MW1011
0057379850999991971020709004+38733+048833FM-12-001199999V0201401N00311012301CN0200001N9+00891+00501100881ADDAY121031GF107991071051012501001001MD1710421+9999MW1021
0068379850999991971020712004+38733+048833FM-12-001199999V0201401N00211012301CN0200001N9+01001+00611100581ADDAA199000091AY121061GF107991071051012501001001MD1710301+9999MW1021
0057379850999991971020715004+38733+048833FM-12-001199999V0201801N001019999999N0040001N9+00721+00611100431ADDAY121031GF105991021051999999999999MD1710151+9999MW1011
0057379850999991971020718004+38733+048833FM-12-001199999V0203601N00101021001CN0040001N9+00501+00501100471ADDAY121061GF105991051001022501041001MD1310041+9999MW1011
0057379850999991971020721004+38733+048833FM-12-001199999V0209991C00001021001CN0040001N9+00391+00221100541ADDAY121031GF105991051001022501041001MD1210071+9999MW1021
0068379850999991971020800004+38733+048833FM-12-001199999V0200501N00621036001CN0040001N9+00501+00221100761ADDAA199000091AY121061GF106991041051012501041001MD1210221+9999MW1031
0057379850999991971020803004+38733+048833FM-12-001199999V0203201N00311004501CN0040001N9+00391+00281101311ADDAY161031GF108991999071004501021999MD1310551+9999MW1611
0153379850999991971020806004+38733+048833FM-12-001199999V0200201N00311002401CN0010001N9+00111+00001101811ADDAA106075091AA224999999AJ100009199999999AY171061GF108991999071002501021999HL10009IA1089IA2999+00009KA1999N+99999MD1210501+9999MW1681EQDQ01 +00222ATMN  
0057379850999991971020809004+38733+048833FM-12-001199999V0203601N00621007801CN0100001N9+00221-00111102001ADDAY171031GF108991081051008001999999MD1210191+9999MW1021
0068379850999991971020812004+38733+048833FM-12-001199999V0203201N00101220001CN0100001N9+00611-00391101951ADDAA199000091AY171061GF103991031051008001001001MD1810051+9999MW1011
0057379850999991971020815004+38733+048833FM-12-001199999V0202301N00101220001CN0040001N9+00221+00001102101ADDAY101031GF101991011001022501041001MD1310151+9999MW1011
0092379850999991971020818004+38733+048833FM-12-001199999V0202301N00211220001CN0040001N9+00001-00111102161ADDAA106020091AA299005091AY101061GF101991011001022501041001KA1999M+00721MD1210061+9999MW1021
0057379850999991971020821004+38733+048833FM-12-001199999V0202301N00311220001CN0040001N9+00001-00111102151ADDAY101031GF103991999001022501001011MD1810011+9999MW1031
0068379850999991971020900004+38733+048833FM-12-001199999V0202301N00211220001CN0040001N9-00221-00281101921ADDAA199000091AY101061GF103991999001022501001011MD1710221+9999MW1021
0043379850999991971020903004+38733+048833FM-12-001199999V0202301N00311220001CN0040001N9-00221-00281101711ADDAY101031GF102991021001022501041001MW1021
0123379850999991971020906004+38733+048833FM-12-001199999V0202001N00311220001CN0200001N9+00501-00221101561ADDAA199000091AJ100009199999999AY101061GF102991021001999999041001HL10009IA1139IA2999-00399KA1999N-00221MD1710161+9999MW1011
0057379850999991971020909004+38733+048833FM-12-001199999V0201801N00721024001CN0200001N9+00891+00221101241ADDAY111031GF105991051001999999041001MD1710321+9999MW1031
0068379850999991971020912004+38733+048833FM-12-001199999V0201801N00411024001CN0200001N9+00781+00221100951ADDAA199000091AY111061GF106991061001999999041001MD1710291+9999MW1031
0057379850999991971020915004+38733+048833FM-12-001199999V0200901N00211220001CN0040001N9+00501+00281100771ADDAY111031GF103991031001999999041001MD1710181+9999MW1011
0081379850999991971020918004+38733+048833FM-12-001199999V0203201N00211220001CN0040001N9-00111-00111100621ADDAA199000091AY111061GF102991021001999999041001KA1999M+00891MD1710151+9999MW1011
0059379850999991971021000004+38733+048833FM-12-001199999V0209991C00001220001CN0040001N9+00001-00111100201ADDAY101061GA1071+999999019GF199999031001999999041001MW1031
0057379850999991971021003004+38733+048833FM-12-001199999V0203401N00101021001CN0040001N9-00111-00221099951ADDAY111031GF106991061001022501041001MD1710251+9999MW1031
0123379850999991971021006004+38733+048833FM-12-001199999V0203601N01591021001CN0200001N9+00281-00221100161ADDAA199000091AJ100009199999999AY121061GF106991061001022501041001HL10009IA1139IA2999-00289KA1999N-00501MD1310211+9999MW1021
0057379850999991971021009004+38733+048833FM-12-001199999V0203601N01591002401CN9999999N9+00001+00001100871ADDAY171031GF108991999071002501021999MD1210711+9999MW1711
0079379850999991971021012004+38733+048833FM-12-001199999V0203601N00821007801CN0100001N9+00281-00281101211ADDAA106012091AA299003091AY171061GF108991081051008001999999MD1210341+9999MW1021
0057379850999991971021015004+38733+048833FM-12-001199999V0209991C00001007801CN0040001N9+00001+00001101501ADDAY121031GF108991081051008001999999MD1210091+9999MW1021
0092379850999991971021018004+38733+048833FM-12-001199999V0200501N00101007801CN0040001N9+00001+00001101851ADDAA106012091AA299003091AY121061GF108991081051008001999999KA1999M+00391MD1210351+9999MW1021
0057379850999991971021021004+38733+048833FM-12-001199999V0200501N00101007801CN0040001N9+00001+00001101891ADDAY111031GF108991081051008001999999MD1210041+9999MW1051
0068379850999991971021100004+38733+048833FM-12-001199999V0200501N00101220001CN0040001N9+00001-00221101741ADDAA199000091AY111061GF103991031001999999041001MD1810151+9999MW1011
0057379850999991971021103004+38733+048833FM-12-001199999V0200501N00101220001CN0040001N9-00221-00501101701ADDAY101031GF103991031001999999041001MD1710151+9999MW1021
0106379850999991971021106004+38733+048833FM-12-001199999V0203201N00101220001CN0200001N9+00111-00111101751ADDAA199000091AY101061GF104991041001022501041001HL10009IA1159IA2999-00399KA1999N-00221MD1310051+9999MW1031
0068379850999991971021109004+38733+048833FM-12-001199999V0201401N00211220001CN0200001N9+00611+00111101441ADDAA199000091AY101031GF104991041001022501041001MD1710111+9999MW1021
0057379850999991971021115004+38733+048833FM-12-001199999V0200501N00101021001CN0040001N9+00391+00281101571ADDAY111031GF106991061001022501041001MD1310131+9999MW1031
0100379850999991971021118004+38733+048833FM-12-001199999V0201201N00101220001CN9999999N9+01111+00001101571ADDAA199000091AY111061GF101991011061017501001011KA1999M+99999MD1810401+9999MW1301EQDQ01 +00722ATMX  
0057379850999991971021121004+38733+048833FM-12-001199999V0209991C00001220001CN0040001N9+00001-00221101681ADDAY111031GF102991021001022501041001MD1110011+9999MW1011
0068379850999991971021200004+38733+048833FM-12-001199999V0202301N00101220001CN0040001N9-00111-00221101681ADDAA199000091AY111061GF101991011001022501041001MD1410001+9999MW1011
0057379850999991971021203004+38733+048833FM-12-001199999V0203201N00311220001CN0040001N9-00221-00281101681ADDAY101031GF100991001001999999001001MD1310011+9999MW1011
0123379850999991971021206004+38733+048833FM-12-001199999V0203601N00101220001CN0200001N9+00221-00391101731ADDAA199000091AJ100009199999999AY101061GF100991001001999999001001HL10009IA1139IA2999-00619KA1999N-00221MD1210041+9999MW1021
0057379850999991971021209004+38733+048833FM-12-001199999V0200501N00211220001CN0200001N9+00611-00721101651ADDAY101031GF101991011001022501041001MD1810081+9999MW1031
0068379850999991971021212004+38733+048833FM-12-001199999V0201401N00411220001CN0200001N9+00721-00721101481ADDAA199000091AY101061GF102991021001022501041001MD1710181+9999MW1031
0057379850999991971021215004+38733+048833FM-12-001199999V0201801N00211021001CN0100001N9+00391+00111101451ADDAY111031GF107991071001022501041011MD1710031+9999MW1031
0081379850999991971021218004+38733+048833FM-12-001199999V0202301N00211021001CN0040001N9+00221-00111101391ADDAA199000091AY121061GF106991061001022501041001KA1999M+00781MD1710061+9999MW1011
0057379850999991971021221004+38733+048833FM-12-001199999V0203401N00101021001CN0040001N9+00221-00111101321ADDAY121031GF107991071001022501041001MD1710071+9999MW1031
0068379850999991971021300004+38733+048833FM-12-001199999V0203601N00311012301CN0040001N9+00111-00111101261ADDAA199000091AY121061GF108991081051012501999999MD1710061+9999MW1031
0057379850999991971021303004+38733+048833FM-12-001199999V0203601N00211007801CN0040001N9+00111-00221101261ADDAY121031GF108991081051008001999999MD1410001+9999MW1021
0142379850999991971021306004+38733+048833FM-12-001199999V0203201N00411004501CN0010001N9+00111+00001101291ADDAA199999999AJ100009199999999AY171061GF108991999071004501021999HL10009IA1089IA2999+00009KA1999N+00001MD1310031+9999MW1711EQDQ01  00002PRCP99
0079379850999991971021312004+38733+048833FM-12-001199999V0203401N00511002401CN0010001N9+00001+00001101081ADDAA106004091AA299001091AY151061GF108991999071002501021999MD1710111+9999MW1681
0057379850999991971021315004+38733+048833FM-12-001199999V0203401N00311004501CN0040001N9+00001+00001101111ADDAY171031GF108991999071004501021999MD1310031+9999MW1221
0092379850999991971021318004+38733+048833FM-12-001199999V0203401N00311007801CN0040001N9+00001+00001101141ADDAA106012091AA299003091AY171061GF108991081051008001999999KA1999M+00221MD1210031+9999MW1021
0057379850999991971021321004+38733+048833FM-12-001199999V0200201N00411007801CN0040001N9+00111-00221101211ADDAY121031GF108991081051008001999999MD1210071+9999MW1021
0079379850999991971021400004+38733+048833FM-12-001199999V0200201N00211012301CN0040001N9+00001-00221101391ADDAA106004091AA299001091AY121061GF108991081051012501999999MD1210181+9999MW1021
0057379850999991971021403004+38733+048833FM-12-001199999V0203601N00411021001CN0040001N9-00221-00501101601ADDAY121031GF108991081001022501071011MD1210221+9999MW1021
0123379850999991971021406004+38733+048833FM-12-001199999V0203601N00311021001CN0200001N9+00001-00721101871ADDAA199000091AJ100009199999999AY121061GF108991081001022501041999HL10009IA1139IA2999-00229KA1999N-00221MD1210261+9999MW1021
0057379850999991971021409004+38733+048833FM-12-001199999V0200501N00411220001CN0200001N9+00281-00501101931ADDAY111031GF102991021001022501041999MD1210061+9999MW1011
0068379850999991971021412004+38733+048833FM-12-001199999V0201001N00411220001CN0200001N9+00281-00501101891ADDAA199000091AY101061GF102991021001022501041999MD1810041+9999MW1021
0057379850999991971021415004+38733+048833FM-12-001199999V0201601N00511220001CN0200001N9+00111-00281101941ADDAY101031GF102991021001022501041999MD1210051+9999MW1021
0081379850999991971021418004+38733+048833FM-12-001199999V0202001N00621220001CN0040001N9+00221-00721101861ADDAA199000091AY101061GF102991021001022501041999KA1999M+00391MD1810081+9999MW1021
0068379850999991971021500004+38733+048833FM-12-001199999V0203601N00411220001CN0040001N9-00391-00611101891ADDAA199000091AY111061GF103991031001022501041999MD1810011+9999MW1031
0057379850999991971021503004+38733+048833FM-12-001199999V0202701N00311220001CN0040001N9-00281-00781101991ADDAY101031GF102991021001022501041999MD1310101+9999MW1011
0123379850999991971021506004+38733+048833FM-12-001199999V0203201N00101220001CN0200001N9+00391-00611102111ADDAA199000091AJ100009199999999AY101061GF100991001001999999001001HL10009IA1139IA2999-00729KA1999N-00391MD1210121+9999MW1011
0068379850999991971021512004+38733+048833FM-12-001199999V0200501N00101220001CN0200001N9+00891-00501102021ADDAA199000091AY101061GF102991021001022501041001MD1710021+9999MW1021
0057379850999991971021515004+38733+048833FM-12-001199999V0201401N00101220001CN0040001N9+00611-00391102081ADDAY101031GF101991011001022501041001MD1310061+9999MW1011
0081379850999991971021518004+38733+048833FM-12-001199999V0200501N00101220001CN0040001N9+00221-00281102241ADDAA199000091AY101061GF100991001001999999001001KA1999M+00891MD1210161+9999MW1011
0043379850999991971021521004+38733+048833FM-12-001199999V0209991C00001220001CN0040001N9-00111-00391102341ADDAY101031GF100991001001999999001001MW1021
0068379850999991971021600004+38733+048833FM-12-001199999V0202301N00101220001CN0040001N9+00001-00391102361ADDAA199000091AY101061GF100991001001999999001001MD1210021+9999MW1021
0123379850999991971021606004+38733+048833FM-12-001199999V0203601N00101220001CN0200001N9+00611-00281102401ADDAA199000091AJ100009199999999AY101061GF103991021001022501041011HL10009IA1139IA2999-00619KA1999N-00221MD1310041+9999MW1031
0057379850999991971021609004+38733+048833FM-12-001199999V0201401N00211220001CN0200001N9+01001-00221102331ADDAY111031GF106991041001022501041011MD1810071+9999MW1031
0068379850999991971021612004+38733+048833FM-12-001199999V0201801N00311021001CN0200001N9+01221+00111102151ADDAA199000091AY121061GF105991051001022501041001MD1710181+9999MW1011
0057379850999991971021615004+38733+048833FM-12-001199999V0201801N00211220001CN0200001N9+00721+00281102151ADDAY111031GF100991001001999999001001MD1410001+9999MW1011
0081379850999991971021618004+38733+048833FM-12-001199999V0202301N00311220001CN0040001N9+00281-00111102161ADDAA199000091AY111061GF100991001001999999001001KA1999M+01221MD1310011+9999MW1021
0068379850999991971021700004+38733+048833FM-12-001199999V0202301N00311220001CN0040001N9+00111-00281102031ADDAA199000091AY101061GF100991001001999999001001MD1710071+9999MW1021
0057379850999991971021703004+38733+048833FM-12-001199999V0201801N00101220001CN0040001N9+00001-00391102031ADDAY101031GF100991001001999999001001MD1410001+9999MW1021
0123379850999991971021706004+38733+048833FM-12-001199999V0203401N00211021001CN0200001N9+00391-00111102081ADDAA199000091AJ100009199999999AY111061GF107991071001022501041001HL10009IA1139IA2999-00619KA1999N-00281MD1310051+9999MW1031
0057379850999991971021709004+38733+048833FM-12-001199999V0200201N00211021001CN0200001N9+00781-00221102001ADDAY121031GF108991081001022501071999MD1810081+9999MW1031
0068379850999991971021712004+38733+048833FM-12-001199999V0200501N00211021001CN0200001N9+01001+00001101921ADDAA199000091AY121061GF107991071001022501041001MD1710081+9999MW1011
0057379850999991971021715004+38733+048833FM-12-001199999V0200201N00211012301CN0040001N9+00611+00501102051ADDAY121031GF108991081051012501999999MD1310131+9999MW1031
0081379850999991971021718004+38733+048833FM-12-001199999V0203401N00211012301CN0040001N9+00611+00501102221ADDAA199000091AY121061GF108991081051012501999999KA1999M+01001MD1210171+9999MW1021
0057379850999991971021721004+38733+048833FM-12-001199999V0203401N00211012301CN0040001N9+00611+00501102361ADDAY121031GF108991071051012501999999MD1210141+9999MW1021
0068379850999991971021800004+38733+048833FM-12-001199999V0203401N00211007801CN0040001N9+00611+00501102381ADDAA199000091AY121061GF108991081051008001999999MD1210021+9999MW1021
0057379850999991971021803004+38733+048833FM-12-001199999V0203401N00211007801CN0040001N9+00611+00501102321ADDAY121031GF108991081051008001999999MD1210011+9999MW1021
0123379850999991971021806004+38733+048833FM-12-001199999V0203201N00211007801CN0040001N9+00611+00501102331ADDAA199000091AJ100009199999999AY121061GF108991081051008001999999HL10009IA1089IA2999+00509KA1999N+00501MD1810061+9999MW1021
0057379850999991971021809004+38733+048833FM-12-001199999V0200501N00311007801CN0040001N9+01001+00611102311ADDAY121031GF106991061051008001001001MD1810121+9999MW1021
0068379850999991971021812004+38733+048833FM-12-001199999V0200901N00211007801CN0100001N9+00891+00611102101ADDAA199000091AY121061GF108991081051008001999999MD1710211+9999MW1031
0057379850999991971021815004+38733+048833FM-12-001199999V0200501N00101007801CN0200001N9+00781+00721102061ADDAY121031GF108991081051008001999999MD1710051+9999MW1021
0081379850999991971021818004+38733+048833FM-12-001199999V0201801N002119999999N0040001N9+00501+00501101961ADDAA199000091AY111061GF108991999051008001001001KA1999M+01001MD1710091+9999MW1101
0087379850999991971021900004+38733+048833FM-12-001199999V0200201N00211007801CN0040001N9+00611+00501101801ADDAA199999999AY131061GF108991081051008001999999MD1710051+9999MW1201EQDQ01  00002PRCP99
0112379850999991971021906004+38733+048833FM-12-001199999V0203201N00101007801CN0040001N9+00721+00391101751ADDAJ100009199999999AY121061GF108991081051008001999999HL10009IA1089IA2999+00009KA1999N+00391MD1310011+9999MW1021
0057379850999991971021909004+38733+048833FM-12-001199999V0203201N00101007801CN0100001N9+00781+00391101661ADDAY121031GF108991081051008001999999MD1810091+9999MW1021
0068379850999991971021912004+38733+048833FM-12-001199999V0200901N00211007801CN0100001N9+00781+00501101441ADDAA199000091AY121061GF108991081051008001999999MD1710221+9999MW1021
0057379850999991971021915004+38733+048833FM-12-001199999V0201401N00101007801CN0040001N9+00781+00721101361ADDAY121031GF108991081051008001999999MD1710081+9999MW1021
0081379850999991971021918004+38733+048833FM-12-001199999V0202301N00211007801CN0040001N9+00891+00611101401ADDAA199000091AY121061GF108991081051008001999999KA1999M+00891MD1310041+9999MW1021
0043379850999991971021921004+38733+048833FM-12-001199999V0209991C00001220001CN0400001N9+99999+99999101401ADDAY121031GF102991011041000251001071MW1301
0068379850999991971022000004+38733+048833FM-12-001199999V0209991C00001036001CN0040001N9+00391+00391101501ADDAA199000091AY121061GF105991021051012501041001MD1210091+9999MW1011
0057379850999991971022003004+38733+048833FM-12-001199999V0202701N00101007801CN0040001N9+00391+00391101551ADDAY121031GF108991081051008001999999MD1210051+9999MW1031
0123379850999991971022006004+38733+048833FM-12-001199999V0202301N00211021001CN0200001N9+00721+00501101611ADDAA199000091AJ100009199999999AY121061GF107991071001022501041001HL10009IA1089IA2999+00119KA1999N+00391MD1210061+9999MW1011
0068379850999991971022012004+38733+048833FM-12-001199999V0201801N00311220001CN0200001N9+01221+00611101601ADDAA199000091AY111061GF102991021001022501041001MD1810011+9999MW1011
0057379850999991971022015004+38733+048833FM-12-001199999V0201601N00101220001CN0200001N9+00781+00721101591ADDAY101031GF100991001001999999001001MD1710011+9999MW1011
0081379850999991971022018004+38733+048833FM-12-001199999V0200201N00981220001CN0210001N9+99999+99999101591ADDAA199000091AY111061GF102991011071000251001061KA1999M+01281MD1510001+9999MW1401
0057379850999991971022021004+38733+048833FM-12-001199999V0200501N00101007801CN0040001N9+00721+00611101751ADDAY121031GF108991081051008001999999MD1210051+9999MW1031
0068379850999991971022100004+38733+048833FM-12-001199999V0203201N00101007801CN0040001N9+00721+00721101691ADDAA199000091AY121061GF108991081051008001999999MD1810061+9999MW1021
0043379850999991971022103004+38733+048833FM-12-001199999V0203601N001019999999N0040001N9+00781+00501101681ADDAY121031GF108991011021002501999071MW1021
0123379850999991971022106004+38733+048833FM-12-001199999V0203601N00211007801CN0040001N9+00781+00611101671ADDAA199000091AJ100009199999999AY121061GF108991081051008001999999HL10009IA1089IA2999+00509KA1999N+00501MD1410001+9999MW1021
0057379850999991971022109004+38733+048833FM-12-001199999V0200901N00211007801CN0100001N9+01001+00721101641ADDAY121031GF108991081051008001999999MD1810031+9999MW1021
0068379850999991971022112004+38733+048833FM-12-001199999V0200901N00211007801CN0100001N9+01001+00721101531ADDAA199000091AY121061GF108991081051008001999999MD1110111+9999MW1021
0057379850999991971022115004+38733+048833FM-12-001199999V0201801N00101007801CN0040001N9+00891+00721101551ADDAY121031GF108991081051008001999999MD1310021+9999MW1021
0081379850999991971022118004+38733+048833FM-12-001199999V0201801N00101007801CN0040001N9+00781+00721101601ADDAA199000091AY121061GF108991081051008001999999KA1999M+01001MD1210051+9999MW1021
0057379850999991971022121004+38733+048833FM-12-001199999V0201801N00101007801CN0040001N9+00781+00721101581ADDAY121031GF108991081051008001999999MD1810021+9999MW1021
0068379850999991971022200004+38733+048833FM-12-001199999V0209991C00001007801CN0040001N9+00781+00611101501ADDAA199000091AY121061GF108991081051008001999999MD1710081+9999MW1021
0057379850999991971022203004+38733+048833FM-12-001199999V0203601N00101007801CN0040001N9+00721+00611101461ADDAY121031GF108991051051008001999999MD1710041+9999MW1021
0123379850999991971022206004+38733+048833FM-12-001199999V0200201N00211007801CN0100001N9+00781+00721101501ADDAA199000091AJ100009199999999AY121061GF108991081051008001999999HL10009IA1089IA2999+00619KA1999N+00721MD1310041+9999MW1021
0057379850999991971022209004+38733+048833FM-12-001199999V0200901N00101007801CN0100001N9+00891+00611101381ADDAY121031GF108991081051008001999999MD1810121+9999MW1021
0068379850999991971022212004+38733+048833FM-12-001199999V0201401N00211007801CN0100001N9+99999+99999101151ADDAA199000091AY121061GF108991081051008001999999MD1710231+9999MW1021
0057379850999991971022215004+38733+048833FM-12-001199999V0201801N00311007801CN0040001N9+00781+00611101061ADDAY121031GF108991081051008001999999MD1710091+9999MW1021
0081379850999991971022218004+38733+048833FM-12-001199999V0201401N00101007801CN0040001N9+00781+00721101051ADDAA199000091AY121061GF108991081051008001999999KA1999M+00891MD1710011+9999MW1021
0057379850999991971022221004+38733+048833FM-12-001199999V0203601N00101007801CN0040001N9+00721+00721100921ADDAY121031GF108991081051008001999999MD1710131+9999MW1021
0068379850999991971022300004+38733+048833FM-12-001199999V0203601N00411007801CN0040001N9+00611+00611100851ADDAA199000091AY121061GF108991081051008001999999MD1710071+9999MW1021
0057379850999991971022303004+38733+048833FM-12-001199999V0203601N00511007801CN0040001N9+00721+00611100931ADDAY121031GF108991081051008001999999MD1310081+9999MW1021
0123379850999991971022306004+38733+048833FM-12-001199999V0203201N00511007801CN0040001N9+00781+00611101221ADDAA199000091AJ100009199999999AY121061GF108991081051008001999999HL10009IA1089IA2999+00509KA1999N+00611MD1210291+9999MW1021
0057379850999991971022309004+38733+048833FM-12-001199999V0203601N00621007801CN0100001N9+00781+00611101331ADDAY121031GF108991081051008001999999MD1210111+9999MW1021
0068379850999991971022312004+38733+048833FM-12-001199999V0201401N00101007801CN0100001N9+00781+00501101381ADDAA199000091AY121061GF108991081051008001999999MD1210051+9999MW1021
0057379850999991971022315004+38733+048833FM-12-001199999V0201801N00101007801CN0100001N9+00721+00611101501ADDAY121031GF108991081051008001999999MD1210121+9999MW1021
0081379850999991971022318004+38733+048833FM-12-001199999V0201801N00101007801CN0040001N9+00721+00611101621ADDAA199000091AY121061GF108991081051008001999999KA1999M+00781MD1210121+9999MW1021
0057379850999991971022321004+38733+048833FM-12-001199999V0209991C99999007801CN0040001N9+00721+00611101741ADDAY121031GF108991081051008001999999MD1210121+9999MW1021
0068379850999991971022400004+38733+048833FM-12-001199999V0201801N00101007801CN0040001N9+00611+00611101741ADDAA199000091AY121061GF108991081051008001999999MD1410001+9999MW1021
0057379850999991971022403004+38733+048833FM-12-001199999V0201801N00101007801CN0040001N9+00721+00721101811ADDAY151031GF108991081051008001999999MD1310071+9999MW1511
0092379850999991971022406004+38733+048833FM-12-001199999V0201401N00211007801CN0040001N9+00721+00611101971ADDAA106075091AA224999999AY151061GF108991081051008001999999KA1999N+00611MD1210161+9999MW1021
0057379850999991971022409004+38733+048833FM-12-001199999V0201401N00511007801CN0040001N9+00781+00611101981ADDAY121031GF108991081051008001999999MD1110011+9999MW1021
0079379850999991971022412004+38733+048833FM-12-001199999V0201801N00411007801CN0040001N9+00781+00501101961ADDAA106083091AA299021091AY121061GF108991081051008001999999MD1810021+9999MW1021
0057379850999991971022415004+38733+048833FM-12-001199999V0201801N00211007801CN0040001N9+00781+00611102091ADDAY121031GF106991061051008001001001MD1210081+9999MW1011
0057379850999991971022421004+38733+048833FM-12-001199999V0201801N00211007801CN0040001N9+00781+00721102091ADDAY121031GF106991061051008001001001MD1410001+9999MW1021
0068379850999991971022500004+38733+048833FM-12-001199999V0201801N00101220001CN0040001N9+00611+00501102071ADDAA199000091AY111061GF102991021051008001001001MD1810021+9999MW1011
0057379850999991971022503004+38733+048833FM-12-001199999V0201801N00101220001CN0040001N9+00221+00221102091ADDAY111031GF102991021051008001001001MD1210021+9999MW1021
0123379850999991971022506004+38733+048833FM-12-001199999V0201801N00311220001CN0200001N9+01001+00611102191ADDAA199000091AJ100009199999999AY101061GF102991021011012501001001HL10009IA1009IA2999-00119KA1999N+00221MD1210101+9999MW1011
0057379850999991971022509004+38733+048833FM-12-001199999V0201801N00721220001CN0200001N9+01221+00611102171ADDAY101031GF103991031011012501001001MD1810021+9999MW1031
0068379850999991971022512004+38733+048833FM-12-001199999V0201601N00621220001CN0200001N9+01221+00611102081ADDAA199000091AY101061GF103991031011012501001001MD1710091+9999MW1021
0057379850999991971022515004+38733+048833FM-12-001199999V0201601N00411220001CN0200001N9+00891+00611102071ADDAY121031GF102991021001999999041001MD1610011+9999MW1021
0081379850999991971022518004+38733+048833FM-12-001199999V0201601N00211220001CN0040001N9+00781+00721102101ADDAA199000091AY101061GF102991021001999999041001KA1999M+01281MD1310031+9999MW1031
0043379850999991971022521004+38733+048833FM-12-001199999V0202001N00101220001CN0040001N9+00501+00001102041ADDAY101031GF100991001001999999001001MW1011
0068379850999991971022600004+38733+048833FM-12-001199999V0202701N00101220001CN0040001N9+00221+00221102031ADDAA199000091AY101061GF100991001001999999001001MD1610011+9999MW1021
0057379850999991971022603004+38733+048833FM-12-001199999V0202301N00101220001CN0040001N9+00111+00111102021ADDAY101031GF102991021001999999041001MD1610011+9999MW1031
0123379850999991971022606004+38733+048833FM-12-001199999V0202301N00101220001CN0200001N9+00781+00611102021ADDAA199000091AJ100009199999999AY101061GF104991041001999999041001HL10009IA1089IA2999-00229KA1999N+00001MD1310041+9999MW1031
0057379850999991971022609004+38733+048833FM-12-001199999V0201601N00511220001CN0200001N9+01221+00611101901ADDAY111031GF102991021001999999041001MD1810161+9999MW1011
0068379850999991971022612004+38733+048833FM-12-001199999V0201601N00721220001CN0200001N9+01111+00721101641ADDAA199000091AY101061GF102991021001999999041001MD1710261+9999MW1021
0057379850999991971022615004+38733+048833FM-12-001199999V0201601N00511007801CN0040001N9+00891+00721101481ADDAY111031GF108991081051008001999999MD1710161+9999MW1031
0081379850999991971022618004+38733+048833FM-12-001199999V0201601N00311007801CN0040001N9+00781+00721101311ADDAA199000091AY121061GF108991081051008001999999KA1999M+01221MD1710171+9999MW1021
0057379850999991971022621004+38733+048833FM-12-001199999V0202001N00311007801CN0040001N9+00781+00721101031ADDAY121031GF108991081999008001999999MD1710281+9999MW1021
0068379850999991971022700004+38733+048833FM-12-001199999V0203201N00311007801CN0040001N9+00721+00611100731ADDAA199000091AY121061GF108991081051008001999999MD1710301+9999MW1021
0057379850999991971022703004+38733+048833FM-12-001199999V0203601N00211007801CN0040001N9+00721+00611100461ADDAY121031GF108991081051008001999999MD1710271+9999MW1021
0123379850999991971022706004+38733+048833FM-12-001199999V0202301N00101007801CN0040001N9+00781+00721100151ADDAA199000091AJ100009199999999AY121061GF108991081051008001999999HL10009IA1009IA2999+00509KA1999N+00721MD1710311+9999MW1021
0057379850999991971022709004+38733+048833FM-12-001199999V0203601N00211007801CN0100001N9+00891+00781099831ADDAY121031GF108991081051008001999999MD1710321+9999MW1021
0068379850999991971022712004+38733+048833FM-12-001199999V0201401N00211220001CN0200001N9+01111+00781099461ADDAA199000091AY111061GF104991041001022501041001MD1710371+9999MW1011
0057379850999991971022715004+38733+048833FM-12-001199999V0203601N00411036001CN0200001N9+01001+00781099811ADDAY111031GF106991031091012501041001MD1310351+9999MW1031
0081379850999991971022718004+38733+048833FM-12-001199999V0203601N00101036001CN0040001N9+00891+00501099961ADDAA199000091AY111061GF105991021091012501041001KA1999M+01111MD1210151+9999MW1011
0057379850999991971022721004+38733+048833FM-12-001199999V0203601N00511220001CN0040001N9+00781+00611100271ADDAY121031GF102991021001022501041001MD1210311+9999MW1011
0068379850999991971022800004+38733+048833FM-12-001199999V0202901N00211220001CN0040001N9+00501+00391100471ADDAA199000091AY111061GF103991031001022501041001MD1210201+9999MW1031
0057379850999991971022803004+38733+048833FM-12-001199999V0202301N00101036001CN0040001N9+00611+00391100701ADDAY111031GF105991031091012501041001MD1210231+9999MW1031
0123379850999991971022806004+38733+048833FM-12-001199999V0201401N00211021001CN0200001N9+00891+00501100991ADDAA199000091AJ100009199999999AY111061GF106991061001022501061001HL10009IA1089IA2999+00229KA1999N+00391MD1210291+9999MW1031
0057379850999991971022809004+38733+048833FM-12-001199999V0200201N00721036001CN0100001N9+01111+00281101191ADDAY121031GF106991041051012501041001MD1210201+9999MW1021
0068379850999991971022812004+38733+048833FM-12-001199999V0200901N00311220001CN0200001N9+01221+00281101211ADDAA199000091AY111061GF102991021001999999041001MD1110021+9999MW1011
0057379850999991971022815004+38733+048833FM-12-001199999V0201801N00511220001CN0200001N9+00891+00391101341ADDAY101031GF100991001001999999001001MD1310131+9999MW1011
0081379850999991971022818004+38733+048833FM-12-001199999V0202001N00311220001CN0040001N9+00501+00221101561ADDAA199000091AY101061GF100991001001999999001001KA1999M+01281MD1210221+9999MW1021
0068379850999991971030100004+38733+048833FM-12-001199999V0202301N00311220001CN0040001N9+00221+00111101771ADDAA199000091AY101061GF100991001001999999001001MD1210061+9999MW1021
0057379850999991971030103004+38733+048833FM-12-001199999V0203401N00211220001CN0040001N9+00001-00111101961ADDAY101031GF100991001001999999001001MD1210191+9999MW1021
0123379850999991971030106004+38733+048833FM-12-001199999V0203601N00101007801CN0100001N9+00611+00281102121ADDAA199000091AJ100009199999999AY111061GF108991081051008001999999HL10009IA1009IA2999-00289KA1999N-00111MD1210161+9999MW1031
0057379850999991971030112004+38733+048833FM-12-001199999V0201101N999999999999N0110001N9+01111+99999102121ADDAY111061GF199999999001012501011011MD1510401+9999MW1101
0057379850999991971030115004+38733+048833FM-12-001199999V0201601N00511007801CN0100001N9+01001+00611102011ADDAY111031GF108991081051008001999999MD1810051+9999MW1031
0081379850999991971030118004+38733+048833FM-12-001199999V0202001N00411007801CN0040001N9+00891+00611102221ADDAA199000091AY121061GF108991081051008001999999KA1999M+01221MD1310211+9999MW1021
0057379850999991971030121004+38733+048833FM-12-001199999V0201601N00411220001CN0040001N9+00781+00501102131ADDAY111031GF103991031001999999041001MD1810091+9999MW1011
0068379850999991971030200004+38733+048833FM-12-001199999V0202301N00311024001CN0040001N9+00611+00501102161ADDAA199000091AY111061GF106991061001999999041001MD1310031+9999MW1031
0057379850999991971030203004+38733+048833FM-12-001199999V0202301N00311024001CN0040001N9+00391+00221102191ADDAY121031GF106991061001999999041001MD1210031+9999MW1021
0123379850999991971030206004+38733+048833FM-12-001199999V0201801N00101220001CN0200001N9+01001+00501102241ADDAA199000091AJ100009199999999AY111061GF103991999001022501001011HL10009IA1089IA2999-00119KA1999N+00391MD1210051+9999MW1011
0057379850999991971030209004+38733+048833FM-12-001199999V0201801N00311021001CN0200001N9+01281+00721102241ADDAY111031GF105991051001022501041001MD1410001+9999MW1031
0068379850999991971030212004+38733+048833FM-12-001199999V0201401N00511220001CN0200001N9+01221+00721102141ADDAA199000091AY111061GF103991031001022501041001MD1810101+9999MW1011
0081379850999991971030218004+38733+048833FM-12-001199999V0201801N00411220001CN0040001N9+00891+00781102131ADDAA199000091AY101061GF103991031001022501041001KA1999M+01391MD1810041+9999MW1031
0057379850999991971030221004+38733+048833FM-12-001199999V0201801N00311007801CN0040001N9+00891+00781102181ADDAY111031GF108991081051008001999999MD1310051+9999MW1031
0068379850999991971030300004+38733+048833FM-12-001199999V0202901N00211007801CN0040001N9+00721+00611102181ADDAA199000091AY111061GF108991081051008001999999MD1410001+9999MW1021
0057379850999991971030303004+38733+048833FM-12-001199999V0203201N00311007801CN0040001N9+00611+00611102301ADDAY121031GF108991081051008001999999MD1310121+9999MW1021
0123379850999991971030306004+38733+048833FM-12-001199999V0203201N004119999999N0005001N9+00721+00721102451ADDAA199000091AJ100009199999999AY141061GF199999091999999999999999HL10009IA1089IA2999+00619KA1999N+00611MD1210151+9999MW1441
0057379850999991971030309004+38733+048833FM-12-001199999V0203601N00101007801CN0040001N9+01001+00721102421ADDAY111031GF108991081051008001999999MD1810031+9999MW1021
0068379850999991971030312004+38733+048833FM-12-001199999V0201401N00511007801CN0040001N9+01001+00721102231ADDAA199000091AY141061GF108991081051008001999999MD1710191+9999MW1021
0081379850999991971030318004+38733+048833FM-12-001199999V0201601N00411007801CN0040001N9+00891+00721101851ADDAA199000091AY121061GF108991081051008001999999KA1999M+01001MD1710191+9999MW1021
0068379850999991971030400004+38733+048833FM-12-001199999V0202001N00311007801CN0040001N9+00781+00721101371ADDAA199000091AY121061GF108991081051008001999999MD1710201+9999MW1021
0057379850999991971030403004+38733+048833FM-12-001199999V0209991C00001007801CN0040001N9+00501+00501101261ADDAY121031GF108991081051008001999999MD1710111+9999MW1021
0081379850999991971030406004+38733+048833FM-12-001199999V0203201N004119999999N0005001N9+00721+00611101361ADDAA199000091AY141061GF199999091999999999999999KA1999N+00391MD1310091+9999MW1441
0057379850999991971030409004+38733+048833FM-12-001199999V0200501N00821220001CN0100001N9+01281+00781101201ADDAY141031GF102991021051008001001001MD1810151+9999MW1011
0068379850999991971030412004+38733+048833FM-12-001199999V0201401N00311220001CN0100001N9+01611+01001101141ADDAA199000091AY111061GF102991021051008001001001MD1710061+9999MW1021
0057379850999991971030415004+38733+048833FM-12-001199999V0201401N00311220001CN0100001N9+01221+00781101231ADDAY101031GF102991021051008001001001MD1310091+9999MW1021
0081379850999991971030418004+38733+048833FM-12-001199999V0201401N00821220001CN0040001N9+01001+00781101651ADDAA199000091AY101061GF102991021051008001001001KA1999M+01721MD1210421+9999MW1021
0068379850999991971030421004+38733+048833FM-12-001199999V0201801N00721220001CN0040001N9+00781+00611102101ADDAA199000091AY101031GF102991021051008001001001MD1210191+9999MW1021
0057379850999991971030503004+38733+048833FM-12-001199999V0201401N00871007801CN0040001N9+00781+00391102361ADDAY111031GF108991081051008001999999MD1210261+9999MW1031
0158379850999991971030506004+38733+048833FM-12-001199999V0201401N007219999999N0040001N9+00721+00391102821ADDAA199999999AJ100009199999999AY161061GF108991999999999999999999HL10009IA1009IA2999+00509KA1999N+99999MD1210461+9999MW1611EQDQ01  00002PRCP99Q02 +00782ATMN  
0057379850999991971030509004+38733+048833FM-12-001199999V0201801N00311004501CN0100001N9+00721+00391102941ADDAY161031GF108991999071004501021999MD1210121+9999MW1021
0079379850999991971030512004+38733+048833FM-12-001199999V0201601N00621004501CN0040001N9+00611+00501102961ADDAA106002091AA299000591AY161061GF108991999071004501021999MD1210021+9999MW1611
0051379850999991971030515004+38733+048833FM-12-001199999V0201601N00411004501CN0040001N9+00501+00391103091ADDAY161031GF108991051071004501021999MD1210151+9999
0092379850999991971030518004+38733+048833FM-12-001199999V0201801N00311004501CN0040001N9+00501+00501103231ADDAA106012091AA299003091AY161061GF108991999071004501021999KA1999M+00781MD1210141+9999MW1611
0057379850999991971030521004+38733+048833FM-12-001199999V0201801N00311004501CN0040001N9+00501+00391103111ADDAY161031GF108991999071004501021999MD1810121+9999MW1021
0079379850999991971030600004+38733+048833FM-12-001199999V0201601N00311007801CN0040001N9+00501+00391103021ADDAA106016091AA299004091AY161061GF107991071051008001001001MD1710091+9999MW1011
0057379850999991971030603004+38733+048833FM-12-001199999V0201801N00311007801CN0100001N9+00501+00391103061ADDAY121031GF108991081051008001999999MD1310041+9999MW1031
0134379850999991971030606004+38733+048833FM-12-001199999V0201801N00211007801CN0200001N9+00781+00391103141ADDAA106004091AA299001091AJ100009199999999AY121061GF106991061051008001041001HL10009IA1089IA2999+00119KA1999N+00391MD1210041+9999MW1011
0057379850999991971030609004+38733+048833FM-12-001199999V0201401N00621007801CN0200001N9+00891+00501103031ADDAY121031GF108991081051008001999999MD1810111+9999MW1031
0068379850999991971030612004+38733+048833FM-12-001199999V0201401N00511007801CN0100001N9+00891+00501103021ADDAA199000091AY121061GF108991081051008001999999MD1710011+9999MW1021
0057379850999991971030615004+38733+048833FM-12-001199999V0201101N00511004501CN0040001N9+00781+00501103021ADDAY121031GF108991999071004501021999MD1410001+9999MW1011
0100379850999991971030618004+38733+048833FM-12-001199999V0202001N00311004501CN0040001N9+00611+00611103051ADDAA199999999AY161061GF108991999071004501021999KA1999M+01111MD1310031+9999MW1611EQDQ01  00002PRCP99
0057379850999991971030621004+38733+048833FM-12-001199999V0202301N00211004501CN0040001N9+00721+00611102971ADDAY161031GF108991999071004501021999MD1810081+9999MW1611
0079379850999991971030700004+38733+048833FM-12-001199999V0203201N00311004501CN0040001N9+00391+00391102941ADDAA106024091AA299006091AY161061GF108991999071004501021999MD1710031+9999MW1611
0092379850999991971030706004+38733+048833FM-12-001199999V0203201N00311007801CN0040001N9+00501+00501102901ADDAA106031091AA299008091AY161061GF108991081051008001999999KA1999N+00391MD1210071+9999MW1021
0079379850999991971030712004+38733+048833FM-12-001199999V0203601N00211007801CN0040001N9+00721+00611102651ADDAA106008091AA299002091AY121061GF108991081051008001999999MD1710141+9999MW1021
0057379850999991971030715004+38733+048833FM-12-001199999V0203201N00211004501CN0040001N9+00611+00501102561ADDAY161031GF108991999071004501021999MD1710091+9999MW1611
0057379850999991971030718004+38733+048833FM-12-001199999V0203201N00211004501CN0040001N9+00611+00611102561ADDAY161061GF108991999071004501021999MD1410001+9999MW1611
0057379850999991971030721004+38733+048833FM-12-001199999V0203201N00211007801CN0040001N9+00501+00501102431ADDAY161031GF108991081051008001999999MD1810131+9999MW1021
0079379850999991971030800004+38733+048833FM-12-001199999V0203601N00101007801CN0040001N9+00501+00501102361ADDAA106008091AA299002091AY161061GF108991081051008001999999MD1710071+9999MW1021
0134379850999991971030806004+38733+048833FM-12-001199999V0203601N00101036001CN0100001N9+00781+00611102321ADDAA106004091AA299001091AJ100009199999999AY121061GF108991041051008001041001HL10009IA1109IA2999+00509KA1999N+00391MD1810051+9999MW1021
0057379850999991971030809004+38733+048833FM-12-001199999V0201601N00311007801CN0100001N9+01001+00721102201ADDAY101031GF106991061051008001001001MD1710121+9999MW1011
0068379850999991971030812004+38733+048833FM-12-001199999V0201601N00411007801CN0100001N9+01111+00721101991ADDAA199000091AY121061GF105991051051008001001001MD1710211+9999MW1011
0057379850999991971030815004+38733+048833FM-12-001199999V0201601N00311220001CN0100001N9+00781+00611101931ADDAY111031GF103991031051999999001001MD1710061+9999MW1011
0081379850999991971030818004+38733+048833FM-12-001199999V0201601N00311220001CN0040001N9+00611+00611101871ADDAA199000091AY111061GF102991021001022501041001KA1999M+01111MD1710061+9999MW1011
0057379850999991971030821004+38733+048833FM-12-001199999V0201801N00211220001CN0040001N9+00391+00281101741ADDAY101031GF102991021001999999041999MD1710131+9999MW1021
0068379850999991971030900004+38733+048833FM-12-001199999V0201801N00101220001CN0040001N9+00221+00221101511ADDAA199000091AY101061GF103991011001999999041011MD1710231+9999MW1031
0123379850999991971030906004+38733+048833FM-12-001199999V0201601N00211012301CN0200001N9+00781+00721101121ADDAA199000091AJ100009199999999AY111061GF107991071051012501001001HL10009IA1089IA2999+00009KA1999N+00221MD1710131+9999MW1031
0057379850999991971030909004+38733+048833FM-12-001199999V0203201N00311007801CN0100001N9+01111+00781100951ADDAY121031GF108991081051008001999999MD1710171+9999MW1031
0068379850999991971030912004+38733+048833FM-12-001199999V0203601N01181007801CN0200001N9+01281+00501101011ADDAA199000091AY121061GF106991061051008001001001MD1310061+9999MW1011
0057379850999991971030915004+38733+048833FM-12-001199999V0203601N00981021001CN0100001N9+01221+00281101321ADDAY121031GF107991071001022501041001MD1210311+9999MW1031
0081379850999991971030918004+38733+048833FM-12-001199999V0201601N003119999999N0040001N9+00781+00611101811ADDAA199000091AY121061GF106991999001022501001041KA1999M+01501MD1210491+9999MW1011
0057379850999991971030921004+38733+048833FM-12-001199999V0201401N00621007801CN0040001N9+00781+00611101931ADDAY121031GF108991081051008001999999MD1210121+9999MW1031
0048379850999991971031000004+38733+048833FM-12-001199999V0209991C99999220001CN0350001N9+99999+99999101931ADDAA199000091AY121061GF101991011081022501001081
0057379850999991971031003004+38733+048833FM-12-001199999V0201801N00211007801CN0100001N9+00781+00391101881ADDAY121031GF108991081051008001999999MD1410001+9999MW1021
0123379850999991971031006004+38733+048833FM-12-001199999V0201401N00211007801CN0200001N9+00891+00611101971ADDAA199000091AJ100009199999999AY121061GF108991081051008001999999HL10009IA1089IA2999+00399KA1999N+00721MD1310101+9999MW1021
0057379850999991971031009004+38733+048833FM-12-001199999V0201101N00411007801CN0200001N9+01001+00611101701ADDAY121031GF108991081091008001999999MD1810271+9999MW1021
0068379850999991971031012004+38733+048833FM-12-001199999V0201601N00411007801CN0200001N9+01001+00721101501ADDAA199000091AY121061GF108991081051008001999999MD1710201+9999MW1021
0057379850999991971031015004+38733+048833FM-12-001199999V0201601N00311007801CN0100001N9+00891+00721101451ADDAY121031GF108991081051008001999999MD1710051+9999MW1021
0081379850999991971031018004+38733+048833FM-12-001199999V0201601N00211007801CN0040001N9+00781+00721101451ADDAA199000091AY121061GF108991081051008001999999KA1999M+01221MD1410001+9999MW1021
0057379850999991971031021004+38733+048833FM-12-001199999V0202001N00211021001CN0040001N9+00611+00501101381ADDAY121031GF106991061001022501041001MD1810071+9999MW1011
0068379850999991971031100004+38733+048833FM-12-001199999V0201801N00101220001CN0040001N9+00391+00391101291ADDAA199000091AY111061GF104991041001022501041001MD1710091+9999MW1011
0057379850999991971031103004+38733+048833FM-12-001199999V0202701N00101220001CN0100001N9+00281+00221101081ADDAY111031GF103991031001022501041001MD1710211+9999MW1011
0123379850999991971031106004+38733+048833FM-12-001199999V0201401N00211021001CN0200001N9+00891+00721100951ADDAA199000091AJ100009199999999AY111061GF106991061001022501041001HL10009IA1089IA2999+00009KA1999N+00221MD1710131+9999MW1031
0057379850999991971031109004+38733+048833FM-12-001199999V0201401N00211036001CN0200001N9+01001+00781100791ADDAY121031GF107991021051012501041001MD1710161+9999MW1031
0068379850999991971031112004+38733+048833FM-12-001199999V0201401N00211220001CN0200001N9+01281+00781100541ADDAA199000091AY111061GF104991021051012501041001MD1710251+9999MW1011
0057379850999991971031115004+38733+048833FM-12-001199999V0201401N00101036001CN0200001N9+01001+00781100581ADDAY111031GF106991031091012501041001MD1310041+9999MW1031
0081379850999991971031118004+38733+048833FM-12-001199999V0200901N00101220001CN0040001N9+00891+00781100541ADDAA199000091AY111061GF102991021001022501041001KA1999M+01501MD1810041+9999MW1001
0057379850999991971031121004+38733+048833FM-12-001199999V0203601N00101012301CN0040001N9+00891+00781100951ADDAY111031GF108991081051012501999999MD1310411+9999MW1031
0068379850999991971031200004+38733+048833FM-12-001199999V0201801N00101012301CN0040001N9+00781+00611101031ADDAA199000091AY111061GF108991081051012501999999MD1210081+9999MW1021
0057379850999991971031203004+38733+048833FM-12-001199999V0201801N00211007801CN0040001N9+00721+00501101221ADDAY121031GF108991081051008001999999MD1210191+9999MW1021
0142379850999991971031206004+38733+048833FM-12-001199999V0201401N00511007801CN0040001N9+00891+00611101311ADDAA199999999AJ100009199999999AY181061GF108991081091008001999999HL10009IA1089IA2999+00509KA1999N+00721MD1210091+9999MW1251EQDQ01  00002PRCP99
0057379850999991971031209004+38733+048833FM-12-001199999V0200901N00721007801CN0040001N9+00781+00611101301ADDAY121031GF108991081051008001999999MD1610011+9999MW1021
0079379850999991971031212004+38733+048833FM-12-001199999V0200901N00511004501CN0040001N9+00781+00611101301ADDAA106008091AA299002091AY121061GF108991999071004501021999MD1410001+9999MW1011
0079379850999991971031215004+38733+048833FM-12-001199999V0200901N00511004501CN0040001N9+00781+00611101301ADDAA106008091AA299002091AY121031GF108991999071004501021999MD1410001+9999MW1011
0092379850999991971031218004+38733+048833FM-12-001199999V0200901N00511007801CN0040001N9+00721+00501101351ADDAA106008091AA299002091AY161061GF108991081051008001999999KA1999M+01111MD1810051+9999MW1021
0057379850999991971031221004+38733+048833FM-12-001199999V0200501N00101004501CN0040001N9+00611+00611101381ADDAY161031GF108991999071004501021999MD1310031+9999MW1611
0079379850999991971031300004+38733+048833FM-12-001199999V0200501N00211004501CN0040001N9+00611+00501101411ADDAA106016091AA299004091AY161061GF108991999071004501021999MD1210031+9999MW1611
0134379850999991971031306004+38733+048833FM-12-001199999V0203401N002119999999N0010001N9+00611+00611101481ADDAA106020091AA299005091AJ100009199999999AY161061GF199999999071002501021999HL10009IA1109IA2999+00619KA1999N+00611MD1310061+9999MW1611
0057379850999991971031309004+38733+048833FM-12-001199999V0202301N00101004501CN0010001N9+00721+00611101441ADDAY161031GF108991081061004501999999MD1810041+9999MW1511
0079379850999991971031312004+38733+048833FM-12-001199999V0201401N00211004501CN0010001N9+00721+00721101321ADDAA106008091AA299002091AY151061GF108991081051004501999999MD1710121+9999MW1511
0057379850999991971031315004+38733+048833FM-12-001199999V0201401N00411002401CN0010001N9+00721+00721101351ADDAY151031GF108991081061002501999999MD1310031+9999MW1511
0092379850999991971031318004+38733+048833FM-12-001199999V0201601N00311002401CN0010001N9+00781+00781101431ADDAA106004091AA299001091AY151061GF108991081061002501999999KA1999M+00781MD1210081+9999MW1511
0057379850999991971031321004+38733+048833FM-12-001199999V0201401N00101001501CN0010001N9+00781+00721101431ADDAY151031GF108991081061001501999999MD1410001+9999MW1511
0079379850999991971031400004+38733+048833FM-12-001199999V0201401N00211001501CN0010001N9+00721+00721101431ADDAA106012091AA299003091AY151061GF108991081061001501999999MD1410001+9999MW1511
0089379850999991971031403004+38733+048833FM-12-001199999V0200501N00101210001CN0010001N9+00721+00721101411ADDAY151031GA1081+210009089GA2081+210009089GF108991081051001501999999MD1810021+9999MW1511
0134379850999991971031406004+38733+048833FM-12-001199999V0201801N00211001501CN0010001N9+00781+00781101491ADDAA106016091AA299004091AJ100009199999999AY151061GF108991081061001501999999HL10009IA1109IA2999+00729KA1999N+00721MD1310081+9999MW1511
0057379850999991971031409004+38733+048833FM-12-001199999V0201801N00311001501CN0010001N9+00781+00721101361ADDAY151031GF108991081061001501999999MD1810131+9999MW1511
0079379850999991971031412004+38733+048833FM-12-001199999V0201601N00311001501CN0010001N9+00781+00721101121ADDAA106016091AA299004091AY151061GF108991081061001501999999MD1710241+9999MW1511
0057379850999991971031415004+38733+048833FM-12-001199999V0200501N00311004501CN0010001N9+00781+00721101191ADDAY161031GF108991999071004501021999MD1310071+9999MW1611
0092379850999991971031418004+38733+048833FM-12-001199999V0200501N00311004501CN0010001N9+00611+00611101411ADDAA106028091AA299007091AY161061GF108991999071004501021999KA1999M+01001MD1210221+9999MW1611
0057379850999991971031421004+38733+048833FM-12-001199999V0203201N00511004501CN0010001N9+00611+00611101531ADDAY161031GF108991999071004501021999MD1210121+9999MW1611
0079379850999991971031500004+38733+048833FM-12-001199999V0201801N00211007801CN0040001N9+00611+00501101361ADDAA106035091AA299009091AY161061GF108991081051008001999999MD1810171+9999MW1021
0057379850999991971031503004+38733+048833FM-12-001199999V0201801N00721007801CN0040001N9+00611+00501101441ADDAY121031GF108991081051008001999999MD1310081+9999MW1021
0134379850999991971031506004+38733+048833FM-12-001199999V0201601N00621004501CN0010001N9+00611+00501101731ADDAA106016091AA299004091AJ100009199999999AY161061GF108991999071004501021999HL10009IA1109IA2999+00509KA1999N+00611MD1210291+9999MW1611
0057379850999991971031509004+38733+048833FM-12-001199999V0201401N00511004501CN0010001N9+00501+00501101881ADDAY161031GF108991999071004501021999MD1210151+9999MW1611
0079379850999991971031512004+38733+048833FM-12-001199999V0201801N00411004501CN0010001N9+00501+00501101931ADDAA106016091AA299004091AY161061GF108991999071004501021999MD1210051+9999MW1611
0057379850999991971031515004+38733+048833FM-12-001199999V0201801N00311002401CN0010001N9+00501+00391102121ADDAY161031GF108991999071002501021999MD1210191+9999MW1611
0092379850999991971031518004+38733+048833FM-12-001199999V0201401N00311002401CN0010001N9+00501+00501102291ADDAA106028091AA299007091AY161061GF108991999071002501021999KA1999M+00781MD1210171+9999MW1611
0057379850999991971031521004+38733+048833FM-12-001199999V0201401N00211004501CN0010001N9+00611+00391102371ADDAY161031GF108991999071004501021999MD1210081+9999MW1611
0079379850999991971031600004+38733+048833FM-12-001199999V0209991C00001004501CN0010001N9+00391+00391102371ADDAA106035091AA299009091AY161061GF108991999071004501021999MD1410001+9999MW1611
0057379850999991971031603004+38733+048833FM-12-001199999V0209991C00001004501CN0010001N9+00501+00391102441ADDAY161031GF108991999071004501021999MD1310071+9999MW1611
0134379850999991971031606004+38733+048833FM-12-001199999V0201401N00211007801CN0100001N9+00721+00721102531ADDAA106024091AA299006091AJ100009199999999AY161061GF108991081051008001999999HL10009IA1109IA2999+00399KA1999N+00391MD1210091+9999MW1021
0057379850999991971031609004+38733+048833FM-12-001199999V0201401N00411007801CN0100001N9+01001+00721102421ADDAY111031GF106991061051008001041001MD1810111+9999MW1011
0043379850999991971031612004+38733+048833FM-12-001199999V0201801N00511007801CN0200001N9+01111+00721102171ADDAY121061GF106991061051008001041001MW1021
0057379850999991971031615004+38733+048833FM-12-001199999V0201401N00411220001CN0200001N9+00781+00501102211ADDAY111031GF104991041001022501041001MD1310041+9999MW1011
0081379850999991971031618004+38733+048833FM-12-001199999V0201801N00211220001CN0040001N9+00611+00501102271ADDAA199000091AY101061GF104991041001022501041001KA1999M+01221MD1210061+9999MW1021
0057379850999991971031621004+38733+048833FM-12-001199999V0202301N00211220001CN0040001N9+00391+00391102291ADDAY101031GF104991041001022501041001MD1210021+9999MW1021
0068379850999991971031700004+38733+048833FM-12-001199999V0202301N00101007801CN0040001N9+00501+00501102271ADDAA199000091AY111061GF106991061051008001041001MD1810021+9999MW1031
0057379850999991971031703004+38733+048833FM-12-001199999V0202301N00101007801CN0200001N9+00281+00221102351ADDAY121031GF106991061051008001041001MD1310081+9999MW1021
0123379850999991971031706004+38733+048833FM-12-001199999V0202301N00101012301CN0100001N9+00611+00501102351ADDAA199000091AJ100009199999999AY121061GF108991081051012501999999HL10009IA1109IA2999+00119KA1999N+00281MD1410001+9999MW1031
0057379850999991971031709004+38733+048833FM-12-001199999V0201401N00311012301CN0100001N9+01111+00721102131ADDAY121031GF108991081051012501999999MD1710221+9999MW1021
