0057380020999991971010106004+44950+051100FM-12+999999999V0201401N00411220001CN0100001N9+99999+99999102651ADDAY121999GF106991001001999999001021MD1110051+9999MW1021
0093380020999991971010700004+44950+051100FM-12+999999999V0209991C99999220001CN0500001N9+99999+99999104441ADDAA199000091AY101999GF100991001001999999001001HL10009IA1319IA2999-03229MD1510131+9999MW1011
0095380020999991971010712004+44950+051100FM-12+999999999V0200501N00511001201CN0020001N9+00001+99999102392ADDAA106001091AA299000391AY151999GA1081+001209079GF108991081061001501999999MD1310031+9999MW1531
0057380020999991971011306004+44950+051100FM-12+999999999V0202701N00721001501CN0040001N9+99999+99999102391ADDAY171999GF108991051021001501001031MD1810121+9999MW1771
0114380020999991971011312004+44950+051100FM-12+999999999V0203201N00821003001CN0100001N9+00001+99999100822ADDAA106075091AA224999999AY171999GA1081+003009049GF108991081021004501999999MD1310121+9999MW1701EQDQ01+100823APOSLP
0057380020999991971011406004+44950+051100FM-12+999999999V0200501N00621220001CN0100001N9+99999+99999102891ADDAY111999GF100991001001999999001001MD1210011+9999MW1021
0094380020999991971011409004+44950+051100FM-12+999999999V0203401N99999220001CN0100001N9+99999+99999103491ADDAA106087091AA299022091AY101999GA1031+006309009GF199999999011001501011061KA1999N+02281MW1021
0043380020999991971011412004+44950+051100FM-12+999999999V0203401N00871220001CN0100001N9-00721+99999103491ADDAY101999GF100991001001999999001001MW1021
0057380020999991971011709004+44950+051100FM-12+999999999V0201801N99999220001CN0100001N9+99999+99999102441ADDAY101999GF101991011001999999041001MD1710071+9999MW1021
0057380020999991971011806004+44950+051100FM-12+999999999V0201601N00621220001CN0100001N9+99999+99999102631ADDAY101999GF102991011001999999041021MD1110081+9999MW1021
0068380020999991971011912004+44950+051100FM-12+999999999V0209991C00001220001CN0100001N9-00111+99999102841ADDAA199000091AY101999GF101991011051008001001001MD1310031+9999MW1021
0068380020999991971012012004+44950+051100FM-12+999999999V0200701N00511220001CN0100001N9-00111+99999102961ADDAA199000091AY101999GF100991001001999999001001MD1810031+9999MW1021
0057380020999991971012306004+44950+051100FM-12+999999999V0200701N00311220001CN0100001N9+99999+99999999999ADDAY101999GF100991001001999999001001MD1210191+9999MW1021
0043380020999991971012321004+44950+051100FM-12+999999999V0201401N99999220001CN0100001N9+99999+99999103561ADDAY101999GF199999001999999999001001MW1021
0057380020999991971012406004+44950+051100FM-12+999999999V0201601N004119999999N0100001N9+99999+99999103541ADDAY111999GF106991031001999999041011MD1110041+9999MW1031
0037380020999991971012706004+44950+051100FM-12+999999999V0201401N00721220001CN0100001N9+99999+99999999999ADDAY111999GF199999001999999999001081
0043380020999991971012912004+44950+051100FM-12+999999999V0200901N00411220001CN0500001N9+00111+99999102891ADDAY101999GF100991001001999999001001MW1021
0123380020999991971020100004+44950+051100FM-12+999999999V0209991C999999999999N0100001N9+99999+99999104081ADDAA106075091AA224999999AY101999GF108991999001999999041001HL10009IA1319IA2999-03619MD1210091+9999MW1021EQDQ01+000012SCOTLC
0057380020999991971020206004+44950+051100FM-12+999999999V0201401N99999220001CN0100001N9+99999+99999102811ADDAY101999GF100991001001999999001001MD1710011+9999MW1021
0057380020999991971020306004+44950+051100FM-12+999999999V0200701N99999220001CN0100001N9+99999+99999102241ADDAY101999GF100991001001999999001001MD1410001+9999MW1021
0079380020999991971020612004+44950+051100FM-12+999999999V0201601N99999024001CN0100001N9+99999+99999100671ADDAA106075091AA224999999AY111999GF107991071001999999081001MD1710161+9999MW1031
0057380020999991971020815004+44950+051100FM-12+999999999V0202901N99999007801CN0100001N9+99999+99999101471ADDAY121999GF108991081031008001999999MD1210141+9999MW1021
0095380020999991971021612004+44950+051100FM-12+999999999V0200701N99999002101CN0040001N9+99999+99999102011ADDAA106004091AA299001091AY171999GA1081+002109079GF108991081061002501999999MD1510001+9999MW1771
0057380020999991971021706004+44950+051100FM-12+999999999V0209991C99999024001CN0100001N9+99999+99999102391ADDAY141999GF106991061001999999091001MD1210121+9999MW1031
0068380020999991971021812004+44950+051100FM-12+999999999V0200701N99999220001CN0100001N9+99999+99999102931ADDAA199000091AY101999GF100991001001999999001001MD1710061+9999MW1021
0073380020999991971021915004+44950+051100FM-12+999999999V0202701N99999220001CN0040001N9+99999+99999101811ADDAY101999GA1031+006009999GF199999041091008001071999MD1710111+9999MW1151
0108380020999991971022015004+44950+051100FM-12+999999999V0201101N99999005401CN0040001N9+99999+99999102161ADDAA106004091AA299001091AY171999GA1081+005409049GF108991081999001501999999KA1999M-00611MD1210011+9999MW1711
0084380020999991971022115004+44950+051100FM-12+999999999V0200101N99999005101CN0100001N9+99999+99999101771ADDAA199000091AY101999GA1081+005109049GF108991081001004501021999MD1110021+9999MW1021
0057380020999991971022306004+44950+051100FM-12+999999999V0209991C999999999999N0100001N9+99999+99999101431ADDAY111999GF107991031001999999041021MD1110071+9999MW1021
0068380020999991971022312004+44950+051100FM-12+999999999V0200201N999999999999N0100001N9+99999+99999101511ADDAA199000091AY121999GF106991021001999999041011MD1610011+9999MW1021
0149380020999991971022609004+44950+051100FM-12+999999999V0200701N99999003901CN0100001N9+99999+99999102231ADDAA106028091AA299007091AY141999GA1081+003909079GA2041+006309009GF108991081061004501999999HL10009IA1089IA2999+01119KA1999N+00611MD1710111+9999MW1021
0043380020999991971022621004+44950+051100FM-12+999999999V0200901N999999999999N9999999N9+99999+99999102231ADDAY171999GF199999999071017501071071MW1101
0073380020999991971022806004+44950+051100FM-12+999999999V0209999999999005701CN0100001N9+99999+99999101171ADDAY121999GA1071+005709059GF107991071051008001001001MD1210181+9999MW1021
0057380020999991971022809004+44950+051100FM-12+999999999V0200901N99999024001CN0100001N9+99999+99999101291ADDAY121999GF107991071001999999091001MD1210121+9999MW1021
0068380020999991971022812004+44950+051100FM-12+999999999V0200901N99999024001CN0100001N9+99999+99999101411ADDAA199000091AY121999GF108991081001999999091999MD1210121+9999MW1021
0068380020999991971030112004+44950+051100FM-12+999999999V0200901N00981220001CN0100001N9+99999+99999102701ADDAA199000091AY111999GF102991001001999999001021MD1010051+9999MW1011
0057380020999991971030415004+44950+051100FM-12+999999999V0202301N99999004501CN0200001N9+99999+99999102701ADDAY131999GF108991081051004501999999MD1710051+9999MW1021
0059380020999991971030518004+44950+051100FM-12+999999999V0200901N99999003001CN0040001N9+99999+99999102701ADDAY171999GA1081+003009049GF108991051051017501999999MW1711
0057380020999991971030906004+44950+051100FM-12+999999999V0201101N008719999999N0100001N9-00281-00611102701ADDAY121999GF108991031001999999021999MD1710241+9999MW1021
0062380020999991971030909004+44950+051100FM-12+999999999V0201401N006219999999N0100001N9+00111-00221101212ADDAY121999GF108991001001999999051021MW1021EQDQ01+101213APOSLP
0084380020999991971031012004+44950+051100FM-12+999999999V0202701N00721001501CN0100001N9-00221-00221101441ADDAA199000091AY121999GA1081+001509079GF108991081061001501999999MD1510041+9999MW1021
0051380020999991971031109004+44950+051100FM-12+999999999V0201101N00511220001CN0070001N9+00111+00001101441ADDAY121999GF199999001001999999001999MD1810131+9999
0043380020999991971031112004+44950+051100FM-12+999999999V0200701N006219999999N0100001N9+00001-00221101441ADDAY121999GF108991001999999999999999MW1021
0084380020999991971031212004+44950+051100FM-12+999999999V0203201N00621002401CN0100001N9+00001-00111101121ADDAA199000091AY121999GA1081+002409079GF108991081061002501999999MD1210101+9999MW1021
0073380020999991971031506004+44950+051100FM-12+999999999V0200501N00411000901CN0100001N9+00001+00001101081ADDAY161999GA1081+000909079GF108991081061001501999999MD1810051+9999MW1021
0057380020999991971031606004+44950+051100FM-12+999999999V0201701N00981220001CN0100001N9-00391-00891101081ADDAY171999GF101991011071004501001001MD1210281+9999MW1021
0073380020999991971031806004+44950+051100FM-12+999999999V0200901N00981008701CN0100001N9+00001-00391102321ADDAY121999GA1081+008709059GF108991081051008001999999MD1710051+9999MW1021
0068380020999991971031812004+44950+051100FM-12+999999999V0201101N009819999999N0100001N9+00281-00221101831ADDAA199000091AY121999GF107991031001999999091021MD1710311+9999MW1021
0057380020999991971031906004+44950+051100FM-12+999999999V0201101N00511220001CN0100001N9+00221-00111101831ADDAY111999GF108991001001999999001091MD1510061+9999MW1021
0073380020999991971032006004+44950+051100FM-12+999999999V0202901N00621000901CN0100001N9-00111-00111101261ADDAY111999GA1081+000909079GF108991081061001501999999MD1210161+9999MW1021
0078380020999991971032018004+44950+051100FM-12+999999999V0202701N99999220001CN0100001N9+99999+99999101261ADDAA106047091AA299012091AY171999GF108991001001999999001071KA1999M+00221MW1021
0057380020999991971032106004+44950+051100FM-12+999999999V0203601N00211000151CN9999999N9+00221+00221101791ADDAY141999GF109991091999000251999999MD1210171+9999MW1511
0073380020999991971032209004+44950+051100FM-12+999999999V0202901N00511004201CN0100001N9+00611+00221101791ADDAY141999GA1071+004209089GF107991071071004501001001MD1810051+9999MW1031
0076380020999991971032212004+44950+051100FM-12+999999999V0202701N01591036001CN0100001N9+00781+99999102221ADDAY141999GF108991021071017501021081MD1010431+9999MW1021EQDQ01+000812APC3  
0068380020999991971032312004+44950+051100FM-12+999999999V0202001N99999036001CN0100001N9+01221+00501102291ADDAA199000091AY121999GF107991011011008001051001MD1710051+9999MW1021
0057380020999991971032318004+44950+051100FM-12+999999999V0201401N99999220001CN0100001N9+99999+99999102301ADDAY111999GF102991001001999999001021MD1310031+9999MW1021
0073380020999991971032409004+44950+051100FM-12+999999999V0201601N01181007801CN0100001N9+01281+00391101991ADDAY121999GA1081+999999999GF108991081051008001999999MD1710061+9999MW1021
0057380020999991971032506004+44950+051100FM-12+999999999V0201401N00821220001CN0100001N9+01111+00501101791ADDAY121999GF108991001001999999001071MD1110091+9999MW1021
0084380020999991971032512004+44950+051100FM-12+999999999V0201401N00411012001CN0100001N9+01611+00391101591ADDAA199000091AY121999GA1081+012009059GF108991081051012501999999MD1710131+9999MW1021
0057380020999991971032618004+44950+051100FM-12+999999999V0201101N99999220001CN0100001N9+99999+99999101561ADDAY121999GF108991001001999999001021MD1210011+9999MW1021
0065380020999991971032712004+44950+051100FM-12+999999999V0201101N00981220001CN0100001N9+99999+99999101221ADDAA106999999AA224999999AY111999GF108991001001999999001999MW1021
0082380020999991971032800004+44950+051100FM-12+999999999V0202701N999999999999N9999999N9+99999+99999101221ADDAY101999GF199999051999999999999999HL10009IA1209IA2999-00119MD1010351+9999MW1151
0057380020999991971032806004+44950+051100FM-12+999999999V0201101N009819999999N0100001N9+99999+99999101131ADDAY121999GF105991021001999999031011MD1710031+9999MW1021
0057380020999991971032809004+44950+051100FM-12+999999999V0209991C00001004501CN0100001N9+99999+99999101301ADDAY171999GF106991061051004501001001MD1710061+9999MW1011
0117380020999991971032906004+44950+051100FM-12+999999999V0201101N00311220001CN0210001N9+99999+99999101301ADDAA106075091AA224999999AY111999GF102991011001022501041011HL10009IA1209IA2999-02119KA1999N-02001MD1210131+9999MW1011
0057380020999991971033009004+44950+051100FM-12+999999999V0203601N00211220001CN0100001N9+01281+00221101811ADDAY121999GF108991001001999999001021MD1210111+9999MW1021
0068380020999991971033012004+44950+051100FM-12+999999999V0203601N00311220001CN0100001N9+01391+00111101651ADDAA199000091AY121999GF106991001001999999001021MD1710161+9999MW1011
0057380020999991971033109004+44950+051100FM-12+999999999V0201601N004119999999N0100001N9+01721+00281101651ADDAY121999GF199999999071017501001021MD1710171+9999MW1021
0084380020999991971040112004+44950+051100FM-12+999999999V0203401N00981006901CN0100001N9+99999+99999101581ADDAA199000091AY121999GA1071+006909089GF107991071071008001001001MD1210101+9999MW1021
0073380020999991971040121004+44950+051100FM-12+999999999V0203601N999999999999N0100001N9+99999+99999102081ADDAY121999GA1081+999999999GF108991081051999999999999MD1310131+9999MW1011
0068380020999991971040200004+44950+051100FM-12+999999999V0209991C99999024001CN0190001N9+99999+99999102461ADDAA199000091AY121999GF106991061001999999031001MD1210021+9999MW1021
0057380020999991971040306004+44950+051100FM-12+999999999V0200201N99999220001CN0100001N9+99999+99999102281ADDAY111999GF108991001001999999001021MD1010051+9999MW1031
0057380020999991971040406004+44950+051100FM-12+999999999V0200901N99999220001CN0100001N9+99999+99999102761ADDAY101999GF100991001001999999001001MD1210141+9999MW1021
0068380020999991971040412004+44950+051100FM-12+999999999V0201101N00721220001CN0100001N9+01281-00781102741ADDAA199000091AY101999GF100991001001999999001001MD1610051+9999MW1021
0057380020999991971040418004+44950+051100FM-12+999999999V0200901N99999220001CN0100001N9+99999+99999102531ADDAY101999GF100991001001999999001001MD1110131+9999MW1021
0068380020999991971040612004+44950+051100FM-12+999999999V0201401N00511220001CN0100001N9+01391-01391101701ADDAA199000091AY101999GF102991001001999999001021MD1710221+9999MW1021
0057380020999991971040706004+44950+051100FM-12+999999999V0209991C99999220001CN0100001N9+99999+99999101081ADDAY101999GF100991001001999999001001MD1810091+9999MW1021
0057380020999991971040709004+44950+051100FM-12+999999999V0203401N99999220001CN0100001N9+99999+99999100951ADDAY101999GF102991021001999999051001MD1710131+9999MW1021
0057380020999991971040806004+44950+051100FM-12+999999999V0200201N99999220001CN0100001N9+99999+99999102381ADDAY111999GF102991021011008001001001MD1210311+9999MW1021
0076380020999991971040821004+44950+051100FM-12+999999999V0209991C999999999999N0100001N9+99999+99999101571ADDAY121999GF108991001001999999001071MD1710782+9999MW1021EQDQ01+000782APC3  
0068380020999991971041012004+44950+051100FM-12+999999999V0201101N01181220001CN0100001N9+01281+99999102931ADDAA199000091AY111999GF106991001001999999001091MD1710181+9999MW1031
0084380020999991971041115004+44950+051100FM-12+999999999V0201101N99999008701CN0100001N9+99999+99999101951ADDAA199000091AY121999GA1061+008709059GF106991061051008001001001MD1610131+9999MW1011
0073380020999991971041118004+44950+051100FM-12+999999999V0200901N99999004801CN0100001N9+99999+99999101851ADDAY121999GA1071+004809099GF107991071031004501001001MD1410001+9999MW1031
0057380020999991971041218004+44950+051100FM-12+999999999V0201101N99999220001CN0100001N9+99999+99999101041ADDAY101999GF102991001001999999001021MD1010031+9999MW1031
0076380020999991971041318004+44950+051100FM-12+999999999V0200501N999999999999N0100001N9+99999+99999100071ADDAY111999GF105991999001999999041001MD1810071+9999MW1021EQDQ01+000022SCOTLC
0079380020999991971041412004+44950+051100FM-12+999999999V0201601N00981090001CN0100001N9+02281+99999099161ADDAA106075091AA224999999AY181999GF105991041021008001001021MD1710161+9999MW1021
0043380020999991971041512004+44950+051100FM-12+999999999V0202701N011819999999N0100001N9+01721+99999099161ADDAY181999GF108991061999999999999011MW1031
0068380020999991971041618004+44950+051100FM-12+999999999V0209991C99999220001CN0100001N9+99999+99999102561ADDAA199000091AY101999GF106991011051004501001011MD1210111+9999MW1021
0110380020999991971041909004+44950+051100FM-12+999999999V0202901N99999220001CN0040001N9+99999+99999100751ADDAY151999GA1999+002109079GA2061+999999049GF108991081061001501999999MW1511EQDQ01+000042APCTENQ02+000212APC3  
0095380020999991971041912004+44950+051100FM-12+999999999V0202901N01081001501CN0000001N9+00501+00391100861ADDAA106004091AA299001091AY151999GA1081+001509079GF108991081061001501999999MD1210111+9999MW1531
0068380020999991971042112004+44950+051100FM-12+999999999V0203401N00721220001CN0100001N9+01221-00221102381ADDAA199000091AY101999GF101991011021012501001001MD1810011+9999MW1021
0084380020999991971042212004+44950+051100FM-12+999999999V0209991C00001010801CN0100001N9+01501+00221102131ADDAA199000091AY121999GA1051+010809089GF105991051011012501001001MD1710161+9999MW1021
0057380020999991971042509004+44950+051100FM-12+999999999V0202901N99999220001CN0100001N9+99999+99999100881ADDAY101999GF102991021021012501001001MD1810011+9999MW1031
0054380020999991971042512004+44950+051100FM-12+999999999V0202901N00871220001CN0100001N9+02111+99999100941ADDAA199000091AY101999GF101991999999001501999999MW1021
0117380020999991971043021004+44950+051100FM-12+999999999V0200901N99999220001CN0500001N9+99999+99999102141ADDAY121999GA1041+006009009GF107991001001999999001021HL10009IA1009IA2999-01009MD1810051+9999MW1021EQDQ01+000992SCOLCB
0057380020999991971050118004+44950+051100FM-12+999999999V0209991C99999220001CN0100001N9+99999+99999102141ADDAY111999GF108991001001999999001071MD1210081+9999MW1021
0057380020999991971050206004+44950+051100FM-12+999999999V0202701N99999220001CN0100001N9+99999+99999101921ADDAY101999GF100991001001999999001001MD1010001+9999MW1021
0043380020999991971050209004+44950+051100FM-12+999999999V0209991C99999220001CN0100001N9+99999+99999101851ADDAY111999GF106991001001999999999051MW1031
0043380020999991971050218004+44950+051100FM-12+999999999V0209991C99999220001CN0100001N9+99999+99999101851ADDAY111999GF107991001001999999001011MW1031
0057380020999991971050221004+44950+051100FM-12+999999999V0209991C99999220001CN0100001N9+99999+99999101901ADDAY111999GF102991001001999999001021MD1010001+9999MW1011
0068380020999991971050300004+44950+051100FM-12+999999999V0209991C99999220001CN0100001N9+99999+99999101901ADDAA199000091AY111999GF102991001001999999001021MD1410001+9999MW1021
0057380020999991971050309004+44950+051100FM-12+999999999V0201401N99999220001CN0100001N9+99999+99999101751ADDAY121999GF108991001001999999001071MD1710111+9999MW1021
0068380020999991971050312004+44950+051100FM-12+999999999V0200501N99999220001CN0100001N9+99999+99999101571ADDAA199000091AY121999GF108991001001999999001021MD1710181+9999MW1021
0054380020999991971050612004+44950+051100FM-12+999999999V0203401N99999220001CN0100001N9+99999+99999101571ADDAA199000091AY111999GF100991001001999999001001MW1011
0068380020999991971050800004+44950+051100FM-12+999999999V0209991C99999220001CN0100001N9+99999+99999101571ADDAA199000091AY101999GF101991001001999999001021MD1510001+9999MW1021
0057380020999991971050906004+44950+051100FM-12+999999999V0201601N99999220001CN0100001N9+99999+99999101571ADDAY111999GF102991021001999999091001MD1610071+9999MW1021
0073380020999991971051106004+44950+051100FM-12+999999999V0200701N99999006901CN0100001N9+99999+99999101411ADDAY181999GA1081+006909099GF108991081031008001999999MD1310111+9999MW1801
0076380020999991971051118004+44950+051100FM-12+999999999V0200901N99999007801CN0100001N9+99999+99999101441ADDAY161999GF108991999091008001021999MD1310111+9999MW1611EQDQ01+000082SCOTLC
0114380020999991971051121004+44950+051100FM-12+999999999V0202701N99999220001CN0080001N9+99999+99999101441ADDAA106999999AA299300091AY141999GF102991999011012501001001MD1610111+9999MW1071EQDQ01+000012SCOTLCQ02  99982PRCP06
0057380020999991971051206004+44950+051100FM-12+999999999V0200701N99999220001CN0100001N9+99999+99999101441ADDAY161999GF102991999001999999031001MD1110071+9999MW1021
0057380020999991971051221004+44950+051100FM-12+999999999V0209991C999999999999N0100001N9+99999+99999101441ADDAY101999GF199999999001000251091001MD1610061+9999MW1021
0073380020999991971051306004+44950+051100FM-12+999999999V0201401N99999006901CN0100001N9+99999+99999101621ADDAY111999GA1051+006909089GF105991051011008001001001MD1210031+9999MW1031
0057380020999991971051318004+44950+051100FM-12+999999999V0202501N999999999999N0100001N9+99999+99999101501ADDAY121999GF106991021001999999041021MD1710021+9999MW1021
0057380020999991971051321004+44950+051100FM-12+999999999V0202501N99999220001CN0100001N9+99999+99999101461ADDAY111999GF103991021001999999041011MD1710041+9999MW1011
0068380020999991971051712004+44950+051100FM-12+999999999V0203401N99999024001CN0100001N9+99999+99999101841ADDAA199000091AY121999GF108991081001999999091999MD1210061+9999MW1031
0068380020999991971052000004+44950+051100FM-12+999999999V0200701N99999220001CN0100001N9+99999+99999102221ADDAA199000091AY101999GF100991001001999999001001MD1410001+9999MW1021
0081380020999991971053003004+44950+051100FM-12+999999999V0200701N99999024001CN0100001N9+99999+99999102221ADDAA199000091AY121999GF105991051001999999031001KA1999N+01611MD1110011+9999MW1011
0057380020999991971053103004+44950+051100FM-12+999999999V0209999999999220001CN0100001N9+99999+99999102221ADDAY101999GF100991001001999999001001MD1210101+9999MW1041
0057380020999991971060106004+44950+051100FM-12+999999999V0202901N99999220001CN0100001N9+99999+99999100911ADDAY111999GF101991011001999999081999MD1810121+9999MW1011
0057380020999991971060206004+44950+051100FM-12+999999999V0200201N99999220001CN0100001N9+99999+99999100961ADDAY111999GF106991001001999999001031MD1210151+9999MW1021
0068380020999991971060300004+44950+051100FM-12+999999999V0200501N99999036001CN0100001N9+99999+99999100961ADDAA199000091AY111999GF107991031051008001031001MD1710061+9999MW1031
0068380020999991971060400004+44950+051100FM-12+999999999V0209991C99999220001CN0100001N9+99999+99999100961ADDAA199000091AY101999GF100991001001999999001001MD1810121+9999MW1021
0057380020999991971060406004+44950+051100FM-12+999999999V0200201N99999220001CN0100001N9+99999+99999101151ADDAY101999GF102991001001999999001011MD1810031+9999MW1021
0057380020999991971060421004+44950+051100FM-12+999999999V0209991C00001220001CN0100001N9+01391+00281100941ADDAY111999GF100991001001999999001001MD1710011+9999MW1021
0057380020999991971060521004+44950+051100FM-12+999999999V0200701N00311220001CN0100001N9+02001+00391100791ADDAY111999GF103991031001999999051001MD1210021+9999MW1011
0068380020999991971060612004+44950+051100FM-12+999999999V0202001N99999036001CN0100001N9+99999+99999100641ADDAA199000091AY111999GF106991021031008001081001MD1710101+9999MW1031
0068380020999991971060818004+44950+051100FM-12+999999999V0201401N99999220001CN0200001N9+99999+99999100901ADDAA199000091AY111999GF103991001001999999001021MD1610041+9999MW1051
0043380020999991971061012004+44950+051100FM-12+999999999V0201101N999999999999N0100001N9+99999+99999100681ADDAY111999GF108991999011017501011001MW1021
0057380020999991971061103004+44950+051100FM-12+999999999V0200701N99999024001CN0650001N9+99999+99999100601ADDAY121999GF106991061001999999031001MD1710051+9999MW1021
0057380020999991971061221004+44950+051100FM-12+999999999V0203601N00981220001CN0050001N9+02221+01281100601ADDAY101999GF100991001001999999001001MD1310031+9999MW1061
0068380020999991971061312004+44950+051100FM-12+999999999V0200901N99999024001CN0100001N9+99999+99999100601ADDAA199000091AY121999GF108991071001999999091051MD1710131+9999MW1021
0057380020999991971061418004+44950+051100FM-12+999999999V0209991C999999999999N0100001N9+99999+99999100731ADDAY121999GF105991011001999999041021MD1310021+9999MW1011
0092380020999991971061421004+44950+051100FM-12+999999999V0201101N00101012301CN0100001N9+02611+00721100691ADDAY121999GA1091+999999039GF109991061091012501001001MD1710041+9999MW1031EQDQ01+000062SCOTCV
0079380020999991971061500004+44950+051100FM-12+999999999V0200901N99999220001CN0100001N9+99999+99999100651ADDAA106001091AA299000391AY181999GF103991031031012501081001MD1710041+9999MW1021
0084380020999991971061512004+44950+051100FM-12+999999999V0201401N99999010801CN0100001N9+99999+99999100441ADDAA199000091AY111999GA1071+010809099GF108991071091012501001021MD1810131+9999MW1031
0057380020999991971061521004+44950+051100FM-12+999999999V0203201N01391007801CN0100001N9+02221+01721100911ADDAY121999GF107991071091008001001001MD1210141+9999MW1021
0076380020999991971061821004+44950+051100FM-12+999999999V0202001N00511220001CN0100001N9+01611+01391101031ADDAY101999GF100991001001999999001001MD1810051+9999MW1131EQDQ01    993SCOTCV
0081380020999991971061921004+44950+051100FM-12+999999999V0200501N01801220001CN0080001N9+02111+01221101031ADDAA199000091AY101999GF100991001001999999001001KA1999M+02501MD1610041+9999MW1021
0057380020999991971062018004+44950+051100FM-12+999999999V0200201N99999220001CN0100001N9+99999+99999101031ADDAY111999GF102991021041012501001001MD1310081+9999MW1011
0057380020999991971062209004+44950+051100FM-12+999999999V0202701N99999220001CN0100001N9+99999+99999100711ADDAY111999GF103991031011008001001001MD1210071+9999MW1021
0084380020999991971062312004+44950+051100FM-12+999999999V0203401N99999011401CN0100001N9+99999+99999101041ADDAA199000091AY111999GA1061+011409089GF107991071021012501001001MD1710091+9999MW1021
0043380020999991971062421004+44950+051100FM-12+999999999V0203601N00511220001CN0100001N9+02281+01611101041ADDAY101999GF100991001001999999001001MW1021
0057380020999991971062518004+44950+051100FM-12+999999999V0202701N99999220001CN0100001N9+99999+99999101161ADDAY101999GF100991001001999999001001MD1210141+9999MW1021
0057380020999991971062521004+44950+051100FM-12+999999999V0202701N00311220001CN0100001N9+99999+99999101191ADDAY101999GF100991001001999999001001MD1210031+9999MW1021
0081380020999991971062706004+44950+051100FM-12+999999999V0200201N99999220001CN0200001N9+99999+99999101141ADDAA199000091AY101999GF102991021001999999041001KA1999N+01891MD1810041+9999MW1021
0073380020999991971062909004+44950+051100FM-12+999999999V0202301N99999009901CN0100001N9+99999+99999100751ADDAY121999GA1061+009909099GF108991061031008001091999MD1610031+9999MW1021
0087380020999991971062918004+44950+051100FM-12+999999999V0202901N999999999999N0200001N9+99999+99999100731ADDAA199999999AY181999GF107991999091004501999999MD1210071+9999MW1251EQDQ01  00002PRCP99
0051380020999991971063009004+44950+051100FM-12+999999999V0209991C99999220001CN0005001N9+99999+99999100731ADDAY101999GF102991021011012501001001MD1810071+9999
0057380020999991971063021004+44950+051100FM-12+999999999V0200201N00311220001CN0100001N9+02221+01501100731ADDAY101999GF102991021001999999051001MD1210051+9999MW1031
