0057380080999991971010106004+44217+050650FM-12+999999999V0209991C00001220001CN0500001N9+99999+99999102781ADDAY111999GF107991001001999999001021MD1310141+9999MW1031
0095380080999991971010712004+44217+050650FM-12+999999999V0203601N99999001801CN0100001N9+99999+99999102351ADDAA106004091AA299001091AY151999GA1081+001809079GF108991081061001501999999MD1510021+9999MW1511
0123380080999991971011106004+44217+050650FM-12+999999999V0200201N00311220001CN9999999N9+99999+99999103141ADDAA199000091AJ100009199999999AY151999GF199999011051008001001001HL10009IA1189IA2999-00619KA1999N-00611MD1210021+9999MW1111
0076380080999991971011306004+44217+050650FM-12+999999999V0202901N005119999999N0070001N9+99999+99999103141ADDAY161999GF108991001999999999999999MD1710101+9999MW1581EQDQ01    083SCOLCG
0114380080999991971011312004+44217+050650FM-12+999999999V0203201N99999001501CN0032001N9+99999+99999101152ADDAA106002091AA299000591AY171999GA1081+001509079GF108991081061001501999999MD1310101+9999MW1771EQDQ01+101153APOSLP
0076380080999991971011406004+44217+050650FM-12+999999999V0203601N01391220001CN0500001N9+99999+99999102841ADDAY101999GF102991021001999999041001MD1210712+9999MW1021EQDQ01+000712APC3  
0057380080999991971011709004+44217+050650FM-12+999999999V0201601N99999007801CN0500001N9+99999+99999102551ADDAY111999GF107991051051008001041001MD1710101+9999MW1031
0057380080999991971011806004+44217+050650FM-12+999999999V0200901N00311220001CN0500001N9+99999+99999102701ADDAY111999GF101991011001999999041001MD1210061+9999MW1021
0068380080999991971011912004+44217+050650FM-12+999999999V0201101N99999220001CN0500001N9+99999+99999098301ADDAA199000091AY181999GF100991001001999999001001MD1510041+9999MW1021
0068380080999991971012012004+44217+050650FM-12+999999999V0200901N99999220001CN0200001N9+99999+99999102951ADDAA199000091AY101999GF101991001001999999001011MD1510031+9999MW1021
0057380080999991971012321004+44217+050650FM-12+999999999V0200901N99999220001CN0200001N9+99999+99999103711ADDAY101999GF100991001001999999001001MD1010011+9999MW1021
0051380080999991971012406004+44217+050650FM-12+999999999V0201101N00311220001CN0500001N9+99999+99999103671ADDAY101999GF199999001001999999001011MD1210081+9999
0057380080999991971012706004+44217+050650FM-12+999999999V0201101N00871220001CN0500001N9+99999+99999102191ADDAY101999GF103991001001999999001021MD1210091+9999MW1021
0087380080999991971012912004+44217+050650FM-12+999999999V0200901N99999220001CN0020001N9+99999+99999102191ADDAA199999999AY101999GF199999001001999999001011MD1410001+9999MW1201EQDQ01  00002PRCP99
0057380080999991971020206004+44217+050650FM-12+999999999V0201101N99999220001CN0500001N9+99999+99999102791ADDAY101999GF100991001001999999001001MD1710031+9999MW1021
0068380080999991971020612004+44217+050650FM-12+999999999V0202501N99999220001CN0350001N9+99999+99999100781ADDAA199000091AY101999GF102991001001999999001021MD1710081+9999MW1021
0057380080999991971021706004+44217+050650FM-12+999999999V0200201N99999024001CN0500001N9+99999+99999102341ADDAY121999GF107991071001999999071001MD1210091+9999MW1021
0068380080999991971021812004+44217+050650FM-12+999999999V0200901N99999220001CN0500001N9+99999+99999102791ADDAA199000091AY101999GF102991001001999999001011MD1710131+9999MW1021
0081380080999991971022015004+44217+050650FM-12+999999999V0200901N99999036001CN0500001N9+99999+99999102131ADDAA199000091AY121999GF107991011061004501031001KA1999M-00221MD1310091+9999MW1031
0084380080999991971022115004+44217+050650FM-12+999999999V0200501N99999008701CN0200001N9+99999+99999101841ADDAA199000091AY121999GA1071+008709059GF107991071051008001001001MD1210041+9999MW1021
0057380080999991971022121004+44217+050650FM-12+999999999V0203601N999999999999N0500001N9+99999+99999101731ADDAY111999GF199999001001999999001999MD1710081+9999MW1021
0057380080999991971022306004+44217+050650FM-12+999999999V0200201N99999024001CN0500001N9+99999+99999101381ADDAY111999GF108991051001999999071071MD1210031+9999MW1021
0057380080999991971022618004+44217+050650FM-12+999999999V0200901N99999220001CN0500001N9+99999+99999101811ADDAY111999GF100991001001999999001001MD1710151+9999MW1021
0057380080999991971022621004+44217+050650FM-12+999999999V0201101N99999220001CN0500001N9+99999+99999101521ADDAY101999GF100991001001999999001001MD1710261+9999MW1021
0081380080999991971022806004+44217+050650FM-12+999999999V0200701N99999036001CN0500001N9+99999+99999101521ADDAA199000091AY121999GF108991021051012501021999KA1999N+00001MD1210181+9999MW1021
0057380080999991971022809004+44217+050650FM-12+999999999V0200701N99999024001CN0500001N9+99999+99999101001ADDAY121999GF108991081001999999011999MD1210071+9999MW1021
0068380080999991971022812004+44217+050650FM-12+999999999V0200501N99999024001CN0300001N9+99999+99999101131ADDAA199000091AY121999GF108991081001999999011999MD1310121+9999MW1021
0068380080999991971030112004+44217+050650FM-12+999999999V0201101N00621220001CN0500001N9+00111-00781102541ADDAA199000091AY121999GF105991001001999999001021MD1210091+9999MW1021
0076380080999991971030518004+44217+050650FM-12+999999999V0200201N99999001501CN0010001N9+99999+99999102541ADDAY171999GF108991999061001501011999MD1210181+9999MW1711EQDQ01+000082SCOTLC
0084380080999991971031012004+44217+050650FM-12+999999999V0202701N00311001501CN0500001N9+00001-00221102541ADDAA199000091AY141999GA1081+001509079GF108991081061001501999999MD1610021+9999MW1021
0068380080999991971031112004+44217+050650FM-12+999999999V0201101N00621220001CN0500001N9+01221+00281102541ADDAA199000091AY121999GF108991001001999999001021MD1710201+9999MW1021
0057380080999991971031506004+44217+050650FM-12+999999999V0203601N01391000151CN0002001N9-00111-00221101081ADDAY161999GF109991091999000251999999MD1710051+9999MW1491
0073380080999991971031606004+44217+050650FM-12+999999999V0202501N00821001801CN0090001N9-00391-00611101081ADDAY171999GA1081+001809079GF108991081061001501999999MD1210211+9999MW1771
0076380080999991971031612004+44217+050650FM-12+999999999V0202701N00721220001CN0080001N9-00111-00501102182ADDAY111999GF102991021061004501081001MD1810031+9999MW1401EQDQ01+102183APOSLP
0057380080999991971031806004+44217+050650FM-12+999999999V0200901N01181024001CN0120001N9+00221-00891102101ADDAY121999GF108991081001999999091999MD1710091+9999MW1021
0057380080999991971031812004+44217+050650FM-12+999999999V0200901N01591036001CN0200001N9+99999+99999102101ADDAY161999GF106991031051008001031001MD1710251+9999MW1211
0057380080999991971031906004+44217+050650FM-12+999999999V0200901N00311220001CN0500001N9+00611-00111102101ADDAY111999GF108991001001999999001021MD1310021+9999MW1021
0057380080999991971032006004+44217+050650FM-12+999999999V0202901N00511000151CN0002001N9-00111-00221101371ADDAY141999GF109991091999000251999999MD1110241+9999MW1491
0084380080999991971032012004+44217+050650FM-12+999999999V0202901N00821000601CN0041001N9+99999+99999101511ADDAA199000091AY141999GA1081+000609079GF108991081061000751999999MD1210081+9999MW1101
0057380080999991971032106004+44217+050650FM-12+999999999V0203201N00311000151CN0005001N9+00111+00001101511ADDAY151999GF109991091999000251999999MD1210111+9999MW1431
0057380080999991971032209004+44217+050650FM-12+999999999V0202501N99999220001CN0500001N9+99999+99999102241ADDAY141999GF101991011011008001001001MD1810031+9999MW1021
0062380080999991971032312004+44217+050650FM-12+999999999V0201801N01181007801CN0200001N9+01001+00281102371ADDAA199000091AY141999GF199999061051008001001001MD1710131+9999
0043380080999991971032318004+44217+050650FM-12+999999999V0201601N99999220001CN0200001N9+99999+99999102411ADDAY111999GF100991001001999999001001MW1021
0051380080999991971032409004+44217+050650FM-12+999999999V0201601N99999024001CN0120001N9+99999+99999102051ADDAY121999GF108991081001999999021999MD1710101+9999
0057380080999991971032506004+44217+050650FM-12+999999999V0201601N00721220001CN0500001N9+01111+00001101771ADDAY121999GF107991001001999999001021MD1210061+9999MW1021
0068380080999991971032612004+44217+050650FM-12+999999999V0201601N00981220001CN0500001N9+01721-00391101471ADDAA199000091AY121999GF107991001001999999001021MD1710131+9999MW1021
0057380080999991971032618004+44217+050650FM-12+999999999V0201101N99999220001CN0500001N9+99999+99999101561ADDAY111999GF103991001001999999001021MD1210061+9999MW1021
0057380080999991971032806004+44217+050650FM-12+999999999V0201101N009819999999N0500001N9+99999+99999101561ADDAY121999GF107991021001999999071071MD1410001+9999MW1021
0057380080999991971033009004+44217+050650FM-12+999999999V0200501N99999220001CN0500001N9+99999+99999101891ADDAY121999GF108991001001999999001071MD1710011+9999MW1021
0068380080999991971033012004+44217+050650FM-12+999999999V0200701N00511220001CN0350001N9+01221-00111101751ADDAA199000091AY121999GF108991001001999999001011MD1710141+9999MW1021
0057380080999991971033109004+44217+050650FM-12+999999999V0201601N99999220001CN0500001N9+99999+99999101751ADDAY101999GF100991001001999999001001MD1710191+9999MW1011
0068380080999991971040112004+44217+050650FM-12+999999999V0203601N01801024001CN0230001N9+99999+99999101391ADDAA199000091AY131999GF107991071001999999051001MD1310091+9999MW1021
0073380080999991971040121004+44217+050650FM-12+999999999V0203601N99999006601CN0200001N9+99999+99999102141ADDAY121999GA1081+006609059GF108991081061008001999999MD1110071+9999MW1021
0114380080999991971040200004+44217+050650FM-12+999999999V0202201N99999004501CN0040001N9+99999+99999099552ADDAA106016091AA299004091AY161999GF108991061071004501021999MD1210722+9999MW1611EQDQ01+099553APOSLPQ02+000722APC3  
0057380080999991971040306004+44217+050650FM-12+999999999V0200501N99999220001CN0110001N9+99999+99999102321ADDAY111999GF108991001001999999001071MD1210071+9999MW1021
0068380080999991971040412004+44217+050650FM-12+999999999V0201101N00821220001CN0500001N9+01221-00391102641ADDAA199000091AY101999GF101991011011017501001001MD1210051+9999MW1021
0057380080999991971040418004+44217+050650FM-12+999999999V0200901N99999220001CN0500001N9+99999+99999102791ADDAY101999GF102991001001999999001011MD1010081+9999MW1011
0057380080999991971040706004+44217+050650FM-12+999999999V0201401N99999024001CN0290001N9+99999+99999101191ADDAY121999GF106991061001999999031001MD1710061+9999MW1021
0057380080999991971040709004+44217+050650FM-12+999999999V0202001N999999999999N0500001N9+99999+99999101021ADDAY121999GF105991041001999999031011MD1710111+9999MW1021
0076380080999991971040806004+44217+050650FM-12+999999999V0200201N99999220001CN0500001N9+99999+99999102471ADDAY111999GF102991021011012501001001MD1210582+9999MW1021EQDQ01+000582APC3  
0068380080999991971041012004+44217+050650FM-12+999999999V0200901N00871220001CN0500001N9+01221+99999102821ADDAA199000091AY111999GF107991001001999999001021MD1710191+9999MW1021
0057380080999991971041118004+44217+050650FM-12+999999999V0200901N99999220001CN0500001N9+99999+99999101901ADDAY121999GF104991041001999999061001MD1710031+9999MW1031
0057380080999991971041218004+44217+050650FM-12+999999999V0203601N99999220001CN0500001N9+99999+99999101171ADDAY111999GF101991001001999999001011MD1710011+9999MW1021
0057380080999991971041318004+44217+050650FM-12+999999999V0200901N99999220001CN0200001N9+99999+99999100031ADDAY121999GF107991001001999999001011MD1710101+9999MW1021
0068380080999991971041412004+44217+050650FM-12+999999999V0201601N01181024001CN0200001N9+01781+00501099171ADDAA199000091AY161999GF107991071001999999071001MD1710051+9999MW1021
0068380080999991971041512004+44217+050650FM-12+999999999V0202501N00821220001CN0180001N9+01281+00001100281ADDAA199000091AY141999GF103991031011008001001001MD1210171+9999MW1011
0057380080999991971041721004+44217+050650FM-12+999999999V0202701N99999000151CN0000501N9+99999+99999100691ADDAY191999GF109991091999000251999999MD1210071+9999MW1451
0073380080999991971041806004+44217+050650FM-12+999999999V0202901N99999002701CN0500001N9+99999+99999100931ADDAY141999GA1081+002709079GF108991081061004501999999MD1210201+9999MW1021
0108380080999991971041912004+44217+050650FM-12+999999999V0202901N00871003301CN0290001N9+01221+00001101201ADDAA106012091AA299003091AY151999GA1081+003309089GF108991081061004501999999MD1210071+9999EQDQ01+000682PRSWM1
0073380080999991971042009004+44217+050650FM-12+999999999V0203201N99999033001CN0500001N9+99999+99999102011ADDAY121999GA1071+033009079GF107991071061004501001001MD1110091+9999MW1021
0079380080999991971042012004+44217+050650FM-12+999999999V0203401N01181090001CN0500001N9+01611-00111102011ADDAA106004091AA299001091AY121999GF107991021051008001001021MD1210091+9999MW1011
0087380080999991971042112004+44217+050650FM-12+999999999V0203601N00621012301CN0200001N9+01111+00111102511ADDAA199999999AY121999GF199999061021012501001001MD1710041+9999MW1211EQDQ01  00002PRCP99
0068380080999991971042215004+44217+050650FM-12+999999999V0201801N99999220001CN0200001N9+99999+99999102511ADDAA199000091AY101999GF100991001001999999001001MD1710111+9999MW1021
0057380080999991971042509004+44217+050650FM-12+999999999V0202701N99999220001CN0500001N9+99999+99999102511ADDAY101999GF102991021021008001001001MD1010011+9999MW1031
0087380080999991971042512004+44217+050650FM-12+999999999V0202701N00621220001CN0200001N9+02001+00391101072ADDAA199000091AY101999GF103991031021012501001001MD1210031+9999MW1021EQDQ01+101073APOSLP
0068380080999991971042812004+44217+050650FM-12+999999999V0200201N00411012301CN0200001N9+01781+00721101071ADDAA199000091AY111999GF107991071081012501001001MD1710051+9999MW1021
0057380080999991971050115004+44217+050650FM-12+999999999V0202301N999999999999N0500001N9+99999+99999101951ADDAY121999GF107991031001999999091021MD1210041+9999MW1021
0057380080999991971050118004+44217+050650FM-12+999999999V0209991C99999024001CN0500001N9+99999+99999102061ADDAY121999GF107991071001999999091001MD1110071+9999MW1021
0068380080999991971050200004+44217+050650FM-12+999999999V0203601N99999220001CN0500001N9+99999+99999102041ADDAA199000091AY111999GF100991001001999999001001MD1410001+9999MW1021
0057380080999991971050206004+44217+050650FM-12+999999999V0203601N99999220001CN0500001N9+99999+99999101981ADDAY101999GF101991011001999999031001MD1310011+9999MW1021
0057380080999991971050309004+44217+050650FM-12+999999999V0202001N99999220001CN0500001N9+99999+99999101701ADDAY121999GF108991001001999999001021MD1710131+9999MW1021
0054380080999991971050312004+44217+050650FM-12+999999999V0202001N00411220001CN0500001N9+99999+99999101591ADDAA199000091AY111999GF106991001001999999001011MW1021
0068380080999991971050612004+44217+050650FM-12+999999999V0202301N008219999999N0500001N9+99999+99999101591ADDAA199000091AY121999GF107991031001999999081011MD1810031+9999MW1021
0043380080999991971050906004+44217+050650FM-12+999999999V0201101N99999002401CN0500001N9+99999+99999101591ADDAY121999GF107991061091002501999999MW1021
0057380080999991971051106004+44217+050650FM-12+999999999V0200501N99999015001CN0100001N9+99999+99999101141ADDAY161999GF108991051051017501021091MD1210051+9999MW1071
0057380080999991971051118004+44217+050650FM-12+999999999V0200501N99999012301CN0200001N9+99999+99999101121ADDAY161999GF108991081081012501999999MD1210121+9999MW1021
0057380080999991971051206004+44217+050650FM-12+999999999V0200501N99999007801CN0500001N9+99999+99999101461ADDAY121999GF107991071081008001001001MD1210071+9999MW1021
0057380080999991971051221004+44217+050650FM-12+999999999V0209991C99999220001CN0200001N9+99999+99999101601ADDAY101999GF101991001001999999001011MD1210021+9999MW1021
0057380080999991971051306004+44217+050650FM-12+999999999V0203601N99999220001CN0500001N9+99999+99999101711ADDAY101999GF103991001001999999001021MD1210111+9999MW1031
0057380080999991971051318004+44217+050650FM-12+999999999V0202701N99999220001CN0500001N9+99999+99999101771ADDAY101999GF100991001001999999001001MD1210091+9999MW1021
0068380080999991971051612004+44217+050650FM-12+999999999V0203401N00871220001CN0500001N9+99999+99999101771ADDAA199000091AY111999GF102991001001999999999011MD1210061+9999MW1021
0068380080999991971051712004+44217+050650FM-12+999999999V0203601N00721024001CN0500001N9+99999+99999101941ADDAA199000091AY121999GF106991061001999999091001MD1210051+9999MW1021
0057380080999991971051909004+44217+050650FM-12+999999999V0201101N999999999999N0500001N9+99999+99999102391ADDAY121999GF107991011001999999041021MD1810041+9999MW1021
0068380080999991971051912004+44217+050650FM-12+999999999V0200701N00621220001CN0500001N9+99999+99999102251ADDAA199000091AY111999GF107991021051012501001011MD1710131+9999MW1021
0089380080999991971052000004+44217+050650FM-12+999999999V0200901N99999024001CN0500001N9+99999+99999102241ADDAA199000091AY111999GF107991071001999999081001MW1021EQDQ01+000062APCTENQ02+000002APC3  
0062380080999991971052412004+44217+050650FM-12+999999999V0202001N00821220001CN9999999N9+99999+99999102241ADDAA199000091AY101999GF101991011091012501001001MD1410001+9999
0081380080999991971053003004+44217+050650FM-12+999999999V0200701N99999220001CN0200001N9+99999+99999102241ADDAA199000091AY111999GF102991011001999999081021KA1999N+01391MD1510031+9999MW1021
0057380080999991971060106004+44217+050650FM-12+999999999V0209991C99999024001CN0500001N9+99999+99999101041ADDAY121999GF105991051001999999081001MD1710051+9999MW1021
0043380080999991971060109004+44217+050650FM-12+999999999V0203201N99999000151CN0500001N9+99999+99999100901ADDAY121999GF106991051041000251081031MW1021
0057380080999991971060206004+44217+050650FM-12+999999999V0200201N99999220001CN0500001N9+99999+99999100921ADDAY111999GF107991001001999999001021MD1210101+9999MW1021
0068380080999991971060400004+44217+050650FM-12+999999999V0200501N99999220001CN0500001N9+99999+99999101231ADDAA199000091AY101999GF101991011001999999041001MD1710061+9999MW1021
0057380080999991971060406004+44217+050650FM-12+999999999V0201401N99999220001CN0500001N9+99999+99999101151ADDAY101999GF102991001001999999001011MD1810051+9999MW1021
0051380080999991971060421004+44217+050650FM-12+999999999V0200501N00721220001CN0500001N9+02001+00721100981ADDAY101999GF101991001001999999001021MD1710021+9999
0057380080999991971060521004+44217+050650FM-12+999999999V0203601N00621220001CN0500001N9+02221+00501100821ADDAY101999GF100991001001999999001001MD1710031+9999MW1021
0068380080999991971060612004+44217+050650FM-12+999999999V0200501N00311036001CN0500001N9+02891-00111100711ADDAA199000091AY121999GF107991021081008001091001MD1710061+9999MW1021
0043380080999991971061012004+44217+050650FM-12+999999999V0201601N00311024001CN9999999N9+99999+99999100711ADDAY121999GF107991051001999999081021MW1221
0084380080999991971061312004+44217+050650FM-12+999999999V0200901N00821008101CN0200001N9+03501+00001100651ADDAA199000091AY121999GA1081+008109059GF108991081051008001999999MD1710121+9999MW1021
0079380080999991971061412004+44217+050650FM-12+999999999V0201801N00411036001CN0500001N9+03721+00281100701ADDAA106031091AA299008091AY191999GF105991031091008001091001MD1710131+9999MW1171
0057380080999991971061418004+44217+050650FM-12+999999999V0200901N99999090001CN0500001N9+99999+99999100821ADDAY191999GF106991021041012501001021MD1410001+9999MW1021
0068380080999991971061500004+44217+050650FM-12+999999999V0200501N99999220001CN9999999N9+99999+99999100781ADDAA199000091AY111999GF104991041081008001001001MD1310061+9999MW1131
0079380080999991971061512004+44217+050650FM-12+999999999V0202501N00411220001CN0500001N9+03221+01111100631ADDAA106075091AA224999999AY161999GF101991011001999999041001MD1710031+9999MW1021
0057380080999991971061518004+44217+050650FM-12+999999999V0203401N99999007801CN9999999N9+99999+99999100931ADDAY161999GF108991081051008001999999MD1010151+9999MW1601
0057380080999991971061521004+44217+050650FM-12+999999999V0203401N01591007801CN0500001N9+02001+01501101091ADDAY161999GF108991081051008001999999MD1210121+9999MW1021
0057380080999991971061821004+44217+050650FM-12+999999999V0209991C00001090001CN0200001N9+01391+01281101331ADDAY121999GF105991031061002501001021MD1710061+9999MW1021
0057380080999991971062018004+44217+050650FM-12+999999999V0209991C99999220001CN0500001N9+99999+99999101331ADDAY111999GF101991001001999999001011MD1310051+9999MW1021
0057380080999991971062109004+44217+050650FM-12+999999999V0201801N99999220001CN0500001N9+99999+99999101331ADDAY111999GF102991001001999999001021MD1710141+9999MW1011
0057380080999991971062209004+44217+050650FM-12+999999999V0202701N99999220001CN0500001N9+99999+99999101331ADDAY101999GF101991011011008001001001MD1210031+9999MW1021
0068380080999991971062312004+44217+050650FM-12+999999999V0202501N00821220001CN0500001N9+02721+00721101331ADDAA199000091AY101999GF104991041021008001001001MD1710081+9999MW1021
0057380080999991971062518004+44217+050650FM-12+999999999V0203401N99999220001CN0500001N9+99999+99999101331ADDAY101999GF100991001001999999001001MD1210101+9999MW1021
0057380080999991971062521004+44217+050650FM-12+999999999V0209991C00001220001CN0200001N9+01611+00891101411ADDAY101999GF100991001001999999001001MD1210051+9999MW1021
0073380080999991971062909004+44217+050650FM-12+999999999V0201801N99999012001CN0200001N9+99999+99999101411ADDAY181999GA1081+012009099GF108991081091012501999999MD1310031+9999MW1251
0057380080999991971063009004+44217+050650FM-12+999999999V0201701N99999090001CN0200001N9+99999+99999100931ADDAY111999GF106991021021012501001021MD1710061+9999MW1031
0068380080999991971063012004+44217+050650FM-12+999999999V0203401N99999220001CN0200001N9+03001+00721100841ADDAA199000091AY111999GF106991021021012501001011MD1710071+9999MW1021
0057380080999991971063021004+44217+050650FM-12+999999999V0200201N00721220001CN0500001N9+02391+00611101151ADDAY101999GF100991001001999999001001MD1110031+9999MW1021
