0068380010999991971010100004+44550+050250FM-12-002099999V0209991C00001220001CN0100001N9+00221-00111102511ADDAA199000091AY101999GF100991001001999999001001MD1210091+9999MW1021
0057380010999991971010103004+44550+050250FM-12-002099999V0209991C00001220001CN0100001N9+00111-00111102511ADDAY101999GF100991001001999999001001MD1410001+9999MW1021
0123380010999991971010106004+44550+050250FM-12-002099999V0201401N00621220001CN0200001N9+00501+00001102581ADDAA199000091AJ100009199999999AY111999GF107991001001999999001021HL10009IA1139IA2999-00229KA1999N+00001MD1210061+9999MW1031
0057380010999991971010109004+44550+050250FM-12-002099999V0201401N00721220001CN0200001N9+00721+00001102431ADDAY121999GF107991001001999999001021MD1710151+9999MW1021
0068380010999991971010112004+44550+050250FM-12-002099999V0201001N00871012301CN0200001N9+00721-00391102161ADDAA199000091AY121999GF107991051051012501001021MD1710221+9999MW1021
0081380010999991971010118004+44550+050250FM-12-002099999V0201401N00821220001CN0100001N9+00611+00221101901ADDAA199000091AY111999GF103991001001999999001021KA1999M+00721MD1710211+9999MW1021
0057380010999991971010121004+44550+050250FM-12-002099999V0201401N00821220001CN0100001N9+00501+00221101711ADDAY101999GF100991001001999999001001MD1710191+9999MW1021
0068380010999991971010200004+44550+050250FM-12-002099999V0201401N00211220001CN0100001N9+00611+00221101591ADDAA199000091AY101999GF100991001001999999001001MD1810121+9999MW1021
0057380010999991971010203004+44550+050250FM-12-002099999V0201401N00511007801CN0100001N9+00611+00221101731ADDAY111999GF108991081051008001999999MD1710141+9999MW1031
0057380010999991971010209004+44550+050250FM-12-002099999V0209991C00001007801CN0200001N9+00501+00221102261ADDAY121999GF108991081051008001999999MD1210241+9999MW1021
0068380010999991971010212004+44550+050250FM-12-002099999V0209991C00001220001CN0040001N9+00391+00111102501ADDAA199000091AY121999GF105991001001999999001021MD1210241+9999MW1101
0043380010999991971010215004+44550+050250FM-12-002099999V0209991C00001220001CN0100001N9+00611-00281102771ADDAY121999GF107991001001999999001999MW1021
0081380010999991971010218004+44550+050250FM-12-002099999V0209991C00001220001CN0002001N9+00001-00391102881ADDAA199000091AY131999GF100991001001999999001001KA1999M+00721MD1210101+9999MW1441
0084380010999991971010221004+44550+050250FM-12-002099999V0209991C00001220001CN0100001N9+00221+00001102861ADDAA106999999AA299200091AY111999GF100991001001999999001001MW1021EQDQ01  78702PRCP06
0068380010999991971010300004+44550+050250FM-12-002099999V0209991C00001220001CN0100001N9+00111-00111102901ADDAA199000091AY111999GF100991001001999999001001MD1210041+9999MW1021
0057380010999991971010303004+44550+050250FM-12-002099999V0209991C00001220001CN0100001N9+00281+00001102811ADDAY101999GF103991031051012501001001MD1710091+9999MW1021
0142380010999991971010306004+44550+050250FM-12-002099999V0209991C00001024001CN0200001N9+00391+00001102911ADDAA199000091AJ100009199999999AY121999GF106991999001999999031001HL10009IA1139IA2999-00119KA1999N+00001MD1210101+9999MW1021EQDQ01+000052SCOTLC
0057380010999991971010309004+44550+050250FM-12-002099999V0209991C00001220001CN0200001N9+00721+00221102901ADDAY121999GF107991001001999999001021MD1710011+9999MW1021
0068380010999991971010312004+44550+050250FM-12-002099999V0209991C00001024001CN0200001N9+00611+00281102881ADDAA199000091AY121999GF107991051001999999031021MD1710021+9999MW1021
0057380010999991971010315004+44550+050250FM-12-002099999V0200701N00511220001CN0100001N9+00501+00001102931ADDAY121999GF107991001001999999001021MD1710021+9999MW1021
0081380010999991971010318004+44550+050250FM-12-002099999V0200701N01391220001CN0100001N9+00391+00001102921ADDAA199000091AY121999GF105991001001999999001021KA1999M+00781MD1710011+9999MW1021
0057380010999991971010321004+44550+050250FM-12-002099999V0200701N01391220001CN0100001N9+00391-00111102721ADDAY121999GF105991001001999999001021MD1710201+9999MW1021
0068380010999991971010400004+44550+050250FM-12-002099999V0201101N01391220001CN0100001N9+00501+00001102521ADDAA199000091AY111999GF100991001001999999001001MD1710021+9999MW1011
0057380010999991971010403004+44550+050250FM-12-002099999V0200901N00511220001CN0100001N9+00391+00001102451ADDAY101999GF103991031051012501001001MD1710071+9999MW1021
0068380010999991971010412004+44550+050250FM-12-002099999V0201401N00621007801CN0200001N9+00611+00221102241ADDAA199000091AY121999GF108991081051008001999999MD1310041+9999MW1021
0057380010999991971010415004+44550+050250FM-12-002099999V0201401N00721007801CN0100001N9+00501+00281102311ADDAY121999GF108991081051008001999999MD1210071+9999MW1021
0081380010999991971010418004+44550+050250FM-12-002099999V0201401N00511007801CN0200001N9+00611+00221102381ADDAA199000091AY121999GF108991081051008001999999KA1999M+00721MD1210071+9999MW1021
0057380010999991971010421004+44550+050250FM-12-002099999V0201401N00311007801CN0100001N9+00501+00221102361ADDAY121999GF108991081051008001999999MD1710021+9999MW1021
0068380010999991971010500004+44550+050250FM-12-002099999V0201401N00311007801CN0100001N9+00501+00221102411ADDAA199000091AY121999GF108991081051008001999999MD1310051+9999MW1021
0057380010999991971010503004+44550+050250FM-12-002099999V0209991C00001004501CN0100001N9+00391+00281102371ADDAY121999GF108991081061004501999999MD1710041+9999MW1021
0123380010999991971010506004+44550+050250FM-12-002099999V0201401N00101004501CN0200001N9+00501+00281102581ADDAA199000091AJ100009199999999AY121999GF108991081061004501999999HL10009IA1009IA2999+00399KA1999N+00391MD1310211+9999MW1021
0057380010999991971010509004+44550+050250FM-12-002099999V0202301N00211004501CN0200001N9+00611+00501102581ADDAY121999GF108991081061004501999999MD1410001+9999MW1021
0068380010999991971010512004+44550+050250FM-12-002099999V0203201N00311002401CN0010001N9+00391+00281102721ADDAA199000091AY121999GF108991081061002501999999MD1210141+9999MW1101
0057380010999991971010515004+44550+050250FM-12-002099999V0202901N00311220001CN0100001N9+00501+00221102891ADDAY141999GF100991001001999999001001MD1210171+9999MW1021
0081380010999991971010518004+44550+050250FM-12-002099999V0203201N00981220001CN0100001N9+00281+00111103051ADDAA199000091AY141999GF100991001001999999001001KA1999M+00721MD1210161+9999MW1021
0068380010999991971010600004+44550+050250FM-12-002099999V0200501N00101220001CN0100001N9-00111-00391103151ADDAA199000091AY101999GF100991001001999999001001MD1210041+9999MW1021
0057380010999991971010603004+44550+050250FM-12-002099999V0209991C00001220001CN0100001N9-00221-00501103141ADDAY101999GF100991001001999999001001MD1810011+9999MW1021
0123380010999991971010606004+44550+050250FM-12-002099999V0209991C00001220001CN0200001N9-00111-00501103241ADDAA199000091AJ100009199999999AY101999GF100991001001999999001001HL10009IA1139IA2999-00509KA1999N-00281MD1310101+9999MW1021
0057380010999991971010609004+44550+050250FM-12-002099999V0201601N00411220001CN0200001N9+00391-00111103101ADDAY101999GF103991001001999999001021MD1810161+9999MW1031
0068380010999991971010612004+44550+050250FM-12-002099999V0201401N00311220001CN0200001N9+00391+00001102961ADDAA199000091AY111999GF107991001001999999001021MD1710141+9999MW1021
0057380010999991971010615004+44550+050250FM-12-002099999V0201401N00511220001CN0100001N9+00281-00221102871ADDAY121999GF107991001001999999081021MD1710091+9999MW1021
0081380010999991971010618004+44550+050250FM-12-002099999V0201601N00511220001CN0100001N9+00221-00111102721ADDAA199000091AY121999GF107991001001999999001021KA1999M+00501MD1710151+9999MW1021
0057380010999991971010621004+44550+050250FM-12-002099999V0201401N00981220001CN0100001N9+00281-00391102571ADDAY121999GF105991001001999999001021MD1710171+9999MW1021
0068380010999991971010700004+44550+050250FM-12-002099999V0201401N00981002401CN0100001N9+00281+00111102641ADDAA199000091AY121999GF108991081061002501999999MD1710201+9999MW1021
0057380010999991971010703004+44550+050250FM-12-002099999V0201401N00821002401CN0100001N9+00281+00221102231ADDAY121999GF108991081061002501999999MD1710521+9999MW1021
0057380010999991971010706004+44550+050250FM-12-002099999V0200901N00721002401CN0040001N9+00281+00221102291ADDAY151999GF108991081061002501999999MD1210061+9999MW1511
0057380010999991971010709004+44550+050250FM-12-002099999V0200701N00511002401CN0040001N9+00391+00281102321ADDAY151999GF108991081061002501999999MD1210031+9999MW1531
0079380010999991971010712004+44550+050250FM-12-002099999V0203601N01181002401CN0040001N9+00001+00001102421ADDAA106002091AA299000591AY151999GF108991081061002501999999MD1210121+9999MW1101
0057380010999991971010715004+44550+050250FM-12-002099999V0203601N01391002401CN0020001N9-00221-00281102901ADDAY151999GF108991081051002501999999MD1210461+9999MW1101
0092380010999991971010718004+44550+050250FM-12-002099999V0203601N01591002401CN0100001N9-00221-00391103211ADDAA106004091AA299001091AY151999GF108991081061002501999999KA1999M+00391MD1210331+9999MW1021
0057380010999991971010721004+44550+050250FM-12-002099999V0203601N01591002401CN0100001N9-00281-00501103601ADDAY121999GF108991081061002501999999MD1210391+9999MW1021
0068380010999991971010800004+44550+050250FM-12-002099999V0203601N01591002401CN0100001N9-00391-00611103891ADDAA199000091AY121999GF108991081061002501999999MD1210291+9999MW1021
0068380010999991971010803004+44550+050250FM-12-002099999V0203601N01591002401CN0100001N9-00391-00611103891ADDAA199000091AY121999GF108991081061002501999999MD1210291+9999MW1021
0123380010999991971010806004+44550+050250FM-12-002099999V0200201N01591002401CN0200001N9-00501-00891104581ADDAA199000091AJ100009199999999AY121999GF107991071061002501001001HL10009IA1139IA2999-00509KA1999N-00501MD1210501+9999MW1021
0092380010999991971010809004+44550+050250FM-12-002099999V0200701N00511220001CN0200001N9-00281-01001104701ADDAY111999GF102991001001999999001021MD1210121+9999MW1021EQDQ01+000042APCTENQ02+000122APC3  
0068380010999991971010812004+44550+050250FM-12-002099999V0200701N00621220001CN0200001N9-00281-01281104831ADDAA199000091AY111999GF100991001001999999001001MD1210131+9999MW1021
0057380010999991971010815004+44550+050250FM-12-002099999V0200701N00311220001CN0100001N9-00391-01501104911ADDAY101999GF100991001001999999001001MD1210081+9999MW1021
0081380010999991971010818004+44550+050250FM-12-002099999V0201101N00821220001CN0100001N9-00391-01611104901ADDAA199000091AY101999GF100991001001999999001001KA1999M-00111MD1710011+9999MW1021
0057380010999991971010821004+44550+050250FM-12-002099999V0201101N01181220001CN0100001N9-00501-01721104691ADDAY101999GF100991001001999999001001MD1710211+9999MW1021
0068380010999991971010900004+44550+050250FM-12-002099999V0201101N01391220001CN0100001N9-00611-01891104501ADDAA199000091AY101999GF100991001001999999001001MD1710091+9999MW1021
0057380010999991971010903004+44550+050250FM-12-002099999V0201101N01591220001CN0100001N9-00721-01891104211ADDAY101999GF100991001001999999001001MD1710291+9999MW1021
0057380010999991971010906004+44550+050250FM-12-002099999V0201101N01391220001CN0200001N9-00501-01611104041ADDAY101999GF100991001001999999001001MD1710181+9999MW1021
0057380010999991971010909004+44550+050250FM-12-002099999V0201101N01591220001CN0010001N9-00111-01611103661ADDAY131999GF100991001001999999001001MD1710381+9999MW1311
0068380010999991971010912004+44550+050250FM-12-002099999V0201401N00981220001CN0200001N9+00001-01611103401ADDAA199000091AY131999GF100991001001999999001001MD1710261+9999MW1021
0057380010999991971010915004+44550+050250FM-12-002099999V0201401N01391220001CN0100001N9-00281-01781103251ADDAY101999GF100991001001999999001001MD1710151+9999MW1021
0081380010999991971010918004+44550+050250FM-12-002099999V0201401N01391220001CN0100001N9-00391-01611103051ADDAA199000091AY101999GF100991001001999999001001KA1999M+00001MD1710201+9999MW1021
0057380010999991971010921004+44550+050250FM-12-002099999V0201101N00981007801CN0100001N9-00281-01221102861ADDAY111999GF108991081051008001999999MD1710191+9999MW1011
0068380010999991971011000004+44550+050250FM-12-002099999V0201101N01181007801CN0100001N9-00281-01111102801ADDAA199000091AY111999GF108991081011008001999999MD1210061+9999MW1021
0057380010999991971011003004+44550+050250FM-12-002099999V0201101N00871007801CN0100001N9-00221-00721102771ADDAY121999GF108991081051008001999999MD1710031+9999MW1021
0123380010999991971011006004+44550+050250FM-12-002099999V0201101N00821007801CN0200001N9-00111-00781102801ADDAA199000091AJ100009199999999AY121999GF108991081051008001999999HL10009IA1009IA2999-00509KA1999N-00391MD1310031+9999MW1021
0057380010999991971011009004+44550+050250FM-12-002099999V0209991C00001002401CN0200001N9+00001-00281102791ADDAY151999GF108991081061002501999999MD1710011+9999MW1201
0079380010999991971011012004+44550+050250FM-12-002099999V0209991C00001012301CN0200001N9+00111-00111102811ADDAA106075091AA224999999AY121999GF108991081051012501999999MD1210071+9999MW1021
0057380010999991971011015004+44550+050250FM-12-002099999V0203601N00721012301CN0100001N9-00221-00501103201ADDAY121999GF108991081051012501999999MD1210211+9999MW1021
0092380010999991971011018004+44550+050250FM-12-002099999V0203601N00721012301CN0100001N9-00221-00721103141ADDAA106075091AA224999999AY121999GF107991071051012501001001KA1999M+00111MD1210121+9999MW1021
0068380010999991971011100004+44550+050250FM-12-002099999V0203601N00621004501CN0100001N9-00391-00781103191ADDAA199000091AY121999GF108991081061004501999999MD1210031+9999MW1021
0057380010999991971011103004+44550+050250FM-12-002099999V0203601N00511004501CN0100001N9-00501-00781103171ADDAY121999GF108991081061004501999999MD1710021+9999MW1021
0123380010999991971011106004+44550+050250FM-12-002099999V0203601N00511012301CN0200001N9-00391-00611103091ADDAA199000091AJ100009199999999AY121999GF107991071051012501001001HL10009IA1009IA2999-00619KA1999N-00501MD1710081+9999MW1021
0057380010999991971011109004+44550+050250FM-12-002099999V0209991C00001024001CN0200001N9-00111-00501102971ADDAY111999GF105991051001999999031001MD1710121+9999MW1021
0068380010999991971011112004+44550+050250FM-12-002099999V0209991C00001220001CN0200001N9-00111-00501102711ADDAA199000091AY111999GF100991001001999999001001MD1710261+9999MW1021
0057380010999991971011115004+44550+050250FM-12-002099999V0209991C00001220001CN0100001N9-00221-00501102591ADDAY101999GF100991001001999999001001MD1710121+9999MW1021
0084380010999991971011118004+44550+050250FM-12-002099999V0202001N00511021001CN0100001N9+01002+00001102371ADDAA106999999AA299210091AY111999GF108991051999022501001999MW1031EQDQ01  82702PRCP06
0068380010999991971011200004+44550+050250FM-12-002099999V0202001N00721007801CN0100001N9+00111+00001102061ADDAA199000091AY121999GF108991081051008001999999MD1710081+9999MW1021
0057380010999991971011203004+44550+050250FM-12-002099999V0202001N00721004501CN0100001N9+00111-00221101781ADDAY121999GF108991081051004501999999MD1710281+9999MW1021
0104380010999991971011206004+44550+050250FM-12-002099999V0201001N00721004501CN0200001N9+00111-00111101691ADDAA199000091AJ100009199999999AY121999GF108991081061004501999999IA1009KA1999N-00391MD1810091+9999MW1021
0057380010999991971011209004+44550+050250FM-12-002099999V0202701N00721004501CN0200001N9+00221-00111101491ADDAY121999GF107991071061004501001001MD1710201+9999MW1021
0068380010999991971011212004+44550+050250FM-12-002099999V0202701N00721002401CN0200001N9+00111-00221101361ADDAA199000091AY121999GF107991071061002501001001MD1610131+9999MW1021
0081380010999991971011215004+44550+050250FM-12-002099999V0203201N00981004501CN0100001N9-00221-00391101321ADDAA199000091AY121999GF108991081061004501999999KA1999M+00221MD1710031+9999MW1021
0057380010999991971011218004+44550+050250FM-12-002099999V0203201N00981004501CN0100001N9-00221-00391101321ADDAY121999GF108991081061004501999999MD1710031+9999MW1021
0057380010999991971011221004+44550+050250FM-12-002099999V0203201N00981004501CN0100001N9-00111-00281101211ADDAY121999GF108991081061004501999999MD1710091+9999MW1021
0068380010999991971011300004+44550+050250FM-12-002099999V0202901N00981004501CN0100001N9-00111-00221101141ADDAA199000091AY121999GF108991081071004501999999MD1710111+9999MW1021
0057380010999991971011303004+44550+050250FM-12-002099999V0203201N00981004501CN0100001N9+00001-00221101061ADDAY121999GF108991081061004501999999MD1710081+9999MW1021
0123380010999991971011306004+44550+050250FM-12-002099999V0203201N00981004501CN0200001N9+00001-00281101181ADDAA199000091AJ100009199999999AY121999GF108991081061004501999999HL10009IA1009IA2999-00229KA1999N-00221MD1210121+9999MW1021
0057380010999991971011309004+44550+050250FM-12-002099999V0202901N00981004501CN0200001N9+00111-00221101061ADDAY121999GF107991071061004501001001MD1710121+9999MW1021
0068380010999991971011312004+44550+050250FM-12-002099999V0203201N00981004501CN0200001N9+00111-00111101101ADDAA199000091AY121999GF107991071061004501001001MD1210041+9999MW1021
0057380010999991971011315004+44550+050250FM-12-002099999V0203401N01181004501CN0100001N9+00001-00281101141ADDAY121999GF108991081071004501999999MD1210041+9999MW1021
0081380010999991971011318004+44550+050250FM-12-002099999V0209991C00001007801CN0100001N9-00221-00391101121ADDAA199000091AY171999GF107991071051008001001001KA1999M+00281MD1710021+9999MW1021
0057380010999991971011321004+44550+050250FM-12-002099999V0200701N00981007801CN0100001N9-00111-00611101561ADDAY121999GF107991071051008001001001MD1210461+9999MW1021
0079380010999991971011400004+44550+050250FM-12-002099999V0200201N00981007801CN0100001N9-00611-00891101841ADDAA106075091AA224999999AY121999GF107991071051008001001001MD1210321+9999MW1021
0057380010999991971011403004+44550+050250FM-12-002099999V0200701N01081007801CN0100001N9-00721-01111102211ADDAY121999GF106991061051008001001001MD1210271+9999MW1021
0076380010999991971011409004+44550+050250FM-12-002099999V0200201N01391007801CN0200001N9-01281-01891103472ADDAY121999GF105991051011008001001001MD1210441+9999MW1021EQDQ01+103473APOSLP
0068380010999991971011412004+44550+050250FM-12-002099999V0203601N01181007801CN0200001N9-01391-01891103791ADDAA199000091AY121999GF107991071091008001001001MD1210321+9999MW1021
0057380010999991971011415004+44550+050250FM-12-002099999V0203601N00511007801CN0100001N9-01391-02001103881ADDAY121999GF105991051011008001001001MD1210091+9999MW1021
0081380010999991971011418004+44550+050250FM-12-002099999V0203601N00311220001CN0100001N9-01391-01891103931ADDAA199000091AY111999GF102991021011008001001001KA1999M+00001MD1210051+9999MW1011
0057380010999991971011421004+44550+050250FM-12-002099999V0209991C00001220001CN0100001N9-01391-02001103851ADDAY101999GF100991001001999999001001MD1710081+9999MW1021
0068380010999991971011500004+44550+050250FM-12-002099999V0209991C00001004501CN0100001N9-01281-01611103701ADDAA199000091AY111999GF107991071061004501001001MD1710151+9999MW1021
0057380010999991971011503004+44550+050250FM-12-002099999V0209991C00001007801CN0100001N9-01111-01391103471ADDAY121999GF107991071011008001001001MD1710231+9999MW1021
0123380010999991971011506004+44550+050250FM-12-002099999V0202301N01181220001CN0200001N9-00501-01281103391ADDAA199000091AJ100009199999999AY111999GF104991041011008001001001HL10009IA1009IA2999-01619KA1999N-01611MD1710091+9999MW1011
0057380010999991971011509004+44550+050250FM-12-002099999V0202301N01181007801CN0200001N9-00281-01001103141ADDAY111999GF107991071011008001001001MD1710251+9999MW1021
0068380010999991971011512004+44550+050250FM-12-002099999V0202301N01391007801CN0200001N9-00221-01001102951ADDAA199000091AY111999GF107991071011008001001001MD1710191+9999MW1021
0057380010999991971011515004+44550+050250FM-12-002099999V0202301N01391007801CN0100001N9+00001-00611102741ADDAY121999GF107991071011008001001001MD1710211+9999MW1021
0081380010999991971011518004+44550+050250FM-12-002099999V0202301N01391007801CN0100001N9+00001-00391102541ADDAA199000091AY121999GF107991061011008001001021KA1999M+00001MD1710101+9999MW1021
0076380010999991971011521004+44550+050250FM-12-002099999V0202301N01181220001CN0100001N9+00001-00111102451ADDAY121999GF103991999021000751001001MD1510001+9999MW1011EQDQ01+000022SCOTLC
0068380010999991971011600004+44550+050250FM-12-002099999V0202301N00981220001CN0100001N9+00001-00781102351ADDAA199000091AY111999GF100991001001999999001001MD1710081+9999MW1021
0043380010999991971011603004+44550+050250FM-12-002099999V0202301N00981220001CN0100001N9+00111-00721102331ADDAY101999GF100991001001999999001001MW1021
0123380010999991971011606004+44550+050250FM-12-002099999V0202501N00871220001CN0200001N9+00111-00781102311ADDAA199000091AJ100009199999999AY101999GF101991001001999999001021HL10009IA1009IA2999-00289KA1999N+00001MD1710021+9999MW1021
0068380010999991971011612004+44550+050250FM-12-002099999V0202501N00621220001CN0200001N9+00221-00611102221ADDAA199000091AY111999GF101991001001999999001021MD1710011+9999MW1021
0057380010999991971011615004+44550+050250FM-12-002099999V0202501N00621220001CN0100001N9+00221-00611102281ADDAY111999GF100991001001999999001001MD1210061+9999MW1021
0081380010999991971011618004+44550+050250FM-12-002099999V0202501N00311220001CN0100001N9+00221-00391102351ADDAA199000091AY111999GF100991001001999999001001KA1999M+00281MD1210071+9999MW1021
0057380010999991971011621004+44550+050250FM-12-002099999V0202501N00211220001CN0100001N9+00221-00281102321ADDAY101999GF100991001001999999001001MD1710031+9999MW1021
0068380010999991971011700004+44550+050250FM-12-002099999V0209991C00001220001CN0100001N9-00111-00501102331ADDAA199000091AY101999GF100991001001999999001001MD1210011+9999MW1021
0109380010999991971011706004+44550+050250FM-12-002099999V0209991C00001220001CN0200001N9+00001-00221102491ADDAA199000091AJ100009199999999AY101999GF100991001001999999001001HL10009IA1009IA2999-01009KA1999N-00391MW1021
0068380010999991971011712004+44550+050250FM-12-002099999V0201401N00511007801CN0200001N9+00501+00111102411ADDAA199000091AY111999GF107991071011008001001001MD1710041+9999MW1021
0057380010999991971011715004+44550+050250FM-12-002099999V0201401N00621220001CN0100001N9+00221+00221102481ADDAY111999GF103991031041008001001001MD1210071+9999MW1011
0100380010999991971011718004+44550+050250FM-12-002099999V0201401N00721007801CN0040001N9+00281+00221102521ADDAA199999999AY111999GF107991071031008001001001KA1999M+00611MD1210041+9999MW1601EQDQ01  00002PRCP99
0043380010999991971011721004+44550+050250FM-12-002099999V0201401N00511007801CN0100001N9+00281+00221102321ADDAY161999GF107991071031008001001001MW1611
0079380010999991971011800004+44550+050250FM-12-002099999V0201401N00511007801CN0100001N9+00221+00111102511ADDAA106001091AA299000391AY161999GF108991071041008001021999MD1710011+9999MW1021
0057380010999991971011803004+44550+050250FM-12-002099999V0201401N00511004501CN0100001N9+00221-00111102511ADDAY161999GF107991071031004501999999MD1410001+9999MW1601
0112380010999991971011806004+44550+050250FM-12-002099999V0201401N00511007801CN0200001N9+00221-00221102661ADDAJ100009199999999AY161999GF107991071051008001001001HL10009IA1089IA2999+00119KA1999N+00221MD1210151+9999MW1021
0068380010999991971011812004+44550+050250FM-12-002099999V0209991C00001220001CN0200001N9+00391+00111102601ADDAA199000091AY111999GF103991021051008001031001MD1710031+9999MW1011
0057380010999991971011815004+44550+050250FM-12-002099999V0209991C00001220001CN0100001N9+00221-00111102701ADDAY101999GF100991001001999999001001MD1310131+9999MW1021
0057380010999991971011818004+44550+050250FM-12-002099999V0209991C00001220001CN0100001N9+00001-00111102711ADDAY101999GF100991001001999999001001MD1210081+9999MW1021
0057380010999991971011821004+44550+050250FM-12-002099999V0209991C00001220001CN0100001N9+00001-00111102751ADDAY101999GF100991001001999999001001MD1710011+9999MW1021
0068380010999991971011900004+44550+050250FM-12-002099999V0209991C00001220001CN0100001N9+00001-00111102781ADDAA199000091AY101999GF100991001001999999001001MD1210031+9999MW1021
0057380010999991971011903004+44550+050250FM-12-002099999V0209991C00001220001CN0100001N9-00281-00501102741ADDAY101999GF100991001001999999001001MD1710051+9999MW1021
0123380010999991971011906004+44550+050250FM-12-002099999V0201801N00211220001CN0200001N9-00221-00391102871ADDAA199000091AJ100009199999999AY101999GF100991001001999999001001HL10009IA1139IA2999-00729KA1999N-00281MD1310131+9999MW1021
0068380010999991971011912004+44550+050250FM-12-002099999V0201601N00211220001CN0200001N9+00501-00391102801ADDAA199000091AY101999GF100991001001999999001001MD1710041+9999MW1021
0057380010999991971011915004+44550+050250FM-12-002099999V0209991C00001220001CN0100001N9+00221-00281102911ADDAY101999GF100991001001999999001001MD1310111+9999MW1021
0081380010999991971011918004+44550+050250FM-12-002099999V0200501N00311220001CN0100001N9+00111-00221102891ADDAA199000091AY101999GF100991001001999999001001KA1999M+00501MD1410001+9999MW1021
0057380010999991971011921004+44550+050250FM-12-002099999V0201101N00511220001CN0100001N9+00001-00391102861ADDAY101999GF100991001001999999001001MD1710031+9999MW1021
0068380010999991971012000004+44550+050250FM-12-002099999V0209991C00001220001CN0100001N9+00001-00281102851ADDAA199000091AY101999GF100991001001999999001001MD1710011+9999MW1021
0057380010999991971012003004+44550+050250FM-12-002099999V0201401N00511220001CN0100001N9+00001-00721102851ADDAY101999GF100991001001999999001001MD1410001+9999MW1021
0123380010999991971012006004+44550+050250FM-12-002099999V0201101N00511220001CN0200001N9+00111-00611102901ADDAA199000091AJ100009199999999AY101999GF100991001001999999001001HL10009IA1139IA2999-00619KA1999N-00111MD1210051+9999MW1021
0068380010999991971012012004+44550+050250FM-12-002099999V0201101N00981220001CN0200001N9+00501-00611102811ADDAA199000091AY101999GF102991001001999999001021MD1710051+9999MW1021
0057380010999991971012015004+44550+050250FM-12-002099999V0201101N00981220001CN0100001N9+00221-00281102861ADDAY101999GF100991001001999999001001MD1210051+9999MW1021
0057380010999991971012018004+44550+050250FM-12-002099999V0201101N00981220001CN0100001N9+00111-00721102871ADDAY101999GF100991001001999999001001MD1210081+9999MW1021
0057380010999991971012021004+44550+050250FM-12-002099999V0201101N00981220001CN0100001N9+00001-00891102751ADDAY101999GF100991001001999999001001MD1710111+9999MW1021
0068380010999991971012100004+44550+050250FM-12-002099999V0201101N00981220001CN0100001N9-00221-01001102781ADDAA199000091AY101999GF100991001001999999001001MD1210031+9999MW1021
0057380010999991971012103004+44550+050250FM-12-002099999V0201101N00981220001CN0100001N9-00281-01111102761ADDAY101999GF100991001001999999001001MD1710011+9999MW1021
0057380010999991971012106004+44550+050250FM-12-002099999V0201401N01181220001CN0200001N9-00221-01001102891ADDAY101999GF100991001001999999001001MD1310131+9999MW1021
0057380010999991971012109004+44550+050250FM-12-002099999V0201401N00981220001CN0200001N9+00111-00721102811ADDAY101999GF100991001001999999001001MD1710091+9999MW1021
0068380010999991971012112004+44550+050250FM-12-002099999V0201401N00621220001CN0200001N9+00281-00611102761ADDAA199000091AY101999GF100991001001999999001001MD1710061+9999MW1021
0057380010999991971012115004+44550+050250FM-12-002099999V0209991C00001220001CN0100001N9+00111-00611102851ADDAY101999GF100991001001999999001001MD1310111+9999MW1021
0057380010999991971012118004+44550+050250FM-12-002099999V0201401N00721220001CN0100001N9+00001-00721102871ADDAY101999GF100991001001999999001001MD1210021+9999MW1021
0063380010999991971012121004+44550+050250FM-12-002099999V0201401N00311220001CN0100001N9-00221-00501102831ADDAY101999GF100991001001999999001001IA1319MD1710041+9999MW1021
0157380010999991971012200004+44550+050250FM-12-002099999V0201401N00871220001CN0100001N9-00281-01001102791ADDAA199000091AY101999GA1011+002409049GA2041+003609049GF199999999001999999001001IA1009MD1710041+9999MW1021EQDQ01+000002SCOTCVQ02+000002SCOTLCQ03+000992SCOLCB
0057380010999991971012203004+44550+050250FM-12-002099999V0201401N00511220001CN0100001N9-00391-00891102901ADDAY101999GF100991001001999999001001MD1310111+9999MW1021
0057380010999991971012206004+44550+050250FM-12-002099999V0201401N00311004501CN0200001N9-00281-00611103281ADDAY101999GF105991051061004501001001MD1210321+9999MW1031
0057380010999991971012209004+44550+050250FM-12-002099999V0201601N00621220001CN0200001N9+00001-00501103121ADDAY111999GF100991001001999999001001MD1810101+9999MW1021
0068380010999991971012212004+44550+050250FM-12-002099999V0209991C00001220001CN0200001N9+00111-00391103081ADDAA199000091AY111999GF100991001001999999001001MD1710061+9999MW1021
0081380010999991971012218004+44550+050250FM-12-002099999V0209991C00001220001CN0100001N9-00111-00781103171ADDAA199000091AY101999GF100991001001999999001001KA1999M+00281MD1210081+9999MW1021
0057380010999991971012221004+44550+050250FM-12-002099999V0201401N00871220001CN0100001N9-00281-00721103191ADDAY101999GF100991001001999999001001MD1210021+9999MW1021
0068380010999991971012300004+44550+050250FM-12-002099999V0201401N00821220001CN0100001N9-00611-00891103311ADDAA199000091AY101999GF100991001001999999001001MD1210121+9999MW1021
0123380010999991971012306004+44550+050250FM-12-002099999V0209991C00001220001CN0200001N9-00281-00721103481ADDAA199000091AJ100009199999999AY101999GF100991001001999999001001HL10009IA1009IA2999-00789KA1999N-00611MD1210121+9999MW1021
0054380010999991971012312004+44550+050250FM-12-002099999V0201601N00821220001CN0200001N9+00281-00221103401ADDAA199000091AY101999GF100991001001999999001001MW1021
0057380010999991971012315004+44550+050250FM-12-002099999V0201401N00511220001CN0100001N9+00111-00281103441ADDAY101999GF100991001001999999001001MD1210051+9999MW1021
0081380010999991971012318004+44550+050250FM-12-002099999V0201401N00821220001CN0100001N9+00001-00391103461ADDAA199000091AY101999GF100991001001999999001001KA1999M+00281MD1210031+9999MW1021
0057380010999991971012321004+44550+050250FM-12-002099999V0201401N00511220001CN0100001N9-00221-00391103451ADDAY101999GF100991001001999999001001MD1710011+9999MW1021
0068380010999991971012400004+44550+050250FM-12-002099999V0201401N00981002401CN0100001N9+00001-00221103391ADDAA199000091AY111999GF108991081061002501999999MD1710061+9999MW1031
0057380010999991971012403004+44550+050250FM-12-002099999V0201401N00981002401CN0100001N9-00111-00281103341ADDAY121999GF108991081061002501999999MD1710051+9999MW1021
0123380010999991971012406004+44550+050250FM-12-002099999V0201401N00511004501CN0200001N9-00111-00391103481ADDAA199000091AJ100009199999999AY121999GF108991081061004501999999HL10009IA1009IA2999-00509KA1999N-00221MD1310121+9999MW1021
0057380010999991971012409004+44550+050250FM-12-002099999V0201401N00721004501CN0200001N9+00221-00111103371ADDAY121999GF108991081061004501999999MD1810161+9999MW1021
0068380010999991971012412004+44550+050250FM-12-002099999V0201401N00981007801CN0200001N9+00281+00001103251ADDAA199000091AY121999GF105991051051008001001001MD1710121+9999MW1021
0057380010999991971012415004+44550+050250FM-12-002099999V0201401N00981220001CN0100001N9+00221-00111103201ADDAY111999GF100991001001999999001001MD1710051+9999MW1021
0057380010999991971012421004+44550+050250FM-12-002099999V0201601N01081220001CN0100001N9+00111-00391103041ADDAY101999GF100991001001999999001001MD1710111+9999MW1021
0068380010999991971012500004+44550+050250FM-12-002099999V0201601N01391220001CN0100001N9+00281+00001102971ADDAA199000091AY101999GF100991001001999999001001MD1710111+9999MW1021
0057380010999991971012503004+44550+050250FM-12-002099999V0201601N01181220001CN0100001N9+00221+00001102921ADDAY101999GF100991001001999999001001MD1710051+9999MW1021
0123380010999991971012506004+44550+050250FM-12-002099999V0201401N01081090001CN0200001N9+00221-00221102971ADDAA199000091AJ100009199999999AY111999GF105991031051008001001021HL10009IA1139IA2999-00119KA1999N+00111MD1210051+9999MW1021
0057380010999991971012509004+44550+050250FM-12-002099999V0201401N01181220001CN0200001N9+00611+00001102901ADDAY111999GF103991001001999999001021MD1710071+9999MW1021
0068380010999991971012512004+44550+050250FM-12-002099999V0201401N00981220001CN0200001N9+00721+00001102831ADDAA199000091AY111999GF101991001001999999001021MD1710071+9999MW1021
0057380010999991971012515004+44550+050250FM-12-002099999V0201401N01181220001CN0200001N9+00391-00281102921ADDAY101999GF100991001001999999001001MD1310091+9999MW1021
0081380010999991971012518004+44550+050250FM-12-002099999V0201401N00981220001CN0100001N9+00221-00501102971ADDAA199000091AY101999GF100991001001999999001001KA1999M+00721MD1210051+9999MW1021
0068380010999991971012600004+44550+050250FM-12-002099999V0201401N01391220001CN0100001N9-00111-00891102891ADDAA199000091AY101999GF100991001001999999001001MD1210021+9999MW1021
0057380010999991971012603004+44550+050250FM-12-002099999V0201401N01391220001CN0100001N9-00111-01111103041ADDAY101999GF100991001001999999001001MD1210151+9999MW1021
0123380010999991971012606004+44550+050250FM-12-002099999V0201401N01181220001CN0200001N9+00001-01391102961ADDAA199000091AJ100009199999999AY101999GF100991001001999999001001HL10009IA1009IA2999-00399KA1999N-00221MD1210091+9999MW1021
0057380010999991971012609004+44550+050250FM-12-002099999V0201401N01181220001CN0200001N9+00391-01111102941ADDAY101999GF100991001001999999001001MD1710041+9999MW1021
0068380010999991971012612004+44550+050250FM-12-002099999V0201401N01181220001CN0200001N9+00611-02111102901ADDAA199000091AY101999GF100991001001999999001001MD1710041+9999MW1011
0057380010999991971012615004+44550+050250FM-12-002099999V0201101N00981220001CN0100001N9+00281-01281102881ADDAY101999GF100991001001999999001001MD1710021+9999MW1021
0081380010999991971012618004+44550+050250FM-12-002099999V0201601N00981220001CN0100001N9+00111-01221102851ADDAA199000091AY101999GF100991001001999999001001KA1999M+00781MD1710021+9999MW1021
0057380010999991971012621004+44550+050250FM-12-002099999V0201401N01181220001CN0100001N9+00001-01221102801ADDAY101999GF100991001001999999001001MD1710051+9999MW1021
0068380010999991971012700004+44550+050250FM-12-002099999V0201401N02011220001CN0020001N9+00001-01611102711ADDAA199000091AY141999GF100991001001999999001001MD1710091+9999MW1351
0057380010999991971012703004+44550+050250FM-12-002099999V0201401N01801220001CN0100001N9-00611-01891102721ADDAY101999GF100991001001999999001001MD1310011+9999MW1021
0057380010999991971012706004+44550+050250FM-12-002099999V0201401N01181220001CN0200001N9+00111-01221102871ADDAY131999GF100991001001999999001001MD1210141+9999MW1021
0057380010999991971012709004+44550+050250FM-12-002099999V0201401N01391220001CN9999999N9+00611-01001102861ADDAY131999GF100991001001999999001001MD1710021+9999MW1341
0068380010999991971012712004+44550+050250FM-12-002099999V0201401N01181220001CN0200001N9+00781-01721102851ADDAA199000091AY131999GF100991001001999999001001MD1210011+9999MW1021
0057380010999991971012715004+44550+050250FM-12-002099999V0201401N01181220001CN0100001N9+00391-01611102861ADDAY101999GF100991001001999999001001MD1210011+9999MW1021
0067380010999991971012718004+44550+050250FM-12-002099999V0201401N01181220001CN0100001N9+00221-01221102921ADDAA199000091AY101999GF100991001001999999001001KA1999M+00781MW1021
0057380010999991971012721004+44550+050250FM-12-002099999V0201401N01181220001CN0100001N9+00001-01221102841ADDAY101999GF100991001001999999001001MD1710061+9999MW1021
0068380010999991971012800004+44550+050250FM-12-002099999V0201401N00411220001CN0100001N9-00111-00891102871ADDAA199000091AY101999GF100991001001999999001001MD1710071+9999MW1021
0057380010999991971012803004+44550+050250FM-12-002099999V0201401N01391220001CN0100001N9-00111-01221102791ADDAY101999GF100991001001999999001001MD1210011+9999MW1021
0123380010999991971012806004+44550+050250FM-12-002099999V0201401N01181220001CN0200001N9+00001-01111102891ADDAA199000091AJ100009199999999AY101999GF100991001001999999001001HL10009IA1009IA2999-00289KA1999N-00221MD1210101+9999MW1021
0057380010999991971012809004+44550+050250FM-12-002099999V0201401N01181220001CN0200001N9+00501-01001102921ADDAY101999GF100991001001999999001001MD1210011+9999MW1021
0068380010999991971012812004+44550+050250FM-12-002099999V0201401N00981220001CN0020001N9+00721-01721102841ADDAA199000091AY101999GF100991001001999999001001MD1710081+9999MW1051
0057380010999991971012815004+44550+050250FM-12-002099999V0201401N00411220001CN0100001N9+00281-01111102831ADDAY101999GF100991001001999999001001MD1510011+9999MW1021
0081380010999991971012818004+44550+050250FM-12-002099999V0201401N00981220001CN0100001N9+00221-01281102841ADDAA199000091AY101999GF100991001001999999001001KA1999M+00721MD1210011+9999MW1021
0068380010999991971012900004+44550+050250FM-12-002099999V0201401N01391220001CN0100001N9-00221-01391102661ADDAA199000091AY101999GF100991001001999999001001MD1710071+9999MW1021
0057380010999991971012903004+44550+050250FM-12-002099999V0201401N01391220001CN0100001N9-00111-01391102641ADDAY101999GF100991001001999999001001MD1710021+9999MW1021
0123380010999991971012906004+44550+050250FM-12-002099999V0201401N01181220001CN0200001N9+00111-01111102711ADDAA199000091AJ100009199999999AY101999GF100991001001999999001001HL10009IA1009IA2999-00399KA1999N-00281MD1310071+9999MW1021
0057380010999991971012909004+44550+050250FM-12-002099999V0201401N01181220001CN0200001N9+00501-00721102691ADDAY101999GF100991001001999999001001MD1710041+9999MW1021
0068380010999991971012912004+44550+050250FM-12-002099999V0201401N00981220001CN0200001N9+00611-01281102711ADDAA199000091AY101999GF100991001001999999001001MD1310021+9999MW1021
0057380010999991971012915004+44550+050250FM-12-002099999V0201401N00511220001CN0100001N9+00391-01221102721ADDAY101999GF100991001001999999001001MD1210011+9999MW1051
0057380010999991971012921004+44550+050250FM-12-002099999V0201401N00981220001CN0100001N9+00001-00891102741ADDAY101999GF100991001001999999001001MD1710021+9999MW1021
0068380010999991971013000004+44550+050250FM-12-002099999V0201401N00981220001CN0100001N9+00001-00891102761ADDAA199000091AY101999GF100991001001999999001001MD1310091+9999MW1021
0068380010999991971013003004+44550+050250FM-12-002099999V0201401N00981220001CN0100001N9+00001-00891102761ADDAA199000091AY101999GF100991001001999999001001MD1310091+9999MW1021
0123380010999991971013006004+44550+050250FM-12-002099999V0201801N00511220001CN0200001N9+00001-01001102951ADDAA199000091AJ100009199999999AY101999GF100991001001999999001001HL10009IA1009IA2999-00899KA1999N-00221MD1210141+9999MW1021
0057380010999991971013009004+44550+050250FM-12-002099999V0201601N00511220001CN0200001N9+00501-01111102911ADDAY101999GF100991001001999999001001MD1710061+9999MW1021
0068380010999991971013012004+44550+050250FM-12-002099999V0203601N00101220001CN0200001N9+00221-00391102831ADDAA199000091AY101999GF100991001001999999001001MD1710081+9999MW1021
0057380010999991971013015004+44550+050250FM-12-002099999V0209991C00001220001CN0100001N9-00111-00281102751ADDAY101999GF100991001001999999001001MD1710061+9999MW1021
0057380010999991971013021004+44550+050250FM-12-002099999V0201101N00211220001CN0100001N9+00001-01281102691ADDAY101999GF100991001001999999001001MD1710011+9999MW1021
0068380010999991971013100004+44550+050250FM-12-002099999V0209991C00001220001CN0100001N9-00111-01111102711ADDAA199000091AY101999GF100991001001999999001001MD1210021+9999MW1021
0092380010999991971013103004+44550+050250FM-12-002099999V0209991C00001220001CN0100001N9-00111-01391102531ADDAY101999GF100991001001999999001001MD1710181+9999MW1021EQDQ01+000042APCTENQ02+000022APC3  
0081380010999991971013106004+44550+050250FM-12-002099999V0201401N00411220001CN0200001N9+00111-00891102911ADDAA199000091AY101999GF101991001001999999001021KA1999N-00221MD1210181+9999MW1031
0057380010999991971013109004+44550+050250FM-12-002099999V0201601N00101220001CN0200001N9+00391-00281102941ADDAY101999GF101991001001999999001021MD1210011+9999MW1021
0068380010999991971013112004+44550+050250FM-12-002099999V0209991C00001220001CN0200001N9+00281-00221102881ADDAA199000091AY101999GF100991001001999999001001MD1710021+9999MW1021
0068380010999991971020100004+44550+050250FM-12-002099999V0209991C00001220001CN0100001N9-00391-00781103141ADDAA199000091AY101999GF100991001001999999001001MD1210061+9999MW1021
0057380010999991971020103004+44550+050250FM-12-002099999V0209991C00001220001CN0100001N9-00221-00611103001ADDAY101999GF100991001001999999001001MD1710051+9999MW1021
0057380010999991971020106004+44550+050250FM-12-002099999V0209991C00001220001CN0200001N9-00111-00391103271ADDAY101999GF100991001001999999001001MD1210181+9999MW1021
0057380010999991971020109004+44550+050250FM-12-002099999V0209991C00001220001CN0200001N9+00281-00781103161ADDAY101999GF100991001001999999001001MD1710131+9999MW1021
0068380010999991971020112004+44550+050250FM-12-002099999V0203601N00411220001CN0200001N9+00391-01001103071ADDAA199000091AY101999GF100991001001999999001001MD1710091+9999MW1021
0057380010999991971020115004+44550+050250FM-12-002099999V0200901N00311220001CN0100001N9+00111-01281103041ADDAY101999GF100991001001999999001001MD1710031+9999MW1021
0081380010999991971020118004+44550+050250FM-12-002099999V0200901N00411220001CN0100001N9+00001-00611102941ADDAA199000091AY101999GF100991001001999999001001KA1999M+00391MD1710081+9999MW1021
0068380010999991971020200004+44550+050250FM-12-002099999V0209991C00001220001CN0100001N9-00281-00891102761ADDAA199000091AY101999GF100991001001999999001001MD1710111+9999MW1021
0057380010999991971020203004+44550+050250FM-12-002099999V0201401N00511220001CN0100001N9-00221-00721102671ADDAY101999GF100991001001999999001001MD1710091+9999MW1021
0123380010999991971020206004+44550+050250FM-12-002099999V0201401N00511220001CN0100001N9+00001-00781102691ADDAA199000091AJ100009199999999AY101999GF100991001001999999001001HL10009IA1009IA2999+00619KA1999N-00281MD1210021+9999MW1021
0068380010999991971020212004+44550+050250FM-12-002099999V0201401N00511220001CN0200001N9+00391-01111102391ADDAA199000091AY101999GF100991001001999999001001MD1710291+9999MW1021
0092380010999991971020215004+44550+050250FM-12-002099999V0209991C00001220001CN0100001N9+00001-00891102371ADDAA106035091AA299009091AY101999GF100991001001999999001001KA1999M+02391MD1710021+9999MW1021
0081380010999991971020218004+44550+050250FM-12-002099999V0201401N00511220001CN0100001N9+00001-00891102281ADDAA199000091AY101999GF100991001001999999001001KA1999M+00501MD1710091+9999MW1021
0068380010999991971020300004+44550+050250FM-12-002099999V0201401N01181220001CN0100001N9-00281-01001102011ADDAA199000091AY101999GF100991001001999999001001MD1710131+9999MW1021
0057380010999991971020303004+44550+050250FM-12-002099999V0201101N01181220001CN0100001N9-00391-01111101881ADDAY101999GF100991001001999999001001MD1710111+9999MW1021
0087380010999991971020306004+44550+050250FM-12-002099999V0201101N00871220001CN0200001N9-00221-01001102021ADDAA199000091AY101999GF100991001001999999001001IA1209KA1999N-00391MD1310121+9999MW1021
0057380010999991971020309004+44550+050250FM-12-002099999V0200901N00981220001CN0200001N9+00281-00891101871ADDAY101999GF100991001001999999001001MD1810151+9999MW1021
0068380010999991971020312004+44550+050250FM-12-002099999V0200701N00721220001CN0500001N9+00001-00781101791ADDAA199000091AY101999GF100991001001999999001001MD1710081+9999MW1021
0057380010999991971020315004+44550+050250FM-12-002099999V0200701N01181090001CN0100001N9-00221-00781101751ADDAY111999GF106991021001999999031021MD1710051+9999MW1031
0057380010999991971020318004+44550+050250FM-12-002099999V0200201N00621220001CN0100001N9-00221-00721101791ADDAY111999GF106991001001999999001021MD1310041+9999MW1021
0057380010999991971020321004+44550+050250FM-12-002099999V0201401N00981024001CN0100001N9-00111-01001101821ADDAY121999GF107991071001999999031001MD1210031+9999MW1021
0068380010999991971020400004+44550+050250FM-12-002099999V0201401N00411220001CN0100001N9-00221-00891101751ADDAA199000091AY111999GF102991021001999999031001MD1810071+9999MW1011
0057380010999991971020403004+44550+050250FM-12-002099999V0201401N00411220001CN0100001N9-00221-00891101751ADDAY111999GF102991021001999999031001MD1810071+9999MW1011
0123380010999991971020406004+44550+050250FM-12-002099999V0200701N00411024001CN0200001N9-00221-00611101911ADDAA199000091AJ100009199999999AY111999GF106991061001999999031001HL10009IA1009IA2999-00619KA1999N-00281MD1210061+9999MW1021
0057380010999991971020409004+44550+050250FM-12-002099999V0200201N00411024001CN0200001N9+00221-00501101931ADDAY121999GF106991061001999999031001MD1210021+9999MW1021
0068380010999991971020412004+44550+050250FM-12-002099999V0203601N00621024001CN0200001N9+00001-00611101861ADDAA199000091AY121999GF106991061001999999031001MD1810071+9999MW1021
0057380010999991971020415004+44550+050250FM-12-002099999V0200701N00621024001CN0100001N9-00111-00611102061ADDAY121999GF107991071001999999031001MD1210201+9999MW1021
0081380010999991971020418004+44550+050250FM-12-002099999V0200501N00721024001CN0100001N9-00281-00501102031ADDAA199000091AY121999GF105991051001999999031001KA1999M+00221MD1710021+9999MW1021
0068380010999991971020500004+44550+050250FM-12-002099999V0200501N00511220001CN0100001N9-00391-00611102001ADDAA199000091AY121999GF100991001001999999001001MD1710061+9999MW1021
0057380010999991971020503004+44550+050250FM-12-002099999V0200501N00511220001CN0100001N9-00501-00611101971ADDAY101999GF100991001001999999001001MD1710031+9999MW1021
0123380010999991971020506004+44550+050250FM-12-002099999V0203601N00311220001CN0200001N9-00391-00611102021ADDAA199000091AJ100009199999999AY101999GF100991001001999999001001HL10009IA1139IA2999-00619KA1999N-00501MD1210051+9999MW1021
0057380010999991971020509004+44550+050250FM-12-002099999V0203601N00821220001CN0200001N9-00281-00721101941ADDAY101999GF100991001001999999001001MD1710081+9999MW1021
0068380010999991971020512004+44550+050250FM-12-002099999V0203601N00821220001CN0200001N9-00281-00501101771ADDAA199000091AY111999GF102991001001999999001021MD1710171+9999MW1031
0057380010999991971020515004+44550+050250FM-12-002099999V0209991C00001220001CN0100001N9-00391-00721101721ADDAY101999GF100991001001999999001001MD1710051+9999MW1021
0081380010999991971020518004+44550+050250FM-12-002099999V0209991C00001220001CN0100001N9-00501-00721101621ADDAA199000091AY101999GF100991001001999999001001KA1999M-00111MD1710101+9999MW1021
0057380010999991971020521004+44550+050250FM-12-002099999V0209991C00001220001CN0100001N9-00611-00891101451ADDAY101999GF100991001001999999001001MD1710171+9999MW1021
0068380010999991971020600004+44550+050250FM-12-002099999V0209991C00001220001CN0100001N9-00721-00891101271ADDAA199000091AY101999GF100991001001999999001001MD1710181+9999MW1021
0043380010999991971020603004+44550+050250FM-12-002099999V0209991C00001220001CN0100001N9-00501-00611101141ADDAY101999GF100991001001999999001001MW1021
0123380010999991971020606004+44550+050250FM-12-002099999V0201401N00211220001CN0200001N9-00111-00281101001ADDAA199000091AJ100009199999999AY101999GF103991031001999999031001HL10009IA1139IA2999-01119KA1999N-00781MD1710161+9999MW1021
0057380010999991971020609004+44550+050250FM-12-002099999V0202301N00511012301CN0200001N9+00391+00111100801ADDAY111999GF108991081051012501999999MD1710201+9999MW1021
0098380010999991971020612004+44550+050250FM-12-002099999V0202701N00721004501CN0100001N9+00281+00221100711ADDAA106075091AA224999999AY161999GF108991999071004501021999MD1710091+9999MW1611EQDQ01+000082SCOTLC
0057380010999991971020615004+44550+050250FM-12-002099999V0202701N00981004501CN0020001N9+00001-00111100991ADDAY171999GF108991081091004501999999MD1310281+9999MW1741
0092380010999991971020618004+44550+050250FM-12-002099999V0202701N01181004501CN0100001N9-00111-00221101181ADDAA106001091AA299000391AY121999GF108991081091004501999999KA1999M+00391MD1210191+9999MW1011
0057380010999991971020621004+44550+050250FM-12-002099999V0203201N00981007801CN0100001N9-00221-00281101141ADDAY121999GF106991061051008001999001MD1710041+9999MW1021
0079380010999991971020700004+44550+050250FM-12-002099999V0202301N00311007801CN0100001N9+00001-00721100971ADDAA106012091AA299003091AY121999GF106991061051008001001001MD1710171+9999MW1021
0057380010999991971020703004+44550+050250FM-12-002099999V0202301N00871007801CN0100001N9+00001-00611100881ADDAY121999GF108991081051008001999999MD1710091+9999MW1021
0095380010999991971020706004+44550+050250FM-12-002099999V0202301N00981220001CN0200001N9+00221-00391100871ADDAY121999GF106991001001999999001021HL10009IA1319IA2999-00399KA1999N-00221MD1710011+9999MW1011
0057380010999991971020709004+44550+050250FM-12-002099999V0201601N00981024001CN0200001N9+00391+00001100651ADDAY121999GF107991071001999999031001MD1710221+9999MW1021
0068380010999991971020712004+44550+050250FM-12-002099999V0201601N00411021001CN0200001N9+00391-00111100461ADDAA199000091AY121999GF106991051001022501031021MD1710191+9999MW1021
0057380010999991971020715004+44550+050250FM-12-002099999V0200201N002119999999N0100001N9+00221+00001100361ADDAY121999GF107991071051999999999999MD1710101+9999MW1021
0081380010999991971020718004+44550+050250FM-12-002099999V0203401N01181007801CN0100001N9+00001-00281100501ADDAA199000091AY121999GF107991071051008001001001KA1999M+00611MD1310141+9999MW1021
0057380010999991971020721004+44550+050250FM-12-002099999V0202901N01391007801CN0100001N9-00111-00611100781ADDAY121999GF107991071051008001001001MD1110281+9999MW1021
0068380010999991971020800004+44550+050250FM-12-002099999V0202901N01801004501CN0100001N9-00111-00501101071ADDAA199000091AY121999GF108991081061004501999999MD1210291+9999MW1021
0057380010999991971020803004+44550+050250FM-12-002099999V0203201N01391007801CN0100001N9-00221-00891101231ADDAY121999GF107991071021008001001001MD1210181+9999MW1021
0057380010999991971020806004+44550+050250FM-12-002099999V0202901N00981007801CN0200001N9-00281-00891101381ADDAY181999GF106991061031008001001001MD1210151+9999MW1261
0057380010999991971020809004+44550+050250FM-12-002099999V0202901N00981007801CN0200001N9-00281-00721101391ADDAY181999GF107991071031008001001001MD1210011+9999MW1021
0079380010999991971020812004+44550+050250FM-12-002099999V0202901N01181004501CN0002001N9-00281-00501101331ADDAA106001091AA299000391AY181999GF108991081031004501999999MD1810061+9999MW1861
0057380010999991971020815004+44550+050250FM-12-002099999V0202901N01181007801CN0100001N9-00221-00781101471ADDAY121999GF108991081031008001999999MD1210141+9999MW1021
0092380010999991971020818004+44550+050250FM-12-002099999V0202901N00981007801CN0100001N9-00111-00891101511ADDAA106002091AA299000591AY121999GF107991071031008001001001KA1999M+00221MD1710071+9999MW1021
0057380010999991971020821004+44550+050250FM-12-002099999V0202701N00981007801CN0100001N9+00001-00721101641ADDAY121999GF106991061021008001001001MD1210031+9999MW1021
0068380010999991971020900004+44550+050250FM-12-002099999V0202301N01181036001CN0100001N9+00001-00611101301ADDAA199000091AY121999GF105991021021008001031001MD1810241+9999MW1021
0057380010999991971020903004+44550+050250FM-12-002099999V0202001N00981036001CN0100001N9+00221-00221101081ADDAY121999GF105991021051008001031001MD1710221+9999MW1021
0106380010999991971020906004+44550+050250FM-12-002099999V0201801N00981220001CN0200001N9+00281-00111100991ADDAA199000091AY111999GF101991011011008001001001HL10009IA1199IA2999-00399KA1999N-00391MD1710091+9999MW1011
0057380010999991971020909004+44550+050250FM-12-002099999V0201601N01181220001CN0200001N9+00611-00221100571ADDAY111999GF107991001001999999001021MD1710321+9999MW1031
0068380010999991971020912004+44550+050250FM-12-002099999V0201601N01181090001CN0200001N9+00721+00221100451ADDAA199000091AY111999GF107991021011008001001021MD1710221+9999MW1021
0057380010999991971020915004+44550+050250FM-12-002099999V0201401N01391090001CN0100001N9+00501+00221100081ADDAY121999GF105991011011008001001021MD1710371+9999MW1021
0081380010999991971020918004+44550+050250FM-12-002099999V0201401N01391090001CN0100001N9+00391+00221100001ADDAA199000091AY121999GF107991031011008001001021KA1999M+00721MD1610081+9999MW1021
0059380010999991971020921004+44550+050250FM-12-002099999V0201401N013919999999N0100001N9+00501+00281100001ADDAY121999GA1999+999999059GF107991999999999999051999MW1021
0043380010999991971021000004+44550+050250FM-12-002099999V0201401N01391090001CN0100001N9+00281-00111099741ADDAY121999GF107991011011008001001021MW1021
0057380010999991971021003004+44550+050250FM-12-002099999V0202901N01801012301CN0100001N9+00221+00001100091ADDAY121999GF108991081031012501999999MD1210351+9999MW1021
0123380010999991971021006004+44550+050250FM-12-002099999V0203201N02421007801CN0010001N9-00221-00891100541ADDAA199000091AJ100009199999999AY131999GF108991081051008001999999HL10009IA1009IA2999-00119KA1999N-00221MD1210451+9999MW1321
0076380010999991971021009004+44550+050250FM-12-002099999V0203201N01801004501CN0020001N9-00391-01001100791ADDAY171999GF108991999071004501021999MD1210251+9999MW1731EQDQ01+000082SCOTLC
0079380010999991971021012004+44550+050250FM-12-002099999V0203401N00981007801CN0040001N9-00391-01111101051ADDAA106004091AA299001091AY171999GF108991071071008001021999MD1210281+9999MW1381
0057380010999991971021015004+44550+050250FM-12-002099999V0203201N00871024001CN0100001N9-00391-01111101231ADDAY131999GF107991071001999999011001MD1210181+9999MW1021
0057380010999991971021021004+44550+050250FM-12-002099999V0202701N00981220001CN0100001N9-00391-00501101611ADDAY101999GF103991031011008001001001MD1210171+9999MW1021
0068380010999991971021100004+44550+050250FM-12-002099999V0202301N00211007801CN0100001N9-00391-01111101601ADDAA199000091AY111999GF106991061011008001001001MD1710011+9999MW1031
0057380010999991971021103004+44550+050250FM-12-002099999V0209991C00001007801CN0100001N9-00391-01221101721ADDAY121999GF106991061011008001001001MD1010121+9999MW1021
0106380010999991971021106004+44550+050250FM-12-002099999V0201101N00871220001CN0200001N9-00221-00891101641ADDAA199000091AY111999GF103991031001999999031001HL10009IA1199IA2999-00399KA1999N-00611MD1710081+9999MW1021
0057380010999991971021109004+44550+050250FM-12-002099999V0201101N01591024001CN0200001N9-00281-01221101371ADDAY131999GF106991061001999999031001MD1710271+9999MW1381
0057380010999991971021115004+44550+050250FM-12-002099999V0201101N01391004501CN0040001N9-00281-00891101731ADDAY131999GF105991051061004501001001MD1710081+9999MW1061
0057380010999991971021121004+44550+050250FM-12-002099999V0202701N00981004501CN0100001N9-00281-00501101411ADDAY171999GF108991081031004501999999MD1210291+9999MW1731
0079380010999991971021200004+44550+050250FM-12-002099999V0203401N00871004501CN0100001N9-00391-00781101411ADDAA106004091AA299001091AY171999GF106991061051004501001001MD1210011+9999MW1021
0117380010999991971021206004+44550+050250FM-12-002099999V0203401N00411090001CN0200001N9-00611-01001101471ADDAA106004091AA299001091AY121999GF107991041051012501001021HL10009IA1199IA2999-00899KA1999N-00721MD1210021+9999MW1021
0057380010999991971021209004+44550+050250FM-12-002099999V0203401N00511012301CN0200001N9-00501-01111101531ADDAY121999GF107991071051012501001021MD1210161+9999MW1021
0068380010999991971021212004+44550+050250FM-12-002099999V0200201N00411220001CN0200001N9-00501-01111101561ADDAA199000091AY121999GF108991001001999999001021MD1810071+9999MW1021
0057380010999991971021215004+44550+050250FM-12-002099999V0200701N00511220001CN0100001N9-00611-00891101591ADDAY121999GF106991001001999999001071MD1210031+9999MW1021
0081380010999991971021218004+44550+050250FM-12-002099999V0209991C00001220001CN0100001N9-00721-01281101611ADDAA199000091AY121999GF106991001001999999001071KA1999M-00281MD1210021+9999MW1021
0057380010999991971021221004+44550+050250FM-12-002099999V0200501N00311220001CN0100001N9-00611-00781101641ADDAY121999GF107991001001999999001071MD1210021+9999MW1021
0068380010999991971021300004+44550+050250FM-12-002099999V0200501N00821220001CN0100001N9-00501-00781101541ADDAA199000091AY101999GF105991001001999999001021MD1810101+9999MW1021
0057380010999991971021303004+44550+050250FM-12-002099999V0200201N00871220001CN0100001N9-00501-00781101461ADDAY131999GF106991001001999999001021MD1710081+9999MW1361
0123380010999991971021306004+44550+050250FM-12-002099999V0203601N00981004501CN0200001N9-00611-00721101501ADDAA199000091AJ100009199999999AY131999GF108991071061004501001021HL10009IA1199IA2999-00789KA1999N-00721MD1210041+9999MW1361
0068380010999991971021312004+44550+050250FM-12-002099999V0203601N00981002401CN0200001N9-00391-00611101401ADDAA199000091AY131999GF108991081061002501999999MD1710021+9999MW1021
0057380010999991971021315004+44550+050250FM-12-002099999V0203601N00981002401CN0020001N9-00391-00611101531ADDAY121999GF108991081061002501999999MD1310131+9999MW1771
0057380010999991971021321004+44550+050250FM-12-002099999V0203401N01181002401CN0020001N9-00501-00891101731ADDAY131999GF108991081061002501999999MD1210171+9999MW1381
0079380010999991971021400004+44550+050250FM-12-002099999V0203201N01181002401CN0020001N9-00891-01221101551ADDAA106001091AA299000391AY131999GF107991071061002501001001MD1710181+9999MW1381
0057380010999991971021403004+44550+050250FM-12-002099999V0203201N01181004501CN0100001N9-01001-01281101581ADDAY121999GF107991061061004501001071MD1210031+9999MW1021
0106380010999991971021406004+44550+050250FM-12-002099999V0203201N01181004501CN0200001N9-01111-01391101581ADDAA199000091AY131999GF105991051061004501001001HL10009IA1199IA2999-01229KA1999N-01111MD1410001+9999MW1021
0057380010999991971021409004+44550+050250FM-12-002099999V0203201N00981220001CN0200001N9-01001-01391101581ADDAY101999GF102991021061004501001001MD1410001+9999MW1021
0068380010999991971021412004+44550+050250FM-12-002099999V0203201N00981007801CN0200001N9-00891-01391101521ADDAA199000091AY111999GF106991061091008001001001MD1810051+9999MW1021
0057380010999991971021415004+44550+050250FM-12-002099999V0203201N00981036001CN0100001N9-01001-01221101651ADDAY121999GF107991031091008001021001MD1210131+9999MW1021
0057380010999991971021418004+44550+050250FM-12-002099999V0203201N00211007801CN0100001N9-00891-01111101681ADDAY121999GF106991061091008001001001MD1210041+9999MW1021
0068380010999991971021500004+44550+050250FM-12-002099999V0202301N00211007801CN0100001N9-00611-00781101311ADDAA199000091AY121999GF107991071091008001001001MD1710161+9999MW1021
0057380010999991971021503004+44550+050250FM-12-002099999V0203601N00211007801CN0100001N9-00611-00781101051ADDAY121999GF107991071051008001001001MD1710261+9999MW1021
0117380010999991971021506004+44550+050250FM-12-002099999V0203601N00411004501CN0020001N9-00721-00891101271ADDAA106024091AA299006091AY171999GF108991081091004501999999HL10009IA1189IA2999-01229KA1999N-00891MD1210221+9999MW1721
0079380010999991971021512004+44550+050250FM-12-002099999V0202901N00511220001CN0200001N9-00611-01111101771ADDAA106016091AA299004091AY171999GF100991001001999999001001MD1210141+9999MW1011
0057380010999991971021515004+44550+050250FM-12-002099999V0209991C00001220001CN0100001N9-00891-01221101871ADDAY101999GF100991001001999999001001MD1210101+9999MW1021
0070380010999991971021518004+44550+050250FM-12-002099999V0209991C00001220001CN0100001N9-00781-01111101961ADDAY101999GF100991001001999999001001KA1999M-00391MD1210091+9999MW1021
0057380010999991971021521004+44550+050250FM-12-002099999V0209991C00001220001CN0100001N9-01001-01281102021ADDAY121999GF100991001001999999001001MD1210161+9999MW1021
0068380010999991971021600004+44550+050250FM-12-002099999V0209991C00001220001CN0100001N9-01001-01281102021ADDAA199000091AY121999GF100991001001999999001001MD1210161+9999MW1021
0057380010999991971021606004+44550+050250FM-12-002099999V0209991C00001004501CN0020001N9-00221-00611102141ADDAY171999GF108991081071004501999999MD1210061+9999MW1731
0057380010999991971021609004+44550+050250FM-12-002099999V0209991C00001004501CN0040001N9-00281-00891102101ADDAY111999GF108991081071004501999999MD1710031+9999MW1771
0079380010999991971021612004+44550+050250FM-12-002099999V0200201N00411002401CN0200001N9-00281-00501102111ADDAA106004091AA299001091AY171999GF108991081061002501999999MD1210011+9999MW1021
0043380010999991971021615004+44550+050250FM-12-002099999V0200201N00411002401CN0200001N9-00281-00501102111ADDAY171999GF108991081061002501999999MW1021
0065380010999991971021618004+44550+050250FM-12-002099999V0209991C00001220001CN0100001N9-00721+99999102201ADDAA106315092AA299080091AY111999GF100991001001999999001001MW1021
0057380010999991971021621004+44550+050250FM-12-002099999V0200201N00311007801CN0100001N9-00891-01001102221ADDAY121999GF108991081071008001999999MD1210021+9999MW1011
0068380010999991971021700004+44550+050250FM-12-002099999V0209991C00001024001CN0100001N9-00781-00891102261ADDAA199000091AY121999GF107991071001999999031021MD1210041+9999MW1021
0068380010999991971021703004+44550+050250FM-12-002099999V0209991C00001024001CN0100001N9-00781-00891102261ADDAA199000091AY121999GF107991071001999999031021MD1210041+9999MW1021
0057380010999991971021706004+44550+050250FM-12-002099999V0200201N00411220001CN0200001N9-00781-01001102431ADDAY121999GF107991001001999999001021MD1210191+9999MW1021
0057380010999991971021709004+44550+050250FM-12-002099999V0200901N00511024001CN0200001N9-00611-01221102441ADDAY121999GF107991071001999999031001MD1210011+9999MW1021
0068380010999991971021712004+44550+050250FM-12-002099999V0200501N00411220001CN0200001N9-00781-01111102471ADDAA199000091AY111999GF100991001001999999001001MD1210031+9999MW1011
0057380010999991971021715004+44550+050250FM-12-002099999V0203601N00821220001CN0100001N9-01001-01281102571ADDAY101999GF100991001001999999001001MD1210101+9999MW1021
0081380010999991971021718004+44550+050250FM-12-002099999V0200501N00871220001CN0100001N9-01281-01501102701ADDAA199000091AY101999GF100991001001999999001001KA1999M-00281MD1210131+9999MW1021
0057380010999991971021721004+44550+050250FM-12-002099999V0203601N00211220001CN0100001N9-01391-02111102801ADDAY101999GF100991001001999999001001MD1210121+9999MW1021
0068380010999991971021800004+44550+050250FM-12-002099999V0200701N00981220001CN0100001N9-01221-02001102751ADDAA199000091AY131999GF100991001001999999001001MD1710051+9999MW1361
0057380010999991971021803004+44550+050250FM-12-002099999V0200701N00981220001CN0100001N9-01281-02111102761ADDAY131999GF100991001001999999001001MD1210011+9999MW1361
0100380010999991971021806004+44550+050250FM-12-002099999V0200901N00871220001CN0200001N9-00721-01611102761ADDAA199000091AY111999GF107991001001999999001021HL10009IA2999-01399KA1999N-01391MD1310031+9999MW1021
0057380010999991971021809004+44550+050250FM-12-002099999V0200901N00821220001CN0200001N9-00721-01721102861ADDAY131999GF100991001001999999001001MD1710011+9999MW1021
0079380010999991971021812004+44550+050250FM-12-002099999V0200201N00511220001CN0200001N9-00781-01611102701ADDAA106024091AA299006091AY111999GF105991001001999999001021MD1710161+9999MW1021
0057380010999991971021815004+44550+050250FM-12-002099999V0200401N00981220001CN0100001N9-01001-01721102651ADDAY111999GF102991001001999999001021MD1710051+9999MW1021
0057380010999991971021821004+44550+050250FM-12-002099999V0200501N00311220001CN0100001N9-00891-01781102511ADDAY101999GF100991001001999999001001MD1710151+9999MW1021
0068380010999991971021900004+44550+050250FM-12-002099999V0200701N00211220001CN0100001N9-00781-01891102421ADDAA199000091AY101999GF100991001001999999001001MD1710101+9999MW1021
0068380010999991971021903004+44550+050250FM-12-002099999V0200701N00211220001CN0100001N9-00781-01891102421ADDAA199000091AY101999GF100991001001999999001001MD1710101+9999MW1021
0100380010999991971021906004+44550+050250FM-12-002099999V0200901N00871220001CN0200001N9-00721-01611102361ADDAA199000091AY111999GF107991001001999999001021HL10009IA2999-01399KA1999N-01111MD1310031+9999MW1021
0057380010999991971021909004+44550+050250FM-12-002099999V0200901N00311220001CN0200001N9-00281-01221102281ADDAY121999GF107991001001999999001021MD1810081+9999MW1021
0068380010999991971021912004+44550+050250FM-12-002099999V0201101N00981090001CN0200001N9-00501-01111102081ADDAA199000091AY121999GF107991031001999999041021MD1710201+9999MW1021
0057380010999991971021915004+44550+050250FM-12-002099999V0200901N00981220001CN0100001N9-00611-01111101931ADDAY111999GF102991021001999999031001MD1710251+9999MW1021
0081380010999991971021918004+44550+050250FM-12-002099999V0201101N01181220001CN0100001N9-00501-01391101931ADDAA199000091AY111999GF100991001001999999001001KA1999M-00281MD1710021+9999MW1021
0068380010999991971022000004+44550+050250FM-12-002099999V0201101N00621007801CN0100001N9-00281-01111102001ADDAA199000091AY131999GF108991081051008001999999MD1210041+9999MW1021
0057380010999991971022003004+44550+050250FM-12-002099999V0201401N00511015001CN0100001N9-00501-01111102011ADDAY121999GF108991081051017501999999MD1210011+9999MW1021
0100380010999991971022006004+44550+050250FM-12-002099999V0201101N00871012301CN0200001N9-00221-00891102061ADDAA199000091AY121999GF107991071051012501001001HL10009IA2999-00899KA1999N-00721MD1210031+9999MW1021
0068380010999991971022012004+44550+050250FM-12-002099999V0201601N00411024001CN0200001N9+00001-00781101951ADDAA199000091AY121999GF106991061001999999031021MD1710071+9999MW1021
0057380010999991971022015004+44550+050250FM-12-002099999V0200901N00411220001CN0100001N9-00221-00611101991ADDAY111999GF101991001001999999001021MD1210021+9999MW1011
0081380010999991971022018004+44550+050250FM-12-002099999V0201401N00511007801CN0100001N9-00221-00501102001ADDAA199000091AY111999GF108991081051008001999999KA1999M+00221MD1210011+9999MW1021
0057380010999991971022021004+44550+050250FM-12-002099999V0201101N00721007801CN0100001N9-00221-00501101971ADDAY121999GF108991081051008001999999MD1810031+9999MW1021
0068380010999991971022100004+44550+050250FM-12-002099999V0201401N00621220001CN0100001N9-00221-00611101871ADDAA199000091AY111999GF100991001001999999001001MD1710101+9999MW1011
0057380010999991971022103004+44550+050250FM-12-002099999V0201101N00411007801CN0100001N9-00221-00611101841ADDAY111999GF108991081051008001999999MD1710031+9999MW1031
0057380010999991971022106004+44550+050250FM-12-002099999V0209991C00001004501CN0200001N9+00001-00611101901ADDAY121999GF108991081061004501999999MD1210061+9999MW1021
0057380010999991971022109004+44550+050250FM-12-002099999V0209991C00001004501CN0200001N9+00111-00391101861ADDAY121999GF108991081061004501999999MD1710041+9999MW1021
0068380010999991971022112004+44550+050250FM-12-002099999V0209991C00001004501CN0200001N9+00111-00281101821ADDAA199000091AY121999GF108991081061004501999999MD1710041+9999MW1021
0057380010999991971022115004+44550+050250FM-12-002099999V0209991C00001004501CN0100001N9+00001-00281101831ADDAY121999GF108991081061004501999999MD1310011+9999MW1021
0068380010999991971022200004+44550+050250FM-12-002099999V0209991C00001004501CN0100001N9+00001-00501101691ADDAA199000091AY121999GF108991081061004501999999MD1710191+9999MW1021
0057380010999991971022203004+44550+050250FM-12-002099999V0200501N00511220001CN0100001N9-00221-00611101591ADDAY111999GF100991001001999999001001MD1710101+9999MW1011
0123380010999991971022206004+44550+050250FM-12-002099999V0209991C00001220001CN0200001N9-00111-00391101681ADDAA199000091AJ100009199999999AY111999GF101991001001999999001021HL10009IA1189IA2999-00399KA1999N-00221MD1210091+9999MW1021
0057380010999991971022209004+44550+050250FM-12-002099999V0200501N00211007801CN0200001N9+00001-00281101571ADDAY111999GF108991081051008001999999MD1710111+9999MW1021
0068380010999991971022212004+44550+050250FM-12-002099999V0209991C00001004501CN0200001N9+00221-00281101431ADDAA199000091AY121999GF107991071061004501001001MD1710141+9999MW1021
0057380010999991971022215004+44550+050250FM-12-002099999V0200501N00101220001CN0100001N9-00221-00501101471ADDAY111999GF101991011001999999031001MD1210041+9999MW1021
0081380010999991971022218004+44550+050250FM-12-002099999V0200501N00511220001CN0100001N9-00281-00611101401ADDAA199000091AY111999GF100991001001999999001001KA1999M+00221MD1710031+9999MW1021
0057380010999991971022221004+44550+050250FM-12-002099999V0200501N00311220001CN0100001N9-00221-00611101461ADDAY101999GF100991001001999999001001MD1710081+9999MW1021
0068380010999991971022300004+44550+050250FM-12-002099999V0200701N00511220001CN0100001N9-00221-00611101281ADDAA199000091AY101999GF100991001001999999001001MD1710181+9999MW1021
0057380010999991971022303004+44550+050250FM-12-002099999V0200701N00511220001CN0200001N9-00111-00611101261ADDAY101999GF102991001001999999001021MD1310081+9999MW1021
0123380010999991971022306004+44550+050250FM-12-002099999V0200201N00721024001CN0200001N9+00111-01611101451ADDAA199000091AJ100009199999999AY111999GF105991051001999999031001HL10009IA1189IA2999-00399KA1999N-00281MD1210191+9999MW1031
0057380010999991971022309004+44550+050250FM-12-002099999V0200701N00981220001CN0200001N9+00111-00721101391ADDAY121999GF105991001001999999001021MD1710061+9999MW1021
0068380010999991971022312004+44550+050250FM-12-002099999V0200201N00411090001CN0200001N9-00221-00501101561ADDAA199000091AY121999GF106991021051004501001021MD1210171+9999MW1021
0057380010999991971022315004+44550+050250FM-12-002099999V0200701N00211220001CN0100001N9-00221-00391101661ADDAY111999GF102991021011008001031001MD1210101+9999MW1031
0081380010999991971022318004+44550+050250FM-12-002099999V0200501N00101220001CN0100001N9-00281-00501101761ADDAA199000091AY111999GF100991001001999999001001KA1999M+00221MD1210121+9999MW1021
0057380010999991971022321004+44550+050250FM-12-002099999V0209991C00001220001CN0100001N9-00221-00611101751ADDAY101999GF100991001001999999001001MD1710031+9999MW1021
0068380010999991971022400004+44550+050250FM-12-002099999V0209991C00001001501CN0100001N9-00111-00391101771ADDAA199000091AY111999GF108991081061001501999999MD1210021+9999MW1021
0057380010999991971022403004+44550+050250FM-12-002099999V0209991C00001007801CN0100001N9-00221-00501101811ADDAY121999GF107991071051008001001001MD1210041+9999MW1021
0123380010999991971022406004+44550+050250FM-12-002099999V0201401N00211024001CN0200001N9+00221-00281101971ADDAA199000091AJ100009199999999AY121999GF107991071001999999031001HL10009IA1139IA2999-00399KA1999N-00391MD1210161+9999MW1021
0057380010999991971022409004+44550+050250FM-12-002099999V0201601N00411007801CN0200001N9+00391+00111101991ADDAY121999GF108991081051008001999999MD1210021+9999MW1021
0068380010999991971022412004+44550+050250FM-12-002099999V0202001N00211004501CN0200001N9+00221+00001101971ADDAA199000091AY121999GF107991061071004501001021MD1710021+9999MW1021
0057380010999991971022415004+44550+050250FM-12-002099999V0202301N00511007801CN0100001N9+00001-00281102141ADDAY121999GF108991081051008001999999MD1210171+9999MW1021
0081380010999991971022418004+44550+050250FM-12-002099999V0202301N00511007801CN0100001N9-00111-00281102121ADDAA199000091AY121999GF108991081051008001999999KA1999M+00391MD1710021+9999MW1021
0057380010999991971022421004+44550+050250FM-12-002099999V0202901N00511004501CN0020001N9-00221-00281102161ADDAY171999GF108991081071004501999999MD1310041+9999MW1731
0079380010999991971022500004+44550+050250FM-12-002099999V0203401N00411004501CN0100001N9-00221-00391102161ADDAA106075091AA224999999AY171999GF108991081061004501999999MD1410001+9999MW1021
0057380010999991971022503004+44550+050250FM-12-002099999V0203601N00211004501CN0100001N9-00221-00391102271ADDAY121999GF108991081061004501999999MD1310111+9999MW1021
0134380010999991971022506004+44550+050250FM-12-002099999V0209991C00001004501CN0200001N9-00221-00281102331ADDAA106075091AA224999999AJ100009199999999AY121999GF108991081061004501999999HL10009IA1139IA2999-00119KA1999N-00221MD1210061+9999MW1021
0057380010999991971022509004+44550+050250FM-12-002099999V0209991C00001004501CN0200001N9-00281-00281102371ADDAY121999GF108991081061004501999999MD1210061+9999MW1021
0068380010999991971022512004+44550+050250FM-12-002099999V0203601N00311220001CN0200001N9-00221-00391102351ADDAA199000091AY121999GF107991001001999999001061MD1710041+9999MW1021
0057380010999991971022515004+44550+050250FM-12-002099999V0200201N00211220001CN0100001N9-00281-00501102281ADDAY111999GF102991001001999999021999MD1710071+9999MW1021
0081380010999991971022518004+44550+050250FM-12-002099999V0200201N00211220001CN0200001N9-00281-00611102341ADDAA199000091AY111999GF100991001001999999001001KA1999M+00001MD1210021+9999MW1021
0057380010999991971022521004+44550+050250FM-12-002099999V0200201N001019999999N0200001N9+00281-00391102291ADDAY111999GF199999001001999999011081MD1710051+9999MW1011
0068380010999991971022600004+44550+050250FM-12-002099999V0200201N00511220001CN0100001N9-00391-00391102241ADDAA199000091AY111999GF100991001001999999001001MD1710051+9999MW1011
0057380010999991971022603004+44550+050250FM-12-002099999V0200701N00511220001CN0100001N9-00391-00611102231ADDAY101999GF101991011061004501001001MD1710011+9999MW1021
0123380010999991971022606004+44550+050250FM-12-002099999V0200701N00821220001CN0200001N9-00221-00501102241ADDAA199000091AJ100009199999999AY111999GF105991001001999999001021HL10009IA1139IA2999-00619KA1999N-00391MD1710011+9999MW1021
0057380010999991971022609004+44550+050250FM-12-002099999V0200901N00981220001CN0100001N9+00001-00391102081ADDAY121999GF106991001001999999001021MD1710161+9999MW1021
0068380010999991971022612004+44550+050250FM-12-002099999V0200801N00871012301CN0200001N9+00221-00111101871ADDAA199000091AY121999GF107991051051012501001021MD1710111+9999MW1021
0057380010999991971022615004+44550+050250FM-12-002099999V0200901N00511220001CN0100001N9+00221+00001101771ADDAY121999GF103991001001999999001021MD1710201+9999MW1091
0081380010999991971022618004+44550+050250FM-12-002099999V0200501N00621220001CN0100001N9+00221+00001101591ADDAA199000091AY101999GF100991001001999999001001KA1999M+00281MD1710181+9999MW1021
0068380010999991971022700004+44550+050250FM-12-002099999V0200901N01391220001CN0100001N9+00391-00221100971ADDAA199000091AY101999GF100991001001999999001001MD1710421+9999MW1021
0057380010999991971022703004+44550+050250FM-12-002099999V0201101N01391220001CN0100001N9+00611-00391100651ADDAY111999GF107991001001999999001021MD1710321+9999MW1021
0123380010999991971022706004+44550+050250FM-12-002099999V0201401N01801012301CN0200001N9+00611-00281100411ADDAA199000091AJ100009199999999AY111999GF107991061051012501031001HL10009IA1089IA2999+00009KA1999N+00221MD1710241+9999MW1021
0057380010999991971022709004+44550+050250FM-12-002099999V0201101N02011012301CN0200001N9+00891-00391100311ADDAY121999GF107991051051012501031001MD1710291+9999MW1021
0079380010999991971022712004+44550+050250FM-12-002099999V0201101N02011024001CN0010001N9+01001-00391100141ADDAA106999999AA224999999AY131999GF199999091001999999071999MD1710171+9999MW1321
0057380010999991971022715004+44550+050250FM-12-002099999V0200901N01591007801CN0100001N9+00611-00221100221ADDAY131999GF108991061051008001061071MD1310081+9999MW1021
0075380010999991971022718004+44550+050250FM-12-002099999V0200901N00981004501CN0500001N9+00611-00221100441ADDAA199000091AY131999GF108991081061004501999999KA1999M+01001MD1210231+9999
0057380010999991971022721004+44550+050250FM-12-002099999V0201101N00981004501CN0100001N9+00221-00111100741ADDAY121999GF108991081061004501999999MD1410001+9999MW1021
0079380010999991971022800004+44550+050250FM-12-002099999V0201101N01181004501CN0100001N9+00221+00001100591ADDAA106002091AA299000591AY181999GF108991081091004501999999MD1210151+9999MW1871
0057380010999991971022803004+44550+050250FM-12-002099999V0201101N00981004501CN0005001N9+00001-00111100721ADDAY181999GF108991081091004501999999MD1210131+9999MW1851
0117380010999991971022806004+44550+050250FM-12-002099999V0200901N00981004501CN0005001N9-00221-00391100901ADDAA106012091AA299003091AY181999GF108991081091004501999999HL10009IA1319IA2999-00119KA1999N-00221MD1210181+9999MW1861
0057380010999991971022809004+44550+050250FM-12-002099999V0200701N00981004501CN0005001N9-00111-00391101031ADDAY181999GF108991081091004501999999MD1210131+9999MW1861
0079380010999991971022812004+44550+050250FM-12-002099999V0200701N00981004501CN0200001N9-00221-00281101241ADDAA106012091AA299003091AY181999GF108991081061004501999999MD1210211+9999MW1021
0057380010999991971022815004+44550+050250FM-12-002099999V0200701N00981004501CN0100001N9-00391-00501101501ADDAY121999GF108991081061004501999999MD1210261+9999MW1021
0079380010999991971022818004+44550+050250FM-12-002099999V0200701N00981004501CN0100001N9-00501-00721101711ADDAA106012091AA299003091AY121999GF108991081051004501999999MD1210231+9999MW1021
0068380010999991971030100004+44550+050250FM-12-002099999V0200701N00981220001CN0100001N9-00781-01001101971ADDAA199000091AY111999GF100991001001999999001001MD1210081+9999MW1021
0057380010999991971030103004+44550+050250FM-12-002099999V0200701N00821220001CN0100001N9-00781-01111102181ADDAY111999GF107991001001999999001021MD1210211+9999MW1031
0123380010999991971030106004+44550+050250FM-12-002099999V0209991C00001220001CN0200001N9-00501-01221102391ADDAA199000091AJ100009199999999AY111999GF101991001001999999001021HL10009IA1189IA2999-00899KA1999N-00781MD1210211+9999MW1011
0068380010999991971030112004+44550+050250FM-12-002099999V0200701N00511090001CN0200001N9-00221-00721102531ADDAA199000091AY111999GF107991031001999999031021MD1210081+9999MW1021
0057380010999991971030115004+44550+050250FM-12-002099999V0200501N00621220001CN0100001N9-00281-00721102601ADDAY121999GF107991001001999999001021MD1210071+9999MW1021
0081380010999991971030118004+44550+050250FM-12-002099999V0209991C00001220001CN0100001N9-00391-00721102601ADDAA199000091AY111999GF102991001001999999001021KA1999M-00111MD1410001+9999MW1021
0057380010999991971030121004+44550+050250FM-12-002099999V0201101N00981220001CN0100001N9-00221-00721102491ADDAY111999GF100991001001999999001001MD1710111+9999MW1011
0068380010999991971030200004+44550+050250FM-12-002099999V0201101N00981220001CN0100001N9-00221-00611102481ADDAA199000091AY101999GF100991001001999999001001MD1710011+9999MW1021
0057380010999991971030203004+44550+050250FM-12-002099999V0201101N00981007801CN0100001N9-00281-00501102551ADDAY111999GF108991081051008001999999MD1210071+9999MW1031
0123380010999991971030206004+44550+050250FM-12-002099999V0201401N00981004501CN0040001N9-00221-00391102791ADDAA199000091AJ100009199999999AY111999GF108991081061004501999999HL10009IA1139IA2999-00509KA1999N-00391MD1210161+9999MW1101
0057380010999991971030209004+44550+050250FM-12-002099999V0201401N00821220001CN0200001N9+00001-00501102731ADDAY121999GF106991001001999999001021MD1210021+9999MW1021
0057380010999991971030212004+44550+050250FM-12-002099999V0201101N00621220001CN0200001N9+00111-00501102781ADDAY121999GF103991031061004501001001MD1210051+9999MW1021
0081380010999991971030218004+44550+050250FM-12-002099999V0201101N00821220001CN0100001N9-00111-00281102701ADDAA199000091AY111999GF100991001001999999001001KA1999M+00111MD1210011+9999MW1011
0095380010999991971030221004+44550+050250FM-12-002099999V0201401N00981220001CN0100001N9-00111-00611102661ADDAY111999GA1031+000909009GA2061+999999049GF108991081061004501999999IA1009MD1810061+9999MW1021
0068380010999991971030300004+44550+050250FM-12-002099999V0201401N00981004501CN0100001N9-00111-00391102631ADDAA199000091AY111999GF108991081061004501999999MD1710021+9999MW1021
0076380010999991971030303004+44550+050250FM-12-002099999V0201401N005119999999N0100001N9+00001-00611102631ADDAY121999GF107991999061017501001001MD1410001+9999MW1021EQDQ01+000022SCOTLC
0123380010999991971030306004+44550+050250FM-12-002099999V0201401N00211004501CN0200001N9+00111-00281102571ADDAA199000091AJ100009199999999AY121999GF107991071061004501001001HL10009IA1139IA2999-00229KA1999N-00221MD1210101+9999MW1021
0057380010999991971030309004+44550+050250FM-12-002099999V0201101N00511220001CN0200001N9+00391-00281102701ADDAY111999GF100991001001999999001001MD1710091+9999MW1011
0068380010999991971030312004+44550+050250FM-12-002099999V0201101N00621220001CN0200001N9+00611-00221102511ADDAA199000091AY121999GF100991001001999999001001MD1710191+9999MW1021
0051380010999991971030321004+44550+050250FM-12-002099999V0201101N01181220001CN0200001N9+99999+99999102511ADDAY121999GF199999001001999999001021MD1810181+9999
0068380010999991971030400004+44550+050250FM-12-002099999V0201101N02011004501CN0020001N9+00391-00221101341ADDAA199000091AY131999GF108991081061004501999999MD1710411+9999MW1341
0057380010999991971030403004+44550+050250FM-12-002099999V0201101N01801024001CN0100001N9+00391-00221101231ADDAY131999GF108991081001999999031999MD1710111+9999MW1021
0123380010999991971030406004+44550+050250FM-12-002099999V0201101N01181024001CN0200001N9+00611-00221101171ADDAA199000091AJ100009199999999AY131999GF108991081001999999031999HL10009IA1009IA2999-00119KA1999N+00221MD1710121+9999MW1021
0057380010999991971030409004+44550+050250FM-12-002099999V0201101N00981024001CN0200001N9+00891-00111101131ADDAY121999GF108991081001999999071999MD1310021+9999MW1021
0068380010999991971030412004+44550+050250FM-12-002099999V0200201N00621007801CN0200001N9+00721+00001101351ADDAA199000091AY121999GF108991081051008001999999MD1210221+9999MW1021
0057380010999991971030415004+44550+050250FM-12-002099999V0200501N00981007801CN0100001N9+00281-00111101561ADDAY121999GF108991081051008001999999MD1210211+9999MW1021
0081380010999991971030418004+44550+050250FM-12-002099999V0200701N00511007801CN0100001N9+00221-00111101851ADDAA199000091AY121999GF108991081051008001999999KA1999M+01001MD1210291+9999MW1021
0057380010999991971030421004+44550+050250FM-12-002099999V0203601N00511007801CN0100001N9+00001-00221101951ADDAY121999GF108991081051008001999999MD1210101+9999MW1021
0079380010999991971030500004+44550+050250FM-12-002099999V0203401N00721002401CN0020001N9-00221-00391102131ADDAA106075091AA224999999AY151999GF108991081061002501999999MD1210171+9999MW1571
0057380010999991971030503004+44550+050250FM-12-002099999V0200201N00981004501CN0040001N9-00281-00501102291ADDAY161999GF108991081071004501999999MD1210181+9999MW1671
0134380010999991971030506004+44550+050250FM-12-002099999V0203201N00981004501CN0020001N9-00281-00611102631ADDAA106001091AA299000391AJ100009199999999AY151999GF108991081031004501999999HL10009IA1159IA2999-00229KA1999N-00281MD1210351+9999MW1771
0057380010999991971030509004+44550+050250FM-12-002099999V0203201N00981004501CN0010001N9-00391-00721102791ADDAY181999GF108991081091004501999999MD1210101+9999MW1861
0098380010999991971030512004+44550+050250FM-12-002099999V0203401N01181015001CN0010001N9-00501-00721102811ADDAA106008091AA299002091AY171999GF108991999021017501011999MD1210021+9999MW1751EQDQ01+000082SCOTLC
0076380010999991971030515004+44550+050250FM-12-002099999V0203601N01181004501CN0010001N9-00611-00891102901ADDAY171999GF108991999071004501021999MD1210091+9999MW1751EQDQ01+000082SCOTLC
0111380010999991971030518004+44550+050250FM-12-002099999V0203601N00981004501CN0020001N9-00611-00781103041ADDAA106008091AA299002091AY171999GF108991999071004501021999KA1999M-00281MD1210141+9999MW1731EQDQ01+000082SCOTLC
0076380010999991971030521004+44550+050250FM-12-002099999V0200201N00981004501CN0020001N9-00611-00781103141ADDAY171999GF108991999071004501021999MD1210101+9999MW1731EQDQ01+000082SCOTLC
0098380010999991971030600004+44550+050250FM-12-002099999V0203601N00981004501CN0100001N9-00721-01221103191ADDAA106001091AA299000391AY171999GF108991999071004501021999MD1210051+9999MW1361EQDQ01+000082SCOTLC
0057380010999991971030603004+44550+050250FM-12-002099999V0200701N00511036001CN0100001N9-00781-01111103361ADDAY131999GF108991021071004501011001MD1210171+9999MW1021
0117380010999991971030606004+44550+050250FM-12-002099999V0200701N00511090001CN0200001N9-00891-01221103411ADDAA106001091AA299000391AY121999GF106991011001999999031021HL10009IA1309IA2999-01119KA1999N-01001MD1210051+9999MW1021
0057380010999991971030609004+44550+050250FM-12-002099999V0200701N00411220001CN0200001N9-00721-01111103491ADDAY121999GF103991001001999999001021MD1210081+9999MW1021
0068380010999991971030612004+44550+050250FM-12-002099999V0200701N00981220001CN0200001N9-00721-01111103441ADDAA199000091AY111999GF103991001001999999001021MD1710051+9999MW1021
0057380010999991971030615004+44550+050250FM-12-002099999V0200701N01181220001CN0200001N9-00781-01281103451ADDAY101999GF100991001001999999001001MD1310011+9999MW1021
0070380010999991971030618004+44550+050250FM-12-002099999V0200901N01181220001CN0100001N9-00781-01391103551ADDAY131999GF100991001001999999001001KA1999M-00611MD1210101+9999MW1361
0057380010999991971030621004+44550+050250FM-12-002099999V0200901N01181220001CN0100001N9-00721-01781103521ADDAY131999GF100991001001999999001001MD1710031+9999MW1361
0068380010999991971030700004+44550+050250FM-12-002099999V0201101N00981220001CN0100001N9-00721-01721103421ADDAA199000091AY131999GF100991001001999999001001MD1710101+9999MW1021
0068380010999991971030703004+44550+050250FM-12-002099999V0201101N00981220001CN0100001N9-00721-01721103421ADDAA199000091AY131999GF100991001001999999001001MD1710101+9999MW1021
0057380010999991971030709004+44550+050250FM-12-002099999V0201401N00981220001CN0200001N9-00111-01721103141ADDAY101999GF100991001001999999001001MD1810141+9999MW1021
0068380010999991971030712004+44550+050250FM-12-002099999V0201101N00981220001CN0200001N9+00001-01611103141ADDAA199000091AY101999GF100991001001999999001001MD1410001+9999MW1021
0057380010999991971030715004+44550+050250FM-12-002099999V0201101N00981220001CN0200001N9-00391-01221102951ADDAY101999GF100991001001999999001001MD1710191+9999MW1021
0057380010999991971030721004+44550+050250FM-12-002099999V0201401N01591220001CN0100001N9-00501-01281102871ADDAY131999GF100991001001999999001001MD1710041+9999MW1361
0068380010999991971030800004+44550+050250FM-12-002099999V0201401N01591220001CN0100001N9-00501-01221102691ADDAA199000091AY131999GF100991001001999999001001MD1710181+9999MW1361
0057380010999991971030806004+44550+050250FM-12-002099999V0201101N00411220001CN0200001N9-00111-01001102621ADDAY131999GF107991001999999999001021MD1710101+9999MW1021
0092380010999991971030809004+44550+050250FM-12-002099999V0201601N00981220001CN0200001N9+00221-00721102531ADDAY121999GF107991001001999999001021MD1710091+9999MW1021EQDQ01+000042APCTENQ02+000092APC3  
0068380010999991971030812004+44550+050250FM-12-002099999V0201601N00981024001CN0200001N9+00391-00501102301ADDAA199000091AY121999GF107991071001999999031001MD1710251+9999MW1021
0049380010999991971030815004+44550+050250FM-12-002099999V0209991C00001220001CN0200001N9+99999+99999102301ADDAY101999GF102991999071017501081001IA1009MW1001
0057380010999991971030821004+44550+050250FM-12-002099999V0201101N00981220001CN0100001N9+00111-00391101901ADDAY111999GF100991001001999999001001MD1710251+9999MW1021
0068380010999991971030900004+44550+050250FM-12-002099999V0201101N00981220001CN0100001N9+00111-00721101481ADDAA199000091AY111999GF106991001001999999001021MD1710421+9999MW1021
0057380010999991971030903004+44550+050250FM-12-002099999V0201101N01181024001CN0200001N9+00111-00391101271ADDAY121999GF106991061001999999031001MD1710211+9999MW1021
0123380010999991971030906004+44550+050250FM-12-002099999V0201401N00721024001CN0200001N9+00281-00221101091ADDAA199000091AJ100009199999999AY121999GF108991081001999999071999HL10009IA1089IA2999-00119KA1999N+00111MD1710181+9999MW1021
0057380010999991971030909004+44550+050250FM-12-002099999V0201401N00411024001CN0200001N9+00501-00111101151ADDAY121999GF108991081001999999071999MD1310061+9999MW1021
0068380010999991971030912004+44550+050250FM-12-002099999V0209991C00001004501CN0200001N9+00391-00781101151ADDAA199000091AY121999GF108991051071004501021999MD1410001+9999MW1021
0076380010999991971030915004+44550+050250FM-12-002099999V0203401N00211004501CN0100001N9+00111-00111101241ADDAY161999GF108991999071004501021999MD1210091+9999MW1611EQDQ01+000082SCOTLC
0111380010999991971030918004+44550+050250FM-12-002099999V0203401N00511004501CN0020001N9+00001-00111101441ADDAA106002091AA299000591AY171999GF108991999071004501021999KA1999M+00611MD1210101+9999MW1711EQDQ01+000082SCOTLC
0057380010999991971030921004+44550+050250FM-12-002099999V0203201N00981036001CN0100001N9-00111-00281101481ADDAY171999GF108991041071004501021999MD1210041+9999MW1021
0079380010999991971031000004+44550+050250FM-12-002099999V0203201N01181004501CN0100001N9-00221-00391101561ADDAA106002091AA299000591AY171999GF108991051071004501021999MD1110081+9999MW1021
0057380010999991971031003004+44550+050250FM-12-002099999V0203401N00981004501CN0200001N9-00111-00391101571ADDAY121999GF108991081061004501999999MD1210011+9999MW1021
0117380010999991971031006004+44550+050250FM-12-002099999V0202901N00621004501CN0200001N9-00111-01612101671ADDAA106002091AA299000591AY121999GF108991081071004501999999HL10009IA1209IA2999-00289KA1999N-00221MD1210101+9999MW1021
0068380010999991971031012004+44550+050250FM-12-002099999V0202901N00101004501CN0200001N9+00001-00391101571ADDAA199000091AY121999GF106991061061004501001001MD1710091+9999MW1021
0057380010999991971031015004+44550+050250FM-12-002099999V0209991C00001220001CN0200001N9-00221-00391101571ADDAY111999GF102991001001999999001051MD1410001+9999MW1011
0081380010999991971031018004+44550+050250FM-12-002099999V0209991C00001220001CN0100001N9-00281-00281101591ADDAA199000091AY111999GF100991001001999999001001KA1999M+00001MD1210021+9999MW1021
0057380010999991971031021004+44550+050250FM-12-002099999V0209991C00001004501CN0100001N9-00281-00391101521ADDAY111999GF108991081061004501999999MD1710081+9999MW1021
0068380010999991971031100004+44550+050250FM-12-002099999V0201401N00101004501CN0100001N9+00001-00221101351ADDAA199000091AY111999GF108991081061004501999999MD1710161+9999MW1021
0057380010999991971031103004+44550+050250FM-12-002099999V0209991C00001004501CN0200001N9+00001-01221101141ADDAY121999GF107991071061004501001001MD1710211+9999MW1021
0123380010999991971031106004+44550+050250FM-12-002099999V0201101N00821004501CN0200001N9+00281-01111100971ADDAA199000091AJ100009199999999AY121999GF107991071061004501001001HL10009IA1139IA2999-00399KA1999N-00281MD1710171+9999MW1021
0057380010999991971031109004+44550+050250FM-12-002099999V0201401N00511004501CN0200001N9+00781+00111100881ADDAY121999GF105991051061004501001001MD1710101+9999MW1021
0068380010999991971031112004+44550+050250FM-12-002099999V0200501N00621220001CN0200001N9+00611+00221100681ADDAA199000091AY121999GF107991001001999999001051MD1710191+9999MW1021
0057380010999991971031115004+44550+050250FM-12-002099999V0200701N00721024001CN0200001N9+00391+00221100741ADDAY121999GF108991061001999999031021MD1310061+9999MW1021
0081380010999991971031118004+44550+050250FM-12-002099999V0200201N00311012301CN0100001N9+00221+00001100851ADDAA199000091AY121999GF108991081051012501999999KA1999M+00891MD1210111+9999MW1021
0057380010999991971031121004+44550+050250FM-12-002099999V0200201N01181004501CN0100001N9+00001+00001100841ADDAY121999GF108991081061004501999999MD1710011+9999MW1021
0068380010999991971031200004+44550+050250FM-12-002099999V0200201N01181004501CN0100001N9+00001+00001100901ADDAA199000091AY121999GF108991081061004501999999MD1210061+9999MW1021
0057380010999991971031203004+44550+050250FM-12-002099999V0203601N00981004501CN0200001N9+00001-00111101051ADDAY121999GF108991081061004501999999MD1210151+9999MW1021
0123380010999991971031206004+44550+050250FM-12-002099999V0203401N00981004501CN0200001N9+00221-00111101331ADDAA199000091AJ100009199999999AY121999GF108991081061004501999999HL10009IA1009IA2999+00009KA1999N-00111MD1210281+9999MW1021
0057380010999991971031209004+44550+050250FM-12-002099999V0203601N00981004501CN0200001N9+00111-00111101361ADDAY121999GF108991081061004501999999MD1210031+9999MW1021
0087380010999991971031212004+44550+050250FM-12-002099999V0200201N00821015001CN0200001N9+00111-00111101461ADDAA199000091AY121999GF108991999051017501001001MD1210101+9999MW1021EQDQ01+000072SCOTLC
0057380010999991971031215004+44550+050250FM-12-002099999V0209991C00001012301CN0040001N9+00111+00111101631ADDAY121999GF108991081051012501999999MD1210171+9999MW1101
0081380010999991971031218004+44550+050250FM-12-002099999V0203601N00981002401CN0020001N9+00001-00111101611ADDAA199000091AY121999GF108991081061002501999999KA1999M+00391MD1710021+9999MW1101
0076380010999991971031221004+44550+050250FM-12-002099999V0200201N00101220001CN0020001N9+00001-00221101621ADDAY121999GF199999021051012501001001MD1210011+9999MW1101EQDQ01+000002APC3  
0068380010999991971031300004+44550+050250FM-12-002099999V0200201N00981002401CN0020001N9-00111-00221101581ADDAA199000091AY121999GF108991081061002501999999MD1710041+9999MW1101
0068380010999991971031303004+44550+050250FM-12-002099999V0200201N00981002401CN0020001N9-00111-00221101581ADDAA199000091AY121999GF108991081061002501999999MD1710041+9999MW1101
0106380010999991971031306004+44550+050250FM-12-002099999V0203601N00511004501CN0040001N9+00001-00221101641ADDAA199000091AY121999GF106991061061004501001001HL10009IA1189IA2999-00119KA1999N-00221MD1210031+9999MW1101
0057380010999991971031309004+44550+050250FM-12-002099999V0203601N00211004501CN0040001N9-00111-00221101631ADDAY121999GF108991081061004501999999MD1710011+9999MW1101
0068380010999991971031312004+44550+050250FM-12-002099999V0203601N00721090001CN0020001N9+00001-00111101501ADDAA199000091AY121999GF107991011061004501001021MD1710131+9999MW1101
0057380010999991971031315004+44550+050250FM-12-002099999V0200201N00511004501CN0010001N9-00221-00391101531ADDAY111999GF107991071061004501001001MD1210031+9999MW1101
0057380010999991971031321004+44550+050250FM-12-002099999V0209991C00001004501CN0020001N9-00221-00501101761ADDAY121999GF107991071061004501001001MD1210131+9999MW1101
0068380010999991971031400004+44550+050250FM-12-002099999V0200901N00211220001CN0100001N9-00281-00391101761ADDAA199000091AY111999GF100991001001999999001001MD1210011+9999MW1011
0057380010999991971031403004+44550+050250FM-12-002099999V0209991C00001004501CN0040001N9-00111-00221101831ADDAY121999GF108991081061004501999999MD1210031+9999MW1401
0123380010999991971031406004+44550+050250FM-12-002099999V0209991C00001220001CN0040001N9+00281-00111101821ADDAA199000091AJ100009199999999AY111999GF103991001001999999001021HL10009IA1139IA2999-00399KA1999N-00281MD1710011+9999MW1101
0057380010999991971031409004+44550+050250FM-12-002099999V0200501N00511004501CN0200001N9+00111-00111101851ADDAY111999GF106991061061004501001001MD1210031+9999MW1021
0068380010999991971031412004+44550+050250FM-12-002099999V0200701N00621012301CN0200001N9+00221-00111101811ADDAA199000091AY111999GF108991081051012501999999MD1210041+9999MW1021
0057380010999991971031415004+44550+050250FM-12-002099999V0200501N00511007801CN0040001N9+00111+00001101921ADDAY121999GF108991081051008001999999MD1310111+9999MW1101
0081380010999991971031418004+44550+050250FM-12-002099999V0200501N00621002401CN0020001N9+00001-00111101931ADDAA199000091AY121999GF106991061061002501001001KA1999M+00281MD1210011+9999MW1101
0076380010999991971031421004+44550+050250FM-12-002099999V0200501N00621004501CN0020001N9-00111-00221101821ADDAY171999GF108991999071004501021999MD1710121+9999MW1791EQDQ01+000082SCOTLC
0098380010999991971031500004+44550+050250FM-12-002099999V0200501N00871004501CN0020001N9-00221-00391101721ADDAA106031091AA299008091AY171999GF108991999071004501021999MD1710101+9999MW1791EQDQ01+000082SCOTLC
0057380010999991971031503004+44550+050250FM-12-002099999V0203601N00981004501CN0020001N9-00221-00391101661ADDAY171999GF108991081061004501999999MD1710061+9999MW1731
0117380010999991971031506004+44550+050250FM-12-002099999V0203601N00981004501CN0200001N9-00221-00391101471ADDAA106047091AA299012091AY171999GF108991071071004501021999HL10009IA1319IA2999-00229KA1999N-00281MD1710191+9999MW1021
0076380010999991971031509004+44550+050250FM-12-002099999V0203401N00981004501CN0040001N9-00221-00391101511ADDAY181999GF108991999071004501021999MD1210041+9999MW1251EQDQ01+000082SCOTLC
0098380010999991971031512004+44550+050250FM-12-002099999V0203201N01181004501CN0020001N9-00221-00391101601ADDAA106008091AA299002091AY131999GF108991999071004501021999MD1210091+9999MW1731EQDQ01+000082SCOTLC
0092380010999991971031515004+44550+050250FM-12-002099999V0203401N01181004501CN0020001N9-00111-00281101651ADDAY131999GF108991081061004501999999MD1210051+9999MW1381EQDQ01+000042APCTENQ02+000052APC3  
0092380010999991971031518004+44550+050250FM-12-002099999V0203401N01181004501CN0020001N9-00111-00221101791ADDAA106012091AA299003091AY131999GF108991081071004501999999KA1999M+00111MD1210141+9999MW1731
0057380010999991971031521004+44550+050250FM-12-002099999V0203401N00871004501CN0020001N9-00221-00221101811ADDAY171999GF108991081071004501999999MD1210161+9999MW1711
0079380010999991971031600004+44550+050250FM-12-002099999V0203201N00981004501CN0100001N9-00221-00501101881ADDAA106012091AA299003091AY131999GF107991071061004501001001MD1210041+9999MW1361
0057380010999991971031603004+44550+050250FM-12-002099999V0202901N00871004501CN0200001N9-00281-00501102001ADDAY171999GF108991081061004501999999MD1210121+9999MW1031
0117380010999991971031606004+44550+050250FM-12-002099999V0202901N00821004501CN0200001N9-00281-00391102181ADDAA106001091AA299000391AY131999GF108991081061004501999999HL10009IA1319IA2999-00399KA1999N-00281MD1210181+9999MW1021
0057380010999991971031609004+44550+050250FM-12-002099999V0202901N00821004501CN0200001N9-00221-00391102311ADDAY121999GF106991061061004501001001MD1210121+9999MW1011
0068380010999991971031612004+44550+050250FM-12-002099999V0202901N00621220001CN0200001N9-00111-00501102301ADDAA199000091AY121999GF103991031021004501001001MD1710011+9999MW1021
0057380010999991971031615004+44550+050250FM-12-002099999V0203201N00621220001CN0200001N9-00221-00611102421ADDAY111999GF100991001001999999001001MD1210141+9999MW1021
0081380010999991971031618004+44550+050250FM-12-002099999V0209991C00001220001CN0100001N9-00281-00611102521ADDAA199000091AY111999GF100991001001999999001001KA1999M-00111MD1210101+9999MW1021
0068380010999991971031700004+44550+050250FM-12-002099999V0200201N00211220001CN0100001N9-00281-00721102571ADDAA199000091AY111999GF106991001001999999001021MD1210011+9999MW1021
0057380010999991971031703004+44550+050250FM-12-002099999V0200701N00411220001CN0200001N9-00281-00781102651ADDAY121999GF107991001001999999001021MD1210081+9999MW1021
0106380010999991971031706004+44550+050250FM-12-002099999V0200901N00981220001CN0200001N9-00111-00391102711ADDAA199000091AY121999GF107991001001999999001021HL10009IA1309IA2999-00899KA1999N-00391MD1210061+9999MW1021
0057380010999991971031709004+44550+050250FM-12-002099999V0200901N00621220001CN0200001N9+00111-00891102691ADDAY111999GF101991001001999999001021MD1710021+9999MW1011
0068380010999991971031712004+44550+050250FM-12-002099999V0200701N00981012301CN0200001N9+00221-00281102491ADDAA199000091AY111999GF107991071051012501001001MD1710221+9999MW1031
0057380010999991971031715004+44550+050250FM-12-002099999V0200901N01391012301CN0200001N9+00221-00391102361ADDAY121999GF107991071051012501001001MD1710031+9999MW1021
0100380010999991971031718004+44550+050250FM-12-002099999V0200901N01391007801CN0100001N9+00391-00391102411ADDAA199000091AY121999GF108991081051008001999999KA1999M+99999MD1210051+9999MW1021EQDQ01 +00222ATMX  
0068380010999991971031800004+44550+050250FM-12-002099999V0200901N01081007801CN0100001N9+00281-00391102011ADDAA199000091AY121999GF108991081051008001999999MD1710111+9999MW1021
0057380010999991971031803004+44550+050250FM-12-002099999V0200901N01591007801CN0200001N9+00281-00501101891ADDAY121999GF108991081051008001999999MD1710121+9999MW1021
0106380010999991971031806004+44550+050250FM-12-002099999V0201101N01591007801CN0200001N9+00501-00391101881ADDAA199000091AY121999GF108991081051008001999999HL10009IA1309IA2999+00009KA1999N+00221MD1710011+9999MW1021
0057380010999991971031809004+44550+050250FM-12-002099999V0201101N01391024001CN0010001N9+00721-00221101711ADDAY121999GF108991081001999999021999MD1710171+9999MW1101
0068380010999991971031812004+44550+050250FM-12-002099999V0201101N00821220001CN0020001N9+00891-00111101551ADDAA199000091AY111999GF103991001001999999001021MD1710161+9999MW1101
0057380010999991971031815004+44550+050250FM-12-002099999V0200701N00871220001CN0200001N9+00391-00221101531ADDAY111999GF100991001001999999001001MD1710021+9999MW1011
0081380010999991971031818004+44550+050250FM-12-002099999V0200701N00721220001CN0100001N9+00501-00221101471ADDAA199000091AY111999GF100991001001999999001001KA1999M+00891MD1710061+9999MW1021
0057380010999991971031821004+44550+050250FM-12-002099999V0201101N009819999999N0100001N9+00391-00221101371ADDAY101999GF199999999071000251021001MD1510041+9999MW1001
0068380010999991971031900004+44550+050250FM-12-002099999V0209991C00001220001CN0100001N9+00281-00391101261ADDAA199000091AY111999GF105991001001999999001021MD1210011+9999MW1021
0123380010999991971031906004+44550+050250FM-12-002099999V0203201N00211024001CN0200001N9+00221+00001101311ADDAA199000091AJ100009199999999AY121999GF107991071001999999091001HL10009IA1189IA2999-00229KA1999N+00001MD1210051+9999MW1021
0057380010999991971031909004+44550+050250FM-12-002099999V0203601N00411220001CN0200001N9+00281-00221101261ADDAY111999GF100991001001999999001001MD1710051+9999MW1011
0068380010999991971031912004+44550+050250FM-12-002099999V0203601N00721090001CN0200001N9+00221+00001101241ADDAA199000091AY111999GF107991041001999999031021MD1710011+9999MW1021
0068380010999991971031915004+44550+050250FM-12-002099999V0203601N00721090001CN0200001N9+00221+00001101241ADDAA199000091AY111999GF107991041001999999031021MD1710011+9999MW1021
