0068380190999991971010100004+44150+053350FM-12+999999999V0209991C00001000151CN0005001N9-00391-00501102741ADDAA199000091AY141999GF109991091999000251999999MD1210131+9999MW1451
0081380190999991971010103004+44150+053350FM-12+999999999V0209991C00001000151CN0002001N9-00611-00611102761ADDAA199000091AY141999GF109991091999000251999999KA1999N-00611MD1210011+9999MW1451
0081380190999991971010106004+44150+053350FM-12+999999999V0201401N00311000151CN0002001N9-00501-00501103001ADDAA199000091AY141999GF109991091999000251999999KA1999N-00611MD1210231+9999MW1451
0057380190999991971010109004+44150+053350FM-12+999999999V0201401N003119999999N0002001N9-00221-00281102901ADDAY141999GF109991999999999999999999MD1810061+9999MW1451
0068380190999991971010112004+44150+053350FM-12+999999999V0201101N00411220001CN0500001N9+00111+00111102751ADDAA199000091AY141999GF108991001001999999001021MD1810141+9999MW1021
0081380190999991971010118004+44150+053350FM-12+999999999V0209991C00001220001CN0500001N9-00281-00391102631ADDAA199000091AY121999GF100991001001999999001001KA1999M+00221MD1710111+9999MW1021
0068380190999991971010200004+44150+053350FM-12+999999999V0201101N00721220001CN0500001N9-00281-00501102401ADDAA199000091AY111999GF107991001001999999001021MD1710151+9999MW1031
0123380190999991971010206004+44150+053350FM-12+999999999V0201401N00721007801CN0500001N9+00001-00221102351ADDAA199000091AJ100009199999999AY121999GF108991081051008001999999HL10009IA1189IA2999-00509KA1999N-00281MD1210061+9999MW1041
0057380190999991971010209004+44150+053350FM-12+999999999V0201601N00721036001CN0500001N9+00391-00111102261ADDAY121999GF108991021051008001011999MD1810061+9999MW1011
0068380190999991971010212004+44150+053350FM-12+999999999V0209991C00001090001CN0500001N9+00611-00111102351ADDAA199000091AY121999GF105991021041004501001031MD1310111+9999MW1011
0081380190999991971010218004+44150+053350FM-12+999999999V0209991C00001220001CN0040001N9+00001-00111102781ADDAA199000091AY101999GF100991001001999999001001KA1999M+00781MD1210131+9999MW1021
0068380190999991971010300004+44150+053350FM-12+999999999V0209991C00001220001CN0500001N9-00221-00221102851ADDAA199000091AY141999GF100991001001999999001001MD1310011+9999MW1021
0084380190999991971010303004+44150+053350FM-12+999999999V0202901N00311000151CN0002001N9-00221-00891102941ADDAA106999999AA299200091AY141999GF109991091999000251999999MW1471EQDQ01  78702PRCP06
0123380190999991971010306004+44150+053350FM-12+999999999V0209991C00001000151CN0002001N9-00221-00221103091ADDAA199000091AJ100009199999999AY141999GF109991091999000251999999HL10009IA1139IA2999-00399KA1999N-00281MD1310161+9999MW1451
0057380190999991971010309004+44150+053350FM-12+999999999V0209991C00001000151CN0002001N9-00111-00111103021ADDAY141999GF109991091999000251999999MD1810051+9999MW1451
0068380190999991971010312004+44150+053350FM-12+999999999V0209991C00001000151CN0002001N9-00111-00111103021ADDAA199000091AY141999GF109991091999000251999999MD1410001+9999MW1451
0081380190999991971010318004+44150+053350FM-12+999999999V0209991C00001000151CN0002001N9-00111-00111103231ADDAA199000091AY141999GF109991091999000251999999KA1999M+00001MD1210091+9999MW1491
0123380190999991971010403004+44150+053350FM-12+999999999V0209991C00001000151CN0002001N9-00391-00501103141ADDAA199000091AJ100009199999999AY141999GF109991091999000251999999HL10009IA1139IA2999-00399KA1999N-00391MD1710011+9999MW1451
0123380190999991971010406004+44150+053350FM-12+999999999V0201101N00721000151CN0002001N9-00391-00391103281ADDAA199000091AJ100009199999999AY141999GF109991091999000251999999HL10009IA1139IA2999-00399KA1999N-00391MD1310121+9999MW1451
0057380190999991971010409004+44150+053350FM-12+999999999V0201401N00821004501CN0200001N9-00221-00281103021ADDAY141999GF108991081061004501999999MD1810231+9999MW1021
0068380190999991971010412004+44150+053350FM-12+999999999V0201101N00721024001CN0200001N9+00001-00281102901ADDAA199000091AY141999GF108991081001999999011999MD1710111+9999MW1021
0081380190999991971010418004+44150+053350FM-12+999999999V0201401N00981220001CN0500001N9-00111-00391102791ADDAA199000091AY121999GF108991001001999999001021KA1999M+00001MD1210091+9999MW1021
0057380190999991971010421004+44150+053350FM-12+999999999V0201401N00981024001CN0500001N9-00221-00281102671ADDAY121999GF108991081001999999021999MD1210121+9999MW1021
0068380190999991971010500004+44150+053350FM-12+999999999V0201601N00511004501CN0500001N9-00221-00221102621ADDAA199000091AY121999GF108991081061004501999999MD1710041+9999MW1021
0123380190999991971010503004+44150+053350FM-12+999999999V0201601N00211004501CN0500001N9-00221-00221102511ADDAA199000091AJ100009199999999AY121999GF108991081061004501999999HL10009IA1139IA2999-00289KA1999N-00221MD1710111+9999MW1021
0123380190999991971010506004+44150+053350FM-12+999999999V0209991C00001000151CN0002001N9-00221-00221102561ADDAA199000091AJ100009199999999AY141999GF109991091999000251999999HL10009IA1139IA2999-00399KA1999N-00221MD1310051+9999MW1451
0057380190999991971010509004+44150+053350FM-12+999999999V0202001N00411000151CN0002001N9-00111-00111102501ADDAY141999GF109991091999000251999999MD1810061+9999MW1451
0068380190999991971010512004+44150+053350FM-12+999999999V0209991C00001000151CN0002001N9+00111-00111102551ADDAA199000091AY141999GF109991091999000251999999MD1310051+9999MW1451
0081380190999991971010518004+44150+053350FM-12+999999999V0202701N00411220001CN9999999N9+00001+00001102781ADDAA199000091AY141999GF100991001001999999001001KA1999M+00221MD1210071+9999MW1421
0057380190999991971010521004+44150+053350FM-12+999999999V0202701N00511220001CN0500001N9-00281-00281102981ADDAY141999GF100991001001999999001001MD1210181+9999MW1021
0068380190999991971010600004+44150+053350FM-12+999999999V0202701N00511220001CN0500001N9-00221-00281103091ADDAA199000091AY141999GF107991001001999999001021MD1710111+9999MW1021
0123380190999991971010603004+44150+053350FM-12+999999999V0209991C00001220001CN0500001N9-00501-00611103281ADDAA199000091AJ100009199999999AY111999GF100991001001999999001001HL10009IA1139IA2999-00619KA1999N-00501MD1210161+9999MW1021
0123380190999991971010606004+44150+053350FM-12+999999999V0209991C00001004501CN0040001N9-00391-00501103411ADDAA199000091AJ100009199999999AY111999GF107991071061004501001001HL10009IA1139IA2999-00619KA1999N-00501MD1210141+9999MW1101
0057380190999991971010609004+44150+053350FM-12+999999999V0202001N00211007801CN0040001N9-00221-00221103311ADDAY111999GF108991081061008001999999MD1810081+9999MW1101
0068380190999991971010612004+44150+053350FM-12+999999999V0202001N00411004501CN0040001N9-00221-00391103231ADDAA199000091AY121999GF108991081061004501999999MD1710081+9999MW1101
0070380190999991971010615004+44150+053350FM-12+999999999V0201801N00411004501CN0040001N9-00221-00281103181ADDAY121999GF108991081061004501999999KA1999M-00111MD1710051+9999MW1101
0081380190999991971010618004+44150+053350FM-12+999999999V0201601N00411004501CN0200001N9-00221-00221103111ADDAA199000091AY121999GF108991081061004501999999KA1999M-00111MD1710071+9999MW1021
0057380190999991971010621004+44150+053350FM-12+999999999V0201401N00511000151CN0002001N9-00281-00281103001ADDAY141999GF109991091999000251999999MD1710111+9999MW1471
0068380190999991971010700004+44150+053350FM-12+999999999V0201601N00411000151CN0002001N9-00281-00391102881ADDAA199000091AY141999GF109991091999000251999999MD1710131+9999MW1451
0123380190999991971010703004+44150+053350FM-12+999999999V0201601N004119999999N0002001N9-00391-00391102701ADDAA199000091AJ100009199999999AY141999GF199999091999999999999999HL10009IA1189IA2999-00399KA1999N-00391MD1710181+9999MW1451
0123380190999991971010706004+44150+053350FM-12+999999999V0201601N00311000151CN0002001N9-00281-00391102701ADDAA199000091AJ100009199999999AY141999GF109991091999000251999999HL10009IA1189IA2999-00399KA1999N-00391MD1410001+9999MW1451
0057380190999991971010709004+44150+053350FM-12+999999999V0201401N00411000151CN0002001N9-00221-00221102571ADDAY141999GF109991091999000251999999MD1810111+9999MW1451
0068380190999991971010712004+44150+053350FM-12+999999999V0209991C00001004501CN0040001N9-00111-00221102421ADDAA199000091AY141999GF108991081061004501999999MD1710151+9999MW1101
0092380190999991971010718004+44150+053350FM-12+999999999V0200501N00511004501CN0500001N9-00221-00281102701ADDAA106075091AA224999999AY151999GF108991081061004501999999KA1999M-00111MD1210171+9999MW1021
0068380190999991971010800004+44150+053350FM-12+999999999V0203601N00821004501CN0500001N9-00391-00501103271ADDAA199000091AY121999GF108991081061004501999999MD1210261+9999MW1021
0123380190999991971010803004+44150+053350FM-12+999999999V0203601N00871004501CN0500001N9-00391-00501103641ADDAA199000091AJ100009199999999AY121999GF108991081061004501999999HL10009IA1139IA2999-00509KA1999N-00501MD1210361+9999MW1021
0123380190999991971010806004+44150+053350FM-12+999999999V0200201N00821004501CN0500001N9-00281-00721104201ADDAA199000091AJ100009199999999AY121999GF108991081061004501999999HL10009IA1139IA2999-00509KA1999N-00501MD1310541+9999MW1021
0057380190999991971010809004+44150+053350FM-12+999999999V0200201N00981220001CN0200001N9-00391-01111104451ADDAY111999GF102991011001999999041011MD1210261+9999MW1011
0068380190999991971010812004+44150+053350FM-12+999999999V0200701N00981220001CN0500001N9-00391-01611104681ADDAA199000091AY111999GF102991001001999999001021MD1210231+9999MW1011
0081380190999991971010815004+44150+053350FM-12+999999999V0200501N00311220001CN0500001N9-01001-02001999999ADDAA199000091AY101999GF100991001001999999001001KA1999M-00221MD1210281+9999MW1011
0081380190999991971010818004+44150+053350FM-12+999999999V0209991C00001220001CN0500001N9-01111-01781999999ADDAA199000091AY101999GF100991001001999999001001KA1999M-00221MD1210131+9999MW1021
0057380190999991971010821004+44150+053350FM-12+999999999V0209991C00001220001CN0500001N9-01391-01721999999ADDAY101999GF100991001001999999001001MD1810051+9999MW1021
0068380190999991971010900004+44150+053350FM-12+999999999V0209991C00001220001CN0500001N9-01501-01721999999ADDAA199000091AY101999GF100991001001999999001001MD1710051+9999MW1021
0123380190999991971010903004+44150+053350FM-12+999999999V0209991C00001220001CN0500001N9-02001-02281104951ADDAA199000091AJ100009199999999AY101999GF100991001001999999001001HL10009IA1139IA2999-02119KA1999N-02111MD1810161+9999MW1021
0123380190999991971010906004+44150+053350FM-12+999999999V0201401N00511220001CN0500001N9-01281-02001104741ADDAA199000091AJ100009199999999AY101999GF100991001001999999001001HL10009IA1159IA2999-02119KA1999N-02111MD1710161+9999MW1021
0057380190999991971010909004+44150+053350FM-12+999999999V0201601N00821220001CN0500001N9-00501-01391104351ADDAY101999GF100991001001999999001001MD1710331+9999MW1021
0068380190999991971010912004+44150+053350FM-12+999999999V0201401N00871220001CN0500001N9-00281-01501104141ADDAA199000091AY101999GF100991001001999999001001MD1610191+9999MW1021
0081380190999991971010915004+44150+053350FM-12+999999999V0201401N00511220001CN0500001N9-01001-01391104031ADDAA199000091AY101999GF100991001001999999001001KA1999M-00221MD1710151+9999MW1021
0081380190999991971010918004+44150+053350FM-12+999999999V0201401N00511220001CN0500001N9-01281-01611103881ADDAA199000091AY101999GF100991001001999999001001KA1999M-00221MD1710171+9999MW1021
0057380190999991971010921004+44150+053350FM-12+999999999V0201401N00511220001CN0500001N9-01501-01721103731ADDAY101999GF100991001001999999001001MD1710171+9999MW1021
0068380190999991971011000004+44150+053350FM-12+999999999V0201401N00311220001CN0500001N9-01611-02111103631ADDAA199000091AY111999GF105991001001999999001071MD1710091+9999MW1031
0078380190999991971011003004+44150+053350FM-12+999999999V0201401N00311060001CN0500001N9-01781-02001103441ADDAY121999GA1071+060009079GF108991999071999999081001MW1021EQDQ01+000002SCOTLC
0081380190999991971011006004+44150+053350FM-12+999999999V0201401N00511004501CN0500001N9-01221-02001103481ADDAA199000091AY121999GF107991071051004501001001KA1999N-01891MD1310091+9999MW1021
0057380190999991971011009004+44150+053350FM-12+999999999V0201601N00511004501CN0500001N9-00501-01111103231ADDAY121999GF108991081051004501999999MD1810211+9999MW1021
0068380190999991971011012004+44150+053350FM-12+999999999V0201101N00621004501CN0500001N9-00281-00891103131ADDAA199000091AY121999GF108991081051004501999999MD1710081+9999MW1021
0081380190999991971011015004+44150+053350FM-12+999999999V0201101N00211007801CN0500001N9-00721-01281103151ADDAA199000091AY121999GF107991071051008001001001KA1999M-00221MD1410001+9999MW1011
0081380190999991971011018004+44150+053350FM-12+999999999V0209991C00001007801CN0500001N9-00501-01281103181ADDAA199000091AY121999GF108991081051008001999999KA1999M-00221MD1310031+9999MW1021
0068380190999991971011100004+44150+053350FM-12+999999999V0209991C00001007801CN0500001N9-00611-01221103131ADDAA199000091AY121999GF108991081051008001999999MD1810051+9999MW1021
0123380190999991971011103004+44150+053350FM-12+999999999V0200701N00311220001CN9999999N9-00781-01111103181ADDAA199000091AJ100009199999999AY101999GF104991999999999999999051HL10009IA1139IA2999-01119KA1999N-00891MD1310031+9999MW1171
0123380190999991971011106004+44150+053350FM-12+999999999V0209991C00001220001CN0500001N9-00781-01111103201ADDAA199000091AJ100009199999999AY121999GF104991021051008001041001HL10009IA1139IA2999-01119KA1999N-00891MD1210021+9999MW1011
0057380190999991971011109004+44150+053350FM-12+999999999V0209991C00001220001CN0500001N9-00391-01221102821ADDAY111999GF103991031051008001001001MD1810271+9999MW1011
0068380190999991971011112004+44150+053350FM-12+999999999V0209991C00001220001CN0500001N9-00281-01391102731ADDAA199000091AY111999GF100991001001999999001001MD1710141+9999MW1021
0057380190999991971011115004+44150+053350FM-12+999999999V0209991C00001220001CN0500001N9-00611-01391102601ADDAY101999GF100991001001999999001001MD1710161+9999MW1001
0081380190999991971011118004+44150+053350FM-12+999999999V0209991C00001220001CN0500001N9-00891-01221102411ADDAA199000091AY101999GF100991001001999999001001KA1999M-00221MD1710211+9999MW1021
0068380190999991971011200004+44150+053350FM-12+999999999V0202301N00411007801CN0500001N9-00611-00891101921ADDAA199000091AY111999GF107991071051008001001001MD1710211+9999MW1031
0123380190999991971011203004+44150+053350FM-12+999999999V0202701N00721007801CN0500001N9-00501-00611101731ADDAA199000091AJ100009199999999AY121999GF108991081051008001999999HL10009IA1139IA2999-01289KA1999N-01111MD1710191+9999MW1021
0123380190999991971011206004+44150+053350FM-12+999999999V0202701N00721004501CN0040001N9-00221-00281101521ADDAA199000091AJ100009199999999AY141999GF108991081061004501999999HL10009IA1139IA2999-01289KA1999N-01111MD1710181+9999MW1101
0057380190999991971011209004+44150+053350FM-12+999999999V0202701N00981007801CN0500001N9+00111-00221101261ADDAY121999GF108991081051008001999999MD1810241+9999MW1021
0068380190999991971011212004+44150+053350FM-12+999999999V0202501N00981090001CN0500001N9+00281-00221101101ADDAA199000091AY121999GF106991041051022501001031MD1710181+9999MW1021
0081380190999991971011215004+44150+053350FM-12+999999999V0202501N00411007801CN0500001N9+00001-00111101081ADDAA199000091AY121999GF108991081051008001999999KA1999M+00281MD1410001+9999MW1031
0057380190999991971011218004+44150+053350FM-12+999999999V0202901N00721012301CN0500001N9-00281-00391101101ADDAY121999GF108991081051012501999999MD1410001+9999MW1021
0079380190999991971011300004+44150+053350FM-12+999999999V0202901N00621004501CN0040001N9-00281-00501100971ADDAA106075091AA224999999AY151999GF108991081061004501999999MD1710101+9999MW1511
0134380190999991971011306004+44150+053350FM-12+999999999V0202701N00721004501CN0040001N9-00391-00391100791ADDAA106075091AA224999999AJ100009199999999AY171999GF108991081061004501999999HL10009IA1139IA2999-00399KA1999N-00391MD1710061+9999MW1771
0057380190999991971011309004+44150+053350FM-12+999999999V0202701N00821004501CN0040001N9+99999+99999100681ADDAY171999GF108991081061004501999999MD1710101+9999MW1101
0079380190999991971011312004+44150+053350FM-12+999999999V0202701N00871004501CN0040001N9-00111-00221100731ADDAA106001091AA299000391AY171999GF108991081061004501999999MD1310061+9999MW1711
0092380190999991971011318004+44150+053350FM-12+999999999V0203201N00511007801CN0500001N9-00721-00891101221ADDAA106002091AA299000591AY171999GF107991071051008001001001KA1999M+00001MD1210221+9999MW1021
0057380190999991971011321004+44150+053350FM-12+999999999V0203401N00411007801CN0500001N9-00891-01111101521ADDAY121999GF108991081051008001999999MD1210271+9999MW1021
0079380190999991971011400004+44150+053350FM-12+999999999V0200501N00411007801CN0500001N9-01391-02111101861ADDAA106075091AA224999999AY121999GF107991071051008001001001MD1210311+9999MW1021
0059380190999991971011403004+44150+053350FM-12+999999999V0200501N00511220001CN0500001N9-01781-02001102201ADDAY121999GA1011+005409009GF107991999081017501999021MW1021
0153380190999991971011406004+44150+053350FM-12+999999999V0200201N00411220001CN0500001N9-01781-02281102761ADDAA106075091AA224999999AJ100009199999999AY111999GF102991011001999999041011HL10009IA1139IA2999-01509KA1999N+99999MD1310491+9999MW1021EQDQ01 -01722ATMN  
0057380190999991971011409004+44150+053350FM-12+999999999V0203601N00721220001CN0500001N9-01391-02501103031ADDAY101999GF101991011001999999041001MD1210401+9999MW1021
0068380190999991971011412004+44150+053350FM-12+999999999V0203401N00821220001CN0500001N9-01501-02221103291ADDAA199000091AY101999GF100991001001999999001001MD1210251+9999MW1021
0081380190999991971011415004+44150+053350FM-12+999999999V0203201N00511220001CN0500001N9-01891-02391103621ADDAA199000091AY101999GF100991001001999999001001KA1999M-01391MD1210291+9999MW1021
0081380190999991971011418004+44150+053350FM-12+999999999V0203201N00211220001CN0500001N9-02221-02501103781ADDAA199000091AY101999GF100991001001999999001001KA1999M-01391MD1210131+9999MW1021
0057380190999991971011421004+44150+053350FM-12+999999999V0202701N00511220001CN0500001N9-02281-02501103841ADDAY101999GF100991001001999999001001MD1510061+9999MW1021
0068380190999991971011500004+44150+053350FM-12+999999999V0202501N00511220001CN0500001N9-02221-02501103791ADDAA199000091AY101999GF102991001001999999001031MD1810051+9999MW1021
0123380190999991971011503004+44150+053350FM-12+999999999V0202001N00511220001CN0500001N9-02281-02501103741ADDAA199000091AJ100009199999999AY101999GF100991001001999999001001HL10009IA1189IA2999-02399KA1999N-02281MD1710061+9999MW1011
0123380190999991971011506004+44150+053350FM-12+999999999V0201401N00621220001CN0500001N9-01781-02391103701ADDAA199000091AJ100009199999999AY101999GF102991001001999999001031HL10009IA1189IA2999-02399KA1999N-02281MD1410001+9999MW1021
0057380190999991971011509004+44150+053350FM-12+999999999V0202001N00871220001CN0500001N9-01111-02281103351ADDAY101999GF102991001001999999001021MD1810301+9999MW1021
0068380190999991971011515004+44150+053350FM-12+999999999V0202001N00871220001CN0500001N9-01001-01891103171ADDAA199000091AY101999GF102991011001999999041031MD1610161+9999MW1021
0081380190999991971011518004+44150+053350FM-12+999999999V0202001N00871024001CN0500001N9-01111-02111102711ADDAA199000091AY111999GF108991081001999999091999KA1999M-00781MD1710291+9999MW1021
0068380190999991971011600004+44150+053350FM-12+999999999V0202301N00871004501CN0500001N9-00721-01221102381ADDAA199000091AY111999GF108991081061004501999999MD1710161+9999MW1031
0106380190999991971011606004+44150+053350FM-12+999999999V0202301N00981220001CN0500001N9-00391-00721102231ADDAA199000091AY111999GF104991041001999999081001HL10009IA1309IA2999-01289KA1999N-01221MD1310061+9999MW1031
0057380190999991971011609004+44150+053350FM-12+999999999V0202501N00981220001CN0500001N9+00221-00501102131ADDAY111999GF104991041001999999041001MD1810061+9999MW1021
0068380190999991971011612004+44150+053350FM-12+999999999V0202501N011819999999N0500001N9+00281-00781102141ADDAA199000091AY121999GF106991021001999999041021MD1310021+9999MW1011
0081380190999991971011615004+44150+053350FM-12+999999999V0202301N00511220001CN0500001N9-00221-00611102291ADDAA199000091AY101999GF102991021001999999041011KA1999M+00281MD1210111+9999MW1021
0081380190999991971011618004+44150+053350FM-12+999999999V0202301N00721220001CN0500001N9-00391-00721102401ADDAA199000091AY121999GF100991001001999999001001KA1999M+00281MD1210101+9999MW1021
0057380190999991971011621004+44150+053350FM-12+999999999V0202301N00411220001CN0500001N9-00611-00781102411ADDAY101999GF100991001001999999001001MD1410001+9999MW1021
0068380190999991971011700004+44150+053350FM-12+999999999V0202301N00511220001CN0500001N9-00781-00891102521ADDAA199000091AY101999GF100991001001999999001001MD1310081+9999MW1021
0100380190999991971011706004+44150+053350FM-12+999999999V0202301N00411220001CN0500001N9-00391-00611102701ADDAA199000091AY101999GF100991001001999999001001HL10009IA2999-01729KA1999N-00891MD1210141+9999MW1021
0057380190999991971011709004+44150+053350FM-12+999999999V0202301N00511220001CN0500001N9+00391-00281102641ADDAY101999GF101991011001999999041001MD1810011+9999MW1021
0068380190999991971011712004+44150+053350FM-12+999999999V0202301N00411220001CN0500001N9+00281-00281102641ADDAA199000091AY101999GF101991011001999999041001MD1410001+9999MW1021
0081380190999991971011718004+44150+053350FM-12+999999999V0201601N00411220001CN0500001N9-00281-00501102741ADDAA199000091AY101999GF102991021001999999041001KA1999M+00611MD1210011+9999MW1021
0057380190999991971011721004+44150+053350FM-12+999999999V0209991C00001024001CN0500001N9-00501-00611102751ADDAY121999GF105991051001999999091001MD1410001+9999MW1031
0068380190999991971011800004+44150+053350FM-12+999999999V0209991C00001024001CN0500001N9-00611-00611102751ADDAA199000091AY111999GF107991071001999999041001MD1810011+9999MW1021
0106380190999991971011803004+44150+053350FM-12+999999999V0209991C00001024001CN0500001N9-00611-00721102811ADDAA199000091AY101999GF107991071001999999041001HL10009IA1209IA2999-00789KA1999N-00611MD1310091+9999MW1021
0123380190999991971011806004+44150+053350FM-12+999999999V0200901N00871024001CN0500001N9-00501-00721102881ADDAA199000091AJ100009199999999AY121999GF108991081001999999071999HL10009IA1189IA2999-00789KA1999N-00721MD1210041+9999MW1021
0057380190999991971011809004+44150+053350FM-12+999999999V0209999900311024001CN0500001N9+00111-00611102721ADDAY121999GF106991061001999999091001MD1810121+9999MW1021
0068380190999991971011812004+44150+053350FM-12+999999999V0209991C00001024001CN0500001N9+00221-00391102721ADDAA199000091AY121999GF106991061001999999091001MD1410001+9999MW1021
0081380190999991971011818004+44150+053350FM-12+999999999V0209991C00001024001CN0500001N9-00111-00391102841ADDAA199000091AY121999GF108991081001999999071999KA1999M+00221MD1210051+9999MW1021
0068380190999991971011900004+44150+053350FM-12+999999999V0209991C00001024001CN0500001N9-00281-00391102841ADDAA199000091AY121999GF108991081001999999091999MD1710021+9999MW1021
0123380190999991971011903004+44150+053350FM-12+999999999V0209991C00001007801CN0500001N9-00281-00501102831ADDAA199000091AJ100009199999999AY121999GF107991071051008001001001HL10009IA1139IA2999-00399KA1999N-00281MD1710011+9999MW1021
0123380190999991971011906004+44150+053350FM-12+999999999V0209991C00001007801CN0500001N9-00221-00281102951ADDAA199000091AJ100009199999999AY121999GF107991071051008001001001HL10009IA1139IA2999-00399KA1999N-00281MD1310131+9999MW1021
0057380190999991971011909004+44150+053350FM-12+999999999V0209991C00001007801CN0500001N9+00111-00391102831ADDAY121999GF107991071051008001001001MD1710101+9999MW1021
0068380190999991971011912004+44150+053350FM-12+999999999V0209991C00001007801CN0500001N9+00221-00501102871ADDAA199000091AY121999GF106991061051008001001001MD1310031+9999MW1011
0081380190999991971011918004+44150+053350FM-12+999999999V0209991C00001220001CN0500001N9-00501-00721103011ADDAA199000091AY111999GF100991001001999999001001KA1999M+00391MD1410001+9999MW1021
0068380190999991971012000004+44150+053350FM-12+999999999V0209991C00001220001CN0002001N9-01001-01001103061ADDAA199000091AY141999GF100991001001999999001001MD1410001+9999MW1461
0123380190999991971012003004+44150+053350FM-12+999999999V0209991C00001220001CN0002001N9-01111-01111103151ADDAA199000091AJ100009199999999AY141999GF100991001001999999001001HL10009IA1139IA2999-01289KA1999N-01221MD1310071+9999MW1481
0123380190999991971012006004+44150+053350FM-12+999999999V0200701N00311004501CN0500001N9-00891-00891103231ADDAA199000091AJ100009199999999AY141999GF105991051061004501001001HL10009IA1139IA2999-01289KA1999N-01221MD1210101+9999MW1031
0057380190999991971012009004+44150+053350FM-12+999999999V0200701N00101220001CN0500001N9-00501-00611103171ADDAY141999GF102991021061004501001001MD1810031+9999MW1011
0054380190999991971012012004+44150+053350FM-12+999999999V0200701N00721220001CN0500001N9-00391-00611103181ADDAA199000091AY111999GF102991021051008001001001MW1031
0081380190999991971012015004+44150+053350FM-12+999999999V0200901N00871004501CN0500001N9-00501-00611103301ADDAA199000091AY111999GF108991081061004501999999KA1999M-00281MD1210101+9999MW1021
0142380190999991971012018004+44150+053350FM-12+999999999V0200901N00411004501CN0020001N9-00391-00501103301ADDAA199999999AJ100009199999999AY171999GF108991081061004501999999HL10009IA1309IA2999+00119KA1999M-00391MD1110011+9999MW1771EQDQ01  00002PRCP99
0079380190999991971012100004+44150+053350FM-12+999999999V0201101N00511004501CN0500001N9-00611-00781103311ADDAA106075091AA224999999AY171999GF108991081061004501999999MD1410001+9999MW1021
0112380190999991971012106004+44150+053350FM-12+999999999V0201401N00411004501CN0500001N9-00611-00721103401ADDAJ100009199999999AY121999GF108991081061004501999999HL10009IA1139IA2999-00619KA1999N-00721MD1210081+9999MW1021
0068380190999991971012112004+44150+053350FM-12+999999999V0200901N00511004501CN0500001N9-00391-00891103271ADDAA199000091AY121999GF108991081061004501999999MD1610021+9999MW1021
0081380190999991971012118004+44150+053350FM-12+999999999V0201101N00821004501CN0200001N9-00611-00611103311ADDAA199000091AY121999GF108991081061004501999999KA1999M-00221MD1210011+9999MW1021
0068380190999991971012200004+44150+053350FM-12+999999999V0201401N00511004501CN0500001N9-00721-00781103321ADDAA199000091AY121999GF108991081061004501999999MD1410001+9999MW1021
0117380190999991971012206004+44150+053350FM-12+999999999V0201101N00721004501CN0200001N9-00781-00891103551ADDAA199000091AJ100009199999999AY121999GF108991081061004501999999HL10009IA2999-00619KA1999N-00781MD1310201+9999MW1101
0057380190999991971012209004+44150+053350FM-12+999999999V0201401N00621220001CN0500001N9-00611-00891103241ADDAY111999GF102991021051008001001001MD1810081+9999MW1011
0068380190999991971012212004+44150+053350FM-12+999999999V0201401N00511220001CN0500001N9-00391-01111103391ADDAA199000091AY111999GF100991001001999999001001MD1710041+9999MW1021
0081380190999991971012218004+44150+053350FM-12+999999999V0201401N00311220001CN0500001N9-01221-01391103591ADDAA199000091AY101999GF100991001001999999001001KA1999M-00281MD1210061+9999MW1021
0057380190999991971012221004+44150+053350FM-12+999999999V0201401N00511000151CN0002001N9-01111-01221103661ADDAY111999GF109991091999000251999999MD1210061+9999MW1471
0068380190999991971012300004+44150+053350FM-12+999999999V0201101N00311000151CN0002001N9-01001-01001103641ADDAA199000091AY141999GF109991091999000251999999MD1810011+9999MW1491
0123380190999991971012303004+44150+053350FM-12+999999999V0201101N00511000151CN0002001N9-00891-00891103681ADDAA199000091AJ100009199999999AY141999GF109991091999000251999999HL10009IA1139IA2999-01399KA1999N-01281MD1310041+9999MW1491
0123380190999991971012306004+44150+053350FM-12+999999999V0201101N00511000151CN0002001N9-00611-00891103841ADDAA199000091AJ100009199999999AY141999GF109991091999000251999999HL10009IA1139IA2999-01399KA1999N-01281MD1210171+9999MW1491
0057380190999991971012309004+44150+053350FM-12+999999999V0201601N00411004501CN0200001N9-00721-00891103821ADDAY141999GF108991081061004501999999MD1410001+9999MW1281
0068380190999991971012312004+44150+053350FM-12+999999999V0201401N00411220001CN0500001N9-00501-00501103811ADDAA199000091AY141999GF100991001001999999001001MD1410001+9999MW1011
0081380190999991971012318004+44150+053350FM-12+999999999V0209991C00001220001CN0500001N9-01001-01001103861ADDAA199000091AY101999GF100991001001999999001001KA1999M-00391MD1310071+9999MW1021
0057380190999991971012321004+44150+053350FM-12+999999999V0209991C00001220001CN0500001N9-01001-01111103841ADDAY101999GF100991001001999999001001MD1810021+9999MW1021
0068380190999991971012400004+44150+053350FM-12+999999999V0209991C00001220001CN0500001N9-01281-01391103831ADDAA199000091AY101999GF100991001001999999001001MD1710031+9999MW1021
0110380190999991971012403004+44150+053350FM-12+999999999V0209991C00001220001CN0500001N9-01501-01721103781ADDAA199000091AJ100009199999999AY101999GF100991001001999999001001HL10009IA1139IA2999-01619MD1710051+9999MW1021
0057380190999991971012409004+44150+053350FM-12+999999999V0201601N00511220001CN0500001N9+00221-00281103661ADDAY101999GF102991001001999999001051MD1810081+9999MW1021
0068380190999991971012412004+44150+053350FM-12+999999999V0201801N00511220001CN0500001N9+00281-00611103551ADDAA199000091AY101999GF102991021001999999051001MD1710101+9999MW1021
0081380190999991971012418004+44150+053350FM-12+999999999V0201601N00211220001CN0500001N9-00781-00891103641ADDAA199000091AY101999GF100991001001999999001001KA1999M+00281MD1810081+9999MW1021
0068380190999991971012500004+44150+053350FM-12+999999999V0209991C00001220001CN0500001N9-01001-01111103591ADDAA199000091AY101999GF100991001001999999001001MD1810051+9999MW1021
0123380190999991971012503004+44150+053350FM-12+999999999V0201601N00411220001CN0500001N9-01111-01221103541ADDAA199000091AJ100009199999999AY101999GF102991021001999999041001HL10009IA1139IA2999-01229KA1999N-01111MD1710051+9999MW1031
0123380190999991971012506004+44150+053350FM-12+999999999V0201601N00311220001CN0500001N9-00611-01111103551ADDAA199000091AJ100009199999999AY101999GF100991001001999999001001HL10009IA1139IA2999-01229KA1999N-01111MD1310041+9999MW1021
0057380190999991971012509004+44150+053350FM-12+999999999V0201601N00721220001CN0500001N9+00221-00891103391ADDAY101999GF102991001001999999001021MD1810111+9999MW1021
0068380190999991971012512004+44150+053350FM-12+999999999V0201401N00721220001CN0500001N9+00391-01721103341ADDAA199000091AY101999GF102991001001999999001021MD1710051+9999MW1021
0100380190999991971012515004+44150+053350FM-12+999999999V0201401N00721220001CN0200001N9-00391-01221103491ADDAA199000091AY101999GF100991001001999999001001KA1999M+00391MD1310091+9999MW1011EQDQ01    993SCOTCV
0081380190999991971012518004+44150+053350FM-12+999999999V0201401N00511220001CN0500001N9-00721-01221103531ADDAA199000091AY101999GF100991001001999999001001KA1999M+00391MD1210021+9999MW1021
0057380190999991971012521004+44150+053350FM-12+999999999V0201601N00511220001CN0500001N9-00221-01111103841ADDAY101999GF100991001001999999001001MD1210031+9999MW1021
0068380190999991971012600004+44150+053350FM-12+999999999V0201601N00101220001CN0500001N9-01111-01221103581ADDAA199000091AY101999GF100991001001999999001001MD1410001+9999MW1021
0123380190999991971012603004+44150+053350FM-12+999999999V0201401N00411220001CN0500001N9-01501-01611103601ADDAA199000091AJ100009199999999AY101999GF100991001001999999001001HL10009IA1139IA2999-01509KA1999N-01501MD1410001+9999MW1021
0123380190999991971012606004+44150+053350FM-12+999999999V0201401N00511220001CN0500001N9-00891-01221103691ADDAA199000091AJ100009199999999AY101999GF100991001001999999001001HL10009IA1139IA2999-01509KA1999N-01501MD1310121+9999MW1021
0057380190999991971012609004+44150+053350FM-12+999999999V0201401N00721220001CN0500001N9+00221-01281103511ADDAY101999GF100991001001999999001001MD1810101+9999MW1021
0068380190999991971012612004+44150+053350FM-12+999999999V0201401N00721220001CN0500001N9+00391-01281103491ADDAA199000091AY101999GF101991001999999999001021MD1710011+9999MW1021
0081380190999991971012618004+44150+053350FM-12+999999999V0201401N00311220001CN0500001N9-00721-01001103561ADDAA199000091AY101999GF100991001001999999001001KA1999M+00501MD1410001+9999MW1021
0057380190999991971012621004+44150+053350FM-12+999999999V0201401N00511220001CN0500001N9-00891-01111103581ADDAY101999GF100991001001999999001001MD1410001+9999MW1021
0068380190999991971012700004+44150+053350FM-12+999999999V0201401N00311220001CN0500001N9-01281-01391103571ADDAA199000091AY101999GF100991001001999999001001MD1810041+9999MW1021
0123380190999991971012703004+44150+053350FM-12+999999999V0201601N00311220001CN0500001N9-01391-01501103591ADDAA199000091AJ100009199999999AY101999GF100991001001999999001001HL10009IA1139IA2999-01619KA1999N-01391MD1310011+9999MW1021
0117380190999991971012706004+44150+053350FM-12+999999999V0201401N00511220001CN0500001N9-00781-01221103591ADDAA199000091AJ100009199999999AY101999GF100991001001999999001001HL10009IA2999-01619KA1999N-01391MD1310031+9999MW1021
0057380190999991971012709004+44150+053350FM-12+999999999V0201401N00621220001CN0500001N9+00221-00891103521ADDAY101999GF100991001001999999001001MD1410001+9999MW1021
0068380190999991971012712004+44150+053350FM-12+999999999V0201401N00821220001CN0500001N9+00281-00221103581ADDAA199000091AY101999GF100991001001999999001001MD1410001+9999MW1021
0081380190999991971012718004+44150+053350FM-12+999999999V0209991C00001220001CN0500001N9-00781-01111103551ADDAA199000091AY101999GF100991001001999999001001KA1999M+00391MD1310011+9999MW1021
0057380190999991971012721004+44150+053350FM-12+999999999V0209991C00001220001CN0500001N9-01111-01111103551ADDAY101999GF100991001001999999001001MD1410001+9999MW1021
0068380190999991971012800004+44150+053350FM-12+999999999V0209991C00001220001CN0500001N9-01281-01281103551ADDAA199000091AY101999GF100991001001999999001001MD1810021+9999MW1021
0123380190999991971012803004+44150+053350FM-12+999999999V0209991C00001220001CN0500001N9-01221-01281103541ADDAA199000091AJ100009199999999AY101999GF100991001001999999001001HL10009IA1139IA2999-01509KA1999N-01281MD1710011+9999MW1021
0123380190999991971012806004+44150+053350FM-12+999999999V0201101N00621220001CN0100001N9-00781-01001103531ADDAA199000091AJ100009199999999AY101999GF100991001001999999001001HL10009IA1139IA2999-01509KA1999N-01221MD1310021+9999MW1021
0057380190999991971012809004+44150+053350FM-12+999999999V0201101N00721220001CN0500001N9+00111-01221103371ADDAY101999GF100991001001999999001001MD1810101+9999MW1021
0068380190999991971012812004+44150+053350FM-12+999999999V0201101N00721220001CN0500001N9+00281-01111103281ADDAA199000091AY101999GF100991001001999999001001MD1710071+9999MW1021
0081380190999991971012818004+44150+053350FM-12+999999999V0201101N00101220001CN0500001N9-00781-01281103401ADDAA199000091AY101999GF100991001001999999001001KA1999M+00391MD1310041+9999MW1021
0057380190999991971012821004+44150+053350FM-12+999999999V0201101N00411220001CN0500001N9-01001-01111103411ADDAY101999GF100991001001999999001001MD1410001+9999MW1021
0068380190999991971012900004+44150+053350FM-12+999999999V0209991C00001220001CN0500001N9-01111-01221103421ADDAA199000091AY101999GF100991001001999999001001MD1810101+9999MW1021
0123380190999991971012903004+44150+053350FM-12+999999999V0209991C00001220001CN0500001N9-01281-01281103301ADDAA199000091AJ100009199999999AY101999GF100991001001999999001001HL10009IA1139IA2999-01399KA1999N-01281MD1510031+9999MW1021
0123380190999991971012906004+44150+053350FM-12+999999999V0201101N00511220001CN0500001N9-00721-01111103321ADDAA199000091AJ100009199999999AY101999GF100991001001999999001001HL10009IA1139IA2999-01399KA1999N-01281MD1310061+9999MW1021
0057380190999991971012909004+44150+053350FM-12+999999999V0200901N00721220001CN0500001N9+00001-01221103711ADDAY101999GF100991001001999999001001MD1810121+9999MW1021
0087380190999991971012912004+44150+053350FM-12+999999999V0200901N00721220001CN0500001N9+00391-01501103711ADDAA199000091AY101999GF100991001001999999001001MD1410001+9999MW1021EQDQ01+000082APCTEN
0081380190999991971012918004+44150+053350FM-12+999999999V0201101N00511220001CN0500001N9-01001-01001103351ADDAA199000091AY101999GF100991001001999999001001KA1999M+00501MD1410001+9999MW1021
0068380190999991971013000004+44150+053350FM-12+999999999V0201101N00101220001CN0500001N9-01281-01391103731ADDAA199000091AY101999GF100991001001999999001001MD1410001+9999MW1021
0123380190999991971013003004+44150+053350FM-12+999999999V0209991C00001220001CN0500001N9-01281-01391103161ADDAA199000091AJ100009199999999AY101999GF100991001001999999001001HL10009IA1139IA2999-01509KA1999N-01391MD1310011+9999MW1021
0123380190999991971013006004+44150+053350FM-12+999999999V0209991C00001220001CN0500001N9-00891-01001103281ADDAA199000091AJ100009199999999AY101999GF100991001001999999001001HL10009IA1139IA2999-01509KA1999N-01391MD1210051+9999MW1021
0068380190999991971013012004+44150+053350FM-12+999999999V0209991C00001220001CN0500001N9+00281-00721103021ADDAA199000091AY101999GF100991001001999999001001MD1710051+9999MW1021
0081380190999991971013015004+44150+053350FM-12+999999999V0201101N00101220001CN0500001N9-00391-01001102981ADDAA199000091AY101999GF100991001001999999001001KA1999M+00391MD1610081+9999MW1021
0068380190999991971013018004+44150+053350FM-12+999999999V0209991C00001220001CN0500001N9-00781-01001102771ADDAA199000091AY101999GF100991001001999999001001MD1810011+9999MW1021
0068380190999991971013100004+44150+053350FM-12+999999999V0201401N00311220001CN0500001N9-01221-01281102941ADDAA199000091AY101999GF100991001001999999001001MD1710021+9999MW1021
0123380190999991971013103004+44150+053350FM-12+999999999V0209991C00001220001CN0500001N9-01281-01391102991ADDAA199000091AJ100009199999999AY101999GF100991001001999999001001HL10009IA1139IA2999-01619KA1999N-01281MD1310041+9999MW1021
0123380190999991971013106004+44150+053350FM-12+999999999V0209991C00001220001CN0500001N9-00501-00891103021ADDAA199000091AJ100009199999999AY101999GF100991001001999999001001HL10009IA1139IA2999-01619KA1999N-01281MD1210091+9999MW1021
0068380190999991971013112004+44150+053350FM-12+999999999V0201101N00101220001CN0500001N9+00391-01001102991ADDAA199000091AY101999GF100991001001999999001001MD1310031+9999MW1021
0081380190999991971013118004+44150+053350FM-12+999999999V0209991C00001220001CN0500001N9-00721-01281103201ADDAA199000091AY101999GF100991001001999999001001KA1999M+00501MD1210021+9999MW1021
0057380190999991971013121004+44150+053350FM-12+999999999V0209991C00001220001CN0500001N9-01111-01281103251ADDAY101999GF100991001001999999001001MD1210031+9999MW1021
0068380190999991971020100004+44150+053350FM-12+999999999V0200101N00411220001CN0500001N9-01391-01501103291ADDAA199000091AY101999GF100991001001999999001001MD1110011+9999MW1021
0123380190999991971020103004+44150+053350FM-12+999999999V0209991C00001220001CN0500001N9-01221-01221103161ADDAA199000091AJ100009199999999AY101999GF100991001001999999001001HL10009IA1139IA2999-01619KA1999N-01611MD1810021+9999MW1021
0123380190999991971020106004+44150+053350FM-12+999999999V0201401N00101220001CN0500001N9-01111-01391103361ADDAA199000091AJ100009199999999AY101999GF100991001001999999001001HL10009IA1139IA2999-01619KA1999N-01501MD1310091+9999MW1021
0057380190999991971020109004+44150+053350FM-12+999999999V0201401N00411220001CN0500001N9-00221-00721103191ADDAY101999GF100991001001999999001001MD1810091+9999MW1021
0068380190999991971020112004+44150+053350FM-12+999999999V0201101N00411220001CN0500001N9+00001-00611103151ADDAA199000091AY101999GF100991001001999999001001MD1710041+9999MW1021
0081380190999991971020115004+44150+053350FM-12+999999999V0201101N00211220001CN0500001N9-00501-01221103231ADDAA199000091AY101999GF100991001001999999001001KA1999M+00001MD1310041+9999MW1021
0081380190999991971020118004+44150+053350FM-12+999999999V0201101N00311220001CN0500001N9-01001-01391103231ADDAA199000091AY101999GF100991001001999999001001KA1999M+00001MD1810031+9999MW1021
0068380190999991971020200004+44150+053350FM-12+999999999V0209991C00001220001CN0500001N9-01501-01611103191ADDAA199000091AY101999GF100991001001999999001001MD1710041+9999MW1021
0123380190999991971020206004+44150+053350FM-12+999999999V0201101N00311220001CN0500001N9-01111-01111103151ADDAA199000091AJ100009199999999AY111999GF100991001001999999001001HL10009IA1139IA2999-01789KA1999N-01721MD1410001+9999MW1021
0068380190999991971020212004+44150+053350FM-12+999999999V0201101N00621220001CN0500001N9+00001-01391102791ADDAA199000091AY101999GF100991001001999999001001MD1710111+9999MW1021
0068380190999991971020300004+44150+053350FM-12+999999999V0201101N00511220001CN0500001N9-01611-01611102561ADDAA199000091AY101999GF100991001001999999001001MD1710101+9999MW1021
0123380190999991971020303004+44150+053350FM-12+999999999V0201101N00511220001CN0500001N9-01721-01891102481ADDAA199000091AJ100009199999999AY101999GF100991001001999999001001HL10009IA1139IA2999-01789KA1999N-01721MD1710081+9999MW1021
0123380190999991971020306004+44150+053350FM-12+999999999V0201101N00621220001CN0500001N9-01221-01221102511ADDAA199000091AJ100009199999999AY101999GF101991011001999999041001HL10009IA1139IA2999-01789KA1999N-01721MD1310081+9999MW1031
0057380190999991971020309004+44150+053350FM-12+999999999V0201101N00721220001CN0500001N9-00391-01221102251ADDAY111999GF106991001001999999001021MD1810211+9999MW1031
0068380190999991971020312004+44150+053350FM-12+999999999V0201101N00721007801CN0500001N9-00221-01221102251ADDAA199000091AY111999GF107991061051008001041011MD1710051+9999MW1031
0057380190999991971020315004+44150+053350FM-12+999999999V0200901N00721024001CN0500001N9-00501-01221102201ADDAY121999GF107991071001999999031001MD1410001+9999MW1021
0081380190999991971020318004+44150+053350FM-12+999999999V0201101N00721024001CN0500001N9-00611-01221102251ADDAA199000091AY121999GF107991071001999999051021KA1999M-00221MD1310041+9999MW1021
0057380190999991971020321004+44150+053350FM-12+999999999V0201101N00721024001CN0500001N9-00781-01111102251ADDAY121999GF107991071001999999091001MD1810021+9999MW1021
0068380190999991971020400004+44150+053350FM-12+999999999V0201101N00511024001CN0500001N9-00891-01221102261ADDAA199000091AY121999GF107991071001999999091001MD1410001+9999MW1021
0123380190999991971020406004+44150+053350FM-12+999999999V0201101N00821024001CN0040001N9-00721-01111102291ADDAA199000091AJ100009199999999AY121999GF106991061001999999071001HL10009IA1139IA2999-01229KA1999N-01111MD1310031+9999MW1101
0057380190999991971020409004+44150+053350FM-12+999999999V0201101N008719999999N0500001N9-00111-00891102121ADDAY121999GF105991041001999999091031MD1810061+9999MW1021
0068380190999991971020412004+44150+053350FM-12+999999999V0201101N00621024001CN0500001N9+00391-00501101961ADDAA199000091AY121999GF106991061001999999081001MD1710111+9999MW1021
0081380190999991971020418004+44150+053350FM-12+999999999V0201401N00511220001CN0500001N9-00501-00611102051ADDAA199000091AY111999GF102991021001999999041001KA1999M+00501MD1210021+9999MW1011
0087380190999991971020500004+44150+053350FM-12+999999999V0209991C00001220001CN0500001N9-01001-01001101991ADDAA199000091AY111999GF100991001001999999001001MD1710071+9999MW1021EQDQ01    993SCOTCV
0123380190999991971020503004+44150+053350FM-12+999999999V0209991C00001220001CN0500001N9-01001-01111101891ADDAA199000091AJ100009199999999AY111999GF108991001001999999001021HL10009IA1139IA2999-01119KA1999N-01001MD1710101+9999MW1031
0123380190999991971020506004+44150+053350FM-12+999999999V0209991C00001024001CN0500001N9-00611-00781101871ADDAA199000091AJ100009199999999AY121999GF107991071001999999091001HL10009IA1139IA2999-01119KA1999N-01001MD1310011+9999MW1031
0057380190999991971020509004+44150+053350FM-12+999999999V0203401N00411220001CN0500001N9+00221-00611101651ADDAY121999GF108991001001999999001021MD1810171+9999MW1021
0068380190999991971020512004+44150+053350FM-12+999999999V0203401N00621220001CN0500001N9+00111-00721101551ADDAA199000091AY121999GF106991001001999999001021MD1710111+9999MW1011
0081380190999991971020518004+44150+053350FM-12+999999999V0203401N00721024001CN0500001N9-00611-00781101531ADDAA199000091AY121999GF105991051001999999041001KA1999M+00281MD1810071+9999MW1011
0068380190999991971020600004+44150+053350FM-12+999999999V0209991C00001220001CN0500001N9-01001-01001101351ADDAA199000091AY111999GF102991001001999999001021MD1710181+9999MW1011
0117380190999991971020606004+44150+053350FM-12+999999999V0209991C00001220001CN0200001N9-00721-00781101211ADDAA199000091AJ100009199999999AY141999GF101991001001999999001021HL10009IA2999-01289KA1999N-01001MD1710041+9999MW1021
0057380190999991971020609004+44150+053350FM-12+999999999V0201801N00101220001CN0500001N9+00111-00781100961ADDAY101999GF100991001001999999001001MD1710191+9999MW1021
0068380190999991971020612004+44150+053350FM-12+999999999V0202001N00101220001CN0500001N9+00611-00891100741ADDAA199000091AY101999GF101991001001999999001011MD1710181+9999MW1021
0081380190999991971020615004+44150+053350FM-12+999999999V0209991C00001220001CN0500001N9-00221-01221100821ADDAA199000091AY101999GF100991001001999999001001KA1999M+00611MD1310031+9999MW1021
0081380190999991971020618004+44150+053350FM-12+999999999V0202301N00621024001CN0500001N9+00001-00721100861ADDAA199000091AY111999GF108991081001999999011999KA1999M+00611MD1210051+9999MW1031
0079380190999991971020700004+44150+053350FM-12+999999999V0202901N00981004501CN0500001N9-00281-00391101061ADDAA106002091AA299000591AY171999GF108991071061004501999999MD1210061+9999MW1021
0117380190999991971020703004+44150+053350FM-12+999999999V0202901N00311007801CN0500001N9-00611-00781101081ADDAA106002091AA299000591AY121999GF108991081051008001999999HL10009IA1189IA2999-00729KA1999N-00611MD1410001+9999MW1021
0117380190999991971020706004+44150+053350FM-12+999999999V0202001N00511024001CN0040001N9-00611-00781101161ADDAA106002091AA299000591AY121999GF108991051001999999051021HL10009IA1189IA2999-00729KA1999N-00611MD1310081+9999MW1101
0057380190999991971020709004+44150+053350FM-12+999999999V0202301N00721220001CN0500001N9+00111-00501101031ADDAY121999GF102991001001999999001011MD1810091+9999MW1011
0068380190999991971020712004+44150+053350FM-12+999999999V0202001N00311007801CN0500001N9+00281-00501100861ADDAA199000091AY111999GF107991071051008001001001MD1710151+9999MW1031
0081380190999991971020718004+44150+053350FM-12+999999999V0201401N006219999999N0500001N9+00001-00281100621ADDAA199000091AY121999GF107991071051999999999999KA1999M+00391MD1710201+9999MW1021
0079380190999991971020800004+44150+053350FM-12+999999999V0202701N00511004501CN0040001N9+00111+00001100331ADDAA106002091AA299000591AY151999GF108991081061004501999999MD1710031+9999MW1511
0111380190999991971020806004+44150+053350FM-12+999999999V0203201N01391007801CN0500001N9-00501-00891101051ADDAA106031091AA299008091AY121999GF108991081051008001999999KA1999N+99999MD1810311+9999MW1021EQDQ01 -00392ATMN  
0057380190999991971020809004+44150+053350FM-12+999999999V0203201N00981220001CN0500001N9-00391-00891101111ADDAY121999GF107991001001999999001071MD1110071+9999MW1011
0068380190999991971020812004+44150+053350FM-12+999999999V0203201N01391007801CN0500001N9-00391-00891101231ADDAA199000091AY121999GF107991071061008001001001MD1310121+9999MW1011
0100380190999991971020818004+44150+053350FM-12+999999999V0202501N00721004501CN0020001N9-00721-01001101481ADDAA199999999AY171999GF108991081081004501999999KA1999M+00281MD1210081+9999MW1731EQDQ01  00002PRCP99
0057380190999991971020821004+44150+053350FM-12+999999999V0202501N00621220001CN0500001N9-01001-01111101631ADDAY171999GF100991001001999999001001MD1210121+9999MW1021
0073380190999991971020900004+44150+053350FM-12+999999999V0202301N00621220001CN0500001N9-01221-01281101771ADDAA106002091AA299000591AY101999GF100991001001999999001001MD1210141+9999
0102380190999991971020903004+44150+053350FM-12+999999999V0201801N00621220001CN0500001N9-01281-01391101771ADDAA106002091AA299000591AJ100009199999999AY101999GF100991001001999999001001IA1209MD1810021+9999MW1021
0134380190999991971020906004+44150+053350FM-12+999999999V0201601N00621004501CN0040001N9-00611-00721101661ADDAA106002091AA299000591AJ100009199999999AY171999GF107991071061004501001001HL10009IA1209IA2999-01509KA1999N-01391MD1710061+9999MW1711
0057380190999991971020909004+44150+053350FM-12+999999999V0201101N00981004501CN0500001N9+00221-00721101331ADDAY171999GF105991051061004501001001MD1710221+9999MW1011
0079380190999991971020912004+44150+053350FM-12+999999999V0201801N00721090001CN0500001N9+00501-00221101151ADDAA106075091AA224999999AY171999GF108991031061004501001021MD1710161+9999MW1021
0092380190999991971020918004+44150+053350FM-12+999999999V0201401N01181220001CN0500001N9-00221-00611101071ADDAA106075091AA224999999AY111999GF102991001001999999001021KA1999M+00501MD1710061+9999MW1021
0057380190999991971020921004+44150+053350FM-12+999999999V0201401N00981220001CN0500001N9-00281-00781100861ADDAY101999GF102991001001999999001021MD1810201+9999MW1031
0068380190999991971021000004+44150+053350FM-12+999999999V0201401N00721220001CN0500001N9-00281-00891100691ADDAA199000091AY121999GF106991001001999999001021MD1710181+9999MW1031
0123380190999991971021003004+44150+053350FM-12+999999999V0201401N00981024001CN0500001N9-00391-01001100571ADDAA199000091AJ100009199999999AY121999GF107991071001999999091001HL10009IA1139IA2999-00619KA1999N-00391MD1810211+9999MW1031
0123380190999991971021006004+44150+053350FM-12+999999999V0201401N004119999999N0500001N9-00111-00891100411ADDAA199000091AJ100009199999999AY121999GF107991031001999999041021HL10009IA1139IA2999-00619KA1999N-00391MD1610031+9999MW1021
0057380190999991971021009004+44150+053350FM-12+999999999V0201401N00981024001CN0500001N9+00391-00781100411ADDAY121999GF108991081001999999071999MD1310021+9999MW1031
0054380190999991971021012004+44150+053350FM-12+999999999V0201601N00411007801CN0500001N9+00501-00611100341ADDAA199000091AY121999GF108991081051008001999999MW1021
0092380190999991971021018004+44150+053350FM-12+999999999V0202201N00871007801CN0200001N9-00611-00781101181ADDAA106004091AA299001091AY131999GF107991071051008001001001KA1999M+00721MD1210301+9999MW1261
0057380190999991971021021004+44150+053350FM-12+999999999V0203201N00411024001CN0500001N9-01001-01111101531ADDAY121999GF107991071001999999081001MD1210321+9999MW1021
0043380190999991971021100004+44150+053350FM-12+999999999V0203201N00411024001CN0500001N9-01111-01221101881ADDAY111999GF105991051001999999051001MW1011
0117380190999991971021103004+44150+053350FM-12+999999999V0209991C00001220001CN0500001N9-01501-01721102051ADDAA106004091AA299001091AY111999GF102991021001999999041001HL10009IA1199IA2999-01119KA1999N-01611MD1210211+9999MW1021
0117380190999991971021106004+44150+053350FM-12+999999999V0209991C00001220001CN0500001N9-01001-01221102071ADDAA106004091AA299001091AY111999GF100991001001999999001001HL10009IA1199IA2999-01119KA1999N-01611MD1110061+9999MW1021
0057380190999991971021109004+44150+053350FM-12+999999999V0209991C00001220001CN0500001N9-00721-01221102011ADDAY101999GF100991001001999999001001MD1810041+9999MW1021
0068380190999991971021112004+44150+053350FM-12+999999999V0200901N00511220001CN0500001N9-00611-01281101961ADDAA199000091AY121999GF106991001001999999001031MD1710041+9999MW1031
0062380190999991971021115004+44150+053350FM-12+999999999V0200901N00311220001CN0500001N9-01281-01781102001ADDAY111999GF103991021081999999041999MW1021EQDQ01+000992SCOLCB
0081380190999991971021118004+44150+053350FM-12+999999999V0200901N00621024001CN0500001N9-01391-01501101971ADDAA199000091AY121999GF106991061001999999041001KA1999M-00611MD1710041+9999MW1031
0068380190999991971021200004+44150+053350FM-12+999999999V0201101N00311220001CN0500001N9-01611-01891101781ADDAA199000091AY121999GF104991001001999999001051MD1610111+9999MW1021
0123380190999991971021203004+44150+053350FM-12+999999999V0201101N00101220001CN0500001N9-01781-01891101751ADDAA199000091AJ100009199999999AY111999GF102991001001999999001021HL10009IA1139IA2999-02009KA1999N-01781MD1810051+9999MW1021
0123380190999991971021206004+44150+053350FM-12+999999999V0201401N00721004501CN0500001N9-01111-01221101691ADDAA199000091AJ100009199999999AY111999GF107991071061004501001001HL10009IA1139IA2999-02009KA1999N-01781MD1510001+9999MW1031
0057380190999991971021209004+44150+053350FM-12+999999999V0201401N00721004501CN0500001N9-00611-00721101661ADDAY121999GF107991071061004501001001MD1410001+9999MW1021
0079380190999991971021212004+44150+053350FM-12+999999999V0201401N00411220001CN0500001N9-00281-00611101601ADDAA106075091AA224999999AY171999GF103991031051008001001001MD1810051+9999MW1011
0092380190999991971021215004+44150+053350FM-12+999999999V0201401N00211220001CN0500001N9-00891-00891101721ADDAA106075091AA224999999AY101999GF101991001001999999001021KA1999M-00281MD1310091+9999MW1011
0092380190999991971021218004+44150+053350FM-12+999999999V0209991C00001220001CN0500001N9-00891-01001101781ADDAA106075091AA224999999AY111999GF108991001001999999001021KA1999M-00221MD1210041+9999MW1031
0057380190999991971021221004+44150+053350FM-12+999999999V0209991C00001220001CN0500001N9-00501-00611101711ADDAY121999GF108991001001999999001021MD1810031+9999MW1021
0068380190999991971021300004+44150+053350FM-12+999999999V0201401N00511220001CN0500001N9-00501-01501101681ADDAA199000091AY121999GF108991001001999999001021MD1710031+9999MW1021
0123380190999991971021303004+44150+053350FM-12+999999999V0201101N00821004501CN0500001N9-00391-00501101641ADDAA199000091AJ100009199999999AY141999GF108991081061004501999999HL10009IA1199IA2999-01509KA1999N-00891MD1710041+9999MW1021
0123380190999991971021306004+44150+053350FM-12+999999999V0201401N00981004501CN0020001N9-00281-00391101621ADDAA199000091AJ100009199999999AY121999GF108991081061004501999999HL10009IA1199IA2999-01509KA1999N-00891MD1710031+9999MW1101
0057380190999991971021309004+44150+053350FM-12+999999999V0201401N01181024001CN0500001N9+00001-00391101441ADDAY121999GF108991081001999999011999MD1710141+9999MW1021
0068380190999991971021312004+44150+053350FM-12+999999999V0201401N00981004501CN0500001N9-00111-00391101451ADDAA199000091AY121999GF108991081061004501999999MD1710011+9999MW1021
0100380190999991971021318004+44150+053350FM-12+999999999V0201101N00101007801CN0020001N9-00391-00391101421ADDAA199999999AY171999GF108991081001008001021999KA1999M+00001MD1410001+9999MW1731EQDQ01  00002PRCP99
0079380190999991971021400004+44150+053350FM-12+999999999V0203601N00871004501CN0020001N9-00891-00891100821ADDAA106024091AA299006091AY171999GF108991081001004501021999MD1710121+9999MW1731
0104380190999991971021403004+44150+053350FM-12+999999999V0203601N00621004501CN0040001N9-00891-01001100721ADDAA106002091AA299000591AY171999GF108991081001004501021999HL10009IA1319IA2999-00899MD1710111+9999MW1711
0117380190999991971021406004+44150+053350FM-12+999999999V0203201N01181024001CN0010001N9-00781-01001100601ADDAA106035091AA299009091AY171999GF108991081001999999011999HL10009IA1319IA2999-00899KA1999N-01001MD1710111+9999MW1381
0079380190999991971021412004+44150+053350FM-12+999999999V0202901N02011220001CN0005001N9-01111-01281101221ADDAA106004091AA299001091AY131999GF100991001001999999001001MD1310331+9999MW1391
0092380190999991971021418004+44150+053350FM-12+999999999V0202501N00871220001CN0200001N9-01391-02001101671ADDAA106004091AA299001091AY131999GF100991001001999999001001KA1999M-00221MD1210241+9999MW1021
0057380190999991971021421004+44150+053350FM-12+999999999V0202001N00721220001CN0500001N9-01721-02111101781ADDAY101999GF100991001001999999001001MD1110111+9999MW1021
0068380190999991971021500004+44150+053350FM-12+999999999V0202001N00721220001CN0500001N9-01611-01891101711ADDAA199000091AY101999GF100991001001999999001001MD1810061+9999MW1021
0106380190999991971021503004+44150+053350FM-12+999999999V0201601N00821220001CN0500001N9-01781-02111101441ADDAA199000091AY101999GF100991001001999999001001HL10009IA1209IA2999-02119KA1999N-01781MD1710181+9999MW1021
0057380190999991971021509004+44150+053350FM-12+999999999V0201601N02421004501CN0005001N9-00111-00112101061ADDAY131999GF107991061061004501001031MD1310051+9999MW1391
0079380190999991971021512004+44150+053350FM-12+999999999V0203201N00511004501CN0020001N9-00781-00891101661ADDAA106002091AA299000591AY131999GF108991081061004501999999MD1310531+9999MW1731
0092380190999991971021518004+44150+053350FM-12+999999999V0202501N00511220001CN0500001N9-01891-01891102041ADDAA106004091AA299001091AY171999GF100991001001999999001001KA1999M+00001MD1210141+9999MW1021
0057380190999991971021521004+44150+053350FM-12+999999999V0202301N00621220001CN0500001N9-01891-02001102101ADDAY101999GF100991001001999999001001MD1210061+9999MW1021
0068380190999991971021600004+44150+053350FM-12+999999999V0202301N00511220001CN0500001N9-01781-01891102141ADDAA199000091AY101999GF100991001001999999001001MD1210041+9999MW1021
0106380190999991971021606004+44150+053350FM-12+999999999V0202001N00511004501CN0040001N9-00781-00891102231ADDAA199000091AY121999GF108991081061004501999999HL10009IA1319IA2999-02009KA1999N-01891MD1210091+9999MW1101
0057380190999991971021609004+44150+053350FM-12+999999999V0202001N00511004501CN0040001N9-00281-00501102131ADDAY121999GF108991081061004501999999MD1810061+9999MW1101
0087380190999991971021612004+44150+053350FM-12+999999999V0202001N01181004501CN0040001N9-00111-00281102041ADDAA199000091AY121999GF108991999061004501999061MD1710081+9999MW1101EQDQ01+000082SCOTLC
0081380190999991971021618004+44150+053350FM-12+999999999V0209991C00001004501CN0500001N9-00501-00611102191ADDAA199000091AY121999GF108991081061004501999999KA1999M-00111MD1210061+9999MW1021
0068380190999991971021700004+44150+053350FM-12+999999999V0209991C00001220001CN0500001N9-01501-01721102321ADDAA199000091AY111999GF103991001001999999001021MD1210031+9999MW1031
0049380190999991971021703004+44150+053350FM-12+999999999V0209991C000019999999N0500001N9+99999+99999102321ADDAY121999GF108991999011999999999999IA1319MW1021
0106380190999991971021706004+44150+053350FM-12+999999999V0209991C00001024001CN0040001N9-01611-01721102491ADDAA199000091AY141999GF108991081001999999011999HL10009IA1009IA2999-01899KA1999N-01721MD1310121+9999MW1101
0057380190999991971021709004+44150+053350FM-12+999999999V0209991C00001220001CN0500001N9-01001-01221102411ADDAY121999GF107991001001999999001021MD1810041+9999MW1011
0068380190999991971021712004+44150+053350FM-12+999999999V0203201N00411220001CN0500001N9-00891-01281102451ADDAA199000091AY121999GF100991001001999999001001MD1310041+9999MW1011
0081380190999991971021718004+44150+053350FM-12+999999999V0209991C00001220001CN0500001N9-02221-02391102881ADDAA199000091AY101999GF100991001001999999001001KA1999M-00281MD1210151+9999MW1021
0057380190999991971021721004+44150+053350FM-12+999999999V0202701N00311220001CN0500001N9-02391-02611102941ADDAY101999GF100991001001999999001001MD1110051+9999MW1021
0068380190999991971021800004+44150+053350FM-12+999999999V0209991C00001220001CN0500001N9-02611-02891102961ADDAA199000091AY101999GF100991001001999999001001MD1410001+9999MW1021
0106380190999991971021803004+44150+053350FM-12+999999999V0209991C00001220001CN0500001N9-02001-02001103111ADDAA199000091AY101999GF100991001001999999001001HL10009IA1319IA2999-03009KA1999N-02721MD1310131+9999MW1021
0106380190999991971021806004+44150+053350FM-12+999999999V0209991C00001220001CN0100001N9-02001-02281103231ADDAA199000091AY101999GF100991001001999999001001HL10009IA1319IA2999-03009KA1999N-02721MD1210171+9999MW1021
0057380190999991971021809004+44150+053350FM-12+999999999V0209991C00001220001CN0500001N9-01391-01721103291ADDAY101999GF100991001001999999001001MD1210111+9999MW1021
0068380190999991971021812004+44150+053350FM-12+999999999V0209991C00001220001CN0500001N9-01281-01781103111ADDAA199000091AY101999GF100991001001999999001001MD1810161+9999MW1021
0081380190999991971021815004+44150+053350FM-12+999999999V0209991C00001220001CN0500001N9-01781-02111103151ADDAA199000091AY101999GF100991001001999999001001KA1999M-01281MD1410001+9999MW1021
0081380190999991971021818004+44150+053350FM-12+999999999V0209991C00001220001CN0500001N9-02111-02391103121ADDAA199000091AY101999GF100991001001999999001001KA1999M-01281MD1810061+9999MW1021
0068380190999991971021900004+44150+053350FM-12+999999999V0209991C00001220001CN0500001N9-02391-02721103001ADDAA199000091AY101999GF100991001001999999001001MD1810101+9999MW1021
0106380190999991971021903004+44150+053350FM-12+999999999V0202901N00411000151CN0002001N9-02001-02281102991ADDAA199000091AY141999GF109991091999000251999999HL10009IA1319IA2999-03009KA1999N-02391MD1310011+9999MW1451
0057380190999991971021906004+44150+053350FM-12+999999999V0200901N00311220001CN0020001N9-01891-02221103001ADDAY141999GF100991001001999999001001MD1210021+9999MW1101
0057380190999991971021909004+44150+053350FM-12+999999999V0200901N00721220001CN0040001N9-01221-01391102871ADDAY101999GF102991001001999999001051MD1810081+9999MW1101
0068380190999991971021912004+44150+053350FM-12+999999999V0200901N00821220001CN0040001N9-01001-01221102761ADDAA199000091AY111999GF106991001001999999001051MD1710091+9999MW1101
0081380190999991971021918004+44150+053350FM-12+999999999V0200901N00871220001CN0500001N9-01221-01611102751ADDAA199000091AY111999GF100991001001999999001001KA1999M-00891MD1410001+9999MW1021
0068380190999991971022000004+44150+053350FM-12+999999999V0201101N01181220001CN0500001N9-01221-01611102611ADDAA199000091AY101999GF100991001001999999001001MD1810111+9999MW1021
0106380190999991971022003004+44150+053350FM-12+999999999V0201101N01181024001CN0500001N9-01221-01501102661ADDAA199000091AY111999GF107991071001999999031001HL10009IA1319IA2999-01899KA1999N-01501MD1310041+9999MW1031
0106380190999991971022006004+44150+053350FM-12+999999999V0201101N01391024001CN0500001N9-01111-01391102671ADDAA199000091AY111999GF108991081001999999021999HL10009IA1319IA2999-01899KA1999N-01501MD1210041+9999MW1021
0057380190999991971022009004+44150+053350FM-12+999999999V0201101N00871024001CN0500001N9-00781-01221102581ADDAY121999GF108991081001999999021999MD1810091+9999MW1021
0068380190999991971022012004+44150+053350FM-12+999999999V0201101N00981024001CN0040001N9-00611-01111102451ADDAA199000091AY121999GF108991081001999999021999MD1810111+9999MW1101
0092380190999991971022018004+44150+053350FM-12+999999999V0201101N00981024001CN0040001N9-00781-00891102411ADDAA106075091AA224999999AY171999GF108991081001999999021999KA1999M-00611MD1710041+9999MW1711
0057380190999991971022021004+44150+053350FM-12+999999999V0201101N00621024001CN0040001N9-00781-01001102341ADDAY171999GF108991081001999999021999MD1710071+9999MW1701
0079380190999991971022100004+44150+053350FM-12+999999999V0201101N00511220001CN0500001N9-00781-01001102201ADDAA106004091AA299001091AY171999GF100991001001999999001001MD1710141+9999MW1021
0117380190999991971022103004+44150+053350FM-12+999999999V0201101N00311220001CN0500001N9-00891-01111102101ADDAA106004091AA299001091AY101999GF100991001001999999001001HL10009IA1309IA2999-01229KA1999N-01111MD1210031+9999MW1021
0057380190999991971022109004+44150+053350FM-12+999999999V0201401N00101220001CN0500001N9-00501-00891101971ADDAY101999GF102991001001999999001021MD1710081+9999MW1021
0068380190999991971022112004+44150+053350FM-12+999999999V0201401N00411007801CN0500001N9-00391-00721101871ADDAA199000091AY111999GF107991071051008001011001MD1710091+9999MW1031
0081380190999991971022115004+44150+053350FM-12+999999999V0201401N00411007801CN0500001N9-00501-00611101881ADDAA199000091AY121999GF108991081051008001999999KA1999M-00391MD1310011+9999MW1021
0081380190999991971022118004+44150+053350FM-12+999999999V0209991C00001007801CN0500001N9-00501-00611101831ADDAA199000091AY121999GF108991081051008001999999KA1999M-00391MD1810051+9999MW1021
0068380190999991971022200004+44150+053350FM-12+999999999V0209991C00001007801CN0500001N9-00501-00611101711ADDAA199000091AY121999GF106991061051008001001001MD1710061+9999MW1011
0106380190999991971022206004+44150+053350FM-12+999999999V0209991C00001220001CN0005001N9-00891-01001101751ADDAA199000091AY141999GF100991001001999999001001HL10009IA1319IA2999-01509KA1999N-01221MD1310031+9999MW1421
0057380190999991971022209004+44150+053350FM-12+999999999V0209991C00001220001CN0040001N9-00611-00721101671ADDAY141999GF100991001001999999001001MD1810041+9999MW1101
0068380190999991971022212004+44150+053350FM-12+999999999V0209991C00001220001CN0040001N9-00221-00721101611ADDAA199000091AY141999GF100991001001999999001001MD1710051+9999MW1101
0081380190999991971022215004+44150+053350FM-12+999999999V0209991C00001220001CN0500001N9-00611-00721101631ADDAA199000091AY101999GF100991001001999999001001KA1999M-00221MD1410001+9999MW1021
0081380190999991971022218004+44150+053350FM-12+999999999V0209991C00001220001CN0002001N9-01111-01111101651ADDAA199000091AY141999GF100991001001999999001001KA1999M-00221MD1810011+9999MW1441
0057380190999991971022221004+44150+053350FM-12+999999999V0209991C00001220001CN0002001N9-01391-01391101681ADDAY141999GF100991001001999999001001MD1410001+9999MW1441
0068380190999991971022300004+44150+053350FM-12+999999999V0209991C00001220001CN0002001N9-01281-01391101571ADDAA199000091AY141999GF100991001001999999001001MD1810101+9999MW1441
0106380190999991971022303004+44150+053350FM-12+999999999V0209991C00001024001CN0500001N9-01281-01391101681ADDAA199000091AY141999GF108991081001999999081999HL10009IA1319IA2999-01619KA1999N-01391MD1310011+9999MW1031
0106380190999991971022306004+44150+053350FM-12+999999999V0201101N00311024001CN0500001N9-00781-00891101631ADDAA199000091AY141999GF108991081001999999081999HL10009IA1319IA2999-01619KA1999N-01391MD1210081+9999MW1021
0057380190999991971022309004+44150+053350FM-12+999999999V0201101N00311024001CN0500001N9-00391-00721101591ADDAY121999GF107991071001999999081001MD1810011+9999MW1021
0068380190999991971022312004+44150+053350FM-12+999999999V0200701N00621024001CN0500001N9-00281-00611101571ADDAA199000091AY121999GF105991051001999999051001MD1710021+9999MW1011
0081380190999991971022315004+44150+053350FM-12+999999999V0200501N00311220001CN0500001N9-00781-00891101691ADDAA199000091AY111999GF102991021001999999041001KA1999M-00281MD1310061+9999MW1011
0081380190999991971022318004+44150+053350FM-12+999999999V0200201N00511220001CN0500001N9-01001-01111101801ADDAA199000091AY111999GF100991001001999999001001KA1999M-00281MD1210131+9999MW1011
0068380190999991971022400004+44150+053350FM-12+999999999V0209991C00001220001CN0500001N9-01281-01391101931ADDAA199000091AY101999GF100991001001999999001001MD1010001+9999MW1021
0106380190999991971022403004+44150+053350FM-12+999999999V0209991C00001220001CN0500001N9-01891-02221102011ADDAA199000091AY101999GF102991011001999999041031HL10009IA1319IA2999-02119KA1999N-02001MD1210061+9999MW1031
0106380190999991971022406004+44150+053350FM-12+999999999V0209991C00001024001CN0500001N9-01111-01221102141ADDAA199000091AY111999GF107991071001999999081001HL10009IA1319IA2999-02119KA1999N-02001MD1210181+9999MW1021
0057380190999991971022409004+44150+053350FM-12+999999999V0209991C00001220001CN0500001N9-00721-01221102141ADDAY111999GF102991001001999999001021MD1110031+9999MW1011
0068380190999991971022412004+44150+053350FM-12+999999999V0209991C00001220001CN0500001N9-00281-01001102141ADDAA199000091AY111999GF103991031001999999041001MD1210021+9999MW1021
0081380190999991971022418004+44150+053350FM-12+999999999V0209991C00001024001CN0500001N9-00781-00891102301ADDAA199000091AY121999GF107991071001999999081001KA1999M-00221MD1210091+9999MW1031
0068380190999991971022500004+44150+053350FM-12+999999999V0201601N00511007801CN0500001N9-00891-01111102241ADDAA199000091AY121999GF107991071051008001001001MD1710051+9999MW1031
0117380190999991971022506004+44150+053350FM-12+999999999V0202001N00511004501CN0040001N9-00221-00281102231ADDAA106002091AA299000591AY171999GF108991081061004501999999HL10009IA1319IA2999-01399KA1999N-01281MD1310031+9999MW1101
0057380190999991971022509004+44150+053350FM-12+999999999V0202001N00721004501CN0200001N9+00111-00111102261ADDAY121999GF108991081061004501999999MD1210051+9999MW1021
0068380190999991971022512004+44150+053350FM-12+999999999V0202901N00311004501CN0500001N9+00001-00221102301ADDAA199000091AY121999GF108991081061004501999999MD1110031+9999MW1021
0092380190999991971022515004+44150+053350FM-12+999999999V0202901N00211004501CN0500001N9-00111-00221102311ADDAA106002091AA299000591AY121999GF108991081061004501999999KA1999M+00221MD1410001+9999MW1021
0092380190999991971022518004+44150+053350FM-12+999999999V0209991C00001004501CN0500001N9-00221-00221102391ADDAA106075091AA224999999AY121999GF108991081061004501999999KA1999M+00221MD1310091+9999MW1021
0057380190999991971022521004+44150+053350FM-12+999999999V0209991C00001004501CN0040001N9-00221-00221102391ADDAY171999GF108991081001004501021999MD1010001+9999MW1711
0079380190999991971022600004+44150+053350FM-12+999999999V0209991C00001004501CN0100001N9-00221-00281102341ADDAA106004091AA299001091AY171999GF108991081001004501021999MD1710051+9999MW1731
0117380190999991971022606004+44150+053350FM-12+999999999V0200201N00311004501CN0020001N9-00221-00221102431ADDAA106004091AA299001091AY171999GF108991081061004501999999HL10009IA1319IA2999-00229KA1999N-00221MD1210081+9999MW1101
0057380190999991971022609004+44150+053350FM-12+999999999V0200201N00211004501CN0040001N9+00001-00221102381ADDAY121999GF108991081061004501999999MD1310041+9999MW1101
0068380190999991971022612004+44150+053350FM-12+999999999V0200201N00311004501CN0020001N9+00111+00001102331ADDAA199000091AY121999GF108991081061004501999999MD1710041+9999MW1101
0081380190999991971022615004+44150+053350FM-12+999999999V0200501N00511004501CN0500001N9+00001+00001102281ADDAA199000091AY111999GF108991081061004501999999KA1999M+00111MD1710061+9999MW1021
0081380190999991971022618004+44150+053350FM-12+999999999V0201101N00621220001CN0500001N9-00221-00281102161ADDAA199000091AY111999GF100991001001999999001001KA1999M+00111MD1810121+9999MW1021
0057380190999991971022621004+44150+053350FM-12+999999999V0200901N00511220001CN0500001N9-00391-00611102071ADDAY101999GF100991001001999999001001MD1710011+9999MW1021
0068380190999991971022700004+44150+053350FM-12+999999999V0201201N00721220001CN0500001N9+99999+99999102071ADDAA199000091AY101999GF103991001001999999001011MD1710251+9999MW1021
0106380190999991971022703004+44150+053350FM-12+999999999V0200701N00511024001CN0500001N9-00611-00781101721ADDAA199000091AY111999GF105991051001999999081001HL10009IA1309IA2999-00789KA1999N-00721MD1710181+9999MW1031
0106380190999991971022706004+44150+053350FM-12+999999999V0200701N00101024001CN0500001N9-00391-00611101611ADDAA199000091AY121999GF107991071001999999081001HL10009IA1309IA2999-00789KA1999N-00721MD1710091+9999MW1021
0057380190999991971022709004+44150+053350FM-12+999999999V0201101N00981220001CN0500001N9+00111-00111101361ADDAY121999GF107991001001999999001031MD1710221+9999MW1021
0068380190999991971022712004+44150+053350FM-12+999999999V0200901N00981220001CN0500001N9+00221-00111101161ADDAA199000091AY121999GF107991001001999999001021MD1710121+9999MW1021
0081380190999991971022718004+44150+053350FM-12+999999999V0200901N00981007801CN0500001N9-00221-00391101231ADDAA199000091AY121999GF108991081051008001999999KA1999M+00281MD1210061+9999MW1021
0057380190999991971022721004+44150+053350FM-12+999999999V0200901N01181007801CN0500001N9-00501-00611101271ADDAY121999GF108991081051008001999999MD1210031+9999MW1021
0068380190999991971022800004+44150+053350FM-12+999999999V0200901N01591007801CN0500001N9-00721-00891101211ADDAA199000091AY121999GF108991081051008001999999MD1810081+9999MW1021
0106380190999991971022803004+44150+053350FM-12+999999999V0200901N01181007801CN0500001N9-00721-01001101251ADDAA199000091AY121999GF108991081051008001999999HL10009IA1199IA2999-00729KA1999N-00721MD1310041+9999MW1021
0106380190999991971022806004+44150+053350FM-12+999999999V0200701N01491004501CN0500001N9-00721-01221101351ADDAA199000091AY121999GF107991071061004501001001HL10009IA1199IA2999-00729KA1999N-00721MD1210101+9999MW1021
0076380190999991971022809004+44150+053350FM-12+999999999V0200701N010819999999N0500001N9-00721-00891101351ADDAY181999GF106991999091999999051999MD1410001+9999MW1021EQDQ01+000002SCOTLC
0068380190999991971022812004+44150+053350FM-12+999999999V0200701N00981220001CN0500001N9-00391-00891101451ADDAA199000091AY121999GF107991001001999999001051MD1310121+9999MW1021
0079380190999991971022815004+44150+053350FM-12+999999999V0200701N00871220001CN0500001N9-00721-01111101681ADDAA106020091AA299005091AY121999GF107991001001999999001021MD1210191+9999MW1021
0081380190999991971022818004+44150+053350FM-12+999999999V0200701N008219999999N0500001N9-01001-01221101901ADDAA199000091AY121999GF107991021001999999041021KA1999M-00281MD1210211+9999MW1021
0057380190999991971022821004+44150+053350FM-12+999999999V0200701N00721220001CN0500001N9-01221-01281102111ADDAY111999GF102991001001999999001021MD1210191+9999MW1011
0068380190999991971030100004+44150+053350FM-12+999999999V0200501N00621220001CN0500001N9-01501-01611102201ADDAA199000091AY101999GF100991001001999999001001MD1210171+9999MW1021
0106380190999991971030103004+44150+053350FM-12+999999999V0200501N00621220001CN0500001N9-01721-01891102551ADDAA199000091AY101999GF102991001001999999001021HL10009IA1189IA2999-01619KA1999N-01721MD1210231+9999MW1031
0106380190999991971030106004+44150+053350FM-12+999999999V0200901N00871220001CN0500001N9-01391-01611102601ADDAA199000091AY111999GF107991001001999999001021HL10009IA1189IA2999-01619KA1999N-01721MD1210141+9999MW1021
0057380190999991971030109004+44150+053350FM-12+999999999V0200701N00871220001CN0500001N9-00781-01281102771ADDAY121999GF108991001001999999001021MD1210121+9999MW1021
0068380190999991971030112004+44150+053350FM-12+999999999V0200701N00511220001CN0500001N9-00501-01111102821ADDAA199000091AY121999GF106991001001999999001031MD1210081+9999MW1011
0081380190999991971030115004+44150+053350FM-12+999999999V0200701N008219999999N0500001N9-00891-01391102981ADDAA199000091AY121999GF105991021001999999051071KA1999M-00501MD1310121+9999MW1011
0079380190999991971030118004+44150+053350FM-12+999999999V0200701N00721024001CN0500001N9-01221-01501103071ADDAA106999999AA224999999AY121999GF105991051001999999041001MD1210081+9999MW1021
0068380190999991971030200004+44150+053350FM-12+999999999V0200901N00101220001CN0500001N9-01501-01721103221ADDAA199000091AY111999GF100991001001999999001001MD1210041+9999MW1011
0092380190999991971030206004+44150+053350FM-12+999999999V0201101N00821220001CN0500001N9-01001-01281103201ADDAA199000091AY111999GF107991001001999999001021HL10009IA1189IA2999-01619KA1999N-01611MW1021
0057380190999991971030209004+44150+053350FM-12+999999999V0201101N00871220001CN0500001N9-00391-01111103191ADDAY111999GF103991001001999999001051MD1110031+9999MW1011
0068380190999991971030212004+44150+053350FM-12+999999999V0201101N00871220001CN0500001N9-00111-01001103091ADDAA199000091AY111999GF101991001001999999001021MD1810071+9999MW1011
0081380190999991971030218004+44150+053350FM-12+999999999V0200901N00511220001CN0500001N9-00891-01221103291ADDAA199000091AY101999GF100991001001999999001001KA1999M+00111MD1310131+9999MW1021
0057380190999991971030221004+44150+053350FM-12+999999999V0200901N00511220001CN0500001N9-01221-01281103281ADDAY101999GF100991001001999999001001MD1810021+9999MW1021
0068380190999991971030300004+44150+053350FM-12+999999999V0201101N00821220001CN0500001N9-01221-01391103231ADDAA199000091AY101999GF100991001001999999001001MD1710031+9999MW1021
0106380190999991971030303004+44150+053350FM-12+999999999V0201101N00981220001CN0500001N9-01221-01391103271ADDAA199000091AY101999GF102991001001999999001021HL10009IA1189IA2999-01229KA1999N-01221MD1310021+9999MW1031
0087380190999991971030306004+44150+053350FM-12+999999999V0201101N00981024001CN0500001N9-01001-01281103291ADDAA199000091AY121999GF107991071001999999011001IA1189KA1999N-01221MD1210031+9999MW1031
0057380190999991971030309004+44150+053350FM-12+999999999V0201101N00981024001CN0500001N9-00281-01001103131ADDAY121999GF106991061001999999011001MD1810091+9999MW1011
0068380190999991971030312004+44150+053350FM-12+999999999V0201101N00871220001CN0500001N9+00001-00721103091ADDAA199000091AY121999GF107991001001999999001021MD1610021+9999MW1021
0081380190999991971030315004+44150+053350FM-12+999999999V0200901N00871220001CN0500001N9-00281-00891102931ADDAA199000091AY111999GF102991011001999999041021KA1999M+00001MD1810171+9999MW1011
0081380190999991971030318004+44150+053350FM-12+999999999V0200901N00821220001CN0500001N9-00781-01111103001ADDAA199000091AY111999GF101991011001999999041001KA1999M+00001MD1310031+9999MW1021
0057380190999991971030321004+44150+053350FM-12+999999999V0200901N00721220001CN0500001N9-00891-01221102811ADDAY111999GF107991001001999999001051MD1810191+9999MW1031
0068380190999991971030400004+44150+053350FM-12+999999999V0201101N00871220001CN0500001N9-00891-01111102511ADDAA199000091AY101999GF100991001001999999001001MD1710291+9999MW1021
0106380190999991971030403004+44150+053350FM-12+999999999V0201101N00721024001CN0500001N9-00891-01111102441ADDAA199000091AY111999GF108991081001999999041999HL10009IA1189IA2999-00789KA1999N-00891MD1710081+9999MW1031
0106380190999991971030406004+44150+053350FM-12+999999999V0201101N01181024001CN0500001N9-00721-01001102321ADDAA199000091AY111999GF108991081001999999041999HL10009IA1189IA2999-00789KA1999N-00891MD1710101+9999MW1021
0057380190999991971030409004+44150+053350FM-12+999999999V0201101N00981024001CN0500001N9-00391-00611102181ADDAY121999GF108991081001999999011999MD1710121+9999MW1021
0068380190999991971030412004+44150+053350FM-12+999999999V0201101N01181024001CN0500001N9-00111-00611102061ADDAA199000091AY121999GF107991071001999999011001MD1710111+9999MW1021
0081380190999991971030418004+44150+053350FM-12+999999999V0201101N01391024001CN0500001N9-00501-00891102171ADDAA199000091AY121999GF108991081001999999021999KA1999M-00111MD1210061+9999MW1021
0068380190999991971030500004+44150+053350FM-12+999999999V0200901N00721220001CN0500001N9-00611-00781102291ADDAA199000091AY111999GF100991001001999999001001MD1310051+9999MW1021
0076380190999991971030503004+44150+053350FM-12+999999999V0200901N00721007801CN0500001N9-00721-00891102311ADDAY121999GF108991081051008001999999MD1210021+9999MW1021EQDQ01+000002APC3  
0106380190999991971030506004+44150+053350FM-12+999999999V0200901N00821007801CN0500001N9-00611-00891102501ADDAA199000091AY111999GF108991081051008001999999HL10009IA1189IA2999-00619KA1999N-00721MD1210201+9999MW1021
0057380190999991971030509004+44150+053350FM-12+999999999V0200701N00821004501CN0020001N9-00501-00781102591ADDAY171999GF108991081001004501021999MD1210091+9999MW1731
0065380190999991971030512004+44150+053350FM-12+999999999V0200701N00871004501CN0005001N9-00611-00721102591ADDAA106004091AA299001091AY171999GF108991081001004501021999MW1731
0092380190999991971030515004+44150+053350FM-12+999999999V0200901N00821004501CN0040001N9-00721-00781102751ADDAA106012091AA299003091AY171999GF108991081001004501021999KA1999M-00501MD1310151+9999MW1711
0092380190999991971030518004+44150+053350FM-12+999999999V0200701N00871004501CN0020001N9-00781-00891102951ADDAA106012091AA299003091AY171999GF108991081001004501021999KA1999M-00501MD1210191+9999MW1731
0057380190999991971030521004+44150+053350FM-12+999999999V0200701N00871024001CN0020001N9-00891-01001103061ADDAY171999GF108991081001999999011999MD1210101+9999MW1731
0079380190999991971030600004+44150+053350FM-12+999999999V0200501N00721024001CN0500001N9-01281-01501103211ADDAA106008091AA299002091AY171999GF106991061001999999011001MD1210121+9999MW1011
0117380190999991971030603004+44150+053350FM-12+999999999V0200201N00511024001CN0200001N9-01781-02001103431ADDAA106008091AA299002091AY171999GF105991051001999999021001HL10009IA1319IA2999-01789KA1999N-01781MD1310181+9999MW1101
0117380190999991971030606004+44150+053350FM-12+999999999V0200501N00511220001CN0040001N9-01611-01781103601ADDAA106008091AA299002091AY111999GF102991001001999999001031HL10009IA1319IA2999-01789KA1999N-01781MD1210191+9999MW1101
0057380190999991971030609004+44150+053350FM-12+999999999V0200701N00511220001CN0040001N9-01221-01611103671ADDAY101999GF100991001001999999001001MD1110091+9999MW1101
0068380190999991971030612004+44150+053350FM-12+999999999V0200501N00511220001CN0040001N9-00891-01281103651ADDAA199000091AY101999GF100991001001999999001001MD1410001+9999MW1101
0070380190999991971030618004+44150+053350FM-12+999999999V0200201N00311220001CN0500001N9-02391-02721104041ADDAY101999GF101991001001999999001021KA1999M-00781MD1210191+9999MW1021
0068380190999991971030700004+44150+053350FM-12+999999999V0209991C00001220001CN0500001N9-02501-02721104091ADDAA199000091AY101999GF100991001001999999001001MD1810011+9999MW1021
0106380190999991971030703004+44150+053350FM-12+999999999V0209991C00001220001CN0010001N9-02891-02891104131ADDAA199000091AY101999GF100991001001999999001001HL10009IA1319IA2999-03009KA1999N-03001MD1310051+9999MW1101
0106380190999991971030706004+44150+053350FM-12+999999999V0200901N00311220001CN0500001N9-02111-02391104101ADDAA199000091AY101999GF100991001001999999001001HL10009IA1319IA2999-03009KA1999N-03001MD1210031+9999MW1021
0062380190999991971030709004+44150+053350FM-12+999999999V0201101N00511220001CN0500001N9-01611-01611103991ADDAY101999GF100991001001999999001001MW1021EQDQ01    993SCOTCV
0068380190999991971030712004+44150+053350FM-12+999999999V0200901N00411220001CN0500001N9-01001-01281103811ADDAA199000091AY101999GF100991001001999999001001MD1810161+9999MW1021
0081380190999991971030718004+44150+053350FM-12+999999999V0209991C00001220001CN0500001N9-02281-02391103831ADDAA199000091AY111999GF100991001001999999001001KA1999M-01001MD1310021+9999MW1021
0068380190999991971030800004+44150+053350FM-12+999999999V0209991C00001220001CN0500001N9-02391-02781103701ADDAA199000091AY101999GF100991001001999999001001MD1710041+9999MW1021
0106380190999991971030803004+44150+053350FM-12+999999999V0209991C00001220001CN0500001N9-02721-02891103611ADDAA199000091AY101999GF100991001001999999001001HL10009IA1319IA2999-03009KA1999N-02781MD1710051+9999MW1021
0106380190999991971030806004+44150+053350FM-12+999999999V0201401N00511220001CN0500001N9-01391-01501103491ADDAA199000091AY101999GF100991001001999999001001HL10009IA1319IA2999-03009KA1999N-02781MD1610071+9999MW1021
0057380190999991971030809004+44150+053350FM-12+999999999V0201101N00871220001CN0500001N9-00781-01221103311ADDAY101999GF102991001001999999001051MD1810141+9999MW1031
0068380190999991971030812004+44150+053350FM-12+999999999V0201101N00311220001CN0500001N9-00501-00781102991ADDAA199000091AY111999GF106991001001999999001021MD1710281+9999MW1021
0081380190999991971030818004+44150+053350FM-12+999999999V0201101N00721007801CN0500001N9-00611-00891102761ADDAA199000091AY121999GF108991081051008001999999KA1999M-00501MD1710111+9999MW1021
0068380190999991971030900004+44150+053350FM-12+999999999V0201101N00821000151CN0500001N9-00611-01111102211ADDAA199000091AY121999GF106991061051000251001999MD1810311+9999MW1011
0106380190999991971030906004+44150+053350FM-12+999999999V0201101N00981220001CN0040001N9-00391-01001101771ADDAA199000091AY121999GF107991001001999999001999HL10009IA1319IA2999-00229KA1999N-00721MD1710201+9999MW1101
0057380190999991971030909004+44150+053350FM-12+999999999V0201101N01391007801CN0040001N9-00111-00501101511ADDAY121999GF107991071051008001001001MD1710231+9999MW1101
0068380190999991971030912004+44150+053350FM-12+999999999V0201101N007219999999N0040001N9+00111-00221101281ADDAA199000091AY121999GF107991999001008001999999MD1710121+9999MW1101
0081380190999991971030915004+44150+053350FM-12+999999999V0201401N00311004501CN0040001N9+00221-00111101311ADDAA199000091AY121999GF108991081051004501999999KA1999M+00221MD1310041+9999MW1101
0081380190999991971030918004+44150+053350FM-12+999999999V0209991C00001220001CN0500001N9+00111-00111101371ADDAA199000091AY121999GF107991001001999999001051KA1999M+00221MD1410001+9999MW1021
0057380190999991971030921004+44150+053350FM-12+999999999V0209991C00001220001CN0500001N9-00111-00111101141ADDAY121999GF107991001001999999001051MD1810191+9999MW1021
0068380190999991971031000004+44150+053350FM-12+999999999V0209991C00001004501CN0500001N9+00111-00221101061ADDAA199000091AY121999GF108991081061004501999999MD1710101+9999MW1021
0106380190999991971031003004+44150+053350FM-12+999999999V0202901N00871004501CN0500001N9+00001-00111101111ADDAA199000091AY121999GF108991081061004501999999HL10009IA1189IA2999-00289KA1999N-00221MD1310081+9999MW1021
0106380190999991971031006004+44150+053350FM-12+999999999V0202901N01181004501CN0500001N9-00111-00391101231ADDAA199000091AY121999GF108991081001004501021999HL10009IA1319IA2999-00289KA1999N-00221MD1210111+9999MW1021
0057380190999991971031009004+44150+053350FM-12+999999999V0202701N00981004501CN0500001N9-00111-00221101441ADDAY121999GF108991081061004501999999MD1210211+9999MW1021
0068380190999991971031012004+44150+053350FM-12+999999999V0202901N00981004501CN0500001N9-00111-00221101441ADDAA199000091AY121999GF108991081061004501999999MD1410001+9999MW1021
0081380190999991971031018004+44150+053350FM-12+999999999V0202501N00511004501CN0500001N9-00281-00281101651ADDAA199000091AY121999GF108991081061004501999999KA1999M+00111MD1210031+9999MW1021
0057380190999991971031021004+44150+053350FM-12+999999999V0202501N00511004501CN0500001N9-00281-00281101651ADDAY121999GF108991081061004501999999MD1410001+9999MW1021
0068380190999991971031100004+44150+053350FM-12+999999999V0209991C00001004501CN0500001N9-00221-00221101641ADDAA199000091AY121999GF108991081061004501999999MD1410001+9999MW1021
0106380190999991971031106004+44150+053350FM-12+999999999V0201401N00311004501CN0040001N9-00111-00221101501ADDAA199000091AY121999GF108991081061004501999999HL10009IA1309IA2999-00399KA1999N-00281MD1710021+9999MW1101
0057380190999991971031109004+44150+053350FM-12+999999999V0201101N00211004501CN0040001N9+00001-00111101291ADDAY121999GF108991081061004501999999MD1710201+9999MW1101
0092380190999991971031112004+44150+053350FM-12+999999999V0200901N00511004501CN0020001N9+00111+00001101171ADDAY121999GA1999+999999009GF108991081061004501999999MD1710121+9999MW1101EQDQ01    003SCCGA1
0081380190999991971031118004+44150+053350FM-12+999999999V0200901N00621220001CN0500001N9+00111+00001100971ADDAA199000091AY111999GF104991001001999999001021KA1999M+00221MD1710071+9999MW1021
0057380190999991971031121004+44150+053350FM-12+999999999V0201101N00511220001CN0500001N9+00111-00111100841ADDAY111999GF102991001001999999001021MD1710131+9999MW1011
0068380190999991971031200004+44150+053350FM-12+999999999V0201101N00511220001CN0500001N9+00111+00001100681ADDAA199000091AY111999GF108991001001999999001021MD1710161+9999MW1021
0106380190999991971031203004+44150+053350FM-12+999999999V0201601N003119999999N0500001N9+00111+00001100731ADDAA199000091AY121999GF108991031001999999011021HL10009IA1189IA2999-00229KA1999N+00111MD1310051+9999MW1021
0106380190999991971031206004+44150+053350FM-12+999999999V0202501N00721004501CN0020001N9+00111+00001100901ADDAA199000091AY141999GF108991081061004501999999HL10009IA1189IA2999-00229KA1999N+00111MD1310171+9999MW1101
0057380190999991971031209004+44150+053350FM-12+999999999V0202901N00871000151CN0002001N9+00001+00001101031ADDAY141999GF109991091999000251999999MD1210121+9999MW1451
0068380190999991971031212004+44150+053350FM-12+999999999V0202701N00511004501CN0040001N9+00001+00001101221ADDAA199000091AY141999GF108991081061004501999999MD1210111+9999MW1101
0081380190999991971031215004+44150+053350FM-12+999999999V0203201N00721004501CN0500001N9+00001+00001101311ADDAA199000091AY121999GF108991081061004501999999KA1999M+00221MD1310081+9999MW1021
0081380190999991971031218004+44150+053350FM-12+999999999V0203201N00411004501CN0500001N9-00111-00111101381ADDAA199000091AY121999GF108991081061004501999999KA1999M+00501MD1310071+9999MW1021
0068380190999991971031300004+44150+053350FM-12+999999999V0203401N00511000151CN0002001N9-00221-00281101381ADDAA199000091AY121999GF109991091999000251999999MD1810091+9999MW1471
0106380190999991971031303004+44150+053350FM-12+999999999V0203401N00511004501CN0040001N9-00221-00221101401ADDAA199000091AY141999GF108991081061004501999999HL10009IA1189IA2999-00229KA1999N-00281MD1310021+9999MW1101
0100380190999991971031306004+44150+053350FM-12+999999999V0203401N00511004501CN0040001N9-00281-00391101391ADDAA199999999AY161999GF108991081001004501021999KA1999N-00281MD1810011+9999MW1711EQDQ01  00002PRCP99
0057380190999991971031309004+44150+053350FM-12+999999999V0203401N00621004501CN0500001N9-00281-00391101321ADDAY171999GF108991081061004501999999MD1710081+9999MW1021
0079380190999991971031312004+44150+053350FM-12+999999999V0203401N00511004501CN0040001N9-00281-00391101391ADDAA106020091AA299005091AY171999GF108991081061004501999999MD1310081+9999MW1101
0092380190999991971031315004+44150+053350FM-12+999999999V0203401N005119999999N0500001N9-00281-00281101441ADDAA106020091AA299005091AY121999GF108991081061999999999999KA1999M-00111MD1210051+9999MW1021
0092380190999991971031318004+44150+053350FM-12+999999999V0203401N00311000151CN0002001N9-00221-00281101621ADDAA106020091AA299005091AY141999GF109991091999000251999999KA1999M-00111MD1310171+9999MW1451
0068380190999991971031400004+44150+053350FM-12+999999999V0203201N00311000151CN0002001N9-00281-00281101911ADDAA199000091AY141999GF109991091999000251999999MD1210231+9999MW1451
0106380190999991971031403004+44150+053350FM-12+999999999V0203401N003119999999N0002001N9-00281-00391102071ADDAA199000091AY141999GF109991999999999999999999HL10009IA1209IA2999-00399KA1999N-00281MD1210181+9999MW1451
0106380190999991971031406004+44150+053350FM-12+999999999V0201101N00411004501CN0040001N9-00221-00281102121ADDAA199000091AY141999GF108991081061004501999999HL10009IA1209IA2999-00399KA1999N-00281MD1310051+9999MW1101
0057380190999991971031409004+44150+053350FM-12+999999999V0201101N00511000151CN0002001N9-00111-00111102011ADDAY141999GF109991091999000251999999MD1810101+9999MW1451
0068380190999991971031412004+44150+053350FM-12+999999999V0200901N00621004501CN0040001N9+00111+00001101851ADDAA199000091AY141999GF108991081061004501999999MD1810151+9999MW1101
0081380190999991971031418004+44150+053350FM-12+999999999V0209991C00001007801CN0500001N9+00111+00111101871ADDAA199000091AY121999GF108991081061008001999999KA1999M+00221MD1810051+9999MW1021
0043380190999991971031421004+44150+053350FM-12+999999999V0200901N00311012301CN0040001N9+00221+00111101821ADDAY161999GF108991081001012501021999MW1621
0079380190999991971031500004+44150+053350FM-12+999999999V0200701N00311004501CN0040001N9+00111+00111101431ADDAA106004091AA299001091AY161999GF108991081001004501021999MD1810391+9999MW1601
0134380190999991971031503004+44150+053350FM-12+999999999V0200701N00821004501CN0500001N9+00221+00111101041ADDAA106012091AA299003091AJ100009199999999AY161999GF108991081001004501021999HL10009IA1189IA2999+00009KA1999N+00111MD1710391+9999MW1021
0153380190999991971031506004+44150+053350FM-12+999999999V0209991C00001000151CN0040001N9+00221+00221101021ADDAA106012091AA299003091AJ100009199999999AY161999GF108991999041000251021999HL10009IA1189IA2999+00009KA1999N+00111MD1610021+9999MW1611EQDQ01+000082SCOTLC
0057380190999991971031509004+44150+053350FM-12+999999999V0203201N00101004501CN0040001N9+00221+00221100851ADDAY161999GF108991081001004501021999MD1810151+9999MW1601
0079380190999991971031512004+44150+053350FM-12+999999999V0202901N00721004501CN0500001N9+00221+00221100851ADDAA106004091AA299001091AY161999GF108991081061004501999999MD1510001+9999MW1021
0092380190999991971031515004+44150+053350FM-12+999999999V0202701N00821004501CN0040001N9+00001-00111101131ADDAA106075091AA224999999AY161999GF108991081001004501021999KA1999M+00281MD1110261+9999MW1611
0092380190999991971031518004+44150+053350FM-12+999999999V0202701N00981004501CN0500001N9+00001-00111101161ADDAA106075091AA224999999AY161999GF108991081061004501999999KA1999M+00281MD1310031+9999MW1021
0079380190999991971031600004+44150+053350FM-12+999999999V0202701N00981004501CN0500001N9-00221-00391101351ADDAA106075091AA224999999AY121999GF108991081061004501999999MD1210111+9999MW1021
0117380190999991971031603004+44150+053350FM-12+999999999V0202701N01391004501CN0040001N9-00281-00501101431ADDAA106075091AA224999999AY121999GF108991081061004501999999HL10009IA1189IA2999-00289KA1999N-00281MD1210081+9999MW1101
0092380190999991971031606004+44150+053350FM-12+999999999V0202501N01591004501CN0040001N9-00221-00391101721ADDAA106075091AA224999999AY121999GF108991081061004501999999KA1999N-00281MD1310231+9999MW1101
0057380190999991971031609004+44150+053350FM-12+999999999V0202501N01391004501CN0040001N9+00001-00391101861ADDAY111999GF107991071061004501001001MD1210151+9999MW1101
0068380190999991971031612004+44150+053350FM-12+999999999V0202501N01591004501CN0040001N9-00111-00501101921ADDAA199000091AY121999GF106991061061004501001001MD1110061+9999MW1101
0081380190999991971031615004+44150+053350FM-12+999999999V0202501N00871220001CN0500001N9-00221-00611102121ADDAA199000091AY111999GF101991001001999999001021KA1999M+00001MD1210181+9999MW1011
0081380190999991971031618004+44150+053350FM-12+999999999V0202501N00721220001CN0500001N9-00391-00721102351ADDAA199000091AY111999GF100991001001999999001001KA1999M+00281MD1310221+9999MW1011
0068380190999991971031700004+44150+053350FM-12+999999999V0203201N00511220001CN0500001N9-00781-01001102681ADDAA199000091AY101999GF100991001001999999001001MD1310141+9999MW1021
0123380190999991971031703004+44150+053350FM-12+999999999V0209991C00001220001CN0500001N9+99999+99999102721ADDAA199000091AJ100009199999999AY121999GF100991001001999999001001HL10009IA1139IA2999-00789KA1999N-00781MD1210041+9999MW1021
0123380190999991971031706004+44150+053350FM-12+999999999V0202401N00511220001CN0500001N9-00281-00391103041ADDAA199000091AJ100009199999999AY111999GF108991001001999999001071HL10009IA1139IA2999-00789KA1999N-00781MD1210321+9999MW1021
0057380190999991971031709004+44150+053350FM-12+999999999V0209991C00001220001CN0500001N9+00111-01221102961ADDAY111999GF106991001001999999001051MD1810021+9999MW1031
0068380190999991971031712004+44150+053350FM-12+999999999V0200901N00311220001CN0500001N9+00281-01111102851ADDAA199000091AY121999GF106991001001999999001021MD1810111+9999MW1021
0081380190999991971031718004+44150+053350FM-12+999999999V0200901N00511220001CN0500001N9-00111-00391102871ADDAA199000091AY111999GF100991001001999999001001KA1999M+00281MD1810081+9999MW1021
0057380190999991971031721004+44150+053350FM-12+999999999V0200901N00311220001CN0500001N9-00221-00501102831ADDAY101999GF100991001001999999001001MD1710041+9999MW1021
0068380190999991971031800004+44150+053350FM-12+999999999V0200901N00621220001CN0500001N9-00281-00501102781ADDAA199000091AY101999GF100991001001999999001001MD1710061+9999MW1021
0123380190999991971031806004+44150+053350FM-12+999999999V0201101N01181007801CN0500001N9+00001-00891102711ADDAA199000091AJ100009199999999AY121999GF108991081051008001999999HL10009IA1139IA2999-00399KA1999N-00281MD1710031+9999MW1031
0076380190999991971031809004+44150+053350FM-12+999999999V0201101N01181024001CN0500001N9+00221-00611102481ADDAY121999GF108991999001999999071001MD1810221+9999MW1021EQDQ01+000072SCOTLC
0068380190999991971031812004+44150+053350FM-12+999999999V0201101N00871004501CN0500001N9+00281-00391102321ADDAA199000091AY121999GF108991081061004501999999MD1710191+9999MW1021
0092380190999991971031818004+44150+053350FM-12+999999999V0201101N00721007801CN0500001N9+00111-00391102021ADDAA106075091AA224999999AY151999GF108991081051008001999999KA1999M+00391MD1610081+9999MW1021
0057380190999991971031821004+44150+053350FM-12+999999999V0201101N00821220001CN0500001N9+00221-00391101811ADDAY111999GF101991011041008001001001MD1810201+9999MW1011
0068380190999991971031900004+44150+053350FM-12+999999999V0201101N00621220001CN0500001N9+00111-00611101641ADDAA199000091AY111999GF100991001001999999001001MD1710181+9999MW1021
0123380190999991971031903004+44150+053350FM-12+999999999V0201401N00871220001CN0500001N9+00111-00501101561ADDAA199000091AJ100009199999999AY111999GF107991001001999999001021HL10009IA1139IA2999+00009KA1999N+00111MD1710081+9999MW1031
0123380190999991971031906004+44150+053350FM-12+999999999V0201401N00871024001CN0500001N9+00391-00391101511ADDAA199000091AJ100009199999999AY111999GF108991081001999999011999HL10009IA1139IA2999+00009KA1999N+00111MD1710031+9999MW1031
0057380190999991971031909004+44150+053350FM-12+999999999V0201401N00871220001CN0500001N9+00891+00001101251ADDAY121999GF108991001001999999001011MD1810221+9999MW1021
0068380190999991971031912004+44150+053350FM-12+999999999V0201401N00621220001CN0500001N9+01221+00111101121ADDAA199000091AY121999GF107991001001999999001011MD1710111+9999MW1021
0081380190999991971031918004+44150+053350FM-12+999999999V0201101N00411024001CN0500001N9+00501+00001101071ADDAA199000091AY121999GF108991081001999999071999KA1999M+01281MD1410001+9999MW1021
0057380190999991971031921004+44150+053350FM-12+999999999V0200101N00211024001CN0500001N9+00391+00111101071ADDAY121999GF107991071001999999071999MD1410001+9999MW1021
0068380190999991971032000004+44150+053350FM-12+999999999V0209991C00001007801CN0500001N9+00391+00221100951ADDAA199000091AY121999GF108991081051008001999999MD1810131+9999MW1021
0123380190999991971032003004+44150+053350FM-12+999999999V0202901N00101007801CN0500001N9+00221+00111101061ADDAA199000091AJ100009199999999AY121999GF107991071051008001001001HL10009IA1089IA2999+00119KA1999N+00221MD1310101+9999MW1021
0081380190999991971032006004+44150+053350FM-12+999999999V0202901N00621004501CN0500001N9+00391+00221101131ADDAA199000091AY111999GF106991061061004501001001KA1999N+00221MD1210081+9999MW1031
0057380190999991971032009004+44150+053350FM-12+999999999V0202901N00721004501CN0040001N9+00611+00281101161ADDAY121999GF106991061061004501001001MD1210051+9999MW1101
0068380190999991971032012004+44150+053350FM-12+999999999V0202901N00721004501CN0040001N9+00391+00221101251ADDAA199000091AY121999GF108991081061004501999999MD1110071+9999MW1101
0081380190999991971032018004+44150+053350FM-12+999999999V0202901N00821004501CN0500001N9+00001+00001101581ADDAA199000091AY121999GF108991081061004501999999KA1999M+00781MD1210131+9999MW1021
0057380190999991971032021004+44150+053350FM-12+999999999V0202901N00871004501CN9999999N9+00001+00001101641ADDAY121999GF199999081061004501999999MD1110061+9999MW1221
0079380190999991971032100004+44150+053350FM-12+999999999V0209991C00001000151CN0002001N9+00111+00001101641ADDAA106075091AA224999999AY141999GF109991091999000251999999MD1410001+9999MW1471
0134380190999991971032103004+44150+053350FM-12+999999999V0203201N00211000151CN0005001N9+00111+00111101731ADDAA106075091AA224999999AJ100009199999999AY151999GF109991091999000251999999HL10009IA1089IA2999+00009KA1999N+00001MD1310161+9999MW1431
0134380190999991971032106004+44150+053350FM-12+999999999V0203201N00211004501CN0020001N9+00221+00221101851ADDAA106075091AA224999999AJ100009199999999AY151999GF108991081051004501999999HL10009IA1089IA2999+00009KA1999N+00001MD1210141+9999MW1101
0068380190999991971032112004+44150+053350FM-12+999999999V0203601N00311007801CN0200001N9+00281+00111101831ADDAA199000091AY121999GF108991081001008001021999MD1810031+9999MW1021
0081380190999991971032115004+44150+053350FM-12+999999999V0200201N00311004501CN0500001N9+00281+00111101881ADDAA199000091AY121999GF108991081051004501999999KA1999M+00391MD1310051+9999MW1021
0081380190999991971032118004+44150+053350FM-12+999999999V0203601N00311220001CN0500001N9+00001+00001102021ADDAA199000091AY111999GF100991001001999999001001KA1999M+00391MD1210121+9999MW1021
0068380190999991971032200004+44150+053350FM-12+999999999V0202901N00411220001CN0500001N9+00001+00001101971ADDAA199000091AY111999GF102991021001999999031001MD1210061+9999MW1021
0123380190999991971032203004+44150+053350FM-12+999999999V0202901N00311220001CN0040001N9+00001-00111102101ADDAA199000091AJ100009199999999AY101999GF103991001001999999001021HL10009IA1139IA2999-00229KA1999N+00001MD1210031+9999MW1101
0123380190999991971032206004+44150+053350FM-12+999999999V0202701N00511220001CN0500001N9+00281+00001102151ADDAA199000091AJ100009199999999AY101999GF103991021061004501001011HL10009IA1139IA2999-00229KA1999N+00001MD1310161+9999MW1031
0057380190999991971032209004+44150+053350FM-12+999999999V0202901N00621007801CN0500001N9+00501+00111102161ADDAY111999GF107991071021008001001001MD1110031+9999MW1031
0068380190999991971032212004+44150+053350FM-12+999999999V0202701N00621220001CN0500001N9+00721-00111102131ADDAA199000091AY111999GF101991001001999999001021MD1810011+9999MW1021
0081380190999991971032218004+44150+053350FM-12+999999999V0209991C00001220001CN0500001N9+00221+00001102361ADDAA199000091AY101999GF100991001001999999001001KA1999M+00781MD1210121+9999MW1021
0068380190999991971032300004+44150+053350FM-12+999999999V0202301N00311220001CN0500001N9+00111+00001102411ADDAA199000091AY111999GF100991001001999999001001MD1810011+9999MW1021
0123380190999991971032303004+44150+053350FM-12+999999999V0202301N00311220001CN0500001N9+00221+00001102471ADDAA199000091AJ100009199999999AY101999GF101991001001999999001021HL10009IA1139IA2999-00119KA1999N+00111MD1310061+9999MW1021
0123380190999991971032306004+44150+053350FM-12+999999999V0202301N00511220001CN0500001N9+00721+00221102581ADDAA199000091AJ100009199999999AY101999GF101991001001999999001051HL10009IA1139IA2999-00119KA1999N+00111MD1310141+9999MW1021
