0057380370999991971010100004+44233+056700FM-12+999999999V0209991C00001000151CN0000001N9-00391-00391102821ADDAY141999GF109991091999000251999999MD1310141+9999MW1471
0068380370999991971010112004+44233+056700FM-12+999999999V0201101N00211000151CN0040001N9-00221-00391103091ADDAA199000091AY141999GF109991091999000251999999MD1310061+9999MW1451
0057380370999991971010118004+44233+056700FM-12+999999999V0209991C00001000151CN0000001N9-00391-00391103031ADDAY141999GF109991091999000251999999MD1710041+9999MW1451
0123380370999991971010206004+44233+056700FM-12+999999999V0201401N00411007801CN0200001N9-00281-00281102861ADDAA199000091AJ100009199999999AY121999GF107991071051008001001001HL10009IA1139IA2999-00619KA1999N-00611MD1310071+9999MW1031
0087380370999991971010212004+44233+056700FM-12+999999999V0209991C00001007801CN0200001N9+99999+99999102621ADDAA199999999AY161999GF107991071031008001001001MD1710071+9999MW1611EQDQ01  00002PRCP99
0070380370999991971010218004+44233+056700FM-12+999999999V0209991C00001220001CN0700001N9-00221-00221102771ADDAY101999GF100991001001999999001001KA1999M+00001MD1210121+9999MW1011
0043380370999991971010221004+44233+056700FM-12+999999999V0209991C99999220001CN0700001N9+99999+99999102721ADDAY101999GF100991001001999999001001MW1021
0068380370999991971010300004+44233+056700FM-12+999999999V0209991C00001220001CN0700001N9-00611-00611102831ADDAA199000091AY101999GF100991001001999999001001MD1310091+9999MW1021
0081380370999991971010306004+44233+056700FM-12+999999999V0203601N002119999999N0005001N9-00391-00391103011ADDAA199000091AY141999GF199999091999999999999999KA1999N-00721MD1210161+9999MW1421
0057380370999991971010318004+44233+056700FM-12+999999999V0203401N00211007801CN0700001N9-00111-00221103161ADDAY121999GF108991081051008001999999MD1210021+9999MW1021
0068380370999991971010400004+44233+056700FM-12+999999999V0209991C00001000151CN0002001N9-00221-00221103231ADDAA199000091AY141999GF109991091999000251999999MD1210011+9999MW1451
0123380370999991971010406004+44233+056700FM-12+999999999V0200501N00511007801CN0200001N9-00111-00111103551ADDAA199000091AJ100009199999999AY141999GF108991081051008001999999HL10009IA1139IA2999-00229KA1999N-00391MD1210151+9999MW1021
0057380370999991971010412004+44233+056700FM-12+999999999V0200901N00871007801CN0200001N9-00111-00281103381ADDAY121999GF108991081051008001999999MD1710031+9999MW1021
0057380370999991971010418004+44233+056700FM-12+999999999V0200701N00721007801CN0700001N9-00221-00391103141ADDAY111999GF107991071051008001051001MD1710151+9999MW1021
0068380370999991971010500004+44233+056700FM-12+999999999V0200901N00511007801CN0700001N9-00501-00501102891ADDAA199000091AY121999GF106991061051008001001001MD1710251+9999MW1021
0068380370999991971010512004+44233+056700FM-12+999999999V0203201N00511007801CN0200001N9-00111-00721102521ADDAA199000091AY121999GF108991081051008001999999MD1710011+9999MW1021
0087380370999991971010600004+44233+056700FM-12+999999999V0203201N00311012301CN0005001N9+00001+00001102871ADDAA199999999AY141999GF199999091041012501001001MD1110201+9999MW1531EQDQ01  00002PRCP99
0057380370999991971010606004+44233+056700FM-12+999999999V0203401N00311220001CN0200001N9-00501-00721103371ADDAY111999GF106991001001999999001021MD1210251+9999MW1021
0068380370999991971010612004+44233+056700FM-12+999999999V0203401N00101220001CN0200001N9+00001-00501103281ADDAA199000091AY111999GF105991001001999999001021MD1710061+9999MW1031
0057380370999991971010618004+44233+056700FM-12+999999999V0209991C00001220001CN0700001N9-00501-00611103311ADDAY101999GF100991001001999999001001MD1710091+9999MW1021
0068380370999991971010700004+44233+056700FM-12+999999999V0209991C00001007801CN0700001N9-00721-00721103441ADDAA199000091AY121999GF106991061051008001001001MD1710121+9999MW1021
0109380370999991971010703004+44233+056700FM-12+999999999V0201401N99999015001CN9999999N9+99999+99999103441ADDAA199000091AJ100009199999999AY141999GF108991051031017501001061HL10009IA1139IA2999-00789KA1999N-00781MW1461
0134380370999991971010706004+44233+056700FM-12+999999999V0201401N00511015001CN9999999N9-00391+99999098552ADDAJ100009199999999AY141999GF108991051031017501001061HL10009IA1139IA2999-00789MD1010582+9999MW1461EQDQ01+098553APOSLPQ02+000582APC3  
0068380370999991971010712004+44233+056700FM-12+999999999V0200901N00211004501CN0100001N9-00111-00221098551ADDAA199000091AY141999GF108991081061004501999999MD1710171+9999MW1281
0087380370999991971010800004+44233+056700FM-12+999999999V0200501N00721004501CN0100001N9-00221-00221102851ADDAA199999999AY141999GF108991081061004501999999MD1210191+9999MW1511EQDQ01  00002PRCP99
0078380370999991971010806004+44233+056700FM-12+999999999V0200201N00871007801CN0200001N9-00501-00501103341ADDAY131999GF108991081061008001999999MW1021EQDQ01+000042APCTENQ02+000302APC3  
0068380370999991971010812004+44233+056700FM-12+999999999V0203601N00821220001CN0200001N9-00391-01391103441ADDAA199000091AY121999GF102991001001999999001021MD1210341+9999MW1021
0067380370999991971010818004+44233+056700FM-12+999999999V0209991C00001220001CN0700001N9-01281-01721103441ADDAA199000091AY101999GF100991001001999999001001KA1999M-00221MW1021
0057380370999991971010900004+44233+056700FM-12+999999999V0209991C00001220001CN0700001N9-01781-02111999999ADDAY101999GF100991001001999999001001MD1810061+9999MW1021
0068380370999991971011412004+44233+056700FM-12+999999999V0203601N00511220001CN0200001N9+99999+99999999999ADDAA199000091AY111999GF101991001001999999001021MD1210251+9999MW1011
0068380370999991971011500004+44233+056700FM-12+999999999V0209991C00001220001CN0700001N9+99999+99999999999ADDAA199000091AY111999GF106991001001999999001021MD1210021+9999MW1031
0089380370999991971011512004+44233+056700FM-12+999999999V0202301N00511220001CN0200001N9-01001+99999103381ADDAA199000091AY101999GF103991001001999999001021MW1021EQDQ01+000042APCTENQ02+000132APC3  
0081380370999991971011518004+44233+056700FM-12+999999999V0202001N00511007801CN0700001N9-01501-02111103031ADDAA199000091AY111999GF107991071051008001001001KA1999M-01001MD1710121+9999MW1021
0068380370999991971011521004+44233+056700FM-12+999999999V0202501N99999220001CN0700001N9+99999+99999102701ADDAA199000091AY101999GF102991001001999999001021MD1710261+9999MW1021
0068380370999991971011600004+44233+056700FM-12+999999999V0202501N00721220001CN0700001N9-01391-01611102701ADDAA199000091AY101999GF102991001001999999001021MD1710261+9999MW1021
0068380370999991971011612004+44233+056700FM-12+999999999V0202801N00621220001CN0200001N9+00221-00501102701ADDAA199000091AY101999GF103991001001999999001021MD1710021+9999MW1021
0123380370999991971011706004+44233+056700FM-12+999999999V0209991C00001220001CN0200001N9-00891-00891102921ADDAA199000091AJ100009199999999AY111999GF102991001001999999001021HL10009IA1139IA2999-01229KA1999N-01221MD1210241+9999MW1011
0068380370999991971011712004+44233+056700FM-12+999999999V0201401N00101220001CN0200001N9+00281-00501102771ADDAA199000091AY101999GF100991001001999999001001MD1710121+9999MW1021
0057380370999991971011718004+44233+056700FM-12+999999999V0200701N00311220001CN0700001N9-00891-00891102991ADDAY101999GF100991001001999999001001MD1310061+9999MW1021
0068380370999991971011800004+44233+056700FM-12+999999999V0209991C00001000151CN0000501N9-01221-01221102991ADDAA199000091AY141999GF109991091999000251999999MD1810021+9999MW1451
0106380370999991971011806004+44233+056700FM-12+999999999V0209991C00001036001CN0200001N9-00781-00781103071ADDAA199000091AY141999GF107991041081022501041021HL10009IA1009IA2999-01509KA1999N-01221MD1310161+9999MW1021
0089380370999991971011812004+44233+056700FM-12+999999999V0209991C00001220001CN0200001N9+00221-00611102871ADDAA199000091AY121999GF107991001001999999001021MW1021EQDQ01+000062APCTENQ02+000002APC3  
0103380370999991971011900004+44233+056700FM-12+999999999V0209991C000019999999N9999999N9-01281-01281102961ADDAA199000091AY141999GF109991999061004501001001MD1810011+9999MW1451EQDQ01+000042SCOTLCQ02+400002VODIS 
0123380370999991971011906004+44233+056700FM-12+999999999V0209991C00001220001CN0200001N9-00891-00891103001ADDAA199000091AJ100009199999999AY121999GF105991001001999999001021HL10009IA1139IA2999-01399KA1999N-01281MD1310091+9999MW1021
0068380370999991971011912004+44233+056700FM-12+999999999V0209991C00001220001CN0200001N9+00111-00391102861ADDAA199000091AY101999GF100991001001999999001001MD1710041+9999MW1021
0123380370999991971012006004+44233+056700FM-12+999999999V0209991C00001000151CN0002001N9-00221-00221102861ADDAA199000091AJ100009199999999AY141999GF109991091999000251999999HL10009IA1139IA2999-01229KA1999N-01111MD1110141+9999MW1491
0057380370999991971012012004+44233+056700FM-12+999999999V0200501N00311004501CN0040001N9-00281-00281103201ADDAY141999GF108991081061004501999999MD1310031+9999MW1441
0081380370999991971012018004+44233+056700FM-12+999999999V0201401N00411004501CN0200001N9-00391-00391103391ADDAA199000091AY121999GF108991081061004501999999KA1999M-00221MD1210061+9999MW1021
0068380370999991971012112004+44233+056700FM-12+999999999V0200501N00211007801CN0200001N9-00391-00781103431ADDAA199000091AY121999GF108991081051008001999999MD1810101+9999MW1021
0057380370999991971012118004+44233+056700FM-12+999999999V0201401N00411007801CN0700001N9-00611-00721103461ADDAY121999GF108991081051008001999999MD1810011+9999MW1021
0068380370999991971012200004+44233+056700FM-12+999999999V0201401N00311007801CN0700001N9-00721-00721103621ADDAA199000091AY121999GF108991081051008001999999MD1210051+9999MW1021
0087380370999991971012212004+44233+056700FM-12+999999999V0200901N00211007801CN0200001N9-00501-00721103641ADDAA199999999AY181999GF108991081051008001999999MD1810041+9999MW1771EQDQ01  00002PRCP99
0070380370999991971012218004+44233+056700FM-12+999999999V0200901N00311007801CN0700001N9-00721-00721103701ADDAY121999GF108991081051008001999999KA1999M-00391MD1310081+9999MW1021
0103380370999991971012221004+44233+056700FM-12+999999999V0200901N99999007801CN0200001N9+99999+99999103791ADDAA199000091AY121999GF108991081051008001999999MD1210091+9999MW1021EQDQ01+000042APCTENQ02+000052APC3  
0087380370999991971012300004+44233+056700FM-12+999999999V0200901N00211007801CN0200001N9-00781-01781103791ADDAA199000091AY121999GF108991081051008001999999MD1410001+9999MW1021EQDQ01+000052APC3  
0142380370999991971012306004+44233+056700FM-12+999999999V0200901N00411007801CN0100001N9-00721-00781103901ADDAA199999999AJ100009199999999AY171999GF108991081051008001999999HL10009IA1139IA2999-00729KA1999N-00781MD1210121+9999MW1701EQDQ01  00002PRCP99
0068380370999991971012312004+44233+056700FM-12+999999999V0209991C00001220001CN0200001N9-00221-00891103761ADDAA199000091AY111999GF100991001001999999001001MD1710041+9999MW1021
0070380370999991971012318004+44233+056700FM-12+999999999V0200901N00511220001CN0700001N9-00891-01281103901ADDAY111999GF102991001001999999001021KA1999M-00221MD1310011+9999MW1031
0062380370999991971012400004+44233+056700FM-12+999999999V0200501N00211220001CN0700001N9-01391-01391103971ADDAA199000091AY141999GF104991001001999999001061MD1810031+9999
0123380370999991971012406004+44233+056700FM-12+999999999V0209991C00001220001CN0200001N9-01001-01111103971ADDAA199000091AJ100009199999999AY111999GF100991001001999999001001HL10009IA1139IA2999-01619KA1999N-01611MD1310071+9999MW1021
0057380370999991971012412004+44233+056700FM-12+999999999V0202301N00101220001CN0200001N9-00611-01001103721ADDAY101999GF103991001001999999001021MD1710061+9999MW1021
0057380370999991971012500004+44233+056700FM-12+999999999V0209991C00001220001CN0700001N9-00891-01001103701ADDAY101999GF100991001001999999001001MD1810081+9999MW1021
0123380370999991971012506004+44233+056700FM-12+999999999V0200901N00101220001CN0200001N9-00611-00891103791ADDAA199000091AJ100009199999999AY101999GF100991001001999999001001HL10009IA1139IA2999-00899KA1999N-01001MD1210081+9999MW1021
0068380370999991971012512004+44233+056700FM-12+999999999V0200901N00211220001CN0200001N9+00001-01001103631ADDAA199000091AY101999GF100991001001999999001001MD1710021+9999MW1021
0089380370999991971012600004+44233+056700FM-12+999999999V0200901N00311220001CN0300001N9-01391-01391103841ADDAA199000091AY121999GF100991001001999999001001MW1021EQDQ01+000012APCTENQ02+000002APC3  
0123380370999991971012606004+44233+056700FM-12+999999999V0200901N00511220001CN0200001N9-00781-01001103931ADDAA199000091AJ100009199999999AY101999GF101991001001999999001021HL10009IA1139IA2999-01619KA1999N-01611MD1210101+9999MW1021
0068380370999991971012612004+44233+056700FM-12+999999999V0200901N00511220001CN0200001N9-00111-01111103771ADDAA199000091AY101999GF102991001001999999001021MD1710041+9999MW1021
0081380370999991971012618004+44233+056700FM-12+999999999V0200701N00211220001CN0700001N9-01001-01221103881ADDAA199000091AY101999GF100991001001999999001001KA1999M-00111MD1810021+9999MW1021
0043380370999991971012621004+44233+056700FM-12+999999999V0209991C99999220001CN0700001N9+99999+99999103911ADDAY101999GF100991001001999999001001MW1021
0098380370999991971012700004+44233+056700FM-12+999999999V0209991C00001220001CN0500001N9-00281-01281103911ADDAA106999999AA299300091AY101999GF100991001001999999001001MD1110061+9999MW1021EQDQ01  99982PRCP06
0123380370999991971012706004+44233+056700FM-12+999999999V0209991C00001220001CN0200001N9-00611-01111103891ADDAA199000091AJ100009199999999AY101999GF100991001001999999001001HL10009IA1139IA2999-01619KA1999N-01501MD1310071+9999MW1021
0068380370999991971012712004+44233+056700FM-12+999999999V0200901N00511220001CN0200001N9+00001-00781103691ADDAA199000091AY101999GF100991001001999999001001MD1510081+9999MW1021
0057380370999991971012800004+44233+056700FM-12+999999999V0200501N00411220001CN0700001N9-01001-01281103801ADDAY101999GF100991001001999999001001MD1310071+9999MW1021
0081380370999991971012806004+44233+056700FM-12+999999999V0200501N00311220001CN0200001N9-00611-00781103691ADDAA199000091AY101999GF100991001001999999001001KA1999N-01221MD1710031+9999MW1021
0068380370999991971012812004+44233+056700FM-12+999999999V0200901N00511220001CN0200001N9-00611-00891103491ADDAA199000091AY101999GF100991001001999999001001MD1710051+9999MW1021
0068380370999991971012815004+44233+056700FM-12+999999999V0200901N99999220001CN0200001N9+99999+99999103491ADDAA199000091AY101999GF100991001001999999001001MD1710051+9999MW1021
0081380370999991971012818004+44233+056700FM-12+999999999V0209991C00001220001CN0700001N9-01001-01501103421ADDAA199000091AY101999GF100991001001999999001001KA1999M-00221MD1010051+9999MW1021
0068380370999991971012900004+44233+056700FM-12+999999999V0209991C00001220001CN0700001N9-01221-01221103431ADDAA199000091AY101999GF100991001001999999001001MD1710041+9999MW1021
0123380370999991971012903004+44233+056700FM-12+999999999V0209991C99999220001CN0700001N9+99999+99999103361ADDAA199000091AJ100009199999999AY101999GF100991001001999999001001HL10009IA1139IA2999-01399KA1999N-01391MD1710081+9999MW1021
0123380370999991971012906004+44233+056700FM-12+999999999V0200701N00511220001CN0200001N9-00611-00721103341ADDAA199000091AJ100009199999999AY101999GF100991001001999999001001HL10009IA1139IA2999-01399KA1999N-01391MD1310031+9999MW1021
0057380370999991971012912004+44233+056700FM-12+999999999V0200501N00621220001CN0200001N9-00221-00721103301ADDAY101999GF100991001001999999001001MD1310041+9999MW1021
0057380370999991971013006004+44233+056700FM-12+999999999V0209991C00001220001CN0200001N9-00891-01001103301ADDAY101999GF100991001001999999001001MD1310021+9999MW1021
0057380370999991971013018004+44233+056700FM-12+999999999V0209991C00001220001CN0700001N9-00891-01391103301ADDAY101999GF100991001001999999001001MD1310091+9999MW1021
0068380370999991971013100004+44233+056700FM-12+999999999V0202301N00411220001CN0005001N9-00781-01721102921ADDAA199000091AY141999GF100991001001999999001001MD1810021+9999MW1441
0091380370999991971013106004+44233+056700FM-12+999999999V0200901N00211024001CN0200001N9-00781-00781103191ADDAA199000091AJ100009199999999AY121999GF107991071001999999051001IA1139MD1210041+9999MW1021
0057380370999991971013115004+44233+056700FM-12+999999999V0200201N99999220001CN0200001N9+99999+99999103131ADDAY101999GF100991001001999999001001MD1310021+9999MW1021
0068380370999991971020100004+44233+056700FM-12+999999999V0200501N00211220001CN0700001N9-01111-01111103341ADDAA199000091AY101999GF100991001001999999001001MD1310021+9999MW1021
0123380370999991971020106004+44233+056700FM-12+999999999V0209991C00001220001CN0200001N9-01001-01001103391ADDAA199000091AJ100009199999999AY101999GF100991001001999999001001HL10009IA1139IA2999-01619KA1999N-01611MD1210011+9999MW1021
0057380370999991971020112004+44233+056700FM-12+999999999V0200501N00411220001CN0200001N9-00221-00891103251ADDAY101999GF100991001001999999001001MD1710041+9999MW1021
0068380370999991971020200004+44233+056700FM-12+999999999V0209991C00001220001CN0700001N9-01611-01611103291ADDAA199000091AY101999GF100991001001999999001001MD1710041+9999MW1021
0123380370999991971020206004+44233+056700FM-12+999999999V0200701N00211220001CN0200001N9-00891-01001103221ADDAA199000091AJ100009199999999AY101999GF100991001001999999001001HL10009IA1139IA2999-01789KA1999N-01611MD1710011+9999MW1021
0068380370999991971020212004+44233+056700FM-12+999999999V0200501N00211220001CN0200001N9-00221-01111102971ADDAA199000091AY101999GF100991001001999999001001MD1710091+9999MW1021
0081380370999991971020218004+44233+056700FM-12+999999999V0209991C00001220001CN0700001N9-01501-01721103001ADDAA199000091AY101999GF100991001001999999001001KA1999M-00501MD1810051+9999MW1021
0068380370999991971020300004+44233+056700FM-12+999999999V0209991C00001220001CN0700001N9-01221-01501102761ADDAA199000091AY101999GF100991001001999999001001MD1710061+9999MW1021
0117380370999991971020306004+44233+056700FM-12+999999999V0200901N00511220001CN0200001N9-01221-01221102671ADDAA199000091AJ100009199999999AY101999GF100991001001999999001001HL10009IA2999-02009KA1999N-02001MD1710041+9999MW1021
0068380370999991971020312004+44233+056700FM-12+999999999V0200901N00411220001CN0200001N9-00391-00891102411ADDAA199000091AY101999GF100991001001999999001001MD1710161+9999MW1021
0068380370999991971020400004+44233+056700FM-12+999999999V0200901N00621220001CN0700001N9-01221-01221102561ADDAA199000091AY111999GF104991001001999999001021MD1810031+9999MW1031
0057380370999991971020403004+44233+056700FM-12+999999999V0200901N99999220001CN0700001N9+99999+99999102561ADDAY111999GF104991001001999999081021MD1810031+9999MW1031
0106380370999991971020406004+44233+056700FM-12+999999999V0200901N00721220001CN0200001N9-00721-00781102601ADDAA199000091AY121999GF107991001001999999001021HL10009IA1159IA2999-01509KA1999N-01221MD1210051+9999MW1021
0068380370999991971020412004+44233+056700FM-12+999999999V0200901N00511220001CN0200001N9+00111-00611102251ADDAA199000091AY111999GF104991001001999999001021MD1710191+9999MW1011
0068380370999991971020500004+44233+056700FM-12+999999999V0209991C00001220001CN0700001N9-00721-00721102201ADDAA199000091AY101999GF100991001001999999001001MD1710161+9999MW1021
0123380370999991971020506004+44233+056700FM-12+999999999V0201101N00311007801CN0200001N9-00221-00611101941ADDAA199000091AJ100009199999999AY121999GF108991081051008001999999HL10009IA1139IA2999-01009KA1999N-00721MD1710091+9999MW1021
0068380370999991971020518004+44233+056700FM-12+999999999V0209991C00001220001CN0200001N9-00281-00391101401ADDAA199000091AY111999GF108991001001999999001021MD1710131+9999MW1031
0068380370999991971020600004+44233+056700FM-12+999999999V0203601N00311004501CN0700001N9-00781-00891101041ADDAA199000091AY121999GF108991081061004501999999MD1710231+9999MW1021
0117380370999991971020606004+44233+056700FM-12+999999999V0203201N00211220001CN0200001N9-00611-00721101201ADDAA199000091AJ100009199999999AY101999GF103991001001999999001021HL10009IA2999-01009KA1999N-00781MD1810081+9999MW1021
0089380370999991971020612004+44233+056700FM-12+999999999V0203201N00101220001CN0200001N9+00281-00611101201ADDAA199000091AY101999GF100991001001999999001001MW1021EQDQ01+000042APCTENQ02+000172APC3  
0076380370999991971020615004+44233+056700FM-12+999999999V0203201N99999220001CN0200001N9+99999+99999101201ADDAY101999GF100991001001999999001001MD1410001+9999MW1021EQDQ01+000172APC3  
0057380370999991971020618004+44233+056700FM-12+999999999V0209991C00001220001CN0700001N9-00781-01001101081ADDAY101999GF100991001001999999001001MD1810101+9999MW1021
0068380370999991971020700004+44233+056700FM-12+999999999V0202701N00311007801CN0700001N9-00611-00891100941ADDAA199000091AY121999GF107991071051008001001001MD1210031+9999MW1031
0106380370999991971020706004+44233+056700FM-12+999999999V0202701N00511007801CN0200001N9-00221-00391101251ADDAA199000091AY121999GF108991081051008001999999HL10009IA1199IA2999-00899KA1999N-00781MD1210171+9999MW1021
0068380370999991971020712004+44233+056700FM-12+999999999V0202501N00411220001CN0200001N9+00281-00891101161ADDAA199000091AY101999GF100991001001999999001001MD1810061+9999MW1021
0057380370999991971020718004+44233+056700FM-12+999999999V0201401N005119999999N0700001N9-00391-00391101041ADDAY121999GF199999071001999999999999MD1710141+9999MW1021
0068380370999991971020800004+44233+056700FM-12+999999999V0201401N00511004501CN0700001N9+00111-00111100521ADDAA199000091AY121999GF108991081061004501999999MD1710211+9999MW1021
0057380370999991971020806004+44233+056700FM-12+999999999V0202701N00311007801CN0100001N9+00111+00111100461ADDAY161999GF108991081051008001999999MD1310061+9999MW1731
0068380370999991971020812004+44233+056700FM-12+999999999V0203401N00721004501CN0700001N9-00501-00721100811ADDAA199000091AY101999GF108991081071004501999999MD1210051+9999MW1021
0092380370999991971020818004+44233+056700FM-12+999999999V0209991C00001024001CN0500001N9-01111-01111101591ADDAA106075091AA224999999AY111999GF106991061001999999041001KA1999M+00111MD1210241+9999MW1001
0068380370999991971020900004+44233+056700FM-12+999999999V0203601N00211220001CN0700001N9-00611-01111101761ADDAA199000091AY101999GF100991001001999999001001MD1210161+9999MW1011
0123380370999991971020906004+44233+056700FM-12+999999999V0202301N00311220001CN0200001N9-01001-01111102011ADDAA199000091AJ100009199999999AY111999GF100991001001999999001001HL10009IA1139IA2999-00899KA1999N-01281MD1210061+9999MW1021
0068380370999991971020912004+44233+056700FM-12+999999999V0200701N00621007801CN0200001N9+00111-00391101801ADDAA199000091AY101999GF107991071021008001001001MD1710121+9999MW1021
0100380370999991971020918004+44233+056700FM-12+999999999V0201401N00621220001CN0200001N9-00391-01001101731ADDAA199000091AY111999GF104991999001999999031001KA1999M+00111MD1810051+9999MW1021EQDQ01+000002SCOTLC
0068380370999991971021000004+44233+056700FM-12+999999999V0200901N00821220001CN0700001N9-00721-00891101401ADDAA199000091AY121999GF106991001001999999001021MD1710111+9999MW1021
0057380370999991971021006004+44233+056700FM-12+999999999V0201401N00211220001CN0200001N9-00111-00721101131ADDAY111999GF107991001001999999001021MD1710121+9999MW1031
0089380370999991971021012004+44233+056700FM-12+999999999V0201401N00721220001CN0200001N9+00391-00501100921ADDAA199000091AY121999GF107991001001999999001081MW1021EQDQ01+000062APCTENQ02+000002APC3  
0057380370999991971021018004+44233+056700FM-12+999999999V0201101N00411220001CN0700001N9+00111-00611100921ADDAY121999GF107991001001999999001021MD1710121+9999MW1021
0068380370999991971021100004+44233+056700FM-12+999999999V0203201N00621007801CN0700001N9-00391-00501101381ADDAA199000091AY121999GF108991081051008001999999MD1510221+9999MW1021
0123380370999991971021106004+44233+056700FM-12+999999999V0203401N00981220001CN0200001N9-00721-01001101881ADDAA199000091AJ100009199999999AY121999GF106991001001999999001021HL10009IA1139IA2999-00289KA1999N-00781MD1210251+9999MW1021
0068380370999991971021112004+44233+056700FM-12+999999999V0200201N00411220001CN0200001N9-00281-01281101911ADDAA199000091AY111999GF105991001001999999001021MD1110061+9999MW1031
0076380370999991971021121004+44233+056700FM-12+999999999V0209991C99999024001CN0200001N9+99999+99999101911ADDAY171999GF108991999001999999031001MD1710071+9999MW1711EQDQ01+000072SCOTLC
0068380370999991971021200004+44233+056700FM-12+999999999V0209991C00001220001CN0700001N9-01221-01221101861ADDAA199000091AY121999GF108991001001999999001021MD1810171+9999MW1031
0125380370999991971021203004+44233+056700FM-12+999999999V0209991C999999999999N0700001N9+99999+99999101841ADDAJ100009199999999AY101999GF108991999001999999001021HL10009IA2999-01619KA1999N-01221MD1610021+9999MW1021EQDQ01+000002APC3  
0112380370999991971021206004+44233+056700FM-12+999999999V0203601N00211004501CN0200001N9-00611-00611101931ADDAJ100009199999999AY121999GF108991081061004501999999HL10009IA1139IA2999-01619KA1999N-01221MD1310111+9999MW1021
0068380370999991971021212004+44233+056700FM-12+999999999V0200201N00511220001CN0200001N9-00111-00891101711ADDAA199000091AY101999GF100991001001999999001001MD1710021+9999MW1021
0081380370999991971021218004+44233+056700FM-12+999999999V0200201N00311007801CN0200001N9-00111-00781101971ADDAA199000091AY111999GF108991081061008001999999KA1999M-00111MD1310231+9999MW1011
0087380370999991971021300004+44233+056700FM-12+999999999V0200901N00411007801CN0700001N9-00611-00721102021ADDAA199000091AY121999GF108991999061008001071999MD1210041+9999MW1021EQDQ01+000082SCOTLC
0109380370999991971021306004+44233+056700FM-12+999999999V0201101N00411007801CN0200001N9-00611-00611102111ADDAA199000091AJ100009199999999AY121999GF108991081061008001999999HL10009IA1139IA2999-00619KA1999N-00611MW1031
0068380370999991971021312004+44233+056700FM-12+999999999V0200901N00721007801CN0200001N9-00501-00891101741ADDAA199000091AY111999GF108991081051008001999999MD1810171+9999MW1031
0087380370999991971021400004+44233+056700FM-12+999999999V0203201N00621004501CN0700001N9-00721-00721101741ADDAA199999999AY171999GF108991081051004501999999MD1710401+9999MW1771EQDQ01  00002PRCP99
0130380370999991971021406004+44233+056700FM-12+999999999V0202701N00511007801CN0500001N9-00501-00501999999ADDAA106008091AA299002091AY121999GF108991081051008001999999HL10009IA2999-00729KA1999N-00721MD1310101+9999MW1021EQDQ01+100093APOSLP
0087380370999991971021412004+44233+056700FM-12+999999999V0202701N01181007801CN0002001N9-00721-00891101281ADDAA199000091AY121999GF107991071051008001001001MD1210952+9999MW1391EQDQ01+000952APC3  
0076380370999991971021418004+44233+056700FM-12+999999999V0202701N00511220001CN0700001N9-01391-01611101781ADDAY111999GF104991041051008001001001MD1310552+9999MW1011EQDQ01+000552APC3  
0068380370999991971021500004+44233+056700FM-12+999999999V0202701N00211220001CN0700001N9-01501-01611102121ADDAA199000091AY101999GF100991001001999999001001MD1210051+9999MW1011
0106380370999991971021506004+44233+056700FM-12+999999999V0201801N01181007801CN0500001N9-00611-00721101871ADDAA199000091AY111999GF105991051051008001001001HL10009IA1199IA2999-01789KA1999N-01611MD1710181+9999MW1371
0068380370999991971021512004+44233+056700FM-12+999999999V0202001N01181220001CN0200001N9+00111-00221101531ADDAA199000091AY131999GF107991001001999999001021MD1710021+9999MW1021
0057380370999991971021518004+44233+056700FM-12+999999999V0209991C00001007801CN0700001N9-00611-00721101911ADDAY101999GF108991081051008001999999MD1310211+9999MW1021
0125380370999991971021606004+44233+056700FM-12+999999999V0202301N00211220001CN0200001N9-01221-01221102431ADDAA199000091AY101999GF100991001001999999001001HL10009IA1139IA2999-02009KA1999N+99999MD1210121+9999MW1021EQDQ01 -01002ATMN  
0068380370999991971021612004+44233+056700FM-12+999999999V0202301N00511220001CN0200001N9+00001-00281102181ADDAA199000091AY101999GF100991001001999999001001MD1710111+9999MW1021
0068380370999991971021618004+44233+056700FM-12+999999999V0202301N00511007801CN0700001N9-00221-00281102101ADDAA199000091AY121999GF108991081061008001999999MD1710071+9999MW1021
0068380370999991971021700004+44233+056700FM-12+999999999V0209991C00001000151CN0200001N9-00391-00391102111ADDAA199000091AY121999GF107991071061000251001999MD1810011+9999MW1031
0106380370999991971021706004+44233+056700FM-12+999999999V0209991C00001220001CN0200001N9-01001-01221102361ADDAA199000091AY111999GF107991001001999999001021HL10009IA1189IA2999-01119KA1999N-01111MD1210031+9999MW1031
0068380370999991971021718004+44233+056700FM-12+999999999V0209991C00001220001CN0200001N9-01721-01721102661ADDAA199000091AY121999GF100991001001999999001001MD1210021+9999MW1021
0057380370999991971021900004+44233+056700FM-12+999999999V0209991C00001220001CN0700001N9-02221-02281102661ADDAY101999GF100991001001999999001001MD1810091+9999MW1021
0057380370999991971022000004+44233+056700FM-12+999999999V0200901N00621220001CN0700001N9-01281-01391103031ADDAY101999GF102991001001999999001021MD1810021+9999MW1021
0057380370999991971022100004+44233+056700FM-12+999999999V0202701N00821007801CN0700001N9-01001-01111102411ADDAY121999GF108991081051008001999999MD1710191+9999MW1021
0123380370999991971022103004+44233+056700FM-12+999999999V0200901N99999007801CN0200001N9+99999+99999102141ADDAA199000091AJ100009199999999AY121999GF108991081051008001999999HL10009IA1189IA2999-01119KA1999N-01001MD1710261+9999MW1021
0068380370999991971022212004+44233+056700FM-12+999999999V0209991C00001007801CN0200001N9+00111-00391102141ADDAA199000091AY121999GF107991071051008001001001MD1710121+9999MW1011
0078380370999991971022700004+44233+056700FM-12+999999999V0200901N00721220001CN0700001N9-00781-00891102421ADDAY111999GF102991021051004501001001MW1011EQDQ01+000062APCTENQ02+000002APC3  
0106380370999991971022706004+44233+056700FM-12+999999999V0200901N00821220001CN0200001N9-00501-00721102221ADDAA199000091AY111999GF102991001001999999001021HL10009IA1139IA2999-00899KA1999N-00891MD1710111+9999MW1011
0057380370999991971030606004+44233+056700FM-12+999999999V0200501N99999220001CN0200001N9+99999+99999103501ADDAY111999GF102991001001999999001021MD1210231+9999MW1011
0057380370999991971030718004+44233+056700FM-12+999999999V0200701N99999220001CN0290001N9+99999+99999103941ADDAY101999GF100991001001999999001001MD1710041+9999MW1021
0079380370999991971031000004+44233+056700FM-12+999999999V0209991C00001220001CN0500001N9+99999+99999999999ADDAA199000091AY101999GF102991001001999999001999HL10009IA1319IA2999-03619MW1021
0054380370999991971031115004+44233+056700FM-12+999999999V0200901N99999024001CN0700001N9+99999+99999101401ADDAA199000091AY101999GF199999071001999999041001MW1031
0057380370999991971031218004+44233+056700FM-12+999999999V0200901N99999220001CN0200001N9+99999+99999101281ADDAY111999GF104991041001999999041001MD1210041+9999MW1021
0054380370999991971031400004+44233+056700FM-12+999999999V0209991C000019999999N0700001N9+99999+99999098901ADDAA199000091AY111999GF199999999071999999001001MW1021
0057380370999991971031506004+44233+056700FM-12+999999999V0200601N99999220001CN0200001N9+99999+99999100971ADDAY121999GF102991999051008001999999MD1710191+9999MW1021
0093380370999991971031600004+44233+056700FM-12+999999999V0209991C000019999999N0500001N9+99999+99999102731ADDAA199000091AY111999GF108991021001999999041071HL10009IA1319IA2999-02899MD1310041+9999MW1021
0057380370999991971031618004+44233+056700FM-12+999999999V0202701N99999220001CN0200001N9+99999+99999102201ADDAY111999GF100991001001999999001001MD1810011+9999MW1011
0054380370999991971031900004+44233+056700FM-12+999999999V0200901N00821007801CN9999999N9+00111-00721102041ADDAA199000091AY121999GF107991071051008001001001MW1021
0099380370999991971032203004+44233+056700FM-12+999999999V0203201N99999220001CN0200001N9+99999+99999102041ADDAJ100009199999999AY131999GF107991001001999999001021HL10009IA1139IA2999-00289MD1310051+9999MW1311
0057380370999991971032300004+44233+056700FM-12+999999999V0209991C00001220001CN0200001N9-00111+99999102621ADDAY101999GF100991001001999999001001MD1310081+9999MW1021
0057380370999991971032606004+44233+056700FM-12+999999999V0200901N999999999999N0200001N9+99999+99999102061ADDAY121999GF106991999001017501001021MD1210091+9999MW1021
0057380370999991971032700004+44233+056700FM-12+999999999V0200901N00211220001CN0700001N9-00111+99999102021ADDAY121999GF103991001001999999001021MD1710141+9999MW1021
0057380370999991971032909004+44233+056700FM-12+999999999V0200501N999999999999N0200001N9+99999+99999101191ADDAY121999GF199999999001008001041001MD1810131+9999MW1021
0057380370999991971033000004+44233+056700FM-12+999999999V0203201N00721024001CN0700001N9+99999+99999101401ADDAY121999GF108991081001999999021999MD1310021+9999MW1021
0057380370999991971040100004+44233+056700FM-12+999999999V0201601N00411220001CN0700001N9+00111+00111101301ADDAY101999GF100991001001999999001001MD1710031+9999MW1021
0057380370999991971040212004+44233+056700FM-12+999999999V0200501N99999220001CN0200001N9+99999+99999102001ADDAY121999GF106991001001999999001021MD1310021+9999MW1021
0057380370999991971040400004+44233+056700FM-12+999999999V0203401N00101220001CN0700001N9-00391-00501102341ADDAY101999GF102991001001999999001021MD1110011+9999MW1031
0057380370999991971040706004+44233+056700FM-12+999999999V0209991C999999999999N0200001N9+99999+99999101261ADDAY111999GF106991031001999999081071MD1710061+9999MW1011
0057380370999991971040712004+44233+056700FM-12+999999999V0202501N99999024001CN0200001N9+99999+99999100941ADDAY121999GF107991071001999999091999MD1710191+9999MW1031
0057380370999991971040800004+44233+056700FM-12+999999999V0202701N00411012301CN0700001N9+00611-00721100881ADDAY121999GF107991071051012501001001MD1210011+9999MW1031
0076380370999991971040806004+44233+056700FM-12+999999999V0203201N99999220001CN0200001N9+99999+99999101862ADDAY171999GF101991011001999999081001MD1210421+9999MW1011EQDQ01+101863APOSLP
0057380370999991971040900004+44233+056700FM-12+999999999V0209991C00001220001CN0700001N9-00721+99999103041ADDAY101999GF100991001001999999001001MD1210101+9999MW1021
0073380370999991971041015004+44233+056700FM-12+999999999V0200901N99999220001CN9999999N9+99999+99999103441ADDAA199000091AY111999GF102991999091999999021011MW1011EQDQ01+000002SCOTLC
0057380370999991971041600004+44233+056700FM-12+999999999V0209991C00001220001CN0500001N9+00781+00501100841ADDAY101999GF100991001001999999001001MD1210121+9999MW1021
0057380370999991971041606004+44233+056700FM-12+999999999V0202701N99999220001CN0200001N9+99999+99999101051ADDAY111999GF105991001001999999001021MD1110061+9999MW1031
0057380370999991971041718004+44233+056700FM-12+999999999V0200901N99999007801CN0700001N9+99999+99999100721ADDAY121999GF107991071091008001001001MD1710221+9999MW1021
0076380370999991971042000004+44233+056700FM-12+999999999V0202301N00821004501CN0700001N9+00221+00221101321ADDAY161999GF108991999071004501021999MD1210051+9999MW1611EQDQ01+000082SCOTLC
0057380370999991971042118004+44233+056700FM-12+999999999V0209991C99999220001CN0500001N9+99999+99999102501ADDAY111999GF102991021001999999081001MD1310151+9999MW1021
0057380370999991971042121004+44233+056700FM-12+999999999V0209991C99999220001CN0500001N9+99999+99999102501ADDAY111999GF102991021001999999081001MD1310151+9999MW1021
0057380370999991971042200004+44233+056700FM-12+999999999V0209991C00001001501CN0700001N9+00281+00221102471ADDAY111999GF107991071091001501001999MD1710011+9999MW1031
0057380370999991971042318004+44233+056700FM-12+999999999V0200701N99999220001CN0700001N9+99999+99999101871ADDAY121999GF105991001001999999001021MD1710071+9999MW1011
0051380370999991971042409004+44233+056700FM-12+999999999V0200701N99999007801CN0200001N9+99999+99999101871ADDAY131999GF107991071051008001001001MD1710071+9999
0068380370999991971042500004+44233+056700FM-12+999999999V0209991C00001220001CN0200001N9+00611+00001101601ADDAA199000091AY111999GF107991001001999999001061MD1210131+9999MW1031
0057380370999991971042518004+44233+056700FM-12+999999999V0209991C99999220001CN0700001N9+99999+99999101231ADDAY121999GF100991001001999999001001MD1110321+9999MW1011
0094380370999991971043012004+44233+056700FM-12+999999999V0201101N999999999999N0200001N9+99999+99999102131ADDAY111999GF105991999021008001001001MW1031EQDQ01+000012SCOTLCQ02+000062APCTENQ03+000002APC3  
0057380370999991971043021004+44233+056700FM-12+999999999V0200901N99999220001CN0100001N9+99999+99999102331ADDAY181999GF100991001001999999001001MD1110011+9999MW1021
0057380370999991971050106004+44233+056700FM-12+999999999V0200901N99999220001CN0200001N9+99999+99999102231ADDAY101999GF104991999001999999001021MD1210021+9999MW1031
0057380370999991971050206004+44233+056700FM-12+999999999V0201601N99999220001CN0200001N9+99999+99999102181ADDAY111999GF101991001001999999001011MD1810031+9999MW1011
0051380370999991971050212004+44233+056700FM-12+999999999V0201401N999999999999N0000001N9+99999+99999102051ADDAY111999GF199999999091000251021999MD1710101+9999
0068380370999991971050300004+44233+056700FM-12+999999999V0209991C999999999999N0700001N9+99999+99999101881ADDAA199000091AY121999GF105991001001999999001011MD1710041+9999MW1021
0043380370999991971050521004+44233+056700FM-12+999999999V0209991C99999220001CN0700001N9+99999+99999101881ADDAY111999GF105991001001999999001021MW1031
0068380370999991971051018004+44233+056700FM-12+999999999V0209991C99999220001CN0500001N9+99999+99999101271ADDAA199000091AY101999GF104991001001999999001021MD1310101+9999MW1021
0057380370999991971051121004+44233+056700FM-12+999999999V0200801N99999007801CN0700001N9+99999+99999101471ADDAY121999GF106991061051008001999999MD1810141+9999MW1011
0057380370999991971051406004+44233+056700FM-12+999999999V0202501N99999220001CN0200001N9+99999+99999101561ADDAY101999GF101991001001999999001021MD1710061+9999MW1031
0068380370999991971051415004+44233+056700FM-12+999999999V0202701N99999220001CN0200001N9+99999+99999101221ADDAA199000091AY101999GF100991001001999999001001MD1710021+9999MW1021
0103380370999991971051418004+44233+056700FM-12+999999999V0209991C99999220001CN0700001N9+99999+99999101261ADDAA199000091AY101999GF100991001001999999001001MD1210041+9999MW1021EQDQ01+000062APCTENQ02+000002APC3  
0057380370999991971051518004+44233+056700FM-12+999999999V0201801N99999024001CN0200001N9+99999+99999100471ADDAY111999GF108991081001999999071001MD1710041+9999MW1021
0043380370999991971051521004+44233+056700FM-12+999999999V0209991C99999024001CN0200001N9+99999+99999100421ADDAY121999GF107991071001999999071001MW1021
0068380370999991971051712004+44233+056700FM-12+999999999V0203201N99999024001CN0200001N9+99999+99999101681ADDAA199000091AY121999GF107991071001999999071001MD1810031+9999MW1021
0051380370999991971051721004+44233+056700FM-12+999999999V0209991C99999220001CN0450001N9+99999+99999102091ADDAY121999GF199999001001999999001021MD1210151+9999
0057380370999991971051800004+44233+056700FM-12+999999999V0209991C99999220001CN0700001N9+99999+99999102171ADDAY111999GF100991001001999999001001MD1210081+9999MW1011
0057380370999991971051900004+44233+056700FM-12+999999999V0209991C99999220001CN0500001N9+99999+99999102171ADDAY111999GF100991001001999999001001MD1210011+9999MW1021
0043380370999991971051921004+44233+056700FM-12+999999999V0209991C99999220001CN0200001N9+99999+99999102541ADDAY101999GF100991001001999999001001MW1021
0057380370999991971052109004+44233+056700FM-12+999999999V0200901N99999220001CN0200001N9+99999+99999102541ADDAY101999GF100991001001999999001001MD1710261+9999MW1021
0057380370999991971052512004+44233+056700FM-12+999999999V0202701N99999220001CN0200001N9+99999+99999102541ADDAY101999GF100991001001999999001001MD1810181+9999MW1021
0123380370999991971053006004+44233+056700FM-12+999999999V0200901N99999220001CN0200001N9+99999+99999102541ADDAA199000091AJ100009199999999AY121999GF107991001001999999001021HL10009IA1009IA2999+01009KA1999N+01111MD1710061+9999MW1021
0068380370999991971053018004+44233+056700FM-12+999999999V0209999999999220001CN0200001N9+99999+99999101531ADDAA199000091AY121999GF107991001001999999001061MD1710081+9999MW1021
0043380370999991971053100004+44233+056700FM-12+999999999V0203601N99999024001CN0200001N9+99999+99999101521ADDAY121999GF107991071001999999071001MW1031
0057380370999991971053118004+44233+056700FM-12+999999999V0209991C99999024001CN0700001N9+99999+99999101401ADDAY121999GF107991071001999999071001MD1710011+9999MW1021
0081380370999991971060200004+44233+056700FM-12+999999999V0200701N99999220001CN0021001N9+99999+99999100511ADDAA199000091AY121999GF100991001001999999001001MD1710011+9999EQDQ01    993SCOTCV
0057380370999991971060206004+44233+056700FM-12+999999999V0203201N00411220001CN0200001N9+02501+00721100481ADDAY101999GF102991001001999999001021MD1810011+9999MW1021
0057380370999991971060212004+44233+056700FM-12+999999999V0203201N99999220001CN0200001N9+99999+99999100591ADDAY111999GF107991001001999999001021MD1310121+9999MW1021
0057380370999991971060306004+44233+056700FM-12+999999999V0200501N00821220001CN0200001N9+01781+00221100591ADDAY111999GF107991001001999999001021MD1210021+9999MW1031
0057380370999991971060418004+44233+056700FM-12+999999999V0209991C00001220001CN0700001N9+01611-00281101061ADDAY101999GF100991001001999999001001MD1310081+9999MW1021
0057380370999991971060421004+44233+056700FM-12+999999999V0209991C00001220001CN0700001N9+99999+99999101011ADDAY101999GF100991001001999999001001MD1810031+9999MW1021
0098380370999991971060500004+44233+056700FM-12+999999999V0209991C00001220001CN0700001N9+99999+99999101121ADDAA106999999AA299400091AY101999GF100991001001999999001001MD1310051+9999MW1021EQDQ01  99982PRCP06
0057380370999991971060512004+44233+056700FM-12+999999999V0209991C99999007801CN0200001N9+99999+99999100801ADDAY111999GF107991071021008001001001MD1710161+9999MW1031
0057380370999991971060518004+44233+056700FM-12+999999999V0200901N00411220001CN0700001N9+01721+00611101031ADDAY111999GF100991001001999999001001MD1210071+9999MW1021
0057380370999991971060521004+44233+056700FM-12+999999999V0209991C00001220001CN0700001N9+99999+99999100921ADDAY111999GF108991001001999999001091MD1210031+9999MW1021
0057380370999991971060606004+44233+056700FM-12+999999999V0200501N00621007801CN0200001N9+02391+00721100961ADDAY121999GF107991071051008001001001MD1810031+9999MW1021
0068380370999991971060718004+44233+056700FM-12+999999999V0209991C00001220001CN0700001N9+02001-00221101081ADDAA199000091AY101999GF100991001001999999001001MD1310111+9999MW1021
0057380370999991971060721004+44233+056700FM-12+999999999V0209991C00001220001CN0700001N9+99999+99999101101ADDAY101999GF100991001001999999001001MD1210081+9999MW1021
0057380370999991971060818004+44233+056700FM-12+999999999V0200901N00311220001CN0700001N9+02221+00111101481ADDAY101999GF100991001001999999001001MD1310081+9999MW1021
0057380370999991971061118004+44233+056700FM-12+999999999V0209991C00001220001CN0200001N9+02221+00501101481ADDAY101999GF102991001001999999001021MD1310011+9999MW1021
0087380370999991971061200004+44233+056700FM-12+999999999V0209991C00001220001CN0500001N9+99999+99999101481ADDAA199000091AY101999GF100991001001999999001001MD1510001+9999MW1021EQDQ01    993SCOTCV
0057380370999991971061521004+44233+056700FM-12+999999999V0209991C00001220001CN0700001N9+99999+99999100781ADDAY101999GF100991001001999999001001MD1810071+9999MW1021
0094380370999991971061718004+44233+056700FM-12+999999999V0209991C00001220001CN0200001N9+02001+00781100781ADDAA199000091AY101999GF100991001001999999001001KA1999M+02891MD1210121+9999EQDQ01    993SCOTCV
0057380370999991971061806004+44233+056700FM-12+999999999V0202701N00411007801CN0200001N9+02501+01111100781ADDAY111999GF105991051011008001001001MD1810041+9999MW1031
0057380370999991971061818004+44233+056700FM-12+999999999V0203401N00311220001CN0200001N9+02221+01111101051ADDAY101999GF102991001001999999011021MD1310121+9999MW1011
0057380370999991971061906004+44233+056700FM-12+999999999V0200501N00511007801CN0040001N9+01501+01501101131ADDAY161999GF108991081001008001021999MD1210011+9999MW1611
0092380370999991971061918004+44233+056700FM-12+999999999V0201401N00411220001CN0200001N9+01611+01111100811ADDAA106024091AA299006091AY111999GF100991001001999999001001KA1999M+02391MD1510001+9999MW1021
0043380370999991971061921004+44233+056700FM-12+999999999V0209991C00001220001CN0200001N9+99999+99999100881ADDAY101999GF100991001001999999001001MW1021
0068380370999991971062000004+44233+056700FM-12+999999999V0200901N00411220001CN0200001N9+99999+99999100911ADDAA199000091AY101999GF100991001001999999001001MD1210031+9999MW1021
0075380370999991971062018004+44233+056700FM-12+999999999V0209991C00001220001CN0700001N9+01891+00391100831ADDAA199000091AY111999GF100991001001999999001001KA1999M+02781MD1310031+9999
0081380370999991971062118004+44233+056700FM-12+999999999V0202301N00821220001CN0200001N9+02391+01111100831ADDAA199000091AY101999GF100991001001999999001001KA1999M+03281MD1310061+9999MW1021
0057380370999991971062206004+44233+056700FM-12+999999999V0200501N009819999999N0200001N9+02501+01221100461ADDAY111999GF105991021001999999081021MD1210131+9999MW1031
0062380370999991971062218004+44233+056700FM-12+999999999V0209991C00001220001CN0700001N9+02721+00611100731ADDAY111999GF100991001001999999001001MW1001EQDQ01    993SCOTCV
0068380370999991971062400004+44233+056700FM-12+999999999V0209991C00001220001CN0200001N9+99999+99999100731ADDAA199000091AY101999GF100991001001999999001001MD1810071+9999MW1021
0068380370999991971062500004+44233+056700FM-12+999999999V0209991C00001220001CN0700001N9+99999+99999100831ADDAA199000091AY111999GF101991011041008001001001MD1310081+9999MW1021
0057380370999991971062621004+44233+056700FM-12+999999999V0209991C00001220001CN0200001N9+99999+99999101261ADDAY101999GF100991001001999999001001MD1210111+9999MW1021
0057380370999991971062706004+44233+056700FM-12+999999999V0209991C00001220001CN0200001N9+02781+00721101111ADDAY101999GF100991001001999999001001MD1810061+9999MW1021
0057380370999991971062818004+44233+056700FM-12+999999999V0201101N00511007801CN0200001N9+02111+01001100951ADDAY121999GF106991061051008001001001MD1310011+9999MW1021
