0100723930999991972010100004+34717-120567SAO  +0112VBG  V0203101N004612200019N0240001N9+01501+00561101621ADDGF100991999999999999999999MA1101631100241MD1610141+9999REMAWY033CS E AND W-N/614 1008 RADAT 17090
0065723930999991972010101004+34717-120567SAO  +0112VBG  V0203401N002612200019N0240001N9+01331+00221101601ADDGF100991999999999999999999MA1101631100251REMAWY012CS E AND W-N
0065723930999991972010102004+34717-120567SAO  +0112VBG  V0200301N002612200019N0240001N9+01391-00171101601ADDGF100991999999999999999999MA1101631100251REMAWY012CS E AND W-N
0090723930999991972010103004+34717-120567SAO  +0112VBG  V0209991C000012200019N0160001N9+00941-00111101721ADDGF100991999999999999999999MA1101731100341MD1310101+9999REMAWY023CS E-S AND W-N/310 1008
0067723930999991972010104004+34717-120567SAO  +0112VBG  V0200901N002112200019N0160001N9+00721-00111101761ADDGF100991999999999999999999MA1101761100381REMAWY014CS E-S AND W-N
0059723930999991972010105004+34717-120567SAO  +0112VBG  V0209991C000012200019N0160001N9+00781+00001101831ADDGF100991999999999999999999MA1101831100451REMAWY006CS E-S
0083723930999991972010106004+34717-120567SAO  +0112VBG  V0201001N001012200019N0160001N9+00501-00171101871ADDGF100991999999999999999999MA1101861100511MD1210151+9999REMAWY016CS SE-S/215 1008
0060723930999991972010107004+34717-120567SAO  +0112VBG  V0201101N002112200019N0160001N9+00391-00221101951ADDGF100991999999999999999999MA1101931100551REMAWY007CS SE-S
0060723930999991972010108004+34717-120567SAO  +0112VBG  V0201201N002112200019N0160001N9+00561-00061101941ADDGF100991999999999999999999MA1101931100551REMAWY007CS SE-S
0081723930999991972010109004+34717-120567SAO  +0112VBG  V0200901N002112200019N0160001N9+00501-00061101891ADDGF100991999999999999999999MA1101901100511MD1010021+9999REMAWY014CS SE/002 1008
0058723930999991972010110004+34717-120567SAO  +0112VBG  V0201201N003112200019N0160001N9+00561-00111101941ADDGF100991999999999999999999MA1101931100551REMAWY005CS SE
0044723930999991972010111004+34717-120567SAO  +0112VBG  V0201001N003112200019N0160001N9+00561-00171101941ADDGF100991999999999999999999MA1101931100551
0082723930999991972010112004+34717-120567SAO  +0112VBG  V0201201N002112200019N0160001N9+00561-00221101941ADDGF100991999999999999999999MA1101931100581MD1110051+9999REMAWY015105 RADAT 17094
0057723930999991972010113004+34717-120567SAO  +0112VBG  V0201201N003112200019N0160001N9+00441-00221101951ADDGF100991999999999999999999MA1101931100551REMAWY004CS W
0044723930999991972010114004+34717-120567SAO  +0112VBG  V0200801N002612200019N0160001N9+00561-00281102021ADDGF100991999999999999999999MA1102001100621
0058723930999991972010115004+34717-120567SAO  +0112VBG  V0201301N002112200019N0160001N9+00501-00331102011ADDGF100991999999999999999999MA1102031100641MD1310071+9999
0060723930999991972010116004+34717-120567SAO  +0112VBG  V0200901N002112200019N0160001N9+00671-00281102041ADDGF100991999999999999999999MA1102031100651REMAWY007CS NW-N
0059723930999991972010117004+34717-120567SAO  +0112VBG  V0201301N001512200019N0240001N9+00941-00111102161ADDGF100991999999999999999999MA1102171100781REMAWY006CS W-N
0083723930999991972010118004+34717-120567SAO  +0112VBG  V0200901N001012200019N0240001N9+01281+00001102161ADDGF100991999999999999999999MA1102171100781MD1210151+9999REMAWY016CS W-NW/215 1008
0044723930999991972010119004+34717-120567SAO  +0112VBG  V0209991C000012200019N0240001N9+01561-00111102101ADDGF100991999999999999999999MA1102131100751
0044723930999991972010120004+34717-120567SAO  +0112VBG  V0202701N001512200019N0240001N9+01781+00281102021ADDGF100991999999999999999999MA1102071100681
0077723930999991972010121004+34717-120567SAO  +0112VBG  V0202801N002612200019N0240001N9+01611+00281102001ADDGF100991999999999999999999MA1102001100611MD1810171+9999REMAWY010H S-SW/817
0064723930999991972010122004+34717-120567SAO  +0112VBG  V0202501N002612200019N0240001N9+01441+00281101901ADDGF100991999999999999999999MA1101931100551REMAWY011CS N H S-SW
0067723930999991972010123004+34717-120567SAO  +0112VBG  V0202901N002112200019N0240001N9+01441+00281101901ADDGF100991999999999999999999MA1101931100551REMAWY014CS NW-N H S-SW
0102723930999991972010200004+34717-120567SAO  +0112VBG  V0202601N002112200019N0240001N9+01331+00501101941ADDGF100991999999999999999999MA1101931100581MD1610051+9999REMAWY035H S-SW CS NW-N/605 1008 RADAT 17117
0065723930999991972010201004+34717-120567SAO  +0112VBG  V0203001N001012200019N0160001N9+01111+00501101951ADDGF100991999999999999999999MA1101961100581REMAWY012H S-W CS W-N
0065723930999991972010202004+34717-120567SAO  +0112VBG  V0209991C000012200019N0160001N9+00891+00391102001ADDGF100991999999999999999999MA1102001100621REMAWY012H S-W CS W-N
0058723930999991972010203004+34717-120567SAO  +0112VBG  V0209991C000012200019N0160001N9+00721+00331102001ADDGF100991999999999999999999MA1102001100611MD1110051+9999
0044723930999991972010204004+34717-120567SAO  +0112VBG  V0201201N001512200019N0160001N9+00611+00221102071ADDGF100991999999999999999999MA1102071100681
0044723930999991972010205004+34717-120567SAO  +0112VBG  V0201101N001512200019N0160001N9+00611+00171102071ADDGF100991999999999999999999MA1102071100681
0058723930999991972010206004+34717-120567SAO  +0112VBG  V0201201N002112200019N0160001N9+00721+00391102061ADDGF100991999999999999999999MA1102071100681MD1110071+9999
0044723930999991972010207004+34717-120567SAO  +0112VBG  V0201101N003112200019N0160001N9+00721+00391102071ADDGF100991999999999999999999MA1102071100681
0044723930999991972010208004+34717-120567SAO  +0112VBG  V0201001N003612200019N0160001N9+00781+00331102001ADDGF100991999999999999999999MA1102001100621
0058723930999991972010209004+34717-120567SAO  +0112VBG  V0201201N004612200019N0160001N9+00831+00221101921ADDGF100991999999999999999999MA1101931100541MD1810141+9999
0044723930999991972010210004+34717-120567SAO  +0112VBG  V0200901N001512200019N0160001N9+00721+00171101971ADDGF100991999999999999999999MA1101961100581
0044723930999991972010211004+34717-120567SAO  +0112VBG  V0209991C000012200019N0160001N9+00611+00061101941ADDGF100991999999999999999999MA1101931100551
0082723930999991972010212004+34717-120567SAO  +0112VBG  V0201001N002612200019N0160001N9+00561-00061101891ADDGF100991999999999999999999MA1101901100511MD1810031+9999REMAWY015803 RADAT 18113
0044723930999991972010213004+34717-120567SAO  +0112VBG  V0209991C000012200019N0160001N9+00671+00001101811ADDGF100991999999999999999999MA1101801100421
0044723930999991972010214004+34717-120567SAO  +0112VBG  V0200301N001012200019N0160001N9+00671+00001101811ADDGF100991999999999999999999MA1101801100421
0058723930999991972010215004+34717-120567SAO  +0112VBG  V0200901N000512200019N0160001N9+00721+00001101751ADDGF100991999999999999999999MA1101761100371MD1610141+9999
0044723930999991972010216004+34717-120567SAO  +0112VBG  V0201001N001012200019N0160001N9+00781+00061101761ADDGF100991999999999999999999MA1101761100381
0058723930999991972010217004+34717-120567SAO  +0112VBG  V0201001N003112200019N0240001N9+01111+00221101751ADDGF100991999999999999999999MA1101761100381REMAWY005H W-N
0077723930999991972010218004+34717-120567SAO  +0112VBG  V0201101N001012200019N0240001N9+01441+00331101721ADDGF100991999999999999999999MA1101731100341MD1810031+9999REMAWY010H NW-N/803
0059723930999991972010219004+34717-120567SAO  +0112VBG  V0209991C000012200019N0240001N9+01831+00391101541ADDGF100991999999999999999999MA1101591100211REMAWY006H NW-N
0060723930999991972010220004+34717-120567SAO  +0112VBG  V0203101N002612200019N0192001N9+01671+00441101451ADDGF100991999999999999999999MA1101491100111REMAWY007H ALQDS
0078723930999991972010221004+34717-120567SAO  +0112VBG  V0203001N003612200019N0192001N9+01831+00331101311ADDGF100991999999999999999999MA1101321099931MD1810411+9999REMAWY011H ALQDS/841
0060723930999991972010222004+34717-120567SAO  +0112VBG  V0203001N003612200019N0192001N9+01671+00331101181ADDGF100991999999999999999999MA1101221099851REMAWY007H ALQDS
0060723930999991972010223004+34717-120567SAO  +0112VBG  V0203101N002612200019N0240001N9+01611+00501101111ADDGF100991999999999999999999MA1101151099781REMAWY007H ALQDS
0090723930999991972010300004+34717-120567SAO  +0112VBG  V0203301N004612200019N0240001N9+01441+00721101131ADDGF100991999999999999999999MA1101151099761MD1610171+9999REMAWY023H ALQDS/617 RADAT 25115
0060723930999991972010301004+34717-120567SAO  +0112VBG  V0203201N003112200019N0240001N9+01221+00721101031ADDGF100991999999999999999999MA1101051099681REMAWY007H ALQDS
0060723930999991972010302004+34717-120567SAO  +0112VBG  V0202901N002112200019N0160001N9+01111+00671100961ADDGF100991999999999999999999MA1100981099611REMAWY007H ALQDS
0058723930999991972010303004+34717-120567SAO  +0112VBG  V0209991C000012200019N0160001N9+01221+00441100931ADDGF100991999999999999999999MA1100951099561MD1710201+9999
0044723930999991972010304004+34717-120567SAO  +0112VBG  V0200101N004612200019N0160001N9+01331+00111100921ADDGF100991999999999999999999MA1100951099581
0052723930999991972010305004+34717-120567SAO  +0112VBG  V0200101N006712200019N0160001N9+01501-00061100951ADDGF100991999999999999999999MA1100981099611OC101031
0058723930999991972010306004+34717-120567SAO  +0112VBG  V0200101N005112200019N0160001N9+01441-00111100981ADDGF100991999999999999999999MA1100981099631MD1110051+9999
0044723930999991972010307004+34717-120567SAO  +0112VBG  V0200101N004612200019N0160001N9+01441-00221100921ADDGF100991999999999999999999MA1100951099581
0044723930999991972010308004+34717-120567SAO  +0112VBG  V0209991C000012200019N0160001N9+01221-00281100931ADDGF100991999999999999999999MA1100951099581
0058723930999991972010309004+34717-120567SAO  +0112VBG  V0203601N002612200019N0160001N9+01391-00331100871ADDGF100991999999999999999999MA1100881099531MD1810101+9999
0044723930999991972010310004+34717-120567SAO  +0112VBG  V0200201N001012200019N0160001N9+01061-00331100871ADDGF100991999999999999999999MA1100881099511
0044723930999991972010311004+34717-120567SAO  +0112VBG  V0203401N001012200019N0160001N9+01061-00331100871ADDGF100991999999999999999999MA1100881099511
0082723930999991972010312004+34717-120567SAO  +0112VBG  V0209991C000012200019N0160001N9+00441-00221100811ADDGF100991999999999999999999MA1100811099461MD1810071+9999REMAWY015807 RADAT 19109
0044723930999991972010313004+34717-120567SAO  +0112VBG  V0200301N001012200019N0160001N9+00611+00001100761ADDGF100991999999999999999999MA1100751099381
0044723930999991972010314004+34717-120567SAO  +0112VBG  V0201301N001012200019N0160001N9+00391-00111100801ADDGF100991999999999999999999MA1100781099411
0095723930999991972010315004+34717-120567SAO  +0112VBG  V0201501N001012200019N0160001N9+00331-00171100811ADDGF100991999999999999999999MA1100811099461MD1510001+9999REMAWY028CI NE-SE GF SSE-SSW/500 1002
0044723930999991972010316004+34717-120567SAO  +0112VBG  V0200201N003112200019N0240001N9+00941-00061100871ADDGF102991999999999999999999MA1100881099511
0044723930999991972010317004+34717-120567SAO  +0112VBG  V0200401N002112200019N0240001N9+01111-00061100931ADDGF102991999999999999999999MA1100951099581
0075723930999991972010318004+34717-120567SAO  +0112VBG  V0200601N003612200019N0240001N9+01391-00171100981ADDGF102991999999999999999999MA1100981099631MD1210171+9999REMAWY008217 1001
0059723930999991972010319004+34717-120567SAO  +0112VBG  V0201201N002112200019N0240001N9+01441+00111100951ADDGF100991999999999999999999MA1100981099611REMAWY006CI N-E
0059723930999991972010320004+34717-120567SAO  +0112VBG  V0200301N002112200019N0240001N9+01501+00001100921ADDGF100991999999999999999999MA1100951099581REMAWY006CI N-E
0058723930999991972010321004+34717-120567SAO  +0112VBG  V0202301N004612200019N0240001N9+01561+00331100911ADDGF100991999999999999999999MA1100911099561MD1810071+9999
0056723930999991972010322004+34717-120567SAO  +0112VBG  V0202501N004112200019N0192001N9+01391+00561100921ADDGF100991999999999999999999MA1100951099581REMAWY003H S
0062723930999991972010323004+34717-120567SAO  +0112VBG  V0202601N003112200019N0192001N9+01391+00441100991ADDGF100991999999999999999999MA1101021099651REMAWY009CS NW H S
0086723930999991972010400004+34717-120567SAO  +0112VBG  V0202801N002612200019N0192001N9+01391+00331101051ADDGF100991999999999999999999MA1101051099701MD1310141+9999REMAWY019H S/314 RADAT 15126
0044723930999991972010401004+34717-120567SAO  +0112VBG  V0203401N001512200019N0192001N9+01171+00391101131ADDGF100991999999999999999999MA1101151099781
0044723930999991972010402004+34717-120567SAO  +0112VBG  V0200301N000512200019N0160001N9+01001+00281101211ADDGF100991999999999999999999MA1101221099851
0058723930999991972010403004+34717-120567SAO  +0112VBG  V0209991C000012200019N0160001N9+00831+00171101271ADDGF100991999999999999999999MA1101291099901MD1110221+9999
0044723930999991972010404004+34717-120567SAO  +0112VBG  V0200801N001012200019N0160001N9+00611+00061101361ADDGF100991999999999999999999MA1101351099981
0044723930999991972010405004+34717-120567SAO  +0112VBG  V0201201N001012200019N0160001N9+00611+00111101471ADDGF100991999999999999999999MA1101461100081
0058723930999991972010406004+34717-120567SAO  +0112VBG  V0201001N001012200019N0160001N9+00391-00061101511ADDGF100991999999999999999999MA1101521100141MD1210241+9999
0044723930999991972010407004+34717-120567SAO  +0112VBG  V0201101N002612200019N0160001N9+00611+00171101601ADDGF100991999999999999999999MA1101591100211
0044723930999991972010408004+34717-120567SAO  +0112VBG  V0201101N001012200019N0160001N9+00501+00001101641ADDGF100991999999999999999999MA1101631100251
0058723930999991972010409004+34717-120567SAO  +0112VBG  V0201101N001012200019N0160001N9+00441-00061101691ADDGF100991999999999999999999MA1101691100301MD1210171+9999
0044723930999991972010410004+34717-120567SAO  +0112VBG  V0201101N002612200019N0160001N9+00561+00061101771ADDGF100991999999999999999999MA1101761100381
0044723930999991972010411004+34717-120567SAO  +0112VBG  V0201101N002612200019N0160001N9+00561+00061101841ADDGF100991999999999999999999MA1101831100451
0082723930999991972010412004+34717-120567SAO  +0112VBG  V0201201N001012200019N0160001N9+00391-00061101841ADDGF100991999999999999999999MA1101831100471MD1110151+9999REMAWY015115 RADAT 15118
0044723930999991972010413004+34717-120567SAO  +0112VBG  V0201201N002112200019N0160001N9+00441-00111101921ADDGF100991999999999999999999MA1101901100521
0044723930999991972010414004+34717-120567SAO  +0112VBG  V0201101N002612200019N0160001N9+00441-00111102051ADDGF100991999999999999999999MA1102031100651
0078723930999991972010415004+34717-120567SAO  +0112VBG  V0201101N002112200019N0160001N9+00391-00281102101ADDGF100991999999999999999999MA1102101100711MD1210251+9999REMAWY011H ALQDS/225
0060723930999991972010416004+34717-120567SAO  +0112VBG  V0201101N003112200019N0160001N9+00611-00171102251ADDGF100991999999999999999999MA1102241100851REMAWY007H ALQDS
0044723930999991972010417004+34717-120567SAO  +0112VBG  V0201001N002612200019N0192001N9+00891-00061102401ADDGF100991999999999999999999MA1102401101021
0058723930999991972010418004+34717-120567SAO  +0112VBG  V0201301N004112200019N0192001N9+01061+00061102511ADDGF100991999999999999999999MA1102511101121MD1210411+9999
0044723930999991972010419004+34717-120567SAO  +0112VBG  V0209991C000012200019N0192001N9+01331-00111102521ADDGF100991999999999999999999MA1102541101151
0044723930999991972010420004+34717-120567SAO  +0112VBG  V0202801N002112200019N0192001N9+01561+00331102401ADDGF100991999999999999999999MA1102441101051
0058723930999991972010421004+34717-120567SAO  +0112VBG  V0202801N003112200019N0192001N9+01501+00441102401ADDGF100991999999999999999999MA1102401101021MD1810101+9999
0044723930999991972010422004+34717-120567SAO  +0112VBG  V0202801N003612200019N0192001N9+01331+00441102381ADDGF100991999999999999999999MA1102401101021
0044723930999991972010423004+34717-120567SAO  +0112VBG  V0202901N004612200019N0192001N9+01281+00391102421ADDGF100991999999999999999999MA1102441101051
0082723930999991972010500004+34717-120567SAO  +0112VBG  V0203001N004112200019N0192001N9+01221+00561102461ADDGF100991999999999999999999MA1102471101081MD1110051+9999REMAWY015105 RADAT 23097
0044723930999991972010501004+34717-120567SAO  +0112VBG  V0203001N002112200019N0192001N9+01001+00391102471ADDGF100991999999999999999999MA1102471101091
0044723930999991972010502004+34717-120567SAO  +0112VBG  V0203401N002112200019N0192001N9+00891+00281102511ADDGF100991999999999999999999MA1102511101121
0058723930999991972010503004+34717-120567SAO  +0112VBG  V0203001N001012200019N0160001N9+00781+00331102511ADDGF100991999999999999999999MA1102511101121MD1310051+9999
0044723930999991972010504004+34717-120567SAO  +0112VBG  V0209991C000012200019N0160001N9+00561+00111102551ADDGF100991999999999999999999MA1102541101151
0044723930999991972010505004+34717-120567SAO  +0112VBG  V0201501N001512200019N0160001N9+00501+00111102531ADDGF100991999999999999999999MA1102511101121
0058723930999991972010506004+34717-120567SAO  +0112VBG  V0201101N002612200019N0160001N9+00501+00171102481ADDGF100991999999999999999999MA1102471101081MD1810031+9999
0044723930999991972010507004+34717-120567SAO  +0112VBG  V0201101N003612200019N0160001N9+00611+00221102521ADDGF100991999999999999999999MA1102511101121
0044723930999991972010508004+34717-120567SAO  +0112VBG  V0201101N002612200019N0160001N9+00611+00221102491ADDGF100991999999999999999999MA1102471101091
0058723930999991972010509004+34717-120567SAO  +0112VBG  V0201001N002112200019N0160001N9+00441+00111102491ADDGF100991999999999999999999MA1102511101121MD1210021+9999
0044723930999991972010510004+34717-120567SAO  +0112VBG  V0201101N003112200019N0160001N9+00391+00061102501ADDGF100991999999999999999999MA1102471101091
0044723930999991972010511004+34717-120567SAO  +0112VBG  V0200901N002112200019N0160001N9+00281-00061102471ADDGF100991999999999999999999MA1102441101051
0082723930999991972010512004+34717-120567SAO  +0112VBG  V0201201N001512200019N0160001N9+00171-00221102391ADDGF100991999999999999999999MA1102401101021MD1710101+9999REMAWY015710 RADAT 14107
0044723930999991972010513004+34717-120567SAO  +0112VBG  V0201101N003112200019N0160001N9+00331-00111102431ADDGF100991999999999999999999MA1102401101021
0044723930999991972010514004+34717-120567SAO  +0112VBG  V0209991C000012200019N0160001N9+00171-00281102471ADDGF100991999999999999999999MA1102441101051
0058723930999991972010515004+34717-120567SAO  +0112VBG  V0201101N002612200019N0160001N9+00111-00441102441ADDGF100991999999999999999999MA1102441101051MD1110051+9999
0044723930999991972010516004+34717-120567SAO  +0112VBG  V0201101N002112200019N0192001N9+00221-00331102541ADDGF100991999999999999999999MA1102511101121
0062723930999991972010517004+34717-120567SAO  +0112VBG  V0201401N002612200019N0240001N9+00671-00061102591ADDGF100991999999999999999999MA1102571101191REMAWY009SHLW GF S
0058723930999991972010518004+34717-120567SAO  +0112VBG  V0201401N002612200019N0240001N9+00941-00111102561ADDGF100991999999999999999999MA1102571101191MD1110121+9999
0058723930999991972010519004+34717-120567SAO  +0112VBG  V0201401N000512200019N0240001N9+01171-00171102521ADDGF100991999999999999999999MA1102541101151REMAWY005CI SE
0066723930999991972010520004+34717-120567SAO  +0112VBG  V0209991C000012200019N0240001N9+01441+00221102481ADDGF100991999999999999999999MA1102511101121REMAWY013CI N AND SE-S
0086723930999991972010521004+34717-120567SAO  +0112VBG  V0202601N002612200019N0240001N9+01331+00221102321ADDGF100991999999999999999999MA1102341100951MD1810241+9999REMAWY019CI N AND S/824 1001
0066723930999991972010522004+34717-120567SAO  +0112VBG  V0202701N002112200019N0240001N9+01331+00111102241ADDGF100991999999999999999999MA1102271100881REMAWY013CI N AND S-SW
0061723930999991972010523004+34717-120567SAO  +0112VBG  V0202901N001512200019N0240001N9+01331+00001102211ADDGF100991999999999999999999MA1102241100851REMAWY008CI SW-NW
0096723930999991972010600004+34717-120567SAO  +0112VBG  V0202601N001012200019N0240001N9+01331+00061102211ADDGF100991999999999999999999MA1102241100851MD1610101+9999REMAWY029CI SW-NW/610 1001 RADAT 15110
0062723930999991972010601004+34717-120567SAO  +0112VBG  V0209991C000012200019N0240001N9+01111+00111102191ADDGF100991999999999999999999MA1102201100821REMAWY009CI SW-W-N
0060723930999991972010602004+34717-120567SAO  +0112VBG  V0201401N001012200019N0160001N9+00611-00061102221ADDGF100991999999999999999999MA1102201100821REMAWY007CI SW-W
0058723930999991972010603004+34717-120567SAO  +0112VBG  V0201001N002112200019N0160001N9+00561-00111102201ADDGF100991999999999999999999MA1102201100811MD1610021+9999
0044723930999991972010604004+34717-120567SAO  +0112VBG  V0209991C000012200019N0160001N9+00671-00171102241ADDGF100991999999999999999999MA1102241100851
0044723930999991972010605004+34717-120567SAO  +0112VBG  V0201201N001512200019N0160001N9+00671-00171102271ADDGF100991999999999999999999MA1102271100881
0058723930999991972010606004+34717-120567SAO  +0112VBG  V0201201N002112200019N0160001N9+00671-00221102251ADDGF100991999999999999999999MA1102271100881MD1110051+9999
0044723930999991972010607004+34717-120567SAO  +0112VBG  V0201101N002612200019N0160001N9+00561-00111102281ADDGF100991999999999999999999MA1102271100881
0044723930999991972010608004+34717-120567SAO  +0112VBG  V0201201N002112200019N0160001N9+00611-00111102281ADDGF100991999999999999999999MA1102271100881
0058723930999991972010609004+34717-120567SAO  +0112VBG  V0201101N001012200019N0160001N9+00501-00171102211ADDGF100991999999999999999999MA1102241100851MD1810031+9999
0044723930999991972010610004+34717-120567SAO  +0112VBG  V0201101N003112200019N0160001N9+00611-00171102251ADDGF100991999999999999999999MA1102241100851
0044723930999991972010611004+34717-120567SAO  +0112VBG  V0201101N003112200019N0160001N9+00561-00281102221ADDGF100991999999999999999999MA1102201100821
0082723930999991972010612004+34717-120567SAO  +0112VBG  V0201001N002112200019N0160001N9+00561-00281102161ADDGF100991999999999999999999MA1102171100781MD1810051+9999REMAWY015805 RADAT 16111
0044723930999991972010613004+34717-120567SAO  +0112VBG  V0201201N004112200019N0160001N9+00561-00331102181ADDGF100991999999999999999999MA1102171100781
0044723930999991972010614004+34717-120567SAO  +0112VBG  V0201101N003112200019N0160001N9+00561-00331102151ADDGF100991999999999999999999MA1102131100751
0058723930999991972010615004+34717-120567SAO  +0112VBG  V0201101N002612200019N0160001N9+00501-00391102111ADDGF100991999999999999999999MA1102131100751MD1610051+9999
0057723930999991972010616004+34717-120567SAO  +0112VBG  V0201201N003112200019N0192001N9+00721-00331102171ADDGF100991999999999999999999MA1102171100781REMAWY004H NW
0058723930999991972010617004+34717-120567SAO  +0112VBG  V0201101N002612200019N0192001N9+01111-00171102191ADDGF100991999999999999999999MA1102201100821REMAWY005H NNW
0075723930999991972010618004+34717-120567SAO  +0112VBG  V0201301N002612200019N0192001N9+01441-00111102211ADDGF100991999999999999999999MA1102241100851MD1210101+9999REMAWY008H NW/210
0058723930999991972010619004+34717-120567SAO  +0112VBG  V0201201N000512200019N0192001N9+01781-00061102121ADDGF100991999999999999999999MA1102171100781REMAWY005CS SW
0058723930999991972010620004+34717-120567SAO  +0112VBG  V0202601N000512200019N0192001N9+02061-00331101941ADDGF100991999999999999999999MA1102001100621REMAWY005CS SW
0082723930999991972010621004+34717-120567SAO  +0112VBG  V0202601N001512200019N0192001N9+02111-00111101871ADDGF100991999999999999999999MA1101861100511MD1710341+9999REMAWY015CS S-W/734 1008
0044723930999991972010622004+34717-120567SAO  +0112VBG  V0202901N002612200019N0240001N9+02001-00111101771ADDGF102991999999999999999999MA1101831100451
0044723930999991972010623004+34717-120567SAO  +0112VBG  V0203001N002112200019N0240001N9+01941-00281101751ADDGF102991999999999999999999MA1101801100421
0075723930999991972010700004+34717-120567SAO  +0112VBG  V0203301N001512200019N0240001N9+01671-00111101821ADDGF102991999999999999999999MA1101831100441MD1510051+9999REMAWY008505 1006
0069723930999991972010701004+34717-120567SAO  +0112VBG  V0203301N001012200019N0240001N9+01281+00331101781ADDGF102991999999999999999999MA1101801100421REMAWY016RADAT 10106 0010
0044723930999991972010702004+34717-120567SAO  +0112VBG  V0209991C000012200019N0160001N9+00831+00061101831ADDGF102991999999999999999999MA1101831100451
0075723930999991972010703004+34717-120567SAO  +0112VBG  V0209991C000012200019N0160001N9+00721-00111101841ADDGF102991999999999999999999MA1101831100471MD1310021+9999REMAWY008302 1008
0044723930999991972010704004+34717-120567SAO  +0112VBG  V0209991C000012200019N0160001N9+00671-00061101871ADDGF102991999999999999999999MA1101861100481
0044723930999991972010705004+34717-120567SAO  +0112VBG  V0201101N001512200019N0160001N9+00611+00001101871ADDGF102991999999999999999999MA1101861100481
0075723930999991972010706004+34717-120567SAO  +0112VBG  V0201101N002612200019N0160001N9+00781-00061101871ADDGF102991999999999999999999MA1101861100511MD1110031+9999REMAWY008103 1008
0044723930999991972010707004+34717-120567SAO  +0112VBG  V0201101N003112200019N0160001N9+00891-00171101831ADDGF102991999999999999999999MA1101831100451
0044723930999991972010708004+34717-120567SAO  +0112VBG  V0203601N001512200019N0160001N9+00891-00171101831ADDGF102991999999999999999999MA1101831100451
0075723930999991972010709004+34717-120567SAO  +0112VBG  V0209991C000012200019N0160001N9+00561-00281101791ADDGF102991999999999999999999MA1101801100411MD1710081+9999REMAWY008708 1008
0044723930999991972010710004+34717-120567SAO  +0112VBG  V0201101N001512200019N0160001N9+00561-00221101771ADDGF102991999999999999999999MA1101761100381
0044723930999991972010711004+34717-120567SAO  +0112VBG  V0201201N001512200019N0160001N9+00721-00111101731ADDGF102991999999999999999999MA1101731100351
0087723930999991972010712004+34717-120567SAO  +0112VBG  V0201201N000512200019N0160001N9+00781-00171101691ADDGF102991999999999999999999MA1101691100301MD1710101+9999REMAWY020710 1008 RADAT 16100
0044723930999991972010713004+34717-120567SAO  +0112VBG  V0201101N001512200019N0160001N9+00831-00111101661ADDGF107991999999999999999999MA1101661100281
0044723930999991972010714004+34717-120567SAO  +0112VBG  V0201401N001012200019N0160001N9+00831-00111101631ADDGF107991999999999999999999MA1101631100251
0075723930999991972010715004+34717-120567SAO  +0112VBG  V0201301N000512200019N0160001N9+00561-00171101701ADDGF107991999999999999999999MA1101691100341MD1310021+9999REMAWY008302 1008
0044723930999991972010716004+34717-120567SAO  +0112VBG  V0201401N000512200019N0192001N9+00501-00171101751ADDGF107991999999999999999999MA1101731100351
0044723930999991972010717004+34717-120567SAO  +0112VBG  V0209991C000012200019N0240001N9+01001+00111101751ADDGF107991999999999999999999MA1101761100381
0075723930999991972010718004+34717-120567SAO  +0112VBG  V0202901N001012200019N0240001N9+01331+00111101841ADDGF102991999999999999999999MA1101831100471MD1310141+9999REMAWY008314 1088
0044723930999991972010719004+34717-120567SAO  +0112VBG  V0202701N002112200019N0240001N9+01441+00611101771ADDGF107991999999999999999999MA1101801100421
0044723930999991972010720004+34717-120567SAO  +0112VBG  V0202901N001512200019N0192001N9+01501+00671101701ADDGF107991999999999999999999MA1101731100351
0083723930999991972010721004+34717-120567SAO  +0112VBG  V0202601N003112200019N0192001N9+01331+00831101661ADDGF107991999999999999999999MA1101661100301MD1710171+9999REMAWY016H S-W-N/717 1088
0060723930999991972010722004+34717-120567SAO  +0112VBG  V0202801N002612200019N0160001N9+01391+00941101601ADDGF102991999999999999999999MA1101631100251REMAWY007H ALQDS
0060723930999991972010723004+34717-120567SAO  +0112VBG  V0202601N003112200019N0160001N9+01331+00891101601ADDGF107991999999999999999999MA1101631100251REMAWY007H ALQDS
0090723930999991972010800004+34717-120567SAO  +0112VBG  V0203001N002612200019N0160001N9+01221+00781101691ADDGF107991999999999999999999MA1101691100301MD1310021+9999REMAWY023SC S-W H ALQDS/302 1585
0089723930999991972010801004+34717-120567SAO  +0112VBG  V0203401N001012200019N0160001N9+01111+00671101681ADDGF107991999999999999999999MA1101691100321REMAWY036SC SE-SW-NW H ALQDS/RADAT 15096 2315
0072723930999991972010802004+34717-120567SAO  +0112VBG  V0209991C000012200019N0112001N9+00891+00611101651ADDGF107991999999999999999999MA1101661100281REMAWY019ST SE-SW-NW H ALQDS
0087723930999991972010803004+34717-120567SAO  +0112VBG  V0209991C000010012019N0016001N9+00721+00391101701ADDGF107991999999999999999999MA1101691100341MD1310021+9999REMAWY020R30VR60+ F4/302 1600
0064723930999991972010804004+34717-120567SAO  +0112VBG  V0209991C000010012019N0048001N9+00831+00501101731ADDGF107991999999999999999999MA1101731100351REMAWY011F1 VSBY NE1
0076723930999991972010805004+34717-120567SAO  +0112VBG  V0209991C000010012019N0048001N9+00831+00561101801ADDGF107991999999999999999999MA1101801100421REMAWY0230426 VCNTY VBG ?12 ?V-?
0075723930999991972010806004+34717-120567SAO  +0112VBG  V0209991C000010018019N0048001N9+00831+00561101821ADDGF107991999999999999999999MA1101831100441MD1210121+9999REMAWY008212 1600
0044723930999991972010807004+34717-120567SAO  +0112VBG  V0209991C000010024019N0048001N9+00831+00611101831ADDGF107991999999999999999999MA1101831100451
0061723930999991972010808004+34717-120567SAO  +0112VBG  V0209991C000010027019N0048001N9+00891+00611101801ADDGF108991999999999999999999MA1101801100421REMAWY008VSBY NE1
0075723930999991972010809004+34717-120567SAO  +0112VBG  V0209991C000010042019N0112001N9+00891+00611101801ADDGF107991999999999999999999MA1101801100441MD1710021+9999REMAWY008702 1500
0044723930999991972010810004+34717-120567SAO  +0112VBG  V0209991C000010042019N0112001N9+00891+00611101831ADDGF107991999999999999999999MA1101831100451
0044723930999991972010811004+34717-120567SAO  +0112VBG  V0209991C000010042019N0112001N9+00611+00391101841ADDGF107991999999999999999999MA1101831100451
0087723930999991972010812004+34717-120567SAO  +0112VBG  V0200701N001012200019N0112001N9+00561+00281101821ADDGF102991999999999999999999MA1101831100441MD1110021+9999REMAWY020102 1500 RADAT 19081
0044723930999991972010813004+34717-120567SAO  +0112VBG  V0200601N001012200019N0112001N9+00611+00391101811ADDGF102991999999999999999999MA1101801100421
0044723930999991972010814004+34717-120567SAO  +0112VBG  V0201001N001512200019N0112001N9+00441+00171101851ADDGF102991999999999999999999MA1101831100451
0075723930999991972010815004+34717-120567SAO  +0112VBG  V0200901N001510030019N0096001N9+00671+00391101891ADDGF107991999999999999999999MA1101901100511MD1310071+9999REMAWY008307 1500
0044723930999991972010816004+34717-120567SAO  +0112VBG  V0209991C000010030019N0112001N9+00781+00441102001ADDGF107991999999999999999999MA1102001100621
0055723930999991972010817004+34717-120567SAO  +0112VBG  V0200501N000512200019N0096001N9+00891+00561102061ADDGF110991999999999999999999MA1102071100681REMAWY002H5
0075723930999991972010818004+34717-120567SAO  +0112VBG  V0202801N002112200019N0112001N9+01061+00671102151ADDGF102991999999999999999999MA1102171100781MD1210251+9999REMAWY008225 1500
0060723930999991972010819004+34717-120567SAO  +0112VBG  V0203101N003112200019N0160001N9+01171+00611102121ADDGF100991999999999999999999MA1102131100751REMAWY007H ALQDS
0060723930999991972010820004+34717-120567SAO  +0112VBG  V0203001N003612200019N0160001N9+01221+00611102011ADDGF100991999999999999999999MA1102031100651REMAWY007H ALQDS
0078723930999991972010821004+34717-120567SAO  +0112VBG  V0203301N005712200019N0160001N9+01221+00611101971ADDGF100991999999999999999999MA1101961100611MD1810171+9999REMAWY011H ALQDS/817
0068723930999991972010822004+34717-120567SAO  +0112VBG  V0203101N005712200019N0160001N9+01331+00611101911ADDGF100991999999999999999999MA1101931100551OC100931REMAWY007H ALQDS
0071723930999991972010823004+34717-120567SAO  +0112VBG  V0203201N005112200019N0160001N9+01281+00721101911ADDGF100991999999999999999999MA1101931100551OC100821REMAWY010SC OMTNS S
0088723930999991972010900004+34717-120567SAO  +0112VBG  V0203201N006212200019N0160001N9+01221+00721101941ADDGF100991999999999999999999MA1101931100581MD1510031+9999REMAWY021SC S H ALQDS/503 1500
0082723930999991972010901004+34717-120567SAO  +0112VBG  V0203301N005112200019N0160001N9+01111+00721101951ADDGF100991999999999999999999MA1101961100581REMAWY029SC S H ALQDS RADAT 10085 0005
0065723930999991972010902004+34717-120567SAO  +0112VBG  V0203301N003112200019N0160001N9+01061+00721102051ADDGF100991999999999999999999MA1102071100681REMAWY012SC S H ALQDS
0058723930999991972010903004+34717-120567SAO  +0112VBG  V0203301N003112200019N0160001N9+01061+00721102061ADDGF100991999999999999999999MA1102071100681MD1110121+9999
0052723930999991972010904004+34717-120567SAO  +0112VBG  V0203301N003112200019N0160001N9+01061+00441102091ADDGF100991999999999999999999MA1102101100721OC100721
0044723930999991972010905004+34717-120567SAO  +0112VBG  V0203501N003112200019N0160001N9+01061+00171102121ADDGF100991999999999999999999MA1102131100751
0058723930999991972010906004+34717-120567SAO  +0112VBG  V0200101N004612200019N0160001N9+01111+00061102131ADDGF100991999999999999999999MA1102131100751MD1110071+9999
0044723930999991972010907004+34717-120567SAO  +0112VBG  V0200401N006212200019N0160001N9+01061+00061102121ADDGF100991999999999999999999MA1102131100751
0044723930999991972010908004+34717-120567SAO  +0112VBG  V0203201N002112200019N0160001N9+01061+00061102151ADDGF100991999999999999999999MA1102171100781
0058723930999991972010909004+34717-120567SAO  +0112VBG  V0203401N003112200019N0160001N9+01001+00061102161ADDGF100991999999999999999999MA1102171100781MD1310031+9999
0044723930999991972010910004+34717-120567SAO  +0112VBG  V0203601N006212200019N0160001N9+01111+00001102151ADDGF100991999999999999999999MA1102171100781
0044723930999991972010911004+34717-120567SAO  +0112VBG  V0200101N006212200019N0160001N9+01061-00061102121ADDGF100991999999999999999999MA1102131100751
0082723930999991972010912004+34717-120567SAO  +0112VBG  V0203501N003112200019N0160001N9+01001-00061102101ADDGF100991999999999999999999MA1102101100711MD1710071+9999REMAWY015707 RADAT 18091
0044723930999991972010913004+34717-120567SAO  +0112VBG  V0203601N003612200019N0160001N9+00941-00061102131ADDGF100991999999999999999999MA1102131100751
0044723930999991972010914004+34717-120567SAO  +0112VBG  V0200201N002112200019N0160001N9+01001-00061102131ADDGF100991999999999999999999MA1102131100751
0078723930999991972010915004+34717-120567SAO  +0112VBG  V0209991C000012200019N0160001N9+00781-00111102151ADDGF100991999999999999999999MA1102171100781MD1210051+9999REMAWY011H ALQDS/205
0060723930999991972010916004+34717-120567SAO  +0112VBG  V0209991C000012200019N0192001N9+00831-00061102271ADDGF100991999999999999999999MA1102271100881REMAWY007H ALQDS
0060723930999991972010917004+34717-120567SAO  +0112VBG  V0200101N003612200019N0240001N9+01171+00001102321ADDGF100991999999999999999999MA1102341100951REMAWY007H ALQDS
0086723930999991972010918004+34717-120567SAO  +0112VBG  V0200101N007712200019N0240001N9+01391+00001102341ADDGF100991999999999999999999MA1102341100951MD1110191+9999OC101131REMAWY011H ALQDS/119
0060723930999991972010919004+34717-120567SAO  +0112VBG  V0203201N006212200019N0240001N9+01441+00171102281ADDGF100991999999999999999999MA1102301100921REMAWY007H ALQDS
0044723930999991972010920004+34717-120567SAO  +0112VBG  V0203101N006212200019N0240001N9+01501+00281102131ADDGF100991999999999999999999MA1102171100781
0066723930999991972010921004+34717-120567SAO  +0112VBG  V0203201N006712200019N0240001N9+01501+00221102131ADDGF100991999999999999999999MA1102131100751MD1810201+9999OC101031
0052723930999991972010922004+34717-120567SAO  +0112VBG  V0203101N006712200019N0240001N9+01561+00281102071ADDGF100991999999999999999999MA1102101100721OC100981
0052723930999991972010923004+34717-120567SAO  +0112VBG  V0203201N006712200019N0240001N9+01391+00671102041ADDGF100991999999999999999999MA1102071100681OC101031
0090723930999991972011000004+34717-120567SAO  +0112VBG  V0203301N007212200019N0240001N9+01331+00721102061ADDGF100991999999999999999999MA1102071100681MD1610071+9999REMAWY023H ALQDS/607 RADAT 19106
0060723930999991972011001004+34717-120567SAO  +0112VBG  V0203101N004112200019N0240001N9+01171+00721102051ADDGF100991999999999999999999MA1102071100681REMAWY007H ALQDS
0060723930999991972011002004+34717-120567SAO  +0112VBG  V0203201N005112200019N0192001N9+01111+00721102091ADDGF100991999999999999999999MA1102101100721REMAWY007H ALQDS
0058723930999991972011003004+34717-120567SAO  +0112VBG  V0203301N003612200019N0160001N9+01001+00671102151ADDGF100991999999999999999999MA1102171100781MD1310081+9999
0044723930999991972011004004+34717-120567SAO  +0112VBG  V0203301N004112200019N0160001N9+01001+00501102161ADDGF100991999999999999999999MA1102171100781
0052723930999991972011005004+34717-120567SAO  +0112VBG  V0203501N003612200019N0160001N9+01171+00001102191ADDGF100991999999999999999999MA1102201100821OC100821
0058723930999991972011006004+34717-120567SAO  +0112VBG  V0203501N003112200019N0160001N9+01171-00111102201ADDGF100991999999999999999999MA1102201100811MD1210051+9999
0044723930999991972011007004+34717-120567SAO  +0112VBG  V0203601N002612200019N0160001N9+01221-00171102191ADDGF100991999999999999999999MA1102201100821
0044723930999991972011008004+34717-120567SAO  +0112VBG  V0203401N002112200019N0160001N9+01111-00221102251ADDGF100991999999999999999999MA1102271100881
0058723930999991972011009004+34717-120567SAO  +0112VBG  V0203601N005712200019N0160001N9+01171-00221102251ADDGF100991999999999999999999MA1102271100881MD1110051+9999
0044723930999991972011010004+34717-120567SAO  +0112VBG  V0200201N001512200019N0160001N9+01111-00221102251ADDGF100991999999999999999999MA1102271100881
0044723930999991972011011004+34717-120567SAO  +0112VBG  V0200201N003612200019N0160001N9+01111-00171102221ADDGF100991999999999999999999MA1102241100851
0082723930999991972011012004+34717-120567SAO  +0112VBG  V0200101N002612200019N0160001N9+01061-00221102211ADDGF100991999999999999999999MA1102241100851MD1610031+9999REMAWY015603 RADAT 29116
0044723930999991972011013004+34717-120567SAO  +0112VBG  V0203401N002112200019N0160001N9+00941+00111102201ADDGF100991999999999999999999MA1102201100821
0044723930999991972011014004+34717-120567SAO  +0112VBG  V0209991C000012200019N0160001N9+01001+00221102231ADDGF100991999999999999999999MA1102241100851
0058723930999991972011015004+34717-120567SAO  +0112VBG  V0203601N002612200019N0192001N9+01061-00111102201ADDGF100991999999999999999999MA1102201100811MD1710021+9999
0052723930999991972011016004+34717-120567SAO  +0112VBG  V0200201N007212200019N0192001N9+01281-00171102241ADDGF100991999999999999999999MA1102271100881OC101131
0052723930999991972011017004+34717-120567SAO  +0112VBG  V0200101N006712200019N0192001N9+01391-00111102281ADDGF100991999999999999999999MA1102301100921OC100931
0066723930999991972011018004+34717-120567SAO  +0112VBG  V0200101N007712200019N0192001N9+01501-00061102341ADDGF100991999999999999999999MA1102341100951MD1210141+9999OC101031
0052723930999991972011019004+34717-120567SAO  +0112VBG  V0200101N005712200019N0192001N9+01781+00221102291ADDGF100991999999999999999999MA1102341100951OC100821
0044723930999991972011020004+34717-120567SAO  +0112VBG  V0203201N004112200019N0192001N9+01721+00281102191ADDGF100991999999999999999999MA1102241100851
0066723930999991972011021004+34717-120567SAO  +0112VBG  V0203201N006212200019N0192001N9+01781+00391102151ADDGF100991999999999999999999MA1102171100781MD1810191+9999OC100871
0052723930999991972011022004+34717-120567SAO  +0112VBG  V0203301N006212200019N0240001N9+01781+00391102061ADDGF100991999999999999999999MA1102101100721OC100871
0052723930999991972011023004+34717-120567SAO  +0112VBG  V0203301N006712200019N0240001N9+01671+00611102021ADDGF100991999999999999999999MA1102071100681OC100931
0090723930999991972011100004+34717-120567SAO  +0112VBG  V0203401N005112200019N0192001N9+01671+00561102101ADDGF100991999999999999999999MA1102101100711MD1510051+9999OC100771REMAWY015505 RADAT 18099
0052723930999991972011101004+34717-120567SAO  +0112VBG  V0200101N005112200019N0192001N9+01561+00171102131ADDGF100991999999999999999999MA1102171100781OC100821
0044723930999991972011102004+34717-120567SAO  +0112VBG  V0200101N005112200019N0160001N9+01611-00061102171ADDGF100991999999999999999999MA1102201100821
0066723930999991972011103004+34717-120567SAO  +0112VBG  V0200101N006212200019N0160001N9+01561-00111102241ADDGF100991999999999999999999MA1102241100851MD1210141+9999OC100871
0052723930999991972011104004+34717-120567SAO  +0112VBG  V0200201N007212200019N0160001N9+01561-00171102271ADDGF100991999999999999999999MA1102301100921OC101031
0052723930999991972011105004+34717-120567SAO  +0112VBG  V0200201N005112200019N0160001N9+01501-00171102301ADDGF100991999999999999999999MA1102341100951OC100821
0058723930999991972011106004+34717-120567SAO  +0112VBG  V0203001N003112200019N0160001N9+01171-00171102371ADDGF100991999999999999999999MA1102371100981MD1210141+9999
0044723930999991972011107004+34717-120567SAO  +0112VBG  V0203401N003112200019N0160001N9+01221-00061102321ADDGF100991999999999999999999MA1102341100951
0044723930999991972011108004+34717-120567SAO  +0112VBG  V0203401N004112200019N0160001N9+01281+00061102311ADDGF100991999999999999999999MA1102341100951
0058723930999991972011109004+34717-120567SAO  +0112VBG  V0200201N002112200019N0160001N9+01331-00061102321ADDGF100991999999999999999999MA1102341100951MD1610051+9999
0044723930999991972011110004+34717-120567SAO  +0112VBG  V0200401N001012200019N0160001N9+01111-00061102361ADDGF100991999999999999999999MA1102371100991
0044723930999991972011111004+34717-120567SAO  +0112VBG  V0203501N004112200019N0160001N9+01221-00061102291ADDGF100991999999999999999999MA1102301100921
0082723930999991972011112004+34717-120567SAO  +0112VBG  V0203501N005112200019N0160001N9+01221-00061102321ADDGF100991999999999999999999MA1102341100951MD1010001+9999REMAWY015000 RADAT 22096
0044723930999991972011113004+34717-120567SAO  +0112VBG  V0209991C000012200019N0160001N9+01171-00111102251ADDGF100991999999999999999999MA1102271100881
0044723930999991972011114004+34717-120567SAO  +0112VBG  V0203601N003612200019N0160001N9+01171-00061102291ADDGF100991999999999999999999MA1102301100921
0058723930999991972011115004+34717-120567SAO  +0112VBG  V0203301N002112200019N0160001N9+01061-00061102371ADDGF100991999999999999999999MA1102371100981MD1310051+9999
0044723930999991972011116004+34717-120567SAO  +0112VBG  V0209991C000012200019N0160001N9+01001+00061102401ADDGF100991999999999999999999MA1102401101021
0044723930999991972011117004+34717-120567SAO  +0112VBG  V0200501N000512200019N0192001N9+01391+00061102411ADDGF100991999999999999999999MA1102441101051
0066723930999991972011118004+34717-120567SAO  +0112VBG  V0203601N005712200019N0192001N9+01561+00111102441ADDGF100991999999999999999999MA1102441101051MD1110071+9999OC100821
0044723930999991972011119004+34717-120567SAO  +0112VBG  V0203301N003612200019N0192001N9+01671+00221102401ADDGF100991999999999999999999MA1102441101051
0052723930999991972011120004+34717-120567SAO  +0112VBG  V0203301N006212200019N0192001N9+01671+00221102301ADDGF100991999999999999999999MA1102341100951OC100871
0066723930999991972011121004+34717-120567SAO  +0112VBG  V0203201N005712200019N0192001N9+01721+00281102251ADDGF100991999999999999999999MA1102271100881MD1810191+9999OC100821
0052723930999991972011122004+34717-120567SAO  +0112VBG  V0203301N006212200019N0192001N9+01611+00561102171ADDGF102991999999999999999999MA1102201100821OC100931
0052723930999991972011123004+34717-120567SAO  +0112VBG  V0203301N005112200019N0192001N9+01611+00561102071ADDGF102991999999999999999999MA1102101100721OC100821
0095723930999991972011200004+34717-120567SAO  +0112VBG  V0203301N004612200019N0192001N9+01441+00941102101ADDGF102991999999999999999999MA1102101100711MD1610151+9999OC100721REMAWY020615 1008 RADAT 14120
0061723930999991972011201004+34717-120567SAO  +0112VBG  V0203401N005112200019N0160001N9+01221+01111102081ADDGF107991999999999999999999MA1102101100721REMAWY008GF S-W-N
0069723930999991972011202004+34717-120567SAO  +0112VBG  V0203401N004612200019N0128001N9+01111+01111102151ADDGF102991999999999999999999MA1102171100781REMAWY016SC S-SW GF SW-NW
0084723930999991972011203004+34717-120567SAO  +0112VBG  V0203401N005112200019N0112001N9+01111+01061102161ADDGF102991999999999999999999MA1102171100781MD1310071+9999REMAWY017GF S-W-N/307 1008
0061723930999991972011204004+34717-120567SAO  +0112VBG  V0203301N003112200019N0112001N9+01061+01001102151ADDGF102991999999999999999999MA1102171100781REMAWY008GF S-W-N
0061723930999991972011205004+34717-120567SAO  +0112VBG  V0203401N004612200019N0112001N9+01111+01001102151ADDGF102991999999999999999999MA1102171100781REMAWY008GF S-W-N
0079723930999991972011206004+34717-120567SAO  +0112VBG  V0200201N005712200019N0160001N9+01331+00561102081ADDGF100991999999999999999999MA1102101100711MD1810081+9999REMAWY012GF S-W-N/808
0044723930999991972011207004+34717-120567SAO  +0112VBG  V0203501N005112200019N0160001N9+01281-00171102041ADDGF100991999999999999999999MA1102071100681
0044723930999991972011208004+34717-120567SAO  +0112VBG  V0203601N005112200019N0160001N9+01331-00111102041ADDGF100991999999999999999999MA1102071100681
0058723930999991972011209004+34717-120567SAO  +0112VBG  V0203201N003612200019N0160001N9+01221+00111102051ADDGF100991999999999999999999MA1102071100681MD1610031+9999
0044723930999991972011210004+34717-120567SAO  +0112VBG  V0203601N004112200019N0160001N9+01221-00111102011ADDGF100991999999999999999999MA1102031100651
0044723930999991972011211004+34717-120567SAO  +0112VBG  V0200101N002112200019N0160001N9+01171-00061101951ADDGF100991999999999999999999MA1101961100581
0082723930999991972011212004+34717-120567SAO  +0112VBG  V0203401N003612200019N0160001N9+01171+00111101971ADDGF100991999999999999999999MA1101961100611MD1610071+9999REMAWY015607 RADAT 33125
0044723930999991972011213004+34717-120567SAO  +0112VBG  V0203101N002612200019N0160001N9+00891+00221101931ADDGF100991999999999999999999MA1101931100551
0044723930999991972011214004+34717-120567SAO  +0112VBG  V0203601N002112200019N0160001N9+01171+00171101911ADDGF100991999999999999999999MA1101931100551
0075723930999991972011215004+34717-120567SAO  +0112VBG  V0203401N002612200019N0160001N9+00831+00331101971ADDGF107991999999999999999999MA1101961100611MD1510001+9999REMAWY008500 1006
0044723930999991972011216004+34717-120567SAO  +0112VBG  V0203401N002112200019N0160001N9+00941+00281101961ADDGF107991999999999999999999MA1101961100581
0044723930999991972011217004+34717-120567SAO  +0112VBG  V0203601N004112200019N0192001N9+01221+00391102011ADDGF107991999999999999999999MA1102031100651
0083723930999991972011218004+34717-120567SAO  +0112VBG  V0203301N005112200019N0192001N9+01281+00441102051ADDGF108991999999999999999999MA1102071100681MD1310071+9999OC100771REMAWY008307 1007
0052723930999991972011219004+34717-120567SAO  +0112VBG  V0203301N005112200019N0192001N9+01391+00561102011ADDGF108991999999999999999999MA1102031100651OC100771
0064723930999991972011220004+34717-120567SAO  +0112VBG  V0203201N005112200019N0192001N9+01501+00611101901ADDGF108991999999999999999999MA1101931100551REMAWY011WND 300V340
0083723930999991972011221004+34717-120567SAO  +0112VBG  V0203101N005112200019N0192001N9+01561+00671101801ADDGF108991999999999999999999MA1101801100441MD1810241+9999OC100771REMAWY008824 1007
0052723930999991972011222004+34717-120567SAO  +0112VBG  V0203301N005712200019N0192001N9+01561+00721101691ADDGF107991999999999999999999MA1101731100351OC100821
0066723930999991972011223004+34717-120567SAO  +0112VBG  V0203201N006212200019N0192001N9+01441+00781101671ADDGF107991999999999999999999MA1101691100321OC100871REMAWY005H W-N
0101723930999991972011300004+34717-120567SAO  +0112VBG  V0203301N004612200019N0192001N9+01391+00781101641ADDGF107991999999999999999999MA1101631100271MD1710171+9999OC100721REMAWY026H W-N/717 1008 RADAT 20127
0044723930999991972011301004+34717-120567SAO  +0112VBG  V0203501N004112200019N0192001N9+01391+00721101601ADDGF107991999999999999999999MA1101631100251
0044723930999991972011302004+34717-120567SAO  +0112VBG  V0203601N003112200019N0160001N9+01331+00671101601ADDGF107991999999999999999999MA1101631100251
0075723930999991972011303004+34717-120567SAO  +0112VBG  V0200201N002112200019N0160001N9+01281+00501101651ADDGF107991999999999999999999MA1101661100271MD1310021+9999REMAWY008302 1008
0044723930999991972011304004+34717-120567SAO  +0112VBG  V0209991C000012200019N0160001N9+01001+00501101721ADDGF107991999999999999999999MA1101731100351
0044723930999991972011305004+34717-120567SAO  +0112VBG  V0203501N004112200019N0160001N9+01001+00501101621ADDGF107991999999999999999999MA1101631100251
0075723930999991972011306004+34717-120567SAO  +0112VBG  V0203601N005112200019N0160001N9+01171+00501101651ADDGF107991999999999999999999MA1101661100271MD1010001+9999REMAWY008000 1006
0044723930999991972011307004+34717-120567SAO  +0112VBG  V0203501N001012200019N0160001N9+01171+00501101641ADDGF107991999999999999999999MA1101661100281
0044723930999991972011308004+34717-120567SAO  +0112VBG  V0203201N002612200019N0160001N9+01061+00501101581ADDGF102991999999999999999999MA1101591100211
0058723930999991972011309004+34717-120567SAO  +0112VBG  V0203101N003112200019N0160001N9+01001+00671101601ADDGF100991999999999999999999MA1101591100241MD1510051+9999
0044723930999991972011310004+34717-120567SAO  +0112VBG  V0203401N001012200019N0160001N9+00941+00721101551ADDGF102991999999999999999999MA1101561100181
0044723930999991972011311004+34717-120567SAO  +0112VBG  V0200101N005112200019N0160001N9+01111+00561101541ADDGF102991999999999999999999MA1101561100181
0087723930999991972011312004+34717-120567SAO  +0112VBG  V0200101N004112200019N0160001N9+01171+00501101501ADDGF102991999999999999999999MA1101491100141MD1710101+9999REMAWY020710 1008 RADAT 26127
0044723930999991972011313004+34717-120567SAO  +0112VBG  V0203501N006212200019N0160001N9+01171+00441101441ADDGF102991999999999999999999MA1101461100081
0044723930999991972011314004+34717-120567SAO  +0112VBG  V0203501N002612200019N0160001N9+01001+00561101481ADDGF102991999999999999999999MA1101491100111
0075723930999991972011315004+34717-120567SAO  +0112VBG  V0203001N001012200019N0160001N9+00891+00501101531ADDGF102991999999999999999999MA1101521100171MD1310031+9999REMAWY008303 1008
0044723930999991972011316004+34717-120567SAO  +0112VBG  V0203601N005112200019N0160001N9+01221+00561101511ADDGF102991999999999999999999MA1101521100151
0044723930999991972011317004+34717-120567SAO  +0112VBG  V0203501N001012200019N0192001N9+01391+00671101561ADDGF102991999999999999999999MA1101591100211
0083723930999991972011318004+34717-120567SAO  +0112VBG  V0203201N004112200019N0240001N9+01441+00721101661ADDGF100991999999999999999999MA1101661100301MD1310141+9999REMAWY016CI N-NE/314 1001
0059723930999991972011319004+34717-120567SAO  +0112VBG  V0203301N004112200019N0240001N9+01561+00831101621ADDGF100991999999999999999999MA1101661100281REMAWY006CI N-E
0059723930999991972011320004+34717-120567SAO  +0112VBG  V0202701N004612200019N0240001N9+01721+00891101511ADDGF100991999999999999999999MA1101561100181REMAWY006CI N-E
0082723930999991972011321004+34717-120567SAO  +0112VBG  V0203201N006212200019N0240001N9+01721+00781101451ADDGF100991999999999999999999MA1101461100071MD1810221+9999REMAWY015CI N-E/822 1001
0063723930999991972011322004+34717-120567SAO  +0112VBG  V0203301N005112200019N0240001N9+01611+00831101391ADDGF100991999999999999999999MA1101421100051REMAWY010CI N AND E
0063723930999991972011323004+34717-120567SAO  +0112VBG  V0203201N003612200019N0240001N9+01611+00891101351ADDGF100991999999999999999999MA1101391100011REMAWY010CI N AND E
0098723930999991972011400004+34717-120567SAO  +0112VBG  V0203201N003612200019N0240001N9+01561+00891101401ADDGF100991999999999999999999MA1101391100031MD1610051+9999REMAWY031CI N AND E/605 1001 RADAT 14130
0062723930999991972011401004+34717-120567SAO  +0112VBG  V0202901N001512200019N0240001N9+01561+00781101351ADDGF100991999999999999999999MA1101391100011REMAWY009CI N-E-SE
0067723930999991972011402004+34717-120567SAO  +0112VBG  V0203301N001512200019N0192001N9+01441+00391101431ADDGF100991999999999999999999MA1101461100081REMAWY014CI OVHD AND SE
0058723930999991972011403004+34717-120567SAO  +0112VBG  V0203501N002612200019N0192001N9+01441+00331101501ADDGF100991999999999999999999MA1101491100141MD1310101+9999
0044723930999991972011404004+34717-120567SAO  +0112VBG  V0203601N002112200019N0160001N9+01391+00281101501ADDGF100991999999999999999999MA1101521100151
0044723930999991972011405004+34717-120567SAO  +0112VBG  V0200601N002112200019N0160001N9+01331+00331101501ADDGF100991999999999999999999MA1101521100151
0058723930999991972011406004+34717-120567SAO  +0112VBG  V0209991C000012200019N0160001N9+01061+00331101601ADDGF100991999999999999999999MA1101591100241MD1310101+9999
0044723930999991972011407004+34717-120567SAO  +0112VBG  V0200501N001512200019N0160001N9+01061+00331101651ADDGF100991999999999999999999MA1101661100281
0044723930999991972011408004+34717-120567SAO  +0112VBG  V0209991C000012200019N0160001N9+00831+00331101701ADDGF100991999999999999999999MA1101691100321
0058723930999991972011409004+34717-120567SAO  +0112VBG  V0200601N001012200019N0160001N9+00561+00171101721ADDGF100991999999999999999999MA1101731100341MD1210121+9999
0044723930999991972011410004+34717-120567SAO  +0112VBG  V0200601N000512200019N0160001N9+00561+00221101771ADDGF100991999999999999999999MA1101761100381
0060723930999991972011411004+34717-120567SAO  +0112VBG  V0201101N000512200019N0160001N9+00501+00281101781ADDGF100991999999999999999999MA1101761100381REMAWY007GF NE-E
0090723930999991972011412004+34717-120567SAO  +0112VBG  V0209991C000012200019N0160001N9+00561+00221101761ADDGF100991999999999999999999MA1101761100411MD1110051+9999REMAWY023GF NE-E/105 RADAT 27117
0060723930999991972011413004+34717-120567SAO  +0112VBG  V0209991C000012200019N0160001N9+00441+00171101821ADDGF100991999999999999999999MA1101801100421REMAWY007GF NE-E
0060723930999991972011414004+34717-120567SAO  +0112VBG  V0201101N001012200019N0160001N9+00441+00221101851ADDGF100991999999999999999999MA1101831100451REMAWY007GF NE-E
0092723930999991972011415004+34717-120567SAO  +0112VBG  V0201101N001512200019N0160001N9+00441+00281101871ADDGF100991999999999999999999MA1101861100511MD1210101+9999REMAWY025ST SE GF N AND S/210 1600
0061723930999991972011416004+34717-120567SAO  +0112VBG  V0209991C000012200019N0160001N9+00671+00441101941ADDGF100991999999999999999999MA1101931100551REMAWY008GF S-W-N
0061723930999991972011417004+34717-120567SAO  +0112VBG  V0209991C000012200019N0240001N9+01061+00611101991ADDGF100991999999999999999999MA1102001100621REMAWY008GF S-W-N
0080723930999991972011418004+34717-120567SAO  +0112VBG  V0209991C000012200019N0240001N9+01281+00721102051ADDGF100991999999999999999999MA1102071100681MD1210171+9999REMAWY013GF S-W-NW/217
0063723930999991972011419004+34717-120567SAO  +0112VBG  V0202301N002112200019N0240001N9+01501+00891102031ADDGF100991999999999999999999MA1102071100681REMAWY010HGF S-W-NW
0061723930999991972011420004+34717-120567SAO  +0112VBG  V0202601N001012200019N0160001N9+01561+01001101931ADDGF100991999999999999999999MA1101961100581REMAWY008KH ALQDS
0079723930999991972011421004+34717-120567SAO  +0112VBG  V0202701N003112200019N0160001N9+01611+00941101921ADDGF100991999999999999999999MA1101931100541MD1810121+9999REMAWY012KH ALQDS/812
0061723930999991972011422004+34717-120567SAO  +0112VBG  V0202901N002612200019N0096001N9+01391+01001101901ADDGF100991999999999999999999MA1101931100551REMAWY008VSBY NW3
0065723930999991972011423004+34717-120567SAO  +0112VBG  V0203001N001512200019N0096001N9+01391+00891101901ADDGF100991999999999999999999MA1101931100551REMAWY012VSBY WSW-NW3
0106723930999991972011500004+34717-120567SAO  +0112VBG  V0202901N001012200019N0128001N9+01391+00831102001ADDGF100991999999999999999999MA1102001100611MD1310071+9999REMAWY039VSBY LWR SW-NW KH ALQDS/307 RADAT 17119
0061723930999991972011501004+34717-120567SAO  +0112VBG  V0209991C000012200019N0128001N9+01331+00781101981ADDGF100991999999999999999999MA1102001100621REMAWY008HK ALQDS
0061723930999991972011502004+34717-120567SAO  +0112VBG  V0209991C000012200019N0160001N9+01061+00721101991ADDGF100991999999999999999999MA1102001100621REMAWY008HK ALQDS
0079723930999991972011503004+34717-120567SAO  +0112VBG  V0209991C000012200019N0160001N9+01061+00781102051ADDGF100991999999999999999999MA1102071100681MD1310051+9999REMAWY012HK ALQDS/305
0060723930999991972011504004+34717-120567SAO  +0112VBG  V0209991C000012200019N0160001N9+00891+00671102101ADDGF100991999999999999999999MA1102101100721REMAWY007H ALQDS
0044723930999991972011505004+34717-120567SAO  +0112VBG  V0209991C000012200019N0160001N9+00891+00671102131ADDGF100991999999999999999999MA1102131100751
0058723930999991972011506004+34717-120567SAO  +0112VBG  V0209991C000012200019N0160001N9+00941+00671102131ADDGF100991999999999999999999MA1102131100751MD1110081+9999
0044723930999991972011507004+34717-120567SAO  +0112VBG  V0200601N000512200019N0160001N9+00721+00501102141ADDGF100991999999999999999999MA1102131100751
0044723930999991972011508004+34717-120567SAO  +0112VBG  V0201201N002612200019N0160001N9+00891+00721102101ADDGF100991999999999999999999MA1102101100721
0058723930999991972011509004+34717-120567SAO  +0112VBG  V0201001N002612200019N0160001N9+00831+00671102061ADDGF100991999999999999999999MA1102071100681MD1810071+9999
0044723930999991972011510004+34717-120567SAO  +0112VBG  V0201201N001512200019N0160001N9+00891+00611102101ADDGF100991999999999999999999MA1102101100721
0044723930999991972011511004+34717-120567SAO  +0112VBG  V0201201N002612200019N0160001N9+00891+00611102131ADDGF100991999999999999999999MA1102131100751
0082723930999991972011512004+34717-120567SAO  +0112VBG  V0201001N002112200019N0160001N9+00891+00561102131ADDGF100991999999999999999999MA1102131100751MD1210071+9999REMAWY015207 RADAT 19107
0044723930999991972011513004+34717-120567SAO  +0112VBG  V0201101N002112200019N0160001N9+00891+00441102131ADDGF100991999999999999999999MA1102131100751
0044723930999991972011514004+34717-120567SAO  +0112VBG  V0201001N002612200019N0160001N9+00831+00441102211ADDGF100991999999999999999999MA1102201100821
0081723930999991972011515004+34717-120567SAO  +0112VBG  V0201101N002612200019N0160001N9+00941+00391102211ADDGF100991999999999999999999MA1102241100851MD1310081+9999REMAWY014GF N AND S/308
0063723930999991972011516004+34717-120567SAO  +0112VBG  V0200901N000512200019N0160001N9+01001+00331102261ADDGF100991999999999999999999MA1102271100881REMAWY010GF N AND S
0062723930999991972011517004+34717-120567SAO  +0112VBG  V0201001N001512200019N0320001N9+01391+00501102281ADDGF100991999999999999999999MA1102301100921REMAWY009SHLW GF S
0058723930999991972011518004+34717-120567SAO  +0112VBG  V0201301N001512200019N0320001N9+01721+00561102341ADDGF100991999999999999999999MA1102341100951MD1210121+9999
0044723930999991972011519004+34717-120567SAO  +0112VBG  V0209991C000012200019N0320001N9+02061+00611102281ADDGF100991999999999999999999MA1102341100951
0044723930999991972011520004+34717-120567SAO  +0112VBG  V0202301N001012200019N0320001N9+02111+00671102171ADDGF100991999999999999999999MA1102241100851
0058723930999991972011521004+34717-120567SAO  +0112VBG  V0202401N001512200019N0320001N9+02171+00561102101ADDGF100991999999999999999999MA1102101100711MD1810241+9999
0044723930999991972011522004+34717-120567SAO  +0112VBG  V0202401N002612200019N0320001N9+02061+00611102001ADDGF100991999999999999999999MA1102071100681
0044723930999991972011523004+34717-120567SAO  +0112VBG  V0202701N002612200019N0320001N9+02001+00501102011ADDGF100991999999999999999999MA1102071100681
0082723930999991972011600004+34717-120567SAO  +0112VBG  V0202501N002112200019N0320001N9+01781+00561102051ADDGF100991999999999999999999MA1102071100681MD1610051+9999REMAWY015605 RADAT 16112
0044723930999991972011601004+34717-120567SAO  +0112VBG  V0202901N001012200019N0320001N9+01611+00561102031ADDGF100991999999999999999999MA1102071100681
0044723930999991972011602004+34717-120567SAO  +0112VBG  V0203501N000512200019N0240001N9+01281+00391102081ADDGF100991999999999999999999MA1102101100721
0058723930999991972011603004+34717-120567SAO  +0112VBG  V0201201N001512200019N0192001N9+00941+00331102101ADDGF100991999999999999999999MA1102101100711MD1310051+9999
0044723930999991972011604004+34717-120567SAO  +0112VBG  V0201301N001012200019N0160001N9+00941+00391102061ADDGF100991999999999999999999MA1102071100681
0044723930999991972011605004+34717-120567SAO  +0112VBG  V0209991C000012200019N0160001N9+00941+00331102061ADDGF100991999999999999999999MA1102071100681
0058723930999991972011606004+34717-120567SAO  +0112VBG  V0201101N002112200019N0160001N9+00941+00281102051ADDGF100991999999999999999999MA1102071100681MD1610051+9999
0044723930999991972011607004+34717-120567SAO  +0112VBG  V0201101N002612200019N0160001N9+00941+00281102031ADDGF100991999999999999999999MA1102031100651
0044723930999991972011608004+34717-120567SAO  +0112VBG  V0201101N002612200019N0160001N9+01111+00331101991ADDGF100991999999999999999999MA1102001100621
0058723930999991972011609004+34717-120567SAO  +0112VBG  V0201101N003612200019N0160001N9+01111+00331101921ADDGF100991999999999999999999MA1101931100541MD1810121+9999
0044723930999991972011610004+34717-120567SAO  +0112VBG  V0201101N003612200019N0160001N9+01061+00281101891ADDGF100991999999999999999999MA1101901100521
0044723930999991972011611004+34717-120567SAO  +0112VBG  V0201101N003612200019N0160001N9+01001+00281101851ADDGF100991999999999999999999MA1101861100481
0082723930999991972011612004+34717-120567SAO  +0112VBG  V0201101N003612200019N0160001N9+00941+00221101841ADDGF100991999999999999999999MA1101831100471MD1610081+9999REMAWY015608 RADAT 16107
0044723930999991972011613004+34717-120567SAO  +0112VBG  V0201101N003112200019N0160001N9+00891+00171101831ADDGF100991999999999999999999MA1101831100451
0044723930999991972011614004+34717-120567SAO  +0112VBG  V0200801N001012200019N0160001N9+00561+00061101911ADDGF100991999999999999999999MA1101901100521
0058723930999991972011615004+34717-120567SAO  +0112VBG  V0201201N002112200019N0160001N9+00781+00001101891ADDGF100991999999999999999999MA1101901100511MD1110051+9999
0044723930999991972011616004+34717-120567SAO  +0112VBG  V0209991C000012200019N0192001N9+00781+00061101931ADDGF100991999999999999999999MA1101931100551
0058723930999991972011617004+34717-120567SAO  +0112VBG  V0201201N001012200019N0192001N9+01441+00171101931ADDGF100991999999999999999999MA1101961100581REMAWY005ST SW
0081723930999991972011618004+34717-120567SAO  +0112VBG  V0200901N001012200019N0192001N9+01611+00221102001ADDGF100991999999999999999999MA1102001100611MD1210101+9999REMAWY014ST SW/210 1600
0061723930999991972011619004+34717-120567SAO  +0112VBG  V0202101N000512200019N0192001N9+01891+00331101911ADDGF100991999999999999999999MA1101961100581REMAWY008ST SW-NW
0067723930999991972011620004+34717-120567SAO  +0112VBG  V0202701N002112200019N0192001N9+01671+00671101861ADDGF100991999999999999999999MA1101901100521REMAWY014F BNK SSW-W-NW
0106723930999991972011621004+34717-120567SAO  +0112VBG  V0202501N003112200019N0160001N9+01331+01061101801ADDGF102991999999999999999999MA1101801100441MD1810191+9999REMAWY039VSBY S 1 1/2 W2 IN F BNK S-W-N/819 1600
0066723930999991972011622004+34717-120567SAO  +0112VBG  V0203201N002112200019N0160001N9+01561+00941101661ADDGF100991999999999999999999MA1101691100321REMAWY013F BNK S-W-NNW
0090723930999991972011623004+34717-120567SAO  +0112VBG  V0202701N002112200019N0160001N9+01501+01001101671ADDGF100991999999999999999999MA1101691100321REMAWY037CI SW VSBY SSW 1 3/4 IN F BNK S-W-NNW
0100723930999991972011700004+34717-120567SAO  +0112VBG  V0202901N002112200019N0112001N9+01221+01171101721ADDGF102991999999999999999999MA1101731100341MD1510081+9999REMAWY033VSBY S 1 3/4/508 1600 RADAT 14110
0075723930999991972011701004+34717-120567SAO  +0112VBG  V0202801N002610006019N0012001N9+01111+01061101751ADDGF107991999999999999999999MA1101761100381REMAWY022R30VRNO F7 VSBY SW 1/4
0060723930999991972011702004+34717-120567SAO  +0112VBG  V0202601N001010006019N0004001N9+01061+01001101751ADDGF108991999999999999999999MA1101761100381REMAWY007R30VR18
0083723930999991972011703004+34717-120567SAO  +0112VBG  V0209991C000010006019N0004001N9+01001+00941101821ADDGF108991999999999999999999MA1101831100441MD1210101+9999REMAWY016R30VR22/210 16//
0060723930999991972011704004+34717-120567SAO  +0112VBG  V0209991C000010006019N0002001N9+00891+00831101831ADDGF108991999999999999999999MA1101831100451REMAWY007R30VR18
0067723930999991972011705004+34717-120567SAO  +0112VBG  V0200301N001010006019N0002001N9+00831+00781101831ADDGF108991999999999999999999MA1101831100451REMAWY014R30VR10-RCD?14
0085723930999991972011706004+34717-120567SAO  +0112VBG  V0200501N001010006019N0002001N9+00891+00831101841ADDGF108991999999999999999999MA1101831100471MD1310021+9999REMAWY018R30VR10-RCD?14/302
0063723930999991972011707004+34717-120567SAO  +0112VBG  V0200501N001010018019N0024001N9+00941+00891101821ADDGF108991999999999999999999MA1101831100451REMAWY010F5 VSBY W3
0071723930999991972011708004+34717-120567SAO  +0112VBG  V0201201N001010012019N0024001N9+00941+00891101821ADDGF108991999999999999999999MA1101831100451REMAWY018F4 RCD ?14 VSBY W3
0078723930999991972011709004+34717-120567SAO  +0112VBG  V0209991C000010006019N0012001N9+00831+00781101761ADDGF108991999999999999999999MA1101761100411MD1810071+9999REMAWY011R30VR24/807
0061723930999991972011710004+34717-120567SAO  +0112VBG  V0200801N001010006019N0004001N9+00721+00721101761ADDGF108991999999999999999999MA1101761100381REMAWY008R30VR10-
0060723930999991972011711004+34717-120567SAO  +0112VBG  V0200901N000510006019N0004001N9+00611+00611101741ADDGF108991999999999999999999MA1101731100351REMAWY007R30VR12
0090723930999991972011712004+34717-120567SAO  +0112VBG  V0209991C000010006019N0004001N9+00671+00671101721ADDGF108991999999999999999999MA1101731100341MD1710051+9999REMAWY023R30VR10/705 RADAT 22098
0060723930999991972011713004+34717-120567SAO  +0112VBG  V0209991C000010006019N0004001N9+00831+00831101731ADDGF108991999999999999999999MA1101731100351REMAWY007R30VR20
0055723930999991972011714004+34717-120567SAO  +0112VBG  V0201401N001510015019N0024001N9+00721+00721101731ADDGF108991999999999999999999MA1101731100351REMAWY002F2
0078723930999991972011715004+34717-120567SAO  +0112VBG  V0209991C000010015019N0024001N9+00781+00781101761ADDGF108991999999999999999999MA1101761100411MD1310051+9999REMAWY011F5/305 16//
0063723930999991972011716004+34717-120567SAO  +0112VBG  V0203501N001010012019N0010001N9+00721+00721101841ADDGF108991999999999999999999MA1101831100451REMAWY010R30VR28 F7
0076723930999991972011717004+34717-120567SAO  +0112VBG  V0209991C000010012019N0012001N9+00781+00781101901ADDGF108991999999999999999999MA1101901100521REMAWY023R30VR55 F6 1637 3NW ?12
0078723930999991972011718004+34717-120567SAO  +0112VBG  V0209991C000010012019N0032001N9+00781+00721101921ADDGF107991999999999999999999MA1101931100541MD1110151+9999REMAWY011F2/115 1600
0044723930999991972011719004+34717-120567SAO  +0112VBG  V0203501N001012200019N0112001N9+01111+00891101891ADDGF102991999999999999999999MA1101901100521
0063723930999991972011720004+34717-120567SAO  +0112VBG  V0203001N001512200019N0112001N9+01111+00891101821ADDGF102991999999999999999999MA1101831100451REMAWY010VSBY LWR S
0083723930999991972011721004+34717-120567SAO  +0112VBG  V0203101N003610012019N0064001N9+01111+00941101701ADDGF107991999999999999999999MA1101691100341MD1810221+9999REMAWY016VSBY S2/822 1600
0061723930999991972011722004+34717-120567SAO  +0112VBG  V0203201N004610015019N0096001N9+01111+00941101681ADDGF108991999999999999999999MA1101691100321REMAWY0082133 U14
0065723930999991972011723004+34717-120567SAO  +0112VBG  V0203201N004110015019N0064001N9+01111+01001101681ADDGF108991999999999999999999MA1101691100321REMAWY012VSBY S 1 7/8
0101723930999991972011800004+34717-120567SAO  +0112VBG  V0203101N003110015019N0064001N9+01061+01001101661ADDGF108991999999999999999999MA1101661100301MD1810031+9999REMAWY034VSBY S 1 7/8 /803 16// RADAT 20099
0044723930999991972011801004+34717-120567SAO  +0112VBG  V0203201N003610012019N0064001N9+01061+01001101691ADDGF108991999999999999999999MA1101691100321
0044723930999991972011802004+34717-120567SAO  +0112VBG  V0203401N002110012019N0040001N9+01061+01001101721ADDGF108991999999999999999999MA1101731100351
0084723930999991972011803004+34717-120567SAO  +0112VBG  V0203401N001510009019N0040001N9+01061+01001101721ADDGF108991999999999999999999MA1101731100341MD1010051+9999REMAWY017VSBY NW3/005 16//
0060723930999991972011804004+34717-120567SAO  +0112VBG  V0203301N001510009019N0032001N9+01061+01001101751ADDGF108991999999999999999999MA1101761100381REMAWY007VSBY W3
0060723930999991972011805004+34717-120567SAO  +0112VBG  V0203201N002110009019N0032001N9+01061+01001101791ADDGF108991999999999999999999MA1101801100421REMAWY007VSBY W3
0083723930999991972011806004+34717-120567SAO  +0112VBG  V0203301N001010009019N0032001N9+01061+01001101821ADDGF108991999999999999999999MA1101831100441MD1210101+9999REMAWY016VSBY W3/210 16//
0060723930999991972011807004+34717-120567SAO  +0112VBG  V0203201N001010009019N0032001N9+01001+00941101821ADDGF108991999999999999999999MA1101831100451REMAWY007VSBY W3
0060723930999991972011808004+34717-120567SAO  +0112VBG  V0203401N001010009019N0032001N9+01001+00941101791ADDGF108991999999999999999999MA1101801100421REMAWY007VSBY W3
0083723930999991972011809004+34717-120567SAO  +0112VBG  V0203501N001510009019N0032001N9+01001+00891101791ADDGF108991999999999999999999MA1101801100411MD1610031+9999REMAWY016RCD ?12/603 16//
0060723930999991972011810004+34717-120567SAO  +0112VBG  V0200301N001510009019N0032001N9+00941+00831101791ADDGF108991999999999999999999MA1101801100421REMAWY007RCD ?12
0060723930999991972011811004+34717-120567SAO  +0112VBG  V0209991C000010009019N0032001N9+00941+00831101791ADDGF108991999999999999999999MA1101801100421REMAWY007RCD ?12
0095723930999991972011812004+34717-120567SAO  +0112VBG  V0209991C000010009019N0032001N9+00891+00781101791ADDGF108991999999999999999999MA1101801100411MD1010001+9999REMAWY028RCD ?12/000 16// RADAT 51098
0060723930999991972011813004+34717-120567SAO  +0112VBG  V0200901N000510009019N0032001N9+00941+00891101791ADDGF108991999999999999999999MA1101801100421REMAWY007RCD ?12
0060723930999991972011814004+34717-120567SAO  +0112VBG  V0200901N001010009019N0032001N9+00941+00891101791ADDGF108991999999999999999999MA1101801100421REMAWY007RCD ?21
0083723930999991972011815004+34717-120567SAO  +0112VBG  V0209991C000010018019N0048001N9+00891+00831101841ADDGF108991999999999999999999MA1101831100471MD1310051+9999REMAWY016RCD ?21/305 16//
0060723930999991972011816004+34717-120567SAO  +0112VBG  V0209991C000010018019N0064001N9+00941+00831101901ADDGF108991999999999999999999MA1101901100521REMAWY007RCD ?21
0060723930999991972011817004+34717-120567SAO  +0112VBG  V0203301N001010024019N0064001N9+00941+00831101961ADDGF108991999999999999999999MA1101961100581REMAWY007RCD ?23
0083723930999991972011818004+34717-120567SAO  +0112VBG  V0209991C000010024019N0064001N9+01001+00831102031ADDGF108991999999999999999999MA1102031100641MD1110191+9999REMAWY016RCD ?25/119 16//
0060723930999991972011819004+34717-120567SAO  +0112VBG  V0203301N000510027019N0064001N9+00941+00891102031ADDGF108991999999999999999999MA1102031100651REMAWY007RCD ?25
0060723930999991972011820004+34717-120567SAO  +0112VBG  V0203001N002110036019N0064001N9+00941+00891101961ADDGF108991999999999999999999MA1101961100581REMAWY007RCD ?26
0083723930999991972011821004+34717-120567SAO  +0112VBG  V0203001N001010033019N0064001N9+01001+00891101891ADDGF108991999999999999999999MA1101901100511MD1810141+9999REMAWY016RCD ?26/814 16//
0060723930999991972011822004+34717-120567SAO  +0112VBG  V0203301N001010033019N0064001N9+01001+00891101821ADDGF108991999999999999999999MA1101831100451REMAWY007RCD ?23
0044723930999991972011823004+34717-120567SAO  +0112VBG  V0202601N002110036019N0096001N9+01001+00891101791ADDGF107991999999999999999999MA1101801100421
0095723930999991972011900004+34717-120567SAO  +0112VBG  V0203101N002610030019N0064001N9+00941+00831101841ADDGF108991999999999999999999MA1101831100471MD1510051+9999REMAWY028RCD ?24/505 16// RADAT 26107
0044723930999991972011901004+34717-120567SAO  +0112VBG  V0202901N002110030019N0064001N9+00891+00781101831ADDGF108991999999999999999999MA1101831100451
0060723930999991972011902004+34717-120567SAO  +0112VBG  V0203301N001010030019N0064001N9+00891+00781101901ADDGF108991999999999999999999MA1101901100521REMAWY007RCD ?30
0083723930999991972011903004+34717-120567SAO  +0112VBG  V0203401N001010030019N0096001N9+00891+00781101921ADDGF108991999999999999999999MA1101931100541MD1310081+9999REMAWY016RCD ?29/308 16//
0060723930999991972011904004+34717-120567SAO  +0112VBG  V0209991C000010042019N0112001N9+00891+00781101931ADDGF108991999999999999999999MA1101931100551REMAWY007RCD ?30
0060723930999991972011905004+34717-120567SAO  +0112VBG  V0200301N000510036019N0112001N9+00891+00781101961ADDGF108991999999999999999999MA1101961100581REMAWY007RCD ?30
0083723930999991972011906004+34717-120567SAO  +0112VBG  V0209991C000010036019N0112001N9+00891+00781102001ADDGF108991999999999999999999MA1102001100611MD1210071+9999REMAWY016RCD ?30/207 16//
0060723930999991972011907004+34717-120567SAO  +0112VBG  V0201101N001010036019N0112001N9+00891+00781102031ADDGF108991999999999999999999MA1102031100651REMAWY007RCD ?30
0060723930999991972011908004+34717-120567SAO  +0112VBG  V0209991C000010033019N0112001N9+00891+00781102031ADDGF108991999999999999999999MA1102031100651REMAWY007RCD ?30
0083723930999991972011909004+34717-120567SAO  +0112VBG  V0200801N000510033019N0112001N9+00831+00671102051ADDGF108991999999999999999999MA1102071100681MD1210051+9999REMAWY016RCD ?30/205 16//
0060723930999991972011910004+34717-120567SAO  +0112VBG  V0201001N000510033019N0112001N9+00831+00671102031ADDGF108991999999999999999999MA1102031100651REMAWY007RCD ?30
0060723930999991972011911004+34717-120567SAO  +0112VBG  V0201401N001010033019N0112001N9+00831+00671102061ADDGF108991999999999999999999MA1102071100681REMAWY007RCD ?30
0083723930999991972011912004+34717-120567SAO  +0112VBG  V0201401N001510033019N0112001N9+00781+00611102051ADDGF108991999999999999999999MA1102071100681MD1510001+9999REMAWY016RCD ?30/500 16//
0077723930999991972011913004+34717-120567SAO  +0112VBG  V0201501N001010033019N0112001N9+00781+00611102071ADDGF108991999999999999999999MA1102071100681REMAWY024RCD ?30 RADAT 51103 1235
0060723930999991972011914004+34717-120567SAO  +0112VBG  V0201101N002110033019N0112001N9+00721+00561102071ADDGF108991999999999999999999MA1102071100681REMAWY007RCD ?30
0083723930999991972011915004+34717-120567SAO  +0112VBG  V0201601N001010042019N0080001N9+00781+00611102131ADDGF108991999999999999999999MA1102131100751MD1310081+9999REMAWY016RCD ?30/308 16//
0060723930999991972011916004+34717-120567SAO  +0112VBG  V0201001N001010042019N0080001N9+00831+00671102211ADDGF108991999999999999999999MA1102201100821REMAWY007RCD ?30
0060723930999991972011917004+34717-120567SAO  +0112VBG  V0209991C000010042019N0080001N9+00891+00721102231ADDGF108991999999999999999999MA1102241100851REMAWY007RCD ?31
0083723930999991972011918004+34717-120567SAO  +0112VBG  V0201701N001010042019N0080001N9+00941+00721102261ADDGF108991999999999999999999MA1102271100881MD1210141+9999REMAWY016RCD ?31/214 16//
0060723930999991972011919004+34717-120567SAO  +0112VBG  V0201701N001010057019N0112001N9+01001+00781102301ADDGF108991999999999999999999MA1102301100921REMAWY007RCD ?35
0060723930999991972011920004+34717-120567SAO  +0112VBG  V0209991C000010057019N0112001N9+01061+00501102251ADDGF108991999999999999999999MA1102271100881REMAWY007RCD ?30
0083723930999991972011921004+34717-120567SAO  +0112VBG  V0202701N001010057019N0112001N9+01111+00671102201ADDGF108991999999999999999999MA1102201100811MD1810071+9999REMAWY016RCD ?36/807 16//
0060723930999991972011922004+34717-120567SAO  +0112VBG  V0203201N002610057019N0144001N9+01061+00611102151ADDGF108991999999999999999999MA1102171100781REMAWY007RCD ?37
0060723930999991972011923004+34717-120567SAO  +0112VBG  V0203501N002110057019N0144001N9+01111+00781102091ADDGF108991999999999999999999MA1102101100721REMAWY007RCD ?30
0087723930999991972012000004+34717-120567SAO  +0112VBG  V0203001N002110057019N0144001N9+01111+00891102101ADDGF108991999999999999999999MA1102101100711MD1710101+9999REMAWY020RCD 220U280/710 16//
0044723930999991972012001004+34717-120567SAO  +0112VBG  V0203201N002112200019N0112001N9+00941+00721102131ADDGF108991999999999999999999MA1102131100751
0069723930999991972012002004+34717-120567SAO  +0112VBG  V0203101N001512200019N0112001N9+00781+00331102171ADDGF108991999999999999999999MA1102171100781REMAWY016RCD ?270 H ALQDS
0084723930999991972012003004+34717-120567SAO  +0112VBG  V0209991C000012200019N0112001N9+00671+00281102211ADDGF108991999999999999999999MA1102241100851MD1310121+9999REMAWY017RCD ?270/312 1007
0061723930999991972012004004+34717-120567SAO  +0112VBG  V0209991C000010054019N0112001N9+00611+00221102281ADDGF108991999999999999999999MA1102271100881REMAWY008RCD ?280
0061723930999991972012005004+34717-120567SAO  +0112VBG  V0209991C000010057019N0112001N9+00721+00331102311ADDGF108991999999999999999999MA1102301100921REMAWY008RCD ?250
0087723930999991972012006004+34717-120567SAO  +0112VBG  V0209991C000010054019N0112001N9+00721+00331102351ADDGF108991999999999999999999MA1102371100981MD1210141+9999REMAWY020RCD 230U250/214 16//
0060723930999991972012007004+34717-120567SAO  +0112VBG  V0209991C000010054019N0112001N9+00781+00391102411ADDGF108991999999999999999999MA1102401101021REMAWY007RCD ?30
0060723930999991972012008004+34717-120567SAO  +0112VBG  V0209991C000010054019N0112001N9+00831+00441102411ADDGF108991999999999999999999MA1102401101021REMAWY007RCD ?32
0083723930999991972012009004+34717-120567SAO  +0112VBG  V0200901N001010054019N0144001N9+00831+00441102371ADDGF108991999999999999999999MA1102371100981MD1010021+9999REMAWY016RCD ?30/002 16//
0060723930999991972012010004+34717-120567SAO  +0112VBG  V0209991C000010054019N0144001N9+00781+00441102411ADDGF108991999999999999999999MA1102401101021REMAWY007RCD ?31
0060723930999991972012011004+34717-120567SAO  +0112VBG  V0209991C000010054019N0144001N9+00831+00441102381ADDGF108991999999999999999999MA1102371100991REMAWY007RCD ?31
0083723930999991972012012004+34717-120567SAO  +0112VBG  V0200501N001010054019N0144001N9+00831+00441102371ADDGF108991999999999999999999MA1102371100981MD1010001+9999REMAWY016RCD ?31/000 16//
0060723930999991972012013004+34717-120567SAO  +0112VBG  V0200801N000510057019N0144001N9+00721+00391102341ADDGF108991999999999999999999MA1102341100951REMAWY007RCD ?31
0044723930999991972012014004+34717-120567SAO  +0112VBG  V0209991C000010054019N0144001N9+00671+00331102421ADDGF108991999999999999999999MA1102401101021
0086723930999991972012015004+34717-120567SAO  +0112VBG  V0201201N001512200019N0128001N9+00561+00221102341ADDGF102991999999999999999999MA1102341100951MD1810031+9999REMAWY019VSBY LWR N/803 1608
0063723930999991972012016004+34717-120567SAO  +0112VBG  V0209991C000012200019N0112001N9+00561+00221102451ADDGF102991999999999999999999MA1102441101051REMAWY010VSBY LWR N
0044723930999991972012017004+34717-120567SAO  +0112VBG  V0209991C000012200019N0112001N9+00781+00391102511ADDGF102991999999999999999999MA1102511101121
0089723930999991972012018004+34717-120567SAO  +0112VBG  V0203301N004612200019N0112001N9+01061+00501102601ADDGF108991999999999999999999MA1102611101221MD1310251+9999REMAWY022CU DRFTG OFLD/325 1107
0060723930999991972012019004+34717-120567SAO  +0112VBG  V0209991C000012200019N0112001N9+01171+00561102561ADDGF107991999999999999999999MA1102571101191REMAWY007H ALQDS
0060723930999991972012020004+34717-120567SAO  +0112VBG  V0203301N004612200019N0128001N9+01221+00561102491ADDGF108991999999999999999999MA1102511101121REMAWY007H ALQDS
0083723930999991972012021004+34717-120567SAO  +0112VBG  V0203301N002112200019N0160001N9+01221+00561102341ADDGF107991999999999999999999MA1102341100951MD1810251+9999REMAWY016H ALQDS/825 1008
0082723930999991972012022004+34717-120567SAO  +0112VBG  V0203201N006212200019N0160001N9+01281+00721102311ADDGF107991999999999999999999MA1102341100951OC100931REMAWY021H ALQDS ST DRFTG OFLD
0060723930999991972012023004+34717-120567SAO  +0112VBG  V0203301N007210018019N0160001N9+01171+00781102391ADDGF107991999999999999999999MA1102401101021REMAWY007CIG RGD
0103723930999991972012100004+34717-120567SAO  +0112VBG  V0203401N007210015019N0112001N9+01111+00781102441ADDGF108991999999999999999999MA1102441101051MD1310101+9999OC101031REMAWY028CIG RGD/310 16// RADAT 22109
0076723930999991972012101004+34717-120567SAO  +0112VBG  V0203501N004610006019N0016001N9+01001+00721102431ADDGF108991999999999999999999MA1102441101051REMAWY023R30VR40 F5 VSBY SW-NW 4
0060723930999991972012102004+34717-120567SAO  +0112VBG  V0203301N004610006019N0004001N9+01001+00781102431ADDGF108991999999999999999999MA1102441101051REMAWY007R30VR20
0078723930999991972012103004+34717-120567SAO  +0112VBG  V0203401N006710006019N0004001N9+01001+00781102441ADDGF108991999999999999999999MA1102441101051MD1410001+9999REMAWY011R30VR12/400
0071723930999991972012104004+34717-120567SAO  +0112VBG  V0203301N005110009019N0008001N9+01001+00831102471ADDGF108991999999999999999999MA1102471101091REMAWY018R30VR48 VSBY S 3/4
0068723930999991972012105004+34717-120567SAO  +0112VBG  V0203401N006210006019N0048001N9+01001+00831102501ADDGF108991999999999999999999MA1102511101121REMAWY015F4 VSBY HIR W-N
0078723930999991972012106004+34717-120567SAO  +0112VBG  V0203401N005110006019N0006001N9+01001+00831102551ADDGF108991999999999999999999MA1102541101151MD1210101+9999REMAWY011R30VR24/210
0060723930999991972012107004+34717-120567SAO  +0112VBG  V0203501N003610006019N0006001N9+01001+00831102501ADDGF108991999999999999999999MA1102511101121REMAWY007R30VR48
0060723930999991972012108004+34717-120567SAO  +0112VBG  V0203401N001010006019N0002001N9+01001+00831102471ADDGF108991999999999999999999MA1102471101091REMAWY007R30VR14
0078723930999991972012109004+34717-120567SAO  +0112VBG  V0203601N002110006019N0004001N9+00941+00831102441ADDGF108991999999999999999999MA1102441101051MD1710101+9999REMAWY011R30VR12/710
0061723930999991972012110004+34717-120567SAO  +0112VBG  V0200101N002110006019N0002001N9+00891+00721102441ADDGF108991999999999999999999MA1102441101051REMAWY008R30VR10-
0061723930999991972012111004+34717-120567SAO  +0112VBG  V0203501N003110006019N0002001N9+00891+00781102441ADDGF108991999999999999999999MA1102441101051REMAWY008R30VR10-
0090723930999991972012112004+34717-120567SAO  +0112VBG  V0203401N004110006019N0002001N9+00941+00831102401ADDGF108991999999999999999999MA1102401101021MD1810031+9999REMAWY023R30VR18/803 RADAT 15120
0074723930999991972012113004+34717-120567SAO  +0112VBG  V0203401N003110006019N0006001N9+00941+00781102371ADDGF108991999999999999999999MA1102371100991REMAWY021R30VRNO F6 VSBY W 7/8
0044723930999991972012114004+34717-120567SAO  +0112VBG  V0203201N003612200019N0064001N9+00941+00781102371ADDGF102991999999999999999999MA1102371100991
0083723930999991972012115004+34717-120567SAO  +0112VBG  V0203501N002112200019N0112001N9+00891+00721102391ADDGF107991999999999999999999MA1102401101021MD1510021+9999REMAWY016ST S-SW/502 1602
0067723930999991972012116004+34717-120567SAO  +0112VBG  V0203301N002612200019N0144001N9+00941+00611102431ADDGF107991999999999999999999MA1102441101051REMAWY014GF S-SW AND NW
0057723930999991972012117004+34717-120567SAO  +0112VBG  V0203501N004612200019N0160001N9+01061+00671102471ADDGF108991999999999999999999MA1102471101091REMAWY004AC E
0082723930999991972012118004+34717-120567SAO  +0112VBG  V0203501N003612200019N0160001N9+01441+00721102461ADDGF108991999999999999999999MA1102471101081MD1010071+9999REMAWY015ACSL E/007 1047
0059723930999991972012119004+34717-120567SAO  +0112VBG  V0203301N006212200019N0160001N9+01331+00721102451ADDGF108991999999999999999999MA1102471101091REMAWY006ACSL E
0078723930999991972012120004+34717-120567SAO  +0112VBG  V0203301N007212200019N0160001N9+01331+00781102381ADDGF108991999999999999999999MA1102401101021OC101031REMAWY017ACSL E ST OMTNS S
0101723930999991972012121004+34717-120567SAO  +0112VBG  V0203201N007712200019N0160001N9+01441+00781102261ADDGF108991999999999999999999MA1102271100881MD1810191+9999OC101081REMAWY026ACSL E ST OMTNS S/819 1647
0071723930999991972012122004+34717-120567SAO  +0112VBG  V0203301N006212200019N0160001N9+01391+00831102181ADDGF108991999999999999999999MA1102201100821OC101031REMAWY010ST OMTNS S
0071723930999991972012123004+34717-120567SAO  +0112VBG  V0203201N007712200019N0160001N9+01281+00831102181ADDGF108991999999999999999999MA1102201100821OC101181REMAWY010ST OMTNS S
0095723930999991972012200004+34717-120567SAO  +0112VBG  V0203301N008212200019N0160001N9+01221+00831102181ADDGF108991999999999999999999MA1102201100811MD1710081+9999OC101181REMAWY020708 1607 RADAT 13131
0068723930999991972012201004+34717-120567SAO  +0112VBG  V0203201N007710012019N0112001N9+01171+00831102151ADDGF108991999999999999999999MA1102171100781OC101031REMAWY007CIG RGD
0044723930999991972012202004+34717-120567SAO  +0112VBG  V0203301N006210012019N0112001N9+01111+00831102221ADDGF108991999999999999999999MA1102241100851
0075723930999991972012203004+34717-120567SAO  +0112VBG  V0203401N006212200019N0112001N9+01061+00831102201ADDGF108991999999999999999999MA1102201100811MD1010021+9999REMAWY008002 1607
0044723930999991972012204004+34717-120567SAO  +0112VBG  V0203401N004612200019N0112001N9+01061+00831102191ADDGF108991999999999999999999MA1102201100821
0044723930999991972012205004+34717-120567SAO  +0112VBG  V0203401N003612200019N0112001N9+01001+00781102201ADDGF107991999999999999999999MA1102201100821
0075723930999991972012206004+34717-120567SAO  +0112VBG  V0203501N002612200019N0112001N9+01001+00781102211ADDGF107991999999999999999999MA1102241100851MD1310021+9999REMAWY008302 1608
0044723930999991972012207004+34717-120567SAO  +0112VBG  V0203301N002612200019N0112001N9+01001+00781102231ADDGF102991999999999999999999MA1102241100851
0061723930999991972012208004+34717-120567SAO  +0112VBG  V0203301N005710006019N0002001N9+01001+00831102201ADDGF108991999999999999999999MA1102201100821REMAWY008R30VR10-
0079723930999991972012209004+34717-120567SAO  +0112VBG  V0203301N004610006019N0002001N9+01001+00831102161ADDGF108991999999999999999999MA1102171100781MD1810051+9999REMAWY012R30VR10-/805
0061723930999991972012210004+34717-120567SAO  +0112VBG  V0203401N004610006019N0002001N9+00941+00831102161ADDGF108991999999999999999999MA1102171100781REMAWY008R30VR10-
0061723930999991972012211004+34717-120567SAO  +0112VBG  V0203401N004110006019N0002001N9+00941+00831102161ADDGF108991999999999999999999MA1102171100781REMAWY008R30VR10-
0091723930999991972012212004+34717-120567SAO  +0112VBG  V0203301N004610006019N0002001N9+00941+00831102101ADDGF108991999999999999999999MA1102101100711MD1810071+9999REMAWY024R30VR10-/807 RADAT 12131
0068723930999991972012213004+34717-120567SAO  +0112VBG  V0203401N005710006019N0004001N9+01001+00891102101ADDGF108991999999999999999999MA1102101100721OC100771REMAWY007R30VR16
0060723930999991972012214004+34717-120567SAO  +0112VBG  V0203401N004610003019N0010001N9+01001+00891102131ADDGF108991999999999999999999MA1102131100751REMAWY007R30VR45
0106723930999991972012215004+34717-120567SAO  +0112VBG  V0203401N004110006019N0012001N9+01001+00891102151ADDGF108991999999999999999999MA1102171100781MD1310051+9999REMAWY039R30VR55 F9 CIG RGD VSBY E 3/8 /305 16//
0061723930999991972012216004+34717-120567SAO  +0112VBG  V0203401N004110006019N0002001N9+00941+00831102161ADDGF108991999999999999999999MA1102171100781REMAWY008R30VR10-
0061723930999991972012217004+34717-120567SAO  +0112VBG  V0203501N004610006019N0002001N9+01001+00831102201ADDGF108991999999999999999999MA1102201100821REMAWY008R30VR10-
0103723930999991972012218004+34717-120567SAO  +0112VBG  V0203401N006212200019N0112001N9+01111+00941102161ADDGF107991999999999999999999MA1102171100781MD1010021+9999REMAWY036VSBY LWR S-W-NW F BNK SW-NW/002 1601
0080723930999991972012219004+34717-120567SAO  +0112VBG  V0203201N007212200019N0112001N9+01171+00941102151ADDGF107991999999999999999999MA1102171100781REMAWY027VSBY W-NW 2 1/2 F BNK OFSHR
0075723930999991972012220004+34717-120567SAO  +0112VBG  V0203201N006212200019N0112001N9+01281+00891102041ADDGF107991999999999999999999MA1102071100681REMAWY022VSBY W-N 2 F BNK OFSHR
0098723930999991972012221004+34717-120567SAO  +0112VBG  V0203101N006212200019N0160001N9+01281+00891101971ADDGF107991999999999999999999MA1101961100611MD1810191+9999REMAWY031VSBY W-N 2 F BNK OFSHR/819 1001
0104723930999991972012222004+34717-120567SAO  +0112VBG  V0203201N007210009019N0016001N9+01281+00891101911ADDGF108991999999999999999999MA1101931100551REMAWY051R30VR60+ 2 NW VBG ?10 THN SPTS IN OBSCD VSBY N2 NE3
0061723930999991972012223004+34717-120567SAO  +0112VBG  V0203301N007210015019N0016001N9+01171+00831101911ADDGF108991999999999999999999MA1101931100551REMAWY008R30VR60+
0113723930999991972012300004+34717-120567SAO  +0112VBG  V0203301N007210006019N0004001N9+01111+00831101891ADDGF108991999999999999999999MA1101901100511MD1710081+9999REMAWY046R30VR30 PIREP 2316 2NW VBG ?10/708 RADAT 17128
0061723930999991972012301004+34717-120567SAO  +0112VBG  V0203301N006210003019N0002001N9+01061+00831101851ADDGF108991999999999999999999MA1101861100481REMAWY008R30VR10-
0069723930999991972012302004+34717-120567SAO  +0112VBG  V0203401N006210006019N0004001N9+01061+00831101891ADDGF108991999999999999999999MA1101901100521REMAWY016R30VR14) RCD ?14
0089723930999991972012303004+34717-120567SAO  +0112VBG  V0203401N006210006019N0004001N9+01061+00831101921ADDGF108991999999999999999999MA1101931100541MD1310031+9999REMAWY022R30VR22) PIREP U20/303
0069723930999991972012304004+34717-120567SAO  +0112VBG  V0203401N005110006019N0004001N9+01061+00831101921ADDGF108991999999999999999999MA1101931100551REMAWY016R30VR14) RCD ?20
0069723930999991972012305004+34717-120567SAO  +0112VBG  V0203301N005110006019N0004001N9+01061+00831101921ADDGF108991999999999999999999MA1101931100551REMAWY016R30VR14) RCD ?20
0118723930999991972012306004+34717-120567SAO  +0112VBG  V0203401N005110006019N0004001N9+01061+00831101961ADDAA106999929GF108991999999999999999999MA1101961100581MD1210031+9999REMAWY021R30VR14 RCD ?20/20300EQDQ01  99993PRCP99
0068723930999991972012307004+34717-120567SAO  +0112VBG  V0203401N005110006019N0004001N9+01061+00831101951ADDGF108991999999999999999999MA1101961100581REMAWY015R30VR20 RCD ?20
0068723930999991972012308004+34717-120567SAO  +0112VBG  V0203401N005110006019N0004001N9+01061+00831101951ADDGF108991999999999999999999MA1101961100581REMAWY015R30VR14 RCD ?20
0088723930999991972012309004+34717-120567SAO  +0112VBG  V0203301N005110012019N0006001N9+01061+00831101941ADDGF108991999999999999999999MA1101931100581MD1810021+9999REMAWY021R30VR26 INTMT L--/802
0075723930999991972012310004+34717-120567SAO  +0112VBG  V0203401N003610009019N0004001N9+01061+00831101921ADDGF108991999999999999999999MA1101931100551REMAWY022R30VR24 L-- INTMTLY L-
0055723930999991972012311004+34717-120567SAO  +0112VBG  V0203401N004610021019N0064001N9+01061+00781101921ADDGF108991999999999999999999MA1101931100551REMAWY002F1
0124723930999991972012312004+34717-120567SAO  +0112VBG  V0203401N005710006019N0004001N9+01061+00831101921ADDAA106999929GF108991999999999999999999MA1101931100541MD1610021+9999REMAWY027R30VR10-VSBY NE-E 1/8/60200EQDQ01  99993PRCP99
0064723930999991972012313004+34717-120567SAO  +0112VBG  V0203401N004610015019N0048001N9+01001+00781101921ADDGF107991999999999999999999MA1101931100551REMAWY011F5 VSBY SE2
0060723930999991972012314004+34717-120567SAO  +0112VBG  V0200301N002110012019N0032001N9+00941+00721102001ADDGF108991999999999999999999MA1102001100621REMAWY007VSBY E1
0088723930999991972012315004+34717-120567SAO  +0112VBG  V0200201N001010015019N0020001N9+01001+00721102051ADDGF108991999999999999999999MA1102071100681MD1310121+9999REMAWY021F4 INTMT L--/312 16//
0065723930999991972012316004+34717-120567SAO  +0112VBG  V0200201N001010015019N0020001N9+01001+00781102101ADDGF108991999999999999999999MA1102101100721REMAWY012F3 INTMT L--
0063723930999991972012317004+34717-120567SAO  +0112VBG  V0200101N003110009019N0020001N9+01111+00891102191ADDGF108991999999999999999999MA1102201100821REMAWY010F4 CIG RGD
0121723930999991972012318004+34717-120567SAO  +0112VBG  V0203401N005110015019N0112001N9+01111+00891102241ADDAA106001091GF108991999999999999999999MA1102241100851MD1110191+9999REMAWY0244 ENE VBG ?18/11903 15//EQDQ01  00103PRCP99
0052723930999991972012319004+34717-120567SAO  +0112VBG  V0203301N006210021019N0112001N9+01171+00831102221ADDGF107991999999999999999999MA1102241100851OC100981
0068723930999991972012320004+34717-120567SAO  +0112VBG  V0203401N008212200019N0112001N9+01221+00891102151ADDGF102991999999999999999999MA1102171100781OC101031REMAWY007H ALQDS
0083723930999991972012321004+34717-120567SAO  +0112VBG  V0203201N008712200019N0160001N9+01331+00721102081ADDGF102991999999999999999999MA1102101100711MD1810151+9999OC101081REMAWY008815 1501
0052723930999991972012322004+34717-120567SAO  +0112VBG  V0203301N010812200019N0160001N9+01221+00561101981ADDGF102991999999999999999999MA1102001100621OC101391
0044723930999991972012323004+34717-120567SAO  +0112VBG  V0203301N011312200019N0160001N9+01221+00561101941ADDGF100991999999999999999999MA1101961100581
0092723930999991972012400004+34717-120567SAO  +0112VBG  V0203201N010312200019N0160001N9+01221+00561101971ADDGF100991999999999999999999MA1101961100611MD1610101+9999REMAWY025SC E/610 1500 RADAT 18110
0062723930999991972012401004+34717-120567SAO  +0112VBG  V0203401N008712200019N0160001N9+01111+00441101951ADDGF100991999999999999999999MA1101961100581REMAWY009SC N CI W
0044723930999991972012402004+34717-120567SAO  +0112VBG  V0203401N006212200019N0160001N9+01061+00501101991ADDGF102991999999999999999999MA1102001100621
0083723930999991972012403004+34717-120567SAO  +0112VBG  V0200101N005112200019N0160001N9+01111+00331102031ADDGF102991999999999999999999MA1102031100641MD1310051+9999OC100821REMAWY008305 1500
0044723930999991972012404004+34717-120567SAO  +0112VBG  V0200101N004612200019N0160001N9+01061+00111102051ADDGF100991999999999999999999MA1102071100681
0044723930999991972012405004+34717-120567SAO  +0112VBG  V0203601N006212200019N0160001N9+01001+00001102101ADDGF100991999999999999999999MA1102101100721
0058723930999991972012406004+34717-120567SAO  +0112VBG  V0203601N004612200019N0160001N9+00891-00111102111ADDGF100991999999999999999999MA1102131100751MD1310081+9999
0044723930999991972012407004+34717-120567SAO  +0112VBG  V0203601N006212200019N0160001N9+00831-00171102061ADDGF100991999999999999999999MA1102071100681
0044723930999991972012408004+34717-120567SAO  +0112VBG  V0203601N005712200019N0160001N9+00831-00111102101ADDGF100991999999999999999999MA1102101100721
0058723930999991972012409004+34717-120567SAO  +0112VBG  V0203401N003612200019N0160001N9+00831-00221102051ADDGF100991999999999999999999MA1102071100681MD1710071+9999
0044723930999991972012410004+34717-120567SAO  +0112VBG  V0203601N003612200019N0160001N9+00831-00171102061ADDGF100991999999999999999999MA1102071100681
0044723930999991972012411004+34717-120567SAO  +0112VBG  V0200101N005712200019N0160001N9+00781-00221102041ADDGF100991999999999999999999MA1102031100651
0082723930999991972012412004+34717-120567SAO  +0112VBG  V0203501N004612200019N0160001N9+00831-00111101971ADDGF100991999999999999999999MA1101961100611MD1810071+9999REMAWY015807 RADAT 13103
0052723930999991972012413004+34717-120567SAO  +0112VBG  V0200201N006212200019N0160001N9+00831-00111101901ADDGF100991999999999999999999MA1101901100521OC100871
0052723930999991972012414004+34717-120567SAO  +0112VBG  V0200301N006712200019N0160001N9+00781-00171101831ADDGF100991999999999999999999MA1101831100451OC101031
0092723930999991972012415004+34717-120567SAO  +0112VBG  V0200901N001012200019N0240001N9+00501-00281102011ADDGF107991999999999999999999MA1102031100641MD1310031+9999REMAWY025WND LGT AND VRBL/303 1006
0044723930999991972012416004+34717-120567SAO  +0112VBG  V0200801N002112200019N0240001N9+00501-00281102081ADDGF107991999999999999999999MA1102071100681
0044723930999991972012417004+34717-120567SAO  +0112VBG  V0209991C000012200019N0240001N9+00831-00171102131ADDGF107991999999999999999999MA1102131100751
0075723930999991972012418004+34717-120567SAO  +0112VBG  V0200401N001512200019N0240001N9+01171-00171102151ADDGF102991999999999999999999MA1102171100781MD1110141+9999REMAWY008114 1008
0044723930999991972012419004+34717-120567SAO  +0112VBG  V0200801N000512200019N0240001N9+01331-00111102141ADDGF102991999999999999999999MA1102171100781
0060723930999991972012420004+34717-120567SAO  +0112VBG  V0203201N003112200019N0160001N9+01331+00061102041ADDGF102991999999999999999999MA1102071100681REMAWY007H ALQDS
0083723930999991972012421004+34717-120567SAO  +0112VBG  V0203101N003612200019N0160001N9+01441+00281101941ADDGF102991999999999999999999MA1101931100581MD1810201+9999REMAWY016H ALQDS/820 1001
0060723930999991972012422004+34717-120567SAO  +0112VBG  V0203201N003612200019N0160001N9+01391+00111101871ADDGF100991999999999999999999MA1101901100521REMAWY007H ALQDS
0060723930999991972012423004+34717-120567SAO  +0112VBG  V0203301N004612200019N0192001N9+01331+00331101811ADDGF102991999999999999999999MA1101831100451REMAWY007H ALQDS
0087723930999991972012500004+34717-120567SAO  +0112VBG  V0203301N004112200019N0192001N9+01281+00391101801ADDGF102991999999999999999999MA1101801100441MD1610141+9999REMAWY020614 1005 RADAT 14098
0044723930999991972012501004+34717-120567SAO  +0112VBG  V0203301N003112200019N0192001N9+01111+00501101821ADDGF102991999999999999999999MA1101831100451
0044723930999991972012502004+34717-120567SAO  +0112VBG  V0203301N000512200019N0192001N9+00891+00501101831ADDGF102991999999999999999999MA1101831100451
0075723930999991972012503004+34717-120567SAO  +0112VBG  V0209991C000012200019N0160001N9+00611+00171101821ADDGF107991999999999999999999MA1101831100441MD1010021+9999REMAWY008002 1006
0044723930999991972012504004+34717-120567SAO  +0112VBG  V0209991C000010750019N0160001N9+00611+00221101811ADDGF107991999999999999999999MA1101801100421
0044723930999991972012505004+34717-120567SAO  +0112VBG  V0209991C000010750019N0160001N9+00721+00331101841ADDGF107991999999999999999999MA1101831100451
0075723930999991972012506004+34717-120567SAO  +0112VBG  V0209991C000010750019N0160001N9+00501+00111101841ADDGF107991999999999999999999MA1101831100471MD1310021+9999REMAWY008302 1009
0044723930999991972012507004+34717-120567SAO  +0112VBG  V0201301N001510750019N0160001N9+00611+00281101811ADDGF107991999999999999999999MA1101801100421
0044723930999991972012508004+34717-120567SAO  +0112VBG  V0201301N001010540019N0160001N9+00611+00221101741ADDGF107991999999999999999999MA1101731100351
0075723930999991972012509004+34717-120567SAO  +0112VBG  V0209991C000010540019N0160001N9+00671+00281101721ADDGF108991999999999999999999MA1101731100341MD1710121+9999REMAWY008712 1038
0044723930999991972012510004+34717-120567SAO  +0112VBG  V0209991C000010450019N0144001N9+00611+00281101741ADDGF108991999999999999999999MA1101731100351
0061723930999991972012511004+34717-120567SAO  +0112VBG  V0209991C000010420019N0144001N9+00671+00281101671ADDGF108991999999999999999999MA1101661100281REMAWY008RCD ?230
0104723930999991972012512004+34717-120567SAO  +0112VBG  V0203501N001010420019N0144001N9+00721+00331101701ADDGF108991999999999999999999MA1101691100341MD1510021+9999REMAWY037502 RADAT 24094 CLOUD CODE GROUP 1578
0044723930999991972012513004+34717-120567SAO  +0112VBG  V0203501N001010420019N0144001N9+00721+00331101731ADDGF108991999999999999999999MA1101731100351
0044723930999991972012514004+34717-120567SAO  +0112VBG  V0203401N002110420019N0144001N9+00781+00281101761ADDGF108991999999999999999999MA1101761100381
0075723930999991972012515004+34717-120567SAO  +0112VBG  V0200801N002110540019N0240001N9+00501+00061101791ADDGF107991999999999999999999MA1101801100411MD1210081+9999REMAWY008208 1030
0067723930999991972012516004+34717-120567SAO  +0112VBG  V0201001N001510540019N0240001N9+00611+00171101841ADDGF108991999999999999999999MA1101831100451REMAWY014BINOVC NW-N-NE
0044723930999991972012517004+34717-120567SAO  +0112VBG  V0201201N001510690019N0240001N9+00831+00331101801ADDGF107991999999999999999999MA1101801100421
0087723930999991972012518004+34717-120567SAO  +0112VBG  V0201101N002110114019N0208001N9+01001+00331101851ADDGF108991999999999999999999MA1101861100471MD1210071+9999REMAWY020BINOVC NW-N/207 1608
