0082724037937281972010100004+38717-077183SAO  +0024DAA  V0209991C000012200019N0112001N9-00061-00561999999ADDGA1021+013509999GA2021+045009999GF102991999999999999999999MA1102511999999MW1001
0097724037937281972010101004+38717-077183SAO  +0024DAA  V0209991C000012200019N0112001N9-00111-00561102481ADDGA1021+045009999GF102991999999999999999999MA1102471999999MD1010001+9999MW1001REMAWY008000 1070
0066724037937281972010102004+38717-077183SAO  +0024DAA  V0209991C000012200019N0112001N9-00171-00561999999ADDGA1021+045009999GF102991999999999999999999MA1102571999999MW1001
0050724037937281972010103004+38717-077183SAO  +0024DAA  V0209991C000012200019N0112001N9-00221-00561999999ADDGF100991999999999999999999MA1102641999999MW1001
0076724037937281972010104004+38717-077183SAO  +0024DAA  V0209991C000012200019N0112001N9-00281-00561102681ADDGF100991999999999999999999MA1102681999999MD1310201+9999MW1001REMAWY003320
0050724037937281972010105004+38717-077183SAO  +0024DAA  V0209991C000012200019N0112001N9-00391-00671999999ADDGF100991999999999999999999MA1102681999999MW1001
0066724037937281972010106004+38717-077183SAO  +0024DAA  V0209991C000012200019N0112001N9-00391-00671999999ADDGA1021+075009999GF102991999999999999999999MA1102711999999MW1001
0097724037937281972010107004+38717-077183SAO  +0024DAA  V0209991C000012200019N0112001N9-00441-00671102781ADDGA1021+075009999GF102991999999999999999999MA1102781999999MD1310101+9999MW1001REMAWY008310 1001
0097724037937281972010108004+38717-077183SAO  +0024DAA  V0209991C000012200019N0112001N9-00441-00671999999ADDGA1021+036009999GA2021+075009999GD19999+9999993GF102991999999999999999999MA1102881999999MW1001
0066724037937281972010109004+38717-077183SAO  +0024DAA  V0209991C000012200019N0112001N9-00171-00441999999ADDGA1071+075009999GF107991999999999999999999MA1102911999999MW1001
0097724037937281972010110004+38717-077183SAO  +0024DAA  V0209991C000012200019N0112001N9+00111-00281102971ADDGA1071+075009999GF107991999999999999999999MA1102981999999MD1210191+9999MW1001REMAWY008219 1008
0097724037937281972010111004+38717-077183SAO  +0024DAA  V0200101N001512200019N0112001N9+00331-00281999999ADDGA1021+010509999GA2071+075009999GD19999+9999993GF107991999999999999999999MA1102911999999MW1001
0097724037937281972010112004+38717-077183SAO  +0024DAA  V0200601N002112200019N0112001N9+00441-00331999999ADDGA1021+010509999GA2081+075009999GD19999+9999993GF108991999999999999999999MA1102841999999MW1001
0128724037937281972010113004+38717-077183SAO  +0024DAA  V0200201N001512200019N0112001N9+00561-00331102711ADDGA1021+010509999GA2081+075009999GD19999+9999993GF108991999999999999999999MA1102711999999MD1810271+9999MW1001REMAWY008827 1101
0097724037937281972010114004+38717-077183SAO  +0024DAA  V0200201N001012200019N0112001N9+00561-00441999999ADDGA1021+010509999GA2071+075009999GD19999+9999993GF107991999999999999999999MA1102641999999MW1001
0082724037937281972010115004+38717-077183SAO  +0024DAA  V0203501N003112200019N0112001N9+00611-00441999999ADDGA1021+010509999GA2021+075009999GF102991999999999999999999MA1102571999999MW1001
0111724037937281972010116004+38717-077183SAO  +0024DAA  V0203501N001512200019N0112001N9+00611-00501102571ADDGA1021+075009999GF102991999999999999999999MA1102571999999MD1610141+9999MW1001REMAWY022CU DSIPTG N-E/614 1102
0097724037937281972010117004+38717-077183SAO  +0024DAA  V0203301N00101075001EN0112001N9+00501-00561999999ADDGA1021+030009999GA2071+075009999GD19999+9999993GF107991999999999999999999MA1102511999999MW1001
0082724037937281972010118004+38717-077183SAO  +0024DAA  V0203301N001010300019N0112001N9+00441-00441999999ADDGA1071+030009999GA2071+075009999GF107991999999999999999999MA1102471999999MW1001
0128724037937281972010119004+38717-077183SAO  +0024DAA  V0203301N001012200019N0112001N9+00391-00441102481ADDGA1021+030009999GA2071+075009999GD19999+9999993GF107991999999999999999999MA1102471999999MD1610081+9999MW1001REMAWY008608 1011
0066724037937281972010120004+38717-077183SAO  +0024DAA  V0203101N001012200019N0112001N9+00331-00441999999ADDGA1071+030009999GF107991999999999999999999MA1102441999999MW1001
0066724037937281972010121004+38717-077183SAO  +0024DAA  V0203301N003110300019N0112001N9+00331-00281999999ADDGA1081+030009999GF108991999999999999999999MA1102341999999MW1001
0097724037937281972010122004+38717-077183SAO  +0024DAA  V0203401N001010240019N0112001N9+00391-00281102281ADDGA1081+024009999GF108991999999999999999999MA1102271999999MD1810201+9999MW1001REMAWY008820 102/
0066724037937281972010123004+38717-077183SAO  +0024DAA  V0203301N001010240019N0112001N9+00331-00111999999ADDGA1081+024009999GF108991999999999999999999MA1102171999999MW1611
0066724037937281972010200004+38717-077183SAO  +0024DAA  V0209991C000010240019N0112001N9+00281+00001999999ADDGA1081+024009999GF108991999999999999999999MA1102031999999MW1611
0140724037937281972010201004+38717-077183SAO  +0024DAA  V0209991C00001024001EN0112001N9+00281+00111101891ADDAA106000391GA1021+015009999GA2081+024009999GF108991999999999999999999MA1101901999999MD1710391+9999MW1611MW2791REMAWY01873901 172/ WET RWY
0104724037937281972010202004+38717-077183SAO  +0024DAA  V0203301N002110105019N0080001N9+00281+00111999999ADDGA1071+010509999GA2081+024009999GF108991999999999999999999MA1101731999999MW1051MW2611REMAWY007WET RWY
0104724037937281972010203004+38717-077183SAO  +0024DAA  V0209991C00001006601MN0080001N9+00281+00111999999ADDGA1021+002109999GA2081+006609999GF108991999999999999999999MA1101661999999MW1111MW2611REMAWY007WET RWY
0147724037937281972010204004+38717-077183SAO  +0024DAA  V0209991C00001001801MN0048001N9+00281+00111101451ADDGA1021+001209999GA2081+001809999GF108991999999999999999999MA1101461999999MD1710441+9999MW1451MW2611REMAWY036PRESFR R- OCNLY R--/744 172/ WET RWY
0104724037937281972010205004+38717-077183SAO  +0024DAA  V0209991C000010012019N0040001N9+00331+00171999999ADDGA1071+001209999GA2081+001809999GF108991999999999999999999MA1101291999999MW1451MW2511REMAWY007WET RWY
0130724037937281972010206004+38717-077183SAO  +0024DAA  V0209991C00001000601MN0028001N9+00331+00171999999ADDGA1101+000159999GA2071+000609999GA3081+001809999GF108991999999999999999999MA1101121999999MW1451MW2511REMAWY017F2 PRESFR WET RWY
0153724037937281972010207004+38717-077183SAO  +0024DAA  V0209991C000010012019N0040001N9+00331+00221100981ADDAA106006091GA1081+001209999GF108991999999999999999999MA1100981999999MD1710471+9999MW1451MW2511REMAWY047CIG 3V5 L-- OCNLY L- / 74724 172/ 20025 WET RWY
0144724037937281972010208004+38717-077183SAO  +0024DAA  V0201201N001010012019N0016001N9+00391+00221999999ADDGA1101+000159999GA2021+000609999GA3071+001209999GA4081+003309999GF108991999999999999999999MA1100911999999MW1451MW2511REMAWY015F6 L-- OCNLY L-
0124724037937281972010209004+38717-077183SAO  +0024DAA  V0209991C000010012019N0020001N9+00391+00221999999ADDGA1101+000159999GA2021+000609999GA3081+001209999GF108991999999999999999999MA1100851999999MW1451MW2611REMAWY011F5 INTMT L-
0138724037937281972010210004+38717-077183SAO  +0024DAA  V0201201N00211000601MN0024001N9+00391+00221100861ADDGA1101+000159999GA2071+000609999GA3081+001209999GF108991999999999999999999MA1100851999999MD1510121+9999MW1451MW2511REMAWY011F3/512 17//
0088724037937281972010211004+38717-077183SAO  +0024DAA  V0200101N00261001501MN0040001N9+00441+00281999999ADDGA1021+000909999GA2081+001509999GF108991999999999999999999MA1100681999999MW1451MW2511
0082724037937281972010212004+38717-077183SAO  +0024DAA  V0200201N003610009019N0064001N9+00501+00331999999ADDGA1071+000909999GA2081+001509999GF108991999999999999999999MA1100311999999MW1451
0142724037937281972010213004+38717-077183SAO  +0024DAA  V0200801N002110012019N0080001N9+00561+00391100321ADDGA1071+001209999GA2081+001809999GF108991999999999999999999MA1100311999999MD1010111+9999MW1451MW2611REMAWY031LOWEST PRES 011 1738/55406 17//
0098724037937281972010214004+38717-077183SAO  +0024DAA  V0200601N00311002101MN0096001N9+00611+00441999999ADDGA1021+001209999GA2071+002109999GA3081+003009999GF108991999999999999999999MA1100271999999MW1451
0066724037937281972010215004+38717-077183SAO  +0024DAA  V0202801N001010027019N0096001N9+00671+00441999999ADDGA1081+002709999GF108991999999999999999999MA1100311999999MW1051
0097724037937281972010216004+38717-077183SAO  +0024DAA  V0202901N001510030019N0096001N9+00671+00441100461ADDGA1081+003009999GF108991999999999999999999MA1100471999999MD1310171+9999MW1051REMAWY008317 17//
0066724037937281972010217004+38717-077183SAO  +0024DAA  V0203101N002110150019N0096001N9+00721+00441999999ADDGA1081+015009999GF108991999999999999999999MA1100581999999MW1051
0066724037937281972010218004+38717-077183SAO  +0024DAA  V0209991C000010150019N0112001N9+00671+00391999999ADDGA1071+015009999GF107991999999999999999999MA1100711999999MW1001
0089724037937281972010219004+38717-077183SAO  +0024DAA  V0209991C000012200019N0096001N9+00501+00281100871ADDAA106999929GF100991999999999999999999MA1100881999999MD1210411+9999MW1111REMAWY00524100
0074724037937281972010220004+38717-077183SAO  +0024DAA  V0209991C000012200019N0080001N9+00281+00111999999ADDGF100991999999999999999999MA1101081999999MW1111REMAWY015CU NW-NE PRESRR
0050724037937281972010221004+38717-077183SAO  +0024DAA  V0203501N002112200019N0112001N9+00561+00001999999ADDGF100991999999999999999999MA1101221999999MW1001
0083724037937281972010222004+38717-077183SAO  +0024DAA  V0203301N004112200019N0112001N9+00561-00171101351ADDGF100991999999999999999999MA1101391999999MD1210471+9999MW1001REMAWY010PRESRR/247
0050724037937281972010223004+38717-077183SAO  +0024DAA  V0203101N001012200019N0112001N9+00391-00281999999ADDGF100991999999999999999999MA1101421999999MW1001
0050724037937281972010300004+38717-077183SAO  +0024DAA  V0203301N002112200019N0112001N9+00111-00331999999ADDGF100991999999999999999999MA1101461999999MW1001
0076724037937281972010301004+38717-077183SAO  +0024DAA  V0209991C000012200019N0112001N9+00001-00391101581ADDGF100991999999999999999999MA1101561999999MD1310221+9999MW1001REMAWY003322
0050724037937281972010302004+38717-077183SAO  +0024DAA  V0209991C000012200019N0112001N9-00111-00391999999ADDGF100991999999999999999999MA1101761999999MW1001
0050724037937281972010303004+38717-077183SAO  +0024DAA  V0209991C000012200019N0112001N9-00061-00391999999ADDGF100991999999999999999999MA1101861999999MW1001
0076724037937281972010304004+38717-077183SAO  +0024DAA  V0209991C000012200019N0112001N9-00221-00501101971ADDGF100991999999999999999999MA1101961999999MD1110391+9999MW1001REMAWY003139
0050724037937281972010305004+38717-077183SAO  +0024DAA  V0209991C000012200019N0112001N9-00221-00441999999ADDGF100991999999999999999999MA1101961999999MW1001
0050724037937281972010306004+38717-077183SAO  +0024DAA  V0209991C000012200019N0112001N9-00281-00441999999ADDGF100991999999999999999999MA1102101999999MW1001
0098724037937281972010307004+38717-077183SAO  +0024DAA  V0209991C000012200019N0112001N9-00331-00561102231ADDGF100991999999999999999999MA1102241999999MD1310251+9999MW1001REMAWY025325 20006 IR//P BA MEDIUM
0095724037937281972010308004+38717-077183SAO  +0024DAA  V0209991C000012200019N0112001N9-00331-00501999999ADDGF100991999999999999999999MA1102371999999MW1001REMAWY036AC W K DRFTG OVR FLD IR//P BA MEDIUM
0082724037937281972010309004+38717-077183SAO  +0024DAA  V0209991C000012200019N0112001N9-00061-00281999999ADDGF100991999999999999999999MA1102441999999MW1001REMAWY023KLYR NW IR//P BA MEDIUM
0076724037937281972010310004+38717-077183SAO  +0024DAA  V0209991C000012200019N0112001N9+00391-00111102521ADDGF100991999999999999999999MA1102511999999MD1110291+9999MW1001REMAWY003129
0050724037937281972010311004+38717-077183SAO  +0024DAA  V0209991C000012200019N0112001N9+00671-00111999999ADDGF100991999999999999999999MA1102511999999MW1001
0050724037937281972010312004+38717-077183SAO  +0024DAA  V0209991C000012200019N0112001N9+00831-00221999999ADDGF100991999999999999999999MA1102401999999MW1001
0076724037937281972010313004+38717-077183SAO  +0024DAA  V0202401N003112200019N0112001N9+00891-00441102421ADDGF100991999999999999999999MA1102401999999MD1610101+9999MW1001REMAWY003610
0050724037937281972010314004+38717-077183SAO  +0024DAA  V0201701N001012200019N0112001N9+00941-00561999999ADDGF100991999999999999999999MA1102441999999MW1001
0050724037937281972010315004+38717-077183SAO  +0024DAA  V0201501N001012200019N0112001N9+01001-00561999999ADDGF100991999999999999999999MA1102401999999MW1001
0076724037937281972010316004+38717-077183SAO  +0024DAA  V0201801N001512200019N0112001N9+01001-00391102441ADDGF100991999999999999999999MA1102441999999MD1310021+9999MW1001REMAWY003302
0066724037937281972010317004+38717-077183SAO  +0024DAA  V0209991C000012200019N0112001N9+00721-00391999999ADDGA1021+075009999GF102991999999999999999999MA1102401999999MW1001
0066724037937281972010318004+38717-077183SAO  +0024DAA  V0209991C000012200019N0112001N9+00501-00331999999ADDGA1021+075009999GF102991999999999999999999MA1102441999999MW1001
0076724037937281972010319004+38717-077183SAO  +0024DAA  V0209991C000012200019N0112001N9+00221-00281102491ADDGF100991999999999999999999MA1102511999999MD1310051+9999MW1001REMAWY003305
0050724037937281972010320004+38717-077183SAO  +0024DAA  V0209991C000012200019N0112001N9+00221-00281999999ADDGF100991999999999999999999MA1102541999999MW1001
0066724037937281972010321004+38717-077183SAO  +0024DAA  V0209991C000012200019N0112001N9+00001-00331999999ADDGA1021+030009999GF102991999999999999999999MA1102471999999MW1001
0097724037937281972010322004+38717-077183SAO  +0024DAA  V0209991C000012200019N0112001N9-00061-00331102491ADDGA1021+075009999GF102991999999999999999999MA1102471999999MD1010001+9999MW1001REMAWY008000 1001
0082724037937281972010323004+38717-077183SAO  +0024DAA  V0209991C000010300019N0112001N9-00061-00331999999ADDGA1071+030009999GA2071+075009999GF107991999999999999999999MA1102401999999MW1001
0097724037937281972010400004+38717-077183SAO  +0024DAA  V0209991C000012200019N0112001N9-00061-00331999999ADDGA1021+030009999GA2071+075009999GD19999+9999993GF107991999999999999999999MA1102401999999MW1001
0097724037937281972010401004+38717-077183SAO  +0024DAA  V0209991C000012200019N0112001N9-00111-00331102391ADDGA1081+030009999GF108991999999999999999999MA1102371999999MD1710101+9999MW1001REMAWY008710 101/
0066724037937281972010402004+38717-077183SAO  +0024DAA  V0209991C000012200019N0112001N9-00061-00281999999ADDGA1081+030009999GF108991999999999999999999MA1102271999999MW1001
0066724037937281972010403004+38717-077183SAO  +0024DAA  V0209991C000012200019N0112001N9-00061-00281999999ADDGA1081+030009999GF108991999999999999999999MA1102171999999MW1001
0097724037937281972010404004+38717-077183SAO  +0024DAA  V0209991C000010120019N0112001N9+00061-00171102151ADDGA1081+012009999GF108991999999999999999999MA1102131999999MD1610241+9999MW1001REMAWY008624 15//
0066724037937281972010405004+38717-077183SAO  +0024DAA  V0209991C000010114019N0112001N9+00171-00111999999ADDGA1081+011409999GF108991999999999999999999MA1102071999999MW1001
0066724037937281972010406004+38717-077183SAO  +0024DAA  V0209991C000010105019N0112001N9+00221+00001999999ADDGA1081+010509999GF108991999999999999999999MA1102071999999MW1001
0097724037937281972010407004+38717-077183SAO  +0024DAA  V0209991C000010105019N0112001N9+00281+00001101981ADDGA1081+010509999GF108991999999999999999999MA1101961999999MD1710171+9999MW1001REMAWY008717 15//
0082724037937281972010408004+38717-077183SAO  +0024DAA  V0209991C00001012001EN0112001N9+00281+00061999999ADDGA1021+006909999GA2081+012009999GF108991999999999999999999MA1101861999999MW1611
0082724037937281972010409004+38717-077183SAO  +0024DAA  V0209991C00001012001EN0112001N9+00331+00171999999ADDGA1021+006909999GA2081+012009999GF108991999999999999999999MA1101931999999MW1611
0113724037937281972010410004+38717-077183SAO  +0024DAA  V0209991C00001012001AN0112001N9+00391+00221101841ADDGA1021+006909999GA2081+012009999GF108991999999999999999999MA1101831999999MD1710141+9999MW1611REMAWY008714 17//
0088724037937281972010411004+38717-077183SAO  +0024DAA  V0209991C00001011401MN0040001N9+00441+00281999999ADDGA1021+006909999GA2081+011409999GF108991999999999999999999MA1101761999999MW1451MW2611
0119724037937281972010412004+38717-077183SAO  +0024DAA  V0209991C00001001201MN0020001N9+00501+00331999999ADDGA1021+000609999GA2071+001209999GA3081+011409999GF108991999999999999999999MA1101521999999MW1451MW2611REMAWY006PRESFR
0132724037937281972010413004+38717-077183SAO  +0024DAA  V0209991C000010012019N0020001N9+00501+00331101401ADDAA106004091GA1071+001209999GA2081+006909999GF108991999999999999999999MA1101391999999MD1710441+9999MW1451MW2611REMAWY01074415 17//
0088724037937281972010414004+38717-077183SAO  +0024DAA  V0209991C000010012019N0020001N9+00501+00331999999ADDGA1071+001209999GA2081+006909999GF108991999999999999999999MA1101351999999MW1451MW2611
0098724037937281972010415004+38717-077183SAO  +0024DAA  V0209991C00001001201MN0020001N9+00561+00391999999ADDGA1021+000609999GA2071+001209999GA3081+006909999GF108991999999999999999999MA1101191999999MW1451
0119724037937281972010416004+38717-077183SAO  +0024DAA  V0209991C000010012019N0020001N9+00561+00391101151ADDGA1071+001209999GA2081+006909999GF108991999999999999999999MA1101151999999MD1610241+9999MW1451MW2611REMAWY008624 17//
0104724037937281972010417004+38717-077183SAO  +0024DAA  V0209991C000010009019N0020001N9+00561+00441999999ADDGA1071+000909999GA2081+007209999GF108991999999999999999999MA1101121999999MW1451MW2611REMAWY007CIG 2V4
0088724037937281972010418004+38717-077183SAO  +0024DAA  V0209991C000010012019N0024001N9+00561+00441999999ADDGA1081+001209999GF108991999999999999999999MA1101021999999MW1451MW2611REMAWY007CIG RGD
0128724037937281972010419004+38717-077183SAO  +0024DAA  V0209991C000010018019N0048001N9+00561+00441101021ADDAA106004091GA1081+001809999GF108991999999999999999999MA1101021999999MD1610141+9999MW1451MW2611REMAWY022STFRA ALQDS/61417 172/
0088724037937281972010420004+38717-077183SAO  +0024DAA  V0209991C000012200019N0032001N9+00561+00441999999ADDGA1081+220009999GF108991999999999999999999MA1100981999999MW1451MW2611REMAWY007CIG 7V9
0088724037937281972010421004+38717-077183SAO  +0024DAA  V0209991C000011200019N0016001N9+00561+00441999999ADDGA1081+120009999GF108991999999999999999999MA1100881999999MW1451MW2611REMAWY007CIG 3V5
0098724037937281972010422004+38717-077183SAO  +0024DAA  V0209991C000010006019N0008001N9+00561+00441100841ADDGA1091+000609999GF109991999999999999999999MA1100851999999MD1710191+9999MW1451MW2611REMAWY003719
0115724037937281972010423004+38717-077183SAO  +0024DAA  V0209991C00001000601MN0016001N9+00561+00441999999ADDGA1101+000159999GA2071+000609999GA3081+004509999GF108991999999999999999999MA1100811999999MW1451MW2611REMAWY002F4
0088724037937281972010500004+38717-077183SAO  +0024DAA  V0209991C000010009019N0016001N9+00561+00441999999ADDGA1071+000909999GA2081+003609999GF108991999999999999999999MA1100711999999MW1451MW2611
0140724037937281972010501004+38717-077183SAO  +0024DAA  V0209991C000010009019N0016001N9+00611+00441100551ADDAA106009091GA1071+000909999GA2081+004509999GF108991999999999999999999MA1100581999999MD1810291+9999MW1451MW2611REMAWY01882935 172/ WET RWY
0088724037937281972010502004+38717-077183SAO  +0024DAA  V0209991C000010006019N0016001N9+00611+00501999999ADDGA1071+000609999GA2081+004509999GF108991999999999999999999MA1100511999999MW1451MW2611
0088724037937281972010503004+38717-077183SAO  +0024DAA  V0209991C000010006019N0016001N9+00611+00441999999ADDGA1071+000609999GA2081+004509999GF108991999999999999999999MA1100511999999MW1451MW2511
0119724037937281972010504004+38717-077183SAO  +0024DAA  V0209991C000010009019N0016001N9+00611+00501100451ADDGA1071+000909999GA2081+004509999GF108991999999999999999999MA1100441999999MD1610101+9999MW1451MW2511REMAWY008610 172/
0088724037937281972010505004+38717-077183SAO  +0024DAA  V0209991C000010009019N0016001N9+00611+00501999999ADDGA1071+000909999GA2081+004509999GF108991999999999999999999MA1100341999999MW1451MW2511
0088724037937281972010506004+38717-077183SAO  +0024DAA  V0209991C000010009019N0016001N9+00611+00441999999ADDGA1071+000909999GA2081+004509999GF108991999999999999999999MA1100271999999MW1451MW2511
0122724037937281972010507004+38717-077183SAO  +0024DAA  V0209991C000010006019N0024001N9+00611+00501100311ADDAA106002091GA1081+000609999GF108991999999999999999999MA1100311999999MD1510141+9999MW1451MW2511REMAWY01651406 102/ 20073
0072724037937281972010508004+38717-077183SAO  +0024DAA  V0209991C000010012019N0032001N9+00611+00501999999ADDGA1081+001209999GF108991999999999999999999MA1100411999999MW1451MW2611
0122724037937281972010509004+38717-077183SAO  +0024DAA  V0203301N00411003001MN0036001N9+00611+00501999999ADDGA1021+002109999GA2071+003009999GA3081+009009999GF108991999999999999999999MA1100581999999MW1451MW2611REMAWY009BKN V SCT
0135724037937281972010510004+38717-077183SAO  +0024DAA  V0209991C00001009001MN0048001N9+00671+00501100691ADDGA1021+003009999GA2071+009009999GA3081+015009999GF108991999999999999999999MA1100681999999MD1110371+9999MW1451MW2611REMAWY008137 157/
0096724037937281972010511004+38717-077183SAO  +0024DAA  V0203401N00511005401MN0032001N9+00671+00441999999ADDGA1021+002409999GA2081+005409999GF108991999999999999999999MA1100781999999MW1451MW2611OC101031
0112724037937281972010512004+38717-077183SAO  +0024DAA  V0203401N00621004201MN0048001N9+00611+00391999999ADDGA1021+002409999GA2071+004209999GA3081+008409999GF108991999999999999999999MA1100811999999MW1451MW2611OC101031
0147724037937281972010513004+38717-077183SAO  +0024DAA  V0203301N005110060019N0112001N9+00561+00281100941ADDAA106006091GA1071+006009999GA2081+009009999GF108991999999999999999999MA1100951999999MD1310251+9999MW1611OC100821REMAWY023BKN BCMG SCT/32522 15//
0090724037937281972010514004+38717-077183SAO  +0024DAA  V0203401N006210090019N0112001N9+00561+00001999999ADDGA1071+009009999GA2071+024009999GF107991999999999999999999MA1101121999999MW1001OC101131
0105724037937281972010515004+38717-077183SAO  +0024DAA  V0203501N005110090019N0112001N9+00501-00111999999ADDGA1071+009009999GA2071+024009999GF107991999999999999999999MA1101321999999MW1001OC100981REMAWY006PRESRR
0128724037937281972010516004+38717-077183SAO  +0024DAA  V0203601N003112200019N0112001N9+00391-00281101481ADDGA1021+009009999GA2021+024009999GF102991999999999999999999MA1101461999999MD1210541+9999MW1001OC100981REMAWY015PRESRR/254 1570
0105724037937281972010517004+38717-077183SAO  +0024DAA  V0200201N004112200019N0112001N9+00331-00501999999ADDGA1021+009009999GA2021+024009999GF102991999999999999999999MA1101631999999MW1001OC101181REMAWY006PRESRR
0090724037937281972010518004+38717-077183SAO  +0024DAA  V0200401N003112200019N0112001N9+00221-00561999999ADDGA1021+009009999GA2021+024009999GF102991999999999999999999MA1101761999999MW1001OC100721
0126724037937281972010519004+38717-077183SAO  +0024DAA  V0203401N003112200019N0112001N9+00171-00611101871ADDAA106999929GA1021+009009999GA2021+024009999GF102991999999999999999999MA1101861999999MD1210391+9999MW1001REMAWY01023900 1570
0058724037937281972010520004+38717-077183SAO  +0024DAA  V0203401N005112200019N0112001N9+00111-00671999999ADDGF100991999999999999999999MA1101901999999MW1001OC100931
0050724037937281972010521004+38717-077183SAO  +0024DAA  V0203601N003112200019N0112001N9+00061-00831999999ADDGF100991999999999999999999MA1102031999999MW1001
0076724037937281972010522004+38717-077183SAO  +0024DAA  V0203601N002112200019N0112001N9-00061-00831102171ADDGF100991999999999999999999MA1102171999999MD1110291+9999MW1001REMAWY003129
0050724037937281972010523004+38717-077183SAO  +0024DAA  V0203401N001512200019N0112001N9-00111-00831999999ADDGF100991999999999999999999MA1102131999999MW1001
0050724037937281972010600004+38717-077183SAO  +0024DAA  V0209991C000012200019N0112001N9-00221-00831999999ADDGF100991999999999999999999MA1102171999999MW1001
0076724037937281972010601004+38717-077183SAO  +0024DAA  V0209991C000012200019N0112001N9-00221-00891102191ADDGF100991999999999999999999MA1102201999999MD1210021+9999MW1001REMAWY003202
0050724037937281972010602004+38717-077183SAO  +0024DAA  V0209991C000012200019N0112001N9-00331-00831999999ADDGF100991999999999999999999MA1102241999999MW1001
0050724037937281972010603004+38717-077183SAO  +0024DAA  V0209991C000012200019N0112001N9-00501-00831999999ADDGF100991999999999999999999MA1102301999999MW1001
0076724037937281972010604004+38717-077183SAO  +0024DAA  V0209991C000012200019N0112001N9-00501-00781102331ADDGF100991999999999999999999MA1102301999999MD1110141+9999MW1001REMAWY003114
0066724037937281972010605004+38717-077183SAO  +0024DAA  V0209991C000012200019N0112001N9-00611-00831999999ADDGA1021+075009999GF102991999999999999999999MA1102301999999MW1001
0066724037937281972010606004+38717-077183SAO  +0024DAA  V0209991C000012200019N0112001N9-00611-00781999999ADDGA1071+075009999GF107991999999999999999999MA1102301999999MW1001
0103724037937281972010607004+38717-077183SAO  +0024DAA  V0209991C000012200019N0112001N9-00671-00891102401ADDGA1071+075009999GF107991999999999999999999MA1102371999999MD1310071+9999MW1001REMAWY014307 1001 20022
0066724037937281972010608004+38717-077183SAO  +0024DAA  V0209991C000010750019N0112001N9-00671-00891999999ADDGA1081+075009999GF108991999999999999999999MA1102401999999MW1001
0066724037937281972010609004+38717-077183SAO  +0024DAA  V0209991C000010750019N0112001N9-00441-00781999999ADDGA1071+075009999GF107991999999999999999999MA1102441999999MW1001
0097724037937281972010610004+38717-077183SAO  +0024DAA  V0209991C000012200019N0112001N9-00221-00781102481ADDGA1071+075009999GF107991999999999999999999MA1102471999999MD1310101+9999MW1001REMAWY008310 1001
0066724037937281972010611004+38717-077183SAO  +0024DAA  V0209991C000012200019N0112001N9-00111-00941999999ADDGA1071+075009999GF107991999999999999999999MA1102441999999MW1001
0079724037937281972010612004+38717-077183SAO  +0024DAA  V0201701N001012200019N0112001N9-00061-00941999999ADDGA1071+075009999GF107991999999999999999999MA1102301999999MW1001REMAWY004SC W
0103724037937281972010613004+38717-077183SAO  +0024DAA  V0202101N001512200019N0112001N9+00061-00941102131ADDGA1071+075009999GF107991999999999999999999MA1102131999999MD1810361+9999MW1001REMAWY014SC SE/836 1501
0079724037937281972010614004+38717-077183SAO  +0024DAA  V0202401N003112200019N0112001N9+00111-00891999999ADDGA1071+075009999GF107991999999999999999999MA1102071999999MW1001REMAWY004SC W
0097724037937281972010615004+38717-077183SAO  +0024DAA  V0201801N003112200019N0112001N9+00111-00831999999ADDGA1021+009009999GA2021+075009999GD19999+9999993GF102991999999999999999999MA1102001999999MW1001
0097724037937281972010616004+38717-077183SAO  +0024DAA  V0201801N002112200019N0112001N9+00171-00781102031ADDGA1021+075009999GF102991999999999999999999MA1102001999999MD1510101+9999MW1001REMAWY008510 1002
0087724037937281972010617004+38717-077183SAO  +0024DAA  V0209991C000012200019N0112001N9+00061-00721999999ADDGA1021+075009999GF102991999999999999999999MA1102001999999MW1001REMAWY012OCNL LGT WND
0066724037937281972010618004+38717-077183SAO  +0024DAA  V0209991C000012200019N0112001N9-00111-00671999999ADDGA1021+075009999GF102991999999999999999999MA1102001999999MW1001
0097724037937281972010619004+38717-077183SAO  +0024DAA  V0209991C000012200019N0112001N9-00221-00671101991ADDGA1021+075009999GF102991999999999999999999MA1102001999999MD1710031+9999MW1001REMAWY008703 1002
0066724037937281972010620004+38717-077183SAO  +0024DAA  V0209991C000012200019N0112001N9-00331-00611999999ADDGA1021+075009999GF102991999999999999999999MA1102031999999MW1001
0050724037937281972010621004+38717-077183SAO  +0024DAA  V0209991C000012200019N0112001N9-00391-00671999999ADDGF100991999999999999999999MA1102071999999MW1001
0076724037937281972010622004+38717-077183SAO  +0024DAA  V0209991C000012200019N0112001N9-00441-00671101921ADDGF100991999999999999999999MA1101931999999MD1810071+9999MW1001REMAWY003807
0050724037937281972010623004+38717-077183SAO  +0024DAA  V0209991C000012200019N0112001N9-00501-00721999999ADDGF100991999999999999999999MA1101861999999MW1001
0050724037937281972010700004+38717-077183SAO  +0024DAA  V0209991C000012200019N0112001N9-00501-00781999999ADDGF100991999999999999999999MA1101831999999MW1001
0076724037937281972010701004+38717-077183SAO  +0024DAA  V0209991C000012200019N0112001N9-00561-00831101761ADDGF100991999999999999999999MA1101761999999MD1710171+9999MW1001REMAWY003717
0050724037937281972010702004+38717-077183SAO  +0024DAA  V0209991C000012200019N0112001N9-00561-00781999999ADDGF100991999999999999999999MA1101801999999MW1001
0050724037937281972010703004+38717-077183SAO  +0024DAA  V0209991C000012200019N0112001N9-00611-00831999999ADDGF100991999999999999999999MA1101731999999MW1001
0089724037937281972010704004+38717-077183SAO  +0024DAA  V0209991C000012200019N0112001N9-00611-00891101701ADDGF100991999999999999999999MA1101691999999MD1810051+9999MW1001REMAWY016AC E-SE/805 1070
0050724037937281972010705004+38717-077183SAO  +0024DAA  V0209991C000012200019N0112001N9-00671-00891999999ADDGF100991999999999999999999MA1101661999999MW1001
0050724037937281972010706004+38717-077183SAO  +0024DAA  V0209991C000012200019N0112001N9-00721-00941999999ADDGF100991999999999999999999MA1101631999999MW1001
0088724037937281972010707004+38717-077183SAO  +0024DAA  V0209991C000012200019N0112001N9-00781-01001101631ADDGF100991999999999999999999MA1101631999999MD1610071+9999MW1001REMAWY015AC ENE/607 1070
0070724037937281972010708004+38717-077183SAO  +0024DAA  V0209991C000012200019N0112001N9-00781-00941999999ADDGF100991999999999999999999MA1101631999999MW1001REMAWY011AC DSNT ESE
0074724037937281972010709004+38717-077183SAO  +0024DAA  V0209991C000012200019N0112001N9-00171-00611999999ADDGF100991999999999999999999MA1101661999999MW1001REMAWY015K LYRS NW AC NE
0076724037937281972010710004+38717-077183SAO  +0024DAA  V0200401N002112200019N0112001N9+00111-00671101671ADDGF100991999999999999999999MA1101661999999MD1110031+9999MW1001REMAWY003103
0072724037937281972010711004+38717-077183SAO  +0024DAA  V0202901N002612200019N0112001N9+00501-00611999999ADDGF100991999999999999999999MA1101661999999MW1001OC100621REMAWY005SC NW
0073724037937281972010712004+38717-077183SAO  +0024DAA  V0202801N004112200019N0112001N9+00671-00611999999ADDGF100991999999999999999999MA1101561999999MW1001OC100871REMAWY006CU W-N
0098724037937281972010713004+38717-077183SAO  +0024DAA  V0202901N007712200019N0112001N9+00831-00671101531ADDGF100991999999999999999999MA1101561999999MD1810141+9999MW1001OC101291REMAWY017CU ALQDS/814 1100
0091724037937281972010714004+38717-077183SAO  +0024DAA  V0203201N011312200019N0112001N9+00781-00721999999ADDGF100991999999999999999999MA1101631999999MW1001OC101851REMAWY024CU ALQDS PK WND 32/38 40
0075724037937281972010715004+38717-077183SAO  +0024DAA  V0203101N007212200019N0112001N9+00781-00781999999ADDGF100991999999999999999999MA1101761999999MW1001OC101441REMAWY008CU ALQDS
0099724037937281972010716004+38717-077183SAO  +0024DAA  V0203401N007212200019N0112001N9+00721-00891101891ADDGF100991999999999999999999MA1101861999999MD1210361+9999MW1001OC101291REMAWY018CU DSNT E/236 1100
0058724037937281972010717004+38717-077183SAO  +0024DAA  V0203001N007212200019N0112001N9+00561-00891999999ADDGF100991999999999999999999MA1101961999999MW1001OC101031
0050724037937281972010718004+38717-077183SAO  +0024DAA  V0203001N006212200019N0112001N9+00441-00891999999ADDGF100991999999999999999999MA1102031999999MW1001
0076724037937281972010719004+38717-077183SAO  +0024DAA  V0209991C000012200019N0112001N9+00111-00831102181ADDGF100991999999999999999999MA1102171999999MD1210291+9999MW1001REMAWY003229
0050724037937281972010720004+38717-077183SAO  +0024DAA  V0209991C000012200019N0112001N9-00111-00781999999ADDGF100991999999999999999999MA1102271999999MW1001
0050724037937281972010721004+38717-077183SAO  +0024DAA  V0209991C000012200019N0112001N9-00171-00721999999ADDGF100991999999999999999999MA1102341999999MW1001
0076724037937281972010722004+38717-077183SAO  +0024DAA  V0209991C000012200019N0112001N9-00221-00721102331ADDGF100991999999999999999999MA1102341999999MD1110151+9999MW1001REMAWY003115
0050724037937281972010723004+38717-077183SAO  +0024DAA  V0209991C000012200019N0112001N9-00331-00671999999ADDGF100991999999999999999999MA1102401999999MW1001
0050724037937281972010800004+38717-077183SAO  +0024DAA  V0209991C000012200019N0112001N9-00331-00721999999ADDGF100991999999999999999999MA1102471999999MW1001
0097724037937281972010801004+38717-077183SAO  +0024DAA  V0203101N004112200019N0112001N9-00061-00721102591ADDGA1021+030009999GF102991999999999999999999MA1102571999999MD1310251+9999MW1001REMAWY008325 1070
0066724037937281972010802004+38717-077183SAO  +0024DAA  V0202701N001512200019N0112001N9+00281-00671999999ADDGA1021+030009999GF102991999999999999999999MA1102641999999MW1001
0067724037937281972010803004+38717-077183SAO  +0024DAA  V0202601N002612200019N0112001N9+00171-00671999999ADDGF100991999999999999999999MA1102811999999MW1001REMAWY008AC ALQDS
0076724037937281972010804004+38717-077183SAO  +0024DAA  V0202601N001012200019N0112001N9+00281-00721102891ADDGF100991999999999999999999MA1102881999999MD1110301+9999MW1001REMAWY003130
0050724037937281972010805004+38717-077183SAO  +0024DAA  V0203001N002612200019N0112001N9+00171-00721999999ADDGF100991999999999999999999MA1102951999999MW1001
0050724037937281972010806004+38717-077183SAO  +0024DAA  V0202701N002112200019N0112001N9+00111-00721999999ADDGF100991999999999999999999MA1103051999999MW1001
0089724037937281972010807004+38717-077183SAO  +0024DAA  V0202901N002112200019N0112001N9+00061-00781103191ADDGF100991999999999999999999MA1103181999999MD1210291+9999MW1001REMAWY016CS SE-S/229 1008
0066724037937281972010808004+38717-077183SAO  +0024DAA  V0209991C000012200019N0112001N9-00111-00781999999ADDGA1071+075009999GF107991999999999999999999MA1103251999999MW1001
0066724037937281972010809004+38717-077183SAO  +0024DAA  V0203201N002112200019N0112001N9+00171-00671999999ADDGA1081+075009999GF108991999999999999999999MA1103351999999MW1001
0105724037937281972010810004+38717-077183SAO  +0024DAA  V0203401N004112200019N0112001N9+00391-00721103441ADDGA1081+075009999GF108991999999999999999999MA1103421999999MD1210251+9999MW1001OC100931REMAWY008225 1007
0066724037937281972010811004+38717-077183SAO  +0024DAA  V0203401N003612200019N0112001N9+00441-00721999999ADDGA1071+075009999GF107991999999999999999999MA1103391999999MW1001
0066724037937281972010812004+38717-077183SAO  +0024DAA  V0203601N003112200019N0112001N9+00561-00721999999ADDGA1071+075009999GF107991999999999999999999MA1103321999999MW1001
0097724037937281972010813004+38717-077183SAO  +0024DAA  V0203001N001012200019N0112001N9+00561-00721103241ADDGA1021+075009999GF102991999999999999999999MA1103221999999MD1810201+9999MW1001REMAWY008820 1008
0066724037937281972010814004+38717-077183SAO  +0024DAA  V0201301N002112200019N0112001N9+00611-00721999999ADDGA1021+075009999GF102991999999999999999999MA1103221999999MW1001
0066724037937281972010815004+38717-077183SAO  +0024DAA  V0209991C000012200019N0112001N9+00611-00831999999ADDGA1021+075009999GF102991999999999999999999MA1103251999999MW1001
0090724037937281972010816004+38717-077183SAO  +0024DAA  V0203301N002112200019N0112001N9+00611-00781103271ADDGF100991999999999999999999MA1103251999999MD1310031+9999MW1001REMAWY017CI ALQDS/303 1001
0066724037937281972010817004+38717-077183SAO  +0024DAA  V0209991C000012200019N0112001N9+00391-00721999999ADDGA1021+075009999GF102991999999999999999999MA1103181999999MW1001
0066724037937281972010818004+38717-077183SAO  +0024DAA  V0209991C000012200019N0112001N9+00001-00721999999ADDGA1021+075009999GF102991999999999999999999MA1103181999999MW1001
0097724037937281972010819004+38717-077183SAO  +0024DAA  V0209991C000012200019N0112001N9-00061-00611103221ADDGA1021+075009999GF102991999999999999999999MA1103221999999MD1510051+9999MW1001REMAWY008505 1001
0050724037937281972010820004+38717-077183SAO  +0024DAA  V0209991C000012200019N0112001N9-00171-00611999999ADDGF100991999999999999999999MA1103181999999MW1001
0050724037937281972010821004+38717-077183SAO  +0024DAA  V0209991C000012200019N0112001N9-00221-00671999999ADDGF100991999999999999999999MA1103151999999MW1001
0076724037937281972010822004+38717-077183SAO  +0024DAA  V0209991C000012200019N0112001N9-00281-00611103101ADDGF100991999999999999999999MA1103081999999MD1810121+9999MW1001REMAWY003812
0066724037937281972010823004+38717-077183SAO  +0024DAA  V0209991C000012200019N0112001N9-00331-00611999999ADDGA1021+075009999GF102991999999999999999999MA1103011999999MW1001
0063724037937281972010900004+38717-077183SAO  +0024DAA  V0209991C000012200019N0112001N9-00331-00671999999ADDGF100991999999999999999999MA1102951999999MW1001REMAWY004CI W
0086724037937281972010901004+38717-077183SAO  +0024DAA  V0203601N001012200019N0112001N9+00061-00331102881ADDGF100991999999999999999999MA1102881999999MD1610221+9999MW1001REMAWY013CI W/622 1001
0066724037937281972010902004+38717-077183SAO  +0024DAA  V0203601N001012200019N0112001N9+00171-00331999999ADDGA1021+075009999GF102991999999999999999999MA1102781999999MW1001
0066724037937281972010903004+38717-077183SAO  +0024DAA  V0203601N001012200019N0112001N9+00221-00331999999ADDGA1071+075009999GF107991999999999999999999MA1102781999999MW1001
0097724037937281972010904004+38717-077183SAO  +0024DAA  V0203501N001012200019N0112001N9+00221-00281102601ADDGA1071+075009999GF107991999999999999999999MA1102611999999MD1810291+9999MW1001REMAWY008829 1001
0066724037937281972010905004+38717-077183SAO  +0024DAA  V0209991C000012200019N0112001N9+00221-00221999999ADDGA1081+075009999GF108991999999999999999999MA1102511999999MW1001
0066724037937281972010906004+38717-077183SAO  +0024DAA  V0203601N001012200019N0112001N9+00221-00221999999ADDGA1071+075009999GF107991999999999999999999MA1102401999999MW1001
0128724037937281972010907004+38717-077183SAO  +0024DAA  V0209991C000012200019N0112001N9+00171-00221102391ADDGA1021+013809999GA2071+075009999GD19999+9999993GF107991999999999999999999MA1102371999999MD1610201+9999MW1001REMAWY008620 1501
0082724037937281972010908004+38717-077183SAO  +0024DAA  V0209991C000010138019N0112001N9+00171-00111999999ADDGA1071+013809999GA2071+075009999GF107991999999999999999999MA1102341999999MW1001
0082724037937281972010909004+38717-077183SAO  +0024DAA  V0209991C000010120019N0112001N9+00281-00111999999ADDGA1071+012009999GA2081+075009999GF108991999999999999999999MA1102341999999MW1001
0129724037937281972010910004+38717-077183SAO  +0024DAA  V0200701N00101012001EN0112001N9+00331-00111102311ADDGA1021+006909999GA2071+012009999GA3081+075009999GF108991999999999999999999MA1102301999999MD1710071+9999MW1001REMAWY008707 1507
0098724037937281972010911004+38717-077183SAO  +0024DAA  V0200201N00211012001EN0112001N9+00441-00061999999ADDGA1021+006909999GA2071+012009999GA3081+075009999GF108991999999999999999999MA1102171999999MW1001
0107724037937281972010912004+38717-077183SAO  +0024DAA  V0200201N00411075001EN0112001N9+00501+00001999999ADDGA1021+012009999GA2081+075009999GF108991999999999999999999MA1101861999999MW1001REMAWY016SCT V BKN PRESFR
0126724037937281972010913004+38717-077183SAO  +0024DAA  V0209991C000010120019N0112001N9+00561+00061101701ADDGA1071+012009999GA2081+030009999GF108991999999999999999999MA1101691999999MD1710631+9999MW1001REMAWY021OCNL LGT WND/763 157/
0082724037937281972010914004+38717-077183SAO  +0024DAA  V0209991C000010120019N0112001N9+00611+00171999999ADDGA1071+012009999GA2081+024009999GF108991999999999999999999MA1101591999999MW1611
0082724037937281972010915004+38717-077183SAO  +0024DAA  V0201901N001510120019N0112001N9+00721+00221999999ADDGA1071+012009999GA2081+021009999GF108991999999999999999999MA1101521999999MW1001
0143724037937281972010916004+38717-077183SAO  +0024DAA  V0209991C00001012001EN0096001N9+00671+00331101451ADDGA1021+006909999GA2071+012009999GA3081+021009999GF108991999999999999999999MA1101421999999MD1710241+9999MW1451MW2611REMAWY016724 157/ WET RWY
0108724037937281972010917004+38717-077183SAO  +0024DAA  V0209991C00001012001EN0112001N9+00611+00331999999ADDGA1021+008409999GA2081+012009999GF108991999999999999999999MA1101391999999MW1611REMAWY017SCT V BKN WET RWY
0108724037937281972010918004+38717-077183SAO  +0024DAA  V0209991C00001015001EN0096001N9+00611+00391999999ADDGA1021+009909999GA2081+015009999GF108991999999999999999999MA1101321999999MW1611REMAWY017SCT V BKN WET RWY
0123724037937281972010919004+38717-077183SAO  +0024DAA  V0209991C000010150019N0096001N9+00611+00391101311ADDAA106005091GA1081+015009999GF108991999999999999999999MA1101321999999MD1510141+9999MW1611REMAWY023ST SW/51418 172/WET RWY
0092724037937281972010920004+38717-077183SAO  +0024DAA  V0201901N001010150019N0112001N9+00671+00501999999ADDGA1081+015009999GF108991999999999999999999MA1101221999999MW1611REMAWY017STFRA W-N WET RWY
0112724037937281972010921004+38717-077183SAO  +0024DAA  V0202301N00311015001EN0112001N9+00781+00611999999ADDGA1021+005109999GA2081+015009999GF108991999999999999999999MA1101121999999MW1611REMAWY021LWR STFRA S-W WET RWY
0156724037937281972010922004+38717-077183SAO  +0024DAA  V0202401N002110015019N0096001N9+00831+00671101091ADDGA1071+001509999GA2071+005109999GA3081+012009999GF108991999999999999999999MA1101081999999MD1610221+9999MW1611OC100571REMAWY0275 BKN V SCT/622 172/WET RWY
0139724037937281972010923004+38717-077183SAO  +0024DAA  V0202401N004610018019N0112001N9+00891+00721999999ADDGA1071+001809999GA2071+004509999GA3081+012009999GF108991999999999999999999MA1101021999999MW1611REMAWY0326 BKN V SCT R-- OCNLY R- WET RWY
0098724037937281972011000004+38717-077183SAO  +0024DAA  V0202401N00151007501MN0112001N9+00891+00721999999ADDGA1021+003609999GA2081+007509999GF108991999999999999999999MA1100951999999MW1001REMAWY007WET RWY
0118724037937281972011001004+38717-077183SAO  +0024DAA  V0202401N002110060019N0112001N9+01001+00781100881ADDAA106004091GA1081+006009999GF108991999999999999999999MA1100881999999MD1810201+9999MW1001REMAWY01882016 17// WET RWY
0082724037937281972011002004+38717-077183SAO  +0024DAA  V0209991C000010060019N0096001N9+00891+00721999999ADDGA1071+006009999GF107991999999999999999999MA1100911999999MW1111REMAWY007WET RWY
0095724037937281972011003004+38717-077183SAO  +0024DAA  V0209991C000012200019N0112001N9+00941+00781999999ADDGA1021+012009999GF102991999999999999999999MA1100881999999MW1001REMAWY020OCNL LGT WND/WET RWY
0121724037937281972011004004+38717-077183SAO  +0024DAA  V0209991C00001024001EN0112001N9+00941+00781100881ADDGA1021+012009999GA2071+024009999GF107991999999999999999999MA1100881999999MD1010001+9999MW1001REMAWY016000 1510 WET RWY
0098724037937281972011005004+38717-077183SAO  +0024DAA  V0209991C00001024001EN0112001N9+00891+00721999999ADDGA1021+012009999GA2071+024009999GF107991999999999999999999MA1100881999999MW1001REMAWY007WET RWY
0123724037937281972011006004+38717-077183SAO  +0024DAA  V0209991C000010240019N0040001N9+00781+00671999999ADDGA1021+002709999GA2021+012009999GA3071+024009999GF107991999999999999999999MA1100911999999MW1111REMAWY016VSBY NW1 WET RWY
0127724037937281972011007004+38717-077183SAO  +0024DAA  V0209991C000010024019N0096001N9+00501+00331100971ADDGA1071+002409999GA2081+024009999GF108991999999999999999999MA1100981999999MD1310081+9999MW1111REMAWY022308 151/ 20034 WET RWY
0114724037937281972011008004+38717-077183SAO  +0024DAA  V0209991C000010030019N0002001N9+00501+00391999999ADDGA1071+003009999GA2071+012009999GA3081+024009999GF108991999999999999999999MA1101051999999MW1111REMAWY007WET RWY
0125724037937281972011009004+38717-077183SAO  +0024DAA  V0209991C000010120019N0016001N9+00611+00501999999ADDGA1101+000159999GA2021+002709999GA3071+012009999GA4071+075009999GF107991999999999999999999MA1101151999999MW1111REMAWY002F1
0129724037937281972011010004+38717-077183SAO  +0024DAA  V0209991C000010240019N0064001N9+00941+00831101191ADDGA1021+002709999GA2021+012009999GA3071+024009999GF107991999999999999999999MA1101191999999MD1210221+9999MW1111REMAWY008222 1550
0098724037937281972011011004+38717-077183SAO  +0024DAA  V0209991C000010240019N0112001N9+01111+00941999999ADDGA1021+002709999GA2021+012009999GA3081+024009999GF108991999999999999999999MA1101191999999MW1001
0088724037937281972011012004+38717-077183SAO  +0024DAA  V0209991C000010033019N0096001N9+01171+00941999999ADDGA1071+003309999GA2081+012009999GF108991999999999999999999MA1101121999999MW1451MW2611
0156724037937281972011013004+38717-077183SAO  +0024DAA  V0209991C00001003601MN0096001N9+01111+01001100971ADDAA106001091GA1021+002709999GA2071+003609999GA3081+012009999GF108991999999999999999999MA1100981999999MD1810221+9999MW1451MW2611REMAWY01882204 15// WET RWY
0117724037937281972011014004+38717-077183SAO  +0024DAA  V0209991C000010021019N0080001N9+01111+01001999999ADDGA1071+002109999GA2081+003609999GF108991999999999999999999MA1100981999999MW1451MW2611REMAWY0203 MI W 5 BKN/WET RWY
0088724037937281972011015004+38717-077183SAO  +0024DAA  V0209991C000010021019N0040001N9+01111+01061999999ADDGA1081+002109999GF108991999999999999999999MA1100981999999MW1451MW2611REMAWY007WET RWY
0111724037937281972011016004+38717-077183SAO  +0024DAA  V0209991C000010015019N0040001N9+01171+01061100971ADDGA1081+001509999GF108991999999999999999999MA1100981999999MD1510001+9999MW1451MW2611REMAWY016500 17// WET RWY
0117724037937281972011017004+38717-077183SAO  +0024DAA  V0209991C00001000901MN0024001N9+01171+01061999999ADDGA1101+000159999GA2071+000909999GA3081+001809999GF108991999999999999999999MA1100951999999MW1451REMAWY010F1 WET RWY
0133724037937281972011018004+38717-077183SAO  +0024DAA  V0209991C000010009019N0020001N9+01171+01061999999ADDGA1101+000159999GA2021+000309999GA3081+000909999GF108991999999999999999999MA1100951999999MW1451MW2611REMAWY020F2 INTMT R-- WET RWY
0159724037937281972011019004+38717-077183SAO  +0024DAA  V0201301N001010009019N0012001N9+01111+01061101041ADDAA106002091GA1101+000159999GA2021+000309999GA3081+000909999GF108991999999999999999999MA1101051999999MD1310071+9999MW1451MW2611REMAWY021F8/30708 17// WET RWY
0140724037937281972011020004+38717-077183SAO  +0024DAA  V0209991C000010006019N0020001N9+01111+01001999999ADDGA1101+000159999GA2021+000309999GA3081+000609999GF108991999999999999999999MA1101051999999MW1451REMAWY033F2 VSBY SE 1 7/8 NW 1 1/2 WET RWY
0082724037937281972011021004+38717-077183SAO  +0024DAA  V0209991C000010006019N0004001N9+01061+01001999999ADDGA1091+000609999GF109991999999999999999999MA1101051999999MW1451REMAWY007WET RWY
0100724037937281972011022004+38717-077183SAO  +0024DAA  V0209991C000010009019N0004001N9+01061+01001101071ADDGA1091+000909999GF109991999999999999999999MA1101051999999MD1010031+9999MW1451REMAWY011003 WET RWY
0082724037937281972011023004+38717-077183SAO  +0024DAA  V0209991C000010006019N0002001N9+01061+01001999999ADDGA1091+000609999GF109991999999999999999999MA1101021999999MW1451REMAWY007WET RWY
0082724037937281972011100004+38717-077183SAO  +0024DAA  V0209991C000010006019N0001001N9+01061+01001999999ADDGA1091+000609999GF109991999999999999999999MA1100951999999MW1451REMAWY007WET RWY
0113724037937281972011101004+38717-077183SAO  +0024DAA  V0209991C000010006019N0002001N9+01061+00941100921ADDAA106000391GA1091+000609999GF109991999999999999999999MA1100911999999MD1610151+9999MW1451REMAWY01361501 WET RWY
0117724037937281972011102004+38717-077183SAO  +0024DAA  V0209991C00001000901MN0006001N9+01061+00941999999ADDGA1101+000159999GA2071+000909999GA3081+003609999GF108991999999999999999999MA1100911999999MW1451REMAWY010F9 WET RWY
0117724037937281972011103004+38717-077183SAO  +0024DAA  V0209991C00001000601MN0008001N9+01001+00941999999ADDGA1101+000159999GA2071+000609999GA3081+003609999GF108991999999999999999999MA1101021999999MW1451REMAWY010F9 WET RWY
0150724037937281972011104004+38717-077183SAO  +0024DAA  V0209991C000010036019N0016001N9+01061+01001100951ADDGA1101+000159999GA2021+000609999GA3081+003609999GF108991999999999999999999MA1100951999999MD1010031+9999MW1451REMAWY029F6 VSBY E2 / 003 16// WET RWY
0082724037937281972011105004+38717-077183SAO  +0024DAA  V0209991C000010006019N0008001N9+01001+00941999999ADDGA1091+000609999GF109991999999999999999999MA1100981999999MW1451REMAWY007WET RWY
0082724037937281972011106004+38717-077183SAO  +0024DAA  V0209991C000010006019N0004001N9+00941+00831999999ADDGA1091+000609999GF109991999999999999999999MA1100981999999MW1451REMAWY007WET RWY
0125724037937281972011107004+38717-077183SAO  +0024DAA  V0209991C000010006019N0003001N9+00891+00831101181ADDAA106999929GA1091+000609999GF109991999999999999999999MA1101191999999MD1310221+9999MW1451MW2511REMAWY01932200 20013 WET RWY
0124724037937281972011108004+38717-077183SAO  +0024DAA  V0209991C00001000601MN0008001N9+00941+00831999999ADDGA1101+000159999GA2071+000609999GA3081+018009999GF108991999999999999999999MA1101221999999MW1451MW2511REMAWY011F8 VSBY NE1
0106724037937281972011109004+38717-077183SAO  +0024DAA  V0209991C000010006019N0048001N9+01171+01061999999ADDGA1071+000609999GA2081+018009999GF108991999999999999999999MA1101321999999MW1111MW2611REMAWY009BKN V SCT
0135724037937281972011110004+38717-077183SAO  +0024DAA  V0209991C00001003601EN0048001N9+01171+01061101301ADDGA1021+001509999GA2071+003609999GA3081+018009999GF108991999999999999999999MA1101291999999MD1010121+9999MW1111MW2611REMAWY008012 172/
0082724037937281972011111004+38717-077183SAO  +0024DAA  V0202501N002110120019N0112001N9+01281+01171999999ADDGA1071+012009999GA2081+024009999GF108991999999999999999999MA1101321999999MW1001
0114724037937281972011112004+38717-077183SAO  +0024DAA  V0202001N001010300019N0112001N9+01391+01221999999ADDGA1021+007509999GA2021+012009999GA3071+030009999GA4081+075009999GF108991999999999999999999MA1101221999999MW1001
0142724037937281972011113004+38717-077183SAO  +0024DAA  V0209991C000010750019N0112001N9+01441+01221101061ADDAA106003091GA1021+007509999GA2021+024009999GA3081+075009999GF108991999999999999999999MA1101051999999MD1810241+9999MW1001REMAWY01082410 1677
0114724037937281972011114004+38717-077183SAO  +0024DAA  V0201901N001510240019N0112001N9+01441+01171999999ADDGA1021+007509999GA2021+015009999GA3071+024009999GA4081+075009999GF108991999999999999999999MA1100981999999MW1001
0082724037937281972011115004+38717-077183SAO  +0024DAA  V0201701N00311075001EN0112001N9+01441+01111999999ADDGA1021+024009999GA2081+075009999GF108991999999999999999999MA1100981999999MW1001
0125724037937281972011116004+38717-077183SAO  +0024DAA  V0201601N003110090019N0112001N9+01441+01111100981ADDGA1071+009009999GA2081+075009999GF108991999999999999999999MA1100951999999MD1610081+9999MW1001REMAWY020LWR CLDS SE/608 1507
0098724037937281972011117004+38717-077183SAO  +0024DAA  V0209991C000010045019N0112001N9+01281+01061999999ADDGA1071+004509999GA2071+015009999GA3071+075009999GF107991999999999999999999MA1100981999999MW1001
0098724037937281972011118004+38717-077183SAO  +0024DAA  V0209991C000010045019N0112001N9+01281+01061999999ADDGA1071+004509999GA2071+015009999GA3071+075009999GF107991999999999999999999MA1100981999999MW1001
0129724037937281972011119004+38717-077183SAO  +0024DAA  V0202001N001010057019N0112001N9+01391+01061100951ADDGA1071+005709999GA2071+015009999GA3081+075009999GF108991999999999999999999MA1100911999999MD1810031+9999MW1001REMAWY008803 1507
0102724037937281972011120004+38717-077183SAO  +0024DAA  V0202001N001510057019N0112001N9+01281+00941999999ADDGA1071+005709999GA2071+075009999GF107991999999999999999999MA1100951999999MW1001REMAWY01119BKN V SCT
0082724037937281972011121004+38717-077183SAO  +0024DAA  V0209991C000012200019N0112001N9+01171+00941999999ADDGA1021+005709999GA2021+075009999GF102991999999999999999999MA1100981999999MW1001
0097724037937281972011122004+38717-077183SAO  +0024DAA  V0209991C000010150019N0112001N9+01111+00941101041ADDGA1071+015009999GF107991999999999999999999MA1101051999999MD1210101+9999MW1001REMAWY008210 1500
0066724037937281972011123004+38717-077183SAO  +0024DAA  V0209991C000010150019N0112001N9+01001+00831999999ADDGA1071+015009999GF107991999999999999999999MA1101081999999MW1001
0066724037937281972011200004+38717-077183SAO  +0024DAA  V0209991C000012200019N0048001N9+00781+00611999999ADDGA1021+015009999GF102991999999999999999999MA1101151999999MW1111
0097724037937281972011201004+38717-077183SAO  +0024DAA  V0209991C000012200019N0112001N9+00831+00671101221ADDGA1021+015009999GF102991999999999999999999MA1101221999999MD1310191+9999MW1001REMAWY008319 1500
0084724037937281972011202004+38717-077183SAO  +0024DAA  V0209991C000012200019N0112001N9+00781+00671999999ADDGA1021+015009999GF102991999999999999999999MA1101291999999MW1001REMAWY009SCT V BKN
0121724037937281972011203004+38717-077183SAO  +0024DAA  V0209991C000012200019N0048001N9+00611+00441999999ADDGA1101+000159999GA2021+015009999GF102991999999999999999999MA1101421999999MW1111REMAWY030F4 VSBY E2 1/2 VSBY DCRG SLOLY
0082724037937281972011204004+38717-077183SAO  +0024DAA  V0209991C000012200019N0080001N9+00441+00281101531ADDGF100991999999999999999999MA1101521999999MD1210301+9999MW1051MW2111REMAWY003230
0066724037937281972011205004+38717-077183SAO  +0024DAA  V0209991C000012200019N0112001N9+00391+00281999999ADDGF100991999999999999999999MA1101561999999MW1001REMAWY007SHLW GF
0050724037937281972011206004+38717-077183SAO  +0024DAA  V0209991C000012200019N0112001N9+00501+00001999999ADDGF100991999999999999999999MA1101661999999MW1001
0092724037937281972011207004+38717-077183SAO  +0024DAA  V0209991C000012200019N0112001N9+00441-00111101771ADDGF100991999999999999999999MA1101801999999MD1210251+9999MW1001REMAWY019AC E/225 1070 20010
0068724037937281972011208004+38717-077183SAO  +0024DAA  V0209991C000012200019N0112001N9+00221-00171999999ADDGF100991999999999999999999MA1101861999999MW1001REMAWY009AC E SC N
0064724037937281972011209004+38717-077183SAO  +0024DAA  V0209991C000012200019N0112001N9+00561+00171999999ADDGF100991999999999999999999MA1102001999999MW1001REMAWY005SC NE
0076724037937281972011210004+38717-077183SAO  +0024DAA  V0209991C000012200019N0112001N9+00891-00111102061ADDGF100991999999999999999999MA1102071999999MD1210291+9999MW1001REMAWY003229
0050724037937281972011211004+38717-077183SAO  +0024DAA  V0201601N002112200019N0112001N9+01001-00171999999ADDGF100991999999999999999999MA1102101999999MW1001
0071724037937281972011212004+38717-077183SAO  +0024DAA  V0209991C000012200019N0112001N9+01111-00281999999ADDGF100991999999999999999999MA1102001999999MW1001REMAWY012WND LGT VRBL
0123724037937281972011213004+38717-077183SAO  +0024DAA  V0201401N003112200019N0112001N9+01221-00221101911ADDGA1021+030009999GA2021+075009999GF102991999999999999999999MA1101901999999MD1710151+9999MW1001REMAWY018ACSL NE-E/715 1041
0082724037937281972011214004+38717-077183SAO  +0024DAA  V0201701N003112200019N0112001N9+01331-00111999999ADDGA1021+030009999GA2021+075009999GF102991999999999999999999MA1101831999999MW1001
0082724037937281972011215004+38717-077183SAO  +0024DAA  V0201701N004112200019N0112001N9+01331-00061999999ADDGA1021+030009999GA2021+075009999GF102991999999999999999999MA1101801999999MW1001
0107724037937281972011216004+38717-077183SAO  +0024DAA  V0201701N003112200019N0112001N9+01281-00111101831ADDGA1021+030009999GF102991999999999999999999MA1101831999999MD1510081+9999MW1001REMAWY018ACSL W-NW/508 1040
0066724037937281972011217004+38717-077183SAO  +0024DAA  V0201601N002612200019N0112001N9+01111-00111999999ADDGA1021+030009999GF102991999999999999999999MA1101801999999MW1001
0066724037937281972011218004+38717-077183SAO  +0024DAA  V0201401N002112200019N0112001N9+01001+00001999999ADDGA1021+030009999GF102991999999999999999999MA1101801999999MW1001
0097724037937281972011219004+38717-077183SAO  +0024DAA  V0201501N002612200019N0112001N9+01001+00221101801ADDGA1021+015009999GF102991999999999999999999MA1101801999999MD1610031+9999MW1001REMAWY008603 1500
0113724037937281972011220004+38717-077183SAO  +0024DAA  V0209991C00001015001EN0112001N9+01001+00171999999ADDGA1021+006909999GA2081+015009999GF108991999999999999999999MA1101801999999MW1001REMAWY022SCT V BKN OCNL LGT WND
0082724037937281972011221004+38717-077183SAO  +0024DAA  V0201601N00211015001EN0112001N9+01001+00281999999ADDGA1021+006909999GA2081+015009999GF108991999999999999999999MA1101761999999MW1001
0113724037937281972011222004+38717-077183SAO  +0024DAA  V0201401N002110060019N0112001N9+00941+00441101721ADDGA1071+006009999GA2081+015009999GF108991999999999999999999MA1101731999999MD1810081+9999MW1001REMAWY008808 15//
0082724037937281972011223004+38717-077183SAO  +0024DAA  V0201601N002110027019N0112001N9+01001+00671999999ADDGA1071+002709999GA2081+004509999GF108991999999999999999999MA1101661999999MW1001
0066724037937281972011300004+38717-077183SAO  +0024DAA  V0201701N003110012019N0112001N9+01061+00831999999ADDGA1081+001209999GF108991999999999999999999MA1101561999999MW1001
0097724037937281972011301004+38717-077183SAO  +0024DAA  V0201801N002110021019N0112001N9+01061+00891101501ADDGA1081+002109999GF108991999999999999999999MA1101491999999MD1810221+9999MW1001REMAWY008822 16//
0066724037937281972011302004+38717-077183SAO  +0024DAA  V0201801N001510021019N0112001N9+01111+00891999999ADDGA1081+002109999GF108991999999999999999999MA1101461999999MW1001
0066724037937281972011303004+38717-077183SAO  +0024DAA  V0209991C000010015019N0112001N9+01111+00941999999ADDGA1081+001509999GF108991999999999999999999MA1101461999999MW1001
0097724037937281972011304004+38717-077183SAO  +0024DAA  V0201901N002110012019N0096001N9+01221+01061101391ADDGA1081+001209999GF108991999999999999999999MA1101391999999MD1810101+9999MW1451REMAWY008810 16//
0082724037937281972011305004+38717-077183SAO  +0024DAA  V0202001N002111200019N0064001N9+01221+01061999999ADDGA1081+120009999GF108991999999999999999999MA1101321999999MW1451REMAWY007CIG 3V5
0082724037937281972011306004+38717-077183SAO  +0024DAA  V0209991C000011200019N0040001N9+01221+01111999999ADDGA1081+120009999GF108991999999999999999999MA1101291999999MW1451REMAWY007CIG 3V5
0134724037937281972011307004+38717-077183SAO  +0024DAA  V0201901N002111200019N0024001N9+01221+01111101261ADDAA106999929GA1081+120009999GF108991999999999999999999MA1101251999999MD1510141+9999MW1451MW2511REMAWY028CIG 3V5 VSBY NE1/ 51400 17//
0100724037937281972011308004+38717-077183SAO  +0024DAA  V0201901N001010900019N0016001N9+01281+01171999999ADDGA1081+090009999GF108991999999999999999999MA1101221999999MW1451MW2511REMAWY019CIG 2V4 VSBY SE 3/4
0066724037937281972011309004+38717-077183SAO  +0024DAA  V0201401N001010009019N0002001N9+01331+01221999999ADDGA1091+000909999GF109991999999999999999999MA1101151999999MW1451
0098724037937281972011310004+38717-077183SAO  +0024DAA  V0201601N001010009019N0004001N9+01331+01221101141ADDGA1091+000909999GF109991999999999999999999MA1101121999999MD1510121+9999MW1451MW2511REMAWY003512
0094724037937281972011311004+38717-077183SAO  +0024DAA  V0201501N001010006019N0010001N9+01391+01281999999ADDGA1081+000609999GF108991999999999999999999MA1101121999999MW1451MW2631REMAWY013VSBY NW 1 1/4
0082724037937281972011312004+38717-077183SAO  +0024DAA  V0201501N001010900019N0020001N9+01501+01331999999ADDGA1081+090009999GF108991999999999999999999MA1100981999999MW1451REMAWY007CIG 2V4
0117724037937281972011313004+38717-077183SAO  +0024DAA  V0209991C000010009019N0020001N9+01561+01441100721ADDAA106004091GA1081+000909999GF108991999999999999999999MA1100711999999MD1810421+9999MW1451REMAWY017PRESFR/84216 16//
0082724037937281972011314004+38717-077183SAO  +0024DAA  V0209991C000010018019N0048001N9+01671+01501999999ADDGA1071+001809999GA2081+003309999GF108991999999999999999999MA1100581999999MW1451
0082724037937281972011315004+38717-077183SAO  +0024DAA  V0201801N00211009901MN0112001N9+01891+01671999999ADDGA1021+003309999GA2081+009909999GF108991999999999999999999MA1100471999999MW1001
0126724037937281972011316004+38717-077183SAO  +0024DAA  V0201701N001010075019N0112001N9+01941+01671100421ADDGA1071+007509999GA2081+009909999GF108991999999999999999999MA1100411999999MD1610301+9999MW1001REMAWY021HIR CLDS VSB/630 154/
0082724037937281972011317004+38717-077183SAO  +0024DAA  V0201801N001510099019N0112001N9+01941+01611999999ADDGA1071+009909999GA2081+021009999GF108991999999999999999999MA1100371999999MW1001
0066724037937281972011318004+38717-077183SAO  +0024DAA  V0201901N001510114019N0112001N9+01941+01561999999ADDGA1081+011409999GF108991999999999999999999MA1100411999999MW1001
0110724037937281972011319004+38717-077183SAO  +0024DAA  V0201901N004110135019N0112001N9+01941+01501100341ADDAA106999929GA1081+013509999GF108991999999999999999999MA1100311999999MD1810081+9999MW1001REMAWY01080800 15//
0066724037937281972011320004+38717-077183SAO  +0024DAA  V0202201N006710135019N0112001N9+02001+01561999999ADDGA1081+013509999GF108991999999999999999999MA1100311999999MW1001
0106724037937281972011321004+38717-077183SAO  +0024DAA  V0202201N007210069019N0112001N9+01831+01561999999ADDGA1071+006909999GA2081+013809999GF108991999999999999999999MA1100311999999MW1001OC101131REMAWY007CIG RGD
0113724037937281972011322004+38717-077183SAO  +0024DAA  V0202001N00101024001EN0112001N9+01781+01441100361ADDGA1021+015009999GA2081+024009999GF108991999999999999999999MA1100341999999MD1310021+9999MW1001REMAWY008302 162/
0082724037937281972011323004+38717-077183SAO  +0024DAA  V0202301N001010138019N0112001N9+01721+01391999999ADDGA1071+013809999GA2081+024009999GF108991999999999999999999MA1100371999999MW1001
0089724037937281972011400004+38717-077183SAO  +0024DAA  V0203401N008210075019N0112001N9+01331+00831999999ADDGA1081+007509999GF108991999999999999999999MA1100581999999MW1001OC101131REMAWY006PRESRR
0134724037937281972011401004+38717-077183SAO  +0024DAA  V0203601N00671009001MN0112001N9+00721+00331100791ADDAA106000391GA1021+006909999GA2081+009009999GF108991999999999999999999MA1100781999999MD1310441+9999MW1801OC101591REMAWY01034401 15//
0121724037937281972011402004+38717-077183SAO  +0024DAA  V0203501N00821012001EN0112001N9+00671-00061999999ADDGA1021+006909999GA2071+012009999GA3081+024009999GF108991999999999999999999MA1101051999999MW1001OC101131REMAWY006PRESRR
0114724037937281972011403004+38717-077183SAO  +0024DAA  V0203601N00511024001EN0112001N9+00561-00111999999ADDGA1021+012009999GA2081+024009999GF108991999999999999999999MA1101221999999MW1001OC101181REMAWY015OCNL RW- PRESRR
0136724037937281972011404004+38717-077183SAO  +0024DAA  V0203601N005110063019N0112001N9+00331+00001101381ADDGA1071+006309999GA2081+024009999GF108991999999999999999999MA1101391999999MD1210591+9999MW1801OC101031REMAWY023RW- OCNLY RW--/259 157/
0105724037937281972011405004+38717-077183SAO  +0024DAA  V0203501N00311021001EN0112001N9+00221-00061999999ADDGA1021+006909999GA2081+021009999GF108991999999999999999999MA1101521999999MW1801OC100931REMAWY006PRESRR
0097724037937281972011406004+38717-077183SAO  +0024DAA  V0203401N005110270019N0112001N9+00171-00111999999ADDGA1071+027009999GA2071+075009999GF107991999999999999999999MA1101591999999MW1001REMAWY006SC ESE
0147724037937281972011407004+38717-077183SAO  +0024DAA  V0200101N004110270019N0112001N9+00221-00331101841ADDAA106003091GA1071+027009999GA2081+075009999GF108991999999999999999999MA1101831999999MD1310461+9999MW1001OC100621REMAWY023PRESRR/34611 1071 20028
0105724037937281972011408004+38717-077183SAO  +0024DAA  V0203501N004110270019N0112001N9+00221-00441999999ADDGA1081+027009999GF108991999999999999999999MA1101961999999MW1001OC100981REMAWY022STFRA N-E HIR CLDS VSB
0082724037937281972011409004+38717-077183SAO  +0024DAA  V0203501N004110270019N0112001N9+00281-00501999999ADDGA1071+027009999GA2081+075009999GF108991999999999999999999MA1102101999999MW1001
0121724037937281972011410004+38717-077183SAO  +0024DAA  V0203501N002110300019N0112001N9+00281-00561102251ADDGA1071+030009999GA2081+075009999GF108991999999999999999999MA1102241999999MD1310411+9999MW1001OC100671REMAWY008341 107/
0082724037937281972011411004+38717-077183SAO  +0024DAA  V0200201N004110300019N0112001N9+00331-00561999999ADDGA1071+030009999GA2081+075009999GF108991999999999999999999MA1102271999999MW1001
0082724037937281972011412004+38717-077183SAO  +0024DAA  V0203601N004110300019N0112001N9+00391-00611999999ADDGA1071+030009999GA2081+075009999GF108991999999999999999999MA1102341999999MW1001
0113724037937281972011413004+38717-077183SAO  +0024DAA  V0200101N003110300019N0112001N9+00501-00721102281ADDGA1071+030009999GA2081+075009999GF108991999999999999999999MA1102271999999MD1110031+9999MW1001REMAWY008103 1078
0082724037937281972011414004+38717-077183SAO  +0024DAA  V0203601N003112200019N0112001N9+00561-00891999999ADDGA1021+030009999GA2021+075009999GF102991999999999999999999MA1102301999999MW1001
0082724037937281972011415004+38717-077183SAO  +0024DAA  V0203601N00311075001EN0112001N9+00561-00831999999ADDGA1021+030009999GA2071+075009999GF107991999999999999999999MA1102401999999MW1001
0097724037937281972011416004+38717-077183SAO  +0024DAA  V0203601N003110750019N0112001N9+00561-00831102481ADDGA1081+075009999GF108991999999999999999999MA1102511999999MD1210201+9999MW1001REMAWY008220 1007
0097724037937281972011417004+38717-077183SAO  +0024DAA  V0203601N001512200019N0112001N9+00331-00831999999ADDGA1021+030009999GA2071+075009999GD19999+9999993GF107991999999999999999999MA1102641999999MW1001
0066724037937281972011418004+38717-077183SAO  +0024DAA  V0203501N001012200019N0112001N9+00221-00781999999ADDGA1021+075009999GF102991999999999999999999MA1102711999999MW1001
0097724037937281972011419004+38717-077183SAO  +0024DAA  V0209991C000012200019N0112001N9+00171-00831102801ADDGA1071+075009999GF107991999999999999999999MA1102811999999MD1210321+9999MW1001REMAWY008232 1008
0066724037937281972011420004+38717-077183SAO  +0024DAA  V0209991C000012200019N0112001N9+00061-00781999999ADDGA1071+075009999GF107991999999999999999999MA1102841999999MW1001
0066724037937281972011421004+38717-077183SAO  +0024DAA  V0209991C000012200019N0112001N9-00061-00671999999ADDGA1081+075009999GF108991999999999999999999MA1102881999999MW1001
0097724037937281972011422004+38717-077183SAO  +0024DAA  V0209991C000012200019N0112001N9-00111-00671102881ADDGA1021+075009999GF102991999999999999999999MA1102881999999MD1110081+9999MW1001REMAWY008108 1008
0050724037937281972011423004+38717-077183SAO  +0024DAA  V0209991C000012200019N0112001N9-00171-00561999999ADDGF100991999999999999999999MA1102811999999MW1001
0066724037937281972011500004+38717-077183SAO  +0024DAA  V0209991C000012200019N0112001N9-00171-00671999999ADDGA1071+075009999GF107991999999999999999999MA1102781999999MW1001
0097724037937281972011501004+38717-077183SAO  +0024DAA  V0209991C000012200019N0112001N9-00061-00721102781ADDGA1071+075009999GF107991999999999999999999MA1102781999999MD1610101+9999MW1001REMAWY008610 1008
0066724037937281972011502004+38717-077183SAO  +0024DAA  V0203401N002112200019N0112001N9-00061-00671999999ADDGA1071+075009999GF107991999999999999999999MA1102741999999MW1001
0066724037937281972011503004+38717-077183SAO  +0024DAA  V0203401N003112200019N0112001N9+00001-00721999999ADDGA1071+075009999GF107991999999999999999999MA1102741999999MW1001
0097724037937281972011504004+38717-077183SAO  +0024DAA  V0203501N004112200019N0112001N9+00001-00781102731ADDGA1021+075009999GF102991999999999999999999MA1102711999999MD1710051+9999MW1001REMAWY008705 1008
0074724037937281972011505004+38717-077183SAO  +0024DAA  V0203601N003112200019N0112001N9+00001-00831999999ADDGA1021+075009999GF102991999999999999999999MA1102711999999MW1001OC100721
0066724037937281972011506004+38717-077183SAO  +0024DAA  V0203601N003612200019N0112001N9+00001-00891999999ADDGA1021+075009999GF102991999999999999999999MA1102811999999MW1001
0097724037937281972011507004+38717-077183SAO  +0024DAA  V0203501N002112200019N0112001N9-00061-00941102831ADDGA1021+075009999GF102991999999999999999999MA1102811999999MD1110101+9999MW1001REMAWY008110 1008
0090724037937281972011508004+38717-077183SAO  +0024DAA  V0203601N00411075001EN0112001N9-00061-01061999999ADDGA1021+030009999GA2071+075009999GF107991999999999999999999MA1102881999999MW1001OC100721
0090724037937281972011509004+38717-077183SAO  +0024DAA  V0203501N00461075001EN0112001N9-00061-01221999999ADDGA1021+030009999GA2081+075009999GF108991999999999999999999MA1102951999999MW1001OC101031
0121724037937281972011510004+38717-077183SAO  +0024DAA  V0203401N00621075001EN0112001N9-00061-01221102941ADDGA1021+030009999GA2081+075009999GF108991999999999999999999MA1102911999999MD1010101+9999MW1001OC101031REMAWY008010 1078
0105724037937281972011511004+38717-077183SAO  +0024DAA  V0203501N004112200019N0112001N9+00001-01441999999ADDGA1021+030009999GA2081+075009999GD19999+9999993GF108991999999999999999999MA1102911999999MW1001OC101131
0090724037937281972011512004+38717-077183SAO  +0024DAA  V0203501N00621075001EN0112001N9-00111-01441999999ADDGA1021+030009999GA2081+075009999GF108991999999999999999999MA1102811999999MW1001OC101081
0126724037937281972011513004+38717-077183SAO  +0024DAA  V0203501N00511075001EN0112001N9-00061-01171102751ADDGA1021+030009999GA2081+075009999GF108991999999999999999999MA1102741999999MD1810191+9999MW1001OC101031REMAWY013SC N/819 1578
0107724037937281972011514004+38717-077183SAO  +0024DAA  V0203201N007210300019N0112001N9-00171-01221999999ADDGA1071+030009999GA2081+075009999GF108991999999999999999999MA1102781999999MW1001OC101031REMAWY008SC ALQDS
0097724037937281972011515004+38717-077183SAO  +0024DAA  V0203301N004612200019N0112001N9-00171-01221999999ADDGA1021+030009999GA2021+075009999GF102991999999999999999999MA1102741999999MW1001REMAWY006SC N-E
0121724037937281972011516004+38717-077183SAO  +0024DAA  V0203601N005112200019N0112001N9-00171-01501102791ADDGA1021+030009999GA2021+075009999GF102991999999999999999999MA1102781999999MD1310031+9999MW1001OC100931REMAWY008303 1078
0090724037937281972011517004+38717-077183SAO  +0024DAA  V0200101N004112200019N0112001N9-00561-01501999999ADDGA1021+030009999GA2021+075009999GF102991999999999999999999MA1102881999999MW1001OC101031
0089724037937281972011518004+38717-077183SAO  +0024DAA  V0200201N003112200019N0112001N9-00501-01611999999ADDGA1021+075009999GF102991999999999999999999MA1103011999999MW1001OC101231REMAWY006PRESRR
0084724037937281972011519004+38717-077183SAO  +0024DAA  V0203401N005112200019N0112001N9-00611-01781103061ADDGF100991999999999999999999MA1103051999999MD1310271+9999MW1001OC101081REMAWY003327
0066724037937281972011520004+38717-077183SAO  +0024DAA  V0203301N004112200019N0112001N9-00781-01891999999ADDGA1021+075009999GF102991999999999999999999MA1103151999999MW1001
0082724037937281972011521004+38717-077183SAO  +0024DAA  V0203401N007212200019N0112001N9-00941-02001999999ADDGA1021+030009999GA2021+075009999GF102991999999999999999999MA1103251999999MW1001
0105724037937281972011522004+38717-077183SAO  +0024DAA  V0203301N004112200019N0112001N9-01061-02111103361ADDGA1021+030009999GF102991999999999999999999MA1103351999999MD1210301+9999MW1001OC101441REMAWY008230 1070
0050724037937281972011523004+38717-077183SAO  +0024DAA  V0203601N005112200019N0112001N9-01171-02281999999ADDGF100991999999999999999999MA1103421999999MW1001
0050724037937281972011600004+38717-077183SAO  +0024DAA  V0203301N004112200019N0112001N9-01221-02391999999ADDGF100991999999999999999999MA1103421999999MW1001
0084724037937281972011601004+38717-077183SAO  +0024DAA  V0203301N010312200019N0112001N9-01331-02441103491ADDGF100991999999999999999999MA1103451999999MD1210121+9999MW1001OC101701REMAWY003212
0058724037937281972011602004+38717-077183SAO  +0024DAA  V0203301N010312200019N0112001N9-01391-02501999999ADDGF100991999999999999999999MA1103561999999MW1001OC101541
0058724037937281972011603004+38717-077183SAO  +0024DAA  V0203301N008212200019N0112001N9-01441-02501999999ADDGF100991999999999999999999MA1103661999999MW1001OC101031
0100724037937281972011604004+38717-077183SAO  +0024DAA  V0203301N007212200019N0112001N9-01501-02391103691ADDGF100991999999999999999999MA1103661999999MD1110201+9999MW1001OC101801REMAWY019PK WND 33/35 50/120
0058724037937281972011605004+38717-077183SAO  +0024DAA  V0203001N007212200019N0112001N9-01561-02391999999ADDGF100991999999999999999999MA1103731999999MW1001OC101031
0058724037937281972011606004+38717-077183SAO  +0024DAA  V0203401N006212200019N0112001N9-01561-02391999999ADDGF100991999999999999999999MA1103791999999MW1001OC101131
0084724037937281972011607004+38717-077183SAO  +0024DAA  V0203101N007212200019N0112001N9-01611-02501103921ADDGF100991999999999999999999MA1103891999999MD1210221+9999MW1001OC101081REMAWY003222
0058724037937281972011608004+38717-077183SAO  +0024DAA  V0203101N007712200019N0112001N9-01611-02441999999ADDGF100991999999999999999999MA1103961999999MW1001OC101081
0058724037937281972011609004+38717-077183SAO  +0024DAA  V0203101N006212200019N0112001N9-01441-02331999999ADDGF100991999999999999999999MA1104061999999MW1001OC101131
0084724037937281972011610004+38717-077183SAO  +0024DAA  V0203201N009312200019N0112001N9-01281-02281104151ADDGF100991999999999999999999MA1104131999999MD1210241+9999MW1001OC101341REMAWY003224
0058724037937281972011611004+38717-077183SAO  +0024DAA  V0203201N006712200019N0112001N9-01111-02221999999ADDGF100991999999999999999999MA1104031999999MW1001OC101341
0058724037937281972011612004+38717-077183SAO  +0024DAA  V0203001N006212200019N0112001N9-01061-02221999999ADDGF100991999999999999999999MA1103961999999MW1001OC101291
0084724037937281972011613004+38717-077183SAO  +0024DAA  V0203401N006712200019N0112001N9-00891-02171103901ADDGF100991999999999999999999MA1103861999999MD1710251+9999MW1001OC101131REMAWY003725
0058724037937281972011614004+38717-077183SAO  +0024DAA  V0202701N008212200019N0112001N9-00831-02221999999ADDGF100991999999999999999999MA1103831999999MW1001OC101081
0058724037937281972011615004+38717-077183SAO  +0024DAA  V0203301N005112200019N0112001N9-00831-02221999999ADDGF100991999999999999999999MA1103761999999MW1001OC101131
0076724037937281972011616004+38717-077183SAO  +0024DAA  V0202701N006712200019N0112001N9-00831-02331103841ADDGF100991999999999999999999MA1103831999999MD1510051+9999MW1001REMAWY003505
0050724037937281972011617004+38717-077183SAO  +0024DAA  V0203201N005112200019N0112001N9-00941-02331999999ADDGF100991999999999999999999MA1103831999999MW1001
0050724037937281972011618004+38717-077183SAO  +0024DAA  V0203101N003112200019N0112001N9-01001-02331999999ADDGF100991999999999999999999MA1103831999999MW1001
0076724037937281972011619004+38717-077183SAO  +0024DAA  V0203301N002112200019N0112001N9-01061-02281103841ADDGF100991999999999999999999MA1103831999999MD1410001+9999MW1001REMAWY003400
0050724037937281972011620004+38717-077183SAO  +0024DAA  V0203201N003112200019N0112001N9-01111-02281999999ADDGF100991999999999999999999MA1103831999999MW1001
0050724037937281972011621004+38717-077183SAO  +0024DAA  V0202201N001012200019N0112001N9-01171-02171999999ADDGF100991999999999999999999MA1103761999999MW1001
0076724037937281972011622004+38717-077183SAO  +0024DAA  V0203201N001012200019N0112001N9-01331-02061103741ADDGF100991999999999999999999MA1103761999999MD1610101+9999MW1001REMAWY003610
0050724037937281972011623004+38717-077183SAO  +0024DAA  V0209991C000012200019N0112001N9-01331-01891999999ADDGF100991999999999999999999MA1103761999999MW1001
0050724037937281972011700004+38717-077183SAO  +0024DAA  V0209991C000012200019N0112001N9-01331-01781999999ADDGF100991999999999999999999MA1103731999999MW1001
0076724037937281972011701004+38717-077183SAO  +0024DAA  V0209991C000012200019N0112001N9-01501-01831103641ADDGF100991999999999999999999MA1103621999999MD1810101+9999MW1001REMAWY003810
0050724037937281972011702004+38717-077183SAO  +0024DAA  V0209991C000012200019N0112001N9-01441-01721999999ADDGF100991999999999999999999MA1103591999999MW1001
0050724037937281972011703004+38717-077183SAO  +0024DAA  V0209991C000012200019N0112001N9-01441-01721999999ADDGF100991999999999999999999MA1103561999999MW1001
0076724037937281972011704004+38717-077183SAO  +0024DAA  V0209991C000012200019N0112001N9-01501-01781103451ADDGF100991999999999999999999MA1103451999999MD1710191+9999MW1001REMAWY003719
0050724037937281972011705004+38717-077183SAO  +0024DAA  V0209991C000012200019N0112001N9-01441-01781999999ADDGF100991999999999999999999MA1103391999999MW1001
0050724037937281972011706004+38717-077183SAO  +0024DAA  V0209991C000012200019N0112001N9-01061-01781999999ADDGF100991999999999999999999MA1103321999999MW1001
0090724037937281972011707004+38717-077183SAO  +0024DAA  V0201801N003112200019N0112001N9-01001-01831103331ADDGF100991999999999999999999MA1103321999999MD1610121+9999MW1001REMAWY017AC ALQDS/612 1030
0097724037937281972011708004+38717-077183SAO  +0024DAA  V0201901N001512200019N0112001N9-00941-01831999999ADDGA1021+036009999GA2021+075009999GD19999+9999993GF102991999999999999999999MA1103291999999MW1001
0071724037937281972011709004+38717-077183SAO  +0024DAA  V0202001N004112200019N0112001N9-00781-01721999999ADDGF100991999999999999999999MA1103251999999MW1001REMAWY012THN CI ALQDS
0107724037937281972011710004+38717-077183SAO  +0024DAA  V0202401N006712200019N0112001N9-00501-01721103151ADDGF100991999999999999999999MA1103151999999MD1810171+9999MW1001REMAWY034THN CI ALQDS WND 150V300/ 817 1001
0071724037937281972011711004+38717-077183SAO  +0024DAA  V0202101N005112200019N0112001N9-00281-01721999999ADDGF100991999999999999999999MA1103151999999MW1001REMAWY012THN CI ALQDS
0081724037937281972011712004+38717-077183SAO  +0024DAA  V0202301N005712200019N0112001N9+00001-01561999999ADDGA1021+075009999GF102991999999999999999999MA1102841999999MW1001REMAWY006PRESFR
0097724037937281972011713004+38717-077183SAO  +0024DAA  V0202201N004112200019N0112001N9+00111-01441102781ADDGA1021+075009999GF102991999999999999999999MA1102781999999MD1810391+9999MW1001REMAWY008839 1001
0066724037937281972011714004+38717-077183SAO  +0024DAA  V0202101N005112200019N0112001N9+00281-01501999999ADDGA1021+075009999GF102991999999999999999999MA1102641999999MW1001
0066724037937281972011715004+38717-077183SAO  +0024DAA  V0202101N004112200019N0112001N9+00391-01441999999ADDGA1021+075009999GF102991999999999999999999MA1102571999999MW1001
0097724037937281972011716004+38717-077183SAO  +0024DAA  V0202201N004112200019N0112001N9+00441-01391102581ADDGA1021+075009999GF102991999999999999999999MA1102571999999MD1610191+9999MW1001REMAWY008619 1001
0066724037937281972011717004+38717-077183SAO  +0024DAA  V0202001N002612200019N0112001N9+00391-01221999999ADDGA1021+075009999GF102991999999999999999999MA1102571999999MW1001
0066724037937281972011718004+38717-077183SAO  +0024DAA  V0201901N001012200019N0112001N9+00331-01221999999ADDGA1021+075009999GF102991999999999999999999MA1102571999999MW1001
0097724037937281972011719004+38717-077183SAO  +0024DAA  V0202101N001512200019N0112001N9+00281-01281102591ADDGA1021+075009999GF102991999999999999999999MA1102571999999MD1410001+9999MW1001REMAWY008400 1008
0050724037937281972011720004+38717-077183SAO  +0024DAA  V0202001N001012200019N0112001N9+00111-01111999999ADDGF100991999999999999999999MA1102571999999MW1001
0050724037937281972011721004+38717-077183SAO  +0024DAA  V0209991C000012200019N0112001N9+00111-01111999999ADDGF100991999999999999999999MA1102571999999MW1001
0076724037937281972011722004+38717-077183SAO  +0024DAA  V0209991C000012200019N0112001N9-00061-01171102591ADDGF100991999999999999999999MA1102571999999MD1410001+9999MW1001REMAWY003400
0050724037937281972011723004+38717-077183SAO  +0024DAA  V0209991C000012200019N0112001N9-00111-01221999999ADDGF100991999999999999999999MA1102571999999MW1001
0050724037937281972011800004+38717-077183SAO  +0024DAA  V0209991C000012200019N0112001N9-00281-01171999999ADDGF100991999999999999999999MA1102541999999MW1001
0076724037937281972011801004+38717-077183SAO  +0024DAA  V0209991C000012200019N0112001N9-00441-01001102521ADDGF100991999999999999999999MA1102511999999MD1810071+9999MW1001REMAWY003807
0050724037937281972011802004+38717-077183SAO  +0024DAA  V0209991C000012200019N0112001N9-00501-01061999999ADDGF100991999999999999999999MA1102541999999MW1001
0050724037937281972011803004+38717-077183SAO  +0024DAA  V0209991C000012200019N0112001N9-00561-01001999999ADDGF100991999999999999999999MA1102541999999MW1001
0076724037937281972011804004+38717-077183SAO  +0024DAA  V0209991C000012200019N0112001N9-00611-00941102521ADDGF100991999999999999999999MA1102511999999MD1010001+9999MW1001REMAWY003000
0050724037937281972011805004+38717-077183SAO  +0024DAA  V0209991C000012200019N0112001N9-00671-01001999999ADDGF100991999999999999999999MA1102541999999MW1001
0050724037937281972011806004+38717-077183SAO  +0024DAA  V0209991C000012200019N0112001N9-00721-01001999999ADDGF100991999999999999999999MA1102541999999MW1001
0076724037937281972011807004+38717-077183SAO  +0024DAA  V0209991C000012200019N0112001N9-00671-01001102591ADDGF100991999999999999999999MA1102571999999MD1210071+9999MW1001REMAWY003207
0071724037937281972011808004+38717-077183SAO  +0024DAA  V0209991C000012200019N0112001N9-00671-01001999999ADDGF100991999999999999999999MA1102611999999MW1001REMAWY012K LYR 15 W-N
0071724037937281972011809004+38717-077183SAO  +0024DAA  V0209991C000012200019N0112001N9-00331-00831999999ADDGF100991999999999999999999MA1102641999999MW1001REMAWY012K LYR 15 W-N
0089724037937281972011810004+38717-077183SAO  +0024DAA  V0202001N002612200019N0112001N9+00391-00941102641ADDGF100991999999999999999999MA1102641999999MD1110051+9999MW1001REMAWY016K LYR 15 W-N/105
0083724037937281972011811004+38717-077183SAO  +0024DAA  V0202001N002112200019N0112001N9+00391-00891999999ADDGF100991999999999999999999MA1102611999999MW1001REMAWY024K LYR 15 W-N WND 100V270
0083724037937281972011812004+38717-077183SAO  +0024DAA  V0202101N002112200019N0112001N9+00561-00831999999ADDGF100991999999999999999999MA1102471999999MW1001REMAWY024K LYR 15 W-N WND 140V290
0088724037937281972011813004+38717-077183SAO  +0024DAA  V0202201N001512200019N0112001N9+00721-00781102371ADDGF100991999999999999999999MA1102371999999MD1810271+9999MW1001REMAWY015WND 140V270/827
0076724037937281972011814004+38717-077183SAO  +0024DAA  V0201701N004112200019N0112001N9+01001-00721999999ADDGF100991999999999999999999MA1102271999999MW1001REMAWY017WND 100V210 CI NW
0076724037937281972011815004+38717-077183SAO  +0024DAA  V0202101N002612200019N0112001N9+01111-00611999999ADDGF100991999999999999999999MA1102241999999MW1001REMAWY017WND 120V240 CI NW
0097724037937281972011816004+38717-077183SAO  +0024DAA  V0201601N002612200019N0112001N9+01111-00611102221ADDGA1021+075009999GF102991999999999999999999MA1102201999999MD1610171+9999MW1001REMAWY008617 1001
0066724037937281972011817004+38717-077183SAO  +0024DAA  V0201601N001012200019N0112001N9+00891-00611999999ADDGA1021+075009999GF102991999999999999999999MA1102171999999MW1001
0066724037937281972011818004+38717-077183SAO  +0024DAA  V0209991C000012200019N0112001N9+00611-00611999999ADDGA1021+075009999GF102991999999999999999999MA1102171999999MW1001
0097724037937281972011819004+38717-077183SAO  +0024DAA  V0209991C000012200019N0112001N9+00281-00611102201ADDGA1021+075009999GF102991999999999999999999MA1102171999999MD1610021+9999MW1001REMAWY008602 1008
0066724037937281972011820004+38717-077183SAO  +0024DAA  V0209991C000012200019N0112001N9+00061-00561999999ADDGA1021+075009999GF102991999999999999999999MA1102131999999MW1001
0066724037937281972011821004+38717-077183SAO  +0024DAA  V0209991C000012200019N0112001N9+00391-00501999999ADDGA1021+075009999GF102991999999999999999999MA1102071999999MW1001
0128724037937281972011822004+38717-077183SAO  +0024DAA  V0202101N002112200019N0112001N9+00721-00611102051ADDGA1021+030009999GA2071+075009999GD19999+9999993GF107991999999999999999999MA1102031999999MD1710141+9999MW1001REMAWY008714 1078
0066724037937281972011823004+38717-077183SAO  +0024DAA  V0209991C000012200019N0112001N9+00721-00671999999ADDGA1021+060009999GF102991999999999999999999MA1101961999999MW1001
0105724037937281972011900004+38717-077183SAO  +0024DAA  V0201901N003612200019N0112001N9+00721-00671999999ADDGA1021+030009999GA2071+060009999GD19999+9999993GF107991999999999999999999MA1101861999999MW1001OC100721
0128724037937281972011901004+38717-077183SAO  +0024DAA  V0203001N002112200019N0112001N9+00781-00611101811ADDGA1021+030009999GA2071+075009999GD19999+9999993GF107991999999999999999999MA1101801999999MD1710241+9999MW1001REMAWY008724 1078
0066724037937281972011902004+38717-077183SAO  +0024DAA  V0202001N002112200019N0112001N9+00781-00331999999ADDGA1071+075009999GF107991999999999999999999MA1101801999999MW1001
0097724037937281972011903004+38717-077183SAO  +0024DAA  V0202101N001012200019N0112001N9+00891-00171999999ADDGA1021+030009999GA2071+075009999GD19999+9999993GF107991999999999999999999MA1101761999999MW1001
0113724037937281972011904004+38717-077183SAO  +0024DAA  V0202101N00101075001EN0112001N9+00891-00111101741ADDGA1021+030009999GA2071+075009999GF107991999999999999999999MA1101731999999MD1810071+9999MW1001REMAWY008807 1078
0066724037937281972011905004+38717-077183SAO  +0024DAA  V0202101N001010300019N0112001N9+00891-00111999999ADDGA1081+030009999GF108991999999999999999999MA1101731999999MW1001
0066724037937281972011906004+38717-077183SAO  +0024DAA  V0202101N002110300019N0112001N9+00891-00061999999ADDGA1081+030009999GF108991999999999999999999MA1101731999999MW1001
0097724037937281972011907004+38717-077183SAO  +0024DAA  V0202101N001010300019N0112001N9+00891+00001101771ADDGA1071+030009999GF107991999999999999999999MA1101801999999MD1310031+9999MW1001REMAWY008303 1070
0082724037937281972011908004+38717-077183SAO  +0024DAA  V0202101N00361075001EN0112001N9+00891+00001999999ADDGA1021+030009999GA2071+075009999GF107991999999999999999999MA1101761999999MW1001
0098724037937281972011909004+38717-077183SAO  +0024DAA  V0202501N00511024001EN0112001N9+01001+00061999999ADDGA1021+012009999GA2071+024009999GA3071+075009999GF107991999999999999999999MA1101831999999MW1001
0142724037937281972011910004+38717-077183SAO  +0024DAA  V0202301N00411024001EN0112001N9+01001+00111101911ADDGA1021+012009999GA2071+024009999GA3071+075009999GF107991999999999999999999MA1101901999999MD1310141+9999MW1001REMAWY021SCT BCMG BKN/314 1578
0098724037937281972011911004+38717-077183SAO  +0024DAA  V0202401N004110120019N0112001N9+01001+00171999999ADDGA1071+012009999GA2071+024009999GA3081+075009999GF108991999999999999999999MA1101931999999MW1001
0098724037937281972011912004+38717-077183SAO  +0024DAA  V0202601N002110120019N0112001N9+01221+00221999999ADDGA1071+012009999GA2071+024009999GA3071+075009999GF107991999999999999999999MA1101861999999MW1001
0128724037937281972011913004+38717-077183SAO  +0024DAA  V0202701N002612200019N0112001N9+01611+00441101771ADDGA1021+012009999GA2081+075009999GD19999+9999993GF108991999999999999999999MA1101761999999MD1810141+9999MW1001REMAWY008814 1107
0105724037937281972011914004+38717-077183SAO  +0024DAA  V0203001N008212200019N0112001N9+01721+00501999999ADDGA1021+012009999GA2071+075009999GD19999+9999993GF107991999999999999999999MA1101731999999MW1001OC101291
0122724037937281972011915004+38717-077183SAO  +0024DAA  V0203001N005112200019N0112001N9+01721+00331999999ADDGA1021+042009999GA2071+075009999GD19999+9999993GF107991999999999999999999MA1101731999999MW1001OC100771REMAWY008CU ALQDS
0129724037937281972011916004+38717-077183SAO  +0024DAA  V0202901N002112200019N0112001N9+01781+00391101841ADDGA1021+012009999GA2021+042009999GA3021+075009999GF102991999999999999999999MA1101831999999MD1310071+9999MW1001REMAWY008307 1171
0097724037937281972011917004+38717-077183SAO  +0024DAA  V0202901N002612200019N0112001N9+01611+00281999999ADDGA1021+042009999GA2021+075009999GD19999+9999993GF102991999999999999999999MA1101901999999MW1001
0097724037937281972011918004+38717-077183SAO  +0024DAA  V0209991C000012200019N0112001N9+01331-00111999999ADDGA1021+042009999GA2021+075009999GD19999+9999993GF102991999999999999999999MA1102071999999MW1001
0128724037937281972011919004+38717-077183SAO  +0024DAA  V0203601N003112200019N0112001N9+01221-00441102211ADDGA1021+042009999GA2021+075009999GD19999+9999993GF102991999999999999999999MA1102201999999MD1310371+9999MW1001REMAWY008337 1071
0097724037937281972011920004+38717-077183SAO  +0024DAA  V0200101N002112200019N0112001N9+01061-00891999999ADDGA1021+042009999GA2021+075009999GD19999+9999993GF102991999999999999999999MA1102341999999MW1001
0066724037937281972011921004+38717-077183SAO  +0024DAA  V0209991C000012200019N0112001N9+00941-01061999999ADDGA1021+075009999GF102991999999999999999999MA1102401999999MW1001
0076724037937281972011922004+38717-077183SAO  +0024DAA  V0209991C000012200019N0112001N9+00611-01061102381ADDGF100991999999999999999999MA1102371999999MD1110171+9999MW1001REMAWY003117
0050724037937281972011923004+38717-077183SAO  +0024DAA  V0209991C000012200019N0112001N9+00281-00781999999ADDGF100991999999999999999999MA1102441999999MW1001
0066724037937281972012000004+38717-077183SAO  +0024DAA  V0209991C000012200019N0112001N9+00001-00721999999ADDGA1021+075009999GF102991999999999999999999MA1102471999999MW1001
0097724037937281972012001004+38717-077183SAO  +0024DAA  V0209991C000012200019N0112001N9+00061-00611102481ADDGA1021+075009999GF102991999999999999999999MA1102471999999MD1110101+9999MW1001REMAWY008110 1001
0066724037937281972012002004+38717-077183SAO  +0024DAA  V0209991C000010750019N0112001N9+00001-00561999999ADDGA1081+075009999GF108991999999999999999999MA1102541999999MW1001
0066724037937281972012003004+38717-077183SAO  +0024DAA  V0209991C000010750019N0112001N9+00061-00561999999ADDGA1081+075009999GF108991999999999999999999MA1102541999999MW1001
0097724037937281972012004004+38717-077183SAO  +0024DAA  V0209991C000010750019N0112001N9+00001-00561102581ADDGA1081+075009999GF108991999999999999999999MA1102571999999MD1110101+9999MW1001REMAWY008110 1007
0066724037937281972012005004+38717-077183SAO  +0024DAA  V0209991C000010750019N0112001N9+00001-00501999999ADDGA1071+075009999GF107991999999999999999999MA1102641999999MW1001
0066724037937281972012006004+38717-077183SAO  +0024DAA  V0209991C000012200019N0112001N9+00001-00561999999ADDGA1021+075009999GF102991999999999999999999MA1102641999999MW1001
0128724037937281972012007004+38717-077183SAO  +0024DAA  V0209991C000012200019N0112001N9+00001-00561102611ADDGA1021+030009999GA2071+075009999GD19999+9999993GF107991999999999999999999MA1102641999999MD1110031+9999MW1001REMAWY008103 1011
0082724037937281972012008004+38717-077183SAO  +0024DAA  V0209991C000012200019N0112001N9-00111-00441999999ADDGA1021+030009999GA2021+075009999GF102991999999999999999999MA1102641999999MW1001
0082724037937281972012009004+38717-077183SAO  +0024DAA  V0209991C000010300019N0112001N9+00171-00441999999ADDGA1071+030009999GA2081+075009999GF108991999999999999999999MA1102541999999MW1001
0113724037937281972012010004+38717-077183SAO  +0024DAA  V0209991C000010270019N0112001N9+00281-00391102541ADDGA1071+027009999GA2081+075009999GF108991999999999999999999MA1102541999999MD1610081+9999MW1001REMAWY008608 1077
0082724037937281972012011004+38717-077183SAO  +0024DAA  V0209991C00001021001EN0112001N9+00441-00281999999ADDGA1021+015009999GA2081+021009999GF108991999999999999999999MA1102441999999MW1001
0107724037937281972012012004+38717-077183SAO  +0024DAA  V0209991C00001018001EN0112001N9+00501-00171999999ADDGA1021+012009999GA2081+018009999GF108991999999999999999999MA1102241999999MW1001REMAWY016INTMT R-- PRESFR
0126724037937281972012013004+38717-077183SAO  +0024DAA  V0209991C00001018001EN0112001N9+00561-00391102111ADDAA106999929GA1021+012009999GA2081+018009999GF108991999999999999999999MA1102101999999MD1710421+9999MW1001REMAWY01074200 157/
0100724037937281972012014004+38717-077183SAO  +0024DAA  V0209991C000010105019N0112001N9+00561-00331999999ADDGA1071+010509999GA2081+018009999GF108991999999999999999999MA1101961999999MW1001REMAWY009INTMT R--
0100724037937281972012015004+38717-077183SAO  +0024DAA  V0209991C000010105019N0112001N9+00561-00111999999ADDGA1071+010509999GA2081+018009999GF108991999999999999999999MA1101831999999MW1001REMAWY009INTMT R--
0113724037937281972012016004+38717-077183SAO  +0024DAA  V0201501N00261018001EN0112001N9+00561-00061101771ADDGA1021+010509999GA2081+018009999GF108991999999999999999999MA1101761999999MD1610341+9999MW1001REMAWY008634 157/
0115724037937281972012017004+38717-077183SAO  +0024DAA  V0209991C00001018001EN0112001N9+00561+00061999999ADDGA1021+010509999GA2081+018009999GF108991999999999999999999MA1101691999999MW1001REMAWY024OCNL LGT WND BINOVC OVHD
0098724037937281972012018004+38717-077183SAO  +0024DAA  V0200601N001012200019N0112001N9+00561+00111999999ADDGA1021+010509999GA2081+018009999GF108991999999999999999999MA1101691999999MW1611REMAWY007WET RWY
0147724037937281972012019004+38717-077183SAO  +0024DAA  V0209991C00001018001EN0112001N9+00501+00221101631ADDAA106001091GA1021+010509999GA2081+018009999GF108991999999999999999999MA1101631999999MD1710141+9999MW1611REMAWY031OCNL LTG WND/71404 157/ WET RWY
0121724037937281972012020004+38717-077183SAO  +0024DAA  V0209991C00001018001EN0112001N9+00501+00391999999ADDGA1021+010509999GA2081+018009999GF108991999999999999999999MA1101591999999MW1001REMAWY030OCNL LGT WND INTMT R-- WET RWY
0111724037937281972012021004+38717-077183SAO  +0024DAA  V0209991C00001024001EN0112001N9+00671+00501999999ADDGA1021+010509999GA2081+024009999GF108991999999999999999999MA1101521999999MW1001REMAWY020OCNL LGT WND WET RWY
0105724037937281972012022004+38717-077183SAO  +0024DAA  V0209991C000010240019N0112001N9+00831+00671101541ADDGA1081+024009999GF108991999999999999999999MA1101521999999MD1610101+9999MW1001REMAWY016610 107/ WET RWY
0082724037937281972012023004+38717-077183SAO  +0024DAA  V0202001N001510240019N0112001N9+00831+00721999999ADDGA1081+024009999GF108991999999999999999999MA1101491999999MW1001REMAWY007WET RWY
0082724037937281972012100004+38717-077183SAO  +0024DAA  V0209991C000010240019N0112001N9+00831+00721999999ADDGA1081+024009999GF108991999999999999999999MA1101461999999MW1001REMAWY007WET RWY
0148724037937281972012101004+38717-077183SAO  +0024DAA  V0209991C00001024001EN0008001N9+00781+00611101411ADDAA106999929GA1101+000159999GA2081+024009999GF108991999999999999999999MA1101421999999MD1710121+9999MW1111REMAWY032F4 VSBY ESE2/ 71200 107/ WET RWY
0107724037937281972012102004+38717-077183SAO  +0024DAA  V0209991C00001024001EN0024001N9+00671+00561999999ADDGA1101+000159999GA2081+024009999GF108991999999999999999999MA1101421999999MW1111MW2611REMAWY010F2 WET RWY
0088724037937281972012103004+38717-077183SAO  +0024DAA  V0209991C000010240019N0048001N9+00671+00671999999ADDGA1081+024009999GF108991999999999999999999MA1101461999999MW1111MW2611REMAWY007WET RWY
0105724037937281972012104004+38717-077183SAO  +0024DAA  V0209991C000010240019N0048001N9+00721+00611101471ADDGA1081+024009999GF108991999999999999999999MA1101461999999MD1110051+9999MW1111REMAWY016105 107/ WET RWY
0123724037937281972012105004+38717-077183SAO  +0024DAA  V0209991C000010150019N0008001N9+00721+00611999999ADDGA1101+000159999GA2021+000309999GA3081+015009999GF108991999999999999999999MA1101491999999MW1111MW2611REMAWY010F4 WET RWY
0116724037937281972012106004+38717-077183SAO  +0024DAA  V0209991C00001015001EN0024001N9+00721+00611999999ADDGA1101+000159999GA2081+015009999GF108991999999999999999999MA1101561999999MW1111MW2611REMAWY019F1 VSBY NW1 WET RWY
0166724037937281972012107004+38717-077183SAO  +0024DAA  V0209991C000010150019N0024001N9+00721+00671101651ADDAA106001091GA1101+000159999GA2021+001509999GA3081+015009999GF108991999999999999999999MA1101631999999MD1210171+9999MW1111MW2611REMAWY028F2/ 21704 102/ 20008 WET RWY
0082724037937281972012108004+38717-077183SAO  +0024DAA  V0209991C000010150019N0048001N9+00831+00781999999ADDGA1081+015009999GF108991999999999999999999MA1101731999999MW1111REMAWY007WET RWY
0113724037937281972012109004+38717-077183SAO  +0024DAA  V0200601N00101013501EN0040001N9+00891+00781999999ADDGA1021+009009999GA2081+013509999GD19999+9999993GF108991999999999999999999MA1101831999999MW1111REMAWY007WET RWY
0121724037937281972012110004+38717-077183SAO  +0024DAA  V0200801N00101009901MN0112001N9+00891+00671101961ADDGA1021+003609999GA2081+009909999GF108991999999999999999999MA1101961999999MD1210321+9999MW1001REMAWY016232 15// WET RWY
0098724037937281972012111004+38717-077183SAO  +0024DAA  V0200701N00151011401MN0112001N9+00891+00561999999ADDGA1021+004509999GA2081+011409999GF108991999999999999999999MA1102071999999MW1001REMAWY007WET RWY
0098724037937281972012112004+38717-077183SAO  +0024DAA  V0200701N001010057019N0112001N9+00891+00501999999ADDGA1071+005709999GA2081+012009999GF108991999999999999999999MA1102031999999MW1001REMAWY007WET RWY
0118724037937281972012113004+38717-077183SAO  +0024DAA  V0200901N001510063019N0112001N9+00891+00441102011ADDAA106000391GA1081+006309999GF108991999999999999999999MA1102001999999MD1010051+9999MW1001REMAWY01800501 15// WET RWY
0098724037937281972012114004+38717-077183SAO  +0024DAA  V0200701N001510069019N0112001N9+00891+00441999999ADDGA1071+006909999GA2081+012009999GF108991999999999999999999MA1102001999999MW1001REMAWY007WET RWY
0098724037937281972012115004+38717-077183SAO  +0024DAA  V0200901N002110075019N0112001N9+00891+00331999999ADDGA1071+007509999GA2081+012009999GF108991999999999999999999MA1102001999999MW1001REMAWY007WET RWY
0105724037937281972012116004+38717-077183SAO  +0024DAA  V0209991C000010084019N0112001N9+00831+00281102091ADDGA1081+008409999GF108991999999999999999999MA1102071999999MD1310081+9999MW1001REMAWY016308 15// WET RWY
0082724037937281972012117004+38717-077183SAO  +0024DAA  V0202601N00101007501MN0096001N9+00831+00221999999ADDGA1021+004509999GA2081+007509999GF108991999999999999999999MA1102131999999MW1051
0116724037937281972012118004+38717-077183SAO  +0024DAA  V0202701N00101008401MN0096001N9+00781+00171999999ADDGA1021+004509999GA2071+008409999GA3081+010509999GF108991999999999999999999MA1102171999999MW1051REMAWY009BKN V SCT
0113724037937281972012119004+38717-077183SAO  +0024DAA  V0209991C00001010501MN0112001N9+00721+00171102231ADDGA1021+008409999GA2081+010509999GF108991999999999999999999MA1102241999999MD1210141+9999MW1001REMAWY008214 15//
0082724037937281972012120004+38717-077183SAO  +0024DAA  V0202401N00101010501MN0112001N9+00721+00111999999ADDGA1021+008409999GA2081+010509999GF108991999999999999999999MA1102271999999MW1001
0066724037937281972012121004+38717-077183SAO  +0024DAA  V0209991C000010105019N0112001N9+00671+00061999999ADDGA1081+010509999GF108991999999999999999999MA1102341999999MW1001
0113724037937281972012122004+38717-077183SAO  +0024DAA  V0209991C00001010501MN0096001N9+00611+00061102371ADDGA1021+006009999GA2081+010509999GF108991999999999999999999MA1102371999999MD1110141+9999MW1051REMAWY008114 15//
0082724037937281972012123004+38717-077183SAO  +0024DAA  V0209991C00001009001MN0096001N9+00611+00001999999ADDGA1021+004509999GA2081+009009999GF108991999999999999999999MA1102341999999MW1051
0100724037937281972012200004+38717-077183SAO  +0024DAA  V0209991C00001009001MN0096001N9+00611+00001999999ADDGA1021+007509999GA2081+009009999GF108991999999999999999999MA1102271999999MW1051REMAWY009SCT V BKN
0097724037937281972012201004+38717-077183SAO  +0024DAA  V0209991C000010057019N0112001N9+00611+00001102281ADDGA1081+005709999GF108991999999999999999999MA1102271999999MD1610081+9999MW1001REMAWY008608 16//
0066724037937281972012202004+38717-077183SAO  +0024DAA  V0209991C000010084019N0112001N9+00561+00001999999ADDGA1081+008409999GF108991999999999999999999MA1102271999999MW1001
0066724037937281972012203004+38717-077183SAO  +0024DAA  V0209991C000010084019N0112001N9+00501+00001999999ADDGA1081+008409999GF108991999999999999999999MA1102241999999MW1001
0097724037937281972012204004+38717-077183SAO  +0024DAA  V0209991C000010114019N0112001N9+00501+00001102181ADDGA1081+011409999GF108991999999999999999999MA1102171999999MD1710101+9999MW1001REMAWY008710 16//
0066724037937281972012205004+38717-077183SAO  +0024DAA  V0209991C000010114019N0112001N9+00561+00001999999ADDGA1081+011409999GF108991999999999999999999MA1102131999999MW1001
0066724037937281972012206004+38717-077183SAO  +0024DAA  V0209991C000010114019N0112001N9+00561+00061999999ADDGA1081+011409999GF108991999999999999999999MA1102101999999MW1001
0103724037937281972012207004+38717-077183SAO  +0024DAA  V0209991C000010075019N0112001N9+00561+00061102081ADDGA1081+007509999GF108991999999999999999999MA1102101999999MD1710101+9999MW1001REMAWY014710 16// 20001
0066724037937281972012208004+38717-077183SAO  +0024DAA  V0209991C000010051019N0112001N9+00501+00001999999ADDGA1081+005109999GF108991999999999999999999MA1102101999999MW1511
0093724037937281972012209004+38717-077183SAO  +0024DAA  V0209991C000010042019N0064001N9+00501+00221999999ADDGA1081+004209999GF108991999999999999999999MA1102071999999MW1051MW2511REMAWY012L- OCNLY L--
0120724037937281972012210004+38717-077183SAO  +0024DAA  V0209991C000010036019N0028001N9+00501+00281102031ADDGA1081+003609999GF108991999999999999999999MA1102001999999MD1810051+9999MW1451MW2511MW3611REMAWY019INTMT R- / 805 102/
