0081724096147061972010100004+40000-074583SAO  +0041WRI  V0203501N002610330019N1600001N9-00111-00891102321ADDGF108991999999999999999999MA1102271999999MD1210301+9999MW1001REMAWY008230 107/
0050724096147061972010101004+40000-074583SAO  +0041WRI  V0200301N001512200019N1600001N9-00221-00941999999ADDGF102991999999999999999999MA1102341999999MW1001
0050724096147061972010102004+40000-074583SAO  +0041WRI  V0200101N002112200019N1600001N9-00281-00941999999ADDGF102991999999999999999999MA1102471999999MW1001
0076724096147061972010103004+40000-074583SAO  +0041WRI  V0200101N002612200019N1600001N9-00331-01001102551ADDGF100991999999999999999999MA1102511999999MD1110241+9999MW1001REMAWY003124
0050724096147061972010104004+40000-074583SAO  +0041WRI  V0203601N002112200019N1600001N9-00391-01001999999ADDGF100991999999999999999999MA1102571999999MW1001
0050724096147061972010105004+40000-074583SAO  +0041WRI  V0200601N000512200019N1600001N9-00441-00941999999ADDGF100991999999999999999999MA1102541999999MW1001
0076724096147061972010106004+40000-074583SAO  +0041WRI  V0209991C000012200019N1600001N9-00441-00941102621ADDGF100991999999999999999999MA1102571999999MD1210051+9999MW1001REMAWY003205
0050724096147061972010107004+40000-074583SAO  +0041WRI  V0209991C000012200019N1600001N9-00501-00891999999ADDGF100991999999999999999999MA1102641999999MW1001
0050724096147061972010108004+40000-074583SAO  +0041WRI  V0200501N001512200019N1600001N9-00611-00941999999ADDGF100991999999999999999999MA1102611999999MW1001
0093724096147061972010109004+40000-074583SAO  +0041WRI  V0209991C000012200019N1600001N9-00611-00941102801ADDGF100991999999999999999999MA1102741999999MD1210191+9999MW1001REMAWY020THN CI SW-W/219 1004
0050724096147061972010110004+40000-074583SAO  +0041WRI  V0203201N002112200019N1600001N9-00671-01001999999ADDGF102991999999999999999999MA1102781999999MW1001
0050724096147061972010111004+40000-074583SAO  +0041WRI  V0203601N001012200019N1600001N9-00721-01001999999ADDGF102991999999999999999999MA1102781999999MW1001
0095724096147061972010112004+40000-074583SAO  +0041WRI  V0203501N001012200019N0240001N9-00721-01001102921ADDGF102991999999999999999999MA1102841999999MD1310121+9999MW1001REMAWY022SC E-SSE HRZN/312 1501
0050724096147061972010113004+40000-074583SAO  +0041WRI  V0200501N001012200019N0192001N9-00721-00941999999ADDGF102991999999999999999999MA1102841999999MW1001
0050724096147061972010114004+40000-074583SAO  +0041WRI  V0209991C000012200019N0192001N9-00441-00831999999ADDGF102991999999999999999999MA1102951999999MW1001
0081724096147061972010115004+40000-074583SAO  +0041WRI  V0209991C000012200019N0192001N9-00221-00721103021ADDGF107991999999999999999999MA1102951999999MD1110101+9999MW1001REMAWY008110 1001
0050724096147061972010116004+40000-074583SAO  +0041WRI  V0209991C000012200019N0192001N9+00001-00671999999ADDGF102991999999999999999999MA1102951999999MW1001
0050724096147061972010117004+40000-074583SAO  +0041WRI  V0209991C000010600019N0192001N9+00111-00721999999ADDGF107991999999999999999999MA1102841999999MW1001
0089724096147061972010118004+40000-074583SAO  +0041WRI  V0209991C000010600019N0192001N9+00171-00721102841ADDGF107991999999999999999999MA1102811999999MD1610171+9999MW1001REMAWY016SC E-SE/617 1508
0050724096147061972010119004+40000-074583SAO  +0041WRI  V0201401N000512200019N0192001N9+00281-00721999999ADDGF107991999999999999999999MA1102711999999MW1001
0050724096147061972010120004+40000-074583SAO  +0041WRI  V0202101N001510600019N0192001N9+00391-00721999999ADDGF107991999999999999999999MA1102681999999MW1001
0081724096147061972010121004+40000-074583SAO  +0041WRI  V0202201N002112200019N0192001N9+00331-00671102681ADDGF102991999999999999999999MA1102681999999MD1610171+9999MW1001REMAWY008617 1008
0050724096147061972010122004+40000-074583SAO  +0041WRI  V0209991C000012200019N0192001N9+00171-00671999999ADDGF102991999999999999999999MA1102641999999MW1001
0050724096147061972010123004+40000-074583SAO  +0041WRI  V0201501N002612200019N0240001N9-00061-00611999999ADDGF102991999999999999999999MA1102611999999MW1001
0081724096147061972010200004+40000-074583SAO  +0041WRI  V0201701N001512200019N1600001N9-00061-00501102631ADDGF102991999999999999999999MA1102611999999MD1610051+9999MW1001REMAWY008605 1008
0050724096147061972010201004+40000-074583SAO  +0041WRI  V0201801N001012200019N1600001N9-00061-00441999999ADDGF107991999999999999999999MA1102571999999MW1001
0050724096147061972010202004+40000-074583SAO  +0041WRI  V0201701N001012200019N1600001N9+00001-00441999999ADDGF107991999999999999999999MA1102471999999MW1001
0081724096147061972010203004+40000-074583SAO  +0041WRI  V0201501N001012200019N1600001N9+00001-00441102441ADDGF108991999999999999999999MA1102401999999MD1710191+9999MW1001REMAWY008719 1037
0072724096147061972010204004+40000-074583SAO  +0041WRI  V0209991C000010750019N1600001N9+00001-00391999999ADDGF108991999999999999999999MA1102341999999MW1001REMAWY013MOON DMLY VSB
0050724096147061972010205004+40000-074583SAO  +0041WRI  V0201501N000510360019N1600001N9+00061-00391999999ADDGF108991999999999999999999MA1102201999999MW1001
0089724096147061972010206004+40000-074583SAO  +0041WRI  V0201701N000510450019N1600001N9+00061-00391102191ADDGF108991999999999999999999MA1102171999999MD1710251+9999MW1001REMAWY016SCTVBKN/725 1527
0050724096147061972010207004+40000-074583SAO  +0041WRI  V0201001N000510180019N1600001N9+00111-00331999999ADDGF108991999999999999999999MA1102031999999MW1001
0050724096147061972010208004+40000-074583SAO  +0041WRI  V0201601N001010087019N0240001N9+00111-00331999999ADDGF108991999999999999999999MA1101961999999MW1001
0103724096147061972010209004+40000-074583SAO  +0041WRI  V0200901N000510075019N0112001N9+00061-00171101791ADDGF108991999999999999999999MA1101761999999MD1810391+9999MW1611MW2791REMAWY024OCNL S-- PRESFR/839 17//
0086724096147061972010210004+40000-074583SAO  +0041WRI  V0200901N001010069019N0240001N9+00111-00111999999ADDGF108991999999999999999999MA1101521999999MW1611REMAWY027R- OCNLY R-- PRESFR WET RWY
0066724096147061972010211004+40000-074583SAO  +0041WRI  V0200801N000510063019N0160001N9+00111-00061999999ADDGF108991999999999999999999MA1101421999999MW1611REMAWY007WET RWY
0160724096147061972010212004+40000-074583SAO  +0041WRI  V0200701N004110009019N0036001N9+00171+00061101221ADDAA106002091AA224002091GF110991999999999999999999MA1101221999999MD1810561+9999MW1451MW2511MW3611REMAWY034F3 PRESFR/85607 16// 20007 WET RWYEQDQ01  00203PRCP99
0075724096147061972010213004+40000-074583SAO  +0041WRI  V0200901N001010006019N0028001N9+00281+00171999999ADDGF110991999999999999999999MA1101051999999MW1451MW2511REMAWY010F3 WET RWY
0082724096147061972010214004+40000-074583SAO  +0041WRI  V0201401N002610018019N0040001N9+00611+00501999999ADDGF110991999999999999999999MA1100811999999MW1451MW2511REMAWY017F2 PRESFR WET RWY
0130724096147061972010215004+40000-074583SAO  +0041WRI  V0201701N004610024019N0040001N9+01061+00941100601ADDGF108991999999999999999999MA1100581999999MD1710631+9999MW1451MW2611OC100871REMAWY043CIG 7V9 WND 110V210 PRESFR/763 17// WET RWY
0119724096147061972010216004+40000-074583SAO  +0041WRI  V0201901N005710021019N0096001N9+01281+01171999999ADDGF108991999999999999999999MA1100371999999MW1451MW2511OC100931REMAWY046CIG 6V8 L- OCNL L-- WND 110V240 PRESFR WET RWY
0100724096147061972010217004+40000-074583SAO  +0041WRI  V0202001N003612200019N0036001N9+01331+01221999999ADDGF108991999999999999999999MA1100201999999MW1451MW2611OC100721REMAWY027CIG 5V7 WND 160V240 WET RWY
0135724096147061972010218004+40000-074583SAO  +0041WRI  V0202701N003610018019N0080001N9+00721+00611100151ADDAA106005091GF108991999999999999999999MA1100141999999MD1610441+9999MW1451MW2611REMAWY026CIG 5V7/64421 17// WET RWYEQDQ01  00503PRCP99
0080724096147061972010219004+40000-074583SAO  +0041WRI  V0202801N004110012019N0040001N9+00721+00611999999ADDGF108991999999999999999999MA1100101999999MW1451MW2511REMAWY015CIG 3V5 WET RWY
0080724096147061972010220004+40000-074583SAO  +0041WRI  V0202601N005710015019N0048001N9+00781+00671999999ADDGF108991999999999999999999MA1100141999999MW1451MW2611REMAWY015CIG 4V6 WET RWY
0097724096147061972010221004+40000-074583SAO  +0041WRI  V0202601N007210024019N0112001N9+00781+00671100201ADDGF108991999999999999999999MA1100201999999MD1310051+9999MW1611REMAWY024CIG 7V9/305 17// WET RWY
0085724096147061972010222004+40000-074583SAO  +0041WRI  V0202601N006210018019N0080001N9+00611+00441999999ADDGF108991999999999999999999MA1100271999999MW1451MW2611REMAWY020R- OCNLY R-- WET RWY
0066724096147061972010223004+40000-074583SAO  +0041WRI  V0202601N004610024019N0112001N9+00611+00391999999ADDGF108991999999999999999999MA1100471999999MW1611REMAWY007WET RWY
0121724096147061972010300004+40000-074583SAO  +0041WRI  V0202701N004610210019N0112001N9+00561+00331100611ADDAA106003091GF107991999999999999999999MA1100581999999MD1210411+9999MW1001REMAWY01824111 1570 WET RWYEQDQ01  00303PRCP99
0073724096147061972010301004+40000-074583SAO  +0041WRI  V0202801N005112200019N0240001N9+00501+00221999999ADDGF102991999999999999999999MA1100751999999MW1001REMAWY014PRESRR WET RWY
0066724096147061972010302004+40000-074583SAO  +0041WRI  V0202701N004612200019N0240001N9+00441+00171999999ADDGF102991999999999999999999MA1100881999999MW1001REMAWY007WET RWY
0084724096147061972010303004+40000-074583SAO  +0041WRI  V0202801N005112200019N0240001N9+00441+00111101061ADDGF100991999999999999999999MA1101021999999MD1210441+9999MW1001REMAWY011244 WET RWY
0066724096147061972010304004+40000-074583SAO  +0041WRI  V0202801N005112200019N0240001N9+00391-00171999999ADDGF100991999999999999999999MA1101151999999MW1001REMAWY007WET RWY
0066724096147061972010305004+40000-074583SAO  +0041WRI  V0202801N004612200019N0240001N9+00391-00281999999ADDGF100991999999999999999999MA1101251999999MW1001REMAWY007WET RWY
0096724096147061972010306004+40000-074583SAO  +0041WRI  V0202901N004112200019N0240001N9+00331-00331101351ADDGF100991999999999999999999MA1101351999999MD1210291+9999MW1001REMAWY023WND 250V310/229 WET RWY
0066724096147061972010307004+40000-074583SAO  +0041WRI  V0202901N004112200019N0240001N9+00281-00391999999ADDGF100991999999999999999999MA1101461999999MW1001REMAWY007WET RWY
0078724096147061972010308004+40000-074583SAO  +0041WRI  V0203001N004112200019N0240001N9+00281-00501999999ADDGF100991999999999999999999MA1101591999999MW1001REMAWY019WND 270V330 WET RWY
0084724096147061972010309004+40000-074583SAO  +0041WRI  V0202701N003112200019N0240001N9+00221-00441101751ADDGF100991999999999999999999MA1101731999999MD1210391+9999MW1001REMAWY011239 WET RWY
0066724096147061972010310004+40000-074583SAO  +0041WRI  V0202701N002612200019N0240001N9+00171-00441999999ADDGF100991999999999999999999MA1101831999999MW1001REMAWY007WET RWY
0065724096147061972010311004+40000-074583SAO  +0041WRI  V0202601N003112200019N0240001N9+00171-00501999999ADDGF100991999999999999999999MA1102001999999MW1001REMAWY006PRESRR
0093724096147061972010312004+40000-074583SAO  +0041WRI  V0202901N003612200019N0240001N9+00111-00501102071ADDAA124008091GF100991999999999999999999MA1102071999999MD1110321+9999MW1001REMAWY009132 20032
0074724096147061972010313004+40000-074583SAO  +0041WRI  V0202601N002112200019N0192001N9+00111-00501999999ADDGF100991999999999999999999MA1102201999999MW1001REMAWY015K DRFTG OVR RWY
0050724096147061972010314004+40000-074583SAO  +0041WRI  V0202201N002112200019N0192001N9+00221-00391999999ADDGF100991999999999999999999MA1102371999999MW1001
0076724096147061972010315004+40000-074583SAO  +0041WRI  V0202601N003612200019N0192001N9+00391-00331102441ADDGF100991999999999999999999MA1102441999999MD1110371+9999MW1001REMAWY003137
0050724096147061972010316004+40000-074583SAO  +0041WRI  V0203101N005112200019N0192001N9+00561-00391999999ADDGF100991999999999999999999MA1102441999999MW1001
0050724096147061972010317004+40000-074583SAO  +0041WRI  V0202901N005112200019N0192001N9+00721-00501999999ADDGF100991999999999999999999MA1102371999999MW1001
0091724096147061972010318004+40000-074583SAO  +0041WRI  V0202601N003112200019N0192001N9+00781-00501102371ADDGF100991999999999999999999MA1102341999999MD1710071+9999MW1001REMAWY018CI NW-NNE/707 1001
0067724096147061972010319004+40000-074583SAO  +0041WRI  V0202101N003112200019N0192001N9+00831-00501999999ADDGF100991999999999999999999MA1102401999999MW1001REMAWY008CI NW-NE
0050724096147061972010320004+40000-074583SAO  +0041WRI  V0202701N002612200019N0192001N9+00831-00441999999ADDGF100991999999999999999999MA1102441999999MW1001
0076724096147061972010321004+40000-074583SAO  +0041WRI  V0202601N002612200019N0192001N9+00781-00391102521ADDGF100991999999999999999999MA1102511999999MD1210151+9999MW1001REMAWY003215
0050724096147061972010322004+40000-074583SAO  +0041WRI  V0202301N001012200019N0192001N9+00501-00111999999ADDGF100991999999999999999999MA1102511999999MW1001
0069724096147061972010323004+40000-074583SAO  +0041WRI  V0202001N001012200019N1600001N9+00281-00281999999ADDGF100991999999999999999999MA1102541999999MW1001REMAWY010CI DSNT SW
0076724096147061972010400004+40000-074583SAO  +0041WRI  V0209991C000012200019N1600001N9+00221-00281102601ADDGF100991999999999999999999MA1102571999999MD1310081+9999MW1001REMAWY003308
0066724096147061972010401004+40000-074583SAO  +0041WRI  V0209991C000012200019N1600001N9+00171-00221999999ADDGF102991999999999999999999MA1102641999999MW1001REMAWY007K12-SCT
0063724096147061972010402004+40000-074583SAO  +0041WRI  V0209991C000012200019N1600001N9+00111-00281999999ADDGF100991999999999999999999MA1102641999999MW1001REMAWY004CS E
0081724096147061972010403004+40000-074583SAO  +0041WRI  V0209991C000012200019N1600001N9+00001-00281102571ADDGF102991999999999999999999MA1102541999999MD1810031+9999MW1001REMAWY008803 1008
0050724096147061972010404004+40000-074583SAO  +0041WRI  V0209991C000012200019N1600001N9-00111-00331999999ADDGF102991999999999999999999MA1102541999999MW1001
0071724096147061972010405004+40000-074583SAO  +0041WRI  V0209991C000012200019N1600001N9-00061-00331999999ADDGF108991999999999999999999MA1102441999999MW1001REMAWY012SCT BCMG BKN
0081724096147061972010406004+40000-074583SAO  +0041WRI  V0209991C000012200019N1600001N9-00061-00331102521ADDGF108991999999999999999999MA1102511999999MD1510051+9999MW1001REMAWY008505 1077
0050724096147061972010407004+40000-074583SAO  +0041WRI  V0209991C000012200019N1600001N9-00111-00281999999ADDGF108991999999999999999999MA1102471999999MW1001
0050724096147061972010408004+40000-074583SAO  +0041WRI  V0209991C000012200019N1600001N9-00061-00281999999ADDGF108991999999999999999999MA1102341999999MW1001
0081724096147061972010409004+40000-074583SAO  +0041WRI  V0209991C000012200019N1600001N9-00061-00331102251ADDGF108991999999999999999999MA1102241999999MD1710271+9999MW1001REMAWY008727 1077
0073724096147061972010410004+40000-074583SAO  +0041WRI  V0209991C000010105019N1600001N9+00061-00221999999ADDGF108991999999999999999999MA1102131999999MW1001REMAWY014THN SPOTS IOVC
0050724096147061972010411004+40000-074583SAO  +0041WRI  V0209991C000010090019N0240001N9+00171-00061999999ADDGF108991999999999999999999MA1102101999999MW1001
0081724096147061972010412004+40000-074583SAO  +0041WRI  V0201001N001010090019N0240001N9+00331+00111102081ADDGF108991999999999999999999MA1102071999999MD1710171+9999MW1001REMAWY008717 157/
0071724096147061972010413004+40000-074583SAO  +0041WRI  V0209991C000010105019N0240001N9+00331+00171999999ADDGF108991999999999999999999MA1101961999999MW1001REMAWY012OCNL LTG WND
0071724096147061972010414004+40000-074583SAO  +0041WRI  V0203201N002110075019N0112001N9+00441+00331999999ADDGF108991999999999999999999MA1102031999999MW1611REMAWY012VSBY LWR N-E
0095724096147061972010415004+40000-074583SAO  +0041WRI  V0200401N001010048019N0032001N9+00501+00441101991ADDGF108991999999999999999999MA1101961999999MD1610081+9999MW1451MW2611REMAWY016608 15// WET RWY
0072724096147061972010416004+40000-074583SAO  +0041WRI  V0200801N000510036019N0022001N9+00501+00391999999ADDGF108991999999999999999999MA1101801999999MW1451MW2611REMAWY007WET RWY
0080724096147061972010417004+40000-074583SAO  +0041WRI  V0209991C000010003019N0012001N9+00501+00441999999ADDGF108991999999999999999999MA1101591999999MW1451MW2611REMAWY015R06VRNO/WET RWY
0127724096147061972010418004+40000-074583SAO  +0041WRI  V0209991C000010003019N0022001N9+00671+00611101411ADDAA106011091GF108991999999999999999999MA1101391999999MD1710581+9999MW1451MW2611REMAWY01875842 16// WET RWYEQDQ01  01103PRCP99
0072724096147061972010419004+40000-074583SAO  +0041WRI  V0201501N001510003019N0036001N9+00831+00721999999ADDGF108991999999999999999999MA1101291999999MW1451MW2611REMAWY007WET RWY
0078724096147061972010420004+40000-074583SAO  +0041WRI  V0201501N001010003019N0022001N9+00891+00781999999ADDGF108991999999999999999999MA1101151999999MW1451MW2511MW3611REMAWY007WET RWY
0095724096147061972010421004+40000-074583SAO  +0041WRI  V0201901N000510003019N0018001N9+00891+00831101081ADDGF108991999999999999999999MA1101051999999MD1710341+9999MW1451MW2611REMAWY016734 16// WET RWY
0083724096147061972010422004+40000-074583SAO  +0041WRI  V0203201N004110003019N0006001N9+00611+00611999999ADDGF110991999999999999999999MA1101081999999MW1451MW2611REMAWY018R06VRNO F4 WET RWY
0072724096147061972010423004+40000-074583SAO  +0041WRI  V0203301N002110012019N0036001N9+00611+00561999999ADDGF108991999999999999999999MA1101121999999MW1451MW2511REMAWY007WET RWY
0133724096147061972010500004+40000-074583SAO  +0041WRI  V0203501N001010012019N0036001N9+00561+00501101021ADDAA106004091GF108991999999999999999999MA1101021999999MD1810051+9999MW1451MW2511MW3611REMAWY01880515 16// WET RWYEQDQ01  00403PRCP99
0072724096147061972010501004+40000-074583SAO  +0041WRI  V0209991C000010012019N0036001N9+00561+00501999999ADDGF108991999999999999999999MA1100911999999MW1451MW2611REMAWY007WET RWY
0072724096147061972010502004+40000-074583SAO  +0041WRI  V0209991C000010048019N0036001N9+00561+00501999999ADDGF108991999999999999999999MA1100881999999MW1451MW2611REMAWY007WET RWY
0095724096147061972010503004+40000-074583SAO  +0041WRI  V0209991C000010045019N0024001N9+00561+00501100791ADDGF108991999999999999999999MA1100781999999MD1710241+9999MW1451MW2611REMAWY016724 16// WET RWY
0072724096147061972010504004+40000-074583SAO  +0041WRI  V0209991C000010045019N0024001N9+00561+00501999999ADDGF108991999999999999999999MA1100711999999MW1451MW2611REMAWY007WET RWY
0080724096147061972010505004+40000-074583SAO  +0041WRI  V0209991C000010045019N0036001N9+00561+00501999999ADDGF108991999999999999999999MA1100541999999MW1451MW2611REMAWY015SCTVBKN WET RWY
0126724096147061972010506004+40000-074583SAO  +0041WRI  V0209991C000010006019N0024001N9+00561+00501100591ADDAA106004091GF108991999999999999999999MA1100581999999MD1510191+9999MW1451MW2611REMAWY01751914 172/WET RWYEQDQ01  00403PRCP99
0072724096147061972010507004+40000-074583SAO  +0041WRI  V0209991C000010006019N0024001N9+00561+00501999999ADDGF108991999999999999999999MA1100471999999MW1451MW2611REMAWY007WET RWY
0072724096147061972010508004+40000-074583SAO  +0041WRI  V0209991C000010006019N0024001N9+00561+00501999999ADDGF108991999999999999999999MA1100511999999MW1451MW2611REMAWY007WET RWY
0094724096147061972010509004+40000-074583SAO  +0041WRI  V0209991C000010006019N0024001N9+00501+00441100381ADDGF108991999999999999999999MA1100371999999MD1710221+9999MW1451MW2611REMAWY015722 172/WET RWY
0072724096147061972010510004+40000-074583SAO  +0041WRI  V0209991C000010009019N0024001N9+00501+00441999999ADDGF108991999999999999999999MA1100341999999MW1451MW2611REMAWY007WET RWY
0072724096147061972010511004+40000-074583SAO  +0041WRI  V0203001N001010009019N0024001N9+00501+00441999999ADDGF108991999999999999999999MA1100341999999MW1451MW2611REMAWY007WET RWY
0143724096147061972010512004+40000-074583SAO  +0041WRI  V0209991C000010012019N0024001N9+00501+00441100351ADDAA106006091AA224024091GF108991999999999999999999MA1100311999999MD1610031+9999MW1451MW2611REMAWY02360325 172/20096 WET RWYEQDQ01  00603PRCP99
0075724096147061972010513004+40000-074583SAO  +0041WRI  V0203501N003610012019N0018001N9+00501+00391999999ADDGF110991999999999999999999MA1100411999999MW1451MW2611REMAWY010F1 WET RWY
0072724096147061972010514004+40000-074583SAO  +0041WRI  V0203601N003610057019N0036001N9+00441+00331999999ADDGF108991999999999999999999MA1100471999999MW1451MW2611REMAWY007WET RWY
0095724096147061972010515004+40000-074583SAO  +0041WRI  V0203501N005110051019N0048001N9+00441+00281100581ADDGF108991999999999999999999MA1100541999999MD1310241+9999MW1451MW2611REMAWY016324 15// WET RWY
0072724096147061972010516004+40000-074583SAO  +0041WRI  V0200101N003610018019N0080001N9+00391+00281999999ADDGF108991999999999999999999MA1100511999999MW1451MW2611REMAWY007WET RWY
0080724096147061972010517004+40000-074583SAO  +0041WRI  V0200301N003610021019N0032001N9+00221+00171999999ADDGF108991999999999999999999MA1100541999999MW1611MW2711REMAWY015CIG 6V9 WET RWY
0121724096147061972010518004+40000-074583SAO  +0041WRI  V0203501N004610012019N0024001N9+00111+00061100701ADDAA106003091GF108991999999999999999999MA1100641999999MD1310121+9999MW1711REMAWY01831213 15// WET RWYEQDQ01  00303PRCP99
0078724096147061972010519004+40000-074583SAO  +0041WRI  V0203501N005110018019N0024001N9+00111-00061999999ADDGF108991999999999999999999MA1100851999999MW1451MW2711MW3771REMAWY007WET RWY
0079724096147061972010520004+40000-074583SAO  +0041WRI  V0203501N007210024019N0048001N9+00111-00061999999ADDGF108991999999999999999999MA1101051999999MW1451MW2711REMAWY014PRESRR WET RWY
0081724096147061972010521004+40000-074583SAO  +0041WRI  V0203401N008212200019N0112001N9+00061-00221101261ADDGF108991999999999999999999MA1101221999999MD1210561+9999MW1001REMAWY008256 1570
0050724096147061972010522004+40000-074583SAO  +0041WRI  V0203401N006712200019N0160001N9-00111-00441999999ADDGF102991999999999999999999MA1101351999999MW1001
0050724096147061972010523004+40000-074583SAO  +0041WRI  V0203401N004612200019N0240001N9-00171-00671999999ADDGF102991999999999999999999MA1101421999999MW1001
0108724096147061972010600004+40000-074583SAO  +0041WRI  V0203301N005112200019N0240001N9-00281-00721101571ADDAA106000391GF100991999999999999999999MA1101521999999MD1210301+9999MW1001REMAWY00523001EQDQ01  00033PRCP99
0064724096147061972010601004+40000-074583SAO  +0041WRI  V0203301N005712200019N0240001N9-00331-00891999999ADDGF100991999999999999999999MA1101661999999MW1001REMAWY005IR22P
0064724096147061972010602004+40000-074583SAO  +0041WRI  V0203401N005112200019N0240001N9-00391-01001999999ADDGF100991999999999999999999MA1101801999999MW1001REMAWY005IR22P
0082724096147061972010603004+40000-074583SAO  +0041WRI  V0203301N005112200019N0240001N9-00441-01061101921ADDGF100991999999999999999999MA1101861999999MD1210341+9999MW1001REMAWY009234 IR22P
0064724096147061972010604004+40000-074583SAO  +0041WRI  V0203401N004112200019N0240001N9-00501-01111999999ADDGF100991999999999999999999MA1102001999999MW1001REMAWY005IR22P
0064724096147061972010605004+40000-074583SAO  +0041WRI  V0203401N004112200019N0240001N9-00561-01171999999ADDGF100991999999999999999999MA1102031999999MW1001REMAWY005IR22P
0076724096147061972010606004+40000-074583SAO  +0041WRI  V0203301N003112200019N0240001N9-00671-01111102131ADDGF100991999999999999999999MA1102101999999MD1110201+9999MW1001REMAWY003120
0064724096147061972010607004+40000-074583SAO  +0041WRI  V0203501N002612200019N0240001N9-00671-01171999999ADDGF100991999999999999999999MA1102171999999MW1001REMAWY005CI SE
0050724096147061972010608004+40000-074583SAO  +0041WRI  V0203401N002112200019N0240001N9-00781-01171999999ADDGF102991999999999999999999MA1102271999999MW1001
0081724096147061972010609004+40000-074583SAO  +0041WRI  V0203401N001510600019N0240001N9-00781-01111102281ADDGF107991999999999999999999MA1102271999999MD1110151+9999MW1001REMAWY008115 1508
0050724096147061972010610004+40000-074583SAO  +0041WRI  V0203301N002112200019N0240001N9-00781-01171999999ADDGF107991999999999999999999MA1102271999999MW1001
0050724096147061972010611004+40000-074583SAO  +0041WRI  V0203401N001012200019N0240001N9-00831-01171999999ADDGF108991999999999999999999MA1102301999999MW1001
0098724096147061972010612004+40000-074583SAO  +0041WRI  V0203401N002110540019N0240001N9-00831-01171102401ADDAA124004091GF107991999999999999999999MA1102371999999MD1310121+9999MW1001REMAWY014312 1004 20014
0071724096147061972010613004+40000-074583SAO  +0041WRI  V0203401N001010540019N0192001N9-00781-01171999999ADDGF107991999999999999999999MA1102441999999MW1001REMAWY012CIG PTLY THN
0050724096147061972010614004+40000-074583SAO  +0041WRI  V0203501N002112200019N0240001N9-00671-01111999999ADDGF108991999999999999999999MA1102401999999MW1001
0081724096147061972010615004+40000-074583SAO  +0041WRI  V0203401N002110600019N0240001N9-00501-01061102461ADDGF107991999999999999999999MA1102441999999MD1310071+9999MW1001REMAWY008307 1508
0084724096147061972010616004+40000-074583SAO  +0041WRI  V0203501N002110600019N0240001N9-00441-01001999999ADDGF108991999999999999999999MA1102341999999MW1001REMAWY025THN SPTS IOVC WND 320V020
0085724096147061972010617004+40000-074583SAO  +0041WRI  V0202901N002610600019N0192001N9-00391-00941999999ADDGF108991999999999999999999MA1102241999999MW1001REMAWY026THN SPOTS IOVC WND 260V320
0084724096147061972010618004+40000-074583SAO  +0041WRI  V0202901N002110600019N0192001N9-00331-01001102171ADDGF108991999999999999999999MA1102131999999MW1001REMAWY025THN SPTS IOVC WND 250V330
0050724096147061972010619004+40000-074583SAO  +0041WRI  V0200101N001510600019N0192001N9-00221-01061999999ADDGF107991999999999999999999MA1102071999999MW1001
0050724096147061972010620004+40000-074583SAO  +0041WRI  V0203001N001012200019N0192001N9-00221-01001999999ADDGF107991999999999999999999MA1102071999999MW1001
0081724096147061972010621004+40000-074583SAO  +0041WRI  V0209991C000012200019N0192001N9-00171-00941102111ADDGF102991999999999999999999MA1102101999999MD1510071+9999MW1001REMAWY008507 1001
0050724096147061972010622004+40000-074583SAO  +0041WRI  V0209991C000012200019N0192001N9-00281-00941999999ADDGF102991999999999999999999MA1102071999999MW1001
0050724096147061972010623004+40000-074583SAO  +0041WRI  V0209991C000012200019N0240001N9-00331-01001999999ADDGF100991999999999999999999MA1102071999999MW1001
0081724096147061972010700004+40000-074583SAO  +0041WRI  V0201801N000512200019N0240001N9-00561-00891102071ADDGF102991999999999999999999MA1102031999999MD1810031+9999MW1001REMAWY008803 1001
0071724096147061972010701004+40000-074583SAO  +0041WRI  V0209991C000010600019N0240001N9-00501-00831999999ADDGF107991999999999999999999MA1102071999999MW1001REMAWY012CIG PTLY THN
0050724096147061972010702004+40000-074583SAO  +0041WRI  V0202201N000512200019N0240001N9-00391-00891999999ADDGF102991999999999999999999MA1102071999999MW1001
0081724096147061972010703004+40000-074583SAO  +0041WRI  V0201801N000512200019N0240001N9-00561-00941102041ADDGF102991999999999999999999MA1102001999999MD1810031+9999MW1001REMAWY008803 1001
0050724096147061972010704004+40000-074583SAO  +0041WRI  V0201701N001012200019N0240001N9-00611-00941999999ADDGF100991999999999999999999MA1101831999999MW1001
0065724096147061972010705004+40000-074583SAO  +0041WRI  V0201801N001512200019N0240001N9-00561-00891999999ADDGF100991999999999999999999MA1101631999999MW1001REMAWY006PRESFR
0081724096147061972010706004+40000-074583SAO  +0041WRI  V0202101N001012200019N0240001N9-00611-00941101671ADDGF102991999999999999999999MA1101631999999MD1510371+9999MW1001REMAWY008537 1004
0050724096147061972010707004+40000-074583SAO  +0041WRI  V0209991C000012200019N0240001N9-00611-00891999999ADDGF102991999999999999999999MA1101591999999MW1001
0050724096147061972010708004+40000-074583SAO  +0041WRI  V0201801N000512200019N0240001N9-00671-00941999999ADDGF102991999999999999999999MA1101591999999MW1001
0081724096147061972010709004+40000-074583SAO  +0041WRI  V0201801N000512200019N0240001N9-00561-00891101551ADDGF102991999999999999999999MA1101521999999MD1810121+9999MW1001REMAWY008812 1008
0050724096147061972010710004+40000-074583SAO  +0041WRI  V0201901N000512200019N0240001N9-00671-00891999999ADDGF102991999999999999999999MA1101461999999MW1001
0050724096147061972010711004+40000-074583SAO  +0041WRI  V0202201N001010600019N0240001N9-00611-00831999999ADDGF107991999999999999999999MA1101461999999MW1001
0081724096147061972010712004+40000-074583SAO  +0041WRI  V0202201N001512200019N0240001N9-00561-00781101461ADDGF102991999999999999999999MA1101461999999MD1710081+9999MW1001REMAWY008708 1008
0050724096147061972010713004+40000-074583SAO  +0041WRI  V0202001N001512200019N0096001N9-00501-00721999999ADDGF107991999999999999999999MA1101421999999MW1051
0071724096147061972010714004+40000-074583SAO  +0041WRI  V0202001N002112200019N0144001N9-00281-00561999999ADDGF102991999999999999999999MA1101421999999MW1001REMAWY012K LYR DSIPTD
0081724096147061972010715004+40000-074583SAO  +0041WRI  V0202301N004110240019N0192001N9+00061-00331101421ADDGF107991999999999999999999MA1101391999999MD1710031+9999MW1001REMAWY008703 1070
0058724096147061972010716004+40000-074583SAO  +0041WRI  V0202501N005110180019N0192001N9+00171-00331999999ADDGF107991999999999999999999MA1101391999999MW1001OC100771
0050724096147061972010717004+40000-074583SAO  +0041WRI  V0202601N004110150019N0192001N9+00221-00391999999ADDGF108991999999999999999999MA1101351999999MW1001
0089724096147061972010718004+40000-074583SAO  +0041WRI  V0202601N005112200019N0192001N9+00391-00441101261ADDGF102991999999999999999999MA1101251999999MD1810151+9999MW1001OC100771REMAWY008815 1500
0058724096147061972010719004+40000-074583SAO  +0041WRI  V0202901N007210135019N0192001N9+00391-00671999999ADDGF107991999999999999999999MA1101291999999MW1001OC101231
0058724096147061972010720004+40000-074583SAO  +0041WRI  V0202901N007210135019N0192001N9+00441-00611999999ADDGF107991999999999999999999MA1101351999999MW1001OC101131
0089724096147061972010721004+40000-074583SAO  +0041WRI  V0202901N006212200019N0192001N9+00441-00611101401ADDGF102991999999999999999999MA1101391999999MD1210141+9999MW1001OC101231REMAWY008214 1500
0065724096147061972010722004+40000-074583SAO  +0041WRI  V0202801N006212200019N0192001N9+00331-00561999999ADDGF100991999999999999999999MA1101421999999MW1001REMAWY006SC S-W
0058724096147061972010723004+40000-074583SAO  +0041WRI  V0202801N005112200019N0192001N9+00331-00611999999ADDGF100991999999999999999999MA1101491999999MW1001OC100721
0087724096147061972010800004+40000-074583SAO  +0041WRI  V0202601N005112200019N0240001N9+00281-00561101611ADDGF100991999999999999999999MA1101591999999MD1310201+9999MW1001REMAWY014SC NW/320 1500
0050724096147061972010801004+40000-074583SAO  +0041WRI  V0202601N005112200019N0240001N9+00221-00561999999ADDGF100991999999999999999999MA1101731999999MW1001
0050724096147061972010802004+40000-074583SAO  +0041WRI  V0202701N005110135019N0240001N9+00221-00561999999ADDGF107991999999999999999999MA1101801999999MW1001
0081724096147061972010803004+40000-074583SAO  +0041WRI  V0202501N005112200019N0240001N9+00221-00561101851ADDGF102991999999999999999999MA1101831999999MD1110241+9999MW1001REMAWY008124 1500
0050724096147061972010804004+40000-074583SAO  +0041WRI  V0202501N005110180019N0240001N9+00171-00561999999ADDGF107991999999999999999999MA1101831999999MW1001
0050724096147061972010805004+40000-074583SAO  +0041WRI  V0202501N002612200019N0240001N9+00111-00501999999ADDGF102991999999999999999999MA1101901999999MW1001
0081724096147061972010806004+40000-074583SAO  +0041WRI  V0202901N005110180019N0240001N9+00221-00561102031ADDGF108991999999999999999999MA1102001999999MD1110191+9999MW1001REMAWY008119 15//
0058724096147061972010807004+40000-074583SAO  +0041WRI  V0203001N005112200019N0240001N9+00221-00561999999ADDGF102991999999999999999999MA1102171999999MW1001OC100871
0058724096147061972010808004+40000-074583SAO  +0041WRI  V0203101N006212200019N0240001N9+00171-00721999999ADDGF100991999999999999999999MA1102341999999MW1001OC101081
0076724096147061972010809004+40000-074583SAO  +0041WRI  V0202901N005712200019N0240001N9+00111-00941102481ADDGF100991999999999999999999MA1102471999999MD1210121+9999MW1001REMAWY003212
0050724096147061972010810004+40000-074583SAO  +0041WRI  V0203001N004112200019N0240001N9+00111-00891999999ADDGF102991999999999999999999MA1102611999999MW1001
0050724096147061972010811004+40000-074583SAO  +0041WRI  V0203101N002612200019N0240001N9-00061-00831999999ADDGF100991999999999999999999MA1102741999999MW1001
0076724096147061972010812004+40000-074583SAO  +0041WRI  V0203301N003612200019N0240001N9-00061-01001102941ADDGF100991999999999999999999MA1102911999999MD1210461+9999MW1001REMAWY003246
0070724096147061972010813004+40000-074583SAO  +0041WRI  V0203101N005112200019N0192001N9-00111-01111999999ADDGF100991999999999999999999MA1103081999999MW1001REMAWY011WND 270V330
0091724096147061972010814004+40000-074583SAO  +0041WRI  V0203101N006712200019N0192001N9+00001-01111999999ADDGF100991999999999999999999MA1103221999999MW1001REMAWY032SC E HRZN CI SSE-S-W WND 270V350
0101724096147061972010815004+40000-074583SAO  +0041WRI  V0203001N006712200019N0192001N9+00061-01111103301ADDGF102991999999999999999999MA1103291999999MD1110361+9999MW1001REMAWY028SC NW-N WND 260V350/136 1504
0087724096147061972010816004+40000-074583SAO  +0041WRI  V0203001N006212200019N0192001N9+00111-01111999999ADDGF107991999999999999999999MA1103291999999MW1001OC100931REMAWY020FEW SC N WND 270V340
0070724096147061972010817004+40000-074583SAO  +0041WRI  V0203101N005112200019N0192001N9+00111-01061999999ADDGF107991999999999999999999MA1103251999999MW1001REMAWY011WND 260V350
0093724096147061972010818004+40000-074583SAO  +0041WRI  V0203101N004612200019N0192001N9+00221-01061103161ADDGF107991999999999999999999MA1103151999999MD1810141+9999MW1001REMAWY020WND 280V360/814 1001
0070724096147061972010819004+40000-074583SAO  +0041WRI  V0203101N003612200019N0192001N9+00221-01001999999ADDGF102991999999999999999999MA1103181999999MW1001REMAWY011WND 270V340
0080724096147061972010820004+40000-074583SAO  +0041WRI  V0203101N004612200019N0192001N9+00221-01001999999ADDGF100991999999999999999999MA1103221999999MW1001REMAWY021CI S-W-NW WND 280V340
0081724096147061972010821004+40000-074583SAO  +0041WRI  V0203201N001512200019N0192001N9+00171-01001103271ADDGF102991999999999999999999MA1103221999999MD1110101+9999MW1001REMAWY008110 1001
0064724096147061972010822004+40000-074583SAO  +0041WRI  V0203101N001012200019N0192001N9+00001-00941999999ADDGF102991999999999999999999MA1103221999999MW1001REMAWY005AC NW
0050724096147061972010823004+40000-074583SAO  +0041WRI  V0209991C000012200019N0240001N9-00171-00891999999ADDGF102991999999999999999999MA1103291999999MW1001
0076724096147061972010900004+40000-074583SAO  +0041WRI  V0201701N001012200019N0240001N9-00331-00781103381ADDGF100991999999999999999999MA1103321999999MD1310101+9999MW1001REMAWY003310
0050724096147061972010901004+40000-074583SAO  +0041WRI  V0209991C000012200019N0240001N9-00391-00831999999ADDGF100991999999999999999999MA1103251999999MW1001
0071724096147061972010902004+40000-074583SAO  +0041WRI  V0209991C000012200019N0240001N9-00441-00831999999ADDGF102991999999999999999999MA1103221999999MW1001REMAWY012OCNL LGT WND
0076724096147061972010903004+40000-074583SAO  +0041WRI  V0201501N001012200019N0240001N9-00441-00891103241ADDGF100991999999999999999999MA1103181999999MD1710141+9999MW1001REMAWY003714
0050724096147061972010904004+40000-074583SAO  +0041WRI  V0209991C000012200019N0240001N9-00441-00891999999ADDGF100991999999999999999999MA1103151999999MW1001
0050724096147061972010905004+40000-074583SAO  +0041WRI  V0201601N001012200019N0240001N9-00501-00941999999ADDGF100991999999999999999999MA1103051999999MW1001
0076724096147061972010906004+40000-074583SAO  +0041WRI  V0201601N001012200019N0240001N9-00441-00941103061ADDGF100991999999999999999999MA1103011999999MD1710191+9999MW1001REMAWY003719
0050724096147061972010907004+40000-074583SAO  +0041WRI  V0201401N000512200019N0240001N9-00441-00891999999ADDGF102991999999999999999999MA1102951999999MW1001
0050724096147061972010908004+40000-074583SAO  +0041WRI  V0201401N001012200019N0240001N9-00331-00781999999ADDGF107991999999999999999999MA1102841999999MW1001
0081724096147061972010909004+40000-074583SAO  +0041WRI  V0201501N001012200019N0240001N9-00221-00611102821ADDGF107991999999999999999999MA1102781999999MD1710221+9999MW1001REMAWY008722 1008
0050724096147061972010910004+40000-074583SAO  +0041WRI  V0201601N001012200019N0240001N9-00111-00391999999ADDGF107991999999999999999999MA1102681999999MW1001
0050724096147061972010911004+40000-074583SAO  +0041WRI  V0209991C000012200019N0240001N9-00171-00391999999ADDGF107991999999999999999999MA1102611999999MW1001
0081724096147061972010912004+40000-074583SAO  +0041WRI  V0209991C000012200019N0240001N9-00171-00331102531ADDGF107991999999999999999999MA1102471999999MD1710291+9999MW1001REMAWY008729 1018
0050724096147061972010913004+40000-074583SAO  +0041WRI  V0201701N001510135019N0192001N9+00111-00111999999ADDGF107991999999999999999999MA1102441999999MW1001
0050724096147061972010914004+40000-074583SAO  +0041WRI  V0201701N002110135019N0192001N9+00331+00111999999ADDGF107991999999999999999999MA1102401999999MW1001
0093724096147061972010915004+40000-074583SAO  +0041WRI  V0201901N003610150019N0192001N9+00721+00391102311ADDGF108991999999999999999999MA1102301999999MD1810221+9999MW1001REMAWY020WND 150V220/822 1577
0101724096147061972010916004+40000-074583SAO  +0041WRI  V0202001N005110180019N0192001N9+00941+00501999999ADDGF108991999999999999999999MA1102131999999MW1001OC100821REMAWY034SCT INCRNG OCNL BINOVC WND 170V240
0077724096147061972010917004+40000-074583SAO  +0041WRI  V0202001N004110099019N0192001N9+01001+00561999999ADDGF108991999999999999999999MA1101801999999MW1001REMAWY018WND 170V240 PRESFR
0094724096147061972010918004+40000-074583SAO  +0041WRI  V0202001N002110114019N0112001N9+01061+00611101581ADDGF108991999999999999999999MA1101561999999MD1610751+9999MW1611REMAWY021LWR SC ALQDS/675 15//
0070724096147061972010919004+40000-074583SAO  +0041WRI  V0202201N004110150019N0192001N9+01111+00671999999ADDGF108991999999999999999999MA1101461999999MW1511REMAWY011WND 150V250
0050724096147061972010920004+40000-074583SAO  +0041WRI  V0202401N003110105019N0096001N9+00891+00721999999ADDGF108991999999999999999999MA1101461999999MW1611
0090724096147061972010921004+40000-074583SAO  +0041WRI  V0202401N001510087019N0048001N9+00721+00611101421ADDGF110991999999999999999999MA1101421999999MD1810141+9999MW1111MW2611REMAWY011F1/814 16//
0056724096147061972010922004+40000-074583SAO  +0041WRI  V0202901N002610048019N0040001N9+00671+00611999999ADDGF108991999999999999999999MA1101351999999MW1451MW2611
0056724096147061972010923004+40000-074583SAO  +0041WRI  V0202501N002110048019N0064001N9+00721+00611999999ADDGF108991999999999999999999MA1101321999999MW1451MW2611
0119724096147061972011000004+40000-074583SAO  +0041WRI  V0202301N002110045019N0064001N9+00671+00611101301ADDAA106010091GF108991999999999999999999MA1101251999999MD1810141+9999MW1451MW2611REMAWY01081441 152/EQDQ01  01003PRCP99
0074724096147061972011001004+40000-074583SAO  +0041WRI  V0202301N003110075019N0080001N9+00671+00611999999ADDGF108991999999999999999999MA1101221999999MW1451MW2611REMAWY00915SCTVBKN
0056724096147061972011002004+40000-074583SAO  +0041WRI  V0202001N002110060019N0080001N9+00721+00611999999ADDGF108991999999999999999999MA1101151999999MW1451MW2611
0087724096147061972011003004+40000-074583SAO  +0041WRI  V0202201N003110045019N0096001N9+00781+00671101141ADDGF108991999999999999999999MA1101081999999MD1710151+9999MW1451MW2611REMAWY008715 172/
0050724096147061972011004004+40000-074583SAO  +0041WRI  V0202301N003110087019N0160001N9+00891+00781999999ADDGF108991999999999999999999MA1100981999999MW1611
0090724096147061972011005004+40000-074583SAO  +0041WRI  V0202201N004610033019N0160001N9+01001+00891999999ADDGF108991999999999999999999MA1100911999999MW1611OC100771REMAWY023R- OCNL R-- WND 170V270
0121724096147061972011006004+40000-074583SAO  +0041WRI  V0202201N002610018019N0112001N9+01001+00891100901ADDAA106009091GF108991999999999999999999MA1100881999999MD1610241+9999MW1611REMAWY018CIG 5V7/62435 17//EQDQ01  00903PRCP99
0086724096147061972011007004+40000-074583SAO  +0041WRI  V0202301N003610012019N0040001N9+01001+00941999999ADDGF108991999999999999999999MA1100911999999MW1451REMAWY027CIG 3V5 WND 200V260 WET RWY
0086724096147061972011008004+40000-074583SAO  +0041WRI  V0202401N003610021019N0112001N9+01001+00941999999ADDGF108991999999999999999999MA1100911999999MW1001REMAWY027CIG 6V8 WND 210V270 WET RWY
0098724096147061972011009004+40000-074583SAO  +0041WRI  V0202501N005110027019N0112001N9+01001+00891100951ADDGF108991999999999999999999MA1100951999999MD1310051+9999MW1001REMAWY025CIG 8V10/305 16// WET RWY
0074724096147061972011010004+40000-074583SAO  +0041WRI  V0202601N003610024019N0112001N9+01001+00891999999ADDGF108991999999999999999999MA1100951999999MW1001REMAWY015CIG 7V9 WET RWY
0074724096147061972011011004+40000-074583SAO  +0041WRI  V0202701N002610021019N0112001N9+00941+00831999999ADDGF108991999999999999999999MA1101021999999MW1001REMAWY015CIG 6V8 WET RWY
0146724096147061972011012004+40000-074583SAO  +0041WRI  V0202801N002610024019N0112001N9+00941+00831101061ADDAA106999929AA224019091GF108991999999999999999999MA1101051999999MD1310101+9999MW1001REMAWY032CIG 7V9/31000 16// 20076 WET RWYEQDQ01  99993PRCP99
0066724096147061972011013004+40000-074583SAO  +0041WRI  V0202701N000510024019N0048001N9+00941+00831999999ADDGF108991999999999999999999MA1101191999999MW1451REMAWY007WET RWY
0066724096147061972011014004+40000-074583SAO  +0041WRI  V0202301N001010024019N0048001N9+00941+00831999999ADDGF108991999999999999999999MA1101221999999MW1451REMAWY007WET RWY
0089724096147061972011015004+40000-074583SAO  +0041WRI  V0202601N000510021019N0048001N9+00941+00831101311ADDGF108991999999999999999999MA1101291999999MD1110251+9999MW1451REMAWY016125 16// WET RWY
0066724096147061972011016004+40000-074583SAO  +0041WRI  V0209991C000010024019N0048001N9+01001+00831999999ADDGF108991999999999999999999MA1101251999999MW1451REMAWY007WET RWY
0072724096147061972011017004+40000-074583SAO  +0041WRI  V0209991C000010027019N0080001N9+01061+00831999999ADDGF108991999999999999999999MA1101221999999MW1051MW2111REMAWY007WET RWY
0089724096147061972011018004+40000-074583SAO  +0041WRI  V0209991C000010027019N0096001N9+01061+00831101161ADDGF108991999999999999999999MA1101151999999MD1810141+9999MW1051REMAWY016814 16// WET RWY
0066724096147061972011019004+40000-074583SAO  +0041WRI  V0209991C000010060019N0096001N9+01111+00891999999ADDGF108991999999999999999999MA1101121999999MW1051REMAWY007WET RWY
0066724096147061972011020004+40000-074583SAO  +0041WRI  V0209991C000010060019N0096001N9+01111+00891999999ADDGF108991999999999999999999MA1101121999999MW1051REMAWY007WET RWY
0089724096147061972011021004+40000-074583SAO  +0041WRI  V0209991C000010027019N0096001N9+01061+00891101171ADDGF108991999999999999999999MA1101191999999MD1510001+9999MW1051REMAWY016500 16// WET RWY
0085724096147061972011022004+40000-074583SAO  +0041WRI  V0209991C000010018019N0096001N9+01061+00891999999ADDGF108991999999999999999999MA1101191999999MW1051MW2451REMAWY020OCNL LTG WND WET RWY
0082724096147061972011023004+40000-074583SAO  +0041WRI  V0209991C000010012019N0080001N9+01001+00891999999ADDGF108991999999999999999999MA1101151999999MW1051MW2451REMAWY017OCNL RW-- WET RWY
0131724096147061972011100004+40000-074583SAO  +0041WRI  V0200901N000510009019N0064001N9+00941+00831101181ADDAA106999929GF108991999999999999999999MA1101191999999MD1510021+9999MW1451REMAWY028OCNL R--/50200 16// /WET RWYEQDQ01  99993PRCP99
0077724096147061972011101004+40000-074583SAO  +0041WRI  V0200801N001010006019N0012001N9+00891+00831999999ADDGF110991999999999999999999MA1101221999999MW1451REMAWY018R06VR40/F7 WET RWY
0074724096147061972011102004+40000-074583SAO  +0041WRI  V0200801N000510003019N0001001N9+00941+00831999999ADDGF108991999999999999999999MA1101221999999MW1451REMAWY015R06VR12 WET RWY
0086724096147061972011103004+40000-074583SAO  +0041WRI  V0200801N001010003019N0001001N9+00891+00831999999ADDGF108991999999999999999999MA1101191999999MW1451MW2611REMAWY021R06VR10-/000 /WET RWY
0074724096147061972011104004+40000-074583SAO  +0041WRI  V0201101N000510003019N0004001N9+00891+00831999999ADDGF108991999999999999999999MA1101121999999MW1451REMAWY015R06VR20 WET RWY
0066724096147061972011105004+40000-074583SAO  +0041WRI  V0209991C000010003019N0004001N9+00941+00891999999ADDGF108991999999999999999999MA1101081999999MW1451REMAWY007R06VR14
0116724096147061972011106004+40000-074583SAO  +0041WRI  V0209991C000010003019N0004001N9+00941+00891101021ADDAA106999929GF108991999999999999999999MA1101021999999MD1610151+9999MW1451REMAWY013R06VR16/61500EQDQ01  99993PRCP99
0066724096147061972011107004+40000-074583SAO  +0041WRI  V0209991C000010003019N0004001N9+00941+00891999999ADDGF108991999999999999999999MA1101021999999MW1451REMAWY007R06VR22
0066724096147061972011108004+40000-074583SAO  +0041WRI  V0209991C000010003019N0004001N9+00941+00891999999ADDGF108991999999999999999999MA1101051999999MW1451REMAWY007R06VR22
0085724096147061972011109004+40000-074583SAO  +0041WRI  V0209991C000010001519N0001001N9+00891+00831101021ADDGF108991999999999999999999MA1101021999999MD1010001+9999MW1451REMAWY012R06VR10-/000
0067724096147061972011110004+40000-074583SAO  +0041WRI  V0209991C000010001519N0001001N9+00891+00891999999ADDGF108991999999999999999999MA1101021999999MW1451REMAWY008R06VR10-
0067724096147061972011111004+40000-074583SAO  +0041WRI  V0202301N000510001519N0001001N9+01001+00941999999ADDGF108991999999999999999999MA1101051999999MW1451REMAWY008R06VR10-
0095724096147061972011112004+40000-074583SAO  +0041WRI  V0202201N002110006019N0024001N9+01111+01111101081ADDAA124999929GF110991999999999999999999MA1101081999999MD1310051+9999MW1451REMAWY011F9/305 16//
0061724096147061972011113004+40000-074583SAO  +0041WRI  V0202401N002110009019N0020001N9+01171+01111999999ADDGF110991999999999999999999MA1101221999999MW1451REMAWY002F7
0069724096147061972011114004+40000-074583SAO  +0041WRI  V0202601N003610009019N0018001N9+01111+01061999999ADDGF110991999999999999999999MA1101221999999MW1451REMAWY010R06VR45/F7
0087724096147061972011115004+40000-074583SAO  +0041WRI  V0202501N004610015019N0040001N9+01111+01061101321ADDGF108991999999999999999999MA1101291999999MD1110241+9999MW1051MW2451REMAWY008124 16//
0073724096147061972011116004+40000-074583SAO  +0041WRI  V0202701N002110018019N0032001N9+01171+01061999999ADDGF108991999999999999999999MA1101251999999MW1051MW2451REMAWY008OCNL R--
0062724096147061972011117004+40000-074583SAO  +0041WRI  V0202901N002110018019N0024001N9+01171+01061999999ADDGF108991999999999999999999MA1101191999999MW1051MW2451MW3611
0119724096147061972011118004+40000-074583SAO  +0041WRI  V0202601N001510018019N0024001N9+01221+01111101121ADDAA106000591GF108991999999999999999999MA1101081999999MD1810201+9999MW1051MW2451REMAWY01082002 16//EQDQ01  00053PRCP99
0056724096147061972011119004+40000-074583SAO  +0041WRI  V0202901N002110018019N0032001N9+01281+01111999999ADDGF108991999999999999999999MA1101081999999MW1051MW2451
0056724096147061972011120004+40000-074583SAO  +0041WRI  V0209991C000010075019N0040001N9+01281+01111999999ADDGF108991999999999999999999MA1101081999999MW1051MW2451
0087724096147061972011121004+40000-074583SAO  +0041WRI  V0209991C000010075019N0040001N9+01221+01111101121ADDGF108991999999999999999999MA1101081999999MD1410001+9999MW1051MW2451REMAWY008400 15//
0086724096147061972011122004+40000-074583SAO  +0041WRI  V0201101N000510018019N0032001N9+01111+01001999999ADDGF108991999999999999999999MA1101121999999MW1451MW2801REMAWY021CIG RGD GF FRMG ALQDS
0090724096147061972011123004+40000-074583SAO  +0041WRI  V0209991C000010048019N0036001N9+01061+00941999999ADDGF108991999999999999999999MA1101121999999MW1451MW2611REMAWY025VSBY SE1 1/2 OCNL LTG WND
0137724096147061972011200004+40000-074583SAO  +0041WRI  V0209991C000010009019N0036001N9+01001+00941101101ADDAA106001091GF110991999999999999999999MA1101081999999MD1710051+9999MW1451MW2611REMAWY028F2 VSBY S-SW 3/4 /70505 17//EQDQ01  00103PRCP99
0081724096147061972011201004+40000-074583SAO  +0041WRI  V0209991C000010009019N0036001N9+01001+00941999999ADDGF110991999999999999999999MA1101051999999MW1451MW2611REMAWY016F2 VSBY S-SW 3/4
0078724096147061972011202004+40000-074583SAO  +0041WRI  V0209991C000010006019N0036001N9+01061+01001999999ADDGF110991999999999999999999MA1100981999999MW1451MW2611REMAWY013F2 VSBY S-SW1
0089724096147061972011203004+40000-074583SAO  +0041WRI  V0201801N002110009019N0080001N9+01171+01061101011ADDGF108991999999999999999999MA1101021999999MD1510081+9999MW1451REMAWY016CIG RGD/508 172/
0050724096147061972011204004+40000-074583SAO  +0041WRI  V0201901N003110009019N0080001N9+01171+01061999999ADDGF108991999999999999999999MA1101021999999MW1451
0050724096147061972011205004+40000-074583SAO  +0041WRI  V0202001N002110075019N0112001N9+01171+01061999999ADDGF107991999999999999999999MA1100911999999MW1001
0113724096147061972011206004+40000-074583SAO  +0041WRI  V0202401N003110027019N0112001N9+01171+01061101061ADDAA106000391GF107991999999999999999999MA1101021999999MD1310031+9999MW1001REMAWY01030301 1500EQDQ01  00033PRCP99
0050724096147061972011207004+40000-074583SAO  +0041WRI  V0202601N005112200019N0112001N9+01111+00891999999ADDGF102991999999999999999999MA1101121999999MW1001
0050724096147061972011208004+40000-074583SAO  +0041WRI  V0202901N004112200019N0160001N9+01001+00561999999ADDGF102991999999999999999999MA1101251999999MW1001
0076724096147061972011209004+40000-074583SAO  +0041WRI  V0203001N004612200019N0160001N9+00831+00501101401ADDGF100991999999999999999999MA1101351999999MD1210361+9999MW1001REMAWY003236
0050724096147061972011210004+40000-074583SAO  +0041WRI  V0203001N003612200019N0160001N9+00671+00281999999ADDGF100991999999999999999999MA1101421999999MW1001
0050724096147061972011211004+40000-074583SAO  +0041WRI  V0203001N003112200019N0160001N9+00561+00221999999ADDGF100991999999999999999999MA1101491999999MW1001
0098724096147061972011212004+40000-074583SAO  +0041WRI  V0203001N003112200019N0112001N9+00501+00111101671ADDAA124002091GF102991999999999999999999MA1101631999999MD1210251+9999MW1001REMAWY014225 1008 20008
0050724096147061972011213004+40000-074583SAO  +0041WRI  V0202601N001512200019N0192001N9+00441-00061999999ADDGF102991999999999999999999MA1101901999999MW1001
0050724096147061972011214004+40000-074583SAO  +0041WRI  V0202501N001012200019N0192001N9+00611+00111999999ADDGF102991999999999999999999MA1102031999999MW1001
0081724096147061972011215004+40000-074583SAO  +0041WRI  V0202701N003112200019N0192001N9+00781-00111102161ADDGF102991999999999999999999MA1102171999999MD1110491+9999MW1001REMAWY008149 1001
0067724096147061972011216004+40000-074583SAO  +0041WRI  V0202901N002112200019N0192001N9+00891-00111999999ADDGF100991999999999999999999MA1102131999999MW1001REMAWY008CI NW-NE
0066724096147061972011217004+40000-074583SAO  +0041WRI  V0202801N002112200019N0192001N9+00941-00391999999ADDGF100991999999999999999999MA1102101999999MW1001REMAWY007CI NW-N
0101724096147061972011218004+40000-074583SAO  +0041WRI  V0203101N003612200019N0192001N9+01001-00441101991ADDGF100991999999999999999999MA1102001999999MD1810171+9999MW1001REMAWY028CI NW-N WND 280V340/817 1001
0067724096147061972011219004+40000-074583SAO  +0041WRI  V0202701N001012200019N0192001N9+01001-00441999999ADDGF100991999999999999999999MA1102001999999MW1001REMAWY008CI NW-NE
0050724096147061972011220004+40000-074583SAO  +0041WRI  V0202601N001512200019N0192001N9+01001-00441999999ADDGF102991999999999999999999MA1102001999999MW1001
0081724096147061972011221004+40000-074583SAO  +0041WRI  V0209991C000012200019N0192001N9+01001-00391102001ADDGF102991999999999999999999MA1102001999999MD1110021+9999MW1001REMAWY008102 1001
0065724096147061972011222004+40000-074583SAO  +0041WRI  V0201601N002112200019N0192001N9+00781-00441999999ADDGF102991999999999999999999MA1102031999999MW1001REMAWY006AC W-N
0050724096147061972011223004+40000-074583SAO  +0041WRI  V0201501N001512200019N0240001N9+00611-00391999999ADDGF102991999999999999999999MA1102071999999MW1001
0081724096147061972011300004+40000-074583SAO  +0041WRI  V0201501N001512200019N0240001N9+00501-00171102071ADDGF102991999999999999999999MA1102071999999MD1110081+9999MW1001REMAWY008108 1001
0050724096147061972011301004+40000-074583SAO  +0041WRI  V0201501N001012200019N0240001N9+00391-00061999999ADDGF102991999999999999999999MA1102001999999MW1001
0050724096147061972011302004+40000-074583SAO  +0041WRI  V0201501N000512200019N0240001N9+00281-00111999999ADDGF102991999999999999999999MA1101961999999MW1001
0089724096147061972011303004+40000-074583SAO  +0041WRI  V0209991C000010750019N0240001N9+00171-00111101931ADDGF107991999999999999999999MA1101901999999MD1810141+9999MW1001REMAWY016SCTVBKN/814 1508
0050724096147061972011304004+40000-074583SAO  +0041WRI  V0209991C000012200019N0240001N9+00331+00061999999ADDGF102991999999999999999999MA1101901999999MW1001
0050724096147061972011305004+40000-074583SAO  +0041WRI  V0209991C000012200019N0240001N9+00221+00061999999ADDGF102991999999999999999999MA1101691999999MW1001
0081724096147061972011306004+40000-074583SAO  +0041WRI  V0201701N001012200019N0240001N9+00331+00171101611ADDGF102991999999999999999999MA1101561999999MD1810321+9999MW1001REMAWY008832 1002
0050724096147061972011307004+40000-074583SAO  +0041WRI  V0209991C000012200019N0240001N9+00391+00281999999ADDGF100991999999999999999999MA1101561999999MW1001
0050724096147061972011308004+40000-074583SAO  +0041WRI  V0201501N003112200019N0240001N9+00721+00561999999ADDGF100991999999999999999999MA1101491999999MW1001
0076724096147061972011309004+40000-074583SAO  +0041WRI  V0201701N001512200019N0240001N9+00721+00561101501ADDGF100991999999999999999999MA1101461999999MD1810101+9999MW1001REMAWY003810
0072724096147061972011310004+40000-074583SAO  +0041WRI  V0209991C000010009019N0080001N9+00501+00391999999ADDGF108991999999999999999999MA1101421999999MW1451REMAWY013F DNSR NR SFC
0066724096147061972011311004+40000-074583SAO  +0041WRI  V0201901N001510003019N0004001N9+00671+00561999999ADDGF108991999999999999999999MA1101421999999MW1451REMAWY007R06VR55
0084724096147061972011312004+40000-074583SAO  +0041WRI  V0209991C000010001519N0001001N9+00671+00611101451ADDGF108991999999999999999999MA1101421999999MD1610051+9999MW1451REMAWY011R06VR12/605
0067724096147061972011313004+40000-074583SAO  +0041WRI  V0209991C000010001519N0001001N9+00781+00721999999ADDGF108991999999999999999999MA1101391999999MW1451REMAWY008R06VR10-
0072724096147061972011314004+40000-074583SAO  +0041WRI  V0209991C000010001519N0003001N9+00831+00781999999ADDGF108991999999999999999999MA1101391999999MW1451MW2511REMAWY007R06VR12
0098724096147061972011315004+40000-074583SAO  +0041WRI  V0209991C000010003019N0008001N9+00941+00891101421ADDGF108991999999999999999999MA1101421999999MD1510021+9999MW1451MW2511REMAWY019R06VR26/502 WET RWY
0081724096147061972011316004+40000-074583SAO  +0041WRI  V0209991C000010001519N0003001N9+01001+00941999999ADDGF108991999999999999999999MA1101321999999MW1451MW2511REMAWY016R06VR16/ WET RWY
0081724096147061972011317004+40000-074583SAO  +0041WRI  V0201501N001010001519N0006001N9+01171+01111999999ADDGF108991999999999999999999MA1101081999999MW1451REMAWY022R06VR18 PRESFR WET RWY
0138724096147061972011318004+40000-074583SAO  +0041WRI  V0201701N003110003019N0012001N9+01221+01171100941ADDAA106000391GF110991999999999999999999MA1100911999999MD1710491+9999MW1451MW2511REMAWY029R06VR55/F9/74901 16// WET RWYEQDQ01  00033PRCP99
0087724096147061972011319004+40000-074583SAO  +0041WRI  V0201701N004110009019N0112001N9+01331+01221999999ADDGF108991999999999999999999MA1100811999999MW1001REMAWY028OCNL R-- WND 140V200 WET RWY
0078724096147061972011320004+40000-074583SAO  +0041WRI  V0201801N005110012019N0144001N9+01441+01331999999ADDGF108991999999999999999999MA1100681999999MW1001REMAWY019WND 150V210 WET RWY
0117724096147061972011321004+40000-074583SAO  +0041WRI  V0201901N005110024019N0192001N9+01561+01441100691ADDGF108991999999999999999999MA1100681999999MD1610251+9999MW1001OC100821REMAWY036CIG 7V9 WND 130V230/625 16// WET RWY
0094724096147061972011322004+40000-074583SAO  +0041WRI  V0201801N005712200019N0192001N9+01561+01391999999ADDGF108991999999999999999999MA1100611999999MW1001OC100871REMAWY027CIG 6V9 WND 130V240 WET RWY
0094724096147061972011323004+40000-074583SAO  +0041WRI  V0201901N004610015019N0240001N9+01501+01391999999ADDGF108991999999999999999999MA1100511999999MW1001OC100871REMAWY027CIG 4V9 WND 150V220 WET RWY
0150724096147061972011400004+40000-074583SAO  +0041WRI  V0202001N006210033019N0240001N9+01561+01391100481ADDAA106002091GF108991999999999999999999MA1100471999999MD1610191+9999MW1001OC100821REMAWY039CIG 9V12 WND 140V240/61906 16// WET RWYEQDQ01  00203PRCP99
0086724096147061972011401004+40000-074583SAO  +0041WRI  V0201901N005710096019N0240001N9+01611+01441999999ADDGF107991999999999999999999MA1100341999999MW1001OC100931REMAWY019WND 140V240 WET RWY
0086724096147061972011402004+40000-074583SAO  +0041WRI  V0202101N006210096019N0240001N9+01671+01441999999ADDGF107991999999999999999999MA1100311999999MW1001OC100821REMAWY019WND 160V270 WET RWY
0109724096147061972011403004+40000-074583SAO  +0041WRI  V0202101N006210045019N0240001N9+01781+01561100301ADDGF108991999999999999999999MA1100311999999MD1610191+9999MW1001OC101031REMAWY028WND 160V250/619 177/ WET RWY
0086724096147061972011404004+40000-074583SAO  +0041WRI  V0202301N007710075019N0160001N9+01721+01501999999ADDGF108991999999999999999999MA1100271999999MW1801OC100981REMAWY019WND 140V260 WET RWY
0078724096147061972011405004+40000-074583SAO  +0041WRI  V0202101N005110114019N0240001N9+01721+01441999999ADDGF108991999999999999999999MA1100241999999MW1001OC100871REMAWY011WND 170V250
0149724096147061972011406004+40000-074583SAO  +0041WRI  V0202301N005110084019N0240001N9+01721+01441100271ADDAA106000391GF108991999999999999999999MA1100271999999MD1510031+9999MW1801OC100821REMAWY038CIG RGD WND 200V260/50301 17// WET RWYEQDQ01  00033PRCP99
0073724096147061972011407004+40000-074583SAO  +0041WRI  V0203401N008210090019N0160001N9+00501+00281999999ADDGF108991999999999999999999MA1100811999999MW1001REMAWY014PRESRR WET RWY
0086724096147061972011408004+40000-074583SAO  +0041WRI  V0203301N005110090019N0240001N9+00441+00061999999ADDGF108991999999999999999999MA1100951999999MW1001OC100931REMAWY019CIG VRY RGD WET RWY
0097724096147061972011409004+40000-074583SAO  +0041WRI  V0203301N005710090019N0240001N9+00391+00001101131ADDGF108991999999999999999999MA1101121999999MD1210861+9999MW1001OC100981REMAWY016286 17// WET RWY
0074724096147061972011410004+40000-074583SAO  +0041WRI  V0203501N006210090019N0160001N9+00221-00171999999ADDGF108991999999999999999999MA1101251999999MW1801OC101081REMAWY007WET RWY
0074724096147061972011411004+40000-074583SAO  +0041WRI  V0203501N005110105019N0160001N9+00061-00281999999ADDGF108991999999999999999999MA1101351999999MW1801OC101031REMAWY007WET RWY
0137724096147061972011412004+40000-074583SAO  +0041WRI  V0203101N004110150019N0160001N9+00061-00441101571ADDAA106003091AA224005091GF108991999999999999999999MA1101561999999MD1210421+9999MW1791REMAWY02324212 17//20008 WET RWYEQDQ01  00303PRCP99
0075724096147061972011413004+40000-074583SAO  +0041WRI  V0203301N005110105019N0160001N9+00061-00561999999ADDGF108991999999999999999999MA1101591999999MW1001REMAWY016BINOVC N WET RWY
0079724096147061972011414004+40000-074583SAO  +0041WRI  V0203401N005710105019N0192001N9+00111-00671999999ADDGF107991999999999999999999MA1101861999999MW1001REMAWY020SC SE PRESRR WET RWY
0102724096147061972011415004+40000-074583SAO  +0041WRI  V0203301N006210120019N0192001N9+00111-00781102101ADDGF107991999999999999999999MA1102071999999MD1210521+9999MW1001REMAWY029SC S PRESRR /252 1500 WET RWY
0077724096147061972011416004+40000-074583SAO  +0041WRI  V0203401N004610120019N0192001N9+00111-00831999999ADDGF108991999999999999999999MA1102131999999MW1001REMAWY018BINOVC N W WET RWY
0067724096147061972011417004+40000-074583SAO  +0041WRI  V0203501N005710120019N0192001N9+00111-00941999999ADDGF108991999999999999999999MA1102171999999MW1001REMAWY008BINOVC N
0131724096147061972011418004+40000-074583SAO  +0041WRI  V0203501N004610180019N0192001N9+00221-00831102191ADDAA106000391GF108991999999999999999999MA1102131999999MD1010081+9999MW1001REMAWY028BINOVC N /00801 1578 WET RWYEQDQ01  00033PRCP99
0066724096147061972011419004+40000-074583SAO  +0041WRI  V0203601N003110180019N0192001N9+00281-00831999999ADDGF108991999999999999999999MA1102241999999MW1001REMAWY007WET RWY
0066724096147061972011420004+40000-074583SAO  +0041WRI  V0203601N003610600019N0192001N9+00331-00941999999ADDGF107991999999999999999999MA1102301999999MW1001REMAWY007WET RWY
0081724096147061972011421004+40000-074583SAO  +0041WRI  V0200201N002610600019N0192001N9+00331-01001102491ADDGF107991999999999999999999MA1102471999999MD1210301+9999MW1001REMAWY008230 1508
0050724096147061972011422004+40000-074583SAO  +0041WRI  V0200201N001510600019N0192001N9+00171-01001999999ADDGF107991999999999999999999MA1102571999999MW1001
0050724096147061972011423004+40000-074583SAO  +0041WRI  V0203401N002110600019N0240001N9+00061-00891999999ADDGF107991999999999999999999MA1102641999999MW1001
0081724096147061972011500004+40000-074583SAO  +0041WRI  V0203301N002612200019N0240001N9-00061-00781102741ADDGF108991999999999999999999MA1102711999999MD1310251+9999MW1001REMAWY008325 1007
0050724096147061972011501004+40000-074583SAO  +0041WRI  V0203401N002612200019N0240001N9-00061-00891999999ADDGF108991999999999999999999MA1102811999999MW1001
0050724096147061972011502004+40000-074583SAO  +0041WRI  V0203401N002112200019N0240001N9-00111-00891999999ADDGF108991999999999999999999MA1102811999999MW1001
0081724096147061972011503004+40000-074583SAO  +0041WRI  V0203401N001512200019N0240001N9-00171-00831102841ADDGF108991999999999999999999MA1102811999999MD1110101+9999MW1001REMAWY008110 1007
0050724096147061972011504004+40000-074583SAO  +0041WRI  V0203301N002112200019N0240001N9-00221-00831999999ADDGF108991999999999999999999MA1102811999999MW1001
0050724096147061972011505004+40000-074583SAO  +0041WRI  V0203201N002612200019N0240001N9-00281-00891999999ADDGF107991999999999999999999MA1102741999999MW1001
0081724096147061972011506004+40000-074583SAO  +0041WRI  V0203401N000512200019N0240001N9-00171-00891102751ADDGF102991999999999999999999MA1102711999999MD1810101+9999MW1001REMAWY008810 1508
0050724096147061972011507004+40000-074583SAO  +0041WRI  V0203301N002112200019N0240001N9-00281-00831999999ADDGF107991999999999999999999MA1102781999999MW1001
0050724096147061972011508004+40000-074583SAO  +0041WRI  V0203301N002112200019N0240001N9-00281-00891999999ADDGF107991999999999999999999MA1102781999999MW1001
0095724096147061972011509004+40000-074583SAO  +0041WRI  V0209991C000010150019N0240001N9-00281-00831102751ADDGF107991999999999999999999MA1102711999999MD1010001+9999MW1001REMAWY022OCNL LGT WND /000 1500
0071724096147061972011510004+40000-074583SAO  +0041WRI  V0203401N001510150019N0240001N9-00281-00831999999ADDGF107991999999999999999999MA1102681999999MW1001REMAWY012CIG PTLY THN
0071724096147061972011511004+40000-074583SAO  +0041WRI  V0203401N001510150019N0240001N9-00281-00831999999ADDGF107991999999999999999999MA1102681999999MW1001REMAWY012CIG PTLY THN
0110724096147061972011512004+40000-074583SAO  +0041WRI  V0203601N001510150019N0240001N9-00281-00781102841ADDAA124000391GF108991999999999999999999MA1102811999999MD1210081+9999MW1001REMAWY026CIG PTLY THN/208 157/20001
0050724096147061972011513004+40000-074583SAO  +0041WRI  V0203301N002110240019N0192001N9-00171-00671999999ADDGF108991999999999999999999MA1102741999999MW1001
0050724096147061972011514004+40000-074583SAO  +0041WRI  V0203301N004110240019N0192001N9-00111-00721999999ADDGF108991999999999999999999MA1102741999999MW1001
0089724096147061972011515004+40000-074583SAO  +0041WRI  V0203301N003610600019N0192001N9+00001-00721102831ADDGF108991999999999999999999MA1102781999999MD1510001+9999MW1001REMAWY016SCTVBKN/500 1077
0050724096147061972011516004+40000-074583SAO  +0041WRI  V0203301N003610420019N0192001N9+00061-00831999999ADDGF108991999999999999999999MA1102681999999MW1001
0050724096147061972011517004+40000-074583SAO  +0041WRI  V0203301N004610420019N0192001N9+00001-00891999999ADDGF108991999999999999999999MA1102541999999MW1001
0094724096147061972011518004+40000-074583SAO  +0041WRI  V0203301N004110600019N0192001N9+00111-00721102531ADDGF108991999999999999999999MA1102471999999MD1610301+9999MW1001REMAWY021OVC PTLY THN/630 1177
0050724096147061972011519004+40000-074583SAO  +0041WRI  V0203201N004110600019N0192001N9+00061-00831999999ADDGF108991999999999999999999MA1102471999999MW1001
0050724096147061972011520004+40000-074583SAO  +0041WRI  V0203501N004110420019N0192001N9+00001-01001999999ADDGF108991999999999999999999MA1102471999999MW1001
0081724096147061972011521004+40000-074583SAO  +0041WRI  V0203001N005110420019N0192001N9+00001-01001102531ADDGF108991999999999999999999MA1102471999999MD1510001+9999MW1001REMAWY008500 157/
0069724096147061972011522004+40000-074583SAO  +0041WRI  V0203101N005110600019N0192001N9-00111-01111999999ADDGF108991999999999999999999MA1102471999999MW1001REMAWY010120SCTVBKN
0050724096147061972011523004+40000-074583SAO  +0041WRI  V0203101N005710600019N0240001N9-00331-00831999999ADDGF107991999999999999999999MA1102541999999MW1001
0128724096147061972011600004+40000-074583SAO  +0041WRI  V0203301N006210048019N0112001N9-00391-00781102671ADDAA106999929GF108991999999999999999999MA1102611999999MD1310141+9999MW1851REMAWY025SW-- OCNLY SW-/31400 15//EQDQ01  99993PRCP99
0050724096147061972011601004+40000-074583SAO  +0041WRI  V0203101N006210360019N0240001N9-00671-01391999999ADDGF108991999999999999999999MA1102741999999MW1001
0050724096147061972011602004+40000-074583SAO  +0041WRI  V0203301N006712200019N0240001N9-00831-01561999999ADDGF107991999999999999999999MA1102781999999MW1001
0081724096147061972011603004+40000-074583SAO  +0041WRI  V0203301N005712200019N0240001N9-00891-01721102901ADDGF102991999999999999999999MA1102841999999MD1210241+9999MW1001REMAWY008224 1071
0058724096147061972011604004+40000-074583SAO  +0041WRI  V0203401N008712200019N0240001N9-01061-01831999999ADDGF102991999999999999999999MA1102881999999MW1001OC101291
0078724096147061972011605004+40000-074583SAO  +0041WRI  V0203301N008212200019N0240001N9-01171-02001999999ADDGF102991999999999999999999MA1102981999999MW1001OC101131REMAWY011WND 300V350
0101724096147061972011606004+40000-074583SAO  +0041WRI  V0203201N008712200019N0240001N9-01281-02391103021ADDGF102991999999999999999999MA1102981999999MD1110121+9999MW1001OC101341REMAWY020WND 290V350/112 1001
0077724096147061972011607004+40000-074583SAO  +0041WRI  V0203201N006712200019N0240001N9-01331-02281999999ADDGF100991999999999999999999MA1103081999999MW1001REMAWY018PRESRR WND 280V340
0070724096147061972011608004+40000-074583SAO  +0041WRI  V0203201N006712200019N0240001N9-01391-02441999999ADDGF100991999999999999999999MA1103151999999MW1001REMAWY011WND 290V340
0088724096147061972011609004+40000-074583SAO  +0041WRI  V0203101N007212200019N0240001N9-01441-02391103181ADDGF100991999999999999999999MA1103151999999MD1110151+9999MW1001REMAWY015WND 290V330/115
0078724096147061972011610004+40000-074583SAO  +0041WRI  V0203101N008212200019N0240001N9-01441-02331999999ADDGF100991999999999999999999MA1103221999999MW1001OC101131REMAWY011WND 280V340
0078724096147061972011611004+40000-074583SAO  +0041WRI  V0203101N008212200019N0240001N9-01441-02281999999ADDGF100991999999999999999999MA1103291999999MW1001OC101081REMAWY011WND 280V330
0125724096147061972011612004+40000-074583SAO  +0041WRI  V0203101N006712200019N0240001N9-01441-02221103371ADDAA124999929GF100991999999999999999999MA1103351999999MD1310201+9999MW1001REMAWY041SC AND CI NE-SE HRZN WND 280V340/320 1501
0084724096147061972011613004+40000-074583SAO  +0041WRI  V0203101N005712200019N0192001N9-01391-02171999999ADDGF100991999999999999999999MA1103451999999MW1001REMAWY025SC NE-SE AC N WND 290V340
0074724096147061972011614004+40000-074583SAO  +0041WRI  V0203101N004112200019N0240001N9-01331-02221999999ADDGF100991999999999999999999MA1103521999999MW1001OC100871REMAWY007SC NE-E
0086724096147061972011615004+40000-074583SAO  +0041WRI  V0203001N006212200019N0240001N9-01171-02061103601ADDGF100991999999999999999999MA1103561999999MD1210201+9999MW1001REMAWY013SC E/220 1500
0058724096147061972011616004+40000-074583SAO  +0041WRI  V0203101N007712200019N0240001N9-01061-02111999999ADDGF102991999999999999999999MA1103491999999MW1001OC101081
0058724096147061972011617004+40000-074583SAO  +0041WRI  V0203101N007210090019N0240001N9-00941-02061999999ADDGF107991999999999999999999MA1103351999999MW1001OC101081
0089724096147061972011618004+40000-074583SAO  +0041WRI  V0203001N006710090019N0240001N9-01001-02111103311ADDGF107991999999999999999999MA1103251999999MD1710291+9999MW1001OC101231REMAWY008729 1500
0058724096147061972011619004+40000-074583SAO  +0041WRI  V0203101N007212200019N0240001N9-00891-02171999999ADDGF107991999999999999999999MA1103291999999MW1001OC101031
0050724096147061972011620004+40000-074583SAO  +0041WRI  V0203101N008712200019N0240001N9-00891-02061999999ADDGF107991999999999999999999MA1103321999999MW1001
0089724096147061972011621004+40000-074583SAO  +0041WRI  V0203101N007212200019N0240001N9-00891-02111103341ADDGF102991999999999999999999MA1103391999999MD1210031+9999MW1001OC101131REMAWY008203 1500
0063724096147061972011622004+40000-074583SAO  +0041WRI  V0203201N007212200019N0240001N9-00941-02001999999ADDGF100991999999999999999999MA1103451999999MW1001REMAWY004SC E
0050724096147061972011623004+40000-074583SAO  +0041WRI  V0203201N004112200019N0240001N9-00941-01941999999ADDGF100991999999999999999999MA1103521999999MW1001
0076724096147061972011700004+40000-074583SAO  +0041WRI  V0203201N004112200019N0240001N9-01001-01831103571ADDGF100991999999999999999999MA1103521999999MD1110141+9999MW1001REMAWY003114
0050724096147061972011701004+40000-074583SAO  +0041WRI  V0203301N004112200019N0240001N9-01001-01781999999ADDGF100991999999999999999999MA1103561999999MW1001
0050724096147061972011702004+40000-074583SAO  +0041WRI  V0203101N001512200019N0240001N9-01061-01671999999ADDGF100991999999999999999999MA1103591999999MW1001
0076724096147061972011703004+40000-074583SAO  +0041WRI  V0203101N001012200019N0240001N9-01111-01671103611ADDGF100991999999999999999999MA1103561999999MD1010051+9999MW1001REMAWY003005
0050724096147061972011704004+40000-074583SAO  +0041WRI  V0209991C000012200019N0240001N9-01221-01611999999ADDGF100991999999999999999999MA1103521999999MW1001
0050724096147061972011705004+40000-074583SAO  +0041WRI  V0202701N001012200019N0240001N9-01111-01611999999ADDGF100991999999999999999999MA1103521999999MW1001
0090724096147061972011706004+40000-074583SAO  +0041WRI  V0209991C000012200019N0240001N9-01221-01561103511ADDGF100991999999999999999999MA1103451999999MD1810101+9999MW1001REMAWY017OCNL LGT WND /810
0071724096147061972011707004+40000-074583SAO  +0041WRI  V0209991C000012200019N0240001N9-01331-01611999999ADDGF100991999999999999999999MA1103391999999MW1001REMAWY012OCNL LGT WND
0071724096147061972011708004+40000-074583SAO  +0041WRI  V0202401N001512200019N0240001N9-01171-01561999999ADDGF100991999999999999999999MA1103451999999MW1001REMAWY012AC NW AND NE
0087724096147061972011709004+40000-074583SAO  +0041WRI  V0202301N001012200019N0240001N9-01221-01501103441ADDGF100991999999999999999999MA1103391999999MD1810081+9999MW1001REMAWY014AC NW/808 1070
0050724096147061972011710004+40000-074583SAO  +0041WRI  V0202101N000510240019N0240001N9-01111-01441999999ADDGF107991999999999999999999MA1103321999999MW1001
0050724096147061972011711004+40000-074583SAO  +0041WRI  V0202001N000512200019N0240001N9-01171-01561999999ADDGF102991999999999999999999MA1103321999999MW1001
0081724096147061972011712004+40000-074583SAO  +0041WRI  V0201801N001010240019N0240001N9-01171-01501103321ADDGF107991999999999999999999MA1103291999999MD1810121+9999MW1001REMAWY008812 1570
0050724096147061972011713004+40000-074583SAO  +0041WRI  V0201901N002612200019N0192001N9-01171-01611999999ADDGF107991999999999999999999MA1103151999999MW1001
0070724096147061972011714004+40000-074583SAO  +0041WRI  V0202101N004112200019N0192001N9-00891-01561999999ADDGF107991999999999999999999MA1103151999999MW1001REMAWY011WND 200V250
0093724096147061972011715004+40000-074583SAO  +0041WRI  V0202301N006210600019N0192001N9-00561-01671103151ADDGF107991999999999999999999MA1103081999999MD1610151+9999MW1001REMAWY020WND 190V260/615 1071
0070724096147061972011716004+40000-074583SAO  +0041WRI  V0202101N005110600019N0192001N9-00391-01611999999ADDGF107991999999999999999999MA1102911999999MW1001REMAWY011WND 200V250
0078724096147061972011717004+40000-074583SAO  +0041WRI  V0202301N006210600019N0192001N9-00171-01891999999ADDGF107991999999999999999999MA1102781999999MW1001OC100981REMAWY011WND 190V260
0101724096147061972011718004+40000-074583SAO  +0041WRI  V0202401N006210600019N0192001N9-00111-01721102691ADDGF107991999999999999999999MA1102641999999MD1810461+9999MW1001OC100931REMAWY020WND 190V270/846 1001
0050724096147061972011719004+40000-074583SAO  +0041WRI  V0202201N005112200019N0192001N9+00061-01611999999ADDGF107991999999999999999999MA1102511999999MW1001
0078724096147061972011720004+40000-074583SAO  +0041WRI  V0202101N003612200019N0192001N9+00111-01501999999ADDGF102991999999999999999999MA1102441999999MW1001OC100821REMAWY011WND 170V270
0101724096147061972011721004+40000-074583SAO  +0041WRI  V0202201N004112200019N0192001N9+00111-01501102491ADDGF102991999999999999999999MA1102401999999MD1710201+9999MW1001OC100771REMAWY020WND 170V260/720 1008
0070724096147061972011722004+40000-074583SAO  +0041WRI  V0202201N003612200019N0192001N9+00001-01441999999ADDGF107991999999999999999999MA1102471999999MW1001REMAWY011WND 180V260
0050724096147061972011723004+40000-074583SAO  +0041WRI  V0202201N002112200019N0240001N9-00111-01331999999ADDGF102991999999999999999999MA1102511999999MW1001
0099724096147061972011800004+40000-074583SAO  +0041WRI  V0202301N003612200019N0240001N9-00111-01281102591ADDGF100991999999999999999999MA1102571999999MD1110081+9999MW1001REMAWY026CS NE WND 190V260/108 1008
0050724096147061972011801004+40000-074583SAO  +0041WRI  V0202201N002112200019N0240001N9-00171-01281999999ADDGF100991999999999999999999MA1102571999999MW1001
0050724096147061972011802004+40000-074583SAO  +0041WRI  V0202301N003112200019N0240001N9-00221-01171999999ADDGF100991999999999999999999MA1102571999999MW1001
0076724096147061972011803004+40000-074583SAO  +0041WRI  V0202201N001512200019N0240001N9-00221-01171102591ADDGF100991999999999999999999MA1102571999999MD1410001+9999MW1001REMAWY003400
0050724096147061972011804004+40000-074583SAO  +0041WRI  V0201701N000512200019N0240001N9-00281-01171999999ADDGF100991999999999999999999MA1102541999999MW1001
0050724096147061972011805004+40000-074583SAO  +0041WRI  V0209991C000012200019N0240001N9-00281-01171999999ADDGF100991999999999999999999MA1102571999999MW1001
0076724096147061972011806004+40000-074583SAO  +0041WRI  V0201801N001012200019N0240001N9-00501-01111102571ADDGF100991999999999999999999MA1102541999999MD1810021+9999MW1001REMAWY003802
0050724096147061972011807004+40000-074583SAO  +0041WRI  V0201901N000512200019N0240001N9-00441-01111999999ADDGF100991999999999999999999MA1102541999999MW1001
0071724096147061972011808004+40000-074583SAO  +0041WRI  V0209991C000012200019N0240001N9-00441-01111999999ADDGF100991999999999999999999MA1102541999999MW1001REMAWY012OCNL LGT WND
0090724096147061972011809004+40000-074583SAO  +0041WRI  V0209991C000012200019N0240001N9-00501-01111102561ADDGF100991999999999999999999MA1102541999999MD1510001+9999MW1001REMAWY017OCNL LTG WND /500
0050724096147061972011810004+40000-074583SAO  +0041WRI  V0201801N002112200019N0240001N9-00561-01111999999ADDGF100991999999999999999999MA1102541999999MW1001
0050724096147061972011811004+40000-074583SAO  +0041WRI  V0201901N001512200019N0240001N9-00501-01001999999ADDGF100991999999999999999999MA1102541999999MW1001
0104724096147061972011812004+40000-074583SAO  +0041WRI  V0209991C000012200019N0240001N9-00501-01001102621ADDGF100991999999999999999999MA1102611999999MD1310051+9999MW1001REMAWY031THN CI E OCNL LTG WND /305 1001
0064724096147061972011813004+40000-074583SAO  +0041WRI  V0201901N002112200019N0192001N9-00391-00891999999ADDGF100991999999999999999999MA1102611999999MW1001REMAWY005CI SE
0072724096147061972011814004+40000-074583SAO  +0041WRI  V0202201N002612200019N0192001N9+00001-00831999999ADDGF100991999999999999999999MA1102611999999MW1001REMAWY013SC N THN CI E
0076724096147061972011815004+40000-074583SAO  +0041WRI  V0201801N002112200019N0192001N9+00221-00891102621ADDGF100991999999999999999999MA1102571999999MD1010001+9999MW1001REMAWY003000
0064724096147061972011816004+40000-074583SAO  +0041WRI  V0201801N002112200019N0192001N9+00501-00721999999ADDGF100991999999999999999999MA1102471999999MW1001REMAWY005SC NW
0050724096147061972011817004+40000-074583SAO  +0041WRI  V0201801N002112200019N0192001N9+00941-00501999999ADDGF102991999999999999999999MA1102341999999MW1001
0104724096147061972011818004+40000-074583SAO  +0041WRI  V0202001N003112200019N0192001N9+01061-00561102231ADDGF100991999999999999999999MA1102201999999MD1710371+9999MW1001REMAWY031CU N WND DRCTN 150V240/737 1100
0081724096147061972011819004+40000-074583SAO  +0041WRI  V0202101N003112200019N0192001N9+01221-00391999999ADDGF100991999999999999999999MA1102171999999MW1001REMAWY022SC N WND DRCTN 130V240
0050724096147061972011820004+40000-074583SAO  +0041WRI  V0202101N004612200019N0192001N9+01171-00391999999ADDGF100991999999999999999999MA1102131999999MW1001
0094724096147061972011821004+40000-074583SAO  +0041WRI  V0202001N003612200019N0192001N9+01061-00501102121ADDGF100991999999999999999999MA1102071999999MD1710121+9999MW1001REMAWY021WND DRCTN 150V240/712
0080724096147061972011822004+40000-074583SAO  +0041WRI  V0201801N001512200019N0192001N9+00721-00561999999ADDGF100991999999999999999999MA1102171999999MW1001REMAWY021CI SW-NW WND LGT VRBL
0067724096147061972011823004+40000-074583SAO  +0041WRI  V0209991C000012200019N0240001N9+00501-00561999999ADDGF100991999999999999999999MA1102201999999MW1001REMAWY008CI SW-NW
0086724096147061972011900004+40000-074583SAO  +0041WRI  V0201901N000512200019N0240001N9+00331-00671102251ADDGF100991999999999999999999MA1102241999999MD1210121+9999MW1001REMAWY013CI W/212 1001
0071724096147061972011901004+40000-074583SAO  +0041WRI  V0209991C000012200019N0240001N9+00281-00671999999ADDGF102991999999999999999999MA1102171999999MW1001REMAWY012OCNL LGT WND
0071724096147061972011902004+40000-074583SAO  +0041WRI  V0202001N002112200019N0240001N9+00221-00501999999ADDGF102991999999999999999999MA1102131999999MW1001REMAWY012WND LGT VRBL
0093724096147061972011903004+40000-074583SAO  +0041WRI  V0202001N003112200019N0240001N9+00221-00441102071ADDGF102991999999999999999999MA1102031999999MD1710171+9999MW1001REMAWY020WND 150V230/717 1500
0050724096147061972011904004+40000-074583SAO  +0041WRI  V0202001N002612200019N0240001N9+00331-00441999999ADDGF102991999999999999999999MA1101961999999MW1001
0070724096147061972011905004+40000-074583SAO  +0041WRI  V0202001N004112200019N0240001N9+00331-00441999999ADDGF102991999999999999999999MA1101861999999MW1001REMAWY011WND 160V240
0081724096147061972011906004+40000-074583SAO  +0041WRI  V0202101N003112200019N0240001N9+00391-00501101741ADDGF102991999999999999999999MA1101731999999MD1710321+9999MW1001REMAWY008732 1001
0078724096147061972011907004+40000-074583SAO  +0041WRI  V0202001N003612200019N0240001N9+00441-00561999999ADDGF102991999999999999999999MA1101631999999MW1001OC100821REMAWY011WND 160V240
0078724096147061972011908004+40000-074583SAO  +0041WRI  V0202101N005712200019N0240001N9+00671-00331999999ADDGF102991999999999999999999MA1101591999999MW1001OC100821REMAWY011WND 180V260
0093724096147061972011909004+40000-074583SAO  +0041WRI  V0202101N003612200019N0240001N9+00671-00281101551ADDGF102991999999999999999999MA1101521999999MD1710191+9999MW1001REMAWY020WND 190V260/719 1001
0078724096147061972011910004+40000-074583SAO  +0041WRI  V0202201N004612200019N0240001N9+00671-00171999999ADDGF102991999999999999999999MA1101461999999MW1001OC100721REMAWY011WND 170V250
0070724096147061972011911004+40000-074583SAO  +0041WRI  V0202301N004612200019N0240001N9+00671-00061999999ADDGF107991999999999999999999MA1101561999999MW1001REMAWY011WND 190V260
0106724096147061972011912004+40000-074583SAO  +0041WRI  V0202201N004110600019N0240001N9+00671-00061101531ADDGF107991999999999999999999MA1101521999999MD1810031+9999MW1001REMAWY033CIG PTLY THN WND 170V260/803 1078
0080724096147061972011913004+40000-074583SAO  +0041WRI  V0202401N005110180019N0192001N9+00721+00001999999ADDGF108991999999999999999999MA1101521999999MW1001REMAWY021BINOVC NW WND 200V270
0050724096147061972011914004+40000-074583SAO  +0041WRI  V0202401N004110240019N0192001N9+00891+00061999999ADDGF107991999999999999999999MA1101521999999MW1001
0093724096147061972011915004+40000-074583SAO  +0041WRI  V0202401N006212200019N0192001N9+01061+00061101591ADDGF107991999999999999999999MA1101521999999MD1110071+9999MW1001REMAWY020WND 210V270/107 1075
0058724096147061972011916004+40000-074583SAO  +0041WRI  V0202501N006210600019N0192001N9+01281+00171999999ADDGF107991999999999999999999MA1101561999999MW1001OC100931
0070724096147061972011917004+40000-074583SAO  +0041WRI  V0202501N006210600019N0192001N9+01171+00221999999ADDGF108991999999999999999999MA1101521999999MW1001REMAWY011WND 230V280
0093724096147061972011918004+40000-074583SAO  +0041WRI  V0202601N006210600019N0192001N9+01281+00281101531ADDGF108991999999999999999999MA1101491999999MD1810071+9999MW1001REMAWY020WND 230V280/807 1576
0070724096147061972011919004+40000-074583SAO  +0041WRI  V0202601N004610600019N0192001N9+01391+00331999999ADDGF108991999999999999999999MA1101491999999MW1001REMAWY011WND 210V290
0070724096147061972011920004+40000-074583SAO  +0041WRI  V0202801N004110600019N0192001N9+01391+00281999999ADDGF107991999999999999999999MA1101521999999MW1001REMAWY011WND 250V320
0098724096147061972011921004+40000-074583SAO  +0041WRI  V0203001N004112200019N0192001N9+01391-00061101591ADDGF107991999999999999999999MA1101591999999MD1310081+9999MW1001REMAWY025SC S WND 280V320/308 1508
0070724096147061972011922004+40000-074583SAO  +0041WRI  V0203101N005710600019N0192001N9+01171-00501999999ADDGF107991999999999999999999MA1101801999999MW1001REMAWY011SC S PRESRR
0065724096147061972011923004+40000-074583SAO  +0041WRI  V0203101N004610600019N0240001N9+01061-01001999999ADDGF107991999999999999999999MA1102001999999MW1001REMAWY006PRESRR
0081724096147061972012000004+40000-074583SAO  +0041WRI  V0203101N003612200019N0240001N9+00831-00891102201ADDGF102991999999999999999999MA1102131999999MD1210591+9999MW1001REMAWY008259 1001
0050724096147061972012001004+40000-074583SAO  +0041WRI  V0203401N002612200019N0240001N9+00611-00781999999ADDGF102991999999999999999999MA1102271999999MW1001
0050724096147061972012002004+40000-074583SAO  +0041WRI  V0203601N001512200019N0240001N9+00331-00781999999ADDGF102991999999999999999999MA1102301999999MW1001
0081724096147061972012003004+40000-074583SAO  +0041WRI  V0203201N001512200019N0240001N9+00331-00781102371ADDGF102991999999999999999999MA1102301999999MD1110171+9999MW1001REMAWY008117 1001
0050724096147061972012004004+40000-074583SAO  +0041WRI  V0203101N001512200019N0240001N9+00281-00781999999ADDGF102991999999999999999999MA1102401999999MW1001
0050724096147061972012005004+40000-074583SAO  +0041WRI  V0209991C000012200019N0240001N9+00221-00721999999ADDGF102991999999999999999999MA1102471999999MW1001
0081724096147061972012006004+40000-074583SAO  +0041WRI  V0209991C000012200019N0240001N9+00171-00721102531ADDGF102991999999999999999999MA1102511999999MD1110171+9999MW1001REMAWY008117 1008
0050724096147061972012007004+40000-074583SAO  +0041WRI  V0209991C000012200019N0240001N9+00061-00671999999ADDGF102991999999999999999999MA1102541999999MW1001
0050724096147061972012008004+40000-074583SAO  +0041WRI  V0209991C000012200019N0240001N9+00061-00671999999ADDGF102991999999999999999999MA1102571999999MW1001
0081724096147061972012009004+40000-074583SAO  +0041WRI  V0209991C000012200019N0240001N9-00111-00671102601ADDGF102991999999999999999999MA1102571999999MD1110071+9999MW1001REMAWY008107 1008
0050724096147061972012010004+40000-074583SAO  +0041WRI  V0209991C000012200019N0240001N9-00111-00611999999ADDGF102991999999999999999999MA1102611999999MW1001
0050724096147061972012011004+40000-074583SAO  +0041WRI  V0209991C000012200019N0240001N9-00171-00611999999ADDGF102991999999999999999999MA1102611999999MW1001
0081724096147061972012012004+40000-074583SAO  +0041WRI  V0209991C000010600019N0240001N9-00171-00611102671ADDGF107991999999999999999999MA1102641999999MD1310071+9999MW1001REMAWY008307 1008
0065724096147061972012013004+40000-074583SAO  +0041WRI  V0209991C000010300019N0192001N9-00221-00501999999ADDGF108991999999999999999999MA1102611999999MW1001REMAWY006CI THN
0071724096147061972012014004+40000-074583SAO  +0041WRI  V0209991C000012200019N0192001N9+00281-00441999999ADDGF108991999999999999999999MA1102541999999MW1001REMAWY012OCNL LGT WND
0081724096147061972012015004+40000-074583SAO  +0041WRI  V0201201N001512200019N0192001N9+00501-00611102571ADDGF108991999999999999999999MA1102541999999MD1710101+9999MW1001REMAWY008710 1077
0050724096147061972012016004+40000-074583SAO  +0041WRI  V0202201N004110600019N0192001N9+00721-00721999999ADDGF108991999999999999999999MA1102511999999MW1001
0050724096147061972012017004+40000-074583SAO  +0041WRI  V0201601N004610600019N0192001N9+00781-00561999999ADDGF108991999999999999999999MA1102301999999MW1001
0088724096147061972012018004+40000-074583SAO  +0041WRI  V0201701N003110240019N0192001N9+00831-00611102231ADDGF108991999999999999999999MA1102201999999MD1810341+9999MW1001REMAWY015DRK SW/834 1077
0056724096147061972012019004+40000-074583SAO  +0041WRI  V0201801N004110180019N0192001N9+00721-00281999999ADDGF108991999999999999999999MA1102071999999MW1611MW2791
0056724096147061972012020004+40000-074583SAO  +0041WRI  V0209991C000010210019N0112001N9+00501+00111999999ADDGF108991999999999999999999MA1102001999999MW1611MW2791
0089724096147061972012021004+40000-074583SAO  +0041WRI  V0209991C000010135019N0192001N9+00441+00221101921ADDGF108991999999999999999999MA1101861999999MD1710321+9999MW1611REMAWY016732 162/ WET RWY
0066724096147061972012022004+40000-074583SAO  +0041WRI  V0201401N000510114019N0192001N9+00441+00221999999ADDGF108991999999999999999999MA1101731999999MW1611REMAWY007WET RWY
0091724096147061972012023004+40000-074583SAO  +0041WRI  V0201501N002110105019N0240001N9+00441+00331999999ADDGF108991999999999999999999MA1101631999999MW1001REMAWY032OCNL R-- MOON OCNLY VSBL WET RWY
0121724096147061972012100004+40000-074583SAO  +0041WRI  V0201601N001010099019N0240001N9+00611+00441101571ADDAA106002091GF108991999999999999999999MA1101561999999MD1210341+9999MW1001REMAWY01823409 15// WET RWYEQDQ01  00203PRCP99
0050724096147061972012101004+40000-074583SAO  +0041WRI  V0201801N002110099019N0160001N9+00611+00501999999ADDGF107991999999999999999999MA1101461999999MW1001
0066724096147061972012102004+40000-074583SAO  +0041WRI  V0202301N001510009019N0112001N9+00561+00441999999ADDGF108991999999999999999999MA1101491999999MW1001REMAWY007CIG 2V4
0089724096147061972012103004+40000-074583SAO  +0041WRI  V0202101N002110054019N0112001N9+00561+00441101461ADDGF108991999999999999999999MA1101461999999MD1610101+9999MW1001REMAWY016610 15// WET RWY
0066724096147061972012104004+40000-074583SAO  +0041WRI  V0202401N003110054019N0112001N9+00561+00441999999ADDGF108991999999999999999999MA1101491999999MW1001REMAWY007WET RWY
0066724096147061972012105004+40000-074583SAO  +0041WRI  V0202501N003110048019N0112001N9+00611+00391999999ADDGF108991999999999999999999MA1101491999999MW1001REMAWY007WET RWY
0089724096147061972012106004+40000-074583SAO  +0041WRI  V0202401N002110150019N0112001N9+00561+00391101461ADDGF108991999999999999999999MA1101461999999MD1010051+9999MW1001REMAWY016005 15// WET RWY
0066724096147061972012107004+40000-074583SAO  +0041WRI  V0202301N001010150019N0112001N9+00561+00391999999ADDGF108991999999999999999999MA1101461999999MW1001REMAWY007WET RWY
0066724096147061972012108004+40000-074583SAO  +0041WRI  V0202901N001010150019N0112001N9+00501+00331999999ADDGF108991999999999999999999MA1101461999999MW1001REMAWY007WET RWY
0095724096147061972012109004+40000-074583SAO  +0041WRI  V0202601N001010150019N0096001N9+00501+00331101491ADDGF108991999999999999999999MA1101351999999MD1210021+9999MW1051MW2111REMAWY016202 157/ WET RWY
0072724096147061972012110004+40000-074583SAO  +0041WRI  V0202701N001010210019N0080001N9+00441+00331999999ADDGF108991999999999999999999MA1101521999999MW1051MW2111REMAWY007WET RWY
0072724096147061972012111004+40000-074583SAO  +0041WRI  V0202901N002110210019N0080001N9+00441+00281999999ADDGF108991999999999999999999MA1101521999999MW1051MW2111REMAWY007WET RWY
0112724096147061972012112004+40000-074583SAO  +0041WRI  V0203401N001510210019N0096001N9+00441+00221101701ADDAA124002091GF108991999999999999999999MA1101691999999MD1310221+9999MW1051MW2111REMAWY022322 1578 20009 WET RWY
0066724096147061972012113004+40000-074583SAO  +0041WRI  V0203501N003110210019N0112001N9+00441+00221999999ADDGF108991999999999999999999MA1101831999999MW1001REMAWY007WET RWY
0078724096147061972012114004+40000-074583SAO  +0041WRI  V0200101N004110210019N0144001N9+00561+00221999999ADDGF108991999999999999999999MA1101931999999MW1001REMAWY019BINOVC OVHD WET RWY
0089724096147061972012115004+40000-074583SAO  +0041WRI  V0200201N005110600019N0192001N9+00611+00111102051ADDGF107991999999999999999999MA1102001999999MD1210341+9999MW1001REMAWY016234 1078 WET RWY
0083724096147061972012116004+40000-074583SAO  +0041WRI  V0200101N004110600019N0192001N9+00721+00061999999ADDGF107991999999999999999999MA1102071999999MW1001OC100721REMAWY016CI ALQDS WET RWY
0067724096147061972012117004+40000-074583SAO  +0041WRI  V0203601N005110600019N0192001N9+00781+00001999999ADDGF107991999999999999999999MA1102071999999MW1001REMAWY008FEW AC S
0097724096147061972012118004+40000-074583SAO  +0041WRI  V0200101N005110600019N0192001N9+00831-00061102071ADDGF107991999999999999999999MA1102071999999MD1110021+9999MW1001REMAWY024SCTD LYD INCRG /102 1509
0050724096147061972012119004+40000-074583SAO  +0041WRI  V0203601N002612200019N0192001N9+00831+00001999999ADDGF107991999999999999999999MA1102071999999MW1001
0074724096147061972012120004+40000-074583SAO  +0041WRI  V0200201N002110090019N0192001N9+00831+00001999999ADDGF108991999999999999999999MA1102101999999MW1001REMAWY015SML BINOVC OVHD
0088724096147061972012121004+40000-074583SAO  +0041WRI  V0200501N002610090019N0192001N9+00831+00061102591ADDGF108991999999999999999999MA1102572999999MD1310521+9999MW1001REMAWY015PRESRR/352 15//
0070724096147061972012122004+40000-074583SAO  +0041WRI  V0200801N002610090019N0192001N9+00611+00061999999ADDGF108991999999999999999999MA1102471999999MW1001REMAWY011WND 040V120
0070724096147061972012123004+40000-074583SAO  +0041WRI  V0201001N002110090019N0160001N9+00561+00061999999ADDGF108991999999999999999999MA1102511999999MW1001REMAWY011WND 070V130
0081724096147061972012200004+40000-074583SAO  +0041WRI  V0200901N002110090019N0160001N9+00501+00001102321ADDGF108991999999999999999999MA1102301999999MD1710271+9999MW1001REMAWY008727 15//
0050724096147061972012201004+40000-074583SAO  +0041WRI  V0200801N001510090019N0160001N9+00441+00001999999ADDGF108991999999999999999999MA1102341999999MW1001
0050724096147061972012202004+40000-074583SAO  +0041WRI  V0200701N001010090019N0160001N9+00441+00001999999ADDGF108991999999999999999999MA1102341999999MW1001
0081724096147061972012203004+40000-074583SAO  +0041WRI  V0200801N001510090019N0160001N9+00441-00111102381ADDGF108991999999999999999999MA1102371999999MD1310071+9999MW1001REMAWY008307 15//
0050724096147061972012204004+40000-074583SAO  +0041WRI  V0209991C000010105019N0160001N9+00221-00171999999ADDGF107991999999999999999999MA1102401999999MW1001
0050724096147061972012205004+40000-074583SAO  +0041WRI  V0200601N001012200019N0240001N9+00171-00281999999ADDGF102991999999999999999999MA1102401999999MW1001
0081724096147061972012206004+40000-074583SAO  +0041WRI  V0200401N001510099019N0240001N9+00111-00331102401ADDGF107991999999999999999999MA1102371999999MD1010021+9999MW1001REMAWY008002 1508
0050724096147061972012207004+40000-074583SAO  +0041WRI  V0200401N001010099019N0240001N9+00221-00221999999ADDGF108991999999999999999999MA1102341999999MW1001
0050724096147061972012208004+40000-074583SAO  +0041WRI  V0200401N001010090019N0240001N9+00281-00171999999ADDGF108991999999999999999999MA1102341999999MW1001
0081724096147061972012209004+40000-074583SAO  +0041WRI  V0200301N001010087019N0240001N9+00281-00111102291ADDGF108991999999999999999999MA1102271999999MD1810121+9999MW1001REMAWY008812 15//
0050724096147061972012210004+40000-074583SAO  +0041WRI  V0200401N001010075019N0160001N9+00281-00111999999ADDGF108991999999999999999999MA1102241999999MW1001
0050724096147061972012211004+40000-074583SAO  +0041WRI  V0200501N001010075019N0160001N9+00281-00111999999ADDGF108991999999999999999999MA1102241999999MW1001
0081724096147061972012212004+40000-074583SAO  +0041WRI  V0200801N002110750019N0160001N9+00221-00061102181ADDGF107991999999999999999999MA1102171999999MD1810101+9999MW1001REMAWY008810 1508
0050724096147061972012213004+40000-074583SAO  +0041WRI  V0209991C000010120019N0112001N9+00281+00061999999ADDGF107991999999999999999999MA1102131999999MW1001
0071724096147061972012214004+40000-074583SAO  +0041WRI  V0200801N001010069019N0192001N9+00561+00221999999ADDGF108991999999999999999999MA1102131999999MW1001REMAWY012HIR CLDS VSB
0103724096147061972012215004+40000-074583SAO  +0041WRI  V0201001N004610069019N0192001N9+00831+00441102061ADDGF107991999999999999999999MA1102031999999MD1710121+9999MW1001REMAWY03023BKNVSCT WND 070V140/712 1578
0078724096147061972012216004+40000-074583SAO  +0041WRI  V0201101N004110069019N0192001N9+00891+00441999999ADDGF108991999999999999999999MA1102001999999MW1001REMAWY019BKNVSCT WND 070V140
0081724096147061972012217004+40000-074583SAO  +0041WRI  V0201001N004110069019N0192001N9+00831+00501999999ADDGF108991999999999999999999MA1101861999999MW1001REMAWY022SCT INCRNG WND 070V150
0093724096147061972012218004+40000-074583SAO  +0041WRI  V0201301N003610045019N0192001N9+00831+00441101861ADDGF108991999999999999999999MA1101831999999MD1810201+9999MW1001REMAWY020WND 080V150/820 172/
0080724096147061972012219004+40000-074583SAO  +0041WRI  V0201001N003610006019N0192001N9+00781+00441999999ADDGF108991999999999999999999MA1101761999999MW1001REMAWY021CIG 10V14 WND 060V140
0070724096147061972012220004+40000-074583SAO  +0041WRI  V0200901N003110033019N0144001N9+00781+00441999999ADDGF108991999999999999999999MA1101691999999MW1001REMAWY011WND 050V110
0093724096147061972012221004+40000-074583SAO  +0041WRI  V0200901N004110030019N0144001N9+00721+00441101641ADDGF108991999999999999999999MA1101631999999MD1610221+9999MW1001REMAWY020WND 060V110/622 15//
0050724096147061972012222004+40000-074583SAO  +0041WRI  V0200801N001510027019N0112001N9+00721+00441999999ADDGF108991999999999999999999MA1101591999999MW1001
0056724096147061972012223004+40000-074583SAO  +0041WRI  V0201001N003110024019N0096001N9+00671+00501999999ADDGF108991999999999999999999MA1101561999999MW1111MW2511
0081724096147061972012300004+40000-074583SAO  +0041WRI  V0201001N003610018019N0096001N9+00671+00501101531ADDGF108991999999999999999999MA1101521999999MD1610121+9999MW1111REMAWY008612 15//
0056724096147061972012301004+40000-074583SAO  +0041WRI  V0200901N002110015019N0080001N9+00671+00501999999ADDGF108991999999999999999999MA1101461999999MW1111MW2511
0056724096147061972012302004+40000-074583SAO  +0041WRI  V0201001N002610015019N0080001N9+00671+00561999999ADDGF108991999999999999999999MA1101351999999MW1111MW2511
0087724096147061972012303004+40000-074583SAO  +0041WRI  V0201001N002110009019N0026001N9+00671+00561101291ADDGF108991999999999999999999MA1101291999999MD1610221+9999MW1451MW2511REMAWY008622 16//
0072724096147061972012304004+40000-074583SAO  +0041WRI  V0200801N001010009019N0028001N9+00671+00561999999ADDGF108991999999999999999999MA1101251999999MW1451MW2511REMAWY007WET RWY
0081724096147061972012305004+40000-074583SAO  +0041WRI  V0201001N000510006019N0012001N9+00611+00561999999ADDGF108991999999999999999999MA1101191999999MW1451MW2511REMAWY016R06VR60+ WET RWY
0127724096147061972012306004+40000-074583SAO  +0041WRI  V0201001N001510006019N0012001N9+00611+00561101021ADDAA106003091GF108991999999999999999999MA1101021999999MD1810271+9999MW1451MW2511REMAWY018R06VR50/82710 16//EQDQ01  00303PRCP99
0074724096147061972012307004+40000-074583SAO  +0041WRI  V0201001N000510003019N0008001N9+00671+00611999999ADDGF108991999999999999999999MA1100981999999MW1451REMAWY015R06VR32/WET RWY
0074724096147061972012308004+40000-074583SAO  +0041WRI  V0209991C000010003019N0006001N9+00671+00611999999ADDGF108991999999999999999999MA1100911999999MW1451REMAWY015R06VR30/WET RWY
0092724096147061972012309004+40000-074583SAO  +0041WRI  V0209991C000010006019N0004001N9+00671+00611100921ADDGF108991999999999999999999MA1100911999999MD1710101+9999MW1451REMAWY019R06VR22/710 WET RWY
0080724096147061972012310004+40000-074583SAO  +0041WRI  V0209991C000010006019N0004001N9+00671+00611999999ADDGF108991999999999999999999MA1100881999999MW1451MW2511REMAWY015R06VR22/WET RWY
0080724096147061972012311004+40000-074583SAO  +0041WRI  V0209991C000010006019N0004001N9+00611+00561999999ADDGF108991999999999999999999MA1100851999999MW1451MW2511REMAWY015R06VR28/WET RWY
0147724096147061972012312004+40000-074583SAO  +0041WRI  V0209991C000010006019N0004001N9+00611+00561100901ADDAA106999929AA224003091GF108991999999999999999999MA1100881999999MD1510021+9999MW1451MW2511REMAWY027R06VR24/50200 20010 WET RWYEQDQ01  99993PRCP99
0080724096147061972012313004+40000-074583SAO  +0041WRI  V0209991C000010006019N0002001N9+00671+00611999999ADDGF108991999999999999999999MA1100881999999MW1451MW2511REMAWY015R06VR20 WET RWY
0083724096147061972012314004+40000-074583SAO  +0041WRI  V0201801N001010006019N0006001N9+00721+00671999999ADDGF110991999999999999999999MA1100911999999MW1451MW2511REMAWY018R06VRNO F8 WET RWY
0100724096147061972012315004+40000-074583SAO  +0041WRI  V0202901N001510006019N0012001N9+00721+00671101031ADDGF110991999999999999999999MA1101021999999MD1110141+9999MW1451REMAWY027R06VR45 F8/114 16// WET RWY
0081724096147061972012316004+40000-074583SAO  +0041WRI  V0202901N002610006019N0028001N9+00721+00671999999ADDGF108991999999999999999999MA1101021999999MW1451MW2511REMAWY016F DSIPTG WET RWY
0078724096147061972012317004+40000-074583SAO  +0041WRI  V0203001N004110015019N0048001N9+00721+00611999999ADDGF108991999999999999999999MA1101021999999MW1451REMAWY019WND 270V350 WET RWY
0151724096147061972012318004+40000-074583SAO  +0041WRI  V0202701N003110015019N0080001N9+00831+00671100981ADDAA106000591GF108991999999999999999999MA1100981999999MD1810051+9999MW1051MW2451REMAWY042SUN OCNLY VSB BINOVC SW/80502 15// WET RWYEQDQ01  00053PRCP99
0066724096147061972012319004+40000-074583SAO  +0041WRI  V0202601N002610300019N0144001N9+01061+00721999999ADDGF107991999999999999999999MA1100911999999MW1001REMAWY007WET RWY
0074724096147061972012320004+40000-074583SAO  +0041WRI  V0202801N002610300019N0192001N9+01111+00561999999ADDGF108991999999999999999999MA1100851999999MW1001REMAWY015THN SC THKNG SW
0081724096147061972012321004+40000-074583SAO  +0041WRI  V0202501N002610300019N0192001N9+01171+00561100921ADDGF108991999999999999999999MA1100911999999MD1510071+9999MW1001REMAWY008507 1571
0072724096147061972012322004+40000-074583SAO  +0041WRI  V0202101N000510300019N0192001N9+01001+00561999999ADDGF108991999999999999999999MA1100951999999MW1001REMAWY013THN SPTS IOVC
0072724096147061972012323004+40000-074583SAO  +0041WRI  V0209991C000010240019N0096001N9+00891+00561999999ADDGF108991999999999999999999MA1100951999999MW1051REMAWY013THN SPTS IOVC
0081724096147061972012400004+40000-074583SAO  +0041WRI  V0209991C000010240019N0096001N9+00781+00561100971ADDGF108991999999999999999999MA1100951999999MD1110051+9999MW1051REMAWY008105 1077
0050724096147061972012401004+40000-074583SAO  +0041WRI  V0202401N002110600019N0112001N9+00891+00611999999ADDGF107991999999999999999999MA1101081999999MW1001
0050724096147061972012402004+40000-074583SAO  +0041WRI  V0202201N002110150019N0096001N9+00781+00611999999ADDGF108991999999999999999999MA1101081999999MW1051
