0062724067999991972010419004+39333-076417SAO  +0007MTN  V0202601N001010036019N0024001N1+00461+00241999999ADDGF108991999999999999999999MA1999999101391MW1051MW2451MW3611
0062724067999991972010420004+39333-076417SAO  +0007MTN  V0209991C000010039019N0040001N1+00521+00241999999ADDGF108991999999999999999999MA1999999101191MW1051MW2111MW3611
0056724067999991972010421004+39333-076417SAO  +0007MTN  V0209991C000010033019N0020001N1+00461+00301101021ADDGF108991999999999999999999MA1999999101151MW1451MW2611
0056724067999991972010513004+39333-076417SAO  +0007MTN  V0203601N001510012019N0012001N1+00581+00411999999ADDGF108991999999999999999999MA1999999100441MW1451MW2611
0056724067999991972010514004+39333-076417SAO  +0007MTN  V0203401N005110045019N0048001N1+00521+00301999999ADDGF108991999999999999999999MA1999999100581MW1111MW2611
0062724067999991972010515004+39333-076417SAO  +0007MTN  V0203601N004110036019N0064001N1+00461+00241100551ADDGF108991999999999999999999MA1999999100581MW1051MW2111MW3611
0062724067999991972010516004+39333-076417SAO  +0007MTN  V0203101N004110036019N0048001N1+00461+00191999999ADDGF108991999999999999999999MA1999999100781MW1051MW2111MW3611
0068724067999991972010517004+39333-076417SAO  +0007MTN  V0203201N004110033019N0080001N1+00351+00191999999ADDGF108991999999999999999999MA1999999100881MW1051MW2111MW3611MW4711
0050724067999991972010518004+39333-076417SAO  +0007MTN  V0203301N004110075019N0112001N1+00191-00091100941ADDGF108991999999999999999999MA1999999100951MW1711
0050724067999991972010519004+39333-076417SAO  +0007MTN  V0203401N004110120019N0112001N1+00131-00371999999ADDGF108991999999999999999999MA1999999101151MW1001
0050724067999991972010520004+39333-076417SAO  +0007MTN  V0203601N006210240019N0112001N1+00191-00481999999ADDGF107991999999999999999999MA1999999101321MW1001
0050724067999991972010521004+39333-076417SAO  +0007MTN  V0203601N006212200019N0160001N1+00131-00651101471ADDGF102991999999999999999999MA1999999101461MW1001
0050724067999991972010522004+39333-076417SAO  +0007MTN  V0200201N004112200019N0160001N1+00021-00651999999ADDGF102991999999999999999999MA1999999101561MW1001
0050724067999991972010523004+39333-076417SAO  +0007MTN  V0203601N004112200019N0160001N1+00021-00651999999ADDGF102991999999999999999999MA1999999101731MW1001
0050724067999991972010601004+39333-076417SAO  +0007MTN  V0203601N001512200019N0160001N1-00091-00311999999ADDGF102991999999999999999999MA1999999101901MW1001
0050724067999991972010602004+39333-076417SAO  +0007MTN  V0203601N002112200019N0240001N1-00201-00481999999ADDGF100991999999999999999999MA1999999101931MW1001
0050724067999991972010603004+39333-076417SAO  +0007MTN  V0203601N001012200019N0240001N1-00201-00651102041ADDGF100991999999999999999999MA1999999102031MW1001
0050724067999991972010613004+39333-076417SAO  +0007MTN  V0200201N001012200019N0240001N1-00701-01151999999ADDGF108991999999999999999999MA1999999102401MW1001
0050724067999991972010614004+39333-076417SAO  +0007MTN  V0209991C000012200019N0240001N1-00421-00921999999ADDGF107991999999999999999999MA1999999102401MW1001
0050724067999991972010615004+39333-076417SAO  +0007MTN  V0209991C000010750019N0192001N1-00311-00981102431ADDGF108991999999999999999999MA1999999102441MW1001
0050724067999991972010616004+39333-076417SAO  +0007MTN  V0209991C000010750019N0192001N1-00261-00811999999ADDGF108991999999999999999999MA1999999102401MW1001
0050724067999991972010617004+39333-076417SAO  +0007MTN  V0201601N002110750019N0192001N1-00151-00651999999ADDGF108991999999999999999999MA1999999102271MW1001
0050724067999991972010618004+39333-076417SAO  +0007MTN  V0201301N005112200019N0192001N1-00091-00651102111ADDGF108991999999999999999999MA1999999102101MW1001
0050724067999991972010619004+39333-076417SAO  +0007MTN  V0201501N005112200019N0192001N1-00041-00591999999ADDGF108991999999999999999999MA1999999102071MW1001
0050724067999991972010620004+39333-076417SAO  +0007MTN  V0201801N004112200019N0192001N1-00041-00531999999ADDGF107991999999999999999999MA1999999102031MW1001
0050724067999991972010621004+39333-076417SAO  +0007MTN  V0201801N003112200019N0192001N1-00091-00531102031ADDGF107991999999999999999999MA1999999102031MW1001
0050724067999991972010622004+39333-076417SAO  +0007MTN  V0201601N001512200019N0192001N1-00151-00871999999ADDGF102991999999999999999999MA1999999102031MW1001
0050724067999991972010623004+39333-076417SAO  +0007MTN  V0201701N002112200019N0192001N1-00261-00651999999ADDGF102991999999999999999999MA1999999102031MW1001
0050724067999991972010700004+39333-076417SAO  +0007MTN  V0201801N002112200019N0192001N1-00201-00651102011ADDGF102991999999999999999999MA1999999102031MW1001
0050724067999991972010701004+39333-076417SAO  +0007MTN  V0202001N001012200019N0192001N1-00151-00591999999ADDGF102991999999999999999999MA1999999102071MW1001
0050724067999991972010702004+39333-076417SAO  +0007MTN  V0209991C000012200019N0192001N1-00311-00651999999ADDGF102991999999999999999999MA1999999102031MW1001
0050724067999991972010703004+39333-076417SAO  +0007MTN  V0209991C000012200019N0192001N1-00481-00701101941ADDGF102991999999999999999999MA1999999101931MW1001
0050724067999991972010713004+39333-076417SAO  +0007MTN  V0202501N001012200019N0096001N1-00311-00651999999ADDGF102991999999999999999999MA1999999101561MW1051
0050724067999991972010714004+39333-076417SAO  +0007MTN  V0202901N002112200019N0096001N1-00151-00651999999ADDGF100991999999999999999999MA1999999101631MW1051
0050724067999991972010715004+39333-076417SAO  +0007MTN  V0202801N004112200019N0096001N1+00021-00531101591ADDGF100991999999999999999999MA1999999101591MW1051
0050724067999991972010716004+39333-076417SAO  +0007MTN  V0203201N002112200019N0096001N1+00411-00311999999ADDGF100991999999999999999999MA1999999101561MW1051
0050724067999991972010717004+39333-076417SAO  +0007MTN  V0202901N007212200019N0240001N1+00521+00021999999ADDGF102991999999999999999999MA1999999101521MW1001
0050724067999991972010718004+39333-076417SAO  +0007MTN  V0202801N009312200019N0240001N1+00581+00081101481ADDGF102991999999999999999999MA1999999101461MW1001
0050724067999991972010719004+39333-076417SAO  +0007MTN  V0202901N008212200019N0240001N1+00581+00131999999ADDGF102991999999999999999999MA1999999101561MW1001
0050724067999991972010720004+39333-076417SAO  +0007MTN  V0203001N006212200019N0240001N1+00581+00241999999ADDGF102991999999999999999999MA1999999101591MW1001
0050724067999991972010721004+39333-076417SAO  +0007MTN  V0202901N006212200019N0240001N1+00521+00191101681ADDGF102991999999999999999999MA1999999101731MW1001
0050724067999991972010722004+39333-076417SAO  +0007MTN  V0203001N004112200019N0240001N1+00351-00091999999ADDGF102991999999999999999999MA1999999101791MW1001
0050724067999991972010723004+39333-076417SAO  +0007MTN  V0203101N003112200019N0240001N1+00351-00151999999ADDGF102991999999999999999999MA1999999101901MW1001
0050724067999991972010800004+39333-076417SAO  +0007MTN  V0203101N005112200019N0240001N1+00301-00201102011ADDGF102991999999999999999999MA1999999102031MW1001
0050724067999991972010801004+39333-076417SAO  +0007MTN  V0203101N004112200019N0240001N1+00301-00261999999ADDGF102991999999999999999999MA1999999102101MW1001
0050724067999991972010802004+39333-076417SAO  +0007MTN  V0203201N005112200019N0240001N1+00241-00261999999ADDGF100991999999999999999999MA1999999102201MW1001
0050724067999991972010803004+39333-076417SAO  +0007MTN  V0203201N004112200019N0240001N1+00241-00261102161ADDGF100991999999999999999999MA1999999102201MW1001
0050724067999991972010813004+39333-076417SAO  +0007MTN  V0202801N002612200019N0240001N1-00311-00871999999ADDGF102991999999999999999999MA1999999103221MW1001
0050724067999991972010814004+39333-076417SAO  +0007MTN  V0202901N002112200019N0240001N1+00021-00811999999ADDGF107991999999999999999999MA1999999103351MW1001
0050724067999991972010815004+39333-076417SAO  +0007MTN  V0203201N005110750019N0192001N1+00131-00591103431ADDGF108991999999999999999999MA1999999103451MW1001
0050724067999991972010816004+39333-076417SAO  +0007MTN  V0203301N006210750019N0192001N1+00191-00371999999ADDGF108991999999999999999999MA1999999103451MW1001
0050724067999991972010817004+39333-076417SAO  +0007MTN  V0203101N005110750019N0192001N1+00241-00311999999ADDGF108991999999999999999999MA1999999103321MW1001
0050724067999991972010818004+39333-076417SAO  +0007MTN  V0203201N004110750019N0240001N1+00301-00261103231ADDGF108991999999999999999999MA1999999103251MW1001
0050724067999991972010819004+39333-076417SAO  +0007MTN  V0203101N004112200019N0240001N1+00351-00261999999ADDGF108991999999999999999999MA1999999103181MW1001
0050724067999991972010820004+39333-076417SAO  +0007MTN  V0203001N002112200019N0240001N1+00351-00151999999ADDGF102991999999999999999999MA1999999103221MW1001
0050724067999991972010821004+39333-076417SAO  +0007MTN  V0201301N005112200019N0240001N1+00301-00311103241ADDGF100991999999999999999999MA1999999103251MW1001
0050724067999991972010822004+39333-076417SAO  +0007MTN  V0201501N003112200019N0240001N1+00081-00591999999ADDGF100991999999999999999999MA1999999103251MW1001
0050724067999991972010913004+39333-076417SAO  +0007MTN  V0209991C000010750019N0112001N1+00081-00151999999ADDGF108991999999999999999999MA1999999102301MW1001
0050724067999991972010914004+39333-076417SAO  +0007MTN  V0202301N004110750019N0112001N1+00301-00041999999ADDGF108991999999999999999999MA1999999102271MW1001
0050724067999991972010916004+39333-076417SAO  +0007MTN  V0202301N002110090019N0112001N1+00521-00041999999ADDGF108991999999999999999999MA1999999102101MW1001
0056724067999991972010919004+39333-076417SAO  +0007MTN  V0202301N002110090019N0080001N1+00581+00301999999ADDGF108991999999999999999999MA1999999101561MW1051MW2801
0056724067999991972010920004+39333-076417SAO  +0007MTN  V0202301N001510045019N0048001N1+00521+00351999999ADDGF108991999999999999999999MA1999999101521MW1051MW2611
0056724067999991972010921004+39333-076417SAO  +0007MTN  V0202101N002610045019N0048001N1+00461+00301101441ADDGF108991999999999999999999MA1999999101461MW1051MW2611
0056724067999991972010922004+39333-076417SAO  +0007MTN  V0202101N001510045019N0048001N1+00581+00351999999ADDGF108991999999999999999999MA1999999101391MW1051MW2611
0056724067999991972011113004+39333-076417SAO  +0007MTN  V0201601N001510021019N0020001N1+00741+00631999999ADDGF108991999999999999999999MA1999999101251MW1451MW2611
0056724067999991972011116004+39333-076417SAO  +0007MTN  V0209991C000010001519N0002001N1+00911+00801999999ADDGF108991999999999999999999MA1999999101291MW1451MW2611
0050724067999991972011117004+39333-076417SAO  +0007MTN  V0209991C000010003019N0004001N1+01021+00911999999ADDGF108991999999999999999999MA1999999101151MW1451
0050724067999991972011118004+39333-076417SAO  +0007MTN  V0209991C000010001519N0002001N1+01021+00911101061ADDGF108991999999999999999999MA1999999101051MW1451
0050724067999991972011119004+39333-076417SAO  +0007MTN  V0209991C000010001519N0002001N1+01071+00911999999ADDGF108991999999999999999999MA1999999101021MW1451
0050724067999991972011120004+39333-076417SAO  +0007MTN  V0209991C000010001519N0004001N1+00961+00851999999ADDGF108991999999999999999999MA1999999101021MW1451
0050724067999991972011121004+39333-076417SAO  +0007MTN  V0209991C000010021019N0016001N1+00961+00801101041ADDGF108991999999999999999999MA1999999101051MW1451
0050724067999991972011122004+39333-076417SAO  +0007MTN  V0201701N002610180019N0048001N1+00911+00741999999ADDGF108991999999999999999999MA1999999101021MW1111
0050724067999991972011123004+39333-076417SAO  +0007MTN  V0201901N001512200019N0048001N1+00801+00631999999ADDGF107991999999999999999999MA1999999100951MW1111
0050724067999991972011200004+39333-076417SAO  +0007MTN  V0201301N001010075019N0024001N1+00911+00801100881ADDGF108991999999999999999999MA1999999100911MW1111
0050724067999991972011201004+39333-076417SAO  +0007MTN  V0201701N002610036019N0024001N1+01021+00851999999ADDGF108991999999999999999999MA1999999100911MW1111
0050724067999991972011202004+39333-076417SAO  +0007MTN  V0209991C000012200019N0048001N1+00961+00741999999ADDGF102991999999999999999999MA1999999100911MW1111
0050724067999991972011203004+39333-076417SAO  +0007MTN  V0209991C000010090019N0048001N1+00961+00801100981ADDGF107991999999999999999999MA1999999101021MW1111
0050724067999991972011213004+39333-076417SAO  +0007MTN  V0203301N002112200019N0160001N1+00351-00201999999ADDGF102991999999999999999999MA1999999101901MW1001
0050724067999991972011214004+39333-076417SAO  +0007MTN  V0209991C000012200019N0160001N1+00521+00021999999ADDGF102991999999999999999999MA1999999102031MW1001
0050724067999991972011215004+39333-076417SAO  +0007MTN  V0203501N003112200019N0112001N1+00801-00151102061ADDGF102991999999999999999999MA1999999102071MW1001
0050724067999991972011216004+39333-076417SAO  +0007MTN  V0203601N003112200019N0160001N1+00961-00371999999ADDGF102991999999999999999999MA1999999102071MW1001
0050724067999991972011217004+39333-076417SAO  +0007MTN  V0201501N003112200019N0192001N1+01021+00081999999ADDGF100991999999999999999999MA1999999102031MW1001
0050724067999991972011218004+39333-076417SAO  +0007MTN  V0201201N003612200019N0192001N1+01021-00371101911ADDGF102991999999999999999999MA1999999101931MW1001
0050724067999991972011219004+39333-076417SAO  +0007MTN  V0201201N003612200019N0192001N1+01021-00261999999ADDGF102991999999999999999999MA1999999101901MW1001
0050724067999991972011220004+39333-076417SAO  +0007MTN  V0201601N003112200019N0192001N1+00961-00261999999ADDGF102991999999999999999999MA1999999101901MW1001
0050724067999991972011221004+39333-076417SAO  +0007MTN  V0201501N001010360019N0240001N1+00851-00261101911ADDGF107991999999999999999999MA1999999101931MW1001
0050724067999991972011222004+39333-076417SAO  +0007MTN  V0209991C000010360019N0240001N1+00741-00151999999ADDGF108991999999999999999999MA1999999101901MW1001
0050724067999991972011223004+39333-076417SAO  +0007MTN  V0201201N001510360019N0240001N1+00691-00201999999ADDGF107991999999999999999999MA1999999101901MW1001
0050724067999991972011300004+39333-076417SAO  +0007MTN  V0201501N003110360019N0240001N1+00741-00041101881ADDGF107991999999999999999999MA1999999101901MW1001
0050724067999991972011301004+39333-076417SAO  +0007MTN  V0201201N002110360019N0240001N1+00691+00131999999ADDGF107991999999999999999999MA1999999101901MW1001
0050724067999991972011302004+39333-076417SAO  +0007MTN  V0201301N005110360019N0240001N1+00691+00241999999ADDGF107991999999999999999999MA1999999101791MW1001
0050724067999991972011303004+39333-076417SAO  +0007MTN  V0201701N003610150019N0240001N1+00631+00301101791ADDGF107991999999999999999999MA1999999101791MW1001
0056724067999991972011313004+39333-076417SAO  +0007MTN  V0201501N001510003019N0002001N1+00741+00631999999ADDGF108991999999999999999999MA1999999101291MW1451MW2511
0056724067999991972011314004+39333-076417SAO  +0007MTN  V0209991C000010003019N0002001N1+00851+00741999999ADDGF108991999999999999999999MA1999999101291MW1451MW2511
0056724067999991972011315004+39333-076417SAO  +0007MTN  V0201201N001010003019N0002001N1+00961+00911101141ADDGF108991999999999999999999MA1999999101151MW1451MW2511
0056724067999991972011316004+39333-076417SAO  +0007MTN  V0200901N003610003019N0004001N1+01071+00961999999ADDGF108991999999999999999999MA1999999101051MW1451MW2611
0050724067999991972011318004+39333-076417SAO  +0007MTN  V0202101N006210003019N0002001N1+01131+01021100721ADDGF108991999999999999999999MA1999999100751MW1451
0050724067999991972011319004+39333-076417SAO  +0007MTN  V0202001N005110003019N0002001N1+01191+01131999999ADDGF108991999999999999999999MA1999999100581MW1451
0050724067999991972011320004+39333-076417SAO  +0007MTN  V0201701N004110003019N0006001N1+01301+01191999999ADDGF108991999999999999999999MA1999999100581MW1451
0050724067999991972011321004+39333-076417SAO  +0007MTN  V0201601N003610006019N0010001N1+01351+01241100451ADDGF108991999999999999999999MA1999999100441MW1451
0050724067999991972011322004+39333-076417SAO  +0007MTN  V0201801N005110006019N0012001N1+01301+01131999999ADDGF108991999999999999999999MA1999999100441MW1451
0050724067999991972011323004+39333-076417SAO  +0007MTN  V0201601N005110006019N0032001N1+01301+01131999999ADDGF108991999999999999999999MA1999999100441MW1451
0050724067999991972011400004+39333-076417SAO  +0007MTN  V0201701N004610009019N0080001N1+01241+01131100311ADDGF108991999999999999999999MA1999999100341MW1111
0050724067999991972011401004+39333-076417SAO  +0007MTN  V0201701N005710090019N0160001N1+01301+01131999999ADDGF108991999999999999999999MA1999999100241MW1001
0050724067999991972011402004+39333-076417SAO  +0007MTN  V0201601N004110090019N0160001N1+01351+01191999999ADDGF108991999999999999999999MA1999999100241MW1001
0050724067999991972011403004+39333-076417SAO  +0007MTN  V0201701N003110045019N0160001N1+01351+01191100281ADDGF108991999999999999999999MA1999999100301MW1001
0050724067999991972011413004+39333-076417SAO  +0007MTN  V0203501N004110210019N0192001N1+00131-00811999999ADDGF108991999999999999999999MA1999999102031MW1001
0050724067999991972011414004+39333-076417SAO  +0007MTN  V0203601N005110210019N0192001N1+00081-00261999999ADDGF107991999999999999999999MA1999999102071MW1001
0050724067999991972011416004+39333-076417SAO  +0007MTN  V0203601N005110270019N0192001N1+00241-00041999999ADDGF108991999999999999999999MA1999999102271MW1001
0050724067999991972011417004+39333-076417SAO  +0007MTN  V0200101N005110270019N0192001N1+00241+00021999999ADDGF108991999999999999999999MA1999999102271MW1001
0050724067999991972011418004+39333-076417SAO  +0007MTN  V0203601N006210750019N0192001N1+00241+00021102271ADDGF108991999999999999999999MA1999999102271MW1001
0050724067999991972011419004+39333-076417SAO  +0007MTN  V0203601N006210750019N0192001N1+00351+00131999999ADDGF107991999999999999999999MA1999999102271MW1001
0050724067999991972011420004+39333-076417SAO  +0007MTN  V0203601N004110750019N0192001N1+00301+00131999999ADDGF108991999999999999999999MA1999999102401MW1001
0050724067999991972011421004+39333-076417SAO  +0007MTN  V0203501N004610750019N0192001N1+00241-00481102551ADDGF108991999999999999999999MA1999999102541MW1001
0050724067999991972011422004+39333-076417SAO  +0007MTN  V0203501N002612200019N0192001N1+00191-00761999999ADDGF108991999999999999999999MA1999999102681MW1001
0050724067999991972011423004+39333-076417SAO  +0007MTN  V0203501N002612200019N0192001N1+00021-00651999999ADDGF108991999999999999999999MA1999999102741MW1001
0050724067999991972011500004+39333-076417SAO  +0007MTN  V0203301N001512200019N0240001N1+00021-00591102841ADDGF108991999999999999999999MA1999999102841MW1001
0050724067999991972011501004+39333-076417SAO  +0007MTN  V0203601N001012200019N0400001N1-00041-00591999999ADDGF108991999999999999999999MA1999999102841MW1001
0050724067999991972011502004+39333-076417SAO  +0007MTN  V0209991C000012200019N0400001N1-00041-00701999999ADDGF108991999999999999999999MA1999999102881MW1001
0050724067999991972011503004+39333-076417SAO  +0007MTN  V0203201N001012200019N0400001N1-00091-00871102911ADDGF107991999999999999999999MA1999999102911MW1001
0050724067999991972011513004+39333-076417SAO  +0007MTN  V0203601N001010750019N0112001N1-00201-00921999999ADDGF108991999999999999999999MA1999999102881MW1001
0050724067999991972011514004+39333-076417SAO  +0007MTN  V0203501N005110750019N0112001N1-00201-01031999999ADDGF108991999999999999999999MA1999999102911MW1001
0050724067999991972011515004+39333-076417SAO  +0007MTN  V0203301N006210750019N0112001N1-00091-01091102921ADDGF108991999999999999999999MA1999999102911MW1001
0050724067999991972011516004+39333-076417SAO  +0007MTN  V0203401N007210750019N0160001N1-00091-01421999999ADDGF108991999999999999999999MA1999999102841MW1001
0050724067999991972011517004+39333-076417SAO  +0007MTN  V0203301N007210750019N0240001N1-00151-01641999999ADDGF108991999999999999999999MA1999999102811MW1001
0050724067999991972011518004+39333-076417SAO  +0007MTN  V0203001N006210750019N0240001N1-00151-01481102681ADDGF108991999999999999999999MA1999999102681MW1001
0050724067999991972011519004+39333-076417SAO  +0007MTN  V0203301N006210600019N0240001N1-00261-01371999999ADDGF108991999999999999999999MA1999999102681MW1001
0050724067999991972011521004+39333-076417SAO  +0007MTN  V0203401N006210600019N0240001N1-00421-01261102781ADDGF107991999999999999999999MA1999999102811MW1001
0050724067999991972011522004+39333-076417SAO  +0007MTN  V0203301N007212200019N0240001N1-00481-01421999999ADDGF107991999999999999999999MA1999999102881MW1001
0050724067999991972011613004+39333-076417SAO  +0007MTN  V0203001N007212200019N0192001N1-01531-02311999999ADDGF100991999999999999999999MA1999999103861MW1001
0050724067999991972011614004+39333-076417SAO  +0007MTN  V0203201N007212200019N0192001N1-01421-02371999999ADDGF100991999999999999999999MA1999999103931MW1001
0050724067999991972011615004+39333-076417SAO  +0007MTN  V0203201N007212200019N0192001N1-01261-02311103971ADDGF100991999999999999999999MA1999999103961MW1001
0050724067999991972011616004+39333-076417SAO  +0007MTN  V0203101N006212200019N0240001N1-01151-02141999999ADDGF100991999999999999999999MA1999999103891MW1001
0050724067999991972011617004+39333-076417SAO  +0007MTN  V0203301N007712200019N0240001N1-00981-02091999999ADDGF102991999999999999999999MA1999999103831MW1001
0050724067999991972011618004+39333-076417SAO  +0007MTN  V0203301N009312200019N0240001N1-00871-02091103681ADDGF102991999999999999999999MA1999999103691MW1001
0050724067999991972011619004+39333-076417SAO  +0007MTN  V0203401N007712200019N0240001N1-00871-02091999999ADDGF102991999999999999999999MA1999999103691MW1001
0050724067999991972011620004+39333-076417SAO  +0007MTN  V0203501N007712200019N0240001N1-00811-01981999999ADDGF100991999999999999999999MA1999999103661MW1001
0050724067999991972011621004+39333-076417SAO  +0007MTN  V0203601N007212200019N0240001N1-00811-02031103711ADDGF100991999999999999999999MA1999999103731MW1001
0050724067999991972011622004+39333-076417SAO  +0007MTN  V0203601N005112200019N0240001N1-00921-02201999999ADDGF100991999999999999999999MA1999999103731MW1001
0050724067999991972011813004+39333-076417SAO  +0007MTN  V0202401N001012200019N0192001N1-00651-01151999999ADDGF100991999999999999999999MA1999999102641MW1001
0050724067999991972011814004+39333-076417SAO  +0007MTN  V0202001N001512200019N0192001N1-00261-00871999999ADDGF100991999999999999999999MA1999999102641MW1001
0050724067999991972011815004+39333-076417SAO  +0007MTN  V0202101N002112200019N0192001N1+00021-00651102641ADDGF100991999999999999999999MA1999999102641MW1001
0050724067999991972011816004+39333-076417SAO  +0007MTN  V0202101N002612200019N0192001N1+00301-00421999999ADDGF100991999999999999999999MA1999999102541MW1001
0050724067999991972011817004+39333-076417SAO  +0007MTN  V0201301N004112200019N0240001N1+00411-00091999999ADDGF100991999999999999999999MA1999999102441MW1001
0050724067999991972011818004+39333-076417SAO  +0007MTN  V0201801N004112200019N0240001N1+00631-00151102301ADDGF100991999999999999999999MA1999999102301MW1001
0050724067999991972011819004+39333-076417SAO  +0007MTN  V0201301N003112200019N0240001N1+00631-00151999999ADDGF100991999999999999999999MA1999999102241MW1001
0050724067999991972011913004+39333-076417SAO  +0007MTN  V0209991C000010120019N0160001N1+00741+00191999999ADDGF107991999999999999999999MA1999999101731MW1001
0050724067999991972011914004+39333-076417SAO  +0007MTN  V0202301N004110105019N0160001N1+00851+00351999999ADDGF108991999999999999999999MA1999999101791MW1001
0050724067999991972011915004+39333-076417SAO  +0007MTN  V0202401N004110360019N0160001N1+00911+00351101821ADDGF108991999999999999999999MA1999999101861MW1001
0050724067999991972011916004+39333-076417SAO  +0007MTN  V0202501N004110360019N0112001N1+01021+00301999999ADDGF108991999999999999999999MA1999999101861MW1001
0050724067999991972011918004+39333-076417SAO  +0007MTN  V0202701N004112200019N0112001N1+01461+00241101651ADDGF107991999999999999999999MA1999999101691MW1001
0050724067999991972011919004+39333-076417SAO  +0007MTN  V0202701N007712200019N0112001N1+01571+00301999999ADDGF107991999999999999999999MA1999999101561MW1001
0050724067999991972011922004+39333-076417SAO  +0007MTN  V0203201N008712200019N0160001N1+01411-00201999999ADDGF102991999999999999999999MA1999999102001MW1001
0050724067999991972011923004+39333-076417SAO  +0007MTN  V0203201N008212200019N0160001N1+01131-00371999999ADDGF102991999999999999999999MA1999999102131MW1001
0050724067999991972012000004+39333-076417SAO  +0007MTN  V0202401N007212200019N0160001N1+00911-00371102261ADDGF102991999999999999999999MA1999999102271MW1001
0050724067999991972012001004+39333-076417SAO  +0007MTN  V0203601N005112200019N0160001N1+00691-00261999999ADDGF102991999999999999999999MA1999999102401MW1001
0050724067999991972012002004+39333-076417SAO  +0007MTN  V0203401N003112200019N0160001N1+00521-00311999999ADDGF102991999999999999999999MA1999999102401MW1001
0050724067999991972012003004+39333-076417SAO  +0007MTN  V0203201N002112200019N0160001N1+00411-00151102431ADDGF102991999999999999999999MA1999999102441MW1001
0050724067999991972012013004+39333-076417SAO  +0007MTN  V0209991C000010750019N0240001N1-00041-00651999999ADDGF108991999999999999999999MA1999999102641MW1001
0050724067999991972012014004+39333-076417SAO  +0007MTN  V0209991C000010750019N0192001N1+00191-00481999999ADDGF108991999999999999999999MA1999999102541MW1001
0050724067999991972012015004+39333-076417SAO  +0007MTN  V0201101N002110270019N0192001N1+00581-00371102501ADDGF108991999999999999999999MA1999999102511MW1001
0050724067999991972012016004+39333-076417SAO  +0007MTN  V0201801N001010330019N0160001N1+00461-00531999999ADDGF108991999999999999999999MA1999999102401MW1001
0062724067999991972012018004+39333-076417SAO  +0007MTN  V0209991C000010135019N0080001N1+00351-00041102131ADDGF108991999999999999999999MA1999999102131MW1051MW2111MW3611
0056724067999991972012019004+39333-076417SAO  +0007MTN  V0209991C000010135019N0096001N1+00411-00041999999ADDGF108991999999999999999999MA1999999102031MW1051MW2611
0050724067999991972012020004+39333-076417SAO  +0007MTN  V0201101N001010135019N0112001N1+00351+00021999999ADDGF108991999999999999999999MA1999999101901MW1001
0056724067999991972012021004+39333-076417SAO  +0007MTN  V0209991C000010120019N0080001N1+00351+00081101831ADDGF108991999999999999999999MA1999999101861MW1051MW2611
0050724067999991972012022004+39333-076417SAO  +0007MTN  V0209991C000010240019N0080001N1+00301+00081999999ADDGF108991999999999999999999MA1999999101761MW1051
0050724067999991972012023004+39333-076417SAO  +0007MTN  V0209991C000010105019N0080001N1+00191+00021999999ADDGF108991999999999999999999MA1999999101631MW1051
0050724067999991972012100004+39333-076417SAO  +0007MTN  V0209991C000010105019N0080001N1+00241+00131101641ADDGF108991999999999999999999MA1999999101691MW1051
0050724067999991972012101004+39333-076417SAO  +0007MTN  V0209991C000010105019N0080001N1+00241+00081999999ADDGF108991999999999999999999MA1999999101591MW1051
0050724067999991972012102004+39333-076417SAO  +0007MTN  V0209991C000010105019N0080001N1+00241+00131999999ADDGF108991999999999999999999MA1999999101561MW1051
0050724067999991972012103004+39333-076417SAO  +0007MTN  V0209991C000010105019N0080001N1+00351+00191101521ADDGF108991999999999999999999MA1999999101561MW1051
0056724067999991972012113004+39333-076417SAO  +0007MTN  V0209991C000010210019N0048001N1+00521+00411999999ADDGF108991999999999999999999MA1999999101861MW1051MW2111
0050724067999991972012115004+39333-076417SAO  +0007MTN  V0200201N005110090019N0064001N1+00741+00521102021ADDGF108991999999999999999999MA1999999102031MW1051
0050724067999991972012117004+39333-076417SAO  +0007MTN  V0200201N006210135019N0096001N1+00741+00191999999ADDGF108991999999999999999999MA1999999102101MW1051
0050724067999991972012118004+39333-076417SAO  +0007MTN  V0200601N002110057019N0112001N1+00741+00301102081ADDGF108991999999999999999999MA1999999102071MW1001
0050724067999991972012119004+39333-076417SAO  +0007MTN  V0200101N005110060019N0112001N1+00691+00191999999ADDGF108991999999999999999999MA1999999102071MW1001
0050724067999991972012120004+39333-076417SAO  +0007MTN  V0200201N005110057019N0112001N1+00691+00191999999ADDGF108991999999999999999999MA1999999102101MW1001
0050724067999991972012121004+39333-076417SAO  +0007MTN  V0200301N006210057019N0112001N1+00691+00191102121ADDGF108991999999999999999999MA1999999102131MW1001
0050724067999991972012122004+39333-076417SAO  +0007MTN  V0200401N004110057019N0112001N1+00631+00081999999ADDGF108991999999999999999999MA1999999102241MW1001
0050724067999991972012123004+39333-076417SAO  +0007MTN  V0200301N002610057019N0112001N1+00521+00131999999ADDGF108991999999999999999999MA1999999102241MW1001
0050724067999991972012200004+39333-076417SAO  +0007MTN  V0203601N003610057019N0112001N1+00521+00131102291ADDGF108991999999999999999999MA1999999102301MW1001
0050724067999991972012202004+39333-076417SAO  +0007MTN  V0200401N004110072019N0112001N1+00461-00091999999ADDGF108991999999999999999999MA1999999102371MW1001
0050724067999991972012203004+39333-076417SAO  +0007MTN  V0200301N002110066019N0112001N1+00411-00091102391ADDGF108991999999999999999999MA1999999102401MW1001
0050724067999991972012213004+39333-076417SAO  +0007MTN  V0209991C000010036019N0112001N1+00691+00131999999ADDGF108991999999999999999999MA1999999102131MW1001
0050724067999991972012214004+39333-076417SAO  +0007MTN  V0200501N003610033019N0112001N1+00741+00241999999ADDGF108991999999999999999999MA1999999102101MW1001
0050724067999991972012215004+39333-076417SAO  +0007MTN  V0200301N003110033019N0112001N1+00691+00241102081ADDGF108991999999999999999999MA1999999102071MW1001
0050724067999991972012216004+39333-076417SAO  +0007MTN  V0200401N002610033019N0112001N1+00521+00131999999ADDGF108991999999999999999999MA1999999102031MW1001
0062724067999991972012217004+39333-076417SAO  +0007MTN  V0200401N002110030019N0048001N1+00521+00351999999ADDGF108991999999999999999999MA1999999101901MW1051MW2111MW3511
0056724067999991972012218004+39333-076417SAO  +0007MTN  V0200201N002110024019N0032001N1+00461+00351101771ADDGF108991999999999999999999MA1999999101761MW1111MW2511
0056724067999991972012219004+39333-076417SAO  +0007MTN  V0200401N003110018019N0012001N1+00521+00461999999ADDGF108991999999999999999999MA1999999101691MW1451MW2511
0056724067999991972012220004+39333-076417SAO  +0007MTN  V0200501N004110009019N0012001N1+00461+99999999999ADDGF108991999999999999999999MA1999999101561MW1451MW2511
0056724067999991972012221004+39333-076417SAO  +0007MTN  V0200501N002110009019N0012001N1+00461+00411101541ADDGF108991999999999999999999MA1999999101561MW1451MW2511
0056724067999991972012222004+39333-076417SAO  +0007MTN  V0200601N002110009019N0012001N1+00411+99999999999ADDGF108991999999999999999999MA1999999101521MW1451MW2511
0050724067999991972012313004+39333-076417SAO  +0007MTN  V0201301N002610015019N0012001N1+00581+00581999999ADDGF108991999999999999999999MA1999999100951MW1451
0050724067999991972012315004+39333-076417SAO  +0007MTN  V0209991C000010012019N0032001N1+00631+00521101091ADDGF108991999999999999999999MA1999999101121MW1451
0050724067999991972012316004+39333-076417SAO  +0007MTN  V0209991C000010012019N0024001N1+00741+00691999999ADDGF108991999999999999999999MA1999999101151MW1451
0050724067999991972012317004+39333-076417SAO  +0007MTN  V0209991C000010012019N0016001N1+00801+00691999999ADDGF108991999999999999999999MA1999999101151MW1451
0050724067999991972012318004+39333-076417SAO  +0007MTN  V0201501N004110006019N0004001N1+00741+00631101021ADDGF108991999999999999999999MA1999999101051MW1451
0050724067999991972012319004+39333-076417SAO  +0007MTN  V0201501N002110012019N0008001N1+00801+00741999999ADDGF108991999999999999999999MA1999999101021MW1451
0050724067999991972012320004+39333-076417SAO  +0007MTN  V0201401N003110012019N0008001N1+00691+00631999999ADDGF108991999999999999999999MA1999999101051MW1451
0050724067999991972012321004+39333-076417SAO  +0007MTN  V0201901N002110012019N0008001N1+00691+99999101061ADDGF108991999999999999999999MA1999999101051MW1451
0050724067999991972012322004+39333-076417SAO  +0007MTN  V0201601N002610001519N0000001N1+00631+99999999999ADDGF108991999999999999999999MA1999999101051MW1451
0050724067999991972012513004+39333-076417SAO  +0007MTN  V0203201N009310150019N0240001N1+00911+00461999999ADDGF108991999999999999999999MA1999999101151MW1001
0050724067999991972012514004+39333-076417SAO  +0007MTN  V0202901N009310150019N0240001N1+01071+00131999999ADDGF107991999999999999999999MA1999999101321MW1001
0050724067999991972012515004+39333-076417SAO  +0007MTN  V0202601N010310240019N0240001N1+01071-00041101341ADDGF107991999999999999999999MA1999999101461MW1001
0050724067999991972012516004+39333-076417SAO  +0007MTN  V0202601N010312200019N0240001N1+01071-00371999999ADDGF102991999999999999999999MA1999999101591MW1001
0050724067999991972012517004+39333-076417SAO  +0007MTN  V0202701N010312200019N0240001N1+00961-00651999999ADDGF102991999999999999999999MA1999999101761MW1001
0050724067999991972012518004+39333-076417SAO  +0007MTN  V0202801N010312200019N0240001N1+00961-00591101731ADDGF102991999999999999999999MA1999999101761MW1001
0050724067999991972012519004+39333-076417SAO  +0007MTN  V0202801N010312200019N0240001N1+00911-00651999999ADDGF100991999999999999999999MA1999999101901MW1001
0050724067999991972012600004+39333-076417SAO  +0007MTN  V0202801N005112200019N0240001N1+00241-01261102681ADDGF100991999999999999999999MA1999999102711MW1001
0050724067999991972012601004+39333-076417SAO  +0007MTN  V0202901N007712200019N0400001N1+00131-01481999999ADDGF100991999999999999999999MA1999999102811MW1001
0050724067999991972012602004+39333-076417SAO  +0007MTN  V0202701N004112200019N0400001N1+00021-01701999999ADDGF100991999999999999999999MA1999999102841MW1001
0050724067999991972012603004+39333-076417SAO  +0007MTN  V0202801N004112200019N0400001N1-00091-01811102871ADDGF100991999999999999999999MA1999999102881MW1001
0050724067999991972012614004+39333-076417SAO  +0007MTN  V0202901N005110420019N0240001N1-00371-01371999999ADDGF107991999999999999999999MA1999999103451MW1001
0050724067999991972012615004+39333-076417SAO  +0007MTN  V0202701N004110480019N0240001N1-00151-01421103501ADDGF107991999999999999999999MA1999999103491MW1001
0050724067999991972012616004+39333-076417SAO  +0007MTN  V0202701N005112200019N0240001N1-00091-01641999999ADDGF102991999999999999999999MA1999999103451MW1001
0050724067999991972012617004+39333-076417SAO  +0007MTN  V0202701N005112200019N0240001N1+00021-01591999999ADDGF102991999999999999999999MA1999999103351MW1001
0050724067999991972012618004+39333-076417SAO  +0007MTN  V0202801N004110750019N0240001N1+00081-01531103231ADDGF107991999999999999999999MA1999999103181MW1001
0050724067999991972012619004+39333-076417SAO  +0007MTN  V0202701N003612200019N0240001N1+00131-01531999999ADDGF102991999999999999999999MA1999999103121MW1001
0050724067999991972012620004+39333-076417SAO  +0007MTN  V0202601N003112200019N0240001N1+00301-01311999999ADDGF107991999999999999999999MA1999999103011MW1001
0050724067999991972012621004+39333-076417SAO  +0007MTN  V0202701N002612200019N0240001N1+00351-01371102991ADDGF107991999999999999999999MA1999999102981MW1001
0050724067999991972012622004+39333-076417SAO  +0007MTN  V0203001N001512200019N0240001N1+00411-01421999999ADDGF102991999999999999999999MA1999999102981MW1001
0050724067999991972012623004+39333-076417SAO  +0007MTN  V0202901N001012200019N0240001N1+00191-01261999999ADDGF102991999999999999999999MA1999999102951MW1001
0050724067999991972012800004+39333-076417SAO  +0007MTN  V0201001N003610150019N0112001N1-00151-01201102651ADDGF108991999999999999999999MA1999999102681MW1001
0050724067999991972012802004+39333-076417SAO  +0007MTN  V0201501N001510135019N0112001N1-00201-00981999999ADDGF108991999999999999999999MA1999999102541MW1851
0050724067999991972012803004+39333-076417SAO  +0007MTN  V0201901N004110075019N0048001N1-00311-00651102541ADDGF108991999999999999999999MA1999999102541MW1851
0050724067999991972012813004+39333-076417SAO  +0007MTN  V0200701N002610015019N0048001N1-00201-00371999999ADDGF108991999999999999999999MA1999999101561MW1451
0050724067999991972012814004+39333-076417SAO  +0007MTN  V0209991C000010015019N0036001N1-00201-00421999999ADDGF108991999999999999999999MA1999999101561MW1451
0050724067999991972012815004+39333-076417SAO  +0007MTN  V0203401N001510006019N0020001N1-00201-00371101571ADDGF108991999999999999999999MA1999999101591MW1451
0050724067999991972012816004+39333-076417SAO  +0007MTN  V0203001N001010012019N0032001N1-00151-00371999999ADDGF108991999999999999999999MA1999999101631MW1451
0050724067999991972012819004+39333-076417SAO  +0007MTN  V0203501N003110660019N0112001N1+00131-00421999999ADDGF108991999999999999999999MA1999999101461MW1001
0050724067999991972012820004+39333-076417SAO  +0007MTN  V0203401N005110660019N0112001N1+00241-00481999999ADDGF108991999999999999999999MA1999999101561MW1001
0050724067999991972012821004+39333-076417SAO  +0007MTN  V0203101N005110600019N0112001N1+00301-00531101541ADDGF108991999999999999999999MA1999999101561MW1001
0050724067999991972012822004+39333-076417SAO  +0007MTN  V0203101N005110600019N0112001N1+00191-00651999999ADDGF108991999999999999999999MA1999999101631MW1001
0050724067999991972012823004+39333-076417SAO  +0007MTN  V0203001N006210600019N0112001N1+00191-00651999999ADDGF108991999999999999999999MA1999999101731MW1001
0050724067999991972012900004+39333-076417SAO  +0007MTN  V0203101N005112200019N0192001N1+00131-00701101801ADDGF107991999999999999999999MA1999999101791MW1001
0050724067999991972012901004+39333-076417SAO  +0007MTN  V0203201N005712200019N0192001N1+00021-00701999999ADDGF107991999999999999999999MA1999999101901MW1001
0050724067999991972012902004+39333-076417SAO  +0007MTN  V0203201N006212200019N0240001N1+00021-00811999999ADDGF102991999999999999999999MA1999999101931MW1001
0050724067999991972012912004+39333-076417SAO  +0007MTN  V0203401N001512200019N0240001N1-00871-01091999999ADDGF102991999999999999999999MA1999999102511MW1001
0050724067999991972012913004+39333-076417SAO  +0007MTN  V0203401N001512200019N0240001N1-00871-01091999999ADDGF102991999999999999999999MA1999999102511MW1001
0050724067999991972012914004+39333-076417SAO  +0007MTN  V0200201N002112200019N0240001N1-00421-00651999999ADDGF102991999999999999999999MA1999999102541MW1001
0050724067999991972012915004+39333-076417SAO  +0007MTN  V0200501N003112200019N0240001N1-00311-00531102571ADDGF102991999999999999999999MA1999999102611MW1001
0050724067999991972012916004+39333-076417SAO  +0007MTN  V0200801N001012200019N0240001N1-00261-00481999999ADDGF102991999999999999999999MA1999999102611MW1001
0050724067999991972012917004+39333-076417SAO  +0007MTN  V0201601N001512200019N0240001N1-00151-00651999999ADDGF107991999999999999999999MA1999999102611MW1001
0050724067999991972012918004+39333-076417SAO  +0007MTN  V0201401N001512200019N0240001N1+00081-00701102431ADDGF107991999999999999999999MA1999999102441MW1001
0050724067999991972012919004+39333-076417SAO  +0007MTN  V0201301N002612200019N0240001N1+00021-00761999999ADDGF108991999999999999999999MA1999999102371MW1001
0050724067999991972012920004+39333-076417SAO  +0007MTN  V0201701N003110750019N0160001N1+00021-00761999999ADDGF108991999999999999999999MA1999999102241MW1001
0050724067999991972012921004+39333-076417SAO  +0007MTN  V0201201N002610750019N0160001N1-00041-00701102161ADDGF108991999999999999999999MA1999999102201MW1001
0050724067999991972012922004+39333-076417SAO  +0007MTN  V0201201N001510240019N0112001N1-00091-00531999999ADDGF108991999999999999999999MA1999999102131MW1001
0050724067999991972013013004+39333-076417SAO  +0007MTN  V0209991C000010360019N0112001N1-00091-00311999999ADDGF108991999999999999999999MA1999999101521MW1001
0050724067999991972013014004+39333-076417SAO  +0007MTN  V0209991C000010360019N0112001N1-00041-00311999999ADDGF108991999999999999999999MA1999999101561MW1001
0050724067999991972013015004+39333-076417SAO  +0007MTN  V0209991C000010360019N0112001N1+00021-00311101541ADDGF108991999999999999999999MA1999999101561MW1001
0050724067999991972013016004+39333-076417SAO  +0007MTN  V0202801N006210750019N0112001N1+00131-00151999999ADDGF108991999999999999999999MA1999999101561MW1001
0050724067999991972013017004+39333-076417SAO  +0007MTN  V0202801N005110750019N0112001N1+00191-00261999999ADDGF108991999999999999999999MA1999999101521MW1001
0035724067999991972013018004+39333-076417SAO  +0007MTN  V0202901N006710750019N0160001N1+00191-00531101391ADDGF108991999999999999999999MW1001
0050724067999991972013019004+39333-076417SAO  +0007MTN  V0202801N005110750019N0160001N1+00241-00651999999ADDGF108991999999999999999999MA1999999101321MW1001
0050724067999991972013020004+39333-076417SAO  +0007MTN  V0202901N006210750019N0160001N1+00301-00651999999ADDGF108991999999999999999999MA1999999101391MW1001
0050724067999991972013021004+39333-076417SAO  +0007MTN  V0202601N003610750019N0160001N1+00301-00591101341ADDGF108991999999999999999999MA1999999101391MW1001
0050724067999991972013022004+39333-076417SAO  +0007MTN  V0202701N004110540019N0160001N1+00241-00651999999ADDGF108991999999999999999999MA1999999101391MW1001
0050724067999991972020113004+39333-076417SAO  +0007MTN  V0203401N001012200019N0112001N1-00811-01261999999ADDGF108991999999999999999999MA1999999102681MW1001
0050724067999991972020114004+39333-076417SAO  +0007MTN  V0209991C000012200019N0112001N1-00261-00761999999ADDGF107991999999999999999999MA1999999102711MW1001
0050724067999991972020115004+39333-076417SAO  +0007MTN  V0209991C000012200019N0112001N1-00041-00421102681ADDGF107991999999999999999999MA1999999102711MW1001
0050724067999991972020116004+39333-076417SAO  +0007MTN  V0201401N002112200019N0096001N1+00191-00261999999ADDGF102991999999999999999999MA1999999102711MW1051
0050724067999991972020117004+39333-076417SAO  +0007MTN  V0201301N002112200019N0080001N1+00191-00421999999ADDGF102991999999999999999999MA1999999102641MW1051
0050724067999991972020118004+39333-076417SAO  +0007MTN  V0201401N004112200019N0080001N1+00301-00421102511ADDGF108991999999999999999999MA1999999102541MW1051
0050724067999991972020119004+39333-076417SAO  +0007MTN  V0201501N004612200019N0080001N1+00351-00531999999ADDGF108991999999999999999999MA1999999102471MW1051
0050724067999991972020120004+39333-076417SAO  +0007MTN  V0201401N004112200019N0080001N1+00301-00531999999ADDGF108991999999999999999999MA1999999102441MW1051
0050724067999991972020121004+39333-076417SAO  +0007MTN  V0201401N003110750019N0112001N1+00411-00371102511ADDGF108991999999999999999999MA1999999102541MW1001
0050724067999991972020122004+39333-076417SAO  +0007MTN  V0209991C000010750019N0112001N1+00301-00151999999ADDGF108991999999999999999999MA1999999102511MW1001
0050724067999991972020123004+39333-076417SAO  +0007MTN  V0200601N002110480019N0112001N1+00241-00201999999ADDGF108991999999999999999999MA1999999102471MW1001
0050724067999991972020200004+39333-076417SAO  +0007MTN  V0209991C000010750019N0112001N1+00131-00151102481ADDGF108991999999999999999999MA1999999102471MW1001
0050724067999991972020201004+39333-076417SAO  +0007MTN  V0209991C000010750019N0112001N1+00131-00151999999ADDGF108991999999999999999999MA1999999102471MW1001
0050724067999991972020202004+39333-076417SAO  +0007MTN  V0201001N003110480019N0112001N1+00131-00261999999ADDGF108991999999999999999999MA1999999102441MW1001
0050724067999991972020203004+39333-076417SAO  +0007MTN  V0201001N003110480019N0112001N1+00081-00201102431ADDGF108991999999999999999999MA1999999102441MW1001
0050724067999991972020213004+39333-076417SAO  +0007MTN  V0200501N004110015019N0010001N1-00041-00151999999ADDGF108991999999999999999999MA1999999102031MW1851
0056724067999991972020214004+39333-076417SAO  +0007MTN  V0200401N004110018019N0010001N1+00021-00091999999ADDGF108991999999999999999999MA1999999101931MW1451MW2711
0056724067999991972020215004+39333-076417SAO  +0007MTN  V0200301N007210024019N0024001N1+00021-00091101921ADDGF108991999999999999999999MA1999999101931MW1111MW2711
0056724067999991972020216004+39333-076417SAO  +0007MTN  V0200401N005710033019N0048001N1+00131-00091999999ADDGF108991999999999999999999MA1999999101901MW1111MW2711
0050724067999991972020217004+39333-076417SAO  +0007MTN  V0200101N004610033019N0048001N1+00131-00041999999ADDGF108991999999999999999999MA1999999101901MW1111
0056724067999991972020218004+39333-076417SAO  +0007MTN  V0200301N006210036019N0048001N1+00131-00041101721ADDGF108991999999999999999999MA1999999101731MW1111MW2711
0056724067999991972020219004+39333-076417SAO  +0007MTN  V0200201N005110036019N0048001N1+00131+00021999999ADDGF108991999999999999999999MA1999999101731MW1111MW2711
0050724067999991972020220004+39333-076417SAO  +0007MTN  V0200201N005110030019N0048001N1+00131-00041999999ADDGF108991999999999999999999MA1999999101791MW1451
0050724067999991972020221004+39333-076417SAO  +0007MTN  V0200201N005110030019N0048001N1+00081-00041101871ADDGF108991999999999999999999MA1999999101901MW1451
0047724067999991972020222004+39333-076417SAO  +0007MTN  V0200301N003610030019N0036001N1+00081-00041999999ADDGF108991999999999999999999MW1451MW2511MW3711
0056724067999991972020223004+39333-076417SAO  +0007MTN  V0200401N005110030019N0032001N1+00021-00091999999ADDGF108991999999999999999999MA1999999101931MW1451MW2771
0056724067999991972020300004+39333-076417SAO  +0007MTN  V0200301N005110030019N0024001N1+00021-00091101941ADDGF108991999999999999999999MA1999999101931MW1451MW2711
0056724067999991972020301004+39333-076417SAO  +0007MTN  V0200201N005110039019N0048001N1+00021-00091999999ADDGF108991999999999999999999MA1999999102031MW1451MW2711
0050724067999991972020302004+39333-076417SAO  +0007MTN  V0200201N004110039019N0064001N1+00021-00091999999ADDGF108991999999999999999999MA1999999102031MW1451
0050724067999991972020303004+39333-076417SAO  +0007MTN  V0200201N002110036019N0080001N1+00021-00091102011ADDGF108991999999999999999999MA1999999102031MW1451
0056724067999991972020313004+39333-076417SAO  +0007MTN  V0200701N004110012019N0024001N1+00241+00191999999ADDGF108991999999999999999999MA1999999101731MW1451MW2611
0056724067999991972020314004+39333-076417SAO  +0007MTN  V0200801N005110012019N0024001N1+00241+00191999999ADDGF108991999999999999999999MA1999999101691MW1451MW2511
0062724067999991972020315004+39333-076417SAO  +0007MTN  V0200801N005710009019N0024001N1+00301+00191101531ADDGF108991999999999999999999MA1999999101561MW1451MW2511MW3611
0056724067999991972020316004+39333-076417SAO  +0007MTN  V0200601N006210009019N0024001N1+00351+00241999999ADDGF108991999999999999999999MA1999999101421MW1451MW2611
0056724067999991972020317004+39333-076417SAO  +0007MTN  V0200601N006210009019N0020001N1+00351+00191999999ADDGF108991999999999999999999MA1999999101191MW1451MW2511
0081724067999991972020318004+39333-076417SAO  +0007MTN  V0200501N005110009019N0020001N1+00351+00301100902ADDGF108991999999999999999999MA1999999100911MW1451MW2511MW3611EQDQ01+100903APOSLP
0056724067999991972020319004+39333-076417SAO  +0007MTN  V0200601N004610009019N0020001N1+00351+99999999999ADDGF108991999999999999999999MA1999999100681MW1451MW2611
0056724067999991972020320004+39333-076417SAO  +0007MTN  V0200601N004610009019N0020001N1+00461+00411999999ADDGF108991999999999999999999MA1999999100541MW1451MW2611
0056724067999991972020323004+39333-076417SAO  +0007MTN  V0200801N005110015019N0048001N1+00741+00691999999ADDGF108991999999999999999999MA1999999099591MW1451MW2611
0056724067999991972020402004+39333-076417SAO  +0007MTN  V0202801N010310030019N0048001N1+00461+00351999999ADDGF108991999999999999999999MA1999999099191MW1451MW2611
0050724067999991972020403004+39333-076417SAO  +0007MTN  V0202801N009310240019N0160001N1+00521+00411099231ADDGF107991999999999999999999MA1999999099221MW1001
0050724067999991972020413004+39333-076417SAO  +0007MTN  V0202701N009312200019N0240001N1-00091-00921999999ADDGF100991999999999999999999MA1999999101051MW1001
0050724067999991972020414004+39333-076417SAO  +0007MTN  V0202701N008212200019N0240001N1-00151-00921999999ADDGF100991999999999999999999MA1999999101121MW1001
0050724067999991972020415004+39333-076417SAO  +0007MTN  V0202601N009312200019N0240001N1-00091-01261101181ADDGF102991999999999999999999MA1999999101191MW1001
0050724067999991972020416004+39333-076417SAO  +0007MTN  V0202701N009812200019N0400001N1-00041-01311999999ADDGF102991999999999999999999MA1999999101321MW1001
0050724067999991972020417004+39333-076417SAO  +0007MTN  V0202601N009312200019N0400001N1-00041-01311999999ADDGF102991999999999999999999MA1999999101421MW1001
0050724067999991972020418004+39333-076417SAO  +0007MTN  V0202701N010312200019N0400001N1-00091-01371101331ADDGF102991999999999999999999MA1999999101391MW1001
0050724067999991972020419004+39333-076417SAO  +0007MTN  V0202601N010312200019N0400001N1+00021-01311999999ADDGF102991999999999999999999MA1999999101421MW1001
0050724067999991972020420004+39333-076417SAO  +0007MTN  V0202601N010312200019N0400001N1-00091-01421999999ADDGF102991999999999999999999MA1999999101561MW1001
0050724067999991972020421004+39333-076417SAO  +0007MTN  V0202601N010312200019N0400001N1-00201-01591101631ADDGF102991999999999999999999MA1999999101691MW1001
0050724067999991972020422004+39333-076417SAO  +0007MTN  V0202601N010312200019N0400001N1-00261-01591999999ADDGF102991999999999999999999MA1999999101791MW1001
0050724067999991972020423004+39333-076417SAO  +0007MTN  V0202601N007712200019N0400001N1-00371-01591999999ADDGF102991999999999999999999MA1999999101931MW1001
0050724067999991972020500004+39333-076417SAO  +0007MTN  V0202801N007712200019N0400001N1-00421-01591102121ADDGF102991999999999999999999MA1999999102131MW1001
0050724067999991972020501004+39333-076417SAO  +0007MTN  V0202601N005112200019N0400001N1-00481-01591999999ADDGF102991999999999999999999MA1999999102241MW1001
0050724067999991972020502004+39333-076417SAO  +0007MTN  V0202601N005112200019N0400001N1-00531-01701999999ADDGF102991999999999999999999MA1999999102271MW1001
0035724067999991972020503004+39333-076417SAO  +0007MTN  V0202601N011312200019N0400001N1-00591-01871102321ADDGF102991999999999999999999MW1001
0050724067999991972020513004+39333-076417SAO  +0007MTN  V0202901N003612200019N0400001N1-00811-01871999999ADDGF100991999999999999999999MA1999999102881MW1001
0050724067999991972020514004+39333-076417SAO  +0007MTN  V0202801N005712200019N0400001N1-00761-01981999999ADDGF100991999999999999999999MA1999999102911MW1001
0050724067999991972020515004+39333-076417SAO  +0007MTN  V0202901N005112200019N0400001N1-00591-01981103001ADDGF100991999999999999999999MA1999999102981MW1001
0050724067999991972020516004+39333-076417SAO  +0007MTN  V0202701N007712200019N0400001N1-00481-02031999999ADDGF100991999999999999999999MA1999999102981MW1001
0050724067999991972020517004+39333-076417SAO  +0007MTN  V0202801N007712200019N0400001N1-00371-02091999999ADDGF100991999999999999999999MA1999999102911MW1001
0050724067999991972020518004+39333-076417SAO  +0007MTN  V0202701N005112200019N0400001N1-00201-01981102841ADDGF100991999999999999999999MA1999999102841MW1001
0050724067999991972020519004+39333-076417SAO  +0007MTN  V0202701N006212200019N0400001N1-00201-01921999999ADDGF100991999999999999999999MA1999999102741MW1001
0050724067999991972020520004+39333-076417SAO  +0007MTN  V0202801N005712200019N0400001N1-00201-02031999999ADDGF100991999999999999999999MA1999999102811MW1001
0050724067999991972020521004+39333-076417SAO  +0007MTN  V0202701N006212200019N0400001N1-00151-01981102811ADDGF100991999999999999999999MA1999999102841MW1001
0050724067999991972020522004+39333-076417SAO  +0007MTN  V0202701N006712200019N0400001N1-00201-01921999999ADDGF100991999999999999999999MA1999999102881MW1001
0050724067999991972020613004+39333-076417SAO  +0007MTN  V0200601N001510360019N0160001N1-00481-00871999999ADDGF108991999999999999999999MA1999999102101MW1001
0050724067999991972020614004+39333-076417SAO  +0007MTN  V0202001N002110360019N0160001N1-00201-00921999999ADDGF108991999999999999999999MA1999999102031MW1001
0050724067999991972020615004+39333-076417SAO  +0007MTN  V0202101N002610360019N0112001N1-00091-00871101871ADDGF108991999999999999999999MA1999999101901MW1001
0050724067999991972020616004+39333-076417SAO  +0007MTN  V0202201N004110210019N0112001N1-00041-00921999999ADDGF108991999999999999999999MA1999999101861MW1001
0050724067999991972020617004+39333-076417SAO  +0007MTN  V0202001N003110210019N0112001N1+00081-00921999999ADDGF108991999999999999999999MA1999999101731MW1001
0050724067999991972020618004+39333-076417SAO  +0007MTN  V0201701N004110105019N0112001N1+00191-00811101531ADDGF108991999999999999999999MA1999999101561MW1611
0056724067999991972020619004+39333-076417SAO  +0007MTN  V0201801N002610090019N0112001N1+00301-00651999999ADDGF108991999999999999999999MA1999999101521MW1611MW2711
0050724067999991972020620004+39333-076417SAO  +0007MTN  V0202001N002110135019N0096001N1+00351-00651999999ADDGF108991999999999999999999MA1999999101421MW1051
0050724067999991972020621004+39333-076417SAO  +0007MTN  V0202101N003110090019N0096001N1+00461-00701101311ADDGF108991999999999999999999MA1999999101321MW1051
0056724067999991972020622004+39333-076417SAO  +0007MTN  V0202201N003110090019N0096001N1+00461-00591999999ADDGF108991999999999999999999MA1999999101151MW1051MW2611
0050724067999991972020813004+39333-076417SAO  +0007MTN  V0203101N002112200019N0240001N1-00981-01871999999ADDGF100991999999999999999999MA1999999102841MW1001
0050724067999991972020814004+39333-076417SAO  +0007MTN  V0202701N005112200019N0240001N1-00921-01871999999ADDGF102991999999999999999999MA1999999102951MW1001
0050724067999991972020815004+39333-076417SAO  +0007MTN  V0202901N004112200019N0240001N1-00761-01761102971ADDGF102991999999999999999999MA1999999102981MW1001
0050724067999991972020816004+39333-076417SAO  +0007MTN  V0202901N004112200019N0240001N1-00591-01761999999ADDGF102991999999999999999999MA1999999102981MW1001
0050724067999991972020817004+39333-076417SAO  +0007MTN  V0202901N004112200019N0240001N1-00481-01811999999ADDGF102991999999999999999999MA1999999102881MW1001
0050724067999991972020818004+39333-076417SAO  +0007MTN  V0202801N006212200019N0240001N1-00421-01761102801ADDGF100991999999999999999999MA1999999102841MW1001
0050724067999991972020819004+39333-076417SAO  +0007MTN  V0202801N005112200019N0240001N1-00371-01761999999ADDGF100991999999999999999999MA1999999102841MW1001
0050724067999991972020820004+39333-076417SAO  +0007MTN  V0202601N005112200019N0240001N1-00311-01761999999ADDGF100991999999999999999999MA1999999102841MW1001
0050724067999991972020821004+39333-076417SAO  +0007MTN  V0202701N004612200019N0240001N1-00311-01811102851ADDGF100991999999999999999999MA1999999102881MW1001
0050724067999991972020822004+39333-076417SAO  +0007MTN  V0202901N005112200019N0240001N1-00371-01871999999ADDGF100991999999999999999999MA1999999102881MW1001
0050724067999991972020823004+39333-076417SAO  +0007MTN  V0202901N003612200019N0240001N1-00421-01871999999ADDGF100991999999999999999999MA1999999102951MW1001
0050724067999991972020901004+39333-076417SAO  +0007MTN  V0209991C000012200019N0240001N1-00481-01871999999ADDGF100991999999999999999999MA1999999103081MW1001
0050724067999991972020902004+39333-076417SAO  +0007MTN  V0209991C000012200019N0240001N1-00651-01871999999ADDGF100991999999999999999999MA1999999102981MW1001
0050724067999991972020903004+39333-076417SAO  +0007MTN  V0209991C000012200019N0240001N1-00701-01871103021ADDGF100991999999999999999999MA1999999103011MW1001
0050724067999991972020913004+39333-076417SAO  +0007MTN  V0203401N001510750019N0160001N1-00811-01531999999ADDGF107991999999999999999999MA1999999103251MW1001
0050724067999991972020914004+39333-076417SAO  +0007MTN  V0203401N002112200019N0160001N1-00761-01591999999ADDGF102991999999999999999999MA1999999103251MW1001
0050724067999991972020915004+39333-076417SAO  +0007MTN  V0203401N001012200019N0160001N1-00651-01591103341ADDGF102991999999999999999999MA1999999103321MW1001
0050724067999991972020916004+39333-076417SAO  +0007MTN  V0203101N004110750019N0160001N1-00481-01701999999ADDGF107991999999999999999999MA1999999103321MW1001
0050724067999991972020917004+39333-076417SAO  +0007MTN  V0203401N001010750019N0160001N1-00371-01641999999ADDGF107991999999999999999999MA1999999103221MW1001
0050724067999991972020918004+39333-076417SAO  +0007MTN  V0203401N001012200019N0160001N1-00261-01641103151ADDGF102991999999999999999999MA1999999103121MW1001
0050724067999991972020919004+39333-076417SAO  +0007MTN  V0202701N002612200019N0160001N1-00151-01481999999ADDGF102991999999999999999999MA1999999103081MW1001
0050724067999991972020920004+39333-076417SAO  +0007MTN  V0202701N002112200019N0192001N1-00091-01481999999ADDGF102991999999999999999999MA1999999102981MW1001
0050724067999991972020921004+39333-076417SAO  +0007MTN  V0202901N004112200019N0192001N1-00041-01421102991ADDGF102991999999999999999999MA1999999102981MW1001
0050724067999991972020922004+39333-076417SAO  +0007MTN  V0203101N005112200019N0192001N1-00091-01421999999ADDGF102991999999999999999999MA1999999103011MW1001
0050724067999991972020923004+39333-076417SAO  +0007MTN  V0203001N003612200019N0192001N1-00201-01311999999ADDGF102991999999999999999999MA1999999103121MW1001
0050724067999991972021000004+39333-076417SAO  +0007MTN  V0203401N004112200019N0192001N1-00311-01421103131ADDGF100991999999999999999999MA1999999103151MW1001
0050724067999991972021001004+39333-076417SAO  +0007MTN  V0203401N004112200019N0192001N1-00421-01371999999ADDGF100991999999999999999999MA1999999103181MW1001
0050724067999991972021002004+39333-076417SAO  +0007MTN  V0203301N002112200019N0192001N1-00481-01311999999ADDGF100991999999999999999999MA1999999103221MW1001
0050724067999991972021003004+39333-076417SAO  +0007MTN  V0203401N001512200019N0240001N1-00531-01371103251ADDGF100991999999999999999999MA1999999103251MW1001
0050724067999991972021013004+39333-076417SAO  +0007MTN  V0203501N005112200019N0160001N1-00701-01311999999ADDGF100991999999999999999999MA1999999103421MW1001
0050724067999991972021014004+39333-076417SAO  +0007MTN  V0203501N006212200019N0160001N1-00531-01311999999ADDGF100991999999999999999999MA1999999103421MW1001
0050724067999991972021015004+39333-076417SAO  +0007MTN  V0203501N006712200019N0160001N1-00311-01201103451ADDGF100991999999999999999999MA1999999103451MW1001
0050724067999991972021016004+39333-076417SAO  +0007MTN  V0200201N004112200019N0160001N1-00151-01261999999ADDGF100991999999999999999999MA1999999103451MW1001
0050724067999991972021017004+39333-076417SAO  +0007MTN  V0203201N006212200019N0160001N1-00091-01201999999ADDGF100991999999999999999999MA1999999103351MW1001
0050724067999991972021018004+39333-076417SAO  +0007MTN  V0203201N005112200019N0160001N1-00091-01201103311ADDGF102991999999999999999999MA1999999103281MW1001
0050724067999991972021019004+39333-076417SAO  +0007MTN  V0203201N005112200019N0160001N1+00081-00921999999ADDGF102991999999999999999999MA1999999103181MW1001
0050724067999991972021020004+39333-076417SAO  +0007MTN  V0203201N004112200019N0160001N1+00021-00921999999ADDGF102991999999999999999999MA1999999103181MW1001
0050724067999991972021022004+39333-076417SAO  +0007MTN  V0203401N004612200019N0192001N1-00041-01031999999ADDGF102991999999999999999999MA1999999103181MW1001
0050724067999991972021023004+39333-076417SAO  +0007MTN  V0203401N002112200019N0192001N1-00041-01031999999ADDGF102991999999999999999999MA1999999103251MW1001
0050724067999991972021103004+39333-076417SAO  +0007MTN  V0203301N002112200019N0240001N1-00421-01261103351ADDGF100991999999999999999999MA1999999103351MW1001
0050724067999991972021113004+39333-076417SAO  +0007MTN  V0203501N001510240019N0112001N1-00371-00871999999ADDGF108991999999999999999999MA1999999103421MW1001
0050724067999991972021114004+39333-076417SAO  +0007MTN  V0200201N003112200019N0112001N1-00201-00761999999ADDGF102991999999999999999999MA1999999103451MW1001
0050724067999991972021115004+39333-076417SAO  +0007MTN  V0200101N003612200019N0112001N1-00201-01031103451ADDGF100991999999999999999999MA1999999103451MW1001
0050724067999991972021116004+39333-076417SAO  +0007MTN  V0200201N003612200019N0112001N1-00151-00981999999ADDGF100991999999999999999999MA1999999103351MW1001
0050724067999991972021117004+39333-076417SAO  +0007MTN  V0200201N003612200019N0112001N1+00021-00981999999ADDGF100991999999999999999999MA1999999103281MW1001
0050724067999991972021118004+39333-076417SAO  +0007MTN  V0200201N002612200019N0112001N1+00131-00871103211ADDGF100991999999999999999999MA1999999103181MW1001
0050724067999991972021119004+39333-076417SAO  +0007MTN  V0201701N004112200019N0112001N1+00301-00761999999ADDGF100991999999999999999999MA1999999103121MW1001
0050724067999991972021120004+39333-076417SAO  +0007MTN  V0201501N004112200019N0160001N1+00351-00701999999ADDGF100991999999999999999999MA1999999103081MW1001
0050724067999991972021121004+39333-076417SAO  +0007MTN  V0201501N003112200019N0192001N1+00351-00651103041ADDGF100991999999999999999999MA1999999103081MW1001
0050724067999991972021123004+39333-076417SAO  +0007MTN  V0209991C000012200019N0192001N1-00041-00761999999ADDGF100991999999999999999999MA1999999103151MW1001
0050724067999991972021200004+39333-076417SAO  +0007MTN  V0209991C000012200019N0192001N1-00041-00811103181ADDGF100991999999999999999999MA1999999103181MW1001
0050724067999991972021201004+39333-076417SAO  +0007MTN  V0209991C000012200019N0192001N1-00151-00811999999ADDGF100991999999999999999999MA1999999103181MW1001
0050724067999991972021202004+39333-076417SAO  +0007MTN  V0209991C000012200019N0240001N1-00261-00981999999ADDGF100991999999999999999999MA1999999103181MW1001
0050724067999991972021203004+39333-076417SAO  +0007MTN  V0209991C000012200019N0240001N1-00311-00981103161ADDGF100991999999999999999999MA1999999103181MW1001
0050724067999991972021213004+39333-076417SAO  +0007MTN  V0209991C000012200019N0080001N1-00481-00701999999ADDGF107991999999999999999999MA1999999102981MW1051
0050724067999991972021214004+39333-076417SAO  +0007MTN  V0209991C000012200019N0080001N1-00261-00531999999ADDGF102991999999999999999999MA1999999102951MW1051
0050724067999991972021215004+39333-076417SAO  +0007MTN  V0209991C000012200019N0080001N1+00021-00311102961ADDGF102991999999999999999999MA1999999102951MW1051
0050724067999991972021216004+39333-076417SAO  +0007MTN  V0201901N001512200019N0096001N1+00241-00311999999ADDGF107991999999999999999999MA1999999102911MW1051
0050724067999991972021217004+39333-076417SAO  +0007MTN  V0201501N004112200019N0112001N1+00241-00261999999ADDGF107991999999999999999999MA1999999102811MW1001
0050724067999991972021218004+39333-076417SAO  +0007MTN  V0201701N003610750019N0112001N1+00461-00261102671ADDGF108991999999999999999999MA1999999102681MW1001
0050724067999991972021219004+39333-076417SAO  +0007MTN  V0201601N005110750019N0112001N1+00521-00201999999ADDGF107991999999999999999999MA1999999102611MW1001
0050724067999991972021220004+39333-076417SAO  +0007MTN  V0201601N003610240019N0160001N1+00351-00091999999ADDGF107991999999999999999999MA1999999102471MW1001
0050724067999991972021221004+39333-076417SAO  +0007MTN  V0201701N002610240019N0160001N1+00351-00041102401ADDGF108991999999999999999999MA1999999102401MW1001
0050724067999991972021222004+39333-076417SAO  +0007MTN  V0201701N002610210019N0160001N1+00411-00041999999ADDGF107991999999999999999999MA1999999102371MW1001
0056724067999991972021313004+39333-076417SAO  +0007MTN  V0200701N009310009019N0040001N1+00801+00801999999ADDGF108991999999999999999999MA1999999099661MW1451MW2611
0056724067999991972021314004+39333-076417SAO  +0007MTN  V0200801N012910009019N0040001N1+00911+00911999999ADDGF108991999999999999999999MA1999999099291MW1451MW2611
0056724067999991972021315004+39333-076417SAO  +0007MTN  V0200801N012310015019N0040001N1+00961+00961098971ADDGF108991999999999999999999MA1999999098981MW1451MW2611
0069724067999991972021316004+39333-076417SAO  +0007MTN  V0200801N007710024019N0112001N1+01021+01021999999ADDGF108991999999999999999999MA1999999102132MW1611EQDQ01+102133APOSP 
0050724067999991972021317004+39333-076417SAO  +0007MTN  V0201301N005110150019N0160001N1+01021+00851999999ADDGF107991999999999999999999MA1999999102001MW1001
0050724067999991972021318004+39333-076417SAO  +0007MTN  V0201701N007710045019N0160001N1+00851+00741098481ADDGF108991999999999999999999MA1999999101861MW1801
0050724067999991972021319004+39333-076417SAO  +0007MTN  V0201501N006210045019N0160001N1+00801+00631999999ADDGF108991999999999999999999MA1999999101761MW1801
0050724067999991972021320004+39333-076417SAO  +0007MTN  V0201701N003610030019N0112001N1+00691+00581999999ADDGF108991999999999999999999MA1999999101731MW1611
0069724067999991972021321004+39333-076417SAO  +0007MTN  V0202401N007710036019N0112001N1+00581+00461098481ADDGF108991999999999999999999MA1999999098442MW1611EQDQ01+098443APOSP 
0050724067999991972021322004+39333-076417SAO  +0007MTN  V0202501N007710060019N0112001N1+00631+00411999999ADDGF108991999999999999999999MA1999999098711MW1611
0056724067999991972021513004+39333-076417SAO  +0007MTN  V0209991C000012200019N0080001N1+00081-00421999999ADDGF102991999999999999999999MA1999999100781MW1051MW2111
0050724067999991972021514004+39333-076417SAO  +0007MTN  V0209991C000012200019N0096001N1+00351-00261999999ADDGF100991999999999999999999MA1999999100681MW1051
0050724067999991972021515004+39333-076417SAO  +0007MTN  V0202001N003112200019N0112001N1+00741+00131100531ADDGF100991999999999999999999MA1999999100581MW1001
0050724067999991972021516004+39333-076417SAO  +0007MTN  V0201501N003612200019N0160001N1+00741+00081999999ADDGF102991999999999999999999MA1999999100471MW1001
0050724067999991972021517004+39333-076417SAO  +0007MTN  V0201401N003612200019N0160001N1+00911+00021999999ADDGF102991999999999999999999MA1999999100341MW1001
0050724067999991972021518004+39333-076417SAO  +0007MTN  V0201501N002612200019N0160001N1+01021+00081100221ADDGF107991999999999999999999MA1999999100241MW1001
0050724067999991972021519004+39333-076417SAO  +0007MTN  V0201601N002612200019N0160001N1+01351+00191999999ADDGF107991999999999999999999MA1999999100241MW1001
0050724067999991972021520004+39333-076417SAO  +0007MTN  V0201701N002112200019N0160001N1+01461+00351999999ADDGF102991999999999999999999MA1999999100201MW1001
0050724067999991972021521004+39333-076417SAO  +0007MTN  V0202501N005112200019N0160001N1+01741+00191100171ADDGF102991999999999999999999MA1999999100241MW1001
0050724067999991972021522004+39333-076417SAO  +0007MTN  V0202801N008210150019N0160001N1+01461+00241999999ADDGF108991999999999999999999MA1999999100341MW1001
0050724067999991972021523004+39333-076417SAO  +0007MTN  V0202901N006210210019N0160001N1+01301+00131999999ADDGF108991999999999999999999MA1999999100441MW1001
0035724067999991972021600004+39333-076417SAO  +0007MTN  V0202901N005110210019N0160001N1+01071+00241100581ADDGF108991999999999999999999MW1001
0050724067999991972021601004+39333-076417SAO  +0007MTN  V0202901N007710210019N0160001N1+01071-00041999999ADDGF107991999999999999999999MA1999999100751MW1001
0050724067999991972021602004+39333-076417SAO  +0007MTN  V0203001N006212200019N0160001N1+00801+00021999999ADDGF100991999999999999999999MA1999999100811MW1001
0050724067999991972021603004+39333-076417SAO  +0007MTN  V0203001N002612200019N0240001N1+00691+00021100871ADDGF100991999999999999999999MA1999999100911MW1001
0050724067999991972021613004+39333-076417SAO  +0007MTN  V0203001N004112200019N0160001N1+00351-00371999999ADDGF107991999999999999999999MA1999999101631MW1001
0050724067999991972021614004+39333-076417SAO  +0007MTN  V0203101N004612200019N0160001N1+00521-00261999999ADDGF102991999999999999999999MA1999999101731MW1001
0050724067999991972021615004+39333-076417SAO  +0007MTN  V0203301N004112200019N0160001N1+00581-00481101731ADDGF102991999999999999999999MA1999999101761MW1001
0050724067999991972021616004+39333-076417SAO  +0007MTN  V0203101N007212200019N0160001N1+00631-00531999999ADDGF102991999999999999999999MA1999999101791MW1001
0050724067999991972021617004+39333-076417SAO  +0007MTN  V0203101N004612200019N0240001N1+00741-00531999999ADDGF102991999999999999999999MA1999999101791MW1001
0050724067999991972021618004+39333-076417SAO  +0007MTN  V0203201N005112200019N0240001N1+00741-00531101631ADDGF102991999999999999999999MA1999999101631MW1001
0050724067999991972021619004+39333-076417SAO  +0007MTN  V0203201N004612200019N0240001N1+00741-00651999999ADDGF102991999999999999999999MA1999999101691MW1001
0050724067999991972021620004+39333-076417SAO  +0007MTN  V0203101N003612200019N0240001N1+00691-00701999999ADDGF102991999999999999999999MA1999999101631MW1001
0050724067999991972021621004+39333-076417SAO  +0007MTN  V0203301N005112200019N0240001N1+00691-00311101581ADDGF107991999999999999999999MA1999999101591MW1001
0050724067999991972021622004+39333-076417SAO  +0007MTN  V0203401N004112200019N0240001N1+00631-00651999999ADDGF107991999999999999999999MA1999999101731MW1001
0050724067999991972021623004+39333-076417SAO  +0007MTN  V0203301N001512200019N0240001N1+00521-00651999999ADDGF107991999999999999999999MA1999999101761MW1001
0050724067999991972021700004+39333-076417SAO  +0007MTN  V0209991C000012200019N0240001N1+00411-00531101841ADDGF107991999999999999999999MA1999999101901MW1001
0050724067999991972021701004+39333-076417SAO  +0007MTN  V0209991C000012200019N0240001N1+00191-00591999999ADDGF102991999999999999999999MA1999999101861MW1001
0050724067999991972021702004+39333-076417SAO  +0007MTN  V0209991C000012200019N0240001N1+00191-00651999999ADDGF107991999999999999999999MA1999999101861MW1001
0050724067999991972021703004+39333-076417SAO  +0007MTN  V0200501N002612200019N0240001N1+00021-00651101821ADDGF108991999999999999999999MA1999999101861MW1001
0050724067999991972021713004+39333-076417SAO  +0007MTN  V0200501N004110240019N0160001N1+00081-00651999999ADDGF108991999999999999999999MA1999999101561MW1001
0050724067999991972021714004+39333-076417SAO  +0007MTN  V0200501N004110210019N0112001N1+00081-00591999999ADDGF108991999999999999999999MA1999999101591MW1001
0050724067999991972021715004+39333-076417SAO  +0007MTN  V0200601N004610210019N0112001N1+00021-00591101531ADDGF108991999999999999999999MA1999999101561MW1001
0050724067999991972021716004+39333-076417SAO  +0007MTN  V0200601N006210150019N0096001N1+00131-00371999999ADDGF108991999999999999999999MA1999999101461MW1051
0050724067999991972021717004+39333-076417SAO  +0007MTN  V0200501N006710150019N0096001N1+00191-00261999999ADDGF108991999999999999999999MA1999999101421MW1051
0050724067999991972021718004+39333-076417SAO  +0007MTN  V0200501N004110060019N0016001N1+00131-00091101331ADDGF108991999999999999999999MA1999999101391MW1711
0050724067999991972021719004+39333-076417SAO  +0007MTN  V0200201N004110015019N0008001N1+00081-00041999999ADDGF108991999999999999999999MA1999999101291MW1731
0050724067999991972021720004+39333-076417SAO  +0007MTN  V0200201N005110006019N0006001N1-00091+99999999999ADDGF108991999999999999999999MA1999999101321MW1731
0050724067999991972021721004+39333-076417SAO  +0007MTN  V0200101N005110006019N0006001N1-00091+99999101351ADDGF108991999999999999999999MA1999999101391MW1731
0056724067999991972021722004+39333-076417SAO  +0007MTN  V0200201N003110018019N0012001N1-00091-00091999999ADDGF108991999999999999999999MA1999999101391MW1451MW2711
0050724067999991972021723004+39333-076417SAO  +0007MTN  V0200301N003110240019N0032001N1-00091-00091999999ADDGF107991999999999999999999MA1999999101391MW1451
0050724067999991972021800004+39333-076417SAO  +0007MTN  V0200301N003110150019N0080001N1-00091-00201101381ADDGF107991999999999999999999MA1999999101421MW1051
0050724067999991972021801004+39333-076417SAO  +0007MTN  V0200301N002610150019N0080001N1-00091-00201999999ADDGF108991999999999999999999MA1999999101521MW1051
0050724067999991972021802004+39333-076417SAO  +0007MTN  V0200301N004110150019N0112001N1-00041-00201999999ADDGF108991999999999999999999MA1999999101521MW1001
0050724067999991972021803004+39333-076417SAO  +0007MTN  V0200801N002110150019N0112001N1+00021-00201101501ADDGF108991999999999999999999MA1999999101561MW1001
0056724067999991972021813004+39333-076417SAO  +0007MTN  V0200601N003110015019N0048001N1+00131-00041999999ADDGF108991999999999999999999MA1999999101731MW1051MW2451
0056724067999991972021814004+39333-076417SAO  +0007MTN  V0200901N004110027019N0048001N1+00131-00041999999ADDGF108991999999999999999999MA1999999101691MW1051MW2451
0056724067999991972021816004+39333-076417SAO  +0007MTN  V0200901N003110018019N0064001N1+00191-00041999999ADDGF108991999999999999999999MA1999999101631MW1051MW2111
0068724067999991972021817004+39333-076417SAO  +0007MTN  V0200901N003610024019N0048001N1+00191+00081999999ADDGF108991999999999999999999MA1999999101561MW1051MW2111MW3611MW4711
0062724067999991972021818004+39333-076417SAO  +0007MTN  V0200701N003110021019N0048001N1+00241+00191101431ADDGF108991999999999999999999MA1999999101461MW1051MW2111MW3611
0068724067999991972021819004+39333-076417SAO  +0007MTN  V0200701N003610015019N0048001N1+00241+00191999999ADDGF108991999999999999999999MA1999999101321MW1051MW2111MW3611MW4711
0050724067999991972021820004+39333-076417SAO  +0007MTN  V0200801N005110015019N0112001N1+00301+00241999999ADDGF108991999999999999999999MA1999999101251MW1001
0050724067999991972021821004+39333-076417SAO  +0007MTN  V0200801N003610021019N0112001N1+00411+00301101161ADDGF108991999999999999999999MA1999999101151MW1001
0050724067999991972021822004+39333-076417SAO  +0007MTN  V0200801N005110030019N0112001N1+00411+00301999999ADDGF108991999999999999999999MA1999999101121MW1611
0050724067999991972021823004+39333-076417SAO  +0007MTN  V0200801N006210021019N0112001N1+00411+00301999999ADDGF108991999999999999999999MA1999999101021MW1611
0050724067999991972021900004+39333-076417SAO  +0007MTN  V0200801N004110021019N0112001N1+00461+00351100941ADDGF108991999999999999999999MA1999999100951MW1611
0050724067999991972021901004+39333-076417SAO  +0007MTN  V0201001N006210021019N0112001N1+00461+00411999999ADDGF108991999999999999999999MA1999999100781MW1001
0056724067999991972021902004+39333-076417SAO  +0007MTN  V0200901N007710021019N0064001N1+00461+00351999999ADDGF108991999999999999999999MA1999999100641MW1611MW2711
0056724067999991972021903004+39333-076417SAO  +0007MTN  V0200701N008210021019N0048001N1+00411+00351100481ADDGF108991999999999999999999MA1999999100471MW1451MW2611
0050724067999991972021913004+39333-076417SAO  +0007MTN  V0203401N004110015019N0010001N1+00021+99999999999ADDGF108991999999999999999999MA1999999098651MW1711
0056724067999991972021914004+39333-076417SAO  +0007MTN  V0203201N005710006019N0008001N1+00081-00041999999ADDGF108991999999999999999999MA1999999098541MW1451MW2731
0050724067999991972021915004+39333-076417SAO  +0007MTN  V0203201N005110003019N0004001N1+00081-00091098371ADDGF108991999999999999999999MA1999999098411MW1751
0056724067999991972021917004+39333-076417SAO  +0007MTN  V0203201N007210021019N0020001N1+00081-00091999999ADDGF108991999999999999999999MA1999999098371MW1451MW2711
0056724067999991972021918004+39333-076417SAO  +0007MTN  V0203301N007710021019N0048001N1+00191-00041098341ADDGF108991999999999999999999MA1999999098411MW1451MW2711
0056724067999991972021919004+39333-076417SAO  +0007MTN  V0203301N007210021019N0032001N1+00191+00021999999ADDGF108991999999999999999999MA1999999098441MW1451MW2711
0056724067999991972021920004+39333-076417SAO  +0007MTN  V0203201N007210015019N0012001N1+00131-00041999999ADDGF108991999999999999999999MA1999999098581MW1451MW2711
0056724067999991972021921004+39333-076417SAO  +0007MTN  V0203401N005710015019N0012001N1+00021-00201098651ADDGF108991999999999999999999MA1999999098711MW1451MW2711
0056724067999991972021922004+39333-076417SAO  +0007MTN  V0203201N006210015019N0012001N1+00021-00151999999ADDGF108991999999999999999999MA1999999098811MW1451MW2711
0050724067999991972022013004+39333-076417SAO  +0007MTN  V0203001N007212200019N0240001N1-00421-01421999999ADDGF107991999999999999999999MA1999999100681MW1001
0050724067999991972022014004+39333-076417SAO  +0007MTN  V0203001N008712200019N0240001N1-00311-01261999999ADDGF102991999999999999999999MA1999999100911MW1001
0050724067999991972022015004+39333-076417SAO  +0007MTN  V0203101N009312200019N0240001N1-00261-01261100921ADDGF100991999999999999999999MA1999999100951MW1001
0050724067999991972022016004+39333-076417SAO  +0007MTN  V0203201N011312200019N0240001N1-00371-01261999999ADDGF100991999999999999999999MA1999999101051MW1001
0050724067999991972022017004+39333-076417SAO  +0007MTN  V0203101N009812200019N0240001N1-00311-01201999999ADDGF100991999999999999999999MA1999999101151MW1001
0050724067999991972022018004+39333-076417SAO  +0007MTN  V0203201N009312200019N0240001N1-00201-01201101211ADDGF100991999999999999999999MA1999999101251MW1001
0050724067999991972022019004+39333-076417SAO  +0007MTN  V0203001N010312200019N0240001N1-00151-01151999999ADDGF100991999999999999999999MA1999999101321MW1001
0050724067999991972022020004+39333-076417SAO  +0007MTN  V0203301N010312200019N0240001N1-00091-01201999999ADDGF100991999999999999999999MA1999999101461MW1001
0050724067999991972022021004+39333-076417SAO  +0007MTN  V0203201N007712200019N0400001N1-00151-01311101531ADDGF100991999999999999999999MA1999999101561MW1001
0050724067999991972022022004+39333-076417SAO  +0007MTN  V0203301N005112200019N0400001N1-00201-01371999999ADDGF100991999999999999999999MA1999999101691MW1001
0050724067999991972022213004+39333-076417SAO  +0007MTN  V0203101N011812200019N0240001N1+00351-00261999999ADDGF102991999999999999999999MA1999999101931MW1001
0050724067999991972022214004+39333-076417SAO  +0007MTN  V0203201N012912200019N0240001N1+00301-00761999999ADDGF102991999999999999999999MA1999999102201MW1001
0050724067999991972022215004+39333-076417SAO  +0007MTN  V0203201N009312200019N0240001N1+00301-00921102311ADDGF102991999999999999999999MA1999999102371MW1001
0050724067999991972022216004+39333-076417SAO  +0007MTN  V0203401N008212200019N0240001N1+00131-00981999999ADDGF102991999999999999999999MA1999999102471MW1001
0050724067999991972022217004+39333-076417SAO  +0007MTN  V0203301N008212200019N0240001N1+00131-00871999999ADDGF100991999999999999999999MA1999999102641MW1001
0050724067999991972022218004+39333-076417SAO  +0007MTN  V0203301N010312200019N0240001N1+00191-00701102671ADDGF100991999999999999999999MA1999999102681MW1001
0050724067999991972022219004+39333-076417SAO  +0007MTN  V0203101N009312200019N0240001N1+00191-00871999999ADDGF100991999999999999999999MA1999999102741MW1001
0050724067999991972022220004+39333-076417SAO  +0007MTN  V0203401N005112200019N0240001N1+00301-00871999999ADDGF100991999999999999999999MA1999999102811MW1001
0035724067999991972022221004+39333-076417SAO  +0007MTN  V0203201N005112200019N0400001N1+00081-00981102871ADDGF100991999999999999999999MW1001
0050724067999991972022222004+39333-076417SAO  +0007MTN  V0203301N005112200019N0400001N1+00021-01031999999ADDGF100991999999999999999999MA1999999102981MW1001
0050724067999991972022223004+39333-076417SAO  +0007MTN  V0203401N004112200019N0400001N1-00091-01151999999ADDGF100991999999999999999999MA1999999103121MW1001
0050724067999991972022300004+39333-076417SAO  +0007MTN  V0203201N004112200019N0400001N1-00151-01371103201ADDGF100991999999999999999999MA1999999103221MW1001
0050724067999991972022301004+39333-076417SAO  +0007MTN  V0203401N004612200019N0400001N1-00261-01481999999ADDGF100991999999999999999999MA1999999103321MW1001
0050724067999991972022302004+39333-076417SAO  +0007MTN  V0203401N004112200019N0400001N1-00371-01591999999ADDGF100991999999999999999999MA1999999103491MW1001
0050724067999991972022303004+39333-076417SAO  +0007MTN  V0203301N002612200019N0400001N1-00481-01761103501ADDGF100991999999999999999999MA1999999103521MW1001
0050724067999991972022313004+39333-076417SAO  +0007MTN  V0200601N002612200019N0240001N1-00701-01591999999ADDGF107991999999999999999999MA1999999103761MW1001
0050724067999991972022314004+39333-076417SAO  +0007MTN  V0200701N002612200019N0240001N1-00651-01261999999ADDGF108991999999999999999999MA1999999103831MW1001
0050724067999991972022315004+39333-076417SAO  +0007MTN  V0200801N004112200019N0160001N1-00531-01201103721ADDGF108991999999999999999999MA1999999103731MW1001
0050724067999991972022317004+39333-076417SAO  +0007MTN  V0201401N003110750019N0160001N1-00371-01031999999ADDGF108991999999999999999999MA1999999103521MW1001
0050724067999991972022318004+39333-076417SAO  +0007MTN  V0201401N003610750019N0160001N1-00311-01031103311ADDGF108991999999999999999999MA1999999103321MW1001
0050724067999991972022319004+39333-076417SAO  +0007MTN  V0201401N004110360019N0160001N1-00311-00921999999ADDGF108991999999999999999999MA1999999103121MW1001
0050724067999991972022320004+39333-076417SAO  +0007MTN  V0201401N003110360019N0160001N1-00311-00921999999ADDGF108991999999999999999999MA1999999102881MW1001
0050724067999991972022321004+39333-076417SAO  +0007MTN  V0201301N003610240019N0160001N1-00201-00871102771ADDGF108991999999999999999999MA1999999102811MW1001
0050724067999991972022322004+39333-076417SAO  +0007MTN  V0201201N004110240019N0160001N1-00481-00921999999ADDGF108991999999999999999999MA1999999102611MW1001
0050724067999991972022323004+39333-076417SAO  +0007MTN  V0201201N004610006019N0008001N1-00371-00651999999ADDGF108991999999999999999999MA1999999102471MW1731
0050724067999991972022400004+39333-076417SAO  +0007MTN  V0201501N006210006019N0008001N1-00421-00651102331ADDGF108991999999999999999999MA1999999102371MW1731
0050724067999991972022401004+39333-076417SAO  +0007MTN  V0201401N005110006019N0012001N1-00371-00531999999ADDGF108991999999999999999999MA1999999102241MW1711
0050724067999991972022402004+39333-076417SAO  +0007MTN  V0201701N003610015019N0016001N1-00311-00421999999ADDGF108991999999999999999999MA1999999102031MW1711
0062724067999991972022403004+39333-076417SAO  +0007MTN  V0201201N004110045019N0064001N1-00151-00311101761ADDGF108991999999999999999999MA1999999101761MW1451MW2661MW3711
0056724067999991972022413004+39333-076417SAO  +0007MTN  V0203201N002610048019N0032001N1+00131+00131999999ADDGF108991999999999999999999MA1999999101121MW1051MW2451
0056724067999991972022414004+39333-076417SAO  +0007MTN  V0202201N001510054019N0040001N1+00241+00131999999ADDGF108991999999999999999999MA1999999101151MW1051MW2451
0056724067999991972022415004+39333-076417SAO  +0007MTN  V0202001N001510054019N0040001N1+00351+00191101111ADDGF108991999999999999999999MA1999999101151MW1051MW2451
0056724067999991972022416004+39333-076417SAO  +0007MTN  V0201501N002110054019N0040001N1+00351+00131999999ADDGF108991999999999999999999MA1999999101121MW1051MW2451
0050724067999991972022417004+39333-076417SAO  +0007MTN  V0201301N002110240019N0048001N1+00301+00131999999ADDGF108991999999999999999999MA1999999101151MW1051
0050724067999991972022419004+39333-076417SAO  +0007MTN  V0200501N004110090019N0064001N1+00461+00241999999ADDGF108991999999999999999999MA1999999101051MW1051
0050724067999991972022420004+39333-076417SAO  +0007MTN  V0201101N002610240019N0048001N1+00521+00301999999ADDGF108991999999999999999999MA1999999101021MW1051
0050724067999991972022421004+39333-076417SAO  +0007MTN  V0201001N002610240019N0048001N1+00461+00191101001ADDGF108991999999999999999999MA1999999101051MW1051
0050724067999991972022422004+39333-076417SAO  +0007MTN  V0200601N002110210019N0048001N1+00411+00131999999ADDGF108991999999999999999999MA1999999101051MW1051
0050724067999991972022423004+39333-076417SAO  +0007MTN  V0200701N001510210019N0048001N1+00351+00131999999ADDGF108991999999999999999999MA1999999101151MW1051
0056724067999991972022501004+39333-076417SAO  +0007MTN  V0209991C000010210019N0080001N1+00191-00151999999ADDGF108991999999999999999999MA1999999101191MW1051MW2611
0062724067999991972022502004+39333-076417SAO  +0007MTN  V0209991C000010090019N0032001N1+00191-00041999999ADDGF108991999999999999999999MA1999999101291MW1051MW2111MW3611
0062724067999991972022503004+39333-076417SAO  +0007MTN  V0209991C000010090019N0032001N1+00191+00021101231ADDGF108991999999999999999999MA1999999101251MW1051MW2111MW3611
0030724067999991972022513004+39333-076417SAO  +0007MTN  V0200101N002112200019N0048001N1+00191+99999999999ADDMA1999999101901MW1051MW2111
0050724067999991972022514004+39333-076417SAO  +0007MTN  V0200201N001512200019N0080001N1+00461+00191999999ADDGF102991999999999999999999MA1999999101901MW1051
0050724067999991972022515004+39333-076417SAO  +0007MTN  V0201701N001012200019N0112001N1+00691+00351101921ADDGF100991999999999999999999MA1999999101931MW1001
0050724067999991972022516004+39333-076417SAO  +0007MTN  V0201401N002112200019N0112001N1+00851+00301999999ADDGF102991999999999999999999MA1999999102001MW1001
0050724067999991972022517004+39333-076417SAO  +0007MTN  V0200201N002612200019N0112001N1+00851+00081999999ADDGF102991999999999999999999MA1999999101931MW1001
0050724067999991972022518004+39333-076417SAO  +0007MTN  V0201201N001512200019N0112001N1+00961+00131101941ADDGF102991999999999999999999MA1999999101931MW1001
0050724067999991972022519004+39333-076417SAO  +0007MTN  V0201301N004112200019N0112001N1+00961+00191999999ADDGF102991999999999999999999MA1999999101901MW1001
0050724067999991972022520004+39333-076417SAO  +0007MTN  V0201301N003612200019N0112001N1+01071+00351999999ADDGF102991999999999999999999MA1999999101901MW1001
0050724067999991972022521004+39333-076417SAO  +0007MTN  V0201101N004112200019N0112001N1+00911+00241101901ADDGF102991999999999999999999MA1999999101931MW1001
0050724067999991972022522004+39333-076417SAO  +0007MTN  V0200901N004610120019N0096001N1+00801+00241999999ADDGF107991999999999999999999MA1999999101931MW1051
0050724067999991972022523004+39333-076417SAO  +0007MTN  V0201101N003610120019N0096001N1+00741+00191999999ADDGF108991999999999999999999MA1999999101931MW1051
0050724067999991972022600004+39333-076417SAO  +0007MTN  V0200901N003110120019N0112001N1+00631+00131101901ADDGF108991999999999999999999MA1999999101931MW1001
0050724067999991972022601004+39333-076417SAO  +0007MTN  V0201301N003610120019N0112001N1+00631+00081999999ADDGF108991999999999999999999MA1999999101901MW1001
0050724067999991972022602004+39333-076417SAO  +0007MTN  V0201401N003110105019N0112001N1+00581+00081999999ADDGF108991999999999999999999MA1999999101901MW1001
0050724067999991972022603004+39333-076417SAO  +0007MTN  V0201401N002610105019N0112001N1+00521+00131101871ADDGF108991999999999999999999MA1999999101901MW1001
0050724067999991972022613004+39333-076417SAO  +0007MTN  V0200401N001510003019N0004001N1+00411+99999999999ADDGF108991999999999999999999MA1999999100911MW1451
0056724067999991972022914004+39333-076417SAO  +0007MTN  V0202101N001512200019N0064001N1+00741+00191999999ADDGF108991999999999999999999MA1999999101321MW1051MW2111
0050724067999991972022915004+39333-076417SAO  +0007MTN  V0202601N002110750019N0080001N1+01301+00411101331ADDGF107991999999999999999999MA1999999101391MW1051
0050724067999991972022916004+39333-076417SAO  +0007MTN  V0202101N002110750019N0080001N1+01571+00521999999ADDGF107991999999999999999999MA1999999101391MW1051
0050724067999991972022917004+39333-076417SAO  +0007MTN  V0202601N002110300019N0080001N1+01741+00581999999ADDGF108991999999999999999999MA1999999101421MW1051
0050724067999991972022918004+39333-076417SAO  +0007MTN  V0202001N002110300019N0080001N1+01911+00631101361ADDGF108991999999999999999999MA1999999101391MW1051
0050724067999991972022919004+39333-076417SAO  +0007MTN  V0202101N001510300019N0080001N1+01911+00631999999ADDGF108991999999999999999999MA1999999101321MW1051
0050724067999991972022920004+39333-076417SAO  +0007MTN  V0201601N002110300019N0112001N1+01631+00581999999ADDGF108991999999999999999999MA1999999101321MW1001
0050724067999991972022922004+39333-076417SAO  +0007MTN  V0201301N001512200019N0112001N1+01521+00691999999ADDGF102991999999999999999999MA1999999101391MW1001
0056724067999991972030113004+39333-076417SAO  +0007MTN  V0200301N002112200019N0080001N1+00521+00301999999ADDGF102991999999999999999999MA1999999101521MW1051MW2111
0050724067999991972030114004+39333-076417SAO  +0007MTN  V0201401N001512200019N0080001N1+00911+00521999999ADDGF107991999999999999999999MA1999999101521MW1051
0050724067999991972030115004+39333-076417SAO  +0007MTN  V0201701N001512200019N0096001N1+01411+00631101491ADDGF108991999999999999999999MA1999999101521MW1051
0050724067999991972030116004+39333-076417SAO  +0007MTN  V0201601N003612200019N0096001N1+01571+00691999999ADDGF108991999999999999999999MA1999999101521MW1051
0050724067999991972030117004+39333-076417SAO  +0007MTN  V0201401N004112200019N0112001N1+01631+00851999999ADDGF108991999999999999999999MA1999999101421MW1001
0050724067999991972030118004+39333-076417SAO  +0007MTN  V0201801N003612200019N0112001N1+01801+00961101291ADDGF107991999999999999999999MA1999999101291MW1001
0050724067999991972030119004+39333-076417SAO  +0007MTN  V0201501N003612200019N0112001N1+01851+01021999999ADDGF107991999999999999999999MA1999999101151MW1001
0050724067999991972030120004+39333-076417SAO  +0007MTN  V0201601N004112200019N0112001N1+02071+01021999999ADDGF108991999999999999999999MA1999999101121MW1001
0050724067999991972030121004+39333-076417SAO  +0007MTN  V0201701N004112200019N0112001N1+02131+00961101041ADDGF108991999999999999999999MA1999999101051MW1001
0050724067999991972030122004+39333-076417SAO  +0007MTN  V0201701N006210750019N0112001N1+01851+01021999999ADDGF108991999999999999999999MA1999999101051MW1001
0050724067999991972030123004+39333-076417SAO  +0007MTN  V0201701N005110750019N0112001N1+01741+00741999999ADDGF108991999999999999999999MA1999999101051MW1001
0050724067999991972030200004+39333-076417SAO  +0007MTN  V0201701N005112200019N0112001N1+01801+00741101061ADDGF107991999999999999999999MA1999999101051MW1001
0050724067999991972030203004+39333-076417SAO  +0007MTN  V0201601N004110750019N0112001N1+01411+00801101011ADDGF108991999999999999999999MA1999999101051MW1001
0050724067999991972030213004+39333-076417SAO  +0007MTN  V0201501N001010750019N0080001N1+01241+01071999999ADDGF108991999999999999999999MA1999999101051MW1051
0050724067999991972030214004+39333-076417SAO  +0007MTN  V0201801N003110075019N0080001N1+01521+01241999999ADDGF108991999999999999999999MA1999999101051MW1051
0050724067999991972030215004+39333-076417SAO  +0007MTN  V0201801N003110750019N0112001N1+01631+01351100981ADDGF108991999999999999999999MA1999999101021MW1001
0050724067999991972030216004+39333-076417SAO  +0007MTN  V0201801N006710750019N0112001N1+01741+01301999999ADDGF108991999999999999999999MA1999999100951MW1001
0050724067999991972030217004+39333-076417SAO  +0007MTN  V0201801N004110180019N0112001N1+01741+01301999999ADDGF107991999999999999999999MA1999999100881MW1001
0050724067999991972030218004+39333-076417SAO  +0007MTN  V0201701N005110180019N0112001N1+02021+01301100771ADDGF107991999999999999999999MA1999999100781MW1001
0050724067999991972030219004+39333-076417SAO  +0007MTN  V0201901N004612200019N0160001N1+02021+01351999999ADDGF107991999999999999999999MA1999999100781MW1001
0050724067999991972030220004+39333-076417SAO  +0007MTN  V0201701N008212200019N0160001N1+02131+01351999999ADDGF102991999999999999999999MA1999999100681MW1001
0050724067999991972030221004+39333-076417SAO  +0007MTN  V0201701N006712200019N0160001N1+02021+01301100621ADDGF102991999999999999999999MA1999999100681MW1001
0050724067999991972030222004+39333-076417SAO  +0007MTN  V0201701N005110750019N0160001N1+01961+01351999999ADDGF107991999999999999999999MA1999999100581MW1001
0050724067999991972030223004+39333-076417SAO  +0007MTN  V0201801N006210180019N0112001N1+01851+01191999999ADDGF108991999999999999999999MA1999999100641MW1001
0050724067999991972030300004+39333-076417SAO  +0007MTN  V0201701N006212200019N0112001N1+01801+01351100591ADDGF108991999999999999999999MA1999999100581MW1001
0050724067999991972030301004+39333-076417SAO  +0007MTN  V0201701N006712200019N0112001N1+01631+01241999999ADDGF102991999999999999999999MA1999999100581MW1001
0050724067999991972030302004+39333-076417SAO  +0007MTN  V0201801N005112200019N0160001N1+01521+01351999999ADDGF102991999999999999999999MA1999999100581MW1001
0035724067999991972030303004+39333-076417SAO  +0007MTN  V0201801N005710750019N0160001N1+01521+01411100441ADDGF107991999999999999999999MW1001
0050724067999991972030313004+39333-076417SAO  +0007MTN  V0202301N004110084019N0112001N1+00521+00411999999ADDGF108991999999999999999999MA1999999100581MW1001
0050724067999991972030314004+39333-076417SAO  +0007MTN  V0203301N007210045019N0112001N1+00191+00081999999ADDGF108991999999999999999999MA1999999100681MW1611
0050724067999991972030315004+39333-076417SAO  +0007MTN  V0203301N004110045019N0112001N1+00191+00131100631ADDGF108991999999999999999999MA1999999100681MW1001
0050724067999991972030316004+39333-076417SAO  +0007MTN  V0203401N005110075019N0112001N1+00241+00131999999ADDGF108991999999999999999999MA1999999100681MW1001
0056724067999991972030317004+39333-076417SAO  +0007MTN  V0203501N005110075019N0048001N1+00081+00021999999ADDGF108991999999999999999999MA1999999100781MW1611MW2791
0050724067999991972030318004+39333-076417SAO  +0007MTN  V0203401N007210045019N0080001N1+00021-00041100721ADDGF108991999999999999999999MA1999999100751MW1611
0050724067999991972030319004+39333-076417SAO  +0007MTN  V0203301N005110045019N0112001N1-00091-00151999999ADDGF108991999999999999999999MA1999999100911MW1001
0050724067999991972030320004+39333-076417SAO  +0007MTN  V0203401N005710084019N0112001N1-00091-00201999999ADDGF108991999999999999999999MA1999999100951MW1001
0050724067999991972030321004+39333-076417SAO  +0007MTN  V0203601N006210180019N0112001N1-00041+99999101051ADDGF108991999999999999999999MA1999999101051MW1001
0050724067999991972030322004+39333-076417SAO  +0007MTN  V0203601N008210180019N0112001N1-00091-00261999999ADDGF108991999999999999999999MA1999999101191MW1001
0050724067999991972030323004+39333-076417SAO  +0007MTN  V0203501N008210450019N0112001N1-00091-00371999999ADDGF108991999999999999999999MA1999999101291MW1001
0050724067999991972030400004+39333-076417SAO  +0007MTN  V0203601N006210180019N0112001N1-00151-00421101441ADDGF108991999999999999999999MA1999999101461MW1001
0050724067999991972030401004+39333-076417SAO  +0007MTN  V0203601N005110450019N0112001N1-00151-00371999999ADDGF108991999999999999999999MA1999999101731MW1001
0050724067999991972030402004+39333-076417SAO  +0007MTN  V0203301N004612200019N0112001N1-00151-00371999999ADDGF102991999999999999999999MA1999999101691MW1001
0050724067999991972030403004+39333-076417SAO  +0007MTN  V0203301N007212200019N0112001N1-00201-00311101741ADDGF100991999999999999999999MA1999999101761MW1001
0050724067999991972030413004+39333-076417SAO  +0007MTN  V0200301N004112200019N0400001N1-00531-00981999999ADDGF100991999999999999999999MA1999999102241MW1001
0050724067999991972030414004+39333-076417SAO  +0007MTN  V0200501N003112200019N0400001N1-00371-00921999999ADDGF102991999999999999999999MA1999999102241MW1001
0050724067999991972030415004+39333-076417SAO  +0007MTN  V0200501N002612200019N0400001N1-00261-00701102261ADDGF108991999999999999999999MA1999999102271MW1001
0050724067999991972030416004+39333-076417SAO  +0007MTN  V0201401N002610420019N0160001N1-00201-00651999999ADDGF108991999999999999999999MA1999999102241MW1001
0050724067999991972030417004+39333-076417SAO  +0007MTN  V0201401N003110660019N0160001N1-00311-00871999999ADDGF108991999999999999999999MA1999999102241MW1001
0050724067999991972030418004+39333-076417SAO  +0007MTN  V0201801N002110330019N0160001N1-00041-00701102121ADDGF108991999999999999999999MA1999999102131MW1001
0050724067999991972030419004+39333-076417SAO  +0007MTN  V0201501N002610660019N0160001N1-00091-00701999999ADDGF108991999999999999999999MA1999999102031MW1001
0050724067999991972030420004+39333-076417SAO  +0007MTN  V0201301N003112200019N0160001N1+00021-00701999999ADDGF107991999999999999999999MA1999999102031MW1001
0050724067999991972030421004+39333-076417SAO  +0007MTN  V0201301N004112200019N0160001N1+00131-00651101931ADDGF107991999999999999999999MA1999999101931MW1001
0050724067999991972030422004+39333-076417SAO  +0007MTN  V0201701N003112200019N0160001N1+00021-00651999999ADDGF107991999999999999999999MA1999999101931MW1001
0069724067999991972030423004+39333-076417SAO  +0007MTN  V0200901N002612200019N0128001N1+00411-00591999999ADDGF100991999999999999999999MA1999999103592MW1001EQDQ01+103593APOSP 
0056724067999991972030513004+39333-076417SAO  +0007MTN  V0203201N001010021019N0024001N1+00191+00081999999ADDGF108991999999999999999999MA1999999101151MW1051MW2111
0056724067999991972030514004+39333-076417SAO  +0007MTN  V0203201N003110090019N0048001N1+00301+00131999999ADDGF108991999999999999999999MA1999999101151MW1051MW2111
0056724067999991972030515004+39333-076417SAO  +0007MTN  V0202501N001510060019N0064001N1+00351+00191101111ADDGF108991999999999999999999MA1999999101151MW1051MW2111
0050724067999991972030516004+39333-076417SAO  +0007MTN  V0202601N003110060019N0080001N1+00461+00021999999ADDGF108991999999999999999999MA1999999101121MW1051
0050724067999991972030517004+39333-076417SAO  +0007MTN  V0202701N005110660019N0112001N1+00581+00021999999ADDGF108991999999999999999999MA1999999101121MW1001
0050724067999991972030518004+39333-076417SAO  +0007MTN  V0203101N009312200019N0112001N1+00741-00311101021ADDGF107991999999999999999999MA1999999101051MW1001
0050724067999991972030519004+39333-076417SAO  +0007MTN  V0202901N007712200019N0192001N1+00801-00481999999ADDGF102991999999999999999999MA1999999101021MW1001
0050724067999991972030520004+39333-076417SAO  +0007MTN  V0202901N008212200019N0240001N1+00691-00371999999ADDGF102991999999999999999999MA1999999101051MW1001
0050724067999991972030521004+39333-076417SAO  +0007MTN  V0202701N008212200019N0240001N1+00691-00311101071ADDGF102991999999999999999999MA1999999101121MW1001
0050724067999991972030522004+39333-076417SAO  +0007MTN  V0202701N008212200019N0240001N1+00521-00261999999ADDGF102991999999999999999999MA1999999101251MW1001
0050724067999991972030713004+39333-076417SAO  +0007MTN  V0201701N002610300019N0160001N1+00521-00041999999ADDGF108991999999999999999999MA1999999102031MW1001
0050724067999991972030714004+39333-076417SAO  +0007MTN  V0201901N005110300019N0160001N1+00801-00261999999ADDGF108991999999999999999999MA1999999102001MW1001
0050724067999991972030715004+39333-076417SAO  +0007MTN  V0201901N005710900019N0160001N1+01071+00461100871ADDGF107991999999999999999999MA1999999101901MW1001
0050724067999991972030716004+39333-076417SAO  +0007MTN  V0201901N006212200019N0160001N1+01241-00311999999ADDGF102991999999999999999999MA1999999101761MW1001
0050724067999991972030717004+39333-076417SAO  +0007MTN  V0202101N006212200019N0112001N1+01461-00311999999ADDGF102991999999999999999999MA1999999101731MW1001
0069724067999991972030718004+39333-076417SAO  +0007MTN  V0202201N007710300019N0112001N1+01521-00201101542ADDGF108991999999999999999999MA1999999101561MW1001EQDQ01+101543APOSLP
0050724067999991972030719004+39333-076417SAO  +0007MTN  V0202001N006210240019N0112001N1+01571-00311999999ADDGF107991999999999999999999MA1999999101461MW1001
0050724067999991972030721004+39333-076417SAO  +0007MTN  V0201501N006212200019N0240001N1+01571-00091101211ADDGF102991999999999999999999MA1999999101251MW1001
0050724067999991972030722004+39333-076417SAO  +0007MTN  V0201701N007212200019N0240001N1+01411+00021999999ADDGF102991999999999999999999MA1999999101251MW1001
0050724067999991972030723004+39333-076417SAO  +0007MTN  V0201701N006712200019N0240001N1+01241+00081999999ADDGF102991999999999999999999MA1999999101251MW1001
0050724067999991972030800004+39333-076417SAO  +0007MTN  V0201601N004112200019N0240001N1+01071+00191101211ADDGF100991999999999999999999MA1999999101251MW1001
0050724067999991972030801004+39333-076417SAO  +0007MTN  V0201601N004612200019N0240001N1+00961+00191999999ADDGF100991999999999999999999MA1999999101251MW1001
0050724067999991972030802004+39333-076417SAO  +0007MTN  V0201501N005112200019N0240001N1+00961+00241999999ADDGF100991999999999999999999MA1999999101251MW1001
0050724067999991972030803004+39333-076417SAO  +0007MTN  V0201601N004612200019N0240001N1+01071+00131101181ADDGF100991999999999999999999MA1999999101191MW1001
0050724067999991972030813004+39333-076417SAO  +0007MTN  V0202001N007710240019N0112001N1+01411+00801999999ADDGF108991999999999999999999MA1999999100911MW1001
0050724067999991972030814004+39333-076417SAO  +0007MTN  V0203201N008210120019N0160001N1+00911+00021999999ADDGF108991999999999999999999MA1999999101151MW1001
0050724067999991972030815004+39333-076417SAO  +0007MTN  V0203001N007710120019N0160001N1+00851-00311101151ADDGF108991999999999999999999MA1999999101151MW1001
0050724067999991972030816004+39333-076417SAO  +0007MTN  V0203201N009310120019N0160001N1+00801-00091999999ADDGF108991999999999999999999MA1999999101151MW1001
0050724067999991972030817004+39333-076417SAO  +0007MTN  V0203201N009310135019N0160001N1+00741-00371999999ADDGF107991999999999999999999MA1999999101151MW1001
