0081724088137071972010100004+39133-075467SAO  +0009KDOV V0200101N002110270019N0112001N9+00111-00561102321ADDGF108991999999999999999999MA1102301102201MD1210301+9999MW1001REMAWY008230 107/
0050724088137071972010101004+39133-075467SAO  +0009KDOV V0200101N001510600019N0112001N9+00001-00501999999ADDGF107991999999999999999999MA1102371999999MW1001
0050724088137071972010102004+39133-075467SAO  +0009KDOV V0203501N002112200019N0112001N9+00001-00501999999ADDGF102991999999999999999999MA1102471999999MW1001
0064724088137071972010103004+39133-075467SAO  +0009KDOV V0203601N001012200019N0112001N9-00221-00611102541ADDGF100991999999999999999999MA1102541102401MD1210221+9999MW1001
0050724088137071972010104004+39133-075467SAO  +0009KDOV V0200201N002110300019N0112001N9-00171-00561999999ADDGF107991999999999999999999MA1102611999999MW1001
0050724088137071972010105004+39133-075467SAO  +0009KDOV V0200601N003610120019N0112001N9-00111-00671999999ADDGF107991999999999999999999MA1102541999999MW1001
0081724088137071972010106004+39133-075467SAO  +0009KDOV V0200601N003110120019N0112001N9-00111-00671102601ADDGF108991999999999999999999MA1102611102471MD1210071+9999MW1001REMAWY008207 15//
0050724088137071972010107004+39133-075467SAO  +0009KDOV V0200601N003110120019N0112001N9-00111-00671999999ADDGF108991999999999999999999MA1102611999999MW1001
0050724088137071972010108004+39133-075467SAO  +0009KDOV V0200601N002610105019N0112001N9-00171-00781999999ADDGF108991999999999999999999MA1102711999999MW1001
0081724088137071972010109004+39133-075467SAO  +0009KDOV V0200401N001510105019N0112001N9-00221-00781102791ADDGF108991999999999999999999MA1102781102681MD1210191+9999MW1001REMAWY008219 15//
0050724088137071972010110004+39133-075467SAO  +0009KDOV V0200501N002112200019N0112001N9-00281-00831999999ADDGF102991999999999999999999MA1102811999999MW1001
0050724088137071972010111004+39133-075467SAO  +0009KDOV V0209991C000012200019N0112001N9-00331-00831999999ADDGF102991999999999999999999MA1102881999999MW1001
0092724088137071972010112004+39133-075467SAO  +0009KDOV V0200301N001512200019N0112001N9-00501-00781102881ADDAA124999999GF102991999999999999999999MA1102881102741MD1110081+9999MW1001REMAWY008108 1002
0050724088137071972010113004+39133-075467SAO  +0009KDOV V0200701N001012200019N0112001N9-00281-00721999999ADDGF108991999999999999999999MA1102951999999MW1001
0050724088137071972010114004+39133-075467SAO  +0009KDOV V0200901N002612200019N0112001N9-00171-00671999999ADDGF107991999999999999999999MA1102981999999MW1001
0081724088137071972010115004+39133-075467SAO  +0009KDOV V0200901N002612200019N0112001N9+00001-00611103031ADDGF107991999999999999999999MA1103011102881MD1110141+9999MW1001REMAWY008114 1071
0050724088137071972010116004+39133-075467SAO  +0009KDOV V0201301N002612200019N0112001N9+00111-00611999999ADDGF107991999999999999999999MA1102981999999MW1001
0050724088137071972010117004+39133-075467SAO  +0009KDOV V0201301N002112200019N0112001N9+00171-00561999999ADDGF108991999999999999999999MA1102951999999MW1001
0090724088137071972010118004+39133-075467SAO  +0009KDOV V0201101N002112200019N0112001N9+00221-00561102861ADDGF107991999999999999999999MA1102841102741MD1810151+9999MW1001REMAWY017CU SW-NW/815 1108
0050724088137071972010119004+39133-075467SAO  +0009KDOV V0201301N002612200019N0112001N9+00221-00561999999ADDGF107991999999999999999999MA1102811999999MW1001
0050724088137071972010120004+39133-075467SAO  +0009KDOV V0201101N003112200019N0112001N9+00221-00561999999ADDGF107991999999999999999999MA1102741999999MW1001
0081724088137071972010121004+39133-075467SAO  +0009KDOV V0201101N003112200019N0112001N9+00221-00611102721ADDGF102991999999999999999999MA1102711102611MD1810141+9999MW1001REMAWY008814 1001
0050724088137071972010122004+39133-075467SAO  +0009KDOV V0201301N002112200019N0112001N9+00111-00611999999ADDGF102991999999999999999999MA1102681999999MW1001
0050724088137071972010123004+39133-075467SAO  +0009KDOV V0201501N002112200019N0112001N9+00001-00501999999ADDGF102991999999999999999999MA1102611999999MW1001
0081724088137071972010200004+39133-075467SAO  +0009KDOV V0201701N002110750019N0112001N9+00061-00391102601ADDGF107991999999999999999999MA1102611102471MD1610121+9999MW1001REMAWY008612 1078
0050724088137071972010201004+39133-075467SAO  +0009KDOV V0201601N002112200019N0112001N9-00111-00391999999ADDGF108991999999999999999999MA1102571999999MW1001
0050724088137071972010202004+39133-075467SAO  +0009KDOV V0201701N002110300019N0112001N9-00061-00331999999ADDGF108991999999999999999999MA1102511999999MW1001
0081724088137071972010203004+39133-075467SAO  +0009KDOV V0201701N001510300019N0112001N9+00001-00331102451ADDGF108991999999999999999999MA1102441102341MD1810151+9999MW1001REMAWY008815 1077
0050724088137071972010204004+39133-075467SAO  +0009KDOV V0201701N001010300019N0112001N9+00061-00281999999ADDGF108991999999999999999999MA1102341999999MW1001
0050724088137071972010205004+39133-075467SAO  +0009KDOV V0201301N002610300019N0112001N9+00111-00221999999ADDGF108991999999999999999999MA1102201999999MW1001
0105724088137071972010206004+39133-075467SAO  +0009KDOV V0201201N002110360019N0096001N9+00171-00221102061ADDAA106999929AA224999999GF108991999999999999999999MA1102071101931MD1710391+9999MW1791REMAWY01073900 152/
0050724088137071972010207004+39133-075467SAO  +0009KDOV V0201601N002110150019N0096001N9+00281-00061999999ADDGF108991999999999999999999MA1102001999999MW1791
0071724088137071972010208004+39133-075467SAO  +0009KDOV V0201201N003110120019N0096001N9+00331+00111999999ADDGF108991999999999999999999MA1101801999999MW1611MW2791REMAWY006PRESFR
0094724088137071972010209004+39133-075467SAO  +0009KDOV V0200901N004110075019N0064001N9+00391+00221101571ADDGF108991999999999999999999MA1101561101461MD1810491+9999MW1051MW2611REMAWY015PRESFR/849 102/
0056724088137071972010210004+39133-075467SAO  +0009KDOV V0201001N005110012019N0032001N9+00391+00281999999ADDGF108991999999999999999999MA1101391999999MW1051MW2611
0082724088137071972010211004+39133-075467SAO  +0009KDOV V0200801N003110009019N0036001N9+00441+00331999999ADDGF108991999999999999999999MA1101251999999MW1051MW2451MW3611REMAWY011FH7/CIG 2V4
0123724088137071972010212004+39133-075467SAO  +0009KDOV V0200401N002110003019N0028001N9+00441+00391101081ADDAA106001091AA224999999GF108991999999999999999999MA1101081100951MD1710491+9999MW1051MW2451MW3511REMAWY01674903 17// 20003
0096724088137071972010213004+39133-075467SAO  +0009KDOV V0200601N002110009019N0012001N9+00441+00391999999ADDGF108991999999999999999999MA1100881999999MW1051MW2451MW3511MW4611REMAWY019IMR01VR60+/R01VR60+
0067724088137071972010214004+39133-075467SAO  +0009KDOV V0201701N002110024019N0028001N9+00721+00671999999ADDGF108991999999999999999999MA1100711999999MW1111MW2511REMAWY002F2
0095724088137071972010215004+39133-075467SAO  +0009KDOV V0201801N008210021019N0048001N9+01281+01221100591ADDGF108991999999999999999999MA1100581100471MD1710491+9999MW1111MW2801REMAWY016CIG RGD/749 17//
0056724088137071972010216004+39133-075467SAO  +0009KDOV V0202701N003110012019N0048001N9+01001+00941999999ADDGF108991999999999999999999MA1100541999999MW1111MW2511
0062724088137071972010217004+39133-075467SAO  +0009KDOV V0202301N007210042019N0080001N9+00721+00611999999ADDGF108991999999999999999999MA1100411999999MW1111MW2511MW3801
0105724088137071972010218004+39133-075467SAO  +0009KDOV V0202001N007210018019N0112001N9+00831+00781100161ADDAA106002091AA224999999GF108991999999999999999999MA1100171100031MD1810421+9999MW1001REMAWY01084208 16//
0056724088137071972010219004+39133-075467SAO  +0009KDOV V0202501N007210018019N0080001N9+00941+00891999999ADDGF108991999999999999999999MA1100171999999MW1051MW2801
0062724088137071972010220004+39133-075467SAO  +0009KDOV V0202301N009310024019N0064001N9+00941+00891999999ADDGF108991999999999999999999MA1100271999999MW1051MW2111MW3801
0093724088137071972010221004+39133-075467SAO  +0009KDOV V0202601N007710024019N0048001N9+00721+00611100351ADDGF108991999999999999999999MA1100341100241MD1310191+9999MW1051MW2451MW3511REMAWY008319 16//
0062724088137071972010222004+39133-075467SAO  +0009KDOV V0202601N006210030019N0064001N9+00671+00501999999ADDGF108991999999999999999999MA1100511999999MW1051MW2111MW3801
0050724088137071972010223004+39133-075467SAO  +0009KDOV V0202701N005110120019N0096001N9+00611+00501999999ADDGF108991999999999999999999MA1100611999999MW1051
0112724088137071972010300004+39133-075467SAO  +0009KDOV V0202801N004112200019N0112001N9+00611+00441100821ADDAA106000391AA224999999GF102991999999999999999999MA1100811100711MD1310471+9999MW1001REMAWY017PRESRR/34701 1570
0050724088137071972010301004+39133-075467SAO  +0009KDOV V0202801N004112200019N0112001N9+00561+00331999999ADDGF102991999999999999999999MA1100911999999MW1001
0050724088137071972010302004+39133-075467SAO  +0009KDOV V0202701N002612200019N0112001N9+00391+00281999999ADDGF100991999999999999999999MA1101081999999MW1001
0064724088137071972010303004+39133-075467SAO  +0009KDOV V0202801N004612200019N0112001N9+00391+00171101251ADDGF100991999999999999999999MA1101251101121MD1310421+9999MW1001
0050724088137071972010304004+39133-075467SAO  +0009KDOV V0202901N005112200019N0112001N9+00441-00111999999ADDGF100991999999999999999999MA1101321999999MW1001
0050724088137071972010305004+39133-075467SAO  +0009KDOV V0202801N002612200019N0112001N9+00331-00281999999ADDGF100991999999999999999999MA1101391999999MW1001
0064724088137071972010306004+39133-075467SAO  +0009KDOV V0203001N003112200019N0112001N9+00281-00281101461ADDGF100991999999999999999999MA1101461101321MD1110201+9999MW1001
0050724088137071972010307004+39133-075467SAO  +0009KDOV V0202401N002112200019N0112001N9+00111-00331999999ADDGF100991999999999999999999MA1101631999999MW1001
0065724088137071972010308004+39133-075467SAO  +0009KDOV V0202401N002112200019N0112001N9+00061-00331999999ADDGF100991999999999999999999MA1101831999999MW1001REMAWY006PRESRR
0064724088137071972010309004+39133-075467SAO  +0009KDOV V0202701N002112200019N0112001N9+00061-00391101911ADDGF100991999999999999999999MA1101901101791MD1110461+9999MW1001
0050724088137071972010310004+39133-075467SAO  +0009KDOV V0202301N001512200019N0112001N9-00111-00391999999ADDGF100991999999999999999999MA1101961999999MW1001
0050724088137071972010311004+39133-075467SAO  +0009KDOV V0202601N002112200019N0112001N9-00111-00441999999ADDGF100991999999999999999999MA1102101999999MW1001
0100724088137071972010312004+39133-075467SAO  +0009KDOV V0202301N002112200019N0112001N9-00111-00391102261ADDAA124999999GF100991999999999999999999MA1102271102131MD1310361+9999MW1001REMAWY016PRESRR/336 20009
0050724088137071972010313004+39133-075467SAO  +0009KDOV V0202101N002112200019N0112001N9-00111-00391999999ADDGF100991999999999999999999MA1102401999999MW1001
0050724088137071972010314004+39133-075467SAO  +0009KDOV V0202301N001512200019N0112001N9+00331+00111999999ADDGF100991999999999999999999MA1102471999999MW1001
0064724088137071972010315004+39133-075467SAO  +0009KDOV V0202401N002112200019N0112001N9+00671+00001102591ADDGF100991999999999999999999MA1102571102471MD1210321+9999MW1001
0050724088137071972010316004+39133-075467SAO  +0009KDOV V0202801N003112200019N0112001N9+00781-00171999999ADDGF100991999999999999999999MA1102571999999MW1001
0050724088137071972010317004+39133-075467SAO  +0009KDOV V0203201N003612200019N0112001N9+00831-00331999999ADDGF100991999999999999999999MA1102511999999MW1001
0064724088137071972010318004+39133-075467SAO  +0009KDOV V0202901N002612200019N0112001N9+01001-00331102471ADDGF100991999999999999999999MA1102471102341MD1810121+9999MW1001
0050724088137071972010319004+39133-075467SAO  +0009KDOV V0209991C000012200019N0112001N9+01221-00221999999ADDGF100991999999999999999999MA1102511999999MW1001
0050724088137071972010320004+39133-075467SAO  +0009KDOV V0209991C000012200019N0112001N9+01501+00001999999ADDGF100991999999999999999999MA1102541999999MW1001
0064724088137071972010321004+39133-075467SAO  +0009KDOV V0209991C000012200019N0112001N9+01281-00331102571ADDGF100991999999999999999999MA1102571102441MD1210101+9999MW1001
0064724088137071972010322004+39133-075467SAO  +0009KDOV V0201201N002112200019N0112001N9+00831-00111999999ADDGF100991999999999999999999MA1102541999999MW1001REMAWY005AC SW
0050724088137071972010323004+39133-075467SAO  +0009KDOV V0201101N001512200019N0112001N9+00501-00171999999ADDGF100991999999999999999999MA1102541999999MW1001
0064724088137071972010400004+39133-075467SAO  +0009KDOV V0201601N002112200019N0112001N9+00331-00111102621ADDGF100991999999999999999999MA1102611102511MD1310051+9999MW1001
0050724088137071972010401004+39133-075467SAO  +0009KDOV V0201501N002112200019N0112001N9+00171-00171999999ADDGF100991999999999999999999MA1102641999999MW1001
0050724088137071972010402004+39133-075467SAO  +0009KDOV V0201801N002112200019N0112001N9+00111-00171999999ADDGF102991999999999999999999MA1102641999999MW1001
0081724088137071972010403004+39133-075467SAO  +0009KDOV V0201801N001512200019N0112001N9+00061-00281102621ADDGF102991999999999999999999MA1102611102511MD1010001+9999MW1001REMAWY008000 1001
0050724088137071972010404004+39133-075467SAO  +0009KDOV V0201701N001012200019N0112001N9+00061-00221999999ADDGF102991999999999999999999MA1102541999999MW1001
0050724088137071972010405004+39133-075467SAO  +0009KDOV V0201601N001012200019N0112001N9+00111-00171999999ADDGF102991999999999999999999MA1102441999999MW1001
0081724088137071972010406004+39133-075467SAO  +0009KDOV V0209991C000010750019N0112001N9+00061-00171102471ADDGF107991999999999999999999MA1102471102341MD1510151+9999MW1001REMAWY008515 1031
0050724088137071972010407004+39133-075467SAO  +0009KDOV V0209991C000010750019N0112001N9+00171-00061999999ADDGF107991999999999999999999MA1102401999999MW1001
0065724088137071972010408004+39133-075467SAO  +0009KDOV V0209991C000010120019N0112001N9+00111-00061999999ADDGF108991999999999999999999MA1102301999999MW1001REMAWY006PRESFR
0081724088137071972010409004+39133-075467SAO  +0009KDOV V0209991C000010105019N0112001N9+00221+00111102231ADDGF108991999999999999999999MA1102241102101MD1710241+9999MW1001REMAWY008724 157/
0068724088137071972010410004+39133-075467SAO  +0009KDOV V0203601N001510105019N0112001N9+00281-00111999999ADDGF108991999999999999999999MA1102071999999MW1001REMAWY009OCNL RW--
0066724088137071972010411004+39133-075467SAO  +0009KDOV V0203501N002110090019N0112001N9+00331+00281999999ADDGF108991999999999999999999MA1102131999999MW1001REMAWY007RCD?180
0117724088137071972010412004+39133-075467SAO  +0009KDOV V0200201N001010090019N0112001N9+00331+00281102081ADDAA106999929AA224999999GF108991999999999999999999MA1102071101961MD1610151+9999MW1001REMAWY022RCD?50/?330/61500 157/
0076724088137071972010413004+39133-075467SAO  +0009KDOV V0200401N001510090019N0080001N9+00391+00391999999ADDGF108991999999999999999999MA1101961999999MW1051MW2801REMAWY011RCD?60/?250
0086724088137071972010414004+39133-075467SAO  +0009KDOV V0203601N002110060019N0080001N9+00441+00441999999ADDGF108991999999999999999999MA1101931999999MW1051MW2111MW3801REMAWY015RCD?200/230U250
0117724088137071972010415004+39133-075467SAO  +0009KDOV V0203501N003110060019N0048001N9+00441+00441101911ADDGF108991999999999999999999MA1101901101791MD1710171+9999MW1051MW2111MW3801REMAWY032RCD?150/170U270/717 17// WET RWY
0080724088137071972010416004+39133-075467SAO  +0009KDOV V0209991C000010060019N0040001N9+00441+00441999999ADDGF108991999999999999999999MA1101801999999MW1111MW2611REMAWY015RCD?260 WET RWY
0097724088137071972010417004+39133-075467SAO  +0009KDOV V0209991C000010006019N0032001N9+00501+00441999999ADDGF108991999999999999999999MA1101591999999MW1051MW2451MW3611REMAWY026FH2/RCD?280/PRESFR/WET RWY
0137724088137071972010418004+39133-075467SAO  +0009KDOV V0209991C000010006019N0022001N9+00561+00501101441ADDAA106003091AA224999999GF108991999999999999999999MA1101421101321MD1710471+9999MW1051MW2451MW3611REMAWY030FH8/RCD?230/74713 17// WET RWY
0086724088137071972010419004+39133-075467SAO  +0009KDOV V0209991C000010006019N0020001N9+00561+00501999999ADDGF108991999999999999999999MA1101291999999MW1051MW2451MW3611REMAWY015RCD?270/WET RWY
0090724088137071972010420004+39133-075467SAO  +0009KDOV V0209991C000010006019N0024001N9+00611+00561999999ADDGF108991999999999999999999MA1101151999999MW1051MW2451MW3611REMAWY019FH4/RCD?220/WET RWY
0105724088137071972010421004+39133-075467SAO  +0009KDOV V0209991C000010009019N0032001N9+00671+00611101551ADDGF108991999999999999999999MA1101151101421MD1610111+9999MW1051MW2451MW3611REMAWY020FH1/629 17// WET RWY
0075724088137071972010422004+39133-075467SAO  +0009KDOV V0202901N001510012019N0032001N9+00671+00611999999ADDGF108991999999999999999999MA1101081999999MW1451MW2611REMAWY010F4/WET RWY
0086724088137071972010423004+39133-075467SAO  +0009KDOV V0203301N002610012019N0048001N9+00611+00561999999ADDGF108991999999999999999999MA1101081999999MW1451MW2611REMAWY021F2/VSBY LWR S WET RWY
0100724088137071972010500004+39133-075467SAO  +0009KDOV V0203501N002610012019N0048001N9+00611+00501101031ADDGF108991999999999999999999MA1101021100911MD1210191+9999MW1451MW2611REMAWY021F1/61219 17// WET RWY
0075724088137071972010501004+39133-075467SAO  +0009KDOV V0203401N002110012019N0040001N9+00561+00501999999ADDGF108991999999999999999999MA1100981999999MW1451MW2611REMAWY010F2/WET RWY
0072724088137071972010502004+39133-075467SAO  +0009KDOV V0203301N001010036019N0032001N9+00561+00501999999ADDGF108991999999999999999999MA1100911999999MW1451MW2611REMAWY007WET RWY
0098724088137071972010503004+39133-075467SAO  +0009KDOV V0209991C000010015019N0024001N9+00561+00501100811ADDGF108991999999999999999999MA1100811100681MD1610221+9999MW1451MW2611REMAWY019F1/622 17// WET RWY
0094724088137071972010504004+39133-075467SAO  +0009KDOV V0202701N000510006019N0016001N9+00561+00501999999ADDGF108991999999999999999999MA1100811999999MW1451MW2611REMAWY029IMOR01VR55/R01VR55/F2 WET RWY
0075724088137071972010505004+39133-075467SAO  +0009KDOV V0201901N002110006019N0022001N9+00561+00501999999ADDGF108991999999999999999999MA1100681999999MW1451MW2611REMAWY010F2/WET RWY
0122724088137071972010506004+39133-075467SAO  +0009KDOV V0202301N001010006019N0026001N9+00561+00501100621ADDAA106007091AA224999999GF108991999999999999999999MA1100611100511MD1710191+9999MW1451MW2611REMAWY021F2/71929 17// WET RWY
0075724088137071972010507004+39133-075467SAO  +0009KDOV V0209991C000010006019N0026001N9+00561+00501999999ADDGF108991999999999999999999MA1100541999999MW1451MW2611REMAWY010F2 WET RWY
0086724088137071972010508004+39133-075467SAO  +0009KDOV V0203601N000510006019N0032001N9+00561+00501999999ADDGF108991999999999999999999MA1100511999999MW1451REMAWY027F1/WND LGT AND VRBL/WET RWY
0115724088137071972010509004+39133-075467SAO  +0009KDOV V0202201N000510009019N0028001N9+00561+00501100431ADDGF108991999999999999999999MA1100441100301MD1710191+9999MW1451MW2611REMAWY036F2/WND LGT AND VRBL/719 17// WET RWY
0086724088137071972010510004+39133-075467SAO  +0009KDOV V0202901N001010009019N0028001N9+00561+00501999999ADDGF108991999999999999999999MA1100371999999MW1451REMAWY027F2/WND LGT AND VRBL/WET RWY
0083724088137071972010511004+39133-075467SAO  +0009KDOV V0203101N001510012019N0032001N9+00561+00501999999ADDGF108991999999999999999999MA1100411999999MW1451MW2611REMAWY018F2/CIG 3V5 WET RWY
0125724088137071972010512004+39133-075467SAO  +0009KDOV V0209991C000010012019N0032001N9+00561+00501100301ADDAA106003091AA224999999GF108991999999999999999999MA1100311100171MD1710141+9999MW1451MW2611REMAWY02471410 17// 20071 WET RWY
0085724088137071972010513004+39133-075467SAO  +0009KDOV V0203501N002110012019N0032001N9+00561+00501999999ADDGF108991999999999999999999MA1100371999999MW1451MW2611REMAWY020VSBY N 1 1/2 WET RWY
0080724088137071972010514004+39133-075467SAO  +0009KDOV V0203401N003110012019N0048001N9+00561+00441999999ADDGF108991999999999999999999MA1100511999999MW1451MW2611REMAWY015CIG 3V5/WET RWY
0103724088137071972010515004+39133-075467SAO  +0009KDOV V0203401N005110012019N0048001N9+00561+00441100641ADDGF108991999999999999999999MA1100641100511MD1310341+9999MW1451MW2611REMAWY024CIG 3C5/334 17// WET RWY
0080724088137071972010516004+39133-075467SAO  +0009KDOV V0203501N004610021019N0048001N9+00501+00391999999ADDGF108991999999999999999999MA1100581999999MW1451MW2611REMAWY015CIG 6V8 WET RWY
0092724088137071972010517004+39133-075467SAO  +0009KDOV V0203401N003610024019N0048001N9+00501+00331999999ADDGF108991999999999999999999MA1100641999999MW1451MW2611REMAWY027CIG 7V9 VSBY N2 1/2 WET RWY
0119724088137071972010518004+39133-075467SAO  +0009KDOV V0203401N006710036019N0048001N9+00331+00171100741ADDAA106005091AA224999999GF108991999999999999999999MA1100751100611MD1310101+9999MW1451MW2611REMAWY01831021 17// WET RWY
0096724088137071972010519004+39133-075467SAO  +0009KDOV V0203401N007710030019N0064001N9+00221+00061999999ADDGF108991999999999999999999MA1100951999999MW1611MW2791OC101341REMAWY023PRESRR/CIG 9V12/WET RWY
0080724088137071972010520004+39133-075467SAO  +0009KDOV V0203401N008210066019N0112001N9+00171-00171999999ADDGF108991999999999999999999MA1101151999999MW1001REMAWY021?V%/BINOVC SW WET RWY
0104724088137071972010521004+39133-075467SAO  +0009KDOV V0203401N007210300019N0112001N9+00111-00281101361ADDGF107991999999999999999999MA1101351101251MD1310631+9999MW1001OC101031REMAWY023PRESRR/363 1670 WET RWY
0080724088137071972010522004+39133-075467SAO  +0009KDOV V0203401N006712200019N0112001N9+00061-00391999999ADDGF100991999999999999999999MA1101521999999MW1001REMAWY021SC ALQDS AC S WET RWY
0074724088137071972010523004+39133-075467SAO  +0009KDOV V0203401N005712200019N0112001N9+00001-00561999999ADDGF100991999999999999999999MA1101661999999MW1001REMAWY015SC NE-E WET RWY
0125724088137071972010600004+39133-075467SAO  +0009KDOV V0203501N003612200019N0112001N9-00111-00561101771ADDAA106001091AA224999999GF100991999999999999999999MA1101761101661MD1210411+9999MW1001REMAWY030ST S AND NW/24103 1600 WET RWY
0066724088137071972010601004+39133-075467SAO  +0009KDOV V0203501N004612200019N0112001N9-00171-00671999999ADDGF100991999999999999999999MA1101931999999MW1001REMAWY007WET RWY
0066724088137071972010602004+39133-075467SAO  +0009KDOV V0203501N005712200019N0112001N9-00171-00781999999ADDGF100991999999999999999999MA1101961999999MW1001REMAWY007WET RWY
0084724088137071972010603004+39133-075467SAO  +0009KDOV V0203501N004612200019N0112001N9-00281-00831102081ADDGF100991999999999999999999MA1102071101961MD1310301+9999MW1001REMAWY011330 WET RWY
0066724088137071972010604004+39133-075467SAO  +0009KDOV V0203401N001512200019N0112001N9-00331-00721999999ADDGF100991999999999999999999MA1102171999999MW1001REMAWY007WET RWY
0050724088137071972010605004+39133-075467SAO  +0009KDOV V0203601N002112200019N0112001N9-00441-00781999999ADDGF100991999999999999999999MA1102131999999MW1001
0064724088137071972010606004+39133-075467SAO  +0009KDOV V0203601N002612200019N0112001N9-00441-00831102141ADDGF100991999999999999999999MA1102131102031MD1010071+9999MW1001
0050724088137071972010607004+39133-075467SAO  +0009KDOV V0209991C000012200019N0112001N9-00501-00891999999ADDGF102991999999999999999999MA1102241999999MW1001
0050724088137071972010608004+39133-075467SAO  +0009KDOV V0200201N002110102019N0112001N9-00501-00831999999ADDGF107991999999999999999999MA1102301999999MW1001
0081724088137071972010609004+39133-075467SAO  +0009KDOV V0200101N002112200019N0112001N9-00561-00891102301ADDGF102991999999999999999999MA1102301102171MD1110151+9999MW1001REMAWY008115 1500
0050724088137071972010610004+39133-075467SAO  +0009KDOV V0209991C000012200019N0112001N9-00441-00891999999ADDGF102991999999999999999999MA1102341999999MW1001
0050724088137071972010611004+39133-075467SAO  +0009KDOV V0209991C000012200019N0112001N9-00561-00781999999ADDGF102991999999999999999999MA1102371999999MW1001
0098724088137071972010612004+39133-075467SAO  +0009KDOV V0209991C000012200019N0112001N9-00611-00781102431ADDAA124999999GF107991999999999999999999MA1102441102301MD1210141+9999MW1001REMAWY014214 1508 20024
0064724088137071972010613004+39133-075467SAO  +0009KDOV V0209991C000012200019N0112001N9-00561-00781999999ADDGF108991999999999999999999MA1102471999999MW1001REMAWY005SC SE
0050724088137071972010614004+39133-075467SAO  +0009KDOV V0209991C000012200019N0112001N9-00391-00831999999ADDGF108991999999999999999999MA1102471999999MW1001
0089724088137071972010615004+39133-075467SAO  +0009KDOV V0209991C000010810019N0112001N9-00331-00941102521ADDGF108991999999999999999999MA1102511102401MD1310081+9999MW1001REMAWY016RCD?310/308 1007
0080724088137071972010616004+39133-075467SAO  +0009KDOV V0209991C000010810019N0112001N9-00281-00941999999ADDGF108991999999999999999999MA1102471999999MW1001REMAWY021RCD?320/THN SPTS IOVC
0073724088137071972010617004+39133-075467SAO  +0009KDOV V0209991C000010810019N0112001N9-00171-01061999999ADDGF108991999999999999999999MA1102341999999MW1001REMAWY014THN SPOTS IOVC
0111724088137071972010618004+39133-075467SAO  +0009KDOV V0202301N001510840019N0112001N9-00171-00941102231ADDGF108991999999999999999999MA1102241102101MD1810291+9999MW1001REMAWY038RCD?310/SC NNE/THN SPOTS IOVC/829 1507
0064724088137071972010619004+39133-075467SAO  +0009KDOV V0209991C000012200019N0112001N9-00111-00891999999ADDGF108991999999999999999999MA1102131999999MW1001REMAWY005SC SW
0064724088137071972010620004+39133-075467SAO  +0009KDOV V0209991C000012200019N0112001N9-00111-00941999999ADDGF108991999999999999999999MA1102101999999MW1001REMAWY005SC SW
0098724088137071972010621004+39133-075467SAO  +0009KDOV V0202301N001012200019N0112001N9-00111-00831102131ADDGF108991999999999999999999MA1102131102001MD1510101+9999MW1001REMAWY025WND LGT AND VRBL/510 1007
0050724088137071972010622004+39133-075467SAO  +0009KDOV V0202001N001012200019N0112001N9-00171-00831999999ADDGF107991999999999999999999MA1102101999999MW1001
0050724088137071972010623004+39133-075467SAO  +0009KDOV V0209991C000012200019N0112001N9-00221-00831999999ADDGF102991999999999999999999MA1102101999999MW1001
0090724088137071972010700004+39133-075467SAO  +0009KDOV V0201601N001512200019N0112001N9-00391-00721102131ADDGF100991999999999999999999MA1102131102001MD1510001+9999MW1001REMAWY017CS N-NNE/500 1008
0067724088137071972010701004+39133-075467SAO  +0009KDOV V0201801N001512200019N0112001N9-00331-00781999999ADDGF100991999999999999999999MA1102101999999MW1001REMAWY008CS N-NNE
0050724088137071972010702004+39133-075467SAO  +0009KDOV V0201701N001012200019N0112001N9-00391-00721999999ADDGF100991999999999999999999MA1102131999999MW1001
0064724088137071972010703004+39133-075467SAO  +0009KDOV V0201901N001012200019N0112001N9-00441-00781102061ADDGF100991999999999999999999MA1102071101931MD1810071+9999MW1001
0050724088137071972010704004+39133-075467SAO  +0009KDOV V0201701N002112200019N0112001N9-00561-00831999999ADDGF100991999999999999999999MA1101961999999MW1001
0050724088137071972010705004+39133-075467SAO  +0009KDOV V0201701N000512200019N0112001N9-00501-00831999999ADDGF100991999999999999999999MA1101801999999MW1001
0064724088137071972010706004+39133-075467SAO  +0009KDOV V0202001N002112200019N0112001N9-00611-00831101771ADDGF100991999999999999999999MA1101761101661MD1610291+9999MW1001
0050724088137071972010707004+39133-075467SAO  +0009KDOV V0202201N001512200019N0112001N9-00501-00781999999ADDGF100991999999999999999999MA1101761999999MW1001
0050724088137071972010708004+39133-075467SAO  +0009KDOV V0202301N002112200019N0112001N9-00441-00781999999ADDGF100991999999999999999999MA1101801999999MW1001
0064724088137071972010709004+39133-075467SAO  +0009KDOV V0202001N002612200019N0112001N9-00501-00781101771ADDGF100991999999999999999999MA1101761101661MD1010001+9999MW1001
0050724088137071972010710004+39133-075467SAO  +0009KDOV V0202001N001512200019N0112001N9-00501-00781999999ADDGF107991999999999999999999MA1101691999999MW1001
0050724088137071972010711004+39133-075467SAO  +0009KDOV V0201901N002612200019N0112001N9-00611-00831999999ADDGF100991999999999999999999MA1101631999999MW1001
0075724088137071972010712004+39133-075467SAO  +0009KDOV V0202101N002112200019N0096001N9-00441-00671101641ADDAA124999999GF100991999999999999999999MA1101631101521MD1610141+9999MW1051
0050724088137071972010713004+39133-075467SAO  +0009KDOV V0202001N003112200019N0096001N9-00391-00561999999ADDGF102991999999999999999999MA1101631999999MW1051
0050724088137071972010714004+39133-075467SAO  +0009KDOV V0202201N004610210019N0096001N9-00171-00391999999ADDGF107991999999999999999999MA1101631999999MW1051
0081724088137071972010715004+39133-075467SAO  +0009KDOV V0202201N005112200019N0096001N9+00061-00281101621ADDGF102991999999999999999999MA1101631101491MD1510021+9999MW1051REMAWY008502 1070
0068724088137071972010716004+39133-075467SAO  +0009KDOV V0202401N005712200019N0112001N9+00331-00441999999ADDGF100991999999999999999999MA1101561999999MW1001REMAWY009AC N-E-SE
0078724088137071972010717004+39133-075467SAO  +0009KDOV V0202601N006212200019N0112001N9+00501-00391999999ADDGF100991999999999999999999MA1101491999999MW1001OC100821REMAWY011WND 220V280
0112724088137071972010718004+39133-075467SAO  +0009KDOV V0202801N009312200019N0112001N9+00501-00611101401ADDGF100991999999999999999999MA1101391101291MD1810221+9999MW1001OC101341REMAWY031CU FRMG AND DSIPTG S-W/822 1100
0058724088137071972010719004+39133-075467SAO  +0009KDOV V0203101N011310120019N0112001N9+00441-00611999999ADDGF107991999999999999999999MA1101521999999MW1001OC101541
0082724088137071972010720004+39133-075467SAO  +0009KDOV V0202901N010310135019N0112001N9+00561-00671999999ADDGF107991999999999999999999MA1101591999999MW1001OC101391REMAWY015?V%/WND 250V320
0101724088137071972010721004+39133-075467SAO  +0009KDOV V0202901N008212200019N0112001N9+00501-00671101671ADDGF102991999999999999999999MA1101661101561MD1110271+9999MW1001OC101231REMAWY020WND 260V320/127 1500
0050724088137071972010722004+39133-075467SAO  +0009KDOV V0202901N006212200019N0112001N9+00391-00671999999ADDGF102991999999999999999999MA1101761999999MW1001
0050724088137071972010723004+39133-075467SAO  +0009KDOV V0202601N004612200019N0112001N9+00171-00611999999ADDGF102991999999999999999999MA1101861999999MW1001
0064724088137071972010800004+39133-075467SAO  +0009KDOV V0202801N005112200019N0112001N9+00281-00721101991ADDGF100991999999999999999999MA1102001101861MD1310321+9999MW1001
0050724088137071972010801004+39133-075467SAO  +0009KDOV V0202601N004112200019N0112001N9+00061-00611999999ADDGF100991999999999999999999MA1102071999999MW1001
0050724088137071972010802004+39133-075467SAO  +0009KDOV V0202601N004112200019N0112001N9+00061-00611999999ADDGF100991999999999999999999MA1102201999999MW1001
0064724088137071972010803004+39133-075467SAO  +0009KDOV V0202601N005112200019N0112001N9+00111-00611102231ADDGF100991999999999999999999MA1102241102101MD1110241+9999MW1001
0050724088137071972010804004+39133-075467SAO  +0009KDOV V0202701N004112200019N0112001N9+00111-00611999999ADDGF100991999999999999999999MA1102241999999MW1001
0050724088137071972010805004+39133-075467SAO  +0009KDOV V0202701N004612200019N0112001N9+00111-00611999999ADDGF100991999999999999999999MA1102301999999MW1001
0081724088137071972010806004+39133-075467SAO  +0009KDOV V0202701N004612200019N0112001N9+00111-00611102381ADDGF102991999999999999999999MA1102371102271MD1210151+9999MW1001REMAWY008215 1070
0070724088137071972010807004+39133-075467SAO  +0009KDOV V0202501N005110210019N0112001N9+00111-00561999999ADDGF107991999999999999999999MA1102471999999MW1001REMAWY011WND 240V280
0070724088137071972010808004+39133-075467SAO  +0009KDOV V0202701N005112200019N0112001N9+00111-00611999999ADDGF100991999999999999999999MA1102571999999MW1001REMAWY011WND 240V300
0064724088137071972010809004+39133-075467SAO  +0009KDOV V0202701N003612200019N0112001N9+00061-00611102671ADDGF100991999999999999999999MA1102681102541MD1210291+9999MW1001
0070724088137071972010810004+39133-075467SAO  +0009KDOV V0202901N003612200019N0112001N9+00061-00671999999ADDGF100991999999999999999999MA1102811999999MW1001REMAWY011WND 270V320
0050724088137071972010811004+39133-075467SAO  +0009KDOV V0203201N001512200019N0112001N9+00001-00671999999ADDGF100991999999999999999999MA1102981999999MW1001
0107724088137071972010812004+39133-075467SAO  +0009KDOV V0203201N002612200019N0112001N9-00061-00671103131ADDAA124999999GF100991999999999999999999MA1103121103011MD1210461+9999MW1001REMAWY023AC SE CI SE-SW/246 1071
0050724088137071972010813004+39133-075467SAO  +0009KDOV V0203201N002112200019N0112001N9-00111-00721999999ADDGF102991999999999999999999MA1103251999999MW1001
0050724088137071972010814004+39133-075467SAO  +0009KDOV V0203301N004112200019N0112001N9+00001-00781999999ADDGF102991999999999999999999MA1103321999999MW1001
0088724088137071972010815004+39133-075467SAO  +0009KDOV V0203201N006210750019N0112001N9+00171-00831103431ADDGF107991999999999999999999MA1103421103321MD1210301+9999MW1001REMAWY015K E-SE/230 1008
0050724088137071972010816004+39133-075467SAO  +0009KDOV V0203201N006210750019N0112001N9+00221-00831999999ADDGF107991999999999999999999MA1103451999999MW1001
0050724088137071972010817004+39133-075467SAO  +0009KDOV V0203301N005112200019N0112001N9+00281-00831999999ADDGF107991999999999999999999MA1103351999999MW1001
0081724088137071972010818004+39133-075467SAO  +0009KDOV V0203401N004112200019N0112001N9+00281-00831103261ADDGF108991999999999999999999MA1103251103151MD1810171+9999MW1001REMAWY008817 1007
0050724088137071972010819004+39133-075467SAO  +0009KDOV V0203101N002112200019N0112001N9+00331-00781999999ADDGF108991999999999999999999MA1103251999999MW1001
0070724088137071972010820004+39133-075467SAO  +0009KDOV V0203101N003112200019N0112001N9+00391-00781999999ADDGF102991999999999999999999MA1103251999999MW1001REMAWY011WND 290V330
0081724088137071972010821004+39133-075467SAO  +0009KDOV V0203301N001512200019N0112001N9+00331-00781103341ADDGF102991999999999999999999MA1103321103221MD1310071+9999MW1001REMAWY008307 1008
0050724088137071972010822004+39133-075467SAO  +0009KDOV V0202701N001012200019N0112001N9+00221-00781999999ADDGF102991999999999999999999MA1103351999999MW1001
0050724088137071972010823004+39133-075467SAO  +0009KDOV V0209991C000012200019N0112001N9-00061-00721999999ADDGF102991999999999999999999MA1103351999999MW1001
0064724088137071972010900004+39133-075467SAO  +0009KDOV V0209991C000012200019N0112001N9-00171-00721103351ADDGF100991999999999999999999MA1103351103221MD1110021+9999MW1001
0050724088137071972010901004+39133-075467SAO  +0009KDOV V0209991C000012200019N0112001N9-00221-00671999999ADDGF100991999999999999999999MA1103321999999MW1001
0050724088137071972010902004+39133-075467SAO  +0009KDOV V0209991C000012200019N0112001N9-00221-00611999999ADDGF100991999999999999999999MA1103321999999MW1001
0064724088137071972010903004+39133-075467SAO  +0009KDOV V0201501N001012200019N0112001N9-00281-00611103281ADDGF100991999999999999999999MA1103291103151MD1810071+9999MW1001
0050724088137071972010904004+39133-075467SAO  +0009KDOV V0201501N001512200019N0112001N9-00221-00611999999ADDGF100991999999999999999999MA1103221999999MW1001
0050724088137071972010905004+39133-075467SAO  +0009KDOV V0201701N002112200019N0112001N9-00391-00671999999ADDGF100991999999999999999999MA1103121999999MW1001
0064724088137071972010906004+39133-075467SAO  +0009KDOV V0201801N002112200019N0112001N9-00391-00721103051ADDGF100991999999999999999999MA1103051102911MD1710241+9999MW1001
0050724088137071972010907004+39133-075467SAO  +0009KDOV V0201801N002112200019N0112001N9-00391-00671999999ADDGF102991999999999999999999MA1102981999999MW1001
0050724088137071972010908004+39133-075467SAO  +0009KDOV V0201701N002112200019N0112001N9-00171-00441999999ADDGF102991999999999999999999MA1102881999999MW1001
0081724088137071972010909004+39133-075467SAO  +0009KDOV V0201801N002110750019N0112001N9-00171-00441102811ADDGF107991999999999999999999MA1102811102681MD1710241+9999MW1001REMAWY008724 1008
0066724088137071972010910004+39133-075467SAO  +0009KDOV V0209991C000010660019N0112001N9-00171-00441999999ADDGF108991999999999999999999MA1102711999999MW1001REMAWY007RCD?280
0066724088137071972010911004+39133-075467SAO  +0009KDOV V0202101N001510600019N0112001N9-00171-00391999999ADDGF108991999999999999999999MA1102641999999MW1001REMAWY007RCD?230
0092724088137071972010912004+39133-075467SAO  +0009KDOV V0201601N002110120019N0112001N9+00001-00221102541ADDAA124999999GF108991999999999999999999MA1102541102401MD1710271+9999MW1001REMAWY008727 1607
0050724088137071972010913004+39133-075467SAO  +0009KDOV V0201901N002110120019N0112001N9+00061-00171999999ADDGF107991999999999999999999MA1102471999999MW1001
0066724088137071972010914004+39133-075467SAO  +0009KDOV V0201801N003610126019N0112001N9+00331+00111999999ADDGF108991999999999999999999MA1102441999999MW1001REMAWY007RCD?220
0088724088137071972010915004+39133-075467SAO  +0009KDOV V0201401N004110540019N0112001N9+00441+00171102321ADDGF108991999999999999999999MA1102301102201MD1810221+9999MW1001REMAWY015PRESFR/822 1577
0077724088137071972010916004+39133-075467SAO  +0009KDOV V0202001N004610150019N0112001N9+00721+00391999999ADDGF108991999999999999999999MA1102171999999MW1001REMAWY018RCD?80/?190/PRESFR
0078724088137071972010917004+39133-075467SAO  +0009KDOV V0202401N003110180019N0112001N9+00781+00441999999ADDGF108991999999999999999999MA1101961999999MW1001REMAWY019RCD?100/?160/PRESFR
0096724088137071972010918004+39133-075467SAO  +0009KDOV V0202301N004110150019N0112001N9+00941+00501101771ADDGF108991999999999999999999MA1101761101661MD1710541+9999MW1001REMAWY023RCD?150/PRESFR/754 1507
0066724088137071972010919004+39133-075467SAO  +0009KDOV V0202101N003110135019N0112001N9+00941+00671999999ADDGF108991999999999999999999MA1101631999999MW1611REMAWY007RCD?150
0090724088137071972010920004+39133-075467SAO  +0009KDOV V0202201N003610135019N0080001N9+00941+00721999999ADDGF108991999999999999999999MA1101561999999MW1611REMAWY031PRES UNSTDY WND 140V300 WET RWY
0095724088137071972010921004+39133-075467SAO  +0009KDOV V0202301N002110060019N0064001N9+00831+00721101521ADDGF108991999999999999999999MA1101521101391MD1610251+9999MW1111MW2611REMAWY016625 17// WET RWY
0072724088137071972010922004+39133-075467SAO  +0009KDOV V0202701N002110072019N0040001N9+00831+00721999999ADDGF108991999999999999999999MA1101461999999MW1111MW2611REMAWY007WET RWY
0080724088137071972010923004+39133-075467SAO  +0009KDOV V0209991C000010018019N0032001N9+00721+00671999999ADDGF108991999999999999999999MA1101391999999MW1111MW2611REMAWY015CIG 4V9 WET RWY
0119724088137071972011000004+39133-075467SAO  +0009KDOV V0202701N004110072019N0040001N9+00721+00671101361ADDAA106010091AA224999999GF108991999999999999999999MA1101391101251MD1610151+9999MW1111MW2611REMAWY01861541 17// WET RWY
0072724088137071972011001004+39133-075467SAO  +0009KDOV V0202201N001510072019N0040001N9+00721+00611999999ADDGF108991999999999999999999MA1101251999999MW1111MW2611REMAWY007WET RWY
0072724088137071972011002004+39133-075467SAO  +0009KDOV V0202201N005710072019N0048001N9+00781+00721999999ADDGF108991999999999999999999MA1101291999999MW1111MW2611REMAWY007WET RWY
0095724088137071972011003004+39133-075467SAO  +0009KDOV V0202001N005110150019N0064001N9+00831+00721101181ADDGF108991999999999999999999MA1101191101051MD1710191+9999MW1111MW2611REMAWY016719 15// WET RWY
0080724088137071972011004004+39133-075467SAO  +0009KDOV V0202101N005110018019N0048001N9+00891+00781999999ADDGF108991999999999999999999MA1101051999999MW1111MW2611REMAWY015CIG 4V9 WET RWY
0084724088137071972011005004+39133-075467SAO  +0009KDOV V0202301N006210027019N0080001N9+01061+00941999999ADDGF108991999999999999999999MA1100951999999MW1611REMAWY025RCD?250 INTMT R-- WET RWY
0113724088137071972011006004+39133-075467SAO  +0009KDOV V0202501N005110105019N0080001N9+01061+01001100941ADDAA106018091AA224999999GF108991999999999999999999MA1100951100811MD1610241+9999MW1611REMAWY01862469 15// WET RWY
0079724088137071972011007004+39133-075467SAO  +0009KDOV V0202401N007210018019N0080001N9+01111+01001999999ADDGF108991999999999999999999MA1100911999999MW1451REMAWY020RCD?50/60U65 WET RWY
0073724088137071972011008004+39133-075467SAO  +0009KDOV V0202401N006710012019N0064001N9+01061+00941999999ADDGF108991999999999999999999MA1100911999999MW1451REMAWY014RCD?30 WET RWY
0104724088137071972011009004+39133-075467SAO  +0009KDOV V0202401N007210021019N0080001N9+01111+01001100951ADDGF108991999999999999999999MA1100951100851MD1310021+9999MW1451OC101181REMAWY023RCD?25/302 16// WET RWY
0092724088137071972011010004+39133-075467SAO  +0009KDOV V0202501N005110027019N0112001N9+01111+00941999999ADDGF108991999999999999999999MA1100951999999MW1001REMAWY033WND 230V270 THN SPTS IOVC WET RWY
0080724088137071972011011004+39133-075467SAO  +0009KDOV V0202501N006210024019N0112001N9+01061+00891999999ADDGF108991999999999999999999MA1100951999999MW1001REMAWY021THN SPTS IOVC WET RWY
0152724088137071972011012004+39133-075467SAO  +0009KDOV V0202501N005110030019N0112001N9+01061+00891101111ADDAA106000391AA224999999GF108991999999999999999999MA1101121100981MD1310151+9999MW1001REMAWY057THN SPTS IOVC WND 210V280 PRESRR/31501 16// 20111 WET RWY
0066724088137071972011013004+39133-075467SAO  +0009KDOV V0202701N003110021019N0112001N9+01061+00891999999ADDGF108991999999999999999999MA1101151999999MW1001REMAWY007WET RWY
0070724088137071972011014004+39133-075467SAO  +0009KDOV V0202601N002110024019N0096001N9+01061+00891999999ADDGF108991999999999999999999MA1101221999999MW1051REMAWY011?14/WET RWY
0106724088137071972011015004+39133-075467SAO  +0009KDOV V0202601N000510024019N0112001N9+01061+00891101281ADDGF108991999999999999999999MA1101291101151MD1110171+9999MW1001REMAWY033WND LGT AND VRBL/117 15// WET RWY
0077724088137071972011016004+39133-075467SAO  +0009KDOV V0209991C000010024019N0112001N9+01111+00891999999ADDGF108991999999999999999999MA1101291999999MW1001REMAWY018VSBY LWR N/WET RWY
0075724088137071972011017004+39133-075467SAO  +0009KDOV V0209991C000010027019N0112001N9+01061+00891999999ADDGF108991999999999999999999MA1101221999999MW1001REMAWY016F BANK N/WET RWY
0098724088137071972011018004+39133-075467SAO  +0009KDOV V0209991C000010024019N0112001N9+01061+00891101111ADDGF108991999999999999999999MA1101121100981MD1810171+9999MW1001REMAWY025F BANK N/817 16// WET RWY
0066724088137071972011019004+39133-075467SAO  +0009KDOV V0209991C000010024019N0048001N9+01061+00891999999ADDGF108991999999999999999999MA1101081999999MW1451REMAWY007WET RWY
0105724088137071972011020004+39133-075467SAO  +0009KDOV V0201201N002610003019N0008001N9+00891+00781999999ADDGF108991999999999999999999MA1101121999999MW1451REMAWY046IMR01VR40/R01VR50/F5/RCD45U100/150U280/WET RWY
0114724088137071972011021004+39133-075467SAO  +0009KDOV V0201101N002110006019N0004001N9+00891+00781101161ADDGF108991999999999999999999MA1101151101051MD1310051+9999MW1451MW2511MW3611REMAWY029IMR01VR24/R01VR34/305 WET RWY
0090724088137071972011022004+39133-075467SAO  +0009KDOV V0201001N002610003019N0002001N9+00891+00781999999ADDGF108991999999999999999999MA1101121999999MW1451MW2611REMAWY025IMR01VR16/R01VR14 WET RWY
0101724088137071972011023004+39133-075467SAO  +0009KDOV V0201201N002610009019N0008001N9+00891+00831999999ADDGF108991999999999999999999MA1101151999999MW1451MW2611REMAWY036IMR01VR22/R01VR18/VSBY N 3/4 WET RWY
0140724088137071972011100004+39133-075467SAO  +0009KDOV V0201101N002610006019N0020001N9+00831+00781101131ADDAA106000391AA224999999GF108991999999999999999999MA1101121101021MD1810031+9999MW1451MW2611REMAWY039IMR01VR45/R01VR30/F7/80301 17// WET RWY
0069724088137071972011101004+39133-075467SAO  +0009KDOV V0201401N004110006019N0028001N9+00891+00831999999ADDGF108991999999999999999999MA1101191999999MW1451REMAWY010F6 WET RWY
0069724088137071972011102004+39133-075467SAO  +0009KDOV V0201501N003610009019N0036001N9+00941+00891999999ADDGF108991999999999999999999MA1101191999999MW1451REMAWY010F3 WET RWY
0108724088137071972011103004+39133-075467SAO  +0009KDOV V0201301N001010003019N0016001N9+00941+00891101151ADDGF108991999999999999999999MA1101151101021MD1010021+9999MW1451MW2511REMAWY029IMR01VR45/R01VR60/002 WET RWY
0069724088137071972011104004+39133-075467SAO  +0009KDOV V0209991C000010006019N0024001N9+00831+00721999999ADDGF108991999999999999999999MA1101121999999MW1451REMAWY010F9 WET RWY
0084724088137071972011105004+39133-075467SAO  +0009KDOV V0209991C000010003019N0004001N9+00781+00721999999ADDGF108991999999999999999999MA1101051999999MW1451REMAWY025IMR01VR12/R01VR18 WET RWY
0127724088137071972011106004+39133-075467SAO  +0009KDOV V0209991C000010003019N0002001N9+00781+00781101031ADDAA106000391AA224999999GF108991999999999999999999MA1101021100911MD1610121+9999MW1451REMAWY032IMR01VR10-/R01VR12/61201 WET RWY
0085724088137071972011107004+39133-075467SAO  +0009KDOV V0202301N000510003019N0002001N9+01001+00891999999ADDGF108991999999999999999999MA1101051999999MW1451REMAWY026IMR01VR10-/R01VR14 WET RWY
0090724088137071972011108004+39133-075467SAO  +0009KDOV V0209991C000010003019N0004001N9+01111+01111999999ADDGF108991999999999999999999MA1101081999999MW1451MW2511REMAWY025IMR01VR10/R01VR12 WET RWY
0102724088137071972011109004+39133-075467SAO  +0009KDOV V0202201N001510006019N0008001N9+01171+01111101081ADDGF108991999999999999999999MA1101081100951MD1110051+9999MW1451REMAWY029IMR01VR24/R01VR24/105 WET RWY
0066724088137071972011110004+39133-075467SAO  +0009KDOV V0202101N002110018019N0048001N9+01171+01111999999ADDGF108991999999999999999999MA1101051999999MW1451REMAWY007WET RWY
0066724088137071972011111004+39133-075467SAO  +0009KDOV V0202101N002610021019N0048001N9+01171+01111999999ADDGF108991999999999999999999MA1101121999999MW1451REMAWY007WET RWY
0119724088137071972011112004+39133-075467SAO  +0009KDOV V0202101N002110036019N0048001N9+01171+01061101181ADDAA106999929AA224999999GF108991999999999999999999MA1101191101051MD1110101+9999MW1451REMAWY02411000 16// 20002 WET RWY
0072724088137071972011113004+39133-075467SAO  +0009KDOV V0202201N003610150019N0048001N9+01171+01061999999ADDGF108991999999999999999999MA1101291999999MW1451MW2801REMAWY007WET RWY
0072724088137071972011114004+39133-075467SAO  +0009KDOV V0202301N003610180019N0048001N9+01171+01111999999ADDGF108991999999999999999999MA1101321999999MW1451MW2801REMAWY007WET RWY
0095724088137071972011115004+39133-075467SAO  +0009KDOV V0202001N002610036019N0040001N9+01221+01111101381ADDGF108991999999999999999999MA1101391101251MD1110201+9999MW1451MW2801REMAWY016120 172/ WET RWY
0089724088137071972011116004+39133-075467SAO  +0009KDOV V0202601N001010036019N0040001N9+01281+01171999999ADDGF108991999999999999999999MA1101291999999MW1451MW2801REMAWY024WND LGT AND VRBL/WET RWY
0081724088137071972011117004+39133-075467SAO  +0009KDOV V0202701N003610090019N0080001N9+01331+01171999999ADDGF108991999999999999999999MA1101251999999MW1111MW2801REMAWY016RGD ST N/WET RWY
0113724088137071972011118004+39133-075467SAO  +0009KDOV V0202301N003110090019N0112001N9+01281+01111101181ADDAA106003091AA224999999GF108991999999999999999999MA1101191101051MD1610201+9999MW1611REMAWY01862010 172/ WET RWY
0080724088137071972011119004+39133-075467SAO  +0009KDOV V0202101N003110240019N0112001N9+01331+01111999999ADDGF108991999999999999999999MA1101081999999MW1001REMAWY021ST S-SE AND N/WET RWY
0066724088137071972011120004+39133-075467SAO  +0009KDOV V0201801N003110240019N0112001N9+01281+01111999999ADDGF108991999999999999999999MA1101051999999MW1001REMAWY007WET RWY
0106724088137071972011121004+39133-075467SAO  +0009KDOV V0202001N002110150019N0112001N9+01281+01111101111ADDGF108991999999999999999999MA1101121100981MD1510071+9999MW1001REMAWY033RCD?320/ST SW-NW/507 1677 WET RWY
0077724088137071972011122004+39133-075467SAO  +0009KDOV V0202201N002110120019N0112001N9+01221+01061999999ADDGF108991999999999999999999MA1101121999999MW1001REMAWY018RCD250U350/WET RWY
0073724088137071972011123004+39133-075467SAO  +0009KDOV V0201801N001010120019N0112001N9+01171+01001999999ADDGF108991999999999999999999MA1101081999999MW1001REMAWY014RCD?55/WET RWY
0134724088137071972011200004+39133-075467SAO  +0009KDOV V0201801N002110045019N0080001N9+01171+01061101081ADDAA106999929AA224999999GF108991999999999999999999MA1101081100951MD1810031+9999MW1111MW2511REMAWY033RCD?55/260U390/80300 17// WET RWY
0066724088137071972011201004+39133-075467SAO  +0009KDOV V0201901N003110036019N0112001N9+01221+01061999999ADDGF108991999999999999999999MA1101081999999MW1001REMAWY007WET RWY
0077724088137071972011202004+39133-075467SAO  +0009KDOV V0202201N003110090019N0112001N9+01171+01061999999ADDGF108991999999999999999999MA1101021999999MW1001REMAWY018RCD270U310/WET RWY
0089724088137071972011203004+39133-075467SAO  +0009KDOV V0202101N003612200019N0112001N9+01111+00941101041ADDGF102991999999999999999999MA1101051100911MD1510031+9999MW1001REMAWY016503 1501 WET RWY
0066724088137071972011204004+39133-075467SAO  +0009KDOV V0202201N002612200019N0112001N9+01001+00891999999ADDGF102991999999999999999999MA1101121999999MW1001REMAWY007WET RWY
0050724088137071972011205004+39133-075467SAO  +0009KDOV V0202301N003610066019N0112001N9+01111+01001999999ADDGF108991999999999999999999MA1101081999999MW1001
0113724088137071972011206004+39133-075467SAO  +0009KDOV V0202701N004110180019N0112001N9+01111+00941101161ADDAA106999929AA224999999GF108991999999999999999999MA1101151101051MD1210121+9999MW1001REMAWY01821200 15// WET RWY
0078724088137071972011207004+39133-075467SAO  +0009KDOV V0202801N004112200019N0112001N9+01111+00891999999ADDGF102991999999999999999999MA1101291999999MW1001REMAWY019WND 260V310 WET RWY
0050724088137071972011208004+39133-075467SAO  +0009KDOV V0203001N003112200019N0112001N9+01001+00501999999ADDGF100991999999999999999999MA1101421999999MW1001
0081724088137071972011209004+39133-075467SAO  +0009KDOV V0203101N003112200019N0112001N9+00891+00331101501ADDGF102991999999999999999999MA1101491101391MD1110341+9999MW1001REMAWY008134 1500
0050724088137071972011210004+39133-075467SAO  +0009KDOV V0203001N003112200019N0112001N9+00781+00171999999ADDGF100991999999999999999999MA1101561999999MW1001
0050724088137071972011211004+39133-075467SAO  +0009KDOV V0203101N002112200019N0112001N9+00671+00061999999ADDGF100991999999999999999999MA1101631999999MW1001
0098724088137071972011212004+39133-075467SAO  +0009KDOV V0203201N003112200019N0112001N9+00561-00171101771ADDAA124999999GF102991999999999999999999MA1101761101661MD1310271+9999MW1001REMAWY014327 1001 20010
0050724088137071972011213004+39133-075467SAO  +0009KDOV V0203501N002112200019N0112001N9+00611-00061999999ADDGF102991999999999999999999MA1101931999999MW1001
0050724088137071972011214004+39133-075467SAO  +0009KDOV V0200301N001012200019N0112001N9+00611+00061999999ADDGF102991999999999999999999MA1102071999999MW1001
0081724088137071972011215004+39133-075467SAO  +0009KDOV V0200101N003612200019N0112001N9+00781+00061102131ADDGF102991999999999999999999MA1102131102001MD1110361+9999MW1001REMAWY008136 1008
0050724088137071972011216004+39133-075467SAO  +0009KDOV V0200701N002612200019N0112001N9+00781+00111999999ADDGF102991999999999999999999MA1102201999999MW1001
0050724088137071972011217004+39133-075467SAO  +0009KDOV V0201001N004112200019N0112001N9+00891+00001999999ADDGF102991999999999999999999MA1102131999999MW1001
0098724088137071972011218004+39133-075467SAO  +0009KDOV V0201301N001012200019N0112001N9+00941-00061102081ADDGF102991999999999999999999MA1102071101961MD1810051+9999MW1001REMAWY025WND LGT AND VRBL/805 1008
0050724088137071972011219004+39133-075467SAO  +0009KDOV V0201301N003112200019N0112001N9+00941-00391999999ADDGF102991999999999999999999MA1102031999999MW1001
0050724088137071972011220004+39133-075467SAO  +0009KDOV V0201301N004112200019N0112001N9+00891-00171999999ADDGF102991999999999999999999MA1102031999999MW1001
0081724088137071972011221004+39133-075467SAO  +0009KDOV V0201701N003112200019N0112001N9+00891-00171102031ADDGF102991999999999999999999MA1102031101901MD1610051+9999MW1001REMAWY008605 1008
0050724088137071972011222004+39133-075467SAO  +0009KDOV V0201301N005110450019N0112001N9+00721+00111999999ADDGF107991999999999999999999MA1102071999999MW1001
0072724088137071972011223004+39133-075467SAO  +0009KDOV V0201301N004112200019N0112001N9+00671+00331999999ADDGF100991999999999999999999MA1102031999999MW1001REMAWY013AC W-N/CI W-N
0064724088137071972011300004+39133-075467SAO  +0009KDOV V0201301N002112200019N0112001N9+00611+00331102061ADDGF100991999999999999999999MA1102071101931MD1310031+9999MW1001
0064724088137071972011301004+39133-075467SAO  +0009KDOV V0201301N002112200019N0112001N9+00611+00331999999ADDGF100991999999999999999999MA1102001999999MW1001REMAWY005AC NW
0050724088137071972011302004+39133-075467SAO  +0009KDOV V0201401N003612200019N0112001N9+00671+00391999999ADDGF102991999999999999999999MA1101901999999MW1001
0081724088137071972011303004+39133-075467SAO  +0009KDOV V0201401N002612200019N0112001N9+00671+00441101931ADDGF102991999999999999999999MA1101931101791MD1510141+9999MW1001REMAWY008514 1070
0050724088137071972011304004+39133-075467SAO  +0009KDOV V0201001N000512200019N0112001N9+00501+00331999999ADDGF100991999999999999999999MA1101831999999MW1001
0050724088137071972011305004+39133-075467SAO  +0009KDOV V0200901N001512200019N0096001N9+00501+00391999999ADDGF102991999999999999999999MA1101761999999MW1051
0064724088137071972011306004+39133-075467SAO  +0009KDOV V0201401N002612200019N0096001N9+00561+00441101671ADDGF100991999999999999999999MA1101661101561MD1710251+9999MW1051
0050724088137071972011307004+39133-075467SAO  +0009KDOV V0201501N002612200019N0096001N9+00561+00441999999ADDGF100991999999999999999999MA1101661999999MW1051
0080724088137071972011308004+39133-075467SAO  +0009KDOV V0201701N002112200019N0080001N9+00441+00331999999ADDGF100991999999999999999999MA1101591999999MW1051MW2111REMAWY015VSBY DCRG SLOLY
0094724088137071972011309004+39133-075467SAO  +0009KDOV V0201801N004110009019N0004001N9+00561+00441101521ADDGF108991999999999999999999MA1101521101391MD1710151+9999MW1451REMAWY021IMR01VR14/R01VR45/715
0077724088137071972011310004+39133-075467SAO  +0009KDOV V0201901N003110006019N0002001N9+00781+00721999999ADDGF108991999999999999999999MA1101491999999MW1451REMAWY018IMR01VR10/R01VR10-
0077724088137071972011311004+39133-075467SAO  +0009KDOV V0209991C000010003019N0002001N9+00831+00781999999ADDGF108991999999999999999999MA1101421999999MW1451REMAWY018IMR01VR10/R01VR10-
0120724088137071972011312004+39133-075467SAO  +0009KDOV V0201601N002610006019N0004001N9+00891+00831101351ADDAA124999999GF108991999999999999999999MA1101351101221MD1710171+9999MW1451REMAWY036IMR01VR12/R01VR12/VSBY 3/16V5/16/717
0076724088137071972011313004+39133-075467SAO  +0009KDOV V0202201N001510006019N0003001N9+01001+00941999999ADDGF108991999999999999999999MA1101391999999MW1451REMAWY017IMR01VR12/R01VR12
0076724088137071972011314004+39133-075467SAO  +0009KDOV V0202001N001510009019N0024001N9+01111+01061999999ADDGF108991999999999999999999MA1101351999999MW1451REMAWY017IMR01VR40/R01VR20
0094724088137071972011315004+39133-075467SAO  +0009KDOV V0201401N003110003019N0004001N9+01171+01061101381ADDGF108991999999999999999999MA1101391101251MD1310031+9999MW1451REMAWY021IMR01VR18/R01VR18/303
0050724088137071972011316004+39133-075467SAO  +0009KDOV V0201501N003610015019N0048001N9+01221+01111999999ADDGF108991999999999999999999MA1101221999999MW1451
0097724088137071972011317004+39133-075467SAO  +0009KDOV V0201401N003610003019N0008001N9+01061+00941999999ADDGF108991999999999999999999MA1101121999999MW1451MW2611REMAWY032IMR01VR45/R01VR30 VSBY OCNLY 5/8
0119724088137071972011318004+39133-075467SAO  +0009KDOV V0201401N003610006019N0048001N9+01111+01001100901ADDAA106005091AA224999999GF108991999999999999999999MA1100911100781MD1610471+9999MW1451MW2611REMAWY01864718 17// WET RWY
0050724088137071972011319004+39133-075467SAO  +0009KDOV V0201701N004110012019N0048001N9+01331+01281999999ADDGF108991999999999999999999MA1100781999999MW1451
0066724088137071972011320004+39133-075467SAO  +0009KDOV V0201801N005110030019N0080001N9+01501+01391999999ADDGF108991999999999999999999MA1100711999999MW1451REMAWY007WET RWY
0111724088137071972011321004+39133-075467SAO  +0009KDOV V0201701N006210066019N0080001N9+01561+01391100691ADDGF108991999999999999999999MA1100681100581MD1610221+9999MW1451REMAWY038VSBY LWR NE/F BANK NE/622 16// WET RWY
0086724088137071972011322004+39133-075467SAO  +0009KDOV V0201801N007710048019N0112001N9+01671+01441999999ADDGF108991999999999999999999MA1100541999999MW1001OC101081REMAWY019WND 160V220 WET RWY
0066724088137071972011323004+39133-075467SAO  +0009KDOV V0201901N006210048019N0112001N9+01561+01391999999ADDGF108991999999999999999999MA1100581999999MW1001REMAWY007WET RWY
0121724088137071972011400004+39133-075467SAO  +0009KDOV V0201901N008210120019N0112001N9+01671+01391100551ADDAA106000591AA224999999GF108991999999999999999999MA1100541100441MD1710141+9999MW1001OC101031REMAWY01871402 15// WET RWY
0082724088137071972011401004+39133-075467SAO  +0009KDOV V0202001N008210300019N0112001N9+01671+01441999999ADDGF108991999999999999999999MA1100471999999MW1001OC101131REMAWY015RCD?250 WET RWY
0082724088137071972011402004+39133-075467SAO  +0009KDOV V0202101N010310450019N0112001N9+01831+01501999999ADDGF108991999999999999999999MA1100411999999MW1001OC101341REMAWY015RCD?280 WET RWY
0140724088137071972011403004+39133-075467SAO  +0009KDOV V0202101N012310060019N0080001N9+01721+01441100431ADDGF108991999999999999999999MA1100441100301MD1510121+9999MW1801OC101591REMAWY059CB S MOVG NNE/OCNL LTGIC S/PK WND 21/45 13/512 137/ WET RWY
0117724088137071972011404004+39133-075467SAO  +0009KDOV V0202101N009310390019N0112001N9+01671+01331999999ADDGF108991999999999999999999MA1100341999999MW1001OC101291REMAWY050RCD?170/230U300/CB 15SE MOVG NE/OCNL LTGIC/WET RWY
0082724088137071972011405004+39133-075467SAO  +0009KDOV V0202101N006710300019N0112001N9+01611+01331999999ADDGF108991999999999999999999MA1100341999999MW1001OC101031REMAWY015RCD?130/WET RWY
0133724088137071972011406004+39133-075467SAO  +0009KDOV V0202201N007710096019N0112001N9+01721+01001100371ADDAA106001091AA224999999GF108991999999999999999999MA1100371100241MD1510071+9999MW1001OC101181REMAWY030RCD 200U300/50703 157/ WET RWY
0088724088137071972011407004+39133-075467SAO  +0009KDOV V0203501N010310090019N0112001N9+00941+00611999999ADDGF108991999999999999999999MA1100781999999MW1801OC101341REMAWY021RCD?60/PRESRR/WET RWY
0088724088137071972011408004+39133-075467SAO  +0009KDOV V0203301N007210105019N0112001N9+00781+00331999999ADDGF108991999999999999999999MA1101021999999MW1001OC101131REMAWY021RCD?80/PRESRR/WET RWY
0119724088137071972011409004+39133-075467SAO  +0009KDOV V0203301N008210048019N0112001N9+00501+00171101211ADDGF108991999999999999999999MA1101221101081MD1210851+9999MW1801OC101081REMAWY038RCD?80/250U320/PRESRR/285 17// WET RWY
0081724088137071972011410004+39133-075467SAO  +0009KDOV V0203501N006210048019N0112001N9+00331+00061999999ADDGF108991999999999999999999MA1101321999999MW1801REMAWY022RCD?60/100U150/WET RWY
0090724088137071972011411004+39133-075467SAO  +0009KDOV V0203501N007210054019N0080001N9+00171-00111999999ADDGF108991999999999999999999MA1101521999999MW1801OC100871REMAWY023RCD?150/CIG RGD/WET RWY
0123724088137071972011412004+39133-075467SAO  +0009KDOV V0203501N005710075019N0112001N9+00171-00221101701ADDAA106008091AA224999999GF108991999999999999999999MA1101691101591MD1110491+9999MW1001REMAWY028?V%/14930 157/ 20053 WET RWY
0073724088137071972011413004+39133-075467SAO  +0009KDOV V0203501N007210135019N0112001N9+00061-00441999999ADDGF108991999999999999999999MA1101901999999MW1001REMAWY014PRESRR WET RWY
0066724088137071972011414004+39133-075467SAO  +0009KDOV V0203401N006710150019N0112001N9+00111-00561999999ADDGF108991999999999999999999MA1102031999999MW1001REMAWY007WET RWY
0089724088137071972011415004+39133-075467SAO  +0009KDOV V0203501N006710240019N0112001N9+00111-00671102201ADDGF108991999999999999999999MA1102201102071MD1210491+9999MW1001REMAWY016249 107/ WET RWY
0066724088137071972011416004+39133-075467SAO  +0009KDOV V0203601N007210270019N0112001N9+00171-00611999999ADDGF108991999999999999999999MA1102241999999MW1001REMAWY007WET RWY
0066724088137071972011417004+39133-075467SAO  +0009KDOV V0203501N006710270019N0112001N9+00111-00721999999ADDGF108991999999999999999999MA1102301999999MW1001REMAWY007WET RWY
0105724088137071972011418004+39133-075467SAO  +0009KDOV V0203501N007210270019N0112001N9+00171-00721102261ADDAA106999929AA224999999GF108991999999999999999999MA1102271102131MD1010071+9999MW1001REMAWY01000700 107/
0050724088137071972011419004+39133-075467SAO  +0009KDOV V0200101N006710270019N0112001N9+00221-00781999999ADDGF108991999999999999999999MA1102271999999MW1001
0050724088137071972011420004+39133-075467SAO  +0009KDOV V0200101N005710270019N0112001N9+00221-00781999999ADDGF107991999999999999999999MA1102401999999MW1001
0081724088137071972011421004+39133-075467SAO  +0009KDOV V0203601N005112200019N0112001N9+00171-00831102541ADDGF107991999999999999999999MA1102541102401MD1310271+9999MW1001REMAWY008327 1078
0050724088137071972011422004+39133-075467SAO  +0009KDOV V0203601N002612200019N0112001N9+00061-00781999999ADDGF108991999999999999999999MA1102641999999MW1001
0050724088137071972011423004+39133-075467SAO  +0009KDOV V0203501N002112200019N0112001N9+00061-00671999999ADDGF108991999999999999999999MA1102711999999MW1001
0081724088137071972011500004+39133-075467SAO  +0009KDOV V0203401N002612200019N0112001N9+00001-00721102791ADDGF108991999999999999999999MA1102781102681MD1210251+9999MW1001REMAWY008225 1017
0066724088137071972011501004+39133-075467SAO  +0009KDOV V0203601N003610750019N0112001N9+00061-00831999999ADDGF108991999999999999999999MA1102881999999MW1001REMAWY007RCD?310
0050724088137071972011502004+39133-075467SAO  +0009KDOV V0203601N002112200019N0112001N9-00061-00721999999ADDGF108991999999999999999999MA1102841999999MW1001
0089724088137071972011503004+39133-075467SAO  +0009KDOV V0203401N001512200019N0112001N9-00111-00721102881ADDGF108991999999999999999999MA1102881102741MD1110081+9999MW1001REMAWY016RCD?320/108 1017
0050724088137071972011504004+39133-075467SAO  +0009KDOV V0203501N002112200019N0112001N9-00111-00781999999ADDGF108991999999999999999999MA1102811999999MW1001
0050724088137071972011505004+39133-075467SAO  +0009KDOV V0200101N001512200019N0112001N9-00171-00781999999ADDGF108991999999999999999999MA1102781999999MW1001
0081724088137071972011506004+39133-075467SAO  +0009KDOV V0200101N001012200019N0112001N9-00221-00721102791ADDGF108991999999999999999999MA1102781102681MD1610081+9999MW1001REMAWY008608 1507
0066724088137071972011507004+39133-075467SAO  +0009KDOV V0203601N002112200019N0112001N9-00221-00721999999ADDGF108991999999999999999999MA1102781999999MW1001REMAWY007RCD?300
0050724088137071972011508004+39133-075467SAO  +0009KDOV V0203601N002112200019N0112001N9-00221-00721999999ADDGF107991999999999999999999MA1102781999999MW1001
0081724088137071972011509004+39133-075467SAO  +0009KDOV V0200201N001512200019N0112001N9-00281-00721102751ADDGF107991999999999999999999MA1102741102641MD1810031+9999MW1001REMAWY008803 1017
0050724088137071972011510004+39133-075467SAO  +0009KDOV V0203401N001012200019N0112001N9-00171-00611999999ADDGF108991999999999999999999MA1102741999999MW1001
0071724088137071972011511004+39133-075467SAO  +0009KDOV V0203501N002112200019N0112001N9-00171-00721999999ADDGF108991999999999999999999MA1102781999999MW1001REMAWY012RCD%250/?330
0100724088137071972011512004+39133-075467SAO  +0009KDOV V0203401N002612200019N0112001N9-00171-00781102841ADDAA124999999GF108991999999999999999999MA1102841102711MD1310081+9999MW1001REMAWY016RCD?320/308 1017
0066724088137071972011513004+39133-075467SAO  +0009KDOV V0203501N004610690019N0112001N9-00111-00781999999ADDGF108991999999999999999999MA1102841999999MW1001REMAWY007RCD?340
0066724088137071972011514004+39133-075467SAO  +0009KDOV V0203501N004110660019N0112001N9-00111-00721999999ADDGF108991999999999999999999MA1102841999999MW1001REMAWY007RCD?320
0089724088137071972011515004+39133-075467SAO  +0009KDOV V0203501N010310600019N0112001N9-00111-00831102881ADDGF108991999999999999999999MA1102881102741MD1310031+9999MW1001REMAWY016RCD?330/303 1577
0066724088137071972011516004+39133-075467SAO  +0009KDOV V0203401N007210660019N0112001N9-00061-01111999999ADDGF108991999999999999999999MA1102841999999MW1001REMAWY007RCD?280
0074724088137071972011517004+39133-075467SAO  +0009KDOV V0203401N008710660019N0112001N9-00111-01281999999ADDGF108991999999999999999999MA1102711999999MW1001OC101031REMAWY007RCD?280
0109724088137071972011518004+39133-075467SAO  +0009KDOV V0203501N007210660019N0112001N9-00111-01331102651ADDGF108991999999999999999999MA1102641102541MD1710221+9999MW1001REMAWY036RCD?270/AC SW-W-N/BINOVC NW/722 1077
0075724088137071972011519004+39133-075467SAO  +0009KDOV V0203301N007210750019N0112001N9-00171-01281999999ADDGF108991999999999999999999MA1102641999999MW1001REMAWY016RCD?310/BINOVC W
0074724088137071972011520004+39133-075467SAO  +0009KDOV V0203301N007210810019N0112001N9-00171-01221999999ADDGF108991999999999999999999MA1102681999999MW1001OC100981REMAWY007RCD?320
0097724088137071972011521004+39133-075467SAO  +0009KDOV V0203401N007210240019N0112001N9-00221-01221102671ADDGF108991999999999999999999MA1102681102541MD1310021+9999MW1001OC101031REMAWY016RCD?170/302 1071
0058724088137071972011522004+39133-075467SAO  +0009KDOV V0203301N007212200019N0112001N9-00391-01221999999ADDGF102991999999999999999999MA1102741999999MW1001OC101031
0058724088137071972011523004+39133-075467SAO  +0009KDOV V0203301N007210240019N0112001N9-00501-01281999999ADDGF107991999999999999999999MA1102841999999MW1001OC101031
0089724088137071972011600004+39133-075467SAO  +0009KDOV V0203301N007710300019N0112001N9-00501-01501102861ADDGF107991999999999999999999MA1102841102741MD1110191+9999MW1001OC101231REMAWY008119 1070
0058724088137071972011601004+39133-075467SAO  +0009KDOV V0203401N008210210019N0112001N9-00611-01561999999ADDGF107991999999999999999999MA1102881999999MW1001OC101231
0058724088137071972011602004+39133-075467SAO  +0009KDOV V0203301N008212200019N0112001N9-00721-01561999999ADDGF100991999999999999999999MA1102911999999MW1001OC101391
0072724088137071972011603004+39133-075467SAO  +0009KDOV V0203201N008712200019N0112001N9-00831-01721102941ADDGF100991999999999999999999MA1102951102811MD1110081+9999MW1001OC101231
0058724088137071972011604004+39133-075467SAO  +0009KDOV V0203301N009312200019N0112001N9-00941-01941999999ADDGF100991999999999999999999MA1103081999999MW1001OC101391
0058724088137071972011605004+39133-075467SAO  +0009KDOV V0203401N007712200019N0112001N9-01061-01941999999ADDGF100991999999999999999999MA1103121999999MW1001OC101131
0072724088137071972011606004+39133-075467SAO  +0009KDOV V0203301N010312200019N0112001N9-01171-01941103111ADDGF100991999999999999999999MA1103121102981MD1110171+9999MW1001OC101491
0085724088137071972011607004+39133-075467SAO  +0009KDOV V0203501N007210072019N0032001N9-01221-01671999999ADDGF107991999999999999999999MA1103251999999MW1851OC101231REMAWY018IMR01VR60+/R01VR50
0058724088137071972011608004+39133-075467SAO  +0009KDOV V0203301N009312200019N0112001N9-01331-02061999999ADDGF102991999999999999999999MA1103321999999MW1001OC101341
0072724088137071972011609004+39133-075467SAO  +0009KDOV V0203401N008212200019N0112001N9-01391-02331103401ADDGF100991999999999999999999MA1103391103281MD1210291+9999MW1001OC101491
0058724088137071972011610004+39133-075467SAO  +0009KDOV V0203301N006212200019N0112001N9-01441-02611999999ADDGF100991999999999999999999MA1103421999999MW1001OC101031
0058724088137071972011611004+39133-075467SAO  +0009KDOV V0203401N009312200019N0112001N9-01441-02781999999ADDGF100991999999999999999999MA1103521999999MW1001OC101491
0122724088137071972011612004+39133-075467SAO  +0009KDOV V0203401N006212200019N0112001N9-01441-02611103591ADDAA106999929AA224999999GF100991999999999999999999MA1103591103451MD1210191+9999MW1001OC101231REMAWY019SC NE-SE/21900 1500
0075724088137071972011613004+39133-075467SAO  +0009KDOV V0203301N007212200019N0112001N9-01441-02501999999ADDGF100991999999999999999999MA1103691999999MW1001OC101131REMAWY008SC NE-SE
0075724088137071972011614004+39133-075467SAO  +0009KDOV V0203201N008712200019N0112001N9-01331-02391999999ADDGF100991999999999999999999MA1103791999999MW1001OC101131REMAWY008SC NE-SE
0098724088137071972011615004+39133-075467SAO  +0009KDOV V0203201N010312200019N0112001N9-01221-02281103871ADDGF100991999999999999999999MA1103861103761MD1110291+9999MW1001OC101291REMAWY017SC NE-SE/129 1500
0075724088137071972011616004+39133-075467SAO  +0009KDOV V0203201N009312200019N0112001N9-01111-02221999999ADDGF100991999999999999999999MA1103791999999MW1001OC101341REMAWY008SC ALQDS
0058724088137071972011617004+39133-075467SAO  +0009KDOV V0203301N008212200019N0112001N9-01001-02221999999ADDGF102991999999999999999999MA1103661999999MW1001OC101341
0101724088137071972011618004+39133-075467SAO  +0009KDOV V0203101N007212200019N0112001N9-00941-02221103551ADDGF102991999999999999999999MA1103561103421MD1810321+9999MW1001OC101341REMAWY020VIRGA ALQDS/832 1500
0078724088137071972011619004+39133-075467SAO  +0009KDOV V0203301N009312200019N0112001N9-00831-02221999999ADDGF102991999999999999999999MA1103521999999MW1001OC101291REMAWY011VIRGA ALQDS
0075724088137071972011620004+39133-075467SAO  +0009KDOV V0203201N010312200019N0112001N9-00891-02281999999ADDGF100991999999999999999999MA1103561999999MW1001OC101341REMAWY008SC ALQDS
0111724088137071972011621004+39133-075467SAO  +0009KDOV V0203201N006712200019N0112001N9-00831-02281103621ADDGF100991999999999999999999MA1103621103491MD1310071+9999MW1001OC101291REMAWY030SC N-E-SE/WND 300V350/307 1500
0087724088137071972011622004+39133-075467SAO  +0009KDOV V0203201N006712200019N0112001N9-00891-02221999999ADDGF100991999999999999999999MA1103661999999MW1001OC100981REMAWY020SC NE-SE/WND 300V350
0070724088137071972011623004+39133-075467SAO  +0009KDOV V0203201N007212200019N0112001N9-00941-02171999999ADDGF100991999999999999999999MA1103691999999MW1001REMAWY011WND 300V340
0064724088137071972011700004+39133-075467SAO  +0009KDOV V0203301N004612200019N0112001N9-01001-02111103721ADDGF100991999999999999999999MA1103731103591MD1210101+9999MW1001
0050724088137071972011701004+39133-075467SAO  +0009KDOV V0203201N004112200019N0112001N9-01061-02061999999ADDGF100991999999999999999999MA1103761999999MW1001
0050724088137071972011702004+39133-075467SAO  +0009KDOV V0202901N003612200019N0112001N9-01111-02001999999ADDGF100991999999999999999999MA1103761999999MW1001
0064724088137071972011703004+39133-075467SAO  +0009KDOV V0202801N003112200019N0112001N9-01111-02061103721ADDGF100991999999999999999999MA1103731103591MD1010001+9999MW1001
0050724088137071972011704004+39133-075467SAO  +0009KDOV V0202801N003112200019N0112001N9-01171-02061999999ADDGF100991999999999999999999MA1103731999999MW1001
0050724088137071972011705004+39133-075467SAO  +0009KDOV V0203001N003112200019N0112001N9-01111-02111999999ADDGF100991999999999999999999MA1103661999999MW1001
0064724088137071972011706004+39133-075467SAO  +0009KDOV V0202801N001512200019N0112001N9-01171-02061103591ADDGF100991999999999999999999MA1103591103451MD1810141+9999MW1001
0050724088137071972011707004+39133-075467SAO  +0009KDOV V0202601N001012200019N0112001N9-01171-02001999999ADDGF100991999999999999999999MA1103561999999MW1001
0050724088137071972011708004+39133-075467SAO  +0009KDOV V0202601N002112200019N0112001N9-01171-01941999999ADDGF100991999999999999999999MA1103561999999MW1001
0085724088137071972011709004+39133-075467SAO  +0009KDOV V0202401N000512200019N0112001N9-01171-01891103541ADDGF100991999999999999999999MA1103521103421MD1810051+9999MW1001REMAWY012K LYR SW/805
0050724088137071972011710004+39133-075467SAO  +0009KDOV V0202001N001012200019N0112001N9-01221-01781999999ADDGF100991999999999999999999MA1103451999999MW1001
0050724088137071972011711004+39133-075467SAO  +0009KDOV V0202001N001512200019N0112001N9-01221-01721999999ADDGF100991999999999999999999MA1103451999999MW1001
0097724088137071972011712004+39133-075467SAO  +0009KDOV V0202001N003112200019N0112001N9-01171-01721103431ADDAA124999999GF100991999999999999999999MA1103421103321MD1610101+9999MW1001REMAWY013AC N/610 1070
0065724088137071972011713004+39133-075467SAO  +0009KDOV V0202001N006212200019N0112001N9-01111-01721999999ADDGF102991999999999999999999MA1103391999999MW1001REMAWY006AC W-N
0050724088137071972011714004+39133-075467SAO  +0009KDOV V0202201N006712200019N0112001N9-00831-01781999999ADDGF102991999999999999999999MA1103391999999MW1001
0086724088137071972011715004+39133-075467SAO  +0009KDOV V0202201N007212200019N0112001N9-00611-01611103281ADDGF100991999999999999999999MA1103291103151MD1810151+9999MW1001REMAWY013AC N/815 1070
0078724088137071972011716004+39133-075467SAO  +0009KDOV V0202101N009312200019N0112001N9-00331-01671999999ADDGF102991999999999999999999MA1103151999999MW1001REMAWY019CI OVHD/WND 190V240
0058724088137071972011717004+39133-075467SAO  +0009KDOV V0202101N009312200019N0112001N9-00111-01781999999ADDGF102991999999999999999999MA1102981999999MW1001OC101231
0081724088137071972011718004+39133-075467SAO  +0009KDOV V0202401N008212200019N0112001N9-00061-01721102831ADDGF102991999999999999999999MA1102811102711MD1710461+9999MW1001REMAWY008746 1001
0065724088137071972011719004+39133-075467SAO  +0009KDOV V0202301N006212200019N0112001N9+00061-01561999999ADDGF100991999999999999999999MA1102711999999MW1001REMAWY006CI N-E
0064724088137071972011720004+39133-075467SAO  +0009KDOV V0202401N009312200019N0112001N9+00111-01441999999ADDGF100991999999999999999999MA1102681999999MW1001REMAWY005CI NW
0089724088137071972011721004+39133-075467SAO  +0009KDOV V0202201N006212200019N0112001N9+00061-01501102671ADDGF102991999999999999999999MA1102681102541MD1610151+9999MW1001OC100981REMAWY008615 1001
0050724088137071972011722004+39133-075467SAO  +0009KDOV V0202201N004612200019N0112001N9+00001-01441999999ADDGF107991999999999999999999MA1102681999999MW1001
0050724088137071972011723004+39133-075467SAO  +0009KDOV V0201901N004112200019N0112001N9-00221-01501999999ADDGF102991999999999999999999MA1102681999999MW1001
0081724088137071972011800004+39133-075467SAO  +0009KDOV V0202001N004112200019N0112001N9-00171-01501102681ADDGF102991999999999999999999MA1102681102571MD1310021+9999MW1001REMAWY008302 1008
0050724088137071972011801004+39133-075467SAO  +0009KDOV V0202101N004612200019N0112001N9-00171-01441999999ADDGF102991999999999999999999MA1102711999999MW1001
0050724088137071972011802004+39133-075467SAO  +0009KDOV V0202101N004112200019N0112001N9-00171-01441999999ADDGF100991999999999999999999MA1102711999999MW1001
0064724088137071972011803004+39133-075467SAO  +0009KDOV V0202101N005112200019N0112001N9-00171-01441102681ADDGF100991999999999999999999MA1102681102571MD1010001+9999MW1001
0050724088137071972011804004+39133-075467SAO  +0009KDOV V0202201N005112200019N0112001N9-00111-01221999999ADDGF100991999999999999999999MA1102681999999MW1001
0050724088137071972011805004+39133-075467SAO  +0009KDOV V0202201N004112200019N0112001N9-00221-01061999999ADDGF100991999999999999999999MA1102611999999MW1001
0064724088137071972011806004+39133-075467SAO  +0009KDOV V0202201N005112200019N0112001N9-00171-01111102591ADDGF100991999999999999999999MA1102571102471MD1810101+9999MW1001
0050724088137071972011807004+39133-075467SAO  +0009KDOV V0202101N004612200019N0112001N9-00221-01111999999ADDGF100991999999999999999999MA1102571999999MW1001
0050724088137071972011808004+39133-075467SAO  +0009KDOV V0202201N004612200019N0112001N9-00221-01171999999ADDGF100991999999999999999999MA1102571999999MW1001
0064724088137071972011809004+39133-075467SAO  +0009KDOV V0202201N004612200019N0112001N9-00221-01221102591ADDGF100991999999999999999999MA1102571102471MD1410001+9999MW1001
0050724088137071972011810004+39133-075467SAO  +0009KDOV V0202001N003112200019N0112001N9-00331-01171999999ADDGF100991999999999999999999MA1102611999999MW1001
0050724088137071972011811004+39133-075467SAO  +0009KDOV V0202001N003612200019N0112001N9-00331-01221999999ADDGF100991999999999999999999MA1102611999999MW1001
0075724088137071972011812004+39133-075467SAO  +0009KDOV V0201901N002112200019N0112001N9-00331-01171102651ADDAA124999999GF100991999999999999999999MA1102641102541MD1110071+9999MW1001
0050724088137071972011813004+39133-075467SAO  +0009KDOV V0209991C000012200019N0112001N9-00281-01221999999ADDGF100991999999999999999999MA1102681999999MW1001
0050724088137071972011814004+39133-075467SAO  +0009KDOV V0202401N003112200019N0112001N9+00061-01171999999ADDGF100991999999999999999999MA1102711999999MW1001
0064724088137071972011815004+39133-075467SAO  +0009KDOV V0202401N004112200019N0112001N9+00221-01221102741ADDGF100991999999999999999999MA1102741102611MD1210081+9999MW1001
0065724088137071972011816004+39133-075467SAO  +0009KDOV V0202101N003112200019N0112001N9+00441-01171999999ADDGF100991999999999999999999MA1102571999999MW1001REMAWY006PRESFR
0070724088137071972011817004+39133-075467SAO  +0009KDOV V0201801N004612200019N0112001N9+00611-01111999999ADDGF100991999999999999999999MA1102511999999MW1001REMAWY011WND 150V220
0088724088137071972011818004+39133-075467SAO  +0009KDOV V0202001N005112200019N0112001N9+00781-00941102401ADDGF100991999999999999999999MA1102401102271MD1710341+9999MW1001REMAWY015WND 160V220/734
0050724088137071972011819004+39133-075467SAO  +0009KDOV V0202101N006212200019N0112001N9+00891-00891999999ADDGF100991999999999999999999MA1102341999999MW1001
0050724088137071972011820004+39133-075467SAO  +0009KDOV V0201901N006712200019N0112001N9+00891-00831999999ADDGF100991999999999999999999MA1102271999999MW1001
0064724088137071972011821004+39133-075467SAO  +0009KDOV V0202101N005112200019N0112001N9+00831-00831102301ADDGF100991999999999999999999MA1102301102171MD1610101+9999MW1001
0064724088137071972011822004+39133-075467SAO  +0009KDOV V0202001N003112200019N0112001N9+00501-00781999999ADDGF100991999999999999999999MA1102271999999MW1001REMAWY005CS SW
0064724088137071972011823004+39133-075467SAO  +0009KDOV V0202001N004112200019N0112001N9+00331-00781999999ADDGF100991999999999999999999MA1102271999999MW1001REMAWY005CS SW
0064724088137071972011900004+39133-075467SAO  +0009KDOV V0201901N003112200019N0112001N9+00111-00831102301ADDGF100991999999999999999999MA1102301102171MD1410001+9999MW1001
0050724088137071972011901004+39133-075467SAO  +0009KDOV V0201801N003612200019N0112001N9+00061-00891999999ADDGF100991999999999999999999MA1102271999999MW1001
0050724088137071972011902004+39133-075467SAO  +0009KDOV V0202101N006212200019N0112001N9+00441-00831999999ADDGF100991999999999999999999MA1102201999999MW1001
0081724088137071972011903004+39133-075467SAO  +0009KDOV V0202101N007212200019N0112001N9+00501-00831102111ADDGF102991999999999999999999MA1102101102001MD1810191+9999MW1001REMAWY008819 1005
0050724088137071972011904004+39133-075467SAO  +0009KDOV V0202101N006212200019N0112001N9+00441-00831999999ADDGF102991999999999999999999MA1102031999999MW1001
0067724088137071972011905004+39133-075467SAO  +0009KDOV V0202201N007212200019N0112001N9+00611-00331999999ADDGF102991999999999999999999MA1101961999999MW1001REMAWY008SC NW-NE
0109724088137071972011906004+39133-075467SAO  +0009KDOV V0202201N008712200019N0112001N9+00781+00281101891ADDGF102991999999999999999999MA1101901101761MD1810221+9999MW1001OC101131REMAWY028AC N-NE/WND 180V240/822 1078
0058724088137071972011907004+39133-075467SAO  +0009KDOV V0202201N009312200019N0112001N9+00831+00391999999ADDGF102991999999999999999999MA1101861999999MW1001OC101291
0058724088137071972011908004+39133-075467SAO  +0009KDOV V0202101N009812200019N0112001N9+00831+00001999999ADDGF102991999999999999999999MA1101831999999MW1001OC101231
0094724088137071972011909004+39133-075467SAO  +0009KDOV V0202201N007712200019N0112001N9+00781+00001101741ADDGF102991999999999999999999MA1101731101631MD1810151+9999MW1001OC101341REMAWY013AC N/815 1078
0058724088137071972011910004+39133-075467SAO  +0009KDOV V0202301N006712200019N0112001N9+00721+00111999999ADDGF102991999999999999999999MA1101691999999MW1001OC100981
0058724088137071972011911004+39133-075467SAO  +0009KDOV V0202301N006212200019N0112001N9+00721+00111999999ADDGF102991999999999999999999MA1101731999999MW1001OC100871
0120724088137071972011912004+39133-075467SAO  +0009KDOV V0202301N007210180019N0112001N9+00831+00171101721ADDAA106999929AA224999999GF108991999999999999999999MA1101731101591MD1510021+9999MW1611OC100981REMAWY017RCD?90/50200 1577
0093724088137071972011913004+39133-075467SAO  +0009KDOV V0202301N008210210019N0112001N9+00891+00171999999ADDGF108991999999999999999999MA1101691999999MW1001OC101081REMAWY026RCD?160/OCNL RW--/VIRGA SW
0058724088137071972011914004+39133-075467SAO  +0009KDOV V0202401N008210600019N0112001N9+00941+00221999999ADDGF107991999999999999999999MA1101761999999MW1001OC101231
0089724088137071972011915004+39133-075467SAO  +0009KDOV V0202401N007712200019N0112001N9+01111+00221101841ADDGF107991999999999999999999MA1101831101731MD1310121+9999MW1001OC101081REMAWY008312 1078
0058724088137071972011916004+39133-075467SAO  +0009KDOV V0202401N006710420019N0112001N9+01331+00281999999ADDGF107991999999999999999999MA1101831999999MW1001OC101031
0050724088137071972011917004+39133-075467SAO  +0009KDOV V0202501N006710240019N0112001N9+01221+00331999999ADDGF108991999999999999999999MA1101801999999MW1001
0105724088137071972011918004+39133-075467SAO  +0009KDOV V0202501N006212200019N0112001N9+01281+00331101691ADDAA106999929AA224999999GF108991999999999999999999MA1101691101561MD1810151+9999MW1001REMAWY01081500 1077
0058724088137071972011919004+39133-075467SAO  +0009KDOV V0202601N005712200019N0112001N9+01501+00441999999ADDGF108991999999999999999999MA1101691999999MW1001OC100931
0058724088137071972011920004+39133-075467SAO  +0009KDOV V0202701N007212200019N0112001N9+01611+00391999999ADDGF108991999999999999999999MA1101691999999MW1001OC101031
0081724088137071972011921004+39133-075467SAO  +0009KDOV V0202701N005712200019N0112001N9+01561+00391101741ADDGF108991999999999999999999MA1101731101631MD1310051+9999MW1001REMAWY008305 1007
0050724088137071972011922004+39133-075467SAO  +0009KDOV V0202801N004112200019N0112001N9+01391+00331999999ADDGF107991999999999999999999MA1101861999999MW1001
0067724088137071972011923004+39133-075467SAO  +0009KDOV V0203401N003112200019N0112001N9+01061-00111999999ADDGF102991999999999999999999MA1102071999999MW1001REMAWY008AC SE-SW
0081724088137071972012000004+39133-075467SAO  +0009KDOV V0203401N006212200019N0112001N9+00941-00611102231ADDGF102991999999999999999999MA1102241102101MD1210491+9999MW1001REMAWY008249 1001
0050724088137071972012001004+39133-075467SAO  +0009KDOV V0203501N004112200019N0112001N9+00721-00721999999ADDGF100991999999999999999999MA1102301999999MW1001
0063724088137071972012002004+39133-075467SAO  +0009KDOV V0203501N002112200019N0112001N9+00561-00721999999ADDGF100991999999999999999999MA1102371999999MW1001REMAWY004CI N
0081724088137071972012003004+39133-075467SAO  +0009KDOV V0203301N002612200019N0112001N9+00501-00721102411ADDGF102991999999999999999999MA1102401102301MD1110191+9999MW1001REMAWY008119 1001
0050724088137071972012004004+39133-075467SAO  +0009KDOV V0203601N001512200019N0112001N9+00331-00721999999ADDGF100991999999999999999999MA1102441999999MW1001
0067724088137071972012005004+39133-075467SAO  +0009KDOV V0203401N002612200019N0112001N9+00331-00721999999ADDGF100991999999999999999999MA1102541999999MW1001REMAWY008CI N-NNE
0081724088137071972012006004+39133-075467SAO  +0009KDOV V0200101N002112200019N0112001N9+00061-00671102541ADDGF102991999999999999999999MA1102541102401MD1110121+9999MW1001REMAWY008112 1008
0050724088137071972012007004+39133-075467SAO  +0009KDOV V0200201N001512200019N0112001N9+00111-00721999999ADDGF102991999999999999999999MA1102571999999MW1001
0050724088137071972012008004+39133-075467SAO  +0009KDOV V0200101N002612200019N0112001N9+00061-00501999999ADDGF102991999999999999999999MA1102641999999MW1001
0081724088137071972012009004+39133-075467SAO  +0009KDOV V0200801N001512200019N0112001N9+00001-00501102641ADDGF102991999999999999999999MA1102641102511MD1110101+9999MW1001REMAWY008110 1008
0050724088137071972012010004+39133-075467SAO  +0009KDOV V0201501N000512200019N0112001N9-00111-00501999999ADDGF102991999999999999999999MA1102681999999MW1001
0075724088137071972012011004+39133-075467SAO  +0009KDOV V0201801N000512200019N0112001N9+00061-00501999999ADDGF102991999999999999999999MA1102641999999MW1001REMAWY016WND LGT AND VRBL
0109724088137071972012012004+39133-075467SAO  +0009KDOV V0201301N000512200019N0112001N9-00061-00441102671ADDAA124999999GF102991999999999999999999MA1102681102541MD1010031+9999MW1001REMAWY025WND LGT AND VRBL/003 1008
0071724088137071972012013004+39133-075467SAO  +0009KDOV V0201901N000512200019N0112001N9+00001-00391999999ADDGF107991999999999999999999MA1102641999999MW1001REMAWY012RCD%200/?260
0050724088137071972012014004+39133-075467SAO  +0009KDOV V0201901N000512200019N0112001N9+00391-00221999999ADDGF107991999999999999999999MA1102611999999MW1001
0081724088137071972012015004+39133-075467SAO  +0009KDOV V0201501N002612200019N0112001N9+00671-00111102641ADDGF107991999999999999999999MA1102641102511MD1610031+9999MW1001REMAWY008603 1009
0050724088137071972012016004+39133-075467SAO  +0009KDOV V0201401N004110750019N0112001N9+00721+00001999999ADDGF107991999999999999999999MA1102541999999MW1001
0068724088137071972012017004+39133-075467SAO  +0009KDOV V0201201N003610300019N0112001N9+00671+00111999999ADDGF108991999999999999999999MA1102341999999MW1001REMAWY009RINOVC SE
0081724088137071972012018004+39133-075467SAO  +0009KDOV V0201101N002110300019N0112001N9+00671+00171102201ADDGF108991999999999999999999MA1102201102071MD1710441+9999MW1001REMAWY008744 157/
0065724088137071972012019004+39133-075467SAO  +0009KDOV V0201101N002610300019N0112001N9+00561+00281999999ADDGF108991999999999999999999MA1102001999999MW1801REMAWY006PRESFR
0066724088137071972012020004+39133-075467SAO  +0009KDOV V0200201N001510150019N0112001N9+00501+00281999999ADDGF108991999999999999999999MA1101961999999MW1611REMAWY007WET RWY
0095724088137071972012021004+39133-075467SAO  +0009KDOV V0201201N003110120019N0080001N9+00501+00331101841ADDGF108991999999999999999999MA1101831101731MD1710361+9999MW1051MW2611REMAWY016736 15// WET RWY
0072724088137071972012022004+39133-075467SAO  +0009KDOV V0209991C000010114019N0064001N9+00561+00391999999ADDGF108991999999999999999999MA1101801999999MW1051MW2611REMAWY007WET RWY
0066724088137071972012023004+39133-075467SAO  +0009KDOV V0209991C000010105019N0112001N9+00501+00391999999ADDGF108991999999999999999999MA1101731999999MW1001REMAWY007WET RWY
0119724088137071972012100004+39133-075467SAO  +0009KDOV V0201901N002110105019N0112001N9+00501+00391101651ADDAA106000391AA224999999GF108991999999999999999999MA1101661101521MD1810191+9999MW1001REMAWY02435?V%/81901 1577 WET RWY
0074724088137071972012101004+39133-075467SAO  +0009KDOV V0209991C000010330019N0096001N9+00441+00331999999ADDGF108991999999999999999999MA1101591999999MW1051REMAWY015RCD?240/WET RWY
0074724088137071972012102004+39133-075467SAO  +0009KDOV V0202701N002110180019N0096001N9+00611+00441999999ADDGF108991999999999999999999MA1101561999999MW1051REMAWY015RCD?240/WET RWY
0097724088137071972012103004+39133-075467SAO  +0009KDOV V0202301N003110135019N0112001N9+00671+00501101541ADDGF108991999999999999999999MA1101521101421MD1610121+9999MW1001REMAWY024RCD?250/612 157/ WET RWY
0074724088137071972012104004+39133-075467SAO  +0009KDOV V0202301N005110120019N0112001N9+00891+00671999999ADDGF108991999999999999999999MA1101521999999MW1001REMAWY015RCD?240/WET RWY
0074724088137071972012105004+39133-075467SAO  +0009KDOV V0202301N006210450019N0112001N9+00891+00611999999ADDGF108991999999999999999999MA1101521999999MW1001REMAWY015RCD?260/WET RWY
0121724088137071972012106004+39133-075467SAO  +0009KDOV V0202301N004610360019N0112001N9+00891+00671101441ADDAA106999929AA224999999GF108991999999999999999999MA1101421101321MD1810101+9999MW1001REMAWY026RCD?240/81000 157/ WET RWY
0074724088137071972012107004+39133-075467SAO  +0009KDOV V0203001N003110300019N0112001N9+00781+00611999999ADDGF108991999999999999999999MA1101491999999MW1801REMAWY015RCD?220 WET RWY
0077724088137071972012108004+39133-075467SAO  +0009KDOV V0200201N002610024019N0080001N9+00501+00331999999ADDGF108991999999999999999999MA1101561999999MW1451REMAWY018RCD150U250 WET RWY
0100724088137071972012109004+39133-075467SAO  +0009KDOV V0209991C000010021019N0080001N9+00441+00331101521ADDGF108991999999999999999999MA1101521101391MD1010081+9999MW1451REMAWY027RCD120U250/008 16// WET RWY
0083724088137071972012110004+39133-075467SAO  +0009KDOV V0200201N002610021019N0080001N9+00441+00331999999ADDGF108991999999999999999999MA1101561999999MW1451MW2611REMAWY018RCD170U220 WET RWY
0083724088137071972012111004+39133-075467SAO  +0009KDOV V0203501N001510105019N0080001N9+00501+00331999999ADDGF108991999999999999999999MA1101661999999MW1451MW2611REMAWY018RCD180U200 WET RWY
0137724088137071972012112004+39133-075467SAO  +0009KDOV V0203501N001510105019N0080001N9+00501+00331101741ADDAA106001091AA224999999GF108991999999999999999999MA1101731101631MD1210221+9999MW1451MW2611REMAWY036RCD?170/2220002172/ 20003 WET RWY 22
0076724088137071972012113004+39133-075467SAO  +0009KDOV V0203501N002110072019N0080001N9+00501+00331999999ADDGF108991999999999999999999MA1101861999999MW1111REMAWY017CIG HIR N WET RWY
0066724088137071972012114004+39133-075467SAO  +0009KDOV V0203601N002110075019N0080001N9+00501+00331999999ADDGF108991999999999999999999MA1101961999999MW1111REMAWY007WET RWY
0089724088137071972012115004+39133-075467SAO  +0009KDOV V0200101N003110078019N0080001N9+00561+00331102041ADDGF108991999999999999999999MA1102031101931MD1210301+9999MW1111REMAWY016230 15// WET RWY
0082724088137071972012116004+39133-075467SAO  +0009KDOV V0200301N004110210019N0080001N9+00671+00391999999ADDGF108991999999999999999999MA1102101999999MW1111REMAWY023BINOVC NW AND N WET RWY
0075724088137071972012117004+39133-075467SAO  +0009KDOV V0200301N005110600019N0112001N9+00781+00281999999ADDGF108991999999999999999999MA1102101999999MW1001REMAWY016SC SW-NW WET RWY
0113724088137071972012118004+39133-075467SAO  +0009KDOV V0200301N004610120019N0112001N9+00831+00281102111ADDAA106999929AA224999999GF108991999999999999999999MA1102101102001MD1110071+9999MW1001REMAWY01810700 1572 WET RWY
0066724088137071972012119004+39133-075467SAO  +0009KDOV V0200301N004112200019N0112001N9+00941+00331999999ADDGF107991999999999999999999MA1102071999999MW1001REMAWY007WET RWY
0066724088137071972012120004+39133-075467SAO  +0009KDOV V0200301N003612200019N0112001N9+00831+00171999999ADDGF107991999999999999999999MA1102101999999MW1001REMAWY007WET RWY
0087724088137071972012121004+39133-075467SAO  +0009KDOV V0203501N005110075019N0080001N9+00671+00171102181ADDGF108991999999999999999999MA1102171102101MD1310071+9999MW1051MW2111REMAWY008307 1571
0050724088137071972012122004+39133-075467SAO  +0009KDOV V0200101N002110075019N0080001N9+00611+00111999999ADDGF108991999999999999999999MA1102241999999MW1051
0050724088137071972012123004+39133-075467SAO  +0009KDOV V0200901N002110075019N0080001N9+00561+00171999999ADDGF108991999999999999999999MA1102271999999MW1051
0081724088137071972012200004+39133-075467SAO  +0009KDOV V0200801N003610060019N0112001N9+00561+00171102321ADDGF108991999999999999999999MA1102301102201MD1110141+9999MW1001REMAWY008114 15//
0050724088137071972012201004+39133-075467SAO  +0009KDOV V0200701N002610060019N0112001N9+00501+00171999999ADDGF108991999999999999999999MA1102371999999MW1001
0050724088137071972012202004+39133-075467SAO  +0009KDOV V0200701N003610060019N0112001N9+00441+00171999999ADDGF108991999999999999999999MA1102401999999MW1001
0081724088137071972012203004+39133-075467SAO  +0009KDOV V0200701N002610060019N0112001N9+00441+00171102471ADDGF108991999999999999999999MA1102471102341MD1210151+9999MW1001REMAWY008215 15//
0050724088137071972012204004+39133-075467SAO  +0009KDOV V0200601N003110060019N0112001N9+00441+00061999999ADDGF108991999999999999999999MA1102471999999MW1001
0050724088137071972012205004+39133-075467SAO  +0009KDOV V0200601N005112200019N0112001N9+00391+00001999999ADDGF102991999999999999999999MA1102401999999MW1001
0094724088137071972012206004+39133-075467SAO  +0009KDOV V0200701N005710078019N0112001N9+00331+00001102361ADDGF108991999999999999999999MA1102371102241MD1810101+9999MW1001REMAWY021BINOVC ALQDS/810 15//
0071724088137071972012207004+39133-075467SAO  +0009KDOV V0200701N005110078019N0112001N9+00391-00061999999ADDGF108991999999999999999999MA1102341999999MW1001REMAWY012BINOVC ALQDS
0050724088137071972012208004+39133-075467SAO  +0009KDOV V0200801N004610078019N0112001N9+00331+00001999999ADDGF108991999999999999999999MA1102271999999MW1001
0081724088137071972012209004+39133-075467SAO  +0009KDOV V0200801N006710084019N0112001N9+00331+00061102211ADDGF108991999999999999999999MA1102201102101MD1810151+9999MW1001REMAWY008815 15//
0050724088137071972012210004+39133-075467SAO  +0009KDOV V0200901N006210087019N0112001N9+00391+00111999999ADDGF108991999999999999999999MA1102171999999MW1001
0050724088137071972012211004+39133-075467SAO  +0009KDOV V0200801N003110150019N0112001N9+00441+00221999999ADDGF108991999999999999999999MA1102171999999MW1001
0092724088137071972012212004+39133-075467SAO  +0009KDOV V0200801N003110180019N0112001N9+00441+00221102141ADDAA124999999GF108991999999999999999999MA1102131102031MD1710071+9999MW1001REMAWY008707 15//
0050724088137071972012213004+39133-075467SAO  +0009KDOV V0200601N003610180019N0096001N9+00441+00171999999ADDGF108991999999999999999999MA1102101999999MW1051
0074724088137071972012214004+39133-075467SAO  +0009KDOV V0200801N004610150019N0096001N9+00501+00331999999ADDGF108991999999999999999999MA1102071999999MW1051REMAWY015HIR CLDS VSBL W
0095724088137071972012215004+39133-075467SAO  +0009KDOV V0200801N004110135019N0080001N9+00561+00391102091ADDGF108991999999999999999999MA1102101101961MD1510051+9999MW1051REMAWY022VSBY LWR S-SW/505 17//
0050724088137071972012216004+39133-075467SAO  +0009KDOV V0200901N003110180019N0080001N9+00611+00441999999ADDGF108991999999999999999999MA1102031999999MW1051
0050724088137071972012217004+39133-075467SAO  +0009KDOV V0200901N004610060019N0080001N9+00721+00501999999ADDGF108991999999999999999999MA1101901999999MW1051
0081724088137071972012218004+39133-075467SAO  +0009KDOV V0200801N004110042019N0080001N9+00781+00561101761ADDGF108991999999999999999999MA1101761101631MD1810341+9999MW1051REMAWY008834 15//
0056724088137071972012219004+39133-075467SAO  +0009KDOV V0200801N003610036019N0064001N9+00781+00561999999ADDGF108991999999999999999999MA1101661999999MW1051MW2451
0062724088137071972012220004+39133-075467SAO  +0009KDOV V0200901N004110036019N0048001N9+00831+00611999999ADDGF108991999999999999999999MA1101591999999MW1051MW2451MW3511
0087724088137071972012221004+39133-075467SAO  +0009KDOV V0201101N003110036019N0064001N9+00831+00611101551ADDGF108991999999999999999999MA1101561101421MD1710201+9999MW1051MW2451REMAWY008720 15//
0056724088137071972012222004+39133-075467SAO  +0009KDOV V0201001N004110027019N0048001N9+00831+00611999999ADDGF108991999999999999999999MA1101491999999MW1051MW2451
0056724088137071972012223004+39133-075467SAO  +0009KDOV V0201001N003610027019N0040001N9+00781+00611999999ADDGF108991999999999999999999MA1101491999999MW1051MW2451
0131724088137071972012300004+39133-075467SAO  +0009KDOV V0201001N003110018019N0032001N9+00781+00611101381ADDAA106999929AA224999999GF108991999999999999999999MA1101391101251MD1710171+9999MW1051MW2451REMAWY030IMR01VR60+/R01VR60+/71700 15//
0085724088137071972012301004+39133-075467SAO  +0009KDOV V0200901N003110006019N0008001N9+00721+00611999999ADDGF108991999999999999999999MA1101391999999MW1451MW2511REMAWY020UMR01VR45/R01VR55/F2
0085724088137071972012302004+39133-075467SAO  +0009KDOV V0201201N001510003019N0004001N9+00671+00611999999ADDGF108991999999999999999999MA1101291999999MW1451MW2511REMAWY020IMR01VR50/R01VR55/F7
0108724088137071972012303004+39133-075467SAO  +0009KDOV V0201201N002110001519N0002001N9+00671+00611101261ADDGF108991999999999999999999MA1101251101151MD1810121+9999MW1451MW2511REMAWY029IMR01VR40/R01VR38/OCNL L-/812
0056724088137071972012304004+39133-075467SAO  +0009KDOV V0201001N001510001519N0001001N9+00671+00611999999ADDGF108991999999999999999999MA1101191999999MW1451MW2511
0105724088137071972012305004+39133-075467SAO  +0009KDOV V0201101N001010001519N0003001N9+00671+00611999999ADDGF108991999999999999999999MA1101121999999MW1451MW2511REMAWY040IMR01VR20/R01VR26/RCD?20/120U140/150U280
0124724088137071972012306004+39133-075467SAO  +0009KDOV V0201101N001010001519N0002001N9+00611+00561101011ADDAA106999929AA224999999GF108991999999999999999999MA1101021100881MD1710251+9999MW1451MW2511REMAWY023IMR01VR14/R01VR16/72500
0082724088137071972012307004+39133-075467SAO  +0009KDOV V0209991C000010001519N0002001N9+00611+00561999999ADDGF108991999999999999999999MA1101021999999MW1451MW2511REMAWY017IMR01VR14/R01VR14
0087724088137071972012308004+39133-075467SAO  +0009KDOV V0209991C000010003019N0006001N9+00671+00611999999ADDGF108991999999999999999999MA1100981999999MW1451REMAWY028IMR01VR22/R01VR20/VSBY N 1/2
0094724088137071972012309004+39133-075467SAO  +0009KDOV V0209991C000010001519N0003001N9+00671+00611100891ADDGF108991999999999999999999MA1100881100781MD1710121+9999MW1451REMAWY021IMR01VR14/R01VR14/712
0078724088137071972012310004+39133-075467SAO  +0009KDOV V0209991C000010001519N0000001N9+00671+00671999999ADDGF108991999999999999999999MA1100851999999MW1451REMAWY019IMR01VR10-/R01VR10-
0076724088137071972012311004+39133-075467SAO  +0009KDOV V0201601N001510001519N0003001N9+00721+00671999999ADDGF108991999999999999999999MA1100881999999MW1451REMAWY017IMR01VR12/R01VR14
0118724088137071972012312004+39133-075467SAO  +0009KDOV V0209991C000010003019N0010001N9+00671+00611100941ADDAA106999929AA224999999GF108991999999999999999999MA1100951100811MD1310051+9999MW1451REMAWY023IMR01VR20/R01VR20/30500
0066724088137071972012313004+39133-075467SAO  +0009KDOV V0202501N003110012019N0024001N9+00721+00671999999ADDGF108991999999999999999999MA1101021999999MW1451REMAWY007WET RWY
0066724088137071972012314004+39133-075467SAO  +0009KDOV V0202801N003110015019N0024001N9+00721+00611999999ADDGF108991999999999999999999MA1101051999999MW1451REMAWY007WET RWY
0109724088137071972012315004+39133-075467SAO  +0009KDOV V0202701N003110009019N0016001N9+00721+00611101151ADDGF108991999999999999999999MA1101151101021MD1210201+9999MW1451REMAWY036IMR01VR60+/R01VR60+/220 16// WET RWY
0084724088137071972012316004+39133-075467SAO  +0009KDOV V0202901N002110009019N0020001N9+00721+00671999999ADDGF108991999999999999999999MA1101151999999MW1451REMAWY025IMR01VR60/R01VR60 WET RWY
0066724088137071972012317004+39133-075467SAO  +0009KDOV V0202901N003110012019N0048001N9+00781+00671999999ADDGF108991999999999999999999MA1101121999999MW1451REMAWY007WET RWY
0089724088137071972012318004+39133-075467SAO  +0009KDOV V0203201N003110015019N0064001N9+00831+00671101101ADDGF108991999999999999999999MA1101081100981MD1810051+9999MW1451REMAWY016805 16// WET RWY
0066724088137071972012319004+39133-075467SAO  +0009KDOV V0202801N002110021019N0080001N9+00831+00671999999ADDGF108991999999999999999999MA1101021999999MW1451REMAWY007WET RWY
0068724088137071972012320004+39133-075467SAO  +0009KDOV V0202201N003110024019N0080001N9+00831+00671999999ADDGF108991999999999999999999MA1101051999999MW1451REMAWY009BRKS OVHD
0087724088137071972012321004+39133-075467SAO  +0009KDOV V0202601N002610024019N0064001N9+00891+00671101081ADDGF108991999999999999999999MA1101081100951MD1510021+9999MW1051MW2451REMAWY008502 16//
0068724088137071972012322004+39133-075467SAO  +0009KDOV V0202501N002110750019N0064001N9+00781+00611999999ADDGF108991999999999999999999MA1101051999999MW1051MW2451REMAWY003%V?
0056724088137071972012323004+39133-075467SAO  +0009KDOV V0202401N002110120019N0064001N9+00721+00611999999ADDGF108991999999999999999999MA1101081999999MW1051MW2451
0096724088137071972012400004+39133-075467SAO  +0009KDOV V0202401N002110180019N0064001N9+00721+00561101161ADDGF108991999999999999999999MA1101151101051MD1310081+9999MW1051REMAWY023THN SPOTS IOVC/308 15//
0056724088137071972012401004+39133-075467SAO  +0009KDOV V0202301N002610012019N0048001N9+00721+00561999999ADDGF108991999999999999999999MA1101191999999MW1051MW2451
0096724088137071972012402004+39133-075467SAO  +0009KDOV V0202201N001010150019N0048001N9+00721+00611999999ADDGF108991999999999999999999MA1101121999999MW1051MW2451REMAWY031RCD?70/110U120/WND LGT AND VRBL
0100724088137071972012403004+39133-075467SAO  +0009KDOV V0201201N001512200019N0032001N9+00611+00501101041ADDGF107991999999999999999999MA1101051100911MD1810121+9999MW1451REMAWY027IMR01VR55/R01VR60+/812 1600
0081724088137071972012404004+39133-075467SAO  +0009KDOV V0201001N001012200019N0001001N9+00441+00331999999ADDGF110991999999999999999999MA1101051999999MW1451REMAWY022IMR01VR10-/R01VR10-/F8
