0076724240138071972010100004+37900-085967SAO  +0230FTK  V0209991C000012200019N0224001N9+00061-00391102461ADDGF100991999999999999999999MA1102341999999MD1010021+9999MW1001REMAWY003002
0050724240138071972010101004+37900-085967SAO  +0230FTK  V0209991C000012200019N0224001N9-00061-00391999999ADDGF100991999999999999999999MA1102341999999MW1001
0050724240138071972010102004+37900-085967SAO  +0230FTK  V0209991C000012200019N0224001N9-00111-00391999999ADDGF100991999999999999999999MA1102301999999MW1001
0076724240138071972010103004+37900-085967SAO  +0230FTK  V0201001N001012200019N0224001N9-00111-00441102411ADDGF100991999999999999999999MA1102301999999MD1710051+9999MW1001REMAWY003705
0050724240138071972010104004+37900-085967SAO  +0230FTK  V0209991C000012200019N0224001N9-00111-00441999999ADDGF100991999999999999999999MA1102301999999MW1001
0082724240138071972010111004+37900-085967SAO  +0230FTK  V0200801N00101075001EN0112001N9-00221-00441999999ADDGA1021+030009999GA2071+075009999GF107991999999999999999999MA1102131999999MW1001
0113724240138071972010112004+37900-085967SAO  +0230FTK  V0201401N00101075001EN0112001N9-00171-00391102221ADDGA1021+030009999GA2081+075009999GF108991999999999999999999MA1102101999999MD1710121+9999MW1001REMAWY008712 1077
0082724240138071972010113004+37900-085967SAO  +0230FTK  V0201301N00101075001EN0112001N9-00171-00391999999ADDGA1021+030009999GA2071+075009999GF107991999999999999999999MA1102101999999MW1001
0082724240138071972010114004+37900-085967SAO  +0230FTK  V0209991C00001075001EN0112001N9-00111-00391999999ADDGA1021+030009999GA2071+075009999GF107991999999999999999999MA1102101999999MW1001
0113724240138071972010115004+37900-085967SAO  +0230FTK  V0201401N00151075001EN0112001N9+00221-00111102201ADDGA1021+030009999GA2071+075009999GF107991999999999999999999MA1102101999999MD1610021+9999MW1001REMAWY008602 1078
0066724240138071972010116004+37900-085967SAO  +0230FTK  V0201401N002610750019N0128001N9+00281-00061999999ADDGA1071+075009999GF107991999999999999999999MA1102031999999MW1001
0066724240138071972010117004+37900-085967SAO  +0230FTK  V0201201N001510750019N0128001N9+00561+00061999999ADDGA1081+075009999GF108991999999999999999999MA1101931999999MW1001
0097724240138071972010118004+37900-085967SAO  +0230FTK  V0201201N001510750019N0128001N9+00721+00001101901ADDGA1081+075009999GF108991999999999999999999MA1101801999999MD1710291+9999MW1001REMAWY008729 1007
0099724240138071972010119004+37900-085967SAO  +0230FTK  V0201201N002110180019N0160001N9+00721+00061999999ADDGA1071+018009999GA2081+075009999GF108991999999999999999999MA1101631999999MW1001REMAWY008BINOVC S
0082724240138071972010120004+37900-085967SAO  +0230FTK  V0200901N001510180019N0176001N9+00781+00111999999ADDGA1071+018009999GA2081+030009999GF108991999999999999999999MA1101591999999MW1001
0097724240138071972010121004+37900-085967SAO  +0230FTK  V0202001N002110180019N0176001N9+00891-00221101641ADDGA1081+018009999GF108991999999999999999999MA1101561999999MD1610241+9999MW1611REMAWY008624 15//
0084724240138071972010122004+37900-085967SAO  +0230FTK  V0201901N003610150019N0176001N9+00781+00111999999ADDGA1081+015009999GF108991999999999999999999MA1101461999999MW1001REMAWY009OCNL RW--
0084724240138071972010123004+37900-085967SAO  +0230FTK  V0202001N001510135019N0192001N9+00721+00221999999ADDGA1081+013509999GF108991999999999999999999MA1101391999999MW1001REMAWY009INTMT R--
0110724240138071972010200004+37900-085967SAO  +0230FTK  V0209991C000010135019N0192001N9+00671+00221101391ADDAA106999929GA1081+013509999GF108991999999999999999999MA1101321999999MD1710241+9999MW1611REMAWY01072400 15//
0100724240138071972010201004+37900-085967SAO  +0230FTK  V0201201N00151013501EN0192001N9+00671+00281999999ADDGA1021+004509999GA2081+013509999GF108991999999999999999999MA1101251999999MW1001REMAWY009INTMT R--
0116724240138071972010202004+37900-085967SAO  +0230FTK  V0201201N00151005101MN0080001N9+00611+00391999999ADDGA1021+002409999GA2081+005109999GF108991999999999999999999MA1101051999999MW1111MW2511REMAWY019L- OCNLY L-- PRESFR
0147724240138071972010203004+37900-085967SAO  +0230FTK  V0201001N00361001801MN0032001N9+00561+00391100991ADDGA1101+000159999GA2071+001809999GA3081+003009999GF108991999999999999999999MA1100911999999MD1710391+9999MW1451MW2511REMAWY020LF2/739 17// WET RWY
0130724240138071972010204004+37900-085967SAO  +0230FTK  V0201301N00211000601MN0016001N9+00561+00441999999ADDGA1101+000159999GA2071+000609999GA3081+001809999GF108991999999999999999999MA1100781999999MW1451MW2511MW3611REMAWY011LF2 WET RWY
0098724240138071972010211004+37900-085967SAO  +0230FTK  V0203101N00311005401MN0224001N9+00441+00331999999ADDGA1021+001809999GA2081+005409999GF108991999999999999999999MA1100641999999MW1001REMAWY007WET RWY
0137724240138071972010212004+37900-085967SAO  +0230FTK  V0203101N00511004501MN0224001N9+00441+00281100781ADDGA1021+002409999GA2081+004509999GF108991999999999999999999MA1100751999999MD1310201+9999MW1001REMAWY032SCTVBKN/320// 18// 20034 WET RWY
0082724240138071972010213004+37900-085967SAO  +0230FTK  V0202901N004110054019N0144001N9+00441+00221999999ADDGA1081+005409999GF108991999999999999999999MA1100811999999MW1001REMAWY007WET RWY
0066724240138071972010214004+37900-085967SAO  +0230FTK  V0203001N005110054019N0144001N9+00391+00171999999ADDGA1081+005409999GF108991999999999999999999MA1100981999999MW1001
0113724240138071972010215004+37900-085967SAO  +0230FTK  V0203001N004110045019N0128001N9+00391+00171101141ADDGA1071+004509999GA2081+011409999GF108991999999999999999999MA1101081999999MD1210341+9999MW1001REMAWY008234 18//
0082724240138071972010216004+37900-085967SAO  +0230FTK  V0203001N00511012001EN0128001N9+00441+00111999999ADDGA1021+007509999GA2071+012009999GF107991999999999999999999MA1101191999999MW1001
0066724240138071972010217004+37900-085967SAO  +0230FTK  V0203301N005110120019N0160001N9+00501-00221999999ADDGA1071+012009999GF107991999999999999999999MA1101221999999MW1001
0097724240138071972010218004+37900-085967SAO  +0230FTK  V0202801N006212200019N0160001N9+00561-00171101251ADDGA1021+012009999GF102991999999999999999999MA1101191999999MD1010101+9999MW1001REMAWY008010 1100
0063724240138071972010219004+37900-085967SAO  +0230FTK  V0202801N006212200019N0320001N9+00671-00171999999ADDGF100991999999999999999999MA1101151999999MW1001REMAWY004SC E
0050724240138071972010220004+37900-085967SAO  +0230FTK  V0202601N001512200019N0320001N9+00671-00441999999ADDGF100991999999999999999999MA1101151999999MW1001
0088724240138071972010221004+37900-085967SAO  +0230FTK  V0203001N004112200019N0320001N9+00671-00781101271ADDGF100991999999999999999999MA1101191999999MD1310021+9999MW1001REMAWY015WND 280V330/302
0050724240138071972010222004+37900-085967SAO  +0230FTK  V0202701N002612200019N0320001N9+00611-00561999999ADDGF100991999999999999999999MA1101251999999MW1001
0050724240138071972010223004+37900-085967SAO  +0230FTK  V0202701N001012200019N0320001N9+00441-00611999999ADDGF100991999999999999999999MA1101351999999MW1001
0076724240138071972010300004+37900-085967SAO  +0230FTK  V0209991C000012200019N0224001N9+00331-00611101481ADDGF100991999999999999999999MA1101391999999MD1210191+9999MW1001REMAWY003219
0050724240138071972010301004+37900-085967SAO  +0230FTK  V0209991C000012200019N0224001N9+00171-00561999999ADDGF100991999999999999999999MA1101461999999MW1001
0050724240138071972010302004+37900-085967SAO  +0230FTK  V0209991C000012200019N0224001N9+00171-00561999999ADDGF100991999999999999999999MA1101521999999MW1001
0076724240138071972010303004+37900-085967SAO  +0230FTK  V0209991C000012200019N0224001N9-00061-00501101651ADDGF100991999999999999999999MA1101561999999MD1210171+9999MW1001REMAWY003217
0050724240138071972010304004+37900-085967SAO  +0230FTK  V0209991C000012200019N0224001N9+00001-00561999999ADDGF100991999999999999999999MA1101591999999MW1001
0050724240138071972010311004+37900-085967SAO  +0230FTK  V0203001N002112200019N0224001N9-00221-00501999999ADDGF100991999999999999999999MA1101661999999MW1001
0076724240138071972010312004+37900-085967SAO  +0230FTK  V0209991C000012200019N0224001N9-00221-00441101901ADDGF100991999999999999999999MA1101801999999MD1310101+9999MW1001REMAWY003310
0050724240138071972010313004+37900-085967SAO  +0230FTK  V0200801N002112200019N0144001N9-00281-00441999999ADDGF100991999999999999999999MA1101831999999MW1001
0050724240138071972010314004+37900-085967SAO  +0230FTK  V0201001N003112200019N0128001N9-00171-00391999999ADDGF100991999999999999999999MA1101831999999MW1001
0087724240138071972010315004+37900-085967SAO  +0230FTK  V0201001N003612200019N0144001N9+00061-00221101901ADDGF100991999999999999999999MA1101801999999MD1010001+9999MW1001REMAWY014CI SW/000 1001
0066724240138071972010316004+37900-085967SAO  +0230FTK  V0201001N003112200019N0144001N9+00281-00111999999ADDGA1021+075009999GF102991999999999999999999MA1101801999999MW1001
0066724240138071972010317004+37900-085967SAO  +0230FTK  V0201201N002612200019N0144001N9+00501-00061999999ADDGA1021+075009999GF102991999999999999999999MA1101801999999MW1001
0097724240138071972010318004+37900-085967SAO  +0230FTK  V0201001N002112200019N0144001N9+00781+00061101731ADDGA1021+075009999GF102991999999999999999999MA1101631999999MD1810151+9999MW1001REMAWY008815 1001
0117724240138071972010319004+37900-085967SAO  +0230FTK  V0201501N003612200019N0192001N9+01061-00221999999ADDGA1021+054009999GA2071+075009999GD19999+9999993GF107991999999999999999999MA1101561999999MW1001REMAWY011WND 130V170
0117724240138071972010320004+37900-085967SAO  +0230FTK  V0201601N004612200019N0192001N9+01061-00171999999ADDGA1021+054009999GA2071+075009999GD19999+9999993GF107991999999999999999999MA1101491999999MW1001REMAWY011WND 140V180
0113724240138071972010321004+37900-085967SAO  +0230FTK  V0201601N003110540019N0192001N9+01001-00111101541ADDGA1071+054009999GA2071+075009999GF107991999999999999999999MA1101461999999MD1610191+9999MW1001REMAWY008619 1002
0082724240138071972010322004+37900-085967SAO  +0230FTK  V0201301N002610360019N0192001N9+01001-00061999999ADDGA1071+036009999GA2071+075009999GF107991999999999999999999MA1101461999999MW1001
0082724240138071972010323004+37900-085967SAO  +0230FTK  V0201201N002610360019N0192001N9+00891-00061999999ADDGA1071+036009999GA2081+075009999GF108991999999999999999999MA1101421999999MW1001
0097724240138071972010400004+37900-085967SAO  +0230FTK  V0201301N002610360019N0192001N9+00831-00061101481ADDGA1081+036009999GF108991999999999999999999MA1101391999999MD1810051+9999MW1001REMAWY008805 107/
0082724240138071972010401004+37900-085967SAO  +0230FTK  V0201201N00311036001EN0192001N9+00781-00061999999ADDGA1021+021009999GA2081+036009999GF108991999999999999999999MA1101351999999MW1001
0082724240138071972010402004+37900-085967SAO  +0230FTK  V0201701N001510210019N0224001N9+00781-00061999999ADDGA1071+021009999GA2081+030009999GF108991999999999999999999MA1101391999999MW1001
0113724240138071972010403004+37900-085967SAO  +0230FTK  V0201901N002610210019N0224001N9+00781+00061101561ADDGA1071+021009999GA2081+030009999GF108991999999999999999999MA1101491999999MD1310081+9999MW1001REMAWY008308 107/
0098724240138071972010404004+37900-085967SAO  +0230FTK  V0202101N00211021001EN0224001N9+00831+00111999999ADDGA1021+009009999GA2071+021009999GA3081+030009999GF108991999999999999999999MA1101421999999MW1001
0123724240138071972010411004+37900-085967SAO  +0230FTK  V0203601N00211001501EN0022001N9+00831+00721999999ADDGA1101+000159999GA2081+001509999GF108991999999999999999999MA1101191999999MW1451MW2611REMAWY026RF5 VSBY N1 1/2 S1 WET RWY
0154724240138071972010412004+37900-085967SAO  +0230FTK  V0200201N00101001501EN0022001N9+00781+00721101261ADDGA1101+000159999GA2081+001509999GF108991999999999999999999MA1101221999999MD1510071+9999MW1451MW2611REMAWY043RF4 VSBY N1 1/2 S1/507// 17// 20042 WET RWY
0124724240138071972010413004+37900-085967SAO  +0230FTK  V0200301N00151001501EN0032001N9+00781+00671999999ADDGA1101+000159999GA2071+001509999GA3081+002409999GF108991999999999999999999MA1101221999999MW1451MW2611REMAWY011RF1 WET RWY
0114724240138071972010414004+37900-085967SAO  +0230FTK  V0200501N00211003001EN0032001N9+00781+00671999999ADDGA1021+001509999GA2071+003009999GA3081+006009999GF108991999999999999999999MA1101251999999MW1451REMAWY007WET RWY
0127724240138071972010415004+37900-085967SAO  +0230FTK  V0200501N00101007501EN0064001N9+00781+00671101301ADDGA1021+003009999GA2081+007509999GF108991999999999999999999MA1101251999999MD1110031+9999MW1451MW2611REMAWY016103 18// WET RWY
0151724240138071972010416004+37900-085967SAO  +0230FTK  V0200201N00311002401EN0020001N9+00781+00671999999ADDGA1101+000159999GA2071+002409999GA3081+006009999GF108991999999999999999999MA1101291999999MW1451MW2511MW3611REMAWY032LF2 CIG RGD VSBY N-E 3/4 WET RWY
0102724240138071972010417004+37900-085967SAO  +0230FTK  V0200301N004110012019N0012001N9+00671+00611999999ADDGA1091+001209999GF109991999999999999999999MA1101191999999MW1451MW2511MW3611REMAWY015VSBY W1 WET RWY
0125724240138071972010418004+37900-085967SAO  +0230FTK  V0200301N003610015019N0016001N9+00671+00561101141ADDAA106002091GA1091+001509999GF109991999999999999999999MA1101081999999MD1810171+9999MW1451MW2511MW3611REMAWY01381709 WET RWY
0100724240138071972010419004+37900-085967SAO  +0230FTK  V0200101N003610018019N0028001N9+00671+00561999999ADDGA1091+001809999GF109991999999999999999999MA1100981999999MW1451MW2611REMAWY019WND 340V040 WET RWY
0131724240138071972010420004+37900-085967SAO  +0230FTK  V0203201N002610018019N0036001N9+00611+00501999999ADDGA1101+000159999GA2021+000609999GA3081+001809999GF108991999999999999999999MA1100981999999MW1451MW2611REMAWY018F3 CIG RGD WET RWY
0123724240138071972010421004+37900-085967SAO  +0230FTK  V0203501N003610009019N0048001N9+00501+00391100991ADDGA1081+000909999GF108991999999999999999999MA1100911999999MD1710151+9999MW1111MW2611REMAWY028WND 320V020/715 16// WET RWY
0100724240138071972010422004+37900-085967SAO  +0230FTK  V0203401N005110012019N0064001N9+00331+00171999999ADDGA1081+001209999GF108991999999999999999999MA1101021999999MW1111MW2611REMAWY019WND 320V360 WET RWY
0100724240138071972010423004+37900-085967SAO  +0230FTK  V0203501N005110012019N0064001N9+00111+00001999999ADDGA1081+001209999GF108991999999999999999999MA1101051999999MW1111MW2611REMAWY019WND 290V360 WET RWY
0135724240138071972010500004+37900-085967SAO  +0230FTK  V0203401N005110012019N0080001N9+00061-00111101261ADDAA106007091GA1081+001209999GF108991999999999999999999MA1101191999999MD1310271+9999MW1111MW2611REMAWY029R- OCNLY R/32727 17// WET RWY
0110724240138071972010501004+37900-085967SAO  +0230FTK  V0200101N003110012019N0096001N9+00061-00171999999ADDGA1071+001209999GA2081+003009999GF108991999999999999999999MA1101251999999MW1111MW2611MW3791REMAWY007WET RWY
0110724240138071972010502004+37900-085967SAO  +0230FTK  V0203301N003610012019N0080001N9+00001-00171999999ADDGA1071+001209999GA2081+003009999GF108991999999999999999999MA1101291999999MW1111MW2611MW3791REMAWY007WET RWY
0135724240138071972010503004+37900-085967SAO  +0230FTK  V0203501N005110012019N0080001N9-00111-00281101381ADDGA1071+001209999GA2081+002709999GF108991999999999999999999MA1101291999999MD1110101+9999MW1451MW2791OC100931REMAWY016110 17// WET RWY
0117724240138071972010504004+37900-085967SAO  +0230FTK  V0200101N006210012019N0064001N9-00221-00441999999ADDGA1071+001209999GA2081+002709999GF108991999999999999999999MA1101351999999MW1451MW2791OC100931REMAWY012IR// BA POOR
0090724240138071972010511004+37900-085967SAO  +0230FTK  V0203101N006210027019N0080001N9-00721-00941999999ADDGA1081+002709999GF108991999999999999999999MA1101961999999MW1711REMAWY015IRLSR// BA POOR
0121724240138071972010512004+37900-085967SAO  +0230FTK  V0203301N007710045019N0192001N9-00781-01001102241ADDGA1081+004509999GF108991999999999999999999MA1102101999999MD1210341+9999MW1001REMAWY032234// 15// 20062 IRLSR// BA POOR
0090724240138071972010513004+37900-085967SAO  +0230FTK  V0203301N007210039019N0176001N9-00831-01061999999ADDGA1081+003909999GF108991999999999999999999MA1102241999999MW1001REMAWY015IRLSR// BA POOR
0090724240138071972010514004+37900-085967SAO  +0230FTK  V0203101N005110045019N0176001N9-00891-01111999999ADDGA1071+004509999GF107991999999999999999999MA1102341999999MW1001REMAWY015IRLSR// BA POOR
0131724240138071972010515004+37900-085967SAO  +0230FTK  V0202901N003610045019N0176001N9-00891-01111102551ADDGA1081+004509999GF108991999999999999999999MA1102441999999MD1210301+9999MW1001REMAWY042OCNL BINOVC ALQDS/230 15// IRLSR// BA POOR
0109724240138071972010516004+37900-085967SAO  +0230FTK  V0203001N001510036019N0064001N9-00891-01111999999ADDGA1081+003609999GF108991999999999999999999MA1102441999999MW1111MW2711REMAWY028S-- OCNLY S- IRLSR// BA POOR
0096724240138071972010517004+37900-085967SAO  +0230FTK  V0202801N002610033019N0048001N9-00891-01111999999ADDGA1081+003309999GF108991999999999999999999MA1102441999999MW1111MW2711REMAWY015IRLSR// BA POOR
0132724240138071972010518004+37900-085967SAO  +0230FTK  V0202401N002610036019N0048001N9-00831-01061102501ADDAA106999929GA1081+003609999GF108991999999999999999999MA1102371999999MD1810071+9999MW1111MW2711REMAWY02680700 15// IRLSR// BA POOR
0096724240138071972010519004+37900-085967SAO  +0230FTK  V0202801N002610036019N0064001N9-00721-01061999999ADDGA1081+003609999GF108991999999999999999999MA1102341999999MW1111MW2711REMAWY015IRLSR// BA POOR
0096724240138071972010520004+37900-085967SAO  +0230FTK  V0202701N004610036019N0080001N9-00721-01001999999ADDGA1081+003609999GF108991999999999999999999MA1102371999999MW1111MW2711REMAWY015IRLSR// BA POOR
0126724240138071972010521004+37900-085967SAO  +0230FTK  V0202701N001010045019N0096001N9-00721-01061102501ADDGA1081+004509999GF108991999999999999999999MA1102371999999MD1510001+9999MW1111REMAWY037BINOVC ALQDS/500 15// IRLSR// BA POOR
0090724240138071972010522004+37900-085967SAO  +0230FTK  V0202401N003612200019N0128001N9-00721-01001999999ADDGA1021+004509999GF102991999999999999999999MA1102441999999MW1001REMAWY015IRLSR// BA POOR
0090724240138071972010523004+37900-085967SAO  +0230FTK  V0201901N002112200019N0144001N9-00891-01171999999ADDGA1021+004509999GF102991999999999999999999MA1102341999999MW1001REMAWY015IRLSR// BA POOR
0110724240138071972010600004+37900-085967SAO  +0230FTK  V0209991C000012200019N0192001N9-00941-01171102481ADDAA106999929GF100991999999999999999999MA1102341999999MD1810021+9999MW1001REMAWY02680200 1500 IRLSR// BA POOR
0090724240138071972010601004+37900-085967SAO  +0230FTK  V0201801N002612200019N0192001N9-00941-01171999999ADDGA1021+005409999GF102991999999999999999999MA1102341999999MW1001REMAWY015IRLSR// BA POOR
0079724240138071972010602004+37900-085967SAO  +0230FTK  V0202001N001012200019N0192001N9-01001-01171999999ADDGF100991999999999999999999MA1102371999999MW1001REMAWY020SC E IRLSR// BA POOR
0113724240138071972010603004+37900-085967SAO  +0230FTK  V0209991C000012200019N0192001N9-00891-01111102521ADDGA1021+006009999GF102991999999999999999999MA1102371999999MD1110021+9999MW1001REMAWY024102 1500 IRLSR// BA POOR
0090724240138071972010604004+37900-085967SAO  +0230FTK  V0209991C000012200019N0192001N9-00941-01171999999ADDGA1021+006009999GF102991999999999999999999MA1102371999999MW1001REMAWY015IRLSR// BA POOR
0050724240138071972010611004+37900-085967SAO  +0230FTK  V0202401N002112200019N0224001N9-01001-01391999999ADDGF100991999999999999999999MA1102271999999MW1001
0087724240138071972010612004+37900-085967SAO  +0230FTK  V0202201N002612200019N0224001N9-00941-01111102421ADDGF100991999999999999999999MA1102271999999MD1410001+9999MW1001REMAWY014ST NE/400 1600
0088724240138071972010613004+37900-085967SAO  +0230FTK  V0202101N003612200019N0112001N9-00941-01111999999ADDGA1021+075009999GF102991999999999999999999MA1102301999999MW1001REMAWY013IR//P BA POOR
0088724240138071972010614004+37900-085967SAO  +0230FTK  V0202101N004112200019N0112001N9-00891-01111999999ADDGA1021+075009999GF102991999999999999999999MA1102301999999MW1001REMAWY013IR//P BA POOR
0143724240138071972010615004+37900-085967SAO  +0230FTK  V0202201N005112200019N0112001N9-00671-00891102491ADDGA1021+004509999GA2021+045009999GA3021+075009999GF102991999999999999999999MA1102341999999MD1110071+9999MW1001REMAWY022107 1578 IR//P BA POOR
0120724240138071972010616004+37900-085967SAO  +0230FTK  V0202401N004610750019N0176001N9-00501-00831999999ADDGA1021+004509999GA2021+045009999GA3071+075009999GF107991999999999999999999MA1102341999999MW1001REMAWY013IR//P BA POOR
0120724240138071972010617004+37900-085967SAO  +0230FTK  V0202001N005110750019N0176001N9-00441-00781999999ADDGA1021+004509999GA2021+045009999GA3071+075009999GF107991999999999999999999MA1102241999999MW1001REMAWY013IR//P BA POOR
0143724240138071972010618004+37900-085967SAO  +0230FTK  V0202301N004612200019N0176001N9-00331-00781102251ADDGA1021+006009999GA2021+036009999GA3021+075009999GF102991999999999999999999MA1102101999999MD1810241+9999MW1001REMAWY022824 1571 IR//P BA POOR
0120724240138071972010619004+37900-085967SAO  +0230FTK  V0202201N004112200019N0176001N9-00281-00671999999ADDGA1021+006009999GA2021+030009999GA3021+075009999GF102991999999999999999999MA1102031999999MW1001REMAWY013IR//P BA POOR
0091724240138071972010620004+37900-085967SAO  +0230FTK  V0202101N004112200019N0176001N9-00171-00671999999ADDGA1021+007509999GF102991999999999999999999MA1102001999999MW1001REMAWY016IRSLR//P BA FAIR
0093724240138071972010621004+37900-085967SAO  +0230FTK  V0202101N005112200019N0176001N9-00111-00611102151ADDGF100991999999999999999999MA1102001999999MD1610101+9999MW1001REMAWY020610 IRSLR//P BA FAIR
0075724240138071972010622004+37900-085967SAO  +0230FTK  V0202001N004112200019N0176001N9-00111-00671999999ADDGF100991999999999999999999MA1102031999999MW1001REMAWY016IRSLR//P BA FAIR
0075724240138071972010623004+37900-085967SAO  +0230FTK  V0202001N003612200019N0176001N9-00281-00671999999ADDGF100991999999999999999999MA1102001999999MW1001REMAWY016IRSLR//P BA FAIR
0093724240138071972010700004+37900-085967SAO  +0230FTK  V0202101N003112200019N0192001N9-00331-00721102201ADDGF100991999999999999999999MA1102071999999MD1310071+9999MW1001REMAWY020307 IRSLR//P BA FAIR
0075724240138071972010701004+37900-085967SAO  +0230FTK  V0202001N003612200019N0192001N9-00391-00721999999ADDGF100991999999999999999999MA1102001999999MW1001REMAWY016IRSLR//P BA FAIR
0072724240138071972010702004+37900-085967SAO  +0230FTK  V0202201N005112200019N0224001N9-00331-00671999999ADDGF100991999999999999999999MA1102001999999MW1001REMAWY013IR//P BA FAIR
0090724240138071972010703004+37900-085967SAO  +0230FTK  V0202201N005712200019N0224001N9-00331-00671102101ADDGF100991999999999999999999MA1102001999999MD1610081+9999MW1001REMAWY017608 IR//P BA FAIR
0072724240138071972010704004+37900-085967SAO  +0230FTK  V0202101N006212200019N0224001N9-00331-00671999999ADDGF100991999999999999999999MA1101931999999MW1001REMAWY013IR//P BA FAIR
0050724240138071972010711004+37900-085967SAO  +0230FTK  V0202201N004112200019N0224001N9-00331-00611999999ADDGF100991999999999999999999MA1102201999999MW1001
0076724240138071972010712004+37900-085967SAO  +0230FTK  V0202201N003112200019N0224001N9-00331-00611102401ADDGF100991999999999999999999MA1102301999999MD1310241+9999MW1001REMAWY003324
0072724240138071972010713004+37900-085967SAO  +0230FTK  V0202301N003112200019N0176001N9-00331-00611999999ADDGF100991999999999999999999MA1102371999999MW1001REMAWY013IR//P BA FAIR
0072724240138071972010714004+37900-085967SAO  +0230FTK  V0202201N004112200019N0176001N9-00281-00561999999ADDGF100991999999999999999999MA1102471999999MW1001REMAWY013IR//P BA FAIR
0090724240138071972010715004+37900-085967SAO  +0230FTK  V0202701N005112200019N0176001N9+00061-00441102761ADDGF100991999999999999999999MA1102641999999MD1310341+9999MW1001REMAWY017334 IR//P BA FAIR
0072724240138071972010716004+37900-085967SAO  +0230FTK  V0202801N006212200019N0176001N9+00171-00391999999ADDGF100991999999999999999999MA1102741999999MW1001REMAWY013IR//P BA FAIR
0072724240138071972010717004+37900-085967SAO  +0230FTK  V0202701N006712200019N0176001N9+00331-00331999999ADDGF100991999999999999999999MA1102741999999MW1001REMAWY013IR//P BA FAIR
0090724240138071972010718004+37900-085967SAO  +0230FTK  V0202801N005112200019N0176001N9+00561-00331102791ADDGF100991999999999999999999MA1102711999999MD1010031+9999MW1001REMAWY017003 IR//P BA FAIR
0073724240138071972010719004+37900-085967SAO  +0230FTK  V0202801N006712200019N0320001N9+00561-00331999999ADDGF100991999999999999999999MA1102711999999MW1001REMAWY014SLR//P BA GOOD
0073724240138071972010720004+37900-085967SAO  +0230FTK  V0202601N004612200019N0320001N9+00671-00441999999ADDGF100991999999999999999999MA1102741999999MW1001REMAWY014SLR//P BA GOOD
0076724240138071972010721004+37900-085967SAO  +0230FTK  V0202701N004612200019N0320001N9+00671-00611102931ADDGF100991999999999999999999MA1102811999999MD1310141+9999MW1001REMAWY003314
0050724240138071972010722004+37900-085967SAO  +0230FTK  V0203001N004112200019N0320001N9+00611-00721999999ADDGF100991999999999999999999MA1102911999999MW1001
0068724240138071972010723004+37900-085967SAO  +0230FTK  V0202501N001512200019N0320001N9+00331-00611999999ADDGF100991999999999999999999MA1102981999999MW1001REMAWY009FEW CI NW
0076724240138071972010800004+37900-085967SAO  +0230FTK  V0202601N002612200019N0224001N9+00171-00441103131ADDGF100991999999999999999999MA1103051999999MD1210201+9999MW1001REMAWY003220
0050724240138071972010801004+37900-085967SAO  +0230FTK  V0202601N002112200019N0224001N9+00061-00441999999ADDGF100991999999999999999999MA1103151999999MW1001
0050724240138071972010802004+37900-085967SAO  +0230FTK  V0202601N001512200019N0224001N9+00061-00441999999ADDGF100991999999999999999999MA1103181999999MW1001
0076724240138071972010803004+37900-085967SAO  +0230FTK  V0200101N000512200019N0224001N9+00001-00441103281ADDGF100991999999999999999999MA1103221999999MD1110151+9999MW1001REMAWY003115
0050724240138071972010804004+37900-085967SAO  +0230FTK  V0203501N000512200019N0224001N9+00001-00501999999ADDGF100991999999999999999999MA1103151999999MW1001
0065724240138071972010811004+37900-085967SAO  +0230FTK  V0201001N001012200019N0192001N9-00391-00561999999ADDGF100991999999999999999999MA1103081999999MW1001REMAWY006KLYR E
0076724240138071972010812004+37900-085967SAO  +0230FTK  V0201201N003112200019N0192001N9-00391-00611103101ADDGF100991999999999999999999MA1103011999999MD1710241+9999MW1001REMAWY003724
0066724240138071972010813004+37900-085967SAO  +0230FTK  V0201001N002612200019N0176001N9-00391-00611999999ADDGA1021+060009999GF102991999999999999999999MA1102981999999MW1001
0066724240138071972010814004+37900-085967SAO  +0230FTK  V0201201N002612200019N0176001N9-00281-00561999999ADDGA1071+060009999GF107991999999999999999999MA1102981999999MW1001
0097724240138071972010815004+37900-085967SAO  +0230FTK  V0201401N003612200019N0176001N9-00061-00441103081ADDGA1081+060009999GF108991999999999999999999MA1102981999999MD1610021+9999MW1001REMAWY008602 1007
0066724240138071972010816004+37900-085967SAO  +0230FTK  V0201601N005112200019N0176001N9+00331-00331999999ADDGA1081+060009999GF108991999999999999999999MA1102951999999MW1001
0066724240138071972010817004+37900-085967SAO  +0230FTK  V0201701N006212200019N0176001N9+00501-00561999999ADDGA1081+060009999GF108991999999999999999999MA1102841999999MW1001
0147724240138071972010818004+37900-085967SAO  +0230FTK  V0201701N006712200019N0224001N9+00671-00561102651ADDGA1021+054009999GA2071+060009999GD19999+9999993GF107991999999999999999999MA1102541999999MD1810411+9999MW1001REMAWY027WND 150V190 PRESFR/841 1008
0097724240138071972010819004+37900-085967SAO  +0230FTK  V0201501N004112200019N0176001N9+00781-00561999999ADDGA1021+045009999GA2071+060009999GD19999+9999993GF107991999999999999999999MA1102401999999MW1001
0097724240138071972010820004+37900-085967SAO  +0230FTK  V0201601N003612200019N0176001N9+00891-00391999999ADDGA1021+045009999GA2071+060009999GD19999+9999993GF107991999999999999999999MA1102241999999MW1001
0128724240138071972010821004+37900-085967SAO  +0230FTK  V0201601N004112200019N0176001N9+00891-00441102241ADDGA1021+045009999GA2071+060009999GD19999+9999993GF107991999999999999999999MA1102131999999MD1610391+9999MW1001REMAWY008639 1078
0082724240138071972010822004+37900-085967SAO  +0230FTK  V0201501N00311060001EN0176001N9+00891-00391999999ADDGA1021+036009999GA2081+060009999GF108991999999999999999999MA1102101999999MW1001
0082724240138071972010823004+37900-085967SAO  +0230FTK  V0201301N00311060001EN0192001N9+00611-00391999999ADDGA1021+036009999GA2081+060009999GF108991999999999999999999MA1102031999999MW1001
0113724240138071972010900004+37900-085967SAO  +0230FTK  V0201401N00261060001EN0224001N9+00721-00441102021ADDGA1021+036009999GA2081+060009999GF108991999999999999999999MA1101961999999MD1810201+9999MW1001REMAWY008820 1077
0082724240138071972010901004+37900-085967SAO  +0230FTK  V0201901N00571060001EN0224001N9+00781-00441999999ADDGA1021+030009999GA2081+060009999GF108991999999999999999999MA1101931999999MW1001
0082724240138071972010902004+37900-085967SAO  +0230FTK  V0201901N006210300019N0224001N9+00781-00501999999ADDGA1071+030009999GA2081+060009999GF108991999999999999999999MA1101861999999MW1001
0128724240138071972010903004+37900-085967SAO  +0230FTK  V0201901N006212200019N0224001N9+00721-00501101761ADDGA1021+030009999GA2081+060009999GD19999+9999993GF108991999999999999999999MA1101731999999MD1810251+9999MW1001REMAWY008825 1077
0097724240138071972010904004+37900-085967SAO  +0230FTK  V0202301N006710300019N0224001N9+00781-00441999999ADDGA1071+030009999GA2081+060009999GF108991999999999999999999MA1101661999999MW1001REMAWY006FEW CU
0090724240138071972010911004+37900-085967SAO  +0230FTK  V0202101N007210084019N0080001N9+00561+00391999999ADDGA1081+008409999GF108991999999999999999999MA1101151999999MW1811OC101031REMAWY007WET RWY
0150724240138071972010912004+37900-085967SAO  +0230FTK  V0202101N00671008401MN0112001N9+00611+00391101191ADDGA1021+004509999GA2081+008409999GF108991999999999999999999MA1101151999999MD1610171+9999MW1801OC101081REMAWY037RW- OCNLY RW/617// 18// 20037 WET RWY
0127724240138071972010913004+37900-085967SAO  +0230FTK  V0202101N00671008401MN0080001N9+00611+00391999999ADDGA1021+003309999GA2071+008409999GA3081+015009999GF108991999999999999999999MA1101081999999MW1801REMAWY020RW- OCNLY RW WET RWY
0114724240138071972010914004+37900-085967SAO  +0230FTK  V0202001N00671008401MN0128001N9+00611+00391999999ADDGA1021+003009999GA2071+008409999GA3081+013509999GF108991999999999999999999MA1101081999999MW1801REMAWY007WET RWY
0150724240138071972010915004+37900-085967SAO  +0230FTK  V0202001N00511005401MN0096001N9+00611+00441101031ADDGA1021+003009999GA2071+005409999GA3081+013509999GF108991999999999999999999MA1101021999999MD1810141+9999MW1801REMAWY029RW- OCNLY RW/814 18// WET RWY
0133724240138071972010916004+37900-085967SAO  +0230FTK  V0202101N00411003301MN0048001N9+00721+00561999999ADDGA1021+001809999GA2081+003309999GF108991999999999999999999MA1100981999999MW1111MW2801REMAWY036SCTVBKN VSBY E2 RW- OCNLY RW WET RWY
0104724240138071972010917004+37900-085967SAO  +0230FTK  V0202301N004110024019N0064001N9+00781+00611999999ADDGA1071+002409999GA2081+003309999GF108991999999999999999999MA1100851999999MW1111MW2801REMAWY007WET RWY
0140724240138071972010918004+37900-085967SAO  +0230FTK  V0202101N00571002401MN0064001N9+00831+00671100701ADDAA106007091GA1021+001509999GA2081+002409999GF108991999999999999999999MA1100681999999MD1810321+9999MW1111MW2801REMAWY01883229 15// WET RWY
0112724240138071972010919004+37900-085967SAO  +0230FTK  V0202401N003610018019N0040001N9+00831+00721999999ADDGA1071+001809999GA2081+003309999GF108991999999999999999999MA1100611999999MW1111MW2511REMAWY015CIG RGD WET RWY
0112724240138071972010920004+37900-085967SAO  +0230FTK  V0202201N00261001501MN0040001N9+00891+00721999999ADDGA1021+000909999GA2081+001509999GF108991999999999999999999MA1100581999999MW1451MW2511REMAWY015CIG RGD WET RWY
0173724240138071972010921004+37900-085967SAO  +0230FTK  V0202101N00311000901MN0032001N9+00831+00781100621ADDGA1101+000159999GA2071+000909999GA3081+001509999GF108991999999999999999999MA1100611999999MD1510081+9999MW1451MW2511REMAWY046LF2 CIG RGD VSBY 1 1/2V2 1/2 /508 17// WET RWY
0116724240138071972010922004+37900-085967SAO  +0230FTK  V0202101N00211000901MN0016001N9+00891+00781999999ADDGA1101+000159999GA2081+000909999GF108991999999999999999999MA1100611999999MW1451MW2511REMAWY019LF6 CIG RGD WET RWY
0106724240138071972010923004+37900-085967SAO  +0230FTK  V0202201N00211000901MN0024001N9+00891+00781999999ADDGA1021+000309999GA2081+000909999GF108991999999999999999999MA1100611999999MW1451REMAWY015CIG RGD WET RWY
0163724240138071972011000004+37900-085967SAO  +0230FTK  V0202101N00211000601MN0012001N9+00941+00831100651ADDAA106001091GA1101+000159999GA2081+000609999GF108991999999999999999999MA1100641999999MD1310031+9999MW1451MW2511REMAWY041LF6 VSBY S 1/2 CIG RGD/30304 17// WET RWY
0088724240138071972011001004+37900-085967SAO  +0230FTK  V0202501N002610006019N0008001N9+00941+00831999999ADDGA1091+000609999GF109991999999999999999999MA1100711999999MW1451MW2511REMAWY007WET RWY
0128724240138071972011002004+37900-085967SAO  +0230FTK  V0202601N00211000901MN0012001N9+01001+00891999999ADDGA1101+000159999GA2081+000909999GF108991999999999999999999MA1100751999999MW1451MW2511REMAWY031LF4 VSBY NE 7/8 CIG RGD WET RWY
0139724240138071972011003004+37900-085967SAO  +0230FTK  V0202701N00361000901MN0016001N9+01001+00891100811ADDGA1101+000159999GA2081+000909999GF108991999999999999999999MA1100811999999MD1310171+9999MW1451MW2511REMAWY028LF2 CIG 1V3/317 17// WET RWY
0090724240138071972011004004+37900-085967SAO  +0230FTK  V0202901N003110006019N0004001N9+01001+00891999999ADDGA1091+000609999GF109991999999999999999999MA1100811999999MW1451REMAWY015F INCRG WET RWY
0066724240138071972011011004+37900-085967SAO  +0230FTK  V0201401N002610001519N0000001N9+00671+00561999999ADDGA1091+000159999GF109991999999999999999999MA1100681999999MW1451
0100724240138071972011012004+37900-085967SAO  +0230FTK  V0201201N003110001519N0000001N9+00721+00611100681ADDGA1091+000159999GF109991999999999999999999MA1100681999999MD1610071+9999MW1451REMAWY011607// 20036
0066724240138071972011013004+37900-085967SAO  +0230FTK  V0200901N002110001519N0001001N9+00721+00611999999ADDGA1091+000159999GF109991999999999999999999MA1100681999999MW1451
0066724240138071972011014004+37900-085967SAO  +0230FTK  V0200601N001510001519N0002001N9+00781+00671999999ADDGA1091+000159999GF109991999999999999999999MA1100711999999MW1451
0092724240138071972011015004+37900-085967SAO  +0230FTK  V0200801N002110001519N0002001N9+00781+00671100721ADDGA1091+000159999GF109991999999999999999999MA1100711999999MD1110031+9999MW1451REMAWY003103
0066724240138071972011016004+37900-085967SAO  +0230FTK  V0200401N002610001519N0002001N9+00831+00721999999ADDGA1091+000159999GF109991999999999999999999MA1100711999999MW1451
0066724240138071972011017004+37900-085967SAO  +0230FTK  V0201001N003110001519N0002001N9+00891+00831999999ADDGA1091+000159999GF109991999999999999999999MA1100581999999MW1451
0092724240138071972011018004+37900-085967SAO  +0230FTK  V0201101N002110006019N0004001N9+01001+00891100471ADDGA1091+000609999GF109991999999999999999999MA1100441999999MD1810251+9999MW1451REMAWY003825
0066724240138071972011019004+37900-085967SAO  +0230FTK  V0200201N001010009019N0005001N9+01061+00941999999ADDGA1091+000909999GF109991999999999999999999MA1100411999999MW1451
0066724240138071972011020004+37900-085967SAO  +0230FTK  V0201501N001010009019N0006001N9+01061+00941999999ADDGA1091+000909999GF109991999999999999999999MA1100411999999MW1451
0116724240138071972011021004+37900-085967SAO  +0230FTK  V0202601N00361002101MN0016001N9+01221+01111100541ADDGA1101+000159999GA2081+002109999GF108991999999999999999999MA1100511999999MD1310081+9999MW1451REMAWY011F8/308 17//
0082724240138071972011022004+37900-085967SAO  +0230FTK  V0202601N00411012001EN0096001N9+01221+01061999999ADDGA1021+002109999GA2081+012009999GF108991999999999999999999MA1100541999999MW1051
0116724240138071972011023004+37900-085967SAO  +0230FTK  V0202601N00411008401MN0096001N9+01111+00941999999ADDGA1021+002109999GA2071+008409999GA3071+012009999GF107991999999999999999999MA1100581999999MW1051REMAWY00928BKNVSCT
0142724240138071972011100004+37900-085967SAO  +0230FTK  V0202601N003110600019N0112001N9+01001+00831100671ADDAA106999929GA1021+008409999GA2021+012009999GA3081+060009999GF108991999999999999999999MA1100641999999MD1210121+9999MW1001REMAWY01021200 1507
0098724240138071972011101004+37900-085967SAO  +0230FTK  V0202801N00311012001EN0112001N9+01061+00941999999ADDGA1021+003609999GA2071+012009999GA3081+060009999GF108991999999999999999999MA1100711999999MW1001
0104724240138071972011102004+37900-085967SAO  +0230FTK  V0203001N00261013501EN0064001N9+01061+00941999999ADDGA1021+001209999GA2071+013509999GA3081+060009999GF108991999999999999999999MA1100751999999MW1051MW2111
0119724240138071972011103004+37900-085967SAO  +0230FTK  V0202601N00211060001EN0064001N9+01001+00891100831ADDGA1021+001209999GA2071+060009999GF107991999999999999999999MA1100811999999MD1210151+9999MW1051MW2111REMAWY008215 1508
0104724240138071972011104004+37900-085967SAO  +0230FTK  V0203101N00361060001EN0048001N9+01061+00891999999ADDGA1021+001509999GA2081+060009999GF108991999999999999999999MA1100911999999MW1051MW2111REMAWY007SCTVBKN
0079724240138071972011111004+37900-085967SAO  +0230FTK  V0200401N003112200019N0224001N9+00281-00061999999ADDGA1021+075009999GF102991999999999999999999MA1101221999999MW1001REMAWY004AC E
0097724240138071972011112004+37900-085967SAO  +0230FTK  V0200301N003110240019N0224001N9+00281-00061101361ADDGA1071+024009999GF107991999999999999999999MA1101321999999MD1310081+9999MW1001REMAWY008308 1050
0066724240138071972011113004+37900-085967SAO  +0230FTK  V0200501N003112200019N0176001N9+00281-00061999999ADDGA1021+021009999GF102991999999999999999999MA1101321999999MW1001
0082724240138071972011114004+37900-085967SAO  +0230FTK  V0200601N003112200019N0176001N9+00281-00111999999ADDGA1021+009009999GA2021+021009999GF102991999999999999999999MA1101351999999MW1001
0113724240138071972011115004+37900-085967SAO  +0230FTK  V0200501N00411013501EN0176001N9+00391-00111101391ADDGA1021+005409999GA2071+013509999GF107991999999999999999999MA1101351999999MD1110031+9999MW1001REMAWY008103 1500
0066724240138071972011116004+37900-085967SAO  +0230FTK  V0200401N004110120019N0176001N9+00441-00221999999ADDGA1081+012009999GF108991999999999999999999MA1101321999999MW1001
0066724240138071972011117004+37900-085967SAO  +0230FTK  V0200601N002110120019N0128001N9+00501-00221999999ADDGA1081+012009999GF108991999999999999999999MA1101221999999MW1001
0097724240138071972011118004+37900-085967SAO  +0230FTK  V0201101N002110084019N0128001N9+00611-00221101141ADDGA1071+008409999GF107991999999999999999999MA1101051999999MD1810251+9999MW1001REMAWY008825 1500
0066724240138071972011119004+37900-085967SAO  +0230FTK  V0209991C000010075019N0112001N9+00611-00171999999ADDGA1081+007509999GF108991999999999999999999MA1101021999999MW1001
0066724240138071972011120004+37900-085967SAO  +0230FTK  V0202701N002610075019N0112001N9+00671+00001999999ADDGA1081+007509999GF108991999999999999999999MA1101151999999MW1001
0097724240138071972011121004+37900-085967SAO  +0230FTK  V0202401N003110084019N0128001N9+00671+00111101231ADDGA1081+008409999GF108991999999999999999999MA1101191999999MD1310081+9999MW1001REMAWY008308 15//
0066724240138071972011122004+37900-085967SAO  +0230FTK  V0202601N005712200019N0128001N9+00671+00111999999ADDGA1021+009009999GF102991999999999999999999MA1101251999999MW1001
0050724240138071972011123004+37900-085967SAO  +0230FTK  V0202601N003112200019N0176001N9+00501+00111999999ADDGF100991999999999999999999MA1101351999999MW1001
0076724240138071972011200004+37900-085967SAO  +0230FTK  V0202601N003112200019N0192001N9+00441+00061101481ADDGF100991999999999999999999MA1101421999999MD1210241+9999MW1001REMAWY003224
0050724240138071972011201004+37900-085967SAO  +0230FTK  V0202401N002612200019N0224001N9+00281+00001999999ADDGF100991999999999999999999MA1101591999999MW1001
0050724240138071972011202004+37900-085967SAO  +0230FTK  V0202401N002112200019N0224001N9+00171-00061999999ADDGF100991999999999999999999MA1101591999999MW1001
0076724240138071972011203004+37900-085967SAO  +0230FTK  V0202401N002112200019N0224001N9+00111-00111101681ADDGF100991999999999999999999MA1101631999999MD1110191+9999MW1001REMAWY003119
0050724240138071972011204004+37900-085967SAO  +0230FTK  V0209991C000012200019N0224001N9+00061-00111999999ADDGF100991999999999999999999MA1101661999999MW1001
0050724240138071972011211004+37900-085967SAO  +0230FTK  V0201001N000512200019N0112001N9-00111-00221999999ADDGF100991999999999999999999MA1101491999999MW1001
0076724240138071972011212004+37900-085967SAO  +0230FTK  V0201001N000512200019N0096001N9-00171-00281101471ADDGF100991999999999999999999MA1101421999999MD1710101+9999MW1041REMAWY003710
0122724240138071972011213004+37900-085967SAO  +0230FTK  V0200501N000512200019N0048001N9-00171-00281999999ADDGA1101+000159999GA2071+060009999GD19999+9999993GF107991999999999999999999MA1101421999999MW1051REMAWY016KH1 VSBY NW2 1/2
0128724240138071972011214004+37900-085967SAO  +0230FTK  V0200501N001012200019N0032001N9-00111-00221999999ADDGA1101+000159999GA2071+060009999GD19999+9999993GF107991999999999999999999MA1101351999999MW1051REMAWY022KH1 VSBY E1 1/2 W2 1/2
0108724240138071972011215004+37900-085967SAO  +0230FTK  V0201001N002112200019N0096001N9+00111-00061101371ADDGA1071+060009999GF107991999999999999999999MA1101321999999MD1610101+9999MW1051REMAWY019VSBY LWR E/610 1008
0066724240138071972011216004+37900-085967SAO  +0230FTK  V0201701N003612200019N0112001N9+00611+00111999999ADDGA1071+060009999GF107991999999999999999999MA1101221999999MW1001
0081724240138071972011217004+37900-085967SAO  +0230FTK  V0201801N007212200019N0128001N9+00891+00281999999ADDGA1071+060009999GF107991999999999999999999MA1101021999999MW1001REMAWY006PRESFR
0112724240138071972011218004+37900-085967SAO  +0230FTK  V0202001N006212200019N0176001N9+01111+00281100851ADDGA1071+060009999GF107991999999999999999999MA1100811999999MD1710471+9999MW1001OC101031REMAWY015PRESFR/747 1008
0074724240138071972011219004+37900-085967SAO  +0230FTK  V0201901N005712200019N0176001N9+01331+00221999999ADDGA1071+060009999GF107991999999999999999999MA1100681999999MW1001OC101081
0066724240138071972011220004+37900-085967SAO  +0230FTK  V0201901N008212200019N0176001N9+01441+00221999999ADDGA1021+060009999GF102991999999999999999999MA1100541999999MW1001
0097724240138071972011221004+37900-085967SAO  +0230FTK  V0201801N008212200019N0176001N9+01501+00281100451ADDGA1021+060009999GF102991999999999999999999MA1100411999999MD1710391+9999MW1001REMAWY008739 1008
0066724240138071972011222004+37900-085967SAO  +0230FTK  V0201801N007712200019N0176001N9+01501+00281999999ADDGA1021+060009999GF102991999999999999999999MA1100311999999MW1001
0066724240138071972011223004+37900-085967SAO  +0230FTK  V0201801N005712200019N0176001N9+01441+00281999999ADDGA1021+060009999GF102991999999999999999999MA1100311999999MW1001
0097724240138071972011300004+37900-085967SAO  +0230FTK  V0201901N006712200019N0224001N9+01331+00281100351ADDGA1021+060009999GF102991999999999999999999MA1100311999999MD1610101+9999MW1001REMAWY008610 1001
0066724240138071972011301004+37900-085967SAO  +0230FTK  V0201801N006212200019N0224001N9+01331+00281999999ADDGA1021+060009999GF102991999999999999999999MA1100341999999MW1001
0058724240138071972011302004+37900-085967SAO  +0230FTK  V0202001N007212200019N0224001N9+01331+00281999999ADDGF100991999999999999999999MA1100371999999MW1001OC101131
0076724240138071972011303004+37900-085967SAO  +0230FTK  V0202001N006712200019N0224001N9+01391+00281100371ADDGF100991999999999999999999MA1100341999999MD1010021+9999MW1001REMAWY003002
0050724240138071972011304004+37900-085967SAO  +0230FTK  V0202001N007712200019N0224001N9+01391+00331999999ADDGF100991999999999999999999MA1100341999999MW1001
0066724240138071972011311004+37900-085967SAO  +0230FTK  V0201901N005112200019N0224001N9+01391+01001999999ADDGA1021+060009999GF102991999999999999999999MA1100101999999MW1001
0121724240138071972011312004+37900-085967SAO  +0230FTK  V0202001N006712200019N0224001N9+01441+01061100021ADDGA1021+009009999GA2021+060009999GF102991999999999999999999MA1100031999999MD1710191+9999MW1001OC101131REMAWY008719 1508
0097724240138071972011313004+37900-085967SAO  +0230FTK  V0202001N006212200019N0176001N9+01501+01111999999ADDGA1021+007509999GA2071+060009999GD19999+9999993GF107991999999999999999999MA1100031999999MW1001
0098724240138071972011314004+37900-085967SAO  +0230FTK  V0202101N00621012001EN0176001N9+01561+01171999999ADDGA1021+005109999GA2071+012009999GA3081+060009999GF108991999999999999999999MA1100031999999MW1001
0121724240138071972011315004+37900-085967SAO  +0230FTK  V0202201N00821060001EN0176001N9+01611+01441100021ADDGA1021+004509999GA2071+060009999GF107991999999999999999999MA1100031999999MD1410001+9999MW1001OC101131REMAWY008400 1508
0120724240138071972011316004+37900-085967SAO  +0230FTK  V0203101N007710033019N0176001N9+01221+00781999999ADDGA1071+003309999GA2071+015009999GF107991999999999999999999MA1100241999999MW1001OC101131REMAWY021RWU NE AND SSW PRESRR
0081724240138071972011317004+37900-085967SAO  +0230FTK  V0203001N004110060019N0176001N9+00561+00111999999ADDGA1081+006009999GF108991999999999999999999MA1100471999999MW1001REMAWY006PRESRR
0130724240138071972011318004+37900-085967SAO  +0230FTK  V0203301N005110480019N0176001N9+00221-00111100551ADDAA106999929GA1081+048009999GF108991999999999999999999MA1100511999999MD1110491+9999MW1001REMAWY030CIG 15V17 OCNL RW--/14900 15//
0082724240138071972011319004+37900-085967SAO  +0230FTK  V0203301N005110045019N0160001N9+00111-00171999999ADDGA1081+004509999GF108991999999999999999999MA1100711999999MW1001REMAWY007CIG RGD
0100724240138071972011320004+37900-085967SAO  +0230FTK  V0203501N004110045019N0160001N9+00001-00331999999ADDGA1081+004509999GF108991999999999999999999MA1100881999999MW1511MW2611REMAWY019CIG RGD WND 330V010
0097724240138071972011321004+37900-085967SAO  +0230FTK  V0203601N006210042019N0048001N9-00111-00331101091ADDGA1081+004209999GF108991999999999999999999MA1101051999999MD1210511+9999MW1771REMAWY008251 16//
0088724240138071972011322004+37900-085967SAO  +0230FTK  V0203601N006710039019N0024001N9-00111-00441999999ADDGA1081+003909999GF108991999999999999999999MA1101191999999MW1051MW2771REMAWY007WET RWY
0111724240138071972011323004+37900-085967SAO  +0230FTK  V0200301N005110045019N0024001N9-00171-00501999999ADDGA1071+004509999GA2081+007509999GF108991999999999999999999MA1101391999999MW1051MW2771REMAWY014PRESRR WET RWY
0140724240138071972011400004+37900-085967SAO  +0230FTK  V0200101N004110045019N0024001N9-00221-00501101551ADDAA106000391GA1071+004509999GA2081+007509999GF108991999999999999999999MA1101521999999MD1110461+9999MW1051MW2711REMAWY01814601 16// WET RWY
0111724240138071972011401004+37900-085967SAO  +0230FTK  V0203501N00411009001MN0224001N9-00221-00671999999ADDGA1021+004509999GA2081+009009999GF108991999999999999999999MA1101661999999MW1001REMAWY020HIR CLDS VSB WET RWY
0098724240138071972011402004+37900-085967SAO  +0230FTK  V0200101N004110096019N0224001N9-00221-00671999999ADDGA1071+009609999GA2081+021009999GF108991999999999999999999MA1101761999999MW1001REMAWY007WET RWY
0121724240138071972011403004+37900-085967SAO  +0230FTK  V0200101N00461021001EN0224001N9-00221-00671101941ADDGA1021+010509999GA2081+021009999GF108991999999999999999999MA1101901999999MD1110391+9999MW1001REMAWY016139 157/ WET RWY
0082724240138071972011404004+37900-085967SAO  +0230FTK  V0200501N005110210019N0224001N9-00281-00671999999ADDGA1081+021009999GF108991999999999999999999MA1101931999999MW1001REMAWY007WET RWY
0066724240138071972011411004+37900-085967SAO  +0230FTK  V0203301N003110096019N0112001N9-00561-00831999999ADDGA1081+009609999GF108991999999999999999999MA1102301999999MW1001
0119724240138071972011412004+37900-085967SAO  +0230FTK  V0203101N002610096019N0112001N9-00611-00891102481ADDGA1071+009609999GA2081+075009999GF108991999999999999999999MA1102371999999MD1310151+9999MW1001REMAWY014315 1508 20001
0082724240138071972011413004+37900-085967SAO  +0230FTK  V0203101N001010096019N0144001N9-00611-00891999999ADDGA1071+009609999GA2081+075009999GF108991999999999999999999MA1102541999999MW1001
0113724240138071972011414004+37900-085967SAO  +0230FTK  V0203401N001012200019N0144001N9-00671-00941999999ADDGA1021+010509999GA2021+018009999GA3071+075009999GD19999+9999993GF107991999999999999999999MA1102711999999MW1001
0081724240138071972011415004+37900-085967SAO  +0230FTK  V0200801N001012200019N0144001N9-00561-00891102941ADDGF100991999999999999999999MA1102841999999MD1210461+9999MW1001REMAWY008246 1008
0050724240138071972011416004+37900-085967SAO  +0230FTK  V0203601N002112200019N0144001N9-00391-00891999999ADDGF100991999999999999999999MA1102981999999MW1001
0074724240138071972011417004+37900-085967SAO  +0230FTK  V0200201N002612200019N0320001N9-00221-01061999999ADDGF100991999999999999999999MA1102951999999MW1001REMAWY015CU ALQDS CI E-S
0081724240138071972011418004+37900-085967SAO  +0230FTK  V0200401N002612200019N0320001N9-00171-01001103001ADDGF100991999999999999999999MA1102951999999MD1110051+9999MW1001REMAWY008105 1108
0050724240138071972011419004+37900-085967SAO  +0230FTK  V0203501N002612200019N0320001N9-00111-01061999999ADDGF100991999999999999999999MA1102881999999MW1001
0065724240138071972011420004+37900-085967SAO  +0230FTK  V0203601N003612200019N0320001N9-00111-01061999999ADDGF100991999999999999999999MA1102811999999MW1001REMAWY006CI E-S
0088724240138071972011421004+37900-085967SAO  +0230FTK  V0203601N004112200019N0320001N9-00111-01281103131ADDGF100991999999999999999999MA1103011999999MD1310121+9999MW1001REMAWY015PRESRR/312 1101
0080724240138071972011422004+37900-085967SAO  +0230FTK  V0203601N003112200019N0320001N9-00171-01331999999ADDGA1021+075009999GF102991999999999999999999MA1103151999999MW1001REMAWY005CU SW
0066724240138071972011423004+37900-085967SAO  +0230FTK  V0203501N003112200019N0176001N9-00221-01561999999ADDGA1021+075009999GF102991999999999999999999MA1103181999999MW1001
0097724240138071972011500004+37900-085967SAO  +0230FTK  V0203101N006212200019N0224001N9-00501-01281103421ADDGA1021+075009999GF102991999999999999999999MA1103291999999MD1210291+9999MW1001REMAWY008229 1008
0066724240138071972011501004+37900-085967SAO  +0230FTK  V0203001N005112200019N0224001N9-00671-01281999999ADDGA1021+075009999GF102991999999999999999999MA1103391999999MW1001
0066724240138071972011502004+37900-085967SAO  +0230FTK  V0203301N004612200019N0224001N9-00831-01391999999ADDGA1021+075009999GF102991999999999999999999MA1103491999999MW1001
0097724240138071972011503004+37900-085967SAO  +0230FTK  V0203401N003612200019N0224001N9-01001-01671103751ADDGA1021+075009999GF102991999999999999999999MA1103621999999MD1310321+9999MW1001REMAWY008332 1008
0066724240138071972011504004+37900-085967SAO  +0230FTK  V0203301N003112200019N0224001N9-01061-01891999999ADDGA1021+075009999GF102991999999999999999999MA1103661999999MW1001
0066724240138071972011511004+37900-085967SAO  +0230FTK  V0203401N003112200019N0224001N9-01781-02941999999ADDGA1021+075009999GF102991999999999999999999MA1104001999999MW1001
0097724240138071972011512004+37900-085967SAO  +0230FTK  V0203301N003112200019N0224001N9-01831-02781104251ADDGA1021+075009999GF102991999999999999999999MA1104101999999MD1210241+9999MW1001REMAWY008224 1008
0050724240138071972011513004+37900-085967SAO  +0230FTK  V0203201N002612200019N0176001N9-01891-02831999999ADDGF100991999999999999999999MA1104131999999MW1001
0050724240138071972011514004+37900-085967SAO  +0230FTK  V0203101N003112200019N0320001N9-01831-02831999999ADDGF100991999999999999999999MA1104171999999MW1001
0081724240138071972011515004+37900-085967SAO  +0230FTK  V0203601N004612200019N0320001N9-01781-02941104401ADDGF100991999999999999999999MA1104231999999MD1110121+9999MW1001REMAWY008112 1100
0066724240138071972011516004+37900-085967SAO  +0230FTK  V0203001N004112200019N0320001N9-01721-02941999999ADDGA1021+012009999GF102991999999999999999999MA1104231999999MW1001
0066724240138071972011517004+37900-085967SAO  +0230FTK  V0203001N004612200019N0320001N9-01611-02781999999ADDGA1021+012009999GF102991999999999999999999MA1104201999999MW1001
0097724240138071972011518004+37900-085967SAO  +0230FTK  V0203001N003612200019N0320001N9-01561-02671104291ADDGA1021+012009999GF102991999999999999999999MA1104131999999MD1810101+9999MW1001REMAWY008810 1100
0067724240138071972011519004+37900-085967SAO  +0230FTK  V0203301N003612200019N0320001N9-01501-02831999999ADDGF100991999999999999999999MA1104101999999MW1001REMAWY008CU ALQDS
0067724240138071972011520004+37900-085967SAO  +0230FTK  V0203201N002612200019N0320001N9-01501-02721999999ADDGF100991999999999999999999MA1104101999999MW1001REMAWY008CU ALQDS
0093724240138071972011521004+37900-085967SAO  +0230FTK  V0202901N004612200019N0320001N9-01501-02721104311ADDGF100991999999999999999999MA1104131999999MD1510001+9999MW1001REMAWY020WND 260V350/500 1100
0067724240138071972011522004+37900-085967SAO  +0230FTK  V0202901N004612200019N0320001N9-01561-02721999999ADDGF100991999999999999999999MA1104131999999MW1001REMAWY008CU ALQDS
0050724240138071972011523004+37900-085967SAO  +0230FTK  V0203301N002112200019N0320001N9-01721-02721999999ADDGF100991999999999999999999MA1104131999999MW1001
0076724240138071972011600004+37900-085967SAO  +0230FTK  V0203401N002112200019N0320001N9-01781-02781104381ADDGF100991999999999999999999MA1104171999999MD1210071+9999MW1001REMAWY003207
0050724240138071972011601004+37900-085967SAO  +0230FTK  V0203301N001512200019N0320001N9-01891-02781999999ADDGF100991999999999999999999MA1104271999999MW1001
0050724240138071972011602004+37900-085967SAO  +0230FTK  V0203401N001512200019N0320001N9-01941-02671999999ADDGF100991999999999999999999MA1104331999999MW1001
0076724240138071972011603004+37900-085967SAO  +0230FTK  V0203601N001512200019N0320001N9-02001-02781104591ADDGF100991999999999999999999MA1104371999999MD1110191+9999MW1001REMAWY003119
0050724240138071972011604004+37900-085967SAO  +0230FTK  V0203401N001012200019N0320001N9-02001-02781999999ADDGF100991999999999999999999MA1104371999999MW1001
0050724240138071972011611004+37900-085967SAO  +0230FTK  V0200701N002612200019N0192001N9-02221-02891999999ADDGF100991999999999999999999MA1104401999999MW1001
0076724240138071972011612004+37900-085967SAO  +0230FTK  V0200901N003112200019N0224001N9-02221-02781104651ADDGF100991999999999999999999MA1104441999999MD1510001+9999MW1001REMAWY003500
0050724240138071972011613004+37900-085967SAO  +0230FTK  V0200901N003112200019N0224001N9-02221-02781999999ADDGF100991999999999999999999MA1104441999999MW1001
0066724240138071972011614004+37900-085967SAO  +0230FTK  V0201101N002612200019N0320001N9-02111-02721999999ADDGA1021+090009999GF102991999999999999999999MA1104441999999MW1001
0097724240138071972011615004+37900-085967SAO  +0230FTK  V0201201N001012200019N0320001N9-02001-02721104671ADDGA1021+090009999GF102991999999999999999999MA1104471999999MD1310031+9999MW1001REMAWY008303 1008
0097724240138071972011616004+37900-085967SAO  +0230FTK  V0201001N001012200019N0320001N9-01781-02671999999ADDGA1021+030009999GA2021+090009999GD19999+9999993GF102991999999999999999999MA1104441999999MW1001
0097724240138071972011617004+37900-085967SAO  +0230FTK  V0201601N001012200019N0320001N9-01611-02611999999ADDGA1021+030009999GA2071+090009999GD19999+9999993GF107991999999999999999999MA1104301999999MW1001
0128724240138071972011618004+37900-085967SAO  +0230FTK  V0201201N001512200019N0320001N9-01441-02611104401ADDGA1021+030009999GA2081+090009999GD19999+9999993GF108991999999999999999999MA1104171999999MD1810271+9999MW1001REMAWY008827 1077
0097724240138071972011619004+37900-085967SAO  +0230FTK  V0201601N003112200019N0320001N9-01171-02441999999ADDGA1021+030009999GA2081+090009999GD19999+9999993GF108991999999999999999999MA1104031999999MW1001
0097724240138071972011620004+37900-085967SAO  +0230FTK  V0201801N004112200019N0320001N9-01061-02501999999ADDGA1021+030009999GA2081+090009999GD19999+9999993GF108991999999999999999999MA1103891999999MW1001
0128724240138071972011621004+37900-085967SAO  +0230FTK  V0201701N002612200019N0320001N9-00941-02501104041ADDGA1021+030009999GA2071+090009999GD19999+9999993GF107991999999999999999999MA1103831999999MD1710361+9999MW1001REMAWY008736 1078
0097724240138071972011622004+37900-085967SAO  +0230FTK  V0201701N002612200019N0320001N9-00941-02391999999ADDGA1021+030009999GA2081+090009999GD19999+9999993GF108991999999999999999999MA1103761999999MW1001
0097724240138071972011623004+37900-085967SAO  +0230FTK  V0201601N004112200019N0320001N9-00941-02331999999ADDGA1021+030009999GA2081+090009999GD19999+9999993GF108991999999999999999999MA1103621999999MW1001
0097724240138071972011700004+37900-085967SAO  +0230FTK  V0201601N003612200019N0224001N9-01001-02221103711ADDGA1081+084009999GF108991999999999999999999MA1103521999999MD1710301+9999MW1001REMAWY008730 1037
0066724240138071972011701004+37900-085967SAO  +0230FTK  V0201701N004612200019N0224001N9-01001-02111999999ADDGA1081+084009999GF108991999999999999999999MA1103391999999MW1001
0066724240138071972011702004+37900-085967SAO  +0230FTK  V0201701N003112200019N0224001N9-00941-02061999999ADDGA1071+084009999GF107991999999999999999999MA1103291999999MW1001
0097724240138071972011703004+37900-085967SAO  +0230FTK  V0201801N002612200019N0224001N9-01001-02001103411ADDGA1071+084009999GF107991999999999999999999MA1103221999999MD1710271+9999MW1001REMAWY008727 1008
0066724240138071972011704004+37900-085967SAO  +0230FTK  V0201901N002612200019N0224001N9-00941-02001999999ADDGA1071+084009999GF107991999999999999999999MA1103081999999MW1001
0050724240138071972011711004+37900-085967SAO  +0230FTK  V0202201N005112200019N0224001N9-00671-01721999999ADDGF100991999999999999999999MA1102911999999MW1001
0076724240138071972011712004+37900-085967SAO  +0230FTK  V0202101N005112200019N0224001N9-00671-01781103041ADDGF100991999999999999999999MA1102911999999MD1410001+9999MW1001REMAWY003400
0066724240138071972011713004+37900-085967SAO  +0230FTK  V0202201N008212200019N0176001N9-00671-01781999999ADDGA1021+075009999GF102991999999999999999999MA1102881999999MW1001
0050724240138071972011714004+37900-085967SAO  +0230FTK  V0202101N008212200019N0320001N9-00501-01721999999ADDGF100991999999999999999999MA1102841999999MW1001
0076724240138071972011715004+37900-085967SAO  +0230FTK  V0202101N008212200019N0320001N9-00281-01721102941ADDGF100991999999999999999999MA1102811999999MD1710081+9999MW1001REMAWY003708
0050724240138071972011716004+37900-085967SAO  +0230FTK  V0202001N008712200019N0176001N9-00061-01721999999ADDGF100991999999999999999999MA1102741999999MW1001
0058724240138071972011717004+37900-085967SAO  +0230FTK  V0202001N008212200019N0176001N9+00171-01671999999ADDGF100991999999999999999999MA1102641999999MW1001OC101131
0084724240138071972011718004+37900-085967SAO  +0230FTK  V0202201N007712200019N0176001N9+00391-01561102621ADDGF100991999999999999999999MA1102511999999MD1810291+9999MW1001OC101031REMAWY003829
0074724240138071972011719004+37900-085967SAO  +0230FTK  V0202101N007712200019N0320001N9+00501-01441999999ADDGA1021+075009999GF102991999999999999999999MA1102441999999MW1001OC101031
0074724240138071972011720004+37900-085967SAO  +0230FTK  V0202101N007710120019N0320001N9+00501-01281999999ADDGA1071+012009999GF107991999999999999999999MA1102371999999MW1001OC100931
0097724240138071972011721004+37900-085967SAO  +0230FTK  V0202101N007210120019N0320001N9+00441-01281102481ADDGA1081+012009999GF108991999999999999999999MA1102371999999MD1610141+9999MW1001REMAWY008614 15//
0066724240138071972011722004+37900-085967SAO  +0230FTK  V0201801N005110120019N0320001N9+00391-01221999999ADDGA1081+012009999GF108991999999999999999999MA1102341999999MW1001
0082724240138071972011723004+37900-085967SAO  +0230FTK  V0201801N006210120019N0320001N9+00391-01171999999ADDGA1071+012009999GA2071+060009999GF107991999999999999999999MA1102271999999MW1001
0097724240138071972011800004+37900-085967SAO  +0230FTK  V0201801N005712200019N0224001N9+00281-01061102331ADDGA1021+060009999GF102991999999999999999999MA1102241999999MD1710141+9999MW1001REMAWY008714 1008
0050724240138071972011801004+37900-085967SAO  +0230FTK  V0201901N005712200019N0224001N9+00281-00941999999ADDGF100991999999999999999999MA1102201999999MW1001
0050724240138071972011802004+37900-085967SAO  +0230FTK  V0201801N007212200019N0224001N9+00281-01061999999ADDGF100991999999999999999999MA1102171999999MW1001
0076724240138071972011803004+37900-085967SAO  +0230FTK  V0201901N005112200019N0224001N9+00221-01061102241ADDGF100991999999999999999999MA1102171999999MD1610081+9999MW1001REMAWY003608
0050724240138071972011804004+37900-085967SAO  +0230FTK  V0201901N007712200019N0224001N9+00221-01061999999ADDGF100991999999999999999999MA1102131999999MW1001
0050724240138071972011811004+37900-085967SAO  +0230FTK  V0201801N003112200019N0224001N9+00221-01001999999ADDGF100991999999999999999999MA1102131999999MW1001
0097724240138071972011812004+37900-085967SAO  +0230FTK  V0201901N004110300019N0224001N9+00171-00891102161ADDGA1071+030009999GF107991999999999999999999MA1102101999999MD1710031+9999MW1001REMAWY008703 1020
0066724240138071972011813004+37900-085967SAO  +0230FTK  V0201901N006210240019N0224001N9+00331-00781999999ADDGA1081+024009999GF108991999999999999999999MA1102071999999MW1001
0066724240138071972011814004+37900-085967SAO  +0230FTK  V0202001N005710180019N0192001N9+00441-00781999999ADDGA1081+018009999GF108991999999999999999999MA1102101999999MW1001
0138724240138071972011815004+37900-085967SAO  +0230FTK  V0201901N00571018001EN0192001N9+00561-00671102161ADDGA1021+012009999GA2081+018009999GF108991999999999999999999MA1102101999999MD1510001+9999MW1001REMAWY033HIR CLDS VSB WND 170V210/500 157/
0087724240138071972011816004+37900-085967SAO  +0230FTK  V0201901N007210180019N0176001N9+00561-00611999999ADDGA1081+018009999GF108991999999999999999999MA1102001999999MW1001REMAWY012HIR CLDS VSB
0103724240138071972011817004+37900-085967SAO  +0230FTK  V0201901N006210180019N0176001N9+00891-00501999999ADDGA1071+018009999GA2081+075009999GF108991999999999999999999MA1101901999999MW1001REMAWY012BINOVC ALQDS
0134724240138071972011818004+37900-085967SAO  +0230FTK  V0202001N006710150019N0176001N9+01111-00221101831ADDGA1071+015009999GA2081+075009999GF108991999999999999999999MA1101731999999MD1810301+9999MW1001OC101131REMAWY021BINOVC ALQDS/830 1508
0106724240138071972011819004+37900-085967SAO  +0230FTK  V0202101N006710150019N0176001N9+01281-00061999999ADDGA1071+015009999GA2071+030009999GA3081+060009999GF108991999999999999999999MA1101661999999MW1001OC101031
0116724240138071972011820004+37900-085967SAO  +0230FTK  V0201901N006710150019N0320001N9+01331+00061999999ADDGA1071+015009999GA2081+060009999GF108991999999999999999999MA1101561999999MW1001OC101031REMAWY017OCNL BINOVC ALQDS
0121724240138071972011821004+37900-085967SAO  +0230FTK  V0201901N006210150019N0320001N9+01281+00111101561ADDGA1071+015009999GA2081+060009999GF108991999999999999999999MA1101561999999MD1610241+9999MW1001OC101031REMAWY008624 1508
0132724240138071972011822004+37900-085967SAO  +0230FTK  V0202001N00671015001EN0320001N9+01281+00171999999ADDGA1021+009009999GA2071+015009999GA3081+060009999GF108991999999999999999999MA1101521999999MW1001OC101131REMAWY017OCNL BINOVC ALQDS
0098724240138071972011823004+37900-085967SAO  +0230FTK  V0202001N00411015001EN0176001N9+01221+00281999999ADDGA1021+009009999GA2081+015009999GF108991999999999999999999MA1101521999999MW1001REMAWY007SCTVBKN
0110724240138071972011900004+37900-085967SAO  +0230FTK  V0201901N005110090019N0112001N9+01001+00441101551ADDAA106999929GA1081+009009999GF108991999999999999999999MA1101521999999MD1510021+9999MW1801REMAWY01050200 15//
0066724240138071972011901004+37900-085967SAO  +0230FTK  V0202001N009310090019N0112001N9+01001+00611999999ADDGA1081+009009999GF108991999999999999999999MA1101521999999MW1001
0074724240138071972011902004+37900-085967SAO  +0230FTK  V0202101N004110090019N0112001N9+01001+00611999999ADDGA1081+009009999GF108991999999999999999999MA1101561999999MW1001OC101031
0097724240138071972011903004+37900-085967SAO  +0230FTK  V0202001N007210075019N0080001N9+00891+00611101721ADDGA1081+007509999GF108991999999999999999999MA1101661999999MD1310171+9999MW1801REMAWY008317 15//
0066724240138071972011904004+37900-085967SAO  +0230FTK  V0202301N005110060019N0080001N9+00891+00611999999ADDGA1081+006009999GF108991999999999999999999MA1101761999999MW1801
0082724240138071972011911004+37900-085967SAO  +0230FTK  V0202701N002110033019N0176001N9+01001+00831999999ADDGA1071+003309999GA2081+004509999GF108991999999999999999999MA1102031999999MW1001
0137724240138071972011912004+37900-085967SAO  +0230FTK  V0202301N00101004501MN0160001N9+00941+00831102171ADDGA1021+003009999GA2071+004509999GA3081+006009999GF108991999999999999999999MA1102131999999MD1210101+9999MW1001REMAWY016210// 15// 20004
0098724240138071972011913004+37900-085967SAO  +0230FTK  V0209991C00001003001MN0096001N9+00831+00781999999ADDGA1021+002109999GA2071+003009999GA3081+004509999GF108991999999999999999999MA1102171999999MW1111
0098724240138071972011914004+37900-085967SAO  +0230FTK  V0203501N001010018019N0080001N9+00941+00891999999ADDGA1071+001809999GA2081+003609999GF108991999999999999999999MA1102241999999MW1111REMAWY007WET RWY
0127724240138071972011915004+37900-085967SAO  +0230FTK  V0200601N00261004501MN0080001N9+00941+00781102321ADDGA1021+003609999GA2071+004509999GF107991999999999999999999MA1102301999999MD1210171+9999MW1051MW2111REMAWY016217 1600 WET RWY
0104724240138071972011916004+37900-085967SAO  +0230FTK  V0200601N00261004801MN0080001N9+01001+00721999999ADDGA1021+003609999GA2081+004809999GF108991999999999999999999MA1102371999999MW1051MW2111REMAWY007WET RWY
0098724240138071972011917004+37900-085967SAO  +0230FTK  V0200901N00261006601MN0096001N9+01061+00721999999ADDGA1021+004209999GA2081+006609999GF108991999999999999999999MA1102371999999MW1051REMAWY007WET RWY
0163724240138071972011918004+37900-085967SAO  +0230FTK  V0201201N001510330019N0112001N9+01111+00611102281ADDGA1021+004509999GA2021+009609999GA3071+033009999GA4081+075009999GF108991999999999999999999MA1102271999999MD1810031+9999MW1001REMAWY02632SCTVBKN/803 1532 WET RWY
0116724240138071972011919004+37900-085967SAO  +0230FTK  V0201601N003610096019N0128001N9+01281+00721999999ADDGA1071+009609999GA2071+036009999GA3071+075009999GF107991999999999999999999MA1102171999999MW1001REMAWY00932BKNVSCT
0116724240138071972011920004+37900-085967SAO  +0230FTK  V0201701N004110096019N0128001N9+01281+00781999999ADDGA1071+009609999GA2071+036009999GA3071+075009999GF107991999999999999999999MA1102101999999MW1001REMAWY00932BKNVSCT
0125724240138071972011921004+37900-085967SAO  +0230FTK  V0201701N003110114019N0128001N9+01281+00781102151ADDGA1071+011409999GA2071+075009999GF107991999999999999999999MA1102101999999MD1610121+9999MW1001REMAWY020WND 120V190/612 1508
0087724240138071972011922004+37900-085967SAO  +0230FTK  V0201701N001510096019N0128001N9+01221+00831999999ADDGA1081+009609999GF108991999999999999999999MA1102171999999MW1001REMAWY012HIR CLDS VSB
0087724240138071972011923004+37900-085967SAO  +0230FTK  V0201101N001010096019N0112001N9+01171+00831999999ADDGA1081+009609999GF108991999999999999999999MA1102171999999MW1001REMAWY012HIR CLDS VSB
0097724240138071972012000004+37900-085967SAO  +0230FTK  V0201101N002610075019N0096001N9+01111+00831102191ADDGA1081+007509999GF108991999999999999999999MA1102171999999MD1110031+9999MW1051REMAWY008103 15//
0072724240138071972012001004+37900-085967SAO  +0230FTK  V0201201N002110042019N0048001N9+01111+00891999999ADDGA1081+004209999GF108991999999999999999999MA1102131999999MW1051MW2111
0106724240138071972012002004+37900-085967SAO  +0230FTK  V0201101N002610018019N0048001N9+01061+00941999999ADDGA1071+001809999GA2081+003909999GF108991999999999999999999MA1102101999999MW1041MW2451REMAWY009INTMT L--
0111724240138071972012003004+37900-085967SAO  +0230FTK  V0201101N003610009019N0032001N9+01001+00941102091ADDGA1081+000909999GF108991999999999999999999MA1102031999999MD1810101+9999MW1041MW2451REMAWY016CIG RGD/810 16//
0088724240138071972012004004+37900-085967SAO  +0230FTK  V0201001N00211003901MN0048001N9+01001+00941999999ADDGA1021+001209999GA2081+003909999GF108991999999999999999999MA1102001999999MW1041MW2451
0098724240138071972012011004+37900-085967SAO  +0230FTK  V0202201N003110042019N0048001N9+01331+00501999999ADDGA1071+004209999GA2081+004509999GF108991999999999999999999MA1101591999999MW1451REMAWY007CIG RGD
0137724240138071972012012004+37900-085967SAO  +0230FTK  V0202201N003610015019N0048001N9+01391+01061101631ADDGA1071+001509999GA2081+004509999GF108991999999999999999999MA1101591999999MD1610071+9999MW1111REMAWY032CIG RGD/607// 18// 20015 WET RWY
0090724240138071972012013004+37900-085967SAO  +0230FTK  V0202101N005110009019N0040001N9+01391+01221999999ADDGA1081+000909999GF108991999999999999999999MA1101561999999MW1451REMAWY015CIG RGD WET RWY
0109724240138071972012014004+37900-085967SAO  +0230FTK  V0202001N004610006019N0024001N9+01391+01331999999ADDGA1081+000609999GF108991999999999999999999MA1101521999999MW1451REMAWY034R17VR38 CIG RGD VSBY N1 S1 WET RWY
0117724240138071972012015004+37900-085967SAO  +0230FTK  V0202101N005110009019N0028001N9+01391+01391101561ADDGA1091+000909999GF109991999999999999999999MA1101561999999MD1510071+9999MW1451REMAWY028R17VR60+ VSBY W2/507 WET RWY
0218724240138071972012016004+37900-085967SAO  +0230FTK  V0202001N00571001501MN0040001N9+01441+01441999999ADDGA1101+000159999GA2071+001509999GA3071+004509999GA4081+021009999GF108991999999999999999999MA1101591999999MW1171MW2451MW3801MW4951REMAWY077RF3 BINOVC NW T NE MOVG E OCNL LTGICCG E RW- OCNLY RW PK WND 19/15 52 WET RWY
0136724240138071972012017004+37900-085967SAO  +0230FTK  V0202301N00261004801MN0080001N9+01441+01441999999ADDGA1021+001809999GA2071+004809999GA3081+007509999GF108991999999999999999999MA1101591999999MW1451MW2801REMAWY023PK WND 24/12 02 WET RWY
0181724240138071972012018004+37900-085967SAO  +0230FTK  V0202501N002610033019N0040001N9+01501+01501101461ADDAA106003091GA1101+000159999GA2021+001209999GA3081+003309999GF108991999999999999999999MA1101461999999MD1810081+9999MW1451MW2511REMAWY043LF3 SCTVBKN L- OCNLY L--/80813 17// WET RWY
0161724240138071972012019004+37900-085967SAO  +0230FTK  V0202501N003110021019N0036001N9+01501+01441999999ADDGA1101+000159999GA2021+001209999GA3071+002109999GA4081+003309999GF108991999999999999999999MA1101421999999MW1451MW2511REMAWY032LF3 SCTVBKN L- OCNLY L-- WET RWY
0123724240138071972012020004+37900-085967SAO  +0230FTK  V0202501N00411001201MN0040001N9+01501+01501999999ADDGA1101+000159999GA2071+001209999GA3081+002709999GF108991999999999999999999MA1101421999999MW1451MW2511REMAWY010F2 WET RWY
0137724240138071972012021004+37900-085967SAO  +0230FTK  V0202501N00261003301MN0048001N9+01561+01501101401ADDGA1021+002409999GA2071+003309999GA3081+011409999GF108991999999999999999999MA1101421999999MD1610051+9999MW1111REMAWY016605 15// WET RWY
0098724240138071972012022004+37900-085967SAO  +0230FTK  V0202501N00211011401MN0048001N9+01501+01441999999ADDGA1021+003309999GA2081+011409999GF108991999999999999999999MA1101461999999MW1111REMAWY007WET RWY
0114724240138071972012023004+37900-085967SAO  +0230FTK  V0202701N001010030019N0032001N9+01441+01441999999ADDGA1071+003009999GA2071+004509999GA3081+009609999GF108991999999999999999999MA1101491999999MW1451REMAWY007WET RWY
0149724240138071972012100004+37900-085967SAO  +0230FTK  V0209991C00001004501MN0032001N9+01391+01391101471ADDAA106999929GA1021+001809999GA2081+004509999GF108991999999999999999999MA1101461999999MD1110071+9999MW1451REMAWY033F BANK OVR RWY/10700 16// WET RWY
0126724240138071972012101004+37900-085967SAO  +0230FTK  V0209991C000010054019N0032001N9+01331+01331999999ADDGA1081+005409999GF108991999999999999999999MA1101521999999MW1111MW2171REMAWY045T ENE MOVG NE OCNL LTGIC PK WND 00/00 WET RWY
0113724240138071972012102004+37900-085967SAO  +0230FTK  V0203501N001010096019N0064001N9+01391+01331999999ADDGA1081+009609999GF108991999999999999999999MA1101521999999MW1111REMAWY038DSNT LTNG E-SE PK WND 36/04 48 WET RWY
0137724240138071972012103004+37900-085967SAO  +0230FTK  V0200201N003110084019N0064001N9+01281+01281101541ADDGA1021+002709999GA2021+004509999GA3081+008409999GF108991999999999999999999MA1101521999999MD1110071+9999MW1111REMAWY016107 15// WET RWY
0098724240138071972012104004+37900-085967SAO  +0230FTK  V0200201N004110027019N0064001N9+01221+01171999999ADDGA1071+002709999GA2081+008409999GF108991999999999999999999MA1101591999999MW1111REMAWY007WET RWY
0093724240138071972012111004+37900-085967SAO  +0230FTK  V0200501N00511001201MN0022001N9+00501+00281999999ADDGA1101+000159999GA2081+001209999GF108991999999999999999999MA1101731999999MW1451REMAWY002F4
0105724240138071972012112004+37900-085967SAO  +0230FTK  V0200601N004110015019N0048001N9+00561+00441101821ADDGA1081+001509999GF108991999999999999999999MA1101831999999MD1110031+9999MW1111REMAWY016103// 16// 20013
0082724240138071972012113004+37900-085967SAO  +0230FTK  V0200501N002610021019N0048001N9+00501+00441999999ADDGA1071+002109999GA2081+003309999GF108991999999999999999999MA1101861999999MW1111
0082724240138071972012114004+37900-085967SAO  +0230FTK  V0200701N003110021019N0048001N9+00501+00441999999ADDGA1071+002109999GA2081+003309999GF108991999999999999999999MA1101901999999MW1111
0121724240138071972012115004+37900-085967SAO  +0230FTK  V0200701N00261003601MN0048001N9+00441+00331101941ADDGA1021+001809999GA2081+003609999GF108991999999999999999999MA1101931999999MD1210121+9999MW1111REMAWY016SCTVBKN/212 16//
0082724240138071972012116004+37900-085967SAO  +0230FTK  V0200701N00411003901MN0048001N9+00501+00441999999ADDGA1021+002409999GA2081+003909999GF108991999999999999999999MA1101931999999MW1111
0082724240138071972012117004+37900-085967SAO  +0230FTK  V0200801N00361003601MN0064001N9+00561+00501999999ADDGA1021+002409999GA2081+003609999GF108991999999999999999999MA1101861999999MW1111
0113724240138071972012118004+37900-085967SAO  +0230FTK  V0200801N004110045019N0080001N9+00561+00221101791ADDGA1071+004509999GA2081+011409999GF108991999999999999999999MA1101761999999MD1810151+9999MW1051REMAWY008815 15//
0066724240138071972012119004+37900-085967SAO  +0230FTK  V0200601N002610096019N0096001N9+00611+00501999999ADDGA1081+009609999GF108991999999999999999999MA1101661999999MW1051
0098724240138071972012120004+37900-085967SAO  +0230FTK  V0201001N003110039019N0096001N9+00721+00611999999ADDGA1071+003909999GA2081+009609999GF108991999999999999999999MA1101591999999MW1051REMAWY007BKNVSCT
0105724240138071972012121004+37900-085967SAO  +0230FTK  V0201201N003110039019N0064001N9+00721+00501101591ADDGA1081+003909999GF108991999999999999999999MA1101591999999MD1610201+9999MW1051REMAWY016CIG RGD/620 15//
0098724240138071972012122004+37900-085967SAO  +0230FTK  V0201101N002110024019N0064001N9+00671+00441999999ADDGA1071+002409999GA2081+003609999GF108991999999999999999999MA1101561999999MW1051REMAWY007BKNVSCT
0066724240138071972012123004+37900-085967SAO  +0230FTK  V0201201N003110024019N0064001N9+00671+00441999999ADDGA1081+002409999GF108991999999999999999999MA1101521999999MW1051
0122724240138071972012200004+37900-085967SAO  +0230FTK  V0200801N002110018019N0040001N9+00671+00561101551ADDAA106999929GA1081+001809999GF108991999999999999999999MA1101521999999MD1610051+9999MW1051MW2451MW3511REMAWY01060500 17//
0098724240138071972012201004+37900-085967SAO  +0230FTK  V0201001N002111800019N0040001N9+00611+00501999999ADDGA1081+180009999GF108991999999999999999999MA1101491999999MW1051MW2451REMAWY017CIG 5V7 INTMT L--
0088724240138071972012202004+37900-085967SAO  +0230FTK  V0201201N001511800019N0040001N9+00671+00561999999ADDGA1081+180009999GF108991999999999999999999MA1101421999999MW1051MW2451REMAWY007CIG 5V7
0112724240138071972012203004+37900-085967SAO  +0230FTK  V0201001N002110006019N0008001N9+00611+00611101451ADDGA1091+000609999GF109991999999999999999999MA1101391999999MD1710121+9999MW1051MW2451REMAWY017VSBY S-E 1/4 /712
0072724240138071972012204004+37900-085967SAO  +0230FTK  V0201001N002110003019N0004001N9+00671+00671999999ADDGA1091+000309999GF109991999999999999999999MA1101351999999MW1051MW2451
0109724240138071972012211004+37900-085967SAO  +0230FTK  V0201701N00311001801MN0016001N9+01111+01111999999ADDGA1101+000159999GA2071+001809999GA3081+003009999GF108991999999999999999999MA1100851999999MW1451REMAWY002F7
0134724240138071972012212004+37900-085967SAO  +0230FTK  V0201901N00311003601MN0024001N9+01171+01111100821ADDGA1101+000159999GA2081+003609999GF108991999999999999999999MA1100781999999MD1710151+9999MW1051MW2451REMAWY023FH3 OCNL L--/715// 16//
0116724240138071972012213004+37900-085967SAO  +0230FTK  V0202001N005710033019N0032001N9+01221+01171999999ADDGA1101+000159999GA2021+002109999GA3081+003309999GF108991999999999999999999MA1100781999999MW1051MW2451REMAWY003FH3
0104724240138071972012214004+37900-085967SAO  +0230FTK  V0201901N00411003301MN0048001N9+01221+01171999999ADDGA1021+002109999GA2081+003309999GF108991999999999999999999MA1100781999999MW1051MW2611REMAWY007SCTVBKN
0113724240138071972012215004+37900-085967SAO  +0230FTK  V0202001N00621003301MN0064001N9+01221+01171100751ADDGA1021+002109999GA2081+003309999GF108991999999999999999999MA1100751999999MD1810071+9999MW1051REMAWY008807 17//
0082724240138071972012216004+37900-085967SAO  +0230FTK  V0202101N006710054019N0096001N9+01331+01281999999ADDGA1071+005409999GA2081+015009999GF108991999999999999999999MA1100711999999MW1051
0082724240138071972012217004+37900-085967SAO  +0230FTK  V0202101N006210060019N0128001N9+01501+01441999999ADDGA1071+006009999GA2081+015009999GF108991999999999999999999MA1100711999999MW1001
0126724240138071972012218004+37900-085967SAO  +0230FTK  V0202001N004110084019N0176001N9+01501+01391100671ADDAA106999929GA1071+008409999GA2081+021009999GF108991999999999999999999MA1100641999999MD1810081+9999MW1001REMAWY01080800 157/
0098724240138071972012219004+37900-085967SAO  +0230FTK  V0202001N005710096019N0176001N9+01561+01441999999ADDGA1071+009609999GA2081+021009999GF108991999999999999999999MA1100511999999MW1001REMAWY007BKNVSCT
0082724240138071972012220004+37900-085967SAO  +0230FTK  V0202101N007710114019N0176001N9+01611+01441999999ADDGA1071+011409999GA2081+021009999GF108991999999999999999999MA1100411999999MW1001
0113724240138071972012221004+37900-085967SAO  +0230FTK  V0201901N00511075001EN0176001N9+01721+01501100401ADDGA1021+011409999GA2071+075009999GF107991999999999999999999MA1100411999999MD1610251+9999MW1001REMAWY008625 1508
0124724240138071972012222004+37900-085967SAO  +0230FTK  V0202001N00461012001EN0176001N9+01671+01501999999ADDGA1021+007509999GA2071+012009999GA3081+018009999GF108991999999999999999999MA1100511999999MW1001REMAWY017OCNL BINOVC ALQDS
0098724240138071972012223004+37900-085967SAO  +0230FTK  V0202001N00361018001EN0144001N9+01611+01501999999ADDGA1021+007509999GA2071+018009999GA3081+075009999GF108991999999999999999999MA1100471999999MW1001
0129724240138071972012300004+37900-085967SAO  +0230FTK  V0202501N00261018001EN0128001N9+01391+01221100541ADDGA1021+007509999GA2071+018009999GA3071+075009999GF107991999999999999999999MA1100541999999MD1310151+9999MW1001REMAWY008315 1808
0100724240138071972012301004+37900-085967SAO  +0230FTK  V0202801N00361018001EN0128001N9+01221+01111999999ADDGA1021+007509999GA2071+018009999GF107991999999999999999999MA1100711999999MW1001REMAWY009OCNL RW--
0082724240138071972012302004+37900-085967SAO  +0230FTK  V0202901N003112200019N0112001N9+01171+00941999999ADDGA1021+008409999GA2021+018009999GF102991999999999999999999MA1100781999999MW1001
0113724240138071972012303004+37900-085967SAO  +0230FTK  V0202701N002612200019N0112001N9+00941+00831100811ADDGA1021+008409999GA2021+018009999GF102991999999999999999999MA1100811999999MD1110251+9999MW1001REMAWY008125 1800
0066724240138071972012304004+37900-085967SAO  +0230FTK  V0202901N001012200019N0112001N9+00891+00721999999ADDGA1021+008409999GF102991999999999999999999MA1100881999999MW1001
0066724240138071972012311004+37900-085967SAO  +0230FTK  V0209991C000010033019N0112001N9+00611+00441999999ADDGA1081+003309999GF108991999999999999999999MA1101021999999MW1001
0097724240138071972012312004+37900-085967SAO  +0230FTK  V0200801N002110036019N0096001N9+00611+00441100971ADDGA1081+003609999GF108991999999999999999999MA1100981999999MD1810051+9999MW1051REMAWY008805 16//
0116724240138071972012313004+37900-085967SAO  +0230FTK  V0200901N00211003001MN0016001N9+00671+00441999999ADDGA1101+000159999GA2071+003009999GA3081+004509999GF108991999999999999999999MA1100951999999MW1051MW2451REMAWY003FH4
0066724240138071972012314004+37900-085967SAO  +0230FTK  V0200801N002610009019N0006001N9+00671+00561999999ADDGA1091+000909999GF109991999999999999999999MA1100881999999MW1451
0161724240138071972012315004+37900-085967SAO  +0230FTK  V0209991C000010030019N0020001N9+00781+00671100881ADDGA1101+000159999GA2021+002109999GA3071+003009999GA4081+012009999GF108991999999999999999999MA1100881999999MD1610101+9999MW1451REMAWY024F4 VSBY S1 3/8 /610 15//
0098724240138071972012316004+37900-085967SAO  +0230FTK  V0200701N00151004501MN0048001N9+00831+00721999999ADDGA1021+002109999GA2071+004509999GA3071+009609999GF107991999999999999999999MA1100911999999MW1451
0098724240138071972012317004+37900-085967SAO  +0230FTK  V0201101N00151004501MN0048001N9+01111+00941999999ADDGA1021+002109999GA2071+004509999GA3081+009609999GF108991999999999999999999MA1100811999999MW1451
0123724240138071972012318004+37900-085967SAO  +0230FTK  V0202001N004110042019N0112001N9+01391+01061100711ADDGA1071+004209999GA2081+012009999GF108991999999999999999999MA1100681999999MD1810171+9999MW1001REMAWY018CIG 12V16/817 15//
0082724240138071972012319004+37900-085967SAO  +0230FTK  V0202101N004110045019N0112001N9+01501+01001999999ADDGA1071+004509999GA2081+012009999GF108991999999999999999999MA1100581999999MW1001
0082724240138071972012320004+37900-085967SAO  +0230FTK  V0202101N004110048019N0112001N9+01561+01221999999ADDGA1071+004809999GA2081+012009999GF108991999999999999999999MA1100541999999MW1611
0126724240138071972012321004+37900-085967SAO  +0230FTK  V0202401N006210045019N0112001N9+01611+01331100561ADDGA1071+004509999GA2081+012009999GF108991999999999999999999MA1100541999999MD1610141+9999MW1001REMAWY021HIR CLDS VSB/614 157/
0114724240138071972012322004+37900-085967SAO  +0230FTK  V0202501N00621012001EN0112001N9+01611+01281999999ADDGA1021+006009999GA2071+012009999GA3081+075009999GF108991999999999999999999MA1100611999999MW1001REMAWY007SCTVBKN
0082724240138071972012323004+37900-085967SAO  +0230FTK  V0202601N004110120019N0112001N9+01561+01221999999ADDGA1071+012009999GA2081+060009999GF108991999999999999999999MA1100681999999MW1001
0126724240138071972012400004+37900-085967SAO  +0230FTK  V0202701N003110120019N0144001N9+01441+01171100841ADDAA106999929GA1071+012009999GA2081+060009999GF108991999999999999999999MA1100811999999MD1310271+9999MW1001REMAWY01032700 1507
0082724240138071972012401004+37900-085967SAO  +0230FTK  V0203001N003110096019N0144001N9+01441+01111999999ADDGA1071+009609999GA2081+060009999GF108991999999999999999999MA1100881999999MW1001
0082724240138071972012402004+37900-085967SAO  +0230FTK  V0203101N00211005401MN0192001N9+01221+00941999999ADDGA1021+002409999GA2081+005409999GF108991999999999999999999MA1100981999999MW1001
0129724240138071972012403004+37900-085967SAO  +0230FTK  V0209991C00001012001EN0192001N9+01061+00831101051ADDGA1021+003909999GA2071+012009999GA3071+060009999GF107991999999999999999999MA1101051999999MD1210201+9999MW1001REMAWY008220 1508
0118724240138071972012404004+37900-085967SAO  +0230FTK  V0209991C000010039019N0144001N9+01061+00831999999ADDGA1071+003909999GA2071+012009999GA3081+060009999GF108991999999999999999999MA1101051999999MW1001REMAWY011BINOVC OVHD
0066724240138071972012411004+37900-085967SAO  +0230FTK  V0200901N004110039019N0080001N9+00941+00831999999ADDGA1081+003909999GF108991999999999999999999MA1101021999999MW1111
0111724240138071972012412004+37900-085967SAO  +0230FTK  V0201001N005110024019N0064001N9+00941+00891101021ADDGA1081+002409999GF108991999999999999999999MA1101021999999MD1610071+9999MW1041MW2111MW3511REMAWY010607// 16//
0072724240138071972012413004+37900-085967SAO  +0230FTK  V0201001N004610033019N0064001N9+01001+00891999999ADDGA1081+003309999GF108991999999999999999999MA1100951999999MW1041MW2111
0072724240138071972012414004+37900-085967SAO  +0230FTK  V0201201N005710033019N0064001N9+01061+00941999999ADDGA1081+003309999GF108991999999999999999999MA1100851999999MW1051MW2111
0103724240138071972012415004+37900-085967SAO  +0230FTK  V0201201N002610021019N0064001N9+01281+01111100811ADDGA1081+002109999GF108991999999999999999999MA1100781999999MD1610201+9999MW1051MW2111REMAWY008620 16//
0111724240138071972012416004+37900-085967SAO  +0230FTK  V0201801N005112200019N0096001N9+01561+01441999999ADDGA1081+012009999GA2071+220009999GF108991999999999999999999MA1100751999999MW1051MW2111REMAWY014OVC32 CIG 8V10
0082724240138071972012417004+37900-085967SAO  +0230FTK  V0201901N00721007501MN0144001N9+01721+01441999999ADDGA1021+003009999GA2081+007509999GF108991999999999999999999MA1100611999999MW1001
0158724240138071972012418004+37900-085967SAO  +0230FTK  V0201901N00721012001EN0176001N9+01831+01391100451ADDAA106999929GA1021+007509999GA2071+012009999GA3071+024009999GA4081+075009999GF108991999999999999999999MA1100471999999MD1810361+9999MW1001REMAWY01083600 1878
0106724240138071972012419004+37900-085967SAO  +0230FTK  V0202001N00821012001EN0176001N9+01891+01221999999ADDGA1021+007509999GA2071+012009999GA3071+075009999GF107991999999999999999999MA1100371999999MW1001OC101591
0090724240138071972012420004+37900-085967SAO  +0230FTK  V0201901N00721075001EN0176001N9+99999+99999999999ADDGA1021+012009999GA2071+075009999GF107991999999999999999999MA1100341999999MW1001OC101651
0105724240138071972012421004+37900-085967SAO  +0230FTK  V0201801N007210750019N0176001N9+02061+01111100181ADDGA1071+075009999GF107991999999999999999999MA1100201999999MD1810251+9999MW1001OC101291REMAWY008825 1008
0074724240138071972012422004+37900-085967SAO  +0230FTK  V0201901N006710750019N0176001N9+02111+01111999999ADDGA1071+075009999GF107991999999999999999999MA1100201999999MW1001OC101081
0082724240138071972012423004+37900-085967SAO  +0230FTK  V0202101N006710120019N0176001N9+02061+01171999999ADDGA1071+012009999GA2071+075009999GF107991999999999999999999MA1100341999999MW1001
0113724240138071972012500004+37900-085967SAO  +0230FTK  V0202101N005110120019N0224001N9+02001+01171100391ADDGA1071+012009999GA2071+075009999GF107991999999999999999999MA1100411999999MD1310201+9999MW1001REMAWY008320 1508
0082724240138071972012501004+37900-085967SAO  +0230FTK  V0202401N006210120019N0224001N9+02111+01111999999ADDGA1071+012009999GA2081+060009999GF108991999999999999999999MA1100411999999MW1611
0090724240138071972012502004+37900-085967SAO  +0230FTK  V0202801N006710120019N0224001N9+01391+00561999999ADDGA1071+012009999GA2081+060009999GF108991999999999999999999MA1100751999999MW1001OC101081
0147724240138071972012503004+37900-085967SAO  +0230FTK  V0202801N007210135019N0224001N9+01111+00281101052ADDGA1071+013509999GA2081+060009999GF108991999999999999999999MA1101051999999MD1310631+9999MW1001OC101341REMAWY015PRESRR/363 1508EQDQ01+101053APOSLP
0108724240138071972012504004+37900-085967SAO  +0230FTK  V0203001N006210150019N0224001N9+00721+00001999999ADDGA1071+015009999GA2081+060009999GF108991999999999999999999MA1101191999999MW1001OC101031REMAWY009BINOVC SE
0050724240138071972012511004+37900-085967SAO  +0230FTK  V0203001N005112200019N0320001N9-00501-01171999999ADDGF100991999999999999999999MA1102881999999MW1001
0090724240138071972012512004+37900-085967SAO  +0230FTK  V0203001N005112200019N0320001N9-00611-01441103081ADDGF100991999999999999999999MA1103011999999MD1210491+9999MW1001OC100931REMAWY009249 20010
0086724240138071972012513004+37900-085967SAO  +0230FTK  V0203001N004112200019N0224001N9-00671-01391999999ADDGA1021+060009999GF102991999999999999999999MA1103181999999MW1001REMAWY011WND 270V350
0070724240138071972012514004+37900-085967SAO  +0230FTK  V0203201N005712200019N0224001N9-00671-01561999999ADDGF100991999999999999999999MA1103351999999MW1001REMAWY011WND 270V010
0088724240138071972012515004+37900-085967SAO  +0230FTK  V0203401N003612200019N0224001N9-00611-01561103481ADDGF100991999999999999999999MA1103421999999MD1210371+9999MW1001REMAWY015WND 280V030/237
0070724240138071972012516004+37900-085967SAO  +0230FTK  V0203001N005112200019N0224001N9-00561-01441999999ADDGF100991999999999999999999MA1103591999999MW1001REMAWY011WND 280V320
0070724240138071972012517004+37900-085967SAO  +0230FTK  V0203101N004112200019N0224001N9-00501-01831999999ADDGF100991999999999999999999MA1103691999999MW1001REMAWY011WND 260V010
0096724240138071972012518004+37900-085967SAO  +0230FTK  V0202901N003612200019N0224001N9-00391-01721103791ADDGF100991999999999999999999MA1103731999999MD1110291+9999MW1001OC100621REMAWY015WND 250V320/129
0050724240138071972012519004+37900-085967SAO  +0230FTK  V0202701N001512200019N0320001N9-00331-01561999999ADDGF100991999999999999999999MA1103661999999MW1001
0050724240138071972012520004+37900-085967SAO  +0230FTK  V0209991C000012200019N0320001N9-00221-01671999999ADDGF100991999999999999999999MA1103521999999MW1001
0076724240138071972012521004+37900-085967SAO  +0230FTK  V0202301N003112200019N0320001N9-00221-01671103721ADDGF100991999999999999999999MA1103621999999MD1510081+9999MW1001REMAWY003508
0050724240138071972012522004+37900-085967SAO  +0230FTK  V0209991C000012200019N0320001N9-00171-01671999999ADDGF100991999999999999999999MA1103561999999MW1001
0071724240138071972012523004+37900-085967SAO  +0230FTK  V0203001N000512200019N0320001N9-00221-01611999999ADDGF100991999999999999999999MA1103591999999MW1001REMAWY012CI SW AND NW
0081724240138071972012600004+37900-085967SAO  +0230FTK  V0209991C000012200019N0224001N9-00281-01721103741ADDGF100991999999999999999999MA1103621999999MD1510001+9999MW1001REMAWY008500 1001
0050724240138071972012601004+37900-085967SAO  +0230FTK  V0203201N001012200019N0224001N9-00331-01671999999ADDGF100991999999999999999999MA1103661999999MW1001
0050724240138071972012602004+37900-085967SAO  +0230FTK  V0203101N001512200019N0224001N9-00391-01671999999ADDGF100991999999999999999999MA1103691999999MW1001
0076724240138071972012603004+37900-085967SAO  +0230FTK  V0203401N001012200019N0224001N9-00501-01441103831ADDGF100991999999999999999999MA1103731999999MD1210081+9999MW1001REMAWY003208
0050724240138071972012604004+37900-085967SAO  +0230FTK  V0203601N000512200019N0224001N9-00561-01561999999ADDGF100991999999999999999999MA1103661999999MW1001
0050724240138071972012611004+37900-085967SAO  +0230FTK  V0200601N002612200019N0224001N9-00671-01441999999ADDGF100991999999999999999999MA1103521999999MW1001
0097724240138071972012612004+37900-085967SAO  +0230FTK  V0200801N003112200019N0224001N9-00671-01391103621ADDGA1021+072009999GF102991999999999999999999MA1103521999999MD1510071+9999MW1001REMAWY008507 1002
0079724240138071972012613004+37900-085967SAO  +0230FTK  V0200501N003112200019N0192001N9-00721-01331999999ADDGA1021+072009999GF102991999999999999999999MA1103521999999MW1001REMAWY004AC S
0066724240138071972012614004+37900-085967SAO  +0230FTK  V0200601N003112200019N0176001N9-00671-01331999999ADDGA1021+072009999GF102991999999999999999999MA1103451999999MW1001
0097724240138071972012615004+37900-085967SAO  +0230FTK  V0200801N003612200019N0176001N9-00391-01281103551ADDGA1071+072009999GF107991999999999999999999MA1103421999999MD1810071+9999MW1001REMAWY008807 1002
0066724240138071972012616004+37900-085967SAO  +0230FTK  V0201001N003612200019N0176001N9-00221-01281999999ADDGA1071+072009999GF107991999999999999999999MA1103421999999MW1001
0066724240138071972012617004+37900-085967SAO  +0230FTK  V0200801N001512200019N0176001N9+00001-01171999999ADDGA1071+072009999GF107991999999999999999999MA1103351999999MW1001
0128724240138071972012618004+37900-085967SAO  +0230FTK  V0200601N002112200019N0176001N9+00221-01111103311ADDGA1021+036009999GA2071+072009999GD19999+9999993GF107991999999999999999999MA1103221999999MD1810241+9999MW1001REMAWY008824 1071
0097724240138071972012619004+37900-085967SAO  +0230FTK  V0200801N001012200019N0176001N9+00391-01171999999ADDGA1021+036009999GA2081+072009999GD19999+9999993GF108991999999999999999999MA1103051999999MW1001
0097724240138071972012620004+37900-085967SAO  +0230FTK  V0201201N001012200019N0176001N9+00501-01061999999ADDGA1021+036009999GA2081+072009999GD19999+9999993GF108991999999999999999999MA1102951999999MW1001
0128724240138071972012621004+37900-085967SAO  +0230FTK  V0200101N002612200019N0176001N9+00501-00941103041ADDGA1021+036009999GA2081+072009999GD19999+9999993GF108991999999999999999999MA1102911999999MD1610251+9999MW1001REMAWY008625 1077
0097724240138071972012622004+37900-085967SAO  +0230FTK  V0200301N001512200019N0176001N9+00501-01001999999ADDGA1021+036009999GA2081+072009999GD19999+9999993GF108991999999999999999999MA1102911999999MW1001
0066724240138071972012623004+37900-085967SAO  +0230FTK  V0200301N002612200019N0176001N9+00281-00891999999ADDGA1081+075009999GF108991999999999999999999MA1102911999999MW1001
0097724240138071972012700004+37900-085967SAO  +0230FTK  V0200201N002112200019N0112001N9+00061-00941103001ADDGA1071+075009999GF107991999999999999999999MA1102911999999MD1710031+9999MW1001REMAWY008703 1008
0066724240138071972012701004+37900-085967SAO  +0230FTK  V0200101N004612200019N0112001N9+00061-01001999999ADDGA1021+075009999GF102991999999999999999999MA1102951999999MW1001
0066724240138071972012702004+37900-085967SAO  +0230FTK  V0200201N004112200019N0112001N9-00111-01061999999ADDGA1021+075009999GF102991999999999999999999MA1102981999999MW1001
0097724240138071972012703004+37900-085967SAO  +0230FTK  V0200301N004112200019N0112001N9-00171-01061103061ADDGA1021+075009999GF102991999999999999999999MA1102981999999MD1110071+9999MW1001REMAWY008107 1008
0050724240138071972012704004+37900-085967SAO  +0230FTK  V0200501N003612200019N0112001N9-00221-01111999999ADDGF100991999999999999999999MA1102981999999MW1001
0066724240138071972012711004+37900-085967SAO  +0230FTK  V0200601N003610135019N0112001N9-00281-00941999999ADDGA1081+013509999GF108991999999999999999999MA1102951999999MW1791
0112724240138071972012712004+37900-085967SAO  +0230FTK  V0200701N002610135019N0112001N9-00331-00941103041ADDGA1081+013509999GF108991999999999999999999MA1102951999999MD1610031+9999MW1661REMAWY023603// 15// IR// BA POOR
0103724240138071972012713004+37900-085967SAO  +0230FTK  V0200601N002610150019N0112001N9-00331-00891999999ADDGA1071+015009999GA2081+021009999GF108991999999999999999999MA1102981999999MW1661REMAWY012IR// BA POOR
0141724240138071972012714004+37900-085967SAO  +0230FTK  V0200501N003110135019N0064001N9-00391-00781999999ADDGA1071+013509999GA2081+021009999GF108991999999999999999999MA1102951999999MW1051MW2661MW3791REMAWY038STFRA SE IPW- OCNLY IPW-- IR// BA POOR
0154724240138071972012715004+37900-085967SAO  +0230FTK  V0200501N003119999999N0064001N9-00331-00611102941ADDGA1021+004509999GA2071+013509999GA3081+021009999GF108991999999999999999999MA1102841999999MD1810101+9999MW1051MW2661MW3791REMAWY021810 152/ IR// BA POOR
0126724240138071972012716004+37900-085967SAO  +0230FTK  V0200701N00361012001EN0032001N9-00331-00561999999ADDGA1021+003009999GA2081+012009999GF108991999999999999999999MA1102781999999MW1051MW2791REMAWY029VSBY 1 1/2V2 1/2 IR// BA POOR
0142724240138071972012717004+37900-085967SAO  +0230FTK  V0200501N00261036001MN0040001N9-00281-00561999999ADDGA1021+002109999GA2081+011409999GA3071+036009999GF108991999999999999999999MA1102741999999MW1051MW2791REMAWY029CIG 11V13 IR// BA POOR SANDED
0197724240138071972012718004+37900-085967SAO  +0230FTK  V0200801N004110120019N0048001N9-00221-00501102571ADDAA106004091GA1021+001809999GA2021+004509999GA3071+012009999GA4081+021009999GF108991999999999999999999MA1102471999999MD1810361+9999MW1051MW2661MW3791REMAWY037PRESFR/83614 157/ IR// BA POOR SANDED
0138724240138071972012719004+37900-085967SAO  +0230FTK  V0200601N002110120019N0048001N9-00221-00501999999ADDGA1021+002109999GA2021+004509999GA3081+012009999GF108991999999999999999999MA1102301999999MW1051MW2661MW3791REMAWY019IR// BA POOR SANDED
0174724240138071972012720004+37900-085967SAO  +0230FTK  V0200801N00211002101MN0024001N9-00221-00391999999ADDGA1021+001209999GA2071+002109999GA3081+004509999GF108991999999999999999999MA1102241999999MW1051MW2451MW3661MW4791REMAWY049VSBY W2 LOWEST PRES E202 1941 IR// BA POOR SANDED
0145724240138071972012721004+37900-085967SAO  +0230FTK  V0200901N00311002101MN0032001N9-00111-00281102011ADDGA1021+001209999GA2081+002109999GF108991999999999999999999MA1101901999999MD1810541+9999MW1051MW2451MW3661REMAWY028854 16// IR// BA POOR SANDED
0106724240138071972012722004+37900-085967SAO  +0230FTK  V0200801N002610015019N0032001N9-00111-00281999999ADDGA1081+001509999GF108991999999999999999999MA1101931999999MW1051MW2451MW3661REMAWY019IR// BA POOR SANDED
0124724240138071972012723004+37900-085967SAO  +0230FTK  V0200501N00261001201MN0036001N9-00061-00221999999ADDGA1021+000609999GA2081+001209999GF108991999999999999999999MA1101861999999MW1451MW2661REMAWY027CIG RGD IR// BA POOR SANDED
0136724240138071972012800004+37900-085967SAO  +0230FTK  V0200801N002610009019N0032001N9-00061-00221101841ADDAA106010091GA1081+000909999GF108991999999999999999999MA1101761999999MD1710171+9999MW1451MW2661REMAWY03071738 16// IR// BA POOR SANDED
0107724240138071972012801004+37900-085967SAO  +0230FTK  V0203501N001010015019N0064001N9-00061-00221999999ADDGA1081+001509999GF108991999999999999999999MA1101931999999MW1111MW2661REMAWY026PRESRR IR// BA POOR SANDED
0100724240138071972012802004+37900-085967SAO  +0230FTK  V0200201N001510012019N0048001N9-00061-00221999999ADDGA1081+001209999GF108991999999999999999999MA1101831999999MW1111MW2661REMAWY019IR// BA POOR SANDED
0139724240138071972012803004+37900-085967SAO  +0230FTK  V0200401N00261001201MN0028001N9-00061-00221101851ADDGA1021+000609999GA2081+001209999GF108991999999999999999999MA1101761999999MD1010001+9999MW1451MW2661REMAWY028000 16// IR// BA POOR SANDED
0116724240138071972012804004+37900-085967SAO  +0230FTK  V0200301N000510009019N0040001N9-00061-00221999999ADDGA1071+000909999GA2081+003309999GF108991999999999999999999MA1101661999999MW1451MW2661REMAWY019IR// BA POOR SANDED
0082724240138071972012811004+37900-085967SAO  +0230FTK  V0203301N003610054019N0144001N9-00061-00221999999ADDGA1081+005409999GF108991999999999999999999MA1101961999999MW1001REMAWY007CIG RGD
0113724240138071972012812004+37900-085967SAO  +0230FTK  V0203201N003110039019N0192001N9-00111-00221102171ADDGA1081+003909999GF108991999999999999999999MA1102101999999MD1210271+9999MW1001REMAWY024CIG RGD/227// 16// 20073
0098724240138071972012813004+37900-085967SAO  +0230FTK  V0203201N002110036019N0112001N9-00171-00391999999ADDGA1081+003609999GF108991999999999999999999MA1102201999999MW1001REMAWY023CIG RGD IRSLR// BA POOR
0090724240138071972012814004+37900-085967SAO  +0230FTK  V0203301N002110036019N0112001N9-00221-00441999999ADDGA1081+003609999GF108991999999999999999999MA1102241999999MW1001REMAWY015IRSLR// BA POOR
0127724240138071972012815004+37900-085967SAO  +0230FTK  V0203301N003610033019N0096001N9-00281-00561102471ADDGA1081+003309999GF108991999999999999999999MA1102371999999MD1210291+9999MW1051MW2711REMAWY032CIG RGD/229 16// IRSLR// BA POOR
0098724240138071972012816004+37900-085967SAO  +0230FTK  V0203301N002110024019N0096001N9-00331-00611999999ADDGA1081+002409999GF108991999999999999999999MA1102471999999MW1051REMAWY023CIG RGD IRSLR// BA POOR
0135724240138071972012817004+37900-085967SAO  +0230FTK  V0203201N00261045001MN0080001N9-00331-00671999999ADDGA1021+002409999GA2081+045009999GF108991999999999999999999MA1102471999999MW1051MW2711REMAWY038CIG 12V16 HIR CLDS VSB IRSLR// BA POOR
0174724240138071972012818004+37900-085967SAO  +0230FTK  V0209991C00001045001MN0080001N9-00391-00721102501ADDAA106999929GA1021+002409999GA2081+007509999GA3071+045009999GF108991999999999999999999MA1102441999999MD1010031+9999MW1051MW2711REMAWY036CIG 12V16/00300 15// IRSLR// BA POOR
0128724240138071972012819004+37900-085967SAO  +0230FTK  V0203101N00151004201MN0080001N9-00331-00721999999ADDGA1021+002409999GA2071+004209999GA3081+007509999GF108991999999999999999999MA1102341999999MW1051MW2711REMAWY015IRSLR// BA POOR
0128724240138071972012820004+37900-085967SAO  +0230FTK  V0203101N00151003601MN0080001N9-00331-00671999999ADDGA1021+002409999GA2071+003609999GA3081+007509999GF108991999999999999999999MA1102301999999MW1051MW2711REMAWY015IRSLR// BA POOR
