006172433813802197201010000D+38550-089850SAO  +0138BLV  V0201601N002112200019N0112001N9+00521-00371102241ADDAA101000095GF100991999999999999999999MA1999999100511MW1001
006172433813802197201010100D+38550-089850SAO  +0138BLV  V0201601N002612200019N0112001N9+00411-00371102181ADDAA101000095GF100991999999999999999999MA1999999100471MW1001
006172433813802197201010200D+38550-089850SAO  +0138BLV  V0201801N004612200019N0112001N9+00351-00311102231ADDAA101000095GF100991999999999999999999MA1999999100511MW1001
006172433813802197201010300D+38550-089850SAO  +0138BLV  V0201701N003612200019N0112001N9+00301-00311102221ADDAA101000095GF100991999999999999999999MA1999999100511MW1001
006172433813802197201010400D+38550-089850SAO  +0138BLV  V0201701N004112200019N0112001N9+00241-00261102231ADDAA101000095GF100991999999999999999999MA1999999100511MW1001
006172433813802197201010500D+38550-089850SAO  +0138BLV  V0201801N003612200019N0112001N9+00241-00261102191ADDAA101000095GF100991999999999999999999MA1999999100471MW1001
006172433813802197201010600D+38550-089850SAO  +0138BLV  V0201601N002612200019N0112001N9+00191-00261102171ADDAA101000095GF100991999999999999999999MA1999999100371MW1001
006172433813802197201010700D+38550-089850SAO  +0138BLV  V0201501N002612200019N0112001N9+00131-00311102141ADDAA101000095GF100991999999999999999999MA1999999100411MW1001
006172433813802197201010800D+38550-089850SAO  +0138BLV  V0209991C000012200019N0112001N9-00041-00421102181ADDAA101000095GF100991999999999999999999MA1999999100441MW1001
006172433813802197201010900D+38550-089850SAO  +0138BLV  V0201401N002612200019N0112001N9-00041-00421102111ADDAA101000095GF100991999999999999999999MA1999999100371MW1001
006172433813802197201011000D+38550-089850SAO  +0138BLV  V0201601N003112200019N0112001N9+00081-00371102071ADDAA101000095GF100991999999999999999999MA1999999100341MW1001
006172433813802197201011100D+38550-089850SAO  +0138BLV  V0209991C000012200019N0112001N9+00081-00311102001ADDAA101000095GF107991999999999999999999MA1999999100271MW1001
006172433813802197201011200D+38550-089850SAO  +0138BLV  V0209991C000012200019N0112001N9+00021-00371101981ADDAA101000095GF107991999999999999999999MA1999999100271MW1001
006172433813802197201011300D+38550-089850SAO  +0138BLV  V0201401N001512200019N0080001N9+00131-00311102001ADDAA101000095GF107991999999999999999999MA1999999100271MW1111
006172433813802197201011400D+38550-089850SAO  +0138BLV  V0201201N000512200019N0112001N9+00131-00311101971ADDAA101000095GF107991999999999999999999MA1999999100241MW1001
006172433813802197201011500D+38550-089850SAO  +0138BLV  V0201501N002112200019N0080001N9+00241-00201101971ADDAA101000095GF108991999999999999999999MA1999999100241MW1111
006172433813802197201011600D+38550-089850SAO  +0138BLV  V0201701N003612200019N0112001N9+00351-00151101951ADDAA101000095GF108991999999999999999999MA1999999100241MW1001
006172433813802197201011700D+38550-089850SAO  +0138BLV  V0201701N003110420019N0112001N9+00521-00041101871ADDAA101000095GF108991999999999999999999MA1999999100171MW1001
006172433813802197201011800D+38550-089850SAO  +0138BLV  V0201601N004110210019N0112001N9+00521-00091101761ADDAA101000095GF108991999999999999999999MA1999999100031MW1001
006172433813802197201011900D+38550-089850SAO  +0138BLV  V0201701N003110210019N0112001N9+00631-00041101521ADDAA101000095GF108991999999999999999999MA1999999099831MW1001
006772433813802197201012000D+38550-089850SAO  +0138BLV  V0201701N003110210019N0096001N9+00631-00041101451ADDAA101000095GF108991999999999999999999MA1999999099761MW1051MW2611
006772433813802197201012100D+38550-089850SAO  +0138BLV  V0201601N002110150019N0096001N9+00631+00081101431ADDAA101000095GF108991999999999999999999MA1999999099731MW1051MW2801
006172433813802197201012200D+38550-089850SAO  +0138BLV  V0201501N004110150019N0096001N9+00581+00081101321ADDAA101000095GF108991999999999999999999MA1999999099631MW1051
006172433813802197201012300D+38550-089850SAO  +0138BLV  V0201201N002110150019N0096001N9+00581+00081101251ADDAA101000095GF108991999999999999999999MA1999999099561MW1051
006172433813802197201020000D+38550-089850SAO  +0138BLV  V0203601N002110150019N0112001N9+00521+00131101281ADDAA101000095GF108991999999999999999999MA1999999099561MW1001
006172433813802197201020100D+38550-089850SAO  +0138BLV  V0209991C000010150019N0112001N9+00521+00081101221ADDAA101000095GF108991999999999999999999MA1999999099531MW1001
006172433813802197201020200D+38550-089850SAO  +0138BLV  V0201201N001510150019N0112001N9+00521+00081101051ADDAA101000095GF108991999999999999999999MA1999999099361MW1001
006172433813802197201020300D+38550-089850SAO  +0138BLV  V0209991C000010150019N0112001N9+00521+00081101041ADDAA101000095GF108991999999999999999999MA1999999099321MW1001
006172433813802197201020400D+38550-089850SAO  +0138BLV  V0209991C000010150019N0112001N9+00461+00081101011ADDAA101000095GF108991999999999999999999MA1999999099321MW1001
006172433813802197201020500D+38550-089850SAO  +0138BLV  V0203001N002610150019N0112001N9+00521+00081100981ADDAA101000095GF108991999999999999999999MA1999999099291MW1001
006172433813802197201020600D+38550-089850SAO  +0138BLV  V0203201N005110150019N0112001N9+00521+00081100941ADDAA101000095GF108991999999999999999999MA1999999099261MW1001
005572433813802197201020700D+38550-089850SAO  +0138BLV  V0203201N008210027019N0112651N9+00401+00001999999ADDAA101000095GF108991999999999999999999MA1100981999999
006172433813802197201020800D+38550-089850SAO  +0138BLV  V0203101N005710027019N0112001N9+00411-00041101051ADDAA101000095GF108991999999999999999999MA1999999099361MW1001
006172433813802197201020900D+38550-089850SAO  +0138BLV  V0203101N001010300019N0112001N9+00241-00151101061ADDAA101000095GF108991999999999999999999MA1999999099361MW1001
006172433813802197201021000D+38550-089850SAO  +0138BLV  V0203101N006212200019N0112001N9+00241-00201101131ADDAA101000095GF102991999999999999999999MA1999999099421MW1001
006172433813802197201021100D+38550-089850SAO  +0138BLV  V0203001N003112200019N0112001N9+00191-00261101201ADDAA101000095GF102991999999999999999999MA1999999099491MW1001
006172433813802197201021200D+38550-089850SAO  +0138BLV  V0203001N003112200019N0112001N9+00131-00311101271ADDAA101000095GF100991999999999999999999MA1999999099561MW1001
006172433813802197201021300D+38550-089850SAO  +0138BLV  V0203201N002112200019N0112001N9+00081-00371101311ADDAA101000095GF100991999999999999999999MA1999999099591MW1001
006172433813802197201021400D+38550-089850SAO  +0138BLV  V0202501N002612200019N0112001N9+00081-00421101381ADDAA101000095GF100991999999999999999999MA1999999099661MW1001
005572433813802197201021500D+38550-089850SAO  +0138BLV  V0202501N004112200019N0112651N9+00101-00401101411ADDAA101000095GF102991999999999999999999MA1101391099691
006172433813802197201021600D+38550-089850SAO  +0138BLV  V0202501N005112200019N0112001N9+00241-00311101471ADDAA101000095GF102991999999999999999999MA1999999099761MW1001
006172433813802197201021700D+38550-089850SAO  +0138BLV  V0202301N003612200019N0112001N9+00351-00311101431ADDAA101000095GF100991999999999999999999MA1999999099731MW1001
006172433813802197201021800D+38550-089850SAO  +0138BLV  V0202201N004112200019N0112001N9+00461-00311101401ADDAA101000095GF100991999999999999999999MA1999999099701MW1001
006172433813802197201021900D+38550-089850SAO  +0138BLV  V0202201N004112200019N0112001N9+00631-00371101211ADDAA101000095GF100991999999999999999999MA1999999099531MW1001
006172433813802197201022000D+38550-089850SAO  +0138BLV  V0201901N005112200019N0112001N9+00801-00481101201ADDAA101000095GF100991999999999999999999MA1999999099531MW1001
006172433813802197201022100D+38550-089850SAO  +0138BLV  V0201701N005112200019N0112001N9+00801-00591101231ADDAA101000095GF100991999999999999999999MA1999999099531MW1001
006172433813802197201022200D+38550-089850SAO  +0138BLV  V0201701N005712200019N0112001N9+00801-00531101161ADDAA101000095GF100991999999999999999999MA1999999099491MW1001
004672433813802197201022300D+38550-089850SAO  +0138BLV  V0201601N004112200019N0112001N9+00691-00531999999ADDAA101000095GF100991999999999999999999MW1001
006172433813802197201030000D+38550-089850SAO  +0138BLV  V0201401N002612200019N0112001N9+00521-00531101231ADDAA101000095GF100991999999999999999999MA1999999099531MW1001
006172433813802197201030100D+38550-089850SAO  +0138BLV  V0201501N003612200019N0112001N9+00461-00531101251ADDAA101000095GF100991999999999999999999MA1999999099561MW1001
006172433813802197201030200D+38550-089850SAO  +0138BLV  V0201701N005112200019N0112001N9+00461-00421101291ADDAA101000095GF102991999999999999999999MA1999999099591MW1001
006172433813802197201030300D+38550-089850SAO  +0138BLV  V0201701N005112200019N0112001N9+00411-00371101321ADDAA101000095GF102991999999999999999999MA1999999099591MW1001
006172433813802197201030400D+38550-089850SAO  +0138BLV  V0201601N004112200019N0112001N9+00241-00371101301ADDAA101000095GF100991999999999999999999MA1999999099591MW1001
006172433813802197201030500D+38550-089850SAO  +0138BLV  V0201701N002612200019N0112001N9+00301-00311101301ADDAA101000095GF100991999999999999999999MA1999999099591MW1001
006172433813802197201030600D+38550-089850SAO  +0138BLV  V0201601N002612200019N0112001N9+00301-00311101341ADDAA101000095GF100991999999999999999999MA1999999099631MW1001
006172433813802197201030700D+38550-089850SAO  +0138BLV  V0201001N002112200019N0112001N9-00041-00531101391ADDAA101000095GF100991999999999999999999MA1999999099661MW1001
006172433813802197201030800D+38550-089850SAO  +0138BLV  V0201201N003112200019N0112001N9-00041-00421101431ADDAA101000095GF100991999999999999999999MA1999999099701MW1001
006172433813802197201030900D+38550-089850SAO  +0138BLV  V0200601N001012200019N0112001N9+00021-00421101401ADDAA101000095GF100991999999999999999999MA1999999099701MW1001
006172433813802197201031000D+38550-089850SAO  +0138BLV  V0201301N002612200019N0112001N9+00081-00311101381ADDAA101000095GF100991999999999999999999MA1999999099661MW1001
006172433813802197201031100D+38550-089850SAO  +0138BLV  V0200901N002612200019N0112001N9+00021-00371101351ADDAA101000095GF100991999999999999999999MA1999999099631MW1001
006172433813802197201031200D+38550-089850SAO  +0138BLV  V0201101N001512200019N0112001N9+00021-00421101501ADDAA101000095GF100991999999999999999999MA1999999099761MW1001
006172433813802197201031300D+38550-089850SAO  +0138BLV  V0209991C000010210019N0112001N9+00021-00481101561ADDAA101000095GF108991999999999999999999MA1999999099831MW1001
006172433813802197201031400D+38550-089850SAO  +0138BLV  V0200501N002610060019N0112001N9+00131-00261101621ADDAA101000095GF108991999999999999999999MA1999999099901MW1001
006172433813802197201031500D+38550-089850SAO  +0138BLV  V0200601N002110048019N0112001N9+00241-00201101731ADDAA101000095GF108991999999999999999999MA1999999100001MW1001
006172433813802197201031600D+38550-089850SAO  +0138BLV  V0200801N002110033019N0112001N9+00351-00091101681ADDAA101000095GF108991999999999999999999MA1999999099971MW1001
006172433813802197201031700D+38550-089850SAO  +0138BLV  V0200801N004110033019N0096001N9+00411-00041101631ADDAA101000095GF108991999999999999999999MA1999999099931MW1051
006172433813802197201031800D+38550-089850SAO  +0138BLV  V0201001N003610033019N0096001N9+00521+00021101511ADDAA101000095GF108991999999999999999999MA1999999099801MW1051
006172433813802197201031900D+38550-089850SAO  +0138BLV  V0201001N005110036019N0080471N9+00601+00001999999ADDAA101000095GF108991999999999999999999MA1101391999999MW1051
006172433813802197201032000D+38550-089850SAO  +0138BLV  V0201101N004110054019N0096001N9+00631+00081101281ADDAA101000095GF108991999999999999999999MA1999999099591MW1051
006172433813802197201032100D+38550-089850SAO  +0138BLV  V0200701N002110090019N0096001N9+00691+00131101401ADDAA101000095GF108991999999999999999999MA1999999099701MW1051
006172433813802197201032200D+38550-089850SAO  +0138BLV  V0200401N001510105019N0064001N9+00691+00131101381ADDAA101000095GF108991999999999999999999MA1999999099701MW1051
006172433813802197201032300D+38550-089850SAO  +0138BLV  V0200701N002610060019N0064001N9+00631+00131101321ADDAA101000095GF108991999999999999999999MA1999999099631MW1051
006172433813802197201040000D+38550-089850SAO  +0138BLV  V0200501N003110060019N0064001N9+00631+00131101351ADDAA101000095GF108991999999999999999999MA1999999099631MW1051
006172433813802197201040100D+38550-089850SAO  +0138BLV  V0200201N002110084019N0096001N9+00691+00131101381ADDAA101000095GF108991999999999999999999MA1999999099701MW1051
006772433813802197201040200D+38550-089850SAO  +0138BLV  V0203601N003110018019N0064001N9+00581+00131101491ADDAA101000095GF108991999999999999999999MA1999999099801MW1051MW2511
006772433813802197201040300D+38550-089850SAO  +0138BLV  V0203601N005110012019N0064001N9+00461+00081101511ADDAA101000095GF108991999999999999999999MA1999999099801MW1051MW2511
007572433813802197201040400D+38550-089850SAO  +0138BLV  V0203601N009310012019N0064001N9+00221-00171101541ADDAA101000095GF108991999999999999999999MA1101521099831MW1051MW2511OC101341
006772433813802197201040500D+38550-089850SAO  +0138BLV  V0203601N010310012019N0064001N9+00021-00421101631ADDAA101000095GF108991999999999999999999MA1999999099901MW1051MW2511
007372433813802197201040600D+38550-089850SAO  +0138BLV  V0203601N008210024019N0080001N9+00021-00421101591ADDAA101000095GF108991999999999999999999MA1999999099861MW1051MW2561MW3791
007372433813802197201040700D+38550-089850SAO  +0138BLV  V0203501N009310048019N0080001N9-00151-00591101671ADDAA101000095GF108991999999999999999999MA1999999099931MW1051MW2561MW3791
007372433813802197201040800D+38550-089850SAO  +0138BLV  V0203601N009810072019N0080001N9-00261-00701101781ADDAA101002595GF108991999999999999999999MA1999999100031MW1051MW2561MW3771
006172433813802197201040900D+38550-089850SAO  +0138BLV  V0203601N010310054019N0112001N9-00311-00871101781ADDAA101002595GF108991999999999999999999MA1999999100071MW1001
006172433813802197201041000D+38550-089850SAO  +0138BLV  V0203501N008710054019N0112001N9-00371-00921101831ADDAA101000095GF108991999999999999999999MA1999999100071MW1001
006772433813802197201041100D+38550-089850SAO  +0138BLV  V0203601N007710039019N0112001N9-00481-00921101861ADDAA101000095GF108991999999999999999999MA1999999100101MW1561MW2791
012472433813802197201041200D+38550-089850SAO  +0138BLV  V0203601N008710042019N0112001N9-00501-01001101881ADDAA101000095AA206002091GF108991999999999999999999MA1101861100171MD1210081+9999MW1561OC101181REMAWY02120809 17// 20008 IR06
006172433813802197201041300D+38550-089850SAO  +0138BLV  V0203501N008210048019N0112001N9-00591-01091102011ADDAA101000095GF108991999999999999999999MA1999999100241MW1001
006172433813802197201041400D+38550-089850SAO  +0138BLV  V0203501N008710054019N0112001N9-00651-01151102081ADDAA101000095GF108991999999999999999999MA1999999100301MW1771
011672433813802197201041500D+38550-089850SAO  +0138BLV  V0203401N006710042019N0020001N9-00721-01221102131ADDAA101000095GF108991999999999999999999MA1102101100411MD1110241+9999MW1851OC101131REMAWY024R31VR55/S2/124 15// IR02
006172433813802197201041600D+38550-089850SAO  +0138BLV  V0203401N009310042019N0048001N9-00701-01201102191ADDAA101000095GF108991999999999999999999MA1999999100411MW1851
006172433813802197201041700D+38550-089850SAO  +0138BLV  V0203401N009810036019N0032001N9-00761-01261102231ADDAA101000095GF108991999999999999999999MA1999999100441MW1851
009472433813802197201041800D+38550-089850SAO  +0138BLV  V0203501N009310024019N0012001N9-00831-01331102131ADDAA101000095AA206003091GF108991999999999999999999MA1102071100371MD1810021+9999MW1851OC101231
006172433813802197201041900D+38550-089850SAO  +0138BLV  V0203501N008210015019N0006001N9-00871-01371102031ADDAA101000095GF108991999999999999999999MA1999999100241MW1731
006172433813802197201042000D+38550-089850SAO  +0138BLV  V0203501N007710030019N0020001N9-00811-01371102091ADDAA101000095GF108991999999999999999999MA1999999100301MW1711
006172433813802197201042100D+38550-089850SAO  +0138BLV  V0203401N006210021019N0012001N9-00871-01311102071ADDAA101000095GF108991999999999999999999MA1999999100301MW1711
006172433813802197201042200D+38550-089850SAO  +0138BLV  V0203401N008710021019N0012001N9-00811-01371102091ADDAA101000095GF108991999999999999999999MA1999999100301MW1711
006172433813802197201042300D+38550-089850SAO  +0138BLV  V0203501N006710036019N0048001N9-00811-01371102161ADDAA101000095GF108991999999999999999999MA1999999100371MW1711
006172433813802197201050000D+38550-089850SAO  +0138BLV  V0203401N008210036019N0048001N9-00811-01371102191ADDAA101000095GF108991999999999999999999MA1999999100441MW1381
006172433813802197201050100D+38550-089850SAO  +0138BLV  V0203401N008210210019N0064001N9-00811-01371102331ADDAA101000095GF108991999999999999999999MA1999999100541MW1381
006172433813802197201050200D+38550-089850SAO  +0138BLV  V0203301N008710210019N0080001N9-00811-01421102371ADDAA101000095GF108991999999999999999999MA1999999100581MW1381
006172433813802197201050300D+38550-089850SAO  +0138BLV  V0203301N009310120019N0080001N9-00871-01481102381ADDAA101000095GF108991999999999999999999MA1999999100611MW1381
006172433813802197201050400D+38550-089850SAO  +0138BLV  V0203301N010810120019N0112001N9-00921-01591102441ADDAA101000095GF108991999999999999999999MA1999999100641MW1381
006172433813802197201050500D+38550-089850SAO  +0138BLV  V0203301N008710180019N0112001N9-01031-01761102561ADDAA101000095GF108991999999999999999999MA1999999100751MW1001
006172433813802197201050600D+38550-089850SAO  +0138BLV  V0203201N008710180019N0112001N9-01091-01811102581ADDAA101000095GF107991999999999999999999MA1999999100811MW1001
006172433813802197201050700D+38550-089850SAO  +0138BLV  V0203201N005110180019N0112001N9-01201-01871102681ADDAA101000095GF107991999999999999999999MA1999999100851MW1001
006172433813802197201050800D+38550-089850SAO  +0138BLV  V0203301N005112200019N0112001N9-01311-02031102791ADDAA101000095GF100991999999999999999999MA1999999100951MW1001
006172433813802197201050900D+38550-089850SAO  +0138BLV  V0203201N003612200019N0112001N9-01371-02311102771ADDAA101000095GF100991999999999999999999MA1999999100981MW1001
006172433813802197201051000D+38550-089850SAO  +0138BLV  V0203301N004612200019N0112001N9-01371-02261102861ADDAA101000095GF100991999999999999999999MA1999999101021MW1001
006172433813802197201051100D+38550-089850SAO  +0138BLV  V0203201N002612200019N0112001N9-01531-02311102831ADDAA101000095GF100991999999999999999999MA1999999100981MW1001
006172433813802197201051200D+38550-089850SAO  +0138BLV  V0203201N002112200019N0112001N9-01531-02311102771ADDAA101000095GF100991999999999999999999MA1999999100981MW1001
006172433813802197201051300D+38550-089850SAO  +0138BLV  V0203201N003112200019N0112001N9-01531-02311102981ADDAA101000095GF100991999999999999999999MA1999999101121MW1001
006172433813802197201051400D+38550-089850SAO  +0138BLV  V0209991C000012200019N0112001N9-01531-02201102981ADDAA101000095GF100991999999999999999999MA1999999101121MW1001
007572433813802197201051500D+38550-089850SAO  +0138BLV  V0201901N001012200019N0112001N9-01501-02171102881ADDAA101000095GF100991999999999999999999MA1102781101081MD1110101+9999MW1001
006172433813802197201051600D+38550-089850SAO  +0138BLV  V0209991C000012200019N0112001N9-01311-02091103031ADDAA101000095GF100991999999999999999999MA1999999101191MW1001
006172433813802197201051700D+38550-089850SAO  +0138BLV  V0202101N002612200019N0112001N9-01201-02031102951ADDAA101000095GF100991999999999999999999MA1999999101121MW1001
006172433813802197201051800D+38550-089850SAO  +0138BLV  V0202401N003112200019N0112001N9-01091-02031102891ADDAA101000095GF100991999999999999999999MA1999999101121MW1001
006172433813802197201051900D+38550-089850SAO  +0138BLV  V0202001N003612200019N0112001N9-00981-02031102721ADDAA101000095GF100991999999999999999999MA1999999100911MW1001
006172433813802197201052000D+38550-089850SAO  +0138BLV  V0202001N003612200019N0112001N9-00871-01981102651ADDAA101000095GF100991999999999999999999MA1999999100851MW1001
006172433813802197201052100D+38550-089850SAO  +0138BLV  V0201801N003112200019N0112001N9-00761-01871102561ADDAA101000095GF100991999999999999999999MA1999999100781MW1001
006172433813802197201052200D+38550-089850SAO  +0138BLV  V0202101N003112200019N0112001N9-00761-01761102541ADDAA101000095GF100991999999999999999999MA1999999100751MW1001
006172433813802197201052300D+38550-089850SAO  +0138BLV  V0201601N003112200019N0112001N9-00811-01761102481ADDAA101000095GF100991999999999999999999MA1999999100681MW1001
008672433813802197201060000D+38550-089850SAO  +0138BLV  V0201601N003012200019N0112651N9-00901-01801102431ADDAA101000095AA206000091GF100991999999999999999999MA1102271100631MD1610141+9999MW1001
006172433813802197201060100D+38550-089850SAO  +0138BLV  V0201601N003112200019N0112001N9-00871-01761102431ADDAA101000095GF100991999999999999999999MA1999999100641MW1001
006172433813802197201060200D+38550-089850SAO  +0138BLV  V0201701N003112200019N0112001N9-00921-01761102411ADDAA101000095GF100991999999999999999999MA1999999100611MW1001
006172433813802197201060300D+38550-089850SAO  +0138BLV  V0201901N002612200019N0112001N9-00981-01701102361ADDAA101000095GF100991999999999999999999MA1999999100581MW1001
006172433813802197201060400D+38550-089850SAO  +0138BLV  V0202001N002112200019N0112001N9-00981-01531102391ADDAA101000095GF100991999999999999999999MA1999999100581MW1001
006172433813802197201060500D+38550-089850SAO  +0138BLV  V0201901N002112200019N0112001N9-01001-01671102351ADDAA101000095GF100991999999999999999999MA1102241100541MW1001
006172433813802197201060600D+38550-089850SAO  +0138BLV  V0201901N002612200019N0112001N9-00921-01481102251ADDAA101000095GF107991999999999999999999MA1999999100471MW1001
006172433813802197201060700D+38550-089850SAO  +0138BLV  V0201801N004110360019N0112001N9-00811-01481102231ADDAA101000095GF108991999999999999999999MA1999999100441MW1001
006172433813802197201060800D+38550-089850SAO  +0138BLV  V0201801N002610300019N0112001N9-00871-01481102211ADDAA101000095GF107991999999999999999999MA1999999100411MW1001
007572433813802197201060900D+38550-089850SAO  +0138BLV  V0201801N004610360019N0112001N9-00831-01441102211ADDAA101000095GF108991999999999999999999MA1102131100441MD1510031+9999MW1001
006172433813802197201061000D+38550-089850SAO  +0138BLV  V0201801N003110300019N0112001N9-00871-01421102241ADDAA101000095GF107991999999999999999999MA1999999100441MW1001
006172433813802197201061100D+38550-089850SAO  +0138BLV  V0201801N000510300019N0112001N9-00811-01421102231ADDAA101000095GF108991999999999999999999MA1999999100441MW1001
006172433813802197201061200D+38550-089850SAO  +0138BLV  V0202001N002610300019N0112001N9-00761-01311102251ADDAA101000095GF108991999999999999999999MA1999999100511MW1001
006172433813802197201061300D+38550-089850SAO  +0138BLV  V0201701N002110300019N0112001N9-00701-01261102301ADDAA101000095GF108991999999999999999999MA1999999100511MW1001
006172433813802197201061400D+38550-089850SAO  +0138BLV  V0201901N002610300019N0112001N9-00701-01311102301ADDAA101000095GF107991999999999999999999MA1999999100511MW1001
006172433813802197201061500D+38550-089850SAO  +0138BLV  V0201801N003112200019N0112001N9-00591-01261102281ADDAA101000095GF100991999999999999999999MA1999999100511MW1001
006172433813802197201061600D+38550-089850SAO  +0138BLV  V0202001N004112200019N0112001N9-00371-01201102231ADDAA101000095GF100991999999999999999999MA1999999100471MW1001
006172433813802197201061700D+38550-089850SAO  +0138BLV  V0202201N004112200019N0112001N9-00201-01091102191ADDAA101000095GF100991999999999999999999MA1999999100441MW1001
006172433813802197201061800D+38550-089850SAO  +0138BLV  V0201901N005112200019N0112001N9-00041-00921102131ADDAA101000095GF100991999999999999999999MA1999999100371MW1001
006172433813802197201061900D+38550-089850SAO  +0138BLV  V0202101N004112200019N0112001N9+00081-00871101971ADDAA101000095GF100991999999999999999999MA1999999100241MW1001
006172433813802197201062000D+38550-089850SAO  +0138BLV  V0202101N004112200019N0112001N9+00191-00761101961ADDAA101000095GF100991999999999999999999MA1999999100241MW1001
006172433813802197201062100D+38550-089850SAO  +0138BLV  V0201801N003612200019N0112001N9+00241-00761101951ADDAA101000095GF100991999999999999999999MA1999999100201MW1001
006172433813802197201062200D+38550-089850SAO  +0138BLV  V0201801N004612200019N0112001N9+00241-00701101891ADDAA101000095GF100991999999999999999999MA1999999100171MW1001
006172433813802197201062300D+38550-089850SAO  +0138BLV  V0201801N003112200019N0112001N9+00081-00761101831ADDAA101000095GF100991999999999999999999MA1999999100101MW1001
006172433813802197201070000D+38550-089850SAO  +0138BLV  V0201901N006212200019N0112001N9+00191-00761101721ADDAA101000095GF100991999999999999999999MA1999999099971MW1001
006172433813802197201070100D+38550-089850SAO  +0138BLV  V0202001N005112200019N0112001N9+00191-00761101751ADDAA101000095GF100991999999999999999999MA1999999100031MW1001
006172433813802197201070200D+38550-089850SAO  +0138BLV  V0202301N004112200019N0112001N9+00081-00761101831ADDAA101000095GF100991999999999999999999MA1999999100101MW1001
006172433813802197201070300D+38550-089850SAO  +0138BLV  V0202301N002612200019N0112001N9+00081-00811101881ADDAA101000095GF100991999999999999999999MA1999999100141MW1001
006172433813802197201070400D+38550-089850SAO  +0138BLV  V0202201N004112200019N0112001N9+00081-00761101901ADDAA101000095GF100991999999999999999999MA1999999100171MW1001
006172433813802197201070500D+38550-089850SAO  +0138BLV  V0202201N004612200019N0112001N9+00081-00761101971ADDAA101000095GF100991999999999999999999MA1999999100241MW1001
006172433813802197201070600D+38550-089850SAO  +0138BLV  V0202601N005712200019N0112001N9+00411-00591101981ADDAA101000095GF100991999999999999999999MA1999999100241MW1001
006172433813802197201070700D+38550-089850SAO  +0138BLV  V0202601N006712200019N0112001N9+00411-00531102011ADDAA101000095GF100991999999999999999999MA1999999100301MW1001
006172433813802197201070800D+38550-089850SAO  +0138BLV  V0202701N006212200019N0112001N9+00411-00531102121ADDAA101000095GF100991999999999999999999MA1999999100411MW1001
006172433813802197201070900D+38550-089850SAO  +0138BLV  V0202501N005112200019N0112001N9+00301-00531102281ADDAA101000095GF100991999999999999999999MA1999999100541MW1001
006172433813802197201071000D+38550-089850SAO  +0138BLV  V0202101N002112200019N0112001N9+00241-00531102371ADDAA101000095GF100991999999999999999999MA1999999100641MW1001
006172433813802197201071100D+38550-089850SAO  +0138BLV  V0202101N002112200019N0112001N9+00301-00531102511ADDAA101000095GF100991999999999999999999MA1999999100781MW1001
006172433813802197201071200D+38550-089850SAO  +0138BLV  V0202401N002112200019N0112001N9+00191-00591102591ADDAA101000095GF100991999999999999999999MA1999999100851MW1001
006172433813802197201071300D+38550-089850SAO  +0138BLV  V0202301N003112200019N0112001N9+00021-00651102731ADDAA101000095GF100991999999999999999999MA1999999100981MW1001
006172433813802197201071400D+38550-089850SAO  +0138BLV  V0209991C000012200019N0112001N9+00081-00591102821ADDAA101000095GF100991999999999999999999MA1999999101081MW1001
006172433813802197201071500D+38550-089850SAO  +0138BLV  V0202301N003112200019N0112001N9+00131-00531102961ADDAA101000095GF100991999999999999999999MA1999999101221MW1001
006172433813802197201071600D+38550-089850SAO  +0138BLV  V0203201N002612200019N0112001N9+00411-00421103021ADDAA101000095GF100991999999999999999999MA1999999101291MW1001
006172433813802197201071700D+38550-089850SAO  +0138BLV  V0202401N003612200019N0112001N9+00521-00421103071ADDAA101000095GF100991999999999999999999MA1999999101351MW1001
006172433813802197201071800D+38550-089850SAO  +0138BLV  V0202501N003612200019N0112001N9+00631-00371103061ADDAA101000095GF100991999999999999999999MA1999999101351MW1001
006172433813802197201071900D+38550-089850SAO  +0138BLV  V0202401N003612200019N0112001N9+00741-00371103001ADDAA101000095GF100991999999999999999999MA1999999101291MW1001
006172433813802197201072000D+38550-089850SAO  +0138BLV  V0202301N003612200019N0112001N9+00851-00261103021ADDAA101000095GF100991999999999999999999MA1999999101321MW1001
006172433813802197201072100D+38550-089850SAO  +0138BLV  V0202401N002612200019N0112001N9+00911-00371103041ADDAA101000095GF100991999999999999999999MA1999999101351MW1001
006172433813802197201072200D+38550-089850SAO  +0138BLV  V0202101N000512200019N0112001N9+00851-00261103091ADDAA101000095GF102991999999999999999999MA1999999101391MW1001
006172433813802197201072300D+38550-089850SAO  +0138BLV  V0209991C000012200019N0112001N9+00741-00481103101ADDAA101000095GF108991999999999999999999MA1999999101391MW1001
008672433813802197201080000D+38550-089850SAO  +0138BLV  V0201101N001012200019N0112651N9+00501-00401103071ADDAA101000095AA206000091GF100991999999999999999999MA1102981101351MD1110021+9999MW1001
006172433813802197201080100D+38550-089850SAO  +0138BLV  V0201301N000512200019N0112001N9+00301-00371103161ADDAA101000095GF100991999999999999999999MA1999999101421MW1001
006172433813802197201080200D+38550-089850SAO  +0138BLV  V0201501N001012200019N0112001N9+00191-00421103131ADDAA101000095GF102991999999999999999999MA1999999101391MW1001
006172433813802197201080300D+38550-089850SAO  +0138BLV  V0201501N002112200019N0112001N9+00131-00591103071ADDAA101000095GF100991999999999999999999MA1999999101351MW1001
006172433813802197201080400D+38550-089850SAO  +0138BLV  V0201401N002112200019N0112001N9+00131-00591103071ADDAA101000095GF100991999999999999999999MA1999999101321MW1001
006172433813802197201080500D+38550-089850SAO  +0138BLV  V0201501N000512200019N0112001N9+00191-00531103031ADDAA101000095GF100991999999999999999999MA1999999101291MW1001
006172433813802197201080600D+38550-089850SAO  +0138BLV  V0201301N001012200019N0112001N9+00021-00651102971ADDAA101000095GF102991999999999999999999MA1999999101251MW1001
006172433813802197201080700D+38550-089850SAO  +0138BLV  V0201301N002112200019N0112001N9+00081-00591102941ADDAA101000095GF102991999999999999999999MA1999999101191MW1001
006172433813802197201080800D+38550-089850SAO  +0138BLV  V0201301N003112200019N0112001N9+00021-00651102901ADDAA101000095GF100991999999999999999999MA1999999101151MW1001
006172433813802197201080900D+38550-089850SAO  +0138BLV  V0201501N003112200019N0112001N9+00081-00261102821ADDAA101000095GF100991999999999999999999MA1999999101081MW1001
006172433813802197201081000D+38550-089850SAO  +0138BLV  V0201701N002612200019N0112001N9-00041-00591102771ADDAA101000095GF100991999999999999999999MA1999999101021MW1001
006172433813802197201081100D+38550-089850SAO  +0138BLV  V0201401N001012200019N0112001N9+00081-00531102691ADDAA101000095GF102991999999999999999999MA1999999100951MW1001
006172433813802197201081200D+38550-089850SAO  +0138BLV  V0201201N001512200019N0112001N9+00021-00531102691ADDAA101000095GF102991999999999999999999MA1999999100911MW1001
006172433813802197201081300D+38550-089850SAO  +0138BLV  V0201401N002610750019N0112001N9+00081-00531102651ADDAA101000095GF107991999999999999999999MA1999999100911MW1001
006172433813802197201081400D+38550-089850SAO  +0138BLV  V0201501N003110750019N0112001N9+00241-00371102611ADDAA101000095GF108991999999999999999999MA1999999100881MW1001
006172433813802197201081500D+38550-089850SAO  +0138BLV  V0201701N006212200019N0112001N9+00351-00371102531ADDAA101000095GF107991999999999999999999MA1999999100811MW1001
006172433813802197201081600D+38550-089850SAO  +0138BLV  V0201701N009312200019N0112001N9+00581-00311102491ADDAA101000095GF107991999999999999999999MA1999999100781MW1001
006172433813802197201081700D+38550-089850SAO  +0138BLV  V0201701N008212200019N0112001N9+00741-00311102311ADDAA101000095GF107991999999999999999999MA1999999100611MW1001
006172433813802197201081800D+38550-089850SAO  +0138BLV  V0201701N010312200019N0112001N9+01021-00311102111ADDAA101000095GF107991999999999999999999MA1999999100411MW1001
006172433813802197201081900D+38550-089850SAO  +0138BLV  V0201601N008210360019N0112001N9+00961-00201101881ADDAA101000095GF108991999999999999999999MA1999999100201MW1001
006172433813802197201082000D+38550-089850SAO  +0138BLV  V0201701N009310360019N0112001N9+00961-00311101701ADDAA101000095GF108991999999999999999999MA1999999100031MW1001
006172433813802197201082100D+38550-089850SAO  +0138BLV  V0201701N008710360019N0112001N9+00911-00261101651ADDAA101000095GF108991999999999999999999MA1999999099931MW1001
006172433813802197201082200D+38550-089850SAO  +0138BLV  V0201701N008712100019N0112001N9+00911-00261101471ADDAA101000095GF108991999999999999999999MA1999999099801MW1001
006172433813802197201082300D+38550-089850SAO  +0138BLV  V0201701N009810240019N0112001N9+00851-00261101371ADDAA101000095GF108991999999999999999999MA1999999099701MW1001
006172433813802197201090000D+38550-089850SAO  +0138BLV  V0201801N010310240019N0112001N9+00801-00201101341ADDAA101000095GF108991999999999999999999MA1999999099631MW1001
006172433813802197201090100D+38550-089850SAO  +0138BLV  V0201801N009810180019N0112001N9+00851-00261101231ADDAA101000095GF108991999999999999999999MA1999999099561MW1001
006172433813802197201090200D+38550-089850SAO  +0138BLV  V0201701N009810150019N0112001N9+00911-00261101091ADDAA101000095GF108991999999999999999999MA1999999099421MW1001
006172433813802197201090300D+38550-089850SAO  +0138BLV  V0201801N008710105019N0112001N9+00911-00151101081ADDAA101000095GF108991999999999999999999MA1999999099361MW1001
006172433813802197201090400D+38550-089850SAO  +0138BLV  V0201801N006710084019N0112001N9+00961+00081100951ADDAA101000095GF108991999999999999999999MA1999999099291MW1001
006172433813802197201090500D+38550-089850SAO  +0138BLV  V0201901N005110072019N0112001N9+01021+00351100951ADDAA101000095GF108991999999999999999999MA1999999099291MW1001
006172433813802197201090600D+38550-089850SAO  +0138BLV  V0202001N007210072019N0112001N9+01071+00461100961ADDAA101000095GF108991999999999999999999MA1999999099261MW1001
006172433813802197201090700D+38550-089850SAO  +0138BLV  V0201901N005710060019N0112001N9+01021+00461100921ADDAA101000095GF108991999999999999999999MA1999999099261MW1001
005572433813802197201090800D+38550-089850SAO  +0138BLV  V0201901N004610060019N0112651N9+01001+00401999999ADDAA101000095GF108991999999999999999999MA1100881999999
006172433813802197201090900D+38550-089850SAO  +0138BLV  V0201801N005710072019N0112001N9+00961+00461100871ADDAA101000095GF108991999999999999999999MA1999999099191MW1001
006172433813802197201091000D+38550-089850SAO  +0138BLV  V0201801N005110045019N0112001N9+00961+00521100811ADDAA101000095GF108991999999999999999999MA1999999099151MW1001
006172433813802197201091100D+38550-089850SAO  +0138BLV  V0201701N004610021019N0112001N9+00911+00521100751ADDAA101000095GF108991999999999999999999MA1999999099091MW1001
006172433813802197201091200D+38550-089850SAO  +0138BLV  V0201701N003110021019N0112001N9+00851+00461100711ADDAA101000095GF108991999999999999999999MA1999999099051MW1001
006172433813802197201091300D+38550-089850SAO  +0138BLV  V0209991C000010015019N0112001N9+00801+00461100721ADDAA101000095GF108991999999999999999999MA1999999099051MW1001
006172433813802197201091400D+38550-089850SAO  +0138BLV  V0201801N001510012019N0112001N9+00851+00461100781ADDAA101000095GF108991999999999999999999MA1999999099121MW1001
006172433813802197201091500D+38550-089850SAO  +0138BLV  V0201901N002110012019N0112001N9+00851+00461100771ADDAA101000095GF108991999999999999999999MA1999999099121MW1001
006172433813802197201091600D+38550-089850SAO  +0138BLV  V0201801N002010012019N0080471N9+00901+00601999999ADDAA101000095GF108991999999999999999999MA1100781999999MW1451
006172433813802197201091700D+38550-089850SAO  +0138BLV  V0202001N002010030019N0080471N9+00901+00601999999ADDAA101000095GF108991999999999999999999MA1100681999999MW1451
006172433813802197201091800D+38550-089850SAO  +0138BLV  V0201901N004610030019N0080001N9+01071+00691100491ADDAA101000095GF107991999999999999999999MA1999999098851MW1111
006172433813802197201091900D+38550-089850SAO  +0138BLV  V0202601N002610018019N0112001N9+01131+00691100491ADDAA101000095GF107991999999999999999999MA1999999098851MW1001
006172433813802197201092000D+38550-089850SAO  +0138BLV  V0203201N005710072019N0112001N9+01301+00581100481ADDAA101000095GF107991999999999999999999MA1999999098851MW1001
006172433813802197201092100D+38550-089850SAO  +0138BLV  V0202901N003612200019N0112001N9+01411+00411100521ADDAA101000095GF102991999999999999999999MA1999999098881MW1001
006172433813802197201092200D+38550-089850SAO  +0138BLV  V0203301N002612200019N0112001N9+01301+00191100581ADDAA101000095GF100991999999999999999999MA1999999098951MW1001
006172433813802197201092300D+38550-089850SAO  +0138BLV  V0203301N000512200019N0112001N9+00851+00081100681ADDAA101000095GF100991999999999999999999MA1999999099021MW1001
006172433813802197201100000D+38550-089850SAO  +0138BLV  V0209991C000012200019N0112001N9+00911-00041100701ADDAA101000095GF100991999999999999999999MA1999999099051MW1001
006172433813802197201100100D+38550-089850SAO  +0138BLV  V0209991C000012200019N0112001N9+00521-00091100771ADDAA101000095GF100991999999999999999999MA1999999099091MW1001
006172433813802197201100200D+38550-089850SAO  +0138BLV  V0201801N000512200019N0112001N9+00461-00041100811ADDAA101000095GF100991999999999999999999MA1999999099121MW1001
006172433813802197201100300D+38550-089850SAO  +0138BLV  V0209991C000012200019N0112001N9+00241-00261100771ADDAA101000095GF100991999999999999999999MA1999999099091MW1001
006172433813802197201100400D+38550-089850SAO  +0138BLV  V0209991C000012200019N0112001N9+00191-00311100791ADDAA101000095GF100991999999999999999999MA1999999099091MW1001
006172433813802197201100500D+38550-089850SAO  +0138BLV  V0209991C000012200019N0112001N9+00131-00311100801ADDAA101000095GF100991999999999999999999MA1999999099091MW1001
008672433813802197201100600D+38550-089850SAO  +0138BLV  V0209991C000012200019N0080471N9+00101-00401100721ADDAA101000095AA206000091GF100991999999999999999999MA1100681099011MD1610051+9999MW1451
006172433813802197201100700D+38550-089850SAO  +0138BLV  V0209991C000010001519N0000001N9+00101-00301999999ADDAA101000095GF109991999999999999999999MA1100681999999MW1451
006172433813802197201100800D+38550-089850SAO  +0138BLV  V0209991C000010001519N0000001N9+00001-00301999999ADDAA101000095GF109991999999999999999999MA1100581999999MW1451
006172433813802197201100900D+38550-089850SAO  +0138BLV  V0209991C000010001519N0000001N9+00131-00201100611ADDAA101000095GF108991999999999999999999MA1999999098951MW1451
006172433813802197201101000D+38550-089850SAO  +0138BLV  V0209991C000010001519N0000001N9+00131-00201100581ADDAA101000095GF108991999999999999999999MA1999999098881MW1451
006172433813802197201101100D+38550-089850SAO  +0138BLV  V0209991C000010003019N0006041N9+00101-00201999999ADDAA101000095GF109991999999999999999999MA1100471999999MW1451
006172433813802197201101200D+38550-089850SAO  +0138BLV  V0209991C000010003019N0004001N9+00131-00201100511ADDAA101000095GF108991999999999999999999MA1999999098851MW1451
006172433813802197201101300D+38550-089850SAO  +0138BLV  V0201401N000510003019N0000001N9+00191-00151100581ADDAA101000095GF108991999999999999999999MA1999999098881MW1451
006172433813802197201101400D+38550-089850SAO  +0138BLV  V0200601N001510003019N0001001N9-00041-00151100701ADDAA101000095GF108991999999999999999999MA1999999098981MW1451
006172433813802197201101500D+38550-089850SAO  +0138BLV  V0201101N001010003019N0001001N9+00301-00041100651ADDAA101000095GF108991999999999999999999MA1999999098981MW1451
006172433813802197201101600D+38550-089850SAO  +0138BLV  V0201301N003610003019N0001001N9+00461+00081100671ADDAA101000095GF108991999999999999999999MA1999999098981MW1451
006172433813802197201101700D+38550-089850SAO  +0138BLV  V0201401N002610003019N0002001N9+00521+00241100631ADDAA101000095GF108991999999999999999999MA1999999098951MW1451
006172433813802197201101800D+38550-089850SAO  +0138BLV  V0209991C000010003019N0006001N9+00631+00301100551ADDAA101000095GF108991999999999999999999MA1999999098881MW1451
006172433813802197201101900D+38550-089850SAO  +0138BLV  V0201601N004610006019N0024001N9+00741+00461100441ADDAA101000095GF108991999999999999999999MA1999999098781MW1451
006172433813802197201102000D+38550-089850SAO  +0138BLV  V0201801N002610009019N0032001N9+00911+00581100431ADDAA101000095GF108991999999999999999999MA1999999098781MW1451
006172433813802197201102100D+38550-089850SAO  +0138BLV  V0201701N004110015019N0048001N9+01021+00631100481ADDAA101000095GF107991999999999999999999MA1999999098781MW1451
006172433813802197201102200D+38550-089850SAO  +0138BLV  V0201601N001510009019N0032001N9+01021+00691100501ADDAA101000095GF108991999999999999999999MA1999999098851MW1451
006172433813802197201102300D+38550-089850SAO  +0138BLV  V0209991C000010001519N0000001N9+00961+00631100641ADDAA101000095GF108991999999999999999999MA1999999098981MW1451
006172433813802197201110000D+38550-089850SAO  +0138BLV  V0203401N005112200019N0112001N9+00801+00461100731ADDAA101000095GF102991999999999999999999MA1999999099051MW1001
006172433813802197201110100D+38550-089850SAO  +0138BLV  V0203401N005710600019N0112001N9+00851+00081100931ADDAA101000095GF107991999999999999999999MA1999999099261MW1001
006172433813802197201110200D+38550-089850SAO  +0138BLV  V0203601N002610600019N0112001N9+00631-00151101041ADDAA101000095GF107991999999999999999999MA1999999099361MW1001
006172433813802197201110300D+38550-089850SAO  +0138BLV  V0203601N001512200019N0112001N9+00411-00311101181ADDAA101000095GF100991999999999999999999MA1999999099421MW1001
006172433813802197201110400D+38550-089850SAO  +0138BLV  V0203601N001012200019N0112001N9+00351-00311101261ADDAA101000095GF100991999999999999999999MA1999999099561MW1001
006172433813802197201110500D+38550-089850SAO  +0138BLV  V0203601N002112200019N0112001N9+00301-00371101261ADDAA101000095GF100991999999999999999999MA1999999099561MW1001
008672433813802197201110600D+38550-089850SAO  +0138BLV  V0200101N002012200019N0112651N9+00201-00401101281ADDAA101000095AA206000091GF100991999999999999999999MA1101291099571MD1110101+9999MW1001
006172433813802197201110700D+38550-089850SAO  +0138BLV  V0200101N002612200019N0112001N9+00131-00481101351ADDAA101000095GF100991999999999999999999MA1999999099631MW1001
006172433813802197201110800D+38550-089850SAO  +0138BLV  V0203601N001512200019N0112001N9+00021-00591101421ADDAA101000095GF100991999999999999999999MA1999999099701MW1001
006172433813802197201110900D+38550-089850SAO  +0138BLV  V0203501N002112200019N0112001N9-00041-00591101481ADDAA101000095GF100991999999999999999999MA1999999099761MW1001
006172433813802197201111000D+38550-089850SAO  +0138BLV  V0203601N001012200019N0112001N9+00081-00481101551ADDAA101000095GF100991999999999999999999MA1999999099831MW1001
006172433813802197201111100D+38550-089850SAO  +0138BLV  V0209991C000010660019N0112001N9+00081-00481101551ADDAA101000095GF107991999999999999999999MA1999999099831MW1001
006172433813802197201111200D+38550-089850SAO  +0138BLV  V0203301N001510600019N0112001N9+00131-00481101621ADDAA101000095GF108991999999999999999999MA1999999099901MW1001
006172433813802197201111300D+38550-089850SAO  +0138BLV  V0209991C000010600019N0112001N9+00191-00481101621ADDAA101000095GF107991999999999999999999MA1999999099901MW1001
006172433813802197201111400D+38550-089850SAO  +0138BLV  V0209991C000012200019N0112001N9+00081-00421101621ADDAA101000095GF102991999999999999999999MA1999999099901MW1001
010072433813802197201111500D+38550-089850SAO  +0138BLV  V0203001N001512200019N0112001N9+99999+99999999999ADDAA101000095GF107991999999999999999999MA1101731100031MD1310141+9999MW1001REMAWY016RCD%130/314 1075
006172433813802197201111600D+38550-089850SAO  +0138BLV  V0201701N001010240019N0112001N9+00581+99999101731ADDAA101000095GF107991999999999999999999MA1999999100031MW1001
005572433813802197201111700D+38550-089850SAO  +0138BLV  V0202701N002012200019N0112651N9+00801-00401999999ADDAA101000095GF102991999999999999999999MA1101591999999
006172433813802197201111800D+38550-089850SAO  +0138BLV  V0202101N003612200019N0112001N9+00911+00462101491ADDAA101000095GF102991999999999999999999MA1999999099761MW1001
006172433813802197201111900D+38550-089850SAO  +0138BLV  V0202201N005712200019N0112001N9+00911+99999101301ADDAA101000095GF102991999999999999999999MA1999999099631MW1001
006172433813802197201112000D+38550-089850SAO  +0138BLV  V0202601N010312200019N0112001N9+01021-00151101251ADDAA101000095GF102991999999999999999999MA1999999099591MW1001
006172433813802197201112100D+38550-089850SAO  +0138BLV  V0202701N008712200019N0112001N9+00911-00151101371ADDAA101000095GF100991999999999999999999MA1999999099661MW1001
006172433813802197201112200D+38550-089850SAO  +0138BLV  V0202801N008712200019N0112001N9+01021-00201101421ADDAA101000095GF100991999999999999999999MA1999999099761MW1001
006172433813802197201112300D+38550-089850SAO  +0138BLV  V0203101N006712200019N0112001N9+00631-00311101521ADDAA101000095GF102991999999999999999999MA1999999099831MW1001
006172433813802197201120000D+38550-089850SAO  +0138BLV  V0203301N002112200019N0112001N9+00581-00371101501ADDAA101000095GF102991999999999999999999MA1999999099861MW1001
006172433813802197201120100D+38550-089850SAO  +0138BLV  V0209991C000012200019N0112001N9+00351-00421101611ADDAA101000095GF100991999999999999999999MA1999999099901MW1001
006172433813802197201120200D+38550-089850SAO  +0138BLV  V0209991C000012200019N0112001N9+00191-00761101691ADDAA101000095GF100991999999999999999999MA1999999099971MW1001
006172433813802197201120300D+38550-089850SAO  +0138BLV  V0201101N001012200019N0112001N9-00201-00531101641ADDAA101000095GF100991999999999999999999MA1999999099901MW1001
006172433813802197201120400D+38550-089850SAO  +0138BLV  V0201101N002112200019N0112001N9-00201-00591101541ADDAA101000095GF100991999999999999999999MA1999999099801MW1001
006172433813802197201120500D+38550-089850SAO  +0138BLV  V0201501N001512200019N0112001N9+00081-00701101421ADDAA101000095GF102991999999999999999999MA1999999099701MW1001
006172433813802197201120600D+38550-089850SAO  +0138BLV  V0201501N003110600019N0112001N9+00081-00701101381ADDAA101000095GF107991999999999999999999MA1999999099661MW1001
006172433813802197201120700D+38550-089850SAO  +0138BLV  V0201401N002612200019N0112001N9+00081-00811101251ADDAA101000095GF107991999999999999999999MA1999999099531MW1001
006172433813802197201120800D+38550-089850SAO  +0138BLV  V0201401N002112200019N0112001N9+00081-00761101211ADDAA101000095GF107991999999999999999999MA1999999099491MW1001
006172433813802197201120900D+38550-089850SAO  +0138BLV  V0201501N004112200019N0112001N9+00131-00761101181ADDAA101000095GF107991999999999999999999MA1999999099461MW1001
006172433813802197201121000D+38550-089850SAO  +0138BLV  V0201401N004612200019N0112001N9+00131-00761101031ADDAA101000095GF102991999999999999999999MA1999999099321MW1001
006172433813802197201121100D+38550-089850SAO  +0138BLV  V0201401N004112200019N0112001N9+00131-00701100971ADDAA101000095GF107991999999999999999999MA1999999099261MW1001
006172433813802197201121200D+38550-089850SAO  +0138BLV  V0201501N004612200019N0112001N9+00241-00531100751ADDAA101000095GF107991999999999999999999MA1999999099091MW1001
006172433813802197201121300D+38550-089850SAO  +0138BLV  V0201501N004610750019N0112001N9+00241-00371100721ADDAA101000095GF108991999999999999999999MA1999999099021MW1001
006172433813802197201121400D+38550-089850SAO  +0138BLV  V0201701N006210750019N0112001N9+00461-00151100631ADDAA101000095GF108991999999999999999999MA1999999098951MW1001
006172433813802197201121500D+38550-089850SAO  +0138BLV  V0201701N009310750019N0112001N9+00521-00151100451ADDAA101000095GF108991999999999999999999MA1999999098751MW1001
006172433813802197201121600D+38550-089850SAO  +0138BLV  V0201701N010310750019N0112001N9+00691-00261100351ADDAA101000095GF108991999999999999999999MA1999999098681MW1001
006172433813802197201121700D+38550-089850SAO  +0138BLV  V0201801N007712200019N0112001N9+00851-00261100231ADDAA101000095GF102991999999999999999999MA1999999098581MW1001
006172433813802197201121800D+38550-089850SAO  +0138BLV  V0201801N008212200019N0112001N9+01071-00151100101ADDAA101000095GF108991999999999999999999MA1999999098411MW1001
006172433813802197201121900D+38550-089850SAO  +0138BLV  V0201701N008212200019N0112001N9+01191+00081099871ADDAA101000095GF108991999999999999999999MA1999999098241MW1001
006172433813802197201122000D+38550-089850SAO  +0138BLV  V0202001N005112200019N0112001N9+01351+00301099761ADDAA101000095GF108991999999999999999999MA1999999098141MW1001
006172433813802197201122100D+38550-089850SAO  +0138BLV  V0201901N007212200019N0112001N9+01461+00411099761ADDAA101000095GF108991999999999999999999MA1999999098101MW1001
006172433813802197201122200D+38550-089850SAO  +0138BLV  V0201901N007710840019N0112001N9+01411+00351099761ADDAA101000095GF108991999999999999999999MA1999999098141MW1001
006172433813802197201122300D+38550-089850SAO  +0138BLV  V0201801N004610840019N0112001N9+01191+00411099801ADDAA101000095GF108991999999999999999999MA1999999098171MW1001
006172433813802197201130000D+38550-089850SAO  +0138BLV  V0201701N005110540019N0112001N9+01131+00521099861ADDAA101000095GF108991999999999999999999MA1999999098211MW1001
006172433813802197201130100D+38550-089850SAO  +0138BLV  V0201801N005112200019N0112001N9+01191+00581099841ADDAA101000095GF107991999999999999999999MA1999999098211MW1001
006172433813802197201130200D+38550-089850SAO  +0138BLV  V0201901N003112200019N0112001N9+01071+00581099951ADDAA101000095GF107991999999999999999999MA1999999098311MW1001
006172433813802197201130300D+38550-089850SAO  +0138BLV  V0201701N001510750019N0112001N9+01021+00521100021ADDAA101000095GF107991999999999999999999MA1999999098341MW1001
006172433813802197201130400D+38550-089850SAO  +0138BLV  V0203401N003610750019N0112001N9+00691+00461100031ADDAA101000095GF108991999999999999999999MA1999999098371MW1001
006172433813802197201130500D+38550-089850SAO  +0138BLV  V0209991C000010300019N0112001N9+00851+00521099991ADDAA101000095GF107991999999999999999999MA1999999098341MW1001
006172433813802197201130600D+38550-089850SAO  +0138BLV  V0203601N010310300019N0112001N9+00691+00191100021ADDAA101000095GF108991999999999999999999MA1999999098341MW1001
006172433813802197201130700D+38550-089850SAO  +0138BLV  V0203501N009310750019N0112001N9+00411-00091100091ADDAA101000095GF107991999999999999999999MA1999999098411MW1001
006172433813802197201130800D+38550-089850SAO  +0138BLV  V0203501N009310135019N0112001N9+00301-00201100171ADDAA101000095GF108991999999999999999999MA1999999098481MW1001
006172433813802197201130900D+38550-089850SAO  +0138BLV  V0203501N010310135019N0320001N9+00191-00371100311ADDAA101000095GF108991999999999999999999MA1999999098611MW1001
006172433813802197201131000D+38550-089850SAO  +0138BLV  V0203401N009310084019N0112001N9+00081-00371100451ADDAA101000095GF108991999999999999999999MA1999999098751MW1611
006172433813802197201131100D+38550-089850SAO  +0138BLV  V0203401N010310075019N0112001N9-00091-00421100571ADDAA101000095GF108991999999999999999999MA1999999098851MW1711
006172433813802197201131200D+38550-089850SAO  +0138BLV  V0203501N006210063019N0112001N9-00151-00421100641ADDAA101000095GF108991999999999999999999MA1999999098981MW1711
006772433813802197201131300D+38550-089850SAO  +0138BLV  V0203401N008710069019N0112001N9-00261-00531101001ADDAA101000095GF108991999999999999999999MA1999999099261MW1661MW2711
007372433813802197201131400D+38550-089850SAO  +0138BLV  V0203301N007210042019N0024001N9-00371-00531101061ADDAA101000095GF108991999999999999999999MA1999999099321MW1381MW2711MW3771
016272433813802197201131500D+38550-089850SAO  +0138BLV  V0203501N010310042019N0032001N9-00441-00671101181ADDAA101000095GF108991999999999999999999MA1101151099491MD1110521+9999MW1381MW2711MW3771OC101341REMAWY058S3/RCD?170/PIREP 1420 ?80 90?240/WND 320V360/152 17// IR12
006772433813802197201131600D+38550-089850SAO  +0138BLV  V0203401N008210027019N0012001N9-00421-00591101381ADDAA101000095GF108991999999999999999999MA1999999099631MW1381MW2711
006172433813802197201131700D+38550-089850SAO  +0138BLV  V0203501N006110054019N0048281N9-00401-00801999999ADDAA101000095GF108991999999999999999999MA1101491999999MW1701
006172433813802197201131800D+38550-089850SAO  +0138BLV  V0203501N007710270019N0112001N9-00371-00921101501ADDAA101000095GF108991999999999999999999MA1999999099761MW1001
006172433813802197201131900D+38550-089850SAO  +0138BLV  V0203601N008710750019N0112001N9-00311-00981101511ADDAA101000095GF107991999999999999999999MA1999999099761MW1001
006172433813802197201132000D+38550-089850SAO  +0138BLV  V0203601N008710750019N0112001N9-00261-01031101581ADDAA101000095GF107991999999999999999999MA1999999099831MW1001
006172433813802197201132100D+38550-089850SAO  +0138BLV  V0203601N007210330019N0112001N9-00311-01091101721ADDAA101000095GF108991999999999999999999MA1999999099971MW1001
006172433813802197201132200D+38550-089850SAO  +0138BLV  V0203601N007210330019N0112001N9-00311-01091101851ADDAA101000095GF108991999999999999999999MA1999999100101MW1001
006172433813802197201132300D+38550-089850SAO  +0138BLV  V0203601N003610300019N0112001N9-00371-01201102001ADDAA101000095GF108991999999999999999999MA1999999100241MW1001
006172433813802197201140000D+38550-089850SAO  +0138BLV  V0203501N003110330019N0112001N9-00481-01091102071ADDAA101000095GF107991999999999999999999MA1999999100341MW1001
006172433813802197201140100D+38550-089850SAO  +0138BLV  V0203501N003610360019N0112001N9-00421-01151102281ADDAA101000095GF108991999999999999999999MA1999999100511MW1001
006172433813802197201140200D+38550-089850SAO  +0138BLV  V0203401N005110360019N0112001N9-00481-01091102351ADDAA101000095GF107991999999999999999999MA1999999100581MW1001
006172433813802197201140300D+38550-089850SAO  +0138BLV  V0203401N004110390019N0112001N9-00591-01201102451ADDAA101000095GF108991999999999999999999MA1999999100711MW1001
006172433813802197201140400D+38550-089850SAO  +0138BLV  V0203401N004610390019N0112001N9-00701-01261102571ADDAA101000095GF107991999999999999999999MA1999999100781MW1001
006172433813802197201140500D+38550-089850SAO  +0138BLV  V0203501N002612200019N0112001N9-00921-01371102621ADDAA101000095GF107991999999999999999999MA1999999100811MW1001
006172433813802197201140600D+38550-089850SAO  +0138BLV  V0203501N002612200019N0112001N9-00921-01371102641ADDAA101000095GF102991999999999999999999MA1999999100881MW1001
005572433813802197201140700D+38550-089850SAO  +0138BLV  V0203501N003012200019N0112651N9-01001-01401999999ADDAA101000095GF102991999999999999999999MA1102571999999
006172433813802197201140800D+38550-089850SAO  +0138BLV  V0203501N003112200019N0112001N9-00981-01421102721ADDAA101000095GF102991999999999999999999MA1999999100911MW1001
006172433813802197201140900D+38550-089850SAO  +0138BLV  V0209991C000012200019N0112001N9-00921-01371102771ADDAA101000095GF100991999999999999999999MA1999999101021MW1001
006172433813802197201141000D+38550-089850SAO  +0138BLV  V0209991C000012200019N0112001N9-00871-01371102861ADDAA101000095GF100991999999999999999999MA1999999101051MW1001
006172433813802197201141100D+38550-089850SAO  +0138BLV  V0209991C000012200019N0112001N9-00921-01371102931ADDAA101000095GF100991999999999999999999MA1999999101121MW1001
006172433813802197201141200D+38550-089850SAO  +0138BLV  V0209991C000012200019N0112001N9-01031-01371102911ADDAA101000095GF100991999999999999999999MA1999999101151MW1001
006172433813802197201141300D+38550-089850SAO  +0138BLV  V0209991C000012200019N0112001N9-01031-01311103141ADDAA101000095GF102991999999999999999999MA1999999101321MW1001
006172433813802197201141400D+38550-089850SAO  +0138BLV  V0203401N005712200019N0112001N9-01031-01371103251ADDAA101000095GF100991999999999999999999MA1999999101421MW1001
006172433813802197201141500D+38550-089850SAO  +0138BLV  V0203401N009812200019N0112001N9-00921-01371103431ADDAA101000095GF100991999999999999999999MA1999999101661MW1001
006172433813802197201141600D+38550-089850SAO  +0138BLV  V0203401N007212200019N0112001N9-00981-01421103661ADDAA101000095GF102991999999999999999999MA1999999101831MW1001
006172433813802197201141700D+38550-089850SAO  +0138BLV  V0203401N010312200019N0112001N9-01031-01531103731ADDAA101000095GF100991999999999999999999MA1999999101901MW1001
006172433813802197201141800D+38550-089850SAO  +0138BLV  V0203501N010312200019N0112001N9-01091-01761103671ADDAA101000095GF100991999999999999999999MA1999999101831MW1001
006172433813802197201141900D+38550-089850SAO  +0138BLV  V0203301N008712200019N0112001N9-01151-01701103701ADDAA101000095GF107991999999999999999999MA1999999101861MW1001
006172433813802197201142000D+38550-089850SAO  +0138BLV  V0203301N006712200019N0112001N9-01091-02141103771ADDAA101000095GF102991999999999999999999MA1999999101931MW1001
006172433813802197201142100D+38550-089850SAO  +0138BLV  V0203601N007212200019N0112001N9-01151-02201103871ADDAA101000095GF107991999999999999999999MA1999999102031MW1001
006172433813802197201142200D+38550-089850SAO  +0138BLV  V0203601N005112200019N0112001N9-01201-02261103981ADDAA101000095GF107991999999999999999999MA1999999102131MW1001
006172433813802197201142300D+38550-089850SAO  +0138BLV  V0203401N006212200019N0112001N9-01311-02371104131ADDAA101000095GF107991999999999999999999MA1999999102271MW1001
006172433813802197201150000D+38550-089850SAO  +0138BLV  V0203401N005112200019N0112001N9-01421-02531104221ADDAA101000095GF108991999999999999999999MA1999999102401MW1001
006172433813802197201150100D+38550-089850SAO  +0138BLV  V0203501N006212200019N0112001N9-01421-02481104311ADDAA101000095GF108991999999999999999999MA1999999102441MW1001
006172433813802197201150200D+38550-089850SAO  +0138BLV  V0203501N005112200019N0112001N9-01421-02481104381ADDAA101000095GF108991999999999999999999MA1999999102511MW1001
006172433813802197201150300D+38550-089850SAO  +0138BLV  V0203401N004612200019N0112001N9-01481-02531104421ADDAA101000095GF107991999999999999999999MA1999999102571MW1001
006172433813802197201150400D+38550-089850SAO  +0138BLV  V0203401N004112200019N0112001N9-01591-02481104501ADDAA101000095GF102991999999999999999999MA1999999102611MW1001
006172433813802197201150500D+38550-089850SAO  +0138BLV  V0203501N003612200019N0112001N9-01641-02481104601ADDAA101000095GF100991999999999999999999MA1999999102711MW1001
006172433813802197201150600D+38550-089850SAO  +0138BLV  V0203501N004112200019N0112001N9-01701-02481104551ADDAA101000095GF100991999999999999999999MA1999999102711MW1001
006172433813802197201150700D+38550-089850SAO  +0138BLV  V0203101N005112200019N0112001N9-01641-02641104571ADDAA101000095GF100991999999999999999999MA1999999102681MW1001
006172433813802197201150800D+38550-089850SAO  +0138BLV  V0203201N006212200019N0112001N9-01701-02641104581ADDAA101000095GF100991999999999999999999MA1999999102681MW1001
006172433813802197201150900D+38550-089850SAO  +0138BLV  V0203601N006212200019N0112001N9-01761-02591104551ADDAA101000095GF100991999999999999999999MA1999999102711MW1001
006172433813802197201151000D+38550-089850SAO  +0138BLV  V0203501N004612200019N0112001N9-01871-02751104651ADDAA101000095GF100991999999999999999999MA1999999102741MW1001
006172433813802197201151100D+38550-089850SAO  +0138BLV  V0203401N004112200019N0112001N9-01941-02781999999ADDAA101000095GF100991999999999999999999MA1104471999999MW1001
006172433813802197201151200D+38550-089850SAO  +0138BLV  V0203401N004612200019N0112001N9-01921-02811104631ADDAA101000095GF100991999999999999999999MA1999999102781MW1001
006172433813802197201151300D+38550-089850SAO  +0138BLV  V0203401N004612200019N0112001N9-01981-02871104761ADDAA101000095GF100991999999999999999999MA1999999102841MW1001
006172433813802197201151400D+38550-089850SAO  +0138BLV  V0203301N005712200019N0112001N9-01981-02871104801ADDAA101000095GF100991999999999999999999MA1999999102881MW1001
006172433813802197201151500D+38550-089850SAO  +0138BLV  V0203201N006212200019N0112001N9-01921-02871104881ADDAA101000095GF100991999999999999999999MA1999999102981MW1001
006172433813802197201151600D+38550-089850SAO  +0138BLV  V0203201N006212200019N0112001N9-01871-02871104971ADDAA101000095GF100991999999999999999999MA1999999103051MW1001
006172433813802197201151700D+38550-089850SAO  +0138BLV  V0203401N003112200019N0112001N9-01811-02811104921ADDAA101000095GF100991999999999999999999MA1999999103011MW1001
006172433813802197201151800D+38550-089850SAO  +0138BLV  V0203301N005112200019N0112001N9-01531-02641104881ADDAA101000095GF100991999999999999999999MA1999999103011MW1001
006172433813802197201151900D+38550-089850SAO  +0138BLV  V0203401N005112200019N0112001N9-01761-02811104861ADDAA101000095GF100991999999999999999999MA1999999102951MW1001
006172433813802197201152000D+38550-089850SAO  +0138BLV  V0203601N005112200019N0112001N9-01641-02811104731ADDAA101000095GF100991999999999999999999MA1999999102841MW1001
006172433813802197201152100D+38550-089850SAO  +0138BLV  V0203601N005712200019N0112001N9-01701-02811104741ADDAA101000095GF100991999999999999999999MA1999999102841MW1001
006172433813802197201152200D+38550-089850SAO  +0138BLV  V0200201N002612200019N0112001N9-01761-02871104741ADDAA101000095GF100991999999999999999999MA1999999102841MW1001
006172433813802197201152300D+38550-089850SAO  +0138BLV  V0203601N003612200019N0112001N9-01811-02811104791ADDAA101000095GF100991999999999999999999MA1999999102881MW1001
006172433813802197201160000D+38550-089850SAO  +0138BLV  V0200101N003112200019N0112001N9-01871-02751104771ADDAA101000095GF100991999999999999999999MA1999999102881MW1001
006172433813802197201160100D+38550-089850SAO  +0138BLV  V0200101N002112200019N0112001N9-01921-02751104801ADDAA101000095GF100991999999999999999999MA1999999102881MW1001
006172433813802197201160200D+38550-089850SAO  +0138BLV  V0200201N001512200019N0112001N9-01921-02751104801ADDAA101000095GF100991999999999999999999MA1999999102881MW1001
006172433813802197201160300D+38550-089850SAO  +0138BLV  V0200401N002112200019N0112001N9-01921-02701104741ADDAA101000095GF100991999999999999999999MA1999999102881MW1001
006172433813802197201160400D+38550-089850SAO  +0138BLV  V0200401N002612200019N0112001N9-01981-02701104801ADDAA101000095GF100991999999999999999999MA1999999102881MW1001
006172433813802197201160500D+38550-089850SAO  +0138BLV  V0200701N002612200019N0112001N9-01981-02701104831ADDAA101000095GF100991999999999999999999MA1999999102911MW1001
006172433813802197201160600D+38550-089850SAO  +0138BLV  V0200601N001512200019N0112001N9-01981-02701104761ADDAA101000095GF100991999999999999999999MA1999999102911MW1001
006172433813802197201160700D+38550-089850SAO  +0138BLV  V0201301N002612200019N0112001N9-01981-02641104761ADDAA101000095GF100991999999999999999999MA1999999102841MW1001
006172433813802197201160800D+38550-089850SAO  +0138BLV  V0201201N003112200019N0112001N9-01981-02641104731ADDAA101000095GF100991999999999999999999MA1999999102811MW1001
006172433813802197201160900D+38550-089850SAO  +0138BLV  V0201301N002612200019N0112001N9-01981-02701104691ADDAA101000095GF100991999999999999999999MA1999999102811MW1001
006172433813802197201161000D+38550-089850SAO  +0138BLV  V0201401N003612200019N0112001N9-01981-02701104661ADDAA101000095GF100991999999999999999999MA1999999102741MW1001
006172433813802197201161100D+38550-089850SAO  +0138BLV  V0201301N002612200019N0112001N9-01981-02591104601ADDAA101000095GF100991999999999999999999MA1999999102681MW1001
006172433813802197201161200D+38550-089850SAO  +0138BLV  V0201501N003612200019N0112001N9-01921-02591104561ADDAA101000095GF100991999999999999999999MA1999999102681MW1001
006172433813802197201161300D+38550-089850SAO  +0138BLV  V0201501N004112200019N0112001N9-01921-02531104621ADDAA101000095GF100991999999999999999999MA1999999102711MW1001
006172433813802197201161400D+38550-089850SAO  +0138BLV  V0201501N004612200019N0112001N9-01871-02701104551ADDAA101000095GF108991999999999999999999MA1999999102641MW1001
006172433813802197201161500D+38550-089850SAO  +0138BLV  V0201701N005112200019N0112001N9-01701-02751104451ADDAA101000095GF108991999999999999999999MA1999999102641MW1001
006172433813802197201161600D+38550-089850SAO  +0138BLV  V0201501N006710210019N0112001N9-01531-02311104391ADDAA101000095GF108991999999999999999999MA1999999102511MW1001
006172433813802197201161700D+38550-089850SAO  +0138BLV  V0201501N008210210019N0112001N9-01371-02371104241ADDAA101000095GF108991999999999999999999MA1999999102371MW1001
006172433813802197201161800D+38550-089850SAO  +0138BLV  V0201701N007212200019N0112001N9-01091-02031104041ADDAA101000095GF108991999999999999999999MA1999999102241MW1001
006172433813802197201161900D+38550-089850SAO  +0138BLV  V0201601N008212200019N0112001N9-00921-01981103791ADDAA101000095GF107991999999999999999999MA1999999101961MW1001
006172433813802197201162000D+38550-089850SAO  +0138BLV  V0201601N008712200019N0112001N9-00761-01871103641ADDAA101000095GF107991999999999999999999MA1999999101831MW1001
006172433813802197201162100D+38550-089850SAO  +0138BLV  V0201701N011312200019N0112001N9-00651-01811103471ADDAA101000095GF107991999999999999999999MA1999999101661MW1001
006172433813802197201162200D+38550-089850SAO  +0138BLV  V0201601N010312200019N0112001N9-00591-01811103431ADDAA101000095GF107991999999999999999999MA1999999101631MW1001
006172433813802197201162300D+38550-089850SAO  +0138BLV  V0201601N009312200019N0112001N9-00651-01811103361ADDAA101000095GF102991999999999999999999MA1999999101561MW1001
006172433813802197201170000D+38550-089850SAO  +0138BLV  V0201701N009312200019N0112001N9-00701-01811103231ADDAA101000095GF102991999999999999999999MA1999999101461MW1001
006172433813802197201170100D+38550-089850SAO  +0138BLV  V0201701N009312200019N0112001N9-00701-01761103091ADDAA101000095GF102991999999999999999999MA1999999101291MW1001
006172433813802197201170200D+38550-089850SAO  +0138BLV  V0201801N007212200019N0112001N9-00701-01811102991ADDAA101000095GF102991999999999999999999MA1999999101191MW1001
006172433813802197201170300D+38550-089850SAO  +0138BLV  V0201801N008212200019N0112001N9-00701-01701102911ADDAA101000095GF102991999999999999999999MA1999999101121MW1001
006172433813802197201170400D+38550-089850SAO  +0138BLV  V0201801N008212200019N0112001N9-00651-01701102841ADDAA101000095GF102991999999999999999999MA1999999101051MW1001
006172433813802197201170500D+38550-089850SAO  +0138BLV  V0201801N007212200019N0112001N9-00651-01641102811ADDAA101000095GF102991999999999999999999MA1999999101021MW1001
006172433813802197201170600D+38550-089850SAO  +0138BLV  V0201801N006212200019N0112001N9-00651-01591102731ADDAA101000095GF100991999999999999999999MA1999999100951MW1001
006172433813802197201170700D+38550-089850SAO  +0138BLV  V0201801N005112200019N0112001N9-00651-01591102671ADDAA101000095GF100991999999999999999999MA1999999100881MW1001
006172433813802197201170800D+38550-089850SAO  +0138BLV  V0201801N005112200019N0112001N9-00651-01531102671ADDAA101000095GF100991999999999999999999MA1999999100881MW1001
006172433813802197201170900D+38550-089850SAO  +0138BLV  V0201801N006212200019N0112001N9-00591-01481102591ADDAA101000095GF100991999999999999999999MA1999999100811MW1001
006172433813802197201171000D+38550-089850SAO  +0138BLV  V0201701N005112200019N0112001N9-00591-01421102561ADDAA101000095GF100991999999999999999999MA1999999100781MW1001
006172433813802197201171100D+38550-089850SAO  +0138BLV  V0201701N004112200019N0112001N9-00591-01421102531ADDAA101000095GF100991999999999999999999MA1999999100751MW1001
006172433813802197201171200D+38550-089850SAO  +0138BLV  V0201701N004112200019N0112001N9-00591-01311102481ADDAA101000095GF100991999999999999999999MA1999999100711MW1001
006172433813802197201171300D+38550-089850SAO  +0138BLV  V0201701N005112200019N0112001N9-00531-01261102461ADDAA101000095GF100991999999999999999999MA1999999100681MW1001
006172433813802197201171400D+38550-089850SAO  +0138BLV  V0201701N005712200019N0112001N9-00481-01261102451ADDAA101000095GF100991999999999999999999MA1999999100681MW1001
006172433813802197201171500D+38550-089850SAO  +0138BLV  V0201801N007212200019N0112001N9-00261-01201102401ADDAA101000095GF100991999999999999999999MA1999999100641MW1001
006172433813802197201171600D+38550-089850SAO  +0138BLV  V0201801N007712200019N0112001N9-00041-01091102351ADDAA101000095GF102991999999999999999999MA1999999100611MW1001
006172433813802197201171700D+38550-089850SAO  +0138BLV  V0201801N007212200019N0112001N9+00191-00981102271ADDAA101000095GF102991999999999999999999MA1999999100541MW1001
006172433813802197201171800D+38550-089850SAO  +0138BLV  V0202001N008212200019N0112001N9+00411-00761102181ADDAA101000095GF102991999999999999999999MA1999999100441MW1001
006172433813802197201171900D+38550-089850SAO  +0138BLV  V0201901N007712200019N0112001N9+00631-00481101941ADDAA101000095GF102991999999999999999999MA1999999100241MW1001
006172433813802197201172000D+38550-089850SAO  +0138BLV  V0201901N010312200019N0112001N9+00741-00311101791ADDAA101000095GF102991999999999999999999MA1999999100101MW1001
006172433813802197201172100D+38550-089850SAO  +0138BLV  V0201901N008712200019N0112001N9+00631-00371101771ADDAA101000095GF100991999999999999999999MA1999999100031MW1001
006172433813802197201172200D+38550-089850SAO  +0138BLV  V0201801N011312200019N0112001N9+00581-00531101701ADDAA101000095GF100991999999999999999999MA1999999100001MW1001
006172433813802197201172300D+38550-089850SAO  +0138BLV  V0201801N010312200019N0112001N9+00411-00651101671ADDAA101000095GF100991999999999999999999MA1999999099971MW1001
006172433813802197201180000D+38550-089850SAO  +0138BLV  V0201801N010812200019N0112001N9+00351-00651101681ADDAA101000095GF100991999999999999999999MA1999999099931MW1001
006172433813802197201180100D+38550-089850SAO  +0138BLV  V0201801N007712200019N0112001N9+00301-00651101641ADDAA101000095GF100991999999999999999999MA1999999099931MW1001
006172433813802197201180200D+38550-089850SAO  +0138BLV  V0201801N007712200019N0112001N9+00301-00651101641ADDAA101000095GF100991999999999999999999MA1999999099931MW1001
006172433813802197201180300D+38550-089850SAO  +0138BLV  V0201801N006212200019N0112001N9+00301-00591101641ADDAA101000095GF100991999999999999999999MA1999999099901MW1001
006172433813802197201180400D+38550-089850SAO  +0138BLV  V0201801N006712200019N0112001N9+00351-00531101611ADDAA101000095GF100991999999999999999999MA1999999099901MW1001
006172433813802197201180500D+38550-089850SAO  +0138BLV  V0201901N006712200019N0112001N9+00411-00591101631ADDAA101000095GF107991999999999999999999MA1999999099931MW1001
006172433813802197201180600D+38550-089850SAO  +0138BLV  V0201801N006210120019N0112001N9+00411-00531101621ADDAA101000095GF108991999999999999999999MA1999999099901MW1001
006172433813802197201180700D+38550-089850SAO  +0138BLV  V0201801N005110120019N0112001N9+00521-00531101561ADDAA101000095GF108991999999999999999999MA1999999099861MW1001
006172433813802197201180800D+38550-089850SAO  +0138BLV  V0201801N006210120019N0112001N9+00631-00481101521ADDAA101000095GF108991999999999999999999MA1999999099831MW1001
006172433813802197201180900D+38550-089850SAO  +0138BLV  V0201701N007210114019N0112001N9+00631-00481101471ADDAA101000095GF108991999999999999999999MA1999999099761MW1001
006172433813802197201181000D+38550-089850SAO  +0138BLV  V0201701N006710114019N0112001N9+00631-00481101351ADDAA101000095GF108991999999999999999999MA1999999099661MW1001
006172433813802197201181100D+38550-089850SAO  +0138BLV  V0201701N006210114019N0112001N9+00631-00311101321ADDAA101000095GF108991999999999999999999MA1999999099631MW1001
006172433813802197201181200D+38550-089850SAO  +0138BLV  V0201701N007210114019N0112001N9+00631-00261101271ADDAA101000095GF108991999999999999999999MA1999999099561MW1001
006172433813802197201181300D+38550-089850SAO  +0138BLV  V0201701N006210120019N0112001N9+00581-00201101251ADDAA101000095GF108991999999999999999999MA1999999099561MW1001
006172433813802197201181400D+38550-089850SAO  +0138BLV  V0201701N005112200019N0112001N9+00631-00041101241ADDAA101000095GF108991999999999999999999MA1999999099561MW1001
006172433813802197201181500D+38550-089850SAO  +0138BLV  V0201701N006210105019N0112001N9+00741+00081101281ADDAA101000095GF108991999999999999999999MA1999999099561MW1001
006172433813802197201181600D+38550-089850SAO  +0138BLV  V0201701N009310105019N0112001N9+00851+00191101231ADDAA101000095GF108991999999999999999999MA1999999099561MW1001
006172433813802197201181700D+38550-089850SAO  +0138BLV  V0201701N009310120019N0112001N9+00911+00301101161ADDAA101000095GF108991999999999999999999MA1999999099491MW1001
006172433813802197201181800D+38550-089850SAO  +0138BLV  V0201701N007210120019N0112001N9+00961+00411101131ADDAA101000095GF108991999999999999999999MA1999999099421MW1001
006172433813802197201181900D+38550-089850SAO  +0138BLV  V0201801N006210054019N0112001N9+00961+00461100951ADDAA101000095GF108991999999999999999999MA1999999099291MW1001
006172433813802197201182000D+38550-089850SAO  +0138BLV  V0201801N008210060019N0112001N9+01071+00581100911ADDAA101000095GF107991999999999999999999MA1999999099261MW1001
006172433813802197201182100D+38550-089850SAO  +0138BLV  V0201801N007212200019N0112001N9+01191+00631100851ADDAA101000095GF100991999999999999999999MA1999999099151MW1001
006172433813802197201182200D+38550-089850SAO  +0138BLV  V0201901N007212200019N0112001N9+01191+00631100911ADDAA101000095GF102991999999999999999999MA1999999099261MW1001
006172433813802197201182300D+38550-089850SAO  +0138BLV  V0201901N005110075019N0112001N9+01071+00631101011ADDAA101000095GF108991999999999999999999MA1999999099361MW1001
006172433813802197201190000D+38550-089850SAO  +0138BLV  V0201801N005712200019N0112001N9+00961+00631101131ADDAA101000095GF102991999999999999999999MA1999999099421MW1001
006172433813802197201190100D+38550-089850SAO  +0138BLV  V0201901N006212200019N0112001N9+00911+00581101161ADDAA101000095GF107991999999999999999999MA1999999099491MW1001
006172433813802197201190200D+38550-089850SAO  +0138BLV  V0201801N005112200019N0112001N9+00961+00631101431ADDAA101000095GF108991999999999999999999MA1999999099631MW1001
006172433813802197201190300D+38550-089850SAO  +0138BLV  V0201901N003112200019N0112001N9+00801+00581101431ADDAA101000095GF107991999999999999999999MA1999999099731MW1001
006172433813802197201190400D+38550-089850SAO  +0138BLV  V0202701N003610090019N0112001N9+00801+00581101581ADDAA101000095GF108991999999999999999999MA1999999099901MW1001
006172433813802197201190500D+38550-089850SAO  +0138BLV  V0203301N001010135019N0112001N9+00961+00631101701ADDAA101000095GF108991999999999999999999MA1999999100031MW1001
006172433813802197201190600D+38550-089850SAO  +0138BLV  V0203501N003612200019N0112001N9+00801+00241101811ADDAA101000095GF108991999999999999999999MA1999999100101MW1001
006172433813802197201190700D+38550-089850SAO  +0138BLV  V0203501N003112200019N0112001N9+00461+00081101951ADDAA101000095GF108991999999999999999999MA1999999100241MW1001
006172433813802197201190800D+38550-089850SAO  +0138BLV  V0203601N002612200019N0112001N9+00191-00091102021ADDAA101000095GF108991999999999999999999MA1999999100301MW1001
006172433813802197201190900D+38550-089850SAO  +0138BLV  V0203601N004612200019N0112001N9+00241-00091102121ADDAA101000095GF108991999999999999999999MA1999999100411MW1001
006172433813802197201191000D+38550-089850SAO  +0138BLV  V0203601N002612200019N0112001N9+00081-00091102241ADDAA101000095GF100991999999999999999999MA1999999100511MW1001
006172433813802197201191100D+38550-089850SAO  +0138BLV  V0203501N002112200019N0112001N9-00041-00201102281ADDAA101000095GF102991999999999999999999MA1999999100541MW1001
006172433813802197201191200D+38550-089850SAO  +0138BLV  V0209991C000012200019N0112001N9+00081-00151102301ADDAA101000095GF107991999999999999999999MA1999999100581MW1001
006172433813802197201191300D+38550-089850SAO  +0138BLV  V0203601N002112200019N0112001N9+00021-00201102381ADDAA101000095GF102991999999999999999999MA1999999100641MW1001
006172433813802197201191400D+38550-089850SAO  +0138BLV  V0200301N001512200019N0112001N9+00021-00201102381ADDAA101000095GF102991999999999999999999MA1999999100641MW1001
006172433813802197201191500D+38550-089850SAO  +0138BLV  V0200401N003612200019N0112001N9+00131-00261102411ADDAA101000095GF107991999999999999999999MA1999999100681MW1001
006172433813802197201191600D+38550-089850SAO  +0138BLV  V0200601N003612200019N0112001N9+00301-00261102431ADDAA101000095GF107991999999999999999999MA1999999100711MW1001
007572433813802197201191700D+38550-089850SAO  +0138BLV  V0201201N003612200019N0112001N9+00441-00281999999ADDAA101000095GF107991999999999999999999MA1102401999999MW1001REMAWY005AC NE
006172433813802197201191800D+38550-089850SAO  +0138BLV  V0201201N004112200019N0112001N9+00691-00201102431ADDAA101000095GF108991999999999999999999MA1999999100711MW1001
006172433813802197201191900D+38550-089850SAO  +0138BLV  V0200901N002112200019N0112001N9+00851-00201102231ADDAA101000095GF108991999999999999999999MA1999999100541MW1001
005572433813802197201192000D+38550-089850SAO  +0138BLV  V0201201N004110330019N0112651N9+01001-00201999999ADDAA101000095GF107991999999999999999999MA1102101999999
006172433813802197201192100D+38550-089850SAO  +0138BLV  V0201201N005112200019N0112001N9+01071-00151102091ADDAA101000095GF102991999999999999999999MA1999999100371MW1001
006172433813802197201192200D+38550-089850SAO  +0138BLV  V0201101N004110750019N0112001N9+01071-00041102041ADDAA101000095GF107991999999999999999999MA1999999100371MW1001
006172433813802197201192300D+38550-089850SAO  +0138BLV  V0201101N002612200019N0112001N9+00961+00021102021ADDAA101000095GF100991999999999999999999MA1999999100341MW1001
006172433813802197201200000D+38550-089850SAO  +0138BLV  V0200201N001010114019N0112001N9+00851+00021102031ADDAA101000095GF108991999999999999999999MA1999999100301MW1001
006172433813802197201200100D+38550-089850SAO  +0138BLV  V0200601N001010114019N0112001N9+00851-00041101921ADDAA101000095GF108991999999999999999999MA1999999100241MW1001
006172433813802197201200200D+38550-089850SAO  +0138BLV  V0200601N003110096019N0112001N9+00801+00081101891ADDAA101000095GF108991999999999999999999MA1999999100201MW1001
006172433813802197201200300D+38550-089850SAO  +0138BLV  V0200701N002610066019N0112001N9+00741+00131101871ADDAA101000095GF108991999999999999999999MA1999999100171MW1001
006172433813802197201200400D+38550-089850SAO  +0138BLV  V0200901N001010018019N0112001N9+00741+00241101791ADDAA101000095GF108991999999999999999999MA1999999100101MW1001
006772433813802197201200500D+38550-089850SAO  +0138BLV  V0201301N001510006019N0048001N9+00741+00521101721ADDAA101000095GF108991999999999999999999MA1999999100031MW1451MW2511
010572433813802197201200600D+38550-089850SAO  +0138BLV  V0200901N000510003019N0000001N9+00701+00601101691ADDAA101000095AA206999999GF109991999999999999999999MA1101691100001MD1610171+9999MW1501EQDQ01  00002PRCP06
006772433813802197201200700D+38550-089850SAO  +0138BLV  V0209991C000010003019N0000001N9+00581+00521101591ADDAA101000095GF108991999999999999999999MA1999999099901MW1451MW2511
006772433813802197201200800D+38550-089850SAO  +0138BLV  V0209991C000010001519N0000001N9+00581+00461101551ADDAA101000095GF108991999999999999999999MA1999999099861MW1451MW2511
006772433813802197201200900D+38550-089850SAO  +0138BLV  V0201501N000510001519N0000001N9+00631+00521101521ADDAA101000095GF108991999999999999999999MA1999999099801MW1451MW2511
006772433813802197201201000D+38550-089850SAO  +0138BLV  V0209991C000010001519N0000001N9+00801+00691101441ADDAA101000095GF108991999999999999999999MA1999999099761MW1451MW2511
006772433813802197201201100D+38550-089850SAO  +0138BLV  V0201801N001010003019N0008001N9+00851+00741101371ADDAA101000095GF108991999999999999999999MA1999999099701MW1451MW2511
006772433813802197201201200D+38550-089850SAO  +0138BLV  V0202001N001010024019N0008001N9+00851+00741101401ADDAA101000095GF108991999999999999999999MA1999999099701MW1451MW2511
006172433813802197201201300D+38550-089850SAO  +0138BLV  V0209991C000010003019N0008001N9+00801+00691101411ADDAA101000095GF108991999999999999999999MA1999999099731MW1451
006172433813802197201201400D+38550-089850SAO  +0138BLV  V0209991C000010006019N0008001N9+00801+00741101441ADDAA101000095GF108991999999999999999999MA1999999099761MW1451
006172433813802197201201500D+38550-089850SAO  +0138BLV  V0209991C000010045019N0012001N9+00961+00851101501ADDAA101000095GF108991999999999999999999MA1999999099801MW1451
006172433813802197201201600D+38550-089850SAO  +0138BLV  V0209991C000010006019N0012001N9+01021+00911101471ADDAA101000095GF108991999999999999999999MA1999999099801MW1451
006172433813802197201201700D+38550-089850SAO  +0138BLV  V0209991C000010009019N0018001N9+01131+01071101561ADDAA101000095GF108991999999999999999999MA1999999099901MW1451
006172433813802197201201800D+38550-089850SAO  +0138BLV  V0203001N001510021019N0024001N9+01301+01191101521ADDAA101000095GF108991999999999999999999MA1999999099831MW1451
006172433813802197201201900D+38550-089850SAO  +0138BLV  V0203601N004110015019N0018001N9+00911+00911101501ADDAA101000095GF108991999999999999999999MA1999999099831MW1451
006172433813802197201202000D+38550-089850SAO  +0138BLV  V0200101N004110021019N0024001N9+00851+00691101511ADDAA101000095GF108991999999999999999999MA1999999099831MW1451
006772433813802197201202100D+38550-089850SAO  +0138BLV  V0200101N004110027019N0048001N9+00801+00521101591ADDAA101000095GF108991999999999999999999MA1999999099831MW1051MW2451
006772433813802197201202200D+38550-089850SAO  +0138BLV  V0203501N003610027019N0028001N9+00691+00411101661ADDAA101000095GF108991999999999999999999MA1999999099971MW1051MW2451
006772433813802197201202300D+38550-089850SAO  +0138BLV  V0200101N004110021019N0028001N9+00581+00301101771ADDAA101000095GF108991999999999999999999MA1999999100071MW1051MW2451
007372433813802197201210000D+38550-089850SAO  +0138BLV  V0203601N004610027019N0028001N9+00521+00241101811ADDAA101000095GF108991999999999999999999MA1999999100101MW1051MW2451MW3511
007372433813802197201210100D+38550-089850SAO  +0138BLV  V0203601N004110015019N0026001N9+00411+00191101951ADDAA101000095GF108991999999999999999999MA1999999100241MW1051MW2451MW3511
007372433813802197201210200D+38550-089850SAO  +0138BLV  V0203601N006210015019N0024001N9+00351+00131102011ADDAA101000095GF108991999999999999999999MA1999999100301MW1051MW2451MW3511
007372433813802197201210300D+38550-089850SAO  +0138BLV  V0203601N006210012019N0024001N9+00241+00081102071ADDAA101000095GF108991999999999999999999MA1999999100371MW1051MW2451MW3511
007372433813802197201210400D+38550-089850SAO  +0138BLV  V0203601N004610012019N0022001N9+00131-00041102141ADDAA101000095GF108991999999999999999999MA1999999100411MW1051MW2451MW3511
006772433813802197201210500D+38550-089850SAO  +0138BLV  V0203601N001010015019N0032001N9+00081-00091102171ADDAA101000095GF108991999999999999999999MA1999999100441MW1051MW2451
006772433813802197201210600D+38550-089850SAO  +0138BLV  V0200101N005110027019N0080001N9+00081-00151102161ADDAA101000095GF108991999999999999999999MA1999999100441MW1051MW2451
006172433813802197201210700D+38550-089850SAO  +0138BLV  V0200101N003610027019N0080001N9+00081-00151102171ADDAA101000095GF108991999999999999999999MA1999999100441MW1451
006172433813802197201210800D+38550-089850SAO  +0138BLV  V0203601N003610024019N0112001N9+00081-00201102171ADDAA101000095GF108991999999999999999999MA1999999100441MW1001
006772433813802197201210900D+38550-089850SAO  +0138BLV  V0200301N004610024019N0080001N9+00081-00151102131ADDAA101000095GF108991999999999999999999MA1999999100411MW1051MW2451
006772433813802197201211000D+38550-089850SAO  +0138BLV  V0200101N002610018019N0048001N9+00081-00151102101ADDAA101000095GF108991999999999999999999MA1999999100371MW1051MW2451
006772433813802197201211100D+38550-089850SAO  +0138BLV  V0200201N003110018019N0080001N9+00081-00201102071ADDAA101000095GF108991999999999999999999MA1999999100341MW1051MW2451
006772433813802197201211200D+38550-089850SAO  +0138BLV  V0200201N002610018019N0080001N9+00081-00201102091ADDAA101000095GF108991999999999999999999MA1999999100371MW1051MW2451
006772433813802197201211300D+38550-089850SAO  +0138BLV  V0200101N002610018019N0048001N9+00081-00151102101ADDAA101000095GF108991999999999999999999MA1999999100371MW1051MW2451
006172433813802197201211400D+38550-089850SAO  +0138BLV  V0200301N002110015019N0048001N9+00081-00151102101ADDAA101000095GF108991999999999999999999MA1999999100371MW1451
006172433813802197201211500D+38550-089850SAO  +0138BLV  V0200601N002610006019N0008001N9+00081-00041102041ADDAA101000095GF108991999999999999999999MA1999999100301MW1451
006172433813802197201211600D+38550-089850SAO  +0138BLV  V0200501N001510006019N0008001N9+00081-00041102031ADDAA101000095GF108991999999999999999999MA1999999100301MW1451
006772433813802197201211700D+38550-089850SAO  +0138BLV  V0200601N003610006019N0016001N9+00081-00041101971ADDAA101000095GF108991999999999999999999MA1999999100241MW1451MW2511
006772433813802197201211800D+38550-089850SAO  +0138BLV  V0200901N001010009019N0016001N9+00131-00041101881ADDAA101000095GF108991999999999999999999MA1999999100171MW1451MW2511
006772433813802197201211900D+38550-089850SAO  +0138BLV  V0200901N001510006019N0008001N9+00131-00041101691ADDAA101000095GF108991999999999999999999MA1999999099971MW1451MW2511
006172433813802197201212000D+38550-089850SAO  +0138BLV  V0201201N001010009019N0012001N9+00191+00081101551ADDAA101000095GF108991999999999999999999MA1999999099831MW1451
006172433813802197201212100D+38550-089850SAO  +0138BLV  V0201001N001510009019N0008001N9+00241+00131101491ADDAA101000095GF108991999999999999999999MA1999999099761MW1451
006172433813802197201212200D+38550-089850SAO  +0138BLV  V0201401N002110006019N0008001N9+00301+00131101441ADDAA101000095GF108991999999999999999999MA1999999099731MW1451
006172433813802197201212300D+38550-089850SAO  +0138BLV  V0201401N002110003019N0004001N9+00301+00191101341ADDAA101000095GF108991999999999999999999MA1999999099631MW1451
006172433813802197201220000D+38550-089850SAO  +0138BLV  V0201301N001010003019N0004001N9+00301+00191101281ADDAA101000095GF108991999999999999999999MA1999999099561MW1451
006772433813802197201220100D+38550-089850SAO  +0138BLV  V0201701N001510006019N0003001N9+00351+00191101261ADDAA101000095GF108991999999999999999999MA1999999099561MW1451MW2511
006172433813802197201220200D+38550-089850SAO  +0138BLV  V0201601N001010003019N0002001N9+00351+00241101231ADDAA101000095GF108991999999999999999999MA1999999099531MW1451
006772433813802197201220300D+38550-089850SAO  +0138BLV  V0201701N001510003019N0003001N9+00411+00301101211ADDAA101000095GF108991999999999999999999MA1999999099491MW1451MW2511
006172433813802197201220400D+38550-089850SAO  +0138BLV  V0201601N001010003019N0005001N9+00411+00241101091ADDAA101000095GF108991999999999999999999MA1999999099391MW1451
006172433813802197201220500D+38550-089850SAO  +0138BLV  V0201501N003110003019N0004001N9+00411+00351100951ADDAA101000095GF108991999999999999999999MA1999999099261MW1451
011672433813802197201220600D+38550-089850SAO  +0138BLV  V0201701N001010003019N0005001N9+00441+00331100931ADDAA101000095AA206999929GF108991999999999999999999MA1100911099221MD1610271+9999MW1451REMAWY021R31VR18/62700 WET RWY
006172433813802197201220700D+38550-089850SAO  +0138BLV  V0201701N002110009019N0008001N9+00461+00351100841ADDAA101000095GF108991999999999999999999MA1999999099151MW1451
006172433813802197201220800D+38550-089850SAO  +0138BLV  V0201901N003110009019N0004001N9+00581+00461100701ADDAA101000095GF108991999999999999999999MA1999999099021MW1451
006172433813802197201220900D+38550-089850SAO  +0138BLV  V0209991C000010006019N0002001N9+00631+00461100641ADDAA101000095GF108991999999999999999999MA1999999098981MW1451
006172433813802197201221000D+38550-089850SAO  +0138BLV  V0201801N002610006019N0006001N9+00691+00581100551ADDAA101000095GF108991999999999999999999MA1999999098881MW1451
006172433813802197201221100D+38550-089850SAO  +0138BLV  V0201801N005110006019N0012001N9+00851+00741100411ADDAA101000095GF108991999999999999999999MA1999999098751MW1451
006172433813802197201221200D+38550-089850SAO  +0138BLV  V0201901N005110006019N0040001N9+00911+00801100501ADDAA101000095GF108991999999999999999999MA1999999098851MW1451
006172433813802197201221300D+38550-089850SAO  +0138BLV  V0201901N003110012019N0040001N9+00911+00741100511ADDAA101000095GF108991999999999999999999MA1999999098851MW1451
006172433813802197201221400D+38550-089850SAO  +0138BLV  V0202001N004610048019N0112001N9+00961+00801100501ADDAA101000095GF108991999999999999999999MA1999999098851MW1001
006172433813802197201221500D+38550-089850SAO  +0138BLV  V0202201N004110060019N0112001N9+01021+00741100591ADDAA101000095GF108991999999999999999999MA1999999098921MW1001
006172433813802197201221600D+38550-089850SAO  +0138BLV  V0202301N003110072019N0112001N9+01021+00741100631ADDAA101000095GF108991999999999999999999MA1999999098981MW1001
006172433813802197201221700D+38550-089850SAO  +0138BLV  V0202801N004610072019N0112001N9+01071+00631100631ADDAA101000095GF108991999999999999999999MA1999999098981MW1001
006172433813802197201221800D+38550-089850SAO  +0138BLV  V0202701N005110072019N0112001N9+01071+00521100621ADDAA101000095GF108991999999999999999999MA1999999098951MW1001
006172433813802197201221900D+38550-089850SAO  +0138BLV  V0202801N004610072019N0112001N9+01021+00521100601ADDAA101000095GF108991999999999999999999MA1999999098951MW1001
006172433813802197201222000D+38550-089850SAO  +0138BLV  V0202701N004610072019N0112001N9+01021+00461100631ADDAA101000095GF108991999999999999999999MA1999999098981MW1001
006172433813802197201222100D+38550-089850SAO  +0138BLV  V0202801N004110750019N0112001N9+01021+00411100651ADDAA101000095GF108991999999999999999999MA1999999098981MW1001
006172433813802197201222200D+38550-089850SAO  +0138BLV  V0202901N003610750019N0112001N9+00961+00351100711ADDAA101000095GF108991999999999999999999MA1999999099051MW1001
006172433813802197201222300D+38550-089850SAO  +0138BLV  V0203001N002610750019N0112001N9+00851+00351100781ADDAA101000095GF108991999999999999999999MA1999999099121MW1001
006172433813802197201230000D+38550-089850SAO  +0138BLV  V0202901N002110090019N0112001N9+00801+00301100851ADDAA101000095GF108991999999999999999999MA1999999099151MW1001
005572433813802197201230100D+38550-089850SAO  +0138BLV  V0209991C000010510019N0112651N9+00601+00301999999ADDAA101000095GF108991999999999999999999MA1100881999999
005572433813802197201230200D+38550-089850SAO  +0138BLV  V0209991C000010420019N0112651N9+00601+00301999999ADDAA101000095GF108991999999999999999999MA1100881999999
005572433813802197201230300D+38550-089850SAO  +0138BLV  V0209991C000010450019N0112651N9+00401+00201100931ADDAA101000095GF108991999999999999999999MA1100881099241
005572433813802197201230400D+38550-089850SAO  +0138BLV  V0209991C000010300019N0112651N9+00401+00301999999ADDAA101000095GF108991999999999999999999MA1100881999999
005572433813802197201230500D+38550-089850SAO  +0138BLV  V0209991C000010300019N0112651N9+00401+00201999999ADDAA101000095GF108991999999999999999999MA1100981999999
006172433813802197201230600D+38550-089850SAO  +0138BLV  V0209991C000010300019N0112001N9+00461+00301100991ADDAA101000095GF108991999999999999999999MA1999999099291MW1001
006172433813802197201230700D+38550-089850SAO  +0138BLV  V0200901N002110300019N0096001N9+00351+00191100891ADDAA101000095GF108991999999999999999999MA1999999099191MW1051
006172433813802197201230800D+38550-089850SAO  +0138BLV  V0209991C000010270019N0096001N9+00461+00241100841ADDAA101000095GF108991999999999999999999MA1999999099151MW1051
006172433813802197201230900D+38550-089850SAO  +0138BLV  V0209991C000010270019N0064001N9+00461+00241100921ADDAA101000095GF108991999999999999999999MA1999999099261MW1051
006172433813802197201231000D+38550-089850SAO  +0138BLV  V0209991C000010270019N0064001N9+00461+00241100881ADDAA101000095GF108991999999999999999999MA1999999099191MW1051
006772433813802197201231100D+38550-089850SAO  +0138BLV  V0201001N003110270019N0064001N9+00411+00241100741ADDAA101000095GF108991999999999999999999MA1999999099051MW1051MW2111
006772433813802197201231200D+38550-089850SAO  +0138BLV  V0200801N001010300019N0064001N9+00411+00241100791ADDAA101000095GF108991999999999999999999MA1999999099121MW1051MW2451
006172433813802197201231300D+38550-089850SAO  +0138BLV  V0201201N001010240019N0032001N9+00461+00241100841ADDAA101000095GF108991999999999999999999MA1999999099151MW1111
006172433813802197201231400D+38550-089850SAO  +0138BLV  V0200601N002110036019N0032001N9+00461+00301100841ADDAA101000095GF108991999999999999999999MA1999999099151MW1111
006772433813802197201231500D+38550-089850SAO  +0138BLV  V0200901N001510030019N0024001N9+00521+00351100751ADDAA101000095GF108991999999999999999999MA1999999099091MW1111MW2511
006772433813802197201231600D+38550-089850SAO  +0138BLV  V0200801N001010027019N0024001N9+00581+00411100801ADDAA101000095GF108991999999999999999999MA1999999099121MW1111MW2511
006772433813802197201231700D+38550-089850SAO  +0138BLV  V0209991C000010030019N0020001N9+00631+00461100831ADDAA101000095GF108991999999999999999999MA1999999099151MW1111MW2511
006772433813802197201231800D+38550-089850SAO  +0138BLV  V0201301N001510012019N0020001N9+00741+00521100741ADDAA101000095GF108991999999999999999999MA1999999099091MW1111MW2511
006172433813802197201231900D+38550-089850SAO  +0138BLV  V0202001N001010750019N0096001N9+00961+00691100641ADDAA101000095GF107991999999999999999999MA1999999098981MW1051
004672433813802197201232000D+38550-089850SAO  +0138BLV  V0202601N002610075019N0096001N9+01131+00631999999ADDAA101000095GF108991999999999999999999MW1051
005572433813802197201232100D+38550-089850SAO  +0138BLV  V0203301N004110060019N0112651N9+01101+00601100711ADDAA101000095GF108991999999999999999999MA1100681099061
006172433813802197201232200D+38550-089850SAO  +0138BLV  V0203301N004110090019N0112001N9+01071+00581100801ADDAA101000095GF108991999999999999999999MA1999999099151MW1001
006172433813802197201232300D+38550-089850SAO  +0138BLV  V0203601N003610240019N0112001N9+00961+00581100851ADDAA101000095GF107991999999999999999999MA1999999099191MW1001
006172433813802197201240000D+38550-089850SAO  +0138BLV  V0200201N003612200019N0112001N9+00801+00461100971ADDAA101000095GF108991999999999999999999MA1999999099261MW1001
006172433813802197201240100D+38550-089850SAO  +0138BLV  V0200301N003112200019N0112001N9+00741+00461101031ADDAA101000095GF108991999999999999999999MA1999999099361MW1001
006772433813802197201240200D+38550-089850SAO  +0138BLV  V0200101N003110036019N0064001N9+00631+00411101101ADDAA101000095GF108991999999999999999999MA1999999099421MW1051MW2451
006772433813802197201240300D+38550-089850SAO  +0138BLV  V0200201N004110105019N0080001N9+00631+00411101131ADDAA101000095GF108991999999999999999999MA1999999099421MW1051MW2451
006172433813802197201240400D+38550-089850SAO  +0138BLV  V0200401N003110012019N0040001N9+00631+00461101141ADDAA101000095GF108991999999999999999999MA1999999099461MW1451
006172433813802197201240500D+38550-089850SAO  +0138BLV  V0200601N002110012019N0048001N9+00631+00461101141ADDAA101000095GF108991999999999999999999MA1999999099461MW1451
006172433813802197201240600D+38550-089850SAO  +0138BLV  V0200801N003110009019N0040001N9+00631+00411101131ADDAA101000095GF108991999999999999999999MA1999999099421MW1451
006172433813802197201240700D+38550-089850SAO  +0138BLV  V0200601N003110009019N0040001N9+00581+00411100941ADDAA101000095GF108991999999999999999999MA1999999099261MW1451
006172433813802197201240800D+38550-089850SAO  +0138BLV  V0200901N005110001519N0016001N9+00521+00351100871ADDAA101000095GF108991999999999999999999MA1999999099191MW1451
006172433813802197201240900D+38550-089850SAO  +0138BLV  V0200901N005110012019N0040001N9+00631+00461100851ADDAA101000095GF108991999999999999999999MA1999999099151MW1451
006172433813802197201241000D+38550-089850SAO  +0138BLV  V0201101N005110012019N0040001N9+00631+00461100731ADDAA101000095GF108991999999999999999999MA1999999099051MW1451
006172433813802197201241100D+38550-089850SAO  +0138BLV  V0200901N004110015019N0064001N9+00691+00461100621ADDAA101000095GF108991999999999999999999MA1999999098951MW1451
006772433813802197201241200D+38550-089850SAO  +0138BLV  V0201201N005110009019N0028001N9+00691+00521100511ADDAA101000095GF108991999999999999999999MA1999999098851MW1451MW2511
006772433813802197201241300D+38550-089850SAO  +0138BLV  V0201101N005710006019N0018001N9+00691+00581100271ADDAA101000095GF108991999999999999999999MA1999999098611MW1451MW2511
006772433813802197201241400D+38550-089850SAO  +0138BLV  V0201201N005110003019N0012001N9+00741+00631100141ADDAA101000095GF108991999999999999999999MA1999999098481MW1451MW2511
006772433813802197201241500D+38550-089850SAO  +0138BLV  V0201401N005110003019N0016001N9+01021+00911100021ADDAA101000095GF108991999999999999999999MA1999999098341MW1451MW2511
006172433813802197201241600D+38550-089850SAO  +0138BLV  V0201701N005110024019N0032001N9+01301+01131099931ADDAA101000095GF108991999999999999999999MA1999999098311MW1451
006172433813802197201241700D+38550-089850SAO  +0138BLV  V0201901N008210750019N0112001N9+01721+01331099741ADDAA101000095GF108991999999999999999999MA1999999098141MW1001
006172433813802197201241800D+38550-089850SAO  +0138BLV  V0202001N011812200019N0112001N9+01961+01241099791ADDAA101000095GF102991999999999999999999MA1999999098141MW1001
006972433813802197201241900D+38550-089850SAO  +0138BLV  V0202201N010312200019N0112001N9+02111+01001999999ADDAA101000095GF102991999999999999999999MA1099801999999MW1001OC101541
006172433813802197201242000D+38550-089850SAO  +0138BLV  V0202201N008212200019N0112001N9+02241+00851099781ADDAA101000095GF102991999999999999999999MA1999999098211MW1001
006172433813802197201242100D+38550-089850SAO  +0138BLV  V0202801N014412200019N0112001N9+01411+00351100281ADDAA101000095GF102991999999999999999999MA1999999098611MW1001
006172433813802197201242200D+38550-089850SAO  +0138BLV  V0202801N013412200019N0112001N9+01131+00301100631ADDAA101000095GF102991999999999999999999MA1999999098981MW1001
006172433813802197201242300D+38550-089850SAO  +0138BLV  V0202701N010312200019N0112001N9+00911+00131100921ADDAA101000095GF102991999999999999999999MA1999999099261MW1001
006172433813802197201250000D+38550-089850SAO  +0138BLV  V0202801N010310090019N0112001N9+00801-00041101301ADDAA101000095GF108991999999999999999999MA1999999099561MW1001
006172433813802197201250100D+38550-089850SAO  +0138BLV  V0202801N010310114019N0112001N9+00521-00311101501ADDAA101000095GF107991999999999999999999MA1999999099801MW1001
006172433813802197201250200D+38550-089850SAO  +0138BLV  V0203101N007212200019N0112001N9+00301-00371101781ADDAA101000095GF102991999999999999999999MA1999999100071MW1001
006172433813802197201250300D+38550-089850SAO  +0138BLV  V0203001N008212200019N0112001N9+00081-00761101961ADDAA101000095GF100991999999999999999999MA1999999100241MW1001
006172433813802197201250400D+38550-089850SAO  +0138BLV  V0203001N014412200019N0112001N9-00261-01261102271ADDAA101000095GF100991999999999999999999MA1999999100511MW1001
006172433813802197201250500D+38550-089850SAO  +0138BLV  V0203101N009312200019N0112001N9-00371-01151102481ADDAA101000095GF100991999999999999999999MA1999999100711MW1001
006172433813802197201250600D+38550-089850SAO  +0138BLV  V0203101N010312200019N0112001N9-00481-01311102541ADDAA101000095GF100991999999999999999999MA1999999100811MW1001
006172433813802197201250700D+38550-089850SAO  +0138BLV  V0203001N009312200019N0112001N9-00591-01421102841ADDAA101000095GF100991999999999999999999MA1999999101051MW1001
006172433813802197201250800D+38550-089850SAO  +0138BLV  V0203001N006712200019N0112001N9-00651-01481103091ADDAA101000095GF100991999999999999999999MA1999999101291MW1001
006172433813802197201250900D+38550-089850SAO  +0138BLV  V0203001N008212200019N0112001N9-00761-01641103241ADDAA101000095GF100991999999999999999999MA1999999101521MW1001
006172433813802197201251000D+38550-089850SAO  +0138BLV  V0203201N006212200019N0112001N9-00871-01701103451ADDAA101000095GF100991999999999999999999MA1999999101631MW1001
006172433813802197201251100D+38550-089850SAO  +0138BLV  V0203201N007212200019N0112001N9-00921-01871103481ADDAA101000095GF100991999999999999999999MA1999999101661MW1001
006172433813802197201251200D+38550-089850SAO  +0138BLV  V0203401N006212200019N0112001N9-01031-01811103561ADDAA101000095GF100991999999999999999999MA1999999101831MW1001
006172433813802197201251300D+38550-089850SAO  +0138BLV  V0203101N005112200019N0112001N9-01031-01871103841ADDAA101000095GF100991999999999999999999MA1999999102001MW1001
006172433813802197201251400D+38550-089850SAO  +0138BLV  V0203201N004612200019N0112001N9-01031-01921104041ADDAA101000095GF100991999999999999999999MA1999999102201MW1001
006172433813802197201251500D+38550-089850SAO  +0138BLV  V0203401N007212200019N0112001N9-00981-02141104021ADDAA101000095GF100991999999999999999999MA1999999102241MW1001
006172433813802197201251600D+38550-089850SAO  +0138BLV  V0203601N003112200019N0112001N9-00921-02261104201ADDAA101000095GF100991999999999999999999MA1999999102371MW1001
