008672458603919197301010000D+38800-097650SAO  +0391SLN  V0203101N002512200019N0110001N9-00101-00601102111ADDAA101000095AA206000091GF100991999999999999999999MA1102001999999MD1110141+9999MW1001
007272458603919197301010100D+38800-097650SAO  +0391SLN  V0202401N002512200019N0110001N9-00301-00701102251ADDAA101000095AA206000091GF100991999999999999999999MA1102101999999MW1001
007272458603919197301010200D+38800-097650SAO  +0391SLN  V0202601N003012200019N0110001N9-00301-00601102351ADDAA101000095AA206000091GF100991999999999999999999MA1102171999999MW1001
008672458603919197301010300D+38800-097650SAO  +0391SLN  V0202001N002512200019N0110001N9-00401-00601102431ADDAA101000095AA206000091GF100991999999999999999999MA1102271999999MD1210291+9999MW1001
007272458603919197301010400D+38800-097650SAO  +0391SLN  V0202101N002512200019N0110001N9-00401-00701102481ADDAA101000095AA206000091GF100991999999999999999999MA1102271999999MW1001
007272458603919197301010500D+38800-097650SAO  +0391SLN  V0209991C000012200019N0110001N9-00401-00701102571ADDAA101000095AA206000091GF100991999999999999999999MA1102371999999MW1001
008672458603919197301010600D+38800-097650SAO  +0391SLN  V0209991C000012200019N0110001N9-00501-00701102611ADDAA101000095AA206000091GF100991999999999999999999MA1102371999999MD1210171+9999MW1001
007272458603919197301010700D+38800-097650SAO  +0391SLN  V0202401N001512200019N0140001N9-00501-00801102641ADDAA101000095AA206000091GF100991999999999999999999MA1102471999999MW1001
007272458603919197301010800D+38800-097650SAO  +0391SLN  V0209991C000012200019N0140001N9-00501-00801102631ADDAA101000095AA206000091GF100991999999999999999999MA1102471999999MW1001
008672458603919197301010900D+38800-097650SAO  +0391SLN  V0209991C000012200019N0140001N9-00601-00701102741ADDAA101000095AA206000091GF100991999999999999999999MA1102571999999MD1210141+9999MW1001
007272458603919197301011000D+38800-097650SAO  +0391SLN  V0203601N005112200019N0140001N9-00401-00701102791ADDAA101000095AA206000091GF100991999999999999999999MA1102571999999MW1001
007272458603919197301011100D+38800-097650SAO  +0391SLN  V0203401N001512200019N0140001N9-00501-00801102831ADDAA101000095AA206000091GF100991999999999999999999MA1102681999999MW1001
008672458603919197301011200D+38800-097650SAO  +0391SLN  V0203101N003012200019N0140001N9-00601-00801102971ADDAA101000095AA206000091GF100991999999999999999999MA1102781999999MD1210201+9999MW1001
007272458603919197301011300D+38800-097650SAO  +0391SLN  V0203301N002012200019N0140001N9-00601-00901103111ADDAA101000095AA206000091GF100991999999999999999999MA1102881999999MW1001
007272458603919197301011400D+38800-097650SAO  +0391SLN  V0203201N003612200019N0140001N9-00701-00901103191ADDAA101000095AA206000091GF102991999999999999999999MA1102981999999MW1021
008672458603919197301011500D+38800-097650SAO  +0391SLN  V0203101N002512200019N0140001N9-00601-01101103271ADDAA101000095AA206000091GF102991999999999999999999MA1103081999999MD1110271+9999MW1021
007272458603919197301011600D+38800-097650SAO  +0391SLN  V0203301N005112200019N0140001N9-00601-01001103381ADDAA101000095AA206000091GF102991999999999999999999MA1103181999999MW1021
007272458603919197301011700D+38800-097650SAO  +0391SLN  V0203301N005112200019N0140001N9-00401-00901103411ADDAA101000095AA206000091GF100991999999999999999999MA1103181999999MW1001
008672458603919197301011800D+38800-097650SAO  +0391SLN  V0203501N006119999999N0140001N9-00301-00801103291ADDAA101000095AA206000091GF107991999999999999999999MA1103081999999MD1010031+9999MW1021
007272458603919197301011900D+38800-097650SAO  +0391SLN  V0203201N005119999999N0140001N9-00201-00801103181ADDAA101000095AA206000091GF107991999999999999999999MA1102981999999MW1021
007272458603919197301012000D+38800-097650SAO  +0391SLN  V0203601N005119999999N0140001N9-00201-00801103141ADDAA101000095AA206000091GF107991999999999999999999MA1102981999999MW1021
008672458603919197301012100D+38800-097650SAO  +0391SLN  V0203301N004112200019N0140001N9-00201-00701103111ADDAA101000095AA206000091GF102991999999999999999999MA1102881999999MD1610171+9999MW1021
007272458603919197301012200D+38800-097650SAO  +0391SLN  V0203301N005112200019N0140001N9-00101-00801103081ADDAA101000095AA206000091GF102991999999999999999999MA1102881999999MW1021
007272458603919197301012300D+38800-097650SAO  +0391SLN  V0203501N002512200019N0140001N9-00201-00801103091ADDAA101000095AA206000091GF102991999999999999999999MA1102881999999MW1021
008672458603919197301020000D+38800-097650SAO  +0391SLN  V0209991C000012200019N0140001N9-00401-00901103151ADDAA101000095AA206000091GF100991999999999999999999MA1102881999999MD1410001+9999MW1001
007272458603919197301020100D+38800-097650SAO  +0391SLN  V0209991C000012200019N0140001N9-00601-00801103191ADDAA101000095AA206000091GF100991999999999999999999MA1102981999999MW1001
007272458603919197301020200D+38800-097650SAO  +0391SLN  V0209991C000012200019N0140001N9-00601-00901103191ADDAA101000095AA206000091GF100991999999999999999999MA1102981999999MW1001
008672458603919197301020300D+38800-097650SAO  +0391SLN  V0209991C000012200019N0140001N9-00601-00801103141ADDAA101000095AA206000091GF100991999999999999999999MA1102881999999MD1010001+9999MW1001
007272458603919197301020400D+38800-097650SAO  +0391SLN  V0209991C000012200019N0140001N9-00601-00701103111ADDAA101000095AA206000091GF100991999999999999999999MA1102881999999MW1001
007272458603919197301020500D+38800-097650SAO  +0391SLN  V0209991C000012200019N0140001N9-00701-00801103081ADDAA101000095AA206000091GF100991999999999999999999MA1102881999999MW1001
008672458603919197301020600D+38800-097650SAO  +0391SLN  V0209991C000012200019N0140001N9-00701-00801103041ADDAA101000095AA206000091GF100991999999999999999999MA1102781999999MD1710051+9999MW1001
007272458603919197301020700D+38800-097650SAO  +0391SLN  V0202001N002012200019N0140001N9-00701-00801103001ADDAA101000095AA206000091GF100991999999999999999999MA1102781999999MW1001
007272458603919197301020800D+38800-097650SAO  +0391SLN  V0201901N002512200019N0140001N9-00601-00801102921ADDAA101000095AA206000091GF100991999999999999999999MA1102681999999MW1001
008672458603919197301020900D+38800-097650SAO  +0391SLN  V0209991C000012200019N0140001N9-00701-00801102851ADDAA101000095AA206000091GF100991999999999999999999MA1102681999999MD1810171+9999MW1001
007272458603919197301021000D+38800-097650SAO  +0391SLN  V0209991C000012200019N0140001N9-00701-00901102771ADDAA101000095AA206000091GF100991999999999999999999MA1102571999999MW1001
007272458603919197301021100D+38800-097650SAO  +0391SLN  V0201601N003012200019N0140001N9-00701-00801102631ADDAA101000095AA206000091GF100991999999999999999999MA1102471999999MW1001
008672458603919197301021200D+38800-097650SAO  +0391SLN  V0201701N002512200019N0140001N9-00601-00801102661ADDAA101000095AA206000091GF100991999999999999999999MA1102471999999MD1710191+9999MW1001
007272458603919197301021300D+38800-097650SAO  +0391SLN  V0201701N003012200019N0140001N9-00601-00801102631ADDAA101000095AA206000091GF100991999999999999999999MA1102371999999MW1001
007272458603919197301021400D+38800-097650SAO  +0391SLN  V0209991C000012200019N0110001N9-00701-01001102721ADDAA101000095AA206000091GF100991999999999999999999MA1102471999999MW1001
008672458603919197301021500D+38800-097650SAO  +0391SLN  V0201701N003612200019N0110001N9-00401-00701102741ADDAA101000095AA206000091GF100991999999999999999999MA1102471999999MD1310071+9999MW1001
007272458603919197301021600D+38800-097650SAO  +0391SLN  V0201801N005112200019N0110001N9-00201-00701102721ADDAA101000095AA206000091GF100991999999999999999999MA1102471999999MW1001
007272458603919197301021700D+38800-097650SAO  +0391SLN  V0201801N006119999999N0110001N9-00101-00801102661ADDAA101000095AA206000091GF107991999999999999999999MA1102471999999MW1021
008672458603919197301021800D+38800-097650SAO  +0391SLN  V0201701N006119999999N0110001N9+00001-00701102521ADDAA101000095AA206000091GF108991999999999999999999MA1102271999999MD1810201+9999MW1021
007272458603919197301021900D+38800-097650SAO  +0391SLN  V0201801N005619999999N0110001N9+00101-00601102411ADDAA101000095AA206000091GF107991999999999999999999MA1102171999999MW1021
007272458603919197301022000D+38800-097650SAO  +0391SLN  V0201701N006719999999N0110001N9+00201-00701102221ADDAA101000095AA206000091GF107991999999999999999999MA1102101999999MW1021
008672458603919197301022100D+38800-097650SAO  +0391SLN  V0201801N006712200019N0110001N9+00301-00601102121ADDAA101000095AA206000091GF102991999999999999999999MA1102001999999MD1710361+9999MW1021
007272458603919197301022200D+38800-097650SAO  +0391SLN  V0201601N006119999999N0110001N9+00201-00601101971ADDAA101000095AA206000091GF107991999999999999999999MA1101801999999MW1021
007272458603919197301022300D+38800-097650SAO  +0391SLN  V0201601N005119999999N0110001N9+00201-00401101961ADDAA101000095AA206000091GF108991999999999999999999MA1101801999999MW1021
008672458603919197301030000D+38800-097650SAO  +0391SLN  V0201801N006119999999N0110001N9+00101-00401101921ADDAA101000095AA206000091GF108991999999999999999999MA1101801999999MD1610191+9999MW1021
009172458603919197301030100D+38800-097650SAO  +0391SLN  V0201801N004119999999N0110001N9+00101-00101101921ADDAA101000095AA206999999GF108991999999999999999999MA1101801999999MW1771EQDQ01  00002PRCP06
009172458603919197301030200D+38800-097650SAO  +0391SLN  V0201401N006119999999N0110001N9+00001-00301101831ADDAA101000095AA206999999GF108991999999999999999999MA1101691999999MW1771EQDQ01  00002PRCP06
010572458603919197301030300D+38800-097650SAO  +0391SLN  V0201401N004119999999N0060001N9+00001-00301101761ADDAA101000396AA206999999GF109991999999999999999999MA1101591999999MD1810171+9999MW1791EQDQ01  00002PRCP06
009172458603919197301030400D+38800-097650SAO  +0391SLN  V0201301N004119999999N0060001N9-00101-00201101661ADDAA101001396AA206999999GF109991999999999999999999MA1101491999999MW1791EQDQ01  00002PRCP06
009172458603919197301030500D+38800-097650SAO  +0391SLN  V0201301N005119999999N0048001N9-00101-00101101591ADDAA101001396AA206999999GF109991999999999999999999MA1101491999999MW1791EQDQ01  00002PRCP06
008872458603919197301030600D+38800-097650SAO  +0391SLN  V0201401N005119999999N0110001N9+00001-00201101481ADDAA101000095AA206000091GA1021+005409049GF108991999999999999999999MA1101391999999MW1021
007272458603919197301030700D+38800-097650SAO  +0391SLN  V0201101N005119999999N0110001N9+00001-00201101251ADDAA101000095AA206000091GF108991999999999999999999MA1101191999999MW1021
009172458603919197301030800D+38800-097650SAO  +0391SLN  V0201601N003619999999N0110001N9+00001-00201101251ADDAA101000396AA206999999GF108991999999999999999999MA1101191999999MW1501EQDQ01  00002PRCP06
008672458603919197301030900D+38800-097650SAO  +0391SLN  V0209991C000019999999N0110001N9+00001-00101101181ADDAA101000095AA206000091GF108991999999999999999999MA1101081999999MD1710271+9999MW1021
009172458603919197301031000D+38800-097650SAO  +0391SLN  V0201001N002519999999N0110001N9+00001-00201101071ADDAA101000095AA206999999GF108991999999999999999999MA1100881999999MW1501EQDQ01  00002PRCP06
009172458603919197301031100D+38800-097650SAO  +0391SLN  V0201201N002519999999N0080001N9-00101-00101101001ADDAA101000396AA206999999GF108991999999999999999999MA1100881999999MW1501EQDQ01  00002PRCP06
012172458603919197301031200D+38800-097650SAO  +0391SLN  V0201001N002519999999N0060001N9-00101-00101100891ADDAA101000596AA206999999GF109991999999999999999999MA1100781999999MD1710271+9999MW1791EQDQ01  00003PRCP99Q02  00002PRCP06
009172458603919197301031300D+38800-097650SAO  +0391SLN  V0200501N002519999999N0008001N9-00101-00101100751ADDAA101001596AA206999999GF109991999999999999999999MA1100581999999MW1731EQDQ01  00002PRCP06
009172458603919197301031400D+38800-097650SAO  +0391SLN  V0209991C000019999999N0008001N9-00101-00101100791ADDAA101002396AA206999999GF109991999999999999999999MA1100681999999MW1731EQDQ01  00002PRCP06
009172458603919197301031500D+38800-097650SAO  +0391SLN  V0203201N002019999999N0012001N9-00101-00201100691ADDAA101000596AA206999999GF109991999999999999999999MA1100581999999MW1711EQDQ01  00002PRCP06
009172458603919197301031600D+38800-097650SAO  +0391SLN  V0203301N002019999999N0012001N9-00101-00101100791ADDAA101000896AA206999999GF109991999999999999999999MA1100581999999MW1731EQDQ01  00002PRCP06
009172458603919197301031700D+38800-097650SAO  +0391SLN  V0203301N002519999999N0008001N9-00101-00201100701ADDAA101000596AA206999999GF109991999999999999999999MA1100581999999MW1731EQDQ01  00002PRCP06
012372458603919197301031800D+38800-097650SAO  +0391SLN  V0203001N003019999999N0024001N9-00101-00101100661ADDAA101001096AA206999999GA1999+007809039GF109991999999999999999999MA1100471999999MW1711EQDQ01    003SCCGA1Q02  00002PRCP06
009172458603919197301031900D+38800-097650SAO  +0391SLN  V0202901N006119999999N0060001N9+00101-00101100691ADDAA101000095AA206999999GF108991999999999999999999MA1100581999999MW1711EQDQ01  00002PRCP06
009172458603919197301032000D+38800-097650SAO  +0391SLN  V0203001N008719999999N0060001N9+00101-00101100771ADDAA101000095AA206999999GF108991999999999999999999MA1100581999999MW1701EQDQ01  00002PRCP06
009972458603919197301032100D+38800-097650SAO  +0391SLN  V0203201N010319999999N0060001N9-00101-00201100841ADDAA101000095AA206999999GF108991999999999999999999MA1100681999999MW1701OC101541EQDQ01  00002PRCP06
008072458603919197301032200D+38800-097650SAO  +0391SLN  V0203301N010319999999N0110001N9-00501-00801101191ADDAA101000095AA206000091GF108991999999999999999999MA1100981999999MW1021OC101541
010172458603919197301032300D+38800-097650SAO  +0391SLN  V0209999999999005401AN0112001N1-00661-01001101411ADDAA101000095GD14991+0054099GF108991999999999999999999MA1101251999999MW1001REMAWY016/ PRESRR?SLN?1/6
011372458603919197301040000D+38800-097650SAO  +0391SLN  V0203201N007719999999N0110001N9-00801-01201101621ADDAA101000095AA206000091GF108991999999999999999999MA1101491999999MD1110711+9999MW1021OC101281EQDQ01  00003PRCP99
008072458603919197301040100D+38800-097650SAO  +0391SLN  V0203401N010319999999N9999999N9-00901-01401101791ADDAA101000095AA206000091GF108991999999999999999999MA1101591999999MW1381OC101541
008072458603919197301040200D+38800-097650SAO  +0391SLN  V0203301N005119999999N9999999N9-01001-01401101941ADDAA101000095AA206000091GF108991999999999999999999MA1101801999999MW1381OC101031
007272458603919197301040300D+38800-097650SAO  +0391SLN  V0203301N007719999999N0110001N9-01101-01301102021ADDAA101000095AA206000091GF108991999999999999999999MA1101801999999MW1021
007272458603919197301040400D+38800-097650SAO  +0391SLN  V0203301N008219999999N0110001N9-01101-01401102121ADDAA101000095AA206000091GF108991999999999999999999MA1101901999999MW1021
007272458603919197301040500D+38800-097650SAO  +0391SLN  V0203301N006719999999N0110001N9-01101-01401102211ADDAA101000095AA206000091GF108991999999999999999999MA1102001999999MW1021
008672458603919197301040600D+38800-097650SAO  +0391SLN  V0203301N007219999999N0110001N9-01101-01401102331ADDAA101000095AA206000091GF108991999999999999999999MA1102101999999MD1210301+9999MW1021
007272458603919197301040700D+38800-097650SAO  +0391SLN  V0203301N010319999999N0110001N9-01101-01401102361ADDAA101000095AA206000091GF108991999999999999999999MA1102171999999MW1021
008072458603919197301040800D+38800-097650SAO  +0391SLN  V0203401N010319999999N0110001N9-01101-01701102481ADDAA101000095AA206000091GF108991999999999999999999MA1102271999999MW1021OC101281
008072458603919197301040900D+38800-097650SAO  +0391SLN  V0203401N009219999999N0110001N9-01201-01601102611ADDAA101000095AA206000091GF108991999999999999999999MA1102371999999MW1021OC101231
007272458603919197301041000D+38800-097650SAO  +0391SLN  V0203301N010319999999N0110001N9-01301-01701102671ADDAA101000095AA206000091GF108991999999999999999999MA1102371999999MW1021
007272458603919197301041100D+38800-097650SAO  +0391SLN  V0203401N007219999999N0110001N9-01301-01801102631ADDAA101000095AA206000091GF108991999999999999999999MA1102371999999MW1021
008672458603919197301041200D+38800-097650SAO  +0391SLN  V0203301N008219999999N0110001N9-01301-01801102731ADDAA101000095AA206000091GF108991999999999999999999MA1102471999999MD1210071+9999MW1021
007272458603919197301041300D+38800-097650SAO  +0391SLN  V0203401N009219999999N0110001N9-01301-02001102841ADDAA101000095AA206000091GF108991999999999999999999MA1102571999999MW1021
007272458603919197301041400D+38800-097650SAO  +0391SLN  V0203501N007719999999N0110001N9-01301-02301103011ADDAA101000095AA206000091GF108991999999999999999999MA1102681999999MW1021
007272458603919197301041500D+38800-097650SAO  +0391SLN  V0203601N006119999999N0110001N9-01401-01901103091ADDAA101000095AA206000091GF108991999999999999999999MA1102781999999MW1021
007272458603919197301041600D+38800-097650SAO  +0391SLN  V0203401N005119999999N0110001N9-01401-01901103161ADDAA101000095AA206000091GF108991999999999999999999MA1102881999999MW1021
007272458603919197301041700D+38800-097650SAO  +0391SLN  V0203501N007719999999N0110001N9-01301-01801103201ADDAA101000095AA206000091GF108991999999999999999999MA1102881999999MW1021
008672458603919197301041800D+38800-097650SAO  +0391SLN  V0203401N005119999999N0110001N9-01301-01901103121ADDAA101000095AA206000091GF108991999999999999999999MA1102781999999MD1010031+9999MW1021
007272458603919197301041900D+38800-097650SAO  +0391SLN  V0203101N006119999999N0110001N9-01301-02001103051ADDAA101000095AA206000091GF108991999999999999999999MA1102781999999MW1021
007272458603919197301042000D+38800-097650SAO  +0391SLN  V0203601N004119999999N0110001N9-01301-01901102991ADDAA101000095AA206000091GF107991999999999999999999MA1102681999999MW1021
007272458603919197301042100D+38800-097650SAO  +0391SLN  V0203401N003019999999N0110001N9+99999+99999102941ADDAA101000095AA206000091GF107991999999999999999999MA1102571999999MW1021
007272458603919197301042200D+38800-097650SAO  +0391SLN  V0203001N002019999999N0110001N9-01301-01901102941ADDAA101000095AA206000091GF107991999999999999999999MA1102571999999MW1021
007272458603919197301042300D+38800-097650SAO  +0391SLN  V0203201N002519999999N0110001N9-01401-02101102941ADDAA101000095AA206000091GF107991999999999999999999MA1102571999999MW1021
008672458603919197301050000D+38800-097650SAO  +0391SLN  V0203501N002012200019N0110001N9-01501-02101102941ADDAA101000095AA206000091GF102991999999999999999999MA1102571999999MD1010001+9999MW1021
007272458603919197301050100D+38800-097650SAO  +0391SLN  V0203501N002519999999N0110001N9-01401-02101102941ADDAA101000095AA206000091GF108991999999999999999999MA1102571999999MW1021
007272458603919197301050200D+38800-097650SAO  +0391SLN  V0203501N002519999999N0110001N9-01401-02201102941ADDAA101000095AA206000091GF108991999999999999999999MA1102571999999MW1021
007272458603919197301050300D+38800-097650SAO  +0391SLN  V0203501N004119999999N0110001N9-01401-02201102961ADDAA101000095AA206000091GF108991999999999999999999MA1102571999999MW1021
007272458603919197301050400D+38800-097650SAO  +0391SLN  V0203401N002519999999N0110001N9-01401-01901102981ADDAA101000095AA206000091GF108991999999999999999999MA1102681999999MW1021
007272458603919197301050500D+38800-097650SAO  +0391SLN  V0203501N002519999999N0110001N9-01401-01701102981ADDAA101000095AA206000091GF108991999999999999999999MA1102681999999MW1021
008672458603919197301050600D+38800-097650SAO  +0391SLN  V0209991C000019999999N0140001N9-01301-01701102941ADDAA101000095AA206000091GF108991999999999999999999MA1102571999999MD1010001+9999MW1021
007272458603919197301050700D+38800-097650SAO  +0391SLN  V0209991C000019999999N0140001N9-01301-01901102861ADDAA101000095AA206000091GF108991999999999999999999MA1102571999999MW1021
007272458603919197301050800D+38800-097650SAO  +0391SLN  V0209991C000019999999N0140001N9-01301-01901102901ADDAA101000095AA206000091GF108991999999999999999999MA1102571999999MW1021
007272458603919197301050900D+38800-097650SAO  +0391SLN  V0209991C000019999999N0140001N9-01301-01901102901ADDAA101000095AA206000091GF108991999999999999999999MA1102571999999MW1021
007272458603919197301051000D+38800-097650SAO  +0391SLN  V0201401N002019999999N0140001N9-01301-01801102791ADDAA101000095AA206000091GF108991999999999999999999MA1102471999999MW1021
007272458603919197301051100D+38800-097650SAO  +0391SLN  V0200901N002019999999N0140001N9-01301-01801102751ADDAA101000095AA206000091GF108991999999999999999999MA1102471999999MW1021
008672458603919197301051200D+38800-097650SAO  +0391SLN  V0201001N003019999999N0110001N9-01301-01801102751ADDAA101000095AA206000091GF108991999999999999999999MA1102471999999MD1610141+9999MW1021
007272458603919197301051300D+38800-097650SAO  +0391SLN  V0201101N004119999999N0110001N9-01301-01701102691ADDAA101000095AA206000091GF108991999999999999999999MA1102371999999MW1021
007272458603919197301051400D+38800-097650SAO  +0391SLN  V0200801N002519999999N0110001N9-01301-01801102771ADDAA101000095AA206000091GF108991999999999999999999MA1102471999999MW1021
007272458603919197301051500D+38800-097650SAO  +0391SLN  V0200601N002519999999N0110001N9-01301-02101102731ADDAA101000095AA206000091GF108991999999999999999999MA1102371999999MW1021
007272458603919197301051600D+38800-097650SAO  +0391SLN  V0200701N002519999999N0110001N9-01301-01901102791ADDAA101000095AA206000091GF108991999999999999999999MA1102471999999MW1021
007272458603919197301051700D+38800-097650SAO  +0391SLN  V0209991C000019999999N0110001N9-01201-01901102831ADDAA101000095AA206000091GF108991999999999999999999MA1102471999999MW1021
008672458603919197301051800D+38800-097650SAO  +0391SLN  V0200901N002019999999N0110001N9-01201-01701102761ADDAA101000095AA206000091GF108991999999999999999999MA1102471999999MD1010031+9999MW1021
009172458603919197301051900D+38800-097650SAO  +0391SLN  V0200401N002019999999N0110001N9-01201-01601102681ADDAA101000095AA206999999GF108991999999999999999999MA1102371999999MW1701EQDQ01  00002PRCP06
009172458603919197301052000D+38800-097650SAO  +0391SLN  V0209991C000019999999N0110001N9-01201-01601102681ADDAA101000095AA206999999GF108991999999999999999999MA1102371999999MW1701EQDQ01  00002PRCP06
009172458603919197301052100D+38800-097650SAO  +0391SLN  V0200801N003619999999N0110001N9-01201-01601102641ADDAA101000095AA206999999GF108991999999999999999999MA1102371999999MW1701EQDQ01  00002PRCP06
009172458603919197301052200D+38800-097650SAO  +0391SLN  V0200701N002519999999N0048001N9-01101-01401102751ADDAA101000095AA206999999GF108991999999999999999999MA1102471999999MW1701EQDQ01  00002PRCP06
007272458603919197301052300D+38800-097650SAO  +0391SLN  V0200601N003012200019N0110001N9-01101-01601102791ADDAA101000095AA206000091GF102991999999999999999999MA1102471999999MW1021
008672458603919197301060000D+38800-097650SAO  +0391SLN  V0209991C000012200019N0140001N9-01201-01701102831ADDAA101000095AA206000091GF102991999999999999999999MA1102471999999MD1210171+9999MW1021
007272458603919197301060100D+38800-097650SAO  +0391SLN  V0209991C000012200019N0140001N9-01201-01701102901ADDAA101000095AA206000091GF102991999999999999999999MA1102571999999MW1021
007272458603919197301060200D+38800-097650SAO  +0391SLN  V0209991C000012200019N0140001N9-01401-01801103001ADDAA101000095AA206000091GF102991999999999999999999MA1102681999999MW1021
007272458603919197301060300D+38800-097650SAO  +0391SLN  V0209991C000012200019N0140001N9-01401-01901102951ADDAA101000095AA206000091GF102991999999999999999999MA1102681999999MW1021
007272458603919197301060400D+38800-097650SAO  +0391SLN  V0209991C000012200019N0140001N9-01501-01901102991ADDAA101000095AA206000091GF102991999999999999999999MA1102681999999MW1021
007272458603919197301060500D+38800-097650SAO  +0391SLN  V0203301N002012200019N0140001N9-01601-02001103011ADDAA101000095AA206000091GF102991999999999999999999MA1102681999999MW1021
008672458603919197301060600D+38800-097650SAO  +0391SLN  V0209991C000012200019N0140001N9-01601-02001103101ADDAA101000095AA206000091GF102991999999999999999999MA1102781999999MD1310141+9999MW1021
007272458603919197301060700D+38800-097650SAO  +0391SLN  V0209991C000012200019N0110001N9-01701-02001103081ADDAA101000095AA206000091GF100991999999999999999999MA1102781999999MW1001
007272458603919197301060800D+38800-097650SAO  +0391SLN  V0209991C000012200019N0110001N9-01701-02001103161ADDAA101000095AA206000091GF100991999999999999999999MA1102781999999MW1001
007272458603919197301060900D+38800-097650SAO  +0391SLN  V0209991C000012200019N0110001N9-01701-01801103211ADDAA101000095AA206000091GF100991999999999999999999MA1102881999999MW1001
007272458603919197301061000D+38800-097650SAO  +0391SLN  V0209991C000012200019N0110001N9-01601-02101103201ADDAA101000095AA206000091GF100991999999999999999999MA1102881999999MW1001
007272458603919197301061100D+38800-097650SAO  +0391SLN  V0209991C000012200019N0110001N9-01601-02001103201ADDAA101000095AA206000091GF100991999999999999999999MA1102881999999MW1001
008672458603919197301061200D+38800-097650SAO  +0391SLN  V0209991C000012200019N0110001N9-01601-02001103321ADDAA101000095AA206000091GF100991999999999999999999MA1102981999999MD1310101+9999MW1001
007272458603919197301061300D+38800-097650SAO  +0391SLN  V0209991C000012200019N0110001N9-01701-01901103391ADDAA101000095AA206000091GF100991999999999999999999MA1103081999999MW1001
007272458603919197301061400D+38800-097650SAO  +0391SLN  V0209991C000012200019N0110001N9-01701-02201103431ADDAA101000095AA206000091GF100991999999999999999999MA1103081999999MW1001
007272458603919197301061500D+38800-097650SAO  +0391SLN  V0209991C000019999999N0110001N9-01601-01901103471ADDAA101000095AA206000091GF108991999999999999999999MA1103081999999MW1021
007272458603919197301061600D+38800-097650SAO  +0391SLN  V0200101N002519999999N0110001N9-01401-01801103511ADDAA101000095AA206000091GF108991999999999999999999MA1103181999999MW1021
007272458603919197301061700D+38800-097650SAO  +0391SLN  V0200501N002019999999N0110001N9-01301-01901103561ADDAA101000095AA206000091GF107991999999999999999999MA1103291999999MW1021
008672458603919197301061800D+38800-097650SAO  +0391SLN  V0200701N003619999999N0110001N9-01201-01701103461ADDAA101000095AA206000091GF107991999999999999999999MA1103081999999MD1010001+9999MW1021
007272458603919197301061900D+38800-097650SAO  +0391SLN  V0200701N002519999999N0110001N9-01201-01701103371ADDAA101000095AA206000091GF108991999999999999999999MA1103081999999MW1021
007272458603919197301062000D+38800-097650SAO  +0391SLN  V0200501N003019999999N0110001N9-01101-01701103281ADDAA101000095AA206000091GF108991999999999999999999MA1102981999999MW1021
007272458603919197301062100D+38800-097650SAO  +0391SLN  V0200601N003019999999N0110001N9-01001-01901103321ADDAA101000095AA206000091GF108991999999999999999999MA1102981999999MW1021
007272458603919197301062200D+38800-097650SAO  +0391SLN  V0200901N002519999999N0110001N9-01101-01701103401ADDAA101000095AA206000091GF108991999999999999999999MA1103081999999MW1021
007272458603919197301062300D+38800-097650SAO  +0391SLN  V0200901N002519999999N0110001N9-01101-01801103371ADDAA101000095AA206000091GF108991999999999999999999MA1103081999999MW1021
008672458603919197301070000D+38800-097650SAO  +0391SLN  V0200601N003019999999N0110001N9-01101-01701103401ADDAA101000095AA206000091GF108991999999999999999999MA1103081999999MD1210081+9999MW1021
007272458603919197301070100D+38800-097650SAO  +0391SLN  V0200401N005119999999N0110001N9-01201-01701103351ADDAA101000095AA206000091GF108991999999999999999999MA1102981999999MW1021
007272458603919197301070200D+38800-097650SAO  +0391SLN  V0200401N003619999999N0110001N9-01201-01701103311ADDAA101000095AA206000091GF108991999999999999999999MA1102981999999MW1021
007272458603919197301070300D+38800-097650SAO  +0391SLN  V0200501N004119999999N0110001N9-01201-01701103301ADDAA101000095AA206000091GF108991999999999999999999MA1102981999999MW1021
007272458603919197301070400D+38800-097650SAO  +0391SLN  V0200501N005119999999N0110001N9-01201-01701103341ADDAA101000095AA206000091GF108991999999999999999999MA1102981999999MW1021
007272458603919197301070500D+38800-097650SAO  +0391SLN  V0200601N004619999999N0110001N9-01201-02001103311ADDAA101000095AA206000091GF108991999999999999999999MA1102981999999MW1021
008672458603919197301070600D+38800-097650SAO  +0391SLN  V0200501N004119999999N0110001N9-01201-02001103211ADDAA101000095AA206000091GF108991999999999999999999MA1102881999999MD1810071+9999MW1021
007272458603919197301070700D+38800-097650SAO  +0391SLN  V0200501N003019999999N0110001N9-01301-01801103251ADDAA101000095AA206000091GF108991999999999999999999MA1102981999999MW1021
007272458603919197301070800D+38800-097650SAO  +0391SLN  V0200601N004619999999N0110001N9-01301-01701103171ADDAA101000095AA206000091GF108991999999999999999999MA1102881999999MW1021
007272458603919197301070900D+38800-097650SAO  +0391SLN  V0200601N004619999999N0110001N9-01301-01701103241ADDAA101000095AA206000091GF108991999999999999999999MA1102881999999MW1021
007272458603919197301071000D+38800-097650SAO  +0391SLN  V0200501N005619999999N0110001N9-01301-01701103141ADDAA101000095AA206000091GF108991999999999999999999MA1102881999999MW1021
007272458603919197301071100D+38800-097650SAO  +0391SLN  V0200601N004119999999N0110001N9-01301-01701103061ADDAA101000095AA206000091GF108991999999999999999999MA1102781999999MW1021
012172458603919197301071200D+38800-097650SAO  +0391SLN  V0200501N003619999999N0060001N9-01301-01801103091ADDAA101000095AA206999999GF109991999999999999999999MA1102781999999MD1710121+9999MW1711EQDQ01  00003PRCP99Q02  00002PRCP06
009172458603919197301071300D+38800-097650SAO  +0391SLN  V0200501N005119999999N0048001N9-01301-01601103091ADDAA101000596AA206999999GF109991999999999999999999MA1102781999999MW1711EQDQ01  00002PRCP06
009172458603919197301071400D+38800-097650SAO  +0391SLN  V0200501N004619999999N0060001N9-01301-01601103141ADDAA101000896AA206999999GF108991999999999999999999MA1102881999999MW1711EQDQ01  00002PRCP06
009172458603919197301071500D+38800-097650SAO  +0391SLN  V0200301N004119999999N0048001N9-01301-01701103141ADDAA101000596AA206999999GF109991999999999999999999MA1102881999999MW1711EQDQ01  00002PRCP06
009172458603919197301071600D+38800-097650SAO  +0391SLN  V0200301N004119999999N0040001N9-01201-01601103141ADDAA101000396AA206999999GF109991999999999999999999MA1102881999999MW1711EQDQ01  00002PRCP06
009172458603919197301071700D+38800-097650SAO  +0391SLN  V0200401N003019999999N0048001N9-01201-01501103141ADDAA101000396AA206999999GF109991999999999999999999MA1102881999999MW1711EQDQ01  00002PRCP06
012372458603919197301071800D+38800-097650SAO  +0391SLN  V0200201N004119999999N0048001N9-01201-01601103071ADDAA101000095AA206999999GA1999+002709079GF109991999999999999999999MA1102781999999MW1711EQDQ01    003SCCGA1Q02  00002PRCP06
009172458603919197301071900D+38800-097650SAO  +0391SLN  V0200301N004119999999N0048001N9-01201-01601103021ADDAA101000095AA206999999GF109991999999999999999999MA1102681999999MW1711EQDQ01  00002PRCP06
009172458603919197301072000D+38800-097650SAO  +0391SLN  V0200401N004619999999N0020001N9-01201-01601102981ADDAA101000396AA206999999GF109991999999999999999999MA1102681999999MW1711EQDQ01  00002PRCP06
009172458603919197301072100D+38800-097650SAO  +0391SLN  V0200101N003619999999N0020001N9-01201-01601103011ADDAA101000095AA206999999GF109991999999999999999999MA1102681999999MW1711EQDQ01  00002PRCP06
009172458603919197301072200D+38800-097650SAO  +0391SLN  V0203601N004619999999N0048001N9-01201-01601103011ADDAA101000095AA206999999GF109991999999999999999999MA1102681999999MW1711EQDQ01  00002PRCP06
009172458603919197301072300D+38800-097650SAO  +0391SLN  V0200201N005119999999N0060001N9-01201-01901103051ADDAA101000095AA206999999GF109991999999999999999999MA1102781999999MW1701EQDQ01  00002PRCP06
012172458603919197301080000D+38800-097650SAO  +0391SLN  V0200201N005619999999N0080001N9-01201-01901103051ADDAA101000095AA206999999GF108991999999999999999999MA1102781999999MD1110031+9999MW1701EQDQ01  00003PRCP99Q02  00002PRCP06
009172458603919197301080100D+38800-097650SAO  +0391SLN  V0200101N003619999999N0110001N9-01201-01601103121ADDAA101000095AA206999999GF108991999999999999999999MA1102781999999MW1701EQDQ01  00002PRCP06
009172458603919197301080200D+38800-097650SAO  +0391SLN  V0200101N005619999999N0110001N9-01201-01601103121ADDAA101000095AA206999999GF108991999999999999999999MA1102781999999MW1701EQDQ01  00002PRCP06
007272458603919197301080300D+38800-097650SAO  +0391SLN  V0203601N005619999999N0110001N9-01201-01701103211ADDAA101000095AA206000091GF108991999999999999999999MA1102881999999MW1021
007272458603919197301080400D+38800-097650SAO  +0391SLN  V0203601N004119999999N0110001N9-01301-01701103211ADDAA101000095AA206000091GF107991999999999999999999MA1102881999999MW1021
007272458603919197301080500D+38800-097650SAO  +0391SLN  V0203501N003612200019N0110001N9-01701-01901103321ADDAA101000095AA206000091GF102991999999999999999999MA1102981999999MW1021
010572458603919197301080600D+38800-097650SAO  +0391SLN  V0203101N002512200019N0110001N9-01901-02201103331ADDAA101000095AA206000091GF100991999999999999999999MA1102981999999MD1110071+9999MW1001EQDQ01  00003PRCP99
007272458603919197301080700D+38800-097650SAO  +0391SLN  V0203201N003012200019N0110001N9-02001-02301103331ADDAA101000095AA206000091GF100991999999999999999999MA1102981999999MW1001
007272458603919197301080800D+38800-097650SAO  +0391SLN  V0203201N003612200019N0110001N9-02001-02301103351ADDAA101000095AA206000091GF102991999999999999999999MA1102981999999MW1021
007272458603919197301080900D+38800-097650SAO  +0391SLN  V0203101N003612200019N0110001N9-02001-02201103421ADDAA101000095AA206000091GF102991999999999999999999MA1103081999999MW1021
007272458603919197301081000D+38800-097650SAO  +0391SLN  V0203101N003012200019N0110001N9-02101-02301103471ADDAA101000095AA206000091GF100991999999999999999999MA1103081999999MW1001
007272458603919197301081100D+38800-097650SAO  +0391SLN  V0203201N004112200019N0110001N9-02101-02301103471ADDAA101000095AA206000091GF100991999999999999999999MA1103081999999MW1001
008672458603919197301081200D+38800-097650SAO  +0391SLN  V0203101N004112200019N0110001N9-02201-02401103521ADDAA101000095AA206000091GF100991999999999999999999MA1103181999999MD1210071+9999MW1001
007272458603919197301081300D+38800-097650SAO  +0391SLN  V0203001N004112200019N0110001N9-02201-02501103561ADDAA101000095AA206000091GF100991999999999999999999MA1103181999999MW1001
006672458603919197301081400D+38800-097650SAO  +0391SLN  V0203101N003012200019N0110001N9-02201-02401103671ADDAA101000095AA206000091GF102991999999999999999999MA1103291999999
007272458603919197301081500D+38800-097650SAO  +0391SLN  V0203001N003619999999N0110001N9-02101-02301103761ADDAA101000095AA206000091GF108991999999999999999999MA1103391999999MW1021
007272458603919197301081600D+38800-097650SAO  +0391SLN  V0203301N004119999999N0110001N9-01801-02301103861ADDAA101000095AA206000091GF107991999999999999999999MA1103491999999MW1021
007272458603919197301081700D+38800-097650SAO  +0391SLN  V0203401N005112200019N0110001N9-01701-02101103841ADDAA101000095AA206000091GF102991999999999999999999MA1103491999999MW1021
010572458603919197301081800D+38800-097650SAO  +0391SLN  V0203301N006712200019N0110001N9-01601-02001103801ADDAA101000095AA206000091GF100991999999999999999999MA1103491999999MD1010031+9999MW1001EQDQ01  00003PRCP99
007272458603919197301081900D+38800-097650SAO  +0391SLN  V0203401N005112200019N0110001N9-01401-01901103701ADDAA101000095AA206000091GF100991999999999999999999MA1103391999999MW1001
007272458603919197301082000D+38800-097650SAO  +0391SLN  V0203401N005112200019N0110001N9-01301-01801103661ADDAA101000095AA206000091GF102991999999999999999999MA1103291999999MW1021
008672458603919197301082100D+38800-097650SAO  +0391SLN  V0203301N005619999999N0110001N9-01301-01801103621ADDAA101000095AA206000091GF107991999999999999999999MA1103291999999MD1610171+9999MW1021
007272458603919197301082200D+38800-097650SAO  +0391SLN  V0203401N005119999999N0110001N9-01301-01701103701ADDAA101000095AA206000091GF108991999999999999999999MA1103391999999MW1021
007272458603919197301082300D+38800-097650SAO  +0391SLN  V0203401N005119999999N0110001N9-01301-01901103701ADDAA101000095AA206000091GF107991999999999999999999MA1103391999999MW1021
008672458603919197301090000D+38800-097650SAO  +0391SLN  V0203401N004119999999N0110001N9-01401-01901103701ADDAA101000095AA206000091GF107991999999999999999999MA1103391999999MD1110071+9999MW1021
007272458603919197301090100D+38800-097650SAO  +0391SLN  V0203301N002512200019N0110001N9-01501-02101103761ADDAA101000095AA206000091GF102991999999999999999999MA1103391999999MW1021
007272458603919197301090200D+38800-097650SAO  +0391SLN  V0203501N004119999999N0110001N9-01501-01701103861ADDAA101000095AA206000091GF107991999999999999999999MA1103491999999MW1021
008672458603919197301090300D+38800-097650SAO  +0391SLN  V0203501N003619999999N0110001N9-01401-01801103841ADDAA101000095AA206000091GF107991999999999999999999MA1103491999999MD1110141+9999MW1021
007272458603919197301090400D+38800-097650SAO  +0391SLN  V0203401N003019999999N0110001N9-01601-02101103841ADDAA101000095AA206000091GF107991999999999999999999MA1103491999999MW1021
007272458603919197301090500D+38800-097650SAO  +0391SLN  V0203401N003612200019N0110001N9-01701-02301103911ADDAA101000095AA206000091GF102991999999999999999999MA1103591999999MW1021
008672458603919197301090600D+38800-097650SAO  +0391SLN  V0202401N003012200019N0110001N9-01801-02301103951ADDAA101000095AA206000091GF102991999999999999999999MA1103591999999MD1310101+9999MW1021
007272458603919197301090700D+38800-097650SAO  +0391SLN  V0203501N004612200019N0140001N9-01901-02301103941ADDAA101000095AA206000091GF100991999999999999999999MA1103591999999MW1001
007272458603919197301090800D+38800-097650SAO  +0391SLN  V0203501N003012200019N0140001N9-01901-02601103941ADDAA101000095AA206000091GF100991999999999999999999MA1103591999999MW1001
007272458603919197301091000D+38800-097650SAO  +0391SLN  V0203201N002512200019N0140001N9-02201-02801104001ADDAA101000095AA206000091GF100991999999999999999999MA1103691999999MW1001
007272458603919197301091100D+38800-097650SAO  +0391SLN  V0203401N002012200019N0140001N9-02201-02401103961ADDAA101000095AA206000091GF100991999999999999999999MA1103591999999MW1001
008672458603919197301091200D+38800-097650SAO  +0391SLN  V0203101N002512200019N0140001N9-02301-02601103981ADDAA101000095AA206000091GF100991999999999999999999MA1103591999999MD1010001+9999MW1001
007272458603919197301091300D+38800-097650SAO  +0391SLN  V0203001N002012200019N0140001N9-02301-02601104061ADDAA101000095AA206000091GF100991999999999999999999MA1103691999999MW1001
007272458603919197301091400D+38800-097650SAO  +0391SLN  V0203101N002012200019N0110001N9-02301-02601104041ADDAA101000095AA206000091GF100991999999999999999999MA1103691999999MW1001
008672458603919197301091500D+38800-097650SAO  +0391SLN  V0203001N003012200019N0110001N9-02101-02401104081ADDAA101000095AA206000091GF100991999999999999999999MA1103691999999MD1210101+9999MW1001
007272458603919197301091600D+38800-097650SAO  +0391SLN  V0203101N003012200019N0110001N9-01801-02501104111ADDAA101000095AA206000091GF100991999999999999999999MA1103791999999MW1001
007272458603919197301091700D+38800-097650SAO  +0391SLN  V0203201N002512200019N0110001N9-01701-02801104111ADDAA101000095AA206000091GF100991999999999999999999MA1103791999999MW1001
008672458603919197301091800D+38800-097650SAO  +0391SLN  V0203101N003612200019N0110001N9-01501-02501103971ADDAA101000095AA206000091GF102991999999999999999999MA1103591999999MD1810081+9999MW1021
007272458603919197301091900D+38800-097650SAO  +0391SLN  V0203101N003612200019N0110001N9-01501-02201103881ADDAA101000095AA206000091GF102991999999999999999999MA1103491999999MW1021
007272458603919197301092000D+38800-097650SAO  +0391SLN  V0203001N003612200019N0110001N9-01401-02301103801ADDAA101000095AA206000091GF102991999999999999999999MA1103491999999MW1021
008672458603919197301092100D+38800-097650SAO  +0391SLN  V0202901N002519999999N0110001N9-01301-02301103771ADDAA101000095AA206000091GF107991999999999999999999MA1103391999999MD1710201+9999MW1021
007272458603919197301092200D+38800-097650SAO  +0391SLN  V0203001N002519999999N0110001N9-01401-02201103751ADDAA101000095AA206000091GF107991999999999999999999MA1103391999999MW1021
007272458603919197301092300D+38800-097650SAO  +0391SLN  V0209991C000019999999N0110001N9-01401-02201103871ADDAA101000095AA206000091GF107991999999999999999999MA1103491999999MW1021
008672458603919197301100000D+38800-097650SAO  +0391SLN  V0209991C000019999999N0110001N9-01401-01901103631ADDAA101000095AA206000091GF107991999999999999999999MA1103291999999MD1810171+9999MW1021
007272458603919197301100100D+38800-097650SAO  +0391SLN  V0203501N002519999999N0110001N9-01401-01901103631ADDAA101000095AA206000091GF108991999999999999999999MA1103291999999MW1021
004672458603919197301100200D+38800-097650SAO  +0391SLN  V0209991C000019999999N0700001N9-01401-02101999999ADDAA101000095AA206000091MA1103291999999MW1021
008672458603919197301100300D+38800-097650SAO  +0391SLN  V0209991C000019999999N0110001N9-01401-02101103601ADDAA101000095AA206000091GF108991999999999999999999MA1103291999999MD1410001+9999MW1021
007272458603919197301100400D+38800-097650SAO  +0391SLN  V0209991C000019999999N0110001N9-01401-02101103481ADDAA101000095AA206000091GF108991999999999999999999MA1103081999999MW1021
007272458603919197301100500D+38800-097650SAO  +0391SLN  V0209991C000019999999N0110001N9-01401-02101103421ADDAA101000095AA206000091GF108991999999999999999999MA1103081999999MW1021
008672458603919197301100600D+38800-097650SAO  +0391SLN  V0201901N002519999999N0110001N9-01501-02101103351ADDAA101000095AA206000091GF107991999999999999999999MA1102981999999MD1610221+9999MW1021
007272458603919197301100700D+38800-097650SAO  +0391SLN  V0202001N003019999999N0110001N9-01401-01901103291ADDAA101000095AA206000091GF108991999999999999999999MA1102981999999MW1021
007272458603919197301100800D+38800-097650SAO  +0391SLN  V0209991C000019999999N0110001N9-01301-01801103181ADDAA101000095AA206000091GF108991999999999999999999MA1102881999999MW1021
008672458603919197301100900D+38800-097650SAO  +0391SLN  V0201701N002519999999N0110001N9-01301-01701103131ADDAA101000095AA206000091GF108991999999999999999999MA1102781999999MD1710171+9999MW1021
009172458603919197301101000D+38800-097650SAO  +0391SLN  V0201801N002019999999N0080001N9-01301-01701103071ADDAA101000095AA206999999GF108991999999999999999999MA1102781999999MW1701EQDQ01  00002PRCP06
009172458603919197301101100D+38800-097650SAO  +0391SLN  V0201901N002519999999N0048001N9-01201-01701102951ADDAA101000095AA206999999GF108991999999999999999999MA1102681999999MW1701EQDQ01  00002PRCP06
012172458603919197301101200D+38800-097650SAO  +0391SLN  V0201801N002019999999N0048001N9-01201-01701102891ADDAA101000095AA206999999GF109991999999999999999999MA1102571999999MD1710241+9999MW1701EQDQ01  00003PRCP99Q02  00002PRCP06
009172458603919197301101300D+38800-097650SAO  +0391SLN  V0201801N002519999999N0048001N9-01201-01701102891ADDAA101000095AA206999999GF109991999999999999999999MA1102571999999MW1701EQDQ01  00002PRCP06
009172458603919197301101400D+38800-097650SAO  +0391SLN  V0201801N003019999999N0080001N9-01301-01501102921ADDAA101000095AA206999999GF108991999999999999999999MA1102571999999MW1701EQDQ01  00002PRCP06
008672458603919197301101500D+38800-097650SAO  +0391SLN  V0202001N002019999999N0080001N9-01301-01701102941ADDAA101000095AA206000091GF108991999999999999999999MA1102681999999MD1210081+9999MW1051
009172458603919197301101600D+38800-097650SAO  +0391SLN  V0201801N003019999999N0060001N9-01201-01401102991ADDAA101000095AA206999999GF108991999999999999999999MA1102681999999MW1701EQDQ01  00002PRCP06
009172458603919197301101700D+38800-097650SAO  +0391SLN  V0201901N004119999999N0060001N9-01001-01401102991ADDAA101000095AA206999999GF108991999999999999999999MA1102681999999MW1701EQDQ01  00002PRCP06
012372458603919197301101800D+38800-097650SAO  +0391SLN  V0202301N002519999999N0080001N9-00901-01301102881ADDAA101000095AA206999999GA1999+000159079GF108991999999999999999999MA1102571999999MW1701EQDQ01    003SCCGA1Q02  00002PRCP06
009172458603919197301101900D+38800-097650SAO  +0391SLN  V0202201N002019999999N0080001N9-00801-01301102751ADDAA101000095AA206999999GF108991999999999999999999MA1102471999999MW1701EQDQ01  00002PRCP06
007272458603919197301102000D+38800-097650SAO  +0391SLN  V0202401N004119999999N0110001N9-00801-01201102621ADDAA101000095AA206000091GF107991999999999999999999MA1102371999999MW1021
007272458603919197301102100D+38800-097650SAO  +0391SLN  V0202901N004619999999N0110001N9-00701-01201102621ADDAA101000095AA206000091GF108991999999999999999999MA1102371999999MW1021
007272458603919197301102200D+38800-097650SAO  +0391SLN  V0202401N003612200019N0110001N9-00701-01201102631ADDAA101000095AA206000091GF102991999999999999999999MA1102371999999MW1021
007272458603919197301102300D+38800-097650SAO  +0391SLN  V0202401N002012200019N0110001N9-00801-01301102631ADDAA101000095AA206000091GF102991999999999999999999MA1102371999999MW1021
010572458603919197301110000D+38800-097650SAO  +0391SLN  V0202101N003012200019N0110001N9-01201-01701102731ADDAA101000095AA206000091GF102991999999999999999999MA1102371999999MD1210071+9999MW1021EQDQ01  00003PRCP99
007272458603919197301110100D+38800-097650SAO  +0391SLN  V0202201N003612200019N0110001N9-01301-01801102761ADDAA101000095AA206000091GF102991999999999999999999MA1102471999999MW1021
007272458603919197301110200D+38800-097650SAO  +0391SLN  V0202301N004112200019N0110001N9-01401-01901102761ADDAA101000095AA206000091GF100991999999999999999999MA1102471999999MW1001
006172458603919197301110500D+38800-097650SAO  +0391SLN  V0202301N004112200019N0112001N1-01551-02111102711ADDAA101000095GF100991999999999999999999MA1102441999999MW1001
011172458603919197301110600D+38800-097650SAO  +0391SLN  V0209991C000012200019N0112001N1-01501-01831102711ADDAA101000095GF100991999999999999001001MA1102441999999MD1610071+9999MW1001REMAWY008/ 607 19EQDQ01    093SCOLCG
006172458603919197301110700D+38800-097650SAO  +0391SLN  V0202701N004612200019N0112001N1-01501-02051102751ADDAA101000095GF100991999999999999999999MA1102471999999MW1001
006172458603919197301110800D+38800-097650SAO  +0391SLN  V0202801N003612200019N0112001N1-01501-02271102751ADDAA101000095GF100991999999999999999999MA1102471999999MW1001
007572458603919197301110900D+38800-097650SAO  +0391SLN  V0203101N003112200019N0112001N1-01501-02171102811ADDAA101000095GF100991999999999999999999MA1102541097901MD1310101+9999MW1001
006172458603919197301111000D+38800-097650SAO  +0391SLN  V0203001N004612200019N0112001N1-01561-02281102851ADDAA101000095GF100991999999999999999999MA1102571097931MW1001
006172458603919197301111100D+38800-097650SAO  +0391SLN  V0203101N003612200019N0112001N1-01551-02331102891ADDAA101000095GF100991999999999999999999MA1102611999999MW1001
012872458603919197301111200D+38800-097650SAO  +0391SLN  V0203301N004112200019N0112001N1-01661-02271103001ADDAA101000095AJ100109199999999GF100991999999999999999999KA1999N-01671MA1102681999999MD1210141+9999MW1001REMAWY014/ 214 90404 02
006172458603919197301111300D+38800-097650SAO  +0391SLN  V0203101N004112200019N0112001N1-01661-02271103091ADDAA101000095GF100991999999999999999999MA1102781999999MW1001
006172458603919197301111400D+38800-097650SAO  +0391SLN  V0203001N004112200019N0112001N1-01661-02271103161ADDAA101000095GF100991999999999999999999MA1102841999999MW1001
008972458603919197301111500D+38800-097650SAO  +0391SLN  V0202901N004112200019N0112001N1-01501-02051999999ADDAA101000095GF100991999999999999999999MA1102951999999MD1210241+9999MW1001REMAWY005/ 224
006172458603919197301111600D+38800-097650SAO  +0391SLN  V0202901N004112200019N0112001N1-01271-01831103341ADDAA101000095GF100991999999999999999999MA1103051999999MW1001
006172458603919197301111700D+38800-097650SAO  +0391SLN  V0203201N004112200019N0112001N1-01001-01771103371ADDAA101000095GF100991999999999999999999MA1103081999999MW1001
010572458603919197301111800D+38800-097650SAO  +0391SLN  V0203301N004612200019N0112001N1-00881-01441103251ADDAA101000095GF100991999999999999999999KA1999N-01671MA1102981999999MD1010031+9999MW1001REMAWY008/ 003 02
006172458603919197301111900D+38800-097650SAO  +0391SLN  V0203401N005112200019N0112001N1-00771-01271103121ADDAA101000095GF100991999999999999999999MA1102841999999MW1001
006172458603919197301112000D+38800-097650SAO  +0391SLN  V0203301N004112200019N0112001N1-00721-01271103051ADDAA101000095GF100991999999999999999999MA1102781999999MW1001
008972458603919197301112100D+38800-097650SAO  +0391SLN  V0203401N003612200019N0112001N1-00661-01271103071ADDAA101000095GF100991999999999999999999MA1102811999999MD1510151+9999MW1001REMAWY005/ 515
006172458603919197301112200D+38800-097650SAO  +0391SLN  V0203101N002012200019N0112001N1-00661-01381103041ADDAA101000095GF100991999999999999999999MA1102781999999MW1001
006172458603919197301112300D+38800-097650SAO  +0391SLN  V0209991C000012200019N0112001N1-00771-01551103051ADDAA101000095GF100991999999999999999999MA1102781999999MW1001
010572458603919197301120000D+38800-097650SAO  +0391SLN  V0209991C000012200019N0112001N1-01001-01381103071ADDAA101000095GF100991999999999999999999KA1999M-00671MA1102781999999MD1610031+9999MW1001REMAWY008/ 603 20
006172458603919197301120100D+38800-097650SAO  +0391SLN  V0209991C000012200019N0112001N1-01331-01721103091ADDAA101000095GF100991999999999999999999MA1102781999999MW1001
006172458603919197301120200D+38800-097650SAO  +0391SLN  V0202001N003612200019N0112001N1-01381-01721103091ADDAA101000095GF100991999999999999999999MA1102781999999MW1001
008972458603919197301120300D+38800-097650SAO  +0391SLN  V0201901N004112200019N0112001N1-01441-01831103091ADDAA101000095GF100991999999999999999999MA1102781999999MD1410001+9999MW1001REMAWY005/ 400
006172458603919197301120400D+38800-097650SAO  +0391SLN  V0202001N003012200019N0112001N1-01551-01941103021ADDAA101000095GF100991999999999999999999MA1102711999999MW1001
006172458603919197301120500D+38800-097650SAO  +0391SLN  V0202001N002512200019N0112001N1-01611-02001103001ADDAA101000095GF100991999999999999999999MA1102711999999MW1001
010572458603919197301120600D+38800-097650SAO  +0391SLN  V0209991C000012200019N0112001N1-01611-02001102941ADDAA101000095GF100991999999999999999999KA1999M-00671MA1102641999999MD1710121+9999MW1001REMAWY008/ 712 20
006172458603919197301120700D+38800-097650SAO  +0391SLN  V0201801N004112200019N0112001N1-01551-01881102891ADDAA101000095GF100991999999999999999999MA1102611999999MW1001
006172458603919197301120800D+38800-097650SAO  +0391SLN  V0201501N003612200019N0112001N1-01721-02271102811ADDAA101000095GF100991999999999999999999MA1102541999999MW1001
010472458603919197301120900D+38800-097650SAO  +0391SLN  V0201801N003012200019N0112001N1-01381-01771102711ADDAA101000095GD12991+0750099GF102991999999999999999999MA1102471999999MD1810171+9999MW1001REMAWY005/ 817
007672458603919197301121000D+38800-097650SAO  +0391SLN  V0201901N004112200019N0112001N1-01381-01831102641ADDAA101000095GD12991+0750099GF102991999999999999999999MA1102401999999MW1001
007672458603919197301121100D+38800-097650SAO  +0391SLN  V0201601N00411060001EN0112001N1-01501-01831102611ADDAA101000095GD13991+0600099GF107991999999999999999999MA1102341999999MW1001
012072458603919197301121200D+38800-097650SAO  +0391SLN  V0201901N00301060001EN0112001N1-01441-01771102531ADDAA101000095GD13991+0600099GF107991999999999999999999KA1999N-01621MA1102271999999MD1610201+9999MW1001REMAWY008/   0 03
007672458603919197301121300D+38800-097650SAO  +0391SLN  V0201601N00411060001EN0112001N1-01381-01661102511ADDAA101000095GD13991+0600099GF107991999999999999999999MA1102241999999MW1001
008772458603919197301121400D+38800-097650SAO  +0391SLN  V0201701N00771060001EN0112001N1-01161-01611102431ADDAA101000095GD13991+0600099GF107991999999999999999999MD1010171+9999MW1001REMAWY003017
010472458603919197301121500D+38800-097650SAO  +0391SLN  V0201701N00721060001EN0112001N1-01051-01551102511ADDAA101000095GD14991+0600099GF108991999999999999999999MA1102241999999MD1510031+9999MW1001REMAWY005/ 503
007672458603919197301121600D+38800-097650SAO  +0391SLN  V0201801N005112200019N0112001N1-00941-01381102501ADDAA101000095GD13991+0600093GF107991999999999999999999MA1102241999999MW1001
009172458603919197301121700D+38800-097650SAO  +0391SLN  V0201801N007712200019N0112001N1-00661-01271102421ADDAA101000095GD12991+0450093GD23991+0750093GF107991999999999999999999MA1102171999999MW1001
013372458603919197301121800D+38800-097650SAO  +0391SLN  V0202001N008210750019N0112001N1-00501-01111102361ADDAA101000095GD12991+0450099GD23991+0750099GF107991999999999999999999KA1999N-01621MA1102101999999MD1810121+9999MW1001REMAWY006812 03
009172458603919197301121900D+38800-097650SAO  +0391SLN  V0201901N004110750019N0112001N1-00501-01051102201ADDAA101000095GD12991+0450099GD23991+0750099GF107991999999999999999999MA1101961999999MW1001
009172458603919197301122000D+38800-097650SAO  +0391SLN  V0201801N00821036001EN0112001N1-00381-00831102061ADDAA101000095GD13991+0360099GD24991+0750099GF108991999999999999999999MA1101801999999MW1001
011972458603919197301122100D+38800-097650SAO  +0391SLN  V0201801N00661036001EN0112001N1-00271-00661101961ADDAA101000095GD13991+0360099GD23991+0750099GF107991999999999999999999MA1101731999999MD1610361+9999MW1001REMAWY005/   6
007672458603919197301122200D+38800-097650SAO  +0391SLN  V0202101N006112200019N0112001N1-00221-00611101981ADDAA101000095GD12991+0300099GF102991999999999999999999MA1101761999999MW1001
006172458603919197301122300D+38800-097650SAO  +0391SLN  V0201901N006112200019N0112001N1-00381-00831102001ADDAA101000095GF100991999999999999999999MA1101761999999MW1001
010572458603919197301130000D+38800-097650SAO  +0391SLN  V0201901N007712200019N0112001N1-00551-01001102001ADDAA101000095GF100991999999999999999999KA1999M-00231MA1101761999999MD1110031+9999MW1001REMAWY008/ 103 28
006172458603919197301130100D+38800-097650SAO  +0391SLN  V0201901N006612200019N0112001N1-00611-00941102001ADDAA101000095GF100991999999999999999999MA1101761999999MW1001
006172458603919197301130200D+38800-097650SAO  +0391SLN  V0201901N007212200019N0112001N1-00721-01001101971ADDAA101000095GF100991999999999999999999MA1101731999999MW1001
008972458603919197301130300D+38800-097650SAO  +0391SLN  V0202001N006612200019N0112001N1-00721-01001102011ADDAA101000095GF100991999999999999999999MA1101761999999MD1510001+9999MW1001REMAWY005/ 500
006172458603919197301130400D+38800-097650SAO  +0391SLN  V0202001N006112200019N0112001N1-00771-01001101991ADDAA101000095GF100991999999999999999999MA1101761999999MW1001
006172458603919197301130500D+38800-097650SAO  +0391SLN  V0201901N004112200019N0112001N1-00661-01271101911ADDAA101000095GF100991999999999999999999MA1101691999999MW1001
010572458603919197301130600D+38800-097650SAO  +0391SLN  V0201901N004112200019N0144001N1-00771-01111101851ADDAA101000095GF100991999999999999999999KA1999M-00231MA1101661999999MD1710101+9999MW1001REMAWY008/ 710 28
007672458603919197301130700D+38800-097650SAO  +0391SLN  V0201801N005112200019N0112001N1-00771-01111101821ADDAA101000095GD12991+0900093GF102991999999999999999999MA1101631999999MW1001
007672458603919197301130800D+38800-097650SAO  +0391SLN  V0201701N004112200019N0112001N1-00771-01111101811ADDAA101000095GD12991+0900093GF102991999999999999999999MA1101631999999MW1001
010472458603919197301130900D+38800-097650SAO  +0391SLN  V0201801N00411030001EN0112001N1-00661-01001101841ADDAA101000095GD14991+0300099GF108991999999999999999999MA1101661999999MD1510001+9999MW1001REMAWY005/ 500
007672458603919197301131000D+38800-097650SAO  +0391SLN  V0201701N00611030001EN0112001N1-00611-00881101761ADDAA101000095GD14991+0300099GF108991999999999999999999MA1101591999999MW1001
007672458603919197301131100D+38800-097650SAO  +0391SLN  V0201701N005112200019N0112001N1-00721-01051101661ADDAA101000095GD12991+0750093GF102991999999999999999999MA1101491999999MW1001
014372458603919197301131200D+38800-097650SAO  +0391SLN  V0201601N002512200019N0112001N1-00721-01051101681ADDAA101000095AJ100109199999999GD12991+0750093GF102991999999999999999999KA1999N-00781MA1101491999999MD1610171+9999MW1001REMAWY014/   7 90404 18
007672458603919197301131300D+38800-097650SAO  +0391SLN  V0202001N006112200019N0112001N1-00551-00831101701ADDAA101000095GD12991+0750093GF102991999999999999999999MA1101521999999MW1001
007872458603919197301131400D+38800-097650SAO  +0391SLN  V0201801N004612200019N0112001N1-00611-00881101731ADDAA101000095GF100991999999999999999999MA1101521999999MW1001REMAWY008FEW AC S
008972458603919197301131500D+38800-097650SAO  +0391SLN  V0201901N003612200019N0112001N1-00551-00831101841ADDAA101000095GF100991999999999999999999MA1101661999999MD1210151+9999MW1001REMAWY005/ 215
006172458603919197301131600D+38800-097650SAO  +0391SLN  V0202101N003612200019N0112001N1-00161-00611101941ADDAA101000095GF100991999999999999999999MA1101761999999MW1001
007672458603919197301131700D+38800-097650SAO  +0391SLN  V0201801N002512200019N0144001N1+00271-00381101911ADDAA101000095GD12991+0750093GF102991999999999999999999MA1101761999999MW1001
012672458603919197301131800D+38800-097650SAO  +0391SLN  V0202901N004112200019N0144001N1+00721+00001101891ADDAA101000095GD12991+0750099GF102991999081999999001999MA1101761999999MD1110121+9999MW1001REMAWY008/ 112 18EQDQ01    003SCOHCG
009172458603919197301131900D+38800-097650SAO  +0391SLN  V0202901N006610750019N0144001N1+00661+00001101841ADDAA101000095GD12991+0360099GD23991+0750099GF107991999999999999999999MA1101691999999MW1001
009172458603919197301132000D+38800-097650SAO  +0391SLN  V0202801N003610750019N0144001N1+00611+00051101841ADDAA101000095GD12991+0360099GD23991+0750099GF107991999999999999999999MA1101691999999MW1001
011972458603919197301132100D+38800-097650SAO  +0391SLN  V0202901N002510750019N0144001N1+00611+00221101841ADDAA101000095GD12991+0360099GD23991+0750099GF107991999999999999999999MA1101691999999MD1610051+9999MW1001REMAWY005/ 605
007672458603919197301132200D+38800-097650SAO  +0391SLN  V0202701N002512200019N0144001N1+00611+00221101891ADDAA101000095GD12991+0750093GF102991999999999999999999MA1101801999999MW1001
006172458603919197301132300D+38800-097650SAO  +0391SLN  V0209991C000012200019N0144001N1+00771+00111101981ADDAA101000095GF100991999999999999999999MA1101861999999MW1001
010572458603919197301140000D+38800-097650SAO  +0391SLN  V0209991C000012200019N0144001N1+00441+00001102031ADDAA101000095GF100991999999999999999999KA1999M+00771MA1101901999999MD1210191+9999MW1001REMAWY008/ 219 46
006172458603919197301140100D+38800-097650SAO  +0391SLN  V0202201N002512200019N0144001N1+00161-00051102081ADDAA101000095GF100991999999999999999999MA1101931999999MW1001
006172458603919197301140200D+38800-097650SAO  +0391SLN  V0202301N002512200019N0144001N1+00111+00001102081ADDAA101000095GF100991999999999999999999MA1101931999999MW1001
008972458603919197301140300D+38800-097650SAO  +0391SLN  V0201901N003012200019N0144001N1-00051-00221102131ADDAA101000095GF100991999999999999999999MA1101961999999MD1310071+9999MW1001REMAWY005/ 307
006172458603919197301140400D+38800-097650SAO  +0391SLN  V0202201N002512200019N0144001N1+00001-00111102141ADDAA101000095GF100991999999999999999999MA1102001999999MW1001
006172458603919197301140500D+38800-097650SAO  +0391SLN  V0201601N002012200019N0144001N1-00161-00271102121ADDAA101000095GF100991999999999999999999MA1102001999999MW1001
010572458603919197301140600D+38800-097650SAO  +0391SLN  V0209991C000012200019N0144001N1+00001-00051102021ADDAA101000095GF100991999999999999999999KA1999M+00771MA1101931999999MD1810031+9999MW1001REMAWY008/ 803 46
007672458603919197301140700D+38800-097650SAO  +0391SLN  V0201701N002012200019N0144001N1-00051-00111101971ADDAA101000095GD12991+0750093GF102991999999999999999999MA1101901999999MW1001
006172458603919197301140800D+38800-097650SAO  +0391SLN  V0209991C000012200019N0144001N1-00051-00111102001ADDAA101000095GF100991999999999999999999MA1101901999999MW1001
008972458603919197301140900D+38800-097650SAO  +0391SLN  V0201901N002512200019N0144001N1+00001-00161101951ADDAA101000095GF100991999999999999999999MA1101861999999MD1710071+9999MW1001REMAWY005/ 707
006172458603919197301141000D+38800-097650SAO  +0391SLN  V0201801N002512200019N0144001N1+00271+00001101981ADDAA101000095GF100991999999999999999999MA1101901999999MW1001
006172458603919197301141100D+38800-097650SAO  +0391SLN  V0202401N003612200019N0144001N1+00161-00111101921ADDAA101000095GF100991999999999999999999MA1101831999999MW1001
012872458603919197301141200D+38800-097650SAO  +0391SLN  V0202401N004112200019N0144001N1+00331+00001101921ADDAA101000095AJ100059199999999GF100991999999999999999999KA1999N-00171MA1101831999999MD1810021+9999MW1001REMAWY014/ 802 90402 29
007672458603919197301141300D+38800-097650SAO  +0391SLN  V0201801N003012200019N0144001N1+00331+00001101941ADDAA101000095GD13991+0750093GF107991999999999999999999MA1101831999999MW1001
009172458603919197301141400D+38800-097650SAO  +0391SLN  V0209991C000010750019N0144001N1+00331+00001101951ADDAA101000095GD12991+0300099GD24991+0750099GF108991999999999999999999MA1101831999999MW1001
011972458603919197301141500D+38800-097650SAO  +0391SLN  V0203001N002510750019N0112001N1+00331+00001102051ADDAA101000095GD12991+0300099GD24991+0750099GF108991999999999999999999MA1101931999999MD1310081+9999MW1001REMAWY005/ 308
007672458603919197301141600D+38800-097650SAO  +0391SLN  V0203001N00511075001EN0112001N1+00611+00111102071ADDAA101000095GD13991+0750099GF107991999999999999999999MA1101961999999MW1001
007672458603919197301141700D+38800-097650SAO  +0391SLN  V0203001N00611075001EN0112001N1+00721+00111102151ADDAA101000095GD13991+0750099GF107991999999999999999999MA1102031999999MW1001
012072458603919197301141800D+38800-097650SAO  +0391SLN  V0203001N006112200019N0112001N1+00721+00111102151ADDAA101000095GD13991+0750093GF107991999999999999999999KA1999N-00171MA1102031999999MD1110101+9999MW1001REMAWY008/ 110 29
007672458603919197301141900D+38800-097650SAO  +0391SLN  V0203001N005612200019N0112001N1+00831+00221102051ADDAA101000095GD13991+0750093GF107991999999999999999999MA1101961999999MW1001
007672458603919197301142000D+38800-097650SAO  +0391SLN  V0203001N004112200019N0112001N1+00771+00331101971ADDAA101000095GD13991+0750093GF107991999999999999999999MA1101861999999MW1001
010472458603919197301142100D+38800-097650SAO  +0391SLN  V0203101N004112200019N0112001N1+00941+00381102021ADDAA101000095GD13991+0750093GF107991999999999999999999MA1101931999999MD1510101+9999MW1001REMAWY005/ 510
007672458603919197301142200D+38800-097650SAO  +0391SLN  V0203201N001512200019N0112001N1+01001+00441102071ADDAA101000095GD13991+0750093GF107991999999999999999999MA1102001999999MW1001
007672458603919197301142300D+38800-097650SAO  +0391SLN  V0202901N00251075001EN0112001N1+00611+00381102141ADDAA101000095GD13991+0750099GF107991999999999999999999MA1102071999999MW1001
012372458603919197301150000D+38800-097650SAO  +0391SLN  V0203101N002512200019N0112001N1+00441+00271102211ADDAA101000095GD12991+0750093GF102991999999999999999999MA1102131999999MD1210191+9999MW1001REMAWY024/ 219 50?SLN 1/7 LOC OTS
006172458603919197301150100D+38800-097650SAO  +0391SLN  V0203101N002012200019N0144001N1+00331+00221102251ADDAA101000095GF100991999999999999999999MA1102171999999MW1001
006172458603919197301150200D+38800-097650SAO  +0391SLN  V0209991C000012200019N0144001N1+00271+00051102331ADDAA101000095GF100991999999999999999999MA1102241999999MW1001
008972458603919197301150300D+38800-097650SAO  +0391SLN  V0209991C000012200019N0144001N1+00111-00051102351ADDAA101000095GF100991999999999999999999MA1102241999999MD1110101+9999MW1001REMAWY005/ 110
006172458603919197301150400D+38800-097650SAO  +0391SLN  V0209991C000012200019N0144001N1+00161+00051102361ADDAA101000095GF100991999999999999999999MA1102271999999MW1001
006172458603919197301150500D+38800-097650SAO  +0391SLN  V0209991C000012200019N0144001N1+00001-00111102311ADDAA101000095GF100991999999999999999999MA1102241999999MW1001
010572458603919197301150600D+38800-097650SAO  +0391SLN  V0209991C000012200019N0144001N1+00001-00051102361ADDAA101000095GF100991999999999999999999KA1999M+01001MA1102271999999MD1210031+9999MW1001REMAWY008/ 203 50
006172458603919197301150700D+38800-097650SAO  +0391SLN  V0202101N005112200019N0112001N1+00111+00001102341ADDAA101000095GF100991999999999999999999MA1102271999999MW1001
006172458603919197301150800D+38800-097650SAO  +0391SLN  V0209991C000012200019N0112001N1+00001-00111102391ADDAA101000095GF100991999999999999999999MA1102301999999MW1001
008972458603919197301150900D+38800-097650SAO  +0391SLN  V0209991C000012200019N0112001N1-00111-00221102391ADDAA101000095GF100991999999999999999999MA1102301999999MD1110031+9999MW1001REMAWY005/ 103
006172458603919197301151000D+38800-097650SAO  +0391SLN  V0209991C000012200019N0112001N1-00111-00271102381ADDAA101000095GF100991999999999999999999MA1102301999999MW1001
006172458603919197301151100D+38800-097650SAO  +0391SLN  V0209991C000012200019N0112001N1-00161-00221102371ADDAA101000095GF100991999999999999999999MA1102271999999MW1001
012872458603919197301151200D+38800-097650SAO  +0391SLN  V0201701N002512200019N0112001N1-00051-00221102371ADDAA101000095AJ100039199999999GF100991999999999999999999KA1999N-00171MA1102271999999MD1610031+9999MW1001REMAWY014/ 603 90401 29
006172458603919197301151300D+38800-097650SAO  +0391SLN  V0209991C000012200019N0112001N1-00221-00381102471ADDAA101000095GF100991999999999999999999MA1102341999999MW1001
006172458603919197301151400D+38800-097650SAO  +0391SLN  V0209991C000012200019N0112001N1-00331-00441102411ADDAA101000095GF100991999999999999999999MA1102271999999MW1001
008972458603919197301151500D+38800-097650SAO  +0391SLN  V0201901N002012200019N0112001N1+00001-00161102461ADDAA101000095GF100991999999999999999999MA1102341999999MD1210071+9999MW1001REMAWY005/ 207
006172458603919197301151600D+38800-097650SAO  +0391SLN  V0209991C000012200019N0112001N1+00331+00051102471ADDAA101000095GF100991999999999999999999MA1102371999999MW1001
006172458603919197301151700D+38800-097650SAO  +0391SLN  V0201501N001512200019N0112001N1+00441+00221102521ADDAA101000095GF100991999999999999999999MA1102401999999MW1001
010572458603919197301151800D+38800-097650SAO  +0391SLN  V0201701N004112200019N0112001N1+00721+00381102401ADDAA101000095GF100991999999999999999999KA1999N-00341MA1102301999999MD1810031+9999MW1001REMAWY008/ 803 26
006172458603919197301151900D+38800-097650SAO  +0391SLN  V0201701N005612200019N0112001N1+00831+00501102231ADDAA101000095GF100991999999999999999999MA1102131999999MW1001
006172458603919197301152000D+38800-097650SAO  +0391SLN  V0201701N005612200019N0112001N1+00941+00501102141ADDAA101000095GF100991999999999999999999MA1102071999999MW1001
008972458603919197301152100D+38800-097650SAO  +0391SLN  V0201701N006112200019N0112001N1+01001+00441102101ADDAA101000095GF100991999999999999999999MA1102031999999MD1710271+9999MW1001REMAWY005/ 727
006172458603919197301152200D+38800-097650SAO  +0391SLN  V0201601N003612200019N0112001N1+00941+00381102071ADDAA101000095GF100991999999999999999999MA1102001999999MW1001
006172458603919197301152300D+38800-097650SAO  +0391SLN  V0201601N004112200019N0112001N1+00771+00271102071ADDAA101000095GF100991999999999999999999MA1102001999999MW1001
010572458603919197301160000D+38800-097650SAO  +0391SLN  V0201701N004112200019N0112001N1+00501+00161102061ADDAA101000095GF100991999999999999999999KA1999M+01001MA1101961999999MD1710071+9999MW1001REMAWY008/ 707 50
006172458603919197301160100D+38800-097650SAO  +0391SLN  V0201601N005112200019N0112001N1+00271+00001102031ADDAA101000095GF100991999999999999999999MA1101931999999MW1001
006172458603919197301160200D+38800-097650SAO  +0391SLN  V0201701N005112200019N0112001N1+00221-00051102031ADDAA101000095GF100991999999999999999999MA1101901999999MW1001
008972458603919197301160300D+38800-097650SAO  +0391SLN  V0201901N005112200019N0112001N1+00221+00051101981ADDAA101000095GF100991999999999999999999MA1101861999999MD1710081+9999MW1001REMAWY005/ 708
006172458603919197301160400D+38800-097650SAO  +0391SLN  V0201901N007212200019N0112001N1+00381+00111101871ADDAA101000095GF100991999999999999999999MA1101801999999MW1001
006172458603919197301160500D+38800-097650SAO  +0391SLN  V0201901N006612200019N0112001N1+00441+00111101851ADDAA101000095GF100991999999999999999999MA1101761999999MW1001
010572458603919197301160600D+38800-097650SAO  +0391SLN  V0201901N006112200019N0112001N1+00381+00111101801ADDAA101000095GF100991999999999999999999KA1999M+01001MA1101731999999MD1710081+9999MW1001REMAWY008/ 708 50
006172458603919197301160700D+38800-097650SAO  +0391SLN  V0201901N007712200019N0112001N1+00381+00111101731ADDAA101000095GF100991999999999999999999MA1101661999999MW1001
006172458603919197301160800D+38800-097650SAO  +0391SLN  V0201901N006112200019N0112001N1+00271+00001101671ADDAA101000095GF100991999999999999999999MA1101591999999MW1001
008972458603919197301160900D+38800-097650SAO  +0391SLN  V0201801N005612200019N0112001N1+00271+99999101631ADDAA101000095GF100991999999999999999999MA1101561999999MD1610171+9999MW1001REMAWY005/   7
007672458603919197301161000D+38800-097650SAO  +0391SLN  V0201801N006112200019N0112001N1+00271+00221101551ADDAA101000095GD13991+0750093GF107991999999999999999999MA1101491999999MW1001
007672458603919197301161100D+38800-097650SAO  +0391SLN  V0201801N005612200019N0112001N1+00271+00161101461ADDAA101000095GD13991+0750093GF107991999999999999999999MA1101391999999MW1001
010572458603919197301161300D+38800-097650SAO  +0391SLN  V0201801N007712200019N0112001N1+00221+00161101371ADDAA101000095GD13991+0750093GF107991999999999999999999MA1101251999999MW1001REMAWY020?SLN 1/8 MHK VOR OTS
009372458603919197301161400D+38800-097650SAO  +0391SLN  V0201801N006612200019N0112001N1+00271+00161101361ADDAA101000095GD13991+0750093GF107991999999999999999999MA1101251999999MW1001REMAWY008?SLN?1/8
010472458603919197301161500D+38800-097650SAO  +0391SLN  V0201801N007712200019N0112001N1+00381+00221101341ADDAA101000095GD14991+0750093GF108991999999999999999999MA1101251999999MD1610051+9999MW1001REMAWY005/ 605
007672458603919197301161600D+38800-097650SAO  +0391SLN  V0201801N007712200019N0112001N1+00441+00271101331ADDAA101000095GD13991+0750093GF107991999999999999999999MA1101251999999MW1001
008472458603919197301161700D+38800-097650SAO  +0391SLN  V0201801N009212200019N0112001N1+00721+00381101311ADDAA101000095GD13991+0750093GF107991999999999999999999MA1101251999999MW1001OC101281
012872458603919197301161800D+38800-097650SAO  +0391SLN  V0201901N009212200019N0112001N1+00831+00381101211ADDAA101000095GD14991+0750093GF108991999999999999999999KA1999N+00221MA1101151999999MD1810101+9999MW1001OC101281REMAWY008/ 810 36
008472458603919197301161900D+38800-097650SAO  +0391SLN  V0201801N00721075001EN0112001N1+00881+00441101071ADDAA101000095GD14991+0750099GF108991999999999999999999MA1101021999999MW1001OC101021
008472458603919197301162000D+38800-097650SAO  +0391SLN  V0201801N006112200019N0112001N1+01001+00551101001ADDAA101000095GD14991+0750093GF108991999999999999999999MA1100951999999MW1001OC100921
010472458603919197301162100D+38800-097650SAO  +0391SLN  V0201801N006612200019N0112001N1+01051+00611100961ADDAA101000095GD14991+0750093GF108991999999999999999999MA1100911999999MD1610241+9999MW1001REMAWY005/   4
007672458603919197301162200D+38800-097650SAO  +0391SLN  V0201801N008212200019N0112001N1+01051+00611100961ADDAA101000095GD13991+0750093GF107991999999999999999999MA1100911999999MW1001
007672458603919197301162300D+38800-097650SAO  +0391SLN  V0201701N006112200019N0112001N1+00831+00501101001ADDAA101000095GD12991+0750093GF102991999999999999999999MA1100951999999MW1001
012072458603919197301170000D+38800-097650SAO  +0391SLN  V0201801N007712200019N0112001N1+00661+00501101001ADDAA101000095GD12991+0750093GF102991999999999999999999KA1999M+01051MA1100951999999MD1210031+9999MW1001REMAWY008/ 203 51
007672458603919197301170100D+38800-097650SAO  +0391SLN  V0201901N008212200019N0112001N1+00661+00551100971ADDAA101000095GD12991+0750093GF102991999999999999999999MA1100911999999MW1001
006172458603919197301170200D+38800-097650SAO  +0391SLN  V0201901N009812200019N0112001N1+00611+00611101051ADDAA101000095GF100991999999999999999999MA1100981096411MW1001
009072458603919197301170300D+38800-097650SAO  +0391SLN  V0202001N010312200019N0080001N1+00721+00721101051ADDAA101000095GD13991+0015093GF107991999999999999999999MA1100981096411MD1310031+9999MW1451
007672458603919197301170400D+38800-097650SAO  +0391SLN  V0201801N00821002101MN0080001N1+00831+00831101041ADDAA101000095GD14991+0021099GF108991999999999999999999MA1100981096411MW1451
007672458603919197301170500D+38800-097650SAO  +0391SLN  V0201801N01031002101MN0064001N1+00831+00831100911ADDAA101000095GD14991+0021099GF108991999999999999999999MA1100881096311MW1451
010372458603919197301170600D+38800-097650SAO  +0391SLN  V0201801N00621001801MN0064001N1+00831+00831100911ADDAA101000095GD14991+0018099GF108991999999999999999999KA1999M+01051MA1100881096311MD1710101+9999MW1451
007672458603919197301170700D+38800-097650SAO  +0391SLN  V0201901N00411001801MN0064001N1+00831+00721100851ADDAA101000095GD14991+0018099GF108991999999999999999999MA1100811999999MW1451
010572458603919197301170800D+38800-097650SAO  +0391SLN  V0201901N00771001801MN0064001N1+00831+00721100741ADDAA101000095GD14991+0018099GF108991999999999999999999MA1100711999999MW1451REMAWY020MOON OCNLY DMLY VSBL
011272458603919197301170900D+38800-097650SAO  +0391SLN  V0201901N00721001801MN0064001N1+00831+00721100701ADDAA101000095GD14991+0018099GF108991999999999999999999MA1100681999999MD1710191+9999MW1451OC101021REMAWY005/ 719
008472458603919197301171000D+38800-097650SAO  +0391SLN  V0201801N00721001801MN0064001N1+00831+00721100671ADDAA101000095GD14991+0018099GF108991999999999999999999MA1100641999999MW1451OC101021
007672458603919197301171100D+38800-097650SAO  +0391SLN  V0201901N00871002101MN0064001N1+00831+00771100641ADDAA101000095GD14991+0021099GF108991999999999999999999MA1100611999999MW1451
012072458603919197301171200D+38800-097650SAO  +0391SLN  V0201901N00921002101MN0064001N1+00881+00771100581ADDAA101000095GD14991+0021099GF108991999999999999999999KA1999N+00611MA1100541999999MD1710141+9999MW1451REMAWY008/ 714 43
009872458603919197301171300D+38800-097650SAO  +0391SLN  V0201801N00871002701MN0064001N1+00881+00771100541ADDAA101000095GD14991+0027099GF108991999999999999999999MA1100511999999MW1451REMAWY01322?30 CLR ABV
010072458603919197301171400D+38800-097650SAO  +0391SLN  V0201801N00771002701EN0064001N1+00831+00721100501ADDAA101000095GD14991+0027099GF108991999999999999999999MA1100471999999MW1451REMAWY015OCNL SML BINOVC
010472458603919197301171500D+38800-097650SAO  +0391SLN  V0201801N00821002701EN0112001N1+00831+00661100541ADDAA101000095GD14991+0027099GF108991999999999999999999MA1100511999999MD1710031+9999MW1001REMAWY005/ 703
008472458603919197301171600D+38800-097650SAO  +0391SLN  V0201901N00921003301EN0112001N1+00941+00721100531ADDAA101000095GD14991+0033099GF108991999999999999999999MA1100511999999MW1001OC101281
008472458603919197301171700D+38800-097650SAO  +0391SLN  V0201901N00971003901EN0112001N1+01051+00721100531ADDAA101000095GD13991+0039099GF107991999999999999999999MA1100511999999MW1001OC101281
012872458603919197301171800D+38800-097650SAO  +0391SLN  V0201901N009212200019N0112001N1+01161+00721100421ADDAA101000095GD12991+0039099GF102991999999999999999999KA1999N+00611MA1100411999999MD1810101+9999MW1001OC101281REMAWY008/ 810 43
008472458603919197301171900D+38800-097650SAO  +0391SLN  V0201901N009712200019N0112001N1+01271+00771100301ADDAA101000095GD12991+0045099GF102991999999999999999999MA1100311999999MW1001OC101281
008472458603919197301172000D+38800-097650SAO  +0391SLN  V0201901N010212200019N0112001N1+01381+00881100201ADDAA101000095GD12991+0045099GF102991999999999999999999MA1100201999999MW1001OC101801
012772458603919197301172100D+38800-097650SAO  +0391SLN  V0201801N010812200019N0112001N1+01381+01001100171ADDAA101000095GD12991+0045099GD23991+0900093GF107991999999999999999999MA1100171999999MD1710221+9999MW1001OC101491REMAWY005/ 722
009972458603919197301172200D+38800-097650SAO  +0391SLN  V0201801N010212200019N0112001N1+01441+01051100101ADDAA101000095GD12991+0045099GD23991+0900093GF107991999999999999999999MA1100101999999MW1001OC101541
009972458603919197301172300D+38800-097650SAO  +0391SLN  V0201701N007712200019N0112001N1+01331+00941100141ADDAA101000095GD12991+0045099GD23991+0900093GF107991999999999999999999MA1100141999999MW1001OC101281
015872458603919197301180000D+38800-097650SAO  +0391SLN  V0201701N006110210019N0112001N1+01271+00941100111ADDAA101000095GD12991+0075099GD23991+0210099GD34991+0900099GF108991999999999999999999KA1999M+01441MA1100101999999MD1710071+9999MW1001OC101131REMAWY008/ 707 58
006972458603919197301180100D+38800-097650SAO  +0391SLN  V0201701N009310300019N0112001N1+01281+00941100111ADDAA101000095GF108991999999999999999999MA1100101095561MW1001OC101541
009972458603919197301180200D+38800-097650SAO  +0391SLN  V0201701N00771030001EN0112001N1+01221+01001100101ADDAA101000095GD13991+0300099GD24991+0750099GF108991999999999999999999MA1100101999999MW1001OC101281
012772458603919197301180300D+38800-097650SAO  +0391SLN  V0201701N00611030001EN0112001N1+01221+01001100111ADDAA101000095GD13991+0300099GD24991+0750099GF108991999999999999999999MA1100101999999MD1410001+9999MW1001OC101131REMAWY005/ 400
009972458603919197301180400D+38800-097650SAO  +0391SLN  V0201801N006110750019N0112001N1+01221+01001100111ADDAA101000095GD12991+0300099GD23991+0750099GF107991999999999999999999MA1100101999999MW1001OC101021
008472458603919197301180500D+38800-097650SAO  +0391SLN  V0201801N00511075001EN0112001N1+01111+00881100111ADDAA101000095GD13991+0750099GF107991999999999999999999MA1100101999999MW1001OC100921
016072458603919197301180600D+38800-097650SAO  +0391SLN  V0201901N00511009001AN0112001N1+01111+00881100101ADDAA101000095GD13991+0090099GD23991+0750099GF107991999999999999999999KA1999M+01441MA1100101999999MD1410001+9999MW1001OC101021REMAWY025/ UA 0537 10 N 30? 400 58
009172458603919197301180700D+38800-097650SAO  +0391SLN  V0202201N003612200019N0112001N1+01001+00881100141ADDAA101000095GD12991+0090099GD23991+0750093GF107991999999999999999999MA1100141999999MW1001
007672458603919197301180800D+38800-097650SAO  +0391SLN  V0209991C00001004801MN0112001N1+00831+00771100141ADDAA101000095GD14991+0048099GF108991999999999999999999MA1100141999999MW1001
009872458603919197301180900D+38800-097650SAO  +0391SLN  V0203001N00511008101MN0112001N1+00771+00661100141ADDAA101000095GD13991+0081099GF107991999999999999999999MA1100141999999MW1001REMAWY013/ 103?SLN?1/9
009472458603919197301181000D+38800-097650SAO  +0391SLN  V0209991C00001000601WN0004001N1+00331+99999100231ADDAA101000095GD15991+0006099GF109991999999999999999999MA1100201999999MW1451REMAWY009?SLN C1/9
007672458603919197301181100D+38800-097650SAO  +0391SLN  V0203001N00921000601WN0008001N1+00331+99999100311ADDAA101000095GD15991+0006099GF109991999999999999999999MA1100311999999MW1451
011572458603919197301181200D+38800-097650SAO  +0391SLN  V0203101N007212200019N0112001N1+00271+00111100441ADDAA101000095GD12991+0045099GF102991999999999999999999MA1100411999999MD1310251+9999MW1001OC101021REMAWY008/ 325 37
006972458603919197301181300D+38800-097650SAO  +0391SLN  V0203101N007212200019N0112001N1+00271+00051100541ADDAA101000095GF100991999999999999999999MA1100511999999MW1001OC101021
007672458603919197301181400D+38800-097650SAO  +0391SLN  V0203001N007712200019N0144001N1+00221+00051100581ADDAA101000095GD12991+0240099GF102991999999999999999999MA1100541999999MW1001
011972458603919197301181500D+38800-097650SAO  +0391SLN  V0203101N008210750019N0144001N1+00441+00161100741ADDAA101000095GD12991+0240099GD23991+0750099GF107991999999999999999999MA1100711999999MD1210301+9999MW1001REMAWY005/ 230
007672458603919197301181600D+38800-097650SAO  +0391SLN  V0203001N01281024001EN0144001N1+00611+00271100801ADDAA101000095GD13991+0240099GF107991999999999999999999MA1100781999999MW1001
009172458603919197301181700D+38800-097650SAO  +0391SLN  V0203101N01021015001EN0144001N1+00771+00381100901ADDAA101000095GD13991+0150099GD23991+0300099GF107991999999999999999999MA1100881999999MW1001
012072458603919197301181800D+38800-097650SAO  +0391SLN  V0203001N01021015001EN0112001N1+00771+00271101061ADDAA101000095GD14991+0150099GF108991999999999999999999KA1999N+00271MA1100951999999MD1310221+9999MW1001REMAWY008/ 322 37
007672458603919197301181900D+38800-097650SAO  +0391SLN  V0203001N00921015001EN0112001N1+00881+00271100941ADDAA101000095GD14991+0150099GF108991999999999999999999MA1100911999999MW1001
008472458603919197301182000D+38800-097650SAO  +0391SLN  V0203201N009212200019N0112001N1+01111+00271100941ADDAA101000095GD12991+0150099GF102991999999999999999999MA1100911999999MW1001OC101381
008972458603919197301182100D+38800-097650SAO  +0391SLN  V0203001N009212200019N0112001N1+01161+00221100991ADDAA101000095GF100991999999999999999999MA1100981999999MD1310031+9999MW1001REMAWY005/ 303
006172458603919197301182200D+38800-097650SAO  +0391SLN  V0203001N010212200019N0112001N1+01161+00221101091ADDAA101000095GF100991999999999999999999MA1101051999999MW1001
006172458603919197301182300D+38800-097650SAO  +0391SLN  V0203001N008712200019N0112001N1+01051+00221101221ADDAA101000095GF100991999999999999999999MA1101191999999MW1001
010572458603919197301190000D+38800-097650SAO  +0391SLN  V0203101N005612200019N0112001N1+00831+00111101311ADDAA101000095GF100991999999999999999999KA1999M+01161MA1101251999999MD1310251+9999MW1001REMAWY008/ 325 53
006172458603919197301190100D+38800-097650SAO  +0391SLN  V0202701N004612200019N0112001N1+00501+00111101381ADDAA101000095GF100991999999999999999999MA1101321999999MW1001
006172458603919197301190200D+38800-097650SAO  +0391SLN  V0202701N004112200019N0112001N1+00441+00001101441ADDAA101000095GF100991999999999999999999MA1101351999999MW1001
008972458603919197301190300D+38800-097650SAO  +0391SLN  V0202501N004112200019N0112001N1+00441+00051101491ADDAA101000095GF100991999999999999999999MA1101421999999MD1210171+9999MW1001REMAWY005/ 217
006172458603919197301190400D+38800-097650SAO  +0391SLN  V0202701N005612200019N0112001N1+00271+00111101461ADDAA101000095GF100991999999999999999999MA1101391999999MW1001
006172458603919197301190500D+38800-097650SAO  +0391SLN  V0202001N002512200019N0112001N1+00161+00051101491ADDAA101000095GF100991999999999999999999MA1101421999999MW1001
010572458603919197301190600D+38800-097650SAO  +0391SLN  V0209991C000012200019N0112001N1-00051-00111101511ADDAA101000095GF100991999999999999999999KA1999M+00831MA1101421999999MD1410001+9999MW1001REMAWY008/ 400 47
006172458603919197301190700D+38800-097650SAO  +0391SLN  V0209991C000012200019N0112001N1-00111-00221101421ADDAA101000095GF100991999999999999999999MA1101351999999MW1001
006172458603919197301190800D+38800-097650SAO  +0391SLN  V0201701N004112200019N0112001N1-00051-00161101421ADDAA101000095GF100991999999999999999999MA1101351999999MW1001
008972458603919197301190900D+38800-097650SAO  +0391SLN  V0201801N003012200019N0112001N1-00111-00271101451ADDAA101000095GF100991999999999999999999MA1101391999999MD1510031+9999MW1001REMAWY005/ 503
006172458603919197301191000D+38800-097650SAO  +0391SLN  V0201801N002512200019N0112001N1-00051-00221101401ADDAA101000095GF100991999999999999999999MA1101351999999MW1001
006172458603919197301191100D+38800-097650SAO  +0391SLN  V0201601N002512200019N0112001N1-00051-00221101381ADDAA101000095GF100991999999999999999999MA1101321999999MW1001
010572458603919197301191200D+38800-097650SAO  +0391SLN  V0201601N002512200019N0112001N1-00221-00331101371ADDAA101000095GF100991999999999999999999KA1999N-00231MA1101291999999MD1710101+9999MW1001REMAWY008/ 710 28
006172458603919197301191300D+38800-097650SAO  +0391SLN  V0201601N002512200019N0112001N1-00111-00331101321ADDAA101000095GF100991999999999999999999MA1101251999999MW1001
007672458603919197301191400D+38800-097650SAO  +0391SLN  V0201501N002512200019N0112001N1-00221-00271101321ADDAA101000095GD12991+0900093GF102991999999999999999999MA1101251999999MW1001
010472458603919197301191500D+38800-097650SAO  +0391SLN  V0201401N002012200019N0112001N1+00051-00161101321ADDAA101000095GD12991+0900093GF102991999999999999999999MA1101251999999MD1610031+9999MW1001REMAWY005/ 603
007672458603919197301191600D+38800-097650SAO  +0391SLN  V0201601N004112200019N0112001N1+00271+00001101391ADDAA101000095GD12991+0900093GF102991999999999999999999MA1101291999999MW1001
007672458603919197301191700D+38800-097650SAO  +0391SLN  V0201501N006112200019N0112001N1+00771+00331101321ADDAA101000095GD12991+0900093GF102991999999999999999999MA1101251999999MW1001
012572458603919197301191800D+38800-097650SAO  +0391SLN  V0201701N007712200019N0112001N1+01111+00331101131ADDAA101000095GD12991+0900093GF102991999999999999999999KA1999N-00231MA1101051999999MD1810191+9999MW1001REMAWY013PRESFR 819 28
008472458603919197301191900D+38800-097650SAO  +0391SLN  V0201501N009212200019N0112001N1+01221+00381100991ADDAA101000095GD12991+0750093GF102991999999999999999999MA1100911999999MW1001OC101541
009972458603919197301192000D+38800-097650SAO  +0391SLN  V0201501N006112200019N0112001N1+01221+00381100771ADDAA101000095GD13991+0750093GF107991999999999999999999MA1100711999999MW1001OC101021REMAWY006PRESFR
011272458603919197301192100D+38800-097650SAO  +0391SLN  V0201501N007212200019N0112001N1+01161+00501100641ADDAA101000095GD13991+0750093GF107991999999999999999999MA1100581999999MD1710121+9999MW1001OC101021REMAWY005/ 712
008472458603919197301192200D+38800-097650SAO  +0391SLN  V0201601N00511075001EN0112001N1+01111+00551100671ADDAA101000095GD13991+0750099GF107991999999999999999999MA1100611999999MW1001OC100921
009172458603919197301192300D+38800-097650SAO  +0391SLN  V0201701N007710750019N0112001N1+01051+00611100641ADDAA101000095GD12991+0300099GD23991+0750099GF107991999999999999999999MA1100581999999MW1001
013572458603919197301200000D+38800-097650SAO  +0391SLN  V0201501N003010750019N0112001N1+00941+00611100651ADDAA101000095GD12991+0300099GD23991+0750099GF107991999999999999999999KA1999M+01221MA1100581999999MD1010001+9999MW1001REMAWY008/ 000 54
009172458603919197301200100D+38800-097650SAO  +0391SLN  V0201101N003010750019N0112001N1+00831+00611100621ADDAA101000095GD12991+0300099GD23991+0750099GF107991999999999999999999MA1100541999999MW1001
009172458603919197301200200D+38800-097650SAO  +0391SLN  V0201301N004110750019N0112001N1+00881+00551100621ADDAA101000095GD12991+0300099GD24991+0750099GF108991999999999999999999MA1100541999999MW1001
010472458603919197301200300D+38800-097650SAO  +0391SLN  V0201201N00461075001EN0112001N1+00721+00441100621ADDAA101000095GD14991+0750099GF108991999999999999999999MA1100541999999MD1610031+9999MW1001REMAWY005/ 603
009172458603919197301200400D+38800-097650SAO  +0391SLN  V0201001N003610750019N0112001N1+00661+00441100651ADDAA101000095GD12991+0300099GD23991+0750099GF107991999999999999999999MA1100581999999MW1001
009172458603919197301200500D+38800-097650SAO  +0391SLN  V0201001N004610750019N0112001N1+00611+00381100631ADDAA101000095GD12991+0300099GD23991+0750099GF107991999999999999999999MA1100581999999MW1001
013572458603919197301200600D+38800-097650SAO  +0391SLN  V0201101N004110750019N0112001N1+00611+00441100601ADDAA101000095GD12991+0300099GD24991+0750099GF108991999999999999999999KA1999M+01221MA1100581999999MD1110031+9999MW1001REMAWY008/ 103 54
010872458603919197301200700D+38800-097650SAO  +0391SLN  V0201301N00661024001EN0112001N1+00771+00441100381ADDAA101000095GD13991+0240099GD24991+0600099GF108991999999999999999999MA1100371999999MW1001REMAWY008/ PRESFR
009172458603919197301200800D+38800-097650SAO  +0391SLN  V0201201N00821015001EN0112001N1+00721+00501100341ADDAA101000095GD13991+0150099GD24991+0450099GF108991999999999999999999MA1100341999999MW1001
009072458603919197301200900D+38800-097650SAO  +0391SLN  V0201001N00511015001EN0112001N1+00721+00501100341ADDAA101000095GD14991+0150099GF108991999999999999999999MA1100341095771MD1610241+9999MW1001
007672458603919197301201000D+38800-097650SAO  +0391SLN  V0201201N00511015001EN0112001N1+00611+00331100341ADDAA101000095GD13991+0150099GF107991999999999999999999MA1100341999999MW1001
007672458603919197301201100D+38800-097650SAO  +0391SLN  V0201201N00511045001EN0112001N1+00611+00381100351ADDAA101000095GD13991+0450099GF107991999999999999999999MA1100341999999MW1001
010772458603919197301201200D+38800-097650SAO  +0391SLN  V0201301N007712200019N0112001N1+00551+00331100331ADDAA101000095GD14991+0450093GF108991999999999999999999MA1100311999999MD1810031+9999MW1001REMAWY008/ 803 42
007672458603919197301201300D+38800-097650SAO  +0391SLN  V0201301N005112200019N0112001N1+00441+00331100331ADDAA101000095GD13991+0450093GF107991999999999999999999MA1100311999999MW1001
007672458603919197301201400D+38800-097650SAO  +0391SLN  V0201301N00611060001EN0112001N1+00441+00331100321ADDAA101000095GD13991+0600099GF107991999999999999999999MA1100271999999MW1001
010472458603919197301201500D+38800-097650SAO  +0391SLN  V0201401N00771060001EN0112001N1+00551+00221100341ADDAA101000095GD13991+0600099GF107991999999999999999999MA1100311999999MD1510001+9999MW1001REMAWY005/ 500
009172458603919197301201600D+38800-097650SAO  +0391SLN  V0201401N00661018001EN0112001N1+00661+00381100411ADDAA101000095GD13991+0180099GD24991+0600099GF108991999999999999999999MA1100371999999MW1001
009172458603919197301201700D+38800-097650SAO  +0391SLN  V0201201N00771018001EN0112001N1+00771+00551100401ADDAA101000095GD13991+0180099GD24991+0600099GF108991999999999999999999MA1100371999999MW1001
013672458603919197301201800D+38800-097650SAO  +0391SLN  V0201401N00771004501EN0112001N1+00881+00611100341ADDAA101000095GD14991+0045099GF108991999999999999999999KA1999N+00441MA1100311999999MD1010001+9999MW1001REMAWY024/ ?40 HIR LYR ABV 000 40
007672458603919197301201900D+38800-097650SAO  +0391SLN  V0201401N00821004501EN0112001N1+01001+00661100271ADDAA101000095GD14991+0045099GF108991999999999999999999MA1100241999999MW1001
007672458603919197301202000D+38800-097650SAO  +0391SLN  V0201301N00411004501EN0112001N1+00941+00661100231ADDAA101000095GD14991+0045099GF108991999999999999999999MA1100201999999MW1001
010472458603919197301202100D+38800-097650SAO  +0391SLN  V0201001N00461004801BN0112001N1+00941+00661100131ADDAA101000095GD14991+0048099GF108991999999999999999999MA1100101999999MD1710191+9999MW1001REMAWY005/ 719
007672458603919197301202200D+38800-097650SAO  +0391SLN  V0201001N00611004801EN0112001N1+00941+00611100171ADDAA101000095GD14991+0048099GF108991999999999999999999MA1100141999999MW1001
008972458603919197301202300D+38800-097650SAO  +0391SLN  V0201101N00461003601BN0112001N1+00881+00611100211ADDAA101000095GD14991+0036099GF108991999999999999999999MA1100171999999MW1601REMAWY004RB42
015672458603919197301210000D+38800-097650SAO  +0391SLN  V0201001N00251003601EN0112001N1+00881+00611100241ADDAA101000095AA206000091GD14991+0036099GF108991999999999999999999KA1999M+01001MA1100201999999MD1210101+9999MW1001REMAWY014RE02/ 21000 50EQDQ01  00003PRCP99
007672458603919197301210100D+38800-097650SAO  +0391SLN  V0200901N00301003601EN0080001N1+00831+00721100151ADDAA101000095GD14991+0036099GF108991999999999999999999MA1100101999999MW1451
008272458603919197301210200D+38800-097650SAO  +0391SLN  V0200601N00461000901WN0064001N1+00671+00671100151ADDAA101000095GD15991+0009099GF108991999999999999999999MA1100101095561MW1451MW2511
009672458603919197301210300D+38800-097650SAO  +0391SLN  V0200701N00511001201WN0064001N1+00671+00671100151ADDAA101000095GD15991+0012099GF108991999999999999999999MA1100101095561MD1610081+9999MW1451MW2511
008272458603919197301210400D+38800-097650SAO  +0391SLN  V0200601N00361000901WN0064001N1+00671+00671100201ADDAA101000095GD15991+0009099GF108991999999999999999999MA1100171095601MW1451MW2511
008272458603919197301210500D+38800-097650SAO  +0391SLN  V0200401N00361000601WN0016001N1+00671+00671100101ADDAA101000095GD15991+0006099GF108991999999999999999999MA1100071095531MW1451MW2611
013972458603919197301210600D+38800-097650SAO  +0391SLN  V0200501N00511000601WN0016001N1+00611+00611100101ADDAA101000095AA206001091GD15991+0006099GF108991999999999999999999KA1999M+01001MA1100071095531MD1710031+9999MW1451MW2611EQDQ01  00103PRCP99
008272458603919197301210700D+38800-097650SAO  +0391SLN  V0200601N00621000601WN0024001N1+00441+00441100061ADDAA101000095GD15991+0006099GF108991999999999999999999MA1100031095501MW1451MW2801
008272458603919197301210800D+38800-097650SAO  +0391SLN  V0200601N00771001201WN0024001N1+00391+00391100161ADDAA101000095GD15991+0012099GF102991999999999999999999MA1100101999999MW1451MW2801
008272458603919197301210900D+38800-097650SAO  +0391SLN  V0200401N00511000601WN0024001N1+00331+00331099991ADDAA101000395GD15991+0006099GF108991999999999999999999MA1099931095391MW1451MW2511
008472458603919197301211000D+38800-097650SAO  +0391SLN  V0200301N00621001201WN0024001N1+00221+00221099961ADDAA101000395GD15991+0012099GF108991999999999999999999MA1099901095361MW1451OC101031
008272458603919197301211100D+38800-097650SAO  +0391SLN  V0200401N00571001501MN0040001N1+00221+00221100031ADDAA101000595GD14991+0015099GF108991999999999999999999MA1099971095431MW1451MW2511
012672458603919197301211200D+38800-097650SAO  +0391SLN  V0200301N00511001501MN0040001N1+00171+00171099911ADDAA101000395AA206001091GD14991+0015099GF108991999999999999999999MA1099861095331MD1710071+9999MW1451MW2511EQDQ01  00103PRCP99
009772458603919197301211300D+38800-097650SAO  +0391SLN  V0200401N00571001201MN0040001N1+00171+00171099991ADDAA101000395GD13991+0012099GD24991+0018099GF108991999999999999999999MA1099931095391MW1451MW2611
008272458603919197301211400D+38800-097650SAO  +0391SLN  V0200201N00671001801EN0032001N1+00111+00111099861ADDAA101000095GD14991+0018099GF108991999999999999999999MA1099801095261MW1451MW2611
008272458603919197301211500D+38800-097650SAO  +0391SLN  V0200301N00671001201EN0032001N1+00111+00111099901ADDAA101000595GD14991+0012099GF108991999999999999999999MA1099831095291MW1451MW2611
008272458603919197301211600D+38800-097650SAO  +0391SLN  V0200101N00621000901EN0024001N1+00111+00111099901ADDAA101000095GD14991+0009099GF108991999999999999999999MA1099831095291MW1451MW2511
008272458603919197301211700D+38800-097650SAO  +0391SLN  V0203601N00671000901AN0024001N1+00061+00061099861ADDAA101000095GD14991+0009099GF108991999999999999999999MA1099801095261MW1451MW2511
013972458603919197301211800D+38800-097650SAO  +0391SLN  V0200101N00871000901EN0016001N1+00001+00001099761ADDAA101000095AA206001091GD14991+0009099GF108991999999999999999999KA1999N+00001MA1099701095161MD1810141+9999MW1451MW2561EQDQ01  00103PRCP99
008272458603919197301211900D+38800-097650SAO  +0391SLN  V0203601N01031000901EN0032001N1+00061+00061099641ADDAA101000395GD14991+0009099GF108991999999999999999999MA1099561095021MW1451MW2511
009072458603919197301212000D+38800-097650SAO  +0391SLN  V0203601N00931000901EN0064001N1+00061+00061099461ADDAA101000395GD14991+0009099GF108991999999999999999999MA1099391094891MW1451MW2511OC101291
010472458603919197301212100D+38800-097650SAO  +0391SLN  V0203601N00621000901EN0048001N1+00061+00061099401ADDAA101000095GD14991+0009099GF108991999999999999999999MA1099321094791MD1510371+9999MW1451MW2711OC101131
009072458603919197301212200D+38800-097650SAO  +0391SLN  V0203501N00771000901WN0032001N1+00001+00001099521ADDAA101000095GD15991+0009099GF108991999999999999999999MA1099421094891MW1451MW2711OC101181
009072458603919197301212300D+38800-097650SAO  +0391SLN  V0203401N00771000901WN0016001N1+00001+00001099521ADDAA101001095GD15991+0009099GF108991999999999999999999MA1099421094891MW1451MW2711OC101131
013972458603919197301220000D+38800-097650SAO  +0391SLN  V0203401N00721000901WN0012001N1+00001+00001099651ADDAA101000395AA206002091GD15991+0009099GF108991999999999999999999KA1999M+00161MA1099561095021MD1310141+9999MW1451MW2711EQDQ01  00203PRCP99
008272458603919197301220100D+38800-097650SAO  +0391SLN  V0203401N00931000901WN0012001N1-00061-00061099771ADDAA101000595GD15991+0009099GF108991999999999999999999MA1099661095121MW1451MW2731
007672458603919197301220200D+38800-097650SAO  +0391SLN  V0203401N00871000301WN0008001N1-00061-00061099761ADDAA101000595GD15991+0003099GF108991999999999999999999MA1099661095121MW1731
010472458603919197301220300D+38800-097650SAO  +0391SLN  V0203301N00931000601WN0008001N1-00061-00061099681ADDAA101000395GD15991+0006099GF108991999999999999999999MA1099591095061MD1010031+9999MW1451MW2711OC101441
009072458603919197301220400D+38800-097650SAO  +0391SLN  V0203201N00871001801MN0064001N1-00111-00111099621ADDAA101000095GD14991+0018099GF108991999999999999999999MA1099531094991MW1451MW2711OC101291
009072458603919197301220500D+38800-097650SAO  +0391SLN  V0203201N00981001801MN0064001N1-00111-00111099681ADDAA101000095GD14991+0018099GF108991999999999999999999MA1099591095061MW1451MW2711OC101341
017972458603919197301220600D+38800-097650SAO  +0391SLN  V0203201N00931002701MN0048001N1-00111-00111099761ADDAA101000095AA206002091AJ100059199999999GD13991+0027099GD24991+0036099GF108991999999999999999999KA1999M+00441MA1099661095121MD1210071+9999MW1451MW2711OC101341EQDQ01  00203PRCP99
009672458603919197301220700D+38800-097650SAO  +0391SLN  V0203201N00931002701MN0040001N1-00111-00111099761ADDAA101000095GD14991+0027099GF108991999999999999999999MA1099661095121MW1381MW2451MW3711OC101441
009072458603919197301220800D+38800-097650SAO  +0391SLN  V0203201N00771003601MN0048001N1-00111-00111099831ADDAA101000095GD14991+0036099GF108991999999999999999999MA1099731095191MW1381MW2451OC101291
011072458603919197301220900D+38800-097650SAO  +0391SLN  V0203201N00621003901MN0032001N1-00111-00171099931ADDAA101000095GD14991+0039099GF108991999999999999999999MA1099831095291MD1310171+9999MW1381MW2451MW3711OC101031
009672458603919197301221000D+38800-097650SAO  +0391SLN  V0203201N00611004201MN0032001N1-00111-00161100011ADDAA101000095GD14991+0042099GF108991999999999999999999MA1099901999999MW1381MW2451MW3701OC101021
009672458603919197301221100D+38800-097650SAO  +0391SLN  V0203101N00721004501MN0048001N1-00111-00111100061ADDAA101000095GD14991+0045099GF108991999999999999999999MA1099931095391MW1381MW2451MW3711OC101131
016472458603919197301221200D+38800-097650SAO  +0391SLN  V0203101N00771005401MN0048001N1-00061-00061100151ADDAA101000095AA206000591AA324005091GD14991+0054099GF108991999999999999999999KA1999N-00121MA1100031095501MD1310201+9999MW1381MW2451MW3711OC101291EQDQ01  00053PRCP99
009072458603919197301221300D+38800-097650SAO  +0391SLN  V0203101N00621006901MN0048001N1-00061-00061100251ADDAA101000095GD14991+0069099GF108991999999999999999999MA1100141095601MW1381MW2451OC101031
008472458603919197301221400D+38800-097650SAO  +0391SLN  V0203201N00611018001AN0112001N1-00051-00221100291ADDAA101000095GD14991+0180099GF108991999999999999999999MA1100171999999MW1001OC101021
013172458603919197301221500D+38800-097650SAO  +0391SLN  V0203101N00611005401AN0112001N1+00001-00161100441ADDAA101000095GD14991+0054099GF108991999999999999999999MA1100311999999MW1381MW2701OC101021REMAWY032SB40 CIG RGD/ 325?SLN?1/     ?11
011372458603919197301221600D+38800-097650SAO  +0391SLN  V0203201N01021006601AN0112001N1+00051-00221100621ADDAA101000095GD14991+0066099GF108991999999999999999999MA1100511999999MW1001REMAWY028SE05 PRESRR CIG RGD?SLN?1/11
010172458603919197301221700D+38800-097650SAO  +0391SLN  V0203301N01021006601EN0112001N1+00111-00111100801ADDAA101000095GD14991+0066099GF108991999999999999999999MA1100681999999MW1001REMAWY016CIG RGD?SLN?1/11
016972458603919197301221800D+38800-097650SAO  +0391SLN  V0203201N00871006601EN0112001N1+00161-00111100831ADDAA101000095AA206999999GD14991+0066099GF108991999999999999999999MA1100711999999MD1210121+9999MW1701REMAWY024SB50/ 21200 30?SLN C1/11EQDQ01  00003PRCP99Q02  00002PRCP06
012872458603919197301221900D+38800-097650SAO  +0391SLN  V0203201N00771006601EN0112001N1+00161-00111100931ADDAA101000095GD13991+0066099GD24991+0150099GF108991999999999999999999MA1100811999999MW1001OC101281REMAWY020SE05/ UA 20N SLN ?80
009972458603919197301222000D+38800-097650SAO  +0391SLN  V0203301N00771006601EN0112001N1+00221-00161101031ADDAA101000095GD13991+0066099GD24991+0150099GF108991999999999999999999MA1100911999999MW1001OC101281
012772458603919197301222100D+38800-097650SAO  +0391SLN  V0203301N00771006601EN0112001N1+00161-00111101141ADDAA101000095GD13991+0066099GD24991+0150099GF108991999999999999999999MA1101021999999MD1210291+9999MW1001OC101281REMAWY005/ 229
008472458603919197301222200D+38800-097650SAO  +0391SLN  V0203301N00771008401AN0112001N1+00221-00051101171ADDAA101000095GD14991+0084099GF108991999999999999999999MA1101081999999MW1001OC101181
009972458603919197301222300D+38800-097650SAO  +0391SLN  V0203301N00721008401EN0112001N1+00161-00111101391ADDAA101000095GD14991+0084099GF108991999999999999999999MA1101291999999MW1001OC101081REMAWY006PRESRR
