0050724567139211972010100004+39367-094917SAO  +0238FLV  V0201901N003112200019N0112001N1+00461+00021101831ADDGF100991999999999999999999MA1999999098981MW1001
0069724567139211972010101004+39367-094917SAO  +0238FLV  V0201801N003612200019N0112001N1+00241-00041101811ADDGF100991999999999999999999MA1999999098981MW1001EQDQ01+999990APOSLP
0069724567139211972010102004+39367-094917SAO  +0238FLV  V0201901N003112200019N0112001N1+00411+00021101791ADDGF100991999999999999999999MA1999999098981MW1001EQDQ01+999990APOSLP
0050724567139211972010103004+39367-094917SAO  +0238FLV  V0202001N004612200019N0112001N1+00411+00081101861ADDGF100991999999999999999999MA1999999099021MW1001
0069724567139211972010104004+39367-094917SAO  +0238FLV  V0202001N004112200019N0112001N1+00461+00081101831ADDGF107991999999999999999999MA1999999099021MW1001EQDQ01+999990APOSLP
0069724567139211972010105004+39367-094917SAO  +0238FLV  V0202301N001512200019N0112001N1+00411+00021101791ADDGF108991999999999999999999MA1999999098981MW1001EQDQ01+999990APOSLP
0069724567139211972010113004+39367-094917SAO  +0238FLV  V0209991C000010600019N0112001N1-00261-00311101631ADDGF107991999999999999999999MA1999999098751MW1001EQDQ01+999990APOSLP
0069724567139211972010114004+39367-094917SAO  +0238FLV  V0209991C000010360019N0112001N1-00091-00151101571ADDGF108991999999999999999999MA1999999098711MW1001EQDQ01+999990APOSLP
0050724567139211972010115004+39367-094917SAO  +0238FLV  V0200501N001010600019N0112001N1-00041-00091101571ADDGF108991999999999999999999MA1999999098751MW1001
0069724567139211972010116004+39367-094917SAO  +0238FLV  V0209991C000010150019N0112001N1+00081-00041101651ADDGF108991999999999999999999MA1999999098811MW1611EQDQ01+999990APOSLP
0069724567139211972010117004+39367-094917SAO  +0238FLV  V0203301N002110150019N0112001N1+00131+00081101621ADDGF108991999999999999999999MA1999999098781MW1611EQDQ01+999990APOSLP
0050724567139211972010118004+39367-094917SAO  +0238FLV  V0201901N003110150019N0112001N1+00191+00081101501ADDGF108991999999999999999999MA1999999098681MW1001
0069724567139211972010119004+39367-094917SAO  +0238FLV  V0203601N002110120019N0112001N1+00241+00131101431ADDGF108991999999999999999999MA1999999098611MW1001EQDQ01+999990APOSLP
0069724567139211972010120004+39367-094917SAO  +0238FLV  V0203401N002610114019N0112001N1+00241+00131101331ADDGF108991999999999999999999MA1999999098511MW1001EQDQ01+999990APOSLP
0050724567139211972010121004+39367-094917SAO  +0238FLV  V0203401N004110075019N0112001N1+00241+00191101381ADDGF108991999999999999999999MA1999999098581MW1611
0069724567139211972010122004+39367-094917SAO  +0238FLV  V0200101N002110114019N0112001N1+00301+00191101421ADDGF108991999999999999999999MA1999999098611MW1001EQDQ01+999990APOSLP
0069724567139211972010123004+39367-094917SAO  +0238FLV  V0200101N001010084019N0112001N1+00301+00191101421ADDGF108991999999999999999999MA1999999098611MW1611EQDQ01+999990APOSLP
0050724567139211972010200004+39367-094917SAO  +0238FLV  V0203401N002110150019N0112001N1+00241+00081101441ADDGF108991999999999999999999MA1999999098611MW1001
0069724567139211972010201004+39367-094917SAO  +0238FLV  V0203401N002112200019N0112001N1+00131+00021101511ADDGF107991999999999999999999MA1999999098681MW1001EQDQ01+999990APOSLP
0069724567139211972010202004+39367-094917SAO  +0238FLV  V0203401N001512200019N0112001N1+00081-00041101521ADDGF102991999999999999999999MA1999999098681MW1001EQDQ01+999990APOSLP
0050724567139211972010203004+39367-094917SAO  +0238FLV  V0203101N001012200019N0112001N1-00151+99999101501ADDGF100991999999999999999999MA1999999098681MW1001
0069724567139211972010204004+39367-094917SAO  +0238FLV  V0209991C000012200019N0032001N1-00261+99999101561ADDGF100991999999999999999999MA1999999098681MW1111EQDQ01+999990APOSLP
0069724567139211972010205004+39367-094917SAO  +0238FLV  V0203101N001012200019N0112001N1-00261+99999101561ADDGF100991999999999999999999MA1999999098681MW1001EQDQ01+999990APOSLP
0069724567139211972010213004+39367-094917SAO  +0238FLV  V0209991C000012200019N0112001N1-00481-00531101261ADDGF102991999999999999999999MA1999999098371MW1001EQDQ01+999990APOSLP
0069724567139211972010214004+39367-094917SAO  +0238FLV  V0201601N001012200019N0112001N1-00421-00481101221ADDGF102991999999999999999999MA1999999098341MW1001EQDQ01+999990APOSLP
0050724567139211972010215004+39367-094917SAO  +0238FLV  V0201701N001010750019N0112001N1-00201-00371101161ADDGF107991999999999999999999MA1999999098341MW1001
0069724567139211972010216004+39367-094917SAO  +0238FLV  V0201901N002612200019N0112001N1+00081-00261101141ADDGF102991999999999999999999MA1999999098311MW1001EQDQ01+999990APOSLP
0069724567139211972010217004+39367-094917SAO  +0238FLV  V0202101N005712200019N0112001N1+00301-00201101041ADDGF102991999999999999999999MA1999999098241MW1001EQDQ01+999990APOSLP
0050724567139211972010218004+39367-094917SAO  +0238FLV  V0202101N007712200019N0112001N1+00461-00151100951ADDGF107991999999999999999999MA1999999098141MW1001
0069724567139211972010219004+39367-094917SAO  +0238FLV  V02099999999990750019N0112001N1+00581-00041100811ADDGF107991999999999999999999MA1999999098041MW1001EQDQ01+999990APOSLP
0069724567139211972010220004+39367-094917SAO  +0238FLV  V0202101N007210750019N0112001N1+00631+00081100691ADDGF107991999999999999999999MA1999999097931MW1001EQDQ01+999990APOSLP
0050724567139211972010221004+39367-094917SAO  +0238FLV  V0202101N004610360019N0112001N1+00461+00081100801ADDGF107991999999999999999999MA1999999097971MW1001
0069724567139211972010222004+39367-094917SAO  +0238FLV  V0201901N005110600019N0112001N1+00461+00021100781ADDGF107991999999999999999999MA1999999098001MW1001EQDQ01+999990APOSLP
0069724567139211972010223004+39367-094917SAO  +0238FLV  V0201901N003112200019N0112001N1+00301-00041100871ADDGF102991999999999999999999MA1999999098071MW1001EQDQ01+999990APOSLP
0050724567139211972010300004+39367-094917SAO  +0238FLV  V0201701N001510750019N0112001N1+00131-00091100911ADDGF107991999999999999999999MA1999999098071MW1001
0069724567139211972010301004+39367-094917SAO  +0238FLV  V0209991C000010300019N0112001N1+00131-00041100921ADDGF107991999999999999999999MA1999999098101MW1001EQDQ01+999990APOSLP
0069724567139211972010302004+39367-094917SAO  +0238FLV  V0201701N001510300019N0112001N1+00131-00041100991ADDGF107991999999999999999999MA1999999098171MW1001EQDQ01+999990APOSLP
0050724567139211972010303004+39367-094917SAO  +0238FLV  V0209991C000012200019N0112001N1+00081-00041101011ADDGF102991999999999999999999MA1999999098171MW1001
0069724567139211972010304004+39367-094917SAO  +0238FLV  V0209991C000010300019N0112001N1-00041-00091101081ADDGF107991999999999999999999MA1999999098241MW1001EQDQ01+999990APOSLP
0069724567139211972010305004+39367-094917SAO  +0238FLV  V0209991C000010300019N0112001N1-00041-00091101111ADDGF107991999999999999999999MA1999999098271MW1001EQDQ01+999990APOSLP
0069724567139211972010313004+39367-094917SAO  +0238FLV  V0200201N002110036019N0112001N1-00091-00261101471ADDGF108991999999999999999999MA1999999098611MW1001EQDQ01+999990APOSLP
0069724567139211972010314004+39367-094917SAO  +0238FLV  V0200301N001510042019N0112001N1-00151-00371101581ADDGF108991999999999999999999MA1999999098711MW1001EQDQ01+999990APOSLP
0050724567139211972010315004+39367-094917SAO  +0238FLV  V0200201N002110045019N0112001N1-00201-00421101721ADDGF108991999999999999999999MA1999999098851MW1771
0069724567139211972010316004+39367-094917SAO  +0238FLV  V0200101N002110045019N0064001N1-00261-00481101861ADDGF108991999999999999999999MA1999999098981MW1771EQDQ01+999990APOSLP
0081724567139211972010317004+39367-094917SAO  +0238FLV  V0200101N003110048019N0048001N1-00371-00531101921ADDGF108991999999999999999999MA1999999099021MW1661MW2771MW3791EQDQ01+999990APOSLP
0056724567139211972010318004+39367-094917SAO  +0238FLV  V0200101N004110045019N0048001N1-00531-00651101851ADDGF108991999999999999999999MA1999999098981MW1661MW2791
0081724567139211972010319004+39367-094917SAO  +0238FLV  V0200101N005110045019N0048001N1-00651-00761101911ADDGF108991999999999999999999MA1999999098981MW1381MW2661MW3711EQDQ01+999990APOSLP
0062724567139211972010321004+39367-094917SAO  +0238FLV  V0200101N005110045019N0048001N1-00761-00981101971ADDGF108991999999999999999999MA1999999099091MW1381MW2661MW3711
0075724567139211972010322004+39367-094917SAO  +0238FLV  V0200101N004110045019N0048001N1-00871-01031102111ADDGF108991999999999999999999MA1999999099151MW1661MW2711EQDQ01+999990APOSLP
0075724567139211972010323004+39367-094917SAO  +0238FLV  V0200101N005110045019N0040001N1-00921-01091102181ADDGF108991999999999999999999MA1999999099221MW1661MW2711EQDQ01+999990APOSLP
0056724567139211972010400004+39367-094917SAO  +0238FLV  V0203601N003110045019N0040001N1-00921-01091102191ADDGF108991999999999999999999MA1999999099321MW1661MW2711
0075724567139211972010401004+39367-094917SAO  +0238FLV  V0200101N004110045019N0064001N1-00921-01151102501ADDGF108991999999999999999999MA1999999099531MW1661MW2711EQDQ01+999990APOSLP
0075724567139211972010402004+39367-094917SAO  +0238FLV  V0203601N005110048019N0064001N1-00981-01201102571ADDGF108991999999999999999999MA1999999099591MW1381MW2711EQDQ01+999990APOSLP
0056724567139211972010403004+39367-094917SAO  +0238FLV  V0203601N003610048019N0064001N1-01031-01201102561ADDGF108991999999999999999999MA1999999099661MW1381MW2711
0069724567139211972010405004+39367-094917SAO  +0238FLV  V0200101N004110060019N0112001N1-01031-01371102721ADDGF108991999999999999999999MA1999999099731MW1001EQDQ01+999990APOSLP
0069724567139211972010413004+39367-094917SAO  +0238FLV  V0203501N004110150019N0020001N1-01371-01531102971ADDGF108991999999999999999999MA1999999099931MW1711EQDQ01+999990APOSLP
0075724567139211972010414004+39367-094917SAO  +0238FLV  V0203601N003110135019N0032001N1-01371-01531103041ADDGF108991999999999999999999MA1999999100001MW1381MW2711EQDQ01+999990APOSLP
0050724567139211972010415004+39367-094917SAO  +0238FLV  V0203501N003110135019N0040001N1-01311-01531103051ADDGF108991999999999999999999MA1999999100101MW1711
0069724567139211972010416004+39367-094917SAO  +0238FLV  V0203401N004110240019N0112001N1-01311-01531103181ADDGF108991999999999999999999MA1999999100141MW1001EQDQ01+999990APOSLP
0069724567139211972010417004+39367-094917SAO  +0238FLV  V0203301N005112200019N0112001N1-01151-01641103121ADDGF107991999999999999999999MA1999999100101MW1001EQDQ01+999990APOSLP
0050724567139211972010418004+39367-094917SAO  +0238FLV  V0203301N006212200019N0112001N1-01091-01701102951ADDGF107991999999999999999999MA1999999100001MW1001
0069724567139211972010419004+39367-094917SAO  +0238FLV  V0203201N006212200019N0112001N1-01031-01641102971ADDGF100991999999999999999999MA1999999099971MW1001EQDQ01+999990APOSLP
0069724567139211972010420004+39367-094917SAO  +0238FLV  V0203201N005112200019N0112001N1-00921-01701102891ADDGF100991999999999999999999MA1999999099901MW1001EQDQ01+999990APOSLP
0050724567139211972010421004+39367-094917SAO  +0238FLV  V0203101N005112200019N0112001N1-00981-01701102821ADDGF100991999999999999999999MA1999999099861MW1001
0069724567139211972010422004+39367-094917SAO  +0238FLV  V0203001N006212200019N0112001N1-01031-01701102901ADDGF102991999999999999999999MA1999999099901MW1001EQDQ01+999990APOSLP
0069724567139211972010423004+39367-094917SAO  +0238FLV  V0203101N005112200019N0112001N1-01151-01701102871ADDGF100991999999999999999999MA1999999099861MW1001EQDQ01+999990APOSLP
0050724567139211972010500004+39367-094917SAO  +0238FLV  V0203101N004612200019N0112001N1-01261-01701102831ADDGF100991999999999999999999MA1999999099861MW1001
0069724567139211972010501004+39367-094917SAO  +0238FLV  V0203001N002112200019N0112001N1-01421-01761102971ADDGF100991999999999999999999MA1999999099931MW1001EQDQ01+999990APOSLP
0069724567139211972010502004+39367-094917SAO  +0238FLV  V0202901N002112200019N0112001N1-01531-01871102991ADDGF100991999999999999999999MA1999999099931MW1001EQDQ01+999990APOSLP
0050724567139211972010503004+39367-094917SAO  +0238FLV  V0202801N002112200019N0112001N1-01591-01871102941ADDGF100991999999999999999999MA1999999100001MW1001
0069724567139211972010504004+39367-094917SAO  +0238FLV  V0209991C000012200019N0112001N1-01701-01981103011ADDGF100991999999999999999999MA1999999099931MW1001EQDQ01+999990APOSLP
0069724567139211972010505004+39367-094917SAO  +0238FLV  V0209991C000012200019N0112001N1-01811-01921103021ADDGF100991999999999999999999MA1999999099931MW1001EQDQ01+999990APOSLP
0069724567139211972010513004+39367-094917SAO  +0238FLV  V0201501N001512200019N0112001N1-01481-01921102601ADDGF100991999999999999999999MA1999999099561MW1001EQDQ01+999990APOSLP
0069724567139211972010514004+39367-094917SAO  +0238FLV  V0201501N001512200019N0112001N1-01421-01871102591ADDGF100991999999999999999999MA1999999099561MW1001EQDQ01+999990APOSLP
0050724567139211972010515004+39367-094917SAO  +0238FLV  V0201501N002612200019N0112001N1-01261-01761102471ADDGF100991999999999999999999MA1999999099531MW1001
0069724567139211972010516004+39367-094917SAO  +0238FLV  V0201601N004112200019N0112001N1-00981-01591102401ADDGF100991999999999999999999MA1999999099421MW1001EQDQ01+999990APOSLP
0069724567139211972010517004+39367-094917SAO  +0238FLV  V0201801N003612200019N0112001N1-00761-01421102441ADDGF100991999999999999999999MA1999999099491MW1001EQDQ01+999990APOSLP
0050724567139211972010518004+39367-094917SAO  +0238FLV  V0201801N005112200019N0112001N1-00591-01261102221ADDGF100991999999999999999999MA1999999099261MW1001
0069724567139211972010519004+39367-094917SAO  +0238FLV  V0201701N007212200019N0112001N1-00421-01311102061ADDGF100991999999999999999999MA1999999099151MW1001EQDQ01+999990APOSLP
0069724567139211972010520004+39367-094917SAO  +0238FLV  V0201801N005712200019N0112001N1-00261-01031101981ADDGF102991999999999999999999MA1999999099091MW1001EQDQ01+999990APOSLP
0050724567139211972010521004+39367-094917SAO  +0238FLV  V0201601N003612200019N0112001N1-00201-00921101981ADDGF102991999999999999999999MA1999999099051MW1001
0069724567139211972010522004+39367-094917SAO  +0238FLV  V0201801N004112200019N0112001N1-00151-00871101921ADDGF102991999999999999999999MA1999999099051MW1001EQDQ01+999990APOSLP
0069724567139211972010523004+39367-094917SAO  +0238FLV  V0201801N002112200019N0112001N1-00201-00811102001ADDGF102991999999999999999999MA1999999099121MW1001EQDQ01+999990APOSLP
0069724567139211972010601004+39367-094917SAO  +0238FLV  V0201301N002112200019N0112001N1-00591-00811102041ADDGF102991999999999999999999MA1999999099121MW1001EQDQ01+999990APOSLP
0069724567139211972010602004+39367-094917SAO  +0238FLV  V0209991C000012200019N0112001N1-00651-00871102081ADDGF100991999999999999999999MA1999999099151MW1001EQDQ01+999990APOSLP
0050724567139211972010603004+39367-094917SAO  +0238FLV  V0201001N001010750019N0112001N1-00531-00761102141ADDGF108991999999999999999999MA1999999099221MW1001
0069724567139211972010604004+39367-094917SAO  +0238FLV  V0201701N001512200019N0112001N1-00311-00651102051ADDGF108991999999999999999999MA1999999099151MW1001EQDQ01+999990APOSLP
0069724567139211972010605004+39367-094917SAO  +0238FLV  V0201801N001512200019N0112001N1-00311-00651102051ADDGF108991999999999999999999MA1999999099151MW1001EQDQ01+999990APOSLP
0069724567139211972010613004+39367-094917SAO  +0238FLV  V0201301N001012200019N0112001N1-00981-01031102091ADDGF100991999999999999999999MA1999999099121MW1001EQDQ01+999990APOSLP
0075724567139211972010614004+39367-094917SAO  +0238FLV  V0201401N002612200019N0096001N1-00921-00981101981ADDGF102991999999999999999999MA1999999099021MW1051MW2111EQDQ01+999990APOSLP
0050724567139211972010615004+39367-094917SAO  +0238FLV  V0201501N001012200019N0112001N1-00651-00871101901ADDGF107991999999999999999999MA1999999099091MW1001
0069724567139211972010616004+39367-094917SAO  +0238FLV  V0201401N001512200019N0112001N1-00371-00651101951ADDGF107991999999999999999999MA1999999099051MW1001EQDQ01+999990APOSLP
0069724567139211972010617004+39367-094917SAO  +0238FLV  V0201501N002612200019N0112001N1+00021-00481101831ADDGF107991999999999999999999MA1999999098981MW1001EQDQ01+999990APOSLP
0050724567139211972010618004+39367-094917SAO  +0238FLV  V0202101N005112200019N0112001N1+00411-00371101771ADDGF102991999999999999999999MA1999999098881MW1001
0069724567139211972010619004+39367-094917SAO  +0238FLV  V0201901N002612200019N0112001N1+00631-00371101571ADDGF102991999999999999999999MA1999999098781MW1001EQDQ01+999990APOSLP
0069724567139211972010620004+39367-094917SAO  +0238FLV  V0202101N004112200019N0112001N1+00741-00311101481ADDGF102991999999999999999999MA1999999098711MW1001EQDQ01+999990APOSLP
0050724567139211972010621004+39367-094917SAO  +0238FLV  V0202101N007212200019N0112001N1+00801-00261101631ADDGF102991999999999999999999MA1999999098751MW1001
0069724567139211972010622004+39367-094917SAO  +0238FLV  V0202201N006212200019N0112001N1+00851-00261101571ADDGF100991999999999999999999MA1999999098811MW1001EQDQ01+999990APOSLP
0069724567139211972010623004+39367-094917SAO  +0238FLV  V0202001N005112200019N0112001N1+00741-00261101591ADDGF100991999999999999999999MA1999999098811MW1001EQDQ01+999990APOSLP
0050724567139211972010700004+39367-094917SAO  +0238FLV  V0202101N004612200019N0112001N1+00691-00201101781ADDGF100991999999999999999999MA1999999098881MW1001
0069724567139211972010701004+39367-094917SAO  +0238FLV  V0202201N004612200019N0112001N1+00581-00151101821ADDGF100991999999999999999999MA1999999099021MW1001EQDQ01+999990APOSLP
0069724567139211972010702004+39367-094917SAO  +0238FLV  V0202301N004112200019N0112001N1+00461-00151101901ADDGF100991999999999999999999MA1999999099091MW1001EQDQ01+999990APOSLP
0050724567139211972010703004+39367-094917SAO  +0238FLV  V0202501N002612200019N0112001N1+00411-00151102031ADDGF100991999999999999999999MA1999999099151MW1001
0069724567139211972010704004+39367-094917SAO  +0238FLV  V0202601N003112200019N0112001N1+00301-00201102051ADDGF100991999999999999999999MA1999999099221MW1001EQDQ01+999990APOSLP
0069724567139211972010705004+39367-094917SAO  +0238FLV  V0202801N001512200019N0112001N1+00241-00201102161ADDGF100991999999999999999999MA1999999099321MW1001EQDQ01+999990APOSLP
0069724567139211972010713004+39367-094917SAO  +0238FLV  V0209991C000012200019N0112001N1-00531-00591102771ADDGF107991999999999999999999MA1999999099831MW1001EQDQ01+999990APOSLP
0069724567139211972010714004+39367-094917SAO  +0238FLV  V0209991C000012200019N0112001N1-00531+99999102841ADDGF107991999999999999999999MA1999999099901MW1001EQDQ01+999990APOSLP
0050724567139211972010715004+39367-094917SAO  +0238FLV  V0209991C000012200019N0112001N1-00151-00261102841ADDGF102991999999999999999999MA1999999100001MW1001
0069724567139211972010716004+39367-094917SAO  +0238FLV  V0201201N001012200019N0112001N1+00021-00151102961ADDGF100991999999999999999999MA1999999100071MW1001EQDQ01+999990APOSLP
0069724567139211972010717004+39367-094917SAO  +0238FLV  V0201401N002112200019N0112001N1+00301+00021102851ADDGF102991999999999999999999MA1999999100001MW1001EQDQ01+999990APOSLP
0050724567139211972010718004+39367-094917SAO  +0238FLV  V0201501N003112200019N0112001N1+00631+00081102791ADDGF102991999999999999999999MA1999999099931MW1001
0069724567139211972010719004+39367-094917SAO  +0238FLV  V0201501N002612200019N0096001N1+00851+00081102651ADDGF102991999999999999999999MA1999999099861MW1051EQDQ01+999990APOSLP
0069724567139211972010720004+39367-094917SAO  +0238FLV  V0201301N002612200019N0112001N1+00961+00081102581ADDGF107991999999999999999999MA1999999099801MW1001EQDQ01+999990APOSLP
0050724567139211972010721004+39367-094917SAO  +0238FLV  V0201401N004112200019N0112001N1+01021+00081102591ADDGF107991999999999999999999MA1999999099731MW1001
0069724567139211972010722004+39367-094917SAO  +0238FLV  V0201501N003612200019N0112001N1+00911+00131102511ADDGF108991999999999999999999MA1999999099731MW1001EQDQ01+999990APOSLP
0069724567139211972010723004+39367-094917SAO  +0238FLV  V0201301N003112200019N0112001N1+00691+00191102461ADDGF108991999999999999999999MA1999999099661MW1001EQDQ01+999990APOSLP
0050724567139211972010800004+39367-094917SAO  +0238FLV  V0201501N003112200019N0112001N1+00351+00021102461ADDGF107991999999999999999999MA1999999099591MW1001
0069724567139211972010801004+39367-094917SAO  +0238FLV  V0201501N003112200019N0112001N1+00241+00021102441ADDGF107991999999999999999999MA1999999099591MW1001EQDQ01+999990APOSLP
0069724567139211972010802004+39367-094917SAO  +0238FLV  V0201301N003112200019N0112001N1+00131+00021102451ADDGF102991999999999999999999MA1999999099591MW1001EQDQ01+999990APOSLP
0050724567139211972010803004+39367-094917SAO  +0238FLV  V0201501N002612200019N0112001N1+00131-00041102371ADDGF100991999999999999999999MA1999999099531MW1001
0069724567139211972010804004+39367-094917SAO  +0238FLV  V0201301N002112200019N0112001N1+00191-00041102311ADDGF102991999999999999999999MA1999999099461MW1001EQDQ01+999990APOSLP
0069724567139211972010805004+39367-094917SAO  +0238FLV  V0209991C000012200019N0112001N1+00131-00041102241ADDGF100991999999999999999999MA1999999099391MW1001EQDQ01+999990APOSLP
0069724567139211972010813004+39367-094917SAO  +0238FLV  V0201601N004612200019N0112001N1+00351-00151101421ADDGF107991999999999999999999MA1999999098611MW1001EQDQ01+999990APOSLP
0069724567139211972010814004+39367-094917SAO  +0238FLV  V0201601N004112200019N0112001N1+00351-00201101391ADDGF107991999999999999999999MA1999999098581MW1001EQDQ01+999990APOSLP
0050724567139211972010815004+39367-094917SAO  +0238FLV  V0201601N007712200019N0112001N1+00411-00151101331ADDGF108991999999999999999999MA1999999098511MW1001
0069724567139211972010816004+39367-094917SAO  +0238FLV  V0201601N007712200019N0112001N1+00581-00091101191ADDGF108991999999999999999999MA1999999098411MW1001EQDQ01+999990APOSLP
0069724567139211972010817004+39367-094917SAO  +0238FLV  V0201601N007210750019N0112001N1+00691+00021101081ADDGF107991999999999999999999MA1999999098311MW1001EQDQ01+999990APOSLP
0050724567139211972010818004+39367-094917SAO  +0238FLV  V0201601N008710300019N0112001N1+00801+00081100921ADDGF107991999999999999999999MA1999999098141MW1001
0069724567139211972010819004+39367-094917SAO  +0238FLV  V0201701N009810300019N0112001N1+00851+00191100711ADDGF108991999999999999999999MA1999999097971MW1001EQDQ01+999990APOSLP
0069724567139211972010820004+39367-094917SAO  +0238FLV  V0201701N007710060019N0112001N1+00851+00241100611ADDGF108991999999999999999999MA1999999097871MW1001EQDQ01+999990APOSLP
0050724567139211972010821004+39367-094917SAO  +0238FLV  V0201701N008210060019N0112001N1+00851+00351100581ADDGF108991999999999999999999MA1999999097771MW1001
0069724567139211972010822004+39367-094917SAO  +0238FLV  V0201701N006210180019N0112001N1+00801+00411100471ADDGF108991999999999999999999MA1999999097731MW1001EQDQ01+999990APOSLP
0069724567139211972010823004+39367-094917SAO  +0238FLV  V0201701N004110180019N0112001N1+00801+00461100471ADDGF107991999999999999999999MA1999999097731MW1001EQDQ01+999990APOSLP
0050724567139211972010900004+39367-094917SAO  +0238FLV  V0201701N003610069019N0112001N1+00741+00461100561ADDGF107991999999999999999999MA1999999097771MW1001
0069724567139211972010901004+39367-094917SAO  +0238FLV  V0201801N003610069019N0112001N1+00691+00521100551ADDGF107991999999999999999999MA1999999097801MW1001EQDQ01+999990APOSLP
0069724567139211972010902004+39367-094917SAO  +0238FLV  V0201801N002112200019N0112001N1+00631+00521100631ADDGF102991999999999999999999MA1999999097871MW1001EQDQ01+999990APOSLP
0050724567139211972010903004+39367-094917SAO  +0238FLV  V0202001N004112200019N0112001N1+00581+00461100651ADDGF102991999999999999999999MA1999999097871MW1001
0069724567139211972010904004+39367-094917SAO  +0238FLV  V0202601N002612200019N0112001N1+00581+00461100741ADDGF102991999999999999999999MA1999999097971MW1001EQDQ01+999990APOSLP
0069724567139211972010905004+39367-094917SAO  +0238FLV  V0202801N003112200019N0112001N1+00411+00191100831ADDGF102991999999999999999999MA1999999098041MW1001EQDQ01+999990APOSLP
0069724567139211972010913004+39367-094917SAO  +0238FLV  V0209991C000012200019N0112001N1-00311+99999100931ADDGF107991999999999999999999MA1999999098071MW1001EQDQ01+999990APOSLP
0069724567139211972010914004+39367-094917SAO  +0238FLV  V0209991C000012200019N0112001N1-00371-00421100941ADDGF100991999999999999999999MA1999999098071MW1001EQDQ01+999990APOSLP
0050724567139211972010915004+39367-094917SAO  +0238FLV  V0209991C000012200019N0112001N1-00091-00201100901ADDGF100991999999999999999999MA1999999098071MW1001
0069724567139211972010916004+39367-094917SAO  +0238FLV  V0209991C000012200019N0112001N1+00191-00041100881ADDGF100991999999999999999999MA1999999098071MW1001EQDQ01+999990APOSLP
0050724567139211972010918004+39367-094917SAO  +0238FLV  V0202201N005112200019N0112001N1+00851-00201100721ADDGF100991999999999999999999MA1999999097931MW1001
0069724567139211972010919004+39367-094917SAO  +0238FLV  V0202101N004612200019N0112001N1+01021-00261100521ADDGF100991999999999999999999MA1999999097801MW1001EQDQ01+999990APOSLP
0069724567139211972010920004+39367-094917SAO  +0238FLV  V0202401N005112200019N0112001N1+01071-00311100481ADDGF100991999999999999999999MA1999999097771MW1001EQDQ01+999990APOSLP
0050724567139211972010921004+39367-094917SAO  +0238FLV  V0202201N005112200019N0112001N1+01131-00371100531ADDGF100991999999999999999999MA1999999097731MW1001
0069724567139211972010922004+39367-094917SAO  +0238FLV  V0202201N005112200019N0112001N1+01191-00421100471ADDGF100991999999999999999999MA1999999097771MW1001EQDQ01+999990APOSLP
0069724567139211972010923004+39367-094917SAO  +0238FLV  V0201901N003112200019N0112001N1+00961-00371100451ADDGF100991999999999999999999MA1999999097731MW1001EQDQ01+999990APOSLP
0050724567139211972011000004+39367-094917SAO  +0238FLV  V0201701N002612200019N0112001N1+00741-00311100521ADDGF100991999999999999999999MA1999999097731MW1001
0069724567139211972011001004+39367-094917SAO  +0238FLV  V0201501N002112200019N0112001N1+00191-00261100501ADDGF100991999999999999999999MA1999999097701MW1001EQDQ01+999990APOSLP
0069724567139211972011002004+39367-094917SAO  +0238FLV  V0202001N001512200019N0112001N1+00631-00261100491ADDGF100991999999999999999999MA1999999097731MW1001EQDQ01+999990APOSLP
0050724567139211972011003004+39367-094917SAO  +0238FLV  V0201701N001512200019N0112001N1+00581-00261100521ADDGF100991999999999999999999MA1999999097731MW1001
0069724567139211972011004004+39367-094917SAO  +0238FLV  V0201401N003112200019N0112001N1+00241-00261100451ADDGF100991999999999999999999MA1999999097661MW1001EQDQ01+999990APOSLP
0069724567139211972011005004+39367-094917SAO  +0238FLV  V0201501N003112200019N0112001N1-00041-00311100481ADDGF100991999999999999999999MA1999999097661MW1001EQDQ01+999990APOSLP
0069724567139211972011013004+39367-094917SAO  +0238FLV  V0203001N004612200019N0112001N1+00191-00201100361ADDGF100991999999999999999999MA1999999097561MW1001EQDQ01+999990APOSLP
0069724567139211972011014004+39367-094917SAO  +0238FLV  V0203101N003112200019N0112001N1-00091-00311100491ADDGF100991999999999999999999MA1999999097661MW1001EQDQ01+999990APOSLP
0050724567139211972011015004+39367-094917SAO  +0238FLV  V0203101N004112200019N0112001N1+00241-00091100541ADDGF100991999999999999999999MA1999999097771MW1001
0069724567139211972011016004+39367-094917SAO  +0238FLV  V0203201N005112200019N0112001N1+00461-00091100681ADDGF100991999999999999999999MA1999999097901MW1001EQDQ01+999990APOSLP
0069724567139211972011017004+39367-094917SAO  +0238FLV  V0203201N005712200019N0112001N1+00741-00091100681ADDGF100991999999999999999999MA1999999097931MW1001EQDQ01+999990APOSLP
0050724567139211972011018004+39367-094917SAO  +0238FLV  V0203301N006712200019N0112001N1+00851-00091100711ADDGF100991999999999999999999MA1999999097931MW1001
0069724567139211972011019004+39367-094917SAO  +0238FLV  V0203201N008212200019N0112001N1+00911-00151100661ADDGF102991999999999999999999MA1999999097931MW1001EQDQ01+999990APOSLP
0069724567139211972011020004+39367-094917SAO  +0238FLV  V0203001N006210600019N0112001N1+00961-00201100731ADDGF107991999999999999999999MA1999999098001MW1001EQDQ01+999990APOSLP
0050724567139211972011021004+39367-094917SAO  +0238FLV  V0203201N004110600019N0112001N1+00961-00421100831ADDGF107991999999999999999999MA1999999098071MW1001
0069724567139211972011022004+39367-094917SAO  +0238FLV  V0202901N003110600019N0112001N1+00801-00261100891ADDGF107991999999999999999999MA1999999098141MW1001EQDQ01+999990APOSLP
0069724567139211972011023004+39367-094917SAO  +0238FLV  V0203101N002110600019N0112001N1+00691-00261100971ADDGF107991999999999999999999MA1999999098211MW1001EQDQ01+999990APOSLP
0050724567139211972011100004+39367-094917SAO  +0238FLV  V0209991C000012200019N0112001N1+00411-00311100981ADDGF102991999999999999999999MA1999999098211MW1001
0069724567139211972011101004+39367-094917SAO  +0238FLV  V0202701N002112200019N0112001N1+00021-00421101151ADDGF102991999999999999999999MA1999999098311MW1001EQDQ01+999990APOSLP
0069724567139211972011102004+39367-094917SAO  +0238FLV  V0202901N000512200019N0112001N1+00021-00311101211ADDGF102991999999999999999999MA1999999098371MW1001EQDQ01+999990APOSLP
0050724567139211972011103004+39367-094917SAO  +0238FLV  V0209991C000012200019N0112001N1-00151-00421101241ADDGF100991999999999999999999MA1999999098411MW1001
0069724567139211972011104004+39367-094917SAO  +0238FLV  V0201101N000512200019N0112001N1-00201-00371101341ADDGF102991999999999999999999MA1999999098481MW1001EQDQ01+999990APOSLP
0069724567139211972011105004+39367-094917SAO  +0238FLV  V0203001N002112200019N0112001N1-00371-00481101321ADDGF102991999999999999999999MA1999999098441MW1001EQDQ01+999990APOSLP
0069724567139211972011113004+39367-094917SAO  +0238FLV  V0203001N005712200019N0112001N1+00131-00201101551ADDGF100991999999999999999999MA1999999098711MW1001EQDQ01+999990APOSLP
0069724567139211972011114004+39367-094917SAO  +0238FLV  V0203101N004112200019N0112001N1+00081-00531101651ADDGF100991999999999999999999MA1999999098811MW1001EQDQ01+999990APOSLP
0050724567139211972011115004+39367-094917SAO  +0238FLV  V0203201N006212200019N0112001N1+00131-00651101761ADDGF100991999999999999999999MA1999999098921MW1001
0069724567139211972011116004+39367-094917SAO  +0238FLV  V0203101N006712200019N0112001N1+00241-00761101851ADDGF100991999999999999999999MA1999999099021MW1001EQDQ01+999990APOSLP
0069724567139211972011117004+39367-094917SAO  +0238FLV  V0203101N007212200019N0112001N1+00301-00811101851ADDGF100991999999999999999999MA1999999099021MW1001EQDQ01+999990APOSLP
0050724567139211972011118004+39367-094917SAO  +0238FLV  V0203401N006712200019N0112001N1+00301-00811101771ADDGF100991999999999999999999MA1999999098921MW1001
0069724567139211972011119004+39367-094917SAO  +0238FLV  V0203301N004112200019N0224001N1+00411-00811101661ADDGF100991999999999999999999MA1999999098851MW1001EQDQ01+999990APOSLP
0069724567139211972011120004+39367-094917SAO  +0238FLV  V0203001N003112200019N0224001N1+00411-00871101561ADDGF102991999999999999999999MA1999999098751MW1001EQDQ01+999990APOSLP
0050724567139211972011121004+39367-094917SAO  +0238FLV  V0202001N003112200019N0224001N1+00461-00871101551ADDGF102991999999999999999999MA1999999098681MW1001
0069724567139211972011122004+39367-094917SAO  +0238FLV  V0201601N003112200019N0224001N1+00461-00811101411ADDGF102991999999999999999999MA1999999098611MW1001EQDQ01+999990APOSLP
0069724567139211972011123004+39367-094917SAO  +0238FLV  V0201401N004112200019N0224001N1+00351-00761101291ADDGF107991999999999999999999MA1999999098481MW1001EQDQ01+999990APOSLP
0050724567139211972011200004+39367-094917SAO  +0238FLV  V0201401N003110750019N0112001N1+00131-00531101151ADDGF108991999999999999999999MA1999999098341MW1001
0069724567139211972011201004+39367-094917SAO  +0238FLV  V0201501N003612200019N0112001N1+00131-00481101031ADDGF108991999999999999999999MA1999999098211MW1001EQDQ01+999990APOSLP
0069724567139211972011202004+39367-094917SAO  +0238FLV  V0201301N002612200019N0112001N1+00131-00481100961ADDGF108991999999999999999999MA1999999098141MW1001EQDQ01+999990APOSLP
0050724567139211972011203004+39367-094917SAO  +0238FLV  V0201601N005712200019N0112001N1+00351-00481100851ADDGF107991999999999999999999MA1999999098041MW1001
0069724567139211972011204004+39367-094917SAO  +0238FLV  V0201601N007212200019N0112001N1+00411-00531100651ADDGF107991999999999999999999MA1999999097871MW1001EQDQ01+999990APOSLP
0069724567139211972011205004+39367-094917SAO  +0238FLV  V0201601N007212200019N0112001N1+00411-00531100481ADDGF102991999999999999999999MA1999999097701MW1001EQDQ01+999990APOSLP
0069724567139211972011213004+39367-094917SAO  +0238FLV  V0201801N008710750019N0112001N1+00631-00201099611ADDGF107991999999999999999999MA1999999096881MW1001EQDQ01+999990APOSLP
0069724567139211972011214004+39367-094917SAO  +0238FLV  V0201701N005110750019N0112001N1+00581-00151099661ADDGF108991999999999999999999MA1999999096921MW1001EQDQ01+999990APOSLP
0050724567139211972011215004+39367-094917SAO  +0238FLV  V0201601N005710750019N0112001N1+00631-00091099591ADDGF107991999999999999999999MA1999999096851MW1001
0069724567139211972011216004+39367-094917SAO  +0238FLV  V0201701N004112200019N0112001N1+00741-00091099641ADDGF108991999999999999999999MA1999999096921MW1001EQDQ01+999990APOSLP
0069724567139211972011217004+39367-094917SAO  +0238FLV  V0201701N006210750019N0112001N1+00911-00041099591ADDGF108991999999999999999999MA1999999096881MW1001EQDQ01+999990APOSLP
0050724567139211972011218004+39367-094917SAO  +0238FLV  V0202201N004610750019N0112001N1+01021+00021099621ADDGF108991999999999999999999MA1999999096881MW1001
0069724567139211972011219004+39367-094917SAO  +0238FLV  V0202601N006210600019N0112001N1+01191+00081099501ADDGF108991999999999999999999MA1999999096821MW1001EQDQ01+999990APOSLP
0069724567139211972011220004+39367-094917SAO  +0238FLV  V0202601N005112200019N0112001N1+01301+00131099521ADDGF108991999999999999999999MA1999999096851MW1001EQDQ01+999990APOSLP
0050724567139211972011221004+39367-094917SAO  +0238FLV  V0203201N007212200019N0112001N1+01131+00131099711ADDGF108991999999999999999999MA1999999096951MW1001
0069724567139211972011222004+39367-094917SAO  +0238FLV  V0203301N007210690019N0112001N1+00961+00021099801ADDGF108991999999999999999999MA1999999097091MW1001EQDQ01+999990APOSLP
0069724567139211972011223004+39367-094917SAO  +0238FLV  V0203001N007210510019N0112001N1+00521-00421100121ADDGF108991999999999999999999MA1999999097361MW1001EQDQ01+999990APOSLP
0050724567139211972011300004+39367-094917SAO  +0238FLV  V0203201N007210420019N0112001N1+00411-00421100271ADDGF108991999999999999999999MA1999999097491MW1001
0069724567139211972011301004+39367-094917SAO  +0238FLV  V0203401N006710360019N0112001N1+00241-00531100351ADDGF108991999999999999999999MA1999999097561MW1001EQDQ01+999990APOSLP
0069724567139211972011302004+39367-094917SAO  +0238FLV  V0203301N005710330019N0112001N1+00131-00651100511ADDGF108991999999999999999999MA1999999097701MW1001EQDQ01+999990APOSLP
0050724567139211972011303004+39367-094917SAO  +0238FLV  V0203401N008210300019N0112001N1-00041-00761100661ADDGF108991999999999999999999MA1999999097871MW1001
0069724567139211972011304004+39367-094917SAO  +0238FLV  V0203401N007710300019N0112001N1-00261-00651100831ADDGF108991999999999999999999MA1999999097971MW1001EQDQ01+999990APOSLP
0075724567139211972011305004+39367-094917SAO  +0238FLV  V0203301N004610015019N0016001N1-00421-00651100951ADDGF108991999999999999999999MA1999999098071MW1381MW2711EQDQ01+999990APOSLP
0069724567139211972011313004+39367-094917SAO  +0238FLV  V0203201N003110240019N0112001N1-00811-01031101621ADDGF108991999999999999999999MA1999999098681MW1001EQDQ01+999990APOSLP
0069724567139211972011314004+39367-094917SAO  +0238FLV  V0203201N002110240019N0224001N1-00761-01031101741ADDGF107991999999999999999999MA1999999098811MW1001EQDQ01+999990APOSLP
0050724567139211972011315004+39367-094917SAO  +0238FLV  V0203201N002610300019N0224001N1-00761-01091101811ADDGF107991999999999999999999MA1999999098951MW1001
0069724567139211972011316004+39367-094917SAO  +0238FLV  V0203201N003112200019N0224001N1-00761-01201101991ADDGF102991999999999999999999MA1999999099051MW1001EQDQ01+999990APOSLP
0050724567139211972011318004+39367-094917SAO  +0238FLV  V0203101N004612200019N0224001N1-00591-01311102021ADDGF102991999999999999999999MA1999999099151MW1001
0069724567139211972011319004+39367-094917SAO  +0238FLV  V0203201N003612200019N0224001N1-00531-01371102041ADDGF102991999999999999999999MA1999999099121MW1001EQDQ01+999990APOSLP
0069724567139211972011320004+39367-094917SAO  +0238FLV  V0203201N002112200019N0224001N1-00421-01371102031ADDGF102991999999999999999999MA1999999099121MW1001EQDQ01+999990APOSLP
0050724567139211972011321004+39367-094917SAO  +0238FLV  V0203501N002612200019N0112001N1-00371-01371102041ADDGF102991999999999999999999MA1999999099151MW1001
0069724567139211972011322004+39367-094917SAO  +0238FLV  V0203401N002112200019N0112001N1-00371-01371102201ADDGF107991999999999999999999MA1999999099291MW1001EQDQ01+999990APOSLP
0069724567139211972011323004+39367-094917SAO  +0238FLV  V0200201N002110750019N0112001N1-00531-01421102211ADDGF107991999999999999999999MA1999999099291MW1001EQDQ01+999990APOSLP
0050724567139211972011400004+39367-094917SAO  +0238FLV  V0202801N001012200019N0112001N1-00811-01421102341ADDGF107991999999999999999999MA1999999099391MW1001
0069724567139211972011401004+39367-094917SAO  +0238FLV  V0202801N001012200019N0112001N1-00921-01311102501ADDGF107991999999999999999999MA1999999099531MW1001EQDQ01+999990APOSLP
0069724567139211972011402004+39367-094917SAO  +0238FLV  V0209991C000010750019N0112001N1-00981-01261102611ADDGF108991999999999999999999MA1999999099631MW1001EQDQ01+999990APOSLP
0050724567139211972011403004+39367-094917SAO  +0238FLV  V0209991C000010750019N0112001N1-00921-01261102631ADDGF107991999999999999999999MA1999999099731MW1001
0069724567139211972011404004+39367-094917SAO  +0238FLV  V0209991C000012200019N0112001N1-01091-01311102801ADDGF102991999999999999999999MA1999999099801MW1001EQDQ01+999990APOSLP
0069724567139211972011413004+39367-094917SAO  +0238FLV  V0203401N005112200019N0112001N1-01761-02201103821ADDGF102991999999999999999999MA1999999100711MW1001EQDQ01+999990APOSLP
0069724567139211972011414004+39367-094917SAO  +0238FLV  V0203301N004112200019N0112001N1-01921-02421104011ADDGF102991999999999999999999MA1999999100881MW1001EQDQ01+999990APOSLP
0069724567139211972011416004+39367-094917SAO  +0238FLV  V0203101N004110750019N0112001N1-01871-02531104211ADDGF107991999999999999999999MA1999999101081MW1001EQDQ01+999990APOSLP
0069724567139211972011417004+39367-094917SAO  +0238FLV  V0203501N005710750019N0112001N1-01811-02591104211ADDGF108991999999999999999999MA1999999101081MW1001EQDQ01+999990APOSLP
0050724567139211972011418004+39367-094917SAO  +0238FLV  V0203301N006210750019N0112001N1-01811-02591104191ADDGF108991999999999999999999MA1999999101191MW1001
0069724567139211972011419004+39367-094917SAO  +0238FLV  V0203201N004610750019N0112001N1-01761-02641104351ADDGF108991999999999999999999MA1999999101221MW1001EQDQ01+999990APOSLP
0069724567139211972011420004+39367-094917SAO  +0238FLV  V0203101N004610750019N0112001N1-01701-02641104341ADDGF108991999999999999999999MA1999999101221MW1001EQDQ01+999990APOSLP
0050724567139211972011421004+39367-094917SAO  +0238FLV  V0203101N006210750019N0112001N1-01701-02591104301ADDGF108991999999999999999999MA1999999101291MW1001
0069724567139211972011423004+39367-094917SAO  +0238FLV  V0203101N004112200019N0112001N1-01701-02591104471ADDGF107991999999999999999999MA1999999101351MW1001EQDQ01+999990APOSLP
0050724567139211972011500004+39367-094917SAO  +0238FLV  V0202901N002112200019N0112001N1-01921-02641104461ADDGF102991999999999999999999MA1999999101421MW1001
0069724567139211972011501004+39367-094917SAO  +0238FLV  V0202501N001512200019N0112001N1-01921-02641104641ADDGF100991999999999999999999MA1999999101491MW1001EQDQ01+999990APOSLP
0069724567139211972011502004+39367-094917SAO  +0238FLV  V0209991C000012200019N0112001N1-02031-02641104691ADDGF100991999999999999999999MA1999999101521MW1001EQDQ01+999990APOSLP
0050724567139211972011503004+39367-094917SAO  +0238FLV  V0209991C000012200019N0112001N1-02141-02811104621ADDGF100991999999999999999999MA1999999101591MW1001
0069724567139211972011504004+39367-094917SAO  +0238FLV  V0209991C000012200019N0112001N1-02311-02701104841ADDGF100991999999999999999999MA1999999101631MW1001EQDQ01+999990APOSLP
0069724567139211972011505004+39367-094917SAO  +0238FLV  V0209991C000012200019N0112001N1-02311-02701104901ADDGF100991999999999999999999MA1999999101691MW1001EQDQ01+999990APOSLP
0069724567139211972011513004+39367-094917SAO  +0238FLV  V0202701N001012200019N0112001N1-02421-02871104961ADDGF100991999999999999999999MA1999999101731MW1001EQDQ01+999990APOSLP
0069724567139211972011514004+39367-094917SAO  +0238FLV  V0202601N001012200019N0112001N1-02481-02871104961ADDGF102991999999999999999999MA1999999101731MW1001EQDQ01+999990APOSLP
0050724567139211972011515004+39367-094917SAO  +0238FLV  V0209991C000012200019N0112001N1-02141-02591104921ADDGF108991999999999999999999MA1999999101831MW1001
0069724567139211972011516004+39367-094917SAO  +0238FLV  V0200801N001012200019N0112001N1-01981-02641104961ADDGF107991999999999999999999MA1999999101791MW1001EQDQ01+999990APOSLP
0069724567139211972011517004+39367-094917SAO  +0238FLV  V0209991C000012200019N0112001N1-01871-02751104921ADDGF107991999999999999999999MA1999999101761MW1001EQDQ01+999990APOSLP
0050724567139211972011518004+39367-094917SAO  +0238FLV  V0201601N001012200019N0112001N1-01811-02751104821ADDGF102991999999999999999999MA1999999101691MW1001
0069724567139211972011519004+39367-094917SAO  +0238FLV  V0201201N001012200019N0112001N1-01761-02751104731ADDGF108991999999999999999999MA1999999101591MW1001EQDQ01+999990APOSLP
0069724567139211972011520004+39367-094917SAO  +0238FLV  V0201901N001012200019N0112001N1-01641-02641104641ADDGF108991999999999999999999MA1999999101521MW1001EQDQ01+999990APOSLP
0050724567139211972011521004+39367-094917SAO  +0238FLV  V0201301N001012200019N0112001N1-01531-02531104541ADDGF108991999999999999999999MA1999999101461MW1001
0069724567139211972011522004+39367-094917SAO  +0238FLV  V0201601N003112200019N0112001N1-01531-02531104491ADDGF108991999999999999999999MA1999999101391MW1001EQDQ01+999990APOSLP
0069724567139211972011523004+39367-094917SAO  +0238FLV  V0201401N002612200019N0112001N1-01481-02481104441ADDGF108991999999999999999999MA1999999101351MW1001EQDQ01+999990APOSLP
0050724567139211972011600004+39367-094917SAO  +0238FLV  V0201201N003110750019N0112001N1-01481-02421104371ADDGF108991999999999999999999MA1999999101321MW1001
0069724567139211972011601004+39367-094917SAO  +0238FLV  V0201301N003112200019N0112001N1-01481-02311104381ADDGF108991999999999999999999MA1999999101291MW1001EQDQ01+999990APOSLP
0069724567139211972011602004+39367-094917SAO  +0238FLV  V0201501N003110750019N0112001N1-01421-02261104381ADDGF108991999999999999999999MA1999999101291MW1001EQDQ01+999990APOSLP
0050724567139211972011603004+39367-094917SAO  +0238FLV  V0201401N003110750019N0112001N1-01421-02261104291ADDGF108991999999999999999999MA1999999101251MW1001
0069724567139211972011604004+39367-094917SAO  +0238FLV  V0201501N003112200019N0112001N1-01421-02261104301ADDGF108991999999999999999999MA1999999101221MW1001EQDQ01+999990APOSLP
0069724567139211972011605004+39367-094917SAO  +0238FLV  V0201301N001012200019N0112001N1-01481-02261104311ADDGF102991999999999999999999MA1999999101221MW1001EQDQ01+999990APOSLP
0069724567139211972011613004+39367-094917SAO  +0238FLV  V0201501N001512200019N0112001N1-01261-01871103551ADDGF107991999999999999999999MA1999999100511MW1001EQDQ01+999990APOSLP
0069724567139211972011614004+39367-094917SAO  +0238FLV  V0201401N001512200019N0112001N1-01261-01811103451ADDGF108991999999999999999999MA1999999100411MW1001EQDQ01+999990APOSLP
0050724567139211972011615004+39367-094917SAO  +0238FLV  V0201801N006212200019N0112001N1-00921-01531103271ADDGF108991999999999999999999MA1999999100301MW1001
0069724567139211972011616004+39367-094917SAO  +0238FLV  V0201801N007212200019N0112001N1-00761-01421103141ADDGF107991999999999999999999MA1999999100171MW1001EQDQ01+999990APOSLP
0069724567139211972011617004+39367-094917SAO  +0238FLV  V0201801N008712200019N0112001N1-00481-01091102941ADDGF108991999999999999999999MA1999999100001MW1001EQDQ01+999990APOSLP
0050724567139211972011618004+39367-094917SAO  +0238FLV  V0201901N008712200019N0112001N1-00261-00921102801ADDGF108991999999999999999999MA1999999099861MW1001
0069724567139211972011619004+39367-094917SAO  +0238FLV  V0201801N008712200019N0112001N1-00091-00761102551ADDGF107991999999999999999999MA1999999099661MW1001EQDQ01+999990APOSLP
0069724567139211972011620004+39367-094917SAO  +0238FLV  V0201901N008212200019N0112001N1+00021-00701102461ADDGF102991999999999999999999MA1999999099591MW1001EQDQ01+999990APOSLP
0050724567139211972011621004+39367-094917SAO  +0238FLV  V0201901N007712200019N0112001N1+00021-00651102441ADDGF107991999999999999999999MA1999999099491MW1001
0069724567139211972011622004+39367-094917SAO  +0238FLV  V0201901N007212200019N0112001N1+00081-00591102321ADDGF107991999999999999999999MA1999999099461MW1001EQDQ01+999990APOSLP
0069724567139211972011623004+39367-094917SAO  +0238FLV  V0201901N004612200019N0112001N1+00021-00591102231ADDGF107991999999999999999999MA1999999099361MW1001EQDQ01+999990APOSLP
0050724567139211972011700004+39367-094917SAO  +0238FLV  V0201801N006212200019N0112001N1+00021-00591102341ADDGF102991999999999999999999MA1999999099391MW1001
0069724567139211972011701004+39367-094917SAO  +0238FLV  V0201801N006212200019N0112001N1-00041-00651102191ADDGF100991999999999999999999MA1999999099321MW1001EQDQ01+999990APOSLP
0069724567139211972011702004+39367-094917SAO  +0238FLV  V0201901N005712200019N0112001N1-00041-00651102191ADDGF100991999999999999999999MA1999999099321MW1001EQDQ01+999990APOSLP
0050724567139211972011703004+39367-094917SAO  +0238FLV  V0201801N004612200019N0112001N1-00091-00651102141ADDGF100991999999999999999999MA1999999099261MW1001
0069724567139211972011704004+39367-094917SAO  +0238FLV  V0201701N005112200019N0112001N1-00091-00651102091ADDGF100991999999999999999999MA1999999099221MW1001EQDQ01+999990APOSLP
0069724567139211972011705004+39367-094917SAO  +0238FLV  V0201901N004112200019N0112001N1-00151-00701102031ADDGF100991999999999999999999MA1999999099151MW1001EQDQ01+999990APOSLP
0069724567139211972011713004+39367-094917SAO  +0238FLV  V0201801N003612200019N0112001N1-00261-00701101591ADDGF100991999999999999999999MA1999999098711MW1001EQDQ01+999990APOSLP
0069724567139211972011714004+39367-094917SAO  +0238FLV  V0201801N003112200019N0112001N1-00261-00701101561ADDGF100991999999999999999999MA1999999098681MW1001EQDQ01+999990APOSLP
0050724567139211972011715004+39367-094917SAO  +0238FLV  V0201901N003112200019N0000001N1-00091-00591101511ADDGF100991999999999999999999MA1999999098681MW1001
0069724567139211972011716004+39367-094917SAO  +0238FLV  V0201901N004612200019N0112001N1+00131-00421101441ADDGF100991999999999999999999MA1999999098611MW1001EQDQ01+999990APOSLP
0069724567139211972011717004+39367-094917SAO  +0238FLV  V0201801N007212200019N0112001N1+00301-00311101391ADDGF100991999999999999999999MA1999999098581MW1001EQDQ01+999990APOSLP
0050724567139211972011718004+39367-094917SAO  +0238FLV  V0201801N006712200019N0112001N1+00461-00151101241ADDGF100991999999999999999999MA1999999098411MW1001
0069724567139211972011719004+39367-094917SAO  +0238FLV  V0201901N006712200019N0112001N1+00631-00041101081ADDGF100991999999999999999999MA1999999098311MW1001EQDQ01+999990APOSLP
0069724567139211972011720004+39367-094917SAO  +0238FLV  V0201901N007212200019N0112001N1+00801+00081100921ADDGF100991999999999999999999MA1999999098171MW1001EQDQ01+999990APOSLP
0069724567139211972011723004+39367-094917SAO  +0238FLV  V0201901N007712200019N0112001N1+00911+00351100741ADDGF100991999999999999999999MA1999999098001MW1001EQDQ01+999990APOSLP
0050724567139211972011800004+39367-094917SAO  +0238FLV  V0201801N007212200019N0112001N1+00801+00351100821ADDGF100991999999999999999999MA1999999098001MW1001
0069724567139211972011801004+39367-094917SAO  +0238FLV  V0201801N006212200019N0112001N1+00741+00351100791ADDGF100991999999999999999999MA1999999098041MW1001EQDQ01+999990APOSLP
0069724567139211972011802004+39367-094917SAO  +0238FLV  V0201801N005112200019N0112001N1+00631+00351100841ADDGF100991999999999999999999MA1999999098071MW1001EQDQ01+999990APOSLP
0069724567139211972011805004+39367-094917SAO  +0238FLV  V0201901N004112200019N0112001N1+00741+00461100721ADDGF102991999999999999999999MA1999999097971MW1001EQDQ01+999990APOSLP
0069724567139211972011813004+39367-094917SAO  +0238FLV  V0201901N003112200019N0112001N1+00961+00741100281ADDGF102991999999999999999999MA1999999097561MW1001EQDQ01+999990APOSLP
0069724567139211972011814004+39367-094917SAO  +0238FLV  V0202001N002612200019N0112001N1+00961+00741100281ADDGF102991999999999999999999MA1999999097561MW1001EQDQ01+999990APOSLP
0050724567139211972011815004+39367-094917SAO  +0238FLV  V0201901N002112200019N0112001N1+01021+00741100381ADDGF102991999999999999999999MA1999999097631MW1001
0069724567139211972011816004+39367-094917SAO  +0238FLV  V0202201N004112200019N0112001N1+01241+00801100321ADDGF100991999999999999999999MA1999999097631MW1001EQDQ01+999990APOSLP
0069724567139211972011817004+39367-094917SAO  +0238FLV  V0202101N008712200019N0112001N1+01351+00741100341ADDGF102991999999999999999999MA1999999097661MW1001EQDQ01+999990APOSLP
0050724567139211972011818004+39367-094917SAO  +0238FLV  V0202301N007712200019N0112001N1+01461+00741100461ADDGF107991999999999999999999MA1999999097701MW1001
0069724567139211972011819004+39367-094917SAO  +0238FLV  V0202401N004112200019N0112001N1+01571+00691100401ADDGF108991999999999999999999MA1999999097731MW1001EQDQ01+999990APOSLP
0069724567139211972011820004+39367-094917SAO  +0238FLV  V0202401N005112200019N0112001N1+01571+00521100541ADDGF108991999999999999999999MA1999999097871MW1001EQDQ01+999990APOSLP
0085724567139211972011821004+39367-094917SAO  +0238FLV  V0202801N004612200019N0112001N1+01521+00301999999ADDGF107991999999999999999999MA1999999098041MW1001EQDQ01+101413APOSLPQ02 101413APOSLP
0085724567139211972011822004+39367-094917SAO  +0238FLV  V0203301N004610690019N0112001N1+01241+00131100922ADDGF107991999999999999999999MA1999999098211MW1001EQDQ01+999990APOSLPQ02+100923APOSLP
0069724567139211972011823004+39367-094917SAO  +0238FLV  V0203301N005712200019N0112001N1+01021+00131101151ADDGF107991999999999999999999MA1999999098411MW1001EQDQ01+999990APOSLP
0050724567139211972011900004+39367-094917SAO  +0238FLV  V0203201N003612200019N0112001N1+00581+00021101321ADDGF107991999999999999999999MA1999999098581MW1001
0069724567139211972011901004+39367-094917SAO  +0238FLV  V0203101N001012200019N0112001N1+00301-00041101571ADDGF102991999999999999999999MA1999999098751MW1001EQDQ01+999990APOSLP
0069724567139211972011902004+39367-094917SAO  +0238FLV  V0203001N002112200019N0112001N1-00041-00151101671ADDGF102991999999999999999999MA1999999098811MW1001EQDQ01+999990APOSLP
0050724567139211972011903004+39367-094917SAO  +0238FLV  V0203301N003112200019N0112001N1+00021-00151101731ADDGF100991999999999999999999MA1999999098921MW1001
0069724567139211972011904004+39367-094917SAO  +0238FLV  V0203301N003112200019N0112001N1+00241-00041101851ADDGF100991999999999999999999MA1999999099021MW1001EQDQ01+999990APOSLP
0069724567139211972011905004+39367-094917SAO  +0238FLV  V0203201N003112200019N0112001N1+00081-00091101941ADDGF100991999999999999999999MA1999999099091MW1001EQDQ01+999990APOSLP
0069724567139211972011913004+39367-094917SAO  +0238FLV  V0201301N003112200019N0112001N1-00201-00261102111ADDGF107991999999999999999999MA1999999099221MW1001EQDQ01+999990APOSLP
0069724567139211972011914004+39367-094917SAO  +0238FLV  V0200501N002110300019N0112001N1-00151-00261102101ADDGF108991999999999999999999MA1999999099221MW1001EQDQ01+999990APOSLP
0050724567139211972011915004+39367-094917SAO  +0238FLV  V0200701N002610084019N0112001N1-00091-00201102161ADDGF108991999999999999999999MA1999999099291MW1001
0069724567139211972011916004+39367-094917SAO  +0238FLV  V0200901N003610096019N0112001N1+00081-00201102121ADDGF107991999999999999999999MA1999999099261MW1001EQDQ01+999990APOSLP
0050724567139211972011918004+39367-094917SAO  +0238FLV  V0200901N003110048019N0112001N1+00241-00151102021ADDGF108991999999999999999999MA1999999099151MW1001
0069724567139211972011919004+39367-094917SAO  +0238FLV  V0200801N003610045019N0112001N1+00241-00151101851ADDGF108991999999999999999999MA1999999099021MW1001EQDQ01+999990APOSLP
0069724567139211972011922004+39367-094917SAO  +0238FLV  V0200501N002610042019N0112001N1+00191-00091101711ADDGF108991999999999999999999MA1999999098881MW1001EQDQ01+999990APOSLP
0069724567139211972011923004+39367-094917SAO  +0238FLV  V0200401N002610048019N0112001N1+00131-00201101761ADDGF108991999999999999999999MA1999999098921MW1001EQDQ01+999990APOSLP
0050724567139211972012000004+39367-094917SAO  +0238FLV  V0200401N002110051019N0112001N1+00131-00201101771ADDGF108991999999999999999999MA1999999098921MW1001
0069724567139211972012001004+39367-094917SAO  +0238FLV  V0203401N002110051019N0112001N1+00131-00261101761ADDGF108991999999999999999999MA1999999098921MW1001EQDQ01+999990APOSLP
0069724567139211972012002004+39367-094917SAO  +0238FLV  V0200701N002610048019N0112001N1+00131-00261101721ADDGF108991999999999999999999MA1999999098881MW1001EQDQ01+999990APOSLP
0050724567139211972012003004+39367-094917SAO  +0238FLV  V0203501N001510048019N0112001N1+00131-00261101691ADDGF108991999999999999999999MA1999999098851MW1001
0069724567139211972012004004+39367-094917SAO  +0238FLV  V0203401N001010051019N0112001N1+00131-00261101691ADDGF108991999999999999999999MA1999999098851MW1001EQDQ01+999990APOSLP
0069724567139211972012005004+39367-094917SAO  +0238FLV  V0203401N002110048019N0112001N1+00131-00261101651ADDGF108991999999999999999999MA1999999098811MW1001EQDQ01+999990APOSLP
0069724567139211972012013004+39367-094917SAO  +0238FLV  V0203201N002110021019N0080001N1+00021-00091101701ADDGF108991999999999999999999MA1999999098851MW1451EQDQ01+999990APOSLP
0069724567139211972012014004+39367-094917SAO  +0238FLV  V0203301N002610021019N0064001N1+00021-00091101771ADDGF108991999999999999999999MA1999999098921MW1451EQDQ01+999990APOSLP
0050724567139211972012015004+39367-094917SAO  +0238FLV  V0203301N001510018019N0048001N1+00021-00041101821ADDGF108991999999999999999999MA1999999098951MW1451
0069724567139211972012016004+39367-094917SAO  +0238FLV  V0203401N002610018019N0048001N1+00021-00041101911ADDGF108991999999999999999999MA1999999099051MW1451EQDQ01+999990APOSLP
0069724567139211972012017004+39367-094917SAO  +0238FLV  V0203601N005110027019N0080001N1+00081-00041101971ADDGF108991999999999999999999MA1999999099121MW1451EQDQ01+999990APOSLP
0069724567139211972012019004+39367-094917SAO  +0238FLV  V0200301N003610027019N0080001N1+00021-00041101981ADDGF108991999999999999999999MA1999999099121MW1451EQDQ01+999990APOSLP
0069724567139211972012020004+39367-094917SAO  +0238FLV  V0203601N003610030019N0080001N1+00021-00091102011ADDGF108991999999999999999999MA1999999099151MW1451EQDQ01+999990APOSLP
0050724567139211972012021004+39367-094917SAO  +0238FLV  V0203501N003110036019N0080001N1-00041-00151102061ADDGF108991999999999999999999MA1999999099191MW1451
0069724567139211972012022004+39367-094917SAO  +0238FLV  V0203601N003610042019N0080001N1-00041-00201102161ADDGF108991999999999999999999MA1999999099291MW1451EQDQ01+999990APOSLP
0069724567139211972012023004+39367-094917SAO  +0238FLV  V0203601N004110048019N0080001N1-00041-00311102231ADDGF108991999999999999999999MA1999999099361MW1451EQDQ01+999990APOSLP
0050724567139211972012100004+39367-094917SAO  +0238FLV  V0203601N003110045019N0080001N1-00091-00311102251ADDGF108991999999999999999999MA1999999099391MW1451
0069724567139211972012102004+39367-094917SAO  +0238FLV  V0200301N003110045019N0080001N1-00151-00371102351ADDGF108991999999999999999999MA1999999099461MW1451EQDQ01+999990APOSLP
0050724567139211972012103004+39367-094917SAO  +0238FLV  V0200101N003110045019N0080001N1-00201-00371102351ADDGF108991999999999999999999MA1999999099491MW1451
0069724567139211972012104004+39367-094917SAO  +0238FLV  V0200201N003610048019N0080001N1-00261-00481102431ADDGF108991999999999999999999MA1999999099531MW1451EQDQ01+999990APOSLP
0069724567139211972012105004+39367-094917SAO  +0238FLV  V0200301N001510048019N0080001N1-00311-00531102471ADDGF108991999999999999999999MA1999999099561MW1451EQDQ01+999990APOSLP
0069724567139211972012113004+39367-094917SAO  +0238FLV  V0200901N001010030019N0112001N1-00481-00651102061ADDGF108991999999999999999999MA1999999099151MW1001EQDQ01+999990APOSLP
0075724567139211972012114004+39367-094917SAO  +0238FLV  V0201401N001510018019N0032001N1-00481-00531102001ADDGF108991999999999999999999MA1999999099091MW1451MW2561EQDQ01+999990APOSLP
0056724567139211972012115004+39367-094917SAO  +0238FLV  V0201201N001010015019N0020001N1-00421-00481101921ADDGF108991999999999999999999MA1999999099051MW1451MW2561
0075724567139211972012116004+39367-094917SAO  +0238FLV  V0201201N001010018019N0024001N1-00371-00421101921ADDGF108991999999999999999999MA1999999099021MW1451MW2561EQDQ01+999990APOSLP
0075724567139211972012117004+39367-094917SAO  +0238FLV  V0201301N001010015019N0024001N1-00261-00371101861ADDGF108991999999999999999999MA1999999098981MW1451MW2561EQDQ01+999990APOSLP
0056724567139211972012118004+39367-094917SAO  +0238FLV  V0201701N001510015019N0024001N1-00201-00311101701ADDGF108991999999999999999999MA1999999098811MW1451MW2561
0075724567139211972012119004+39367-094917SAO  +0238FLV  V0201601N002110015019N0020001N1-00201+99999101481ADDGF108991999999999999999999MA1999999098611MW1451MW2561EQDQ01+999990APOSLP
0075724567139211972012120004+39367-094917SAO  +0238FLV  V0201501N002110015019N0024001N1-00091-00151101331ADDGF108991999999999999999999MA1999999098481MW1451MW2561EQDQ01+999990APOSLP
0056724567139211972012121004+39367-094917SAO  +0238FLV  V0201501N002610018019N0028001N1-00041-00091101171ADDGF108991999999999999999999MA1999999098341MW1451MW2561
0069724567139211972012122004+39367-094917SAO  +0238FLV  V0201501N001010024019N0064001N1+00021-00091101041ADDGF108991999999999999999999MA1999999098211MW1451EQDQ01+999990APOSLP
0069724567139211972012123004+39367-094917SAO  +0238FLV  V0201601N001510024019N0064001N1+00081-00041101041ADDGF108991999999999999999999MA1999999098211MW1451EQDQ01+999990APOSLP
0050724567139211972012200004+39367-094917SAO  +0238FLV  V0209991C000010021019N0048001N1+00081-00041100991ADDGF108991999999999999999999MA1999999098171MW1451
0050724567139211972012203004+39367-094917SAO  +0238FLV  V0201601N001010015019N0032001N1+00081+99999100771ADDGF108991999999999999999999MA1999999097931MW1451
0069724567139211972012204004+39367-094917SAO  +0238FLV  V0201801N001510015019N0040001N1+00131+99999100681ADDGF108991999999999999999999MA1999999097871MW1451EQDQ01+999990APOSLP
0035724567139211972012205004+39367-094917SAO  +0238FLV  V02099999999990015019N0048001N1+00191+99999999999ADDGF108991999999999999999999MW1451
0069724567139211972012213004+39367-094917SAO  +0238FLV  V0202101N001512200019N0064001N1+00081+99999100751ADDGF102991999999999999999999MA1999999097931MW1451EQDQ01+999990APOSLP
0069724567139211972012214004+39367-094917SAO  +0238FLV  V0209991C000012200019N0064001N1+00021+00021100751ADDGF107991999999999999999999MA1999999097931MW1451EQDQ01+999990APOSLP
0050724567139211972012215004+39367-094917SAO  +0238FLV  V0209991C000012200019N0064001N1+00081+00081100801ADDGF107991999999999999999999MA1999999097971MW1451
0075724567139211972012216004+39367-094917SAO  +0238FLV  V0202601N001012200019N0080001N1+00301+00191100841ADDGF102991999999999999999999MA1999999098041MW1051MW2111EQDQ01+999990APOSLP
0075724567139211972012217004+39367-094917SAO  +0238FLV  V0202101N001012200019N0080001N1+00461+00191100851ADDGF102991999999999999999999MA1999999098071MW1051MW2111EQDQ01+999990APOSLP
0069724567139211972012219004+39367-094917SAO  +0238FLV  V0201701N005710300019N0096001N1+00691+00301100621ADDGF107991999999999999999999MA1999999097871MW1051EQDQ01+999990APOSLP
0069724567139211972012220004+39367-094917SAO  +0238FLV  V0201701N002610750019N0096001N1+00631+00301100631ADDGF108991999999999999999999MA1999999097871MW1051EQDQ01+999990APOSLP
0050724567139211972012221004+39367-094917SAO  +0238FLV  V0202101N002110300019N0112001N1+00691+00301100711ADDGF108991999999999999999999MA1999999097901MW1001
0069724567139211972012222004+39367-094917SAO  +0238FLV  V0209991C000010300019N0112001N1+00741+00351100681ADDGF108991999999999999999999MA1999999097931MW1001EQDQ01+999990APOSLP
0069724567139211972012223004+39367-094917SAO  +0238FLV  V0209991C000010300019N0112001N1+00631+00351100691ADDGF108991999999999999999999MA1999999097931MW1001EQDQ01+999990APOSLP
0050724567139211972012300004+39367-094917SAO  +0238FLV  V0209991C000010300019N0112001N1+00461+00351100781ADDGF108991999999999999999999MA1999999097971MW1001
0069724567139211972012313004+39367-094917SAO  +0238FLV  V0209991C000010018019N0040001N1+00301+99999100661ADDGF108991999999999999999999MA1999999097871MW1451EQDQ01+999990APOSLP
0069724567139211972012314004+39367-094917SAO  +0238FLV  V0209991C000010018019N0032001N1+00301+99999100731ADDGF108991999999999999999999MA1999999097931MW1451EQDQ01+999990APOSLP
0050724567139211972012315004+39367-094917SAO  +0238FLV  V0209991C000010018019N0032001N1+00351+99999100571ADDGF108991999999999999999999MA1999999097971MW1451
0069724567139211972012316004+39367-094917SAO  +0238FLV  V0209991C000010015019N0024001N1+00411+00411100861ADDGF108991999999999999999999MA1999999098071MW1451EQDQ01+999990APOSLP
0069724567139211972012317004+39367-094917SAO  +0238FLV  V0203501N001510015019N0024001N1+00461+00461100821ADDGF108991999999999999999999MA1999999098041MW1451EQDQ01+999990APOSLP
0056724567139211972012318004+39367-094917SAO  +0238FLV  V0209991C000010006019N0008001N1+00411+99999100941ADDGF108991999999999999999999MA1999999098141MW1451MW2511
0069724567139211972012319004+39367-094917SAO  +0238FLV  V0203301N001510012019N0028001N1+00411+00411100931ADDGF108991999999999999999999MA1999999098141MW1451EQDQ01+999990APOSLP
0069724567139211972012320004+39367-094917SAO  +0238FLV  V0203501N002110009019N0032001N1+00301+00301100901ADDGF108991999999999999999999MA1999999098101MW1451EQDQ01+999990APOSLP
0050724567139211972012321004+39367-094917SAO  +0238FLV  V0203601N002110012019N0040001N1+00191+99999100911ADDGF108991999999999999999999MA1999999098101MW1451
0069724567139211972012322004+39367-094917SAO  +0238FLV  V0203601N003610015019N0040001N1+00131+99999100991ADDGF108991999999999999999999MA1999999098171MW1451EQDQ01+999990APOSLP
0069724567139211972012323004+39367-094917SAO  +0238FLV  V0200301N001010015019N0040001N1+00081+99999100961ADDGF108991999999999999999999MA1999999098141MW1001EQDQ01+999990APOSLP
0050724567139211972012400004+39367-094917SAO  +0238FLV  V0200801N002619999999N0024001N1+00021+99999100941ADDGF108991999999999999999999MA1999999098141MW1451
0069724567139211972012401004+39367-094917SAO  +0238FLV  V0200601N001010009019N0012001N1+00021+99999101001ADDGF108991999999999999999999MA1999999098171MW1451EQDQ01+999990APOSLP
0075724567139211972012402004+39367-094917SAO  +0238FLV  V0200801N002110009019N0012001N1+00021+00021100931ADDGF108991999999999999999999MA1999999098101MW1451MW2511EQDQ01+999990APOSLP
0056724567139211972012403004+39367-094917SAO  +0238FLV  V0201001N002110009019N0012001N1+00021+99999100901ADDGF108991999999999999999999MA1999999098101MW1451MW2561
0075724567139211972012404004+39367-094917SAO  +0238FLV  V0201001N002610009019N0010001N1-00041+99999100871ADDGF108991999999999999999999MA1999999098041MW1451MW2561EQDQ01+999990APOSLP
0075724567139211972012405004+39367-094917SAO  +0238FLV  V0200901N002110009019N0010001N1-00041+99999100631ADDGF108991999999999999999999MA1999999097801MW1451MW2561EQDQ01+999990APOSLP
0075724567139211972012413004+39367-094917SAO  +0238FLV  V0209991C000010003019N0008001N1+00241+99999099941ADDGF108991999999999999999999MA1999999097161MW1451MW2511EQDQ01+999990APOSLP
0075724567139211972012414004+39367-094917SAO  +0238FLV  V0203001N002110006019N0024001N1+00191+99999100051ADDGF108991999999999999999999MA1999999097261MW1451MW2511EQDQ01+999990APOSLP
0050724567139211972012415004+39367-094917SAO  +0238FLV  V0203001N004110012019N0112001N1+00191+00131100161ADDGF108991999999999999999999MA1999999097361MW1001
0069724567139211972012416004+39367-094917SAO  +0238FLV  V0203001N003610027019N0112001N1+00191+00081100431ADDGF108991999999999999999999MA1999999097631MW1001EQDQ01+999990APOSLP
0050724567139211972012418004+39367-094917SAO  +0238FLV  V0202901N009312200019N0112001N1+00301-00151100721ADDGF102991999999999999999999MA1999999097931MW1001
0069724567139211972012420004+39367-094917SAO  +0238FLV  V0203001N011312200019N0112001N1+00131-00701101161ADDGF107991999999999999999999MA1999999098341MW1001EQDQ01+999990APOSLP
0050724567139211972012421004+39367-094917SAO  +0238FLV  V0202901N010312200019N0112001N1-00041-00921101441ADDGF102991999999999999999999MA1999999098611MW1001
0069724567139211972012422004+39367-094917SAO  +0238FLV  V0203101N011312200019N0112001N1-00201-01091101801ADDGF102991999999999999999999MA1999999098921MW1001EQDQ01+999990APOSLP
0069724567139211972012423004+39367-094917SAO  +0238FLV  V0203001N010312200019N0112001N1-00371-01201102021ADDGF102991999999999999999999MA1999999099121MW1001EQDQ01+999990APOSLP
0050724567139211972012500004+39367-094917SAO  +0238FLV  V0202901N007712200019N0112001N1-00531-01261102261ADDGF100991999999999999999999MA1999999099391MW1001
0069724567139211972012501004+39367-094917SAO  +0238FLV  V0203101N006712200019N0112001N1-00701-01311102651ADDGF100991999999999999999999MA1999999099701MW1001EQDQ01+999990APOSLP
0069724567139211972012502004+39367-094917SAO  +0238FLV  V0203001N008212200019N0112001N1-00811-01421102901ADDGF100991999999999999999999MA1999999099931MW1001EQDQ01+999990APOSLP
0050724567139211972012503004+39367-094917SAO  +0238FLV  V0203101N007712200019N0112001N1-00921-01591102961ADDGF100991999999999999999999MA1999999100071MW1001
0069724567139211972012504004+39367-094917SAO  +0238FLV  V0203101N006712200019N0112001N1-01031-01701103251ADDGF100991999999999999999999MA1999999100241MW1001EQDQ01+999990APOSLP
0069724567139211972012505004+39367-094917SAO  +0238FLV  V0203201N006712200019N0112001N1-01091-01701103321ADDGF100991999999999999999999MA1999999100301MW1001EQDQ01+999990APOSLP
0069724567139211972012513004+39367-094917SAO  +0238FLV  V0203501N002612200019N0112001N1-01531-02261104001ADDGF100991999999999999999999MA1999999100911MW1001EQDQ01+999990APOSLP
0069724567139211972012514004+39367-094917SAO  +0238FLV  V0203201N002112200019N0112001N1-01531-02311104171ADDGF100991999999999999999999MA1999999101081MW1001EQDQ01+999990APOSLP
0050724567139211972012515004+39367-094917SAO  +0238FLV  V0200201N003112200019N0112001N1-01421-02201103911ADDGF100991999999999999999999MA1999999100911MW1001
0069724567139211972012516004+39367-094917SAO  +0238FLV  V0200301N003612200019N0112001N1-01261-02201104141ADDGF100991999999999999999999MA1999999101081MW1001EQDQ01+999990APOSLP
0069724567139211972012517004+39367-094917SAO  +0238FLV  V0200801N002612200019N0112001N1-01151-02201104131ADDGF102991999999999999999999MA1999999101081MW1001EQDQ01+999990APOSLP
0050724567139211972012518004+39367-094917SAO  +0238FLV  V0200801N002612200019N0112001N1-01031-02031103911ADDGF102991999999999999999999MA1999999100911MW1001
0069724567139211972012519004+39367-094917SAO  +0238FLV  V0200901N002112200019N0112001N1-00871-01981103821ADDGF102991999999999999999999MA1999999100811MW1001EQDQ01+999990APOSLP
0069724567139211972012522004+39367-094917SAO  +0238FLV  V0201001N001512200019N0112001N1-00651-01921103661ADDGF100991999999999999999999MA1999999100681MW1001EQDQ01+999990APOSLP
0069724567139211972012523004+39367-094917SAO  +0238FLV  V0200901N003612200019N0112001N1-00591-01761103611ADDGF107991999999999999999999MA1999999100641MW1001EQDQ01+999990APOSLP
0050724567139211972012600004+39367-094917SAO  +0238FLV  V0200901N004112200019N0112001N1-00761-01701103551ADDGF102991999999999999999999MA1999999100581MW1001
0069724567139211972012601004+39367-094917SAO  +0238FLV  V0200801N003612200019N0112001N1-00811-01641103601ADDGF102991999999999999999999MA1999999100611MW1001EQDQ01+999990APOSLP
0069724567139211972012602004+39367-094917SAO  +0238FLV  V0200601N002612200019N0112001N1-00811-01591103601ADDGF107991999999999999999999MA1999999100611MW1001EQDQ01+999990APOSLP
0050724567139211972012603004+39367-094917SAO  +0238FLV  V0200501N002112200019N0112001N1-00761-01591103601ADDGF107991999999999999999999MA1999999100611MW1001
0069724567139211972012604004+39367-094917SAO  +0238FLV  V0200401N003112200019N0112001N1-00811-01531103571ADDGF108991999999999999999999MA1999999100581MW1001EQDQ01+999990APOSLP
0069724567139211972012605004+39367-094917SAO  +0238FLV  V0200601N003110360019N0112001N1-00811-01531103501ADDGF108991999999999999999999MA1999999100511MW1001EQDQ01+999990APOSLP
0069724567139211972012613004+39367-094917SAO  +0238FLV  V0200301N002610750019N0112001N1-01311-01921103661ADDGF107991999999999999999999MA1999999100611MW1001EQDQ01+999990APOSLP
0069724567139211972012614004+39367-094917SAO  +0238FLV  V0200201N003610750019N0112001N1-01311-01921103731ADDGF107991999999999999999999MA1999999100681MW1001EQDQ01+999990APOSLP
0050724567139211972012615004+39367-094917SAO  +0238FLV  V0200301N002610750019N0112001N1-01261-01811103681ADDGF107991999999999999999999MA1999999100711MW1001
0069724567139211972012616004+39367-094917SAO  +0238FLV  V0200301N002110750019N0112001N1-01201-01871103791ADDGF108991999999999999999999MA1999999100751MW1001EQDQ01+999990APOSLP
0069724567139211972012617004+39367-094917SAO  +0238FLV  V0200301N004110750019N0112001N1-01091-01871103811ADDGF108991999999999999999999MA1999999100781MW1001EQDQ01+999990APOSLP
0050724567139211972012618004+39367-094917SAO  +0238FLV  V0200501N003610750019N0112001N1-00981-01761103691ADDGF108991999999999999999999MA1999999100751MW1001
0069724567139211972012619004+39367-094917SAO  +0238FLV  V0200201N006710750019N0112001N1-00811-01761103631ADDGF108991999999999999999999MA1999999100641MW1001EQDQ01+999990APOSLP
0069724567139211972012620004+39367-094917SAO  +0238FLV  V0200101N006210750019N0112001N1-00811-01701103501ADDGF108991999999999999999999MA1999999100511MW1001EQDQ01+999990APOSLP
0050724567139211972012621004+39367-094917SAO  +0238FLV  V0200401N005110750019N0112001N1-00871-01761103511ADDGF108991999999999999999999MA1999999100541MW1001
0069724567139211972012622004+39367-094917SAO  +0238FLV  V0200201N008212200019N0112001N1-00811-01701103531ADDGF108991999999999999999999MA1999999100541MW1001EQDQ01+999990APOSLP
0069724567139211972012623004+39367-094917SAO  +0238FLV  V0200301N005112200019N0112001N1-00871-01811103611ADDGF108991999999999999999999MA1999999100611MW1001EQDQ01+999990APOSLP
0056724567139211972012800004+39367-094917SAO  +0238FLV  V0203101N003110096019N0032001N1-01421-01871102761ADDGF108991999999999999999999MA1999999099801MW1451MW2711
0069724567139211972012801004+39367-094917SAO  +0238FLV  V0203101N001510114019N0112001N1-01481-01921102851ADDGF108991999999999999999999MA1999999099801MW1001EQDQ01+999990APOSLP
0069724567139211972012802004+39367-094917SAO  +0238FLV  V0203201N002610135019N0112001N1-01481-01981102951ADDGF108991999999999999999999MA1999999099901MW1001EQDQ01+999990APOSLP
0050724567139211972012803004+39367-094917SAO  +0238FLV  V0203101N003110300019N0112001N1-01531-02091103011ADDGF108991999999999999999999MA1999999100031MW1001
0069724567139211972012804004+39367-094917SAO  +0238FLV  V0203101N004110750019N0112001N1-01591-02201103141ADDGF107991999999999999999999MA1999999100071MW1001EQDQ01+999990APOSLP
0069724567139211972012805004+39367-094917SAO  +0238FLV  V0203201N001512200019N0112001N1-01701-02261103221ADDGF102991999999999999999999MA1999999100141MW1001EQDQ01+999990APOSLP
0069724567139211972012814004+39367-094917SAO  +0238FLV  V0209991C000012200019N0112001N1-01981-02421103291ADDGF100991999999999999999999MA1999999100171MW1001EQDQ01+999990APOSLP
0050724567139211972012815004+39367-094917SAO  +0238FLV  V0209991C000012200019N0112001N1-01871-02371103131ADDGF100991999999999999999999MA1999999100141MW1001
0069724567139211972012816004+39367-094917SAO  +0238FLV  V0201501N001012200019N0112001N1-01761-02371103231ADDGF100991999999999999999999MA1999999100141MW1001EQDQ01+999990APOSLP
0069724567139211972012817004+39367-094917SAO  +0238FLV  V0201401N002112200019N0112001N1-01591-02201103211ADDGF100991999999999999999999MA1999999100141MW1001EQDQ01+999990APOSLP
0050724567139211972012818004+39367-094917SAO  +0238FLV  V0201101N001012200019N0112001N1-01481-02201103071ADDGF100991999999999999999999MA1999999100071MW1001
0069724567139211972012819004+39367-094917SAO  +0238FLV  V0201301N002612200019N0112001N1-01311-02031102961ADDGF100991999999999999999999MA1999999099931MW1001EQDQ01+999990APOSLP
0069724567139211972012820004+39367-094917SAO  +0238FLV  V0201901N001012200019N0112001N1-01151-01981102871ADDGF100991999999999999999999MA1999999099861MW1001EQDQ01+999990APOSLP
0050724567139211972012821004+39367-094917SAO  +0238FLV  V0201601N002112200019N0112001N1-01031-01981102751ADDGF100991999999999999999999MA1999999099761MW1001
0069724567139211972012822004+39367-094917SAO  +0238FLV  V0201001N001512200019N0112001N1-00981-01981102691ADDGF100991999999999999999999MA1999999099701MW1001EQDQ01+999990APOSLP
0069724567139211972012823004+39367-094917SAO  +0238FLV  V0201001N001012200019N0112001N1-01031-01921102621ADDGF102991999999999999999999MA1999999099631MW1001EQDQ01+999990APOSLP
0050724567139211972012900004+39367-094917SAO  +0238FLV  V0201401N001512200019N0112001N1-01091-01811102591ADDGF108991999999999999999999MA1999999099631MW1001
0069724567139211972012901004+39367-094917SAO  +0238FLV  V02099999999992200019N0112001N1-01371+99999102691ADDGF102991999999999999999999MA1999999099661MW1001EQDQ01+999990APOSLP
0069724567139211972012902004+39367-094917SAO  +0238FLV  V0209991C000012200019N0112001N1-01311-01871102651ADDGF100991999999999999999999MA1999999099631MW1001EQDQ01+999990APOSLP
0069724567139211972012904004+39367-094917SAO  +0238FLV  V0209991C000012200019N0112001N1-01371-01871102591ADDGF100991999999999999999999MA1999999099561MW1001EQDQ01+999990APOSLP
0069724567139211972012905004+39367-094917SAO  +0238FLV  V0201501N002112200019N0112001N1-01311-01761102651ADDGF100991999999999999999999MA1999999099631MW1001EQDQ01+999990APOSLP
0069724567139211972012913004+39367-094917SAO  +0238FLV  V0209991C000012200019N0112001N1-01481-01761102461ADDGF102991999999999999999999MA1999999099421MW1001EQDQ01+999990APOSLP
0069724567139211972012914004+39367-094917SAO  +0238FLV  V0201301N001012200019N0112001N1-01371-01641102481ADDGF107991999999999999999999MA1999999099461MW1001EQDQ01+999990APOSLP
0050724567139211972012915004+39367-094917SAO  +0238FLV  V0201301N002612200019N0112001N1-01151-01371102431ADDGF107991999999999999999999MA1999999099461MW1001
0069724567139211972012916004+39367-094917SAO  +0238FLV  V0201301N002612200019N0112001N1-00921-01201102431ADDGF107991999999999999999999MA1999999099461MW1001EQDQ01+999990APOSLP
0069724567139211972012917004+39367-094917SAO  +0238FLV  V0201901N001512200019N0112001N1-00481-01031102411ADDGF102991999999999999999999MA1999999099491MW1001EQDQ01+999990APOSLP
0050724567139211972012918004+39367-094917SAO  +0238FLV  V0201801N002112200019N0112001N1-00371-00921102421ADDGF102991999999999999999999MA1999999099461MW1001
0069724567139211972012919004+39367-094917SAO  +0238FLV  V0203001N001012200019N0112001N1-00201-00921102281ADDGF102991999999999999999999MA1999999099391MW1001EQDQ01+999990APOSLP
0069724567139211972012920004+39367-094917SAO  +0238FLV  V0202701N002612200019N0112001N1-00041-00811102231ADDGF102991999999999999999999MA1999999099361MW1001EQDQ01+999990APOSLP
0050724567139211972012921004+39367-094917SAO  +0238FLV  V0202701N002110750019N0112001N1-00041-00761102241ADDGF107991999999999999999999MA1999999099321MW1001
0069724567139211972012922004+39367-094917SAO  +0238FLV  V0202701N002110750019N0112001N1-00041-00761102231ADDGF107991999999999999999999MA1999999099361MW1001EQDQ01+999990APOSLP
0069724567139211972012923004+39367-094917SAO  +0238FLV  V0203301N001010750019N0112001N1-00041-00761102231ADDGF107991999999999999999999MA1999999099361MW1001EQDQ01+999990APOSLP
0050724567139211972013000004+39367-094917SAO  +0238FLV  V0209991C000010750019N0112001N1-00201-00761102281ADDGF107991999999999999999999MA1999999099361MW1001
0069724567139211972013001004+39367-094917SAO  +0238FLV  V0202701N000512200019N0112001N1-00371-00761102371ADDGF107991999999999999999999MA1999999099461MW1001EQDQ01+999990APOSLP
0069724567139211972013002004+39367-094917SAO  +0238FLV  V0202801N000512200019N0112001N1-00531-00811102491ADDGF102991999999999999999999MA1999999099561MW1001EQDQ01+999990APOSLP
0050724567139211972013003004+39367-094917SAO  +0238FLV  V0203101N002112200019N0112001N1-00311-00871102521ADDGF102991999999999999999999MA1999999099631MW1001
0069724567139211972013004004+39367-094917SAO  +0238FLV  V0203101N001512200019N0112001N1-00421-00921102621ADDGF100991999999999999999999MA1999999099701MW1001EQDQ01+999990APOSLP
0069724567139211972013005004+39367-094917SAO  +0238FLV  V0202801N000512200019N0112001N1-00701-00981102721ADDGF100991999999999999999999MA1999999099761MW1001EQDQ01+999990APOSLP
0069724567139211972013013004+39367-094917SAO  +0238FLV  V0202901N001012200019N0112001N1-01201-01421102811ADDGF100991999999999999999999MA1999999099801MW1001EQDQ01+999990APOSLP
0069724567139211972013014004+39367-094917SAO  +0238FLV  V0209991C000012200019N0112001N1-01091-01261102831ADDGF100991999999999999999999MA1999999099831MW1001EQDQ01+999990APOSLP
0050724567139211972013015004+39367-094917SAO  +0238FLV  V0202501N000512200019N0112001N1-00701-00981102751ADDGF100991999999999999999999MA1999999099861MW1001
0069724567139211972013016004+39367-094917SAO  +0238FLV  V0202501N002612200019N0112001N1-00481-01031102791ADDGF100991999999999999999999MA1999999099861MW1001EQDQ01+999990APOSLP
0069724567139211972013017004+39367-094917SAO  +0238FLV  V0202001N001512200019N0112001N1-00261-00981102771ADDGF100991999999999999999999MA1999999099861MW1001EQDQ01+999990APOSLP
0050724567139211972013018004+39367-094917SAO  +0238FLV  V0202201N003112200019N0112001N1+00021-00871102681ADDGF100991999999999999999999MA1999999099801MW1001
0069724567139211972013019004+39367-094917SAO  +0238FLV  V0202401N004112200019N0112001N1+00131-00871102521ADDGF100991999999999999999999MA1999999099661MW1001EQDQ01+999990APOSLP
0069724567139211972013020004+39367-094917SAO  +0238FLV  V0202601N003612200019N0112001N1+00191-00761102441ADDGF100991999999999999999999MA1999999099591MW1001EQDQ01+999990APOSLP
0050724567139211972013021004+39367-094917SAO  +0238FLV  V0202601N004612200019N0112001N1+00241-00761102411ADDGF100991999999999999999999MA1999999099531MW1001
0069724567139211972013022004+39367-094917SAO  +0238FLV  V0202601N002612200019N0112001N1+00301-00761102301ADDGF100991999999999999999999MA1999999099461MW1001EQDQ01+999990APOSLP
0069724567139211972013023004+39367-094917SAO  +0238FLV  V0202501N002612200019N0112001N1+00301-00811102231ADDGF100991999999999999999999MA1999999099391MW1001EQDQ01+999990APOSLP
0050724567139211972013100004+39367-094917SAO  +0238FLV  V0201701N001512200019N0112001N1-00041-00701102241ADDGF100991999999999999999999MA1999999099321MW1001
0069724567139211972013101004+39367-094917SAO  +0238FLV  V0201801N001012200019N0112001N1-00201-00701102211ADDGF100991999999999999999999MA1999999099321MW1001EQDQ01+999990APOSLP
0069724567139211972013102004+39367-094917SAO  +0238FLV  V0201801N002112200019N0112001N1-00261-00701102151ADDGF100991999999999999999999MA1999999099261MW1001EQDQ01+999990APOSLP
0050724567139211972013103004+39367-094917SAO  +0238FLV  V0201601N001012200019N0112001N1-00371-00761102131ADDGF100991999999999999999999MA1999999099221MW1001
0069724567139211972013104004+39367-094917SAO  +0238FLV  V0209991C000012200019N0112001N1-00311-00761102121ADDGF100991999999999999999999MA1999999099221MW1001EQDQ01+999990APOSLP
0069724567139211972013105004+39367-094917SAO  +0238FLV  V0201901N004612200019N0112001N1-00041-00871102021ADDGF100991999999999999999999MA1999999099151MW1001EQDQ01+999990APOSLP
0069724567139211972013113004+39367-094917SAO  +0238FLV  V0209991C000012200019N0112001N1-00481-01031102031ADDGF100991999999999999999999MA1999999099121MW1001EQDQ01+999990APOSLP
0069724567139211972013114004+39367-094917SAO  +0238FLV  V0209991C000012200019N0112001N1-00261-00921102041ADDGF100991999999999999999999MA1999999099151MW1001EQDQ01+999990APOSLP
0050724567139211972013115004+39367-094917SAO  +0238FLV  V0202501N001512200019N0112001N1-00091-00871102081ADDGF100991999999999999999999MA1999999099191MW1001
0069724567139211972013116004+39367-094917SAO  +0238FLV  V0202601N001512200019N0112001N1+00131-00871102071ADDGF100991999999999999999999MA1999999099221MW1001EQDQ01+999990APOSLP
0069724567139211972013117004+39367-094917SAO  +0238FLV  V0202801N000512200019N0112001N1+00301-00871102091ADDGF100991999999999999999999MA1999999099261MW1001EQDQ01+999990APOSLP
0050724567139211972013118004+39367-094917SAO  +0238FLV  V0201501N001012200019N0112001N1+00411-00761102081ADDGF100991999999999999999999MA1999999099191MW1001
0069724567139211972013119004+39367-094917SAO  +0238FLV  V0201301N002612200019N0112001N1+00521-00651101851ADDGF100991999999999999999999MA1999999099051MW1001EQDQ01+999990APOSLP
0069724567139211972013120004+39367-094917SAO  +0238FLV  V0201601N002612200019N0112001N1+00691-00531101771ADDGF100991999999999999999999MA1999999098981MW1001EQDQ01+999990APOSLP
0050724567139211972013121004+39367-094917SAO  +0238FLV  V0201701N003112200019N0112001N1+00741-00591101781ADDGF100991999999999999999999MA1999999098921MW1001
0069724567139211972013123004+39367-094917SAO  +0238FLV  V0201601N001512200019N0112001N1+00631-00371101641ADDGF100991999999999999999999MA1999999098851MW1001EQDQ01+999990APOSLP
0050724567139211972020100004+39367-094917SAO  +0238FLV  V0209991C000012200019N0112001N1+00241-00421101741ADDGF100991999999999999999999MA1999999098851MW1001
0050724567139211972020101004+39367-094917SAO  +0238FLV  V0209991C000012200019N0112001N1-00201-00531999999ADDGF100991999999999999999999MA1999999098851MW1001
0050724567139211972020102004+39367-094917SAO  +0238FLV  V0209991C000012200019N0112001N1-00261-00531999999ADDGF100991999999999999999999MA1999999098851MW1001
0050724567139211972020103004+39367-094917SAO  +0238FLV  V0201401N002112200019N0112001N1-00261-00371101731ADDGF100991999999999999999999MA1999999098851MW1001
0050724567139211972020104004+39367-094917SAO  +0238FLV  V0201501N002112200019N0112001N1-00261-00421999999ADDGF100991999999999999999999MA1999999098851MW1001
0050724567139211972020105004+39367-094917SAO  +0238FLV  V0201401N002612200019N0112001N1-00201-00421999999ADDGF100991999999999999999999MA1999999098851MW1001
0050724567139211972020113004+39367-094917SAO  +0238FLV  V0209991C000010750019N0112001N1-00421-00651999999ADDGF108991999999999999999999MA1999999098681MW1001
0050724567139211972020114004+39367-094917SAO  +0238FLV  V0209991C000010300019N0112001N1-00311-00591999999ADDGF108991999999999999999999MA1999999098681MW1001
0050724567139211972020115004+39367-094917SAO  +0238FLV  V0201401N002110270019N0112001N1-00091-00421101561ADDGF108991999999999999999999MA1999999098711MW1001
0056724567139211972020116004+39367-094917SAO  +0238FLV  V0201501N003110021019N0016001N1+00081-00041999999ADDGF108991999999999999999999MA1999999098711MW1451MW2711
0056724567139211972020117004+39367-094917SAO  +0238FLV  V0201501N000510057019N0040001N1+00191+00081999999ADDGF108991999999999999999999MA1999999098711MW1451MW2711
0056724567139211972020118004+39367-094917SAO  +0238FLV  V0201301N001510021019N0040001N1+00191+00131101501ADDGF108991999999999999999999MA1999999098681MW1451MW2611
0056724567139211972020119004+39367-094917SAO  +0238FLV  V0201401N001010021019N0080001N1+00241+00131999999ADDGF108991999999999999999999MA1999999098541MW1451MW2611
0050724567139211972020120004+39367-094917SAO  +0238FLV  V0201301N002110051019N0112001N1+00301+00131999999ADDGF108991999999999999999999MA1999999098441MW1001
0050724567139211972020121004+39367-094917SAO  +0238FLV  V0201301N001010051019N0112001N1+00241+00021101251ADDGF108991999999999999999999MA1999999098411MW1001
0050724567139211972020122004+39367-094917SAO  +0238FLV  V0201201N001510048019N0112001N1+00241+00081999999ADDGF108991999999999999999999MA1999999098371MW1001
0056724567139211972020123004+39367-094917SAO  +0238FLV  V0201101N001510048019N0080001N1+00191+00021999999ADDGF108991999999999999999999MA1999999098341MW1451MW2611
0056724567139211972020200004+39367-094917SAO  +0238FLV  V0201001N001010048019N0064001N1+00191+00021101171ADDGF108991999999999999999999MA1999999098341MW1451MW2511
0056724567139211972020201004+39367-094917SAO  +0238FLV  V0209991C000010036019N0080001N1+00191+00021999999ADDGF108991999999999999999999MA1999999098371MW1451MW2711
0050724567139211972020202004+39367-094917SAO  +0238FLV  V0201101N001010036019N0096001N1+00131+00021999999ADDGF108991999999999999999999MA1999999098371MW1711
0056724567139211972020203004+39367-094917SAO  +0238FLV  V0209991C000010027019N0080001N1+00131+00021101271ADDGF108991999999999999999999MA1999999098441MW1451MW2711
0056724567139211972020204004+39367-094917SAO  +0238FLV  V0209991C000010015019N0040001N1+00131+00021999999ADDGF108991999999999999999999MA1999999098511MW1451MW2711
0056724567139211972020205004+39367-094917SAO  +0238FLV  V0209991C000010021019N0064001N1+00081+00021999999ADDGF108991999999999999999999MA1999999098511MW1451MW2711
0056724567139211972020213004+39367-094917SAO  +0238FLV  V0209991C000010024019N0010001N1+00081+00021999999ADDGF108991999999999999999999MA1999999098341MW1451MW2711
0056724567139211972020214004+39367-094917SAO  +0238FLV  V0209991C000010021019N0008001N1+00081+99999999999ADDGF108991999999999999999999MA1999999098341MW1451MW2711
0056724567139211972020215004+39367-094917SAO  +0238FLV  V0209991C000010021019N0012001N1+00081+00021101191ADDGF108991999999999999999999MA1999999098371MW1451MW2711
0056724567139211972020216004+39367-094917SAO  +0238FLV  V0209991C000010024019N0010001N1+00081+99999999999ADDGF108991999999999999999999MA1999999098371MW1451MW2711
0056724567139211972020217004+39367-094917SAO  +0238FLV  V0203101N002110027019N0012001N1-00261-00311999999ADDGF108991999999999999999999MA1999999098441MW1451MW2711
0056724567139211972020218004+39367-094917SAO  +0238FLV  V0203001N005110033019N0018001N1-00261-00371101281ADDGF108991999999999999999999MA1999999098441MW1451MW2711
0056724567139211972020219004+39367-094917SAO  +0238FLV  V0203101N003110048019N0016001N1-00261-00421999999ADDGF108991999999999999999999MA1999999098411MW1451MW2711
0056724567139211972020220004+39367-094917SAO  +0238FLV  V0203101N003610048019N0020001N1-00371-00531999999ADDGF108991999999999999999999MA1999999098411MW1451MW2711
0056724567139211972020221004+39367-094917SAO  +0238FLV  V0203101N004110072019N0032001N1-00421-00651101261ADDGF108991999999999999999999MA1999999098441MW1381MW2711
0050724567139211972020222004+39367-094917SAO  +0238FLV  V0203201N005710075019N0112001N1-00481-00761999999ADDGF108991999999999999999999MA1999999098511MW1001
0056724567139211972020223004+39367-094917SAO  +0238FLV  V0203301N003110048019N0036001N1-00591-00871999999ADDGF108991999999999999999999MA1999999098611MW1381MW2711
0056724567139211972020300004+39367-094917SAO  +0238FLV  V0203301N005110054019N0032001N1-00651-00981101511ADDGF108991999999999999999999MA1999999098681MW1381MW2711
0056724567139211972020301004+39367-094917SAO  +0238FLV  V0203201N002610021019N0012001N1-00761-00981999999ADDGF108991999999999999999999MA1999999098781MW1381MW2711
0056724567139211972020302004+39367-094917SAO  +0238FLV  V0203301N003110036019N0024001N1-00811-01031999999ADDGF108991999999999999999999MA1999999098811MW1381MW2711
0056724567139211972020303004+39367-094917SAO  +0238FLV  V0203201N004110024019N0018001N1-00871-01151101791ADDGF108991999999999999999999MA1999999098921MW1381MW2711
0056724567139211972020304004+39367-094917SAO  +0238FLV  V0203201N002610030019N0024001N1-00981-01201999999ADDGF108991999999999999999999MA1999999098981MW1381MW2711
0056724567139211972020305004+39367-094917SAO  +0238FLV  V0203201N003110030019N0036001N1-01031-01261999999ADDGF108991999999999999999999MA1999999099021MW1381MW2711
0050724567139211972020313004+39367-094917SAO  +0238FLV  V0202801N005112200019N0112001N1-01761-02141999999ADDGF100991999999999999999999MA1999999099461MW1001
0050724567139211972020314004+39367-094917SAO  +0238FLV  V0202801N003112200019N0112001N1-01761-02141999999ADDGF100991999999999999999999MA1999999099591MW1001
0050724567139211972020315004+39367-094917SAO  +0238FLV  V0202901N005112200019N0112001N1-01641-02031102571ADDGF100991999999999999999999MA1999999099631MW1001
0050724567139211972020316004+39367-094917SAO  +0238FLV  V0203001N007712200019N0112001N1-01421-01921999999ADDGF100991999999999999999999MA1999999099661MW1001
0050724567139211972020317004+39367-094917SAO  +0238FLV  V0203101N007212200019N0112001N1-01261-01761999999ADDGF100991999999999999999999MA1999999099731MW1001
0050724567139211972020319004+39367-094917SAO  +0238FLV  V0203001N007712200019N0112001N1-01091-01641999999ADDGF102991999999999999999999MA1999999099731MW1001
0050724567139211972020320004+39367-094917SAO  +0238FLV  V0203101N008212200019N0112001N1-00981-01641999999ADDGF102991999999999999999999MA1999999099701MW1001
0050724567139211972020321004+39367-094917SAO  +0238FLV  V0203001N005712200019N0112001N1-00921-01591102671ADDGF100991999999999999999999MA1999999099731MW1001
0050724567139211972020322004+39367-094917SAO  +0238FLV  V0202901N006212200019N0112001N1-00921-01591999999ADDGF100991999999999999999999MA1999999099801MW1001
0050724567139211972020323004+39367-094917SAO  +0238FLV  V0202701N004612200019N0112001N1-00921-01641999999ADDGF100991999999999999999999MA1999999099831MW1001
0050724567139211972020400004+39367-094917SAO  +0238FLV  V0202801N003112200019N0112001N1-01031-01701102871ADDGF102991999999999999999999MA1999999099901MW1001
0050724567139211972020401004+39367-094917SAO  +0238FLV  V0202801N003112200019N0112001N1-01091-01761999999ADDGF100991999999999999999999MA1999999100001MW1001
0050724567139211972020402004+39367-094917SAO  +0238FLV  V0202601N002112200019N0112001N1-01261-01761999999ADDGF100991999999999999999999MA1999999100031MW1001
0050724567139211972020403004+39367-094917SAO  +0238FLV  V0203001N002612200019N0112001N1-01311-01871103051ADDGF100991999999999999999999MA1999999100071MW1001
0050724567139211972020404004+39367-094917SAO  +0238FLV  V0209991C000012200019N0112001N1-01591-01921999999ADDGF100991999999999999999999MA1999999100141MW1001
0050724567139211972020405004+39367-094917SAO  +0238FLV  V0209991C000012200019N0112001N1-01701-02031999999ADDGF100991999999999999999999MA1999999100171MW1001
0050724567139211972020413004+39367-094917SAO  +0238FLV  V0203001N003112200019N0112001N1-01421-02031999999ADDGF107991999999999999999999MA1999999100681MW1001
0050724567139211972020414004+39367-094917SAO  +0238FLV  V0203001N003612200019N0112001N1-01481-02031999999ADDGF100991999999999999999999MA1999999100711MW1001
0050724567139211972020416004+39367-094917SAO  +0238FLV  V0203201N004112200019N0112001N1-01261-01921999999ADDGF100991999999999999999999MA1999999100851MW1001
0050724567139211972020417004+39367-094917SAO  +0238FLV  V0203201N002112200019N0112001N1-01091-01981999999ADDGF100991999999999999999999MA1999999100911MW1001
0050724567139211972020418004+39367-094917SAO  +0238FLV  V0202901N001012200019N0112001N1-01031-01921103961ADDGF100991999999999999999999MA1999999100981MW1001
0050724567139211972020419004+39367-094917SAO  +0238FLV  V0203001N001012200019N0112001N1-00981-01761999999ADDGF102991999999999999999999MA1999999100851MW1001
0050724567139211972020420004+39367-094917SAO  +0238FLV  V0203201N001512200019N0112001N1-00921-01871999999ADDGF102991999999999999999999MA1999999100781MW1001
0050724567139211972020421004+39367-094917SAO  +0238FLV  V0209991C000012200019N0112001N1-00811-01871103721ADDGF102991999999999999999999MA1999999100711MW1001
0050724567139211972020422004+39367-094917SAO  +0238FLV  V0209991C000012200019N0112001N1-00811-01761999999ADDGF102991999999999999999999MA1999999100641MW1001
0050724567139211972020423004+39367-094917SAO  +0238FLV  V0201101N001512200019N0112001N1-00761-01641999999ADDGF100991999999999999999999MA1999999100581MW1001
0069724567139211972020500004+39367-094917SAO  +0238FLV  V0201501N001012200019N0224001N1-00921-01531999999ADDGF100991999999999999999999MA1999999100541MW1001EQDQ01+102543APOSLP
0050724567139211972020501004+39367-094917SAO  +0238FLV  V0209991C000012200019N0112001N1-01091-01591999999ADDGF100991999999999999999999MA1999999100471MW1001
0050724567139211972020502004+39367-094917SAO  +0238FLV  V0209991C000012200019N0112001N1-01151-01641999999ADDGF100991999999999999999999MA1999999100411MW1001
0050724567139211972020503004+39367-094917SAO  +0238FLV  V0201701N000512200019N0112001N1-01371-01811103421ADDGF100991999999999999999999MA1999999100441MW1001
0050724567139211972020504004+39367-094917SAO  +0238FLV  V0209991C000012200019N0112001N1-01261-01811999999ADDGF100991999999999999999999MA1999999100411MW1001
0050724567139211972020505004+39367-094917SAO  +0238FLV  V0201401N001012200019N0112001N1-01151-01641999999ADDGF100991999999999999999999MA1999999100241MW1001
0050724567139211972020513004+39367-094917SAO  +0238FLV  V0201401N001012200019N0112001N1-00921-01091999999ADDGF107991999999999999999999MA1999999099191MW1001
0050724567139211972020514004+39367-094917SAO  +0238FLV  V0201501N002112200019N0112001N1-00371-00701999999ADDGF108991999999999999999999MA1999999099121MW1001
0050724567139211972020515004+39367-094917SAO  +0238FLV  V0201601N004110900019N0112001N1-00041-00591101951ADDGF108991999999999999999999MA1999999099051MW1001
0050724567139211972020516004+39367-094917SAO  +0238FLV  V0201701N007210900019N0112001N1+00241-00481999999ADDGF108991999999999999999999MA1999999098981MW1001
0050724567139211972020517004+39367-094917SAO  +0238FLV  V0201701N007710840019N0112001N1+00351-00371999999ADDGF108991999999999999999999MA1999999098851MW1001
0050724567139211972020518004+39367-094917SAO  +0238FLV  V0201801N007712200019N0112001N1+00521-00261101631ADDGF108991999999999999999999MA1999999098751MW1001
0050724567139211972020519004+39367-094917SAO  +0238FLV  V0201701N006710810019N0112001N1+00581-00091999999ADDGF108991999999999999999999MA1999999098611MW1001
0050724567139211972020520004+39367-094917SAO  +0238FLV  V0201801N007710780019N0112001N1+00631+00081999999ADDGF108991999999999999999999MA1999999098481MW1001
0050724567139211972020521004+39367-094917SAO  +0238FLV  V0201701N007210750019N0112001N1+00631+00021101241ADDGF108991999999999999999999MA1999999098371MW1001
0050724567139211972020522004+39367-094917SAO  +0238FLV  V0201701N005712200019N0112001N1+00691-00041999999ADDGF108991999999999999999999MA1999999098341MW1001
0050724567139211972020523004+39367-094917SAO  +0238FLV  V0201601N005112200019N0112001N1+00691-00041999999ADDGF108991999999999999999999MA1999999098341MW1001
0050724567139211972020600004+39367-094917SAO  +0238FLV  V0201601N005710090019N0112001N1+00581-00041101151ADDGF108991999999999999999999MA1999999098311MW1001
0050724567139211972020601004+39367-094917SAO  +0238FLV  V0201601N004610090019N0112001N1+00521+00081999999ADDGF108991999999999999999999MA1999999098341MW1001
0050724567139211972020602004+39367-094917SAO  +0238FLV  V0201701N003610090019N0112001N1+00521+00131999999ADDGF108991999999999999999999MA1999999098371MW1001
0050724567139211972020603004+39367-094917SAO  +0238FLV  V0201701N002610090019N0112001N1+00461+00191101141ADDGF108991999999999999999999MA1999999098341MW1001
0050724567139211972020604004+39367-094917SAO  +0238FLV  V0201701N002610075019N0112001N1+00461+00241999999ADDGF107991999999999999999999MA1999999098341MW1001
0050724567139211972020605004+39367-094917SAO  +0238FLV  V0201601N001510069019N0112001N1+00411+00191999999ADDGF107991999999999999999999MA1999999098341MW1001
0050724567139211972020613004+39367-094917SAO  +0238FLV  V0203401N002610024019N0112001N1-00651-00811999999ADDGF108991999999999999999999MA1999999098851MW1111
0050724567139211972020614004+39367-094917SAO  +0238FLV  V0203401N006210033019N0064001N1-00761-00981999999ADDGF108991999999999999999999MA1999999099021MW1111
0056724567139211972020615004+39367-094917SAO  +0238FLV  V0203301N004610045019N0064001N1-00761-01031101981ADDGF108991999999999999999999MA1999999099121MW1111MW2711
0050724567139211972020616004+39367-094917SAO  +0238FLV  V0203501N004610051019N0080001N1-00811-01091999999ADDGF108991999999999999999999MA1999999099291MW1711
0050724567139211972020618004+39367-094917SAO  +0238FLV  V0203301N005712200019N0112001N1-00651-01151102311ADDGF107991999999999999999999MA1999999099461MW1001
0050724567139211972020619004+39367-094917SAO  +0238FLV  V0203501N004612200019N0112001N1-00481-01031999999ADDGF102991999999999999999999MA1999999099461MW1001
0050724567139211972020620004+39367-094917SAO  +0238FLV  V0203301N008212200019N0112001N1-00481-01091999999ADDGF102991999999999999999999MA1999999099491MW1001
0050724567139211972020621004+39367-094917SAO  +0238FLV  V0203401N008212200019N0112001N1-00421-01151102431ADDGF102991999999999999999999MA1999999099561MW1001
0050724567139211972020622004+39367-094917SAO  +0238FLV  V0203501N007212200019N0112001N1-00481-01151999999ADDGF102991999999999999999999MA1999999099661MW1001
0050724567139211972020623004+39367-094917SAO  +0238FLV  V0203401N007712200019N0112001N1-00531-01261999999ADDGF102991999999999999999999MA1999999099831MW1001
0050724567139211972020700004+39367-094917SAO  +0238FLV  V0203401N007712200019N0112001N1-00701-01421102861ADDGF102991999999999999999999MA1999999099971MW1001
0050724567139211972020701004+39367-094917SAO  +0238FLV  V0203301N005712200019N0112001N1-00811-01421999999ADDGF102991999999999999999999MA1999999100071MW1001
0050724567139211972020702004+39367-094917SAO  +0238FLV  V0203401N006712200019N0112001N1-00921-01531999999ADDGF100991999999999999999999MA1999999100141MW1001
0050724567139211972020703004+39367-094917SAO  +0238FLV  V0203401N004112200019N0112001N1-01031-01591103101ADDGF100991999999999999999999MA1999999100141MW1001
0050724567139211972020704004+39367-094917SAO  +0238FLV  V0203301N004612200019N0112001N1-01151-01591999999ADDGF100991999999999999999999MA1999999100171MW1001
0050724567139211972020705004+39367-094917SAO  +0238FLV  V0203301N002612200019N0112001N1-01201-01641999999ADDGF100991999999999999999999MA1999999100171MW1001
0050724567139211972020713004+39367-094917SAO  +0238FLV  V0209991C000012200019N0112001N1-01481-01761999999ADDGF100991999999999999999999MA1999999100201MW1001
0050724567139211972020714004+39367-094917SAO  +0238FLV  V0203601N000512200019N0112001N1-01481-01761999999ADDGF102991999999999999999999MA1999999100241MW1001
0050724567139211972020715004+39367-094917SAO  +0238FLV  V0200301N000512200019N0112001N1-01311-01761103281ADDGF102991999999999999999999MA1999999100241MW1001
0050724567139211972020716004+39367-094917SAO  +0238FLV  V0200501N000512200019N0112001N1-01201-01761999999ADDGF100991999999999999999999MA1999999100241MW1001
0050724567139211972020718004+39367-094917SAO  +0238FLV  V0201001N001012200019N0112001N1-01201-01761103081ADDGF107991999999999999999999MA1999999100141MW1001
0050724567139211972020719004+39367-094917SAO  +0238FLV  V0201201N001012200019N0112001N1-01201-01761999999ADDGF107991999999999999999999MA1999999100031MW1001
0050724567139211972020720004+39367-094917SAO  +0238FLV  V0201601N001512200019N0112001N1-00372-01531999999ADDGF107991999999999999999999MA1999999099931MW1001
0050724567139211972020721004+39367-094917SAO  +0238FLV  V0201501N003110360019N0112001N1-00421-01421102821ADDGF107991999999999999999999MA1999999099861MW1001
0050724567139211972020722004+39367-094917SAO  +0238FLV  V0201301N003112200019N0112001N1-00371-01421999999ADDGF102991999999999999999999MA1999999099831MW1001
0050724567139211972020723004+39367-094917SAO  +0238FLV  V0200901N003112200019N0112001N1-00311-01311999999ADDGF107991999999999999999999MA1999999099831MW1001
0050724567139211972020800004+39367-094917SAO  +0238FLV  V0201201N002612200019N0112001N1-00311-01311102701ADDGF102991999999999999999999MA1999999099761MW1001
0050724567139211972020801004+39367-094917SAO  +0238FLV  V0200701N001512200019N0112001N1-00481-01201999999ADDGF100991999999999999999999MA1999999099831MW1001
0050724567139211972020802004+39367-094917SAO  +0238FLV  V0201001N002612200019N0112001N1-00531-01201999999ADDGF100991999999999999999999MA1999999099831MW1001
0050724567139211972020803004+39367-094917SAO  +0238FLV  V0201001N001512200019N0112001N1-00591-01151102731ADDGF100991999999999999999999MA1999999099801MW1001
