0081724550139471972010215004+39050-096767SAO  +0324FRI  V0202201N001012200019N0208001N9+00001-00281101031ADDGF102991999999999999999999MA1100881999999MD1710141+9999MW1001REMAWY008714 1070
0050724550139471972010216004+39050-096767SAO  +0324FRI  V0202201N004112200019N0208001N9+00331-00061999999ADDGF102991999999999999999999MA1100811999999MW1001
0050724550139471972010217004+39050-096767SAO  +0324FRI  V0202301N005112200019N0208001N9+00611-00111999999ADDGF102991999999999999999999MA1100781999999MW1001
0081724550139471972010218004+39050-096767SAO  +0324FRI  V0202201N007212200019N0208001N9+00781-00171100761ADDGF102991999999999999999999MA1100641999999MD1710241+9999MW1001REMAWY008724 1070
0050724550139471972010219004+39050-096767SAO  +0324FRI  V0202301N005712200019N0208001N9+00781-00221999999ADDGF102991999999999999999999MA1100471999999MW1001
0050724550139471972010220004+39050-096767SAO  +0324FRI  V0202001N006210750019N0160001N9+00941-00221999999ADDGF107991999999999999999999MA1100411999999MW1001
0081724550139471972010221004+39050-096767SAO  +0324FRI  V0202201N003110750019N0160001N9+00891-00221100501ADDGF107991999999999999999999MA1100371999999MD1710251+9999MW1001REMAWY008725 1077
0050724550139471972010222004+39050-096767SAO  +0324FRI  V0202201N003110750019N0160001N9+01001-00111999999ADDGF107991999999999999999999MA1100441999999MW1001
0050724550139471972010223004+39050-096767SAO  +0324FRI  V0202201N001010360019N0208001N9+00831-00111999999ADDGF107991999999999999999999MA1100471999999MW1001
0089724550139471972010312004+39050-096767SAO  +0324FRI  V0200401N004110036019N0112001N9-00111-00391101111ADDGF108991999999999999999999MA1101021999999MD1510001+9999MW1001OC100621REMAWY008500 16//
0085724550139471972010313004+39050-096767SAO  +0324FRI  V0200401N004110042019N0112001N9-00171-00501999999ADDGF108991999999999999999999MA1101221999999MW1001OC100621REMAWY018WND 360V070 PRESRR
0050724550139471972010314004+39050-096767SAO  +0324FRI  V0200501N003610045019N0112001N9-00221-00561999999ADDGF108991999999999999999999MA1101391999999MW1001
0081724550139471972010315004+39050-096767SAO  +0324FRI  V0200401N003610045019N0048001N9-00281-00561101601ADDGF108991999999999999999999MA1101491999999MD1210471+9999MW1771REMAWY008247 16//
0058724550139471972010316004+39050-096767SAO  +0324FRI  V0200401N004110048019N0032001N9-00391-00671999999ADDGF108991999999999999999999MA1101591999999MW1771OC100931
0058724550139471972010317004+39050-096767SAO  +0324FRI  V0200401N006210060019N0064001N9-00441-00781999999ADDGF108991999999999999999999MA1101761999999MW1711OC100931
0113724550139471972010318004+39050-096767SAO  +0324FRI  V0200401N004110060019N0048001N9-00721-01111101941ADDAA106000591AA224999999GF108991999999999999999999MA1101801999999MD1210271+9999MW1711OC100821REMAWY01022702 16//
0058724550139471972010319004+39050-096767SAO  +0324FRI  V0200301N004110060019N0032001N9-00721-01111999999ADDGF108991999999999999999999MA1101831999999MW1711OC100621
0058724550139471972010320004+39050-096767SAO  +0324FRI  V0200301N003610060019N0024001N9-00781-01111999999ADDGF108991999999999999999999MA1101861999999MW1711OC100671
0081724550139471972010321004+39050-096767SAO  +0324FRI  V0200101N001010060019N0048001N9-00831-01281102111ADDGF108991999999999999999999MA1101961999999MD1310171+9999MW1711REMAWY008317 16//
0064724550139471972010322004+39050-096767SAO  +0324FRI  V0200101N001010018019N0032001N9-00891-01281999999ADDGF108991999999999999999999MA1101961999999MW1451MW2711OC100621
0056724550139471972010323004+39050-096767SAO  +0324FRI  V0200101N001510018019N0024001N9-00941-01221999999ADDGF108991999999999999999999MA1102101999999MW1451MW2711
0106724550139471972010400004+39050-096767SAO  +0324FRI  V0200101N001010018019N0024001N9-00941-01331102441ADDAA106000391AA224999999GF108991999999999999999999MA1102271999999MD1310301+9999MW1451MW2711REMAWY00533001
0056724550139471972010401004+39050-096767SAO  +0324FRI  V0200101N002610018019N0024001N9-00891-01441999999ADDGF108991999999999999999999MA1102371999999MW1451MW2711
0058724550139471972010402004+39050-096767SAO  +0324FRI  V0200101N001510018019N0032001N9-01001-01391999999ADDGF108991999999999999999999MA1102471999999MW1711OC100671
0076724550139471972010403004+39050-096767SAO  +0324FRI  V0203601N002610018019N0032001N9-01061-01561102711ADDGF108991999999999999999999MA1102511999999MD1210251+9999MW1711REMAWY003225
0050724550139471972010404004+39050-096767SAO  +0324FRI  V0200101N002110018019N0048001N9-01111-01561999999ADDGF108991999999999999999999MA1102541999999MW1711
0095724550139471972010412004+39050-096767SAO  +0324FRI  V0203601N000510030019N0016001N9-01391-01721103041ADDGF108991999999999999999999MA1102811999999MD1310071+9999MW1711REMAWY022307// 16// 90401 20013
0050724550139471972010413004+39050-096767SAO  +0324FRI  V0209991C000010039019N0040001N9-01391-01721999999ADDGF108991999999999999999999MA1102881999999MW1711
0050724550139471972010414004+39050-096767SAO  +0324FRI  V0209991C000010120019N0112001N9-01391-01781999999ADDGF107991999999999999999999MA1102881999999MW1001
0081724550139471972010415004+39050-096767SAO  +0324FRI  V0203401N001010300019N0160001N9-01331-01941103221ADDGF107991999999999999999999MA1103011999999MD1310171+9999MW1001REMAWY008317 1078
0050724550139471972010416004+39050-096767SAO  +0324FRI  V0209991C000010750019N0208001N9-01281-01941999999ADDGF107991999999999999999999MA1103011999999MW1001
0066724550139471972010417004+39050-096767SAO  +0324FRI  V0200101N002112200019N0208001N9-01111-01831999999ADDGF102991999999999999999999MA1102981999999MW1001REMAWY007AC SE-S
0100724550139471972010418004+39050-096767SAO  +0324FRI  V0203401N003112200019N0208001N9-01061-01831103101ADDAA106999929AA224999999GF100991999999999999999999MA1102881999999MD1810141+9999MW1001REMAWY00581400
0050724550139471972010419004+39050-096767SAO  +0324FRI  V0203201N002112200019N0208001N9-01001-01831999999ADDGF100991999999999999999999MA1102781999999MW1001
0050724550139471972010420004+39050-096767SAO  +0324FRI  V0203301N002112200019N0208001N9-00891-01831999999ADDGF102991999999999999999999MA1102711999999MW1001
0094724550139471972010421004+39050-096767SAO  +0324FRI  V0203301N001512200019N0208001N9-00891-01831102941ADDGF102991999999999999999999MA1102711999999MD1610151+9999MW1001REMAWY021WND LGT VRBL/615 1070
0050724550139471972010422004+39050-096767SAO  +0324FRI  V0203401N001512200019N0208001N9-00941-01891999999ADDGF102991999999999999999999MA1102711999999MW1001
0050724550139471972010423004+39050-096767SAO  +0324FRI  V0203301N001012200019N0208001N9-01061-01891999999ADDGF100991999999999999999999MA1102681999999MW1001
0076724550139471972010500004+39050-096767SAO  +0324FRI  V0209991C000012200019N0208001N9-01171-01891102871ADDGF100991999999999999999999MA1102641999999MD1710071+9999MW1001REMAWY003707
0050724550139471972010501004+39050-096767SAO  +0324FRI  V0209991C000012200019N0208001N9-01561-02111999999ADDGF100991999999999999999999MA1102681999999MW1001
0050724550139471972010502004+39050-096767SAO  +0324FRI  V0209991C000012200019N0208001N9-01781-02171999999ADDGF100991999999999999999999MA1102681999999MW1001
0076724550139471972010503004+39050-096767SAO  +0324FRI  V0201001N001012200019N0208001N9-01831-02061102901ADDGF100991999999999999999999MA1102681999999MD1110031+9999MW1001REMAWY003103
0050724550139471972010504004+39050-096767SAO  +0324FRI  V0209991C000012200019N0208001N9-01941-02171999999ADDGF100991999999999999999999MA1102641999999MW1001
0076724550139471972010512004+39050-096767SAO  +0324FRI  V0202001N001012200019N0208001N9-01221-01671102341ADDGF100991999999999999999999MA1102101999999MD1710411+9999MW1001REMAWY003741
0050724550139471972010513004+39050-096767SAO  +0324FRI  V0209991C000012200019N0208001N9-01281-01671999999ADDGF100991999999999999999999MA1102031999999MW1001
0050724550139471972010514004+39050-096767SAO  +0324FRI  V0202301N000512200019N0208001N9-01221-01611999999ADDGF100991999999999999999999MA1102101999999MW1001
0076724550139471972010515004+39050-096767SAO  +0324FRI  V0202001N001512200019N0208001N9-01061-01501102281ADDGF100991999999999999999999MA1102031999999MD1810071+9999MW1001REMAWY003807
0050724550139471972010516004+39050-096767SAO  +0324FRI  V0202401N002612200019N0208001N9-00781-01391999999ADDGF102991999999999999999999MA1102071999999MW1001
0050724550139471972010517004+39050-096767SAO  +0324FRI  V0202201N003112200019N0208001N9-00561-01221999999ADDGF102991999999999999999999MA1102031999999MW1001
0081724550139471972010518004+39050-096767SAO  +0324FRI  V0202201N003612200019N0208001N9-00331-01171102131ADDGF102991999999999999999999MA1101901999999MD1810121+9999MW1001REMAWY008812 1001
0050724550139471972010519004+39050-096767SAO  +0324FRI  V0202301N002612200019N0208001N9-00221-01061999999ADDGF102991999999999999999999MA1101861999999MW1001
0050724550139471972010520004+39050-096767SAO  +0324FRI  V0202001N003612200019N0208001N9-00171-00941999999ADDGF102991999999999999999999MA1101691999999MW1001
0081724550139471972010521004+39050-096767SAO  +0324FRI  V0202001N002612200019N0208001N9-00111-00891101971ADDGF102991999999999999999999MA1101761999999MD1510151+9999MW1001REMAWY008515 1078
0050724550139471972010522004+39050-096767SAO  +0324FRI  V0202101N002112200019N0208001N9+00001-00831999999ADDGF102991999999999999999999MA1101761999999MW1001
0050724550139471972010523004+39050-096767SAO  +0324FRI  V0202101N001012200019N0208001N9-00171-00781999999ADDGF102991999999999999999999MA1101831999999MW1001
0081724550139471972010600004+39050-096767SAO  +0324FRI  V0209991C000012200019N0208001N9-00391-00781102071ADDGF102991999999999999999999MA1101861999999MD1310121+9999MW1001REMAWY008312 1078
0050724550139471972010601004+39050-096767SAO  +0324FRI  V0209991C000012200019N0208001N9-00561-00891999999ADDGF102991999999999999999999MA1101901999999MW1001
0050724550139471972010602004+39050-096767SAO  +0324FRI  V0202201N001012200019N0208001N9-00281-00671999999ADDGF107991999999999999999999MA1101901999999MW1001
0081724550139471972010603004+39050-096767SAO  +0324FRI  V0202201N001012200019N0208001N9-00331-00721102091ADDGF107991999999999999999999MA1101901999999MD1110021+9999MW1001REMAWY008102 1008
0050724550139471972010604004+39050-096767SAO  +0324FRI  V0209991C000010750019N0208001N9-00331-00721999999ADDGF107991999999999999999999MA1101901999999MW1001
0076724550139471972010612004+39050-096767SAO  +0324FRI  V0209991C000012200019N0208001N9-00941-01111102001ADDGF100991999999999999999999MA1101801999999MD1610031+9999MW1001REMAWY003603
0050724550139471972010613004+39050-096767SAO  +0324FRI  V0209991C000012200019N0208001N9-01111-01281999999ADDGF100991999999999999999999MA1101761999999MW1001
0050724550139471972010614004+39050-096767SAO  +0324FRI  V0209991C000012200019N0208001N9-00941-01111999999ADDGF107991999999999999999999MA1101801999999MW1001
0081724550139471972010615004+39050-096767SAO  +0324FRI  V0209991C000012200019N0208001N9-00561-00721102011ADDGF107991999999999999999999MA1101861999999MD1310051+9999MW1001REMAWY008305 1008
0071724550139471972010616004+39050-096767SAO  +0324FRI  V0202301N002112200019N0208001N9-00111-00561999999ADDGF102991999999999999999999MA1101801999999MW1001REMAWY012WND LGT VRBL
0071724550139471972010617004+39050-096767SAO  +0324FRI  V0202601N002612200019N0208001N9+00281-00501999999ADDGF102991999999999999999999MA1101761999999MW1001REMAWY012WND LGT VRBL
0094724550139471972010618004+39050-096767SAO  +0324FRI  V0202401N003112200019N0208001N9+00611-00391101751ADDGF102991999999999999999999MA1101631999999MD1810221+9999MW1001REMAWY021WND LGT VRBL/822 1008
0050724550139471972010619004+39050-096767SAO  +0324FRI  V0202601N004112200019N0208001N9+00781-00281999999ADDGF102991999999999999999999MA1101491999999MW1001
0050724550139471972010620004+39050-096767SAO  +0324FRI  V0202601N004112200019N0208001N9+00941-00281999999ADDGF102991999999999999999999MA1101491999999MW1001
0081724550139471972010621004+39050-096767SAO  +0324FRI  V0202501N003612200019N0208001N9+01001-00221101641ADDGF102991999999999999999999MA1101521999999MD1510081+9999MW1001REMAWY008508 1008
0050724550139471972010622004+39050-096767SAO  +0324FRI  V0202701N003612200019N0208001N9+01171-00221999999ADDGF102991999999999999999999MA1101631999999MW1001
0050724550139471972010623004+39050-096767SAO  +0324FRI  V0209991C000012200019N0208001N9+00891-00111999999ADDGF102991999999999999999999MA1101731999999MW1001
0081724550139471972010700004+39050-096767SAO  +0324FRI  V0209991C000012200019N0160001N9+00441-00171101851ADDGF102991999999999999999999MA1101731999999MD1710171+9999MW1001REMAWY008717 1008
0050724550139471972010701004+39050-096767SAO  +0324FRI  V0209991C000012200019N0112001N9+00221-00281999999ADDGF100991999999999999999999MA1101861999999MW1001
0050724550139471972010702004+39050-096767SAO  +0324FRI  V0209991C000012200019N0112001N9+00061-00281999999ADDGF100991999999999999999999MA1101931999999MW1001
0076724550139471972010703004+39050-096767SAO  +0324FRI  V0209991C000012200019N0112001N9-00111-00331102161ADDGF100991999999999999999999MA1102031999999MD1710301+9999MW1001REMAWY003730
0050724550139471972010704004+39050-096767SAO  +0324FRI  V0209991C000012200019N0112001N9-00171-00391999999ADDGF100991999999999999999999MA1102031999999MW1001
0082724550139471972010712004+39050-096767SAO  +0324FRI  V0209991C000012200019N0208001N9-00561-00671102551ADDGF100991999999999999999999MA1102441999999MD1110031+9999MW1001REMAWY009103 IR//P
0070724550139471972010713004+39050-096767SAO  +0324FRI  V0209991C000012200019N0208001N9-00611-00721999999ADDGF100991999999999999999999MA1102471999999MW1001REMAWY011CI NE IR//P
0070724550139471972010714004+39050-096767SAO  +0324FRI  V0200301N001012200019N0208001N9-00611-00721999999ADDGF100991999999999999999999MA1102541999999MW1001REMAWY011CI NE IR//P
0082724550139471972010715004+39050-096767SAO  +0324FRI  V0200801N001012200019N0208001N9-00221-00391102751ADDGF100991999999999999999999MA1102571999999MD1210141+9999MW1001REMAWY009214 IR//P
0078724550139471972010716004+39050-096767SAO  +0324FRI  V0200401N001012200019N0208001N9+00061-00111999999ADDGF100991999999999999999999MA1102641999999MW1001REMAWY019CI N AND SE-S IR//P
0073724550139471972010717004+39050-096767SAO  +0324FRI  V0202001N001012200019N0208001N9+00561+00221999999ADDGF100991999999999999999999MA1102571999999MW1001REMAWY014CI ALQDS IR//P
0087724550139471972010718004+39050-096767SAO  +0324FRI  V0202001N002612200019N0208001N9+01111-00061102551ADDGF107991999999999999999999MA1102471999999MD1810101+9999MW1001REMAWY014810 1009 IR//P
0050724550139471972010719004+39050-096767SAO  +0324FRI  V0201901N004112200019N0208001N9+01281+00061999999ADDGF107991999999999999999999MA1102401999999MW1001
0050724550139471972010720004+39050-096767SAO  +0324FRI  V0201501N003612200019N0208001N9+01331+00061999999ADDGF107991999999999999999999MA1102301999999MW1001
0081724550139471972010721004+39050-096767SAO  +0324FRI  V0201901N003612200019N0208001N9+01391-00111102261ADDGF107991999999999999999999MA1102201999999MD1710291+9999MW1001REMAWY008729 1008
0050724550139471972010722004+39050-096767SAO  +0324FRI  V0201701N002112200019N0208001N9+01441-00111999999ADDGF108991999999999999999999MA1102101999999MW1001
0050724550139471972010723004+39050-096767SAO  +0324FRI  V0201801N002112200019N0208001N9+01111-00111999999ADDGF107991999999999999999999MA1102101999999MW1001
0081724550139471972010800004+39050-096767SAO  +0324FRI  V0209991C000012200019N0160001N9+00671-00171102211ADDGF102991999999999999999999MA1102101999999MD1610101+9999MW1001REMAWY008610 1008
0050724550139471972010801004+39050-096767SAO  +0324FRI  V0201501N003112200019N0112001N9+00561-00061999999ADDGF102991999999999999999999MA1102071999999MW1001
0050724550139471972010802004+39050-096767SAO  +0324FRI  V0201601N003112200019N0112001N9+00501-00061999999ADDGF102991999999999999999999MA1102001999999MW1001
0081724550139471972010803004+39050-096767SAO  +0324FRI  V0201601N003112200019N0112001N9+00501-00061102101ADDGF102991999999999999999999MA1102001999999MD1610101+9999MW1001REMAWY008610 1008
0050724550139471972010804004+39050-096767SAO  +0324FRI  V0201701N004112200019N0112001N9+00441-00111999999ADDGF100991999999999999999999MA1101931999999MW1001
0075724550139471972010814004+39050-096767SAO  +0324FRI  V0201801N002112200019N0208001N9+00611+00061999999ADDGF107991999999999999999999MA1100751999999MW1001OC101131REMAWY008ACCAS SE
0089724550139471972010815004+39050-096767SAO  +0324FRI  V0202001N003110450019N0208001N9+00721+00111100911ADDGF108991999999999999999999MA1100811999999MD1610141+9999MW1001OC100821REMAWY008614 1019
0075724550139471972010816004+39050-096767SAO  +0324FRI  V0202001N005710480019N0208001N9+00831+00221999999ADDGF108991999999999999999999MA1100751999999MW1001OC101181REMAWY008BKNV-BKN
0082724550139471972010817004+39050-096767SAO  +0324FRI  V0202101N003112200019N0208001N9+00831+00331999999ADDGF108991999999999999999999MA1100711999999MW1001OC100721REMAWY015-BKNVBKN SC W-N
0089724550139471972010818004+39050-096767SAO  +0324FRI  V0202101N008212200019N0208001N9+01001+00391100641ADDGF108991999999999999999999MA1100541999999MD1810271+9999MW1001OC101131REMAWY008827 1577
0058724550139471972010819004+39050-096767SAO  +0324FRI  V0202201N006212200019N0208001N9+01171+00391999999ADDGF108991999999999999999999MA1100371999999MW1001OC101131
0058724550139471972010820004+39050-096767SAO  +0324FRI  V0202201N004612200019N0208001N9+01111+00391999999ADDGF108991999999999999999999MA1100371999999MW1001OC100721
0081724550139471972010821004+39050-096767SAO  +0324FRI  V0202301N004612200019N0208001N9+01281+00441100391ADDGF107991999999999999999999MA1100341999999MD1610221+9999MW1001REMAWY008622 1578
0058724550139471972010822004+39050-096767SAO  +0324FRI  V0201901N004612200019N0208001N9+01281+00441999999ADDGF102991999999999999999999MA1100311999999MW1001OC100821
0076724550139471972010915004+39050-096767SAO  +0324FRI  V0209991C000012200019N0208001N9-00111-00331100921ADDGF100991999999999999999999MA1100781999999MD1810051+9999MW1001REMAWY003805
0050724550139471972010916004+39050-096767SAO  +0324FRI  V0209991C000012200019N0208001N9+00111-00171999999ADDGF100991999999999999999999MA1100811999999MW1001
0050724550139471972010917004+39050-096767SAO  +0324FRI  V0202201N001512200019N0208001N9+00501-00061999999ADDGF100991999999999999999999MA1100811999999MW1001
0076724550139471972010918004+39050-096767SAO  +0324FRI  V0202501N003612200019N0208001N9+00831-00221100741ADDGF100991999999999999999999MA1100641999999MD1810151+9999MW1001REMAWY003815
0050724550139471972010919004+39050-096767SAO  +0324FRI  V0202501N004112200019N0208001N9+01111-00331999999ADDGF100991999999999999999999MA1100541999999MW1001
0070724550139471972010920004+39050-096767SAO  +0324FRI  V0202501N003612200019N0208001N9+01221-00441999999ADDGF102991999999999999999999MA1100471999999MW1001REMAWY011WND 210V270
0081724550139471972010921004+39050-096767SAO  +0324FRI  V0202301N004612200019N0208001N9+01281-00561100501ADDGF102991999999999999999999MA1100411999999MD1610221+9999MW1001REMAWY008622 1001
0050724550139471972010922004+39050-096767SAO  +0324FRI  V0202201N004112200019N0208001N9+01221-00331999999ADDGF102991999999999999999999MA1100441999999MW1001
0050724550139471972010923004+39050-096767SAO  +0324FRI  V0201901N002112200019N0208001N9+00941-00441999999ADDGF102991999999999999999999MA1100411999999MW1001
0076724550139471972011012004+39050-096767SAO  +0324FRI  V0209991C000012200019N0208001N9-00221-00391100451ADDGF100991999999999999999999MA1100341999999MD1310071+9999MW1001REMAWY003307
0050724550139471972011013004+39050-096767SAO  +0324FRI  V0209991C000012200019N0208001N9-00111-00501999999ADDGF100991999999999999999999MA1100411999999MW1001
0050724550139471972011014004+39050-096767SAO  +0324FRI  V0209991C000012200019N0208001N9-00111-00441999999ADDGF100991999999999999999999MA1100511999999MW1001
0076724550139471972011015004+39050-096767SAO  +0324FRI  V0209991C000012200019N0208001N9+00001-00281100691ADDGF100991999999999999999999MA1100581999999MD1210241+9999MW1001REMAWY003224
0063724550139471972011016004+39050-096767SAO  +0324FRI  V0209991C000012200019N0208001N9+00611-00061999999ADDGF100991999999999999999999MA1100641999999MW1001REMAWY004AC N
0076724550139471972011017004+39050-096767SAO  +0324FRI  V0203501N003112200019N0208001N9+00891-00281999999ADDGF100991999999999999999999MA1100711999999MW1001REMAWY017AC N WND LGT VRBL
0094724550139471972011018004+39050-096767SAO  +0324FRI  V0203601N002612200019N0208001N9+01001-00391100801ADDGF102991999999999999999999MA1100711999999MD1110141+9999MW1001REMAWY021WND LGT VRBL/114 1070
0050724550139471972011019004+39050-096767SAO  +0324FRI  V0203301N004112200019N0208001N9+01111-00441999999ADDGF102991999999999999999999MA1100751999999MW1001
0070724550139471972011020004+39050-096767SAO  +0324FRI  V0203601N003612200019N0208001N9+01111-00561999999ADDGF102991999999999999999999MA1100711999999MW1001REMAWY011WND 350V050
0094724550139471972011021004+39050-096767SAO  +0324FRI  V0203401N001012200019N0208001N9+01061-00721100861ADDGF102991999999999999999999MA1100781999999MD1210071+9999MW1001REMAWY021WND LGT VRBL/207 1078
0071724550139471972011022004+39050-096767SAO  +0324FRI  V0203301N001012200019N0208001N9+01061-01001999999ADDGF102991999999999999999999MA1100811999999MW1001REMAWY012WND LGT VRBL
0050724550139471972011023004+39050-096767SAO  +0324FRI  V0209991C000012200019N0208001N9+00891-00941999999ADDGF102991999999999999999999MA1100811999999MW1001
0081724550139471972011100004+39050-096767SAO  +0324FRI  V0209991C000012200019N0208001N9+00331-00891100981ADDGF102991999999999999999999MA1100881999999MD1210101+9999MW1001REMAWY008210 1078
0050724550139471972011101004+39050-096767SAO  +0324FRI  V0209991C000012200019N0208001N9+00221-00781999999ADDGF102991999999999999999999MA1100981999999MW1001
0050724550139471972011102004+39050-096767SAO  +0324FRI  V0209991C000010750019N0208001N9+00171-00441999999ADDGF107991999999999999999999MA1100981999999MW1001
0081724550139471972011103004+39050-096767SAO  +0324FRI  V0209991C000010750019N0208001N9+00111-00501101201ADDGF108991999999999999999999MA1101081999999MD1210191+9999MW1001REMAWY008219 1077
0071724550139471972011104004+39050-096767SAO  +0324FRI  V0203501N001010750019N0208001N9+00111-00501999999ADDGF108991999999999999999999MA1101121999999MW1001REMAWY012WND LGT VRBL
0076724550139471972011112004+39050-096767SAO  +0324FRI  V0203001N002112200019N0208001N9+00061-00611101761ADDGF100991999999999999999999MA1101661999999MD1210271+9999MW1001REMAWY003227
0050724550139471972011113004+39050-096767SAO  +0324FRI  V0202701N001012200019N0208001N9-00061-00561999999ADDGF100991999999999999999999MA1101731999999MW1001
0050724550139471972011114004+39050-096767SAO  +0324FRI  V0202701N000512200019N0208001N9-00111-00501999999ADDGF102991999999999999999999MA1101801999999MW1001
0081724550139471972011115004+39050-096767SAO  +0324FRI  V0202801N000512200019N0208001N9+00001-00501101981ADDGF102991999999999999999999MA1101861999999MD1210201+9999MW1001REMAWY008220 1002
0050724550139471972011116004+39050-096767SAO  +0324FRI  V0203001N002112200019N0208001N9+00221-00781999999ADDGF102991999999999999999999MA1101901999999MW1001
0065724550139471972011117004+39050-096767SAO  +0324FRI  V0200301N002112200019N0208001N9+00331-00891999999ADDGF100991999999999999999999MA1101901999999MW1001REMAWY006K SE-S
0095724550139471972011118004+39050-096767SAO  +0324FRI  V0209991C000012200019N0208001N9+00331-01001101841ADDGF102991999999999999999999MA1101761999999MD1110121+9999MW1001REMAWY022K SE-S PRESFR/112 1001
0062724550139471972011119004+39050-096767SAO  +0324FRI  V0202301N001012200019N0208001N9+00441-00941999999ADDGF102991999999999999999999MA1101591999999MW1001REMAWY003K S
0072724550139471972011120004+39050-096767SAO  +0324FRI  V0202301N002612200019N0208001N9+00561-01001999999ADDGF102991999999999999999999MA1101391999999MW1001REMAWY013K SE-S PRESFR
0101724550139471972011121004+39050-096767SAO  +0324FRI  V0201701N003112200019N0208001N9+00721-01001101241ADDGF102991999999999999999999MA1101151999999MD1810561+9999MW1001REMAWY028WND LGT VRBL PRESFR/856 1001
0050724550139471972011122004+39050-096767SAO  +0324FRI  V0201901N005112200019N0208001N9+00721-00891999999ADDGF107991999999999999999999MA1101021999999MW1001
0050724550139471972011123004+39050-096767SAO  +0324FRI  V0201901N004112200019N0208001N9+00671-00831999999ADDGF108991999999999999999999MA1100881999999MW1001
0094724550139471972011200004+39050-096767SAO  +0324FRI  V0201801N002112200019N0208001N9+00501-00721100881ADDGF107991999999999999999999MA1100751999999MD1710371+9999MW1001REMAWY021WND LGT VRBL/737 1008
0050724550139471972011201004+39050-096767SAO  +0324FRI  V0202001N005112200019N0208001N9+00561-00611999999ADDGF102991999999999999999999MA1100641999999MW1001
0058724550139471972011202004+39050-096767SAO  +0324FRI  V0202001N005110750019N0208001N9+00561-00561999999ADDGF107991999999999999999999MA1100511999999MW1001OC100931
0089724550139471972011203004+39050-096767SAO  +0324FRI  V0202101N006210750019N0208001N9+00611-00441100561ADDGF107991999999999999999999MA1100441999999MD1610321+9999MW1001OC100981REMAWY008632 1008
0073724550139471972011204004+39050-096767SAO  +0324FRI  V0202001N006212200019N0208001N9+00611-00391999999ADDGF102991999999999999999999MA1100201999999MW1001OC101181REMAWY006PRESFR
0081724550139471972011212004+39050-096767SAO  +0324FRI  V0202201N003112200019N0112001N9+00611-00061099381ADDGF102991999999999999999999MA1099321999999MD1710201+9999MW1001REMAWY008720 1008
0071724550139471972011213004+39050-096767SAO  +0324FRI  V0202301N002112200019N0112001N9+00561-00061999999ADDGF102991999999999999999999MA1099461999999MW1001REMAWY012WND LGT VRBL
0071724550139471972011214004+39050-096767SAO  +0324FRI  V0202201N001012200019N0160001N9+00561-00061999999ADDGF107991999999999999999999MA1099461999999MW1001REMAWY012WND LGT VRBL
0094724550139471972011215004+39050-096767SAO  +0324FRI  V0202301N003110750019N0208001N9+00671-00061099501ADDGF107991999999999999999999MA1099461999999MD1010101+9999MW1001REMAWY021WND LGT VRBL/010 1078
0050724550139471972011216004+39050-096767SAO  +0324FRI  V0202401N003110750019N0208001N9+01001+00001999999ADDGF107991999999999999999999MA1099561999999MW1001
0050724550139471972011217004+39050-096767SAO  +0324FRI  V0202201N003610360019N0208001N9+01111+00001999999ADDGF108991999999999999999999MA1099531999999MW1001
0094724550139471972011218004+39050-096767SAO  +0324FRI  V0202801N003110690019N0208001N9+01171+00001099701ADDGF108991999999999999999999MA1099661999999MD1210201+9999MW1001REMAWY021WND LGT VRBL/220 1077
0071724550139471972011219004+39050-096767SAO  +0324FRI  V0203001N003110690019N0208001N9+01281-00111999999ADDGF108991999999999999999999MA1099661999999MW1001REMAWY012WND LGT VRBL
0071724550139471972011220004+39050-096767SAO  +0324FRI  V0203501N003110690019N0208001N9+01331-00061999999ADDGF108991999999999999999999MA1099661999999MW1001REMAWY012WND LGT VRBL
0081724550139471972011221004+39050-096767SAO  +0324FRI  V0203401N005110750019N0208001N9+01001-00561099791ADDGF108991999999999999999999MA1099731999999MD1310081+9999MW1001REMAWY008308 1078
0050724550139471972011222004+39050-096767SAO  +0324FRI  V0200101N003110750019N0208001N9+00781-00441999999ADDGF108991999999999999999999MA1099901999999MW1001
0050724550139471972011223004+39050-096767SAO  +0324FRI  V0200101N003110360019N0208001N9+00561-00781999999ADDGF108991999999999999999999MA1100031999999MW1001
0081724550139471972011300004+39050-096767SAO  +0324FRI  V0200201N004110360019N0208001N9+00331-00941100211ADDGF108991999999999999999999MA1100171999999MD1210411+9999MW1001REMAWY008241 157/
0050724550139471972011301004+39050-096767SAO  +0324FRI  V0200201N003110150019N0208001N9+00221-00891999999ADDGF108991999999999999999999MA1100271999999MW1001
0050724550139471972011302004+39050-096767SAO  +0324FRI  V0203601N003110150019N0208001N9-00061-00671999999ADDGF108991999999999999999999MA1100411999999MW1001
0081724550139471972011303004+39050-096767SAO  +0324FRI  V0200101N001010135019N0016001N9-00171-00391100691ADDGF108991999999999999999999MA1100611999999MD1210461+9999MW1711REMAWY008246 15//
0050724550139471972011304004+39050-096767SAO  +0324FRI  V0200101N002110030019N0008001N9-00331-00501999999ADDGF108991999999999999999999MA1100781999999MW1731
0095724550139471972011312004+39050-096767SAO  +0324FRI  V0209991C000010240019N0208001N9-00781-01221101431ADDGF108991999999999999999999MA1101391999999MD1310171+9999MW1001REMAWY022317// 1027 90401 20002
0064724550139471972011313004+39050-096767SAO  +0324FRI  V0209991C000010240019N0208001N9-00781-01221999999ADDGF108991999999999999999999MA1101461999999MW1001REMAWY005LSR//
0064724550139471972011314004+39050-096767SAO  +0324FRI  V0209991C000010240019N0208001N9-00831-01281999999ADDGF108991999999999999999999MA1101591999999MW1001REMAWY005LSR//
0087724550139471972011315004+39050-096767SAO  +0324FRI  V0209991C000010750019N0208001N9-00831-01331101931ADDGF107991999999999999999999MA1101761999999MD1210361+9999MW1001REMAWY014236 1027 LSR//
0067724550139471972011316004+39050-096767SAO  +0324FRI  V0200201N001510750019N0208001N9-00781-01391999999ADDGF107991999999999999999999MA1101831999999MW1001REMAWY008PSRIR//P
0067724550139471972011317004+39050-096767SAO  +0324FRI  V0200401N001012200019N0208001N9-00561-01441999999ADDGF102991999999999999999999MA1101931999999MW1001REMAWY008PSRIR//P
0090724550139471972011318004+39050-096767SAO  +0324FRI  V0200601N001012200019N0208001N9-00441-01561102051ADDGF102991999999999999999999MA1101901999999MD1010121+9999MW1001REMAWY017012 1002 PSRIR//P
0067724550139471972011319004+39050-096767SAO  +0324FRI  V0200401N001012200019N0208001N9-00331-01611999999ADDGF102991999999999999999999MA1101901999999MW1001REMAWY008PSRIR//P
0064724550139471972011320004+39050-096767SAO  +0324FRI  V0200401N001012200019N0208001N9-00281-01611999999ADDGF102991999999999999999999MA1101831999999MW1001REMAWY005IR//P
0081724550139471972011321004+39050-096767SAO  +0324FRI  V0209991C000010750019N0208001N9-00281-01721102071ADDGF107991999999999999999999MA1101901999999MD1310021+9999MW1001REMAWY008302 1078
0050724550139471972011322004+39050-096767SAO  +0324FRI  V0200601N001012200019N0208001N9-00221-01721999999ADDGF102991999999999999999999MA1101931999999MW1001
0050724550139471972011323004+39050-096767SAO  +0324FRI  V0209991C000012200019N0208001N9-00331-01561999999ADDGF102991999999999999999999MA1102031999999MW1001
0081724550139471972011400004+39050-096767SAO  +0324FRI  V0209991C000012200019N0208001N9-00611-01501102261ADDGF102991999999999999999999MA1102071999999MD1010171+9999MW1001REMAWY008017 1070
0050724550139471972011401004+39050-096767SAO  +0324FRI  V0209991C000012200019N0208001N9-00611-01561999999ADDGF102991999999999999999999MA1102201999999MW1001
0050724550139471972011402004+39050-096767SAO  +0324FRI  V0209991C000012200019N0208001N9-00831-01391999999ADDGF102991999999999999999999MA1102301999999MW1001
0081724550139471972011403004+39050-096767SAO  +0324FRI  V0209991C000012200019N0208001N9-00891-01501102581ADDGF102991999999999999999999MA1102371999999MD1210301+9999MW1001REMAWY008230 1050
0050724550139471972011404004+39050-096767SAO  +0324FRI  V0209991C000012200019N0208001N9-01221-01561999999ADDGF102991999999999999999999MA1102471999999MW1001
0087724550139471972011412004+39050-096767SAO  +0324FRI  V0209991C000012200019N0208001N9-01721-02171103721ADDGF107991999999999999999999MA1103491999999MD1210291+9999MW1001REMAWY014229 1500 90401
0064724550139471972011413004+39050-096767SAO  +0324FRI  V0200101N000512200019N0208001N9-01891-02391999999ADDGF102991999999999999999999MA1103521999999MW1001REMAWY005IR//P
0069724550139471972011414004+39050-096767SAO  +0324FRI  V0200301N001510300019N0208001N9-01891-02391999999ADDGF107991999999999999999999MA1103521999999MW1001REMAWY010SC W IR//P
0087724550139471972011415004+39050-096767SAO  +0324FRI  V0200301N001510300019N0208001N9-01831-02281103921ADDGF108991999999999999999999MA1103661999999MD1210191+9999MW1001REMAWY014219 1071 IR//P
0078724550139471972011416004+39050-096767SAO  +0324FRI  V0200101N002610510019N0208001N9-01781-02281999999ADDGF108991999999999999999999MA1103731999999MW1001REMAWY019HIR CLDS VSBL IR//P
0064724550139471972011417004+39050-096767SAO  +0324FRI  V0200101N001510510019N0208001N9-01781-02441999999ADDGF108991999999999999999999MA1103891999999MW1001REMAWY005IR//P
0092724550139471972011418004+39050-096767SAO  +0324FRI  V0200301N001510510019N0208001N9-01781-02501104531ADDGF108991999999999999999999MA1104031999999MD1210391+9999MW1001REMAWY019SC W/239 152/ IR//P
0064724550139471972011419004+39050-096767SAO  +0324FRI  V0200101N002610510019N0208001N9-01671-02441999999ADDGF108991999999999999999999MA1104001999999MW1001REMAWY005IR//P
0078724550139471972011420004+39050-096767SAO  +0324FRI  V0200101N001510240019N0208001N9-01611-02331999999ADDGF108991999999999999999999MA1103961999999MW1001REMAWY019SUN DMLY VSBL IR//P
0109724550139471972011421004+39050-096767SAO  +0324FRI  V0203501N002110900019N0208001N9-01501-02561104341ADDGF108991999999999999999999MA1104031999999MD1510021+9999MW1001REMAWY036WND LGT VRBL THN SPTS INOVC/502 1509
0077724550139471972011422004+39050-096767SAO  +0324FRI  V0200301N002610900019N0208001N9-01441-02721999999ADDGF107991999999999999999999MA1104061999999MW1001REMAWY018WND LGT VRBL IR//P
0064724550139471972011423004+39050-096767SAO  +0324FRI  V0200301N001012200019N0208001N9-01501-02721999999ADDGF102991999999999999999999MA1104131999999MW1001REMAWY005IR//P
0087724550139471972011500004+39050-096767SAO  +0324FRI  V0200101N001012200019N0208001N9-01611-02671104451ADDGF102991999999999999999999MA1104171999999MD1210141+9999MW1001REMAWY014IR//P/214 1500
0064724550139471972011501004+39050-096767SAO  +0324FRI  V0209991C000012200019N0208001N9-01721-02611999999ADDGF100991999999999999999999MA1104231999999MW1001REMAWY005IR//P
0064724550139471972011502004+39050-096767SAO  +0324FRI  V0209991C000012200019N0208001N9-01831-02561999999ADDGF100991999999999999999999MA1104301999999MW1001REMAWY005IR//P
0082724550139471972011503004+39050-096767SAO  +0324FRI  V0209991C000012200019N0208001N9-01941-02561104651ADDGF100991999999999999999999MA1104371999999MD1210171+9999MW1001REMAWY009IR//P/217
0064724550139471972011504004+39050-096767SAO  +0324FRI  V0209991C000012200019N0208001N9-02111-02611999999ADDGF100991999999999999999999MA1104401999999MW1001REMAWY005IR//P
0050724550139471972011514004+39050-096767SAO  +0324FRI  V0209991C000010750019N0208001N9-01831-02501999999ADDGF107991999999999999999999MA1104371999999MW1001
0081724550139471972011515004+39050-096767SAO  +0324FRI  V0201401N002110750019N0208001N9-01781-02501104661ADDGF108991999999999999999999MA1104301999999MD1810031+9999MW1001REMAWY008803 1077
0050724550139471972011516004+39050-096767SAO  +0324FRI  V0201301N002110360019N0208001N9-01611-02391999999ADDGF108991999999999999999999MA1104331999999MW1001
0050724550139471972011517004+39050-096767SAO  +0324FRI  V0201601N002610360019N0208001N9-01441-02391999999ADDGF107991999999999999999999MA1104331999999MW1001
0081724550139471972011518004+39050-096767SAO  +0324FRI  V0201601N002610360019N0208001N9-01331-02281104601ADDGF107991999999999999999999MA1104231999999MD1810051+9999MW1001REMAWY008805 1070
0050724550139471972011519004+39050-096767SAO  +0324FRI  V0201601N003110360019N0208001N9-01221-02111999999ADDGF107991999999999999999999MA1104101999999MW1001
0050724550139471972011520004+39050-096767SAO  +0324FRI  V0201901N003110360019N0208001N9-01111-02061999999ADDGF107991999999999999999999MA1104061999999MW1001
0081724550139471972011521004+39050-096767SAO  +0324FRI  V0201901N003110360019N0208001N9-01111-02061104531ADDGF107991999999999999999999MA1103961999999MD1710321+9999MW1001REMAWY008732 1078
0050724550139471972011522004+39050-096767SAO  +0324FRI  V0201601N003110750019N0208001N9-01061-02001999999ADDGF107991999999999999999999MA1103831999999MW1001
0089724550139471972011615004+39050-096767SAO  +0324FRI  V0202101N003112200019N0208001N9-00671-01281102961ADDGF102991999999999999999999MA1102741999999MD1610541+9999MW1001OC100621REMAWY008654 1008
0058724550139471972011616004+39050-096767SAO  +0324FRI  V0202101N006212200019N0208001N9-00441-01111999999ADDGF102991999999999999999999MA1102711999999MW1001OC101031
0058724550139471972011617004+39050-096767SAO  +0324FRI  V0202101N005112200019N0208001N9-00171-00941999999ADDGF102991999999999999999999MA1102611999999MW1001OC100871
0101724550139471972011618004+39050-096767SAO  +0324FRI  V0202201N008212200019N0208001N9+00001-00781102651ADDGF102991999999999999999999MA1102441999999MD1810291+9999MW1001OC101131REMAWY020WND 160V240/829 1008
0058724550139471972011619004+39050-096767SAO  +0324FRI  V0202101N007212200019N0208001N9+00111-00671999999ADDGF102991999999999999999999MA1102271999999MW1001OC101181
0058724550139471972011620004+39050-096767SAO  +0324FRI  V0202101N005112200019N0208001N9+00221-00611999999ADDGF102991999999999999999999MA1102101999999MW1001OC101031
0089724550139471972011621004+39050-096767SAO  +0324FRI  V0202101N007212200019N0208001N9+00281-00501102281ADDGF102991999999999999999999MA1102101999999MD1610341+9999MW1001OC101131REMAWY008634 1008
0058724550139471972011622004+39050-096767SAO  +0324FRI  V0202101N005112200019N0208001N9+00331-00441999999ADDGF102991999999999999999999MA1102101999999MW1001OC100821
0058724550139471972011623004+39050-096767SAO  +0324FRI  V0202101N004112200019N0208001N9+00281-00391999999ADDGF102991999999999999999999MA1102031999999MW1001OC100721
0076724550139471972011712004+39050-096767SAO  +0324FRI  V0209991C000012200019N0208001N9-00171-00671101431ADDGF100991999999999999999999MA1101291999999MD1710221+9999MW1001REMAWY003722
0050724550139471972011713004+39050-096767SAO  +0324FRI  V0209991C000012200019N0208001N9-00111-00561999999ADDGF100991999999999999999999MA1101251999999MW1001
0050724550139471972011714004+39050-096767SAO  +0324FRI  V0209991C000012200019N0208001N9-00111-00441999999ADDGF100991999999999999999999MA1101151999999MW1001
0076724550139471972011715004+39050-096767SAO  +0324FRI  V0202001N003112200019N0208001N9+00171-00221101261ADDGF100991999999999999999999MA1101121999999MD1710171+9999MW1001REMAWY003717
0058724550139471972011716004+39050-096767SAO  +0324FRI  V0202101N003112200019N0208001N9+00391-00111999999ADDGF100991999999999999999999MA1101121999999MW1001OC100771
0058724550139471972011717004+39050-096767SAO  +0324FRI  V0202101N007212200019N0208001N9+00561+00001999999ADDGF100991999999999999999999MA1101021999999MW1001OC101131
0076724550139471972011718004+39050-096767SAO  +0324FRI  V0202001N007212200019N0208001N9+00721-00111101041ADDGF100991999999999999999999MA1100881999999MD1710221+9999MW1001REMAWY003722
0050724550139471972011719004+39050-096767SAO  +0324FRI  V0202001N009312200019N0208001N9+00891-00111999999ADDGF100991999999999999999999MA1100781999999MW1001
0050724550139471972011720004+39050-096767SAO  +0324FRI  V0202101N009312200019N0208001N9+01001-00111999999ADDGF100991999999999999999999MA1100681999999MW1001
0084724550139471972011721004+39050-096767SAO  +0324FRI  V0202101N007212200019N0208001N9+01111-00061100721ADDGF100991999999999999999999MA1100611999999MD1610251+9999MW1001OC100981REMAWY003625
0058724550139471972011722004+39050-096767SAO  +0324FRI  V0202101N006212200019N0208001N9+01171+00001999999ADDGF100991999999999999999999MA1100581999999MW1001OC101031
0063724550139471972011723004+39050-096767SAO  +0324FRI  V0202001N003112200019N0208001N9+01061+00061999999ADDGF100991999999999999999999MA1100581999999MW1001REMAWY004CI S
0081724550139471972011800004+39050-096767SAO  +0324FRI  V0201901N001012200019N0208001N9+00781+00111100681ADDGF100991999999999999999999MA1100581999999MD1610051+9999MW1001REMAWY008605 1002
0050724550139471972011801004+39050-096767SAO  +0324FRI  V0202001N003112200019N0208001N9+00831+00221999999ADDGF100991999999999999999999MA1100541999999MW1001
0050724550139471972011802004+39050-096767SAO  +0324FRI  V0202101N002112200019N0208001N9+00781+00281999999ADDGF100991999999999999999999MA1100541999999MW1001
0076724550139471972011803004+39050-096767SAO  +0324FRI  V0202101N005112200019N0208001N9+00831+00391100551ADDGF100991999999999999999999MA1100471999999MD1810101+9999MW1001REMAWY003810
0050724550139471972011804004+39050-096767SAO  +0324FRI  V0202001N003112200019N0208001N9+00831+00391999999ADDGF100991999999999999999999MA1100581999999MW1001
0076724550139471972011812004+39050-096767SAO  +0324FRI  V0202001N002112200019N0208001N9+00831+00561100211ADDGF100991999999999999999999MA1100141999999MD1810071+9999MW1001REMAWY003807
0050724550139471972011813004+39050-096767SAO  +0324FRI  V0201901N002112200019N0208001N9+00781+00501999999ADDGF100991999999999999999999MA1100201999999MW1001
0050724550139471972011814004+39050-096767SAO  +0324FRI  V0202101N001012200019N0208001N9+00671+00391999999ADDGF102991999999999999999999MA1100271999999MW1001
0090724550139471972011815004+39050-096767SAO  +0324FRI  V0202301N002612200019N0208001N9+00721+00391100491ADDGF102991999999999999999999MA1100411999999MD1210271+9999MW1001REMAWY017CU W-N-E/227 1108
0050724550139471972011816004+39050-096767SAO  +0324FRI  V0202001N003112200019N0208001N9+00831+00281999999ADDGF102991999999999999999999MA1100471999999MW1001
0050724550139471972011817004+39050-096767SAO  +0324FRI  V0202201N003610750019N0208001N9+01111+00221999999ADDGF107991999999999999999999MA1100541999999MW1001
0081724550139471972011818004+39050-096767SAO  +0324FRI  V0202401N002112200019N0208001N9+01331+00111100661ADDGF107991999999999999999999MA1100611999999MD1210191+9999MW1001REMAWY008219 1006
0050724550139471972011819004+39050-096767SAO  +0324FRI  V0202701N003112200019N0208001N9+01501+00061999999ADDGF107991999999999999999999MA1100611999999MW1001
0050724550139471972011820004+39050-096767SAO  +0324FRI  V0202901N003612200019N0208001N9+01611-00281999999ADDGF107991999999999999999999MA1100681999999MW1001
0081724550139471972011821004+39050-096767SAO  +0324FRI  V0203001N002610750019N0208001N9+01561-00281100861ADDGF107991999999999999999999MA1100811999999MD1210201+9999MW1001REMAWY008220 1008
0050724550139471972011822004+39050-096767SAO  +0324FRI  V0203501N002112200019N0208001N9+01561-00221999999ADDGF107991999999999999999999MA1100951999999MW1001
0050724550139471972011823004+39050-096767SAO  +0324FRI  V0200201N002112200019N0208001N9+01171-00281999999ADDGF107991999999999999999999MA1101121999999MW1001
0081724550139471972011900004+39050-096767SAO  +0324FRI  V0200401N001012200019N0208001N9+00831-00331101281ADDGF102991999999999999999999MA1101251999999MD1210411+9999MW1001REMAWY008241 1008
0050724550139471972011901004+39050-096767SAO  +0324FRI  V0200501N001512200019N0208001N9+00561-00391999999ADDGF102991999999999999999999MA1101391999999MW1001
0050724550139471972011902004+39050-096767SAO  +0324FRI  V0200501N001012200019N0208001N9+00501-00331999999ADDGF102991999999999999999999MA1101521999999MW1001
0081724550139471972011903004+39050-096767SAO  +0324FRI  V0209991C000012200019N0208001N9+00331-00331101631ADDGF102991999999999999999999MA1101591999999MD1210321+9999MW1001REMAWY008232 1008
0050724550139471972011904004+39050-096767SAO  +0324FRI  V0200401N001012200019N0208001N9+00281-00331999999ADDGF102991999999999999999999MA1101691999999MW1001
0094724550139471972011912004+39050-096767SAO  +0324FRI  V0200701N002110750019N0208001N9-00111-00441101861ADDGF108991999999999999999999MA1101801999999MD1810021+9999MW1001REMAWY021WND LGT VRBL/802 1007
0071724550139471972011913004+39050-096767SAO  +0324FRI  V0200601N001010750019N0208001N9-00171-00501999999ADDGF107991999999999999999999MA1101831999999MW1001REMAWY012WND LGT VRBL
0071724550139471972011914004+39050-096767SAO  +0324FRI  V0200401N001010078019N0160001N9-00111-00441999999ADDGF107991999999999999999999MA1101861999999MW1001REMAWY012WND LGT VRBL
0094724550139471972011915004+39050-096767SAO  +0324FRI  V0200501N001010048019N0160001N9-00061-00391101951ADDGF108991999999999999999999MA1101861999999MD1110071+9999MW1001REMAWY021WND LGT VRBL/107 15//
0071724550139471972011916004+39050-096767SAO  +0324FRI  V0200701N001010033019N0128001N9+00111-00331999999ADDGF108991999999999999999999MA1101831999999MW1001REMAWY012WND LGT VRBL
0071724550139471972011917004+39050-096767SAO  +0324FRI  V0200901N002110030019N0128001N9+00281-00221999999ADDGF108991999999999999999999MA1101831999999MW1001REMAWY012WND LGT VRBL
0094724550139471972011918004+39050-096767SAO  +0324FRI  V0200901N001010027019N0080001N9+00391-00111101861ADDGF108991999999999999999999MA1101761999999MD1710081+9999MW1451REMAWY021WND LGT VRBL/708 15//
0071724550139471972011919004+39050-096767SAO  +0324FRI  V0200301N001010030019N0080001N9+00391-00061999999ADDGF108991999999999999999999MA1101661999999MW1451REMAWY012WND LGT VRBL
0071724550139471972011920004+39050-096767SAO  +0324FRI  V0200401N002110030019N0080001N9+00331-00061999999ADDGF108991999999999999999999MA1101591999999MW1451REMAWY012WND LGT VRBL
0081724550139471972011921004+39050-096767SAO  +0324FRI  V0200301N002110027019N0064001N9+00391-00061101651ADDGF108991999999999999999999MA1101521999999MD1610201+9999MW1051REMAWY008620 15//
0050724550139471972011922004+39050-096767SAO  +0324FRI  V0200701N001510021019N0064001N9+00391-00061999999ADDGF108991999999999999999999MA1101521999999MW1051
0050724550139471972011923004+39050-096767SAO  +0324FRI  V0200501N001510015019N0032001N9+00281+00001999999ADDGF108991999999999999999999MA1101521999999MW1451
0084724550139471972012000004+39050-096767SAO  +0324FRI  V0200701N001510009019N0006001N9+00221+00001101651ADDGF110991999999999999999999MA1101521999999MD1410001+9999MW1451REMAWY011F6 400 15//
0061724550139471972012001004+39050-096767SAO  +0324FRI  V0200701N001010006019N0006001N9+00171-00061999999ADDGF110991999999999999999999MA1101491999999MW1451REMAWY002F2
0066724550139471972012002004+39050-096767SAO  +0324FRI  V0201201N001010009019N0024001N9+00171-00061999999ADDGF108991999999999999999999MA1101521999999MW1451REMAWY007CIG 2V4
0100724550139471972012003004+39050-096767SAO  +0324FRI  V0200601N001010006019N9999999N9+00111-00061101641ADDGF108991999999999999999999MA1101521999999MD1610021+9999MW1451REMAWY008602 16//EQDQ011600002VODIS 
0050724550139471972012004004+39050-096767SAO  +0324FRI  V0209991C000010003019N0002001N9+00111-00111999999ADDGF108991999999999999999999MA1101521999999MW1451
0078724550139471972012012004+39050-096767SAO  +0324FRI  V0200201N000510009019N0003001N9+00111-00111101591ADDGF108991999999999999999999MA1101491999999MD1210071+9999MW1451REMAWY005207//
0050724550139471972012013004+39050-096767SAO  +0324FRI  V0209991C000010009019N0003001N9+00111-00111999999ADDGF108991999999999999999999MA1101491999999MW1451
0050724550139471972012014004+39050-096767SAO  +0324FRI  V0200301N002110012019N0024001N9+00111-00111999999ADDGF108991999999999999999999MA1101661999999MW1451
0081724550139471972012015004+39050-096767SAO  +0324FRI  V0200301N001010009019N0024001N9+00061-00111101781ADDGF108991999999999999999999MA1101691999999MD1110171+9999MW1451REMAWY008117 16//
0066724550139471972012016004+39050-096767SAO  +0324FRI  V0200201N002110015019N0024001N9+00111-00111999999ADDGF108991999999999999999999MA1101801999999MW1451REMAWY007CIG 4V6
0066724550139471972012017004+39050-096767SAO  +0324FRI  V0200301N002110018019N0024001N9+00111+00001999999ADDGF108991999999999999999999MA1101861999999MW1451REMAWY007CIG 5V7
0113724550139471972012018004+39050-096767SAO  +0324FRI  V0200401N002110018019N0036001N9+00111+00001101951ADDAA106999929AA224999999GF108991999999999999999999MA1101861999999MD1010191+9999MW1451REMAWY018CIG 5V7/01900 16//
0066724550139471972012019004+39050-096767SAO  +0324FRI  V0200201N002610024019N0036001N9+00001-00281999999ADDGF108991999999999999999999MA1101901999999MW1451REMAWY007CIG 7V9
0050724550139471972012020004+39050-096767SAO  +0324FRI  V0200301N002110027019N0036001N9+00061-00281999999ADDGF108991999999999999999999MA1101901999999MW1451
0081724550139471972012021004+39050-096767SAO  +0324FRI  V0200401N001510021019N0048001N9+00111-00331102021ADDGF108991999999999999999999MA1101931999999MD1110051+9999MW1451REMAWY008105 16//
0050724550139471972012022004+39050-096767SAO  +0324FRI  V0200401N003110021019N0064001N9+00061-00391999999ADDGF108991999999999999999999MA1102001999999MW1451
0050724550139471972012023004+39050-096767SAO  +0324FRI  V0200401N002610021019N0064001N9+00001-00441999999ADDGF108991999999999999999999MA1102001999999MW1451
0081724550139471972012100004+39050-096767SAO  +0324FRI  V0200601N002110021019N0064001N9+00001-00501102171ADDGF108991999999999999999999MA1102071999999MD1210151+9999MW1451REMAWY008215 16//
0050724550139471972012101004+39050-096767SAO  +0324FRI  V0200601N002110027019N0064001N9-00061-00501999999ADDGF108991999999999999999999MA1102131999999MW1451
0050724550139471972012102004+39050-096767SAO  +0324FRI  V0200401N002110024019N0080001N9-00111-00391999999ADDGF108991999999999999999999MA1102131999999MW1451
0081724550139471972012103004+39050-096767SAO  +0324FRI  V0200701N003110024019N0080001N9-00171-00561102291ADDGF108991999999999999999999MA1102171999999MD1010081+9999MW1451REMAWY008008 16//
0050724550139471972012104004+39050-096767SAO  +0324FRI  V0200401N001010027019N0080001N9-00221-00671999999ADDGF108991999999999999999999MA1102171999999MW1451
0083724550139471972012112004+39050-096767SAO  +0324FRI  V0201001N000510036019N0208001N9-00441-00831102021ADDGF108991999999999999999999MA1101901999999MD1610141+9999MW1001REMAWY010614// 16//
0067724550139471972012113004+39050-096767SAO  +0324FRI  V0209991C000010027019N0208001N9-00441-00831999999ADDGF108991999999999999999999MA1101801999999MW1001REMAWY008CIG 9V10
0050724550139471972012114004+39050-096767SAO  +0324FRI  V0209991C000010033019N0128001N9-00441-00781999999ADDGF108991999999999999999999MA1101731999999MW1001
0090724550139471972012115004+39050-096767SAO  +0324FRI  V0200601N000510027019N0080001N9-00391-00721101831ADDGF108991999999999999999999MA1101691999999MD1810191+9999MW1451REMAWY017CIG 9V10/819 16//
0066724550139471972012116004+39050-096767SAO  +0324FRI  V0201901N001010018019N0064001N9-00281-00671999999ADDGF108991999999999999999999MA1101691999999MW1451REMAWY007CIG 6V7
0074724550139471972012117004+39050-096767SAO  +0324FRI  V0202201N001510018019N0064001N9-00221-00561999999ADDGF108991999999999999999999MA1101591999999MW1451REMAWY015CIG 6V7 VSBY S2
0101724550139471972012118004+39050-096767SAO  +0324FRI  V0201901N001510015019N0024001N9-00171-00501101551ADDGF110991999999999999999999MA1101391999999MD1810271+9999MW1451REMAWY028F3 CIG 5V6 VSBY SE1/827 16//
0056724550139471972012119004+39050-096767SAO  +0324FRI  V0202101N001510021019N0048001N9+00001-00441999999ADDGF108991999999999999999999MA1101191999999MW1451MW2511
0066724550139471972012120004+39050-096767SAO  +0324FRI  V0201901N001010021019N0064001N9+00111-00391999999ADDGF108991999999999999999999MA1100951999999MW1451REMAWY007CIG 7V8
0081724550139471972012121004+39050-096767SAO  +0324FRI  V0201901N002110024019N0064001N9+00171-00391101041ADDGF108991999999999999999999MA1100881999999MD1710491+9999MW1451REMAWY008749 16//
0050724550139471972012122004+39050-096767SAO  +0324FRI  V0202101N001010024019N0064001N9+00221-00281999999ADDGF108991999999999999999999MA1100811999999MW1451
0050724550139471972012123004+39050-096767SAO  +0324FRI  V0202101N001010024019N0064001N9+00221-00221999999ADDGF108991999999999999999999MA1100681999999MW1451
0081724550139471972012200004+39050-096767SAO  +0324FRI  V0202101N001010021019N0048001N9+00171-00221100771ADDGF108991999999999999999999MA1100611999999MD1710251+9999MW1451REMAWY008725 16//
0050724550139471972012201004+39050-096767SAO  +0324FRI  V0202101N001010021019N0064001N9+00221-00171999999ADDGF108991999999999999999999MA1100611999999MW1451
0050724550139471972012202004+39050-096767SAO  +0324FRI  V0202101N001010018019N0048001N9+00171-00111999999ADDGF108991999999999999999999MA1100541999999MW1451
0081724550139471972012203004+39050-096767SAO  +0324FRI  V0202301N001010015019N0048001N9+00171-00111100721ADDGF108991999999999999999999MA1100581999999MD1510031+9999MW1451REMAWY008503 16//
0050724550139471972012204004+39050-096767SAO  +0324FRI  V0202401N002110015019N0048001N9+00171-00111999999ADDGF108991999999999999999999MA1100581999999MW1451
0069724550139471972012214004+39050-096767SAO  +0324FRI  V0209991C000012200019N0048001N9-00171-00441999999ADDGF102991999999999999999999MA1100681999999MW1111REMAWY010SC NW-NE-E
0081724550139471972012215004+39050-096767SAO  +0324FRI  V0202301N000512200019N0048001N9+00001-00331100831ADDGF102991999999999999999999MA1100711999999MD1310121+9999MW1051REMAWY008312 1500
0050724550139471972012216004+39050-096767SAO  +0324FRI  V0209991C000012200019N0064001N9+00171-00111999999ADDGF102991999999999999999999MA1100751999999MW1051
0050724550139471972012217004+39050-096767SAO  +0324FRI  V0202601N001512200019N0112001N9+00671+00061999999ADDGF102991999999999999999999MA1100781999999MW1001
0081724550139471972012218004+39050-096767SAO  +0324FRI  V0202401N001012200019N0112001N9+00781+00061100801ADDGF107991999999999999999999MA1100711999999MD1010001+9999MW1001REMAWY008000 1050
0050724550139471972012219004+39050-096767SAO  +0324FRI  V0202301N002110360019N0112001N9+01001+00061999999ADDGF108991999999999999999999MA1100541999999MW1001
0075724550139471972012220004+39050-096767SAO  +0324FRI  V0202401N001510360019N0208001N9+01111+00111999999ADDGF108991999999999999999999MA1100471999999MW1001REMAWY016BINOVC S-SW HRZN
0098724550139471972012221004+39050-096767SAO  +0324FRI  V0202401N000510360019N0208001N9+01171+00171100561ADDGF108991999999999999999999MA1100471999999MD1610221+9999MW1001REMAWY025BKNVSCT BINOVC S/622 1077
0050724550139471972012222004+39050-096767SAO  +0324FRI  V0209991C000010510019N0208001N9+01111+00171999999ADDGF108991999999999999999999MA1100471999999MW1001
0081724550139471972012315004+39050-096767SAO  +0324FRI  V0209991C000010030019N0012001N9+00281+00061100751ADDGF108991999999999999999999MA1100611999999MD1110071+9999MW1451REMAWY008107 15//
0050724550139471972012316004+39050-096767SAO  +0324FRI  V0203601N001010018019N0016001N9+00391+00171999999ADDGF108991999999999999999999MA1100711999999MW1451
0061724550139471972012317004+39050-096767SAO  +0324FRI  V0203601N001010012019N0012001N9+00331+00111999999ADDGF110991999999999999999999MA1100881999999MW1451REMAWY002F5
0092724550139471972012318004+39050-096767SAO  +0324FRI  V0203501N001510009019N0010001N9+00281+00111100991ADDGF110991999999999999999999MA1100851999999MD1110251+9999MW1451REMAWY019F5 CIG 2V4/125 15//
0050724550139471972012319004+39050-096767SAO  +0324FRI  V0203601N001010018019N0024001N9+00331+00061999999ADDGF108991999999999999999999MA1100811999999MW1451
0050724550139471972012320004+39050-096767SAO  +0324FRI  V0203601N001510018019N0024001N9+00281+00061999999ADDGF108991999999999999999999MA1100751999999MW1451
0081724550139471972012321004+39050-096767SAO  +0324FRI  V0203601N001010021019N0024001N9+00281+00061100831ADDGF108991999999999999999999MA1100711999999MD1610151+9999MW1451REMAWY008615 15//
0050724550139471972012322004+39050-096767SAO  +0324FRI  V0200401N001010021019N0024001N9+00281+00111999999ADDGF108991999999999999999999MA1100641999999MW1451
0050724550139471972012323004+39050-096767SAO  +0324FRI  V0200701N001510024019N0024001N9+00281+00061999999ADDGF108991999999999999999999MA1100581999999MW1451
0083724550139471972012412004+39050-096767SAO  +0324FRI  V0209991C000010012019N0048001N9+00441+00331099991ADDGF108991999999999999999999MA1099901999999MD1510031+9999MW1451REMAWY010503// 15//
0066724550139471972012413004+39050-096767SAO  +0324FRI  V0203301N001010015019N0064001N9+00331+00281999999ADDGF108991999999999999999999MA1100031999999MW1451REMAWY007CIG 4V6
0066724550139471972012414004+39050-096767SAO  +0324FRI  V0203201N001510015019N0064001N9+00221+00171999999ADDGF108991999999999999999999MA1100201999999MW1451REMAWY007WET RWY
0096724550139471972012415004+39050-096767SAO  +0324FRI  V0203101N001510030019N0112001N9+00221+00061100571ADDGF107991999999999999999999MA1100471999999MD1210561+9999MW1001REMAWY023PRESRR WET RWY/256 1500
0066724550139471972012416004+39050-096767SAO  +0324FRI  V0203101N002110048019N0144001N9+00221+00061999999ADDGF108991999999999999999999MA1100641999999MW1001REMAWY007WET RWY
0078724550139471972012417004+39050-096767SAO  +0324FRI  V0203301N002110078019N0160001N9+00391-00061999999ADDGF108991999999999999999999MA1100911999999MW1001REMAWY019WND LGT VRBL PRESRR
0101724550139471972012418004+39050-096767SAO  +0324FRI  V0203401N002610360019N0208001N9+00331-00501101281ADDGF108991999999999999999999MA1101151999999MD1210661+9999MW1001REMAWY028WND LGT VRBL PRESRR/266 1577
0071724550139471972012419004+39050-096767SAO  +0324FRI  V0203201N003112200019N0208001N9+00281-00611999999ADDGF102991999999999999999999MA1101221999999MW1001REMAWY012WND LGT VRBL
0058724550139471972012420004+39050-096767SAO  +0324FRI  V0203001N004112200019N0208001N9+00331-00611999999ADDGF102991999999999999999999MA1101351999999MW1001OC100771
0096724550139471972012421004+39050-096767SAO  +0324FRI  V0203201N006712200019N0208001N9+00221-00781101661ADDGF102991999999999999999999MA1101561999999MD1310391+9999MW1001OC101341REMAWY015PRESRR/339 1508
0081724550139471972012422004+39050-096767SAO  +0324FRI  V0203401N007212200019N0208001N9+00111-01001999999ADDGF100991999999999999999999MA1101831999999MW1001OC101131REMAWY014SC S-SW PRESRR
0065724550139471972012423004+39050-096767SAO  +0324FRI  V0203301N004112200019N0208001N9-00061-01111999999ADDGF100991999999999999999999MA1102031999999MW1001REMAWY006PRESRR
0104724550139471972012500004+39050-096767SAO  +0324FRI  V0203301N005112200019N0208001N9-00281-01281102391ADDGF100991999999999999999999MA1102301999999MD1210711+9999MW1001OC100821REMAWY023CI SW-W PRESRR/271 1005
0065724550139471972012501004+39050-096767SAO  +0324FRI  V0203301N006212200019N0208001N9-00441-01501999999ADDGF100991999999999999999999MA1102541999999MW1001REMAWY006PRESRR
0065724550139471972012502004+39050-096767SAO  +0324FRI  V0203301N005112200019N0208001N9-00611-01501999999ADDGF100991999999999999999999MA1102781999999MW1001REMAWY006PRESRR
0091724550139471972012503004+39050-096767SAO  +0324FRI  V0203301N004112200019N0208001N9-00671-01611103071ADDGF100991999999999999999999MA1102951999999MD1210611+9999MW1001OC100871REMAWY010PRESRR/261
0058724550139471972012504004+39050-096767SAO  +0324FRI  V0203501N006212200019N0208001N9-00831-01891999999ADDGF100991999999999999999999MA1102981999999MW1001OC101031
0076724550139471972012512004+39050-096767SAO  +0324FRI  V0209991C000012200019N0208001N9-01441-02281103871ADDGF100991999999999999999999MA1103591999999MD1310171+9999MW1001REMAWY003317
0050724550139471972012513004+39050-096767SAO  +0324FRI  V0200601N001012200019N0208001N9-01501-02171999999ADDGF100991999999999999999999MA1103561999999MW1001
0066724550139471972012514004+39050-096767SAO  +0324FRI  V0200701N002612200019N0208001N9-01501-02171999999ADDGF100991999999999999999999MA1103561999999MW1001REMAWY007CI N-NE
0076724550139471972012515004+39050-096767SAO  +0324FRI  V0200801N003112200019N0208001N9-01331-02171103851ADDGF100991999999999999999999MA1103591999999MD1510021+9999MW1001REMAWY003502
0050724550139471972012516004+39050-096767SAO  +0324FRI  V0201001N004112200019N0208001N9-01171-02061999999ADDGF102991999999999999999999MA1103591999999MW1001
0050724550139471972012517004+39050-096767SAO  +0324FRI  V0200901N005712200019N0208001N9-01001-02111999999ADDGF102991999999999999999999MA1103661999999MW1001
0081724550139471972012518004+39050-096767SAO  +0324FRI  V0200901N003612200019N0208001N9-00891-02171103821ADDGF102991999999999999999999MA1103561999999MD1610031+9999MW1001REMAWY008603 1002
0050724550139471972012519004+39050-096767SAO  +0324FRI  V0201401N001012200019N0208001N9-00831-02111999999ADDGF102991999999999999999999MA1103451999999MW1001
0050724550139471972012520004+39050-096767SAO  +0324FRI  V0200901N002612200019N0208001N9-00561-02001999999ADDGF102991999999999999999999MA1103291999999MW1001
0089724550139471972012521004+39050-096767SAO  +0324FRI  V0200901N003612200019N0208001N9-00441-01891103441ADDGF102991999999999999999999MA1103221999999MD1710341+9999MW1001OC100721REMAWY008734 1002
0058724550139471972012522004+39050-096767SAO  +0324FRI  V0201201N004112200019N0208001N9-00391-01781999999ADDGF102991999999999999999999MA1103121999999MW1001OC100721
0058724550139471972012523004+39050-096767SAO  +0324FRI  V0201301N004612200019N0208001N9-00391-01671999999ADDGF102991999999999999999999MA1103051999999MW1001OC100771
0094724550139471972012600004+39050-096767SAO  +0324FRI  V0200901N002612200019N0208001N9-00501-01611103251ADDGF102991999999999999999999MA1103011999999MD1710201+9999MW1001REMAWY021WND LGT VRBL/720 1002
0050724550139471972012601004+39050-096767SAO  +0324FRI  V0200701N004112200019N0208001N9-00561-01611999999ADDGF102991999999999999999999MA1103051999999MW1001
0050724550139471972012602004+39050-096767SAO  +0324FRI  V0200701N004112200019N0208001N9-00671-01561999999ADDGF102991999999999999999999MA1103051999999MW1001
0081724550139471972012603004+39050-096767SAO  +0324FRI  V0200701N003610750019N0208001N9-00721-01501103261ADDGF107991999999999999999999MA1103051999999MD1110021+9999MW1001REMAWY008102 1008
0058724550139471972012604004+39050-096767SAO  +0324FRI  V0200801N005110750019N0208001N9-00721-01391999999ADDGF107991999999999999999999MA1103011999999MW1001OC100821
0101724550139471972012612004+39050-096767SAO  +0324FRI  V0200501N007212200019N0208001N9-01281-01891103241ADDGF102991999999999999999999MA1103011999999MD1210031+9999MW1001OC101031REMAWY020WND 020V080/203 1007
0058724550139471972012613004+39050-096767SAO  +0324FRI  V0200601N007212200019N0208001N9-01391-02061999999ADDGF102991999999999999999999MA1103151999999MW1001OC101131
0050724550139471972012614004+39050-096767SAO  +0324FRI  V0200601N007210750019N0208001N9-01441-02061999999ADDGF107991999999999999999999MA1103221999999MW1001
0101724550139471972012615004+39050-096767SAO  +0324FRI  V0200701N007712200019N0208001N9-01391-02001103511ADDGF108991999999999999999999MA1103291999999MD1210251+9999MW1001OC101181REMAWY020WND 030V090/225 1108
0058724550139471972012616004+39050-096767SAO  +0324FRI  V0200601N007212200019N0208001N9-01221-02061999999ADDGF108991999999999999999999MA1103351999999MW1001OC101131
0078724550139471972012617004+39050-096767SAO  +0324FRI  V0200601N007212200019N0208001N9-01111-02001999999ADDGF108991999999999999999999MA1103351999999MW1001OC101081REMAWY011WND 020V080
0089724550139471972012618004+39050-096767SAO  +0324FRI  V0200601N007212200019N0208001N9-01111-02001103511ADDGF108991999999999999999999MA1103321999999MD1010051+9999MW1001OC101131REMAWY008005 1107
0078724550139471972012619004+39050-096767SAO  +0324FRI  V0200501N007212200019N0208001N9-00941-02001999999ADDGF108991999999999999999999MA1103221999999MW1001OC101031REMAWY011WND 020V080
0078724550139471972012620004+39050-096767SAO  +0324FRI  V0200501N007212200019N0208001N9-00941-02061999999ADDGF108991999999999999999999MA1103221999999MW1001OC101031REMAWY011WND 020V080
0101724550139471972012621004+39050-096767SAO  +0324FRI  V0200401N007212200019N0208001N9-01001-02001103551ADDGF108991999999999999999999MA1103291999999MD1510021+9999MW1001OC101031REMAWY020WND 010V090/502 1007
0078724550139471972012622004+39050-096767SAO  +0324FRI  V0200401N006212200019N0208001N9-00941-02001999999ADDGF108991999999999999999999MA1103251999999MW1001OC100931REMAWY011WND 340V070
0078724550139471972012623004+39050-096767SAO  +0324FRI  V0200401N006210600019N0208001N9-01061-02111999999ADDGF108991999999999999999999MA1103251999999MW1001OC101231REMAWY011WND 350V070
0081724550139471972012700004+39050-096767SAO  +0324FRI  V0200401N007210240019N0208001N9-01171-02171103531ADDGF108991999999999999999999MA1103251999999MD1510021+9999MW1001REMAWY008502 1077
0050724550139471972012701004+39050-096767SAO  +0324FRI  V0200501N005110240019N0160001N9-01221-02331999999ADDGF108991999999999999999999MA1103251999999MW1001
0050724550139471972012702004+39050-096767SAO  +0324FRI  V0200501N006210300019N0112001N9-01391-02391999999ADDGF108991999999999999999999MA1103291999999MW1001
0089724550139471972012703004+39050-096767SAO  +0324FRI  V0200401N008210300019N0112001N9-01441-02391103551ADDGF108991999999999999999999MA1103291999999MD1010021+9999MW1001OC100981REMAWY008002 107/
0058724550139471972012704004+39050-096767SAO  +0324FRI  V0200401N006210300019N0112001N9-01501-02441999999ADDGF108991999999999999999999MA1103291999999MW1001OC100871
0083724550139471972012712004+39050-096767SAO  +0324FRI  V0200501N003610045019N0064001N9-01561-02001103121ADDGF108991999999999999999999MA1102881999999MD1710221+9999MW1771REMAWY010722// 16//
0056724550139471972012713004+39050-096767SAO  +0324FRI  V0200501N004110048019N0032001N9-01561-02001999999ADDGF108991999999999999999999MA1102781999999MW1561MW2711
0084724550139471972012714004+39050-096767SAO  +0324FRI  V0200401N002110045019N0016001N9-01501-02001999999ADDGF108991999999999999999999MA1102811999999MW1561MW2771OC100511REMAWY011WND 350V010
0088724550139471972012715004+39050-096767SAO  +0324FRI  V0200401N004110009019N0006001N9-01501-02001103111ADDGF108991999999999999999999MA1102841999999MD1010021+9999MW1561MW2711MW3771REMAWY003002
0062724550139471972012716004+39050-096767SAO  +0324FRI  V0200401N003110045019N0024001N9-01501-02061999999ADDGF108991999999999999999999MA1102741999999MW1451MW2711MW3771
0056724550139471972012717004+39050-096767SAO  +0324FRI  V0200301N003610036019N0064001N9-01501-02061999999ADDGF108991999999999999999999MA1102711999999MW1451MW2711
0126724550139471972012718004+39050-096767SAO  +0324FRI  V0200301N003110036019N0048001N9-01441-01941102911ADDAA106003091GF108991999999999999999999MA1102571999999MD1810251+9999MW1451REMAWY023PRESFR/82512 16// 90401EQDQ01  00303PRCP99
0050724550139471972012719004+39050-096767SAO  +0324FRI  V0203601N003110045019N0064001N9-01441-02001999999ADDGF108991999999999999999999MA1102541999999MW1451
0056724550139471972012720004+39050-096767SAO  +0324FRI  V0200301N003610045019N0064001N9-01441-02061999999ADDGF108991999999999999999999MA1102441999999MW1451MW2711
0087724550139471972012721004+39050-096767SAO  +0324FRI  V0203601N004110036019N0064001N9-01391-02061102711ADDGF108991999999999999999999MA1102441999999MD1710141+9999MW1451MW2711REMAWY008714 16//
0050724550139471972012722004+39050-096767SAO  +0324FRI  V0203501N006210033019N0112001N9-01391-02061999999ADDGF108991999999999999999999MA1102471999999MW1001
0050724550139471972012723004+39050-096767SAO  +0324FRI  V0203601N005110033019N0112001N9-01391-02061999999ADDGF108991999999999999999999MA1102541999999MW1001
0081724550139471972012800004+39050-096767SAO  +0324FRI  V0203601N005110045019N0112001N9-01441-02171102861ADDGF108991999999999999999999MA1102571999999MD1310141+9999MW1001REMAWY008314 1400
0050724550139471972012801004+39050-096767SAO  +0324FRI  V0203601N002610045019N0112001N9-01501-02221999999ADDGF108991999999999999999999MA1102641999999MW1001
0081724550139471972012803004+39050-096767SAO  +0324FRI  V0203401N003610105019N0208001N9-01611-02391103151ADDGF108991999999999999999999MA1102881999999MD1210291+9999MW1001REMAWY008229 1530
0050724550139471972012804004+39050-096767SAO  +0324FRI  V0203601N002610105019N0208001N9-01671-02391999999ADDGF108991999999999999999999MA1102951999999MW1001
0088724550139471972012812004+39050-096767SAO  +0324FRI  V0209991C000012200019N0112001N9-01891-02561103151ADDGF100991999999999999999999MA1102881999999MD1710071+9999MW1001REMAWY015707 20012 PSR//
0064724550139471972012813004+39050-096767SAO  +0324FRI  V0209991C000012200019N0112001N9-02001-02561999999ADDGF100991999999999999999999MA1102841999999MW1001REMAWY005PSR//
0064724550139471972012814004+39050-096767SAO  +0324FRI  V0209991C000012200019N0160001N9-01941-02501999999ADDGF100991999999999999999999MA1102781999999MW1001REMAWY005PSR//
0082724550139471972012815004+39050-096767SAO  +0324FRI  V0209991C000012200019N0208001N9-01781-02501103071ADDGF100991999999999999999999MA1102781999999MD1710081+9999MW1001REMAWY009708 PSR//
0077724550139471972012816004+39050-096767SAO  +0324FRI  V0201001N001012200019N0208001N9-01611-02441999999ADDGF100991999999999999999999MA1102781999999MW1001REMAWY018WND LGT VRBL PSR//
0077724550139471972012817004+39050-096767SAO  +0324FRI  V0202301N001012200019N0208001N9-01391-02331999999ADDGF100991999999999999999999MA1102741999999MW1001REMAWY018WND LGT VRBL PSR//
0095724550139471972012818004+39050-096767SAO  +0324FRI  V0202501N002612200019N0208001N9-01221-02171102931ADDGF100991999999999999999999MA1102681999999MD1710101+9999MW1001REMAWY022WND LGT VRBL/710 PSR//
0084724550139471972012819004+39050-096767SAO  +0324FRI  V0202501N003612200019N0208001N9-01001-02061999999ADDGF100991999999999999999999MA1102541999999MW1001OC100571REMAWY017WND 180V260 PSR//
0077724550139471972012820004+39050-096767SAO  +0324FRI  V0202201N002112200019N0208001N9-00941-02001999999ADDGF100991999999999999999999MA1102401999999MW1001REMAWY018WND LGT VRBL PSR//
0109724550139471972012821004+39050-096767SAO  +0324FRI  V0202001N002112200019N0208001N9-00781-01891102511ADDGF100991999999999999999999MA1102241999999MD1710411+9999MW1001REMAWY036WND LGT VRBL CI ALQDS/741 1001 PSR//
0077724550139471972012822004+39050-096767SAO  +0324FRI  V0201801N002612200019N0208001N9-00671-01721999999ADDGF102991999999999999999999MA1102201999999MW1001REMAWY018WND LGT VRBL PSR//
0077724550139471972012823004+39050-096767SAO  +0324FRI  V0202201N002612200019N0208001N9-00671-01611999999ADDGF102991999999999999999999MA1102171999999MW1001REMAWY018WND LGT VRBL PSR//
0087724550139471972012900004+39050-096767SAO  +0324FRI  V0202201N002112200019N0208001N9-00891-01561102381ADDGF102991999999999999999999MA1102131999999MD1610101+9999MW1001REMAWY014610 1008 PSR//
0064724550139471972012901004+39050-096767SAO  +0324FRI  V0201901N001012200019N0208001N9-01001-01501999999ADDGF102991999999999999999999MA1102131999999MW1001REMAWY005PSR//
0064724550139471972012902004+39050-096767SAO  +0324FRI  V0209991C000012200019N0208001N9-01281-01721999999ADDGF102991999999999999999999MA1102131999999MW1001REMAWY005PSR//
0087724550139471972012903004+39050-096767SAO  +0324FRI  V0209991C000012200019N0208001N9-01111-01561102321ADDGF102991999999999999999999MA1102071999999MD1810071+9999MW1001REMAWY014807 1008 PSR//
0064724550139471972012904004+39050-096767SAO  +0324FRI  V0202301N002112200019N0208001N9-01111-01611999999ADDGF100991999999999999999999MA1102171999999MW1001REMAWY005PSR//
0064724550139471972012914004+39050-096767SAO  +0324FRI  V0209991C000012200019N0208001N9-01331-01721999999ADDGF102991999999999999999999MA1102101999999MW1001REMAWY005PSR//
0087724550139471972012915004+39050-096767SAO  +0324FRI  V0209991C000012200019N0208001N9-01061-01441102321ADDGF102991999999999999999999MA1102101999999MD1110051+9999MW1001REMAWY014105 1008 PSR//
0077724550139471972012916004+39050-096767SAO  +0324FRI  V0202301N002112200019N0208001N9-00721-01221999999ADDGF102991999999999999999999MA1102201999999MW1001REMAWY018WND LGT VRBL PSR//
0077724550139471972012917004+39050-096767SAO  +0324FRI  V0202101N002112200019N0208001N9-00391-01061999999ADDGF102991999999999999999999MA1102201999999MW1001REMAWY018WND LGT VRBL PSR//
0100724550139471972012918004+39050-096767SAO  +0324FRI  V0202301N001512200019N0208001N9-00111-01001102391ADDGF102991999999999999999999MA1102201999999MD1110101+9999MW1001REMAWY027WND LGT VRBL/110 1008 PSR//
0077724550139471972012919004+39050-096767SAO  +0324FRI  V0202301N002112200019N0208001N9+00001-00941999999ADDGF102991999999999999999999MA1102101999999MW1001REMAWY018WND LGT VRBL PSR//
0064724550139471972012920004+39050-096767SAO  +0324FRI  V0209991C000012200019N0208001N9+00331-00941999999ADDGF102991999999999999999999MA1102031999999MW1001REMAWY005PSR//
0100724550139471972012921004+39050-096767SAO  +0324FRI  V0200801N003110600019N0208001N9+00561-01171102181ADDGF107991999999999999999999MA1102031999999MD1610171+9999MW1001REMAWY027WND LGT VRBL/617 1008 PSR//
0077724550139471972012922004+39050-096767SAO  +0324FRI  V0200301N002110600019N0208001N9+00501-01221999999ADDGF107991999999999999999999MA1102031999999MW1001REMAWY018WND LGT VRBL PSR//
0076724550139471972013015004+39050-096767SAO  +0324FRI  V0202501N003612200019N0208001N9-00671-01171102801ADDGF100991999999999999999999MA1102611999999MD1210031+9999MW1001REMAWY003203
0050724550139471972013016004+39050-096767SAO  +0324FRI  V0202501N004612200019N0208001N9-00331-00941999999ADDGF100991999999999999999999MA1102641999999MW1001
0050724550139471972013017004+39050-096767SAO  +0324FRI  V0202501N005712200019N0208001N9+00001-00891999999ADDGF100991999999999999999999MA1102571999999MW1001
0076724550139471972013018004+39050-096767SAO  +0324FRI  V0202601N006212200019N0208001N9+00281-01111102681ADDGF100991999999999999999999MA1102541999999MD1010071+9999MW1001REMAWY003007
0050724550139471972013019004+39050-096767SAO  +0324FRI  V0202801N005712200019N0208001N9+00441-01111999999ADDGF100991999999999999999999MA1102401999999MW1001
0050724550139471972013020004+39050-096767SAO  +0324FRI  V0202601N003612200019N0208001N9+00561-01171999999ADDGF100991999999999999999999MA1102271999999MW1001
0076724550139471972013021004+39050-096767SAO  +0324FRI  V0202501N007212200019N0208001N9+00611-01331102321ADDGF100991999999999999999999MA1102201999999MD1710341+9999MW1001REMAWY003734
0064724550139471972013022004+39050-096767SAO  +0324FRI  V0202701N005112200019N0208001N9+00671-01331999999ADDGF100991999999999999999999MA1102131999999MW1001REMAWY005CI SW
0050724550139471972013023004+39050-096767SAO  +0324FRI  V0202501N002612200019N0208001N9+00611-01391999999ADDGF100991999999999999999999MA1102071999999MW1001
0076724550139471972013112004+39050-096767SAO  +0324FRI  V0202501N002112200019N0208001N9-00561-01001101981ADDGF100991999999999999999999MA1101861999999MD1610071+9999MW1001REMAWY003607
0050724550139471972013113004+39050-096767SAO  +0324FRI  V0202201N002112200019N0208001N9-00721-01061999999ADDGF100991999999999999999999MA1101901999999MW1001
0050724550139471972013114004+39050-096767SAO  +0324FRI  V0209991C000012200019N0208001N9-00611-01171999999ADDGF100991999999999999999999MA1101931999999MW1001
0076724550139471972013115004+39050-096767SAO  +0324FRI  V0202001N001512200019N0208001N9-00281-01001102081ADDGF100991999999999999999999MA1101931999999MD1210081+9999MW1001REMAWY003208
0050724550139471972013116004+39050-096767SAO  +0324FRI  V0209991C000012200019N0208001N9-00111-01001999999ADDGF100991999999999999999999MA1101961999999MW1001
0050724550139471972013117004+39050-096767SAO  +0324FRI  V0209991C000012200019N0208001N9+00221-01001999999ADDGF100991999999999999999999MA1102001999999MW1001
0076724550139471972013118004+39050-096767SAO  +0324FRI  V0202401N002112200019N0208001N9+00441-01001102001ADDGF100991999999999999999999MA1101901999999MD1810051+9999MW1001REMAWY003805
0071724550139471972013119004+39050-096767SAO  +0324FRI  V0201801N002612200019N0208001N9+00781-01001999999ADDGF100991999999999999999999MA1101801999999MW1001REMAWY012WND LGT VRBL
0050724550139471972013120004+39050-096767SAO  +0324FRI  V0201801N004112200019N0208001N9+00941-00941999999ADDGF100991999999999999999999MA1101661999999MW1001
0088724550139471972013121004+39050-096767SAO  +0324FRI  V0201801N004112200019N0400001N9+01171-01001101551ADDGF100991999999999999999999MA1101461999999MD1610391+9999MW1001REMAWY015KLYR N/639 1008
0063724550139471972013122004+39050-096767SAO  +0324FRI  V0201801N005112200019N0400001N9+01171-00941999999ADDGF100991999999999999999999MA1101391999999MW1001REMAWY004CS S
0066724550139471972013123004+39050-096767SAO  +0324FRI  V0201901N004112200019N0400001N9+01001-00891999999ADDGF100991999999999999999999MA1101391999999MW1001REMAWY007CS SE-S
0081724550139471972020100004+39050-096767SAO  +0324FRI  V0201901N003112200019N0208001N9+00561-00831101531ADDGF100991999999999999999999MA1101391999999MD1610071+9999MW1001REMAWY008607 1008
0050724550139471972020101004+39050-096767SAO  +0324FRI  V0201701N004112200019N0208001N9+00501-00781999999ADDGF100991999999999999999999MA1101421999999MW1001
0050724550139471972020102004+39050-096767SAO  +0324FRI  V0201901N005712200019N0208001N9+00391-00891999999ADDGF100991999999999999999999MA1101391999999MW1001
0076724550139471972020103004+39050-096767SAO  +0324FRI  V0201701N007212200019N0208001N9+00441-00891101501ADDGF100991999999999999999999MA1101391999999MD1610021+9999MW1001REMAWY003602
0081724550139471972020112004+39050-096767SAO  +0324FRI  V0201701N004110114019N0160001N9+00171-00391101151ADDGF108991999999999999999999MA1101081999999MD1710031+9999MW1001REMAWY008703 15//
0058724550139471972020113004+39050-096767SAO  +0324FRI  V0201801N005110120019N0208001N9+00281-00331999999ADDGF108991999999999999999999MA1101051999999MW1001OC100931
0058724550139471972020114004+39050-096767SAO  +0324FRI  V0201801N006210120019N0160001N9+00281-00331999999ADDGF108991999999999999999999MA1101081999999MW1001OC100931
0081724550139471972020115004+39050-096767SAO  +0324FRI  V0201801N007210120019N0160001N9+00281-00281101191ADDGF108991999999999999999999MA1101121999999MD1310031+9999MW1001REMAWY008303 18//
0078724550139471972020116004+39050-096767SAO  +0324FRI  V0201601N007210120019N0160001N9+00331-00221999999ADDGF108991999999999999999999MA1101081999999MW1001OC101031REMAWY011WND 130V190
0050724550139471972020117004+39050-096767SAO  +0324FRI  V0201701N007210048019N0160001N9+00331-00221999999ADDGF108991999999999999999999MA1101051999999MW1001
0089724550139471972020118004+39050-096767SAO  +0324FRI  V0201501N005110054019N0160001N9+00331-00221101151ADDGF108991999999999999999999MA1101051999999MD1710051+9999MW1001OC100821REMAWY008705 18//
0050724550139471972020119004+39050-096767SAO  +0324FRI  V0201601N006210057019N0160001N9+00331-00281999999ADDGF108991999999999999999999MA1100981999999MW1001
0070724550139471972020120004+39050-096767SAO  +0324FRI  V0201701N005110048019N0160001N9+00331-00221999999ADDGF108991999999999999999999MA1100851999999MW1001REMAWY011WND 140V200
0081724550139471972020121004+39050-096767SAO  +0324FRI  V0201501N004610045019N0160001N9+00331-00221100961ADDGF108991999999999999999999MA1100811999999MD1610201+9999MW1001REMAWY008620 18//
0071724550139471972020122004+39050-096767SAO  +0324FRI  V0201501N002610087019N0160001N9+00331-00281999999ADDGF108991999999999999999999MA1100781999999MW1001REMAWY012WND LGT VRBL
0071724550139471972020123004+39050-096767SAO  +0324FRI  V0201401N002110042019N0160001N9+00281-00281999999ADDGF108991999999999999999999MA1100781999999MW1001REMAWY012WND LGT VRBL
0087724550139471972020200004+39050-096767SAO  +0324FRI  V0201401N001010030019N0048001N9+00171-00171100931ADDGF108991999999999999999999MA1100811999999MD1510021+9999MW1451MW2771REMAWY008502 16//
0056724550139471972020201004+39050-096767SAO  +0324FRI  V0209991C000010030019N0040001N9+00171-00111999999ADDGF108991999999999999999999MA1100881999999MW1451MW2771
0050724550139471972020202004+39050-096767SAO  +0324FRI  V0209991C000010069019N0064001N9+00171-00111999999ADDGF108991999999999999999999MA1100981999999MW1711
0081724550139471972020203004+39050-096767SAO  +0324FRI  V0209991C000010069019N0080001N9+00111-00111101131ADDGF108991999999999999999999MA1101021999999MD1210191+9999MW1711REMAWY008219 16//
0050724550139471972020204004+39050-096767SAO  +0324FRI  V0209991C000010012019N0048001N9+00111-00111999999ADDGF108991999999999999999999MA1101021999999MW1711
0083724550139471972020212004+39050-096767SAO  +0324FRI  V0203301N004110087019N0160001N9-00441-00831101291ADDGF108991999999999999999999MA1101151999999MD1210071+9999MW1711REMAWY010207// 16//
0078724550139471972020213004+39050-096767SAO  +0324FRI  V0203201N004110066019N0112001N9-00561-01001999999ADDGF108991999999999999999999MA1101191999999MW1711OC100821REMAWY011WND 290V350
0070724550139471972020214004+39050-096767SAO  +0324FRI  V0203301N004110063019N0080001N9-00611-01111999999ADDGF108991999999999999999999MA1101291999999MW1711REMAWY011WND 300V360
0101724550139471972020215004+39050-096767SAO  +0324FRI  V0203301N005110057019N0048001N9-00611-01111101521ADDGF108991999999999999999999MA1101351999999MD1210201+9999MW1711OC100871REMAWY020WND 300V360/220 16//
0078724550139471972020216004+39050-096767SAO  +0324FRI  V0203301N005110015019N0010001N9-00671-01111999999ADDGF108991999999999999999999MA1101421999999MW1711OC100981REMAWY011WND 300V360
0078724550139471972020217004+39050-096767SAO  +0324FRI  V0203401N007210009019N0012001N9-00611-01111999999ADDGF108991999999999999999999MA1101491999999MW1711OC101031REMAWY011WND 310V010
0139724550139471972020218004+39050-096767SAO  +0324FRI  V0203401N007210015019N0016001N9-00671-01221101701ADDAA106001091GF108991999999999999999999MA1101561999999MD1210191+9999MW1711OC101131REMAWY028WND 310V010/21904 102/ 90401EQDQ01  00103PRCP99
0092724550139471972020219004+39050-096767SAO  +0324FRI  V0203301N008210015019N0012001N9-00671-01171999999ADDGF108991999999999999999999MA1101491999999MW1381MW2711OC101131REMAWY019WND 300V360 LSRIR//
0111724550139471972020220004+39050-096767SAO  +0324FRI  V0203401N006210015019N0012001N9-00671-01281999999ADDGF108991999999999999999999MA1101491999999MW1381MW2711OC101031REMAWY038WND 310V010 THN SPTS IOVC OVHD LSRIR//
0109724550139471972020221004+39050-096767SAO  +0324FRI  V0203501N008210015019N0064001N9-00781-01391101711ADDGF108991999999999999999999MA1101521999999MD1510021+9999MW1711OC101131REMAWY028WND 320V030/502 16// LSRIR//
0086724550139471972020222004+39050-096767SAO  +0324FRI  V0203201N007210015019N0032001N9-00831-01391999999ADDGF108991999999999999999999MA1101631999999MW1711OC101491REMAWY019WND 280V350 LSRIR//
0096724550139471972020223004+39050-096767SAO  +0324FRI  V0203401N004110015019N0016001N9-00891-01391999999ADDGF108991999999999999999999MA1101731999999MW1711OC100871REMAWY029WND 330V040 DRFTG SNW LSRIR//
0145724550139471972020300004+39050-096767SAO  +0324FRI  V0203401N003610015019N0008001N9-00941-01391101991ADDAA106001091GF108991999999999999999999MA1101831999999MD1210251+9999MW1731OC100821REMAWY034DRFTG SNW/22504 1021 90402 LSRIR//EQDQ01  00103PRCP99
0084724550139471972020301004+39050-096767SAO  +0324FRI  V0203401N006210045019N0016001N9-01001-01391999999ADDGF108991999999999999999999MA1101901999999MW1711OC100871REMAWY017DRFTG SNW LSRIR//
0084724550139471972020302004+39050-096767SAO  +0324FRI  V0203501N009310060019N0048001N9-01001-01501999999ADDGF108991999999999999999999MA1101961999999MW1711OC101231REMAWY017DRFTG SNW LSRIR//
0107724550139471972020303004+39050-096767SAO  +0324FRI  V0203201N008210075019N0080001N9-01061-01611102231ADDGF108991999999999999999999MA1102031999999MD1210221+9999MW1711OC101031REMAWY026DRFTG SNW/222 16// LSRIR//
0084724550139471972020304004+39050-096767SAO  +0324FRI  V0203301N007210075019N0096001N9-01111-01671999999ADDGF108991999999999999999999MA1102031999999MW1711OC101131REMAWY017DRFTG SNW LSRIR//
0096724550139471972020312004+39050-096767SAO  +0324FRI  V0201701N001512200019N0208001N9-01941-02561102601ADDGF100991999999999999999999MA1102341999999MD1110031+9999MW1001REMAWY023103// 90402 20008 PSR//
0064724550139471972020313004+39050-096767SAO  +0324FRI  V0202301N001012200019N0208001N9-01941-02561999999ADDGF100991999999999999999999MA1102371999999MW1001REMAWY005PSR//
0064724550139471972020314004+39050-096767SAO  +0324FRI  V0209991C000012200019N0400001N9-01831-02501999999ADDGF100991999999999999999999MA1102441999999MW1001REMAWY005PSR//
0094724550139471972020315004+39050-096767SAO  +0324FRI  V0203201N005112200019N0400001N9-01221-02111102771ADDGF100991999999999999999999MA1102541999999MD1310201+9999MW1001REMAWY021WND 250V350/320 PSR//
0091724550139471972020316004+39050-096767SAO  +0324FRI  V0203201N007212200019N0400001N9-01061-02061999999ADDGF100991999999999999999999MA1102611999999MW1001OC101031REMAWY024CB N-E WND 270V360 PSR//
0085724550139471972020317004+39050-096767SAO  +0324FRI  V0203301N006212200019N0400001N9-00941-01891999999ADDGF100991999999999999999999MA1102641999999MW1001OC101081REMAWY018CS N-E INCRG PSR//
0099724550139471972020318004+39050-096767SAO  +0324FRI  V0203101N006712200019N0400001N9-00891-01831102871ADDGF102991999999999999999999MA1102641999999MD1110101+9999MW1001REMAWY026WND 270V030/110 1008 PSR//
0091724550139471972020319004+39050-096767SAO  +0324FRI  V0203101N006212200019N0400001N9-00781-01831999999ADDGF100991999999999999999999MA1102541999999MW1001OC101031REMAWY024CB N-E WND 270V360 PSR//
0112724550139471972020320004+39050-096767SAO  +0324FRI  V0202901N005712200019N0400001N9-00721-01671999999ADDGF100991999999999999999999MA1102541999999MW1001OC100821REMAWY045CUFRA ALQDS CS NE-E AND W-N WND 250V350 PSR//
0132724550139471972020321004+39050-096767SAO  +0324FRI  V0203201N007712200019N0208001N9-00611-01671102801ADDGF100991999999999999999999MA1102541999999MD1610081+9999MW1001OC101031REMAWY051CU SW CS OVHD AND NE-SE WND 270V350/608 1108 PSR//P
0097724550139471972020322004+39050-096767SAO  +0324FRI  V0203101N003112200019N0208001N9-00561-01501999999ADDGF100991999999999999999999MA1102571999999MW1001REMAWY038CU ALQDS CS W-N-NE WND LGT VRBL PSR//P
0074724550139471972020323004+39050-096767SAO  +0324FRI  V0203001N003612200019N0208001N9-00561-01501999999ADDGF102991999999999999999999MA1102681999999MW1001REMAWY015CU S-W-N PSR//P
0088724550139471972020400004+39050-096767SAO  +0324FRI  V0203301N000512200019N0208001N9-00671-01441102941ADDGF102991999999999999999999MA1102681999999MD1210121+9999MW1001REMAWY015212 1008 PSR//P
0065724550139471972020401004+39050-096767SAO  +0324FRI  V0209991C000012200019N0208001N9-00891-01611999999ADDGF102991999999999999999999MA1102741999999MW1001REMAWY006PSR//P
0065724550139471972020402004+39050-096767SAO  +0324FRI  V0209991C000012200019N0208001N9-01221-01781999999ADDGF102991999999999999999999MA1102811999999MW1001REMAWY006PSR//P
0088724550139471972020403004+39050-096767SAO  +0324FRI  V0209991C000012200019N0208001N9-01391-01831103051ADDGF102991999999999999999999MA1102811999999MD1210121+9999MW1001REMAWY015212 1008 PSR//P
0065724550139471972020404004+39050-096767SAO  +0324FRI  V0209991C000012200019N0208001N9-01391-01781999999ADDGF102991999999999999999999MA1102881999999MW1001REMAWY006PSR//P
0089724550139471972020412004+39050-096767SAO  +0324FRI  V0200201N001012200019N0208001N9-01831-02391103531ADDGF100991999999999999999999MA1103291999999MD1310141+9999MW1001REMAWY016314 90401 PSR//P
0073724550139471972020413004+39050-096767SAO  +0324FRI  V0209991C000012200019N0208001N9-01781-02331999999ADDGF100991999999999999999999MA1103321999999MW1001REMAWY014CS N-NE PSR//P
0073724550139471972020414004+39050-096767SAO  +0324FRI  V0209991C000012200019N0208001N9-01891-02391999999ADDGF100991999999999999999999MA1103421999999MW1001REMAWY014CS N-NE PSR//P
0088724550139471972020415004+39050-096767SAO  +0324FRI  V0209991C000012200019N0208001N9-01501-02001103851ADDGF100991999999999999999999MA1103561999999MD1310291+9999MW1001REMAWY015329 1008 PSR//P
0078724550139471972020416004+39050-096767SAO  +0324FRI  V0209991C000012200019N0208001N9-01171-01721999999ADDGF100991999999999999999999MA1103591999999MW1001REMAWY019OCNL LTG WND PSR//P
0091724550139471972020417004+39050-096767SAO  +0324FRI  V0200401N001512200019N0208001N9-01001-01781999999ADDGF100991999999999999999999MA1103661999999MW1001REMAWY032CI ALQDS WND LGT AND VRBL PSR//P
0105724550139471972020418004+39050-096767SAO  +0324FRI  V0200301N002612200019N0208001N9-00831-01781103831ADDGF102991999999999999999999MA1103621999999MD1010021+9999MW1001REMAWY032WND LGT AND VRBL/002 1009 PSR//P
0082724550139471972020419004+39050-096767SAO  +0324FRI  V0200501N002612200019N0208001N9-00721-01501999999ADDGF107991999999999999999999MA1103491999999MW1001REMAWY023WND LGT AND VRBL PSR//P
0082724550139471972020420004+39050-096767SAO  +0324FRI  V0201001N002612200019N0208001N9-00611-01611999999ADDGF102991999999999999999999MA1103391999999MW1001REMAWY023WND LGT AND VRBL PSR//P
0105724550139471972020421004+39050-096767SAO  +0324FRI  V0200901N002612200019N0208001N9-00561-01391103521ADDGF102991999999999999999999MA1103291999999MD1810301+9999MW1001REMAWY032WND LGT AND VRBL/830 1008 PSR//P
0065724550139471972020422004+39050-096767SAO  +0324FRI  V0201201N003112200019N0208001N9-00611-01391999999ADDGF102991999999999999999999MA1103181999999MW1001REMAWY006PSR//P
0065724550139471972020423004+39050-096767SAO  +0324FRI  V0200801N002612200019N0208001N9-00611-01391999999ADDGF100991999999999999999999MA1103081999999MW1001REMAWY006PSR//P
0088724550139471972020500004+39050-096767SAO  +0324FRI  V0201301N001012200019N0208001N9-00611-01441103321ADDGF102991999999999999999999MA1103081999999MD1710201+9999MW1001REMAWY015720 1008 PSR//P
0065724550139471972020501004+39050-096767SAO  +0324FRI  V0209991C000012200019N0208001N9-00671-01441999999ADDGF102991999999999999999999MA1102981999999MW1001REMAWY006PSR//P
0065724550139471972020502004+39050-096767SAO  +0324FRI  V0209991C000012200019N0208001N9-00891-01441999999ADDGF102991999999999999999999MA1102951999999MW1001REMAWY006PSR//P
0088724550139471972020503004+39050-096767SAO  +0324FRI  V0200101N001512200019N0208001N9-00941-01561103081ADDGF102991999999999999999999MA1102841999999MD1810221+9999MW1001REMAWY015822 1008 PSR//P
0065724550139471972020504004+39050-096767SAO  +0324FRI  V0200301N001512200019N0208001N9-01001-01611999999ADDGF102991999999999999999999MA1102741999999MW1001REMAWY006PSR//P
0058724550139471972020514004+39050-096767SAO  +0324FRI  V0201901N009310660019N0208001N9+00061-00671999999ADDGF107991999999999999999999MA1101491999999MW1001OC101231
0089724550139471972020515004+39050-096767SAO  +0324FRI  V0201901N009310750019N0208001N9+00171-00671101611ADDGF108991999999999999999999MA1101461999999MD1710141+9999MW1001OC101231REMAWY008714 1007
0058724550139471972020516004+39050-096767SAO  +0324FRI  V0201901N008210750019N0208001N9+00331-00611999999ADDGF108991999999999999999999MA1101421999999MW1001OC101031
0058724550139471972020517004+39050-096767SAO  +0324FRI  V0202101N011310750019N0208001N9+00441-00501999999ADDGF108991999999999999999999MA1101321999999MW1001OC101541
0089724550139471972020518004+39050-096767SAO  +0324FRI  V0202101N011310750019N0208001N9+00561-00391101341ADDGF108991999999999999999999MA1101191999999MD1810251+9999MW1001OC101441REMAWY008825 1007
0082724550139471972020519004+39050-096767SAO  +0324FRI  V0202101N013410750019N0208001N9+00721-00281999999ADDGF108991999999999999999999MA1101021999999MW1001OC101651REMAWY015PK WND 21/40 38
0082724550139471972020520004+39050-096767SAO  +0324FRI  V0202101N011310750019N0208001N9+00831-00171999999ADDGF108991999999999999999999MA1100881999999MW1001OC101541REMAWY015PK WND 21/36 15
0089724550139471972020521004+39050-096767SAO  +0324FRI  V0202201N009310750019N0208001N9+01001+00001100961ADDGF108991999999999999999999MA1100811999999MD1710341+9999MW1001OC101441REMAWY008734 1007
0058724550139471972020522004+39050-096767SAO  +0324FRI  V0202201N009312200019N0208001N9+01061+00061999999ADDGF107991999999999999999999MA1100751999999MW1001OC101341
0117724550139471972020615004+39050-096767SAO  +0324FRI  V0200101N007210063019N0048001N9-00721-01441102211ADDGF108991999999999999999999MA1102071999999MD1210391+9999MW1051MW2711OC101231REMAWY030BINOVC N S-- OCNLY S-/239 15//
0076724550139471972020616004+39050-096767SAO  +0324FRI  V0200201N008212200019N0160001N9-00831-01501999999ADDGF102991999999999999999999MA1102171999999MW1711OC101231REMAWY009INTMT S--
0058724550139471972020617004+39050-096767SAO  +0324FRI  V0203601N006712200019N0208001N9-00831-01561999999ADDGF107991999999999999999999MA1102301999999MW1001OC100931
0091724550139471972020618004+39050-096767SAO  +0324FRI  V0203601N008212200019N0208001N9-00611-01501102461ADDGF107991999999999999999999MA1102301999999MD1110241+9999MW1001OC101081REMAWY010124// 1006
0058724550139471972020619004+39050-096767SAO  +0324FRI  V0200101N007712200019N0208001N9-00501-01561999999ADDGF102991999999999999999999MA1102301999999MW1001OC101181
0058724550139471972020620004+39050-096767SAO  +0324FRI  V0200201N007212200019N0208001N9-00331-01391999999ADDGF102991999999999999999999MA1102271999999MW1001OC101231
0089724550139471972020621004+39050-096767SAO  +0324FRI  V0200101N007212200019N0208001N9-00281-01441102471ADDGF102991999999999999999999MA1102301999999MD1510001+9999MW1001OC101131REMAWY008500 1008
0058724550139471972020622004+39050-096767SAO  +0324FRI  V0200201N006212200019N0208001N9-00281-01441999999ADDGF102991999999999999999999MA1102401999999MW1001OC100871
0058724550139471972020623004+39050-096767SAO  +0324FRI  V0200201N005112200019N0208001N9-00331-01501999999ADDGF102991999999999999999999MA1102471999999MW1001OC100931
0076724550139471972020712004+39050-096767SAO  +0324FRI  V0209991C000012200019N0208001N9-01331-01941102981ADDGF100991999999999999999999MA1102741999999MD1810031+9999MW1001REMAWY003803
0063724550139471972020713004+39050-096767SAO  +0324FRI  V0209991C000012200019N0208001N9-01331-01941999999ADDGF100991999999999999999999MA1102681999999MW1001REMAWY004CS E
0050724550139471972020714004+39050-096767SAO  +0324FRI  V0209991C000012200019N0208001N9-01331-01891999999ADDGF102991999999999999999999MA1102611999999MW1001
0081724550139471972020715004+39050-096767SAO  +0324FRI  V0201001N001512200019N0208001N9-01221-01781102971ADDGF102991999999999999999999MA1102741999999MD1510021+9999MW1001REMAWY008502 1008
0050724550139471972020716004+39050-096767SAO  +0324FRI  V0201401N002112200019N0208001N9-01061-01611999999ADDGF102991999999999999999999MA1102741999999MW1001
0050724550139471972020717004+39050-096767SAO  +0324FRI  V0201801N003112200019N0208001N9-00671-01721999999ADDGF102991999999999999999999MA1102681999999MW1001
0081724550139471972020718004+39050-096767SAO  +0324FRI  V0201301N002612200019N0208001N9-00391-01611102781ADDGF107991999999999999999999MA1102571999999MD1810151+9999MW1001REMAWY008815 1006
0050724550139471972020719004+39050-096767SAO  +0324FRI  V0201601N001512200019N0208001N9-00171-01561999999ADDGF107991999999999999999999MA1102441999999MW1001
0065724550139471972020720004+39050-096767SAO  +0324FRI  V0201601N005112200019N0208001N9+00111-01281999999ADDGF102991999999999999999999MA1102241999999MW1001REMAWY006PRESFR
0081724550139471972020721004+39050-096767SAO  +0324FRI  V0201701N005112200019N0208001N9+00171-01281102351ADDGF102991999999999999999999MA1102171999999MD1710411+9999MW1001REMAWY008741 1006
0050724550139471972020722004+39050-096767SAO  +0324FRI  V0201701N005112200019N0208001N9+00221-01221999999ADDGF102991999999999999999999MA1102101999999MW1001
0050724550139471972020723004+39050-096767SAO  +0324FRI  V0201701N005112200019N0208001N9+00221-01111999999ADDGF102991999999999999999999MA1102101999999MW1001
0081724550139471972020800004+39050-096767SAO  +0324FRI  V0201901N002112200019N0208001N9+00171-01111102261ADDGF102991999999999999999999MA1102101999999MD1810071+9999MW1001REMAWY008807 1056
0050724550139471972020801004+39050-096767SAO  +0324FRI  V0201401N001012200019N0208001N9-00171-01061999999ADDGF102991999999999999999999MA1102101999999MW1001
0050724550139471972020802004+39050-096767SAO  +0324FRI  V0201401N005112200019N0208001N9-00171-01111999999ADDGF102991999999999999999999MA1102071999999MW1001
0076724550139471972020803004+39050-096767SAO  +0324FRI  V0201201N004112200019N0208001N9-00171-01111102271ADDGF100991999999999999999999MA1102101999999MD1310021+9999MW1001REMAWY003302
0050724550139471972020804004+39050-096767SAO  +0324FRI  V0201601N004112200019N0208001N9-00171-01111999999ADDGF100991999999999999999999MA1102101999999MW1001
0081724550139471972020812004+39050-096767SAO  +0324FRI  V0209991C000012200019N0208001N9-00391-01001102071ADDGF108991999999999999999999MA1101901999999MD1110031+9999MW1001REMAWY008103 1030
0050724550139471972020813004+39050-096767SAO  +0324FRI  V0209991C000012200019N0208001N9-00391-00941999999ADDGF108991999999999999999999MA1101901999999MW1001
0050724550139471972020814004+39050-096767SAO  +0324FRI  V0200301N001512200019N0208001N9-00391-00941999999ADDGF108991999999999999999999MA1102031999999MW1001
0095724550139471972020815004+39050-096767SAO  +0324FRI  V0200201N001012200019N0208001N9-00331-00891102251ADDGF108991999999999999999999MA1102101999999MD1310201+9999MW1001REMAWY022SUN DMLY VSBL/320 105/
0050724550139471972020816004+39050-096767SAO  +0324FRI  V0200501N003612200019N0208001N9-00111-00781999999ADDGF108991999999999999999999MA1102131999999MW1001
0050724550139471972020817004+39050-096767SAO  +0324FRI  V0203501N006210300019N0208001N9+00111-00891999999ADDGF108991999999999999999999MA1102241999999MW1001
0095724550139471972020818004+39050-096767SAO  +0324FRI  V0203601N007210300019N0208001N9+00061-00941102531ADDGF108991999999999999999999MA1102371999999MD1310251+9999MW1001REMAWY022SUN DMLY VSBL/325 105/
0072724550139471972020819004+39050-096767SAO  +0324FRI  V0203601N005110300019N0208001N9-00111-01001999999ADDGF108991999999999999999999MA1102441999999MW1001REMAWY013SUN DMLY VSBL
0050724550139471972020820004+39050-096767SAO  +0324FRI  V0200201N002110030019N0012001N9-00281-00721999999ADDGF108991999999999999999999MA1102401999999MW1711
0076724550139471972020821004+39050-096767SAO  +0324FRI  V0200201N004110036019N0016001N9-00391-00781102661ADDGF108991999999999999999999MA1102471999999MD1310121+9999MW1711REMAWY003312
0050724550139471972020822004+39050-096767SAO  +0324FRI  V0200201N005110150019N0160001N9-00441-01061999999ADDGF107991999999999999999999MA1102571999999MW1001
0050724550139471972020823004+39050-096767SAO  +0324FRI  V0200301N004110150019N0208001N9-00561-01171999999ADDGF107991999999999999999999MA1102571999999MW1001
0111724550139471972020900004+39050-096767SAO  +0324FRI  V0200201N004110150019N0208001N9-00671-01281102871ADDAA106000591AA224999999GF107991999999999999999999MA1102711999999MD1310221+9999MW1001REMAWY01632202 1500 90401
0050724550139471972020901004+39050-096767SAO  +0324FRI  V0200201N001012200019N0208001N9-00891-01391999999ADDGF102991999999999999999999MA1102811999999MW1001
0050724550139471972020902004+39050-096767SAO  +0324FRI  V0200201N001012200019N0208001N9-01001-01441999999ADDGF100991999999999999999999MA1102811999999MW1001
0076724550139471972020903004+39050-096767SAO  +0324FRI  V0200301N001012200019N0208001N9-01001-01441103001ADDGF100991999999999999999999MA1102881999999MD1310141+9999MW1001REMAWY003314
0050724550139471972020904004+39050-096767SAO  +0324FRI  V0200301N001012200019N0208001N9-01061-01501999999ADDGF100991999999999999999999MA1102911999999MW1001
0093724550139471972020912004+39050-096767SAO  +0324FRI  V0201001N002112200019N0112001N9-00891-01891102961ADDGF102991999999999999999999MA1102741999999MD1510081+9999MW1001REMAWY020508 1500 20002 IR//P
0064724550139471972020913004+39050-096767SAO  +0324FRI  V0201401N006210030019N0112001N9-01391-01831999999ADDGF107991999999999999999999MA1102711999999MW1001REMAWY005IR//P
0070724550139471972020914004+39050-096767SAO  +0324FRI  V0201001N004610024019N0080001N9-01331-01721999999ADDGF108991999999999999999999MA1102681999999MW1051MW2711REMAWY005IR//P
0087724550139471972020915004+39050-096767SAO  +0324FRI  V0201001N005112200019N0112001N9-01221-01611102891ADDGF108991999999999999999999MA1102641999999MD1810081+9999MW1711REMAWY014808 1500 IR//P
0064724550139471972020916004+39050-096767SAO  +0324FRI  V0201001N006212200019N0112001N9-01171-01391999999ADDGF108991999999999999999999MA1102641999999MW1001REMAWY005IR//P
0064724550139471972020917004+39050-096767SAO  +0324FRI  V0201101N004112200019N0112001N9-00721-01281999999ADDGF107991999999999999999999MA1102571999999MW1001REMAWY005IR//P
0119724550139471972020918004+39050-096767SAO  +0324FRI  V0201201N007212200019N0112001N9-00561-01171102711ADDAA106999929AA224999999GF108991999999999999999999MA1102471999999MD1710151+9999MW1001OC101031REMAWY01671500 1507 IR//P
0064724550139471972020919004+39050-096767SAO  +0324FRI  V0201301N006212200019N0112001N9-00331-01111999999ADDGF108991999999999999999999MA1102341999999MW1001REMAWY005IR//P
0064724550139471972020920004+39050-096767SAO  +0324FRI  V0201301N007212200019N0112001N9-00221-01001999999ADDGF108991999999999999999999MA1102201999999MW1001REMAWY005IR//P
0087724550139471972020921004+39050-096767SAO  +0324FRI  V0201301N004112200019N0112001N9-00111-00891102311ADDGF108991999999999999999999MA1102131999999MD1610361+9999MW1001REMAWY014636 1507 IR//P
0064724550139471972020922004+39050-096767SAO  +0324FRI  V0201001N005110063019N0112001N9-00061-00831999999ADDGF108991999999999999999999MA1102101999999MW1001REMAWY005IR//P
0064724550139471972020923004+39050-096767SAO  +0324FRI  V0201301N004612200019N0112001N9-00061-00781999999ADDGF108991999999999999999999MA1102131999999MW1001REMAWY005IR//P
0087724550139471972021000004+39050-096767SAO  +0324FRI  V0201001N003112200019N0112001N9-00111-00781102411ADDGF108991999999999999999999MA1102201999999MD1310081+9999MW1001REMAWY014308 1507 IR//P
