0062724631999991973010100004+38117-102600SAO  +11034LJ  V0202101N001512200019N0240001N9+00001-00201102171ADDGF102991999999999999999999MD1310171+9999EQDQ01+000020PRSWM2
0035724631999991973010102004+38117-102600SAO  +11034LJ  V0200101N001512200019N0240001N9-00301-00701102541ADDGF100991999999999999999999MW1001
0035724631999991973010105004+38117-102600SAO  +11034LJ  V0202101N001512200019N0240001N9-00401-00601102671ADDGF100991999999999999999999MW1001
0048724631999991973010108004+38117-102600SAO  +11034LJ  V0202201N001519999999N0240001N9-00301-00501102741ADDGF107991999999999999999999EQDQ01+000020PRSWM2
0048724631999991973010114004+38117-102600SAO  +11034LJ  V0202501N001519999999N0240001N9-00701-00801103251ADDGF108991999999999999999999EQDQ01+000020PRSWM2
0074724631999991973010117004+38117-102600SAO  +11034LJ  V0202101N001512200019N0240001N9-00101-00801103221ADDAA106000091GF102991999999999999999999MA1101691999999EQDQ01+000020PRSWM2
0048724631999991973010120004+38117-102600SAO  +11034LJ  V0201701N001519999999N0240001N9+00101-00701102901ADDGF107991999999999999999999EQDQ01+000020PRSWM2
0099724631999991973010123004+38117-102600SAO  +11034LJ  V0201801N002012200019N0240001N1-00161-00381102901ADDGD12991+0120099GD22991+0750099GF102991999051999999001081MD1710121+9999MW1001REMAWY011712 1508 34
0062724631999991973010200004+38117-102600SAO  +11034LJ  V0201801N002012200019N0240001N9-00201-00401102901ADDGF102991999999999999999999MD1710121+9999EQDQ01+000020PRSWM2
0035724631999991973010202004+38117-102600SAO  +11034LJ  V0201001N001512200019N0240001N9-00401-00501102931ADDGF100991999999999999999999MW1001
0035724631999991973010205004+38117-102600SAO  +11034LJ  V0201501N002012200019N0240001N9-00501-00601102711ADDGF100991999999999999999999MW1001
0035724631999991973010208004+38117-102600SAO  +11034LJ  V0202301N001512200019N0240001N9-00401-00601102411ADDGF100991999999999999999999MW1001
0035724631999991973010211004+38117-102600SAO  +11034LJ  V0202301N001512200019N0240001N9-00401-00601102081ADDGF100991999999999999999999MW1001
0048724631999991973010214004+38117-102600SAO  +11034LJ  V0202101N001012200019N0240001N9-00201-00401101951ADDGF102991999999999999999999EQDQ01+000020PRSWM2
0048724631999991973010217004+38117-102600SAO  +11034LJ  V0201601N002019999999N0240001N9+00301-00301101771ADDGF108991999999999999999999EQDQ01+000020PRSWM2
0048724631999991973010220004+38117-102600SAO  +11034LJ  V0201101N005119999999N0240001N9+00301-00101101221ADDGF108991999999999999999999EQDQ01+000020PRSWM2
0062724631999991973010300004+38117-102600SAO  +11034LJ  V0201001N003012200019N0240001N9+00201+00101100871ADDGF102991999999999999999999MD1710301+9999EQDQ01+000020PRSWM2
0035724631999991973010302004+38117-102600SAO  +11034LJ  V0202701N002512200019N0240001N9-00101-00301100731ADDGF100991999999999999999999MW1001
0035724631999991973010305004+38117-102600SAO  +11034LJ  V0202401N001512200019N0240001N9-00201-00401100501ADDGF100991999999999999999999MW1001
0035724631999991973010308004+38117-102600SAO  +11034LJ  V0202001N002012200019N0240001N9-00301-00501100541ADDGF100991999999999999999999MW1001
0048724631999991973010311004+38117-102600SAO  +11034LJ  V0202701N003019999999N0016001N9-00401-00601100561ADDGF108991999999999999999999EQDQ01+000100PRSWM2
0048724631999991973010314004+38117-102600SAO  +11034LJ  V0203301N001519999999N0240001N9-00401-00501100831ADDGF107991999999999999999999EQDQ01+000020PRSWM2
0048724631999991973010317004+38117-102600SAO  +11034LJ  V0200101N005119999999N0240001N9-00101-00201101101ADDGF107991999999999999999999EQDQ01+000020PRSWM2
0048724631999991973010320004+38117-102600SAO  +11034LJ  V0203601N003619999999N0240001N9-00201-00401101111ADDGF108991999999999999999999EQDQ01+000020PRSWM2
0089724631999991973010400004+38117-102600SAO  +11034LJ  V0200301N005119999999N0240001N9-00301-00501101471ADDAA106000091GF108991999999999999999999MD1210271+9999EQDQ01+000020PRSWM2Q02  00003PRCP99
0035724631999991973010402004+38117-102600SAO  +11034LJ  V0200301N004119999999N0080001N9-00601-00901101891ADDGF108991999999999999999999MW1701
0048724631999991973010405004+38117-102600SAO  +11034LJ  V0200201N002019999999N0240001N9-00701-01001102051ADDGF108991999999999999999999EQDQ01+000020PRSWM2
0048724631999991973010408004+38117-102600SAO  +11034LJ  V0201501N001519999999N0240001N9-00801-01001102121ADDGF107991999999999999999999EQDQ01+000020PRSWM2
0048724631999991973010411004+38117-102600SAO  +11034LJ  V0200801N002519999999N0240001N9-00901-01101102171ADDGF108991999999999999999999EQDQ01+000020PRSWM2
0048724631999991973010414004+38117-102600SAO  +11034LJ  V0201201N004619999999N0240001N9-00901-01201102361ADDGF108991999999999999999999EQDQ01+000020PRSWM2
0035724631999991973010417004+38117-102600SAO  +11034LJ  V0201301N005119999999N0048001N9-00901-01101102411ADDGF108991999999999999999999MW1711
0035724631999991973010420004+38117-102600SAO  +11034LJ  V0201301N005119999999N0110001N9-00701-00901101981ADDGF108991999999999999999999MW1701
0089724631999991973010500004+38117-102600SAO  +11034LJ  V0201401N005119999999N0240001N9-00701-00901101871ADDAA106000091GF108991999999999999999999MD1610081+9999EQDQ01+000020PRSWM2Q02  00003PRCP99
0048724631999991973010502004+38117-102600SAO  +11034LJ  V0200601N005119999999N0240001N9-00801-01101102041ADDGF108991999999999999999999EQDQ01+000020PRSWM2
0048724631999991973010505004+38117-102600SAO  +11034LJ  V0200601N003019999999N0240001N9-00901-01101102201ADDGF108991999999999999999999EQDQ01+000020PRSWM2
0035724631999991973010508004+38117-102600SAO  +11034LJ  V0200401N002519999999N0080001N9-01101-01201102151ADDGF108991999999999999999999MW1701
0035724631999991973010511004+38117-102600SAO  +11034LJ  V0201001N002519999999N0080001N9-01201-01401102151ADDGF108991999999999999999999MW1701
0035724631999991973010514004+38117-102600SAO  +11034LJ  V0201401N001519999999N0080001N9-01201-01401102161ADDGF108991999999999999999999MW1701
0089724631999991973010600004+38117-102600SAO  +11034LJ  V0203301N001519999999N0240001N9-00901-01101102411ADDAA106000091GF107991999999999999999999MD1210271+9999EQDQ01+000020PRSWM2Q02  00003PRCP99
0048724631999991973010602004+38117-102600SAO  +11034LJ  V0202301N001519999999N0240001N9-01201-01301102641ADDGF107991999999999999999999EQDQ01+000020PRSWM2
0035724631999991973010605004+38117-102600SAO  +11034LJ  V0200801N001512200019N0240001N9-01301-01501102741ADDGF100991999999999999999999MW1001
0035724631999991973010608004+38117-102600SAO  +11034LJ  V0202301N001512200019N0240001N9-01301-01501102541ADDGF100991999999999999999999MW1001
0074724631999991973010611004+38117-102600SAO  +11034LJ  V0200401N001519999999N0240001N9-00901-01201102551ADDAA106000091GF108991999999999999999999MA1101691999999EQDQ01+000020PRSWM2
0048724631999991973010614004+38117-102600SAO  +11034LJ  V0201301N002019999999N0240001N9-00901-01001102701ADDGF108991999999999999999999EQDQ01+000020PRSWM2
0035724631999991973010617004+38117-102600SAO  +11034LJ  V0200901N002019999999N0016001N9-00601-00701102791ADDGF108991999999999999999999MW1711
0035724631999991973010620004+38117-102600SAO  +11034LJ  V0201401N003019999999N0080001N9-00601-00801102501ADDGF108991999999999999999999MW1701
0035724631999991973010705004+38117-102600SAO  +11034LJ  V0201001N002519999999N0110001N9-00801-01001102441ADDGF108991999999999999999999MW1701
0048724631999991973010708004+38117-102600SAO  +11034LJ  V0201201N003019999999N0240001N9-01001-01201102311ADDGF108991999999999999999999EQDQ01+000020PRSWM2
0035724631999991973010711004+38117-102600SAO  +11034LJ  V0200901N003019999999N0080001N9-01101-01301102331ADDGF108991999999999999999999MW1701
0035724631999991973010714004+38117-102600SAO  +11034LJ  V0200701N003019999999N0110001N9-01201-01401102491ADDGF108991999999999999999999MW1701
0035724631999991973010717004+38117-102600SAO  +11034LJ  V0201101N002519999999N0110001N9-01101-01301102631ADDGF108991999999999999999999MW1701
0035724631999991973010720004+38117-102600SAO  +11034LJ  V0203301N002019999999N0080001N9-01001-01301102521ADDGF108991999999999999999999MW1701
0035724631999991973010802004+38117-102600SAO  +11034LJ  V0200701N002019999999N0240001N9-01101-01301102921ADDGF108991999999999999999999MW1701
0048724631999991973010805004+38117-102600SAO  +11034LJ  V0200901N001519999999N0240001N9-01201-01401103041ADDGF108991999999999999999999EQDQ01+000020PRSWM2
0035724631999991973010808004+38117-102600SAO  +11034LJ  V0201901N001519999999N0110001N9-01301-01501103151ADDGF108991999999999999999999MW1701
0035724631999991973010811004+38117-102600SAO  +11034LJ  V0200601N001519999999N0110001N9-01301-01501103211ADDGF108991999999999999999999MW1701
0048724631999991973010817004+38117-102600SAO  +11034LJ  V0201101N002519999999N0240001N9-01101-01501103421ADDGF107991999999999999999999EQDQ01+000020PRSWM2
0062724631999991973010821004+38117-102600SAO  +11034LJ  V0200901N003019999999N0240001N9-01101-01401103141ADDGF107991999999999999999999MD1610251+9999EQDQ01+000020PRSWM2
0095724631999991973010900004+38117-102600SAO  +11034LJ  V0200401N002019999999N0080001N9-01301-01601103291ADDAA106999999GF108991999999999999999999MD1110051+9999MW1701EQDQ01  00003PRCP99Q02  00002PRCP06
0035724631999991973010902004+38117-102600SAO  +11034LJ  V0200801N002019999999N0110001N9-01401-01601103501ADDGF108991999999999999999999MW1701
0048724631999991973010905004+38117-102600SAO  +11034LJ  V0201901N002019999999N0240001N9-01401-01601103531ADDGF108991999999999999999999EQDQ01+000020PRSWM2
0048724631999991973010908004+38117-102600SAO  +11034LJ  V0201601N001519999999N0240001N9-01301-01601103571ADDGF108991999999999999999999EQDQ01+000020PRSWM2
0048724631999991973010911004+38117-102600SAO  +11034LJ  V0201301N001519999999N0240001N9-01601-01701103501ADDGF108991999999999999999999EQDQ01+000020PRSWM2
0048724631999991973010914004+38117-102600SAO  +11034LJ  V0201201N001519999999N0240001N9-01301-01501103611ADDGF108991999999999999999999EQDQ01+000020PRSWM2
0070724631999991973010917004+38117-102600SAO  +11034LJ  V0201201N003019999999N0110001N9-01301-01401103541ADDGA1999+000159049GF108991999999999999999999MW1701EQDQ01    003SCCGA1
0035724631999991973010920004+38117-102600SAO  +11034LJ  V0200701N004119999999N0160001N9-01201-01401103161ADDGF108991999999999999999999MW1701
0095724631999991973011000004+38117-102600SAO  +11034LJ  V0201201N002019999999N0110001N9-01401-01601103141ADDAA106999999GF108991999999999999999999MD1610081+9999MW1701EQDQ01  00003PRCP99Q02  00002PRCP06
0048724631999991973011002004+38117-102600SAO  +11034LJ  V0201201N003019999999N0240001N9-01401-01601103031ADDGF108991999999999999999999EQDQ01+000020PRSWM2
0035724631999991973011005004+38117-102600SAO  +11034LJ  V0201801N002012200019N0240001N9-01601-01801102871ADDGF100991999999999999999999MW1001
0035724631999991973011007004+38117-102600SAO  +11034LJ  V0201301N001512200019N0240001N9-01701-01901102641ADDGF100991999999999999999999MW1001
0035724631999991973011011004+38117-102600SAO  +11034LJ  V0200501N001512200019N0240001N9-01701-01901102381ADDGF100991999999999999999999MW1001
0048724631999991973011017004+38117-102600SAO  +11034LJ  V0203101N002519999999N0240001N9-01101-01601102691ADDGF107991999999999999999999EQDQ01+000020PRSWM2
0048724631999991973011020004+38117-102600SAO  +11034LJ  V0203301N002519999999N0240001N9-00901-01201102511ADDGF107991999999999999999999EQDQ01+000020PRSWM2
0049724631999991973011100004+38117-102600SAO  +11034LJ  V0202301N005112200019N0240001N9-00901-01301102601ADDGF100991999999999999999999MD1210071+9999MW1001
0061724631999991973011118004+38117-102600SAO  +11034LJ  V0202801N005112200019N0240001N1-00771-01551103371ADDGF100991999999999999999999MA1101831999999MW1001REMAWY00204
0061724631999991973011121004+38117-102600SAO  +11034LJ  V0202301N002512200019N0240001N1-00161-00941102881ADDGF100991999999999999999999MD1710341+9999MW1001REMAWY003734
0077724631999991973011200004+38117-102600SAO  +11034LJ  V0202201N001512200019N0240001N1-00441-00661102831ADDGF100991999999999999999999KA1999M-00171MD1710081+9999MW1001REMAWY006708 29
0061724631999991973011203004+38117-102600SAO  +11034LJ  V0202501N001512200019N0240001N1-01111-01331102921ADDGF100991999999999999999999MD1610021+9999MW1001REMAWY003602
0061724631999991973011209004+38117-102600SAO  +11034LJ  V0202901N002512200019N0240001N1-01271-01501102461ADDGF100991999999999999999999MD1610141+9999MW1001REMAWY003  4
0100724631999991973011212004+38117-102600SAO  +11034LJ  V0202701N003012200019N0240001N1-01381-01551102351ADDAJ100059199999999GF100991999999999999999999KA1999N-01671MD1610141+9999MW1001REMAWY012  4 90402 02
0131724631999991973011215004+38117-102600SAO  +11034LJ  V0202601N002512200019N0240001N1-01161-01501102501ADDGD12991+0750099GF102991999001999999001081MD1310021+9999MW1001REMAWY058302 1008         ?GMMP PPPPP OOOO OAC080 19/13 QNH 3021INS
0093724631999991973011218004+38117-102600SAO  +11034LJ  V0201901N002012200019N0240001N1+99999+99999102341ADDAA106000591GF100991999999999999999999MD1010081+9999MW1001REMAWY00500802EQDQ01  00053PRCP99
0061724631999991973011221004+38117-102600SAO  +11034LJ  V0202801N001512200019N0240001N1+00441-00381101981ADDGF100991999999999999999999MD1610241+9999MW1001REMAWY003  4
0061724631999991973011300004+38117-102600SAO  +11034LJ  V0201801N00151012001EN0240001N1+00111-00501102021ADDGD14991+0120099GF108991999999999999999999MW1001REMAWY00240
0081724631999991973011303004+38117-102600SAO  +11034LJ  V0202601N001512200019N0240001N1-00221-00611102031ADDGD12991+0120099GF102991999051999999001001MD1410001+9999MW1001REMAWY008400 1500
0083724631999991973011306004+38117-102600SAO  +11034LJ  V0202301N001512200019N0240001N1-00551-00881101951ADDGD12991+0120099GF102991999999999999999999MA1105051999999MW1001REMAWY009/ 1500 40
0061724631999991973011309004+38117-102600SAO  +11034LJ  V0202601N005112200019N0240001N1-00501-00771101891ADDGF100991999999999999999999MD1110051+9999MW1001REMAWY003105
0189724631999991973011312004+38117-102600SAO  +11034LJ  V0202301N003612200019N0240001N1-00441-00661102101ADDAJ100039199999999GF100991999999999999999999KA1999N-00671MD1210151+9999MW1001REMAWY101215 90401 20     ?MCMD 00000 5.000 MTROS BRUMD TODIR 5SC?40 6AC080 17/16 1020      ?     APTO CERRADO
0061724631999991973011315004+38117-102600SAO  +11034LJ  V0202501N002512200019N0240001N1-00331-00551102371ADDGF100991999999999999999999MD1210201+9999MW1001REMAWY003220
0097724631999991973011318004+38117-102600SAO  +11034LJ  V0202101N00201012001EN0240001N1+00381-00271102521ADDGD13991+0120099GF107991999051999999001001KA1999N-00671MD1110171+9999MW1001REMAWY011117 1500 20
0061724631999991973011321004+38117-102600SAO  +11034LJ  V0202401N002012200019N0240001N1+00941-00331102161ADDGF100991999999999999999999MD1710221+9999MW1001REMAWY003722
0112724631999991973011400004+38117-102600SAO  +11034LJ  V0202101N00151027001EN0240001N1+00611+00111102341ADDGD13991+0270099GD23991+0750099GF107991999001999999051081KA1999M+01001MD1110141+9999MW1001REMAWY011114 1058 50
0081724631999991973011403004+38117-102600SAO  +11034LJ  V0201901N00151027001EN0240001N1-00051-00331102511ADDGD13991+0270099GF107991999001999999051001MD1110071+9999MW1001REMAWY008107 1050
0097724631999991973011406004+38117-102600SAO  +11034LJ  V0202301N00151013501EN0240001N1-00111-00271102341ADDGD13991+0135099GF107991999051999999001001KA1999M+01001MD1810031+9999MW1001REMAWY011803 1500 50
0081724631999991973011409004+38117-102600SAO  +11034LJ  V0202501N00251013501EN0240001N1-00111-00331102251ADDGD13991+0135099GF107991999051999999001001MD1410001+9999MW1001REMAWY008400 1500
0077724631999991973011412004+38117-102600SAO  +11034LJ  V0202401N002512200019N0240001N1-00111-00271102421ADDGF100991999999999999999999KA1999N-00231MD1210071+9999MW1001REMAWY006207 28
0081724631999991973011415004+38117-102600SAO  +11034LJ  V0202201N00251027001EN0240001N1-00111-00271102701ADDGD13991+0270099GF107991999001999999051001MD1210151+9999MW1001REMAWY008215 1050
0097724631999991973011418004+38117-102600SAO  +11034LJ  V0201901N002512200019N0240001N1+00551-00051102781ADDGD12991+0750099GF102991999001999999001081KA1999N-00231MD1110151+9999MW1001REMAWY011115 1008 28
0081724631999991973011421004+38117-102600SAO  +11034LJ  V0202401N004112200019N0240001N1+01221+00051102401ADDGD12991+0750099GF102991999001999999001081MD1710241+9999MW1001REMAWY008724 1008
0097724631999991973011500004+38117-102600SAO  +11034LJ  V0201801N001512200019N0240001N1+00881+00161102481ADDGD12991+0750093GF102991999001999999001081KA1999M+01221MD1310021+9999MW1001REMAWY011302 1008 54
0061724631999991973011503004+38117-102600SAO  +11034LJ  V0202101N001512200019N0240001N1+00161-00051102661ADDGF100991999999999999999999MD1110071+9999MW1001REMAWY003107
0065724631999991973011506004+38117-102600SAO  +11034LJ  V0202201N001512200019N0240001N1+00001-00331102691ADDGD12991+0750093GF102991999999999999999999MA1101861999999MW1001
0061724631999991973011509004+38117-102600SAO  +11034LJ  V0200101N001512200019N0240001N1-00161-00331102491ADDGF100991999999999999999999MD1610101+9999MW1001REMAWY003  0
0077724631999991973011512004+38117-102600SAO  +11034LJ  V0202501N002012200019N0240001N1-00111-00271102421ADDGF100991999999999999999999KA1999N-00281MD1710101+9999MW1001REMAWY006710 27
0064724631999991973011517404+38117-102600SAOSP+11034LJ  V0202301N001512200019N0240001N1+00661-00051102421ADDGF100991999999999999999999MD1810021+9999MW1001REMAWY006802 27
0077724631999991973011518004+38117-102600SAO  +11034LJ  V0202301N001512200019N0240001N1+00661-00051102421ADDGF100991999999999999999999KA1999N-00281MD1810021+9999MW1001REMAWY006802 27
0061724631999991973011521004+38117-102600SAO  +11034LJ  V0202301N001512200019N0240001N1+01271-00111101861ADDGF100991999999999999999999MD1710421+9999MW1001REMAWY003742
0127724631999991973011600004+38117-102600SAO  +11034LJ  V0200701N001510750019N0240001N1+00881+00111101701ADDGD12991+0150099GD22991+0270099GD33991+0750099GF107991999051999999051081KA1999M+01271MD1710191+9999MW1001REMAWY011719 1558 55
0081724631999991973011603004+38117-102600SAO  +11034LJ  V0203601N002012200019N0240001N1+00271+00051101621ADDGD12991+0750099GF102991999001999999001081MD1710151+9999MW1001REMAWY008715 1008
0097724631999991973011606004+38117-102600SAO  +11034LJ  V0202201N00201075001EN0240001N1+00271+00051101441ADDGD13991+0750099GF107991999001999999001081KA1999M+01271MD1610051+9999MW1001REMAWY011605 1008 55
0067724631999991973011615004+38117-102600SAO  +11034LJ  V0202201N002512200019N0240001N1+00051-00051101221ADDGD12991+0270099GF102991999999999999999999MW1001REMAWY008400 1008
0097724631999991973011700004+38117-102600SAO  +11034LJ  V0201501N001512200019N0240001N1+00881+00221100751ADDGD12991+0750093GF102991999001999999001081KA1999M+01331MD1610051+9999MW1001REMAWY011605 1008 56
0061724631999991973011703004+38117-102600SAO  +11034LJ  V0202901N001512200019N0240001N1+00161+00001100801ADDGF100991999999999999999999MD1610051+9999MW1001REMAWY003605
0077724631999991973011706004+38117-102600SAO  +11034LJ  V0202701N002012200019N0240001N1+00111-00051100561ADDGF100991999999999999999999KA1999M+01331MD1610081+9999MW1001REMAWY006608 56
0061724631999991973011709004+38117-102600SAO  +11034LJ  V0202801N002512200019N0240001N1-00051-00221100431ADDGF100991999999999999999999MD1610081+9999MW1001REMAWY003608
0133724631999991973011712004+38117-102600SAO  +11034LJ  V0202401N002512200019N0240001N1+00001-00331100291ADDGF100991999999999999999999KA1999N-00171MD1710151+9999MW1001REMAWY062715 29     ?LIRV WQPPT OOOO 60RA 6SC033 07/04 MON E SE LIB NC%
0061724631999991973011715004+38117-102600SAO  +11034LJ  V0203101N002012200019N0240001N1+00111-00271100201ADDGF100991999999999999999999MD1710151+9999MW1001REMAWY003715
0096724631999991973011718004+38117-102600SAO  +11034LJ  V0202601N002010750019N0240001N1+00881-00051100111ADDGD12991+0270099GD23991+0750099GF107991999999999999999999MA1101591999999MW1001REMAWY0071058 29
0111724631999991973011721004+38117-102600SAO  +11034LJ  V0202801N004110270019N0240001N1+01051+00331099941ADDGD12991+0150099GD23991+0270099GD33991+0750099GF107991999051999999051081MD1710141+9999MW1001REMAWY008714 1558
0111724631999991973011803004+38117-102600SAO  +11034LJ  V0202701N001510750019N0240001N1+00551+00051100411ADDGD12991+0105099GD22991+0270099GD33991+0750099GF107991999051999999051081MD1210241+9999MW1001REMAWY008224 1558
0061724631999991973011806004+38117-102600SAO  +11034LJ  V0202601N00301010501EN0240001N1+00501+00001100541ADDGD14991+0105099GF108991999999999999999999MW1001REMAWY00253
0050724631999991973011809004+38117-102600SAO  +11034LJ  V0202901N00251010501EN0240001N1+00221-00111100801ADDGD14991+0105099GF108991999999999999999999MW1001
0097724631999991973011812004+38117-102600SAO  +11034LJ  V0202601N00201010501EN0240001N1+00381+00001101081ADDGD13991+0105099GF107991999999999999999999KA1999N+00161MD1510001+9999MW1001REMAWY011224/ 500 35
0081724631999991973011815004+38117-102600SAO  +11034LJ  V0202301N00151010501EN0240001N1+00331+00001101511ADDGD13991+0105099GF107991999051999999001001MD1210341+9999MW1001REMAWY008234 1500
0097724631999991973011818004+38117-102600SAO  +11034LJ  V0202801N004112200019N0240001N1+00771+00051101681ADDGD12991+0120099GF102991999051999999001001KA1999N+00161MD1110191+9999MW1001REMAWY011119 1500 35
0061724631999991973011821004+38117-102600SAO  +11034LJ  V0202801N002012200019N0240001N1+01001+00051101491ADDGF100991999999999999999999MD1710171+9999MW1001REMAWY003717
0097724631999991973011900004+38117-102600SAO  +11034LJ  V0202001N001512200019N0240001N1+00831+00001101551ADDGD12991+0750099GF102991999001999999001081KA1999M+01051MD1110051+9999MW1001REMAWY011105 1008 51
0061724631999991973011903004+38117-102600SAO  +11034LJ  V0202101N001512200019N0240001N1+00161-00051101591ADDGF100991999999999999999999MD1610031+9999MW1001REMAWY003603
0077724631999991973011906004+38117-102600SAO  +11034LJ  V0202601N001512200019N0240001N1+00111-00161101421ADDGF100991999999999999999999KA1999M+01051MD1710121+9999MW1001REMAWY006712 51
0077724631999991973011912004+38117-102600SAO  +11034LJ  V0201601N002012200019N0240001N1-00381-00611100971ADDGF100991999999999999999999KA1999N-00451MD1710201+9999MW1001REMAWY006720 24
0076724631999991973011915004+38117-102600SAO  +11034LJ  V0202101N001512200019N0240001N1-00221-00381100941ADDGD12991+0750099GF102991999999999999999999MD1610071+9999MW1001REMAWY003607
0097724631999991973011918004+38117-102600SAO  +11034LJ  V0201901N001512200019N0240001N1+01001-00441100661ADDGD12991+0750099GF102991999001999999001081KA1999N-00451MD1710121+9999MW1001REMAWY011712 1008 24
0096724631999991973011921004+38117-102600SAO  +11034LJ  V0201501N003010270019N0240001N1+01551+00051099951ADDGD12991+0150099GD23991+0270099GF107991999051999999051001MD1710581+9999MW1001REMAWY008758 1550
0084724631999991973011923004+38117-102600SAO  +11034LJ  V0202601N002012200019N0240001N1+00611+00001099781ADDGD12991+0270099GF102991999001999999051001MD1110071+9999MW1001REMAWY011107 1050 60
0081724631999991973012000004+38117-102600SAO  +11034LJ  V0201001N002010270019N0240001N1+01221+00161099811ADDGD12991+0150099GD23991+0270099GF107991999999999999999999MW1001REMAWY0071550 60
0116724631999991973012003004+38117-102600SAO  +11034LJ  V0201601N002012200019N0240001N1+00661-00111099871ADDGD12991+0270099GF102991999001999999091001MD1210061+9999MW1001REMAWY008800 1090EQDQ01+000082APCTENQ02+000002APC3  
0061724631999991973012009004+38117-102600SAO  +11034LJ  V0202401N002012200019N0240001N1+00271-00221099761ADDGF100991999999999999999999MD1410001+9999MW1001REMAWY003400
0070724631999991973012012004+38117-102600SAO  +11034LJ  V0203401N00251009001EN0240001N1+00161-00111099901ADDGD14991+0090099GF108991999999999999999999MW1001REMAWY011307 15// 33
0050724631999991973012015004+38117-102600SAO  +11034LJ  V0203501N00301009001EN0240001N1+00161+00001100191ADDGD14991+0090099GF108991999999999999999999MW1001
0061724631999991973012018004+38117-102600SAO  +11034LJ  V0203401N00201009001EN0240001N1+00161+00001100361ADDGD14991+0090099GF108991999999999999999999MW1001REMAWY00233
0050724631999991973012021004+38117-102600SAO  +11034LJ  V0203101N00251007501EN0240001N1+00161-00221100341ADDGD14991+0075099GF108991999999999999999999MW1001
0061724631999991973012100004+38117-102600SAO  +11034LJ  V0200101N00201007501EN0160001N1+00161-00221100561ADDGD14991+0075099GF108991999999999999999999MW1701REMAWY00236
0044724631999991973012103004+38117-102600SAO  +11034LJ  V0200301N00511007501EN0112001N1-00051-00331100661ADDGD14991+0075099GF108991999999999999999999
0061724631999991973012106004+38117-102600SAO  +11034LJ  V0202801N00251009001EN0240001N1-00111-00271100541ADDGD14991+0090099GF108991999999999999999999MW1001REMAWY00236
0097724631999991973012112004+38117-102600SAO  +11034LJ  V0203101N00461010501EN0240001N1-00161-00441100281ADDGD13991+0105099GF107991999051999999001001KA1999N-00231MD1810201+9999MW1001REMAWY011820 1500 28
0050724631999991973012115004+38117-102600SAO  +11034LJ  V0209999999999010501EN0240001N1-00161-00331100321ADDGD13991+0105099GF107991999999999999999999MW1001
0092724631999991973012118004+38117-102600SAO  +11034LJ  V0203401N005612200019N0240001N1+00161-00271100301ADDGD12991+0750099GF102991999999999999999999KA1999N-00231MD1410001+9999MW1001REMAWY006400 28
0076724631999991973012121004+38117-102600SAO  +11034LJ  V0203301N00461015001EN0240001N1+00331-00271100061ADDGD13991+0150099GF107991999999999999999999MD1610191+9999MW1001REMAWY003  9
0097724631999991973012200004+38117-102600SAO  +11034LJ  V0200501N004112200019N0240001N1+00221-00551100171ADDGD12991+0750099GF102991999001999999001081KA1999M+00331MD1010101+9999MW1001REMAWY011010 1008 38
0061724631999991973012203004+38117-102600SAO  +11034LJ  V0202801N003612200019N0240001N1+00001-00161100481ADDGF100991999999999999999999MD1210221+9999MW1001REMAWY003222
0097724631999991973012206004+38117-102600SAO  +11034LJ  V0203201N003012200019N0240001N1+00051-00501100661ADDGD12991+0750099GF102991999001999999001081KA1999M+00331MD1210201+9999MW1001REMAWY011220 1008 38
0081724631999991973012209004+38117-102600SAO  +11034LJ  V0202301N004612200019N0240001N1-00051-00221100831ADDGD12991+0750099GF102991999001999999001081MD1210171+9999MW1001REMAWY008217 1008
0097724631999991973012212004+38117-102600SAO  +11034LJ  V0203001N004112200019N0240001N1-00051-00271100921ADDGD12991+0750099GF102991999001999999001081KA1999N-00171MD1210071+9999MW1001REMAWY011207 1008 29
0104724631999991973012215004+38117-102600SAO  +11034LJ  V0202901N00461015001EN0240001N1-00051-00221101241ADDGD13991+0150099GD23991+0750099GF107991999051999999001081MD1210251+9999MW1001OC101021REMAWY008225 1508
0069724631999991973012218004+38117-102600SAO  +11034LJ  V0203301N00361013501EN0240001N1+00161-00271101601ADDGD14991+0135099GF108991999999999999999999MW1001OC101021REMAWY00229
0135724631999991973012300004+38117-102600SAO  +11034LJ  V0203501N005110750019N0240001N1+00111-00161102031ADDGD12991+0135099GD22991+0270099GD33991+0750099GF107991999051999999051081KA1999M+00331MD1210321+9999MW1001OC101281REMAWY011232 1558 38
0061724631999991973012303004+38117-102600SAO  +11034LJ  V0203001N002512200019N0240001N1-00111-00271102351ADDGF100991999999999999999999MD1210251+9999MW1001REMAWY003225
0077724631999991973012306004+38117-102600SAO  +11034LJ  V0202601N002012200019N0240001N1-00331-00941102401ADDGF100991999999999999999999KA1999M+00331MD1110051+9999MW1001REMAWY006105 38
0061724631999991973012309004+38117-102600SAO  +11034LJ  V0202401N004112200019N0240001N1-00381-00831102421ADDGF100991999999999999999999MD1110021+9999MW1001REMAWY003102
0061724631999991973012315004+38117-102600SAO  +11034LJ  V0202701N004612200019N0240001N1-00661-00881102541ADDGF100991999999999999999999MD1110101+9999MW1001REMAWY003110
0083724631999991973012318004+38117-102600SAO  +11034LJ  V0202401N005112200019N0240001N1+00161-00331102421ADDGF100991999999999999001001MD1810021+9999MW1001REMAWY006802 17EQDQ01    073SCOLCG
0035724631999991973012321004+38117-102600SAO  +11034LJ  V0202901N002512200019N0240001N1+00721+00221102091ADDGF100991999999999999999999MW1001
0077724631999991973012400004+38117-102600SAO  +11034LJ  V0202001N002012200019N0240001N1+00611-00331102111ADDGF100991999999999999999999KA1999M+00721MD1610021+9999MW1001REMAWY006602 45
0061724631999991973012403004+38117-102600SAO  +11034LJ  V0202401N003012200019N0240001N1+00051-00381102331ADDGF100991999999999999999999MD1110141+9999MW1001REMAWY003114
0077724631999991973012406004+38117-102600SAO  +11034LJ  V0202601N002512200019N0240001N1-00111-00271102291ADDGF100991999999999999999999KA1999M+00721MD1210031+9999MW1001REMAWY006203 45
0061724631999991973012409004+38117-102600SAO  +11034LJ  V0202901N002512200019N0240001N1-00161-00331102281ADDGF100991999999999999999999MD1110051+9999MW1001REMAWY003105
0077724631999991973012412004+38117-102600SAO  +11034LJ  V0202601N002012200019N0240001N1-00221-00441102351ADDGF100991999999999999999999KA1999N-00341MD1310051+9999MW1001REMAWY006305 26
0035724631999991973012415004+38117-102600SAO  +11034LJ  V0202801N003012200019N0240001N1-00111-00271102461ADDGF100991999999999999999999MW1001
0061724631999991973012418004+38117-102600SAO  +11034LJ  V0202501N003612200019N0240001N1+00551-00331102461ADDGF100991999999999999999999MA1101761999999MW1001REMAWY00226
0061724631999991973012421004+38117-102600SAO  +11034LJ  V0201601N003612200019N0240001N1+01161+00111102061ADDGF100991999999999999999999MD1710271+9999MW1001REMAWY003727
0077724631999991973012500004+38117-102600SAO  +11034LJ  V0202001N001512200019N0240001N1+00941+00051101971ADDGF100991999999999999999999KA1999M+01161MD1610101+9999MW1001REMAWY006  0 53
0047724631999991973012503004+38117-102600SAO  +11034LJ  V0201401N001512200019N0240001N1+00051-00161102181ADDGF100991999999999999999999MW1001REMAWY003208
0077724631999991973012512004+38117-102600SAO  +11034LJ  V0201801N001512200019N0240001N1-00331-00501101821ADDGF100991999999999999999999KA1999N-00451MD1610071+9999MW1001REMAWY006607 24
0061724631999991973012515004+38117-102600SAO  +11034LJ  V0202501N001512200019N0240001N1-00381-00501101961ADDGF100991999999999999999999MD1410001+9999MW1001REMAWY003400
0081724631999991973012521004+38117-102600SAO  +11034LJ  V0203601N001512200019N0240001N1+01161-00221101341ADDGD12991+0750099GF102991999001999999001081MD1710391+9999MW1001REMAWY008739 1008
0077724631999991973012600004+38117-102600SAO  +11034LJ  V0201501N002012200019N0240001N1+01221+00001101141ADDGF100991999999999999999999KA1999M+01271MD1610101+9999MW1001REMAWY006  0 55
0061724631999991973012603004+38117-102600SAO  +11034LJ  V0201501N004112200019N0240001N1+00501-00221101301ADDGF100991999999999999999999MD1110051+9999MW1001REMAWY003105
0077724631999991973012606004+38117-102600SAO  +11034LJ  V0201001N001512200019N0240001N1+00331-00381101191ADDGF100991999999999999999999KA1999M+01271MD1310021+9999MW1001REMAWY006302 55
0061724631999991973012609004+38117-102600SAO  +11034LJ  V0200501N001512200019N0240001N1-00111-00501100991ADDGF100991999999999999999999MD1610171+9999MW1001REMAWY003  7
0077724631999991973012612004+38117-102600SAO  +11034LJ  V0201301N002012200019N0240001N1-00161-00271100901ADDGF100991999999999999999999KA1999N-00231MD1610071+9999MW1001REMAWY006607 28
0081724631999991973012615004+38117-102600SAO  +11034LJ  V0201301N00251013501EN0240001N1-00161-00221101031ADDGD13991+0135099GF107991999051999999001001MD1410001+9999MW1001REMAWY008400 1500
0068724631999991973012618004+38117-102600SAO  +11034LJ  V0201201N00461010501EN0240001N1+00221+00001100911ADDGD14991+0105099GF108991999999999999999999MW1001REMAWY009/ 15// 26
0065724631999991973012621004+38117-102600SAO  +11034LJ  V0201401N00511010501EN0240001N1+00381-00051100671ADDGD14991+0105099GF108991999999999999999999MW1001REMAWY006/ 15//
0143724631999991973012700004+38117-102600SAO  +11034LJ  V0201101N00201007501EN0048001N1+00271+00161100701ADDAA106999999GD14991+0075099GF108991999051999999001001KA1999M+00381MD1410001+9999MW1531REMAWY01140000 15 39EQDQ01  00003PRCP99Q02  00002PRCP06
0050724631999991973012703004+38117-102600SAO  +11034LJ  V0201401N00151007501EN0112001N1+00271+00051100811ADDGD14991+0075099GF108991999999999999999999MW1501
0127724631999991973012706004+38117-102600SAO  +11034LJ  V0200901N00151007501EN0080001N1+00221+00111100831ADDAA106000591GD14991+0075099GF108991999999999999999999MD1210021+9999MW1501REMAWY00839 20002EQDQ01+000002APC3  Q02  00053PRCP99
0050724631999991973012709004+38117-102600SAO  +11034LJ  V0200101N00251009001EN0240001N1-00111-00161100851ADDGD14991+0090099GF108991999999999999999999MW1001
0164724631999991973012712004+38117-102600SAO  +11034LJ  V0203501N00771009001EN0004001N1-00161-00221101201ADDAA106004091GD13991+0090099GF107991999999999999999999MD1210351+9999MW1381MW2731OC101801REMAWY03190102 90401      ?     27 20016EQDQ01+000002APC3  Q02  00403PRCP99
0064724631999991973012715004+38117-102600SAO  +11034LJ  V0203401N00511009001EN0008001N1-00331-00501101851ADDGD13991+0090099GF107991999999999999999999MW1381MW2731OC101541
0078724631999991973012718004+38117-102600SAO  +11034LJ  V0203101N00721009001EN0032001N1+99999+99999102391ADDGD14991+0090099GF108991999999999999999999MW1381MW2711OC101281REMAWY00590401
0087724631999991973012721004+38117-102600SAO  +11034LJ  V0202201N99999009001EN0064001N1+99999+99999999999ADDGD14991+0090099GF108991999999999999999999MW1381REMAWY009224/ 15//EQDQ01+003803WOSPD 
0152724631999991973012800004+38117-102600SAO  +11034LJ  V0203401N00461009001EN0064001N1-00501-00771103281ADDAA106004091AJ100039199999999GD14991+0090099GF108991999999999999999999MW1381REMAWY01429 20016 90401EQDQ01+000022APCTENQ02+000002APC3  Q03  00403PRCP99
0058724631999991973012803004+38117-102600SAO  +11034LJ  V0203301N00511009001EN0112001N1-00551-00941103661ADDGD14991+0090099GF108991999999999999999999MW1001OC101131
0137724631999991973012806004+38117-102600SAO  +11034LJ  V0203401N00511010501EN0240001N1-00611-00771103801ADDAA106000091GD13991+0105099GF107991999051999999001001KA1999M+00221MD1210121+9999MW1001OC101021REMAWY01321200 1500 36EQDQ01  00003PRCP99
0061724631999991973012809004+38117-102600SAO  +11034LJ  V0200201N002012200019N0240001N1-00771-01001103811ADDGF100991999999999999999999MD1810031+9999MW1001REMAWY003803
0100724631999991973012812004+38117-102600SAO  +11034LJ  V0202901N001512200019N0240001N1-01051-01331103781ADDAJ100039199999999GF100991999999999999999999KA1999N-01121MD1610081+9999MW1001REMAWY012608 90401 12
0061724631999991973012815004+38117-102600SAO  +11034LJ  V0202601N002512200019N0240001N1-01051-01271103891ADDGF100991999999999999999999MD1110101+9999MW1001REMAWY003110
0051724631999991973012818004+38117-102600SAO  +11034LJ  V0203001N003012200019N0240001N1-00501-01111103781ADDGF100991999999999999999999MW1001REMAWY007602/ 12
0035724631999991973012821004+38117-102600SAO  +11034LJ  V0202601N003012200019N0240001N1-00111-00881103301ADDGF100991999999999999999999MW1001
0077724631999991973012900004+38117-102600SAO  +11034LJ  V0202101N001512200019N0240001N1-00161-00881103141ADDGF100991999999999999999999KA1999M+00001MD1610191+9999MW1001REMAWY006  9 32
0061724631999991973012903004+38117-102600SAO  +11034LJ  V0201701N001512200019N0240001N1-00611-00831103071ADDGF100991999999999999999999MD1610121+9999MW1001REMAWY003  2
0077724631999991973012906004+38117-102600SAO  +11034LJ  V0202301N001512200019N0240001N1-00551-00831102771ADDGF100991999999999999999999KA1999M+00001MD1610171+9999MW1001REMAWY006  7 32
0083724631999991973012912004+38117-102600SAO  +11034LJ  V0202201N001512200019N0240001N1-00771-01001102541ADDGF100991999999999999001001MD1710101+9999MW1001REMAWY006710 16EQDQ01    063SCOLCG
0061724631999991973012915004+38117-102600SAO  +11034LJ  V0202601N003612200019N0240001N1-00661-00831102611ADDGF100991999999999999999999MD1110031+9999MW1001REMAWY003103
0112724631999991973012918004+38117-102600SAO  +11034LJ  V0202301N00251027001EN0240001N1+00331-00381102401ADDGD13991+0270099GD23991+0750099GF107991999001999999051081KA1999N-00891MD1810031+9999MW1001REMAWY011803 1058 16
0096724631999991973012921004+38117-102600SAO  +11034LJ  V0202801N002010750019N0240001N1+00831-00051101931ADDGD12991+0150099GD23991+0750099GF107991999051999999001081MD1710361+9999MW1001REMAWY008736 1508
0127724631999991973013000004+38117-102600SAO  +11034LJ  V0201301N001510270019N0240001N1+00721+00161101701ADDGD12991+0150099GD23991+0270099GD33991+0750099GF107991999051999999051081KA1999M+01001MD1710241+9999MW1001REMAWY011724 1558 50
0061724631999991973013003004+38117-102600SAO  +11034LJ  V0202001N001512200019N0240001N1+00221-00221101521ADDGF100991999999999999999999MD1710221+9999MW1001REMAWY003722
0077724631999991973013006004+38117-102600SAO  +11034LJ  V0202401N002012200019N0240001N1+00001-00331101201ADDGF100991999999999999999999KA1999M+01001MD1610191+9999MW1001REMAWY006  9 50
0061724631999991973013009004+38117-102600SAO  +11034LJ  V0202401N001512200019N0240001N1-00161-00271100871ADDGF100991999999999999999999MD1610241+9999MW1001REMAWY003  4
0077724631999991973013012004+38117-102600SAO  +11034LJ  V0202101N001512200019N0240001N1-00271-00441100731ADDGF100991999999999999999999KA1999N-00391MD1710151+9999MW1001REMAWY006715 25
0061724631999991973013015004+38117-102600SAO  +11034LJ  V0202801N005112200019N0240001N1-00111-00501100701ADDGF100991999999999999999999MD1510071+9999MW1001REMAWY003507
0097724631999991973013018004+38117-102600SAO  +11034LJ  V0202701N004612200019N0240001N1+00831-00441100591ADDGD12991+0750093GF102991999001999999001081KA1999N-00391MD1410001+9999MW1001REMAWY011400 1008 25
0111724631999991973013021004+38117-102600SAO  +11034LJ  V0202201N002510270019N0240001N1+01441-00161100241ADDGD12991+0150099GD23991+0270099GD33991+0750099GF107991999051999999051081MD1710271+9999MW1001REMAWY008727 1558
0097724631999991973013100004+38117-102600SAO  +11034LJ  V0201801N00151012001EN0240001N1+01221-00221100241ADDGD13991+0120099GF107991999051999999001001KA1999M+01501MD1510031+9999MW1001REMAWY011503 1500 59
0096724631999991973013103004+38117-102600SAO  +11034LJ  V0200901N00151012001EN0240001N1+00381-00111100361ADDGD13991+0120099GD23991+0750099GF107991999051999999001081MD1110031+9999MW1001REMAWY008103 1508
0096724631999991973013106004+38117-102600SAO  +11034LJ  V0202501N002010750019N0240001N1+00221-00271100151ADDGD12991+0120099GD23991+0750099GF107991999051999999001081MD1610081+9999MW1001REMAWY008608 1508
0078724631999991973013109004+38117-102600SAO  +11034LJ  V0202901N002010750019N0240001N1+00111-00221099951ADDGD12991+0120099GD23991+0750099GF107991999999999999999999MW1001REMAWY0041508
0048724631999991973013112004+38117-102600SAO  +11034LJ  V0202301N001512200019N0240001N1-00111-00271099851ADDGF100991999999999999999999MW1001REMAWY004/ 29
0080724631999991973013115004+38117-102600SAO  +11034LJ  V0203401N00201010501EN0240001N1+00051-00271100111ADDGD14991+0105099GF108991999999999999999999MA1102071999999MW1001REMAWY006/ 15//
0061724631999991973013118004+38117-102600SAO  +11034LJ  V0200201N00251009001EN0240001N1+00381-00271100091ADDGD14991+0090099GF108991999999999999999999MW1001REMAWY00228
0050724631999991973013121004+38117-102600SAO  +11034LJ  V0201101N00201009001EN0080001N1+00441-00221100661ADDGD14991+0090099GF108991999999999999999999MW1701
0143724631999991973020100004+38117-102600SAO  +11034LJ  V0203601N00461009001EN0048001N1+00001-00111100361ADDAA106000591GD14991+0090099GF108991999999999999999999MD1710301+9999MW1851REMAWY00840 20002EQDQ01+000022APCTENQ02+000002APC3  Q03  00053PRCP99
0050724631999991973020103004+38117-102600SAO  +11034LJ  V0203301N00301009001EN0240001N1+00221-00111100491ADDGD14991+0090099GF108991999999999999999999MW1001
0124724631999991973020106004+38117-102600SAO  +11034LJ  V0200401N00411010501EN0240001N1+00271-00271100591ADDAA106000591GD14991+0105099GF108991999999999999999999MD1210101+9999MW1001REMAWY00520002EQDQ01+000002APC3  Q02  00053PRCP99
0077724631999991973020112004+38117-102600SAO  +11034LJ  V0203401N00461010501EN0240001N1+00221-00271100881ADDGD14991+0105099GF108991999999999999999999MW1001REMAWY018217/ 15// 34 20///
0097724631999991973020115004+38117-102600SAO  +11034LJ  V0202901N004110270019N0240001N1+00051-00381101211ADDGD12991+0120099GD23991+0270099GD34991+0750099GF108991999999999999999999MW1001REMAWY008229 1558
0120724631999991973020118004+38117-102600SAO  +11034LJ  V0200301N00511027001EN0240001N1+00551-00611101401ADDGD13991+0270099GD23991+0750099GF107991999001999999051081KA1999N+00001MD1210241+9999MW1001OC100971REMAWY011224 1058 32
0081724631999991973020121004+38117-102600SAO  +11034LJ  V0203101N00511075001EN0240001N1+00661-00501101411ADDGD13991+0750099GF107991999001999999001081MD1410001+9999MW1001REMAWY008400 1008
0051724631999991973020212004+38117-102600SAO  +11034LJ  V0202501N003012200019N0240001N1-00331-00611102231ADDGF100991999999999999999999MW1001REMAWY007303/ 25
0061724631999991973020215004+38117-102600SAO  +11034LJ  V0202601N002012200019N0240001N1-00381-00611102511ADDGF100991999999999999999999MD1210171+9999MW1001REMAWY003217
0077724631999991973020218004+38117-102600SAO  +11034LJ  V0203201N005112200019N0240001N1+00501-00501102431ADDGF100991999999999999999999KA1999N-00451MD1010051+9999MW1001REMAWY006005 24
0061724631999991973020221004+38117-102600SAO  +11034LJ  V0202601N005112200019N0240001N1+00881-00221102141ADDGF100991999999999999999999MD1710221+9999MW1001REMAWY003722
0077724631999991973020300004+38117-102600SAO  +11034LJ  V0202901N002512200019N0240001N1+00771-00551102161ADDGF100991999999999999999999KA1999M+00881MD1610031+9999MW1001REMAWY006603 48
0061724631999991973020303004+38117-102600SAO  +11034LJ  V0202101N001512200019N0240001N1+00001-00501102381ADDGF100991999999999999999999MD1110071+9999MW1001REMAWY003107
0077724631999991973020306004+38117-102600SAO  +11034LJ  V0202401N002012200019N0240001N1-00161-00611102301ADDGF100991999999999999999999KA1999M+00881MD1210031+9999MW1001REMAWY006203 48
0061724631999991973020309004+38117-102600SAO  +11034LJ  V0202401N001512200019N0240001N1-00221-00381102221ADDGF100991999999999999999999MD1610031+9999MW1001REMAWY003603
0084724631999991973020312004+38117-102600SAO  +11034LJ  V0202701N002012200019N0240001N1-00551-00661102191ADDGF100991999999999999999999KA1999N-00561MD1610071+9999MW1001REMAWY013270JRX YPU WL
0035724631999991973020315004+38117-102600SAO  +11034LJ  V0202301N002012200019N0240001N1-00441-00611102281ADDGF100991999999999999999999MW1001
0077724631999991973020318004+38117-102600SAO  +11034LJ  V0202701N003012200019N0240001N1+00501-00381102031ADDGF100991999999999999999999KA1999N-00561MD1710121+9999MW1001REMAWY006712 22
0096724631999991973020321004+38117-102600SAO  +11034LJ  V0202101N002010270019N0240001N1+01111-00611101521ADDGD12991+0150099GD23991+0270099GF107991999051999999051001MD1710371+9999MW1001REMAWY008737 1550
0097724631999991973020400004+38117-102600SAO  +11034LJ  V0201401N00251009001EN0240001N1+00831+00111101421ADDGD13991+0090099GF107991999051999999001001KA1999M+01331MD1710151+9999MW1001REMAWY011715 1500 56
0061724631999991973020403004+38117-102600SAO  +11034LJ  V0203201N001512200019N0240001N1+00111-00051101381ADDGF100991999999999999999999MD1710121+9999MW1001REMAWY003712
0077724631999991973020406004+38117-102600SAO  +11034LJ  V0202301N002512200019N0240001N1+00051-00161101171ADDGF100991999999999999999999KA1999M+01331MD1610071+9999MW1001REMAWY006607 56
0047724631999991973020409004+38117-102600SAO  +11034LJ  V0203101N001512200019N0240001N1-00051-00221101101ADDGF100991999999999999999999MW1001REMAWY003500
0050724631999991973020412004+38117-102600SAO  +11034LJ  V0202601N003612200019N0240001N1+00221-00441101281ADDGF100991999999999999999999MW1001REMAWY006215/29
0047724631999991973020415004+38117-102600SAO  +11034LJ  V0202601N001512200019N0240001N1-00051-00331101671ADDGF100991999999999999999999MW1001REMAWY003222
0077724631999991973020418004+38117-102600SAO  +11034LJ  V0202701N002512200019N0240001N1+01221+00111101601ADDGF100991999999999999999999KA1999N-00171MD1210101+9999MW1001REMAWY006210 29
0061724631999991973020421004+38117-102600SAO  +11034LJ  V0202401N004112200019N0240001N1+01771-00221101261ADDGF100991999999999999999999MD1710251+9999MW1001REMAWY003725
0097724631999991973020500004+38117-102600SAO  +11034LJ  V0201701N00301075001EN0240001N1+01441+00221101261ADDGD13991+0750099GF107991999001999999001081KA1999M+01771MD1510001+9999MW1001REMAWY011500 1008 64
0061724631999991973020503004+38117-102600SAO  +11034LJ  V0201601N002012200019N0240001N1+00551+00051101491ADDGF100991999999999999999999MD1110031+9999MW1001REMAWY003103
0077724631999991973020506004+38117-102600SAO  +11034LJ  V0202601N001512200019N0240001N1+00381-00051101411ADDGF100991999999999999999999KA1999M+01771MD1110081+9999MW1001REMAWY006108 64
0061724631999991973020509004+38117-102600SAO  +11034LJ  V0201801N001512200019N0240001N1+00111+00001101391ADDGF100991999999999999999999MD1610071+9999MW1001REMAWY003607
0077724631999991973020512004+38117-102600SAO  +11034LJ  V0202801N002512200019N0240001N1+00111-00221101361ADDGF100991999999999999999999KA1999N-00121MD1310021+9999MW1001REMAWY006302 30
0081724631999991973020515004+38117-102600SAO  +11034LJ  V0202601N003012200019N0240001N1-00111-00271101691ADDGD12991+0270099GF102991999001999999051001MD1210141+9999MW1001REMAWY008214 1050
0077724631999991973020518004+38117-102600SAO  +11034LJ  V0203001N003012200019N0240001N1+00881-00111101821ADDGF100991999999999999999999KA1999N-00231MD1210241+9999MW1001REMAWY006224 28
0061724631999991973020521004+38117-102600SAO  +11034LJ  V0200301N005112200019N0240001N1+01501+00111101741ADDGF100991999999999999999999MD1610051+9999MW1001REMAWY003605
0077724631999991973020600004+38117-102600SAO  +11034LJ  V0203101N002512200019N0240001N1+01161-00051101941ADDGF100991999999999999999999KA1999M+01501MD1210141+9999MW1001REMAWY006214 59
0061724631999991973020603004+38117-102600SAO  +11034LJ  V0201301N001512200019N0240001N1+00271-00051102261ADDGF100991999999999999999999MD1110171+9999MW1001REMAWY003117
0063724631999991973020606004+38117-102600SAO  +11034LJ  V0200901N001512200019N0240001N1+00161-00111102241ADDGF100991999999999999999999MA1105321999999MW1001REMAWY004/ 59
0061724631999991973020609004+38117-102600SAO  +11034LJ  V0202601N001512200019N0240001N1-00051-00271102171ADDGF100991999999999999999999MD1610031+9999MW1001REMAWY003603
0077724631999991973020612004+38117-102600SAO  +11034LJ  V0200801N001512200019N0240001N1-00161-00331102191ADDGF100991999999999999999999KA1999N-00231MD1410001+9999MW1001REMAWY006400 28
0050724631999991973020615004+38117-102600SAO  +11034LJ  V0201201N00251013501EN0016001N1-00221-00381102331ADDGD14991+0135099GF108991999999999999999999MW1111
0061724631999991973020618004+38117-102600SAO  +11034LJ  V0200601N00301013501EN0240001N1+00161-00271102221ADDGD14991+0135099GF108991999999999999999999MW1001REMAWY00225
0050724631999991973020621004+38117-102600SAO  +11034LJ  V0201401N00301009001EN0240001N1+00161+00001101901ADDGD14991+0090099GF108991999999999999999999MW1001
0061724631999991973020700004+38117-102600SAO  +11034LJ  V0200701N00411007501EN0016001N1+00111+00001101911ADDGD14991+0075099GF108991999999999999999999MW1111REMAWY00236
0082724631999991973020703004+38117-102600SAO  +11034LJ  V0200501N00411002701WN0004001N1+00111+00001101911ADDGD15991+0027099GF109991999999999999999999MD1410001+9999MW1451MW2531REMAWY003400
0061724631999991973020706004+38117-102600SAO  +11034LJ  V0201101N00251006001EN0008001N1+00001+99999101921ADDGD14991+0060099GF108991999999999999999999MW1531REMAWY00236
0133724631999991973020712004+38117-102600SAO  +11034LJ  V0200601N00301009001EN0080001N1-00221+99999102241ADDAA106999999GD14991+0090099GF108991999999999999999999MD1110101+9999MW1531REMAWY01411000 15/// 27EQDQ01  00003PRCP99Q02  00002PRCP06
0063724631999991973020715004+38117-102600SAO  +11034LJ  V0200501N00361009001EN0112001N1-00331-00381102511ADDGD14991+0090099GF108991999999999999999999EQDQ01+000502PRSWM2
0050724631999991973020721004+38117-102600SAO  +11034LJ  V0200301N00201009001EN0112001N1-00501-00721102701ADDGD14991+0090099GF108991999999999999999999MW1701
0080724631999991973020803004+38117-102600SAO  +11034LJ  V0203401N00511009001EN0240001N1-00661-01051103321ADDGD14991+0090099GF108991999999999999999999MA1105961999999MW1001REMAWY006/ 15//
0083724631999991973020806004+38117-102600SAO  +11034LJ  V0203001N00251009001EN0240001N1+99999+99999103501ADDGD14991+0090099GF108991999999999999999999MA1105451999999MW1001REMAWY009/ 15// 33
0050724631999991973020809004+38117-102600SAO  +11034LJ  V0203601N00411010501EN0240001N1-00881-01111103501ADDGD14991+0105099GF108991999999999999999999MW1001
0081724631999991973020815004+38117-102600SAO  +11034LJ  V0203301N001512200019N0240001N1-00881-01271103601ADDGD12991+0750099GF102991999001999999001081MD1110031+9999MW1001REMAWY008103 1008
0097724631999991973020818004+38117-102600SAO  +11034LJ  V0203201N00201220001EN0240001N1-00501-01221103501ADDGD13991+0750093GF107991999001999999001081KA1999N-01061MD1610031+9999MW1001REMAWY011603 1008 13
0081724631999991973020821004+38117-102600SAO  +11034LJ  V0202901N002012200019N0240001N1-00111-00551103151ADDGD12991+0750093GF102991999001999999001081MD1710291+9999MW1001REMAWY008729 1008
0097724631999991973020900004+38117-102600SAO  +11034LJ  V0200401N001512200019N0240001N1-00111-00331103041ADDGD12991+0750093GF102991999001999999001081KA1999M-00061MD1610121+9999MW1001REMAWY011  2 1008 31
0035724631999991973020903004+38117-102600SAO  +11034LJ  V0202001N001512200019N0240001N1-00441-00831103121ADDGF100991999999999999999999MW1001
0077724631999991973020906004+38117-102600SAO  +11034LJ  V0203601N001512200019N0240001N1-00551-01051103001ADDGF100991999999999999999999KA1999M-00061MD1710051+9999MW1001REMAWY006705 31
0061724631999991973020909004+38117-102600SAO  +11034LJ  V0202701N002012200019N0240001N1-00661-00881102901ADDGF100991999999999999999999MD1710071+9999MW1001REMAWY003707
0083724631999991973020918004+38117-102600SAO  +11034LJ  V0202001N002012200019N0240001N1+00001-00501102621ADDGF100991999999999999001001MD1710051+9999MW1001REMAWY006705 13EQDQ01    033SCOLCG
0061724631999991973020921004+38117-102600SAO  +11034LJ  V0201801N001512200019N0240001N1+00611-00501102201ADDGF100991999999999999999999MD1710291+9999MW1001REMAWY003729
0077724631999991973021000004+38117-102600SAO  +11034LJ  V0201701N002512200019N0240001N1+00441-00381102061ADDGF100991999999999999999999KA1999M+00611MD1710191+9999MW1001REMAWY006719 43
0061724631999991973021003004+38117-102600SAO  +11034LJ  V0201401N002012200019N0240001N1-00111-00611102041ADDGF100991999999999999999999MD1710101+9999MW1001REMAWY003710
0077724631999991973021006004+38117-102600SAO  +11034LJ  V0200801N002012200019N0240001N1-00111-00721101701ADDGF100991999999999999999999KA1999M+00611MD1710171+9999MW1001REMAWY006717 43
0061724631999991973021009004+38117-102600SAO  +11034LJ  V0201501N001512200019N0240001N1-00381-00551101561ADDGF100991999999999999999999MD1610071+9999MW1001REMAWY003607
0077724631999991973021012004+38117-102600SAO  +11034LJ  V0202601N003612200019N0240001N1-00501-00661101481ADDGF100991999999999999999999KA1999N-00671MD1610101+9999MW1001REMAWY006  0 20
0061724631999991973021015004+38117-102600SAO  +11034LJ  V0202401N002512200019N0240001N1-00611-00771101641ADDGF100991999999999999999999MD1310031+9999MW1001REMAWY003303
0077724631999991973021018004+38117-102600SAO  +11034LJ  V0202501N002512200019N0240001N1+00441-00721101501ADDGF100991999999999999999999KA1999N-00671MD1010001+9999MW1001REMAWY006000 20
0061724631999991973021021004+38117-102600SAO  +11034LJ  V0202101N002012200019N0240001N1+00881-00611101241ADDGF100991999999999999999999MD1710191+9999MW1001REMAWY003719
0077724631999991973021100004+38117-102600SAO  +11034LJ  V0201401N002012200019N0240001N1+00831+00111101191ADDGF100991999999999999999999KA1999M+01001MD1610071+9999MW1001REMAWY006607 50
0050724631999991973021103004+38117-102600SAO  +11034LJ  V0201601N002012200019N0240001N1+00271-00221101291ADDGF100991999999999999999999MA1101591999999MW1001
0077724631999991973021106004+38117-102600SAO  +11034LJ  V0200201N001512200019N0240001N1+00051-00381100991ADDGF100991999999999999999999KA1999M+01001MD1710151+9999MW1001REMAWY006715 50
0061724631999991973021109004+38117-102600SAO  +11034LJ  V0201301N001512200019N0240001N1-00161-00441100791ADDGF100991999999999999999999MD1710141+9999MW1001REMAWY003714
0077724631999991973021112004+38117-102600SAO  +11034LJ  V0202001N001512200019N0240001N1-00501-00661100741ADDGF100991999999999999999999KA1999N-00561MD1710101+9999MW1001REMAWY006710 22
0081724631999991973021115004+38117-102600SAO  +11034LJ  V0201701N00151015001EN0240001N1-00331-00551100831ADDGD13991+0150099GF107991999051999999001001MD1110031+9999MW1001REMAWY008103 1500
0127724631999991973021118004+38117-102600SAO  +11034LJ  V0202501N002510270019N0240001N1+00771-00051100661ADDGD12991+0150099GD23991+0270099GD33991+0750099GF107991999051999999051081KA1999N-00561MD1810031+9999MW1001REMAWY011803 1558 22
0061724631999991973021121004+38117-102600SAO  +11034LJ  V0201001N002012200019N0240001N1+01611-00051100241ADDGF100991999999999999999999MD1710301+9999MW1001REMAWY003730
0097724631999991973021200004+38117-102600SAO  +11034LJ  V0201701N003012200019N0240001N1+01331-00111100171ADDGD12991+0120099GF102991999051999999001001KA1999M+01661MD1610121+9999MW1001REMAWY011  2 1500 62
0096724631999991973021203004+38117-102600SAO  +11034LJ  V0201301N003010750019N0240001N1+00501+00001100161ADDGD12991+0120099GD23991+0750099GF107991999051999999001061MD1710101+9999MW1001REMAWY008710 1506
0112724631999991973021206004+38117-102600SAO  +11034LJ  V0201201N002010750019N0240001N1+00161+00001099911ADDGD12991+0120099GD23991+0750099GF107991999051999999001081KA1999M+01661MD1610121+9999MW1001REMAWY011  2 1508 62
0096724631999991973021209004+38117-102600SAO  +11034LJ  V0200901N00151012001EN0240001N1-00051-00381099661ADDGD13991+0120099GD23991+0750099GF107991999051999999001081MD1610151+9999MW1001REMAWY008  5 1508
0077724631999991973021212004+38117-102600SAO  +11034LJ  V0202601N002012200019N0240001N1-00111-00221099681ADDGF100991999999999999999999KA1999N-00171MD1610021+9999MW1001REMAWY006602 29
0111724631999991973021215004+38117-102600SAO  +11034LJ  V0202501N001510270019N0240001N1-00161-00221099941ADDGD12991+0120099GD23991+0270099GD33991+0750099GF107991999051999999051081MD1210101+9999MW1001REMAWY008210 1558
0127724631999991973021218004+38117-102600SAO  +11034LJ  V0202301N001510270019N0240001N1+00441-00051100031ADDGD12991+0120099GD23991+0270099GD33991+0750099GF107991999051999999051081KA1999N-00171MD1210121+9999MW1001REMAWY011212 1558 29
0111724631999991973021221004+38117-102600SAO  +11034LJ  V0203001N004610750019N0240001N1+01001+00221099911ADDGD12991+0120099GD22991+0270099GD33991+0750099GF107991999051999999051081MD1610051+9999MW1001REMAWY008605 1558
0112724631999991973021300004+38117-102600SAO  +11034LJ  V0200401N001512200019N0240001N1+00721+00161100201ADDGD12991+0120099GD22991+0270099GF102991999051999999051001KA1999M+01051MD1210201+9999MW1001REMAWY011220 1550 51
0096724631999991973021303004+38117-102600SAO  +11034LJ  V0200701N001510270019N0240001N1+00111-00111100651ADDGD12991+0120099GD23991+0270099GF107991999051999999051001MD1210321+9999MW1001REMAWY008232 1550
0112724631999991973021306004+38117-102600SAO  +11034LJ  V0201801N001510750019N0240001N1+00051-00051100901ADDGD12991+0120099GD23991+0750099GF107991999051999999001081KA1999M+01051MD1210291+9999MW1001REMAWY011229 1508 51
0096724631999991973021309004+38117-102600SAO  +11034LJ  V0200601N001510750019N0240001N1-00111-00221101011ADDGD12991+0120099GD23991+0750099GF107991999051999999001081MD1210141+9999MW1001REMAWY008214 1508
0061724631999991973021312004+38117-102600SAO  +11034LJ  V0203601N00361009001EN0240001N1+00161-00221101261ADDGD14991+0090099GF108991999999999999999999MW1001REMAWY00229
0081724631999991973021315004+38117-102600SAO  +11034LJ  V0203501N00561015001EN0240001N1+00001-00271101741ADDGD13991+0150099GF107991999051999999001001MD1210321+9999MW1001REMAWY008232 1500
0081724631999991973021321004+38117-102600SAO  +11034LJ  V0203501N003012200019N0240001N1+00381-00611101911ADDGD12991+0135099GF102991999051999999001001MD1710101+9999MW1001REMAWY008710 1500
0097724631999991973021400004+38117-102600SAO  +11034LJ  V0203001N005110135019N0240001N1+00051-00161102011ADDGD13991+0135099GF107991999051999999001001KA1999M+00381MD1210081+9999MW1001REMAWY011208 1500 39
0081724631999991973021403004+38117-102600SAO  +11034LJ  V0202801N00201013501EN0240001N1-00111-00331102231ADDGD13991+0135099GF107991999051999999001001MD1210151+9999MW1001REMAWY008215 1500
0097724631999991973021406004+38117-102600SAO  +11034LJ  V0203501N002012200019N0240001N1+00271-00611102371ADDGD12991+0135099GF102991999051999999001001KA1999M+00381MD1110121+9999MW1001REMAWY011112 1500 39
0115724631999991973021409004+38117-102600SAO  +11034LJ  V0203401N002010750019N0240001N1-00611-00831102461ADDGD12991+0135099GD23991+0750099GF107991999051999999001999MD1110051+9999MW1001REMAWY008105 1500EQDQ01    003SCOHCG
0061724631999991973021415004+38117-102600SAO  +11034LJ  V0202701N001512200019N0240001N1-00611-00881102521ADDGF100991999999999999999999MD1110071+9999MW1001REMAWY003107
0083724631999991973021418004+38117-102600SAO  +11034LJ  V0200601N002012200019N0240001N1-00051-00381102421ADDGF100991999999999999001001MD1610051+9999MW1001REMAWY006605 19EQDQ01    093SCOLCG
0061724631999991973021421004+38117-102600SAO  +11034LJ  V0202301N001512200019N0240001N1+00381-00661102141ADDGF100991999999999999999999MD1710221+9999MW1001REMAWY003722
0077724631999991973021500004+38117-102600SAO  +11034LJ  V0200101N002012200019N0240001N1+00271-00441102121ADDGF100991999999999999999999KA1999M+00381MD1510031+9999MW1001REMAWY006503 39
0061724631999991973021503004+38117-102600SAO  +11034LJ  V0200601N001512200019N0240001N1-00111-00221102411ADDGF100991999999999999999999MD1310191+9999MW1001REMAWY003319
0112724631999991973021506004+38117-102600SAO  +11034LJ  V0201901N002012200019N0240001N1-00331-00551102531ADDGD12991+0150099GD22991+0750099GF102991999051999999001081KA1999M+00381MD1110171+9999MW1001REMAWY011117 1508 39
0093724631999991973021509004+38117-102600SAO  +11034LJ  V0201601N001512200019N0240001N1-00551-00771102641ADDGD12991+0150099GD22991+0750099GF102991999999999999999999MA1105321999999MW1001REMAWY0041508
0083724631999991973021512004+38117-102600SAO  +11034LJ  V0201301N001512200019N0240001N1-00771-00941102621ADDGF100991999999999999001001MD1710051+9999MW1001REMAWY006705 17EQDQ01    073SCOLCG
0061724631999991973021515004+38117-102600SAO  +11034LJ  V0202501N001512200019N0240001N1-00661-00831102781ADDGF100991999999999999999999MD1310101+9999MW1001REMAWY003310
0063724631999991973021518004+38117-102600SAO  +11034LJ  V0202301N001512200019N0240001N1+00381-00611102661ADDGF100991999999999999999999MA1101692999999MW1001REMAWY004/ 16
0061724631999991973021521004+38117-102600SAO  +11034LJ  V0201901N001512200019N0240001N1+00881-00501102421ADDGF100991999999999999999999MD1710201+9999MW1001REMAWY003720
0061724631999991973021603004+38117-102600SAO  +11034LJ  V0201301N001512200019N0240001N1+00051-00611102551ADDGF100991999999999999999999MD1310081+9999MW1001REMAWY003308
0077724631999991973021606004+38117-102600SAO  +11034LJ  V0200401N002012200019N0240001N1-00161-00661102501ADDGF100991999999999999999999KA1999M+00941MD1110081+9999MW1001REMAWY006108 49
0061724631999991973021609004+38117-102600SAO  +11034LJ  V0200601N003012200019N0240001N1-00551-00881102651ADDGF100991999999999999999999MD1110141+9999MW1001REMAWY003114
0071724631999991973021612004+38117-102600SAO  +11034LJ  V0200801N00461007501EN0240001N1-00721-00831102721ADDGD14991+0075099GF108991999999999999999999MW1001REMAWY012303/ 15// 18
0061724631999991973021618004+38117-102600SAO  +11034LJ  V0201401N00301007501EN0048001N1-00661-00771103011ADDGD14991+0075099GF108991999999999999999999MW1701REMAWY00218
0085724631999991973021621004+38117-102600SAO  +11034LJ  V0201001N00511007501EN0080001N1-00611-00721102721ADDGD14991+0075099GF108991999999999999999999MD1710301+9999MW1701REMAWY012730        ^
0050724631999991973021700004+38117-102600SAO  +11034LJ  V0200601N00411007501EN0080001N1-00271-00441102531ADDGD14991+0075099GF108991999999999999999999MW1701
0050724631999991973021704004+38117-102600SAO  +11034LJ  V0201201N00411006001EN0112001N1-00331-00441102541ADDGD14991+0060099GF108991999999999999999999MW1001
0061724631999991973021706004+38117-102600SAO  +11034LJ  V0200801N00411007501EN0112001N1-00381-00441102501ADDGD14991+0075099GF108991999999999999999999MW1001REMAWY00230
0050724631999991973021709004+38117-102600SAO  +11034LJ  V0202801N00151007501EN0240001N1-00331-00381102321ADDGD14991+0075099GF108991999999999999999999MW1001
0061724631999991973021712004+38117-102600SAO  +11034LJ  V0202301N00151007501EN0240001N1-00441-00501102211ADDGD14991+0075099GF108991999999999999999999MW1001REMAWY00223
0050724631999991973021715004+38117-102600SAO  +11034LJ  V0202201N00201009001EN0240001N1-00161-00381102271ADDGD14991+0090099GF108991999999999999999999MW1001
0097724631999991973021718004+38117-102600SAO  +11034LJ  V0202801N003612200019N0240001N1+00331-00441102171ADDGD12991+0750099GF102991999001999999001081KA1999N-00501MD1810021+9999MW1001REMAWY011802 1008 23
0063724631999991973021721004+38117-102600SAO  +11034LJ  V0203301N002012200019N0240001N1+00941-00221101701ADDGF100991999999999999999999MD1710321+9999MW1001REMAWY005? 732
0097724631999991973021800004+38117-102600SAO  +11034LJ  V0203301N004112200019N0240001N1+00941-00381101561ADDGD12991+0150099GF102991999051999999001001KA1999M+01051MD1610141+9999MW1001REMAWY011  4 1500 51
0081724631999991973021803004+38117-102600SAO  +11034LJ  V0202601N001512200019N0240001N1+00381-00161101731ADDGD12991+0270099GF102991999001999999051001MD1110101+9999MW1001REMAWY008110 1050
0097724631999991973021806004+38117-102600SAO  +11034LJ  V0203101N001512200019N0240001N1+00161-00221101701ADDGD12991+0270099GF102991999001999999051001KA1999M+01051MD1410001+9999MW1001REMAWY011400 1050 51
0081724631999991973021809004+38117-102600SAO  +11034LJ  V0202501N003012200019N0240001N1-00221-00381101601ADDGD12991+0750099GF102991999001999999001081MD1610071+9999MW1001REMAWY008607 1008
0077724631999991973021812004+38117-102600SAO  +11034LJ  V0202601N002012200019N0240001N1-00381-00501101531ADDGF100991999999999999999999KA1999N-00451MD1610071+9999MW1001REMAWY006607 24
0061724631999991973021815004+38117-102600SAO  +11034LJ  V0202601N003012200019N0240001N1-00381-00501101701ADDGF100991999999999999999999MD1110081+9999MW1001REMAWY003108
0077724631999991973021818004+38117-102600SAO  +11034LJ  V0202401N002512200019N0240001N1+00771-00111101551ADDGF100991999999999999999999KA1999N-00561MD1810021+9999MW1001REMAWY006802 22
0061724631999991973021821004+38117-102600SAO  +11034LJ  V0202201N002512200019N0240001N1+01111-00381101351ADDGF100991999999999999999999MD1710171+9999MW1001REMAWY003717
0077724631999991973021900004+38117-102600SAO  +11034LJ  V0200601N001512200019N0240001N1+01111-00381101281ADDGF100991999999999999999999KA1999M+01221MD1710071+9999MW1001REMAWY006707 54
0061724631999991973021903004+38117-102600SAO  +11034LJ  V0201701N001512200019N0240001N1+00381-00161101521ADDGF100991999999999999999999MD1110081+9999MW1001REMAWY003108
0077724631999991973021906004+38117-102600SAO  +11034LJ  V0202701N001512200019N0240001N1+00111-00161101631ADDGF100991999999999999999999KA1999M+01221MD1210221+9999MW1001REMAWY006222 54
0061724631999991973021909004+38117-102600SAO  +11034LJ  V0203001N001512200019N0240001N1+00001-00161101751ADDGF100991999999999999999999MD1210141+9999MW1001REMAWY003214
0061724631999991973021912004+38117-102600SAO  +11034LJ  V0203301N00411007501EN0240001N1+00111-00051102071ADDGD14991+0075099GF108991999999999999999999MW1001REMAWY00229
0081724631999991973021915004+38117-102600SAO  +11034LJ  V0203001N002512200019N0240001N1+00111-00051102411ADDGD12991+0270099GF102991999001999999051001MD1210241+9999MW1001REMAWY008224 1050
0109724631999991973021918004+38117-102600SAO  +11034LJ  V0200201N004112200019N0240001N1+00501-00331102581ADDAA106000091GF100991999999999999999999KA1999N-00171MD1110191+9999MW1001REMAWY00811900 29EQDQ01  00003PRCP99
0068724631999991973021921004+38117-102600SAO  +11034LJ  V0203101N005112200019N0240001N1+00661-00551102501ADDGD12991+0150099GF102991999999999999999999MW1001REMAWY009102/ 1100
0077724631999991973022000004+38117-102600SAO  +11034LJ  V0200101N003012200019N0240001N1+00611-00501102681ADDGF100991999999999999999999KA1999M+00721MD1210101+9999MW1001REMAWY006210 45
0061724631999991973022003004+38117-102600SAO  +11034LJ  V0202401N001512200019N0240001N1-00051-00501103021ADDGF100991999999999999999999MD1210201+9999MW1001REMAWY003220
0084724631999991973022006004+38117-102600SAO  +11034LJ  V0202201N001512200019N0240001N1-00161-00331103111ADDGD12991+0270099GF102991999999999999999999MD1110101+9999MW1001REMAWY011110 1050?45
0081724631999991973022009004+38117-102600SAO  +11034LJ  V0202301N001512200019N0240001N1-00331-00501103051ADDGD12991+0270099GF102991999001999999051001MD1610071+9999MW1001REMAWY008607 1050
0097724631999991973022012004+38117-102600SAO  +11034LJ  V0202201N001512200019N0240001N1-00551-00661102861ADDGD12991+0750099GF102991999001999999001081KA1999N-00621MD1710171+9999MW1001REMAWY011717 1008 21
0111724631999991973022015004+38117-102600SAO  +11034LJ  V0202801N003610270019N0240001N1-00551-00661103031ADDGD12991+0150099GD23991+0270099GD33991+0750099GF107991999051999999051081MD1110031+9999MW1001REMAWY008103 1558
0127724631999991973022018004+38117-102600SAO  +11034LJ  V0202501N002010750019N0240001N1+00551-00331102721ADDGD12991+0150099GD22991+0270099GD33991+0750099GF107991999051999999051081KA1999N-00731MD1610121+9999MW1001REMAWY011  2 1558 19
0050724631999991973022021004+38117-102600SAO  +11034LJ  V0201201N00151015001EN0240001N1+01381+00221102241ADDGD14991+0150099GF108991999999999999999999MW1001
0112724631999991973022100004+38117-102600SAO  +11034LJ  V0200301N00201015001EN0240001N1+01271-00381102111ADDGD13991+0150099GD23991+0270099GF107991999051999999051999KA1999M+01441MD1610171+9999MW1001REMAWY011  7 155/ 58
0061724631999991973022104004+38117-102600SAO  +11034LJ  V0203601N005112200019N0240001N1+00441-00381102401ADDGF100991999999999999999999MD1210141+9999MW1001REMAWY003214
0085724631999991973022106004+38117-102600SAO  +11034LJ  V0203301N005112200019N0240001N1+00221-00161102741ADDGF100991999999999999999999KA1999M+01441MD1210421+9999MW1001OC101131REMAWY006242 58
0067724631999991973022109004+38117-102600SAO  +11034LJ  V0200401N00511015001EN0240001N1-00051-00161103301ADDGD13991+0150099GF107991999999999999999999MW1001REMAWY008246 1500
0097724631999991973022112004+38117-102600SAO  +11034LJ  V0203001N00151015001EN0240001N1-00221-00381103571ADDGD13991+0150099GF107991999051999999001001KA1999N-00281MD1110191+9999MW1001REMAWY011119 1500 27
0050724631999991973022115004+38117-102600SAO  +11034LJ  V0202201N00151012001EN0240001N1-00111-00271103791ADDGD14991+0120099GF108991999999999999999999MW1001
0061724631999991973022118004+38117-102600SAO  +11034LJ  V0203001N00201012001EN0240001N1+00331-00441103661ADDGD14991+0120099GF108991999999999999999999MW1001REMAWY00226
0111724631999991973022121004+38117-102600SAO  +11034LJ  V0201801N001510270019N0240001N1+00661-00381999999ADDGD12991+0120099GD23991+0270099GD33991+0750099GF107991999051999999051081MD1710341+9999MW1001REMAWY008734 1558
0061724631999991973022200004+38117-102600SAO  +11034LJ  V0201701N00201013501EN0240001N1+00611-00501103021ADDGD14991+0135099GF108991999999999999999999MW1001REMAWY00245
0061724631999991973022203004+38117-102600SAO  +11034LJ  V0201601N002012200019N0240001N1+00161-00271102841ADDGF100991999999999999999999MD1710171+9999MW1001REMAWY003717
0077724631999991973022206004+38117-102600SAO  +11034LJ  V0202101N002012200019N0240001N1-00161-00441102601ADDGF100991999999999999999999KA1999M+00721MD1710201+9999MW1001REMAWY006720 45
0050724631999991973022209004+38117-102600SAO  +11034LJ  V0202601N00201013501EN0240001N1-00221-00381102421ADDGD14991+0135099GF108991999999999999999999MW1001
0061724631999991973022212004+38117-102600SAO  +11034LJ  V0203001N00151013501EN0240001N1-00161-00271102231ADDGD14991+0135099GF108991999999999999999999MW1001REMAWY00227
0082724631999991973022215004+38117-102600SAO  +11034LJ  V0202801N00201013501EN0240001N1-00111-00271102201ADDGD14991+0135099GF108991999999999999999999MD1610071+9999MW1001REMAWY009607 15///
0096724631999991973022218004+38117-102600SAO  +11034LJ  V0200201N00411013501EN0240001N1+00721-00721102101ADDGD13991+0135099GD23991+0750099GF107991999051999999001081MD1610031+9999MW1001REMAWY008603 1508
0097724631999991973022300004+38117-102600SAO  +11034LJ  V0203601N00511075001EN0240001N1+01111-00661101691ADDGD13991+0750099GF107991999001999999001081KA1999M+01331MD1610071+9999MW1001REMAWY011607 1008 56
0061724631999991973022303004+38117-102600SAO  +11034LJ  V0203501N002512200019N0240001N1+00271-00611101941ADDGF100991999999999999999999MD1110121+9999MW1001REMAWY003112
0077724631999991973022306004+38117-102600SAO  +11034LJ  V0202501N001512200019N0240001N1+00051-00381101961ADDGF100991999999999999999999KA1999M+01331MD1110081+9999MW1001REMAWY006108 56
0050724631999991973022315004+38117-102600SAO  +11034LJ  V0202501N003612200019N0240001N1-00271-00611102011ADDGF100991999999999999999999MA1105251999999MW1001
0097724631999991973022318004+38117-102600SAO  +11034LJ  V0202001N00151220001EN0240001N1+00831-00551101741ADDGD13991+0750093GF107991999001999999001081KA1999N-00391MD1710121+9999MW1001REMAWY011712 1008 25
0081724631999991973022321004+38117-102600SAO  +11034LJ  V0201701N00361075001EN0240001N1+01551-00551101271ADDGD13991+0750099GF107991999001999999001081MD1710341+9999MW1001REMAWY008734 1008
0127724631999991973022400004+38117-102600SAO  +11034LJ  V0201301N002010270019N0240001N1+01271+00001101191ADDGD12991+0150099GD23991+0270099GD33991+0750099GF107991999051999999051081KA1999M+01611MD1610141+9999MW1001REMAWY011  4 1558 61
0061724631999991973022402004+38117-102600SAO  +11034LJ  V0201701N002512200019N0240001N1+00611-00161101261ADDGF100991999999999999999999MD1810021+9999MW1001REMAWY003802
0074724631999991973022406004+38117-102600SAO  +11034LJ  V0201301N001512200019N0240001N1+00271-00271101181ADDGF100991999999999999999999KA1999M+01611MD1110021+9999MW1001REMAWY003102
0097724631999991973022412004+38117-102600SAO  +11034LJ  V0202601N002512200019N0240001N1-00271-00501101301ADDGD12991+0750099GF102991999001999999001081KA1999N-00451MD1310101+9999MW1001REMAWY011310 1008 24
0061724631999991973022415004+38117-102600SAO  +11034LJ  V0202401N001512200019N0240001N1-00161-00331101631ADDGF100991999999999999999999MD1210201+9999MW1001REMAWY003220
0081724631999991973022421004+38117-102600SAO  +11034LJ  V0202801N003012200019N0240001N1+01612-00381101401ADDGD12991+0750099GF102991999001999999001081MD1610191+9999MW1001REMAWY008  9 1008
0097724631999991973022500004+38117-102600SAO  +11034LJ  V0200601N001512200019N0240001N1+01381-00611101501ADDGD12991+0270099GF102991999001999999051001KA1999M+01661MD1110031+9999MW1001REMAWY011103 1050 62
0061724631999991973022503004+38117-102600SAO  +11034LJ  V0201101N001512200019N0240001N1+00611-00161101761ADDGF100991999999999999999999MD1110141+9999MW1001REMAWY003114
0074724631999991973022506004+38117-102600SAO  +11034LJ  V0200401N001512200019N0240001N1+00221-00551101701ADDGF100991999999999999999999KA1999M+01661MD1110081+9999MW1001REMAWY003108
0061724631999991973022509004+38117-102600SAO  +11034LJ  V0200801N001512200019N0240001N1-00111-00331101661ADDGF100991999999999999999999MD1610031+9999MW1001REMAWY003603
0097724631999991973022512004+38117-102600SAO  +11034LJ  V0200501N001512200019N0240001N1-00271-00441101581ADDGD12991+0750099GF102991999001999999001081KA1999N-00391MD1610121+9999MW1001REMAWY011  2 1008 25
0081724631999991973022515004+38117-102600SAO  +11034LJ  V0200901N00251027001EN0240001N1-00161-00331101871ADDGD13991+0270099GF107991999001999999051001MD1310171+9999MW1001REMAWY008317 1050
0097724631999991973022518004+38117-102600SAO  +11034LJ  V0200301N002012200019N0240001N1+00331-00051102051ADDGD12991+0270099GF102991999001999999051001KA1999N-00391MD1110171+9999MW1001REMAWY011117 1050 25
0061724631999991973022521004+38117-102600SAO  +11034LJ  V0203601N002512200019N0240001N1+01111-00221101901ADDGF100991999999999999999999MD1610071+9999MW1001REMAWY003607
0077724631999991973022600004+38117-102600SAO  +11034LJ  V0201201N003012200019N0240001N1+01001+00001102041ADDGF100991999999999999999999KA1999M+01161MD1210101+9999MW1001REMAWY006210 53
0047724631999991973022603004+38117-102600SAO  +11034LJ  V0203601N001512200019N0240001N1+00381+00161102381ADDGF100991999999999999999999MW1001REMAWY003222
0077724631999991973022606004+38117-102600SAO  +11034LJ  V0202401N001512200019N0240001N1-00051-00271102571ADDGF100991999999999999999999KA1999M+01161MD1110171+9999MW1001REMAWY006117 53
0077724631999991973022612004+38117-102600SAO  +11034LJ  V0202701N002012200019N0240001N1-00161-00381102571ADDGF100991999999999999999999KA1999N-00231MD1310031+9999MW1001REMAWY006303 28
0061724631999991973022615004+38117-102600SAO  +11034LJ  V0202601N002012200019N0240001N1-00111-00221102791ADDGF100991999999999999999999MD1210121+9999MW1001REMAWY003212
0063724631999991973022618004+38117-102600SAO  +11034LJ  V0203001N002012200019N0240001N1+01221-00721102671ADDGF100991999999999999999999MA1101661999999MW1001REMAWY004/ 25
0081724631999991973022621004+38117-102600SAO  +11034LJ  V0201001N002012200019N0240001N1+01881-00161102241ADDGD12991+0750093GF102991999001999999001081MD1710301+9999MW1001REMAWY008730 1008
0077724631999991973022706004+38117-102600SAO  +11034LJ  V0201101N002012200019N0240001N1+00381-00221102031ADDGF100991999999999999999999KA1999M+01881MD1710031+9999MW1001REMAWY006703 66
0061724631999991973022709004+38117-102600SAO  +11034LJ  V0201301N001512200019N0240001N1-00051-00551101941ADDGF100991999999999999999999MD1610071+9999MW1001REMAWY003607
0077724631999991973022712004+38117-102600SAO  +11034LJ  V0202601N002012200019N0240001N1-00221-00381101941ADDGF100991999999999999999999KA1999N-00281MD1410001+9999MW1001REMAWY006400 27
0111724631999991973022715004+38117-102600SAO  +11034LJ  V0203001N002510270019N0240001N1-00161-00271102111ADDGD12991+0150099GD23991+0270099GD33991+0750099GF107991999051999999051081MD1410001+9999MW1001REMAWY008400 1558
0061724631999991973022718004+38117-102600SAO  +11034LJ  V0202801N00201013501EN0240001N1+00831-00051101891ADDGD14991+0135099GF108991999999999999999999MW1001REMAWY00226
0111724631999991973022721004+38117-102600SAO  +11034LJ  V0201601N00151013501EN0240001N1+01551+00161101521ADDGD13991+0135099GD23991+0270099GD33991+0750099GF107991999051999999051081MD1210301+9999MW1001REMAWY008230 1558
0077724631999991973022800004+38117-102600SAO  +11034LJ  V0201801N002012200019N0240001N1+01721-00111101311ADDGF100991999999999999999999KA1999M+01771MD1710171+9999MW1001REMAWY006717 64
0061724631999991973022803004+38117-102600SAO  +11034LJ  V0201501N001512200019N0240001N1+00611+00001101401ADDGF100991999999999999999999MD1710051+9999MW1001REMAWY003705
0061724631999991973022809004+38117-102600SAO  +11034LJ  V0202401N001512200019N0240001N1+00111-00331101101ADDGF100991999999999999999999MD1810021+9999MW1001REMAWY003802
0077724631999991973022812004+38117-102600SAO  +11034LJ  V0202601N002512200019N0240001N1+00221+00001100981ADDGF100991999999999999999999KA1999N+00051MD1610051+9999MW1001REMAWY006605 33
0098724631999991973022815004+38117-102600SAO  +11034LJ  V0202801N00151013501EN0240001N1+00221-00161101141ADDGD14991+0135099GD24991+0750099GF108991999999999999999999MA1101591999999MW1001REMAWY009/ 1508 32
0096724631999991973022821004+38117-102600SAO  +11034LJ  V0200301N00201013501EN0240001N1+01501+00161100731ADDGD13991+0135099GD23991+0750099GF107991999051999999001081MD1710251+9999MW1001REMAWY008725 1508
0127724631999991973030100004+38117-102600SAO  +11034LJ  V0200301N002510750019N0240001N1+01551+00161100581ADDGD12991+0150099GD22991+0270099GD33991+0750099GF107991999051999999051081KA1999M+01661MD1710121+9999MW1001REMAWY011712 1558 62
0096724631999991973030103004+38117-102600SAO  +11034LJ  V0200401N00301015001EN0240001N1+01001+00501100801ADDGD13991+0150099GD23991+0750099GF107991999051999999001081MD1310141+9999MW1001REMAWY008314 1508
0050724631999991973030109004+38117-102600SAO  +11034LJ  V0203301N00201012001EN0240001N1+00271-00161100961ADDGD14991+0120099GF108991999999999999999999MW1001
0077724631999991973030112004+38117-102600SAO  +11034LJ  V0203101N002012200019N0240001N1+00331+00001101081ADDGF100991999999999999999999KA1999N+00221MD1210121+9999MW1001REMAWY006212 36
0067724631999991973030115004+38117-102600SAO  +11034LJ  V0202501N001512200019N0240001N1+00221-00051101421ADDGD12991+0750099GF102991999999999999999999MW1001REMAWY008222 1008
0063724631999991973030118004+38117-102600SAO  +11034LJ  V0203601N003012200019N0240001N1+01551-00161101371ADDGF100991999999999999999999MA1101831999999MW1001REMAWY004/ 35
0081724631999991973030121004+38117-102600SAO  +11034LJ  V0202801N005112200019N0240001N1+01831-00161101291ADDGD12991+0180099GF102991999011999999001001MD1710081+9999MW1001REMAWY008708 1100
0083724631999991973030123004+38117-102600SAO  +11034LJ  V0200601N001512200019N0240001N1+99999-00161101461ADDGF100991999999999999999999MD1010031+9999MW1001REMAWY006003 66EQDQ01+027593ATOT  
0077724631999991973030200004+38117-102600SAO  +11034LJ  V0202901N005112200019N0240001N1+01661-00161101241ADDGF100991999999999999999999KA1999M+01881MD1610051+9999MW1001REMAWY006605 66
0077724631999991973030212004+38117-102600SAO  +11034LJ  V0202601N001512200019N0240001N1-00111-00331101401ADDGF100991999999999999999999KA1999N-00121MD1610081+9999MW1001REMAWY006608 30
0050724631999991973030215004+38117-102600SAO  +11034LJ  V0202501N00151015001EN0240001N1-00051-00271101561ADDGD14991+0150099GF108991999999999999999999MW1001
0104724631999991973030221004+38117-102600SAO  +11034LJ  V0201801N00511015001EN0240001N1+01832+00271100991ADDGD13991+0150099GD23991+0750099GF107991999051999999001081MD1710271+9999MW1001OC101081REMAWY008727 1508
0112724631999991973030300004+38117-102600SAO  +11034LJ  V0201401N00511015001EN0240001N1+01441+00381101051ADDGD13991+0150099GD23991+0750099GF107991999051999999001081KA1999M+01831MD1610021+9999MW1001REMAWY011602 1508 65
0061724631999991973030303004+38117-102600SAO  +11034LJ  V0200801N002012200019N0240001N1+00831+00381101011ADDGF100991999999999999999999MD1610081+9999MW1001REMAWY003608
0077724631999991973030306004+38117-102600SAO  +11034LJ  V0200501N002012200019N0240001N1+00501+00221100961ADDGF100991999999999999999999KA1999M+01831MD1110071+9999MW1001REMAWY006107 65
0050724631999991973030309004+38117-102600SAO  +11034LJ  V0200201N00151012001EN0240001N1+00221+00051101191ADDGD14991+0120099GF108991999999999999999999MW1001
0061724631999991973030312004+38117-102600SAO  +11034LJ  V0203401N00411009001EN0240001N1+00441+00331101321ADDGD14991+0090099GF108991999999999999999999MW1001REMAWY00236
0050724631999991973030315004+38117-102600SAO  +11034LJ  V0203501N00301009001EN0080001N1+00331+00221101581ADDGD14991+0090099GF108991999999999999999999MW1511
0069724631999991973030318004+38117-102600SAO  +11034LJ  V0200301N00301009001EN0048001N1+00221+00051101821ADDGD14991+0090099GF108991999999999999999999MW1511OC100971REMAWY00235
0058724631999991973030321004+38117-102600SAO  +11034LJ  V0202501N00511007501EN0008001N1+00161+00051101951ADDGD14991+0075099GF108991999999999999999999MW1861OC101021
0133724631999991973030400004+38117-102600SAO  +11034LJ  V0203301N00201007501EN0240001N1+00221+00111102061ADDAA106004091GD14991+0075099GF108991999999999999999999MD1210111+9999MW1001REMAWY01437 20017 90102EQDQ01+000002APC3  Q02  00403PRCP99
0050724631999991973030403004+38117-102600SAO  +11034LJ  V0200101N00251009001EN0240001N1+00161+00001102201ADDGD14991+0090099GF108991999999999999999999MW1001
0127724631999991973030406004+38117-102600SAO  +11034LJ  V0202801N00201009001EN0240001N1+00161+00001102221ADDAA106004091GD14991+0090099GF108991999999999999999999MD1210021+9999MW1001REMAWY00842 20017EQDQ01+000002APC3  Q02  00403PRCP99
0050724631999991973030409004+38117-102600SAO  +11034LJ  V0203101N00201009001EN0240001N1-00161-00271102161ADDGD14991+0090099GF108991999999999999999999MW1001
0114724631999991973030412004+38117-102600SAO  +11034LJ  V0200701N00201010501EN0240001N1+00111-00111101951ADDAA124004091GD13991+0105099GF107991999051999999001001KA1999N-00231MD1610141+9999MW1001REMAWY017  4 1500 28 20017
0061724631999991973030415004+38117-102600SAO  +11034LJ  V0202801N002012200019N0240001N1+00111-00111101901ADDGF100991999999999999999999MD1610031+9999MW1001REMAWY003603
0129724631999991973030418004+38117-102600SAO  +11034LJ  V0200501N00201010501EN0240001N1+00221-00331101821ADDAA124004091GD13991+0105099GD23991+0750099GF107991999051999999001081KA1999N-00231MD1710051+9999MW1001REMAWY017705 1508 28 20017
0081724631999991973030421004+38117-102600SAO  +11034LJ  V0200601N00301012001EN0240001N1+00721+00001101361ADDGD14991+0120099GF108991999051999999001001MD1710391+9999MW1001REMAWY008739 1500
0112724631999991973030500004+38117-102600SAO  +11034LJ  V0200901N00611012001EN0240001N1+00501-00111101091ADDGD13991+0120099GD23991+0750099GF107991999051999999001081KA1999M+00771MD1710241+9999MW1001REMAWY011724 1508 46
0096724631999991973030503004+38117-102600SAO  +11034LJ  V0201201N00411012001EN0240001N1+00221-00111101061ADDGD13991+0120099GD23991+0750099GF107991999051999999001081MD1610071+9999MW1001REMAWY008607 1508
0061724631999991973030506004+38117-102600SAO  +11034LJ  V0201701N00361009001EN0240001N1+00111-00111100901ADDGD14991+0090099GF108991999999999999999999MW1001REMAWY00246
0050724631999991973030509004+38117-102600SAO  +11034LJ  V0201201N00301009001EN0240001N1-00051-00221100751ADDGD14991+0090099GF108991999999999999999999MW1001
0061724631999991973030512004+38117-102600SAO  +11034LJ  V0201601N00611009001EN0240001N1+00221+00111100431ADDGD14991+0090099GF108991999999999999999999MW1001REMAWY00231
0050724631999991973030515004+38117-102600SAO  +11034LJ  V0201701N00361009001EN0240001N1+00331+00111100291ADDGD14991+0090099GF108991999999999999999999MW1001
0081724631999991973030518004+38117-102600SAO  +11034LJ  V0201401N002012200019N0240001N1+01161+00221100101ADDGD12991+0750099GF102991999001999999001081MD1710071+9999MW1001REMAWY008707 1008
0078724631999991973030521004+38117-102600SAO  +11034LJ  V0202401N004112200019N0240001N1+01501+00111099861ADDGD12991+0180099GD22991+0750099GF102991999999999999999999MW1001REMAWY0041108
0061724631999991973030603004+38117-102600SAO  +11034LJ  V0200101N001512200019N0240001N1+00551-00161100411ADDGF100991999999999999999999MD1210321+9999MW1001REMAWY003232
0074724631999991973030606004+38117-102600SAO  +11034LJ  V0201101N001512200019N0240001N1+00271-00111100581ADDGF100991999999999999999999KA1999M+01611MD1210221+9999MW1001REMAWY003222
0050724631999991973030609004+38117-102600SAO  +11034LJ  V0200201N00151009001EN0240001N1+00271-00331100621ADDGD14991+0090099GF108991999999999999999999MW1001
0092724631999991973030612004+38117-102600SAO  +11034LJ  V0202701N00251003001WN0002001N1+00001-00051100941ADDGD15991+0030099GF109991999999999999999999KA1999N-00121MD1210121+9999MW1451REMAWY006212 30
0096724631999991973030615004+38117-102600SAO  +11034LJ  V0202401N00251012001EN0240001N1+00001-00111101111ADDGD13991+0120099GD23991+0750099GF107991999051999999001081MD1210191+9999MW1001REMAWY008219 1508
0061724631999991973030618004+38117-102600SAO  +11034LJ  V0201301N00151007501EN0240001N1+00831-00381101161ADDGD14991+0075099GF108991999999999999999999MW1001REMAWY00230
0061724631999991973030621004+38117-102600SAO  +11034LJ  V0200301N002512200019N0240001N1+01221-00111100881ADDGF100991999999999999999999MD1610241+9999MW1001REMAWY003  4
0097724631999991973030700004+38117-102600SAO  +11034LJ  V0203301N004112200019N0240001N1+01051+00001100941ADDGD12991+0180099GF102991999011999999001001KA1999M+01381MD1310031+9999MW1001REMAWY011303 1100 57
0061724631999991973030703004+38117-102600SAO  +11034LJ  V0201201N001512200019N0240001N1+00441-00161101201ADDGF100991999999999999999999MD1210141+9999MW1001REMAWY003214
0077724631999991973030706004+38117-102600SAO  +11034LJ  V0202501N001512200019N0240001N1+00111-00111101301ADDGF100991999999999999999999KA1999M+01381MD1210151+9999MW1001REMAWY006215 57
0198724631999991973030709004+38117-102600SAO  +11034LJ  V0202301N001512200019N0240001N1+00051-00051101261ADDGF100991999999999999999999MD1110021+9999MW1001REMAWY140102        ?MCBO 00000 400MTS NEBMOD TODIR DESPJ 05/05 Q1022     ?     APTO CONT CDO     ?     80222 00000 04444 ///05 00900 05951 67511 END
0077724631999991973030712004+38117-102600SAO  +11034LJ  V0202101N001512200019N0240001N1-00221-00381101351ADDGF100991999999999999999999KA1999N-00231MD1310021+9999MW1001REMAWY006302 28
0081724631999991973030715004+38117-102600SAO  +11034LJ  V0202501N001512200019N0240001N1-00111-00221101521ADDGD12991+0270099GF102991999001999999051001MD1110081+9999MW1001REMAWY008108 1050
0063724631999991973030718004+38117-102600SAO  +11034LJ  V0201901N002012200019N0240001N1+01001-00551101401ADDGF100991999999999999999999MA1101591999999MW1001REMAWY004/ 26
0081724631999991973030721004+38117-102600SAO  +11034LJ  V0200201N002512200019N0240001N1+01441-00221101081ADDGD12991+0180099GF102991999011999999001001MD1710241+9999MW1001REMAWY008724 1100
0116724631999991973030800004+38117-102600SAO  +11034LJ  V0200101N004612200019N0240001N1+01271-00441101111ADDGD12991+0270099GF102991999011999999999001KA1999M+01441MD1510021+9999MW1001REMAWY011502 1100 58EQDQ01+000002SCOMCG
0061724631999991973030803004+38117-102600SAO  +11034LJ  V0200301N001512200019N0240001N1+00551-00111101401ADDGF100991999999999999999999MD1210151+9999MW1001REMAWY003215
0097724631999991973030806004+38117-102600SAO  +11034LJ  V0201201N001512200019N0240001N1+00611+00001101311ADDGD12991+0750099GF102991999001999999001081KA1999M+01441MD1210081+9999MW1001REMAWY011208 1008 58
0067724631999991973030809004+38117-102600SAO  +11034LJ  V0203601N003012200019N0240001N1+00331+00001101351ADDGD12991+0750099GF102991999999999999999999MW1001REMAWY008105/1008
0097724631999991973030812004+38117-102600SAO  +11034LJ  V0203501N001512200019N0240001N1+00161+00001101301ADDGD12991+0750099GF102991999001999999001081KA1999N+00111MD1510081+9999MW1001REMAWY011508 1008 34
0050724631999991973030815004+38117-102600SAO  +11034LJ  V0200701N00201013501EN0240001N1+00551+00271101591ADDGD14991+0135099GF108991999999999999999999MW1001
0081724631999991973030818004+38117-102600SAO  +11034LJ  V0200301N00411009001EN0240001N1+00661+00221101671ADDGD14991+0090099GF108991999999999999999999MA1105321999999MW1001REMAWY00715// 33
0050724631999991973030821004+38117-102600SAO  +11034LJ  V0209999999999009001EN0240001N1+00941+00271101561ADDGD14991+0090099GF108991999999999999999999MW1001
0061724631999991973030900004+38117-102600SAO  +11034LJ  V0200401N00201009001EN0240001N1+00661+00161101711ADDGD14991+0090099GF108991999999999999999999MW1001REMAWY00250
0069724631999991973030903004+38117-102600SAO  +11034LJ  V0200501N00251006001EN9999999N9+00501+00161101891ADDGD14991+0060099GF108991999999999999999999MW1511EQDQ01+000002VOVAR 
0069724631999991973030906004+38117-102600SAO  +11034LJ  V0200801N00361006001EN0240001N1+00381+00051101811ADDGD14991+0060099GF108991999999999999999999MW1001OC100971REMAWY00250
0050724631999991973030909004+38117-102600SAO  +11034LJ  V0201201N00201006001EN0240001N1+00271+00051101801ADDGD14991+0060099GF108991999999999999999999MW1001
0061724631999991973030912004+38117-102600SAO  +11034LJ  V0200801N00301006001EN0240001N1+00381+00161101631ADDGD14991+0060099GF108991999999999999999999MW1001REMAWY00236
0050724631999991973030915004+38117-102600SAO  +11034LJ  V0200701N00361220001EN0240001N1+00271+00161101661ADDGD12991+0060099GF102991999999999999999999MW1001
0061724631999991973030918004+38117-102600SAO  +11034LJ  V0201401N00201006001EN0048001N1+00381+00161101631ADDGD14991+0060099GF108991999999999999999999MW1511REMAWY00236
0050724631999991973030921004+38117-102600SAO  +11034LJ  V0201601N00301006001EN0112001N1+00551+00001101241ADDGD14991+0060099GF108991999999999999999999MW1001
0061724631999991973031000004+38117-102600SAO  +11034LJ  V0201301N00301006001EN0240001N1+00611+00051101031ADDGD14991+0060099GF108991999999999999999999MW1001REMAWY00243
0050724631999991973031003004+38117-102600SAO  +11034LJ  V0201701N00361007501EN0240001N1+00551+00111101101ADDGD14991+0075099GF108991999999999999999999MW1001
0061724631999991973031012004+38117-102600SAO  +11034LJ  V0202301N00151006001EN0240001N1+00331-00051100701ADDGD14991+0060099GF108991999999999999999999MW1001REMAWY00237
0050724631999991973031015004+38117-102600SAO  +11034LJ  V0203501N00361006001EN0112001N1+00381+00271100651ADDGD14991+0060099GF108991999999999999999999MW1001
0061724631999991973031018004+38117-102600SAO  +11034LJ  V0200101N00411006001EN0240001N1+00551+00111100521ADDGD14991+0060099GF108991999999999999999999MW1001REMAWY00237
0050724631999991973031021004+38117-102600SAO  +11034LJ  V0203501N00561009001EN0240001N1+00881+00051100081ADDGD14991+0090099GF108991999999999999999999MW1001
0061724631999991973031100004+38117-102600SAO  +11034LJ  V0200301N00511010501EN0240001N1+01161-00161099901ADDGD14991+0105099GF108991999999999999999999MW1001REMAWY00253
0061724631999991973031103004+38117-102600SAO  +11034LJ  V0202801N001512200019N0240001N1+00551-00271100181ADDGF100991999999999999999999MD1310171+9999MW1001REMAWY003317
0077724631999991973031106004+38117-102600SAO  +11034LJ  V0203001N002012200019N0240001N1+00111-00501100371ADDGF100991999999999999999999KA1999M+01161MD1110101+9999MW1001REMAWY006110 53
0061724631999991973031109004+38117-102600SAO  +11034LJ  V0202701N003612200019N0240001N1+00161-00111100401ADDGF100991999999999999999999MD1110121+9999MW1001REMAWY003112
0077724631999991973031112004+38117-102600SAO  +11034LJ  V0202401N002012200019N0240001N1-00051-00501100511ADDGF100991999999999999999999KA1999N-00171MD1310101+9999MW1001REMAWY006310 29
0061724631999991973031115004+38117-102600SAO  +11034LJ  V0202601N002512200019N0240001N1+00051-00381100921ADDGF100991999999999999999999MD1210291+9999MW1001REMAWY003229
0063724631999991973031118004+38117-102600SAO  +11034LJ  V0202401N002512200019N0240001N1+01551-00441100771ADDGF100991999999999999999999MA1101591999999MW1001REMAWY004/ 38
0061724631999991973031121004+38117-102600SAO  +11034LJ  V0201601N003012200019N0240001N1+02001-00721100581ADDGF100991999999999999999999MD1710101+9999MW1001REMAWY003710
0077724631999991973031200004+38117-102600SAO  +11034LJ  V0201801N005112200019N0240001N1+01881-00441100601ADDGF100991999999999999999999KA1999M+02001MD1610021+9999MW1001REMAWY006602 68
0125724631999991973031206004+38117-102600SAO  +11034LJ  V0201701N003612200019N0240001N1+00881+00271100701ADDGF100991999999999999999999KA1999M+02001MD1410001+9999MW1001OC100971REMAWY046400 68     ?     K20 SW PTTT CI QTWXERXERXQTPT
0081724631999991973031209004+38117-102600SAO  +11034LJ  V0201501N001512200019N0240001N1+00331-00161100701ADDGD12991+0750099GF102991999001999999001081MD1410001+9999MW1001REMAWY008400 1008
0077724631999991973031212004+38117-102600SAO  +11034LJ  V0201201N001512200019N0240001N1+00001-00161100861ADDGF100991999999999999999999KA1999N-00061MD1110071+9999MW1001REMAWY006107 31
0077724631999991973031218004+38117-102600SAO  +11034LJ  V0200601N003012200019N0240001N1+02001-00221100901ADDGF100991999999999999999999KA1999N-00171MD1610071+9999MW1001REMAWY006607 29
0069724631999991973031221004+38117-102600SAO  +11034LJ  V0201801N005112200019N0240001N1+02501+00161100451ADDGF100991999999999999999999MD1710371+9999MW1001OC101081REMAWY003737
0105724631999991973031300004+38117-102600SAO  +11034LJ  V0201701N005112200019N0240001N1+02051+00221100351ADDGD12991+0750093GF102991999001999999001081KA1999M+02501MD1610191+9999MW1001OC101131REMAWY011  9 1008 77
0081724631999991973031303004+38117-102600SAO  +11034LJ  V0201601N004612200019N0240001N1+01501+00331100401ADDGD12991+0750099GF102991999001999999001081MD1410001+9999MW1001REMAWY008400 1008
0046724631999991973031309004+38117-102600SAO  +11034LJ  V0201001N002012200019N0240001N1+00551+00001099981ADDGF100991999999999999999999MW1001REMAWY00211
0097724631999991973031312004+38117-102600SAO  +11034LJ  V0201201N00301010501EN0240001N1+00611+00381099761ADDGD13991+0105099GF107991999051999999001001KA1999N+00381MD1710251+9999MW1001REMAWY011725 1500 39
0069724631999991973031315004+38117-102600SAO  +11034LJ  V0201201N00361009001EN0240001N1+00721+00551999999ADDGD14991+0090099GF108991999999999999999999MW1001EQDQ01+100363APOSLP
0066724631999991973031318004+38117-102600SAO  +11034LJ  V0201701N00251009001EN0240001N1+01551+00881098601ADDGD14991+0090099GF108991999999999999999999MW1001REMAWY00715// 39
0058724631999991973031321004+38117-102600SAO  +11034LJ  V0201701N00511009001EN0240001N1+02051-00272097741ADDGD14991+0090099GF108991999999999999999999MW1001OC101281
0137724631999991973031400004+38117-102600SAO  +11034LJ  V0202601N005112200019N0032001N1+00721+00111097501ADDAA106000091GD12991+0090099GF102991999051999999001001KA1999M+02051MD1710341+9999MW1071OC101381REMAWY01373400 1500 69EQDQ01  00003PRCP99
0058724631999991973031403004+38117-102600SAO  +11034LJ  V0202801N00771007501EN0016001N1+00441-00221098141ADDGD14991+0075099GF108991999999999999999999MW1801OC102051
0135724631999991973031406004+38117-102600SAO  +11034LJ  V0203001N00771009001EN0240001N1+00831-00551098251ADDAA106003091GD14991+0090099GF108991999999999999999999MD1210111+9999MW1001OC101641REMAWY00869 20012EQDQ01+000002APC3  Q02  00303PRCP99
0050724631999991973031409004+38117-102600SAO  +11034LJ  V0202901N00461009001EN0240001N1+00551+00051098501ADDGD14991+0090099GF108991999999999999999999MW1001
0127724631999991973031412004+38117-102600SAO  +11034LJ  V0203201N00561009001EN0240001N1+00551+00161098871ADDAA106004091GD14991+0090099GF108991999999999999999999MD1210371+9999MW1001REMAWY00840 20017EQDQ01+000002APC3  Q02  00403PRCP99
0085724631999991973031415004+38117-102600SAO  +11034LJ  V0203501N00721009001EN0240001N1+00611-00221099501ADDGD13991+0090099GD23991+0750099GF107991999999999999999999MW1001OC101801REMAWY003239
0104724631999991973031421004+38117-102600SAO  +11034LJ  V0202901N00611012001EN0240001N1+00721+00111100141ADDGD13991+0120099GD23991+0750099GF107991999051999999001081MD1210141+9999MW1001OC101591REMAWY008214 1508
0104724631999991973031503004+38117-102600SAO  +11034LJ  V0203601N00511009001EN0240001N1+00221-00221100931ADDGD13991+0090099GD23991+0750099GF107991999051999999001081MD1210271+9999MW1001OC101331REMAWY008227 1508
0112724631999991973031506004+38117-102600SAO  +11034LJ  V0203201N00411009001EN0240001N1+00161-00331101321ADDGD13991+0090099GD23991+0750099GF107991999051999999001081KA1999M+00881MD1110341+9999MW1001REMAWY011134 1508 48
0096724631999991973031509004+38117-102600SAO  +11034LJ  V0202301N001512200019N0240001N1+00111-00221101331ADDGD12991+0090099GD22991+0750099GF102991999051999999001081MD1410001+9999MW1001REMAWY008400 1508
0061724631999991973031512004+38117-102600SAO  +11034LJ  V0202601N00201010501EN0240001N1+00111-00161101441ADDGD14991+0105099GF108991999999999999999999MW1001REMAWY00230
0050724631999991973031515004+38117-102600SAO  +11034LJ  V0202701N00361010501EN0240001N1+00331-00161101611ADDGD14991+0105099GF108991999999999999999999MW1001
0061724631999991973031518004+38117-102600SAO  +11034LJ  V0203501N00361013501EN0240001N1+00551-00441101641ADDGD14991+0135099GF108991999999999999999999MW1001REMAWY00230
0081724631999991973031521004+38117-102600SAO  +11034LJ  V0201001N004112200019N0240001N1+00941-00221101411ADDGD12991+0750093GF102991999001999999001081MD1610171+9999MW1001REMAWY008  7 1008
0061724631999991973031600004+38117-102600SAO  +11034LJ  V0203001N00771009001EN0240001N1+01001-00271101531ADDGD14991+0090099GF108991999999999999999999MW1001REMAWY00252
0061724631999991973031606004+38117-102600SAO  +11034LJ  V0202601N00201009001EN0240001N1+00331-00051102251ADDGD14991+0090099GF108991999999999999999999MW1001REMAWY00252
0078724631999991973031609004+38117-102600SAO  +11034LJ  V0202701N002512200019N0240001N1+00111-00111102251ADDGD12991+0120099GF102991999999999999999999MA1105081999999MW1001REMAWY0041500
0097724631999991973031612004+38117-102600SAO  +11034LJ  V0202501N002512200019N0240001N1-00161-00331102221ADDGD12991+0120099GF102991999051999999001001KA1999N-00231MD1610071+9999MW1001REMAWY011607 1500 28
0061724631999991973031621004+38117-102600SAO  +11034LJ  V0203301N002512200019N0240001N1+01271-00551102011ADDGF100991999999999999999999MD1710191+9999MW1001REMAWY003719
0077724631999991973031700004+38117-102600SAO  +11034LJ  V0200301N002512200019N0240001N1+01111-00331102001ADDGF100991999999999999999999KA1999M+01331MD1610071+9999MW1001REMAWY006607 56
0077724631999991973031706004+38117-102600SAO  +11034LJ  V0202801N001512200019N0240001N1+00161-00441101931ADDGF100991999999999999999999KA1999M+01331MD1610021+9999MW1001REMAWY006602 56
0061724631999991973031709004+38117-102600SAO  +11034LJ  V0201101N001512200019N0240001N1+00001-00381101781ADDGF100991999999999999999999MD1610141+9999MW1001REMAWY003  4
0077724631999991973031712004+38117-102600SAO  +11034LJ  V0201101N001512200019N0240001N1-00441-00611101661ADDGF100991999999999999999999KA1999N-00501MD1710171+9999MW1001REMAWY006717 23
0061724631999991973031715004+38117-102600SAO  +11034LJ  V0202401N003012200019N0240001N1-00111-00331101701ADDGF100991999999999999999999MD1410001+9999MW1001REMAWY003400
0096724631999991973031721004+38117-102600SAO  +11034LJ  V0201301N002510750019N0240001N1+01942-00161100801ADDGD12991+0150099GD23991+0750099GF107991999051999999001081MD1710441+9999MW1001REMAWY008744 1508
0112724631999991973031800004+38117-102600SAO  +11034LJ  V0201101N00461027001EN0240001N1+01721-00051100601ADDGD13991+0270099GD23991+0750099GF107991999001999999051081KA1999M+02051MD1710251+9999MW1001REMAWY011725 1058 69
0050724631999991973031803004+38117-102600SAO  +11034LJ  V0200601N00201015001EN0240001N1+01051+00331100631ADDGD14991+0150099GF108991999999999999999999MW1001
0112724631999991973031806004+38117-102600SAO  +11034LJ  V0201001N00151015001EN0240001N1+00771+00001100411ADDGD13991+0150099GD23991+0750099GF107991999051999999001081KA1999M+02051MD1710071+9999MW1001REMAWY011707 1508 69
0061724631999991973031812004+38117-102600SAO  +11034LJ  V0202501N00151012001EN0240001N1+00161+00051100351ADDGD14991+0120099GF108991999999999999999999MW1001REMAWY00234
0081724631999991973031815004+38117-102600SAO  +11034LJ  V0202601N00151015001EN0240001N1+00381+00161100491ADDGD13991+0150099GF107991999051999999001001MD1310071+9999MW1001REMAWY008307 1500
0097724631999991973031818004+38117-102600SAO  +11034LJ  V0202401N00301015001EN0240001N1+01551-00381100331ADDGD13991+0150099GF107991999051999999001001KA1999N+00111MD1610031+9999MW1001REMAWY011603 1500 34
0081724631999991973031821004+38117-102600SAO  +11034LJ  V0200501N003612200019N0240001N1+01881+00111100151ADDGD12991+0750093GF102991999001999999001081MD1710151+9999MW1001REMAWY008715 1008
0097724631999991973031900004+38117-102600SAO  +11034LJ  V0201101N004112200019N0240001N1+01661+00221100141ADDGD12991+0120099GF102991999051999999001001KA1999M+01941MD1510071+9999MW1001REMAWY011507 1500 67
0050724631999991973031903004+38117-102600SAO  +11034LJ  V0200401N00461012001EN0240001N1+01001+00331100391ADDGD14991+0120099GF108991999999999999999999MW1001
0061724631999991973031906004+38117-102600SAO  +11034LJ  V0200401N00411012001EN0240001N1+00831+00161100571ADDGD14991+0120099GF108991999999999999999999MW1001REMAWY00267
0050724631999991973031909004+38117-102600SAO  +11034LJ  V0200101N00411012001EN0240001N1+00331-00271100691ADDGD14991+0120099GF108991999999999999999999MW1001
0061724631999991973031912004+38117-102600SAO  +11034LJ  V0200201N00511009001EN0112001N1+00381+00271100961ADDGD14991+0090099GF108991999999999999999999MW1611REMAWY00237
0115724631999991973031915004+38117-102600SAO  +11034LJ  V0200101N00411010501EN0240001N1+00551+00221101391ADDGD13991+0105099GD23991+0750099GF107991999051999999001999MD1210321+9999MW1001REMAWY008232 1500EQDQ01    003SCOHCG
0148724631999991973031918004+38117-102600SAO  +11034LJ  V0200201N00511012001EN0240001N1+00831+00001101581ADDAA106000591AA224000591GD13991+0120099GD23991+0750099GF107991999051999999001081MD1110191+9999MW1001REMAWY01911902 1508 20002 37EQDQ01  00053PRCP99
0050724631999991973031921004+38117-102600SAO  +11034LJ  V0200401N00511010501EN0240001N1+00941+00271101631ADDGD14991+0105099GF108991999999999999999999MW1001
0061724631999991973032003004+38117-102600SAO  +11034LJ  V0203101N002512200019N0240001N1+00441+00111101721ADDGF100991999999999999999999MD1310141+9999MW1001REMAWY003314
