0088724620230611973010100004+37433-105867SAO  +2297ALS  V0209991C000019999999N0700001N9-01301-01701102871ADDAA106000091GF108991999999999999999999MA1101391999999MD1310051+9999EQDQ01+000020PRSWM2
0074724620230611973010101004+37433-105867SAO  +2297ALS  V0200601N002019999999N0240001N9-01901-02201103151ADDAA106000091GF107991999999999999999999MA1101491999999EQDQ01+000020PRSWM2
0074724620230611973010102004+37433-105867SAO  +2297ALS  V0202801N002019999999N0240001N9-02001-02201103161ADDAA106000091GF107991999999999999999999MA1101491999999EQDQ01+000020PRSWM2
0088724620230611973010103004+37433-105867SAO  +2297ALS  V0202701N003019999999N0240001N9-02001-02201103141ADDAA106000091GF107991999999999999999999MA1101591999999MD1210121+9999EQDQ01+000020PRSWM2
0074724620230611973010104004+37433-105867SAO  +2297ALS  V0203401N001519999999N0240001N9-01801-02101103071ADDAA106000091GF107991999999999999999999MA1101691999999EQDQ01+000020PRSWM2
0084724620230611973010106004+37433-105867SAO  +2297ALS  V0202301N001519999999N0240001N9-01701-01901102991ADDAA106999999MA1101901999999MD1210241+9999MW1701EQDQ01  00003PRCP99Q02  00002PRCP06
008572462023061197301010800D+37433-105867SAO  +2297ALS  V0209991C000019999999N0240001N9-01601-01801102881ADDAA101000095AA206000091GF108991999999999999999999MA1101901999999EQDQ01+000020PRSWM2
005472462023061197301010900E+37450-105867SAO  +2298ALS  V02099999999999999999N999999999-01615+99999999999ADDAA101000095MA1999999077075QNNM11 1 22760S11 1 00003
009172462023061197301011000D+37433-105867SAO  +2297ALS  V0209991C000019999999N0080001N9-01501-01701102851ADDAA101000095AA206999999GF108991999999999999999999MA1102001999999MW1701EQDQ01  00002PRCP06
009172462023061197301011100D+37433-105867SAO  +2297ALS  V0209991C000019999999N0032001N9-01501-01701102851ADDAA101000095AA206999999GF109991999999999999999999MA1102001999999MW1711EQDQ01  00002PRCP06
036572462023061197301011200C+37450-105867SAO  +2298ALS  V0209995C000050061049N0032005N9-01445-01675102965ADDAA101000596AA206999999AA399023091GA1999+006104104GD15085+9999999GD20995+9999999GD30995+9999999GD40995+9999999GF108085999999999999999999MA1102001077145MD1310071+9999MW1715EQDQ01  00002PRCP06N01 04000JPWTH 1QNNE11 1 00710E11 1 00099E11 1 00099E11 1 00099G11 1 00020H11 1 98020K11 1 00002L11 1 00200M11 1 22780N11 1 04000Q11 1 10296S11 1 00006V11 1 01010X11 1 00000
009172462023061197301011300D+37433-105867SAO  +2297ALS  V0209991C000019999999N0032001N9-01401-01601103261ADDAA101000396AA206999999GF109991999999999999999999MA1102101999999MW1711EQDQ01  00002PRCP06
009172462023061197301011400D+37433-105867SAO  +2297ALS  V0203601N003019999999N0032001N9-01401-01601103341ADDAA101000396AA206999999GF109991999999999999999999MA1102171999999MW1711EQDQ01  00002PRCP06
0080724620230611973010114374+37433-105867SAOSP+2297ALS  V0209991C000019999999N0190001N9+99999+99999999999ADDAA106999999GF108991999999999999999999MA1102171999999MW1701EQDQ01  00002PRCP06
042972462023061197301011500C+37450-105867SAO  +2298ALS  V0209995C000050365849N0240005N9-01505-01725103445ADDAA101000095AA206000091GA1999+999999104GA2999+009144064GA3999+036584034GA4999+091444024GD16025+9999999GD22025+9999999GD33015+9999999GD44035+9999999GF108065999999999999999999MA1102171077315MD1210171+9999EQDQ01+000020PRSWM2N01 00000JPWTH 1QNNE11 1 00803E11 1 00202E11 1 00401E11 1 00604G11 1 00120H11 1 98999H11 1 15030H11 1 23120H11 1 37300K11 1 00001L11 1 01500M11 1 22830N11 1 00000Q11 1 10344S11 1 00005V11 1 01008X11 1 00000
008572462023061197301011600D+37433-105867SAO  +2297ALS  V0200601N002519999999N0300001N9-01201-01701103431ADDAA101000095AA206000091GF108991999999999999999999MA1102271999999EQDQ01+000020PRSWM2
008572462023061197301011700D+37433-105867SAO  +2297ALS  V0200301N002519999999N0300001N9-01201-01401103471ADDAA101000095AA206000091GF108991999999999999999999MA1102371999999EQDQ01+000020PRSWM2
034672462023061197301011800C+37450-105867SAO  +2298ALS  V0203605N004150076249N0320005N9-01115-01395103355ADDAA101000095AA206999999GA1999+007624064GD14085+9999999GD20995+9999999GD30995+9999999GD40995+9999999GF108085999999999999999999MA1102371077455MW1701MW2715EQDQ01  00002PRCP06N01 04000JPWTH 1QNNE11 1 00610E11 1 00099E11 1 00099E11 1 00099G11 1 00025H11 1 15025K11 1 00007L11 1 02000M11 1 22870N11 1 04000Q11 1 10335S11 1 00012V11 1 01010X11 1 36008
009172462023061197301011900D+37433-105867SAO  +2297ALS  V0203501N002019999999N0048001N9-00901-01301103231ADDAA101000095AA206999999GF108991999999999999999999MA1102271999999MW1711EQDQ01  00002PRCP06
009172462023061197301012000D+37433-105867SAO  +2297ALS  V0203501N002519999999N0080001N9-00901-01201103101ADDAA101000095AA206999999GF108991999999999999999999MA1102271999999MW1701EQDQ01  00002PRCP06
042972462023061197301012100C+37450-105867SAO  +2298ALS  V0203305N002150076249N0160005N9-00725-01115103035ADDAA101000095AA206000091GA1999+007624064GA2999+999999999GA3999+999999999GA4999+999999999GD14085+9999999GD20005+9999999GD30005+9999999GD40005+9999999GF108065999999999999999999MA1102171077315MD1710121+9999EQDQ01+000020PRSWM2N01 00000JPWTH 1QNNE11 1 00610E11 1 00000E11 1 00000E11 1 00000G11 1 00025H11 1 15025H11 1 00999H11 1 00999H11 1 00999K11 1 00012L11 1 01000M11 1 22830N11 1 00000Q11 1 10303S11 1 00019V11 1 01007X11 1 33004
008572462023061197301012200D+37433-105867SAO  +2297ALS  V0209991C000019999999N0450001N9-00601-01101102951ADDAA101000095AA206000091GF108991999999999999999999MA1102171999999EQDQ01+000020PRSWM2
008572462023061197301012300D+37433-105867SAO  +2297ALS  V0202101N003019999999N0600001N9-00801-01201103011ADDAA101000095AA206000091GF107991999999999999999999MA1102171999999EQDQ01+000020PRSWM2
043172462023061197301020000C+37450-105867SAO  +2298ALS  V0202505N002652200059N0640005N9-01285-01445103125ADDAA101000095AA206000091GA1999+000159064GA2999+999999034GA3999+091444004GA4999+999999999GD11005+9999993GD20005+9999999GD30015+9999999GD40005+9999999GF101005999999999999999999MA1102171077315EQDQ01+000020PRSWM2Q02    003SCCGA1N01 00000JPWTH 1QNNE11 1 00100E11 1 00000E11 1 00001E11 1 00000G11U1 99999H11 1 15999H11 1 23999H11 1 32300H11 1 00999K11 1 00006L11 1 04000M11 1 22830N11 1 00000Q11 1 10312S11 1 00009V11 1 00100X11 1 25005
007272462023061197301020100D+37433-105867SAO  +2297ALS  V0203001N002512200019N0240001N9-01601-01801103271ADDAA101000095AA206000091GF100991999999999999999999MA1102171999999MW1001
007272462023061197301020200D+37433-105867SAO  +2297ALS  V0202401N003019999999N0004001N9-02101-02101103451ADDAA101000095AA206000091GF109991999999999999999999MA1102271999999MW1451
0061724620230611973010202304+37433-105867SAO  +2297ALS  V0203501N004119999999N0002001N9+99999+99999999999ADDAA106000091GF109991999999999999999999MA1102271999999MW1451
035472462023061197301020300C+37450-105867SAO  +2298ALS  V0200105N001550018349N0016005N9-02005-02005103505ADDAA101000095AA206000091GA1999+001834104GD15085+9999999GD20995+9999999GD30995+9999999GD40995+9999999GF108085999999999999999999MA1102271077385MD1310071+9999MW1455EQDQ01+000100PRSWM2N01 07000JPWTH 1QNNE11 1 00710E11 1 00099E11 1 00099E11 1 00099G11 1 00006H11 1 45006K11 1-00004L11 1 00100M11 1 22850N11 1 07000Q11 1 10350S11 1-00004V11 1 01010X11 1 01003
008572462023061197301020400D+37433-105867SAO  +2297ALS  V0201401N001519999999N0016001N9-02201-02201103481ADDAA101000095AA206000091GF109991999999999999999999MA1102271999999EQDQ01+000100PRSWM2
039472462023061197301020600E+37450-105867SAO  +2298ALS  V0202205N001552200059N001600599-02175-02175103395ADDAA101000095GA1999+999999104GA2999+999999999GA3999+999999999GA4999+999999999GD16075+9999999GD20005+9999999GD30005+9999999GD40005+9999999GF107075999999999999999999MA1999999077355MW1455EQDN01 07000JPWTH 1QNNE11 1 00809E11 1 00000E11 1 00000E11 1 00000G11U1 99999H11 1 45999H11 1 00999H11 1 00999H11 1 00999K11 1-00007L11 1 00100M11 1 22840N11 1 07000Q11 1 10339S11 1-00007V11 1 00909X11 1 22003
007272462023061197301020800D+37433-105867SAO  +2297ALS  V0200601N002019999999N0000001N9-02201-02201103221ADDAA101000095AA206000091GF109991999999999999999999MA1102171999999MW1451
005472462023061197301020900E+37450-105867SAO  +2298ALS  V02099999999999999999N999999999-02225+99999999999ADDAA101000095MA1999999077215QNNM11 1 22800S11 1-00008
008572462023061197301021000D+37433-105867SAO  +2297ALS  V0209991C000019999999N0032001N9-01901-02101102891ADDAA101000095AA206000091GF109991999999999999999999MA1102101999999EQDQ01+000100PRSWM2
008572462023061197301021100D+37433-105867SAO  +2297ALS  V0203001N002512200019N0032001N9-02201-02201102991ADDAA101000095AA206000091GF102991999999999999999999MA1102001999999EQDQ01+000100PRSWM2
035472462023061197301021200C+37450-105867SAO  +2298ALS  V0203005N003150009149N0016005N9-02115-02115103065ADDAA101000095AA206000091GA1999+000914104GD15085+9999999GD20995+9999999GD30995+9999999GD40995+9999999GF108085999999999999999999MA1101901077045MD1810171+9999MW1455EQDQ01+000100PRSWM2N01 07000JPWTH 1QNNE11 1 00710E11 1 00099E11 1 00099E11 1 00099G11 1 00003H11 1 45003K11 1-00006L11 1 00100M11 1 22750N11 1 07000Q11 1 10306S11 1-00006V11 1 01010X11 1 30006
0061724620230611973010212154+37433-105867SAOSP+2297ALS  V0203101N002519999999N0008001N9+99999+99999999999ADDAA106000091GF109991999999999999999999MA1101901999999MW1451
007272462023061197301021300D+37433-105867SAO  +2297ALS  V0209991C000019999999N0004001N9-02101-02101103101ADDAA101000095AA206000091GF109991999999999999999999MA1101901999999MW1451
0074724620230611973010213254+37433-105867SAO  +2297ALS  V0203501N002519999999N0016001N9+99999+99999999999ADDAA106000091GF109991999999999999999999MA1101901999999EQDQ01+000100PRSWM2
008572462023061197301021400D+37433-105867SAO  +2297ALS  V0200501N002019999999N0016001N9-02201-02201103291ADDAA101000095AA206000091GF109991999999999999999999MA1101801999999EQDQ01+000100PRSWM2
0074724620230611973010214254+37433-105867SAO  +2297ALS  V0200601N002019999999N0024001N9+99999+99999999999ADDAA106000091GF109991999999999999999999MA1101801999999EQDQ01+000100PRSWM2
042172462023061197301021500C+37450-105867SAO  +2298ALS  V0209995C000050061049N0048005N9-02065-02065103125ADDAA101000095AA206000091GA1999+999999104GA2999+006104064GA3999+999999999GA4999+999999999GD16025+9999999GD24065+9999999GD30005+9999999GD40005+9999999GF108075999999999999999999MA1101801076945MW1445EQDQ01+000100PRSWM2N01 07200JPWTH 1QNNE11 1 00803E11 1 00607E11 1 00000E11 1 00000G11 1 00020H11 1 45999H11 1 15020H11 1 00999H11 1 00999K11 1-00005L11 1 00300M11 1 22720N11 1 07200Q11 1 10312S11 1-00005V11 1 01009X11 1 00000
008572462023061197301021600D+37433-105867SAO  +2297ALS  V0209991C000019999999N0048001N9-01801-01801103101ADDAA101000095AA206000091GF108991999999999999999999MA1101801999999EQDQ01+000100PRSWM2
008572462023061197301021700D+37433-105867SAO  +2297ALS  V0209991C000019999999N0080001N9-01501-01701102961ADDAA101000095AA206000091GF108991999999999999999999MA1101691999999EQDQ01+000100PRSWM2
0080724620230611973010217284+37433-105867SAOSP+2297ALS  V0201301N002019999999N0032001N9+99999+99999999999ADDAA106999999GF109991999999999999999999MA1101691999999MW1711EQDQ01  00002PRCP06
036272462023061197301021800C+37450-105867SAO  +2298ALS  V0201605N002650061049N0032005N9-01395-01395102855ADDAA101000095AA206999999GA1999+006104104GD15085+9999999GD20995+9999999GD30995+9999999GD40995+9999999GF108085999999999999999999MA1101691076875MW1455MW2715EQDQ01    003SCCGA1Q02  00002PRCP06N01 04070JPWTH 1QNNE11 1 00710E11 1 00099E11 1 00099E11 1 00099G11 1 00020H11 1 98020K11 1 00007L11 1 00200M11 1 22700N11 1 04070Q11 1 10285S11 1 00007V11 1 01010X11 1 16005
009172462023061197301021900D+37433-105867SAO  +2297ALS  V0201101N002519999999N0040001N9-01301-01301102691ADDAA101000095AA206999999GF108991999999999999999999MA1101491999999MW1711EQDQ01  00002PRCP06
008572462023061197301022000D+37433-105867SAO  +2297ALS  V0201201N001512200019N0600001N9-01101-01301102351ADDAA101000095AA206000091GF102991999999999999999999MA1101291999999EQDQ01+000020PRSWM2
041972462023061197301022100C+37450-105867SAO  +2298ALS  V0203005N001552200059N0640005N9-00945-01395102205ADDAA101000095AA206000091GA1999+999999084GA2999+999999034GA3999+999999999GA4999+999999999GD10005+9999999GD20005+9999999GD30005+9999999GD40005+9999999GF100005999999999999999999MA1101191076505MD1710371+9999MW1001EQDN01 00000JPWTH 1QNNE11 1 00000E11 1 00000E11 1 00000E11 1 00000G11U1 99999H11 1 11999H11 1 23999H11 1 00999H11 1 00999K11 1 00007L11 1 04000M11 1 22590N11 1 00000Q11 1 10220S11 1 00015V11 1 00000X11 1 30003
007272462023061197301022200D+37433-105867SAO  +2297ALS  V0203101N002012200019N0700001N9-00901-01301102001ADDAA101000095AA206000091GF100991999999999999999999MA1101081999999MW1001
007272462023061197301022300D+37433-105867SAO  +2297ALS  V0203201N003012200019N0700001N9-01101-01401102101ADDAA101000095AA206000091GF100991999999999999999999MA1101081999999MW1001
020772462023061197301030000C+37450-105867SAO  +2298ALS  V0203305N002652200059N0800005N9-01505-01725102225ADDAA101000095AA206000091GF100005999999999999999999MA1100981076365MD1610141+9999MW1001EQDN01 00000JPWTH 1QNNG11U1 99999K11 1 00001L11 1 05000M11 1 22550N11 1 00000Q11 1 10222S11 1 00005V11 1 00000X11 1 33005
007272462023061197301030100D+37433-105867SAO  +2297ALS  V0203301N003612200019N0240001N9-01801-02001102351ADDAA101000095AA206000091GF100991999999999999999999MA1101081999999MW1001
007272462023061197301030200D+37433-105867SAO  +2297ALS  V0203401N003012200019N0240001N9-01901-02201102401ADDAA101000095AA206000091GF100991999999999999999999MA1100981999999MW1001
020772462023061197301030300C+37450-105867SAO  +2298ALS  V0202705N003152200059N0240005N9-02615-02895102605ADDAA101000095AA206000091GF100005999999999999999999MA1100981076365MD1010001+9999MW1001EQDN01 00000JPWTH 1QNNG11U1 99999K11 1-00020L11 1 01500M11 1 22550N11 1 00000Q11 1 10260S11 1-00015V11 1 00000X11 1 27006
008572462023061197301030400D+37433-105867SAO  +2297ALS  V0203001N003019999999N0016001N9-02601-02601102531ADDAA101000095AA206000091GF109991999999999999999999MA1100981999999EQDQ01+000100PRSWM2
041972462023061197301030600C+37450-105867SAO  +2298ALS  V0202005N003152200059N0004005N9-02895-02895102495ADDAA101000095AA206000091GA1999+999999104GA2999+999999999GA3999+999999999GA4999+999999999GD16075+9999999GD20005+9999999GD30005+9999999GD40005+9999999GF107075999999999999999999MA1100981076365MD1310021+9999MW1455EQDN01 07000JPWTH 1QNNE11 1 00809E11 1 00000E11 1 00000E11 1 00000G11U1 99999H11 1 45999H11 1 00999H11 1 00999H11 1 00999K11 1-00020L11 1 00025M11 1 22550N11 1 07000Q11 1 10249S11 1-00020V11 1 00909X11 1 20006
007272462023061197301030800D+37433-105867SAO  +2297ALS  V0209991C000019999999N0000001N9-02901-02901102221ADDAA101000095AA206000091GF109991999999999999999999MA1100881999999MW1451
005472462023061197301030900E+37450-105867SAO  +2298ALS  V02099999999999999999N999999999-02835+99999999999ADDAA101000095MA1999999076305QNNM11 1 22530S11 1-00019
008572462023061197301031000D+37433-105867SAO  +2297ALS  V0209991C000019999999N0160001N9-02401-02701101961ADDAA101000095AA206000091GF108991999999999999999999MA1100881999999EQDQ01+000020PRSWM2
009172462023061197301031100D+37433-105867SAO  +2297ALS  V0209991C000019999999N0048001N9-02101-02301101911ADDAA101000095AA206999999GF109991999999999999999999MA1100881999999MW1711EQDQ01  00002PRCP06
037072462023061197301031200C+37450-105867SAO  +2298ALS  V0209995C000050036649N0048005N9-02225-02505102175ADDAA101000095AA206999999GA1999+003664104GD15085+9999999GD20995+9999999GD30995+9999999GD40995+9999999GF108085999999999999999999MA1100881076305MD1510001+9999MW1715EQDQ01  00003PRCP99Q02  00002PRCP06N01 04000JPWTH 1QNNE11 1 00710E11 1 00099E11 1 00099E11 1 00099G11 1 00012H11 1 98012K11 1-00013L11 1 00300M11 1 22530N11 1 04000Q11 1 10217S11 1-00008V11 1 01010X11 1 00000
009172462023061197301031300D+37433-105867SAO  +2297ALS  V0209991C000019999999N0080001N9-02201-02401102241ADDAA101000095AA206999999GF109991999999999999999999MA1100981999999MW1701EQDQ01  00002PRCP06
009172462023061197301031400D+37433-105867SAO  +2297ALS  V0209991C000019999999N0016001N9-02101-02101102291ADDAA101000095AA206999999GF109991999999999999999999MA1100981999999MW1701EQDQ01  00002PRCP06
036072462023061197301031500C+37450-105867SAO  +2298ALS  V0203605N002150024449N0016005N9-01895-01895102525ADDAA101000095AA206999999GA1999+002444104GD15085+9999999GD20995+9999999GD30995+9999999GD40995+9999999GF108085999999999999999999MA1100981076365MD1210071+9999MW1455MW2715EQDQ01  00002PRCP06N01 04070JPWTH 1QNNE11 1 00710E11 1 00099E11 1 00099E11 1 00099G11 1 00008H11 1 98008K11 1-00002L11 1 00100M11 1 22550N11 1 04070Q11 1 10252S11 1-00002V11 1 01010X11 1 36004
009172462023061197301031600D+37433-105867SAO  +2297ALS  V0209991C000019999999N0016001N9-01701-01701102551ADDAA101000095AA206999999GF109991999999999999999999MA1101081999999MW1711EQDQ01  00002PRCP06
009172462023061197301031700D+37433-105867SAO  +2297ALS  V0200601N001519999999N0016001N9-01701-01701102591ADDAA101000396AA206999999GF109991999999999999999999MA1101081999999MW1711EQDQ01  00002PRCP06
036772462023061197301031800C+37450-105867SAO  +2298ALS  V0202905N001550076249N0024005N9-01565-01725102545ADDAA101000095AA206999999GA1999+999999104GA2999+007624064GD16025+9999999GD24065+9999999GD30995+9999999GD40995+9999999GF108085999999999999999999MA1100981076365MW1715EQDQ01  00002PRCP06N01 04000JPWTH 1QNNE11 1 00803E11 1 00607E11 1 00099E11 1 00099G11 1 00025H11 1 98999H11 1 15025K11 1 00001L11 1 00150M11 1 22550N11 1 04000Q11 1 10254S11 1 00004V11 1 01010X11 1 29003
0080724620230611973010318154+37433-105867SAOSP+2297ALS  V0209991C000019999999N0048001N9+99999+99999999999ADDAA106999999GF108991999999999999999999MA1100981999999MW1701EQDQ01  00002PRCP06
009172462023061197301031900D+37433-105867SAO  +2297ALS  V0202801N001519999999N0080001N9-01401-01601102451ADDAA101000095AA206999999GF108991999999999999999999MA1100981999999MW1701EQDQ01  00002PRCP06
041572462023061197301032100C+37450-105867SAO  +2298ALS  V0209995C000052200059N0480005N9-01005-01395102125ADDAA101000095AA206000091GA1999+009144064GA2999+999999999GA3999+999999999GA4999+999999999GD12025+9999999GD20005+9999999GD30005+9999999GD40005+9999999GF102025999999999999999999MA1100881076265EQDQ01+000020PRSWM2N01 00000JPWTH 1QNNE11 1 00203E11 1 00000E11 1 00000E11 1 00000G11U1 99999H11 1 15030H11 1 00999H11 1 00999H11 1 00999K11 1 00007L11 1 03000M11 1 22520N11 1 00000Q11 1 10212S11 1 00014V11 1 00302X11 1 00000
007272462023061197301032200D+37433-105867SAO  +2297ALS  V0209991C000012200019N0450001N9-00801-01301101951ADDAA101000095AA206000091GF100991999999999999999999MA1100881999999MW1001
007272462023061197301032300D+37433-105867SAO  +2297ALS  V0202601N004112200019N0450001N9-01101-01501102011ADDAA101000095AA206000091GF100991999999999999999999MA1100981999999MW1001
038872462023061197301040000E+37450-105867SAO  +2298ALS  V0203005N004152200059N048000599-01615-01945102255ADDAA101000095GA1999+009144064GA2999+036584034GA3999+999999999GA4999+999999999GD12015+9999999GD22015+9999999GD30005+9999999GD40005+9999999GF102025999999999999999999MA1999999076335EQDN01 00000JPWTH 1QNNE11 1 00201E11 1 00201E11 1 00000E11 1 00000G11U1 99999H11 1 15030H11 1 23120H11 1 00999H11 1 00999K11 1-00003L11 1 03000M11 1 22540N11 1 00000Q11 1 10225S11 1 00003V11 1 00202X11 1 30008
008572462023061197301040100D+37433-105867SAO  +2297ALS  V0203001N002512200019N0240001N9-02001-02201102391ADDAA101000095AA206000091GF102991999999999999999999MA1100981999999EQDQ01+000020PRSWM2
008572462023061197301040200D+37433-105867SAO  +2297ALS  V0203001N002012200019N0240001N9-02301-02601102521ADDAA101000095AA206000091GF102991999999999999999999MA1101081999999EQDQ01+000020PRSWM2
042972462023061197301040300C+37450-105867SAO  +2298ALS  V0202305N003152200059N0240005N9-02615-02895102675ADDAA101000095AA206000091GA1999+009144064GA2999+999999999GA3999+999999999GA4999+999999999GD12025+9999999GD20005+9999999GD30005+9999999GD40005+9999999GF102025999999999999999999MA1101081076435MD1310121+9999EQDQ01+000020PRSWM2N01 00000JPWTH 1QNNE11 1 00202E11 1 00000E11 1 00000E11 1 00000G11U1 99999H11 1 15030H11 1 00999H11 1 00999H11 1 00999K11 1-00020L11 1 01500M11 1 22570N11 1 00000Q11 1 10267S11 1-00015V11 1 00202X11 1 23006
008572462023061197301040400D+37433-105867SAO  +2297ALS  V0202901N002019999999N0160001N9-02701-02701102641ADDAA101000095AA206000091GF109991999999999999999999MA1101191999999EQDQ01+000100PRSWM2
043572462023061197301040600C+37450-105867SAO  +2298ALS  V0202605N002152200059N0080005N9-02835-02835102655ADDAA101000095AA206000091GA1999+999999104GA2999+999999999GA3999+999999999GA4999+999999999GD16035+9999999GD20005+9999999GD30005+9999999GD40005+9999999GF103035999999999999999999MA1101191076505MD1310051+9999MW1445EQDQ01+000100PRSWM2N01 07200JPWTH 1QNNE11 1 00804E11 1 00000E11 1 00000E11 1 00000G11U1 99999H11 1 45999H11 1 00999H11 1 00999H11 1 00999K11 1-00019L11 1 00500M11 1 22590N11 1 07200Q11 1 10265S11 1-00019V11 1 00404X11 1 26004
007272462023061197301040800D+37433-105867SAO  +2297ALS  V0209991C000019999999N0004001N9+99999+99999102511ADDAA101000095AA206000091GF109991999999999999999999MA1101191999999MW1451
005472462023061197301040900E+37450-105867SAO  +2298ALS  V02099999999999999999N999999999-02835+99999999999ADDAA101000095MA1999999076465QNNM11 1 22580S11 1-00019
008572462023061197301041000D+37433-105867SAO  +2297ALS  V0209991C000019999999N0032001N9-02901-03201102351ADDAA101000095AA206000091GF109991999999999999999999MA1101191999999EQDQ01+000100PRSWM2
008572462023061197301041100D+37433-105867SAO  +2297ALS  V0203501N002519999999N0032001N9-02801-02801102551ADDAA101000095AA206000091GF109991999999999999999999MA1101191999999EQDQ01+000100PRSWM2
043572462023061197301041200C+37450-105867SAO  +2298ALS  V0202605N001552200059N0016005N9-02895-02895102755ADDAA101000095AA206000091GA1999+999999104GA2999+999999999GA3999+999999999GA4999+999999999GD16065+9999999GD20005+9999999GD30005+9999999GD40005+9999999GF106065999999999999999999MA1101191076505MD1110031+9999MW1455EQDQ01+000100PRSWM2N01 07000JPWTH 1QNNE11 1 00808E11 1 00000E11 1 00000E11 1 00000G11U1 99999H11 1 45999H11 1 00999H11 1 00999H11 1 00999K11 1-00020L11 1 00100M11 1 22590N11 1 07000Q11 1 10275S11 1-00020V11 1 00808X11 1 26003
004672462023061197301041300D+37433-105867SAO  +2297ALS  V0202801N001519999999N0002001N9-02801-02801102821ADDAA101000095AA206000091MA1101191999999MW1451
007272462023061197301041400D+37433-105867SAO  +2297ALS  V0203401N001519999999N0004001N9-02701-02701102941ADDAA101000095AA206000091GF109991999999999999999999MA1101191999999MW1451
0074724620230611973010414154+37433-105867SAOSP+2297ALS  V0209991C000019999999N0012001N9+99999+99999999999ADDAA106000091GF109991999999999999999999MA1101191999999EQDQ01+000100PRSWM2
0080724620230611973010414304+37433-105867SAO  +2297ALS  V0203101N002019999999N0016001N9+99999+99999999999ADDAA106999999GF109991999999999999999999MA1101191999999MW1701EQDQ01  00002PRCP06
036672462023061197301041500C+37450-105867SAO  +2298ALS  V0209995C000050024449N0016005N9-02335-02335102995ADDAA101000095AA206999999GA1999+002444104GD15085+9999999GD20995+9999999GD30995+9999999GD40995+9999999GF108085999999999999999999MA1101291076535MD1310031+9999MW1455MW2701MW3715EQDQ01  00002PRCP06N01 04070JPWTH 1QNNE11 1 00710E11 1 00099E11 1 00099E11 1 00099G11 1 00008H11 1 98008K11 1-00010L11 1 00100M11 1 22600N11 1 04070Q11 1 10299S11 1-00010V11 1 01010X11 1 00000
009172462023061197301041600D+37433-105867SAO  +2297ALS  V0203301N001519999999N0016001N9-01901-01901102851ADDAA101000095AA206999999GF109991999999999999999999MA1101291999999MW1701EQDQ01  00002PRCP06
0054724620230611973010416154+37433-105867SAOSP+2297ALS  V0203201N002019999999N0016001N9+99999+99999999999ADDAA106999999MA1101291999999MW1701EQDQ01  00002PRCP06
0080724620230611973010416304+37433-105867SAO  +2297ALS  V0203301N002019999999N0080001N9+99999+99999999999ADDAA106999999GF108991999999999999999999MA1101291999999MW1701EQDQ01  00002PRCP06
006572462023061197301041700D+37433-105867SAO  +2297ALS  V0209991C000019999999N0080001N9-01601-01701102821ADDAA101000095AA206999999MA1101291999999MW1701EQDQ01  00002PRCP06
0074724620230611973010417174+37433-105867SAOSP+2297ALS  V0203201N001512200019N0160001N9+99999+99999999999ADDAA106000091GF102991999999999999999999MA1101291999999EQDQ01+000020PRSWM2
040572462023061197301041800C+37450-105867SAO  +2298ALS  V0209995C000052200059N0480005N9-01335-01505102745ADDAA101000095AA206000091GA1999+999999064GA2999+999999999GA3999+999999999GA4999+999999999GD10005+9999999GD20005+9999999GD30005+9999999GD40005+9999999GF100005999999999999999999MA1101291076575MW1001EQDN01 00000JPWTH 1QNNE11 1 00000E11 1 00000E11 1 00000E11 1 00000G11U1 99999H11 1 15999H11 1 00999H11 1 00999H11 1 00999K11 1 00005L11 1 03000M11 1 22610N11 1 00000Q11 1 10274S11 1 00008V11 1 00000X11 1 00000
007272462023061197301041900D+37433-105867SAO  +2297ALS  V0209991C000012200019N0450001N9-00901-01201102441ADDAA101000095AA206000091GF100991999999999999999999MA1101191999999MW1001
008572462023061197301042000D+37433-105867SAO  +2297ALS  V0202101N003612200019N0600001N9-00801-01301102181ADDAA101000095AA206000091GF102991999999999999999999MA1101081999999EQDQ01+000020PRSWM2
042972462023061197301042100C+37450-105867SAO  +2298ALS  V0201905N008252200059N0640005N9-00225-00945101975ADDAA101000095AA206000091GA1999+999999064GA2999+036584034GA3999+091444004GA4999+999999999GD12005+9999999GD21015+9999993GD30015+9999999GD40005+9999999GF102015999999999999999999MA1100981076335MD1710251+9999EQDQ01+000020PRSWM2N01 00000JPWTH 1QNNE11 1 00200E11 1 00101E11 1 00001E11 1 00000G11U1 99999H11 1 15999H11 1 23120H11 1 32300H11 1 00999K11 1 00015L11 1 04000M11 1 22540N11 1 00000Q11 1 10197S11 1 00028V11 1 00201X11 1 19016
008572462023061197301042200D+37433-105867SAO  +2297ALS  V0201701N007712200019N0700001N9-00301-01001101931ADDAA101000095AA206000091GF102991999999999999999999MA1100881999999EQDQ01+000020PRSWM2
008572462023061197301042300D+37433-105867SAO  +2297ALS  V0201701N008712200019N0700001N9-00501-00901102041ADDAA101000095AA206000091GF102991999999999999999999MA1100881999999EQDQ01+000020PRSWM2
042972462023061197301050000C+37450-105867SAO  +2298ALS  V0201705N007752200059N0800005N9-00675-00895102145ADDAA101000095AA206000091GA1999+999999064GA2999+036584034GA3999+091444004GA4999+999999999GD12005+9999999GD21015+9999993GD30025+9999999GD40005+9999999GF102015999999999999999999MA1100981076335MD1510001+9999EQDQ01+000020PRSWM2N01 00000JPWTH 1QNNE11 1 00200E11 1 00101E11 1 00002E11 1 00000G11U1 99999H11 1 15999H11 1 23120H11 1 32300H11 1 00999K11 1 00016L11 1 05000M11 1 22540N11 1 00000Q11 1 10214S11 1 00020V11 1 00301X11 1 17015
008572462023061197301050100D+37433-105867SAO  +2297ALS  V0201701N007712200019N0240001N9-00801-01201102221ADDAA101000095AA206000091GF102991999999999999999999MA1101081999999EQDQ01+000020PRSWM2
008572462023061197301050200D+37433-105867SAO  +2297ALS  V0201701N006712200019N0240001N9-00901-01301102261ADDAA101000095AA206000091GF102991999999999999999999MA1101081999999EQDQ01+000020PRSWM2
042972462023061197301050300C+37450-105867SAO  +2298ALS  V0201705N008252200059N0240005N9-01115-01395102205ADDAA101000095AA206000091GA1999+009144064GA2999+036584034GA3999+091444004GA4999+999999999GD12025+9999999GD22025+9999999GD32015+9999999GD40005+9999999GF104035999999999999999999MA1101081076405MD1310081+9999EQDQ01+000020PRSWM2N01 00000JPWTH 1QNNE11 1 00202E11 1 00202E11 1 00201E11 1 00000G11U1 99999H11 1 15030H11 1 23120H11 1 32300H11 1 00999K11 1 00007L11 1 01500M11 1 22560N11 1 00000Q11 1 10220S11 1 00012V11 1 00504X11 1 17016
007272462023061197301050400D+37433-105867SAO  +2297ALS  V0201801N008212200019N0240001N9-01001-01301101991ADDAA101000095AA206000091GF100991999999999999999999MA1101081999999MW1001
020772462023061197301050600C+37450-105867SAO  +2298ALS  V0201605N003152200059N0240005N9-01505-01675102045ADDAA101000095AA206000091GF100005999999999999999999MA1101191076465MD1310051+9999MW1001EQDN01 00000JPWTH 1QNNG11U1 99999K11 1 00002L11 1 01500M11 1 22580N11 1 00000Q11 1 10204S11 1 00005V11 1 00000X11 1 16006
004672462023061197301050800D+37433-105867SAO  +2297ALS  V0209991C000012200019N0240001N9-01801-02101101811ADDAA101000095GF100991999999999999999999MW1001
005472462023061197301050900E+37450-105867SAO  +2298ALS  V02099999999999999999N999999999-02115+99999999999ADDAA101000095MA1999999076335QNNM11 1 22540S11 1-00006
007272462023061197301051000D+37433-105867SAO  +2297ALS  V0203201N002012200019N0240001N9-02301-02601101741ADDAA101000095AA206000091GF100991999999999999999999MA1100881999999MW1001
008572462023061197301051100D+37433-105867SAO  +2297ALS  V0203301N002019999999N0032001N9-02401-02401101881ADDAA101000095AA206000091GF109991999999999999999999MA1100981999999EQDQ01+000100PRSWM2
043572462023061197301051200C+37450-105867SAO  +2298ALS  V0209995C000052200059N0024005N9-02445-02445101905ADDAA101000095AA206000091GA1999+999999104GA2999+999999999GA3999+999999999GA4999+999999999GD16065+9999999GD20005+9999999GD30005+9999999GD40005+9999999GF106065999999999999999999MA1100881076265MD1810071+9999MW1455EQDQ01+000100PRSWM2N01 07000JPWTH 1QNNE11 1 00808E11 1 00000E11 1 00000E11 1 00000G11U1 99999H11 1 45999H11 1 00999H11 1 00999H11 1 00999K11 1-00012L11 1 00150M11 1 22520N11 1 07000Q11 1 10190S11 1-00012V11 1 00808X11 1 00000
008572462023061197301051300D+37433-105867SAO  +2297ALS  V0202701N002519999999N0048001N9-02401-02401101951ADDAA101000095AA206000091GF109991999999999999999999MA1100881999999EQDQ01+000100PRSWM2
008572462023061197301051400D+37433-105867SAO  +2297ALS  V0202401N002019999999N0080001N9-02301-02301102031ADDAA101000095AA206000091GF107991999999999999999999MA1100981999999EQDQ01+000100PRSWM2
041572462023061197301051500C+37450-105867SAO  +2298ALS  V0201405N003152200059N0480005N9-02395-02675102265ADDAA101000095AA206000091GA1999+999999064GA2999+036584034GA3999+091444004GA4999+999999999GD12005+9999999GD22025+9999999GD30015+9999999GD40005+9999999GF102025999999999999999999MA1101081076435EQDQ01+000020PRSWM2N01 00000JPWTH 1QNNE11 1 00200E11 1 00202E11 1 00001E11 1 00000G11U1 99999H11 1 15999H11 1 23120H11 1 32300H11 1 00999K11 1-00016L11 1 03000M11 1 22570N11 1 00000Q11 1 10226S11 1-00011V11 1 00303X11 1 14006
007272462023061197301051600D+37433-105867SAO  +2297ALS  V0209991C000012200019N0450001N9-01901-02101102201ADDAA101000095AA206000091GF100991999999999999999999MA1101291999999MW1001
007272462023061197301051700D+37433-105867SAO  +2297ALS  V0200801N002012200019N0600001N9-01801-02101102351ADDAA101000095AA206000091GF100991999999999999999999MA1101391999999MW1001
040572462023061197301051800C+37450-105867SAO  +2298ALS  V0200805N003152200059N0640005N9-01285-01505102345ADDAA101000095AA206000091GA1999+999999064GA2999+999999004GA3999+999999999GA4999+999999999GD10005+9999999GD20005+9999999GD30005+9999999GD40005+9999999GF100005999999999999999999MA1101391076675MW1001EQDN01 00000JPWTH 1QNNE11 1 00000E11 1 00000E11 1 00000E11 1 00000G11U1 99999H11 1 15999H11 1 32999H11 1 00999H11 1 00999K11 1 00005L11 1 04000M11 1 22640N11 1 00000Q11 1 10234S11 1 00009V11 1 00000X11 1 08006
008572462023061197301051900D+37433-105867SAO  +2297ALS  V0200801N003612200019N0600001N9-00801-01201102211ADDAA101000095AA206000091GF102991999999999999999999MA1101391999999EQDQ01+000020PRSWM2
008572462023061197301052000D+37433-105867SAO  +2297ALS  V0200801N003019999999N0700001N9-00601-01201102241ADDAA101000095AA206000091GF107991999999999999999999MA1101491999999EQDQ01+000020PRSWM2
042972462023061197301052100C+37450-105867SAO  +2298ALS  V0200705N003152200059N0800005N9-00445-01175102305ADDAA101000095AA206000091GA1999+999999084GA2999+091444004GA3999+999999999GA4999+999999999GD13005+9999993GD20065+9999999GD30005+9999999GD40005+9999999GF106005999999999999999999MA1101491076705MD1310031+9999EQDQ01+000020PRSWM2N01 00000JPWTH 1QNNE11 1 00300E11 1 00007E11 1 00000E11 1 00000G11U1 99999H11 1 11999H11 1 32300H11 1 00999H11 1 00999K11 1 00011L11 1 05000M11 1 22650N11 1 00000Q11 1 10230S11 1 00024V11 1 00700X11 1 07006
008572462023061197301052200D+37433-105867SAO  +2297ALS  V0200701N003619999999N0700001N9-00501-01201102451ADDAA101000095AA206000091GF107991999999999999999999MA1101491999999EQDQ01+000020PRSWM2
008572462023061197301052300D+37433-105867SAO  +2297ALS  V0201501N002519999999N0700001N9-00601-01201102571ADDAA101000095AA206000091GF107991999999999999999999MA1101591999999EQDQ01+000020PRSWM2
042972462023061197301060000C+37450-105867SAO  +2298ALS  V0201705N003152200059N0800005N9-01065-01445102755ADDAA101000095AA206000091GA1999+999999064GA2999+036584034GA3999+091444004GA4999+999999999GD12005+9999999GD23015+9999993GD30065+9999999GD40005+9999999GF107025999999999999999999MA1101591076805MD1110101+9999EQDQ01+000020PRSWM2N01 00000JPWTH 1QNNE11 1 00200E11 1 00301E11 1 00008E11 1 00000G11U1 99999H11 1 15999H11 1 23120H11 1 32300H11 1 00999K11 1 00006L11 1 05000M11 1 22680N11 1 00000Q11 1 10275S11 1 00013V11 1 00902X11 1 17006
008572462023061197301060100D+37433-105867SAO  +2297ALS  V0202801N002019999999N0240001N9-01401-01601102961ADDAA101000095AA206000091GF107991999999999999999999MA1101691999999EQDQ01+000020PRSWM2
008572462023061197301060200D+37433-105867SAO  +2297ALS  V0203101N003019999999N0240001N9-01701-02001103121ADDAA101000095AA206000091GF108991999999999999999999MA1101801999999EQDQ01+000020PRSWM2
042972462023061197301060300C+37450-105867SAO  +2298ALS  V0201605N001552200059N0240005N9-01945-02175103305ADDAA101000095AA206000091GA1999+036584034GA2999+091444024GA3999+999999999GA4999+999999999GD12025+9999999GD24065+9999993GD30005+9999999GD40005+9999999GF108035999999999999999999MA1101801076975MD1310151+9999EQDQ01+000020PRSWM2N01 00000JPWTH 1QNNE11 1 00203E11 1 00507E11 1 00000E11 1 00000G11U1 99999H11 1 23120H11 1 37300H11 1 00999H11 1 00999K11 1-00007L11 1 01500M11 1 22730N11 1 00000Q11 1 10330S11 1-00003V11 1 01004X11 1 16003
008572462023061197301060400D+37433-105867SAO  +2297ALS  V0209991C000012200019N0240001N9-02101-02301103091ADDAA101000095AA206000091GF102991999999999999999999MA1101801999999EQDQ01+000020PRSWM2
020772462023061197301060600C+37450-105867SAO  +2298ALS  V0202605N002652200059N0240005N9-02505-02785103095ADDAA101000095AA206000091GF100005999999999999999999MA1101801076975MD1410001+9999MW1001EQDN01 00000JPWTH 1QNNG11U1 99999K11 1-00018L11 1 01500M11 1 22730N11 1 00000Q11 1 10309S11 1-00013V11 1 00000X11 1 26005
007272462023061197301060800D+37433-105867SAO  +2297ALS  V0209991C000019999999N0160001N9-02601-02901102851ADDAA101000095AA206000091GF109991999999999999999999MA1101801999999MW1001
005472462023061197301060900E+37450-105867SAO  +2298ALS  V02099999999999999999N999999999-02675+99999999999ADDAA101000095MA1999999077015QNNM11 1 22740S11 1-00016
008572462023061197301061000D+37433-105867SAO  +2297ALS  V0209991C000019999999N0016001N9-02701-02701102901ADDAA101000095AA206000091GF109991999999999999999999MA1101901999999EQDQ01+000100PRSWM2
007272462023061197301061100D+37433-105867SAO  +2297ALS  V0209991C000019999999N0008001N9-02501-02501102881ADDAA101000095AA206000091GF109991999999999999999999MA1101801999999MW1451
0074724620230611973010611154+37433-105867SAOSP+2297ALS  V0200701N001519999999N0016001N9+99999+99999999999ADDAA106000091GF109991999999999999999999MA1101801999999EQDQ01+000100PRSWM2
043572462023061197301061200C+37450-105867SAO  +2298ALS  V0209995C000052200059N0016005N9-02445-02445102975ADDAA101000095AA206000091GA1999+999999104GA2999+999999999GA3999+999999999GA4999+999999999GD16045+9999999GD20005+9999999GD30005+9999999GD40005+9999999GF104045999999999999999999MA1101801076975MD1810021+9999MW1445EQDQ01+000100PRSWM2N01 07200JPWTH 1QNNE11 1 00805E11 1 00000E11 1 00000E11 1 00000G11U1 99999H11 1 45999H11 1 00999H11 1 00999H11 1 00999K11 1-00012L11 1 00100M11 1 22730N11 1 07200Q11 1 10297S11 1-00012V11 1 00505X11 1 00000
008572462023061197301061300D+37433-105867SAO  +2297ALS  V0209991C000019999999N0012001N9-02601-02601103101ADDAA101000095AA206000091GF109991999999999999999999MA1101801999999EQDQ01+000100PRSWM2
008572462023061197301061400D+37433-105867SAO  +2297ALS  V0209991C000019999999N0032001N9-02601-02601103381ADDAA101000095AA206000091GF108991999999999999999999MA1101901999999EQDQ01+000100PRSWM2
042972462023061197301061500C+37450-105867SAO  +2298ALS  V0209995C000050914449N0320005N9-02505-02785103445ADDAA101000095AA206000091GA1999+036584034GA2999+091444024GA3999+999999999GA4999+999999999GD12045+9999999GD24045+9999999GD30005+9999999GD40005+9999999GF108065999999999999999999MA1101901077045MD1310071+9999EQDQ01+000020PRSWM2N01 00000JPWTH 1QNNE11 1 00205E11 1 00605E11 1 00000E11 1 00000G11 1 00300H11 1 23120H11 1 37300H11 1 00999H11 1 00999K11 1-00018L11 1 02000M11 1 22750N11 1 00000Q11 1 10344S11 1-00013V11 1 01008X11 1 00000
008572462023061197301061600D+37433-105867SAO  +2297ALS  V0209991C000019999999N0450001N9-02201-02601103431ADDAA101000095AA206000091GF108991999999999999999999MA1101901999999EQDQ01+000020PRSWM2
008572462023061197301061700D+37433-105867SAO  +2297ALS  V0209991C000019999999N0600001N9-01801-02101103301ADDAA101000095AA206000091GF108991999999999999999999MA1101901999999EQDQ01+000020PRSWM2
042972462023061197301061800C+37450-105867SAO  +2298ALS  V0202205N001552200059N0640005N9-01395-01675103105ADDAA101000095AA206000091GA1999+999999034GA2999+091444024GA3999+999999999GA4999+999999999GD14005+9999993GD20085+9999999GD30005+9999999GD40005+9999999GF108035999999999999999999MA1101801076975MD1810081+9999EQDQ01+000020PRSWM2N01 00000JPWTH 1QNNE11 1 00500E11 1 00010E11 1 00000E11 1 00000G11U1 99999H11 1 23999H11 1 37300H11 1 00999H11 1 00999K11 1 00002L11 1 04000M11 1 22730N11 1 00000Q11 1 10310S11 1 00007V11 1 01004X11 1 22003
008572462023061197301061900D+37433-105867SAO  +2297ALS  V0209991C000019999999N0600001N9-01201-01601102861ADDAA101000095AA206000091GF108991999999999999999999MA1101591999999EQDQ01+000020PRSWM2
008572462023061197301062000D+37433-105867SAO  +2297ALS  V0203601N002519999999N0600001N9-01201-01601102761ADDAA101000095AA206000091GF108991999999999999999999MA1101491999999EQDQ01+000020PRSWM2
042972462023061197301062100C+37450-105867SAO  +2298ALS  V0203405N003152200059N0640005N9-00945-01395102655ADDAA101000095AA206000091GA1999+091444024GA2999+999999999GA3999+999999999GA4999+999999999GD14085+9999993GD20005+9999999GD30005+9999999GD40005+9999999GF108045999999999999999999MA1101391076675MD1710291+9999EQDQ01+000020PRSWM2N01 00000JPWTH 1QNNE11 1 00510E11 1 00000E11 1 00000E11 1 00000G11U1 99999H11 1 37300H11 1 00999H11 1 00999H11 1 00999K11 1 00007L11 1 04000M11 1 22640N11 1 00000Q11 1 10265S11 1 00015V11 1 01005X11 1 34006
008572462023061197301062200D+37433-105867SAO  +2297ALS  V0209991C000019999999N0600001N9-00901-01501102621ADDAA101000095AA206000091GF108991999999999999999999MA1101391999999EQDQ01+000020PRSWM2
008572462023061197301062300D+37433-105867SAO  +2297ALS  V0209991C000019999999N0600001N9-01001-01601102591ADDAA101000095AA206000091GF108991999999999999999999MA1101391999999EQDQ01+000020PRSWM2
042972462023061197301070000C+37450-105867SAO  +2298ALS  V0200105N002650914449N0640005N9-01175-01675102585ADDAA101000095AA206000091GA1999+999999034GA2999+091444024GA3999+999999999GA4999+999999999GD14005+9999999GD20085+9999999GD30005+9999999GD40005+9999999GF108065999999999999999999MA1101391076635MD1610051+9999EQDQ01+000020PRSWM2N01 00000JPWTH 1QNNE11 1 00600E11 1 00010E11 1 00000E11 1 00000G11 1 00300H11 1 23999H11 1 37300H11 1 00999H11 1 00999K11 1 00002L11 1 04000M11 1 22630N11 1 00000Q11 1 10258S11 1 00011V11 1 01008X11 1 01005
008572462023061197301070100D+37433-105867SAO  +2297ALS  V0203401N003019999999N0240001N9-01401-01801102661ADDAA101000095AA206000091GF108991999999999999999999MA1101391999999EQDQ01+000020PRSWM2
008572462023061197301070200D+37433-105867SAO  +2297ALS  V0209991C000019999999N0240001N9-01601-01901102771ADDAA101000095AA206000091GF108991999999999999999999MA1101391999999EQDQ01+000020PRSWM2
042972462023061197301070300C+37450-105867SAO  +2298ALS  V0203105N002650914449N0240005N9-01785-02065102825ADDAA101000095AA206000091GA1999+036584034GA2999+091444024GA3999+999999999GA4999+999999999GD12015+9999999GD24075+9999999GD30005+9999999GD40005+9999999GF108075999999999999999999MA1101391076605MD1610021+9999EQDQ01+000020PRSWM2N01 00000JPWTH 1QNNE11 1 00201E11 1 00609E11 1 00000E11 1 00000G11 1 00300H11 1 23120H11 1 37300H11 1 00999H11 1 00999K11 1-00005L11 1 01500M11 1 22620N11 1 00000Q11 1 10282S11 1 00000V11 1 01009X11 1 31005
008572462023061197301070400D+37433-105867SAO  +2297ALS  V0203101N002019999999N0240001N9-01801-02101102841ADDAA101000095AA206000091GF107991999999999999999999MA1101391999999EQDQ01+000020PRSWM2
020772462023061197301070600C+37450-105867SAO  +2298ALS  V0202905N002152200059N0240005N9-02225-02445102545ADDAA101000095AA206000091GF100005999999999999999999MA1101291076575MD1810051+9999MW1001EQDN01 00000JPWTH 1QNNG11U1 99999K11 1-00012L11 1 01500M11 1 22610N11 1 00000Q11 1 10254S11 1-00008V11 1 00000X11 1 29004
005472462023061197301070900E+37450-105867SAO  +2298ALS  V02099999999999999999N999999999-02615+99999999999ADDAA101000095MA1999999076535QNNM11 1 22600S11 1-00015
007272462023061197301071000D+37433-105867SAO  +2297ALS  V0209991C000012200019N0240001N9-02701-02901102411ADDAA101000095AA206000091GF100991999999999999999999MA1101191999999MW1001
007272462023061197301071100D+37433-105867SAO  +2297ALS  V0209991C000019999999N0008001N9-02601-02601102421ADDAA101000095AA206000091GF109991999999999999999999MA1101191999999MW1451
042572462023061197301071200C+37450-105867SAO  +2298ALS  V0203205N001552200059N0008005N9-02675-02675102505ADDAA101000095AA206000091GA1999+999999104GA2999+999999999GA3999+999999999GA4999+999999999GD16045+9999999GD20005+9999999GD30005+9999999GD40005+9999999GF104045999999999999999999MA1101191076505MD1610021+9999MW1445MW2451EQDN01 07200JPWTH 1QNNE11 1 00805E11 1 00000E11 1 00000E11 1 00000G11U1 99999H11 1 45999H11 1 00999H11 1 00999H11 1 00999K11 1-00016L11 1 00050M11 1 22590N11 1 07200Q11 1 10250S11 1-00016V11 1 00505X11 1 32003
0074724620230611973010712284+37433-105867SAOSP+2297ALS  V0209991C000019999999N0016001N9+99999+99999999999ADDAA106000091GF109991999999999999999999MA1101191999999EQDQ01+000100PRSWM2
008572462023061197301071300D+37433-105867SAO  +2297ALS  V0200101N003019999999N0016001N9-02801-02801102661ADDAA101000095AA206000091GF109991999999999999999999MA1101291999999EQDQ01+000100PRSWM2
009172462023061197301071400D+37433-105867SAO  +2297ALS  V0203601N001519999999N0048001N9-02201-02201102551ADDAA101000095AA206999999GF108991999999999999999999MA1101291999999MW1701EQDQ01  00002PRCP06
0080724620230611973010714294+37433-105867SAOSP+2297ALS  V0209991C000019999999N0120001N9+99999+99999999999ADDAA106999999GF109991999999999999999999MA1101291999999MW1711EQDQ01  00002PRCP06
037372462023061197301071500C+37450-105867SAO  +2298ALS  V0209995C000050091449N0192005N9-02005-02285102665ADDAA101000095AA206999999GA1999+003054074GA2999+009144064GD12035+9999999GD24055+9999999GD30995+9999999GD40995+9999999GF108085999999999999999999MA1101391076675MW1701MW2715EQDQ01  00002PRCP06N01 04000JPWTH 1QNNE11 1 00204E11 1 00606E11 1 00099E11 1 00099G11 1 00030H11 1 16010H11 1 15030K11 1-00009L11 1 01200M11 1 22640N11 1 04000Q11 1 10266S11 1-00004V11 1 01010X11 1 00000
0074724620230611973010715154+37433-105867SAOSP+2297ALS  V0202401N004112200019N0400001N9+99999+99999999999ADDAA106000091GF102991999999999999999999MA1101391999999EQDQ01+000020PRSWM2
008572462023061197301071600D+37433-105867SAO  +2297ALS  V0200101N003012200019N0450001N9-02101-02401102741ADDAA101000095AA206000091GF102991999999999999999999MA1101391999999EQDQ01+000020PRSWM2
007272462023061197301071700D+37433-105867SAO  +2297ALS  V0200301N002512200019N0600001N9-01801-02101102741ADDAA101000095AA206000091GF100991999999999999999999MA1101491999999MW1001
040572462023061197301071800C+37450-105867SAO  +2298ALS  V0201305N001552200059N0640005N9-01225-01675102565ADDAA101000095AA206000091GA1999+999999064GA2999+999999999GA3999+999999999GA4999+999999999GD10005+9999999GD20005+9999999GD30005+9999999GD40005+9999999GF100005999999999999999999MA1101391076675MW1001EQDN01 00000JPWTH 1QNNE11 1 00000E11 1 00000E11 1 00000E11 1 00000G11U1 99999H11 1 15999H11 1 00999H11 1 00999H11 1 00999K11 1 00002L11 1 04000M11 1 22640N11 1 00000Q11 1 10256S11 1 00010V11 1 00000X11 1 13003
007272462023061197301071900D+37433-105867SAO  +2297ALS  V0201001N001512200019N0600001N9-01101-01501102441ADDAA101000095AA206000091GF100991999999999999999999MA1101391999999MW1001
007272462023061197301072000D+37433-105867SAO  +2297ALS  V0201801N002012200019N0600001N9-00801-01401102331ADDAA101000095AA206000091GF100991999999999999999999MA1101291999999MW1001
041972462023061197301072100C+37450-105867SAO  +2298ALS  V0201105N001552200059N0800005N9-00725-01395102355ADDAA101000095AA206000091GA1999+999999064GA2999+999999999GA3999+999999999GA4999+999999999GD10005+9999999GD20005+9999999GD30005+9999999GD40005+9999999GF100005999999999999999999MA1101291076575MD1610121+9999MW1001EQDN01 00000JPWTH 1QNNE11 1 00000E11 1 00000E11 1 00000E11 1 00000G11U1 99999H11 1 15999H11 1 00999H11 1 00999H11 1 00999K11 1 00007L11 1 05000M11 1 22610N11 1 00000Q11 1 10235S11 1 00019V11 1 00000X11 1 11003
007272462023061197301072200D+37433-105867SAO  +2297ALS  V0203001N001512200019N0700001N9-00701-01201102391ADDAA101000095AA206000091GF100991999999999999999999MA1101291999999MW1001
007272462023061197301072300D+37433-105867SAO  +2297ALS  V0202401N002012200019N0700001N9-00801-01301102411ADDAA101000095AA206000091GF100991999999999999999999MA1101291999999MW1001
041972462023061197301080000C+37450-105867SAO  +2298ALS  V0203005N003152200059N0800005N9-01065-01505102645ADDAA101000095AA206000091GA1999+999999064GA2999+999999034GA3999+999999999GA4999+999999999GD10005+9999999GD20005+9999999GD30005+9999999GD40005+9999999GF100005999999999999999999MA1101391076635MD1310081+9999MW1001EQDN01 00000JPWTH 1QNNE11 1 00000E11 1 00000E11 1 00000E11 1 00000G11U1 99999H11 1 15999H11 1 23999H11 1 00999H11 1 00999K11 1 00005L11 1 05000M11 1 22630N11 1 00000Q11 1 10264S11 1 00013V11 1 00000X11 1 30006
007272462023061197301080100D+37433-105867SAO  +2297ALS  V0202001N002012200019N0240001N9-01701-01801102961ADDAA101000095AA206000091GF100991999999999999999999MA1101491999999MW1001
007272462023061197301080200D+37433-105867SAO  +2297ALS  V0202401N002512200019N0240001N9-01901-02201102901ADDAA101000095AA206000091GF100991999999999999999999MA1101491999999MW1001
020772462023061197301080300C+37450-105867SAO  +2298ALS  V0201105N001552200059N0240005N9-02285-02505103005ADDAA101000095AA206000091GF100005999999999999999999MA1101591076775MD1110141+9999MW1001EQDN01 00000JPWTH 1QNNG11U1 99999K11 1-00013L11 1 01500M11 1 22670N11 1 00000Q11 1 10300S11 1-00009V11 1 00000X11 1 11003
007272462023061197301080400D+37433-105867SAO  +2297ALS  V0203101N001512200019N0240001N9-02401-02701103111ADDAA101000095AA206000091GF100991999999999999999999MA1101591999999MW1001
020772462023061197301080600C+37450-105867SAO  +2298ALS  V0203505N002152200059N0240005N9-02725-03005102875ADDAA101000095AA206000091GF100005999999999999999999MA1101591076775MD1010001+9999MW1001EQDN01 00000JPWTH 1QNNG11U1 99999K11 1-00022L11 1 01500M11 1 22670N11 1 00000Q11 1 10287S11 1-00017V11 1 00000X11 1 35004
007272462023061197301080800D+37433-105867SAO  +2297ALS  V0203101N003012200019N0240001N9-02901-03201102861ADDAA101000095AA206000091GF100991999999999999999999MA1101591999999MW1001
005472462023061197301080900E+37450-105867SAO  +2298ALS  V02099999999999999999N999999999-02945+99999999999ADDAA101000095MA1999999076875QNNM11 1 22700S11 1-00021
008572462023061197301081100D+37433-105867SAO  +2297ALS  V0203101N002519999999N0012001N9-02901-02901103001ADDAA101000095AA206000091GF109991999999999999999999MA1101801999999EQDQ01+000100PRSWM2
043572462023061197301081200C+37450-105867SAO  +2298ALS  V0209995C000052200059N0013005N9-02895-02895103105ADDAA101000095AA206000091GA1999+999999104GA2999+999999999GA3999+999999999GA4999+999999999GD16065+9999999GD20005+9999999GD30005+9999999GD40005+9999999GF106065999999999999999999MA1101801076975MD1110101+9999MW1455EQDQ01+000100PRSWM2N01 07000JPWTH 1QNNE11 1 00807E11 1 00000E11 1 00000E11 1 00000G11U1 99999H11 1 45999H11 1 00999H11 1 00999H11 1 00999K11 1-00020L11 1 00081M11 1 22730N11 1 07000Q11 1 10310S11 1-00020V11 1 00707X11 1 00000
007272462023061197301081300D+37433-105867SAO  +2297ALS  V0201201N001519999999N0008001N9-02901-02901103391ADDAA101000095AA206000091GF109991999999999999999999MA1101801999999MW1451
0061724620230611973010813304+37433-105867SAO  +2297ALS  V0202001N002019999999N0004001N9+99999+99999999999ADDAA106000091GF109991999999999999999999MA1101901999999MW1451
007272462023061197301081400D+37433-105867SAO  +2297ALS  V0202101N002019999999N0004001N9-02801-02801103531ADDAA101000095AA206000091GF109991999999999999999999MA1101901999999MW1451
0061724620230611973010814154+37433-105867SAOSP+2297ALS  V0209991C000019999999N0002001N9+99999+99999999999ADDAA106000091GF109991999999999999999999MA1101901999999MW1451
041972462023061197301081500C+37450-105867SAO  +2298ALS  V0209995C000052200059N0004005N9-02785-02785103755ADDAA101000095AA206000091GA1999+999999104GA2999+999999999GA3999+999999999GA4999+999999999GD16075+9999999GD20005+9999999GD30005+9999999GD40005+9999999GF107075999999999999999999MA1101901077075MD1310101+9999MW1455EQDN01 07000JPWTH 1QNNE11 1 00809E11 1 00000E11 1 00000E11 1 00000G11U1 99999H11 1 45999H11 1 00999H11 1 00999H11 1 00999K11 1-00018L11 1 00025M11 1 22760N11 1 07000Q11 1 10375S11 1-00018V11 1 00909X11 1 00000
008572462023061197301081600D+37433-105867SAO  +2297ALS  V0209991C000019999999N0012001N9-02501-02501103751ADDAA101000095AA206000091GF109991999999999999999999MA1102001999999EQDQ01+000100PRSWM2
0074724620230611973010816084+37433-105867SAOSP+2297ALS  V0209991C000019999999N0024001N9+99999+99999999999ADDAA106000091GF109991999999999999999999MA1102001999999EQDQ01+000100PRSWM2
008572462023061197301081700D+37433-105867SAO  +2297ALS  V0209991C000019999999N0032001N9-02001-02001103611ADDAA101000095AA206000091GF109991999999999999999999MA1102001999999EQDQ01+000100PRSWM2
0074724620230611973010817104+37433-105867SAOSP+2297ALS  V0209991C000019999999N0048001N9+99999+99999999999ADDAA106000091GF107991999999999999999999MA1102001999999EQDQ01+000100PRSWM2
0074724620230611973010817254+37433-105867SAO  +2297ALS  V0209991C000019999999N0160001N9+99999+99999999999ADDAA106000091GF107991999999999999999999MA1102001999999EQDQ01+000020PRSWM2
040572462023061197301081800C+37450-105867SAO  +2298ALS  V0209995C000052200059N0480005N9-01675-01835103515ADDAA101000095AA206000091GA1999+999999074GA2999+999999004GA3999+999999999GA4999+999999999GD10005+9999999GD20005+9999999GD30005+9999999GD40005+9999999GF100005999999999999999999MA1102001077115MW1001EQDN01 00000JPWTH 1QNNE11 1 00000E11 1 00000E11 1 00000E11 1 00000G11U1 99999H11 1 16999H11 1 32999H11 1 00999H11 1 00999K11 1-00001L11 1 03000M11 1 22770N11 1 00000Q11 1 10351S11 1 00002V11 1 00000X11 1 00000
007272462023061197301081900D+37433-105867SAO  +2297ALS  V0209991C000012200019N0450001N9-01401-01801103271ADDAA101000095AA206000091GF100991999999999999999999MA1101901999999MW1001
008572462023061197301082000D+37433-105867SAO  +2297ALS  V0201601N002012200019N0600001N9-01201-01601103151ADDAA101000095AA206000091GF102991999999999999999999MA1101801999999EQDQ01+000020PRSWM2
042972462023061197301082100C+37450-105867SAO  +2298ALS  V0209995C000052200059N0640005N9-01005-01615103085ADDAA101000095AA206000091GA1999+091444004GA2999+999999999GA3999+999999999GA4999+999999999GD11015+9999993GD20005+9999999GD30005+9999999GD40005+9999999GF101005999999999999999999MA1101691076905MD1710221+9999EQDQ01+000020PRSWM2N01 00000JPWTH 1QNNE11 1 00101E11 1 00000E11 1 00000E11 1 00000G11U1 99999H11 1 32300H11 1 00999H11 1 00999H11 1 00999K11 1 00003L11 1 04000M11 1 22710N11 1 00000Q11 1 10308S11 1 00014V11 1 00100X11 1 00000
008572462023061197301082200D+37433-105867SAO  +2297ALS  V0209991C000012200019N0600001N9-00701-01501102991ADDAA101000095AA206000091GF102991999999999999999999MA1101691999999EQDQ01+000020PRSWM2
008572462023061197301082300D+37433-105867SAO  +2297ALS  V0202801N002512200019N0600001N9-00901-01401103001ADDAA101000095AA206000091GF102991999999999999999999MA1101691999999EQDQ01+000020PRSWM2
041972462023061197301090000C+37450-105867SAO  +2298ALS  V0203205N002152200059N0640005N9-01225-01785103165ADDAA101000095AA206000091GA1999+999999004GA2999+999999999GA3999+999999999GA4999+999999999GD10005+9999999GD20005+9999999GD30005+9999999GD40005+9999999GF100005999999999999999999MA1101801076945MD1310051+9999MW1001EQDN01 00000JPWTH 1QNNE11 1 00000E11 1 00000E11 1 00000E11 1 00000G11U1 99999H11 1 32999H11 1 00999H11 1 00999H11 1 00999K11 1 00000L11 1 04000M11 1 22720N11 1 00000Q11 1 10316S11 1 00010V11 1 00000X11 1 32004
007272462023061197301090100D+37433-105867SAO  +2297ALS  V0209991C000012200019N0240001N9-01701-02101103391ADDAA101000095AA206000091GF100991999999999999999999MA1101801999999MW1001
007272462023061197301090200D+37433-105867SAO  +2297ALS  V0202701N002512200019N0240001N9-02101-02301103551ADDAA101000095AA206000091GF100991999999999999999999MA1101901999999MW1001
020772462023061197301090300C+37450-105867SAO  +2298ALS  V0202605N002652200059N0240005N9-02395-02675103795ADDAA101000095AA206000091GF100005999999999999999999MA1101901077075MD1210121+9999MW1001EQDN01 00000JPWTH 1QNNG11U1 99999K11 1-00016L11 1 01500M11 1 22760N11 1 00000Q11 1 10379S11 1-00011V11 1 00000X11 1 26005
007272462023061197301090400D+37433-105867SAO  +2297ALS  V0202901N002012200019N0240001N9-02401-02701103691ADDAA101000095AA206000091GF100991999999999999999999MA1101901999999MW1001
043572462023061197301090600C+37450-105867SAO  +2298ALS  V0200305N001552200059N0096005N9-02895-02895103515ADDAA101000095AA206000091GA1999+999999104GA2999+999999999GA3999+999999999GA4999+999999999GD16055+9999999GD20005+9999999GD30005+9999999GD40005+9999999GF105055999999999999999999MA1101901077075MD1410001+9999MW1455EQDQ01+000100PRSWM2N01 07000JPWTH 1QNNE11 1 00806E11 1 00000E11 1 00000E11 1 00000G11U1 99999H11 1 45999H11 1 00999H11 1 00999H11 1 00999K11 1-00020L11 1 00600M11 1 22760N11 1 07000Q11 1 10351S11 1-00020V11 1 00606X11 1 03003
007272462023061197301090800D+37433-105867SAO  +2297ALS  V0202701N002012200019N0240001N9-02701-03001103251ADDAA101000095AA206000091GF100991999999999999999999MA1101901999999MW1001
005472462023061197301090900E+37450-105867SAO  +2298ALS  V02099999999999999999N999999999-02785+99999999999ADDAA101000095MA1999999077075QNNM11 1 22760S11 1-00018
007272462023061197301091000D+37433-105867SAO  +2297ALS  V0201901N002012200019N0240001N9-02801-03101103151ADDAA101000095AA206000091GF100991999999999999999999MA1101901999999MW1001
007272462023061197301091100D+37433-105867SAO  +2297ALS  V0201701N002512200019N0240001N9-02601-02901103061ADDAA101000095AA206000091GF100991999999999999999999MA1101901999999MW1001
043572462023061197301091200C+37450-105867SAO  +2298ALS  V0200805N001552200059N0032005N9-02725-02725103175ADDAA101000095AA206000091GA1999+999999104GA2999+999999999GA3999+999999999GA4999+999999999GD16035+9999999GD20005+9999999GD30005+9999999GD40005+9999999GF103035999999999999999999MA1101901077015MD1810071+9999MW1445EQDQ01+000100PRSWM2N01 07200JPWTH 1QNNE11 1 00804E11 1 00000E11 1 00000E11 1 00000G11U1 99999H11 1 45999H11 1 00999H11 1 00999H11 1 00999K11 1-00017L11 1 00200M11 1 22740N11 1 07200Q11 1 10317S11 1-00017V11 1 00404X11 1 08003
008572462023061197301091300D+37433-105867SAO  +2297ALS  V0209991C000019999999N0080001N9-02601-02601103261ADDAA101000095AA206000091GF107991999999999999999999MA1101801999999EQDQ01+000100PRSWM2
008572462023061197301091400D+37433-105867SAO  +2297ALS  V0209991C000019999999N0450001N9-02401-02701103401ADDAA101000095AA206000091GF108991999999999999999999MA1101901999999EQDQ01+000020PRSWM2
041572462023061197301091500C+37450-105867SAO  +2298ALS  V0209995C000050365849N0480005N9-02225-02505103485ADDAA101000095AA206000091GA1999+009144064GA2999+036584034GA3999+091444024GA4999+999999999GD12025+9999999GD23045+9999999GD34025+9999999GD40005+9999999GF108065999999999999999999MA1101901077015EQDQ01+000020PRSWM2N01 00000JPWTH 1QNNE11 1 00202E11 1 00405E11 1 00603E11 1 00000G11 1 00120H11 1 15030H11 1 23120H11 1 37300H11 1 00999K11 1-00013L11 1 03000M11 1 22740N11 1 00000Q11 1 10348S11 1-00008V11 1 01008X11 1 00000
008572462023061197301091600D+37433-105867SAO  +2297ALS  V0209991C000019999999N0450001N9-02001-02201103411ADDAA101000095AA206000091GF108991999999999999999999MA1101901999999EQDQ01+000020PRSWM2
008572462023061197301091700D+37433-105867SAO  +2297ALS  V0209991C000019999999N0450001N9-01601-01901103311ADDAA101000095AA206000091GF108991999999999999999999MA1101901999999EQDQ01+000020PRSWM2
0074724620230611973010917104+37433-105867SAOSP+2297ALS  V0209991C000019999999N0450001N9+99999+99999999999ADDAA106000091GF108991999999999999999999MA1101801999999EQDQ01+000020PRSWM2
036172462023061197301091800C+37450-105867SAO  +2298ALS  V0209995C000050061049N0640005N9-01175-01565103155ADDAA101000095AA206000091GA1999+006104064GA2999+036584034GD13065+9999999GD24025+9999999GD30995+9999999GD40995+9999999GF108085999999999999999999MA1101801076945EQDQ01+000020PRSWM2N01 00000JPWTH 1QNNE11 1 00408E11 1 00602E11 1 00099E11 1 00099G11 1 00020H11 1 15020H11 1 23120K11 1 00004L11 1 04000M11 1 22720N11 1 00000Q11 1 10315S11 1 00011V11 1 01010X11 1 00000
008572462023061197301091900D+37433-105867SAO  +2297ALS  V0202901N002519999999N0600001N9-01101-01601102901ADDAA101000095AA206000091GF108991999999999999999999MA1101591999999EQDQ01+000020PRSWM2
008572462023061197301092000D+37433-105867SAO  +2297ALS  V0202901N001519999999N0450001N9-00901-01501102711ADDAA101000095AA206000091GF108991999999999999999999MA1101491999999EQDQ01+000020PRSWM2
034872462023061197301092100C+37450-105867SAO  +2298ALS  V0209995C000050061049N0320005N9-00785-01565102575ADDAA101000095AA206000091GA1999+006104064GD14085+9999999GD20995+9999999GD30995+9999999GD40995+9999999GF108085999999999999999999MA1101391076675MD1710271+9999EQDQ01+000020PRSWM2N01 00000JPWTH 1QNNE11 1 00610E11 1 00099E11 1 00099E11 1 00099G11 1 00020H11 1 15020K11 1 00004L11 1 02000M11 1 22640N11 1 00000Q11 1 10257S11 1 00018V11 1 01010X11 1 00000
008572462023061197301092200D+37433-105867SAO  +2297ALS  V0209991C000019999999N0300001N9-00801-01401102611ADDAA101000095AA206000091GF108991999999999999999999MA1101391999999EQDQ01+000020PRSWM2
008572462023061197301092300D+37433-105867SAO  +2297ALS  V0202801N003019999999N0300001N9-00901-01301102551ADDAA101000095AA206000091GF108991999999999999999999MA1101391999999EQDQ01+000020PRSWM2
034872462023061197301100000C+37450-105867SAO  +2298ALS  V0203305N002150061049N0320005N9-00895-01335102555ADDAA101000095AA206000091GA1999+006104064GD14085+9999999GD20995+9999999GD30995+9999999GD40995+9999999GF108085999999999999999999MA1101391076635MD1810031+9999EQDQ01+000020PRSWM2N01 00000JPWTH 1QNNE11 1 00610E11 1 00099E11 1 00099E11 1 00099G11 1 00020H11 1 15020K11 1 00008L11 1 02000M11 1 22630N11 1 00000Q11 1 10255S11 1 00016V11 1 01010X11 1 33004
008572462023061197301100100D+37433-105867SAO  +2297ALS  V0202801N003019999999N0240001N9-00901-01201102551ADDAA101000095AA206000091GF108991999999999999999999MA1101391999999EQDQ01+000020PRSWM2
009172462023061197301100200D+37433-105867SAO  +2297ALS  V0203001N003619999999N0160001N9-00901-01201102461ADDAA101000095AA206999999GF108991999999999999999999MA1101391999999MW1701EQDQ01  00002PRCP06
034872462023061197301100300C+37450-105867SAO  +2298ALS  V0202705N004150076249N0160005N9-01115-01225102165ADDAA101000095AA206000091GA1999+007624064GD14085+9999999GD20995+9999999GD30995+9999999GD40995+9999999GF108085999999999999999999MA1101391076635MD1410001+9999EQDQ01+000020PRSWM2N01 00000JPWTH 1QNNE11 1 00610E11 1 00099E11 1 00099E11 1 00099G11 1 00025H11 1 15025K11 1 00010L11 1 01000M11 1 22630N11 1 00000Q11 1 10216S11 1 00012V11 1 01010X11 1 27008
037772462023061197301100600C+37450-105867SAO  +2298ALS  V0202505N002650018349N0240005N9-01505-01675102135ADDAA101000095AA206000091GA1999+000614074GA2999+001834064GD12035+9999999GD24055+9999999GD30995+9999999GD40995+9999999GF108085999999999999999999MA1101291076575EQDQ01+000020PRSWM2Q02    003SCCGA1N01 00000JPWTH 1QNNE11 1 00204E11 1 00606E11 1 00099E11 1 00099G11 1 00006H11 1 16002H11 1 15006K11 1 00002L11 1 01500M11 1 22610N11 1 00000Q11 1 10213S11 1 00005V11 1 01010X11 1 25005
009172462023061197301100800D+37433-105867SAO  +2297ALS  V0203101N004119999999N0080001N9-01201-01301101761ADDAA101000095AA206999999GF108991999999999999999999MA1101081999999MW1711EQDQ01  00002PRCP06
005472462023061197301100900E+37450-105867SAO  +2298ALS  V02099999999999999999N999999999-01115+99999999999ADDAA101000095MA1999999076435QNNM11 1 22570S11 1 00012
008572462023061197301101000D+37433-105867SAO  +2297ALS  V0209991C000019999999N0160001N9-01101-01401101681ADDAA101000095AA206000091GF108991999999999999999999MA1101081999999EQDQ01+000020PRSWM2
009172462023061197301101100D+37433-105867SAO  +2297ALS  V0209991C000019999999N0120001N9-01101-01301101751ADDAA101000095AA206999999GF108991999999999999999999MA1101081999999MW1701EQDQ01  00002PRCP06
043072462023061197301101200C+37450-105867SAO  +2298ALS  V0202805N001550045749N0128005N9-01225-01445101795ADDAA101000095AA206999999GA1999+999999104GA2999+002444074GA3999+004574064GD16025+9999999GD22025+9999999GD34045+9999999GD40995+9999999GF108085999999999999999999MA1101081076435MD1310021+9999MW1701MW2715EQDQ01  00003PRCP99Q02  00002PRCP06N01 04000JPWTH 1QNNE11 1 00802E11 1 00203E11 1 00605E11 1 00099G11 1 00015H11 1 98999H11 1 16008H11 1 15015K11 1 00006L11 1 00800M11 1 22570N11 1 04000Q11 1 10179S11 1 00010V11 1 01010X11 1 28003
009172462023061197301101300D+37433-105867SAO  +2297ALS  V0202801N002019999999N0016001N9-01201-01201101861ADDAA101000095AA206999999GF109991999999999999999999MA1101191999999MW1701EQDQ01  00002PRCP06
0080724620230611973011013154+37433-105867SAOSP+2297ALS  V0202601N001519999999N0008001N9+99999+99999999999ADDAA106999999GF109991999999999999999999MA1101191999999MW1701EQDQ01  00002PRCP06
009172462023061197301101400D+37433-105867SAO  +2297ALS  V0209991C000019999999N0008001N9-01201-01201101901ADDAA101000095AA206999999GF109991999999999999999999MA1101291999999MW1701EQDQ01  00002PRCP06
036672462023061197301101500C+37450-105867SAO  +2298ALS  V0202405N002650021349N0016005N9-01225-01225102075ADDAA101000095AA206999999GA1999+002134104GD15085+9999999GD20995+9999999GD30995+9999999GD40995+9999999GF108085999999999999999999MA1101391076605MD1310171+9999MW1455MW2701MW3715EQDQ01  00002PRCP06N01 04070JPWTH 1QNNE11 1 00710E11 1 00099E11 1 00099E11 1 00099G11 1 00007H11 1 45007K11 1 00010L11 1 00100M11 1 22620N11 1 04070Q11 1 10207S11 1 00010V11 1 01010X11 1 24005
0080724620230611973011015314+37433-105867SAOSP+2297ALS  V0209991C000019999999N0024001N9+99999+99999999999ADDAA106999999GF109991999999999999999999MA1101391999999MW1701EQDQ01  00002PRCP06
009172462023061197301101600D+37433-105867SAO  +2297ALS  V0202901N002019999999N0032001N9-01201-01201102431ADDAA101000095AA206999999GF109991999999999999999999MA1101491999999MW1711EQDQ01  00002PRCP06
0080724620230611973011016324+37433-105867SAOSP+2297ALS  V0202501N001519999999N0040001N9+99999+99999999999ADDAA106999999GF109991999999999999999999MA1101491999999MW1711EQDQ01  00002PRCP06
009172462023061197301101700D+37433-105867SAO  +2297ALS  V0209991C000019999999N0040001N9-00901-00901102491ADDAA101000095AA206999999GF109991999999999999999999MA1101491999999MW1711EQDQ01  00002PRCP06
037372462023061197301101800C+37450-105867SAO  +2298ALS  V0202005N001550036649N0160005N9-00835-01005102285ADDAA101000095AA206999999GA1999+999999104GA2999+003664064GD16025+9999999GD24065+9999999GD30995+9999999GD40995+9999999GF108085999999999999999999MA1101491076775MW1701MW2715EQDQ01  00002PRCP06N01 04000JPWTH 1QNNE11 1 00802E11 1 00608E11 1 00099E11 1 00099G11 1 00012H11 1 45999H11 1 15012K11 1 00014L11 1 01000M11 1 22670N11 1 04000Q11 1 10228S11 1 00017V11 1 01010X11 1 20003
008572462023061197301101900D+37433-105867SAO  +2297ALS  V0201701N002519999999N0160001N9-00701-00901102101ADDAA101000095AA206000091GF108991999999999999999999MA1101391999999EQDQ01+000020PRSWM2
011772462023061197301102000D+37433-105867SAO  +2297ALS  V0209991C000019999999N0240001N9-00601-00801999999ADDAA101000095AA206000091GF107991999999999999999999MA1101391999999EQDQ01+102893APOSLPQ02+000020PRSWM2Q03 102893APOSLP
042972462023061197301102100C+37450-105867SAO  +2298ALS  V0202705N002150024449N0240005N9-00565-01005101855ADDAA101000095AA206000091GA1999+002444074GA2999+999999999GA3999+999999999GA4999+999999999GD13065+9999999GD20005+9999999GD30005+9999999GD40005+9999999GF106065999999999999999999MA1101391076605MD1810151+9999EQDQ01+000020PRSWM2N01 00000JPWTH 1QNNE11 1 00407E11 1 00000E11 1 00000E11 1 00000G11 1 00008H11 1 16008H11 1 00999H11 1 00999H11 1 00999K11 1 00014L11 1 01500M11 1 22620N11 1 00000Q11 1 10185S11 1 00022V11 1 00707X11 1 27004
0074724620230611973011021124+37433-105867SAOSP+2297ALS  V0209991C000012200019N0240001N9+99999+99999999999ADDAA106000091GF102991999999999999999999MA1101391999999EQDQ01+000020PRSWM2
010172462023061197301102200D+37433-105867SAO  +2297ALS  V0202701N002512200019N0450001N9-00501-01101999999ADDAA101000095AA206000091GF102991999999999999999999MA1101391999999EQDQ01+000020PRSWM2Q02 102893APOSLP
010172462023061197301102300D+37433-105867SAO  +2297ALS  V0202401N003612200019N0450001N9-00601-01001102002ADDAA101000095AA206000091GF102991999999999999999999MA1101491999999EQDQ01+102003APOSLPQ02+000020PRSWM2
043572462023061197301110000C+37450-105867SAO  +2298ALS  V0202805N003152200059N0480005N9-00835-01225102215ADDAA101000095AA206000091GA1999+999999074GA2999+999999064GA3999+999999004GA4999+999999999GD10005+9999999GD20005+9999999GD30005+9999999GD40005+9999999GF100005999999999999999999MA1101491076775MD1310151+9999MW1001EQDQ01  00003PRCP99N01 00000JPWTH 1QNNE11 1 00000E11 1 00000E11 1 00000E11 1 00000G11U1 99999H11 1 16999H11 1 15999H11 1 32999H11 1 00999K11 1 00010L11 1 03000M11 1 22670N11 1 00000Q11 1 10221S11 1 00017V11 1 00000X11 1 28006
0061724620230611973011100304+37433-105867SAO  +2297ALS  V0202701N003619999999N0008001N9+99999+99999999999ADDAA106000091GF109991999999999999999999MA1101591999999MW1451
007272462023061197301110100D+37433-105867SAO  +2297ALS  V0203001N002519999999N0004001N9-01501-01501102551ADDAA101000095AA206000091GF109991999999999999999999MA1101691999999MW1451
0074724620230611973011101084+37433-105867SAOSP+2297ALS  V0202801N002519999999N0032001N9+99999+99999999999ADDAA106000091GF109991999999999999999999MA1101691999999EQDQ01+000100PRSWM2
0061724620230611973011101244+37433-105867SAOSP+2297ALS  V0209991C000019999999N0008001N9+99999+99999999999ADDAA106000091GF109991999999999999999999MA1101691999999MW1451
007272462023061197301110200D+37433-105867SAO  +2297ALS  V0201601N003619999999N0004001N9-01901-01901102821ADDAA101000095AA206000091GF109991999999999999999999MA1101801999999MW1451
0061724620230611973011102104+37433-105867SAOSP+2297ALS  V0202101N002519999999N0008001N9+99999+99999999999ADDAA106000091GF109991999999999999999999MA1101801999999MW1451
039472462023061197301110300E+37450-105867SAO  +2298ALS  V0209995C000052200059N000800599-02115-02115102995ADDAA101000095GA1999+999999104GA2999+999999999GA3999+999999999GA4999+999999999GD16035+9999999GD20005+9999999GD30005+9999999GD40005+9999999GF103035999999999999999999MA1999999077015MW1445EQDN01 07200JPWTH 1QNNE11 1 00804E11 1 00000E11 1 00000E11 1 00000G11U1 99999H11 1 45999H11 1 00999H11 1 00999H11 1 00999K11 1-00006L11 1 00050M11 1 22740N11 1 07200Q11 1 10299S11 1-00006V11 1 00404X11 1 00000
045872462023061197301110600C+37450-105867SAO  +2298ALS  V0201705N001550001559N0004005N1-02065-02065103075ADDAA101000095GA1999+999999104GA2999+999999999GA3999+999999999GA4999+999999999GD16075+0001599GD20005+9999999GD30005+9999999GD40005+9999999GF107075999999999999999999KA1999M-00451MA1102101077215MD1210171+9999MW1455REMAWY012/ F9/ 217 24EQDN01 07000JPWTH 1P01 220003SCOCIGQNNE11 1 00809E11 1 00000E11 1 00000E11 1 00000G11U1 99999H11 1 45999H11 1 00999H11 1 00999H11 1 00999K11 1-00005L11 1 00025M11 1 22800N11 1 07000Q11 1 10307S11 1-00005V11 1 00909X11 1 17003
008772462023061197301110800D+37433-105867SAO  +2297ALS  V0209991C000012200019N0004001N1-02441+99999103201ADDAA101000095GD16991+0001599GF110991999999999999999999MA1102171999999MW1111REMAWY002F5
005472462023061197301110900E+37450-105867SAO  +2298ALS  V02099999999999999999N999999999-02445+99999999999ADDAA101000095MA1999999077355QNNM11 1 22840S11 1-00012
008872462023061197301111000D+37433-105867SAO  +2297ALS  V0209991C00001000151WN0002001N1-02501+99999103371ADDAA101000095GD15991+0001599GF109991999999999999999999MA1102341999999MW1451REMAWY003F10
008772462023061197301111100D+37433-105867SAO  +2297ALS  V0202401N002512200019N0012001N1-02721+99999103551ADDAA101000095GD16991+0001599GF110991999999999999999999MA1102401999999MW1451REMAWY002F6
0076724620230611973011111154+37433-105867SAOSP+2297ALS  V0202301N002012200019N0004001N1+99999+99999999999ADDGD16991+0001599GF110991999999999999999999MA1102441999999MW1451REMAWY002F8
047972462023061197301111200C+37450-105867SAO  +2298ALS  V0202105N002150001559N0008005N1-02895-02895103765ADDAA101000095AJ100089199999999GA1999+999999104GA2999+999999999GA3999+999999999GA4999+999999999GD16055+0001599GD20005+9999999GD30005+9999999GD40005+9999999GF105055999999999999999999KA1999N-02891MA1102441077485MD1110121+9999MW1455REMAWY016F6/ 112 90403 80EQDN01 07000JPWTH 1P01 220003SCOCIGQNNE11 1 00806E11 1 00000E11 1 00000E11 1 00000G11U1 99999H11 1 45999H11 1 00999H11 1 00999H11 1 00999K11 1-00020L11 1 00050M11 1 22880N11 1 07000Q11 1 10376S11 1-00020V11 1 00606X11 1 21004
0076724620230611973011112164+37433-105867SAOSP+2297ALS  V0209991C000012200019N0016001N1+99999+99999999999ADDGD16991+0001599GF110991999999999999999999MA1102471999999MW1111REMAWY002F4
008772462023061197301111300D+37433-105867SAO  +2297ALS  V0201601N001512200019N0008001N1-03001+99999104141ADDAA101000095GD16991+0001599GF110991999999999999999999MA1102511999999MW1111REMAWY002F5
0079724620230611973011113174+37433-105867SAOSP+2297ALS  V0209991C000012200019N0240001N1+99999+99999999999ADDGF100991999999999999999999MA1102541999999MW1001REMAWY020PTCHS SHLW FOG ALQDS
009072462023061197301111400D+37433-105867SAO  +2297ALS  V0201801N001512200019N0800001N1-03001-03331104361ADDAA101000095GF100991999999999999999999MA1102571999999MW1001REMAWY020PTCHS SHLW FOG NE-SE
046872462023061197301111500C+37450-105867SAO  +2298ALS  V0201505N002152200059N0640005N1-02895-03225104555ADDAA101000095GA1999+003054074GA2999+091444004GA3999+999999999GA4999+999999999GD12015+0030099GD21015+0900093GD30005+9999999GD40005+9999999GF102015999061999999001991MA1102711077685MD1310221+9999MW1001REMAWY051ST OBSCG MTNS NNE THRU SE          ?     / 322 1601EQDN01 00000JPWTH 1QNNE11 1 00201E11 1 00101E11 1 00000E11 1 00000G11U1 99999H11 1 16010H11 1 32300H11 1 00999H11 1 00999K11 1-00026L11 1 04000M11 1 22940N11 1 00000Q11 1 10455S11 1-00020V11 1 00201X11 1 15004
009172462023061197301111600D+37433-105867SAO  +2297ALS  V0209991C000012200019N0800001N1-02221-02551104461ADDAA101000095GF100991999999999999999999MA1102841999999MW1001REMAWY021PTCH SHLW FOG DSNT SE
009172462023061197301111700D+37433-105867SAO  +2297ALS  V0209991C000012200019N0800001N1-01661-01941104281ADDAA101000095GF100991999999999999999999MA1102881999999MW1001REMAWY021PTCH SHLW FOG DSNT SE
025472462023061197301111800C+37450-105867SAO  +2298ALS  V0209995C000052200059N0800005N1-01505-01895104115ADDAA101000095GF100005999999999999999999KA1999N-03121MA1102841077795MD1010101+9999MW1001REMAWY036PTCHS SHLW FOG DSNT SE/ 010 90201 76EQDN01 00000JPWTH 1QNNG11U1 99999K11 1-00002L11 1 05000M11 1 22970N11 1 00000Q11 1 10411S11 1 00005V11 1 00000X11 1 00000
006172462023061197301111900D+37433-105867SAO  +2297ALS  V0209991C000012200019N0800001N1-01051-01381103901ADDAA101000095GF100991999999999999999999MA1102681999999MW1001
006172462023061197301112000D+37433-105867SAO  +2297ALS  V0209991C000012200019N0800001N1-00881-01331103801ADDAA101000095GF100991999999999999999999MA1102641999999MW1001
041272462023061197301112100C+37450-105867SAO  +2298ALS  V0200405N003652200059N0800005N1-00895-01335103725ADDAA101000095GA1999+999999004GA2999+999999999GA3999+999999999GA4999+999999999GD10005+9999999GD20005+9999999GD30005+9999999GF100005999001999999001991MA1102571077585MD1710221+9999MW1001REMAWY010/ 722 1001EQDN01 00000JPWTH 1QNNE11 1 00000E11 1 00000E11 1 00000E11 1 00000G11U1 99999H11 1 32999H11 1 00999H11 1 00999H11 1 00999K11 1 00008L11 1 05000M11 1 22910N11 1 00000Q11 1 10372S11 1 00016V11 1 00000X11 1 04007
006172462023061197301112200D+37433-105867SAO  +2297ALS  V0209991C000012200019N0800001N1-00831-01381103721ADDAA101000095GF100991999999999999999999MA1102571999999MW1001
007672462023061197301112300D+37433-105867SAO  +2297ALS  V0203001N003612200019N0800001N1-01051-01441103951ADDAA101000095GD12991+0900093GF102991999999999999999999MA1102611999999MW1001
044372462023061197301120000C+37450-105867SAO  +2298ALS  V0209995C000052200059N0800005N1-01065-01445104115ADDAA101000095GA1999+091444004GA2999+999999999GA3999+999999999GA4999+999999999GD11025+0900093GD20005+9999999GD30005+9999999GD40005+9999999GF102005999001999999001991KA1999M-00671MA1102681077655MD1310081+9999MW1001REMAWY013/ 308 1001 20EQDN01 00000JPWTH 1QNNE11 1 00102E11 1 00000E11 1 00000E11 1 00000G11U1 99999H11 1 32300H11 1 00999H11 1 00999H11 1 00999K11 1 00006L11 1 05000M11 1 22930N11 1 00000Q11 1 10411S11 1 00013V11 1 00200X11 1 00000
006172462023061197301120100D+37433-105867SAO  +2297ALS  V0203001N002512200019N0240001N1-01551-01941104311ADDAA101000095GF100991999999999999999999MA1102681999999MW1001
008072462023061197301120200D+37433-105867SAO  +2297ALS  V0203001N001512200019N0240001N1-01881-02111104511ADDAA101000095GF100991999999999999999999MA1102741999999MW1001REMAWY010PTCHS GF E
021072462023061197301120300C+37450-105867SAO  +2298ALS  V0202805N003652200059N0240005N1-02175-02445104645ADDAA101000095GF100005999999999999999999MA1102741077725MD1310071+9999MW1001REMAWY005/ 307EQDN01 00000JPWTH 1QNNG11U1 99999K11 1-00012L11 1 01500M11 1 22950N11 1 00000Q11 1 10464S11 1-00007V11 1 00000X11 1 28007
006172462023061197301120400D+37433-105867SAO  +2297ALS  V0202401N002512200019N0240001N1-02331-02611104441ADDAA101000095GF100991999999999999999999MA1102781999999MW1001
022672462023061197301120600C+37450-105867SAO  +2298ALS  V0201705N001552200059N0240005N1-02615-02895104225ADDAA101000095GF100005999999999999999999KA1999M-00671MA1102741077725MD1010001+9999MW1001REMAWY008/ 000 20EQDN01 00000JPWTH 1QNNG11U1 99999K11 1-00020L11 1 01500M11 1 22950N11 1 00000Q11 1 10422S11 1-00015V11 1 00000X11 1 17003
006172462023061197301120800D+37433-105867SAO  +2297ALS  V0209991C000012200019N0240001N1-02501-02771103861ADDAA101000095GF100991999999999999999999MA1102681999999MW1001
005472462023061197301120900E+37450-105867SAO  +2298ALS  V02099999999999999999N999999999-02615+99999999999ADDAA101000095MA1999999077725QNNM11 1 22950S11 1-00015
006172462023061197301121000D+37433-105867SAO  +2297ALS  V0209991C000012200019N0240001N1-02611-02881103961ADDAA101000095GF100991999999999999999999MA1102741999999MW1001
006172462023061197301121100D+37433-105867SAO  +2297ALS  V0202801N001512200019N0240001N1-02721-03111104041ADDAA101000095GF100991999999999999999999MA1102681999999MW1001
024972462023061197301121200C+37450-105867SAO  +2298ALS  V0209995C000052200059N0240005N1-02785-03065104075ADDAA101000095AJ100059199999999GF100005999999999999999999KA1999N-02781MA1102681077685MD1810031+9999MW1001REMAWY014/ 803 90402 82EQDN01 00000JPWTH 1QNNG11U1 99999K11 1-00023L11 1 01500M11 1 22940N11 1 00000Q11 1 10407S11 1-00018V11 1 00000X11 1 00000
006172462023061197301121300D+37433-105867SAO  +2297ALS  V0209991C000012200019N0240001N1-02831-03161104301ADDAA101000095GF100991999999999999999999MA1102681999999MW1001
009972462023061197301121400D+37433-105867SAO  +2297ALS  V0202101N002012200019N0640001N1-02721-03001104351ADDAA101000095GF100991999999999999999999MA1102681999999MW1001REMAWY029SHLW FOG BNK DSNT NE THRU SSE
051772462023061197301121500C+37450-105867SAO  +2298ALS  V0201605N002152200059N0640005N1-02675-03005104515ADDAA101000095GA1999+999999064GA2999+030484034GA3999+091444004GA4999+999999999GD12999+0300099GD21015+0900093GD30035+9999999GD40005+9999999GF104015999051999999041991MA1102741077725MD1310031+9999MW1001REMAWY084HZY PTCHS SHLW FOG DSNT NE -       ?     SE FEW CLDS TPG MTNS NNE THRU ESE/ 303 1541EQDN01 00000JPWTH 1P01    003SCCGD1QNNE11 1 00200E11 1 00101E11 1 00004E11 1 00000G11U1 99999H11 1 15999H11 1 23100H11 1 32300H11 1 00999K11 1-00022L11 1 04000M11 1 22950N11 1 00000Q11 1 10451S11 1-00016V11 1 00501X11 1 16004
012772462023061197301121600D+37433-105867SAO  +2297ALS  V0200501N002012200019N0640001N1-02221-02661104451ADDAA101000095GD12991+0300099GD22991+0900093GF102991999999999999999999MA1102781999999MW1001REMAWY027HZY FEW CLDS TPG MTNS NE-SE
009672462023061197301121700D+37433-105867SAO  +2297ALS  V0209991C000012200019N0640001N1-01661-02051104231ADDAA101000095GF100991999999999999999999MA1102741999999MW1001REMAWY026HZY FEW CLDS TPG MTNS E-SE
044372462023061197301121800C+37450-105867SAO  +2298ALS  V0203105N003152200059N0640005N1-01505-01895104165ADDAA101000095GA1999+001524074GA2999+999999064GA3999+091444004GA4999+999999999GD12025+0015099GD22999+0150099GD31025+0900093GD40005+9999999GF103025999999999999999999MA1102681077685MW1001REMAWY024HZY CLDS TPG MTNS ENE-SEEQDN01 00000JPWTH 1P01    003SCCGD2QNNE11 1 00202E11 1 00200E11 1 00102E11 1 00000G11U1 99999H11 1 16005H11 1 15999H11 1 32300H11 1 00999K11 1-00002L11 1 04000M11 1 22940N11 1 00000Q11 1 10416S11 1 00005V11 1 00402X11 1 31006
010972462023061197301121900D+37433-105867SAO  +2297ALS  V0203301N002512200019N0800001N1-01331-01721104041ADDAA101000095GD12991+0900093GF102991999999999999999999MA1102641999999MW1001REMAWY024FEW CLDS TPG MTNS ENE-SE
010472462023061197301122000D+37433-105867SAO  +2297ALS  V0202601N002512200019N0800001N1-00881-01441103711ADDAA101000095GD13991+0900093GF107991999999999999999999MA1102541999999MW1001REMAWY019CLDS TPG MTNS NE-SE
046172462023061197301122100C+37450-105867SAO  +2298ALS  V0202505N003152200059N0800005N1-00675-01445103665ADDAA101000095GA1999+999999064GA2999+999999034GA3999+091444024GA4999+999999999GD13999+0900093GD20005+9999999GD30075+9999999GD40005+9999999GF107025999051999999071991MA1102511077515MD1710151+9999MW1001REMAWY028CLDS TPG MTNS NE-E/ 715 1578EQDN01 00000JPWTH 1P01    003SCCGD1QNNE11 1 00300E11 1 00000E11 1 00009E11 1 00000G11U1 99999H11 1 15999H11 1 23999H11 1 37300H11 1 00999K11 1 00006L11 1 05000M11 1 22890N11 1 00000Q11 1 10366S11 1 00020V11 1 00903X11 1 25006
011172462023061197301122200D+37433-105867SAO  +2297ALS  V0202601N002512200019N0800001N1-00721-01331103701ADDAA101000095GD13991+0900093GF107991999999999999999999MA1102541999999MW1001REMAWY026ACSL NE CLDS TPG MTNS NE-E
009272462023061197301122300D+37433-105867SAO  +2297ALS  V0202101N001512200019N0800001N1-00611-01271103681ADDAA101000095GD13991+0900093GF107991999999999999999999MA1102511999999MW1001REMAWY007ACSL NE
049872462023061197301130000C+37450-105867SAO  +2298ALS  V0202105N003152200059N0800005N1-01005-01445103835ADDAA101000095GA1999+999999064GA2999+036584034GA3999+091444004GA4999+999999999GD12999+0360099GD23015+0900093GD30055+9999999GD40005+9999999GF106025999051999999041991KA1999M-00561MA1102511077515MD1010001+9999MW1001REMAWY052ACSL NE CLDS TPG MTNS NE/          ?     000 1546 22EQDN01 00000JPWTH 1P01    003SCCGD1QNNE11 1 00200E11 1 00301E11 1 00006E11 1 00000G11U1 99999H11 1 15999H11 1 23120H11 1 32300H11 1 00999K11 1 00006L11 1 05000M11 1 22890N11 1 00000Q11 1 10383S11 1 00014V11 1 00702X11 1 21006
009172462023061197301130100D+37433-105867SAO  +2297ALS  V0201401N001512200019N0240001N1-01381-01831103991ADDAA101000095GD12991+0360099GD22991+0900093GF102991999999999999999999MA1102471999999MW1001
009472462023061197301130200D+37433-105867SAO  +2297ALS  V0203401N001512200019N0240001N1-01611-01831104091ADDAA101000095GD12991+0900093GF102991999999999999999999MA1102541999999MW1001REMAWY009FEW AC NE
042772462023061197301130300C+37450-105867SAO  +2298ALS  V0203605N003652200059N0240005N1-01785-01945104145ADDAA101000095GA1999+036584034GA2999+091444004GA3999+999999999GA4999+999999999GD12015+0360099GD21035+0900093GD30005+9999999GD40005+9999999GF104015999001999999071991MA1102541077555MD1110031+9999MW1001REMAWY010/ 103 1076EQDN01 00000JPWTH 1QNNE11 1 00201E11 1 00104E11 1 00000E11 1 00000G11U1 99999H11 1 23120H11 1 32300H11 1 00999H11 1 00999K11 1-00003L11 1 01500M11 1 22900N11 1 00000Q11 1 10414S11 1 00000V11 1 00501X11 1 36007
007672462023061197301130400D+37433-105867SAO  +2297ALS  V0202001N002512200019N0240001N1-01881-02051104001ADDAA101000095GD12991+0360099GF102991999999999999999999MA1102541999999MW1001
022672462023061197301130600C+37450-105867SAO  +2298ALS  V0201805N001552200059N0240005N1-02065-02285103845ADDAA101000095GF100005999999999999999999KA1999M-00561MA1102571077585MD1310101+9999MW1001REMAWY008/ 310 22EQDN01 00000JPWTH 1QNNG11U1 99999K11 1-00009L11 1 01500M11 1 22910N11 1 00000Q11 1 10384S11 1-00005V11 1 00000X11 1 18003
006172462023061197301130800D+37433-105867SAO  +2297ALS  V0209991C000012200019N0240001N1-02221-02441103681ADDAA101000095GF100991999999999999999999MA1102571999999MW1001
005472462023061197301130900E+37450-105867SAO  +2298ALS  V02099999999999999999N999999999-02225+99999999999ADDAA101000095MA1999999077625QNNM11 1 22920S11 1-00008
006172462023061197301131000D+37433-105867SAO  +2297ALS  V0209991C000012200019N0240001N1-02271-02501103711ADDAA101000095GF100991999999999999999999MA1102681999999MW1001
006172462023061197301131100D+37433-105867SAO  +2297ALS  V0202701N002512200019N0240001N1-02331-02661103711ADDAA101000095GF100991999999999999999999MA1102681999999MW1001
023672462023061197301131200C+37450-105867SAO  +2298ALS  V0203005N003152200059N0240005N1-02445-02895103955ADDAA101000095AJ100059199999999GF100005999999999999999999MA1102741077725MD1310081+9999MW1001REMAWY014/ 308 90402 88EQDN01 00000JPWTH 1QNNG11U1 99999K11 1-00020L11 1 01500M11 1 22950N11 1 00000Q11 1 10395S11 1-00012V11 1 00000X11 1 30006
006172462023061197301131300D+37433-105867SAO  +2297ALS  V0201101N001512200019N0240001N1-02381-02941104151ADDAA101000095GF100991999999999999999999MA1102811999999MW1001
011072462023061197301131400D+37433-105867SAO  +2297ALS  V0209991C000012200019N0640001N1-02501-02881104371ADDAA101000095GD12991+0900093GF102991999999999999999999MA1102881999999MW1001REMAWY025HZY CLDS TPG MTNS NE QUAD
048272462023061197301131500C+37450-105867SAO  +2298ALS  V0202505N002152200059N0640005N1-02335-02675104505ADDAA101000095GA1999+015244064GA2999+999999034GA3999+999999004GA4999+999999999GD12015+0150099GD22999+0360099GD32999+0900099GD40005+9999999GF101015999051999999071991MA1103011077925MD1210221+9999MW1001REMAWY033CLDS TPG MTNS N THRU SE/ 222 1571EQDN01 00000JPWTH 1P01    003SCCGD2P02    003SCCGD3QNNE11 1 00201E11 1 00200E11 1 00200E11 1 00000G11U1 99999H11 1 15050H11 1 23999H11 1 32999H11 1 00999K11 1-00016L11 1 04000M11 1 23010N11 1 00000Q11 1 10450S11 1-00010V11 1 00101X11 1 25004
013872462023061197301131600D+37433-105867SAO  +2297ALS  V0202201N002012200019N0800001N1-01881-02271104411ADDAA101000095GD12991+0150099GD22991+0360099GD32991+0900099GF102991999999999999999999MA1103051999999MW1001REMAWY023CLDS TPG MTNS N THRU SE
009372462023061197301131700D+37433-105867SAO  +2297ALS  V0209991C000012200019N0800001N1-01441-01771104341ADDAA101000095GF100991999999999999999999MA1103081999999MW1001REMAWY023CLDS TPG MTNS N THRU SE
048972462023061197301131800C+37450-105867SAO  +2298ALS  V0209995C000052200059N0800005N1-00945-01505104115ADDAA101000095GA1999+999999064GA2999+999999034GA3999+999999004GA4999+999999999GD10005+9999999GD20005+9999999GD30005+9999999GF199009999051999999041991KA1999N-02561MA1103011077955MD1010021+9999MW1001REMAWY042CLDS TPG MTNS N THRU SE/ 002 1541 90201 86EQDQ01+000002SCOTCVN01 00000JPWTH 1P01    003SCOTCVQNNE11 1 00000E11 1 00000E11 1 00000E11 1 00000G11U1 99999H11 1 15999H11 1 23999H11 1 32999H11 1 00999K11 1 00005L11 1 05000M11 1 23020N11 1 00000Q11 1 10411S11 1 00015V11 1 00000X11 1 00000
006172462023061197301131900D+37433-105867SAO  +2297ALS  V0202401N002512200019N0800001N1-00381-01001103811ADDAA101000095GF100991999999999999999999MA1102951999999MW1001
008172462023061197301132000D+37433-105867SAO  +2297ALS  V0201001N002012200019N0800001N1-00331-01001103841ADDAA101000095GF100991999999999999999999MA1102911999999MW1001REMAWY011ACSL E CI N
044472462023061197301132100C+37450-105867SAO  +2298ALS  V0202805N001552200059N0800005N1+00005-00615103715ADDAA101000095GA1999+999999064GA2999+999999004GA3999+999999999GA4999+999999999GD10005+9999999GD20005+9999999GD30005+9999999GF100005999999999999001991MA1102911077855MD1610081+9999MW1001REMAWY010/ 608 1505EQDQ01+000002SCOTCVQ02    053SCOLCGN01 00000JPWTH 1QNNE11 1 00000E11 1 00000E11 1 00000E11 1 00000G11U1 99999H11 1 15999H11 1 32999H11 1 00999H11 1 00999K11 1 00021L11 1 05000M11 1 22990N11 1 00000Q11 1 10371S11 1 00032V11 1 00000X11 1 28003
007672462023061197301132200D+37433-105867SAO  +2297ALS  V0200201N002512200019N0800001N1+00001-00661103711ADDAA101000095GD12991+0900093GF102991999999999999999999MA1102911999999MW1001
007672462023061197301132300D+37433-105867SAO  +2297ALS  V0200101N003012200019N0800001N1-00111-00771103841ADDAA101000095GD13991+0900093GF107991999999999999999999MA1102951999999MW1001
046372462023061197301140000C+37450-105867SAO  +2298ALS  V0200405N002152200059N0800005N1-00335-01005103985ADDAA101000095GA1999+999999034GA2999+091444024GA3999+999999999GA4999+999999999GD13999+0900093GD20075+9999999GD30005+9999999GD40005+9999999GF107025999001999999071991KA1999M+00051MA1102981077925MD1310051+9999MW1001REMAWY017HAZY/ 305 1078 33EQDN01 00000JPWTH 1P01    003SCCGD1QNNE11 1 00300E11 1 00009E11 1 00000E11 1 00000G11U1 99999H11 1 23999H11 1 37300H11 1 00999H11 1 00999K11 1 00014L11 1 05000M11 1 23010N11 1 00000Q11 1 10398S11 1 00026V11 1 00902X11 1 04004
007672462023061197301140100D+37433-105867SAO  +2297ALS  V0209991C000012200019N0240001N1-00721-01051104171ADDAA101000095GD12991+0900093GF102991999999999999999999MA1103051999999MW1001
009172462023061197301140200D+37433-105867SAO  +2297ALS  V0203001N002512200019N0240001N1-01271-01501104451ADDAA101000095GD12991+0900093GF102991999999999999999999MA1103081999999MW1001REMAWY006FEW AC
042772462023061197301140300C+37450-105867SAO  +2298ALS  V0202605N003150914449N0240005N1-01445-01675104485ADDAA101000095GA1999+036584034GA2999+091444004GA3999+999999999GA4999+999999999GD12035+0360099GD23025+0900099GD30005+9999999GD40005+9999999GF105035999001999999071991MA1103121078025MD1110101+9999MW1001REMAWY010/ 110 1076EQDN01 00000JPWTH 1QNNE11 1 00204E11 1 00402E11 1 00000E11 1 00000G11 1 00300H11 1 23120H11 1 32300H11 1 00999H11 1 00999K11 1 00002L11 1 01500M11 1 23040N11 1 00000Q11 1 10448S11 1 00006V11 1 00604X11 1 26006
009172462023061197301140400D+37433-105867SAO  +2297ALS  V0203001N003612200019N0240001N1-01551-01721104391ADDAA101000095GD12991+0360099GD22991+0900099GF102991999999999999999999MA1103151999999MW1001
044372462023061197301140600C+37450-105867SAO  +2298ALS  V0201805N001552200059N0240005N1-01785-02005104165ADDAA101000095GA1999+036584034GA2999+999999999GA3999+999999999GA4999+999999999GD12025+0360099GD20005+9999999GD30005+9999999GD40005+9999999GF102025999001999999071991KA1999M+00051MA1103181078065MD1210051+9999MW1001REMAWY013/ 205 1070 33EQDN01 00000JPWTH 1QNNE11 1 00202E11 1 00000E11 1 00000E11 1 00000G11U1 99999H11 1 23120H11 1 00999H11 1 00999H11 1 00999K11 1-00004L11 1 01500M11 1 23050N11 1 00000Q11 1 10416S11 1 00000V11 1 00202X11 1 18003
006172462023061197301140800D+37433-105867SAO  +2297ALS  V0209991C000012200019N0240001N1-01941-02161103981ADDAA101000095GF100991999999999999999999MA1103151999999MW1001
005472462023061197301140900E+37450-105867SAO  +2298ALS  V02099999999999999999N999999999-01895+99999999999ADDAA101000095MA1999999078125QNNM11 1 23070S11 1-00002
006172462023061197301141000D+37433-105867SAO  +2297ALS  V0202301N003612200019N0240001N1-02001-02221104001ADDAA101000095GF100991999999999999999999MA1103251999999MW1001
009572462023061197301141100D+37433-105867SAO  +2297ALS  V0200901N001012200019N0240001N1-02111-02441104051ADDAA101000095GF100991999999999999999999MA1103251999999MW1001REMAWY025PTCHS SHLW FOG NE THRU SE
0150724620230611973011411154+37433-105867SAOSP+2297ALS  V0201101N001512200019N0096001N1+99999+99999999999ADDGD16991+0001599GF110991999999999999999999MA1103251999999MW1111REMAWY076F2/FOG BNK ENE THRU SE VSBY ENE          ?     THRU SE 3/4 MI PTCHS GF ALQDS
048872462023061197301141200C+37450-105867SAO  +2298ALS  V0209995C000052200059N0032005N1-02175-02175104135ADDAA101000095AJ100059199999999GA1999+999999104GA2999+999999999GA3999+999999999GA4999+999999999GD16035+0001599GD20005+9999999GD30005+9999999GD40005+9999999GF103035999999999999999999KA1999N-02171MA1103251078125MD1610021+9999MW1111MW2445REMAWY035F4/VSBY E QUAD 1/2 MI/ 602 90402 93EQDN01 07200JPWTH 1QNNE11 1 00804E11 1 00000E11 1 00000E11 1 00000G11U1 99999H11 1 45999H11 1 00999H11 1 00999H11 1 00999K11 1-00007L11 1 00200M11 1 23070N11 1 07200Q11 1 10413S11 1-00007V11 1 00404X11 1 00000
008772462023061197301141300D+37433-105867SAO  +2297ALS  V0202501N001512200019N0064001N1-02161+99999104361ADDAA101000095GD16991+0001599GF110991999999999999999999MA1103321999999MW1111REMAWY002F2
010672462023061197301141400D+37433-105867SAO  +2297ALS  V0202401N001512200019N0024001N1-02221+99999104641ADDAA101000095GD16991+0001599GF110991999999999999999999MA1103351999999MW1111REMAWY021F5/VSBY E QUAD 1/2 MI
0105724620230611973011414154+37433-105867SAOSP+2297ALS  V0202701N002012200019N0640001N1+99999+99999999999ADDGD12991+0360099GF102991999999999999999999MA1103351999999MW1001REMAWY031SHLW FOG BNK DSNT ALQDS XCPT SW
042472462023061197301141500C+37450-105867SAO  +2298ALS  V0200705N003152200059N0640005N1-02175-02445104715ADDAA101000095GA1999+036584034GA2999+091444004GA3999+999999999GA4999+999999999GD12015+0360099GD21025+0900093GD30005+9999999GD40005+9999999GF102015999999999999999999MA1103351078235MW1001REMAWY021HZY SHLW FOG BNK DSNTEQDN01 00000JPWTH 1QNNE11 1 00201E11 1 00102E11 1 00000E11 1 00000G11U1 99999H11 1 23120H11 1 32300H11 1 00999H11 1 00999K11 1-00012L11 1 04000M11 1 23100N11 1 00000Q11 1 10471S11 1-00007V11 1 00301X11 1 07006
009172462023061197301141600D+37433-105867SAO  +2297ALS  V0209991C000012200019N0800001N1-01771-02001104661ADDAA101000095GD12991+0360099GD22991+0900099GF102991999999999999999999MA1103421999999MW1001
009172462023061197301141700D+37433-105867SAO  +2297ALS  V0202501N002512200019N0800001N1-01221-01611104521ADDAA101000095GD12991+0360099GD22991+0900093GF102991999999999999999999MA1103451999999MW1001
044972462023061197301141800C+37450-105867SAO  +2298ALS  V0201505N001552200059N0800005N1-01005-01505104455ADDAA101000095GA1999+036584034GA2999+091444004GA3999+999999999GA4999+999999999GD12015+0360099GD21025+0900093GD30005+9999999GD40005+9999999GF103015999001999999041991KA1999N-02281MA1103421078265MD1010031+9999MW1001REMAWY019/ 003 1041 90201 91EQDN01 00000JPWTH 1QNNE11 1 00201E11 1 00103E11 1 00000E11 1 00000G11U1 99999H11 1 23120H11 1 32300H11 1 00999H11 1 00999K11 1 00005L11 1 05000M11 1 23110N11 1 00000Q11 1 10445S11 1 00014V11 1 00401X11 1 15003
007672462023061197301141900D+37433-105867SAO  +2297ALS  V0209991C000012200019N0800001N1-00441-00881104131ADDAA101000095GD13991+0900093GF107991999999999999999999MA1103251999999MW1001
007672462023061197301142000D+37433-105867SAO  +2297ALS  V0200801N002012200019N0800001N1-00161-00831103931ADDAA101000095GD12991+0900093GF102991999999999999999999MA1103151999999MW1001
044372462023061197301142100C+37450-105867SAO  +2298ALS  V0203305N003652200059N0800005N1-00115-00785103855ADDAA101000095GA1999+999999034GA2999+091444004GA3999+999999999GA4999+999999999GD11999+0900093GD20045+9999999GD30005+9999999GD40005+9999999GF104015999001999999071991MA1103121078025MD1610241+9999MW1001REMAWY010/   4 1076EQDN01 00000JPWTH 1P01    003SCCGD1QNNE11 1 00100E11 1 00005E11 1 00000E11 1 00000G11U1 99999H11 1 23999H11 1 32300H11 1 00999H11 1 00999K11 1 00018L11 1 05000M11 1 23040N11 1 00000Q11 1 10385S11 1 00030V11 1 00501X11 1 33007
009172462023061197301142200D+37433-105867SAO  +2297ALS  V0209991C000012200019N0800001N1-00051-00831103841ADDAA101000095GD12991+0900093GF102991999999999999999999MA1103121999999MW1001REMAWY006ACSL N
009372462023061197301142300D+37433-105867SAO  +2297ALS  V0203001N002012200019N0800001N1-00051-00611103911ADDAA101000095GD12991+0900093GF102991999999999999999999MA1103121999999MW1001REMAWY008ACSL NNE
046772462023061197301150000C+37450-105867SAO  +2298ALS  V0203605N002652200059N0800005N1-00395-00675104045ADDAA101000095GA1999+999999034GA2999+091444004GA3999+999999999GA4999+999999999GD11999+0900093GD20035+9999999GD30005+9999999GD40005+9999999GF103015999001999999041991KA1999M+00111MA1103121078025MD1410001+9999MW1001REMAWY021ACSL NNE/ 400 1046 34EQDN01 00000JPWTH 1P01    003SCCGD1QNNE11 1 00100E11 1 00004E11 1 00000E11 1 00000G11U1 99999H11 1 23999H11 1 32300H11 1 00999H11 1 00999K11 1 00020L11 1 05000M11 1 23040N11 1 00000Q11 1 10404S11 1 00025V11 1 00401X11 1 36005
007672462023061197301150100D+37433-105867SAO  +2297ALS  V0203201N002012200019N0240001N1-00881-01051104201ADDAA101000095GD12991+0900093GF102991999999999999999999MA1103121999999MW1001
007672462023061197301150200D+37433-105867SAO  +2297ALS  V0203101N003012200019N0240001N1-01111-01331104391ADDAA101000095GD12991+0900093GF102991999999999999999999MA1103181999999MW1001
044372462023061197301150300C+37450-105867SAO  +2298ALS  V0202805N002652200059N0240005N1-01445-01615104555ADDAA101000095GA1999+999999034GA2999+091444004GA3999+999999999GA4999+999999999GD11999+0900093GD20025+9999999GD30005+9999999GD40005+9999999GF102005999001999999071991MA1103221078095MD1310081+9999MW1001REMAWY010/ 308 1075EQDN01 00000JPWTH 1P01    003SCCGD1QNNE11 1 00100E11 1 00002E11 1 00000E11 1 00000G11U1 99999H11 1 23999H11 1 32300H11 1 00999H11 1 00999K11 1 00003L11 1 01500M11 1 23060N11 1 00000Q11 1 10455S11 1 00006V11 1 00200X11 1 28005
007672462023061197301150400D+37433-105867SAO  +2297ALS  V0201701N002012200019N0240001N1-01611-01831104461ADDAA101000095GD12991+0900093GF102991999999999999999999MA1103221999999MW1001
045872462023061197301150600C+37450-105867SAO  +2298ALS  V0202705N001550001559N0002005N1-01835-01835104235ADDAA101000095GA1999+999999104GA2999+999999999GA3999+999999999GA4999+999999999GD16065+0001599GD20005+9999999GD30005+9999999GD40005+9999999GF106065999999999999999999KA1999M+00111MA1103221078095MD1010001+9999MW1455REMAWY012/ F8/ 000 34EQDN01 07000JPWTH 1P01 220003SCOCIGQNNE11 1 00808E11 1 00000E11 1 00000E11 1 00000G11U1 99999H11 1 45999H11 1 00999H11 1 00999H11 1 00999K11 1-00001L11 1 00012M11 1 23060N11 1 07000Q11 1 10423S11 1-00001V11 1 00808X11 1 27003
008772462023061197301150800D+37433-105867SAO  +2297ALS  V0203501N001512200019N0004001N1-01831+99999103861ADDAA101000095GD16991+0001599GF110991999999999999999999MA1103121999999MW1111REMAWY002F4
005472462023061197301150900E+37450-105867SAO  +2298ALS  V02099999999999999999N999999999-02005+99999999999ADDAA101000095MA1999999078025QNNM11 1 23040S11 1-00004
008772462023061197301151000D+37433-105867SAO  +2297ALS  V0209991C000012200019N0016001N1-01881+99999103861ADDAA101000095GD16991+0001599GF110991999999999999999999MA1103121999999MW1451REMAWY002F7
008772462023061197301151100D+37433-105867SAO  +2297ALS  V0209991C000012200019N0012001N1-02001+99999103851ADDAA101000095GD16991+0001599GF110991999999999999999999MA1103121999999MW1451REMAWY002F9
047972462023061197301151200C+37450-105867SAO  +2298ALS  V0209995C000050001559N0004005N1-01945-01945103955ADDAA101000095AJ100039199999999GA1999+999999104GA2999+999999999GA3999+999999999GA4999+999999999GD16075+0001599GD20005+9999999GD30005+9999999GD40005+9999999GF107075999999999999999999KA1999N-02061MA1103121078025MD1410001+9999MW1455REMAWY016F9/ 400 90401 95EQDN01 07000JPWTH 1P01 220003SCOCIGQNNE11 1 00809E11 1 00000E11 1 00000E11 1 00000G11U1 99999H11 1 45999H11 1 00999H11 1 00999H11 1 00999K11 1-00003L11 1 00025M11 1 23040N11 1 07000Q11 1 10395S11 1-00003V11 1 00909X11 1 00000
008772462023061197301151300D+37433-105867SAO  +2297ALS  V0202901N001512200019N0004001N1-01941+99999104101ADDAA101000095GD16991+0001599GF110991999999999999999999MA1103081999999MW1451REMAWY002F9
008772462023061197301151400D+37433-105867SAO  +2297ALS  V0209991C000012200019N0004001N1-02001+99999104211ADDAA101000095GD16991+0001599GF110991999999999999999999MA1103081999999MW1451REMAWY002F8
0076724620230611973011514104+37433-105867SAOSP+2297ALS  V0200601N001512200019N0016001N1+99999+99999999999ADDGD16991+0001599GF110991999999999999999999MA1103081999999MW1451REMAWY002F6
0076724620230611973011514304+37433-105867SAOSP+2297ALS  V0200701N001512200019N0008001N1+99999+99999999999ADDGD16991+0001599GF110991999999999999999999MA1103081999999MW1451REMAWY002F8
044072462023061197301151500C+37450-105867SAO  +2298ALS  V0200705N001550001559N0004005N1-02005-02005104355ADDAA101000095GA1999+999999104GA2999+999999999GA3999+999999999GA4999+999999999GD16075+0001599GD20005+9999999GD30005+9999999GD40005+9999999GF107075999999999999999999MA1103121078025MD1510001+9999MW1455REMAWY007F9/ 500EQDN01 07000JPWTH 1P01 220003SCOCIGQNNE11 1 00809E11 1 00000E11 1 00000E11 1 00000G11U1 99999H11 1 45999H11 1 00999H11 1 00999H11 1 00999K11 1-00004L11 1 00025M11 1 23040N11 1 07000Q11 1 10435S11 1-00004V11 1 00909X11 1 07003
010672462023061197301151600D+37433-105867SAO  +2297ALS  V0209991C000012200019N0016001N1-01771-02161104351ADDAA101000095GD16991+0001599GF110991999999999999999999MA1103121999999MW1111REMAWY021F5 WOLF CREEK SD 72IN
010272462023061197301151700D+37433-105867SAO  +2297ALS  V0209991C000010900019N0016001N1-01551-01771104311ADDAA101000095GD16991+0001599GD23991+0900099GF107991999999999999999999MA1103121999999MW1111REMAWY002F5
0122724620230611973011517154+37433-105867SAOSP+2297ALS  V0202301N001512200019N0040001N1+99999+99999999999ADDGD16991+0001599GD22991+0015099GD33991+0900093GF107991999999999999999999MA1103121999999MW1111REMAWY018F3 MTN TOPS VSB NE
049572462023061197301151800C+37450-105867SAO  +2298ALS  V0202605N002152200059N0320005N1-01285-01445104195ADDAA101000095GA1999+001524074GA2999+091444004GA3999+999999999GA4999+999999999GD12015+0015099GD23065+0900093GD30005+9999999GD40005+9999999GF107025999061999999001991KA1999N-02061MA1103081077995MD1810031+9999MW1001REMAWY065GF ALQDS VSBY SE-SW 5 MTNS PTLY VSB      ?     NW-NE/ 803 1606 95EQDN01 00000JPWTH 1QNNE11 1 00201E11 1 00308E11 1 00000E11 1 00000G11U1 99999H11 1 16005H11 1 32300H11 1 00999H11 1 00999K11 1 00006L11 1 02000M11 1 23030N11 1 00000Q11 1 10419S11 1 00009V11 1 00902X11 1 26004
007672462023061197301151900D+37433-105867SAO  +2297ALS  V0209991C000012200019N0800001N1-00941-01271103851ADDAA101000095GD12991+0900093GF102991999999999999999999MA1102841999999MW1001
007672462023061197301152000D+37433-105867SAO  +2297ALS  V0209991C000012200019N0800001N1-00661-01111103601ADDAA101000095GD13991+0900093GF107991999999999999999999MA1102741999999MW1001
042772462023061197301152100C+37450-105867SAO  +2298ALS  V0209995C000052200059N0800005N1-00505-01115103455ADDAA101000095GA1999+091444004GA2999+999999999GA3999+999999999GA4999+999999999GD13065+0900093GD20005+9999999GD30005+9999999GD40005+9999999GF106035999001999999001991MA1102611077625MD1710311+9999MW1001REMAWY010/ 731 1006EQDN01 00000JPWTH 1QNNE11 1 00308E11 1 00000E11 1 00000E11 1 00000G11U1 99999H11 1 32300H11 1 00999H11 1 00999H11 1 00999K11 1 00012L11 1 05000M11 1 22920N11 1 00000Q11 1 10345S11 1 00023V11 1 00804X11 1 00000
007672462023061197301152200D+37433-105867SAO  +2297ALS  V0209991C00001075001EN0800001N1-00381-01111103351ADDAA101000095GD13991+0750099GF107991999999999999999999MA1102541999999MW1001
009372462023061197301152300D+37433-105867SAO  +2297ALS  V0209991C00001075001EN0800001N1-00381-01111103311ADDAA101000095GD13991+0750099GF107991999999999999999999MA1102471999999MW1001REMAWY008?ALS?1/2
