0074724626999991973010103004+37183-107750SAO  +20734V5  V0203601N003619999999N0240001N9-01201-01601102151ADDAA106000091GF107991999999999999999999MA1101491999999EQDQ01+000020PRSWM2
0074724626999991973010105004+37183-107750SAO  +20734V5  V0203401N002519999999N0240001N9-01101-01501102311ADDAA106000091GF107991999999999999999999MA1101591999999EQDQ01+000020PRSWM2
0074724626999991973010107004+37183-107750SAO  +20734V5  V0200101N002519999999N0240001N9-01001-01301102211ADDAA106000091GF108991999999999999999999MA1101591999999EQDQ01+000020PRSWM2
0061724626999991973010203004+37183-107750SAO  +20734V5  V0203501N005112200019N0240001N9-00801-01101102741ADDAA106000091GF100991999999999999999999MA1102101999999MW1001
0061724626999991973010205004+37183-107750SAO  +20734V5  V0203401N003612200019N0240001N9-01301-01801102761ADDAA106000091GF100991999999999999999999MA1102001999999MW1001
0061724626999991973010207004+37183-107750SAO  +20734V5  V0200101N003612200019N0240001N9-01301-01801102611ADDAA106000091GF100991999999999999999999MA1102001999999MW1001
0074724626999991973010211004+37183-107750SAO  +20734V5  V0200201N002019999999N0240001N9-01201-01601102351ADDAA106000091GF107991999999999999999999MA1101691999999EQDQ01+000020PRSWM2
0074724626999991973010303004+37183-107750SAO  +20734V5  V0202801N003612200019N0240001N9-01201-01601101731ADDAA106000091GF102991999999999999999999MA1101081999999EQDQ01+000020PRSWM2
0061724626999991973010307004+37183-107750SAO  +20734V5  V0202801N002512200019N0240001N9-01501-01501101711ADDAA106000091GF100991999999999999999999MA1100981999999MW1001
0080724626999991973010403004+37183-107750SAO  +20734V5  V0209991C000019999999N0048001N9-00601-00901101681ADDAA106999999GF109991999999999999999999MA1101191999999MW1701EQDQ01  00002PRCP06
0080724626999991973010405004+37183-107750SAO  +20734V5  V0209991C000019999999N0024001N9-00601-00901101701ADDAA106999999GF109991999999999999999999MA1101191999999MW1711EQDQ01  00002PRCP06
0080724626999991973010408004+37183-107750SAO  +20734V5  V0200301N003619999999N0024001N9-00601-00801101541ADDAA106999999GF109991999999999999999999MA1101191999999MW1711EQDQ01  00002PRCP06
0074724626999991973010409004+37183-107750SAO  +20734V5  V0201201N002019999999N0120001N9-00601-00701101571ADDAA106000091GF108991999999999999999999MA1101191999999EQDQ01+000020PRSWM2
0121724626999991973010412004+37183-107750SAO  +20734V5  V0201101N002519999999N0048001N9-00601-00701101751ADDAA106999999AA299023091GF109991999999999999999999MA1101191999999MD1210181+9999MW1701EQDQ01+000002APC3  Q02  00002PRCP06
0074724626999991973010503004+37183-107750SAO  +20734V5  V0200201N003012200019N0240001N9-00601-00901101461ADDAA106000091GF102991999999999999999999MA1101081999999EQDQ01+000020PRSWM2
0061724626999991973010505004+37183-107750SAO  +20734V5  V0200101N003012200019N0240001N9-01201-01501101601ADDAA106000091GF100991999999999999999999MA1101081999999MW1001
0080724626999991973010509004+37183-107750SAO  +20734V5  V0202201N002019999999N0120001N9-00801-00901101361ADDAA106999999GF108991999999999999999999MA1100981999999MW1701EQDQ01  00002PRCP06
0115724626999991973010512004+37183-107750SAO  +20734V5  V0202001N003019999999N0160001N9-00901-01101101601ADDAA106000091AA299023091GF107991999999999999999999MA1101081999999MD1210241+9999EQDQ01+000002APC3  Q02+000020PRSWM2
0074724626999991973010604004+37183-107750SAO  +20734V5  V0203401N004612200019N0240001N9-01401-01601102741ADDAA106000091GF102991999999999999999999MA1101901999999EQDQ01+000020PRSWM2
0061724626999991973010606004+37183-107750SAO  +20734V5  V0200101N003612200019N0240001N9-01501-01501102711ADDAA106000091GF100991999999999999999999MA1101901999999MW1001
0061724626999991973010608004+37183-107750SAO  +20734V5  V0203601N003012200019N0240001N9-01601-01601102651ADDAA106000091GF100991999999999999999999MA1101901999999MW1001
0090724626999991973010612004+37183-107750SAO  +20734V5  V0203601N005112200019N0240001N9-01501-01701103502ADDAA106000091GF102991999999999999999999MA1101691999999EQDQ01+103503APOSLPQ02+000020PRSWM2
0061724626999991973010703004+37183-107750SAO  +20734V5  V0203601N004612200019N0240001N9-00801-01101101941ADDAA106000091GF100991999999999999999999MA1101291999999MW1001
0061724626999991973010705004+37183-107750SAO  +20734V5  V0203601N004612200019N0240001N9-01201-01601101971ADDAA106000091GF100991999999999999999999MA1101291999999MW1001
0061724626999991973010707004+37183-107750SAO  +20734V5  V0203501N002512200019N0240001N9-01301-01701101891ADDAA106000091GF100991999999999999999999MA1101291999999MW1001
0074724626999991973010712004+37183-107750SAO  +20734V5  V0209991C000019999999N0240001N9-01001-01301101951ADDAA106000091GF107991999999999999999999MA1101391999999EQDQ01+000020PRSWM2
0061724626999991973010804004+37183-107750SAO  +20734V5  V0203601N003612200019N0240001N9-01601-01701102801ADDAA106000091GF100991999999999999999999MA1101801999999MW1001
0061724626999991973010807004+37183-107750SAO  +20734V5  V0203601N004112200019N0240001N9-01501-01501102501ADDAA106000091GF100991999999999999999999MA1101801999999MW1001
0074724626999991973010903004+37183-107750SAO  +20734V5  V0203601N004112200019N0240001N9-00801-01301102681ADDAA106000091GF102991999999999999999999MA1102001999999EQDQ01+000020PRSWM2
0074724626999991973010905004+37183-107750SAO  +20734V5  V0200101N004119999999N0240001N9-00701-01201102691ADDAA106000091GF107991999999999999999999MA1102001999999EQDQ01+000020PRSWM2
0049724626999991973010912004+37183-107750SAO  +20734V5  V0203601N002519999999N0048001N9-00701-00901103701ADDGF109991999999999999999999MD1010051+9999MW1701
0080724626999991973011003004+37183-107750SAO  +20734V5  V0202901N002019999999N0032001N9-00301-00501101721ADDAA106999999GF109991999999999999999999MA1101291999999MW1701EQDQ01  00002PRCP06
0080724626999991973011005004+37183-107750SAO  +20734V5  V0202901N003019999999N0024001N9-00301-00501101561ADDAA106999999GF109991999999999999999999MA1101191999999MW1731EQDQ01  00002PRCP06
0054724626999991973011009004+37183-107750SAO  +20734V5  V0209991C000019999999N0060001N9-00401-00701101521ADDAA106999999MA1101191999999MW1701EQDQ01  00002PRCP06
0065724626999991973011108004+37183-107750SAO  +20734V5  V0203301N00201015001EN0240001N1-00661-00941102651ADDGD13991+0150099GF107991999999999999999999MA1102201999999MW1001
0065724626999991973011110004+37183-107750SAO  +20734V5  V0200301N00301015001EN0192001N1-01051-01381102981ADDGD14991+0150099GF108991999999999999999999MA1102371999999MW1001
0078724626999991973011112004+37183-107750SAO  +20734V5  V0200301N00251003001MN0160001N1-01111-01221103101ADDGD14991+0030099GF108991999999999999999999MA1102441999999MW1001REMAWY004/ 11
0076724626999991973011204004+37183-107750SAO  +20734V5  V0203601N002012200019N0008001N1-01161-01331103261ADDGD16991+0001599GF110991999999999999999999MA1102811999999MW1111REMAWY00224
0078724626999991973011212004+37183-107750SAO  +20734V5  V0209991C00001000601WN0004001N1-01501-01661103701ADDGD15991+0006099GF109991999999999999999999MA1102711999999MW1451REMAWY004/ 04
0078724626999991973011304004+37183-107750SAO  +20734V5  V0202901N00251000151WN0000001N1-01161-01331103601ADDGD15991+0001599GF109991999999999999999999MA1102811999999MW1451REMAWY004/ 22
0078724626999991973011306004+37183-107750SAO  +20734V5  V0202701N002512200019N0008001N1-01221-01381103541ADDGD16991+0001599GF110991999999999999999999MA1102741999999MW1111REMAWY004/ 22
0078724626999991973011312004+37183-107750SAO  +20734V5  V0209991C00001001201WN0008001N1-01831-02051103751ADDGD15991+0012099GF109991999999999999999999MA1102841999999MW1451REMAWY004/ 96
0063724626999991973011404004+37183-107750SAO  +20734V5  V0200201N002012200019N0240001N1-01161-01551104151ADDGF100991999999999999999999MA1103151999999MW1001REMAWY004/ 25
0050724626999991973011406004+37183-107750SAO  +20734V5  V0200201N002512200019N0240001N1-01221-01611103701ADDGF100991999999999999999999MA1103151999999MW1001
0065724626999991973011408004+37183-107750SAO  +20734V5  V0202501N002012200019N0008001N1-01331-01501104001ADDGD16991+0001599GF110991999999999999999999MA1103151999999MW1111
0063724626999991973011412004+37183-107750SAO  +20734V5  V0200701N002512200019N0240001N1-01381-01551104151ADDGF100991999999999999999999MA1103121999999MW1001REMAWY004/ 04
0063724626999991973011504004+37183-107750SAO  +20734V5  V0209991C000012200019N0240001N1-01001-01441103911ADDGF100991999999999999999999MA1103081999999MW1001REMAWY004/ 34
0050724626999991973011506004+37183-107750SAO  +20734V5  V0200101N002512200019N0240001N1-00941-01501103701ADDGF100991999999999999999999MA1103011999999MW1001
0050724626999991973011508004+37183-107750SAO  +20734V5  V0209991C000012200019N0240001N1-00941-01271103621ADDGF100991999999999999999999MA1103011999999MW1001
0050724626999991973011510004+37183-107750SAO  +20734V5  V0203101N002012200019N0240001N1-00941-01271103701ADDGF100991999999999999999999MA1102951999999MW1001
0063724626999991973011512004+37183-107750SAO  +20734V5  V0201301N002512200019N0240001N1-01111-01221103601ADDGF100991999999999999999999MA1102811999999MW1001REMAWY004/ 08
0065724626999991973011606004+37183-107750SAO  +20734V5  V0203501N003012200019N0240001N1-00501-00881102551ADDGD14991+0450093GF108991999999999999999999MA1102241999999MW1001
0065724626999991973011610004+37183-107750SAO  +20734V5  V0200101N003612200019N0240001N1-00831-01331102451ADDGD12991+0450093GF102991999999999999999999MA1102101999999MW1001
0063724626999991973011613004+37183-107750SAO  +20734V5  V0203301N003612200019N0240001N1-01051-01381102591ADDGF100991999999999999999999MA1102031999999MW1001REMAWY004/ 12
0078724626999991973011704004+37183-107750SAO  +20734V5  V0203601N00251030001EN0240001N1-00381-00941102271ADDGD13991+0300099GF107991999999999999999999MA1101761999999MW1001REMAWY004/ 44
0093724626999991973011706004+37183-107750SAO  +20734V5  V0200101N00251018001EN0240001N1-00221-00551102101ADDGD14991+0180099GF108991999999999999999999MD1310281+9999MW1001REMSYN0201/13/9/3608/001/ 328
0065724626999991973011710004+37183-107750SAO  +20734V5  V0200201N00301001801WN0064001N1-00111-00161101501ADDGD15991+0018099GF109991999999999999999999MA1101521999999MW1731
0169724626999991973011712004+37183-107750SAO  +20734V5  V0201001N00251001801WN0032001N1-00331-00501101651ADDAA106000291AJ100069199999999GD15991+0018099GF109991999999999999999999MA1101391999999MW1701REMAWY016/ 21 20001 90422EQDQ01+000022APCTENQ02+000002APC3  Q03  00023PRCP99
0065724626999991973011808004+37183-107750SAO  +20734V5  V0203601N003012200019N0240001N1-01221-01611102161ADDGD12991+0240099GF102991999999999999999999MA1101761999999MW1001
0050724626999991973011810004+37183-107750SAO  +20734V5  V0200701N002512200019N0240001N1-01111-01611102441ADDGD12991+0240099GF102991999999999999999999MW1001
0078724626999991973011904004+37183-107750SAO  +20734V5  V0203501N003612200019N0240001N1-01271+99999102461ADDGD12991+0240099GF102991999999999999999999MA1102101999999MW1001REMAWY004/ 36
0065724626999991973011906004+37183-107750SAO  +20734V5  V0203501N005612200019N0240001N1-00661-00941102451ADDGD12991+0240099GF102991999999999999999999MA1101961999999MW1001
0050724626999991973011910004+37183-107750SAO  +20734V5  V0209999999999024001EN0240001N1-00661-01001999999ADDGD13991+0240099GF107991999999999999999999MW1001
0068724626999991973011912004+37183-107750SAO  +20734V5  V0209999999999018001EN0240001N1-00721-01221101801ADDGD14991+0180099GF108991999999999999999999MW1001REMAWY009REST MISG
0100724626999991973012008004+37183-107750SAO  +20734V5  V0209991C00001013501EN9999999N9+99999-00661999999ADDGD13991+0135099GF107991999999999999999999MA1100471999999MW1001EQDQ01+000002VOVAR Q02 +02943ATOT  
0198724626999991973012012004+37183-107750SAO  +20734V5  V0209991C00001003601WN0096001N1-00662-00941100561ADDAA106000291AJ100079199999999GD15991+0036099GF109991999999999999999999KA1999N-01231MA1100341999999MW1701REMAWY016/ 20001 90426 10EQDQ01+026663ATOT  Q02+000022APCTENQ03+000002APC3  Q04  00023PRCP99
0078724626999991973012104004+37183-107750SAO  +20734V5  V0200901N00201015001EN0240001N1-00551-01161101291ADDGD14991+0150099GF108991999999999999999999MA1100681999999MW1001REMAWY004/ 31
0065724626999991973012106004+37183-107750SAO  +20734V5  V0200301N00251009301MN0160001N1-00611-01001100951ADDGD14991+0093099GF108991999999999999999999MA1100641999999MW1001
0065724626999991973012108004+37183-107750SAO  +20734V5  V0203301N00361015001EN0240001N1-00831-01111100851ADDGD13991+0150099GF107991999999999999999999MA1100611999999MW1001
0078724626999991973012112004+37183-107750SAO  +20734V5  V0203601N00411015001EN0240001N1-01051-01271100861ADDGD13991+0150099GF107991999999999999999999MA1100541999999MW1001REMAWY004/ 10
0050724626999991973012204004+37183-107750SAO  +20734V5  V0203601N003612200019N0240001N1-01331-01771101201ADDGF100991999999999999999999MA1100471999999MW1001
0128724626999991973012206004+37183-107750SAO  +20734V5  V0200201N00201015001EN0160001N1-00941-01221101051ADDAA106025091GD13991+0150099GF107991999999999999999999MA1100581999999MD1010341+9999MW1001REMAWY01003499 MIS%EQDQ01  02503PRCP99
0050724626999991973012208004+37183-107750SAO  +20734V5  V0203601N004112200019N0240001N1-01331-01501101351ADDGD12991+0240099GF102991999999999999999999MW1001
0050724626999991973012210004+37183-107750SAO  +20734V5  V0203601N002012200019N0240001N1-01771-02001101411ADDGF100991999999999999999999MA1100711999999MW1001
0063724626999991973012304004+37183-107750SAO  +20734V5  V0203601N003012200019N0112001N1-01331-01661103321ADDGF100991999999999999999999MA1102131999999MW1001REMAWY004/ 29
0063724626999991973012404004+37183-107750SAO  +20734V5  V0203501N003612200019N0240001N1-01551-01721103521ADDGF100991999999999999999999MA1102441999999MW1001REMAWY004/ 30
0050724626999991973012406004+37183-107750SAO  +20734V5  V0203501N004112200019N0240001N1-01551-01721103301ADDGF100991999999999999999999MA1102511999999MW1001
0050724626999991973012410004+37183-107750SAO  +20734V5  V0200101N002512200019N0240001N1-01661-01831103301ADDGF100991999999999999999999MA1102571999999MW1001
0063724626999991973012412004+37183-107750SAO  +20734V5  V0209991C000012200019N0240001N1-01771-02001103501ADDGF100991999999999999999999MA1102571999999MW1001REMAWY004/ 96
0050724626999991973012506004+37183-107750SAO  +20734V5  V0203401N002512200019N0240001N1-01501-01661103101ADDGF100991999999999999999999MA1102301999999MW1001
0063724626999991973012512004+37183-107750SAO  +20734V5  V0203301N003012200019N0240001N1-01551-01721102901ADDGF100991999999999999999999MA1102101999999MW1001REMAWY004/ 01
0078724626999991973012604004+37183-107750SAO  +20734V5  V0203101N003012200019N0240001N1-01111-01441102701ADDGD12991+0300093GF102991999999999999999999MA1101661999999MW1001REMAWY004/ 33
0050724626999991973012606004+37183-107750SAO  +20734V5  V0200101N003012200019N0240001N1-01001-01331102301ADDGF100991999999999999999999MA1101591999999MW1001
0078724626999991973012612004+37183-107750SAO  +20734V5  V0200401N002512200019N0240001N1-01221-01381101701ADDGD12991+0600093GF102991999999999999999999MA1101251999999MW1001REMAWY004/ 05
0065724626999991973012706004+37183-107750SAO  +20734V5  V0202501N00511005701MN0240001N1-00551-01001101261ADDGD14991+0057099GF108991999999999999999999MA1100781999999MW1001
0065724626999991973012710004+37183-107750SAO  +20734V5  V0200701N00301018001EN0240001N1-00881-01221101601ADDGD13991+0180099GF107991999999999999999999MA1101491999999MW1001
0063724626999991973012804004+37183-107750SAO  +20734V5  V0203301N003012200019N0240001N1-01271-01661103701ADDGF100991999999999999999999MA1102811999999MW1001REMAWY004/ 32
0050724626999991973012806004+37183-107750SAO  +20734V5  V0209991C000012200019N0240001N1-01271-01661103751ADDGF100991999999999999999999MA1102951999999MW1001
0061724626999991973012812004+37183-107750SAO  +20734V5  V0203601N004112200019N0240001N1-01551-01721104151ADDGF100991999999999999999999MA1103291999999MW1001REMAWY00202
0050724626999991973012906004+37183-107750SAO  +20734V5  V0203601N003012200019N0240001N1-01161-01551103741ADDGF100991999999999999999999MA1103081999999MW1001
0061724626999991973013004004+37183-107750SAO  +20734V5  V0203501N004612200019N0240001N1-00721-01111102671ADDGF100991999999999999999999MA1101931999999MW1001REMAWY00237
0078724626999991973013105004+37183-107750SAO  +20734V5  V0209991C00001060001EN0160001N1+99999+99999100351ADDGD14991+0600099GF108991999999999999999999MA1100171999999MW1001REMAWY004/ 22
0097724626999991973013106004+37183-107750SAO  +20734V5  V0202201N00201024001EN0240001N1-00221-00611100862ADDGD14991+0240099GF108991999999999999999999MA1100511999999MW1001REMAWY004/ 43EQDQ01+100863APOSLP
0078724626999991973020104004+37183-107750SAO  +20734V5  V0200701N002512200019N0240001N1-00611-01161101251ADDGD12991+0150099GF102991999999999999999999MA1100711999999MW1001REMAWY004/ 35
0065724626999991973020106004+37183-107750SAO  +20734V5  V0200501N002512200019N0240001N1-00771-01271101321ADDGD12991+0180099GF102991999999999999999999MA1100811999999MW1001
0078724626999991973020112004+37183-107750SAO  +20734V5  V0209991C000012200019N0240001N1-01501-01661101851ADDGD12991+0450093GF102991999999999999999999MA1101221999999MW1001REMAWY004/ 03
0050724626999991973020210004+37183-107750SAO  +20734V5  V0203301N003612200019N0240001N1-01661-01831103101ADDGF100991999999999999999999MA1102401999999MW1001
0063724626999991973020212004+37183-107750SAO  +20734V5  V0209991C000012200019N0240001N1-01771-02001103251ADDGF100991999999999999999999MA1102401999999MW1001REMAWY004/ 99
0050724626999991973020306004+37183-107750SAO  +20734V5  V0203601N002512200019N0240001N1-01161-01551103251ADDGF100991999999999999999999MA1102511999999MW1001
0062724626999991973020312004+37183-107750SAO  +20734V5  V0203601N004112200019N0240001N1-01271-01661103051ADDGF100991999999999999999999MA1102401999999MW1001REMAWY003/ 6
0065724626999991973020404004+37183-107750SAO  +20734V5  V0203601N00411018001EN0240001N1+00001-00611102551ADDGD13991+0180099GF107991999999999999999999MA1102241999999MW1001
0065724626999991973020406004+37183-107750SAO  +20734V5  V0203601N00301015001EN0240001N1-00221-00721102481ADDGD13991+0150099GF107991999999999999999999MA1102241999999MW1001
0078724626999991973020412004+37183-107750SAO  +20734V5  V0203601N002512200019N0240001N1-00611-00941102501ADDGD12991+0180099GF102991999999999999999999MA1102171999999MW1001REMAWY004/ 19
0078724626999991973020504004+37183-107750SAO  +20734V5  V0200101N00251018001EN0240001N1-00111-00551102431ADDGD14991+0180099GF108991999999999999999999MA1102171999999MW1001REMAWY004/ 45
0065724626999991973020506004+37183-107750SAO  +20734V5  V0203301N003012200019N0240001N1-00441-00831102361ADDGD12991+0240099GF102991999999999999999999MA1102131999999MW1001
0065724626999991973020508004+37183-107750SAO  +20734V5  V0200301N002012200019N0240001N1-00441-00831102151ADDGD12991+0240099GF102991999999999999999999MA1102101999999MW1001
0050724626999991973020510004+37183-107750SAO  +20734V5  V0203601N002012200019N0240001N1-00611-01271102291ADDGF100991999999999999999999MA1102101999999MW1001
0063724626999991973020512004+37183-107750SAO  +20734V5  V0200101N002512200019N0240001N1-00941-01381102531ADDGF100991999999999999999999MA1102131999999MW1001REMAWY004/ 15
0050724626999991973020604004+37183-107750SAO  +20734V5  V0203501N003612200019N0240001N1-00501-01331102831ADDGF100991999999999999999999MA1102401999999MW1001
0065724626999991973020610004+37183-107750SAO  +20734V5  V0200101N003012200019N0240001N1-00381-00941102341ADDGD12991+0180099GF102991999999999999999999MA1102241999999MW1001
0078724626999991973020612004+37183-107750SAO  +20734V5  V0200101N002512200019N0240001N1-00381-00771102451ADDGD13991+0300093GF107991999999999999999999MA1102201999999MW1001REMAWY004/ 21
0078724626999991973020704004+37183-107750SAO  +20734V5  V0203301N00301006001EN0032001N1+00051-00051102151ADDGD14991+0060099GF108991999999999999999999MA1101931999999MW1731REMAWY004/ 42
0065724626999991973020706004+37183-107750SAO  +20734V5  V0209991C00001000601WN0032001N1-00051-00221102051ADDGD15991+0006099GF109991999999999999999999MA1101901999999MW1451
0175724626999991973020712004+37183-107750SAO  +20734V5  V0209991C00001002401WN0032001N1-00051+99999101951ADDAA106001091AJ100649199999999GD15991+0024099GF109991999999999999999999MA1101801999999MW1451MW2701REMAWY016/ 28 20005 90425EQDQ01+000022APCTENQ02+000002APC3  Q03  00103PRCP99
0078724626999991973020804004+37183-107750SAO  +20734V5  V0202501N002012200019N0240001N1-00271-00771102081ADDGD12991+0240099GF102991999999999999999999MA1101801999999MW1001REMAWY004/ 44
0094724626999991973020904004+37183-107750SAO  +20734V5  V0201601N00201003001WN0032001N1-00501+99999102471ADDGD15991+0030099GF109991999999999999999999MA1102171999999MW1701REMAWY020/ MOON VSBL THRU OVC
0065724626999991973020906004+37183-107750SAO  +20734V5  V0201201N00201012001EN0128001N1-00551+99999102701ADDGD13991+0120099GF107991999999999999999999MA1102241999999MW1701
0050724626999991973021006004+37183-107750SAO  +20734V5  V0202701N002512200019N0240001N1-00771-01051102541ADDGF100991999999999999999999MA1102101999999MW1001
0078724626999991973021012004+37183-107750SAO  +20734V5  V0209991C00001003001MN0128001N1-00721-00831102301ADDGD14991+0030099GF108991999999999999999999MA1101931999999MW1001REMAWY004/ 11
0065724626999991973021103554+37183-107750SAOSP+20734V5  V0209991C00001015001EN0240001N1-00331-00501101871ADDGD13991+0150099GF107991999999999999999999MA1101421999999MW1001
0078724626999991973021104004+37183-107750SAO  +20734V5  V0200201N00301024001EN0240001N1-00271-00771101831ADDGD13991+0240099GF107991999999999999999999MA1101491999999MW1001REMAWY004/ 37
0093724626999991973021112004+37183-107750SAO  +20734V5  V0209991C000010120019N0240001N1-00331-00661101851ADDGD12991+0030099GD24991+0120099GF108991999999999999999999MA1101191999999MW1001REMAWY004/ 24
0078724626999991973021204004+37183-107750SAO  +20734V5  V0201701N00411000901WN0016001N1-00111-00161100681ADDGD15991+0009099GF109991999999999999999999MA1100511999999MW1731REMAWY004/ 42
0065724626999991973021208004+37183-107750SAO  +20734V5  V0201901N00511001201WN0048001N1-00111-00161100461ADDGD15991+0012099GF109991999999999999999999MA1100371999999MW1731
0078724626999991973021304004+37183-107750SAO  +20734V5  V0200501N00251003001EN0240001N1-00611-01051101561ADDGD13991+0030099GF107991999999999999999999MA1101221999999MW1001REMAWY004/ 34
0128724626999991973021306004+37183-107750SAO  +20734V5  V0200301N003612200019N0240001N1-00771-01051101601ADDAA106025091GD12991+0240099GF102991999999999999999999MA1101221999999MD1010341+9999MW1001REMAWY01003499 MIS%EQDQ01  02503PRCP99
0065724626999991973021308004+37183-107750SAO  +20734V5  V0203601N003612200019N0240001N1-01271-01441101831ADDGD12991+0300099GF102991999999999999999999MA1101291999999MW1001
0050724626999991973021310004+37183-107750SAO  +20734V5  V0203501N003612200019N0400001N1-01221-01721101731ADDGF100991999999999999999999MA1101351999999MW1001
0077724626999991973021312004+37183-107750SAO  +20734V5  V0203401N004612200019N0240001N1-01111-01611101951ADDGD12991+0300093GF102991999999999999999999MA1101421999999MW1001REMAWY003/ 8
0063724626999991973021404004+37183-107750SAO  +20734V5  V0200101N002512200019N0240001N1-00941-01271102251ADDGF100991999999999999999999MA1101691999999MW1001REMAWY004/ 42
0050724626999991973021406004+37183-107750SAO  +20734V5  V0203601N003012200019N0240001N1-01161-01551102361ADDGF100991999999999999999999MA1101801999999MW1001
0078724626999991973021412004+37183-107750SAO  +20734V5  V0203601N002512200019N0240001N1-01271-01771102501ADDGD12991+0180099GF102991999999999999999999MA1101931999999MW1001REMAWY004/ 07
0063724626999991973021504004+37183-107750SAO  +20734V5  V0200101N002012200019N0240001N1-00551-01161102441ADDGF100991999999999999999999MA1101901999999MW1001REMAWY004/ 40
0050724626999991973021506004+37183-107750SAO  +20734V5  V0203501N002512200019N0240001N1-00661-01111102421ADDGF100991999999999999999999MA1102001999999MW1001
0063724626999991973021512004+37183-107750SAO  +20734V5  V0203601N002512200019N0240001N1-01221-01381102501ADDGF100991999999999999999999MA1102031999999MW1001REMAWY004/ 06
0128724626999991973021606004+37183-107750SAO  +20734V5  V0200101N004112200019N0240001N1-00771-01161102751ADDAA106025091GD12991+0240099GF102991999999999999999999MA1101661999999MD1010341+9999MW1001REMAWY01003499 MIS%EQDQ01  02503PRCP99
0065724626999991973021610004+37183-107750SAO  +20734V5  V0203601N003012200019N0240001N1-00831-01441102441ADDGD12991+0450093GF102991999999999999999999MA1102171999999MW1001
0078724626999991973021612004+37183-107750SAO  +20734V5  V0203601N005112200019N0240001N1-01001-01331102501ADDGD12991+0600093GF102991999999999999999999MA1102071999999MW1001REMAWY004/ 10
0078724626999991973021704004+37183-107750SAO  +20734V5  V0203601N003012200019N0240001N1-00771-01221102201ADDGD12991+0150099GF102991999999999999999999MA1101731999999MW1001REMAWY004/ 44
0063724626999991973021712004+37183-107750SAO  +20734V5  V0203601N005112200019N0240001N1-00331-00661102001ADDGF100991999999999999999999MA1101761999999MW1001REMAWY004/ 14
0063724626999991973021804004+37183-107750SAO  +20734V5  V0200101N002512200019N0240001N1-00611-01441102201ADDGF100991999999999999999999MA1101831999999MW1001REMAWY004/ 45
0050724626999991973021806004+37183-107750SAO  +20734V5  V0203601N003012200019N0240001N1-00721-01001102181ADDGF100991999999999999999999MA1101801999999MW1001
0063724626999991973021904004+37183-107750SAO  +20734V5  V0203601N002512200019N0240001N1-00661-01331102361ADDGF100991999999999999999999MA1101831999999MW1001REMAWY004/ 41
0050724626999991973021906004+37183-107750SAO  +20734V5  V0200101N003612200019N0240001N1-00721-01221102501ADDGF100991999999999999999999MA1101901999999MW1001
0050724626999991973021908004+37183-107750SAO  +20734V5  V0203601N003612200019N0240001N1-01051-01161102351ADDGF100991999999999999999999MA1102001999999MW1001
0060724626999991973021912004+37183-107750SAO  +20734V5  V0203201N003612200019N0240001N1-01381-02161102581ADDGF100991999999999999999999MA1102101999999MW1001REMAWY0015
0063724626999991973022004004+37183-107750SAO  +20734V5  V0203601N002012200019N0240001N1-00611-01271103401ADDGF100991999999999999999999MA1102841999999MW1001REMAWY004/ 40
0065724626999991973022006004+37183-107750SAO  +20734V5  V0203501N005112200019N0240001N1-00721-01221103301ADDGD12991+0300099GF102991999999999999999999MA1102911999999MW1001
0065724626999991973022008004+37183-107750SAO  +20734V5  V0203601N004112200019N0240001N1-00881-01221103451ADDGD12991+0300099GF102991999999999999999999MA1102881999999MW1001
0093724626999991973022012004+37183-107750SAO  +20734V5  V0203601N002512200019N0240001N1-01111-01441103401ADDGD12991+0240099GD23991+0450093GF107991999999999999999999MA1102911999999MW1001REMAWY004/ 10
0231724626999991973022104004+37183-107750SAO  +20734V5  V0200101N003612200019N0240001N1-00381-00831102961ADDAA106000091GD12991+0240099GF102991999999999999999999MA1102441999999MD1010001+9999MW1001REMAWY113/ 40       ?MCBO 00000 400MTS NEBDEN TODIR CIELO OBCS 10/10 Q1026      ?     APTO CONT CDO TODA CLASE OPERACIONESEQDQ01  00003PRCP99
0065724626999991973022106004+37183-107750SAO  +20734V5  V0203601N003010180019N0240001N1-00441-00831102871ADDGD14991+0180099GF108991999999999999999999MA1102471999999MW1001
0078724626999991973022204004+37183-107750SAO  +20734V5  V0203601N00301018001EN0240001N1-00221-00721102541ADDGD13991+0180099GF107991999999999999999999MA1102201999999MW1001REMAWY004/ 41
0065724626999991973022206004+37183-107750SAO  +20734V5  V0200101N00411015001EN0240001N1-00221-00771102201ADDGD14991+0150099GF108991999999999999999999MA1102201999999MW1001
0201724626999991973022209004+37183-107750SAO  +20734V5  V0203401N00251015001EN0240001N1-00111-00331102051ADDAA106025091GD14991+0150099GF108991999999999999999999MA1101961999999MD1010341+9999MW1001REMAWY08303499 MIS%       ?     03100 62927 70278 ..136 03/// 593   00000 81709 83916 GST59%EQDQ01  02503PRCP99
0076724626999991973022304004+37183-107750SAO  +20734V5  V0209991C00001015001EN0240001N1-00051-00501102301ADDGD14991+0150099GF108991999999999999999999MA1102001999999MW1001REMAWY00240
0065724626999991973022306004+37183-107750SAO  +20734V5  V0209991C00001015001EN0240001N1-00051-00501102201ADDGD14991+0150099GF108991999999999999999999MA1102031999999MW1001
0050724626999991973022308004+37183-107750SAO  +20734V5  V0209999999999013501EN0240001N1-00111-00331102171ADDGD13991+0135099GF107991999999999999999999MW1001
0065724626999991973022310004+37183-107750SAO  +20734V5  V0200301N00251015001EN0160001N1-00161-00501102001ADDGD13991+0150099GF107991999999999999999999MA1101961999999MW1001
0097724626999991973022312004+37183-107750SAO  +20734V5  V0202601N00251015001EN9999999N9-00221-00551102201ADDGD13991+0150099GF107991999999999999999999MA1101931999999MW1001REMAWY004/ 28EQDQ01+000002VOVAR 
0078724626999991973022404004+37183-107750SAO  +20734V5  V0200101N002012200019N0240001N1-00221-00721102141ADDGD12991+0180099GF102991999999999999999999MA1101901999999MW1001REMAWY004/ 39
0065724626999991973022406004+37183-107750SAO  +20734V5  V0209991C000012200019N0240001N1-00331-00661102201ADDGD12991+0180099GF102991999999999999999999MA1101931999999MW1001
0078724626999991973022504004+37183-107750SAO  +20734V5  V0200101N002512200019N0240001N1-00221-00881102541ADDGD12991+0240099GF102991999999999999999999MA1102071999999MW1001REMAWY004/ 42
0065724626999991973022506004+37183-107750SAO  +20734V5  V0203601N002512200019N0240001N1-00221-00721102361ADDGD12991+0240099GF102991999999999999999999MA1102071999999MW1001
0063724626999991973022510004+37183-107750SAO  +20734V5  V0209991C000012200019N0240001N1-00221-00551102211ADDGD12991+0240099GF102991999999999999999999MW1001REMAWY0040014
0061724626999991973022604004+37183-107750SAO  +20734V5  V0200301N003012200019N0240001N1-00051-00661102821ADDGF100991999999999999999999MD1010311+9999MW1001REMAWY003031
0050724626999991973022606004+37183-107750SAO  +20734V5  V0203601N003612200019N0240001N1-00161-00661102901ADDGF100991999999999999999999MA1102741999999MW1001
0050724626999991973022608004+37183-107750SAO  +20734V5  V0203501N003012200019N0240001N1-00221-00551102951ADDGF100991999999999999999999MA1102811999999MW1001
0050724626999991973022610004+37183-107750SAO  +20734V5  V0203601N003612200019N0240001N1-00501-00771102901ADDGF100991999999999999999999MA1102781999999MW1001
0050724626999991973022706004+37183-107750SAO  +20734V5  V0203501N005112200019N0240001N1-00111-00381102601ADDGF100991999999999999999999MA1102471999999MW1001
0050724626999991973022708004+37183-107750SAO  +20734V5  V0203501N004612200019N0240001N1-00221-00551102451ADDGF100991999999999999999999MA1102441999999MW1001
0078724626999991973022804004+37183-107750SAO  +20734V5  V0203601N00361024001EN0240001N1+00501-00111101951ADDGD13991+0240099GF107991999999999999999999MA1101901999999MW1001REMAWY004/ 52
0065724626999991973022806004+37183-107750SAO  +20734V5  V0200101N00411024001EN0240001N1+00441-00051101781ADDGD13991+0240099GF107991999999999999999999MA1101801999999MW1001
0078724626999991973022812004+37183-107750SAO  +20734V5  V0209991C00001012001EN0240001N1-00051-00501101801ADDGD14991+0120099GF108991999999999999999999MA1101521999999MW1001REMAWY004/ 29
0078724626999991973030104004+37183-107750SAO  +20734V5  V0209991C00001220001EN0240001N1-00111-01161101681ADDGD12991+0150099GF102991999999999999999999MA1101521999999MW1001REMAWY004/ 43
0078724626999991973030112004+37183-107750SAO  +20734V5  V0209991C00001000601WN0008001N1-00161-00161102101ADDGD15991+0006099GF109991999999999999999999MA1101931999999MW1451REMAWY004/ 29
0078724626999991973030204004+37183-107750SAO  +20734V5  V0203601N002512200019N0240001N1+00001-00441102251ADDGD12991+0180099GF102991999999999999999999MA1102101999999MW1001REMAWY004/ 41
0065724626999991973030206004+37183-107750SAO  +20734V5  V0203601N003612200019N0240001N1-00111-00381102181ADDGD12991+0180099GF102991999999999999999999MA1102031999999MW1001
0063724626999991973030212004+37183-107750SAO  +20734V5  V0200101N004112200019N0240001N1-00441-00661102001ADDGF100991999999999999999999MA1101801999999MW1001REMAWY004/ 24
0078724626999991973030304004+37183-107750SAO  +20734V5  V0203401N003612200019N0240001N1-00111-00551101741ADDGD12991+0240099GF102991999999999999999999MA1101521999999MW1001REMAWY004/ 47
0050724626999991973030304454+37183-107750SAOSP+20734V5  V0202901N003612200019N0240001N1-00161-00501101651ADDGF100991999999999999999999MA1101521999999MW1001
0065724626999991973030308004+37183-107750SAO  +20734V5  V0200101N003012200019N0240001N1-00161-00331101501ADDGD12991+0300099GF102991999999999999999999MA1101521999999MW1001
0078724626999991973030312004+37183-107750SAO  +20734V5  V0203601N002512200019N0240001N1-00381-00771101651ADDGD12991+0360099GF102991999999999999999999MA1101591999999MW1001REMAWY004/ 20
0063724626999991973030404004+37183-107750SAO  +20734V5  V0200501N002512200019N0240001N1-00221-00881102251ADDGF100991999999999999999999MA1101831999999MW1001REMAWY004/ 44
0050724626999991973030406004+37183-107750SAO  +20734V5  V0200201N002512200019N0240001N1-00331-00661102051ADDGF100991999999999999999999MA1101801999999MW1001
0050724626999991973030408004+37183-107750SAO  +20734V5  V0200101N002512200019N0240001N1-00381-00611101951ADDGF100991999999999999999999MA1101801999999MW1001
0063724626999991973030412004+37183-107750SAO  +20734V5  V0203601N004112200019N0240001N1-00441-00661101651ADDGF100991999999999999999999MA1101521999999MW1001REMAWY004/ 18
0078724626999991973030504004+37183-107750SAO  +20734V5  V0201901N00511004501MN0128001N1-00111-00271100551ADDGD14991+0045099GF108991999999999999999999MA1100471999999MW1001REMAWY004/ 45
0065724626999991973030506004+37183-107750SAO  +20734V5  V0202101N00461013501EN0160001N1-00161-00331100481ADDGD13991+0135099GF107991999999999999999999MA1100441999999MW1001
0065724626999991973030508004+37183-107750SAO  +20734V5  V0202501N00511015001EN0240001N1-00331-00501100501ADDGD13991+0150099GF107991999999999999999999MA1100511999999MW1001
0078724626999991973030512004+37183-107750SAO  +20734V5  V0201901N00251003001MN0160001N1-00441-00611100751ADDGD14991+0030099GF108991999999999999999999MA1100541999999MW1001REMAWY004/ 24
0078724626999991973030604004+37183-107750SAO  +20734V5  V0202301N004112200019N0240001N1-00331-00941101191ADDGD12991+0180099GF102991999999999999999999MA1100951999999MW1001REMAWY004/ 36
0078724626999991973030704004+37183-107750SAO  +20734V5  V0200201N00251015001EN0240001N1-00161-00661101601ADDGD13991+0150099GF107991999999999999999999MA1101391999999MW1001REMAWY004/ 45
0065724626999991973030706004+37183-107750SAO  +20734V5  V0203501N00251015001EN0240001N1-00221-00551101551ADDGD14991+0150099GF108991999999999999999999MA1101391999999MW1001
0065724626999991973030708004+37183-107750SAO  +20734V5  V0203201N00251012001EN0128001N1-00221-00551101591ADDGD14991+0120099GF108991999999999999999999MA1101421999999MW1701
0078724626999991973030712004+37183-107750SAO  +20734V5  V0203601N00411012001EN0240001N1-00381-00611101601ADDGD13991+0120099GF107991999999999999999999MA1101351999999MW1001REMAWY004/ 25
0078724626999991973030804004+37183-107750SAO  +20734V5  V0200601N00201001201WN0064001N1+00001-00111101451ADDGD15991+0012099GF109991999999999999999999MA1101291999999MW1731REMAWY004/ 44
0165724626999991973030812004+37183-107750SAO  +20734V5  V0209991C00001000301MN0064001N1-00111-00271101451ADDAA106000291GD14991+0003099GF108991999999999999999999KA1999N-00121MA1101251999999MW1701REMAWY016/ 90404 20001 30EQDQ01+000022APCTENQ02+000002APC3  Q03  00023PRCP99
0078724626999991973030904004+37183-107750SAO  +20734V5  V0200101N00361015001EN0160001N1+00051-00501101341ADDGD13991+0150099GF107991999999999999999999MA1101351999999MW1001REMAWY004/ 38
0090724626999991973030912004+37183-107750SAO  +20734V5  V0200601N00461001801WN0008001N1-00051-00111101051ADDGD15991+0018099GF109991999999999999999999MA1100911999999MW1731REMAWY016/ 20002890405 29
0078724626999991973031004004+37183-107750SAO  +20734V5  V0202901N003612200019N0004001N1-00441-00501101361ADDGD16991+0001599GF110991999999999999999999MA1101021999999MW1111REMAWY004/ F5
0063724626999991973031104004+37183-107750SAO  +20734V5  V0209991C000012200019N0240001N1-00271-00611101381ADDGF100991999999999999999999MA1100981999999MW1001REMAWY004/ 40
0093724626999991973031112004+37183-107750SAO  +20734V5  V0203101N002510090019N0240001N1-00611-00831101551ADDGD12991+0030099GD23991+0090099GF107991999999999999999999MA1101221999999MW1001REMAWY004/ 16
0078724626999991973031204004+37183-107750SAO  +20734V5  V0200501N00411024001EN0240001N1+00001-00611101461ADDGD13991+0240099GF107991999999999999999999MA1101351999999MW1001REMAWY004/ 43
0065724626999991973031205004+37183-107750SAO  +20734V5  V0200501N00411024001EN0240001N1-00111-00381101401ADDGD13991+0240099GF107991999999999999999999MA1101351999999MW1001
0078724626999991973031304004+37183-107750SAO  +20734V5  V0209991C00001012001EN0240001N1+99999+99999999999ADDGD14991+0120099GF108991999999999999999999MA1100681999999MW1001REMAWY004/ 50
0065724626999991973031306004+37183-107750SAO  +20734V5  V0201801N00251000601WN0032001N1+00161+00051100501ADDGD15991+0006099GF109991999999999999999999MA1100641999999MW1731
0065724626999991973031310004+37183-107750SAO  +20734V5  V0202201N00251000601WN0032001N1-00161-00331100011ADDGD15991+0006099GF109991999999999999999999MA1100201999999MW1731
0078724626999991973031404004+37183-107750SAO  +20734V5  V0202501N00411003001EN0240001N1-00441-00661100501ADDGD13991+0030099GF107991999999999999999999MA1100171999999MW1001REMAWY004/ 36
0167724626999991973031412004+37183-107750SAO  +20734V5  V0203601N002512200019N0240001N1-00661-00941100701ADDAA106001091GD12991+0030099GD22991+0360099GF102991999999999999999999MA1100341999999MW1001REMAWY016/ 90401 17 20005EQDQ01+000022APCTENQ02+000002APC3  Q03  00103PRCP99
0078724626999991973031504004+37183-107750SAO  +20734V5  V0203501N003012200019N0240001N1-00381-00771101251ADDGD12991+0450099GF102991999999999999999999MA1100911999999MW1001REMAWY004/ 40
0050724626999991973031506004+37183-107750SAO  +20734V5  V0203201N005112200019N0240001N1-00661-00941101401ADDGF100991999999999999999999MA1101051999999MW1001
0063724626999991973031512004+37183-107750SAO  +20734V5  V0203601N003012200019N0240001N1-00771-01161101501ADDGF100991999999999999999999MA1101221999999MW1001REMAWY004/ 16
0063724626999991973031604004+37183-107750SAO  +20734V5  V0203601N004112200019N0240001N1-00221-00881102371ADDGF100991999999999999999999MA1102071999999MW1001REMAWY004/ 42
0063724626999991973031612004+37183-107750SAO  +20734V5  V0203301N004112200019N0240001N1-00881-01221102651ADDGF100991999999999999999999MA1102301999999MW1001REMAWY004/ 14
0078724626999991973032706004+37183-107750SAO  +20734V5  V0200501N00201010501EN0112001N1+00331+00161100571ADDGD14991+0105099GF108991999999999999999999MA1100751999999MW1001REMAWY004/ 55
0065724626999991973032708004+37183-107750SAO  +20734V5  V0201601N002512200019N0112001N1+00381+00271100251ADDGD14991+0900093GF108991999999999999999999MA1100511999999MW1001
0080724626999991973032710004+37183-107750SAO  +20734V5  V0201601N00151010501EN0112001N1+00381+00221100001ADDGD13991+0105099GD24991+0900099GF108991999999999999999999MA1100271999999MW1001
0065724626999991973032808004+37183-107750SAO  +20734V5  V0201801N00411001801EN0096001N1+00161-00051100591ADDGD14991+0018099GF108991999999999999999999MA1100641999999MW1711
0065724626999991973032810004+37183-107750SAO  +20734V5  V0201601N00201001201EN0024001N1+00111-00051100531ADDGD14991+0012099GF108991999999999999999999MA1100581999999MW1711
0147724626999991973032812004+37183-107750SAO  +20734V5  V0201601N00201003001EN0096001N1+00051+00001100661ADDAA106999999GD13991+0030099GF107991999999999999999999MA1100611999999MD1210221+9999MW1711REMAWY013/ ///00 44532EQDQ01  00003PRCP99Q02  00002PRCP06
0147724626999991973032906004+37183-107750SAO  +20734V5  V0200501N00101000301WN0064001N1-00111-00221100951ADDAA106013091GD15991+0003099GF109991999999999999999999KA1999M+00661MA1100811999999MD1010001+9999MW1711REMAWY016/ 00052 44 90402EQDQ01  01303PRCP99
0065724626999991973032908004+37183-107750SAO  +20734V5  V0209991C00001002401WN0032001N1-00111-00221100871ADDGD15991+0024099GF109991999999999999999999MA1100811999999MW1711
0095724626999991973032910004+37183-107750SAO  +20734V5  V0209991C000010090019N0112001N1-00111-00221100851ADDGD12991+0024099GD23991+0090099GD34991+0360099GF108991999999999999999999MA1100711999999MW1001
0138724626999991973032912004+37183-107750SAO  +20734V5  V0200801N00151004501WN0048001N1-00161-00221100901ADDAA106015091GD15991+0045099GF109991999999999999999999MW1711REMAWY01790403 20060 44424EQDQ01+000022APCTENQ02+000002APC3  Q03  01503PRCP99
0089724626999991973033006004+37183-107750SAO  +20734V5  V0209991C00001001501WN0048001N1+00001-00051101041ADDGD15991+0015099GF109991999999999999999999MA1100911999999MW1711REMAWY015/ 6000 38 90408
0065724626999991973033008004+37183-107750SAO  +20734V5  V0209991C00001015001EN0112001N1-00221-00441101061ADDGD14991+0150099GF108991999999999999999999MA1100851999999MW1001
0083724626999991973033010004+37183-107750SAO  +20734V5  V0200401N00201007501EN0112001N1-00271-00551101121ADDGD14991+0075099GF108991999999999999999999MA1100911999999MW1001REMAWY009INTMT S--
0155724626999991973033012004+37183-107750SAO  +20734V5  V0200701N00201004501EN0112001N1-00381-00611101221ADDAA106015091GD14991+0045099GF108991999999999999999999MA1101051999999MW1711REMAWY019/ 90408 20060 43825EQDQ01+000022APCTENQ02+000002APC3  Q03  01503PRCP99
0063724626999991973033106004+37183-107750SAO  +20734V5  V0209991C000012200019N0112001N1-00111-00441101191ADDGF100991999999999999999999MA1101221999999MW1001REMAWY004/ 49
0050724626999991973033108004+37183-107750SAO  +20734V5  V0201701N003012200019N0064001N1-00221-00441101281ADDGF100991999999999999999999MA1101221999999MW1001
0050724626999991973033110004+37183-107750SAO  +20734V5  V0200901N002012200019N0112001N1-00331-00551101331ADDGF100991999999999999999999MA1101251999999MW1001
0128724626999991973033112004+37183-107750SAO  +20734V5  V0201601N002012200019N0112001N1-00381-00611101291ADDAA106006091GF100991999999999999999999MA1101251999999MW1001REMAWY007/ 44924EQDQ01+000042APCTENQ02+000492APC3  Q03  00603PRCP99
0063724626999991973040106004+37183-107750SAO  +20734V5  V0209991C000012200019N0112001N1-00111-00221101561ADDGF100991999999999999999999MA1101561999999MW1001REMAWY004/ 52
0050724626999991973040108004+37183-107750SAO  +20734V5  V0209991C000012200019N0112001N1-00271-00501101541ADDGF100991999999999999999999MA1101561999999MW1001
0037724626999991973040110004+37183-107750SAO  +20734V5  V0209991C000019999999N9999999N9-00271-00501101471ADDMA1101491999999EQDQ01+000002VOVAR 
0163724626999991973040206004+37183-107750SAO  +20734V5  V0200501N00151003001WN0048001N1-00051-00111100941ADDAA106999999GD15991+0030099GF109991999999999999999999KA1999M+00831MA1100981999999MD1210221+9999MW1711REMAWY016/ ///00 47 90401EQDQ01  00003PRCP99Q02  00002PRCP06
0065724626999991973040208004+37183-107750SAO  +20734V5  V0200401N00251004501EN0096001N1-00051-00111100621ADDGD14991+0045099GF108991999999999999999999MA1100811999999MW1711
0080724626999991973040210004+37183-107750SAO  +20734V5  V0209991C00001009001EN0112001N1-00051-00221100671ADDGD13991+0090099GD24991+0900099GF108991999999999999999999MA1100711999999MW1001
0155724626999991973040212004+37183-107750SAO  +20734V5  V0209991C000012200019N0112001N1-00161-00381100801ADDAA106001091GD14991+0900093GF108991999999999999999999MA1100751999999MW1001REMAWY019/ 20005 44729 90402EQDQ01+000022APCTENQ02+000002APC3  Q03  00103PRCP99
0141724626999991973040306004+37183-107750SAO  +20734V5  V0209991C00001012001EN0112001N1+00001-00111101901ADDAA106000091GD14991+0120099GF108991999999999999999999KA1999M+00771MA1101931999999MD1210221+9999MW1001REMAWY010/ ///00 46EQDQ01  00003PRCP99
0065724626999991973040308004+37183-107750SAO  +20734V5  V0201701N00201012001EN0112001N1-00051-00161102001ADDGD13991+0120099GF107991999999999999999999MA1102001999999MW1001
0065724626999991973040310004+37183-107750SAO  +20734V5  V0200601N00201012001EN0112001N1-00111-00221102161ADDGD13991+0120099GF107991999999999999999999MA1102071999999MW1001
0115724626999991973040312004+37183-107750SAO  +20734V5  V0200401N002012200019N0112001N1-00221-00441102281ADDGF100991999999999999999999KA1999N-00231MA1102131999999MW1001REMAWY008/ 448 28EQDQ01+000042APCTENQ02+000482APC3  
0063724626999991973040406004+37183-107750SAO  +20734V5  V0202001N002012200019N0112001N1+00001-00221102281ADDGF100991999999999999999999MA1102241999999MW1001REMAWY004/ 45
0065724626999991973040408004+37183-107750SAO  +20734V5  V0200801N00201009001EN0112001N1-00161-00381102441ADDGD13991+0090099GF107991999999999999999999MA1102341999999MW1001
0065724626999991973040410004+37183-107750SAO  +20734V5  V0200601N002512200019N0112001N1-00381-00551102491ADDGD12991+0090099GF102991999999999999999999MA1102341999999MW1001
0063724626999991973040506004+37183-107750SAO  +20734V5  V0200601N004112200019N0112001N1+00161-00111102171ADDGF100991999999999999999999MA1102131999999MW1001REMAWY004/ 47
0050724626999991973040508004+37183-107750SAO  +20734V5  V0209991C000012200019N0112001N1-00271-00551102281ADDGF100991999999999999999999MA1102201999999MW1001
0050724626999991973040510004+37183-107750SAO  +20734V5  V0209991C000012200019N0112001N1-00441-00661102561ADDGF100991999999999999999999MA1102271999999MW1001
0115724626999991973040512004+37183-107750SAO  +20734V5  V0209991C000012200019N0112001N1-00611-00771102551ADDGF100991999999999999999999KA1999N-00621MA1102271999999MW1001REMAWY008/ 447 21EQDQ01+000042APCTENQ02+000472APC3  
0063724626999991973040606004+37183-107750SAO  +20734V5  V0201801N001512200019N0112001N1+00001-00381101681ADDGF100991999999999999999999MA1101761999999MW1001REMAWY004/ 54
0050724626999991973040608004+37183-107750SAO  +20734V5  V0209991C000012200019N0112001N1-00161-00501101661ADDGF100991999999999999999999MA1101731999999MW1001
0050724626999991973040610004+37183-107750SAO  +20734V5  V0209991C000012200019N0112001N1-00381-00661101501ADDGF100991999999999999999999MA1101591999999MW1001
0133724626999991973040612004+37183-107750SAO  +20734V5  V0209991C000012200019N0112001N1-00501-00661101561ADDAA106006091GF100991999999999999999999MA1101591999999MW1001REMAWY012/ 45423    ZEQDQ01+000042APCTENQ02+000542APC3  Q03  00603PRCP99
0060724626999991973040706004+37183-107750SAO  +20734V5  V0201401N002512200019N0112001N1+00611+00001100781ADDGF100991999999999999999999MA1101151999999MW1001REMAWY001/
0065724626999991973040708004+37183-107750SAO  +20734V5  V0202001N00251012001EN0112001N1+00381-00111100451ADDGD13991+0120099GF107991999999999999999999MA1101051999999MW1001
0050724626999991973040710004+37183-107750SAO  +20734V5  V0201701N002512200019N0112001N1+00221-00111100571ADDGF100991999999999999999999MA1100911999999MW1001
0143724626999991973040712004+37183-107750SAO  +20734V5  V0201901N002512200019N0112001N1+00051-00271100671ADDAA106008091GD12991+0120099GF102991999999999999999999MA1100881999999MW1001REMAWY007/ 46233EQDQ01+000042APCTENQ02+000622APC3  Q03  00803PRCP99
0093724626999991973040806004+37183-107750SAO  +20734V5  V0201601N00411024001EN0112001N1-00331-00661101331ADDGD13991+0240099GD24991+0900099GF108991999999999999999999MA1101191999999MW1001REMAWY004/ 45
0065724626999991973040808004+37183-107750SAO  +20734V5  V0201701N002512200019N0112001N1-00441-00721101501ADDGD12991+0120099GF102991999999999999999999MA1101391999999MW1001
0065724626999991973040810004+37183-107750SAO  +20734V5  V0209991C000012200019N0112001N1-00611-00831102061ADDGD12991+0120099GF102991999999999999999999MA1101521999999MW1001
0128724626999991973040812004+37183-107750SAO  +20734V5  V0209991C000012200019N0112001N1-00771-01001101941ADDAA106005091GF100991999999999999999999MA1101661999999MW1001REMAWY007/ 44518EQDQ01+000042APCTENQ02+000452APC3  Q03  00503PRCP99
0063724626999991973040906004+37183-107750SAO  +20734V5  V0200501N001512200019N0112001N1-00051-01221101821ADDGF100991999999999999999999MA1101831999999MW1001REMAWY004/ 44
0050724626999991973040908004+37183-107750SAO  +20734V5  V0200801N004112200019N0112001N1-00161-01111101821ADDGF100991999999999999999999MA1101761999999MW1001
0050724626999991973040910004+37183-107750SAO  +20734V5  V0201701N002512200019N0112001N1-00441-01111101971ADDGF100991999999999999999999MA1101761999999MW1001
0128724626999991973040912004+37183-107750SAO  +20734V5  V0209991C000012200019N0112001N1-00441-01111101851ADDAA106006091GF100991999999999999999999MA1101801999999MW1001REMAWY007/ 44424EQDQ01+000042APCTENQ02+000442APC3  Q03  00603PRCP99
0078724626999991973041006004+37183-107750SAO  +20734V5  V0209991C000012200019N0112001N1+00051-00611102141ADDGD12991+0900093GF102991999999999999999999MA1102171999999MW1001REMAWY004/ 54
0065724626999991973041008004+37183-107750SAO  +20734V5  V0201901N002512200019N0112001N1-00111-00721102011ADDGD13991+0900093GF107991999999999999999999MA1102131999999MW1001
0065724626999991973041010004+37183-107750SAO  +20734V5  V0209991C000012200019N0112001N1-00221-00881101871ADDGD13991+0900093GF107991999999999999999999MA1102101999999MW1001
0143724626999991973041012004+37183-107750SAO  +20734V5  V0200801N002012200019N0112001N1-00271-00721102151ADDAA106007091GD13991+0900093GF107991999999999999999999MA1102131999999MW1001REMAWY007/ 45427EQDQ01+000042APCTENQ02+000542APC3  Q03  00703PRCP99
0075724626999991973041106004+37183-107750SAO  +20734V5  V0209991C00001036001EN0112001N1+00611-00051101661ADDGD13991+0360099GF107991999999999999999999MA1102001999999MW1001REMAWY001/
0065724626999991973041108004+37183-107750SAO  +20734V5  V0201901N00201036001EN0112001N1+00441-00161101651ADDGD13991+0360099GF107991999999999999999999MA1102001999999MW1001
0050724626999991973041110004+37183-107750SAO  +20734V5  V0201801N002012200019N0112001N1+00111-00331101731ADDGF100991999999999999999999MA1102001999999MW1001
0143724626999991973041112004+37183-107750SAO  +20734V5  V0209991C000012200019N0112001N1+00001-00331101811ADDAA106008091GD12991+0360099GF102991999999999999999999MA1102001999999MW1001REMAWY007/ 46132EQDQ01+000042APCTENQ02+000612APC3  Q03  00803PRCP99
0078724626999991973041206004+37183-107750SAO  +20734V5  V0200401N00201036001EN0112001N1+00501-00111101841ADDGD14991+0360099GF108991999999999999999999MA1102171999999MW1001REMAWY004/ 60
0065724626999991973041208004+37183-107750SAO  +20734V5  V0200401N00201090001EN0112001N1+00331-00221101901ADDGD13991+0900099GF107991999999999999999999MA1102201999999MW1001
0050724626999991973041210004+37183-107750SAO  +20734V5  V0209991C000012200019N0112001N1+00161-00381101931ADDGF100991999999999999999999MA1102201999999MW1001
0128724626999991973041212004+37183-107750SAO  +20734V5  V0209991C000012200019N0112001N1+00001-00501102061ADDAA106008091GF100991999999999999999999MA1102241999999MW1001REMAWY007/ 46032EQDQ01+000042APCTENQ02+000602APC3  Q03  00803PRCP99
0075724626999991973041306004+37183-107750SAO  +20734V5  V0201701N002012200019N0112001N1+00271+00111101941ADDGD12991+0900093GF102991999999999999999999MA1102201999999MW1001REMAWY001/
0065724626999991973041308004+37183-107750SAO  +20734V5  V0201901N002012200019N0112001N1+00161-00051101901ADDGD13991+0900093GF107991999999999999999999MA1102201999999MW1001
0128724626999991973041312004+37183-107750SAO  +20734V5  V0202001N002012200019N0112001N1+00051-00161102001ADDAA106008091GF100991999999999999999999MA1102201999999MW1001REMAWY007/ 46132EQDQ01+000042APCTENQ02+000612APC3  Q03  00803PRCP99
0063724626999991973041406004+37183-107750SAO  +20734V5  V0200701N001512200019N0112001N1+00381-00161101231ADDGF100991999999999999999999MA1101591999999MW1001REMAWY004/ 64
0050724626999991973041408004+37183-107750SAO  +20734V5  V0200601N002012200019N0112001N1+00111-00051101301ADDGF100991999999999999999999MA1101591999999MW1001
0050724626999991973041410004+37183-107750SAO  +20734V5  V0209991C000012200019N0112001N1-00111-00881101391ADDGF100991999999999999999999MA1101591999999MW1001
0128724626999991973041412004+37183-107750SAO  +20734V5  V0209991C000012200019N0112001N1-00221-00831101361ADDAA106007091GF100991999999999999999999MA1101591999999MW1001REMAWY007/ 46428EQDQ01+000042APCTENQ02+000642APC3  Q03  00703PRCP99
0087724626999991973041506004+37183-107750SAO  +20734V5  V0201701N00511015001EN0112001N1+00551+00161100711ADDGD14991+0150099GF108991999999999999999999MA1101081999999MW1001REMAWY013INTMT R--/ 62
0065724626999991973041508004+37183-107750SAO  +20734V5  V0201701N00251012001EN0080001N1+00221-00161100851ADDGD14991+0120099GF108991999999999999999999MA1101221999999MW1701
0158724626999991973041512004+37183-107750SAO  +20734V5  V0200401N002510900019N0112001N1-00051-00221100841ADDAA106008091GD12991+0120099GD24991+0900099GF108991999999999999999999MA1101081999999MW1001REMAWY007/ 46231EQDQ01+000042APCTENQ02+000622APC3  Q03  00803PRCP99
0063724626999991973041606004+37183-107750SAO  +20734V5  V0201801N002012200019N0112001N1+00051-00221101871ADDGF100991999999999999999999MA1101731999999MW1001REMAWY004/ 49
0050724626999991973041608004+37183-107750SAO  +20734V5  V0201901N002012200019N0112001N1-00051-00271101931ADDGF100991999999999999999999MA1101831999999MW1001
0065724626999991973041610004+37183-107750SAO  +20734V5  V0201701N002012200019N0112001N1-00161-00331101941ADDGD12991+0090099GF102991999999999999999999MA1101831999999MW1001
0143724626999991973041612004+37183-107750SAO  +20734V5  V0201801N002512200019N0112001N1-00161-00331101921ADDAA106007091GD12991+0900099GF102991999999999999999999MA1101901999999MW1001REMAWY007/ 44929EQDQ01+000042APCTENQ02+000492APC3  Q03  00703PRCP99
0078724626999991973041706004+37183-107750SAO  +20734V5  V0209991C000012200019N0112001N1+00271-00331101681ADDGD12991+0900099GF102991999999999999999999MA1101901999999MW1001REMAWY004/ 55
0065724626999991973041708004+37183-107750SAO  +20734V5  V0209991C000012200019N0112001N1+00001-00441101661ADDGD12991+0900099GF102991999999999999999999MA1101861999999MW1001
0065724626999991973041710004+37183-107750SAO  +20734V5  V0202001N001512200019N0112001N1-00161-00611101531ADDGD12991+0900099GF102991999999999999999999MA1101801999999MW1001
0128724626999991973041712004+37183-107750SAO  +20734V5  V0209991C000012200019N0112001N1-00221-00501101741ADDAA106007091GF100991999999999999999999MA1101761999999MW1001REMAWY007/ 45528EQDQ01+000042APCTENQ02+000552APC3  Q03  00703PRCP99
0093724626999991973041806004+37183-107750SAO  +20734V5  V0200401N003010240019N0112001N1+00771+00501101121ADDGD12991+0045099GD24991+0240099GF108991999999999999999999MA1100911999999MW1601REMAWY004/ 60
0065724626999991973041808004+37183-107750SAO  +20734V5  V0209991C00001012001EN0112001N1+00661+00441100411ADDGD14991+0120099GF108991999999999999999999MA1100851999999MW1001
0065724626999991973041810004+37183-107750SAO  +20734V5  V0201801N00201012001EN0112001N1+00501+00271100321ADDGD14991+0120099GF108991999999999999999999MA1100711999999MW1001
0124724626999991973041906004+37183-107750SAO  +20734V5  V0202001N003010900019N0112001N1-00051-00221099971ADDGD12991+0075099GD23991+0900099GF107991999999999999999999KA1999M+00721MA1099901999999MD1010401+9999MW1001REMAWY008/ 040 45
0065724626999991973041908004+37183-107750SAO  +20734V5  V0201701N00201009001EN0112001N1-00161-00441099951ADDGD14991+0090099GF108991999999999999999999MA1099861999999MW1001
0065724626999991973041910004+37183-107750SAO  +20734V5  V0201801N00201009001EN0112001N1-00221-00501099971ADDGD14991+0090099GF108991999999999999999999MA1099861999999MW1001
0155724626999991973041912004+37183-107750SAO  +20734V5  V0201701N00511009001EN0112001N1-00221-00501100001ADDAA106010091GD14991+0090099GF108991999999999999999999MA1099861999999MW1001REMAWY019/ 90401 20040 44527EQDQ01+000022APCTENQ02+000002APC3  Q03  01003PRCP99
0063724626999991973042006004+37183-107750SAO  +20734V5  V0202001N003012200019N0112001N1-00331-00831100481ADDGF100991999999999999999999MA1100471999999MW1001REMAWY004/ 41
0050724626999991973042008004+37183-107750SAO  +20734V5  V0209991C000012200019N0112001N1-00501-00941100641ADDGF100991999999999999999999MA1100511999999MW1001
0065724626999991973042010004+37183-107750SAO  +20734V5  V0201901N002012200019N0112001N1-00551-01051100591ADDGD12991+0900099GF102991999999999999999999MA1100581999999MW1001
0128724626999991973042012004+37183-107750SAO  +20734V5  V0201801N002012200019N0112001N1-00661-01111100441ADDAA106005091GF100991999999999999999999MA1100511999999MW1001REMAWY007/ 44120EQDQ01+000042APCTENQ02+000412APC3  Q03  00503PRCP99
0078724626999991973042106004+37183-107750SAO  +20734V5  V0201301N00201003601EN0112001N1+00051-00221101251ADDGD13991+0036099GF107991999999999999999999MA1101291999999MW1701REMAWY004/ 48
0065724626999991973042108004+37183-107750SAO  +20734V5  V0201801N00201003601EN0112001N1+00001-00161101511ADDGD14991+0036099GF108991999999999999999999MA1101461999999MW1701
0065724626999991973042110004+37183-107750SAO  +20734V5  V0200801N00251003601EN0112001N1-00051-00161101431ADDGD14991+0036099GF108991999999999999999999MA1101491999999MW1701
0128724626999991973042112004+37183-107750SAO  +20734V5  V0201801N002012200019N0112001N1-00551-00771101631ADDAA106007091GF100991999999999999999999MA1101591999999MW1001REMAWY007/ 44826EQDQ01+000042APCTENQ02+000482APC3  Q03  00703PRCP99
0063724626999991973042206004+37183-107750SAO  +20734V5  V0200401N001512200019N0112001N1+00051-00271102231ADDGF100991999999999999999999MA1102201999999MW1001REMAWY004/ 50
0050724626999991973042208004+37183-107750SAO  +20734V5  V0201701N002012200019N0112001N1-00161-00441102341ADDGF100991999999999999999999MA1102271999999MW1001
0050724626999991973042210004+37183-107750SAO  +20734V5  V0201801N002012200019N0112001N1-00271-00551102291ADDGF100991999999999999999999MA1102271999999MW1001
0128724626999991973042212004+37183-107750SAO  +20734V5  V0201901N002012200019N0112001N1-00381-00661102321ADDAA106006091GF100991999999999999999999MA1102241999999MW1001REMAWY007/ 45025EQDQ01+000042APCTENQ02+000502APC3  Q03  00603PRCP99
0060724626999991973042306004+37183-107750SAO  +20734V5  V0201601N001512200019N0112001N1+00381-00161101741ADDGF100991999999999999999999MA1102001999999MW1001REMAWY001/
0128724626999991973042312004+37183-107750SAO  +20734V5  V0201801N002512200019N0112001N1-00111-00381101611ADDAA106008091GF100991999999999999999999MA1101661999999MW1001REMAWY007/ 46130EQDQ01+000042APCTENQ02+000612APC3  Q03  00803PRCP99
0063724626999991973042406004+37183-107750SAO  +20734V5  V0200601N002512200019N0112001N1+00441-00051100961ADDGF100991999999999999999999MA1101351999999MW1001REMAWY004/ 66
0050724626999991973042408004+37183-107750SAO  +20734V5  V0209991C000012200019N0112001N1+00221-00271100991ADDGF100991999999999999999999MA1101421999999MW1001
0050724626999991973042410004+37183-107750SAO  +20734V5  V0201701N002012200019N0112001N1+00161-00331100991ADDGF100991999999999999999999MA1101351999999MW1001
0128724626999991973042412004+37183-107750SAO  +20734V5  V0201801N002512200019N0112001N1-00051-00331101111ADDAA106008091GF100991999999999999999999MA1101391999999MW1001REMAWY007/ 46  1EQDQ01+000042APCTENQ02+000662APC3  Q03  00803PRCP99
0123724626999991973042506004+37183-107750SAO  +20734V5  V0201101N001512200019N0112001N1+00381+00221101141ADDAA106000091GF100991999999999999999999KA1999M+01611MA1101391999999MD1210221+9999MW1001REMAWY007/ ///00EQDQ01  00003PRCP99
0050724626999991973042508004+37183-107750SAO  +20734V5  V0209991C000012200019N0112001N1+00051-00111101121ADDGF100991999999999999999999MA1101391999999MW1001
0065724626999991973042510004+37183-107750SAO  +20734V5  V0209991C00001015001EN0112001N1+00051-00111101141ADDGD13991+0150099GF107991999999999999999999MA1101321999999MW1001
0143724626999991973042512004+37183-107750SAO  +20734V5  V0200601N00201015001EN0112001N1+00221+00111101171ADDAA106008091GD14991+0150099GF108991999999999999999999MA1101351999999MW1001REMAWY007/ 46131EQDQ01+000042APCTENQ02+000612APC3  Q03  00803PRCP99
0060724626999991973042606004+37183-107750SAO  +20734V5  V0200401N001512200019N0112001N1+00721-00331101421ADDGF100991999999999999999999MA1101761999999MW1001REMAWY001/
0050724626999991973042608004+37183-107750SAO  +20734V5  V0200401N003012200019N0112001N1+00661-00381101471ADDGF100991999999999999999999MA1101901999999MW1001
0050724626999991973042610004+37183-107750SAO  +20734V5  V0200401N001512200019N0112001N1+00271-00271101591ADDGF100991999999999999999999MA1101931999999MW1001
0128724626999991973042612004+37183-107750SAO  +20734V5  V0209991C000012200019N0112001N1+00051-00611101781ADDAA106008091GF100991999999999999999999MA1102031999999MW1001REMAWY007/ 46333EQDQ01+000042APCTENQ02+000632APC3  Q03  00803PRCP99
0063724626999991973042706004+37183-107750SAO  +20734V5  V0201801N002012200019N0112001N1+00331-00331101911ADDGF100991999999999999999999MA1102201999999MW1001REMAWY004/ 64
0050724626999991973042708004+37183-107750SAO  +20734V5  V0201701N002012200019N0112001N1+00221-00441101831ADDGF100991999999999999999999MA1102201999999MW1001
0050724626999991973042710004+37183-107750SAO  +20734V5  V0201801N002512200019N0112001N1+00111-00331101881ADDGF100991999999999999999999MA1102201999999MW1001
0133724626999991973042712004+37183-107750SAO  +20734V5  V0201801N002012200019N0112001N1+00001-00501101941ADDAA106008091GF100991999999999999999999MA1102241999999MW1001REMAWY012/ 46431    ^EQDQ01+000042APCTENQ02+000642APC3  Q03  00803PRCP99
0063724626999991973042806004+37183-107750SAO  +20734V5  V0202001N001512200019N0112001N1+00501-00331101431ADDGF100991999999999999999999MA1101831999999MW1001REMAWY004/ 69
0050724626999991973042808004+37183-107750SAO  +20734V5  V0209991C000012200019N0112001N1+00221-00611101421ADDGF100991999999999999999999MA1101831999999MW1001
0065724626999991973042809554+37183-107750SAOSP+20734V5  V0209991C000012200019N0112001N1+00331-00051101261ADDGD12991+0240099GF102991999999999999999999MA1101731999999MW1001
0050724626999991973042810004+37183-107750SAO  +20734V5  V02099999999992200019N0112001N1+00331-00051101261ADDGD12991+0240099GF102991999999999999999999MW1001
0078724626999991973042906004+37183-107750SAO  +20734V5  V0200501N002512200019N0112001N1+01161+00051100621ADDGD12991+0150099GF102991999999999999999999MA1101321999999MW1001REMAWY004/ 69
0050724626999991973042908004+37183-107750SAO  +20734V5  V0201601N003612200019N0112001N1+01051-00271100641ADDGF100991999999999999999999MA1101321999999MW1001
0050724626999991973042910004+37183-107750SAO  +20734V5  V0200601N001512200019N0112001N1+00771-00161100731ADDGF100991999999999999999999MA1101321999999MW1001
0128724626999991973042912004+37183-107750SAO  +20734V5  V0202001N002012200019N0112001N1+00381-00501100921ADDAA106010091GF100991999999999999999999MA1101391999999MW1001REMAWY007/ 46938EQDQ01+000042APCTENQ02+000692APC3  Q03  01003PRCP99
0063724626999991973043006004+37183-107750SAO  +20734V5  V0201501N002012200019N0112001N1+00771-00221100351ADDGF100991999999999999999999MA1100881999999MW1001REMAWY004/ 68
0050724626999991973043008004+37183-107750SAO  +20734V5  V0201601N002012200019N0112001N1+00501-00381100471ADDGF100991999999999999999999MA1100981999999MW1001
0050724626999991973043010004+37183-107750SAO  +20734V5  V0201901N002512200019N0112001N1+00331-00161100511ADDGF100991999999999999999999MA1100951999999MW1001
0143724626999991973043012004+37183-107750SAO  +20734V5  V0202001N00411024001EN0112001N1+00331-00271100451ADDAA106009091GD13991+0240099GF107991999999999999999999MA1100881999999MW1001REMAWY007/ 46835EQDQ01+000042APCTENQ02+000682APC3  Q03  00903PRCP99
0147724626999991973050106004+37183-107750SAO  +20734V5  V0201401N00201009001EN0112001N1+00161-00221100821ADDAA106013091GD14991+0090099GF108991999999999999999999KA1999M+00881MA1100981999999MD1210221+9999MW1611MW2711REMAWY010/ ///53 48EQDQ01  01303PRCP99
0071724626999991973050108004+37183-107750SAO  +20734V5  V0201501N00201001801EN0112001N1+00221-00161101031ADDGD14991+0018099GF108991999999999999999999MA1100981999999MW1611MW2711
0080724626999991973050110004+37183-107750SAO  +20734V5  V0201601N003610120019N0112001N1+00221+00111100901ADDGD12991+0018099GD24991+0120099GF108991999999999999999999MA1100981999999MW1701
0149724626999991973050112004+37183-107750SAO  +20734V5  V0201701N00201009001EN0112001N1+00221+00111101061ADDAA106013091GD14991+0090099GF108991999999999999999999MA1101081999999MW1601REMAWY013/ 20053 44834EQDQ01+000022APCTENQ02+000002APC3  Q03  01303PRCP99
0065724626999991973050208004+37183-107750SAO  +20734V5  V0201901N00301036001EN0112001N1+00051-00331102101ADDGD13991+0360099GF107991999999999999999999MA1102201999999MW1001
0050724626999991973050210004+37183-107750SAO  +20734V5  V0200601N003012200019N0112001N1+00001-00221102171ADDGF100991999999999999999999MA1102271999999MW1001
0128724626999991973050212004+37183-107750SAO  +20734V5  V0201701N002012200019N0112001N1-00221-00441102341ADDAA106007091GF100991999999999999999999MA1102371999999MW1001REMAWY007/ 45328EQDQ01+000042APCTENQ02+000532APC3  Q03  00703PRCP99
0063724626999991973050306004+37183-107750SAO  +20734V5  V0200401N001512200019N0112001N1+00331-00161102831ADDGF100991999999999999999999MA1103051999999MW1001REMAWY004/ 60
0050724626999991973050308004+37183-107750SAO  +20734V5  V0201701N001512200019N0112001N1+00111-00161102791ADDGF100991999999999999999999MA1103011999999MW1001
0050724626999991973050310004+37183-107750SAO  +20734V5  V0209991C000012200019N0112001N1+00161-00221102691ADDGF100991999999999999999999MA1102951999999MW1001
0128724626999991973050312004+37183-107750SAO  +20734V5  V0201901N002012200019N0112001N1+00001-00331102811ADDAA106008091GF100991999999999999999999MA1102951999999MW1001REMAWY007/ 46032EQDQ01+000042APCTENQ02+000602APC3  Q03  00803PRCP99
0078724626999991973050406004+37183-107750SAO  +20734V5  V0201701N00151024001EN0112001N1+00661-00111101841ADDGD13991+0240099GF107991999999999999999999MA1102301999999MW1001REMAWY004/ 69
0050724626999991973050408004+37183-107750SAO  +20734V5  V0209991C000012200019N0112001N1+00611-00051102391ADDGF100991999999999999999999MA1102881999999MW1001
0069724626999991973050410004+37183-107750SAO  +20734V5  V0209991C000012200019N0112001N1+00441+00111101742ADDGF100991999999999999999999MA1102201999999MW1001EQDQ01+101743APOSLP
0126724626999991973050412004+37183-107750SAO  +20734V5  V0209991C000012200019N0112001N1+00051-00161101921ADDAA106008091GF100991999999999999999999MA1102131999999MW1001REMAWY00546933EQDQ01+000042APCTENQ02+000692APC3  Q03  00803PRCP99
0063724626999991973050506004+37183-107750SAO  +20734V5  V0209991C000012200019N0112001N1+00721-00051100901ADDGF100991999999999999999999MA1101491999999MW1001REMAWY004/ 71
0065724626999991973050508004+37183-107750SAO  +20734V5  V0200701N00301090001EN0112001N1+00551-00161100911ADDGD13991+0900099GF107991999999999999999999MA1101491999999MW1001
0065724626999991973050509554+37183-107750SAOSP+20734V5  V0209991C000012200019N0112001N1+00381-00221100921ADDGD12991+0900099GF102991999999999999999999MA1101421999999MW1001
0050724626999991973050510004+37183-107750SAO  +20734V5  V02099999999992200019N0112001N1+00381-00221100921ADDGD12991+0900099GF102991999999999999999999MW1001
0143724626999991973050512004+37183-107750SAO  +20734V5  V0201901N00251090001EN0112001N1+00221-00381100991ADDAA106009091GD13991+0900099GF107991999999999999999999MA1101421999999MW1001REMAWY007/ 47135EQDQ01+000042APCTENQ02+000712APC3  Q03  00903PRCP99
0109724626999991973050606004+37183-107750SAO  +20734V5  V0200601N003612200019N0112001N1+00161+00111100751ADDGD12991+0030099GF102991999999999999999999KA1999M+01331MA1101021999999MD1010301+9999MW1001REMAWY008/ 030 56
0080724626999991973050608004+37183-107750SAO  +20734V5  V0209991C00001001801EN0112001N1+00161+00051100911ADDGD13991+0018099GD24991+0090099GF108991999999999999999999MA1101081999999MW1001
0065724626999991973050610004+37183-107750SAO  +20734V5  V0209991C000012200019N0112001N1+00161-00161100841ADDGD12991+0090099GF102991999999999999999999MA1100951999999MW1001
0149724626999991973050612004+37183-107750SAO  +20734V5  V0201601N00151009001EN0112001N1+00001-00271100931ADDAA106008091GD13991+0090099GF107991999999999999999999MA1100981999999MW1001REMAWY013/ 20030 45  2EQDQ01+000022APCTENQ02+000002APC3  Q03  00803PRCP99
0063724626999991973050706004+37183-107750SAO  +20734V5  V0209991C000012200019N0112001N1+00501+00111101361ADDGF100991999999999999999999MA1101561999999MW1001REMAWY004/ 57
0050724626999991973050710004+37183-107750SAO  +20734V5  V0209991C000012200019N0112001N1+00161-00051101421ADDGF100991999999999999999999MA1101661999999MW1001
0128724626999991973050712004+37183-107750SAO  +20734V5  V0201601N001512200019N0112001N1+00331-00051101421ADDAA106009091GF100991999999999999999999MA1101731999999MW1001REMAWY007/ 45734EQDQ01+000042APCTENQ02+000572APC3  Q03  00903PRCP99
0063724626999991973050806004+37183-107750SAO  +20734V5  V0209991C000012200019N0112001N1+00441+00111101761ADDGF100991999999999999999999MA1102131999999MW1001REMAWY004/ 67
0050724626999991973050808004+37183-107750SAO  +20734V5  V0201901N001512200019N0112001N1+00221-00051101801ADDGF100991999999999999999999MA1102201999999MW1001
0050724626999991973050810004+37183-107750SAO  +20734V5  V0202001N001512200019N0112001N1+00221+00001101841ADDGF100991999999999999999999MA1102201999999MW1001
0128724626999991973050812004+37183-107750SAO  +20734V5  V0201601N002012200019N0112001N1+00221-00111101851ADDAA106009091GF100991999999999999999999MA1102201999999MW1001REMAWY007/ 46736EQDQ01+000042APCTENQ02+000672APC3  Q03  00903PRCP99
0063724626999991973050906004+37183-107750SAO  +20734V5  V0201901N001512200019N0112001N1+00721+00161101651ADDGF100991999999999999999999MA1102201999999MW1001REMAWY004/ 69
0050724626999991973050908004+37183-107750SAO  +20734V5  V0209991C000012200019N0112001N1+00551+00111101721ADDGF100991999999999999999999MA1102171999999MW1001
0050724626999991973050910004+37183-107750SAO  +20734V5  V0209991C000012200019N0112001N1+00381-00051101741ADDGF100991999999999999999999MA1102171999999MW1001
0143724626999991973050912004+37183-107750SAO  +20734V5  V0209991C000012200019N0112001N1+00331+00001101871ADDAA106009091GD12991+0240099GF102991999999999999999999MA1102201999999MW1001REMAWY007/ 46937EQDQ01+000042APCTENQ02+000692APC3  Q03  00903PRCP99
0063724626999991973051006004+37183-107750SAO  +20734V5  V0200801N001512200019N0112001N1+00831+00221101651ADDGF100991999999999999999999MA1102241999999MW1001REMAWY004/ 73
0050724626999991973051008004+37183-107750SAO  +20734V5  V0209991C000012200019N0112001N1+00551+00111101651ADDGF100991999999999999999999MA1102201999999MW1001
0050724626999991973051010004+37183-107750SAO  +20734V5  V0209991C000012200019N0112001N1+00441+00001101681ADDGF100991999999999999999999MA1102201999999MW1001
0144724626999991973051012004+37183-107750SAO  +20734V5  V0209991C000012200019N0112001N1+00271+00001101761ADDAA106009091GF100991999999999999999999MA1102241999999MW1001REMAWY007/ 47337EQDQ01+001002WODIR Q02+000042APCTENQ03+000732APC3  Q04  00903PRCP99
0063724626999991973051106004+37183-107750SAO  +20734V5  V02099999999992200019N0112001N1+00881+00111101611ADDGF100991999999999999999999MA1102271999999MW1001REMAWY004/ 78
0050724626999991973051110004+37183-107750SAO  +20734V5  V0201801N002012200019N0112001N1+00661+00111101571ADDGF100991999999999999999999MA1102241999999MW1001
0128724626999991973051112004+37183-107750SAO  +20734V5  V0201801N002512200019N0112001N1+00381-00161101711ADDAA106010091GF100991999999999999999999MA1102271999999MW1001REMAWY007/ 47838EQDQ01+000042APCTENQ02+000782APC3  Q03  01003PRCP99
0078724626999991973051206004+37183-107750SAO  +20734V5  V0209991C00001150001EN0112001N1+01161+00331101611ADDGD13991+1500099GF107991999999999999999999MA1102341999999MW1001REMAWY004/ 80
0065724626999991973051208004+37183-107750SAO  +20734V5  V0209991C00001090001EN0112001N1+00881+00271101651ADDGD13991+0900099GF107991999999999999999999MA1102371999999MW1001
0065724626999991973051210004+37183-107750SAO  +20734V5  V0209991C00001090001EN0112001N1+00831+00271101751ADDGD13991+0900099GF107991999999999999999999MA1102471999999MW1001
0083724626999991973051212004+37183-107750SAO  +20734V5  V0209991C000012200019N0112001N1+00551+00051101991ADDGD12991+0900099GF102991999999999999999999MA1102571999999MW1001REMAWY009/ 480/ 41
0078724626999991973051306004+37183-107750SAO  +20734V5  V0200501N00151090001EN0112001N1+00771+00501102191ADDGD14991+0900099GF108991999999999999999999MA1102781999999MW1001REMAWY004/ 73
0065724626999991973051308004+37183-107750SAO  +20734V5  V0209991C00001090001EN0112001N1+00551+00271102401ADDGD14991+0900099GF108991999999999999999999MA1102741999999MW1001
0050724626999991973051310004+37183-107750SAO  +20734V5  V0209991C000012200019N0112001N1+00381+00111102371ADDGF100991999999999999999999MA1102681999999MW1001
0128724626999991973051312004+37183-107750SAO  +20734V5  V0209991C000012200019N0112001N1+00331+00111102391ADDAA106009091GF100991999999999999999999MA1102711999999MW1001REMAWY007/ 47337EQDQ01+000042APCTENQ02+000732APC3  Q03  00903PRCP99
0078724626999991973051406004+37183-107750SAO  +20734V5  V0200801N00151024001EN0112001N1+01051+00611102161ADDGD14991+0240099GF108991999999999999999999MA1102711999999MW1001REMAWY004/ 68
0065724626999991973051408004+37183-107750SAO  +20734V5  V0201601N00201018001EN0112001N1+00941+00551102181ADDGD14991+0180099GF108991999999999999999999MA1102741999999MW1001
0060724626999991973051410004+37183-107750SAO  +20734V5  V0200901N00201012001EN0112001N1+00771+00381102391ADDGD14991+0120099GF108991999999999999999999MW1611REMAWY001E
0065724626999991973051508004+37183-107750SAO  +20734V5  V0200601N00251006001EN0112001N1+00771+00661102881ADDGD14991+0060099GF108991999999999999999999MA1103291999999MW1001
0065724626999991973051510004+37183-107750SAO  +20734V5  V0200501N00251024001EN0112001N1+00721+00501102941ADDGD13991+0240099GF107991999999999999999999MA1103291999999MW1001
0160724626999991973051512004+37183-107750SAO  +20734V5  V0201801N00151024001EN0112001N1+00661+00441102921ADDAA106011092AA224003092GD13991+0240099GF107991999999999999999999MA1103251999999MW1001REMAWY013/ 46543 20010EQDQ01+000042APCTENQ02+000652APC3  Q03  01103PRCP99
0075724626999991973051606004+37183-107750SAO  +20734V5  V0201801N001512200019N0112001N1+00551+00271102661ADDGD12991+0900099GF102991999999999999999999MA1103011999999MW1001REMAWY001/
0050724626999991973051608004+37183-107750SAO  +20734V5  V0201901N002012200019N0112001N1+00331+00161102801ADDGF100991999999999999999999MA1103011999999MW1001
0050724626999991973051610004+37183-107750SAO  +20734V5  V0201901N002012200019N0112001N1+00221+00111102801ADDGF100991999999999999999999MA1102911999999MW1001
0145724626999991973051612004+37183-107750SAO  +20734V5  V0209991C000012200019N0112001N1+00111+00051102871ADDAA106009092AA224003092GF100991999999999999999999MA1102951999999MW1001REMAWY013/ 46134 20013EQDQ01+000042APCTENQ02+000612APC3  Q03  00903PRCP99
0078724626999991973051706004+37183-107750SAO  +20734V5  V0201601N001512200019N0112001N1+00881+00161102281ADDGD12991+0240099GF102991999999999999999999MA1102951999999MW1001REMAWY004/ 76
0050724626999991973051708004+37183-107750SAO  +20734V5  V0201801N002012200019N0112001N1+00661+00001102311ADDGF100991999999999999999999MA1102951999999MW1001
0050724626999991973051710004+37183-107750SAO  +20734V5  V0201801N002012200019N0112001N1+00441-00381102421ADDGF100991999999999999999999MA1102951999999MW1001
0128724626999991973051712004+37183-107750SAO  +20734V5  V0201901N002012200019N0112001N1+00271+00001102431ADDAA106009091GF100991999999999999999999MA1102881999999MW1001REMAWY007/ 47  7EQDQ01+000042APCTENQ02+000762APC3  Q03  00903PRCP99
0078724626999991973051806004+37183-107750SAO  +20734V5  V0200401N00151030001EN0112001N1+01111+00271101621ADDGD13991+0300099GF107991999999999999999999MA1102471999999MW1001REMAWY004/ 77
0065724626999991973051808004+37183-107750SAO  +20734V5  V0209991C000012200019N0112001N1+00831+00051101791ADDGD12991+0750099GF102991999999999999999999MA1102441999999MW1001
0065724626999991973051810004+37183-107750SAO  +20734V5  V0209991C000012200019N0112001N1+00721+00001101711ADDGD12991+0750099GF102991999999999999999999MA1102371999999MW1001
0134724626999991973051812004+37183-107750SAO  +20734V5  V0201901N001512200019N0112001N1+00551+00221101771ADDGD12991+0750099GF102991999999999999999999KA1999N+00501MA1102371999999MW1001REMAWY012/ 477 41   ZEQDQ01+000042APCTENQ02+000772APC3  
0063724626999991973051906004+37183-107750SAO  +20734V5  V0201701N001512200019N0112001N1+01111+00381101361ADDGF100991999999999999999999MA1102101999999MW1001REMAWY004/ 80
0050724626999991973051908004+37183-107750SAO  +20734V5  V0209991C000012200019N0112001N1+00771+00271101381ADDGF100991999999999999999999MA1102031999999MW1001
0128724626999991973051912004+37183-107750SAO  +20734V5  V0201701N001512200019N0112001N1+00611+00161101471ADDAA106011091GF100991999999999999999999MA1102071999999MW1001REMAWY007/ 48043EQDQ01+000042APCTENQ02+000802APC3  Q03  01103PRCP99
0078724626999991973052006004+37183-107750SAO  +20734V5  V0200901N00151024001EN0112001N1+01381+00441101381ADDGD13991+0240099GF107991999999999999999999MA1102241999999MW1001REMAWY004/ 82
0080724626999991973052008004+37183-107750SAO  +20734V5  V0209991C000010900019N0112001N1+01111+00551101321ADDGD12991+0240099GD23991+0900099GF107991999999999999999999MA1102131999999MW1001
0080724626999991973052010004+37183-107750SAO  +20734V5  V0209991C00001024001EN0112001N1+00881+00331101401ADDGD13991+0240099GD24991+0900099GF108991999999999999999999MA1102131999999MW1001
0158724626999991973052012004+37183-107750SAO  +20734V5  V0209991C00001024001EN0112001N1+00881+00501101621ADDAA106012091GD13991+0240099GD24991+0900099GF108991999999999999999999MA1102171999999MW1001REMAWY007/ 48248EQDQ01+000042APCTENQ02+000822APC3  Q03  01203PRCP99
0063724626999991973052106004+37183-107750SAO  +20734V5  V0209991C000012200019N0112001N1+01001+00611101401ADDGF100991999999999999999999MA1102001999999MW1001REMAWY004/ 73
0050724626999991973052108004+37183-107750SAO  +20734V5  V0209991C000012200019N0112001N1+00721+00221101361ADDGF100991999999999999999999MA1101961999999MW1001
0050724626999991973052110004+37183-107750SAO  +20734V5  V0201901N002012200019N0112001N1+00551+00111101501ADDGF100991999999999999999999MA1101931999999MW1001
0065724626999991973052204004+37183-107750SAO  +20734V5  V0201201N00201018001EN0112001N1+00881+00501101341ADDGD14991+0180099GF108991999999999999999999MA1101931999999MW1001
0065724626999991973052210004+37183-107750SAO  +20734V5  V0209991C000012200019N0112001N1+00331+00221101531ADDGD12991+0030099GF102991999999999999999999MA1101901999999MW1001
0165724626999991973052212004+37183-107750SAO  +20734V5  V0201901N001512200019N0112001N1+00221+00111102132ADDAA106006091GD12991+0030099GF102991999999999999999999MA1101961999999MW1001REMAWY013/ 20023 46935EQDQ01+102133APOSLPQ02+000022APCTENQ03+000002APC3  Q04  00603PRCP99
0063724626999991973052304004+37183-107750SAO  +20734V5  V0200401N002012200019N0112001N1+00831+00441101371ADDGF100991999999999999999999MA1101931999999MW1001REMAWY004/ 60
0094724626999991973052306004+37183-107750SAO  +20734V5  V0209991C000012200019N0112001N1+00661+00381101561ADDGF100991999999999999999999KA1999M+01551MA1101961999999MD1010151+9999MW1001REMAWY008/ 015 60
0050724626999991973052308004+37183-107750SAO  +20734V5  V0201901N002012200019N0112001N1+00501+00111101771ADDGF100991999999999999999999MA1102001999999MW1001
0050724626999991973052310004+37183-107750SAO  +20734V5  V0201801N001512200019N0112001N1+00331+00221101831ADDGF100991999999999999999999MA1102001999999MW1001
0134724626999991973052312004+37183-107750SAO  +20734V5  V0201701N002012200019N0112001N1+00271+00051101821ADDAA106004091GF100991999999999999999999MA1102071999999MW1001REMAWY013/ 20015 46036EQDQ01+000022APCTENQ02+000002APC3  Q03  00403PRCP99
0050724626999991973052404004+37183-107750SAO  +20734V5  V0200401N002012200019N0112001N1+01271+00051101231ADDGF100991999999999999999999MA1101831999999MW1001
0063724626999991973052406004+37183-107750SAO  +20734V5  V0209991C000012200019N0112001N1+00771+00111101351ADDGF100991999999999999999999MA1101901999999MW1001REMAWY004/ 73
0050724626999991973052408004+37183-107750SAO  +20734V5  V0209991C000012200019N0112001N1+00501-00221101391ADDGF100991999999999999999999MA1101861999999MW1001
0035724626999991973052410004+37183-107750SAO  +20734V5  V02099999999992200019N0112001N1+00441-00111101461ADDGF100991999999999999999999MW1001
0128724626999991973052412004+37183-107750SAO  +20734V5  V0201801N001512200019N0112001N1+00331+00001101371ADDAA106010091GF100991999999999999999999MA1101831999999MW1001REMAWY007/ 47338EQDQ01+000042APCTENQ02+000732APC3  Q03  01003PRCP99
0050724626999991973052504004+37183-107750SAO  +20734V5  V0202001N001512200019N0112001N1+01221+00051100771ADDGF100991999999999999999999MA1101421999999MW1001
0063724626999991973052506004+37183-107750SAO  +20734V5  V0209991C000012200019N0112001N1+00721+00161100861ADDGF100991999999999999999999MA1101421999999MW1001REMAWY004/ 76
0050724626999991973052508004+37183-107750SAO  +20734V5  V0209991C000012200019N0112001N1+00661+00051100801ADDGF100991999999999999999999MA1101321999999MW1001
0065724626999991973052510004+37183-107750SAO  +20734V5  V0209991C000012200019N0112001N1+00441-00271100831ADDGD12991+0900099GF102991999999999999999999MA1101321999999MW1001
0143724626999991973052512004+37183-107750SAO  +20734V5  V0209991C000012200019N0112001N1+00221+00111100931ADDAA106009091GD12991+0900099GF102991999999999999999999MA1101351999999MW1001REMAWY007/ 47  6EQDQ01+000042APCTENQ02+000762APC3  Q03  00903PRCP99
0065724626999991973052604004+37183-107750SAO  +20734V5  V0209991C00001004501EN0112001N1+01551+01441100001ADDGD14991+0045099GF108991999999999999999999MA1100711999999MW1611
0078724626999991973052606004+37183-107750SAO  +20734V5  V0200601N00151045001EN0112001N1+00831+00721100191ADDGD14991+0450099GF108991999999999999999999MA1100751999999MW1611REMAWY004/ 68
0065724626999991973052608004+37183-107750SAO  +20734V5  V0201401N00201045001EN0112001N1+00831+00661100031ADDGD14991+0450099GF108991999999999999999999MA1100611999999MW1611
0065724626999991973052610004+37183-107750SAO  +20734V5  V0201901N00201030001EN0112001N1+00611+00441100141ADDGD14991+0300099GF108991999999999999999999MA1100681999999MW1611
0149724626999991973052612004+37183-107750SAO  +20734V5  V0200601N00151003001EN0112001N1+00611+00441100211ADDAA106007091GD14991+0030099GF108991999999999999999999MA1100681999999MW1611REMAWY013/ 20027 46843EQDQ01+000022APCTENQ02+000002APC3  Q03  00703PRCP99
0112724626999991973052706004+37183-107750SAO  +20734V5  V0200401N002512200019N0112001N1+00611-00441101101ADDAA106000091GF100991999999999999999999KA1999M+01331MA1101461999999MW1001REMAWY010/ ///00 56EQDQ01  00003PRCP99
0050724626999991973052708004+37183-107750SAO  +20734V5  V0200701N001512200019N0112001N1+00441-00441101171ADDGF100991999999999999999999MA1101461999999MW1001
0050724626999991973052710004+37183-107750SAO  +20734V5  V0201701N003012200019N0112001N1+00381-00501101201ADDGF100991999999999999999999MA1101461999999MW1001
0144724626999991973052712004+37183-107750SAO  +20734V5  V0200501N002512200019N0112001N1+00441-00881101321ADDAA106009091GF100991999999999999999999MA1100852999999MW1001REMAWY007/ 45  7EQDQ01+029783APOA  Q02+000042APCTENQ03+000562APC3  Q04  00903PRCP99
0050724626999991973052804004+37183-107750SAO  +20734V5  V0209991C000012200019N0112001N1+00721-00331101811ADDGF100991999999999999999999MA1102101999999MW1001
0060724626999991973052806004+37183-107750SAO  +20734V5  V0200401N001512200019N0112001N1+00441-00331101941ADDGF100991999999999999999999MA1102201999999MW1001REMAWY001/
0050724626999991973052808004+37183-107750SAO  +20734V5  V0200601N001512200019N0112001N1+00331-00441101881ADDGF100991999999999999999999MA1102201999999MW1001
0050724626999991973052810004+37183-107750SAO  +20734V5  V0201901N001512200019N0112001N1+00051-00381101991ADDGF100991999999999999999999MA1102241999999MW1001
0128724626999991973052812004+37183-107750SAO  +20734V5  V0209991C000012200019N0112001N1+00051-00381102111ADDAA106008091GF100991999999999999999999MA1102301999999MW1001REMAWY007/ 46132EQDQ01+000042APCTENQ02+000612APC3  Q03  00803PRCP99
0050724626999991973052904004+37183-107750SAO  +20734V5  V0200401N003012200019N0112001N1+01331-00381101821ADDGF100991999999999999999999MA1102301999999MW1001
0063724626999991973052906004+37183-107750SAO  +20734V5  V0201901N002512200019N0112001N1+00881-00161101941ADDGF100991999999999999999999MA1102401999999MW1001REMAWY004/ 76
0050724626999991973052908004+37183-107750SAO  +20734V5  V0209991C000012200019N0112001N1+00441-00111102001ADDGF100991999999999999999999MA1102441999999MW1001
0050724626999991973052910004+37183-107750SAO  +20734V5  V0209991C000012200019N0112001N1+00331-00221101901ADDGF100991999999999999999999MA1102401999999MW1001
0128724626999991973052912004+37183-107750SAO  +20734V5  V0209991C000012200019N0112001N1+00111-00111101971ADDAA106009091GF100991999999999999999999MA1102401999999MW1001REMAWY007/ 47  4EQDQ01+000042APCTENQ02+000762APC3  Q03  00903PRCP99
0050724626999991973053004004+37183-107750SAO  +20734V5  V0200501N002512200019N0112001N1+01381-00161101441ADDGF100991999999999999999999MA1102071999999MW1001
0063724626999991973053006004+37183-107750SAO  +20734V5  V0200401N001512200019N0112001N1+00831-00111101551ADDGF100991999999999999999999MA1102131999999MW1001REMAWY004/ 78
0050724626999991973053008004+37183-107750SAO  +20734V5  V0201901N002012200019N0112001N1+00551+00051101461ADDGF100991999999999999999999MA1102071999999MW1001
0050724626999991973053010004+37183-107750SAO  +20734V5  V0209991C000012200019N0112001N1+00441-00111101431ADDGF100991999999999999999999MA1102031999999MW1001
0128724626999991973053012004+37183-107750SAO  +20734V5  V0209991C000012200019N0112001N1+00271-00111101481ADDAA106009091GF100991999999999999999999MA1102031999999MW1001REMAWY007/ 47837EQDQ01+000042APCTENQ02+000782APC3  Q03  00903PRCP99
0050724626999991973053104004+37183-107750SAO  +20734V5  V0200501N001512200019N0112001N1+01271-00221101341ADDGF100991999999999999999999MA1102031999999MW1001
0051724626999991973053106004+37183-107750SAO  +20734V5  V0201601N002012200019N0112001N1+00941-00111101351ADDGF100991999999999999999999MW1001REMAWY007014/ 78
0050724626999991973053108004+37183-107750SAO  +20734V5  V0209991C000012200019N0112001N1+00551-00161101481ADDGF100991999999999999999999MA1102101999999MW1001
0050724626999991973053110004+37183-107750SAO  +20734V5  V0209991C000012200019N0112001N1+00551-00111101491ADDGF100991999999999999999999MA1102101999999MW1001
0128724626999991973053112004+37183-107750SAO  +20734V5  V0201801N001512200019N0112001N1+00331-00331101581ADDAA106010091GF100991999999999999999999MA1102131999999MW1001REMAWY007/ 47838EQDQ01+000042APCTENQ02+000782APC3  Q03  01003PRCP99
0065724626999991973060104004+37183-107750SAO  +20734V5  V0202001N00151090001EN0112001N1+01111+00771101221ADDGD13991+0900099GF107991999999999999999999MA1101901999999MW1001
0127724626999991973060106004+37183-107750SAO  +20734V5  V0209991C00001090001EN0112001N1+01051+00661101231ADDAA106000091GD13991+0900099GF107991999999999999999999KA1999M+02661MA1101961999999MW1001REMAWY010/ ///00 80EQDQ01  00003PRCP99
0065724626999991973060108004+37183-107750SAO  +20734V5  V0209991C00001001801EN0112001N1+01001+00551101141ADDGD14991+0018099GF108991999999999999999999MA1101901999999MW1611
0065724626999991973060110004+37183-107750SAO  +20734V5  V0209991C00001007501EN0112001N1+00881+00501101121ADDGD14991+0075099GF108991999999999999999999MA1101731999999MW1001
0117724626999991973060112004+37183-107750SAO  +20734V5  V0209991C00001007501EN0112001N1+00721+00611101221ADDAA106000091GD14991+0075099GF108991999999999999999999MA1101661999999MW1001REMAWY013/ ///00 48045EQDQ01  00003PRCP99
0065724626999991973060204004+37183-107750SAO  +20734V5  V0201901N00151090001EN0112001N1+00831+00611101021ADDGD13991+0900099GF107991999999999999999999MA1101461999999MW1001
0127724626999991973060206004+37183-107750SAO  +20734V5  V0201901N001512200019N0112001N1+00771+00661100951ADDAA106000091GD12991+0900099GF102991999999999999999999KA1999M+01941MA1101491999999MW1001REMAWY010/ ///00 67EQDQ01  00003PRCP99
0065724626999991973060208004+37183-107750SAO  +20734V5  V0209991C00001036001EN0112001N1+00661+00551100841ADDGD13991+0360099GF107991999999999999999999MA1101391999999MW1001
0065724626999991973060210004+37183-107750SAO  +20734V5  V0201701N00151036001EN0112001N1+00721+00611100771ADDGD13991+0360099GF107991999999999999999999MA1101291999999MW1001
0149724626999991973060212004+37183-107750SAO  +20734V5  V0201901N00151001801EN0112001N1+00721+00611100861ADDAA106003091GD14991+0018099GF108991999999999999999999MA1101291999999MW1611REMAWY013/ 20010 46744EQDQ01+000022APCTENQ02+000002APC3  Q03  00303PRCP99
0050724626999991973060304004+37183-107750SAO  +20734V5  V0201801N001512200019N0112001N1+00881+00331101071ADDGF100991999999999999999999MA1101491999999MW1001
0124724626999991973060306004+37183-107750SAO  +20734V5  V0209991C000012200019N0112001N1+00611+00381101231ADDAA106002091GD12991+0120099GF102991999999999999999999KA1999M+01661MA1101591999999MW1001REMAWY007/ ///07EQDQ01  00203PRCP99
0050724626999991973060308004+37183-107750SAO  +20734V5  V0201901N002012200019N0112001N1+00831+00331101121ADDGF100991999999999999999999MA1101561999999MW1001
0065724626999991973060310004+37183-107750SAO  +20734V5  V0201701N00201036001EN0112001N1+00611+00111101191ADDGD13991+0360099GF107991999999999999999999MA1101591999999MW1001
0149724626999991973060312004+37183-107750SAO  +20734V5  V0209991C000012200019N0112001N1+00331+00111101281ADDAA106002091GD12991+0360099GF102991999999999999999999MA1101661999999MW1001REMAWY013/ 10007 46238EQDQ01+000012APCTENQ02+000002APC3  Q03  00203PRCP99
0065724626999991973060404004+37183-107750SAO  +20734V5  V0209991C00001024001EN0112001N1+00831+00721101261ADDGD14991+0240099GF108991999999999999999999MA1101731999999MW1001
0110724626999991973060406004+37183-107750SAO  +20734V5  V0201901N00151001801EN0112001N1+00721+00721101291ADDAA106012091GD14991+0018099GF108991999999999999999999KA1999M+01881MW1601REMAWY008///49 66EQDQ01  01203PRCP99
0065724626999991973060408004+37183-107750SAO  +20734V5  V0209991C00001018001EN0112001N1+00611+00501101301ADDGD14991+0180099GF108991999999999999999999MA1101931999999MW1611
0065724626999991973060410004+37183-107750SAO  +20734V5  V0209991C00001001801EN0112001N1+00611+00501101641ADDGD14991+0018099GF108991999999999999999999MA1101931999999MW1001
0149724626999991973060412004+37183-107750SAO  +20734V5  V0209991C00001002401EN0112001N1+00501+00331101741ADDAA106015091GD14991+0024099GF108991999999999999999999MA1102001999999MW1001REMAWY013/ 20061 46641EQDQ01+000022APCTENQ02+000002APC3  Q03  01503PRCP99
0065724626999991973060504004+37183-107750SAO  +20734V5  V0201901N002512200019N0112001N1+00831+00051102051ADDGD12991+0120099GF102991999999999999999999MA1102441999999MW1001
0063724626999991973060506004+37183-107750SAO  +20734V5  V0209991C000012200019N0112001N1+00551-00111102221ADDGF100991999999999999999999MA1102571999999MW1001REMAWY004/ 65
0050724626999991973060508004+37183-107750SAO  +20734V5  V0209991C000012200019N0112001N1+00271-00051102331ADDGF100991999999999999999999MA1102641999999MW1001
0050724626999991973060510004+37183-107750SAO  +20734V5  V0209991C000012200019N0112001N1+00221-00111102351ADDGF100991999999999999999999MA1102681999999MW1001
0128724626999991973060512004+37183-107750SAO  +20734V5  V0209991C000012200019N0112001N1+00051-00051102601ADDAA106008091GF100991999999999999999999MA1102811999999MW1001REMAWY007/ 46533EQDQ01+000042APCTENQ02+000652APC3  Q03  00803PRCP99
0050724626999991973060604004+37183-107750SAO  +20734V5  V0201801N002012200019N0112001N1+01271+00161102321ADDGF100991999999999999999999MA1102841999999MW1001
0078724626999991973060606004+37183-107750SAO  +20734V5  V0201401N002512200019N0112001N1+01221+00221102301ADDGD12991+0900099GF102991999999999999999999MA1102881999999MW1001REMAWY004/ 66
0065724626999991973060608004+37183-107750SAO  +20734V5  V0200701N002012200019N0112001N1+00881+00001102351ADDGD12991+0900099GF102991999999999999999999MA1102951999999MW1001
0050724626999991973060610004+37183-107750SAO  +20734V5  V0201701N001512200019N0112001N1+00611+00161102371ADDGF100991999999999999999999MA1102951999999MW1001
0128724626999991973060612004+37183-107750SAO  +20734V5  V0209991C000012200019N0112001N1+00381+00051102361ADDAA106010091GF100991999999999999999999MA1103011999999MW1001REMAWY007/ 46539EQDQ01+000042APCTENQ02+000652APC3  Q03  01003PRCP99
0050724626999991973060704004+37183-107750SAO  +20734V5  V0201601N002012200019N0112001N1+01271+00331102151ADDGF100991999999999999999999MA1102781999999MW1001
0063724626999991973060706004+37183-107750SAO  +20734V5  V0209991C000012200019N0112001N1+01111+00501102191ADDGF100991999999999999999999MA1102841999999MW1001REMAWY004/ 79
0050724626999991973060708004+37183-107750SAO  +20734V5  V0201901N001512200019N0112001N1+00881+00271102201ADDGF100991999999999999999999MA1102881999999MW1001
0050724626999991973060710004+37183-107750SAO  +20734V5  V0209991C000012200019N0112001N1+00661+00221102241ADDGF100991999999999999999999MA1102881999999MW1001
0128724626999991973060712004+37183-107750SAO  +20734V5  V0209991C000012200019N0112001N1+00501+00111102261ADDAA106010091GF100991999999999999999999MA1102881999999MW1001REMAWY007/ 47941EQDQ01+000042APCTENQ02+000792APC3  Q03  01003PRCP99
0050724626999991973060804004+37183-107750SAO  +20734V5  V0209991C000012200019N0112001N1+01611+00331101841ADDGF100991999999999999999999MA1102611999999MW1001
0063724626999991973060806004+37183-107750SAO  +20734V5  V0209991C000012200019N0112001N1+01161+00331101911ADDGF100991999999999999999999MA1102681999999MW1001REMAWY004/ 83
0050724626999991973060808004+37183-107750SAO  +20734V5  V0209991C000012200019N0112001N1+00941+00001101931ADDGF100991999999999999999999MA1102681999999MW1001
0050724626999991973060810004+37183-107750SAO  +20734V5  V0209991C000012200019N0112001N1+00881+00001101941ADDGF100991999999999999999999MA1102681999999MW1001
0128724626999991973060812004+37183-107750SAO  +20734V5  V0209991C000012200019N0112001N1+00771+00001102071ADDAA106011091GF100991999999999999999999MA1102711999999MW1001REMAWY007/ 48345EQDQ01+000042APCTENQ02+000832APC3  Q03  01103PRCP99
0050724626999991973060904004+37183-107750SAO  +20734V5  V0200601N002012200019N0112001N1+01831+00721101711ADDGF100991999999999999999999MA1102541999999MW1001
0063724626999991973060906004+37183-107750SAO  +20734V5  V0209991C000012200019N0112001N1+01381+01381101751ADDGF100991999999999999999999MA1102611999999MW1001REMAWY004/ 88
0050724626999991973060908004+37183-107750SAO  +20734V5  V0209991C000012200019N0112001N1+01221+00441101691ADDGF100991999999999999999999MA1102571999999MW1001
0050724626999991973060910004+37183-107750SAO  +20734V5  V0209991C000012200019N0112001N1+01001+00161101661ADDGF100991999999999999999999MA1102641999999MW1001
0128724626999991973060912004+37183-107750SAO  +20734V5  V0209991C000012200019N0112001N1+00771+00551101731ADDAA106012091GF100991999999999999999999MA1102741999999MW1001REMAWY007/ 48846EQDQ01+000042APCTENQ02+000882APC3  Q03  01203PRCP99
0065724626999991973061004004+37183-107750SAO  +20734V5  V0201701N00201090001EN0112001N1+01831+00441101331ADDGD13991+0900099GF107991999999999999999999MA1102241999999MW1001
0078724626999991973061006004+37183-107750SAO  +20734V5  V0201701N00201090001EN0112001N1+01381+00551101411ADDGD13991+0900099GF107991999999999999999999MA1102271999999MW1001REMAWY004/ 88
0050724626999991973061008004+37183-107750SAO  +20734V5  V0209991C000012200019N0112001N1+01221+00501101561ADDGF100991999999999999999999MA1102241999999MW1001
0050724626999991973061010004+37183-107750SAO  +20734V5  V0209991C000012200019N0112001N1+01001+00381101311ADDGF100991999999999999999999MA1102201999999MW1001
0143724626999991973061012004+37183-107750SAO  +20734V5  V0209991C000012200019N0112001N1+00881+00441101401ADDAA106012091GD12991+0900099GF102991999999999999999999MA1102241999999MW1001REMAWY007/ 48848EQDQ01+000042APCTENQ02+000882APC3  Q03  01203PRCP99
0050724626999991973061104004+37183-107750SAO  +20734V5  V0209991C000012200019N0112001N1+01721+00771101101ADDGF100991999999999999999999MA1101931999999MW1001
0063724626999991973061106004+37183-107750SAO  +20734V5  V0201801N001512200019N0112001N1+01381+00501101101ADDGF100991999999999999999999MA1102001999999MW1001REMAWY004/ 87
0050724626999991973061110004+37183-107750SAO  +20734V5  V0201901N002012200019N0112001N1+00831+00271101221ADDGF100991999999999999999999MA1102031999999MW1001
0143724626999991973061112004+37183-107750SAO  +20734V5  V0209991C00001090001EN0112001N1+00771+00381101321ADDAA106011091GD13991+0900099GF107991999999999999999999MA1102071999999MW1001REMAWY007/ 48845EQDQ01+000042APCTENQ02+000882APC3  Q03  01103PRCP99
0065724626999991973061204004+37183-107750SAO  +20734V5  V0200601N00151090001EN0112001N1+01611+00051101291ADDGD13991+0900099GF107991999999999999999999MA1102101999999MW1001
0078724626999991973061206004+37183-107750SAO  +20734V5  V0209991C00001090001EN0112001N1+01051+00051101401ADDGD13991+0900099GF107991999999999999999999MA1102171999999MW1001REMAWY004/ 83
0065724626999991973061208004+37183-107750SAO  +20734V5  V0201801N00151090001EN0112001N1+00881+00161101421ADDGD13991+0900099GF107991999999999999999999MA1102171999999MW1001
0078724626999991973061306004+37183-107750SAO  +20734V5  V0201701N00151090001EN0112001N1+01501+00501101251ADDGD14991+0900099GF108991999999999999999999MA1102131999999MW1001REMAWY004/ 85
0080724626999991973061310004+37183-107750SAO  +20734V5  V0209991C00001036001EN0112001N1+01111+00551101391ADDGD13991+0360099GD24991+0900099GF108991999999999999999999MA1102241999999MW1001
0158724626999991973061312004+37183-107750SAO  +20734V5  V0209991C00001036001EN0112001N1+01221+00611101471ADDAA106013091GD13991+0360099GD24991+0900099GF108991999999999999999999MA1102301999999MW1001REMAWY007/ 48552EQDQ01+000042APCTENQ02+000852APC3  Q03  01303PRCP99
0065724626999991973061404004+37183-107750SAO  +20734V5  V0200501N00201021001EN0064001N1+01161+01051101441ADDGD14991+0210099GF108991999999999999999999MA1102101999999MW1951
0143724626999991973061406004+37183-107750SAO  +20734V5  V0200601N00151002101EN9999999N9+01111+01001101331ADDAA106012091GD14991+0021099GF108991999999999999999999KA1999M+02441MA1102071999999MW1611REMAWY010/ ///46 76EQDQ01+000002VOVAR Q02  01203PRCP99
0065724626999991973061408004+37183-107750SAO  +20734V5  V0209991C00001007501EN0112001N1+01111+00881101271ADDGD14991+0075099GF108991999999999999999999MA1101931999999MW1001
0165724626999991973061412004+37183-107750SAO  +20734V5  V0201601N00151002101EN9999999N9+00941+00831101431ADDAA106013091GD14991+0021099GF108991999999999999999999MA1101901999999MW1611REMAWY013/ 20050 47649EQDQ01+000022APCTENQ02+000002APC3  Q03+000002VOVAR Q04  01303PRCP99
0065724626999991973061504004+37183-107750SAO  +20734V5  V0209991C00001024001EN0112001N1+01221+00941101301ADDGD13991+0240099GF107991999999999999999999MA1101731999999MW1001
0127724626999991973061506004+37183-107750SAO  +20734V5  V0200601N00151024001EN0112001N1+01111+00941101301ADDAA106001091GD13991+0240099GF107991999999999999999999KA1999M+01941MA1101761999999MW1001REMAWY010/ ///04 67EQDQ01  00103PRCP99
0065724626999991973061508004+37183-107750SAO  +20734V5  V0209991C00001024001EN0112001N1+01001+00831101181ADDGD14991+0240099GF108991999999999999999999MA1101731999999MW1001
0065724626999991973061510004+37183-107750SAO  +20734V5  V0209991C000012200019N0112001N1+00831+00611101261ADDGD12991+0240099GF102991999999999999999999MA1101731999999MW1001
0149724626999991973061512004+37183-107750SAO  +20734V5  V0209991C000012200019N0112001N1+00551+00501101371ADDAA106001091GD12991+0240099GF102991999999999999999999MA1101761999999MW1001REMAWY013/ 20004 46741EQDQ01+000022APCTENQ02+000002APC3  Q03  00103PRCP99
0065724626999991973061604004+37183-107750SAO  +20734V5  V0200601N00201018001EN0112001N1+01331+00111101141ADDGD13991+0180099GF107991999999999999999999MA1101731999999MW1001
0078724626999991973061606004+37183-107750SAO  +20734V5  V0201101N00151018001EN0112001N1+01001+00221101301ADDGD13991+0180099GF107991999999999999999999MA1101831999999MW1001REMAWY004/ 70
0065724626999991973061608004+37183-107750SAO  +20734V5  V0200401N001512200019N0112001N1+00661+00111101431ADDGD12991+0180099GF102991999999999999999999MA1101931999999MW1001
0050724626999991973061610004+37183-107750SAO  +20734V5  V0201901N001512200019N0112001N1+00441+00051101541ADDGF100991999999999999999999MA1102001999999MW1001
