0088724635230671973010100004+38050-103517SAO  +1292LHX  V0200701N004119999999N0240001N9-00201-00601102161ADDAA106000091GF108991999999999999999999MA1101801999999MD1310151+9999EQDQ01+000020PRSWM2
0074724635230671973010101004+38050-103517SAO  +1292LHX  V0200601N004619999999N0240001N9-00301-00601102261ADDAA106000091GF108991999999999999999999MA1101901999999EQDQ01+000020PRSWM2
0074724635230671973010102004+38050-103517SAO  +1292LHX  V0200501N003019999999N0240001N9-00301-00701102431ADDAA106000091GF108991999999999999999999MA1102001999999EQDQ01+000020PRSWM2
0075724635230671973010103004+38050-103517SAO  +1292LHX  V0200501N003619999999N0240001N9-00301-00701102531ADDAA106000091GF109991999999999999999999MA1102101999999MD1210301+9999MW1001
0061724635230671973010104004+38050-103517SAO  +1292LHX  V0200401N003619999999N0240001N9-00401-00701102591ADDAA106000091GF109991999999999999999999MA1102171999999MW1001
0074724635230671973010105004+38050-103517SAO  +1292LHX  V0200501N003019999999N0240001N9-00401-00701102651ADDAA106000091GF108991999999999999999999MA1102271999999EQDQ01+000020PRSWM2
0088724635230671973010106004+38050-103517SAO  +1292LHX  V0200701N002019999999N0240001N9-00401-00801102671ADDAA106000091GF107991999999999999999999MA1102371999999MD1210201+9999EQDQ01+000020PRSWM2
0074724635230671973010107004+38050-103517SAO  +1292LHX  V0200401N003619999999N0240001N9-00401-00801102711ADDAA106000091GF108991999999999999999999MA1102371999999EQDQ01+000020PRSWM2
0074724635230671973010108004+38050-103517SAO  +1292LHX  V0200401N002519999999N0190001N9-00401-00801102731ADDAA106000091GF108991999999999999999999MA1102471999999EQDQ01+000020PRSWM2
0088724635230671973010109004+38050-103517SAO  +1292LHX  V0200301N002519999999N0190001N9-00501-00801102801ADDAA106000091GF107991999999999999999999MA1102471999999MD1210151+9999EQDQ01+000020PRSWM2
0074724635230671973010110004+38050-103517SAO  +1292LHX  V0209991C000019999999N0190001N9-00601-00801102851ADDAA106000091GF107991999999999999999999MA1102571999999EQDQ01+000020PRSWM2
0074724635230671973010111004+38050-103517SAO  +1292LHX  V0209991C000019999999N0190001N9-00601-00801102891ADDAA106000091GF107991999999999999999999MA1102571999999EQDQ01+000020PRSWM2
0088724635230671973010112004+38050-103517SAO  +1292LHX  V0203501N002019999999N0240001N9-00701-00901102951ADDAA106000091GF107991999999999999999999MA1102571999999MD1210081+9999EQDQ01+000020PRSWM2
0074724635230671973010113004+38050-103517SAO  +1292LHX  V0200401N001512200019N0240001N9-00801-01001103061ADDAA106000091GF102991999999999999999999MA1102681999999EQDQ01+000020PRSWM2
0074724635230671973010114004+38050-103517SAO  +1292LHX  V0200201N001519999999N0240001N9-00801-01001103131ADDAA106000091GF108991999999999999999999MA1102781999999EQDQ01+000020PRSWM2
0088724635230671973010115004+38050-103517SAO  +1292LHX  V0201601N001519999999N0240001N9-00701-00901103251ADDAA106000091GF108991999999999999999999MA1102881999999MD1210221+9999EQDQ01+000020PRSWM2
0074724635230671973010116004+38050-103517SAO  +1292LHX  V0203301N002012200019N0240001N9-00701-00901103251ADDAA106000091GF102991999999999999999999MA1102881999999EQDQ01+000020PRSWM2
0074724635230671973010117004+38050-103517SAO  +1292LHX  V0209991C000019999999N0240001N9-00501-00901103281ADDAA106000091GF108991999999999999999999MA1102881999999EQDQ01+000020PRSWM2
0088724635230671973010118004+38050-103517SAO  +1292LHX  V0200601N002019999999N0240001N9-00301-00901103151ADDAA106000091GF107991999999999999999999MA1102781999999MD1810031+9999EQDQ01+000020PRSWM2
0074724635230671973010119004+38050-103517SAO  +1292LHX  V0201401N004119999999N0240001N9-00201-00801103071ADDAA106000091GF108991999999999999999999MA1102781999999EQDQ01+000020PRSWM2
0074724635230671973010120004+38050-103517SAO  +1292LHX  V0201601N003019999999N0240001N9-00201-00801102951ADDAA106000091GF107991999999999999999999MA1102681999999EQDQ01+000020PRSWM2
0088724635230671973010121004+38050-103517SAO  +1292LHX  V0201601N002519999999N0240001N9-00201-00801102841ADDAA106000091GF108991999999999999999999MA1102571999999MD1710241+9999EQDQ01+000020PRSWM2
0074724635230671973010122004+38050-103517SAO  +1292LHX  V0201201N002519999999N0240001N9-00101-00801102801ADDAA106000091GF108991999999999999999999MA1102471999999EQDQ01+000020PRSWM2
0074724635230671973010123004+38050-103517SAO  +1292LHX  V0200801N003619999999N0240001N9-00201-00701102751ADDAA106000091GF108991999999999999999999MA1102471999999EQDQ01+000020PRSWM2
0088724635230671973010200004+38050-103517SAO  +1292LHX  V0200901N004112200019N0240001N9-00301-00701102741ADDAA106000091GF102991999999999999999999MA1102371999999MD1710151+9999EQDQ01+000020PRSWM2
0061724635230671973010201004+38050-103517SAO  +1292LHX  V0200501N004112200019N0240001N9-00501-00801102791ADDAA106000091GF100991999999999999999999MA1102371999999MW1001
0061724635230671973010202004+38050-103517SAO  +1292LHX  V0200501N004612200019N0240001N9-00601-00801102841ADDAA106000091GF100991999999999999999999MA1102371999999MW1001
0075724635230671973010203004+38050-103517SAO  +1292LHX  V0200901N002512200019N0240001N9-00701-00801102801ADDAA106000091GF100991999999999999999999MA1102371999999MD1010001+9999MW1001
0061724635230671973010204004+38050-103517SAO  +1292LHX  V0200701N003612200019N0240001N9-00701-00901102811ADDAA106000091GF100991999999999999999999MA1102371999999MW1001
0061724635230671973010205004+38050-103517SAO  +1292LHX  V0200401N002512200019N0240001N9-00801-00901102711ADDAA106000091GF100991999999999999999999MA1102271999999MW1001
0075724635230671973010206004+38050-103517SAO  +1292LHX  V0201201N002512200019N0240001N9-00701-00901102641ADDAA106000091GF100991999999999999999999MA1102271999999MD1810081+9999MW1001
0061724635230671973010207004+38050-103517SAO  +1292LHX  V0201901N003012200019N0240001N9-00701-00801102491ADDAA106000091GF100991999999999999999999MA1102171999999MW1001
0061724635230671973010208004+38050-103517SAO  +1292LHX  V0202001N003612200019N0240001N9-00701-00801102381ADDAA106000091GF100991999999999999999999MA1102101999999MW1001
0075724635230671973010209004+38050-103517SAO  +1292LHX  V0202401N005112200019N0240001N9-00801-00901102331ADDAA106000091GF100991999999999999999999MA1102001999999MD1710271+9999MW1001
0061724635230671973010210004+38050-103517SAO  +1292LHX  V0202701N004112200019N0240001N9-00901-01101102251ADDAA106000091GF100991999999999999999999MA1101901999999MW1001
0061724635230671973010211004+38050-103517SAO  +1292LHX  V0201901N001512200019N0240001N9-00901-01101102121ADDAA106000091GF100991999999999999999999MA1101801999999MW1001
0075724635230671973010212004+38050-103517SAO  +1292LHX  V0202401N002012200019N0240001N9-01001-01201102071ADDAA106000091GF100991999999999999999999MA1101691999999MD1710271+9999MW1001
0074724635230671973010213004+38050-103517SAO  +1292LHX  V0209991C000012200019N0240001N9-00901-01101101991ADDAA106000091GF102991999999999999999999MA1101591999999EQDQ01+000020PRSWM2
0074724635230671973010214004+38050-103517SAO  +1292LHX  V0201501N001512200019N0240001N9-00901-01101102001ADDAA106000091GF102991999999999999999999MA1101591999999EQDQ01+000020PRSWM2
0088724635230671973010215004+38050-103517SAO  +1292LHX  V0202801N004112200019N0240001N9-01101-01201102001ADDAA106000091GF102991999999999999999999MA1101591999999MD1710121+9999EQDQ01+000020PRSWM2
0074724635230671973010216004+38050-103517SAO  +1292LHX  V0209991C000019999999N0240001N9-00801-00901101951ADDAA106000091GF107991999999999999999999MA1101491999999EQDQ01+000020PRSWM2
0074724635230671973010217004+38050-103517SAO  +1292LHX  V0209991C000019999999N0240001N9-00701-00901101861ADDAA106000091GF108991999999999999999999MA1101491999999EQDQ01+000020PRSWM2
0088724635230671973010218004+38050-103517SAO  +1292LHX  V0200601N002519999999N0240001N9-00501-00801101681ADDAA106000091GF108991999999999999999999MA1101391999999MD1710191+9999EQDQ01+000020PRSWM2
0074724635230671973010219004+38050-103517SAO  +1292LHX  V0200201N002519999999N0240001N9-00301-00601101391ADDAA106000091GF108991999999999999999999MA1101081999999EQDQ01+000020PRSWM2
0074724635230671973010220004+38050-103517SAO  +1292LHX  V0200401N004119999999N0240001N9+00101-00301101131ADDAA106000091GF108991999999999999999999MA1100881999999EQDQ01+000020PRSWM2
0104724635230671973010221004+38050-103517SAO  +1292LHX  V0201001N006119999999N0240001N9+00301-00201100881ADDAA106000091GF107991999999999999999999MA1100681999999MD1710801+9999EQDQ01+000562APC3  Q02+000020PRSWM2
0074724635230671973010222004+38050-103517SAO  +1292LHX  V0200901N003012200019N0240001N9+00401-00201100991ADDAA106000091GF102991999999999999999999MA1100681999999EQDQ01+000020PRSWM2
0074724635230671973010223004+38050-103517SAO  +1292LHX  V0200801N002512200019N0240001N9+00201-00201100891ADDAA106000091GF102991999999999999999999MA1100581999999EQDQ01+000020PRSWM2
0075724635230671973010300004+38050-103517SAO  +1292LHX  V0202001N003012200019N0240001N9+00101-00301100761ADDAA106000091GF100991999999999999999999MA1100471999999MD1710191+9999MW1001
0061724635230671973010301004+38050-103517SAO  +1292LHX  V0201801N003012200019N0240001N9-00101-00301100761ADDAA106000091GF100991999999999999999999MA1100471999999MW1001
0061724635230671973010302004+38050-103517SAO  +1292LHX  V0202101N003012200019N0240001N9-00101-00301100751ADDAA106000091GF100991999999999999999999MA1100471999999MW1001
0075724635230671973010303004+38050-103517SAO  +1292LHX  V0202601N003612200019N0240001N9-00401-00601100801ADDAA106000091GF100991999999999999999999MA1100371999999MD1710051+9999MW1001
0061724635230671973010304004+38050-103517SAO  +1292LHX  V0202201N003012200019N0240001N9-00401-00601100771ADDAA106000091GF100991999999999999999999MA1100471999999MW1001
0061724635230671973010305004+38050-103517SAO  +1292LHX  V0202601N003612200019N0240001N9-00601-00701100731ADDAA106000091GF100991999999999999999999MA1100371999999MW1001
0075724635230671973010306004+38050-103517SAO  +1292LHX  V0202401N004112200019N0240001N9-00601-00801100741ADDAA106000091GF100991999999999999999999MA1100371999999MD1410001+9999MW1001
0061724635230671973010307004+38050-103517SAO  +1292LHX  V0203001N002512200019N0240001N9-00801-00901100631ADDAA106000091GF100991999999999999999999MA1100271999999MW1001
0061724635230671973010308004+38050-103517SAO  +1292LHX  V0201801N002012200019N0240001N9-00801-00901100651ADDAA106000091GF100991999999999999999999MA1100371999999MW1001
0075724635230671973010309004+38050-103517SAO  +1292LHX  V0203401N002519999999N0006001N9-00801-00801100641ADDAA106000091GF109991999999999999999999MA1100471999999MD1310021+9999MW1451
0074724635230671973010310004+38050-103517SAO  +1292LHX  V0203201N005119999999N0012001N9-00701-00801100601ADDAA106000091GF109991999999999999999999MA1100371999999EQDQ01+000100PRSWM2
0074724635230671973010311004+38050-103517SAO  +1292LHX  V0203001N004619999999N0016001N9-00801-00801100661ADDAA106000091GF109991999999999999999999MA1100471999999EQDQ01+000100PRSWM2
0075724635230671973010312004+38050-103517SAO  +1292LHX  V0203001N002519999999N0004001N9-00901-00901100711ADDAA106000091GF109991999999999999999999MA1100471999999MD1410001+9999MW1451
0061724635230671973010313004+38050-103517SAO  +1292LHX  V0202801N004612200019N0120001N9-01101-01201100791ADDAA106000091GF100991999999999999999999MA1100471999999MW1001
0061724635230671973010314004+38050-103517SAO  +1292LHX  V0202601N005112200019N0120001N9-01101-01201100911ADDAA106000091GF100991999999999999999999MA1100581999999MW1001
0075724635230671973010315004+38050-103517SAO  +1292LHX  V0202601N005612200019N0240001N9-01001-01201101071ADDAA106000091GF100991999999999999999999MA1100681999999MD1210241+9999MW1001
0061724635230671973010316004+38050-103517SAO  +1292LHX  V0202701N005112200019N0240001N9-00801-00901101161ADDAA106000091GF100991999999999999999999MA1100781999999MW1001
0061724635230671973010317004+38050-103517SAO  +1292LHX  V0203301N005112200019N0240001N9-00201-00701101131ADDAA106000091GF100991999999999999999999MA1100881999999MW1001
0075724635230671973010318004+38050-103517SAO  +1292LHX  V0203501N006112200019N0240001N9-00101-00601101091ADDAA106000091GF100991999999999999999999MA1100781999999MD1010101+9999MW1001
0074724635230671973010318364+38050-103517SAOSP+1292LHX  V0200201N006119999999N0240001N9+99999+99999999999ADDAA106000091GF107991999999999999999999MA1100781999999EQDQ01+000020PRSWM2
0074724635230671973010319004+38050-103517SAO  +1292LHX  V0200301N008719999999N0240001N9-00201-00601101081ADDAA106000091GF107991999999999999999999MA1100781999999EQDQ01+000020PRSWM2
0074724635230671973010320004+38050-103517SAO  +1292LHX  V0200401N007219999999N0240001N9-00301-00601101141ADDAA106000091GF108991999999999999999999MA1100781999999EQDQ01+000020PRSWM2
0088724635230671973010321004+38050-103517SAO  +1292LHX  V0200501N004119999999N0240001N9-00301-00601101191ADDAA106000091GF108991999999999999999999MA1100881999999MD1310031+9999EQDQ01+000020PRSWM2
0074724635230671973010322004+38050-103517SAO  +1292LHX  V0200501N006119999999N0240001N9-00301-00601101211ADDAA106000091GF108991999999999999999999MA1100881999999EQDQ01+000020PRSWM2
0074724635230671973010323004+38050-103517SAO  +1292LHX  V0200701N006719999999N0240001N9-00301-00601101311ADDAA106000091GF108991999999999999999999MA1100981999999EQDQ01+000020PRSWM2
0074724635230671973010400004+38050-103517SAO  +1292LHX  V0200501N006119999999N0240001N9-00401-00701101471ADDAA106000091GF108991999999999999999999MA1101081999999EQDQ01+000020PRSWM2
0080724635230671973010401004+38050-103517SAO  +1292LHX  V0200501N006719999999N0190001N9-00401-00701101621ADDAA106999999GF108991999999999999999999MA1101291999999MW1701EQDQ01  00002PRCP06
0074724635230671973010402004+38050-103517SAO  +1292LHX  V0200601N007719999999N0190001N9-00601-00801101721ADDAA106000091GF108991999999999999999999MA1101291999999EQDQ01+000020PRSWM2
0088724635230671973010403004+38050-103517SAO  +1292LHX  V0200701N007219999999N0190001N9-00601-00801101831ADDAA106000091GF108991999999999999999999MA1101391999999MD1210271+9999EQDQ01+000020PRSWM2
0074724635230671973010404004+38050-103517SAO  +1292LHX  V0200701N006119999999N0190001N9-00701-00901101861ADDAA106000091GF108991999999999999999999MA1101491999999EQDQ01+000020PRSWM2
0080724635230671973010405004+38050-103517SAO  +1292LHX  V0200701N005119999999N0120001N9-00801-00901101901ADDAA106999999GF108991999999999999999999MA1101591999999MW1701EQDQ01  00002PRCP06
0104724635230671973010406004+38050-103517SAO  +1292LHX  V0200701N006119999999N0120001N9-00901-00901101921ADDAA106000091GF108991999999999999999999MA1101591999999MD1210171+9999EQDQ01+000020PRSWM2Q02  00003PRCP99
0074724635230671973010407004+38050-103517SAO  +1292LHX  V0200701N005119999999N0120001N9-00901-01001101921ADDAA106000091GF108991999999999999999999MA1101591999999EQDQ01+000020PRSWM2
0080724635230671973010408004+38050-103517SAO  +1292LHX  V0200901N006119999999N0080001N9-00901-01001101931ADDAA106999999GF109991999999999999999999MA1101591999999MW1711EQDQ01  00002PRCP06
0094724635230671973010409004+38050-103517SAO  +1292LHX  V0200701N006119999999N0080001N9-00901-01101101941ADDAA106999999GF109991999999999999999999MA1101591999999MD1610021+9999MW1711EQDQ01  00002PRCP06
0080724635230671973010410004+38050-103517SAO  +1292LHX  V0200801N007219999999N0080001N9-01001-01101102011ADDAA106999999GF109991999999999999999999MA1101691999999MW1711EQDQ01  00002PRCP06
0080724635230671973010411004+38050-103517SAO  +1292LHX  V0200801N005619999999N0080001N9-01001-01101101961ADDAA106999999GF109991999999999999999999MA1101591999999MW1711EQDQ01  00002PRCP06
0094724635230671973010412004+38050-103517SAO  +1292LHX  V0200801N007219999999N0160001N9-01001-01201101991ADDAA106000091GF109991999999999999999999MA1101591999999MD1210021+9999MW1001EQDQ01  00003PRCP99
0061724635230671973010413004+38050-103517SAO  +1292LHX  V0200801N006119999999N0160001N9-01001-01101101981ADDAA106000091GF109991999999999999999999MA1101591999999MW1001
0074724635230671973010414004+38050-103517SAO  +1292LHX  V0200801N005619999999N0160001N9-01001-01101102061ADDAA106000091GF108991999999999999999999MA1101691999999EQDQ01+000020PRSWM2
0088724635230671973010415004+38050-103517SAO  +1292LHX  V0200701N005619999999N0160001N9-01001-01101102111ADDAA106000091GF108991999999999999999999MA1101691999999MD1310071+9999EQDQ01+000020PRSWM2
0074724635230671973010416004+38050-103517SAO  +1292LHX  V0200701N006119999999N0160001N9-00901-01101102151ADDAA106000091GF108991999999999999999999MA1101691999999EQDQ01+000020PRSWM2
0074724635230671973010417004+38050-103517SAO  +1292LHX  V0200501N005619999999N0160001N9-00801-00901102151ADDAA106000091GF108991999999999999999999MA1101691999999EQDQ01+000020PRSWM2
0088724635230671973010418004+38050-103517SAO  +1292LHX  V0200601N006719999999N0160001N9-00701-00901101971ADDAA106000091GF108991999999999999999999MA1101591999999MD1810121+9999EQDQ01+000020PRSWM2
0074724635230671973010419004+38050-103517SAO  +1292LHX  V0200701N008219999999N0160001N9-00701-00801101851ADDAA106000091GF108991999999999999999999MA1101491999999EQDQ01+000020PRSWM2
0074724635230671973010420004+38050-103517SAO  +1292LHX  V0200801N008719999999N0160001N9-00601-00801101681ADDAA106000091GF108991999999999999999999MA1101291999999EQDQ01+000020PRSWM2
0088724635230671973010421004+38050-103517SAO  +1292LHX  V0200701N008219999999N0160001N9-00601-00801101661ADDAA106000091GF108991999999999999999999MA1101291999999MD1710241+9999EQDQ01+000020PRSWM2
0074724635230671973010422004+38050-103517SAO  +1292LHX  V0200501N008719999999N0160001N9-00601-00801101601ADDAA106000091GF108991999999999999999999MA1101191999999EQDQ01+000020PRSWM2
0074724635230671973010423004+38050-103517SAO  +1292LHX  V0200501N010319999999N0160001N9-00701-00801101631ADDAA106000091GF108991999999999999999999MA1101191999999EQDQ01+000020PRSWM2
0082724635230671973010500004+38050-103517SAO  +1292LHX  V0200401N008219999999N0160001N9-00701-00901101681ADDAA106000091GF108991999999999999999999MA1101291999999OC101181EQDQ01+000020PRSWM2
0074724635230671973010502004+38050-103517SAO  +1292LHX  V0200301N008219999999N0160001N9-00901-00901101541ADDAA106000091GF108991999999999999999999MA1101391999999EQDQ01+000020PRSWM2
0088724635230671973010503004+38050-103517SAO  +1292LHX  V0200201N005619999999N0190001N9-00901-01101101961ADDAA106000091GF108991999999999999999999MA1101491999999MD1210201+9999EQDQ01+000020PRSWM2
0074724635230671973010504004+38050-103517SAO  +1292LHX  V0200401N007719999999N0190001N9-01001-01101102001ADDAA106000091GF108991999999999999999999MA1101491999999EQDQ01+000020PRSWM2
0080724635230671973010505004+38050-103517SAO  +1292LHX  V0200301N008219999999N0120001N9-01101-01201102081ADDAA106999999GF108991999999999999999999MA1101591999999MW1701EQDQ01  00002PRCP06
0110724635230671973010506004+38050-103517SAO  +1292LHX  V0200501N006719999999N0048001N9-01101-01201102121ADDAA106999999GF108991999999999999999999MA1101691999999MD1210151+9999MW1701EQDQ01  00003PRCP99Q02  00002PRCP06
0080724635230671973010507004+38050-103517SAO  +1292LHX  V0200401N005119999999N0024001N9-01201-01201102121ADDAA106999999GF108991999999999999999999MA1101691999999MW1701EQDQ01  00002PRCP06
0080724635230671973010508004+38050-103517SAO  +1292LHX  V0200501N004619999999N0016001N9-01201-01201102031ADDAA106999999GF109991999999999999999999MA1101591999999MW1701EQDQ01  00002PRCP06
0094724635230671973010509004+38050-103517SAO  +1292LHX  V0200701N003019999999N0016001N9-01201-01201102031ADDAA106999999GF109991999999999999999999MA1101591999999MD1610071+9999MW1701EQDQ01  00002PRCP06
0080724635230671973010510004+38050-103517SAO  +1292LHX  V0200701N003619999999N0012001N9-01201-01301101981ADDAA106999999GF109991999999999999999999MA1101491999999MW1701EQDQ01  00002PRCP06
0080724635230671973010511004+38050-103517SAO  +1292LHX  V0200901N003019999999N0012001N9-01201-01301101961ADDAA106999999GF109991999999999999999999MA1101491999999MW1701EQDQ01  00002PRCP06
0110724635230671973010512004+38050-103517SAO  +1292LHX  V0201001N004119999999N0016001N9-01201-01301101921ADDAA106999999GF109991999999999999999999MA1101491999999MD1710101+9999MW1701EQDQ01  00003PRCP99Q02  00002PRCP06
0080724635230671973010513004+38050-103517SAO  +1292LHX  V0200901N003619999999N0016001N9-01201-01201101941ADDAA106999999GF109991999999999999999999MA1101491999999MW1701EQDQ01  00002PRCP06
0080724635230671973010514004+38050-103517SAO  +1292LHX  V0200701N002519999999N0032001N9-01201-01301102031ADDAA106999999GF109991999999999999999999MA1101491999999MW1701EQDQ01  00002PRCP06
0094724635230671973010515004+38050-103517SAO  +1292LHX  V0200501N003619999999N0012001N9-01201-01301102031ADDAA106999999GF109991999999999999999999MA1101491999999MD1110051+9999MW1701EQDQ01  00002PRCP06
0080724635230671973010516004+38050-103517SAO  +1292LHX  V0200601N002519999999N0024001N9-01201-01301102161ADDAA106999999GF108991999999999999999999MA1101591999999MW1701EQDQ01  00002PRCP06
0080724635230671973010516354+38050-103517SAOSP+1292LHX  V0200801N002019999999N0080001N9+99999+99999999999ADDAA106999999GF108991999999999999999999MA1101691999999MW1701EQDQ01  00002PRCP06
0096724635230671973010517004+38050-103517SAO  +1292LHX  V0200701N002519999999N0080001N9-01201-01301999999ADDAA106999999GF108991999999999999999999MA1101691999999MW1701EQDQ01+101223APOSLPQ02  00002PRCP06
0074724635230671973010517304+38050-103517SAO  +1292LHX  V0209991C000019999999N0160001N9+99999+99999999999ADDAA106000091GF108991999999999999999999MA1101691999999EQDQ01+000020PRSWM2
0074724635230671973010518004+38050-103517SAO  +1292LHX  V0200901N002519999999N0240001N9-01101-01301102161ADDAA106000091GF107991999999999999999999MA1101591999999EQDQ01+000020PRSWM2
0074724635230671973010519004+38050-103517SAO  +1292LHX  V0201401N002519999999N0240001N9-00901-01201102081ADDAA106000091GF107991999999999999999999MA1101591999999EQDQ01+000020PRSWM2
0074724635230671973010520004+38050-103517SAO  +1292LHX  V0200401N003619999999N0240001N9-00901-01101102001ADDAA106000091GF107991999999999999999999MA1101491999999EQDQ01+000020PRSWM2
0074724635230671973010521004+38050-103517SAO  +1292LHX  V0201001N002519999999N0240001N9-00901-01101102101ADDAA106000091GF108991999999999999999999MA1101591999999EQDQ01+000020PRSWM2
0074724635230671973010522004+38050-103517SAO  +1292LHX  V0200401N002019999999N0240001N9-00901-01201102181ADDAA106000091GF107991999999999999999999MA1101691999999EQDQ01+000020PRSWM2
0074724635230671973010523004+38050-103517SAO  +1292LHX  V0200601N003012200019N0240001N9-00901-01101102291ADDAA106000091GF102991999999999999999999MA1101801999999EQDQ01+000020PRSWM2
0088724635230671973010600004+38050-103517SAO  +1292LHX  V0200601N002512200019N0240001N9-01101-01301102371ADDAA106000091GF102991999999999999999999MA1101801999999MD1210191+9999EQDQ01+000020PRSWM2
0074724635230671973010601004+38050-103517SAO  +1292LHX  V0200901N002019999999N0240001N9-01201-01301102421ADDAA106000091GF107991999999999999999999MA1101901999999EQDQ01+000020PRSWM2
0074724635230671973010602004+38050-103517SAO  +1292LHX  V0200801N002019999999N0240001N9-01201-01301102521ADDAA106000091GF108991999999999999999999MA1101901999999EQDQ01+000020PRSWM2
0088724635230671973010603004+38050-103517SAO  +1292LHX  V0201501N002019999999N0240001N9-01101-01201102601ADDAA106000091GF108991999999999999999999MA1102001999999MD1510151+9999EQDQ01+000020PRSWM2
0074724635230671973010604004+38050-103517SAO  +1292LHX  V0200701N002019999999N0240001N9-01201-01301102601ADDAA106000091GF108991999999999999999999MA1102001999999EQDQ01+000020PRSWM2
0074724635230671973010605004+38050-103517SAO  +1292LHX  V0209991C000019999999N0240001N9-01301-01401102601ADDAA106000091GF107991999999999999999999MA1102001999999EQDQ01+000020PRSWM2
0088724635230671973010606004+38050-103517SAO  +1292LHX  V0200301N002512200019N0190001N9-01401-01601102601ADDAA106000091GF102991999999999999999999MA1102001999999MD1810031+9999EQDQ01+000020PRSWM2
0074724635230671973010607004+38050-103517SAO  +1292LHX  V0200201N002519999999N0160001N9-01401-01601102601ADDAA106000091GF108991999999999999999999MA1102001999999EQDQ01+000020PRSWM2
0074724635230671973010608004+38050-103517SAO  +1292LHX  V0200401N002012200019N0160001N9-01401-01501102481ADDAA106000091GF102991999999999999999999MA1101901999999EQDQ01+000020PRSWM2
0088724635230671973010609004+38050-103517SAO  +1292LHX  V0203501N002019999999N0160001N9-01401-01501102481ADDAA106000091GF108991999999999999999999MA1102001999999MD1510001+9999EQDQ01+000020PRSWM2
0074724635230671973010610004+38050-103517SAO  +1292LHX  V0203301N001519999999N0160001N9-01301-01401102521ADDAA106000091GF108991999999999999999999MA1102001999999EQDQ01+000020PRSWM2
0074724635230671973010611004+38050-103517SAO  +1292LHX  V0203401N001519999999N0160001N9-01301-01401102481ADDAA106000091GF108991999999999999999999MA1101901999999EQDQ01+000020PRSWM2
0088724635230671973010612004+38050-103517SAO  +1292LHX  V0200301N002519999999N0090001N9-01201-01401102501ADDAA106000091GF109991999999999999999999MA1101901999999MD1610031+9999EQDQ01+000100PRSWM2
0074724635230671973010613004+38050-103517SAO  +1292LHX  V0200201N004119999999N0048001N9-01201-01201102541ADDAA106000091GF109991999999999999999999MA1102001999999EQDQ01+000100PRSWM2
0074724635230671973010614004+38050-103517SAO  +1292LHX  V0200101N004119999999N0012001N9-01101-01201102571ADDAA106000091GF109991999999999999999999MA1102001999999EQDQ01+000100PRSWM2
0088724635230671973010615004+38050-103517SAO  +1292LHX  V0200201N004119999999N0016001N9-01101-01101102641ADDAA106000091GF109991999999999999999999MA1102101999999MD1210151+9999EQDQ01+000100PRSWM2
0074724635230671973010616004+38050-103517SAO  +1292LHX  V0200101N004619999999N0032001N9-01001-01101102741ADDAA106000091GF109991999999999999999999MA1102171999999EQDQ01+000100PRSWM2
0080724635230671973010617004+38050-103517SAO  +1292LHX  V0200101N005119999999N0032001N9-01001-01101102791ADDAA106999999GF109991999999999999999999MA1102171999999MW1701EQDQ01  00002PRCP06
0110724635230671973010618004+38050-103517SAO  +1292LHX  V0200301N004119999999N0032001N9-00901-00901102701ADDAA106999999GF109991999999999999999999MA1102101999999MD1010001+9999MW1701EQDQ01  00003PRCP99Q02  00002PRCP06
0080724635230671973010619004+38050-103517SAO  +1292LHX  V0200401N003619999999N0032001N9-00801-00901102581ADDAA106999999GF109991999999999999999999MA1102001999999MW1701EQDQ01  00002PRCP06
0080724635230671973010620004+38050-103517SAO  +1292LHX  V0200401N004119999999N0016001N9-00801-00801102451ADDAA106999999GF109991999999999999999999MA1101901999999MW1561EQDQ01  00002PRCP06
0088724635230671973010621004+38050-103517SAO  +1292LHX  V0200501N003619999999N0016001N9-00801-00801102441ADDAA106000091GF109991999999999999999999MA1101901999999MD1710221+9999EQDQ01+000100PRSWM2
0074724635230671973010622004+38050-103517SAO  +1292LHX  V0200401N004119999999N0016001N9-00801-00801102431ADDAA106000091GF109991999999999999999999MA1101901999999EQDQ01+000100PRSWM2
0080724635230671973010623004+38050-103517SAO  +1292LHX  V0200401N004619999999N0016001N9-00801-00801102431ADDAA106999999GF109991999999999999999999MA1101901999999MW1561EQDQ01  00002PRCP06
0080724635230671973010700004+38050-103517SAO  +1292LHX  V0200601N004119999999N0016001N9-00801-00801102371ADDAA106999999GF109991999999999999999999MA1101901999999MW1561EQDQ01  00002PRCP06
0080724635230671973010701004+38050-103517SAO  +1292LHX  V0200801N004119999999N0016001N9-00801-00801102371ADDAA106999999GF109991999999999999999999MA1101901999999MW1561EQDQ01  00002PRCP06
0080724635230671973010702004+38050-103517SAO  +1292LHX  V0201001N003019999999N0016001N9-00701-00701102291ADDAA106999999GF109991999999999999999999MA1101801999999MW1561EQDQ01  00002PRCP06
0080724635230671973010703004+38050-103517SAO  +1292LHX  V0200901N006119999999N0016001N9-00801-00801102361ADDAA106999999GF109991999999999999999999MA1101901999999MW1561EQDQ01  00002PRCP06
0080724635230671973010704004+38050-103517SAO  +1292LHX  V0200901N006119999999N0016001N9-00901-00901102321ADDAA106999999GF109991999999999999999999MA1101801999999MW1711EQDQ01  00002PRCP06
0080724635230671973010705004+38050-103517SAO  +1292LHX  V0201101N004619999999N0032001N9-00901-00901102321ADDAA106999999GF109991999999999999999999MA1101801999999MW1701EQDQ01  00002PRCP06
0105724635230671973010706004+38050-103517SAO  +1292LHX  V0200901N005119999999N0040001N9-00801-00901102261ADDAA106999999AA299023091GF109991999999999999999999MA1101801999999MD1710051+9999MW1701EQDQ01  00002PRCP06
0080724635230671973010707004+38050-103517SAO  +1292LHX  V0201001N005619999999N0048001N9-00801-00901102211ADDAA106999999GF109991999999999999999999MA1101801999999MW1701EQDQ01  00002PRCP06
0080724635230671973010708004+38050-103517SAO  +1292LHX  V0200901N004619999999N0016001N9-00901-00901102111ADDAA106999999GF109991999999999999999999MA1101691999999MW1701EQDQ01  00002PRCP06
0080724635230671973010709004+38050-103517SAO  +1292LHX  V0200801N004119999999N0016001N9-00901-00901102141ADDAA106999999GF109991999999999999999999MA1101691999999MW1701EQDQ01  00002PRCP06
0080724635230671973010710004+38050-103517SAO  +1292LHX  V0200801N005119999999N0032001N9-00801-00901102191ADDAA106999999GF109991999999999999999999MA1101691999999MW1701EQDQ01  00002PRCP06
0080724635230671973010711004+38050-103517SAO  +1292LHX  V0201001N005119999999N0048001N9-00901-00901102061ADDAA106999999GF109991999999999999999999MA1101591999999MW1701EQDQ01  00002PRCP06
0112724635230671973010712004+38050-103517SAO  +1292LHX  V0200801N005119999999N0048001N9-00901-01001102061ADDAA106999999GA1999+000159079GF109991999999999999999999MA1101591999999MW1701EQDQ01    003SCCGA1Q02  00002PRCP06
0080724635230671973010713004+38050-103517SAO  +1292LHX  V0200701N005119999999N0032001N9-01101-01101102221ADDAA106999999GF109991999999999999999999MA1101691999999MW1701EQDQ01  00002PRCP06
0080724635230671973010714004+38050-103517SAO  +1292LHX  V0200701N006119999999N0016001N9-01201-01201102181ADDAA106999999GF109991999999999999999999MA1101691999999MW1701EQDQ01  00002PRCP06
0080724635230671973010715004+38050-103517SAO  +1292LHX  V0200801N005119999999N0012001N9-01201-01201102351ADDAA106999999GF109991999999999999999999MA1101801999999MW1561EQDQ01  00002PRCP06
0080724635230671973010716004+38050-103517SAO  +1292LHX  V0200901N004619999999N0012001N9-01201-01301102461ADDAA106999999GF109991999999999999999999MA1101901999999MW1711EQDQ01  00002PRCP06
0080724635230671973010717004+38050-103517SAO  +1292LHX  V0200701N005119999999N0008001N9-01201-01301102501ADDAA106999999GF109991999999999999999999MA1102001999999MW1711EQDQ01  00002PRCP06
0110724635230671973010718004+38050-103517SAO  +1292LHX  V0200701N004119999999N0032001N9-01201-01301102451ADDAA106999999GF109991999999999999999999MA1101901999999MD1010081+9999MW1711EQDQ01  00003PRCP99Q02  00002PRCP06
0080724635230671973010719004+38050-103517SAO  +1292LHX  V0200601N004119999999N0032001N9-01201-01301102391ADDAA106999999GF108991999999999999999999MA1101901999999MW1711EQDQ01  00002PRCP06
0080724635230671973010720004+38050-103517SAO  +1292LHX  V0200501N003619999999N0028001N9-01201-01301102401ADDAA106999999GF108991999999999999999999MA1101901999999MW1711EQDQ01  00002PRCP06
0080724635230671973010721004+38050-103517SAO  +1292LHX  V0200501N003019999999N0090001N9-01201-01301102391ADDAA106999999GF108991999999999999999999MA1101901999999MW1701EQDQ01  00002PRCP06
0080724635230671973010722004+38050-103517SAO  +1292LHX  V0200501N004119999999N0110001N9-01201-01301102431ADDAA106999999GF108991999999999999999999MA1101901999999MW1701EQDQ01  00002PRCP06
0080724635230671973010723004+38050-103517SAO  +1292LHX  V0200301N003619999999N0110001N9-01301-01401102541ADDAA106999999GF108991999999999999999999MA1102001999999MW1711EQDQ01  00002PRCP06
0110724635230671973010800004+38050-103517SAO  +1292LHX  V0200501N003019999999N0110001N9-01301-01401102601ADDAA106999999GF108991999999999999999999MA1102001999999MD1210141+9999MW1701EQDQ01  00003PRCP99Q02  00002PRCP06
0080724635230671973010801004+38050-103517SAO  +1292LHX  V0200801N002019999999N0110001N9-01301-01401102711ADDAA106999999GF108991999999999999999999MA1102101999999MW1701EQDQ01  00002PRCP06
0080724635230671973010802004+38050-103517SAO  +1292LHX  V0200601N002019999999N0160001N9-01301-01401102801ADDAA106999999GF108991999999999999999999MA1102171999999MW1701EQDQ01  00002PRCP06
0080724635230671973010803004+38050-103517SAO  +1292LHX  V0200901N001519999999N0240001N9-01301-01401102841ADDAA106999999GF108991999999999999999999MA1102171999999MW1701EQDQ01  00002PRCP06
0080724635230671973010804004+38050-103517SAO  +1292LHX  V0200901N002019999999N0160001N9-01301-01401102891ADDAA106999999GF108991999999999999999999MA1102271999999MW1701EQDQ01  00002PRCP06
0080724635230671973010805004+38050-103517SAO  +1292LHX  V0200801N002519999999N0160001N9-01301-01401102911ADDAA106999999GF108991999999999999999999MA1102271999999MW1701EQDQ01  00002PRCP06
0110724635230671973010806004+38050-103517SAO  +1292LHX  V0200801N002519999999N0160001N9-01301-01401102941ADDAA106999999GF108991999999999999999999MA1102271999999MD1210071+9999MW1701EQDQ01  00003PRCP99Q02  00002PRCP06
0080724635230671973010807004+38050-103517SAO  +1292LHX  V0200901N002519999999N0160001N9-01301-01401102961ADDAA106999999GF108991999999999999999999MA1102271999999MW1701EQDQ01  00002PRCP06
0080724635230671973010808004+38050-103517SAO  +1292LHX  V0200801N003019999999N0060001N9-01301-01401102951ADDAA106999999GF108991999999999999999999MA1102271999999MW1711EQDQ01  00002PRCP06
0080724635230671973010809004+38050-103517SAO  +1292LHX  V0200801N003619999999N0110001N9-01301-01401103011ADDAA106999999GF108991999999999999999999MA1102371999999MW1701EQDQ01  00002PRCP06
0080724635230671973010810004+38050-103517SAO  +1292LHX  V0200901N003619999999N0080001N9-01401-01501103071ADDAA106999999GF108991999999999999999999MA1102371999999MW1711EQDQ01  00002PRCP06
0080724635230671973010811004+38050-103517SAO  +1292LHX  V0200901N003019999999N0080001N9-01401-01501103101ADDAA106999999GF108991999999999999999999MA1102371999999MW1711EQDQ01  00002PRCP06
0105724635230671973010812004+38050-103517SAO  +1292LHX  V0200901N003019999999N0090001N9-01401-01601103101ADDAA106999999AA299023091GF108991999999999999999999MA1102371999999MD1110051+9999MW1711EQDQ01  00002PRCP06
0080724635230671973010813004+38050-103517SAO  +1292LHX  V0200801N002519999999N0110001N9-01401-01601103131ADDAA106999999GF108991999999999999999999MA1102471999999MW1701EQDQ01  00002PRCP06
0080724635230671973010814004+38050-103517SAO  +1292LHX  V0201101N003019999999N0110001N9-01401-01601103161ADDAA106999999GF108991999999999999999999MA1102471999999MW1701EQDQ01  00002PRCP06
0080724635230671973010816004+38050-103517SAO  +1292LHX  V0201001N003019999999N0016001N9-01501-01601103321ADDAA106999999GF108991999999999999999999MA1102571999999MW1711EQDQ01  00002PRCP06
0080724635230671973010816104+38050-103517SAOSP+1292LHX  V0201001N003019999999N0016001N9+99999+99999999999ADDAA106999999GF108991999999999999999999MA1102571999999MW1711EQDQ01  00002PRCP06
0080724635230671973010817004+38050-103517SAO  +1292LHX  V0201001N004119999999N0016001N9-01401-01601103341ADDAA106999999GF108991999999999999999999MA1102571999999MW1711EQDQ01  00002PRCP06
0105724635230671973010818004+38050-103517SAO  +1292LHX  V0200801N003619999999N0048001N9-01401-01601103271ADDAA106999999AA299023091GF108991999999999999999999MA1102571999999MD1010031+9999MW1711EQDQ01  00002PRCP06
0074724635230671973010819004+38050-103517SAO  +1292LHX  V0201001N003619999999N0080001N9-01301-01401103061ADDAA106000091GF108991999999999999999999MA1102371999999EQDQ01+000780PRSWM2
0074724635230671973010820004+38050-103517SAO  +1292LHX  V0200701N004119999999N0080001N9-01301-01501102951ADDAA106000091GF107991999999999999999999MA1102271999999EQDQ01+000780PRSWM2
0074724635230671973010821004+38050-103517SAO  +1292LHX  V0200501N005119999999N0060001N9-01301-01401102951ADDAA106000091GF108991999999999999999999MA1102271999999EQDQ01+000780PRSWM2
0080724635230671973010822004+38050-103517SAO  +1292LHX  V0201001N005119999999N0048001N9-01301-01501103071ADDAA106999999GF108991999999999999999999MA1102371999999MW1701EQDQ01  00002PRCP06
0080724635230671973010823004+38050-103517SAO  +1292LHX  V0200801N005119999999N0060001N9-01401-01601103101ADDAA106999999GF108991999999999999999999MA1102371999999MW1701EQDQ01  00002PRCP06
0110724635230671973010900004+38050-103517SAO  +1292LHX  V0200701N004619999999N0048001N9-01401-01601103181ADDAA106999999GF108991999999999999999999MA1102471999999MD1210141+9999MW1701EQDQ01  00003PRCP99Q02  00002PRCP06
0080724635230671973010901004+38050-103517SAO  +1292LHX  V0200601N005119999999N0032001N9-01401-01601103291ADDAA106999999GF109991999999999999999999MA1102571999999MW1701EQDQ01  00002PRCP06
0080724635230671973010902004+38050-103517SAO  +1292LHX  V0200701N005119999999N0080001N9-01501-01601103351ADDAA106999999GF108991999999999999999999MA1102571999999MW1701EQDQ01  00002PRCP06
0080724635230671973010903004+38050-103517SAO  +1292LHX  V0200701N005119999999N0080001N9-01501-01701103421ADDAA106999999GF108991999999999999999999MA1102681999999MW1701EQDQ01  00002PRCP06
0080724635230671973010904004+38050-103517SAO  +1292LHX  V0200701N004119999999N0120001N9-01501-01701103461ADDAA106999999GF108991999999999999999999MA1102681999999MW1701EQDQ01  00002PRCP06
0080724635230671973010905004+38050-103517SAO  +1292LHX  V0200801N004119999999N0120001N9-01501-01701103431ADDAA106999999GF108991999999999999999999MA1102681999999MW1701EQDQ01  00002PRCP06
0088724635230671973010906004+38050-103517SAO  +1292LHX  V0200701N003619999999N0090001N9-01601-01701103461ADDAA106000091GF108991999999999999999999MA1102681999999MD1210071+9999EQDQ01+000780PRSWM2
0074724635230671973010907004+38050-103517SAO  +1292LHX  V0200801N003619999999N0080001N9-01601-01701103421ADDAA106000091GF108991999999999999999999MA1102681999999EQDQ01+000780PRSWM2
0074724635230671973010908004+38050-103517SAO  +1292LHX  V0200701N003019999999N0080001N9-01601-01701103421ADDAA106000091GF108991999999999999999999MA1102681999999EQDQ01+000780PRSWM2
0074724635230671973010909004+38050-103517SAO  +1292LHX  V0200901N004119999999N0080001N9-01601-01701103461ADDAA106000091GF108991999999999999999999MA1102681999999EQDQ01+000780PRSWM2
0074724635230671973010910004+38050-103517SAO  +1292LHX  V0200901N003619999999N0080001N9-01601-01701103441ADDAA106000091GF108991999999999999999999MA1102681999999EQDQ01+000780PRSWM2
0074724635230671973010911004+38050-103517SAO  +1292LHX  V0200801N004619999999N0080001N9-01601-01701103421ADDAA106000091GF108991999999999999999999MA1102681999999EQDQ01+000780PRSWM2
0104724635230671973010912004+38050-103517SAO  +1292LHX  V0200901N003019999999N0080001N9-01601-01701103391ADDAA106000091GF108991999999999999999999MA1102571999999MD1010101+9999EQDQ01+000780PRSWM2Q02  00003PRCP99
0074724635230671973010913004+38050-103517SAO  +1292LHX  V0201001N004119999999N0080001N9-01601-01701103381ADDAA106000091GF108991999999999999999999MA1102571999999EQDQ01+000780PRSWM2
0074724635230671973010914004+38050-103517SAO  +1292LHX  V0200801N004619999999N0080001N9-01601-01701103441ADDAA106000091GF108991999999999999999999MA1102681999999EQDQ01+000780PRSWM2
0088724635230671973010915004+38050-103517SAO  +1292LHX  V0200901N003619999999N0080001N9-01601-01701103511ADDAA106000091GF108991999999999999999999MA1102681999999MD1310101+9999EQDQ01+000780PRSWM2
0080724635230671973010916004+38050-103517SAO  +1292LHX  V0200901N005119999999N0016001N9-01601-01801103541ADDAA106999999GF109991999999999999999999MA1102781999999MW1701EQDQ01  00002PRCP06
0080724635230671973010917004+38050-103517SAO  +1292LHX  V0200901N005119999999N0016001N9-01601-01701103461ADDAA106999999GF109991999999999999999999MA1102681999999MW1701EQDQ01  00002PRCP06
0110724635230671973010918004+38050-103517SAO  +1292LHX  V0200801N005119999999N0016001N9-01501-01701103391ADDAA106999999GF109991999999999999999999MA1102571999999MD1710101+9999MW1701EQDQ01  00003PRCP99Q02  00002PRCP06
0080724635230671973010919004+38050-103517SAO  +1292LHX  V0200901N005119999999N0016001N9-01501-01701103241ADDAA106999999GF109991999999999999999999MA1102471999999MW1701EQDQ01  00002PRCP06
0080724635230671973010920004+38050-103517SAO  +1292LHX  V0200801N005119999999N0016001N9-01401-01601103071ADDAA106999999GF109991999999999999999999MA1102371999999MW1701EQDQ01  00002PRCP06
0094724635230671973010921004+38050-103517SAO  +1292LHX  V0200901N005119999999N0048001N9-01401-01601103011ADDAA106999999GF108991999999999999999999MA1102271999999MD1710291+9999MW1701EQDQ01  00002PRCP06
0074724635230671973010922004+38050-103517SAO  +1292LHX  V0200901N005119999999N0048001N9-01401-01601102981ADDAA106000091GF108991999999999999999999MA1102271999999EQDQ01+000780PRSWM2
0080724635230671973010923004+38050-103517SAO  +1292LHX  V0201001N005119999999N0060001N9-01401-01701102961ADDAA106999999GF108991999999999999999999MA1102171999999MW1701EQDQ01  00002PRCP06
0104724635230671973011000004+38050-103517SAO  +1292LHX  V0201001N004119999999N0090001N9-01401-01701102931ADDAA106000091GF108991999999999999999999MA1102171999999MD1710101+9999EQDQ01+000100PRSWM2Q02  00003PRCP99
0074724635230671973011001004+38050-103517SAO  +1292LHX  V0200701N004619999999N0160001N9-01401-01701102891ADDAA106000091GF108991999999999999999999MA1102171999999EQDQ01+000020PRSWM2
0074724635230671973011002004+38050-103517SAO  +1292LHX  V0200701N004119999999N0160001N9-01501-01701102901ADDAA106000091GF108991999999999999999999MA1102171999999EQDQ01+000020PRSWM2
0088724635230671973011003004+38050-103517SAO  +1292LHX  V0200601N003019999999N0160001N9-01801-01901102931ADDAA106000091GF107991999999999999999999MA1102101999999MD1710051+9999EQDQ01+000020PRSWM2
0074724635230671973011004004+38050-103517SAO  +1292LHX  V0200401N002519999999N0160001N9-01801-01901102911ADDAA106000091GF108991999999999999999999MA1102101999999EQDQ01+000020PRSWM2
0074724635230671973011005004+38050-103517SAO  +1292LHX  V0200701N003619999999N0160001N9-01701-01801102751ADDAA106000091GF108991999999999999999999MA1102001999999EQDQ01+000020PRSWM2
0088724635230671973011006004+38050-103517SAO  +1292LHX  V0200901N003619999999N0120001N9-01601-01801102641ADDAA106000091GF108991999999999999999999MA1101901999999MD1710201+9999EQDQ01+000020PRSWM2
0074724635230671973011007004+38050-103517SAO  +1292LHX  V0200701N003619999999N0120001N9-01701-01801102521ADDAA106000091GF108991999999999999999999MA1101801999999EQDQ01+000020PRSWM2
0074724635230671973011008004+38050-103517SAO  +1292LHX  V0200301N001519999999N0240001N9-01701-01801102461ADDAA106000091GF108991999999999999999999MA1101691999999EQDQ01+000020PRSWM2
0088724635230671973011009004+38050-103517SAO  +1292LHX  V0200501N002019999999N0240001N9-01701-01801102421ADDAA106000091GF108991999999999999999999MA1101691999999MD1710191+9999EQDQ01+000020PRSWM2
0074724635230671973011010004+38050-103517SAO  +1292LHX  V0203601N001519999999N0240001N9-01701-01801102371ADDAA106000091GF108991999999999999999999MA1101691999999EQDQ01+000020PRSWM2
0074724635230671973011011004+38050-103517SAO  +1292LHX  V0200201N001519999999N0240001N9-01701-01801102341ADDAA106000091GF108991999999999999999999MA1101591999999EQDQ01+000020PRSWM2
0088724635230671973011012004+38050-103517SAO  +1292LHX  V0203401N001519999999N0240001N9-01701-01801102321ADDAA106000091GF108991999999999999999999MA1101591999999MD1710081+9999EQDQ01+000020PRSWM2
0074724635230671973011013004+38050-103517SAO  +1292LHX  V0203501N002019999999N0240001N9-01701-01801102321ADDAA106000091GF108991999999999999999999MA1101591999999EQDQ01+000020PRSWM2
0074724635230671973011014004+38050-103517SAO  +1292LHX  V0203401N002019999999N0160001N9-01701-01801102421ADDAA106000091GF108991999999999999999999MA1101691999999EQDQ01+000020PRSWM2
0080724635230671973011015004+38050-103517SAO  +1292LHX  V0200101N001519999999N0060001N9-01701-01801102591ADDAA106999999GF108991999999999999999999MA1101801999999MW1701EQDQ01  00002PRCP06
0074724635230671973011016004+38050-103517SAO  +1292LHX  V0202901N001519999999N0190001N9-01601-01801102701ADDAA106000091GF107991999999999999999999MA1101901999999EQDQ01+000020PRSWM2
0074724635230671973011017004+38050-103517SAO  +1292LHX  V0202701N003619999999N0190001N9-01401-01601102681ADDAA106000091GF108991999999999999999999MA1102001999999EQDQ01+000020PRSWM2
0104724635230671973011018004+38050-103517SAO  +1292LHX  V0202701N004619999999N0190001N9-01301-01501102651ADDAA106000091GF108991999999999999999999MA1102001999999MD1110151+9999EQDQ01+000020PRSWM2Q02  00003PRCP99
0074724635230671973011019004+38050-103517SAO  +1292LHX  V0202601N004119999999N0190001N9-01201-01501102571ADDAA106000091GF108991999999999999999999MA1101901999999EQDQ01+000020PRSWM2
0074724635230671973011020004+38050-103517SAO  +1292LHX  V0202701N004119999999N0190001N9-01101-01401102501ADDAA106000091GF108991999999999999999999MA1101801999999EQDQ01+000020PRSWM2
0075724635230671973011021004+38050-103517SAO  +1292LHX  V0202701N005112200019N0080001N9-01101-01401102531ADDAA106000091GF100991999999999999999999MA1101901999999MD1510081+9999MW1051
0061724635230671973011022004+38050-103517SAO  +1292LHX  V0202501N003612200019N0080001N9-01101-01301102511ADDAA106000091GF102991999999999999999999MA1101901999999MW1051
0061724635230671973011023004+38050-103517SAO  +1292LHX  V0202401N004112200019N0080001N9-01101-01401102601ADDAA106000091GF100991999999999999999999MA1101901999999MW1051
0088724635230671973011100004+38050-103517SAO  +1292LHX  V0202601N004112200019N0120001N9-01201-01501102691ADDAA106000091GF102991999999999999999999MA1102001999999MD1310121+9999EQDQ01+000020PRSWM2
0074724635230671973011101004+38050-103517SAO  +1292LHX  V0202501N005112200019N0160001N9-01201-01501102871ADDAA106000091GF102991999999999999999999MA1102171999999EQDQ01+000020PRSWM2
0074724635230671973011102004+38050-103517SAO  +1292LHX  V0202501N005612200019N0190001N9-01301-01601103021ADDAA106000091GF102991999999999999999999MA1102271999999EQDQ01+000020PRSWM2
0115724635230671973011106004+38050-103517SAO  +1292LHX  V0202501N006112200019N0240001N1-01551-01721103091ADDGD12991+0750093GF102991999031999999001999MA1102401999999MD1110071+9999MW1001REMAWY008/ 107 13EQDQ01    003SCOHCG
0050724635230671973011107004+38050-103517SAO  +1292LHX  V0202801N006112200019N0240001N1-01611-01771103141ADDGF100991999999999999999999MA1102441999999MW1001
0050724635230671973011108004+38050-103517SAO  +1292LHX  V0202701N005612200019N0240001N1-01661-01831103141ADDGF100991999999999999999999MA1102471999999MW1001
0078724635230671973011109004+38050-103517SAO  +1292LHX  V0202601N007212200019N0240001N1-01661-01831103141ADDGF100991999999999999999999MA1102471999999MD1110051+9999MW1001REMAWY005/ 105
0050724635230671973011110004+38050-103517SAO  +1292LHX  V0202601N007712200019N0192001N1-01661-01831103171ADDGF100991999999999999999999MA1102511999999MW1001
0050724635230671973011111004+38050-103517SAO  +1292LHX  V0202601N006612200019N0192001N1-01661-01831103171ADDGF100991999999999999999999MA1102511999999MW1001
0100724635230671973011112004+38050-103517SAO  +1292LHX  V0202601N007212200019N0192001N1-01611-01771103241ADDGF100991999999999999999999KA1999N-01731MA1102541999999MD1210071+9999MW1001REMAWY014/ 207 90401 01
0065724635230671973011113004+38050-103517SAO  +1292LHX  V0202501N007712200019N0192001N1-01551-01771103321ADDGF100991999999999999999999MA1102611999999MW1001REMAWY006FEW CI
0062724635230671973011114004+38050-103517SAO  +1292LHX  V0202301N003012200019N0128001N1-01501-01661103351ADDGF100991999999999999999999MA1102641999999MW1001REMAWY003HZY
0081724635230671973011115004+38050-103517SAO  +1292LHX  V0202401N004112200019N0160001N1-01551-01721103461ADDGF100991999999999999999999MA1102681999999MD1210121+9999MW1001REMAWY008HZY/ 212
0062724635230671973011116004+38050-103517SAO  +1292LHX  V0202701N006112200019N0160001N1-01501-01661103561ADDGF100991999999999999999999MA1102811999999MW1001REMAWY003HZY
0050724635230671973011117004+38050-103517SAO  +1292LHX  V0202201N004112200019N0240001N1-01161-01441103451ADDGF100991999999999999999999MA1102781999999MW1001
0094724635230671973011118004+38050-103517SAO  +1292LHX  V0209991C000012200019N0240001N1-00831-01161103361ADDGF100991999999999999999999KA1999N-01731MA1102741999999MD1010071+9999MW1001REMAWY008/ 007 01
0050724635230671973011119004+38050-103517SAO  +1292LHX  V0202501N003012200019N0240001N1-00611-01001103161ADDGF100991999999999999999999MA1102571999999MW1001
0050724635230671973011120004+38050-103517SAO  +1292LHX  V0202601N003012200019N0240001N1-00501-00941102961ADDGF100991999999999999999999MA1102401999999MW1001
0078724635230671973011121004+38050-103517SAO  +1292LHX  V0202801N003612200019N0240001N1-00381-00831102811ADDGF100991999999999999999999MA1102301999999MD1710411+9999MW1001REMAWY005/ 741
0050724635230671973011122004+38050-103517SAO  +1292LHX  V0209991C000012200019N0240001N1-00331-00831102821ADDGF100991999999999999999999MA1102301999999MW1001
0067724635230671973011123004+38050-103517SAO  +1292LHX  V0203601N002512200019N0240001N1-00441-00831102771ADDGF100991999999999999999999MA1102241999999MW1001REMAWY008FEW CI W
0109724635230671973011200004+38050-103517SAO  +1292LHX  V0200301N002512200019N0240001N1-00771-01051102821ADDGD12991+0840099GF102991999999999999999999KA1999M-00341MA1102241999999MD1610051+9999MW1001REMAWY008/ 605 26
0065724635230671973011201004+38050-103517SAO  +1292LHX  V0200401N00251084001EN0240001N1-01161-01271102851ADDGD14991+0840099GF108991999999999999999999MA1102201999999MW1001
0065724635230671973011202004+38050-103517SAO  +1292LHX  V0203601N003012200019N0240001N1-01331-01441102891ADDGD14991+0840093GF108991999999999999999999MA1102201999999MW1001
0093724635230671973011203004+38050-103517SAO  +1292LHX  V0200301N002012200019N0240001N1-01161-01271102891ADDGD12991+0840093GF102991999999999999999999MA1102201999999MD1610031+9999MW1001REMAWY005/ 603
0065724635230671973011204004+38050-103517SAO  +1292LHX  V0202501N004112200019N0240001N1-01381-01551102861ADDGD12991+0840093GF102991999999999999999999MA1102171999999MW1001
0050724635230671973011205004+38050-103517SAO  +1292LHX  V0202501N005112200019N0240001N1-01271-01381102761ADDGF100991999999999999999999MA1102131999999MW1001
0094724635230671973011206004+38050-103517SAO  +1292LHX  V0202601N005612200019N0240001N1-01381-01501102681ADDGF100991999999999999999999KA1999M-00341MA1102101999999MD1710071+9999MW1001REMAWY008/ 707 26
0067724635230671973011207004+38050-103517SAO  +1292LHX  V0202501N006112200019N0240001N1-01271-01441102541ADDGF100991999999999999999999MA1102031999999MW1001REMAWY008FEW CI W
0050724635230671973011208004+38050-103517SAO  +1292LHX  V0202701N006112200019N0240001N1-01441-01611102461ADDGF100991999999999999999999MA1101961999999MW1001
0078724635230671973011209004+38050-103517SAO  +1292LHX  V0202501N003012200019N0240001N1-01501-01661102461ADDGF100991999999999999999999MA1101961999999MD1610141+9999MW1001REMAWY005/   4
0050724635230671973011210004+38050-103517SAO  +1292LHX  V0202401N002012200019N0240001N1-01441-01611102381ADDGF100991999999999999999999MA1101931999999MW1001
0050724635230671973011211004+38050-103517SAO  +1292LHX  V0202501N004112200019N0240001N1-01381-01551102361ADDGF100991999999999999999999MA1101901999999MW1001
0094724635230671973011212004+38050-103517SAO  +1292LHX  V0202601N004612200019N0240001N1-01221-01501102371ADDGF100991999999999999999999KA1999N-01501MA1101861999999MD1710081+9999MW1001REMAWY008/ 708 05
0065724635230671973011213004+38050-103517SAO  +1292LHX  V0202301N004612200019N0240001N1-01001-01331102371ADDGD13991+0750093GF107991999999999999999999MA1101831999999MW1001
0080724635230671973011214004+38050-103517SAO  +1292LHX  V0202101N00411036001EN0240001N1-01001-01271102451ADDGD13991+0360099GD23991+0750099GF107991999999999999999999MA1101861999999MW1001
0108724635230671973011215004+38050-103517SAO  +1292LHX  V0202301N00361036001EN0240001N1-00831-01161102401ADDGD13991+0360099GD24991+0750099GF108991999999999999999999MA1101901999999MD1310031+9999MW1001REMAWY005/ 303
0080724635230671973011216004+38050-103517SAO  +1292LHX  V0202901N00511036001EN0240001N1-00941-01161102591ADDGD13991+0360099GD24991+0750099GF108991999999999999999999MA1102001999999MW1001
0080724635230671973011217004+38050-103517SAO  +1292LHX  V0202501N004112200019N0240001N1-00551-00941102431ADDGD12991+0420099GD22991+0750099GF102991999999999999999999MA1101961999999MW1001
0094724635230671973011218004+38050-103517SAO  +1292LHX  V0203401N002012200019N0240001N1-00221-00721102251ADDGF100991999999999999999999KA1999N-01501MA1101831999999MD1810071+9999MW1001REMAWY008/ 807 05
0050724635230671973011219004+38050-103517SAO  +1292LHX  V0202501N003612200019N0240001N1-00051-00501102151ADDGF100991999999999999999999MA1101761999999MW1001
0065724635230671973011220004+38050-103517SAO  +1292LHX  V0202501N002012200019N0240001N1+00221-00441102051ADDGD12991+0900093GF102991999999999999999999MA1101691999999MW1001
0093724635230671973011221004+38050-103517SAO  +1292LHX  V0200401N00201084001EN0240001N1+00331-00441101981ADDGD13991+0840099GF107991999999999999999999MA1101661999999MD1710151+9999MW1001REMAWY005/ 715
0080724635230671973011222004+38050-103517SAO  +1292LHX  V0209991C00001045001EN0240001N1+00441-00441101971ADDGD13991+0450099GD24991+0840099GF108991999999999999999999MA1101661999999MW1001
0126724635230671973011223004+38050-103517SAO  +1292LHX  V0200701N004110450019N0240001N1+00271-00331101981ADDGD12991+0150099GD23991+0450099GD34991+0840099GF108991999999999999999999MA1101661999999MW1001REMAWY022?LHX 1/3 HGO DME UNMON
0147724635230671973011300004+38050-103517SAO  +1292LHX  V0201201N002510360019N0240001N1+00111-00441101921ADDGD12991+0150099GD23991+0360099GD34991+0840099GF108991999999999999999999MA1101591999999MD1810051+9999MW1001REMAWY029HAZE LYR N-E/ 805 41?LHX C1/3
0117724635230671973011301004+38050-103517SAO  +1292LHX  V0200101N002510360019N0240001N1-00161-00501101941ADDGD12991+0150099GD23991+0360099GD34991+0750099GF108991999999999999999999MA1101631999999MW1001REMAWY013MOON DMLY VSB
0080724635230671973011302004+38050-103517SAO  +1292LHX  V0209991C000010750019N0240001N1-00221-00551101961ADDGD12991+0360099GD23991+0750099GF107991999999999999999999MA1101631999999MW1001
0127724635230671973011303004+38050-103517SAO  +1292LHX  V0203301N004619999999N0240001N1-00551-00721101991ADDGD12991+0360099GD22991+0750099GF102991999999999999999999MA1101631999999MD1110021+9999MW1701REMAWY005/ 102EQDQ01+000202SCOCIG
0065724635230671973011304004+38050-103517SAO  +1292LHX  V0202401N002012200019N0240001N1-00331-00661102011ADDGD13991+0750093GF107991999999999999999999MA1101661999999MW1001
0065724635230671973011305004+38050-103517SAO  +1292LHX  V0202601N004612200019N0240001N1-00551-00771102021ADDGD13991+0750093GF107991999999999999999999MA1101691999999MW1001
0109724635230671973011306004+38050-103517SAO  +1292LHX  V0202601N006112200019N0240001N1-00441-00721101971ADDGD13991+0750093GF107991999999999999999999KA1999M+00501MA1101731999999MD1310101+9999MW1001REMAWY008/ 310 41
0080724635230671973011307004+38050-103517SAO  +1292LHX  V0202701N004112200019N0240001N1-00551-00721102011ADDGD12991+0450099GD23991+0750093GF107991999999999999999999MA1101761999999MW1001
0080724635230671973011308004+38050-103517SAO  +1292LHX  V0202501N006112200019N0240001N1-00381-00661101951ADDGD12991+0450099GD22991+0750093GF102991999999999999999999MA1101801999999MW1001
0099724635230671973011309004+38050-103517SAO  +1292LHX  V0202401N006612200019N0240001N1-00221-00611101941ADDGD12991+0750093GF102991999999999999999999MA1101831999999MD1210081+9999MW1001REMAWY011FEW AC/ 208
0050724635230671973011310004+38050-103517SAO  +1292LHX  V0202301N004112200019N0240001N1-00381-00661102041ADDGF100991999999999999999999MA1101931999999MW1001
0050724635230671973011311004+38050-103517SAO  +1292LHX  V0202401N002512200019N0240001N1-00161-00611102081ADDGF100991999999999999999999MA1101961999999MW1001
0094724635230671973011312004+38050-103517SAO  +1292LHX  V0202501N004112200019N0240001N1-00441-00721102241ADDGF100991999999999999999999KA1999N-00621MA1102031999999MD1210191+9999MW1001REMAWY008/ 219 21
0050724635230671973011313004+38050-103517SAO  +1292LHX  V0202501N004612200019N0240001N1-00551-00771102331ADDGF100991999999999999999999MA1102071999999MW1001
0065724635230671973011314004+38050-103517SAO  +1292LHX  V0202401N004612200019N0240001N1-00441-00721102371ADDGD12991+0750099GF102991999999999999999999MA1102101999999MW1001
0098724635230671973011315004+38050-103517SAO  +1292LHX  V0202401N007212200019N0240001N1-00221-00611102441ADDGD14991+0900093GF108991999999999999999999MA1102131999999MD1210101+9999MW1001REMAWY010AC SW/ 210
0082724635230671973011316004+38050-103517SAO  +1292LHX  V0209991C000012200019N0240001N1-00161-00501102451ADDGD12991+0900093GF102991999999999999999999MA1102201999999MW1001REMAWY008AC NE SW
0065724635230671973011317004+38050-103517SAO  +1292LHX  V0201901N003612200019N0240001N1+00501-00221102411ADDGD12991+0750099GF102991999999999999999999MA1102271999999MW1001
0124724635230671973011318004+38050-103517SAO  +1292LHX  V0203001N00251075001EN0240001N1+00331-00111102391ADDGD13991+0750099GD23991+0900099GF107991999999999999999999KA1999N-00621MA1102241999999MD1010071+9999MW1001REMAWY008/ 007 21
0080724635230671973011319004+38050-103517SAO  +1292LHX  V0209991C000010900019N0240001N1+00441-00161102331ADDGD12991+0750099GD23991+0900099GF107991999999999999999999MA1102171999999MW1001
0080724635230671973011320004+38050-103517SAO  +1292LHX  V0209991C000012200019N0560001N1+00551-00161102211ADDGD12991+0750099GD22991+0900093GF102991999999999999999999MA1102101999999MW1001
0093724635230671973011321004+38050-103517SAO  +1292LHX  V0209991C000012200019N1600001N1+00831-00051102111ADDGD13991+0900093GF107991999999999999999999MA1102071999999MD1710141+9999MW1001REMAWY005/ 714
0065724635230671973011322004+38050-103517SAO  +1292LHX  V0209991C000012200019N1600001N1+01001-00051102211ADDGD14991+0900093GF108991999999999999999999MA1102171999999MW1001
0080724635230671973011323004+38050-103517SAO  +1292LHX  V0209991C00001075001EN1600001N1+00771+00051102221ADDGD13991+0750099GD24991+0900099GF108991999999999999999999MA1102201999999MW1001
0124724635230671973011400004+38050-103517SAO  +1292LHX  V0209991C00001054001EN0560001N1+00331-00111102391ADDGD13991+0540099GD24991+0750099GF108991999999999999999999KA1999M+01051MA1102241999999MD1210141+9999MW1001REMAWY008/ 214 51
0080724635230671973011401004+38050-103517SAO  +1292LHX  V0201601N00201054001EN0240001N1+00331-00111102441ADDGD13991+0540099GD23991+0750099GF107991999999999999999999MA1102271999999MW1001
0087724635230671973011402004+38050-103517SAO  +1292LHX  V0201901N00301054001EN0240001N1+00161-00111102411ADDGD14991+0540099GF108991999999999999999999MA1102241999999MW1001REMAWY013MOON DMLY VSB
0093724635230671973011403004+38050-103517SAO  +1292LHX  V0202301N00511054001EN0240001N1+00331-00161102361ADDGD14991+0540099GF108991999999999999999999MA1102241999999MD1010001+9999MW1001REMAWY005/ 000
0087724635230671973011404004+38050-103517SAO  +1292LHX  V0209991C00001054001EN0240001N1+00161-00161102441ADDGD14991+0540099GF108991999999999999999999MA1102301999999MW1001REMAWY013MOON DMLY VSB
0087724635230671973011405004+38050-103517SAO  +1292LHX  V0209991C00001054001EN0240001N1+00001-00221102411ADDGD14991+0540099GF108991999999999999999999MA1102371999999MW1001REMAWY013MOON DMLY VSB
0122724635230671973011406004+38050-103517SAO  +1292LHX  V0202101N00611048001EN0240001N1+00161-00161102461ADDGD14991+0480099GF108991999999999999999999KA1999M+01051MA1102241999999MD1010001+9999MW1001REMAWY021MOON DMLY VSB/ 000 51
0101724635230671973011407004+38050-103517SAO  +1292LHX  V0202001N00661048001EN0240001N1+00161-00161102221ADDGD14991+0480099GF108991999999999999999999MA1102201999999MW1001REMAWY027FEW STARS AND MOON DMLY VSB
0065724635230671973011408004+38050-103517SAO  +1292LHX  V0203001N00461048001EN0240001N1-00111-00271102371ADDGD14991+0480099GF108991999999999999999999MA1102301999999MW1001
0108724635230671973011409004+38050-103517SAO  +1292LHX  V0203601N003010750019N0240001N1-00161-00331102341ADDGD12991+0480099GD24991+0750099GF108991999999999999999999MA1102301999999MD1110071+9999MW1001REMAWY005/ 107
0080724635230671973011410004+38050-103517SAO  +1292LHX  V0202101N004610750019N0240001N1+00161-00221102161ADDGD12991+0480099GD24991+0750099GF108991999999999999999999MA1102241999999MW1001
0119724635230671973011411004+38050-103517SAO  +1292LHX  V0202701N005610750019N0240001N1-00111-00331102371ADDGD12991+0480099GD24991+0750099GF108991999999999999999999MA1102341999999MW1001REMAWY030LIT %15 246/27/23/2205/025   U
0109724635230671973011412004+38050-103517SAO  +1292LHX  V0202701N004612200019N0240001N1-00051-00331102511ADDGD14991+0750093GF108991999999999999999999KA1999N-00281MA1102401999999MD1310101+9999MW1001REMAWY008/ 310 27
0065724635230671973011413004+38050-103517SAO  +1292LHX  V0202101N002512200019N0240001N1-00051-00331102551ADDGD13991+0750093GF107991999999999999999999MA1102471999999MW1001
0065724635230671973011414004+38050-103517SAO  +1292LHX  V0202501N00251075001EN0240001N1-00161-00381102641ADDGD14991+0750099GF108991999999999999999999MA1102511999999MW1001
0108724635230671973011415004+38050-103517SAO  +1292LHX  V0202101N004110750019N0240001N1+00051-00221102721ADDGD12991+0540099GD24991+0750099GF108991999999999999999999MA1102571999999MD1210141+9999MW1001REMAWY005/ 214
0080724635230671973011416004+38050-103517SAO  +1292LHX  V0202001N004112200019N1600001N1+00331-00161102661ADDGD12991+0540099GD24991+0900093GF108991999999999999999999MA1102611999999MW1001
0080724635230671973011417004+38050-103517SAO  +1292LHX  V0202201N002512200019N1600001N1+00501-00051102711ADDGD12991+0540099GD22991+0900093GF102991999999999999999999MA1102681999999MW1001
0107724635230671973011418004+38050-103517SAO  +1292LHX  V0203001N002512200019N1600001N1+00661+00111102671ADDGF100991999999999999999999KA1999N-00281MA1102641999999MD1010051+9999MW1001REMAWY021AS S CI N-E-S/ 005 27
0050724635230671973011419004+38050-103517SAO  +1292LHX  V0203001N002012200019N1600001N1+00661+00161102541ADDGF100991999999999999999999MA1102541999999MW1001
0065724635230671973011420004+38050-103517SAO  +1292LHX  V0209991C000012200019N1600001N1+00831+00221102451ADDGF100991999999999999999999MA1102471999999MW1001REMAWY006CI N-E
0093724635230671973011421004+38050-103517SAO  +1292LHX  V0209991C000012200019N1600001N1+01221+00221102311ADDGD12991+0900093GF102991999999999999999999MA1102371999999MD1710241+9999MW1001REMAWY005/ 724
0065724635230671973011422004+38050-103517SAO  +1292LHX  V0209991C000012200019N1600001N1+01161+00271102331ADDGD13991+0900093GF107991999999999999999999MA1102371999999MW1001
0065724635230671973011423004+38050-103517SAO  +1292LHX  V0200701N002512200019N1600001N1+00941+00221102361ADDGD14991+0900093GF108991999999999999999999MA1102401999999MW1001
0109724635230671973011500004+38050-103517SAO  +1292LHX  V0200301N003012200019N0560001N1+00381+00001102541ADDGD14991+0900093GF108991999999999999999999KA1999M+01331MA1102441999999MD1210071+9999MW1001REMAWY008/ 207 56
0065724635230671973011501004+38050-103517SAO  +1292LHX  V0200501N002512200019N0560001N1+00331-00051102571ADDGD13991+0900093GF107991999999999999999999MA1102471999999MW1001
0065724635230671973011502004+38050-103517SAO  +1292LHX  V0209991C000012200019N0240001N1+00111-00161102631ADDGD12991+0900093GF102991999999999999999999MA1102511999999MW1001
0093724635230671973011503004+38050-103517SAO  +1292LHX  V0201901N004112200019N0240001N1+00331-00111102591ADDGD13991+0900093GF107991999999999999999999MA1102471999999MD1010031+9999MW1001REMAWY005/ 003
0080724635230671973011504004+38050-103517SAO  +1292LHX  V0202801N001512200019N0240001N1+00001-00221102621ADDGD12991+0540099GD22991+0750093GF102991999999999999999999MA1102541999999MW1001
0065724635230671973011505004+38050-103517SAO  +1292LHX  V0202801N003612200019N0240001N1+00001-00221102671ADDGD12991+0750093GF102991999999999999999999MA1102611999999MW1001
0109724635230671973011506004+38050-103517SAO  +1292LHX  V0203501N002012200019N0240001N1-00051-00271102571ADDGD12991+0750093GF102991999999999999999999KA1999M+01331MA1102541999999MD1010051+9999MW1001REMAWY008/ 005 56
0065724635230671973011507004+38050-103517SAO  +1292LHX  V0209991C000012200019N0240001N1+00051-00221102551ADDGD12991+0750093GF102991999999999999999999MA1102541999999MW1001
0050724635230671973011508004+38050-103517SAO  +1292LHX  V0202401N004612200019N0240001N1-00111-00221102501ADDGF100991999999999999999999MA1102511999999MW1001
0078724635230671973011509004+38050-103517SAO  +1292LHX  V0202001N002012200019N0240001N1-00161-00221102411ADDGF100991999999999999999999MA1102471999999MD1810071+9999MW1001REMAWY005/ 807
0050724635230671973011510004+38050-103517SAO  +1292LHX  V0202401N005112200019N0240001N1+00001-00161102361ADDGF100991999999999999999999MA1102401999999MW1001
0050724635230671973011511004+38050-103517SAO  +1292LHX  V0202401N005612200019N0240001N1-00111-00271102381ADDGF100991999999999999999999MA1102371999999MW1001
0078724635230671973011512004+38050-103517SAO  +1292LHX  V0202301N005112200019N0240001N1-00051-00221102431ADDGF100991999999999999999999MA1102341999999MD1710101+9999MW1001REMAWY005/ 710
0050724635230671973011513004+38050-103517SAO  +1292LHX  V0202501N006112200019N0240001N1-00111-00271102451ADDGF100991999999999999999999MA1102341999999MW1001
0050724635230671973011514004+38050-103517SAO  +1292LHX  V0202501N005612200019N0240001N1-00111-00271102451ADDGF100991999999999999999999MA1102301999999MW1001
0096724635230671973011515004+38050-103517SAO  +1292LHX  V0202501N005112200019N0240001N1-00111-00271102451ADDGF100991999999999999999999MA1102341999999MW1001REMAWY037/ 500?LHX 1/4 HGO VOR/DME OTS 17-2000
0080724635230671973011516004+38050-103517SAO  +1292LHX  V0202401N003012200019N1600001N1+00051-00221102471ADDGF100991999999999999999999MA1102341999999MW1001REMAWY021HAZE LYR N-NE?LHX?1/4
0071724635230671973011517004+38050-103517SAO  +1292LHX  V0202401N003612200019N1600001N1+00331-00111102481ADDGF100991999999999999999999MA1102371999999MW1001REMAWY012HAZE LYR N-E
0101724635230671973011518004+38050-103517SAO  +1292LHX  V0202101N004112200019N1600001N1+00611+00111102351ADDGF100991999999999999999999MA1102301999999MD1810031+9999MW1001REMAWY028HAZE LYR N-E/ 803 29?LHX?1/4
0087724635230671973011519004+38050-103517SAO  +1292LHX  V0202201N002512200019N1600001N1+00941+00051102051ADDGF100991999999999999999999MA1102101999999MW1001REMAWY028CI DSNT SW-NW PRESFR?LHX?1/4
0077724635230671973011520004+38050-103517SAO  +1292LHX  V0202201N002012200019N1600001N1+00941+00111101911ADDGF100991999999999999999999MA1101931999999MW1001REMAWY018CI S-W-NW?LHX C1/4
0103724635230671973011521004+38050-103517SAO  +1292LHX  V0200501N002512200019N1600001N1+01001+00331101811ADDGD13991+0750093GF107991999999999999999999MA1101831999999MD1710421+9999MW1001REMAWY015HAZE LYR N/ 742
0089724635230671973011522004+38050-103517SAO  +1292LHX  V0200501N002512200019N1600001N1+00881+00161101721ADDGD13991+0750093GF107991999999999999999999MA1101761999999MW1001REMAWY015HAZE LYR DSNT N
0104724635230671973011523004+38050-103517SAO  +1292LHX  V0200301N003610750019N0560001N1+00441+00111101761ADDGD12991+0540099GD23991+0750099GF107991999999999999999999MA1101691999999MW1001REMAWY015HAZE LYR DSNT N
0080724635230671973011601004+38050-103517SAO  +1292LHX  V0203001N002010810019N0240001N1+00111-00051999999ADDGD12991+0540099GD24991+0810099GF108991999999999999999999MA1101591999999MW1001
0080724635230671973011602004+38050-103517SAO  +1292LHX  V0202701N003612200019N0240001N1+00051-00111101801ADDGD12991+0540099GD24991+0810093GF108991999999999999999999MA1101591999999MW1001
0099724635230671973011603004+38050-103517SAO  +1292LHX  V0202801N002012200019N0240001N1+00111-00111101681ADDGD14991+0810093GF108991999999999999999999MA1101561999999MD1810031+9999MW1001REMAWY011FEW AC/ 803
0065724635230671973011604004+38050-103517SAO  +1292LHX  V0202601N005112200019N0240001N1+00111-00051101571ADDGD14991+0810093GF108991999999999999999999MA1101491999999MW1001
0080724635230671973011605004+38050-103517SAO  +1292LHX  V0202501N004110750019N0240001N1+00111-00051101481ADDGD12991+0480099GD24991+0750099GF108991999999999999999999MA1101461999999MW1001
0124724635230671973011606004+38050-103517SAO  +1292LHX  V0202401N004610750019N0240001N1+00001-00111101481ADDGD12991+0480099GD24991+0750099GF108991999999999999999999KA1999M+01111MA1101461999999MD1710081+9999MW1001REMAWY008/ 708 52
0065724635230671973011607004+38050-103517SAO  +1292LHX  V0201801N002512200019N0240001N1+00051-00051101281ADDGD14991+0750093GF108991999999999999999999MA1101351999999MW1001
0065724635230671973011608004+38050-103517SAO  +1292LHX  V0209991C000012200019N0240001N1+00001-00051101261ADDGD14991+0750093GF108991999999999999999999MA1101321999999MW1001
0106724635230671973011609004+38050-103517SAO  +1292LHX  V0202301N00301075001EN0240001N1+00001-00111101231ADDGD14991+0750099GF108991999999999999999999MA1101291999999MD1710151+9999MW1001REMAWY018MOON DMLY VSB/ 715
0087724635230671973011610004+38050-103517SAO  +1292LHX  V0202601N00251075001EN0240001N1+00161-00051101221ADDGD14991+0750099GF108991999999999999999999MA1101291999999MW1001REMAWY013MOON DMLY VSB
0085724635230671973011611004+38050-103517SAO  +1292LHX  V0202701N00361075001EN0240001N1+00051-00161101251ADDGD14991+0750099GF108991999999999999999999MA1101221999999MW1001REMAWY011OCNL BINOVC
0065724635230671973011613004+38050-103517SAO  +1292LHX  V0202101N00511075001EN0240001N1+00221-00271101211ADDGD14991+0750099GF108991999999999999999999MA1101151999999MW1001
0065724635230671973011614004+38050-103517SAO  +1292LHX  V0202201N00561075001EN0240001N1+00331-00331101161ADDGD14991+0750099GF108991999999999999999999MA1101121999999MW1001
0108724635230671973011615004+38050-103517SAO  +1292LHX  V0202301N00461045001EN1600001N1+00381-00331101181ADDGD13991+0450099GD24991+0750099GF108991999999999999999999MA1101151999999MD1310031+9999MW1001REMAWY005/ 303
0080724635230671973011616004+38050-103517SAO  +1292LHX  V0203101N00511045001EN1600001N1+00051-00271101321ADDGD13991+0450099GD24991+0750099GF108991999999999999999999MA1101251999999MW1001
0080724635230671973011617004+38050-103517SAO  +1292LHX  V0209991C00001045001EN1600001N1+00661-00161101231ADDGD13991+0450099GD24991+0750099GF108991999999999999999999MA1101251999999MW1001
0131724635230671973011618004+38050-103517SAO  +1292LHX  V0202601N00771054001EN1600001N1+00721-00161101281ADDGD13991+0540099GD24991+0750099GF108991999999999999999999KA1999N-00121MA1101191999999MD1010031+9999MW1001REMAWY015BINOVC / 003 30
0069724635230671973011619004+38050-103517SAO  +1292LHX  V0202501N006112200019N1600001N1+00881+00051100971ADDGD13991+0750093GF107991999999999999999999MW1001EQDQ01+030943APOA  
0065724635230671973011620004+38050-103517SAO  +1292LHX  V0202501N005112200019N1600001N1+01001+00111100821ADDGD12991+0750093GF102991999999999999999999MA1100911999999MW1001
0093724635230671973011621004+38050-103517SAO  +1292LHX  V0202501N005112200019N1600001N1+01051+00161100751ADDGD12991+0750093GF102991999999999999999999MA1100851999999MD1710301+9999MW1001REMAWY005/ 730
0065724635230671973011622004+38050-103517SAO  +1292LHX  V0202101N004112200019N1600001N1+01161+00111100601ADDGF100991999999999999999999MA1100751999999MW1001REMAWY006FEW CI
0065724635230671973011623004+38050-103517SAO  +1292LHX  V0202401N004112200019N1600001N1+01161+00051100621ADDGF100991999999999999999999MA1100751999999MW1001REMAWY006FEW CI
0100724635230671973011700004+38050-103517SAO  +1292LHX  V0201301N002012200019N1600001N1+00881+00111100661ADDGF100991999999999999999999KA1999M+01271MA1100751999999MD1610101+9999MW1001REMAWY014FEW CI/   0 55
0050724635230671973011701004+38050-103517SAO  +1292LHX  V0201301N002512200019N0240001N1+00661+00001100681ADDGF100991999999999999999999MA1100751999999MW1001
0050724635230671973011702004+38050-103517SAO  +1292LHX  V0202301N006112200019N0240001N1+00381-00161100681ADDGF100991999999999999999999MA1100751999999MW1001
0078724635230671973011703004+38050-103517SAO  +1292LHX  V0202601N006112200019N0240001N1+00221-00271100721ADDGF100991999999999999999999MA1100751999999MD1410001+9999MW1001REMAWY005/ 400
0050724635230671973011704004+38050-103517SAO  +1292LHX  V0202501N007712200019N0240001N1+00221-00271100761ADDGF100991999999999999999999MA1100711999999MW1001
0050724635230671973011705004+38050-103517SAO  +1292LHX  V0202501N005112200019N0240001N1+00051-00221100671ADDGF100991999999999999999999MA1100711999999MW1001
0094724635230671973011706004+38050-103517SAO  +1292LHX  V0202301N004612200019N0240001N1+00161-00271100621ADDGF100991999999999999999999KA1999M+01271MA1100681999999MD1710051+9999MW1001REMAWY008/ 705 55
0050724635230671973011707004+38050-103517SAO  +1292LHX  V0202501N006112200019N0240001N1+00221-00331100521ADDGF100991999999999999999999MA1100611999999MW1001
0050724635230671973011708004+38050-103517SAO  +1292LHX  V0202201N003012200019N0240001N1+00051-00331100521ADDGF100991999999999999999999MA1100611999999MW1001
0084724635230671973011709004+38050-103517SAO  +1292LHX  V0202301N007712200019N0240001N1+00501-00441100291ADDGF100991999999999999999999MA1100471999999MD1710191+9999MW1001REMAWY011FEW CI/ 719
0065724635230671973011710004+38050-103517SAO  +1292LHX  V0202401N006112200019N0240001N1+00331-00381100261ADDGD12991+0750093GF102991999999999999999999MA1100441999999MW1001
0065724635230671973011711004+38050-103517SAO  +1292LHX  V0202801N004112200019N0240001N1+00161-00441100271ADDGD12991+0750093GF102991999999999999999999MA1100411999999MW1001
0109724635230671973011712004+38050-103517SAO  +1292LHX  V0202201N005112200019N0240001N1+00381-00381100191ADDGD13991+0750093GF107991999999999999999999KA1999N+00001MA1100341999999MD1710221+9999MW1001REMAWY008/ 722 32
0097724635230671973011713004+38050-103517SAO  +1292LHX  V0201801N004112200019N0240001N1+00161-00381100251ADDGD12991+0360099GD23991+0750093GF107991999999999999999999MA1100311999999MW1001REMAWY008?LHX?1/5
0088724635230671973011714004+38050-103517SAO  +1292LHX  V0202401N00611030001EN0240001N1+00381-00331100191ADDGD14991+0300099GF108991999999999999999999MA1100241999999MW1001REMAWY014BINOVC?LHX?1/5
0102724635230671973011715004+38050-103517SAO  +1292LHX  V0202301N009212200019N0240001N1+00501-00331100141ADDGD12991+0300099GD23991+0750093GF107991999999999999999999MA1100201999999MW1001REMAWY013/ 712?LHX?1/5
0112724635230671973011716004+38050-103517SAO  +1292LHX  V0202301N006610360019N1600001N1+00611-00161100171ADDGD12991+0240099GD23991+0360099GD34991+0750099GF108991999999999999999999MA1100241999999MW1001REMAWY008?LHX?1/5
0124724635230671973011717004+38050-103517SAO  +1292LHX  V0202401N007710360019N1600001N1+00771-00051100171ADDGD12991+0240099GD23991+0360099GD34991+0750099GF108991999999999999999999MA1100241999999MW1001REMAWY020VIRGA DSNT W?LHX?1/5
0161724635230671973011718004+38050-103517SAO  +1292LHX  V0202401N008210600019N0560001N1+01001+00051100051ADDGD12991+0240099GD22991+0360099GD33991+0600099GD44991+0900099GF108991999999999999999999MA1100171999999MD1810021+9999MW1001REMAWY028VIRGA DSNT W/ 802 32?LHX?1/5
0125724635230671973011719004+38050-103517SAO  +1292LHX  V0202401N007210360019N0560001N1+00831+00001099981ADDGD12991+0210099GD23991+0360099GD34991+0600099GF108991999999999999999999MA1100101999999MW1001REMAWY021VIRGA DSNT W?LHX C1/5
0112724635230671973011720004+38050-103517SAO  +1292LHX  V0202501N006610360019N0560001N1+00831+00111099991ADDGD12991+0210099GD23991+0360099GD34991+0480099GF108991999999999999999999MA1100071999999MW1001REMAWY008VIRGA NW
0133724635230671973011721004+38050-103517SAO  +1292LHX  V0202401N007210300019N0560001N1+00881+00161099881ADDGD12991+0180099GD23991+0300099GD34991+0750099GF108991999999999999999999MA1100031999999MD1710121+9999MW1001REMAWY015VIRGA NW-N/ 712
0095724635230671973011722004+38050-103517SAO  +1292LHX  V0202501N004610330019N0560001N1+00721+00111099951ADDGD12991+0210099GD23991+0330099GD34991+0750099GF108991999999999999999999MA1100071999999MW1001
0107724635230671973011723004+38050-103517SAO  +1292LHX  V0202501N005110360019N0560001N1+00721+00161100031ADDGD12991+0180099GD24991+0360099GF108991999999999999999999MA1100101999999MW1001REMAWY018BINOVC VIRGA SW NW
0154724635230671973011800004+38050-103517SAO  +1292LHX  V0202901N003610360019N0560001N1+00551+00051100101ADDGD12991+0180099GD23991+0360099GD34991+0750099GF108991999999999999999999KA1999M+01051MA1100201999999MD1210141+9999MW1001REMAWY023THN SPOTS INOVC/ 214 51
0099724635230671973011801004+38050-103517SAO  +1292LHX  V0203501N00301024001MN0240001N1+00501-00051100301ADDGD13991+0240099GD24991+0420099GF108991999999999999999999MA1100311999999MW1001REMAWY010WSHFT GRDL
0099724635230671973011802004+38050-103517SAO  +1292LHX  V0203301N00201024001EN0240001N1+00551-00161100271ADDGD13991+0240099GD24991+0420099GF108991999999999999999999MA1100371999999MW1001REMAWY010SML BINOVC
0108724635230671973011803004+38050-103517SAO  +1292LHX  V0203601N00461024001MN0240001N1+00381-00221100391ADDGD13991+0240099GD24991+0420099GF108991999999999999999999MA1100441999999MD1210221+9999MW1001REMAWY005/ 222
0099724635230671973011804004+38050-103517SAO  +1292LHX  V0203001N00361027001EN0240001N1+00271-00111100541ADDGD13991+0270099GD24991+0480099GF108991999999999999999999MA1100581999999MW1001REMAWY010SML BINOVC
0084724635230671973011805004+38050-103517SAO  +1292LHX  V0202701N00411027001EN0240001N1+00331-00051100601ADDGD14991+0270099GF108991999999999999999999MA1100681999999MW1001REMAWY010SML BINOVC
0161724635230671973011806004+38050-103517SAO  +1292LHX  V0203101N00511021001EN0240001N1+00381+00051100651ADDAA106999999GD14991+0210099GF108991999999999999999999KA1999M+01051MA1100781999999MD1210291+9999MW1601REMAWY014RB25/ 22900 51EQDQ01  00003PRCP99Q02  00002PRCP06
0065724635230671973011807004+38050-103517SAO  +1292LHX  V0203501N00411024001EN0240001N1+00381+00051100701ADDGD14991+0240099GF108991999999999999999999MA1100811999999MW1601
0087724635230671973011808004+38050-103517SAO  +1292LHX  V0202901N00461024001EN0240001N1+00331+00001100781ADDGD14991+0240099GF108991999999999999999999MA1100881999999MW1001REMAWY013RE03 BINOVC W
0093724635230671973011809004+38050-103517SAO  +1292LHX  V0202901N00461024001EN0240001N1+00271-00051100921ADDGD13991+0240099GF107991999999999999999999MA1101021999999MD1210221+9999MW1001REMAWY005/ 222
0065724635230671973011810004+38050-103517SAO  +1292LHX  V0202801N004612200019N0240001N1+00221-00051101021ADDGF100991999999999999999999MA1101081999999MW1001REMAWY006FEW AC
0065724635230671973011811004+38050-103517SAO  +1292LHX  V0202501N003012200019N0240001N1+00111-00111101161ADDGD12991+0180099GF102991999999999999999999MA1101191999999MW1001
0119724635230671973011812004+38050-103517SAO  +1292LHX  V0202901N003612200019N0240001N1+00051-00111101221ADDAA106000091GF100991999999999999999999MA1101221999999MD1210171+9999MW1001REMAWY016FEW AC/ 21700 33EQDQ01  00003PRCP99
0065724635230671973011813004+38050-103517SAO  +1292LHX  V0202501N004612200019N0240001N1+00001-00161101371ADDGD12991+0420099GF102991999999999999999999MA1101351999999MW1001
0091724635230671973011814004+38050-103517SAO  +1292LHX  V0202401N004112200019N0240001N1-00051-00161101481ADDGD12991+0420099GF102991999999999999999999MA1101461999999MW1001REMAWY017SC N-E VIRGA NE E
0080724635230671973011815004+38050-103517SAO  +1292LHX  V0202201N003612200019N0240001N1+00111-00111101581ADDGD12991+0360099GF102991999999999999999999MA1101561999999MW1001REMAWY006SC N-E
0118724635230671973011816004+38050-103517SAO  +1292LHX  V0202101N002512200019N0240001N1+00381+00001101641ADDGD12991+0360099GF102991999999999999999999MA1101631999999MD1210301+9999MW1001REMAWY030FEW SC NE-E/ 1500 ADD DATA 230
0068724635230671973011817004+38050-103517SAO  +1292LHX  V0202101N004112200019N0240001N1+00501+00001101651ADDGF100991999999999999999999MA1101631999999MW1001REMAWY009FEW CU NE
0094724635230671973011818004+38050-103517SAO  +1292LHX  V0201501N002512200019N0400001N1+00661+00001101581ADDGF100991999999999999999999KA1999N-00061MA1101661999999MD1110081+9999MW1001REMAWY008/ 108 31
0050724635230671973011819004+38050-103517SAO  +1292LHX  V0202601N002512200019N0560001N1+00771-00331101431ADDGF100991999999999999999999MA1101521999999MW1001
0070724635230671973011820004+38050-103517SAO  +1292LHX  V0202601N003012200019N0560001N1+00881-00161101391ADDGF100991999999999999999999MA1101491999999MW1001REMAWY011FEW CU N-NE
0078724635230671973011821004+38050-103517SAO  +1292LHX  V0202901N002012200019N0560001N1+00881-00221101381ADDGF100991999999999999999999MA1101461999999MD1710171+9999MW1001REMAWY005/ 717
0072724635230671973011822004+38050-103517SAO  +1292LHX  V0200701N003612200019N0560001N1+00941-00161101371ADDGF100991999999999999999999MA1101461999999MW1001REMAWY013FEW CI S-W-NW
0065724635230671973011823004+38050-103517SAO  +1292LHX  V0200601N003012200019N0560001N1+00941-00111101401ADDGD12991+0660099GF102991999999999999999999MA1101491999999MW1001
0109724635230671973011900004+38050-103517SAO  +1292LHX  V0200901N003012200019N0560001N1+00551+00001101471ADDGD12991+0600099GF102991999999999999999999KA1999M+00941MA1101461999999MD1410001+9999MW1001REMAWY008/ 400 49
0065724635230671973011901004+38050-103517SAO  +1292LHX  V0201301N002512200019N0240001N1+00271-00111101561ADDGD12991+0600099GF102991999999999999999999MA1101491999999MW1001
0050724635230671973011902004+38050-103517SAO  +1292LHX  V0201701N002012200019N0240001N1+00221-00161101551ADDGF100991999999999999999999MA1101461999999MW1001
0093724635230671973011903004+38050-103517SAO  +1292LHX  V0202501N005612200019N0240001N1+00271-00331101501ADDGD12991+0600099GF102991999999999999999999MA1101461999999MD1010001+9999MW1001REMAWY005/ 000
0065724635230671973011904004+38050-103517SAO  +1292LHX  V0202101N004612200019N0240001N1+00051-00381101461ADDGD12991+0600099GF102991999999999999999999MA1101421999999MW1001
0065724635230671973011905004+38050-103517SAO  +1292LHX  V0202101N005612200019N0240001N1+00271-00501101411ADDGD12991+0600099GF102991999999999999999999MA1101421999999MW1001
0094724635230671973011906004+38050-103517SAO  +1292LHX  V0202001N005112200019N0240001N1+00161-00501101251ADDGF100991999999999999999999KA1999M+00941MA1101291999999MD1710151+9999MW1001REMAWY008/ 715 49
0050724635230671973011907004+38050-103517SAO  +1292LHX  V0202201N003012200019N0240001N1-00051-00441101211ADDGF100991999999999999999999MA1101221999999MW1001
0065724635230671973011908004+38050-103517SAO  +1292LHX  V0201801N004112200019N0240001N1+00051-00501101051ADDGD12991+0900093GF102991999999999999999999MA1101121999999MW1001
0093724635230671973011909004+38050-103517SAO  +1292LHX  V0202501N002512200019N0240001N1+00001-00501101001ADDGD13991+0900093GF107991999999999999999999MA1101051999999MD1710221+9999MW1001REMAWY005/ 722
0065724635230671973011910004+38050-103517SAO  +1292LHX  V0202101N002512200019N0240001N1-00111-00441101001ADDGD13991+0900093GF107991999999999999999999MA1101051999999MW1001
0098724635230671973011911004+38050-103517SAO  +1292LHX  V0202501N002512200019N0240001N1-00221-00441100901ADDGD12991+0900099GF102991999999999999999999MA1100911999999MW1001REMAWY024AC W?LHX 1/6 HGO DME OTS
0095724635230671973011912004+38050-103517SAO  +1292LHX  V0202001N003012200019N0240001N1-00111-00441100901ADDGF100991999999999999999999MA1100851999999MD1810171+9999MW1001REMAWY022FEW AC/ 817 28?LHX?1/6
0076724635230671973011913004+38050-103517SAO  +1292LHX  V0201101N002512200019N0240001N1-00051-00441100821ADDGF100991999999999999999999MA1100811999999MW1001REMAWY017FEW AC CI?LHX?1/6
0081724635230671973011914004+38050-103517SAO  +1292LHX  V0202601N005612200019N0240001N1+00331-00441100781ADDGD12991+0900093GF102991999999999999999999MA1100781999999MW1001REMAWY007AC NE S
0093724635230671973011915004+38050-103517SAO  +1292LHX  V0202401N004112200019N1600001N1+00221-00331100771ADDGD12991+0900099GF102991999999999999999999MA1100781999999MD1610071+9999MW1001REMAWY005/ 607
0065724635230671973011916004+38050-103517SAO  +1292LHX  V0202001N006612200019N0560001N1+00611-00381100721ADDGD12991+0900099GF102991999999999999999999MA1100751999999MW1001
0065724635230671973011917004+38050-103517SAO  +1292LHX  V0202001N005612200019N0560001N1+00721-00331100591ADDGD12991+0900099GF102991999999999999999999MA1100681999999MW1001
0109724635230671973011918004+38050-103517SAO  +1292LHX  V0202001N003612200019N0560001N1+01001-00271100421ADDGD12991+0900099GF102991999999999999999999KA1999N-00231MA1100541999999MD1710201+9999MW1001REMAWY008/ 720 28
0065724635230671973011919004+38050-103517SAO  +1292LHX  V0201701N003012200019N0560001N1+01271-00271100231ADDGD12991+0900099GF102991999999999999999999MA1100341999999MW1001
0095724635230671973011920004+38050-103517SAO  +1292LHX  V0200301N003610900019N0400001N1+01271+00161099961ADDGD12991+0570099GD23991+0900099GF107991999999999999999999MA1100101999999MW1001REMAWY006PRESFR
0108724635230671973011921004+38050-103517SAO  +1292LHX  V0200301N00361057001EN0560001N1+00941+00271099901ADDGD13991+0570099GD23991+0900099GF107991999999999999999999MA1100001999999MD1710471+9999MW1001REMAWY005/ 747
0116724635230671973011922004+38050-103517SAO  +1292LHX  V0200201N003610510019N0560001N1+00771+00271099941ADDGD12991+0240099GD23991+0510099GD33991+0840099GF107991999999999999999999MA1099971999999MW1001REMAWY012VIRGA DSNT W
0130724635230671973011923004+38050-103517SAO  +1292LHX  V0200201N003010510019N0560001N1+00721+00161099901ADDGD12991+0240099GD23991+0510099GD34991+0810099GF108991999999999999999999MA1099931999999MW1001REMAWY026THN SPOTS INOVC SCTD VIRGA
0154724635230671973012000004+38050-103517SAO  +1292LHX  V0209991C000010810019N0560001N1+00381+00001099921ADDGD12991+0180099GD22991+0450099GD33991+0810099GF107991999999999999999999KA1999M+01441MA1099861999999MD1710121+9999MW1001REMAWY023SCTD HIGH VIRGA/ 712 58
0080724635230671973012001004+38050-103517SAO  +1292LHX  V0203601N002510420019N0240001N1+00331-00051099901ADDGD12991+0180099GD23991+0420099GF107991999999999999999999MA1099861999999MW1001
0084724635230671973012002004+38050-103517SAO  +1292LHX  V0202301N002010420019N0240001N1+00331-00051099841ADDGD12991+0180099GD23991+0420099GF107991999999999999999999MW1001EQDQ01+029793APOA  
0108724635230671973012003004+38050-103517SAO  +1292LHX  V0202701N005610420019N0240001N1+00271-00051099871ADDGD12991+0180099GD23991+0420099GF107991999999999999999999MA1099901999999MD1310021+9999MW1001REMAWY005/ 302
0080724635230671973012004004+38050-103517SAO  +1292LHX  V0201901N004610450019N0240001N1+00331-00111099751ADDGD12991+0180099GD24991+0450099GF108991999999999999999999MA1099831999999MW1001
0113724635230671973012005004+38050-103517SAO  +1292LHX  V0202101N007210390019N0240001N1+00381-00161099811ADDGD12991+0150099GD23991+0390099GF107991999999999999999999MA1099931999999MW1001REMAWY024VIRGA NE-SE CLRG FM WEST
0139724635230671973012006004+38050-103517SAO  +1292LHX  V0202301N005612200019N0240001N1+00331-00271099811ADDGD12991+0090099GD22991+0240099GD33991+0450093GF107991999999999999999999KA1999M+01441MA1099971999999MD1310071+9999MW1001REMAWY008/ 307 58
0080724635230671973012007004+38050-103517SAO  +1292LHX  V0202401N005612200019N0240001N1+00221-00271099791ADDGD12991+0180099GD22991+0450099GF102991999999999999999999MA1099971999999MW1001
0070724635230671973012008004+38050-103517SAO  +1292LHX  V0202301N005612200019N0240001N1+00271-00441099781ADDGF100991999999999999999999MA1099971999999MW1001REMAWY011FEW CU AC N
0079724635230671973012009004+38050-103517SAO  +1292LHX  V0202801N005112200019N0240001N1+00111-00441099901ADDGF100991999999999999999999MA1100001999999MW1001REMAWY020WSHFT GRDL FEW CU S/
0069724635230671973012010004+38050-103517SAO  +1292LHX  V0202901N004112200019N0240001N1+00051-00331099951ADDGF100991999999999999999999MA1100001999999MW1001REMAWY010AC NE-SE-S
0067724635230671973012011004+38050-103517SAO  +1292LHX  V0203101N005112200019N0240001N1+00051-00271099971ADDGF100991999999999999999999MA1100031999999MW1001REMAWY008AC NE-SE
0109724635230671973012012004+38050-103517SAO  +1292LHX  V0203001N003612200019N0240001N1+00001-00271100131ADDGD12991+0060099GF102991999999999999999999KA1999N+00001MA1100141999999MD1210101+9999MW1001REMAWY008/ 210 32
0065724635230671973012013004+38050-103517SAO  +1292LHX  V0202901N00411006601MN0240001N1-00051-00271100221ADDGD13991+0066099GF107991999999999999999999MA1100201999999MW1001
0065724635230671973012014004+38050-103517SAO  +1292LHX  V0203601N00511005401EN0240001N1+00051-00161100241ADDGD14991+0054099GF108991999999999999999999MA1100241999999MW1001
0100724635230671973012015004+38050-103517SAO  +1292LHX  V0200201N00411003601EN0240001N1+00051-00161100361ADDGD14991+0036099GF108991999999999999999999MA1100341999999MD1210191+9999MW1001REMAWY012CIG RGD/ 219
0080724635230671973012016004+38050-103517SAO  +1292LHX  V0200201N00251003001EN0240001N1+00001-00221100481ADDGD13991+0030099GD24991+0045099GF108991999999999999999999MA1100441999999MW1001
0078724635230671973012017004+38050-103517SAO  +1292LHX  V0200101N00411003301BN0192001N1+00001-00221100411ADDGD14991+0033099GF108991999999999999999999MA1100411999999MW1711REMAWY004SB15
0147724635230671973012018004+38050-103517SAO  +1292LHX  V0203301N00361003001EN0048001N1+00001-00161100451ADDAA106000291GD14991+0030099GF108991999999999999999999KA1999N-00121MA1100411999999MD1110071+9999MW1451MW2711REMAWY010/ 10701 30EQDQ01  00023PRCP99
0071724635230671973012019004+38050-103517SAO  +1292LHX  V0202401N00461003001EN0032001N1-00051-00161100401ADDGD14991+0030099GF108991999999999999999999MA1100341999999MW1451MW2711
0086724635230671973012020004+38050-103517SAO  +1292LHX  V0203201N005110030019N0064001N1-00051-00161100421ADDGD12991+0006099GD24991+0030099GF108991999999999999999999MA1100371999999MW1451MW2711
0121724635230671973012021004+38050-103517SAO  +1292LHX  V0203201N006110030019N0048001N1-00051-00161100441ADDGD12991+0015099GD24991+0030099GF108991999999999999999999MA1100371999999MD1610031+9999MW1451MW2711REMAWY012VSBY E2/ 603
0087724635230671973012022004+38050-103517SAO  +1292LHX  V0203301N00611002401EN0064001N1-00111-00221100551ADDGD14991+0024099GF108991999999999999999999MA1100441999999MW1451MW2711REMAWY007VSBY E2
0086724635230671973012023004+38050-103517SAO  +1292LHX  V0203301N004110036019N0064001N1-00161-00331100651ADDGD12991+0021099GD24991+0036099GF108991999999999999999999MA1100541999999MW1451MW2711
0147724635230671973012100004+38050-103517SAO  +1292LHX  V0203301N00301000601WN0016001N1-00271-00331100751ADDAA106001091GD15991+0006099GF109991999999999999999999KA1999M+00331MA1100611999999MD1210221+9999MW1451MW2711REMAWY010/ 22203 38EQDQ01  00103PRCP99
0071724635230671973012101004+38050-103517SAO  +1292LHX  V0203101N00361001501WN0048001N1-00271-00381100791ADDGD15991+0015099GF109991999999999999999999MA1100641999999MW1451MW2701
0071724635230671973012102004+38050-103517SAO  +1292LHX  V0203101N00511014401MN0080001N1-00271-00381100771ADDGD14991+0144099GF108991999999999999999999MA1100641999999MW1451MW2701
0093724635230671973012103004+38050-103517SAO  +1292LHX  V0203001N00611013501MN0080001N1-00271-00381100741ADDGD14991+0135099GF108991999999999999999999MA1100611999999MD1010001+9999MW1701REMAWY005/ 000
0103724635230671973012104004+38050-103517SAO  +1292LHX  V0203001N00411012001MN0080001N1-00381-00441100721ADDGD14991+0120099GF108991999999999999999999MA1100581999999MW1701REMAWY029THN SPOTS INOVC FEW STARS VSB
0065724635230671973012105004+38050-103517SAO  +1292LHX  V0202801N00301012001MN0080001N1-00381-00441100731ADDGD14991+0120099GF108991999999999999999999MA1100581999999MW1701
0149724635230671973012106004+38050-103517SAO  +1292LHX  V0203001N00611015001EN0080001N1-00381-00441100621ADDAA106000291GD14991+0150099GF108991999999999999999999KA1999M+00331MA1100471999999MD1710141+9999MW1701REMAWY018MOON VSB/ 71401 38EQDQ01  00023PRCP99
0065724635230671973012107004+38050-103517SAO  +1292LHX  V0209991C00001011701MN0160001N1-00501-00551100691ADDGD14991+0117099GF108991999999999999999999MA1100511999999MW1701
0080724635230671973012108004+38050-103517SAO  +1292LHX  V0203301N002010120019N0192001N1-00381-00501100651ADDGD12991+0078099GD24991+0120099GF108991999999999999999999MA1100471999999MW1701
0112724635230671973012109004+38050-103517SAO  +1292LHX  V0203201N00611001501WN0032001N1-00331-00441100531ADDGD15991+0015099GF109991999999999999999999MA1100371999999MD1810081+9999MW1451MW2711REMAWY018MOON DMLY VSB/ 808
0065724635230671973012110004+38050-103517SAO  +1292LHX  V0203001N00301011101MN0112001N1-00331-00441100601ADDGD14991+0111099GF108991999999999999999999MA1100441999999MW1701
0065724635230671973012111004+38050-103517SAO  +1292LHX  V0203001N00411009601MN0048001N1-00271-00441100571ADDGD14991+0096099GF108991999999999999999999MA1100411999999MW1711
0164724635230671973012112004+38050-103517SAO  +1292LHX  V0203001N00461001501WN0016001N1-00331-00441100561ADDAA106000591AA224002091GD15991+0015099GF109991999999999999999999KA1999N-00501MA1100371999999MD1010001+9999MW1711REMAWY022/ 00002 90402 23 20007EQDQ01  00053PRCP99
0065724635230671973012112174+38050-103517SAOSP+1292LHX  V0203201N00661000901WN0006001N1+99999+99999999999ADDGD15991+0009099GF109991999999999999999999MA1100311999999MW1731
0083724635230671973012113004+38050-103517SAO  +1292LHX  V0203001N00821005401MN0128001N1-00271-00501100461ADDGD14991+0054099GF108991999999999999999999MA1100271999999MW1701REMAWY009DRFTG SNW
0103724635230671973012114004+38050-103517SAO  +1292LHX  V0203001N006110120019N0240001N1-00271-00501100471ADDGD12991+0054099GD24991+0120099GF108991999999999999999999MA1100271999999MW1001REMAWY014SE10 BINOVC NE
0118724635230671973012115004+38050-103517SAO  +1292LHX  V0203101N00611013501EN0240001N1-00271-00551100471ADDGD14991+0135099GF108991999999999999999999MA1100271999999MD1610081+9999MW1001REMAWY030BINOVC NW-NE HIR CLDS VSB/ 608
0103724635230671973012116004+38050-103517SAO  +1292LHX  V0203301N006610300019N0240001N1-00221-00551100511ADDGD12991+0135099GD24991+0300099GF108991999999999999999999MA1100311999999MW1001REMAWY014BINOVC DSNT NW
0080724635230671973012117004+38050-103517SAO  +1292LHX  V0203201N00561013501EN0240001N1-00221-00551100571ADDGD13991+0135099GD24991+0300099GF108991999999999999999999MA1100371999999MW1001
0203724635230671973012118004+38050-103517SAO  +1292LHX  V0203101N005610300019N0240001N1-00161-00501100501ADDAA106000291GD12991+0135099GD24991+0300099GF108991999999999999999999KA1999N-00341MA1100311999999MD1010031+9999MW1001REMAWY057CU E-SE THN SOPTS INOVC NW         ?     / 00301 90402 26EQDQ01  00023PRCP99
0122724635230671973012119004+38050-103517SAO  +1292LHX  V0203001N005110300019N0240001N1+00001-00381100361ADDGD12991+0150099GD23991+0300099GD34991+0600099GF108991999999999999999999MA1100201999999MW1001REMAWY018THN SPOTS INOVC NW
0095724635230671973012120004+38050-103517SAO  +1292LHX  V0203301N007210240019N0240001N1+00051-00331100301ADDGD12991+0120099GD24991+0240099GF108991999999999999999999MA1100171999999MW1001REMAWY006BINOVC
0087724635230671973012121004+38050-103517SAO  +1292LHX  V0203301N006112200019N0240001N1+00111-00331100201ADDGF100991999999999999999999MA1100071999999MD1710201+9999MW1001REMAWY014FEW AC CI/ 720
0065724635230671973012122004+38050-103517SAO  +1292LHX  V0203201N008712200019N0240001N1+00111-00381100241ADDGF100991999999999999999999MA1100101999999MW1001REMAWY006FEW AC
0064724635230671973012123004+38050-103517SAO  +1292LHX  V0203301N006612200019N0240001N1+00001-00611100261ADDGF100991999999999999999999MA1100141999999MW1001REMAWY005AC SW
0101724635230671973012200004+38050-103517SAO  +1292LHX  V0203401N007212200019N0240001N1-00111-00721100341ADDGF100991999999999999999999KA1999M+00111MA1100201999999MD1210101+9999MW1001REMAWY015AC S-SW/ 210 34
0065724635230671973012201004+38050-103517SAO  +1292LHX  V0203201N006112200019N0240001N1-00271-00771100501ADDGD12991+0420099GF102991999999999999999999MA1100311999999MW1001
0065724635230671973012202004+38050-103517SAO  +1292LHX  V0203301N00821042001EN0240001N1-00161-00721100561ADDGD13991+0420099GF107991999999999999999999MA1100411999999MW1001
0093724635230671973012203004+38050-103517SAO  +1292LHX  V0203301N00771036001EN0240001N1-00221-00721100611ADDGD13991+0360099GF107991999999999999999999MA1100441999999MD1210221+9999MW1001REMAWY005/ 222
0065724635230671973012204004+38050-103517SAO  +1292LHX  V0203301N00921036001EN0240001N1-00161-00721100691ADDGD13991+0360099GF107991999999999999999999MA1100541999999MW1001
0087724635230671973012205004+38050-103517SAO  +1292LHX  V0203401N00921042001EN0240001N1-00161-00721100791ADDGD14991+0420099GF108991999999999999999999MA1100641999999MW1001REMAWY013FEW STARS VSB
0122724635230671973012206004+38050-103517SAO  +1292LHX  V0203401N01021042001EN0240001N1-00161-00721100861ADDGD14991+0420099GF108991999999999999999999KA1999M+00111MA1100711999999MD1210241+9999MW1001REMAWY021MOON OCNL VSB/ 224 34
0104724635230671973012207004+38050-103517SAO  +1292LHX  V0203301N01021048001EN0240001N1-00221-00611100881ADDGD14991+0480099GF108991999999999999999999MA1100751999999MW1001REMAWY030BINOVC MOON VSB OCNL DRFTG SNW
0065724635230671973012208004+38050-103517SAO  +1292LHX  V0203201N00771045001EN0240001N1-00271-00611999999ADDGD14991+0450099GF108991999999999999999999MA1100881999999MW1001
0093724635230671973012209004+38050-103517SAO  +1292LHX  V0203101N00661045001EN0240001N1-00271-00661101081ADDGD13991+0450099GF107991999999999999999999MA1100951999999MD1210221+9999MW1001REMAWY005/ 222
0084724635230671973012210004+38050-103517SAO  +1292LHX  V0203001N006112200019N0240001N1-00381-00661999999ADDGD12991+0450099GF102991999999999999999999MA1100981999999MW1001EQDQ01+100153APOSLP
0065724635230671973012211004+38050-103517SAO  +1292LHX  V0203001N00661024001EN0240001N1-00331-00661101171ADDGD14991+0240099GF108991999999999999999999MA1100981999999MW1001
0132724635230671973012212004+38050-103517SAO  +1292LHX  V0203001N00771024001EN0240001N1-00221-00611101211ADDAJ100039199999999GD14991+0240099GF108991999999999999999999KA1999N-00391MA1101051999999MD1210071+9999MW1001REMAWY014/ 207 90401 25
0065724635230671973012213004+38050-103517SAO  +1292LHX  V0203101N009212200019N0240001N1-00271-00721101331ADDGD12991+0240099GF102991999999999999999999MA1101121999999MW1001
0095724635230671973012214004+38050-103517SAO  +1292LHX  V0203201N010210750019N0240001N1-00331-00831101411ADDGD12991+0240099GD22991+0510099GD33991+0750099GF107991999999999999999999MA1101221999999MW1001
0093724635230671973012215004+38050-103517SAO  +1292LHX  V0203201N01021021001EN0240001N1-00271-00831101501ADDGD14991+0210099GF108991999999999999999999MA1101321999999MD1210241+9999MW1001REMAWY005/ 224
0065724635230671973012216004+38050-103517SAO  +1292LHX  V0203201N01021015001EN0240001N1-00161-00721101681ADDGD14991+0150099GF108991999999999999999999MA1101491999999MW1001
0094724635230671973012217004+38050-103517SAO  +1292LHX  V0203301N00921015001EN0240001N1+00001-00661101761ADDGD14991+0150099GF108991999999999999999999MA1101631999999MW1001OC101281REMAWY012/ UA 100?110
0147724635230671973012218004+38050-103517SAO  +1292LHX  V0203201N009210450019N0240001N1+00001-00611101841ADDGD12991+0180099GD23991+0450099GD34991+0750099GF108991999999999999999999KA1999N-00391MA1101691999999MD1210341+9999MW1001OC101441REMAWY008/ 234 25
0102724635230671973012219004+38050-103517SAO  +1292LHX  V0203201N01081018001EN0240001N1+00001-00721101861ADDGD13991+0180099GD24991+0450099GF108991999999999999999999MA1101691999999MW1001OC101541REMAWY005SW SE
0103724635230671973012220004+38050-103517SAO  +1292LHX  V0203401N010210450019N0240001N1-00051-00771101931ADDGD12991+0180099GD23991+0450099GD34991+0750099GF108991999999999999999999MA1101761999999MW1001OC101441
0131724635230671973012221004+38050-103517SAO  +1292LHX  V0203401N00921018001EN0240001N1+00001-01001101911ADDGD13991+0180099GD23991+0450099GD34991+0750099GF108991999999999999999999MA1101761999999MD1110051+9999MW1001OC101331REMAWY005/ 105
0088724635230671973012222004+38050-103517SAO  +1292LHX  V0203301N007710450019N0240001N1-00051-01161102091ADDGD12991+0240099GD24991+0450099GF108991999999999999999999MW1001OC101131REMAWY006BINOVC
0080724635230671973012223004+38050-103517SAO  +1292LHX  V0203301N009210750019N0240001N1-00051-01221102151ADDGD12991+0450099GD23991+0750099GF107991999999999999999999MA1101961999999MW1001
0195724635230671973012300004+38050-103517SAO  +1292LHX  V0203101N007710420019N0560001N1-00161-01161102271ADDGD12991+0240099GD23991+0420099GD33991+0750099GF107991999999999999999999KA1999M+00051MA1102071999999MD1210291+9999MW1001REMAWY064/ 229 33         ?     LIT RPVQWZ QWTXRYXEWXWYQPXOOPXRADAT 89025
0080724635230671973012301004+38050-103517SAO  +1292LHX  V0203101N005610750019N0240001N1-00271-01111102411ADDGD12991+0420099GD23991+0750099GF107991999999999999999999MA1102171999999MW1001
0080724635230671973012302004+38050-103517SAO  +1292LHX  V0203001N004112200019N0240001N1-00551-01161102501ADDGD12991+0420099GD23991+0750093GF107991999999999999999999MA1102201999999MW1001
