039472464093058197201010000C+38283-104500SAO  +1428PUB  V0201505N001552200059N1440005N9+00785-01725101445ADDAA101000095GA1041+091444024GA2999+999999999GA3999+999999999GA4999+999999999GD11045+9999993GD20005+9999999GD30005+9999999GD40005+9999999GF104025999999999999999999MA1999999085105MW1001EQDN01 00000JPWTH 1QNNE11 1 00105E11 1 00000E11 1 00000E11 1 00000G11U1 99999H11 1 37300H11 1 00999H11 1 00999H11 1 00999K11 1 00001L11 1 09000M11 1 25130N11 1 00000Q11 1 10144S11 1 00046V11 1 00502X11 1 15003
039472464093058197201010300C+38283-104500SAO  +1428PUB  V0203305N006252200059N0480005N9-00065-01895101785ADDAA101000095GA1061+091444024GA2999+999999999GA3999+999999999GA4999+999999999GD13065+9999993GD20005+9999999GD30005+9999999GD40005+9999999GF106005999999999999999999MA1999999085245MW1001EQDN01 00000JPWTH 1QNNE11 1 00307E11 1 00000E11 1 00000E11 1 00000G11U1 99999H11 1 37300H11 1 00999H11 1 00999H11 1 00999K11 1-00002L11 1 03000M11 1 25170N11 1 00000Q11 1 10178S11 1 00031V11 1 00700X11 1 33012
039472464093058197201010600C+38283-104500SAO  +1428PUB  V0202505N003652200059N0480005N9+00285-01785101325ADDAA101000095GA1081+091444024GA2999+999999999GA3999+999999999GA4999+999999999GD14085+9999993GD20005+9999999GD30005+9999999GD40005+9999999GF108015999999999999999999MA1999999085175MW1001EQDN01 00000JPWTH 1QNNE11 1 00510E11 1 00000E11 1 00000E11 1 00000G11U1 99999H11 1 37300H11 1 00999H11 1 00999H11 1 00999K11 1 00000L11 1 03000M11 1 25150N11 1 00000Q11 1 10132S11 1 00037V11 1 01001X11 1 25007
039472464093058197201010900C+38283-104500SAO  +1428PUB  V0202905N002152200059N0480005N9-00115-01615101245ADDAA101000095GA1021+042674034GA2071+076204024GA3999+999999999GA4999+999999999GD12025+9999999GD23075+9999993GD30005+9999999GD40005+9999999GF107025999999999999999999MA1999999085175MW1001EQDN01 00000JPWTH 1QNNE11 1 00202E11 1 00309E11 1 00000E11 1 00000G11U1 99999H11 1 23140H11 1 37250H11 1 00999H11 1 00999K11 1 00003L11 1 03000M11 1 25150N11 1 00000Q11 1 10124S11 1 00030V11 1 00903X11 1 29004
041072464093058197201011200C+38283-104500SAO  +1428PUB  V0202905N002152200059N0480005N9-00675-01615101635ADDAA101000095GA1999+999999034GA2051+076204024GA3999+999999999GA4999+999999999GD13005+9999993GD20055+9999999GD30005+9999999GD40005+9999999GF105015999999999999999999MA1999999085345MW1001EQDQ01    003SCCGA1N01 00000JPWTH 1QNNE11 1 00300E11 1 00006E11 1 00000E11 1 00000G11U1 99999H11 1 23999H11 1 37250H11 1 00999H11 1 00999K11 1 00003L11 1 03000M11 1 25200N11 1 00000Q11 1 10163S11 1 00020V11 1 00601X11 1 29004
041072464093058197201011500C+38283-104500SAO  +1428PUB  V0200905N003152200059N1440005N9-00675-01615102105ADDAA101000095GA1091+999999104GA2999+999999034GA3041+076204024GA4999+999999999GD11005+9999993GD20005+9999999GD30045+9999999GD40005+9999999GF104015999999999999999999MA1999999085615MW1001EQDQ01    003SCCGA2N01 00000JPWTH 1QNNE11 1 00100E11 1 00000E11 1 00005E11 1 00000G11U1 99999H11 1 98999H11 1 23999H11 1 37250H11 1 00999K11 1 00003L11 1 09000M11 1 25280N11 1 00000Q11 1 10210S11 1 00020V11 1 00501X11 1 09006
042672464093058197201011800C+38283-104500SAO  +1428PUB  V0201005N004152200059N1440005N9+00335-01065101915ADDAA101000095GA1999+999999064GA2999+999999004GA3999+999999999GA4999+999999999GD10005+9999999GD20005+9999999GD30005+9999999GD40005+9999999GF100005999999999999999999MA1999999085685MW1001EQDQ01    003SCCGA1Q02    003SCCGA2N01 00000JPWTH 1QNNE11 1 00000E11 1 00000E11 1 00000E11 1 00000G11U1 99999H11 1 15999H11 1 32999H11 1 00999H11 1 00999K11 1 00013L11 1 09000M11 1 25300N11 1 00000Q11 1 10191S11 1 00038V11 1 00000X11 1 10008
042672464093058197201012100C+38283-104500SAO  +1428PUB  V0201505N004652200059N1440005N9+00565-00945101555ADDAA101000095GA1999+999999064GA2999+999999004GA3999+999999999GA4999+999999999GD10005+9999999GD20005+9999999GD30005+9999999GD40005+9999999GF100005999999999999999999MA1999999085345MW1001EQDQ01    003SCCGA1Q02    003SCCGA2N01 00000JPWTH 1QNNE11 1 00000E11 1 00000E11 1 00000E11 1 00000G11U1 99999H11 1 15999H11 1 32999H11 1 00999H11 1 00999K11 1 00015L11 1 09000M11 1 25200N11 1 00000Q11 1 10155S11 1 00042V11 1 00000X11 1 15009
042672464093058197201020000C+38283-104500SAO  +1428PUB  V0201105N004152200059N1440005N9+00175-00945101645ADDAA101000095GA1999+999999064GA2999+999999034GA3999+999999999GA4999+999999999GD10005+9999999GD20005+9999999GD30005+9999999GD40005+9999999GF100005999999999999999999MA1999999085275MW1001EQDQ01    003SCCGA1Q02    003SCCGA2N01 00000JPWTH 1QNNE11 1 00000E11 1 00000E11 1 00000E11 1 00000G11U1 99999H11 1 15999H11 1 23999H11 1 00999H11 1 00999K11 1 00015L11 1 09000M11 1 25180N11 1 00000Q11 1 10164S11 1 00035V11 1 00000X11 1 11008
018272464093058197201020300C+38283-104500SAO  +1428PUB  V0200405N003652200059N0480005N9-00505-01065101755ADDAA101000095GF100005999999999999999999MA1999999085245MW1001EQDN01 00000JPWTH 1QNNG11U1 99999K11 1 00013L11 1 03000M11 1 25170N11 1 00000Q11 1 10175S11 1 00023V11 1 00000X11 1 04007
041072464093058197201020600C+38283-104500SAO  +1428PUB  V02099959000052200059N0480005N9-00675-01175101505ADDAA101000095GA1999+999999024GA2999+999999999GA3999+999999999GA4999+999999999GD10005+9999999GD20005+9999999GD30005+9999999GD40005+9999999GF100005999999999999999999MA1999999085175MW1001EQDQ01    003SCCGA1N01 00000JPWTH 1QNNE11 1 00000E11 1 00000E11 1 00000E11 1 00000G11U1 99999H11 1 37999H11 1 00999H11 1 00999H11 1 00999K11 1 00011L11 1 03000M11 1 25150N11 1 00000Q11 1 10150S11 1 00020V11 1 00000X11 1 00000
039472464093058197201020900C+38283-104500SAO  +1428PUB  V0200305N001552200059N0480005N9-00945-01285101245ADDAA101000095GA1011+045724034GA2999+999999999GA3999+999999999GA4999+999999999GD12015+9999999GD20005+9999999GD30005+9999999GD40005+9999999GF101015999999999999999999MA1999999084935MW1001EQDN01 00000JPWTH 1QNNE11 1 00201E11 1 00000E11 1 00000E11 1 00000G11U1 99999H11 1 23150H11 1 00999H11 1 00999H11 1 00999K11 1 00009L11 1 03000M11 1 25080N11 1 00000Q11 1 10124S11 1 00015V11 1 00101X11 1 03003
042672464093058197201021200C+38283-104500SAO  +1428PUB  V0201205N001552200059N0480005N9-00505-01065100895ADDAA101000095GA1999+999999034GA2999+999999024GA3999+999999999GA4999+999999999GD10005+9999999GD20005+9999999GD30005+9999999GD40005+9999999GF100005999999999999999999MA1999999084665MW1001EQDQ01    003SCCGA1Q02    003SCCGA2N01 00000JPWTH 1QNNE11 1 00000E11 1 00000E11 1 00000E11 1 00000G11U1 99999H11 1 23999H11 1 37999H11 1 00999H11 1 00999K11 1 00013L11 1 03000M11 1 25000N11 1 00000Q11 1 10089S11 1 00023V11 1 00000X11 1 12003
039472464093058197201021500C+38283-104500SAO  +1428PUB  V0202405N008252200059N1440005N9+00005-01005100775ADDAA101000095GA1011+036584034GA2061+076204024GA3999+999999999GA4999+999999999GD12015+9999999GD23065+9999993GD30005+9999999GD40005+9999999GF106025999999999999999999MA1999999084525MW1001EQDN01 00000JPWTH 1QNNE11 1 00201E11 1 00307E11 1 00000E11 1 00000G11U1 99999H11 1 23120H11 1 37250H11 1 00999H11 1 00999K11 1 00014L11 1 09000M11 1 24960N11 1 00000Q11 1 10077S11 1 00032V11 1 00702X11 1 24016
041072464093058197201021800C+38283-104500SAO  +1428PUB  V0202705N007752200059N1440005N9+01115-00945100405ADDAA101000095GA1999+999999034GA2081+082304024GA3999+999999999GA4999+999999999GD14005+9999993GD20085+9999999GD30005+9999999GD40005+9999999GF108015999999999999999999MA1999999084395MW1001EQDQ01    003SCCGA1N01 00000JPWTH 1QNNE11 1 00500E11 1 00010E11 1 00000E11 1 00000G11U1 99999H11 1 23999H11 1 37270H11 1 00999H11 1 00999K11 1 00015L11 1 09000M11 1 24920N11 1 00000Q11 1 10040S11 1 00052V11 1 01001X11 1 27015
044272464093058197201022100C+38283-104500SAO  +1428PUB  V0202905N009352200059N1440005N9+01445-01115099935ADDAA101000095GA1999+999999064GA2999+999999034GA3999+999999024GA4999+999999999GD10005+9999999GD20005+9999999GD30005+9999999GD40005+9999999GF100005999999999999999999MA1999999083985MW1001EQDQ01    003SCCGA1Q02    003SCCGA2Q03    003SCCGA3N01 00000JPWTH 1QNNE11 1 00000E11 1 00000E11 1 00000E11 1 00000G11U1 99999H11 1 15999H11 1 23999H11 1 37999H11 1 00999K11 1 00012L11 1 09000M11 1 24800N11 1 00000Q11 1 09993S11 1 00058V11 1 00000X11 1 29018
041072464093058197201030000C+38283-104500SAO  +1428PUB  V0202805N008852200059N1440005N9+01065-01175099885ADDAA101000095GA1999+999999064GA2999+999999999GA3999+999999999GA4999+999999999GD10005+9999999GD20005+9999999GD30005+9999999GD40005+9999999GF100005999999999999999999MA1999999083955MW1001EQDQ01    003SCCGA1N01 00000JPWTH 1QNNE11 1 00000E11 1 00000E11 1 00000E11 1 00000G11U1 99999H11 1 15999H11 1 00999H11 1 00999H11 1 00999K11 1 00011L11 1 09000M11 1 24790N11 1 00000Q11 1 09988S11 1 00051V11 1 00000X11 1 28017
039472464093058197201030300C+38283-104500SAO  +1428PUB  V0200305N007752200059N0480005N9+00285-01225099965ADDAA101000095GA1011+022864064GA2999+999999999GA3999+999999999GA4999+999999999GD12015+9999999GD20005+9999999GD30005+9999999GD40005+9999999GF101015999999999999999999MA1999999083985MW1001EQDN01 00000JPWTH 1QNNE11 1 00201E11 1 00000E11 1 00000E11 1 00000G11U1 99999H11 1 15075H11 1 00999H11 1 00999H11 1 00999K11 1 00010L11 1 03000M11 1 24800N11 1 00000Q11 1 09996S11 1 00037V11 1 00101X11 1 03015
039472464093058197201030600C+38283-104500SAO  +1428PUB  V0203305N005252200059N0480005N9-00565-01065100335ADDAA101000095GA1021+030484034GA2999+999999999GA3999+999999999GA4999+999999999GD12025+9999999GD20005+9999999GD30005+9999999GD40005+9999999GF102025999999999999999999MA1999999084325MW1001EQDN01 00000JPWTH 1QNNE11 1 00203E11 1 00000E11 1 00000E11 1 00000G11U1 99999H11 1 23100H11 1 00999H11 1 00999H11 1 00999K11 1 00013L11 1 03000M11 1 24900N11 1 00000Q11 1 10033S11 1 00022V11 1 00303X11 1 33010
031972464093058197201030900C+38283-104500SAO  +1428PUB  V0200105N015550012249N0016005N9-00675-00835100935ADDAA101000395GA1091+001224104GD15085+9999999GD20995+9999999GD30995+9999999GD40995+9999999GF108085999999999999999999MA1999999084865MW1385MW2715EQDN01 04084JPWTH 1QNNE11 1 00710E11 1 00099E11 1 00099E11 1 00099G11 1 00004H11 1 98004K11 1 00017L11 1 00100M11 1 25060N11 1 04084Q11 1 10093S11 1 00020V11 1 01010X11 1 01030
031372464093058197201031200C+38283-104500SAO  +1428PUB  V0200105N009850018349N0016005N9-00945-01115101525ADDAA101000095GA1091+001834104GD15085+9999999GD20995+9999999GD30995+9999999GD40995+9999999GF108085999999999999999999MA1999999085275MW1715EQDN01 04000JPWTH 1QNNE11 1 00710E11 1 00099E11 1 00099E11 1 00099G11 1 00006H11 1 98006K11 1 00012L11 1 00100M11 1 25180N11 1 04000Q11 1 10152S11 1 00015V11 1 01010X11 1 01019
031372464093058197201031500C+38283-104500SAO  +1428PUB  V0200105N010350045749N0032005N9-01065-01285102045ADDAA101000395GA1091+004574104GD15085+9999999GD20995+9999999GD30995+9999999GD40995+9999999GF108085999999999999999999MA1999999085545MW1715EQDN01 04000JPWTH 1QNNE11 1 00710E11 1 00099E11 1 00099E11 1 00099G11 1 00015H11 1 98015K11 1 00009L11 1 00200M11 1 25260N11 1 04000Q11 1 10204S11 1 00013V11 1 01010X11 1 01020
031972464093058197201031800C+38283-104500SAO  +1428PUB  V0200305N008250061049N0064005N9-00895-01335102445ADDAA101000095GA1081+006104064GD14085+9999999GD20995+9999999GD30995+9999999GD40995+9999999GF108085999999999999999999MA1999999085745MW1455MW2715EQDN01 04070JPWTH 1QNNE11 1 00610E11 1 00099E11 1 00099E11 1 00099G11 1 00020H11 1 15020K11 1 00008L11 1 00400M11 1 25320N11 1 04070Q11 1 10244S11 1 00016V11 1 01010X11 1 03016
031972464093058197201032100C+38283-104500SAO  +1428PUB  V0200305N009350036649N0016005N9-01115-01395102505ADDAA101000095GA1081+003664064GD14085+9999999GD20995+9999999GD30995+9999999GD40995+9999999GF108085999999999999999999MA1999999085715MW1385MW2715EQDN01 04084JPWTH 1QNNE11 1 00610E11 1 00099E11 1 00099E11 1 00099G11 1 00012H11 1 15012K11 1 00007L11 1 00100M11 1 25310N11 1 04084Q11 1 10250S11 1 00012V11 1 01010X11 1 03018
031972464093058197201040000C+38283-104500SAO  +1428PUB  V0200205N008850045749N0032005N9-01225-01565102695ADDAA101000395GA1081+004574074GD14085+9999999GD20995+9999999GD30995+9999999GD40995+9999999GF108085999999999999999999MA1999999085815MW1385MW2715EQDN01 04084JPWTH 1QNNE11 1 00610E11 1 00099E11 1 00099E11 1 00099G11 1 00015H11 1 16015K11 1 00004L11 1 00200M11 1 25340N11 1 04084Q11 1 10269S11 1 00010V11 1 01010X11 1 02017
031372464093058197201040300C+38283-104500SAO  +1428PUB  V0200405N004150030549N0016005N9-01335-01565103045ADDAA101000095GA1091+003054104GD15085+9999999GD20995+9999999GD30995+9999999GD40995+9999999GF108085999999999999999999MA1999999086085MW1715EQDN01 04000JPWTH 1QNNE11 1 00710E11 1 00099E11 1 00099E11 1 00099G11 1 00010H11 1 98010K11 1 00004L11 1 00100M11 1 25420N11 1 04000Q11 1 10304S11 1 00008V11 1 01010X11 1 04008
031372464093058197201040600C+38283-104500SAO  +1428PUB  V0201105N003650039649N0032005N9-01395-01565103135ADDAA101000095GA1091+003964104GD15085+9999999GD20995+9999999GD30995+9999999GD40995+9999999GF108085999999999999999999MA1999999086185MW1715EQDN01 04000JPWTH 1QNNE11 1 00710E11 1 00099E11 1 00099E11 1 00099G11 1 00013H11 1 98013K11 1 00004L11 1 00200M11 1 25450N11 1 04000Q11 1 10313S11 1 00007V11 1 01010X11 1 11007
039472464093058197201040900C+38283-104500SAO  +1428PUB  V02099959000052200059N0320005N9-01785-01945103185ADDAA101000095GA1021+004574064GA2999+999999999GA3999+999999999GA4999+999999999GD12025+9999999GD20005+9999999GD30005+9999999GD40005+9999999GF102025999999999999999999MA1999999086085MW1001EQDN01 00000JPWTH 1QNNE11 1 00202E11 1 00000E11 1 00000E11 1 00000G11U1 99999H11 1 15015H11 1 00999H11 1 00999H11 1 00999K11 1-00003L11 1 02000M11 1 25420N11 1 00000Q11 1 10318S11 1 00000V11 1 00202X11 1 00000
041072464093058197201041200C+38283-104500SAO  +1428PUB  V0203105N001552200059N0400005N9-02395-02785103225ADDAA101000095GA1999+999999064GA2999+999999999GA3999+999999999GA4999+999999999GD10005+9999999GD20005+9999999GD30005+9999999GD40005+9999999GF100005999999999999999999MA1999999085985MW1001EQDQ01    003SCCGA1N01 00000JPWTH 1QNNE11 1 00000E11 1 00000E11 1 00000E11 1 00000G11U1 99999H11 1 15999H11 1 00999H11 1 00999H11 1 00999K11 1-00018L11 1 02500M11 1 25390N11 1 00000Q11 1 10322S11 1-00011V11 1 00000X11 1 31003
039472464093058197201041500C+38283-104500SAO  +1428PUB  V0203005N001552200059N1440005N9-02335-02725103325ADDAA101000095GA1091+003664104GA2999+999999999GA3999+999999999GA4999+999999999GD11025+9999993GD20005+9999999GD30005+9999999GD40005+9999999GF102005999999999999999999MA1999999086055MW1001EQDN01 00000JPWTH 1QNNE11 1 00102E11 1 00000E11 1 00000E11 1 00000G11U1 99999H11 1 98012H11 1 00999H11 1 00999H11 1 00999K11 1-00017L11 1 09000M11 1 25410N11 1 00000Q11 1 10332S11 1-00010V11 1 00200X11 1 30003
018272464093058197201041800C+38283-104500SAO  +1428PUB  V0202705N001052200059N1120005N9-01675-02225103045ADDAA101000095GF100005999999999999999999MA1999999085915MW1001EQDN01 00000JPWTH 1QNNG11U1 99999K11 1-00008L11 1 07000M11 1 25370N11 1 00000Q11 1 10304S11 1 00002V11 1 00000X11 1 27002
018272464093058197201042100C+38283-104500SAO  +1428PUB  V0200505N001552200059N0960005N9-01225-01895102665ADDAA101000095GF100005999999999999999999MA1999999085645MW1001EQDN01 00000JPWTH 1QNNG11U1 99999K11 1-00002L11 1 06000M11 1 25290N11 1 00000Q11 1 10266S11 1 00010V11 1 00000X11 1 05003
041072464093058197201050000C+38283-104500SAO  +1428PUB  V02099959000052200059N1120005N9-01335-01895102775ADDAA101000095GA1999+999999034GA2999+999999999GA3999+999999999GA4999+999999999GD10005+9999999GD20005+9999999GD30005+9999999GD40005+9999999GF100005999999999999999999MA1999999085575MW1001EQDQ01    003SCCGA1N01 00000JPWTH 1QNNE11 1 00000E11 1 00000E11 1 00000E11 1 00000G11U1 99999H11 1 23999H11 1 00999H11 1 00999H11 1 00999K11 1-00002L11 1 07000M11 1 25270N11 1 00000Q11 1 10277S11 1 00008V11 1 00000X11 1 00000
018272464093058197201050300C+38283-104500SAO  +1428PUB  V0203305N003652200059N0480005N9-01835-02285102875ADDAA101000095GF100005999999999999999999MA1999999085575MW1001EQDN01 00000JPWTH 1QNNG11U1 99999K11 1-00009L11 1 03000M11 1 25270N11 1 00000Q11 1 10287S11 1-00001V11 1 00000X11 1 33007
018272464093058197201050600C+38283-104500SAO  +1428PUB  V0201505N002152200059N0480005N9-02065-02505102735ADDAA101000095GF100005999999999999999999MA1999999085545MW1001EQDN01 00000JPWTH 1QNNG11U1 99999K11 1-00013L11 1 03000M11 1 25260N11 1 00000Q11 1 10273S11 1-00005V11 1 00000X11 1 15004
039472464093058197201050900C+38283-104500SAO  +1428PUB  V0202705N009352200059N0480005N9-00066-01006101985ADDAA101000095GA1021+082304024GA2999+999999999GA3999+999999999GA4999+999999999GD11025+9999993GD20005+9999999GD30005+9999999GD40005+9999999GF102005999999999999999999MA1999999085405MW1001EQDN01 00000JPWTH 1QNNE11 1 00103E11 1 00000E11 1 00000E11 1 00000G11U1 99999H11 1 37270H11 1 00999H11 1 00999H11 1 00999K11 1 00014L11 1 03000M11 1 25220N11 1 00000Q11 1 10198S11 1 00031V11 1 00300X11 1 27018
041072464093058197201051200C+38283-104500SAO  +1428PUB  V0202805N010352200059N0480005N9-00115-01115101955ADDAA101000095GA1999+999999024GA2999+999999999GA3999+999999999GA4999+999999999GD10005+9999999GD20005+9999999GD30005+9999999GD40005+9999999GF100005999999999999999999MA1999999085345MW1001EQDQ01    003SCCGA1N01 00000JPWTH 1QNNE11 1 00000E11 1 00000E11 1 00000E11 1 00000G11U1 99999H11 1 37999H11 1 00999H11 1 00999H11 1 00999K11 1 00012L11 1 03000M11 1 25200N11 1 00000Q11 1 10195S11 1 00030V11 1 00000X11 1 28020
041072464093058197201051500C+38283-104500SAO  +1428PUB  V0202705N010352200059N1440005N9+00065-00945102045ADDAA101000095GA1999+999999064GA2011+048774034GA3021+082304024GA4999+999999999GD12005+9999999GD21015+9999993GD30025+9999999GD40005+9999999GF102015999999999999999999MA1999999085345MW1001EQDQ01    003SCCGA1N01 00000JPWTH 1QNNE11 1 00200E11 1 00101E11 1 00002E11 1 00000G11U1 99999H11 1 15999H11 1 23160H11 1 37270H11 1 00999K11 1 00015L11 1 09000M11 1 25200N11 1 00000Q11 1 10204S11 1 00033V11 1 00301X11 1 27020
041072464093058197201051800C+38283-104500SAO  +1428PUB  V0202805N014452200059N1440005N9+00615-00675102015ADDAA101000095GA1999+999999034GA2021+076204004GA3999+999999999GA4999+999999999GD12005+9999999GD20025+9999999GD30005+9999999GD40005+9999999GF102025999999999999999999MA1999999085375MW1001EQDQ01    003SCCGA1N01 00000JPWTH 1QNNE11 1 00200E11 1 00003E11 1 00000E11 1 00000G11U1 99999H11 1 23999H11 1 32250H11 1 00999H11 1 00999K11 1 00020L11 1 09000M11 1 25210N11 1 00000Q11 1 10201S11 1 00043V11 1 00302X11 1 28028
041072464093058197201052100C+38283-104500SAO  +1428PUB  V0200905N007752200059N1440005N9+00505-00395101555ADDAA101000095GA1999+999999034GA2051+076204004GA3999+999999999GA4999+999999999GD13005+9999993GD20055+9999999GD30005+9999999GD40005+9999999GF105015999999999999999999MA1999999085345MW1001EQDQ01    003SCCGA1N01 00000JPWTH 1QNNE11 1 00300E11 1 00006E11 1 00000E11 1 00000G11U1 99999H11 1 23999H11 1 32250H11 1 00999H11 1 00999K11 1 00025L11 1 09000M11 1 25200N11 1 00000Q11 1 10155S11 1 00041V11 1 00601X11 1 09015
041072464093058197201060000C+38283-104500SAO  +1428PUB  V0203005N004652200059N1440005N9+00005-00505101745ADDAA101000095GA1999+999999034GA2021+076204024GA3999+999999999GA4999+999999999GD11005+9999993GD20025+9999999GD30005+9999999GD40005+9999999GF102015999999999999999999MA1999999085405MW1001EQDQ01    003SCCGA1N01 00000JPWTH 1QNNE11 1 00100E11 1 00003E11 1 00000E11 1 00000G11U1 99999H11 1 23999H11 1 37250H11 1 00999H11 1 00999K11 1 00023L11 1 09000M11 1 25220N11 1 00000Q11 1 10174S11 1 00032V11 1 00301X11 1 30009
041072464093058197201060300C+38283-104500SAO  +1428PUB  V0200105N005252200059N0480005N9-00395-00725101895ADDAA101000095GA1999+999999034GA2999+999999999GA3999+999999999GA4999+999999999GD10005+9999999GD20005+9999999GD30005+9999999GD40005+9999999GF100005999999999999999999MA1999999085515MW1001EQDQ01    003SCCGA1N01 00000JPWTH 1QNNE11 1 00000E11 1 00000E11 1 00000E11 1 00000G11U1 99999H11 1 23999H11 1 00999H11 1 00999H11 1 00999K11 1 00019L11 1 03000M11 1 25250N11 1 00000Q11 1 10189S11 1 00025V11 1 00000X11 1 01010
041072464093058197201060600C+38283-104500SAO  +1428PUB  V0200405N001552200059N0480005N9-00725-00945101975ADDAA101000095GA1999+999999034GA2999+999999999GA3999+999999999GA4999+999999999GD10005+9999999GD20005+9999999GD30005+9999999GD40005+9999999GF100005999999999999999999MA1999999085575MW1001EQDQ01    003SCCGA1N01 00000JPWTH 1QNNE11 1 00000E11 1 00000E11 1 00000E11 1 00000G11U1 99999H11 1 23999H11 1 00999H11 1 00999H11 1 00999K11 1 00015L11 1 03000M11 1 25270N11 1 00000Q11 1 10197S11 1 00019V11 1 00000X11 1 04003
018272464093058197201060900C+38283-104500SAO  +1428PUB  V0203105N001052200059N0480005N9-00785-01065101985ADDAA101000095GF100005999999999999999999MA1999999085575MW1001EQDN01 00000JPWTH 1QNNG11U1 99999K11 1 00013L11 1 03000M11 1 25270N11 1 00000Q11 1 10198S11 1 00018V11 1 00000X11 1 31002
041072464093058197201061200C+38283-104500SAO  +1428PUB  V0203005N002652200059N0480005N9-01175-01335102135ADDAA101000095GA1999+999999044GA2999+999999999GA3999+999999999GA4999+999999999GD10005+9999999GD20005+9999999GD30005+9999999GD40005+9999999GF100005999999999999999999MA1999999085545MW1001EQDQ01    003SCCGA1N01 00000JPWTH 1QNNE11 1 00000E11 1 00000E11 1 00000E11 1 00000G11U1 99999H11 1 21999H11 1 00999H11 1 00999H11 1 00999K11 1 00008L11 1 03000M11 1 25260N11 1 00000Q11 1 10213S11 1 00011V11 1 00000X11 1 30005
039472464093058197201061500C+38283-104500SAO  +1428PUB  V0202305N004652200059N1440005N9-00065-00895102055ADDAA101000095GA1031+036584034GA2051+082304024GA3999+999999999GA4999+999999999GD12035+9999999GD24055+9999993GD30005+9999999GD40005+9999999GF108045999999999999999999MA1999999085615MW1001EQDN01 00000JPWTH 1QNNE11 1 00204E11 1 00506E11 1 00000E11 1 00000G11U1 99999H11 1 23120H11 1 37270H11 1 00999H11 1 00999K11 1 00016L11 1 09000M11 1 25280N11 1 00000Q11 1 10205S11 1 00031V11 1 01005X11 1 23009
041072464093058197201061800C+38283-104500SAO  +1428PUB  V0202905N007752200059N1440005N9+01005-00615101925ADDAA101000095GA1999+999999034GA2061+076204004GA3999+999999999GA4999+999999999GD13005+9999993GD20065+9999999GD30005+9999999GD40005+9999999GF106015999999999999999999MA1999999085615MW1001EQDQ01    003SCCGA1N01 00000JPWTH 1QNNE11 1 00300E11 1 00007E11 1 00000E11 1 00000G11U1 99999H11 1 23999H11 1 32250H11 1 00999H11 1 00999K11 1 00021L11 1 09000M11 1 25280N11 1 00000Q11 1 10192S11 1 00050V11 1 00701X11 1 29015
039472464093058197201062100C+38283-104500SAO  +1428PUB  V0202805N012952200059N1440005N9+01505-00615101605ADDAA101000095GA1071+076204004GA2999+999999999GA3999+999999999GA4999+999999999GD13075+9999993GD20005+9999999GD30005+9999999GD40005+9999999GF107015999999999999999999MA1999999085405MW1001EQDN01 00000JPWTH 1QNNE11 1 00309E11 1 00000E11 1 00000E11 1 00000G11U1 99999H11 1 32250H11 1 00999H11 1 00999H11 1 00999K11 1 00021L11 1 09000M11 1 25220N11 1 00000Q11 1 10160S11 1 00059V11 1 00901X11 1 28025
041072464093058197201070000C+38283-104500SAO  +1428PUB  V0203005N005252200059N1440005N9+00945-00675101945ADDAA101000095GA1999+999999034GA2071+076204014GA3999+999999999GA4999+999999999GD13005+9999993GD20075+9999999GD30005+9999999GD40005+9999999GF107025999999999999999999MA1999999085545MW1001EQDQ01    003SCCGA1N01 00000JPWTH 1QNNE11 1 00300E11 1 00009E11 1 00000E11 1 00000G11U1 99999H11 1 23999H11 1 39250H11 1 00999H11 1 00999K11 1 00020L11 1 09000M11 1 25260N11 1 00000Q11 1 10194S11 1 00049V11 1 00902X11 1 30010
039472464093058197201070300C+38283-104500SAO  +1428PUB  V0200405N004152200059N0480005N9+00175-00395102145ADDAA101000095GA1011+076204004GA2999+999999999GA3999+999999999GA4999+999999999GD12015+9999999GD20005+9999999GD30005+9999999GD40005+9999999GF101015999999999999999999MA1999999085785MW1001EQDN01 00000JPWTH 1QNNE11 1 00201E11 1 00000E11 1 00000E11 1 00000G11U1 99999H11 1 32250H11 1 00999H11 1 00999H11 1 00999K11 1 00025L11 1 03000M11 1 25330N11 1 00000Q11 1 10214S11 1 00035V11 1 00101X11 1 04008
041072464093058197201070600C+38283-104500SAO  +1428PUB  V0200305N002652200059N0480005N9-00115-00615102045ADDAA101000095GA1999+999999034GA2011+076204024GA3999+999999999GA4999+999999999GD11005+9999993GD20015+9999999GD30005+9999999GD40005+9999999GF101005999999999999999999MA1999999085815MW1001EQDQ01    003SCCGA1N01 00000JPWTH 1QNNE11 1 00100E11 1 00001E11 1 00000E11 1 00000G11U1 99999H11 1 23999H11 1 37250H11 1 00999H11 1 00999K11 1 00021L11 1 03000M11 1 25340N11 1 00000Q11 1 10204S11 1 00030V11 1 00100X11 1 03005
018272464093058197201070900C+38283-104500SAO  +1428PUB  V0200405N004652200059N0480005N9-00565-00785102115ADDAA101000095GF100005999999999999999999MA1999999085885MW1001EQDN01 00000JPWTH 1QNNG11U1 99999K11 1 00018L11 1 03000M11 1 25360N11 1 00000Q11 1 10211S11 1 00022V11 1 00000X11 1 04009
018272464093058197201071200C+38283-104500SAO  +1428PUB  V0203605N003152200059N0480005N9-00675-00835102205ADDAA101000095GF100005999999999999999999MA1999999085845MW1001EQDN01 00000JPWTH 1QNNG11U1 99999K11 1 00017L11 1 03000M11 1 25350N11 1 00000Q11 1 10220S11 1 00020V11 1 00000X11 1 36006
041072464093058197201071500C+38283-104500SAO  +1428PUB  V0201705N002152200059N1440005N9-00785-01005102545ADDAA101000095GA1999+999999004GA2999+999999999GA3999+999999999GA4999+999999999GD10005+9999999GD20005+9999999GD30005+9999999GD40005+9999999GF100005999999999999999999MA1999999085985MW1001EQDQ01    003SCCGA1N01 00000JPWTH 1QNNE11 1 00000E11 1 00000E11 1 00000E11 1 00000G11U1 99999H11 1 32999H11 1 00999H11 1 00999H11 1 00999K11 1 00014L11 1 09000M11 1 25390N11 1 00000Q11 1 10254S11 1 00018V11 1 00000X11 1 17004
041072464093058197201071800C+38283-104500SAO  +1428PUB  V02099959000052200059N1280005N9+00395-00395102175ADDAA101000095GA1999+999999004GA2999+999999999GA3999+999999999GA4999+999999999GD10005+9999999GD20005+9999999GD30005+9999999GD40005+9999999GF100005999999999999999999MA1999999085815MW1001EQDQ01    003SCCGA1N01 00000JPWTH 1QNNE11 1 00000E11 1 00000E11 1 00000E11 1 00000G11U1 99999H11 1 32999H11 1 00999H11 1 00999H11 1 00999K11 1 00025L11 1 08000M11 1 25340N11 1 00000Q11 1 10217S11 1 00039V11 1 00000X11 1 00000
039472464093058197201072100C+38283-104500SAO  +1428PUB  V0201205N002152200059N1280005N9+00945-00445101615ADDAA101000095GA1041+060964004GA2041+091444004GA3999+999999999GA4999+999999999GD12045+9999999GD24045+9999993GD30005+9999999GD40005+9999999GF108035999999999999999999MA1999999085375MW1001EQDN01 00000JPWTH 1QNNE11 1 00205E11 1 00505E11 1 00000E11 1 00000G11U1 99999H11 1 32200H11 1 32300H11 1 00999H11 1 00999K11 1 00024L11 1 08000M11 1 25210N11 1 00000Q11 1 10161S11 1 00049V11 1 01004X11 1 12004
039472464093058197201080000C+38283-104500SAO  +1428PUB  V0200905N003652200059N1440005N9+00445-00445101625ADDAA101000095GA1061+082304024GA2999+999999999GA3999+999999999GA4999+999999999GD13065+9999993GD20005+9999999GD30005+9999999GD40005+9999999GF106015999999999999999999MA1999999085275MW1001EQDN01 00000JPWTH 1QNNE11 1 00307E11 1 00000E11 1 00000E11 1 00000G11U1 99999H11 1 37270H11 1 00999H11 1 00999H11 1 00999K11 1 00024L11 1 09000M11 1 25180N11 1 00000Q11 1 10162S11 1 00040V11 1 00701X11 1 09007
039472464093058197201080300C+38283-104500SAO  +1428PUB  V0203605N003652200059N0480005N9-00175-00565101665ADDAA101000095GA1071+082304024GA2999+999999999GA3999+999999999GA4999+999999999GD13075+9999993GD20005+9999999GD30005+9999999GD40005+9999999GF107025999999999999999999MA1999999085205MW1001EQDN01 00000JPWTH 1QNNE11 1 00309E11 1 00000E11 1 00000E11 1 00000G11U1 99999H11 1 37270H11 1 00999H11 1 00999H11 1 00999K11 1 00022L11 1 03000M11 1 25160N11 1 00000Q11 1 10166S11 1 00029V11 1 00903X11 1 36007
039472464093058197201080600C+38283-104500SAO  +1428PUB  V0203305N003152200059N0480005N9-00565-00785101275ADDAA101000095GA1041+082304024GA2999+999999999GA3999+999999999GA4999+999999999GD11045+9999993GD20005+9999999GD30005+9999999GD40005+9999999GF104015999999999999999999MA1999999085005MW1001EQDN01 00000JPWTH 1QNNE11 1 00105E11 1 00000E11 1 00000E11 1 00000G11U1 99999H11 1 37270H11 1 00999H11 1 00999H11 1 00999K11 1 00018L11 1 03000M11 1 25100N11 1 00000Q11 1 10127S11 1 00022V11 1 00501X11 1 33006
039472464093058197201080900C+38283-104500SAO  +1428PUB  V02099959000052200059N0480005N9-00615-00725100915ADDAA101000095GA1021+076204024GA2999+999999999GA3999+999999999GA4999+999999999GD11025+9999993GD20005+9999999GD30005+9999999GD40005+9999999GF102015999999999999999999MA1999999084805MW1001EQDN01 00000JPWTH 1QNNE11 1 00103E11 1 00000E11 1 00000E11 1 00000G11U1 99999H11 1 37250H11 1 00999H11 1 00999H11 1 00999K11 1 00019L11 1 03000M11 1 25040N11 1 00000Q11 1 10091S11 1 00021V11 1 00301X11 1 00000
039472464093058197201081200C+38283-104500SAO  +1428PUB  V0203005N006752200059N0480005N9+00225-00725100745ADDAA101000095GA1081+076204024GA2999+999999999GA3999+999999999GA4999+999999999GD14085+9999993GD20005+9999999GD30005+9999999GD40005+9999999GF108045999999999999999999MA1999999084695MW1001EQDN01 00000JPWTH 1QNNE11 1 00510E11 1 00000E11 1 00000E11 1 00000G11U1 99999H11 1 37250H11 1 00999H11 1 00999H11 1 00999K11 1 00019L11 1 03000M11 1 25010N11 1 00000Q11 1 10074S11 1 00036V11 1 01005X11 1 30013
039472464093058197201081500C+38283-104500SAO  +1428PUB  V0202705N002152200059N1440005N9-00285-00945101015ADDAA101000095GA1021+042674034GA2011+048774034GA3999+999999999GA4999+999999999GD12025+9999999GD22015+9999999GD30005+9999999GD40005+9999999GF102025999999999999999999MA1999999084735MW1001EQDN01 00000JPWTH 1QNNE11 1 00202E11 1 00201E11 1 00000E11 1 00000G11U1 99999H11 1 23140H11 1 23160H11 1 00999H11 1 00999K11 1 00015L11 1 09000M11 1 25020N11 1 00000Q11 1 10101S11 1 00027V11 1 00303X11 1 27004
039472464093058197201081800C+38283-104500SAO  +1428PUB  V0203005N006752200059N1440005N9+01395-00945100685ADDAA101000095GA1021+042674034GA2999+999999999GA3999+999999999GA4999+999999999GD12025+9999999GD20005+9999999GD30005+9999999GD40005+9999999GF102025999999999999999999MA1999999084665MW1001EQDN01 00000JPWTH 1QNNE11 1 00202E11 1 00000E11 1 00000E11 1 00000G11U1 99999H11 1 23140H11 1 00999H11 1 00999H11 1 00999K11 1 00015L11 1 09000M11 1 25000N11 1 00000Q11 1 10068S11 1 00057V11 1 00202X11 1 30013
039472464093058197201082100C+38283-104500SAO  +1428PUB  V0203005N008252200059N1440005N9+01505-01505100435ADDAA101000095GA1021+042674034GA2999+999999999GA3999+999999999GA4999+999999999GD12025+9999999GD20005+9999999GD30005+9999999GD40005+9999999GF102025999999999999999999MA1999999084465MW1001EQDN01 00000JPWTH 1QNNE11 1 00202E11 1 00000E11 1 00000E11 1 00000G11U1 99999H11 1 23140H11 1 00999H11 1 00999H11 1 00999K11 1 00005L11 1 09000M11 1 24940N11 1 00000Q11 1 10043S11 1 00059V11 1 00202X11 1 30016
041072464093058197201090000C+38283-104500SAO  +1428PUB  V0203205N009352200059N1440005N9+01065-01225100555ADDAA101000095GA1999+999999034GA2999+999999999GA3999+999999999GA4999+999999999GD10005+9999999GD20005+9999999GD30005+9999999GD40005+9999999GF100005999999999999999999MA1999999084635MW1001EQDQ01    003SCCGA1N01 00000JPWTH 1QNNE11 1 00000E11 1 00000E11 1 00000E11 1 00000G11U1 99999H11 1 23999H11 1 00999H11 1 00999H11 1 00999K11 1 00010L11 1 09000M11 1 24990N11 1 00000Q11 1 10055S11 1 00051V11 1 00000X11 1 32018
018272464093058197201090300C+38283-104500SAO  +1428PUB  V0203605N004152200059N0480005N9+00445-01115101185ADDAA101000095GF100005999999999999999999MA1999999084965MW1001EQDN01 00000JPWTH 1QNNG11U1 99999K11 1 00012L11 1 03000M11 1 25090N11 1 00000Q11 1 10118S11 1 00040V11 1 00000X11 1 36008
018272464093058197201090600C+38283-104500SAO  +1428PUB  V0202105N001552200059N0480005N9+00175-00785101015ADDAA101000095GF100005999999999999999999MA1999999085075MW1001EQDN01 00000JPWTH 1QNNG11U1 99999K11 1 00018L11 1 03000M11 1 25120N11 1 00000Q11 1 10101S11 1 00035V11 1 00000X11 1 21003
018272464093058197201090900C+38283-104500SAO  +1428PUB  V0203405N001552200059N0480005N9-00335-00895100945ADDAA101000095GF100005999999999999999999MA1999999084935MW1001EQDN01 00000JPWTH 1QNNG11U1 99999K11 1 00016L11 1 03000M11 1 25080N11 1 00000Q11 1 10094S11 1 00026V11 1 00000X11 1 34003
018272464093058197201091200C+38283-104500SAO  +1428PUB  V0202805N012952200059N0480005N9+00395-01335100605ADDAA101000095GF100005999999999999999999MA1999999084695MW1001EQDN01 00000JPWTH 1QNNG11U1 99999K11 1 00008L11 1 03000M11 1 25010N11 1 00000Q11 1 10060S11 1 00039V11 1 00000X11 1 28025
039472464093058197201091500C+38283-104500SAO  +1428PUB  V0202705N009352200059N1440005N9+00505-01615100645ADDAA101000095GA1021+048774034GA2999+999999999GA3999+999999999GA4999+999999999GD12025+9999999GD20005+9999999GD30005+9999999GD40005+9999999GF102025999999999999999999MA1999999084665MW1001EQDN01 00000JPWTH 1QNNE11 1 00203E11 1 00000E11 1 00000E11 1 00000G11U1 99999H11 1 23160H11 1 00999H11 1 00999H11 1 00999K11 1 00003L11 1 09000M11 1 25000N11 1 00000Q11 1 10064S11 1 00041V11 1 00303X11 1 27018
039472464093058197201091800C+38283-104500SAO  +1428PUB  V0202705N012450487749N1440005N9+00945-01785100445ADDAA101000095GA1051+048774034GA2011+060964034GA3999+999999999GA4999+999999999GD13055+9999999GD23015+9999999GD30005+9999999GD40005+9999999GF106065999999999999999999MA1999999084525MW1001EQDN01 00000JPWTH 1QNNE11 1 00406E11 1 00401E11 1 00000E11 1 00000G11 1 00160H11 1 23160H11 1 23200H11 1 00999H11 1 00999K11 1 00000L11 1 09000M11 1 24960N11 1 00000Q11 1 10044S11 1 00049V11 1 00707X11 1 27024
039472464093058197201092100C+38283-104500SAO  +1428PUB  V0202405N007250762049N1440005N9+01335-01175100295ADDAA101000095GA1031+048774034GA2041+076204024GA3999+999999999GA4999+999999999GD12035+9999999GD23045+9999999GD30005+9999999GD40005+9999999GF107075999999999999999999MA1999999084355MW1001EQDN01 00000JPWTH 1QNNE11 1 00204E11 1 00405E11 1 00000E11 1 00000G11 1 00250H11 1 23160H11 1 37250H11 1 00999H11 1 00999K11 1 00011L11 1 09000M11 1 24910N11 1 00000Q11 1 10029S11 1 00056V11 1 00909X11 1 24014
039472464093058197201100000C+38283-104500SAO  +1428PUB  V0202805N012952200059N1440005N9+01005-01565100245ADDAA101000095GA1021+048774034GA2051+082304024GA3999+999999999GA4999+999999999GD12025+9999999GD23055+9999993GD30005+9999999GD40005+9999999GF107025999999999999999999MA1999999084395MW1001EQDN01 00000JPWTH 1QNNE11 1 00203E11 1 00306E11 1 00000E11 1 00000G11U1 99999H11 1 23160H11 1 37270H11 1 00999H11 1 00999K11 1 00004L11 1 09000M11 1 24920N11 1 00000Q11 1 10024S11 1 00050V11 1 00903X11 1 28025
039472464093058197201100300C+38283-104500SAO  +1428PUB  V0202805N011852200059N0480005N9+00725-01505100425ADDAA101000095GA1061+082304024GA2999+999999999GA3999+999999999GA4999+999999999GD13065+9999993GD20005+9999999GD30005+9999999GD40005+9999999GF106015999999999999999999MA1999999084525MW1001EQDN01 00000JPWTH 1QNNE11 1 00307E11 1 00000E11 1 00000E11 1 00000G11U1 99999H11 1 37270H11 1 00999H11 1 00999H11 1 00999K11 1 00005L11 1 03000M11 1 24960N11 1 00000Q11 1 10042S11 1 00045V11 1 00701X11 1 28023
039472464093058197201100600C+38283-104500SAO  +1428PUB  V0203005N008252200059N0480005N9+00445-01445100495ADDAA101000095GA1011+082304024GA2999+999999999GA3999+999999999GA4999+999999999GD11015+9999993GD20005+9999999GD30005+9999999GD40005+9999999GF101005999999999999999999MA1999999084595MW1001EQDN01 00000JPWTH 1QNNE11 1 00101E11 1 00000E11 1 00000E11 1 00000G11U1 99999H11 1 37270H11 1 00999H11 1 00999H11 1 00999K11 1 00006L11 1 03000M11 1 24980N11 1 00000Q11 1 10049S11 1 00040V11 1 00100X11 1 30016
041072464093058197201100900C+38283-104500SAO  +1428PUB  V0203405N003152200059N0480005N9+00005-01395100415ADDAA101000095GA1999+999999004GA2999+999999999GA3999+999999999GA4999+999999999GD10005+9999999GD20005+9999999GD30005+9999999GD40005+9999999GF100005999999999999999999MA1999999084525MW1001EQDQ01    003SCCGA1N01 00000JPWTH 1QNNE11 1 00000E11 1 00000E11 1 00000E11 1 00000G11U1 99999H11 1 32999H11 1 00999H11 1 00999H11 1 00999K11 1 00007L11 1 03000M11 1 24960N11 1 00000Q11 1 10041S11 1 00032V11 1 00000X11 1 34006
039472464093058197201101200C+38283-104500SAO  +1428PUB  V0202905N010352200059N0480005N9+00675-01445100315ADDAA101000095GA1021+076204004GA2999+999999999GA3999+999999999GA4999+999999999GD11025+9999993GD20005+9999999GD30005+9999999GD40005+9999999GF102015999999999999999999MA1999999084495MW1001EQDN01 00000JPWTH 1QNNE11 1 00103E11 1 00000E11 1 00000E11 1 00000G11U1 99999H11 1 32250H11 1 00999H11 1 00999H11 1 00999K11 1 00006L11 1 03000M11 1 24950N11 1 00000Q11 1 10031S11 1 00044V11 1 00301X11 1 29020
039472464093058197201101500C+38283-104500SAO  +1428PUB  V0202805N010352200059N1440005N9+00785-01395100415ADDAA101000095GA1011+027434064GA2011+042674034GA3021+060964004GA4999+999999999GD12015+9999999GD22015+9999999GD32025+9999999GD40005+9999999GF103035999999999999999999MA1999999084565MW1001EQDN01 00000JPWTH 1QNNE11 1 00201E11 1 00201E11 1 00202E11 1 00000G11U1 99999H11 1 15090H11 1 23140H11 1 32200H11 1 00999K11 1 00007L11 1 09000M11 1 24970N11 1 00000Q11 1 10041S11 1 00046V11 1 00404X11 1 28020
042672464093058197201101800C+38283-104500SAO  +1428PUB  V0202705N013452200059N1280005N9+01285-01225100445ADDAA101000095GA1999+999999064GA2999+999999034GA3051+076204004GA4999+999999999GD13005+9999993GD20005+9999999GD30055+9999999GD40005+9999999GF105015999999999999999999MA1999999084635MW1001EQDQ01    003SCCGA1Q02    003SCCGA2N01 00000JPWTH 1QNNE11 1 00300E11 1 00000E11 1 00006E11 1 00000G11U1 99999H11 1 15999H11 1 23999H11 1 32250H11 1 00999K11 1 00010L11 1 08000M11 1 24990N11 1 00000Q11 1 10044S11 1 00055V11 1 00601X11 1 27026
042672464093058197201102100C+38283-104500SAO  +1428PUB  V0202805N012952200059N1280005N9+01225-01285100365ADDAA101000095GA1999+999999064GA2999+999999034GA3081+076204024GA4999+999999999GD14005+9999993GD20005+9999999GD30085+9999999GD40005+9999999GF108025999999999999999999MA1999999084465MW1001EQDQ01    003SCCGA1Q02    003SCCGA2N01 00000JPWTH 1QNNE11 1 00500E11 1 00000E11 1 00010E11 1 00000G11U1 99999H11 1 15999H11 1 23999H11 1 37250H11 1 00999K11 1 00009L11 1 08000M11 1 24940N11 1 00000Q11 1 10036S11 1 00054V11 1 01002X11 1 28025
041072464093058197201110000C+38283-104500SAO  +1428PUB  V0203005N010852200059N1280005N9+00785-01225100465ADDAA101000095GA1999+999999064GA2999+999999999GA3999+999999999GA4999+999999999GD10005+9999999GD20005+9999999GD30005+9999999GD40005+9999999GF100005999999999999999999MA1999999084595MW1001EQDQ01    003SCCGA1N01 00000JPWTH 1QNNE11 1 00000E11 1 00000E11 1 00000E11 1 00000G11U1 99999H11 1 15999H11 1 00999H11 1 00999H11 1 00999K11 1 00010L11 1 08000M11 1 24980N11 1 00000Q11 1 10046S11 1 00046V11 1 00000X11 1 30021
018272464093058197201110300C+38283-104500SAO  +1428PUB  V0203205N006252200059N0480005N9+00225-01065100975ADDAA101000095GF100005999999999999999999MA1999999084935MW1001EQDN01 00000JPWTH 1QNNG11U1 99999K11 1 00013L11 1 03000M11 1 25080N11 1 00000Q11 1 10097S11 1 00036V11 1 00000X11 1 32012
018272464093058197201110600C+38283-104500SAO  +1428PUB  V0201405N003152200059N0480005N9-00335-00785101525ADDAA101000095GF100005999999999999999999MA1999999085375MW1001EQDN01 00000JPWTH 1QNNG11U1 99999K11 1 00018L11 1 03000M11 1 25210N11 1 00000Q11 1 10152S11 1 00026V11 1 00000X11 1 14006
039472464093058197201110900C+38283-104500SAO  +1428PUB  V0203505N002652200059N0480005N9-00725-00895101805ADDAA101000095GA1021+091444004GA2999+999999999GA3999+999999999GA4999+999999999GD11025+9999993GD20005+9999999GD30005+9999999GD40005+9999999GF102005999999999999999999MA1999999085545MW1001EQDN01 00000JPWTH 1QNNE11 1 00102E11 1 00000E11 1 00000E11 1 00000G11U1 99999H11 1 32300H11 1 00999H11 1 00999H11 1 00999K11 1 00016L11 1 03000M11 1 25260N11 1 00000Q11 1 10180S11 1 00019V11 1 00200X11 1 35005
039472464093058197201111200C+38283-104500SAO  +1428PUB  V02099959000050487749N0480005N9-00835-01005101875ADDAA101000095GA1061+048774034GA2021+091444004GA3999+999999999GA4999+999999999GD13065+9999999GD23025+9999999GD30005+9999999GD40005+9999999GF107065999999999999999999MA1999999085515MW1001EQDN01 00000JPWTH 1QNNE11 1 00407E11 1 00402E11 1 00000E11 1 00000G11 1 00160H11 1 23160H11 1 32300H11 1 00999H11 1 00999K11 1 00014L11 1 03000M11 1 25250N11 1 00000Q11 1 10187S11 1 00017V11 1 00907X11 1 00000
039472464093058197201111500C+38283-104500SAO  +1428PUB  V0203105N004150914449N1440005N9-00895-01115101765ADDAA101000095GA1041+048774034GA2041+091444024GA3999+999999999GA4999+999999999GD12045+9999999GD24045+9999999GD30005+9999999GD40005+9999999GF108075999999999999999999MA1999999085305MW1001EQDN01 00000JPWTH 1QNNE11 1 00205E11 1 00605E11 1 00000E11 1 00000G11 1 00300H11 1 23160H11 1 37300H11 1 00999H11 1 00999K11 1 00012L11 1 09000M11 1 25190N11 1 00000Q11 1 10176S11 1 00016V11 1 01009X11 1 31008
041072464093058197201111800C+38283-104500SAO  +1428PUB  V0201405N002150853449N0480005N9+00005-00725101265ADDAA101000095GA1999+999999034GA2081+085344024GA3999+999999999GA4999+999999999GD14005+9999999GD20085+9999999GD30005+9999999GD40005+9999999GF108065999999999999999999MA1999999084965MW1001EQDQ01    003SCCGA1N01 00000JPWTH 1QNNE11 1 00600E11 1 00010E11 1 00000E11 1 00000G11 1 00280H11 1 23999H11 1 37280H11 1 00999H11 1 00999K11 1 00019L11 1 03000M11 1 25090N11 1 00000Q11 1 10126S11 1 00032V11 1 01008X11 1 14004
039472464093058197201112100C+38283-104500SAO  +1428PUB  V0202605N002650853449N1440005N9+01175-00675100325ADDAA101000095GA1011+048774034GA2081+085344024GA3999+999999999GA4999+999999999GD12015+9999999GD24085+9999999GD30005+9999999GD40005+9999999GF108065999999999999999999MA1999999084295MW1001EQDN01 00000JPWTH 1QNNE11 1 00201E11 1 00610E11 1 00000E11 1 00000G11 1 00280H11 1 23160H11 1 37280H11 1 00999H11 1 00999K11 1 00020L11 1 09000M11 1 24890N11 1 00000Q11 1 10032S11 1 00053V11 1 01007X11 1 26005
039472464093058197201120000C+38283-104500SAO  +1428PUB  V0202805N006250823049N1440005N9+01395-00895100165ADDAA101000095GA1011+027434064GA2011+045724034GA3051+082304024GA4999+999999999GD12015+9999999GD22015+9999999GD33055+9999999GD40005+9999999GF106065999999999999999999MA1999999084195MW1001EQDN01 00000JPWTH 1QNNE11 1 00201E11 1 00201E11 1 00406E11 1 00000G11 1 00270H11 1 15090H11 1 23150H11 1 37270H11 1 00999K11 1 00016L11 1 09000M11 1 24860N11 1 00000Q11 1 10016S11 1 00057V11 1 00808X11 1 28012
039472464093058197201120300C+38283-104500SAO  +1428PUB  V0202905N010350823049N0480005N9+01225-00785100155ADDAA101000095GA1021+045724034GA2051+082304024GA3999+999999999GA4999+999999999GD12025+9999999GD23055+9999999GD30005+9999999GD40005+9999999GF106065999999999999999999MA1999999084155MW1001EQDN01 00000JPWTH 1QNNE11 1 00202E11 1 00406E11 1 00000E11 1 00000G11 1 00270H11 1 23150H11 1 37270H11 1 00999H11 1 00999K11 1 00018L11 1 03000M11 1 24850N11 1 00000Q11 1 10015S11 1 00054V11 1 00808X11 1 29020
039472464093058197201120600C+38283-104500SAO  +1428PUB  V0203005N020650823049N0192005N9+01395-00785099545ADDAA101000095GA1021+045724034GA2051+082304024GA3999+999999999GA4999+999999999GD12025+9999999GD23055+9999999GD30005+9999999GD40005+9999999GF106065999999999999999999MA1999999083815MW1001EQDN01 00000JPWTH 1QNNE11 1 00202E11 1 00406E11 1 00000E11 1 00000G11 1 00270H11 1 23150H11 1 37270H11 1 00999H11 1 00999K11 1 00018L11 1 01200M11 1 24750N11 1 00000Q11 1 09954S11 1 00057V11 1 00808X11 1 30040
039472464093058197201120900C+38283-104500SAO  +1428PUB  V0202905N018552200059N0480005N9+01445-00785099305ADDAA101000095GA1021+048774034GA2031+091444004GA3999+999999999GA4999+999999999GD12025+9999999GD23035+9999993GD30005+9999999GD40005+9999999GF106025999999999999999999MA1999999083785MW1001EQDN01 00000JPWTH 1QNNE11 1 00203E11 1 00304E11 1 00000E11 1 00000G11U1 99999H11 1 23160H11 1 32300H11 1 00999H11 1 00999K11 1 00018L11 1 03000M11 1 24740N11 1 00000Q11 1 09930S11 1 00058V11 1 00703X11 1 29036
041072464093058197201121200C+38283-104500SAO  +1428PUB  V0202905N011852200059N0480005N9+01225-00785099265ADDAA101000095GA1999+999999034GA2041+091444004GA3999+999999999GA4999+999999999GD11005+9999993GD20045+9999999GD30005+9999999GD40005+9999999GF104015999999999999999999MA1999999083755MW1001EQDQ01    003SCCGA1N01 00000JPWTH 1QNNE11 1 00100E11 1 00005E11 1 00000E11 1 00000G11U1 99999H11 1 23999H11 1 32300H11 1 00999H11 1 00999K11 1 00018L11 1 03000M11 1 24730N11 1 00000Q11 1 09926S11 1 00054V11 1 00501X11 1 29023
039472464093058197201121500C+38283-104500SAO  +1428PUB  V0202905N014452200059N1280005N9+01175-00725099165ADDAA101000095GA1021+036584034GA2061+076204004GA3999+999999999GA4999+999999999GD12025+9999999GD23065+9999993GD30005+9999999GD40005+9999999GF107025999999999999999999MA1999999083615MW1001EQDN01 00000JPWTH 1QNNE11 1 00202E11 1 00307E11 1 00000E11 1 00000G11U1 99999H11 1 23120H11 1 32250H11 1 00999H11 1 00999K11 1 00019L11 1 08000M11 1 24690N11 1 00000Q11 1 09916S11 1 00053V11 1 00903X11 1 29028
041072464093058197201121800C+38283-104500SAO  +1428PUB  V0202905N018052200059N0160005N9+01395-00725098925ADDAA101000095GA1999+999999064GA2021+042674034GA3051+076204024GA4999+999999999GD12005+9999999GD23025+9999993GD30055+9999999GD40005+9999999GF107035999999999999999999MA1999999083515MW1001EQDQ01    003SCCGA1N01 00000JPWTH 1QNNE11 1 00200E11 1 00303E11 1 00006E11 1 00000G11U1 99999H11 1 15999H11 1 23140H11 1 37250H11 1 00999K11 1 00019L11 1 01000M11 1 24660N11 1 00000Q11 1 09892S11 1 00057V11 1 00904X11 1 29035
039472464093058197201122100C+38283-104500SAO  +1428PUB  V0200305N012952200059N1440005N9+00615-00395099345ADDAA101000095GA1021+024384064GA2011+036584034GA3051+076204024GA4999+999999999GD12025+9999999GD22015+9999999GD33055+9999993GD40005+9999999GF107025999999999999999999MA1999999083755MW1001EQDN01 00000JPWTH 1QNNE11 1 00202E11 1 00201E11 1 00306E11 1 00000G11U1 99999H11 1 15080H11 1 23120H11 1 37250H11 1 00999K11 1 00025L11 1 09000M11 1 24730N11 1 00000Q11 1 09934S11 1 00043V11 1 00903X11 1 03025
039472464093058197201130000C+38283-104500SAO  +1428PUB  V0200405N011350182949N0480005N9-00225-00785100265ADDAA101000095GA1051+018294064GA2011+036584034GA3011+076204024GA4999+999999999GD13055+9999999GD23015+9999999GD33015+9999999GD40005+9999999GF106065999999999999999999MA1999999084355MW1001EQDN01 00000JPWTH 1QNNE11 1 00406E11 1 00401E11 1 00401E11 1 00000G11 1 00060H11 1 15060H11 1 23120H11 1 37250H11 1 00999K11 1 00018L11 1 03000M11 1 24910N11 1 00000Q11 1 10026S11 1 00028V11 1 00808X11 1 04022
031372464093058197201130300C+38283-104500SAO  +1428PUB  V0200505N004650024449N0032005N9-00615-00835100795ADDAA101000095GA1081+002444074GD14085+9999999GD20995+9999999GD30995+9999999GD40995+9999999GF108085999999999999999999MA1999999084735MW1715EQDN01 04000JPWTH 1QNNE11 1 00610E11 1 00099E11 1 00099E11 1 00099G11 1 00008H11 1 16008K11 1 00017L11 1 00200M11 1 25020N11 1 04000Q11 1 10079S11 1 00021V11 1 01010X11 1 05009
031372464093058197201130600C+38283-104500SAO  +1428PUB  V0201305N002650006149N0008005N9-00675-00835100695ADDAA101000895GA1081+000614074GD14085+9999999GD20995+9999999GD30995+9999999GD40995+9999999GF108085999999999999999999MA1999999084695MW1735EQDN01 04100JPWTH 1QNNE11 1 00610E11 1 00099E11 1 00099E11 1 00099G11 1 00002H11 1 16002K11 1 00017L11 1 00050M11 1 25010N11 1 04100Q11 1 10069S11 1 00020V11 1 01010X11 1 13005
031972464093058197201130900C+38283-104500SAO  +1428PUB  V02099959000050018349N0008005N9-00725-00835100895ADDAA101001895GA1091+001834104GD15085+9999999GD20995+9999999GD30995+9999999GD40995+9999999GF108085999999999999999999MA1999999084695MW1455MW2715EQDN01 04070JPWTH 1QNNE11 1 00710E11 1 00099E11 1 00099E11 1 00099G11 1 00006H11 1 45006K11 1 00017L11 1 00050M11 1 25010N11 1 04070Q11 1 10089S11 1 00019V11 1 01010X11 1 00000
034672464093058197201131200C+38283-104500SAO  +1428PUB  V02099959000050121949N0080005N9-00785-00895101145ADDAA101000595GA1041+999999104GA2041+012194064GD16045+9999999GD24045+9999999GD30995+9999999GD40995+9999999GF108085999999999999999999MA1999999084735MW1455MW2715EQDN01 04070JPWTH 1QNNE11 1 00805E11 1 00605E11 1 00099E11 1 00099G11 1 00040H11 1 45999H11 1 15040K11 1 00016L11 1 00500M11 1 25020N11 1 04070Q11 1 10114S11 1 00018V11 1 01010X11 1 00000
039472464093058197201131500C+38283-104500SAO  +1428PUB  V0200305N002150140249N0096005N9-00895-01065101545ADDAA101000095GA1051+014024064GA2031+024384034GA3999+999999999GA4999+999999999GD13055+9999999GD24035+9999999GD30005+9999999GD40005+9999999GF108075999999999999999999MA1999999084965MW1715EQDN01 04000JPWTH 1QNNE11 1 00406E11 1 00604E11 1 00000E11 1 00000G11 1 00046H11 1 15046H11 1 23080H11 1 00999H11 1 00999K11 1 00013L11 1 00600M11 1 25090N11 1 04000Q11 1 10154S11 1 00016V11 1 01009X11 1 03004
041072464093058197201131800C+38283-104500SAO  +1428PUB  V02099959000050243849N0112005N9-00615-00895101685ADDAA101000395GA1999+999999074GA2031+013724064GA3051+024384064GA4999+999999999GD12005+9999999GD24035+9999999GD30055+9999999GD40005+9999999GF108065999999999999999999MA1999999085135MW1001EQDQ01    003SCCGA1N01 00000JPWTH 1QNNE11 1 00200E11 1 00604E11 1 00006E11 1 00000G11 1 00080H11 1 16999H11 1 15045H11 1 15080H11 1 00999K11 1 00016L11 1 00700M11 1 25140N11 1 00000Q11 1 10168S11 1 00021V11 1 01007X11 1 00000
041072464093058197201132100C+38283-104500SAO  +1428PUB  V0203305N001550213449N0480005N9-00505-00945101665ADDAA101000095GA1999+999999074GA2021+013724064GA3031+021344064GA4021+082304024GD12005+9999999GD23025+9999999GD34035+9999999GD40025+9999999GF108055999999999999999999MA1999999085135MW1001EQDQ01    003SCCGA1N01 00000JPWTH 1QNNE11 1 00200E11 1 00403E11 1 00604E11 1 00003G11 1 00070H11 1 16999H11 1 15045H11 1 15070H11 1 37270K11 1 00015L11 1 03000M11 1 25140N11 1 00000Q11 1 10166S11 1 00023V11 1 01006X11 1 33003
039472464093058197201140000C+38283-104500SAO  +1428PUB  V02099959000050274349N0800005N9-00725-01065102055ADDAA101000095GA1051+027434064GA2021+082304024GA3999+999999999GA4999+999999999GD13055+9999999GD23025+9999999GD30005+9999999GD40005+9999999GF106065999999999999999999MA1999999085405MW1001EQDN01 00000JPWTH 1QNNE11 1 00406E11 1 00402E11 1 00000E11 1 00000G11 1 00090H11 1 15090H11 1 37270H11 1 00999H11 1 00999K11 1 00013L11 1 05000M11 1 25220N11 1 00000Q11 1 10205S11 1 00019V11 1 00808X11 1 00000
018272464093058197201140300C+38283-104500SAO  +1428PUB  V0201305N002652200059N0480005N9-01395-01725102465ADDAA101000095GF100005999999999999999999MA1999999085615MW1001EQDN01 00000JPWTH 1QNNG11U1 99999K11 1 00001L11 1 03000M11 1 25280N11 1 00000Q11 1 10246S11 1 00007V11 1 00000X11 1 13005
040072464093058197201140600C+38283-104500SAO  +1428PUB  V02099959000052200059N0048005N9-01945-01945102645ADDAA101000095GA1031+999999104GA2999+999999999GA3999+999999999GA4999+999999999GD16035+9999999GD20005+9999999GD30005+9999999GD40005+9999999GF103035999999999999999999MA1999999085715MW1111MW2445EQDN01 07200JPWTH 1QNNE11 1 00804E11 1 00000E11 1 00000E11 1 00000G11U1 99999H11 1 45999H11 1 00999H11 1 00999H11 1 00999K11 1-00003L11 1 00300M11 1 25310N11 1 07200Q11 1 10264S11 1-00003V11 1 00404X11 1 00000
032572464093058197201140900C+38283-104500SAO  +1428PUB  V0201005N003650021349N0080005N9-01335-01395102515ADDAA101000095GA1081+002134074GD14085+9999999GD20995+9999999GD30995+9999999GD40995+9999999GF108085999999999999999999MA1999999085745MW1455MW2761MW3785EQDN01 04770JPWTH 1QNNE11 1 00610E11 1 00099E11 1 00099E11 1 00099G11 1 00007H11 1 16007K11 1 00007L11 1 00500M11 1 25320N11 1 04770Q11 1 10251S11 1 00008V11 1 01010X11 1 10007
031972464093058197201141200C+38283-104500SAO  +1428PUB  V0201205N003150027449N0080005N9-01395-01505102695ADDAA101000095GA1081+002744074GD14085+9999999GD20995+9999999GD30995+9999999GD40995+9999999GF108085999999999999999999MA1999999085815MW1455MW2715EQDN01 04070JPWTH 1QNNE11 1 00610E11 1 00099E11 1 00099E11 1 00099G11 1 00009H11 1 16009K11 1 00005L11 1 00500M11 1 25340N11 1 04070Q11 1 10269S11 1 00007V11 1 01010X11 1 12006
031972464093058197201141500C+38283-104500SAO  +1428PUB  V0201305N003650061049N0032005N9-01505-01615103235ADDAA101000095GA1081+006104074GD14085+9999999GD20995+9999999GD30995+9999999GD40995+9999999GF108085999999999999999999MA1999999086125MW1455MW2715EQDN01 04070JPWTH 1QNNE11 1 00610E11 1 00099E11 1 00099E11 1 00099G11 1 00020H11 1 16020K11 1 00003L11 1 00200M11 1 25430N11 1 04070Q11 1 10323S11 1 00005V11 1 01010X11 1 13007
040072464093058197201141800C+38283-104500SAO  +1428PUB  V0201205N002152200059N0112005N9-01505-01785103805ADDAA101000095GA1011+009144064GA2071+082304024GA3999+999999999GA4999+999999999GD12015+9999999GD24075+9999993GD30005+9999999GD40005+9999999GF108025999999999999999999MA1999999086495MW1761MW2785EQDN01 04700JPWTH 1QNNE11 1 00201E11 1 00509E11 1 00000E11 1 00000G11U1 99999H11 1 15030H11 1 37270H11 1 00999H11 1 00999K11 1 00000L11 1 00700M11 1 25540N11 1 04700Q11 1 10380S11 1 00005V11 1 01003X11 1 12004
039472464093058197201142100C+38283-104500SAO  +1428PUB  V0200905N003652200059N0240005N9-01445-01835103635ADDAA101000095GA1021+082304004GA2999+999999999GA3999+999999999GA4999+999999999GD11025+9999993GD20005+9999999GD30005+9999999GD40005+9999999GF102005999999999999999999MA1999999086495MW1001EQDN01 00000JPWTH 1QNNE11 1 00102E11 1 00000E11 1 00000E11 1 00000G11U1 99999H11 1 32270H11 1 00999H11 1 00999H11 1 00999K11 1-00001L11 1 01500M11 1 25540N11 1 00000Q11 1 10363S11 1 00006V11 1 00200X11 1 09007
042672464093058197201150000C+38283-104500SAO  +1428PUB  V0201605N001052200059N1120005N9-01675-02005103885ADDAA101000095GA1999+999999064GA2999+999999044GA3999+999999999GA4999+999999999GD10005+9999999GD20005+9999999GD30005+9999999GD40005+9999999GF100005999999999999999999MA1999999086625MW1001EQDQ01    003SCCGA1Q02    003SCCGA2N01 00000JPWTH 1QNNE11 1 00000E11 1 00000E11 1 00000E11 1 00000G11U1 99999H11 1 15999H11 1 21999H11 1 00999H11 1 00999K11 1-00004L11 1 07000M11 1 25580N11 1 00000Q11 1 10388S11 1 00002V11 1 00000X11 1 16002
041072464093058197201150300C+38283-104500SAO  +1428PUB  V02099959000052200059N0320005N9-02335-02675104055ADDAA101000095GA1999+999999044GA2999+999999999GA3999+999999999GA4999+999999999GD10005+9999999GD20005+9999999GD30005+9999999GD40005+9999999GF100005999999999999999999MA1999999086625MW1001EQDQ01    003SCCGA1N01 00000JPWTH 1QNNE11 1 00000E11 1 00000E11 1 00000E11 1 00000G11U1 99999H11 1 21999H11 1 00999H11 1 00999H11 1 00999K11 1-00016L11 1 02000M11 1 25580N11 1 00000Q11 1 10405S11 1-00010V11 1 00000X11 1 00000
041072464093058197201150600C+38283-104500SAO  +1428PUB  V0203005N001552200059N0240005N9-02335-02725104055ADDAA101000095GA1999+999999074GA2999+999999999GA3999+999999999GA4999+999999999GD10005+9999999GD20005+9999999GD30005+9999999GD40005+9999999GF100005999999999999999999MA1999999086595MW1001EQDQ01    003SCCGA1N01 00000JPWTH 1QNNE11 1 00000E11 1 00000E11 1 00000E11 1 00000G11U1 99999H11 1 16999H11 1 00999H11 1 00999H11 1 00999K11 1-00017L11 1 01500M11 1 25570N11 1 00000Q11 1 10405S11 1-00010V11 1 00000X11 1 30003
018272464093058197201150900C+38283-104500SAO  +1428PUB  V02099959000052200059N0240005N9-02285-02615103895ADDAA101000095GF100005999999999999999999MA1999999086495MW1001EQDN01 00000JPWTH 1QNNG11U1 99999K11 1-00015L11 1 01500M11 1 25540N11 1 00000Q11 1 10389S11 1-00009V11 1 00000X11 1 00000
018272464093058197201151200C+38283-104500SAO  +1428PUB  V0202705N002652200059N0240005N9-02175-02445103865ADDAA101000095GF100005999999999999999999MA1999999086455MW1001EQDN01 00000JPWTH 1QNNG11U1 99999K11 1-00012L11 1 01500M11 1 25530N11 1 00000Q11 1 10386S11 1-00007V11 1 00000X11 1 27005
039472464093058197201151500C+38283-104500SAO  +1428PUB  V02099959000052200059N0640005N9-02225-02615104015ADDAA101000095GA1051+091444004GA2999+999999999GA3999+999999999GA4999+999999999GD13055+9999993GD20005+9999999GD30005+9999999GD40005+9999999GF105015999999999999999999MA1999999086455MW1001EQDN01 00000JPWTH 1QNNE11 1 00306E11 1 00000E11 1 00000E11 1 00000G11U1 99999H11 1 32300H11 1 00999H11 1 00999H11 1 00999K11 1-00015L11 1 04000M11 1 25530N11 1 00000Q11 1 10401S11 1-00008V11 1 00601X11 1 00000
039472464093058197201151800C+38283-104500SAO  +1428PUB  V0202805N003652200059N0640005N9-01335-01675103595ADDAA101000095GA1051+091444004GA2999+999999999GA3999+999999999GA4999+999999999GD13055+9999993GD20005+9999999GD30005+9999999GD40005+9999999GF105025999999999999999999MA1999999086495MW1001EQDN01 00000JPWTH 1QNNE11 1 00306E11 1 00000E11 1 00000E11 1 00000G11U1 99999H11 1 32300H11 1 00999H11 1 00999H11 1 00999K11 1 00002L11 1 04000M11 1 25540N11 1 00000Q11 1 10359S11 1 00008V11 1 00602X11 1 28007
039472464093058197201152100C+38283-104500SAO  +1428PUB  V0200905N002152200059N0800005N9-00675-01175103215ADDAA101000095GA1041+091444004GA2999+999999999GA3999+999999999GA4999+999999999GD11045+9999993GD20005+9999999GD30005+9999999GD40005+9999999GF104015999999999999999999MA1999999086295MW1001EQDN01 00000JPWTH 1QNNE11 1 00105E11 1 00000E11 1 00000E11 1 00000G11U1 99999H11 1 32300H11 1 00999H11 1 00999H11 1 00999K11 1 00011L11 1 05000M11 1 25480N11 1 00000Q11 1 10321S11 1 00020V11 1 00501X11 1 09004
041072464093058197201160000C+38283-104500SAO  +1428PUB  V0203405N002652200059N1120005N9-01005-01115103445ADDAA101000095GA1999+999999034GA2061+091444004GA3999+999999999GA4999+999999999GD13005+9999993GD20065+9999999GD30005+9999999GD40005+9999999GF106015999999999999999999MA1999999086255MW1001EQDQ01    003SCCGA1N01 00000JPWTH 1QNNE11 1 00300E11 1 00007E11 1 00000E11 1 00000G11U1 99999H11 1 23999H11 1 32300H11 1 00999H11 1 00999K11 1 00012L11 1 07000M11 1 25470N11 1 00000Q11 1 10344S11 1 00014V11 1 00701X11 1 34005
018272464093058197201160300C+38283-104500SAO  +1428PUB  V0203205N003152200059N0160005N9-01335-01505103645ADDAA101000095GF100005999999999999999999MA1999999086325MW1001EQDN01 00000JPWTH 1QNNG11U1 99999K11 1 00005L11 1 01000M11 1 25490N11 1 00000Q11 1 10364S11 1 00008V11 1 00000X11 1 32006
018272464093058197201160600C+38283-104500SAO  +1428PUB  V0202405N004152200059N0480005N9-01225-01395103245ADDAA101000095GF100005999999999999999999MA1999999086185MW1001EQDN01 00000JPWTH 1QNNG11U1 99999K11 1 00007L11 1 03000M11 1 25450N11 1 00000Q11 1 10324S11 1 00010V11 1 00000X11 1 24008
018272464093058197201160900C+38283-104500SAO  +1428PUB  V0202405N002652200059N0480005N9-01335-01565102945ADDAA101000095GF100005999999999999999999MA1999999086055MW1001EQDN01 00000JPWTH 1QNNG11U1 99999K11 1 00004L11 1 03000M11 1 25410N11 1 00000Q11 1 10294S11 1 00008V11 1 00000X11 1 24005
018272464093058197201161200C+38283-104500SAO  +1428PUB  V0203205N002152200059N0480005N9-01395-01615102945ADDAA101000095GF100005999999999999999999MA1999999085985MW1001EQDN01 00000JPWTH 1QNNG11U1 99999K11 1 00003L11 1 03000M11 1 25390N11 1 00000Q11 1 10294S11 1 00007V11 1 00000X11 1 32004
041072464093058197201161500C+38283-104500SAO  +1428PUB  V0202705N001552200059N1280005N9-01175-01335102925ADDAA101000095GA1999+999999024GA2999+999999999GA3999+999999999GA4999+999999999GD10005+9999999GD20005+9999999GD30005+9999999GD40005+9999999GF100005999999999999999999MA1999999085955MW1001EQDQ01    003SCCGA1N01 00000JPWTH 1QNNE11 1 00000E11 1 00000E11 1 00000E11 1 00000G11U1 99999H11 1 37999H11 1 00999H11 1 00999H11 1 00999K11 1 00008L11 1 08000M11 1 25380N11 1 00000Q11 1 10292S11 1 00011V11 1 00000X11 1 27003
041072464093058197201161800C+38283-104500SAO  +1428PUB  V0200505N002152200059N1280005N9+00065-00675102545ADDAA101000095GA1999+999999004GA2999+999999999GA3999+999999999GA4999+999999999GD10005+9999999GD20005+9999999GD30005+9999999GD40005+9999999GF100005999999999999999999MA1999999085885MW1001EQDQ01    003SCCGA1N01 00000JPWTH 1QNNE11 1 00000E11 1 00000E11 1 00000E11 1 00000G11U1 99999H11 1 32999H11 1 00999H11 1 00999H11 1 00999K11 1 00020L11 1 08000M11 1 25360N11 1 00000Q11 1 10254S11 1 00033V11 1 00000X11 1 05004
042672464093058197201162100C+38283-104500SAO  +1428PUB  V02099959000052200059N0800005N9+00725-00225102035ADDAA101000095GA1999+999999034GA2999+999999004GA3999+999999999GA4999+999999999GD10005+9999999GD20005+9999999GD30005+9999999GD40005+9999999GF100005999999999999999999MA1999999085545MW1001EQDQ01    003SCCGA1Q02    003SCCGA2N01 00000JPWTH 1QNNE11 1 00000E11 1 00000E11 1 00000E11 1 00000G11U1 99999H11 1 23999H11 1 32999H11 1 00999H11 1 00999K11 1 00028L11 1 05000M11 1 25260N11 1 00000Q11 1 10203S11 1 00045V11 1 00000X11 1 00000
041072464093058197201170000C+38283-104500SAO  +1428PUB  V0201205N001552200059N0960005N9+00565-00335102005ADDAA101000095GA1999+999999034GA2999+999999999GA3999+999999999GA4999+999999999GD10005+9999999GD20005+9999999GD30005+9999999GD40005+9999999GF100005999999999999999999MA1999999085475MW1001EQDQ01    003SCCGA1N01 00000JPWTH 1QNNE11 1 00000E11 1 00000E11 1 00000E11 1 00000G11U1 99999H11 1 23999H11 1 00999H11 1 00999H11 1 00999K11 1 00026L11 1 06000M11 1 25240N11 1 00000Q11 1 10200S11 1 00042V11 1 00000X11 1 12003
018272464093058197201170300C+38283-104500SAO  +1428PUB  V02099959000052200059N0480005N9-00175-00505102055ADDAA101000095GF100005999999999999999999MA1999999085445MW1001EQDN01 00000JPWTH 1QNNG11U1 99999K11 1 00023L11 1 03000M11 1 25230N11 1 00000Q11 1 10205S11 1 00029V11 1 00000X11 1 00000
018272464093058197201170600C+38283-104500SAO  +1428PUB  V0203305N003152200059N0480005N9-00565-00725101695ADDAA101000095GF100005999999999999999999MA1999999085305MW1001EQDN01 00000JPWTH 1QNNG11U1 99999K11 1 00019L11 1 03000M11 1 25190N11 1 00000Q11 1 10169S11 1 00022V11 1 00000X11 1 33006
018272464093058197201170900C+38283-104500SAO  +1428PUB  V0202705N001552200059N0480005N9-00725-01065101475ADDAA101000095GF100005999999999999999999MA1999999085135MW1001EQDN01 00000JPWTH 1QNNG11U1 99999K11 1 00013L11 1 03000M11 1 25140N11 1 00000Q11 1 10147S11 1 00019V11 1 00000X11 1 27003
018272464093058197201171200C+38283-104500SAO  +1428PUB  V0202905N007252200059N0480005N9+00115-00785101045ADDAA101000095GF100005999999999999999999MA1999999084935MW1001EQDN01 00000JPWTH 1QNNG11U1 99999K11 1 00018L11 1 03000M11 1 25080N11 1 00000Q11 1 10104S11 1 00034V11 1 00000X11 1 29014
041072464093058197201171500C+38283-104500SAO  +1428PUB  V0200205N003152200059N1440005N9+00115-00895101115ADDAA101000095GA1999+999999004GA2999+999999999GA3999+999999999GA4999+999999999GD10005+9999999GD20005+9999999GD30005+9999999GD40005+9999999GF100005999999999999999999MA1999999084905MW1001EQDQ01    003SCCGA1N01 00000JPWTH 1QNNE11 1 00000E11 1 00000E11 1 00000E11 1 00000G11U1 99999H11 1 32999H11 1 00999H11 1 00999H11 1 00999K11 1 00016L11 1 09000M11 1 25070N11 1 00000Q11 1 10111S11 1 00034V11 1 00000X11 1 02006
041072464093058197201171800C+38283-104500SAO  +1428PUB  V0203105N008852200059N1440005N9+01005-00615100895ADDAA101000095GA1999+999999064GA2999+999999999GA3999+999999999GA4999+999999999GD10005+9999999GD20005+9999999GD30005+9999999GD40005+9999999GF100005999999999999999999MA1999999084805MW1001EQDQ01    003SCCGA1N01 00000JPWTH 1QNNE11 1 00000E11 1 00000E11 1 00000E11 1 00000G11U1 99999H11 1 15999H11 1 00999H11 1 00999H11 1 00999K11 1 00021L11 1 09000M11 1 25040N11 1 00000Q11 1 10089S11 1 00050V11 1 00000X11 1 31017
018272464093058197201172100C+38283-104500SAO  +1428PUB  V0202905N010352200059N1440005N9+01445-00395100485ADDAA101000095GF100005999999999999999999MA1999999084495MW1001EQDN01 00000JPWTH 1QNNG11U1 99999K11 1 00025L11 1 09000M11 1 24950N11 1 00000Q11 1 10048S11 1 00058V11 1 00000X11 1 29020
041072464093058197201180000C+38283-104500SAO  +1428PUB  V0203005N008852200059N1440005N9+01115-00505100355ADDAA101000095GA1999+999999034GA2999+999999999GA3999+999999999GA4999+999999999GD10005+9999999GD20005+9999999GD30005+9999999GD40005+9999999GF100005999999999999999999MA1999999084465MW1001EQDQ01    003SCCGA1N01 00000JPWTH 1QNNE11 1 00000E11 1 00000E11 1 00000E11 1 00000G11U1 99999H11 1 23999H11 1 00999H11 1 00999H11 1 00999K11 1 00023L11 1 09000M11 1 24940N11 1 00000Q11 1 10035S11 1 00052V11 1 00000X11 1 30017
018272464093058197201180300C+38283-104500SAO  +1428PUB  V0203005N006252200059N0480005N9+00725-00675100555ADDAA101000095GF100005999999999999999999MA1999999084565MW1001EQDN01 00000JPWTH 1QNNG11U1 99999K11 1 00020L11 1 03000M11 1 24970N11 1 00000Q11 1 10055S11 1 00045V11 1 00000X11 1 30012
018272464093058197201180600C+38283-104500SAO  +1428PUB  V0202805N012452200059N0480005N9+00835-00895100355ADDAA101000095GF100005999999999999999999MA1999999084565MW1001EQDN01 00000JPWTH 1QNNG11U1 99999K11 1 00016L11 1 03000M11 1 24970N11 1 00000Q11 1 10035S11 1 00047V11 1 00000X11 1 28024
041072464093058197201180900C+38283-104500SAO  +1428PUB  V0202905N012452200059N0480005N9+00895-00895100235ADDAA101000095GA1999+999999024GA2999+999999999GA3999+999999999GA4999+999999999GD10005+9999999GD20005+9999999GD30005+9999999GD40005+9999999GF100005999999999999999999MA1999999084525MW1001EQDQ01    003SCCGA1N01 00000JPWTH 1QNNE11 1 00000E11 1 00000E11 1 00000E11 1 00000G11U1 99999H11 1 37999H11 1 00999H11 1 00999H11 1 00999K11 1 00016L11 1 03000M11 1 24960N11 1 00000Q11 1 10023S11 1 00048V11 1 00000X11 1 29024
039472464093058197201181200C+38283-104500SAO  +1428PUB  V0202805N010852200059N0480005N9+00945-00725100265ADDAA101000095GA1021+048774034GA2041+076204024GA3999+999999999GA4999+999999999GD12025+9999999GD23045+9999993GD30005+9999999GD40005+9999999GF106025999999999999999999MA1999999084525MW1001EQDN01 00000JPWTH 1QNNE11 1 00202E11 1 00305E11 1 00000E11 1 00000G11U1 99999H11 1 23160H11 1 37250H11 1 00999H11 1 00999K11 1 00019L11 1 03000M11 1 24960N11 1 00000Q11 1 10026S11 1 00049V11 1 00703X11 1 28021
039472464093058197201181500C+38283-104500SAO  +1428PUB  V0203005N010850548649N1440005N9+01005-00615100615ADDAA101000095GA1021+039624034GA2031+054864034GA3021+076204024GA4999+999999999GD12025+9999999GD23035+9999999GD33025+9999999GD40005+9999999GF107065999999999999999999MA1999999084765MW1001EQDN01 00000JPWTH 1QNNE11 1 00202E11 1 00404E11 1 00403E11 1 00000G11 1 00180H11 1 23130H11 1 23180H11 1 37250H11 1 00999K11 1 00021L11 1 09000M11 1 25030N11 1 00000Q11 1 10061S11 1 00050V11 1 00907X11 1 30021
041072464093058197201181800C+38283-104500SAO  +1428PUB  V0202905N010850823049N1440005N9+01335-00675100685ADDAA101000095GA1999+999999034GA2021+054864034GA3061+082304024GA4999+999999999GD12005+9999999GD24025+9999999GD30065+9999999GD40005+9999999GF108075999999999999999999MA1999999084905MW1001EQDQ01    003SCCGA1N01 00000JPWTH 1QNNE11 1 00200E11 1 00603E11 1 00007E11 1 00000G11 1 00270H11 1 23999H11 1 23180H11 1 37270H11 1 00999K11 1 00020L11 1 09000M11 1 25070N11 1 00000Q11 1 10068S11 1 00056V11 1 01009X11 1 29021
039472464093058197201182100C+38283-104500SAO  +1428PUB  V0202905N010350823049N1440005N9+01505-00505100605ADDAA101000095GA1021+054864034GA2051+082304024GA3999+999999999GA4999+999999999GD12025+9999999GD23055+9999999GD30005+9999999GD40005+9999999GF107045999999999999999999MA1999999084835MW1001EQDN01 00000JPWTH 1QNNE11 1 00203E11 1 00406E11 1 00000E11 1 00000G11 1 00270H11 1 23180H11 1 37270H11 1 00999H11 1 00999K11 1 00023L11 1 09000M11 1 25050N11 1 00000Q11 1 10060S11 1 00059V11 1 00905X11 1 29020
039472464093058197201190000C+38283-104500SAO  +1428PUB  V0203105N008850823049N1440005N9+01335-00505100765ADDAA101000095GA1021+054864034GA2061+082304024GA3999+999999999GA4999+999999999GD12025+9999999GD24065+9999999GD30005+9999999GD40005+9999999GF108065999999999999999999MA1999999084965MW1001EQDN01 00000JPWTH 1QNNE11 1 00203E11 1 00607E11 1 00000E11 1 00000G11 1 00270H11 1 23180H11 1 37270H11 1 00999H11 1 00999K11 1 00023L11 1 09000M11 1 25090N11 1 00000Q11 1 10076S11 1 00056V11 1 01007X11 1 31017
039472464093058197201190300C+38283-104500SAO  +1428PUB  V0202705N003150823049N0480005N9+00945-00395101015ADDAA101000095GA1011+054864034GA2071+082304024GA3999+999999999GA4999+999999999GD12015+9999999GD24075+9999999GD30005+9999999GD40005+9999999GF108075999999999999999999MA1999999085135MW1001EQDN01 00000JPWTH 1QNNE11 1 00201E11 1 00609E11 1 00000E11 1 00000G11 1 00270H11 1 23180H11 1 37270H11 1 00999H11 1 00999K11 1 00025L11 1 03000M11 1 25140N11 1 00000Q11 1 10101S11 1 00049V11 1 01009X11 1 27006
039472464093058197201190600C+38283-104500SAO  +1428PUB  V0201505N002152200059N0480005N9+00395-00335101175ADDAA101000095GA1081+082304024GA2999+999999999GA3999+999999999GA4999+999999999GD14085+9999993GD20005+9999999GD30005+9999999GD40005+9999999GF108015999999999999999999MA1999999085245MW1001EQDN01 00000JPWTH 1QNNE11 1 00510E11 1 00000E11 1 00000E11 1 00000G11U1 99999H11 1 37270H11 1 00999H11 1 00999H11 1 00999K11 1 00026L11 1 03000M11 1 25170N11 1 00000Q11 1 10117S11 1 00039V11 1 01001X11 1 15004
039472464093058197201190900C+38283-104500SAO  +1428PUB  V0203305N002652200059N0480005N9+00115-00395101175ADDAA101000095GA1011+076204024GA2999+999999999GA3999+999999999GA4999+999999999GD12015+9999999GD20005+9999999GD30005+9999999GD40005+9999999GF101015999999999999999999MA1999999085205MW1001EQDN01 00000JPWTH 1QNNE11 1 00201E11 1 00000E11 1 00000E11 1 00000G11U1 99999H11 1 37250H11 1 00999H11 1 00999H11 1 00999K11 1 00025L11 1 03000M11 1 25160N11 1 00000Q11 1 10117S11 1 00034V11 1 00101X11 1 33005
041072464093058197201191200C+38283-104500SAO  +1428PUB  V0200705N004152200059N0480005N9-00065-00445101255ADDAA101000095GA1999+999999034GA2021+076204024GA3999+999999999GA4999+999999999GD11005+9999993GD20025+9999999GD30005+9999999GD40005+9999999GF102005999999999999999999MA1999999085245MW1001EQDQ01    003SCCGA1N01 00000JPWTH 1QNNE11 1 00100E11 1 00002E11 1 00000E11 1 00000G11U1 99999H11 1 23999H11 1 37250H11 1 00999H11 1 00999K11 1 00024L11 1 03000M11 1 25170N11 1 00000Q11 1 10125S11 1 00031V11 1 00200X11 1 07008
041072464093058197201191500C+38283-104500SAO  +1428PUB  V0203605N002152200059N1440005N9-00175-00445101455ADDAA101000095GA1999+999999034GA2071+076204024GA3999+999999999GA4999+999999999GD13005+9999993GD20075+9999999GD30005+9999999GD40005+9999999GF107025999999999999999999MA1999999085305MW1001EQDQ01    003SCCGA1N01 00000JPWTH 1QNNE11 1 00300E11 1 00009E11 1 00000E11 1 00000G11U1 99999H11 1 23999H11 1 37250H11 1 00999H11 1 00999K11 1 00024L11 1 09000M11 1 25190N11 1 00000Q11 1 10145S11 1 00029V11 1 00902X11 1 36004
041072464093058197201191800C+38283-104500SAO  +1428PUB  V0202705N002652200059N1440005N9+01225-00115101285ADDAA101000095GA1021+039624034GA2999+999999034GA3051+082304024GA4999+999999999GD12025+9999999GD22005+9999999GD33055+9999993GD40005+9999999GF107025999999999999999999MA1999999085305MW1001EQDQ01    003SCCGA2N01 00000JPWTH 1QNNE11 1 00203E11 1 00200E11 1 00306E11 1 00000G11U1 99999H11 1 23130H11 1 23999H11 1 37270H11 1 00999K11 1 00030L11 1 09000M11 1 25190N11 1 00000Q11 1 10128S11 1 00054V11 1 00903X11 1 27005
041072464093058197201192100C+38283-104500SAO  +1428PUB  V0202705N010350396249N1440005N9+01725-00225100965ADDAA101000095GA1051+039624034GA2999+999999034GA3031+082304024GA4999+999999999GD13055+9999999GD23005+9999999GD34035+9999999GD40005+9999999GF108055999999999999999999MA1999999085075MW1001EQDQ01    003SCCGA2N01 00000JPWTH 1QNNE11 1 00406E11 1 00400E11 1 00604E11 1 00000G11 1 00130H11 1 23130H11 1 23999H11 1 37270H11 1 00999K11 1 00028L11 1 09000M11 1 25120N11 1 00000Q11 1 10096S11 1 00063V11 1 01006X11 1 27020
039472464093058197201200000C+38283-104500SAO  +1428PUB  V0202905N007250396249N1440005N9+01505-00225101085ADDAA101000095GA1051+039624034GA2011+054864034GA3021+082304024GA4999+999999999GD13055+9999999GD23015+9999999GD33025+9999999GD40005+9999999GF107065999999999999999999MA1999999085105MW1001EQDN01 00000JPWTH 1QNNE11 1 00406E11 1 00401E11 1 00402E11 1 00000G11 1 00130H11 1 23130H11 1 23180H11 1 37270H11 1 00999K11 1 00028L11 1 09000M11 1 25130N11 1 00000Q11 1 10108S11 1 00059V11 1 00908X11 1 29014
034072464093058197201200300C+38283-104500SAO  +1428PUB  V0203105N008850823049N0480005N9+01115-00225101255ADDAA101000095GA1021+045724034GA2061+082304024GD12025+9999999GD24065+9999999GD30995+9999999GD40995+9999999GF108085999999999999999999MA1999999085175MW1001EQDN01 00000JPWTH 1QNNE11 1 00202E11 1 00608E11 1 00099E11 1 00099G11 1 00270H11 1 23150H11 1 37270K11 1 00028L11 1 03000M11 1 25150N11 1 00000Q11 1 10125S11 1 00052V11 1 01010X11 1 31017
041072464093058197201200600C+38283-104500SAO  +1428PUB  V0200805N002152200059N0480005N9+00725-00285101255ADDAA101000095GA1999+999999034GA2021+082304024GA3999+999999999GA4999+999999999GD11005+9999993GD20025+9999999GD30005+9999999GD40005+9999999GF102015999999999999999999MA1999999085345MW1001EQDQ01    003SCCGA1N01 00000JPWTH 1QNNE11 1 00100E11 1 00003E11 1 00000E11 1 00000G11U1 99999H11 1 23999H11 1 37270H11 1 00999H11 1 00999K11 1 00027L11 1 03000M11 1 25200N11 1 00000Q11 1 10125S11 1 00045V11 1 00301X11 1 08004
041072464093058197201200900C+38283-104500SAO  +1428PUB  V0201505N002652200059N0480005N9+00335-00285101235ADDAA101000095GA1999+999999034GA2031+076204024GA3999+999999999GA4999+999999999GD11005+9999993GD20035+9999999GD30005+9999999GD40005+9999999GF103015999999999999999999MA1999999085345MW1001EQDQ01    003SCCGA1N01 00000JPWTH 1QNNE11 1 00100E11 1 00004E11 1 00000E11 1 00000G11U1 99999H11 1 23999H11 1 37250H11 1 00999H11 1 00999K11 1 00027L11 1 03000M11 1 25200N11 1 00000Q11 1 10123S11 1 00038V11 1 00401X11 1 15005
039472464093058197201201200C+38283-104500SAO  +1428PUB  V0203505N005752200059N0480005N9+00225-00285101365ADDAA101000095GA1021+042674034GA2021+076204024GA3999+999999999GA4999+999999999GD12025+9999999GD21025+9999993GD30005+9999999GD40005+9999999GF104025999999999999999999MA1999999085405MW1001EQDN01 00000JPWTH 1QNNE11 1 00202E11 1 00103E11 1 00000E11 1 00000G11U1 99999H11 1 23140H11 1 37250H11 1 00999H11 1 00999K11 1 00027L11 1 03000M11 1 25220N11 1 00000Q11 1 10136S11 1 00036V11 1 00502X11 1 35011
039472464093058197201201500C+38283-104500SAO  +1428PUB  V0202705N002652200059N1440005N9+00065-00335101655ADDAA101000095GA1011+030484034GA2021+045724034GA3021+076204024GA4999+999999999GD12015+9999999GD22025+9999999GD32025+9999999GD40005+9999999GF104035999999999999999999MA1999999085545MW1001EQDN01 00000JPWTH 1QNNE11 1 00201E11 1 00202E11 1 00202E11 1 00000G11U1 99999H11 1 23100H11 1 23150H11 1 37250H11 1 00999K11 1 00026L11 1 09000M11 1 25260N11 1 00000Q11 1 10165S11 1 00033V11 1 00504X11 1 27005
042672464093058197201201800C+38283-104500SAO  +1428PUB  V0201205N002652200059N1440005N9+01115-00065101645ADDAA101000095GA1999+999999064GA2999+999999034GA3061+076204004GA4999+999999999GD13005+9999993GD20005+9999999GD30065+9999999GD40005+9999999GF106015999999999999999999MA1999999085645MW1001EQDQ01    003SCCGA1Q02    003SCCGA2N01 00000JPWTH 1QNNE11 1 00300E11 1 00000E11 1 00007E11 1 00000G11U1 99999H11 1 15999H11 1 23999H11 1 32250H11 1 00999K11 1 00031L11 1 09000M11 1 25290N11 1 00000Q11 1 10164S11 1 00052V11 1 00701X11 1 12005
041072464093058197201202100C+38283-104500SAO  +1428PUB  V0201205N003152200059N1440005N9+01445-00065101365ADDAA101000095GA1999+999999084GA2081+076204004GA3999+999999999GA4999+999999999GD14005+9999993GD20085+9999999GD30005+9999999GD40005+9999999GF108035999999999999999999MA1999999085375MW1001EQDQ01    003SCCGA1N01 00000JPWTH 1QNNE11 1 00500E11 1 00010E11 1 00000E11 1 00000G11U1 99999H11 1 11999H11 1 32250H11 1 00999H11 1 00999K11 1 00031L11 1 09000M11 1 25210N11 1 00000Q11 1 10136S11 1 00058V11 1 01004X11 1 12006
041072464093058197201210000C+38283-104500SAO  +1428PUB  V0200805N004152200059N1440005N9+01065-00065101515ADDAA101000095GA1999+999999064GA2021+054864034GA3061+076204024GA4999+999999999GD12005+9999999GD24025+9999993GD30065+9999999GD40005+9999999GF108025999999999999999999MA1999999085445MW1001EQDQ01    003SCCGA1N01 00000JPWTH 1QNNE11 1 00200E11 1 00502E11 1 00008E11 1 00000G11U1 99999H11 1 15999H11 1 23180H11 1 37250H11 1 00999K11 1 00031L11 1 09000M11 1 25230N11 1 00000Q11 1 10151S11 1 00051V11 1 01003X11 1 08008
039472464093058197201210300C+38283-104500SAO  +1428PUB  V0200505N002650762049N0480005N9+00505-00065101795ADDAA101000095GA1081+076204024GA2999+999999999GA3999+999999999GA4999+999999999GD14085+9999999GD20005+9999999GD30005+9999999GD40005+9999999GF108075999999999999999999MA1999999085545MW1001EQDN01 00000JPWTH 1QNNE11 1 00610E11 1 00000E11 1 00000E11 1 00000G11 1 00250H11 1 37250H11 1 00999H11 1 00999H11 1 00999K11 1 00031L11 1 03000M11 1 25260N11 1 00000Q11 1 10179S11 1 00041V11 1 01009X11 1 05005
041072464093058197201210600C+38283-104500SAO  +1428PUB  V02099959000052200059N0480005N9+00005-00285101655ADDAA101000095GA1999+999999024GA2999+999999999GA3999+999999999GA4999+999999999GD10005+9999999GD20005+9999999GD30005+9999999GD40005+9999999GF100005999999999999999999MA1999999085545MW1001EQDQ01    003SCCGA1N01 00000JPWTH 1QNNE11 1 00000E11 1 00000E11 1 00000E11 1 00000G11U1 99999H11 1 37999H11 1 00999H11 1 00999H11 1 00999K11 1 00027L11 1 03000M11 1 25260N11 1 00000Q11 1 10165S11 1 00032V11 1 00000X11 1 00000
018272464093058197201210900C+38283-104500SAO  +1428PUB  V0201705N002652200059N0480005N9-00445-00615101415ADDAA101000095GF100005999999999999999999MA1999999085305MW1001EQDN01 00000JPWTH 1QNNG11U1 99999K11 1 00021L11 1 03000M11 1 25190N11 1 00000Q11 1 10141S11 1 00024V11 1 00000X11 1 17005
018272464093058197201211200C+38283-104500SAO  +1428PUB  V0203405N002652200059N0480005N9-00675-00725101265ADDAA101000095GF100005999999999999999999MA1999999085105MW1001EQDN01 00000JPWTH 1QNNG11U1 99999K11 1 00019L11 1 03000M11 1 25130N11 1 00000Q11 1 10126S11 1 00020V11 1 00000X11 1 34005
039472464093058197201211500C+38283-104500SAO  +1428PUB  V0201505N002652200059N0800005N9-00225-00565101055ADDAA101000095GA1061+076204004GA2999+999999999GA3999+999999999GA4999+999999999GD13065+9999993GD20005+9999999GD30005+9999999GD40005+9999999GF106035999999999999999999MA1999999084905MW1001EQDN01 00000JPWTH 1QNNE11 1 00308E11 1 00000E11 1 00000E11 1 00000G11U1 99999H11 1 32250H11 1 00999H11 1 00999H11 1 00999K11 1 00022L11 1 05000M11 1 25070N11 1 00000Q11 1 10105S11 1 00028V11 1 00804X11 1 15005
031372464093058197201211800C+38283-104500SAO  +1428PUB  V0202505N006750548649N1440005N9+01175-00615100585ADDAA101000095GA1081+054864034GD14085+9999999GD20995+9999999GD30995+9999999GD40995+9999999GF108085999999999999999999MA1999999084635MW1001EQDN01 00000JPWTH 1QNNE11 1 00610E11 1 00099E11 1 00099E11 1 00099G11 1 00180H11 1 23180K11 1 00021L11 1 09000M11 1 24990N11 1 00000Q11 1 10058S11 1 00053V11 1 01010X11 1 25013
038372464093058197201212100C+38283-104500SAO  +1428PUB  V0202805N011850762049N1440005N9+01505-00615100205ADDAA101000095GA1999+999999064GA2041+054864034GA3041+076204024GD12005+9999999GD24045+9999999GD30045+9999999GD40995+9999999GF108085999999999999999999MA1999999084295MW1001EQDQ01    003SCCGA1N01 00000JPWTH 1QNNE11 1 00200E11 1 00605E11 1 00005E11 1 00099G11 1 00250H11 1 15999H11 1 23180H11 1 37250K11 1 00021L11 1 09000M11 1 24890N11 1 00000Q11 1 10020S11 1 00059V11 1 01010X11 1 28023
041072464093058197201220000C+38283-104500SAO  +1428PUB  V0203105N005250762049N1440005N9+01505-00395100575ADDAA101000095GA1999+999999064GA2011+036584034GA3011+054864034GA4081+076204024GD12005+9999999GD22015+9999999GD34015+9999999GD40085+9999999GF108085999999999999999999MA1999999084355MW1001EQDQ01    003SCCGA1N01 00000JPWTH 1QNNE11 1 00200E11 1 00201E11 1 00601E11 1 00010G11 1 00250H11 1 15999H11 1 23120H11 1 23180H11 1 37250K11 1 00025L11 1 09000M11 1 24910N11 1 00000Q11 1 10057S11 1 00059V11 1 01010X11 1 31010
039472464093058197201220300C+38283-104500SAO  +1428PUB  V0203105N005252200059N0480005N9+01065-00395100575ADDAA101000095GA1021+045724034GA2081+076204024GA3999+999999999GA4999+999999999GD12025+9999999GD24085+9999993GD30005+9999999GD40005+9999999GF108035999999999999999999MA1999999084595MW1001EQDN01 00000JPWTH 1QNNE11 1 00202E11 1 00510E11 1 00000E11 1 00000G11U1 99999H11 1 23150H11 1 37250H11 1 00999H11 1 00999K11 1 00025L11 1 03000M11 1 24980N11 1 00000Q11 1 10057S11 1 00051V11 1 01004X11 1 31010
039472464093058197201220600C+38283-104500SAO  +1428PUB  V02099959000050457249N0480005N9+00945-00395100455ADDAA101000095GA1051+045724034GA2031+076204024GA3999+999999999GA4999+999999999GD13055+9999999GD24035+9999999GD30005+9999999GD40005+9999999GF108075999999999999999999MA1999999084665MW1001EQDN01 00000JPWTH 1QNNE11 1 00406E11 1 00604E11 1 00000E11 1 00000G11 1 00150H11 1 23150H11 1 37250H11 1 00999H11 1 00999K11 1 00025L11 1 03000M11 1 25000N11 1 00000Q11 1 10045S11 1 00049V11 1 01009X11 1 00000
039472464093058197201220900C+38283-104500SAO  +1428PUB  V0202605N007752200059N0480005N9+00835-00445100385ADDAA101000095GA1021+045724034GA2051+076204024GA3999+999999999GA4999+999999999GD12025+9999999GD23055+9999993GD30005+9999999GD40005+9999999GF106035999999999999999999MA1999999084665MW1001EQDN01 00000JPWTH 1QNNE11 1 00202E11 1 00306E11 1 00000E11 1 00000G11U1 99999H11 1 23150H11 1 37250H11 1 00999H11 1 00999K11 1 00024L11 1 03000M11 1 25000N11 1 00000Q11 1 10038S11 1 00047V11 1 00804X11 1 26015
039472464093058197201221200C+38283-104500SAO  +1428PUB  V0203105N007250762049N0480005N9+00895-00445100315ADDAA101000095GA1021+045724034GA2051+076204024GA3999+999999999GA4999+999999999GD12025+9999999GD23055+9999999GD30005+9999999GD40005+9999999GF106065999999999999999999MA1999999084595MW1001EQDN01 00000JPWTH 1QNNE11 1 00202E11 1 00406E11 1 00000E11 1 00000G11 1 00250H11 1 23150H11 1 37250H11 1 00999H11 1 00999K11 1 00024L11 1 03000M11 1 24980N11 1 00000Q11 1 10031S11 1 00048V11 1 00807X11 1 31014
039472464093058197201221500C+38283-104500SAO  +1428PUB  V0201605N002152200059N1280005N9+00445-00505100535ADDAA101000095GA1011+045724034GA2031+076204004GA3999+999999999GA4999+999999999GD12015+9999999GD21035+9999993GD30005+9999999GD40005+9999999GF104025999999999999999999MA1999999084665MW1001EQDN01 00000JPWTH 1QNNE11 1 00201E11 1 00104E11 1 00000E11 1 00000G11U1 99999H11 1 23150H11 1 32250H11 1 00999H11 1 00999K11 1 00023L11 1 08000M11 1 25000N11 1 00000Q11 1 10053S11 1 00040V11 1 00502X11 1 16004
042672464093058197201221800C+38283-104500SAO  +1428PUB  V0201805N006752200059N1440005N9+01505-00285100215ADDAA101000095GA1999+999999064GA2999+999999034GA3051+076204004GA4999+999999999GD13005+9999993GD20005+9999999GD30055+9999999GD40005+9999999GF105025999999999999999999MA1999999084525MW1001EQDQ01    003SCCGA1Q02    003SCCGA2N01 00000JPWTH 1QNNE11 1 00300E11 1 00000E11 1 00006E11 1 00000G11U1 99999H11 1 15999H11 1 23999H11 1 32250H11 1 00999K11 1 00027L11 1 09000M11 1 24960N11 1 00000Q11 1 10021S11 1 00059V11 1 00602X11 1 18013
041072464093058197201222100C+38283-104500SAO  +1428PUB  V0203005N018552200059N1120005N9+01785-00445099825ADDAA101000095GA1999+999999064GA2061+076204004GA3999+999999999GA4999+999999999GD13005+9999993GD20065+9999999GD30005+9999999GD40005+9999999GF106025999999999999999999MA1999999084225MW1001EQDQ01    003SCCGA1N01 00000JPWTH 1QNNE11 1 00300E11 1 00007E11 1 00000E11 1 00000G11U1 99999H11 1 15999H11 1 32250H11 1 00999H11 1 00999K11 1 00024L11 1 07000M11 1 24870N11 1 00000Q11 1 09982S11 1 00064V11 1 00703X11 1 30036
041072464093058197201230000C+38283-104500SAO  +1428PUB  V0202805N009852200059N1440005N9+01675-00285099925ADDAA101000095GA1999+999999064GA2081+082304024GA3999+999999999GA4999+999999999GD14005+9999993GD20085+9999999GD30005+9999999GD40005+9999999GF108025999999999999999999MA1999999084295MW1001EQDQ01    003SCCGA1N01 00000JPWTH 1QNNE11 1 00500E11 1 00010E11 1 00000E11 1 00000G11U1 99999H11 1 15999H11 1 37270H11 1 00999H11 1 00999K11 1 00027L11 1 09000M11 1 24890N11 1 00000Q11 1 09992S11 1 00062V11 1 01003X11 1 28019
041072464093058197201230300C+38283-104500SAO  +1428PUB  V0202905N010352200059N0480005N9+01285-00285100225ADDAA101000095GA1999+999999034GA2061+076204024GA3999+999999999GA4999+999999999GD13005+9999993GD20065+9999999GD30005+9999999GD40005+9999999GF106025999999999999999999MA1999999084425MW1001EQDQ01    003SCCGA1N01 00000JPWTH 1QNNE11 1 00300E11 1 00007E11 1 00000E11 1 00000G11U1 99999H11 1 23999H11 1 37250H11 1 00999H11 1 00999K11 1 00027L11 1 03000M11 1 24930N11 1 00000Q11 1 10022S11 1 00055V11 1 00702X11 1 29020
041072464093058197201230600C+38283-104500SAO  +1428PUB  V0200105N005252200059N0480005N9+01005-00395100235ADDAA101000095GA1999+999999034GA2031+076204024GA3999+999999999GA4999+999999999GD11005+9999993GD20035+9999999GD30005+9999999GD40005+9999999GF103015999999999999999999MA1999999084565MW1001EQDQ01    003SCCGA1N01 00000JPWTH 1QNNE11 1 00100E11 1 00004E11 1 00000E11 1 00000G11U1 99999H11 1 23999H11 1 37250H11 1 00999H11 1 00999K11 1 00025L11 1 03000M11 1 24970N11 1 00000Q11 1 10023S11 1 00050V11 1 00401X11 1 01010
039472464093058197201230900C+38283-104500SAO  +1428PUB  V0200505N002152200059N0480005N9+01005-00445100155ADDAA101000095GA1031+076204004GA2999+999999999GA3999+999999999GA4999+999999999GD11035+9999993GD20005+9999999GD30005+9999999GD40005+9999999GF103015999999999999999999MA1999999084525MW1001EQDN01 00000JPWTH 1QNNE11 1 00104E11 1 00000E11 1 00000E11 1 00000G11U1 99999H11 1 32250H11 1 00999H11 1 00999H11 1 00999K11 1 00024L11 1 03000M11 1 24960N11 1 00000Q11 1 10015S11 1 00050V11 1 00401X11 1 05004
039472464093058197201231200C+38283-104500SAO  +1428PUB  V0203005N007752200059N0480005N9+01005-00615100095ADDAA101000095GA1051+076204004GA2999+999999999GA3999+999999999GA4999+999999999GD13055+9999993GD20005+9999999GD30005+9999999GD40005+9999999GF105025999999999999999999MA1999999084465MW1001EQDN01 00000JPWTH 1QNNE11 1 00306E11 1 00000E11 1 00000E11 1 00000G11U1 99999H11 1 32250H11 1 00999H11 1 00999H11 1 00999K11 1 00021L11 1 03000M11 1 24940N11 1 00000Q11 1 10009S11 1 00050V11 1 00603X11 1 30015
039472464093058197201231500C+38283-104500SAO  +1428PUB  V0201905N002152200059N1280005N9+00675-00725100335ADDAA101000095GA1021+045724034GA2051+076204004GA3999+999999999GA4999+999999999GD12025+9999999GD23055+9999993GD30005+9999999GD40005+9999999GF106035999999999999999999MA1999999084565MW1001EQDN01 00000JPWTH 1QNNE11 1 00202E11 1 00306E11 1 00000E11 1 00000G11U1 99999H11 1 23150H11 1 32250H11 1 00999H11 1 00999K11 1 00019L11 1 08000M11 1 24970N11 1 00000Q11 1 10033S11 1 00044V11 1 00804X11 1 19004
039472464093058197201231800C+38283-104500SAO  +1428PUB  V0201605N004652200059N1440005N9+01785-00895100095ADDAA101000095GA1071+076204024GA2999+999999999GA3999+999999999GA4999+999999999GD13075+9999993GD20005+9999999GD30005+9999999GD40005+9999999GF107025999999999999999999MA1999999084465MW1001EQDN01 00000JPWTH 1QNNE11 1 00309E11 1 00000E11 1 00000E11 1 00000G11U1 99999H11 1 37250H11 1 00999H11 1 00999H11 1 00999K11 1 00016L11 1 09000M11 1 24940N11 1 00000Q11 1 10009S11 1 00064V11 1 00902X11 1 16009
041072464093058197201232100C+38283-104500SAO  +1428PUB  V0200605N003652200059N1440005N9+01895-00445099555ADDAA101000095GA1999+999999034GA2021+076204004GA3999+999999999GA4999+999999999GD11005+9999993GD20025+9999999GD30005+9999999GD40005+9999999GF102015999999999999999999MA1999999084025MW1001EQDQ01    003SCCGA1N01 00000JPWTH 1QNNE11 1 00100E11 1 00003E11 1 00000E11 1 00000G11U1 99999H11 1 23999H11 1 32250H11 1 00999H11 1 00999K11 1 00024L11 1 09000M11 1 24810N11 1 00000Q11 1 09955S11 1 00066V11 1 00301X11 1 06007
041072464093058197201240000C+38283-104500SAO  +1428PUB  V0202505N008852200059N1440005N9+01675-00895099535ADDAA101000095GA1999+999999034GA2021+076204004GA3999+999999999GA4999+999999999GD11005+9999993GD20025+9999999GD30005+9999999GD40005+9999999GF102005999999999999999999MA1999999083985MW1001EQDQ01    003SCCGA1N01 00000JPWTH 1QNNE11 1 00100E11 1 00002E11 1 00000E11 1 00000G11U1 99999H11 1 23999H11 1 32250H11 1 00999H11 1 00999K11 1 00016L11 1 09000M11 1 24800N11 1 00000Q11 1 09953S11 1 00062V11 1 00200X11 1 25017
039472464093058197201240300C+38283-104500SAO  +1428PUB  V0202205N005752200059N0480005N9+01115-01065099675ADDAA101000095GA1021+076204024GA2999+999999999GA3999+999999999GA4999+999999999GD11025+9999993GD20005+9999999GD30005+9999999GD40005+9999999GF102005999999999999999999MA1999999083985MW1001EQDN01 00000JPWTH 1QNNE11 1 00102E11 1 00000E11 1 00000E11 1 00000G11U1 99999H11 1 37250H11 1 00999H11 1 00999H11 1 00999K11 1 00013L11 1 03000M11 1 24800N11 1 00000Q11 1 09967S11 1 00052V11 1 00200X11 1 22011
039472464093058197201240600C+38283-104500SAO  +1428PUB  V0202705N007752200059N0480005N9+01005-00945099475ADDAA101000095GA1021+076204024GA2999+999999999GA3999+999999999GA4999+999999999GD11025+9999993GD20005+9999999GD30005+9999999GD40005+9999999GF102005999999999999999999MA1999999083915MW1001EQDN01 00000JPWTH 1QNNE11 1 00102E11 1 00000E11 1 00000E11 1 00000G11U1 99999H11 1 37250H11 1 00999H11 1 00999H11 1 00999K11 1 00015L11 1 03000M11 1 24780N11 1 00000Q11 1 09947S11 1 00050V11 1 00200X11 1 27015
039472464093058197201240900C+38283-104500SAO  +1428PUB  V0200305N001552200059N0480005N9+00005-01115099745ADDAA101000095GA1021+082304024GA2999+999999999GA3999+999999999GA4999+999999999GD11025+9999993GD20005+9999999GD30005+9999999GD40005+9999999GF102005999999999999999999MA1999999084055MW1001EQDN01 00000JPWTH 1QNNE11 1 00103E11 1 00000E11 1 00000E11 1 00000G11U1 99999H11 1 37270H11 1 00999H11 1 00999H11 1 00999K11 1 00012L11 1 03000M11 1 24820N11 1 00000Q11 1 09974S11 1 00032V11 1 00300X11 1 03003
039472464093058197201241200C+38283-104500SAO  +1428PUB  V0202305N003650823049N0480005N9-00065-00835100475ADDAA101000095GA1071+082304024GA2999+999999999GA3999+999999999GA4999+999999999GD13075+9999999GD20005+9999999GD30005+9999999GD40005+9999999GF107065999999999999999999MA1999999084635MW1001EQDN01 00000JPWTH 1QNNE11 1 00409E11 1 00000E11 1 00000E11 1 00000G11 1 00270H11 1 37270H11 1 00999H11 1 00999H11 1 00999K11 1 00017L11 1 03000M11 1 24990N11 1 00000Q11 1 10047S11 1 00031V11 1 00908X11 1 23007
042672464093058197201241500C+38283-104500SAO  +1428PUB  V0203105N007252200059N1440005N9+00175-01285101065ADDAA101000095GA1999+999999064GA2999+999999034GA3999+999999999GA4999+999999999GD10005+9999999GD20005+9999999GD30005+9999999GD40005+9999999GF100005999999999999999999MA1999999085075MW1001EQDQ01    003SCCGA1Q02    003SCCGA2N01 00000JPWTH 1QNNE11 1 00000E11 1 00000E11 1 00000E11 1 00000G11U1 99999H11 1 15999H11 1 23999H11 1 00999H11 1 00999K11 1 00009L11 1 09000M11 1 25120N11 1 00000Q11 1 10106S11 1 00035V11 1 00000X11 1 31014
041072464093058197201241800C+38283-104500SAO  +1428PUB  V0202905N013952200059N1280005N9+00615-01725101305ADDAA101000095GA1999+999999064GA2999+999999999GA3999+999999999GA4999+999999999GD10005+9999999GD20005+9999999GD30005+9999999GD40005+9999999GF100005999999999999999999MA1999999085305MW1001EQDQ01    003SCCGA1N01 00000JPWTH 1QNNE11 1 00000E11 1 00000E11 1 00000E11 1 00000G11U1 99999H11 1 15999H11 1 00999H11 1 00999H11 1 00999K11 1 00001L11 1 08000M11 1 25190N11 1 00000Q11 1 10130S11 1 00043V11 1 00000X11 1 29027
018272464093058197201242100C+38283-104500SAO  +1428PUB  V0203205N014452200059N1280005N9+00895-02335101475ADDAA101000095GF100005999999999999999999MA1999999085345MW1001EQDN01 00000JPWTH 1QNNG11U1 99999K11 1-00010L11 1 08000M11 1 25200N11 1 00000Q11 1 10147S11 1 00048V11 1 00000X11 1 32028
041072464093058197201250000C+38283-104500SAO  +1428PUB  V0203005N010852200059N1440005N9+00725-01785101775ADDAA101000095GA1999+999999024GA2999+999999999GA3999+999999999GA4999+999999999GD10005+9999999GD20005+9999999GD30005+9999999GD40005+9999999GF100005999999999999999999MA1999999085545MW1001EQDQ01    003SCCGA1N01 00000JPWTH 1QNNE11 1 00000E11 1 00000E11 1 00000E11 1 00000G11U1 99999H11 1 37999H11 1 00999H11 1 00999H11 1 00999K11 1 00000L11 1 09000M11 1 25260N11 1 00000Q11 1 10177S11 1 00045V11 1 00000X11 1 30021
018272464093058197201250300C+38283-104500SAO  +1428PUB  V0203005N007752200059N0480005N9+00395-01895102105ADDAA101000095GF100005999999999999999999MA1999999085815MW1001EQDN01 00000JPWTH 1QNNG11U1 99999K11 1-00002L11 1 03000M11 1 25340N11 1 00000Q11 1 10210S11 1 00039V11 1 00000X11 1 30015
018272464093058197201250600C+38283-104500SAO  +1428PUB  V0201105N004152200059N0480005N9-00395-01785102385ADDAA101000095GF100005999999999999999999MA1999999085985MW1001EQDN01 00000JPWTH 1QNNG11U1 99999K11 1 00000L11 1 03000M11 1 25390N11 1 00000Q11 1 10238S11 1 00025V11 1 00000X11 1 11008
018272464093058197201250900C+38283-104500SAO  +1428PUB  V0200105N003152200059N0480005N9-00835-01225102335ADDAA101000095GF100005999999999999999999MA1999999085915MW1001EQDN01 00000JPWTH 1QNNG11U1 99999K11 1 00010L11 1 03000M11 1 25370N11 1 00000Q11 1 10233S11 1 00017V11 1 00000X11 1 01006
018272464093058197201251200C+38283-104500SAO  +1428PUB  V02099959000052200059N0480005N9-01065-01335102315ADDAA101000095GF100005999999999999999999MA1999999085845MW1001EQDN01 00000JPWTH 1QNNG11U1 99999K11 1 00008L11 1 03000M11 1 25350N11 1 00000Q11 1 10231S11 1 00013V11 1 00000X11 1 00000
041072464093058197201251500C+38283-104500SAO  +1428PUB  V02099959000052200059N1120005N9-01005-01335102315ADDAA101000095GA1999+999999034GA2999+999999999GA3999+999999999GA4999+999999999GD10005+9999999GD20005+9999999GD30005+9999999GD40005+9999999GF100005999999999999999999MA1999999085785MW1001EQDQ01    003SCCGA1N01 00000JPWTH 1QNNE11 1 00000E11 1 00000E11 1 00000E11 1 00000G11U1 99999H11 1 23999H11 1 00999H11 1 00999H11 1 00999K11 1 00008L11 1 07000M11 1 25330N11 1 00000Q11 1 10231S11 1 00014V11 1 00000X11 1 00000
041072464093058197201251800C+38283-104500SAO  +1428PUB  V0201205N003152200059N1120005N9-00115-00895102165ADDAA101000095GA1999+999999034GA2021+091444004GA3999+999999999GA4999+999999999GD11005+9999993GD20025+9999999GD30005+9999999GD40005+9999999GF102005999999999999999999MA1999999085685MW1001EQDQ01    003SCCGA1N01 00000JPWTH 1QNNE11 1 00100E11 1 00002E11 1 00000E11 1 00000G11U1 99999H11 1 23999H11 1 32300H11 1 00999H11 1 00999K11 1 00016L11 1 07000M11 1 25300N11 1 00000Q11 1 10216S11 1 00030V11 1 00200X11 1 12006
039472464093058197201252100C+38283-104500SAO  +1428PUB  V0201105N004152200059N1120005N9+00675-00785101605ADDAA101000095GA1021+054864034GA2051+091444004GA3999+999999999GA4999+999999999GD12025+9999999GD23055+9999993GD30005+9999999GD40005+9999999GF107035999999999999999999MA1999999085275MW1001EQDN01 00000JPWTH 1QNNE11 1 00203E11 1 00306E11 1 00000E11 1 00000G11U1 99999H11 1 23180H11 1 32300H11 1 00999H11 1 00999K11 1 00018L11 1 07000M11 1 25180N11 1 00000Q11 1 10160S11 1 00044V11 1 00904X11 1 11008
039472464093058197201260000C+38283-104500SAO  +1428PUB  V0201205N003152200059N1440005N9+00445-00835101655ADDAA101000095GA1021+048774034GA2061+082304024GA3999+999999999GA4999+999999999GD12025+9999999GD24065+9999993GD30005+9999999GD40005+9999999GF108025999999999999999999MA1999999085245MW1001EQDN01 00000JPWTH 1QNNE11 1 00202E11 1 00508E11 1 00000E11 1 00000G11U1 99999H11 1 23160H11 1 37270H11 1 00999H11 1 00999K11 1 00017L11 1 09000M11 1 25170N11 1 00000Q11 1 10165S11 1 00040V11 1 01003X11 1 12006
041072464093058197201260300C+38283-104500SAO  +1428PUB  V0203305N002152200059N0480005N9-00175-01115101795ADDAA101000095GA1999+999999034GA2081+082304024GA3999+999999999GA4999+999999999GD14005+9999993GD20085+9999999GD30005+9999999GD40005+9999999GF108025999999999999999999MA1999999085275MW1001EQDQ01    003SCCGA1N01 00000JPWTH 1QNNE11 1 00500E11 1 00010E11 1 00000E11 1 00000G11U1 99999H11 1 23999H11 1 37270H11 1 00999H11 1 00999K11 1 00012L11 1 03000M11 1 25180N11 1 00000Q11 1 10179S11 1 00029V11 1 01002X11 1 33004
039472464093058197201260600C+38283-104500SAO  +1428PUB  V0202705N002152200059N0480005N9-00505-01225101665ADDAA101000095GA1061+082304024GA2999+999999999GA3999+999999999GA4999+999999999GD13065+9999993GD20005+9999999GD30005+9999999GD40005+9999999GF106005999999999999999999MA1999999085245MW1001EQDN01 00000JPWTH 1QNNE11 1 00307E11 1 00000E11 1 00000E11 1 00000G11U1 99999H11 1 37270H11 1 00999H11 1 00999H11 1 00999K11 1 00010L11 1 03000M11 1 25170N11 1 00000Q11 1 10166S11 1 00023V11 1 00700X11 1 27004
039472464093058197201260900C+38283-104500SAO  +1428PUB  V0203605N003652200059N0480005N9-00835-01225101475ADDAA101000095GA1051+082304024GA2999+999999999GA3999+999999999GA4999+999999999GD13055+9999993GD20005+9999999GD30005+9999999GD40005+9999999GF105025999999999999999999MA1999999085205MW1001EQDN01 00000JPWTH 1QNNE11 1 00306E11 1 00000E11 1 00000E11 1 00000G11U1 99999H11 1 37270H11 1 00999H11 1 00999H11 1 00999K11 1 00010L11 1 03000M11 1 25160N11 1 00000Q11 1 10147S11 1 00017V11 1 00603X11 1 36007
039472464093058197201261200C+38283-104500SAO  +1428PUB  V0201305N004152200059N0480005N9-00565-01175101745ADDAA101000095GA1061+082304024GA2999+999999999GA3999+999999999GA4999+999999999GD13065+9999993GD20005+9999999GD30005+9999999GD40005+9999999GF106035999999999999999999MA1999999085405MW1001EQDN01 00000JPWTH 1QNNE11 1 00308E11 1 00000E11 1 00000E11 1 00000G11U1 99999H11 1 37270H11 1 00999H11 1 00999H11 1 00999K11 1 00011L11 1 03000M11 1 25220N11 1 00000Q11 1 10174S11 1 00022V11 1 00804X11 1 13008
039472464093058197201261500C+38283-104500SAO  +1428PUB  V0201405N007752200059N0800005N9-01065-01335102445ADDAA101000095GA1021+048774034GA2021+082304024GA3999+999999999GA4999+999999999GD12025+9999999GD21025+9999993GD30005+9999999GD40005+9999999GF104025999999999999999999MA1999999085785MW1001EQDN01 00000JPWTH 1QNNE11 1 00202E11 1 00103E11 1 00000E11 1 00000G11U1 99999H11 1 23160H11 1 37270H11 1 00999H11 1 00999K11 1 00008L11 1 05000M11 1 25330N11 1 00000Q11 1 10244S11 1 00013V11 1 00502X11 1 14015
034072464093058197201261800C+38283-104500SAO  +1428PUB  V0201405N003650048849N0160005N9-01005-01445102755ADDAA101000095GA1061+004884064GA2021+082304024GD13065+9999999GD24025+9999999GD30995+9999999GD40995+9999999GF108085999999999999999999MA1999999086015MW1715EQDN01 04000JPWTH 1QNNE11 1 00408E11 1 00602E11 1 00099E11 1 00099G11 1 00016H11 1 15016H11 1 37270K11 1 00006L11 1 01000M11 1 25400N11 1 04000Q11 1 10275S11 1 00014V11 1 01010X11 1 14007
042672464093058197201262100C+38283-104500SAO  +1428PUB  V0200905N005252200059N0240005N9-00725-01445102445ADDAA101000095GA1999+999999064GA2999+999999034GA3031+076204024GA4999+999999999GD12005+9999999GD20005+9999999GD30035+9999999GD40005+9999999GF103025999999999999999999MA1999999085785MW1001EQDQ01    003SCCGA1Q02    003SCCGA2N01 00000JPWTH 1QNNE11 1 00200E11 1 00000E11 1 00004E11 1 00000G11U1 99999H11 1 15999H11 1 23999H11 1 37250H11 1 00999K11 1 00006L11 1 01500M11 1 25330N11 1 00000Q11 1 10244S11 1 00019V11 1 00403X11 1 09010
039472464093058197201270000C+38283-104500SAO  +1428PUB  V0201205N006252200059N0320005N9-00835-01615102465ADDAA101000095GA1031+036584034GA2021+082304024GA3999+999999999GA4999+999999999GD12035+9999999GD23025+9999993GD30005+9999999GD40005+9999999GF105025999999999999999999MA1999999085785MW1001EQDN01 00000JPWTH 1QNNE11 1 00204E11 1 00302E11 1 00000E11 1 00000G11U1 99999H11 1 23120H11 1 37270H11 1 00999H11 1 00999K11 1 00003L11 1 02000M11 1 25330N11 1 00000Q11 1 10246S11 1 00017V11 1 00603X11 1 12012
041072464093058197201270300C+38283-104500SAO  +1428PUB  V0201305N005252200059N0480005N9-01115-01675102745ADDAA101000095GA1999+999999034GA2021+082304024GA3999+999999999GA4999+999999999GD11005+9999993GD20025+9999999GD30005+9999999GD40005+9999999GF102005999999999999999999MA1999999085885MW1001EQDQ01    003SCCGA1N01 00000JPWTH 1QNNE11 1 00100E11 1 00003E11 1 00000E11 1 00000G11U1 99999H11 1 23999H11 1 37270H11 1 00999H11 1 00999K11 1 00002L11 1 03000M11 1 25360N11 1 00000Q11 1 10274S11 1 00012V11 1 00300X11 1 13010
039472464093058197201270600C+38283-104500SAO  +1428PUB  V0201305N006752200059N0480005N9-01285-01785102555ADDAA101000095GA1011+082304024GA2999+999999999GA3999+999999999GA4999+999999999GD12015+9999999GD20005+9999999GD30005+9999999GD40005+9999999GF101015999999999999999999MA1999999085685MW1001EQDN01 00000JPWTH 1QNNE11 1 00201E11 1 00000E11 1 00000E11 1 00000G11U1 99999H11 1 37270H11 1 00999H11 1 00999H11 1 00999K11 1 00000L11 1 03000M11 1 25300N11 1 00000Q11 1 10255S11 1 00009V11 1 00101X11 1 13013
039472464093058197201270900C+38283-104500SAO  +1428PUB  V0201005N003652200059N0480005N9-01505-01835102365ADDAA101000095GA1021+036584034GA2051+082304024GA3999+999999999GA4999+999999999GD12025+9999999GD23055+9999993GD30005+9999999GD40005+9999999GF106035999999999999999999MA1999999085545MW1001EQDN01 00000JPWTH 1QNNE11 1 00202E11 1 00306E11 1 00000E11 1 00000G11U1 99999H11 1 23120H11 1 37270H11 1 00999H11 1 00999K11 1-00001L11 1 03000M11 1 25260N11 1 00000Q11 1 10236S11 1 00005V11 1 00804X11 1 10007
039472464093058197201271200C+38283-104500SAO  +1428PUB  V0201105N001550033549N0480005N9-01615-01895102195ADDAA101000095GA1061+003354064GA2999+999999999GA3999+999999999GA4999+999999999GD13065+9999999GD20005+9999999GD30005+9999999GD40005+9999999GF106065999999999999999999MA1999999085345MW1001EQDN01 00000JPWTH 1QNNE11 1 00408E11 1 00000E11 1 00000E11 1 00000G11 1 00011H11 1 15011H11 1 00999H11 1 00999H11 1 00999K11 1-00002L11 1 03000M11 1 25200N11 1 00000Q11 1 10219S11 1 00003V11 1 00808X11 1 11003
039472464093058197201271500C+38283-104500SAO  +1428PUB  V02099959000050024449N0480005N9-01565-01895102165ADDAA101000095GA1051+002444074GA2011+036584034GA3011+076204024GA4999+999999999GD13055+9999999GD23015+9999999GD33015+9999999GD40005+9999999GF106065999999999999999999MA1999999085275MW1775EQDN01 05600JPWTH 1QNNE11 1 00406E11 1 00401E11 1 00401E11 1 00000G11 1 00008H11 1 16008H11 1 23120H11 1 37250H11 1 00999K11 1-00002L11 1 03000M11 1 25180N11 1 05600Q11 1 10216S11 1 00004V11 1 00808X11 1 00000
