0074724625999991973010101004+37150-107750SAO  +2037DRO  V0209991C000012200019N0240001N9-01301-01501999999ADDAA106000091GF102991999999999999999999MA1101391999999EQDQ01+000020PRSWM2
0074724625999991973010104004+37150-107750SAO  +2037DRO  V0209991C000012200019N0240001N9-01301-01501999999ADDAA106000091GF102991999999999999999999MA1101391999999EQDQ01+000020PRSWM2
0074724625999991973010114004+37150-107750SAO  +2037DRO  V0209991C000019999999N0240001N9-00901-01101999999ADDAA106000091GF107991999999999999999999MA1101901999999EQDQ01+000020PRSWM2
0094724625999991973010118004+37150-107750SAO  +2037DRO  V0209991C000019999999N0032001N9-00601-00901999999ADDAA106999999GF109991999999999999999999MA1102171999999MD1010171+9999MW1701EQDQ01  00002PRCP06
0080724625999991973010120004+37150-107750SAO  +2037DRO  V0200401N002019999999N0032001N9-00301-00701999999ADDAA106999999GF109991999999999999999999MA1102101999999MW1701EQDQ01  00002PRCP06
0074724625999991973010120384+37150-107750SAO  +2037DRO  V0200901N002019999999N0090001N9-00201-00601999999ADDAA106000091GF107991999999999999999999MA1102001999999EQDQ01+000020PRSWM2
0074724625999991973010122004+37150-107750SAO  +2037DRO  V0200801N002519999999N0240001N9-00201-00601999999ADDAA106000091GF107991999999999999999999MA1102001999999EQDQ01+000020PRSWM2
0074724625999991973010123004+37150-107750SAO  +2037DRO  V0209991C000019999999N0600001N9-00401-00701999999ADDAA106000091GF107991999999999999999999MA1102001999999EQDQ01+000020PRSWM2
0088724625999991973010200004+37150-107750SAO  +2037DRO  V0209991C000012200019N0600001N9-00601-00801999999ADDAA106000091GF102991999999999999999999MA1102001999999MD1010121+9999EQDQ01+000020PRSWM2
0074724625999991973010202004+37150-107750SAO  +2037DRO  V0209991C000012200019N0240001N9-01201-01401999999ADDAA106000091GF102991999999999999999999MA1102101999999EQDQ01+000020PRSWM2
0088724625999991973010203004+37150-107750SAO  +2037DRO  V0209991C000012200019N0240001N9-01201-01401999999ADDAA106000091GF102991999999999999999999MA1102101999999MD1010151+9999EQDQ01+000020PRSWM2
0074724625999991973010204004+37150-107750SAO  +2037DRO  V0209991C000012200019N0240001N9-01101-01301999999ADDAA106000091GF102991999999999999999999MA1102101999999EQDQ01+000020PRSWM2
0048724625999991973010213004+37150-107750SAO  +2037DRO  V0209991C000019999999N0240001N9-01201-01401999999ADDAA106000091MA1101691999999EQDQ01+000020PRSWM2
0074724625999991973010214004+37150-107750SAO  +2037DRO  V0209991C000019999999N0240001N9-01101-01301999999ADDAA106000091GF108991999999999999999999MA1101691999999EQDQ01+000020PRSWM2
0074724625999991973010215004+37150-107750SAO  +2037DRO  V0209991C000019999999N0600001N9-01101-01301999999ADDAA106000091GF108991999999999999999999MA1101591999999EQDQ01+000020PRSWM2
0074724625999991973010217004+37150-107750SAO  +2037DRO  V0209991C000019999999N0600001N9-00801-01101999999ADDAA106000091GF108991999999999999999999MA1101591999999EQDQ01+000020PRSWM2
0061724625999991973010218004+37150-107750SAO  +2037DRO  V0209991C000012200019N0700001N9-00301-00801999999ADDAA106000091GF100991999999999999999999MA1101391999999MW1001
0061724625999991973010221004+37150-107750SAO  +2037DRO  V0209991C000012200019N0700001N9-00201-00501999999ADDAA106000091GF100991999999999999999999MA1101081999999MW1001
0061724625999991973010313004+37150-107750SAO  +2037DRO  V0209991C000019999999N0000001N9-01301-01401999999ADDAA106000091GF109991999999999999999999MA1100981999999MW1451
0061724625999991973010313504+37150-107750SAO  +2037DRO  V0209991C000019999999N0000001N9-01301-01401999999ADDAA106000091GF109991999999999999999999MA1100981999999MW1451
0080724625999991973010315004+37150-107750SAO  +2037DRO  V0209991C000019999999N0024001N9-01101+99999999999ADDAA106999999GF109991999999999999999999MA1101191999999MW1701EQDQ01  00002PRCP06
0074724625999991973010317004+37150-107750SAO  +2037DRO  V0209991C000019999999N0090001N9-00701-01001999999ADDAA106000091GF108991999999999999999999MA1101191999999EQDQ01+000020PRSWM2
0080724625999991973010318004+37150-107750SAO  +2037DRO  V0209991C000019999999N0048001N9-00701-00801999999ADDAA106999999GF109991999999999999999999MA1101191999999MW1701EQDQ01  00002PRCP06
0080724625999991973010322004+37150-107750SAO  +2037DRO  V0209991C000019999999N0016001N9-00401-00701999999ADDAA106999999GF109991999999999999999999MA1100981999999MW1701EQDQ01  00002PRCP06
0080724625999991973010400004+37150-107750SAO  +2037DRO  V0209991C000019999999N0016001N9-00601-00701999999ADDAA106999999GF109991999999999999999999MA1100981999999MW1701EQDQ01  00002PRCP06
0080724625999991973010402004+37150-107750SAO  +2037DRO  V0209991C000019999999N0016001N9-00601-00801999999ADDAA106999999GF109991999999999999999999MA1101081999999MW1701EQDQ01  00002PRCP06
0080724625999991973010403004+37150-107750SAO  +2037DRO  V0209991C000019999999N0016001N9-00701-00801999999ADDAA106999999GF109991999999999999999999MA1101081999999MW1701EQDQ01  00002PRCP06
0080724625999991973010404004+37150-107750SAO  +2037DRO  V0209991C000019999999N0016001N9-00701-00801999999ADDAA106999999GF109991999999999999999999MA1101081999999MW1701EQDQ01  00002PRCP06
0080724625999991973010413004+37150-107750SAO  +2037DRO  V0209991C000019999999N0008001N9-00701-00701999999ADDAA106999999GF109991999999999999999999MA1101191999999MW1731EQDQ01  00002PRCP06
0080724625999991973010414004+37150-107750SAO  +2037DRO  V0209991C000019999999N0008001N9-00601-00701999999ADDAA106999999GF109991999999999999999999MA1101081999999MW1731EQDQ01  00002PRCP06
0080724625999991973010415004+37150-107750SAO  +2037DRO  V0209991C000019999999N0048001N9-00601-00701999999ADDAA106999999GF109991999999999999999999MA1101191999999MW1701EQDQ01  00002PRCP06
0080724625999991973010418004+37150-107750SAO  +2037DRO  V0209991C000019999999N0060001N9+00101-00301999999ADDAA106999999GF109991999999999999999999MA1101291999999MW1701EQDQ01  00002PRCP06
0074724625999991973010419004+37150-107750SAO  +2037DRO  V0209991C000019999999N0300001N9+00101-00201999999ADDAA106000091GF107991999999999999999999MA1101191999999EQDQ01+000020PRSWM2
0074724625999991973010422004+37150-107750SAO  +2037DRO  V0200501N001019999999N0300001N9+00001-00301999999ADDAA106000091GF107991999999999999999999MA1100981999999EQDQ01+000020PRSWM2
0074724625999991973010503004+37150-107750SAO  +2037DRO  V0209991C000012200019N0240001N9-00801-00901999999ADDAA106000091GF102991999999999999999999MA1101081999999EQDQ01+000020PRSWM2
0074724625999991973010517004+37150-107750SAO  +2037DRO  V0201801N002012200019N0700001N9-00501-00901999999ADDAA106000091GF102991999999999999999999MA1101591999999EQDQ01+000020PRSWM2
0088724625999991973010521004+37150-107750SAO  +2037DRO  V0201801N002512200019N0700001N9-00201-00801999999ADDAA106000091GF102991999999999999999999MA1101691999999MD1010031+9999EQDQ01+000020PRSWM2
0074724625999991973010613004+37150-107750SAO  +2037DRO  V0209991C000012200019N0240001N9-01701-01701999999ADDAA106000091GF102991999999999999999999MA1101801999999EQDQ01+000020PRSWM2
0074724625999991973010616004+37150-107750SAO  +2037DRO  V0209991C000019999999N0700001N9-01301-01401999999ADDAA106000091GF107991999999999999999999MA1101801999999EQDQ01+000020PRSWM2
0074724625999991973010704004+37150-107750SAO  +2037DRO  V0209991C000012200019N0240001N9-01101-01201999999ADDAA106000091GF102991999999999999999999MA1101291999999EQDQ01+000020PRSWM2
0074724625999991973010712004+37150-107750SAO  +2037DRO  V0209991C000019999999N0240001N9-01201-01301999999ADDAA106000091GF107991999999999999999999MA1101291999999EQDQ01+000020PRSWM2
0074724625999991973010713004+37150-107750SAO  +2037DRO  V0209991C000019999999N0400001N9-01201-01301999999ADDAA106000091GF107991999999999999999999MA1101391999999EQDQ01+000020PRSWM2
0074724625999991973010714004+37150-107750SAO  +2037DRO  V0209991C000019999999N0700001N9-01301-01501999999ADDAA106000091GF107991999999999999999999MA1101491999999EQDQ01+000020PRSWM2
0074724625999991973010720004+37150-107750SAO  +2037DRO  V0209991C000012200019N0700001N9-00301-00901999999ADDAA106000091GF102991999999999999999999MA1101491999999EQDQ01+000020PRSWM2
0074724625999991973010721004+37150-107750SAO  +2037DRO  V0209991C000012200019N0700001N9-00201-00701999999ADDAA106000091GF102991999999999999999999MA1101491999999EQDQ01+000020PRSWM2
0074724625999991973010721504+37150-107750SAO  +2037DRO  V0209991C000012200019N0700001N9-00101-00201999999ADDAA106000091GF102991999999999999999999MA1101391999999EQDQ01+000020PRSWM2
0074724625999991973010723004+37150-107750SAO  +2037DRO  V0209991C000012200019N0700001N9+00001-00201999999ADDAA106000091GF102991999999999999999999MA1101391999999EQDQ01+000020PRSWM2
0061724625999991973010800004+37150-107750SAO  +2037DRO  V0209991C000012200019N0240001N9-00801-01101999999ADDAA106000091GF100991999999999999999999MA1101591999999MW1001
0061724625999991973010802004+37150-107750SAO  +2037DRO  V0209991C000012200019N0240001N9-00901-01201999999ADDAA106000091GF100991999999999999999999MA1101591999999MW1001
0061724625999991973010803004+37150-107750SAO  +2037DRO  V0209991C000012200019N0240001N9-01601-01701999999ADDAA106000091GF100991999999999999999999MA1101801999999MW1001
0075724625999991973010812004+37150-107750SAO  +2037DRO  V0209991C000012200019N0240001N9-01901-02201999999ADDAA106000091GF100991999999999999999999MA1101901999999MD1010091+9999MW1001
0061724625999991973010814004+37150-107750SAO  +2037DRO  V0209991C000012200019N0240001N9-01901-02201999999ADDAA106000091GF100991999999999999999999MA1102001999999MW1001
0088724625999991973010815004+37150-107750SAO  +2037DRO  V0209991C000012200019N0700001N9-01801-02101999999ADDAA106000091GF102991999999999999999999MA1102001999999MD1010131+9999EQDQ01+000020PRSWM2
0074724625999991973010822004+37150-107750SAO  +2037DRO  V0209991C000012200019N0700001N9-00301-00301999999ADDAA106000091GF102991999999999999999999MA1101901999999EQDQ01+000020PRSWM2
0074724625999991973010823004+37150-107750SAO  +2037DRO  V0200401N002012200019N0700001N9-00601-00601999999ADDAA106000091GF102991999999999999999999MA1101901999999EQDQ01+000020PRSWM2
0074724625999991973010901004+37150-107750SAO  +2037DRO  V0209991C000012200019N0240001N9-01101-01201999999ADDAA106000091GF102991999999999999999999MA1101901999999EQDQ01+000020PRSWM2
0088724625999991973010903004+37150-107750SAO  +2037DRO  V0209991C000012200019N0240001N9-01101-01201999999ADDAA106000091GF102991999999999999999999MA1101901999999MD1010101+9999EQDQ01+000020PRSWM2
0080724625999991973010913004+37150-107750SAO  +2037DRO  V0209991C000019999999N0032001N9-00701-01001999999ADDAA106999999GF109991999999999999999999MA1101801999999MW1701EQDQ01  00002PRCP06
0080724625999991973010920004+37150-107750SAO  +2037DRO  V0209991C000019999999N0080001N9-00101-00301999999ADDAA106999999GF109991999999999999999999MA1101491999999MW1701EQDQ01  00002PRCP06
0080724625999991973011002004+37150-107750SAO  +2037DRO  V0209991C000019999999N0016001N9-00301-00301999999ADDAA106999999GF109991999999999999999999MA1101391999999MW1711EQDQ01  00002PRCP06
0080724625999991973011003004+37150-107750SAO  +2037DRO  V0209991C000019999999N0016001N9-00301-00401999999ADDAA106999999GF109991999999999999999999MA1101391999999MW1701EQDQ01  00002PRCP06
0074724625999991973011013004+37150-107750SAO  +2037DRO  V0209991C000019999999N0016001N9-00801-00901999999ADDAA106000091GF109991999999999999999999MA1101191999999EQDQ01+000100PRSWM2
0061724625999991973011013414+37150-107750SAO  +2037DRO  V0209991C000019999999N0000001N9-00901-01101999999ADDAA106000091GF109991999999999999999999MA1101191999999MW1451
0074724625999991973011016004+37150-107750SAO  +2037DRO  V0209991C000019999999N0048001N9-00601-00701999999ADDAA106000091GF109991999999999999999999MA1101391999999EQDQ01+000100PRSWM2
0074724625999991973011020004+37150-107750SAO  +2037DRO  V0209991C000019999999N0160001N9+00101-00201999999ADDAA106000091GF108991999999999999999999MA1101391999999EQDQ01+000020PRSWM2
0074724625999991973011021004+37150-107750SAO  +2037DRO  V0209991C000012200019N0450001N9+00101-00201999999ADDAA106000091GF102991999999999999999999MA1101391999999EQDQ01+000020PRSWM2
0065724625999991973011203004+37150-107750SAO  +2037DRO  V0209991C000012200019N0240001N1+99999+99999999999ADDGD12991+0450093GF102991999999999999999999MA1102811999999MW1001
0065724625999991973011205004+37150-107750SAO  +2037DRO  V0209991C00001002401WN0004001N1-01161-01331999999ADDGD15991+0024099GF109991999999999999999999MA1102841999999MW1451
0065724625999991973011213004+37150-107750SAO  +2037DRO  V0209991C00001000151WN0000001N1-01381-01551999999ADDGD15991+0001599GF109991999999999999999999MA1102781999999MW1451
0065724625999991973011213534+37150-107750SAOSP+2037DRO  V0209991C00001000601WN0004001N1-01501-01661999999ADDGD15991+0006099GF109991999999999999999999MA1102781999999MW1451
0065724625999991973011215004+37150-107750SAO  +2037DRO  V0209991C00001000151WN0000001N1-01501-01661999999ADDGD15991+0001599GF109991999999999999999999MA1102811999999MW1451
0083724625999991973011217554+37150-107750SAOSP+2037DRO  V0209991C00001002101WN0024001N1-01111-01221999999ADDGD15991+0021099GF109991999999999999999999MA1102841999999MW1451REMAWY009BRKS OVHD
0069724625999991973011218004+37150-107750SAO  +2037DRO  V0209999999999002101WN0024001N1+99999+99999999999ADDGD15991+0021099GF109991999999999999999999MW1451REMAWY010QWXQPXPPPP
0080724625999991973011221004+37150-107750SAO  +2037DRO  V0209991C000010450019N1200001N1-00501-01111999999ADDGD12991+0030099GD23991+0450099GF107991999999999999999999MA1102641999999MW1001
0080724625999991973011222004+37150-107750SAO  +2037DRO  V0209991C000012200019N1200001N1-00551-01001999999ADDGD12991+0180099GD23991+0450093GF107991999999999999999999MA1102571999999MW1001
0080724625999991973011222524+37150-107750SAOSP+2037DRO  V0209991C000012200019N1200001N1-00501-00881999999ADDGD12991+0180099GD23991+0450093GF107991999999999999999999MA1102611999999MW1001
0065724625999991973011304004+37150-107750SAO  +2037DRO  V0209991C00001002401WN0004001N1-01331-01501999999ADDGD15991+0024099GF109991999999999999999999MA1102741999999MW1451
0078724625999991973011313004+37150-107750SAO  +2037DRO  V0209991C00001000151WN9999999N9-01661-01831999999ADDGD15991+0001599GF109991999999999999999999MA1102881999999EQDQ01+000002VOVAR 
0065724625999991973011314004+37150-107750SAO  +2037DRO  V0209991C00001000151WN0000001N1-01661-01831999999ADDGD15991+0001599GF109991999999999999999999MA1102951999999MW1451
0065724625999991973011315004+37150-107750SAO  +2037DRO  V0209991C00001000601WN0016001N1-01721-01881999999ADDGD15991+0006099GF109991999999999999999999MA1103011999999MW1451
0050724625999991973011318004+37150-107750SAO  +2037DRO  V0209991C000012200019N1200001N1-00941-01381999999ADDGF100991999999999999999999MA1103121999999MW1001
0050724625999991973011321004+37150-107750SAO  +2037DRO  V0209991C000012200019N0960001N1-00271-00771999999ADDGF100991999999999999999999MA1102911999999MW1001
0050724625999991973011322004+37150-107750SAO  +2037DRO  V0209991C000012200019N1200001N1-00331-00661999999ADDGF100991999999999999999999MA1102951999999MW1001
0050724625999991973011404004+37150-107750SAO  +2037DRO  V0209991C000012200019N0240001N1-01221-01381999999ADDGF100991999999999999999999MA1103151999999MW1001
0089724625999991973011414004+37150-107750SAO  +2037DRO  V0209991C000012200019N0032001N1-01501-01661999999ADDGD16991+0001599GF110991999999999999999999MA1103221999999MW1111REMAWY015F5 F BNKS ALQDS
0124724625999991973011415004+37150-107750SAO  +2037DRO  V0209991C000012200019N0160001N1-01721-01941999999ADDGD16991+0001599GF110991999999999999999999MA1103221999999MW1001REMAWY050F3 VIS E 1 VIS SE&S 1 ALL OTHR     ?     QUADS 10%
0050724625999991973011415484+37150-107750SAOSP+2037DRO  V0209991C000012200019N0800001N1-01381-01551999999ADDGF100991999999999999999999MA1103291999999MW1001
0050724625999991973011417004+37150-107750SAO  +2037DRO  V0209991C000012200019N1200001N1-01161-01331999999ADDGF100991999999999999999999MA1103291999999MW1001
0050724625999991973011419004+37150-107750SAO  +2037DRO  V0209991C000012200019N1200001N1-00721-01221999999ADDGF100991999999999999999999MA1103251999999MW1001
0050724625999991973011421004+37150-107750SAO  +2037DRO  V0209991C000012200019N1200001N1+00051-00661999999ADDGF100991999999999999999999MA1103011999999MW1001
0050724625999991973011422004+37150-107750SAO  +2037DRO  V0209991C000012200019N0960001N1+00271-00111999999ADDGF100991999999999999999999MA1102951999999MW1001
0050724625999991973011500004+37150-107750SAO  +2037DRO  V0209991C000012200019N0960001N1+00001-00221999999ADDGF100991999999999999999999MA1102741999999MW1001
0050724625999991973011503004+37150-107750SAO  +2037DRO  V0209991C000012200019N0240001N1-00881-01001999999ADDGF100991999999999999999999MA1103051999999MW1001
0065724625999991973011519004+37150-107750SAO  +2037DRO  V0209991C000012200019N0960001N1-00611-01051999999ADDGD12991+0540093GF102991999999999999999999MA1102811999999MW1001
0100724625999991973011520004+37150-107750SAO  +2037DRO  V0209991C000012200019N0640001N1+99999+99999999999ADDGD13991+0600093GF107991999999999999999999MA1102511999999MW1001EQDQ01+028703ATOT  Q02+027543ATOD  
0065724625999991973011520354+37150-107750SAOSP+2037DRO  V0209991C000012200019N0960001N1+00111-00611999999ADDGD13991+0540093GF107991999999999999999999MA1102441999999MW1001
0065724625999991973011523004+37150-107750SAO  +2037DRO  V0209991C000012200019N0960001N1+00381-00271999999ADDGD13991+0540093GF107991999999999999999999MA1102271999999MW1001
0065724625999991973011603004+37150-107750SAO  +2037DRO  V0209991C000012200019N0240001N1-00271-00441999999ADDGD14991+0540093GF108991999999999999999999MA1102241999999MW1001
0087724625999991973011618004+37150-107750SAO  +2037DRO  V0209991C000012200019N0960001N1-00331-00881999999ADDGD12991+0540093GF102991999999999999999999MA1102131999999MW1001REMAWY013DEN?DEN C1/12
0050724625999991973011620004+37150-107750SAO  +2037DRO  V0209991C000012200019N1200001N1+00111-00501999999ADDGF100991999999999999999999MA1102001999999MW1001
0050724625999991973011621004+37150-107750SAO  +2037DRO  V0209991C000012200019N1200001N1+00221-00611999999ADDGF100991999999999999999999MA1101901999999MW1001
0050724625999991973011622004+37150-107750SAO  +2037DRO  V0209991C000012200019N1200001N1+00331-00611999999ADDGF100991999999999999999999MA1101801999999MW1001
0065724625999991973011703004+37150-107750SAO  +2037DRO  V0209991C00001045001EN0240001N1-00271-00441999999ADDGD13991+0450099GF107991999999999999999999MA1101761999999MW1001
0065724625999991973011713004+37150-107750SAO  +2037DRO  V0209991C00001001801WN0008001N1-00271-00441999999ADDGD15991+0018099GF109991999999999999999999MA1101321999999MW1711
0065724625999991973011714004+37150-107750SAO  +2037DRO  V0209991C00001001801WN0024001N1-00331-00441999999ADDGD15991+0018099GF109991999999999999999999MA1101321999999MW1711
0050724625999991973011717004+37150-107750SAO  +2037DRO  V0209999999999002401WN0024001N1-00161-00331999999ADDGD15991+0024099GF109991999999999999999999MW1701
0050724625999991973011718004+37150-107750SAO  +2037DRO  V0209999999999002401WN0024001N1-00161-00331999999ADDGD15991+0024099GF109991999999999999999999MW1701
0065724625999991973011720004+37150-107750SAO  +2037DRO  V0209991C00001001801WN0016001N1+00111+00001999999ADDGD15991+0018099GF109991999999999999999999MA1101051999999MW1711
0089724625999991973011721004+37150-107750SAO  +2037DRO  V0202201N00251000901WN0008001N1+99999+99999999999ADDGD15991+0009099GF109991999999999999999999MA1101021999999MW1171MW2731REMAWY009SB55 TB55
0080724625999991973011722004+37150-107750SAO  +2037DRO  V0202301N00361003601EN0240001N1-00051-00221999999ADDGD13991+0036099GD23991+0054099GF107991999999999999999999MA1101021999999MW1001
0080724625999991973011723004+37150-107750SAO  +2037DRO  V0202601N002510135019N0240001N1+00051+00001999999ADDGD12991+0060099GD23991+0135099GF107991999999999999999999MA1101121999999MW1001
0065724625999991973011802004+37150-107750SAO  +2037DRO  V0202301N007712200019N0240001N1-00331-00501999999ADDGD12991+0135099GF102991999999999999999999MA1101321999999MW1001
0065724625999991973011813004+37150-107750SAO  +2037DRO  V0209991C00001012001EN0240001N1-00941-01111999999ADDGD13991+0120099GF107991999999999999999999MA1102031999999MW1001
0080724625999991973011814004+37150-107750SAO  +2037DRO  V0209991C00001003601EN0320001N1-00941-01111999999ADDGD13991+0036099GD23991+0120099GF107991999999999999999999MA1102101999999MW1001
0080724625999991973011821004+37150-107750SAO  +2037DRO  V0209991C000012200019N1200001N1+00001-00271999999ADDGD12991+0024099GD22991+0450093GF102991999999999999999999MA1102301999999MW1001
0080724625999991973011821554+37150-107750SAOSP+2037DRO  V0200401N001512200019N0800001N1+00001-00271999999ADDGD12991+0024099GD22991+0450093GF102991999999999999999999MA1102271999999MW1001
0065724625999991973011903004+37150-107750SAO  +2037DRO  V0209991C00001036001EN0240001N1-00611-00661999999ADDGD13991+0360099GF107991999999999999999999MA1102071999999MW1001
0083724625999991973011914004+37150-107750SAO  +2037DRO  V0209991C00001012001EN0800001N1-00881-01271999999ADDGD14991+0120099GF108991999999999999999999MA1101221999999MW1001REMAWY009BINOVC SE
0065724625999991973011918004+37150-107750SAO  +2037DRO  V0209991C00001018001EN0800001N1-00551-01001999999ADDGD14991+0180099GF108991999999999999999999MA1100881999999MW1001
0065724625999991973011918594+37150-107750SAOSP+2037DRO  V0209991C00001018001EN0800001N1-00271-00721999999ADDGD14991+0180099GF108991999999999999999999MA1100681999999MW1001
0065724625999991973011920004+37150-107750SAO  +2037DRO  V0209991C00001018001EN1200001N1+00001-00441999999ADDGD13991+0180099GF107991999999999999999999MA1100541999999MW1001
0086724625999991973011921004+37150-107750SAO  +2037DRO  V0209991C00001018001EN0960001N1+00001-00441999999ADDGD14991+0180099GF108991999999999999999999MA1100371999999MW1001REMAWY012SWU OMTNS NW
0092724625999991973011922004+37150-107750SAO  +2037DRO  V0202201N00771018001EN0240001N1+00161-00331999999ADDGD14991+0180099GF108991999999999999999999MW1001REMAWY014SWU OMTNS N NWEQDQ01+029963APOA  
0100724625999991973011922374+37150-107750SAOSP+2037DRO  V0200401N00101024001EN0240001N1-00111-00271999999ADDGD14991+0240099GF108991999999999999999999MA1100441999999MW1001REMAWY026SWU ALQDS EXCPT S BINOVC W
0081724625999991973012000004+37150-107750SAO  +2037DRO  V0201901N00251009001EN0240001N1-00051-00221999999ADDGD14991+0090099GF108991999999999999999999MA1100441999999MW1001REMAWY007SWU N-W
0087724625999991973012000484+37150-107750SAOSP+2037DRO  V0209991C00001009001EN0240001N1-00221-00551999999ADDGD13991+0090099GF107991999999999999999999MA1100441999999MW1001REMAWY013SWU OMTNS N-W
0065724625999991973012002004+37150-107750SAO  +2037DRO  V0209991C00001001801WN0008001N1-00221-00271999999ADDGD15991+0018099GF109991999999999999999999MA1100471999999MW1731
0080724625999991973012003004+37150-107750SAO  +2037DRO  V0209991C00001009001EN0240001N1-00271-00441999999ADDGD14991+0090099GF108991999999999999999999MA1100471999999MW1001REMAWY006BINOVC
0065724625999991973012004004+37150-107750SAO  +2037DRO  V0209991C00001009001EN0240001N1-00551-00771999999ADDGD13991+0090099GF107991999999999999999999MA1100411999999MW1001
0065724625999991973012013004+37150-107750SAO  +2037DRO  V0209991C00001003001WN0048001N1-00661-00721999999ADDGD15991+0030099GF109991999999999999999999MA1100411999999MW1701
0065724625999991973012014004+37150-107750SAO  +2037DRO  V0209991C00001002401WN0016001N1-00661-00721999999ADDGD15991+0024099GF109991999999999999999999MA1100471999999MW1711
0098724625999991973012016004+37150-107750SAO  +2037DRO  V0209991C000012200019N0800001N1-00661-00941999999ADDGD12991+0030099GF102991999999999999999999MA1100511999999MW1001REMAWY024SE40 CLDS TPG MTNS ALQDS
0080724625999991973012023004+37150-107750SAO  +2037DRO  V0209991C000012200019N0800001N1+00001-00441999999ADDGD12991+0120099GD23991+0450093GF107991999999999999999999MA1100441999999MW1001
0080724625999991973012100004+37150-107750SAO  +2037DRO  V0209991C000012200019N0800001N1-00441-00661999999ADDGD12991+0120099GD23991+0450093GF107991999999999999999999MA1100541999999MW1001
0096724625999991973012100554+37150-107750SAOSP+2037DRO  V0209991C00001006001EN0240001N1-00661-00771999999ADDGD13991+0060099GF107991999999999999999999MA1100581999999MW1001REMAWY022MTNS OBSCD N-W BY SCUD
0065724625999991973012102004+37150-107750SAO  +2037DRO  V0209991C00001006001EN0240001N1-00551-00611999999ADDGD13991+0060099GF107991999999999999999999MA1100641999999MW1001
0065724625999991973012102494+37150-107750SAOSP+2037DRO  V0209991C00001006001EN0240001N1-00551-00611999999ADDGD14991+0060099GF108991999999999999999999MA1100641999999MW1001
0085724625999991973012104004+37150-107750SAO  +2037DRO  V0209991C00001006001EN0240001N1-00551-00611999999ADDGD13991+0060099GF107991999999999999999999MA1100681999999MW1001REMAWY011FCL SW 0402
0065724625999991973012113004+37150-107750SAO  +2037DRO  V0203101N002512200019N0240001N1-01221-01381999999ADDGD12991+0150099GF102991999999999999999999MA1100581999999MW1001
0065724625999991973012114004+37150-107750SAO  +2037DRO  V0202701N00251003001EN0320001N1-01161-01271999999ADDGD14991+0030099GF108991999999999999999999MA1100611999999MW1001
0065724625999991973012116004+37150-107750SAO  +2037DRO  V0209991C00001003001EN0320001N1-00881-01221999999ADDGD14991+0030099GF108991999999999999999999MA1100681999999MW1001
0101724625999991973012117004+37150-107750SAO  +2037DRO  V0209991C00001003001EN0320001N1-00721-01271999999ADDGD14991+0030099GF108991999999999999999999MA1100681999999MW1001REMAWY027CLDS TPG MTNS ALQDS QXCPT S
0075724625999991973012119004+37150-107750SAO  +2037DRO  V0209991C00001003601EN0640001N1-00271-00611999999ADDGD13991+0036099GF107991999999999999999999MA1100611999999MW1001REMAWY001/
0065724625999991973012122004+37150-107750SAO  +2037DRO  V0209991C000012200019N1200001N1-00271-00611999999ADDGD12991+0600093GF102991999999999999999999MA1100371999999MW1001
0065724625999991973012123004+37150-107750SAO  +2037DRO  V0209991C000012200019N1200001N1-00271-00611999999ADDGD12991+0600093GF102991999999999999999999MA1100411999999MW1001
0065724625999991973012201004+37150-107750SAO  +2037DRO  V0209991C000012200019N1200001N1-00611-00831999999ADDGD12991+0450093GF102991999999999999999999MA1100441999999MW1001
0050724625999991973012203004+37150-107750SAO  +2037DRO  V0209991C000012200019N0240001N1-01221-01381999999ADDGF100991999999999999999999MA1100511999999MW1001
0050724625999991973012204004+37150-107750SAO  +2037DRO  V0209991C000012200019N0240001N1-01331-01501999999ADDGF100991999999999999999999MA1100511999999MW1001
0065724625999991973012216004+37150-107750SAO  +2037DRO  V0209991C000012200019N0960001N1-01551-01771999999ADDGD12991+0240099GF102991999999999999999999MA1101251999999MW1001
0078724625999991973012219004+37150-107750SAO  +2037DRO  V02099999999992200019N0960001N1-00771-01051999999ADDGD12991+0540093GF102991999999999999999999MA1101591999999MW1001REMAWY004E998
0065724625999991973012222004+37150-107750SAO  +2037DRO  V0209991C000012200019N0960001N1-00161-00501999999ADDGD13991+0540093GF107991999999999999999999MA1101561999999MW1001
0065724625999991973012301004+37150-107750SAO  +2037DRO  V0209991C000012200019N0240001N1-00381-00661999999ADDGD12991+0540093GF102991999999999999999999MA1101831999999MW1001
0050724625999991973012302004+37150-107750SAO  +2037DRO  V0209991C000012200019N0240001N1-00661-00881999999ADDGF100991999999999999999999MA1101901999999MW1001
0050724625999991973012303004+37150-107750SAO  +2037DRO  V0209991C000012200019N0240001N1-00881-01221999999ADDGF100991999999999999999999MA1101961999999MW1001
0050724625999991973012316004+37150-107750SAO  +2037DRO  V0209991C000012200019N0960001N1+99999+99999999999ADDGF100991999999999999999999MA1102541999999MW1001
0065724625999991973012318004+37150-107750SAO  +2037DRO  V0209991C000012200019N1200001N1-01051-01331999999ADDGD12991+0540093GF102991999999999999999999MA1102611999999MW1001
0065724625999991973012320004+37150-107750SAO  +2037DRO  V0209991C000012200019N0960001N1-00551-01001999999ADDGD12991+0540093GF102991999999999999999999MA1102571999999MW1001
0050724625999991973012320554+37150-107750SAOSP+2037DRO  V0209991C000012200019N0960001N1-00441-00661999999ADDGF100991999999999999999999MA1102441999999MW1001
0050724625999991973012322004+37150-107750SAO  +2037DRO  V0209991C000012200019N1200001N1-00221-00381999999ADDGF100991999999999999999999MA1102401999999MW1001
0050724625999991973012322484+37150-107750SAOSP+2037DRO  V0209991C000012200019N1200001N1-00331-00501999999ADDGF100991999999999999999999MA1102401999999MW1001
0050724625999991973012401004+37150-107750SAO  +2037DRO  V0209991C000012200019N0240001N1-01111-01221999999ADDGF100991999999999999999999MA1102441999999MW1001
0050724625999991973012403004+37150-107750SAO  +2037DRO  V0209991C000012200019N0240001N1-01111-01221999999ADDGF100991999999999999999999MA1102471999999MW1001
0050724625999991973012413004+37150-107750SAO  +2037DRO  V0209991C000012200019N0240001N1-01771-02001999999ADDGF100991999999999999999999MA1102611999999MW1001
0050724625999991973012420004+37150-107750SAO  +2037DRO  V0209991C000012200019N1200001N1-00161-01001999999ADDGF100991999999999999999999MA1102441999999MW1001
0050724625999991973012421004+37150-107750SAO  +2037DRO  V0209991C000012200019N1200001N1+00001-00611999999ADDGF100991999999999999999999MA1102371999999MW1001
0035724625999991973012422004+37150-107750SAO  +2037DRO  V0209991C000012200019N1200001N1+00111-00381999999ADDGF100991999999999999999999MW1001
0050724625999991973012422024+37150-107750SAOSP+2037DRO  V0209991C000012200019N1200001N1+00111-00381999999ADDGF100991999999999999999999MA1102241999999MW1001
0050724625999991973012423004+37150-107750SAO  +2037DRO  V0209991C000012200019N1200001N1+00161-00381999999ADDGF100991999999999999999999MA1102241999999MW1001
0050724625999991973012502004+37150-107750SAO  +2037DRO  V0209991C000012200019N0240001N1-00551-01001999999ADDGF100991999999999999999999MA1102271999999MW1001
0050724625999991973012502404+37150-107750SAOSP+2037DRO  V0209991C000012200019N0240001N1-00881-01221999999ADDGF100991999999999999999999MA1102271999999MW1001
0050724625999991973012504004+37150-107750SAO  +2037DRO  V0209991C000012200019N0240001N1-01221-01611999999ADDGF100991999999999999999999MA1102271999999MW1001
0050724625999991973012513004+37150-107750SAO  +2037DRO  V0209991C000012200019N0240001N1-01501-01661999999ADDGF100991999999999999999999MA1102031999999MW1001
0050724625999991973012520004+37150-107750SAO  +2037DRO  V0209991C000012200019N1200001N1-00161-00551999999ADDGF100991999999999999999999MA1102001999999MW1001
0050724625999991973012521004+37150-107750SAO  +2037DRO  V0209991C000012200019N1200001N1-00161-00661999999ADDGF100991999999999999999999MA1101901999999MW1001
0065724625999991973012602004+37150-107750SAO  +2037DRO  V0209991C000012200019N0240001N1-00661-00941999999ADDGD12991+0450093GF102991999999999999999999MA1101761999999MW1001
0065724625999991973012613004+37150-107750SAO  +2037DRO  V0209991C000012200019N0240001N1-01271-01381999999ADDGD12991+0600093GF102991999999999999999999MA1101251999999MW1001
0080724625999991973012614004+37150-107750SAO  +2037DRO  V0209991C000012200019N1200001N1-01331-01501999999ADDGD12991+0180099GD22991+0600093GF102991999999999999999999MA1101221999999MW1001
0065724625999991973012617004+37150-107750SAO  +2037DRO  V0209991C00001018001EN1200001N1-00381-00941999999ADDGD13991+0180099GF107991999999999999999999MA1101021999999MW1001
0065724625999991973012617454+37150-107750SAOSP+2037DRO  V0209991C000010180019N1200001N1-00221-00721999999ADDGD13991+0180099GF107991999999999999999999MA1101021999999MW1001
0079724625999991973012702004+37150-107750SAO  +2037DRO  V0209991C00001015001EN0240001N1-00271-00331999999ADDGD14991+0150099GF108991999999999999999999MA1100681999999MW1001REMAWY005SWU N
0065724625999991973012713004+37150-107750SAO  +2037DRO  V0209991C00001036001EN0240001N1+99999+99999999999ADDGD13991+0360099GF107991999999999999999999MA1101801999999MW1001
0108724625999991973012715004+37150-107750SAO  +2037DRO  V0209991C000010360019N0800001N1-01331-01501999999ADDGD12991+0180099GD23991+0360099GF107991999999999999999999MA1101691999999MW1001REMAWY019F BNK ALG MTNS E-SE
0080724625999991973012720004+37150-107750SAO  +2037DRO  V0209991C000012200019N1200001N1-00221-00611999999ADDGD12991+0180099GD22991+0360093GF102991999999999999999999MA1102241999999MW1001
0080724625999991973012721004+37150-107750SAO  +2037DRO  V0209991C000012200019N0960001N1+00161-00501999999ADDGD12991+0180099GD22991+0360093GF102991999999999999999999MA1102201999999MW1001
0065724625999991973012722004+37150-107750SAO  +2037DRO  V0209991C000012200019N0960001N1+00111-00381999999ADDGD12991+0180099GF102991999999999999999999MA1102271999999MW1001
0065724625999991973012723004+37150-107750SAO  +2037DRO  V0209991C000012200019N0960001N1+00051-00331999999ADDGD12991+0180099GF102991999999999999999999MA1102371999999MW1001
0050724625999991973012803004+37150-107750SAO  +2037DRO  V0209991C000012200019N0240001N1-00881-01111999999ADDGF100991999999999999999999MA1102711999999MW1001
0050724625999991973012813004+37150-107750SAO  +2037DRO  V0209991C000012200019N0240001N1-01611-01771999999ADDGF100991999999999999999999MA1103351999999MW1001
0050724625999991973012817004+37150-107750SAO  +2037DRO  V0209991C000012200019N0912001N1-00941-01271999999ADDGF100991999999999999999999MA1103451999999MW1001
0053724625999991973012820004+37150-107750SAO  +2037DRO  V0209991C000019999999N9999999N9+99999-00331999999ADDMA1103351999999EQDQ01+029703ATOT  Q02+000002VOVAR 
0050724625999991973012821004+37150-107750SAO  +2037DRO  V0209991C000012200019N1200001N1+00051-00501999999ADDGF100991999999999999999999MA1103291999999MW1001
0065724625999991973012821504+37150-107750SAOSP+2037DRO  V0209991C000012200019N1200001N1+99999+99999999999ADDGD12991+0540093GF102991999999999999999999MA1103181999999MW1001
0065724625999991973012823004+37150-107750SAO  +2037DRO  V0209991C000012200019N1200001N1-00111-00441999999ADDGD12991+0540099GF102991999999999999999999MA1103151999999MW1001
0065724625999991973012902004+37150-107750SAO  +2037DRO  V0209991C000012200019N0240001N1-00611-00831999999ADDGD12991+0540093GF102991999999999999999999MA1103181999999MW1001
0065724625999991973012903004+37150-107750SAO  +2037DRO  V0209991C000012200019N0240001N1-00831-01051999999ADDGD12991+0540093GF102991999999999999999999MA1103181999999MW1001
0050724625999991973012903354+37150-107750SAOSP+2037DRO  V0209991C000012200019N0240001N1-01051-01161999999ADDGF100991999999999999999999MA1103181999999MW1001
0065724625999991973012915004+37150-107750SAO  +2037DRO  V0209991C000012200019N0960001N1-01501-01661999999ADDGD13991+0540093GF107991999999999999999999MA1102881999999MW1001
0065724625999991973012917004+37150-107750SAO  +2037DRO  V0209991C000012200019N0960001N1-01051-01271999999ADDGD13991+0540093GF107991999999999999999999MA1102841999999MW1001
0065724625999991973012918004+37150-107750SAO  +2037DRO  V0209991C000012200019N0960001N1-00441-00831999999ADDGD13991+0540093GF107991999999999999999999MA1102811999999MW1001
0065724625999991973012920004+37150-107750SAO  +2037DRO  V0209991C00001045001EN0960001N1-00271-00771999999ADDGD13991+0450099GF107991999999999999999999MA1102511999999MW1001
0065724625999991973012921004+37150-107750SAO  +2037DRO  V0209991C00001045001EN0960001N1-00111-00551999999ADDGD13991+0450099GF107991999999999999999999MA1102471999999MW1001
0065724625999991973012922004+37150-107750SAO  +2037DRO  V0209991C00001045001EN0960001N1+00111-00331999999ADDGD14991+0450099GF108991999999999999999999MA1102371999999MW1001
0065724625999991973012922594+37150-107750SAOSP+2037DRO  V0209991C00001045001EN0960001N1+00221-00221999999ADDGD14991+0450099GF108991999999999999999999MA1102271999999MW1001
0065724625999991973013001004+37150-107750SAO  +2037DRO  V0209991C00001045001EN0240001N1-00111-00381999999ADDGD13991+0450099GF107991999999999999999999MA1102101999999MW1001
0065724625999991973013002004+37150-107750SAO  +2037DRO  V0209991C000012200019N0240001N1-00441-00661999999ADDGD12991+0450099GF102991999999999999999999MA1102071999999MW1001
0065724625999991973013004004+37150-107750SAO  +2037DRO  V0209991C000012200019N0240001N1-00661-00881999999ADDGD12991+0450099GF102991999999999999999999MA1101961999999MW1001
0065724625999991973013018004+37150-107750SAO  +2037DRO  V0209991C000012200019N1200001N1-00771-01271999999ADDGD13991+0540093GF107991999999999999999999MA1101461999999MW1001
0065724625999991973013021004+37150-107750SAO  +2037DRO  V0209991C000012200019N1200001N1+00111-00721999999ADDGD13991+0540093GF107991999999999999999999MA1101051999999MW1001
0065724625999991973013103004+37150-107750SAO  +2037DRO  V0209991C00001220001EN0240001N1-00271-00771999999ADDGD13991+0450093GF107991999999999999999999MA1100711999999MW1001
0065724625999991973013104004+37150-107750SAO  +2037DRO  V0209991C00001045001EN0240001N1-00271-00771999999ADDGD13991+0450099GF107991999999999999999999MA1100641999999MW1001
0071724625999991973013113004+37150-107750SAO  +2037DRO  V0209991C00001003001WN0096001N1-00501-00551999999ADDGD15991+0030099GF109991999999999999999999MA1100241999999MW1451MW2701
0113724625999991973013113554+37150-107750SAOSP+2037DRO  V0209991C000010030019N0064001N1-00501-00551999999ADDGD16991+0001599GD23991+0030099GF107991999999999999999999MA1100271999999MW1451REMAWY024VIS E 1 BIS SE 1 NE 3 F3
0080724625999991973013115004+37150-107750SAO  +2037DRO  V0209991C000010030019N0048001N1-00501-00551999999ADDGD16991+0001599GD23991+0030099GF107991999999999999999999MA1100271999999MW1111
0099724625999991973013121004+37150-107750SAO  +2037DRO  V0202201N00511006001EN0640001N1+00111-00441999999ADDGD13991+0060099GF107991999999999999999999MA1100271999999MW1001REMAWY025SWU MTNS NW THRU NE AND E
0065724625999991973020102004+37150-107750SAO  +2037DRO  V0202001N002512200019N0240001N1-00381-00611999999ADDGD12991+0240099GF102991999999999999999999MA1100581999999MW1001
0065724625999991973020104004+37150-107750SAO  +2037DRO  V0209991C000012200019N0240001N1-00771-00881999999ADDGD12991+0240099GF102991999999999999999999MA1100711999999MW1001
0080724625999991973020114004+37150-107750SAO  +2037DRO  V0209991C00001002401EN0160001N1-01331-01501999999ADDGD13991+0024099GD24991+0036099GF108991999999999999999999MA1101351999999MW1001
0080724625999991973020115004+37150-107750SAO  +2037DRO  V0209991C00001002401EN0240001N1-01051-01331999999ADDGD13991+0024099GD24991+0036099GF108991999999999999999999MA1101491999999MW1001
0080724625999991973020117004+37150-107750SAO  +2037DRO  V0209991C00001006001EN0800001N1-00551-00721999999ADDGD13991+0060099GD24991+0075099GF108991999999999999999999MA1101761999999MW1001
0065724625999991973020119004+37150-107750SAO  +2037DRO  V0209991C000012200019N1200001N1-00221-00611999999ADDGD12991+0060099GF102991999999999999999999MA1101801999999MW1001
0065724625999991973020120004+37150-107750SAO  +2037DRO  V0209991C000012200019N1200001N1-00221-00501999999ADDGD12991+0060099GF102991999999999999999999MA1101761999999MW1001
0050724625999991973020121004+37150-107750SAO  +2037DRO  V0209991C000012200019N1200001N1-00161-00441999999ADDGF100991999999999999999999MA1101761999999MW1001
0050724625999991973020121504+37150-107750SAOSP+2037DRO  V0200501N002512200019N1200001N1-00051-00501999999ADDGF100991999999999999999999MA1101801999999MW1001
0065724625999991973020212004+37150-107750SAO  +2037DRO  V0209991C000012200019N0240001N1-01611-02001999999ADDGD12991+0240099GF102991999999999999999999MA1102511999999MW1001
0050724625999991973020217004+37150-107750SAO  +2037DRO  V0209991C000012200019N0640001N1-01271-01551999999ADDGF100991999999999999999999MA1102781999999MW1001
0050724625999991973020219004+37150-107750SAO  +2037DRO  V0209991C000012200019N1200001N1-00771-01111999999ADDGF100991999999999999999999MA1102781999999MW1001
0050724625999991973020221004+37150-107750SAO  +2037DRO  V0209991C000012200019N1200001N1-00221-00721999999ADDGF100991999999999999999999MA1102571999999MW1001
0050724625999991973020223004+37150-107750SAO  +2037DRO  V0209991C000012200019N1200001N1+00001-00611999999ADDGF100991999999999999999999MA1102541999999MW1001
0050724625999991973020302004+37150-107750SAO  +2037DRO  V0209991C000012200019N0240001N1-00611-00831999999ADDGF100991999999999999999999MA1102541999999MW1001
0050724625999991973020303004+37150-107750SAO  +2037DRO  V0209991C000012200019N0240001N1-00941-01051999999ADDGF100991999999999999999999MA1102541999999MW1001
0050724625999991973020313004+37150-107750SAO  +2037DRO  V0209991C000012200019N0240001N1-01551-01721999999ADDGF100991999999999999999999MA1102441999999MW1001
0065724625999991973020315004+37150-107750SAO  +2037DRO  V0209991C000012200019N1200001N1-01381-01661999999ADDGD12991+0450099GF102991999999999999999999MA1102401999999MW1001
0065724625999991973020317004+37150-107750SAO  +2037DRO  V0209991C000012200019N1200001N1-00881-01221999999ADDGD12991+0450099GF102991999999999999999999MA1102441999999MW1001
0065724625999991973020317574+37150-107750SAOSP+2037DRO  V0209991C000012200019N1200001N1-00441-01221999999ADDGD12991+0450099GF102991999999999999999999MA1102441999999MW1001
0065724625999991973020319004+37150-107750SAO  +2037DRO  V0209991C000012200019N1200001N1+00001-00721999999ADDGD12991+0450099GF102991999999999999999999MA1102341999999MW1001
0080724625999991973020320004+37150-107750SAO  +2037DRO  V0209991C000012200019N1200001N1+00111-00611999999ADDGD12991+0240099GD22991+0450099GF102991999999999999999999MA1102201999999MW1001
0080724625999991973020321004+37150-107750SAO  +2037DRO  V0209991C000012200019N0960001N1+00501-00501999999ADDGD12991+0240099GD22991+0450099GF102991999999999999999999MA1102171999999MW1001
0065724625999991973020321514+37150-107750SAOSP+2037DRO  V0200601N00201045001EN1200001N1+00501-00501999999ADDGD14991+0450099GF108991999999999999999999MA1102131999999MW1001
0065724625999991973020323004+37150-107750SAO  +2037DRO  V0209991C00001030001EN1200001N1+00331-00441999999ADDGD14991+0300099GF108991999999999999999999MA1102171999999MW1001
0065724625999991973020401004+37150-107750SAO  +2037DRO  V0209991C00001024001EN0240001N1+00051-00661999999ADDGD13991+0240099GF107991999999999999999999MA1102241999999MW1001
0065724625999991973020401384+37150-107750SAOSP+2037DRO  V0209991C00001024001EN0240001N1+00051-00661999999ADDGD13991+0240099GF107991999999999999999999MA1102241999999MW1001
0065724625999991973020403004+37150-107750SAO  +2037DRO  V0209991C00001024001EN0240001N1-00051-00661999999ADDGD13991+0240099GF107991999999999999999999MA1102241999999MW1001
0065724625999991973020413004+37150-107750SAO  +2037DRO  V0209991C000012200019N0240001N1-00551-01001999999ADDGD12991+0180099GF102991999999999999999999MA1102241999999MW1001
0065724625999991973020413524+37150-107750SAOSP+2037DRO  V0209991C00001018001EN1200001N1-00611-01051999999ADDGD13991+0180099GF107991999999999999999999MA1102271999999MW1001
0065724625999991973020415004+37150-107750SAO  +2037DRO  V0209991C00001015001EN1200001N1-00551-01051999999ADDGD13991+0150099GF107991999999999999999999MA1102271999999MW1001
0080724625999991973020418004+37150-107750SAO  +2037DRO  V0209991C000010450019N1200001N1+00161-00331999999ADDGD12991+0180099GD23991+0450099GF107991999999999999999999MA1102371999999MW1001
0080724625999991973020419004+37150-107750SAO  +2037DRO  V0209991C000010450019N1200001N1+00331-00271999999ADDGD12991+0180099GD24991+0450099GF108991999999999999999999MA1102301999999MW1001
0080724625999991973020420004+37150-107750SAO  +2037DRO  V0209991C000010450019N1200001N1+00501-00221999999ADDGD12991+0180099GD24991+0450099GF108991999999999999999999MA1102241999999MW1001
0080724625999991973020421004+37150-107750SAO  +2037DRO  V0209991C000010450019N0960001N1+00501-00221999999ADDGD12991+0180099GD24991+0450099GF108991999999999999999999MA1102171999999MW1001
0080724625999991973020422004+37150-107750SAO  +2037DRO  V0209991C000010360019N0960001N1+00551-00051999999ADDGD12991+0180099GD24991+0360099GF108991999999999999999999MA1102031999999MW1001
0080724625999991973020422354+37150-107750SAOSP+2037DRO  V0209991C000010360019N0960001N1+00551-00051999999ADDGD12991+0180099GD24991+0360099GF108991999999999999999999MA1102071999999MW1001
0080724625999991973020500004+37150-107750SAO  +2037DRO  V0209991C000010360019N0960001N1+00381+00051999999ADDGD12991+0180099GD24991+0360099GF108991999999999999999999MA1102031999999MW1001
0065724625999991973020503004+37150-107750SAO  +2037DRO  V0209991C00001036001EN0240001N1-00051-00381999999ADDGD14991+0360099GF108991999999999999999999MA1102131999999MW1001
0065724625999991973020515004+37150-107750SAO  +2037DRO  V0209991C000012200019N0960001N1-00881-01051999999ADDGD12991+0540093GF102991999999999999999999MA1102271999999MW1001
0050724625999991973020517004+37150-107750SAO  +2037DRO  V0209991C000012200019N0960001N1-00271-00611999999ADDGF100991999999999999999999MA1102401999999MW1001
0050724625999991973020518004+37150-107750SAO  +2037DRO  V0209991C000012200019N1200001N1-00051-00661999999ADDGF100991999999999999999999MA1102441999999MW1001
0050724625999991973020518504+37150-107750SAOSP+2037DRO  V0209991C000012200019N1200001N1+00331-00271999999ADDGF100991999999999999999999MA1102441999999MW1001
0050724625999991973020523004+37150-107750SAO  +2037DRO  V0209991C000012200019N1200001N1+00611-00161999999ADDGF100991999999999999999999MA1102241999999MW1001
0050724625999991973020602004+37150-107750SAO  +2037DRO  V0209991C000012200019N0240001N1-00161-00441999999ADDGF100991999999999999999999MA1102371999999MW1001
0065724625999991973020603004+37150-107750SAO  +2037DRO  V0209991C000012200019N0240001N1-00271-00441999999ADDGD12991+0450093GF102991999999999999999999MA1102371999999MW1001
0065724625999991973020615004+37150-107750SAO  +2037DRO  V0209991C00001018001EN0640001N1-00381-00721999999ADDGD14991+0180099GF108991999999999999999999MA1102131999999MW1001
0065724625999991973020617004+37150-107750SAO  +2037DRO  V0209991C00001015001EN0640001N1-00051-00501999999ADDGD14991+0150099GF108991999999999999999999MA1102241999999MW1001
0083724625999991973020618004+37150-107750SAO  +2037DRO  V0209991C00001009001EN0320001N1+00161-00331999999ADDGD14991+0090099GF108991999999999999999999MA1102241999999MW1001REMAWY009SWU ALQDS
0065724625999991973020619004+37150-107750SAO  +2037DRO  V0200401N00301003001WN0032001N1-00051-00271999999ADDGD15991+0030099GF109991999999999999999999MA1102201999999MW1701
0065724625999991973020620004+37150-107750SAO  +2037DRO  V0209991C00001003001WN0032001N1+00001-00051999999ADDGD15991+0030099GF109991999999999999999999MA1102131999999MW1701
0071724625999991973020622004+37150-107750SAO  +2037DRO  V0209991C00001003001WN0016001N1+00161+99999999999ADDGD15991+0030099GF109991999999999999999999MA1102001999999MW1451MW2701
0071724625999991973020622584+37150-107750SAOSP+2037DRO  V0209991C00001003001WN0032001N1+00051-00051999999ADDGD15991+0030099GF109991999999999999999999MA1102001999999MW1451MW2701
0071724625999991973020700004+37150-107750SAO  +2037DRO  V0209991C00001003001WN0032001N1+00051+99999999999ADDGD15991+0030099GF109991999999999999999999MA1101931999999MW1451MW2701
0071724625999991973020702004+37150-107750SAO  +2037DRO  V0209991C00001002401WN0016001N1+00001+99999999999ADDGD15991+0024099GF109991999999999999999999MA1101931999999MW1451MW2701
0071724625999991973020704004+37150-107750SAO  +2037DRO  V0209991C00001002401WN0016001N1+00001+99999999999ADDGD15991+0024099GF109991999999999999999999MA1101931999999MW1451MW2701
0071724625999991973020714004+37150-107750SAO  +2037DRO  V0209991C00001002401WN0032001N1+00001+99999999999ADDGD15991+0024099GF109991999999999999999999MA1101831999999MW1451MW2701
0071724625999991973020715004+37150-107750SAO  +2037DRO  V0209991C00001001801WN0008001N1+00001+99999999999ADDGD15991+0018099GF109991999999999999999999MA1101861999999MW1451MW2711
0080724625999991973020718004+37150-107750SAO  +2037DRO  V0209991C00001001801EN0160001N1+00381+00161999999ADDGD13991+0018099GF107991999999999999999999MW1001REMAWY02100?/F BNKS MTNS ALQDS
0123724625999991973020721004+37150-107750SAO  +2037DRO  V0209991C000010450019N0320001N1+00441+00111999999ADDGD12991+0024099GD22991+0120099GD33991+0450099GF107991999999999999999999MA1101691999999MW1001REMAWY019CLDS TPG MTNS ALQDS
0115724625999991973020722004+37150-107750SAO  +2037DRO  V0209991C000010450019N0240001N1+00221+00051999999ADDGD12991+0024099GD22991+0120099GD33991+0450099GF107991999999999999999999MA1101631999999MW1001REMAWY011SWU S SWU N
0095724625999991973020722574+37150-107750SAOSP+2037DRO  V0209991C000010450019N0240001N1+00161+00051999999ADDGD12991+0024099GD22991+0120099GD34991+0450099GF108991999999999999999999MA1101631999999MW1001
0065724625999991973020802004+37150-107750SAO  +2037DRO  V0209991C00001045001EN0240001N1+00051+00001999999ADDGD13991+0450099GF107991999999999999999999MA1101631999999MW1001
0080724625999991973020803004+37150-107750SAO  +2037DRO  V0209991C000010450019N0240001N1-00051-00051999999ADDGD12991+0120099GD24991+0450099GF108991999999999999999999MA1101691999999MW1001
0065724625999991973020804004+37150-107750SAO  +2037DRO  V0209991C00001000151WN0000001N1-00051+99999999999ADDGD15991+0001599GF109991999999999999999999MA1101801999999MW1451
0071724625999991973020813004+37150-107750SAO  +2037DRO  V0209991C00001002401WN0032001N1-00161+99999999999ADDGD15991+0024099GF109991999999999999999999MA1101801999999MW1451MW2701
0065724625999991973020818004+37150-107750SAO  +2037DRO  V0201301N00511002401WN0032001N1-00111-00271999999ADDGD15991+0024099GF109991999999999999999999MA1101961999999MW1701
0071724625999991973020822004+37150-107750SAO  +2037DRO  V0209991C00001003001WN0048001N1+00001-00271999999ADDGD15991+0030099GF109991999999999999999999MA1101861999999MW1451MW2701
0071724625999991973020823004+37150-107750SAO  +2037DRO  V0209991C00001003001WN0048001N1-00051-00221999999ADDGD15991+0030099GF109991999999999999999999MA1101931999999MW1451MW2701
0071724625999991973020901004+37150-107750SAO  +2037DRO  V0209991C00001003001WN0048001N1-00331-00501999999ADDGD15991+0030099GF109991999999999999999999MA1102001999999MW1451MW2701
0071724625999991973020902004+37150-107750SAO  +2037DRO  V0209991C00001003001WN0048001N1-00161-00501999999ADDGD15991+0030099GF109991999999999999999999MA1102071999999MW1451MW2701
0065724625999991973020913004+37150-107750SAO  +2037DRO  V0209991C00001002401EN0160001N1-00721-00831999999ADDGD14991+0024099GF108991999999999999999999MA1102241999999MW1001
0065724625999991973020913504+37150-107750SAOSP+2037DRO  V0209991C00001002401EN0160001N1-00661-00771999999ADDGD14991+0024099GF108991999999999999999999MA1102241999999MW1001
0080724625999991973020919004+37150-107750SAO  +2037DRO  V0209991C00001003001EN0400001N1-00111-00661999999ADDGD14991+0030099GF108991999999999999999999MA1102371999999MW1001REMAWY006BINOVC
0093724625999991973020921004+37150-107750SAO  +2037DRO  V0209991C00001004501EN0640001N1+00001-00271999999ADDGD13991+0045099GF107991999999999999999999MA1102131999999MW1001REMAWY019CLDS TPG MTNS NW-NE
0065724625999991973020921574+37150-107750SAOSP+2037DRO  V0209991C00001012001EN0640001N1+00051-00051999999ADDGD13991+0120099GF107991999999999999999999MA1102071999999MW1001
0065724625999991973020923004+37150-107750SAO  +2037DRO  V0209991C00001006001EN0640001N1+00051-00051999999ADDGD13991+0060099GF107991999999999999999999MA1102071999999MW1001
0065724625999991973021001004+37150-107750SAO  +2037DRO  V0209991C00001006001EN0640001N1-00271-00331999999ADDGD14991+0060099GF108991999999999999999999MA1102071999999MW1001
0065724625999991973021002004+37150-107750SAO  +2037DRO  V0209991C00001006001EN0240001N1-00381-00441999999ADDGD14991+0060099GF108991999999999999999999MA1102071999999MW1001
0065724625999991973021003004+37150-107750SAO  +2037DRO  V0209991C00001006001EN0240001N1-00381-00441999999ADDGD14991+0060099GF108991999999999999999999MA1102071999999MW1001
0065724625999991973021013004+37150-107750SAO  +2037DRO  V0209991C00001003001MN0160001N1-00721-00831999999ADDGD14991+0030099GF108991999999999999999999MA1102001999999MW1001
0065724625999991973021014004+37150-107750SAO  +2037DRO  V0209991C00001002401EN0160001N1-00771-00941999999ADDGD14991+0024099GF108991999999999999999999MA1102001999999MW1001
0065724625999991973021015004+37150-107750SAO  +2037DRO  V0209991C00001002401EN0160001N1-00721-01001999999ADDGD14991+0024099GF108991999999999999999999MA1102001999999MW1001
0099724625999991973021017004+37150-107750SAO  +2037DRO  V0209991C00001003001EN0240001N1-00501-01111999999ADDGD14991+0030099GF108991999999999999999999MA1102001999999MW1001REMAWY025CLD TPG MTNS ALQDS XCPT S
0100724625999991973021018004+37150-107750SAO  +2037DRO  V0209991C00001003601EN0320001N1-00331-01051999999ADDGD14991+0036099GF108991999999999999999999MA1101961999999MW1001REMAWY026CLDS TPG MTNS ALQDS XCPT S
0093724625999991973021020004+37150-107750SAO  +2037DRO  V0209991C00001006001EN0800001N1-00111-00551999999ADDGD13991+0060099GF107991999999999999999999MA1101831999999MW1001REMAWY019CLDS TPG MTNS NW-NE
0065724625999991973021022004+37150-107750SAO  +2037DRO  V0200501N00151006001EN0800001N1+00051-00331999999ADDGD13991+0060099GF107991999999999999999999MA1101631999999MW1001
0080724625999991973021022554+37150-107750SAOSP+2037DRO  V0200501N002512200019N0800001N1-00111-00381999999ADDGD12991+0060099GD22991+0180099GF102991999999999999999999MA1101561999999MW1001
0080724625999991973021100004+37150-107750SAO  +2037DRO  V0200501N002012200019N0800001N1-00051-00501999999ADDGD12991+0060099GD22991+0180099GF102991999999999999999999MA1101561999999MW1001
0080724625999991973021101004+37150-107750SAO  +2037DRO  V0209991C000012200019N0800001N1-00221-00721999999ADDGD12991+0060099GD22991+0180099GF102991999999999999999999MA1101521999999MW1001
0065724625999991973021102004+37150-107750SAO  +2037DRO  V0209991C000012200019N0240001N1-00331-00501999999ADDGD12991+0060099GF102991999999999999999999MA1101561999999MW1001
0065724625999991973021103004+37150-107750SAO  +2037DRO  V0209991C00001006001EN0240001N1-00381-00441999999ADDGD13991+0060099GF107991999999999999999999MA1101561999999MW1001
0065724625999991973021104004+37150-107750SAO  +2037DRO  V0209991C00001012001EN0240001N1-00381-00441999999ADDGD13991+0120099GF107991999999999999999999MA1101461999999MW1001
0080724625999991973021113004+37150-107750SAO  +2037DRO  V0209991C000010120019N0240001N1-00441-00831999999ADDGD12991+0030099GD24991+0120099GF108991999999999999999999MA1101221999999MW1001
0080724625999991973021113444+37150-107750SAOSP+2037DRO  V0209991C000010900019N0320001N1-00501-00721999999ADDGD12991+0030099GD24991+0900099GF108991999999999999999999MA1101191999999MW1001
0112724625999991973021115004+37150-107750SAO  +2037DRO  V0209991C000010120019N0640001N1-00441-00661999999ADDGD12991+0045099GD24991+0120099GF108991999999999999999999MA1101251999999MW1001REMAWY023CLDS TPG MNS NW THRU NE
0113724625999991973021115534+37150-107750SAOSP+2037DRO  V0209991C000010150019N0640001N1-00441-00661999999ADDGD12991+0045099GD24991+0150099GF108991999999999999999999MA1101251999999MW1001REMAWY024CLDS TPG MTNS NW THRU NE
0095724625999991973021118004+37150-107750SAO  +2037DRO  V0209991C00001018001EN0800001N1+00001-00441999999ADDGD13991+0180099GF107991999999999999999999MA1101191999999MW1001REMAWY021/ CLDS TPG MTNS NW-NE
0110724625999991973021119004+37150-107750SAO  +2037DRO  V0209991C000010450019N0800001N1+00331-00271999999ADDGD12991+0180099GD23991+0450099GF107991999999999999999999MA1101151999999MW1001REMAWY021/ CLDS TPG MTNS NW-NE
0113724625999991973021120004+37150-107750SAO  +2037DRO  V0209991C000010360019N0800001N1+00271-00111999999ADDGD12991+0180099GD24991+0360099GF108991999999999999999999MA1100951999999MW1001REMAWY024CLDS TPG MTNS NW THRU NE
0078724625999991973021121004+37150-107750SAO  +2037DRO  V0201301N00411004501WN0048001N1+00221-00051999999ADDGD15991+0045099GF109991999999999999999999MA1100881999999MW1701REMAWY004SB25
0080724625999991973021122004+37150-107750SAO  +2037DRO  V0209991C00001006001EN0240001N1+00221+00111999999ADDGD13991+0060099GD24991+0075099GF108991999999999999999999MA1100711999999MW1001
0080724625999991973021122554+37150-107750SAOSP+2037DRO  V0200901N00411006001EN0240001N1+00051-00051999999ADDGD13991+0060099GD24991+0075099GF108991999999999999999999MA1100681999999MW1001
0078724625999991973021201004+37150-107750SAO  +2037DRO  V0201001N00201003001WN0016001N1-00051+99999999999ADDGD15991+0030099GF109991999999999999999999MA1100611999999MW1711REMAWY004SB30
0065724625999991973021201584+37150-107750SAOSP+2037DRO  V0200601N00251003001WN0016001N1-00051+99999999999ADDGD15991+0030099GF109991999999999999999999MA1100581999999MW1701
0065724625999991973021203004+37150-107750SAO  +2037DRO  V0201201N00511001501WN0016001N1-00051+99999999999ADDGD15991+0015099GF109991999999999999999999MA1100511999999MW1731
0065724625999991973021204004+37150-107750SAO  +2037DRO  V0201101N00461004501WN0048001N1-00051+99999999999ADDGD15991+0045099GF109991999999999999999999MA1100471999999MW1701
0106724625999991973021215004+37150-107750SAO  +2037DRO  V0202301N007710045019N0096001N1-00161-00221999999ADDGD12991+0024099GD23991+0045099GF107991999999999999999999MA1100511999999MW1451MW2711REMAWY011VSBY S3 SWU
0098724625999991973021217004+37150-107750SAO  +2037DRO  V0202001N003010045019N0112001N1-00051-00161999999ADDGD12991+0024099GD24991+0045099GF108991999999999999999999MA1100751999999MW1001REMAWY009SWU ALQDS
0098724625999991973021219004+37150-107750SAO  +2037DRO  V0202101N007210045019N0240001N1+00001-00111999999ADDGD12991+0024099GD23991+0045099GF107991999999999999999999MA1100811999999MW1001REMAWY009SWU ALQDS
0073724625999991973021221004+37150-107750SAO  +2037DRO  V0202201N00721004501EN0320001N1+00161-00221999999ADDGD14991+0045099GF108991999999999999999999MA1100811999999MW1001OC100921
0080724625999991973021222004+37150-107750SAO  +2037DRO  V0202301N00511004501EN0320001N1+00161-00221999999ADDGD13991+0045099GD24991+0060099GF108991999999999999999999MA1100851999999MW1001
0105724625999991973021222574+37150-107750SAOSP+2037DRO  V0202301N00611004501EN0320001N1+00161-00051999999ADDGD13991+0045099GD24991+0060099GF108991999999999999999999MA1100881999999MW1001REMAWY016VSBY SW10 SWU SW
0080724625999991973021300004+37150-107750SAO  +2037DRO  V0202201N00771010501EN0640001N1+00001-00271999999ADDGD13991+0105099GD23991+0135099GF107991999999999999999999MA1100911999999MW1001
0080724625999991973021302004+37150-107750SAO  +2037DRO  V0202301N00251010501EN0640001N1-00161-00331999999ADDGD13991+0105099GD23991+0135099GF107991999999999999999999MA1101051999999MW1001
0080724625999991973021303004+37150-107750SAO  +2037DRO  V0202201N00361010501EN0240001N1-00221-00331999999ADDGD13991+0105099GD23991+0135099GF107991999999999999999999MA1101081999999MW1001
0078724625999991973021315004+37150-107750SAO  +2037DRO  V0209991C000012200019N0960001N1-01221-01501999999ADDGF100991999999999999999999MA1101521999999MW1001REMAWY019LOW SCUD OVR MTNS E
0065724625999991973021317004+37150-107750SAO  +2037DRO  V0209991C000012200019N0960001N1-00721-01111999999ADDGD12991+0540093GF102991999999999999999999MA1101631999999MW1001
0065724625999991973021318004+37150-107750SAO  +2037DRO  V0209991C000012200019N0960001N1-00271-00611999999ADDGD12991+0540093GF102991999999999999999999MA1101631999999MW1001
0080724625999991973021320004+37150-107750SAO  +2037DRO  V0209991C000012200019N0960001N1+00331-00441999999ADDGD12991+0120099GD22991+0540093GF102991999999999999999999MA1101631999999MW1001
0089724625999991973021323004+37150-107750SAO  +2037DRO  V0200901N001012200019N0960001N1+00221+00111999999ADDGD12991+0150099GF102991999999999999999999MA1101521999999MW1001REMAWY015SWU OVR MTNS NW
0089724625999991973021400004+37150-107750SAO  +2037DRO  V0209991C00001012001EN0640001N1+00001-00111999999ADDGD13991+0120099GF107991999999999999999999MA1101591999999MW1001REMAWY015SWU OVR MTNS NW
0065724625999991973021402004+37150-107750SAO  +2037DRO  V0209991C000012200019N0240001N1-00221-00721999999ADDGD12991+0120099GF102991999999999999999999MA1101591999999MW1001
0065724625999991973021402594+37150-107750SAOSP+2037DRO  V0209991C000012200019N0240001N1-00441-00661999999ADDGD12991+0120099GF102991999999999999999999MA1101661999999MW1001
0065724625999991973021405004+37150-107750SAO  +2037DRO  V0209991C000012200019N0240001N1-00611-00831999999ADDGD12991+0120099GF102991999999999999999999MA1101731999999MW1001
0065724625999991973021415004+37150-107750SAO  +2037DRO  V0209991C00001001801EN0080001N1-01051-01381999999ADDGD14991+0018099GF108991999999999999999999MA1102001999999MW1001
0065724625999991973021415204+37150-107750SAOSP+2037DRO  V0209991C00001001801WN0032001N1+99999+99999999999ADDGD15991+0018099GF109991999999999999999999MA1102101999999MW1451
0065724625999991973021417004+37150-107750SAO  +2037DRO  V0209991C00001001801BN0096001N1-01661-01721999999ADDGD14991+0018099GF108991999999999999999999MA1102101999999MW1001
0124724625999991973021418004+37150-107750SAO  +2037DRO  V0209991C00001001801EN0240001N1-00332-00502999999ADDGD14991+0018099GF108991999999999999999999MA1102101999999MW1001REMAWY015BINOVC SW AND WEQDQ01+026993ATOT  Q02+026823ATOD  
0102724625999991973021419004+37150-107750SAO  +2037DRO  V0209991C000012200019N0480001N1-00161-00381999999ADDGD12991+0024099GF102991999999999999999999MA1102101999999MW1001REMAWY028CLS TPG MTN NW THRU NE AND E
0065724625999991973021421004+37150-107750SAO  +2037DRO  V0209991C000012200019N0800001N1-00051-00611999999ADDGD12991+0045099GF102991999999999999999999MA1101931999999MW1001
0065724625999991973021422004+37150-107750SAO  +2037DRO  V0209991C000012200019N0800001N1+00221-00331999999ADDGD12991+0045099GF102991999999999999999999MA1101831999999MW1001
0065724625999991973021423004+37150-107750SAO  +2037DRO  V0202001N002512200019N0800001N1+00331-00331999999ADDGD12991+0060099GF102991999999999999999999MA1101761999999MW1001
0065724625999991973021501004+37150-107750SAO  +2037DRO  V0202101N002512200019N0800001N1+00001-00271999999ADDGD12991+0060099GF102991999999999999999999MA1101761999999MW1001
0050724625999991973021512004+37150-107750SAO  +2037DRO  V0209991C000012200019N0240001N1-01381-01551999999ADDGF100991999999999999999999MA1102131999999MW1001
0050724625999991973021512484+37150-107750SAOSP+2037DRO  V0209991C000012200019N0240001N1-01381-01551999999ADDGF100991999999999999999999MA1102131999999MW1001
0050724625999991973021514004+37150-107750SAO  +2037DRO  V0209991C000012200019N1200001N1-01501-01661999999ADDGF100991999999999999999999MA1102171999999MW1001
0050724625999991973021517004+37150-107750SAO  +2037DRO  V0209991C000012200019N1200001N1-00501-01111999999ADDGF100991999999999999999999MA1102301999999MW1001
0050724625999991973021518004+37150-107750SAO  +2037DRO  V0209991C000012200019N1200001N1-00161-00661999999ADDGF100991999999999999999999MA1102341999999MW1001
0050724625999991973021519004+37150-107750SAO  +2037DRO  V0209991C000012200019N1200001N1+00221-00721999999ADDGF100991999999999999999999MA1102301999999MW1001
0050724625999991973021521004+37150-107750SAO  +2037DRO  V0209991C000012200019N1200001N1+00441-00551999999ADDGF100991999999999999999999MA1102101999999MW1001
0050724625999991973021522004+37150-107750SAO  +2037DRO  V0209991C000012200019N1200001N1+00441-00551999999ADDGF100991999999999999999999MA1102101999999MW1001
0050724625999991973021600004+37150-107750SAO  +2037DRO  V0209991C000012200019N1200001N1+00381-00551999999ADDGF100991999999999999999999MA1102071999999MW1001
0065724625999991973021603004+37150-107750SAO  +2037DRO  V0209991C000012200019N0240001N1-00611-00881999999ADDGD12991+0540093GF102991999999999999999999MA1102171999999MW1001
0065724625999991973021605004+37150-107750SAO  +2037DRO  V0209991C000012200019N0240001N1-00941-01271999999ADDGD12991+0540093GF102991999999999999999999MA1102271999999MW1001
0065724625999991973021613004+37150-107750SAO  +2037DRO  V0209991C000012200019N0240001N1-01161-01551999999ADDGD12991+0600093GF102991999999999999999999MA1102131999999MW1001
0050724625999991973021614004+37150-107750SAO  +2037DRO  V0209991C000012200019N1200001N1-01501-01661999999ADDGF100991999999999999999999MA1102131999999MW1001
0065724625999991973021617004+37150-107750SAO  +2037DRO  V0209991C000012200019N1200001N1-00501-01331999999ADDGD12991+0450093GF102991999999999999999999MA1102171999999MW1001
0065724625999991973021618004+37150-107750SAO  +2037DRO  V0209991C000012200019N1200001N1-00331-00771999999ADDGD12991+0450093GF102991999999999999999999MA1102171999999MW1001
0065724625999991973021620004+37150-107750SAO  +2037DRO  V0209991C000012200019N1200001N1+00441-00661999999ADDGD14991+0450093GF108991999999999999999999MA1102001999999MW1001
0065724625999991973021620534+37150-107750SAOSP+2037DRO  V0209991C000012200019N1200001N1+00501-00661999999ADDGD13991+0450093GF107991999999999999999999MA1101901999999MW1001
0065724625999991973021622004+37150-107750SAO  +2037DRO  V0209991C000012200019N1200001N1+00331-00501999999ADDGD13991+0450093GF107991999999999999999999MA1101801999999MW1001
0065724625999991973021705004+37150-107750SAO  +2037DRO  V0209991C000012200019N0240001N1-00551-00941999999ADDGD12991+0450093GF102991999999999999999999MA1101761999999MW1001
0050724625999991973021712004+37150-107750SAO  +2037DRO  V0209991C000012200019N0240001N1-01111-01441999999ADDGF100991999999999999999999MA1101831999999MW1001
0050724625999991973021713004+37150-107750SAO  +2037DRO  V0209991C000012200019N0240001N1-01111-01441999999ADDGF100991999999999999999999MA1101831999999MW1001
0065724625999991973021713404+37150-107750SAOSP+2037DRO  V0209991C000012200019N1200001N1-01051-01501999999ADDGD12991+0180099GF102991999999999999999999MA1101831999999MW1001
0091724625999991973021715004+37150-107750SAO  +2037DRO  V0209991C000012200019N1200001N1-01001-01331999999ADDGD12991+0180099GF102991999999999999999999MA1101931999999MW1001REMAWY017F BNK ALG MTNS SE
0065724625999991973021717004+37150-107750SAO  +2037DRO  V0209991C000012200019N1200001N1-00441-01111999999ADDGD12991+0075099GF102991999999999999999999MA1101961999999MW1001
0065724625999991973021717584+37150-107750SAOSP+2037DRO  V0209991C000012200019N1200001N1-00161-00831999999ADDGD12991+0090099GF102991999999999999999999MA1101961999999MW1001
0065724625999991973021719004+37150-107750SAO  +2037DRO  V0209991C000012200019N1200001N1+00161-00721999999ADDGD12991+0090099GF102991999999999999999999MA1101931999999MW1001
0062724625999991973021720004+37150-107750SAO  +2037DRO  V0209991C000012200019N1200001N1+00331-00771999999ADDGD12991+0090099GF102991999999999999999999MW1001REMAWY00300^
0065724625999991973021720444+37150-107750SAOSP+2037DRO  V0209991C000012200019N1200001N1+00331-00771999999ADDGD12991+0090099GF102991999999999999999999MA1101761999999MW1001
0065724625999991973021800004+37150-107750SAO  +2037DRO  V0209991C000012200019N1200001N1+00501-00441999999ADDGD12991+0135099GF102991999999999999999999MA1101591999999MW1001
0065724625999991973021802004+37150-107750SAO  +2037DRO  V0209991C000012200019N0240001N1-00051-00381999999ADDGD12991+0135099GF102991999999999999999999MA1101691999999MW1001
0113724625999991973021804004+37150-107750SAO  +2037DRO  V0209991C000012200019N0240001N1-00611-01051999999ADDAA106025091GF100991999999999999999999MA1101761999999MD1010341+9999MW1001REMAWY01003499 MIS%EQDQ01  02503PRCP99
0110724625999991973021813004+37150-107750SAO  +2037DRO  V0209991C000012200019N0240001N1-01221-01381999999ADDGD12991+0240099GF102991999999999999999999MA1101901999999MW1001REMAWY036HQM SP 1300 1/8GF 295/32/32/0704/040
0092724625999991973021815004+37150-107750SAO  +2037DRO  V0209991C000012200019N1200001N1-01161-01441999999ADDGD12991+0090099GF102991999999999999999999MA1101961999999MW1001REMAWY018CLDS TPG MTNS NW-N
0079724625999991973021818004+37150-107750SAO  +2037DRO  V0209991C000012200019N1200001N1-00221-00721999999ADDGF100991999999999999999999MA1102001999999MW1001REMAWY020/ FEW AC OVER MTNS N
0050724625999991973021820004+37150-107750SAO  +2037DRO  V0209991C000012200019N1200001N1+00111-00441999999ADDGF100991999999999999999999MA1101861999999MW1001
0050724625999991973021820584+37150-107750SAOSP+2037DRO  V0200401N002012200019N1200001N1+00161-00501999999ADDGF100991999999999999999999MA1101801999999MW1001
0050724625999991973021823004+37150-107750SAO  +2037DRO  V0200501N002012200019N1200001N1+00271-00331999999ADDGF100991999999999999999999MA1101731999999MW1001
0050724625999991973021900004+37150-107750SAO  +2037DRO  V0209991C000012200019N1200001N1+00221-00441999999ADDGF100991999999999999999999MA1101661999999MW1001
0050724625999991973021902004+37150-107750SAO  +2037DRO  V0209991C000012200019N0240001N1-00271-00771999999ADDGF100991999999999999999999MA1101731999999MW1001
0050724625999991973021904004+37150-107750SAO  +2037DRO  V0209991C000012200019N0240001N1-00611-00831999999ADDGF100991999999999999999999MA1101831999999MW1001
0050724625999991973021915004+37150-107750SAO  +2037DRO  V0209991C000012200019N1200001N1-01441-01721999999ADDGF100991999999999999999999MA1102271999999MW1001
0050724625999991973021917004+37150-107750SAO  +2037DRO  V0209991C000012200019N1200001N1-00831-01221999999ADDGF100991999999999999999999MA1102401999999MW1001
0050724625999991973021918004+37150-107750SAO  +2037DRO  V0209991C000012200019N1200001N1-00381-00941999999ADDGF100991999999999999999999MA1102401999999MW1001
0050724625999991973021919004+37150-107750SAO  +2037DRO  V0209991C000012200019N1200001N1-00111-00721999999ADDGF100991999999999999999999MA1102441999999MW1001
0050724625999991973021920004+37150-107750SAO  +2037DRO  V0209991C000012200019N1200001N1-00051-00771999999ADDGF100991999999999999999999MA1102371999999MW1001
0050724625999991973021923004+37150-107750SAO  +2037DRO  V0202201N002512200019N1200001N1+00221-00441999999ADDGF100991999999999999999999MA1102441999999MW1001
0050724625999991973022003004+37150-107750SAO  +2037DRO  V0209991C000012200019N0240001N1-00611-00831999999ADDGF100991999999999999999999MA1102741999999MW1001
0050724625999991973022013004+37150-107750SAO  +2037DRO  V0209991C000012200019N0240001N1-01161-01381999999ADDGF100991999999999999999999MA1102951999999MW1001
0065724625999991973022015004+37150-107750SAO  +2037DRO  V0209991C00001045001EN0960001N1-01221-01501999999ADDGD13991+0450099GF107991999999999999999999MA1102981999999MW1001
0065724625999991973022017004+37150-107750SAO  +2037DRO  V0209991C00001045001EN0960001N1-00771-01051999999ADDGD14991+0450099GF108991999999999999999999MA1102911999999MW1001
0083724625999991973022020004+37150-107750SAO  +2037DRO  V0209991C00001036001EN0960001N1-00111-00551999999ADDGD14991+0360099GF108991999999999999999999MA1102571999999MW1001REMAWY009/ VSBY N7
0089724625999991973022022004+37150-107750SAO  +2037DRO  V0209991C00001036001EN0960001N1+00221-00441999999ADDGD14991+0360099GF108991999999999999999999MA1102611999999MW1001REMAWY015/ SUN DIMLY VIS
0065724625999991973022100004+37150-107750SAO  +2037DRO  V0209991C00001036001EN0960001N1+00161-00501999999ADDGD14991+0360099GF108991999999999999999999MA1102541999999MW1001
0065724625999991973022103004+37150-107750SAO  +2037DRO  V0209991C00001036001EN0240001N1-00221-01111999999ADDGD14991+0360099GF108991999999999999999999MA1102541999999MW1001
0080724625999991973022113004+37150-107750SAO  +2037DRO  V0209991C000010450019N0240001N1-00661-01001999999ADDGD12991+0180099GD23991+0450099GF107991999999999999999999MA1102511999999MW1001
0099724625999991973022118004+37150-107750SAO  +2037DRO  V0201301N00251015001EN0800001N1+00111-00771999999ADDGD13991+0150099GD24991+0300099GF108991999999999999999999MA1102681999999MW1001REMAWY010SWU MTNS S
0089724625999991973022122004+37150-107750SAO  +2037DRO  V0201001N00511010501EN0480001N1+00271-00331999999ADDGD13991+0105099GF107991999999999999999999MA1102511999999MW1001REMAWY015SWU OMTNS ALQDS
0104724625999991973022122354+37150-107750SAOSP+2037DRO  V0201201N00511015001EN0480001N1+00271-00331999999ADDGD13991+0150099GD24991+0300099GF108991999999999999999999MA1102471999999MW1001REMAWY015SWU OTMNS ALQDS
0121724625999991973022203004+37150-107750SAO  +2037DRO  V0201201N005110030019N0048001N1-01161-01161999999ADDGD14991+0030099GD24991+0300099GF108991999999999999999999MA1102301999999MW1451REMAWY013220/LF5 6XXX9EQDQ01+000532PRSWM2
0065724625999991973022213004+37150-107750SAO  +2037DRO  V0209991C00001015001EN0240001N1-00111-00551999999ADDGD14991+0150099GF108991999999999999999999MA1101731999999MW1001
0087724625999991973022214004+37150-107750SAO  +2037DRO  V0209991C00001220001EN0640001N1-00051-00551999999ADDGD12991+0150099GF102991999999999999999999MA1101731999999MW1001REMAWY013/ SWU MTNS NW
0080724625999991973022222004+37150-107750SAO  +2037DRO  V0209991C00001006001EN0640001N1+00331+00001999999ADDGD13991+0060099GD24991+0090099GF108991999999999999999999MA1101731999999MW1001
0080724625999991973022302004+37150-107750SAO  +2037DRO  V0202201N00101006001EN0240001N1+00111+00001999999ADDGD13991+0060099GD24991+0090099GF108991999999999999999999MA1101931999999MW1001
0080724625999991973022303004+37150-107750SAO  +2037DRO  V0209991C00001006001EN0240001N1+00051-00331999999ADDGD13991+0060099GD24991+0090099GF108991999999999999999999MA1102001999999MW1001
0096724625999991973022314004+37150-107750SAO  +2037DRO  V0209991C00001010501EN0240001N1-00221-00381999999ADDGD13991+0150099GD24991+0105099MA1101961999999MW1001REMAWY014SUW MTNS SW-NWEQDQ01+000072SCOTCV
0065724625999991973022316004+37150-107750SAO  +2037DRO  V0209991C00001004501WN0064001N1-00051-00221999999ADDGD15991+0045099GF109991999999999999999999MA1102031999999MW1701
0065724625999991973022317004+37150-107750SAO  +2037DRO  V0209991C00001004501WN0064001N1+00111-00051999999ADDGD15991+0045099GF109991999999999999999999MA1102031999999MW1701
0116724625999991973022318594+37150-107750SAOSP+2037DRO  V0209991C00001003601EN0128001N1+00381+00051999999ADDGD13991+0036099GD24991+0090099GF108991999999999999999999MA1102031999999MW1001REMAWY027SE30 MTNS OBSCD ALQDS XCP S
0103724625999991973022320004+37150-107750SAO  +2037DRO  V0209991C00001003601EN0160001N1+00331+00161999999ADDGD13991+0036099GD24991+0090099GF108991999999999999999999MA1101961999999MW1001REMAWY014SWU MTNS ALQDS
0098724625999991973022322004+37150-107750SAO  +2037DRO  V0209991C00001003601EN0240001N1+00271+00051999999ADDGD13991+0036099GD24991+0090099GF108991999999999999999999MA1101801999999MW1001REMAWY009SWU ALQDS
0097724625999991973022323004+37150-107750SAO  +2037DRO  V0209991C00001007501EN0640001N1+00331+00001999999ADDGD13991+0075099GD24991+0135099GF108991999999999999999999MA1101801999999MW1001REMAWY008/ SWU NE
0080724625999991973022402004+37150-107750SAO  +2037DRO  V0209991C00001013501EN0240001N1+00051-00161999999ADDGD13991+0135099GD24991+0240099GF108991999999999999999999MA1101831999999MW1001
0080724625999991973022403004+37150-107750SAO  +2037DRO  V0209991C000010210019N0240001N1+00831+00221999999ADDGD12991+0135099GD23991+0210099GF107991999999999999999999MA1101931999999MW1001
0065724625999991973022413004+37150-107750SAO  +2037DRO  V0209991C00001003001MN0160001N1-00221-00501999999ADDGD14991+0030099GF108991999999999999999999MA1102031999999MW1001
0065724625999991973022413444+37150-107750SAOSP+2037DRO  V0209991C00001003001EN0240001N1-00161-00331999999ADDGD14991+0030099GF108991999999999999999999MA1102031999999MW1001
0083724625999991973022415004+37150-107750SAO  +2037DRO  V0203301N00511220001EN0800001N1+00721-00161999999ADDGF100991999999999999999999MA1102001999999MW1001REMAWY024111111PG MTNS NW THRU NE
0102724625999991973022417004+37150-107750SAO  +2037DRO  V0209991C00001010501EN0480001N1+00271-00271999999ADDGD13991+0105099GF107991999999999999999999MA1102171999999MW1001REMAWY028/ CLDS TPG MTNS NW THRU NE E
0147724625999991973022417584+37150-107750SAOSP+2037DRO  V0209991C000010450019N0640001N1+00381-00381999999ADDGD12991+0045099GD22991+0090099GD33991+0450099GF107991999999999999999999MA1102171999999MW1001REMAWY043CLDS TPG MTNS NW THRU        ?     NE AND E
0105724625999991973022419004+37150-107750SAO  +2037DRO  V0209991C000012200019N0800001N1+00501-00111999999ADDGD12991+0090099GD22991+0450099GF102991999999999999999999MA1102171999999MW1001REMAWY016/ CLDS TPG MTN N
0080724625999991973022419554+37150-107750SAOSP+2037DRO  V0209991C000012200019N1200001N1+00771-00331999999ADDGD12991+0090099GD22991+0450099GF102991999999999999999999MA1102101999999MW1001
0080724625999991973022421004+37150-107750SAO  +2037DRO  V0209991C000012200019N1200001N1+00611-00331999999ADDGD12991+0090099GD22991+0450099GF102991999999999999999999MA1101961999999MW1001
0065724625999991973022422004+37150-107750SAO  +2037DRO  V0209991C000012200019N1200001N1+00611-00331999999ADDGD12991+0450099GF102991999999999999999999MA1101931999999MW1001
0065724625999991973022423004+37150-107750SAO  +2037DRO  V0209991C000012200019N1200001N1+00551-00161999999ADDGD12991+0450099GF102991999999999999999999MA1101931999999MW1001
0050724625999991973022502004+37150-107750SAO  +2037DRO  V0209991C000012200019N0240001N1+00221-00161999999ADDGF100991999999999999999999MA1102031999999MW1001
0050724625999991973022503004+37150-107750SAO  +2037DRO  V0209991C000012200019N0240001N1-00051-00441999999ADDGF100991999999999999999999MA1102031999999MW1001
0065724625999991973022512004+37150-107750SAO  +2037DRO  V0209991C000012200019N0240001N1-00381-00771999999ADDGD12991+0360099GF102991999999999999999999MA1102101999999MW1001
0065724625999991973022513004+37150-107750SAO  +2037DRO  V0209991C000012200019N0240001N1-00381-00771999999ADDGD12991+0360099GF102991999999999999999999MA1102171999999MW1001
0080724625999991973022516004+37150-107750SAO  +2037DRO  V0203001N012812200019N0800001N1+99999+99999999999ADDGD12991+0060099GD22991+0450093GF102991999999999999999999MA1102301999999MW1001
0080724625999991973022517004+37150-107750SAO  +2037DRO  V0209991C000012200019N0800001N1+00051-00501999999ADDGD12991+0075099GD22991+0450093GF102991999999999999999999MA1102341999999MW1001
0080724625999991973022518004+37150-107750SAO  +2037DRO  V0209991C000012200019N1200001N1+00221-00271999999ADDGD12991+0075099GD22991+0450093GF102991999999999999999999MA1102371999999MW1001
0080724625999991973022519004+37150-107750SAO  +2037DRO  V0209991C000012200019N1200001N1+00221-00271999999ADDGD12991+0075099GD22991+0450093GF102991999999999999999999MA1102371999999MW1001
0065724625999991973022521004+37150-107750SAO  +2037DRO  V0209991C000012200019N0960001N1+00771+00001999999ADDGD12991+0120099GF102991999999999999999999MA1102341999999MW1001
0065724625999991973022521404+37150-107750SAOSP+2037DRO  V0202201N002012200019N1200001N1+00881+00001999999ADDGD12991+0180099GF102991999999999999999999MA1102341999999MW1001
0065724625999991973022523004+37150-107750SAO  +2037DRO  V0202201N002512200019N1200001N1+00771-00161999999ADDGD12991+0180099GF102991999999999999999999MA1102301999999MW1001
0050724625999991973022602004+37150-107750SAO  +2037DRO  V0209991C000012200019N0240001N1+00331-00271999999ADDGF100991999999999999999999MA1102441999999MW1001
0065724625999991973022615004+37150-107750SAO  +2037DRO  V0209991C000012200019N1200001N1-00721-01001999999ADDGD12991+0540093GF102991999999999999999999MA1102841999999MW1001
0065724625999991973022617004+37150-107750SAO  +2037DRO  V0209991C000012200019N1200001N1+00051-00501999999ADDGD13991+0540093GF107991999999999999999999MA1102951999999MW1001
0065724625999991973022617594+37150-107750SAOSP+2037DRO  V0209991C000012200019N1200001N1+00271-00271999999ADDGD13991+0540093GF107991999999999999999999MA1102911999999MW1001
0065724625999991973022619004+37150-107750SAO  +2037DRO  V0209991C000012200019N1200001N1+00381-00381999999ADDGD13991+0540093GF107991999999999999999999MA1102951999999MW1001
0065724625999991973022621004+37150-107750SAO  +2037DRO  V0209991C000012200019N1200001N1+00611-00111999999ADDGD13991+0540093GF107991999999999999999999MA1102781999999MW1001
0065724625999991973022621594+37150-107750SAOSP+2037DRO  V0200401N002012200019N1200001N1+00611-00111999999ADDGD13991+0540093GF107991999999999999999999MA1102641999999MW1001
0065724625999991973022623004+37150-107750SAO  +2037DRO  V0200501N001512200019N1200001N1+00551+00001999999ADDGD13991+0540093GF107991999999999999999999MA1102641999999MW1001
0065724625999991973022700004+37150-107750SAO  +2037DRO  V0209991C000012200019N1200001N1+00771-00331999999ADDGD13991+0540093GF107991999999999999999999MA1102571999999MW1001
0050724625999991973022703004+37150-107750SAO  +2037DRO  V0209991C000012200019N0240001N1+00001-00441999999ADDGF100991999999999999999999MA1102541999999MW1001
0065724625999991973022715004+37150-107750SAO  +2037DRO  V0209991C00001030001EN1120001N1-00331-00661999999ADDGD13991+0300099GF107991999999999999999999MA1102371999999MW1001
0065724625999991973022716004+37150-107750SAO  +2037DRO  V0209991C000012200019N1200001N1-00051-00501999999ADDGD12991+0360099GF102991999999999999999999MA1102371999999MW1001
0065724625999991973022717004+37150-107750SAO  +2037DRO  V0209991C000012200019N0960001N1+00161-00331999999ADDGD12991+0450093GF102991999999999999999999MA1102371999999MW1001
0065724625999991973022718004+37150-107750SAO  +2037DRO  V0209991C000012200019N1200001N1+00381-00331999999ADDGD12991+0450093GF102991999999999999999999MA1102341999999MW1001
0065724625999991973022718524+37150-107750SAOSP+2037DRO  V0209991C000012200019N1200001N1+00771+00001999999ADDGD12991+0540093GF102991999999999999999999MA1102241999999MW1001
0065724625999991973022720004+37150-107750SAO  +2037DRO  V0209991C000012200019N1200001N1+00771+00001999999ADDGD12991+0540093GF102991999999999999999999MA1102101999999MW1001
0065724625999991973022720594+37150-107750SAOSP+2037DRO  V0209991C000012200019N1200001N1+00831-00051999999ADDGD12991+0540093GF102991999999999999999999MA1102071999999MW1001
0065724625999991973022722004+37150-107750SAO  +2037DRO  V0209991C000012200019N1200001N1+01001+00051999999ADDGD12991+0540093GF102991999999999999999999MA1101961999999MW1001
0065724625999991973022722554+37150-107750SAOSP+2037DRO  V0209991C000012200019N1200001N1+01051+00161999999ADDGD13991+0540093GF107991999999999999999999MA1101861999999MW1001
0065724625999991973022802004+37150-107750SAO  +2037DRO  V0209991C00001045001EN0240001N1+00441-00051999999ADDGD14991+0450099GF108991999999999999999999MA1101901999999MW1001
0065724625999991973022803004+37150-107750SAO  +2037DRO  V0209991C00001036001EN0240001N1+00381-00161999999ADDGD14991+0360099GF108991999999999999999999MA1101861999999MW1001
0080724625999991973022815004+37150-107750SAO  +2037DRO  V0209991C00001015001EN0800001N1-00051-00501999999ADDGD13991+0150099GD24991+0600099GF108991999999999999999999MA1101521999999MW1001
0080724625999991973022817004+37150-107750SAO  +2037DRO  V0209991C000010360019N0800001N1+00441-00161999999ADDGD12991+0150099GD23991+0360099GF107991999999999999999999MA1101521999999MW1001
0080724625999991973022819004+37150-107750SAO  +2037DRO  V0209991C000010360019N0800001N1+00771+00001999999ADDGD12991+0150099GD23991+0360099GF107991999999999999999999MA1101421999999MW1001
0098724625999991973022819544+37150-107750SAOSP+2037DRO  V0209991C000010360019N0800001N1+00721+00051999999ADDGD12991+0150099GD24991+0360099GF108991999999999999999999MA1101351999999MW1001REMAWY009BINOVC NE
0080724625999991973022820004+37150-107750SAO  +2037DRO  V0202401N002510210019N0240001N1+00111-00161999999ADDGD12991+0120099GD24991+0210099GF108991999999999999999999MA1101351999999MW1001
0084724625999991973022822004+37150-107750SAO  +2037DRO  V0201801N002510001519N0800001N1+00721+00051999999ADDGD19999+0001599GF108991999999999999999999MA1101191999999MW1001EQDQ01     03SCCGD1
0088724625999991973030100004+37150-107750SAO  +2037DRO  V0201801N003610240019N0240001N1+00661+00051999999ADDGD12991+0135099GD24991+0240099MA1101191999999MW1001REMAWY006SWU SWEQDQ01+000022SCOTCV
0095724625999991973030101004+37150-107750SAO  +2037DRO  V0202301N005110210019N0240001N1+00221+00001999999ADDGD12991+0120099GD24991+0210099GF108991999999999999999999MA1101291999999MW1001REMAWY006SWU SW
0080724625999991973030104004+37150-107750SAO  +2037DRO  V0202001N002510210019N0240001N1+00001-00051999999ADDGD12991+0090099GD23991+0210099GF107991999999999999999999MA1101461999999MW1001
0065724625999991973030113004+37150-107750SAO  +2037DRO  V0209991C00001000151WN0000001N1-00161-00161999999ADDGD15991+0001599GF109991999999999999999999MA1101961999999MW1451
0078724625999991973030114004+37150-107750SAO  +2037DRO  V0200901N00251001201WN0016001N1-01552+99999999999ADDGD15991+0012099GF109991999999999999999999MA1102101999999EQDQ01+025773ATOT  
0059724625999991973030115004+37150-107750SAO  +2037DRO  V0209991C00001001201WN0016001N1-01661+99999999999ADDGD15991+0012099GF109991999999999999999999MA1102201999999
0116724625999991973030118004+37150-107750SAO  +2037DRO  V0209991C00001001801EN0160001N1+00272+00051999999ADDGD14991+0018099GF108991999999999999999999MA1102271999999MW1001REMAWY023MTNS OBSCD ALQDS XCPT SEQDQ01+027593ATOT  
0107724625999991973030119004+37150-107750SAO  +2037DRO  V0209991C00001002701EN0320001N1+00381+00051999999ADDGD14991+0027099GF108991999999999999999999MA1102301999999MW1001REMAWY033BINOVC CLDS TPG MTNS ALQDS XCPT S
0065724625999991973030121004+37150-107750SAO  +2037DRO  V0209991C00001007501EN0800001N1+01001-00111999999ADDGD13991+0075099GF107991999999999999999999MA1102071999999MW1001
0080724625999991973030123004+37150-107750SAO  +2037DRO  V0200401N001512200019N1200001N1+00551+00111999999ADDGD12991+0090099GD23991+0450093GF107991999999999999999999MA1102031999999MW1001
0080724625999991973030202004+37150-107750SAO  +2037DRO  V0200401N002512200019N0240001N1+00161-00051999999ADDGD12991+0300099GD23991+0450093GF107991999999999999999999MA1102071999999MW1001
0080724625999991973030202554+37150-107750SAOSP+2037DRO  V0209991C000012200019N0240001N1+00111-00111999999ADDGD12991+0300099GD23991+0450093GF107991999999999999999999MA1102071999999MW1001
0080724625999991973030213004+37150-107750SAO  +2037DRO  V0209991C000010360019N0240001N1-00501-00661999999ADDGD12991+0150099GD23991+0360099GF107991999999999999999999MA1101901999999MW1001
0080724625999991973030215004+37150-107750SAO  +2037DRO  V0209991C000010360019N1200001N1-00381-00771999999ADDGD12991+0150099GD23991+0360099GF107991999999999999999999MA1101861999999MW1001
0080724625999991973030220004+37150-107750SAO  +2037DRO  V0209991C000010450019N0960001N1+01001+00161999999ADDGD12991+0150099GD23991+0450099GF107991999999999999999999MA1101631999999MW1001
0080724625999991973030221004+37150-107750SAO  +2037DRO  V0209991C000010450019N0960001N1+00721-00111999999ADDGD12991+0150099GD23991+0450099GF107991999999999999999999MA1101591999999MW1001
0077724625999991973030222004+37150-107750SAO  +2037DRO  V0209991C000010450019N0960001N1+00881+00001999999ADDGD13991+0450099MA1101491999999MW1001REMAWY010MTN OBSCMTEQDQ01+000002SCOTCV
0080724625999991973030223004+37150-107750SAO  +2037DRO  V0209991C000010450019N0960001N1+01001-00051999999ADDGD12991+0150099GD23991+0450099GF107991999999999999999999MA1101421999999MW1001
0065724625999991973030302004+37150-107750SAO  +2037DRO  V0209991C000012200019N0240001N1+00331-00221999999ADDGD12991+0450093GF102991999999999999999999MA1101421999999MW1001
0080724625999991973030302504+37150-107750SAOSP+2037DRO  V0209991C000012200019N0240001N1+00161-00331999999ADDGD12991+0150099GD22991+0360099GF102991999999999999999999MA1101491999999MW1001
0080724625999991973030312004+37150-107750SAO  +2037DRO  V0209991C000012200019N0240001N1-00381-00831999999ADDGD12991+0240099GD22991+0360099GF102991999999999999999999MA1101591999999MW1001
0093724625999991973030314004+37150-107750SAO  +2037DRO  V0209991C000012200019N0032001N1-00501-00551999999ADDGD16991+0001599GF102991999999999999999999MA1101691999999MW1111REMAWY019F4 MTNS OBSCD ALQDS
0091724625999991973030314384+37150-107750SAOSP+2037DRO  V0209991C000012200019N0008001N1-00501-00551999999ADDGD16991+0001599GD22991+0240099GF102991999999999999999999MA1101761999999MW1111REMAWY002F4
0065724625999991973030317004+37150-107750SAO  +2037DRO  V0200801N00251000601WN0008001N1-00111-00111999999ADDGD15991+0006099GF109991999999999999999999MA1101831999999MW1451
0097724625999991973030318004+37150-107750SAO  +2037DRO  V0209991C000012200019N0160001N1+00111-00271999999ADDGD12991+0012099GF102991999999999999999999MA1101831999999MW1001REMAWY023MTNS OBSCD ALQDS XCPT S
0065724625999991973030320004+37150-107750SAO  +2037DRO  V0200401N002012200019N0800001N1+00501-00111999999ADDGD12991+0045099GF102991999999999999999999MA1101861999999MW1001
0080724625999991973030321004+37150-107750SAO  +2037DRO  V0202201N002512200019N0800001N1+00611+00051999999ADDGD12991+0045099GD22991+0180099GF102991999999999999999999MA1101801999999MW1001
0080724625999991973030322004+37150-107750SAO  +2037DRO  V0201901N003012200019N0800001N1+00771-00661999999ADDGD12991+0042099GD22991+0180099GF102991999999999999999999MA1101761999999MW1001
0065724625999991973030404004+37150-107750SAO  +2037DRO  V0209991C000012200019N0240001N1-00051-00331999999ADDGD12991+0540093GF102991999999999999999999MA1101831999999MW1001
0065724625999991973030413004+37150-107750SAO  +2037DRO  V0209991C000012200019N0240001N1-00441-00661999999ADDGD12991+0180099GF102991999999999999999999MA1101151999999MW1001
0090724625999991973030414004+37150-107750SAO  +2037DRO  V0209991C000012200019N1200001N1-00771-00941999999ADDGD12991+0180099GF102991999999999999999999MA1101421999999MW1001REMAWY016CLDS TPG MTNS NW
0090724625999991973030415004+37150-107750SAO  +2037DRO  V0209991C000012200019N1200001N1-00501-00881999999ADDGD12991+0180099GF102991999999999999999999MA1101351999999MW1001REMAWY016CLDS TPG MTNS NW
0105724625999991973030416004+37150-107750SAO  +2037DRO  V0209991C000012200019N1200001N1-00111-00551999999ADDGD12991+0180099GD22991+0450099GF102991999999999999999999MA1101321999999MW1001REMAWY016CLDS TPG MTNS NW
0105724625999991973030416434+37150-107750SAOSP+2037DRO  V0209991C000012200019N1200001N1+00271-00441999999ADDGD12991+0180099GD23991+0450093GF107991999999999999999999MA1101251999999MW1001REMAWY016CLDS TPG MTNS NW
0107724625999991973030418004+37150-107750SAO  +2037DRO  V0200801N005112200019N1200001N1+00501-00381999999ADDGD12991+0180099GD23991+0450093GF107991999999999999999999MA1101151999999MW1001REMAWY018/ CLDS TPG MTNS NW
0107724625999991973030419004+37150-107750SAO  +2037DRO  V0200801N005110450019N1200001N1+00611-00771999999ADDGD12991+0180099GD24991+0450099GF108991999999999999999999MA1101051999999MW1001REMAWY018/ CLDS TPG MTNS NW
0080724625999991973030421004+37150-107750SAO  +2037DRO  V0201001N005110360019N0960001N1+00661-00611999999ADDGD12991+0180099GD24991+0360099GF108991999999999999999999MA1100681999999MW1001
0105724625999991973030422004+37150-107750SAO  +2037DRO  V0201401N008210300019N0800001N1+00611-00771999999ADDGD12991+0180099GD24991+0300099GF108991999999999999999999MA1100611999999MW1001REMAWY016CLDS TPG MTNS NW
0100724625999991973030423004+37150-107750SAO  +2037DRO  V0201601N00721018001EN0240001N1+00381-00111999999ADDGD13991+0180099GD24991+0300099GF108991999999999999999999MA1100581999999MW1001REMAWY011/ SWU ALQDS
0065724625999991973030500004+37150-107750SAO  +2037DRO  V0201601N00461012001EN0080001N1+00161+00051999999ADDGD14991+0120099GF108991999999999999999999MA1100581999999MW1701
0065724625999991973030502004+37150-107750SAO  +2037DRO  V0200701N00771012001EN0080001N1+00051-00051999999ADDGD14991+0120099GF108991999999999999999999MA1100441999999MW1701
0065724625999991973030502504+37150-107750SAOSP+2037DRO  V0202301N00411009001EN0080001N1-00051-00161999999ADDGD14991+0090099GF108991999999999999999999MA1100471999999MW1701
0088724625999991973030515004+37150-107750SAO  +2037DRO  V0209991C00001006001EN0160001N1-00271-00441999999ADDGD14991+0060099GF108991999999999999999999MA1100641999999MW1001REMAWY014SWU OMTNS N NW
0089724625999991973030518004+37150-107750SAO  +2037DRO  V0202301N00411006001EN0240001N1+00001-00271999999ADDGD14991+0060099GF108991999999999999999999MA1100711999999MW1001REMAWY015MTNS OBSCD N NW
0089724625999991973030519004+37150-107750SAO  +2037DRO  V0202101N00511009001EN0240001N1+00161-00331999999ADDGD14991+0090099GF108991999999999999999999MA1100751999999MW1001REMAWY015MTNS OBSCD N NW
0080724625999991973030521004+37150-107750SAO  +2037DRO  V0202201N00511009001EN0560001N1+00161-00221999999ADDGD13991+0090099GD24991+0180099GF108991999999999999999999MA1100681999999MW1001
0080724625999991973030521504+37150-107750SAOSP+2037DRO  V0202201N00511009001EN0640001N1+00221-00271999999ADDGD13991+0090099GD23991+0180099GF107991999999999999999999MA1100611999999MW1001
0101724625999991973030523004+37150-107750SAO  +2037DRO  V0202201N00511009001EN1200001N1+00271-00221999999ADDGD13991+0090099GD23991+0180099GF107991999999999999999999MA1100611999999MW1001REMAWY012SWU OMTNS NW
0101724625999991973030600004+37150-107750SAO  +2037DRO  V0202301N004112200019N0640001N1+00221-00271999999ADDGD12991+0090099GD22991+0180099GF102991999999999999999999MA1100641999999MW1001REMAWY012SWU OMTNS NW
0095724625999991973030602004+37150-107750SAO  +2037DRO  V0202201N003012200019N0240001N1-00111-00381999999ADDGD12991+0090099GD22991+0180099GF102991999999999999999999MA1100781999999MW1001REMAWY006SWU NW
0065724625999991973030602554+37150-107750SAOSP+2037DRO  V0202201N003012200019N0240001N1-00161-00381999999ADDGD12991+0180099GF102991999999999999999999MA1100881999999MW1001
0078724625999991973030604004+37150-107750SAO  +2037DRO  V0202201N004110900019N0032001N1-00161-00381999999ADDGD14991+0900099GF108991999999999999999999MA1100881999999MW1701REMAWY004SB30
0050724625999991973030615004+37150-107750SAO  +2037DRO  V0209991C000012200019N0960001N1-00831-01111999999ADDGF100991999999999999999999MA1101321999999MW1001
0078724625999991973030617004+37150-107750SAO  +2037DRO  V0209991C000012200019N1200001N1-00221-00441999999ADDGF100991999999999999999999MA1101421999999MW1001REMAWY019LOW SCUD OVR MTNS E
0084724625999991973030619004+37150-107750SAO  +2037DRO  V0209991C000012200019N1200001N1+00161-00271999999ADDGD13991+0540093GF107991999999999999999999MA1101421999999MW1001REMAWY010LOW SCUD E
0080724625999991973030620004+37150-107750SAO  +2037DRO  V0209991C000012200019N0960001N1+00221-00271999999ADDGD12991+0090099GD23991+0540093GF107991999999999999999999MA1101391999999MW1001
0080724625999991973030621004+37150-107750SAO  +2037DRO  V0209991C000012200019N0960001N1+00381+00331999999ADDGD12991+0090099GD23991+0450093GF107991999999999999999999MA1101351999999MW1001
0080724625999991973030623004+37150-107750SAO  +2037DRO  V0202401N005112200019N0960001N1+00331-00441999999ADDGD12991+0090099GD23991+0450093GF107991999999999999999999MA1101321999999MW1001
0080724625999991973030701004+37150-107750SAO  +2037DRO  V0202201N002510240019N0800001N1+00111-00611999999ADDGD12991+0090099GD23991+0240099GF107991999999999999999999MA1101351999999MW1001
0080724625999991973030702004+37150-107750SAO  +2037DRO  V0209991C000012200019N0240001N1+00001-00441999999ADDGD12991+0180099GD24991+0450093GF108991999999999999999999MA1101351999999MW1001
0065724625999991973030712004+37150-107750SAO  +2037DRO  V0209991C00001012001EN0240001N1-00381-00661999999ADDGD13991+0120099GF107991999999999999999999MA1101351999999MW1001
0065724625999991973030712524+37150-107750SAOSP+2037DRO  V0209991C00001012001EN0240001N1-00331-00661999999ADDGD13991+0120099GF107991999999999999999999MA1101351999999MW1001
0107724625999991973030718004+37150-107750SAO  +2037DRO  V0200801N002010180019N0800001N1+00221-00271999999ADDGD12991+0120099GD24991+0180099GF108991999999999999999999MA1101421999999MW1001REMAWY018CLDS TPG MTNS NW N
0080724625999991973030721004+37150-107750SAO  +2037DRO  V0201401N001010180019N0800001N1+00611+00051999999ADDGD12991+0120099GD23991+0180099GF107991999999999999999999MA1101221999999MW1001
0080724625999991973030722004+37150-107750SAO  +2037DRO  V0209991C000010180019N0800001N1+00611-00221999999ADDGD12991+0120099GD23991+0180099GF107991999999999999999999MA1101151999999MW1001
0080724625999991973030723004+37150-107750SAO  +2037DRO  V0209991C000010300019N0800001N1+00501-00221999999ADDGD12991+0120099GD24991+0300099GF108991999999999999999999MA1101121999999MW1001
0065724625999991973030803004+37150-107750SAO  +2037DRO  V0209991C00001002401WN0016001N1+00051+00001999999ADDGD15991+0024099GF109991999999999999999999MA1101251999999MW1711
0080724625999991973030813004+37150-107750SAO  +2037DRO  V0209991C000010030019N0048001N1-00051-00111999999ADDGD12991+0018099GD24991+0030099GF108991999999999999999999MA1101291999999MW1111
0117724625999991973030818004+37150-107750SAO  +2037DRO  V0209991C000010030019N0240001N1+00111-00221999999ADDGD12991+0018099GD24991+0030099GF108991999999999999999999MA1101561999999MW1001REMAWY028BINOVC SW MTNS OBSCD NW-NE E
0106724625999991973030822004+37150-107750SAO  +2037DRO  V0209991C000010120019N0480001N1+00331-00271999999ADDGD12991+0030099GD24991+0120099GF108991999999999999999999MA1101391999999MW1001REMAWY017SWU OVR MTNS N NW
0103724625999991973030822584+37150-107750SAOSP+2037DRO  V0209991C000010120019N0480001N1+00331-00271999999ADDGD12991+0060099GD24991+0120099GF108991999999999999999999MA1101391999999MW1001REMAWY014SWU OMTNS N-NW
0102724625999991973030902004+37150-107750SAO  +2037DRO  V0209991C000010300019N0240001N1+00111-00161999999ADDGD12991+0180099GD24991+0300099GF108991999999999999999999MA1101321999999MW1001REMAWY013MOON DMLY VIS
0102724625999991973030903004+37150-107750SAO  +2037DRO  V0200401N001510300019N0240001N1+00001-00271999999ADDGD12991+0180099GD24991+0300099GF108991999999999999999999MA1101321999999MW1001REMAWY013MOON DMLY VIS
0065724625999991973030917004+37150-107750SAO  +2037DRO  V0209991C00001000601WN0004001N1+99999+99999999999ADDGD15991+0006099GF109991999999999999999999MA1100951999999MW1751
0065724625999991973030923004+37150-107750SAO  +2037DRO  V0200601N00251003001WN0048001N1+00161+00051999999ADDGD15991+0030099GF109991999999999999999999MA1100711999999MW1701
0080724625999991973031001004+37150-107750SAO  +2037DRO  V0200801N00251000901EN0112001N1+00161+00161999999ADDGD13991+0009099GD24991+0021099GF108991999999999999999999MA1100811999999MW1001
0065724625999991973031002004+37150-107750SAO  +2037DRO  V0200801N00201000301WN0008001N1+00111+00111999999ADDGD15991+0003099GF109991999999999999999999MA1100851999999MW1451
0065724625999991973031002554+37150-107750SAOSP+2037DRO  V0200801N00201000301WN0008001N1+00111+00111999999ADDGD15991+0003099GF109991999999999999999999MA1100851999999MW1451
0065724625999991973031012004+37150-107750SAO  +2037DRO  V0200401N00251000151WN0000001N1-00721-00831999999ADDGD15991+0001599GF109991999999999999999999MA1100751999999MW1451
0065724625999991973031013004+37150-107750SAO  +2037DRO  V0203601N00361000151WN0000001N1-00721-00831999999ADDGD15991+0001599GF109991999999999999999999MA1100781999999MW1451
0065724625999991973031013444+37150-107750SAOSP+2037DRO  V0209991C00001000151WN0000001N1-00551-00611999999ADDGD15991+0001599GF109991999999999999999999MA1100781999999MW1451
0065724625999991973031019004+37150-107750SAO  +2037DRO  V0200401N00251001801EN0128001N1+00161-00271999999ADDGD13991+0018099GF107991999999999999999999MA1100981999999MW1001
0065724625999991973031020004+37150-107750SAO  +2037DRO  V0200401N004112200019N0800001N1+00161-00161999999ADDGD12991+0030099GF102991999999999999999999MA1100951999999MW1001
0065724625999991973031021004+37150-107750SAO  +2037DRO  V0200601N004112200019N0800001N1+00161-00051999999ADDGD12991+0045099GF102991999999999999999999MA1100851999999MW1001
0084724625999991973031022004+37150-107750SAO  +2037DRO  V0209991C000012200019N0640001N1+99999+00221999999ADDGD12991+0090099GF102991999999999999999999MA1100851999999MW1001EQDQ01+028593ATOT  
0065724625999991973031023004+37150-107750SAO  +2037DRO  V0200801N004112200019N0800001N1+00381+00051999999ADDGD12991+0090099GF102991999999999999999999MA1100781999999MW1001
0065724625999991973031102004+37150-107750SAO  +2037DRO  V0209991C000012200019N0240001N1+00051-00331999999ADDGD12991+0540093GF102991999999999999999999MA1100851999999MW1001
0065724625999991973031103004+37150-107750SAO  +2037DRO  V0209991C000012200019N0240001N1+00051-00331999999ADDGD13991+0540093GF107991999999999999999999MA1100851999999MW1001
0065724625999991973031104004+37150-107750SAO  +2037DRO  V0209991C000012200019N0240001N1-00271-00551999999ADDGD12991+0540093GF102991999999999999999999MA1100951999999MW1001
0065724625999991973031112594+37150-107750SAOSP+2037DRO  V0209991C00001009001EN0240001N1-00661-00941999999ADDGD13991+0090099GF107991999999999999999999MA1101251999999MW1001
0080724625999991973031113004+37150-107750SAO  +2037DRO  V0209991C000010090019N0240001N1-00611-00831999999ADDGD12991+0030099GD23991+0090099GF107991999999999999999999MA1101251999999MW1001
0090724625999991973031116004+37150-107750SAO  +2037DRO  V0209991C00001024001EN1200001N1-00221-00551999999ADDGD13991+0240099GF107991999999999999999999MA1101351999999MW1001REMAWY016CLDS TPG MTNS NW
