0394724640930581973010100003+38283-104500SAO  +1428PUB  V0201305N002652200059N1280005N1-00065-00675102145ADDAA101000095GA1041+054865045GA2999+999999999GA3999+999999999GA4999+999999999GD12045+9999999GD20005+9999999GD30005+9999999GD40005+9999999GF104025999999999999999999MA1101761085575MW1001EQDN01 00000JPWTH 1QNNE11 1 00205E11 1 00000E11 1 00000E11 1 00000G11U1 99999H11 1 21180H11 1 00999H11 1 00999H11 1 00999K11 1 00020L11 1 08000M11 1 25270N11 1 00000Q11 1 10214S11 1 00031V11 1 00503X11 1 13005
0050724640930581973010101004+38283-104517SAO  +1439PUB  V0201401N002610540019N0480001N1-00111-00671102321ADDGF107991999999999999999999MA1101901085681MW1001
0050724640930581973010102004+38283-104517SAO  +1439PUB  V0201001N002110135019N0480001N1-00111-00501102351ADDGF108991999999999999999999MA1102001085771MW1001
0313724640930581973010103003+38283-104500SAO  +1428PUB  V0200905N002650070159N0320005N1-00115-00505102425ADDAA101000095GA1081+007015075GD14085+9999999GD20995+9999999GD30995+9999999GD40995+9999999GF108085999999999999999999MA1102071085845MW1001EQDN01 00000JPWTH 1QNNE11 1 00610E11 1 00099E11 1 00099E11 1 00099G11 1 00023H11 1 16023K11 1 00023L11 1 02000M11 1 25350N11 1 00000Q11 1 10242S11 1 00030V11 1 01010X11 1 09005
0050724640930581973010104004+38283-104517SAO  +1439PUB  V0202701N002610075019N0320001N1-00111-00501102511ADDGF108991999999999999999999MA1102201085951MW1001
0050724640930581973010105004+38283-104517SAO  +1439PUB  V0200601N002610075019N0320001N1-00111-00501102551ADDGF108991999999999999999999MA1102301086031MW1001
0313724640930581973010106003+38283-104500SAO  +1428PUB  V0201205N002650045759N0160005N1-00115-00675102635ADDAA101000095GA1081+004575075GD14085+9999999GD20995+9999999GD30995+9999999GD40995+9999999GF108085999999999999999999MA1102401086125MW1715EQDN01 04000JPWTH 1QNNE11 1 00610E11 1 00099E11 1 00099E11 1 00099G11 1 00015H11 1 16015K11 1 00020L11 1 01000M11 1 25430N11 1 04000Q11 1 10263S11 1 00030V11 1 01010X11 1 12005
0286724640930581973010107003+38283-104500SAO  +1428PUB  V0200905N001550039659N0048005N1-00225-00615102675ADDAA101000095GD14995+9999999GD20995+9999999GD30995+9999999GD40995+9999999GF108085999999999999999999MA1102441086155MW1715EQDN01 04000JPWTH 1QNNE11 1 00699E11 1 00099E11 1 00099E11 1 00099G11 1 00013K11 1 00021L11 1 00300M11 1 25440N11 1 04000Q11 1 10267S11 1 00028V11 1 01010X11 1 09003
0286724640930581973010108003+38283-104500SAO  +1428PUB  V0202105N001550070159N0048005N1-00335-00565102695ADDAA101000095GD16995+9999999GD24995+9999999GD30995+9999999GD40995+9999999GF108085999999999999999999MA1102471086185MW1715EQDN01 04000JPWTH 1QNNE11 1 00899E11 1 00699E11 1 00099E11 1 00099G11 1 00023K11 1 00022L11 1 00300M11 1 25450N11 1 04000Q11 1 10269S11 1 00026V11 1 01010X11 1 21003
0313724640930581973010109003+38283-104500SAO  +1428PUB  V02099999000050085359N0080005N1-00335-00565102765ADDAA101000095GA1081+008535075GD14085+9999999GD20995+9999999GD30995+9999999GD40995+9999999GF108085999999999999999999MA1102511086225MW1715EQDN01 04000JPWTH 1QNNE11 1 00610E11 1 00099E11 1 00099E11 1 00099G11 1 00028H11 1 16028K11 1 00022L11 1 00500M11 1 25460N11 1 04000Q11 1 10276S11 1 00026V11 1 01010X11 1 00000
0286724640930581973010110003+38283-104500SAO  +1428PUB  V02099999000050076259N0080005N1-00395-00505102825ADDAA101000095GD14995+9999999GD20995+9999999GD30995+9999999GD40995+9999999GF108085999999999999999999MA1102611086295MW1715EQDN01 04000JPWTH 1QNNE11 1 00699E11 1 00099E11 1 00099E11 1 00099G11 1 00025K11 1 00023L11 1 00500M11 1 25480N11 1 04000Q11 1 10282S11 1 00025V11 1 01010X11 1 00000
0286724640930581973010111003+38283-104500SAO  +1428PUB  V0203205N003150097559N0112005N1-00505-00615102855ADDAA101000095GD14995+9999999GD20995+9999999GD30995+9999999GD40995+9999999GF108085999999999999999999MA1102611086295MW1001EQDN01 00000JPWTH 1QNNE11 1 00699E11 1 00099E11 1 00099E11 1 00099G11 1 00032K11 1 00021L11 1 00700M11 1 25480N11 1 00000Q11 1 10285S11 1 00023V11 1 01010X11 1 32006
0394724640930581973010112003+38283-104500SAO  +1428PUB  V0203505N002650070159N0112005N1-00565-00725102935ADDAA101000095GA1061+007015065GA2999+999999999GA3999+999999999GA4999+999999999GD13065+9999999GD20005+9999999GD30005+9999999GD40005+9999999GF106065999999999999999999MA1102641086325MW1001EQDN01 00000JPWTH 1QNNE11 1 00407E11 1 00000E11 1 00000E11 1 00000G11 1 00023H11 1 15023H11 1 00999H11 1 00999H11 1 00999K11 1 00019L11 1 00700M11 1 25490N11 1 00000Q11 1 10293S11 1 00022V11 1 00707X11 1 35005
0286724640930581973010113003+38283-104500SAO  +1428PUB  V0203405N002650061059N0112005N1-00615-00785103045ADDAA101000095GD13995+9999999GD20995+9999999GD30995+9999999GD40995+9999999GF105055999999999999999999MA1102711086395MW1001EQDN01 00000JPWTH 1QNNE11 1 00499E11 1 00099E11 1 00099E11 1 00099G11 1 00020K11 1 00018L11 1 00700M11 1 25510N11 1 00000Q11 1 10304S11 1 00021V11 1 00606X11 1 34005
0286724640930581973010114003+38283-104500SAO  +1428PUB  V0200205N002150198159N0112005N1-00675-00835103095ADDAA101000095GD13995+9999999GD20995+9999999GD30995+9999999GD40995+9999999GF107065999999999999999999MA1102741086425MW1001EQDN01 00000JPWTH 1QNNE11 1 00499E11 1 00099E11 1 00099E11 1 00099G11 1 00065K11 1 00017L11 1 00700M11 1 25520N11 1 00000Q11 1 10309S11 1 00020V11 1 00908X11 1 02004
0313724640930581973010115003+38283-104500SAO  +1428PUB  V0201205N002150167659N0112005N1-00565-00785103155ADDAA101000095GA1081+016765065GD14085+9999999GD20995+9999999GD30995+9999999GD40995+9999999GF108085999999999999999999MA1102811086495MW1715EQDN01 04000JPWTH 1QNNE11 1 00610E11 1 00099E11 1 00099E11 1 00099G11 1 00055H11 1 15055K11 1 00018L11 1 00700M11 1 25540N11 1 04000Q11 1 10315S11 1 00022V11 1 01010X11 1 12004
0286724640930581973010116003+38283-104500SAO  +1428PUB  V0200105N002652200059N0080005N1-00395-00725103165ADDAA101000095GD16995+9999999GD22995+9999999GD34995+9999993GD40995+9999999GF108045999999999999999999MA1102841086525MW1715EQDN01 04000JPWTH 1QNNE11 1 00899E11 1 00299E11 1 00599E11 1 00099G11U1 99999K11 1 00019L11 1 00500M11 1 25550N11 1 04000Q11 1 10316S11 1 00025V11 1 01005X11 1 01005
0260724640930581973010117003+38283-104500SAO  +1428PUB  V0201405N001052200059N0080005N1-00335-00725103195ADDAA101000095GD12995+9999999GD24995+9999993GD30995+9999999GF108045999999999999999999MA1102911086565MW1715EQDN01 04000JPWTH 1QNNE11 1 00299E11 1 00599E11 1 00099G11U1 99999K11 1 00019L11 1 00500M11 1 25560N11 1 04000Q11 1 10319S11 1 00026V11 1 01005X11 1 14002
0394724640930581973010118003+38283-104500SAO  +1428PUB  V02099999000050039659N0112005N1-00335-00725103125ADDAA101000095GA1061+003965085GA2021+009145065GA3011+076205025GA4999+999999999GD13065+9999999GD23025+9999999GD34015+9999999GD40005+9999999GF108065999999999999999999MA1102811086495MW1001EQDN01 00000JPWTH 1QNNE11 1 00407E11 1 00402E11 1 00601E11 1 00000G11 1 00013H11 1 11013H11 1 15030H11 1 37250H11 1 00999K11 1 00019L11 1 00700M11 1 25540N11 1 00000Q11 1 10312S11 1 00026V11 1 01008X11 1 00000
0286724640930581973010119003+38283-104500SAO  +1428PUB  V0202005N003650045759N0112005N1-00225-00675103045ADDAA101000095GD13995+9999999GD24995+9999999GD30995+9999999GD40995+9999999GF108065999999999999999999MA1102741086425MW1855EQDN01 05000JPWTH 1QNNE11 1 00499E11 1 00699E11 1 00099E11 1 00099G11 1 00015K11 1 00020L11 1 00700M11 1 25520N11 1 05000Q11 1 10304S11 1 00028V11 1 01007X11 1 20007
0286724640930581973010120003+38283-104500SAO  +1428PUB  V0201905N003150036659N0112005N1-00175-00615102925ADDAA101000095GD13995+9999999GD24995+9999999GD30995+9999999GD40995+9999999GF108055999999999999999999MA1102641086325MW1001EQDN01 00000JPWTH 1QNNE11 1 00499E11 1 00699E11 1 00099E11 1 00099G11 1 00012K11 1 00021L11 1 00700M11 1 25490N11 1 00000Q11 1 10292S11 1 00029V11 1 01006X11 1 19006
0394724640930581973010121003+38283-104500SAO  +1428PUB  V0202105N004152200059N0640005N1-00175-00675102805ADDAA101000095GA1021+004575085GA2021+076205025GA3999+999999999GA4999+999999999GD12025+9999999GD21025+9999993GD30005+9999999GD40005+9999999GF104025999999999999999999MA1102511086225MW1001EQDN01 00000JPWTH 1QNNE11 1 00202E11 1 00103E11 1 00000E11 1 00000G11U1 99999H11 1 11015H11 1 37250H11 1 00999H11 1 00999K11 1 00020L11 1 04000M11 1 25460N11 1 00000Q11 1 10280S11 1 00029V11 1 00502X11 1 21008
0286724640930581973010122003+38283-104500SAO  +1428PUB  V0202105N004152200059N0640005N1-00175-00675102815ADDAA101000095GD12995+9999999GD20995+9999999GD30995+9999999GD40995+9999999GF101015999999999999999999MA1102471086185MW1001EQDN01 00000JPWTH 1QNNE11 1 00299E11 1 00099E11 1 00099E11 1 00099G11U1 99999K11 1 00020L11 1 04000M11 1 25450N11 1 00000Q11 1 10281S11 1 00029V11 1 00101X11 1 21008
0286724640930581973010123003+38283-104500SAO  +1428PUB  V0201705N004652200059N1280005N1-00225-00675102745ADDAA101000095GD10995+9999999GD20995+9999999GD30995+9999999GD40995+9999999GF100005999999999999999999MA1102401086125MW1001EQDN01 00000JPWTH 1QNNE11 1 00099E11 1 00099E11 1 00099E11 1 00099G11U1 99999K11 1 00020L11 1 08000M11 1 25430N11 1 00000Q11 1 10274S11 1 00028V11 1 00000X11 1 17009
0182724640930581973010200003+38283-104500SAO  +1428PUB  V0201805N003652200059N0800005N1-00225-00675102715ADDAA101000095GF100005999999999999999999MA1102371086085MW1001EQDN01 00000JPWTH 1QNNG11U1 99999K11 1 00020L11 1 05000M11 1 25420N11 1 00000Q11 1 10271S11 1 00028V11 1 00000X11 1 18007
0286724640930581973010201003+38283-104500SAO  +1428PUB  V0200905N001052200059N0480005N1-00335-00675102755ADDAA101000095GD10995+9999999GD20995+9999999GD30995+9999999GD40995+9999999GF100005999999999999999999MA1102401086125MW1001EQDN01 00000JPWTH 1QNNE11 1 00099E11 1 00099E11 1 00099E11 1 00099G11U1 99999K11 1 00020L11 1 03000M11 1 25430N11 1 00000Q11 1 10275S11 1 00026V11 1 00000X11 1 09002
0286724640930581973010202003+38283-104500SAO  +1428PUB  V0201205N002152200059N0480005N1-00445-00725102825ADDAA101000095GD10995+9999999GD20995+9999999GD30995+9999999GD40995+9999999GF100005999999999999999999MA1102401086125MW1001EQDN01 00000JPWTH 1QNNE11 1 00099E11 1 00099E11 1 00099E11 1 00099G11U1 99999K11 1 00019L11 1 03000M11 1 25430N11 1 00000Q11 1 10282S11 1 00024V11 1 00000X11 1 12004
0182724640930581973010203003+38283-104500SAO  +1428PUB  V0202605N002152200059N0480005N1-00675-00835102865ADDAA101000095GF100005999999999999999999MA1102441086155MW1001EQDN01 00000JPWTH 1QNNG11U1 99999K11 1 00017L11 1 03000M11 1 25440N11 1 00000Q11 1 10286S11 1 00020V11 1 00000X11 1 26004
0286724640930581973010204003+38283-104500SAO  +1428PUB  V0202405N002152200059N0320005N1-00725-00945102845ADDAA101000095GD10995+9999999GD20995+9999999GD30995+9999999GD40995+9999999GF100005999999999999999999MA1102441086155MW1001EQDN01 00000JPWTH 1QNNE11 1 00099E11 1 00099E11 1 00099E11 1 00099G11U1 99999K11 1 00015L11 1 02000M11 1 25440N11 1 00000Q11 1 10284S11 1 00019V11 1 00000X11 1 24004
0286724640930581973010205003+38283-104500SAO  +1428PUB  V0202305N002152200059N0320005N1-00785-00945102785ADDAA101000095GD12995+9999999GD20995+9999999GD30995+9999999GD40995+9999999GF102025999999999999999999MA1102371086085MW1001EQDN01 00000JPWTH 1QNNE11 1 00299E11 1 00099E11 1 00099E11 1 00099G11U1 99999K11 1 00015L11 1 02000M11 1 25420N11 1 00000Q11 1 10278S11 1 00018V11 1 00303X11 1 23004
0394724640930581973010206003+38283-104500SAO  +1428PUB  V0202305N002152200059N0320005N1-00835-01065102705ADDAA101000095GA1021+000615075GA2999+999999999GA3999+999999999GA4999+999999999GD12025+9999999GD20005+9999999GD30005+9999999GD40005+9999999GF102025999999999999999999MA1102271086015MW1001EQDN01 00000JPWTH 1QNNE11 1 00202E11 1 00000E11 1 00000E11 1 00000G11U1 99999H11 1 16002H11 1 00999H11 1 00999H11 1 00999K11 1 00013L11 1 02000M11 1 25400N11 1 00000Q11 1 10270S11 1 00017V11 1 00202X11 1 23004
0286724640930581973010207003+38283-104500SAO  +1428PUB  V0202605N003152200059N0320005N1-00945-01115102645ADDAA101000095GD12995+9999999GD20995+9999999GD30995+9999999GD40995+9999999GF102025999999999999999999MA1102241085985MW1001EQDN01 00000JPWTH 1QNNE11 1 00299E11 1 00099E11 1 00099E11 1 00099G11U1 99999K11 1 00012L11 1 02000M11 1 25390N11 1 00000Q11 1 10264S11 1 00015V11 1 00202X11 1 26006
0286724640930581973010208003+38283-104500SAO  +1428PUB  V0203205N003152200059N0480005N1-01115-01285102505ADDAA101000095GD10995+9999999GD20995+9999999GD30995+9999999GD40995+9999999GF100005999999999999999999MA1102071085845MW1001EQDN01 00000JPWTH 1QNNE11 1 00099E11 1 00099E11 1 00099E11 1 00099G11U1 99999K11 1 00009L11 1 03000M11 1 25350N11 1 00000Q11 1 10250S11 1 00012V11 1 00000X11 1 32006
0394724640930581973010209003+38283-104500SAO  +1428PUB  V0203205N002652200059N0480005N1-01115-01285102425ADDAA101000095GA1011+000915075GA2999+999999999GA3999+999999999GA4999+999999999GD12015+9999999GD20005+9999999GD30005+9999999GD40005+9999999GF101015999999999999999999MA1102001085785MW1001EQDN01 00000JPWTH 1QNNE11 1 00201E11 1 00000E11 1 00000E11 1 00000G11U1 99999H11 1 16003H11 1 00999H11 1 00999H11 1 00999K11 1 00009L11 1 03000M11 1 25330N11 1 00000Q11 1 10242S11 1 00012V11 1 00101X11 1 32005
0286724640930581973010210003+38283-104500SAO  +1428PUB  V0202605N002652200059N0480005N1-00945-01115102235ADDAA101000095GD12995+9999999GD20995+9999999GD30995+9999999GD40995+9999999GF101015999999999999999999MA1101861085645MW1001EQDN01 00000JPWTH 1QNNE11 1 00299E11 1 00099E11 1 00099E11 1 00099G11U1 99999K11 1 00012L11 1 03000M11 1 25290N11 1 00000Q11 1 10223S11 1 00015V11 1 00101X11 1 26005
0286724640930581973010211003+38283-104500SAO  +1428PUB  V0202405N003152200059N0480005N1-01115-01285102175ADDAA101000095GD10995+9999999GD20995+9999999GD30995+9999999GD40995+9999999GF100005999999999999999999MA1101731085545MW1001EQDN01 00000JPWTH 1QNNE11 1 00099E11 1 00099E11 1 00099E11 1 00099G11U1 99999K11 1 00009L11 1 03000M11 1 25260N11 1 00000Q11 1 10217S11 1 00012V11 1 00000X11 1 24006
0410724640930581973010212003+38283-104500SAO  +1428PUB  V0201805N002152200059N0480005N1-01175-01335102065ADDAA101000095GA1999+999999075GA2999+999999999GA3999+999999999GA4999+999999999GD10005+9999999GD20005+9999999GD30005+9999999GD40005+9999999GF100005999999999999999999MA1101631085445MW1001EQDQ01    003SCCGA1N01 00000JPWTH 1QNNE11 1 00000E11 1 00000E11 1 00000E11 1 00000G11U1 99999H11 1 16999H11 1 00999H11 1 00999H11 1 00999K11 1 00008L11 1 03000M11 1 25230N11 1 00000Q11 1 10206S11 1 00011V11 1 00000X11 1 18004
0286724640930581973010213003+38283-104500SAO  +1428PUB  V0203205N002152200059N0480005N1-01115-01335102005ADDAA101000095GD10995+9999999GD20995+9999999GD30995+9999999GD40995+9999999GF100005999999999999999999MA1101521085375MW1001EQDN01 00000JPWTH 1QNNE11 1 00099E11 1 00099E11 1 00099E11 1 00099G11U1 99999K11 1 00008L11 1 03000M11 1 25210N11 1 00000Q11 1 10200S11 1 00012V11 1 00000X11 1 32004
0286724640930581973010214003+38283-104500SAO  +1428PUB  V0202405N003152200059N0480005N1-01115-01335102055ADDAA101000095GD10995+9999999GD20995+9999999GD30995+9999999GD40995+9999999GF100005999999999999999999MA1101561085405MW1001EQDN01 00000JPWTH 1QNNE11 1 00099E11 1 00099E11 1 00099E11 1 00099G11U1 99999K11 1 00008L11 1 03000M11 1 25220N11 1 00000Q11 1 10205S11 1 00012V11 1 00000X11 1 24006
0426724640930581973010215003+38283-104500SAO  +1428PUB  V0203005N002152200059N0800005N1-01115-01335101985ADDAA101000095GA1999+999999035GA2999+999999025GA3999+999999999GA4999+999999999GD10005+9999999GD20005+9999999GD30005+9999999GD40005+9999999GF100005999999999999999999MA1101461085305MW1001EQDQ01    003SCCGA1Q02    003SCCGA2N01 00000JPWTH 1QNNE11 1 00000E11 1 00000E11 1 00000E11 1 00000G11U1 99999H11 1 23999H11 1 37999H11 1 00999H11 1 00999K11 1 00008L11 1 05000M11 1 25190N11 1 00000Q11 1 10198S11 1 00012V11 1 00000X11 1 30004
0286724640930581973010216003+38283-104500SAO  +1428PUB  V0203305N001052200059N0640005N1-00895-01175101965ADDAA101000095GD12995+9999999GD20995+9999999GD30995+9999999GD40995+9999999GF101015999999999999999999MA1101461085305MW1001EQDN01 00000JPWTH 1QNNE11 1 00299E11 1 00099E11 1 00099E11 1 00099G11U1 99999K11 1 00011L11 1 04000M11 1 25190N11 1 00000Q11 1 10196S11 1 00016V11 1 00101X11 1 33002
0286724640930581973010217003+38283-104500SAO  +1428PUB  V0202005N001552200059N0096005N1-00615-00945101885ADDAA101000095GD13995+9999993GD20995+9999999GD30995+9999999GD40995+9999999GF105025999999999999999999MA1101421085275MW1045EQDN01 08000JPWTH 1QNNE11 1 00399E11 1 00099E11 1 00099E11 1 00099G11U1 99999K11 1 00015L11 1 00600M11 1 25180N11 1 08000Q11 1 10188S11 1 00021V11 1 00602X11 1 20003
0394724640930581973010218003+38283-104500SAO  +1428PUB  V0200305N002652200059N0128005N1-00395-00895101685ADDAA101000095GA1061+076205025GA2999+999999999GA3999+999999999GA4999+999999999GD13065+9999993GD20005+9999999GD30005+9999999GD40005+9999999GF106035999999999999999999MA1101251085135MW1001EQDN01 00000JPWTH 1QNNE11 1 00308E11 1 00000E11 1 00000E11 1 00000G11U1 99999H11 1 37250H11 1 00999H11 1 00999H11 1 00999K11 1 00016L11 1 00800M11 1 25140N11 1 00000Q11 1 10168S11 1 00025V11 1 00804X11 1 03005
0286724640930581973010219003+38283-104500SAO  +1428PUB  V0201005N004152200059N0240005N1-00175-00675101505ADDAA101000095GD13995+9999993GD20995+9999999GD30995+9999999GD40995+9999999GF106025999999999999999999MA1101151085035MW1001EQDN01 00000JPWTH 1QNNE11 1 00399E11 1 00099E11 1 00099E11 1 00099G11U1 99999K11 1 00020L11 1 01500M11 1 25110N11 1 00000Q11 1 10150S11 1 00029V11 1 00803X11 1 10008
0286724640930581973010220003+38283-104500SAO  +1428PUB  V0201305N002652200059N0320005N1-00115-00725101345ADDAA101000095GD11995+9999993GD20995+9999999GD30995+9999999GD40995+9999999GF104015999999999999999999MA1100951084865MW1001EQDN01 00000JPWTH 1QNNE11 1 00199E11 1 00099E11 1 00099E11 1 00099G11U1 99999K11 1 00019L11 1 02000M11 1 25060N11 1 00000Q11 1 10134S11 1 00030V11 1 00501X11 1 13005
0394724640930581973010221003+38283-104500SAO  +1428PUB  V02099999000052200059N0480005N1+00065-00725101095ADDAA101000095GA1021+076205025GA2999+999999999GA3999+999999999GA4999+999999999GD11025+9999993GD20005+9999999GD30005+9999999GD40005+9999999GF102015999999999999999999MA1100751084695MW1001EQDN01 00000JPWTH 1QNNE11 1 00102E11 1 00000E11 1 00000E11 1 00000G11U1 99999H11 1 37250H11 1 00999H11 1 00999H11 1 00999K11 1 00019L11 1 03000M11 1 25010N11 1 00000Q11 1 10109S11 1 00033V11 1 00201X11 1 00000
0286724640930581973010222003+38283-104500SAO  +1428PUB  V02099999000052200059N0480005N1+00175-00615100955ADDAA101000095GD10995+9999999GD20995+9999999GD30995+9999999GD40995+9999999GF100005999999999999999999MA1100681084635MW1001EQDN01 00000JPWTH 1QNNE11 1 00099E11 1 00099E11 1 00099E11 1 00099G11U1 99999K11 1 00021L11 1 03000M11 1 24990N11 1 00000Q11 1 10095S11 1 00035V11 1 00000X11 1 00000
0286724640930581973010223003+38283-104500SAO  +1428PUB  V0202105N002652200059N0800005N1+00005-00565100935ADDAA101000095GD10995+9999999GD20995+9999999GD30995+9999999GD40995+9999999GF100005999999999999999999MA1100611084565MW1001EQDN01 00000JPWTH 1QNNE11 1 00099E11 1 00099E11 1 00099E11 1 00099G11U1 99999K11 1 00022L11 1 05000M11 1 24970N11 1 00000Q11 1 10093S11 1 00032V11 1 00000X11 1 21005
0182724640930581973010300003+38283-104500SAO  +1428PUB  V0202905N002152200059N0480005N1-00175-00565100985ADDAA101000095GF100005999999999999999999MA1100611084565MW1001EQDN01 00000JPWTH 1QNNG11U1 99999K11 1 00022L11 1 03000M11 1 24970N11 1 00000Q11 1 10098S11 1 00029V11 1 00000X11 1 29004
0286724640930581973010301003+38283-104500SAO  +1428PUB  V0202705N002152200059N0480005N1-00335-00615100965ADDAA101000095GD10995+9999999GD20995+9999999GD30995+9999999GD40995+9999999GF100005999999999999999999MA1100581084525MW1001EQDN01 00000JPWTH 1QNNE11 1 00099E11 1 00099E11 1 00099E11 1 00099G11U1 99999K11 1 00021L11 1 03000M11 1 24960N11 1 00000Q11 1 10096S11 1 00026V11 1 00000X11 1 27004
0286724640930581973010302003+38283-104500SAO  +1428PUB  V0202605N001552200059N0480005N1-00395-00675101005ADDAA101000095GD10995+9999999GD20995+9999999GD30995+9999999GD40995+9999999GF100005999999999999999999MA1100581084525MW1001EQDN01 00000JPWTH 1QNNE11 1 00099E11 1 00099E11 1 00099E11 1 00099G11U1 99999K11 1 00020L11 1 03000M11 1 24960N11 1 00000Q11 1 10100S11 1 00025V11 1 00000X11 1 26003
0182724640930581973010303003+38283-104500SAO  +1428PUB  V0202605N002652200059N0480005N1-00505-00725100965ADDAA101000095GF100005999999999999999999MA1100541084495MW1001EQDN01 00000JPWTH 1QNNG11U1 99999K11 1 00019L11 1 03000M11 1 24950N11 1 00000Q11 1 10096S11 1 00023V11 1 00000X11 1 26005
0286724640930581973010304003+38283-104500SAO  +1428PUB  V0202605N003652200059N0480005N1-00565-00835100905ADDAA101000095GD10995+9999999GD20995+9999999GD30995+9999999GD40995+9999999GF100005999999999999999999MA1100471084465MW1001EQDN01 00000JPWTH 1QNNE11 1 00099E11 1 00099E11 1 00099E11 1 00099G11U1 99999K11 1 00017L11 1 03000M11 1 24940N11 1 00000Q11 1 10090S11 1 00022V11 1 00000X11 1 26007
0286724640930581973010305003+38283-104500SAO  +1428PUB  V0202405N004652200059N0480005N1-00725-00945100925ADDAA101000095GD10995+9999999GD20995+9999999GD30995+9999999GD40995+9999999GF100005999999999999999999MA1100541084495MW1001EQDN01 00000JPWTH 1QNNE11 1 00099E11 1 00099E11 1 00099E11 1 00099G11U1 99999K11 1 00015L11 1 03000M11 1 24950N11 1 00000Q11 1 10092S11 1 00019V11 1 00000X11 1 24009
0182724640930581973010306003+38283-104500SAO  +1428PUB  V0202805N004152200059N0480005N1-00895-01065100885ADDAA101000095GF100005999999999999999999MA1100471084465MW1001EQDN01 00000JPWTH 1QNNG11U1 99999K11 1 00013L11 1 03000M11 1 24940N11 1 00000Q11 1 10088S11 1 00016V11 1 00000X11 1 28008
0286724640930581973010307003+38283-104500SAO  +1428PUB  V0202205N002152200059N0480005N1-00835-01065100765ADDAA101000095GD10995+9999999GD20995+9999999GD30995+9999999GD40995+9999999GF100005999999999999999999MA1100441084425MW1001EQDN01 00000JPWTH 1QNNE11 1 00099E11 1 00099E11 1 00099E11 1 00099G11U1 99999K11 1 00013L11 1 03000M11 1 24930N11 1 00000Q11 1 10076S11 1 00017V11 1 00000X11 1 22004
0286724640930581973010308003+38283-104500SAO  +1428PUB  V0202705N002652200059N0480005N1-00835-01065100645ADDAA101000095GD10995+9999999GD20995+9999999GD30995+9999999GD40995+9999999GF100005999999999999999999MA1100371084355MW1001EQDN01 00000JPWTH 1QNNE11 1 00099E11 1 00099E11 1 00099E11 1 00099G11U1 99999K11 1 00013L11 1 03000M11 1 24910N11 1 00000Q11 1 10064S11 1 00017V11 1 00000X11 1 27005
0182724640930581973010309003+38283-104500SAO  +1428PUB  V0202005N001552200059N0480005N1-00895-01115100675ADDAA101000095GF100005999999999999999999MA1100411084395MW1001EQDN01 00000JPWTH 1QNNG11U1 99999K11 1 00012L11 1 03000M11 1 24920N11 1 00000Q11 1 10067S11 1 00016V11 1 00000X11 1 20003
0286724640930581973010310003+38283-104500SAO  +1428PUB  V0203205N004652200059N0480005N1-00945-01175100715ADDAA101000095GD10995+9999999GD20995+9999999GD30995+9999999GD40995+9999999GF100005999999999999999999MA1100441084425MW1001EQDN01 00000JPWTH 1QNNE11 1 00099E11 1 00099E11 1 00099E11 1 00099G11U1 99999K11 1 00011L11 1 03000M11 1 24930N11 1 00000Q11 1 10071S11 1 00015V11 1 00000X11 1 32009
0286724640930581973010311003+38283-104500SAO  +1428PUB  V0202505N003652200059N0480005N1-01005-01225100795ADDAA101000095GD10995+9999999GD20995+9999999GD30995+9999999GD40995+9999999GF100005999999999999999999MA1100471084465MW1001EQDN01 00000JPWTH 1QNNE11 1 00099E11 1 00099E11 1 00099E11 1 00099G11U1 99999K11 1 00010L11 1 03000M11 1 24940N11 1 00000Q11 1 10079S11 1 00014V11 1 00000X11 1 25007
0410724640930581973010312003+38283-104500SAO  +1428PUB  V0202705N003652200059N0480005N1-00895-01225100795ADDAA101000095GA1999+999999065GA2999+999999999GA3999+999999999GA4999+999999999GD10005+9999999GD20005+9999999GD30005+9999999GD40005+9999999GF100005999999999999999999MA1100471084465MW1001EQDQ01    003SCCGA1N01 00000JPWTH 1QNNE11 1 00000E11 1 00000E11 1 00000E11 1 00000G11U1 99999H11 1 15999H11 1 00999H11 1 00999H11 1 00999K11 1 00010L11 1 03000M11 1 24940N11 1 00000Q11 1 10079S11 1 00016V11 1 00000X11 1 27007
0286724640930581973010313003+38283-104500SAO  +1428PUB  V0202405N004152200059N0480005N1-01005-01225100955ADDAA101000095GD10995+9999999GD20995+9999999GD30995+9999999GD40995+9999999GF100005999999999999999999MA1100581084525MW1001EQDN01 00000JPWTH 1QNNE11 1 00099E11 1 00099E11 1 00099E11 1 00099G11U1 99999K11 1 00010L11 1 03000M11 1 24960N11 1 00000Q11 1 10095S11 1 00014V11 1 00000X11 1 24008
0286724640930581973010314003+38283-104500SAO  +1428PUB  V0202705N002652200059N1280005N1-01005-01225101065ADDAA101000095GD12995+9999999GD20995+9999999GD30995+9999999GD40995+9999999GF101015999999999999999999MA1100641084595MW1001EQDN01 00000JPWTH 1QNNE11 1 00299E11 1 00099E11 1 00099E11 1 00099G11U1 99999K11 1 00010L11 1 08000M11 1 24980N11 1 00000Q11 1 10106S11 1 00014V11 1 00101X11 1 27005
0426724640930581973010315003+38283-104500SAO  +1428PUB  V0202505N002652200059N1280005N1-00895-01225101155ADDAA101000095GA1999+999999035GA2999+999999025GA3999+999999999GA4999+999999999GD10005+9999999GD20005+9999999GD30005+9999999GD40005+9999999GF100005999999999999999999MA1100751084695MW1001EQDQ01    003SCCGA1Q02    003SCCGA2N01 00000JPWTH 1QNNE11 1 00000E11 1 00000E11 1 00000E11 1 00000G11U1 99999H11 1 23999H11 1 37999H11 1 00999H11 1 00999K11 1 00010L11 1 08000M11 1 25010N11 1 00000Q11 1 10115S11 1 00016V11 1 00000X11 1 25005
0286724640930581973010316003+38283-104500SAO  +1428PUB  V0200305N006252200059N1280005N1-00285-00895101155ADDAA101000095GD10995+9999999GD20995+9999999GD30995+9999999GD40995+9999999GF100005999999999999999999MA1100851084765MW1001EQDN01 00000JPWTH 1QNNE11 1 00099E11 1 00099E11 1 00099E11 1 00099G11U1 99999K11 1 00016L11 1 08000M11 1 25030N11 1 00000Q11 1 10115S11 1 00027V11 1 00000X11 1 03012
0286724640930581973010317003+38283-104500SAO  +1428PUB  V0200505N007252200059N1280005N1+00005-00785101205ADDAA101000095GD10995+9999999GD20995+9999999GD30995+9999999GD40995+9999999GF100005999999999999999999MA1100811084735MW1001EQDN01 00000JPWTH 1QNNE11 1 00099E11 1 00099E11 1 00099E11 1 00099G11U1 99999K11 1 00018L11 1 08000M11 1 25020N11 1 00000Q11 1 10120S11 1 00032V11 1 00000X11 1 05014
0410724640930581973010318003+38283-104500SAO  +1428PUB  V0200305N005252200059N1280005N1+00115-00725101105ADDAA101000095GA1999+999999005GA2999+999999999GA3999+999999999GA4999+999999999GD10005+9999999GD20005+9999999GD30005+9999999GD40005+9999999GF100005999999999999999999MA1100811084735MW1001EQDQ01    003SCCGA1N01 00000JPWTH 1QNNE11 1 00000E11 1 00000E11 1 00000E11 1 00000G11U1 99999H11 1 32999H11 1 00999H11 1 00999H11 1 00999K11 1 00019L11 1 08000M11 1 25020N11 1 00000Q11 1 10110S11 1 00034V11 1 00000X11 1 03010
0286724640930581973010319003+38283-104500SAO  +1428PUB  V0200605N003152200059N1280005N1+00225-00675100905ADDAA101000095GD10995+9999999GD20995+9999999GD30995+9999999GD40995+9999999GF100005999999999999999999MA1100681084635MW1001EQDN01 00000JPWTH 1QNNE11 1 00099E11 1 00099E11 1 00099E11 1 00099G11U1 99999K11 1 00020L11 1 08000M11 1 24990N11 1 00000Q11 1 10090S11 1 00036V11 1 00000X11 1 06006
0286724640930581973010320003+38283-104500SAO  +1428PUB  V0201405N004152200059N1280005N1+00285-00505100885ADDAA101000095GD10995+9999999GD20995+9999999GD30995+9999999GD40995+9999999GF100005999999999999999999MA1100641084595MW1001EQDN01 00000JPWTH 1QNNE11 1 00099E11 1 00099E11 1 00099E11 1 00099G11U1 99999K11 1 00023L11 1 08000M11 1 24980N11 1 00000Q11 1 10088S11 1 00037V11 1 00000X11 1 14008
0410724640930581973010321003+38283-104500SAO  +1428PUB  V0201205N006252200059N1280005N1+00285-00445100935ADDAA101000095GA1011+018295065GA2999+999999005GA3999+999999999GA4999+999999999GD12015+9999999GD22005+9999999GD30005+9999999GD40005+9999999GF101015999999999999999999MA1100681084635MW1001EQDQ01    003SCCGA2N01 00000JPWTH 1QNNE11 1 00201E11 1 00200E11 1 00000E11 1 00000G11U1 99999H11 1 15060H11 1 32999H11 1 00999H11 1 00999K11 1 00024L11 1 08000M11 1 24990N11 1 00000Q11 1 10093S11 1 00037V11 1 00101X11 1 12012
0286724640930581973010322003+38283-104500SAO  +1428PUB  V0201205N009352200059N1280005N1+00225-00505100975ADDAA101000095GD10995+9999999GD20995+9999999GD30995+9999999GD40995+9999999GF100005999999999999999999MA1100711084665MW1001EQDN01 00000JPWTH 1QNNE11 1 00099E11 1 00099E11 1 00099E11 1 00099G11U1 99999K11 1 00023L11 1 08000M11 1 25000N11 1 00000Q11 1 10097S11 1 00036V11 1 00000X11 1 12018
0286724640930581973010323003+38283-104500SAO  +1428PUB  V0201105N007750097559N0480005N1+00005-00565101245ADDAA101000095GD13995+9999999GD20995+9999999GD30995+9999999GD40995+9999999GF105055999999999999999999MA1100911084835MW1001EQDN01 00000JPWTH 1QNNE11 1 00499E11 1 00099E11 1 00099E11 1 00099G11 1 00032K11 1 00022L11 1 03000M11 1 25050N11 1 00000Q11 1 10124S11 1 00032V11 1 00606X11 1 11015
0394724640930581973010400003+38283-104500SAO  +1428PUB  V0201105N008250061059N0480005N1-00065-00565101305ADDAA101000095GA1071+006105065GA2999+999999999GA3999+999999999GA4999+999999999GD13075+9999999GD20005+9999999GD30005+9999999GD40005+9999999GF107075999999999999999999MA1100981084905MW1001EQDN01 00000JPWTH 1QNNE11 1 00409E11 1 00000E11 1 00000E11 1 00000G11 1 00020H11 1 15020H11 1 00999H11 1 00999H11 1 00999K11 1 00022L11 1 03000M11 1 25070N11 1 00000Q11 1 10130S11 1 00031V11 1 00909X11 1 11016
0286724640930581973010401003+38283-104500SAO  +1428PUB  V0201305N006750057959N0480005N1-00285-00565101555ADDAA101000095GD14995+9999999GD20995+9999999GD30995+9999999GD40995+9999999GF108085999999999999999999MA1101151085035MW1001EQDN01 00000JPWTH 1QNNE11 1 00699E11 1 00099E11 1 00099E11 1 00099G11 1 00019K11 1 00022L11 1 03000M11 1 25110N11 1 00000Q11 1 10155S11 1 00027V11 1 01010X11 1 13013
0286724640930581973010402003+38283-104500SAO  +1428PUB  V0201205N008250045759N0480005N1-00285-00615101655ADDAA101000095GD14995+9999999GD20995+9999999GD30995+9999999GD40995+9999999GF108085999999999999999999MA1101221085105MW1001EQDN01 00000JPWTH 1QNNE11 1 00699E11 1 00099E11 1 00099E11 1 00099G11 1 00015K11 1 00021L11 1 03000M11 1 25130N11 1 00000Q11 1 10165S11 1 00027V11 1 01010X11 1 12016
0313724640930581973010403003+38283-104500SAO  +1428PUB  V0201105N006250051859N0480005N1-00445-00725101715ADDAA101000095GA1081+005185065GD14085+9999999GD20995+9999999GD30995+9999999GD40995+9999999GF108085999999999999999999MA1101321085175MW1001EQDN01 00000JPWTH 1QNNE11 1 00610E11 1 00099E11 1 00099E11 1 00099G11 1 00017H11 1 15017K11 1 00019L11 1 03000M11 1 25150N11 1 00000Q11 1 10171S11 1 00024V11 1 01010X11 1 11012
0286724640930581973010404003+38283-104500SAO  +1428PUB  V0201005N005750051859N0160005N1-00505-00785101725ADDAA101000095GD14995+9999999GD20995+9999999GD30995+9999999GD40995+9999999GF108085999999999999999999MA1101421085275MW1715EQDN01 04000JPWTH 1QNNE11 1 00699E11 1 00099E11 1 00099E11 1 00099G11 1 00017K11 1 00018L11 1 01000M11 1 25180N11 1 04000Q11 1 10172S11 1 00023V11 1 01010X11 1 10011
0286724640930581973010405003+38283-104500SAO  +1428PUB  V0201005N005250036659N0112005N1-00565-00835101715ADDAA101000095GD14995+9999999GD20995+9999999GD30995+9999999GD40995+9999999GF108085999999999999999999MA1101461085305MW1715EQDN01 04000JPWTH 1QNNE11 1 00699E11 1 00099E11 1 00099E11 1 00099G11 1 00012K11 1 00017L11 1 00700M11 1 25190N11 1 04000Q11 1 10171S11 1 00022V11 1 01010X11 1 10010
0313724640930581973010406003+38283-104500SAO  +1428PUB  V0201005N006250030559N0080005N1-00615-00835101755ADDAA101000095GA1081+003055065GD14085+9999999GD20995+9999999GD30995+9999999GD40995+9999999GF108085999999999999999999MA1101491085345MW1715EQDN01 04000JPWTH 1QNNE11 1 00610E11 1 00099E11 1 00099E11 1 00099G11 1 00010H11 1 15010K11 1 00017L11 1 00500M11 1 25200N11 1 04000Q11 1 10175S11 1 00021V11 1 01010X11 1 10012
0286724640930581973010407003+38283-104500SAO  +1428PUB  V0201005N006250024459N0080005N1-00675-00835101745ADDAA101000095GD14995+9999999GD20995+9999999GD30995+9999999GD40995+9999999GF108085999999999999999999MA1101491085345MW1715EQDN01 04000JPWTH 1QNNE11 1 00699E11 1 00099E11 1 00099E11 1 00099G11 1 00008K11 1 00017L11 1 00500M11 1 25200N11 1 04000Q11 1 10174S11 1 00020V11 1 01010X11 1 10012
0286724640930581973010408003+38283-104500SAO  +1428PUB  V0201205N005750021359N0112005N1-00725-00835101715ADDAA101000095GD14995+9999999GD20995+9999999GD30995+9999999GD40995+9999999GF108085999999999999999999MA1101461085305MW1715EQDN01 04000JPWTH 1QNNE11 1 00699E11 1 00099E11 1 00099E11 1 00099G11 1 00007K11 1 00017L11 1 00700M11 1 25190N11 1 04000Q11 1 10171S11 1 00019V11 1 01010X11 1 12011
0313724640930581973010409003+38283-104500SAO  +1428PUB  V0201205N005250009159N0080005N1-00785-00835101755ADDAA101000395GA1081+000915135GD14085+9999999GD20995+9999999GD30995+9999999GD40995+9999999GF108085999999999999999999MA1101491085345MW1715EQDN01 04000JPWTH 1QNNE11 1 00610E11 1 00099E11 1 00099E11 1 00099G11 1 00003H11 1 13003K11 1 00017L11 1 00500M11 1 25200N11 1 04000Q11 1 10175S11 1 00018V11 1 01010X11 1 12010
0292724640930581973010410003+38283-104500SAO  +1428PUB  V0201205N004650012259N0064005N1-00785-00835101795ADDAA101000095GD14995+9999999GD20995+9999999GD30995+9999999GD40995+9999999GF108085999999999999999999MA1101521085375MW1455MW2715EQDN01 04070JPWTH 1QNNE11 1 00699E11 1 00099E11 1 00099E11 1 00099G11 1 00004K11 1 00017L11 1 00400M11 1 25210N11 1 04070Q11 1 10179S11 1 00018V11 1 01010X11 1 12009
0292724640930581973010411003+38283-104500SAO  +1428PUB  V0201205N003150009159N0064005N1-00785-00835101835ADDAA101000095GD14995+9999999GD20995+9999999GD30995+9999999GD40995+9999999GF108085999999999999999999MA1101521085375MW1455MW2715EQDN01 04070JPWTH 1QNNE11 1 00699E11 1 00099E11 1 00099E11 1 00099G11 1 00003K11 1 00017L11 1 00400M11 1 25210N11 1 04070Q11 1 10183S11 1 00018V11 1 01010X11 1 12006
0319724640930581973010412003+38283-104500SAO  +1428PUB  V0201405N004150006159N0016005N1-00835-00895101865ADDAA101000095GA1081+000615135GD14085+9999999GD20995+9999999GD30995+9999999GD40995+9999999GF108085999999999999999999MA1101521085375MW1455MW2715EQDN01 04070JPWTH 1QNNE11 1 00610E11 1 00099E11 1 00099E11 1 00099G11 1 00002H11 1 13002K11 1 00016L11 1 00100M11 1 25210N11 1 04070Q11 1 10186S11 1 00017V11 1 01010X11 1 14008
0292724640930581973010413003+38283-104500SAO  +1428PUB  V0201305N004150009159N0016005N1-00835-00895101895ADDAA101000095GD14995+9999999GD20995+9999999GD30995+9999999GD40995+9999999GF108085999999999999999999MA1101521085375MW1455MW2715EQDN01 04070JPWTH 1QNNE11 1 00699E11 1 00099E11 1 00099E11 1 00099G11 1 00003K11 1 00016L11 1 00100M11 1 25210N11 1 04070Q11 1 10189S11 1 00017V11 1 01010X11 1 13008
0292724640930581973010414003+38283-104500SAO  +1428PUB  V0201205N004150012259N0032005N1-00835-00895101945ADDAA101000095GD12995+9999999GD24995+9999999GD30995+9999999GD40995+9999999GF108085999999999999999999MA1101561085405MW1455MW2715EQDN01 04070JPWTH 1QNNE11 1 00299E11 1 00699E11 1 00099E11 1 00099G11 1 00004K11 1 00016L11 1 00200M11 1 25220N11 1 04070Q11 1 10194S11 1 00017V11 1 01010X11 1 12008
0319724640930581973010415003+38283-104500SAO  +1428PUB  V0201105N003650012259N0048005N1-00835-00945102015ADDAA101000095GA1081+001225135GD14085+9999999GD20995+9999999GD30995+9999999GD40995+9999999GF108085999999999999999999MA1101631085445MW1455MW2715EQDN01 04070JPWTH 1QNNE11 1 00610E11 1 00099E11 1 00099E11 1 00099G11 1 00004H11 1 13004K11 1 00015L11 1 00300M11 1 25230N11 1 04070Q11 1 10201S11 1 00017V11 1 01010X11 1 11007
0292724640930581973010416003+38283-104500SAO  +1428PUB  V0201205N004150015259N0048005N1-00835-01005102145ADDAA101000095GD14995+9999999GD20995+9999999GD30995+9999999GD40995+9999999GF108085999999999999999999MA1101691085515MW1455MW2715EQDN01 04070JPWTH 1QNNE11 1 00699E11 1 00099E11 1 00099E11 1 00099G11 1 00005K11 1 00014L11 1 00300M11 1 25250N11 1 04070Q11 1 10214S11 1 00017V11 1 01010X11 1 12008
0292724640930581973010417003+38283-104500SAO  +1428PUB  V0201105N003650018359N0048005N1-00835-00945102115ADDAA101000095GD14995+9999999GD20995+9999999GD30995+9999999GD40995+9999999GF108085999999999999999999MA1101661085475MW1455MW2715EQDN01 04070JPWTH 1QNNE11 1 00699E11 1 00099E11 1 00099E11 1 00099G11 1 00006K11 1 00015L11 1 00300M11 1 25240N11 1 04070Q11 1 10211S11 1 00017V11 1 01010X11 1 11007
0319724640930581973010418003+38283-104500SAO  +1428PUB  V0201205N003650018359N0048005N1-00785-00945102055ADDAA101000095GA1081+001835075GD14085+9999999GD20995+9999999GD30995+9999999GD40995+9999999GF108085999999999999999999MA1101631085445MW1455MW2715EQDN01 04070JPWTH 1QNNE11 1 00610E11 1 00099E11 1 00099E11 1 00099G11 1 00006H11 1 16006K11 1 00015L11 1 00300M11 1 25230N11 1 04070Q11 1 10205S11 1 00018V11 1 01010X11 1 12007
0292724640930581973010419003+38283-104500SAO  +1428PUB  V0201105N004150018359N0048005N1-00785-00945101995ADDAA101000095GD14995+9999999GD20995+9999999GD30995+9999999GD40995+9999999GF108085999999999999999999MA1101421085275MW1455MW2715EQDN01 04070JPWTH 1QNNE11 1 00699E11 1 00099E11 1 00099E11 1 00099G11 1 00006K11 1 00015L11 1 00300M11 1 25180N11 1 04070Q11 1 10199S11 1 00018V11 1 01010X11 1 11008
0292724640930581973010420003+38283-104500SAO  +1428PUB  V0201105N004650015259N0048005N1-00725-00895101795ADDAA101000095GD14995+9999999GD20995+9999999GD30995+9999999GD40995+9999999GF108085999999999999999999MA1101351085205MW1455MW2715EQDN01 04070JPWTH 1QNNE11 1 00699E11 1 00099E11 1 00099E11 1 00099G11 1 00005K11 1 00016L11 1 00300M11 1 25160N11 1 04070Q11 1 10179S11 1 00019V11 1 01010X11 1 11009
0319724640930581973010421003+38283-104500SAO  +1428PUB  V0201005N003650015259N0064005N1-00725-00895101765ADDAA101000095GA1081+001525075GD14085+9999999GD20995+9999999GD30995+9999999GD40995+9999999GF108085999999999999999999MA1101321085175MW1455MW2715EQDN01 04070JPWTH 1QNNE11 1 00610E11 1 00099E11 1 00099E11 1 00099G11 1 00005H11 1 16005K11 1 00016L11 1 00400M11 1 25150N11 1 04070Q11 1 10176S11 1 00019V11 1 01010X11 1 10007
0292724640930581973010422003+38283-104500SAO  +1428PUB  V0201005N004150015259N0080005N1-00725-00895101715ADDAA101000095GD14995+9999999GD20995+9999999GD30995+9999999GD40995+9999999GF108085999999999999999999MA1101251085135MW1455MW2715EQDN01 04070JPWTH 1QNNE11 1 00699E11 1 00099E11 1 00099E11 1 00099G11 1 00005K11 1 00016L11 1 00500M11 1 25140N11 1 04070Q11 1 10171S11 1 00019V11 1 01010X11 1 10008
0292724640930581973010423003+38283-104500SAO  +1428PUB  V0200905N004150015259N0080005N1-00675-00835101715ADDAA101000095GD14995+9999999GD20995+9999999GD30995+9999999GD40995+9999999GF108085999999999999999999MA1101251085135MW1455MW2715EQDN01 04070JPWTH 1QNNE11 1 00699E11 1 00099E11 1 00099E11 1 00099G11 1 00005K11 1 00017L11 1 00500M11 1 25140N11 1 04070Q11 1 10171S11 1 00020V11 1 01010X11 1 09008
0319724640930581973010500003+38283-104500SAO  +1428PUB  V0201105N003650015259N0080005N1-00675-00895101765ADDAA101000095GA1081+001525075GD14085+9999999GD20995+9999999GD30995+9999999GD40995+9999999GF108085999999999999999999MA1101321085175MW1455MW2715EQDN01 04070JPWTH 1QNNE11 1 00610E11 1 00099E11 1 00099E11 1 00099G11 1 00005H11 1 16005K11 1 00016L11 1 00500M11 1 25150N11 1 04070Q11 1 10176S11 1 00020V11 1 01010X11 1 11007
0292724640930581973010501003+38283-104500SAO  +1428PUB  V0200905N003150012259N0080005N1-00725-00895101855ADDAA101000095GD14995+9999999GD20995+9999999GD30995+9999999GD40995+9999999GF108085999999999999999999MA1101391085245MW1455MW2715EQDN01 04070JPWTH 1QNNE11 1 00699E11 1 00099E11 1 00099E11 1 00099G11 1 00004K11 1 00016L11 1 00500M11 1 25170N11 1 04070Q11 1 10185S11 1 00019V11 1 01010X11 1 09006
0292724640930581973010502003+38283-104500SAO  +1428PUB  V0200805N003150012259N0080005N1-00785-00895101905ADDAA101000095GD14995+9999999GD20995+9999999GD30995+9999999GD40995+9999999GF108085999999999999999999MA1101421085275MW1455MW2715EQDN01 04070JPWTH 1QNNE11 1 00699E11 1 00099E11 1 00099E11 1 00099G11 1 00004K11 1 00016L11 1 00500M11 1 25180N11 1 04070Q11 1 10190S11 1 00018V11 1 01010X11 1 08006
0319724640930581973010503003+38283-104500SAO  +1428PUB  V0201105N003150036659N0080005N1-00785-00945101935ADDAA101000095GA1081+003665075GD14085+9999999GD20995+9999999GD30995+9999999GD40995+9999999GF108085999999999999999999MA1101421085275MW1455MW2715EQDN01 04070JPWTH 1QNNE11 1 00610E11 1 00099E11 1 00099E11 1 00099G11 1 00012H11 1 16012K11 1 00015L11 1 00500M11 1 25180N11 1 04070Q11 1 10193S11 1 00018V11 1 01010X11 1 11006
0292724640930581973010504003+38283-104500SAO  +1428PUB  V0200605N002650024459N0048005N1-00835-01005101965ADDAA101000095GD14995+9999999GD20995+9999999GD30995+9999999GD40995+9999999GF108085999999999999999999MA1101461085305MW1455MW2715EQDN01 04070JPWTH 1QNNE11 1 00699E11 1 00099E11 1 00099E11 1 00099G11 1 00008K11 1 00014L11 1 00300M11 1 25190N11 1 04070Q11 1 10196S11 1 00017V11 1 01010X11 1 06005
0292724640930581973010505003+38283-104500SAO  +1428PUB  V0200105N003150024459N0048005N1-01065-01225102065ADDAA101000095GD14995+9999999GD20995+9999999GD30995+9999999GD40995+9999999GF108085999999999999999999MA1101491085345MW1455MW2715EQDN01 04070JPWTH 1QNNE11 1 00699E11 1 00099E11 1 00099E11 1 00099G11 1 00008K11 1 00010L11 1 00300M11 1 25200N11 1 04070Q11 1 10206S11 1 00013V11 1 01010X11 1 01006
0400724640930581973010506003+38283-104500SAO  +1428PUB  V0200605N002150045759N0048005N1-01005-01175102105ADDAA101000395GA1061+004575065GA2999+999999999GA3999+999999999GA4999+999999999GD13065+9999999GD20005+9999999GD30005+9999999GD40005+9999999GF106065999999999999999999MA1101561085405MW1455MW2715EQDN01 04070JPWTH 1QNNE11 1 00408E11 1 00000E11 1 00000E11 1 00000G11 1 00015H11 1 15015H11 1 00999H11 1 00999H11 1 00999K11 1 00011L11 1 00300M11 1 25220N11 1 04070Q11 1 10210S11 1 00014V11 1 00808X11 1 06004
0286724640930581973010507003+38283-104500SAO  +1428PUB  V0200305N003150061059N0112005N1-01445-01565102175ADDAA101000095GD12995+9999999GD23995+9999999GD30995+9999999GD40995+9999999GF106065999999999999999999MA1101521085375MW1001EQDN01 00000JPWTH 1QNNE11 1 00299E11 1 00499E11 1 00099E11 1 00099G11 1 00020K11 1 00004L11 1 00700M11 1 25210N11 1 00000Q11 1 10217S11 1 00006V11 1 00707X11 1 03006
0286724640930581973010508003+38283-104500SAO  +1428PUB  V0200605N002650057959N0160005N1-01065-01225101985ADDAA101000095GD16995+9999999GD24995+9999999GD30995+9999999GD40995+9999999GF108075999999999999999999MA1101461085305MW1715EQDN01 04000JPWTH 1QNNE11 1 00899E11 1 00699E11 1 00099E11 1 00099G11 1 00019K11 1 00010L11 1 01000M11 1 25190N11 1 04000Q11 1 10198S11 1 00013V11 1 01009X11 1 06005
0367724640930581973010509003+38283-104500SAO  +1428PUB  V0200805N002650030559N0112005N1-01115-01285101975ADDAA101000095GA1091+999999105GA2041+003055075GA3021+005795075GD16025+9999999GD23045+9999999GD34025+9999999GD40995+9999999GF108085999999999999999999MA1101421085275MW1715EQDN01 04000JPWTH 1QNNE11 1 00802E11 1 00405E11 1 00603E11 1 00099G11 1 00010H11 1 98999H11 1 16010H11 1 16019K11 1 00009L11 1 00700M11 1 25180N11 1 04000Q11 1 10197S11 1 00012V11 1 01010X11 1 08005
0260724640930581973010510003+38283-104500SAO  +1428PUB  V0200605N002650030559N0160005N1-01285-01445101975ADDAA101000095GD14995+9999999GD20995+9999999GD30995+9999999GF108065999999999999999999MA1101391085245MW1715EQDN01 04000JPWTH 1QNNE11 1 00699E11 1 00099E11 1 00099G11 1 00010K11 1 00006L11 1 01000M11 1 25170N11 1 04000Q11 1 10197S11 1 00009V11 1 01008X11 1 06005
0286724640930581973010511003+38283-104500SAO  +1428PUB  V0200605N002650015259N0080005N1-01285-01505101895ADDAA101000395GD15995+9999999GD20995+9999999GD30995+9999999GD40995+9999999GF108085999999999999999999MA1101351085205MW1715EQDN01 04000JPWTH 1QNNE11 1 00799E11 1 00099E11 1 00099E11 1 00099G11 1 00005K11 1 00005L11 1 00500M11 1 25160N11 1 04000Q11 1 10189S11 1 00009V11 1 01010X11 1 06005
0340724640930581973010512003+38283-104500SAO  +1428PUB  V0200705N002650024459N0080005N1-01225-01395101875ADDAA101000595GA1091+999999105GA2041+002445075GD16045+9999999GD24045+9999999GD30995+9999999GD40995+9999999GF108085999999999999999999MA1101321085175MW1715EQDN01 04000JPWTH 1QNNE11 1 00805E11 1 00605E11 1 00099E11 1 00099G11 1 00008H11 1 98999H11 1 16008K11 1 00007L11 1 00500M11 1 25150N11 1 04000Q11 1 10187S11 1 00010V11 1 01010X11 1 07005
0260724640930581973010513003+38283-104500SAO  +1428PUB  V0200905N003150015259N0080005N1-01115-01225101865ADDAA101000095GD10995+9999999GD20995+9999999GD30995+9999999GF108085999999999999999999MA1101351085205MW1715EQDN01 04000JPWTH 1QNNE11 1 00099E11 1 00099E11 1 00099G11 1 00005K11 1 00010L11 1 00500M11 1 25160N11 1 04000Q11 1 10186S11 1 00012V11 1 01010X11 1 09006
0292724640930581973010514003+38283-104500SAO  +1428PUB  V0200605N002150012259N0080005N1-01115-01225101905ADDAA101000095GD14995+9999999GD20995+9999999GD30995+9999999GD40995+9999999GF108085999999999999999999MA1101351085205MW1455MW2715EQDN01 04070JPWTH 1QNNE11 1 00699E11 1 00099E11 1 00099E11 1 00099G11 1 00004K11 1 00010L11 1 00500M11 1 25160N11 1 04070Q11 1 10190S11 1 00012V11 1 01010X11 1 06004
0319724640930581973010515003+38283-104500SAO  +1428PUB  V0200605N002650003059N0016005N1-01175-01335102065ADDAA101000095GA1091+000305105GD15085+9999999GD20995+9999999GD30995+9999999GD40995+9999999GF108085999999999999999999MA1101491085345MW1455MW2715EQDN01 04070JPWTH 1QNNE11 1 00710E11 1 00099E11 1 00099E11 1 00099G11 1 00001H11 1 98001K11 1 00008L11 1 00100M11 1 25200N11 1 04070Q11 1 10206S11 1 00011V11 1 01010X11 1 06005
0286724640930581973010516003+38283-104500SAO  +1428PUB  V0200705N002650036659N0080005N1-01115-01285102105ADDAA101000095GD13995+9999999GD20995+9999999GD30995+9999999GD40995+9999999GF106065999999999999999999MA1101521085375MW1455EQDN01 07000JPWTH 1QNNE11 1 00499E11 1 00099E11 1 00099E11 1 00099G11 1 00012K11 1 00009L11 1 00500M11 1 25210N11 1 07000Q11 1 10210S11 1 00012V11 1 00808X11 1 07005
0286724640930581973010517003+38283-104500SAO  +1428PUB  V0201405N001552200059N0112005N1-01065-01285102225ADDAA101000095GD12995+9999999GD22995+9999999GD30995+9999999GD40995+9999999GF103035999999999999999999MA1101631085445MW1001EQDN01 00000JPWTH 1QNNE11 1 00299E11 1 00299E11 1 00099E11 1 00099G11U1 99999K11 1 00009L11 1 00700M11 1 25230N11 1 00000Q11 1 10222S11 1 00013V11 1 00404X11 1 14003
0394724640930581973010518003+38283-104500SAO  +1428PUB  V0200605N001552200059N0112005N1-00945-01225102115ADDAA101000095GA1031+004575075GA2999+999999999GA3999+999999999GA4999+999999999GD12035+9999999GD20005+9999999GD30005+9999999GD40005+9999999GF103035999999999999999999MA1101521085375MW1001EQDN01 00000JPWTH 1QNNE11 1 00204E11 1 00000E11 1 00000E11 1 00000G11U1 99999H11 1 16015H11 1 00999H11 1 00999H11 1 00999K11 1 00010L11 1 00700M11 1 25210N11 1 00000Q11 1 10211S11 1 00015V11 1 00404X11 1 06003
0286724640930581973010519003+38283-104500SAO  +1428PUB  V0200705N001552200059N0112005N1-00785-01225102105ADDAA101000095GD12995+9999999GD20995+9999999GD30995+9999999GD40995+9999999GF102025999999999999999999MA1101461085305MW1001EQDN01 00000JPWTH 1QNNE11 1 00299E11 1 00099E11 1 00099E11 1 00099G11U1 99999K11 1 00010L11 1 00700M11 1 25190N11 1 00000Q11 1 10210S11 1 00018V11 1 00202X11 1 07003
0286724640930581973010520003+38283-104500SAO  +1428PUB  V0200605N003652200059N0128005N1-00725-01115101905ADDAA101000095GD10995+9999999GD20995+9999999GD30995+9999999GD40995+9999999GF100005999999999999999999MA1101391085245MW1001EQDN01 00000JPWTH 1QNNE11 1 00099E11 1 00099E11 1 00099E11 1 00099G11U1 99999K11 1 00012L11 1 00800M11 1 25170N11 1 00000Q11 1 10190S11 1 00019V11 1 00000X11 1 06007
0410724640930581973010521003+38283-104500SAO  +1428PUB  V0200605N002152200059N0128005N1-00675-01065102045ADDAA101000095GA1999+999999075GA2999+999999999GA3999+999999999GA4999+999999999GD10005+9999999GD20005+9999999GD30005+9999999GD40005+9999999GF100005999999999999999999MA1101491085345MW1001EQDQ01    003SCCGA1N01 00000JPWTH 1QNNE11 1 00000E11 1 00000E11 1 00000E11 1 00000G11U1 99999H11 1 16999H11 1 00999H11 1 00999H11 1 00999K11 1 00013L11 1 00800M11 1 25200N11 1 00000Q11 1 10204S11 1 00020V11 1 00000X11 1 06004
0286724640930581973010522003+38283-104500SAO  +1428PUB  V0200705N002652200059N0128005N1-00615-01005102085ADDAA101000095GD10995+9999999GD20995+9999999GD30995+9999999GD40995+9999999GF100005999999999999999999MA1101521085375MW1001EQDN01 00000JPWTH 1QNNE11 1 00099E11 1 00099E11 1 00099E11 1 00099G11U1 99999K11 1 00014L11 1 00800M11 1 25210N11 1 00000Q11 1 10208S11 1 00021V11 1 00000X11 1 07005
0286724640930581973010523003+38283-104500SAO  +1428PUB  V0200805N003152200059N0128005N1-00615-01005102185ADDAA101000095GD10995+9999999GD20995+9999999GD30995+9999999GD40995+9999999GF100005999999999999999999MA1101631085445MW1001EQDN01 00000JPWTH 1QNNE11 1 00099E11 1 00099E11 1 00099E11 1 00099G11U1 99999K11 1 00014L11 1 00800M11 1 25230N11 1 00000Q11 1 10218S11 1 00021V11 1 00000X11 1 08006
0410724640930581973010600003+38283-104500SAO  +1428PUB  V0200605N003152200059N0112005N1-01005-01225102315ADDAA101000095GA1999+999999065GA2021+076205005GA3999+999999999GA4999+999999999GD11005+9999993GD20025+9999999GD30005+9999999GD40005+9999999GF102015999999999999999999MA1101691085515MW1001EQDQ01    003SCCGA1N01 00000JPWTH 1QNNE11 1 00100E11 1 00003E11 1 00000E11 1 00000G11U1 99999H11 1 15999H11 1 32250H11 1 00999H11 1 00999K11 1 00010L11 1 00700M11 1 25250N11 1 00000Q11 1 10231S11 1 00014V11 1 00301X11 1 06006
0286724640930581973010601003+38283-104500SAO  +1428PUB  V0200305N001550036659N0112005N1-00945-01175102335ADDAA101000095GD13995+9999999GD20995+9999999GD30995+9999999GD40995+9999999GF106065999999999999999999MA1101731085545MW1001EQDN01 00000JPWTH 1QNNE11 1 00499E11 1 00099E11 1 00099E11 1 00099G11 1 00012K11 1 00011L11 1 00700M11 1 25260N11 1 00000Q11 1 10233S11 1 00015V11 1 00808X11 1 03003
0286724640930581973010602003+38283-104500SAO  +1428PUB  V0200105N002150036659N0112005N1-00945-01175102415ADDAA101000095GD14995+9999999GD20995+9999999GD30995+9999999GD40995+9999999GF108085999999999999999999MA1101831085615MW1001EQDN01 00000JPWTH 1QNNE11 1 00699E11 1 00099E11 1 00099E11 1 00099G11 1 00012K11 1 00011L11 1 00700M11 1 25280N11 1 00000Q11 1 10241S11 1 00015V11 1 01010X11 1 01004
0313724640930581973010603003+38283-104500SAO  +1428PUB  V0202105N002150030559N0112005N1-00785-01005102435ADDAA101000095GA1081+003055065GD14085+9999999GD20995+9999999GD30995+9999999GD40995+9999999GF108085999999999999999999MA1101861085645MW1001EQDN01 00000JPWTH 1QNNE11 1 00610E11 1 00099E11 1 00099E11 1 00099G11 1 00010H11 1 15010K11 1 00014L11 1 00700M11 1 25290N11 1 00000Q11 1 10243S11 1 00018V11 1 01010X11 1 21004
0286724640930581973010604003+38283-104500SAO  +1428PUB  V0202405N002150027459N0096005N1-00785-01005102445ADDAA101000095GD14995+9999999GD20995+9999999GD30995+9999999GD40995+9999999GF108085999999999999999999MA1101901085685MW1455EQDN01 07000JPWTH 1QNNE11 1 00699E11 1 00099E11 1 00099E11 1 00099G11 1 00009K11 1 00014L11 1 00600M11 1 25300N11 1 07000Q11 1 10244S11 1 00018V11 1 01010X11 1 24004
0286724640930581973010605003+38283-104500SAO  +1428PUB  V02099999000050030559N0096005N1-00895-01065102475ADDAA101000095GD14995+9999999GD20995+9999999GD30995+9999999GD40995+9999999GF108085999999999999999999MA1101901085685MW1455EQDN01 07000JPWTH 1QNNE11 1 00699E11 1 00099E11 1 00099E11 1 00099G11 1 00010K11 1 00013L11 1 00600M11 1 25300N11 1 07000Q11 1 10247S11 1 00016V11 1 01010X11 1 00000
0313724640930581973010606003+38283-104500SAO  +1428PUB  V0202805N001550027459N0096005N1-00945-01115102475ADDAA101000095GA1081+002745065GD14085+9999999GD20995+9999999GD30995+9999999GD40995+9999999GF108085999999999999999999MA1101901085685MW1455EQDN01 07000JPWTH 1QNNE11 1 00610E11 1 00099E11 1 00099E11 1 00099G11 1 00009H11 1 15009K11 1 00012L11 1 00600M11 1 25300N11 1 07000Q11 1 10247S11 1 00015V11 1 01010X11 1 28003
0286724640930581973010607003+38283-104500SAO  +1428PUB  V02099999000050027459N0096005N1-00835-01065102405ADDAA101000095GD14995+9999999GD20995+9999999GD30995+9999999GD40995+9999999GF108085999999999999999999MA1101901085685MW1455EQDN01 07000JPWTH 1QNNE11 1 00699E11 1 00099E11 1 00099E11 1 00099G11 1 00009K11 1 00013L11 1 00600M11 1 25300N11 1 07000Q11 1 10240S11 1 00017V11 1 01010X11 1 00000
0286724640930581973010608003+38283-104500SAO  +1428PUB  V02099999000050027459N0160005N1-00835-01115102335ADDAA101000095GD14995+9999999GD20995+9999999GD30995+9999999GD40995+9999999GF108085999999999999999999MA1101861085645MW1001EQDN01 00000JPWTH 1QNNE11 1 00699E11 1 00099E11 1 00099E11 1 00099G11 1 00009K11 1 00012L11 1 01000M11 1 25290N11 1 00000Q11 1 10233S11 1 00017V11 1 01010X11 1 00000
0394724640930581973010609003+38283-104500SAO  +1428PUB  V02099999000050042759N0112005N1-00945-01115102375ADDAA101000095GA1081+004275075GA2999+999999999GA3999+999999999GA4999+999999999GD14085+9999999GD20005+9999999GD30005+9999999GD40005+9999999GF108065999999999999999999MA1101861085645MW1001EQDN01 00000JPWTH 1QNNE11 1 00610E11 1 00000E11 1 00000E11 1 00000G11 1 00014H11 1 16014H11 1 00999H11 1 00999H11 1 00999K11 1 00012L11 1 00700M11 1 25290N11 1 00000Q11 1 10237S11 1 00015V11 1 01008X11 1 00000
0286724640930581973010610003+38283-104500SAO  +1428PUB  V02099999000050012259N0112005N1-01115-01285102435ADDAA101000095GD14995+9999999GD20995+9999999GD30995+9999999GD40995+9999999GF108085999999999999999999MA1101901085685MW1715EQDN01 04000JPWTH 1QNNE11 1 00699E11 1 00099E11 1 00099E11 1 00099G11 1 00004K11 1 00009L11 1 00700M11 1 25300N11 1 04000Q11 1 10243S11 1 00012V11 1 01010X11 1 00000
0286724640930581973010611003+38283-104500SAO  +1428PUB  V0203305N001550042759N0160005N1-01225-01395102395ADDAA101000095GD14995+9999999GD20995+9999999GD30995+9999999GD40995+9999999GF108085999999999999999999MA1101861085645MW1715EQDN01 04000JPWTH 1QNNE11 1 00699E11 1 00099E11 1 00099E11 1 00099G11 1 00014K11 1 00007L11 1 01000M11 1 25290N11 1 04000Q11 1 10239S11 1 00010V11 1 01010X11 1 33003
0313724640930581973010612003+38283-104500SAO  +1428PUB  V0203605N002150036659N0112005N1-01115-01335102455ADDAA101000095GA1081+003665075GD14085+9999999GD20995+9999999GD30995+9999999GD40995+9999999GF108085999999999999999999MA1101831085615MW1715EQDN01 04000JPWTH 1QNNE11 1 00610E11 1 00099E11 1 00099E11 1 00099G11 1 00012H11 1 16012K11 1 00008L11 1 00700M11 1 25280N11 1 04000Q11 1 10245S11 1 00012V11 1 01010X11 1 36004
0286724640930581973010613003+38283-104500SAO  +1428PUB  V0200305N002650036659N0112005N1-01065-01285102425ADDAA101000095GD14995+9999999GD20995+9999999GD30995+9999999GD40995+9999999GF108085999999999999999999MA1101831085615MW1715EQDN01 04000JPWTH 1QNNE11 1 00699E11 1 00099E11 1 00099E11 1 00099G11 1 00012K11 1 00009L11 1 00700M11 1 25280N11 1 04000Q11 1 10242S11 1 00013V11 1 01010X11 1 03005
0286724640930581973010614003+38283-104500SAO  +1428PUB  V0200305N003650018359N0096005N1-01005-01175102485ADDAA101000095GD14995+9999999GD20995+9999999GD30995+9999999GD40995+9999999GF108085999999999999999999MA1101901085685MW1715EQDN01 04000JPWTH 1QNNE11 1 00699E11 1 00099E11 1 00099E11 1 00099G11 1 00006K11 1 00011L11 1 00600M11 1 25300N11 1 04000Q11 1 10248S11 1 00014V11 1 01010X11 1 03007
0345724640930581973010615003+38283-104500SAO  +1428PUB  V0200205N007250012259N0013005N1-01065-01285102585ADDAA101000095GA1091+001225105GD15085+9999999GD20995+9999999GD30995+9999999GD40995+9999999GF108085999999999999999999MA1102001085785MD1310171+9999MW1455MW2715REMAWY003317EQDN01 04070JPWTH 1QNNE11 1 00710E11 1 00099E11 1 00099E11 1 00099G11 1 00004H11 1 98004K11 1 00009L11 1 00081M11 1 25330N11 1 04070Q11 1 10258S11 1 00013V11 1 01010X11 1 02014
0292724640930581973010616003+38283-104500SAO  +1428PUB  V0203605N004150012259N0016005N1-01005-01225102675ADDAA101000095GD15995+9999999GD20995+9999999GD30995+9999999GD40995+9999999GF108085999999999999999999MA1102131085885MW1455MW2715EQDN01 04070JPWTH 1QNNE11 1 00799E11 1 00099E11 1 00099E11 1 00099G11 1 00004K11 1 00010L11 1 00100M11 1 25360N11 1 04070Q11 1 10267S11 1 00014V11 1 01010X11 1 36008
0292724640930581973010617003+38283-104500SAO  +1428PUB  V0200305N002650018359N0032005N1-00785-01175102685ADDAA101000095GD13995+9999999GD20995+9999999GD30995+9999999GD40995+9999999GF106065999999999999999999MA1102171085915MW1455MW2715EQDN01 04070JPWTH 1QNNE11 1 00499E11 1 00099E11 1 00099E11 1 00099G11 1 00006K11 1 00011L11 1 00200M11 1 25370N11 1 04070Q11 1 10268S11 1 00018V11 1 00808X11 1 03005
0400724640930581973010618003+38283-104500SAO  +1428PUB  V0201405N002650057959N0080005N1-00785-01175102605ADDAA101000095GA1021+001835075GA2041+005795065GA3999+999999999GA4999+999999999GD12025+9999999GD23045+9999999GD30005+9999999GD40005+9999999GF106065999999999999999999MA1102071085845MW1455MW2715EQDN01 04070JPWTH 1QNNE11 1 00203E11 1 00405E11 1 00000E11 1 00000G11 1 00019H11 1 16006H11 1 15019H11 1 00999H11 1 00999K11 1 00011L11 1 00500M11 1 25350N11 1 04070Q11 1 10260S11 1 00018V11 1 00807X11 1 14005
0292724640930581973010619003+38283-104500SAO  +1428PUB  V0200805N002650036659N0096005N1-00725-01065102485ADDAA101000095GD13995+9999999GD20995+9999999GD30995+9999999GD40995+9999999GF106065999999999999999999MA1101961085745MW1455MW2715EQDN01 04070JPWTH 1QNNE11 1 00499E11 1 00099E11 1 00099E11 1 00099G11 1 00012K11 1 00013L11 1 00600M11 1 25320N11 1 04070Q11 1 10248S11 1 00019V11 1 00807X11 1 08005
0292724640930581973010620003+38283-104500SAO  +1428PUB  V0201005N002650036659N0080005N1-00725-01065102385ADDAA101000095GD14995+9999999GD20995+9999999GD30995+9999999GD40995+9999999GF108075999999999999999999MA1101901085685MW1455MW2715EQDN01 04070JPWTH 1QNNE11 1 00699E11 1 00099E11 1 00099E11 1 00099G11 1 00012K11 1 00013L11 1 00500M11 1 25300N11 1 04070Q11 1 10238S11 1 00019V11 1 01009X11 1 10005
0319724640930581973010621003+38283-104500SAO  +1428PUB  V0201805N001550048859N0080005N1-00725-01115102325ADDAA101000095GA1081+004885075GD14085+9999999GD20995+9999999GD30995+9999999GD40995+9999999GF108085999999999999999999MA1101861085645MW1455MW2715EQDN01 04070JPWTH 1QNNE11 1 00610E11 1 00099E11 1 00099E11 1 00099G11 1 00016H11 1 16016K11 1 00012L11 1 00500M11 1 25290N11 1 04070Q11 1 10232S11 1 00019V11 1 01010X11 1 18003
0292724640930581973010622003+38283-104500SAO  +1428PUB  V0202505N001550048859N0080005N1-00725-01115102405ADDAA101000095GD14995+9999999GD20995+9999999GD30995+9999999GD40995+9999999GF108085999999999999999999MA1101861085645MW1455MW2715EQDN01 04070JPWTH 1QNNE11 1 00699E11 1 00099E11 1 00099E11 1 00099G11 1 00016K11 1 00012L11 1 00500M11 1 25290N11 1 04070Q11 1 10240S11 1 00019V11 1 01010X11 1 25003
0292724640930581973010623003+38283-104500SAO  +1428PUB  V0201205N001550061059N0080005N1-00725-01115102445ADDAA101000095GD14995+9999999GD20995+9999999GD30995+9999999GD40995+9999999GF108085999999999999999999MA1101861085645MW1455MW2715EQDN01 04070JPWTH 1QNNE11 1 00699E11 1 00099E11 1 00099E11 1 00099G11 1 00020K11 1 00012L11 1 00500M11 1 25290N11 1 04070Q11 1 10244S11 1 00019V11 1 01010X11 1 12003
0319724640930581973010700003+38283-104500SAO  +1428PUB  V0200305N001550061059N0080005N1-00725-01115102365ADDAA101000095GA1081+006105075GD14085+9999999GD20995+9999999GD30995+9999999GD40995+9999999GF108085999999999999999999MA1101831085615MW1455MW2715EQDN01 04070JPWTH 1QNNE11 1 00610E11 1 00099E11 1 00099E11 1 00099G11 1 00020H11 1 16020K11 1 00012L11 1 00500M11 1 25280N11 1 04070Q11 1 10236S11 1 00019V11 1 01010X11 1 03003
0292724640930581973010701003+38283-104500SAO  +1428PUB  V0203605N001550051859N0064005N1-00785-01065102365ADDAA101000095GD14995+9999999GD20995+9999999GD30995+9999999GD40995+9999999GF108085999999999999999999MA1101831085615MW1455MW2715EQDN01 04070JPWTH 1QNNE11 1 00699E11 1 00099E11 1 00099E11 1 00099G11 1 00017K11 1 00013L11 1 00400M11 1 25280N11 1 04070Q11 1 10236S11 1 00018V11 1 01010X11 1 36003
0292724640930581973010702003+38283-104500SAO  +1428PUB  V0200705N002150042759N0064005N1-00785-01065102365ADDAA101000395GD14995+9999999GD20995+9999999GD30995+9999999GD40995+9999999GF108085999999999999999999MA1101831085615MW1455MW2715EQDN01 04070JPWTH 1QNNE11 1 00699E11 1 00099E11 1 00099E11 1 00099G11 1 00014K11 1 00013L11 1 00400M11 1 25280N11 1 04070Q11 1 10236S11 1 00018V11 1 01010X11 1 07004
0319724640930581973010703003+38283-104500SAO  +1428PUB  V02099999000050045759N0096005N1-00785-01005102365ADDAA101000095GA1081+004575075GD14085+9999999GD20995+9999999GD30995+9999999GD40995+9999999GF108085999999999999999999MA1101831085615MW1455MW2715EQDN01 04070JPWTH 1QNNE11 1 00610E11 1 00099E11 1 00099E11 1 00099G11 1 00015H11 1 16015K11 1 00014L11 1 00600M11 1 25280N11 1 04070Q11 1 10236S11 1 00018V11 1 01010X11 1 00000
0292724640930581973010704003+38283-104500SAO  +1428PUB  V02099999000050036659N0080005N1-00785-01005102325ADDAA101000395GD14995+9999999GD20995+9999999GD30995+9999999GD40995+9999999GF108085999999999999999999MA1101761085575MW1455MW2715EQDN01 04070JPWTH 1QNNE11 1 00699E11 1 00099E11 1 00099E11 1 00099G11 1 00012K11 1 00014L11 1 00500M11 1 25270N11 1 04070Q11 1 10232S11 1 00018V11 1 01010X11 1 00000
0286724640930581973010705003+38283-104500SAO  +1428PUB  V0202705N002150048859N0064005N1-00785-00945102295ADDAA101000095GD12995+9999999GD24995+9999999GD30995+9999999GD40995+9999999GF108085999999999999999999MA1101761085575MW1715EQDN01 04000JPWTH 1QNNE11 1 00299E11 1 00699E11 1 00099E11 1 00099G11 1 00016K11 1 00015L11 1 00400M11 1 25270N11 1 04000Q11 1 10229S11 1 00018V11 1 01010X11 1 27004
0319724640930581973010706003+38283-104500SAO  +1428PUB  V0203005N002150039659N0064005N1-00835-01005102225ADDAA101000095GA1081+003965075GD14085+9999999GD20995+9999999GD30995+9999999GD40995+9999999GF108085999999999999999999MA1101731085545MW1455MW2715EQDN01 04070JPWTH 1QNNE11 1 00610E11 1 00099E11 1 00099E11 1 00099G11 1 00013H11 1 16013K11 1 00014L11 1 00400M11 1 25260N11 1 04070Q11 1 10222S11 1 00017V11 1 01010X11 1 30004
0286724640930581973010707003+38283-104500SAO  +1428PUB  V0203005N002150045759N0064005N1-00835-01005102195ADDAA101000095GD14995+9999999GD20995+9999999GD30995+9999999GD40995+9999999GF108085999999999999999999MA1101691085515MW1715EQDN01 04000JPWTH 1QNNE11 1 00699E11 1 00099E11 1 00099E11 1 00099G11 1 00015K11 1 00014L11 1 00400M11 1 25250N11 1 04000Q11 1 10219S11 1 00017V11 1 01010X11 1 30004
0286724640930581973010708003+38283-104500SAO  +1428PUB  V0203305N002650027459N0080005N1-00835-01065102155ADDAA101000095GD13995+9999999GD24995+9999999GD30995+9999999GD40995+9999999GF108085999999999999999999MA1101661085475MW1715EQDN01 04000JPWTH 1QNNE11 1 00499E11 1 00699E11 1 00099E11 1 00099G11 1 00009K11 1 00013L11 1 00500M11 1 25240N11 1 04000Q11 1 10215S11 1 00017V11 1 01010X11 1 33005
0367724640930581973010709003+38283-104500SAO  +1428PUB  V0203105N003150021359N0080005N1-00835-01005102155ADDAA101000095GA1091+999999105GA2021+001225075GA3041+002135075GD16025+9999999GD22025+9999999GD34045+9999999GD40995+9999999GF108085999999999999999999MA1101661085475MW1715EQDN01 04000JPWTH 1QNNE11 1 00802E11 1 00203E11 1 00605E11 1 00099G11 1 00007H11 1 98999H11 1 16004H11 1 16007K11 1 00014L11 1 00500M11 1 25240N11 1 04000Q11 1 10215S11 1 00017V11 1 01010X11 1 31006
0260724640930581973010710003+38283-104500SAO  +1428PUB  V0202705N002150021359N0096005N1-00895-01005102155ADDAA101000095GD13995+9999999GD24995+9999999GD30995+9999999GF108085999999999999999999MA1101661085475MW1715EQDN01 04000JPWTH 1QNNE11 1 00499E11 1 00699E11 1 00099G11 1 00007K11 1 00014L11 1 00600M11 1 25240N11 1 04000Q11 1 10215S11 1 00016V11 1 01010X11 1 27004
0286724640930581973010711003+38283-104500SAO  +1428PUB  V0201005N003650015259N0080005N1-00835-01005102095ADDAA101000395GD16995+9999999GD24995+9999999GD30995+9999999GD40995+9999999GF108085999999999999999999MA1101561085405MW1715EQDN01 04000JPWTH 1QNNE11 1 00899E11 1 00699E11 1 00099E11 1 00099G11 1 00005K11 1 00014L11 1 00500M11 1 25220N11 1 04000Q11 1 10209S11 1 00017V11 1 01010X11 1 10007
0340724640930581973010712003+38283-104500SAO  +1428PUB  V0200905N002650024459N0024005N1-00835-01005102145ADDAA101000395GA1091+999999105GA2061+002445075GD16025+9999999GD24065+9999999GD30995+9999999GD40995+9999999GF108085999999999999999999MA1101661085475MW1715EQDN01 04000JPWTH 1QNNE11 1 00803E11 1 00607E11 1 00099E11 1 00099G11 1 00008H11 1 98999H11 1 16008K11 1 00014L11 1 00150M11 1 25240N11 1 04000Q11 1 10214S11 1 00017V11 1 01010X11 1 09005
0260724640930581973010713003+38283-104500SAO  +1428PUB  V0200705N002150027459N0112005N1-00895-01065102125ADDAA101000095GD10995+9999999GD20995+9999999GD30995+9999999GF108085999999999999999999MA1101631085445MW1715EQDN01 04000JPWTH 1QNNE11 1 00099E11 1 00099E11 1 00099G11 1 00009K11 1 00013L11 1 00700M11 1 25230N11 1 04000Q11 1 10212S11 1 00016V11 1 01010X11 1 07004
0286724640930581973010714003+38283-104500SAO  +1428PUB  V0201005N002650021359N0080005N1-00895-01065102155ADDAA101000095GD13995+9999999GD24995+9999999GD30995+9999999GD40995+9999999GF108085999999999999999999MA1101661085475MW1715EQDN01 04000JPWTH 1QNNE11 1 00499E11 1 00699E11 1 00099E11 1 00099G11 1 00007K11 1 00013L11 1 00500M11 1 25240N11 1 04000Q11 1 10215S11 1 00016V11 1 01010X11 1 10005
0313724640930581973010715003+38283-104500SAO  +1428PUB  V0201005N003150009159N0032005N1-00895-01065102265ADDAA101000095GA1091+000915105GD15085+9999999GD20995+9999999GD30995+9999999GD40995+9999999GF108085999999999999999999MA1101761085575MW1715EQDN01 04000JPWTH 1QNNE11 1 00710E11 1 00099E11 1 00099E11 1 00099G11 1 00003H11 1 98003K11 1 00013L11 1 00200M11 1 25270N11 1 04000Q11 1 10226S11 1 00016V11 1 01010X11 1 10006
0286724640930581973010716003+38283-104500SAO  +1428PUB  V0200405N002652200059N0080005N1-01005-01175102385ADDAA101000095GD12995+9999999GD20995+9999999GD30995+9999999GD40995+9999999GF102025999999999999999999MA1101861085645MW1715EQDN01 04000JPWTH 1QNNE11 1 00299E11 1 00099E11 1 00099E11 1 00099G11U1 99999K11 1 00011L11 1 00500M11 1 25290N11 1 04000Q11 1 10238S11 1 00014V11 1 00303X11 1 04005
0286724640930581973010717003+38283-104500SAO  +1428PUB  V0200605N002652200059N0128005N1-01005-01285102445ADDAA101000095GD12995+9999999GD20995+9999999GD30995+9999999GD40995+9999999GF104045999999999999999999MA1101901085685MW1001EQDN01 00000JPWTH 1QNNE11 1 00299E11 1 00099E11 1 00099E11 1 00099G11U1 99999K11 1 00009L11 1 00800M11 1 25300N11 1 00000Q11 1 10244S11 1 00014V11 1 00505X11 1 06005
0394724640930581973010718003+38283-104500SAO  +1428PUB  V0200905N002150048859N0128005N1-00835-01175102395ADDAA101000095GA1061+004885065GA2999+999999999GA3999+999999999GA4999+999999999GD13065+9999999GD20005+9999999GD30005+9999999GD40005+9999999GF106065999999999999999999MA1101901085685MW1715EQDN01 04000JPWTH 1QNNE11 1 00408E11 1 00000E11 1 00000E11 1 00000G11 1 00016H11 1 15016H11 1 00999H11 1 00999H11 1 00999K11 1 00011L11 1 00800M11 1 25300N11 1 04000Q11 1 10239S11 1 00017V11 1 00808X11 1 09004
0286724640930581973010719003+38283-104500SAO  +1428PUB  V0201305N002650048859N0128005N1-00835-01175102295ADDAA101000095GD13995+9999999GD20995+9999999GD30995+9999999GD40995+9999999GF106065999999999999999999MA1101761085575MW1715EQDN01 04000JPWTH 1QNNE11 1 00499E11 1 00099E11 1 00099E11 1 00099G11 1 00016K11 1 00011L11 1 00800M11 1 25270N11 1 04000Q11 1 10229S11 1 00017V11 1 00808X11 1 13005
0286724640930581973010720003+38283-104500SAO  +1428PUB  V0201105N003650061059N0128005N1-00785-01175102245ADDAA101000095GD13995+9999999GD20995+9999999GD30995+9999999GD40995+9999999GF106065999999999999999999MA1101731085545MW1715EQDN01 04000JPWTH 1QNNE11 1 00499E11 1 00099E11 1 00099E11 1 00099G11 1 00020K11 1 00011L11 1 00800M11 1 25260N11 1 04000Q11 1 10224S11 1 00018V11 1 00808X11 1 11007
0394724640930581973010721003+38283-104500SAO  +1428PUB  V0201105N004150061059N0048005N1-00835-01175102245ADDAA101000095GA1051+006105065GA2999+999999999GA3999+999999999GA4999+999999999GD13055+9999999GD20005+9999999GD30005+9999999GD40005+9999999GF105055999999999999999999MA1101731085545MW1715EQDN01 04000JPWTH 1QNNE11 1 00406E11 1 00000E11 1 00000E11 1 00000G11 1 00020H11 1 15020H11 1 00999H11 1 00999H11 1 00999K11 1 00011L11 1 00300M11 1 25260N11 1 04000Q11 1 10224S11 1 00017V11 1 00606X11 1 11008
0286724640930581973010722003+38283-104500SAO  +1428PUB  V0201105N002650048859N0096005N1-00835-01175102345ADDAA101000095GD13995+9999999GD20995+9999999GD30995+9999999GD40995+9999999GF105055999999999999999999MA1101831085615MW1715EQDN01 04000JPWTH 1QNNE11 1 00499E11 1 00099E11 1 00099E11 1 00099G11 1 00016K11 1 00011L11 1 00600M11 1 25280N11 1 04000Q11 1 10234S11 1 00017V11 1 00606X11 1 11005
0286724640930581973010723003+38283-104500SAO  +1428PUB  V0200905N005250048859N0096005N1-00785-01175102345ADDAA101000395GD13995+9999999GD20995+9999999GD30995+9999999GD40995+9999999GF105055999999999999999999MA1101861085645MW1715EQDN01 04000JPWTH 1QNNE11 1 00499E11 1 00099E11 1 00099E11 1 00099G11 1 00016K11 1 00011L11 1 00600M11 1 25290N11 1 04000Q11 1 10234S11 1 00018V11 1 00606X11 1 09010
0313724640930581973010800003+38283-104500SAO  +1428PUB  V0201005N003150051859N0096005N1-01005-01175102445ADDAA101000095GA1081+005185075GD14085+9999999GD20995+9999999GD30995+9999999GD40995+9999999GF108085999999999999999999MA1101901085685MW1715EQDN01 04000JPWTH 1QNNE11 1 00610E11 1 00099E11 1 00099E11 1 00099G11 1 00017H11 1 16017K11 1 00011L11 1 00600M11 1 25300N11 1 04000Q11 1 10244S11 1 00014V11 1 01010X11 1 10006
0286724640930581973010801003+38283-104500SAO  +1428PUB  V0200805N003650051859N0112005N1-01005-01225102555ADDAA101000095GD14995+9999999GD20995+9999999GD30995+9999999GD40995+9999999GF108085999999999999999999MA1101961085745MW1715EQDN01 04000JPWTH 1QNNE11 1 00699E11 1 00099E11 1 00099E11 1 00099G11 1 00017K11 1 00010L11 1 00700M11 1 25320N11 1 04000Q11 1 10255S11 1 00014V11 1 01010X11 1 08007
0286724640930581973010802003+38283-104500SAO  +1428PUB  V0201005N002650057959N0128005N1-01005-01225102635ADDAA101000095GD14995+9999999GD20995+9999999GD30995+9999999GD40995+9999999GF108075999999999999999999MA1102031085815MW1715EQDN01 04000JPWTH 1QNNE11 1 00699E11 1 00099E11 1 00099E11 1 00099G11 1 00019K11 1 00010L11 1 00800M11 1 25340N11 1 04000Q11 1 10263S11 1 00014V11 1 01009X11 1 10005
0313724640930581973010803003+38283-104500SAO  +1428PUB  V0200905N002150057959N0160005N1-01065-01285102695ADDAA101000095GA1081+005795075GD14085+9999999GD20995+9999999GD30995+9999999GD40995+9999999GF108085999999999999999999MA1102131085885MW1001EQDN01 00000JPWTH 1QNNE11 1 00610E11 1 00099E11 1 00099E11 1 00099G11 1 00019H11 1 16019K11 1 00009L11 1 01000M11 1 25360N11 1 00000Q11 1 10269S11 1 00013V11 1 01010X11 1 09004
0286724640930581973010804003+38283-104500SAO  +1428PUB  V0200905N002150057959N0160005N1-01065-01225102755ADDAA101000095GD14995+9999999GD20995+9999999GD30995+9999999GD40995+9999999GF108085999999999999999999MA1102171085915MW1715EQDN01 04000JPWTH 1QNNE11 1 00699E11 1 00099E11 1 00099E11 1 00099G11 1 00019K11 1 00010L11 1 01000M11 1 25370N11 1 04000Q11 1 10275S11 1 00013V11 1 01010X11 1 09004
0286724640930581973010805003+38283-104500SAO  +1428PUB  V0200805N002150061059N0112005N1-01115-01285102795ADDAA101000095GD12995+9999999GD24995+9999999GD30995+9999999GD40995+9999999GF108085999999999999999999MA1102171085915MW1715EQDN01 04000JPWTH 1QNNE11 1 00299E11 1 00699E11 1 00099E11 1 00099G11 1 00020K11 1 00009L11 1 00700M11 1 25370N11 1 04000Q11 1 10279S11 1 00012V11 1 01010X11 1 08004
0394724640930581973010806003+38283-104500SAO  +1428PUB  V0202105N002150039659N0048005N1-01175-01335102805ADDAA101000095GA1071+003965075GA2999+999999999GA3999+999999999GA4999+999999999GD13075+9999999GD20005+9999999GD30005+9999999GD40005+9999999GF107075999999999999999999MA1102201085955MW1715EQDN01 04000JPWTH 1QNNE11 1 00409E11 1 00000E11 1 00000E11 1 00000G11 1 00013H11 1 16013H11 1 00999H11 1 00999H11 1 00999K11 1 00008L11 1 00300M11 1 25380N11 1 04000Q11 1 10280S11 1 00011V11 1 00909X11 1 21004
0298724640930581973010807003+38283-104500SAO  +1428PUB  V02099999000050048859N0112005N1-01335-01445102825ADDAA101000095GD13995+9999999GD20995+9999999GD30995+9999999GD40995+9999999GF105055999999999999999999MA1102201085955MW1715MW2761MW3795EQDN01 04060JPWTH 1QNNE11 1 00499E11 1 00099E11 1 00099E11 1 00099G11 1 00016K11 1 00006L11 1 00700M11 1 25380N11 1 04060Q11 1 10282S11 1 00008V11 1 00606X11 1 00000
0286724640930581973010808003+38283-104500SAO  +1428PUB  V0200205N001552200059N0160005N1-01115-01835102765ADDAA101000095GD12995+9999999GD20995+9999999GD30995+9999999GD40995+9999999GF103025999999999999999999MA1102201085955MW1001EQDN01 00000JPWTH 1QNNE11 1 00299E11 1 00099E11 1 00099E11 1 00099G11U1 99999K11 1-00001L11 1 01000M11 1 25380N11 1 00000Q11 1 10276S11 1 00012V11 1 00403X11 1 02003
0400724640930581973010809003+38283-104500SAO  +1428PUB  V02099999000052200059N0240005N1-01615-01725102955ADDAA101000095GA1021+006105075GA2999+999999999GA3999+999999999GA4999+999999999GD12025+9999999GD20005+9999999GD30005+9999999GD40005+9999999GF102025999999999999999999MA1102241085985MW1761MW2785EQDN01 04700JPWTH 1QNNE11 1 00202E11 1 00000E11 1 00000E11 1 00000G11U1 99999H11 1 16020H11 1 00999H11 1 00999H11 1 00999K11 1 00001L11 1 01500M11 1 25390N11 1 04700Q11 1 10295S11 1 00003V11 1 00202X11 1 00000
0292724640930581973010810003+38283-104500SAO  +1428PUB  V0200805N001552200059N0400005N1-01675-01785103035ADDAA101000095GD11995+9999993GD20995+9999999GD30995+9999999GD40995+9999999GF101005999999999999999999MA1102341086055MW1761MW2785EQDN01 04700JPWTH 1QNNE11 1 00199E11 1 00099E11 1 00099E11 1 00099G11U1 99999K11 1 00000L11 1 02500M11 1 25410N11 1 04700Q11 1 10303S11 1 00002V11 1 00100X11 1 08003
0292724640930581973010811003+38283-104500SAO  +1428PUB  V02099999000052200059N0400005N1-01785-01835103055ADDAA101000095GD12995+9999999GD20995+9999999GD30995+9999999GD40995+9999999GF102025999999999999999999MA1102341086055MW1761MW2785EQDN01 04700JPWTH 1QNNE11 1 00299E11 1 00099E11 1 00099E11 1 00099G11U1 99999K11 1-00001L11 1 02500M11 1 25410N11 1 04700Q11 1 10305S11 1 00000V11 1 00202X11 1 00000
0400724640930581973010812003+38283-104500SAO  +1428PUB  V02099999000050012259N0160005N1-01725-01835103105ADDAA101000095GA1021+000305075GA2061+001225075GA3999+999999999GA4999+999999999GD12025+9999999GD23065+9999999GD30005+9999999GD40005+9999999GF107065999999999999999999MA1102341086055MW1761MW2785EQDN01 04700JPWTH 1QNNE11 1 00202E11 1 00408E11 1 00000E11 1 00000G11 1 00004H11 1 16001H11 1 16004H11 1 00999H11 1 00999K11 1-00001L11 1 01000M11 1 25410N11 1 04700Q11 1 10310S11 1 00001V11 1 00908X11 1 00000
0292724640930581973010813003+38283-104500SAO  +1428PUB  V02099999000050024459N0160005N1-01675-01835103105ADDAA101000095GD12995+9999999GD23995+9999999GD34995+9999999GD40995+9999999GF108085999999999999999999MA1102341086055MW1761MW2795EQDN01 06000JPWTH 1QNNE11 1 00299E11 1 00499E11 1 00699E11 1 00099G11 1 00008K11 1-00001L11 1 01000M11 1 25410N11 1 06000Q11 1 10310S11 1 00002V11 1 01010X11 1 00000
0292724640930581973010814003+38283-104500SAO  +1428PUB  V02099999000052200059N0128005N1-01835-01895103195ADDAA101000095GD12995+9999999GD22995+9999999GD30995+9999999GD40995+9999999GF103025999999999999999999MA1102401086125MW1761MW2795EQDN01 06000JPWTH 1QNNE11 1 00299E11 1 00299E11 1 00099E11 1 00099G11U1 99999K11 1-00002L11 1 00800M11 1 25430N11 1 06000Q11 1 10319S11 1-00001V11 1 00403X11 1 00000
0319724640930581973010815003+38283-104500SAO  +1428PUB  V02099999000050015259N0112005N1-01675-01785103185ADDAA101000095GA1081+001525075GD14085+9999999GD20995+9999999GD30995+9999999GD40995+9999999GF108085999999999999999999MA1102401086125MW1761MW2785EQDN01 04700JPWTH 1QNNE11 1 00610E11 1 00099E11 1 00099E11 1 00099G11 1 00005H11 1 16005K11 1 00000L11 1 00700M11 1 25430N11 1 04700Q11 1 10318S11 1 00002V11 1 01010X11 1 00000
0286724640930581973010816003+38283-104500SAO  +1428PUB  V0200705N002650015259N0096005N1-01395-01505103195ADDAA101000095GD14995+9999999GD20995+9999999GD30995+9999999GD40995+9999999GF108085999999999999999999MA1102471086185MW1715EQDN01 04000JPWTH 1QNNE11 1 00699E11 1 00099E11 1 00099E11 1 00099G11 1 00005K11 1 00005L11 1 00600M11 1 25450N11 1 04000Q11 1 10319S11 1 00007V11 1 01010X11 1 07005
0286724640930581973010817003+38283-104500SAO  +1428PUB  V0201005N003650027459N0112005N1-01285-01445103185ADDAA101000095GD13995+9999999GD20995+9999999GD30995+9999999GD40995+9999999GF105055999999999999999999MA1102471086185MW1715EQDN01 04000JPWTH 1QNNE11 1 00499E11 1 00099E11 1 00099E11 1 00099G11 1 00009K11 1 00006L11 1 00700M11 1 25450N11 1 04000Q11 1 10318S11 1 00009V11 1 00606X11 1 10007
0394724640930581973010818003+38283-104500SAO  +1428PUB  V0201105N004650048859N0112005N1-01225-01505103145ADDAA101000095GA1051+004885065GA2999+999999999GA3999+999999999GA4999+999999999GD13055+9999999GD20005+9999999GD30005+9999999GD40005+9999999GF105055999999999999999999MA1102441086155MW1715EQDN01 04000JPWTH 1QNNE11 1 00406E11 1 00000E11 1 00000E11 1 00000G11 1 00016H11 1 15016H11 1 00999H11 1 00999H11 1 00999K11 1 00005L11 1 00700M11 1 25440N11 1 04000Q11 1 10314S11 1 00010V11 1 00606X11 1 11009
0286724640930581973010819003+38283-104500SAO  +1428PUB  V0201305N003650036659N0112005N1-01175-01445103065ADDAA101000095GD13995+9999999GD20995+9999999GD30995+9999999GD40995+9999999GF106065999999999999999999MA1102341086055MW1715EQDN01 04000JPWTH 1QNNE11 1 00499E11 1 00099E11 1 00099E11 1 00099G11 1 00012K11 1 00006L11 1 00700M11 1 25410N11 1 04000Q11 1 10306S11 1 00011V11 1 00808X11 1 13007
0286724640930581973010820003+38283-104500SAO  +1428PUB  V0200705N004150042759N0080005N1-01115-01395102915ADDAA101000095GD14995+9999999GD20995+9999999GD30995+9999999GD40995+9999999GF108075999999999999999999MA1102241085985MW1715EQDN01 04000JPWTH 1QNNE11 1 00699E11 1 00099E11 1 00099E11 1 00099G11 1 00014K11 1 00007L11 1 00500M11 1 25390N11 1 04000Q11 1 10291S11 1 00012V11 1 01009X11 1 07008
0394724640930581973010821003+38283-104500SAO  +1428PUB  V0200905N003150045759N0096005N1-01115-01395102945ADDAA101000095GA1051+004575065GA2999+999999999GA3999+999999999GA4999+999999999GD13055+9999999GD20005+9999999GD30005+9999999GD40005+9999999GF105045999999999999999999MA1102171085915MW1715EQDN01 04000JPWTH 1QNNE11 1 00406E11 1 00000E11 1 00000E11 1 00000G11 1 00015H11 1 15015H11 1 00999H11 1 00999H11 1 00999K11 1 00007L11 1 00600M11 1 25370N11 1 04000Q11 1 10294S11 1 00012V11 1 00605X11 1 09006
0286724640930581973010822003+38283-104500SAO  +1428PUB  V0201205N003650045759N0096005N1-01115-01445103045ADDAA101000095GD14995+9999999GD20995+9999999GD30995+9999999GD40995+9999999GF108085999999999999999999MA1102241085985MW1715EQDN01 04000JPWTH 1QNNE11 1 00699E11 1 00099E11 1 00099E11 1 00099G11 1 00015K11 1 00006L11 1 00600M11 1 25390N11 1 04000Q11 1 10304S11 1 00012V11 1 01010X11 1 12007
0286724640930581973010823003+38283-104500SAO  +1428PUB  V0201005N004150051859N0080005N1-01175-01395103125ADDAA101000095GD14995+9999999GD20995+9999999GD30995+9999999GD40995+9999999GF108085999999999999999999MA1102341086055MW1715EQDN01 04000JPWTH 1QNNE11 1 00699E11 1 00099E11 1 00099E11 1 00099G11 1 00017K11 1 00007L11 1 00500M11 1 25410N11 1 04000Q11 1 10312S11 1 00011V11 1 01010X11 1 10008
0313724640930581973010900003+38283-104500SAO  +1428PUB  V0201105N004650061059N0064005N1-01225-01445103175ADDAA101000095GA1081+006105075GD14085+9999999GD20995+9999999GD30995+9999999GD40995+9999999GF108085999999999999999999MA1102371086085MW1715EQDN01 04000JPWTH 1QNNE11 1 00610E11 1 00099E11 1 00099E11 1 00099G11 1 00020H11 1 16020K11 1 00006L11 1 00400M11 1 25420N11 1 04000Q11 1 10317S11 1 00010V11 1 01010X11 1 11009
0286724640930581973010901003+38283-104500SAO  +1428PUB  V0201205N004650070159N0096005N1-01225-01445103255ADDAA101000095GD12995+9999999GD24995+9999999GD30995+9999999GD40995+9999999GF108085999999999999999999MA1102441086155MW1715EQDN01 04000JPWTH 1QNNE11 1 00299E11 1 00699E11 1 00099E11 1 00099G11 1 00023K11 1 00006L11 1 00600M11 1 25440N11 1 04000Q11 1 10325S11 1 00010V11 1 01010X11 1 12009
0286724640930581973010902003+38283-104500SAO  +1428PUB  V0201205N005250070159N0096005N1-01285-01505103365ADDAA101000095GD12995+9999999GD24995+9999999GD30995+9999999GD40995+9999999GF108085999999999999999999MA1102511086225MW1715EQDN01 04000JPWTH 1QNNE11 1 00299E11 1 00699E11 1 00099E11 1 00099G11 1 00023K11 1 00005L11 1 00600M11 1 25460N11 1 04000Q11 1 10336S11 1 00009V11 1 01010X11 1 12010
0340724640930581973010903003+38283-104500SAO  +1428PUB  V0201005N003150070159N0064005N1-01335-01565103395ADDAA101000095GA1021+003965075GA2081+007015075GD12025+9999999GD24085+9999999GD30995+9999999GD40995+9999999GF108085999999999999999999MA1102541086255MW1715EQDN01 04000JPWTH 1QNNE11 1 00202E11 1 00610E11 1 00099E11 1 00099G11 1 00023H11 1 16013H11 1 16023K11 1 00004L11 1 00400M11 1 25470N11 1 04000Q11 1 10339S11 1 00008V11 1 01010X11 1 10006
0286724640930581973010904003+38283-104500SAO  +1428PUB  V0200905N002150039659N0064005N1-01395-01615103405ADDAA101000095GD13995+9999999GD24995+9999999GD30995+9999999GD40995+9999999GF108085999999999999999999MA1102611086295MW1715EQDN01 04000JPWTH 1QNNE11 1 00499E11 1 00699E11 1 00099E11 1 00099G11 1 00013K11 1 00003L11 1 00400M11 1 25480N11 1 04000Q11 1 10340S11 1 00007V11 1 01010X11 1 09004
0298724640930581973010905003+38283-104500SAO  +1428PUB  V0200705N002152200059N0112005N1-01675-01785103425ADDAA101000095GD12995+9999999GD23995+9999993GD30995+9999999GD40995+9999999GF106035999999999999999999MA1102611086295MW1715MW2761MW3795EQDN01 04060JPWTH 1QNNE11 1 00299E11 1 00399E11 1 00099E11 1 00099G11U1 99999K11 1 00000L11 1 00700M11 1 25480N11 1 04060Q11 1 10342S11 1 00002V11 1 00804X11 1 07004
0394724640930581973010906003+38283-104500SAO  +1428PUB  V0200705N002652200059N0128005N1-01835-01945103445ADDAA101000095GA1061+006105075GA2999+999999999GA3999+999999999GA4999+999999999GD13065+9999993GD20005+9999999GD30005+9999999GD40005+9999999GF106035999999999999999999MA1102611086295MW1715EQDN01 04000JPWTH 1QNNE11 1 00308E11 1 00000E11 1 00000E11 1 00000G11U1 99999H11 1 16020H11 1 00999H11 1 00999H11 1 00999K11 1-00003L11 1 00800M11 1 25480N11 1 04000Q11 1 10344S11 1-00001V11 1 00804X11 1 07005
0292724640930581973010907003+38283-104500SAO  +1428PUB  V0200905N002652200059N0128005N1-01895-02005103465ADDAA101000095GD12995+9999999GD22995+9999999GD30995+9999999GD40995+9999999GF104035999999999999999999MA1102611086295MW1761MW2795EQDN01 06000JPWTH 1QNNE11 1 00299E11 1 00299E11 1 00099E11 1 00099G11U1 99999K11 1-00004L11 1 00800M11 1 25480N11 1 06000Q11 1 10346S11 1-00002V11 1 00504X11 1 09005
0292724640930581973010908003+38283-104500SAO  +1428PUB  V0200605N003150045759N0240005N1-01835-02005103445ADDAA101000095GD13995+9999999GD20995+9999999GD30995+9999999GD40995+9999999GF105055999999999999999999MA1102611086295MW1761MW2795EQDN01 06000JPWTH 1QNNE11 1 00499E11 1 00099E11 1 00099E11 1 00099G11 1 00015K11 1-00004L11 1 01500M11 1 25480N11 1 06000Q11 1 10344S11 1-00001V11 1 00606X11 1 06006
0400724640930581973010909003+38283-104500SAO  +1428PUB  V0200605N002650070159N0128005N1-01835-02065103465ADDAA101000095GA1051+007015075GA2999+999999999GA3999+999999999GA4999+999999999GD13055+9999999GD20005+9999999GD30005+9999999GD40005+9999999GF105045999999999999999999MA1102641086325MW1761MW2785EQDN01 04700JPWTH 1QNNE11 1 00406E11 1 00000E11 1 00000E11 1 00000G11 1 00023H11 1 16023H11 1 00999H11 1 00999H11 1 00999K11 1-00005L11 1 00800M11 1 25490N11 1 04700Q11 1 10346S11 1-00001V11 1 00605X11 1 06005
0292724640930581973010910003+38283-104500SAO  +1428PUB  V0200405N002652200059N0128005N1-02005-02175103485ADDAA101000095GD12995+9999999GD20995+9999999GD30995+9999999GD40995+9999999GF103035999999999999999999MA1102611086295MW1761MW2795EQDN01 06000JPWTH 1QNNE11 1 00299E11 1 00099E11 1 00099E11 1 00099G11U1 99999K11 1-00007L11 1 00800M11 1 25480N11 1 06000Q11 1 10348S11 1-00004V11 1 00404X11 1 04005
0292724640930581973010911003+38283-104500SAO  +1428PUB  V0200605N001550061059N0128005N1-02065-02285103445ADDAA101000095GD13995+9999999GD20995+9999999GD30995+9999999GD40995+9999999GF105055999999999999999999MA1102511086225MW1761MW2795EQDN01 06000JPWTH 1QNNE11 1 00499E11 1 00099E11 1 00099E11 1 00099G11 1 00020K11 1-00009L11 1 00800M11 1 25460N11 1 06000Q11 1 10344S11 1-00005V11 1 00606X11 1 06003
0319724640930581973010912003+38283-104500SAO  +1428PUB  V0200205N001550045759N0128005N1-02065-02335103455ADDAA101000095GA1081+004575075GD14085+9999999GD20995+9999999GD30995+9999999GD40995+9999999GF108085999999999999999999MA1102511086225MW1761MW2785EQDN01 04700JPWTH 1QNNE11 1 00610E11 1 00099E11 1 00099E11 1 00099G11 1 00015H11 1 16015K11 1-00010L11 1 00800M11 1 25460N11 1 04700Q11 1 10345S11 1-00005V11 1 01010X11 1 02003
0292724640930581973010913003+38283-104500SAO  +1428PUB  V02099999000050085359N0112005N1-01835-02175103415ADDAA101000095GD14995+9999999GD20995+9999999GD30995+9999999GD40995+9999999GF108085999999999999999999MA1102541086255MW1761MW2795EQDN01 06000JPWTH 1QNNE11 1 00699E11 1 00099E11 1 00099E11 1 00099G11 1 00028K11 1-00007L11 1 00700M11 1 25470N11 1 06000Q11 1 10341S11 1-00001V11 1 01010X11 1 00000
0292724640930581973010914003+38283-104500SAO  +1428PUB  V0200305N004150033559N0112005N1-01785-02005103455ADDAA101000095GD13995+9999999GD24995+9999999GD30995+9999999GD40995+9999999GF108085999999999999999999MA1102611086295MW1761MW2795EQDN01 06000JPWTH 1QNNE11 1 00499E11 1 00699E11 1 00099E11 1 00099G11 1 00011K11 1-00004L11 1 00700M11 1 25480N11 1 06000Q11 1 10345S11 1 00000V11 1 01010X11 1 03008
0352724640930581973010915003+38283-104500SAO  +1428PUB  V0200305N004150033559N0064005N1-01725-01945103495ADDAA101000095GA1051+003355075GA2031+007015075GD13055+9999999GD24035+9999999GD30995+9999999GD40995+9999999GF108085999999999999999999MA1102641086325MW1455MW2761MW3785EQDN01 04770JPWTH 1QNNE11 1 00406E11 1 00604E11 1 00099E11 1 00099G11 1 00011H11 1 16011H11 1 16023K11 1-00003L11 1 00400M11 1 25490N11 1 04770Q11 1 10349S11 1 00001V11 1 01010X11 1 03008
0286724640930581973010916003+38283-104500SAO  +1428PUB  V0200305N005250036659N0032005N1-01615-01895103505ADDAA101000095GD13995+9999999GD24995+9999999GD30995+9999999GD40995+9999999GF108085999999999999999999MA1102641086325MW1715EQDN01 04000JPWTH 1QNNE11 1 00499E11 1 00699E11 1 00099E11 1 00099G11 1 00012K11 1-00002L11 1 00200M11 1 25490N11 1 04000Q11 1 10350S11 1 00003V11 1 01010X11 1 03010
0286724640930581973010917003+38283-104500SAO  +1428PUB  V0200305N004650085359N0080005N1-01565-01895103555ADDAA101000095GD13995+9999999GD20995+9999999GD30995+9999999GD40995+9999999GF106065999999999999999999MA1102641086325MW1715EQDN01 04000JPWTH 1QNNE11 1 00499E11 1 00099E11 1 00099E11 1 00099G11 1 00028K11 1-00002L11 1 00500M11 1 25490N11 1 04000Q11 1 10355S11 1 00004V11 1 00808X11 1 03009
0313724640930581973010918003+38283-104500SAO  +1428PUB  V0200405N001550085359N0080005N1-01445-01785103455ADDAA101000095GA1081+008535075GD14085+9999999GD20995+9999999GD30995+9999999GD40995+9999999GF108085999999999999999999MA1102541086255MW1715EQDN01 04000JPWTH 1QNNE11 1 00610E11 1 00099E11 1 00099E11 1 00099G11 1 00028H11 1 16028K11 1 00000L11 1 00500M11 1 25470N11 1 04000Q11 1 10345S11 1 00006V11 1 01010X11 1 04003
0286724640930581973010919003+38283-104500SAO  +1428PUB  V0200905N001550085359N0112005N1-01335-01725103325ADDAA101000095GD14995+9999999GD20995+9999999GD30995+9999999GD40995+9999999GF108085999999999999999999MA1102441086155MW1715EQDN01 04000JPWTH 1QNNE11 1 00699E11 1 00099E11 1 00099E11 1 00099G11 1 00028K11 1 00001L11 1 00700M11 1 25440N11 1 04000Q11 1 10332S11 1 00008V11 1 01010X11 1 09003
0286724640930581973010920003+38283-104500SAO  +1428PUB  V0200905N003150085359N0112005N1-01285-01675103145ADDAA101000095GD14995+9999999GD20995+9999999GD30995+9999999GD40995+9999999GF108085999999999999999999MA1102271086015MW1715EQDN01 04000JPWTH 1QNNE11 1 00699E11 1 00099E11 1 00099E11 1 00099G11 1 00028K11 1 00002L11 1 00700M11 1 25400N11 1 04000Q11 1 10314S11 1 00009V11 1 01010X11 1 09006
0313724640930581973010921003+38283-104500SAO  +1428PUB  V0200905N002650051859N0080005N1-01285-01675103065ADDAA101000095GA1081+005185075GD14085+9999999GD20995+9999999GD30995+9999999GD40995+9999999GF108085999999999999999999MA1102201085955MW1715EQDN01 04000JPWTH 1QNNE11 1 00610E11 1 00099E11 1 00099E11 1 00099G11 1 00017H11 1 16017K11 1 00002L11 1 00500M11 1 25380N11 1 04000Q11 1 10306S11 1 00009V11 1 01010X11 1 09005
0286724640930581973010922003+38283-104500SAO  +1428PUB  V0201005N003650045759N0080005N1-01285-01615103065ADDAA101000095GD14995+9999999GD20995+9999999GD30995+9999999GD40995+9999999GF108085999999999999999999MA1102171085915MW1715EQDN01 04000JPWTH 1QNNE11 1 00699E11 1 00099E11 1 00099E11 1 00099G11 1 00015K11 1 00003L11 1 00500M11 1 25370N11 1 04000Q11 1 10306S11 1 00009V11 1 01010X11 1 10007
0286724640930581973010923003+38283-104500SAO  +1428PUB  V0201105N003150042759N0112005N1-01285-01675103095ADDAA101000095GD13995+9999999GD24995+9999999GD30995+9999999GD40995+9999999GF108085999999999999999999MA1102171085915MW1001EQDN01 00000JPWTH 1QNNE11 1 00499E11 1 00699E11 1 00099E11 1 00099G11 1 00014K11 1 00002L11 1 00700M11 1 25370N11 1 00000Q11 1 10309S11 1 00009V11 1 01010X11 1 11006
0394724640930581973011000003+38283-104500SAO  +1428PUB  V0201005N003650042759N0160005N1-01395-01725103055ADDAA101000095GA1061+004275075GA2021+008235075GA3999+999999999GA4999+999999999GD13065+9999999GD24025+9999999GD30005+9999999GD40005+9999999GF108075999999999999999999MA1102131085885MW1001EQDN01 00000JPWTH 1QNNE11 1 00408E11 1 00602E11 1 00000E11 1 00000G11 1 00014H11 1 16014H11 1 16027H11 1 00999H11 1 00999K11 1 00001L11 1 01000M11 1 25360N11 1 00000Q11 1 10305S11 1 00007V11 1 01009X11 1 10007
0286724640930581973011001003+38283-104500SAO  +1428PUB  V0200905N004150039659N0160005N1-01395-01725102985ADDAA101000095GD13995+9999999GD24995+9999999GD30995+9999999GD40995+9999999GF108075999999999999999999MA1102071085845MW1001EQDN01 00000JPWTH 1QNNE11 1 00499E11 1 00699E11 1 00099E11 1 00099G11 1 00013K11 1 00001L11 1 01000M11 1 25350N11 1 00000Q11 1 10298S11 1 00007V11 1 01009X11 1 09008
0286724640930581973011002003+38283-104500SAO  +1428PUB  V0201005N003650039659N0240005N1-01445-01725103005ADDAA101000095GD13995+9999999GD24995+9999999GD30995+9999999GD40995+9999999GF108075999999999999999999MA1102131085885MW1001EQDN01 00000JPWTH 1QNNE11 1 00499E11 1 00699E11 1 00099E11 1 00099G11 1 00013K11 1 00001L11 1 01500M11 1 25360N11 1 00000Q11 1 10300S11 1 00006V11 1 01009X11 1 10007
0394724640930581973011003003+38283-104500SAO  +1428PUB  V0200605N003150042759N0240005N1-01615-01895102985ADDAA101000095GA1051+004275075GA2031+007325075GA3999+999999999GA4999+999999999GD13055+9999999GD24035+9999993GD30005+9999999GD40005+9999999GF108045999999999999999999MA1102071085845MW1001EQDN01 00000JPWTH 1QNNE11 1 00406E11 1 00504E11 1 00000E11 1 00000G11 1 00014H11 1 16014H11 1 16024H11 1 00999H11 1 00999K11 1-00002L11 1 01500M11 1 25350N11 1 00000Q11 1 10298S11 1 00003V11 1 01005X11 1 06006
0286724640930581973011004003+38283-104500SAO  +1428PUB  V0200705N002650024459N0240005N1-01675-01945102915ADDAA101000095GD12995+9999999GD23995+9999999GD34995+9999999GD40995+9999999GF108065999999999999999999MA1102001085785MW1001EQDN01 00000JPWTH 1QNNE11 1 00299E11 1 00499E11 1 00699E11 1 00099G11 1 00008K11 1-00003L11 1 01500M11 1 25330N11 1 00000Q11 1 10291S11 1 00002V11 1 01008X11 1 07005
0292724640930581973011005003+38283-104500SAO  +1428PUB  V0200605N003150012259N0064005N1-01615-01895102815ADDAA101000095GD16995+9999999GD23995+9999999GD33995+9999999GD44995+9999999GF108085999999999999999999MA1101931085715MW1761MW2795EQDN01 06000JPWTH 1QNNE11 1 00899E11 1 00499E11 1 00499E11 1 00699G11 1 00004K11 1-00002L11 1 00400M11 1 25310N11 1 06000Q11 1 10281S11 1 00003V11 1 01010X11 1 06006
0346724640930581973011006003+38283-104500SAO  +1428PUB  V0200605N002650064059N0112005N1-01565-01835102705ADDAA101000095GA1031+002745075GA2051+006405075GD12035+9999999GD24055+9999999GD30995+9999999GD40995+9999999GF108085999999999999999999MA1101901085685MW1761MW2785EQDN01 04700JPWTH 1QNNE11 1 00204E11 1 00606E11 1 00099E11 1 00099G11 1 00021H11 1 16009H11 1 16021K11 1-00001L11 1 00700M11 1 25300N11 1 04700Q11 1 10270S11 1 00004V11 1 01010X11 1 06005
0292724640930581973011007003+38283-104500SAO  +1428PUB  V0200405N002650045759N0112005N1-01565-01835102535ADDAA101000095GD16995+9999999GD22995+9999999GD34995+9999999GD40995+9999999GF108085999999999999999999MA1101731085545MW1761MW2795EQDN01 06000JPWTH 1QNNE11 1 00899E11 1 00299E11 1 00699E11 1 00099G11 1 00015K11 1-00001L11 1 00700M11 1 25260N11 1 06000Q11 1 10253S11 1 00004V11 1 01010X11 1 04005
0266724640930581973011008003+38283-104500SAO  +1428PUB  V0203305N001550042759N0080005N1-01675-01895102465ADDAA101000095GD14995+9999999GD20995+9999999GD30995+9999999GF108085999999999999999999MA1101661085475MW1761MW2795EQDN01 06000JPWTH 1QNNE11 1 00699E11 1 00099E11 1 00099G11 1 00014K11 1-00002L11 1 00500M11 1 25240N11 1 06000Q11 1 10246S11 1 00002V11 1 01010X11 1 33003
0400724640930581973011009003+38283-104500SAO  +1428PUB  V0203605N001550045759N0128005N1-01785-02065102445ADDAA101000095GA1061+004575075GA2999+999999999GA3999+999999999GA4999+999999999GD13065+9999999GD20005+9999999GD30005+9999999GD40005+9999999GF106065999999999999999999MA1101631085445MW1761MW2785EQDN01 04700JPWTH 1QNNE11 1 00408E11 1 00000E11 1 00000E11 1 00000G11 1 00015H11 1 16015H11 1 00999H11 1 00999H11 1 00999K11 1-00005L11 1 00800M11 1 25230N11 1 04700Q11 1 10244S11 1 00000V11 1 00807X11 1 36003
0292724640930581973011010003+38283-104500SAO  +1428PUB  V0203405N002150033559N0096005N1-01725-01945102405ADDAA101000095GD16995+9999999GD23995+9999999GD30995+9999999GD40995+9999999GF106065999999999999999999MA1101561085405MW1761MW2795EQDN01 06000JPWTH 1QNNE11 1 00899E11 1 00499E11 1 00099E11 1 00099G11 1 00011K11 1-00003L11 1 00600M11 1 25220N11 1 06000Q11 1 10240S11 1 00001V11 1 00808X11 1 34004
0260724640930581973011011003+38283-104500SAO  +1428PUB  V0203505N002150042759N0128005N1-01675-01895102345ADDAA101000095GD10995+9999999GD20995+9999999GD30995+9999999GF105055999999999999999999MA1101521085375MW1001EQDN01 00000JPWTH 1QNNE11 1 00099E11 1 00099E11 1 00099G11 1 00014K11 1-00002L11 1 00800M11 1 25210N11 1 00000Q11 1 10234S11 1 00002V11 1 00606X11 1 35004
0394724640930581973011012003+38283-104500SAO  +1428PUB  V02099999000050042759N0128005N1-01675-01895102345ADDAA101000095GA1051+004275075GA2999+999999999GA3999+999999999GA4999+999999999GD13055+9999999GD20005+9999999GD30005+9999999GD40005+9999999GF105055999999999999999999MA1101491085345MW1001EQDN01 00000JPWTH 1QNNE11 1 00406E11 1 00000E11 1 00000E11 1 00000G11 1 00014H11 1 16014H11 1 00999H11 1 00999H11 1 00999K11 1-00002L11 1 00800M11 1 25200N11 1 00000Q11 1 10234S11 1 00002V11 1 00606X11 1 00000
0286724640930581973011013003+38283-104500SAO  +1428PUB  V02099999000052200059N0240005N1-01725-02005102385ADDAA101000095GD12995+9999999GD20995+9999999GD30995+9999999GD40995+9999999GF103035999999999999999999MA1101521085375MW1001EQDN01 00000JPWTH 1QNNE11 1 00299E11 1 00099E11 1 00099E11 1 00099G11U1 99999K11 1-00004L11 1 01500M11 1 25210N11 1 00000Q11 1 10238S11 1 00001V11 1 00404X11 1 00000
0286724640930581973011014003+38283-104500SAO  +1428PUB  V02099999000050039659N0320005N1-01725-02005102505ADDAA101000095GD13995+9999999GD20995+9999999GD30995+9999999GD40995+9999999GF106065999999999999999999MA1101661085475MW1001EQDN01 00000JPWTH 1QNNE11 1 00499E11 1 00099E11 1 00099E11 1 00099G11 1 00013K11 1-00004L11 1 02000M11 1 25240N11 1 00000Q11 1 10250S11 1 00001V11 1 00808X11 1 00000
0394724640930581973011015003+38283-104500SAO  +1428PUB  V0202705N002150426759N0320005N1-01785-02065102665ADDAA101000095GA1021+003965075GA2051+042675035GA3999+999999999GA4999+999999999GD12025+9999999GD23055+9999999GD30005+9999999GD40005+9999999GF106065999999999999999999MA1101731085545MW1001EQDN01 00000JPWTH 1QNNE11 1 00202E11 1 00406E11 1 00000E11 1 00000G11 1 00140H11 1 16013H11 1 23140H11 1 00999H11 1 00999K11 1-00005L11 1 02000M11 1 25260N11 1 00000Q11 1 10266S11 1 00000V11 1 00807X11 1 27004
0286724640930581973011016003+38283-104500SAO  +1428PUB  V0203005N004652200059N0320005N1-01675-01945102765ADDAA101000095GD12995+9999999GD23995+9999993GD30995+9999999GD40995+9999999GF106035999999999999999999MA1101861085645MW1001EQDN01 00000JPWTH 1QNNE11 1 00299E11 1 00399E11 1 00099E11 1 00099G11U1 99999K11 1-00003L11 1 02000M11 1 25290N11 1 00000Q11 1 10276S11 1 00002V11 1 00804X11 1 30009
0286724640930581973011017003+38283-104500SAO  +1428PUB  V0202805N004152200059N0320005N1-01505-01785102755ADDAA101000095GD13995+9999993GD20995+9999999GD30995+9999999GD40995+9999999GF106025999999999999999999MA1101901085685MW1001EQDN01 00000JPWTH 1QNNE11 1 00399E11 1 00099E11 1 00099E11 1 00099G11U1 99999K11 1 00000L11 1 02000M11 1 25300N11 1 00000Q11 1 10275S11 1 00005V11 1 00803X11 1 28008
0394724640930581973011018003+38283-104500SAO  +1428PUB  V0202905N004152200059N0320005N1-01285-01725102695ADDAA101000095GA1061+076205025GA2999+999999999GA3999+999999999GA4999+999999999GD13065+9999993GD20005+9999999GD30005+9999999GD40005+9999999GF106025999999999999999999MA1101901085685MW1001EQDN01 00000JPWTH 1QNNE11 1 00307E11 1 00000E11 1 00000E11 1 00000G11U1 99999H11 1 37250H11 1 00999H11 1 00999H11 1 00999K11 1 00001L11 1 02000M11 1 25300N11 1 00000Q11 1 10269S11 1 00009V11 1 00702X11 1 29008
0286724640930581973011019003+38283-104500SAO  +1428PUB  V0202605N003150762059N0320005N1-01115-01565102605ADDAA101000095GD12995+9999999GD24995+9999999GD30995+9999999GD40995+9999999GF108055999999999999999999MA1101861085645MW1001EQDN01 00000JPWTH 1QNNE11 1 00299E11 1 00699E11 1 00099E11 1 00099G11 1 00250K11 1 00004L11 1 02000M11 1 25290N11 1 00000Q11 1 10260S11 1 00012V11 1 01006X11 1 26006
0286724640930581973011020003+38283-104500SAO  +1428PUB  V0202505N002650426759N0320005N1-00945-01445102495ADDAA101000095GD13995+9999999GD24995+9999999GD30995+9999999GD40995+9999999GF108065999999999999999999MA1101761085575MW1001EQDN01 00000JPWTH 1QNNE11 1 00499E11 1 00699E11 1 00099E11 1 00099G11 1 00140K11 1 00006L11 1 02000M11 1 25270N11 1 00000Q11 1 10249S11 1 00015V11 1 01007X11 1 25005
0394724640930581973011021003+38283-104500SAO  +1428PUB  V02099999000052200059N0320005N1-00725-01395102475ADDAA101000095GA1021+042675035GA2061+076205025GA3999+999999999GA4999+999999999GD12025+9999999GD23065+9999993GD30005+9999999GD40005+9999999GF107025999999999999999999MA1101761085575MW1001EQDN01 00000JPWTH 1QNNE11 1 00202E11 1 00307E11 1 00000E11 1 00000G11U1 99999H11 1 23140H11 1 37250H11 1 00999H11 1 00999K11 1 00007L11 1 02000M11 1 25270N11 1 00000Q11 1 10247S11 1 00019V11 1 00903X11 1 00000
0286724640930581973011022003+38283-104500SAO  +1428PUB  V02099999000052200059N0320005N1-00675-01335102535ADDAA101000095GD12995+9999999GD21995+9999993GD30995+9999999GD40995+9999999GF104025999999999999999999MA1101861085645MW1001EQDN01 00000JPWTH 1QNNE11 1 00299E11 1 00199E11 1 00099E11 1 00099G11U1 99999K11 1 00008L11 1 02000M11 1 25290N11 1 00000Q11 1 10253S11 1 00020V11 1 00502X11 1 00000
0286724640930581973011023003+38283-104500SAO  +1428PUB  V02099999000052200059N0320005N1-00615-01285102585ADDAA101000095GD12995+9999999GD21995+9999993GD30995+9999999GD40995+9999999GF104025999999999999999999MA1101931085715MW1001EQDN01 00000JPWTH 1QNNE11 1 00299E11 1 00199E11 1 00099E11 1 00099G11U1 99999K11 1 00009L11 1 02000M11 1 25310N11 1 00000Q11 1 10258S11 1 00021V11 1 00502X11 1 00000
0394724640930581973011100003+38283-104500SAO  +1428PUB  V0203405N002152200059N0112005N1-01005-01335102755ADDAA101000095GA1021+042675035GA2061+076205025GA3999+999999999GA4999+999999999GD12025+9999999GD24065+9999993GD30005+9999999GD40005+9999999GF108045999999999999999999MA1102001085785MW1001EQDN01 00000JPWTH 1QNNE11 1 00203E11 1 00507E11 1 00000E11 1 00000G11U1 99999H11 1 23140H11 1 37250H11 1 00999H11 1 00999K11 1 00008L11 1 00700M11 1 25330N11 1 00000Q11 1 10275S11 1 00014V11 1 01005X11 1 34004
0286724640930581973011101003+38283-104500SAO  +1428PUB  V0203405N002152200059N0112005N1-01065-01395102885ADDAA101000095GD12995+9999999GD24995+9999993GD30995+9999999GD40995+9999999GF108035999999999999999999MA1102071085845MW1001EQDN01 00000JPWTH 1QNNE11 1 00299E11 1 00599E11 1 00099E11 1 00099G11U1 99999K11 1 00007L11 1 00700M11 1 25350N11 1 00000Q11 1 10288S11 1 00013V11 1 01004X11 1 34004
0286724640930581973011102003+38283-104500SAO  +1428PUB  V0203405N002652200059N0240005N1-01335-01565103105ADDAA101000095GD12995+9999999GD24995+9999993GD30995+9999999GD40995+9999999GF108035999999999999999999MA1102241085985MW1001EQDN01 00000JPWTH 1QNNE11 1 00299E11 1 00599E11 1 00099E11 1 00099G11U1 99999K11 1 00004L11 1 01500M11 1 25390N11 1 00000Q11 1 10310S11 1 00008V11 1 01004X11 1 34005
0394724640930581973011103003+38283-104500SAO  +1428PUB  V0201505N001052200059N0240005N1-01115-01335103155ADDAA101000095GA1011+036585035GA2081+076205025GA3999+999999999GA4999+999999999GD12015+9999999GD24085+9999993GD30005+9999999GD40005+9999999GF108045999999999999999999MA1102341086055MW1001EQDN01 00000JPWTH 1QNNE11 1 00201E11 1 00510E11 1 00000E11 1 00000G11U1 99999H11 1 23120H11 1 37250H11 1 00999H11 1 00999K11 1 00008L11 1 01500M11 1 25410N11 1 00000Q11 1 10315S11 1 00012V11 1 01005X11 1 15002
