0043874270999991973010212004-33467-067550FM-12+050499999V0200501N00251220001CN0500001N9+02401+02001999999ADDAY101999GF100991001001999999001001MW1001
0127874270999991973010218004-33467-067550FM-12+050499999V0200501N00251220001CN0500001N9+03001+01601999999ADDAY101999GF100991001001999999001001MW1001REMSYN075     ?416   11400 97030 9720...     ESTE  ULTIMOINCIOMPLETO POR   PANNE DOZ
0043874270999991973010300004-33467-067550FM-12+050499999V0200501N00251220001CN0200001N9+02601+01501999999ADDAY101999GF100991999999999999999999MW1021
0043874270999991973010312004-33467-067550FM-12+050499999V0209991C00001220001CN0500001N9+02001+01401999999ADDAY101999GF100991001001999999001001MW1001
0043874270999991973010318004-33467-067550FM-12+050499999V0200501N00251220001CN0500001N9+03401+01801999999ADDAY101999GF100991001001999999001001MW1001
0068874270999991973010323004-33467-067550FM-12+050499999V0209991C00001220001CN0500001N9+03401+01801999999ADDAA199000091AY101999GF100991001001999999001001MW1001REMSYN00570036
0054874270999991973010418004-33467-067550FM-12+050499999V0203601N00251220001CN0500001N9+99999+99999999999ADDAA199000091AY101999GF100991001001999999001001MW1001
0068874270999991973010423004-33467-067550FM-12+050499999V0209991C00001220001CN0500001N9+03401+01801999999ADDAA199000091AY101999GF100991001001999999001001MW1001REMSYN00570038
0054874270999991973010512004-33467-067550FM-12+050499999V0201401N00251220001CN0500001N9+02201+01101999999ADDAA199000091AY101999GF100991001001999999001001MW1001
0043874270999991973010518004-33467-067550FM-12+050499999V0201801N00251220001CN0500001N9+02701+01001999999ADDAY101999GF100991001001999999001001MW1001
0068874270999991973010523004-33467-067550FM-12+050499999V0201401N00251220001CN0500001N9+02901+00801999999ADDAA199000091AY101999GF100991001001999999001001MW1001REMSYN00570030
0067874270999991973010612004-33467-067550FM-12+050499999V0201401N00251220001CN0500001N9+01801+01201999999ADDAA199000091AY101999GF100991001001999999001001KA1999N+01501MW1001
0067874270999991973010712004-33467-067550FM-12+050499999V0201401N00411220001CN0500001N9+02001+00901999999ADDAA199000091AY101999GF100991001001999999001001KA1999N+02001MW1001
0054874270999991973010718004-33467-067550FM-12+050499999V0201401N00411220001CN0500001N9+03001+00301999999ADDAA199000091AY101999GF100991001001999999001001MW1001
0067874270999991973010812004-33467-067550FM-12+050499999V0201801N00101220001CN0500001N9+01701+01101999999ADDAA199000091AY101999GF100991001001999999001001KA1999N+01201MW1001
0068874270999991973010823004-33467-067550FM-12+050499999V0209991C00001220001CN0500001N9+03201+01001999999ADDAA199000091AY101999GF100991001001999999001001MW1001REMSYN00570033
0043874270999991973010918004-33467-067550FM-12+050499999V0209991C00001220001CN0500001N9+03001+01401999999ADDAY101999GF100991001001999999001001MW1001
0087874270999991973010923004-33467-067550FM-12+050499999V0203601N00251220001CN0500001N9+03101+01901999999ADDAA199000091AY101999GF104991999001999999031001MW1031REMSYN00570037EQDQ01+000002SCOTLC
0067874270999991973011012004-33467-067550FM-12+050499999V0202301N00251015001CN0200001N9+02201+00901999999ADDAA199000091AY121999GF108991081071017501999999KA1999N+02001MW1021
0054874270999991973011018004-33467-067550FM-12+050499999V0209991C00001220001CN0500001N9+03601+02001999999ADDAA199000091AY101999GF100991001001999999001001MW1001
0068874270999991973011023004-33467-067550FM-12+050499999V0209991C00001220001CN0500001N9+03501+01301999999ADDAA199000091AY101999GF100991001001999999001001MW1001REMSYN00570037
0067874270999991973011112004-33467-067550FM-12+050499999V0209991C00001220001CN0500001N9+02601+02101999999ADDAA199000091AY101999GF100991001001999999001001KA1999N+02001MW1001
0054874270999991973011118004-33467-067550FM-12+050499999V0209991C00001220001CN0500001N9+03801+01701999999ADDAA199000091AY101999GF100991999999999999999999MW1001
0054874270999991973011119004-33467-067550FM-12+050499999V0209991C00001220001CN0500001N9+03801+01701999999ADDAA199000091AY101999GF100991999999999999999999MW1001
0068874270999991973011123004-33467-067550FM-12+050499999V0201401N00411220001CN0500001N9+03601+02001999999ADDAA199000091AY101999GF104991041081017501001001MW1031REMSYN00570040
0132874270999991973011212004-33467-067550FM-12+050499999V0201401N004119999999N0450001N9+02201+99999999999ADDAA199000091GF108991999081002501021031KA1999N+99999MD1010001+9999REMSYN00512***EQDQ01+000002SCOTLCQ02 -03703ATOD  Q03 +03302ATMN  
0089874270999991973011218004-33467-067550FM-12+050499999V0201401N007219999999N0200001N9+02701+01002999999ADDAA199000091AY121999GF106991999001999999031001MW1021EQDQ01+000002SCOTLCQ02+028323ATOD  
0086874270999991973011300004-33467-067550FM-12+050499999V0201401N004119999999N0200001N9+01601+01101999999ADDAA199000091AY121999GF106991999001999999031001KA1999M+02701MW1021EQDQ01+000002SCOTLC
0086874270999991973011312004-33467-067550FM-12+050499999V0201401N004119999999N0200001N9+02001+01301999999ADDAA199000091AY121999GF106991999001999999031001KA1999N+01701MW1011EQDQ01+000002SCOTLC
0054874270999991973011318004-33467-067550FM-12+050499999V0201801N00411220001CN0500001N9+02501+01301999999ADDAA199000091AY111999GF100991001001999999001001MW1001
0067874270999991973011412004-33467-067550FM-12+050499999V0201401N00251001201CN0200001N9+01401+01301999999ADDAA199000091AY121999GF108991081071001501999999KA1999N+01401MW1021
0054874270999991973011418004-33467-067550FM-12+050499999V0201801N00251220001CN0500001N9+02601+01201999999ADDAA199000091AY101999GF100991999999999999999999MW1001
0068874270999991973011423004-33467-067550FM-12+050499999V0200501N00251220001CN0500001N9+02501+01201999999ADDAA199000091AY101999GF100991001001999999001001MW1001REMSYN00570026
0067874270999991973011512004-33467-067550FM-12+050499999V0203601N00251220001CN0500001N9+01701+01401999999ADDAA199000091AY101999GF100991001001999999001001KA1999N+01401MW1001
0054874270999991973011518004-33467-067550FM-12+050499999V0203601N00101220001CN0500001N9+03201+01201999999ADDAA199000091AY101999GF100991001001999999001001MW1001
0067874270999991973011612004-33467-067550FM-12+050499999V0203601N00251220001CN0500001N9+02201+01701999999ADDAA199000091AY101999GF100991001001999999001001KA1999N+01701MW1001
0054874270999991973011618004-33467-067550FM-12+050499999V0203601N00201220001CN0500001N9+03401+01801999999ADDAA199000091AY101999GF100991001001999999001001MW1001
0068874270999991973011623004-33467-067550FM-12+050499999V0209991C00001220001CN0500001N9+03401+01801999999ADDAA199000091AY101999GF100991001001999999001001MW1001REMSYN00570035
0068874270999991973011723004-33467-067550FM-12+050499999V0203601N00251220001CN0500001N9+03301+02101999999ADDAA199000091AY121999GF104991041081017501001001MW1021REMSYN00570035
0067874270999991973011812004-33467-067550FM-12+050499999V0201401N00411012001CN0200001N9+02001+01401999999ADDAA199000091AY121999GF108991081061012501999999KA1999N+01901MW1021
0054874270999991973011819004-33467-067550FM-12+050499999V0201401N00411220001CN0500001N9+03101+01901999999ADDAA199000091AY101999GF100991001001999999001001MW1001
0068874270999991973011923004-33467-067550FM-12+050499999V0200501N00251220001CN0500001N9+03201+01901999999ADDAA199000091AY101999GF100991001001999999001001MW1001REMSYN00570033
0067874270999991973012012004-33467-067550FM-12+050499999V0200501N00251220001CN0500001N9+02401+02001999999ADDAA199000091AY101999GF100991001001999999001001KA1999N+01801MW1001
0054874270999991973012018004-33467-067550FM-12+050499999V0209991C00001220001CN0500001N9+03601+02501999999ADDAA199000091AY101999GF100991001001999999001001MW1031
0067874270999991973012112004-33467-067550FM-12+050499999V0200501N00251220001CN0500001N9+02301+00701999999ADDAA199000091AY101999GF100991001001999999001001KA1999N+02001MW1001
0054874270999991973012118004-33467-067550FM-12+050499999V0200501N00251220001CN0500001N9+03501+01801999999ADDAA199000091AY101999GF100991001001999999001001MW1001
0067874270999991973012212004-33467-067550FM-12+050499999V0201801N00251012001CN0200001N9+02001+01801999999ADDAA199000091AY121999GF106991061081008001001001KA1999N+01801MW1021
0054874270999991973012218004-33467-067550FM-12+050499999V0200501N00251220001CN0500001N9+03201+01601999999ADDAA199000091AY101999GF100991001001999999001001MW1001
0067874270999991973012312004-33467-067550FM-12+050499999V0201401N00411220001CN0500001N9+01701+01101999999ADDAA199000091AY101999GF100991001001999999001001KA1999N+01401MW1001
0054874270999991973012318004-33467-067550FM-12+050499999V0201401N00411220001CN0500001N9+02501+01401999999ADDAA199000091AY101999GF100991001001999999001001MW1001
0067874270999991973012412004-33467-067550FM-12+050499999V0209991C00001220001CN0500001N9+01301+00601999999ADDAA199000091AY101999GF100991001001999999001001KA1999N+00901MW1001
0054874270999991973012418004-33467-067550FM-12+050499999V0201801N00251220001CN0500001N9+02801+00601999999ADDAA199000091AY101999GF100991001001999999001001MW1001
0067874270999991973012500004-33467-067550FM-12+050499999V0209991C00001220001CN0500001N9+02801+00601999999ADDAA199000091AY101999GF100991001001999999001001KA1999M+02901MW1001
0067874270999991973012512004-33467-067550FM-12+050499999V0202301N00251220001CN0500001N9+01701+01101999999ADDAA199000091AY101999GF100991001001999999001001KA1999N+01101MW1001
0054874270999991973012518004-33467-067550FM-12+050499999V0201801N00251220001CN0500001N9+03301+00801999999ADDAA199000091AY101999GF100991001001999999001001MW1001
0067874270999991973012612004-33467-067550FM-12+050499999V0203601N02571220001CN0500001N9+99999+99999999999ADDAA199000091AY101999GF100991001001999999001001KA1999N+01901MW1001
0068874270999991973012623004-33467-067550FM-12+050499999V0200501N00251220001CN0500001N9+03201+01401999999ADDAA199000091AY101999GF100991001001999999001001MW1001REMSYN00570034
0067874270999991973012712004-33467-067550FM-12+050499999V0209991C00001220001CN0500001N9+02201+01801999999ADDAA199000091AY101999GF100991001001999999001001KA1999N+01901MW1001
0054874270999991973012818004-33467-067550FM-12+050499999V0209991C00001015001CN0200001N9+03001+01701999999ADDAA199999929AY191999GF107991071081012501001001MW1951
0067874270999991973012900004-33467-067550FM-12+050499999V0201801N00301220001CN0200001N9+02001+01801999999ADDAA199025091AY121999GF100991001001999999001001KA1999M+03001MW1021
0067874270999991973012912004-33467-067550FM-12+050499999V0201401N00251002101CN0200001N9+02001+01801999999ADDAA199000091AY121999GF108991081071002501999999KA1999N+01801MW1021
0062874270999991973012918004-33467-067550FM-12+050499999V0201401N002519999999N0200001N9+02701+01801999999ADDAY121999GF106991999081017501001001MW1021EQDQ01+000042SCOTLC
0067874270999991973013012004-33467-067550FM-12+050499999V0209991C00001220001CN0500001N9+02501+02301999999ADDAA199000091AY101999GF100991001001999999001001KA1999N+02201MW1001
0043874270999991973013021004-33467-067550FM-12+050499999V0209991C00001220001CN0500001N9+03601+02001999999ADDAY101999GF100991001001999999001001MW1001
0079874270999991973013023004-33467-067550FM-12+050499999V0209991C00001220001CN9999999N9+03501+02201999999ADDAA199000091GF100991001001999999001001MW1001REMSYN00570036EQDQ01+000002VODIS 
0081874270999991973020112004-33467-067550FM-12+050499999V0203601N00101220001CN0500001N9+01801+01201999999ADDAA199000091AY101999GF100991001001999999001001KA1999N+01501MW1001REMSYN00512***
0054874270999991973020118004-33467-067550FM-12+050499999V0203601N00251220001CN0500001N9+03401+01801999999ADDAA199000091AY101999GF100991001001999999001001MW1001
0067874270999991973020212004-33467-067550FM-12+050499999V0209991C00001012001CN0200001N9+02501+01901999999ADDAA199000091AY101999GF106991061081008001001001KA1999N+02401MW1031
0054874270999991973020218004-33467-067550FM-12+050499999V0201801N00411220001CN0500001N9+03001+01801999999ADDAA199000091AY101999GF100991001001999999001001MW1001
0067874270999991973020312004-33467-067550FM-12+050499999V0201801N00301220001CN0500001N9+02001+01101999999ADDAA199000091AY101999GF100991001001999999001001KA1999N+01901MW1001
0054874270999991973020318004-33467-067550FM-12+050499999V0203601N00251220001CN0500001N9+03001+01801999999ADDAA199000091AY101999GF100991001001999999001001MW1001
0067874270999991973020412004-33467-067550FM-12+050499999V0201401N00251220001CN0500001N9+01801+01501999999ADDAA199000091AY101999GF100991001001999999001001KA1999N+01501MW1001
0067874270999991973020512004-33467-067550FM-12+050499999V0203601N00251220001CN0500001N9+02001+01501999999ADDAA199000091AY101999GF100991001001999999001001KA1999N+01601MW1001
0054874270999991973020518004-33467-067550FM-12+050499999V0203301N00251220001CN0500001N9+03301+01701999999ADDAA199000091AY101999GF100991001001999999001001MW1001
0043874270999991973020612004-33467-067550FM-12+050499999V0200501N00411220001CN0100001N9+02101+01601999999ADDAY101999GF100991001001999999001001MW1001
0043874270999991973020618004-33467-067550FM-12+050499999V0203601N00251220001CN0500001N9+02901+01401999999ADDAY101999GF100991001001999999001001MW1001
0086874270999991973020712004-33467-067550FM-12+050499999V0201401N00411220001CN0500001N9+02201+01501999999ADDAA199000091AY121999GF104991999001999999031001KA1999N+02101MW1021EQDQ01+000002SCOTLC
0054874270999991973020718004-33467-067550FM-12+050499999V0201101N00251220001CN0500001N9+03301+02701999999ADDAA199000091AY101999GF100991001001999999001001MW1001
0068874270999991973020723004-33467-067550FM-12+050499999V0209991C00001220001CN0500001N9+03201+01201999999ADDAA199000091AY101999GF100991001001999999001001MW1011REMSYN00570034
0067874270999991973020812004-33467-067550FM-12+050499999V0201801N00251220001CN0500001N9+01901+01701999999ADDAA199000091AY101999GF100991001001999999001001KA1999N+01801MW1001
0112874270999991973020921004-33467-067550FM-12+050499999V0201401N00251220001CN0500001N9+02501+00901999999ADDAY101999GA1071+008109049GF199999011031999999999999MD1010001+9999MW1031REMSYN01199022 08322EQDQ01+000042SCOTCV
0154874270999991973021020004-33467-067550FM-12+050499999V0200501N00251220001CN0500001N9+02501+01301999999ADDAY101999GA1071+008109049GF199999999001999999001001MW1001REMSYN0351018* 00505 99000 00728 00100 10***EQDQ01+000002SCOTCVQ02+000002SCOTLCQ03+000992SCOLCB
0154874270999991973021021004-33467-067550FM-12+050499999V0200501N00251220001CN0500001N9+02501+01301999999ADDAY101999GA1071+008109049GF199999999001999999001001MW1001REMSYN0351018* 00505 99000 00728 00100 10***EQDQ01+000002SCOTCVQ02+000002SCOTLCQ03+000992SCOLCB
0148874270999991973021216004-33467-067550FM-12+050499999V0200401N02571220001CN0100001N9+01601+01101999999ADDAY101999GA1071+008109049GF199999999001999999001001MW1001REMSYN0291212* 01405 99000 02219 00400EQDQ01+000012SCOTCVQ02+000002SCOTLCQ03+000992SCOLCB
0124874270999991973021300004-33467-067550FM-12+050499999V0209991C00001220001CN0500001N9+03601+01401999999ADDAY101999GA1041+008109049GF199999999001999999001001MW1001REMSYN0051223*EQDQ01+000002SCOTCVQ02+000002SCOTLCQ03+000992SCOLCB
0142874270999991973021315004-33467-067550FM-12+050499999V0201401N00411220001CN0100001N9+01901+01301999999ADDAY101999GA1071+008109049GF199999999001999999001001MW1001REMSYN02311312 01408 99000 09419EQDQ01+000002SCOTCVQ02+000002SCOTLCQ03+000992SCOLCB
0054874270999991973022018004-33467-067550FM-12+050499999V0201401N00251220001CN0500001N9+02701+01701999999ADDAA199999929AY121999GF100991999999999999999999MW1001
0067874270999991973022112004-33467-067550FM-12+050499999V0209999999999220001CN0500001N9+01801+01301999999ADDAA199000091AY101999GF100991001001999999001001KA1999N+01501MW1001
0054874270999991973022118004-33467-067550FM-12+050499999V0203601N00251220001CN0500001N9+03301+01701999999ADDAA199000091AY101999GF100991001001999999001001MW1001
0063874270999991973022321004-33467-067550FM-12+050499999V0201801N00411012001CN0200001N9+01601+00601999999ADDAY121999GF108991081071012501999999MW1021REMSYN0112318* 98022
0054874270999991973022518004-33467-067550FM-12+050499999V0203601N00251220001CN0500001N9+02901+00901999999ADDAA199000091AY101999GF100991001001999999001001MW1001
0082874270999991973022523004-33467-067550FM-12+050499999V0209991C00001220001CN0500001N9+02501+01301999999ADDAA199000091AY101999GF100991001001999999001001MD1010001+9999MW1001REMSYN00570029
0067874270999991973022612004-33467-067550FM-12+050499999V0209991C00001220001CN0500001N9+99999+99999999999ADDAA199000091AY101999GF100991001001999999001001KA1999N+01201MW1001
0068874270999991973022623004-33467-067550FM-12+050499999V0209991C00001220001CN0500001N9+02901+01001999999ADDAA199000091AY101999GF100991001001999999001001MW1001REMSYN00570031
0043874270999991973022709004-33467-067550FM-12+050499999V0203601N00251220001CN0100001N9+01301+01101999999ADDAY101999GF100991001001999999001001MW1001
0067874270999991973022712004-33467-067550FM-12+050499999V0209991C00001220001CN0100001N9+01601+01101999999ADDAA199000091AY101999GF100991001001999999001001KA1999N+01301MW1001
0054874270999991973022718004-33467-067550FM-12+050499999V0203601N00251220001CN0200001N9+03201+02001999999ADDAA199000091AY101999GF100991001001999999001001MW1021
0067874270999991973022812004-33467-067550FM-12+050499999V0201801N00251220001CN0500001N9+99999+99999999999ADDAA199000091AY101999GF100991001001999999001001KA1999N+01801MW1001
0054874270999991973022818004-33467-067550FM-12+050499999V0203601N00251220001CN0500001N9+03401+01701999999ADDAA199000091AY101999GF104991041081022501001001MW1031
0082874270999991973022823004-33467-067550FM-12+050499999V0203601N00251021001CN0500001N9+03201+02001999999ADDAA199000091AY121999GF107991071081022501001001MD1010001+9999MW1021REMSYN00570034
0086874270999991973030112004-33467-067550FM-12+050499999V0201801N00251001201CN0500001N9+02001+02001999999ADDAA199005091AY121999GF108991081071001501999999KA1999N+99999MW1021EQDQ01 +02102ATMN  
0068874270999991973030318004-33467-067550FM-12+050499999V0201801N00251220001CN0500001N9+02801+02101999999ADDAA199000091AY101999GF100991001001999999001001MD1010001+9999MW1001
0115874270999991973030323004-33467-067550FM-12+050499999V0201401N00101220001CN0200001N9+02901+02201999999ADDAA199000091AY111999GF102991021021017501999999MW1021REMSYN01719301 93339 70031EQDQ01+000072APCTENQ02+000002APC3  
0067874270999991973030412004-33467-067550FM-12+050499999V0201801N00251220001CN0200001N9+99999+99999999999ADDAA199000091AY121999GF100991001001999999001001KA1999N+02001MW1021
0102874270999991973030612004-33467-067550FM-12+050499999V0201401N002519999999N0100001N9+02101+02101999999ADDAA199001091AY151999GF108991999999999999999999KA1999N+02101MW1021EQDQ01+000042APCTENQ02+000442APC3  
0054874270999991973030618004-33467-067550FM-12+050499999V0201401N00251001201CN0100001N9+02101+02101999999ADDAA199001091AY151999GF108991081071001501999999MW1051
0067874270999991973030712004-33467-067550FM-12+050499999V0201401N00251001201CN0100001N9+01901+01901999999ADDAA199004091AY151999GF108991081071001501999999KA1999N+01901MW1021
0067874270999991973030800004-33467-067550FM-12+050499999V0201801N00251220001CN0200001N9+02001+01801999999ADDAA199000091AY101999GF100991001001999999001001KA1999M+02101MW1001
0067874270999991973030812004-33467-067550FM-12+050499999V0209991C00001001201CN0100001N9+99999+99999999999ADDAA199000091AY121999GF108991081071001501999999KA1999N+01501MW1021
0054874270999991973030818004-33467-067550FM-12+050499999V0201801N00101220001CN0500001N9+99999+99999999999ADDAA199000091AY111999GF104991041071008001001001MW1011
0067874270999991973030912004-33467-067550FM-12+050499999V0209991C00001220001CN0500001N9+01601+01601999999ADDAA199000091AY101999GF100991001001999999001001KA1999N+01401MW1001
0054874270999991973030918004-33467-067550FM-12+050499999V0203601N00101220001CN0500001N9+02801+02101999999ADDAA199000091AY101999GF100991999999999999999999MW1031
0043874270999991973031012004-33467-067550FM-12+050499999V0203601N00251220001CN0100001N9+01501+01401999999ADDAY101999GF100991001001999999001001MW1001
0054874270999991973031018004-33467-067550FM-12+050499999V0203601N00251015001CN0200001N9+03001+02001999999ADDAA199000091AY121999GF106991061081012501001001MW1021
0068874270999991973031023004-33467-067550FM-12+050499999V0209991C00001220001CN0500001N9+02601+02101999999ADDAA199000091AY101999GF100991001001999999001001MW1001REMSYN00570031
0054874270999991973031118004-33467-067550FM-12+050499999V0200501N00411220001CN0500001N9+03001+02001999999ADDAA199000091AY101999GF100991001001999999001001MW1001
0067874270999991973031212004-33467-067550FM-12+050499999V0203601N00251220001CN0500001N9+02001+01801999999ADDAA199000091AY101999GF100991001001999999001001KA1999N+01801MW1001
0054874270999991973031218004-33467-067550FM-12+050499999V0200501N00101018001CN0500001N9+02901+01601999999ADDAA199000091AY101999GF106991061081017501001001MW1031
0067874270999991973031312004-33467-067550FM-12+050499999V0201401N00251002101CN0200001N9+01801+01601999999ADDAA199000091AY121999GF108991081071002501999999KA1999N+01801MW1021
0073874270999991973031318004-33467-067550FM-12+050499999V0201801N00251220001CN0500001N9+02601+02101999999ADDAA199000091AY111999GF104991999001999999031001MW1011EQDQ01+000002SCOTLC
0067874270999991973031412004-33467-067550FM-12+050499999V0201801N00251006001CN0200001N9+02001+01801999999ADDAA199000091AY121999GF105991051081002501001001KA1999N+01801MW1011
0043874270999991973031415004-33467-067550FM-12+050499999V0201801N00251009001CN0200001N9+02101+01801999999ADDAY121999GF106991061081004501001001MW1021
0054874270999991973031418004-33467-067550FM-12+050499999V0201801N00251007501CN0200001N9+02501+01801999999ADDAA199000091AY101999GF107991071071008001001001MW1021
0068874270999991973031423004-33467-067550FM-12+050499999V0201801N00101036001CN0500001N9+02301+01701999999ADDAA199000091AY121999GF106991061001999999031001MW1021REMSYN00570026
0067874270999991973031512004-33467-067550FM-12+050499999V0201801N00251001201CN0200001N9+01701+01601999999ADDAA199999929AY121999GF108991081071001501999999KA1999N+01701MW1511
0054874270999991973031518004-33467-067550FM-12+050499999V0201801N00251004201CN0200001N9+02301+01901999999ADDAA199999929AY121999GF106991061071004501001001MW1021
0068874270999991973031523004-33467-067550FM-12+050499999V0201401N00251004201CN0200001N9+02201+01801999999ADDAA199000091AY121999GF108991081071004501999999MW1021REMSYN00570023
0067874270999991973031612004-33467-067550FM-12+050499999V0201801N00251001201CN9999999N9+01501+01501999999ADDAA199047091AY161999GF108991081071001501999999KA1999N+01501MW1551
0054874270999991973031618004-33467-067550FM-12+050499999V0201801N00251001201CN0200001N9+01501+01401999999ADDAA199009091AY161999GF108991081071001501999999MW1021
0043874270999991973031809004-33467-067550FM-12+050499999V0201401N00251001201CN0040001N9+01701+01601999999ADDAY121999GF108991081071001501999999MW1021
0067874270999991973031812004-33467-067550FM-12+050499999V0203601N00251001201CN0100001N9+01701+01601999999ADDAA199000091AY121999GF108991081071001501999999KA1999N+01601MW1021
0054874270999991973031818004-33467-067550FM-12+050499999V0203601N00251220001CN0500001N9+02501+02001999999ADDAA199000091AY111999GF100991001001999999001001MW1001
0068874270999991973031823004-33467-067550FM-12+050499999V0209991C00001220001CN0500001N9+02301+01801999999ADDAA199000091AY101999GF100991001001999999001001MW1001REMSYN00570022
0067874270999991973031912004-33467-067550FM-12+050499999V0209991C00001220001CN0500001N9+01501+01401999999ADDAA199000091AY101999GF100991001001999999001001KA1999N+01301MW1001
0043874270999991973031918004-33467-067550FM-12+050499999V0203601N00251220001CN0500001N9+02801+01801999999ADDAY101999GF100991001001999999001001MW1021
0067874270999991973032012004-33467-067550FM-12+050499999V0200501N00251220001CN0500001N9+01501+01401999999ADDAA199000091AY101999GF100991001001999999001001KA1999N+01401MW1001
0054874270999991973032018004-33467-067550FM-12+050499999V0200501N00251220001CN0500001N9+03001+02001999999ADDAA199000091AY101999GF100991001001999999001001MW1001
0068874270999991973032023004-33467-067550FM-12+050499999V0209991C00001220001CN0500001N9+02601+02101999999ADDAA199000091AY101999GF100991001001999999001001MW1001REMSYN00570030
0067874270999991973032112004-33467-067550FM-12+050499999V0209991C00001220001CN0500001N9+01501+01401999999ADDAA199000091AY101999GF100991001001999999001001KA1999N+01401MW1001
0068874270999991973032118004-33467-067550FM-12+050499999V0209991C00001220001CN0500001N9+02801+01001999999ADDAA199000091AY111999GF104991041081012501001001MW1031REMSYN005190**
0068874270999991973032123004-33467-067550FM-12+050499999V0203601N00101220001CN0200001N9+02301+01701999999ADDAA199000091AY121999GF100991001001999999001001MW1021REMSYN00570028
0067874270999991973032212004-33467-067550FM-12+050499999V0209991C00001220001CN0500001N9+01501+01401999999ADDAA199000091AY101999GF100991001001999999001001KA1999N+01401MW1001
0054874270999991973032218004-33467-067550FM-12+050499999V0203601N00101220001CN0500001N9+03001+01601999999ADDAA199000091AY101999GF100991001001999999001001MW1001
0043874270999991973032223004-33467-067550FM-12+050499999V0203601N00101220001CN0500001N9+03001+01601999999ADDAY101999GF100991001001999999001001MW1001
0067874270999991973032312004-33467-067550FM-12+050499999V0209999999999220001CN0500001N9+01801+01101999999ADDAA199000091AY101999GF100991001001999999001001KA1999N+01801MW1001
0054874270999991973032318004-33467-067550FM-12+050499999V0200501N00251220001CN0500001N9+03201+02001999999ADDAA199000091AY101999GF100991001001999999001001MW1001
0068874270999991973032323004-33467-067550FM-12+050499999V0209991C00001220001CN0500001N9+02801+01801999999ADDAA199000091AY101999GF100991001001999999001001MW1001REMSYN00570033
0067874270999991973032412004-33467-067550FM-12+050499999V0200501N00251220001CN0500001N9+02001+01801999999ADDAA199000091AY101999GF100991001001999999001001KA1999N+02001MW1001
0054874270999991973032418004-33467-067550FM-12+050499999V0200501N00411220001CN0500001N9+03201+02001999999ADDAA199000091AY101999GF100991001001999999001001MW1001
0068874270999991973032423004-33467-067550FM-12+050499999V0209991C00001220001CN0200001N9+02601+01801999999ADDAA199000091AY101999GF100991001001999999001001MW1001REMSYN00570033
0067874270999991973032512004-33467-067550FM-12+050499999V0201401N00251001201CN0100001N9+01401+01401999999ADDAA199999929AY151999GF108991081071001501999999KA1999N+01401MW1501
0054874270999991973032518004-33467-067550FM-12+050499999V0201401N00251007501CN0500001N9+02101+01601999999ADDAA199000091AY121999GF106991061071008001001001MW1011
0043874270999991973032612004-33467-067550FM-12+050499999V0209991C00001001201CN0100001N9+01301+01301999999ADDAY121999GF108991081071001501999999MW1021
0043874270999991973032618004-33467-067550FM-12+050499999V0201401N00251004201CN0200001N9+01601+01301999999ADDAY121999GF106991061071004501001001MW1011
0067874270999991973032712004-33467-067550FM-12+050499999V0209991C00001220001CN0500001N9+01201+01001999999ADDAA199000091AY101999GF100991001001999999001001KA1999N+01001MW1001
0054874270999991973032718004-33467-067550FM-12+050499999V0203601N00251220001CN0500001N9+02701+01401999999ADDAA199000091AY101999GF100991001001999999001001MW1001
0068874270999991973032723004-33467-067550FM-12+050499999V0209991C00001220001CN0500001N9+02401+01601999999ADDAA199000091AY101999GF100991001001999999001001MW1001REMSYN00570028
0043874270999991973032818004-33467-067550FM-12+050499999V0203601N00251220001CN0500001N9+02901+01601999999ADDAY101999GF100991001001999999001001MW1001
0068874270999991973032823004-33467-067550FM-12+050499999V0209991C00001220001CN0500001N9+02401+01501999999ADDAA199000091AY101999GF100991001001999999001001MW1001REMSYN00570029
0054874270999991973032918004-33467-067550FM-12+050499999V0203601N00251220001CN0500001N9+02901+01601999999ADDAA199000091AY101999GF100991001001999999001001MW1001
0068874270999991973032923004-33467-067550FM-12+050499999V0209991C00001220001CN0200001N9+02501+01701999999ADDAA199000091AY101999GF100991001001999999001001MW1011REMSYN00570030
0067874270999991973033012004-33467-067550FM-12+050499999V0209991C00001220001CN0500001N9+01601+01501999999ADDAA199000091AY101999GF100991001001999999001001KA1999N+01501MW1001
0062874270999991973033018004-33467-067550FM-12+050499999V0201801N002519999999N0500001N9+02201+01501999999ADDAY101999GF106991999001999999031001MW1031EQDQ01+000002SCOTLC
0043874270999991973033021004-33467-067550FM-12+050499999V0201401N00251012001CN0200001N9+02401+01401999999ADDAY121999GF106991061051012501001001MW1021
0068874270999991973033023004-33467-067550FM-12+050499999V0209991C00001012001CN0200001N9+02201+01501999999ADDAA199000091AY121999GF105991051051012501001001MW1011REMSYN00570025
0067874270999991973033112004-33467-067550FM-12+050499999V0201401N00251002101CN0200001N9+01301+01001999999ADDAA199000091AY121999GF108991081071002501999999KA1999N+01201MW1021
0068874270999991973033118004-33467-067550FM-12+050499999V0201401N00251015001CN0100001N9+01401+00601999999ADDAA199000091AY121999GF108991081071017501999999MD1010001+9999MW1021
0068874270999991973033123004-33467-067550FM-12+050499999V0201801N00411004201CN0100001N9+01101+00801999999ADDAA199999929AY121999GF108991081071004501999999MW1021REMSYN00579714
0054874270999991973040118004-33467-067550FM-12+050499999V0201801N00251001201CN0200001N9+01301+01201999999ADDAA199999929AY121999GF108991081071001501999999MW1021
0067874270999991973040212004-33467-067550FM-12+050499999V0209991C00001001201CN0100001N9+01201+01001999999ADDAA199000091AY121999GF108991081071001501999999KA1999N+01201MW1021
0054874270999991973040218004-33467-067550FM-12+050499999V0201801N00251004201CN0200001N9+99999+99999999999ADDAA199000091AY101999GF108991081051004501999999MW1011
0067874270999991973040312004-33467-067550FM-12+050499999V0209991C00001220001CN0500001N9+01001+01001999999ADDAA199000091AY101999GF100991001001999999001001KA1999N+00901MW1001
0054874270999991973040318004-33467-067550FM-12+050499999V0201401N00251007501CN0350001N9+01901+01401999999ADDAA199000091AY121999GF108991081051008001999999MW1031
0086874270999991973040412004-33467-067550FM-12+050499999V0209991C000019999999N0200001N9+01101+01101999999ADDAA199000091AY121999GF108991081021999999999999KA1999N+01101MW1021EQDQ01+000992SCOLCB
0062874270999991973040418004-33467-067550FM-12+050499999V0201801N002519999999N0500001N9+01601+01001999999ADDAY121999GF107991999001999999031001MW1011EQDQ01+000002SCOTLC
0043874270999991973040515004-33467-067550FM-12+050499999V0201801N00251007501CN0200001N9+01401+01201999999ADDAY121999GF108991081051008001999999MW1021
0054874270999991973040518004-33467-067550FM-12+050499999V0201801N00251007501CN0200001N9+01801+01201999999ADDAA199000091AY121999GF108991081051008001999999MW1021
0081874270999991973040612004-33467-067550FM-12+050499999V0209991C00001220001CN0500001N9+01001+01001999999ADDAA199000091AY101999GF100991001001999999001001KA1999N+00901MD1010001+9999MW1001
0054874270999991973040618004-33467-067550FM-12+050499999V0203601N00251220001CN0500001N9+02501+01301999999ADDAA199000091AY101999GF100991001001999999001001MW1001
0067874270999991973040712004-33467-067550FM-12+050499999V0209991C00001220001CN0500001N9+00501+00001999999ADDAA199000091AY101999GF100991001001999999001001KA1999N+00501MW1001
0048874270999991973040718004-33467-067550FM-12+050499999V0201801N00251220001CN0500001N9+01701-00101999999ADDAA199000091AY131999GF100991001001999999001001
0068874270999991973040723004-33467-067550FM-12+050499999V0209991C00001220001CN0200001N9+01301+01001999999ADDAA199000091AY101999GF100991001001999999001001MW1001REMSYN00570018
0067874270999991973040812004-33467-067550FM-12+050499999V0209991C00001220001CN0500001N9+00901+00501999999ADDAA199000091AY101999GF100991001001999999001001KA1999N+00701MW1001
0043874270999991973040818004-33467-067550FM-12+050499999V0203601N00251220001CN0500001N9+01601+01001999999ADDAY101999GF100991001001999999001001MW1001
0068874270999991973040823004-33467-067550FM-12+050499999V0209991C00001220001CN0500001N9+01801+01201999999ADDAA199000091AY101999GF100991001001999999001001MW1001REMSYN00570025
0043874270999991973040918004-33467-067550FM-12+050499999V0203601N00251220001CN0500001N9+01601+01001999999ADDAY101999GF100991001001999999001001MW1001
0043874270999991973040923004-33467-067550FM-12+050499999V0203601N00251220001CN0200001N9+02501+01301999999ADDAY101999GF100991001001999999001001MW1001
0067874270999991973041012004-33467-067550FM-12+050499999V0203601N00251220001CN0500001N9+01201+01101999999ADDAA199000091AY101999GF100991001001999999001001KA1999N+01101MW1001
0054874270999991973041018004-33467-067550FM-12+050499999V0203601N00251220001CN0500001N9+02601+01401999999ADDAA199000091AY101999GF100991001001999999001001MW1001
0081874270999991973041112004-33467-067550FM-12+050499999V0201801N00411004201CN0200001N9+01401+01001999999ADDAA199000091AY121999GF105991051051004501001001KA1999N+01101MD1010001+9999MW1031
0073874270999991973041118004-33467-067550FM-12+050499999V0201401N00411220001CN0500001N9+01801+00401999999ADDAA199000091AY121999GF104991999001999999031001MW1011EQDQ01+000002SCOTLC
0068874270999991973041123004-33467-067550FM-12+050499999V0201701N00411007501CN0200001N9+01501+01101999999ADDAA199000091AY111999GF105991051051008001001001MW1031REMSYN00570018
0057874270999991973041212004-33467-067550FM-12+050499999V0201401N00251220001CN0200001N9+01001+00301999999ADDAY121999GF100991999999999999999999MW1021REMSYN0050010*
0054874270999991973041218004-33467-067550FM-12+050499999V0201401N00251007501CN0200001N9+01801+01201999999ADDAA199000091AY111999GF106991061051008001001001MW1011
0067874270999991973041312004-33467-067550FM-12+050499999V0201801N002519999999N0200001N9+00901+00901999999ADDAA199000091AY121999GF108991999999999999999999KA1999N+00901MW1021
0054874270999991973041318004-33467-067550FM-12+050499999V0209991C00001220001CN0500001N9+02001+01501999999ADDAA199000091AY101999GF100991001001999999001001MW1001
0067874270999991973041412004-33467-067550FM-12+050499999V0201801N00251004201CN0200001N9+01401+01001999999ADDAA199000091AY121999GF105991051051004501001001KA1999N+01101MW1011
0054874270999991973041418004-33467-067550FM-12+050499999V0201401N00251220001CN0500001N9+02001+01501999999ADDAA199000091AY101999GF100991001001999999001001MW1001
0067874270999991973041512004-33467-067550FM-12+050499999V0201401N00251001201CN0200001N9+01001+01001999999ADDAA199003091AY151999GF108991081071001501999999KA1999N+00901MW1021
0067874270999991973041612004-33467-067550FM-12+050499999V0209991C00001220001CN0020001N9+00701+00701999999ADDAA199000091AY121999GF100991001001999999001001KA1999N+00701MW1441
0057874270999991973041618004-33467-067550FM-12+050499999V0200501N00251220001CN0500001N9+01501+01101999999ADDAY101999GF100991001001999999001001MD1010001+9999MW1001
0067874270999991973041712004-33467-067550FM-12+050499999V0209991C00001220001CN0500001N9+00901+00901999999ADDAA199000091AY101999GF100991001001999999001001KA1999N+00801MW1001
0054874270999991973041718004-33467-067550FM-12+050499999V0209991C00001220001CN0500001N9+02201+01201999999ADDAA199000091AY101999GF104991041081012501001001MW1031
0068874270999991973041723004-33467-067550FM-12+050499999V0209991C00001220001CN0200001N9+01701+01201999999ADDAA199000091AY101999GF100991999999999999999999MW1021REMSYN00570022
0067874270999991973041812004-33467-067550FM-12+050499999V0209991C00001220001CN0500001N9+01001+00801999999ADDAA199000091AY101999GF100991001001999999001001KA1999N+01001MW1001
0054874270999991973041818004-33467-067550FM-12+050499999V0200501N00101220001CN0500001N9+02401+01201999999ADDAA199000091AY101999GF100991001001999999001001MW1001
0067874270999991973041912004-33467-067550FM-12+050499999V0209991C00001220001CN0500001N9+01201+01101999999ADDAA199000091AY101999GF100991001001999999001001KA1999N+01201MW1021
0067874270999991973042012004-33467-067550FM-12+050499999V0201801N00251004201CN0200001N9+01501+01001999999ADDAA199000091AY121999GF107991071051004501001001KA1999N+01401MW1011
0089874270999991973042018004-33467-067550FM-12+050499999V0201801N00251220001CN0500001N9+02001+01201999999ADDAA199999999AY101999GF100991001001999999001001MW1901EQDQ01    993SCOTCVQ02  00002PRCP99
0043874270999991973042118004-33467-067550FM-12+050499999V0203601N00251012001CN0200001N9+01501+01001999999ADDAY121999GF108991081051012501999999MW1021
0068874270999991973042123004-33467-067550FM-12+050499999V0209991C00001220001CN0500001N9+02001+01501999999ADDAA199000091AY111999GF100991001001999999001001MW1001REMSYN00570021
0054874270999991973042218004-33467-067550FM-12+050499999V0203601N00101012001CN0500001N9+02501+01601999999ADDAA199000091AY121999GF107991071051012501001001MW1031
0067874270999991973042312004-33467-067550FM-12+050499999V0209991C00001001201CN0100001N9+01701+01701999999ADDAA199999929AY151999GF108991081051001501999999KA1999N+01601MW1021
0068874270999991973042318004-33467-067550FM-12+050499999V0203201N00251220001CN0500001N9+02301+99999999999ADDAA199000091AY111999GF100991001001999999001001MD1010001+9999MW1001
0068874270999991973042323004-33467-067550FM-12+050499999V0209991C00001009001CN0200001N9+02001+01601999999ADDAA199000091AY101999GF106991061081004501001001MW1031REMSYN00570024
0067874270999991973042412004-33467-067550FM-12+050499999V0209991C00001001201CN0100001N9+01601+01601999999ADDAA199999929AY151999GF108991081071001501999999KA1999N+01601MW1021
0054874270999991973042418004-33467-067550FM-12+050499999V0201801N00251001201CN0200001N9+01601+99999999999ADDAA199999929AY161999GF199999081071001501999999MW1601
0102874270999991973042512004-33467-067550FM-12+050499999V0209991C00001220001CN0500001N9+00901+00901999999ADDAA199000091AY111999GF103991031001999999041001KA1999N+00901MW1011EQDQ01+000042APCTENQ02+000442APC3  
0043874270999991973042518004-33467-067550FM-12+050499999V0203601N00251220001CN0500001N9+01301+00701999999ADDAY101999GF100991001001999999001001MW1021
0067874270999991973042612004-33467-067550FM-12+050499999V0209991C00001220001CN0500001N9+00601+00501999999ADDAA199000091AY101999GF100991001001999999001001KA1999N+00601MW1001
0054874270999991973042618004-33467-067550FM-12+050499999V0203601N00251220001CN0500001N9+02201+00901999999ADDAA199000091AY101999GF100991001001999999001001MW1001
0082874270999991973042623004-33467-067550FM-12+050499999V0209991C00001220001CN0200001N9+01601+01001999999ADDAA199000091AY121999GF100991001001999999001001MD1010001+9999MW1021REMSYN00570022
0054874270999991973042718004-33467-067550FM-12+050499999V0203601N00251015001CN0500001N9+02101+01201999999ADDAA199000091AY121999GF105991051081012501031001MW1031
0068874270999991973042723004-33467-067550FM-12+050499999V0201801N00101220001CN0500001N9+01601+01001999999ADDAA199000091AY111999GF100991001001999999001001MW1001REMSYN00570021
0059874270999991973042812004-33467-067550FM-12+050499999V0201801N00251002101CN0100001N9+00801+00601999999ADDAA199000091GF108991081051002501999999KA1999N+00701MW1021
0076874270999991973042818004-33467-067550FM-12+050499999V0200801N00251220001CN0500001N9+99999+99999999999ADDAY121999GF101991001999999999999999MD1010001+9999MW1021EQDQ01    043SCOLCG
0068874270999991973042823004-33467-067550FM-12+050499999V0209991C00001220001CN0200001N9+01401+01001999999ADDAA199000091AY101999GF100991001001999999001001MW1021REMSYN00570018
0067874270999991973042912004-33467-067550FM-12+050499999V0201801N00251006001CN0200001N9+01001+00801999999ADDAA199000091AY121999GF106991061081002501001001KA1999N+00901MW1011
0054874270999991973042918004-33467-067550FM-12+050499999V0201801N00251004201CN0200001N9+01501+01001999999ADDAA199000091AY121999GF108991081071004501999999MW1021
0073874270999991973043018004-33467-067550FM-12+050499999V0201801N002519999999N0500001N9+01801+01201999999ADDAA199000091AY121999GF106991999001999999031001MW1011EQDQ01+000002SCOTLC
0043874270999991973050112004-33467-067550FM-12+050499999V0209991C00001220001CN0200001N9+00801+00601999999ADDAY101999GF100991001001999999001001MW1001
0043874270999991973050121004-33467-067550FM-12+050499999V0201401N00411036001CN0500001N9+02201+00101999999ADDAY101999GF106991061001999999031001MW1031
0054874270999991973050218004-33467-067550FM-12+050499999V0201401N00411220001CN0500001N9+01301-00101999999ADDAA199000091AY101999GF100991001001999999001001MW1001
0067874270999991973050312004-33467-067550FM-12+050499999V0209991C00001220001CN0500001N9+00101-00301999999ADDAA199000091AY101999GF100991001001999999001001KA1999N+00001MW1001
0087874270999991973050318004-33467-067550FM-12+050499999V0202401N00411220001CN0500001N9+99999+99999999999ADDAA199000091AY121999GF100991001001999999001001MW1011REMSYN00512***EQDQ01+000042SCOTCV
0068874270999991973050323004-33467-067550FM-12+050499999V0203601N00251220001CN0500001N9+01201+00801999999ADDAA199000091AY101999GF100991001001999999001001MW1001REMSYN00570018
0043874270999991973050412004-33467-067550FM-12+050499999V0203501N00101220001CN0100001N9+00301-00101999999ADDAY101999GF100991001001999999001001MW1001
0068874270999991973050418004-33467-067550FM-12+050499999V0203601N00251220001CN0500001N9+01801+01201999999ADDAA199000091AY101999GF100991001001999999001001MW1001REMSYN0051500*
0068874270999991973050423004-33467-067550FM-12+050499999V0209991C00001220001CN0500001N9+01201+00701999999ADDAA199000091AY101999GF100991001001999999001001MW1001REMSYN00570018
0043874270999991973050509004-33467-067550FM-12+050499999V0209991C00001220001CN0100001N9+00301+00201999999ADDAY101999GF100991001001999999001001MW1001
0067874270999991973050512004-33467-067550FM-12+050499999V0203601N00251220001CN0500001N9+00401+00301999999ADDAA199000091AY101999GF100991001001999999001001KA1999N+00301MW1001
0054874270999991973050518004-33467-067550FM-12+050499999V0201501N00251220001CN0500001N9+01801+00601999999ADDAA199000091AY101999GF104991041001999999031001MW1031
0043874270999991973050519004-33467-067550FM-12+050499999V0203601N00251220001CN0500001N9+01301+01101999999ADDAY101999GF100991001001999999001001MW1001
0067874270999991973050600004-33467-067550FM-12+050499999V0203201N00251220001CN0500001N9+01101+00701999999ADDAA199000091AY121999GF100991001001999999001001KA1999M+01801MW1011
0054874270999991973050618004-33467-067550FM-12+050499999V0201801N00251220001CN0500001N9+01601+00801999999ADDAA199000091AY111999GF103991031001999999031001MW1011
0082874270999991973050623004-33467-067550FM-12+050499999V0209991C00001220001CN0500001N9+01101+00501999999ADDAA199000091AY101999GF100991001001999999001001MD1010001+9999MW1001REMSYN00570016
0043874270999991973050718004-33467-067550FM-12+050499999V0201801N00251012001CN0200001N9+00801+00401999999ADDAY121999GF108991081071012501999999MW1021
0067874270999991973050812004-33467-067550FM-12+050499999V0209991C00001220001CN0500001N9+00701+00701999999ADDAA199000091AY101999GF100991001001999999001001KA1999N+00701MW1001
0068874270999991973050813004-33467-067550FM-12+050499999V0209991C00001220001CN0500001N9+00701+00701999999ADDAA199000091AY101999GF100991001001999999001001MW1001REMSYN00570007
0043874270999991973050814004-33467-067550FM-12+050499999V0201801N00251220001CN0100001N9+00901+00701999999ADDAY101999GF100991001001999999001001MW1001
0089874270999991973050818004-33467-067550FM-12+050499999V0201801N00251220001CN0500001N9+01801+00501999999ADDAA199000091AY101999GF100991001001999999001001MW1001EQDQ01+000042APCTENQ02+000442APC3  
0054874270999991973050912004-33467-067550FM-12+050499999V0209999999999220001CN0500001N9+00401+00301999999ADDAA199000091AY101999GF100991001001999999001001MW1001
0043874270999991973050918004-33467-067550FM-12+050499999V0201401N00251220001CN0500001N9+01301+00701999999ADDAY101999GF100991001001999999001001MW1001
0043874270999991973051018004-33467-067550FM-12+050499999V0201801N00201036001CN0500001N9+01501+00801999999ADDAY121999GF106991061001999999041001MW1021
0067874270999991973051112004-33467-067550FM-12+050499999V0209991C00001220001CN0500001N9+00101-00101999999ADDAA199000091AY101999GF100991001001999999001001KA1999N+00001MW1001
0054874270999991973051118004-33467-067550FM-12+050499999V0209991C00001220001CN0500001N9+01701+00501999999ADDAA199000091AY101999GF100991001001999999001001MW1001
0067874270999991973051212004-33467-067550FM-12+050499999V0200501N00251004201CN0200001N9+00801+00401999999ADDAA199000091AY121999GF108991081051004501999999KA1999N+00601MW1021
0054874270999991973051218004-33467-067550FM-12+050499999V0200501N00251004201CN0200001N9+01301+00701999999ADDAA199000091AY121999GF108991081071004501999999MW1021
0067874270999991973051312004-33467-067550FM-12+050499999V0203601N00251220001CN0500001N9+00301+00301999999ADDAA199000091AY101999GF100991001001999999001001KA1999N+00301MW1001
0046874270999991973051318004-33467-067550FM-12+050499999V0200501N00411220001CN0500001N9+01701+00501999999ADDAA199000091GF100991001001999999001001MW1001
0067874270999991973051412004-33467-067550FM-12+050499999V0209991C00001220001CN0500001N9+00701+00501999999ADDAA199000091AY101999GF100991001001999999001001KA1999N+00601MW1001
0054874270999991973051418004-33467-067550FM-12+050499999V0200501N00671220001CN0200001N9+01701+00801999999ADDAA199000091AY101999GF100991001001999999001001MW1001
0043874270999991973051512004-33467-067550FM-12+050499999V0209991C00001220001CN0100001N9+00601+00501999999ADDAY101999GF100991001001999999001001MW1001
0054874270999991973051518004-33467-067550FM-12+050499999V0200501N00411220001CN0500001N9+02101+00901999999ADDAA199000091AY101999GF100991001001999999001001MW1001
0082874270999991973051523004-33467-067550FM-12+050499999V0201401N00251220001CN0500001N9+01501+00801999999ADDAA199000091AY121999GF100991001001999999001001MD1010001+9999MW1011REMSYN00570022
0035874270999991973051618004-33467-067550FM-12+050499999V0202801N00411220001CN0500001N9+01601+00701999999ADDGF100991001001999999001001MW1001
0067874270999991973051712004-33467-067550FM-12+050499999V0202301N00251220001CN0500001N9+00401+00401999999ADDAA199000091AY101999GF101991001001999999001021KA1999N+00401MW1031
0043874270999991973051718004-33467-067550FM-12+050499999V0202301N00251220001CN0500001N9+01001+00301999999ADDAY111999GF100991001001999999001001MW1001
0067874270999991973051812004-33467-067550FM-12+050499999V0202301N00251001201CN0200001N9+00501+00401999999ADDAA199000091AY121999GF106991061051001501001001KA1999N+00501MW1021
0054874270999991973051818004-33467-067550FM-12+050499999V0203601N00251012001CN0500001N9+02001+01101999999ADDAA199000091AY121999GF106991061051012501001001MW1021
0054874270999991973051918004-33467-067550FM-12+050499999V0203601N00251220001CN0500001N9+02201+01201999999ADDAA199000091AY101999GF100991999999999999999999MW1001
0057874270999991973052000004-33467-067550FM-12+050499999V0203601N00251220001CN0500001N9+02201+00701999999ADDAY101999GF100991001001999999001001MD1010001+9999MW1001
0054874270999991973052018004-33467-067550FM-12+050499999V0209999999999220001CN0500001N9+02201+00701999999ADDAA199000091AY101999GF100991001001999999001001MW1001
0068874270999991973052023004-33467-067550FM-12+050499999V0201401N00411220001CN0500001N9+01601+00601999999ADDAA199000091AY101999GF100991001001999999001001MW1001REMSYN00570023
0054874270999991973052118004-33467-067550FM-12+050499999V0200501N00251220001CN0500001N9+02001+01101999999ADDAA199000091AY101999GF100991001001999999001001MW1001
0086874270999991973052212004-33467-067550FM-12+050499999V0209991C00001220001CN0200001N9+00501+00401999999ADDAA199000091AY101999GF100991001001999999001001KA1999N+99999MW1001EQDQ01 +00602ATMN  
0043874270999991973052218004-33467-067550FM-12+050499999V0200501N00411220001CN0500001N9+01201+00701999999ADDAY101999GF100991001001999999001001MW1001
0067874270999991973052312004-33467-067550FM-12+050499999V0201801N00251220001CN0200001N9+00801+00801999999ADDAA199000091AY101999GF104991041051001501001001KA1999N+00801MW1031
0046874270999991973052318004-33467-067550FM-12+050499999V0200501N00251220001CN0500001N9+02201+00701999999ADDAA199000091GF100991001001999999001001MW1001
0068874270999991973052323004-33467-067550FM-12+050499999V0203601N00361220001CN0500001N9+01501+00801999999ADDAA199000091AY101999GF100991001001999999001001MW1001REMSYN00570023
0067874270999991973052412004-33467-067550FM-12+050499999V0201401N00251220001CN0500001N9+00801+00801999999ADDAA199000091AY101999GF100991001001999999001001KA1999N+00801MW1001
0068874270999991973052423004-33467-067550FM-12+050499999V0200501N00251220001CN0500001N9+01501+00701999999ADDAA199000091AY101999GF100991001001999999001001MW1001REMSYN00570023
0054874270999991973052518004-33467-067550FM-12+050499999V0203601N00251220001CN0200001N9+02201+01001999999ADDAA199000091AY121999GF100991001001999999001001MW1021
0067874270999991973052612004-33467-067550FM-12+050499999V0209991C00001220001CN0200001N9+01001+01001999999ADDAA199000091AY121999GF100991999999999999999999KA1999N+00701MW1021
0054874270999991973052618004-33467-067550FM-12+050499999V0200501N00201220001CN0500001N9+02401+01301999999ADDAA199000091AY101999GF100991001001999999001001MW1001
0068874270999991973052718004-33467-067550FM-12+050499999V0201401N00411220001CN0500001N9+02201+00001999999ADDAA199000091AY101999GF100991999999999999999999MW1001REMSYN00507***
0067874270999991973052812004-33467-067550FM-12+050499999V0201801N00251007501CN0100001N9+00701+00001999999ADDAA199000091AY121999GF108991081071008001999999KA1999N+00701MW1021
0043874270999991973052909004-33467-067550FM-12+050499999V0201801N00251220001CN0100001N9+00501+00501999999ADDAY101999GF100991001001999999001001MW1001
0067874270999991973052912004-33467-067550FM-12+050499999V0201801N00251012001CN0200001N9+00401+00101999999ADDAA199000091AY101999GF106991061051012501001001KA1999N+00401MW1031
0054874270999991973053018004-33467-067550FM-12+050499999V0209991C00001220001CN0500001N9+02201+00701999999ADDAA199000091AY101999GF100991001001999999001001MW1001
0068874270999991973053023004-33467-067550FM-12+050499999V0209991C00001220001CN0500001N9+01401+01201999999ADDAA199000091AY101999GF100991001001999999001001MW1001REMSYN00570022
0067874270999991973053112004-33467-067550FM-12+050499999V0209991C00001220001CN0200001N9+00301+00201999999ADDAA199000091AY101999GF100991001001999999001001KA1999N+00201MW1001
0073874270999991973053118004-33467-067550FM-12+050499999V0200501N00251220001CN0500001N9+02402+01301999999ADDAA199000091AY101999GF100991001001999999001001MW1001EQDQ01+029723ATOT  
0116874270999991973060112004-33467-067550FM-12+050499999V0200501N00261001201CN0200001N9+01001+01001999999ADDAA124000091AY101999GF106991999051001501001001KA1999N+00001MW1011REMSYN00570000EQDQ01+000052SCOTLCQ02  00003PRCP99
0068874270999991973060123004-33467-067550FM-12+050499999V0209991C00001220001CN0500001N9+01601+00601999999ADDAA199000091AY101999GF100991001001999999001001MW1001REMSYN00570022
0068874270999991973060323004-33467-067550FM-12+050499999V0203601N00261220001CN0500001N9+01801+01201999999ADDAA199000091AY101999GF100991001001999999001001MW1001REMSYN00570024
0081874270999991973060415004-33467-067550FM-12+050499999V0209991C00001001201CN0200001N9+01201+01201999999ADDAA199000091AY121999GF108991081051001501999999KA1999N+00901MW1021REMSYN00570009
0098874270999991973060518004-33467-067550FM-12+050499999V0201801N00261001201CN0100001N9+00801+00801999999ADDAA106999999AA299999929AY121999GF108991081071001501999999MW1531REMSYN005797//EQDQ01  00002PRCP06
0081874270999991973060613004-33467-067550FM-12+050499999V0209991C00001001201CN0100001N9+00601+00601999999ADDAA124000091AY151999GF108991081071001501999999KA1999N+00601MW1021REMSYN00570006
0089874270999991973060712004-33467-067550FM-12+050499999V0201801N00101001201CN0100001N9+00601+00601999999ADDAA124004091AY151999GF108991081071001501999999KA1999N+00601MW1501REMSYN01370406 0900  Z
0098874270999991973060718004-33467-067550FM-12+050499999V0201401N00261001201CN0200001N9+00701+00701999999ADDAA106999999AA299999929AY151999GF108991081071001501999999MW1501REMSYN005797//EQDQ01  00002PRCP06
0113874270999991973060812004-33467-067550FM-12+050499999V0202301N00261090001CN0100001N9+00801+00701999999ADDAA124000591AY121999GA1011+001509089GA2071+999999029GF108991081071001501999999KA1999N+00701MW1021REMSYN00579407
0068874270999991973060818004-33467-067550FM-12+050499999V0201401N00261220001CN0500001N9+01001+00901999999ADDAA199000091AY101999GF100991001001999999001001MW1021REMSYN005700//
0068874270999991973061118004-33467-067550FM-12+050499999V0201401N00261007501CN0000001N9+01201-01801999999ADDAA199000091AY121999GF106991061051008001001001MW1021REMSYN005700//
0068874270999991973061218004-33467-067550FM-12+050499999V0201401N00101220001CN0500001N9+01301+00501999999ADDAA199000091AY101999GF100991001001999999001001MW1001REMSYN005700//
0086874270999991973061313004-33467-067550FM-12+050499999V0209991C00001220001CN0500001N9-00101-00301999999ADDAA124000091AY101999GF100991001001999999001001KA1999N-00301MW1001REMSYN01070053 0900
0078874270999991973061318004-33467-067550FM-12+050499999V0200301N99999220001CN0500001N9+01401+00501999999ADDAY101999GF100991001001999999001001MW1001EQDQ01+003093WOSPD Q020003093WOSPD 
0068874270999991973061323004-33467-067550FM-12+050499999V0200501N00101220001CN0500001N9+01001+00201999999ADDAA199000091AY101999GF100991001001999999001001MW1001REMSYN00570018
0138874270999991973061412004-33467-067550FM-12+050499999V0203601N00101220001CN0100001N9+00201+00101999999ADDAA124000091AY101999GF100991001001999999001001MA1999999084001MW1001REMSYN0600600  400   52307 99030 40951 50910 68400 700// P     CLARAS
0074874270999991973061513004-33467-067550FM-12+050499999V0200501N00261220001CN0500001N9+01101+99999999999ADDAA124000091AY101999GF100991001001999999001001MW1031REMSYN01104/// 70016
0068874270999991973061518004-33467-067550FM-12+050499999V0203601N00931220001CN0500001N9+01901+01001999999ADDAA199000091AY101999GF100991001001999999001001MW1001REMSYN005700//
0081874270999991973061612004-33467-067550FM-12+050499999V0201801N00261220001CN0500001N9+00401+00201999999ADDAA124000091AY101999GF100991001001999999001001KA1999N+00401MW1001REMSYN00570004
0081874270999991973061813004-33467-067550FM-12+050499999V0209991C00001220001CN0500001N9+00401+00201999999ADDAA124000091AY101999GF100991001001999999001001KA1999N+00201MW1021REMSYN00570002
0068874270999991973061913004-33467-067550FM-12+050499999V0203601N00261220001CN0500001N9+00501+00101999999ADDAA124000091AY101999GF100991001001999999001001MW1001REMSYN005700//
0068874270999991973061918004-33467-067550FM-12+050499999V0200501N00411220001CN0500001N9+02202+01001999999ADDAA199000091AY101999GF100991001001999999001001MW1001REMSYN005700//
0068874270999991973061923004-33467-067550FM-12+050499999V0200501N00261220001CN0500001N9+01701+00701999999ADDAA199000091AY101999GF100991001001999999001001MW1001REMSYN00570022
0068874270999991973062018004-33467-067550FM-12+050499999V0209999999999220001CN0500001N9+02201+02001999999ADDAA199000091AY101999GF100991001001999999001001MW1001REMSYN005700//
0043874270999991973062023004-33467-067550FM-12+050499999V0203601N00261220001CN0200001N9+01901+01001999999ADDAY121999GF100991001001999999001001MW1031
0081874270999991973062112004-33467-067550FM-12+050499999V0209991C00001220001CN0500001N9+00101+00001999999ADDAA124000091AY101999GF100991001001999999001001KA1999N+00101MW1001REMSYN00570001
0043874270999991973062118004-33467-067550FM-12+050499999V0203601N00101220001CN0500001N9+01701+01101999999ADDAY101999GF100991001001999999001001MW1001
0087874270999991973062312004-33467-067550FM-12+050499999V0209991C00001001201CN0100001N9+99999+99999999999ADDAA124999999AY121999GF108991081051001501999999MW1501REMSYN00570005EQDQ01  00002PRCP24
0068874270999991973062418004-33467-067550FM-12+050499999V0203601N00261220001CN0500001N9+01401+00701999999ADDAA199000091AY101999GF100991001001999999001001MW1001REMSYN005700//
0136874270999991973063019004-33467-067550FM-12+050499999V0201801N00411220001CN0500001N9+01201+00801999999ADDAY101999GA1071+008109049GF199999999001999999001001MW1001REMSYN0173018  87427 01808EQDQ01+000002SCOTCVQ02+000002SCOTLCQ03+000992SCOLCB
0072874270999991973072312004-33467-067550FM-12+050499999V0209991C00001220001CN0100001N9-00301-00301999999ADDAY101999GF100991001001999999001001MW1001REMSYN020COLEC OBS   DE    CR
0043874270999991973072318004-33467-067550FM-12+050499999V0203501N00261220001CN0500001N9+01001+00201999999ADDAY101999GF100991001001999999001001MW1001
0081874270999991973072512004-33467-067550FM-12+050499999V0201401N00261220001CN0500001N9+00301+00201999999ADDAA124000091AY111999GF100991001001999999001001KA1999N+00301MW1001REMSYN00570003
0081874270999991973072513004-33467-067550FM-12+050499999V0201401N00261220001CN0500001N9+00301+00201999999ADDAA124000091AY111999GF100991001001999999001001KA1999N+00301MW1001REMSYN00570003
0068874270999991973072518004-33467-067550FM-12+050499999V0202301N00261220001CN0500001N9+01001+00301999999ADDAA199000091AY101999GF100991001001999999001001MW1001REMSYN005700//
0068874270999991973072618004-33467-067550FM-12+050499999V0203601N00261220001CN0500001N9+01401+00201999999ADDAA199000091AY101999GF100991001001999999001001MW1001REMSYN005700//
0068874270999991973072718004-33467-067550FM-12+050499999V0203601N00261220001CN0500001N9+01701+00801999999ADDAA199000091AY101999GF100991001001999999001001MW1001REMSYN005700//
0068874270999991973072818004-33467-067550FM-12+050499999V0203601N00261220001CN0500001N9+01701+00801999999ADDAA199000091AY101999GF100991001001999999001001MW1001REMSYN005700//
0068874270999991973072912004-33467-067550FM-12+050499999V0202301N00261220001CN0500001N9+00301+00001999999ADDAA124000091AY101999GF100991001001999999001001MW1001REMSYN00570007
0068874270999991973072918004-33467-067550FM-12+050499999V0203601N00261220001CN0500001N9+01701+00801999999ADDAA199000091AY101999GF100991001001999999001001MW1001REMSYN005700//
0056874270999991973073118004-33467-067550FM-12+050499999V0200501N00261220001CN0500001N9+01901+01001999999ADDAY101999GF100991001001999999001001MW1001REMSYN004705X
0081874270999991973080112004-33467-067550FM-12+050499999V0209991C00001220001CN0500001N9-00201-00301999999ADDAA124000091AY101999GF100991001001999999001001KA1999N-00301MW1001REMSYN00570053
0068874270999991973080118004-33467-067550FM-12+050499999V0203601N00261220001CN0500001N9+99999+99999999999ADDAA199000091AY101999GF100991001001999999001001MW1001REMSYN005700//
0068874270999991973080218004-33467-067550FM-12+050499999V0203601N00261220001CN0500001N9+02201+00301999999ADDAA199000091AY101999GF100991001001999999001001MW1001REMSYN005700//
0068874270999991973080718004-33467-067550FM-12+050499999V0201401N00261220001CN0500001N9+02001+01001999999ADDAA199000091AY101999GF100991001001999999001001MW1001REMSYN005700//
0058874270999991973080818004-33467-067550FM-12+050499999V0201801N00261220001CN0200001N9+01301+00401999999ADDAY101999GF100991001001999999001001MW1001REMSYN006700///
0043874270999991973081218004-33467-067550FM-12+050499999V0203601N00261220001CN0500001N9+01301+00701999999ADDAY101999GF100991001001999999001001MW1001
0068874270999991973081223004-33467-067550FM-12+050499999V0200501N00261036001CN0500001N9+01201+99999999999ADDAA199000091AY101999GF106991061001999999031001MW1031REMSYN00570018
0058874270999991973081418004-33467-067550FM-12+050499999V0200501N00211220001CN0200001N9+02001+00601999999ADDAY101999GF100991001001999999001001MW1001REMSYN006700///
0068874270999991973081518004-33467-067550FM-12+050499999V0202301N00261220001CN0500001N9+02001+00601999999ADDAA199000091AY101999GF100991001001999999001001MW1001REMSYN005700//
0081874270999991973081612004-33467-067550FM-12+050499999V0203601N00261220001CN0500001N9+00901+00501999999ADDAA124000091AY101999GF100991001001999999001001KA1999N+00401MW1001REMSYN00570004
0082874270999991973081618004-33467-067550FM-12+050499999V0200501N00411220001CN0500001N9+02301+00801999999ADDAA199000091AY101999GF100991001001999999001001MW1001REMSYN019700// RETAR 1500  Z
0089874270999991973081715004-33467-067550FM-12+050499999V0201801N00261220001CN0500001N9+00801+00301999999ADDAA199000091AY101999GF100991001001999999001001KA1999N+00501MW1001REMSYN01370005 18.00 Z
0087874270999991973081718004-33467-067550FM-12+050499999V0201801N00261220001CN0500001N9+02002+00601999999ADDAA199000091AY101999GF100991001001999999001001MW1001REMSYN005700//EQDQ01+029323ATOT  
0068874270999991973081818004-33467-067550FM-12+050499999V0201401N00671220001CN0500001N9+01801+00701999999ADDAA199000091AY101999GF100991001001999999001001MW1001REMSYN005700//
0068874270999991973081823004-33467-067550FM-12+050499999V0201401N00261220001CN0500001N9+01401+00201999999ADDAA199000091AY101999GF100991001001999999001001MW1001REMSYN00570018
0068874270999991973082018004-33467-067550FM-12+050499999V0200601N00151220001CN0500001N9+01901+00201999999ADDAA199000091AY101999GF100991001001999999001001MW1001REMSYN005700//
0068874270999991973082118004-33467-067550FM-12+050499999V0203601N00261220001CN0500001N9+00401-01001999999ADDAA199000091AY101999GF100991001001999999001001MW1001REMSYN005700//
0083874270999991973082213004-33467-067550FM-12+050499999V0203601N00261220001CN0500001N9+00501+00401999999ADDAA124000091AY101999GF100991001001999999001001KA1999N+00101MW1001REMSYN00770001 1
0085874270999991973082218004-33467-067550FM-12+050499999V0200501N00411220001CN0500001N9+02202+00601999999ADDAA199000091AY101999GF100991001001999999001001MW1001REMSYN022700// LEASE 12220 TEMP
0068874270999991973082223004-33467-067550FM-12+050499999V0209991C00001220001CN0500001N9+01201+00601999999ADDAA199000091AY101999GF100991001001999999001001MW1001REMSYN00570021
0068874270999991973082323004-33467-067550FM-12+050499999V0200501N00101220001CN0500001N9+01701+00801999999ADDAA199000091AY101999GF100991001001999999001001MW1001REMSYN00570022
0068874270999991973082518004-33467-067550FM-12+050499999V0203601N00261220001CN0500001N9+01601+00301999999ADDAA199000091AY101999GF100991001001999999001001MW1001REMSYN005700//
0076874270999991973082618004-33467-067550FM-12+050499999V0203601N00261220001CN0200001N9+02001+00601999999ADDAA199000091AY101999GF100991001001999999001001MW1011REMSYN013700// ---1500
0056874270999991973082713004-33467-067550FM-12+050499999V0203601N00101220001CN0500001N9+00401+00201999999ADDAY101999GF100991001001999999001001MW1001REMSYN0047005
0087874270999991973082718004-33467-067550FM-12+050499999V0200501N00411220001CN0500001N9+02302+00801999999ADDAA199000091AY101999GF100991001001999999001001MW1001REMSYN005700//EQDQ01+029623ATOT  
0086874270999991973082813004-33467-067550FM-12+050499999V0201801N00261220001CN0500001N9+00601+00201999999ADDAA124000091AY101999GF100991001001999999001001KA1999N+00401MW1001REMSYN01070004 0900
0129874270999991973082818004-33467-067550FM-12+050499999V0209991C00001220001CN0200001N9+01801+00501999999ADDAA199000091AY101999GF100991001001999999001001MW1001REMSYN047700// 305   02305 7...98000   53  6 00900 01213EQDQ01+000902SCOLCB
0068874270999991973082823004-33467-067550FM-12+050499999V0201401N00261220001CN0500001N9+01701+00701999999ADDAA199000091AY101999GF100991001001999999001001MW1001REMSYN00570021
0063874270999991973082918004-33467-067550FM-12+050499999V0201401N00261220001CN0500001N9+01201+00601999999ADDAY101999GF100991001001999999001001MW1001REMSYN011WX    1800Z
0068874270999991973083018004-33467-067550FM-12+050499999V0203601N00261220001CN0200001N9+02201+00501999999ADDAA199000091AY101999GF100991001001999999001001MW1001REMSYN005700//
0068874270999991973083023004-33467-067550FM-12+050499999V0209991C00001220001CN0500001N9+01801+00001999999ADDAA199000091AY101999GF100991001001999999001001MW1001REMSYN00570023
0068874270999991973083118004-33467-067550FM-12+050499999V0203601N00411220001CN0500001N9+02501+00601999999ADDAA199000091AY101999GF100991001001999999001001MW1001REMSYN005700//
0068874270999991973090118004-33467-067550FM-12+050499999V0203601N00411220001CN0200001N9+02701+01101999999ADDAA199000091AY101999GF100991001001999999001001MW1021REMSYN005700//
0068874270999991973090123004-33467-067550FM-12+050499999V0203601N00261220001CN0500001N9+02501+00501999999ADDAA199000091AY101999GF100991001001999999001001MW1001REMSYN00570027
0068874270999991973090218004-33467-067550FM-12+050499999V0203601N00411220001CN0500001N9+01801+01101999999ADDAA199000091AY101999GF100991001001999999001001MW1001REMSYN005700//
0068874270999991973090223004-33467-067550FM-12+050499999V0209991C00001220001CN0500001N9+02201+00501999999ADDAA199000091AY101999GF100991001001999999001001MW1001REMSYN00570028
0081874270999991973090312004-33467-067550FM-12+050499999V0201801N00411220001CN0500001N9+01001+00701999999ADDAA124000091AY101999GF100991001001999999001001KA1999N-00101MW1001REMSYN00570051
0068874270999991973090318004-33467-067550FM-12+050499999V0201401N00411220001CN0500001N9+01801+00201999999ADDAA199000091AY101999GF100991001001999999001001MW1001REMSYN005700//
0081874270999991973090512004-33467-067550FM-12+050499999V0201801N00261220001CN0500001N9+00601+00501999999ADDAA124000091AY101999GF100991001001999999001001KA1999N+00101MW1001REMSYN00570001
0068874270999991973090518004-33467-067550FM-12+050499999V0201801N00261220001CN0500001N9+01701+00201999999ADDAA199000091AY101999GF100991001001999999001001MW1001REMSYN005700//
0068874270999991973090623004-33467-067550FM-12+050499999V0209991C00001220001CN0500001N9+01301+00401999999ADDAY101999GF100991001001999999001001MW1001REMSYN0167000. ..70012100
0081874270999991973090713004-33467-067550FM-12+050499999V0200501N00931220001CN0200001N9+01001+00701999999ADDAA124000091AY101999GF100991001001999999001001KA1999N+00301MW1021REMSYN00570003
0068874270999991973090718004-33467-067550FM-12+050499999V0200501N00671220001CN0500001N9+01901+00201999999ADDAA199000091AY101999GF100991001001999999001001MW1001REMSYN005700//
0068874270999991973090823004-33467-067550FM-12+050499999V0209991C00001220001CN0200001N9+01701+00601999999ADDAA199000091AY101999GF100991001001999999001001MW1021REMSYN00570023
0089874270999991973090913004-33467-067550FM-12+050499999V0203601N00261220001CN0500001N9+00901+00401999999ADDAA124000091AY101999GF100991001001999999001001KA1999N+00401MW1001REMSYN01370004 0900Z O
0068874270999991973091018004-33467-067550FM-12+050499999V0200501N00261220001CN0500001N9+02501+00801999999ADDAA199000091AY101999GF100991001001999999001001MW1001REMSYN005700//
0068874270999991973091118004-33467-067550FM-12+050499999V0201801N00411220001CN0500001N9+02101+00901999999ADDAA199000091AY101999GF100991001001999999001001MW1001REMSYN005700//
0057874270999991973091218004-33467-067550FM-12+050499999V0209991C00001220001CN0500001N9+01801+00201999999ADDAY101999GF100991001001999999001001MW1001REMSYN00570///
0068874270999991973091223004-33467-067550FM-12+050499999V0209991C00001220001CN0500001N9+01501+00701999999ADDAA199000091AY101999GF100991001001999999001001MW1001REMSYN00570018
0068874270999991973091323004-33467-067550FM-12+050499999V0209991C00001220001CN0500001N9+01701+00601999999ADDAA199000091AY101999GF100991001001999999001001MW1001REMSYN00570022
0043874270999991973091423004-33467-067550FM-12+050499999V0201801N00261220001CN0500001N9+01701+00601999999ADDAY101999GF100991001001999999001001MW1001
0081874270999991973091513004-33467-067550FM-12+050499999V0201801N00261220001CN0500001N9+01001+00401999999ADDAA124000091AY101999GF100991001001999999001001KA1999N+00301MW1001REMSYN00570003
0068874270999991973091518004-33467-067550FM-12+050499999V0203601N00261220001CN0500001N9+02101+00901999999ADDAA199000091AY101999GF100991001001999999001001MW1001REMSYN005700//
0085874270999991973091523004-33467-067550FM-12+050499999V0201401N00671220001CN0100001N9+01801+00801999999ADDAA199000091AY131999GF100991001001999999001001MW1061REMSYN02270022 416   11411 9706
0058874270999991973091618004-33467-067550FM-12+050499999V0201801N00261220001CN0500001N9+01501+00601999999ADDAY121999GF104991041001999999031001MW1011REMSYN006700///
0086874270999991973091712004-33467-067550FM-12+050499999V0209991C00001001201CN0100001N9+00801+00801999999ADDAA124002091AY151999GF108991081061001501999999KA1999N+00701MW1021REMSYN01070207 0900
0058874270999991973091718004-33467-067550FM-12+050499999V0202301N00261001201CN0200001N9+01001+01001999999ADDAY121999GF108991081071001501999999MW1021REMSYN006700///
0081874270999991973091812004-33467-067550FM-12+050499999V0201801N00101002101CN0200001N9+00701+00501999999ADDAA124000091AY121999GF108991081061002501999999KA1999N+00201MW1021REMSYN00570002
0081874270999991973092012004-33467-067550FM-12+050499999V0200501N00101220001CN0500001N9+01001+00701999999ADDAA124000091AY101999GF100991001001999999001001KA1999N+00501MW1001REMSYN00570005
0068874270999991973092018004-33467-067550FM-12+050499999V0203601N00261220001CN0500001N9+02301+00601999999ADDAA199000091AY101999GF100991001001999999001001MW1001REMSYN005700//
0068874270999991973092118004-33467-067550FM-12+050499999V0203601N00261220001CN0500001N9+02601+00501999999ADDAA199000091AY101999GF100991001001999999001001MW1001REMSYN005700//
0068874270999991973092123004-33467-067550FM-12+050499999V0209991C00001220001CN0500001N9+02201+00201999999ADDAA199000091AY101999GF100991001001999999001001MW1001REMSYN00570028
0068874270999991973092218004-33467-067550FM-12+050499999V0203601N00261220001CN0500001N9+02701+00501999999ADDAA199000091AY101999GF100991001001999999001001MW1001REMSYN005700//
0068874270999991973092223004-33467-067550FM-12+050499999V0203601N00101220001CN0500001N9+02701+00501999999ADDAA199000091AY101999GF100991001001999999001001MW1001REMSYN00570028
0087874270999991973092418004-33467-067550FM-12+050499999V0200501N00101220001CN0500001N9+02901+00101999999ADDAA199000091AY101999GF103991001001999999001021MW1031REMSYN005700//EQDQ01+000032SCOTLC
0081874270999991973092513004-33467-067550FM-12+050499999V0201801N00361004201CN0100001N9+01001+00701999999ADDAA124000091AY121999GF108991081051004501999999KA1999N+00701MW1021REMSYN00570007
0068874270999991973092818004-33467-067550FM-12+050499999V0203601N00101220001CN0500001N9+02101+00201999999ADDAA199000091AY121999GF104991041001999999031001MW1021REMSYN005700//
0100874270999991973092912004-33467-067550FM-12+050499999V0201801N002619999999N0500001N9+00701+00301999999ADDAA124000091AY101999GF100991001001999999001001KA1999N+00301MW1001REMSYN00570003EQDQ01+000062SCOTCV
0068874270999991973092918004-33467-067550FM-12+050499999V0203601N00261220001CN0200001N9+01901+00801999999ADDAA199000091AY101999GF100991001001999999001001MW1021REMSYN005700//
0068874270999991973092923004-33467-067550FM-12+050499999V0209991C00001220001CN0500001N9+01801+00801999999ADDAA199000091AY101999GF100991001001999999001001MW1001REMSYN00570020
0054874270999991973093012004-33467-067550FM-12+050499999V0203601N00261220001CN0500001N9+01201+00501999999ADDAY101999GF104991041001999999031001MW1031REMSYN00270
0043874270999991973100109004-33467-067550FM-12+050499999V0209991C00001220001CN0100001N9+01001+00701999999ADDAY101999GF100991001001999999001001MW1001
0053874270999991973100112004-33467-067550FM-12+050499999V0203601N00261220001CN0500001N9+01701+00401999999ADDAY101999GF100991001001999999001001MW1001REMSYN0017
0204874270999991973100118004-33467-067550FM-12+050499999V0203601N00411220001CN0200001N9+02601+02402999999ADDAA199000091AY121999GA1071+001809049GA2021+009609009GF199999999001999999001001REMSYN04887506 60000 82032 47822 11646 03824 700// 1016.0EQDQ01+000002SCOTCVQ02+000002SCOTLCQ03+000992SCOLCBQ04+029723ATOD  
0087874270999991973100212004-33467-067550FM-12+050499999V0209991C00001220001CN0200001N9+01701+00401999999ADDAA124000091AY101999GF100991001001999999001001KA1999N+01001MW1021REMSYN01170010 0900Z
0068874270999991973100218004-33467-067550FM-12+050499999V0200501N00261220001CN0500001N9+02801+00601999999ADDAA199000091AY101999GF100991001001999999001001MW1001REMSYN005700//
0057874270999991973100223004-33467-067550FM-12+050499999V0203601N00261036001CN0500001N9+02601+99999999999ADDAY101999GF106991061001999999031001MW1031REMSYN005700-9
0054874270999991973100318004-33467-067550FM-12+050499999V0201401N00411012001CN9999999N9+02301+01201999999ADDAA199000091GF107991071051012501001001REMSYN005700//
0081874270999991973100513004-33467-067550FM-12+050499999V0209991C00001220001CN0500001N9+01701+00701999999ADDAA124000091AY101999GF100991001001999999001001KA1999N+01501MW1001REMSYN00570015
0043874270999991973100518004-33467-067550FM-12+050499999V0203601N00101220001CN0200001N9+02501+00701999999ADDAY101999GF100991001001999999001001MW1021
0053874270999991973100600004-33467-067550FM-12+050499999V0201401N00411012001CN0100001N9+02001+01501999999ADDAY131999GF106991061081008001001001MW1071REMSYN001B
0072874270999991973100618004-33467-067550FM-12+050499999V0203601N00261220001CN0500001N9+02501+00601999999ADDAA199000091AY101999GF100991001001999999001001MW1001REMSYN009700// ///
0043874270999991973100623004-33467-067550FM-12+050499999V0203601N00261220001CN0200001N9+02501+00601999999ADDAY121999GF100991001001999999001001MW1021
0058874270999991973100712004-33467-067550FM-12+050499999V0209991C00001220001CN0500001N9+01701+00601999999ADDAY101999GF100991001001999999001001MW1001REMSYN006700013
0043874270999991973100718004-33467-067550FM-12+050499999V0203601N00771220001CN0500001N9+02501+00701999999ADDAY101999GF100991001001999999001001MW1001
0068874270999991973100723004-33467-067550FM-12+050499999V0201401N00931220001CN0200001N9+02001+01501999999ADDAA199000091AY121999GF102991999999999999999999MW1021REMSYN00570027
0081874270999991973100812004-33467-067550FM-12+050499999V0209991C00001220001CN0500001N9+01501+00901999999ADDAA124000091AY101999GF100991001001999999001001KA1999N+00801MW1001REMSYN00570008
0058874270999991973100818004-33467-067550FM-12+050499999V0203201N00261220001CN0200001N9+02901+01201999999ADDAY101999GF100991001001999999001001MW1001REMSYN006700///
0074874270999991973100823004-33467-067550FM-12+050499999V0203201N00411220001CN0200001N9+02701+00801999999ADDAA199000091AY111999GF100991001001999999001001MW1001REMSYN01170030 2100Z
0082874270999991973100913004-33467-067550FM-12+050499999V0201401N00771220001CN0100001N9+01401+01001999999ADDAA124000091AY101999GF100991001001999999001001KA1999N+01401MW1001REMSYN00670014S
0060874270999991973100918004-33467-067550FM-12+050499999V0201401N00771220001CN0100001N9+01901+00701999999ADDAY121999GF104991999999999999999999MW1011REMSYN008509// 3/
0081874270999991973101012004-33467-067550FM-12+050499999V0201801N00261220001CN0200001N9+01001+00301999999ADDAA124000091AY101999GF100991001001999999001001KA1999N+00601MW1001REMSYN00570006
0068874270999991973101018004-33467-067550FM-12+050499999V0203601N00261220001CN0500001N9+02201+00901999999ADDAA199000091AY101999GF100991001001999999001001MW1001REMSYN005700//
0068874270999991973101023004-33467-067550FM-12+050499999V0209991C00001220001CN0500001N9+01801+00501999999ADDAA199000091AY101999GF100991001001999999001001MW1001REMSYN00570023
0081874270999991973101112004-33467-067550FM-12+050499999V0201401N00101220001CN0200001N9+01201+00801999999ADDAA124000091AY101999GF100991001001999999001001KA1999N+00401MW1001REMSYN00570004
0081874270999991973101123004-33467-067550FM-12+050499999V0201401N00261220001CN0500001N9+02801+00801999999ADDAA199000091AY101999GF100991001001999999001001KA1999N+02201MW1001REMSYN00570022
0081874270999991973101212004-33467-067550FM-12+050499999V0201401N00261220001CN0500001N9+01201+00801999999ADDAA124000091AY101999GF100991001001999999001001KA1999N+00401MW1001REMSYN00570004
0043874270999991973101313004-33467-067550FM-12+050499999V0203601N00261220001CN0100001N9+00601+00301999999ADDAY101999GF100991001001999999001001MW1001
0087874270999991973101318004-33467-067550FM-12+050499999V0200501N00411220001CN0500001N9+02602+00701999999ADDAA199000091AY101999GF100991001001999999001001MW1001REMSYN005700//EQDQ01+029923ATOT  
0081874270999991973101412004-33467-067550FM-12+050499999V0200501N00411220001CN0500001N9+01901+01401999999ADDAA124000091AY101999GF100991001001999999001001KA1999N+01201MW1001REMSYN00570012
0068874270999991973101423004-33467-067550FM-12+050499999V0200501N00261220001CN0200001N9+03001+01401999999ADDAA199000091AY101999GF100991001001999999001001MW1001REMSYN00570031
0081874270999991973101512004-33467-067550FM-12+050499999V0200501N00261220001CN0500001N9+01901+01501999999ADDAA124000091AY101999GF100991001001999999001001KA1999N+01101MW1001REMSYN00570011
0068874270999991973101518004-33467-067550FM-12+050499999V0200501N00411018001CN0200001N9+03101+00801999999ADDAA199000091AY101999GF106991061081017501001001MW1031REMSYN005700//
0068874270999991973101523004-33467-067550FM-12+050499999V0200501N00261021001CN0280001N9+02601+00701999999ADDAA199000091AY121999GF107991071081022501001001MW1021REMSYN00570032
0087874270999991973101618004-33467-067550FM-12+050499999V0203601N00261012001CN0100001N9+02501+01301999999ADDAA106002091AY121999GF106991061071012501001001MW1021REMSYN005702//EQDQ01  00203PRCP99
0081874270999991973101712004-33467-067550FM-12+050499999V0202301N00261220001CN0500001N9+01601+00901999999ADDAA124000091AY101999GF100991001001999999001001KA1999N+01001MW1001REMSYN00570010
0111874270999991973101718004-33467-067550FM-12+050499999V0201701N00261220001CN0500001N9+03101+00901999999ADDAY101999GF100991001001999999001001MW1001REMSYN059700///58    1717  87450 32705 97030 09329 32700 11729 69493
0079874270999991973101723004-33467-067550FM-12+050499999V0201801N00261220001CN0200001N9+03101+00901999999ADDAA199000091AY101999GF100991001001999999001001MW1001REMSYN016WX    RETARD1800
0146874270999991973101812004-33467-067550FM-12+050499999V0201801N00261220001CN0500001N9+01801+99999999999ADDAA124000091AY101999GF199999999001000251091001KA1999N+01301MD1110101+9999MW1001REMSYN00570013EQDQ01+000002SCOTCVQ02+000002SCOTLCQ03 -03103ATOD  
0062874270999991973101818004-33467-067550FM-12+050499999V0209991C00001220001CN0500001N9+02701+00702999999ADDAY101999GF100991001001999999001001MW1001EQDQ01+028023ATOD  
0068874270999991973101823004-33467-067550FM-12+050499999V0209991C00001220001CN0500001N9+02801+00801999999ADDAA199000091AY101999GF100991001001999999001001MW1001REMSYN00570033
0058874270999991973101912004-33467-067550FM-12+050499999V0203601N00261220001CN0500001N9+02301+01201999999ADDAY101999GF100991001001999999001001MW1001REMSYN00670017-
0043874270999991973101918004-33467-067550FM-12+050499999V0203601N00101220001CN0200001N9+02801+00601999999ADDAY101999GF100991001001999999001001MW1001
0043874270999991973102009004-33467-067550FM-12+050499999V0209991C00001220001CN0100001N9+01701+00401999999ADDAY101999GF100991001001999999001001MW1001
0081874270999991973102013004-33467-067550FM-12+050499999V0203601N00261220001CN0500001N9+02101+01101999999ADDAA124000091AY101999GF100991001001999999001001KA1999N+01601MW1001REMSYN00570016
0092874270999991973102018004-33467-067550FM-12+050499999V0203601N00261220001CN0500001N9+03001+02401999999ADDAY101999GF100991001001999999001001MW1001REMSYN040SPL   1810  SAME  32/0/1/5    20    07.-
0133874270999991973102112004-33467-067550FM-12+050499999V0201401N00411220001CN0200001N9+01701+00901999999ADDAA124000091AY121999GA1071+002509049GF199999041011017501001001KA1999N+01501MW1011REMSYN02270015 87593 80914 65UWEQDQ01+000042SCOTCV
0068874270999991973102118004-33467-067550FM-12+050499999V0201401N00411004201CN0100001N9+01801+01401999999ADDAA199000091AY121999GF108991081071004501999999MW1031REMSYN005700//
0060874270999991973102123004-33467-067550FM-12+050499999V0201401N00411009001CN0200001N9+02001+01501999999ADDAY101999GF106991061081004501001001MW1011REMSYN008...15///
0081874270999991973102212004-33467-067550FM-12+050499999V0201401N00411002101CN0100001N9+00901+00701999999ADDAA124000091AY121999GF108991081071002501999999KA1999N+00801MW1021REMSYN00579708
0217874270999991973102218004-33467-067550FM-12+050499999V0201401N00261009601CN0100001N9+00901+00901999999ADDAA106003091AY151999GA1071+009609049GA2011+003009089GA3071+999999039GA4041+002709079GF108991999081012501021999MW1501REMSYN071797// 87532 81810 50506 12711 873// 11113 703// 84709 84  2 10-64881  4EQDQ01  00303PRCP99
0087874270999991973102223004-33467-067550FM-12+050499999V0209991C00001220001CN0500001N9+01001+00801999999ADDAA106001091AY111999GF100991001001999999001001MW1001REMSYN00570111EQDQ01  00103PRCP99
0043874270999991973102313004-33467-067550FM-12+050499999V0209991C00001220001CN0100001N9+00501+00301999999ADDAY101999GF100991001001999999001001MW1001
0068874270999991973102318004-33467-067550FM-12+050499999V0209991C00001220001CN0500001N9+02001+01001999999ADDAA199000091AY101999GF100991001001999999001001MW1001REMSYN005700//
0068874270999991973102323004-33467-067550FM-12+050499999V0203601N00211220001CN0500001N9+01901+01201999999ADDAA199000091AY101999GF100991001001999999001001MW1001REMSYN00570021
0095874270999991973102412004-33467-067550FM-12+050499999V0203601N00261220001CN0500001N9+01401+00901999999ADDAA124000091AY101999GF100991001001999999001001KA1999N+00501MD1110111+9999MW1001REMSYN00570005
0075874270999991973102418004-33467-067550FM-12+050499999V0203601N00261018001CN0200001N9+02301+00801999999ADDAY101999GF106991061081017501001001MW1031REMSYN023700///WX    RETARD1500Z
0068874270999991973102423004-33467-067550FM-12+050499999V0201401N00411007501CN0200001N9+01501+01101999999ADDAA199000091AY111999GF107991071071008001001001MW1011REMSYN00570023
0081874270999991973102512004-33467-067550FM-12+050499999V0202801N00261002101CN0100001N9+01001+00801999999ADDAA124000091AY121999GF108991081071002501999999KA1999N+00701MW1021REMSYN00579707
0068874270999991973102518004-33467-067550FM-12+050499999V0202301N00261220001CN0500001N9+01801+01101999999ADDAA199000091AY121999GF104991041081008001001001MW1021REMSYN005700//
0043874270999991973102523004-33467-067550FM-12+050499999V0202301N00261220001CN0200001N9+01801+01101999999ADDAY101999GF100991001001999999001001MW1021
0081874270999991973102612004-33467-067550FM-12+050499999V0209991C00001220001CN0500001N9+01201+00901999999ADDAA124000091AY101999GF100991001001999999001001KA1999N+00601MW1001REMSYN00570006
0053874270999991973102618004-33467-067550FM-12+050499999V0203601N00261220001CN0500001N9+02801+00801999999ADDAY101999GF100991001001999999001001MW1001REMSYN001-
0068874270999991973102718004-33467-067550FM-12+050499999V0209991C00001220001CN0500001N9+02801+01301999999ADDAA199000091AY101999GF100991001001999999001001MW1001REMSYN005700//
0068874270999991973102723004-33467-067550FM-12+050499999V0200501N00261220001CN0500001N9+02601+00901999999ADDAA199000091AY101999GF100991001001999999001001MW1001REMSYN00570029
0056874270999991973102823004-33467-067550FM-12+050499999V0201101N00411220001CN0500001N9+02101+01101999999ADDAY101999GF100991001001999999001001MW1001REMSYN004////
0081874270999991973102912004-33467-067550FM-12+050499999V0209991C00001220001CN0200001N9+01301+01001999999ADDAA124000091AY101999GF100991001001999999001001KA1999N+00701MW1001REMSYN00570007
0068874270999991973102923004-33467-067550FM-12+050499999V0209991C00001220001CN0500001N9+02401+00801999999ADDAA199000091AY101999GF100991001001999999001001MW1001REMSYN00570027
0081874270999991973103012004-33467-067550FM-12+050499999V0209991C00001220001CN0500001N9+01301+00801999999ADDAA124000091AY101999GF100991001001999999001001KA1999N+00801MW1001REMSYN00570008
0062874270999991973103018004-33467-067550FM-12+050499999V0201401N00671220001CN0500001N9+02301+00801999999ADDAY101999GF100991001001999999001001MW1001REMSYN0108..70 00//
0068874270999991973103023004-33467-067550FM-12+050499999V0201401N00671220001CN0200001N9+01801+01301999999ADDAA199000091AY101999GF100991001001999999001001MW1001REMSYN00570023
0081874270999991973103112004-33467-067550FM-12+050499999V0201401N00411220001CN0100001N9+00601+00301999999ADDAA124000091AY101999GF100991001001999999001001KA1999N+00601MW1031REMSYN00570006
0068874270999991973103123004-33467-067550FM-12+050499999V0201401N00411004201CN0200001N9+01401+00901999999ADDAA199000091AY121999GF106991061051004501001001MW1021REMSYN00570016
0081874270999991973110112004-33467-067550FM-12+050499999V0201801N00261220001CN0500001N9+00901+00601999999ADDAA124000091AY101999GF104991041001999999031001KA1999N+00601MW1001REMSYN00570006
0043874270999991973110115004-33467-067550FM-12+050499999V0201401N00261220001CN0500001N9+01401+00901999999ADDAY121999GF104991041001999999031001MW1021
0068874270999991973110118004-33467-067550FM-12+050499999V0201401N00261220001CN0500001N9+01801+01301999999ADDAA199000091AY121999GF106991041001999999031011MW1021REMSYN005700//
0068874270999991973110123004-33467-067550FM-12+050499999V0201401N00311220001CN0500001N9+01801+01001999999ADDAA199000091AY121999GF100991001001999999001001MW1001REMSYN00570018
0043874270999991973110209004-33467-067550FM-12+050499999V0209991C00001220001CN0200001N9+00401-00201999999ADDAY101999GF100991001001999999001001MW1001
0058874270999991973110212004-33467-067550FM-12+050499999V0209991C00001220001CN0500001N9+01101+00001999999ADDAY101999GF100991001001999999001001MW1001REMSYN006700003
0068874270999991973110218004-33467-067550FM-12+050499999V0203601N00261220001CN0500001N9+02501+01101999999ADDAA199000091AY101999GF100991001001999999001001MW1001REMSYN005700//
0068874270999991973110223004-33467-067550FM-12+050499999V0203601N00101220001CN0500001N9+02501+01101999999ADDAA199000091AY101999GF100991001001999999001001MW1001REMSYN00570026
0068874270999991973110318004-33467-067550FM-12+050499999V0201401N00671004201CN0040001N9+01501+01101999999ADDAA199000091AY131999GF108991081061004501999999MW1071REMSYN005700//
0081874270999991973110412004-33467-067550FM-12+050499999V0209991C00001220001CN0500001N9+01101+00001999999ADDAA124000091AY101999GF100991001001999999001001KA1999N+00501MW1001REMSYN00570005
0068874270999991973110423004-33467-067550FM-12+050499999V0203601N00101220001CN0500001N9+02501+00701999999ADDAA199000091AY101999GF100991001001999999001001MW1001REMSYN00570027
0081874270999991973110512004-33467-067550FM-12+050499999V0203601N00101220001CN0500001N9+01501+01001999999ADDAA124000091AY101999GF100991001001999999001001KA1999N+00901MW1001REMSYN00570009
0068874270999991973110612004-33467-067550FM-12+050499999V0201401N00261004201CN0200001N9+99999+99999999999ADDAA124000091AY121999GF106991061051004501001001MW1021REMSYN00570012
0068874270999991973110618004-33467-067550FM-12+050499999V0201401N00261220001CN0500001N9+01001-00501999999ADDAA199000091AY101999GF100991001001999999001001MW1001REMSYN005700//
0081874270999991973110712004-33467-067550FM-12+050499999V0201801N00261220001CN0200001N9+01301+00901999999ADDAA124000091AY101999GF104991041001999999031001KA1999N+00901MW1031REMSYN00570009
0068874270999991973110718004-33467-067550FM-12+050499999V0209991C00001220001CN0500001N9+02701+01601999999ADDAA199000091AY101999GF100991001001999999001001MW1001REMSYN005700//
0043874270999991973110812004-33467-067550FM-12+050499999V0201401N00411001201CN0040001N9+01201+01101999999ADDAY121999GF108991081071001501999999MW1021
0068874270999991973110818004-33467-067550FM-12+050499999V0201401N00411012001CN0500001N9+02001+00901999999ADDAA199000091AY121999GF108991081051012501999999MW1021REMSYN005700//
0100874270999991973110912004-33467-067550FM-12+050499999V0201401N00261001201CN0100001N9+01401+01401999999ADDAA124999999AY151999GF108991081061001501999999KA1999N+01401MW1201REMSYN00579714EQDQ01  00002PRCP24
0043874270999991973110915004-33467-067550FM-12+050499999V0201401N00261001201CN0100001N9+01501+01501999999ADDAY151999GF108991081061001501001999MW1521
0087874270999991973110918004-33467-067550FM-12+050499999V0201801N00261001201CN0100001N9+01701+01701999999ADDAA106003091AY151999GF108991081061001501999999MW1021REMSYN005703//EQDQ01  00303PRCP99
0087874270999991973110923004-33467-067550FM-12+050499999V0201801N00261001201CN0040001N9+01501+01401999999ADDAA106010091AY121999GF108991081061001501999999MW1631REMSYN00571017EQDQ01  01003PRCP99
0058874270999991973111118004-33467-067550FM-12+050499999V0200501N00101004201CN0200001N9+02001+01601999999ADDAY121999GF106991061051004501001001MW1011REMSYN006700///
0068874270999991973111218004-33467-067550FM-12+050499999V0201801N00101220001CN0500001N9+02101+01701999999ADDAA199000091AY101999GF104991041081008001001001MW1031REMSYN005700//
0068874270999991973111223004-33467-067550FM-12+050499999V0209991C00001220001CN0750001N9+02001+01701999999ADDAA199000091AY101999GF100991001001999999001001MW1001REMSYN00570022
0081874270999991973111312004-33467-067550FM-12+050499999V0209991C00001220001CN0500001N9+01501+01501999999ADDAA124002091AY181999GF104991041081001501001001KA1999N+01201MW1011REMSYN00570212
0068874270999991973111323004-33467-067550FM-12+050499999V0209991C00001220001CN0200001N9+02401+01401999999ADDAA199000091AY101999GF100991001001999999001001MW1001REMSYN00570026
0081874270999991973111412004-33467-067550FM-12+050499999V0203601N00101220001CN0500001N9+01901+01301999999ADDAA124000091AY101999GF100991001001999999001001KA1999N+01401MW1001REMSYN00570014
0080874270999991973111418004-33467-067550FM-12+050499999V0203601N00261220001CN0500001N9+02801+01501999999ADDAA199000091AY101999GF104991041081017501001001MW1031REMSYN017700// 405   S/QSO
0068874270999991973111423004-33467-067550FM-12+050499999V0209991C00001220001CN0500001N9+02701+01501999999ADDAA199000091AY121999GF104991041081017501001001MW1021REMSYN00570029
0081874270999991973111512004-33467-067550FM-12+050499999V0201801N00101220001CN0500001N9+01601+01201999999ADDAA124000091AY101999GF100991001001999999001001KA1999N+01301MW1001REMSYN00570013
0068874270999991973111518004-33467-067550FM-12+050499999V0209991C00001220001CN0500001N9+03001+01201999999ADDAA199000091AY101999GF100991001001999999001001MW1001REMSYN005700//
0064874270999991973111523004-33467-067550FM-12+050499999V0209991C00001220001CN0200001N9+03001+01701999999ADDAA199000091AY101999GF100991001001999999001001MW1031REMSYN001B
0043874270999991973111611004-33467-067550FM-12+050499999V0201801N00261220001CN0200001N9+01201+99999999999ADDAY101999GF100991001001999999001001MW1001
0081874270999991973111612004-33467-067550FM-12+050499999V0201801N00411220001CN0500001N9+01401+00901999999ADDAA124001091AY101999GF100991001001999999001001KA1999N+01101MW1001REMSYN00570111
0048874270999991973111618004-33467-067550FM-12+050499999V0201801N00261220001CN0500001N9+02201+00901999999ADDGF100991001001999999001001MW1001REMSYN004700X
0079874270999991973111718004-33467-067550FM-12+050499999V0203601N00261220001CN0500001N9+99999+99999999999ADDAA199000091AY101999GF100991001001999999001001MW1001REMSYN016700// KRETAR1500
0068874270999991973111723004-33467-067550FM-12+050499999V0203601N00101220001CN0500001N9+02401+01001999999ADDAA199000091AY101999GF100991001001999999001001MW1001REMSYN00570026
0081874270999991973111812004-33467-067550FM-12+050499999V0203601N00261220001CN0500001N9+01801+01501999999ADDAA124000091AY101999GF100991001001999999001001KA1999N+00901MW1001REMSYN00570009
0068874270999991973111823004-33467-067550FM-12+050499999V0209991C00001220001CN0500001N9+02801+00901999999ADDAA199000091AY101999GF100991001001999999001001MW1001REMSYN00570030
0105874270999991973111912004-33467-067550FM-12+050499999V0209991C00001220001CN0500001N9+01801+01301999999ADDAA124000091AY101999GF100991001001999999001001KA1999N+01301MW1001REMSYN02970013 .-    -?.   19120099987
0103874270999991973111918004-33467-067550FM-12+050499999V0200201N00261220001CN0200001N9+03201+00701999999ADDAA199000091AY101999GF101991011021017501001001MA1999999093611MD1710281+9999MW1031REMSYN01169361 700//
0068874270999991973111923004-33467-067550FM-12+050499999V0203601N00101220001CN0500001N9+03301+00901999999ADDAA199000091AY101999GF100991001001999999001001MW1001REMSYN00570034
0086874270999991973112218004-33467-067550FM-12+050499999V0209991C00001220001CN0500001N9+99999+99999999999ADDAA199000091AY101999GF100991999999999999999999MW1001REMSYN02312/// 700// DE    1500Z
0068874270999991973112223004-33467-067550FM-12+050499999V0209991C00001220001CN0500001N9+03301+00901999999ADDAA199000091AY101999GF100991001001999999001001MW1001REMSYN00570035
0043874270999991973112309004-33467-067550FM-12+050499999V0209991C00001220001CN0500001N9+02801+00901999999ADDAY101999GF100991001001999999001001MW1001
0133874270999991973112312004-33467-067550FM-12+050499999V0201401N00261220001CN0500001N9+02101+01301999999ADDAA124000091AY101999GF100991001001999999001001KA1999N+01801MW1001REMSYN05770018 400   -2-08 990-0 -9050 32500 58400 70053 PASOS CLR
0068874270999991973112323004-33467-067550FM-12+050499999V0201401N00411220001CN0500001N9+02301+00101999999ADDAA199000091AY101999GF100991001001999999001001MW1001REMSYN00570027
0043874270999991973112409004-33467-067550FM-12+050499999V0209991C00001220001CN0500001N9+00501+00401999999ADDAY101999GF100991001001999999001001MW1001
0068874270999991973112418004-33467-067550FM-12+050499999V0200901N00261220001CN0500001N9+02301+01101999999ADDAA199000091AY101999GF100991001001999999001001MW1001REMSYN005700//
0068874270999991973112423004-33467-067550FM-12+050499999V0202601N00261220001CN0500001N9+02201+00901999999ADDAA199000091AY101999GF100991001001999999001001MW1001REMSYN00570024
0081874270999991973112512004-33467-067550FM-12+050499999V0203601N00261220001CN0500001N9+01801+01101999999ADDAA124000091AY101999GF100991001001999999001001KA1999N+01001MW1001REMSYN00570010
0055874270999991973112518004-33467-067550FM-12+050499999V0200901N00101220001CN0500001N9+03201+01201999999ADDAY101999GF100991001001999999001001MW1001REMSYN003700
0068874270999991973112523004-33467-067550FM-12+050499999V0209991C00001220001CN0500001N9+02901+01001999999ADDAA199000091AY101999GF100991001001999999001001MW1001REMSYN00570033
0056874270999991973112609004-33467-067550FM-12+050499999V0201801N00411220001CN0500001N9+01501+00701999999ADDAY101999GF100991001001999999001001MW1001REMSYN0040600
0081874270999991973112612004-33467-067550FM-12+050499999V0201801N00411220001CN0500001N9+01801+00801999999ADDAA124000091AY101999GF100991001001999999001001KA1999N+01501MW1001REMSYN00570015
0068874270999991973112618004-33467-067550FM-12+050499999V0201801N00261220001CN0500001N9+02801+00601999999ADDAA199000091AY101999GF100991001001999999001001MW1001REMSYN005700//
0043874270999991973112623004-33467-067550FM-12+050499999V0201801N00261220001CN0500001N9+02701+00601999999ADDAY101999GF100991001001999999001001MW1001
0095874270999991973112712004-33467-067550FM-12+050499999V0209991C00001220001CN0500001N9+01501+00201999999ADDAA124000091AY101999GF100991001001999999001001KA1999N+00901MD1110111+9999MW1001REMSYN00570009
0068874270999991973112718004-33467-067550FM-12+050499999V0203601N00261220001CN0500001N9+02801+00501999999ADDAA199000091AY101999GF100991001001999999001001MW1001REMSYN005700//
0068874270999991973112723004-33467-067550FM-12+050499999V0209991C00001220001CN0500001N9+02901+01301999999ADDAA199000091AY101999GF100991001001999999001001MW1001REMSYN00570031
0081874270999991973112812004-33467-067550FM-12+050499999V0203601N00151220001CN0500001N9+02001+00901999999ADDAA124000091AY101999GF100991001001999999001001KA1999N+01401MW1001REMSYN00570014
0043874270999991973112911004-33467-067550FM-12+050499999V0209991C00001220001CN0500001N9+99999+99999999999ADDAY101999GF100991001001999999001001MW1001
0043874270999991973112918004-33467-067550FM-12+050499999V0201401N00261220001CN0500001N9+02901+01301999999ADDAY101999GF100991001001999999001001MW1001
0068874270999991973112923004-33467-067550FM-12+050499999V0201401N00411220001CN0500001N9+02901+01001999999ADDAA199000091AY101999GF100991001001999999001001MW1001REMSYN00570036
0081874270999991973113012004-33467-067550FM-12+050499999V0201401N00411220001CN0500001N9+01501+00301999999ADDAA124000091AY101999GF100991001001999999001001KA1999N+01301MW1001REMSYN00570013
0068874270999991973113019004-33467-067550FM-12+050499999V0201401N00261220001CN0500001N9+02501+01101999999ADDAA199000091AY101999GF100991001001999999001001MW1001REMSYN005700//
0088874270999991973113023004-33467-067550FM-12+050499999V0201401N00261220001CN0500001N9+02801+00901999999ADDAA199000091AY121999GF103991001001999999001031KA1999N+02501MW1021REMSYN01270025 GETARD
0068874270999991973120123004-33467-067550FM-12+050499999V0203601N00261220001CN0500001N9+03101+00501999999ADDAA199000091AY101999GF100991001001999999001001MW1001REMSYN00570031
0058874270999991973120212004-33467-067550FM-12+050499999V0203601N00261220001CN0500001N9+01701+00901999999ADDAY101999GF100991001001999999001001MW1001REMSYN006700038
0043874270999991973120218004-33467-067550FM-12+050499999V0203601N00261220001CN0500001N9+03301+99999999999ADDAY101999GF100991001001999999001001MW1001
0068874270999991973120223004-33467-067550FM-12+050499999V0200501N00261220001CN0500001N9+03101+01301999999ADDAA199000091AY101999GF100991001001999999001001MW1001REMSYN00570035
0043874270999991973120315004-33467-067550FM-12+050499999V0201401N00261220001CN0500001N9+02001+00901999999ADDAY101999GF100991001001999999001001MW1001
0068874270999991973120318004-33467-067550FM-12+050499999V0201401N00411220001CN0500001N9+02201+00701999999ADDAA199000091AY101999GF100991001001999999001001MW1001REMSYN005700//
0068874270999991973120323004-33467-067550FM-12+050499999V0201201N00411220001CN0500001N9+02001+00701999999ADDAA199000091AY101999GF100991001001999999001001MW1001REMSYN00570023
0081874270999991973120412004-33467-067550FM-12+050499999V0209991C00001220001CN0500001N9+01001+00801999999ADDAA124000091AY101999GF100991001001999999001001KA1999N+00901MW1001REMSYN00570009
0043874270999991973120423004-33467-067550FM-12+050499999V0201401N00101220001CN0500001N9+02401+01601999999ADDAY101999GF100991001001999999001001MW1001
0129874270999991973120512004-33467-067550FM-12+050499999V0209991C00001220001CN0500001N9+01401+99999999999ADDAA124000091AY101999GF100991001001999999001001KA1999N+00901MW1001REMSYN05370009 305   09029EEE    97000 47918 00900 11400 70010
0068874270999991973120518004-33467-067550FM-12+050499999V0209991C00001220001CN0500001N9+03001+01901999999ADDAA199000091AY101999GF100991001001999999001001MW1001REMSYN005700//
0081874270999991973120523004-33467-067550FM-12+050499999V0209991C00001220001CN0500001N9+03201+01301999999ADDAA199000091AY101999GF100991001001999999001001KA1999N+03101MW1001REMSYN00570031
0068874270999991973120618004-33467-067550FM-12+050499999V0201401N00411004201CN0100001N9+01401+01001999999ADDAA199000091AY121999GF108991081061004501999999MW1021REMSYN005700//
0043874270999991973120715004-33467-067550FM-12+050499999V0201401N00261220001CN0200001N9+02101+01301999999ADDAY121999GF100991001001999999001001MW1001
0079874270999991973120718004-33467-067550FM-12+050499999V0201801N00261220001CN0500001N9+02501+01401999999ADDAA106000091AA299999929AY101999GF100991001001999999001001MW1001REMSYN005797//
0081874270999991973120812004-33467-067550FM-12+050499999V0201601N00261220001CN0500001N9+01601+01201999999ADDAA124000091AY101999GF100991001001999999001001KA1999N+01001MW1001REMSYN00570010
0068874270999991973120823004-33467-067550FM-12+050499999V0209991C00001220001CN0500001N9+03001+00901999999ADDAA199000091AY101999GF100991001001999999001001MW1001REMSYN00570033
0081874270999991973120912004-33467-067550FM-12+050499999V0200501N00261220001CN0500001N9+02101+01301999999ADDAA124000091AY101999GF100991001001999999001001KA1999N+01701MW1001REMSYN00570017
0087874270999991973120918004-33467-067550FM-12+050499999V0203601N002619999999N0500001N9+03301+01101999999ADDAA199000091AY121999GF105991051081999999001001MW1011REMSYN005700//EQDQ01+000992SCOLCB
0074874270999991973120923004-33467-067550FM-12+050499999V0201401N00411220001CN0200001N9+03301+99999999999ADDAA199000091AY101999GF100991001001999999001001MW1001REMSYN01111/// 70034
0081874270999991973121012004-33467-067550FM-12+050499999V0201401N00261220001CN0500001N9+02001+01301999999ADDAA124000091AY101999GF100991001001999999001001KA1999N+01501MW1001REMSYN00570015
0068874270999991973121018004-33467-067550FM-12+050499999V0201401N00101220001CN0500001N9+03101+01301999999ADDAA199000091AY101999GF100991001001999999001001MW1001REMSYN005700//
0043874270999991973121019004-33467-067550FM-12+050499999V0201401N00261220001CN0500001N9+03001+01201999999ADDAY101999GF100991001001999999001001MW1001
0068874270999991973121023004-33467-067550FM-12+050499999V0201401N01031220001CN0500001N9+03001+01201999999ADDAA199000091AY101999GF100991001001999999001001MW1001REMSYN00570032
0043874270999991973121109004-33467-067550FM-12+050499999V0203601N00261220001CN0500001N9+01801+01301999999ADDAY101999GF100991001001999999001001MW1001
0081874270999991973121112004-33467-067550FM-12+050499999V0203601N00101220001CN0500001N9+02101+01401999999ADDAA124000091AY101999GF100991001001999999001001KA1999N+01801MW1001REMSYN00570018
0043874270999991973121115004-33467-067550FM-12+050499999V0203601N00411012001CN0500001N9+02501+01301999999ADDAY101999GF106991061081008001001001MW1031
0068874270999991973121118004-33467-067550FM-12+050499999V0200501N00411220001CN0500001N9+02801+01601999999ADDAA199000091AY121999GF104991041081012501001001MW1011REMSYN005700//
0068874270999991973121123004-33467-067550FM-12+050499999V0203601N00261220001CN0500001N9+02801+01501999999ADDAA199000091AY101999GF100991001001999999001001MW1001REMSYN00570029
