0086874360999991973010100004-33267-066350FM-12+0714SAUI V0201401N00411220001CN9999999N9+02501+01801999999ADDAY101999GF101991011021012501001001MA1999999092611MD1310121+9999MW1021REMSYN00510076
0086874360999991973010110004-33267-066350FM-12+0714SAUI V0203601N00411220001CN0400001N9+01901+01401999999ADDAY101999GF101991011081012501001001MA1999999092971MD1210091+9999MW1021REMSYN00510111
0086874360999991973010111004-33267-066350FM-12+0714SAUI V0201801N00671220001CN0400001N9+02201+01501999999ADDAY101999GF102991011081012501001031MA1999999093181MD1210251+9999MW1031REMSYN00510133
0086874360999991973010113004-33267-066350FM-12+0714SAUI V0202401N00671220001CN0400001N9+02401+01601999999ADDAY101999GF102991011081012501061001MA1999999093211MD1010161+9999MW1021REMSYN00510137
0086874360999991973010114004-33267-066350FM-12+0714SAUI V0201401N00671220001CN0400001N9+02601+01501999999ADDAY101999GF101991011021012501001001MA1999999093191MD1010011+9999MW1011REMSYN00510134
0086874360999991973010115004-33267-066350FM-12+0714SAUI V0201101N00411220001CN0400001N9+02801+01501999999ADDAY101999GF101991011021012501001001MA1999999093141MD1810111+9999MW1021REMSYN00510129
0077874360999991973010116004-33267-066350FM-12+0714SAUI V0201401N00411220001CN0400001N9+02801+01501999999ADDAY101999GF104991041081017501001001MD1810031+9999MW1031REMSYN01115811 10125
0071874360999991973010117004-33267-066350FM-12+0714SAUI V0209991C00001015001CN0400001N9+03001+01501999999ADDAY111999GF105991051081012501001001MD1710161+9999MW1031REMSYN00510117
0068874360999991973010118004-33267-066350FM-12+0714SAUI V0209991C00001015001CN0400001N9+03001+01601999999ADDAA199000091AY111999GF106991061081012501001001MD1710201+9999MW1031
0071874360999991973010119004-33267-066350FM-12+0714SAUI V0209991C00001015001CN0400001N9+03001+01601999999ADDAY121999GF105991051081012501001001MD1710231+9999MW1021REMSYN00510100
0114874360999991973010120004-33267-066350FM-12+0714SAUI V0200901N00411220001CN0400001N9+99999+99999999999ADDAY111999GF104991999061002501031011MW1011REMSYN01116  0 10096EQDQ01+000002SCOTLCQ02+000062APCTENQ03+000002APC3  
0071874360999991973010121004-33267-066350FM-12+0714SAUI V0201101N00411220001CN0400001N9+03101+01601999999ADDAY111999GF102991021081017501001001MD1110211+9999MW1011REMSYN00510085
0086874360999991973010122004-33267-066350FM-12+0714SAUI V0209999999999220001CN0400001N9+03101+01501999999ADDAY111999GF101991011081017501001001MA1999999092611MD1610161+9999MW1011REMSYN00510083
0086874360999991973010200004-33267-066350FM-12+0714SAUI V0209991C00001220001CN0400001N9+02701+01401999999ADDAY101999GF100991001001999999001001MA1999999092771MD1310041+9999MW1011REMSYN00510089
0072874360999991973010209004-33267-066350FM-12+0714SAUI V0203601N00771220001CN0300001N9+02401+01301999999ADDAY101999GF101991011021012501001001MA1999999092861MD1310031+9999MW1021
0086874360999991973010210004-33267-066350FM-12+0714SAUI V0203601N00411220001CN0300001N9+02201+01401999999ADDAY101999GF101991011081012501001001MA1999999092891MD1310051+9999MW1021REMSYN00510102
0086874360999991973010211004-33267-066350FM-12+0714SAUI V0203601N00411220001CN0400001N9+02401+01501999999ADDAY101999GF101991011081012501001001MA1999999092951MD1610151+9999MW1021REMSYN00510109
0095874360999991973010212004-33267-066350FM-12+0714SAUI V0201401N00411220001CN0400001N9+02501+01601999999ADDAA199000091AY101999GF101991011081012501001001KA1999N+02101MD1310281+9999MW1021REMSYN00510129
0086874360999991973010214004-33267-066350FM-12+0714SAUI V0201401N00771220001CN0400001N9+02701+01701999999ADDAY101999GF101991011081012501001001MA1999999093181MD1110231+9999MW1021REMSYN00510133
0086874360999991973010215004-33267-066350FM-12+0714SAUI V0201401N00771220001CN0400001N9+02801+01701999999ADDAY101999GF102991021081012501001001MA1999999093131MD1810011+9999MW1031REMSYN00510128
0098874360999991973010216004-33267-066350FM-12+0714SAUI V0201301N00971220001CN0400001N9+03001+02802999999ADDAY101999GF102991021081000251031031MW1021REMSYN01117809 10122EQDQ01+000062APCTENQ02+000002APC3  
0077874360999991973010217004-33267-066350FM-12+0714SAUI V0200201N00561220001CN0400001N9+99999+99999999999ADDAY101999GF100991001001999999001001MD1110071+9999MW1021REMSYN01110111 0****
0082874360999991973010218004-33267-066350FM-12+0714SAUI V0201101N01031220001CN0300001N9+03101+01801999999ADDAA199000091AY101999GF103991031081012501001001MD1710111+9999MW1021REMSYN00510117
0071874360999991973010219004-33267-066350FM-12+0714SAUI V0201101N00971012001CN0200001N9+03001+01801999999ADDAY111999GF107991051091012501001031MD1710201+9999MW1031REMSYN00510102
0082874360999991973010220004-33267-066350FM-12+0714SAUI V0201101N00971012001CN0180001N9+02801+01701999999ADDAA199001091AY111999GF107991061091012501001031MD1610171+9999MW1131REMSYN00570102
0090874360999991973010221004-33267-066350FM-12+0714SAUI V0200901N00971007501CN0130001N9+02301+01601999999ADDAY121999GF107991999091008001001001MD1510071+9999MW1171REMSYN00510109EQDQ01+000062SCOTLC
0105874360999991973010222004-33267-066350FM-12+0714SAUI V0201801N00461007501CN0100001N9+02001+01701999999ADDAY121999GF107991071091008001001001MA1999999999999MD1310331+9999MW1951REMSYN00510139EQDQ01 083223APOSP 
0138874360999991973010223004-33267-066350FM-12+0714SAUI V0201101N00971007501CN0120001N9+01901+01801999999ADDAA199001091AY191999GF107991999091008001001001MA1999999091542MD1010251+9999MW1951REMSYN01170131 10129EQDQ01+000062SCOTLCQ02+091543APOSP 
0071874360999991973010300004-33267-066350FM-12+0714SAUI V0200901N00561012001CN0300001N9+02101+01501999999ADDAY191999GF107991051091012501001031MD1810031+9999MW1911REMSYN00510107
0086874360999991973010309004-33267-066350FM-12+0714SAUI V0201401N00251220001CN0400001N9+01801+01201999999ADDAY101999GF100991001001999999001001MA1999999093131MD1610051+9999MW1021REMSYN00510128
0077874360999991973010310004-33267-066350FM-12+0714SAUI V0201301N00101220001CN0400001N9+01901+01301999999ADDAY101999GF100991001001999999001001MD1310161+9999MW1021REMSYN011931*7 10132
0076874360999991973010312004-33267-066350FM-12+0714SAUI V0203301N99999220001CN0400001N9+02301+01401999999ADDAY101999GF100991001001999999001001MD1310151+9999MW1021EQDQ01+003913WOSPD 
0087874360999991973010313004-33267-066350FM-12+0714SAUI V0203301N00511220001CN9999999N9+02501+01301999999ADDAY101999GF100991001001999999001001MA1999999093261MD1010081+9999MW1021REMSYN00610142^
0086874360999991973010314004-33267-066350FM-12+0714SAUI V0203301N00771220001CN0400001N9+02701+01201999999ADDAY101999GF100991001001999999001001MA1999999093211MD1010001+9999MW1021REMSYN00510137
0086874360999991973010315004-33267-066350FM-12+0714SAUI V0203301N00511220001CN0400001N9+02901+01201999999ADDAY101999GF100991001001999999001001MA1999999093141MD1810111+9999MW1021REMSYN00510129
0071874360999991973010316004-33267-066350FM-12+0714SAUI V0203601N00771220001CN0400001N9+03001+01201999999ADDAY101999GF101991011011017501001001MD1810201+9999MW1031REMSYN00510120
0071874360999991973010317004-33267-066350FM-12+0714SAUI V0203601N00671220001CN0400001N9+03201+01401999999ADDAY101999GF101991011011017501001001MD1710251+9999MW1021REMSYN00510109
0082874360999991973010318004-33267-066350FM-12+0714SAUI V0203601N00671220001CN0400001N9+03201+01301999999ADDAA199000091AY101999GF101991011011017501001001MD1710311+9999MW1021REMSYN00510098
0071874360999991973010319004-33267-066350FM-12+0714SAUI V0203601N00671220001CN0400001N9+03301+01301999999ADDAY101999GF101991011011017501001001MD1710311+9999MW1021REMSYN00510087
0071874360999991973010320004-33267-066350FM-12+0714SAUI V0203601N00671220001CN0400001N9+03301+01301999999ADDAY101999GF101991011011017501001001MD1710271+9999MW1021REMSYN00510079
0071874360999991973010321004-33267-066350FM-12+0714SAUI V0203601N00251220001CN0400001N9+03301+01401999999ADDAY101999GF101991011011017501001001MD1710281+9999MW1021REMSYN00510068
0086874360999991973010322004-33267-066350FM-12+0714SAUI V0203601N00251220001CN0400001N9+03301+01301999999ADDAY101999GF101991011031017501001001MA1999999092531MD1610211+9999MW1031REMSYN00510064
0103874360999991973010323004-33267-066350FM-12+0714SAUI V0203601N00511220001CN0400001N9+03101+01201999999ADDAA199000091AY101999GF101991011031017501001001MA1999999092531MD1610121+9999MW1031REMSYN01170034 10064
0086874360999991973010409004-33267-066350FM-12+0714SAUI V0203601N00671220001CN0300001N9+02101+01501999999ADDAY101999GF100991001001999999001001MA1999999092451MD1510001+9999MW1021REMSYN00510055
0086874360999991973010411004-33267-066350FM-12+0714SAUI V0203601N00771220001CN0300001N9+02301+01401999999ADDAY101999GF100991001001999999001001MA1999999092451MD1510001+9999MW1021REMSYN00510055
0110874360999991973010412004-33267-066350FM-12+0714SAUI V0209991C00001220001CN0300001N9+02501+01601999999ADDAA199000091AY101999GF101991011051017501001001KA1999N+02101MA1999999092571MD1310111+9999MW1021REMSYN00510068
0086874360999991973010413004-33267-066350FM-12+0714SAUI V0201401N00251220001CN0300001N9+02601+01601999999ADDAY101999GF101991011051017501001001MA1999999092581MD1110151+9999MW1021REMSYN00510069
0086874360999991973010414004-33267-066350FM-12+0714SAUI V0203401N00251220001CN0300001N9+02901+01501999999ADDAY101999GF101991011051017501001001MA1999999092511MD1010071+9999MW1021REMSYN00510062
0086874360999991973010415004-33267-066350FM-12+0714SAUI V0203201N00411220001CN0300001N9+02801+01401999999ADDAY101999GF100991001001999999001001MA1999999092511MD1610051+9999MW1011REMSYN00510062
0071874360999991973010416004-33267-066350FM-12+0714SAUI V0201501N00251220001CN0300001N9+02601+01601999999ADDAY101999GF101991011051017501001001MD1110151+9999MW1021REMSYN00510069
0071874360999991973010417004-33267-066350FM-12+0714SAUI V0203601N00411220001CN0400001N9+03001+01501999999ADDAY101999GF100991001001999999001001MD1710111+9999MW1021REMSYN00510048
0082874360999991973010418004-33267-066350FM-12+0714SAUI V0203601N00251220001CN0400001N9+03201+01401999999ADDAA199000091AY101999GF100991001001999999001001MD1710201+9999MW1021REMSYN00510042
0071874360999991973010419004-33267-066350FM-12+0714SAUI V0209991C00001220001CN0400001N9+03301+01501999999ADDAY101999GF100991001001999999001001MD1710281+9999MW1021REMSYN00510030
0071874360999991973010420004-33267-066350FM-12+0714SAUI V0203601N00101220001CN0400001N9+03401+01101999999ADDAY101999GF100991001001999999001001MD1710391+9999MW1021REMSYN00510021
0057874360999991973010421004-33267-066350FM-12+0714SAUI V0203401N00411220001CN0400001N9+03401+01001999999ADDAY101999GF100991001001999999001001MD1710321+9999MW1021
0086874360999991973010422004-33267-066350FM-12+0714SAUI V0203601N00101220001CN0400001N9+03401+01001999999ADDAY101999GF100991001001999999001001MA1999999091991MD1610231+9999MW1021REMSYN00510005
0103874360999991973010423004-33267-066350FM-12+0714SAUI V0203601N00251220001CN0400001N9+03201+01301999999ADDAA199000091AY101999GF100991001001999999001001MA1999999091991MD1610031+9999MW1021REMSYN01170035 1000*
0057874360999991973010500004-33267-066350FM-12+0714SAUI V0203601N00411220001CN0300001N9+02801+01601099801ADDAY101999GF100991001001999999001001MD1510031+9999MW1021
0086874360999991973010508004-33267-066350FM-12+0714SAUI V0201801N00411220001CN0400001N9+02401+01401999999ADDAY101999GF100991001001999999001001MA1999999092351MD1310201+9999MW1021REMSYN00510044
0086874360999991973010510004-33267-066350FM-12+0714SAUI V0201101N01751220001CN0300001N9+02201+00501999999ADDAY101999GF100991001001999999001001MA1999999092491MD1310351+9999MW1021REMSYN00510059
0086874360999991973010511004-33267-066350FM-12+0714SAUI V0201101N01341220001CN0300001N9+02201+00601999999ADDAY101999GF100991001001999999001001MA1999999092511MD1110171+9999MW1021REMSYN00510062
0110874360999991973010512004-33267-066350FM-12+0714SAUI V0201101N01341220001CN0300001N9+02301+00801999999ADDAA199000091AY101999GF100991001001999999001001KA1999N+02101MA1999999092621MD1110171+9999MW1021REMSYN00510073
0086874360999991973010513004-33267-066350FM-12+0714SAUI V0201101N01231220001CN0300001N9+02401+00801999999ADDAY101999GF100991001001999999001001MA1999999092661MD1110161+9999MW1021REMSYN00510073
0086874360999991973010514004-33267-066350FM-12+0714SAUI V0201101N01231220001CN0300001N9+02401+00801999999ADDAY101999GF100991001001999999001001MA1999999092691MD1110161+9999MW1021REMSYN00510080
0086874360999991973010515004-33267-066350FM-12+0714SAUI V0201101N01231220001CN0300001N9+02501+00501999999ADDAY101999GF100991001001999999001001MA1999999092691MD1110071+9999MW1021REMSYN00510080
0071874360999991973010516004-33267-066350FM-12+0714SAUI V0201101N01181220001CN0300001N9+02701+00601999999ADDAY101999GF100991001001999999001001MD1110031+9999MW1021REMSYN00510080
0071874360999991973010517004-33267-066350FM-12+0714SAUI V0201101N01181220001CN0200001N9+02701+00501999999ADDAY101999GF100991001001999999001001MD1810091+9999MW1021REMSYN00510072
0082874360999991973010518004-33267-066350FM-12+0714SAUI V0201101N00611220001CN0200001N9+02801+00601999999ADDAA199000091AY101999GF100991001001999999001001MD1810121+9999MW1021REMSYN00510078
0071874360999991973010520004-33267-066350FM-12+0714SAUI V0201101N01031220001CN0200001N9+02901+00601999999ADDAY101999GF100991001001999999001001MD1610161+9999MW1021REMSYN00510053
0071874360999991973010521004-33267-066350FM-12+0714SAUI V0201101N01181220001CN0200001N9+02701+00501999999ADDAY101999GF100991001001999999001001MD1610151+9999MW1021REMSYN00510052
0086874360999991973010522004-33267-066350FM-12+0714SAUI V0201101N01181220001CN0200001N9+02701+00501999999ADDAY101999GF100991001001999999001001MA1999999092421MD1610151+9999MW1021REMSYN00510052
0086874360999991973010600004-33267-066350FM-12+0714SAUI V0201101N01541220001CN0200001N9+02301+00301100301ADDAY101999GF100991001001999999001001MA1999999092461MD1310031+9999MW1021REMSYN00510057
0086874360999991973010609004-33267-066350FM-12+0714SAUI V0200901N00101220001CN0200001N9+01801+00801999999ADDAY101999GF101991001001999999001051MA1999999092571MD1310011+9999MW1021REMSYN00510078
0086874360999991973010610004-33267-066350FM-12+0714SAUI V0200301N00101220001CN0300001N9+01801+00901999999ADDAY101999GF102991021081017501001001MA1999999092491MD1810071+9999MW1031REMSYN00510059
0086874360999991973010611004-33267-066350FM-12+0714SAUI V0203301N00561220001CN0300001N9+02201+00801999999ADDAY101999GF102991021081017501001001MA1999999092511MD1510031+9999MW1021REMSYN00510072
0110874360999991973010612004-33267-066350FM-12+0714SAUI V0203601N00771220001CN0300001N9+02701+00901999999ADDAA199000091AY101999GF102991021081017501001001KA1999N+01701MA1999999092591MD1310031+9999MW1021REMSYN00510070
0086874360999991973010613004-33267-066350FM-12+0714SAUI V0203301N01031220001CN0300001N9+02701+00801999999ADDAY101999GF102991021051017501001001MA1999999092481MD1010001+9999MW1021REMSYN00510059
0086874360999991973010614004-33267-066350FM-12+0714SAUI V0203301N01031220001CN0300001N9+02801+00901999999ADDAY101999GF101991011051017501001001MA1999999092381MD1810071+9999MW1021REMSYN00510059
0086874360999991973010615004-33267-066350FM-12+0714SAUI V0203301N01181220001CN0300001N9+02901+01001999999ADDAY101999GF101991011051017501001001MA1999999092441MD1810151+9999MW1021REMSYN00510053
0071874360999991973010616004-33267-066350FM-12+0714SAUI V0203401N01341220001CN0300001N9+03001+01001999999ADDAY101999GF101991011051017501001001MD1610091+9999MW1021REMSYN00510059
0068874360999991973010618004-33267-066350FM-12+0714SAUI V0203601N01231220001CN0250001N9+03101+01101999999ADDAA199000091AY101999GF100991001001999999001001MD1810231+9999MW1011
0071874360999991973010620004-33267-066350FM-12+0714SAUI V0203601N00771220001CN0250001N9+03301+01201999999ADDAY101999GF100991001001999999001001MD1710311+9999MW1021REMSYN00510009
0063874360999991973010621004-33267-066350FM-12+0714SAUI V0203401N00771220001CN0250001N9+99999+99999999999ADDAY101999GF100991999999999999999999MW1021REMSYN01112724 10004
0086874360999991973010622004-33267-066350FM-12+0714SAUI V0202401N00511220001CN0250001N9+03301+01201999999ADDAY101999GF100991001001999999001001MA1999999091981MD1610151+9999MW1021REMSYN00510004
0103874360999991973010623004-33267-066350FM-12+0714SAUI V0203401N00411220001CN0250001N9+03201+01201999999ADDAA199000091AY101999GF100991001001999999001001MA1999999092021MD1510001+9999MW1021REMSYN01170034 10009
0086874360999991973010710004-33267-066350FM-12+0714SAUI V0201101N01031220001CN0250001N9+02201+00001999999ADDAY101999GF100991001001999999001001MA1999999092581MD1310161+9999MW1021REMSYN00510069
0086874360999991973010711004-33267-066350FM-12+0714SAUI V0201101N01231220001CN0250001N9+02001+00101999999ADDAY101999GF100991001001999999001001MA1999999092691MD1310231+9999MW1021REMSYN00510080
0110874360999991973010712004-33267-066350FM-12+0714SAUI V0201101N01391220001CN0200001N9+01901+00001999999ADDAA199000091AY101999GF100991001001999999001001KA1999N+01901MA1999999092781MD1310281+9999MW1051REMSYN00510090
0071874360999991973010713004-33267-066350FM-12+0714SAUI V0201101N01541220001CN0150001N9+02001+00001999999ADDAY101999GF100991001001999999001001MD1110201+9999MW1051REMSYN00510090
0086874360999991973010714004-33267-066350FM-12+0714SAUI V0201101N01541220001CN0150001N9+02201+00001999999ADDAY101999GF100991001001999999001001MA1999999092821MD1110131+9999MW1051REMSYN00510095
0086874360999991973010715004-33267-066350FM-12+0714SAUI V0201101N01231220001CN0150001N9+02401+00201999999ADDAY101999GF100991001001999999001001MA1999999092951MD1110071+9999MW1051REMSYN00510098
0096874360999991973010716004-33267-066350FM-12+0714SAUI V0201101N01341220001CN0200001N9+02501-01202999999ADDAY101999GF100991001001999999001001MD1010001+9999MW1051REMSYN01152004 10095EQDQ01+026123ATOD  
0082874360999991973010718004-33267-066350FM-12+0714SAUI V0201101N01231220001CN0300001N9+02801-00401999999ADDAA199000091AY101999GF100991001001999999001001MD1310071+9999MW1021REMSYN00510090
0086874360999991973010719004-33267-066350FM-12+0714SAUI V0201101N01031220001CN0300001N9+02801-00601999999ADDAY101999GF100991001001999999001001MA1999999092741MD1610081+9999MW1021REMSYN00510086
0071874360999991973010720004-33267-066350FM-12+0714SAUI V0201101N00921220001CN0300001N9+99999+99999999999ADDAY101999GF100991001001999999001001MD1810171+9999MW1021REMSYN00510083
0071874360999991973010721004-33267-066350FM-12+0714SAUI V0201101N00971220001CN0300001N9+02701-00201999999ADDAY101999GF101991011051017501001001MD1610081+9999MW1031REMSYN00510082
0086874360999991973010722004-33267-066350FM-12+0714SAUI V0201101N01031220001CN0300001N9+02601-00301999999ADDAY101999GF101991011051017501001001MA1999999092671MD1310071+9999MW1021REMSYN00510078
0103874360999991973010723004-33267-066350FM-12+0714SAUI V0201101N01391220001CN0300001N9+02601-00301999999ADDAA199000091AY101999GF101991011051017501001001MA1999999092671MD1610041+9999MW1021REMSYN01170029 10078
0086874360999991973010800004-33267-066350FM-12+0714SAUI V0201101N01131220001CN0300001N9+02401-00501100701ADDAY101999GF101991011051017501001001MA1999999092781MD1310081+9999MW1021REMSYN00510090
0086874360999991973010808004-33267-066350FM-12+0714SAUI V0200901N00411220001CN0300001N9+02301-01001999999ADDAY101999GF102991021051017501001001MA1999999092911MD1510041+9999MW1031REMSYN00510105
0086874360999991973010809004-33267-066350FM-12+0714SAUI V0200901N00411220001CN0300001N9+02201-00701999999ADDAY101999GF104991031051017501071001MA1999999092941MD1310051+9999MW1031REMSYN00510108
0086874360999991973010810004-33267-066350FM-12+0714SAUI V0200501N00251220001CN0300001N9+02001-00401999999ADDAY111999GF103991021051017501071001MA1999999093011MD1310131+9999MW1011REMSYN00510115
0110874360999991973010812004-33267-066350FM-12+0714SAUI V0203301N00251220001CN0300001N9+02501+00301999999ADDAA199000091AY101999GF101991011051017501001001KA1999N+01901MA1999999093051MD1110111+9999MW1021REMSYN00510119
0086874360999991973010813004-33267-066350FM-12+0714SAUI V0203201N00921220001CN0300001N9+02601+00001999999ADDAY101999GF100991001001999999001001MA1999999093051MD1110051+9999MW1011REMSYN00510119
0086874360999991973010814004-33267-066350FM-12+0714SAUI V0203401N01031220001CN0300001N9+02601+00101999999ADDAY101999GF100991001001999999001001MA1999999092981MD1810051+9999MW1021REMSYN00510112
0086874360999991973010815004-33267-066350FM-12+0714SAUI V0203401N01031220001CN0250001N9+02701+00001999999ADDAY101999GF101991011001999999041001MA1999999092951MD1810091+9999MW1031REMSYN00510109
0071874360999991973010816004-33267-066350FM-12+0714SAUI V0203401N01031220001CN0250001N9+02801+00301999999ADDAY101999GF101991011001999999041001MD1610091+9999MW1021REMSYN00510100
0071874360999991973010817004-33267-066350FM-12+0714SAUI V0209999999999220001CN9999999N9+02901+00301999999ADDAY101999GF100991001001999999001001MD1710131+9999MW1071REMSYN00510098
0068874360999991973010818004-33267-066350FM-12+0714SAUI V0203601N00671220001CN0200001N9+03101+00301999999ADDAA199000091AY101999GF100991001001999999001001MD1710171+9999MW1021
0071874360999991973010819004-33267-066350FM-12+0714SAUI V0203601N00671220001CN0200001N9+03101+00301999999ADDAY101999GF100991001001999999001001MD1710291+9999MW1021REMSYN00510077
0071874360999991973010820004-33267-066350FM-12+0714SAUI V0203301N00461220001CN0300001N9+03101+00401999999ADDAY101999GF100991001001999999001001MD1710241+9999MW1021REMSYN00510072
0086874360999991973010821004-33267-066350FM-12+0714SAUI V0203301N00411220001CN0200001N9+03101+00401999999ADDAY101999GF100991001001999999001001MA1999999092531MD1710231+9999MW1021REMSYN00510063
0111874360999991973010822004-33267-066350FM-12+0714SAUI V0203301N00411220001CN0100001N9+03101+99999999999ADDAY101999GF100991001001999999001001MA1999999092511MD1610131+9999MW1021REMSYN01103*** 10062EQDQ01+030123ATOD  
0109874360999991973010823004-33267-066350FM-12+0714SAUI V0203601N00251220001CN0200001N9+03001+00601999999ADDAA199000091AY101999GF100991001001999999001001MA1999999092511MD1610081+9999MW1021REMSYN01770032 10062 9****
0086874360999991973010900004-33267-066350FM-12+0714SAUI V0209991C00001220001CN0200001N9+02801+00601999999ADDAY101999GF100991001001999999001001MA1999999092521MD1610071+9999MW1021REMSYN00510072
0086874360999991973010909004-33267-066350FM-12+0714SAUI V0203301N00561220001CN0200001N9+02001+00301999999ADDAY101999GF100991001001999999001001MA1999999092531MD1610031+9999MW1021REMSYN00510073
0086874360999991973010910004-33267-066350FM-12+0714SAUI V0203601N00511220001CN0200001N9+01901+00401999999ADDAY101999GF100991001001999999001001MA1999999092611MD1310051+9999MW1021REMSYN00510072
0086874360999991973010911004-33267-066350FM-12+0714SAUI V0203301N00671220001CN0200001N9+02201+00701999999ADDAY101999GF100991001001999999001001MA1999999092611MD1110071+9999MW1021REMSYN00510067
0081874360999991973010912004-33267-066350FM-12+0714SAUI V0203601N00771220001CN0200001N9+02501+00801999999ADDAA199000091AY101999GF100991001001999999001001KA1999N+01901MD1110071+9999MW1021
0086874360999991973010913004-33267-066350FM-12+0714SAUI V0203301N01031220001CN0200001N9+02701+00801999999ADDAY101999GF100991001001999999001001MA1999999092581MD1810031+9999MW1021REMSYN00510079
0086874360999991973010914004-33267-066350FM-12+0714SAUI V0203301N01031220001CN0200001N9+02901+00801999999ADDAY101999GF100991001001999999001001MA1999999092551MD1810051+9999MW1021REMSYN00510077
0086874360999991973010915004-33267-066350FM-12+0714SAUI V0203301N00771220001CN0200001N9+99999+99999999999ADDAY101999GF100991001001999999001001MA1999999092531MD1610111+9999MW1021REMSYN00510063
0071874360999991973010916004-33267-066350FM-12+0714SAUI V0203601N00771220001CN0200001N9+03101+00901999999ADDAY101999GF100991001001999999001001MD1810081+9999MW1021REMSYN00510059
0086874360999991973010917004-33267-066350FM-12+0714SAUI V0203401N00411220001CN0200001N9+03201+01001999999ADDAY101999GF101991001001999999001051MA1999999092421MD1710131+9999MW1031REMSYN00510052
0068874360999991973010918004-33267-066350FM-12+0714SAUI V0203401N00251220001CN0300001N9+03301+01201999999ADDAA199000091AY101999GF101991001001999999001051MD1710191+9999MW1021
0071874360999991973010919004-33267-066350FM-12+0714SAUI V0202701N00101220001CN0200001N9+03401+01101999999ADDAY101999GF101991001001999999001051MD1710251+9999MW1021REMSYN00510033
0077874360999991973010920004-33267-066350FM-12+0714SAUI V0202301N00101220001CN0200001N9+03401+01001999999ADDAY101999GF102991001001999999001051MD1210331+9999MW1031REMSYN01110727 10025
0071874360999991973010921004-33267-066350FM-12+0714SAUI V0201401N00101220001CN0200001N9+03501+01001999999ADDAY101999GF102991001001999999001051MD1710241+9999MW1021REMSYN00510019
0086874360999991973010922004-33267-066350FM-12+0714SAUI V0201101N00411220001CN0200001N9+03401+01101999999ADDAY101999GF102991001001999999001051MA1999999092091MD1610161+9999MW1021REMSYN00510016
0086874360999991973011000004-33267-066350FM-12+0714SAUI V0201401N00101220001CN0200001N9+03001+01201999999ADDAY101999GF102991001001999999001051MA1999999092171MD1310051+9999MW1021REMSYN00510025
0086874360999991973011002004-33267-066350FM-12+0714SAUI V0200501N00251220001CN0200001N9+02601+01001999999ADDAY101999GF103991001001999999001051MA1999999092301MD1310191+9999MW1021REMSYN00510039
0086874360999991973011009004-33267-066350FM-12+0714SAUI V0200501N00251090001CN0200001N9+02201+01601999999ADDAY111999GF107991041001999999071061MA1999999092331MD1310041+9999MW1031REMSYN00510042
0086874360999991973011010004-33267-066350FM-12+0714SAUI V0200201N00101090001CN0250001N9+02301+01701999999ADDAY121999GF107991041001999999071061MA1999999092421MD1310131+9999MW1021REMSYN00510052
0086874360999991973011011004-33267-066350FM-12+0714SAUI V0209991C00001090001CN0250001N9+02401+01901999999ADDAY121999GF107991031001999999071061MA1999999092461MD1310171+9999MW1011REMSYN00510056
0081874360999991973011012004-33267-066350FM-12+0714SAUI V0203601N00511090001CN0300001N9+02701+01901999999ADDAA199000091AY121999GF107991031001999999071061KA1999N+02201MD1110151+9999MW1021
0086874360999991973011013004-33267-066350FM-12+0714SAUI V0203601N00671090001CN0300001N9+02801+01901999999ADDAY121999GF107991031001999999071061MA1999999092451MD1010041+9999MW1021REMSYN00510055
0078874360999991973011014004-33267-066350FM-12+0714SAUI V0203601N00511036001CN0300001N9+02901+01801999999ADDGF107991011011012501071061MA1999999092471MD1310011+9999MW1031REMSYN00510057
0086874360999991973011015004-33267-066350FM-12+0714SAUI V0203601N00511090001CN0300001N9+03101+01801999999ADDAY121999GF107991011011012501001061MA1999999092421MD1810051+9999MW1011REMSYN00510052
0086874360999991973011016004-33267-066350FM-12+0714SAUI V0203601N00251220001CN0300001N9+03201+01801999999ADDAY121999GF106991021011012501001061MA1999999092381MD1810081+9999MW1031REMSYN00510047
0071874360999991973011017004-33267-066350FM-12+0714SAUI V0203601N00101220001CN0300001N9+03401+01601999999ADDAY111999GF104991021011012501001021MD1810251+9999MW1021REMSYN00510033
0088874360999991973011018004-33267-066350FM-12+0714SAUI V0209991C00001220001CN0300001N9+03401+01701999999ADDAA199000091AY111999GF104991031081012501001021MD1710271+9999MW1031REMSYN01179215 10023
0071874360999991973011019004-33267-066350FM-12+0714SAUI V0209991C00001220001CN0300001N9+03501+01601999999ADDAY111999GF104991041081012501001001MD1710281+9999MW1031REMSYN00510018
0077874360999991973011020004-33267-066350FM-12+0714SAUI V0209991C00001015001CN0300001N9+03501+01501999999ADDAY111999GF105991051081012501001001MD1710211+9999MW1031REMSYN0111001* 0****
0071874360999991973011021004-33267-066350FM-12+0714SAUI V0201401N00101220001CN0300001N9+03501+01401999999ADDAY111999GF104991041081012501001001MD1610161+9999MW1021REMSYN00510005
0105874360999991973011100004-33267-066350FM-12+0714SAUI V0201401N00671220001CN0300001N9+03201+01401999999ADDAY101999GF101991011081017501001001MA1999999999999MD1310211+9999MW1021REMSYN00510029EQDQ01 089123APOSP 
0086874360999991973011109004-33267-066350FM-12+0714SAUI V0201401N00671220001CN0300001N9+02401+01701999999ADDAY101999GF102991021081017501001001MA1999999092441MD1310071+9999MW1031REMSYN00510054
0071874360999991973011110004-33267-066350FM-12+0714SAUI V0201101N00771220001CN0300001N9+02301+01801999999ADDAY101999GF103991031081017501001001MD1310071+9999MW1031REMSYN00510056
0086874360999991973011111004-33267-066350FM-12+0714SAUI V0201101N00511220001CN0300001N9+02401+01801999999ADDAY101999GF103991999999999999999999MA1999999092461MD1110051+9999MW1021REMSYN00510056
0100874360999991973011112004-33267-066350FM-12+0714SAUI V0201401N99999220001CN0300001N9+02601+01901999999ADDAA199000091AY101999GF104991041081017501001001KA1999N+02301MD1310081+9999MW1031EQDQ01+004123WOSPD 
0086874360999991973011113004-33267-066350FM-12+0714SAUI V0201401N00101018001CN0300001N9+02901+02001999999ADDAY111999GF105991051081017501001001MA1999999092551MD1310081+9999MW1031REMSYN00510066
0086874360999991973011115004-33267-066350FM-12+0714SAUI V0203601N00251015001CN0300001N9+03301+01901999999ADDAY121999GF106991061091017501001001MA1999999092491MD1810031+9999MW1031REMSYN00510059
0071874360999991973011116004-33267-066350FM-12+0714SAUI V0201101N00511018001CN0300001N9+03501+02001999999ADDAY121999GF107991071081017501001001MD1810171+9999MW1021REMSYN00510039
0071874360999991973011117004-33267-066350FM-12+0714SAUI V0201201N00461015001CN0300001N9+02702+02201999999ADDAY181999GF107991071081012501001001MD1710201+9999MW1251REMSYN00510033
0082874360999991973011118004-33267-066350FM-12+0714SAUI V0201101N00971015001CN0300001N9+03101+02201999999ADDAA199000091AY181999GF107991071081012501001001MD1710271+9999MW1021REMSYN00510038
0071874360999991973011119004-33267-066350FM-12+0714SAUI V0201101N00921015001CN0300001N9+03301+02101999999ADDAY121999GF106991061081012501001001MD1710291+9999MW1021REMSYN00510036
0071874360999991973011120004-33267-066350FM-12+0714SAUI V0201101N00971015001CN0300001N9+03101+02201999999ADDAY121999GF105991051081012501001001MD1610131+9999MW1011REMSYN00510030
0086874360999991973011122004-33267-066350FM-12+0714SAUI V0201101N00971220001CN0300001N9+03201+02201999999ADDAY111999GF101991011021017501001001MA1999999092151MD1610071+9999MW1011REMSYN00510022
0103874360999991973011123004-33267-066350FM-12+0714SAUI V0201101N00611220001CN0300001N9+03101+02201999999ADDAA199000091AY111999GF101991011021017501001001MA1999999092151MD1610051+9999MW1011REMSYN01170035 10023
0086874360999991973011200004-33267-066350FM-12+0714SAUI V0201101N00511220001CN0300001N9+03001+02101999999ADDAY101999GF101991011031017501001001MA1999999092221MD1310051+9999MW1031REMSYN00510030
0086874360999991973011201004-33267-066350FM-12+0714SAUI V0201101N00461220001CN0300001N9+02901+02001999999ADDAY101999GF103991031091012501001001MA1999999092271MD1310121+9999MW1131REMSYN00510032
0086874360999991973011202004-33267-066350FM-12+0714SAUI V0200901N00561012001CN0300001N9+03001+02001999999ADDAY111999GF105991051091012501001001MA1999999092371MD1210211+9999MW1131REMSYN00510036
0086874360999991973011208004-33267-066350FM-12+0714SAUI V0201601N00971015001CN0200001N9+02301+01701999999ADDAY121999GF107991071091017501001001MA1999999092441MD1210151+9999MW1171REMSYN00510050
0086874360999991973011209004-33267-066350FM-12+0714SAUI V0201101N00611018001CN0200001N9+02301+01801999999ADDAY121999GF107991071081017501001001MA1999999092461MD1210201+9999MW1171REMSYN00510057
0137874360999991973011210004-33267-066350FM-12+0714SAUI V0201101N00511015001CN0300001N9+02201+01701999999ADDAY121999GA1031+015009099GA2041+015009059GF107991071081017501999001MA1999999092531MD1110161+9999MW1131REMSYN00510073EQDQ01    003SCOMCG
0088874360999991973011211004-33267-066350FM-12+0714SAUI V0201101N01341015001CN0300001N9+02201+01801999999ADDAA199000291AY121999GF108991081081012501999999MD1110151+9999MW1031REMSYN01179259 10070
0110874360999991973011212004-33267-066350FM-12+0714SAUI V0201101N01031015001CN0300001N9+02201+01701999999ADDAA199005091AY121999GF108991081081012501999999KA1999N+02101MA1999999092711MD1310241+9999MW1021REMSYN00510083
0088874360999991973011213004-33267-066350FM-12+0714SAUI V0201101N01341012001CN0300001N9+02201+01601999999ADDAA199000291AY121999GF108991081081008001999999MD1310211+9999MW1021REMSYN01179275 10087
0086874360999991973011214004-33267-066350FM-12+0714SAUI V0201101N01541012001CN0300001N9+02001+01401999999ADDAY121999GF108991081081008001999999MA1999999092701MD1010111+9999MW1021REMSYN00510082
0086874360999991973011215004-33267-066350FM-12+0714SAUI V0201101N01541012001CN0300001N9+01501+01301999999ADDAY181999GF108991081081008001999999MA1999999092751MD1210041+9999MW1251REMSYN00510087
0095874360999991973011216004-33267-066350FM-12+0714SAUI V0201101N01541010201CN0200001N9+01601+99999999999ADDAY181999GA1031+008109099GA2051+010209059GF108991081081012501999999MW1951REMSYN01112805 10082
0087874360999991973011217004-33267-066350FM-12+0714SAUI V0201101N01541015001CN0250001N9+01601+01101999999ADDAY191999GA1011+012009099GF107991071081012501001001MD1310071+9999MW1911REMSYN00510089
0068874360999991973011218004-33267-066350FM-12+0714SAUI V0201101N01901015001CN0300001N9+99999+99999999999ADDAA199006091AY191999GF107991071081012501001001MD1810071+9999MW1021
0071874360999991973011219004-33267-066350FM-12+0714SAUI V0201101N01701012001CN0300001N9+02101+01001999999ADDAY121999GF107991061091012501061001MD1810091+9999MW1011REMSYN00510072
0090874360999991973011220004-33267-066350FM-12+0714SAUI V0201101N017019999999N0300001N9+02201+01101999999ADDAY121999GF107991999081012501001001MD1710321+9999MW1011REMSYN00510054EQDQ01+000022SCOTLC
0071874360999991973011221004-33267-066350FM-12+0714SAUI V0201101N01541220001CN0300001N9+02201+00901999999ADDAY111999GF103991011081012501071001MD1710291+9999MW1011REMSYN00510048
0086874360999991973011222004-33267-066350FM-12+0714SAUI V0201101N01801036001CN0300001N9+02101+00801999999ADDAY111999GF106991041081017501071001MA1999999092461MD1710131+9999MW1031REMSYN00510056
0103874360999991973011223004-33267-066350FM-12+0714SAUI V0201101N01901018001CN0300001N9+02001+00801999999ADDAA199000091AY121999GF106991061081017501071001MA1999999092571MD1210121+9999MW1031REMSYN01170022 10062
0086874360999991973011301004-33267-066350FM-12+0714SAUI V0201101N01231012001CN0150001N9+01801+01201999999ADDAY121999GF108991081091012501999999MA1999999092711MD1310241+9999MW1951REMSYN00510083
0086874360999991973011302004-33267-066350FM-12+0714SAUI V0201101N01231012001CN0150001N9+01601+01301999999ADDAY191999GF108991081091012501999999MA1999999092741MD1110171+9999MW1951REMSYN00510086
0118874360999991973011305004-33267-066350FM-12+0714SAUI V0201101N01281012001CN0300001N9+01601+01201999999ADDAY191999GA1051+012009099GA2031+015009059GF108991081091012501999999MA1999999092711MD1810031+9999MW1171REMSYN00510092
0118874360999991973011307004-33267-066350FM-12+0714SAUI V0201101N00921015001CN0300001N9+01701+01301999999ADDAY191999GA1031+012009099GA2051+015009059GF108991999999999999999999MA1999999092591MD1610231+9999MW1131REMSYN00510070
0102874360999991973011308004-33267-066350FM-12+0714SAUI V0209991C00001015001CN0300001N9+01701+01501999999ADDAY121999GA1011+012009099GF108991081081012501999999MA1999999092611MD1510111+9999MW1131REMSYN00510072
0086874360999991973011310004-33267-066350FM-12+0714SAUI V0209991C00001015001CN0250001N9+01801+01601999999ADDAY121999GF108991051081012501071999MA1999999092651MD1310051+9999MW1011REMSYN00510076
0086874360999991973011311004-33267-066350FM-12+0714SAUI V0203601N00251002101CN0150001N9+01601+01501999999ADDAY121999GF108991061061002501071999MA1999999092751MD1310151+9999MW1101REMSYN00510087
0107874360999991973011313004-33267-066350FM-12+0714SAUI V0203401N00251036001CN0300001N9+01701+01501999999ADDAA199020091AY121999GF107991011061002501071061MD1210171+9999MW1011REMSYN01172015 10093EQDQ01+091803APOSP 
0071874360999991973011314004-33267-066350FM-12+0714SAUI V0203401N00251007501CN0300001N9+02101+01601999999ADDAY121999GF106991051051008001001061MD1110041+9999MW1031REMSYN00510101
0087874360999991973011315004-33267-066350FM-12+0714SAUI V0209991C00001007501CN0300001N9+02201+01701999999ADDAY121999GF107991071051008001001001MA1999999092901MD1410001+9999MW1031REMSYN00610093^
0087874360999991973011316004-33267-066350FM-12+0714SAUI V0201401N00411007501CN0300001N9+02001+01701999999ADDAY121999GA1011+003009079GF107991071051008001001001MD1810041+9999MW1021REMSYN00510087
0071874360999991973011317004-33267-066350FM-12+0714SAUI V0201401N00671012001CN0300001N9+02101+01701999999ADDAY121999GF107991071081008001001001MD1810071+9999MW1021REMSYN00510087
0068874360999991973011318004-33267-066350FM-12+0714SAUI V0201401N00671220001CN0300001N9+02301+01801100631ADDAA199000091AY111999GF102991021081012501001001MD1810081+9999MW1011
0071874360999991973011319004-33267-066350FM-12+0714SAUI V0201401N00411220001CN0300001N9+02201+01701999999ADDAY111999GF101991011081012501001001MD1610111+9999MW1011REMSYN00510076
0086874360999991973011320004-33267-066350FM-12+0714SAUI V0201401N00921220001CN0300001N9+02201+01701999999ADDAY101999GF101991011051008001001001MA1999999092611MD1610121+9999MW1021REMSYN00510072
0086874360999991973011321004-33267-066350FM-12+0714SAUI V0201401N00921220001CN0300001N9+02101+01701999999ADDAY101999GF101991011051008001001001MA1999999092611MD1610111+9999MW1021REMSYN00510072
0086874360999991973011322004-33267-066350FM-12+0714SAUI V0201101N01231220001CN0300001N9+01801+01501999999ADDAY101999GF101991011051004501001001MA1999999092691MD1610141+9999MW1021REMSYN00510080
0103874360999991973011323004-33267-066350FM-12+0714SAUI V0201101N00921220001CN0200001N9+01901+01501999999ADDAA199000091AY101999GF101991011061002501001001MA1999999092711MD1310111+9999MW1021REMSYN01170024 10083
0057874360999991973011400004-33267-066350FM-12+0714SAUI V0201401N01231220001CN0300001N9+01601+01301100941ADDAY101999GF103991031061002501001001MD1210211+9999MW1031
0146874360999991973011406004-33267-066350FM-12+0714SAUI V0201401N01231220001CN0200001N9+99999+99999999999ADDAA199000091AY101999GF102991011031999999011031MA1999999093371MW1021REMSYN01711213 10153 14070EQDQ01+000992SCOLCBQ02+000032APCTENQ03+000002APC3  
0092874360999991973011414004-33267-066350FM-12+0714SAUI V0201401N01031002101CN0300001N9+01601-01501999999ADDAY121999GF106991051031002501031031MA1999999093681MD1510001+9999MW1011REMSYN01110000 10197
0138874360999991973011415004-33267-066350FM-12+0714SAUI V0201601N00971001501CN0130001N9+01301+01202999999ADDAA199000291AY151999GA1071+001509079GF107991071061001501001001MA1999999093811MD1210291+9999MW1501REMSYN01179312 10201EQDQ01+028523ATOD  
0078874360999991973011416004-33267-066350FM-12+0714SAUI V0202301N01281220001CN9999999N9+99999+99999999999ADDGF103991011071000251021001MA1999999093781MD1510001+9999REMSYN01111607 10191
0071874360999991973011417004-33267-066350FM-12+0714SAUI V0201301N01081220001CN0300001N9+02001+01001999999ADDAY111999GF102991021051008001001001MD1810091+9999MW1021REMSYN00510182
0088874360999991973011418004-33267-066350FM-12+0714SAUI V0201401N01231220001CN0300001N9+02101+01001999999ADDAA199999929AY111999GF101991011011008001001001MD1810091+9999MW1011REMSYN01170333 018*8
0071874360999991973011419004-33267-066350FM-12+0714SAUI V0201401N01231220001CN0300001N9+99999+99999999999ADDAY101999GF101991011051008001001001MD1010001+9999MW1021REMSYN00510181
0086874360999991973011420004-33267-066350FM-12+0714SAUI V0201401N00921220001CN0300001N9+02201+01101999999ADDAY101999GF101991011051008001001001MA1999999093611MD1610121+9999MW1021REMSYN00510179
0071874360999991973011421004-33267-066350FM-12+0714SAUI V0201801N00771220001CN0300001N9+02101+01001999999ADDAY101999GF101991011051008001001001MD1810131+9999MW1021REMSYN0051017*
0086874360999991973011422004-33267-066350FM-12+0714SAUI V0201301N00561220001CN0300001N9+02101+01001999999ADDAY101999GF100991001001999999001001MA1999999093551MD1610081+9999MW1011REMSYN00510173
0103874360999991973011423004-33267-066350FM-12+0714SAUI V0201301N00511220001CN0300001N9+02001+01001999999ADDAA199000091AY101999GF100991001001999999001001MA1999999093451MD1610051+9999MW1021REMSYN01170022 10182
0086874360999991973011500004-33267-066350FM-12+0714SAUI V0201301N00511220001CN0300001N9+01901+00901999999ADDAY101999GF100991001001999999001001MA1999999093671MD1310121+9999MW1021REMSYN00510185
0086874360999991973011510004-33267-066350FM-12+0714SAUI V0200701N00101220001CN0300001N9+01201+00701999999ADDAY101999GF100991001001999999001001MA1999999093591MD1610011+9999MW1021REMSYN00510177
0086874360999991973011511004-33267-066350FM-12+0714SAUI V0209991C00001220001CN0300001N9+01301+01001999999ADDAY101999GF100991001001999999001001MA1999999093651MD1310041+9999MW1021REMSYN00510183
0081874360999991973011512004-33267-066350FM-12+0714SAUI V0200201N00461220001CN0300001N9+02001+01001999999ADDAA199999929AY101999GF100991001001999999001001KA1999N+01101MD1110051+9999MW1021
0086874360999991973011513004-33267-066350FM-12+0714SAUI V0203301N00101220001CN0300001N9+02201+00901999999ADDAY101999GF100991001001999999001001MA1999999093651MD1110051+9999MW1021REMSYN00510182
0086874360999991973011514004-33267-066350FM-12+0714SAUI V0203301N00151220001CN0300001N9+02301+00901999999ADDAY101999GF100991001001999999001001MA1999999093581MD1810071+9999MW1021REMSYN00510177
0086874360999991973011515004-33267-066350FM-12+0714SAUI V0203301N00461220001CN0400001N9+02701+00901999999ADDAY101999GF100991001001999999001001MA1999999093541MD1810111+9999MW1021REMSYN00510172
0071874360999991973011516004-33267-066350FM-12+0714SAUI V0203201N00251220001CN0400001N9+02601+00901999999ADDAY101999GF100991001001999999001001MD1810191+9999MW1021REMSYN00510163
0071874360999991973011517004-33267-066350FM-12+0714SAUI V0203601N00051220001CN0400001N9+02801+00901999999ADDAY101999GF100991001001999999001001MD1710251+9999MW1021REMSYN00510146
0082874360999991973011518004-33267-066350FM-12+0714SAUI V0203201N00101220001CN0400001N9+02901+01001999999ADDAA199000091AY101999GF100991001001999999001001MD1810281+9999MW1021REMSYN00510142
0071874360999991973011519004-33267-066350FM-12+0714SAUI V0201401N00251220001CN0400001N9+03001+01201999999ADDAY101999GF100991001001999999001001MD1710291+9999MW1021REMSYN00510132
0077874360999991973011520004-33267-066350FM-12+0714SAUI V0201401N00251220001CN0400001N9+03001+01101999999ADDAY101999GF100991001001999999001001MD1710331+9999MW1021REMSYN01111729 10118
0071874360999991973011521004-33267-066350FM-12+0714SAUI V0201401N00251220001CN0400001N9+03001+01201999999ADDAY101999GF100991001001999999001001MD1710351+9999MW1021REMSYN00510105
0103874360999991973011523004-33267-066350FM-12+0714SAUI V0200901N00101220001CN0400001N9+02901+01301999999ADDAA199000091AY101999GF100991001001999999001001MA1999999092901MD1610131+9999MW1021REMSYN01170030 10104
0086874360999991973011600004-33267-066350FM-12+0714SAUI V0200901N00101220001CN0400001N9+02601+01201999999ADDAY101999GF100991001001999999001001MA1999999092931MD1310011+9999MW1021REMSYN00510107
0086874360999991973011609004-33267-066350FM-12+0714SAUI V0203601N00411220001CN0400001N9+02001+01001999999ADDAY101999GF100991001001999999001001MA1999999092801MD1610111+9999MW1011REMSYN00510093
0086874360999991973011610004-33267-066350FM-12+0714SAUI V0203601N00771220001CN0400001N9+01901+01101999999ADDAY101999GF100991001001999999001001MA1999999092881MD1610111+9999MW1021REMSYN00510093
0086874360999991973011611004-33267-066350FM-12+0714SAUI V0203601N00921220001CN0400001N9+02001+01101999999ADDAY101999GF100991001001999999001001MA1999999092811MD1510031+9999MW1021REMSYN00510094
0110874360999991973011612004-33267-066350FM-12+0714SAUI V0203601N00921220001CN0400001N9+02201+01201999999ADDAA199000091AY101999GF100991001001999999001001KA1999N+01801MA1999999092851MD1310051+9999MW1021REMSYN00510098
0086874360999991973011613004-33267-066350FM-12+0714SAUI V0203601N01031220001CN0400001N9+02401+01201999999ADDAY101999GF100991001001999999001001MA1999999092891MD1310091+9999MW1021REMSYN00510102
0153874360999991973011614004-33267-066350FM-12+0714SAUI V0203601N01231220001CN0400001N9+02501+01201999999ADDAY101999GA1071+010209049GF199999999001999999001001MA1999999092871MD1110081+9999MW1021REMSYN00510100EQDQ01+000002SCOTCVQ02+000002SCOTLCQ03+000992SCOLCB
0086874360999991973011615004-33267-066350FM-12+0714SAUI V0203401N01231220001CN0400001N9+02701+01301999999ADDAY101999GF100991001001999999001001MA1999999092821MD1810031+9999MW1021REMSYN00510095
0086874360999991973011616004-33267-066350FM-12+0714SAUI V0203401N01031220001CN0400001N9+02801+01401999999ADDAY101999GF100991001001999999001001MA1999999092771MD1810111+9999MW1021REMSYN00510089
0071874360999991973011617004-33267-066350FM-12+0714SAUI V0203401N00671220001CN0400001N9+03001+01501999999ADDAY101999GF100991001001999999001001MD1810171+9999MW1021REMSYN00510083
0082874360999991973011618004-33267-066350FM-12+0714SAUI V0203401N00511220001CN0400001N9+03101+01501999999ADDAA199000091AY101999GF101991011011012501001001MD1710171+9999MW1031REMSYN00510076
0071874360999991973011619004-33267-066350FM-12+0714SAUI V0209991C00001220001CN0400001N9+03201+01601999999ADDAY101999GF101991011011012501001001MD1710201+9999MW1021REMSYN00510068
0071874360999991973011620004-33267-066350FM-12+0714SAUI V0201401N00251220001CN0400001N9+03201+01601999999ADDAY101999GF100991001001999999001001MD1710241+9999MW1011REMSYN00510056
0071874360999991973011621004-33267-066350FM-12+0714SAUI V0201401N00251220001CN0400001N9+03401+01701999999ADDAY101999GF100991001001999999001001MD1710211+9999MW1021REMSYN00510052
0078874360999991973011622004-33267-066350FM-12+0714SAUI V0201401N00251220001CN0400001N9+99999+99999999999ADDAY101999GF100991999999999999999999MA1999999092391MW1021REMSYN01117717 10048
0103874360999991973011623004-33267-066350FM-12+0714SAUI V0201801N00101220001CN0400001N9+03101+01701999999ADDAA199000091AY101999GF100991001001999999001001MA1999999092431MD1510041+9999MW1021REMSYN01170033 10054
0086874360999991973011700004-33267-066350FM-12+0714SAUI V0203401N00101220001CN0400001N9+02901+01601999999ADDAY101999GF101991011081017501001001MA1999999092571MD1310131+9999MW1031REMSYN00510168
0103874360999991973011706004-33267-066350FM-12+0714SAUI V0203601N00671220001CN0400001N9+02401+01701999999ADDAA199000091AY101999GF100991001001999999001001MA1999999092611MD1810071+9999MW1021REMSYN01110072 1708*
0086874360999991973011709004-33267-066350FM-12+0714SAUI V0201401N00251220001CN0400001N9+02101+01601999999ADDAY101999GF101991011051017501001001MA1999999092741MD1310131+9999MW1031REMSYN00510086
0086874360999991973011710004-33267-066350FM-12+0714SAUI V0201401N00251220001CN0400001N9+02101+01801999999ADDAY101999GF101991999999999999999999MA1999999092911MD1210281+9999MW1031REMSYN00510105
0086874360999991973011711004-33267-066350FM-12+0714SAUI V0201101N00411220001CN0400001N9+02001+01701999999ADDAY101999GF102991021081012501001001MA1999999092991MD1210321+9999MW1021REMSYN00510115
0081874360999991973011712004-33267-066350FM-12+0714SAUI V0201101N00671220001CN0400001N9+02301+01701999999ADDAA199000091AY101999GF103991031081012501001001KA1999N+02001MD1210311+9999MW1031
0086874360999991973011713004-33267-066350FM-12+0714SAUI V0201101N00511220001CN0400001N9+02501+01801999999ADDAY101999GF103991031081012501001001MA1999999093051MD1110131+9999MW1021REMSYN00510119
0086874360999991973011714004-33267-066350FM-12+0714SAUI V0201601N00251220001CN0400001N9+02701+01701999999ADDAY101999GF103991031071012501001001MA1999999093041MD1010051+9999MW1021REMSYN00510117
0086874360999991973011715004-33267-066350FM-12+0714SAUI V0201801N00101015001CN0400001N9+02801+01701999999ADDAY101999GF106991061081012501001001MA1999999093031MD1610011+9999MW1031REMSYN00510117
0086874360999991973011716004-33267-066350FM-12+0714SAUI V0202001N00251015001CN0400001N9+02801+01801999999ADDAY111999GF105991051081012501001001MA1999999093011MD1810041+9999MW1001REMSYN00510111
0068874360999991973011718004-33267-066350FM-12+0714SAUI V0200901N00101220001CN0400001N9+03201+01701999999ADDAA199000091AY111999GF103991031071012501001001MD1710191+9999MW1011
0086874360999991973011721004-33267-066350FM-12+0714SAUI V0201101N00671220001CN0400001N9+03201+01801999999ADDAY101999GF101991011081017501001001MA1999999092701MD1610151+9999MW1011REMSYN00510082
0092874360999991973011722004-33267-066350FM-12+0714SAUI V0201101N00611220001CN0400001N9+03201+01801999999ADDAY101999GF101991011051017501001001MA1999999092701MD1610071+9999MW1011REMSYN0111333* 10082
0103874360999991973011723004-33267-066350FM-12+0714SAUI V0201101N00611220001CN0400001N9+03001+01701999999ADDAA199000091AY101999GF101991011041017501001001MA1999999092741MD1310011+9999MW1011REMSYN01170033 10087
0086874360999991973011800004-33267-066350FM-12+0714SAUI V0201201N00561220001CN0400001N9+02801+01501999999ADDAY101999GF101991011041017501001001MA1999999092831MD1210131+9999MW1021REMSYN00510097
0092874360999991973011809004-33267-066350FM-12+0714SAUI V0201301N00611012001CN0300001N9+01801+00901999999ADDAY191999GF107991071091012501001001MA1999999092871MD1010131+9999MW1911REMSYN0111011* 1****
0137874360999991973011810004-33267-066350FM-12+0714SAUI V0201301N00921012001CN0300001N9+02001+01601999999ADDAY191999GA1051+012009099GA2021+015009059GF107991071091012501999001MA1999999092891MD1010031+9999MW1171REMSYN00510102EQDQ01    003SCOMCG
0118874360999991973011811004-33267-066350FM-12+0714SAUI V0201301N00921009901CN0300001N9+02101+01601999999ADDAY191999GA1051+009909089GA2031+015009059GF108991081091012501999999MA1999999092911MD1510121+9999MW1131REMSYN00510102
0142874360999991973011812004-33267-066350FM-12+0714SAUI V0201301N00921015001CN0400001N9+02001+01401999999ADDAA199008091AY191999GA1041+010209099GA2041+015009059GF108991081091012501999999KA1999N+01701MA1999999092981MD1310011+9999MW1131REMSYN00510112
0086874360999991973011813004-33267-066350FM-12+0714SAUI V0201801N00971012001CN0040001N9+01801+01601999999ADDAY121999GF108991081091012501999999MA1999999093071MD1310191+9999MW1951REMSYN00510121
0169874360999991973011814004-33267-066350FM-12+0714SAUI V0201301N00611015001CN0400001N9+01901+01801999999ADDAY191999GA1041+010209099GA2031+015009059GF107991999091012501999001MA1999999094032MD1010111+9999MW1911REMSYN00510117EQDQ01+000062SCOTLCQ02+094033APOSP Q03    003SCOMCG
0071874360999991973011820004-33267-066350FM-12+0714SAUI V0201401N00671220001CN0400001N9+02801+01801999999ADDAY111999GF101991011081012501001001MD1710111+9999MW1021REMSYN00510102
0071874360999991973011821004-33267-066350FM-12+0714SAUI V0201401N00671220001CN0400001N9+02701+00802999999ADDAY111999GF101991011081012501001001MD1610091+9999MW1021REMSYN00510099
0086874360999991973011822004-33267-066350FM-12+0714SAUI V0201101N00921220001CN0400001N9+02501+01501999999ADDAY101999GF101991011081012501001001MA1999999092851MD1610051+9999MW1021REMSYN00510098
0122874360999991973011823004-33267-066350FM-12+0714SAUI V0201401N01231220001CN0400001N9+02401+99999999999ADDAA199000091AY101999GF101991011001999999071001MA1999999092871MD1710502+9999MW1011REMSYN01170028 10072EQDQ01+000502APC3  
0086874360999991973012000004-33267-066350FM-12+0714SAUI V0201101N01231220001CN0300001N9+02401+99999999999ADDAY101999GF100991001001999999001001MA1999999096221MD1310301+9999MW1021REMSYN00510138
0086874360999991973012009004-33267-066350FM-12+0714SAUI V0209991C00001090001CN0300001N9+01901+00901999999ADDAY111999GF107991001001999999001061MA1999999093102MD1610051+9999MW1021REMSYN00510125
0086874360999991973012010004-33267-066350FM-12+0714SAUI V0200201N00411090001CN0300001N9+01901+01101999999ADDAY121999GF107991011001999999071061MA1999999093101MD1310031+9999MW1021REMSYN00510133
0086874360999991973012011004-33267-066350FM-12+0714SAUI V0203601N00671090001CN0300001N9+02201+01301999999ADDAY121999GF107991011001999999071061MA1999999093181MD1110081+9999MW1021REMSYN00510133
0110874360999991973012012004-33267-066350FM-12+0714SAUI V0203601N00671090001CN0300001N9+02401+01301999999ADDAA199000091AY111999GF107991011001999999071061KA1999N+01701MA1999999093181MD1110081+9999MW1021REMSYN00510133
0071874360999991973012013004-33267-066350FM-12+0714SAUI V0203601N00921090001CN0300001N9+02601+01301999999ADDAY121999GF107991001001999999001061MD1810031+9999MW1021REMSYN00510130
0091874360999991973012014004-33267-066350FM-12+0714SAUI V0203001N010319999999N0000001N9+02701+01401999999ADDGF107991999001999999001061MA1999999093141MD1810041+9999REMSYN00510129EQDQ01+000222PRSWM1
0121874360999991973012015004-33267-066350FM-12+0714SAUI V0200501N00101220001CN0300001N9+99999+99999999999ADDAY111999GF104991001001999999001061MA1999999999999MD1610081+9999MW1031REMSYN00510115EQDQ01+096103APOSP Q02 096103APOSP 
0071874360999991973012017004-33267-066350FM-12+0714SAUI V0200301N00101090001CN0300001N9+03001+01401999999ADDAY121999GF107991021011017501001061MD1710131+9999MW1031REMSYN00510112
0082874360999991973012018004-33267-066350FM-12+0714SAUI V0201301N00101090001CN0300001N9+03101+01401999999ADDAA199000091AY121999GF106991021021017501001051MD1710261+9999MW1031REMSYN00510103
0071874360999991973012020004-33267-066350FM-12+0714SAUI V0201101N00411220001CN0300001N9+03201+01401999999ADDAY121999GF105991031081012501001061MD1710271+9999MW1011REMSYN00510086
0071874360999991973012021004-33267-066350FM-12+0714SAUI V0201101N00511220001CN0300001N9+03201+01401999999ADDAY121999GF103991021081017501001021MD1710251+9999MW1011REMSYN00510077
0086874360999991973012022004-33267-066350FM-12+0714SAUI V0201101N00411220001CN0300001N9+03001+01601999999ADDAY111999GF101991011081012501001001MA1999999092591MD1710231+9999MW1011REMSYN00510070
0103874360999991973012023004-33267-066350FM-12+0714SAUI V0200901N00411220001CN0300001N9+02901+01601999999ADDAA199000091AY111999GF101991011081012501001001MA1999999092591MD1610151+9999MW1021REMSYN01170032 10087
0086874360999991973012100004-33267-066350FM-12+0714SAUI V0200901N00461220001CN0300001N9+02701+01701999999ADDAY101999GF101991011081012501001001MA1999999092591MD1610071+9999MW1021REMSYN00510071
0092874360999991973012103004-33267-066350FM-12+0714SAUI V0200201N00151220001CN0300001N9+02201+01601999999ADDAY101999GF100991999999999999999999MA1999999092611MD1010071+9999MW1021REMSYN01110072 21040
0097874360999991973012106004-33267-066350FM-12+0714SAUI V0203301N00561220001CN0300001N9+02201+01201999999ADDAA199000091AY101999GF100991001001999999001001MA1999999092511MD1710131+9999MW1021REMSYN00510062
0086874360999991973012107004-33267-066350FM-12+0714SAUI V0203301N00611220001CN0300001N9+02201+01301999999ADDAY101999GF100991001001999999001001MA1999999092511MD1610091+9999MW1021REMSYN00510072
0096874360999991973012108004-33267-066350FM-12+0714SAUI V0209991C00001220001CN0300001N9+99999+99999999999ADDAY101999GF100991001001999999001001MD1310041+9999MW1011REMSYN01110073 21020EQDQ01+093633APOSP 
0092874360999991973012109004-33267-066350FM-12+0714SAUI V0203301N00461220001CN0200001N9+02201+01201999999ADDAY101999GF102991021081012501001001MA1999999092501MD1610011+9999MW1031REMSYN01110733 10071
0086874360999991973012110004-33267-066350FM-12+0714SAUI V0203301N00411220001CN0300001N9+02101+01101999999ADDAY101999GF102991021081012501001001MA1999999092511MD1510001+9999MW1021REMSYN00510062
0105874360999991973012111004-33267-066350FM-12+0714SAUI V0200301N00151220001CN0400001N9+02201+99999999999ADDAY101999GF102991021081012501001001MA1999999092631MD1310111+9999MW1021REMSYN00510072EQDQ01+029323ATOD  
0081874360999991973012112004-33267-066350FM-12+0714SAUI V0203301N00101220001CN0400001N9+02301+01201999999ADDAA199000091AY101999GF102991021081012501001001KA1999N+02101MD1110131+9999MW1021
0086874360999991973012113004-33267-066350FM-12+0714SAUI V0203601N00671220001CN0300001N9+02701+01101999999ADDAY101999GF101991011081012501001001MA1999999092621MD1010091+9999MW1211REMSYN00510072
0086874360999991973012114004-33267-066350FM-12+0714SAUI V0203601N00671220001CN0400001N9+02901+01001999999ADDAY101999GF101991011081012501001001MA1999999092621MD1610011+9999MW1021REMSYN00510073
0086874360999991973012115004-33267-066350FM-12+0714SAUI V0203601N00251220001CN0400001N9+03001+01201999999ADDAY101999GF100991001001999999001001MA1999999092581MD1810051+9999MW1011REMSYN00510069
0071874360999991973012116004-33267-066350FM-12+0714SAUI V0209999999999220001CN0400001N9+03201+01301999999ADDAY101999GF100991001001999999001001MD1810111+9999MW1021REMSYN00510061
0071874360999991973012117004-33267-066350FM-12+0714SAUI V0209991C00001220001CN0300001N9+03301+01201999999ADDAY101999GF101991011021017501001001MD1810211+9999MW1031REMSYN0051005*
0087874360999991973012118004-33267-066350FM-12+0714SAUI V0209991C000019999999N0400001N9+03301+01101999999ADDAA199999999AY101999GF199999021081017501001021MD1710271+9999MW1631EQDQ01  00002PRCP99
0071874360999991973012119004-33267-066350FM-12+0714SAUI V0209991C00001090001CN0400001N9+03401+01501999999ADDAY111999GF106991031081012501001021MD1710271+9999MW1031REMSYN00510333
0071874360999991973012120004-33267-066350FM-12+0714SAUI V0209991C00001015001CN0300001N9+03501+01301999999ADDAY121999GF107991051081012501001021MD1610231+9999MW1031REMSYN00510025
0090874360999991973012121004-33267-066350FM-12+0714SAUI V0201401N00411012001CN0200001N9+03201+01601999999ADDAY121999GF107991999081008001001001MD1610201+9999MW1171REMSYN00510011EQDQ01+000062SCOTLC
0103874360999991973012123004-33267-066350FM-12+0714SAUI V0209991C00001012001CN0300001N9+02401+01701999999ADDAA199999999AY121999GF107991051091012501061001MA1999999092411MD1210241+9999MW1021REMSYN01179  5 10051
0086874360999991973012200004-33267-066350FM-12+0714SAUI V0200901N00411220001CN0300001N9+02201+01601999999ADDAY111999GF104991041081012501001001MA1999999092311MD1210201+9999MW1011REMSYN00510040
0071874360999991973012209004-33267-066350FM-12+0714SAUI V0203601N00671015001CN0300001N9+02301+01301999999ADDAY121999GF107991071081012501001001MD1310071+9999MW1021REMSYN00510062
0086874360999991973012210004-33267-066350FM-12+0714SAUI V0203601N00511015001CN0300001N9+02201+01401999999ADDAY121999GF106991061081012501061001MA1999999092551MD1310131+9999MW1011REMSYN00510063
0086874360999991973012211004-33267-066350FM-12+0714SAUI V0202701N00251015001CN0300001N9+02201+01401999999ADDAY121999GF106991061081012501001001MA1999999092631MD1310191+9999MW1021REMSYN00510074
0110874360999991973012212004-33267-066350FM-12+0714SAUI V0202301N00101015001CN0300001N9+02201+01601999999ADDAA199999999AY121999GF105991051081012501001001KA1999N+02101MA1999999092671MD1110151+9999MW1011REMSYN00510078
0071874360999991973012213004-33267-066350FM-12+0714SAUI V0202701N00251220001CN0400001N9+02501+01601999999ADDAY111999GF103991031081012501001001MD1010071+9999MW1011REMSYN00510072
0086874360999991973012214004-33267-066350FM-12+0714SAUI V0203201N00511220001CN0300001N9+02701+01601999999ADDAY111999GF103991031081012501001001MA1999999092551MD1810081+9999MW1031REMSYN00510066
0086874360999991973012215004-33267-066350FM-12+0714SAUI V0203201N00511220001CN0400001N9+02701+01601999999ADDAY111999GF103991031081012501001001MA1999999092551MD1810081+9999MW1021REMSYN00510066
0071874360999991973012216004-33267-066350FM-12+0714SAUI V0203201N00511015001CN0400001N9+02901+01601999999ADDAY111999GF105991051081012501001001MD1810171+9999MW1031REMSYN00510054
0106874360999991973012217004-33267-066350FM-12+0714SAUI V0203601N00671015001CN0400001N9+03201+01601999999ADDAY101999GA1001+999999999GF105991051081012501001001MD1710171+9999MW1021REMSYN0051004*EQDQ01+093283APOSP 
0068874360999991973012218004-33267-066350FM-12+0714SAUI V0203601N00671018001CN0400001N9+03201+01601999999ADDAA199000091AY121999GF105991051081017501001001MD1710161+9999MW1021
0086874360999991973012220004-33267-066350FM-12+0714SAUI V0203601N00251018001CN0400001N9+03101+01401999999ADDAY121999GF105991051081017501001001MA1999999092151MD1710231+9999MW1021REMSYN00510023
0115874360999991973012221004-33267-066350FM-12+0714SAUI V0201101N00411015001CN0400001N9+02202+01801100061ADDAY151999GA1021+018009099GF106991061081012501001001MA1999999092231MD1510071+9999REMSYN00510031EQDQ01+000222PRSWM1
0102874360999991973012222004-33267-066350FM-12+0714SAUI V0201101N00411018001CN0400001N9+02601+02101999999ADDAY121999GA1021+018009099GF105991051081017501001001MA1999999092071MD1810131+9999MW1021REMSYN00510014
0103874360999991973012223004-33267-066350FM-12+0714SAUI V0200501N00411220001CN0400001N9+02601+01801999999ADDAA199007091AY181999GF104991041081017501001001MA1999999092251MD1510001+9999MW1011REMSYN01170733 10023
0086874360999991973012300004-33267-066350FM-12+0714SAUI V0201101N00771220001CN0400001N9+02501+01701999999ADDAY111999GF104991041081017501001001MA1999999092151MD1110051+9999MW1021REMSYN00510023
0086874360999991973012301004-33267-066350FM-12+0714SAUI V0201101N00921015001CN0300001N9+02201+01901999999ADDAY181999GF105991051091017501001001MA1999999092251MD1310171+9999MW1251REMSYN00510035
0086874360999991973012302004-33267-066350FM-12+0714SAUI V0201401N00411220001CN0300001N9+02201+01901999999ADDAY181999GF103991031091017501001001MA1999999092271MD1110121+9999MW1131REMSYN00510035
0086874360999991973012304004-33267-066350FM-12+0714SAUI V0201401N00251220001CN0300001N9+02201+01801999999ADDAY111999GF102991021091017501001001MA1999999092391MD1110151+9999MW1131REMSYN00510048
0086874360999991973012305004-33267-066350FM-12+0714SAUI V0201401N00101220001CN0300001N9+02201+01801999999ADDAY111999GF101991011091017501001001MA1999999092451MD1310191+9999MW1131REMSYN00510033
0103874360999991973012306004-33267-066350FM-12+0714SAUI V0201801N00671220001CN0300001N9+02001+01601999999ADDAA199001091AY181999GF101991011091017501001001MA1999999092511MD1310191+9999MW1131REMSYN0111006* 2****
0086874360999991973012307004-33267-066350FM-12+0714SAUI V0201401N01031220001CN0300001N9+01701+01201999999ADDAY101999GF103991031051012501001001MA1999999092611MD1310211+9999MW1031REMSYN00510072
0086874360999991973012308004-33267-066350FM-12+0714SAUI V0201401N01231220001CN0300001N9+01601+00901999999ADDAY101999GF102991021051012501001001MA1999999092671MD1210211+9999MW1021REMSYN00510078
0086874360999991973012309004-33267-066350FM-12+0714SAUI V0201101N01231220001CN0400001N9+01701+00601999999ADDAY101999GF101991011051012501001001MA1999999092701MD1210171+9999MW1021REMSYN00510082
0086874360999991973012310004-33267-066350FM-12+0714SAUI V0201101N01231220001CN0400001N9+01701+00501999999ADDAY101999GF101991011051012501001001MA1999999092781MD1210171+9999MW1021REMSYN00510090
0086874360999991973012311004-33267-066350FM-12+0714SAUI V0201101N01231220001CN0400001N9+01601+00601999999ADDAY101999GF101991011051012501001001MA1999999092951MD1210281+9999MW1021REMSYN00510109
0110874360999991973012312004-33267-066350FM-12+0714SAUI V0201101N01391220001CN0400001N9+01701+00601999999ADDAA199008091AY101999GF102991011081012501001021KA1999N+01601MA1999999093031MD1210331+9999MW1031REMSYN00510117
0086874360999991973012313004-33267-066350FM-12+0714SAUI V0201401N01441220001CN0400001N9+01701+00501999999ADDAY101999GF102991011081012501001021MA1999999093091MD1210311+9999MW1021REMSYN00510123
0086874360999991973012314004-33267-066350FM-12+0714SAUI V0201401N01281220001CN0400001N9+01801+00501999999ADDAY101999GF102991011081012501001021MA1999999093181MD1210231+9999MW1021REMSYN00510133
0071874360999991973012316004-33267-066350FM-12+0714SAUI V0201101N01031220001CN0300001N9+02001+00401999999ADDAY101999GF101991001001999999001021MD1110091+9999MW1021REMSYN00510133
0082874360999991973012318004-33267-066350FM-12+0714SAUI V0201101N01181220001CN0200001N9+02101+00201999999ADDAA199000091AY101999GF100991001001999999001001MD1710171+9999MW1021REMSYN00510113
0071874360999991973012319004-33267-066350FM-12+0714SAUI V0201101N01131220001CN0200001N9+02201+00301999999ADDAY101999GF100991001001999999001001MD1710241+9999MW1021REMSYN00510108
0071874360999991973012321004-33267-066350FM-12+0714SAUI V0201301N01181220001CN0200001N9+02201+00201999999ADDAY101999GF100991001001999999001001MD1610111+9999MW1021REMSYN00510103
0086874360999991973012322004-33267-066350FM-12+0714SAUI V0201301N01131220001CN0200001N9+02201+00201999999ADDAY101999GF100991001001999999001001MA1999999092891MD1610051+9999MW1021REMSYN00510103
0103874360999991973012323004-33267-066350FM-12+0714SAUI V0201301N00921220001CN0200001N9+02001+00201999999ADDAA199000091AY101999GF100991001001999999001001MA1999999092881MD1610031+9999MW1021REMSYN01170023 10103
0086874360999991973012400004-33267-066350FM-12+0714SAUI V0201201N00561220001CN0200001N9+01901+00101999999ADDAY101999GF100991001001999999001001MA1999999093011MD1210111+9999MW1021REMSYN00510121
0086874360999991973012411004-33267-066350FM-12+0714SAUI V0201101N00251015001CN0300001N9+01701-00201999999ADDAY101999GF106991061051017501001001MA1999999093341MD1310341+9999MW1031REMSYN00510150
0110874360999991973012412004-33267-066350FM-12+0714SAUI V0201401N00101015001CN0300001N9+01801+00401999999ADDAA199000091AY111999GF105991051051017501001001KA1999N+01301MA1999999093381MD1310241+9999MW1011REMSYN00510154
0086874360999991973012414004-33267-066350FM-12+0714SAUI V0203201N00101220001CN0300001N9+02201+00101999999ADDAY111999GF101991011051017501001001MA1999999093381MD1110041+9999MW1011REMSYN00510154
0086874360999991973012415004-33267-066350FM-12+0714SAUI V0203601N00251220001CN0300001N9+02401-00101999999ADDAY111999GF100991001001999999001001MA1999999093381MD1410001+9999MW1011REMSYN00510154
0071874360999991973012416004-33267-066350FM-12+0714SAUI V0202901N00251220001CN0300001N9+02501-00401999999ADDAY101999GF100991001001999999001001MD1810031+9999MW1021REMSYN00510151
0071874360999991973012417004-33267-066350FM-12+0714SAUI V0202301N00251220001CN0400001N9+02701-00401999999ADDAY101999GF100991001001999999001001MD1810091+9999MW1021REMSYN00510146
0082874360999991973012418004-33267-066350FM-12+0714SAUI V0202701N00411220001CN0400001N9+02701-00301999999ADDAA199000091AY101999GF100991001001999999001001MD1610091+9999MW1021REMSYN0051014*
0071874360999991973012419004-33267-066350FM-12+0714SAUI V0202301N00411220001CN0400001N9+02701-00401999999ADDAY101999GF100991001001999999001001MD1610151+9999MW1021REMSYN00510167
0071874360999991973012420004-33267-066350FM-12+0714SAUI V0201801N00251220001CN0400001N9+02701-00101999999ADDAY101999GF100991001001999999001001MD1610131+9999MW1021REMSYN00510132
0071874360999991973012421004-33267-066350FM-12+0714SAUI V0201801N00251220001CN0400001N9+02701+00201999999ADDAY101999GF100991001001999999001001MD1610131+9999MW1021REMSYN00510128
0086874360999991973012422004-33267-066350FM-12+0714SAUI V0201601N00411220001CN0400001N9+02701+00501999999ADDAY101999GF100991001001999999001001MA1999999093171MD1510041+9999MW1021REMSYN00510132
0057874360999991973012500004-33267-066350FM-12+0714SAUI V0209991C00001220001CN0400001N9+02201+00701999999ADDAY101999GF100991001001999999001001MD1310211+9999MW1021
0086874360999991973012511004-33267-066350FM-12+0714SAUI V0201101N00101220001CN0400001N9+01501+00701999999ADDAY101999GF100991001001999999001001MA1999999093461MD1510011+9999MW1021REMSYN00510163
0110874360999991973012512004-33267-066350FM-12+0714SAUI V0203601N00411220001CN0400001N9+02201+00301999999ADDAA199000091AY101999GF100991001001999999001001KA1999N+01501MA1999999093461MD1110031+9999MW1021REMSYN00510163
0086874360999991973012513004-33267-066350FM-12+0714SAUI V0203601N00411220001CN0400001N9+02401+00401999999ADDAY101999GF100991001001999999001001MA1999999093451MD1010031+9999MW1021REMSYN00510162
0086874360999991973012514004-33267-066350FM-12+0714SAUI V0203601N00411220001CN0400001N9+02301+00401999999ADDAY101999GF100991001001999999001001MA1999999093451MD1010031+9999MW1021REMSYN00510162
0086874360999991973012515004-33267-066350FM-12+0714SAUI V0203601N00511220001CN0400001N9+02701+00301999999ADDAY101999GF100991001001999999001001MA1999999093321MD1810131+9999MW1021REMSYN00510148
0071874360999991973012517004-33267-066350FM-12+0714SAUI V0203601N00871220001CN0400001N9+02901+00001999999ADDAY101999GF100991999999999999999999MD1710191+9999MW1021REMSYN00510134
0068874360999991973012518004-33267-066350FM-12+0714SAUI V0203301N01231220001CN0300001N9+03001-00301999999ADDAA199000091AY101999GF100991001001999999001001MD1710171+9999MW1021
0086874360999991973012520004-33267-066350FM-12+0714SAUI V0203601N01031220001CN0300001N9+02901+00101999999ADDAY101999GF102991001001999999001021MA1999999092851MD1710351+9999MW1021REMSYN00510098
0086874360999991973012521004-33267-066350FM-12+0714SAUI V0203601N00921220001CN0300001N9+02901+00201999999ADDAY101999GF102991001001999999001021MA1999999092751MD1710401+9999MW1011REMSYN00510087
0086874360999991973012522004-33267-066350FM-12+0714SAUI V0203601N00921220001CN0300001N9+02801+00101999999ADDAY101999GF102991001001999999001021MA1999999092711MD1710291+9999MW1021REMSYN00510083
0103874360999991973012523004-33267-066350FM-12+0714SAUI V0203601N00921220001CN0300001N9+02801+00201999999ADDAA199000091AY101999GF102991001001999999001021MA1999999092771MD1510091+9999MW1021REMSYN01170030 10068
0086874360999991973012600004-33267-066350FM-12+0714SAUI V0203601N00921220001CN0300001N9+02601-00101999999ADDAY101999GF101991001001999999001021MA1999999092801MD1310041+9999MW1011REMSYN00510093
0086874360999991973012609004-33267-066350FM-12+0714SAUI V0203601N01541220001CN0200001N9+02101+00601999999ADDAY101999GF100991001001999999001001MA1999999092621MD1710011+9999MW1021REMSYN00510073
0086874360999991973012610004-33267-066350FM-12+0714SAUI V0203601N01391220001CN0250001N9+02001+00601999999ADDAY101999GF100991001001999999001001MA1999999092661MD1310081+9999MW1021REMSYN00510077
0071874360999991973012611004-33267-066350FM-12+0714SAUI V0200201N01231220001CN0250001N9+02101+00701999999ADDAY101999GF100991001001999999001001MD1310131+9999MW1021REMSYN00511673
0081874360999991973012612004-33267-066350FM-12+0714SAUI V0200201N01031220001CN0300001N9+02201+00701999999ADDAA199000091AY101999GF100991001001999999001001KA1999N+02001MD1310201+9999MW1021
0086874360999991973012613004-33267-066350FM-12+0714SAUI V0203601N00771220001CN0300001N9+02401+00701999999ADDAY101999GF100991001001999999001001MA1999999092861MD1210201+9999MW1021REMSYN00510099
0086874360999991973012614004-33267-066350FM-12+0714SAUI V0203601N00921220001CN0300001N9+02501+00801999999ADDAY101999GF100991001001999999001001MA1999999092871MD1110161+9999MW1021REMSYN00510100
0086874360999991973012615004-33267-066350FM-12+0714SAUI V0203601N01031220001CN0300001N9+02601+00801999999ADDAY101999GF100991001001999999001001MA1999999092891MD1110071+9999MW1021REMSYN00510100
0071874360999991973012617004-33267-066350FM-12+0714SAUI V0203401N00671220001CN0300001N9+02901+00901999999ADDAY101999GF100991001001999999001001MD1810051+9999MW1021REMSYN00510095
0082874360999991973012618004-33267-066350FM-12+0714SAUI V0209991C00001220001CN0400001N9+03001+01101999999ADDAA199000091AY101999GF100991001001999999001001MD1810111+9999MW1021REMSYN00510096
0071874360999991973012619004-33267-066350FM-12+0714SAUI V0209991C00001220001CN0300001N9+02901+00901999999ADDAY101999GF100991001001999999001001MD1810051+9999MW1021REMSYN00510095
0071874360999991973012620004-33267-066350FM-12+0714SAUI V0201101N00101220001CN0400001N9+03101+01101999999ADDAY101999GF100991999999999999999999MD1710201+9999MW1021REMSYN00510078
0071874360999991973012621004-33267-066350FM-12+0714SAUI V0201401N00251220001CN0400001N9+03101+01101999999ADDAY101999GF100991001001999999001001MD1710121+9999MW1021REMSYN00510077
0097874360999991973012622004-33267-066350FM-12+0714SAUI V0201401N00251220001CN0400001N9+03201+99999999999ADDAY101999GF100991001001999999001001MA1999999092661MW1021REMSYN01111  2 10077EQDQ01+027323ATOD  
0103874360999991973012623004-33267-066350FM-12+0714SAUI V0201401N00251220001CN0400001N9+03001+01101999999ADDAA199000091AY101999GF100991001001999999001001MA1999999092661MD1610011+9999MW1021REMSYN01170031 10077
0086874360999991973012700004-33267-066350FM-12+0714SAUI V0201401N00251220001CN0400001N9+02601+01201999999ADDAY101999GF100991001001999999001001MA1999999092781MD1310121+9999MW1021REMSYN0051*09*
0110874360999991973012712004-33267-066350FM-12+0714SAUI V0209991C00001220001CN0400001N9+02401+01301999999ADDAA199000091AY101999GF100991001001999999001001KA1999N+01701MA1999999093311MD1210271+9999MW1021REMSYN00510147
0086874360999991973012714004-33267-066350FM-12+0714SAUI V0201101N00251220001CN0400001N9+02901+01201999999ADDAY101999GF100991001001999999001001MA1999999093311MD1110081+9999MW1021REMSYN00510146
0086874360999991973012715004-33267-066350FM-12+0714SAUI V0201401N00411220001CN0400001N9+03001+01101999999ADDAY101999GF101991011011012501001001MA1999999093311MD1410001+9999MW1031REMSYN00510147
0071874360999991973012716004-33267-066350FM-12+0714SAUI V0201101N00411220001CN0400001N9+03101+01101999999ADDAY101999GF102991021011012501001001MD1410001+9999MW1021REMSYN00510146
0071874360999991973012717004-33267-066350FM-12+0714SAUI V0201401N00411220001CN0400001N9+03101+01101999999ADDAY101999GF103991031011012501001001MD1810051+9999MW1031REMSYN00510142
0082874360999991973012718004-33267-066350FM-12+0714SAUI V0201601N00411220001CN0300001N9+03201+01101999999ADDAA199000091AY101999GF102991021011012501001001MD1810131+9999MW1011REMSYN00510133
0071874360999991973012719004-33267-066350FM-12+0714SAUI V0201601N00251220001CN0300001N9+03201+01201999999ADDAY101999GF102991021011012501001001MD1810191+9999MW1021REMSYN00510128
0071874360999991973012720004-33267-066350FM-12+0714SAUI V0201301N00051220001CN0300001N9+03301+01101999999ADDAY101999GF102991021011012501001001MD1710191+9999MW1021REMSYN00510121
0130874360999991973012721004-33267-066350FM-12+0714SAUI V0201301N00101220001CN0300001N9+03301+99999999999ADDAY101999GF102991999081004501031011MW1021REMSYN01113813 10118EQDQ01+000002SCOTLCQ02+029723ATOD  Q03+000072APCTENQ04+000002APC3  
0086874360999991973012722004-33267-066350FM-12+0714SAUI V0201401N00411220001CN0300001N9+03101+01201999999ADDAY101999GF103991021041017501001051MA1999999093031MD1610091+9999MW1031REMSYN00510117
0103874360999991973012723004-33267-066350FM-12+0714SAUI V0201401N00411090001CN0300001N9+02901+01201999999ADDAA199000091AY111999GF105991011041017501071061MA1999999093031MD1610041+9999MW1031REMSYN01170033 10117
0086874360999991973012800004-33267-066350FM-12+0714SAUI V0201201N00511036001CN0300001N9+02801+01301999999ADDAY111999GF107991011081012501021061MA1999999093101MD1310051+9999MW1031REMSYN00510125
0102874360999991973012809004-33267-066350FM-12+0714SAUI V0209991C00001036001CN0300001N9+02201+01701999999ADDAY121999GA1011+012009099GF106991031081012501071031MA1999999093231MD1310091+9999MW1131REMSYN00510139
0086874360999991973012811004-33267-066350FM-12+0714SAUI V0209991C00001036001CN0300001N9+02101+01701999999ADDAY121999GF106991041081012501071001MA1999999093261MD1010051+9999MW1031REMSYN00510142
0081874360999991973012812004-33267-066350FM-12+0714SAUI V0203601N00301036001CN0300001N9+02101+01501999999ADDAA199000091AY121999GF106991031091017501071001KA1999N+02101MD1310071+9999MW1171
0121874360999991973012813004-33267-066350FM-12+0714SAUI V0200101N99999015001CN0300001N9+02101+01501999999ADDAY121999GA1031+015009099GF107991061091017501071001MA1999999093341MD1310041+9999MW1171REMSYN00510150EQDQ01+003093WOSPD 
0102874360999991973012814004-33267-066350FM-12+0714SAUI V0201401N00101015001CN0300001N9+02201+01601999999ADDAY121999GA1021+015009099GF105991051091017501001001MA1999999093341MD1010041+9999MW1171REMSYN00510156
0086874360999991973012815004-33267-066350FM-12+0714SAUI V0201401N00411220001CN0300001N9+02701+01501999999ADDAY121999GF103991031081017501001001MA1999999093231MD1810071+9999MW1011REMSYN00510139
0071874360999991973012816004-33267-066350FM-12+0714SAUI V0201001N00411220001CN0300001N9+02901+01401999999ADDAY111999GF102991021081012501001001MD1610121+9999MW1011REMSYN00510137
0071874360999991973012817004-33267-066350FM-12+0714SAUI V0201401N00251220001CN0400001N9+03101+01501999999ADDAY101999GF102991021081017501001001MD1710301+9999MW1021REMSYN00510132
0068874360999991973012818004-33267-066350FM-12+0714SAUI V0209991C00001220001CN0450001N9+03201+01401999999ADDAA199000091AY111999GF104991041081017501001001MD1710191+9999MW1021
0071874360999991973012819004-33267-066350FM-12+0714SAUI V0209991C00001220001CN0400001N9+03201+01401999999ADDAY111999GF104991041081017501001001MD1710271+9999MW1021REMSYN00510109
0087874360999991973012820004-33267-066350FM-12+0714SAUI V0203601N00251018001CN0400001N9+03201+01301999999ADDAY111999GA1011+018009099GF105991051081017501001001MD1710311+9999MW1031REMSYN00510099
0106874360999991973012821004-33267-066350FM-12+0714SAUI V0209991C00001018001CN0300001N9+03201+01501999999ADDAY111999GA1021+018009099GF106991999081017501001001MD1710271+9999MW1031REMSYN00510090EQDQ01+000052SCOTLC
0086874360999991973012822004-33267-066350FM-12+0714SAUI V0201401N00101015001CN0300001N9+99999+99999999999ADDAY121999GF107991051091017501071001MA1999999092951MD1510001+9999MW1031REMSYN00510109
0103874360999991973012823004-33267-066350FM-12+0714SAUI V0202001N01231007501CN0080001N9+01902+01901999999ADDAA199002091AY191999GF107991061091008001071001MA1999999093171MD1310291+9999MW1951REMSYN01170234 10130
0086874360999991973012900004-33267-066350FM-12+0714SAUI V0201401N00671036001CN0400001N9+02001+01701999999ADDAY191999GF107991041081012501071061MA1999999093071MD1010291+9999MW1291REMSYN00510121
0086874360999991973012910004-33267-066350FM-12+0714SAUI V0209991C00001220001CN0250001N9+01901+01801999999ADDAY101999GF101991011051012501001001MA1999999093171MD1110151+9999MW1011REMSYN00510132
0086874360999991973012911004-33267-066350FM-12+0714SAUI V0209991C00001220001CN0250001N9+02101+01901999999ADDAY101999GF103991011051012501071001MA1999999093181MD1110091+9999MW1031REMSYN00510133
0081874360999991973012912004-33267-066350FM-12+0714SAUI V0201401N00511012001CN0250001N9+02101+01801999999ADDAA199003091AY111999GF106991061081008001001001KA1999N+01901MD1310041+9999MW1031
0086874360999991973012913004-33267-066350FM-12+0714SAUI V0201601N00411012001CN0250001N9+02201+01901999999ADDAY111999GF105991051081008001001001MA1999999093191MD1010031+9999MW1011REMSYN00510134
0086874360999991973012914004-33267-066350FM-12+0714SAUI V0201401N00411015001CN0150001N9+02601+02001999999ADDAY111999GF105991051081012501001001MA1999999093171MD1810011+9999MW1021REMSYN00510132
0086874360999991973012915004-33267-066350FM-12+0714SAUI V0201401N00101015001CN0250001N9+02701+01901999999ADDAY111999GF107991071081012501001001MA1999999093091MD1810121+9999MW1031REMSYN00510123
0114874360999991973012916004-33267-066350FM-12+0714SAUI V0202401N002519999999N0250001N9+02801+99999999999ADDAY121999GF108991999999999999999999MW1021REMSYN01129  1 1012*EQDQ01+024523ATOD  Q02+000062APCTENQ03+000002APC3  
0071874360999991973012917004-33267-066350FM-12+0714SAUI V0202601N00411015001CN0300001N9+02801+01801999999ADDAY101999GF107991071081012501001001MD1710171+9999MW1021REMSYN00510112
0101874360999991973012918004-33267-066350FM-12+0714SAUI V0200901N00411015001CN0300001N9+02701+02001999999ADDAA199000091AY121999GF108991999081012501001001MD1710151+9999MW1021REMSYN00510109EQDQ01+000072SCOTLC
0071874360999991973012919004-33267-066350FM-12+0714SAUI V0202401N00251021001CN0300001N9+03001+02101999999ADDAY121999GF108991081091022501999999MD1710291+9999MW1021REMSYN00510104
0071874360999991973012920004-33267-066350FM-12+0714SAUI V0201401N00101015001CN0300001N9+02901+02101999999ADDAY121999GF107991071081012501001001MD1610161+9999MW1021REMSYN00510096
0071874360999991973012921004-33267-066350FM-12+0714SAUI V0209991C00001220001CN0300001N9+03101+02601999999ADDAY121999GF103991031081017501001001MD1210111+9999MW1021REMSYN005100*8
0086874360999991973012922004-33267-066350FM-12+0714SAUI V0209991C00001220001CN0300001N9+03101+01802999999ADDAY101999GF102991021081017501001001MA1999999092701MD1610201+9999MW1011REMSYN00510082
0103874360999991973012923004-33267-066350FM-12+0714SAUI V0203601N00101220001CN0300001N9+03101+01901999999ADDAA199000091AY111999GF101991011081017501001001MA1999999092731MD1510111+9999MW1011REMSYN01170032 10085
0086874360999991973013000004-33267-066350FM-12+0714SAUI V0209991C00001018001CN0300001N9+02901+02001999999ADDAY111999GF105991051081017501001001MA1999999092851MD1310121+9999MW1031REMSYN00510098
0086874360999991973013007004-33267-066350FM-12+0714SAUI V0200501N00251220001CN0300001N9+02601+01801999999ADDAY101999GF100991001001999999001001MA1999999092821MD1610151+9999MW1021REMSYN00510095
0086874360999991973013008004-33267-066350FM-12+0714SAUI V0200501N00101220001CN0300001N9+02401+01601999999ADDAY101999GF100991001001999999001001MA1999999092821MD1610121+9999MW1021REMSYN0051009*
0086874360999991973013010004-33267-066350FM-12+0714SAUI V0209991C00001220001CN0400001N9+02301+01901999999ADDAY101999GF101991011081012501001001MA1999999092621MD1410001+9999MW1031REMSYN00510095
0110874360999991973013012004-33267-066350FM-12+0714SAUI V0203601N00771220001CN0400001N9+02701+02001999999ADDAA199000091AY101999GF101991011081012501001001KA1999N+02201MA1999999092901MD1310081+9999MW1021REMSYN00510104
0086874360999991973013013004-33267-066350FM-12+0714SAUI V0203401N01031220001CN0400001N9+02901+02101999999ADDAY101999GF102991021081012501001001MA1999999092901MD1110081+9999MW1031REMSYN00510104
0105874360999991973013014004-33267-066350FM-12+0714SAUI V0203401N01131220001CN0400001N9+02901+99999999999ADDAY101999GF104991041081012501001001MA1999999092901MD1110081+9999MW1031REMSYN00510104EQDQ01+028323ATOD  
0080874360999991973013015004-33267-066350FM-12+0714SAUI V0203401N01231220001CN0400001N9+03101+02001999999ADDAY111999GF103991031081012501001001MA1999999092821MD1810081+9999REMSYN00510095
0071874360999991973013016004-33267-066350FM-12+0714SAUI V0203601N01231220001CN0400001N9+03201+02001999999ADDAY101999GF103991031081012501001001MD1810131+9999MW1021REMSYN00510089
0077874360999991973013017004-33267-066350FM-12+0714SAUI V0203601N00921220001CN0400001N9+03401+01901999999ADDAY101999GF103991031081012501001001MD1710271+9999MW1021REMSYN01110074 4****
0071874360999991973013019004-33267-066350FM-12+0714SAUI V0203601N00921220001CN0300001N9+03501+02001999999ADDAY101999GF101991011041017501001001MD1710321+9999MW1011REMSYN00510054
0071874360999991973013021004-33267-066350FM-12+0714SAUI V0203601N00671220001CN0400001N9+03601+02001999999ADDAY101999GF101991011041017501001001MD1710281+9999MW1011REMSYN00510033
0080874360999991973020100004-33267-066350FM-12+0714SAUI V0201101N01541220001CN0150001N9+02301+00301999999ADDAY101999GF101991001001999999001031MA1999999092751MD1310071+9999REMSYN00510087
0086874360999991973020109004-33267-066350FM-12+0714SAUI V0203601N00251220001CN0200001N9+02001+00801999999ADDAY111999GF102991011091012501001031MA1999999092231MD1310041+9999MW1131REMSYN00510085
0098874360999991973020110004-33267-066350FM-12+0714SAUI V0203601N00251220001CN0250001N9+99999+99999999999ADDAY101999GF102991011081012501001021MA1999999092732MD1010001+9999MW1021REMSYN01718603 07004 10085
0071874360999991973020111004-33267-066350FM-12+0714SAUI V0209991C00001220001CN0300001N9+01801+00901999999ADDAY101999GF103991011001999999061031MD1110111+9999MW1011REMSYN00510085
0110874360999991973020112004-33267-066350FM-12+0714SAUI V0209991C00001220001CN0300001N9+02001+00901100641ADDAA199000091AY101999GF103991011001999999071031KA1999N+01801MA1999999092731MD1010001+9999MW1021REMSYN00510085
0086874360999991973020113004-33267-066350FM-12+0714SAUI V0200201N00101220001CN0300001N9+02501+01001999999ADDAY101999GF102991011001999999071031MA1999999092731MD1610011+9999MW1011REMSYN00510085
0086874360999991973020114004-33267-066350FM-12+0714SAUI V0203201N00101036001CN0300001N9+02701+01201999999ADDAY101999GF106991031051017501071021MA1999999092711MD1610031+9999MW1031REMSYN00510083
0086874360999991973020115004-33267-066350FM-12+0714SAUI V0209991C00001015001CN0300001N9+02801+01401999999ADDAY111999GF107991061081012501001021MA1999999092651MD1810081+9999MW1031REMSYN00510076
0071874360999991973020116004-33267-066350FM-12+0714SAUI V0201801N00101012001CN0300001N9+02901+01601999999ADDAY121999GF107991061071012501001021MD1810131+9999MW1021REMSYN00510070
0071874360999991973020117004-33267-066350FM-12+0714SAUI V0203001N00251015001CN0300001N9+03101+01801999999ADDAY121999GF106991051081012501001021MD1710171+9999MW1021REMSYN00510064
0082874360999991973020118004-33267-066350FM-12+0714SAUI V0203401N00921015001CN0200001N9+03201+02001999999ADDAA199000091AY121999GF106991051081012501001021MD1710191+9999MW1021REMSYN00510054
0086874360999991973020119004-33267-066350FM-12+0714SAUI V0203401N00771090001CN0300001N9+03401+02001999999ADDAY121999GF107991031081012501001061MA1999999092391MD1710201+9999MW1021REMSYN00510048
0071874360999991973020120004-33267-066350FM-12+0714SAUI V0203401N00771090001CN0300001N9+03301+02001999999ADDAY121999GF107991031081012501001061MD1710171+9999MW1021REMSYN00510046
0071874360999991973020121004-33267-066350FM-12+0714SAUI V0203401N00921090001CN0300001N9+03301+01901999999ADDAY121999GF107991031081012501001061MD1710131+9999MW1021REMSYN00510042
0086874360999991973020122004-33267-066350FM-12+0714SAUI V0203601N00771036001CN0300001N9+03201+02001999999ADDAY121999GF108991031081012501071061MA1999999092271MD1710121+9999MW1031REMSYN00510035
0086874360999991973020200004-33267-066350FM-12+0714SAUI V0209991C00001036001CN0300001N9+03001+02201999999ADDAY121999GF107991031081012501071061MA1999999092381MD1310051+9999MW1021REMSYN00510047
0105874360999991973020201004-33267-066350FM-12+0714SAUI V0209991C00001036001CN0300001N9+02901+99999999999ADDAY121999GF106991031081012501071021MA1999999092381MD1110111+9999MW1011REMSYN00510047EQDQ01+028523ATOD  
0086874360999991973020202004-33267-066350FM-12+0714SAUI V0209991C00001036001CN0300001N9+02901+02201999999ADDAY111999GF105991031081012501071001MA1999999092381MD1110111+9999MW1021REMSYN00510047
0107874360999991973020211004-33267-066350FM-12+0714SAUI V0200201N00771036001CN0250001N9+02701+02101999999ADDAY111999GF105991041081012501061001MA1999999092311MW1031REMSYN00510040EQDQ01+000042APCTENQ02+000162APC3  
0081874360999991973020212004-33267-066350FM-12+0714SAUI V0200201N01231015001CN0250001N9+02801+02101999999ADDAA199000091AY111999GF106991051081012501061001KA1999N+02501MD1110161+9999MW1031
0102874360999991973020213004-33267-066350FM-12+0714SAUI V0200201N01231012001CN0250001N9+02901+02201999999ADDAY121999GA1031+006009099GF106991061091012501001001MA1999999092291MD1010081+9999MW1171REMSYN00510037
0094874360999991973020214004-33267-066350FM-12+0714SAUI V0203601N00771012001CN0200001N9+03001+02201999999ADDAY121999GA1051+012009099GF107991071091012501001001MA1999999092341MW1171REMSYN01122303 10043
0086874360999991973020215004-33267-066350FM-12+0714SAUI V0201401N00411004201CN0040001N9+02202+02101999999ADDAY121999GF108991081091004501999999MA1999999092381MD1310051+9999MW1951REMSYN00510047
0087874360999991973020216004-33267-066350FM-12+0714SAUI V0201401N00411009001CN0100001N9+02301+02101999999ADDAY191999GA1061+009009099GF108991081021008001999999MD1010081+9999MW1161REMSYN00510046
0103874360999991973020217004-33267-066350FM-12+0714SAUI V0201601N00251012001CN0200001N9+02201+02001999999ADDAY191999GA1011+010509099GA2051+012009089GF108991061091012501061999MD1210011+9999MW1151REMSYN00510044
0113874360999991973020218004-33267-066350FM-12+0714SAUI V0201601N00411090001CN0250001N9+02601+02001099991ADDAA199016091AY191999GA1011+006009089GF106991041081012501001031MA1999999092331MD1710081+9999MW1011REMSYN00510042
0122874360999991973020219004-33267-066350FM-12+0714SAUI V0201401N00921220001CN0300001N9+02501+99999999999ADDAA199033091AY111999GF103991011081004501001031MA1999999092331MD1710031+9999MW1011REMSYN01173333 10042EQDQ01+028223ATOD  
0137874360999991973020220004-33267-066350FM-12+0714SAUI V0201401N00921220001CN0400001N9+02601+02001999999ADDAY111999GA1071+014409049GA2001+999999999GF199999011081004501001031MA1999999092261MD1710081+9999MW1011REMSYN00510034EQDQ01+000022SCOTCV
0057874360999991973020300004-33267-066350FM-12+0714SAUI V0201101N00411220001CN0400001N9+02401+01801999999ADDAY101999GF101991001001999999001031MD1310121+9999MW1021
0086874360999991973020311004-33267-066350FM-12+0714SAUI V0201401N00921220001CN0350001N9+02001+01701999999ADDAY111999GF101991011081004501001001MA1999999093111MD1210231+9999MW1011REMSYN00510125
0110874360999991973020312004-33267-066350FM-12+0714SAUI V0201401N00671220001CN0350001N9+02101+01701999999ADDAA199016091AY111999GF103991031051004501001001KA1999N+01901MA1999999093251MD1210251+9999MW1031REMSYN00510141
0105874360999991973020313004-33267-066350FM-12+0714SAUI V0201101N00771004201CN0350001N9+02201+01701999999ADDAY111999GF105991051051004501001001MA1999999093692MD1210191+9999MW1031REMSYN00510145EQDQ01+093693APOSP 
0071874360999991973020314004-33267-066350FM-12+0714SAUI V0201101N00921009001CN0350001N9+02401+01801999999ADDAY111999GF105991051081004501001001MD1210211+9999MW1021REMSYN00510148
0086874360999991973020315004-33267-066350FM-12+0714SAUI V0201401N00411012001CN0400001N9+02401+01701999999ADDAY121999GF105991051081008001001001MA1999999093381MD1210131+9999MW1021REMSYN00510154
0082874360999991973020318004-33267-066350FM-12+0714SAUI V0201401N00671220001CN0400001N9+02701+01301999999ADDAA199000091AY111999GF102991021011012501001001MD1010031+9999MW1011REMSYN00510158
0071874360999991973020319004-33267-066350FM-12+0714SAUI V0201401N00771220001CN0400001N9+02701+01401999999ADDAY101999GF101991011011012501001001MD1810041+9999MW1011REMSYN00510*15
0086874360999991973020320004-33267-066350FM-12+0714SAUI V0201401N00771220001CN0400001N9+02701+01201999999ADDAY101999GF101991011011012501001001MA1999999093351MD1810081+9999MW1021REMSYN00510151
0071874360999991973020321004-33267-066350FM-12+0714SAUI V0201101N00921220001CN0400001N9+02701+01301999999ADDAY101999GF101991011011012501001001MD1610071+9999MW1031REMSYN00510150
0086874360999991973020322004-33267-066350FM-12+0714SAUI V0201101N01031220001CN0400001N9+02501+01401999999ADDAY101999GF101991011081012501001001MA1999999093341MD1610041+9999MW1031REMSYN00510150
0103874360999991973020323004-33267-066350FM-12+0714SAUI V0201101N01031220001CN0400001N9+02401+01401999999ADDAA199000091AY101999GF101991011081012501001001MA1999999093381MD1310031+9999MW1021REMSYN01170027 10154
0086874360999991973020400004-33267-066350FM-12+0714SAUI V0201101N01031220001CN0400001N9+02201+01401999999ADDAY101999GF101991011051017501001001MA1999999093431MD1310091+9999MW1021REMSYN00510160
0086874360999991973020411004-33267-066350FM-12+0714SAUI V0201101N00251220001CN0400001N9+01801+01301999999ADDAY101999GF101991011051017501001001MA1999999093631MD1310111+9999MW1021REMSYN00510181
0081874360999991973020412004-33267-066350FM-12+0714SAUI V0209991C00001220001CN0400001N9+02301+01301999999ADDAA199000091AY101999GF103991011051017501031001KA1999N+01601MD1010041+9999MW1031
0086874360999991973020414004-33267-066350FM-12+0714SAUI V0203601N00921036001CN0400001N9+02401+01601999999ADDAY111999GF105991011081012501071001MA1999999093621MD1610011+9999MW1021REMSYN00510180
0086874360999991973020415004-33267-066350FM-12+0714SAUI V0203601N00921036001CN0400001N9+02701+01601999999ADDAY111999GF105991021081012501071001MA1999999093551MD1810071+9999MW1021REMSYN00510173
0068874360999991973020418004-33267-066350FM-12+0714SAUI V0200201N00671036001CN0400001N9+03001+01701999999ADDAA199000091AY101999GF105991041081012501061001MD1710121+9999MW1021
0071874360999991973020420004-33267-066350FM-12+0714SAUI V0203601N00101220001CN0400001N9+03001+01601999999ADDAY121999GF104991041081012501001001MD1710231+9999MW1021REMSYN00510143
0071874360999991973020421004-33267-066350FM-12+0714SAUI V0209991C00001220001CN0400001N9+03001+01601999999ADDAY111999GF104991041081012501001001MD1610031+9999MW1031REMSYN00510141
0086874360999991973020422004-33267-066350FM-12+0714SAUI V0202401N00251220001CN0400001N9+03001+01401999999ADDAY111999GF103991031081012501001001MA1999999093211MD1610121+9999MW1011REMSYN00510137
0105874360999991973020500004-33267-066350FM-12+0714SAUI V0203601N00251220001CN0400001N9+02601+01201999999ADDAY101999GF101991011081012501001001MA1999999092202MD1310051+9999MW1011REMSYN00510146EQDQ01+092203APOSP 
0086874360999991973020509004-33267-066350FM-12+0714SAUI V0200201N00201220001CN0400001N9+01801+00901999999ADDAY101999GF100991001001999999001001MA1999999093371MD1310081+9999MW1021REMSYN00510153
0086874360999991973020510004-33267-066350FM-12+0714SAUI V0200201N00251220001CN0400001N9+01701+00301999999ADDAY101999GF100991001001999999001001MA1999999093391MD1310131+9999MW1021REMSYN00510155
0086874360999991973020511004-33267-066350FM-12+0714SAUI V0200201N00411220001CN0400001N9+01801+00901999999ADDAY101999GF100991001001999999001001MA1999999093421MD1210161+9999MW1021REMSYN00510159
0081874360999991973020512004-33267-066350FM-12+0714SAUI V0200201N00771220001CN0400001N9+02201+00901999999ADDAA199000091AY101999GF100991001001999999001001KA1999N+01701MD1210111+9999MW1021
0086874360999991973020513004-33267-066350FM-12+0714SAUI V0203601N00671220001CN0400001N9+02401+01001999999ADDAY101999GF100991001001999999001001MA1999999093471MD1210081+9999MW1021REMSYN00510164
0105874360999991973020514004-33267-066350FM-12+0714SAUI V0203601N00671220001CN0400001N9+02601+01001999999ADDAY101999GF100991001001999999001001MA1999999093431MD1010011+9999MW1021REMSYN00510160EQDQ01+000562APC3  
0071874360999991973020517004-33267-066350FM-12+0714SAUI V0201801N00101220001CN0400001N9+03101+01301999999ADDAY101999GF101991001001999999001071MD1710171+9999MW1031REMSYN00510142
0068874360999991973020518004-33267-066350FM-12+0714SAUI V0201801N00101220001CN0400001N9+03201+01101999999ADDAA199000091AY101999GF101991001001999999001011MD1710241+9999MW1021
0071874360999991973020519004-33267-066350FM-12+0714SAUI V0202701N00251220001CN0400001N9+03301+01101999999ADDAY101999GF101991001001999999001011MD1710251+9999MW1021REMSYN00510123
0096874360999991973020520004-33267-066350FM-12+0714SAUI V0203601N00101220001CN0400001N9+03301+01101999999ADDAY101999GF102991001001999999001051MD1710241+9999MW1031UA1M999999999UG1110801009REMSYN00510111
0071874360999991973020521004-33267-066350FM-12+0714SAUI V0201801N00101220001CN0400001N9+03401+01201999999ADDAY101999GF103991001001999999001051MD1710241+9999MW1031REMSYN00510107
0086874360999991973020522004-33267-066350FM-12+0714SAUI V0201801N00101220001CN0400001N9+03301+01001999999ADDAY101999GF103991001001999999001051MA1999999092901MD1610191+9999MW1021REMSYN00510104
0103874360999991973020523004-33267-066350FM-12+0714SAUI V0209991C00001220001CN0400001N9+03301+01101999999ADDAA199000091AY101999GF102991001001999999001051MA1999999092901MD1610121+9999MW1011REMSYN01170034 10104
0081874360999991973020600004-33267-066350FM-12+0714SAUI V0209991C00001220001CN0400001N9+03301+01101999999ADDAA199000091AY101999GF102991001001999999001051KA1999M+03401MD1610121+9999MW1011
0086874360999991973020602004-33267-066350FM-12+0714SAUI V0200201N00251220001CN0400001N9+02401+01001999999ADDAY101999GF100991001001999999001001MA1999999093141MD1210241+9999MW1011REMSYN00510129
0086874360999991973020603004-33267-066350FM-12+0714SAUI V0203601N00251220001CN0400001N9+02401+01101999999ADDAY101999GF100991001001999999001001MA1999999093171MD1210191+9999MW1021REMSYN00510132
0086874360999991973020604004-33267-066350FM-12+0714SAUI V0200201N00251220001CN0400001N9+02001+01101999999ADDAY101999GF100991001001999999001001MA1999999093171MD1110081+9999MW1021REMSYN00510132
0086874360999991973020605004-33267-066350FM-12+0714SAUI V0209991C00001220001CN0400001N9+02001+01001999999ADDAY101999GF100991001001999999001001MA1999999093171MD1110031+9999MW1021REMSYN00510132
0101874360999991973020606004-33267-066350FM-12+0714SAUI V0200501N00251220001CN0400001N9+01901+01101999999ADDAA199000091AY101999GF100991001001999999001001MD1810051+9999MW1021REMSYN0051012*EQDQ01+089233APOSP 
0086874360999991973020607004-33267-066350FM-12+0714SAUI V0200501N00251220001CN0400001N9+01901+01101999999ADDAY101999GF100991001001999999001001MA1999999093051MD1810121+9999MW1021REMSYN00510119
0086874360999991973020609004-33267-066350FM-12+0714SAUI V0200201N00101220001CN0400001N9+01801+01001999999ADDAY101999GF101991001001999999001021MA1999999093051MD1610071+9999MW1031REMSYN00510119
0086874360999991973020610004-33267-066350FM-12+0714SAUI V0200201N00251220001CN0400001N9+01801+01001999999ADDAY101999GF103991001001999999001051MA1999999093051MD1410001+9999MW1031REMSYN00510119
0086874360999991973020611004-33267-066350FM-12+0714SAUI V0200201N00411220001CN0400001N9+02001+01001999999ADDAY101999GF104991001001999999001061MA1999999093051MD1410001+9999MW1031REMSYN00510119
0081874360999991973020612004-33267-066350FM-12+0714SAUI V0200201N00411220001CN0150001N9+02201+01101999999ADDAA199000091AY101999GF104991001001999999001051KA1999N+01801MD1410001+9999MW1021
0071874360999991973020613004-33267-066350FM-12+0714SAUI V0200201N00671220001CN0400001N9+02601+01101999999ADDAY111999GF105991001001999999001061MD1810031+9999MW1031REMSYN00510116
0086874360999991973020615004-33267-066350FM-12+0714SAUI V0203601N00671220001CN0400001N9+02701+01101999999ADDAY111999GF105991001001999999001061MA1999999092971MD1810081+9999MW1021REMSYN00510111
0105874360999991973020616004-33267-066350FM-12+0714SAUI V0200501N00251220001CN0400001N9+99999+01101100841ADDAY101999GF100991001001999999001001MA1999999093051MD1810121+9999MW1021REMSYN00510119EQDQ01+029223ATOT  
0071874360999991973020617004-33267-066350FM-12+0714SAUI V0203601N00411220001CN0400001N9+03301+01201999999ADDAY111999GF103991001001999999001061MD1710201+9999MW1011REMSYN00510089
0082874360999991973020618004-33267-066350FM-12+0714SAUI V0203601N00411220001CN0400001N9+03401+01001999999ADDAA199000091AY111999GF102991001001999999001051MD1710231+9999MW1011REMSYN00510078
0071874360999991973020619004-33267-066350FM-12+0714SAUI V0203401N00411220001CN0400001N9+03501+00901999999ADDAY101999GF102991001001999999001051MD1710291+9999MW1021REMSYN00510064
0086874360999991973020620004-33267-066350FM-12+0714SAUI V0203401N00251220001CN0300001N9+03501+01301999999ADDAY131999GF104991011001999999071061MA1999999092461MD1710291+9999MW1201REMSYN00510056
0071874360999991973020621004-33267-066350FM-12+0714SAUI V0203601N00251220001CN0400001N9+03501+01101999999ADDAY111999GF106991031001999999061061MD1610211+9999MW1031REMSYN00510055
0103874360999991973020623004-33267-066350FM-12+0714SAUI V0203601N00411220001CN0400001N9+03201+01001999999ADDAA199000091AY121999GF106991021001999999071061MA1999999092471MD1310011+9999MW1011REMSYN01170036 10057
0086874360999991973020700004-33267-066350FM-12+0714SAUI V0203601N00251090001CN0400001N9+02901+01201999999ADDAY121999GF107991041001999999071061MA1999999092571MD1610111+9999MW1031REMSYN00510068
0105874360999991973020702004-33267-066350FM-12+0714SAUI V0200201N00411090001CN0400001N9+02801+01001999999ADDAY121999GF107991041001999999071061MA1999999089232MD1210161+9999MW1021REMSYN0051007*EQDQ01+089233APOSP 
0086874360999991973020703004-33267-066350FM-12+0714SAUI V0203601N00411090001CN0400001N9+02701+01101999999ADDAY121999GF107991041001999999071061MA1999999089231MD1110081+9999MW1021REMSYN0051007*
0105874360999991973020704004-33267-066350FM-12+0714SAUI V0200201N00671220001CN0400001N9+02601+01301999999ADDAY121999GF103991031001999999071061MA1999999092622MD1010011+9999MW1011REMSYN00510073EQDQ01+092623APOSP 
0086874360999991973020705004-33267-066350FM-12+0714SAUI V0200201N00411220001CN0400001N9+02601+01301999999ADDAY111999GF103991021001999999071021MA1999999092631MD1610011+9999MW1011REMSYN00510074
0097874360999991973020706004-33267-066350FM-12+0714SAUI V0209999999999220001CN0400001N9+02601+01401999999ADDAA199000091AY111999GF103991021001999999071021MA1999999092661MD1310011+9999MW1021REMSYN00510077
0086874360999991973020707004-33267-066350FM-12+0714SAUI V0203601N00411220001CN0400001N9+02601+01301999999ADDAY111999GF106991021001999999071061MA1999999092661MD1110041+9999MW1031REMSYN00510077
0092874360999991973020709004-33267-066350FM-12+0714SAUI V0202701N00101220001CN0400001N9+02401+01301999999ADDAY121999GF105991021001999999071061MA1999999092731MD1310071+9999MW1011REMSYN0111008* 5****
0086874360999991973020710004-33267-066350FM-12+0714SAUI V0202301N00101220001CN0400001N9+02301+01401999999ADDAY121999GF104991011051017501071001MA1999999092851MD1310191+9999MW1031REMSYN00510098
0086874360999991973020711004-33267-066350FM-12+0714SAUI V0209991C00001220001CN0400001N9+99999+99999999999ADDAY111999GF104991021051017501071001MA1999999092941MD1310291+9999MW1031REMSYN00510108
0110874360999991973020712004-33267-066350FM-12+0714SAUI V0209991C00001036001CN0400001N9+02501+01601999999ADDAA199000091AY111999GF105991031051017501071001KA1999N+02101MA1999999093011MD1310281+9999MW1031REMSYN00510115
0090874360999991973020713004-33267-066350FM-12+0714SAUI V0201601N00411036001CN0300001N9+02501+01501999999ADDAY111999GF105991021051017501071001MD1110662+9999MW1011REMSYN00510115EQDQ01+000662APC3  
0086874360999991973020714004-33267-066350FM-12+0714SAUI V0201601N00251220001CN0300001N9+02701+01401999999ADDAY111999GF104991011051017501071001MA1999999092951MD1010011+9999MW1011REMSYN00510109
0086874360999991973020715004-33267-066350FM-12+0714SAUI V0201801N00251220001CN0300001N9+02801+01401999999ADDAY111999GF102991011011012501071001MA1999999092911MD1810091+9999MW1011REMSYN00510105
