0087874480999991973010110004-33733-065383FM-12+0485SARY V0201801N00461220001CN0300001N9+01801+01701999999ADDAY101999GA1011+012009099GF103991011081012501001021MD1210051+9999MW1021REMSYN00510126
0095874480999991973010112004-33733-065383FM-12+0485SARY V0202001N00611220001CN0300001N9+02301+01801101091ADDAA199000091AY101999GF103991011081012501001021KA1999N+01601MD1210071+9999MW1021REMSYN00510132
0071874480999991973010113004-33733-065383FM-12+0485SARY V0202901N00301220001CN0200001N9+02601+01601101141ADDAY101999GF103991011081012501031021MD1210161+9999MW1021REMSYN00510143
0093874480999991973010114004-33733-065383FM-12+0485SARY V0201801N00511220001CN0300001N9+02201+01701100781ADDAY101999GA1011+012009099GF103991011081012501001021MD1710091+9999MW1021REMSYN0111012* 0****
0072874480999991973010115004-33733-065383FM-12+0485SARY V0201401N00411220001CN0300001N9+02901+01801101101ADDAY101999GF102991011081012501001021MD1110121+9999MW1021REMSYN00610145Z
0077874480999991973010116004-33733-065383FM-12+0485SARY V0201401N00151220001CN0300001N9+02901+01601101071ADDAY101999GF102991011011012501001021MD1010001+9999MW1021REMSYN011203** 10143
0071874480999991973010117004-33733-065383FM-12+0485SARY V0201401N00301220001CN0300001N9+03001+01601101051ADDAY101999GF102991011011012501001021MD1810051+9999MW1021REMSYN00510140
0082874480999991973010118004-33733-065383FM-12+0485SARY V0200501N00411220001CN0300001N9+03001+01701100831ADDAA199000091AY101999GF102991021011012501001001MD1710231+9999MW1031REMSYN00510123
0071874480999991973010119004-33733-065383FM-12+0485SARY V0200501N00411220001CN0300001N9+03001+01701100811ADDAY101999GF102991021011012501001001MD1710251+9999MW1021REMSYN00510119
0071874480999991973010120004-33733-065383FM-12+0485SARY V0200201N00511220001CN0300001N9+03001+01701100781ADDAY101999GF102991021011012501001001MD1710251+9999MW1021REMSYN00510116
0071874480999991973010121004-33733-065383FM-12+0485SARY V0200501N00251220001CN0300001N9+03101+01801100561ADDAY101999GF102991021011012501001001MD1710311+9999MW1021REMSYN00510099
0106874480999991973010122004-33733-065383FM-12+0485SARY V0201001N999999999999N0300001N9+99999+99999100531ADDAY101999GF107991999011012501001001MD1710201+9999MW1011REMSYN00510092EQDQ01+004633WOSPD Q02+000012SCOTLC
0089874480999991973010123004-33733-065383FM-12+0485SARY V0200901N00411220001CN0300001N9+02901+01901100571ADDAA199000091AY101999GF101991011011012501001001MD1610131+9999MW1021REMSYN01270031 1009.4
0071874480999991973010200004-33733-065383FM-12+0485SARY V0200901N00251220001CN0300001N9+02601+01901100661ADDAY101999GF101991011011012501001001MD1310031+9999MW1021REMSYN00510099
0087874480999991973010209004-33733-065383FM-12+0485SARY V0201801N00511220001CN0020001N9+01801+01701100871ADDAY101999GA1011+015009099GF104991041061012501001001MD1210241+9999MW1131REMSYN00510105
0087874480999991973010210004-33733-065383FM-12+0485SARY V0201801N00251036001CN0300001N9+01901+01701101011ADDAY111999GA1011+015009099GF106991041081012501031001MD1210221+9999MW1031REMSYN00510115
0071874480999991973010211004-33733-065383FM-12+0485SARY V0201401N00611220001CN0300001N9+02201+01901101051ADDAY121999GF102991021081012501001001MD1210281+9999MW1011REMSYN00510128
0095874480999991973010212004-33733-065383FM-12+0485SARY V0200901N00611220001CN0300001N9+02301+01901101131ADDAA199000091AY111999GF102991021081012501001001KA1999N+01701MD1210331+9999MW1021REMSYN00510136
0071874480999991973010214004-33733-065383FM-12+0485SARY V0200701N00411220001CN0300001N9+02701+01901101171ADDAY101999GF102991021081012501001001MD1210271+9999MW1021REMSYN00510148
0071874480999991973010215004-33733-065383FM-12+0485SARY V0200901N00611220001CN0300001N9+02801+01901101091ADDAY101999GF102991021011012501001001MD1110071+9999MW1031REMSYN00510140
0071874480999991973010216004-33733-065383FM-12+0485SARY V0200901N00411220001CN0300001N9+02901+02001101071ADDAY101999GF103991031011012501001001MD1810011+9999MW1031REMSYN00510143
0087874480999991973010217004-33733-065383FM-12+0485SARY V0209999999999220001CN0300001N9+02901+01901100971ADDAY131999GA1011+015009099GF103991031081012501001001MD1810111+9999MW1001REMSYN00510133
0094874480999991973010218004-33733-065383FM-12+0485SARY V0201401N00611220001CN0300001N9+03001+01901100871ADDAA199000091AY101999GF103991031081012501001001MD1810171+9999MW1021REMSYN0170*7*8 14012 10126
0087874480999991973010219004-33733-065383FM-12+0485SARY V0209999999999220001CN0300001N9+03101+01901100811ADDAY101999GA1011+015009099GF104991041081012501001001MD1710231+9999MW1031REMSYN00510119
0106874480999991973010220004-33733-065383FM-12+0485SARY V0201401N99999015001CN0300001N9+03001+02001100751ADDAY101999GA1021+015009099GF105991051081012501001001MD1710171+9999MW1031REMSYN00510113EQDQ01+003763WOSPD 
0087874480999991973010221004-33733-065383FM-12+0485SARY V0202401N00611012001CN0300001N9+02801+01901100771ADDAY101999GA1011+010509059GF107991061091012501001031MD1610151+9999MW1031REMSYN00510110
0087874480999991973010222004-33733-065383FM-12+0485SARY V0201101N00611012001CN0300001N9+02701+01901100861ADDAY111999GA1011+010509059GF107991071091012501001001MD1510031+9999MW1021REMSYN00510115
0104874480999991973010223004-33733-065383FM-12+0485SARY V0201101N00251012001CN0300001N9+02701+01901100901ADDAA199000091AY121999GA1021+010509059GF107991071091012501001001MD1310071+9999MW1021REMSYN01170031 10120
0071874480999991973010309004-33733-065383FM-12+0485SARY V0209991C00001220001CN0300001N9+01501+01401101261ADDAY101999GF102991011091012501001021MD1610011+9999MW1021REMSYN00510136
0071874480999991973010310004-33733-065383FM-12+0485SARY V0209991C00001220001CN0300001N9+01501+01401101311ADDAY101999GF100991001001999999001001MD1310041+9999MW1011REMSYN00510140
0071874480999991973010313004-33733-065383FM-12+0485SARY V0200701N00251220001CN0300001N9+02702+01901101031ADDAY101999GF100991001001999999001001MD1810051+9999MW1021REMSYN00510135
0068874480999991973010315004-33733-065383FM-12+0485SARY V0209991C00001220001CN0300001N9+01701+01501101231ADDAA199000091AY111999GF102991011091012501001021MD1810071+9999MW1131
0091874480999991973010316004-33733-065383FM-12+0485SARY V0202701N00101220001CN0300001N9+03202+01601100751ADDAY101999GF101991011011012501001001MD1710171+9999MW1031REMSYN0061011.5EQDQ01+030523ATOT  
0071874480999991973010317004-33733-065383FM-12+0485SARY V0202901N00201220001CN0300001N9+03301+01601100671ADDAY101999GF102991021011012501001001MD1710191+9999MW1031REMSYN00510101
0094874480999991973010318004-33733-065383FM-12+0485SARY V0201401N00821220001CN0300001N9+03401+01801100571ADDAA199000091AY101999GF103991031021012501001001MD1710211+9999MW1031REMSYN0170*7*8 14013 1010*
0071874480999991973010319004-33733-065383FM-12+0485SARY V0209991C00001220001CN0300001N9+03401+01701100351ADDAY101999GF103991031021012501001001MD1710361+9999MW1021REMSYN00510078
0071874480999991973010320004-33733-065383FM-12+0485SARY V0209991C00001220001CN0300001N9+03501+01701100291ADDAY121999GF103991031021012501001001MD1710321+9999MW1001REMSYN00510075
0071874480999991973010321004-33733-065383FM-12+0485SARY V0209991C00001220001CN0300001N9+03301+01701100231ADDAY121999GF103991031021012501001001MD1710291+9999MW1001REMSYN00510069
0071874480999991973010322004-33733-065383FM-12+0485SARY V0203401N00251220001CN0300001N9+03401+01801100291ADDAY101999GF101991999999999999999999MD1710161+9999MW1011REMSYN00510061
0088874480999991973010323004-33733-065383FM-12+0485SARY V0200201N00361220001CN0300001N9+03301+01701100181ADDAA199000091AY101999GF102991011021012501001021MD1710151+9999MW1021REMSYN01170036 10060
0071874480999991973010409004-33733-065383FM-12+0485SARY V0203401N00771220001CN0300001N9+02401+01701100261ADDAY101999GF101991011041012501001001MD1410001+9999MW1011REMSYN00510050
0071874480999991973010411004-33733-065383FM-12+0485SARY V0209991C00001220001CN0300001N9+02401+01701100261ADDAY101999GF101991011041012501001001MD1410001+9999MW1021REMSYN00510054
0095874480999991973010412004-33733-065383FM-12+0485SARY V0202301N00611220001CN0300001N9+02601+01801100351ADDAA199000091AY101999GF101991011041012501001001KA1999N+02301MD1310051+9999MW1021REMSYN00510053
0071874480999991973010413004-33733-065383FM-12+0485SARY V0202701N00721220001CN0300001N9+02801+01801100221ADDAY101999GF101991011041012501001001MD1310071+9999MW1021REMSYN00510067
0071874480999991973010414004-33733-065383FM-12+0485SARY V0202501N00671220001CN0300001N9+03001+01801100231ADDAY101999GF101991011041012501001001MD1110071+9999MW1021REMSYN00510057
0071874480999991973010415004-33733-065383FM-12+0485SARY V0202301N00611220001CN0300001N9+03101+01801100111ADDAY101999GF101991011011012501001001MD1810051+9999MW1021REMSYN00510050
0071874480999991973010416004-33733-065383FM-12+0485SARY V0201801N00511220001CN0300001N9+03101+01801100061ADDAY101999GF101991011011012501001001MD1810121+9999MW1021REMSYN00510044
0071874480999991973010417004-33733-065383FM-12+0485SARY V0202501N00251220001CN0300001N9+03201+01801100031ADDAY101999GF101991011011012501001001MD1610081+9999MW1021REMSYN00510042
0107874480999991973010418004-33733-065383FM-12+0485SARY V0203201N00151220001CN0300001N9+03301+01901100942ADDAA199000091AY101999GF101991011011012501001001MD1810151+9999MW1021REMSYN0110*7*8 14013EQDQ01+100943APOSLP
0071874480999991973010419004-33733-065383FM-12+0485SARY V0203201N00151220001CN0300001N9+03301+01901100911ADDAY101999GF102991021011012501001001MD1710171+9999MW1031REMSYN00510033
0090874480999991973010420004-33733-065383FM-12+0485SARY V0202501N00151220001CN0300001N9+03401+02001099632ADDAY101999GF102991021011012501001001MD1710311+9999MW1021REMSYN00510010EQDQ01+099633APOSLP
0071874480999991973010421004-33733-065383FM-12+0485SARY V0203401N00101220001CN0300001N9+03401+01901099531ADDAY101999GF101991011011012501001001MD1810331+9999MW1011REMSYN00510000
0071874480999991973010422004-33733-065383FM-12+0485SARY V0203401N00101220001CN0300001N9+03401+01901099531ADDAY101999GF101991011011012501001001MD1610211+9999MW1021REMSYN00510000
0088874480999991973010423004-33733-065383FM-12+0485SARY V0209991C00001220001CN0300001N9+03401+02001099571ADDAA199000091AY101999GF101991011001999999021001MD1610111+9999MW1021REMSYN01170035 10000
0087874480999991973010509004-33733-065383FM-12+0485SARY V0209991C00001220001CN0300001N9+01901+01301100421ADDAY191999GA1011+012009099GF104991041081012501001001MD1210391+9999MW1011REMSYN00510059
0071874480999991973010510004-33733-065383FM-12+0485SARY V0201101N00151220001CN0250001N9+01901+01001100591ADDAY111999GF103991031081012501001001MD1210411+9999MW1011REMSYN00510077
0071874480999991973010511004-33733-065383FM-12+0485SARY V0201401N00251220001CN0200001N9+02101+01101100701ADDAY101999GF102991021081012501001001MD1210471+9999MW1011REMSYN00510092
0095874480999991973010512004-33733-065383FM-12+0485SARY V0201601N00611220001CN0200001N9+02201+00801100711ADDAA199000091AY191999GF102991021081012501001001KA1999N+01901MD1110371+9999MW1021REMSYN00510098
0071874480999991973010513004-33733-065383FM-12+0485SARY V0201601N00671220001CN0200001N9+02301+00801100701ADDAY101999GF102991021081012501001001MD1110191+9999MW1021REMSYN00510096
0071874480999991973010514004-33733-065383FM-12+0485SARY V0201601N00611220001CN0250001N9+02401+00901100701ADDAY101999GF101991011081012501001001MD1310071+9999MW1011REMSYN00510099
0071874480999991973010515004-33733-065383FM-12+0485SARY V0201601N00611220001CN0300001N9+02501+00901100661ADDAY101999GF101991011081012501001001MD1810031+9999MW1021REMSYN00510094
0071874480999991973010516004-33733-065383FM-12+0485SARY V0201601N00611220001CN0300001N9+02501+01001100661ADDAY101999GF102991021081012501001001MD1610011+9999MW1031REMSYN00510094
0071874480999991973010517004-33733-065383FM-12+0485SARY V0201401N00411220001CN0300001N9+02601+01101100631ADDAY101999GF101991011011012501001001MD1810031+9999MW1011REMSYN00510096
0068874480999991973010518004-33733-065383FM-12+0485SARY V0201401N00511220001CN0300001N9+02701+01101100451ADDAA199000091AY101999GF101991011011012501001001MD1810081+9999MW1021
0071874480999991973010521004-33733-065383FM-12+0485SARY V0200901N00411220001CN0300001N9+02701+01201100411ADDAY101999GF101991011011012501001001MD1610131+9999MW1021REMSYN00510013
0071874480999991973010522004-33733-065383FM-12+0485SARY V0209999999999220001CN0300001N9+02701+01201100431ADDAY101999GF101991011011012501001001MD1610071+9999MW1021REMSYN00510075
0071874480999991973010600004-33733-065383FM-12+0485SARY V0200901N00101220001CN0300001N9+02201+01001100621ADDAY101999GF101991011011012501001001MD1210151+9999MW1021REMSYN00510088
0071874480999991973010608004-33733-065383FM-12+0485SARY V0200901N00511015001CN0300001N9+01901+00801100651ADDAY111999GF107991071081012501001001MD1710271+9999MW1031REMSYN00510082
0071874480999991973010609004-33733-065383FM-12+0485SARY V0200501N00511015001CN0300001N9+01901+00801100651ADDAY121999GF107991071081012501001001MD1710231+9999MW1021REMSYN00510076
0071874480999991973010610004-33733-065383FM-12+0485SARY V0200501N00511015001CN0300001N9+01901+00801100661ADDAY121999GF107991071081012501001001MD1710201+9999MW1021REMSYN00510083
0071874480999991973010611004-33733-065383FM-12+0485SARY V0200701N00511015001CN0200001N9+02001+01001100551ADDAY121999GF107991071081012501001001MD1610051+9999MW1051REMSYN00510077
0095874480999991973010612004-33733-065383FM-12+0485SARY V0200901N00511015001CN0200001N9+02201+01101100501ADDAA199000091AY121999GF107991071081012501001001KA1999N+01601MD1610071+9999MW1051REMSYN00510075
0071874480999991973010613004-33733-065383FM-12+0485SARY V0200501N00251015001CN0200001N9+02301+01301100431ADDAY121999GF107991071081012501001001MD1810111+9999MW1021REMSYN00510068
0071874480999991973010614004-33733-065383FM-12+0485SARY V0200501N00251015001CN0200001N9+02601+01501100341ADDAY121999GF107991071081012501001001MD1710151+9999MW1021REMSYN00510061
0090874480999991973010615004-33733-065383FM-12+0485SARY V0200701N00101015001CN0200001N9+02901+01701100181ADDAY121999GF106991999081012501001001MD1710211+9999MW1011REMSYN00510052EQDQ01+000052SCOTLC
0071874480999991973010616004-33733-065383FM-12+0485SARY V0200901N00101015001CN0200001N9+99999+99999100071ADDAY121999GF105991051081012501001001MD1710211+9999MW1011REMSYN00510046
0071874480999991973010617004-33733-065383FM-12+0485SARY V0200901N00411015001CN0200001N9+03101+01601100071ADDAY121999GF105991051081012501001001MD1810211+9999MW1011REMSYN00510046
0087874480999991973010618004-33733-065383FM-12+0485SARY V0209991C00001220001CN0200001N9+03501+01801099861ADDAA199000091AY111999GF102991999081012501001001MD1710211+9999MW1011EQDQ01+000012SCOTLC
0071874480999991973010619004-33733-065383FM-12+0485SARY V0200501N00361220001CN0200001N9+99999+99999099831ADDAY111999GF102991021081008001001001MD1710171+9999MW1021REMSYN005100*2
0096874480999991973010620004-33733-065383FM-12+0485SARY V0200501N00361220001CN0200001N9+99999+99999099631ADDAY111999GF101991999999999999999999MD1610441+9999MW1011REMSYN01121720 10017EQDQ01+000002APC3  
0071874480999991973010621004-33733-065383FM-12+0485SARY V0203601N00251220001CN0200001N9+99999+99999099691ADDAY111999GF101991011081012501001001MD1710241+9999MW1021REMSYN00510005
0071874480999991973010622004-33733-065383FM-12+0485SARY V0203601N00151220001CN0200001N9+03501+01901099451ADDAY111999GF101991011081012501001001MD1710351+9999MW1021REMSYN005999*1
0088874480999991973010623004-33733-065383FM-12+0485SARY V0203601N00101220001CN0200001N9+03401+01901099491ADDAA199000091AY111999GF100991001001999999001001MD1610341+9999MW1011REMSYN01170036 999*1
0071874480999991973010700004-33733-065383FM-12+0485SARY V0209991C00001220001CN0200001N9+03001+01901099531ADDAY101999GF100991001001999999001001MD1610131+9999MW1021REMSYN005999*1
0071874480999991973010701004-33733-065383FM-12+0485SARY V0209991C00001220001CN0200001N9+02701+01901099661ADDAY101999GF100991001001999999001001MD1010001+9999MW1021REMSYN005999*8
0071874480999991973010702004-33733-065383FM-12+0485SARY V0209991C00001220001CN0200001N9+02701+01801099731ADDAY101999GF100991001001999999001001MD1310131+9999MW1021REMSYN005997*3
0071874480999991973010709004-33733-065383FM-12+0485SARY V0201801N00361220001CN0200001N9+01701+01001100691ADDAY101999GF101991001001999999001021MD1210071+9999MW1031REMSYN00510082
0071874480999991973010710004-33733-065383FM-12+0485SARY V0201801N00511220001CN0200001N9+01801+01001100721ADDAY101999GF101991001001999999001021MD1210111+9999MW1021REMSYN00510093
0090874480999991973010711004-33733-065383FM-12+0485SARY V0201601N00511220001CN0200001N9+01701+00701999999ADDAY101999GF100991001001999999001001MD1210602+9999MW1021REMSYN00510130EQDQ01+000602APC3  
0081874480999991973010712004-33733-065383FM-12+0485SARY V0201601N00461220001CN0200001N9+02001+00501100161ADDAA199000091AY101999GF100991001001999999001001KA1999N+01601MD1210371+9999MW1021
0071874480999991973010713004-33733-065383FM-12+0485SARY V0201601N00671220001CN0200001N9+02101+00901101071ADDAY101999GF101991011011012501001001MD1210321+9999MW1031REMSYN00510127
0077874480999991973010714004-33733-065383FM-12+0485SARY V0201601N00771220001CN0200001N9+02201+01101101091ADDAY101999GF101991011011012501011051MD1210401+9999MW1021REMSYN0111013* 59***
0071874480999991973010715004-33733-065383FM-12+0485SARY V0202001N00511220001CN0200001N9+02401+00801101061ADDAY101999GF100991001001999999001001MD1110081+9999MW1011REMSYN00510130
0071874480999991973010716004-33733-065383FM-12+0485SARY V0202001N00611220001CN0200001N9+02501+00901101071ADDAY101999GF100991001001999999001001MD1110091+9999MW1021REMSYN00510135
0071874480999991973010717004-33733-065383FM-12+0485SARY V0201801N00671220001CN0200001N9+02601-00202100781ADDAY101999GF100991001001999999001001MD1810151+9999MW1021REMSYN00510114
0082874480999991973010718004-33733-065383FM-12+0485SARY V0201801N00671220001CN0200001N9+02701-00201100731ADDAA199000091AY101999GF100991001001999999001001MD1710271+9999MW1021REMSYN00510104
0071874480999991973010719004-33733-065383FM-12+0485SARY V0201801N00561220001CN0200001N9+02701-00201100771ADDAY101999GF100991001001999999001001MD1710271+9999MW1021REMSYN00510096
0071874480999991973010720004-33733-065383FM-12+0485SARY V0201401N00561220001CN0200001N9+02901+00001100591ADDAY101999GF100991001001999999001001MD1710201+9999MW1021REMSYN00510093
0071874480999991973010721004-33733-065383FM-12+0485SARY V0201901N00361220001CN0200001N9+02901+00101100531ADDAY101999GF102991011081012501001021MD1710101+9999MW1031REMSYN00510089
0071874480999991973010722004-33733-065383FM-12+0485SARY V0201601N00361220001CN0200001N9+02801+00001100581ADDAY101999GF103991021081012501001021MD1510011+9999MW1031REMSYN00510090
0088874480999991973010723004-33733-065383FM-12+0485SARY V0201401N00201220001CN0200001N9+02701+00201100631ADDAA199000091AY101999GF102991021081012501001001MD1310031+9999MW1011REMSYN01170029 10096
0076874480999991973010800004-33733-065383FM-12+0485SARY V0200201N00721220001CN0200001N9+02601+01502100341ADDAY101999GF100991001001999999001001MD1310081+9999MW1021EQDQ01+028823ATOD  
0071874480999991973010809004-33733-065383FM-12+0485SARY V0209991C00001015001CN0200001N9+01401+00701101181ADDAY111999GF107991071081012501001001MD1510071+9999MW1031REMSYN00510122
0071874480999991973010810004-33733-065383FM-12+0485SARY V0209991C00001015001CN0100001N9+01401+00701101211ADDAY121999GF106991061081012501001001MD1510001+9999MW1011REMSYN00510124
0071874480999991973010811004-33733-065383FM-12+0485SARY V0209991C00001220001CN0200001N9+01601+00801101151ADDAY111999GF104991041081012501001001MD1310041+9999MW1011REMSYN00510127
0095874480999991973010812004-33733-065383FM-12+0485SARY V0200901N00511220001CN0200001N9+02201+00501101051ADDAA199000091AY111999GF104991041081012501001001KA1999N+01201MD1010041+9999MW1021REMSYN00510124
0071874480999991973010813004-33733-065383FM-12+0485SARY V0200901N00411220001CN0100001N9+02401+00601100941ADDAY111999GF103991021081012501061001MD1810031+9999MW1051REMSYN00510122
0071874480999991973010814004-33733-065383FM-12+0485SARY V0200501N00611220001CN0100001N9+02801+00701100851ADDAY101999GF100991001001999999001001MD1810121+9999MW1051REMSYN00510114
0071874480999991973010815004-33733-065383FM-12+0485SARY V0203601N00151220001CN0100001N9+02901+00801100731ADDAY101999GF100991001001999999001001MD1710171+9999MW1051REMSYN00510106
0071874480999991973010816004-33733-065383FM-12+0485SARY V0203401N00251220001CN0100001N9+03001+00701100691ADDAY101999GF101991011081012501001001MD1710191+9999MW1051REMSYN00510102
0071874480999991973010817004-33733-065383FM-12+0485SARY V0203401N00511220001CN0200001N9+03201+00801100411ADDAY101999GF102991021081012501001001MD1710291+9999MW1031REMSYN00510084
0068874480999991973010818004-33733-065383FM-12+0485SARY V0202701N00411220001CN0200001N9+03301+00901100361ADDAA199000091AY101999GF102991021081012501001001MD1610251+9999MW1021
0071874480999991973010819004-33733-065383FM-12+0485SARY V0203401N00511220001CN0200001N9+03301+00801100271ADDAY101999GF102991021081012501001001MD1810311+9999MW1021REMSYN00510069
0071874480999991973010820004-33733-065383FM-12+0485SARY V0200201N00411220001CN0200001N9+03301+01001100211ADDAY101999GF101991011091012501001001MD1610201+9999MW1011REMSYN00510063
0071874480999991973010821004-33733-065383FM-12+0485SARY V0202901N00301220001CN0200001N9+03301+00901100151ADDAY101999GF100991001001999999001001MD1610211+9999MW1011REMSYN00510057
0071874480999991973010822004-33733-065383FM-12+0485SARY V0203401N00201220001CN0200001N9+03201+01001100131ADDAY101999GF100991001001999999001001MD1610151+9999MW1021REMSYN00510054
0088874480999991973010823004-33733-065383FM-12+0485SARY V0200501N00721220001CN0200001N9+02901+01001100231ADDAA199000091AY101999GF100991001001999999001001MD1510041+9999MW1021REMSYN01170034 10099
0090874480999991973010900004-33733-065383FM-12+0485SARY V0200201N00721220001CN0200001N9+02601+99999100341ADDAY101999GF100991001001999999001001MD1010001+9999MW1021REMSYN00510065EQDQ01+027023ATOD  
0088874480999991973010903004-33733-065383FM-12+0485SARY V0209991C00001220001CN0200001N9+01601+00801100581ADDAA199000091AY101999GF100991001001999999001001MD1110081+9999MW1021REMSYN01110074 09070
0071874480999991973010909004-33733-065383FM-12+0485SARY V0209991C00001220001CN0200001N9+01501+00901100751ADDAY101999GF100991001001999999001001MD1110091+9999MW1021REMSYN00510042
0071874480999991973010910004-33733-065383FM-12+0485SARY V0203601N00051220001CN0200001N9+01401+00801100541ADDAY101999GF101991011081012501001001MD1610211+9999MW1031REMSYN00510049
0071874480999991973010911004-33733-065383FM-12+0485SARY V0209991C00001220001CN0200001N9+99999+99999100421ADDAY101999GF101991011081012501001001MD1310011+9999MW1021REMSYN00510061
0095874480999991973010912004-33733-065383FM-12+0485SARY V0203401N00611220001CN0200001N9+02801+01001100301ADDAA199000091AY101999GF101991011081012501001001KA1999N+01301MD1110011+9999MW1021REMSYN00510061
0071874480999991973010913004-33733-065383FM-12+0485SARY V0203401N00611220001CN0200001N9+03001+01101100191ADDAY101999GF103991031081012501001001MD1010001+9999MW1031REMSYN00510059
0063874480999991973010914004-33733-065383FM-12+0485SARY V0200201N00301220001CN0200001N9+03201+01101100411ADDGF102991021081012501001001MD1810051+9999MW1101REMSYN00510056
0071874480999991973010915004-33733-065383FM-12+0485SARY V0200701N00251220001CN0200001N9+03401+01401100091ADDAY101999GF102991021081012501001001MD1810071+9999MW1021REMSYN00510054
0071874480999991973010916004-33733-065383FM-12+0485SARY V0200701N00251220001CN0300001N9+03501+01301100051ADDAY101999GF101991011081012501001001MD1810091+9999MW1021REMSYN00510050
0090874480999991973010917004-33733-065383FM-12+0485SARY V0200901N00151220001CN0250001N9+03501+99999099981ADDAY101999GF102991021011012501001001MD1710121+9999MW1031REMSYN00510052EQDQ01+029823ATOD  
0101874480999991973010918004-33733-065383FM-12+0485SARY V0200901N00251220001CN0550001N9+03501+01501099931ADDAA199000091AY101999GF102991999081012501001001MD1710161+9999MW1021REMSYN00510036EQDQ01+000012SCOTLC
0071874480999991973010919004-33733-065383FM-12+0485SARY V0200701N00201220001CN0240001N9+03401+01701099871ADDAY101999GF102991011011012501001051MD1710171+9999MW1011REMSYN00510031
0071874480999991973010920004-33733-065383FM-12+0485SARY V0200701N00251220001CN0250001N9+03601+01601099771ADDAY101999GF103991011011012501001011MD1710061+9999MW1031REMSYN00510025
0071874480999991973010921004-33733-065383FM-12+0485SARY V0200801N00251220001CN0150001N9+03601+01701099691ADDAY101999GF104991011011000251051061MD1710201+9999MW1031REMSYN00510018
0071874480999991973010922004-33733-065383FM-12+0485SARY V0200901N00771220001CN0200001N9+03401+01501099731ADDAY111999GF106991021081012501001061MD1610151+9999MW1031REMSYN00510017
0071874480999991973011010004-33733-065383FM-12+0485SARY V0209991C00001015001CN0200001N9+01901+01701100331ADDAY121999GF107991071081012501001061MD1110111+9999MW1021REMSYN00510048
0071874480999991973011011004-33733-065383FM-12+0485SARY V0209991C00001090001CN0200001N9+02001+01001100331ADDAY121999GF107991021081012501001061MD1810071+9999MW1021REMSYN00510048
0095874480999991973011012004-33733-065383FM-12+0485SARY V0209991C00001220001CN0200001N9+02301+01901100301ADDAA199000091AY121999GF106991021081012501001061KA1999N+01601MD1310061+9999MW1011REMSYN00510054
0071874480999991973011013004-33733-065383FM-12+0485SARY V0202901N00101220001CN0200001N9+02801+02101100181ADDAY121999GF106991021081012501001061MD1110041+9999MW1021REMSYN00510052
0071874480999991973011014004-33733-065383FM-12+0485SARY V0202701N00101090001CN0200001N9+03101+02101100131ADDAY121999GF107991021081012501001061MD1110031+9999MW1031REMSYN00510051
0071874480999991973011015004-33733-065383FM-12+0485SARY V0209991C00001090001CN0200001N9+03201+02101100101ADDAY121999GF107991021081012501001061MD1110011+9999MW1021REMSYN00510049
0071874480999991973011016004-33733-065383FM-12+0485SARY V0203201N00251090001CN0200001N9+03401+01901100011ADDAY121999GF107991031081012501001061MD1810111+9999MW1021REMSYN00510042
0071874480999991973011017004-33733-065383FM-12+0485SARY V0209999999999090001CN0200001N9+03501+01801999999ADDAY121999GF106991041081012501001021MD1710391+9999MW1031REMSYN00510031
0082874480999991973011018004-33733-065383FM-12+0485SARY V0201101N00201090001CN0100001N9+03501+02702099821ADDAA199000091AY121999GF107991041081012501001081MD1710201+9999MW1011REMSYN00510022
0071874480999991973011019004-33733-065383FM-12+0485SARY V0201401N00411015001CN0200001N9+03601+02001099701ADDAY121999GF107991051081012501001061MD1710201+9999MW1021REMSYN00510211
0087874480999991973011020004-33733-065383FM-12+0485SARY V0201101N00461220001CN0200001N9+03701+02001099631ADDAY111999GA1021+015009089GF104991999999999999999999MD1710171+9999MW1011REMSYN00510034
0112874480999991973011021004-33733-065383FM-12+0485SARY V0201401N00461220001CN0200001N9+99999+99999099591ADDAY111999GA1011+015009089GF103991031081000751031031MD1610231+9999MW1011REMSYN01120716 100*1EQDQ01+000002APC3  
0087874480999991973011022004-33733-065383FM-12+0485SARY V0201101N00201220001CN0200001N9+03501+02001099611ADDAY111999GA1011+015009099GF102991021081012501001001MD1610121+9999MW1011REMSYN00510008
0087874480999991973011100004-33733-065383FM-12+0485SARY V0209991C00001220001CN0200001N9+03101+02001099951ADDAY101999GA1021+015009099GF103991031081012501001001MD1310231+9999MW1021REMSYN00510033
0071874480999991973011109004-33733-065383FM-12+0485SARY V0209991C00001220001CN0200001N9+02201+01901100531ADDAY101999GF101991011091012501001001MD1210151+9999MW1021REMSYN00510071
0071874480999991973011110004-33733-065383FM-12+0485SARY V0203601N00101220001CN0200001N9+02101+01901100571ADDAY101999GF101991011091012501001001MD1210171+9999MW1021REMSYN00510078
0071874480999991973011111004-33733-065383FM-12+0485SARY V0209991C00001220001CN0200001N9+02301+01901100511ADDAY101999GF102991011081012501001021MD1010121+9999MW1031REMSYN00510077
0081874480999991973011112004-33733-065383FM-12+0485SARY V0200901N00151220001CN0200001N9+02501+02001100461ADDAA199000091AY101999GF101991011081012501001001KA1999N+02001MD1010001+9999MW1011
0071874480999991973011113004-33733-065383FM-12+0485SARY V0200701N00251220001CN0200001N9+02801+02201100371ADDAY101999GF101991011081012501001001MD1810051+9999MW1021REMSYN00510072
0071874480999991973011114004-33733-065383FM-12+0485SARY V0200901N00671220001CN0200001N9+03101+02301100301ADDAY101999GF102991021081012501001001MD1810071+9999MW1031REMSYN00510069
0087874480999991973011115004-33733-065383FM-12+0485SARY V0200901N00721220001CN0200001N9+03201+02301100231ADDAY101999GA1011+015009099GF103991031081012501001001MD1710081+9999MW1031REMSYN00510065
0087874480999991973011116004-33733-065383FM-12+0485SARY V0200901N00671015001CN0200001N9+03101+02301100211ADDAY101999GA1021+015009099GF106991061081012501001001MD1710121+9999MW1021REMSYN00510060
0054874480999991973011118004-33733-065383FM-12+0485SARY V0200701N00611012001CN0200001N9+02801+99999100191ADDAA199000091AY111999GF107991071091012501001081MW1171
0120874480999991973011119004-33733-065383FM-12+0485SARY V0200701N00611012001CN0200001N9+02801+99999100191ADDAA199000091AY111999GF107991071091012501001001MA1999999050321MW1171UA1M990309999UG1070752309UG2070752309REMSYN00505034
0071874480999991973011120004-33733-065383FM-12+0485SARY V0200701N00611036001CN0200001N9+02701+02301100131ADDAY191999GF106991031021012501061001MD1610181+9999MW1291REMSYN00510047
0087874480999991973011121004-33733-065383FM-12+0485SARY V0200501N00771015001CN0300001N9+03001+02501099981ADDAY191999GA1011+015009099GF107991051081012501001021MD1810211+9999MW1031REMSYN00510031
0071874480999991973011122004-33733-065383FM-12+0485SARY V0200701N00411220001CN0300001N9+03001+02501099901ADDAY111999GF103991021031012501001021MD1710281+9999MW1011REMSYN00510036
0088874480999991973011123004-33733-065383FM-12+0485SARY V0200701N00301220001CN0300001N9+02901+02401099901ADDAA199010091AY111999GF102991011031012501001021MD1610151+9999MW1011REMSYN01171033 10027
0087874480999991973011209004-33733-065383FM-12+0485SARY V0209991C00001015001CN0200001N9+02201+02001100571ADDAY191999GA1031+015009099GF108991081081012501999999MD1210191+9999MW1291REMSYN00510078
0087874480999991973011210004-33733-065383FM-12+0485SARY V0209991C00001012001CN0200001N9+02201+02101100631ADDAY191999GA1031+009009099GF107991071081008001001001MD1210101+9999MW1171REMSYN00510085
0087874480999991973011211004-33733-065383FM-12+0485SARY V0201801N00251015001CN0200001N9+02101+02001100711ADDAY121999GA1021+012009099GF107991071081012501001001MD1210211+9999MW1171REMSYN00510093
0111874480999991973011212004-33733-065383FM-12+0485SARY V0201601N00511015001CN0200001N9+02201+01801100761ADDAA199013091AY191999GA1011+012009099GF107991071081012501001001KA1999N+02201MD1210201+9999MW1021REMSYN00510099
0087874480999991973011213004-33733-065383FM-12+0485SARY V0201401N00461012001CN0200001N9+02201+01301100831ADDAY121999GA1021+009009099GF107991071081008001001001MD1210161+9999MW1611REMSYN00510102
0087874480999991973011214004-33733-065383FM-12+0485SARY V0201801N00511007501CN0050001N9+01901+01301100971ADDAY161999GA1021+009009059GF107991071091008001001001MD1210171+9999MW1601REMSYN00510111
0071874480999991973011215004-33733-065383FM-12+0485SARY V0201401N00411015001CN0050001N9+01501+01401101061ADDAY161999GF107991071081012501001001MD1210131+9999MW1911REMSYN00510113
0087874480999991973011216004-33733-065383FM-12+0485SARY V0201101N00251015001CN0200001N9+01501+01401101061ADDAY161999GA1021+009009099GF108991071081012501999999MD1110111+9999MW1291REMSYN00510113
0087874480999991973011217004-33733-065383FM-12+0485SARY V0209991C00001012001CN0200001N9+01701+01501101141ADDAY191999GA1031+015009099GF108991081081008001999999MD1110231+9999MW1171REMSYN00510126
0098874480999991973011218004-33733-065383FM-12+0485SARY V0203601N00101012001CN0200001N9+01801+01401101021ADDAA199020091AY161999GA1021+015009099GF108991081081008001999999MD1110041+9999MW1021REMSYN00510117
0112874480999991973011219004-33733-065383FM-12+0485SARY V0200201N00101012001CN0200001N9+02201+01401100851ADDAY121999GA1011+015009099GF107991999081008001001001MD1810081+9999MW1011REMSYN01101*** 10105EQDQ01+000062SCOTLC
0071874480999991973011220004-33733-065383FM-12+0485SARY V0200901N00101012001CN0250001N9+02301+01201100681ADDAY121999GF107991051081008001001061MD1710291+9999MW1031REMSYN00510094
0071874480999991973011221004-33733-065383FM-12+0485SARY V0200901N00251012001CN0300001N9+02301+01201100571ADDAY121999GF107991051081008001001061MD1710331+9999MW1021REMSYN00510081
0071874480999991973011222004-33733-065383FM-12+0485SARY V0209991C00001007501CN0300001N9+02201+01401100621ADDAY121999GF108991051051008001031001MD1610161+9999MW1031REMSYN00510088
0087874480999991973011311004-33733-065383FM-12+0485SARY V0201101N00151012001CN0200001N9+01601+01601100821ADDAY121999GA1021+015009099GF108991081081008001999999MD1410001+9999MW1021REMSYN00510096
0104874480999991973011313004-33733-065383FM-12+0485SARY V0201401N00251002101CN0100001N9+01701+01601100851ADDAA199100091AY191999GA1031+009009089GF108991081061002501999999MD1310031+9999MW1601REMSYN01176014 10074
0071874480999991973011314004-33733-065383FM-12+0485SARY V0201401N00511002101CN0080001N9+01601+01501100861ADDAY121999GF108991081061002501999999MD1110041+9999MW1101REMSYN00510101
0071874480999991973011315004-33733-065383FM-12+0485SARY V0201401N00511001201CN0100001N9+01601+01501100851ADDAY121999GF108991081091001501999999MD1410001+9999MW1101REMSYN00510099
0071874480999991973011316004-33733-065383FM-12+0485SARY V0201401N00511000301CN0050001N9+01701+01601100861ADDAY121999GF108991081071000251999999MD1810031+9999MW1501REMSYN00510101
0106874480999991973011317004-33733-065383FM-12+0485SARY V0201401N00151000601CN0030001N9+01701+01701100851ADDAY151999GF108991081071000751999999MD1710011+9999MW1501REMSYN00510091EQDQ01+000042APCTENQ02+000012APC3  
0082874480999991973011318004-33733-065383FM-12+0485SARY V0201401N00411000601CN0030001N9+01701+01701100851ADDAA199005091AY151999GF108991081071000751999999MD1010001+9999MW1501REMSYN00510099
0071874480999991973011319004-33733-065383FM-12+0485SARY V0201401N00611000601CN0018001N9+01501+01401100891ADDAY151999GF108991081071000751999999MD1610011+9999MW1511REMSYN00510099
0071874480999991973011320004-33733-065383FM-12+0485SARY V0201401N00611000301CN0015001N9+01601+01501999999ADDAY151999GF108991081071000251999999MD1310011+9999MW1511REMSYN00510101
0071874480999991973011321004-33733-065383FM-12+0485SARY V0201801N00671000301CN0012001N9+01601+01501100951ADDAY151999GF108991081071000251999999MD1310031+9999MW1511REMSYN00510102
0071874480999991973011322004-33733-065383FM-12+0485SARY V0201801N00511000301CN0012001N9+01501+01501100941ADDAY151999GF108991081071000251999999MD1810011+9999MW1511REMSYN00510101
0088874480999991973011323004-33733-065383FM-12+0485SARY V0201801N00511000301CN0015001N9+01501+01401101101ADDAA199003091AY151999GF108991081071000251999999MD1310161+9999MW1511REMSYN01170315 10117
0071874480999991973011409004-33733-065383FM-12+0485SARY V0201801N00511000301CN0015001N9+01301+01201101821ADDAY151999GF108991081071000251999999MD1210201+9999MW1501REMSYN00510185
0071874480999991973011410004-33733-065383FM-12+0485SARY V0201801N00511000301CN0015001N9+01301+01201101901ADDAY151999GF108991081071000251999999MD1210171+9999MW1501REMSYN00510193
0071874480999991973011411004-33733-065383FM-12+0485SARY V0201801N00511000301CN0020001N9+01201+01201101991ADDAY151999GF108991081071000251999999MD1210201+9999MW1501REMSYN00510203
0095874480999991973011412004-33733-065383FM-12+0485SARY V0201801N00361000301CN0030001N9+01301+01201102041ADDAA199012091AY151999GF108991081071000251999999KA1999N+01201MD1210091+9999MW1101REMSYN00510208
0071874480999991973011413004-33733-065383FM-12+0485SARY V0201601N003019999999N0050001N9+01401+01301102121ADDAY151999GF107991999999999999999999MD1210231+9999MW1101REMSYN00510215
0087874480999991973011414004-33733-065383FM-12+0485SARY V0201601N00251000901CN0100001N9+01401+01301102081ADDAY151999GA1051+000909079GF107991071081004501001001MD1210131+9999MW1011REMSYN00510215
0093874480999991973011415004-33733-065383FM-12+0485SARY V0201601N00201012001CN0150001N9+01501+01301102041ADDAY121999GA1041+001809079GF107991071081008001001001MD1310131+9999MW1021REMSYN01113213 10221
0071874480999991973011417004-33733-065383FM-12+0485SARY V0201601N00201012001CN0100001N9+01901+01401101981ADDAY121999GF106991061081008001001001MD1810031+9999MW1011REMSYN00510214
0107874480999991973011418004-33733-065383FM-12+0485SARY V0201401N00201015001CN0200001N9+02001+01201101911ADDAA199000091AY121999GF107991999081012501001001MD1710151+9999MW1021REMSYN01110133 10207EQDQ01+000062SCOTLC
0071874480999991973011419004-33733-065383FM-12+0485SARY V0201801N00151015001CN0300001N9+02001+01201101821ADDAY121999GF105991051081012501001001MD1810111+9999MW1021REMSYN00510201
0071874480999991973011420004-33733-065383FM-12+0485SARY V0200901N00151220001CN0200001N9+02101+01201101721ADDAY111999GF104991041081012501001001MD1710211+9999MW1011REMSYN00510191
0090874480999991973011421004-33733-065383FM-12+0485SARY V0201401N00101220001CN0200001N9+02201+01201101671ADDAY111999GF104991999081012501001001MD1710201+9999MW1021REMSYN00510186EQDQ01+000032SCOTLC
0090874480999991973011422004-33733-065383FM-12+0485SARY V0200501N001019999999N0200001N9+02101+01201101641ADDAY101999GF105991999081012501001001MD1710171+9999MW1021REMSYN00510183EQDQ01+000042SCOTLC
0088874480999991973011423004-33733-065383FM-12+0485SARY V0200901N00101220001CN0200001N9+02001+01301101671ADDAA199000091AY101999GF101991011041012501001001MD1510051+9999MW1011REMSYN01170022 10186
0082874480999991973011508004-33733-065383FM-12+0485SARY V0203601N00101220001CN0200001N9+01101+00901101991ADDAA199000091AY101999GF100991001001999999001001MD1810091+9999MW1021REMSYN00510198
0071874480999991973011511004-33733-065383FM-12+0485SARY V0209991C00001220001CN0200001N9+01101+00801101881ADDAY101999GF100991001001999999001001MD1510031+9999MW1021REMSYN00510187
0095874480999991973011512004-33733-065383FM-12+0485SARY V0203601N00151220001CN0200001N9+99999+99999101781ADDAA199000091AY101999GF100991001001999999001001KA1999N+00701MD1310011+9999MW1021REMSYN00510189
0071874480999991973011513004-33733-065383FM-12+0485SARY V0200901N00511220001CN0300001N9+02101+01101101671ADDAY101999GF100991001001999999001001MD1010001+9999MW1021REMSYN00510186
0071874480999991973011514004-33733-065383FM-12+0485SARY V0200701N00561220001CN0300001N9+02301+00901101581ADDAY101999GF100991001001999999001001MD1810071+9999MW1021REMSYN00510180
0071874480999991973011515004-33733-065383FM-12+0485SARY V0200701N00301220001CN0300001N9+02401+01001101501ADDAY101999GF100991001001999999001001MD1710121+9999MW1021REMSYN00510176
0071874480999991973011516004-33733-065383FM-12+0485SARY V0200801N00361220001CN0300001N9+99999+99999101391ADDAY101999GF100991001001999999001001MD1710161+9999MW1021REMSYN00510169
0071874480999991973011517004-33733-065383FM-12+0485SARY V0201101N00251220001CN0400001N9+02701+01301101271ADDAY101999GF100991001001999999001001MD1710201+9999MW1021REMSYN00510150
0090874480999991973011518004-33733-065383FM-12+0485SARY V0200901N00411220001CN0400001N9+02801+99999101211ADDAY101999GF100991999999999999999999MD1010001+9999MW1021REMSYN00510151EQDQ01+025323ATOD  
0071874480999991973011519004-33733-065383FM-12+0485SARY V0201101N00361220001CN0150001N9+02701+01701101051ADDAY101999GF100991001001999999001001MD1710281+9999MW1021REMSYN00510140
0071874480999991973011521004-33733-065383FM-12+0485SARY V0200801N00671220001CN0300001N9+02801+01701100901ADDAY101999GF100991001001999999001001MD1710311+9999MW1021REMSYN00510120
0071874480999991973011522004-33733-065383FM-12+0485SARY V0200701N00671220001CN0300001N9+02701+01601100801ADDAY101999GF100991001001999999001001MD1610231+9999MW1021REMSYN00510115
0088874480999991973011523004-33733-065383FM-12+0485SARY V0200701N00671220001CN0300001N9+02601+01601100891ADDAA199000091AY101999GF100991001001999999001001MD1610091+9999MW1021REMSYN01170029 10115
0071874480999991973011600004-33733-065383FM-12+0485SARY V0209991C00001220001CN0300001N9+02201+01601100911ADDAY101999GF100991001001999999001001MD1610011+9999MW1021REMSYN00510116
0071874480999991973011609004-33733-065383FM-12+0485SARY V0209991C00001220001CN0300001N9+01601+01401100871ADDAY111999GF100991001001999999001001MD1710221+9999MW1021REMSYN00510098
0071874480999991973011610004-33733-065383FM-12+0485SARY V0200901N00101220001CN0400001N9+01601+01401100891ADDAY101999GF100991001001999999001001MD1310011+9999MW1021REMSYN00510099
0071874480999991973011611004-33733-065383FM-12+0485SARY V0200901N00101220001CN0400001N9+02001+01601100861ADDAY101999GF101991011081012501001001MD1310031+9999MW1031REMSYN00510101
0095874480999991973011612004-33733-065383FM-12+0485SARY V0201101N00101220001CN0400001N9+02201+01601100791ADDAA199000091AY101999GF103991031081012501001001KA1999N+01601MD1310041+9999MW1031REMSYN00510102
0071874480999991973011613004-33733-065383FM-12+0485SARY V0201201N00101220001CN0400001N9+02501+01601100701ADDAY101999GF103991031081012501001001MD1010001+9999MW1021REMSYN00510099
0071874480999991973011614004-33733-065383FM-12+0485SARY V0201601N00101220001CN0300001N9+02701+01501100661ADDAY101999GF103991031081012501001001MD1810011+9999MW1021REMSYN00510099
0071874480999991973011615004-33733-065383FM-12+0485SARY V0201401N00101220001CN0300001N9+02801+01701100621ADDAY101999GF102991021081012501001001MD1610031+9999MW1011REMSYN00510088
0071874480999991973011616004-33733-065383FM-12+0485SARY V0203601N00511220001CN0300001N9+03001+01701100531ADDAY101999GF101991011081012501001001MD1810051+9999MW1021REMSYN00510093
0082874480999991973011618004-33733-065383FM-12+0485SARY V0200301N00821220001CN0300001N9+03201+01801100341ADDAA199000091AY101999GF102991021011012501001001MD1710241+9999MW1031REMSYN00510073
0071874480999991973011619004-33733-065383FM-12+0485SARY V0203201N00251220001CN0300001N9+03201+02001100221ADDAY101999GF103991031081012501001001MD1710281+9999MW1031REMSYN00510064
0071874480999991973011620004-33733-065383FM-12+0485SARY V0200701N00411220001CN0300001N9+03301+01901100141ADDAY101999GF102991021081012501001001MD1710251+9999MW1011REMSYN00510057
0090874480999991973011621004-33733-065383FM-12+0485SARY V0200201N00411220001CN0300001N9+03301+99999100051ADDAY101999GF101991011081012501001001MD1710271+9999MW1011REMSYN00510046EQDQ01+030223ATOD  
0071874480999991973011622004-33733-065383FM-12+0485SARY V0200201N00511220001CN0300001N9+03201+02001100071ADDAY101999GF101991011011012501001001MD1610171+9999MW1011REMSYN00510046
0088874480999991973011623004-33733-065383FM-12+0485SARY V0200201N00511220001CN0300001N9+03001+02001100101ADDAA199000091AY101999GF100991001001999999001001MD1610081+9999MW1011REMSYN01170034 10048
0090874480999991973011700004-33733-065383FM-12+0485SARY V0200501N00251220001CN0300001N9+02701+02001100291ADDAY101999GF103991999091012501001001MD1310131+9999MW1031REMSYN00510060EQDQ01+000012SCOTLC
0071874480999991973011701004-33733-065383FM-12+0485SARY V0200501N00251220001CN0300001N9+02501+02001100351ADDAY101999GF101991011091012501001001MD1210161+9999MW1131REMSYN00510063
0071874480999991973011702004-33733-065383FM-12+0485SARY V0200201N00101220001CN0300001N9+02401+01901100451ADDAY101999GF101991011091012501001001MD1210201+9999MW1131REMSYN00510069
0092874480999991973011709004-33733-065383FM-12+0485SARY V0200201N002519999999N0300001N9+01801+01701100381ADDAY111999GF107991071001012501001001MW1031REMSYN00510072EQDQ01+000042APCTENQ02+000132APC3  
0071874480999991973011710004-33733-065383FM-12+0485SARY V0201801N00251015001CN0300001N9+01901+01801100781ADDAY121999GF107991071081012501001001MD1210271+9999MW1021REMSYN00510091
0087874480999991973011711004-33733-065383FM-12+0485SARY V0209991C00001012001CN0300001N9+02001+01801100911ADDAY121999GA1021+002409079GF106991061081008001001001MD1210231+9999MW1011REMSYN00510106
0081874480999991973011712004-33733-065383FM-12+0485SARY V0209991C00001012001CN0300001N9+02101+01901100891ADDAA199000091AY121999GF106991061081008001001001KA1999N+01801MD1110121+9999MW1021
0071874480999991973011713004-33733-065383FM-12+0485SARY V0209991C00001012001CN0300001N9+02401+02001100821ADDAY121999GF106991051081008001031001MD1110091+9999MW1031REMSYN00510109
0071874480999991973011714004-33733-065383FM-12+0485SARY V0209991C00001012001CN0300001N9+02501+02101100821ADDAY121999GF107991051081008001031001MD1110031+9999MW1031REMSYN00510109
0071874480999991973011715004-33733-065383FM-12+0485SARY V0209991C00001012001CN0300001N9+02801+01302100751ADDAY121999GF106991051081008001031001MD1110011+9999MW1011REMSYN00510109
0071874480999991973011716004-33733-065383FM-12+0485SARY V0201801N00101012001CN0300001N9+03001+02001100691ADDAY121999GF106991061081008001001001MD1810031+9999MW1031REMSYN00510103
0087874480999991973011718004-33733-065383FM-12+0485SARY V0201601N004119999999N0300001N9+03101+02001100551ADDAA199000091AY121999GF106991999081008001001001MD1710121+9999MW1021EQDQ01+000002SCOTLC
0087874480999991973011721004-33733-065383FM-12+0485SARY V0201101N00411012001CN0300001N9+03201+02201100431ADDAY111999GA1021+012009089GF105991051081008001001001MD1710121+9999MW1021REMSYN00510083
0087874480999991973011722004-33733-065383FM-12+0485SARY V0201101N00361220001CN0300001N9+02901+02201100471ADDAY111999GA1021+012009089GF104991041081008001001001MD1610081+9999MW1011REMSYN00510083
0104874480999991973011723004-33733-065383FM-12+0485SARY V0201101N00301220001CN0300001N9+03001+02301100531ADDAA199000091AY111999GA1011+012009089GF103991031081008001001001MD1310031+9999MW1011REMSYN01170033 10089
0071874480999991973011800004-33733-065383FM-12+0485SARY V0209991C00001220001CN0300001N9+02701+02201100631ADDAY111999GF102991021081012501001001MD1310121+9999MW1011REMSYN00510096
0071874480999991973011805004-33733-065383FM-12+0485SARY V0209991C00001220001CN0150001N9+02301+02101100891ADDAY101999GF105991011091012501001061MD1810011+9999MW1131REMSYN00510112
0098874480999991973011806004-33733-065383FM-12+0485SARY V0209991C00001036001CN0100001N9+02201+02101100891ADDAA199000091AY101999GA1011+015009099GF108991021081012501011061MD1810081+9999MW1131REMSYN0051011*
0087874480999991973011807004-33733-065383FM-12+0485SARY V0209991C00001012001CN0100001N9+02201+02101100851ADDAY111999GA1021+015009099GF107991061081008001001061MD1710121+9999MW1131REMSYN00510102
0103874480999991973011808004-33733-065383FM-12+0485SARY V0209991C00001015001CN0100001N9+02301+02201100821ADDAY121999GA1041+000909049GA2061+015009099GF108991999999999999999999MD1510071+9999MW1171REMSYN00510105
0073874480999991973011811004-33733-065383FM-12+0485SARY V0203401N00151012001CN0200001N9+02001+01901100911ADDAY191999GA1031+015009099GF106991061081008001001001MW1171REMSYN00510106
0111874480999991973011812004-33733-065383FM-12+0485SARY V0201801N00511007501CN0100001N9+02001+01901100901ADDAA199007091AY191999GA1021+003009079GF108991081091008001999999KA1999N+01801MD1710111+9999MW1171REMSYN00510105
0071874480999991973011813004-33733-065383FM-12+0485SARY V0209991C00001007501CN0150001N9+01901+01801101131ADDAY191999GF108991081091008001999999MD1210171+9999MW1911REMSYN00510128
0071874480999991973011814004-33733-065383FM-12+0485SARY V0203401N00101012001CN0100001N9+01901+01801101051ADDAY191999GF108991081091012501999999MD1210241+9999MW1951REMSYN00510131
0087874480999991973011815004-33733-065383FM-12+0485SARY V0202301N00461012001CN0200001N9+02001+01801101211ADDAY191999GA1041+015009099GF108991081081008001999999MD1210311+9999MW1911REMSYN00510136
0087874480999991973011817004-33733-065383FM-12+0485SARY V0201601N00151009001CN0200001N9+02301+01901100951ADDAY191999GA1031+012009099GF107991071081004501001001MD1810121+9999MW1171REMSYN00510119
0087874480999991973011819004-33733-065383FM-12+0485SARY V0201101N00251009001CN0200001N9+02401+02001100941ADDAY191999GA1011+012009099GF107991071081004501001001MD1510081+9999MW1021REMSYN00510123
0087874480999991973011820004-33733-065383FM-12+0485SARY V0201101N00251006001CN0200001N9+02501+02001100891ADDAY121999GA1011+012009099GF106991061081002501001001MD1810031+9999MW1011REMSYN00510115
0101874480999991973011821004-33733-065383FM-12+0485SARY V0201101N00301006001CN0200001N9+02601+02001100811ADDAY121999GA1011+012009099GA2011+012009099GF106991061081002501001001MD1810081+9999MW1021UG1110501009
0071874480999991973011822004-33733-065383FM-12+0485SARY V0201401N00301006001CN0200001N9+02501+02001100901ADDAY121999GF106991061081002501001001MD1510041+9999MW1021REMSYN00510117
0071874480999991973012000004-33733-065383FM-12+0485SARY V0200901N00101220001CN0300001N9+02301+01801101301ADDAY111999GF101991011011012501001001MD1310011+9999MW1021REMSYN00510155
0088874480999991973012008004-33733-065383FM-12+0485SARY V0209991C00001220001CN0300001N9+01701+01601101431ADDAA199000091AY101999GF100991001001999999001001MD1810021+9999MW1021REMSYN01110160 0700*
0071874480999991973012009004-33733-065383FM-12+0485SARY V0209991C00001220001CN0300001N9+01501+01201101411ADDAY101999GF102991021081012501001001MD1810151+9999MW1021REMSYN00510143
0071874480999991973012010004-33733-065383FM-12+0485SARY V0209991C00001090001CN0300001N9+01601+01501101221ADDAY111999GF105991021081012501001021MD1710171+9999MW1031REMSYN00510134
0106874480999991973012011004-33733-065383FM-12+0485SARY V0209991C00001090001CN0300001N9+01801+01701101191ADDAY111999GF106991021081012501001021MD1710241+9999MW1031REMSYN00510135EQDQ01+000032APCTENQ02+000612APC3  
0095874480999991973012012004-33733-065383FM-12+0485SARY V0209991C00001090001CN0400001N9+01901+01801101231ADDAA199000091AY121999GF107991021081012501001061KA1999N+01501MD1310051+9999MW1031REMSYN00510140
0071874480999991973012013004-33733-065383FM-12+0485SARY V0209991C00001090001CN0400001N9+02201+01701101231ADDAY121999GF107991011011012501001061MD1210131+9999MW1011REMSYN00510148
0071874480999991973012014004-33733-065383FM-12+0485SARY V0209991C00001090001CN0400001N9+02501+01801101061ADDAY121999GF107991011011012501001061MD1810011+9999MW1021REMSYN00510134
0071874480999991973012015004-33733-065383FM-12+0485SARY V0209991C00001090001CN0400001N9+02501+01801101031ADDAY121999GF107991011011012501001061MD1810081+9999MW1021REMSYN00510131
0071874480999991973012016004-33733-065383FM-12+0485SARY V0209999999999090001CN0400001N9+02701+01601100971ADDAY121999GF107991021081012501001061MD1810071+9999MW1031REMSYN00510127
0071874480999991973012017004-33733-065383FM-12+0485SARY V0209991C00001090001CN0400001N9+02801+01901100811ADDAY121999GF107991021081012501001061MD1710191+9999MW1021REMSYN00510129
0101874480999991973012018004-33733-065383FM-12+0485SARY V0201601N00201090001CN0300001N9+03001+02001100731ADDAA199999999AY121999GF107991021081012501001061MD1710201+9999MW1921REMSYN00510110EQDQ01  00002PRCP99
0071874480999991973012019004-33733-065383FM-12+0485SARY V0200501N00151090001CN9999999N9+03001+01202100621ADDAY121999GF107991021081012501001061MD1710271+9999MW1021REMSYN00510099
0071874480999991973012021004-33733-065383FM-12+0485SARY V0200701N00301220001CN0400001N9+02801+02201100501ADDAY121999GF106991011081012501001061MD1710131+9999MW1011REMSYN00510089
0071874480999991973012022004-33733-065383FM-12+0485SARY V0200701N00361220001CN0400001N9+02901+02001100491ADDAY121999GF105991011021012501001061MD1710131+9999MW1011REMSYN00510084
0088874480999991973012023004-33733-065383FM-12+0485SARY V0200701N00251220001CN0400001N9+02801+02101100461ADDAA199000091AY121999GF105991011021012501001061MD1710131+9999MW1021REMSYN01170031 10081
0088874480999991973012108004-33733-065383FM-12+0485SARY V0209991C00001220001CN0300001N9+01801+01501100571ADDAA199000091AY101999GF100991001001999999001001MD1110011+9999MW1021REMSYN01110073 0700*
0071874480999991973012109004-33733-065383FM-12+0485SARY V0209991C00001220001CN0300001N9+01801+01601100571ADDAY101999GF101991001001999999001021MD1810041+9999MW1031REMSYN00510069
0090874480999991973012110004-33733-065383FM-12+0485SARY V0209991C00001220001CN0300001N9+01801+01601100501ADDAY101999GF102991999081012501001001MD1810091+9999MW1031REMSYN00510063EQDQ01+000012SCOTLC
0096874480999991973012111004-33733-065383FM-12+0485SARY V0201801N00151220001CN0300001N9+01801+01801100741ADDAY101999GF102991999081012501001021MD1610021+9999MW1021REMSYN01112315 10080EQDQ01+000002SCOTLC
0095874480999991973012112004-33733-065383FM-12+0485SARY V0201801N00151220001CN0300001N9+02201+01701100621ADDAA199000091AY101999GF102991011081012501001021KA1999N+01701MD1310091+9999MW1021REMSYN00510079
0071874480999991973012113004-33733-065383FM-12+0485SARY V0202301N00151220001CN0300001N9+02701+01801100501ADDAY101999GF102991011081012501001021MD1710191+9999MW1021REMSYN00510081
0071874480999991973012114004-33733-065383FM-12+0485SARY V0202701N00101220001CN0300001N9+02901+01801100411ADDAY101999GF101991011081012501001001MD1010031+9999MW1011REMSYN00510077
0071874480999991973012115004-33733-065383FM-12+0485SARY V0202901N00201220001CN0300001N9+03101+01701100331ADDAY101999GF101991011081012501001001MD1810071+9999MW1021REMSYN00510072
0071874480999991973012116004-33733-065383FM-12+0485SARY V0202801N00151220001CN0300001N9+03101+01701100311ADDAY101999GF101991011081012501001001MD1710111+9999MW1021REMSYN00510071
0057874480999991973012117004-33733-065383FM-12+0485SARY V0209991C00001220001CN0300001N9+03201+01901100071ADDAY101999GF102991021081012501001001MW1031REMSYN00510048
0082874480999991973012118004-33733-065383FM-12+0485SARY V0209991C00001220001CN0300001N9+03401+01901099991ADDAA199000091AY101999GF100991999999999999999999MD1010001+9999MW1031REMSYN005100*5
0090874480999991973012119004-33733-065383FM-12+0485SARY V0209991C00001220001CN0300001N9+03401+01801099911ADDAY101999GF104991999081012501001001MD1710331+9999MW1021REMSYN00510036EQDQ01+000032SCOTLC
0071874480999991973012120004-33733-065383FM-12+0485SARY V0209991C00001220001CN0300001N9+03401+99999099711ADDAY101999GF104991031081012501001021MD1710281+9999MW1021REMSYN00510019
0099874480999991973012121004-33733-065383FM-12+0485SARY V0209991C00001090001CN0300001N9+03401+01801099611ADDAY101999GA1021+015009089GF105991031081012501001021MD1710311+9999MW1031UG1104001009REMSYN00510003
0118874480999991973012122004-33733-065383FM-12+0485SARY V02099999999999999999N0020001N9+99999+99999999999ADDAY111999GA1041+015009099GF107991021999000751071011MD1110281+9999MW1171REMSYN01758  0 11505 10030EQDQ01+000002SCOLCG
0088874480999991973012123004-33733-065383FM-12+0485SARY V0202001N00511012001CN0150001N9+02601+01601100171ADDAA199000091AY111999GF108991081091012501999999MD1210161+9999MW1171REMSYN01170035 10036
0071874480999991973012209004-33733-065383FM-12+0485SARY V0209991C00001220001CN0100001N9+01601+01501100411ADDAY101999GF104991041081012501001001MD1510041+9999MW1101REMSYN00510052
0071874480999991973012210004-33733-065383FM-12+0485SARY V0209991C00001220001CN0100001N9+01601+01601100471ADDAY101999GF104991041081012501001001MD1310071+9999MW1101REMSYN00510060
0071874480999991973012211004-33733-065383FM-12+0485SARY V0209991C00001220001CN0100001N9+01801+01801100591ADDAY101999GF103991031081012501001001MD1210111+9999MW1101REMSYN00510065
0095874480999991973012212004-33733-065383FM-12+0485SARY V0202401N00251220001CN0200001N9+02201+01801100501ADDAA199000091AY101999GF103991031081012501001001KA1999N+01501MD1210171+9999MW1021REMSYN00510071
0071874480999991973012213004-33733-065383FM-12+0485SARY V0202301N00251220001CN0200001N9+02301+01901100431ADDAY101999GF104991041081012501001001MD1010081+9999MW1031REMSYN00510068
0071874480999991973012214004-33733-065383FM-12+0485SARY V0209991C00001220001CN0200001N9+02501+01901100421ADDAY101999GF104991041081012501001001MD1110051+9999MW1021REMSYN00510071
0071874480999991973012215004-33733-065383FM-12+0485SARY V0201601N00251220001CN0200001N9+02701+02001100331ADDAY101999GF102991021081012501001001MD1810071+9999MW1011REMSYN00510064
0071874480999991973012216004-33733-065383FM-12+0485SARY V0201401N00251220001CN0200001N9+02801+02001100221ADDAY101999GF102991021081012501001001MD1810111+9999MW1021REMSYN00510057
0087874480999991973012217004-33733-065383FM-12+0485SARY V0201101N00101220001CN0250001N9+02901+02001100111ADDAY101999GA1011+015009099GF103991031081012501001001MD1710241+9999MW1031REMSYN00510046
0088874480999991973012218004-33733-065383FM-12+0485SARY V0203101N00101220001CN0550001N9+99999+99999100331ADDAA199029091AY101999GF103991031081012501001001MD1710271+9999MW1021REMSYN01172950 10045
0106874480999991973012219004-33733-065383FM-12+0485SARY V0200901N00251220001CN0250001N9+03101+99999099852ADDGA1011+009009089GF104991041091012501001001MW1011REMSYN01122831 10023EQDQ01+099853APOSLPQ02+000072PSTWM1
0087874480999991973012221004-33733-065383FM-12+0485SARY V0201601N00721018001CN0200001N9+99999+99999099981ADDAY191999GA1031+015009029GF106991061081017501001001MD1510091+9999MW1031REMSYN00510028
0087874480999991973012222004-33733-065383FM-12+0485SARY V0200901N00771012001CN0200001N9+02501+02101099971ADDAY191999GA1021+009009089GF105991051091012501001001MD1010011+9999MW1171REMSYN00510026
0104874480999991973012223004-33733-065383FM-12+0485SARY V0200701N00411090001CN0200001N9+02301+02001099971ADDAA199000091AY191999GA1021+012009099GF105991041081012501001021MD1010041+9999MW1021REMSYN01170032 10022
0071874480999991973012300004-33733-065383FM-12+0485SARY V0203501N00411090001CN0200001N9+02301+01901100131ADDAY191999GF105991041081012501001021MD1310081+9999MW1021REMSYN00510036
0071874480999991973012301004-33733-065383FM-12+0485SARY V0209991C00001220001CN0250001N9+02101+01801100211ADDAY111999GF103991031031012501001001MD1310131+9999MW1131REMSYN00510040
0071874480999991973012302004-33733-065383FM-12+0485SARY V0209991C00001220001CN0250001N9+02001+01901100251ADDAY111999GF103991031031012501001001MD1210211+9999MW1131REMSYN00510044
0071874480999991973012304004-33733-065383FM-12+0485SARY V0202001N00411220001CN0250001N9+01801+01701100351ADDAY111999GF103991031031012501001001MD1210251+9999MW1131REMSYN00510055
0071874480999991973012305004-33733-065383FM-12+0485SARY V0202001N00611220001CN0250001N9+01801+01701100391ADDAY111999GF104991041031012501001001MD1210261+9999MW1131REMSYN00510059
0113874480999991973012306004-33733-065383FM-12+0485SARY V0202001N00921015001CN0250001N9+02001+01901100491ADDAA199000091AY111999GA1021+015009099GF105991051081012501001001MA1999999089231MD1210211+9999MW1131REMSYN0051006*
0071874480999991973012307004-33733-065383FM-12+0485SARY V0202001N007719999999N0250001N9+02001+01901100691ADDAY111999GF106991999999999999999999MD1210291+9999MW1031REMSYN00510071
0071874480999991973012308004-33733-065383FM-12+0485SARY V0209991C00001015001CN0250001N9+99999+99999100811ADDAY121999GF107991071081012501001001MD1210291+9999MW1021REMSYN00510091
0071874480999991973012309004-33733-065383FM-12+0485SARY V0209991C00001015001CN0250001N9+01601+01301100941ADDAY121999GF107991071081012501001001MD1210371+9999MW1021REMSYN0051010*
0071874480999991973012310004-33733-065383FM-12+0485SARY V0201801N00101015001CN0250001N9+01601+01301100991ADDAY121999GF107991071081012501001001MD1210291+9999MW1021REMSYN00510105
0071874480999991973012311004-33733-065383FM-12+0485SARY V0201601N00101015001CN0250001N9+99999+99999101171ADDAY121999GF107991071081012501001001MD1210351+9999MW1021REMSYN00510124
0095874480999991973012312004-33733-065383FM-12+0485SARY V0201601N00721015001CN0300001N9+01701+00801101191ADDAA199000091AY131999GF106991061081012501001001KA1999N+01501MD1210291+9999MW1011REMSYN00510131
0071874480999991973012313004-33733-065383FM-12+0485SARY V0201601N00821036001CN0300001N9+01801+00601101191ADDAY121999GF105991021081012501031001MD1110191+9999MW1011REMSYN00510135
0071874480999991973012314004-33733-065383FM-12+0485SARY V0201601N00771220001CN0300001N9+02001+00501101211ADDAY111999GF103991021081012501021001MD1110121+9999MW1011REMSYN00510136
0090874480999991973012315004-33733-065383FM-12+0485SARY V0201801N00871220001CN0300001N9+02001+00401101231ADDAY111999GF103991021081012501021001MD1110041+9999MW1021REMSYN00510140EQDQ01+000002APC3  
0071874480999991973012316004-33733-065383FM-12+0485SARY V0201601N00611220001CN0300001N9+02001+00501101191ADDAY101999GF102991011081012501021001MD1110041+9999MW1011REMSYN00510140
0082874480999991973012318004-33733-065383FM-12+0485SARY V0201801N00511220001CN0300001N9+02201+00601999999ADDAA199000091AY101999GF101991011081012501001001MD1810081+9999MW1031REMSYN00510130
0071874480999991973012319004-33733-065383FM-12+0485SARY V0201801N00511220001CN0300001N9+02301+00701101031ADDAY101999GF101991011081012501001001MD1810121+9999MW1021REMSYN00510127
0071874480999991973012321004-33733-065383FM-12+0485SARY V0201801N00511220001CN0300001N9+02401+00701100871ADDAY101999GF101991011081012501001001MD1710151+9999MW1021REMSYN00510114
0071874480999991973012322004-33733-065383FM-12+0485SARY V0201801N00411220001CN0300001N9+02401+00701100871ADDAY101999GF101991011081012501001001MD1710161+9999MW1021REMSYN00510110
0088874480999991973012323004-33733-065383FM-12+0485SARY V0201401N00511220001CN0300001N9+02301+00801100891ADDAA199000091AY101999GF101991011081012501001001MD1610111+9999MW1021REMSYN01170025 10111
0071874480999991973012409004-33733-065383FM-12+0485SARY V0209991C00001220001CN0300001N9+00501+00501101591ADDAY101999GF100991001001999999001001MD1610051+9999MW1021REMSYN00510148
0071874480999991973012410004-33733-065383FM-12+0485SARY V0209991C00001220001CN0300001N9+00601+00501101641ADDAY101999GF101991011081012501001001MD1310041+9999MW1031REMSYN00510157
0071874480999991973012411004-33733-065383FM-12+0485SARY V0209991C00001220001CN0300001N9+01001+00701101661ADDAY101999GF102991021051012501001001MD1210121+9999MW1031REMSYN00510164
0095874480999991973012412004-33733-065383FM-12+0485SARY V0203601N00101220001CN0300001N9+01501+00901101561ADDAA199000091AY101999GF103991031051012501001001KA1999N+00501MD1210171+9999MW1031REMSYN00510167
0071874480999991973012414004-33733-065383FM-12+0485SARY V0209991C00001220001CN0300001N9+02201+00701101391ADDAY101999GF102991021051012501001001MD1110011+9999MW1011REMSYN00510165
0090874480999991973012415004-33733-065383FM-12+0485SARY V0209991C00001220001CN0300001N9+02401+00801101331ADDAY101999GF102991999051012501001001MD1810041+9999MW1011REMSYN00510162EQDQ01+000012SCOTLC
0071874480999991973012416004-33733-065383FM-12+0485SARY V0209991C00001220001CN0300001N9+02501+00901101301ADDAY101999GF101991011051012501001001MD1810031+9999MW1021REMSYN00510159
0071874480999991973012417004-33733-065383FM-12+0485SARY V0203601N00101220001CN0300001N9+02501+00701101261ADDAY101999GF100991001001999999001001MD1710091+9999MW1021REMSYN00510159
0082874480999991973012418004-33733-065383FM-12+0485SARY V0209991C00001220001CN0300001N9+02601+00601101221ADDAA199000091AY101999GF100991001001999999001001MD1710221+9999MW1021REMSYN00510149
0071874480999991973012419004-33733-065383FM-12+0485SARY V0209991C00001220001CN0300001N9+02701+01001101131ADDAY101999GF101991011011012501001001MD1710151+9999MW1031REMSYN005101*2
0071874480999991973012420004-33733-065383FM-12+0485SARY V0209991C00001220001CN0300001N9+02801+01001101231ADDAY101999GF101991011011012501001001MD1710111+9999MW1021REMSYN005101*5
0077874480999991973012421004-33733-065383FM-12+0485SARY V0201401N00251220001CN0300001N9+02601+01001101091ADDAY101999GF101991011011012501001001MD1610091+9999MW1021REMSYN0111014* 0****
0071874480999991973012422004-33733-065383FM-12+0485SARY V0201401N00251220001CN0300001N9+02601+01001101091ADDAY101999GF100991001001999999001001MD1610071+9999MW1011REMSYN00510136
0071874480999991973012500004-33733-065383FM-12+0485SARY V0200701N00101220001CN0300001N9+02101+01001101321ADDAY101999GF100991001001999999001001MD1310111+9999MW1021REMSYN00510151
0071874480999991973012508004-33733-065383FM-12+0485SARY V0209991C00001220001CN0300001N9+01001+00501101841ADDAY101999GF100991001001999999001001MD1810041+9999MW1021REMSYN00510178
0071874480999991973012510004-33733-065383FM-12+0485SARY V0209991C00001220001CN0300001N9+00901+00701101881ADDAY101999GF100991001001999999001001MD1610081+9999MW1021REMSYN00510173
0071874480999991973012511004-33733-065383FM-12+0485SARY V0209991C00001220001CN0300001N9+01201+00801101801ADDAY101999GF100991001001999999001001MD1410001+9999MW1021REMSYN00510178
0116874480999991973012512004-33733-065383FM-12+0485SARY V0200501N00411220001CN0300001N9+01701+01101101831ADDAA199000091AY101999GF100991001001999999001001KA1999N+00801MW1021REMSYN00510183EQDQ01+000042APCTENQ02+000082APC3  
0071874480999991973012513004-33733-065383FM-12+0485SARY V0200901N00411220001CN0300001N9+02101+01001101581ADDAY101999GF100991001001999999001001MD1010031+9999MW1021REMSYN00510177
0071874480999991973012514004-33733-065383FM-12+0485SARY V0200901N00511220001CN0300001N9+02401+01201101431ADDAY101999GF100991001001999999001001MD1810091+9999MW1021REMSYN00510169
0071874480999991973012515004-33733-065383FM-12+0485SARY V0200701N00611220001CN0300001N9+02601+01401101301ADDAY101999GF100991001001999999001001MD1710231+9999MW1021REMSYN00510159
0071874480999991973012517004-33733-065383FM-12+0485SARY V0200501N00821220001CN0300001N9+02701+01501101051ADDAY101999GF101991011011012501001001MD1710281+9999MW1031REMSYN00510140
0082874480999991973012518004-33733-065383FM-12+0485SARY V0200701N00871220001CN0250001N9+02901+01501100941ADDAA199000091AY101999GF101991011011012501001001MD1710191+9999MW1021REMSYN00510128
0071874480999991973012520004-33733-065383FM-12+0485SARY V0200501N00921220001CN0200001N9+02901+01301100751ADDAY101999GF103991001001999999001021MD1710291+9999MW1031REMSYN00510109
0138874480999991973012521004-33733-065383FM-12+0485SARY V0200501N00921220001CN0200001N9+02801+01301100611ADDAY111999GA1071+999999049GF199999999001999999001061MD1710291+9999MW1031REMSYN00510098EQDQ01+000052SCOTCVQ02+000002SCOTLCQ03+000992SCOLCB
0071874480999991973012522004-33733-065383FM-12+0485SARY V0200701N00561220001CN0200001N9+02701+01401100621ADDAY111999GF105991001001999999001061MD1610191+9999MW1021REMSYN00510093
0088874480999991973012523004-33733-065383FM-12+0485SARY V0200701N00871090001CN0200001N9+02601+01401100621ADDAA199000091AY121999GF105991001001999999001071MD1610131+9999MW1021REMSYN01170030 10094
0063874480999991973012609004-33733-065383FM-12+0485SARY V0209991C00001220001CN0200001N9+02001+02001999999ADDAY101999GF103991011001017501011051MW1021REMSYN01108715 10102
0071874480999991973012610004-33733-065383FM-12+0485SARY V0200701N00201220001CN0200001N9+01501+00902100771ADDAY101999GF102991021001999999021001MD1310051+9999MW1011REMSYN00510085
0071874480999991973012611004-33733-065383FM-12+0485SARY V0200701N00101220001CN0250001N9+01701+01101100811ADDAY101999GF101991011001999999021001MD1310041+9999MW1011REMSYN00510094
0081874480999991973012612004-33733-065383FM-12+0485SARY V0200701N00101220001CN0300001N9+02201+01301100771ADDAA199000091AY101999GF101991011001999999021001KA1999N+01501MD1310131+9999MW1021
0071874480999991973012613004-33733-065383FM-12+0485SARY V0209991C00001220001CN0300001N9+02501+01301100771ADDAY101999GF100991001001999999001001MD1110161+9999MW1011REMSYN00510103
0071874480999991973012615004-33733-065383FM-12+0485SARY V0203401N00301220001CN0300001N9+02801+01301100701ADDAY101999GF100991001001999999001001MD1310041+9999MW1021REMSYN00510103
0071874480999991973012617004-33733-065383FM-12+0485SARY V0203601N00101220001CN0300001N9+03001+01401100511ADDAY101999GF100991001001999999001001MD1810081+9999MW1021REMSYN00510092
0082874480999991973012618004-33733-065383FM-12+0485SARY V0203601N00101220001CN0300001N9+03101+01601100491ADDAA199000091AY101999GF100991001001999999001001MD1810111+9999MW1021REMSYN00510089
0071874480999991973012619004-33733-065383FM-12+0485SARY V0209991C00001220001CN0300001N9+03101+01601100381ADDAY101999GF101991011011012501001001MD1710201+9999MW1031REMSYN00510078
0071874480999991973012620004-33733-065383FM-12+0485SARY V0209991C00001220001CN0300001N9+03201+01601100341ADDAY101999GF101991011011012501001001MD1710171+9999MW1021REMSYN00510073
0071874480999991973012621004-33733-065383FM-12+0485SARY V0200901N00101220001CN0300001N9+03201+01601100311ADDAY101999GF101991011081012501001001MD1610121+9999MW1031REMSYN00500071
0071874480999991973012622004-33733-065383FM-12+0485SARY V0200901N00611220001CN0300001N9+03001+01701100311ADDAY101999GF101991011081012501001001MD1610071+9999MW1021REMSYN00510071
0088874480999991973012623004-33733-065383FM-12+0485SARY V0200901N00511220001CN0300001N9+02901+01701100431ADDAA199000091AY101999GF103991031081012501001001MD1310051+9999MW1021REMSYN01170032 10079
0071874480999991973012700004-33733-065383FM-12+0485SARY V0200901N00251220001CN0300001N9+02501+01701100581ADDAY101999GF101991011011012501001001MD1210191+9999MW1011REMSYN00510085
0095874480999991973012712004-33733-065383FM-12+0485SARY V0209991C00001220001CN0300001N9+02301+01701101111ADDAA199000091AY101999GF100991001001999999001001KA1999N+01401MD1310181+9999MW1011REMSYN00510132
0071874480999991973012713004-33733-065383FM-12+0485SARY V0209991C00001220001CN0300001N9+02701+01701101071ADDAY101999GF100991001001999999001001MD1210241+9999MW1021REMSYN00510138
0071874480999991973012714004-33733-065383FM-12+0485SARY V0201801N00251220001CN0300001N9+02901+01701101111ADDAY101999GF100991001001999999001001MD1110171+9999MW1021REMSYN00510145
0071874480999991973012715004-33733-065383FM-12+0485SARY V0201801N00251220001CN0300001N9+03001+01701101071ADDAY101999GF101991011011012501001001MD1110071+9999MW1031REMSYN00510143
0090874480999991973012716004-33733-065383FM-12+0485SARY V0201401N00251220001CN0300001N9+03001+01701101031ADDAY101999GF102991999081012501001001MD1110051+9999MW1031REMSYN00510143EQDQ01+000012SCOTLC
0090874480999991973012717004-33733-065383FM-12+0485SARY V0201401N00151220001CN0300001N9+03101+99999101011ADDAY101999GF102991999999999999999999MD1810051+9999MW1021REMSYN00510140EQDQ01+026623ATOD  
0082874480999991973012718004-33733-065383FM-12+0485SARY V0201401N00101220001CN0300001N9+03301+01801100941ADDAA199000091AY101999GF101991011081012501001001MD1810091+9999MW1011REMSYN00511013
0071874480999991973012719004-33733-065383FM-12+0485SARY V0201401N00101220001CN0300001N9+03201+01901100871ADDAY101999GF101991011081012501001001MD1810131+9999MW1021REMSYN00510128
0071874480999991973012720004-33733-065383FM-12+0485SARY V0202401N00151220001CN0300001N9+03201+01801100851ADDAY101999GF101991011081012501001001MD1710151+9999MW1021REMSYN00510123
0071874480999991973012721004-33733-065383FM-12+0485SARY V0201401N00301220001CN0300001N9+03301+01901100681ADDAY101999GF101991011081012501001001MD1710241+9999MW1021REMSYN00510123
0071874480999991973012722004-33733-065383FM-12+0485SARY V0201401N00301220001CN0300001N9+03201+01801100811ADDAY101999GF101991011081012501001001MD1710091+9999MW1021REMSYN00510119
0088874480999991973012723004-33733-065383FM-12+0485SARY V0200901N00151220001CN0300001N9+03201+01801100811ADDAA199000091AY101999GF101991001001999999001021MD1610071+9999MW1021REMSYN01170033 10119
0087874480999991973012811004-33733-065383FM-12+0485SARY V0201101N00251036001CN0300001N9+02401+01701101251ADDAY121999GA1011+012009099GF107991041081012501031001MD1310111+9999MW1011REMSYN00510149
0081874480999991973012812004-33733-065383FM-12+0485SARY V0201101N00301036001CN0300001N9+02601+01801101131ADDAA199000091AY121999GF107991041081012501031001KA1999N+02201MD1210121+9999MW1011
0087874480999991973012813004-33733-065383FM-12+0485SARY V0201101N00921036001CN0300001N9+02401+01801101231ADDAY121999GA1011+012009099GF106991021081012501031021MD1110071+9999MW1011REMSYN00510152
0087874480999991973012814004-33733-065383FM-12+0485SARY V0201101N00821036001CN0300001N9+02501+01901101211ADDAY121999GA1011+012009089GF107991011081012501031021MD1510001+9999MW1011REMSYN00510149
0071874480999991973012815004-33733-065383FM-12+0485SARY V0201101N00771036001CN0300001N9+02601+02001101171ADDAY121999GF107991011081012501071021MD1810041+9999MW1021REMSYN00510148
0071874480999991973012816004-33733-065383FM-12+0485SARY V0200501N00611220001CN0200001N9+02801+02101101131ADDAY121999GF104991011081012501071021MD1710051+9999MW1011REMSYN00510147
0071874480999991973012817004-33733-065383FM-12+0485SARY V0200701N00561220001CN0200001N9+02901+02001101031ADDAY111999GF103991021081012501031001MD1710111+9999MW1011REMSYN005013*8
0068874480999991973012818004-33733-065383FM-12+0485SARY V0200901N00921220001CN0150001N9+03001+01901100871ADDAA199000091AY111999GF103991011081012501031001MD1710161+9999MW1051
0071874480999991973012819004-33733-065383FM-12+0485SARY V0200501N01181220001CN0100001N9+03001+01201100871ADDAY101999GF101991011081012501001001MD1710241+9999MW1071REMSYN00510122
0071874480999991973012820004-33733-065383FM-12+0485SARY V0200601N01231220001CN0080001N9+03001+01901100771ADDAY101999GF101991011081012501001001MD1710271+9999MW1071REMSYN00510120
0071874480999991973012821004-33733-065383FM-12+0485SARY V0200901N00871220001CN0050001N9+03001+02601100621ADDAY101999GF103991011081012501001021MD1210311+9999MW1081REMSYN00510099
0087874480999991973012822004-33733-065383FM-12+0485SARY V0200901N01181090001CN0050001N9+02801+01801100591ADDAY101999GA1021+015009099GF106991041081012501001031MD1710241+9999MW1071REMSYN00510096
0104874480999991973012823004-33733-065383FM-12+0485SARY V0200701N01081012001CN0050001N9+02701+01501100741ADDAA199000091AY101999GA1031+015009099GF107991071091012501001001MD1510071+9999MW1071REMSYN01170030 10103
0071874480999991973012910004-33733-065383FM-12+0485SARY V0201801N00361015001CN0200001N9+02101+02001101011ADDAY121999GF107991071081012501001001MD1510031+9999MW1031REMSYN00510123
0087874480999991973012911004-33733-065383FM-12+0485SARY V0201801N00771012001CN0200001N9+02101+02001101151ADDAY121999GA1031+009009079GF108991081081008001999999MD1210121+9999MW1031REMSYN00510135
0081874480999991973012912004-33733-065383FM-12+0485SARY V0201401N006719999999N0200001N9+02101+02001101151ADDAA199004091AY121999GF108991999999999999999999KA1999N+01901MD1110151+9999MW1021
0087874480999991973012913004-33733-065383FM-12+0485SARY V0201101N00671001801CN0200001N9+02201+02101101071ADDAY121999GA1051+001809079GF108991081081002501999999MD1010081+9999MW1021REMSYN00510131
0087874480999991973012914004-33733-065383FM-12+0485SARY V0201101N00361006001CN0300001N9+02401+02201101061ADDAY121999GA1031+001809079GF108991081081002501999999MD1810051+9999MW1021REMSYN00510130
0087874480999991973012915004-33733-065383FM-12+0485SARY V0200701N00361009001CN0200001N9+99999+99999100941ADDAY121999GA1021+003009079GF106991061081004501001001MD1710111+9999MW1011REMSYN00510134
0071874480999991973012917004-33733-065383FM-12+0485SARY V0200801N00411012001CN0300001N9+03001+02301100771ADDAY121999GF105991051081008001001001MD1810151+9999MW1021REMSYN00510114
0113874480999991973012918004-33733-065383FM-12+0485SARY V0200701N006119999999N0200001N9+03101+02301100691ADDAA199000091AY121999GF105991999081004501001001MD1810381+9999MW1021REMSYN0171010* 5**3* 58500EQDQ01+000042SCOTLC
0090874480999991973012919004-33733-065383FM-12+0485SARY V0200801N011319999999N0300001N9+03101+02201100581ADDAY101999GF105991999081002501001001MD1810291+9999MW1021REMSYN00510099EQDQ01+000042SCOTLC
0071874480999991973012920004-33733-065383FM-12+0485SARY V0200701N00611012001CN0300001N9+03201+02201100531ADDAY121999GF105991051081008001001001MD1710201+9999MW1021REMSYN00510094
0071874480999991973012921004-33733-065383FM-12+0485SARY V0200801N01281220001CN0300001N9+03101+02201100501ADDAY121999GF103991031081008001001001MD1610151+9999MW1021REMSYN00510090
0071874480999991973012922004-33733-065383FM-12+0485SARY V0200701N00821220001CN0300001N9+03101+02201100451ADDAY111999GF102991021081008001001001MD1610131+9999MW1011REMSYN00510084
0088874480999991973012923004-33733-065383FM-12+0485SARY V0200701N00671220001CN0300001N9+02901+02301100461ADDAA199000091AY101999GF101991011081008001001001MD1510031+9999MW1011REMSYN01170032 10086
0071874480999991973013000004-33733-065383FM-12+0485SARY V0209991C00001220001CN0300001N9+02701+02201100621ADDAY111999GF101991011081008001001001MD1510041+9999MW1021REMSYN00510095
0071874480999991973013008004-33733-065383FM-12+0485SARY V0200701N00151220001CN0300001N9+02201+02101100801ADDAY101999GF100991001001999999001001MD1810111+9999MW1021REMSYN00510105
0071874480999991973013009004-33733-065383FM-12+0485SARY V0200701N00151220001CN0300001N9+02201+02101101011ADDAY101999GF100991001001999999001001MD1110161+9999MW1021REMSYN00510112
0071874480999991973013010004-33733-065383FM-12+0485SARY V0200201N00201220001CN0300001N9+02501+02101100661ADDAY101999GF100991001001999999001001MD1510001+9999MW1021REMSYN00510094
0095874480999991973013012004-33733-065383FM-12+0485SARY V0200201N00151220001CN0300001N9+02801+02201100631ADDAA199000091AY101999GF101991011081008001001001KA1999N+02201MD1310051+9999MW1021REMSYN00510096
0077874480999991973013013004-33733-065383FM-12+0485SARY V0203401N00201220001CN0300001N9+03001+02801100531ADDAY101999GF102991021081012501031031MD1510001+9999MW1021REMSYN01123001 10093
0071874480999991973013014004-33733-065383FM-12+0485SARY V0203401N00301220001CN0300001N9+03201+02301100501ADDAY101999GF103991031081008001001001MD1810041+9999MW1031REMSYN00510090
0071874480999991973013015004-33733-065383FM-12+0485SARY V0203401N00411220001CN0300001N9+03201+02401100431ADDAY111999GF101991011081008001001001MD1810111+9999MW1031REMSYN00510084
0071874480999991973013016004-33733-065383FM-12+0485SARY V0203601N00971012001CN0300001N9+03401+02501100591ADDAY121999GF105991051081008001001001MD1810251+9999MW1021REMSYN00510088
0071874480999991973013017004-33733-065383FM-12+0485SARY V0203601N01031015001CN0300001N9+03501+02301100381ADDAY101999GF106991061081012501001001MD1610051+9999MW1021REMSYN00510084
0101874480999991973013018004-33733-065383FM-12+0485SARY V0200201N00411015001CN0300001N9+03501+99999100251ADDAA199000091AY101999GF106991061081012501001001MD1810231+9999MW1021REMSYN00510061EQDQ01+028623ATOD  
0077874480999991973013019004-33733-065383FM-12+0485SARY V0203601N00511015001CN0300001N9+03601+02301999999ADDAY121999GF105991051081012501001001MD1810341+9999MW1021REMSYN01123823 10054
0071874480999991973013020004-33733-065383FM-12+0485SARY V0203601N00511015001CN0300001N9+03501+02201099991ADDAY101999GF105991051081012501001001MD1810391+9999MW1021REMSYN00510054
0065874480999991973013021004-33733-065383FM-12+0485SARY V0200201N00411220001CN0300001N9+03501+02201099891ADDAY101999GF102991021081012501001001MD1810271+9999REMSYN0051003*
0071874480999991973013022004-33733-065383FM-12+0485SARY V0200701N00511220001CN0300001N9+03401+01801099771ADDAY111999GF101991011011012501001001MD1710281+9999MW1011REMSYN00510022
0071874480999991973020100004-33733-065383FM-12+0485SARY V0209991C00001220001CN0200001N9+02101+01201100941ADDAY101999GF104991011081012501001061MD1010031+9999MW1031REMSYN00510113
0071874480999991973020101004-33733-065383FM-12+0485SARY V0209991C00001220001CN0200001N9+01901+01301999999ADDAY101999GF103991011081012501001061MD1310091+9999MW1031REMSYN00510123
0071874480999991973020102004-33733-065383FM-12+0485SARY V0209991C00001220001CN0200001N9+02001+01301101101ADDAY101999GF103991011081012501001061MD1210091+9999MW1021REMSYN00510126
0071874480999991973020103004-33733-065383FM-12+0485SARY V0209991C00001220001CN0200001N9+01901+01401101021ADDAY101999GF100991999999999999999999MD1010041+9999MW1011REMSYN00510117
0071874480999991973020104004-33733-065383FM-12+0485SARY V0209991C00001220001CN0200001N9+01901+01401100971ADDAY101999GF104991001001999999001061MD1810111+9999MW1021REMSYN00510111
0071874480999991973020105004-33733-065383FM-12+0485SARY V0209991C00001220001CN0200001N9+01901+01301100871ADDAY101999GF105991011091012501001061MD1810231+9999MW1021REMSYN00510101
0117874480999991973020106004-33733-065383FM-12+0485SARY V0209991C000019999999N0200001N9+01801+01501100741ADDAA199000091AY111999GA1011+015009099GF105991999081012501001001MD1710281+9999MW1131REMSYN0051008*EQDQ01+000032SCOTLC
0087874480999991973020107004-33733-065383FM-12+0485SARY V0209991C00001012001CN0200001N9+01901+01701100731ADDAY111999GA1031+015009099GF106991061081008001001001MD1710201+9999MW1131REMSYN00510080
0087874480999991973020109004-33733-065383FM-12+0485SARY V0200701N00101012001CN0150001N9+02001+01901100421ADDAY121999GA1031+015009099GF108991061081008001001061MD1710151+9999MW1911REMSYN00510074
0087874480999991973020110004-33733-065383FM-12+0485SARY V0209991C00001090001CN0200001N9+01901+01801100621ADDAY191999GA1021+015009099GF108991041081008001001061MD1510031+9999MW1021REMSYN00510078
0087874480999991973020111004-33733-065383FM-12+0485SARY V0202501N00101036001CN0200001N9+01901+01801100661ADDAY121999GA1011+015009099GF108991031081008001021061MD1310051+9999MW1021REMSYN00510083
0111874480999991973020112004-33733-065383FM-12+0485SARY V0209991C00001036001CN0200001N9+02101+01901100661ADDAA199002091AY191999GA1011+015009099GF108991031081008001021061KA1999N+01701MD1210151+9999MW1021REMSYN00510088
0071874480999991973020113004-33733-065383FM-12+0485SARY V0209991C00001012001CN0200001N9+02301+02001100581ADDAY121999GF107991071081008001061001MD1010051+9999MW1011REMSYN00510083
0071874480999991973020114004-33733-065383FM-12+0485SARY V0209991C00001015001CN0200001N9+02601+02001100511ADDAY121999GF107991071081012501001001MD1810041+9999MW1021REMSYN00510079
0071874480999991973020115004-33733-065383FM-12+0485SARY V0200501N00251036001CN0200001N9+03001+02101100381ADDAY121999GF105991031081012501061001MD1710131+9999MW1011REMSYN00510073
0071874480999991973020116004-33733-065383FM-12+0485SARY V0200201N00611220001CN0200001N9+03201+02201100221ADDAY121999GF104991041081008001001001MD1710191+9999MW1011REMSYN00510064
0071874480999991973020117004-33733-065383FM-12+0485SARY V0200201N00611090001CN0200001N9+03401+02201100011ADDAY111999GF107991041081008001001061MD1710321+9999MW1031REMSYN00510056
0082874480999991973020118004-33733-065383FM-12+0485SARY V0200701N00611012001CN0200001N9+03301+02201099981ADDAA199000091AY111999GF108991051081008001001061MD1810331+9999MW1031REMSYN00510039
0087874480999991973020119004-33733-065383FM-12+0485SARY V0200701N00671007501CN0300001N9+03401+02301099931ADDAY121999GA1011+015009099GF107991061071008001001021MD1810291+9999MW1021REMSYN00510033
0087874480999991973020120004-33733-065383FM-12+0485SARY V0200501N00671090001CN0300001N9+03301+02301099831ADDAY121999GA1011+015009099GF108991041081008001001061MD1610181+9999MW1031REMSYN00510027
0071874480999991973020121004-33733-065383FM-12+0485SARY V0200501N00561090001CN0200001N9+03301+02401099891ADDAY121999GF108991041081008001001061MD1610141+9999MW1021REMSYN00510041
0093874480999991973020122004-33733-065383FM-12+0485SARY V0200501N005619999999N0200001N9+99999+99999099821ADDAY121999GA1011+015009089GF108991031031999999999999MD1510361+9999MW1021REMSYN01123  1 10022
0104874480999991973020123004-33733-065383FM-12+0485SARY V0200701N00511036001CN0200001N9+03001+02201099831ADDAA199000091AY121999GA1011+015009099GF108991041081008001031061MD1310041+9999MW1021REMSYN01170035 10023
0087874480999991973020211004-33733-065383FM-12+0485SARY V0209991C00001015001CN0150001N9+02501+02301100121ADDAY111999GA1011+015009099GF106991061081012501001001MD1310121+9999MW1031REMSYN00510039
0111874480999991973020212004-33733-065383FM-12+0485SARY V0209991C00001015001CN0150001N9+02701+02301100061ADDAA199000091AY111999GA1011+015009099GF106991061081012501001001KA1999N+02301MD1010131+9999MW1021REMSYN00510036
0071874480999991973020213004-33733-065383FM-12+0485SARY V0202801N01181012001CN0150001N9+02501+02201100211ADDAY121999GF107991071061012501001001MD1310231+9999MW1031REMSYN00510047
0106874480999991973020214004-33733-065383FM-12+0485SARY V0203601N00921015001CN0250001N9+02501+02101100231ADDAY121999GA1021+015009049GF107991071081012501999001MD1310111+9999MW1021REMSYN00510050EQDQ01    003SCOMCG
0087874480999991973020215004-33733-065383FM-12+0485SARY V0201101N00301015001CN0200001N9+02401+02101100301ADDAY121999GA1041+015009099GF108991081081012501999999MD1210171+9999MW1171REMSYN00510054
0087874480999991973020216004-33733-065383FM-12+0485SARY V0201101N00151015001CN0050001N9+02301+02201100271ADDAY191999GA1031+015009099GF108991081081012501999999MD1010041+9999MW1801REMSYN00510051
0087874480999991973020217004-33733-065383FM-12+0485SARY V0200901N01081006001CN0030001N9+02101+02001100431ADDAY181999GA1061+006009049GF108991081091008001999999MD1210131+9999MW1951REMSYN00510064
0094874480999991973020218004-33733-065383FM-12+0485SARY V0200501N00251009001CN0100001N9+02101+02001100411ADDAA199003091AY191999GF108991081081004501999999MD1010071+9999MW1911REMSYN0170*7*8 15808 10061
0128874480999991973020219004-33733-065383FM-12+0485SARY V0200901N00201003001CN0100001N9+02001+99999100451ADDAY191999GA1051+003009079GA2041+015009099GF108991081081004501999999MD1310331+9999MW1171REMSYN0112*805 10061EQDQ01+027623ATOD  
0087874480999991973020220004-33733-065383FM-12+0485SARY V0200901N00721003001CN0150001N9+02101+02001100351ADDAY191999GA1061+003009079GF108991081081008001999999MD1710021+9999MW1021REMSYN00510056
0057874480999991973020300004-33733-065383FM-12+0485SARY V0209991C00001007501CN0200001N9+02201+02001100551ADDAY121999GF107991061061008001001061MD1310121+9999MW1021
0087874480999991973020311004-33733-065383FM-12+0485SARY V0201801N00251009001CN0200001N9+01901+01901101221ADDAY121999GA1031+003009079GF107991071081004501001001MD1210331+9999MW1031REMSYN00510238
0111874480999991973020312004-33733-065383FM-12+0485SARY V0201801N00361003001CN0200001N9+02001+01901101221ADDAA199003091AY121999GA1061+003009079GF108991081081004501999999KA1999N+01801MD1210251+9999MW1031REMSYN00510143
0071874480999991973020313004-33733-065383FM-12+0485SARY V0201401N00461004201CN0200001N9+01801+01701101341ADDAY121999GF108991081061004501999999MD1210331+9999MW1021REMSYN00510151
0071874480999991973020315004-33733-065383FM-12+0485SARY V0201401N00201012001CN0200001N9+02401+01801101291ADDAY111999GF105991051081008001001001MD1010111+9999MW1021REMSYN00510153
0071874480999991973020317004-33733-065383FM-12+0485SARY V0201601N00611012001CN0200001N9+02701+01701101251ADDAY111999GF106991061081008001001001MD1310051+9999MW1021REMSYN00510161
0100874480999991973020318004-33733-065383FM-12+0485SARY V0201101N00511012001CN0300001N9+02701+01801101311ADDAA199000091AY121999GF106991061081008001001001MD1210091+9999MW1021REMSYN0231333* 0*7*8 15808 10165
0071874480999991973020319004-33733-065383FM-12+0485SARY V0201401N00461012001CN0300001N9+02801+01801101311ADDAY121999GF106991061021012501001001MD1110071+9999MW1021REMSYN00510165
0071874480999991973020320004-33733-065383FM-12+0485SARY V0201401N00561007501CN0300001N9+02801+01801101311ADDAY121999GF106991061021008001001001MD1110031+9999MW1031REMSYN00510164
0071874480999991973020321004-33733-065383FM-12+0485SARY V0201401N00411220001CN0300001N9+02701+01801101311ADDAY121999GF104991041021012501001001MD1010001+9999MW1011REMSYN00510164
0071874480999991973020322004-33733-065383FM-12+0485SARY V0201401N00611220001CN0300001N9+02601+01701101261ADDAY111999GF102991021021012501001001MD1810081+9999MW1011REMSYN00510155
0088874480999991973020323004-33733-065383FM-12+0485SARY V0201401N00411220001CN0300001N9+02401+01701101471ADDAA199000091AY101999GF101991011021012501001001MD1310091+9999MW1011REMSYN01170028 10173
0071874480999991973020409004-33733-065383FM-12+0485SARY V0200901N00251220001CN0300001N9+01601+01401101911ADDAY101999GF100991001001999999001001MD1810011+9999MW1021REMSYN00510198
0071874480999991973020411004-33733-065383FM-12+0485SARY V0200701N00361220001CN0300001N9+01701+01501101801ADDAY101999GF101991001001999999001021MD1610081+9999MW1021REMSYN00510191
0081874480999991973020412004-33733-065383FM-12+0485SARY V0200701N00671220001CN0300001N9+02001+01401101861ADDAA199000091AY101999GF101991001001999999001021KA1999N+01501MD1310031+9999MW1021
0071874480999991973020414004-33733-065383FM-12+0485SARY V0200701N00611220001CN0300001N9+02301+01601101701ADDAY101999GF103991021001999999031021MD1010011+9999MW1031REMSYN00510193
0071874480999991973020415004-33733-065383FM-12+0485SARY V0200701N00561090001CN0300001N9+02501+01701101591ADDAY111999GF105991011081012501031021MD1810131+9999MW1031REMSYN00510196
0054874480999991973020418004-33733-065383FM-12+0485SARY V0200701N01031015001CN0200001N9+02801+99999101231ADDAA199000091AY111999GF106991051081012501031001MW1031
0071874480999991973020420004-33733-065383FM-12+0485SARY V0200701N00771220001CN0200001N9+02701+01901101131ADDAY111999GF104991041081012501001001MD1710171+9999MW1011REMSYN00510149
0071874480999991973020421004-33733-065383FM-12+0485SARY V0209999999999220001CN0200001N9+02801+01801101091ADDAY111999GF103991031081012501001001MD1710191+9999MW1011REMSYN00510140
0090874480999991973020422004-33733-065383FM-12+0485SARY V0200701N00771220001CN0200001N9+02701+01002101071ADDAY111999GF103991999081012501001001MD1610151+9999MW1021REMSYN00510138EQDQ01+000022SCOTLC
0071874480999991973020500004-33733-065383FM-12+0485SARY V0200501N00721220001CN0200001N9+02201+01501101131ADDAY101999GF101991011081012501001001MD1610021+9999MW1011REMSYN00510126
0071874480999991973020503004-33733-065383FM-12+0485SARY V0200201N00201220001CN0200001N9+01901+01601101221ADDAY101999GF100991001001999999001001MD1010011+9999MW1021REMSYN0051013*
0071874480999991973020504004-33733-065383FM-12+0485SARY V0209991C00001220001CN0200001N9+01801+01601101221ADDAY101999GF100991001001999999001001MD1110051+9999MW1021REMSYN00510138
0071874480999991973020505004-33733-065383FM-12+0485SARY V0209991C00001220001CN0200001N9+01601+01301101261ADDAY101999GF100991001001999999001001MD1110011+9999MW1021REMSYN00510138
0082874480999991973020506004-33733-065383FM-12+0485SARY V0209991C00001220001CN0200001N9+01601+01401101301ADDAA199000091AY101999GF100991001001999999001001MD1410001+9999MW1021REMSYN0051013*
0071874480999991973020507004-33733-065383FM-12+0485SARY V0209991C00001220001CN0200001N9+01401+01301101331ADDAY101999GF100991001001999999001001MD1310031+9999MW1021REMSYN00510141
0071874480999991973020508004-33733-065383FM-12+0485SARY V0209991C00001220001CN0200001N9+01401+01301101411ADDAY101999GF100991001001999999001001MD1310051+9999MW1021REMSYN00510145
0071874480999991973020509004-33733-065383FM-12+0485SARY V0209991C00001220001CN0200001N9+01401+01301101411ADDAY101999GF100991001001999999001001MD1110071+9999MW1021REMSYN00510145
0071874480999991973020510004-33733-065383FM-12+0485SARY V0209991C00001220001CN0200001N9+01401+01301101491ADDAY101999GF101991001001999999001021MD1210121+9999MW1031REMSYN00510153
0071874480999991973020511004-33733-065383FM-12+0485SARY V0209991C00001220001CN0200001N9+01501+01301101431ADDAY101999GF101991001001999999001021MD1010081+9999MW1021REMSYN00510155
0071874480999991973020513004-33733-065383FM-12+0485SARY V0209991C00001220001CN0200001N9+02501+01501101261ADDAY101999GF101991001001999999001021MD1010011+9999MW1021REMSYN00510155
0071874480999991973020514004-33733-065383FM-12+0485SARY V0209991C00001220001CN0200001N9+02701+01701101221ADDAY101999GF101991001001999999001021MD1010011+9999MW1021REMSYN00510153
0071874480999991973020517004-33733-065383FM-12+0485SARY V0200701N00411220001CN0240001N9+03201+01801100931ADDAY101999GF101991001001999999001021MD1710191+9999MW1011REMSYN00510134
0068874480999991973020518004-33733-065383FM-12+0485SARY V0200701N00511220001CN0300001N9+03301+02001100861ADDAA199000091AY101999GF101991001001999999001021MD1710191+9999MW1021
0071874480999991973020519004-33733-065383FM-12+0485SARY V0200701N00511220001CN0300001N9+03301+02001100701ADDAY101999GF101991001001999999001021MD1710201+9999MW1021REMSYN00510125
0071874480999991973020520004-33733-065383FM-12+0485SARY V0200701N00611220001CN0300001N9+99999+99999999999ADDAY101999GF101991001001999999001021MD1610161+9999MW1021REMSYN00510117
0071874480999991973020521004-33733-065383FM-12+0485SARY V0200701N00511220001CN0300001N9+03201+01801100741ADDAY101999GF101991001001999999001021MD1610111+9999MW1021REMSYN00510114
0071874480999991973020522004-33733-065383FM-12+0485SARY V0200701N00511220001CN0300001N9+02901+01701100791ADDAY101999GF102991001001999999001021MD1610081+9999MW1031REMSYN00510118
0088874480999991973020523004-33733-065383FM-12+0485SARY V0200801N00611220001CN0300001N9+02801+01801100831ADDAA199000091AY101999GF102991001001999999001021MD1610041+9999MW1021REMSYN01170033 10113
0081874480999991973020600004-33733-065383FM-12+0485SARY V0200801N00611220001CN0300001N9+02801+01801100831ADDAA199000091AY101999GF102991001001999999001021KA1999M+03301MD1610041+9999MW1021
0071874480999991973020601004-33733-065383FM-12+0485SARY V0209991C00001220001CN0300001N9+02201+01701100991ADDAY101999GF101991001001999999001011MD1310091+9999MW1011REMSYN00510124
0071874480999991973020603004-33733-065383FM-12+0485SARY V0200901N00101220001CN0300001N9+01901+01601101091ADDAY101999GF100991001001999999001001MD1010071+9999MW1021REMSYN00510124
0071874480999991973020604004-33733-065383FM-12+0485SARY V0209991C00001220001CN0300001N9+01701+01501101151ADDAY101999GF100991001001999999001001MD1310041+9999MW1021REMSYN00510127
0101874480999991973020606004-33733-065383FM-12+0485SARY V0209991C00001220001CN0300001N9+01901+01801100492ADDAA199000091AY111999GF104991001001999999001021MD1410001+9999MW1021REMSYN00510065EQDQ01+100493APOSLP
0071874480999991973020611004-33733-065383FM-12+0485SARY V0209991C00001220001CN0300001N9+01401+01301101091ADDAY101999GF103991001001999999001021MD1810031+9999MW1031REMSYN00510115
0090874480999991973020612004-33733-065383FM-12+0485SARY V0209991C00001220001CN0300001N9+99999+99999100981ADDAY101999GF102991999061004501001001MD1010141+9999MW1011REMSYN00510117EQDQ01+000012SCOTLC
0071874480999991973020613004-33733-065383FM-12+0485SARY V0200201N00251220001CN0300001N9+02801+01501100951ADDAY101999GF103991011001999999021021MD1810071+9999MW1031REMSYN00510110
0071874480999991973020615004-33733-065383FM-12+0485SARY V0200201N00101220001CN0300001N9+03001+01701100661ADDAY101999GF102991001001999999001021MD1810121+9999MW1011REMSYN00510103
0071874480999991973020616004-33733-065383FM-12+0485SARY V0202201N00611220001CN0300001N9+03201+01601100511ADDAY101999GF103991001001999999001031MD1610151+9999MW1031REMSYN00510094
0071874480999991973020617004-33733-065383FM-12+0485SARY V0200501N00511220001CN0300001N9+03301+01601100421ADDAY101999GF103991001001999999001021MD1710171+9999MW1021REMSYN00500084
0082874480999991973020618004-33733-065383FM-12+0485SARY V0200501N00511220001CN0300001N9+03401+01701100351ADDAA199000091AY101999GF103991001001999999001021MD1710201+9999MW1021REMSYN00510078
0071874480999991973020619004-33733-065383FM-12+0485SARY V0200701N00511220001CN0300001N9+03401+01801100261ADDAY101999GF103991001001999999001021MD1710211+9999MW1021REMSYN00510072
0071874480999991973020620004-33733-065383FM-12+0485SARY V0200701N00511220001CN0300001N9+03401+01801100201ADDAY101999GF103991001001999999001021MD1710231+9999MW1021REMSYN00510066
0071874480999991973020621004-33733-065383FM-12+0485SARY V0200701N01131220001CN0300001N9+03201+00902100191ADDAY101999GF104991001001999999001021MD1710191+9999MW1021REMSYN00510059
0088874480999991973020623004-33733-065383FM-12+0485SARY V0200501N00511090001CN0300001N9+02801+01701100271ADDAA199000091AY111999GF107991031001999999071021MD1610041+9999MW1031REMSYN01170035 10059
0071874480999991973020700004-33733-065383FM-12+0485SARY V0200501N00251090001CN0300001N9+02601+01801100351ADDAY111999GF106991011001999999071021MD1310041+9999MW1021REMSYN00510063
0071874480999991973020709004-33733-065383FM-12+0485SARY V0201801N00301090001CN0300001N9+02101+01601100531ADDAY111999GF106991011001999999031021MD1310081+9999MW1031REMSYN0051007*
0071874480999991973020710004-33733-065383FM-12+0485SARY V0209991C00001090001CN0300001N9+01901+01601100651ADDAY111999GF105991011001999999031021MD1310161+9999MW1021REMSYN00510881
0071874480999991973020713004-33733-065383FM-12+0485SARY V0201801N00361090001CN0300001N9+02501+01601100751ADDAY121999GF105991021001999999031021MD1210191+9999MW1011REMSYN00510102
0071874480999991973020714004-33733-065383FM-12+0485SARY V0201601N00251090001CN0300001N9+02801+01301100741ADDAY121999GF105991021001999999031021MD1210121+9999MW1021REMSYN00510103
0071874480999991973020715004-33733-065383FM-12+0485SARY V0201601N00251090001CN0300001N9+02801+01101100701ADDAY121999GF105991021001999999031021MD1110031+9999MW1021REMSYN00510103
0090874480999991973020717004-33733-065383FM-12+0485SARY V0201801N00151220001CN9999999N9+03101+99999100491ADDAY111999GF104991021081012501031001MD1710131+9999MW1031REMSYN0051008*EQDQ01+030123ATOD  
0082874480999991973020718004-33733-065383FM-12+0485SARY V0201401N00301015001CN0300001N9+03101+01201100341ADDAA199000091AY111999GF105991051081012501001001MD1710251+9999MW1031REMSYN00510073
0071874480999991973020719004-33733-065383FM-12+0485SARY V0201401N00251015001CN0300001N9+03201+01201100371ADDAY111999GF105991051081012501001001MD1710321+9999MW1021REMSYN00510065
0071874480999991973020720004-33733-065383FM-12+0485SARY V0201401N00201220001CN0300001N9+03201+01301100221ADDAY111999GF104991041081012501001001MD1710271+9999MW1011REMSYN00510061
0071874480999991973020721004-33733-065383FM-12+0485SARY V0201601N00201220001CN0300001N9+03101+01001100191ADDAY111999GF103991031081012501001001MD1710151+9999MW1011REMSYN00510059
0104874480999991973020723004-33733-065383FM-12+0485SARY V0201401N00151015001CN0300001N9+02901+01201100271ADDAA199000091AY111999GA1011+015009089GF106991061081012501001001MD1310011+9999MW1021REMSYN01170032 10062
0087874480999991973020800004-33733-065383FM-12+0485SARY V0209991C00001015001CN0300001N9+02501+01301100471ADDAY111999GA1021+015009099GF107991071081012501001001MD1310161+9999MW1131REMSYN00510075
0071874480999991973020811004-33733-065383FM-12+0485SARY V0209991C00001220001CN0200001N9+01801+01501100311ADDAY101999GF102991021081008001001001MD1610201+9999MW1021REMSYN00510046
0095874480999991973020812004-33733-065383FM-12+0485SARY V0203601N00151220001CN0200001N9+02401+01601100181ADDAA199000091AY101999GF102991021081012501001001KA1999N+01501MD1610051+9999MW1021REMSYN00510041
0071874480999991973020813004-33733-065383FM-12+0485SARY V0209991C00001220001CN0200001N9+02801+01801100091ADDAY101999GF101991011081012501001001MD1810041+9999MW1011REMSYN00510039
0071874480999991973020814004-33733-065383FM-12+0485SARY V0200201N00101220001CN0200001N9+03101+01701100011ADDAY101999GF101991999999999999999999MD1610041+9999MW1021REMSYN00510039
0071874480999991973020815004-33733-065383FM-12+0485SARY V0200901N00301220001CN0200001N9+03201+01701099981ADDAY101999GF102991021021012501001001MD1810051+9999MW1031REMSYN00510036
0071874480999991973020816004-33733-065383FM-12+0485SARY V0201101N00461220001CN0300001N9+03301+01801099901ADDAY101999GF102991021021012501001001MD1810071+9999MW1021REMSYN00510030
0087874480999991973020817004-33733-065383FM-12+0485SARY V0200901N00611220001CN0200001N9+03301+01701999999ADDAY101999GA1011+012009099GF104991031021012501001031MD1710131+9999MW1031REMSYN00510025
0068874480999991973020818004-33733-065383FM-12+0485SARY V0200901N00511220001CN0200001N9+03101+01801099381ADDAA199000091AY101999GF104991031021012501001031MD1710171+9999MW1151
0090874480999991973020819004-33733-065383FM-12+0485SARY V0200901N01131012001CN0200001N9+02901+01901099842ADDAY111999GF106991051091012501001031MD1710191+9999MW1181REMSYN00510009EQDQ01+099843APOSLP
0071874480999991973020821004-33733-065383FM-12+0485SARY V0200501N00511090001CN0200001N9+03001+02101099741ADDAY121999GF106991031091012501001031MD1610071+9999MW1021REMSYN00510009
0071874480999991973020822004-33733-065383FM-12+0485SARY V0200901N00511036001CN0200001N9+03001+02101099741ADDAY121999GF106991021021012501061021MD1410001+9999MW1011REMSYN00510009
0088874480999991973020823004-33733-065383FM-12+0485SARY V0200901N00511220001CN0200001N9+02901+02001099741ADDAA199000091AY111999GF103991011021012501061021MD1410001+9999MW1011REMSYN01170034 10008
0077874480999991973020900004-33733-065383FM-12+0485SARY V0200901N00511220001CN0200001N9+02601+02001999999ADDAY111999GF101991011091012501001001MD1410001+9999MW1131REMSYN0111000* 9****
0071874480999991973020901004-33733-065383FM-12+0485SARY V0200901N00511220001CN0200001N9+02501+02001099821ADDAY101999GF101991011091012501001001MD1410001+9999MW1131REMSYN00510005
0087874480999991973020911004-33733-065383FM-12+0485SARY V0201801N00251015001CN0300001N9+01501+01301100981ADDAY121999GA1011+012009099GF108991081081012501999999MD1210211+9999MW1021REMSYN00510105
0111874480999991973020912004-33733-065383FM-12+0485SARY V0201401N00511015001CN0300001N9+01601+01001101111ADDAA199999929AY111999GA1011+012009099GF107991071081012501001001KA1999N+01401MD1210351+9999MW1011REMSYN00510119
0087874480999991973020913004-33733-065383FM-12+0485SARY V0201601N00511015001CN0300001N9+01601+01001101141ADDAY121999GA1021+012009089GF107991051081012501061021MD1210241+9999MW1021REMSYN00510122
0087874480999991973020914004-33733-065383FM-12+0485SARY V0201801N00921015001CN0300001N9+01701+00701101141ADDAY121999GA1021+012009089GF108991081081012501999999MD1210201+9999MW1021REMSYN00510126
0087874480999991973020915004-33733-065383FM-12+0485SARY V0201601N00611012001CN0300001N9+01901+00701101131ADDAY121999GA1081+012009089GF108991081081012501999999MD1210091+9999MW1021REMSYN00510088
