0071874530999991973010100004-33083-064267FM-12+042099999V0203601N00251036001CN0200001N9+02301+01701999999ADDAY111999GF106991021091012501071001MD1310151+9999MW1031REMSYN00510068
0082874530999991973010106004-33083-064267FM-12+042099999V0203601N00101036001CN0200001N9+02301+01701100481ADDAA199000091AY111999GF108991021091012501071001MD1310151+9999MW1031REMSYN00510068
0063874530999991973010110004-33083-064267FM-12+042099999V0209991C00001090001CN0200001N9+01901+01701100731ADDGF107991031001999999071021MD1310041+9999MW1021REMSYN00510089
0071874530999991973010111004-33083-064267FM-12+042099999V0202301N00561220001CN0200001N9+02201+01801101491ADDAY111999GF103991001001999999001021MD1210271+9999MW1011REMSYN00510108
0071874530999991973010113004-33083-064267FM-12+042099999V0202301N00411220001CN0200001N9+02401+01801101831ADDAY111999GF103991001001999999001021MD1110131+9999MW1021REMSYN00510122
0090874530999991973010114004-33083-064267FM-12+042099999V0202401N00251220001CN0200001N9+02501+01801100892ADDAY101999GF103991021001999999011021MD1110041+9999MW1011REMSYN00510112EQDQ01+100893APOSLP
0071874530999991973010115004-33083-064267FM-12+042099999V0201801N00671220001CN0200001N9+02601+01801100931ADDAY111999GF104991021011012501001021MD1110131+9999MW1031REMSYN00510119
0071874530999991973010116004-33083-064267FM-12+042099999V0201601N00251220001CN0200001N9+02801+01801100901ADDAY111999GF104991031011012501001021MD1110071+9999MW1031REMSYN00510119
0083874530999991973010117004-33083-064267FM-12+042099999V0201601N002519999999N0300001N9+99999+99999100831ADDAY111999GF106991031999999999999999MD1610301+9999MW1031REMSYN01741602 18103 10117
0082874530999991973010118004-33083-064267FM-12+042099999V0200901N00251015001CN0200001N9+02801+01801100901ADDAA199000091AY111999GF106991051081012501001021MD1410001+9999MW1031REMSYN00510119
0071874530999991973010119004-33083-064267FM-12+042099999V0200701N00251220001CN0200001N9+03001+01801100801ADDAY121999GF104991041081012501001001MD1810121+9999MW1011REMSYN00510107
0077874530999991973010120004-33083-064267FM-12+042099999V0201101N00251220001CN0200001N9+03001+01701100741ADDAY111999GF103991031081012501001001MD1710161+9999MW1011REMSYN0111010* 0****
0071874530999991973010121004-33083-064267FM-12+042099999V0201401N00251220001CN0200001N9+03001+01801100601ADDAY111999GF101991001001999999001021MD1710271+9999MW1011REMSYN00510009
0071874530999991973010122004-33083-064267FM-12+042099999V0200901N00251220001CN0200001N9+02901+01801100591ADDAY101999GF100991001001999999001001MD1710161+9999MW1011REMSYN00510090
0089874530999991973010123004-33083-064267FM-12+042099999V0200701N00251220001CN0200001N9+02801+01801100591ADDAA199000091AY101999GF100991001001999999001001MD1610081+9999MW1021REMSYN01270030 1009.?
0071874530999991973010200004-33083-064267FM-12+042099999V0209991C00001220001CN0200001N9+02601+01901100771ADDAY101999GF100991001001999999001001MD1310111+9999MW1021REMSYN00510103
0082874530999991973010206004-33083-064267FM-12+042099999V0203401N00251220001CN0200001N9+02301+01801100691ADDAA199000091AY101999GF100991001001999999001001MD1710161+9999MW1021REMSYN00510090
0071874530999991973010210004-33083-064267FM-12+042099999V0209991C000019999999N0200001N9+02201+01801100821ADDAY111999GF199999011001999999061021MD1210131+9999MW1011REMSYN00510101
0071874530999991973010211004-33083-064267FM-12+042099999V0209991C00001220001CN0200001N9+02401+01801100821ADDAY101999GF102991011001999999061021MD1210161+9999MW1021REMSYN00510106
0095874530999991973010212004-33083-064267FM-12+042099999V0201801N00921220001CN0200001N9+02501+01901101071ADDAA199000091AY101999GF103991021011012501061001KA1999N+02201MD1210271+9999MW1031REMSYN00510124
0071874530999991973010214004-33083-064267FM-12+042099999V0201101N00671220001CN0200001N9+02601+01801101041ADDAY101999GF100991001001999999001001MD1110241+9999MW1011REMSYN00510131
0071874530999991973010215004-33083-064267FM-12+042099999V0200701N00671220001CN0200001N9+02801+01801101081ADDAY101999GF100991001001999999001001MD1310091+9999MW1021REMSYN00510135
0071874530999991973010216004-33083-064267FM-12+042099999V0200901N00411220001CN0200001N9+02801+01801101051ADDAY101999GF100991001001999999001001MD1110091+9999MW1021REMSYN00510135
0071874530999991973010217004-33083-064267FM-12+042099999V0209999999999220001CN0200001N9+03001+02001100971ADDAY101999GF103991021021012501001999MD1810041+9999MW1031REMSYN00510126
0057874530999991973010218004-33083-064267FM-12+042099999V0200901N00411220001CN0200001N9+03001+01901100881ADDAY101999GF104991021021012501061001MD1810131+9999MW1031
0071874530999991973010219004-33083-064267FM-12+042099999V0201401N00511036001CN0200001N9+03001+01901100781ADDAY111999GF105991031021012501061001MD1710231+9999MW1031REMSYN0051011*
0071874530999991973010220004-33083-064267FM-12+042099999V0201401N00511036001CN0200001N9+03001+01901100741ADDAY121999GF105991031021012501061001MD1710191+9999MW1021REMSYN00510107
0090874530999991973010221004-33083-064267FM-12+042099999V0201401N00411036001CN0200001N9+02801+02001100771ADDAY121999GF106991041091012501061001MD1710111+9999MW1161REMSYN00510101EQDQ01+000792APC3  
0071874530999991973010222004-33083-064267FM-12+042099999V0209991C00001012001CN0200001N9+02701+02001100771ADDAY191999GF107991051091012501071001MD1610091+9999MW1171REMSYN00510101
0088874530999991973010223004-33083-064267FM-12+042099999V0209991C00001012001CN0200001N9+02601+02101100891ADDAA199000091AY191999GF107991051091012501071001MD1310051+9999MW1171REMSYN01170031 10112
0071874530999991973010300004-33083-064267FM-12+042099999V0209991C00001012001CN0200001N9+02101+01701101101ADDAY191999GF107991051091012501071001MD1310121+9999MW1171REMSYN00510128
0082874530999991973010306004-33083-064267FM-12+042099999V0202701N00251220001CN0200001N9+02001+01601101141ADDAA199999929AY101999GF100991001001999999001001MD1610091+9999MW1011REMSYN00510132
0071874530999991973010309004-33083-064267FM-12+042099999V0202701N00251220001CN0200001N9+01801+01601101241ADDAY101999GF100991001001999999001001MD1310051+9999MW1021REMSYN00510135
0071874530999991973010310004-33083-064267FM-12+042099999V0209991C00001220001CN0200001N9+01901+01601101281ADDAY101999GF100991001001999999001001MD1310091+9999MW1021REMSYN00510141
0095874530999991973010312004-33083-064267FM-12+042099999V0209991C00001220001CN0200001N9+02401+01401101161ADDAA199999929AY101999GF100991001001999999001001KA1999N+01801MD1210031+9999MW1021REMSYN00510140
0071874530999991973010313004-33083-064267FM-12+042099999V0200201N00611220001CN0200001N9+02601+01701101131ADDAY101999GF100991001001999999001001MD1110011+9999MW1021REMSYN00510140
0071874530999991973010314004-33083-064267FM-12+042099999V0200601N00411220001CN0200001N9+02701+01601101041ADDAY101999GF100991001001999999001001MD1810111+9999MW1021REMSYN00510132
0071874530999991973010315004-33083-064267FM-12+042099999V0203601N00411220001CN0200001N9+02801+01601100941ADDAY101999GF100991001001999999001001MD1710011+9999MW1021REMSYN00510123
0071874530999991973010316004-33083-064267FM-12+042099999V0203601N00411220001CN0200001N9+03001+01601100911ADDAY101999GF100991001001999999001001MD1610161+9999MW1021REMSYN00510123
0071874530999991973010317004-33083-064267FM-12+042099999V0203601N00411220001CN0200001N9+03001+01701100741ADDAY101999GF100991001001999999001001MD1810231+9999MW1021REMSYN00510116
0088874530999991973010318004-33083-064267FM-12+042099999V0203601N00411220001CN0200001N9+03001+01701100691ADDAA199000091AY101999GF100991001001999999001001MD1710211+9999MW1021REMSYN01110101 0*7*8
0071874530999991973010319004-33083-064267FM-12+042099999V0203601N00251220001CN0200001N9+03101+01801100641ADDAY101999GF100991001001999999001001MD1710271+9999MW1021REMSYN00510095
0071874530999991973010320004-33083-064267FM-12+042099999V0200201N00411220001CN0200001N9+03101+01701100541ADDAY101999GF100991001001999999001001MD1710171+9999MW1021REMSYN00510089
0071874530999991973010321004-33083-064267FM-12+042099999V0200201N00411220001CN0200001N9+03101+01601100411ADDAY101999GF100991001001999999001001MD1710251+9999MW1021REMSYN00510075
0071874530999991973010322004-33083-064267FM-12+042099999V0200201N00671220001CN0200001N9+03001+01801100411ADDAY101999GF100991001001999999001001MD1710131+9999MW1021REMSYN00510075
0088874530999991973010323004-33083-064267FM-12+042099999V0200201N00671220001CN0200001N9+03001+01801100381ADDAA199000091AY101999GF100991001001999999001001MD1710191+9999MW1021REMSYN01170031 10069
0071874530999991973010400004-33083-064267FM-12+042099999V0203601N00251220001CN0200001N9+02701+01801100421ADDAY101999GF100991001001999999001001MD1610051+9999MW1021REMSYN00510069
0071874530999991973010409004-33083-064267FM-12+042099999V0209991C00001220001CN0200001N9+02201+01801100291ADDAY101999GF100991001001999999001001MD1410001+9999MW1021REMSYN00510049
0071874530999991973010411004-33083-064267FM-12+042099999V0209991C00001220001CN0200001N9+02401+01401100261ADDAY101999GF100991001001999999001001MD1510001+9999MW1021REMSYN00510040
0095874530999991973010412004-33083-064267FM-12+042099999V0203601N00411220001CN0200001N9+02701+01601100241ADDAA199000091AY101999GF100991001001999999001001KA1999N+02001MD1410001+9999MW1021REMSYN00510049
0071874530999991973010413004-33083-064267FM-12+042099999V0203201N00671220001CN0200001N9+02801+01501100261ADDAY101999GF100991001001999999001001MD1810031+9999MW1021REMSYN00510047
0071874530999991973010414004-33083-064267FM-12+042099999V0203601N00671220001CN0200001N9+03001+01401100261ADDAY101999GF100991001001999999001001MD1810041+9999MW1021REMSYN00510045
0071874530999991973010416004-33083-064267FM-12+042099999V0201801N00671220001CN0200001N9+02801+01901100161ADDAY101999GF100991001001999999001001MD1610011+9999MW1021REMSYN00510045
0071874530999991973010417004-33083-064267FM-12+042099999V0209991C00001220001CN0200001N9+03001+01901100131ADDAY101999GF100991001001999999001001MD1410001+9999MW1021REMSYN00510045
0095874530999991973010418004-33083-064267FM-12+042099999V0209991C00001220001CN0200001N9+03101+01801100011ADDAA199000091AY101999GF100991001001999999001001MD1810121+9999MW1021UA1M990559999REMSYN0050*7*9
0071874530999991973010419004-33083-064267FM-12+042099999V0209991C00001220001CN0200001N9+03201+01801099931ADDAY101999GF100991001001999999001001MD1810201+9999MW1021REMSYN005102**
0071874530999991973010420004-33083-064267FM-12+042099999V0209991C00001220001CN0200001N9+03201+01801099721ADDAY101999GF100991001001999999001001MD1710351+9999MW1021REMSYN00510000
0071874530999991973010421004-33083-064267FM-12+042099999V0209991C00001220001CN0200001N9+03201+01801099641ADDAY101999GF100991001001999999001001MD1710311+9999MW1021REMSYN00510001
0088874530999991973010423004-33083-064267FM-12+042099999V0209991C00001220001CN0200001N9+03201+01501099641ADDAA199000091AY101999GF100991001001999999001001MD1610111+9999MW1021REMSYN01170033 999*8
0071874530999991973010500004-33083-064267FM-12+042099999V0209991C00001220001CN0200001N9+02801+01801099741ADDAY101999GF100991001001999999001001MD1510041+9999MW1021REMSYN00510005
0082874530999991973010506004-33083-064267FM-12+042099999V0209991C00001220001CN0200001N9+02301+01701099761ADDAA199000091AY101999GF101991011091012501001001MD1810081+9999MW1131REMSYN005999*7
0071874530999991973010509004-33083-064267FM-12+042099999V0202001N00921220001CN0200001N9+02201+01601100131ADDAY101999GF100991001001999999001001MD1310281+9999MW1021REMSYN00510032
0071874530999991973010510004-33083-064267FM-12+042099999V0202001N01231220001CN0200001N9+02101+01201100401ADDAY101999GF100991001001999999001001MD1310491+9999MW1021REMSYN00510057
0090874530999991973010511004-33083-064267FM-12+042099999V0202001N00921220001CN0210001N9+02101+00901100531ADDAY101999GF100991001001999999001001MD1210712+9999MW1021REMSYN00510070EQDQ01+000712APC3  
0114874530999991973010512004-33083-064267FM-12+042099999V0202001N00671220001CN0150001N9+02201+00601100521ADDAA199000091AY101999GF100991001001999999001001KA1999N+02101MD1210391+9999MW1061REMSYN00510078EQDQ01+000692APC3  
0071874530999991973010513004-33083-064267FM-12+042099999V0202001N00921220001CN0150001N9+02201+00501100521ADDAY101999GF100991001001999999001001MD1110201+9999MW1061REMSYN00510078
0071874530999991973010514004-33083-064267FM-12+042099999V0202001N00411220001CN0150001N9+02401+00501100641ADDAY101999GF100991001001999999001001MD1210151+9999MW1061REMSYN00510086
0071874530999991973010515004-33083-064267FM-12+042099999V0202001N00921220001CN0150001N9+02501+00501100611ADDAY101999GF100991001001999999001001MD1110081+9999MW1061REMSYN00510086
0071874530999991973010516004-33083-064267FM-12+042099999V0202001N00921220001CN0150001N9+02601+00501100611ADDAY101999GF100991001001999999001001MD1110081+9999MW1011REMSYN00510088
0071874530999991973010517004-33083-064267FM-12+042099999V0202001N00921220001CN0150001N9+02501+00301100581ADDAY101999GF100991001001999999001001MD1110031+9999MW1021REMSYN00510083
0103874530999991973010518004-33083-064267FM-12+042099999V0201801N00921220001CN0150001N9+02601+99999100561ADDAA199000091AY101999GF100991001001999999001001MD1710051+9999MW1061EQDQ01+000042APCTENQ02+000032APC3  
0071874530999991973010519004-33083-064267FM-12+042099999V0201801N00671220001CN0150001N9+02601+00201100561ADDAY101999GF100991001001999999001001MD1410001+9999MW1061REMSYN00510083
0071874530999991973010520004-33083-064267FM-12+042099999V0201801N00671220001CN0150001N9+02601+00401100561ADDAY101999GF100991001001999999001001MD1410001+9999MW1051REMSYN00510083
0071874530999991973010521004-33083-064267FM-12+042099999V0201801N00671220001CN0200001N9+02501+00301100501ADDAY101999GF100991001001999999001001MD1810081+9999MW1021REMSYN00510075
0071874530999991973010522004-33083-064267FM-12+042099999V0201801N00411220001CN0200001N9+02501+00401100501ADDAY101999GF100991001001999999001001MD1610081+9999MW1021REMSYN00510075
0076874530999991973010600004-33083-064267FM-12+042099999V0203601N00411220001CN0200001N9+02701+01401999999ADDAY101999GF100991001001999999001001MD1510051+9999MW1021EQDQ01+099823APOSLP
0082874530999991973010606004-33083-064267FM-12+042099999V0209991C00001220001CN0200001N9+01901+00901100711ADDAA199000091AY101999GF100991001001999999001001MD1110111+9999MW1021REMSYN00510091
0071874530999991973010610004-33083-064267FM-12+042099999V0203601N00511036001CN0200001N9+01601+00601101001ADDAY111999GF105991031041012501061001MD1410001+9999MW1031REMSYN00510102
0092874530999991973010611004-33083-064267FM-12+042099999V0203601N00671036001CN0200001N9+01701+00701101021ADDAY111999GF105991031051017501061001MW1031REMSYN00510112EQDQ01+000042APCTENQ02+000032APC3  
0095874530999991973010612004-33083-064267FM-12+042099999V0203601N01341036001CN0200001N9+02001+00601100811ADDAA199000091AY111999GF106991031051012501071001KA1999N+01501MD1010081+9999MW1031REMSYN00510098
0071874530999991973010613004-33083-064267FM-12+042099999V0203601N01341220001CN0150001N9+02201+00701100651ADDAY121999GF102991011021012501071001MD1710211+9999MW1061REMSYN00510083
0071874530999991973010614004-33083-064267FM-12+042099999V0203601N01341220001CN0150001N9+02401+00701100561ADDAY111999GF103991021021012501031001MD1610321+9999MW1061REMSYN00510079
0057874530999991973010615004-33083-064267FM-12+042099999V0203601N01231220001CN0150001N9+02501+00801100481ADDAY111999GF103991021021012501001031MD1710251+9999MW1041
0071874530999991973010616004-33083-064267FM-12+042099999V0203601N01341220001CN0150001N9+02701+00801100381ADDAY111999GF103991021021012501041001MD1710171+9999MW1061REMSYN00510065
0071874530999991973010617004-33083-064267FM-12+042099999V0203601N01231220001CN0150001N9+02801+00901100241ADDAY121999GF103991031021012501001001MD1710241+9999MW1061REMSYN00510054
0082874530999991973010618004-33083-064267FM-12+042099999V0203601N01181220001CN0150001N9+02901+00901100181ADDAA199000091AY111999GF102991021041012501001001MD1710241+9999MW1061REMSYN00510048
0071874530999991973010619004-33083-064267FM-12+042099999V0203601N01341220001CN0150001N9+03001+01001099971ADDAY101999GF101991011041017501001001MD1710371+9999MW1061REMSYN00510026
0071874530999991973010620004-33083-064267FM-12+042099999V0203601N01231220001CN0150001N9+03001+01001099811ADDAY101999GF100991001001999999001001MD1710361+9999MW1061REMSYN00510016
0106874530999991973010621004-33083-064267FM-12+042099999V0203601N01231220001CN0150001N9+03001+01101099701ADDAY101999GF100991001001999999001001MD1710481+9999MW1061REMSYN00510005EQDQ01+000012APCTENQ02+000732APC3  
0071874530999991973010622004-33083-064267FM-12+042099999V0203601N01231220001CN0150001N9+02901+01201099721ADDAY101999GF100991001001999999001001MD1610231+9999MW1061REMSYN00510003
0088874530999991973010623004-33083-064267FM-12+042099999V0203601N00921220001CN0200001N9+02901+01301099721ADDAA199000091AY101999GF100991001001999999001001MD1610131+9999MW1021REMSYN01170030 10003
0071874530999991973010700004-33083-064267FM-12+042099999V0203601N00411220001CN0200001N9+02701+01401099821ADDAY101999GF100991001001999999001001MD1510051+9999MW1021REMSYN00510010
0071874530999991973010709004-33083-064267FM-12+042099999V0202301N00921220001CN0100001N9+02101+01601100421ADDAY101999GF103991031001999999011001MD1210331+9999MW1051REMSYN00510060
0090874530999991973010710004-33083-064267FM-12+042099999V0202301N01231220001CN0080001N9+01901+00202100611ADDAY101999GF100991001001999999001001MD1210371+9999MW1061REMSYN00510077EQDQ01+027523ATOD  
0071874530999991973010711004-33083-064267FM-12+042099999V0202001N01231220001CN0080001N9+01801+00201999999ADDAY101999GF100991001001999999001001MD1210401+9999MW1071REMSYN00510093
0095874530999991973010712004-33083-064267FM-12+042099999V0202301N01231220001CN0080001N9+01901-00201100931ADDAA199000091AY101999GF100991001001999999001001KA1999N+01801MD1210441+9999MW1071REMSYN00510106
0071874530999991973010713004-33083-064267FM-12+042099999V0202301N01231220001CN0080001N9+02101+00101101001ADDAY101999GF100991001001999999001001MD1210311+9999MW1071REMSYN00510110
0071874530999991973010714004-33083-064267FM-12+042099999V0202301N00921220001CN0100001N9+02201-00101100941ADDAY101999GF100991001001999999001001MD1210171+9999MW1071REMSYN00510111
0071874530999991973010715004-33083-064267FM-12+042099999V0202301N00921220001CN0150001N9+02201-00201100921ADDAY101999GF100991001001999999001001MD1110041+9999MW1021REMSYN00510111
0071874530999991973010716004-33083-064267FM-12+042099999V0202001N00921220001CN0200001N9+02301+00001100921ADDAY101999GF100991001001999999001001MD1110031+9999MW1021REMSYN00510111
0082874530999991973010717004-33083-064267FM-12+042099999V0202001N00921220001CN0200001N9+02501+00001100801ADDAA199010091AY101999GF100991001001999999001001MD1810071+9999MW1021REMSYN00571004
0082874530999991973010718004-33083-064267FM-12+042099999V0202001N00671220001CN0200001N9+02501+00001100801ADDAA199000091AY101999GF100991001001999999001001MD1610071+9999MW1021REMSYN00510104
0071874530999991973010719004-33083-064267FM-12+042099999V0201801N00671220001CN0200001N9+02501+00001100801ADDAY101999GF100991001001999999001001MD1610071+9999MW1021REMSYN00510104
0071874530999991973010720004-33083-064267FM-12+042099999V0201801N00411220001CN0200001N9+02501+00001100721ADDAY101999GF100991001001999999001001MD1810081+9999MW1021REMSYN00510095
0071874530999991973010721004-33083-064267FM-12+042099999V0201801N00251220001CN0200001N9+02501+00001100651ADDAY101999GF100991001001999999001001MD1810131+9999MW1021REMSYN00510008
0071874530999991973010722004-33083-064267FM-12+042099999V0209991C00001220001CN0200001N9+02601+00101100641ADDAY101999GF100991001001999999001001MD1610131+9999MW1021REMSYN00510090
0088874530999991973010723004-33083-064267FM-12+042099999V0209991C00001220001CN0200001N9+02501+00501100641ADDAA199000091AY101999GF100991001001999999001001MD1610051+9999MW1021REMSYN01170026 10090
0071874530999991973010800004-33083-064267FM-12+042099999V0209991C00001220001CN0200001N9+02101+00701100901ADDAY101999GF100991001001999999001001MD1310161+9999MW1021REMSYN00510107
0082874530999991973010806004-33083-064267FM-12+042099999V0209991C00001220001CN0200001N9+01801+00501101101ADDAA199000091AY101999GF103991031001999999071001MD1010031+9999MW1031REMSYN00510123
0090874530999991973010809004-33083-064267FM-12+042099999V0202601N00251036001CN0200001N9+01901+00401101061ADDAY111999GF106991999001999999071001MD1510041+9999MW1031REMSYN00510119EQDQ01+000052SCOTLC
0071874530999991973010810004-33083-064267FM-12+042099999V0209991C00001036001CN0200001N9+01901+00201101061ADDAY121999GF106991061001999999071001MD1410001+9999MW1021REMSYN00510119
0095874530999991973010812004-33083-064267FM-12+042099999V0203601N00251036001CN0200001N9+02001+00501101211ADDAA199000091AY121999GF107991041051017501071001KA1999N+01601MD1310191+9999MW1021REMSYN00510139
0071874530999991973010813004-33083-064267FM-12+042099999V0200201N01031220001CN0150001N9+02301+00201101141ADDAY121999GF104991041001999999071001MD1010151+9999MW1011REMSYN00510135
0071874530999991973010814004-33083-064267FM-12+042099999V0200201N01031220001CN0100001N9+02401+00201101061ADDAY101999GF104991041001999999071001MD1810031+9999MW1051REMSYN00510132
0071874530999991973010815004-33083-064267FM-12+042099999V0200201N01031220001CN0100001N9+02101+00301101001ADDAY101999GF102991021001999999071001MD1710151+9999MW1051REMSYN00510123
0090874530999991973010816004-33083-064267FM-12+042099999V0200501N00921220001CN0100001N9+02701+00401100891ADDAY101999GF102991999001999999071001MD1610191+9999MW1051REMSYN00510115EQDQ01+000012SCOTLC
0071874530999991973010817004-33083-064267FM-12+042099999V0200501N00921220001CN0100001N9+02801+00401100821ADDAY101999GF102991021001999999071001MD1610191+9999MW1051REMSYN00510111
0068874530999991973010818004-33083-064267FM-12+042099999V0200201N01231220001CN0100001N9+02801+00301100741ADDAA199000091AY101999GF100991001001999999001001MD1610201+9999MW1051
0071874530999991973010819004-33083-064267FM-12+042099999V0200201N01231220001CN0100001N9+02901+00301100651ADDAY101999GF100991001001999999001001MD1610211+9999MW1051REMSYN00510093
0071874530999991973010820004-33083-064267FM-12+042099999V0200501N00921220001CN0150001N9+02901+00201100561ADDAY101999GF100991001001999999001001MD1610241+9999MW1051REMSYN00510088
0071874530999991973010821004-33083-064267FM-12+042099999V0200501N01031220001CN0150001N9+02901+00301100531ADDAY101999GF100991001001999999001001MD1610171+9999MW1051REMSYN00510085
0071874530999991973010822004-33083-064267FM-12+042099999V0200501N01031220001CN0150001N9+02801+00301100531ADDAY101999GF100991001001999999001001MD1610081+9999MW1051REMSYN00510085
0088874530999991973010823004-33083-064267FM-12+042099999V0200501N00921220001CN0180001N9+02601+00601100551ADDAA199000091AY101999GF100991001001999999001001MD1610031+9999MW1021REMSYN01170029 10085
0071874530999991973010900004-33083-064267FM-12+042099999V0200501N00671220001CN0200001N9+02301+00801100621ADDAY101999GF100991001001999999001001MD1410001+9999MW1031REMSYN00510085
0082874530999991973010906004-33083-064267FM-12+042099999V0200201N00671220001CN0200001N9+02001+00501100491ADDAA199000091AY101999GF100991001001999999001001MD1610071+9999MW1021REMSYN00510064
0071874530999991973010909004-33083-064267FM-12+042099999V0203601N00411220001CN0200001N9+01801+00901100491ADDAY101999GF100991001001999999001001MD1410001+9999MW1021REMSYN00510064
0071874530999991973010910004-33083-064267FM-12+042099999V0203601N00411220001CN0200001N9+01801+00901100491ADDAY101999GF100991001001999999001001MD1610041+9999MW1021REMSYN00510064
0071874530999991973010911004-33083-064267FM-12+042099999V0203601N00411220001CN0200001N9+02001+01001100461ADDAY101999GF100991999999999999999999MD1410001+9999MW1021REMSYN00510064
0095874530999991973010912004-33083-064267FM-12+042099999V0203601N00251220001CN0200001N9+02301+01101100421ADDAA199000091AY101999GF100991001001999999001001KA1999N+01701MD1410001+9999MW1021REMSYN00510064
0071874530999991973010913004-33083-064267FM-12+042099999V0203601N00411220001CN0200001N9+02701+01101999999ADDAY101999GF101991011001999999051001MD1410001+9999MW1031REMSYN00510064
0071874530999991973010914004-33083-064267FM-12+042099999V0203601N00251220001CN0200001N9+02801+01001100331ADDAY101999GF103991031001999999051001MD1410001+9999MW1031REMSYN00510064
0071874530999991973010915004-33083-064267FM-12+042099999V0203601N00411220001CN0200001N9+99999+99999100331ADDAY101999GF103991031001999999051001MD1410001+9999MW1021REMSYN00510064
0071874530999991973010916004-33083-064267FM-12+042099999V0203601N00251220001CN0200001N9+03001+00701100241ADDAY101999GF103991031001999999051001MD1810071+9999MW1021REMSYN00510057
0071874530999991973010917004-33083-064267FM-12+042099999V0203601N00411220001CN0200001N9+03101+00801100181ADDAY101999GF101991011001999999051001MD1810121+9999MW1011REMSYN00510051
0101874530999991973010918004-33083-064267FM-12+042099999V0200301N99999220001CN0200001N9+03201+00901100141ADDAA199000091AY101999GF100991001001999999001001MD1710161+9999MW1011REMSYN00510047EQDQ01+003093WOSPD 
0071874530999991973010919004-33083-064267FM-12+042099999V0200201N00411220001CN0200001N9+03201+01101100051ADDAY101999GF100991001001999999001001MD1710161+9999MW1021REMSYN00510040
0071874530999991973010920004-33083-064267FM-12+042099999V0200201N00411220001CN0200001N9+03201+01301100011ADDAY101999GF100991001001999999001001MD1710151+9999MW1021REMSYN00510036
0071874530999991973010921004-33083-064267FM-12+042099999V0200201N00411220001CN0200001N9+03201+01301099941ADDAY101999GF100991001001999999001001MD1710171+9999MW1021REMSYN00510028
0071874530999991973010922004-33083-064267FM-12+042099999V0200201N00411220001CN0200001N9+03201+01301099891ADDAY101999GF100991001001999999001001MD1710161+9999MW1021REMSYN00510023
0071874530999991973011000004-33083-064267FM-12+042099999V0200201N00251220001CN0200001N9+02701+01801099981ADDAY101999GF102991001001999999001021MD1610051+9999MW1021REMSYN00510023
0082874530999991973011006004-33083-064267FM-12+042099999V0203201N00251220001CN0200001N9+02401+01801100091ADDAA199000091AY101999GF100991001001999999001001MD1810071+9999MW1021REMSYN00510028
0071874530999991973011009004-33083-064267FM-12+042099999V0203601N00101090001CN0200001N9+02301+01801100171ADDAY111999GF105991001001999999001021MD1310081+9999MW1031REMSYN00510027
0071874530999991973011010004-33083-064267FM-12+042099999V0200201N00411090001CN0200001N9+02101+01801100221ADDAY121999GF106991041001999999011021MD1110031+9999MW1031REMSYN00510039
0095874530999991973011012004-33083-064267FM-12+042099999V0203601N00251220001CN0200001N9+02601+02001100181ADDAA199000091AY121999GF104991001001999999001021KA1999N+02101MD1110071+9999MW1021REMSYN00510044
0071874530999991973011013004-33083-064267FM-12+042099999V0200501N00251220001CN0200001N9+02801+02001100141ADDAY111999GF104991001001999999001021MD1610051+9999MW1021REMSYN00510044
0082874530999991973011014004-33083-064267FM-12+042099999V0200201N00251220001CN0200001N9+03101+02101100061ADDAA199000091AY111999GF103991001001999999001021MD1810071+9999MW1011REMSYN00570039
0071874530999991973011015004-33083-064267FM-12+042099999V0200201N00251090001CN0200001N9+03201+01801100041ADDAY121999GF105991031081008001001021MD1610051+9999MW1031REMSYN00510039
0071874530999991973011016004-33083-064267FM-12+042099999V0200501N00251090001CN0200001N9+03301+02001099971ADDAY121999GF107991041081008001001061MD1610121+9999MW1031REMSYN00510031
0089874530999991973011017004-33083-064267FM-12+042099999V0200501N00511012501CN0200001N9+03501+01901100021ADDAY121999GA1061+012509089GA2051+999999009GF107991061011012501001021MD1710201+9999MW1021
0082874530999991973011018004-33083-064267FM-12+042099999V0200501N00411220001CN0200001N9+03401+02001099821ADDAA199000091AY121999GF106991041081008001001061MD1610171+9999MW1021REMSYN00510020
0071874530999991973011020004-33083-064267FM-12+042099999V0200901N00411220001CN0200001N9+03401+02001099611ADDAY121999GF103991031081008001001001MD1010201+9999MW1011REMSYN00510001
0071874530999991973011021004-33083-064267FM-12+042099999V0200901N00411220001CN0200001N9+03401+02001099641ADDAY111999GF103991031011012501001001MD1610191+9999MW1011REMSYN00510001
0071874530999991973011022004-33083-064267FM-12+042099999V0201101N00251220001CN0200001N9+03301+01102099641ADDAY101999GF101991011011008001001001MD1610081+9999MW1011REMSYN00510001
0071874530999991973011100004-33083-064267FM-12+042099999V0200901N00411220001CN0200001N9+03001+02101099861ADDAY101999GF101991011021008001001001MD1010001+9999MW1021REMSYN00510022
0082874530999991973011106004-33083-064267FM-12+042099999V0203601N00101220001CN0200001N9+02401+02101100201ADDAA199000091AY101999GF100991001001999999001001MD1610031+9999MW1021REMSYN00510043
0071874530999991973011109004-33083-064267FM-12+042099999V0201101N00411007501CN0300001N9+02101+02001100501ADDAY121999GF108991081051008001999999MD1210241+9999MW1031REMSYN00510068
0071874530999991973011110004-33083-064267FM-12+042099999V0200901N00251036001CN0200001N9+02201+02001100501ADDAY121999GF108991041051004501071999MD1210091+9999MW1031REMSYN00510068
0071874530999991973011111004-33083-064267FM-12+042099999V0200701N00251220001CN0200001N9+02301+02001100491ADDAY121999GF106991021051008001001061MD1210271+9999MW1011REMSYN00510070
0081874530999991973011112004-33083-064267FM-12+042099999V0209991C00001220001CN0200001N9+02401+02101100541ADDAA199000091AY121999GF106991031051008001001061KA1999N+02101MD1310091+9999MW1021
0071874530999991973011113004-33083-064267FM-12+042099999V0209991C00001220001CN0250001N9+02501+02101100521ADDAY121999GF104991021051008001001061MD1110091+9999MW1011REMSYN00510077
0071874530999991973011114004-33083-064267FM-12+042099999V0209991C00001220001CN0200001N9+02801+02201100491ADDAY101999GF104991021051008001061001MD1110051+9999MW1021REMSYN00510077
0071874530999991973011115004-33083-064267FM-12+042099999V0200901N00671220001CN0200001N9+03001+02201100361ADDAY101999GF103991031001999999061001MD1810071+9999MW1011REMSYN00510069
0071874530999991973011116004-33083-064267FM-12+042099999V0200501N00511036001CN0200001N9+03001+02101100321ADDAY111999GF106991021091012501061001MD1810111+9999MW1031REMSYN00510065
0071874530999991973011117004-33083-064267FM-12+042099999V0200701N00671036001CN0200001N9+02901+02201100341ADDAY121999GF106991031091000751061001MD1610111+9999MW1171REMSYN00510056
0068874530999991973011118004-33083-064267FM-12+042099999V0200501N00671036001CN0200001N9+02901+02201100291ADDAA199000091AY191999GF106991031091012501061001MD1810091+9999MW1171
0082874530999991973011119004-33083-064267FM-12+042099999V0200501N00671036001CN0200001N9+02901+02201100291ADDAA199000091AY191999GF106991031091012501061001MD1810091+9999MW1171REMSYN00510060
0087874530999991973011120004-33083-064267FM-12+042099999V0200701N006119999999N0200001N9+02701+02501100131ADDAY191999GA1021+015009099GF106991999999999999999999MD1810111+9999MW1291REMSYN00510043
0071874530999991973011121004-33083-064267FM-12+042099999V0200201N00411036001CN0200001N9+03101+02401100081ADDAY121999GF106991031021012501061001MD1810191+9999MW1021REMSYN00510040
0089874530999991973011123004-33083-064267FM-12+042099999V0200201N006719999999N0200001N9+03101+02301100041ADDAA199000091AY121999GF105991021061012501001999MD1610111+9999MW1021REMSYN01270032 10036^
0071874530999991973011209004-33083-064267FM-12+042099999V0201801N00671036001CN0200001N9+02401+02001100221ADDAY191999GF106991041091017501071001MD1310211+9999MW1171REMSYN00510045
0071874530999991973011210004-33083-064267FM-12+042099999V0202301N00671036001CN0200001N9+02401+01901100461ADDAY191999GF107991041091012501071001MD1310351+9999MW1171REMSYN00510070
0071874530999991973011211004-33083-064267FM-12+042099999V0202001N00671036001CN0200001N9+02201+01901100501ADDAY191999GF106991031091012501071001MD1010211+9999MW1011REMSYN00510068
0111874530999991973011212004-33083-064267FM-12+042099999V0200201N00671004501CN0200001N9+02201+02001100601ADDAA199000091AY191999GA1081+004509059GF108991081051004501999999KA1999N+02201MD1210351+9999MW1031REMSYN00510082
0087874530999991973011213004-33083-064267FM-12+042099999V0202001N00921003001CN0200001N9+02201+02001100641ADDAY121999GA1081+003009059GF108991081051004501999999MD1210151+9999MW1021REMSYN00510086
0082874530999991973011214004-33083-064267FM-12+042099999V0202001N00921015001CN0200001N9+02301+02001100641ADDAY121999GF108991081051017501999999MD1110171+9999MW1021UA1M999999999UG1104301009
0087874530999991973011215004-33083-064267FM-12+042099999V0201801N00921004501CN0200001N9+02301+02001100681ADDAY121999GA1081+004509059GF108991081051004501999999MD1310081+9999MW1021REMSYN00510090
0087874530999991973011216004-33083-064267FM-12+042099999V0201801N00921003001CN0200001N9+02201+01601100811ADDAY121999GA1051+003009059GF108991051051004501071999MD1310111+9999MW1021REMSYN00510098
0079874530999991973011217004-33083-064267FM-12+042099999V0201801N00921036001CN0200001N9+01901+99999100921ADDAY121999GA1031+003009059GF108991031051004501071999MW1021REMSYN01110217 10104
0098874530999991973011218004-33083-064267FM-12+042099999V0202001N00671036001CN0200001N9+01601+01201101011ADDAA199000091AY121999GA1031+003009059GF108991031051004501071999MD1210201+9999MW1021REMSYN00510111
0071874530999991973011219004-33083-064267FM-12+042099999V0202301N00411036001CN0200001N9+01901+01101100851ADDAY121999GF108991031051012501071999MD1010001+9999MW1021REMSYN00510098
0071874530999991973011220004-33083-064267FM-12+042099999V0202301N00251036001CN0200001N9+01601+01201100781ADDAY121999GF108991031051012501071999MD1810131+9999MW1021REMSYN00510090
0071874530999991973011221004-33083-064267FM-12+042099999V0209991C00001036001CN0200001N9+01601+01401100681ADDAY191999GF108991031091012501071999MD1710111+9999MW1251REMSYN00510079
0071874530999991973011222004-33083-064267FM-12+042099999V0209991C00001036001CN0200001N9+01801+01501100681ADDAY191999GF108991031091012501071999MD1610171+9999MW1171REMSYN00510079
0088874530999991973011223004-33083-064267FM-12+042099999V0209991C000019999999N0150001N9+01801+01301100641ADDAA199001091AY191999GF108991999999999999999999MD1610111+9999MW1951REMSYN01170124 10079
0087874530999991973011310004-33083-064267FM-12+042099999V0202701N00101004501CN0150001N9+01701+01601100931ADDAY151999GA1081+004509049GF108991081001004501021999MD1110041+9999MW1101REMSYN00510103
0087874530999991973011311004-33083-064267FM-12+042099999V0202701N00101004501CN0150001N9+01701+01601100931ADDAY121999GA1081+004509049GF108991081001004501021999MD1110071+9999MW1101REMSYN00510103
0106874530999991973011313004-33083-064267FM-12+042099999V0200501N00411004501CN0150001N9+01901+01801999999ADDAY121999GA1081+004509079GF108991081061004501999999MD1110041+9999MW1101REMSYN00510114EQDQ01+100263APOSLP
0087874530999991973011315004-33083-064267FM-12+042099999V0200501N00411002101CN0060001N9+01801+01801100981ADDAY121999GA1081+002109059GF108991081061002501999999MD1110071+9999MW1101REMSYN00510111
0087874530999991973011316004-33083-064267FM-12+042099999V0200501N00671002701CN0150001N9+01901+01801100971ADDAY121999GA1081+002709079GF108991081061002501999999MD1010031+9999MW1101REMSYN00510111
0071874530999991973011317004-33083-064267FM-12+042099999V0200501N00671007501CN0150001N9+02001+01801100741ADDAY121999GF108991081051008001999999MD1610031+9999MW1031REMSYN00510074
0068874530999991973011318004-33083-064267FM-12+042099999V0200501N00671002101CN0180001N9+02101+01801100741ADDAA199000091AY121999GF108991081051002501999999MD1610201+9999MW1021
0087874530999991973011319004-33083-064267FM-12+042099999V0200501N00671004501CN0180001N9+02001+01801100741ADDAY121999GA1081+004509059GF108991081051004501999999MD1610211+9999MW1021REMSYN00510090
0087874530999991973011320004-33083-064267FM-12+042099999V0200901N00671002701CN0100001N9+99999+99999999999ADDAY121999GA1081+002709079GF108991081061002501999999MD1410001+9999MW1031REMSYN00510090
0087874530999991973011321004-33083-064267FM-12+042099999V0200901N00671002401CN0080001N9+01901+01201100741ADDAY121999GA1081+002409079GF108991081061002501999999MD1410001+9999MW1101REMSYN00510090
0071874530999991973011322004-33083-064267FM-12+042099999V0201101N00411000601CN0009001N9+01801+01801100741ADDAY141999GF109991091999999999999999MD1610011+9999MW1471REMSYN00510086
0104874530999991973011323004-33083-064267FM-12+042099999V0201101N00411001501CN0012001N9+01701+01701100881ADDAA199000091AY141999GA1081+001509079GF108991081061001501999999MD1310091+9999MW1101REMSYN01170023 10098
0106874530999991973011400004-33083-064267FM-12+042099999V0201601N00411002401CN0012001N9+01601+01601101021ADDAY141999GA1081+002409079GF199999081061000751999999MD1110291+9999MW1441REMSYN00510112EQDQ01+000452PRSWM1
0098874530999991973011406004-33083-064267FM-12+042099999V0202001N00921002701CN0030001N9+01401+01301101421ADDAA199003091AY151999GA1081+002709059GF108991081061000751999999MD1110191+9999MW1511REMSYN00510149
0087874530999991973011409004-33083-064267FM-12+042099999V0202001N00921000901CN9999999N9+99999+99999101621ADDAY151999GA1081+000909079GF108991081061000751999999MD1110151+9999MW1531REMSYN00510188
0087874530999991973011410004-33083-064267FM-12+042099999V0202001N00671000901CN0050001N9+01301+01201101721ADDAY151999GA1081+000909059GF108991081061000751999999MD1210241+9999MW1511REMSYN00510173
0087874530999991973011411004-33083-064267FM-12+042099999V0202001N00921000901CN0030001N9+01301+01201101821ADDAY151999GA1081+000909079GF108991081061000751999999MD1210241+9999MW1511REMSYN00510185
0117874530999991973011412004-33083-064267FM-12+042099999V0201801N00921000901CN9999999N9+01301+01201101881ADDAA199006091AY151999GA1081+000909079GF108991081061000751999999KA1999N+01301MD1210271+9999MW1531REMSYN01110183 10195
0087874530999991973011413004-33083-064267FM-12+042099999V0201801N00921000901CN0030001N9+01301+01201101981ADDAY151999GA1081+000909079GF108991081061000751999999MD1210271+9999MW1511REMSYN00510201
0087874530999991973011414004-33083-064267FM-12+042099999V0201801N00921001201CN0050001N9+01301+01201102061ADDAY151999GA1081+001209079GF108991081061001501999999MD1210241+9999MW1501REMSYN00510210
0080874530999991973011415004-33083-064267FM-12+042099999V0201701N00671001801CN0100001N9+01401+01201102121ADDAY151999GA1081+001809079MD1210191+9999MW1021REMSYN00510215EQDQ01+000072SCOTCV
0087874530999991973011416004-33083-064267FM-12+042099999V0201801N00671002401CN0150001N9+01601+01301102081ADDAY121999GA1081+002409079GF108991081061002501999999MD1110131+9999MW1021REMSYN00510215
0087874530999991973011417004-33083-064267FM-12+042099999V0201801N00671002401CN0200001N9+01701+01201101931ADDAY121999GA1081+002409059GF108991081051002501999999MD1810071+9999MW1021REMSYN005020*2
0098874530999991973011418004-33083-064267FM-12+042099999V0201801N00671005701CN0200001N9+01801+01101101901ADDAA199999929AY121999GA1081+005709059GF108991081051004501999999MD1810151+9999MW1021REMSYN00510199
0071874530999991973011419004-33083-064267FM-12+042099999V0201801N006719999999N0200001N9+01801+01101101861ADDAY121999GF107991999999999999999999MD1610151+9999MW1011REMSYN00510199
0071874530999991973011420004-33083-064267FM-12+042099999V0202001N00411004201CN0200001N9+01801+01101101811ADDAY121999GF107991071051004501001001MD1810081+9999MW1021REMSYN00510194
0071874530999991973011421004-33083-064267FM-12+042099999V0201801N00411220001CN0200001N9+01801+01101101761ADDAY121999GF104991999999999999999999MD1810111+9999MW1011REMSYN00510189
0071874530999991973011422004-33083-064267FM-12+042099999V0201801N00411220001CN0200001N9+01901+01101101781ADDAY111999GF103991031051004501001001MD1510081+9999MW1011REMSYN00510191
0088874530999991973011423004-33083-064267FM-12+042099999V0201801N00251220001CN0200001N9+01801+01101101811ADDAA199000091AY101999GF102991021051004501001001MD1510001+9999MW1011REMSYN01170019 10194
0088874530999991973011506004-33083-064267FM-12+042099999V0202901N00251220001CN0200001N9+01101+01001102011ADDAA199000091AY101999GF100991001001999999001001MD1810071+9999MW1021REMSYN01110139 0****
0071874530999991973011510004-33083-064267FM-12+042099999V0202901N00251220001CN0200001N9+01101+00901101901ADDAY101999GF100991001001999999001001MD1010001+9999MW1021REMSYN00510189
0071874530999991973011511004-33083-064267FM-12+042099999V0209991C00001220001CN0200001N9+01401+00901101821ADDAY101999GF100991001001999999001001MD1610051+9999MW1021REMSYN00510189
0095874530999991973011512004-33083-064267FM-12+042099999V0203601N00251220001CN0300001N9+01601+01201101861ADDAA199000091AY101999GF100991001001999999001001KA1999N+01001MD1010001+9999MW1021REMSYN00510198
0071874530999991973011513004-33083-064267FM-12+042099999V0203601N00411220001CN0300001N9+01801+01301101821ADDAY101999GF100991001001999999001001MD1110071+9999MW1021REMSYN00510195
0071874530999991973011514004-33083-064267FM-12+042099999V0200201N00671220001CN0300001N9+02101+01001101801ADDAY101999GF100991001001999999001001MD1110071+9999MW1021REMSYN00510195
0071874530999991973011515004-33083-064267FM-12+042099999V0200201N00671220001CN0300001N9+02101+01401101801ADDAY101999GF100991001001999999001001MD1410001+9999MW1021REMSYN00510195
0071874530999991973011516004-33083-064267FM-12+042099999V0200201N00921220001CN0300001N9+02301+01201101621ADDAY101999GF100991001001999999001001MD1810131+9999MW1021REMSYN00510182
0082874530999991973011518004-33083-064267FM-12+042099999V0200201N00921220001CN0300001N9+02501+01101101441ADDAA199000091AY101999GF100991001001999999001001MD1710291+9999MW1021REMSYN00510165
0071874530999991973011519004-33083-064267FM-12+042099999V0200201N00921220001CN0300001N9+02601+01201101291ADDAY101999GF100991001001999999001001MD1710271+9999MW1021REMSYN00510153
0071874530999991973011520004-33083-064267FM-12+042099999V0200201N00921220001CN0300001N9+02601+01201101161ADDAY101999GF100991001001999999001001MD1710311+9999MW1021REMSYN00510143
0071874530999991973011521004-33083-064267FM-12+042099999V0200201N00921220001CN0300001N9+02601+01101101131ADDAY101999GF100991001001999999001001MD1710271+9999MW1021REMSYN00510136
0071874530999991973011522004-33083-064267FM-12+042099999V0200201N00921220001CN0300001N9+02501+01201101091ADDAY101999GF100991001001999999001001MD1710201+9999MW1021REMSYN00510133
0071874530999991973011600004-33083-064267FM-12+042099999V0200501N00671220001CN0300001N9+02001+01201101161ADDAY101999GF100991001001999999001001MD1610041+9999MW1021REMSYN00510133
0071874530999991973011606004-33083-064267FM-12+042099999V0203601N00251220001CN0300001N9+01701+00901101101ADDAY101999GF100991001001999999001001MD1610161+9999MW1021REMSYN00510120
0071874530999991973011609004-33083-064267FM-12+042099999V0200501N00411220001CN0300001N9+01501+01101101051ADDAY101999GF100991001001999999001001MD1610091+9999MW1021REMSYN00510111
0071874530999991973011610004-33083-064267FM-12+042099999V0200201N00921220001CN0300001N9+01601+01101101011ADDAY101999GF100991001001999999001001MD1610161+9999MW1021REMSYN00510111
0071874530999991973011611004-33083-064267FM-12+042099999V0200201N01031220001CN0300001N9+01901+01001100981ADDAY101999GF100991001001999999001001MD1610031+9999MW1021REMSYN00510111
0095874530999991973011612004-33083-064267FM-12+042099999V0200201N01541220001CN0300001N9+02101+01301101011ADDAA199000091AY101999GF100991001001999999001001KA1999N+01401MD1310071+9999MW1021REMSYN00510118
0071874530999991973011613004-33083-064267FM-12+042099999V0200201N01541220001CN0300001N9+02201+01301101091ADDAY101999GF100991001001999999001001MD1110151+9999MW1021REMSYN00510126
0071874530999991973011614004-33083-064267FM-12+042099999V0200201N01541220001CN0200001N9+02401+01301101091ADDAY101999GF100991001001999999001001MD1110071+9999MW1021REMSYN00510126
0071874530999991973011615004-33083-064267FM-12+042099999V0200201N01231220001CN0200001N9+02501+01301101011ADDAY101999GF100991001001999999001001MD1210081+9999MW1021REMSYN00510126
0071874530999991973011617004-33083-064267FM-12+042099999V0203601N01031220001CN0200001N9+02801+01501100741ADDAY101999GF100991001001999999001001MD1610231+9999MW1021REMSYN00510103
0082874530999991973011618004-33083-064267FM-12+042099999V0203601N01031220001CN0200001N9+02901+01501100661ADDAA199000091AY101999GF100991001001999999001001MD1610311+9999MW1021REMSYN00510094
0071874530999991973011619004-33083-064267FM-12+042099999V0203601N01231220001CN0200001N9+03001+01501100561ADDAY101999GF100991001001999999001001MD1610291+9999MW1021REMSYN00510088
0071874530999991973011620004-33083-064267FM-12+042099999V0203601N01231220001CN0200001N9+03001+01501100401ADDAY101999GF100991001001999999001001MD1610281+9999MW1021REMSYN00510074
0071874530999991973011621004-33083-064267FM-12+042099999V0200201N01231220001CN0200001N9+03001+01601100401ADDAY101999GF100991001001999999001001MD1610201+9999MW1021REMSYN0051074*
0071874530999991973011622004-33083-064267FM-12+042099999V0200201N01231220001CN0200001N9+99999+99999100611ADDAY101999GF100991001001999999001001MD1610081+9999MW1021REMSYN00510069
0088874530999991973011623004-33083-064267FM-12+042099999V0200201N01231220001CN0200001N9+02901+01601100321ADDAA199000091AY101999GF100991001001999999001001MD1610111+9999MW1021REMSYN01170030 10062
0057874530999991973011700004-33083-064267FM-12+042099999V0200201N00671220001CN0200001N9+02701+01701100401ADDAY101999GF100991001001999999001001MW1021REMSYN00510066
0071874530999991973011709004-33083-064267FM-12+042099999V0209991C00001220001CN0300001N9+02101+01801100611ADDAY101999GF100991001001999999001001MD1310131+9999MW1021REMSYN00510079
0071874530999991973011710004-33083-064267FM-12+042099999V0209991C00001036001CN0260001N9+02001+01801100701ADDAY111999GF105991051001999999031001MD1310231+9999MW1031REMSYN00510089
0071874530999991973011711004-33083-064267FM-12+042099999V0209991C00001036001CN0300001N9+99999+99999100881ADDAY111999GF105991051001999999051001MD1110241+9999MW1031REMSYN00510104
0081874530999991973011712004-33083-064267FM-12+042099999V0200201N00411220001CN0300001N9+02401+01901100811ADDAA199000091AY111999GF104991041001999999061001KA1999N+02001MD1110241+9999MW1021
0071874530999991973011713004-33083-064267FM-12+042099999V0200201N00251220001CN0300001N9+02601+02001100851ADDAY111999GF104991041001999999061001MD1310201+9999MW1021REMSYN00510095
0090874530999991973011714004-33083-064267FM-12+042099999V0200901N00251220001CN0300001N9+02401+02001100841ADDAY101999GF102991011011999999061001MD1310051+9999MW1011REMSYN00510110EQDQ01+000992SCOLCB
0071874530999991973011715004-33083-064267FM-12+042099999V0201801N00251220001CN0300001N9+02901+01901100721ADDAY101999GF104991031011008001061001MD1810041+9999MW1031REMSYN00510100
0071874530999991973011716004-33083-064267FM-12+042099999V0201801N00411036001CN0300001N9+02901+02001100721ADDAY111999GF106991041021012501061001MD1810111+9999MW1031REMSYN00510099
0068874530999991973011718004-33083-064267FM-12+042099999V0201801N00411012001CN0300001N9+03101+01901100531ADDAA199000091AY121999GF105991051011012501001001MD1710121+9999MW1021
0071874530999991973011721004-33083-064267FM-12+042099999V0201801N00411220001CN0300001N9+03201+01001100421ADDAY121999GF104991041021012501001001MD1710111+9999MW1011REMSYN00510077
0071874530999991973011722004-33083-064267FM-12+042099999V0201601N00411220001CN0300001N9+03101+01901100421ADDAY101999GF104991041021012501001001MD1610051+9999MW1021REMSYN00510077
0088874530999991973011723004-33083-064267FM-12+042099999V0201401N00411220001CN0300001N9+03001+02201100481ADDAA199000091AY101999GF103991031021012501001001MD1310031+9999MW1011REMSYN01170032 10082
0090874530999991973011800004-33083-064267FM-12+042099999V0209991C00001220001CN0200001N9+02701+02201100962ADDAY101999GF101991011021012501001001MD1110191+9999MW1021REMSYN00510095EQDQ01+100963APOSLP
0098874530999991973011806004-33083-064267FM-12+042099999V0200901N00411000901CN0100001N9+02401+02301100811ADDAA199000091AY111999GA1081+000909079GF108991081061000751999999MD1610041+9999MW1031REMSYN0051010*
0087874530999991973011811004-33083-064267FM-12+042099999V0202301N00921001501CN0050001N9+02201+02101100901ADDAY121999GA1081+001509079GF108991081071001501999999MD1310091+9999MW1101REMSYN00510110
0095874530999991973011812004-33083-064267FM-12+042099999V0201401N00251002101CN0200001N9+01901+01801101081ADDAA199000091AY121999GF108991081061002501999999KA1999N+01801MD1310201+9999MW1021REMSYN00510120
0090874530999991973011813004-33083-064267FM-12+042099999V0201401N00101015001CN0300001N9+02201+01901101011ADDAY121999GF106991999081012501001001MD1210201+9999MW1011REMSYN00510120EQDQ01+000052SCOTLC
0103874530999991973011814004-33083-064267FM-12+042099999V0200601N00251013201CN0300001N9+02501+02001100901ADDAY121999GA1021+012009099GA2031+013209089GF107991051081012501061001MD1810041+9999MW1021REMSYN00510114
0071874530999991973011815004-33083-064267FM-12+042099999V0201401N00671012001CN0300001N9+02101+01901101081ADDAY121999GF108991061081008001061999MD1310041+9999MW1031REMSYN00510124
0103874530999991973011817004-33083-064267FM-12+042099999V0209991C00001002101CN0200001N9+01901+01901101121ADDAY191999GA1071+002109079GA2041+008109099GF108991051061002501061999MD1210111+9999MW1251REMSYN00510124
0103874530999991973011819004-33083-064267FM-12+042099999V0209991C00001003001CN0200001N9+02001+01901101001ADDAY191999GA1051+003009079GA2041+008109099GF108991051061004501061999MD1710041+9999MW1251REMSYN00510116
0103874530999991973011820004-33083-064267FM-12+042099999V0209991C00001003001CN0200001N9+02001+01901100961ADDAY191999GA1061+003009079GA2031+008109099GF108991061061004501061999MD1710121+9999MW1021REMSYN00510112
0073874530999991973011821004-33083-064267FM-12+042099999V0209991C00001003001CN0300001N9+02101+02001101001ADDAY191999GA1081+003009079GF108991081061004501999999MW1021REMSYN00510116
0087874530999991973011822004-33083-064267FM-12+042099999V0209991C00001036001CN0300001N9+02101+02001101001ADDAY121999GA1041+003009079GF106991041061004501061001MD1410001+9999MW1011REMSYN00510116
0104874530999991973011823004-33083-064267FM-12+042099999V0209991C00001036001CN0300001N9+02101+02001101001ADDAA199004091AY191999GA1041+003009079GF105991041061008001061001MD1110041+9999MW1011REMSYN01170425 10116
0072874530999991973011921004-33083-064267FM-12+042099999V0200901N00251220001CN0300001N9+02601+01701101251ADDAY101999GF104991041011008001001001MD1610281+9999MW1011REMSYN0061014.5
0072874530999991973011922004-33083-064267FM-12+042099999V0200901N00251220001CN0300001N9+02501+01701101291ADDAY111999GF103991031011012501001001MD1610131+9999MW1011REMSYN0061015.3
0098874530999991973011923004-33083-064267FM-12+042099999V0200901N00101220001CN0300001N9+02501+01701101211ADDAA199000091AY101999GF100991001001999999001001MD1610191+9999MW1021REMSYN02170026 1014.5     ?322
0071874530999991973012000004-33083-064267FM-12+042099999V0200901N00101220001CN0300001N9+02501+01801101331ADDAY101999GF100991001001999999001001MD1310081+9999MW1021REMSYN00510153
0082874530999991973012006004-33083-064267FM-12+042099999V0200701N00411220001CN0300001N9+99999+99999101361ADDAA199000091AY101999GF100991001001999999001001MD1610041+9999MW1021REMSYN00510149
0071874530999991973012009004-33083-064267FM-12+042099999V0200201N00411220001CN0300001N9+01801+01701101211ADDAY101999GF100991001001999999001001MD1610151+9999MW1021REMSYN00510135
0071874530999991973012010004-33083-064267FM-12+042099999V0200201N00411090001CN0150001N9+01901+01701101211ADDAY111999GF105991001001999999001031MD1610111+9999MW1101REMSYN00510135
0071874530999991973012011004-33083-064267FM-12+042099999V0200501N00671090001CN0150001N9+01901+01801101211ADDAY121999GF105991001001999999001031MD1610031+9999MW1101REMSYN00510135
0095874530999991973012012004-33083-064267FM-12+042099999V0200201N00921090001CN0150001N9+02101+01901101251ADDAA199000091AY121999GF107991031061004501001021KA1999N+01801MD1310081+9999MW1101REMSYN00510143
0071874530999991973012013004-33083-064267FM-12+042099999V0200201N00921090001CN0200001N9+02201+01901101331ADDAY121999GF107991031061004501001021MD1310191+9999MW1021REMSYN00510153
0071874530999991973012014004-33083-064267FM-12+042099999V0200201N01031090001CN0200001N9+99999+99999101201ADDAY121999GF107991041011004501001021MD1010051+9999MW1021REMSYN00510140
0071874530999991973012015004-33083-064267FM-12+042099999V0200201N00921090001CN0200001N9+02501+01801101101ADDAY121999GF106991031011008001001021MD1810081+9999MW1011REMSYN00510135
0071874530999991973012016004-33083-064267FM-12+042099999V0200201N00921090001CN0200001N9+02701+01701101041ADDAY121999GF105991021011008001001021MD1710231+9999MW1011REMSYN00510131
0071874530999991973012017004-33083-064267FM-12+042099999V0200201N00921090001CN0200001N9+02601+01701100961ADDAY121999GF105991021011008001001021MD1710171+9999MW1021REMSYN00510122
0082874530999991973012018004-33083-064267FM-12+042099999V0200201N00921090001CN0200001N9+02801+01801100861ADDAA199000091AY121999GF105991021011008001001021MD1710191+9999MW1021REMSYN00510115
0071874530999991973012019004-33083-064267FM-12+042099999V0200201N00921090001CN0200001N9+02701+01701100811ADDAY121999GF106991021011008001001021MD1710231+9999MW1031REMSYN00510107
0071874530999991973012020004-33083-064267FM-12+042099999V0200201N00921090001CN0200001N9+02801+01601100691ADDAY121999GF106991021011008001001021MD1710231+9999MW1021REMSYN00510099
0071874530999991973012021004-33083-064267FM-12+042099999V0200201N00921090001CN0200001N9+02801+01601100641ADDAY121999GF105991011011008001001021MD1810211+9999MW1011REMSYN00510093
0071874530999991973012022004-33083-064267FM-12+042099999V0200201N00921090001CN0200001N9+02801+01701100611ADDAY121999GF105991011011008001001021MD1710111+9999MW1021REMSYN00510090
0088874530999991973012023004-33083-064267FM-12+042099999V0200201N00671090001CN0200001N9+02701+01701100611ADDAA199000091AY121999GF105991011011008001001021MD1610081+9999MW1021REMSYN01170029 10090
0057874530999991973012100004-33083-064267FM-12+042099999V0200201N00671220001CN0200001N9+02501+01801100641ADDAY111999GF102991001001999999001021MD1610031+9999MW1011
0082874530999991973012106004-33083-064267FM-12+042099999V0203601N00921220001CN0200001N9+99999+99999101061ADDAA199000091AY101999GF100991001001999999001001MD1810081+9999MW1021REMSYN00510079
0071874530999991973012109004-33083-064267FM-12+042099999V0203601N00411220001CN0200001N9+02001+01801100501ADDAY101999GF100991001001999999001001MD1610111+9999MW1021REMSYN00510065
0071874530999991973012110004-33083-064267FM-12+042099999V0200201N00411220001CN0100001N9+99999+99999100501ADDAY101999GF100991999999999999999999MD1610071+9999MW1101REMSYN00510065
0071874530999991973012111004-33083-064267FM-12+042099999V0200201N00411220001CN0100001N9+02001+01801100481ADDAY101999GF100991001001999999001001MD1410001+9999MW1101REMSYN00510065
0095874530999991973012112004-33083-064267FM-12+042099999V0200201N00411220001CN0150001N9+02201+01901100441ADDAA199000091AY101999GF100991001001999999001001KA1999N+01901MD1410001+9999MW1101REMSYN00510065
0071874530999991973012113004-33083-064267FM-12+042099999V0200201N00411220001CN0200001N9+02501+01801100411ADDAY101999GF100991001001999999001001MD1410001+9999MW1021REMSYN00510065
0071874530999991973012114004-33083-064267FM-12+042099999V0200201N00671220001CN0300001N9+02701+01901100381ADDAY101999GF100991001001999999001001MD1410001+9999MW1021REMSYN00510065
0071874530999991973012115004-33083-064267FM-12+042099999V0200201N00411220001CN0300001N9+02801+01901100341ADDAY101999GF100991001001999999001001MD1410001+9999MW1021REMSYN00510065
0090874530999991973012117004-33083-064267FM-12+042099999V0200201N00251220001CN0300001N9+03001+01101100181ADDAY101999GF100991001001999999001001MD1810201+9999MW1021REMSYN00510051EQDQ01+000812APC3  
0082874530999991973012118004-33083-064267FM-12+042099999V0200201N00101220001CN0300001N9+03101+01701100121ADDAA199000091AY101999GF100991001001999999001001MD1710201+9999MW1021REMSYN00510044
0071874530999991973012119004-33083-064267FM-12+042099999V0209991C00001220001CN0300001N9+03101+01801100051ADDAY101999GF101991011021012501001001MD1710201+9999MW1031REMSYN00510036
0071874530999991973012120004-33083-064267FM-12+042099999V0209991C00001220001CN0300001N9+03201+01801099961ADDAY101999GF101991011021012501001001MD1710201+9999MW1021REMSYN00510030
0071874530999991973012121004-33083-064267FM-12+042099999V0209991C00001220001CN0300001N9+03201+01901099891ADDAY101999GF101991011011012501001001MD1710201+9999MW1021REMSYN00510023
0076874530999991973012122004-33083-064267FM-12+042099999V0200201N00411220001CN0300001N9+03101+99999099811ADDAY101999GF101991011021012501001001MW1021REMSYN00510016EQDQ01+028423ATOD  
0088874530999991973012123004-33083-064267FM-12+042099999V0200201N00411220001CN0300001N9+03001+01901099811ADDAA199000091AY101999GF101991011031012501001001MD1610131+9999MW1021REMSYN01170032 10016
0071874530999991973012200004-33083-064267FM-12+042099999V0200201N00251012001CN0300001N9+02701+01901099881ADDAY111999GF107991051091012501061001MD1610071+9999MW1171REMSYN00510016
0082874530999991973012206004-33083-064267FM-12+042099999V0200201N00411012001CN0200001N9+02001+01901100451ADDAA199034091AY191999GF108991081081008001999999MD1810071+9999MW1021REMSYN00510060
0071874530999991973012209004-33083-064267FM-12+042099999V0200201N00411036001CN0300001N9+01901+01701100371ADDAY121999GF107991031081012501061001MD1610081+9999MW1011REMSYN00510051
0071874530999991973012210004-33083-064267FM-12+042099999V0200201N00251036001CN0300001N9+01901+01801100371ADDAY121999GF106991021081012501061001MD1610041+9999MW1021REMSYN00510051
0071874530999991973012211004-33083-064267FM-12+042099999V0200201N00101036001CN0180001N9+01901+01801100411ADDAY121999GF107991021051012501061001MD1510031+9999MW1031REMSYN00510056
0095874530999991973012212004-33083-064267FM-12+042099999V0200201N00251036001CN0200001N9+02101+01901100411ADDAA199034091AY121999GF107991021051012501031001KA1999N+01901MD1310071+9999MW1031REMSYN00510058
0071874530999991973012213004-33083-064267FM-12+042099999V0200201N00251036001CN0200001N9+02301+02001100361ADDAY121999GF105991051001999999031001MD1110051+9999MW1021REMSYN00510058
0071874530999991973012214004-33083-064267FM-12+042099999V0200901N00251220001CN0200001N9+02501+02001100361ADDAY121999GF101991011001999999031001MD1110041+9999MW1011REMSYN00510065
0071874530999991973012215004-33083-064267FM-12+042099999V0201401N00101220001CN0150001N9+02501+01901100361ADDAY101999GF101991011001999999041001MD1110011+9999MW1031REMSYN00510060
0071874530999991973012216004-33083-064267FM-12+042099999V0201401N00251220001CN0250001N9+02801+02001100261ADDAY101999GF101991011021008001001001MD1110031+9999MW1021REMSYN00510054
0071874530999991973012217004-33083-064267FM-12+042099999V0201401N00251220001CN0250001N9+02901+02101100161ADDAY101999GF101991011021008001001001MD1810131+9999MW1021REMSYN00510045
0054874530999991973012218004-33083-064267FM-12+042099999V0201401N00251220001CN0250001N9+02901+99999100131ADDAA199000091AY121999GF105991021001022501011061MW1031
0071874530999991973012219004-33083-064267FM-12+042099999V0201401N00251004201CN0190001N9+02801+02001100021ADDAY181999GF107991071091004501001001MD1610211+9999MW1171REMSYN00510031
0089874530999991973012220004-33083-064267FM-12+042099999V0200201N00461999999CN0500001N9+99999+99999100061ADDAY121999GA1041+012509089GA2031+999999009GF105991041011012501001021MW1021REMSYN00521723
0077874530999991973012221004-33083-064267FM-12+042099999V0200701N001019999999N0280001N9+02301+99999099921ADDAY191999GF107991999999999999999999MD1510001+9999MW1951REMSYN01123728 10014
0071874530999991973012222004-33083-064267FM-12+042099999V0200701N00251220001CN0200001N9+02401+02201099931ADDAY191999GF104991041091008001001001MD1710121+9999MW1291REMSYN00510019
0071874530999991973012300004-33083-064267FM-12+042099999V0200901N00101007501CN0200001N9+02401+02101100121ADDAY191999GF107991071091008001001001MD1210171+9999MW1171REMSYN00510031
0098874530999991973012306004-33083-064267FM-12+042099999V0203401N00101007501CN0200001N9+02101+01801100211ADDAA199999929AY121999GA1021+006009099GF106991061051008001001001MD1710031+9999MW1021REMSYN00510037
0087874530999991973012309004-33083-064267FM-12+042099999V0202001N00411003001CN0180001N9+01601+01401100681ADDAY121999GA1081+003009079GF108991081061004501999999MD1210401+9999MW1031REMSYN00510079
0090874530999991973012310004-33083-064267FM-12+042099999V0202501N00411007501CN0200001N9+01601+01401100841ADDAY121999GF108991081051008001999999MD1210562+9999MW1031REMSYN00510093EQDQ01+000562APC3  
0090874530999991973012311004-33083-064267FM-12+042099999V0202301N00671007501CN0200001N9+01601+01401100861ADDAY121999GF108991081051008001999999MD1210672+9999MW1021REMSYN00510095EQDQ01+000672APC3  
0095874530999991973012312004-33083-064267FM-12+042099999V0202301N00921007501CN0200001N9+01701+01301100981ADDAA199004091AY121999GF108991081051008001999999KA1999N+01601MD1210271+9999MW1021REMSYN00510107
0071874530999991973012313004-33083-064267FM-12+042099999V0202301N01231007501CN0200001N9+01801+01001101051ADDAY121999GF108991081051008001999999MD1210211+9999MW1021REMSYN00510115
0071874530999991973012314004-33083-064267FM-12+042099999V0202001N01231007501CN0200001N9+01801+00901101061ADDAY121999GF107991071051008001001001MD1210231+9999MW1011REMSYN00510119
0071874530999991973012315004-33083-064267FM-12+042099999V0202001N01231012001CN0200001N9+99999+99999101061ADDAY121999GF105991051051012501001001MD1110121+9999MW1011REMSYN00510119
0071874530999991973012316004-33083-064267FM-12+042099999V0202001N01231015001CN0200001N9+02101+00301101061ADDAY121999GF106991061081012501001001MD1310081+9999MW1031REMSYN00510123
0068874530999991973012318004-33083-064267FM-12+042099999V0202001N01231220001CN0200001N9+02201+00401101061ADDAA199000091AY111999GF103991031081012501001001MD1010101+9999MW1011
0071874530999991973012319004-33083-064267FM-12+042099999V0202001N00921220001CN0200001N9+02201+00401100981ADDAY101999GF101991011081012501001001MD1810051+9999MW1011REMSYN00510118
0071874530999991973012321004-33083-064267FM-12+042099999V0201801N00671220001CN0200001N9+02201+00301100961ADDAY101999GF100991001001999999001001MD1810081+9999MW1011REMSYN00510115
0071874530999991973012322004-33083-064267FM-12+042099999V0201801N00411220001CN0200001N9+02201+00501100941ADDAY101999GF100991001001999999001001MD1610041+9999MW1021REMSYN00510115
0109874530999991973012323004-33083-064267FM-12+042099999V0201801N00251220001CN0200001N9+02101+00601100971ADDAA199000091AY101999GF100991001001999999001001MW1021REMSYN01170023 10114EQDQ01+000042APCTENQ02+000012APC3  
0071874530999991973012400004-33083-064267FM-12+042099999V0209991C00001220001CN0200001N9+01801+01001101091ADDAY101999GF100991001001999999001001MD1310071+9999MW1021REMSYN00510120
0082874530999991973012406004-33083-064267FM-12+042099999V0209991C00001220001CN0200001N9+01201+00801101411ADDAA199000091AY101999GF100991001001999999001001MD1810031+9999MW1021REMSYN00510141
0071874530999991973012409004-33083-064267FM-12+042099999V0209991C00001220001CN0200001N9+01201+00601101481ADDAY101999GF100991001001999999001001MD1310051+9999MW1021REMSYN00510148
0071874530999991973012410004-33083-064267FM-12+042099999V0209991C00001220001CN0200001N9+01101+00701101531ADDAY101999GF102991021001999999081001MD1310131+9999MW1031REMSYN00510157
0071874530999991973012411004-33083-064267FM-12+042099999V0209991C00001220001CN0200001N9+01301+00901101621ADDAY101999GF102991021001999999081001MD1310051+9999MW1021REMSYN00510162
0095874530999991973012412004-33083-064267FM-12+042099999V0209991C00001220001CN0200001N9+01601+00701101621ADDAA199000091AY101999GF104991041001999999051001KA1999N+01001MD1210191+9999MW1031REMSYN00510168
0071874530999991973012414004-33083-064267FM-12+042099999V0203601N00101220001CN0300001N9+01901+00601101561ADDAY101999GF103991031001999999051001MD1110051+9999MW1011REMSYN00510168
0071874530999991973012415004-33083-064267FM-12+042099999V0200701N00251220001CN0300001N9+02101+00601101531ADDAY101999GF104991041001999999051001MD1410001+9999MW1031REMSYN00510168
0071874530999991973012416004-33083-064267FM-12+042099999V0200501N00251220001CN0300001N9+02201+00601101441ADDAY101999GF104991041001999999051001MD1810051+9999MW1021REMSYN00510162
0063874530999991973012417004-33083-064267FM-12+042099999V0209991C00001220001CN0300001N9+99999+99999999999ADDAY131999GF101991011031004501021031MW1011REMSYN01105812 10155
0082874530999991973012418004-33083-064267FM-12+042099999V0200501N00251220001CN0300001N9+02401+00601101241ADDAA199000091AY101999GF101991011001999999081001MD1710191+9999MW1021REMSYN00510148
0071874530999991973012419004-33083-064267FM-12+042099999V0200501N00251220001CN0300001N9+02701+00501101171ADDAY101999GF100991001001999999001001MD1710201+9999MW1011REMSYN00510141
0071874530999991973012420004-33083-064267FM-12+042099999V0200501N00101220001CN0300001N9+02501+00601101131ADDAY101999GF100991001001999999001001MD1710171+9999MW1021REMSYN00510137
0071874530999991973012421004-33083-064267FM-12+042099999V0200501N00101220001CN0300001N9+02501+00601101091ADDAY101999GF100991001001999999001001MD1710151+9999MW1021REMSYN00510133
0071874530999991973012422004-33083-064267FM-12+042099999V0209991C00001220001CN0300001N9+02401+00701101091ADDAY101999GF100991001001999999001001MD1610081+9999MW1021REMSYN00510133
0057874530999991973012500004-33083-064267FM-12+042099999V0209991C00001220001CN0300001N9+02201+00901101251ADDAY101999GF100991001001999999001001MD1310091+9999MW1021
0082874530999991973012506004-33083-064267FM-12+042099999V0203201N00251220001CN0300001N9+01501+00901101701ADDAA199000091AY101999GF100991001001999999001001MD1110071+9999MW1021REMSYN00510176
0071874530999991973012510004-33083-064267FM-12+042099999V0209991C00001220001CN0300001N9+01101+00801101851ADDAY101999GF100991001001999999001001MD1310071+9999MW1021REMSYN00510183
0071874530999991973012511004-33083-064267FM-12+042099999V0200501N00411220001CN0300001N9+01201+00901101881ADDAY101999GF100991001001999999001001MD1310131+9999MW1021REMSYN00510190
0095874530999991973012512004-33083-064267FM-12+042099999V0200501N00671220001CN0300001N9+01501+00901101861ADDAA199000091AY101999GF100991001001999999001001KA1999N+01101MD1210161+9999MW1021REMSYN00510193
0071874530999991973012513004-33083-064267FM-12+042099999V0200501N00921220001CN0300001N9+01701+00901101841ADDAY101999GF100991001001999999001001MD1110091+9999MW1021REMSYN00510190
0071874530999991973012514004-33083-064267FM-12+042099999V0200501N00921220001CN0300001N9+02001+00901101681ADDAY101999GF100991001001999999001001MD1810081+9999MW1021REMSYN00510182
0071874530999991973012515004-33083-064267FM-12+042099999V0200501N00921220001CN0300001N9+02101+01101101641ADDAY101999GF100991001001999999001001MD1810131+9999MW1021REMSYN00510168
0071874530999991973012517004-33083-064267FM-12+042099999V0200501N01231220001CN0300001N9+02601+01201101441ADDAY121999GF100991999999999999999999MD1610161+9999MW1001REMSYN00510165
0082874530999991973012518004-33083-064267FM-12+042099999V0200501N01231220001CN0300001N9+02501+01101101301ADDAA199000091AY101999GF100991001001999999001001MD1610231+9999MW1021REMSYN00510155
0071874530999991973012520004-33083-064267FM-12+042099999V0200501N01231220001CN0300001N9+02701+01201101081ADDAY101999GF100991001001999999001001MD1610291+9999MW1021REMSYN00510135
0071874530999991973012522004-33083-064267FM-12+042099999V0200201N01231220001CN0300001N9+02501+01101100971ADDAY101999GF102991001001999999001011MD1610251+9999MW1031REMSYN00510120
0088874530999991973012523004-33083-064267FM-12+042099999V0200201N01231220001CN0300001N9+02501+01101100971ADDAA199000091AY101999GF102991001001999999001011MD1610131+9999MW1021REMSYN01170027 10120
0071874530999991973012600004-33083-064267FM-12+042099999V0200501N00671220001CN0300001N9+02101+01201101061ADDAY101999GF102991001001999999001011MD1510031+9999MW1021REMSYN00510123
0082874530999991973012606004-33083-064267FM-12+042099999V0200201N00671220001CN0300001N9+01701+01101101051ADDAA199000091AY101999GF100991001001999999001001MD1610131+9999MW1021REMSYN00510115
0071874530999991973012609004-33083-064267FM-12+042099999V0200201N00921220001CN0300001N9+99999+99999999999ADDAY101999GF100991001001999999001001MD1610111+9999MW1021REMSYN00510004
0071874530999991973012610004-33083-064267FM-12+042099999V0200901N00921220001CN0300001N9+01601+01101101041ADDAY101999GF100991001001999999001001MD1410001+9999MW1021REMSYN00510110
0071874530999991973012611004-33083-064267FM-12+042099999V0200201N00921220001CN0300001N9+01701+01101101001ADDAY101999GF100991001001999999001001MD1310031+9999MW1021REMSYN00510110
0081874530999991973012612004-33083-064267FM-12+042099999V0203601N01231220001CN0200001N9+02001+01201100971ADDAA199000091AY101999GF100991001001999999001001KA1999N+01601MD1110081+9999MW1021
0071874530999991973012613004-33083-064267FM-12+042099999V0203601N01541220001CN0050001N9+02201+01001100961ADDAY101999GF100991001001999999001001MD1310031+9999MW1071REMSYN00510112
0071874530999991973012614004-33083-064267FM-12+042099999V0200201N01541220001CN0050001N9+02301+01101100961ADDAY101999GF100991001001999999001001MD1310051+9999MW1071REMSYN00510115
0071874530999991973012615004-33083-064267FM-12+042099999V0200201N01541220001CN0060001N9+02501+01101100921ADDAY101999GF100991001001999999001001MD1110051+9999MW1071REMSYN00510115
0082874530999991973012618004-33083-064267FM-12+042099999V0200201N01231220001CN0150001N9+02801+01201100721ADDAA199000091AY101999GF100991001001999999001001MD1710161+9999MW1051REMSYN00510099
0071874530999991973012619004-33083-064267FM-12+042099999V0200201N01231220001CN0200001N9+02801+01201100641ADDAY101999GF100991001001999999001001MD1710211+9999MW1021REMSYN00510090
0071874530999991973012620004-33083-064267FM-12+042099999V0200201N01231220001CN0300001N9+02801+01201999999ADDAY101999GF100991001001999999001001MD1710211+9999MW1021REMSYN00510070
0071874530999991973012621004-33083-064267FM-12+042099999V0200201N01231220001CN0200001N9+02801+01201100561ADDAY101999GF100991001001999999001001MD1610131+9999MW1021REMSYN00510085
0090874530999991973012622004-33083-064267FM-12+042099999V0201201N01231220001CN0200001N9+02801+01201100561ADDAY101999GF100991001001999999001001MD1610051+9999MW1021REMSYN00510085EQDQ01+000012SCOTCV
0088874530999991973012623004-33083-064267FM-12+042099999V0200201N01231220001CN0200001N9+02701+01201100621ADDAA199000091AY101999GF100991001001999999001001MD1310051+9999MW1021REMSYN01170028 10090
0071874530999991973012700004-33083-064267FM-12+042099999V0200201N00921220001CN0200001N9+02301+01401100801ADDAY101999GF100991001001999999001001MD1310131+9999MW1021REMSYN00510099
0082874530999991973012706004-33083-064267FM-12+042099999V0203601N00411220001CN0200001N9+02001+01301100921ADDAA199000091AY101999GF100991001001999999001001MD1810031+9999MW1021REMSYN00510108
0095874530999991973012712004-33083-064267FM-12+042099999V0203601N00101220001CN0200001N9+02401+01501101001ADDAA199000091AY101999GF101991011001999999081001KA1999N+01801MD1210191+9999MW1011REMSYN00510123
0071874530999991973012713004-33083-064267FM-12+042099999V0209991C00001220001CN0250001N9+02701+01701101011ADDAY101999GF100991001001999999001001MD1210161+9999MW1011REMSYN00510128
0071874530999991973012714004-33083-064267FM-12+042099999V0209991C00001220001CN0300001N9+02801+01701101021ADDAY101999GF100991001001999999001001MD1210131+9999MW1021REMSYN00510132
0071874530999991973012715004-33083-064267FM-12+042099999V0209991C00001220001CN0300001N9+02901+01601101081ADDAY101999GF100991001001999999001001MD1210131+9999MW1021REMSYN00510137
0071874530999991973012716004-33083-064267FM-12+042099999V0209991C00001220001CN0300001N9+03001+01601101041ADDAY101999GF100991001001999999001001MD1110091+9999MW1021REMSYN00510136
0071874530999991973012717004-33083-064267FM-12+042099999V0201401N00101220001CN0300001N9+03101+01601101041ADDAY101999GF101991011011008001001001MD1110051+9999MW1031REMSYN00510136
0082874530999991973012718004-33083-064267FM-12+042099999V0200501N00101220001CN0300001N9+03101+01501100931ADDAA199000091AY101999GF102991021011008001001001MD1810111+9999MW1031REMSYN00510126
0071874530999991973012720004-33083-064267FM-12+042099999V0200501N00411220001CN0300001N9+03201+01601100851ADDAY101999GF103991031041008001001001MD1610161+9999MW1021REMSYN00510120
0071874530999991973012721004-33083-064267FM-12+042099999V0200501N00411220001CN0300001N9+03101+01701100881ADDAY101999GF101991011999008001001001MD1710051+9999MW1011REMSYN00510120
0071874530999991973012722004-33083-064267FM-12+042099999V0200501N00411220001CN0300001N9+03001+01701100881ADDAY101999GF100991001001999999001001MD1410001+9999MW1011REMSYN00510120
0088874530999991973012723004-33083-064267FM-12+042099999V0200501N00251220001CN0300001N9+02901+01801100921ADDAA199000091AY101999GF103991031001999999041001MD1410001+9999MW1031REMSYN01170032 10120
0071874530999991973012800004-33083-064267FM-12+042099999V0200501N00251220001CN0300001N9+02601+01801101041ADDAY101999GF101991011001999999041001MD1310091+9999MW1011REMSYN00510131
0082874530999991973012806004-33083-064267FM-12+042099999V0200501N00411036001CN0200001N9+02201+01801101301ADDAA199000091AY111999GF107991071001999999011001MD1410001+9999MW1021REMSYN00510148
0071874530999991973012809004-33083-064267FM-12+042099999V0203601N00251036001CN0200001N9+02201+01801101341ADDAY121999GF108991081001999999071999MD1310071+9999MW1021REMSYN00510145
0071874530999991973012811004-33083-064267FM-12+042099999V0203601N00101036001CN0200001N9+02201+01801101481ADDAY121999GF108991031091012501061999MD1110131+9999MW1131REMSYN00510162
0081874530999991973012812004-33083-064267FM-12+042099999V0203601N00251012001CN0100001N9+02201+01801101521ADDAA199000091AY191999GF108991081051012501999999KA1999N+02101MD1110151+9999MW1101
0071874530999991973012813004-33083-064267FM-12+042099999V0209999999999012001CN0150001N9+02301+01701101451ADDAY121999GF108991051051012501071999MD1110011+9999MW1031REMSYN00510164
0071874530999991973012814004-33083-064267FM-12+042099999V0200501N00671036001CN0150001N9+02501+01701101491ADDAY121999GF108991031051012501071011MD1110081+9999MW1011REMSYN00510170
0071874530999991973012815004-33083-064267FM-12+042099999V0200501N00921036001CN0200001N9+02601+01701101401ADDAY121999GF107991021051012501071001MD1810051+9999MW1011REMSYN00510165
0072874530999991973012816004-33083-064267FM-12+042099999V0200501N00611220001CN0300001N9+02801+02101101111ADDAY121999GF104991011081012501071021MD1710051+9999MW1021REMSYN00610157Y
0071874530999991973012817004-33083-064267FM-12+042099999V0200501N01231036001CN0200001N9+02801+01701101161ADDAY121999GF106991021051012501061001MD1610271+9999MW1011REMSYN00510143
0082874530999991973012818004-33083-064267FM-12+042099999V0200201N01231036001CN0200001N9+02901+01601101131ADDAA199000091AY121999GF106991021051012501051001MD1610211+9999MW1011REMSYN00510143
0071874530999991973012819004-33083-064267FM-12+042099999V0200201N01231220001CN0200001N9+02901+01601101081ADDAY121999GF103991031001999999051011MD1610171+9999MW1011REMSYN00510137
0071874530999991973012820004-33083-064267FM-12+042099999V0200501N01231220001CN0200001N9+02901+01701101001ADDAY121999GF103991031011012501051011MD1310131+9999MW1011REMSYN00510129
0071874530999991973012821004-33083-064267FM-12+042099999V0200501N01231220001CN0250001N9+02901+01701100941ADDAY121999GF103991031011012501051001MD1610191+9999MW1031REMSYN00510123
0071874530999991973012822004-33083-064267FM-12+042099999V0200501N01181220001CN0250001N9+02801+01601100861ADDAY121999GF101991011021008001001001MD1610211+9999MW1031REMSYN00510115
0088874530999991973012823004-33083-064267FM-12+042099999V0200501N01231220001CN0250001N9+02801+01901100891ADDAA199000091AY111999GF103991031021008001001001MD1610131+9999MW1031REMSYN01170029 10115
0087874530999991973012900004-33083-064267FM-12+042099999V0200501N00921007501CN0200001N9+02401+02001101081ADDAY181999GA1021+006009099GF106991061021008001001001MD1310041+9999MW1251REMSYN00510141
0082874530999991973012906004-33083-064267FM-12+042099999V0200501N00671007501CN0200001N9+02101+02001101221ADDAA199000591AY121999GF106991061051008001001001MD1610041+9999MW1021REMSYN00510140
0071874530999991973012910004-33083-064267FM-12+042099999V0200501N00671007501CN0200001N9+02101+02001101161ADDAY121999GF108991081061008001999999MD1610071+9999MW1031REMSYN00510133
0087874530999991973012911004-33083-064267FM-12+042099999V0200501N00671002101CN0040001N9+02101+02001101251ADDAY121999GA1081+002109079GF108991081051002501999999MD1610111+9999MW1101REMSYN00510143
0095874530999991973012912004-33083-064267FM-12+042099999V0200201N00921004201CN0100001N9+02201+01901101161ADDAA199000591AY121999GF108991081061004501999999KA1999N+02101MD1010031+9999MW1101REMSYN00510136
0071874530999991973012913004-33083-064267FM-12+042099999V0200201N00921220001CN0200001N9+02401+02101101081ADDAY111999GF103991031061004501001001MD1810011+9999MW1011REMSYN00510132
0071874530999991973012914004-33083-064267FM-12+042099999V0200201N00921220001CN0200001N9+02701+01901100981ADDAY101999GF101991011061004501001001MD1710171+9999MW1011REMSYN00510124
0071874530999991973012915004-33083-064267FM-12+042099999V0200201N00921220001CN0200001N9+02901+01901101001ADDAY101999GF104991041081008001001001MD1510071+9999MW1031REMSYN00510129
0078874530999991973012916004-33083-064267FM-12+042099999V0200201N00921006001CN0300001N9+99999+99999100961ADDAY101999GF106991061081000751001001MA1999999085001MW1021REMSYN01119807 1011*
0071874530999991973012917004-33083-064267FM-12+042099999V0200501N00921007501CN0300001N9+03001+01901100901ADDAY121999GF106991061021008001001001MD1710051+9999MW1031REMSYN00510119
0082874530999991973012918004-33083-064267FM-12+042099999V0200501N01441007501CN0200001N9+03001+01901100821ADDAA199000091AY121999GF106991061021008001001001MD1710251+9999MW1021REMSYN00510114
0071874530999991973012920004-33083-064267FM-12+042099999V0200501N00921220001CN0200001N9+03001+02001100731ADDAY111999GF103991031021008001001001MD1710171+9999MW1011REMSYN00510101
0071874530999991973012922004-33083-064267FM-12+042099999V0200501N00921220001CN0200001N9+02901+02101100681ADDAY101999GF103991031021008001001001MD1610121+9999MW1021REMSYN00510095
0088874530999991973012923004-33083-064267FM-12+042099999V0200501N00921220001CN0200001N9+99999+99999100681ADDAA199000091AY101999GF102991021021008001001001MD1610051+9999MW1011REMSYN01170031 10095
0071874530999991973013000004-33083-064267FM-12+042099999V0200501N00921220001CN0200001N9+02701+02201100771ADDAY101999GF102991021081008001001001MD1310071+9999MW1021REMSYN00510103
0068874530999991973013006004-33083-064267FM-12+042099999V0200501N00921002101CN0200001N9+02401+02301100861ADDAA199000091AY111999GF108991081061002501999999MD1810031+9999MW1031
0106874530999991973013009004-33083-064267FM-12+042099999V0200201N00671220001CN0100001N9+02301+02201100881ADDAY121999GF100991001001999999001001MD1210021+9999MW1101REMSYN00510127EQDQ01+000052APCTENQ02+000632APC3  
0071874530999991973013010004-33083-064267FM-12+042099999V0200201N00511220001CN0100001N9+02401+02201100841ADDAY101999GF100991001001999999001001MD1410001+9999MW1101REMSYN00510108
0111874530999991973013012004-33083-064267FM-12+042099999V0200201N00921003001CN0080001N9+02501+02201100841ADDAA199000091AY111999GA1061+003009079GF106991061061004501001001KA1999N+02301MD1410001+9999MW1101REMSYN00510107
0071874530999991973013013004-33083-064267FM-12+042099999V0200201N00921004201CN0080001N9+02601+02201100841ADDAY111999GF106991061061004501001001MD1410001+9999MW1101REMSYN00510107
0087874530999991973013014004-33083-064267FM-12+042099999V0203601N00921220001CN0150001N9+02801+02201100881ADDAY111999GA1031+004509079GF104991041061004501001001MD1410001+9999MW1101REMSYN00510107
0087874530999991973013015004-33083-064267FM-12+042099999V0200201N00921220001CN0200001N9+02901+02201100721ADDAY111999GA1041+004509059GF104991041051004501001001MD1810071+9999MW1021REMSYN00510100
0071874530999991973013016004-33083-064267FM-12+042099999V0200201N00921007501CN0200001N9+03001+02201100651ADDAY111999GF105991051051008001001001MD1810131+9999MW1031REMSYN00510093
0071874530999991973013017004-33083-064267FM-12+042099999V0200201N00921220001CN0250001N9+03201+02201100521ADDAY111999GF104991041051008001001999MD1710131+9999MW1011REMSYN00510086
0082874530999991973013018004-33083-064267FM-12+042099999V0200201N00921220001CN0300001N9+03201+02301100381ADDAA199000091AY111999GF104991041051008001001001MD1710271+9999MW1021REMSYN00510722
0071874530999991973013019004-33083-064267FM-12+042099999V0200201N00921220001CN0300001N9+03301+02301100231ADDAY101999GF103991031051008001001001MD1710331+9999MW1011REMSYN00510057
0071874530999991973013020004-33083-064267FM-12+042099999V0200201N00921220001CN0300001N9+03401+02201100131ADDAY101999GF102991021051008001001001MD1710361+9999MW1011REMSYN00510048
0071874530999991973013021004-33083-064267FM-12+042099999V0200201N00921220001CN0300001N9+03401+02201100021ADDAY101999GF101991011051008001001001MD1710331+9999MW1011REMSYN00510036
0071874530999991973013022004-33083-064267FM-12+042099999V0200201N00921220001CN0300001N9+03301+02201099981ADDAY101999GF100991001001999999001001MD1710241+9999MW1011REMSYN00510032
0114874530999991973013120004-33083-064267FM-12+042099999V02099999999999999999N9999999N9+99999+99999096201ADDGF106991999081001501021061MD1410001+9999REMSYN01114811 10107EQDQ01+000002SCOTLCQ02 -00203ATOT  Q03 -01503ATOD  
0137874530999991973013121004-33083-064267FM-12+042099999V0201801N00921007501CN0200001N9+02602+01402100802ADDAY121999GF105991051051008001001001MA1999999071041MD1710131+9999MW1011REMSYN00510104EQDQ01+029923ATOT  Q02+028723ATOD  Q03+100803APOSLP
0072874530999991973013122004-33083-064267FM-12+042099999V0201801N00661007501CN0200001N9+02601+01601100861ADDAY121999GF105991051051008001001001MD1510011+9999MW1021REMSYN0061011.0
0071874530999991973020100004-33083-064267FM-12+042099999V0209991C00001007501CN0200001N9+02501+01901100851ADDAY121999GF107991071051008001001001MD1110031+9999MW1031REMSYN00510107
0098874530999991973020106004-33083-064267FM-12+042099999V0200501N00411002401CN0200001N9+02201+02001100811ADDAA199000091AY121999GA1081+002409079GF108991081061002501999999MD1710201+9999MW1031REMSYN00510098
0071874530999991973020110004-33083-064267FM-12+042099999V0200501N00671007501CN0030001N9+02901+02101100651ADDAY121999GF108991081091008001999999MD1510131+9999MW1951REMSYN00510083
0071874530999991973020111004-33083-064267FM-12+042099999V0203601N00251036001CN0150001N9+02201+02101100811ADDAY121999GF108991031061004501071999MD1110071+9999MW1031REMSYN00510100
0095874530999991973020112004-33083-064267FM-12+042099999V0200201N00921036001CN0180001N9+02301+02101100811ADDAA199004091AY121999GF108991021051008001071999KA1999N+02201MD1210161+9999MW1031REMSYN00510100
0071874530999991973020113004-33083-064267FM-12+042099999V0200501N00921036001CN0200001N9+02301+02101100771ADDAY121999GF108991021051008001071999MD1110081+9999MW1021REMSYN00510095
0071874530999991973020114004-33083-064267FM-12+042099999V0200201N01031036001CN0200001N9+02401+02001100651ADDAY121999GF108991021051008001071061MD1810231+9999MW1031REMSYN00510090
0071874530999991973020115004-33083-064267FM-12+042099999V0200201N01231036001CN0200001N9+02701+02101100611ADDAY121999GF108991021051008001061061MD1610121+9999MW1031REMSYN00510088
0071874530999991973020116004-33083-064267FM-12+042099999V0200501N01031036001CN0200001N9+02801+02201100451ADDAY121999GF107991021011008001061061MD1610321+9999MW1031REMSYN00510077
0071874530999991973020117004-33083-064267FM-12+042099999V0200201N01231090001CN0200001N9+02701+02101100451ADDAY121999GF106991011011008001051061MD1610171+9999MW1031REMSYN00510072
0082874530999991973020118004-33083-064267FM-12+042099999V0200201N01231220001CN0250001N9+02901+02001100361ADDAA199000091AY121999GF106991031001999999051061MD1610201+9999MW1031REMSYN00510066
0071874530999991973020120004-33083-064267FM-12+042099999V0200201N01231220001CN0250001N9+02901+02101100161ADDAY121999GF106991021001999999051061MD1610251+9999MW1021REMSYN00510045
0071874530999991973020121004-33083-064267FM-12+042099999V0200201N01231036001CN0250001N9+02901+02001100121ADDAY121999GF105991051001999999061061MD1610241+9999MW1021REMSYN00510041
0071874530999991973020122004-33083-064267FM-12+042099999V0200201N01231220001CN0200001N9+02801+02001100121ADDAY121999GF106991011001999999061061MD1610111+9999MW1011REMSYN00510041
0088874530999991973020123004-33083-064267FM-12+042099999V0200501N01031220001CN0200001N9+02701+02201100161ADDAA199000091AY121999GF106991001001999999001061MD1610041+9999MW1021REMSYN01170030 10041
0076874530999991973020200004-33083-064267FM-12+042099999V0200201N01031220001CN0200001N9+02701+02301100241ADDGF106991001001999999001061MD1310081+9999REMSYN00510049EQDQ01+000222PRSWM1
0082874530999991973020206004-33083-064267FM-12+042099999V0200501N01231220001CN0200001N9+02501+02301100091ADDAA199011091AY101999GF102991021091004501001001MD1610271+9999MW1131REMSYN00510031
0071874530999991973020211004-33083-064267FM-12+042099999V0203601N00251220001CN0200001N9+02501+02101100201ADDAY101999GF102991011091012501061001MD1210191+9999MW1021REMSYN00510043
0081874530999991973020212004-33083-064267FM-12+042099999V0203601N00251220001CN0200001N9+02701+02001100171ADDAA199000091AY101999GF102991011091012501061001KA1999N+02401MD1110231+9999MW1021
0071874530999991973020213004-33083-064267FM-12+042099999V0203601N00411220001CN0200001N9+02901+02101100051ADDAY101999GF102991011091012501061001MD1010001+9999MW1021REMSYN00510034
0071874530999991973020214004-33083-064267FM-12+042099999V0203601N00511036001CN0200001N9+03001+02101100061ADDAY111999GF107991031021012501061001MD1510041+9999MW1031REMSYN00510039
0071874530999991973020215004-33083-064267FM-12+042099999V0203601N00921036001CN0200001N9+03101+02201099811ADDAY111999GF107991031021012501061001MD1810251+9999MW1021REMSYN00510016
0087874530999991973020216004-33083-064267FM-12+042099999V0201101N01231002101CN0200001N9+02301+02001100101ADDAY121999GA1081+002109079GF108991081061002501999999MD1510041+9999MW1031REMSYN00510030
0082874530999991973020218004-33083-064267FM-12+042099999V0201401N00671001201CN0080001N9+02001+01901100281ADDAA199019091AY191999GF108991061061001501061999MD1010271+9999MW1951REMSYN00510044
0103874530999991973020219004-33083-064267FM-12+042099999V0201401N01181001501CN0080001N9+02001+01901100411ADDAY191999GA1061+001509079GA2041+007509099GF199999071061001501061999MD1710271+9999MW1811REMSYN00510058
0103874530999991973020220004-33083-064267FM-12+042099999V0200501N00411002101CN0120001N9+02001+01901100211ADDAY191999GA1071+002109079GA2041+008109099GF108991071061002501061999MD1810111+9999MW1951REMSYN00510037
0103874530999991973020221004-33083-064267FM-12+042099999V0200501N00251002101CN0080001N9+02001+01901100251ADDAY191999GA1061+002109079GA2041+008109099GF108991061061002501061999MD1510031+9999MW1951REMSYN00510041
0057874530999991973020300004-33083-064267FM-12+042099999V0209991C00001006001CN0200001N9+02001+02001100341ADDAY121999GF108991081081002501999999MD1210091+9999MW1021
0068874530999991973020306004-33083-064267FM-12+042099999V0209991C00001007501CN0200001N9+02001+01801100421ADDAA199000091AY121999GF108991081051008001999999MD1110031+9999MW1021
0100874530999991973020311004-33083-064267FM-12+042099999V0202001N00411002101CN0100001N9+02001+01901101051ADDAY151999GA1081+002109079GF108991081061002501999999MD1210532+9999REMSYN00510118EQDQ01+000532APC3  
0127874530999991973020312004-33083-064267FM-12+042099999V0202001N00411006001CN0200001N9+02001+01901101161ADDAA199030091AY121999GA1031+002409079GA2051+006009059GF108991081061002501999999KA1999N+02001MD1210391+9999MW1031REMSYN00510133
0087874530999991973020313004-33083-064267FM-12+042099999V0202001N00671001801CN0050001N9+02101+01901101161ADDAY121999GA1081+001809079GF108991081061001501999999MD1310201+9999MW1101REMSYN00510133
0077874530999991973020314004-33083-064267FM-12+042099999V0202001N00671004201CN0180001N9+02101+01801101221ADDAY121999GF108991081061004501999999MD1310211+9999MW1021REMSYN0111014* 0****
0071874530999991973020315004-33083-064267FM-12+042099999V0202301N00671004201CN0200001N9+02201+01801101261ADDAY121999GF108991081051004501999999MD1310111+9999MW1031REMSYN00510144
0080874530999991973020317004-33083-064267FM-12+042099999V0201801N00151000301CN9999999N9+01801+01301999999ADDAA199055091GF107991071001000251021021MD1210241+9999REMSYN01775500 18312 10152
0082874530999991973020318004-33083-064267FM-12+042099999V0202001N01031007501CN0250001N9+02401+01701101291ADDAA199000091AY121999GF107991071051008001001001MD1210091+9999MW1021REMSYN00510153
0071874530999991973020319004-33083-064267FM-12+042099999V0201801N00671007501CN0250001N9+02501+01701101291ADDAY121999GF107991071051008001001001MD1310071+9999MW1021REMSYN00510153
0071874530999991973020320004-33083-064267FM-12+042099999V0201601N00921220001CN0300001N9+02501+01601101321ADDAY121999GF104991041011008001001001MD1310041+9999MW1011REMSYN00510156
0071874530999991973020322004-33083-064267FM-12+042099999V0201401N00671220001CN0250001N9+02401+01701101491ADDAY121999GF104991041011008001001001MD1310131+9999MW1021REMSYN00510168
0088874530999991973020323004-33083-064267FM-12+042099999V0201401N00671220001CN0250001N9+02301+01701101521ADDAA199000091AY121999GF102991021999000751051001MD1310131+9999MW1011REMSYN01170026 10170
0071874530999991973020400004-33083-064267FM-12+042099999V0201401N00101220001CN0250001N9+02001+01701101691ADDAY101999GF100991001001999999001001MD1310241+9999MW1021REMSYN00510185
0082874530999991973020407004-33083-064267FM-12+042099999V0201401N00101220001CN0250001N9+01801+01501101961ADDAA199000091AY101999GF100991001001999999001001MD1110121+9999MW1021REMSYN00510205
0090874530999991973020411004-33083-064267FM-12+042099999V0200501N00921220001CN0250001N9+01601+01301101062ADDAY101999GF102991021001999999071001MD1110081+9999MW1031REMSYN00510214EQDQ01+101063APOSLP
0081874530999991973020412004-33083-064267FM-12+042099999V0200201N00921220001CN0250001N9+01701+01401101131ADDAA199000091AY101999GF104991041001999999051001KA1999N+01501MD1310251+9999MW1031
0082874530999991973020414004-33083-064267FM-12+042099999V0200201N01231220001CN0300001N9+02001+01201102002ADDGF104991041001999999051001MD1010011+9999MW1201REMSYN00510215EQDQ01+102003APOSLP
0082874530999991973020415004-33083-064267FM-12+042099999V0200201N01231220001CN0300001N9+99999+99999101891ADDAY101999GF103991011081999999021021MW1011REMSYN01112811 10210EQDQ01+000992SCOLCB
0068874530999991973020418004-33083-064267FM-12+042099999V0200201N01541220001CN0300001N9+02401+00701101641ADDAA199000091AY101999GF102991021001999999051001MD1710171+9999MW1031
0071874530999991973020420004-33083-064267FM-12+042099999V0200201N01231220001CN0300001N9+02501+01001101501ADDAY101999GF101991011001999999051001MD1710211+9999MW1011REMSYN00510172
0071874530999991973020421004-33083-064267FM-12+042099999V0200201N01231220001CN0300001N9+02501+01101101441ADDAY101999GF101991011001999999051001MD1710201+9999MW1021REMSYN00510164
0071874530999991973020422004-33083-064267FM-12+042099999V0200201N01231220001CN0300001N9+02401+01101101351ADDAY101999GF101991011001999999051001MD1710201+9999MW1021REMSYN00510156
0071874530999991973020500004-33083-064267FM-12+042099999V0200201N00921220001CN0300001N9+02001+01201101521ADDAY101999GF100991001001999999001001MD1510001+9999MW1011REMSYN00510165
0082874530999991973020506004-33083-064267FM-12+042099999V0200201N00921220001CN0300001N9+01701+01201101541ADDAA199000091AY101999GF100991001001999999001001MD1410001+9999MW1021REMSYN00510162
0071874530999991973020509004-33083-064267FM-12+042099999V0200501N00511220001CN0200001N9+01601+01201101571ADDAY101999GF100991001001999999001001MD1510001+9999MW1021REMSYN00510162
0071874530999991973020510004-33083-064267FM-12+042099999V0200201N00671220001CN0200001N9+01501+01201101601ADDAY101999GF100991001001999999001001MD1310031+9999MW1021REMSYN00510163
0071874530999991973020511004-33083-064267FM-12+042099999V0200201N00671220001CN0200001N9+01601+01301101621ADDAY101999GF100991001001999999001001MD1210071+9999MW1021REMSYN00510168
0095874530999991973020512004-33083-064267FM-12+042099999V0203601N01231220001CN0200001N9+99999+99999101411ADDAA199000091AY121999GF102991001001999999001061KA1999N+01501MD1310071+9999MW1031REMSYN00510169
0071874530999991973020513004-33083-064267FM-12+042099999V0200201N01231220001CN0200001N9+02101+01901101501ADDAY101999GF102991001001999999001061MD1010001+9999MW1021REMSYN00510165
0071874530999991973020514004-33083-064267FM-12+042099999V0200201N01231220001CN0200001N9+02301+01201101451ADDAY101999GF102991001001999999001021MD1810041+9999MW1021REMSYN00510164
0071874530999991973020517004-33083-064267FM-12+042099999V0200201N00921220001CN0250001N9+02701+01301101211ADDAY101999GF101991001001999999001021MD1810151+9999MW1011REMSYN00510148
0068874530999991973020518004-33083-064267FM-12+042099999V0200201N00921220001CN0300001N9+02801+01301101171ADDAA199000091AY101999GF101991001001999999001021MD1710191+9999MW1021
0071874530999991973020519004-33083-064267FM-12+042099999V0200201N00921220001CN0200001N9+02801+01201101131ADDAY101999GF101991001001999999001021MD1710191+9999MW1021REMSYN00510140
0071874530999991973020520004-33083-064267FM-12+042099999V0200201N00921220001CN0300001N9+02801+00901101061ADDAY101999GF101991001001999999001021MD1710121+9999MW1021REMSYN00510136
0071874530999991973020521004-33083-064267FM-12+042099999V0200201N00921220001CN0300001N9+02701+01101101051ADDAY101999GF101991001001999999001021MD1710121+9999MW1021REMSYN00510132
0088874530999991973020523004-33083-064267FM-12+042099999V0200201N00671220001CN0300001N9+02501+01201101041ADDAA199000091AY101999GF102991001001999999001021MD1610081+9999MW1021REMSYN01170028 10128
0071874530999991973020600004-33083-064267FM-12+042099999V0200201N00671220001CN0300001N9+02701+01401101081ADDAY101999GF101991001001999999001021MD1610041+9999MW1021REMSYN00510128
0071874530999991973020610004-33083-064267FM-12+042099999V0209999999999220001CN0200001N9+01701+01501101201ADDAY101999GF101991001001999999001051MD1610051+9999MW1031REMSYN00510131
0071874530999991973020611004-33083-064267FM-12+042099999V0200201N00921220001CN0200001N9+01801+01501101021ADDAY101999GF101991001001999999001041MD1410001+9999MW1021REMSYN00510131
0095874530999991973020612004-33083-064267FM-12+042099999V0200201N01231220001CN0200001N9+02101+01601101101ADDAA199000091AY101999GF101991001001999999001041KA1999N+01601MD1810031+9999MW1021REMSYN0051012*
0071874530999991973020613004-33083-064267FM-12+042099999V0200201N01231220001CN0200001N9+02301+01601101081ADDAY101999GF101991001001999999001041MD1610031+9999MW1021REMSYN00510128
0071874530999991973020615004-33083-064267FM-12+042099999V0200201N01541220001CN0250001N9+02401+01701100981ADDAY101999GF102991001001999999001021MD1610081+9999MW1031REMSYN00510122
0071874530999991973020616004-33083-064267FM-12+042099999V0200201N01231220001CN0200001N9+02701+01601100861ADDAY111999GF102991001001999999001021MD1610151+9999MW1021REMSYN00510112
0090874530999991973020617004-33083-064267FM-12+042099999V0200201N01231220001CN0200001N9+02801+01601100771ADDAY101999GF100991001001999999001001MD1710151+9999MW1021REMSYN00510087EQDQ01+000022SCOTCV
0082874530999991973020618004-33083-064267FM-12+042099999V0200201N01231220001CN0200001N9+02901+01601100691ADDAA199000091AY101999GF103991001001999999001021MD1710231+9999MW1031REMSYN00510095
0071874530999991973020619004-33083-064267FM-12+042099999V0200201N01231220001CN0200001N9+02801+01501100561ADDAY101999GF104991001001999999061021MD1710241+9999MW1031REMSYN00510088
0063874530999991973020621004-33083-064267FM-12+042099999V0200201N012319999999N0200001N9+02701+99999100481ADDAY111999GF105991001001999999001999MW1031REMSYN01116719 10074
0088874530999991973020623004-33083-064267FM-12+042099999V0209991C00001090001CN0260001N9+02601+01701100481ADDAA199000091AY121999GF106991001001999999001021MD1610051+9999MW1031REMSYN01170028 10074
0071874530999991973020700004-33083-064267FM-12+042099999V0200201N00921090001CN0200001N9+02401+01701100501ADDAY121999GF106991001001999999001021MD1410001+9999MW1021REMSYN00510074
0082874530999991973020706004-33083-064267FM-12+042099999V0200201N00671220001CN0200001N9+02101+01701999999ADDAA199000091AY101999GF100991001001999999001001MD1810061+9999MW1011REMSYN00510074
0068874530999991973020707004-33083-064267FM-12+042099999V0200201N00671220001CN0200001N9+02101+01701100561ADDAA199000091AY101999GF100991001001999999001001MD1810061+9999MW1011
0071874530999991973020709004-33083-064267FM-12+042099999V0209999999999220001CN0200001N9+02001+01801100521ADDAY101999GF102991001001999999001021MD1510051+9999MW1031REMSYN0051006*
0071874530999991973020710004-33083-064267FM-12+042099999V0200201N00251220001CN0200001N9+02001+01801100581ADDAY101999GF102991001001999999001021MD1510031+9999MW1021REMSYN00510174
0071874530999991973020711004-33083-064267FM-12+042099999V0209991C00001220001CN0200001N9+02101+01801100661ADDAY101999GF104991001001999999001051MD1110111+9999MW1031REMSYN00510085
0095874530999991973020712004-33083-064267FM-12+042099999V0209991C00001220001CN0200001N9+02301+01801100681ADDAA199000091AY101999GF103991001001999999001051KA1999N+02001MD1110211+9999MW1011REMSYN00510090
0062874530999991973020713004-33083-064267FM-12+042099999V0209991C00001220001CN0200001N9+99999+99999999999ADDAY131999GF104991999061000251021071MW1031EQDQ01+000002SCOTLC
0071874530999991973020714004-33083-064267FM-12+042099999V0203401N00101090001CN0200001N9+02701+01901100621ADDAY121999GF106991041001999999061051MD1110051+9999MW1031REMSYN00510090
0071874530999991973020717004-33083-064267FM-12+042099999V0203201N00251090001CN0250001N9+02901+01901100451ADDAY121999GF105991021001999999051051MD1610131+9999MW1031REMSYN0051007*
0082874530999991973020718004-33083-064267FM-12+042099999V0202001N00251220001CN0250001N9+03001+01901100401ADDAA199000091AY111999GF104991041001999999051001MD1610191+9999MW1011REMSYN00510070
0071874530999991973020719004-33083-064267FM-12+042099999V0201801N00411220001CN0300001N9+03001+01901100321ADDAY111999GF104991041001999999051001MD1610201+9999MW1021REMSYN00510062
0071874530999991973020720004-33083-064267FM-12+042099999V0201601N00671220001CN0250001N9+03001+01701100291ADDAY111999GF104991041001999999051001MD1610161+9999MW1021REMSYN00510060
0071874530999991973020721004-33083-064267FM-12+042099999V0201801N00411036001CN0250001N9+02901+01801100241ADDAY121999GF106991061001999999051001MD1610161+9999MW1031REMSYN0051004*
0107874530999991973020723004-33083-064267FM-12+042099999V0201801N00411036001CN0210001N9+02701+01801100361ADDAA199999999AY121999GF107991031051012501071001MD1310031+9999MW1631REMSYN01170030 10062EQDQ01  00002PRCP99
0071874530999991973020800004-33083-064267FM-12+042099999V0209991C00001012001CN0200001N9+02601+01801100441ADDAY121999GF107991051051012501071001MD1110131+9999MW1031REMSYN00510068
0068874530999991973020806004-33083-064267FM-12+042099999V0203401N00411220001CN0200001N9+02101+02001100381ADDAA199010091AY101999GF103991031091008001001001MD1710031+9999MW1131
0095874530999991973020812004-33083-064267FM-12+042099999V0209991C00001036001CN0200001N9+02201+01801100141ADDAA199001091AY191999GF107991011091012501061001KA1999N+02001MD1810071+9999MW1251REMSYN00510030
0063874530999991973020813004-33083-064267FM-12+042099999V0209991C00001220001CN0200001N9+99999+99999100141ADDAY111999GF103991021041999999999999MW1011REMSYN01118511 10037
0071874530999991973020814004-33083-064267FM-12+042099999V0201801N00251220001CN0300001N9+02801+01701100161ADDAY111999GF102991011081012501061001MD1510031+9999MW1021REMSYN00510041
0071874530999991973020815004-33083-064267FM-12+042099999V0201401N00251220001CN0300001N9+02801+01901100121ADDAY101999GF101991011081012501001001MD1110111+9999MW1011REMSYN00510041
0071874530999991973020816004-33083-064267FM-12+042099999V0200501N00411220001CN0300001N9+02901+02101100121ADDAY101999GF101991999999999999999999MD1110041+9999MW1021REMSYN00510041
0071874530999991973020817004-33083-064267FM-12+042099999V0200501N00671220001CN0300001N9+02901+01701100001ADDAY101999GF102991011081012501001021MD1710221+9999MW1031REMSYN00510027
0068874530999991973020818004-33083-064267FM-12+042099999V0200501N00671090001CN0300001N9+03001+02001099891ADDAA199000091AY111999GF105991031081012501001021MD1810201+9999MW1031
0173874530999991973020819004-33083-064267FM-12+042099999V0200501N00561051001CN0300001N9+02801+01002099721ADDAA199000091AY111999GA1071+051009049GF199999031031999999999999MD1710401+9999MW1031REMSYN0291001* 53407 70022 00830 58500EQDQ01+000062SCOTCVQ02+000002APCTENQ03+000822APC3  
0071874530999991973020821004-33083-064267FM-12+042099999V0200501N00671220001CN0300001N9+02901+02001099781ADDAY191999GF103991011031012501061021MD1810111+9999MW1011REMSYN00510009
0077874530999991973020822004-33083-064267FM-12+042099999V0200501N00671220001CN0300001N9+02801+02101099811ADDAY111999GF103991011031012501061021MD1610041+9999MW1021REMSYN01110009 1****
0057874530999991973020900004-33083-064267FM-12+042099999V0209991C00001220001CN0300001N9+02201+01801099961ADDAY101999GF101991011031012501001001MD1110081+9999MW1131
0068874530999991973020906004-33083-064267FM-12+042099999V0201801N01231002101CN0060001N9+02401+01401100441ADDAA199000091AY111999GF108991081061002501999999MD1310401+9999MW1101
0087874530999991973020910004-33083-064267FM-12+042099999V0202301N00251008101CN0200001N9+01501+01201100761ADDAY121999GA1081+008109059GF108991081051008001999999MD1310321+9999MW1021REMSYN00510085
