0072874500999991973010421004-32183-064383FM-12+054799999V0209991C00001220001CN0200001N9+03101+02001100091ADDAY101999GF101991011021017501001001MA1999999094051MD1710151+9999MW1031
0072874500999991973010516004-32183-064383FM-12+054799999V0201801N00671220001CN0200001N9+02401+01201999999ADDAY101999GF100991001001999999001001MA1999999094661MD1210051+9999MW1001
0072874500999991973010519004-32183-064383FM-12+054799999V0201801N00411220001CN0200001N9+02601+01001999999ADDAY101999GF100991001001999999001001MA1999999094531MD1710011+9999MW1021
0072874500999991973010523004-32183-064383FM-12+054799999V0201401N00251220001CN0200001N9+02501+00901999999ADDAY101999GF100991001001999999001001MA1999999094511MD1710011+9999MW1021
0086874500999991973010816004-32183-064383FM-12+054799999V0209991C00001036001CN0100001N9+01801+00801999999ADDAY101999GF108991081001999999071031MA1999999095021MD1610011+9999MW1051REMSYN00569502
0097874500999991973010916004-32183-064383FM-12+054799999V0209991C00001220001CN0100001N9+02101+01401999999ADDAA199000091AY101999GF102991011021017501001011MA1999999094691MD1410001+9999MW1051REMSYN00570017
0072874500999991973010923004-32183-064383FM-12+054799999V0200901N00251220001CN0100001N9+03201+01801999999ADDAY101999GF100991001001999999001001MA1999999094101MD1710361+9999MW1051
0091874500999991973011114004-32183-064383FM-12+054799999V0209991C00001220001CN0100001N9+02201+02001999999ADDAY111999GF102991011001999999081031MA1999999094541MD1310512+9999MW1051EQDQ01+000512APC3  
0072874500999991973011121004-32183-064383FM-12+054799999V0202301N00101036001CN0100001N9+02701+02301999999ADDAY161999GF107991011021017501081001MA1999999094411MD1710081+9999MW1031
0096874500999991973011212004-32183-064383FM-12+054799999V0203201N002519999999N0200001N9+02501+01901999999ADDAA199000091AY101999GF106991999999999999999999KA1999N+02301MA1999999094621MD1210171+9999MW1031
0072874500999991973011215004-32183-064383FM-12+054799999V0201801N00101036001CN0100001N9+02901+02101999999ADDAY111999GF107991021021017501061001MA1999999094551MD1710071+9999MW1031
0097874500999991973011314004-32183-064383FM-12+054799999V0203201N00101004201CN0040001N9+01801+01801999999ADDAA199006091AY151999GF108991061061004501021999MA1999999094851MD1110051+9999MW1501REMSYN00570  6
0072874500999991973011322004-32183-064383FM-12+054799999V0209991C00001007501CN0100001N9+02101+01901999999ADDAY121999GF108991081051008001999999MA1999999094621MD1710151+9999MW1021
0097874500999991973011623004-32183-064383FM-12+054799999V0200501N00101220001CN0200001N9+02901+01801999999ADDAA199000091AY101999GF102991021041017501001001MA1999999094511MD1710091+9999MW1031REMSYN00570031
0152874500999991973011919004-32183-064383FM-12+054799999V0201401N00411220001CN0100001N9+02501+01701999999ADDAY111999GF103991031021017501001001MA1999999095431MD1710131+9999MW1011REMSYN07169543      ?86    1912  87450 71402 97100 17520 70960 18221 69554 70018
0068874500999991973012006004-32183-064383FM-12+054799999V0203601N01231090001CN0200001N9+02301+99999999999ADDAA199000091AY121999GF105991001001999999001051MD1410001+9999MW1021
0096874500999991973012312004-32183-064383FM-12+054799999V0202301N00411012001CN0100001N9+01801+01301999999ADDAA199040091AY121999GF107991071051012501001001KA1999N+01601MA1999999094791MD1210151+9999MW1011
0091874500999991973012416004-32183-064383FM-12+054799999V0209991C00001220001CN0200001N9+02101+00901999999ADDAY101999GF102991999001999999061001MA1999999095331MD1410001+9999MW1031EQDQ01+000012SCOTLC
0072874500999991973012515004-32183-064383FM-12+054799999V0200501N00101220001CN0200001N9+02401+01201999999ADDAY101999GF100991001001999999001001MA1999999095511MD1710011+9999MW1001
0072874500999991973012717004-32183-064383FM-12+054799999V0209991C00001036001CN0200001N9+02701+01901999999ADDAY111999GF105991021021012501061001MA1999999095111MD1110051+9999MW1031
0072874500999991973012718004-32183-064383FM-12+054799999V0200901N00251220001CN0200001N9+03001+01601999999ADDAY111999GF104991031021012501061001MA1999999095061MD1810051+9999MW1011
0072874500999991973012912004-32183-064383FM-12+054799999V0209991C00001220001CN0100001N9+02101+02001999999ADDAY111999GF103991021051012501061001MA1999999095061MD1610131+9999MW1021
0097874500999991973012913004-32183-064383FM-12+054799999V0209991C00001220001CN0100001N9+02301+02001999999ADDAA199000091AY111999GF104991031081012501061001MA1999999095181MD1110121+9999MW1031REMSYN00570021
0105874500999991973013023004-32183-064383FM-12+054799999V0200501N00101220001CN0100001N9+03201+02301999999ADDAY121999GF103991011021017501061001MA1999999094381MD1710602+9999MW1011REMSYN00523709EQDQ01+000602APC3  
0082874500999991973013106004-32183-064383FM-12+054799999V0209991C00001036001CN0150001N9+02101+01901999999ADDAA199000091AY121999GF108991021091012501021061MD1710121+9999MW1131REMSYN005700//
0116874500999991973013112004-32183-064383FM-12+054799999V0202301N00101220001CN0100001N9+02501+02301999999ADDAA199000091AY101999GF102991021001999999061001KA1999N+02401MA1999999094621MD1210031+9999MW1101REMSYN01169462 70024
0086874500999991973013115004-32183-064383FM-12+054799999V0202301N00101036001CN0100001N9+03001+02501999999ADDAY101999GF106991031021017501061001MA1999999094691MD1210071+9999MW1031REMSYN00569469
0116874500999991973020301004-32183-064383FM-12+054799999V0201801N001019999999N0100001N9+02101+02001999999ADDAA199005091AY121999GF106991021031999999061001MA1999999094291MD1710071+9999MW1011REMSYN00570536EQDQ01+000992SCOLCB
0097874500999991973020313004-32183-064383FM-12+054799999V0201801N00101002101CN0040001N9+02101+02001999999ADDAA199006091AY121999GF108991061061002501071999MA1999999094991MD1210361+9999MW1001REMSYN00570  9
0097874500999991973020323004-32183-064383FM-12+054799999V0201401N00671220001CN0100001N9+02301+01701999999ADDAA199000091AY111999GF102991021021012501001001MA1999999095351MD1210081+9999MW1011REMSYN00570026
0097874500999991973020514004-32183-064383FM-12+054799999V0200201N00251220001CN0200001N9+01901+01201999999ADDAA199000091AY111999GF103991001001999999001011MA1999999095461MD1310011+9999MW1021REMSYN00570015
0085874500999991973020616004-32183-064383FM-12+054799999V0203601N00251220001CN0190001N9+02501+01801999999ADDAY111999GF106991001001999999001041MA1999999095091MD1710091+9999EQDQ01+000822PRSWM1
0072874500999991973020816004-32183-064383FM-12+054799999V0200501N00101036001CN0100001N9+03101+02001999999ADDAY121999GF106991021021017501061001MA1999999094371MD1710041+9999MW1031
0081874500999991973020900004-32183-064383FM-12+054799999V0200501N00101012001CN0100001N9+02601+02101999999ADDAA199002091AY121999GF107991061081008001061001KA1999M+03201MD1210151+9999MW1031
0072874500999991973020919004-32183-064383FM-12+054799999V0202301N00411012001CN0100001N9+02101+01401999999ADDAY121999GF108991081061012501999999MA1999999094741MD1710081+9999MW1021
0072874500999991973021021004-32183-064383FM-12+054799999V0201601N00251015001CN0100001N9+02101+01201999999ADDAY111999GF108991081081012501999999MA1999999094671MD1810131+9999MW1031
0072874500999991973021022004-32183-064383FM-12+054799999V0202301N00101220001CN0200001N9+02201+01201999999ADDAY121999GF102991011021012501061001MA1999999094531MD1710151+9999MW1011
0097874500999991973021214004-32183-064383FM-12+054799999V0202301N00251220001CN0100001N9+02101+01601999999ADDAA199000091AY111999GF103991001001999999001021MA1999999094321MD1310231+9999MW1021REMSYN00570018
0072874500999991973021516004-32183-064383FM-12+054799999V0200501N00101220001CN0200001N9+02201+01201999999ADDAY101999GF100991001001999999001001MA1999999095621MD1710081+9999MW1001
0072874500999991973021619004-32183-064383FM-12+054799999V0200501N00101220001CN0700001N9+03001+01201999999ADDAY101999GF100991001001999999001001MA1999999094771MD1710161+9999MW1021
0097874500999991973021913004-32183-064383FM-12+054799999V0209991C00001220001CN0100001N9+01901+01701999999ADDAA199003091AY101999GF100991001001999999001001MA1999999095221MD1010031+9999MW1101REMSYN00570318
0072874500999991973022114004-32183-064383FM-12+054799999V0203201N00101012001CN0100001N9+02001+01701999999ADDAY191999GF107991071061012501001001MA1999999094651MD1310211+9999MW1101
0072874500999991973022309004-32183-064383FM-12+054799999V0201401N00101007501CN0100001N9+01801+01601999999ADDAY161999GF108991081051008001999999MA1999999094431MD1310131+9999MW1101
0096874500999991973022312004-32183-064383FM-12+054799999V0202301N00411036001CN0100001N9+01901+01701999999ADDAA199007091AY121999GF105991031051012501061001KA1999N+01801MA1999999094541MD1110111+9999MW1101
0072874500999991973022320004-32183-064383FM-12+054799999V0201801N00411015001CN0200001N9+02101+01701999999ADDAY121999GF107991071051017501001001MA1999999094581MD1410001+9999MW1021
0072874500999991973022322004-32183-064383FM-12+054799999V0201801N00671015001CN0200001N9+02201+01701999999ADDAY121999GF107991071051017501001001MA1999999094531MD1710051+9999MW1021
0072874500999991973030322004-32183-064383FM-12+054799999V0200701N00671036001CN0100001N9+02601+02001999999ADDAY111999GF106991041081012501061031MA1999999094781MD1710091+9999MW1031
0091874500999991973030714004-32183-064383FM-12+054799999V0200501N00101006001CN0040001N9+01601+01601999999ADDAA199022091AY101999GF108991081081002501999999MA1999999094721MD1210041+9999REMSYN00572216
0072874500999991973030717004-32183-064383FM-12+054799999V0209991C00001002101CN0040001N9+01701+01601999999ADDAY161999GF108991051061002501021999MA1999999094931MD1210161+9999MW1601
0072874500999991973030720004-32183-064383FM-12+054799999V0201401N00101002101CN0040001N9+01701+01701999999ADDAY161999GF108991051061002501021999MA1999999094821MD1710111+9999MW1611
0072874500999991973031014004-32183-064383FM-12+054799999V0200701N00101220001CN0100001N9+01801+01601999999ADDAY101999GF100991001001999999001001MA1999999095251MD1410001+9999MW1021
0072874500999991973031018004-32183-064383FM-12+054799999V0200501N00251220001CN0200001N9+02301+01701999999ADDAY101999GF102991021021012501001001MA1999999095471MD1110051+9999MW1031
0072874500999991973031323004-32183-064383FM-12+054799999V0200501N00251220001CN0100001N9+02801+01701999999ADDAY111999GF103991021021012501061001MA1999999094741MD1710201+9999MW1011
0072874500999991973031417004-32183-064383FM-12+054799999V0200501N00101036001CN0100001N9+02701+02101999999ADDAY121999GF107991021021012501061001MA1999999094791MD1810051+9999MW1031
0072874500999991973031622004-32183-064383FM-12+054799999V0201801N00671220001CN0200001N9+01901+01501999999ADDAY161999GF102991011021012501061001MA1999999094751MD1210091+9999MW1011
0096874500999991973031912004-32183-064383FM-12+054799999V0202301N00251220001CN0200001N9+01701+01401999999ADDAA199000091AY101999GF100991001001999999001001KA1999N+01601MA1999999095331MD1210121+9999MW1021
0072874500999991973031921004-32183-064383FM-12+054799999V0209991C00001220001CN0200001N9+02601+01701999999ADDAY111999GF103991031021012501001001MA1999999095111MD1710131+9999MW1021
0072874500999991973032012004-32183-064383FM-12+054799999V0209991C00001220001CN0100001N9+01801+01701999999ADDAY101999GF101991011041012501001001MA1999999095231MD1210051+9999MW1101
0057874500999991973032016004-32183-064383FM-12+054799999V0209991C00001220001CN0200001N9+02501+01801999999ADDAY101999GF104991031021012501061001MD1810041+9999MW1031
0072874500999991973032020004-32183-064383FM-12+054799999V0200901N00101220001CN0200001N9+02801+01701999999ADDAY101999GF102991021021012501001001MA1999999095051MD1710171+9999MW1021
0072874500999991973032021004-32183-064383FM-12+054799999V0200501N00101220001CN0100001N9+02701+01801999999ADDAY101999GF103991021021012501061001MA1999999094981MD1710071+9999MW1031
0072874500999991973032111004-32183-064383FM-12+054799999V0202301N00251007501CN0100001N9+01601+00201999999ADDAY161999GF108991061051008001999999MA1999999095461MD1010001+9999MW1211
0091874500999991973032112004-32183-064383FM-12+054799999V0202301N00251007501CN0100001N9+01601+01302999999ADDAY161999GF108991061051008001999999MA1999999095461MD1210411+9999MW1211EQDQ01+028623ATOD  
0049874500999991973032115004-32183-064383FM-12+054799999V0203201N004119999999N0100001N9+99999+99999999999ADDGF108991999081012501999999MD1210011+9999MW1141
0072874500999991973032212004-32183-064383FM-12+054799999V0209991C00001220001CN0100001N9+01501+01401999999ADDAY101999GF100991001001999999001001MA1999999095301MD1210091+9999MW1101
0057874500999991973032316004-32183-064383FM-12+054799999V0203201N00251220001CN0500001N9+02801+01101999999ADDAY101999GF100991001001999999001001MD1010001+9999MW1001
0097874500999991973032423004-32183-064383FM-12+054799999V0200501N00251220001CN0100001N9+02601+01901999999ADDAA199000091AY101999GF102991021041012501001001MA1999999094471MD1510001+9999MW1021REMSYN00570030
0097874500999991973032813004-32183-064383FM-12+054799999V0209991C00001220001CN0100001N9+01501+01401999999ADDAA199000091AY101999GF100991001001999999001001MA1999999095131MD1210031+9999MW1101REMSYN00570014
0096874500999991973032912004-32183-064383FM-12+054799999V0200501N00101220001CN0100001N9+01701+01501999999ADDAA199000091AY101999GF100991001001999999001001KA1999N+01601MA1999999094701MD1210051+9999MW1101
0097874500999991973033001004-32183-064383FM-12+054799999V0200901N00251220001CN0100001N9+02301+01901999999ADDAA199000091AY101999GF103991031021012501001001MA1999999094581MD1210051+9999MW1031REMSYN00570028
0072874500999991973033112004-32183-064383FM-12+054799999V0202301N00101012001CN0100001N9+02001+01801999999ADDAY101999GF108991081051012501999999MA1999999095091MD1310031+9999MW1101
0072874500999991973033123004-32183-064383FM-12+054799999V0202301N00671004201CN0040001N9+01601+01401999999ADDAY161999GF108991061071004501021999MA1999999095171MD1410001+9999MW1501
0115874500999991973040212004-32183-064383FM-12+054799999V0209991C00001001201CN9999999N9+01301+01301999999ADDAA199008091AY161999GF108991061071001501021999KA1999N+99999MA1999999095141MD1810081+9999MW1541EQDQ01 +01402ATMN  
0072874500999991973040416004-32183-064383FM-12+054799999V0202701N00101012001CN0100001N9+01701+01201999999ADDAY121999GF108991081051012501999999MA1999999095861MD1210351+9999MW1101
0072874500999991973040512004-32183-064383FM-12+054799999V0201401N00101007501CN0100001N9+01301+00801999999ADDAY161999GF108991081061008001999999MA1999999095691MD1610121+9999MW1211
0096874500999991973040912004-32183-064383FM-12+054799999V0209991C00001220001CN0200001N9+01101+01001999999ADDAA199000091AY101999GF100991001001999999001001KA1999N+01001MA1999999095611MD1210171+9999MW1101
0072874500999991973040918004-32183-064383FM-12+054799999V0200901N00101220001CN0200001N9+99999+99999999999ADDAY101999GF100991001001999999001001MA1999999095391MD1710201+9999MW1021
0097874500999991973040923004-32183-064383FM-12+054799999V0200901N00101220001CN0200001N9+02201+01401999999ADDAA199000091AY101999GF100991001001999999001001MA1999999095221MD1710041+9999MW1021REMSYN00570027
0072874500999991973041013004-32183-064383FM-12+054799999V0209991C00001220001CN0200001N9+01301+00901999999ADDAY101999GF100991001001999999001001MA1999999095231MD1710171+9999MW1001
0097874500999991973041014004-32183-064383FM-12+054799999V0209991C00001220001CN0200001N9+01401+01101999999ADDAA199000091AY101999GF100991001001999999001001MA1999999095291MD1210051+9999MW1101REMSYN00570013
0088874500999991973041214004-32183-064383FM-12+054799999V0209991C00001012001CN0100001N9+01401+01101999999ADDAA199000291AY121999GF107991061051012501061001MD1210071+9999MW1101REMSYN01179571 79213
0072874500999991973041309004-32183-064383FM-12+054799999V0209991C000019999999N0040001N9+01401+01401999999ADDAY151999GF108991999999999999999999MA1999999095461MD1710271+9999MW1021
0096874500999991973041312004-32183-064383FM-12+054799999V0209991C000019999999N0040001N9+99999+99999999999ADDAA199002091AY111999GF108991999999999999999999KA1999N+01401MA1999999095461MD1410001+9999MW1101
0097874500999991973041902004-32183-064383FM-12+054799999V0209991C00001036001CN0100001N9+02001+01501999999ADDAA199000091AY121999GF108991081001999999061999MA1999999095531MD1410001+9999MW1021REMSYN00570023
0096874500999991973042312004-32183-064383FM-12+054799999V0209991C00001000601CN0000501N9+01801+01801999999ADDAA199002091AY151999GF108991081061000751999999KA1999N+01801MA1999999094891MD1110071+9999MW1511
0097874500999991973042423004-32183-064383FM-12+054799999V0201801N00411012001CN0100001N9+02101+01801999999ADDAA199000291AY121999GF107991071051012501001001MA1999999094431MD1210151+9999MW1031REMSYN00579225
0072874500999991973042516004-32183-064383FM-12+054799999V0202301N00671220001CN0200001N9+01601+01201999999ADDAY101999GF100991001001999999001001MA1999999095381MD1210161+9999MW1101
0057874500999991973042618004-32183-064383FM-12+054799999V0200501N00101220001CN0200001N9+02101+01001999999ADDAY101999GF100991001001999999001001MD1010001+9999MW1021
0072874500999991973042622004-32183-064383FM-12+054799999V0200901N00251220001CN0200001N9+02001+01201999999ADDAY101999GF100991001001999999001001MA1999999094981MD1710131+9999MW1021
0097874500999991973042802004-32183-064383FM-12+054799999V0209991C00001012001CN0100001N9+01901+01501999999ADDAA199000091AY121999GF108991081061012501999999MA1999999094821MD1310091+9999MW1031REMSYN00570022
0091874500999991973050211004-32183-064383FM-12+054799999V0201801N00461220001CN0200001N9+00601-00101999999ADDAY101999GF104991021001999999041041MA1999999096231MD1210972+9999MW1031EQDQ01+000972APC3  
0096874500999991973050712004-32183-064383FM-12+054799999V0209991C00001000301CN0005001N9+00901+00901999999ADDAA199000091AY111999GF109991091999999999999999KA1999N+00801MA1999999095701MD1410001+9999MW1471
0072874500999991973050719004-32183-064383FM-12+054799999V0201101N00251220001CN0100001N9+01701+00901999999ADDAY101999GF104991041081012501001001MA1999999095351MD1810321+9999MW1031
0083874500999991973051005004-32183-064383FM-12+054799999V0201401N00411220001CN0200001N9+01401+00301999999ADDAA199000091AY101999GF100991001001999999001001MA1999999095781MD1210251+9999MW1021
0072874500999991973051102004-32183-064383FM-12+054799999V0209991C00001015001CN0100001N9+01101+00501999999ADDAY121999GF105991051081012501001001MA1999999095821MD1610041+9999MW1011
0072874500999991973051221004-32183-064383FM-12+054799999V0200501N00251036001CN0200001N9+01101+00301999999ADDAY121999GF107991051001999999041041MA1999999095911MD1710031+9999MW1021
0096874500999991973051300004-32183-064383FM-12+054799999V0200501N00101090001CN0200001N9+99999+99999999999ADDAA199000091AY121999GF105991021051000751001091KA1999M+01301MA1999999095981MW1011REMSYN00503207
0097874500999991973051523004-32183-064383FM-12+054799999V0209991C00001220001CN0200001N9+01801+00801999999ADDAA199000091AY101999GF106991001001999999001061MA1999999094691MD1210211+9999MW1031REMSYN00570023
0083874500999991973051618004-32183-064383FM-12+054799999V0201401N00251220001CN0100001N9+01701+01101999999ADDAA199000091AY111999GF104991041021017501001001MA1999999095511MD1710201+9999MW1021
0096874500999991973051812004-32183-064383FM-12+054799999V0200901N00101015001CN0040001N9+01201+01101999999ADDAA199000091AY121999GF107991071051017501001001KA1999N+01201MA1999999095351MD1610011+9999MW1101
0083874500999991973051819004-32183-064383FM-12+054799999V0209991C00001015001CN0100001N9+01801+01101999999ADDAA199000091AY121999GF107991071051017501001001MA1999999094981MD1710321+9999MW1021
0072874500999991973052211004-32183-064383FM-12+054799999V0209991C00001220001CN0100001N9+00801+00801999999ADDAY101999GF100991001001999999001001MA1999999095551MD1710071+9999MW1101
0097874500999991973052213004-32183-064383FM-12+054799999V0201401N00101220001CN0100001N9+00801+00701999999ADDAA199000091AY101999GF101991001001999999001011MA1999999095531MD1610031+9999MW1101REMSYN00570007
0072874500999991973052216004-32183-064383FM-12+054799999V0203601N00411036001CN0200001N9+01601+00301999999ADDAY101999GF107991071001999999061001MA1999999095471MD1710051+9999MW1031
0083874500999991973052218004-32183-064383FM-12+054799999V0203601N00411220001CN0200001N9+02101+00501999999ADDAA199000091AY121999GF103991001001999999001041MA1999999095061MD1710411+9999MW1011
0072874500999991973052221004-32183-064383FM-12+054799999V0203601N009219999999N0200001N9+02001+00601999999ADDAY101999GF107991041001999999041999MA1999999094831MD1710231+9999MW1031
0076874500999991973052323004-32183-064383FM-12+054799999V0209991C00001220001CN0000001N9+01501+01001999999ADDAA199000091AY101999GF100991001001999999001001MD1210171+9999REMSYN00570019
0096874500999991973052412004-32183-064383FM-12+054799999V0202301N00101036001CN0100001N9+00801+00701999999ADDAA199000091AY101999GF107991051001999999041011KA1999N+00801MA1999999095651MD1210031+9999MW1101
0097874500999991973052501004-32183-064383FM-12+054799999V0209991C00001220001CN0100001N9+01501+00901999999ADDAA199000091AY101999GF100991001001999999001001MA1999999095221MD1210011+9999MW1021REMSYN00570020
0072874500999991973053109004-32183-064383FM-12+054799999V0209991C00001220001CN0100001N9+00801+00701999999ADDAY101999GF100991001001999999001001MA1999999095471MD1710111+9999MW1101
0072874500999991973053115004-32183-064383FM-12+054799999V0201401N00101220001CN0200001N9+01401+01001999999ADDAY101999GF100991001001999999001001MA1999999095611MD1110071+9999MW1001
0103874500999991973060118004-32183-064383FM-12+054799999V0200901N00101220001CN0040001N9+01701+01401999999ADDAA199000091AY141999GF103991001001999999001041MA1999999095011MD1710251+9999MW1101REMSYN01169501 700//
0086874500999991973060217004-32183-064383FM-12+054799999V0201801N00101220001CN0200001N9+01501+01101999999ADDAY101999GF101991011011012501001001MA1999999095541MD1110161+9999MW1031REMSYN00569554
0086874500999991973060412004-32183-064383FM-12+054799999V0209991C00001000301CN0005001N9+01201+01201999999ADDAY141999GF109991091999999999999999MA1999999094691MD1710091+9999MW1451REMSYN00569469
0135874500999991973060413004-32183-064383FM-12+054799999V0209991C00001000301CN0005001N9+01001+01001999999ADDAA124000091AY141999GF109991091999999999999999KA1999N+01001MA1999999094771MD1310081+9999MW1451REMSYN01169477 70010EQDQ01  00003PRCP99
0103874500999991973060418004-32183-064383FM-12+054799999V0200501N00411012001CN0100001N9+02001+01501999999ADDAA199000091AY141999GF105991051051012501001001MA1999999094571MD1710251+9999MW1101REMSYN01169457 700//
0086874500999991973060715004-32183-064383FM-12+054799999V0202301N00101004201CN0020001N9+01101+01001999999ADDAY151999GF108991081051004501999999MA1999999095061MD1210211+9999MW1501REMSYN00569506
0114874500999991973060719004-32183-064383FM-12+054799999V0202301N00261004201CN0040001N9+01201+01101999999ADDAA106000091AA299000291AY121999GF108991081051004501999999MA1999999094701MD1810361+9999MW1021REMSYN01169470 792//
0128874500999991973060816004-32183-064383FM-12+054799999V0201801N01901072001CN0040001N9+01401+01101999999ADDAY121999GA1071+072009049GF108991999999999999999999MD1610081+9999MW1101REMSYN0466948  87574 80716 56102 98420 6722/ 187.5 9992
0086874500999991973061113004-32183-064383FM-12+054799999V0202301N00101007501CN0100001N9+01001+00801999999ADDAY121999GF108991061051008001001061MA1999999095101MD1210241+9999MW1101REMSYN00569510
0089874500999991973061114004-32183-064383FM-12+054799999V0202301N00101012001CN0100001N9+01101+00801999999ADDAY121999GF108991081051012501999999MA1999999095141MD1210201+9999MW1101REMSYN00869514 35
0086874500999991973061117004-32183-064383FM-12+054799999V0201601N00261021001CN0100001N9+01401+00801999999ADDAY121999GF108991081051022501999999MA1999999095181MD1110041+9999MW1021REMSYN00569518
0086874500999991973061211004-32183-064383FM-12+054799999V0201801N00411220001CN0200001N9+00901+00401999999ADDAY111999GF104991041001999999041001MA1999999095581MD1210201+9999MW1021REMSYN00569558
0116874500999991973061212004-32183-064383FM-12+054799999V0201801N00931220001CN0200001N9+00901+00201999999ADDAA124000091AY111999GF102991021001999999041001KA1999N+00801MA1999999095651MD1210351+9999MW1011REMSYN01169565 70008
0086874500999991973061213004-32183-064383FM-12+054799999V0202301N00931220001CN0200001N9+01001+00301999999ADDAY101999GF101991011001999999051001MA1999999095661MD1210011+9999MW1011REMSYN00569566
0086874500999991973061313004-32183-064383FM-12+054799999V0203201N00101220001CN0100001N9+00501+00201999999ADDAY101999GF100991001001999999001001MA1999999096061MD1810031+9999MW1101REMSYN00569606
0086874500999991973061317004-32183-064383FM-12+054799999V0200501N00261220001CN0100001N9+01501-00201999999ADDAY101999GF100991001001999999001001MA1999999095891MD1710031+9999MW1021REMSYN00569589
0250874500999991973061319004-32183-064383FM-12+054799999V0200501N00101220001CN0100001N9+01601+01502999999ADDAA199000091AY101999GA1031+002109049GA2021+009609009GF199999999001999999001001MA1999999095751MD1410001+9999MW1021REMSYN05969575 85    1318  871   83407 82032 04815 245// 55717 700//EQDQ01+000002SCOTCVQ02+000002SCOTLCQ03+000992SCOLCBQ04+028823ATOD  
0116874500999991973061400004-32183-064383FM-12+054799999V0200501N00261220001CN0100001N9+01001+00301999999ADDAA199000091AY101999GF100991001001999999001001KA1999M+01601MA1999999095751MD1210071+9999MW1021REMSYN01169575 70016
0086874500999991973061415004-32183-064383FM-12+054799999V0200501N00671012001CN0100001N9+00801+00501999999ADDAY101999GF107991071051012501001001MA1999999095411MD1210041+9999MW1101REMSYN00569541
0086874500999991973061516004-32183-064383FM-12+054799999V0203601N00261007501CN9999999N9+01301+01101999999ADDAY121999GF108991081051008001999999MA1999999094451MD1710161+9999MW1101REMSYN00569445
0103874500999991973061618004-32183-064383FM-12+054799999V0202301N00931220001CN0100001N9+01201-00301999999ADDAA199000091AY121999GF102991021011012501001001MA1999999095111MD1710131+9999MW1011REMSYN01169511 700//
0086874500999991973061619004-32183-064383FM-12+054799999V0201801N00931220001CN0100001N9+01301-00701999999ADDAY121999GF101991011011012501001001MA1999999095131MD1710121+9999MW1011REMSYN00569513
0086874500999991973061814004-32183-064383FM-12+054799999V0209991C00001036001CN0500001N9+01101+00201999999ADDAY111999GF106991021051022501071001MA1999999095611MD1210111+9999MW1031REMSYN00569561
0110874500999991973061913004-32183-064383FM-12+054799999V0209991C00001220001CN0200001N9+00701+00501999999ADDAA124000091AY101999GF100991001001999999001001KA1999N+00601MA1999999095111MD1610081+9999MW1021REMSYN00569511
0086874500999991973062113004-32183-064383FM-12+054799999V0209991C00001220001CN0100001N9+00701+00501999999ADDAY101999GF104991001001999999001041MA1999999094411MD1710011+9999MW1101REMSYN00569441
0086874500999991973062115004-32183-064383FM-12+054799999V0209991C00001220001CN0100001N9+01301+00701999999ADDAY101999GF103991001001999999001041MA1999999094391MD1710071+9999MW1011REMSYN00569439
0086874500999991973062117004-32183-064383FM-12+054799999V0201401N00101220001CN0200001N9+02001+00601999999ADDAY101999GF103991001001999999001041MA1999999094261MD1710151+9999MW1021REMSYN00569426
0192874500999991973062118004-32183-064383FM-12+054799999V0201401N00101220001CN0200001N9+02001+00701999999ADDAA199000091AY101999GA1071+011709059GF199999999999999999001041MA1999999094181MD1710211+9999MW1021REMSYN01769418 700// 87  9EQDQ01+000032SCOTCVQ02+000002SCOTLCQ03+000002SCOLCGQ04+000992SCOLCB
0116874500999991973062202004-32183-064383FM-12+054799999V0209991C00001220001CN0200001N9+01301+00901999999ADDAA199000091AY121999GF102991021001999999071001KA1999M+02101MA1999999094551MD1210361+9999MW1011REMSYN01169455 70021
0106874500999991973062218004-32183-064383FM-12+054799999V0209991C00001220001CN0200001N9+01701+00901999999ADDAA199000091AY101999GF104991001001999999001041MA1999999094831MD1710121+9999MW1021REMSYN01469483 700// 74
0086874500999991973062220004-32183-064383FM-12+054799999V0201401N00261220001CN0200001N9+01601+00801999999ADDAY111999GF105991001001999999001041MA1999999094831MD1710011+9999MW1021REMSYN00569483
0086874500999991973062321004-32183-064383FM-12+054799999V0209991C00001001201CN0040001N9+00801+00701999999ADDAY121999GF108991081061001501999999MA1999999095221MD1310011+9999MW1101REMSYN00569522
0089874500999991973062322004-32183-064383FM-12+054799999V0200901N00101001201CN0040001N9+00801+00701999999ADDAY121999GF108991081061001501999999MA1999999095221MD1210031+9999MW1101REMSYN00869522 87
0101874500999991973062323004-32183-064383FM-12+054799999V0200901N00101001201CN0040001N9+00701+00701999999ADDAA199000091AY121999GF108991999061001501041041MD1210121+9999MW1101REMSYN00570012EQDQ01+000082SCOTLC
0152874500999991973062518004-32183-064383FM-12+054799999V0201401N00261220001CN0200001N9+01001+00501999999ADDAY121999GF103991001001999999001061MA1999999094371MD1710171+9999MW1011REMSYN07169437 75    MMXX  2515  11052 80000 96022 13509 0091X 05400 69237 700//
0093874500999991973062613004-32183-064383FM-12+054799999V0202301N00261220001CN0500001N9+00801-00301999999ADDAY101999GF100991001001999999001001MA1999999095861MD1210321+9999MW1021REMSYN01269586 EMBALS
0177874500999991973062615004-32183-064383FM-12+054799999V0202301N00411220001CN0500001N9+01101-00301999999ADDAY101999GA1071+002109009GF199999001001999999001001MD1210111+9999MW1021UA1M099999999REMSYN04745    2612  87007 40000 99030 14355 30942   213EQDQ01+000002SCOTCVQ02+000992SCOLCB
0102874500999991973062616004-32183-064383FM-12+054799999V0202301N00411220001CN0500001N9+01101-00301999999ADDAY101999GF100991001001999999001001MA1999999095851MD1810011+9999MW1021REMSYN02169585 EMBAL SE    CBA
0103874500999991973062618004-32183-064383FM-12+054799999V0202301N00261220001CN0500001N9+01201-00401999999ADDAA199000091AY101999GF100991001001999999001001MA1999999095581MD1810311+9999MW1021REMSYN01169558 700//
0086874500999991973062711004-32183-064383FM-12+054799999V0209991C00001012001CN0100001N9+00501+00101999999ADDAY121999GF108991081051012501999999MA1999999094931MD1210131+9999MW1021REMSYN00569493
0086874500999991973062818004-32183-064383FM-12+054799999V0200501N00261220001CN0100001N9+01601+00201999999ADDAY101999GF100991001001999999001001MA1999999094871MD1710491+9999MW1021REMSYN00569487
0103874500999991973062919004-32183-064383FM-12+054799999V0209991C00001220001CN0100001N9+01801+00301999999ADDAA199000091AY101999GF102991001001999999001011MA1999999094291MD1710371+9999MW1021REMSYN01169429 700//
0086874500999991973063017004-32183-064383FM-12+054799999V0201801N00671220001CN0200001N9+01201-00301999999ADDAY101999GF103991021051008001001011MA1999999095131MD1210201+9999MW1021REMSYN00569513
0097874500999991973063019004-32183-064383FM-12+054799999V0201801N00671220001CN0200001N9+01301-00101999999ADDAA199000091AY101999GF104991021051008001001011MA1999999095141MD1210031+9999MW1031REMSYN00569514
0105874500999991973063021004-32183-064383FM-12+054799999V0201801N00411007501CN0200001N9+01201-00101999999ADDAY121999GF107991999071008001001001MA1999999095291MD1210161+9999MW1021REMSYN00569529EQDQ01+000052SCOTLC
0072874500999991973071221004-32183-064383FM-12+054799999V0201801N00411036001CN0200001N9+01101+00701999999ADDAY121999GF107991071001999999021001MD1210151+9999MW1021REMSYN0061013.3
0125874500999991973072112004-32183-064383FM-12+054799999V0202001N00261002101CN0040001N9+00301+00201999999ADDAA124000091AY121999GF108991081061002501999999KA1999N+00301MA1999999096031MD1210211+9999MW1101REMSYN02069603 70003 EMBAL SE
0086874500999991973080615004-32183-064383FM-12+054799999V0200501N00101220001CN0200001N9+01501-00201999999ADDAY101999GF100991001001999999001001MA1999999095261MD1710171+9999MW1021REMSYN00569526
0086874500999991973081111004-32183-064383FM-12+054799999V0209991C00001036001CN0100001N9+00401+00001999999ADDAY121999GF107991071001999999071001MA1999999096231MD1610011+9999MW1021REMSYN00569  3
0103874500999991973081523004-32183-064383FM-12+054799999V0200901N00411220001CN0200001N9+01701+00901999999ADDAA199000091AY111999GF102991011001999999051041MA1999999095311MD1510031+9999MW1011REMSYN01170022 69531
0103874500999991973081619004-32183-064383FM-12+054799999V0200501N00671220001CN0100001N9+02401+00701999999ADDAA199000091AY111999GF105991001001999999001061MA1999999094551MD1710371+9999MW1031REMSYN011700// 69455
0086874500999991973090721004-32183-064383FM-12+054799999V0200701N00671220001CN0100001N9+01601-00201999999ADDAY101999GF100991001001999999001001MA1999999095741MD1610211+9999MW1051REMSYN00569574
0125874500999991973090812004-32183-064383FM-12+054799999V0209991C00001220001CN0100001N9+00501+00201999999ADDAA124000091AY101999GF100991001001999999001001KA1999N+00401MA1999999095811MD1110041+9999MW1051REMSYN02070004 69581 EMBAL SE
0125874500999991973091112004-32183-064383FM-12+054799999V0209991C00001220001CN0100001N9+01001+00801999999ADDAA124000091AY101999GF100991001001999999001001KA1999N+00801MA1999999094821MD1610011+9999MW1101REMSYN02069482 70008 EMBAL SE
0103874500999991973091318004-32183-064383FM-12+054799999V0200501N00261220001CN0200001N9+01901+00201999999ADDAA199000091AY111999GF106991001001999999001041MA1999999094981MD1710291+9999MW1031REMSYN01169498 700//
0091874500999991973091718004-32183-064383FM-12+054799999V0200501N00101012001CN0100001N9+01001+00701999999ADDAY121999GF108991061051012501021999MA1999999095771MD1710211+9999MW1101REMSYN01069577 700/
0086874500999991973092021004-32183-064383FM-12+054799999V0200501N00261220001CN0200001N9+02101+00501999999ADDAY101999GF102991021011017501001001MA1999999095731MD1710111+9999MW1021REMSYN00569573
0103874500999991973092718004-32183-064383FM-12+054799999V0201401N00261036001CN0200001N9+01401-00201999999ADDAA199000091AY121999GF107991071001999999071001MA1999999096071MD1710201+9999MW1021REMSYN01169607 700//
0103874500999991973092918004-32183-064383FM-12+054799999V0200501N00261220001CN0200001N9+01101+00601999999ADDAA199000091AY101999GF101991011021017501001001MA1999999095631MD1710091+9999MW1021REMSYN01169563 700//
0106874500999991973100221004-32183-064383FM-12+054799999V0200501N00671220001CN0100001N9+02501+01401999999ADDAY111999GF104991021021012501071001MA1999999094451MD1710471+9999MW1051REMSYN02569445 EMBAL SE    CBA   &
0103874500999991973100318004-32183-064383FM-12+054799999V0209991C00001220001CN0100001N9+03101+01601999999ADDAA199000091AY111999GF104991041031012501001001MA1999999094131MD1710291+9999MW1051REMSYN01169413 700//
0086874500999991973100521004-32183-064383FM-12+054799999V0200501N00101015001CN0100001N9+02101+01801999999ADDAY121999GF108991081061017501999999MA1999999094181MD1710121+9999MW1031REMSYN00569418
0085874500999991973100621004-32183-064383FM-12+054799999V0201401N00261220001CN0500001N9+01901+01101999999ADDAY111999GF103991021001999999041041MD1310031+9999MW1021REMSYN019EMBAL SE    CBA   &
0132874500999991973101012004-32183-064383FM-12+054799999V0202301N00411220001CN0200001N9+01301+00201999999ADDAA124003091AY121999GF101991001001999999001011KA1999N+01001MA1999999094651MD1210111+9999MW1011REMSYN02769465 70310 EMBAL SE    CBA
0086874500999991973101821004-32183-064383FM-12+054799999V0200901N00261220001CN0200001N9+02601+01101999999ADDAY111999GF103991031011017501001001MA1999999095141MD1710241+9999MW1011REMSYN00569514
0180874500999991973102100004-32183-064383FM-12+054799999V0200501N00931220001CN0100001N9+03101+01201999999ADDAY101999GF101991011011017501001001MA1999999094351MD1710201+9999MW1051REMSYN09969435 EMBAL SE    C     &     83    2023  87807   802 96026 10204 5EE   49690 02251 67577 70111 GOC
0100874500999991973102221004-32183-064383FM-12+054799999V0202301N01241036001CN0040001N9+01201+00801999999ADDAY121999GF108991041071012501021999MA1999999094871MD1210331+9999MW1611REMSYN01969487 EMBAL SE    C
0086874500999991973102618004-32183-064383FM-12+054799999V0200501N00261220001CN0100001N9+02501+00901999999ADDAY111999GF103991021011012501001011MA1999999094901MD1710371+9999MW1031REMSYN00569490
0106874500999991973103021004-32183-064383FM-12+054799999V0200501N00261220001CN0100001N9+02301+01201999999ADDAY121999GF104991041031017501001001MA1999999094301MD1710091+9999MW1031REMSYN02569430 EMBAL SE    C     &
0086874500999991973103121004-32183-064383FM-12+054799999V0201801N01241036001CN0200001N9+01501+00501999999ADDAY121999GF106991011051012501051001MA1999999095371MD1510001+9999MW1031REMSYN00569537
0086874500999991973110721004-32183-064383FM-12+054799999V0201401N00261015001CN0100001N9+01901+01401999999ADDAY121999GF108991061081012501021999MA1999999094991MD1610091+9999MW1101REMSYN00569499
0086874500999991973110818004-32183-064383FM-12+054799999V0209991C00001007501CN0100001N9+01801+01301999999ADDAY121999GF108991081061008001999999MA1999999095231MD1610121+9999MW1021REMSYN00569523
0121874500999991973110911004-32183-064383FM-12+054799999V0209991C00001002101CN0040001N9+01401+01301999999ADDAY121999GF108991999061002501021999MA1999999095541MD1210091+9999MW1611REMSYN02169554 EMBAL SE    CBAEQDQ01+000082SCOTLC
0090874500999991973110923004-32183-064383FM-12+054799999V0200901N00101004201CN0100001N9+01501+01401999999ADDAY121999GF108991051061004501071999MA1999999095551MD1710071+9999MW1021REMSYN00969555 QTB
0086874500999991973111321004-32183-064383FM-12+054799999V0203201N00101220001CN0100001N9+02101+01301999999ADDAY121999GF103991031051012501001001MA1999999095461MD1710201+9999MW1021REMSYN00569546
0086874500999991973111322004-32183-064383FM-12+054799999V0209991C00001220001CN0100001N9+02101+01401999999ADDAY121999GF103991031051012501001001MA1999999095461MD1710081+9999MW1021REMSYN00569546
0086874500999991973111511004-32183-064383FM-12+054799999V0209991C00001220001CN0200001N9+01801+01401999999ADDAY101999GF102991001001999999001021MA1999999094771MD1510031+9999MW1021REMSYN00569477
0175874500999991973111517004-32183-064383FM-12+054799999V0203601N00411220001CN0200001N9+02701+01101999999ADDAY101999GA1071+015009049GF199999999001999999999001MA1999999094651MD1710131+9999MW1021REMSYN01169465 87450EQDQ01+000002SCOTCVQ02+000002SCOTLCQ03+000992SCOLCBQ04    003SCOMCG
0086874500999991973111621004-32183-064383FM-12+054799999V0201401N00411000601CN0200001N9+02001+00801999999ADDAY121999GF108991081051000751999999MA1999999094991MD1210031+9999MW1021REMSYN00569499
0108874500999991973112011004-32183-064383FM-12+054799999V0209991C00001220001CN0200001N9+01601+01201999999ADDAY101999GF100991001001999999001001MA1999999095181MD1210011+9999MW1021REMSYN02769518 EMBAL SE    DB&&&&CBA
0135874500999991973112312004-32183-064383FM-12+054799999V0201801N00931012001CN0040001N9+01501+01401999999ADDAA124015091AY191999GF108991081091012501999999KA1999N+01401MA1999999094811MD1210672+9999MW1951REMSYN01171514 69481EQDQ01+000672APC3  
0086874500999991973112314004-32183-064383FM-12+054799999V0202701N00411036001CN0200001N9+01601+01401999999ADDAY121999GF108991081001999999071999MA1999999094781MD1010291+9999MW1021REMSYN00569478
0086874500999991973112318004-32183-064383FM-12+054799999V0201401N00411220001CN0200001N9+02101+01001999999ADDAY121999GF102991021051017501001001MA1999999094421MD1510031+9999MW1011REMSYN00569442
0116874500999991973112412004-32183-064383FM-12+054799999V0202301N00671220001CN0200001N9+01501+00101999999ADDAA124001091AY101999GF101991011051017501001001KA1999N+01201MA1999999095491MD1210321+9999MW1021REMSYN01170112 69549
0086874500999991973112615004-32183-064383FM-12+054799999V0201801N00671220001CN0200001N9+02401+00301999999ADDAY101999GF100991001001999999001001MA1999999095231MD1210131+9999MW1021REMSYN00569523
0071874500999991973112713004-32183-064383FM-12+054799999V0209991C00001036001CN0100001N9+01701+01001999999ADDAY121999GF106991061001999999071001MD1110051+9999MW1011REMSYN00559565
0086874500999991973112817004-32183-064383FM-12+054799999V0203601N00671220001CN0200001N9+04101+00801999999ADDAY101999GF101991001001999999001041MA1999999094421MD1710321+9999MW1031REMSYN00569442
0086874500999991973113011004-32183-064383FM-12+054799999V0202301N00411015001CN0200001N9+01901+00701999999ADDAY121999GF107991071051017501001001MA1999999094951MD1210291+9999MW1021REMSYN00569495
0086874500999991973120120004-32183-064383FM-12+054799999V0201401N00411220001CN0200001N9+99999+99999999999ADDAY121999GF103991021031012501001021MA1999999095691MD1710111+9999MW1011REMSYN00569569
0086874500999991973120121004-32183-064383FM-12+054799999V0201401N00411220001CN0200001N9+02401+00901999999ADDAY111999GF103991021031012501001021MA1999999095651MD1710111+9999MW1021REMSYN00569565
0086874500999991973120122004-32183-064383FM-12+054799999V0201401N00261220001CN0200001N9+02201+01201999999ADDAY111999GF104991021051012501001021MA1999999095651MD1710051+9999MW1031REMSYN00569565
0180874500999991973120123004-32183-064383FM-12+054799999V0201401N00261013801CN0200001N9+02201+00801999999ADDAA199000091AY111999GA1071+013809019GA2011+002409089GF199999021051012501001021MA1999999095731MD1310041+9999MW1031REMSYN03769573 70024 87146 81808 97022 11121 9EQDQ01+000052SCOTCV
0102874500999991973120314004-32183-064383FM-12+054799999V0200901N00261220001CN0200001N9+99999+99999999999ADDAY101999GF101991011011008001001001MA1999999094181MD1210081+9999MW1021REMSYN02169418 EMBAL SE    CBA
0086874500999991973120421004-32183-064383FM-12+054799999V0201801N00671220001CN0200001N9+02301+00801999999ADDAY101999GF101991011021012501001001MA1999999094781MD1610051+9999MW1011REMSYN00569478
0086874500999991973120521004-32183-064383FM-12+054799999V0209991C00001220001CN0200001N9+02801+01301999999ADDAY101999GF102991021011017501001001MA1999999094311MD1710321+9999MW1021REMSYN00569431
0086874500999991973120522004-32183-064383FM-12+054799999V0209991C00001220001CN0200001N9+02701+01201999999ADDAY101999GF102991021081017501001001MA1999999094251MD1710211+9999MW1021REMSYN00569425
0103874500999991973120523004-32183-064383FM-12+054799999V0200901N00101220001CN0200001N9+02601+01101999999ADDAA199000091AY101999GF102991021081017501001001MA1999999094251MD1610091+9999MW1021REMSYN01170029 69425
0123874500999991973120823004-32183-064383FM-12+054799999V0200501N00261220001CN0200001N9+02601+01001999999ADDAA199000091AY101999GF100991001001999999001001MA1999999094471MD1710071+9999MW1011REMSYN03169447 70029 EMBAL SE    C     ?
0179874500999991973121121004-32183-064383FM-12+054799999V0200501N00261036001CN0100001N9+02501+01401999999ADDAY121999GF107991071001999999071001MA1999999094951MD1710371+9999MW1051REMSYN09869495 EMBAL SE    C     &     69    1121  87550 01609 98020 14226 00900 08816 N     DE    JULIO BA
0103874500999991973121218004-32183-064383FM-12+054799999V0200501N00671220001CN0100001N9+03201+01601999999ADDAA199000091AY111999GF103991031021017501001001MA1999999094221MD1710311+9999MW1051REMSYN011700// 69422
0071874500999991973121220004-32183-064383FM-12+054799999V0200501N00671220001CN0100001N9+99999+99999094071ADDAY111999GF103991031021017501001001MD1710241+9999MW1051REMSYN00519407
0086874500999991973121221004-32183-064383FM-12+054799999V0200501N00671220001CN0100001N9+03201+01701999999ADDAY111999GF103991031031017501001001MA1999999094061MD1710171+9999MW1051REMSYN00569406
0105874500999991973121222004-32183-064383FM-12+054799999V0200501N00411220001CN0100001N9+03101+01701999999ADDAY101999GF102991021031017501001001MA1999999095052MD1710091+9999MW1051REMSYN00569505EQDQ01+095053APOSP 
0106874500999991973121316004-32183-064383FM-12+054799999V0209991C00001220001CN0200001N9+02301+01601999999ADDAY121999GF104991041021012501001001MA1999999094951MD1810031+9999MW1011REMSYN02569495 EMBALSE     CBA   &
0086874500999991973121420004-32183-064383FM-12+054799999V0203201N00411220001CN0200001N9+01901+01401999999ADDAY121999GF103991011081017501071001MA1999999094781MD1710231+9999MW1011REMSYN00569478
0086874500999991973121421004-32183-064383FM-12+054799999V0203201N00261220001CN0200001N9+02001+01201999999ADDAY121999GF102991021081017501001001MA1999999094671MD1710271+9999MW1011REMSYN00569467
0121874500999991973121511004-32183-064383FM-12+054799999V0201801N00671220001CN0200001N9+01801+00801999999ADDAY101999GF102991999051017501001001MA1999999095101MD1210271+9999MW1021REMSYN02169510 EMBAL SE    CBAEQDQ01+000012SCOTLC
0145874500999991973121512004-32183-064383FM-12+054799999V0201801N00931220001CN0200001N9+02001+00701999999ADDAA124007091AY101999GF101991011051017501001001KA1999N+01201MA1999999095111MD1210261+9999MW1031REMSYN04070712 69511 EMBAL SE    CBA   13    1511
0086874500999991973121513004-32183-064383FM-12+054799999V0201801N00931220001CN0200001N9+02101+00601999999ADDAY101999GF101991011051017501001001MA1999999095191MD1210171+9999MW1021REMSYN00569519
0086874500999991973121515004-32183-064383FM-12+054799999V0201801N00931220001CN0200001N9+02301+00801999999ADDAY101999GF100991001001999999001001MA1999999095031MD1010081+9999MW1021REMSYN00569503
0103874500999991973121518004-32183-064383FM-12+054799999V0201801N00411220001CN0200001N9+02701+00901999999ADDAA199000091AY101999GF101991011011017501001001MA1999999094951MD1710081+9999MW1031REMSYN01169495 700//
0116874500999991973121600004-32183-064383FM-12+054799999V0201401N00101220001CN0200001N9+02601+00801999999ADDAA199000091AY101999GF101991011011017501001001KA1999M+02801MA1999999094181MD1710091+9999MW1021REMSYN01169418 70028
0072874500999991973121817004-32183-064383FM-12+054799999V0209991C00001090001CN9999999N9+02801+01101999999ADDGF108991021021012501001061MA1999999094911MD1710051+9999REMSYN00569491
0086874500999991973121822004-32183-064383FM-12+054799999V0200501N00101090001CN0100001N9+02801+01101999999ADDAY121999GF107991011021012501001061MA1999999094771MD1710091+9999MW1051REMSYN00569477
0086874500999991973122019004-32183-064383FM-12+054799999V0200501N00671220001CN0200001N9+03301+01301999999ADDAY101999GF103991031011017501001001MA1999999094571MD1710271+9999MW1021REMSYN00569457
0086874500999991973122221004-32183-064383FM-12+054799999V0201501N00101220001CN0100001N9+02701+01501999999ADDAY121999GF103991011011012501001021MA1999999094711MD1610131+9999MW1051REMSYN00569471
0102874500999991973122222004-32183-064383FM-12+054799999V0201401N00261090001CN0100001N9+02701+01501999999ADDAY111999GF105991021011012501001021MA1999999094791MD1710161+9999MW1051REMSYN02169479 EMBALSE     CBA
0086874500999991973122621004-32183-064383FM-12+054799999V0209991C00001220001CN0200001N9+02501+01001999999ADDAY111999GF105991011021017501001061MA1999999094931MD1710051+9999MW1021REMSYN00569493
0102874500999991973122918004-32183-064383FM-12+054799999V0209991C00001220001CN0200001N9+03001+01501999999ADDAY101999GF102991021011017501001001MA1999999094871MD1710131+9999MW1021REMSYN02169487 EMBALSE     CBA
