0071874670999991973010100004-32683-062150FM-12+0110SAMJ V0209991C00001220001CN0200001N9+02401+01101100641ADDAY121999GF105991001001999999001061MD1310071+9999MW1011REMSYN00510070
0071874670999991973010102004-32683-062150FM-12+0110SAMJ V0200701N00301220001CN0200001N9+02201+02001100721ADDAY101999GF100991001001999999001001MD1110071+9999MW1021REMSYN00510077
0071874670999991973010103004-32683-062150FM-12+0110SAMJ V0200701N00201220001CN0300001N9+02101+02001100691ADDAY101999GF100991001001999999001001MD1110031+9999MW1021REMSYN00510074
0071874670999991973010104004-32683-062150FM-12+0110SAMJ V0209991C00001220001CN0200001N9+02001+01901100811ADDAY101999GF100991001001999999001001MD1310031+9999MW1021REMSYN00510085
0071874670999991973010105004-32683-062150FM-12+0110SAMJ V0209991C00001220001CN0200001N9+02001+01901100801ADDAY101999GF100991001001999999001001MD1310031+9999MW1021REMSYN00510084
0082874670999991973010106004-32683-062150FM-12+0110SAMJ V0200501N00361220001CN0200001N9+02001+01901100771ADDAA199000091AY101999GF105991001001999999001061MD1410001+9999MW1031REMSYN00510080
0071874670999991973010110004-32683-062150FM-12+0110SAMJ V0203601N00301220001CN0200001N9+01901+01701100741ADDAY121999GF106991001001999999001061MD1410001+9999MW1031REMSYN00510078
0095874670999991973010112004-32683-062150FM-12+0110SAMJ V0209991C00001220001CN0200001N9+02401+02001100921ADDAA199000591AY121999GF102991021001999999021001KA1999N+01901MD1310111+9999MW1011REMSYN00510**8
0071874670999991973010113004-32683-062150FM-12+0110SAMJ V0209991C00001220001CN0200001N9+02601+01901100931ADDAY101999GF103991001001999999001021MD1210231+9999MW1011REMSYN00510191
0071874670999991973010114004-32683-062150FM-12+0110SAMJ V0203201N00201220001CN0200001N9+02901+01901100931ADDAY101999GF101991001001999999001021MD1210191+9999MW1021REMSYN00510101
0071874670999991973010115004-32683-062150FM-12+0110SAMJ V0203601N00251220001CN0200001N9+03101+01801100921ADDAY101999GF101991001001999999001061MD1110101+9999MW1021REMSYN00510101
0071874670999991973010116004-32683-062150FM-12+0110SAMJ V0203601N00411220001CN0200001N9+03201+01801100921ADDAY101999GF101991001001999999001021MD1110041+9999MW1021REMSYN00510101
0071874670999991973010117004-32683-062150FM-12+0110SAMJ V0203601N00101220001CN0200001N9+03301+02001100881ADDAY101999GF104991001001999999001061MD1810011+9999MW1031REMSYN00510097
0082874670999991973010118004-32683-062150FM-12+0110SAMJ V0209991C00001090001CN0200001N9+03401+01901100841ADDAA199000091AY101999GF105991021011012501001021MD1710081+9999MW1031REMSYN0051009*
0087874670999991973010119004-32683-062150FM-12+0110SAMJ V0200701N00251090001CN0200001N9+03401+01701100781ADDAY111999GA1021+010209089GF105991021011012501001021MD1710131+9999MW1021REMSYN00510088
0087874670999991973010120004-32683-062150FM-12+0110SAMJ V0209991C00001090001CN0200001N9+03501+01801100471ADDAY121999GA1021+010209089GF105991021011012501001021MD1710131+9999MW1021REMSYN00510084
0144874670999991973010121004-32683-062150FM-12+0110SAMJ V0202001N00201220001CN0200001N9+02302+01401100691ADDAY121999GA1011+010209059GF103991999061999999031031MD1610021+9999MW1011REMSYN01120713 10078EQDQ01+000002SCOTLCQ02+000992SCOLCBQ03+029623ATOT  
0089874670999991973010123004-32683-062150FM-12+0110SAMJ V0201101N00361220001CN0200001N9+03101+02201100661ADDAA199000091AY101999GF100991001001999999001001MD1610081+9999MW1011REMSYN01270035 1007.6
0071874670999991973010200004-32683-062150FM-12+0110SAMJ V0201101N00251220001CN0200001N9+02701+02301100731ADDAY121999GF100991001001999999001001MD1610031+9999MW1021REMSYN00510081
0071874670999991973010201004-32683-062150FM-12+0110SAMJ V0201401N00301220001CN0200001N9+02401+02201100781ADDAY101999GF100991001001999999001001MD1310071+9999MW1021REMSYN00510084
0071874670999991973010202004-32683-062150FM-12+0110SAMJ V0201101N00511220001CN0200001N9+02401+02101100851ADDAY101999GF100991001001999999001001MD1210091+9999MW1021REMSYN00510090
0071874670999991973010203004-32683-062150FM-12+0110SAMJ V0200901N00611220001CN0200001N9+02401+02001100851ADDAY101999GF100991001001999999001001MD1110111+9999MW1021REMSYN00510092
0071874670999991973010204004-32683-062150FM-12+0110SAMJ V0200701N00511220001CN0200001N9+02401+01901100891ADDAY101999GF100991001001999999001001MD1110041+9999MW1021REMSYN00510094
0071874670999991973010205004-32683-062150FM-12+0110SAMJ V0200701N00411220001CN0200001N9+02301+01901100891ADDAY101999GF100991001001999999001001MD1310011+9999MW1021REMSYN00510094
0068874670999991973010206004-32683-062150FM-12+0110SAMJ V0200201N00461220001CN0200001N9+02101+01901100841ADDAA199000091AY101999GF100991001001999999001001MD1810031+9999MW1021
0071874670999991973010207004-32683-062150FM-12+0110SAMJ V0200201N00361220001CN0200001N9+02001+01901100801ADDAY101999GF100991001001999999001001MD1810081+9999MW1021REMSYN00510084
0071874670999991973010208004-32683-062150FM-12+0110SAMJ V0203401N00251220001CN0200001N9+02001+01801100841ADDAY101999GF100991001001999999001001MD1710081+9999MW1021REMSYN00510088
0071874670999991973010210004-32683-062150FM-12+0110SAMJ V0203601N00411220001CN0200001N9+02001+01701100901ADDAY101999GF102991001001999999001021MD1310031+9999MW1021REMSYN00510094
0071874670999991973010211004-32683-062150FM-12+0110SAMJ V0203401N00201220001CN0200001N9+02401+01901101001ADDAY101999GF100991001001999999001001MD1310071+9999MW1011REMSYN00510105
0095874670999991973010212004-32683-062150FM-12+0110SAMJ V0203201N00361220001CN0200001N9+02601+01901101011ADDAA199000091AY101999GF100991001001999999001001KA1999N+01901MD1210091+9999MW1021REMSYN00510108
0071874670999991973010214004-32683-062150FM-12+0110SAMJ V0202001N00511220001CN0200001N9+03101+02101101051ADDAY101999GF100991001001999999001001MD1210271+9999MW1021REMSYN00510114
0071874670999991973010215004-32683-062150FM-12+0110SAMJ V0201601N00721220001CN0200001N9+03001+02201101091ADDAY101999GF100991001001999999001001MD1110241+9999MW1021REMSYN00510088
0077874670999991973010216004-32683-062150FM-12+0110SAMJ V0201401N00511220001CN0200001N9+03101+02101101051ADDAY101999GF101991011011012501001001MD1010331+9999MW1031REMSYN01121107 10114
0043874670999991973010218004-32683-062150FM-12+0110SAMJ V0200901N00671220001CN0200001N9+99999+99999101261ADDAY101999GF101991999999999999999999MW1021
0103874670999991973010219004-32683-062150FM-12+0110SAMJ V0201101N00721060001CN0200001N9+03401+02101100881ADDAY111999GA1011+010209089GA2051+060009029GF106991011021012501001061MD1810131+9999MW1031REMSYN00510097
0103874670999991973010220004-32683-062150FM-12+0110SAMJ V0201101N00461036001CN0200001N9+03301+02201100811ADDAY111999GA1011+010209089GA2031+030009049GF107991011021012501011061MD1810201+9999MW1031REMSYN00510090
0089874670999991973010221004-32683-062150FM-12+0110SAMJ V0209999999999036001CN0200001N9+03201+02401100761ADDAY121999GA1011+010209089GA2031+030009049GF107991011021012501011061MD1610191+9999MW1021
0071874670999991973010222004-32683-062150FM-12+0110SAMJ V0201101N00411036001CN0200001N9+03101+02401100771ADDAY121999GF106991061001999999021001MD1610131+9999MW1011REMSYN00510086
0088874670999991973010223004-32683-062150FM-12+0110SAMJ V0201101N00511036001CN0200001N9+02901+02301100801ADDAA199000091AY121999GF107991071001999999021001MD1610041+9999MW1031REMSYN01170034 10088
0092874670999991973010300004-32683-062150FM-12+0110SAMJ V0200901N00301014401CN0200001N9+02701+02101100861ADDAY121999GA1071+014409049GF107991071001999999021001MD1310051+9999MW1031EQDQ01+000992SCOLCB
0103874670999991973010301004-32683-062150FM-12+0110SAMJ V0200901N00511010201CN0150001N9+02701+02201100891ADDAY121999GA1061+010209099GA2021+030009049GF108991061091012501021999MD1110071+9999MW1171REMSYN00510096
0072874670999991973010302004-32683-062150FM-12+0110SAMJ V0202501N01901012001CN0060001N9+02101+02101101421ADDAY191999GF108991081091012501999999MD1310521+9999MW1951REMSYN0061014.7
0095874670999991973010303004-32683-062150FM-12+0110SAMJ V0202701N00821012001CN0200001N9+02101+01901101441ADDGA1041+010209099GA2041+012009049GF108991999999999999999999MD1310451+9999MW1131REMSYN00510147
0103874670999991973010304004-32683-062150FM-12+0110SAMJ V0201401N00671012001CN0100001N9+02101+01901101241ADDAY191999GA1031+010209099GA2051+012009049GF108991999999999999999999MD1010321+9999MW1601REMSYN00510129
0103874670999991973010305004-32683-062150FM-12+0110SAMJ V0201401N00461012001CN0100001N9+02101+01901101241ADDAY121999GA1031+010209099GA2051+012009049GF108991999999999999999999MD1810201+9999MW1601REMSYN00510129
0082874670999991973010306004-32683-062150FM-12+0110SAMJ V0200901N00511220001CN0200001N9+02101+02001101121ADDAA199017091AY191999GF103991031091012501001001MD1810321+9999MW1131REMSYN00510117
0103874670999991973010307004-32683-062150FM-12+0110SAMJ V0200501N00461012001CN0200001N9+02101+02001101081ADDAY161999GA1031+010209059GA2031+012009099GF106991061091012501001001MD1610211+9999MW1131REMSYN00510113
0071874670999991973010308004-32683-062150FM-12+0110SAMJ V0203601N00301220001CN0200001N9+02101+02001101201ADDAY111999GF102991021091012501001001MD1510081+9999MW1131REMSYN00510125
0087874670999991973010309004-32683-062150FM-12+0110SAMJ V0209991C00001036001CN0200001N9+02101+02001101221ADDAY111999GA1011+010209099GF107991011091012501071061MD1310011+9999MW1021REMSYN00510126
0103874670999991973010310004-32683-062150FM-12+0110SAMJ V0209991C00001036001CN0200001N9+02101+02001101281ADDAY111999GA1011+010209099GA2031+015009039GF108991011091012501071021MD1110091+9999MW1031REMSYN00510134
0076874670999991973010312004-32683-062150FM-12+0110SAMJ V0200901N001519999999N0200001N9+02401+01201101371ADDAY111999GF106991001001999999001071MD1310121+9999MW1021EQDQ01+000062SCOTLC
0071874670999991973010313004-32683-062150FM-12+0110SAMJ V0200901N00721220001CN0200001N9+02601+02102101261ADDAY111999GF101991011001999999061001MD1110201+9999MW1011REMSYN00510134
0090874670999991973010314004-32683-062150FM-12+0110SAMJ V0200901N00821220001CN0200001N9+02701+02101101171ADDAY111999GF102991999001999999051001MD1810061+9999MW1021REMSYN00510125EQDQ01+000012SCOTLC
0071874670999991973010315004-32683-062150FM-12+0110SAMJ V0200501N00461220001CN0200001N9+02801+02201101201ADDAY101999GF104991041011012501001001MD1010041+9999MW1031REMSYN00510129
0071874670999991973010316004-32683-062150FM-12+0110SAMJ V0200501N00671012001CN0200001N9+02901+02101101171ADDAY111999GF105991051011012501001001MD1610091+9999MW1031REMSYN00510125
0057874670999991973010318004-32683-062150FM-12+0110SAMJ V0200201N00511220001CN0200001N9+03001+02101101001ADDAY111999GF104991041011012501001001MD1710131+9999MW1021
0103874670999991973010319004-32683-062150FM-12+0110SAMJ V0200201N00411220001CN0200001N9+03001+02001100881ADDAY111999GA1021+010209059GA2021+012009089GF104991041021012501001001MD1710231+9999MW1021REMSYN00510097
0077874670999991973010320004-32683-062150FM-12+0110SAMJ V0200201N00561220001CN0002001N9+99999+99999999999ADDAY111999GF103991021021017501021051MD1810401+9999MW1831REMSYN0111009* 2****
0087874670999991973010322004-32683-062150FM-12+0110SAMJ V0200201N00461220001CN0200001N9+03001+02001100741ADDAY101999GA1011+012009089GF101991011021012501001001MD1710211+9999MW1011REMSYN00510082
0088874670999991973010323004-32683-062150FM-12+0110SAMJ V0200201N00301220001CN0200001N9+02901+02101100741ADDAA199000091AY101999GF100991001001999999001001MD1710131+9999MW1011REMSYN01170031 10082
0057874670999991973010400004-32683-062150FM-12+0110SAMJ V0200201N00361220001CN0200001N9+02501+02201100731ADDAY111999GF100991001001999999001001MD1710091+9999MW1021
0071874670999991973010401004-32683-062150FM-12+0110SAMJ V0200201N00461220001CN0200001N9+02401+02101100731ADDAY101999GF100991001001999999001001MD1710051+9999MW1021REMSYN00510080
0071874670999991973010403004-32683-062150FM-12+0110SAMJ V0200201N00361220001CN0200001N9+02201+02101100731ADDAY101999GF100991001001999999001001MD1610011+9999MW1021REMSYN00510078
0071874670999991973010404004-32683-062150FM-12+0110SAMJ V0203601N00511220001CN0200001N9+02201+02001100721ADDAY101999GF100991001001999999001001MD1410001+9999MW1021REMSYN00510077
0071874670999991973010405004-32683-062150FM-12+0110SAMJ V0203601N00461220001CN0200001N9+02101+01202100661ADDAY101999GF100991001001999999001001MD1810091+9999MW1021REMSYN00510072
0071874670999991973010407004-32683-062150FM-12+0110SAMJ V0203601N00561220001CN0200001N9+02001+02001100581ADDAY101999GF100991001001999999001001MD1710161+9999MW1021REMSYN00510062
0057874670999991973010408004-32683-062150FM-12+0110SAMJ V0203401N00301220001CN0200001N9+02001+02001100561ADDAY101999GF100991001001999999001001MW1021REMSYN00510060
0071874670999991973010409004-32683-062150FM-12+0110SAMJ V0203401N00411220001CN0200001N9+02001+01901100531ADDAY101999GF100991001001999999001001MD1610151+9999MW1021REMSYN00510057
0071874670999991973010411004-32683-062150FM-12+0110SAMJ V0203201N00511220001CN0200001N9+02201+02001100561ADDAY101999GF100991001001999999001001MD1810031+9999MW1021REMSYN00510031
0095874670999991973010412004-32683-062150FM-12+0110SAMJ V0203201N00821220001CN0200001N9+02401+02001100531ADDAA199000091AY101999GF100991001001999999001001KA1999N+02001MD1310011+9999MW1021REMSYN00510066
0071874670999991973010414004-32683-062150FM-12+0110SAMJ V0203401N00821220001CN0200001N9+02801+02001100421ADDAY101999GF100991001001999999001001MD1410001+9999MW1021REMSYN00510050
0071874670999991973010415004-32683-062150FM-12+0110SAMJ V0203201N00971220001CN0200001N9+02901+01801100401ADDAY101999GF100991001001999999001001MD1410001+9999MW1021REMSYN00510048
0071874670999991973010416004-32683-062150FM-12+0110SAMJ V0203201N00721220001CN0200001N9+02901+01901100361ADDAY101999GF100991001001999999001001MD1810081+9999MW1021REMSYN00510044
0071874670999991973010417004-32683-062150FM-12+0110SAMJ V0202901N00361220001CN0200001N9+03001+01901100321ADDAY101999GF100991001001999999001001MD1710091+9999MW1021REMSYN00510041
0057874670999991973010418004-32683-062150FM-12+0110SAMJ V0202901N00461220001CN0200001N9+03101+01901100221ADDAY101999GF100991001001999999001001MD1710121+9999MW1021
0071874670999991973010420004-32683-062150FM-12+0110SAMJ V0203201N00201220001CN0200001N9+03201+01901100021ADDAY101999GF100991001001999999001001MD1710171+9999MW1021REMSYN00510011
0071874670999991973010421004-32683-062150FM-12+0110SAMJ V0202901N00201220001CN0200001N9+03201+01801099971ADDAY101999GF100991001001999999001001MD1710271+9999MW1021REMSYN00510005
0071874670999991973010422004-32683-062150FM-12+0110SAMJ V0203201N00101220001CN0200001N9+03101+01901099901ADDAY101999GF100991001001999999001001MD1710331+9999MW1021REMSYN00510000
0088874670999991973010423004-32683-062150FM-12+0110SAMJ V0203601N00251220001CN0200001N9+03001+01901099901ADDAA199000091AY101999GF100991001001999999001001MD1610311+9999MW1021REMSYN01170033 10000
0071874670999991973010500004-32683-062150FM-12+0110SAMJ V0203601N00251220001CN0200001N9+02701+01901099921ADDAY101999GF100991001001999999001001MD1610021+9999MW1021REMSYN005999*8
0071874670999991973010502004-32683-062150FM-12+0110SAMJ V0203601N00151220001CN0200001N9+02501+01701100021ADDAY101999GF100991001001999999001001MD1210121+9999MW1021REMSYN00510008
0090874670999991973010503004-32683-062150FM-12+0110SAMJ V0203401N00611220001CN0200001N9+02401+99999100021ADDAY101999GF100991001001999999001001MD1110131+9999MW1021REMSYN00510007EQDQ01+027723ATOD  
0071874670999991973010505004-32683-062150FM-12+0110SAMJ V0203201N00411220001CN0200001N9+02201+01901099971ADDAY101999GF101991011091022501001001MD1810071+9999MW1131REMSYN00510001
0082874670999991973010506004-32683-062150FM-12+0110SAMJ V0203401N00611220001CN0200001N9+02201+01901099851ADDAA199000091AY101999GF101991011091022501001001MD1710121+9999MW1131REMSYN005999*4
0071874670999991973010507004-32683-062150FM-12+0110SAMJ V0203201N00201220001CN0200001N9+02201+01901099891ADDAY101999GF101991011091022501001001MD1610161+9999MW1131REMSYN005999*4
0071874670999991973010508004-32683-062150FM-12+0110SAMJ V0203401N00411220001CN0200001N9+02101+02001099901ADDAY101999GF101991011091022501001001MD1610091+9999MW1131REMSYN005992*4
0057874670999991973010509004-32683-062150FM-12+0110SAMJ V0202301N00251220001CN0200001N9+02101+02001099961ADDAY101999GF100991001001999999001001MD1610031+9999MW1011
0090874670999991973010510004-32683-062150FM-12+0110SAMJ V0203201N00251220001CN0200001N9+02101+02001100021ADDAY101999GF100991001001999999001001MD1310091+9999MW1031REMSYN00510007EQDQ01+000012SCOTCV
0071874670999991973010511004-32683-062150FM-12+0110SAMJ V0202901N00611220001CN0200001N9+02301+02001100091ADDAY101999GF100991001001999999001001MD1210201+9999MW1011REMSYN00510013
0095874670999991973010512004-32683-062150FM-12+0110SAMJ V0202501N00771220001CN0200001N9+02501+02001100201ADDAA199000091AY101999GF100991001001999999001001KA1999N+02001MD1210241+9999MW1021REMSYN00510025
0071874670999991973010513004-32683-062150FM-12+0110SAMJ V0201801N01131220001CN0100001N9+02601+01801100261ADDAY101999GF100991001001999999001001MD1210401+9999MW1061REMSYN00510032
0071874670999991973010514004-32683-062150FM-12+0110SAMJ V0201401N01281220001CN0120001N9+02701+01101100361ADDAY101999GF100991001001999999001001MD1210171+9999MW1061REMSYN00510044
0071874670999991973010515004-32683-062150FM-12+0110SAMJ V0201601N01281220001CN0120001N9+02801+01001100401ADDAY101999GF100991001001999999001001MD1210351+9999MW1061REMSYN00510048
0071874670999991973010516004-32683-062150FM-12+0110SAMJ V0201601N01031220001CN0120001N9+02901+01101100441ADDAY101999GF100991001001999999001001MD1210161+9999MW1051REMSYN00510052
0071874670999991973010517004-32683-062150FM-12+0110SAMJ V0201601N00771220001CN0120001N9+02901+00901100441ADDAY101999GF100991001001999999001001MD1110151+9999MW1051REMSYN00510052
0117874670999991973010518004-32683-062150FM-12+0110SAMJ V0201601N00771220001CN0120001N9+02901+00801100451ADDAA199000091AY101999GF100991001001999999001001MD1210051+9999MW1051REMSYN00510053EQDQ01+000042APCTENQ02+000052APC3  
0071874670999991973010519004-32683-062150FM-12+0110SAMJ V0202001N00871220001CN0220001N9+02901+00801100451ADDAY101999GF100991001001999999001001MD1410001+9999MW1051REMSYN00510053
0071874670999991973010520004-32683-062150FM-12+0110SAMJ V0201801N00561220001CN0150001N9+02901+00901100451ADDAY101999GF100991001001999999001001MD1410001+9999MW1051REMSYN00510053
0071874670999991973010521004-32683-062150FM-12+0110SAMJ V0201401N00871220001CN0150001N9+02901+01001100461ADDAY101999GF100991001001999999001001MD1410001+9999MW1051REMSYN00510054
0071874670999991973010522004-32683-062150FM-12+0110SAMJ V0201401N00511220001CN0200001N9+02801+01001100461ADDAY101999GF100991001001999999001001MD1410001+9999MW1021REMSYN00510054
0071874670999991973010600004-32683-062150FM-12+0110SAMJ V0201601N00511220001CN0200001N9+02201+01301100641ADDAY101999GF100991001001999999001001MD1310091+9999MW1021REMSYN00510069
0071874670999991973010601004-32683-062150FM-12+0110SAMJ V0201601N00251220001CN0200001N9+02001+01301100731ADDAY101999GF100991001001999999001001MD1210161+9999MW1021REMSYN00510077
0071874670999991973010602004-32683-062150FM-12+0110SAMJ V0201601N00151220001CN0200001N9+01901+01401100821ADDAY101999GF100991001001999999001001MD1210251+9999MW1021REMSYN00510091
0071874670999991973010603004-32683-062150FM-12+0110SAMJ V0201601N00251220001CN0200001N9+01701+01301100961ADDAY101999GF100991001001999999001001MD1210271+9999MW1021REMSYN00510098
0071874670999991973010604004-32683-062150FM-12+0110SAMJ V0209991C00001220001CN0200001N9+01701+01301100961ADDAY101999GF100991001001999999001001MD1210211+9999MW1021REMSYN00510099
0082874670999991973010606004-32683-062150FM-12+0110SAMJ V0201401N00251220001CN0200001N9+01501+00901101051ADDAA199000091AY101999GF100991001001999999001001MD1210041+9999MW1021REMSYN00510106
0071874670999991973010607004-32683-062150FM-12+0110SAMJ V0201401N00251220001CN0200001N9+01401+00901101081ADDAY101999GF100991001001999999001001MD1210131+9999MW1021REMSYN00510109
0071874670999991973010608004-32683-062150FM-12+0110SAMJ V0201401N00151220001CN0200001N9+01401+00901101081ADDAY101999GF100991001001999999001001MD1210131+9999MW1021REMSYN00510109
0071874670999991973010609004-32683-062150FM-12+0110SAMJ V0200901N00511220001CN0200001N9+01401+01001101051ADDAY101999GF101991011051012501001001MD1010111+9999MW1031REMSYN00510106
0090874670999991973010610004-32683-062150FM-12+0110SAMJ V0200901N00511220001CN0200001N9+01501+01001101041ADDAY101999GF101991011051012501001001MD1610041+9999MW1021REMSYN00510105EQDQ01+000002APC3  
0106874670999991973010611004-32683-062150FM-12+0110SAMJ V0200701N00511220001CN0200001N9+01801+01201101041ADDAY101999GF101991011001999999061001MD1710041+9999MW1021REMSYN00510103EQDQ01+000042APCTENQ02+000012APC3  
0095874670999991973010612004-32683-062150FM-12+0110SAMJ V0200701N00771220001CN0200001N9+02001+01401101021ADDAA199000091AY101999GF101991011011012501001001KA1999N+01401MD1410001+9999MW1021REMSYN00510106
0071874670999991973010613004-32683-062150FM-12+0110SAMJ V0200501N00821220001CN0200001N9+02301+01401100941ADDAY101999GF100991001001999999001001MD1310011+9999MW1011REMSYN00510100
0071874670999991973010614004-32683-062150FM-12+0110SAMJ V0200201N00611220001CN0200001N9+02501+01401100931ADDAY101999GF101991011001999999061001MD1110011+9999MW1021REMSYN00510100
0082874670999991973010615004-32683-062150FM-12+0110SAMJ V0209991C00001220001CN0250001N9+02901+01001999999ADDAY101999GF101991999081000751021061MW1021REMSYN01114808 10086EQDQ01+000002SCOTLC
0082874670999991973010616004-32683-062150FM-12+0110SAMJ V0200501N00771220001CN0200001N9+03301+99999100721ADDAY101999GF100991999999999999999999MW1011REMSYN01114717 10080EQDQ01+027323ATOD  
0068874670999991973010618004-32683-062150FM-12+0110SAMJ V0200501N01181220001CN0200001N9+03301+01401100541ADDAA199000091AY101999GF103991031001999999061001MD1710241+9999MW1021
0071874670999991973010620004-32683-062150FM-12+0110SAMJ V0200201N00821220001CN0200001N9+03001+01101100281ADDAY111999GF104991041001999999061001MD1710361+9999MW1011REMSYN00510037
0087874670999991973010621004-32683-062150FM-12+0110SAMJ V0200501N00971220001CN0200001N9+03001+01201100161ADDAY101999GA1011+009909089GF103991011021012501061001MD1710401+9999MW1011REMSYN00510024
0106874670999991973010622004-32683-062150FM-12+0110SAMJ V0200501N00511220001CN9999999N9+03001+01201100011ADDAY121999GA1011+010209089GF103991011021012501061001MD1710331+9999MW1001REMSYN00510009EQDQ01+007002VODIS 
0088874670999991973010623004-32683-062150FM-12+0110SAMJ V0200201N00461220001CN0200001N9+02901+01301100021ADDAA199000091AY111999GF101991011021012501001001MD1610251+9999MW1011REMSYN01170031 10009
0071874670999991973010700004-32683-062150FM-12+0110SAMJ V0200501N00671220001CN0200001N9+02601+01401100061ADDAY101999GF101991011021012501001001MD1610131+9999MW1021REMSYN00510012
0082874670999991973010701004-32683-062150FM-12+0110SAMJ V0200501N00511220001CN0200001N9+02401+01501100091ADDAA199010091AY101999GF100991001001999999001001MD1010001+9999MW1011REMSYN00571001
0071874670999991973010702004-32683-062150FM-12+0110SAMJ V0200501N00721220001CN0200001N9+02401+01601100121ADDAY101999GF101991011091012501001001MD1610011+9999MW1131REMSYN00510016
0071874670999991973010703004-32683-062150FM-12+0110SAMJ V0200501N00461220001CN0200001N9+02301+01701100091ADDAY101999GF101991011091012501001001MD1410001+9999MW1131REMSYN00510013
0071874670999991973010704004-32683-062150FM-12+0110SAMJ V0200501N00671220001CN0200001N9+02301+01701100061ADDAY101999GF101991011091012501001001MD1410001+9999MW1131REMSYN00510011
0071874670999991973010705004-32683-062150FM-12+0110SAMJ V0200501N00511220001CN0200001N9+02101+01801100091ADDAY101999GF102991021091012501001001MD1410001+9999MW1131REMSYN00510013
0082874670999991973010706004-32683-062150FM-12+0110SAMJ V0203601N00721220001CN0200001N9+02301+02101099931ADDAA199000091AY101999GF101991011091012501001001MD1810131+9999MW1131REMSYN005999*8
0071874670999991973010707004-32683-062150FM-12+0110SAMJ V0203201N00101220001CN0200001N9+02301+02101099861ADDAY101999GF101991011091012501001001MD1810211+9999MW1131REMSYN005999*2
0071874670999991973010708004-32683-062150FM-12+0110SAMJ V0203201N00511220001CN0200001N9+02301+02101099901ADDAY101999GF101991011091012501001001MD1610241+9999MW1131REMSYN005999*6
0071874670999991973010709004-32683-062150FM-12+0110SAMJ V0202301N01031220001CN0200001N9+02301+02001100171ADDAY101999GF100991001001999999001001MD1310131+9999MW1011REMSYN00510021
0090874670999991973010710004-32683-062150FM-12+0110SAMJ V0202301N00821220001CN0200001N9+02301+00802100211ADDAY101999GF100991001001999999001001MD1310211+9999MW1021REMSYN00510025EQDQ01+028123ATOD  
0071874670999991973010711004-32683-062150FM-12+0110SAMJ V0201801N01541220001CN0080001N9+02201+00002100531ADDAY101999GF100991001001999999001001MD1310511+9999MW1071REMSYN00510058
0095874670999991973010712004-32683-062150FM-12+0110SAMJ V0201801N01231220001CN0090001N9+02301+00201100641ADDAA199000091AY101999GF100991001001999999001001KA1999N+02101MD1310511+9999MW1071REMSYN00510069
0071874670999991973010713004-32683-062150FM-12+0110SAMJ V0201801N01341220001CN0060001N9+02301+00001100731ADDAY101999GF100991001001999999001001MD1210651+9999MW1071REMSYN00510078
0071874670999991973010714004-32683-062150FM-12+0110SAMJ V0201601N01231220001CN0080001N9+02401+00201100771ADDAY101999GF100991001001999999001001MD1110401+9999MW1071REMSYN00510082
0071874670999991973010715004-32683-062150FM-12+0110SAMJ V0201801N01231220001CN0100001N9+02501+00301100771ADDAY101999GF100991001001999999001001MD1110271+9999MW1071REMSYN00510084
0071874670999991973010716004-32683-062150FM-12+0110SAMJ V0201801N01231220001CN0100001N9+02601+00201100811ADDAY101999GF100991001001999999001001MD1310071+9999MW1071REMSYN00510088
0071874670999991973010717004-32683-062150FM-12+0110SAMJ V0201801N01281220001CN0100001N9+02601+00201100761ADDAY101999GF100991001001999999001001MD1110071+9999MW1071REMSYN00510082
0082874670999991973010718004-32683-062150FM-12+0110SAMJ V0201801N01231220001CN0100001N9+02701+00401100781ADDAA199000091AY101999GF100991001001999999001001MD1110071+9999MW1071REMSYN00510085
0071874670999991973010720004-32683-062150FM-12+0110SAMJ V0201801N01231220001CN0100001N9+02701+00401100691ADDAY101999GF100991001001999999001001MD1810011+9999MW1071REMSYN00510077
0071874670999991973010721004-32683-062150FM-12+0110SAMJ V0201801N01031220001CN0100001N9+02701+00401100651ADDAY101999GF100991001001999999001001MD1810031+9999MW1061REMSYN00510073
0071874670999991973010722004-32683-062150FM-12+0110SAMJ V0201801N00771220001CN0100001N9+02701+00501100721ADDAY101999GF100991001001999999001001MD1610071+9999MW1061REMSYN00510078
0088874670999991973010723004-32683-062150FM-12+0110SAMJ V0201801N00251220001CN0100001N9+02501+00801100731ADDAA199000091AY101999GF100991001001999999001001MD1310011+9999MW1061REMSYN01170028 10080
0071874670999991973010800004-32683-062150FM-12+0110SAMJ V0201801N00461220001CN0100001N9+02201+01001100801ADDAY101999GF100991001001999999001001MD1210091+9999MW1061REMSYN00510085
0071874670999991973010801004-32683-062150FM-12+0110SAMJ V0209991C00001220001CN0100001N9+01801+01301101021ADDAY101999GF102991021001999999031001MD1210201+9999MW1061REMSYN00510104
0077874670999991973010802004-32683-062150FM-12+0110SAMJ V0201801N00151220001CN0100001N9+01701+01101101091ADDAY101999GF101991011001999999031001MD1210241+9999MW1061REMSYN01111224 10112
0071874670999991973010803004-32683-062150FM-12+0110SAMJ V0209991C00001220001CN0100001N9+01601+01301101241ADDAY101999GF102991001001999999001021MD1210271+9999MW1061REMSYN00510126
0071874670999991973010804004-32683-062150FM-12+0110SAMJ V0201801N00101220001CN0100001N9+01501+01301101321ADDAY101999GF102991001001999999001021MD1210271+9999MW1061REMSYN00510135
0082874670999991973010806004-32683-062150FM-12+0110SAMJ V0209991C00001220001CN0200001N9+01501+01101101161ADDAA199000091AY101999GF100991001001999999001001MD1810031+9999MW1011REMSYN0051011*
0071874670999991973010807004-32683-062150FM-12+0110SAMJ V0209991C00001220001CN0200001N9+01201+01001101121ADDAY101999GF100991001001999999001001MD1410001+9999MW1021REMSYN00510120
0071874670999991973010808004-32683-062150FM-12+0110SAMJ V0209991C00001220001CN0200001N9+01201+01001101181ADDAY101999GF100991001001999999001001MD1410001+9999MW1021REMSYN00510120
0071874670999991973010809004-32683-062150FM-12+0110SAMJ V0209991C00001220001CN0200001N9+99999+99999101151ADDAY101999GF102991021001999999031001MD1010001+9999MW1031REMSYN00510117
0071874670999991973010810004-32683-062150FM-12+0110SAMJ V0209991C00001220001CN0100001N9+01301+00901101251ADDAY101999GF104991021001999999031021MD1310031+9999MW1051REMSYN00510126
0119874670999991973010811004-32683-062150FM-12+0110SAMJ V0200901N00201036001CN0090001N9+01701+00801101341ADDAY101999GA1031+030009039GA2031+030009039GA3031+030009049GF106991061001999999071001MD1210111+9999MW1051REMSYN00510137
0127874670999991973010812004-32683-062150FM-12+0110SAMJ V0200701N00251036001CN0090001N9+01801+01001101451ADDAA199000091AY121999GA1031+030009039GA2051+030009049GF108991081001999999071999KA1999N+01201MD1210211+9999MW1051REMSYN00510149
0103874670999991973010814004-32683-062150FM-12+0110SAMJ V0200501N00511036001CN0090001N9+02301+01301101401ADDAY121999GA1031+030009039GA2051+030009049GF108991081001999999071999MD1110251+9999MW1051REMSYN00510145
0071874670999991973010815004-32683-062150FM-12+0110SAMJ V0200201N00771036001CN0090001N9+02501+00901101301ADDAY121999GF105991051001999999061001MD1010081+9999MW1051REMSYN00510137
0071874670999991973010817004-32683-062150FM-12+0110SAMJ V0200701N00251220001CN0090001N9+02801+00501101101ADDAY111999GF101991011001999999061001MD1710231+9999MW1051REMSYN0051011*
0068874670999991973010818004-32683-062150FM-12+0110SAMJ V0200501N00301220001CN0200001N9+99999+99999101061ADDAA199000091AY121999GF101991011001999999061001MD1010001+9999MW1021
0071874670999991973010819004-32683-062150FM-12+0110SAMJ V0200201N00461220001CN0200001N9+02901+00501100941ADDAY101999GF102991021001999999061001MD1710231+9999MW1031REMSYN00510102
0071874670999991973010820004-32683-062150FM-12+0110SAMJ V0200501N00611220001CN0200001N9+03001+00601100861ADDAY101999GF102991021001999999061001MD1710201+9999MW1021REMSYN00510096
0103874670999991973010821004-32683-062150FM-12+0110SAMJ V0200501N00511220001CN0200001N9+03001+00801100801ADDAY101999GA1021+030009039GA2021+030009049GF104991041001999999071001MD1710241+9999MW1031REMSYN00510088
0071874670999991973010822004-32683-062150FM-12+0110SAMJ V0200701N00721220001CN0200001N9+02701+00901100801ADDAY101999GF103991031001999999061001MD1710191+9999MW1011REMSYN00510088
0083874670999991973010823004-32683-062150FM-12+0110SAMJ V0200501N00561220001CN0200001N9+02601+00801100841ADDAY101999GF102991021001999999061001MD1610131+9999MW1011REMSYN01703370 030** 10090
0071874670999991973010900004-32683-062150FM-12+0110SAMJ V0200701N00771220001CN0200001N9+02601+01001100901ADDAY101999GF102991021001999999061001MD1610031+9999MW1021REMSYN00510096
0071874670999991973010901004-32683-062150FM-12+0110SAMJ V0200701N00671220001CN0200001N9+02201+00601100941ADDAY101999GF102991021001999999061001MD1310071+9999MW1021REMSYN00510100
0071874670999991973010902004-32683-062150FM-12+0110SAMJ V0200701N00721220001CN0200001N9+02001+00501100961ADDAY101999GF100991001001999999001001MD1110071+9999MW1021REMSYN00510100
0071874670999991973010903004-32683-062150FM-12+0110SAMJ V0200501N00611220001CN0200001N9+02001+00701101001ADDAY101999GF100991001001999999001001MD1110051+9999MW1021REMSYN00510106
0071874670999991973010904004-32683-062150FM-12+0110SAMJ V0200501N00511220001CN0200001N9+01801+00901100961ADDAY101999GF100991001001999999001001MD1410001+9999MW1021REMSYN00510100
0071874670999991973010905004-32683-062150FM-12+0110SAMJ V0200501N00461220001CN0200001N9+01801+01001100941ADDAY101999GF100991001001999999001001MD1810011+9999MW1021REMSYN00510098
0082874670999991973010906004-32683-062150FM-12+0110SAMJ V0200501N00561220001CN0200001N9+01701+01001100861ADDAA199000091AY101999GF100991001001999999001001MD1710091+9999MW1021REMSYN00510089
0071874670999991973010907004-32683-062150FM-12+0110SAMJ V0200501N00511220001CN0200001N9+01601+01001100841ADDAY101999GF100991001001999999001001MD1710111+9999MW1021REMSYN00510087
0071874670999991973010909004-32683-062150FM-12+0110SAMJ V0200501N00511220001CN0200001N9+01501+01101100721ADDAY101999GF100991001001999999001001MD1710141+9999MW1021REMSYN00510073
0071874670999991973010910004-32683-062150FM-12+0110SAMJ V0203601N00251220001CN0200001N9+01501+01201100811ADDAY101999GF100991001001999999001001MD1610071+9999MW1021REMSYN00510082
0071874670999991973010911004-32683-062150FM-12+0110SAMJ V0203601N00461220001CN0200001N9+01901+01301100721ADDAY101999GF101991011001999999031001MD1610081+9999MW1031REMSYN00510176
0084874670999991973010912004-32683-062150FM-12+0110SAMJ V0203401N00611220001CN0200001N9+02301+01501100691ADDAY101999GF102991021001999999061001KA1999N+01401MD1810031+9999MW1031REMSYN00510074
0072874670999991973010914004-32683-062150FM-12+0110SAMJ V0209999999999220001CN0200001N9+02701+01901100611ADDAY101999GF102991021001999999031001MD1310081+9999MW1021REMSYN00610069^
0103874670999991973010915004-32683-062150FM-12+0110SAMJ V0203401N00511220001CN0200001N9+02901+01901100601ADDAY101999GA1021+030009039GA2021+030009049GF104991041001999999071001MD1110081+9999MW1031REMSYN00510068
0154874670999991973010916004-32683-062150FM-12+0110SAMJ V0203201N00671090001CN0200001N9+03001+99999100561ADDAY111999GA1011+010209089GA2021+030009039GA3021+030009049GF105991011011017501031031MD1610702+9999MW1031REMSYN00519803EQDQ01+028423ATOD  Q02+000702APC3  
0087874670999991973010917004-32683-062150FM-12+0110SAMJ V0203201N00771220001CN0200001N9+03201+01901100421ADDAY111999GA1021+010209089GF104991021011012501071001MD1710131+9999MW1011REMSYN00510052
0068874670999991973010918004-32683-062150FM-12+0110SAMJ V0203401N00771220001CN0200001N9+03301+01801100371ADDAA199000091AY111999GF104991031011012501071001MD1610131+9999MW1021
0087874670999991973010919004-32683-062150FM-12+0110SAMJ V0203401N00671220001CN0200001N9+03301+01801100291ADDAY101999GA1031+010209089GF103991031011012501001001MD1810211+9999MW1011REMSYN00510038
0087874670999991973010920004-32683-062150FM-12+0110SAMJ V0200201N00511220001CN0200001N9+03301+01901100201ADDAY101999GA1021+010209089GF102991021011012501001001MD1710181+9999MW1011REMSYN00510029
0087874670999991973010921004-32683-062150FM-12+0110SAMJ V0203601N00251220001CN0200001N9+03401+02001100131ADDAY101999GA1021+010209089GF102991021011012501001001MD1710251+9999MW1021REMSYN00510023
0087874670999991973010922004-32683-062150FM-12+0110SAMJ V0209991C00001220001CN0200001N9+03301+01901100121ADDAY101999GA1011+010209089GF101991011011012501001001MD1610161+9999MW1011REMSYN00510021
0071874670999991973011000004-32683-062150FM-12+0110SAMJ V0202301N00301220001CN0200001N9+99999+99999999999ADDAY101999GF101991011021012501001001MD1810011+9999MW1021REMSYN00510024
0071874670999991973011001004-32683-062150FM-12+0110SAMJ V0200501N00411220001CN0200001N9+02901+02101100201ADDAY101999GF100991001001999999001001MD1510031+9999MW1011REMSYN00510029
0071874670999991973011002004-32683-062150FM-12+0110SAMJ V0200501N00511220001CN0200001N9+02601+02001100321ADDAY101999GF100991001001999999001001MD1210091+9999MW1021REMSYN00510040
0128874670999991973011003004-32683-062150FM-12+0110SAMJ V0200501N00411220001CN0200001N9+02501+02001100381ADDAY101999GA1081+999999009GF199999001001999999001001MD1210131+9999MW1021REMSYN01110045 00733EQDQ01+000002SCOTCVQ02+000992SCOLCB
0071874670999991973011004004-32683-062150FM-12+0110SAMJ V0200501N00251220001CN0200001N9+02501+02001100401ADDAY101999GF100991001001999999001001MD1210111+9999MW1021REMSYN00510046
0071874670999991973011005004-32683-062150FM-12+0110SAMJ V0209991C00001220001CN0200001N9+02401+02001100401ADDAY101999GF100991001001999999001001MD1110041+9999MW1021REMSYN00510046
0082874670999991973011006004-32683-062150FM-12+0110SAMJ V0203601N00251220001CN0200001N9+02401+02001100341ADDAA199000091AY101999GF100991001001999999001001MD1110041+9999MW1021REMSYN00510048
0071874670999991973011010004-32683-062150FM-12+0110SAMJ V0200201N00251220001CN0200001N9+02301+02101100381ADDAY101999GF102991021001999999081001MD1310081+9999MW1031REMSYN00510044
0095874670999991973011012004-32683-062150FM-12+0110SAMJ V0200201N00411220001CN0200001N9+02801+02301100371ADDAA199000091AY101999GF104991021001999999071021KA1999N+02201MD1110111+9999MW1021REMSYN00510045
0087874670999991973011013004-32683-062150FM-12+0110SAMJ V0203601N00411220001CN0200001N9+03101+02301100361ADDAY101999GA1031+001209089GF105991021011008001001061MD1810041+9999MW1031REMSYN00510045
0071874670999991973011014004-32683-062150FM-12+0110SAMJ V0203401N00511012001CN0200001N9+99999+99999100301ADDAY101999GF106991061081008001001001MD1710091+9999MW1031REMSYN00510043
0071874670999991973011015004-32683-062150FM-12+0110SAMJ V0209991C00001220001CN0200001N9+03301+02301100251ADDAY121999GF104991999999999999999999MD1610111+9999MW1021REMSYN00510032
0071874670999991973011016004-32683-062150FM-12+0110SAMJ V0203201N00251012001CN0200001N9+03301+02301100221ADDAY101999GF106991061081008001001001MD1710071+9999MW1021REMSYN00510032
0071874670999991973011017004-32683-062150FM-12+0110SAMJ V0203601N00461012001CN0200001N9+03401+02301100101ADDAY121999GF105991051021012501001001MD1810151+9999MW1011REMSYN00510020
0123874670999991973011018004-32683-062150FM-12+0110SAMJ V0203601N00251000301CN0200001N9+03501+99999099961ADDAA199000091AY111999GF105991051021000251031031MD1610291+9999MW1021REMSYN01124827 10005EQDQ01+027123ATOD  Q02+000002APC3  
0071874670999991973011019004-32683-062150FM-12+0110SAMJ V0200901N00151220001CN0200001N9+03601+02401099881ADDAY111999GF103991031021012501001001MD1610321+9999MW1011REMSYN00510060
0103874670999991973011020004-32683-062150FM-12+0110SAMJ V0200501N01541012001CN0060001N9+03501+02201099971ADDAY111999GA1031+010209089GA2031+012009099GF106991061091012501001001MD1610251+9999MW1071REMSYN00510007
0122874670999991973011021004-32683-062150FM-12+0110SAMJ V0200101N00821012001CN0100001N9+02302+02101100081ADDAY191999GA1021+010209059GA2031+012009099GF107991051091012501071001MD1410001+9999MW1951REMSYN00510001EQDQ01+029623ATOT  
0073874670999991973011100004-32683-062150FM-12+0110SAMJ V0200501N00301090001CN0200001N9+02501+02201100121ADDAY121999GA1011+999999089GF106991011021012501061061MD1310071+9999MW1031
0071874670999991973011103004-32683-062150FM-12+0110SAMJ V0200501N00301220001CN0200001N9+02401+02001100231ADDAY101999GF101991011091012501001001MD1310131+9999MW1131REMSYN00510041
0071874670999991973011104004-32683-062150FM-12+0110SAMJ V0200501N00461220001CN0200001N9+02201+02101100401ADDAY101999GF101991011091012501001001MD1310151+9999MW1131REMSYN00510045
0071874670999991973011105004-32683-062150FM-12+0110SAMJ V0200501N00151220001CN0200001N9+02101+02001100411ADDAY101999GF102991021091012501001001MD1110151+9999MW1131REMSYN00510046
0082874670999991973011106004-32683-062150FM-12+0110SAMJ V0200901N00251220001CN0200001N9+02201+02101100441ADDAA199000091AY111999GF101991011091012501001001MD1110031+9999MW1131REMSYN00510049
0071874670999991973011109004-32683-062150FM-12+0110SAMJ V0200901N00411220001CN0100001N9+02101+02101100461ADDAY101999GF100991001001999999001001MD1310081+9999MW1021REMSYN00510052
0071874670999991973011110004-32683-062150FM-12+0110SAMJ V0200901N00301220001CN0070001N9+02101+02101100501ADDAY101999GF100991001001999999001001MD1310051+9999MW1101REMSYN00510056
0087874670999991973011111004-32683-062150FM-12+0110SAMJ V0201101N00411004501CN0060001N9+02401+02201100561ADDAY111999GA1061+004509059GF106991061051004501001001MD1210091+9999MW1101REMSYN00510061
0081874670999991973011112004-32683-062150FM-12+0110SAMJ V0200901N00671220001CN0100001N9+02601+02401100581ADDAA199003091AY111999GF103991031011008001001001KA1999N+02101MD1110091+9999MW1101
0071874670999991973011113004-32683-062150FM-12+0110SAMJ V0200501N00821220001CN0200001N9+02801+02401100581ADDAY111999GF101991011011012501001001MD1110121+9999MW1011REMSYN00510066
0071874670999991973011114004-32683-062150FM-12+0110SAMJ V0200501N00821220001CN0200001N9+03001+02401100561ADDAY101999GF103991031011012501001001MD1110051+9999MW1031REMSYN00510064
0071874670999991973011115004-32683-062150FM-12+0110SAMJ V0200501N00511012001CN0200001N9+03101+02401100581ADDAY111999GF105991051011012501001001MD1110031+9999MW1031REMSYN00510068
0108874670999991973011117004-32683-062150FM-12+0110SAMJ V0200501N004619999999N0200001N9+03201+99999100561ADDAY111999GF105991041999999999999999MD1010031+9999MW1021REMSYN02351600 24400 10065 1700*EQDQ01+027223ATOD  
0068874670999991973011118004-32683-062150FM-12+0110SAMJ V0200201N00511012001CN0200001N9+02501+02301100441ADDAA199000091AY121999GF105991051011012501001001MD1610041+9999MW1021
0082874670999991973011119004-32683-062150FM-12+0110SAMJ V0200201N00511012001CN0200001N9+02501+02301100441ADDAA199000091AY121999GF105991051011012501001001MD1610041+9999MW1021REMSYN00510054
0071874670999991973011120004-32683-062150FM-12+0110SAMJ V0200501N00611036001CN0200001N9+03502+02401100291ADDAY121999GF106991021011012501021001MD1610131+9999MW1021REMSYN00510040
0103874670999991973011121004-32683-062150FM-12+0110SAMJ V0200201N00611036001CN0200001N9+03301+02301100211ADDAY121999GA1021+030009039GA2041+030009049GF107991011011012501071001MD1810201+9999MW1031REMSYN00510031
0103874670999991973011122004-32683-062150FM-12+0110SAMJ V0200201N00411036001CN0200001N9+03301+02301100291ADDAY121999GA1021+030009039GA2031+030009049GF105991051001999999071001MD1610051+9999MW1011REMSYN00510038
0088874670999991973011123004-32683-062150FM-12+0110SAMJ V0200501N00411220001CN0200001N9+03201+02301100261ADDAA199000091AY121999GF106991031001999999071061MD1210111+9999MW1031REMSYN01170036 10036
0071874670999991973011200004-32683-062150FM-12+0110SAMJ V0200601N00411220001CN0200001N9+03001+02301100251ADDAY121999GF105991021001999999071061MD1010041+9999MW1021REMSYN0051003*
0071874670999991973011202004-32683-062150FM-12+0110SAMJ V0200501N00151220001CN0200001N9+02801+02501100341ADDAY121999GF106991001001999999001061MD1510081+9999MW1021REMSYN00510043
0071874670999991973011203004-32683-062150FM-12+0110SAMJ V0200601N00411220001CN0200001N9+02701+02501100381ADDAY101999GF102991001001999999001061MD1210011+9999MW1011REMSYN00510046
0071874670999991973011205004-32683-062150FM-12+0110SAMJ V0200501N00411220001CN0200001N9+02701+02501100301ADDAY101999GF100991001001999999001001MD1610031+9999MW1021REMSYN00510037
0092874670999991973011206004-32683-062150FM-12+0110SAMJ V0203601N00511220001CN0200001N9+02601+02301100281ADDAY101999GF100991001001999999001001MD1710101+9999MW1021EQDQ01+000042APCTENQ02+000042APC3  
0071874670999991973011210004-32683-062150FM-12+0110SAMJ V0203601N00251220001CN0200001N9+02401+02301100371ADDAY101999GF102991011001999999071021MD1310011+9999MW1031REMSYN00510044
0071874670999991973011211004-32683-062150FM-12+0110SAMJ V0200201N00151220001CN0200001N9+02501+02201100481ADDAY101999GF104991021001999999071021MD1210131+9999MW1031REMSYN00510054
0095874670999991973011212004-32683-062150FM-12+0110SAMJ V0203401N00411036001CN0200001N9+02601+02301100581ADDAA199000091AY101999GF105991021051012501071001KA1999N+02401MD1010271+9999MW1031REMSYN00510066
0071874670999991973011213004-32683-062150FM-12+0110SAMJ V0203401N00511220001CN0200001N9+02901+02401100481ADDAY101999GF103991011001999999071021MD1010231+9999MW1011REMSYN00510058
0090874670999991973011214004-32683-062150FM-12+0110SAMJ V0203401N00511220001CN0200001N9+03101+02401100461ADDAY121999GF103991001001999999001021MD1610111+9999MW1021REMSYN00510058EQDQ01+000032SCOTLC
0106874670999991973011215004-32683-062150FM-12+0110SAMJ V0209991C00001012001CN0200001N9+03201+02501100491ADDAY101999GF106991061081008001001001MD1710091+9999MW1031REMSYN00510058EQDQ01+000042APCTENQ02+000032APC3  
0063874670999991973011216004-32683-062150FM-12+0110SAMJ V0209999999999012001CN0200001N9+03301+02401100491ADDGF106991061081008001001001MD1410001+9999MW1021REMSYN00510058
0071874670999991973011217004-32683-062150FM-12+0110SAMJ V0201601N00921012001CN0200001N9+03501+99999100371ADDAY121999GF106991061021012501001001MD1810091+9999MW1021REMSYN00510048
0098874670999991973011218004-32683-062150FM-12+0110SAMJ V0201401N01031090001CN0200001N9+03701+02301100361ADDAA199000091AY121999GA1041+010209089GF106991041021012501001021MD1810091+9999MW1021REMSYN00510048
0087874670999991973011219004-32683-062150FM-12+0110SAMJ V0201401N00821036001CN0200001N9+03501+02601100341ADDAY121999GA1021+010209089GF106991021021012501031021MD1610111+9999MW1021REMSYN00510045
0071874670999991973011220004-32683-062150FM-12+0110SAMJ V0201101N00971036001CN0200001N9+03601+02401100331ADDAY121999GF106991021021012501061021MD1810041+9999MW1021REMSYN00510044
0103874670999991973011221004-32683-062150FM-12+0110SAMJ V0201601N01341036001CN0200001N9+03201+02501100261ADDAY191999GA1021+010209059GA2021+015009099GF108991041091012501021999MD1710091+9999MW1171REMSYN00510036
0120874670999991973011223004-32683-062150FM-12+0110SAMJ V0201401N00511012001CN0200001N9+02501+02201100441ADDAA199005091AY191999GA1081+012009049GA2031+015009099GF108991999999999999999999MD1310031+9999MW1171REMSYN01170537 10050
0103874670999991973011300004-32683-062150FM-12+0110SAMJ V0200901N00561012001CN0200001N9+02701+02101100221ADDAY191999GA1061+012009049GA2021+015009099GF108991999999999999999999MD1810021+9999MW1121REMSYN00510040
0103874670999991973011304004-32683-062150FM-12+0110SAMJ V0201201N01131009001CN0200001N9+03401+02201100601ADDAY121999GA1051+009009059GA2021+015009099GF107991071091008001001001MD1210131+9999MW1131REMSYN00510065
0103874670999991973011305004-32683-062150FM-12+0110SAMJ V0201101N01031009001CN0100001N9+02401+02301100521ADDAY191999GA1051+009009059GA2031+015009099GF108991081091008001999999MD1810031+9999MW1171REMSYN00510050
0071874670999991973011311004-32683-062150FM-12+0110SAMJ V0201101N01281036001CN0200001N9+01901+01801100691ADDAY121999GF108991081001999999071999MD1010011+9999MW1021REMSYN00510073
0109874670999991973011313004-32683-062150FM-12+0110SAMJ V0200901N01391036001CN0200001N9+02001+01901100761ADDAA199042091AY191999GF108991081001999999071999MW1021REMSYN01174218 10080EQDQ01+000042APCTENQ02+000102APC3  
0087874670999991973011315004-32683-062150FM-12+0110SAMJ V0200701N00771220001CN0200001N9+02301+02001100901ADDAY121999GA1021+006009059GF104991021051008001071999MD1210081+9999MW1021REMSYN00510096
0087874670999991973011316004-32683-062150FM-12+0110SAMJ V0200701N00671005101CN0200001N9+02401+02001100881ADDAY121999GA1051+005109059GF108991051051004501021999MD1110041+9999MW1021REMSYN00510093
0103874670999991973011317004-32683-062150FM-12+0110SAMJ V0200701N01031007501CN0200001N9+02401+02001100901ADDAY121999GA1031+006009089GA2051+007509059GF108991081081008001999999MD1310111+9999MW1011REMSYN00510097
0103874670999991973011319004-32683-062150FM-12+0110SAMJ V0200701N00671007501CN0200001N9+02601+02001100801ADDAY121999GA1041+006009089GA2041+007509059GF108991081081008001999999MD1810031+9999MW1021REMSYN00510086
0103874670999991973011320004-32683-062150FM-12+0110SAMJ V0200501N00611007501CN0200001N9+02601+02001100731ADDAY121999GA1041+006009089GA2031+007509059GF107991071081008001001001MD1810111+9999MW1011REMSYN00510080
0103874670999991973011321004-32683-062150FM-12+0110SAMJ V0200701N00561007501CN0200001N9+02501+02001100701ADDAY121999GA1021+006009059GA2031+007509089GF107991051081008001001061MD1710131+9999MW1021REMSYN00510077
0103874670999991973011322004-32683-062150FM-12+0110SAMJ V0200901N00511036001CN0200001N9+02401+02001100691ADDAY121999GA1031+030009039GA2041+030009049GF107991071001999999071001MD1610071+9999MW1011REMSYN00510076
0088874670999991973011323004-32683-062150FM-12+0110SAMJ V0201101N00511036001CN0200001N9+02301+02001100731ADDAA199000091AY121999GF107991071001999999031001MD1610031+9999MW1011REMSYN01170026 10088
0087874670999991973011400004-32683-062150FM-12+0110SAMJ V0201101N01031004201CN0200001N9+02101+01901100861ADDAY121999GA1051+004209059GF108991051051004501071999MD1310041+9999MW1031REMSYN00510090
0087874670999991973011401004-32683-062150FM-12+0110SAMJ V0209991C00001003301CN0200001N9+01901+01801101051ADDAY121999GA1081+003309079GF108991081061004501999999MD1210161+9999MW1031REMSYN00510110
0087874670999991973011402004-32683-062150FM-12+0110SAMJ V0201101N01031003301CN0200001N9+01801+01701101101ADDAY121999GA1081+003309079GF108991081061004501999999MD1210281+9999MW1021REMSYN00510114
0071874670999991973011403004-32683-062150FM-12+0110SAMJ V0201101N01131036001CN0012001N9+99999+99999999999ADDAY181999GF108991011071001501021071MD1710121+9999MW1211REMSYN00510126
0087874670999991973011404004-32683-062150FM-12+0110SAMJ V0201101N01031003601CN0200001N9+01701+01601101291ADDAY121999GA1081+003609079GF108991081061004501999999MD1110171+9999MW1031REMSYN00510133
0087874670999991973011405004-32683-062150FM-12+0110SAMJ V0201101N01031003601CN0200001N9+01701+01601101301ADDAY121999GA1081+003609079GF108991081061004501999999MD1110161+9999MW1031REMSYN00510134
0068874670999991973011406004-32683-062150FM-12+0110SAMJ V0201101N00721001201CN0080001N9+01701+01701101251ADDAA199000091AY121999GF108991081061001501999999MD1210091+9999MW1101
0087874670999991973011407004-32683-062150FM-12+0110SAMJ V0201101N00771001201CN0080001N9+01801+01701101301ADDAY121999GA1081+001209079GF108991081061001501999999MD1410001+9999MW1101REMSYN0051012*
0087874670999991973011408004-32683-062150FM-12+0110SAMJ V0201101N00671001201CN0080001N9+01701+01701101141ADDAY121999GA1081+001209079GF108991081061001501999999MD1810071+9999MW1101REMSYN00510117
0093874670999991973011409004-32683-062150FM-12+0110SAMJ V0201401N00611000901CN0080001N9+01701+01701101211ADDAY121999GA1081+000909079GF108991081061000751999999MD1510001+9999MW1101REMSYN01111233 10124
0071874670999991973011410004-32683-062150FM-12+0110SAMJ V0201401N01031090001CN0012001N9+99999+99999999999ADDAY161999GF108991011061002501001031MD1710031+9999MW1811REMSYN00510131
0087874670999991973011411004-32683-062150FM-12+0110SAMJ V0202401N01031000901CN0040001N9+01601+01601101451ADDAY151999GA1081+000909079GF108991081061000751999999MD1210161+9999MW1511REMSYN00510147
0111874670999991973011412004-32683-062150FM-12+0110SAMJ V0201401N01131001501CN0100001N9+01501+01501101571ADDAA199000591AY151999GA1081+001509079GF108991081071001501999999KA1999N+01501MD1210271+9999MW1201REMSYN00510159
0087874670999991973011413004-32683-062150FM-12+0110SAMJ V0201401N01031001801CN0200001N9+01501+01401101701ADDAY151999GA1081+001809079GF108991081071001501999999MD1210281+9999MW1021REMSYN00510171
0087874670999991973011414004-32683-062150FM-12+0110SAMJ V0201401N01031002401CN0200001N9+01501+01401101741ADDAY121999GA1081+002409079GF108991081061002501999999MD1210271+9999MW1011REMSYN00510177
0087874670999991973011415004-32683-062150FM-12+0110SAMJ V0201601N00871003001CN0200001N9+01501+01301101801ADDAY121999GA1081+003009059GF108991081051004501999999MD1210161+9999MW1011REMSYN00510182
0087874670999991973011416004-32683-062150FM-12+0110SAMJ V0201801N00921003001CN0200001N9+01501+01301101821ADDAY121999GA1081+003009059GF108991081051004501999999MD1210201+9999MW1021REMSYN00510185
0103874670999991973011417004-32683-062150FM-12+0110SAMJ V0201801N00821004501CN0200001N9+01601+01301101811ADDAY121999GA1051+004509059GA2031+030009039GF108991051051004501031999MD1110081+9999MW1011REMSYN00510182
0068874670999991973011418004-32683-062150FM-12+0110SAMJ V0201801N00721007501CN0200001N9+01601+01301101841ADDAA199000091AY121999GF107991071051008001001001MD1110051+9999MW1011
0071874670999991973011419004-32683-062150FM-12+0110SAMJ V0201601N00971007501CN0200001N9+01701+01301101861ADDAY121999GF108991081051008001999999MD1310011+9999MW1031REMSYN0051018*
0096874670999991973011421004-32683-062150FM-12+0110SAMJ V0201401N00871012001CN0200001N9+01801+01301101801ADDAY121999GF107991999051012501001001MD1810051+9999MW1011REMSYN01110182 2****EQDQ01+000062SCOTLC
0112874670999991973011422004-32683-062150FM-12+0110SAMJ V0201401N008219999999N0200001N9+01801+99999101781ADDAY121999GF107991061051999999999999MD1610081+9999MW1011REMSYN01114605 10181EQDQ01+024823ATOD  Q02+000002APC3  
0082874670999991973011423004-32683-062150FM-12+0110SAMJ V0201401N00511012001CN0200001N9+01701+01501101821ADDAA199000091AY121999GF107991071051012501001001MD1510001+9999MW1021REMSYN00510185
0071874670999991973011500004-32683-062150FM-12+0110SAMJ V0201401N00301012001CN0200001N9+01701+01501101881ADDAY121999GF106991061051012501001001MD1310111+9999MW1011REMSYN00510190
0071874670999991973011501004-32683-062150FM-12+0110SAMJ V0201601N00251220001CN0100001N9+01601+01501101941ADDAY111999GF102991021051012501001001MD1310091+9999MW1101REMSYN00510197
0071874670999991973011502004-32683-062150FM-12+0110SAMJ V0209991C00001220001CN0100001N9+01401+01301102041ADDAY111999GF100991001001999999001001MD1310131+9999MW1101REMSYN00510203
0071874670999991973011503004-32683-062150FM-12+0110SAMJ V0209991C00001220001CN0070001N9+01301+01301999999ADDAY101999GF100991001001999999001001MD1210151+9999MW1101REMSYN00510207
0071874670999991973011504004-32683-062150FM-12+0110SAMJ V0209991C00001220001CN0070001N9+01301+01201102121ADDAY101999GF100991001001999999001001MD1110131+9999MW1101REMSYN00510211
0071874670999991973011505004-32683-062150FM-12+0110SAMJ V0200901N00151220001CN0070001N9+01201+01201102141ADDAY101999GF100991001001999999001001MD1110081+9999MW1101REMSYN00510214
0082874670999991973011506004-32683-062150FM-12+0110SAMJ V0201801N00251220001CN0070001N9+01101+01001102081ADDAA199000091AY111999GF100991001001999999001001MD1110031+9999MW1101REMSYN00510206
0063874670999991973011507004-32683-062150FM-12+0110SAMJ V0202001N00301220001CN0050001N9+99999+99999999999ADDAY101999GF100991999999999999999999MW1101REMSYN01110801 10205
0071874670999991973011508004-32683-062150FM-12+0110SAMJ V0201801N00151220001CN0050001N9+01001+00901102121ADDAY101999GF100991001001999999001001MD1610011+9999MW1101REMSYN00510210
0071874670999991973011509004-32683-062150FM-12+0110SAMJ V0209991C00001220001CN0040001N9+01001+01001102001ADDAY101999GF100991001001999999001001MD1810011+9999MW1101REMSYN0051019*
0071874670999991973011510004-32683-062150FM-12+0110SAMJ V0200901N00301220001CN0060001N9+01001+00901102021ADDAY101999GF100991001001999999001001MD1610041+9999MW1101REMSYN00510202
0071874670999991973011511004-32683-062150FM-12+0110SAMJ V0209991C00001220001CN0100001N9+99999+99999102021ADDAY101999GF100991001001999999001001MD1510001+9999MW1011REMSYN00510206
0095874670999991973011512004-32683-062150FM-12+0110SAMJ V0200501N00151220001CN0100001N9+01701+01501102061ADDAA199000091AY101999GF103991031011008001001001KA1999N+01001MD1310111+9999MW1101REMSYN00510207
0071874670999991973011513004-32683-062150FM-12+0110SAMJ V0203601N00251007501CN0200001N9+01901+01501102041ADDAY111999GF105991051011008001001001MD1810031+9999MW1011REMSYN00510206
0071874670999991973011514004-32683-062150FM-12+0110SAMJ V0203601N00461007501CN0200001N9+02101+01401102051ADDAY111999GF105991051011008001001001MD1710071+9999MW1021REMSYN00510207
0071874670999991973011515004-32683-062150FM-12+0110SAMJ V0203601N00301012001CN0200001N9+02101+01401102011ADDAY121999GF106991061011012501001001MD1610131+9999MW1031REMSYN00510203
0103874670999991973011516004-32683-062150FM-12+0110SAMJ V0203601N00511015001CN0200001N9+02201+01301101941ADDAY121999GA1031+010209089GA2031+010209059GF106991061081012501001001MD1810051+9999MW1021REMSYN00510199
0071874670999991973011517004-32683-062150FM-12+0110SAMJ V0200501N004119999999N0200001N9+02401+01401101891ADDAY121999GF105991999011012501001001MD1710151+9999MW1011REMSYN00510194
0082874670999991973011518004-32683-062150FM-12+0110SAMJ V0200501N00361220001CN0200001N9+02401+01401101761ADDAA199000091AY121999GF104991041041012501001001MD1710191+9999MW1011REMSYN00510182
0071874670999991973011519004-32683-062150FM-12+0110SAMJ V0200501N00361220001CN0200001N9+02501+01401101661ADDAY111999GF104991041041012501001001MD1110251+9999MW1021REMSYN00510173
0071874670999991973011520004-32683-062150FM-12+0110SAMJ V0200501N00671220001CN0200001N9+02501+01201101601ADDAY111999GF103991031041012501001001MD1710211+9999MW1011REMSYN00510166
0071874670999991973011521004-32683-062150FM-12+0110SAMJ V0200501N00611220001CN0200001N9+02401+01301101581ADDAY101999GF101991011041012501001001MD1710201+9999MW1011REMSYN00510164
0071874670999991973011522004-32683-062150FM-12+0110SAMJ V0200501N00511220001CN0200001N9+02501+01401101581ADDAY101999GF100991001001999999001001MD1610111+9999MW1011REMSYN00510165
0071874670999991973011600004-32683-062150FM-12+0110SAMJ V0200701N00461220001CN0200001N9+02001+01601101491ADDAY101999GF100991001001999999001001MD1410001+9999MW1021REMSYN00510153
0071874670999991973011601004-32683-062150FM-12+0110SAMJ V0200701N00511220001CN0200001N9+01901+01501101521ADDAY101999GF100991001001999999001001MD1410001+9999MW1021REMSYN00510155
0071874670999991973011602004-32683-062150FM-12+0110SAMJ V0200701N00611220001CN0200001N9+01901+01501101541ADDAY101999GF100991001001999999001001MD1310011+9999MW1021REMSYN00510158
0071874670999991973011603004-32683-062150FM-12+0110SAMJ V0200701N00671220001CN0200001N9+01801+01601101531ADDAY101999GF100991001001999999001001MD1610051+9999MW1021REMSYN00510158
0071874670999991973011604004-32683-062150FM-12+0110SAMJ V0200701N00511220001CN0200001N9+01801+01601101531ADDAY101999GF100991001001999999001001MD1210091+9999MW1021REMSYN00510159
0071874670999991973011605004-32683-062150FM-12+0110SAMJ V0200701N00611220001CN0200001N9+01701+01601101531ADDAY101999GF100991001001999999001001MD1110091+9999MW1021REMSYN00510159
0082874670999991973011606004-32683-062150FM-12+0110SAMJ V0200701N00611220001CN0200001N9+01601+01501101441ADDAA199000091AY101999GF100991001001999999001001MD1810051+9999MW1021REMSYN00510146
0071874670999991973011607004-32683-062150FM-12+0110SAMJ V0200701N00411220001CN0200001N9+01601+01501101381ADDAY101999GF100991001001999999001001MD1710151+9999MW1021REMSYN00510141
0071874670999991973011608004-32683-062150FM-12+0110SAMJ V0200701N00251220001CN0200001N9+01601+01501101381ADDAY101999GF100991001001999999001001MD1610131+9999MW1021REMSYN00510141
0071874670999991973011609004-32683-062150FM-12+0110SAMJ V0200701N00361220001CN0200001N9+01601+01601101371ADDAY101999GF101991011001999999061001MD1610131+9999MW1021REMSYN00510139
0071874670999991973011610004-32683-062150FM-12+0110SAMJ V0200601N00201220001CN0200001N9+01601+01601101371ADDAY101999GF101991011001999999061001MD1410001+9999MW1021REMSYN00510139
0071874670999991973011611004-32683-062150FM-12+0110SAMJ V0200501N00251220001CN0200001N9+01901+01701101361ADDAY101999GF102991021001999999071001MD1410001+9999MW1031REMSYN00510139
0095874670999991973011612004-32683-062150FM-12+0110SAMJ V0200501N00511220001CN0200001N9+02101+01801101381ADDAA199000091AY101999GF103991031001999999061001KA1999N+01601MD1310111+9999MW1031REMSYN00510143
0087874670999991973011613004-32683-062150FM-12+0110SAMJ V0200501N01131220001CN0200001N9+02401+01701101341ADDAY101999GA1021+010209089GF103991021011012501061001MD1010041+9999MW1031REMSYN00510139
0071874670999991973011614004-32683-062150FM-12+0110SAMJ V0200201N01131012001CN0200001N9+02501+01701101221ADDAY101999GF105991051011012501001001MD1810011+9999MW1031REMSYN00510130
0071874670999991973011615004-32683-062150FM-12+0110SAMJ V0200901N00411012001CN0150001N9+02601+01701101201ADDAY111999GF107991071011012501001001MD1710151+9999MW1021REMSYN00510126
0071874670999991973011616004-32683-062150FM-12+0110SAMJ V0200201N01131220001CN0200001N9+02801+01701101121ADDAY121999GF104991041011012501001001MD1710171+9999MW1011REMSYN00510120
0071874670999991973011617004-32683-062150FM-12+0110SAMJ V0203401N01031220001CN0200001N9+02801+01701101021ADDAY111999GF102991021011012501001001MD1710211+9999MW1011REMSYN00510110
0082874670999991973011618004-32683-062150FM-12+0110SAMJ V0200201N00921220001CN0200001N9+03001+01601100961ADDAA199000091AY121999GF100991001001999999001001MD1710231+9999MW1011REMSYN00510104
0071874670999991973011619004-32683-062150FM-12+0110SAMJ V0200201N00871220001CN0200001N9+03001+01701100851ADDAY101999GF100991001001999999001001MD1710251+9999MW1021REMSYN00510094
0071874670999991973011620004-32683-062150FM-12+0110SAMJ V0200201N00721220001CN0200001N9+03101+01601100781ADDAY101999GF100991001001999999001001MD1710191+9999MW1021REMSYN00510088
0071874670999991973011621004-32683-062150FM-12+0110SAMJ V0200501N00921220001CN0200001N9+03101+01701100721ADDAY101999GF100991001001999999001001MD1710241+9999MW1021REMSYN00510081
0071874670999991973011622004-32683-062150FM-12+0110SAMJ V0200501N00511220001CN0200001N9+03001+01701100701ADDAY101999GF100991001001999999001001MD1710131+9999MW1021REMSYN00510078
0088874670999991973011623004-32683-062150FM-12+0110SAMJ V0200501N00611220001CN0200001N9+02801+01801100701ADDAA199000091AY101999GF101991011001999999031001MD1710121+9999MW1031REMSYN01170031 10078
0057874670999991973011700004-32683-062150FM-12+0110SAMJ V0200701N00921220001CN0200001N9+02501+01901100701ADDAY101999GF100991001001999999001001MD1710041+9999MW1021
0071874670999991973011702004-32683-062150FM-12+0110SAMJ V0200501N00721220001CN0200001N9+02301+01801100781ADDAY101999GF100991001001999999001001MD1310031+9999MW1021REMSYN00510084
0071874670999991973011703004-32683-062150FM-12+0110SAMJ V0200501N00771220001CN0200001N9+02301+01801100771ADDAY101999GF100991001001999999001001MD1110041+9999MW1021REMSYN00510052
0071874670999991973011704004-32683-062150FM-12+0110SAMJ V0200201N00511220001CN0200001N9+02201+01801100671ADDAY101999GF100991001001999999001001MD1410001+9999MW1021REMSYN00510081
0071874670999991973011705004-32683-062150FM-12+0110SAMJ V0200201N00671220001CN0200001N9+02201+01801100771ADDAY101999GF100991001001999999001001MD1110031+9999MW1021REMSYN00510082
0071874670999991973011707004-32683-062150FM-12+0110SAMJ V0203601N00561220001CN0200001N9+02101+01901100761ADDAY101999GF100991001001999999001001MD1810011+9999MW1021REMSYN00510080
0071874670999991973011708004-32683-062150FM-12+0110SAMJ V0200201N00411220001CN0300001N9+02101+01901100771ADDAY101999GF100991001001999999001001MD1410001+9999MW1021REMSYN00510081
0071874670999991973011709004-32683-062150FM-12+0110SAMJ V0200201N00611220001CN0200001N9+02101+01901100801ADDAY101999GF100991001001999999001001MD1310011+9999MW1021REMSYN00510084
0071874670999991973011710004-32683-062150FM-12+0110SAMJ V0203601N00511220001CN0200001N9+02101+01901100821ADDAY101999GF100991001001999999001001MD1210091+9999MW1021REMSYN00510088
0071874670999991973011711004-32683-062150FM-12+0110SAMJ V0203601N00461220001CN0200001N9+02301+02001100891ADDAY101999GF100991001001999999001001MD1210111+9999MW1021REMSYN00510094
0081874670999991973011712004-32683-062150FM-12+0110SAMJ V0203601N00671220001CN0200001N9+02601+02101100901ADDAA199000091AY101999GF102991021001999999061001KA1999N+02001MD1210131+9999MW1031
0071874670999991973011713004-32683-062150FM-12+0110SAMJ V0200201N00771220001CN0200001N9+02801+02201100891ADDAY101999GF104991041001999999061001MD1110071+9999MW1031REMSYN00510097
0087874670999991973011714004-32683-062150FM-12+0110SAMJ V0203601N00561036001CN0200001N9+02801+02201100791ADDAY111999GA1031+012009059GF107991031051008001051001MD1110051+9999MW1031REMSYN00510098
0087874670999991973011715004-32683-062150FM-12+0110SAMJ V0203401N00511036001CN0200001N9+03001+02301100901ADDAY121999GA1041+012009059GF107991041051012501061001MD1410001+9999MW1021REMSYN00510098
0087874670999991973011716004-32683-062150FM-12+0110SAMJ V0203401N00611012001CN0200001N9+03001+02301100881ADDAY121999GA1051+012009059GF108991051051012501061999MD1810011+9999MW1031REMSYN005100*9
0068874670999991973011718004-32683-062150FM-12+0110SAMJ V0209991C00001036001CN0200001N9+03101+02401100811ADDAA199000091AY121999GF108991041051012501071999MD1810041+9999MW1021
0103874670999991973011721004-32683-062150FM-12+0110SAMJ V0200201N00151036001CN0200001N9+03301+02301100651ADDAY121999GA1011+015009099GA2011+015009059GF105991021091012501071001MD1710131+9999MW1011REMSYN00510074
0103874670999991973011722004-32683-062150FM-12+0110SAMJ V0200201N00251036001CN0200001N9+03101+02301100461ADDAY121999GA1011+015009099GA2021+015009059GF106991031091012501071001MD1010121+9999MW1031REMSYN00510070
0104874670999991973011723004-32683-062150FM-12+0110SAMJ V0200201N00251220001CN0200001N9+03101+02401100681ADDAA199000091AY121999GA1011+015009059GF103991011031012501071001MD1110011+9999MW1011REMSYN01170033 10077
0122874670999991973011800004-32683-062150FM-12+0110SAMJ V0200701N00771220001CN0200001N9+02701+02001100771ADDAY121999GA1011+012009099GF101991011091012501001001MD1210121+9999MW1011REMSYN00510085EQDQ01+000042APCTENQ02+000382APC3  
0071874670999991973011801004-32683-062150FM-12+0110SAMJ V0200701N00771220001CN0200001N9+02601+02401100901ADDAY101999GF100991001001999999001001MD1210131+9999MW1011REMSYN00510097
0071874670999991973011803004-32683-062150FM-12+0110SAMJ V0200701N00511220001CN0200001N9+02501+02301100931ADDAY101999GF102991021051012501001001MD1010161+9999MW1031REMSYN00510100
0087874670999991973011805004-32683-062150FM-12+0110SAMJ V0200701N00411220001CN0200001N9+02401+02301100921ADDAY101999GA1011+015009099GF102991021051012501001001MD1610031+9999MW1021REMSYN00510098
0126874670999991973011806004-32683-062150FM-12+0110SAMJ V0201101N00771004501CN0200001N9+02401+02301100961ADDAA199000091AY101999GA1081+004509059GA2071+010209049GF108991081051004501999999MD1310031+9999MW1031REMSYN01710104 257*9 1*9**
0071874670999991973011807004-32683-062150FM-12+0110SAMJ V0201101N00871007501CN0200001N9+02201+02001100941ADDAY101999GF108991051091008001071999MD1110041+9999MW1031REMSYN00510100
0087874670999991973011810004-32683-062150FM-12+0110SAMJ V0201401N00411036001CN0200001N9+02201+02101101001ADDAY121999GA1031+006009059GF107991031051008001071001MD1010001+9999MW1011REMSYN00510105
0092874670999991973011811004-32683-062150FM-12+0110SAMJ V0200901N00511220001CN0200001N9+02401+02101101001ADDAY181999GF102991011021012501071001MW1011REMSYN00510105EQDQ01+000012APCTENQ02+000002APC3  
0095874670999991973011812004-32683-062150FM-12+0110SAMJ V0200901N00671220001CN0200001N9+02501+02201100931ADDAA199000291AY181999GF103991021051012501071001KA1999N+02101MD1410001+9999MW1031REMSYN00510100
0128874670999991973011813004-32683-062150FM-12+0110SAMJ V0200701N00411002101CN0200001N9+99999+99999100891ADDAY101999GA1021+012009099GA2021+012009059GF106991051031002501999999MD1610111+9999MW1031REMSYN01122811 10096EQDQ01+000702APC3  
0103874670999991973011814004-32683-062150FM-12+0110SAMJ V0200701N00511012001CN0200001N9+02201+02001101021ADDAY101999GA1021+012009099GA2031+012009059GF108991051091012501071999MD1510011+9999MW1031REMSYN00510098
0138874670999991973011815004-32683-062150FM-12+0110SAMJ V0209991C00001008101CN0030001N9+02101+02101101101ADDAY181999GA1051+008109099GA2031+008109049GF108991051999999999051001MD1210011+9999MW1951REMSYN00510117EQDQ01+000002SCOLCGQ02+000992SCOLCB
0109874670999991973011817004-32683-062150FM-12+0110SAMJ V0200901N00721003601CN0040001N9+02201+01301101021ADDAY191999GA1081+003609049GA2021+010209099GF108991999999999999999999MD1310331+9999MW1621REMSYN01121202 10108
0087874670999991973011820004-32683-062150FM-12+0110SAMJ V0200501N00461003601CN0030001N9+02101+02001101081ADDAY161999GA1081+003609049GF108991081001004501021999MD1110011+9999MW1621REMSYN00510113
0103874670999991973011821004-32683-062150FM-12+0110SAMJ V0200501N00611003601CN0050001N9+02101+02001100941ADDAY161999GA1061+003609049GA2021+030009039GF108991081001004501021999MD1810201+9999MW1211REMSYN00510098
0106874670999991973011822004-32683-062150FM-12+0110SAMJ V0200501N00511036001CN0080001N9+02101+99999100771ADDAY161999GA1021+003609079GF108991021071012501071999MD1010732+9999MW1101REMSYN00510081EQDQ01+000732APC3  
0104874670999991973011823004-32683-062150FM-12+0110SAMJ V0200501N00301036001CN0200001N9+02101+02001100891ADDAA199049091AY161999GA1011+003609079GF107991011071004501061001MD1710161+9999MW1011REMSYN01174926 10094
0094874670999991973011914004-32683-062150FM-12+0110SAMJ V0201601N00661220001CN0200001N9+02401+01901101621ADDAY121999GA1021+006009089GF105991021011008001001041MD1110071+9999MW1011REMSYN01282820 1016.7
0135874670999991973011915004-32683-062150FM-12+0110SAMJ V0201601N00661220001CN0280001N9+99999+99999999999ADDAY131999GF104991011061000751021051MD1510041+9999MW1031REMSYN01820104 81820 6016.7EQDQ01+028523ATOT  Q02+028423ATOD  Q03+097003APOSLP
0103874670999991973011916004-32683-062150FM-12+0110SAMJ V0201801N00611220001CN0200001N9+02601+02001101571ADDAY111999GA1011+006009089GF103991011011008001001041MD1410001+9999MW1011REMSYN02181820 1016.3     ?217
0072874670999991973011917004-32683-062150FM-12+0110SAMJ V0201401N00821220001CN0200001N9+02701+02101101531ADDAY101999GF103991031011012501001001MD1810041+9999MW1021REMSYN0061015.9
0082874670999991973011918004-32683-062150FM-12+0110SAMJ V0201401N00511220001CN0200001N9+02701+02001101491ADDAA199000091AY111999GF103991031011012501001001MD1810051+9999MW1021REMSYN005700//
0072874670999991973011919004-32683-062150FM-12+0110SAMJ V0201401N00661220001CN0200001N9+02801+02001101421ADDAY101999GF103991031011012501001001MD1810051+9999MW1021REMSYN0061015.0
0072874670999991973011922004-32683-062150FM-12+0110SAMJ V0201401N00461220001CN0200001N9+02701+02001999999ADDAY101999GF102991021041012501001001MD1810071+9999MW1011REMSYN0061014.2
0089874670999991973011923004-32683-062150FM-12+0110SAMJ V0201101N00661220001CN0200001N9+02601+02001101371ADDAA199200091AY101999GF101991011041012501001001MD1610071+9999MW1011REMSYN01277028 1014.3
0071874670999991973012000004-32683-062150FM-12+0110SAMJ V0200901N00251220001CN0200001N9+02301+02001101411ADDAY101999GF100991001001999999001001MD1610031+9999MW1011REMSYN00510146
0071874670999991973012001004-32683-062150FM-12+0110SAMJ V0201401N00301220001CN0200001N9+02101+02001101491ADDAY101999GF100991001001999999001001MD1310051+9999MW1021REMSYN00510153
0071874670999991973012002004-32683-062150FM-12+0110SAMJ V0201101N00461220001CN0100001N9+02001+01901101491ADDAY101999GF100991001001999999001001MD1110071+9999MW1101REMSYN00510153
0057874670999991973012003004-32683-062150FM-12+0110SAMJ V0201101N00251220001CN0100001N9+02001+01901101531ADDAY101999GF100991001001999999001001MW1101REMSYN00510157
0057874670999991973012004004-32683-062150FM-12+0110SAMJ V0201101N00411220001CN0100001N9+02001+01102101541ADDAY101999GF100991001001999999001001MW1101REMSYN00510158
0082874670999991973012006004-32683-062150FM-12+0110SAMJ V0200901N00511220001CN0070001N9+01901+01901101501ADDAA199000091AY101999GF100991001001999999001001MD1810011+9999MW1101REMSYN00510154
0071874670999991973012007004-32683-062150FM-12+0110SAMJ V0200901N00411220001CN0070001N9+01901+01801101481ADDAY101999GF100991001001999999001001MD1810081+9999MW1101REMSYN00510151
0071874670999991973012008004-32683-062150FM-12+0110SAMJ V0200901N00251220001CN0040001N9+01901+01901101481ADDAY101999GF100991001001999999001001MD1810051+9999MW1101REMSYN00510151
0071874670999991973012009004-32683-062150FM-12+0110SAMJ V0200901N00151220001CN0100001N9+01801+01801101441ADDAY101999GF100991001001999999001001MD1610051+9999MW1101REMSYN00510147
0071874670999991973012010004-32683-062150FM-12+0110SAMJ V0200901N00251220001CN0040001N9+01901+01801101421ADDAY101999GF101991001001999999001031MD1610031+9999MW1101REMSYN00510146
0103874670999991973012011004-32683-062150FM-12+0110SAMJ V0200701N00671060001CN0070001N9+02001+01901101451ADDAY111999GA1031+004509089GA2031+060009009GF106991031011004501001031MD1610031+9999MW1101REMSYN00510149
0111874670999991973012012004-32683-062150FM-12+0110SAMJ V0200501N00821004501CN0100001N9+02301+02101101451ADDAA199000091AY111999GA1051+004509089GF106991051011004501001031KA1999N+01801MD1410001+9999MW1101REMSYN00510150
0103874670999991973012013004-32683-062150FM-12+0110SAMJ V0200501N00671060001CN0200001N9+02301+02001101421ADDAY121999GA1031+004509089GA2031+060009029GF106991031011012501001061MD1810041+9999MW1021REMSYN00510147
0103874670999991973012014004-32683-062150FM-12+0110SAMJ V0200501N00461060001CN0200001N9+02501+02101101401ADDAY121999GA1031+006009089GA2031+060009029GF106991031011008001001061MD1810051+9999MW1021REMSYN00510146
0103874670999991973012015004-32683-062150FM-12+0110SAMJ V0200501N00511060001CN0200001N9+02601+02201101371ADDAY121999GA1041+006009089GA2031+060009029GF107991041011008001001061MD1610071+9999MW1031REMSYN00510143
0087874670999991973012016004-32683-062150FM-12+0110SAMJ V0200501N00671010201CN0200001N9+02701+02101101301ADDAY121999GA1051+010209089GF107991051021012501001061MD1810041+9999MW1031REMSYN00510138
0114874670999991973012018004-32683-062150FM-12+0110SAMJ V0200501N00511010201CN0200001N9+02901+02001101121ADDAA199000091AY121999GA1051+010209089GA2051+060009029GF108991051021012501001061MD1710151+9999MW1021REMSYN00510120
0103874670999991973012019004-32683-062150FM-12+0110SAMJ V0200701N00611010201CN0200001N9+03301+02701101041ADDAY121999GA1051+010209089GA2051+060009029GF108991051021012501001061MD1710201+9999MW1021REMSYN00510113
0103874670999991973012020004-32683-062150FM-12+0110SAMJ V0200501N00361060001CN0200001N9+02801+02001100971ADDAY121999GA1021+010209089GA2051+060009029GF106991021011012501001061MD1710161+9999MW1011REMSYN00510105
0103874670999991973012021004-32683-062150FM-12+0110SAMJ V0200701N00671060001CN0200001N9+02801+02001100891ADDAY121999GA1021+010209089GA2041+060009029GF106991021011012501001061MD1710251+9999MW1011REMSYN0051009*
0103874670999991973012022004-32683-062150FM-12+0110SAMJ V0200501N00771060001CN0200001N9+02701+02001100891ADDAY121999GA1011+010209059GA2051+060009029GF106991011041012501001061MD1710201+9999MW1011REMSYN00510096
0088874670999991973012023004-32683-062150FM-12+0110SAMJ V0200701N00461220001CN0200001N9+02601+02101100691ADDAA199000091AY121999GF105991001001999999001061MD1610121+9999MW1011REMSYN01170029 10096
0071874670999991973012100004-32683-062150FM-12+0110SAMJ V0200701N00361220001CN0200001N9+99999+99999100921ADDAY121999GF105991001001999999001061MD1610141+9999MW1011REMSYN00510097
0071874670999991973012101004-32683-062150FM-12+0110SAMJ V0200701N00251220001CN0200001N9+02201+02001100931ADDAY121999GF104991001001999999001061MD1410001+9999MW1011REMSYN00510098
0071874670999991973012102004-32683-062150FM-12+0110SAMJ V0200701N00671220001CN0200001N9+02201+02001999999ADDAY121999GF104991001001999999001061MD1310011+9999MW1021REMSYN00510102
0071874670999991973012103004-32683-062150FM-12+0110SAMJ V0200701N00511220001CN0200001N9+02101+02001100941ADDAY111999GF104991001001999999001061MD1110011+9999MW1021REMSYN00510100
0071874670999991973012104004-32683-062150FM-12+0110SAMJ V0200701N00251220001CN0200001N9+02101+02001100941ADDAY111999GF103991001001999999001021MD1110011+9999MW1011REMSYN00510100
0071874670999991973012105004-32683-062150FM-12+0110SAMJ V0200701N00411220001CN0200001N9+02101+02001100931ADDAY101999GF103991001001999999001021MD1410001+9999MW1021REMSYN00510108
0082874670999991973012106004-32683-062150FM-12+0110SAMJ V0200901N00251220001CN0200001N9+01901+01901100761ADDAA199000091AY121999GF101991001001999999001021MD1710131+9999MW1011REMSYN00510082
0090874670999991973012108004-32683-062150FM-12+0110SAMJ V0200901N00251220001CN0100001N9+01901+01901999999ADDAY121999GF100991001001999999001001MD1710151+9999MW1101REMSYN00510076EQDQ01+101723APOSLP
0071874670999991973012109004-32683-062150FM-12+0110SAMJ V0200701N00151220001CN0090001N9+01801+01801100781ADDAY101999GF101991011001999999061001MD1610071+9999MW1101REMSYN00510073
0071874670999991973012110004-32683-062150FM-12+0110SAMJ V0200701N00201220001CN0070001N9+01801+01801100691ADDAY101999GF102991021001999999061001MD1610051+9999MW1101REMSYN00510073
0071874670999991973012111004-32683-062150FM-12+0110SAMJ V0200501N00361220001CN0100001N9+02101+02001100681ADDAY101999GF101991011001999999061001MD1410001+9999MW1101REMSYN00510073
0095874670999991973012112004-32683-062150FM-12+0110SAMJ V0200501N00461220001CN0200001N9+02301+02001100681ADDAA199000091AY101999GF100991001001999999001001KA1999N+01801MD1810031+9999MW1011REMSYN00510073
0071874670999991973012113004-32683-062150FM-12+0110SAMJ V0200501N00511220001CN0200001N9+02501+02101100661ADDAY101999GF100991001001999999001001MD1610071+9999MW1021REMSYN00510073
0071874670999991973012114004-32683-062150FM-12+0110SAMJ V0200501N00251220001CN0200001N9+02701+02101100651ADDAY101999GF103991031011012501001001MD1610071+9999MW1031REMSYN00510073
0071874670999991973012115004-32683-062150FM-12+0110SAMJ V0200501N00201220001CN0200001N9+02801+02001100581ADDAY101999GF103991031011012501001001MD1810051+9999MW1021REMSYN00510066
0071874670999991973012116004-32683-062150FM-12+0110SAMJ V0200501N00151220001CN0200001N9+02901+01901100521ADDAY101999GF103991031011012501001001MD1710131+9999MW1021REMSYN00510060
0071874670999991973012117004-32683-062150FM-12+0110SAMJ V0200901N00411220001CN0200001N9+03001+01901100521ADDAY101999GF103991031011012501001001MD1610131+9999MW1021REMSYN00510060
0088874670999991973012118004-32683-062150FM-12+0110SAMJ V0200501N00151220001CN0200001N9+03001+01901100421ADDAA199000091AY101999GF101991011011012501001001MD1810241+9999MW1011REMSYN01110033 10105
0076874670999991973012120004-32683-062150FM-12+0110SAMJ V0209991C00001220001CN0002001N9+99999+99999999999ADDAY111999GF101991011071017501011091MD1010001+9999MW1931EQDQ01+101163APOSLP
0071874670999991973012122004-32683-062150FM-12+0110SAMJ V0209991C00001220001CN0200001N9+03001+01901100161ADDAY101999GF100991001001999999001001MD1710161+9999MW1021REMSYN00510024
0088874670999991973012123004-32683-062150FM-12+0110SAMJ V0200701N00411220001CN0200001N9+02901+02201100131ADDAA199000091AY101999GF100991001001999999001001MD1710151+9999MW1021REMSYN01170031 10020
0057874670999991973012200004-32683-062150FM-12+0110SAMJ V0209991C00001220001CN0200001N9+02501+02201100181ADDAY101999GF100991001001999999001001MD1710131+9999MW1021
0071874670999991973012201004-32683-062150FM-12+0110SAMJ V0200701N00411220001CN0200001N9+02401+02001100281ADDAY101999GF100991001001999999001001MD1010031+9999MW1021REMSYN00510033
0071874670999991973012202004-32683-062150FM-12+0110SAMJ V0200701N00511220001CN0200001N9+02401+02001100321ADDAY101999GF104991031001999999071011MD1210111+9999MW1031REMSYN00510038
0071874670999991973012203004-32683-062150FM-12+0110SAMJ V0200701N00611220001CN0200001N9+02401+02001100341ADDAY101999GF105991041001999999071011MD1210191+9999MW1031REMSYN00510041
0071874670999991973012204004-32683-062150FM-12+0110SAMJ V0202301N01281012001CN0050001N9+02401+02001100341ADDAY111999GF108991051091012501071999MD1210071+9999MW1951REMSYN00510041
0114874670999991973012206004-32683-062150FM-12+0110SAMJ V0201601N00611036001CN0200001N9+01901+01801100421ADDAA199012091AY191999GA1011+012009099GA2081+012009049GF108991011051012501021999MD1010091+9999MW1211REMSYN00510046
0071874670999991973012208004-32683-062150FM-12+0110SAMJ V0203201N00511220001CN0200001N9+01901+01801100421ADDAY101999GF101991011001999999071001MD1710371+9999MW1021REMSYN00510045
0106874670999991973012209004-32683-062150FM-12+0110SAMJ V0203201N00611012001CN0200001N9+02101+01801999999ADDAY191999GA1051+012009049GF105991051001999999021001MD1710091+9999MW1011REMSYN00510046EQDQ01+000992SCOLCB
0071874670999991973012210004-32683-062150FM-12+0110SAMJ V0203601N00151036001CN0200001N9+01901+01801100421ADDAY101999GF105991051001999999031001MD1010011+9999MW1031REMSYN00510046
0071874670999991973012211004-32683-062150FM-12+0110SAMJ V0201601N00611036001CN0200001N9+02001+01901100541ADDAY101999GF106991061001999999071001MD1210131+9999MW1031REMSYN00510058
0095874670999991973012212004-32683-062150FM-12+0110SAMJ V0209991C00001220001CN0200001N9+02201+02001100561ADDAA199012091AY121999GF104991041001999999071001KA1999N+01801MD1210201+9999MW1011REMSYN00510061
0071874670999991973012213004-32683-062150FM-12+0110SAMJ V0209991C00001036001CN0200001N9+02301+02101100561ADDAY111999GF105991011051012501071001MD1210121+9999MW1031REMSYN00510061
0090874670999991973012214004-32683-062150FM-12+0110SAMJ V0209991C00001036001CN0200001N9+02301+02101100561ADDAY111999GF105991021051012501071001MD1110021+9999MW1021REMSYN00510061EQDQ01+000002APC3  
0090874670999991973012215004-32683-062150FM-12+0110SAMJ V0209991C00001036001CN0200001N9+02401+02101100561ADDAY121999GF105991021051012501071001MD1410001+9999MW1021REMSYN00510061EQDQ01+000052APC3  
0071874670999991973012216004-32683-062150FM-12+0110SAMJ V0202501N00251036001CN0200001N9+02601+02101100531ADDAY121999GF105991021051012501071001MD1810031+9999MW1021REMSYN00510060
0071874670999991973012217004-32683-062150FM-12+0110SAMJ V0209991C00001220001CN0200001N9+02801+02001100521ADDAY121999GF103991031001999999071001MD1710131+9999MW1011REMSYN00510046
0068874670999991973012218004-32683-062150FM-12+0110SAMJ V0209991C00001220001CN0200001N9+02901+02101100321ADDAA199000091AY111999GF102991021001999999031001MD1710211+9999MW1011
0071874670999991973012219004-32683-062150FM-12+0110SAMJ V0209991C00001220001CN0200001N9+03001+02101100261ADDAY101999GF102991021001999999031001MD1710241+9999MW1021REMSYN00510036
0105874670999991973012220004-32683-062150FM-12+0110SAMJ V0209991C00001220001CN0200001N9+99999+99999100231ADDAY101999GA1021+030009039GF103991031031999999999999MD1310331+9999MW1031REMSYN02302431 20933 22713 10032
0087874670999991973012221004-32683-062150FM-12+0110SAMJ V0209991C00001220001CN0200001N9+03001+02301100141ADDAY101999GA1011+030009039GF103991011001999999031031MD1710151+9999MW1021REMSYN00510023
0087874670999991973012222004-32683-062150FM-12+0110SAMJ V0200701N00201090001CN0200001N9+99999+99999100161ADDAY101999GA1041+030009049GF106991041001999999021031MD1710111+9999MW1031REMSYN00510026
0120874670999991973012223004-32683-062150FM-12+0110SAMJ V0209991C00001030001CN0200001N9+02801+02501100131ADDAA199000091AY121999GA1011+010209089GA2041+030009049GF107991011021012501021031MD1710121+9999MW1031REMSYN01170031 10020
0071874670999991973012300004-32683-062150FM-12+0110SAMJ V0200901N00201036001CN0100001N9+02501+02301100141ADDAY121999GF106991021091012501021001MD1610041+9999MW1131REMSYN00510031
0087874670999991973012301004-32683-062150FM-12+0110SAMJ V0209991C00001036001CN0100001N9+02501+02301100211ADDAY121999GA1021+012009099GF106991021091012501021001MD1310091+9999MW1131REMSYN00510027
0087874670999991973012302004-32683-062150FM-12+0110SAMJ V0200501N00301036001CN0100001N9+02501+02201100211ADDAY121999GA1021+012009099GF106991021091012501021001MD1210111+9999MW1131REMSYN00510027
0087874670999991973012303004-32683-062150FM-12+0110SAMJ V0209991C000019999999N0100001N9+02501+02301100281ADDAY121999GA1021+012009099GF108991999999999999999999MD1210151+9999MW1131REMSYN00510038
0098874670999991973012306004-32683-062150FM-12+0110SAMJ V0202301N003019999999N0100001N9+02301+02001100201ADDAA199002091AY161999GA1021+012009099GF108991999999999999999999MD1610121+9999MW1131REMSYN00510024
0087874670999991973012307004-32683-062150FM-12+0110SAMJ V0202901N005119999999N0100001N9+02301+02001100261ADDAY121999GA1021+012009099GF108991999999999999999999MD1310011+9999MW1131REMSYN00510028
0087874670999991973012310004-32683-062150FM-12+0110SAMJ V0201801N00201036001CN0200001N9+01901+01801100581ADDAY121999GA1031+006009059GF107991031051008001021001MD1210351+9999MW1011REMSYN00510062
0087874670999991973012311004-32683-062150FM-12+0110SAMJ V0201401N00301036001CN0200001N9+01901+01801100581ADDAY121999GA1021+006009059GF107991021051008001021001MD1210281+9999MW1021REMSYN00510062
0111874670999991973012312004-32683-062150FM-12+0110SAMJ V0201101N00611036001CN0200001N9+01901+01801100651ADDAA199002091AY121999GA1021+006009059GF107991021051008001021001KA1999N+01901MD1210251+9999MW1021REMSYN00510069
0087874670999991973012314004-32683-062150FM-12+0110SAMJ V0202001N00821036001CN0200001N9+02101+01801100821ADDAY121999GA1041+006009059GF106991041051008001031001MD1210121+9999MW1011REMSYN00510088
0103874670999991973012315004-32683-062150FM-12+0110SAMJ V0201801N00721036001CN0200001N9+02201+01701100841ADDAY121999GA1031+006009059GA2011+007509089GF107991041081008001031001MD1110011+9999MW1031REMSYN00510089
0097874670999991973012316004-32683-062150FM-12+0110SAMJ V0201801N00871007501CN9999999N9+02201+01701100841ADDAY121999GA1031+006009059GA2021+007509089GF107991051081008001031001MD1110011+9999REMSYN00510089
0082874670999991973012318004-32683-062150FM-12+0110SAMJ V0201801N00971090001CN0200001N9+02501+01501100841ADDAA199000091AY111999GF105991011021012501061021MD1310051+9999MW1031REMSYN00510090
0099874670999991973012319004-32683-062150FM-12+0110SAMJ V0201801N01181220001CN0200001N9+99999+99999100871ADDAY111999GA1011+010209089GF103991031999999999999999MD1610251+9999MW1011REMSYN01712662 12312 10093
0071874670999991973012321004-32683-062150FM-12+0110SAMJ V0201601N01031220001CN0200001N9+02401+01001100821ADDAY101999GF101991011021012501001001MD1110071+9999MW1021REMSYN00510089
0071874670999991973012322004-32683-062150FM-12+0110SAMJ V0201801N00821220001CN0200001N9+02401+00801100891ADDAY101999GF101991011021012501001001MD1310031+9999MW1021REMSYN00510094
0088874670999991973012323004-32683-062150FM-12+0110SAMJ V0201801N00871220001CN0200001N9+02201+00801100961ADDAA199000091AY111999GF100991001001999999001001MD1310091+9999MW1011REMSYN01170025 10101
0071874670999991973012400004-32683-062150FM-12+0110SAMJ V0201401N00461220001CN0200001N9+01901+01001101051ADDAY101999GF100991001001999999001001MD1310171+9999MW1021REMSYN00510109
0071874670999991973012401004-32683-062150FM-12+0110SAMJ V0201801N00251220001CN0200001N9+01601+01101101121ADDAY101999GF100991001001999999001001MD1110171+9999MW1021REMSYN00510114
0071874670999991973012402004-32683-062150FM-12+0110SAMJ V0209991C00001220001CN0200001N9+01301+01101101251ADDAY101999GF100991001001999999001001MD1110201+9999MW1021REMSYN00510126
0071874670999991973012403004-32683-062150FM-12+0110SAMJ V0209991C00001220001CN0200001N9+01301+01101101361ADDAY101999GF100991001001999999001001MD1110151+9999MW1021REMSYN00510129
0071874670999991973012404004-32683-062150FM-12+0110SAMJ V0209991C00001220001CN0100001N9+01201+01101101291ADDAY101999GF100991001001999999001001MD1110131+9999MW1101REMSYN00510131
0071874670999991973012405004-32683-062150FM-12+0110SAMJ V0209991C00001220001CN0100001N9+01201+01101101331ADDAY101999GF100991001001999999001001MD1110051+9999MW1101REMSYN00510133
0082874670999991973012406004-32683-062150FM-12+0110SAMJ V0202301N00511220001CN0100001N9+01201+01001101291ADDAA199000091AY101999GF100991001001999999001001MD1110011+9999MW1101REMSYN00510129
0071874670999991973012407004-32683-062150FM-12+0110SAMJ V0202301N00671220001CN0100001N9+01101+01001101321ADDAY101999GF100991001001999999001001MD1410001+9999MW1101REMSYN00510131
0071874670999991973012408004-32683-062150FM-12+0110SAMJ V0202301N00461220001CN0100001N9+01101+01001101331ADDAY101999GF100991001001999999001001MD1410001+9999MW1101REMSYN00510133
0077874670999991973012409004-32683-062150FM-12+0110SAMJ V0209991C00001220001CN0110001N9+00901+00801101451ADDAY101999GF100991001001999999001001MD1310131+9999MW1001REMSYN0110133* 10145
0071874670999991973012410004-32683-062150FM-12+0110SAMJ V0209991C00001220001CN0100001N9+00801+00801101511ADDAY101999GF100991001001999999001001MD1310211+9999MW1101REMSYN00510146
0071874670999991973012411004-32683-062150FM-12+0110SAMJ V0209991C00001220001CN0200001N9+01101+01001101581ADDAY101999GF101991011001999999031001MD1210321+9999MW1031REMSYN00510158
0095874670999991973012412004-32683-062150FM-12+0110SAMJ V0201401N00251220001CN0200001N9+01501+01001101661ADDAA199000091AY101999GF101991011001999999031001KA1999N+00801MD1110211+9999MW1021REMSYN00510167
0071874670999991973012414004-32683-062150FM-12+0110SAMJ V0202301N00301220001CN0200001N9+02001+01101101581ADDAY101999GF101991011001999999051001MD1810041+9999MW1011REMSYN00510162
0071874670999991973012415004-32683-062150FM-12+0110SAMJ V0202301N00151036001CN0200001N9+02101+01001101611ADDAY111999GF105991051001999999051001MD1610031+9999MW1031REMSYN00510166
0071874670999991973012416004-32683-062150FM-12+0110SAMJ V0201801N00461036001CN0200001N9+02301+01001101581ADDAY111999GF106991061001999999051001MD1610031+9999MW1031REMSYN00510163
0071874670999991973012417004-32683-062150FM-12+0110SAMJ V0201401N00671220001CN0200001N9+02401+01101101461ADDAY121999GF103991031001999999061001MD1110031+9999MW1011REMSYN00510156
0082874670999991973012418004-32683-062150FM-12+0110SAMJ V0201801N00251220001CN0200001N9+02301+00901101411ADDAA199000091AY121999GF103991031001999999061001MD1810121+9999MW1021REMSYN00510147
0071874670999991973012419004-32683-062150FM-12+0110SAMJ V0201801N00151220001CN0200001N9+02601+01101101331ADDAY101999GF103991031001999999061001MD1710111+9999MW1021REMSYN00510139
0063874670999991973012420004-32683-062150FM-12+0110SAMJ V0201401N00151220001CN0200001N9+02601+99999101341ADDAY101999GF103991031001999999061999MW1021REMSYN01111  1 10141
0071874670999991973012421004-32683-062150FM-12+0110SAMJ V0201101N00201220001CN0200001N9+02501+01201101341ADDAY101999GF103991031001999999061001MD1410001+9999MW1021REMSYN00510141
0071874670999991973012422004-32683-062150FM-12+0110SAMJ V0209991C00001220001CN0200001N9+02501+01301101301ADDAY101999GF101991011001999999061001MD1810031+9999MW1011REMSYN00510137
0090874670999991973012500004-32683-062150FM-12+0110SAMJ V0201401N00101220001CN0200001N9+01901+01601101441ADDAY101999GF100991001001999999001001MD1310101+9999MW1021REMSYN0051014*EQDQ01+000002APC3  
0071874670999991973012501004-32683-062150FM-12+0110SAMJ V0209991C00001220001CN0200001N9+01701+01401101421ADDAY101999GF100991001001999999001001MD1210161+9999MW1021REMSYN00510145
0071874670999991973012502004-32683-062150FM-12+0110SAMJ V0209991C00001220001CN0200001N9+01601+01201101621ADDAY101999GF100991001001999999001001MD1210201+9999MW1021REMSYN00510165
0071874670999991973012503004-32683-062150FM-12+0110SAMJ V0209991C00001220001CN0200001N9+01501+01301101681ADDAY101999GF100991001001999999001001MD1210201+9999MW1021REMSYN00510169
0071874670999991973012504004-32683-062150FM-12+0110SAMJ V0209991C00001220001CN0200001N9+01801+01301101711ADDAY101999GF100991001001999999001001MD1210131+9999MW1021REMSYN00510171
0071874670999991973012505004-32683-062150FM-12+0110SAMJ V0209991C00001220001CN0200001N9+01401+01301101711ADDAY101999GF100991001001999999001001MD1110091+9999MW1021REMSYN00510171
0082874670999991973012506004-32683-062150FM-12+0110SAMJ V0203201N00151220001CN0200001N9+01301+01201101681ADDAA199000091AY101999GF100991001001999999001001MD1110031+9999MW1021REMSYN00510169
0071874670999991973012507004-32683-062150FM-12+0110SAMJ V0209991C00001220001CN0200001N9+01301+01101101661ADDAY101999GF100991001001999999001001MD1410001+9999MW1021REMSYN00510167
0071874670999991973012508004-32683-062150FM-12+0110SAMJ V0203201N00101220001CN0200001N9+01301+01101101661ADDAY101999GF100991001001999999001001MD1410001+9999MW1021REMSYN00510167
0071874670999991973012511004-32683-062150FM-12+0110SAMJ V0200701N00461220001CN0200001N9+01401+01101101491ADDAY101999GF100991001001999999001001MD1210231+9999MW1021REMSYN00510194
0114874670999991973012512004-32683-062150FM-12+0110SAMJ V0200701N00721220001CN0200001N9+01701+01101101932ADDAA199000091AY101999GF100991001001999999001001KA1999N+01201MD1210131+9999MW1021REMSYN00510195EQDQ01+101933APOSLP
0071874670999991973012513004-32683-062150FM-12+0110SAMJ V0200701N00821220001CN0200001N9+02001+01101101921ADDAY101999GF100991001001999999001001MD1110121+9999MW1021REMSYN00510195
0106874670999991973012514004-32683-062150FM-12+0110SAMJ V0200701N00771220001CN0200001N9+02201+00901101901ADDAY101999GF100991001001999999001001MD1210411+9999MW1021REMSYN00510195EQDQ01+000042APCTENQ02+000012APC3  
0071874670999991973012515004-32683-062150FM-12+0110SAMJ V0200701N00771220001CN0200001N9+02401+01101101901ADDAY101999GF100991001001999999001001MD1410001+9999MW1021REMSYN00510195
0063874670999991973012517004-32683-062150FM-12+0110SAMJ V0200901N00611220001CN0200001N9+99999+99999101771ADDAY101999GF100991999999999999999999MW1021REMSYN01111  2 10183
0068874670999991973012518004-32683-062150FM-12+0110SAMJ V0209991C00001220001CN0200001N9+02501+01101101731ADDAA199000091AY101999GF100991001001999999001001MD1710151+9999MW1021
0071874670999991973012520004-32683-062150FM-12+0110SAMJ V0203601N00511220001CN0200001N9+02601+01201101571ADDAY101999GF100991001001999999001001MD1710161+9999MW1021REMSYN00510163
0071874670999991973012521004-32683-062150FM-12+0110SAMJ V0200501N00671220001CN0200001N9+02601+01301101451ADDAY101999GF101991011011012501001001MD1710231+9999MW1031REMSYN00510151
0071874670999991973012522004-32683-062150FM-12+0110SAMJ V0200501N00671220001CN0200001N9+02501+01301101421ADDAY101999GF100991001001999999001001MD1710151+9999MW1011REMSYN00510149
0088874670999991973012523004-32683-062150FM-12+0110SAMJ V0200501N00511220001CN0200001N9+02401+01401101421ADDAA199000091AY101999GF100991001001999999001001MD1710151+9999MW1021REMSYN01170026 10147
0071874670999991973012600004-32683-062150FM-12+0110SAMJ V0200501N00511220001CN0200001N9+02001+01601101371ADDAY101999GF100991001001999999001001MD1710091+9999MW1021REMSYN00510141
0071874670999991973012601004-32683-062150FM-12+0110SAMJ V0200701N00611220001CN0200001N9+01901+01401101441ADDAY101999GF100991001001999999001001MD1710091+9999MW1021REMSYN00510147
0071874670999991973012602004-32683-062150FM-12+0110SAMJ V0200701N00721220001CN0200001N9+01701+01301101491ADDAY101999GF100991001001999999001001MD1010031+9999MW1021REMSYN00510151
0071874670999991973012603004-32683-062150FM-12+0110SAMJ V0200501N00411220001CN0200001N9+01501+01101101501ADDAY101999GF100991001001999999001001MD1210071+9999MW1021REMSYN00510151
0071874670999991973012604004-32683-062150FM-12+0110SAMJ V0200501N00511220001CN0200001N9+01401+01101101521ADDAY101999GF100991001001999999001001MD1210111+9999MW1021REMSYN00510153
0082874670999991973012606004-32683-062150FM-12+0110SAMJ V0200501N00611220001CN0200001N9+01401+01201101411ADDAA199000091AY101999GF100991001001999999001001MD1810081+9999MW1021REMSYN00510142
0071874670999991973012607004-32683-062150FM-12+0110SAMJ V0200501N00511220001CN0200001N9+01401+01101101411ADDAY101999GF100991001001999999001001MD1710131+9999MW1021REMSYN00510142
0071874670999991973012608004-32683-062150FM-12+0110SAMJ V0200501N00411220001CN0200001N9+01401+01201101411ADDAY101999GF100991001001999999001001MD1010121+9999MW1021REMSYN00510142
0071874670999991973012609004-32683-062150FM-12+0110SAMJ V0200501N00511220001CN0200001N9+01401+01201101371ADDAY101999GF100991001001999999001001MD1010041+9999MW1021REMSYN00510138
0090874670999991973012610004-32683-062150FM-12+0110SAMJ V0200501N00671220001CN0200001N9+01401+01201101371ADDAY101999GF100991001001999999001001MD1610041+9999MW1021REMSYN00510138EQDQ01+000002APC3  
0063874670999991973012611004-32683-062150FM-12+0110SAMJ V0200201N00611220001CN0200001N9+99999+99999999999ADDAY101999GF100991999999999999999999MW1021REMSYN01113300 10140
0081874670999991973012612004-32683-062150FM-12+0110SAMJ V0200201N00671220001CN0200001N9+02001+01301101441ADDAA199000091AY101999GF100991001001999999001001KA1999N+01301MD1210071+9999MW1021
0071874670999991973012613004-32683-062150FM-12+0110SAMJ V0200201N00871220001CN0200001N9+02201+01301101441ADDAY101999GF100991001001999999001001MD1010001+9999MW1021REMSYN00510149
0071874670999991973012614004-32683-062150FM-12+0110SAMJ V0203601N00771220001CN0200001N9+02301+01301101441ADDAY101999GF100991001001999999001001MD1610011+9999MW1021REMSYN00510149
0090874670999991973012615004-32683-062150FM-12+0110SAMJ V0203601N00771220001CN0200001N9+02301+01301101441ADDAY101999GF100991001001999999001001MD1410001+9999MW1021REMSYN00510***EQDQ01+000072APC3  
0071874670999991973012617004-32683-062150FM-12+0110SAMJ V0203601N00611220001CN0200001N9+02801+01501101211ADDAY101999GF100991001001999999001001MD1810091+9999MW1021REMSYN00510130
0082874670999991973012618004-32683-062150FM-12+0110SAMJ V0203601N00721220001CN0200001N9+02801+01501101181ADDAA199000091AY101999GF100991001001999999001001MD1710161+9999MW1021REMSYN00510120
0071874670999991973012619004-32683-062150FM-12+0110SAMJ V0203601N00821220001CN0200001N9+02801+01501101081ADDAY101999GF100991001001999999001001MD1710251+9999MW1021REMSYN0051011*
0071874670999991973012620004-32683-062150FM-12+0110SAMJ V0200201N00771220001CN0200001N9+02801+01501101011ADDAY101999GF100991001001999999001001MD1710191+9999MW1021REMSYN00510109
0071874670999991973012621004-32683-062150FM-12+0110SAMJ V0200201N00871220001CN0200001N9+02801+01501101011ADDAY101999GF102991021001999999031001MD1710131+9999MW1031REMSYN00510109
0071874670999991973012622004-32683-062150FM-12+0110SAMJ V0200501N00671220001CN0200001N9+02701+01501101011ADDAY101999GF100991001001999999001001MD1610031+9999MW1011REMSYN00510109
0088874670999991973012623004-32683-062150FM-12+0110SAMJ V0200501N00721220001CN0200001N9+02601+01601101011ADDAA199000091AY101999GF100991001001999999001001MD1410001+9999MW1021REMSYN01170028 10108
0057874670999991973012700004-32683-062150FM-12+0110SAMJ V0202501N00671220001CN0200001N9+02201+01601101021ADDAY101999GF101991011001999999031001MD1110031+9999MW1031
0071874670999991973012701004-32683-062150FM-12+0110SAMJ V0200501N00511220001CN0200001N9+02201+01401101141ADDAY101999GF100991001001999999001001MD1310041+9999MW1011REMSYN00510120
0071874670999991973012702004-32683-062150FM-12+0110SAMJ V0209991C00001220001CN0200001N9+02201+01501101251ADDAY121999GF100991001001999999001001MD1210151+9999MW1021REMSYN00510132
0071874670999991973012704004-32683-062150FM-12+0110SAMJ V0200201N00361220001CN0200001N9+01901+01501101291ADDAY101999GF100991001001999999001001MD1110011+9999MW1021REMSYN00510124
0071874670999991973012705004-32683-062150FM-12+0110SAMJ V0200501N00301220001CN0200001N9+02001+01601101261ADDAY101999GF100991001001999999001001MD1210111+9999MW1021REMSYN00510131
0082874670999991973012706004-32683-062150FM-12+0110SAMJ V0200501N00461220001CN0200001N9+02001+01601101181ADDAA199000091AY101999GF103991031001999999031001MD1810011+9999MW1031REMSYN00510122
0071874670999991973012708004-32683-062150FM-12+0110SAMJ V0200501N00411220001CN0200001N9+01901+01601101161ADDAY101999GF101991011001999999031001MD1710071+9999MW1011REMSYN00510120
0095874670999991973012712004-32683-062150FM-12+0110SAMJ V0200201N00301220001CN0200001N9+02301+01801101281ADDAA199000091AY101999GF101991011001999999031001KA1999N+01901MD1210131+9999MW1011REMSYN00510134
0071874670999991973012713004-32683-062150FM-12+0110SAMJ V0203601N00201220001CN0200001N9+02601+01901101261ADDAY101999GF102991021001999999031001MD1210131+9999MW1031REMSYN00510134
0071874670999991973012714004-32683-062150FM-12+0110SAMJ V0203601N00361220001CN0200001N9+02801+01601101261ADDAY101999GF102991021001999999031001MD1110121+9999MW1021REMSYN00510135
0071874670999991973012715004-32683-062150FM-12+0110SAMJ V0200201N00301036001CN0200001N9+02901+01901101301ADDAY101999GF106991061001999999031001MD1110011+9999MW1031REMSYN00510138
0071874670999991973012716004-32683-062150FM-12+0110SAMJ V0200201N004619999999N0200001N9+03001+02101101321ADDAY111999GF105991999001999999031001MD1110011+9999MW1011REMSYN00510141
0098874670999991973012717004-32683-062150FM-12+0110SAMJ V0203501N00251036001CN0200001N9+03101+01901101221ADDAY121999GA1031+030009039GF106991031021012501061001MD1410001+9999MW1031UA1M999999999UG1111651009
0114874670999991973012718004-32683-062150FM-12+0110SAMJ V0200501N00151030001CN0200001N9+03101+01801101201ADDAA199000091AY111999GA1011+010209089GA2051+030009039GF106991011021012501061001MD1810011+9999MW1021REMSYN00510130
0086874670999991973012719004-32683-062150FM-12+0110SAMJ V0200801N00301220001CN0200001N9+03101+01801101171ADDAY111999GF103991031001999999071001MA1999999089231MD1810071+9999MW1011REMSYN0051012*
0087874670999991973012720004-32683-062150FM-12+0110SAMJ V0203601N00151220001CN0200001N9+03201+01801101131ADDAY111999GA1011+010209089GF102991011011012501071001MD1610071+9999MW1011REMSYN00510122
0071874670999991973012721004-32683-062150FM-12+0110SAMJ V0200501N00411220001CN0300001N9+03201+01801101101ADDAY101999GF103991031001999999061001MD1610071+9999MW1031REMSYN00510120
0071874670999991973012722004-32683-062150FM-12+0110SAMJ V0209999999999036001CN0200001N9+03101+01901101091ADDAY111999GF105991051001999999061001MD1810031+9999MW1031REMSYN00510118
0088874670999991973012723004-32683-062150FM-12+0110SAMJ V0200701N00301220001CN0200001N9+03001+02101101161ADDAA199000091AY111999GF103991031001999999061001MD1410001+9999MW1011REMSYN01170032 10124
0071874670999991973012800004-32683-062150FM-12+0110SAMJ V0200501N00461220001CN0200001N9+02601+01901101201ADDAY111999GF101991011001999999061001MD1110011+9999MW1011REMSYN00510126
0071874670999991973012801004-32683-062150FM-12+0110SAMJ V0200501N00671220001CN0200001N9+02401+01901101331ADDAY101999GF100991001001999999001001MD1310161+9999MW1021REMSYN00510138
0071874670999991973012802004-32683-062150FM-12+0110SAMJ V0200701N00511220001CN0200001N9+02301+01801101441ADDAY101999GF100991001001999999001001MD1310201+9999MW1021REMSYN00510149
