0377999999038531972010100005+30400-081417SAO  +0005NRB  V0201705N002652200059N011200599+02115+01785101775ADDGA1999+006104084GA2999+999999999GA3999+999999999GA4999+999999999GD12025+9999999GD20005+9999999GD30005+9999999GD40005+9999999GF102025999999999999999999MA1999999101735EQDN01 00000JPWTH 1QNNE11 1 00203E11 1 00000E11 1 00000E11 1 00000G11U1 99999H11 1 11020H11 1 00999H11 1 00999H11 1 00999K11 1 00064L11 1 00700M11 1 30040N11 1 00000Q11 1 10177S11 1 00070V11 1 00303X11 1 17005
0269999999038531972010101005+30400-081417SAO  +0005NRB  V02099959000050304849N011200599+02115+01785101915ADDGD12995+9999999GD23995+9999999GD30995+9999999GD40995+9999999GF106065999999999999999999MA1999999101865EQDN01 00000JPWTH 1QNNE11 1 00299E11 1 00499E11 1 00099E11 1 00099G11 1 00100K11 1 00064L11 1 00700M11 1 30080N11 1 00000Q11 1 10191S11 1 00070V11 1 00808X11 1 00000
0269999999038531972010102005+30400-081417SAO  +0005NRB  V0202805N001550243849N011200599+02115+01785101975ADDGD13995+9999999GD20995+9999999GD30995+9999999GD40995+9999999GF107075999999999999999999MA1999999101935EQDN01 00000JPWTH 1QNNE11 1 00499E11 1 00099E11 1 00099E11 1 00099G11 1 00080K11 1 00064L11 1 00700M11 1 30100N11 1 00000Q11 1 10197S11 1 00070V11 1 00909X11 1 28003
0323999999038531972010103005+30400-081417SAO  +0005NRB  V0203605N002650243849N011200599+02175+01785102005ADDGA1999+006104084GA2999+024384034GD12025+9999999GD24065+9999999GD30995+9999999GD40995+9999999GF108085999999999999999999MA1999999101965EQDN01 00000JPWTH 1QNNE11 1 00202E11 1 00608E11 1 00099E11 1 00099G11 1 00080H11 1 11020H11 1 23080K11 1 00064L11 1 00700M11 1 30110N11 1 00000Q11 1 10200S11 1 00071V11 1 01010X11 1 36005
0269999999038531972010104005+30400-081417SAO  +0005NRB  V02099959000050243849N011200599+02175+01785102005ADDGD12995+9999999GD23995+9999999GD30995+9999999GD40995+9999999GF106065999999999999999999MA1999999101965EQDN01 00000JPWTH 1QNNE11 1 00299E11 1 00499E11 1 00099E11 1 00099G11 1 00080K11 1 00064L11 1 00700M11 1 30110N11 1 00000Q11 1 10200S11 1 00071V11 1 00808X11 1 00000
0269999999038531972010105005+30400-081417SAO  +0005NRB  V02099959000050243849N011200599+02115+01785101985ADDGD12995+9999999GD23995+9999999GD30995+9999999GD40995+9999999GF107075999999999999999999MA1999999101935EQDN01 00000JPWTH 1QNNE11 1 00299E11 1 00499E11 1 00099E11 1 00099G11 1 00080K11 1 00064L11 1 00700M11 1 30100N11 1 00000Q11 1 10198S11 1 00070V11 1 00909X11 1 00000
0377999999038531972010106005+30400-081417SAO  +0005NRB  V02099959000050243849N011200599+02065+01785101885ADDGA1999+024384034GA2999+999999999GA3999+999999999GA4999+999999999GD13075+9999999GD20005+9999999GD30005+9999999GD40005+9999999GF107075999999999999999999MA1999999101835EQDN01 00000JPWTH 1QNNE11 1 00409E11 1 00000E11 1 00000E11 1 00000G11 1 00080H11 1 23080H11 1 00999H11 1 00999H11 1 00999K11 1 00064L11 1 00700M11 1 30070N11 1 00000Q11 1 10188S11 1 00069V11 1 00909X11 1 00000
0269999999038531972010107005+30400-081417SAO  +0005NRB  V02099959000050243849N011200599+02065+01785101945ADDGD13995+9999999GD20995+9999999GD30995+9999999GD40995+9999999GF106065999999999999999999MA1999999101905EQDN01 00000JPWTH 1QNNE11 1 00499E11 1 00099E11 1 00099E11 1 00099G11 1 00080K11 1 00064L11 1 00700M11 1 30090N11 1 00000Q11 1 10194S11 1 00069V11 1 00808X11 1 00000
0269999999038531972010108005+30400-081417SAO  +0005NRB  V0200305N002150030549N011200599+02065+01785101965ADDGD14995+9999999GD20995+9999999GD30995+9999999GD40995+9999999GF108085999999999999999999MA1999999101905EQDN01 00000JPWTH 1QNNE11 1 00699E11 1 00099E11 1 00099E11 1 00099G11 1 00010K11 1 00064L11 1 00700M11 1 30090N11 1 00000Q11 1 10196S11 1 00069V11 1 01010X11 1 03004
0377999999038531972010109005+30400-081417SAO  +0005NRB  V0200105N002650243849N011200599+02005+01725101995ADDGA1999+003054064GA2999+024384034GA3999+999999999GA4999+999999999GD12025+9999999GD23045+9999999GD30005+9999999GD40005+9999999GF106065999999999999999999MA1999999101935EQDN01 00000JPWTH 1QNNE11 1 00203E11 1 00405E11 1 00000E11 1 00000G11 1 00080H11 1 15010H11 1 23080H11 1 00999H11 1 00999K11 1 00063L11 1 00700M11 1 30100N11 1 00000Q11 1 10199S11 1 00068V11 1 00808X11 1 01005
0269999999038531972010110005+30400-081417SAO  +0005NRB  V0200105N002650243849N011200599+02065+01335102015ADDGD12995+9999999GD23995+9999999GD30995+9999999GD40995+9999999GF106065999999999999999999MA1999999101965EQDN01 00000JPWTH 1QNNE11 1 00299E11 1 00499E11 1 00099E11 1 00099G11 1 00080K11 1 00056L11 1 00700M11 1 30110N11 1 00000Q11 1 10201S11 1 00069V11 1 00707X11 1 01005
0269999999038531972010111005+30400-081417SAO  +0005NRB  V0200205N001550076249N011200599+01895+01335102015ADDGD12995+9999999GD23995+9999999GD30995+9999999GD40995+9999999GF105055999999999999999999MA1999999101965EQDN01 00000JPWTH 1QNNE11 1 00299E11 1 00499E11 1 00099E11 1 00099G11 1 00025K11 1 00056L11 1 00700M11 1 30110N11 1 00000Q11 1 10201S11 1 00066V11 1 00606X11 1 02003
0377999999038531972010112005+30400-081417SAO  +0005NRB  V0200105N000550243849N011200599+01895+01335102135ADDGA1999+003054064GA2999+024384034GA3999+076204004GA4999+999999999GD12015+9999999GD23045+9999999GD33025+9999999GD40005+9999999GF106065999999999999999999MA1999999102075EQDN01 00000JPWTH 1QNNE11 1 00201E11 1 00405E11 1 00402E11 1 00000G11 1 00080H11 1 15010H11 1 23080H11 1 32250H11 1 00999K11 1 00056L11 1 00700M11 1 30140N11 1 00000Q11 1 10213S11 1 00066V11 1 00808X11 1 01001
0269999999038531972010113005+30400-081417SAO  +0005NRB  V0200405N001052200059N011200599+01895+01285102085ADDGD12995+9999999GD22995+9999999GD30995+9999999GD40995+9999999GF103035999999999999999999MA1999999102035EQDN01 00000JPWTH 1QNNE11 1 00299E11 1 00299E11 1 00099E11 1 00099G11U1 99999K11 1 00055L11 1 00700M11 1 30130N11 1 00000Q11 1 10208S11 1 00066V11 1 00404X11 1 04002
0269999999038531972010114005+30400-081417SAO  +0005NRB  V0200505N001550061049N011200599+02065+01445102185ADDGD13995+9999999GD24995+9999999GD30995+9999999GD40995+9999999GF108075999999999999999999MA1999999102135EQDN01 00000JPWTH 1QNNE11 1 00499E11 1 00699E11 1 00099E11 1 00099G11 1 00020K11 1 00058L11 1 00700M11 1 30160N11 1 00000Q11 1 10218S11 1 00069V11 1 01009X11 1 05003
0350999999038531972010115005+30400-081417SAO  +0005NRB  V0200405N002150243849N011200599+02115+01395102235ADDGA1999+006104064GA2999+024384034GA3999+076204014GD12015+9999999GD23045+9999999GD34035+9999999GD40995+9999999GF108085999999999999999999MA1999999102175EQDN01 00000JPWTH 1QNNE11 1 00201E11 1 00405E11 1 00604E11 1 00099G11 1 00080H11 1 15020H11 1 23080H11 1 39250K11 1 00057L11 1 00700M11 1 30170N11 1 00000Q11 1 10223S11 1 00070V11 1 01010X11 1 04004
0269999999038531972010116005+30400-081417SAO  +0005NRB  V0200205N002150243849N011200599+02175+01445102195ADDGD12995+9999999GD23995+9999999GD33995+9999999GD40995+9999999GF106065999999999999999999MA1999999102135EQDN01 00000JPWTH 1QNNE11 1 00299E11 1 00499E11 1 00499E11 1 00099G11 1 00080K11 1 00058L11 1 00700M11 1 30160N11 1 00000Q11 1 10219S11 1 00071V11 1 00808X11 1 02004
0269999999038531972010117005+30400-081417SAO  +0005NRB  V0200305N003150243849N011200599+02175+01505102095ADDGD12995+9999999GD23995+9999999GD30995+9999999GD40995+9999999GF106065999999999999999999MA1999999102035EQDN01 00000JPWTH 1QNNE11 1 00299E11 1 00499E11 1 00099E11 1 00099G11 1 00080K11 1 00059L11 1 00700M11 1 30130N11 1 00000Q11 1 10209S11 1 00071V11 1 00707X11 1 03006
0377999999038531972010118005+30400-081417SAO  +0005NRB  V0200405N003152200059N011200599+02175+01565101975ADDGA1999+024384034GA2999+999999999GA3999+999999999GA4999+999999999GD12025+9999999GD20005+9999999GD30005+9999999GD40005+9999999GF102025999999999999999999MA1999999101905EQDN01 00000JPWTH 1QNNE11 1 00203E11 1 00000E11 1 00000E11 1 00000G11U1 99999H11 1 23080H11 1 00999H11 1 00999H11 1 00999K11 1 00060L11 1 00700M11 1 30090N11 1 00000Q11 1 10197S11 1 00071V11 1 00303X11 1 04006
0269999999038531972010119005+30400-081417SAO  +0005NRB  V0200305N003152200059N011200599+02175+01565101955ADDGD12995+9999999GD22995+9999999GD30995+9999999GD40995+9999999GF102025999999999999999999MA1999999101905EQDN01 00000JPWTH 1QNNE11 1 00299E11 1 00299E11 1 00099E11 1 00099G11U1 99999K11 1 00060L11 1 00700M11 1 30090N11 1 00000Q11 1 10195S11 1 00071V11 1 00303X11 1 03006
0269999999038531972010120005+30400-081417SAO  +0005NRB  V0200405N003152200059N011200599+02115+01615101945ADDGD12995+9999999GD22995+9999999GD30995+9999999GD40995+9999999GF102025999999999999999999MA1999999101905EQDN01 00000JPWTH 1QNNE11 1 00299E11 1 00299E11 1 00099E11 1 00099G11U1 99999K11 1 00061L11 1 00700M11 1 30090N11 1 00000Q11 1 10194S11 1 00070V11 1 00202X11 1 04006
0377999999038531972010121005+30400-081417SAO  +0005NRB  V0200305N003652200059N011200599+02115+01675101905ADDGA1999+030484034GA2999+999999999GA3999+999999999GA4999+999999999GD12025+9999999GD20005+9999999GD30005+9999999GD40005+9999999GF102025999999999999999999MA1999999101865EQDN01 00000JPWTH 1QNNE11 1 00202E11 1 00000E11 1 00000E11 1 00000G11U1 99999H11 1 23100H11 1 00999H11 1 00999H11 1 00999K11 1 00062L11 1 00700M11 1 30080N11 1 00000Q11 1 10190S11 1 00070V11 1 00202X11 1 03007
0275999999038531972010122005+30400-081417SAO  +0005NRB  V0200405N004152200059N009600599+02065+01675101885ADDGD12995+9999999GD20995+9999999GD30995+9999999GD40995+9999999GF102025999999999999999999MA1999999101835MW1055EQDN01 08100JPWTH 1QNNE11 1 00299E11 1 00099E11 1 00099E11 1 00099G11U1 99999K11 1 00062L11 1 00600M11 1 30070N11 1 08100Q11 1 10188S11 1 00069V11 1 00202X11 1 04008
0275999999038531972010123005+30400-081417SAO  +0005NRB  V0200305N003652200059N008000599+01945+01615101875ADDGD12995+9999999GD22995+9999999GD30995+9999999GD40995+9999999GF102025999999999999999999MA1999999101835MW1055EQDN01 08100JPWTH 1QNNE11 1 00299E11 1 00299E11 1 00099E11 1 00099G11U1 99999K11 1 00061L11 1 00500M11 1 30070N11 1 08100Q11 1 10187S11 1 00067V11 1 00202X11 1 03007
0377999999038531972010200005+30400-081417SAO  +0005NRB  V0200305N003652200059N011200599+01945+01565101795ADDGA1999+007624064GA2999+999999999GA3999+999999999GA4999+999999999GD12025+9999999GD20005+9999999GD30005+9999999GD40005+9999999GF102025999999999999999999MA1999999101735EQDN01 00000JPWTH 1QNNE11 1 00202E11 1 00000E11 1 00000E11 1 00000G11U1 99999H11 1 15025H11 1 00999H11 1 00999H11 1 00999K11 1 00060L11 1 00700M11 1 30040N11 1 00000Q11 1 10179S11 1 00067V11 1 00202X11 1 03007
0269999999038531972010201005+30400-081417SAO  +0005NRB  V0200205N003152200059N011200599+01945+01675101875ADDGD12995+9999999GD22995+9999999GD30995+9999999GD40995+9999999GF104045999999999999999999MA1999999101835EQDN01 00000JPWTH 1QNNE11 1 00299E11 1 00299E11 1 00099E11 1 00099G11U1 99999K11 1 00062L11 1 00700M11 1 30070N11 1 00000Q11 1 10187S11 1 00067V11 1 00505X11 1 02006
0269999999038531972010202005+30400-081417SAO  +0005NRB  V0200505N002652200059N011200599+01895+01675101855ADDGD12995+9999999GD20995+9999999GD30995+9999999GD40995+9999999GF102025999999999999999999MA1999999101795EQDN01 00000JPWTH 1QNNE11 1 00299E11 1 00099E11 1 00099E11 1 00099G11U1 99999K11 1 00062L11 1 00700M11 1 30060N11 1 00000Q11 1 10185S11 1 00066V11 1 00202X11 1 05005
0377999999038531972010203005+30400-081417SAO  +0005NRB  V02099959000052200059N011200599+01945+01675101825ADDGA1999+000914064GA2999+006104064GA3999+999999999GA4999+999999999GD12015+9999999GD22025+9999999GD30005+9999999GD40005+9999999GF103035999999999999999999MA1999999101765EQDN01 00000JPWTH 1QNNE11 1 00201E11 1 00203E11 1 00000E11 1 00000G11U1 99999H11 1 15003H11 1 15020H11 1 00999H11 1 00999K11 1 00062L11 1 00700M11 1 30050N11 1 00000Q11 1 10182S11 1 00067V11 1 00404X11 1 00000
0269999999038531972010204005+30400-081417SAO  +0005NRB  V02099959000052200059N011200599+01945+01675101715ADDGD10995+9999999GD20995+9999999GD30995+9999999GD40995+9999999GF100005999999999999999999MA1999999101665EQDN01 00000JPWTH 1QNNE11 1 00099E11 1 00099E11 1 00099E11 1 00099G11U1 99999K11 1 00062L11 1 00700M11 1 30020N11 1 00000Q11 1 10171S11 1 00067V11 1 00000X11 1 00000
0275999999038531972010205005+30400-081417SAO  +0005NRB  V0201405N001052200059N006400599+01895+01675101585ADDGD16995+9999999GD20995+9999999GD30995+9999999GD40995+9999999GF102025999999999999999999MA1999999101525MW1445EQDN01 07200JPWTH 1QNNE11 1 00899E11 1 00099E11 1 00099E11 1 00099G11U1 99999K11 1 00062L11 1 00400M11 1 29980N11 1 07200Q11 1 10158S11 1 00066V11 1 00303X11 1 14002
0383999999038531972010206005+30400-081417SAO  +0005NRB  V02099959000050243849N001300599+01835+01615101535ADDGA1999+999999104GA2999+024384034GA3999+999999999GA4999+999999999GD16025+9999999GD23025+9999999GD30005+9999999GD40005+9999999GF105055999999999999999999MA1999999101465MW1445EQDN01 07200JPWTH 1QNNE11 1 00803E11 1 00403E11 1 00000E11 1 00000G11 1 00080H11 1 45999H11 1 23080H11 1 00999H11 1 00999K11 1 00061L11 1 00081M11 1 29960N11 1 07200Q11 1 10153S11 1 00065V11 1 00606X11 1 00000
0249999999038531972010207005+30400-081417SAO  +0005NRB  V02099959000050243849N000100599+01785+01565101505ADDGD13995+9999999GD20995+9999999GD30995+9999999GF106065999999999999999999MA1999999101465MW1455EQDN01 07000JPWTH 1QNNE11 1 00499E11 1 00099E11 1 00099G11 1 00080K11 1 00060L11 1 00006M11 1 29960N11 1 07000Q11 1 10150S11 1 00064V11 1 00707X11 1 00000
0249999999038531972010208005+30400-081417SAO  +0005NRB  V0201705N002150152449N006400599+01785+01565101415ADDGD13995+9999999GD20995+9999999GD30995+9999999GF105055999999999999999999MA1999999101355MW1445EQDN01 07200JPWTH 1QNNE11 1 00499E11 1 00099E11 1 00099G11 1 00050K11 1 00060L11 1 00400M11 1 29930N11 1 07200Q11 1 10141S11 1 00064V11 1 00606X11 1 17004
0377999999038531972010209005+30400-081417SAO  +0005NRB  V0201705N001552200059N011200599+01895+01675101375ADDGA1999+021344034GA2999+999999999GA3999+999999999GA4999+999999999GD12035+9999999GD20005+9999999GD30005+9999999GD40005+9999999GF103025999999999999999999MA1999999101325EQDN01 00000JPWTH 1QNNE11 1 00204E11 1 00000E11 1 00000E11 1 00000G11U1 99999H11 1 23070H11 1 00999H11 1 00999H11 1 00999K11 1 00062L11 1 00700M11 1 29920N11 1 00000Q11 1 10137S11 1 00066V11 1 00403X11 1 17003
0269999999038531972010210005+30400-081417SAO  +0005NRB  V02099959000052200059N011200599+01895+01675101335ADDGD12995+9999999GD20995+9999999GD30995+9999999GD40995+9999999GF104045999999999999999999MA1999999101295EQDN01 00000JPWTH 1QNNE11 1 00299E11 1 00099E11 1 00099E11 1 00099G11U1 99999K11 1 00062L11 1 00700M11 1 29910N11 1 00000Q11 1 10133S11 1 00066V11 1 00505X11 1 00000
0269999999038531972010211005+30400-081417SAO  +0005NRB  V0201805N002150304849N011200599+01945+01725101275ADDGD12995+9999999GD23995+9999999GD30995+9999999GD40995+9999999GF105055999999999999999999MA1999999101225EQDN01 00000JPWTH 1QNNE11 1 00299E11 1 00499E11 1 00099E11 1 00099G11 1 00100K11 1 00063L11 1 00700M11 1 29890N11 1 00000Q11 1 10127S11 1 00067V11 1 00606X11 1 18004
0377999999038531972010212005+30400-081417SAO  +0005NRB  V0201905N002152200059N011200599+01895+01675101375ADDGA1999+030484034GA2999+076204004GA3999+999999999GA4999+999999999GD12015+9999999GD22025+9999999GD30005+9999999GD40005+9999999GF103035999999999999999999MA1999999101325EQDN01 00000JPWTH 1QNNE11 1 00201E11 1 00203E11 1 00000E11 1 00000G11U1 99999H11 1 23100H11 1 32250H11 1 00999H11 1 00999K11 1 00062L11 1 00700M11 1 29920N11 1 00000Q11 1 10137S11 1 00066V11 1 00404X11 1 19004
0269999999038531972010213005+30400-081417SAO  +0005NRB  V0201905N003152200059N011200599+01895+01675101405ADDGD12995+9999999GD22995+9999999GD30995+9999999GD40995+9999999GF103035999999999999999999MA1999999101355EQDN01 00000JPWTH 1QNNE11 1 00299E11 1 00299E11 1 00099E11 1 00099G11U1 99999K11 1 00062L11 1 00700M11 1 29930N11 1 00000Q11 1 10140S11 1 00066V11 1 00404X11 1 19006
0269999999038531972010214005+30400-081417SAO  +0005NRB  V0202005N004152200059N011200599+02115+01835101405ADDGD12995+9999999GD22995+9999999GD30995+9999999GD40995+9999999GF104045999999999999999999MA1999999101355EQDN01 00000JPWTH 1QNNE11 1 00299E11 1 00299E11 1 00099E11 1 00099G11U1 99999K11 1 00065L11 1 00700M11 1 29930N11 1 00000Q11 1 10140S11 1 00070V11 1 00505X11 1 20008
0377999999038531972010215005+30400-081417SAO  +0005NRB  V0202105N005252200059N011200599+02445+01895101435ADDGA1999+076204004GA2999+999999999GA3999+999999999GA4999+999999999GD12025+9999999GD20005+9999999GD30005+9999999GD40005+9999999GF102025999999999999999999MA1999999101355EQDN01 00000JPWTH 1QNNE11 1 00203E11 1 00000E11 1 00000E11 1 00000G11U1 99999H11 1 32250H11 1 00999H11 1 00999H11 1 00999K11 1 00066L11 1 00700M11 1 29930N11 1 00000Q11 1 10143S11 1 00076V11 1 00303X11 1 21010
0269999999038531972010216005+30400-081417SAO  +0005NRB  V0202105N005250304849N011200599+02565+01895101405ADDGD12995+9999999GD23995+9999999GD33995+9999999GD40995+9999999GF106065999999999999999999MA1999999101355EQDN01 00000JPWTH 1QNNE11 1 00299E11 1 00499E11 1 00499E11 1 00099G11 1 00100K11 1 00066L11 1 00700M11 1 29930N11 1 00000Q11 1 10140S11 1 00078V11 1 00808X11 1 21010
0269999999038531972010217005+30400-081417SAO  +0005NRB  V0202405N004150304849N011200599+02615+01895101315ADDGD12995+9999999GD23995+9999999GD33995+9999999GD40995+9999999GF107075999999999999999999MA1999999101255EQDN01 00000JPWTH 1QNNE11 1 00299E11 1 00499E11 1 00499E11 1 00099G11 1 00100K11 1 00066L11 1 00700M11 1 29900N11 1 00000Q11 1 10131S11 1 00079V11 1 00909X11 1 24008
0377999999038531972010218005+30400-081417SAO  +0005NRB  V0202205N006250045749N011200599+02725+01895101185ADDGA1999+004574084GA2999+030484034GA3999+076204004GA4999+999999999GD13055+9999999GD23025+9999999GD33015+9999999GD40005+9999999GF107075999999999999999999MA1999999101125EQDN01 00000JPWTH 1QNNE11 1 00406E11 1 00402E11 1 00401E11 1 00000G11 1 00015H11 1 11015H11 1 23100H11 1 32250H11 1 00999K11 1 00066L11 1 00700M11 1 29860N11 1 00000Q11 1 10118S11 1 00081V11 1 00909X11 1 22012
0269999999038531972010219005+30400-081417SAO  +0005NRB  V0202405N003150304849N011200599+02565+01835101135ADDGD12995+9999999GD23995+9999999GD33995+9999999GD40995+9999999GF107075999999999999999999MA1999999101085EQDN01 00000JPWTH 1QNNE11 1 00299E11 1 00499E11 1 00499E11 1 00099G11 1 00100K11 1 00065L11 1 00700M11 1 29850N11 1 00000Q11 1 10113S11 1 00078V11 1 00909X11 1 24006
0269999999038531972010220005+30400-081417SAO  +0005NRB  V0202605N002150304849N011200599+02175+01785101175ADDGD12995+9999999GD23995+9999999GD34995+9999999GD40995+9999999GF108085999999999999999999MA1999999101125EQDN01 00000JPWTH 1QNNE11 1 00299E11 1 00499E11 1 00699E11 1 00099G11 1 00100K11 1 00064L11 1 00700M11 1 29860N11 1 00000Q11 1 10117S11 1 00071V11 1 01010X11 1 26004
0350999999038531972010221005+30400-081417SAO  +0005NRB  V0202705N002150304849N011200599+02335+01835101205ADDGA1999+004574084GA2999+030484034GA3999+076204024GD12035+9999999GD23025+9999999GD34025+9999999GD40995+9999999GF108085999999999999999999MA1999999101155EQDN01 00000JPWTH 1QNNE11 1 00204E11 1 00403E11 1 00603E11 1 00099G11 1 00100H11 1 11015H11 1 23100H11 1 37250K11 1 00065L11 1 00700M11 1 29870N11 1 00000Q11 1 10120S11 1 00074V11 1 01010X11 1 27004
0269999999038531972010222005+30400-081417SAO  +0005NRB  V0201605N002650304849N011200599+02285+01785101065ADDGD12995+9999999GD23995+9999999GD34995+9999999GD40995+9999999GF108085999999999999999999MA1999999101025EQDN01 00000JPWTH 1QNNE11 1 00299E11 1 00499E11 1 00699E11 1 00099G11 1 00100K11 1 00064L11 1 00700M11 1 29830N11 1 00000Q11 1 10106S11 1 00073V11 1 01010X11 1 16005
0269999999038531972010223005+30400-081417SAO  +0005NRB  V02099959000050304849N011200599+02225+01835101175ADDGD13995+9999999GD24995+9999999GD30995+9999999GD40995+9999999GF108085999999999999999999MA1999999101125EQDN01 00000JPWTH 1QNNE11 1 00499E11 1 00699E11 1 00099E11 1 00099G11 1 00100K11 1 00065L11 1 00700M11 1 29860N11 1 00000Q11 1 10117S11 1 00072V11 1 01010X11 1 00000
0350999999038531972010300005+30400-081417SAO  +0005NRB  V0203505N002150304849N011200599+02115+01785101165ADDGA1999+004574084GA2999+030484034GA3999+076204024GD12025+9999999GD23035+9999999GD34035+9999999GD40995+9999999GF108085999999999999999999MA1999999101125EQDN01 00000JPWTH 1QNNE11 1 00202E11 1 00404E11 1 00604E11 1 00099G11 1 00100H11 1 11015H11 1 23100H11 1 37250K11 1 00064L11 1 00700M11 1 29860N11 1 00000Q11 1 10116S11 1 00070V11 1 01010X11 1 35004
0269999999038531972010301005+30400-081417SAO  +0005NRB  V0200505N001550762049N011200599+02065+01725101225ADDGD12995+9999999GD24995+9999999GD30995+9999999GD40995+9999999GF108085999999999999999999MA1999999101155EQDN01 00000JPWTH 1QNNE11 1 00299E11 1 00699E11 1 00099E11 1 00099G11 1 00250K11 1 00063L11 1 00700M11 1 29870N11 1 00000Q11 1 10122S11 1 00069V11 1 01010X11 1 05003
0269999999038531972010302005+30400-081417SAO  +0005NRB  V02099959000050762049N011200599+02005+01725101305ADDGD12995+9999999GD24995+9999999GD30995+9999999GD40995+9999999GF108085999999999999999999MA1999999101255EQDN01 00000JPWTH 1QNNE11 1 00299E11 1 00699E11 1 00099E11 1 00099G11 1 00250K11 1 00063L11 1 00700M11 1 29900N11 1 00000Q11 1 10130S11 1 00068V11 1 01010X11 1 00000
0296999999038531972010303005+30400-081417SAO  +0005NRB  V02099959000050061049N011200599+02065+01725101395ADDGA1999+006104064GD14085+9999999GD20995+9999999GD30995+9999999GD40995+9999999GF108085999999999999999999MA1999999101325EQDN01 00000JPWTH 1QNNE11 1 00610E11 1 00099E11 1 00099E11 1 00099G11 1 00020H11 1 15020K11 1 00063L11 1 00700M11 1 29920N11 1 00000Q11 1 10139S11 1 00069V11 1 01010X11 1 00000
0269999999038531972010304005+30400-081417SAO  +0005NRB  V02099959000050061049N011200599+02005+01675101435ADDGD13995+9999999GD20995+9999999GD30995+9999999GD40995+9999999GF106065999999999999999999MA1999999101355EQDN01 00000JPWTH 1QNNE11 1 00499E11 1 00099E11 1 00099E11 1 00099G11 1 00020K11 1 00062L11 1 00700M11 1 29930N11 1 00000Q11 1 10143S11 1 00068V11 1 00808X11 1 00000
0269999999038531972010305005+30400-081417SAO  +0005NRB  V02099959000050365849N011200599+02005+01675101445ADDGD12995+9999999GD23995+9999999GD30995+9999999GD40995+9999999GF106065999999999999999999MA1999999101395EQDN01 00000JPWTH 1QNNE11 1 00299E11 1 00499E11 1 00099E11 1 00099G11 1 00120K11 1 00062L11 1 00700M11 1 29940N11 1 00000Q11 1 10144S11 1 00068V11 1 00707X11 1 00000
0377999999038531972010306005+30400-081417SAO  +0005NRB  V02099959000050365849N011200599+02005+01615101365ADDGA1999+036584034GA2999+999999999GA3999+999999999GA4999+999999999GD13065+9999999GD20005+9999999GD30005+9999999GD40005+9999999GF106065999999999999999999MA1999999101325EQDN01 00000JPWTH 1QNNE11 1 00407E11 1 00000E11 1 00000E11 1 00000G11 1 00120H11 1 23120H11 1 00999H11 1 00999H11 1 00999K11 1 00061L11 1 00700M11 1 29920N11 1 00000Q11 1 10136S11 1 00068V11 1 00707X11 1 00000
0269999999038531972010307005+30400-081417SAO  +0005NRB  V02099959000052200059N011200599+01945+01615101435ADDGD12995+9999999GD20995+9999999GD30995+9999999GD40995+9999999GF104045999999999999999999MA1999999101355EQDN01 00000JPWTH 1QNNE11 1 00299E11 1 00099E11 1 00099E11 1 00099G11U1 99999K11 1 00061L11 1 00700M11 1 29930N11 1 00000Q11 1 10143S11 1 00067V11 1 00505X11 1 00000
0269999999038531972010308005+30400-081417SAO  +0005NRB  V02099959000050304849N011200599+01945+01675101505ADDGD13995+9999999GD20995+9999999GD30995+9999999GD40995+9999999GF106065999999999999999999MA1999999101465EQDN01 00000JPWTH 1QNNE11 1 00499E11 1 00099E11 1 00099E11 1 00099G11 1 00100K11 1 00062L11 1 00700M11 1 29960N11 1 00000Q11 1 10150S11 1 00067V11 1 00808X11 1 00000
0377999999038531972010309005+30400-081417SAO  +0005NRB  V0200405N002150304849N011200599+01945+01675101525ADDGA1999+030484034GA2999+999999999GA3999+999999999GA4999+999999999GD13065+9999999GD20005+9999999GD30005+9999999GD40005+9999999GF106065999999999999999999MA1999999101465EQDN01 00000JPWTH 1QNNE11 1 00407E11 1 00000E11 1 00000E11 1 00000G11 1 00100H11 1 23100H11 1 00999H11 1 00999H11 1 00999K11 1 00062L11 1 00700M11 1 29960N11 1 00000Q11 1 10152S11 1 00067V11 1 00707X11 1 04004
0269999999038531972010310005+30400-081417SAO  +0005NRB  V0200505N003150304849N011200599+01945+01615101525ADDGD13995+9999999GD20995+9999999GD30995+9999999GD40995+9999999GF106065999999999999999999MA1999999101465EQDN01 00000JPWTH 1QNNE11 1 00499E11 1 00099E11 1 00099E11 1 00099G11 1 00100K11 1 00061L11 1 00700M11 1 29960N11 1 00000Q11 1 10152S11 1 00067V11 1 00707X11 1 05006
0269999999038531972010311005+30400-081417SAO  +0005NRB  V0200505N004152200059N011200599+01945+01615101525ADDGD12995+9999999GD20995+9999999GD30995+9999999GD40995+9999999GF103035999999999999999999MA1999999101465EQDN01 00000JPWTH 1QNNE11 1 00299E11 1 00099E11 1 00099E11 1 00099G11U1 99999K11 1 00061L11 1 00700M11 1 29960N11 1 00000Q11 1 10152S11 1 00067V11 1 00404X11 1 05008
0377999999038531972010312005+30400-081417SAO  +0005NRB  V0200405N003152200059N011200599+01945+01615101625ADDGA1999+076204004GA2999+999999999GA3999+999999999GA4999+999999999GD13065+9999993GD20005+9999999GD30005+9999999GD40005+9999999GF106025999999999999999999MA1999999101565EQDN01 00000JPWTH 1QNNE11 1 00307E11 1 00000E11 1 00000E11 1 00000G11U1 99999H11 1 32250H11 1 00999H11 1 00999H11 1 00999K11 1 00061L11 1 00700M11 1 29990N11 1 00000Q11 1 10162S11 1 00067V11 1 00702X11 1 04006
0269999999038531972010313005+30400-081417SAO  +0005NRB  V0200505N003152200059N011200599+01945+01615101735ADDGD12995+9999999GD23995+9999993GD30995+9999999GD40995+9999999GF106035999999999999999999MA1999999101695EQDN01 00000JPWTH 1QNNE11 1 00299E11 1 00399E11 1 00099E11 1 00099G11U1 99999K11 1 00061L11 1 00700M11 1 30030N11 1 00000Q11 1 10173S11 1 00067V11 1 00804X11 1 05006
0269999999038531972010314005+30400-081417SAO  +0005NRB  V0200305N004150045749N011200599+02005+01675101855ADDGD13995+9999999GD24995+9999999GD30995+9999999GD40995+9999999GF108085999999999999999999MA1999999101795EQDN01 00000JPWTH 1QNNE11 1 00499E11 1 00699E11 1 00099E11 1 00099G11 1 00015K11 1 00062L11 1 00700M11 1 30060N11 1 00000Q11 1 10185S11 1 00068V11 1 01010X11 1 03008
0377999999038531972010315005+30400-081417SAO  +0005NRB  V0200305N005250045749N011200599+02005+01675101945ADDGA1999+004574064GA2999+999999999GA3999+999999999GA4999+999999999GD13075+9999999GD20005+9999999GD30005+9999999GD40005+9999999GF107075999999999999999999MA1999999101905EQDN01 00000JPWTH 1QNNE11 1 00409E11 1 00000E11 1 00000E11 1 00000G11 1 00015H11 1 15015H11 1 00999H11 1 00999H11 1 00999K11 1 00062L11 1 00700M11 1 30090N11 1 00000Q11 1 10194S11 1 00068V11 1 00909X11 1 03010
0269999999038531972010316005+30400-081417SAO  +0005NRB  V0200205N005250045749N011200599+02065+01675101995ADDGD13995+9999999GD23995+9999999GD30995+9999999GD40995+9999999GF107075999999999999999999MA1999999101935EQDN01 00000JPWTH 1QNNE11 1 00499E11 1 00499E11 1 00099E11 1 00099G11 1 00015K11 1 00062L11 1 00700M11 1 30100N11 1 00000Q11 1 10199S11 1 00069V11 1 00909X11 1 02010
0269999999038531972010317005+30400-081417SAO  +0005NRB  V0200205N006250045749N011200599+02065+01675101945ADDGD13995+9999999GD24995+9999999GD30995+9999999GD40995+9999999GF108075999999999999999999MA1999999101905EQDN01 00000JPWTH 1QNNE11 1 00499E11 1 00699E11 1 00099E11 1 00099G11 1 00015K11 1 00062L11 1 00700M11 1 30090N11 1 00000Q11 1 10194S11 1 00069V11 1 01009X11 1 02012
0377999999038531972010318005+30400-081417SAO  +0005NRB  V0200105N005250045749N011200599+02005+01675101845ADDGA1999+004574064GA2999+076204004GA3999+999999999GA4999+999999999GD13065+9999999GD24025+9999999GD30005+9999999GD40005+9999999GF108075999999999999999999MA1999999101795EQDN01 00000JPWTH 1QNNE11 1 00407E11 1 00603E11 1 00000E11 1 00000G11 1 00015H11 1 15015H11 1 32250H11 1 00999H11 1 00999K11 1 00062L11 1 00700M11 1 30060N11 1 00000Q11 1 10184S11 1 00068V11 1 01009X11 1 01010
0269999999038531972010319005+30400-081417SAO  +0005NRB  V0200205N005250045749N011200599+02005+01675101885ADDGD14995+9999999GD20995+9999999GD30995+9999999GD40995+9999999GF108085999999999999999999MA1999999101835EQDN01 00000JPWTH 1QNNE11 1 00699E11 1 00099E11 1 00099E11 1 00099G11 1 00015K11 1 00062L11 1 00700M11 1 30070N11 1 00000Q11 1 10188S11 1 00068V11 1 01010X11 1 02010
0269999999038531972010320005+30400-081417SAO  +0005NRB  V0200305N005250045749N011200599+02005+01675101885ADDGD14995+9999999GD20995+9999999GD30995+9999999GD40995+9999999GF108085999999999999999999MA1999999101835EQDN01 00000JPWTH 1QNNE11 1 00699E11 1 00099E11 1 00099E11 1 00099G11 1 00015K11 1 00062L11 1 00700M11 1 30070N11 1 00000Q11 1 10188S11 1 00068V11 1 01010X11 1 03010
0302999999038531972010321005+30400-081417SAO  +0005NRB  V0200305N005250045749N008000599+02005+01675101915ADDGA1999+004574064GD14085+9999999GD20995+9999999GD30995+9999999GD40995+9999999GF108085999999999999999999MA1999999101865MW1445EQDN01 07200JPWTH 1QNNE11 1 00610E11 1 00099E11 1 00099E11 1 00099G11 1 00015H11 1 15015K11 1 00062L11 1 00500M11 1 30080N11 1 07200Q11 1 10191S11 1 00068V11 1 01010X11 1 03010
0275999999038531972010322005+30400-081417SAO  +0005NRB  V0200205N004650018349N008000599+01945+01615101955ADDGD14995+9999999GD20995+9999999GD30995+9999999GD40995+9999999GF108085999999999999999999MA1999999101905MW1445EQDN01 07200JPWTH 1QNNE11 1 00699E11 1 00099E11 1 00099E11 1 00099G11 1 00006K11 1 00061L11 1 00500M11 1 30090N11 1 07200Q11 1 10195S11 1 00067V11 1 01010X11 1 02009
0275999999038531972010323005+30400-081417SAO  +0005NRB  V0200205N004650018349N008000599+01895+01615101995ADDGD14995+9999999GD20995+9999999GD30995+9999999GD40995+9999999GF108085999999999999999999MA1999999101935MW1445EQDN01 07200JPWTH 1QNNE11 1 00699E11 1 00099E11 1 00099E11 1 00099G11 1 00006K11 1 00061L11 1 00500M11 1 30100N11 1 07200Q11 1 10199S11 1 00066V11 1 01010X11 1 02009
0302999999038531972010400005+30400-081417SAO  +0005NRB  V0200205N004150018349N006400599+01895+01615101955ADDGA1999+001834074GD14085+9999999GD20995+9999999GD30995+9999999GD40995+9999999GF108085999999999999999999MA1999999101905MW1445EQDN01 07200JPWTH 1QNNE11 1 00610E11 1 00099E11 1 00099E11 1 00099G11 1 00006H11 1 16006K11 1 00061L11 1 00400M11 1 30090N11 1 07200Q11 1 10195S11 1 00066V11 1 01010X11 1 02008
0275999999038531972010401005+30400-081417SAO  +0005NRB  V0200305N003650018349N006400599+01895+01615102005ADDGD16995+9999999GD24995+9999999GD30995+9999999GD40995+9999999GF108085999999999999999999MA1999999101965MW1455EQDN01 07000JPWTH 1QNNE11 1 00899E11 1 00699E11 1 00099E11 1 00099G11 1 00006K11 1 00061L11 1 00400M11 1 30110N11 1 07000Q11 1 10200S11 1 00066V11 1 01010X11 1 03007
0249999999038531972010402005+30400-081417SAO  +0005NRB  V0200405N003150018349N006400599+01895+01615102005ADDGD14995+9999999GD20995+9999999GD30995+9999999GF108085999999999999999999MA1999999101965MW1455EQDN01 07000JPWTH 1QNNE11 1 00699E11 1 00099E11 1 00099G11 1 00006K11 1 00061L11 1 00400M11 1 30110N11 1 07000Q11 1 10200S11 1 00066V11 1 01010X11 1 04006
0302999999038531972010403005+30400-081417SAO  +0005NRB  V0200905N002650015249N006400599+01895+01675102005ADDGA1999+001524104GD15085+9999999GD20995+9999999GD30995+9999999GD40995+9999999GF108085999999999999999999MA1999999101965MW1455EQDN01 07000JPWTH 1QNNE11 1 00710E11 1 00099E11 1 00099E11 1 00099G11 1 00005H11 1 45005K11 1 00062L11 1 00400M11 1 30110N11 1 07000Q11 1 10200S11 1 00066V11 1 01010X11 1 09005
0275999999038531972010404005+30400-081417SAO  +0005NRB  V0200605N001550015249N006400599+02005+01725101945ADDGD15995+9999999GD20995+9999999GD30995+9999999GD40995+9999999GF108085999999999999999999MA1999999101905MW1455EQDN01 07000JPWTH 1QNNE11 1 00799E11 1 00099E11 1 00099E11 1 00099G11 1 00005K11 1 00063L11 1 00400M11 1 30090N11 1 07000Q11 1 10194S11 1 00068V11 1 01010X11 1 06003
0275999999038531972010405005+30400-081417SAO  +0005NRB  V0200105N001550012249N004000599+02005+01785101945ADDGD15995+9999999GD20995+9999999GD30995+9999999GD40995+9999999GF108085999999999999999999MA1999999101905MW1455EQDN01 07000JPWTH 1QNNE11 1 00799E11 1 00099E11 1 00099E11 1 00099G11 1 00004K11 1 00064L11 1 00250M11 1 30090N11 1 07000Q11 1 10194S11 1 00068V11 1 01010X11 1 01003
0302999999038531972010406005+30400-081417SAO  +0005NRB  V0200105N002150012249N004000599+01945+01675101895ADDGA1999+001224104GD15085+9999999GD20995+9999999GD30995+9999999GD40995+9999999GF108085999999999999999999MA1999999101835MW1455EQDN01 07000JPWTH 1QNNE11 1 00710E11 1 00099E11 1 00099E11 1 00099G11 1 00004H11 1 45004K11 1 00062L11 1 00250M11 1 30070N11 1 07000Q11 1 10189S11 1 00067V11 1 01010X11 1 01004
0275999999038531972010407005+30400-081417SAO  +0005NRB  V0200505N001550012249N004000599+01945+01785101845ADDGD15995+9999999GD20995+9999999GD30995+9999999GD40995+9999999GF108085999999999999999999MA1999999101795MW1455EQDN01 07000JPWTH 1QNNE11 1 00799E11 1 00099E11 1 00099E11 1 00099G11 1 00004K11 1 00064L11 1 00250M11 1 30060N11 1 07000Q11 1 10184S11 1 00067V11 1 01010X11 1 05003
0275999999038531972010408005+30400-081417SAO  +0005NRB  V0201205N001050000049N000000599+01945+01785101735ADDGD15995+9999999GD20995+9999999GD30995+9999999GD40995+9999999GF108085999999999999999999MA1999999101695MW1455EQDN01 07000JPWTH 1QNNE11 1 00799E11 1 00099E11 1 00099E11 1 00099G11 1 00000K11 1 00064L11 1 00000M11 1 30030N11 1 07000Q11 1 10173S11 1 00067V11 1 01010X11 1 12002
0302999999038531972010409005+30400-081417SAO  +0005NRB  V02099959000050000049N000000599+01945+01785101765ADDGA1999+000004104GD15085+9999999GD20995+9999999GD30995+9999999GD40995+9999999GF108085999999999999999999MA1999999101695MW1455EQDN01 07000JPWTH 1QNNE11 1 00710E11 1 00099E11 1 00099E11 1 00099G11 1 00000H11 1 45000K11 1 00064L11 1 00000M11 1 30030N11 1 07000Q11 1 10176S11 1 00067V11 1 01010X11 1 00000
0275999999038531972010410005+30400-081417SAO  +0005NRB  V0201705N001550000049N000000599+01945+01785101745ADDGD15995+9999999GD20995+9999999GD30995+9999999GD40995+9999999GF108085999999999999999999MA1999999101695MW1455EQDN01 07000JPWTH 1QNNE11 1 00799E11 1 00099E11 1 00099E11 1 00099G11 1 00000K11 1 00064L11 1 00000M11 1 30030N11 1 07000Q11 1 10174S11 1 00067V11 1 01010X11 1 17003
0275999999038531972010411005+30400-081417SAO  +0005NRB  V02099959000050000049N000000599+01945+01785101795ADDGD15995+9999999GD20995+9999999GD30995+9999999GD40995+9999999GF108085999999999999999999MA1999999101735MW1455EQDN01 07000JPWTH 1QNNE11 1 00799E11 1 00099E11 1 00099E11 1 00099G11 1 00000K11 1 00064L11 1 00000M11 1 30040N11 1 07000Q11 1 10179S11 1 00067V11 1 01010X11 1 00000
0302999999038531972010412005+30400-081417SAO  +0005NRB  V02099959000050006149N002400599+02005+01835101745ADDGA1999+000614104GD15085+9999999GD20995+9999999GD30995+9999999GD40995+9999999GF108085999999999999999999MA1999999101695MW1455EQDN01 07000JPWTH 1QNNE11 1 00710E11 1 00099E11 1 00099E11 1 00099G11 1 00002H11 1 45002K11 1 00065L11 1 00150M11 1 30030N11 1 07000Q11 1 10174S11 1 00068V11 1 01010X11 1 00000
0275999999038531972010413005+30400-081417SAO  +0005NRB  V02099959000050006149N002400599+02005+01835101945ADDGD15995+9999999GD20995+9999999GD30995+9999999GD40995+9999999GF108085999999999999999999MA1999999101905MW1455EQDN01 07000JPWTH 1QNNE11 1 00799E11 1 00099E11 1 00099E11 1 00099G11 1 00002K11 1 00065L11 1 00150M11 1 30090N11 1 07000Q11 1 10194S11 1 00068V11 1 01010X11 1 00000
0275999999038531972010414005+30400-081417SAO  +0005NRB  V0201605N002152200059N004800599+02115+01945101955ADDGD16995+9999999GD22995+9999999GD30995+9999999GD40995+9999999GF104025999999999999999999MA1999999101905MW1445EQDN01 07200JPWTH 1QNNE11 1 00899E11 1 00299E11 1 00099E11 1 00099G11U1 99999K11 1 00067L11 1 00300M11 1 30090N11 1 07200Q11 1 10195S11 1 00070V11 1 00503X11 1 16004
0377999999038531972010415005+30400-081417SAO  +0005NRB  V0201905N004152200059N011200599+02565+02005101975ADDGA1999+076204004GA2999+999999999GA3999+999999999GA4999+999999999GD13065+9999993GD20005+9999999GD30005+9999999GD40005+9999999GF106025999999999999999999MA1999999101935EQDN01 00000JPWTH 1QNNE11 1 00307E11 1 00000E11 1 00000E11 1 00000G11U1 99999H11 1 32250H11 1 00999H11 1 00999H11 1 00999K11 1 00068L11 1 00700M11 1 30100N11 1 00000Q11 1 10197S11 1 00078V11 1 00702X11 1 19008
0269999999038531972010416005+30400-081417SAO  +0005NRB  V0202105N004652200059N011200599+02725+02005101945ADDGD13995+9999993GD20995+9999999GD30995+9999999GD40995+9999999GF106025999999999999999999MA1999999101905EQDN01 00000JPWTH 1QNNE11 1 00399E11 1 00099E11 1 00099E11 1 00099G11U1 99999K11 1 00068L11 1 00700M11 1 30090N11 1 00000Q11 1 10194S11 1 00081V11 1 00703X11 1 21009
0269999999038531972010417005+30400-081417SAO  +0005NRB  V0202205N003652200059N011200599+02785+01895101875ADDGD14995+9999993GD20995+9999999GD30995+9999999GD40995+9999999GF108035999999999999999999MA1999999101835EQDN01 00000JPWTH 1QNNE11 1 00599E11 1 00099E11 1 00099E11 1 00099G11U1 99999K11 1 00066L11 1 00700M11 1 30070N11 1 00000Q11 1 10187S11 1 00082V11 1 01004X11 1 22007
0377999999038531972010418005+30400-081417SAO  +0005NRB  V0202105N005252200059N011200599+02835+01895101705ADDGA1999+999999084GA2999+076204004GA3999+999999999GA4999+999999999GD14005+9999993GD20085+9999999GD30005+9999999GD40005+9999999GF108025999999999999999999MA1999999101665EQDN01 00000JPWTH 1QNNE11 1 00500E11 1 00010E11 1 00000E11 1 00000G11U1 99999H11 1 11999H11 1 32250H11 1 00999H11 1 00999K11 1 00066L11 1 00700M11 1 30020N11 1 00000Q11 1 10170S11 1 00083V11 1 01003X11 1 21010
0269999999038531972010419005+30400-081417SAO  +0005NRB  V0201905N006250762049N011200599+02945+01835101625ADDGD12995+9999999GD23995+9999999GD30995+9999999GD40995+9999999GF106035999999999999999999MA1999999101565EQDN01 00000JPWTH 1QNNE11 1 00299E11 1 00499E11 1 00099E11 1 00099G11 1 00250K11 1 00065L11 1 00700M11 1 29990N11 1 00000Q11 1 10162S11 1 00085V11 1 00704X11 1 19012
0269999999038531972010420005+30400-081417SAO  +0005NRB  V0202105N005250762049N011200599+02675+01895101535ADDGD12995+9999999GD23995+9999999GD30995+9999999GD40995+9999999GF105035999999999999999999MA1999999101495EQDN01 00000JPWTH 1QNNE11 1 00299E11 1 00499E11 1 00099E11 1 00099G11 1 00250K11 1 00066L11 1 00700M11 1 29970N11 1 00000Q11 1 10153S11 1 00080V11 1 00604X11 1 21010
0377999999038531972010421005+30400-081417SAO  +0005NRB  V0202005N004650762049N011200599+02835+01785101525ADDGA1999+003054084GA2999+076204004GA3999+999999999GA4999+999999999GD12015+9999999GD23045+9999999GD30005+9999999GD40005+9999999GF105035999999999999999999MA1999999101465EQDN01 00000JPWTH 1QNNE11 1 00201E11 1 00405E11 1 00000E11 1 00000G11 1 00250H11 1 11010H11 1 32250H11 1 00999H11 1 00999K11 1 00064L11 1 00700M11 1 29960N11 1 00000Q11 1 10152S11 1 00083V11 1 00604X11 1 20009
0269999999038531972010422005+30400-081417SAO  +0005NRB  V0202205N002650762049N011200599+02675+01835101525ADDGD13995+9999999GD20995+9999999GD30995+9999999GD40995+9999999GF106055999999999999999999MA1999999101465EQDN01 00000JPWTH 1QNNE11 1 00499E11 1 00099E11 1 00099E11 1 00099G11 1 00250K11 1 00065L11 1 00700M11 1 29960N11 1 00000Q11 1 10152S11 1 00080V11 1 00806X11 1 22005
0269999999038531972010423005+30400-081417SAO  +0005NRB  V0202005N001552200059N011200599+02225+01945101565ADDGD13995+9999993GD20995+9999999GD30995+9999999GD40995+9999999GF105025999999999999999999MA1999999101525EQDN01 00000JPWTH 1QNNE11 1 00399E11 1 00099E11 1 00099E11 1 00099G11U1 99999K11 1 00067L11 1 00700M11 1 29980N11 1 00000Q11 1 10156S11 1 00072V11 1 00602X11 1 20003
0377999999038531972010500005+30400-081417SAO  +0005NRB  V0201805N001552200059N011200599+02445+01835101535ADDGA1999+076204004GA2999+999999999GA3999+999999999GA4999+999999999GD13055+9999993GD20005+9999999GD30005+9999999GD40005+9999999GF105025999999999999999999MA1999999101495EQDN01 00000JPWTH 1QNNE11 1 00306E11 1 00000E11 1 00000E11 1 00000G11U1 99999H11 1 32250H11 1 00999H11 1 00999H11 1 00999K11 1 00065L11 1 00700M11 1 29970N11 1 00000Q11 1 10153S11 1 00076V11 1 00602X11 1 18003
0269999999038531972010501005+30400-081417SAO  +0005NRB  V0201805N002152200059N011200599+02175+01895101605ADDGD13995+9999993GD20995+9999999GD30995+9999999GD40995+9999999GF105025999999999999999999MA1999999101525EQDN01 00000JPWTH 1QNNE11 1 00399E11 1 00099E11 1 00099E11 1 00099G11U1 99999K11 1 00066L11 1 00700M11 1 29980N11 1 00000Q11 1 10160S11 1 00071V11 1 00602X11 1 18004
0269999999038531972010502005+30400-081417SAO  +0005NRB  V0201805N002152200059N011200599+02175+01945101605ADDGD13995+9999993GD20995+9999999GD30995+9999999GD40995+9999999GF105025999999999999999999MA1999999101525EQDN01 00000JPWTH 1QNNE11 1 00399E11 1 00099E11 1 00099E11 1 00099G11U1 99999K11 1 00067L11 1 00700M11 1 29980N11 1 00000Q11 1 10160S11 1 00071V11 1 00602X11 1 18004
0377999999038531972010503005+30400-081417SAO  +0005NRB  V02099959000052200059N011200599+02175+01835101605ADDGA1999+076204004GA2999+999999999GA3999+999999999GA4999+999999999GD11035+9999993GD20005+9999999GD30005+9999999GD40005+9999999GF103025999999999999999999MA1999999101525EQDN01 00000JPWTH 1QNNE11 1 00104E11 1 00000E11 1 00000E11 1 00000G11U1 99999H11 1 32250H11 1 00999H11 1 00999H11 1 00999K11 1 00065L11 1 00700M11 1 29980N11 1 00000Q11 1 10160S11 1 00071V11 1 00402X11 1 00000
0269999999038531972010504005+30400-081417SAO  +0005NRB  V0201805N001552200059N011200599+01945+01785101555ADDGD12995+9999999GD20995+9999999GD30995+9999999GD40995+9999999GF102025999999999999999999MA1999999101495EQDN01 00000JPWTH 1QNNE11 1 00299E11 1 00099E11 1 00099E11 1 00099G11U1 99999K11 1 00064L11 1 00700M11 1 29970N11 1 00000Q11 1 10155S11 1 00067V11 1 00302X11 1 18003
0269999999038531972010505005+30400-081417SAO  +0005NRB  V0202105N001552200059N011200599+01945+01835101525ADDGD12995+9999999GD20995+9999999GD30995+9999999GD40995+9999999GF102025999999999999999999MA1999999101465EQDN01 00000JPWTH 1QNNE11 1 00299E11 1 00099E11 1 00099E11 1 00099G11U1 99999K11 1 00065L11 1 00700M11 1 29960N11 1 00000Q11 1 10152S11 1 00067V11 1 00302X11 1 21003
0377999999038531972010506005+30400-081417SAO  +0005NRB  V0202105N002152200059N011200599+01945+01835101445ADDGA1999+076204004GA2999+999999999GA3999+999999999GA4999+999999999GD12025+9999999GD20005+9999999GD30005+9999999GD40005+9999999GF102025999999999999999999MA1999999101395EQDN01 00000JPWTH 1QNNE11 1 00203E11 1 00000E11 1 00000E11 1 00000G11U1 99999H11 1 32250H11 1 00999H11 1 00999H11 1 00999K11 1 00065L11 1 00700M11 1 29940N11 1 00000Q11 1 10144S11 1 00067V11 1 00303X11 1 21004
0269999999038531972010507005+30400-081417SAO  +0005NRB  V0202105N002152200059N011200599+01945+01835101465ADDGD12995+9999999GD20995+9999999GD30995+9999999GD40995+9999999GF102025999999999999999999MA1999999101425EQDN01 00000JPWTH 1QNNE11 1 00299E11 1 00099E11 1 00099E11 1 00099G11U1 99999K11 1 00065L11 1 00700M11 1 29950N11 1 00000Q11 1 10146S11 1 00067V11 1 00302X11 1 21004
0269999999038531972010508005+30400-081417SAO  +0005NRB  V0202205N003152200059N011200599+01945+01835101445ADDGD12995+9999999GD22995+9999999GD30995+9999999GD40995+9999999GF102025999999999999999999MA1999999101395EQDN01 00000JPWTH 1QNNE11 1 00299E11 1 00299E11 1 00099E11 1 00099G11U1 99999K11 1 00065L11 1 00700M11 1 29940N11 1 00000Q11 1 10144S11 1 00067V11 1 00302X11 1 22006
0377999999038531972010509005+30400-081417SAO  +0005NRB  V0202105N004152200059N011200599+02005+01835101375ADDGA1999+024384034GA2999+076204004GA3999+999999999GA4999+999999999GD12025+9999999GD22015+9999999GD30005+9999999GD40005+9999999GF102025999999999999999999MA1999999101325EQDN01 00000JPWTH 1QNNE11 1 00202E11 1 00201E11 1 00000E11 1 00000G11U1 99999H11 1 23080H11 1 32250H11 1 00999H11 1 00999K11 1 00065L11 1 00700M11 1 29920N11 1 00000Q11 1 10137S11 1 00068V11 1 00303X11 1 21008
0269999999038531972010510005+30400-081417SAO  +0005NRB  V0202105N003650030549N011200599+02065+01835101375ADDGD13995+9999999GD23995+9999999GD30995+9999999GD40995+9999999GF106065999999999999999999MA1999999101325EQDN01 00000JPWTH 1QNNE11 1 00499E11 1 00499E11 1 00099E11 1 00099G11 1 00010K11 1 00065L11 1 00700M11 1 29920N11 1 00000Q11 1 10137S11 1 00069V11 1 00807X11 1 21007
0269999999038531972010511005+30400-081417SAO  +0005NRB  V0202205N004152200059N011200599+02065+01895101375ADDGD12995+9999999GD22995+9999999GD30995+9999999GD40995+9999999GF104035999999999999999999MA1999999101325EQDN01 00000JPWTH 1QNNE11 1 00299E11 1 00299E11 1 00099E11 1 00099G11U1 99999K11 1 00066L11 1 00700M11 1 29920N11 1 00000Q11 1 10137S11 1 00069V11 1 00504X11 1 22008
0377999999038531972010512005+30400-081417SAO  +0005NRB  V0202105N005750024449N011200599+02175+01945101365ADDGA1999+002444074GA2999+999999999GA3999+999999999GA4999+999999999GD13065+9999999GD20005+9999999GD30005+9999999GD40005+9999999GF106065999999999999999999MA1999999101325EQDN01 00000JPWTH 1QNNE11 1 00407E11 1 00000E11 1 00000E11 1 00000G11 1 00008H11 1 16008H11 1 00999H11 1 00999H11 1 00999K11 1 00067L11 1 00700M11 1 29920N11 1 00000Q11 1 10136S11 1 00071V11 1 00707X11 1 21011
0269999999038531972010513005+30400-081417SAO  +0005NRB  V0202105N004650024449N011200599+02285+01945101455ADDGD13995+9999999GD20995+9999999GD30995+9999999GD40995+9999999GF105055999999999999999999MA1999999101395EQDN01 00000JPWTH 1QNNE11 1 00499E11 1 00099E11 1 00099E11 1 00099G11 1 00008K11 1 00067L11 1 00700M11 1 29940N11 1 00000Q11 1 10145S11 1 00073V11 1 00606X11 1 21009
0269999999038531972010514005+30400-081417SAO  +0005NRB  V0202105N006252200059N011200599+02505+02005101485ADDGD12995+9999999GD20995+9999999GD30995+9999999GD40995+9999999GF101015999999999999999999MA1999999101425EQDN01 00000JPWTH 1QNNE11 1 00299E11 1 00099E11 1 00099E11 1 00099G11U1 99999K11 1 00068L11 1 00700M11 1 29950N11 1 00000Q11 1 10148S11 1 00077V11 1 00101X11 1 21012
0377999999038531972010515005+30400-081417SAO  +0005NRB  V0202105N007252200059N011200599+02505+02065101505ADDGA1999+002444074GA2999+999999999GA3999+999999999GA4999+999999999GD12025+9999999GD20005+9999999GD30005+9999999GD40005+9999999GF102025999999999999999999MA1999999101465EQDN01 00000JPWTH 1QNNE11 1 00203E11 1 00000E11 1 00000E11 1 00000G11U1 99999H11 1 16008H11 1 00999H11 1 00999H11 1 00999K11 1 00069L11 1 00700M11 1 29960N11 1 00000Q11 1 10150S11 1 00077V11 1 00303X11 1 21014
0269999999038531972010516005+30400-081417SAO  +0005NRB  V0202305N006752200059N011200599+02675+02065101485ADDGD12995+9999999GD22995+9999999GD30995+9999999GD40995+9999999GF103025999999999999999999MA1999999101425EQDN01 00000JPWTH 1QNNE11 1 00299E11 1 00299E11 1 00099E11 1 00099G11U1 99999K11 1 00069L11 1 00700M11 1 29950N11 1 00000Q11 1 10148S11 1 00080V11 1 00403X11 1 23013
0269999999038531972010517005+30400-081417SAO  +0005NRB  V0202305N007250762049N011200599+02785+02065101395ADDGD12995+9999999GD22995+9999999GD33995+9999999GD40995+9999999GF105045999999999999999999MA1999999101325EQDN01 00000JPWTH 1QNNE11 1 00299E11 1 00299E11 1 00499E11 1 00099G11 1 00250K11 1 00069L11 1 00700M11 1 29920N11 1 00000Q11 1 10139S11 1 00082V11 1 00605X11 1 23014
0377999999038531972010518005+30400-081417SAO  +0005NRB  V0203005N007750045749N011200599+02675+02115101335ADDGA1999+004574084GA2999+999999999GA3999+999999999GA4999+999999999GD13065+9999999GD20005+9999999GD30005+9999999GD40005+9999999GF106065999999999999999999MA1999999101295EQDN01 00000JPWTH 1QNNE11 1 00408E11 1 00000E11 1 00000E11 1 00000G11 1 00015H11 1 11015H11 1 00999H11 1 00999H11 1 00999K11 1 00070L11 1 00700M11 1 29910N11 1 00000Q11 1 10133S11 1 00080V11 1 00808X11 1 30015
0269999999038531972010519005+30400-081417SAO  +0005NRB  V0203405N007750030549N011200599+02115+02005101415ADDGD14995+9999999GD20995+9999999GD30995+9999999GD40995+9999999GF108085999999999999999999MA1999999101355EQDN01 00000JPWTH 1QNNE11 1 00699E11 1 00099E11 1 00099E11 1 00099G11 1 00010K11 1 00068L11 1 00700M11 1 29930N11 1 00000Q11 1 10141S11 1 00070V11 1 01010X11 1 34015
0269999999038531972010520005+30400-081417SAO  +0005NRB  V0203105N004150045749N011200599+02065+01675101455ADDGD12995+9999999GD23995+9999999GD30995+9999999GD40995+9999999GF106065999999999999999999MA1999999101395EQDN01 00000JPWTH 1QNNE11 1 00299E11 1 00499E11 1 00099E11 1 00099G11 1 00015K11 1 00062L11 1 00700M11 1 29940N11 1 00000Q11 1 10145S11 1 00069V11 1 00808X11 1 31008
0377999999038531972010521005+30400-081417SAO  +0005NRB  V0203105N003652200059N011200599+02445+01565101495ADDGA1999+004574084GA2999+024384034GA3999+076204004GA4999+999999999GD12025+9999999GD22015+9999999GD32025+9999999GD40005+9999999GF104025999999999999999999MA1999999101425EQDN01 00000JPWTH 1QNNE11 1 00202E11 1 00201E11 1 00202E11 1 00000G11U1 99999H11 1 11015H11 1 23080H11 1 32250H11 1 00999K11 1 00060L11 1 00700M11 1 29950N11 1 00000Q11 1 10149S11 1 00076V11 1 00503X11 1 31007
0275999999038531972010522005+30400-081417SAO  +0005NRB  V0202705N001552200059N008000599+01945+01725101455ADDGD12995+9999999GD22995+9999999GD30995+9999999GD40995+9999999GF103025999999999999999999MA1999999101395MW1055EQDN01 08100JPWTH 1QNNE11 1 00299E11 1 00299E11 1 00099E11 1 00099G11U1 99999K11 1 00063L11 1 00500M11 1 29940N11 1 08100Q11 1 10145S11 1 00067V11 1 00403X11 1 27003
0275999999038531972010523005+30400-081417SAO  +0005NRB  V0202805N001552200059N009600599+02175+01565101515ADDGD12995+9999999GD21995+9999993GD30995+9999999GD40995+9999999GF102015999999999999999999MA1999999101465MW1055EQDN01 08100JPWTH 1QNNE11 1 00299E11 1 00199E11 1 00099E11 1 00099G11U1 99999K11 1 00060L11 1 00600M11 1 29960N11 1 08100Q11 1 10151S11 1 00071V11 1 00301X11 1 28003
0377999999038531972010600005+30400-081417SAO  +0005NRB  V0203205N001552200059N011200599+02285+01445101515ADDGA1999+021344034GA2999+076204004GA3999+999999999GA4999+999999999GD12015+9999999GD22025+9999999GD30005+9999999GD40005+9999999GF103035999999999999999999MA1999999101465EQDN01 00000JPWTH 1QNNE11 1 00201E11 1 00203E11 1 00000E11 1 00000G11U1 99999H11 1 23070H11 1 32250H11 1 00999H11 1 00999K11 1 00058L11 1 00700M11 1 29960N11 1 00000Q11 1 10151S11 1 00073V11 1 00404X11 1 32003
0269999999038531972010601005+30400-081417SAO  +0005NRB  V0203305N002652200059N011200599+01945+01445101615ADDGD12995+9999999GD22995+9999999GD30995+9999999GD40995+9999999GF103025999999999999999999MA1999999101565EQDN01 00000JPWTH 1QNNE11 1 00299E11 1 00299E11 1 00099E11 1 00099G11U1 99999K11 1 00058L11 1 00700M11 1 29990N11 1 00000Q11 1 10161S11 1 00067V11 1 00403X11 1 33005
0269999999038531972010602005+30400-081417SAO  +0005NRB  V0203605N003650213449N011200599+01785+01395101695ADDGD12995+9999999GD23995+9999999GD33995+9999999GD40995+9999999GF106065999999999999999999MA1999999101635EQDN01 00000JPWTH 1QNNE11 1 00299E11 1 00499E11 1 00499E11 1 00099G11 1 00070K11 1 00057L11 1 00700M11 1 30010N11 1 00000Q11 1 10169S11 1 00064V11 1 00807X11 1 36007
0350999999038531972010603005+30400-081417SAO  +0005NRB  V0203305N003650213449N011200599+01675+01225101735ADDGA1999+006104064GA2999+021344034GA3999+076204004GD12045+9999999GD23025+9999999GD34025+9999999GD40995+9999999GF108085999999999999999999MA1999999101695EQDN01 00000JPWTH 1QNNE11 1 00205E11 1 00403E11 1 00602E11 1 00099G11 1 00070H11 1 15020H11 1 23070H11 1 32250K11 1 00054L11 1 00700M11 1 30030N11 1 00000Q11 1 10173S11 1 00062V11 1 01010X11 1 33007
0269999999038531972010604005+30400-081417SAO  +0005NRB  V0203405N003150061049N011200599+01675+01115101745ADDGD13995+9999999GD24995+9999999GD30995+9999999GD40995+9999999GF108085999999999999999999MA1999999101695EQDN01 00000JPWTH 1QNNE11 1 00499E11 1 00699E11 1 00099E11 1 00099G11 1 00020K11 1 00052L11 1 00700M11 1 30030N11 1 00000Q11 1 10174S11 1 00062V11 1 01010X11 1 34006
0269999999038531972010605005+30400-081417SAO  +0005NRB  V0203605N004150061049N011200599+01505+01005101765ADDGD13995+9999999GD24995+9999999GD30995+9999999GD40995+9999999GF108085999999999999999999MA1999999101695EQDN01 00000JPWTH 1QNNE11 1 00499E11 1 00699E11 1 00099E11 1 00099G11 1 00020K11 1 00050L11 1 00700M11 1 30030N11 1 00000Q11 1 10176S11 1 00059V11 1 01010X11 1 36008
0296999999038531972010606005+30400-081417SAO  +0005NRB  V0203605N003650061049N011200599+01335+00895101725ADDGA1999+006104064GD14085+9999999GD20995+9999999GD30995+9999999GD40995+9999999GF108085999999999999999999MA1999999101665EQDN01 00000JPWTH 1QNNE11 1 00610E11 1 00099E11 1 00099E11 1 00099G11 1 00020H11 1 15020K11 1 00048L11 1 00700M11 1 30020N11 1 00000Q11 1 10172S11 1 00056V11 1 01010X11 1 36007
0269999999038531972010607005+30400-081417SAO  +0005NRB  V0203505N004150061049N011200599+01285+00785101795ADDGD14995+9999999GD20995+9999999GD30995+9999999GD40995+9999999GF108085999999999999999999MA1999999101735EQDN01 00000JPWTH 1QNNE11 1 00699E11 1 00099E11 1 00099E11 1 00099G11 1 00020K11 1 00046L11 1 00700M11 1 30040N11 1 00000Q11 1 10179S11 1 00055V11 1 01010X11 1 35008
0269999999038531972010608005+30400-081417SAO  +0005NRB  V0203505N003150061049N011200599+01225+00835101815ADDGD14995+9999999GD20995+9999999GD30995+9999999GD40995+9999999GF108085999999999999999999MA1999999101765EQDN01 00000JPWTH 1QNNE11 1 00699E11 1 00099E11 1 00099E11 1 00099G11 1 00020K11 1 00047L11 1 00700M11 1 30050N11 1 00000Q11 1 10181S11 1 00054V11 1 01010X11 1 35006
0296999999038531972010609005+30400-081417SAO  +0005NRB  V0203305N003150061049N011200599+01175+00725101815ADDGA1999+006104064GD14085+9999999GD20995+9999999GD30995+9999999GD40995+9999999GF108085999999999999999999MA1999999101765EQDN01 00000JPWTH 1QNNE11 1 00610E11 1 00099E11 1 00099E11 1 00099G11 1 00020H11 1 15020K11 1 00045L11 1 00700M11 1 30050N11 1 00000Q11 1 10181S11 1 00053V11 1 01010X11 1 33006
0269999999038531972010610005+30400-081417SAO  +0005NRB  V0203305N003150061049N011200599+01115+00725101825ADDGD14995+9999999GD20995+9999999GD30995+9999999GD40995+9999999GF108085999999999999999999MA1999999101765EQDN01 00000JPWTH 1QNNE11 1 00699E11 1 00099E11 1 00099E11 1 00099G11 1 00020K11 1 00045L11 1 00700M11 1 30050N11 1 00000Q11 1 10182S11 1 00052V11 1 01010X11 1 33006
0269999999038531972010611005+30400-081417SAO  +0005NRB  V0203405N002650061049N011200599+01005+00725101825ADDGD14995+9999999GD20995+9999999GD30995+9999999GD40995+9999999GF108085999999999999999999MA1999999101765EQDN01 00000JPWTH 1QNNE11 1 00699E11 1 00099E11 1 00099E11 1 00099G11 1 00020K11 1 00045L11 1 00700M11 1 30050N11 1 00000Q11 1 10182S11 1 00050V11 1 01010X11 1 34005
0296999999038531972010612005+30400-081417SAO  +0005NRB  V0203305N002150061049N011200599+01115+00675101855ADDGA1999+006104064GD14085+9999999GD20995+9999999GD30995+9999999GD40995+9999999GF108085999999999999999999MA1999999101795EQDN01 00000JPWTH 1QNNE11 1 00610E11 1 00099E11 1 00099E11 1 00099G11 1 00020H11 1 15020K11 1 00044L11 1 00700M11 1 30060N11 1 00000Q11 1 10185S11 1 00052V11 1 01010X11 1 33004
0269999999038531972010613005+30400-081417SAO  +0005NRB  V0203405N002650051849N011200599+01065+00505101985ADDGD14995+9999999GD20995+9999999GD30995+9999999GD40995+9999999GF108085999999999999999999MA1999999101935EQDN01 00000JPWTH 1QNNE11 1 00699E11 1 00099E11 1 00099E11 1 00099G11 1 00017K11 1 00041L11 1 00700M11 1 30100N11 1 00000Q11 1 10198S11 1 00051V11 1 01010X11 1 34005
0269999999038531972010614005+30400-081417SAO  +0005NRB  V0203205N003150051849N011200599+00945+00675102005ADDGD14995+9999999GD20995+9999999GD30995+9999999GD40995+9999999GF108085999999999999999999MA1999999101965EQDN01 00000JPWTH 1QNNE11 1 00699E11 1 00099E11 1 00099E11 1 00099G11 1 00017K11 1 00044L11 1 00700M11 1 30110N11 1 00000Q11 1 10200S11 1 00049V11 1 01010X11 1 32006
0296999999038531972010615005+30400-081417SAO  +0005NRB  V0203205N003150051849N011200599+01065+00565102085ADDGA1999+005184064GD14085+9999999GD20995+9999999GD30995+9999999GD40995+9999999GF108085999999999999999999MA1999999102035EQDN01 00000JPWTH 1QNNE11 1 00610E11 1 00099E11 1 00099E11 1 00099G11 1 00017H11 1 15017K11 1 00042L11 1 00700M11 1 30130N11 1 00000Q11 1 10208S11 1 00051V11 1 01010X11 1 32006
0269999999038531972010616005+30400-081417SAO  +0005NRB  V0203205N002650051849N011200599+01175+00615102075ADDGD13995+9999999GD24995+9999999GD30995+9999999GD40995+9999999GF108085999999999999999999MA1999999102005EQDN01 00000JPWTH 1QNNE11 1 00499E11 1 00699E11 1 00099E11 1 00099G11 1 00017K11 1 00043L11 1 00700M11 1 30120N11 1 00000Q11 1 10207S11 1 00053V11 1 01010X11 1 32005
0269999999038531972010617005+30400-081417SAO  +0005NRB  V0202805N002150051849N011200599+01335+00675101995ADDGD13995+9999999GD24995+9999999GD30995+9999999GD40995+9999999GF108085999999999999999999MA1999999101935EQDN01 00000JPWTH 1QNNE11 1 00499E11 1 00699E11 1 00099E11 1 00099G11 1 00017K11 1 00044L11 1 00700M11 1 30100N11 1 00000Q11 1 10199S11 1 00056V11 1 01010X11 1 28004
0377999999038531972010618005+30400-081417SAO  +0005NRB  V0202705N002650051849N011200599+01395+00785101895ADDGA1999+005184064GA2999+021344034GA3999+999999999GA4999+999999999GD13055+9999999GD23025+9999999GD30005+9999999GD40005+9999999GF107075999999999999999999MA1999999101835EQDN01 00000JPWTH 1QNNE11 1 00406E11 1 00403E11 1 00000E11 1 00000G11 1 00017H11 1 15017H11 1 23070H11 1 00999H11 1 00999K11 1 00046L11 1 00700M11 1 30070N11 1 00000Q11 1 10189S11 1 00057V11 1 00909X11 1 27005
0269999999038531972010619005+30400-081417SAO  +0005NRB  V0202705N004150243849N011200599+01675+00835101855ADDGD12995+9999999GD23995+9999999GD33995+9999999GD40995+9999999GF106065999999999999999999MA1999999101795EQDN01 00000JPWTH 1QNNE11 1 00299E11 1 00499E11 1 00499E11 1 00099G11 1 00080K11 1 00047L11 1 00700M11 1 30060N11 1 00000Q11 1 10185S11 1 00062V11 1 00707X11 1 27008
0269999999038531972010620005+30400-081417SAO  +0005NRB  V0202805N005250243849N011200599+01725+00835101895ADDGD13995+9999999GD23995+9999999GD30995+9999999GD40995+9999999GF106065999999999999999999MA1999999101835EQDN01 00000JPWTH 1QNNE11 1 00499E11 1 00499E11 1 00099E11 1 00099G11 1 00080K11 1 00047L11 1 00700M11 1 30070N11 1 00000Q11 1 10189S11 1 00063V11 1 00707X11 1 28010
0377999999038531972010621005+30400-081417SAO  +0005NRB  V0202805N004150243849N011200599+01615+00785101955ADDGA1999+024384034GA2999+076204004GA3999+999999999GA4999+999999999GD13055+9999999GD23025+9999999GD30005+9999999GD40005+9999999GF106055999999999999999999MA1999999101905EQDN01 00000JPWTH 1QNNE11 1 00406E11 1 00402E11 1 00000E11 1 00000G11 1 00080H11 1 23080H11 1 32250H11 1 00999H11 1 00999K11 1 00046L11 1 00700M11 1 30090N11 1 00000Q11 1 10195S11 1 00061V11 1 00806X11 1 28008
0269999999038531972010622005+30400-081417SAO  +0005NRB  V0203105N004650243849N011200599+01445+00565101985ADDGD12995+9999999GD24995+9999999GD30995+9999999GD40995+9999999GF108075999999999999999999MA1999999101935EQDN01 00000JPWTH 1QNNE11 1 00299E11 1 00699E11 1 00099E11 1 00099G11 1 00080K11 1 00042L11 1 00700M11 1 30100N11 1 00000Q11 1 10198S11 1 00058V11 1 01009X11 1 31009
0275999999038531972010623005+30400-081417SAO  +0005NRB  V0203105N004150243849N011200599+01175+00725102005ADDGD12995+9999999GD23995+9999999GD34995+9999999GD40995+9999999GF108085999999999999999999MA1999999101965MW1615EQDN01 02000JPWTH 1QNNE11 1 00299E11 1 00499E11 1 00699E11 1 00099G11 1 00080K11 1 00045L11 1 00700M11 1 30110N11 1 02000Q11 1 10200S11 1 00053V11 1 01010X11 1 31008
0323999999038531972010700005+30400-081417SAO  +0005NRB  V0203105N005250243849N011200599+01065+00565102085ADDGA1999+024384034GA2999+076204024GD13075+9999999GD24015+9999999GD30995+9999999GD40995+9999999GF108085999999999999999999MA1999999102035EQDN01 00000JPWTH 1QNNE11 1 00409E11 1 00601E11 1 00099E11 1 00099G11 1 00080H11 1 23080H11 1 37250K11 1 00042L11 1 00700M11 1 30130N11 1 00000Q11 1 10208S11 1 00051V11 1 01010X11 1 31010
0269999999038531972010701005+30400-081417SAO  +0005NRB  V0203105N004150243849N011200599+00945+00565102195ADDGD13995+9999999GD24995+9999999GD30995+9999999GD40995+9999999GF108085999999999999999999MA1999999102135EQDN01 00000JPWTH 1QNNE11 1 00499E11 1 00699E11 1 00099E11 1 00099G11 1 00080K11 1 00042L11 1 00700M11 1 30160N11 1 00000Q11 1 10219S11 1 00049V11 1 01010X11 1 31008
0269999999038531972010702005+30400-081417SAO  +0005NRB  V0203205N005250762049N011200599+00945+00505102235ADDGD12995+9999999GD24995+9999999GD30995+9999999GD40995+9999999GF108085999999999999999999MA1999999102175EQDN01 00000JPWTH 1QNNE11 1 00299E11 1 00699E11 1 00099E11 1 00099G11 1 00250K11 1 00041L11 1 00700M11 1 30170N11 1 00000Q11 1 10223S11 1 00049V11 1 01010X11 1 32010
0377999999038531972010703005+30400-081417SAO  +0005NRB  V0203105N004152200059N011200599+00895+00395102305ADDGA1999+076204004GA2999+999999999GA3999+999999999GA4999+999999999GD12025+9999999GD20005+9999999GD30005+9999999GD40005+9999999GF102025999999999999999999MA1999999102245EQDN01 00000JPWTH 1QNNE11 1 00203E11 1 00000E11 1 00000E11 1 00000G11U1 99999H11 1 32250H11 1 00999H11 1 00999H11 1 00999K11 1 00039L11 1 00700M11 1 30190N11 1 00000Q11 1 10230S11 1 00048V11 1 00303X11 1 31008
0269999999038531972010704005+30400-081417SAO  +0005NRB  V0203205N005252200059N011200599+00785+00335102345ADDGD12995+9999999GD20995+9999999GD30995+9999999GD40995+9999999GF102025999999999999999999MA1999999102305EQDN01 00000JPWTH 1QNNE11 1 00299E11 1 00099E11 1 00099E11 1 00099G11U1 99999K11 1 00038L11 1 00700M11 1 30210N11 1 00000Q11 1 10234S11 1 00046V11 1 00302X11 1 32010
0269999999038531972010705005+30400-081417SAO  +0005NRB  V0203305N004152200059N011200599+00725+00285102345ADDGD12995+9999999GD20995+9999999GD30995+9999999GD40995+9999999GF102025999999999999999999MA1999999102305EQDN01 00000JPWTH 1QNNE11 1 00299E11 1 00099E11 1 00099E11 1 00099G11U1 99999K11 1 00037L11 1 00700M11 1 30210N11 1 00000Q11 1 10234S11 1 00045V11 1 00302X11 1 33008
0377999999038531972010706005+30400-081417SAO  +0005NRB  V0203005N003152200059N011200599+00615+00285102315ADDGA1999+076204004GA2999+999999999GA3999+999999999GA4999+999999999GD12025+9999999GD20005+9999999GD30005+9999999GD40005+9999999GF102025999999999999999999MA1999999102245EQDN01 00000JPWTH 1QNNE11 1 00203E11 1 00000E11 1 00000E11 1 00000G11U1 99999H11 1 32250H11 1 00999H11 1 00999H11 1 00999K11 1 00037L11 1 00700M11 1 30190N11 1 00000Q11 1 10231S11 1 00043V11 1 00302X11 1 30006
0269999999038531972010707005+30400-081417SAO  +0005NRB  V0203105N004152200059N011200599+00615+00285102345ADDGD10995+9999999GD20995+9999999GD30995+9999999GD40995+9999999GF100005999999999999999999MA1999999102305EQDN01 00000JPWTH 1QNNE11 1 00099E11 1 00099E11 1 00099E11 1 00099G11U1 99999K11 1 00037L11 1 00700M11 1 30210N11 1 00000Q11 1 10234S11 1 00043V11 1 00000X11 1 31008
0269999999038531972010708005+30400-081417SAO  +0005NRB  V0203205N004152200059N011200599+00615+00285102395ADDGD10995+9999999GD20995+9999999GD30995+9999999GD40995+9999999GF100005999999999999999999MA1999999102345EQDN01 00000JPWTH 1QNNE11 1 00099E11 1 00099E11 1 00099E11 1 00099G11U1 99999K11 1 00037L11 1 00700M11 1 30220N11 1 00000Q11 1 10239S11 1 00043V11 1 00000X11 1 32008
0165999999038531972010709005+30400-081417SAO  +0005NRB  V0203205N004152200059N011200599+00565+00285102415ADDGF100005999999999999999999MA1999999102375EQDN01 00000JPWTH 1QNNG11U1 99999K11 1 00037L11 1 00700M11 1 30230N11 1 00000Q11 1 10241S11 1 00042V11 1 00000X11 1 32008
0269999999038531972010710005+30400-081417SAO  +0005NRB  V0203105N005252200059N011200599+00505+00225102455ADDGD10995+9999999GD20995+9999999GD30995+9999999GD40995+9999999GF100005999999999999999999MA1999999102405EQDN01 00000JPWTH 1QNNE11 1 00099E11 1 00099E11 1 00099E11 1 00099G11U1 99999K11 1 00036L11 1 00700M11 1 30240N11 1 00000Q11 1 10245S11 1 00041V11 1 00000X11 1 31010
0269999999038531972010711005+30400-081417SAO  +0005NRB  V0203105N003152200059N011200599+00445+00225102535ADDGD10995+9999999GD20995+9999999GD30995+9999999GD40995+9999999GF100005999999999999999999MA1999999102475EQDN01 00000JPWTH 1QNNE11 1 00099E11 1 00099E11 1 00099E11 1 00099G11U1 99999K11 1 00036L11 1 00700M11 1 30260N11 1 00000Q11 1 10253S11 1 00040V11 1 00000X11 1 31006
0377999999038531972010712005+30400-081417SAO  +0005NRB  V0203205N003652200059N011200599+00395+00285102635ADDGA1999+010674064GA2999+999999999GA3999+999999999GA4999+999999999GD12025+9999999GD20005+9999999GD30005+9999999GD40005+9999999GF102025999999999999999999MA1999999102575EQDN01 00000JPWTH 1QNNE11 1 00202E11 1 00000E11 1 00000E11 1 00000G11U1 99999H11 1 15035H11 1 00999H11 1 00999H11 1 00999K11 1 00037L11 1 00700M11 1 30290N11 1 00000Q11 1 10263S11 1 00039V11 1 00202X11 1 32007
0269999999038531972010713005+30400-081417SAO  +0005NRB  V0203305N003652200059N011200599+00445+00175102735ADDGD12995+9999999GD20995+9999999GD30995+9999999GD40995+9999999GF102025999999999999999999MA1999999102685EQDN01 00000JPWTH 1QNNE11 1 00299E11 1 00099E11 1 00099E11 1 00099G11U1 99999K11 1 00035L11 1 00700M11 1 30320N11 1 00000Q11 1 10273S11 1 00040V11 1 00303X11 1 33007
0269999999038531972010714005+30400-081417SAO  +0005NRB  V0203405N004652200059N011200599+00615+00225102785ADDGD12995+9999999GD20995+9999999GD30995+9999999GD40995+9999999GF102025999999999999999999MA1999999102745EQDN01 00000JPWTH 1QNNE11 1 00299E11 1 00099E11 1 00099E11 1 00099G11U1 99999K11 1 00036L11 1 00700M11 1 30340N11 1 00000Q11 1 10278S11 1 00043V11 1 00202X11 1 34009
0165999999038531972010715005+30400-081417SAO  +0005NRB  V0203305N004652200059N011200599+00895+00285102855ADDGF100005999999999999999999MA1999999102815EQDN01 00000JPWTH 1QNNG11U1 99999K11 1 00037L11 1 00700M11 1 30360N11 1 00000Q11 1 10285S11 1 00048V11 1 00000X11 1 33009
0269999999038531972010716005+30400-081417SAO  +0005NRB  V0203305N003652200059N011200599+01115-00115102845ADDGD10995+9999999GD20995+9999999GD30995+9999999GD40995+9999999GF100005999999999999999999MA1999999102785EQDN01 00000JPWTH 1QNNE11 1 00099E11 1 00099E11 1 00099E11 1 00099G11U1 99999K11 1 00030L11 1 00700M11 1 30350N11 1 00000Q11 1 10284S11 1 00052V11 1 00000X11 1 33007
0269999999038531972010717005+30400-081417SAO  +0005NRB  V0203305N004152200059N011200599+01335-00225102785ADDGD10995+9999999GD20995+9999999GD30995+9999999GD40995+9999999GF100005999999999999999999MA1999999102745EQDN01 00000JPWTH 1QNNE11 1 00099E11 1 00099E11 1 00099E11 1 00099G11U1 99999K11 1 00028L11 1 00700M11 1 30340N11 1 00000Q11 1 10278S11 1 00056V11 1 00000X11 1 33008
0165999999038531972010718005+30400-081417SAO  +0005NRB  V0203405N003152200059N011200599+01505-00445102645ADDGF100005999999999999999999MA1999999102575EQDN01 00000JPWTH 1QNNG11U1 99999K11 1 00024L11 1 00700M11 1 30290N11 1 00000Q11 1 10264S11 1 00059V11 1 00000X11 1 34006
0269999999038531972010719005+30400-081417SAO  +0005NRB  V0203405N003152200059N011200599+01565-00335102635ADDGD10995+9999999GD20995+9999999GD30995+9999999GD40995+9999999GF100005999999999999999999MA1999999102575EQDN01 00000JPWTH 1QNNE11 1 00099E11 1 00099E11 1 00099E11 1 00099G11U1 99999K11 1 00026L11 1 00700M11 1 30290N11 1 00000Q11 1 10263S11 1 00060V11 1 00000X11 1 34006
0269999999038531972010720005+30400-081417SAO  +0005NRB  V0203605N004152200059N011200599+01675-00225102605ADDGD10995+9999999GD20995+9999999GD30995+9999999GD40995+9999999GF100005999999999999999999MA1999999102545EQDN01 00000JPWTH 1QNNE11 1 00099E11 1 00099E11 1 00099E11 1 00099G11U1 99999K11 1 00028L11 1 00700M11 1 30280N11 1 00000Q11 1 10260S11 1 00062V11 1 00000X11 1 36008
0165999999038531972010721005+30400-081417SAO  +0005NRB  V0203405N003152200059N011200599+01675-00225102635ADDGF100005999999999999999999MA1999999102575EQDN01 00000JPWTH 1QNNG11U1 99999K11 1 00028L11 1 00700M11 1 30290N11 1 00000Q11 1 10263S11 1 00062V11 1 00000X11 1 34006
0269999999038531972010722005+30400-081417SAO  +0005NRB  V0203305N002652200059N011200599+01675-00115102695ADDGD10995+9999999GD20995+9999999GD30995+9999999GD40995+9999999GF100005999999999999999999MA1999999102645EQDN01 00000JPWTH 1QNNE11 1 00099E11 1 00099E11 1 00099E11 1 00099G11U1 99999K11 1 00030L11 1 00700M11 1 30310N11 1 00000Q11 1 10269S11 1 00062V11 1 00000X11 1 33005
0269999999038531972010723005+30400-081417SAO  +0005NRB  V0203605N001552200059N011200599+01395+00005102725ADDGD10995+9999999GD20995+9999999GD30995+9999999GD40995+9999999GF100005999999999999999999MA1999999102685EQDN01 00000JPWTH 1QNNE11 1 00099E11 1 00099E11 1 00099E11 1 00099G11U1 99999K11 1 00032L11 1 00700M11 1 30320N11 1 00000Q11 1 10272S11 1 00057V11 1 00000X11 1 36003
0165999999038531972010800005+30400-081417SAO  +0005NRB  V0203305N002152200059N011200599+01225+00175102785ADDGF100005999999999999999999MA1999999102745EQDN01 00000JPWTH 1QNNG11U1 99999K11 1 00035L11 1 00700M11 1 30340N11 1 00000Q11 1 10278S11 1 00054V11 1 00000X11 1 33004
0269999999038531972010801005+30400-081417SAO  +0005NRB  V0203405N002152200059N011200599+01175+00115102845ADDGD10995+9999999GD20995+9999999GD30995+9999999GD40995+9999999GF100005999999999999999999MA1999999102785EQDN01 00000JPWTH 1QNNE11 1 00099E11 1 00099E11 1 00099E11 1 00099G11U1 99999K11 1 00034L11 1 00700M11 1 30350N11 1 00000Q11 1 10284S11 1 00053V11 1 00000X11 1 34004
0269999999038531972010802005+30400-081417SAO  +0005NRB  V0203305N001552200059N011200599+01005+00285102885ADDGD10995+9999999GD20995+9999999GD30995+9999999GD40995+9999999GF100005999999999999999999MA1999999102815EQDN01 00000JPWTH 1QNNE11 1 00099E11 1 00099E11 1 00099E11 1 00099G11U1 99999K11 1 00037L11 1 00700M11 1 30360N11 1 00000Q11 1 10288S11 1 00050V11 1 00000X11 1 33003
0165999999038531972010803005+30400-081417SAO  +0005NRB  V0203505N003152200059N011200599+01065+00115102885ADDGF100005999999999999999999MA1999999102815EQDN01 00000JPWTH 1QNNG11U1 99999K11 1 00034L11 1 00700M11 1 30360N11 1 00000Q11 1 10288S11 1 00051V11 1 00000X11 1 35006
0269999999038531972010804005+30400-081417SAO  +0005NRB  V0203005N002152200059N011200599+01065+00115102845ADDGD10995+9999999GD20995+9999999GD30995+9999999GD40995+9999999GF100005999999999999999999MA1999999102785EQDN01 00000JPWTH 1QNNE11 1 00099E11 1 00099E11 1 00099E11 1 00099G11U1 99999K11 1 00034L11 1 00700M11 1 30350N11 1 00000Q11 1 10284S11 1 00051V11 1 00000X11 1 30004
0269999999038531972010805005+30400-081417SAO  +0005NRB  V0203105N002152200059N011200599+00895+00115102815ADDGD10995+9999999GD20995+9999999GD30995+9999999GD40995+9999999GF100005999999999999999999MA1999999102745EQDN01 00000JPWTH 1QNNE11 1 00099E11 1 00099E11 1 00099E11 1 00099G11U1 99999K11 1 00034L11 1 00700M11 1 30340N11 1 00000Q11 1 10281S11 1 00048V11 1 00000X11 1 31004
0165999999038531972010806005+30400-081417SAO  +0005NRB  V0203505N003152200059N011200599+00945+00175102775ADDGF100005999999999999999999MA1999999102715EQDN01 00000JPWTH 1QNNG11U1 99999K11 1 00035L11 1 00700M11 1 30330N11 1 00000Q11 1 10277S11 1 00049V11 1 00000X11 1 35006
0269999999038531972010807005+30400-081417SAO  +0005NRB  V0203305N002152200059N011200599+00895+00335102765ADDGD10995+9999999GD20995+9999999GD30995+9999999GD40995+9999999GF100005999999999999999999MA1999999102715EQDN01 00000JPWTH 1QNNE11 1 00099E11 1 00099E11 1 00099E11 1 00099G11U1 99999K11 1 00038L11 1 00700M11 1 30330N11 1 00000Q11 1 10276S11 1 00048V11 1 00000X11 1 33004
0269999999038531972010808005+30400-081417SAO  +0005NRB  V0203305N002152200059N011200599+00835+00395102765ADDGD10995+9999999GD20995+9999999GD30995+9999999GD40995+9999999GF100005999999999999999999MA1999999102715EQDN01 00000JPWTH 1QNNE11 1 00099E11 1 00099E11 1 00099E11 1 00099G11U1 99999K11 1 00039L11 1 00700M11 1 30330N11 1 00000Q11 1 10276S11 1 00047V11 1 00000X11 1 33004
0165999999038531972010809005+30400-081417SAO  +0005NRB  V0203305N002152200059N011200599+00835+00445102765ADDGF100005999999999999999999MA1999999102715EQDN01 00000JPWTH 1QNNG11U1 99999K11 1 00040L11 1 00700M11 1 30330N11 1 00000Q11 1 10276S11 1 00047V11 1 00000X11 1 33004
0269999999038531972010810005+30400-081417SAO  +0005NRB  V0203305N002152200059N011200599+00895+00615102765ADDGD10995+9999999GD20995+9999999GD30995+9999999GD40995+9999999GF100005999999999999999999MA1999999102715EQDN01 00000JPWTH 1QNNE11 1 00099E11 1 00099E11 1 00099E11 1 00099G11U1 99999K11 1 00043L11 1 00700M11 1 30330N11 1 00000Q11 1 10276S11 1 00048V11 1 00000X11 1 33004
0269999999038531972010811005+30400-081417SAO  +0005NRB  V0200405N006252200059N011200599+01335+00785102765ADDGD10995+9999999GD20995+9999999GD30995+9999999GD40995+9999999GF100005999999999999999999MA1999999102715EQDN01 00000JPWTH 1QNNE11 1 00099E11 1 00099E11 1 00099E11 1 00099G11U1 99999K11 1 00046L11 1 00700M11 1 30330N11 1 00000Q11 1 10276S11 1 00056V11 1 00000X11 1 04012
0377999999038531972010812005+30400-081417SAO  +0005NRB  V0200505N005252200059N011200599+01505+00835102715ADDGA1999+009144084GA2999+076204004GA3999+999999999GA4999+999999999GD12015+9999999GD22025+9999999GD30005+9999999GD40005+9999999GF103025999999999999999999MA1999999102645EQDN01 00000JPWTH 1QNNE11 1 00201E11 1 00203E11 1 00000E11 1 00000G11U1 99999H11 1 11030H11 1 32250H11 1 00999H11 1 00999K11 1 00047L11 1 00700M11 1 30310N11 1 00000Q11 1 10271S11 1 00059V11 1 00403X11 1 05010
0269999999038531972010813005+30400-081417SAO  +0005NRB  V0200505N005252200059N011200599+01565+00785102795ADDGD12995+9999999GD22995+9999999GD30995+9999999GD40995+9999999GF104025999999999999999999MA1999999102745EQDN01 00000JPWTH 1QNNE11 1 00299E11 1 00299E11 1 00099E11 1 00099G11U1 99999K11 1 00046L11 1 00700M11 1 30340N11 1 00000Q11 1 10279S11 1 00060V11 1 00503X11 1 05010
0269999999038531972010814005+30400-081417SAO  +0005NRB  V0200605N006752200059N011200599+01725+00725102845ADDGD12995+9999999GD20995+9999999GD30995+9999999GD40995+9999999GF102025999999999999999999MA1999999102785EQDN01 00000JPWTH 1QNNE11 1 00299E11 1 00099E11 1 00099E11 1 00099G11U1 99999K11 1 00045L11 1 00700M11 1 30350N11 1 00000Q11 1 10284S11 1 00063V11 1 00302X11 1 06013
0377999999038531972010815005+30400-081417SAO  +0005NRB  V0200705N005752200059N011200599+01835+01005102925ADDGA1999+076204004GA2999+999999999GA3999+999999999GA4999+999999999GD11025+9999993GD20005+9999999GD30005+9999999GD40005+9999999GF102015999999999999999999MA1999999102845EQDN01 00000JPWTH 1QNNE11 1 00102E11 1 00000E11 1 00000E11 1 00000G11U1 99999H11 1 32250H11 1 00999H11 1 00999H11 1 00999K11 1 00050L11 1 00700M11 1 30370N11 1 00000Q11 1 10292S11 1 00065V11 1 00201X11 1 07011
0269999999038531972010816005+30400-081417SAO  +0005NRB  V0200405N006250243849N011200599+01895+01175102945ADDGD13995+9999999GD20995+9999999GD30995+9999999GD40995+9999999GF107075999999999999999999MA1999999102885EQDN01 00000JPWTH 1QNNE11 1 00499E11 1 00099E11 1 00099E11 1 00099G11 1 00080K11 1 00053L11 1 00700M11 1 30380N11 1 00000Q11 1 10294S11 1 00066V11 1 00909X11 1 04012
0269999999038531972010817005+30400-081417SAO  +0005NRB  V0200405N006750091449N011200599+01945+01115102865ADDGD13995+9999999GD20995+9999999GD30995+9999999GD40995+9999999GF106065999999999999999999MA1999999102815EQDN01 00000JPWTH 1QNNE11 1 00499E11 1 00099E11 1 00099E11 1 00099G11 1 00030K11 1 00052L11 1 00700M11 1 30360N11 1 00000Q11 1 10286S11 1 00067V11 1 00707X11 1 04013
0377999999038531972010818005+30400-081417SAO  +0005NRB  V0200505N005250091449N011200599+01895+01285102725ADDGA1999+009144084GA2999+999999999GA3999+999999999GA4999+999999999GD13065+9999999GD20005+9999999GD30005+9999999GD40005+9999999GF106065999999999999999999MA1999999102685EQDN01 00000JPWTH 1QNNE11 1 00408E11 1 00000E11 1 00000E11 1 00000G11 1 00030H11 1 11030H11 1 00999H11 1 00999H11 1 00999K11 1 00055L11 1 00700M11 1 30320N11 1 00000Q11 1 10272S11 1 00066V11 1 00808X11 1 05010
0269999999038531972010819005+30400-081417SAO  +0005NRB  V0200505N006252200059N011200599+01945+01225102655ADDGD12995+9999999GD22995+9999999GD30995+9999999GD40995+9999999GF103035999999999999999999MA1999999102615EQDN01 00000JPWTH 1QNNE11 1 00299E11 1 00299E11 1 00099E11 1 00099G11U1 99999K11 1 00054L11 1 00700M11 1 30300N11 1 00000Q11 1 10265S11 1 00067V11 1 00404X11 1 05012
0269999999038531972010820005+30400-081417SAO  +0005NRB  V0200405N007252200059N011200599+01835+01225102655ADDGD12995+9999999GD22995+9999999GD30995+9999999GD40995+9999999GF103035999999999999999999MA1999999102615EQDN01 00000JPWTH 1QNNE11 1 00299E11 1 00299E11 1 00099E11 1 00099G11U1 99999K11 1 00054L11 1 00700M11 1 30300N11 1 00000Q11 1 10265S11 1 00065V11 1 00404X11 1 04014
0377999999038531972010821005+30400-081417SAO  +0005NRB  V0200305N007252200059N011200599+01785+01285102655ADDGA1999+009144084GA2999+018294064GA3999+999999999GA4999+999999999GD12015+9999999GD22035+9999999GD30005+9999999GD40005+9999999GF104045999999999999999999MA1999999102615EQDN01 00000JPWTH 1QNNE11 1 00201E11 1 00204E11 1 00000E11 1 00000G11U1 99999H11 1 11030H11 1 15060H11 1 00999H11 1 00999K11 1 00055L11 1 00700M11 1 30300N11 1 00000Q11 1 10265S11 1 00064V11 1 00505X11 1 03014
0269999999038531972010822005+30400-081417SAO  +0005NRB  V0200305N006250121949N011200599+01725+01335102615ADDGD13995+9999999GD20995+9999999GD30995+9999999GD40995+9999999GF106065999999999999999999MA1999999102575EQDN01 00000JPWTH 1QNNE11 1 00499E11 1 00099E11 1 00099E11 1 00099G11 1 00040K11 1 00056L11 1 00700M11 1 30290N11 1 00000Q11 1 10261S11 1 00063V11 1 00808X11 1 03012
0269999999038531972010823005+30400-081417SAO  +0005NRB  V0200205N005250091449N011200599+01725+01445102615ADDGD13995+9999999GD20995+9999999GD30995+9999999GD40995+9999999GF106065999999999999999999MA1999999102575EQDN01 00000JPWTH 1QNNE11 1 00499E11 1 00099E11 1 00099E11 1 00099G11 1 00030K11 1 00058L11 1 00700M11 1 30290N11 1 00000Q11 1 10261S11 1 00063V11 1 00707X11 1 02010
0377999999038531972010900005+30400-081417SAO  +0005NRB  V0200905N004152200059N011200599+01835+01505102575ADDGA1999+009144084GA2999+999999999GA3999+999999999GA4999+999999999GD12045+9999999GD20005+9999999GD30005+9999999GD40005+9999999GF104045999999999999999999MA1999999102515EQDN01 00000JPWTH 1QNNE11 1 00205E11 1 00000E11 1 00000E11 1 00000G11U1 99999H11 1 11030H11 1 00999H11 1 00999H11 1 00999K11 1 00059L11 1 00700M11 1 30270N11 1 00000Q11 1 10257S11 1 00065V11 1 00505X11 1 09008
0269999999038531972010901005+30400-081417SAO  +0005NRB  V0201005N002152200059N011200599+01785+01565102615ADDGD12995+9999999GD20995+9999999GD30995+9999999GD40995+9999999GF102025999999999999999999MA1999999102575EQDN01 00000JPWTH 1QNNE11 1 00299E11 1 00099E11 1 00099E11 1 00099G11U1 99999K11 1 00060L11 1 00700M11 1 30290N11 1 00000Q11 1 10261S11 1 00064V11 1 00303X11 1 10004
0269999999038531972010902005+30400-081417SAO  +0005NRB  V02099959000052200059N011200599+01565+01445102635ADDGD12995+9999999GD20995+9999999GD30995+9999999GD40995+9999999GF101015999999999999999999MA1999999102575EQDN01 00000JPWTH 1QNNE11 1 00299E11 1 00099E11 1 00099E11 1 00099G11U1 99999K11 1 00058L11 1 00700M11 1 30290N11 1 00000Q11 1 10263S11 1 00060V11 1 00101X11 1 00000
0377999999038531972010903005+30400-081417SAO  +0005NRB  V02099959000052200059N011200599+01445+01335102605ADDGA1999+009144084GA2999+999999999GA3999+999999999GA4999+999999999GD12015+9999999GD20005+9999999GD30005+9999999GD40005+9999999GF101015999999999999999999MA1999999102545EQDN01 00000JPWTH 1QNNE11 1 00201E11 1 00000E11 1 00000E11 1 00000G11U1 99999H11 1 11030H11 1 00999H11 1 00999H11 1 00999K11 1 00056L11 1 00700M11 1 30280N11 1 00000Q11 1 10260S11 1 00058V11 1 00101X11 1 00000
0269999999038531972010904005+30400-081417SAO  +0005NRB  V0201005N002652200059N011200599+01785+01505102535ADDGD10995+9999999GD20995+9999999GD30995+9999999GD40995+9999999GF100005999999999999999999MA1999999102475EQDN01 00000JPWTH 1QNNE11 1 00099E11 1 00099E11 1 00099E11 1 00099G11U1 99999K11 1 00059L11 1 00700M11 1 30260N11 1 00000Q11 1 10253S11 1 00064V11 1 00000X11 1 10005
0269999999038531972010905005+30400-081417SAO  +0005NRB  V0201205N002652200059N011200599+01785+01615102445ADDGD10995+9999999GD20995+9999999GD30995+9999999GD40995+9999999GF100005999999999999999999MA1999999102405EQDN01 00000JPWTH 1QNNE11 1 00099E11 1 00099E11 1 00099E11 1 00099G11U1 99999K11 1 00061L11 1 00700M11 1 30240N11 1 00000Q11 1 10244S11 1 00064V11 1 00000X11 1 12005
0165999999038531972010906005+30400-081417SAO  +0005NRB  V0203005N002152200059N011200599+01505+01445102365ADDGF100005999999999999999999MA1999999102305EQDN01 00000JPWTH 1QNNG11U1 99999K11 1 00058L11 1 00700M11 1 30210N11 1 00000Q11 1 10236S11 1 00059V11 1 00000X11 1 30004
0269999999038531972010907005+30400-081417SAO  +0005NRB  V02099959000052200059N011200599+01395+01285102315ADDGD10995+9999999GD20995+9999999GD30995+9999999GD40995+9999999GF100005999999999999999999MA1999999102275EQDN01 00000JPWTH 1QNNE11 1 00099E11 1 00099E11 1 00099E11 1 00099G11U1 99999K11 1 00055L11 1 00700M11 1 30200N11 1 00000Q11 1 10231S11 1 00057V11 1 00000X11 1 00000
0269999999038531972010908005+30400-081417SAO  +0005NRB  V02099959000052200059N011200599+01225+01065102285ADDGD10995+9999999GD20995+9999999GD30995+9999999GD40995+9999999GF100005999999999999999999MA1999999102245EQDN01 00000JPWTH 1QNNE11 1 00099E11 1 00099E11 1 00099E11 1 00099G11U1 99999K11 1 00051L11 1 00700M11 1 30190N11 1 00000Q11 1 10228S11 1 00054V11 1 00000X11 1 00000
0165999999038531972010909005+30400-081417SAO  +0005NRB  V0203105N001552200059N011200599+01175+01065102255ADDGF100005999999999999999999MA1999999102205EQDN01 00000JPWTH 1QNNG11U1 99999K11 1 00051L11 1 00700M11 1 30180N11 1 00000Q11 1 10225S11 1 00053V11 1 00000X11 1 31003
0269999999038531972010910005+30400-081417SAO  +0005NRB  V02099959000052200059N011200599+01225+01115102225ADDGD10995+9999999GD20995+9999999GD30995+9999999GD40995+9999999GF100005999999999999999999MA1999999102175EQDN01 00000JPWTH 1QNNE11 1 00099E11 1 00099E11 1 00099E11 1 00099G11U1 99999K11 1 00052L11 1 00700M11 1 30170N11 1 00000Q11 1 10222S11 1 00054V11 1 00000X11 1 00000
0269999999038531972010911005+30400-081417SAO  +0005NRB  V02099959000052200059N011200599+01175+01115102255ADDGD12995+9999999GD20995+9999999GD30995+9999999GD40995+9999999GF102025999999999999999999MA1999999102205EQDN01 00000JPWTH 1QNNE11 1 00299E11 1 00099E11 1 00099E11 1 00099G11U1 99999K11 1 00052L11 1 00700M11 1 30180N11 1 00000Q11 1 10225S11 1 00053V11 1 00202X11 1 00000
0383999999038531972010912005+30400-081417SAO  +0005NRB  V02099959000052200059N009600599+01225+01115102205ADDGA1999+009144084GA2999+076204004GA3999+999999999GA4999+999999999GD12015+9999999GD21025+9999993GD30005+9999999GD40005+9999999GF103015999999999999999999MA1999999102135MW1445EQDN01 07200JPWTH 1QNNE11 1 00201E11 1 00103E11 1 00000E11 1 00000G11U1 99999H11 1 11030H11 1 32250H11 1 00999H11 1 00999K11 1 00052L11 1 00600M11 1 30160N11 1 07200Q11 1 10220S11 1 00054V11 1 00401X11 1 00000
0275999999038531972010913005+30400-081417SAO  +0005NRB  V02099959000052200059N009600599+01395+01225102265ADDGD12995+9999999GD20995+9999999GD30995+9999999GD40995+9999999GF102025999999999999999999MA1999999102205MW1445EQDN01 07200JPWTH 1QNNE11 1 00299E11 1 00099E11 1 00099E11 1 00099G11U1 99999K11 1 00054L11 1 00600M11 1 30180N11 1 07200Q11 1 10226S11 1 00057V11 1 00303X11 1 00000
0275999999038531972010914005+30400-081417SAO  +0005NRB  V02099959000052200059N009600599+01675+01505102295ADDGD12995+9999999GD20995+9999999GD30995+9999999GD40995+9999999GF102025999999999999999999MA1999999102245MW1445EQDN01 07200JPWTH 1QNNE11 1 00299E11 1 00099E11 1 00099E11 1 00099G11U1 99999K11 1 00059L11 1 00600M11 1 30190N11 1 07200Q11 1 10229S11 1 00062V11 1 00303X11 1 00000
0383999999038531972010915005+30400-081417SAO  +0005NRB  V0200705N001052200059N008000599+01945+01505102295ADDGA1999+076204004GA2999+999999999GA3999+999999999GA4999+999999999GD11025+9999993GD20005+9999999GD30005+9999999GD40005+9999999GF102015999999999999999999MA1999999102245MW1055EQDN01 08100JPWTH 1QNNE11 1 00102E11 1 00000E11 1 00000E11 1 00000G11U1 99999H11 1 32250H11 1 00999H11 1 00999H11 1 00999K11 1 00059L11 1 00500M11 1 30190N11 1 08100Q11 1 10229S11 1 00067V11 1 00201X11 1 07002
0275999999038531972010916005+30400-081417SAO  +0005NRB  V0201505N003652200059N009600599+02175+01785102205ADDGD13995+9999993GD20995+9999999GD30995+9999999GD40995+9999999GF105025999999999999999999MA1999999102135MW1055EQDN01 08100JPWTH 1QNNE11 1 00399E11 1 00099E11 1 00099E11 1 00099G11U1 99999K11 1 00064L11 1 00600M11 1 30160N11 1 08100Q11 1 10220S11 1 00071V11 1 00602X11 1 15007
0269999999038531972010917005+30400-081417SAO  +0005NRB  V0201505N005252200059N011200599+02565+01785102085ADDGD12995+9999999GD24995+9999993GD30995+9999999GD40995+9999999GF108045999999999999999999MA1999999102035EQDN01 00000JPWTH 1QNNE11 1 00299E11 1 00599E11 1 00099E11 1 00099G11U1 99999K11 1 00064L11 1 00700M11 1 30130N11 1 00000Q11 1 10208S11 1 00078V11 1 01005X11 1 15010
0377999999038531972010918005+30400-081417SAO  +0005NRB  V0201605N006752200059N011200599+02445+01675101905ADDGA1999+009144084GA2999+076204004GA3999+999999999GA4999+999999999GD12025+9999999GD23045+9999993GD30005+9999999GD40005+9999999GF106025999999999999999999MA1999999101835EQDN01 00000JPWTH 1QNNE11 1 00203E11 1 00305E11 1 00000E11 1 00000G11U1 99999H11 1 11030H11 1 32250H11 1 00999H11 1 00999K11 1 00062L11 1 00700M11 1 30070N11 1 00000Q11 1 10190S11 1 00076V11 1 00803X11 1 16013
0269999999038531972010919005+30400-081417SAO  +0005NRB  V0201505N006752200059N011200599+02395+01675101865ADDGD12995+9999999GD23995+9999993GD30995+9999999GD40995+9999999GF107035999999999999999999MA1999999101795EQDN01 00000JPWTH 1QNNE11 1 00299E11 1 00399E11 1 00099E11 1 00099G11U1 99999K11 1 00062L11 1 00700M11 1 30060N11 1 00000Q11 1 10186S11 1 00075V11 1 00904X11 1 15013
0269999999038531972010920005+30400-081417SAO  +0005NRB  V0201605N005752200059N011200599+02445+01725101795ADDGD12995+9999999GD23995+9999993GD30995+9999999GD40995+9999999GF106035999999999999999999MA1999999101735EQDN01 00000JPWTH 1QNNE11 1 00299E11 1 00399E11 1 00099E11 1 00099G11U1 99999K11 1 00063L11 1 00700M11 1 30040N11 1 00000Q11 1 10179S11 1 00076V11 1 00804X11 1 16011
0377999999038531972010921005+30400-081417SAO  +0005NRB  V0201505N004652200059N011200599+02395+01785101795ADDGA1999+010674084GA2999+076204004GA3999+999999999GA4999+999999999GD12025+9999999GD23045+9999993GD30005+9999999GD40005+9999999GF106035999999999999999999MA1999999101735EQDN01 00000JPWTH 1QNNE11 1 00203E11 1 00305E11 1 00000E11 1 00000G11U1 99999H11 1 11035H11 1 32250H11 1 00999H11 1 00999K11 1 00064L11 1 00700M11 1 30040N11 1 00000Q11 1 10179S11 1 00075V11 1 00804X11 1 15009
0269999999038531972010922005+30400-081417SAO  +0005NRB  V0201505N004650762049N011200599+02225+01835101785ADDGD12995+9999999GD23995+9999999GD30995+9999999GD40995+9999999GF107075999999999999999999MA1999999101735EQDN01 00000JPWTH 1QNNE11 1 00299E11 1 00499E11 1 00099E11 1 00099G11 1 00250K11 1 00065L11 1 00700M11 1 30040N11 1 00000Q11 1 10178S11 1 00072V11 1 00909X11 1 15009
0269999999038531972010923005+30400-081417SAO  +0005NRB  V0201505N004152200059N011200599+02115+01785101795ADDGD12995+9999999GD23995+9999993GD30995+9999999GD40995+9999999GF106025999999999999999999MA1999999101735EQDN01 00000JPWTH 1QNNE11 1 00299E11 1 00399E11 1 00099E11 1 00099G11U1 99999K11 1 00064L11 1 00700M11 1 30040N11 1 00000Q11 1 10179S11 1 00070V11 1 00703X11 1 15008
0171999999038531972011000005+30400-081417SAO  +0005NRB  V0201605N003652200059N008000599+02005+01785101785ADDGF100005999999999999999999MA1999999101735MW1055EQDN01 08100JPWTH 1QNNG11U1 99999K11 1 00064L11 1 00500M11 1 30040N11 1 08100Q11 1 10178S11 1 00068V11 1 00000X11 1 16007
0275999999038531972011001005+30400-081417SAO  +0005NRB  V0201705N002152200059N009600599+01835+01725101825ADDGD10995+9999999GD20995+9999999GD30995+9999999GD40995+9999999GF100005999999999999999999MA1999999101765MW1055EQDN01 08100JPWTH 1QNNE11 1 00099E11 1 00099E11 1 00099E11 1 00099G11U1 99999K11 1 00063L11 1 00600M11 1 30050N11 1 08100Q11 1 10182S11 1 00065V11 1 00000X11 1 17004
0269999999038531972011002005+30400-081417SAO  +0005NRB  V0201805N002152200059N011200599+01785+01725101845ADDGD10995+9999999GD20995+9999999GD30995+9999999GD40995+9999999GF100005999999999999999999MA1999999101795EQDN01 00000JPWTH 1QNNE11 1 00099E11 1 00099E11 1 00099E11 1 00099G11U1 99999K11 1 00063L11 1 00700M11 1 30060N11 1 00000Q11 1 10184S11 1 00064V11 1 00000X11 1 18004
0165999999038531972011003005+30400-081417SAO  +0005NRB  V0201805N002152200059N011200599+01785+01725101845ADDGF100005999999999999999999MA1999999101795EQDN01 00000JPWTH 1QNNG11U1 99999K11 1 00063L11 1 00700M11 1 30060N11 1 00000Q11 1 10184S11 1 00064V11 1 00000X11 1 18004
0269999999038531972011004005+30400-081417SAO  +0005NRB  V02099959000052200059N011200599+01725+01675101875ADDGD10995+9999999GD20995+9999999GD30995+9999999GD40995+9999999GF100005999999999999999999MA1999999101835EQDN01 00000JPWTH 1QNNE11 1 00099E11 1 00099E11 1 00099E11 1 00099G11U1 99999K11 1 00062L11 1 00700M11 1 30070N11 1 00000Q11 1 10187S11 1 00063V11 1 00000X11 1 00000
0269999999038531972011005005+30400-081417SAO  +0005NRB  V0202105N002652200059N011200599+01675+01615101865ADDGD10995+9999999GD20995+9999999GD30995+9999999GD40995+9999999GF100005999999999999999999MA1999999101795EQDN01 00000JPWTH 1QNNE11 1 00099E11 1 00099E11 1 00099E11 1 00099G11U1 99999K11 1 00061L11 1 00700M11 1 30060N11 1 00000Q11 1 10186S11 1 00062V11 1 00000X11 1 21005
0165999999038531972011006005+30400-081417SAO  +0005NRB  V0202005N004152200059N011200599+01725+01675101745ADDGF100005999999999999999999MA1999999101695EQDN01 00000JPWTH 1QNNG11U1 99999K11 1 00062L11 1 00700M11 1 30030N11 1 00000Q11 1 10174S11 1 00063V11 1 00000X11 1 20008
0269999999038531972011007005+30400-081417SAO  +0005NRB  V0202105N004152200059N011200599+01785+01725101775ADDGD10995+9999999GD20995+9999999GD30995+9999999GD40995+9999999GF100005999999999999999999MA1999999101735EQDN01 00000JPWTH 1QNNE11 1 00099E11 1 00099E11 1 00099E11 1 00099G11U1 99999K11 1 00063L11 1 00700M11 1 30040N11 1 00000Q11 1 10177S11 1 00064V11 1 00000X11 1 21008
0269999999038531972011008005+30400-081417SAO  +0005NRB  V0202205N001552200059N011200599+01725+01675101745ADDGD10995+9999999GD20995+9999999GD30995+9999999GD40995+9999999GF100005999999999999999999MA1999999101695EQDN01 00000JPWTH 1QNNE11 1 00099E11 1 00099E11 1 00099E11 1 00099G11U1 99999K11 1 00062L11 1 00700M11 1 30030N11 1 00000Q11 1 10174S11 1 00063V11 1 00000X11 1 22003
0165999999038531972011009005+30400-081417SAO  +0005NRB  V0202305N001552200059N011200599+01675+01565101725ADDGF100005999999999999999999MA1999999101665EQDN01 00000JPWTH 1QNNG11U1 99999K11 1 00060L11 1 00700M11 1 30020N11 1 00000Q11 1 10172S11 1 00062V11 1 00000X11 1 23003
0275999999038531972011010005+30400-081417SAO  +0005NRB  V0202205N001052200059N003200599+01615+01615101665ADDGD16995+9999999GD22995+9999999GD30995+9999999GD40995+9999999GF103025999999999999999999MA1999999101595MW1445EQDN01 07200JPWTH 1QNNE11 1 00899E11 1 00299E11 1 00099E11 1 00099G11U1 99999K11 1 00061L11 1 00200M11 1 30000N11 1 07200Q11 1 10166S11 1 00061V11 1 00403X11 1 22002
0249999999038531972011011005+30400-081417SAO  +0005NRB  V0202005N002152200059N006400599+01785+01675101645ADDGD12995+9999999GD20995+9999999GD30995+9999999GF102025999999999999999999MA1999999101595MW1445EQDN01 07200JPWTH 1QNNE11 1 00299E11 1 00099E11 1 00099G11U1 99999K11 1 00062L11 1 00400M11 1 30000N11 1 07200Q11 1 10164S11 1 00064V11 1 00303X11 1 20004
0383999999038531972011012005+30400-081417SAO  +0005NRB  V0201905N002652200059N006400599+01835+01725101615ADDGA1999+999999104GA2999+076204004GA3999+999999999GA4999+999999999GD16015+9999999GD21025+9999993GD30005+9999999GD40005+9999999GF102015999999999999999999MA1999999101565MW1445EQDN01 07200JPWTH 1QNNE11 1 00801E11 1 00102E11 1 00000E11 1 00000G11U1 99999H11 1 45999H11 1 32250H11 1 00999H11 1 00999K11 1 00063L11 1 00400M11 1 29990N11 1 07200Q11 1 10161S11 1 00065V11 1 00301X11 1 19005
0249999999038531972011013005+30400-081417SAO  +0005NRB  V0201905N002652200059N006400599+01835+01785101675ADDGD13995+9999993GD20995+9999999GD30995+9999999GF105025999999999999999999MA1999999101635MW1445EQDN01 07200JPWTH 1QNNE11 1 00399E11 1 00099E11 1 00099G11U1 99999K11 1 00064L11 1 00400M11 1 30010N11 1 07200Q11 1 10167S11 1 00065V11 1 00603X11 1 19005
0249999999038531972011014005+30400-081417SAO  +0005NRB  V0201905N005250018349N004800599+01945+01835101715ADDGD13995+9999999GD23995+9999999GD30995+9999999GF106055999999999999999999MA1999999101665MW1455EQDN01 07000JPWTH 1QNNE11 1 00499E11 1 00499E11 1 00099G11 1 00006K11 1 00065L11 1 00300M11 1 30020N11 1 07000Q11 1 10171S11 1 00067V11 1 00706X11 1 19010
0329999999038531972011015005+30400-081417SAO  +0005NRB  V0202005N004150024449N004800599+02065+01945101765ADDGA1999+999999104GA2999+002444074GD16015+9999999GD24075+9999999GD30995+9999999GD40995+9999999GF108085999999999999999999MA1999999101695MW1455EQDN01 07000JPWTH 1QNNE11 1 00801E11 1 00609E11 1 00099E11 1 00099G11 1 00008H11 1 45999H11 1 16008K11 1 00067L11 1 00300M11 1 30030N11 1 07000Q11 1 10176S11 1 00069V11 1 01010X11 1 20008
0249999999038531972011016005+30400-081417SAO  +0005NRB  V0202005N005250030549N006400599+02225+02065101765ADDGD14995+9999999GD20995+9999999GD30995+9999999GF108075999999999999999999MA1999999101695MW1455EQDN01 07000JPWTH 1QNNE11 1 00699E11 1 00099E11 1 00099G11 1 00010K11 1 00069L11 1 00400M11 1 30030N11 1 07000Q11 1 10176S11 1 00072V11 1 01009X11 1 20010
0243999999038531972011017005+30400-081417SAO  +0005NRB  V0202305N005250036649N011200599+02445+01945101665ADDGD10995+9999999GD20995+9999999GD30995+9999999GF107075999999999999999999MA1999999101595EQDN01 00000JPWTH 1QNNE11 1 00099E11 1 00099E11 1 00099G11 1 00012K11 1 00067L11 1 00700M11 1 30000N11 1 00000Q11 1 10166S11 1 00076V11 1 00909X11 1 23010
0377999999038531972011018005+30400-081417SAO  +0005NRB  V0202405N006250045749N011200599+02615+01945101575ADDGA1999+004574084GA2999+999999999GA3999+999999999GA4999+999999999GD13065+9999999GD20005+9999999GD30005+9999999GD40005+9999999GF106065999999999999999999MA1999999101525EQDN01 00000JPWTH 1QNNE11 1 00408E11 1 00000E11 1 00000E11 1 00000G11 1 00015H11 1 11015H11 1 00999H11 1 00999H11 1 00999K11 1 00067L11 1 00700M11 1 29980N11 1 00000Q11 1 10157S11 1 00079V11 1 00808X11 1 24012
0269999999038531972011019005+30400-081417SAO  +0005NRB  V0202105N005252200059N011200599+02565+02005101525ADDGD12995+9999999GD20995+9999999GD30995+9999999GD40995+9999999GF104045999999999999999999MA1999999101465EQDN01 00000JPWTH 1QNNE11 1 00299E11 1 00099E11 1 00099E11 1 00099G11U1 99999K11 1 00068L11 1 00700M11 1 29960N11 1 00000Q11 1 10152S11 1 00078V11 1 00505X11 1 21010
0269999999038531972011020005+30400-081417SAO  +0005NRB  V0202205N006252200059N011200599+02725+01895101445ADDGD12995+9999999GD20995+9999999GD30995+9999999GD40995+9999999GF103035999999999999999999MA1999999101395EQDN01 00000JPWTH 1QNNE11 1 00299E11 1 00099E11 1 00099E11 1 00099G11U1 99999K11 1 00066L11 1 00700M11 1 29940N11 1 00000Q11 1 10144S11 1 00081V11 1 00404X11 1 22012
0377999999038531972011021005+30400-081417SAO  +0005NRB  V0202105N005252200059N011200599+02725+01895101445ADDGA1999+006104084GA2999+076204004GA3999+999999999GA4999+999999999GD12025+9999999GD23035+9999993GD30005+9999999GD40005+9999999GF106025999999999999999999MA1999999101395EQDN01 00000JPWTH 1QNNE11 1 00203E11 1 00304E11 1 00000E11 1 00000G11U1 99999H11 1 11020H11 1 32250H11 1 00999H11 1 00999K11 1 00066L11 1 00700M11 1 29940N11 1 00000Q11 1 10144S11 1 00081V11 1 00703X11 1 21010
0275999999038531972011022005+30400-081417SAO  +0005NRB  V0202105N004150762049N009600599+02675+01835101445ADDGD12995+9999999GD23995+9999999GD30995+9999999GD40995+9999999GF106055999999999999999999MA1999999101395MW1055EQDN01 08100JPWTH 1QNNE11 1 00299E11 1 00499E11 1 00099E11 1 00099G11 1 00250K11 1 00065L11 1 00600M11 1 29940N11 1 08100Q11 1 10144S11 1 00080V11 1 00806X11 1 21008
0275999999038531972011023005+30400-081417SAO  +0005NRB  V0202105N001552200059N009600599+02335+01725101445ADDGD12995+9999999GD20995+9999999GD30995+9999999GD40995+9999999GF104045999999999999999999MA1999999101395MW1055EQDN01 08100JPWTH 1QNNE11 1 00299E11 1 00099E11 1 00099E11 1 00099G11U1 99999K11 1 00063L11 1 00600M11 1 29940N11 1 08100Q11 1 10144S11 1 00074V11 1 00505X11 1 21003
0377999999038531972011100005+30400-081417SAO  +0005NRB  V02099959000052200059N011200599+02175+01675101505ADDGA1999+076204004GA2999+999999999GA3999+999999999GA4999+999999999GD12035+9999999GD20005+9999999GD30005+9999999GD40005+9999999GF103035999999999999999999MA1999999101465EQDN01 00000JPWTH 1QNNE11 1 00204E11 1 00000E11 1 00000E11 1 00000G11U1 99999H11 1 32250H11 1 00999H11 1 00999H11 1 00999K11 1 00062L11 1 00700M11 1 29960N11 1 00000Q11 1 10150S11 1 00071V11 1 00404X11 1 00000
0269999999038531972011101005+30400-081417SAO  +0005NRB  V02099959000052200059N011200599+02005+01675101605ADDGD12995+9999999GD20995+9999999GD30995+9999999GD40995+9999999GF102025999999999999999999MA1999999101525EQDN01 00000JPWTH 1QNNE11 1 00299E11 1 00099E11 1 00099E11 1 00099G11U1 99999K11 1 00062L11 1 00700M11 1 29980N11 1 00000Q11 1 10160S11 1 00068V11 1 00303X11 1 00000
0269999999038531972011102005+30400-081417SAO  +0005NRB  V0201905N002152200059N011200599+02005+01675101645ADDGD12995+9999999GD20995+9999999GD30995+9999999GD40995+9999999GF102025999999999999999999MA1999999101595EQDN01 00000JPWTH 1QNNE11 1 00299E11 1 00099E11 1 00099E11 1 00099G11U1 99999K11 1 00062L11 1 00700M11 1 30000N11 1 00000Q11 1 10164S11 1 00068V11 1 00202X11 1 19004
0377999999038531972011103005+30400-081417SAO  +0005NRB  V0202305N001052200059N011200599+02065+01675101725ADDGA1999+076204004GA2999+999999999GA3999+999999999GA4999+999999999GD12025+9999999GD20005+9999999GD30005+9999999GD40005+9999999GF102025999999999999999999MA1999999101665EQDN01 00000JPWTH 1QNNE11 1 00202E11 1 00000E11 1 00000E11 1 00000G11U1 99999H11 1 32250H11 1 00999H11 1 00999H11 1 00999K11 1 00062L11 1 00700M11 1 30020N11 1 00000Q11 1 10172S11 1 00069V11 1 00202X11 1 23002
0269999999038531972011104005+30400-081417SAO  +0005NRB  V0201905N002152200059N011200599+02115+01785101725ADDGD12995+9999999GD20995+9999999GD30995+9999999GD40995+9999999GF102025999999999999999999MA1999999101665EQDN01 00000JPWTH 1QNNE11 1 00299E11 1 00099E11 1 00099E11 1 00099G11U1 99999K11 1 00064L11 1 00700M11 1 30020N11 1 00000Q11 1 10172S11 1 00070V11 1 00303X11 1 19004
0269999999038531972011105005+30400-081417SAO  +0005NRB  V0202005N002152200059N011200599+02065+01785101665ADDGD12995+9999999GD20995+9999999GD30995+9999999GD40995+9999999GF102025999999999999999999MA1999999101595EQDN01 00000JPWTH 1QNNE11 1 00299E11 1 00099E11 1 00099E11 1 00099G11U1 99999K11 1 00064L11 1 00700M11 1 30000N11 1 00000Q11 1 10166S11 1 00069V11 1 00303X11 1 20004
0171999999038531972011106005+30400-081417SAO  +0005NRB  V02099959000052200059N008000599+02005+01785101605ADDGF100005999999999999999999MA1999999101565MW1445EQDN01 07200JPWTH 1QNNG11U1 99999K11 1 00064L11 1 00500M11 1 29990N11 1 07200Q11 1 10160S11 1 00068V11 1 00000X11 1 00000
0275999999038531972011107005+30400-081417SAO  +0005NRB  V02099959000052200059N006400599+01785+01565101665ADDGD10995+9999999GD20995+9999999GD30995+9999999GD40995+9999999GF100005999999999999999999MA1999999101595MW1445EQDN01 07200JPWTH 1QNNE11 1 00099E11 1 00099E11 1 00099E11 1 00099G11U1 99999K11 1 00060L11 1 00400M11 1 30000N11 1 07200Q11 1 10166S11 1 00064V11 1 00000X11 1 00000
0275999999038531972011108005+30400-081417SAO  +0005NRB  V0202005N002152200059N006400599+01895+01725101695ADDGD16995+9999999GD20995+9999999GD30995+9999999GD40995+9999999GF105055999999999999999999MA1999999101635MW1455EQDN01 07000JPWTH 1QNNE11 1 00899E11 1 00099E11 1 00099E11 1 00099G11U1 99999K11 1 00063L11 1 00400M11 1 30010N11 1 07000Q11 1 10169S11 1 00066V11 1 00606X11 1 20004
0383999999038531972011109005+30400-081417SAO  +0005NRB  V0202505N003152200059N006400599+02005+01785101725ADDGA1999+999999104GA2999+999999999GA3999+999999999GA4999+999999999GD16055+9999999GD20005+9999999GD30005+9999999GD40005+9999999GF105055999999999999999999MA1999999101665MW1455EQDN01 07000JPWTH 1QNNE11 1 00806E11 1 00000E11 1 00000E11 1 00000G11U1 99999H11 1 45999H11 1 00999H11 1 00999H11 1 00999K11 1 00064L11 1 00400M11 1 30020N11 1 07000Q11 1 10172S11 1 00068V11 1 00606X11 1 25006
0249999999038531972011110005+30400-081417SAO  +0005NRB  V0202005N003652200059N006400599+02005+01835101695ADDGD10995+9999999GD20995+9999999GD30995+9999999GF105055999999999999999999MA1999999101635MW1455EQDN01 07000JPWTH 1QNNE11 1 00099E11 1 00099E11 1 00099G11U1 99999K11 1 00065L11 1 00400M11 1 30010N11 1 07000Q11 1 10169S11 1 00068V11 1 00606X11 1 20007
0249999999038531972011111005+30400-081417SAO  +0005NRB  V0202105N004652200059N006400599+02065+01895101745ADDGD10995+9999999GD20995+9999999GD30995+9999999GF105055999999999999999999MA1999999101695MW1455EQDN01 07000JPWTH 1QNNE11 1 00099E11 1 00099E11 1 00099G11U1 99999K11 1 00066L11 1 00400M11 1 30030N11 1 07000Q11 1 10174S11 1 00069V11 1 00606X11 1 21009
0329999999038531972011112005+30400-081417SAO  +0005NRB  V0202005N004650024449N006400599+02115+01895101655ADDGA1999+999999104GA2999+002444074GD16055+9999999GD24035+9999999GD30995+9999999GD40995+9999999GF108085999999999999999999MA1999999101595MW1455EQDN01 07000JPWTH 1QNNE11 1 00806E11 1 00604E11 1 00099E11 1 00099G11 1 00008H11 1 45999H11 1 16008K11 1 00066L11 1 00400M11 1 30000N11 1 07000Q11 1 10165S11 1 00070V11 1 01010X11 1 20009
