038899999903820197201010000E+33367-081967SAO  +0045AGS  V0203105N002652200059N024000599+01285+00615101825ADDAA101000095GA1999+042674034GA2999+076204004GA3999+999999999GA4999+999999999GD12035+9999999GD22015+9999999GD30005+9999999GD40005+9999999GF104035999999999999999999MA1999999101295EQDN01 00000JPWTH 1QNNE11 1 00204E11 1 00201E11 1 00000E11 1 00000G11U1 99999H11 1 23140H11 1 32250H11 1 00999H11 1 00999K11 1 00043L11 1 01500M11 1 29910N11 1 00000Q11 1 10182S11 1 00055V11 1 00504X11 1 31005
038899999903820197201010300E+33367-081967SAO  +0045AGS  V0201505N001552200059N024000599+00895+00565101955ADDAA101000095GA1999+030484034GA2999+999999999GA3999+999999999GA4999+999999999GD12035+9999999GD20005+9999999GD30005+9999999GD40005+9999999GF103035999999999999999999MA1999999101425EQDN01 00000JPWTH 1QNNE11 1 00204E11 1 00000E11 1 00000E11 1 00000G11U1 99999H11 1 23100H11 1 00999H11 1 00999H11 1 00999K11 1 00042L11 1 01500M11 1 29950N11 1 00000Q11 1 10195S11 1 00048V11 1 00404X11 1 15003
038899999903820197201010600E+33367-081967SAO  +0045AGS  V0203205N002150304849N024000599+00835+00445101995ADDAA101000095GA1999+030484034GA2999+999999999GA3999+999999999GA4999+999999999GD13065+9999999GD20005+9999999GD30005+9999999GD40005+9999999GF106065999999999999999999MA1999999101465EQDN01 00000JPWTH 1QNNE11 1 00407E11 1 00000E11 1 00000E11 1 00000G11 1 00100H11 1 23100H11 1 00999H11 1 00999H11 1 00999K11 1 00040L11 1 01500M11 1 29960N11 1 00000Q11 1 10199S11 1 00047V11 1 00707X11 1 32004
017699999903820197201010900E+33367-081967SAO  +0045AGS  V0200505N003652200059N024000599+00945+00225102155ADDAA101000095GF100005999999999999999999MA1999999101635EQDN01 00000JPWTH 1QNNG11U1 99999K11 1 00036L11 1 01500M11 1 30010N11 1 00000Q11 1 10215S11 1 00049V11 1 00000X11 1 05007
038899999903820197201011200E+33367-081967SAO  +0045AGS  V0200605N003152200059N024000599+00785-00065102305ADDAA101000095GA1999+030484034GA2999+076204004GA3999+999999999GA4999+999999999GD12015+9999999GD21025+9999993GD30005+9999999GD40005+9999999GF102015999999999999999999MA1999999101765EQDN01 00000JPWTH 1QNNE11 1 00201E11 1 00102E11 1 00000E11 1 00000G11U1 99999H11 1 23100H11 1 32250H11 1 00999H11 1 00999K11 1 00031L11 1 01500M11 1 30050N11 1 00000Q11 1 10230S11 1 00046V11 1 00301X11 1 06006
038899999903820197201011500E+33367-081967SAO  +0045AGS  V0200605N004150304849N024000599+01175+00065102455ADDAA101000095GA1999+030484034GA2999+091444004GA3999+999999999GA4999+999999999GD13065+9999999GD24025+9999999GD30005+9999999GD40005+9999999GF108075999999999999999999MA1999999101935EQDN01 00000JPWTH 1QNNE11 1 00408E11 1 00602E11 1 00000E11 1 00000G11 1 00100H11 1 23100H11 1 32300H11 1 00999H11 1 00999K11 1 00033L11 1 01500M11 1 30100N11 1 00000Q11 1 10245S11 1 00053V11 1 01009X11 1 06008
030799999903820197201011800E+33367-081967SAO  +0045AGS  V0200705N004150304849N024000599+01335+00065102205ADDAA101000095GA1999+030484034GD14085+9999999GD20995+9999999GD30995+9999999GD40995+9999999GF108085999999999999999999MA1999999101665EQDN01 00000JPWTH 1QNNE11 1 00610E11 1 00099E11 1 00099E11 1 00099G11 1 00100H11 1 23100K11 1 00033L11 1 01500M11 1 30020N11 1 00000Q11 1 10220S11 1 00056V11 1 01010X11 1 07008
038899999903820197201012100E+33367-081967SAO  +0045AGS  V0200205N004152200059N024000599+01505+00225102045ADDAA101000095GA1999+091444004GA2999+999999999GA3999+999999999GA4999+999999999GD13065+9999993GD20005+9999999GD30005+9999999GD40005+9999999GF106015999999999999999999MA1999999101525EQDN01 00000JPWTH 1QNNE11 1 00308E11 1 00000E11 1 00000E11 1 00000G11U1 99999H11 1 32300H11 1 00999H11 1 00999H11 1 00999K11 1 00036L11 1 01500M11 1 29980N11 1 00000Q11 1 10204S11 1 00059V11 1 00801X11 1 02008
038899999903820197201020000E+33367-081967SAO  +0045AGS  V0200505N002150121949N024000599+01175+00285101935ADDAA101000095GA1999+012194064GA2999+091444004GA3999+999999999GA4999+999999999GD13065+9999999GD24025+9999999GD30005+9999999GD40005+9999999GF108075999999999999999999MA1999999101395EQDN01 00000JPWTH 1QNNE11 1 00407E11 1 00603E11 1 00000E11 1 00000G11 1 00040H11 1 15040H11 1 32300H11 1 00999H11 1 00999K11 1 00037L11 1 01500M11 1 29940N11 1 00000Q11 1 10193S11 1 00053V11 1 01009X11 1 05004
030799999903820197201020300E+33367-081967SAO  +0045AGS  V0201105N002650064049N024000599+01115+00395101755ADDAA101000095GA1999+006404064GD14085+9999999GD20995+9999999GD30995+9999999GD40995+9999999GF108085999999999999999999MA1999999101225EQDN01 00000JPWTH 1QNNE11 1 00610E11 1 00099E11 1 00099E11 1 00099G11 1 00021H11 1 15021K11 1 00039L11 1 01500M11 1 29890N11 1 00000Q11 1 10175S11 1 00052V11 1 01010X11 1 11005
030799999903820197201020600E+33367-081967SAO  +0045AGS  V0200605N001550039649N016000599+01115+00505101535ADDAA101000095GA1999+003964064GD14085+9999999GD20995+9999999GD30995+9999999GD40995+9999999GF108085999999999999999999MA1999999101025EQDN01 00000JPWTH 1QNNE11 1 00610E11 1 00099E11 1 00099E11 1 00099G11 1 00013H11 1 15013K11 1 00041L11 1 01000M11 1 29830N11 1 00000Q11 1 10153S11 1 00052V11 1 01010X11 1 06003
030799999903820197201020900E+33367-081967SAO  +0045AGS  V0201305N003150024449N011200599+01115+00785101235ADDAA101000095GA1999+002444074GD14085+9999999GD20995+9999999GD30995+9999999GD40995+9999999GF108085999999999999999999MA1999999100715EQDN01 00000JPWTH 1QNNE11 1 00610E11 1 00099E11 1 00099E11 1 00099G11 1 00008H11 1 16008K11 1 00046L11 1 00700M11 1 29740N11 1 00000Q11 1 10123S11 1 00052V11 1 01010X11 1 13006
031999999903820197201021200E+33367-081967SAO  +0045AGS  V02099959000050006149N000800599+01115+01115101075ADDAA101000095GA1999+000614074GD14085+9999999GD20995+9999999GD30995+9999999GD40995+9999999GF108085999999999999999999MA1999999100545MW1455MW2615EQDN01 02070JPWTH 1QNNE11 1 00610E11 1 00099E11 1 00099E11 1 00099G11 1 00002H11 1 16002K11 1 00052L11 1 00050M11 1 29690N11 1 02070Q11 1 10107S11 1 00052V11 1 01010X11 1 00000
030799999903820197201021500E+33367-081967SAO  +0045AGS  V0201505N002650121949N011200599+01115+01065101155ADDAA101000595GA1999+012194064GD14085+9999999GD20995+9999999GD30995+9999999GD40995+9999999GF108085999999999999999999MA1999999100645EQDN01 00000JPWTH 1QNNE11 1 00610E11 1 00099E11 1 00099E11 1 00099G11 1 00040H11 1 15040K11 1 00051L11 1 00700M11 1 29720N11 1 00000Q11 1 10115S11 1 00052V11 1 01010X11 1 15005
034099999903820197201021800E+33367-081967SAO  +0045AGS  V0202405N003150152449N009600599+01445+01335100915ADDAA101000095GA1999+015244064GA2999+036584034GD13065+9999999GD24085+9999999GD30995+9999999GD40995+9999999GF108085999999999999999999MA1999999100415MW1045EQDN01 08000JPWTH 1QNNE11 1 00407E11 1 00610E11 1 00099E11 1 00099G11 1 00050H11 1 15050H11 1 23120K11 1 00056L11 1 00600M11 1 29650N11 1 08000Q11 1 10091S11 1 00058V11 1 01010X11 1 24006
033499999903820197201022100E+33367-081967SAO  +0045AGS  V0202305N003650085349N024000599+01565+01335100985ADDAA101000095GA1999+006104064GA2999+008534064GD12025+9999999GD24085+9999999GD30995+9999999GD40995+9999999GF108085999999999999999999MA1999999100475EQDN01 00000JPWTH 1QNNE11 1 00202E11 1 00610E11 1 00099E11 1 00099G11 1 00028H11 1 15020H11 1 15028K11 1 00056L11 1 01500M11 1 29670N11 1 00000Q11 1 10098S11 1 00060V11 1 01010X11 1 23007
033499999903820197201030000E+33367-081967SAO  +0045AGS  V0202605N002150100649N024000599+01285+01225101155ADDAA101000095GA1999+010064064GA2999+036584034GD13065+9999999GD24025+9999999GD30995+9999999GD40995+9999999GF108085999999999999999999MA1999999100645EQDN01 00000JPWTH 1QNNE11 1 00407E11 1 00603E11 1 00099E11 1 00099G11 1 00033H11 1 15033H11 1 23120K11 1 00054L11 1 01500M11 1 29720N11 1 00000Q11 1 10115S11 1 00055V11 1 01010X11 1 26004
017699999903820197201030300E+33367-081967SAO  +0045AGS  V0203305N003652200059N024000599+00785+00725101395ADDAA101000095GF100005999999999999999999MA1999999100885EQDN01 00000JPWTH 1QNNG11U1 99999K11 1 00045L11 1 01500M11 1 29790N11 1 00000Q11 1 10139S11 1 00046V11 1 00000X11 1 33007
039499999903820197201030600E+33367-081967SAO  +0045AGS  V0202805N001552200059N008000599+00565+00445101605ADDAA101000095GA1999+091444004GA2999+999999999GA3999+999999999GA4999+999999999GD11025+9999993GD20005+9999999GD30005+9999999GD40005+9999999GF102015999999999999999999MA1999999101055MW1445EQDN01 07200JPWTH 1QNNE11 1 00103E11 1 00000E11 1 00000E11 1 00000G11U1 99999H11 1 32300H11 1 00999H11 1 00999H11 1 00999K11 1 00040L11 1 00500M11 1 29840N11 1 07200Q11 1 10160S11 1 00042V11 1 00301X11 1 28003
039499999903820197201030900E+33367-081967SAO  +0045AGS  V0200205N001552200059N008000599+00785+00725101735ADDAA101000095GA1999+004574064GA2999+999999999GA3999+999999999GA4999+999999999GD12035+9999999GD20005+9999999GD30005+9999999GD40005+9999999GF103035999999999999999999MA1999999101195MW1445EQDN01 07200JPWTH 1QNNE11 1 00204E11 1 00000E11 1 00000E11 1 00000G11U1 99999H11 1 15015H11 1 00999H11 1 00999H11 1 00999K11 1 00045L11 1 00500M11 1 29880N11 1 07200Q11 1 10173S11 1 00046V11 1 00404X11 1 02003
038899999903820197201031200E+33367-081967SAO  +0045AGS  V0200505N003152200059N012800599+00725+00615101915ADDAA101000095GA1999+999999064GA2999+999999004GA3999+999999999GA4999+999999999GD10005+9999999GD20005+9999999GD30005+9999999GD40005+9999999GF100005999999999999999999MA1999999101395EQDN01 00000JPWTH 1QNNE11 1 00000E11 1 00000E11 1 00000E11 1 00000G11U1 99999H11 1 15999H11 1 32999H11 1 00999H11 1 00999K11 1 00043L11 1 00800M11 1 29940N11 1 00000Q11 1 10191S11 1 00045V11 1 00000X11 1 05006
030799999903820197201031500E+33367-081967SAO  +0045AGS  V0200305N003150091449N016000599+00895+00445102265ADDAA101000095GA1999+009144064GD14085+9999999GD20995+9999999GD30995+9999999GD40995+9999999GF108085999999999999999999MA1999999101735EQDN01 00000JPWTH 1QNNE11 1 00610E11 1 00099E11 1 00099E11 1 00099G11 1 00030H11 1 15030K11 1 00040L11 1 01000M11 1 30040N11 1 00000Q11 1 10226S11 1 00048V11 1 01010X11 1 03006
030799999903820197201031800E+33367-081967SAO  +0045AGS  V0200205N002650091449N016000599+01175+00445102125ADDAA101000095GA1999+009144064GD14085+9999999GD20995+9999999GD30995+9999999GD40995+9999999GF108085999999999999999999MA1999999101595EQDN01 00000JPWTH 1QNNE11 1 00610E11 1 00099E11 1 00099E11 1 00099G11 1 00030H11 1 15030K11 1 00040L11 1 01000M11 1 30000N11 1 00000Q11 1 10212S11 1 00053V11 1 01010X11 1 02005
038899999903820197201032100E+33367-081967SAO  +0045AGS  V0200505N003150243849N019200599+01395+00565102045ADDAA101000095GA1999+008534064GA2999+024384034GA3999+076204024GA4999+999999999GD12035+9999999GD23025+9999999GD33025+9999999GD40005+9999999GF107075999999999999999999MA1999999101525EQDN01 00000JPWTH 1QNNE11 1 00204E11 1 00403E11 1 00402E11 1 00000G11 1 00080H11 1 15028H11 1 23080H11 1 37250H11 1 00999K11 1 00042L11 1 01200M11 1 29980N11 1 00000Q11 1 10204S11 1 00057V11 1 00909X11 1 05006
038899999903820197201040000E+33367-081967SAO  +0045AGS  V0200705N002150762049N016000599+00945+00565102105ADDAA101000095GA1999+008534064GA2999+076204024GA3999+999999999GA4999+999999999GD12045+9999999GD23025+9999999GD30005+9999999GD40005+9999999GF106055999999999999999999MA1999999101565EQDN01 00000JPWTH 1QNNE11 1 00205E11 1 00403E11 1 00000E11 1 00000G11 1 00250H11 1 15028H11 1 37250H11 1 00999H11 1 00999K11 1 00042L11 1 01000M11 1 29990N11 1 00000Q11 1 10210S11 1 00049V11 1 00806X11 1 07004
033499999903820197201040300E+33367-081967SAO  +0045AGS  V0200405N001050274349N016000599+00945+00565102105ADDAA101000095GA1999+010674064GA2999+027434034GD12035+9999999GD24085+9999999GD30995+9999999GD40995+9999999GF108085999999999999999999MA1999999101565EQDN01 00000JPWTH 1QNNE11 1 00204E11 1 00610E11 1 00099E11 1 00099G11 1 00090H11 1 15035H11 1 23090K11 1 00042L11 1 01000M11 1 29990N11 1 00000Q11 1 10210S11 1 00049V11 1 01010X11 1 04002
030799999903820197201040600E+33367-081967SAO  +0045AGS  V02099959000050045749N012800599+01065+00675101955ADDAA101000095GA1999+004574064GD14085+9999999GD20995+9999999GD30995+9999999GD40995+9999999GF108085999999999999999999MA1999999101425EQDN01 00000JPWTH 1QNNE11 1 00610E11 1 00099E11 1 00099E11 1 00099G11 1 00015H11 1 15015K11 1 00044L11 1 00800M11 1 29950N11 1 00000Q11 1 10195S11 1 00051V11 1 01010X11 1 00000
030799999903820197201040900E+33367-081967SAO  +0045AGS  V0203505N001550039649N011200599+01065+00785101865ADDAA101000095GA1999+003964064GD14085+9999999GD20995+9999999GD30995+9999999GD40995+9999999GF108085999999999999999999MA1999999101325EQDN01 00000JPWTH 1QNNE11 1 00610E11 1 00099E11 1 00099E11 1 00099G11 1 00013H11 1 15013K11 1 00046L11 1 00700M11 1 29920N11 1 00000Q11 1 10186S11 1 00051V11 1 01010X11 1 35003
030799999903820197201041200E+33367-081967SAO  +0045AGS  V0200805N002150030549N011200599+01065+00835101805ADDAA101000095GA1999+003054074GD14085+9999999GD20995+9999999GD30995+9999999GD40995+9999999GF108085999999999999999999MA1999999101255EQDN01 00000JPWTH 1QNNE11 1 00610E11 1 00099E11 1 00099E11 1 00099G11 1 00010H11 1 16010K11 1 00047L11 1 00700M11 1 29900N11 1 00000Q11 1 10180S11 1 00051V11 1 01010X11 1 08004
031399999903820197201041500E+33367-081967SAO  +0045AGS  V0201505N004150018349N008000599+01175+01065101805ADDAA101000095GA1999+001834074GD14085+9999999GD20995+9999999GD30995+9999999GD40995+9999999GF108085999999999999999999MA1999999101295MW1045EQDN01 08000JPWTH 1QNNE11 1 00610E11 1 00099E11 1 00099E11 1 00099G11 1 00006H11 1 16006K11 1 00051L11 1 00500M11 1 29910N11 1 08000Q11 1 10180S11 1 00053V11 1 01010X11 1 15008
030799999903820197201041800E+33367-081967SAO  +0045AGS  V0201805N005250030549N011200599+01725+01445101465ADDAA101000095GA1999+003054074GD14085+9999999GD20995+9999999GD30995+9999999GD40995+9999999GF108085999999999999999999MA1999999100955EQDN01 00000JPWTH 1QNNE11 1 00610E11 1 00099E11 1 00099E11 1 00099G11 1 00010H11 1 16010K11 1 00058L11 1 00700M11 1 29810N11 1 00000Q11 1 10146S11 1 00063V11 1 01010X11 1 18010
033499999903820197201042100E+33367-081967SAO  +0045AGS  V0201905N002650039649N011200599+01895+01565101345ADDAA101000095GA1999+003964064GA2999+009144064GD13065+9999999GD24025+9999999GD30995+9999999GD40995+9999999GF108085999999999999999999MA1999999100815EQDN01 00000JPWTH 1QNNE11 1 00408E11 1 00602E11 1 00099E11 1 00099G11 1 00013H11 1 15013H11 1 15030K11 1 00060L11 1 00700M11 1 29770N11 1 00000Q11 1 10134S11 1 00066V11 1 01010X11 1 19005
038899999903820197201050000E+33367-081967SAO  +0045AGS  V0201805N005250091449N011200599+01785+01565101215ADDAA101000095GA1999+009144064GA2999+076204004GA3999+999999999GA4999+999999999GD13065+9999999GD23025+9999999GD30005+9999999GD40005+9999999GF107065999999999999999999MA1999999100685EQDN01 00000JPWTH 1QNNE11 1 00407E11 1 00402E11 1 00000E11 1 00000G11 1 00030H11 1 15030H11 1 32250H11 1 00999H11 1 00999K11 1 00060L11 1 00700M11 1 29730N11 1 00000Q11 1 10121S11 1 00064V11 1 00908X11 1 18010
039499999903820197201050300E+33367-081967SAO  +0045AGS  V0201705N003650128049N011200599+01785+01615101145ADDAA101000095GA1999+012804064GA2999+076204024GA3999+999999999GA4999+999999999GD13065+9999999GD23025+9999999GD30005+9999999GD40005+9999999GF107075999999999999999999MA1999999100615MW1615EQDN01 02000JPWTH 1QNNE11 1 00407E11 1 00402E11 1 00000E11 1 00000G11 1 00042H11 1 15042H11 1 37250H11 1 00999H11 1 00999K11 1 00061L11 1 00700M11 1 29710N11 1 02000Q11 1 10114S11 1 00064V11 1 00909X11 1 17007
033499999903820197201050600E+33367-081967SAO  +0045AGS  V0202005N003650057949N011200599+02005+01785100955ADDAA101000095GA1999+004574064GA2999+005794064GD12035+9999999GD24085+9999999GD30995+9999999GD40995+9999999GF108085999999999999999999MA1999999100445EQDN01 00000JPWTH 1QNNE11 1 00204E11 1 00610E11 1 00099E11 1 00099G11 1 00019H11 1 15015H11 1 15019K11 1 00064L11 1 00700M11 1 29660N11 1 00000Q11 1 10095S11 1 00068V11 1 01010X11 1 20007
034099999903820197201050900E+33367-081967SAO  +0045AGS  V0202505N004650045749N012800599+01945+01835100925ADDAA101002895GA1999+003054074GA2999+004574064GD12025+9999999GD24085+9999999GD30995+9999999GD40995+9999999GF108085999999999999999999MA1999999100415MW1615EQDN01 02000JPWTH 1QNNE11 1 00203E11 1 00610E11 1 00099E11 1 00099G11 1 00015H11 1 16010H11 1 15015K11 1 00065L11 1 00800M11 1 29650N11 1 02000Q11 1 10092S11 1 00067V11 1 01010X11 1 25009
033499999903820197201051200E+33367-081967SAO  +0045AGS  V0202405N004150100649N024000599+01835+01615100945ADDAA101000095GA1999+005794064GA2999+010064064GD12025+9999999GD24085+9999999GD30995+9999999GD40995+9999999GF108085999999999999999999MA1999999100415EQDN01 00000JPWTH 1QNNE11 1 00203E11 1 00610E11 1 00099E11 1 00099G11 1 00033H11 1 15019H11 1 15033K11 1 00061L11 1 01500M11 1 29650N11 1 00000Q11 1 10094S11 1 00065V11 1 01010X11 1 24008
033499999903820197201051500E+33367-081967SAO  +0045AGS  V0202705N005250121949N016000599+01445+01175101315ADDAA101000095GA1999+009144064GA2999+012194064GD12025+9999999GD24085+9999999GD30995+9999999GD40995+9999999GF108085999999999999999999MA1999999100785EQDN01 00000JPWTH 1QNNE11 1 00203E11 1 00610E11 1 00099E11 1 00099G11 1 00040H11 1 15030H11 1 15040K11 1 00053L11 1 01000M11 1 29760N11 1 00000Q11 1 10131S11 1 00058V11 1 01010X11 1 27010
038899999903820197201051800E+33367-081967SAO  +0045AGS  V0202605N005752200059N019200599+01335+00725101345ADDAA101000095GA1999+016764064GA2999+091444004GA3999+999999999GA4999+999999999GD12025+9999999GD23035+9999993GD30005+9999999GD40005+9999999GF106025999999999999999999MA1999999100815EQDN01 00000JPWTH 1QNNE11 1 00203E11 1 00304E11 1 00000E11 1 00000G11U1 99999H11 1 15055H11 1 32300H11 1 00999H11 1 00999K11 1 00045L11 1 01200M11 1 29770N11 1 00000Q11 1 10134S11 1 00056V11 1 00703X11 1 26011
038899999903820197201052100E+33367-081967SAO  +0045AGS  V0203105N007252200059N024000599+01335+00175101395ADDAA101000095GA1999+091444024GA2999+999999999GA3999+999999999GA4999+999999999GD13065+9999993GD20005+9999999GD30005+9999999GD40005+9999999GF106025999999999999999999MA1999999100885EQDN01 00000JPWTH 1QNNE11 1 00308E11 1 00000E11 1 00000E11 1 00000G11U1 99999H11 1 37300H11 1 00999H11 1 00999H11 1 00999K11 1 00035L11 1 01500M11 1 29790N11 1 00000Q11 1 10139S11 1 00056V11 1 00803X11 1 31014
038899999903820197201060000E+33367-081967SAO  +0045AGS  V0203005N005252200059N024000599+00785+00225101695ADDAA101000095GA1999+999999034GA2999+091444024GA3999+999999999GA4999+999999999GD13005+9999993GD20055+9999999GD30005+9999999GD40005+9999999GF105025999999999999999999MA1999999101155EQDN01 00000JPWTH 1QNNE11 1 00300E11 1 00006E11 1 00000E11 1 00000G11U1 99999H11 1 23999H11 1 37300H11 1 00999H11 1 00999K11 1 00036L11 1 01500M11 1 29870N11 1 00000Q11 1 10169S11 1 00046V11 1 00602X11 1 30010
038899999903820197201060300E+33367-081967SAO  +0045AGS  V0202805N004152200059N024000599+00445+00065101875ADDAA101000095GA1999+091444024GA2999+999999999GA3999+999999999GA4999+999999999GD11025+9999993GD20005+9999999GD30005+9999999GD40005+9999999GF102015999999999999999999MA1999999101355EQDN01 00000JPWTH 1QNNE11 1 00102E11 1 00000E11 1 00000E11 1 00000G11U1 99999H11 1 37300H11 1 00999H11 1 00999H11 1 00999K11 1 00033L11 1 01500M11 1 29930N11 1 00000Q11 1 10187S11 1 00040V11 1 00201X11 1 28008
038899999903820197201060600E+33367-081967SAO  +0045AGS  V0203605N003652200059N024000599+00285-00065101915ADDAA101000095GA1999+036584034GA2999+999999999GA3999+999999999GA4999+999999999GD12025+9999999GD20005+9999999GD30005+9999999GD40005+9999999GF102025999999999999999999MA1999999101395EQDN01 00000JPWTH 1QNNE11 1 00203E11 1 00000E11 1 00000E11 1 00000G11U1 99999H11 1 23120H11 1 00999H11 1 00999H11 1 00999K11 1 00031L11 1 01500M11 1 29940N11 1 00000Q11 1 10191S11 1 00037V11 1 00303X11 1 36007
038899999903820197201060900E+33367-081967SAO  +0045AGS  V0200205N004650548649N024000599+00335-00335102005ADDAA101000095GA1999+054864024GA2999+999999999GA3999+999999999GA4999+999999999GD13065+9999999GD20005+9999999GD30005+9999999GD40005+9999999GF106055999999999999999999MA1999999101465EQDN01 00000JPWTH 1QNNE11 1 00408E11 1 00000E11 1 00000E11 1 00000G11 1 00180H11 1 37180H11 1 00999H11 1 00999H11 1 00999K11 1 00026L11 1 01500M11 1 29960N11 1 00000Q11 1 10200S11 1 00038V11 1 00806X11 1 02009
038899999903820197201061200E+33367-081967SAO  +0045AGS  V0200305N003650548649N024000599+00225-00505102035ADDAA101000095GA1999+010674064GA2999+054864024GA3999+999999999GA4999+999999999GD12025+9999999GD23075+9999999GD30005+9999999GD40005+9999999GF107055999999999999999999MA1999999101495EQDN01 00000JPWTH 1QNNE11 1 00203E11 1 00409E11 1 00000E11 1 00000G11 1 00180H11 1 15035H11 1 37180H11 1 00999H11 1 00999K11 1 00023L11 1 01500M11 1 29970N11 1 00000Q11 1 10203S11 1 00036V11 1 00906X11 1 03007
038899999903820197201061500E+33367-081967SAO  +0045AGS  V0200305N002150548649N019200599+00335-00335102185ADDAA101000095GA1999+010674064GA2999+054864024GA3999+999999999GA4999+999999999GD12035+9999999GD24065+9999999GD30005+9999999GD40005+9999999GF108065999999999999999999MA1999999101635EQDN01 00000JPWTH 1QNNE11 1 00204E11 1 00608E11 1 00000E11 1 00000G11 1 00180H11 1 15035H11 1 37180H11 1 00999H11 1 00999K11 1 00026L11 1 01200M11 1 30010N11 1 00000Q11 1 10218S11 1 00038V11 1 01008X11 1 03004
038899999903820197201061800E+33367-081967SAO  +0045AGS  V0200405N002650670649N016000599+00615-00175102005ADDAA101000095GA1999+067064024GA2999+999999999GA3999+999999999GA4999+999999999GD14085+9999999GD20005+9999999GD30005+9999999GD40005+9999999GF108065999999999999999999MA1999999101465EQDN01 00000JPWTH 1QNNE11 1 00610E11 1 00000E11 1 00000E11 1 00000G11 1 00220H11 1 37220H11 1 00999H11 1 00999H11 1 00999K11 1 00029L11 1 01000M11 1 29960N11 1 00000Q11 1 10200S11 1 00043V11 1 01008X11 1 04005
038899999903820197201062100E+33367-081967SAO  +0045AGS  V0203605N002152200059N012800599+00895-00065101955ADDAA101000095GA1999+067064024GA2999+999999999GA3999+999999999GA4999+999999999GD12015+9999999GD20005+9999999GD30005+9999999GD40005+9999999GF101015999999999999999999MA1999999101425EQDN01 00000JPWTH 1QNNE11 1 00201E11 1 00000E11 1 00000E11 1 00000G11U1 99999H11 1 37220H11 1 00999H11 1 00999H11 1 00999K11 1 00031L11 1 00800M11 1 29950N11 1 00000Q11 1 10195S11 1 00048V11 1 00101X11 1 36004
038899999903820197201070000E+33367-081967SAO  +0045AGS  V0203005N003152200059N016000599+00395-00115102075ADDAA101000095GA1999+999999034GA2999+999999999GA3999+999999999GA4999+999999999GD10005+9999999GD20005+9999999GD30005+9999999GD40005+9999999GF100005999999999999999999MA1999999101565EQDN01 00000JPWTH 1QNNE11 1 00000E11 1 00000E11 1 00000E11 1 00000G11U1 99999H11 1 23999H11 1 00999H11 1 00999H11 1 00999K11 1 00030L11 1 01000M11 1 29990N11 1 00000Q11 1 10207S11 1 00039V11 1 00000X11 1 30006
017699999903820197201070300E+33367-081967SAO  +0045AGS  V0202605N001552200059N012800599+00115-00115102205ADDAA101000095GF100005999999999999999999MA1999999101695EQDN01 00000JPWTH 1QNNG11U1 99999K11 1 00030L11 1 00800M11 1 30030N11 1 00000Q11 1 10220S11 1 00034V11 1 00000X11 1 26003
017699999903820197201070600E+33367-081967SAO  +0045AGS  V0202405N001552200059N016000599+00065-00285102215ADDAA101000095GF100005999999999999999999MA1999999101695EQDN01 00000JPWTH 1QNNG11U1 99999K11 1 00027L11 1 01000M11 1 30030N11 1 00000Q11 1 10221S11 1 00033V11 1 00000X11 1 24003
017699999903820197201070900E+33367-081967SAO  +0045AGS  V0202005N002652200059N016000599-00175-00395102355ADDAA101000095GF100005999999999999999999MA1999999101835EQDN01 00000JPWTH 1QNNG11U1 99999K11 1 00025L11 1 01000M11 1 30070N11 1 00000Q11 1 10235S11 1 00029V11 1 00000X11 1 20005
017699999903820197201071200E+33367-081967SAO  +0045AGS  V0203405N002152200059N016000599-00175-00675102485ADDAA101000095GF100005999999999999999999MA1999999101935EQDN01 00000JPWTH 1QNNG11U1 99999K11 1 00020L11 1 01000M11 1 30100N11 1 00000Q11 1 10248S11 1 00029V11 1 00000X11 1 34004
017699999903820197201071500E+33367-081967SAO  +0045AGS  V0203105N004652200059N024000599+00565-00615102755ADDAA101000095GF100005999999999999999999MA1999999102205EQDN01 00000JPWTH 1QNNG11U1 99999K11 1 00021L11 1 01500M11 1 30180N11 1 00000Q11 1 10275S11 1 00042V11 1 00000X11 1 31009
017699999903820197201071800E+33367-081967SAO  +0045AGS  V0202805N004652200059N024000599+01395-00615102565ADDAA101000095GF100005999999999999999999MA1999999102035EQDN01 00000JPWTH 1QNNG11U1 99999K11 1 00021L11 1 01500M11 1 30130N11 1 00000Q11 1 10256S11 1 00057V11 1 00000X11 1 28009
017699999903820197201072100E+33367-081967SAO  +0045AGS  V0203205N006752200059N024000599+01505-00615102565ADDAA101000095GF100005999999999999999999MA1999999102035EQDN01 00000JPWTH 1QNNG11U1 99999K11 1 00021L11 1 01500M11 1 30130N11 1 00000Q11 1 10256S11 1 00059V11 1 00000X11 1 32013
017699999903820197201080000E+33367-081967SAO  +0045AGS  V0202605N003152200059N019200599+00835-00335102745ADDAA101000095GF100005999999999999999999MA1999999102205EQDN01 00000JPWTH 1QNNG11U1 99999K11 1 00026L11 1 01200M11 1 30180N11 1 00000Q11 1 10274S11 1 00047V11 1 00000X11 1 26006
017699999903820197201080300E+33367-081967SAO  +0045AGS  V0202205N001552200059N016000599+00285-00285102895ADDAA101000095GF100005999999999999999999MA1999999102375EQDN01 00000JPWTH 1QNNG11U1 99999K11 1 00027L11 1 01000M11 1 30230N11 1 00000Q11 1 10289S11 1 00037V11 1 00000X11 1 22003
017699999903820197201080600E+33367-081967SAO  +0045AGS  V0203305N001552200059N016000599-00175-00445102915ADDAA101000095GF100005999999999999999999MA1999999102375EQDN01 00000JPWTH 1QNNG11U1 99999K11 1 00024L11 1 01000M11 1 30230N11 1 00000Q11 1 10291S11 1 00029V11 1 00000X11 1 33003
017699999903820197201080900E+33367-081967SAO  +0045AGS  V0202705N001052200059N016000599-00175-00445102895ADDAA101000095GF100005999999999999999999MA1999999102375EQDN01 00000JPWTH 1QNNG11U1 99999K11 1 00024L11 1 01000M11 1 30230N11 1 00000Q11 1 10289S11 1 00029V11 1 00000X11 1 27002
017699999903820197201081200E+33367-081967SAO  +0045AGS  V0203205N001052200059N016000599-00285-00565103055ADDAA101000095GF100005999999999999999999MA1999999102515EQDN01 00000JPWTH 1QNNG11U1 99999K11 1 00022L11 1 01000M11 1 30270N11 1 00000Q11 1 10305S11 1 00027V11 1 00000X11 1 32002
017699999903820197201081500E+33367-081967SAO  +0045AGS  V0200405N002652200059N019200599+00725-00285103345ADDAA101000095GF100005999999999999999999MA1999999102815EQDN01 00000JPWTH 1QNNG11U1 99999K11 1 00027L11 1 01200M11 1 30360N11 1 00000Q11 1 10334S11 1 00045V11 1 00000X11 1 04005
017699999903820197201081800E+33367-081967SAO  +0045AGS  V0200605N003652200059N024000599+01285-00835103095ADDAA101000095GF100005999999999999999999MA1999999102545EQDN01 00000JPWTH 1QNNG11U1 99999K11 1 00017L11 1 01500M11 1 30280N11 1 00000Q11 1 10309S11 1 00055V11 1 00000X11 1 06007
017699999903820197201082100E+33367-081967SAO  +0045AGS  V0201305N005252200059N024000599+01335-00725102925ADDAA101000095GF100005999999999999999999MA1999999102375EQDN01 00000JPWTH 1QNNG11U1 99999K11 1 00019L11 1 01500M11 1 30230N11 1 00000Q11 1 10292S11 1 00056V11 1 00000X11 1 13010
038899999903820197201090000E+33367-081967SAO  +0045AGS  V0201805N002152200059N024000599+00675-00395102865ADDAA101000095GA1999+091444004GA2999+999999999GA3999+999999999GA4999+999999999GD11025+9999993GD20005+9999999GD30005+9999999GD40005+9999999GF102015999999999999999999MA1999999102345EQDN01 00000JPWTH 1QNNE11 1 00102E11 1 00000E11 1 00000E11 1 00000G11U1 99999H11 1 32300H11 1 00999H11 1 00999H11 1 00999K11 1 00025L11 1 01500M11 1 30220N11 1 00000Q11 1 10286S11 1 00044V11 1 00201X11 1 18004
038899999903820197201090300E+33367-081967SAO  +0045AGS  V0203305N001552200059N016000599+00225-00175102835ADDAA101000095GA1999+091444004GA2999+999999999GA3999+999999999GA4999+999999999GD11025+9999993GD20005+9999999GD30005+9999999GD40005+9999999GF102005999999999999999999MA1999999102305EQDN01 00000JPWTH 1QNNE11 1 00102E11 1 00000E11 1 00000E11 1 00000G11U1 99999H11 1 32300H11 1 00999H11 1 00999H11 1 00999K11 1 00029L11 1 01000M11 1 30210N11 1 00000Q11 1 10283S11 1 00036V11 1 00200X11 1 33003
038899999903820197201090600E+33367-081967SAO  +0045AGS  V0203205N002152200059N016000599+00395-00065102675ADDAA101000095GA1999+012194064GA2999+091444004GA3999+999999999GA4999+999999999GD12025+9999999GD22025+9999999GD30005+9999999GD40005+9999999GF104025999999999999999999MA1999999102135EQDN01 00000JPWTH 1QNNE11 1 00203E11 1 00202E11 1 00000E11 1 00000G11U1 99999H11 1 15040H11 1 32300H11 1 00999H11 1 00999K11 1 00031L11 1 01000M11 1 30160N11 1 00000Q11 1 10267S11 1 00039V11 1 00503X11 1 32004
033499999903820197201090900E+33367-081967SAO  +0045AGS  V0203105N002150762049N016000599+00445+00175102475ADDAA101000095GA1999+013724064GA2999+076204024GD12035+9999999GD24085+9999999GD30995+9999999GD40995+9999999GF108085999999999999999999MA1999999101935EQDN01 00000JPWTH 1QNNE11 1 00204E11 1 00610E11 1 00099E11 1 00099G11 1 00250H11 1 15045H11 1 37250K11 1 00035L11 1 01000M11 1 30100N11 1 00000Q11 1 10247S11 1 00040V11 1 01010X11 1 31004
038899999903820197201091200E+33367-081967SAO  +0045AGS  V02099959000050115849N016000599+00565+00335102335ADDAA101000095GA1999+011584064GA2999+999999999GA3999+999999999GA4999+999999999GD13075+9999999GD20005+9999999GD30005+9999999GD40005+9999999GF107075999999999999999999MA1999999101795EQDN01 00000JPWTH 1QNNE11 1 00409E11 1 00000E11 1 00000E11 1 00000G11 1 00038H11 1 15038H11 1 00999H11 1 00999H11 1 00999K11 1 00038L11 1 01000M11 1 30060N11 1 00000Q11 1 10233S11 1 00042V11 1 00909X11 1 00000
038899999903820197201091500E+33367-081967SAO  +0045AGS  V0201305N003150914449N019200599+01005+00565102355ADDAA101000095GA1999+009144064GA2999+030484034GA3999+091444004GA4999+999999999GD12025+9999999GD22025+9999999GD33025+9999999GD40005+9999999GF106065999999999999999999MA1999999101795EQDN01 00000JPWTH 1QNNE11 1 00202E11 1 00203E11 1 00403E11 1 00000G11 1 00300H11 1 15030H11 1 23100H11 1 32300H11 1 00999K11 1 00042L11 1 01200M11 1 30060N11 1 00000Q11 1 10235S11 1 00050V11 1 00807X11 1 13006
038899999903820197201091800E+33367-081967SAO  +0045AGS  V0201905N005750914449N016000599+01945+01175101815ADDAA101000095GA1999+999999084GA2999+030484034GA3999+091444004GA4999+999999999GD12005+9999999GD23035+9999999GD30025+9999999GD40005+9999999GF106035999999999999999999MA1999999101295EQDN01 00000JPWTH 1QNNE11 1 00200E11 1 00404E11 1 00003E11 1 00000G11 1 00300H11 1 11999H11 1 23100H11 1 32300H11 1 00999K11 1 00053L11 1 01000M11 1 29910N11 1 00000Q11 1 10181S11 1 00067V11 1 00704X11 1 19011
038899999903820197201092100E+33367-081967SAO  +0045AGS  V0201805N007250091449N024000599+02065+01065101555ADDAA101000095GA1999+009144064GA2999+030484034GA3999+091444004GA4999+999999999GD13055+9999999GD23025+9999999GD34015+9999999GD40005+9999999GF108075999999999999999999MA1999999101025EQDN01 00000JPWTH 1QNNE11 1 00406E11 1 00403E11 1 00601E11 1 00000G11 1 00030H11 1 15030H11 1 23100H11 1 32300H11 1 00999K11 1 00051L11 1 01500M11 1 29830N11 1 00000Q11 1 10155S11 1 00069V11 1 01009X11 1 18014
030799999903820197201100000E+33367-081967SAO  +0045AGS  V0201605N003650152449N024000599+01785+01285101455ADDAA101000095GA1999+015244064GD14085+9999999GD20995+9999999GD30995+9999999GD40995+9999999GF108085999999999999999999MA1999999100915EQDN01 00000JPWTH 1QNNE11 1 00610E11 1 00099E11 1 00099E11 1 00099G11 1 00050H11 1 15050K11 1 00055L11 1 01500M11 1 29800N11 1 00000Q11 1 10145S11 1 00064V11 1 01010X11 1 16007
033499999903820197201100300E+33367-081967SAO  +0045AGS  V0201905N005750304849N019200599+01895+01285101465ADDAA101000095GA1999+013724064GA2999+030484034GD12025+9999999GD24085+9999999GD30995+9999999GD40995+9999999GF108085999999999999999999MA1999999100915EQDN01 00000JPWTH 1QNNE11 1 00203E11 1 00610E11 1 00099E11 1 00099G11 1 00100H11 1 15045H11 1 23100K11 1 00055L11 1 01200M11 1 29800N11 1 00000Q11 1 10146S11 1 00066V11 1 01010X11 1 19011
030799999903820197201100600E+33367-081967SAO  +0045AGS  V02099959000050057949N016000599+01615+01395101455ADDAA101000095GA1999+005794064GD14085+9999999GD20995+9999999GD30995+9999999GD40995+9999999GF108085999999999999999999MA1999999100915EQDN01 00000JPWTH 1QNNE11 1 00610E11 1 00099E11 1 00099E11 1 00099G11 1 00019H11 1 15019K11 1 00057L11 1 01000M11 1 29800N11 1 00000Q11 1 10145S11 1 00061V11 1 01010X11 1 00000
034099999903820197201100900E+33367-081967SAO  +0045AGS  V0201405N002650243849N011200599+01395+01395101455ADDAA101001095GA1999+012194064GA2999+024384034GD12025+9999999GD24085+9999999GD30995+9999999GD40995+9999999GF108085999999999999999999MA1999999100915MW1615EQDN01 02000JPWTH 1QNNE11 1 00203E11 1 00610E11 1 00099E11 1 00099G11 1 00080H11 1 15040H11 1 23080K11 1 00057L11 1 00700M11 1 29800N11 1 02000Q11 1 10145S11 1 00057V11 1 01010X11 1 14005
034699999903820197201101200E+33367-081967SAO  +0045AGS  V0201405N003150009149N006400599+01445+01395101345ADDAA101001095GA1999+000914134GA2999+010674064GD13065+9999999GD24085+9999999GD30995+9999999GD40995+9999999GF108085999999999999999999MA1999999100815MW1455MW2615EQDN01 02070JPWTH 1QNNE11 1 00408E11 1 00610E11 1 00099E11 1 00099G11 1 00003H11 1 13003H11 1 15035K11 1 00057L11 1 00400M11 1 29770N11 1 02070Q11 1 10134S11 1 00058V11 1 01010X11 1 14006
037999999903820197201101500E+33367-081967SAO  +0045AGS  V0201505N003650012249N003200599+01505+01445101355ADDAA101000095GA1999+001224134GA2999+003664064GD13055+9999999GD24085+9999999GD30995+9999999GD40995+9999999GF108085999999999999999999MA1999999100815MW1045MW2455MW3615EQDN01 02070JPWTH 1N02 08000JPWTH 1QNNE11 1 00406E11 1 00610E11 1 00099E11 1 00099G11 1 00004H11 1 13004H11 1 15012K11 1 00058L11 1 00200M11 1 29770N11 1 02070N11 1 08000Q11 1 10135S11 1 00059V11 1 01010X11 1 15007
033499999903820197201101800E+33367-081967SAO  +0045AGS  V0202005N007750030549N011200599+02175+01895101085ADDAA101000095GA1999+003054134GA2999+005794064GD13065+9999999GD24025+9999999GD30995+9999999GD40995+9999999GF108085999999999999999999MA1999999100545EQDN01 00000JPWTH 1QNNE11 1 00407E11 1 00603E11 1 00099E11 1 00099G11 1 00010H11 1 13010H11 1 15019K11 1 00066L11 1 00700M11 1 29690N11 1 00000Q11 1 10108S11 1 00071V11 1 01010X11 1 20015
039499999903820197201102100E+33367-081967SAO  +0045AGS  V0202305N007750076249N016000599+02395+01785101025ADDAA101000095GA1999+999999134GA2999+007624094GA3999+060964024GA4999+999999999GD13005+9999999GD24055+9999999GD30035+9999999GD40005+9999999GF108065999999999999999999MA1999999100515MW1955EQDN01 01000JPWTH 1QNNE11 1 00400E11 1 00606E11 1 00004E11 1 00000G11 1 00025H11 1 13999H11 1 18025H11 1 37200H11 1 00999K11 1 00064L11 1 01000M11 1 29680N11 1 01000Q11 1 10102S11 1 00075V11 1 01008X11 1 23015
033499999903820197201110000E+33367-081967SAO  +0045AGS  V0201905N002150085349N012800599+01615+01565101305ADDAA101003395GA1999+008534064GA2999+021344034GD13055+9999999GD24035+9999999GD30995+9999999GD40995+9999999GF108085999999999999999999MA1999999100785EQDN01 00000JPWTH 1QNNE11 1 00406E11 1 00604E11 1 00099E11 1 00099G11 1 00028H11 1 15028H11 1 23070K11 1 00060L11 1 00800M11 1 29760N11 1 00000Q11 1 10130S11 1 00061V11 1 01010X11 1 19004
034099999903820197201110300E+33367-081967SAO  +0045AGS  V0201305N002150100649N011200599+01565+01505101465ADDAA101000595GA1999+010064064GA2999+021344034GD13055+9999999GD24085+9999999GD30995+9999999GD40995+9999999GF108085999999999999999999MA1999999100915MW1615EQDN01 02000JPWTH 1QNNE11 1 00406E11 1 00610E11 1 00099E11 1 00099G11 1 00033H11 1 15033H11 1 23070K11 1 00059L11 1 00700M11 1 29800N11 1 02000Q11 1 10146S11 1 00060V11 1 01010X11 1 13004
030799999903820197201110600E+33367-081967SAO  +0045AGS  V02099959000050115849N011200599+01565+01505101385ADDAA101000095GA1999+011584064GD14085+9999999GD20995+9999999GD30995+9999999GD40995+9999999GF108085999999999999999999MA1999999100855EQDN01 00000JPWTH 1QNNE11 1 00610E11 1 00099E11 1 00099E11 1 00099G11 1 00038H11 1 15038K11 1 00059L11 1 00700M11 1 29780N11 1 00000Q11 1 10138S11 1 00060V11 1 01010X11 1 00000
031399999903820197201110900E+33367-081967SAO  +0045AGS  V02099959000050048849N006400599+01565+01505101375ADDAA101000095GA1999+004884064GD14085+9999999GD20995+9999999GD30995+9999999GD40995+9999999GF108085999999999999999999MA1999999100855MW1455EQDN01 07000JPWTH 1QNNE11 1 00610E11 1 00099E11 1 00099E11 1 00099G11 1 00016H11 1 15016K11 1 00059L11 1 00400M11 1 29780N11 1 07000Q11 1 10137S11 1 00060V11 1 01010X11 1 00000
037399999903820197201111200E+33367-081967SAO  +0045AGS  V0203505N007750018349N006400599+01505+01445101465ADDAA101000595GA1999+000614134GA2999+001834134GA3999+004574064GD12035+9999999GD23035+9999999GD34025+9999999GD40995+9999999GF108085999999999999999999MA1999999100955MW1455MW2615EQDN01 02070JPWTH 1QNNE11 1 00204E11 1 00404E11 1 00602E11 1 00099G11 1 00006H11 1 13002H11 1 13006H11 1 15015K11 1 00058L11 1 00400M11 1 29810N11 1 02070Q11 1 10146S11 1 00059V11 1 01010X11 1 35015
034099999903820197201111500E+33367-081967SAO  +0045AGS  V0201305N007250012249N003200599+01445+01395101395ADDAA101006995GA1999+001224134GA2999+003054134GD13065+9999999GD24085+9999999GD30995+9999999GD40995+9999999GF108085999999999999999999MA1999999100885MW1815EQDN01 02400JPWTH 1QNNE11 1 00407E11 1 00610E11 1 00099E11 1 00099G11 1 00004H11 1 13004H11 1 13010K11 1 00057L11 1 00200M11 1 29790N11 1 02400Q11 1 10139S11 1 00058V11 1 01010X11 1 13014
036199999903820197201111800E+33367-081967SAO  +0045AGS  V0202705N002150061049N011200599+01675+01565101255ADDAA101000095GA1999+001524134GA2999+006104064GA3999+015244064GD12045+9999999GD23025+9999999GD34085+9999999GD40995+9999999GF108085999999999999999999MA1999999100715EQDN01 00000JPWTH 1QNNE11 1 00205E11 1 00403E11 1 00610E11 1 00099G11 1 00020H11 1 13005H11 1 15020H11 1 15050K11 1 00060L11 1 00700M11 1 29740N11 1 00000Q11 1 10125S11 1 00062V11 1 01010X11 1 27004
033499999903820197201112100E+33367-081967SAO  +0045AGS  V0202605N004150036649N016000599+01895+01675101325ADDAA101000095GA1999+003664064GA2999+008534064GD13065+9999999GD24025+9999999GD30995+9999999GD40995+9999999GF108085999999999999999999MA1999999100785EQDN01 00000JPWTH 1QNNE11 1 00408E11 1 00602E11 1 00099E11 1 00099G11 1 00012H11 1 15012H11 1 15028K11 1 00062L11 1 01000M11 1 29760N11 1 00000Q11 1 10132S11 1 00066V11 1 01010X11 1 26008
030799999903820197201120000E+33367-081967SAO  +0045AGS  V0202205N001550213449N012800599+01505+01395101505ADDAA101000095GA1999+021344034GD14085+9999999GD20995+9999999GD30995+9999999GD40995+9999999GF108085999999999999999999MA1999999100955EQDN01 00000JPWTH 1QNNE11 1 00610E11 1 00099E11 1 00099E11 1 00099G11 1 00070H11 1 23070K11 1 00057L11 1 00800M11 1 29810N11 1 00000Q11 1 10150S11 1 00059V11 1 01010X11 1 22003
034099999903820197201120300E+33367-081967SAO  +0045AGS  V02099959000050457249N000800599+01285+01285101655ADDAA101000095GA1999+045724034GA2999+091444024GD13055+9999999GD24085+9999999GD30995+9999999GD40995+9999999GF108085999999999999999999MA1999999101125MW1445EQDN01 07200JPWTH 1QNNE11 1 00406E11 1 00610E11 1 00099E11 1 00099G11 1 00150H11 1 23150H11 1 37300K11 1 00055L11 1 00050M11 1 29860N11 1 07200Q11 1 10165S11 1 00055V11 1 01010X11 1 00000
039499999903820197201120600E+33367-081967SAO  +0045AGS  V02099959000052200059N000800599+00945+00945101635ADDAA101000095GA1999+999999104GA2999+999999999GA3999+999999999GA4999+999999999GD16055+9999999GD20005+9999999GD30005+9999999GD40005+9999999GF105055999999999999999999MA1999999101125MW1455EQDN01 07000JPWTH 1QNNE11 1 00806E11 1 00000E11 1 00000E11 1 00000G11U1 99999H11 1 45999H11 1 00999H11 1 00999H11 1 00999K11 1 00049L11 1 00050M11 1 29860N11 1 07000Q11 1 10163S11 1 00049V11 1 00606X11 1 00000
039499999903820197201120900E+33367-081967SAO  +0045AGS  V02099959000052200059N000400599+00945+00945101655ADDAA101000095GA1999+999999104GA2999+999999999GA3999+999999999GA4999+999999999GD16075+9999999GD20005+9999999GD30005+9999999GD40005+9999999GF107075999999999999999999MA1999999101125MW1455EQDN01 07000JPWTH 1QNNE11 1 00809E11 1 00000E11 1 00000E11 1 00000G11U1 99999H11 1 45999H11 1 00999H11 1 00999H11 1 00999K11 1 00049L11 1 00025M11 1 29860N11 1 07000Q11 1 10165S11 1 00049V11 1 00909X11 1 00000
031399999903820197201121200E+33367-081967SAO  +0045AGS  V02099959000050003049N000400599+01115+01115101725ADDAA101000095GA1999+000304104GD15085+9999999GD20995+9999999GD30995+9999999GD40995+9999999GF108085999999999999999999MA1999999101195MW1455EQDN01 07000JPWTH 1QNNE11 1 00710E11 1 00099E11 1 00099E11 1 00099G11 1 00001H11 1 45001K11 1 00052L11 1 00025M11 1 29880N11 1 07000Q11 1 10172S11 1 00052V11 1 01010X11 1 00000
031399999903820197201121500E+33367-081967SAO  +0045AGS  V02099959000050003049N000200599+01115+01115101945ADDAA101000095GA1999+000304104GD15085+9999999GD20995+9999999GD30995+9999999GD40995+9999999GF108085999999999999999999MA1999999101395MW1455EQDN01 07000JPWTH 1QNNE11 1 00710E11 1 00099E11 1 00099E11 1 00099G11 1 00001H11 1 45001K11 1 00052L11 1 00012M11 1 29940N11 1 07000Q11 1 10194S11 1 00052V11 1 01010X11 1 00000
039499999903820197201121800E+33367-081967SAO  +0045AGS  V0201605N002150054949N008000599+01505+01285101745ADDAA101000095GA1999+002444064GA2999+005494064GA3999+999999999GA4999+999999999GD12025+9999999GD23055+9999999GD30005+9999999GD40005+9999999GF106065999999999999999999MA1999999101225MW1045EQDN01 08000JPWTH 1QNNE11 1 00202E11 1 00406E11 1 00000E11 1 00000G11 1 00018H11 1 15008H11 1 15018H11 1 00999H11 1 00999K11 1 00055L11 1 00500M11 1 29890N11 1 08000Q11 1 10174S11 1 00059V11 1 00808X11 1 16004
030799999903820197201122100E+33367-081967SAO  +0045AGS  V0201805N003150057949N012800599+01945+01565101555ADDAA101000095GA1999+005794064GD14085+9999999GD20995+9999999GD30995+9999999GD40995+9999999GF108085999999999999999999MA1999999101025EQDN01 00000JPWTH 1QNNE11 1 00610E11 1 00099E11 1 00099E11 1 00099G11 1 00019H11 1 15019K11 1 00060L11 1 00800M11 1 29830N11 1 00000Q11 1 10155S11 1 00067V11 1 01010X11 1 18006
030799999903820197201130000E+33367-081967SAO  +0045AGS  V0201405N003150057949N016000599+01785+01565101555ADDAA101000095GA1999+005794064GD14085+9999999GD20995+9999999GD30995+9999999GD40995+9999999GF108085999999999999999999MA1999999101025EQDN01 00000JPWTH 1QNNE11 1 00610E11 1 00099E11 1 00099E11 1 00099G11 1 00019H11 1 15019K11 1 00060L11 1 01000M11 1 29830N11 1 00000Q11 1 10155S11 1 00064V11 1 01010X11 1 14006
034099999903820197201130300E+33367-081967SAO  +0045AGS  V0201505N003650009149N009600599+01785+01725101595ADDAA101000095GA1999+000914074GA2999+010064064GD13055+9999999GD24085+9999999GD30995+9999999GD40995+9999999GF108085999999999999999999MA1999999101055MW1455EQDN01 07000JPWTH 1QNNE11 1 00406E11 1 00610E11 1 00099E11 1 00099G11 1 00003H11 1 16003H11 1 15033K11 1 00063L11 1 00600M11 1 29840N11 1 07000Q11 1 10159S11 1 00064V11 1 01010X11 1 15007
031399999903820197201130600E+33367-081967SAO  +0045AGS  V0201605N003650015249N004800599+01835+01785101465ADDAA101000095GA1999+001524074GD14085+9999999GD20995+9999999GD30995+9999999GD40995+9999999GF108085999999999999999999MA1999999100955MW1455EQDN01 07000JPWTH 1QNNE11 1 00610E11 1 00099E11 1 00099E11 1 00099G11 1 00005H11 1 16005K11 1 00064L11 1 00300M11 1 29810N11 1 07000Q11 1 10146S11 1 00065V11 1 01010X11 1 16007
034699999903820197201130900E+33367-081967SAO  +0045AGS  V0201505N003150030549N004800599+01895+01835101285ADDAA101000095GA1999+001524134GA2999+003054064GD12035+9999999GD24085+9999999GD30995+9999999GD40995+9999999GF108085999999999999999999MA1999999100755MW1455MW2615EQDN01 02070JPWTH 1QNNE11 1 00204E11 1 00610E11 1 00099E11 1 00099G11 1 00010H11 1 13005H11 1 15010K11 1 00065L11 1 00300M11 1 29750N11 1 02070Q11 1 10128S11 1 00066V11 1 01010X11 1 15006
033499999903820197201131200E+33367-081967SAO  +0045AGS  V0201605N005250121949N011200599+01835+01725101165ADDAA101000395GA1999+003054134GA2999+012194064GD12035+9999999GD24085+9999999GD30995+9999999GD40995+9999999GF108085999999999999999999MA1999999100645EQDN01 00000JPWTH 1QNNE11 1 00204E11 1 00610E11 1 00099E11 1 00099G11 1 00040H11 1 13010H11 1 15040K11 1 00063L11 1 00700M11 1 29720N11 1 00000Q11 1 10116S11 1 00065V11 1 01010X11 1 16010
036799999903820197201131500E+33367-081967SAO  +0045AGS  V0201705N004150042749N006400599+01895+01725101385ADDAA101001095GA1999+004274154GA2999+008534094GA3999+024384034GD13055+9999999GD23025+9999999GD34015+9999999GD40995+9999999GF108085999999999999999999MA1999999100855MW1805EQDN01 02300JPWTH 1QNNE11 1 00406E11 1 00403E11 1 00601E11 1 00099G11 1 00014H11 1 17014H11 1 18028H11 1 23080K11 1 00063L11 1 00400M11 1 29780N11 1 02300Q11 1 10138S11 1 00066V11 1 01010X11 1 17008
033499999903820197201131800E+33367-081967SAO  +0045AGS  V0201805N004650048849N012800599+02065+01895101045ADDAA101000095GA1999+004884064GA2999+009144064GD13075+9999999GD24015+9999999GD30995+9999999GD40995+9999999GF108085999999999999999999MA1999999100515EQDN01 00000JPWTH 1QNNE11 1 00409E11 1 00601E11 1 00099E11 1 00099G11 1 00016H11 1 15016H11 1 15030K11 1 00066L11 1 00800M11 1 29680N11 1 00000Q11 1 10104S11 1 00069V11 1 01010X11 1 18009
037399999903820197201132100E+33367-081967SAO  +0045AGS  V0203405N003150030549N001600599+02005+01895101005ADDAA101010795GA1999+001834154GA2999+003054154GA3999+009144094GD12035+9999999GD23045+9999999GD34015+9999999GD40995+9999999GF108085999999999999999999MA1999999100475MW1815MW2955EQDN01 01025JPWTH 1QNNE11 1 00204E11 1 00405E11 1 00601E11 1 00099G11 1 00010H11 1 17006H11 1 17010H11 1 18030K11 1 00066L11 1 00100M11 1 29670N11 1 01025Q11 1 10100S11 1 00068V11 1 01010X11 1 34006
037399999903820197201140000E+33367-081967SAO  +0045AGS  V0201105N005750045749N006400599+01725+01675100995ADDAA101002395GA1999+001524134GA2999+004574094GA3999+009144064GD12035+9999999GD23045+9999999GD34015+9999999GD40995+9999999GF108085999999999999999999MA1999999100475MW1615MW2955EQDN01 01020JPWTH 1QNNE11 1 00204E11 1 00405E11 1 00601E11 1 00099G11 1 00015H11 1 13005H11 1 18015H11 1 15030K11 1 00062L11 1 00400M11 1 29670N11 1 01020Q11 1 10099S11 1 00063V11 1 01010X11 1 11011
037399999903820197201140300E+33367-081967SAO  +0045AGS  V0201605N004650115849N016000599+01725+01615101065ADDAA101000895GA1999+003054154GA2999+011584094GA3999+021344034GD12015+9999999GD23055+9999999GD34035+9999999GD40995+9999999GF108085999999999999999999MA1999999100545MW1615MW2955EQDN01 01020JPWTH 1QNNE11 1 00201E11 1 00406E11 1 00604E11 1 00099G11 1 00038H11 1 17010H11 1 18038H11 1 23070K11 1 00061L11 1 01000M11 1 29690N11 1 01020Q11 1 10106S11 1 00063V11 1 01010X11 1 16009
033499999903820197201140600E+33367-081967SAO  +0045AGS  V0201805N004650036649N011200599+02005+01945100985ADDAA101000095GA1999+003664064GA2999+009144064GD13055+9999999GD24035+9999999GD30995+9999999GD40995+9999999GF108085999999999999999999MA1999999100515EQDN01 00000JPWTH 1QNNE11 1 00406E11 1 00604E11 1 00099E11 1 00099G11 1 00012H11 1 15012H11 1 15030K11 1 00067L11 1 00700M11 1 29680N11 1 00000Q11 1 10098S11 1 00068V11 1 01010X11 1 18009
033499999903820197201140900E+33367-081967SAO  +0045AGS  V0202005N005250091449N011200599+02065+01895101085ADDAA101000095GA1999+004574064GA2999+009144064GD12035+9999999GD24055+9999999GD30995+9999999GD40995+9999999GF108085999999999999999999MA1999999100585EQDN01 00000JPWTH 1QNNE11 1 00204E11 1 00606E11 1 00099E11 1 00099G11 1 00030H11 1 15015H11 1 15030K11 1 00066L11 1 00700M11 1 29700N11 1 00000Q11 1 10108S11 1 00069V11 1 01010X11 1 20010
033499999903820197201141200E+33367-081967SAO  +0045AGS  V0202505N004650152449N016000599+02005+01785101345ADDAA101000095GA1999+004574064GA2999+015244064GD12035+9999999GD24055+9999999GD30995+9999999GD40995+9999999GF108085999999999999999999MA1999999100815EQDN01 00000JPWTH 1QNNE11 1 00204E11 1 00606E11 1 00099E11 1 00099G11 1 00050H11 1 15015H11 1 15050K11 1 00064L11 1 01000M11 1 29770N11 1 00000Q11 1 10134S11 1 00068V11 1 01010X11 1 25009
038899999903820197201141500E+33367-081967SAO  +0045AGS  V0202205N003150152449N016000599+01785+01395101615ADDAA101000095GA1999+999999064GA2999+015244064GA3999+030484034GA4999+076204024GD13005+9999999GD23055+9999999GD34025+9999999GD40085+9999999GF108085999999999999999999MA1999999101085EQDN01 00000JPWTH 1QNNE11 1 00400E11 1 00406E11 1 00602E11 1 00010G11 1 00050H11 1 15999H11 1 15050H11 1 23100H11 1 37250K11 1 00057L11 1 01000M11 1 29850N11 1 00000Q11 1 10161S11 1 00064V11 1 01010X11 1 22006
033499999903820197201141800E+33367-081967SAO  +0045AGS  V0203005N005750304849N019200599+01785+01005101615ADDAA101000095GA1999+015244064GA2999+030484034GD12045+9999999GD24045+9999999GD30995+9999999GD40995+9999999GF108085999999999999999999MA1999999101085EQDN01 00000JPWTH 1QNNE11 1 00205E11 1 00605E11 1 00099E11 1 00099G11 1 00100H11 1 15050H11 1 23100K11 1 00050L11 1 01200M11 1 29850N11 1 00000Q11 1 10161S11 1 00064V11 1 01010X11 1 30011
033499999903820197201142100E+33367-081967SAO  +0045AGS  V0203105N005250304849N016000599+01335+00945101795ADDAA101000095GA1999+015244064GA2999+030484034GD12025+9999999GD24065+9999999GD30995+9999999GD40995+9999999GF108085999999999999999999MA1999999101255EQDN01 00000JPWTH 1QNNE11 1 00203E11 1 00607E11 1 00099E11 1 00099G11 1 00100H11 1 15050H11 1 23100K11 1 00049L11 1 01000M11 1 29900N11 1 00000Q11 1 10179S11 1 00056V11 1 01010X11 1 31010
033499999903820197201150000E+33367-081967SAO  +0045AGS  V0203505N003650365849N016000599+01225+01005102005ADDAA101000095GA1999+010674064GA2999+036584044GD12035+9999999GD24085+9999999GD30995+9999999GD40995+9999999GF108085999999999999999999MA1999999101465EQDN01 00000JPWTH 1QNNE11 1 00204E11 1 00610E11 1 00099E11 1 00099G11 1 00120H11 1 15035H11 1 21120K11 1 00050L11 1 01000M11 1 29960N11 1 00000Q11 1 10200S11 1 00054V11 1 01010X11 1 35007
033499999903820197201150300E+33367-081967SAO  +0045AGS  V0200505N005250140249N016000599+01115+00285102205ADDAA101000095GA1999+014024064GA2999+036584044GD13055+9999999GD24085+9999999GD30995+9999999GD40995+9999999GF108085999999999999999999MA1999999101665EQDN01 00000JPWTH 1QNNE11 1 00406E11 1 00610E11 1 00099E11 1 00099G11 1 00046H11 1 15046H11 1 21120K11 1 00037L11 1 01000M11 1 30020N11 1 00000Q11 1 10220S11 1 00052V11 1 01010X11 1 05010
033499999903820197201150600E+33367-081967SAO  +0045AGS  V0200205N005250365849N016000599+00785+00175102295ADDAA101000095GA1999+007624064GA2999+036584034GD12025+9999999GD24065+9999999GD30995+9999999GD40995+9999999GF108085999999999999999999MA1999999101765EQDN01 00000JPWTH 1QNNE11 1 00203E11 1 00607E11 1 00099E11 1 00099G11 1 00120H11 1 15025H11 1 23120K11 1 00035L11 1 01000M11 1 30050N11 1 00000Q11 1 10229S11 1 00046V11 1 01010X11 1 02010
033499999903820197201150900E+33367-081967SAO  +0045AGS  V0200205N007750106749N016000599+00725+00005102315ADDAA101000095GA1999+010674064GA2999+036584034GD13055+9999999GD24035+9999999GD30995+9999999GD40995+9999999GF108085999999999999999999MA1999999101765EQDN01 00000JPWTH 1QNNE11 1 00406E11 1 00604E11 1 00099E11 1 00099G11 1 00035H11 1 15035H11 1 23120K11 1 00032L11 1 01000M11 1 30050N11 1 00000Q11 1 10231S11 1 00045V11 1 01010X11 1 02015
033499999903820197201151200E+33367-081967SAO  +0045AGS  V0203505N007250131149N016000599+00505-00285102475ADDAA101000095GA1999+013114064GA2999+036584034GD13065+9999999GD24025+9999999GD30995+9999999GD40995+9999999GF108085999999999999999999MA1999999101935EQDN01 00000JPWTH 1QNNE11 1 00408E11 1 00602E11 1 00099E11 1 00099G11 1 00043H11 1 15043H11 1 23120K11 1 00027L11 1 01000M11 1 30100N11 1 00000Q11 1 10247S11 1 00041V11 1 01010X11 1 35014
038899999903820197201151500E+33367-081967SAO  +0045AGS  V0200105N008252200059N024000599+00505-00615102745ADDAA101000095GA1999+015244064GA2999+036584034GA3999+076204004GA4999+999999999GD12025+9999999GD22025+9999999GD32015+9999999GD40005+9999999GF104045999999999999999999MA1999999102205EQDN01 00000JPWTH 1QNNE11 1 00202E11 1 00202E11 1 00201E11 1 00000G11U1 99999H11 1 15050H11 1 23120H11 1 32250H11 1 00999K11 1 00021L11 1 01500M11 1 30180N11 1 00000Q11 1 10274S11 1 00041V11 1 00505X11 1 01016
038899999903820197201151800E+33367-081967SAO  +0045AGS  V0200105N004652200059N024000599+00835-00445102605ADDAA101000095GA1999+076204024GA2999+999999999GA3999+999999999GA4999+999999999GD13075+9999993GD20005+9999999GD30005+9999999GD40005+9999999GF107025999999999999999999MA1999999102075EQDN01 00000JPWTH 1QNNE11 1 00309E11 1 00000E11 1 00000E11 1 00000G11U1 99999H11 1 37250H11 1 00999H11 1 00999H11 1 00999K11 1 00024L11 1 01500M11 1 30140N11 1 00000Q11 1 10260S11 1 00047V11 1 00903X11 1 01009
038899999903820197201152100E+33367-081967SAO  +0045AGS  V0203305N004150670649N019200599+00895-00445102605ADDAA101000095GA1999+067064024GA2999+999999999GA3999+999999999GA4999+999999999GD13075+9999999GD20005+9999999GD30005+9999999GD40005+9999999GF107045999999999999999999MA1999999102075EQDN01 00000JPWTH 1QNNE11 1 00409E11 1 00000E11 1 00000E11 1 00000G11 1 00220H11 1 37220H11 1 00999H11 1 00999H11 1 00999K11 1 00024L11 1 01200M11 1 30140N11 1 00000Q11 1 10260S11 1 00048V11 1 00905X11 1 33008
038899999903820197201160000E+33367-081967SAO  +0045AGS  V0202905N005250762049N024000599+00505-00895102815ADDAA101000095GA1999+076204024GA2999+999999999GA3999+999999999GA4999+999999999GD13065+9999999GD20005+9999999GD30005+9999999GD40005+9999999GF106045999999999999999999MA1999999102275EQDN01 00000JPWTH 1QNNE11 1 00408E11 1 00000E11 1 00000E11 1 00000G11 1 00250H11 1 37250H11 1 00999H11 1 00999H11 1 00999K11 1 00016L11 1 01500M11 1 30200N11 1 00000Q11 1 10281S11 1 00041V11 1 00805X11 1 29010
038899999903820197201160300E+33367-081967SAO  +0045AGS  V0203105N006252200059N024000599+00115-01285102995ADDAA101000095GA1999+091444024GA2999+999999999GA3999+999999999GA4999+999999999GD11025+9999993GD20005+9999999GD30005+9999999GD40005+9999999GF102015999999999999999999MA1999999102445EQDN01 00000JPWTH 1QNNE11 1 00103E11 1 00000E11 1 00000E11 1 00000G11U1 99999H11 1 37300H11 1 00999H11 1 00999H11 1 00999K11 1 00009L11 1 01500M11 1 30250N11 1 00000Q11 1 10299S11 1 00034V11 1 00301X11 1 31012
017699999903820197201160600E+33367-081967SAO  +0045AGS  V0203605N005252200059N024000599-00175-01285103175ADDAA101000095GF100005999999999999999999MA1999999102615EQDN01 00000JPWTH 1QNNG11U1 99999K11 1 00009L11 1 01500M11 1 30300N11 1 00000Q11 1 10317S11 1 00029V11 1 00000X11 1 36010
017699999903820197201160900E+33367-081967SAO  +0045AGS  V0203505N005252200059N024000599-00505-01785103445ADDAA101000095GF100005999999999999999999MA1999999102885EQDN01 00000JPWTH 1QNNG11U1 99999K11 1 00000L11 1 01500M11 1 30380N11 1 00000Q11 1 10344S11 1 00023V11 1 00000X11 1 35010
017699999903820197201161200E+33367-081967SAO  +0045AGS  V0200205N006752200059N024000599-00725-01725103775ADDAA101000095GF100005999999999999999999MA1999999103225EQDN01 00000JPWTH 1QNNG11U1 99999K11 1 00001L11 1 01500M11 1 30480N11 1 00000Q11 1 10377S11 1 00019V11 1 00000X11 1 02013
017699999903820197201161500E+33367-081967SAO  +0045AGS  V0200305N005752200059N024000599-00565-01895104025ADDAA101000095GF100005999999999999999999MA1999999103455EQDN01 00000JPWTH 1QNNG11U1 99999K11 1-00002L11 1 01500M11 1 30550N11 1 00000Q11 1 10402S11 1 00022V11 1 00000X11 1 03011
017699999903820197201161800E+33367-081967SAO  +0045AGS  V0200305N004152200059N024000599-00175-01785103905ADDAA101000095GF100005999999999999999999MA1999999103355EQDN01 00000JPWTH 1QNNG11U1 99999K11 1 00000L11 1 01500M11 1 30520N11 1 00000Q11 1 10390S11 1 00029V11 1 00000X11 1 03008
017699999903820197201162100E+33367-081967SAO  +0045AGS  V0200105N003152200059N024000599-00115-01835103825ADDAA101000095GF100005999999999999999999MA1999999103255EQDN01 00000JPWTH 1QNNG11U1 99999K11 1-00001L11 1 01500M11 1 30490N11 1 00000Q11 1 10382S11 1 00030V11 1 00000X11 1 01006
017699999903820197201170000E+33367-081967SAO  +0045AGS  V0200205N003652200059N024000599-00395-01615103875ADDAA101000095GF100005999999999999999999MA1999999103325EQDN01 00000JPWTH 1QNNG11U1 99999K11 1 00003L11 1 01500M11 1 30510N11 1 00000Q11 1 10387S11 1 00025V11 1 00000X11 1 02007
017699999903820197201170300E+33367-081967SAO  +0045AGS  V0200605N003152200059N024000599-00565-01565103905ADDAA101000095GF100005999999999999999999MA1999999103325EQDN01 00000JPWTH 1QNNG11U1 99999K11 1 00004L11 1 01500M11 1 30510N11 1 00000Q11 1 10390S11 1 00022V11 1 00000X11 1 06006
017699999903820197201170600E+33367-081967SAO  +0045AGS  V0200605N003152200059N024000599-00725-01565103805ADDAA101000095GF100005999999999999999999MA1999999103255EQDN01 00000JPWTH 1QNNG11U1 99999K11 1 00004L11 1 01500M11 1 30490N11 1 00000Q11 1 10380S11 1 00019V11 1 00000X11 1 06006
017699999903820197201170900E+33367-081967SAO  +0045AGS  V0200905N003152200059N024000599-00895-01565103745ADDAA101000095GF100005999999999999999999MA1999999103185EQDN01 00000JPWTH 1QNNG11U1 99999K11 1 00004L11 1 01500M11 1 30470N11 1 00000Q11 1 10374S11 1 00016V11 1 00000X11 1 09006
017699999903820197201171200E+33367-081967SAO  +0045AGS  V0200705N002652200059N024000599-00895-01395103775ADDAA101000095GF100005999999999999999999MA1999999103225EQDN01 00000JPWTH 1QNNG11U1 99999K11 1 00007L11 1 01500M11 1 30480N11 1 00000Q11 1 10377S11 1 00016V11 1 00000X11 1 07005
017699999903820197201171500E+33367-081967SAO  +0045AGS  V0201305N001552200059N024000599-00395-01505103855ADDAA101000095GF100005999999999999999999MA1999999103285EQDN01 00000JPWTH 1QNNG11U1 99999K11 1 00005L11 1 01500M11 1 30500N11 1 00000Q11 1 10385S11 1 00025V11 1 00000X11 1 13003
017699999903820197201171800E+33367-081967SAO  +0045AGS  V0202405N001552200059N024000599+00225-01285103485ADDAA101000095GF100005999999999999999999MA1999999102915EQDN01 00000JPWTH 1QNNG11U1 99999K11 1 00009L11 1 01500M11 1 30390N11 1 00000Q11 1 10348S11 1 00036V11 1 00000X11 1 24003
017699999903820197201172100E+33367-081967SAO  +0045AGS  V0200605N003652200059N024000599+00675-01285103205ADDAA101000095GF100005999999999999999999MA1999999102685EQDN01 00000JPWTH 1QNNG11U1 99999K11 1 00009L11 1 01500M11 1 30320N11 1 00000Q11 1 10320S11 1 00044V11 1 00000X11 1 06007
017699999903820197201180000E+33367-081967SAO  +0045AGS  V0202205N001552200059N016000599+00005-00895103165ADDAA101000095GF100005999999999999999999MA1999999102615EQDN01 00000JPWTH 1QNNG11U1 99999K11 1 00016L11 1 01000M11 1 30300N11 1 00000Q11 1 10316S11 1 00032V11 1 00000X11 1 22003
017699999903820197201180300E+33367-081967SAO  +0045AGS  V0202405N001552200059N011200599-00285-00725103165ADDAA101000095GF100005999999999999999999MA1999999102615EQDN01 00000JPWTH 1QNNG11U1 99999K11 1 00019L11 1 00700M11 1 30300N11 1 00000Q11 1 10316S11 1 00027V11 1 00000X11 1 24003
017699999903820197201180600E+33367-081967SAO  +0045AGS  V0202205N001552200059N011200599-00505-00785103065ADDAA101000095GF100005999999999999999999MA1999999102515EQDN01 00000JPWTH 1QNNG11U1 99999K11 1 00018L11 1 00700M11 1 30270N11 1 00000Q11 1 10306S11 1 00023V11 1 00000X11 1 22003
017699999903820197201180900E+33367-081967SAO  +0045AGS  V0202505N001552200059N011200599-00505-00785103045ADDAA101000095GF100005999999999999999999MA1999999102475EQDN01 00000JPWTH 1QNNG11U1 99999K11 1 00018L11 1 00700M11 1 30260N11 1 00000Q11 1 10304S11 1 00023V11 1 00000X11 1 25003
040099999903820197201181200E+33367-081967SAO  +0045AGS  V0203005N001052200059N008000599-00505-00675103015ADDAA101000095GA1999+999999024GA2999+999999999GA3999+999999999GA4999+999999999GD10005+9999999GD20005+9999999GD30005+9999999GD40005+9999999GF100005999999999999999999MA1999999102445MW1045MW2445EQDN01 07280JPWTH 1QNNE11 1 00000E11 1 00000E11 1 00000E11 1 00000G11U1 99999H11 1 37999H11 1 00999H11 1 00999H11 1 00999K11 1 00020L11 1 00500M11 1 30250N11 1 07280Q11 1 10301S11 1 00023V11 1 00000X11 1 30002
018299999903820197201181500E+33367-081967SAO  +0045AGS  V0202305N001552200059N004800599+00285-00335103085ADDAA101000095GF100005999999999999999999MA1999999102545MW1045EQDN01 08000JPWTH 1QNNG11U1 99999K11 1 00026L11 1 00300M11 1 30280N11 1 08000Q11 1 10308S11 1 00037V11 1 00000X11 1 23003
039499999903820197201181800E+33367-081967SAO  +0045AGS  V0201805N002152200059N008000599+01115-00335102825ADDAA101000095GA1999+076204004GA2999+999999999GA3999+999999999GA4999+999999999GD13075+9999993GD20005+9999999GD30005+9999999GD40005+9999999GF107025999999999999999999MA1999999102275MW1045EQDN01 08000JPWTH 1QNNE11 1 00309E11 1 00000E11 1 00000E11 1 00000G11U1 99999H11 1 32250H11 1 00999H11 1 00999H11 1 00999K11 1 00026L11 1 00500M11 1 30200N11 1 08000Q11 1 10282S11 1 00052V11 1 00903X11 1 18004
038899999903820197201182100E+33367-081967SAO  +0045AGS  V0201705N001550762049N024000599+01615+00175102605ADDAA101000095GA1999+076204004GA2999+999999999GA3999+999999999GA4999+999999999GD13065+9999999GD20005+9999999GD30005+9999999GD40005+9999999GF106055999999999999999999MA1999999102075EQDN01 00000JPWTH 1QNNE11 1 00408E11 1 00000E11 1 00000E11 1 00000G11 1 00250H11 1 32250H11 1 00999H11 1 00999H11 1 00999K11 1 00035L11 1 01500M11 1 30140N11 1 00000Q11 1 10260S11 1 00061V11 1 00806X11 1 17003
038899999903820197201190000E+33367-081967SAO  +0045AGS  V0201305N001552200059N016000599+00725+00335102605ADDAA101000095GA1999+091444004GA2999+999999999GA3999+999999999GA4999+999999999GD11025+9999993GD20005+9999999GD30005+9999999GD40005+9999999GF102015999999999999999999MA1999999102075EQDN01 00000JPWTH 1QNNE11 1 00103E11 1 00000E11 1 00000E11 1 00000G11U1 99999H11 1 32300H11 1 00999H11 1 00999H11 1 00999K11 1 00038L11 1 01000M11 1 30140N11 1 00000Q11 1 10260S11 1 00045V11 1 00301X11 1 13003
017699999903820197201190300E+33367-081967SAO  +0045AGS  V02099959000052200059N012800599+00505+00285102615ADDAA101000095GF100005999999999999999999MA1999999102075EQDN01 00000JPWTH 1QNNG11U1 99999K11 1 00037L11 1 00800M11 1 30140N11 1 00000Q11 1 10261S11 1 00041V11 1 00000X11 1 00000
017699999903820197201190600E+33367-081967SAO  +0045AGS  V0202705N002152200059N011200599+00285+00115102515ADDAA101000095GF100005999999999999999999MA1999999102005EQDN01 00000JPWTH 1QNNG11U1 99999K11 1 00034L11 1 00700M11 1 30120N11 1 00000Q11 1 10251S11 1 00037V11 1 00000X11 1 27004
018899999903820197201190900E+33367-081967SAO  +0045AGS  V0202605N001052200059N006400599+00225+00115102545ADDAA101000095GF100005999999999999999999MA1999999102005MW1045MW2445EQDN01 07280JPWTH 1QNNG11U1 99999K11 1 00034L11 1 00400M11 1 30120N11 1 07280Q11 1 10254S11 1 00036V11 1 00000X11 1 26002
040099999903820197201191200E+33367-081967SAO  +0045AGS  V0201605N002152200059N006400599+00115-00065102555ADDAA101000095GA1999+076204024GA2999+999999999GA3999+999999999GA4999+999999999GD12025+9999999GD20005+9999999GD30005+9999999GD40005+9999999GF102025999999999999999999MA1999999102035MW1045MW2445EQDN01 07280JPWTH 1QNNE11 1 00202E11 1 00000E11 1 00000E11 1 00000G11U1 99999H11 1 37250H11 1 00999H11 1 00999H11 1 00999K11 1 00031L11 1 00400M11 1 30130N11 1 07280Q11 1 10255S11 1 00034V11 1 00202X11 1 16004
039499999903820197201191500E+33367-081967SAO  +0045AGS  V0201505N001552200059N002400599+00835+00565102685ADDAA101000095GA1999+999999034GA2999+999999004GA3999+999999999GA4999+999999999GD10005+9999999GD20005+9999999GD30005+9999999GD40005+9999999GF100005999999999999999999MA1999999102135MW1045EQDN01 08000JPWTH 1QNNE11 1 00000E11 1 00000E11 1 00000E11 1 00000G11U1 99999H11 1 23999H11 1 32999H11 1 00999H11 1 00999K11 1 00042L11 1 00150M11 1 30160N11 1 08000Q11 1 10268S11 1 00047V11 1 00000X11 1 15003
039499999903820197201191800E+33367-081967SAO  +0045AGS  V0200105N002150365849N004800599+01895+01005102465ADDAA101000095GA1999+036584034GA2999+999999999GA3999+999999999GA4999+999999999GD13055+9999999GD20005+9999999GD30005+9999999GD40005+9999999GF105055999999999999999999MA1999999101935MW1045EQDN01 08000JPWTH 1QNNE11 1 00406E11 1 00000E11 1 00000E11 1 00000G11 1 00120H11 1 23120H11 1 00999H11 1 00999H11 1 00999K11 1 00050L11 1 00300M11 1 30100N11 1 08000Q11 1 10246S11 1 00066V11 1 00606X11 1 01004
038899999903820197201192100E+33367-081967SAO  +0045AGS  V0200305N002652200059N012800599+02065+01005102305ADDAA101000095GA1999+036584034GA2999+999999999GA3999+999999999GA4999+999999999GD12025+9999999GD20005+9999999GD30005+9999999GD40005+9999999GF102025999999999999999999MA1999999101765EQDN01 00000JPWTH 1QNNE11 1 00202E11 1 00000E11 1 00000E11 1 00000G11U1 99999H11 1 23120H11 1 00999H11 1 00999H11 1 00999K11 1 00050L11 1 00800M11 1 30050N11 1 00000Q11 1 10230S11 1 00069V11 1 00202X11 1 03005
017699999903820197201200000E+33367-081967SAO  +0045AGS  V0202305N002152200059N016000599+01225+00945102375ADDAA101000095GF100005999999999999999999MA1999999101835EQDN01 00000JPWTH 1QNNG11U1 99999K11 1 00049L11 1 01000M11 1 30070N11 1 00000Q11 1 10237S11 1 00054V11 1 00000X11 1 23004
017699999903820197201200300E+33367-081967SAO  +0045AGS  V02099959000052200059N011200599+00835+00785102465ADDAA101000095GF100005999999999999999999MA1999999101905EQDN01 00000JPWTH 1QNNG11U1 99999K11 1 00046L11 1 00700M11 1 30090N11 1 00000Q11 1 10246S11 1 00047V11 1 00000X11 1 00000
018299999903820197201200600E+33367-081967SAO  +0045AGS  V0201905N001052200059N008000599+00675+00565102405ADDAA101000095GF100005999999999999999999MA1999999101865MW1045EQDN01 08000JPWTH 1QNNG11U1 99999K11 1 00042L11 1 00500M11 1 30080N11 1 08000Q11 1 10240S11 1 00044V11 1 00000X11 1 19002
040099999903820197201200900E+33367-081967SAO  +0045AGS  V02099959000052200059N000800599+00565+00445102355ADDAA101000095GA1999+999999104GA2999+000304074GA3999+999999999GA4999+999999999GD16025+9999999GD22025+9999999GD30005+9999999GD40005+9999999GF104045999999999999999999MA1999999101835MW1045MW2455EQDN01 07080JPWTH 1QNNE11 1 00803E11 1 00202E11 1 00000E11 1 00000G11U1 99999H11 1 45999H11 1 16001H11 1 00999H11 1 00999K11 1 00040L11 1 00050M11 1 30070N11 1 07080Q11 1 10235S11 1 00042V11 1 00505X11 1 00000
040099999903820197201201200E+33367-081967SAO  +0045AGS  V02099959000050006149N000400599+00445+00335102355ADDAA101000095GA1999+999999104GA2999+000614074GA3999+999999999GA4999+999999999GD16065+9999999GD23075+9999999GD30005+9999999GD40005+9999999GF107075999999999999999999MA1999999101835MW1045MW2455EQDN01 07080JPWTH 1QNNE11 1 00808E11 1 00409E11 1 00000E11 1 00000G11 1 00002H11 1 45999H11 1 16002H11 1 00999H11 1 00999K11 1 00038L11 1 00025M11 1 30070N11 1 07080Q11 1 10235S11 1 00040V11 1 00909X11 1 00000
039499999903820197201201500E+33367-081967SAO  +0045AGS  V02099959000052200059N003200599+00945+00785102425ADDAA101000095GA1999+030484034GA2999+076204004GA3999+999999999GA4999+999999999GD12025+9999999GD22025+9999999GD30005+9999999GD40005+9999999GF103025999999999999999999MA1999999101905MW1045EQDN01 08000JPWTH 1QNNE11 1 00202E11 1 00202E11 1 00000E11 1 00000G11U1 99999H11 1 23100H11 1 32250H11 1 00999H11 1 00999K11 1 00046L11 1 00200M11 1 30090N11 1 08000Q11 1 10242S11 1 00049V11 1 00403X11 1 00000
031399999903820197201201800E+33367-081967SAO  +0045AGS  V0200405N002150304849N004800599+01895+01175102175ADDAA101000095GA1999+030484034GD14085+9999999GD20995+9999999GD30995+9999999GD40995+9999999GF108085999999999999999999MA1999999101635MW1045EQDN01 08000JPWTH 1QNNE11 1 00610E11 1 00099E11 1 00099E11 1 00099G11 1 00100H11 1 23100K11 1 00053L11 1 00300M11 1 30010N11 1 08000Q11 1 10217S11 1 00066V11 1 01010X11 1 04004
036199999903820197201202100E+33367-081967SAO  +0045AGS  V0201905N004150304849N019200599+02065+01065101955ADDAA101000095GA1999+024384034GA2999+030484034GA3999+076204024GD12025+9999999GD23045+9999999GD34025+9999999GD40995+9999999GF108085999999999999999999MA1999999101425EQDN01 00000JPWTH 1QNNE11 1 00202E11 1 00405E11 1 00603E11 1 00099G11 1 00100H11 1 23080H11 1 23100H11 1 37250K11 1 00051L11 1 01200M11 1 29950N11 1 00000Q11 1 10195S11 1 00069V11 1 01010X11 1 19008
033499999903820197201210000E+33367-081967SAO  +0045AGS  V0202305N003150304849N016000599+01615+01225102005ADDAA101000095GA1999+010674064GA2999+030484034GD12035+9999999GD24085+9999999GD30995+9999999GD40995+9999999GF108085999999999999999999MA1999999101465EQDN01 00000JPWTH 1QNNE11 1 00204E11 1 00610E11 1 00099E11 1 00099G11 1 00100H11 1 15035H11 1 23100K11 1 00054L11 1 01000M11 1 29960N11 1 00000Q11 1 10200S11 1 00061V11 1 01010X11 1 23006
033499999903820197201210300E+33367-081967SAO  +0045AGS  V0201605N002150091449N016000599+01445+01285101925ADDAA101000095GA1999+009144064GA2999+030484034GD13055+9999999GD24035+9999999GD30995+9999999GD40995+9999999GF108085999999999999999999MA1999999101395EQDN01 00000JPWTH 1QNNE11 1 00406E11 1 00604E11 1 00099E11 1 00099G11 1 00030H11 1 15030H11 1 23100K11 1 00055L11 1 01000M11 1 29940N11 1 00000Q11 1 10192S11 1 00058V11 1 01010X11 1 16004
033499999903820197201210600E+33367-081967SAO  +0045AGS  V0201605N001550091449N011200599+01335+01285101795ADDAA101000095GA1999+009144064GA2999+024384034GD13055+9999999GD24035+9999999GD30995+9999999GD40995+9999999GF108085999999999999999999MA1999999101255EQDN01 00000JPWTH 1QNNE11 1 00406E11 1 00604E11 1 00099E11 1 00099G11 1 00030H11 1 15030H11 1 23080K11 1 00055L11 1 00700M11 1 29900N11 1 00000Q11 1 10179S11 1 00056V11 1 01010X11 1 16003
037399999903820197201210900E+33367-081967SAO  +0045AGS  V0201405N002150091449N006400599+01285+01225101695ADDAA101000595GA1999+006104064GA2999+009144064GA3999+016764064GD12025+9999999GD23025+9999999GD34035+9999999GD40995+9999999GF108085999999999999999999MA1999999101155MW1445MW2615EQDN01 02072JPWTH 1QNNE11 1 00203E11 1 00403E11 1 00604E11 1 00099G11 1 00030H11 1 15020H11 1 15030H11 1 15055K11 1 00054L11 1 00400M11 1 29870N11 1 02072Q11 1 10169S11 1 00055V11 1 01010X11 1 14004
040699999903820197201211200E+33367-081967SAO  +0045AGS  V02099959000050054949N003200599+01225+01175101715ADDAA101000895GA1999+000614134GA2999+005494064GA3999+009144064GD12025+9999999GD23025+9999999GD34035+9999999GD40995+9999999GF108085999999999999999999MA1999999101195MW1045MW2455MW3615EQDN01 02070JPWTH 1N02 08000JPWTH 1QNNE11 1 00203E11 1 00403E11 1 00604E11 1 00099G11 1 00018H11 1 13002H11 1 15018H11 1 15030K11 1 00053L11 1 00200M11 1 29880N11 1 02070N11 1 08000Q11 1 10171S11 1 00054V11 1 01010X11 1 00000
036199999903820197201211500E+33367-081967SAO  +0045AGS  V0202305N003650054949N011200599+01505+01285101815ADDAA101000095GA1999+003664064GA2999+005494064GA3999+024384034GD12025+9999999GD23035+9999999GD34025+9999999GD40995+9999999GF108085999999999999999999MA1999999101295EQDN01 00000JPWTH 1QNNE11 1 00203E11 1 00404E11 1 00603E11 1 00099G11 1 00018H11 1 15012H11 1 15018H11 1 23080K11 1 00055L11 1 00700M11 1 29910N11 1 00000Q11 1 10181S11 1 00059V11 1 01010X11 1 23007
038899999903820197201211800E+33367-081967SAO  +0045AGS  V0202605N002150061049N016000599+01895+01335101615ADDAA101000095GA1999+006104064GA2999+999999034GA3999+076204004GA4999+999999999GD13055+9999999GD23005+9999999GD33025+9999999GD40005+9999999GF106065999999999999999999MA1999999101085EQDN01 00000JPWTH 1QNNE11 1 00406E11 1 00400E11 1 00402E11 1 00000G11 1 00020H11 1 15020H11 1 23999H11 1 32250H11 1 00999K11 1 00056L11 1 01000M11 1 29850N11 1 00000Q11 1 10161S11 1 00066V11 1 00807X11 1 26004
033499999903820197201212100E+33367-081967SAO  +0045AGS  V0203005N003650091449N019200599+01895+01335101555ADDAA101000095GA1999+009144064GA2999+024384034GD13075+9999999GD24035+9999999GD30995+9999999GD40995+9999999GF108085999999999999999999MA1999999101025EQDN01 00000JPWTH 1QNNE11 1 00409E11 1 00604E11 1 00099E11 1 00099G11 1 00030H11 1 15030H11 1 23080K11 1 00056L11 1 01200M11 1 29830N11 1 00000Q11 1 10155S11 1 00066V11 1 01010X11 1 30007
033499999903820197201220000E+33367-081967SAO  +0045AGS  V0202005N001550106749N019200599+01505+01285101645ADDAA101000095GA1999+010674064GA2999+024384034GD13055+9999999GD24035+9999999GD30995+9999999GD40995+9999999GF108085999999999999999999MA1999999101125EQDN01 00000JPWTH 1QNNE11 1 00406E11 1 00604E11 1 00099E11 1 00099G11 1 00035H11 1 15035H11 1 23080K11 1 00055L11 1 01200M11 1 29860N11 1 00000Q11 1 10164S11 1 00059V11 1 01010X11 1 20003
033499999903820197201220300E+33367-081967SAO  +0045AGS  V0200705N001550121949N016000599+01445+01335101695ADDAA101000095GA1999+007624064GA2999+012194064GD12045+9999999GD24085+9999999GD30995+9999999GD40995+9999999GF108085999999999999999999MA1999999101155EQDN01 00000JPWTH 1QNNE11 1 00205E11 1 00610E11 1 00099E11 1 00099G11 1 00040H11 1 15025H11 1 15040K11 1 00056L11 1 01000M11 1 29870N11 1 00000Q11 1 10169S11 1 00058V11 1 01010X11 1 07003
038899999903820197201220600E+33367-081967SAO  +0045AGS  V0202405N001550152449N011200599+01175+01115101625ADDAA101000095GA1999+007624064GA2999+015244064GA3999+999999999GA4999+999999999GD12025+9999999GD23045+9999999GD30005+9999999GD40005+9999999GF106065999999999999999999MA1999999101085EQDN01 00000JPWTH 1QNNE11 1 00203E11 1 00405E11 1 00000E11 1 00000G11 1 00050H11 1 15025H11 1 15050H11 1 00999H11 1 00999K11 1 00052L11 1 00700M11 1 29850N11 1 00000Q11 1 10162S11 1 00053V11 1 00808X11 1 24003
034099999903820197201220900E+33367-081967SAO  +0045AGS  V02099959000050243849N008000599+01115+01065101555ADDAA101000095GA1999+015244064GA2999+024384034GD12025+9999999GD24085+9999999GD30995+9999999GD40995+9999999GF108085999999999999999999MA1999999101025MW1045EQDN01 08000JPWTH 1QNNE11 1 00202E11 1 00610E11 1 00099E11 1 00099G11 1 00080H11 1 15050H11 1 23080K11 1 00051L11 1 00500M11 1 29830N11 1 08000Q11 1 10155S11 1 00052V11 1 01010X11 1 00000
035299999903820197201221200E+33367-081967SAO  +0045AGS  V02099959000050006149N001600599+01285+01285101535ADDAA101000095GA1999+000614074GD14085+9999999GD20995+9999999GD30995+9999999GD40995+9999999GF108085999999999999999999MA1999999101025MW1045MW2455MW3615EQDN01 02070JPWTH 1N02 08000JPWTH 1QNNE11 1 00610E11 1 00099E11 1 00099E11 1 00099G11 1 00002H11 1 16002K11 1 00055L11 1 00100M11 1 29830N11 1 02070N11 1 08000Q11 1 10153S11 1 00055V11 1 01010X11 1 00000
031999999903820197201221500E+33367-081967SAO  +0045AGS  V0201305N002150006149N000400599+01445+01445101505ADDAA101000395GA1999+000614104GD15085+9999999GD20995+9999999GD30995+9999999GD40995+9999999GF108085999999999999999999MA1999999100985MW1045MW2455EQDN01 07080JPWTH 1QNNE11 1 00710E11 1 00099E11 1 00099E11 1 00099G11 1 00002H11 1 45002K11 1 00058L11 1 00025M11 1 29820N11 1 07080Q11 1 10150S11 1 00058V11 1 01010X11 1 13004
034099999903820197201221800E+33367-081967SAO  +0045AGS  V0201705N002650018349N009600599+01675+01565101325ADDAA101000395GA1999+001834074GA2999+007624064GD13065+9999999GD24025+9999999GD30995+9999999GD40995+9999999GF108085999999999999999999MA1999999100785MW1045EQDN01 08000JPWTH 1QNNE11 1 00407E11 1 00603E11 1 00099E11 1 00099G11 1 00006H11 1 16006H11 1 15025K11 1 00060L11 1 00600M11 1 29760N11 1 08000Q11 1 10132S11 1 00062V11 1 01010X11 1 17005
037399999903820197201222100E+33367-081967SAO  +0045AGS  V0201705N001050061049N006400599+01675+01505101135ADDAA101000095GA1999+001834074GA2999+006104064GA3999+010674064GD12025+9999999GD23045+9999999GD34025+9999999GD40995+9999999GF108085999999999999999999MA1999999100615MW1455MW2615EQDN01 02070JPWTH 1QNNE11 1 00202E11 1 00405E11 1 00603E11 1 00099G11 1 00020H11 1 16006H11 1 15020H11 1 15035K11 1 00059L11 1 00400M11 1 29710N11 1 02070Q11 1 10113S11 1 00062V11 1 01010X11 1 17002
033499999903820197201230000E+33367-081967SAO  +0045AGS  V0201305N003150076249N011200599+01445+01445101105ADDAA101000095GA1999+001524074GA2999+007624064GD12025+9999999GD24085+9999999GD30995+9999999GD40995+9999999GF108085999999999999999999MA1999999100585EQDN01 00000JPWTH 1QNNE11 1 00203E11 1 00610E11 1 00099E11 1 00099G11 1 00025H11 1 16005H11 1 15025K11 1 00058L11 1 00700M11 1 29700N11 1 00000Q11 1 10110S11 1 00058V11 1 01010X11 1 13006
031399999903820197201230300E+33367-081967SAO  +0045AGS  V02099959000050003049N000200599+01445+01445101135ADDAA101000095GA1999+000304104GD15085+9999999GD20995+9999999GD30995+9999999GD40995+9999999GF108085999999999999999999MA1999999100615MW1455EQDN01 07000JPWTH 1QNNE11 1 00710E11 1 00099E11 1 00099E11 1 00099G11 1 00001H11 1 45001K11 1 00058L11 1 00012M11 1 29710N11 1 07000Q11 1 10113S11 1 00058V11 1 01010X11 1 00000
034099999903820197201230600E+33367-081967SAO  +0045AGS  V0202405N001550006149N001600599+01335+01335101155ADDAA101000095GA1999+000614134GA2999+004574064GD13065+9999999GD24025+9999999GD30995+9999999GD40995+9999999GF108085999999999999999999MA1999999100615MW1455EQDN01 07000JPWTH 1QNNE11 1 00408E11 1 00602E11 1 00099E11 1 00099G11 1 00002H11 1 13002H11 1 15015K11 1 00056L11 1 00100M11 1 29710N11 1 07000Q11 1 10115S11 1 00056V11 1 01010X11 1 24003
031399999903820197201230900E+33367-081967SAO  +0045AGS  V0203005N003150012249N004800599+01335+01335101215ADDAA101000095GA1999+001224074GD14085+9999999GD20995+9999999GD30995+9999999GD40995+9999999GF108085999999999999999999MA1999999100685MW1455EQDN01 07000JPWTH 1QNNE11 1 00610E11 1 00099E11 1 00099E11 1 00099G11 1 00004H11 1 16004K11 1 00056L11 1 00300M11 1 29730N11 1 07000Q11 1 10121S11 1 00056V11 1 01010X11 1 30006
039499999903820197201231200E+33367-081967SAO  +0045AGS  V0201405N002650030549N004800599+01225+01225101395ADDAA101000095GA1999+003054064GA2999+999999999GA3999+999999999GA4999+999999999GD13055+9999999GD20005+9999999GD30005+9999999GD40005+9999999GF105055999999999999999999MA1999999100885MW1445EQDN01 07200JPWTH 1QNNE11 1 00406E11 1 00000E11 1 00000E11 1 00000G11 1 00010H11 1 15010H11 1 00999H11 1 00999H11 1 00999K11 1 00054L11 1 00300M11 1 29790N11 1 07200Q11 1 10139S11 1 00054V11 1 00606X11 1 14005
034099999903820197201231500E+33367-081967SAO  +0045AGS  V0201905N002150012249N008000599+01565+01395101615ADDAA101000095GA1999+001224074GA2999+003054074GD13055+9999999GD24035+9999999GD30995+9999999GD40995+9999999GF108085999999999999999999MA1999999101085MW1045EQDN01 08000JPWTH 1QNNE11 1 00406E11 1 00604E11 1 00099E11 1 00099G11 1 00004H11 1 16004H11 1 16010K11 1 00057L11 1 00500M11 1 29850N11 1 08000Q11 1 10161S11 1 00060V11 1 01010X11 1 19004
030799999903820197201231800E+33367-081967SAO  +0045AGS  V0202205N004150027449N012800599+01675+01395101455ADDAA101000095GA1999+002744064GD14085+9999999GD20995+9999999GD30995+9999999GD40995+9999999GF108085999999999999999999MA1999999100915EQDN01 00000JPWTH 1QNNE11 1 00610E11 1 00099E11 1 00099E11 1 00099G11 1 00009H11 1 15009K11 1 00057L11 1 00800M11 1 29800N11 1 00000Q11 1 10145S11 1 00062V11 1 01010X11 1 22008
038899999903820197201232100E+33367-081967SAO  +0045AGS  V0202005N005252200059N016000599+01945+01395101355ADDAA101000095GA1999+007014064GA2999+999999999GA3999+999999999GA4999+999999999GD12035+9999999GD20005+9999999GD30005+9999999GD40005+9999999GF103035999999999999999999MA1999999100815EQDN01 00000JPWTH 1QNNE11 1 00204E11 1 00000E11 1 00000E11 1 00000G11U1 99999H11 1 15023H11 1 00999H11 1 00999H11 1 00999K11 1 00057L11 1 01000M11 1 29770N11 1 00000Q11 1 10135S11 1 00067V11 1 00404X11 1 20010
038899999903820197201240000E+33367-081967SAO  +0045AGS  V0202005N003152200059N019200599+01445+01285101475ADDAA101000095GA1999+076204004GA2999+999999999GA3999+999999999GA4999+999999999GD11025+9999993GD20005+9999999GD30005+9999999GD40005+9999999GF102005999999999999999999MA1999999100955EQDN01 00000JPWTH 1QNNE11 1 00102E11 1 00000E11 1 00000E11 1 00000G11U1 99999H11 1 32250H11 1 00999H11 1 00999H11 1 00999K11 1 00055L11 1 01200M11 1 29810N11 1 00000Q11 1 10147S11 1 00058V11 1 00200X11 1 20006
017699999903820197201240300E+33367-081967SAO  +0045AGS  V0201605N001552200059N016000599+01115+01115101565ADDAA101000095GF100005999999999999999999MA1999999101025EQDN01 00000JPWTH 1QNNG11U1 99999K11 1 00052L11 1 01000M11 1 29830N11 1 00000Q11 1 10156S11 1 00052V11 1 00000X11 1 16003
039499999903820197201240600E+33367-081967SAO  +0045AGS  V0201705N003650100649N009600599+01225+01225101585ADDAA101000095GA1999+010064064GA2999+076204004GA3999+999999999GA4999+999999999GD13055+9999999GD23025+9999999GD30005+9999999GD40005+9999999GF106065999999999999999999MA1999999101055MW1445EQDN01 07200JPWTH 1QNNE11 1 00406E11 1 00402E11 1 00000E11 1 00000G11 1 00033H11 1 15033H11 1 32250H11 1 00999H11 1 00999K11 1 00054L11 1 00600M11 1 29840N11 1 07200Q11 1 10158S11 1 00054V11 1 00807X11 1 17007
017699999903820197201240900E+33367-081967SAO  +0045AGS  V0202005N005752200059N012800599+01395+01285101605ADDAA101000095GF100005999999999999999999MA1999999101085EQDN01 00000JPWTH 1QNNG11U1 99999K11 1 00055L11 1 00800M11 1 29850N11 1 00000Q11 1 10160S11 1 00057V11 1 00000X11 1 20011
031999999903820197201241200E+33367-081967SAO  +0045AGS  V0201605N003650009149N006400599+01285+01225101795ADDAA101000095GA1999+000914074GD14085+9999999GD20995+9999999GD30995+9999999GD40995+9999999GF108085999999999999999999MA1999999101255MW1045MW2455EQDN01 07080JPWTH 1QNNE11 1 00610E11 1 00099E11 1 00099E11 1 00099G11 1 00003H11 1 16003K11 1 00054L11 1 00400M11 1 29900N11 1 07080Q11 1 10179S11 1 00055V11 1 01010X11 1 16007
030799999903820197201241500E+33367-081967SAO  +0045AGS  V0201905N003650067149N011200599+01565+01335101965ADDAA101000095GA1999+006714064GD14085+9999999GD20995+9999999GD30995+9999999GD40995+9999999GF108085999999999999999999MA1999999101425EQDN01 00000JPWTH 1QNNE11 1 00610E11 1 00099E11 1 00099E11 1 00099G11 1 00022H11 1 15022K11 1 00056L11 1 00700M11 1 29950N11 1 00000Q11 1 10196S11 1 00060V11 1 01010X11 1 19007
038899999903820197201241800E+33367-081967SAO  +0045AGS  V0202305N005252200059N024000599+02225+01335101835ADDAA101000095GA1999+008534064GA2999+999999999GA3999+999999999GA4999+999999999GD12025+9999999GD20005+9999999GD30005+9999999GD40005+9999999GF102025999999999999999999MA1999999101295EQDN01 00000JPWTH 1QNNE11 1 00203E11 1 00000E11 1 00000E11 1 00000G11U1 99999H11 1 15028H11 1 00999H11 1 00999H11 1 00999K11 1 00056L11 1 01500M11 1 29910N11 1 00000Q11 1 10183S11 1 00072V11 1 00303X11 1 23010
038899999903820197201242100E+33367-081967SAO  +0045AGS  V0201805N005252200059N024000599+02285+01335101655ADDAA101000095GA1999+999999084GA2999+999999004GA3999+999999999GA4999+999999999GD10005+9999999GD20005+9999999GD30005+9999999GD40005+9999999GF100005999999999999999999MA1999999101125EQDN01 00000JPWTH 1QNNE11 1 00000E11 1 00000E11 1 00000E11 1 00000G11U1 99999H11 1 11999H11 1 32999H11 1 00999H11 1 00999K11 1 00056L11 1 01500M11 1 29860N11 1 00000Q11 1 10165S11 1 00073V11 1 00000X11 1 18010
017699999903820197201250000E+33367-081967SAO  +0045AGS  V0201605N003652200059N019200599+01675+01335101765ADDAA101000095GF100005999999999999999999MA1999999101255EQDN01 00000JPWTH 1QNNG11U1 99999K11 1 00056L11 1 01200M11 1 29900N11 1 00000Q11 1 10176S11 1 00062V11 1 00000X11 1 16007
038899999903820197201250300E+33367-081967SAO  +0045AGS  V0201805N002152200059N019200599+01175+01115101845ADDAA101000095GA1999+010674064GA2999+999999999GA3999+999999999GA4999+999999999GD12025+9999999GD20005+9999999GD30005+9999999GD40005+9999999GF102025999999999999999999MA1999999101325EQDN01 00000JPWTH 1QNNE11 1 00202E11 1 00000E11 1 00000E11 1 00000G11U1 99999H11 1 15035H11 1 00999H11 1 00999H11 1 00999K11 1 00052L11 1 01200M11 1 29920N11 1 00000Q11 1 10184S11 1 00053V11 1 00202X11 1 18004
038899999903820197201250600E+33367-081967SAO  +0045AGS  V0201505N003152200059N011200599+01175+01115101745ADDAA101000095GA1999+076204024GA2999+999999999GA3999+999999999GA4999+999999999GD12025+9999999GD20005+9999999GD30005+9999999GD40005+9999999GF102025999999999999999999MA1999999101225EQDN01 00000JPWTH 1QNNE11 1 00203E11 1 00000E11 1 00000E11 1 00000G11U1 99999H11 1 37250H11 1 00999H11 1 00999H11 1 00999K11 1 00052L11 1 00700M11 1 29890N11 1 00000Q11 1 10174S11 1 00053V11 1 00302X11 1 15006
038899999903820197201250900E+33367-081967SAO  +0045AGS  V0202105N003650762049N012800599+01335+01225101755ADDAA101000095GA1999+076204024GA2999+999999999GA3999+999999999GA4999+999999999GD13075+9999999GD20005+9999999GD30005+9999999GD40005+9999999GF107065999999999999999999MA1999999101225EQDN01 00000JPWTH 1QNNE11 1 00409E11 1 00000E11 1 00000E11 1 00000G11 1 00250H11 1 37250H11 1 00999H11 1 00999H11 1 00999K11 1 00054L11 1 00800M11 1 29890N11 1 00000Q11 1 10175S11 1 00056V11 1 00907X11 1 21007
033499999903820197201251200E+33367-081967SAO  +0045AGS  V0202605N004650076249N016000599+01615+01445101925ADDAA101000095GA1999+004574064GA2999+007624064GD12025+9999999GD24085+9999999GD30995+9999999GD40995+9999999GF108085999999999999999999MA1999999101395EQDN01 00000JPWTH 1QNNE11 1 00202E11 1 00610E11 1 00099E11 1 00099G11 1 00025H11 1 15015H11 1 15025K11 1 00058L11 1 01000M11 1 29940N11 1 00000Q11 1 10192S11 1 00061V11 1 01010X11 1 26009
033499999903820197201251500E+33367-081967SAO  +0045AGS  V0203105N005750304849N024000599+01505+00725102455ADDAA101000095GA1999+015244064GA2999+030484034GD12035+9999999GD24085+9999999GD30995+9999999GD40995+9999999GF108085999999999999999999MA1999999101905EQDN01 00000JPWTH 1QNNE11 1 00204E11 1 00610E11 1 00099E11 1 00099G11 1 00100H11 1 15050H11 1 23100K11 1 00045L11 1 01500M11 1 30090N11 1 00000Q11 1 10245S11 1 00059V11 1 01010X11 1 31011
038899999903820197201251800E+33367-081967SAO  +0045AGS  V0203505N004650762049N024000599+01835-00065102585ADDAA101000095GA1999+076204024GA2999+999999999GA3999+999999999GA4999+999999999GD13075+9999999GD20005+9999999GD30005+9999999GD40005+9999999GF107065999999999999999999MA1999999102035EQDN01 00000JPWTH 1QNNE11 1 00409E11 1 00000E11 1 00000E11 1 00000G11 1 00250H11 1 37250H11 1 00999H11 1 00999H11 1 00999K11 1 00031L11 1 01500M11 1 30130N11 1 00000Q11 1 10258S11 1 00065V11 1 00907X11 1 35009
038899999903820197201252100E+33367-081967SAO  +0045AGS  V0203605N005252200059N024000599+01835-00115102675ADDAA101000095GA1999+091444024GA2999+999999999GA3999+999999999GA4999+999999999GD13065+9999993GD20005+9999999GD30005+9999999GD40005+9999999GF106025999999999999999999MA1999999102135EQDN01 00000JPWTH 1QNNE11 1 00307E11 1 00000E11 1 00000E11 1 00000G11U1 99999H11 1 37300H11 1 00999H11 1 00999H11 1 00999K11 1 00030L11 1 01500M11 1 30160N11 1 00000Q11 1 10267S11 1 00065V11 1 00702X11 1 36010
038899999903820197201260000E+33367-081967SAO  +0045AGS  V0200205N004652200059N024000599+01115-00285102895ADDAA101000095GA1999+091444024GA2999+999999999GA3999+999999999GA4999+999999999GD11035+9999993GD20005+9999999GD30005+9999999GD40005+9999999GF103015999999999999999999MA1999999102375EQDN01 00000JPWTH 1QNNE11 1 00104E11 1 00000E11 1 00000E11 1 00000G11U1 99999H11 1 37300H11 1 00999H11 1 00999H11 1 00999K11 1 00027L11 1 01500M11 1 30230N11 1 00000Q11 1 10289S11 1 00052V11 1 00401X11 1 02009
017699999903820197201260300E+33367-081967SAO  +0045AGS  V0203605N003152200059N024000599+00785-00675103105ADDAA101000095GF100005999999999999999999MA1999999102575EQDN01 00000JPWTH 1QNNG11U1 99999K11 1 00020L11 1 01500M11 1 30290N11 1 00000Q11 1 10310S11 1 00046V11 1 00000X11 1 36006
017699999903820197201260600E+33367-081967SAO  +0045AGS  V0200105N003652200059N024000599+00445-00565103155ADDAA101000095GF100005999999999999999999MA1999999102615EQDN01 00000JPWTH 1QNNG11U1 99999K11 1 00022L11 1 01500M11 1 30300N11 1 00000Q11 1 10315S11 1 00040V11 1 00000X11 1 01007
017699999903820197201260900E+33367-081967SAO  +0045AGS  V0203105N002652200059N024000599+00065-00505103175ADDAA101000095GF100005999999999999999999MA1999999102645EQDN01 00000JPWTH 1QNNG11U1 99999K11 1 00023L11 1 01500M11 1 30310N11 1 00000Q11 1 10317S11 1 00033V11 1 00000X11 1 31005
017699999903820197201261200E+33367-081967SAO  +0045AGS  V0203205N003152200059N024000599-00175-00565103265ADDAA101000095GF100005999999999999999999MA1999999102715EQDN01 00000JPWTH 1QNNG11U1 99999K11 1 00022L11 1 01500M11 1 30330N11 1 00000Q11 1 10326S11 1 00029V11 1 00000X11 1 32006
017699999903820197201261500E+33367-081967SAO  +0045AGS  V0200505N005752200059N024000599+00835-01005103425ADDAA101000095GF100005999999999999999999MA1999999102885EQDN01 00000JPWTH 1QNNG11U1 99999K11 1 00014L11 1 01500M11 1 30380N11 1 00000Q11 1 10342S11 1 00047V11 1 00000X11 1 05011
017699999903820197201261800E+33367-081967SAO  +0045AGS  V0200905N003652200059N024000599+01285-00895103175ADDAA101000095GF100005999999999999999999MA1999999102645EQDN01 00000JPWTH 1QNNG11U1 99999K11 1 00016L11 1 01500M11 1 30310N11 1 00000Q11 1 10317S11 1 00055V11 1 00000X11 1 09007
038899999903820197201262100E+33367-081967SAO  +0045AGS  V0200805N002152200059N024000599+01615-00835102965ADDAA101000095GA1999+091444004GA2999+999999999GA3999+999999999GA4999+999999999GD11015+9999993GD20005+9999999GD30005+9999999GD40005+9999999GF101005999999999999999999MA1999999102405EQDN01 00000JPWTH 1QNNE11 1 00101E11 1 00000E11 1 00000E11 1 00000G11U1 99999H11 1 32300H11 1 00999H11 1 00999H11 1 00999K11 1 00017L11 1 01500M11 1 30240N11 1 00000Q11 1 10296S11 1 00061V11 1 00100X11 1 08004
038899999903820197201270000E+33367-081967SAO  +0045AGS  V02099959000050070149N024000599+00785+00005102945ADDAA101000095GA1999+007014064GA2999+091444024GA3999+999999999GA4999+999999999GD13055+9999999GD23025+9999999GD30005+9999999GD40005+9999999GF106065999999999999999999MA1999999102405EQDN01 00000JPWTH 1QNNE11 1 00406E11 1 00402E11 1 00000E11 1 00000G11 1 00023H11 1 15023H11 1 37300H11 1 00999H11 1 00999K11 1 00032L11 1 01500M11 1 30240N11 1 00000Q11 1 10294S11 1 00046V11 1 00807X11 1 00000
030799999903820197201270300E+33367-081967SAO  +0045AGS  V0201705N001050103649N024000599+00675+00115102915ADDAA101000095GA1999+010364064GD14085+9999999GD20995+9999999GD30995+9999999GD40995+9999999GF108085999999999999999999MA1999999102375EQDN01 00000JPWTH 1QNNE11 1 00610E11 1 00099E11 1 00099E11 1 00099G11 1 00034H11 1 15034K11 1 00034L11 1 01500M11 1 30230N11 1 00000Q11 1 10291S11 1 00044V11 1 01010X11 1 17002
030799999903820197201270600E+33367-081967SAO  +0045AGS  V0203405N002150067149N019200599+00725+00285102795ADDAA101000095GA1999+006714064GD14085+9999999GD20995+9999999GD30995+9999999GD40995+9999999GF108085999999999999999999MA1999999102275EQDN01 00000JPWTH 1QNNE11 1 00610E11 1 00099E11 1 00099E11 1 00099G11 1 00022H11 1 15022K11 1 00037L11 1 01200M11 1 30200N11 1 00000Q11 1 10279S11 1 00045V11 1 01010X11 1 34004
038899999903820197201270900E+33367-081967SAO  +0045AGS  V02099959000050045749N012800599+00615+00335102675ADDAA101000095GA1999+004574064GA2999+010674064GA3999+999999999GA4999+999999999GD13065+9999999GD23015+9999999GD30005+9999999GD40005+9999999GF107075999999999999999999MA1999999102135EQDN01 00000JPWTH 1QNNE11 1 00408E11 1 00401E11 1 00000E11 1 00000G11 1 00015H11 1 15015H11 1 15035H11 1 00999H11 1 00999K11 1 00038L11 1 00800M11 1 30160N11 1 00000Q11 1 10267S11 1 00043V11 1 00909X11 1 00000
033499999903820197201271200E+33367-081967SAO  +0045AGS  V0203405N001550045749N011200599+00835+00565102715ADDAA101000095GA1999+004574064GA2999+009144064GD13065+9999999GD24025+9999999GD30995+9999999GD40995+9999999GF108085999999999999999999MA1999999102205EQDN01 00000JPWTH 1QNNE11 1 00407E11 1 00603E11 1 00099E11 1 00099G11 1 00015H11 1 15015H11 1 15030K11 1 00042L11 1 00700M11 1 30180N11 1 00000Q11 1 10271S11 1 00047V11 1 01010X11 1 34003
039499999903820197201271500E+33367-081967SAO  +0045AGS  V0201805N001552200059N009600599+01175+00225102785ADDAA101000095GA1999+015244064GA2999+091444014GA3999+999999999GA4999+999999999GD12025+9999999GD22025+9999999GD30005+9999999GD40005+9999999GF103035999999999999999999MA1999999102245MW1055EQDN01 08100JPWTH 1QNNE11 1 00202E11 1 00202E11 1 00000E11 1 00000G11U1 99999H11 1 15050H11 1 39300H11 1 00999H11 1 00999K11 1 00036L11 1 00600M11 1 30190N11 1 08100Q11 1 10278S11 1 00053V11 1 00404X11 1 18003
031399999903820197201271800E+33367-081967SAO  +0045AGS  V0203605N002150106749N009600599+01895+01005102525ADDAA101000095GA1999+010674064GD14085+9999999GD20995+9999999GD30995+9999999GD40995+9999999GF108085999999999999999999MA1999999102005MW1055EQDN01 08100JPWTH 1QNNE11 1 00610E11 1 00099E11 1 00099E11 1 00099G11 1 00035H11 1 15035K11 1 00050L11 1 00600M11 1 30120N11 1 08100Q11 1 10252S11 1 00066V11 1 01010X11 1 36004
030799999903820197201272100E+33367-081967SAO  +0045AGS  V0202405N003650112849N011200599+01945+01175102195ADDAA101000095GA1999+011284064GD14085+9999999GD20995+9999999GD30995+9999999GD40995+9999999GF108085999999999999999999MA1999999101665EQDN01 00000JPWTH 1QNNE11 1 00610E11 1 00099E11 1 00099E11 1 00099G11 1 00037H11 1 15037K11 1 00053L11 1 00700M11 1 30020N11 1 00000Q11 1 10219S11 1 00067V11 1 01010X11 1 24007
030799999903820197201280000E+33367-081967SAO  +0045AGS  V0201705N001550118949N011200599+01565+01285102235ADDAA101000095GA1999+011894064GD14085+9999999GD20995+9999999GD30995+9999999GD40995+9999999GF108085999999999999999999MA1999999101695EQDN01 00000JPWTH 1QNNE11 1 00610E11 1 00099E11 1 00099E11 1 00099G11 1 00039H11 1 15039K11 1 00055L11 1 00700M11 1 30030N11 1 00000Q11 1 10223S11 1 00060V11 1 01010X11 1 17003
017699999903820197201280300E+33367-081967SAO  +0045AGS  V0201605N001552200059N011200599+01115+01005102225ADDAA101000095GF100005999999999999999999MA1999999101695EQDN01 00000JPWTH 1QNNG11U1 99999K11 1 00050L11 1 00700M11 1 30030N11 1 00000Q11 1 10222S11 1 00052V11 1 00000X11 1 16003
040099999903820197201280600E+33367-081967SAO  +0045AGS  V0202005N001552200059N006400599+01005+00945102205ADDAA101000095GA1999+012194064GA2999+030484034GA3999+999999999GA4999+999999999GD12015+9999999GD22025+9999999GD30005+9999999GD40005+9999999GF102025999999999999999999MA1999999101665MW1045MW2445EQDN01 07280JPWTH 1QNNE11 1 00201E11 1 00202E11 1 00000E11 1 00000G11U1 99999H11 1 15040H11 1 23100H11 1 00999H11 1 00999K11 1 00049L11 1 00400M11 1 30020N11 1 07280Q11 1 10220S11 1 00050V11 1 00303X11 1 20003
038899999903820197201280900E+33367-081967SAO  +0045AGS  V0202105N004152200059N011200599+01395+01225101905ADDAA101000095GA1999+019814064GA2999+999999999GA3999+999999999GA4999+999999999GD12035+9999999GD20005+9999999GD30005+9999999GD40005+9999999GF103035999999999999999999MA1999999101355EQDN01 00000JPWTH 1QNNE11 1 00204E11 1 00000E11 1 00000E11 1 00000G11U1 99999H11 1 15065H11 1 00999H11 1 00999H11 1 00999K11 1 00054L11 1 00700M11 1 29930N11 1 00000Q11 1 10190S11 1 00057V11 1 00404X11 1 21008
039499999903820197201281200E+33367-081967SAO  +0045AGS  V0202005N004652200059N009600599+01335+01175101855ADDAA101000095GA1999+019814034GA2999+999999999GA3999+999999999GA4999+999999999GD12025+9999999GD20005+9999999GD30005+9999999GD40005+9999999GF102025999999999999999999MA1999999101325MW1045EQDN01 08000JPWTH 1QNNE11 1 00203E11 1 00000E11 1 00000E11 1 00000G11U1 99999H11 1 23065H11 1 00999H11 1 00999H11 1 00999K11 1 00053L11 1 00600M11 1 29920N11 1 08000Q11 1 10185S11 1 00056V11 1 00303X11 1 20009
038899999903820197201281500E+33367-081967SAO  +0045AGS  V0202605N006752200059N011200599+01895+01445101935ADDAA101000095GA1999+006104064GA2999+030484034GA3999+999999999GA4999+999999999GD12015+9999999GD22025+9999999GD30005+9999999GD40005+9999999GF102025999999999999999999MA1999999101395EQDN01 00000JPWTH 1QNNE11 1 00201E11 1 00202E11 1 00000E11 1 00000G11U1 99999H11 1 15020H11 1 23100H11 1 00999H11 1 00999K11 1 00058L11 1 00700M11 1 29940N11 1 00000Q11 1 10193S11 1 00066V11 1 00303X11 1 26013
030799999903820197201281800E+33367-081967SAO  +0045AGS  V0202405N006750076249N012800599+02005+01505101825ADDAA101000095GA1999+007624064GD14085+9999999GD20995+9999999GD30995+9999999GD40995+9999999GF108085999999999999999999MA1999999101295EQDN01 00000JPWTH 1QNNE11 1 00610E11 1 00099E11 1 00099E11 1 00099G11 1 00025H11 1 15025K11 1 00059L11 1 00800M11 1 29910N11 1 00000Q11 1 10182S11 1 00068V11 1 01010X11 1 24013
030799999903820197201282100E+33367-081967SAO  +0045AGS  V0202405N004650115849N016000599+01945+01285101755ADDAA101000095GA1999+011584064GD14085+9999999GD20995+9999999GD30995+9999999GD40995+9999999GF108085999999999999999999MA1999999101225EQDN01 00000JPWTH 1QNNE11 1 00610E11 1 00099E11 1 00099E11 1 00099G11 1 00038H11 1 15038K11 1 00055L11 1 01000M11 1 29890N11 1 00000Q11 1 10175S11 1 00067V11 1 01010X11 1 24009
033499999903820197201290000E+33367-081967SAO  +0045AGS  V0202405N003150137249N019200599+01615+01335101855ADDAA101000095GA1999+013724064GA2999+021344034GD13065+9999999GD24025+9999999GD30995+9999999GD40995+9999999GF108085999999999999999999MA1999999101325EQDN01 00000JPWTH 1QNNE11 1 00408E11 1 00602E11 1 00099E11 1 00099G11 1 00045H11 1 15045H11 1 23070K11 1 00056L11 1 01200M11 1 29920N11 1 00000Q11 1 10185S11 1 00061V11 1 01010X11 1 24006
033499999903820197201290300E+33367-081967SAO  +0045AGS  V0202405N002650152449N019200599+01565+01335101955ADDAA101000095GA1999+015244064GA2999+022864034GD13065+9999999GD24025+9999999GD30995+9999999GD40995+9999999GF108085999999999999999999MA1999999101425EQDN01 00000JPWTH 1QNNE11 1 00407E11 1 00603E11 1 00099E11 1 00099G11 1 00050H11 1 15050H11 1 23075K11 1 00056L11 1 01200M11 1 29950N11 1 00000Q11 1 10195S11 1 00060V11 1 01010X11 1 24005
034099999903820197201290600E+33367-081967SAO  +0045AGS  V0202205N001550198149N011200599+01395+01335101945ADDAA101000095GA1999+005494064GA2999+019814044GD12035+9999999GD24055+9999999GD30995+9999999GD40995+9999999GF108085999999999999999999MA1999999101425MW1615EQDN01 02000JPWTH 1QNNE11 1 00204E11 1 00606E11 1 00099E11 1 00099G11 1 00065H11 1 15018H11 1 21065K11 1 00056L11 1 00700M11 1 29950N11 1 02000Q11 1 10194S11 1 00057V11 1 01010X11 1 22003
037399999903820197201290900E+33367-081967SAO  +0045AGS  V0203105N003150152449N009600599+01285+01225101895ADDAA101000395GA1999+001834074GA2999+007624064GA3999+015244134GD12035+9999999GD22015+9999999GD34045+9999999GD40995+9999999GF108085999999999999999999MA1999999101355MW1455MW2615EQDN01 02070JPWTH 1QNNE11 1 00204E11 1 00201E11 1 00605E11 1 00099G11 1 00050H11 1 16006H11 1 15025H11 1 13050K11 1 00054L11 1 00600M11 1 29930N11 1 02070Q11 1 10189S11 1 00055V11 1 01010X11 1 31006
037399999903820197201291200E+33367-081967SAO  +0045AGS  V0200105N003650024449N003200599+01225+01175101885ADDAA101000395GA1999+000614074GA2999+002444074GA3999+006104064GD12025+9999999GD23035+9999999GD34025+9999999GD40995+9999999GF108085999999999999999999MA1999999101355MW1455MW2615EQDN01 02070JPWTH 1QNNE11 1 00203E11 1 00404E11 1 00603E11 1 00099G11 1 00008H11 1 16002H11 1 16008H11 1 15020K11 1 00053L11 1 00200M11 1 29930N11 1 02070Q11 1 10188S11 1 00054V11 1 01010X11 1 01007
037399999903820197201291500E+33367-081967SAO  +0045AGS  V0200705N002150012249N002400599+01285+01285102035ADDAA101001095GA1999+000614134GA2999+001224134GA3999+005184134GD12025+9999999GD23065+9999999GD34025+9999999GD40995+9999999GF108085999999999999999999MA1999999101495MW1455MW2615EQDN01 02070JPWTH 1QNNE11 1 00203E11 1 00408E11 1 00602E11 1 00099G11 1 00004H11 1 13002H11 1 13004H11 1 13017K11 1 00055L11 1 00150M11 1 29970N11 1 02070Q11 1 10203S11 1 00055V11 1 01010X11 1 07004
031999999903820197201291800E+33367-081967SAO  +0045AGS  V0203505N003150009149N003200599+01285+01285101815ADDAA101005695GA1999+000914134GD14085+9999999GD20995+9999999GD30995+9999999GD40995+9999999GF108085999999999999999999MA1999999101295MW1455MW2615EQDN01 02070JPWTH 1QNNE11 1 00610E11 1 00099E11 1 00099E11 1 00099G11 1 00003H11 1 13003K11 1 00055L11 1 00200M11 1 29910N11 1 02070Q11 1 10181S11 1 00055V11 1 01010X11 1 35006
034699999903820197201292100E+33367-081967SAO  +0045AGS  V0200305N001550012249N008000599+01335+01285101615ADDAA101000095GA1999+001224134GA2999+004884064GD13075+9999999GD24015+9999999GD30995+9999999GD40995+9999999GF108085999999999999999999MA1999999101085MW1455MW2615EQDN01 02070JPWTH 1QNNE11 1 00409E11 1 00601E11 1 00099E11 1 00099G11 1 00004H11 1 13004H11 1 15016K11 1 00055L11 1 00500M11 1 29850N11 1 02070Q11 1 10161S11 1 00056V11 1 01010X11 1 03003
031999999903820197201300000E+33367-081967SAO  +0045AGS  V0203505N002150012249N006400599+01335+01335101595ADDAA101000095GA1999+001224134GD14085+9999999GD20995+9999999GD30995+9999999GD40995+9999999GF108085999999999999999999MA1999999101055MW1455MW2615EQDN01 02070JPWTH 1QNNE11 1 00610E11 1 00099E11 1 00099E11 1 00099G11 1 00004H11 1 13004K11 1 00056L11 1 00400M11 1 29840N11 1 02070Q11 1 10159S11 1 00056V11 1 01010X11 1 35004
031999999903820197201300300E+33367-081967SAO  +0045AGS  V0203405N002150012249N003200599+01285+01285101605ADDAA101001095GA1999+001224134GD14085+9999999GD20995+9999999GD30995+9999999GD40995+9999999GF108085999999999999999999MA1999999101055MW1455MW2615EQDN01 02070JPWTH 1QNNE11 1 00610E11 1 00099E11 1 00099E11 1 00099G11 1 00004H11 1 13004K11 1 00055L11 1 00200M11 1 29840N11 1 02070Q11 1 10160S11 1 00055V11 1 01010X11 1 34004
031399999903820197201300600E+33367-081967SAO  +0045AGS  V0201405N001550012249N006400599+01225+01225101435ADDAA101000895GA1999+001224134GD14085+9999999GD20995+9999999GD30995+9999999GD40995+9999999GF108085999999999999999999MA1999999100915MW1455EQDN01 07000JPWTH 1QNNE11 1 00610E11 1 00099E11 1 00099E11 1 00099G11 1 00004H11 1 13004K11 1 00054L11 1 00400M11 1 29800N11 1 07000Q11 1 10143S11 1 00054V11 1 01010X11 1 14003
031999999903820197201300900E+33367-081967SAO  +0045AGS  V0203305N002650012249N009600599+01175+01065101415ADDAA101000395GA1999+001224134GD14085+9999999GD20995+9999999GD30995+9999999GD40995+9999999GF108085999999999999999999MA1999999100885MW1455MW2615EQDN01 02070JPWTH 1QNNE11 1 00610E11 1 00099E11 1 00099E11 1 00099G11 1 00004H11 1 13004K11 1 00051L11 1 00600M11 1 29790N11 1 02070Q11 1 10141S11 1 00053V11 1 01010X11 1 33005
