038899999903813197201010000E+32700-083650SAO  +0108MCN  V0202805N002152200059N019200599+01335+00785101985ADDAA101000095GA1999+022864034GA2999+999999999GA3999+999999999GA4999+999999999GD12035+9999999GD20005+9999999GD30005+9999999GD40005+9999999GF103035999999999999999999MA1999999100685EQDN01 00000JPWTH 1QNNE11 1 00204E11 1 00000E11 1 00000E11 1 00000G11U1 99999H11 1 23075H11 1 00999H11 1 00999H11 1 00999K11 1 00046L11 1 01200M11 1 29730N11 1 00000Q11 1 10198S11 1 00056V11 1 00404X11 1 28004
017699999903813197201010300E+32700-083650SAO  +0108MCN  V0203505N003152200059N019200599+01175+00225102125ADDAA101000095GF100005999999999999999999MA1999999100815EQDN01 00000JPWTH 1QNNG11U1 99999K11 1 00036L11 1 01200M11 1 29770N11 1 00000Q11 1 10212S11 1 00053V11 1 00000X11 1 35006
017699999903813197201010600E+32700-083650SAO  +0108MCN  V02099959000052200059N019200599+00785+00225102105ADDAA101000095GF100005999999999999999999MA1999999100785EQDN01 00000JPWTH 1QNNG11U1 99999K11 1 00036L11 1 01200M11 1 29760N11 1 00000Q11 1 10210S11 1 00046V11 1 00000X11 1 00000
038899999903813197201010900E+32700-083650SAO  +0108MCN  V0203005N002150304849N019200599+00615+00395102165ADDAA101000095GA1999+030484034GA2999+999999999GA3999+999999999GA4999+999999999GD13065+9999999GD20005+9999999GD30005+9999999GD40005+9999999GF106065999999999999999999MA1999999100855EQDN01 00000JPWTH 1QNNE11 1 00407E11 1 00000E11 1 00000E11 1 00000G11 1 00100H11 1 23100H11 1 00999H11 1 00999H11 1 00999K11 1 00039L11 1 01200M11 1 29780N11 1 00000Q11 1 10216S11 1 00043V11 1 00707X11 1 30004
030799999903813197201011200E+32700-083650SAO  +0108MCN  V0200305N002650137249N019200599+00835+00445102245ADDAA101000095GA1999+013724064GD14085+9999999GD20995+9999999GD30995+9999999GD40995+9999999GF108085999999999999999999MA1999999100915EQDN01 00000JPWTH 1QNNE11 1 00610E11 1 00099E11 1 00099E11 1 00099G11 1 00045H11 1 15045K11 1 00040L11 1 01200M11 1 29800N11 1 00000Q11 1 10224S11 1 00047V11 1 01010X11 1 03005
030799999903813197201011500E+32700-083650SAO  +0108MCN  V0200605N006250167649N019200599+01175+00445102405ADDAA101000095GA1999+016764064GD14085+9999999GD20995+9999999GD30995+9999999GD40995+9999999GF108085999999999999999999MA1999999101085EQDN01 00000JPWTH 1QNNE11 1 00610E11 1 00099E11 1 00099E11 1 00099G11 1 00055H11 1 15055K11 1 00040L11 1 01200M11 1 29850N11 1 00000Q11 1 10240S11 1 00053V11 1 01010X11 1 06012
030799999903813197201011800E+32700-083650SAO  +0108MCN  V0200905N004150167649N019200599+01335+00505102125ADDAA101000095GA1999+016764064GD14085+9999999GD20995+9999999GD30995+9999999GD40995+9999999GF108085999999999999999999MA1999999100815EQDN01 00000JPWTH 1QNNE11 1 00610E11 1 00099E11 1 00099E11 1 00099G11 1 00055H11 1 15055K11 1 00041L11 1 01200M11 1 29770N11 1 00000Q11 1 10212S11 1 00056V11 1 01010X11 1 09008
030799999903813197201012100E+32700-083650SAO  +0108MCN  V0200905N005250228649N019200599+01615+00615101965ADDAA101000095GA1999+022864034GD14085+9999999GD20995+9999999GD30995+9999999GD40995+9999999GF108085999999999999999999MA1999999100645EQDN01 00000JPWTH 1QNNE11 1 00610E11 1 00099E11 1 00099E11 1 00099G11 1 00075H11 1 23075K11 1 00043L11 1 01200M11 1 29720N11 1 00000Q11 1 10196S11 1 00061V11 1 01010X11 1 09010
033499999903813197201020000E+32700-083650SAO  +0108MCN  V0200605N002650085349N019200599+01395+00725101845ADDAA101000095GA1999+008534064GA2999+022864034GD13065+9999999GD24025+9999999GD30995+9999999GD40995+9999999GF108085999999999999999999MA1999999100545EQDN01 00000JPWTH 1QNNE11 1 00408E11 1 00602E11 1 00099E11 1 00099G11 1 00028H11 1 15028H11 1 23075K11 1 00045L11 1 01200M11 1 29690N11 1 00000Q11 1 10184S11 1 00057V11 1 01010X11 1 06005
030799999903813197201020300E+32700-083650SAO  +0108MCN  V0200405N002650091449N019200599+01285+00895101685ADDAA101000095GA1999+009144064GD14085+9999999GD20995+9999999GD30995+9999999GD40995+9999999GF108085999999999999999999MA1999999100375EQDN01 00000JPWTH 1QNNE11 1 00610E11 1 00099E11 1 00099E11 1 00099G11 1 00030H11 1 15030K11 1 00048L11 1 01200M11 1 29640N11 1 00000Q11 1 10168S11 1 00055V11 1 01010X11 1 04005
030799999903813197201020600E+32700-083650SAO  +0108MCN  V0201305N003650021349N011200599+01285+01005101485ADDAA101000095GA1999+002134074GD14085+9999999GD20995+9999999GD30995+9999999GD40995+9999999GF108085999999999999999999MA1999999100175EQDN01 00000JPWTH 1QNNE11 1 00610E11 1 00099E11 1 00099E11 1 00099G11 1 00007H11 1 16007K11 1 00050L11 1 00700M11 1 29580N11 1 00000Q11 1 10148S11 1 00055V11 1 01010X11 1 13007
031399999903813197201020900E+32700-083650SAO  +0108MCN  V0201405N002650018349N003200599+01335+01285101195ADDAA101000095GA1999+001834074GD14085+9999999GD20995+9999999GD30995+9999999GD40995+9999999GF108085999999999999999999MA1999999099905MW1455EQDN01 07000JPWTH 1QNNE11 1 00610E11 1 00099E11 1 00099E11 1 00099G11 1 00006H11 1 16006K11 1 00055L11 1 00200M11 1 29500N11 1 07000Q11 1 10119S11 1 00056V11 1 01010X11 1 14005
034699999903813197201021200E+32700-083650SAO  +0108MCN  V02099959000050015249N003200599+01445+01445101135ADDAA101010795GA1999+001524154GA2999+006104154GD13065+9999999GD24025+9999999GD30995+9999999GD40995+9999999GF108085999999999999999999MA1999999099835MW1455MW2635EQDN01 02170JPWTH 1QNNE11 1 00407E11 1 00603E11 1 00099E11 1 00099G11 1 00005H11 1 17005H11 1 17020K11 1 00058L11 1 00200M11 1 29480N11 1 02170Q11 1 10113S11 1 00058V11 1 01010X11 1 00000
036799999903813197201021500E+32700-083650SAO  +0108MCN  V0202105N003650152449N016000599+01445+01335101325ADDAA101000595GA1999+001524134GA2999+015244064GA3999+030484054GD12015+9999999GD23045+9999999GD34035+9999999GD40995+9999999GF108085999999999999999999MA1999999100035MW1615EQDN01 02000JPWTH 1QNNE11 1 00201E11 1 00405E11 1 00604E11 1 00099G11 1 00050H11 1 13005H11 1 15050H11 1 22100K11 1 00056L11 1 01000M11 1 29540N11 1 02000Q11 1 10132S11 1 00058V11 1 01010X11 1 21007
033499999903813197201021800E+32700-083650SAO  +0108MCN  V0202105N003650115849N019200599+01505+01395101135ADDAA101000095GA1999+999999134GA2999+011584064GD14005+9999999GD20085+9999999GD30995+9999999GD40995+9999999GF108085999999999999999999MA1999999099835EQDN01 00000JPWTH 1QNNE11 1 00600E11 1 00010E11 1 00099E11 1 00099G11 1 00038H11 1 13999H11 1 15038K11 1 00057L11 1 01200M11 1 29480N11 1 00000Q11 1 10113S11 1 00059V11 1 01010X11 1 21007
033499999903813197201022100E+32700-083650SAO  +0108MCN  V0202305N003150039649N019200599+01615+01445101155ADDAA101000095GA1999+003964084GA2999+018294064GD13065+9999999GD24025+9999999GD30995+9999999GD40995+9999999GF108085999999999999999999MA1999999099865EQDN01 00000JPWTH 1QNNE11 1 00407E11 1 00603E11 1 00099E11 1 00099G11 1 00013H11 1 11013H11 1 15060K11 1 00058L11 1 01200M11 1 29490N11 1 00000Q11 1 10115S11 1 00061V11 1 01010X11 1 23006
030799999903813197201030000E+32700-083650SAO  +0108MCN  V0203305N006250051849N019200599+01445+01225101335ADDAA101000095GA1999+005184064GD14085+9999999GD20995+9999999GD30995+9999999GD40995+9999999GF108085999999999999999999MA1999999100035EQDN01 00000JPWTH 1QNNE11 1 00610E11 1 00099E11 1 00099E11 1 00099G11 1 00017H11 1 15017K11 1 00054L11 1 01200M11 1 29540N11 1 00000Q11 1 10133S11 1 00058V11 1 01010X11 1 33012
017699999903813197201030300E+32700-083650SAO  +0108MCN  V0203405N004652200059N016000599+00945+00725101515ADDAA101000095GF100005999999999999999999MA1999999100205EQDN01 00000JPWTH 1QNNG11U1 99999K11 1 00045L11 1 01000M11 1 29590N11 1 00000Q11 1 10151S11 1 00049V11 1 00000X11 1 34009
017699999903813197201030600E+32700-083650SAO  +0108MCN  V0203205N002152200059N016000599+00615+00445101615ADDAA101000095GF100005999999999999999999MA1999999100305EQDN01 00000JPWTH 1QNNG11U1 99999K11 1 00040L11 1 01000M11 1 29620N11 1 00000Q11 1 10161S11 1 00043V11 1 00000X11 1 32004
017699999903813197201030900E+32700-083650SAO  +0108MCN  V02099959000052200059N011200599+00505+00335101765ADDAA101000095GF100005999999999999999999MA1999999100445EQDN01 00000JPWTH 1QNNG11U1 99999K11 1 00038L11 1 00700M11 1 29660N11 1 00000Q11 1 10176S11 1 00041V11 1 00000X11 1 00000
031399999903813197201031200E+32700-083650SAO  +0108MCN  V0200405N003150045749N008000599+00565+00395101925ADDAA101000095GA1999+004574064GD14085+9999999GD20995+9999999GD30995+9999999GD40995+9999999GF108085999999999999999999MA1999999100615MW1445EQDN01 07200JPWTH 1QNNE11 1 00610E11 1 00099E11 1 00099E11 1 00099G11 1 00015H11 1 15015K11 1 00039L11 1 00500M11 1 29710N11 1 07200Q11 1 10192S11 1 00042V11 1 01010X11 1 04006
031999999903813197201031500E+32700-083650SAO  +0108MCN  V0200105N002650009149N001300599+00615+00565102265ADDAA101000395GA1999+000914134GD14085+9999999GD20995+9999999GD30995+9999999GD40995+9999999GF108085999999999999999999MA1999999100955MW1455MW2515EQDN01 03370JPWTH 1QNNE11 1 00610E11 1 00099E11 1 00099E11 1 00099G11 1 00003H11 1 13003K11 1 00042L11 1 00081M11 1 29810N11 1 03370Q11 1 10226S11 1 00043V11 1 01010X11 1 01005
030799999903813197201031800E+32700-083650SAO  +0108MCN  V0200905N002650024449N011200599+01115+00945102095ADDAA101000095GA1999+002444064GD14085+9999999GD20995+9999999GD30995+9999999GD40995+9999999GF108085999999999999999999MA1999999100785EQDN01 00000JPWTH 1QNNE11 1 00610E11 1 00099E11 1 00099E11 1 00099G11 1 00008H11 1 15008K11 1 00049L11 1 00700M11 1 29760N11 1 00000Q11 1 10209S11 1 00052V11 1 01010X11 1 09005
030799999903813197201032100E+32700-083650SAO  +0108MCN  V0200705N003650061049N016000599+01335+01065102025ADDAA101000095GA1999+006104064GD14085+9999999GD20995+9999999GD30995+9999999GD40995+9999999GF108085999999999999999999MA1999999100715EQDN01 00000JPWTH 1QNNE11 1 00610E11 1 00099E11 1 00099E11 1 00099G11 1 00020H11 1 15020K11 1 00051L11 1 01000M11 1 29740N11 1 00000Q11 1 10202S11 1 00056V11 1 01010X11 1 07007
030799999903813197201040000E+32700-083650SAO  +0108MCN  V0200905N003650039649N012800599+01285+01005102005ADDAA101000095GA1999+003964064GD14085+9999999GD20995+9999999GD30995+9999999GD40995+9999999GF108085999999999999999999MA1999999100715EQDN01 00000JPWTH 1QNNE11 1 00610E11 1 00099E11 1 00099E11 1 00099G11 1 00013H11 1 15013K11 1 00050L11 1 00800M11 1 29740N11 1 00000Q11 1 10200S11 1 00055V11 1 01010X11 1 09007
030799999903813197201040300E+32700-083650SAO  +0108MCN  V0200805N004150036649N012800599+01225+00945102045ADDAA101000095GA1999+003664064GD14085+9999999GD20995+9999999GD30995+9999999GD40995+9999999GF108085999999999999999999MA1999999100755EQDN01 00000JPWTH 1QNNE11 1 00610E11 1 00099E11 1 00099E11 1 00099G11 1 00012H11 1 15012K11 1 00049L11 1 00800M11 1 29750N11 1 00000Q11 1 10204S11 1 00054V11 1 01010X11 1 08008
030799999903813197201040600E+32700-083650SAO  +0108MCN  V0200905N003150036649N011200599+01175+00945101895ADDAA101000095GA1999+003664064GD14085+9999999GD20995+9999999GD30995+9999999GD40995+9999999GF108085999999999999999999MA1999999100585EQDN01 00000JPWTH 1QNNE11 1 00610E11 1 00099E11 1 00099E11 1 00099G11 1 00012H11 1 15012K11 1 00049L11 1 00700M11 1 29700N11 1 00000Q11 1 10189S11 1 00053V11 1 01010X11 1 09006
030799999903813197201040900E+32700-083650SAO  +0108MCN  V0201105N003150024449N011200599+01175+01005101825ADDAA101000095GA1999+002444064GD14085+9999999GD20995+9999999GD30995+9999999GD40995+9999999GF108085999999999999999999MA1999999100515EQDN01 00000JPWTH 1QNNE11 1 00610E11 1 00099E11 1 00099E11 1 00099G11 1 00008H11 1 15008K11 1 00050L11 1 00700M11 1 29680N11 1 00000Q11 1 10182S11 1 00053V11 1 01010X11 1 11006
031999999903813197201041200E+32700-083650SAO  +0108MCN  V0201205N004650012249N002400599+01225+01115101725ADDAA101000095GA1999+001224074GD14085+9999999GD20995+9999999GD30995+9999999GD40995+9999999GF108085999999999999999999MA1999999100415MW1455MW2515EQDN01 03370JPWTH 1QNNE11 1 00610E11 1 00099E11 1 00099E11 1 00099G11 1 00004H11 1 16004K11 1 00052L11 1 00150M11 1 29650N11 1 03370Q11 1 10172S11 1 00054V11 1 01010X11 1 12009
031399999903813197201041500E+32700-083650SAO  +0108MCN  V0201605N005250006149N001300599+01395+01335101795ADDAA101000095GA1999+000614074GD14085+9999999GD20995+9999999GD30995+9999999GD40995+9999999GF108085999999999999999999MA1999999100475MW1455EQDN01 07000JPWTH 1QNNE11 1 00610E11 1 00099E11 1 00099E11 1 00099G11 1 00002H11 1 16002K11 1 00056L11 1 00081M11 1 29670N11 1 07000Q11 1 10179S11 1 00057V11 1 01010X11 1 16010
030799999903813197201041800E+32700-083650SAO  +0108MCN  V0201905N006750024449N011200599+01895+01725101465ADDAA101000095GA1999+002444074GD14085+9999999GD20995+9999999GD30995+9999999GD40995+9999999GF108085999999999999999999MA1999999100175EQDN01 00000JPWTH 1QNNE11 1 00610E11 1 00099E11 1 00099E11 1 00099G11 1 00008H11 1 16008K11 1 00063L11 1 00700M11 1 29580N11 1 00000Q11 1 10146S11 1 00066V11 1 01010X11 1 19013
030799999903813197201042100E+32700-083650SAO  +0108MCN  V0202105N004650051849N016000599+02115+01785101295ADDAA101000095GA1999+005184064GD14085+9999999GD20995+9999999GD30995+9999999GD40995+9999999GF108085999999999999999999MA1999999100005EQDN01 00000JPWTH 1QNNE11 1 00610E11 1 00099E11 1 00099E11 1 00099G11 1 00017H11 1 15017K11 1 00064L11 1 01000M11 1 29530N11 1 00000Q11 1 10129S11 1 00070V11 1 01010X11 1 21009
033499999903813197201050000E+32700-083650SAO  +0108MCN  V0201505N004150067149N016000599+02005+01785101255ADDAA101000095GA1999+006714064GA2999+076204004GD13055+9999999GD24035+9999999GD30995+9999999GD40995+9999999GF108085999999999999999999MA1999999099975EQDN01 00000JPWTH 1QNNE11 1 00406E11 1 00604E11 1 00099E11 1 00099G11 1 00022H11 1 15022H11 1 32250K11 1 00064L11 1 01000M11 1 29520N11 1 00000Q11 1 10125S11 1 00068V11 1 01010X11 1 15008
031399999903813197201050300E+32700-083650SAO  +0108MCN  V0202405N004150115849N011200599+01945+01835101265ADDAA101000095GA1999+011584074GD14085+9999999GD20995+9999999GD30995+9999999GD40995+9999999GF108085999999999999999999MA1999999099975MW1615EQDN01 02000JPWTH 1QNNE11 1 00610E11 1 00099E11 1 00099E11 1 00099G11 1 00038H11 1 16038K11 1 00065L11 1 00700M11 1 29520N11 1 02000Q11 1 10126S11 1 00067V11 1 01010X11 1 24008
038899999903813197201050600E+32700-083650SAO  +0108MCN  V0202705N002652200059N011200599+01835+01725101115ADDAA101000095GA1999+008534064GA2999+022864034GA3999+999999999GA4999+999999999GD12035+9999999GD22015+9999999GD30005+9999999GD40005+9999999GF104045999999999999999999MA1999999099835EQDN01 00000JPWTH 1QNNE11 1 00204E11 1 00201E11 1 00000E11 1 00000G11U1 99999H11 1 15028H11 1 23075H11 1 00999H11 1 00999K11 1 00063L11 1 00700M11 1 29480N11 1 00000Q11 1 10111S11 1 00065V11 1 00505X11 1 27005
030799999903813197201050900E+32700-083650SAO  +0108MCN  V0202205N003150097549N011200599+01835+01725101085ADDAA101000095GA1999+009754064GD14085+9999999GD20995+9999999GD30995+9999999GD40995+9999999GF108085999999999999999999MA1999999099805EQDN01 00000JPWTH 1QNNE11 1 00610E11 1 00099E11 1 00099E11 1 00099G11 1 00032H11 1 15032K11 1 00063L11 1 00700M11 1 29470N11 1 00000Q11 1 10108S11 1 00065V11 1 01010X11 1 22006
031999999903813197201051200E+32700-083650SAO  +0108MCN  V0203105N007750030549N003200599+01285+01225101335ADDAA101000395GA1999+003054064GD14085+9999999GD20995+9999999GD30995+9999999GD40995+9999999GF108085999999999999999999MA1999999100035MW1455MW2615EQDN01 02070JPWTH 1QNNE11 1 00610E11 1 00099E11 1 00099E11 1 00099G11 1 00010H11 1 15010K11 1 00054L11 1 00200M11 1 29540N11 1 02070Q11 1 10133S11 1 00055V11 1 01010X11 1 31015
033499999903813197201051500E+32700-083650SAO  +0108MCN  V0203005N007750036649N019200599+00945+00785101725ADDAA101000095GA1999+003664064GA2999+010674064GD13065+9999999GD24025+9999999GD30995+9999999GD40995+9999999GF108085999999999999999999MA1999999100415EQDN01 00000JPWTH 1QNNE11 1 00408E11 1 00602E11 1 00099E11 1 00099G11 1 00012H11 1 15012H11 1 15035K11 1 00046L11 1 01200M11 1 29650N11 1 00000Q11 1 10172S11 1 00049V11 1 01010X11 1 30015
038899999903813197201051800E+32700-083650SAO  +0108MCN  V0203105N007250137249N019200599+00835+00285101755ADDAA101000095GA1999+013724064GA2999+999999999GA3999+999999999GA4999+999999999GD13065+9999999GD20005+9999999GD30005+9999999GD40005+9999999GF106065999999999999999999MA1999999100445EQDN01 00000JPWTH 1QNNE11 1 00408E11 1 00000E11 1 00000E11 1 00000G11 1 00045H11 1 15045H11 1 00999H11 1 00999H11 1 00999K11 1 00037L11 1 01200M11 1 29660N11 1 00000Q11 1 10175S11 1 00047V11 1 00808X11 1 31014
038899999903813197201052100E+32700-083650SAO  +0108MCN  V0203205N006252200059N019200599+00895+00065101825ADDAA101000095GA1999+091444004GA2999+999999999GA3999+999999999GA4999+999999999GD13065+9999993GD20005+9999999GD30005+9999999GD40005+9999999GF106025999999999999999999MA1999999100475EQDN01 00000JPWTH 1QNNE11 1 00307E11 1 00000E11 1 00000E11 1 00000G11U1 99999H11 1 32300H11 1 00999H11 1 00999H11 1 00999K11 1 00033L11 1 01200M11 1 29670N11 1 00000Q11 1 10182S11 1 00048V11 1 00702X11 1 32012
038899999903813197201060000E+32700-083650SAO  +0108MCN  V0203205N005252200059N019200599+00445-00225101935ADDAA101000095GA1999+091444024GA2999+999999999GA3999+999999999GA4999+999999999GD13055+9999993GD20005+9999999GD30005+9999999GD40005+9999999GF105025999999999999999999MA1999999100615EQDN01 00000JPWTH 1QNNE11 1 00306E11 1 00000E11 1 00000E11 1 00000G11U1 99999H11 1 37300H11 1 00999H11 1 00999H11 1 00999K11 1 00028L11 1 01200M11 1 29710N11 1 00000Q11 1 10193S11 1 00040V11 1 00602X11 1 32010
017699999903813197201060300E+32700-083650SAO  +0108MCN  V0203205N004652200059N019200599+00175-00335102045ADDAA101000095GF100005999999999999999999MA1999999100715EQDN01 00000JPWTH 1QNNG11U1 99999K11 1 00026L11 1 01200M11 1 29740N11 1 00000Q11 1 10204S11 1 00035V11 1 00000X11 1 32009
017699999903813197201060600E+32700-083650SAO  +0108MCN  V0203205N003152200059N019200599+00065-00335102085ADDAA101000095GF100005999999999999999999MA1999999100755EQDN01 00000JPWTH 1QNNG11U1 99999K11 1 00026L11 1 01200M11 1 29750N11 1 00000Q11 1 10208S11 1 00033V11 1 00000X11 1 32006
030799999903813197201060900E+32700-083650SAO  +0108MCN  V0203405N003650365849N016000599+00005-00335102045ADDAA101000095GA1999+036584044GD14085+9999999GD20995+9999999GD30995+9999999GD40995+9999999GF108085999999999999999999MA1999999100715EQDN01 00000JPWTH 1QNNE11 1 00610E11 1 00099E11 1 00099E11 1 00099G11 1 00120H11 1 21120K11 1 00026L11 1 01000M11 1 29740N11 1 00000Q11 1 10204S11 1 00032V11 1 01010X11 1 34007
038899999903813197201061200E+32700-083650SAO  +0108MCN  V0203005N003152200059N016000599-00175-00335102155ADDAA101000095GA1999+036584034GA2999+999999999GA3999+999999999GA4999+999999999GD12035+9999999GD20005+9999999GD30005+9999999GD40005+9999999GF103035999999999999999999MA1999999100815EQDN01 00000JPWTH 1QNNE11 1 00204E11 1 00000E11 1 00000E11 1 00000G11U1 99999H11 1 23120H11 1 00999H11 1 00999H11 1 00999K11 1 00026L11 1 01000M11 1 29770N11 1 00000Q11 1 10215S11 1 00029V11 1 00404X11 1 30006
030799999903813197201061500E+32700-083650SAO  +0108MCN  V0200105N002650365849N016000599+00225-00225102305ADDAA101000095GA1999+036584034GD14085+9999999GD20995+9999999GD30995+9999999GD40995+9999999GF108085999999999999999999MA1999999100985EQDN01 00000JPWTH 1QNNE11 1 00610E11 1 00099E11 1 00099E11 1 00099G11 1 00120H11 1 23120K11 1 00028L11 1 01000M11 1 29820N11 1 00000Q11 1 10230S11 1 00036V11 1 01010X11 1 01005
038899999903813197201061800E+32700-083650SAO  +0108MCN  V0200705N002152200059N012800599+00675-00115102145ADDAA101000095GA1999+036584034GA2999+999999999GA3999+999999999GA4999+999999999GD12025+9999999GD20005+9999999GD30005+9999999GD40005+9999999GF102025999999999999999999MA1999999100815EQDN01 00000JPWTH 1QNNE11 1 00202E11 1 00000E11 1 00000E11 1 00000G11U1 99999H11 1 23120H11 1 00999H11 1 00999H11 1 00999K11 1 00030L11 1 00800M11 1 29770N11 1 00000Q11 1 10214S11 1 00044V11 1 00202X11 1 07004
038899999903813197201062100E+32700-083650SAO  +0108MCN  V0202805N003152200059N019200599+01005-00065102085ADDAA101000095GA1999+999999024GA2999+999999999GA3999+999999999GA4999+999999999GD10005+9999999GD20005+9999999GD30005+9999999GD40005+9999999GF100005999999999999999999MA1999999100755EQDN01 00000JPWTH 1QNNE11 1 00000E11 1 00000E11 1 00000E11 1 00000G11U1 99999H11 1 37999H11 1 00999H11 1 00999H11 1 00999K11 1 00031L11 1 01200M11 1 29750N11 1 00000Q11 1 10208S11 1 00050V11 1 00000X11 1 28006
017699999903813197201070000E+32700-083650SAO  +0108MCN  V0203105N002152200059N019200599+00615+00005102245ADDAA101000095GF100005999999999999999999MA1999999100915EQDN01 00000JPWTH 1QNNG11U1 99999K11 1 00032L11 1 01200M11 1 29800N11 1 00000Q11 1 10224S11 1 00043V11 1 00000X11 1 31004
017699999903813197201070300E+32700-083650SAO  +0108MCN  V0203105N003652200059N019200599+00225-00115102435ADDAA101000095GF100005999999999999999999MA1999999101085EQDN01 00000JPWTH 1QNNG11U1 99999K11 1 00030L11 1 01200M11 1 29850N11 1 00000Q11 1 10243S11 1 00036V11 1 00000X11 1 31007
017699999903813197201070600E+32700-083650SAO  +0108MCN  V0202805N002152200059N019200599+00005-00285102475ADDAA101000095GF100005999999999999999999MA1999999101125EQDN01 00000JPWTH 1QNNG11U1 99999K11 1 00027L11 1 01200M11 1 29860N11 1 00000Q11 1 10247S11 1 00032V11 1 00000X11 1 28004
017699999903813197201070900E+32700-083650SAO  +0108MCN  V0203105N004652200059N019200599-00115-00505102655ADDAA101000095GF100005999999999999999999MA1999999101295EQDN01 00000JPWTH 1QNNG11U1 99999K11 1 00023L11 1 01200M11 1 29910N11 1 00000Q11 1 10265S11 1 00030V11 1 00000X11 1 31009
017699999903813197201071200E+32700-083650SAO  +0108MCN  V0202705N003152200059N019200599-00225-00675102765ADDAA101000095GF100005999999999999999999MA1999999101425EQDN01 00000JPWTH 1QNNG11U1 99999K11 1 00020L11 1 01200M11 1 29950N11 1 00000Q11 1 10276S11 1 00028V11 1 00000X11 1 27006
017699999903813197201071500E+32700-083650SAO  +0108MCN  V0203005N003652200059N019200599+00395-00565103065ADDAA101000095GF100005999999999999999999MA1999999101735EQDN01 00000JPWTH 1QNNG11U1 99999K11 1 00022L11 1 01200M11 1 30040N11 1 00000Q11 1 10306S11 1 00039V11 1 00000X11 1 30007
017699999903813197201071800E+32700-083650SAO  +0108MCN  V0203305N006252200059N019200599+01335-00505102855ADDAA101000095GF100005999999999999999999MA1999999101525EQDN01 00000JPWTH 1QNNG11U1 99999K11 1 00023L11 1 01200M11 1 29980N11 1 00000Q11 1 10285S11 1 00056V11 1 00000X11 1 33012
017699999903813197201072100E+32700-083650SAO  +0108MCN  V0203505N007752200059N019200599+01505-00505102845ADDAA101000095GF100005999999999999999999MA1999999101525EQDN01 00000JPWTH 1QNNG11U1 99999K11 1 00023L11 1 01200M11 1 29980N11 1 00000Q11 1 10284S11 1 00059V11 1 00000X11 1 35015
017699999903813197201080000E+32700-083650SAO  +0108MCN  V0203005N003152200059N019200599+00785-00335102995ADDAA101000095GF100005999999999999999999MA1999999101635EQDN01 00000JPWTH 1QNNG11U1 99999K11 1 00026L11 1 01200M11 1 30010N11 1 00000Q11 1 10299S11 1 00046V11 1 00000X11 1 30006
017699999903813197201080300E+32700-083650SAO  +0108MCN  V0203205N006252200059N019200599+00675-00505103085ADDAA101000095GF100005999999999999999999MA1999999101735EQDN01 00000JPWTH 1QNNG11U1 99999K11 1 00023L11 1 01200M11 1 30040N11 1 00000Q11 1 10308S11 1 00044V11 1 00000X11 1 32012
017699999903813197201080600E+32700-083650SAO  +0108MCN  V0201905N002152200059N019200599+00065-00395102965ADDAA101000095GF100005999999999999999999MA1999999101635EQDN01 00000JPWTH 1QNNG11U1 99999K11 1 00025L11 1 01200M11 1 30010N11 1 00000Q11 1 10296S11 1 00033V11 1 00000X11 1 19004
017699999903813197201080900E+32700-083650SAO  +0108MCN  V0202905N002152200059N019200599-00175-00445103005ADDAA101000095GF100005999999999999999999MA1999999101665EQDN01 00000JPWTH 1QNNG11U1 99999K11 1 00024L11 1 01200M11 1 30020N11 1 00000Q11 1 10300S11 1 00029V11 1 00000X11 1 29004
017699999903813197201081200E+32700-083650SAO  +0108MCN  V02099959000052200059N019200599-00225-00445103065ADDAA101000095GF100005999999999999999999MA1999999101695EQDN01 00000JPWTH 1QNNG11U1 99999K11 1 00024L11 1 01200M11 1 30030N11 1 00000Q11 1 10306S11 1 00028V11 1 00000X11 1 00000
017699999903813197201081500E+32700-083650SAO  +0108MCN  V0200905N004652200059N019200599+00615-00395103305ADDAA101000095GF100005999999999999999999MA1999999101965EQDN01 00000JPWTH 1QNNG11U1 99999K11 1 00025L11 1 01200M11 1 30110N11 1 00000Q11 1 10330S11 1 00043V11 1 00000X11 1 09009
017699999903813197201081800E+32700-083650SAO  +0108MCN  V0201205N005752200059N019200599+01335-00445103045ADDAA101000095GF100005999999999999999999MA1999999101735EQDN01 00000JPWTH 1QNNG11U1 99999K11 1 00024L11 1 01200M11 1 30040N11 1 00000Q11 1 10304S11 1 00056V11 1 00000X11 1 12011
017699999903813197201082100E+32700-083650SAO  +0108MCN  V0200705N006752200059N019200599+01445-00445102835ADDAA101000095GF100005999999999999999999MA1999999101495EQDN01 00000JPWTH 1QNNG11U1 99999K11 1 00024L11 1 01200M11 1 29970N11 1 00000Q11 1 10283S11 1 00058V11 1 00000X11 1 07013
017699999903813197201090000E+32700-083650SAO  +0108MCN  V0200705N001552200059N019200599+00785-00335102855ADDAA101000095GF100005999999999999999999MA1999999101495EQDN01 00000JPWTH 1QNNG11U1 99999K11 1 00026L11 1 01200M11 1 29970N11 1 00000Q11 1 10285S11 1 00046V11 1 00000X11 1 07003
038899999903813197201090300E+32700-083650SAO  +0108MCN  V0201105N003652200059N019200599+00785-00285102745ADDAA101000095GA1999+091444024GA2999+999999999GA3999+999999999GA4999+999999999GD11045+9999993GD20005+9999999GD30005+9999999GD40005+9999999GF104025999999999999999999MA1999999101395EQDN01 00000JPWTH 1QNNE11 1 00105E11 1 00000E11 1 00000E11 1 00000G11U1 99999H11 1 37300H11 1 00999H11 1 00999H11 1 00999K11 1 00027L11 1 01200M11 1 29940N11 1 00000Q11 1 10274S11 1 00046V11 1 00502X11 1 11007
038899999903813197201090600E+32700-083650SAO  +0108MCN  V0200605N002650115849N019200599+00785+00065102605ADDAA101000095GA1999+011584064GA2999+091444004GA3999+999999999GA4999+999999999GD13065+9999999GD23025+9999999GD30005+9999999GD40005+9999999GF107065999999999999999999MA1999999101295EQDN01 00000JPWTH 1QNNE11 1 00407E11 1 00402E11 1 00000E11 1 00000G11 1 00038H11 1 15038H11 1 32300H11 1 00999H11 1 00999K11 1 00033L11 1 01200M11 1 29910N11 1 00000Q11 1 10260S11 1 00046V11 1 00908X11 1 06005
030799999903813197201090900E+32700-083650SAO  +0108MCN  V0200405N002150115849N016000599+00675+00175102415ADDAA101000095GA1999+011584064GD14085+9999999GD20995+9999999GD30995+9999999GD40995+9999999GF108085999999999999999999MA1999999101085EQDN01 00000JPWTH 1QNNE11 1 00610E11 1 00099E11 1 00099E11 1 00099G11 1 00038H11 1 15038K11 1 00035L11 1 01000M11 1 29850N11 1 00000Q11 1 10241S11 1 00044V11 1 01010X11 1 04004
038899999903813197201091200E+32700-083650SAO  +0108MCN  V02099959000052200059N016000599+00565+00225102245ADDAA101000095GA1999+011584064GA2999+091444024GA3999+999999999GA4999+999999999GD12025+9999999GD22025+9999999GD30005+9999999GD40005+9999999GF103025999999999999999999MA1999999100915EQDN01 00000JPWTH 1QNNE11 1 00202E11 1 00202E11 1 00000E11 1 00000G11U1 99999H11 1 15038H11 1 37300H11 1 00999H11 1 00999K11 1 00036L11 1 01000M11 1 29800N11 1 00000Q11 1 10224S11 1 00042V11 1 00403X11 1 00000
033499999903813197201091500E+32700-083650SAO  +0108MCN  V0201205N002650115849N016000599+00835+00505102295ADDAA101000095GA1999+011584064GA2999+091444004GD13055+9999999GD24035+9999999GD30995+9999999GD40995+9999999GF108085999999999999999999MA1999999100955EQDN01 00000JPWTH 1QNNE11 1 00406E11 1 00604E11 1 00099E11 1 00099G11 1 00038H11 1 15038H11 1 32300K11 1 00041L11 1 01000M11 1 29810N11 1 00000Q11 1 10229S11 1 00047V11 1 01010X11 1 12005
038899999903813197201091800E+32700-083650SAO  +0108MCN  V0201805N006750914449N019200599+01785+01065101815ADDAA101000095GA1999+009754064GA2999+091444024GA3999+999999999GA4999+999999999GD12025+9999999GD24065+9999999GD30005+9999999GD40005+9999999GF108065999999999999999999MA1999999100515EQDN01 00000JPWTH 1QNNE11 1 00203E11 1 00607E11 1 00000E11 1 00000G11 1 00300H11 1 15032H11 1 37300H11 1 00999H11 1 00999K11 1 00051L11 1 01200M11 1 29680N11 1 00000Q11 1 10181S11 1 00064V11 1 01007X11 1 18013
030799999903813197201092100E+32700-083650SAO  +0108MCN  V0201805N005250097549N019200599+02005+01285101585ADDAA101000095GA1999+009754064GD14085+9999999GD20995+9999999GD30995+9999999GD40995+9999999GF108085999999999999999999MA1999999100275EQDN01 00000JPWTH 1QNNE11 1 00610E11 1 00099E11 1 00099E11 1 00099G11 1 00032H11 1 15032K11 1 00055L11 1 01200M11 1 29610N11 1 00000Q11 1 10158S11 1 00068V11 1 01010X11 1 18010
030799999903813197201100000E+32700-083650SAO  +0108MCN  V0201805N004150097549N019200599+01895+01335101495ADDAA101000095GA1999+009754064GD14085+9999999GD20995+9999999GD30995+9999999GD40995+9999999GF108085999999999999999999MA1999999100175EQDN01 00000JPWTH 1QNNE11 1 00610E11 1 00099E11 1 00099E11 1 00099G11 1 00032H11 1 15032K11 1 00056L11 1 01200M11 1 29580N11 1 00000Q11 1 10149S11 1 00066V11 1 01010X11 1 18008
030799999903813197201100300E+32700-083650SAO  +0108MCN  V0201905N007750061049N019200599+01895+01565101585ADDAA101000095GA1999+006104064GD14085+9999999GD20995+9999999GD30995+9999999GD40995+9999999GF108085999999999999999999MA1999999100275EQDN01 00000JPWTH 1QNNE11 1 00610E11 1 00099E11 1 00099E11 1 00099G11 1 00020H11 1 15020K11 1 00060L11 1 01200M11 1 29610N11 1 00000Q11 1 10158S11 1 00066V11 1 01010X11 1 19015
031999999903813197201100600E+32700-083650SAO  +0108MCN  V0203005N005750027449N002000599+01565+01445101655ADDAA101008995GA1999+002744104GD15085+9999999GD20995+9999999GD30995+9999999GD40995+9999999GF108085999999999999999999MA1999999100345MW1815MW2955EQDN01 01024JPWTH 1QNNE11 1 00710E11 1 00099E11 1 00099E11 1 00099G11 1 00009H11 1 98009K11 1 00058L11 1 00125M11 1 29630N11 1 01024Q11 1 10165S11 1 00060V11 1 01010X11 1 30011
034699999903813197201100900E+32700-083650SAO  +0108MCN  V0201805N002650091449N006400599+01445+01395101455ADDAA101000895GA1999+009144064GA2999+015244064GD13065+9999999GD24025+9999999GD30995+9999999GD40995+9999999GF108085999999999999999999MA1999999100175MW1445MW2615EQDN01 02072JPWTH 1QNNE11 1 00408E11 1 00602E11 1 00099E11 1 00099G11 1 00030H11 1 15030H11 1 15050K11 1 00057L11 1 00400M11 1 29580N11 1 02072Q11 1 10145S11 1 00058V11 1 01010X11 1 18005
031999999903813197201101200E+32700-083650SAO  +0108MCN  V0201305N003150039649N004800599+01445+01395101265ADDAA101000595GA1999+003964074GD14085+9999999GD20995+9999999GD30995+9999999GD40995+9999999GF108085999999999999999999MA1999999099975MW1455MW2615EQDN01 02070JPWTH 1QNNE11 1 00610E11 1 00099E11 1 00099E11 1 00099G11 1 00013H11 1 16013K11 1 00057L11 1 00300M11 1 29520N11 1 02070Q11 1 10126S11 1 00058V11 1 01010X11 1 13006
031399999903813197201101500E+32700-083650SAO  +0108MCN  V0202005N005250027449N008000599+01895+01785101405ADDAA101000095GA1999+002744074GD14085+9999999GD20995+9999999GD30995+9999999GD40995+9999999GF108085999999999999999999MA1999999100105MW1455EQDN01 07000JPWTH 1QNNE11 1 00610E11 1 00099E11 1 00099E11 1 00099G11 1 00009H11 1 16009K11 1 00064L11 1 00500M11 1 29560N11 1 07000Q11 1 10140S11 1 00066V11 1 01010X11 1 20010
038899999903813197201101800E+32700-083650SAO  +0108MCN  V0202105N006750304849N019200599+02285+01835101195ADDAA101000095GA1999+006714084GA2999+030484034GA3999+091444004GA4999+999999999GD12045+9999999GD23025+9999999GD34025+9999999GD40005+9999999GF108065999999999999999999MA1999999099905EQDN01 00000JPWTH 1QNNE11 1 00205E11 1 00402E11 1 00603E11 1 00000G11 1 00100H11 1 11022H11 1 23100H11 1 32300H11 1 00999K11 1 00065L11 1 01200M11 1 29500N11 1 00000Q11 1 10119S11 1 00073V11 1 01007X11 1 21013
036199999903813197201102100E+32700-083650SAO  +0108MCN  V0202105N006250304849N019200599+02335+01785101085ADDAA101000095GA1999+013724064GA2999+030484034GA3999+091444004GD12035+9999999GD23025+9999999GD34025+9999999GD40995+9999999GF108085999999999999999999MA1999999099805EQDN01 00000JPWTH 1QNNE11 1 00204E11 1 00403E11 1 00603E11 1 00099G11 1 00100H11 1 15045H11 1 23100H11 1 32300K11 1 00064L11 1 01200M11 1 29470N11 1 00000Q11 1 10108S11 1 00074V11 1 01010X11 1 21012
038899999903813197201110000E+32700-083650SAO  +0108MCN  V0202105N005250914449N019200599+02115+01675101255ADDAA101000095GA1999+015244064GA2999+091444024GA3999+999999999GA4999+999999999GD12025+9999999GD24065+9999999GD30005+9999999GD40005+9999999GF108065999999999999999999MA1999999099975EQDN01 00000JPWTH 1QNNE11 1 00203E11 1 00607E11 1 00000E11 1 00000G11 1 00300H11 1 15050H11 1 37300H11 1 00999H11 1 00999K11 1 00062L11 1 01200M11 1 29520N11 1 00000Q11 1 10125S11 1 00070V11 1 01007X11 1 21010
038899999903813197201110300E+32700-083650SAO  +0108MCN  V0201005N002652200059N019200599+01615+01505101465ADDAA101000095GA1999+091444024GA2999+999999999GA3999+999999999GA4999+999999999GD13065+9999993GD20005+9999999GD30005+9999999GD40005+9999999GF106025999999999999999999MA1999999100175EQDN01 00000JPWTH 1QNNE11 1 00308E11 1 00000E11 1 00000E11 1 00000G11U1 99999H11 1 37300H11 1 00999H11 1 00999H11 1 00999K11 1 00059L11 1 01200M11 1 29580N11 1 00000Q11 1 10146S11 1 00061V11 1 00803X11 1 10005
030799999903813197201110600E+32700-083650SAO  +0108MCN  V0201205N001550061049N011200599+01615+01565101395ADDAA101000095GA1999+006104064GD14085+9999999GD20995+9999999GD30995+9999999GD40995+9999999GF108085999999999999999999MA1999999100105EQDN01 00000JPWTH 1QNNE11 1 00610E11 1 00099E11 1 00099E11 1 00099G11 1 00020H11 1 15020K11 1 00060L11 1 00700M11 1 29560N11 1 00000Q11 1 10139S11 1 00061V11 1 01010X11 1 12003
031399999903813197201110900E+32700-083650SAO  +0108MCN  V02099959000050012249N006400599+01615+01565101375ADDAA101000095GA1999+001224074GD14085+9999999GD20995+9999999GD30995+9999999GD40995+9999999GF108085999999999999999999MA1999999100105MW1455EQDN01 07000JPWTH 1QNNE11 1 00610E11 1 00099E11 1 00099E11 1 00099G11 1 00004H11 1 16004K11 1 00060L11 1 00400M11 1 29560N11 1 07000Q11 1 10137S11 1 00061V11 1 01010X11 1 00000
035299999903813197201111200E+32700-083650SAO  +0108MCN  V0201305N003150045749N002400599+01565+01445101505ADDAA101002595GA1999+004574104GD15085+9999999GD20995+9999999GD30995+9999999GD40995+9999999GF108085999999999999999999MA1999999100205MW1455MW2815MW3955EQDN01 01024JPWTH 1N02 07000JPWTH 1QNNE11 1 00710E11 1 00099E11 1 00099E11 1 00099G11 1 00015H11 1 98015K11 1 00058L11 1 00150M11 1 29590N11 1 01024N11 1 07000Q11 1 10150S11 1 00060V11 1 01010X11 1 13006
033499999903813197201111500E+32700-083650SAO  +0108MCN  V0201505N004150115849N011200599+01565+01505101505ADDAA101000095GA1999+004274134GA2999+011584064GD12025+9999999GD24065+9999999GD30995+9999999GD40995+9999999GF108085999999999999999999MA1999999100205EQDN01 00000JPWTH 1QNNE11 1 00203E11 1 00607E11 1 00099E11 1 00099G11 1 00038H11 1 13014H11 1 15038K11 1 00059L11 1 00700M11 1 29590N11 1 00000Q11 1 10150S11 1 00060V11 1 01010X11 1 15008
033499999903813197201111800E+32700-083650SAO  +0108MCN  V0202305N005250030549N019200599+01895+01725101385ADDAA101000095GA1999+003054064GA2999+004574064GD13065+9999999GD24025+9999999GD30995+9999999GD40995+9999999GF108085999999999999999999MA1999999100105EQDN01 00000JPWTH 1QNNE11 1 00408E11 1 00602E11 1 00099E11 1 00099G11 1 00010H11 1 15010H11 1 15015K11 1 00063L11 1 01200M11 1 29560N11 1 00000Q11 1 10138S11 1 00066V11 1 01010X11 1 23010
033499999903813197201112100E+32700-083650SAO  +0108MCN  V0202705N003150304849N019200599+01895+01615101425ADDAA101000095GA1999+007624064GA2999+030484034GD12035+9999999GD24055+9999999GD30995+9999999GD40995+9999999GF108085999999999999999999MA1999999100145EQDN01 00000JPWTH 1QNNE11 1 00204E11 1 00606E11 1 00099E11 1 00099G11 1 00100H11 1 15025H11 1 23100K11 1 00061L11 1 01200M11 1 29570N11 1 00000Q11 1 10142S11 1 00066V11 1 01010X11 1 27006
033499999903813197201120000E+32700-083650SAO  +0108MCN  V0202805N002150304849N019200599+01565+01445101575ADDAA101000095GA1999+009144064GA2999+030484034GD12025+9999999GD24065+9999999GD30995+9999999GD40995+9999999GF108085999999999999999999MA1999999100275EQDN01 00000JPWTH 1QNNE11 1 00202E11 1 00608E11 1 00099E11 1 00099G11 1 00100H11 1 15030H11 1 23100K11 1 00058L11 1 01200M11 1 29610N11 1 00000Q11 1 10157S11 1 00060V11 1 01010X11 1 28004
038899999903813197201120300E+32700-083650SAO  +0108MCN  V02099959000050762049N016000599+01285+01225101785ADDAA101000095GA1999+012194064GA2999+076204024GA3999+999999999GA4999+999999999GD12025+9999999GD23055+9999999GD30005+9999999GD40005+9999999GF106065999999999999999999MA1999999100475EQDN01 00000JPWTH 1QNNE11 1 00202E11 1 00406E11 1 00000E11 1 00000G11 1 00250H11 1 15040H11 1 37250H11 1 00999H11 1 00999K11 1 00054L11 1 01000M11 1 29670N11 1 00000Q11 1 10178S11 1 00055V11 1 00808X11 1 00000
018299999903813197201120600E+32700-083650SAO  +0108MCN  V0203005N002152200059N008000599+01225+01225101685ADDAA101000095GF100005999999999999999999MA1999999100415MW1445EQDN01 07200JPWTH 1QNNG11U1 99999K11 1 00054L11 1 00500M11 1 29650N11 1 07200Q11 1 10168S11 1 00054V11 1 00000X11 1 30004
031399999903813197201120900E+32700-083650SAO  +0108MCN  V02099959000050000049N000000599+00945+00945101745ADDAA101000095GA1999+000004104GD15085+9999999GD20995+9999999GD30995+9999999GD40995+9999999GF108085999999999999999999MA1999999100445MW1455EQDN01 07000JPWTH 1QNNE11 1 00710E11 1 00099E11 1 00099E11 1 00099G11 1 00000H11 1 45000K11 1 00049L11 1 00000M11 1 29660N11 1 07000Q11 1 10174S11 1 00049V11 1 01010X11 1 00000
039499999903813197201121200E+32700-083650SAO  +0108MCN  V02099959000052200059N000200599+00835+00835101775ADDAA101000095GA1999+999999104GA2999+999999999GA3999+999999999GA4999+999999999GD16075+9999999GD20005+9999999GD30005+9999999GD40005+9999999GF107075999999999999999999MA1999999100475MW1455EQDN01 07000JPWTH 1QNNE11 1 00809E11 1 00000E11 1 00000E11 1 00000G11U1 99999H11 1 45999H11 1 00999H11 1 00999H11 1 00999K11 1 00047L11 1 00012M11 1 29670N11 1 07000Q11 1 10177S11 1 00047V11 1 00909X11 1 00000
031399999903813197201121500E+32700-083650SAO  +0108MCN  V02099959000050006149N001300599+01005+01005101935ADDAA101000095GA1999+000614074GD14085+9999999GD20995+9999999GD30995+9999999GD40995+9999999GF108085999999999999999999MA1999999100645MW1455EQDN01 07000JPWTH 1QNNE11 1 00610E11 1 00099E11 1 00099E11 1 00099G11 1 00002H11 1 16002K11 1 00050L11 1 00081M11 1 29720N11 1 07000Q11 1 10193S11 1 00050V11 1 01010X11 1 00000
038899999903813197201121800E+32700-083650SAO  +0108MCN  V02099959000050054949N012800599+01895+01505101765ADDAA101000095GA1999+005494064GA2999+999999999GA3999+999999999GA4999+999999999GD13065+9999999GD20005+9999999GD30005+9999999GD40005+9999999GF106065999999999999999999MA1999999100475EQDN01 00000JPWTH 1QNNE11 1 00408E11 1 00000E11 1 00000E11 1 00000G11 1 00018H11 1 15018H11 1 00999H11 1 00999H11 1 00999K11 1 00059L11 1 00800M11 1 29670N11 1 00000Q11 1 10176S11 1 00066V11 1 00808X11 1 00000
038899999903813197201122100E+32700-083650SAO  +0108MCN  V0201805N004650076249N016000599+02065+01675101575ADDAA101000095GA1999+007624064GA2999+999999999GA3999+999999999GA4999+999999999GD13065+9999999GD20005+9999999GD30005+9999999GD40005+9999999GF106065999999999999999999MA1999999100275EQDN01 00000JPWTH 1QNNE11 1 00407E11 1 00000E11 1 00000E11 1 00000G11 1 00025H11 1 15025H11 1 00999H11 1 00999H11 1 00999K11 1 00062L11 1 01000M11 1 29610N11 1 00000Q11 1 10157S11 1 00069V11 1 00707X11 1 18009
038899999903813197201130000E+32700-083650SAO  +0108MCN  V0201505N003150152449N016000599+01785+01615101515ADDAA101000095GA1999+015244064GA2999+091444024GA3999+999999999GA4999+999999999GD13055+9999999GD23025+9999999GD30005+9999999GD40005+9999999GF106055999999999999999999MA1999999100205EQDN01 00000JPWTH 1QNNE11 1 00406E11 1 00402E11 1 00000E11 1 00000G11 1 00050H11 1 15050H11 1 37300H11 1 00999H11 1 00999K11 1 00061L11 1 01000M11 1 29590N11 1 00000Q11 1 10151S11 1 00064V11 1 00806X11 1 15006
038899999903813197201130300E+32700-083650SAO  +0108MCN  V0201505N004150213449N011200599+01785+01675101515ADDAA101000095GA1999+006104064GA2999+021344034GA3999+999999999GA4999+999999999GD12015+9999999GD23065+9999999GD30005+9999999GD40005+9999999GF107075999999999999999999MA1999999100205EQDN01 00000JPWTH 1QNNE11 1 00201E11 1 00408E11 1 00000E11 1 00000G11 1 00070H11 1 15020H11 1 23070H11 1 00999H11 1 00999K11 1 00062L11 1 00700M11 1 29590N11 1 00000Q11 1 10151S11 1 00064V11 1 00909X11 1 15008
031399999903813197201130600E+32700-083650SAO  +0108MCN  V0201705N002650024449N008000599+01835+01725101435ADDAA101000095GA1999+002444074GD14085+9999999GD20995+9999999GD30995+9999999GD40995+9999999GF108085999999999999999999MA1999999100145MW1455EQDN01 07000JPWTH 1QNNE11 1 00610E11 1 00099E11 1 00099E11 1 00099G11 1 00008H11 1 16008K11 1 00063L11 1 00500M11 1 29570N11 1 07000Q11 1 10143S11 1 00065V11 1 01010X11 1 17005
031999999903813197201130900E+32700-083650SAO  +0108MCN  V0201905N005250027449N006400599+01895+01835101265ADDAA101002895GA1999+002744094GD14085+9999999GD20995+9999999GD30995+9999999GD40995+9999999GF108085999999999999999999MA1999999100005MW1455MW2805EQDN01 02370JPWTH 1QNNE11 1 00610E11 1 00099E11 1 00099E11 1 00099G11 1 00009H11 1 18009K11 1 00065L11 1 00400M11 1 29530N11 1 02370Q11 1 10126S11 1 00066V11 1 01010X11 1 19010
031399999903813197201131200E+32700-083650SAO  +0108MCN  V0202005N004650167649N011200599+01835+01725101255ADDAA101001395GA1999+016764054GD14085+9999999GD20995+9999999GD30995+9999999GD40995+9999999GF108085999999999999999999MA1999999099975MW1615EQDN01 02000JPWTH 1QNNE11 1 00610E11 1 00099E11 1 00099E11 1 00099G11 1 00055H11 1 22055K11 1 00063L11 1 00700M11 1 29520N11 1 02000Q11 1 10125S11 1 00065V11 1 01010X11 1 20009
034099999903813197201131500E+32700-083650SAO  +0108MCN  V0201805N005250033549N019200599+01945+01835101345ADDAA101000095GA1999+003354064GA2999+030484054GD13065+9999999GD24025+9999999GD30995+9999999GD40995+9999999GF108085999999999999999999MA1999999100075MW1615EQDN01 02000JPWTH 1QNNE11 1 00407E11 1 00603E11 1 00099E11 1 00099G11 1 00011H11 1 15011H11 1 22100K11 1 00065L11 1 01200M11 1 29550N11 1 02000Q11 1 10134S11 1 00067V11 1 01010X11 1 18010
034099999903813197201131800E+32700-083650SAO  +0108MCN  V0201905N005250091449N004800599+02065+01945101085ADDAA101000395GA1999+009144064GA2999+015244094GD13065+9999999GD24025+9999999GD30995+9999999GD40995+9999999GF108085999999999999999999MA1999999099805MW1635EQDN01 02100JPWTH 1QNNE11 1 00408E11 1 00602E11 1 00099E11 1 00099G11 1 00030H11 1 15030H11 1 18050K11 1 00067L11 1 00300M11 1 29470N11 1 02100Q11 1 10108S11 1 00069V11 1 01010X11 1 19010
034699999903813197201132100E+32700-083650SAO  +0108MCN  V0201405N003650009149N004800599+01725+01675101025ADDAA101003095GA1999+000914134GA2999+006104094GD13065+9999999GD24025+9999999GD30995+9999999GD40995+9999999GF108085999999999999999999MA1999999099735MW1615MW2955EQDN01 01020JPWTH 1QNNE11 1 00408E11 1 00602E11 1 00099E11 1 00099G11 1 00003H11 1 13003H11 1 18020K11 1 00062L11 1 00300M11 1 29450N11 1 01020Q11 1 10102S11 1 00063V11 1 01010X11 1 14007
034699999903813197201140000E+32700-083650SAO  +0108MCN  V02099959000050012249N002400599+01785+01675101025ADDAA101007495GA1999+001224134GA2999+013724094GD13055+9999999GD24035+9999999GD30995+9999999GD40995+9999999GF108085999999999999999999MA1999999099735MW1815MW2955EQDN01 01025JPWTH 1QNNE11 1 00406E11 1 00604E11 1 00099E11 1 00099G11 1 00004H11 1 13004H11 1 18045K11 1 00062L11 1 00150M11 1 29450N11 1 01025Q11 1 10102S11 1 00064V11 1 01010X11 1 00000
033499999903813197201140300E+32700-083650SAO  +0108MCN  V0201905N004150121949N012800599+01895+01785101085ADDAA101000395GA1999+002444134GA2999+012194064GD12025+9999999GD24065+9999999GD30995+9999999GD40995+9999999GF108085999999999999999999MA1999999099805EQDN01 00000JPWTH 1QNNE11 1 00202E11 1 00608E11 1 00099E11 1 00099G11 1 00040H11 1 13008H11 1 15040K11 1 00064L11 1 00800M11 1 29470N11 1 00000Q11 1 10108S11 1 00066V11 1 01010X11 1 19008
038899999903813197201140600E+32700-083650SAO  +0108MCN  V0202105N005252200059N011200599+02065+01895101085ADDAA101000095GA1999+006104074GA2999+999999999GA3999+999999999GA4999+999999999GD12035+9999999GD20005+9999999GD30005+9999999GD40005+9999999GF103035999999999999999999MA1999999099805EQDN01 00000JPWTH 1QNNE11 1 00204E11 1 00000E11 1 00000E11 1 00000G11U1 99999H11 1 16020H11 1 00999H11 1 00999H11 1 00999K11 1 00066L11 1 00700M11 1 29470N11 1 00000Q11 1 10108S11 1 00069V11 1 00404X11 1 21010
030799999903813197201140900E+32700-083650SAO  +0108MCN  V0202305N002150051849N016000599+01895+01785101245ADDAA101000095GA1999+005184074GD14085+9999999GD20995+9999999GD30995+9999999GD40995+9999999GF108085999999999999999999MA1999999099975EQDN01 00000JPWTH 1QNNE11 1 00610E11 1 00099E11 1 00099E11 1 00099G11 1 00017H11 1 16017K11 1 00064L11 1 01000M11 1 29520N11 1 00000Q11 1 10124S11 1 00066V11 1 01010X11 1 23004
030799999903813197201141200E+32700-083650SAO  +0108MCN  V02099959000050457249N016000599+01395+01175101615ADDAA101000095GA1999+045724034GD14085+9999999GD20995+9999999GD30995+9999999GD40995+9999999GF108085999999999999999999MA1999999100305EQDN01 00000JPWTH 1QNNE11 1 00610E11 1 00099E11 1 00099E11 1 00099G11 1 00150H11 1 23150K11 1 00053L11 1 01000M11 1 29620N11 1 00000Q11 1 10161S11 1 00057V11 1 01010X11 1 00000
030799999903813197201141500E+32700-083650SAO  +0108MCN  V0203105N006250457249N019200599+01175+00945101895ADDAA101000095GA1999+045724034GD14085+9999999GD20995+9999999GD30995+9999999GD40995+9999999GF108085999999999999999999MA1999999100585EQDN01 00000JPWTH 1QNNE11 1 00610E11 1 00099E11 1 00099E11 1 00099G11 1 00150H11 1 23150K11 1 00049L11 1 01200M11 1 29700N11 1 00000Q11 1 10189S11 1 00053V11 1 01010X11 1 31012
030799999903813197201141800E+32700-083650SAO  +0108MCN  V0203005N005250457249N019200599+01005+00675101965ADDAA101000095GA1999+045724034GD14085+9999999GD20995+9999999GD30995+9999999GD40995+9999999GF108085999999999999999999MA1999999100645EQDN01 00000JPWTH 1QNNE11 1 00610E11 1 00099E11 1 00099E11 1 00099G11 1 00150H11 1 23150K11 1 00044L11 1 01200M11 1 29720N11 1 00000Q11 1 10196S11 1 00050V11 1 01010X11 1 30010
030799999903813197201142100E+32700-083650SAO  +0108MCN  V0203305N004150457249N019200599+01115+00225101985ADDAA101000095GA1999+045724034GD14085+9999999GD20995+9999999GD30995+9999999GD40995+9999999GF108085999999999999999999MA1999999100685EQDN01 00000JPWTH 1QNNE11 1 00610E11 1 00099E11 1 00099E11 1 00099G11 1 00150H11 1 23150K11 1 00036L11 1 01200M11 1 29730N11 1 00000Q11 1 10198S11 1 00052V11 1 01010X11 1 33008
030799999903813197201150000E+32700-083650SAO  +0108MCN  V0203405N004150457249N019200599+00835+00115102175ADDAA101000095GA1999+045724034GD14085+9999999GD20995+9999999GD30995+9999999GD40995+9999999GF108085999999999999999999MA1999999100855EQDN01 00000JPWTH 1QNNE11 1 00610E11 1 00099E11 1 00099E11 1 00099G11 1 00150H11 1 23150K11 1 00034L11 1 01200M11 1 29780N11 1 00000Q11 1 10217S11 1 00047V11 1 01010X11 1 34008
030799999903813197201150300E+32700-083650SAO  +0108MCN  V0203305N005250457249N019200599+00675-00065102305ADDAA101000095GA1999+045724034GD14085+9999999GD20995+9999999GD30995+9999999GD40995+9999999GF108085999999999999999999MA1999999100985EQDN01 00000JPWTH 1QNNE11 1 00610E11 1 00099E11 1 00099E11 1 00099G11 1 00150H11 1 23150K11 1 00031L11 1 01200M11 1 29820N11 1 00000Q11 1 10230S11 1 00044V11 1 01010X11 1 33010
030799999903813197201150600E+32700-083650SAO  +0108MCN  V0203505N006250097549N019200599+00565-00065102385ADDAA101000095GA1999+009754064GD14085+9999999GD20995+9999999GD30995+9999999GD40995+9999999GF108085999999999999999999MA1999999101055EQDN01 00000JPWTH 1QNNE11 1 00610E11 1 00099E11 1 00099E11 1 00099G11 1 00032H11 1 15032K11 1 00031L11 1 01200M11 1 29840N11 1 00000Q11 1 10238S11 1 00042V11 1 01010X11 1 35012
030799999903813197201150900E+32700-083650SAO  +0108MCN  V0203505N004650097549N019200599+00565+00065102385ADDAA101000095GA1999+009754064GD14085+9999999GD20995+9999999GD30995+9999999GD40995+9999999GF108085999999999999999999MA1999999101055EQDN01 00000JPWTH 1QNNE11 1 00610E11 1 00099E11 1 00099E11 1 00099G11 1 00032H11 1 15032K11 1 00033L11 1 01200M11 1 29840N11 1 00000Q11 1 10238S11 1 00042V11 1 01010X11 1 35009
030799999903813197201151200E+32700-083650SAO  +0108MCN  V0200105N006250097549N019200599+00565-00115102635ADDAA101000095GA1999+009754064GD14085+9999999GD20995+9999999GD30995+9999999GD40995+9999999GF108085999999999999999999MA1999999101325EQDN01 00000JPWTH 1QNNE11 1 00610E11 1 00099E11 1 00099E11 1 00099G11 1 00032H11 1 15032K11 1 00030L11 1 01200M11 1 29920N11 1 00000Q11 1 10263S11 1 00042V11 1 01010X11 1 01012
038899999903813197201151500E+32700-083650SAO  +0108MCN  V0203105N007250365849N019200599+00565-00285102995ADDAA101000095GA1999+036584034GA2999+091444004GA3999+999999999GA4999+999999999GD13055+9999999GD23015+9999999GD30005+9999999GD40005+9999999GF106055999999999999999999MA1999999101665EQDN01 00000JPWTH 1QNNE11 1 00406E11 1 00401E11 1 00000E11 1 00000G11 1 00120H11 1 23120H11 1 32300H11 1 00999H11 1 00999K11 1 00027L11 1 01200M11 1 30020N11 1 00000Q11 1 10299S11 1 00042V11 1 00706X11 1 31014
038899999903813197201151800E+32700-083650SAO  +0108MCN  V0203405N007750914449N019200599+00835-00285102875ADDAA101000095GA1999+091444004GA2999+999999999GA3999+999999999GA4999+999999999GD13055+9999999GD20005+9999999GD30005+9999999GD40005+9999999GF105035999999999999999999MA1999999101565EQDN01 00000JPWTH 1QNNE11 1 00406E11 1 00000E11 1 00000E11 1 00000G11 1 00300H11 1 32300H11 1 00999H11 1 00999H11 1 00999K11 1 00027L11 1 01200M11 1 29990N11 1 00000Q11 1 10287S11 1 00047V11 1 00604X11 1 34015
038899999903813197201152100E+32700-083650SAO  +0108MCN  V0203305N006250914449N019200599+00615-00725102885ADDAA101000095GA1999+091444024GA2999+999999999GA3999+999999999GA4999+999999999GD14085+9999999GD20005+9999999GD30005+9999999GD40005+9999999GF108065999999999999999999MA1999999101595EQDN01 00000JPWTH 1QNNE11 1 00610E11 1 00000E11 1 00000E11 1 00000G11 1 00300H11 1 37300H11 1 00999H11 1 00999H11 1 00999K11 1 00019L11 1 01200M11 1 30000N11 1 00000Q11 1 10288S11 1 00043V11 1 01007X11 1 33012
038899999903813197201160000E+32700-083650SAO  +0108MCN  V0203205N007250762049N019200599+00175-01285103225ADDAA101000095GA1999+076204024GA2999+999999999GA3999+999999999GA4999+999999999GD13075+9999999GD20005+9999999GD30005+9999999GD40005+9999999GF107065999999999999999999MA1999999101865EQDN01 00000JPWTH 1QNNE11 1 00409E11 1 00000E11 1 00000E11 1 00000G11 1 00250H11 1 37250H11 1 00999H11 1 00999H11 1 00999K11 1 00009L11 1 01200M11 1 30080N11 1 00000Q11 1 10322S11 1 00035V11 1 00908X11 1 32014
038899999903813197201160300E+32700-083650SAO  +0108MCN  V0203405N006252200059N019200599-00225-01675103365ADDAA101000095GA1999+076204024GA2999+999999999GA3999+999999999GA4999+999999999GD11025+9999993GD20005+9999999GD30005+9999999GD40005+9999999GF102015999999999999999999MA1999999102005EQDN01 00000JPWTH 1QNNE11 1 00103E11 1 00000E11 1 00000E11 1 00000G11U1 99999H11 1 37250H11 1 00999H11 1 00999H11 1 00999K11 1 00002L11 1 01200M11 1 30120N11 1 00000Q11 1 10336S11 1 00028V11 1 00301X11 1 34012
017699999903813197201160600E+32700-083650SAO  +0108MCN  V0203105N005752200059N019200599-00565-01785103505ADDAA101000095GF100005999999999999999999MA1999999102135EQDN01 00000JPWTH 1QNNG11U1 99999K11 1 00000L11 1 01200M11 1 30160N11 1 00000Q11 1 10350S11 1 00022V11 1 00000X11 1 31011
017699999903813197201160900E+32700-083650SAO  +0108MCN  V0203505N004152200059N019200599-00835-01835103605ADDAA101000095GF100005999999999999999999MA1999999102245EQDN01 00000JPWTH 1QNNG11U1 99999K11 1-00001L11 1 01200M11 1 30190N11 1 00000Q11 1 10360S11 1 00017V11 1 00000X11 1 35008
017699999903813197201161200E+32700-083650SAO  +0108MCN  V0203605N004652200059N019200599-00945-01945103855ADDAA101000095GF100005999999999999999999MA1999999102475EQDN01 00000JPWTH 1QNNG11U1 99999K11 1-00003L11 1 01200M11 1 30260N11 1 00000Q11 1 10385S11 1 00015V11 1 00000X11 1 36009
017699999903813197201161500E+32700-083650SAO  +0108MCN  V0200105N004652200059N019200599-00675-01835104025ADDAA101000095GF100005999999999999999999MA1999999102645EQDN01 00000JPWTH 1QNNG11U1 99999K11 1-00001L11 1 01200M11 1 30310N11 1 00000Q11 1 10402S11 1 00020V11 1 00000X11 1 01009
017699999903813197201161800E+32700-083650SAO  +0108MCN  V0200305N004152200059N019200599+00005-01835103865ADDAA101000095GF100005999999999999999999MA1999999102515EQDN01 00000JPWTH 1QNNG11U1 99999K11 1-00001L11 1 01200M11 1 30270N11 1 00000Q11 1 10386S11 1 00032V11 1 00000X11 1 03008
017699999903813197201162100E+32700-083650SAO  +0108MCN  V0200505N004652200059N019200599+00225-01945103755ADDAA101000095GF100005999999999999999999MA1999999102375EQDN01 00000JPWTH 1QNNG11U1 99999K11 1-00003L11 1 01200M11 1 30230N11 1 00000Q11 1 10375S11 1 00036V11 1 00000X11 1 05009
017699999903813197201170000E+32700-083650SAO  +0108MCN  V0200805N004152200059N019200599-00175-01565103785ADDAA101000095GF100005999999999999999999MA1999999102405EQDN01 00000JPWTH 1QNNG11U1 99999K11 1 00004L11 1 01200M11 1 30240N11 1 00000Q11 1 10378S11 1 00029V11 1 00000X11 1 08008
017699999903813197201170300E+32700-083650SAO  +0108MCN  V0200705N003652200059N019200599-00285-01505103835ADDAA101000095GF100005999999999999999999MA1999999102445EQDN01 00000JPWTH 1QNNG11U1 99999K11 1 00005L11 1 01200M11 1 30250N11 1 00000Q11 1 10383S11 1 00027V11 1 00000X11 1 07007
017699999903813197201170600E+32700-083650SAO  +0108MCN  V0200905N005252200059N019200599-00335-01565103755ADDAA101000095GF100005999999999999999999MA1999999102375EQDN01 00000JPWTH 1QNNG11U1 99999K11 1 00004L11 1 01200M11 1 30230N11 1 00000Q11 1 10375S11 1 00026V11 1 00000X11 1 09010
017699999903813197201170900E+32700-083650SAO  +0108MCN  V0200905N003152200059N019200599-00505-01395103695ADDAA101000095GF100005999999999999999999MA1999999102305EQDN01 00000JPWTH 1QNNG11U1 99999K11 1 00007L11 1 01200M11 1 30210N11 1 00000Q11 1 10369S11 1 00023V11 1 00000X11 1 09006
017699999903813197201171200E+32700-083650SAO  +0108MCN  V0201105N004152200059N019200599-00615-01335103725ADDAA101000095GF100005999999999999999999MA1999999102345EQDN01 00000JPWTH 1QNNG11U1 99999K11 1 00008L11 1 01200M11 1 30220N11 1 00000Q11 1 10372S11 1 00021V11 1 00000X11 1 11008
017699999903813197201171500E+32700-083650SAO  +0108MCN  V0200705N003652200059N019200599-00225-01395103835ADDAA101000095GF100005999999999999999999MA1999999102445EQDN01 00000JPWTH 1QNNG11U1 99999K11 1 00007L11 1 01200M11 1 30250N11 1 00000Q11 1 10383S11 1 00028V11 1 00000X11 1 07007
017699999903813197201171800E+32700-083650SAO  +0108MCN  V02099959000052200059N019200599+00395-01615103525ADDAA101000095GF100005999999999999999999MA1999999102175EQDN01 00000JPWTH 1QNNG11U1 99999K11 1 00003L11 1 01200M11 1 30170N11 1 00000Q11 1 10352S11 1 00039V11 1 00000X11 1 00000
017699999903813197201172100E+32700-083650SAO  +0108MCN  V0203405N002652200059N019200599+00725-01615103265ADDAA101000095GF100005999999999999999999MA1999999101935EQDN01 00000JPWTH 1QNNG11U1 99999K11 1 00003L11 1 01200M11 1 30100N11 1 00000Q11 1 10326S11 1 00045V11 1 00000X11 1 34005
017699999903813197201180000E+32700-083650SAO  +0108MCN  V02099959000052200059N019200599+00395-01115103205ADDAA101000095GF100005999999999999999999MA1999999101865EQDN01 00000JPWTH 1QNNG11U1 99999K11 1 00012L11 1 01200M11 1 30080N11 1 00000Q11 1 10320S11 1 00039V11 1 00000X11 1 00000
017699999903813197201180300E+32700-083650SAO  +0108MCN  V02099959000052200059N019200599-00115-00725103175ADDAA101000095GF100005999999999999999999MA1999999101835EQDN01 00000JPWTH 1QNNG11U1 99999K11 1 00019L11 1 01200M11 1 30070N11 1 00000Q11 1 10317S11 1 00030V11 1 00000X11 1 00000
017699999903813197201180600E+32700-083650SAO  +0108MCN  V02099959000052200059N019200599-00285-00615103095ADDAA101000095GF100005999999999999999999MA1999999101735EQDN01 00000JPWTH 1QNNG11U1 99999K11 1 00021L11 1 01200M11 1 30040N11 1 00000Q11 1 10309S11 1 00027V11 1 00000X11 1 00000
017699999903813197201180900E+32700-083650SAO  +0108MCN  V02099959000052200059N019200599-00445-00615103025ADDAA101000095GF100005999999999999999999MA1999999101665EQDN01 00000JPWTH 1QNNG11U1 99999K11 1 00021L11 1 01200M11 1 30020N11 1 00000Q11 1 10302S11 1 00024V11 1 00000X11 1 00000
017699999903813197201181200E+32700-083650SAO  +0108MCN  V02099959000052200059N016000599-00445-00565103035ADDAA101000095GF100005999999999999999999MA1999999101665EQDN01 00000JPWTH 1QNNG11U1 99999K11 1 00022L11 1 01000M11 1 30020N11 1 00000Q11 1 10303S11 1 00024V11 1 00000X11 1 00000
038899999903813197201181500E+32700-083650SAO  +0108MCN  V02099959000052200059N011200599+00395-00175103135ADDAA101000095GA1999+091444004GA2999+999999999GA3999+999999999GA4999+999999999GD13075+9999993GD20005+9999999GD30005+9999999GD40005+9999999GF107025999999999999999999MA1999999101765EQDN01 00000JPWTH 1QNNE11 1 00309E11 1 00000E11 1 00000E11 1 00000G11U1 99999H11 1 32300H11 1 00999H11 1 00999H11 1 00999K11 1 00029L11 1 00700M11 1 30050N11 1 00000Q11 1 10313S11 1 00039V11 1 00902X11 1 00000
038899999903813197201181800E+32700-083650SAO  +0108MCN  V0201605N003652200059N019200599+01225+00065102865ADDAA101000095GA1999+091444004GA2999+999999999GA3999+999999999GA4999+999999999GD13065+9999993GD20005+9999999GD30005+9999999GD40005+9999999GF106025999999999999999999MA1999999101525EQDN01 00000JPWTH 1QNNE11 1 00308E11 1 00000E11 1 00000E11 1 00000G11U1 99999H11 1 32300H11 1 00999H11 1 00999H11 1 00999K11 1 00033L11 1 01200M11 1 29980N11 1 00000Q11 1 10286S11 1 00054V11 1 00802X11 1 16007
038899999903813197201182100E+32700-083650SAO  +0108MCN  V0201705N004152200059N019200599+01615+00675102565ADDAA101000095GA1999+091444004GA2999+999999999GA3999+999999999GA4999+999999999GD11035+9999993GD20005+9999999GD30005+9999999GD40005+9999999GF103015999999999999999999MA1999999101255EQDN01 00000JPWTH 1QNNE11 1 00104E11 1 00000E11 1 00000E11 1 00000G11U1 99999H11 1 32300H11 1 00999H11 1 00999H11 1 00999K11 1 00044L11 1 01200M11 1 29900N11 1 00000Q11 1 10256S11 1 00061V11 1 00401X11 1 17008
038899999903813197201190000E+32700-083650SAO  +0108MCN  V0201305N002152200059N019200599+01065+00675102585ADDAA101000095GA1999+091444004GA2999+999999999GA3999+999999999GA4999+999999999GD11025+9999993GD20005+9999999GD30005+9999999GD40005+9999999GF102015999999999999999999MA1999999101255EQDN01 00000JPWTH 1QNNE11 1 00103E11 1 00000E11 1 00000E11 1 00000G11U1 99999H11 1 32300H11 1 00999H11 1 00999H11 1 00999K11 1 00044L11 1 01200M11 1 29900N11 1 00000Q11 1 10258S11 1 00051V11 1 00301X11 1 13004
017699999903813197201190300E+32700-083650SAO  +0108MCN  V02099959000052200059N019200599+00675+00505102655ADDAA101000095GF100005999999999999999999MA1999999101325EQDN01 00000JPWTH 1QNNG11U1 99999K11 1 00041L11 1 01200M11 1 29920N11 1 00000Q11 1 10265S11 1 00044V11 1 00000X11 1 00000
038899999903813197201190600E+32700-083650SAO  +0108MCN  V02099959000050304849N019200599+00565+00445102595ADDAA101000095GA1999+030484034GA2999+999999999GA3999+999999999GA4999+999999999GD13055+9999999GD20005+9999999GD30005+9999999GD40005+9999999GF105055999999999999999999MA1999999101255EQDN01 00000JPWTH 1QNNE11 1 00406E11 1 00000E11 1 00000E11 1 00000G11 1 00100H11 1 23100H11 1 00999H11 1 00999H11 1 00999K11 1 00040L11 1 01200M11 1 29900N11 1 00000Q11 1 10259S11 1 00042V11 1 00606X11 1 00000
017699999903813197201190900E+32700-083650SAO  +0108MCN  V02099959000052200059N012800599+00395+00285102625ADDAA101000095GF100005999999999999999999MA1999999101295EQDN01 00000JPWTH 1QNNG11U1 99999K11 1 00037L11 1 00800M11 1 29910N11 1 00000Q11 1 10262S11 1 00039V11 1 00000X11 1 00000
038899999903813197201191200E+32700-083650SAO  +0108MCN  V02099959000050365849N016000599+00505+00445102625ADDAA101000095GA1999+012194064GA2999+036584034GA3999+999999999GA4999+999999999GD12025+9999999GD23055+9999999GD30005+9999999GD40005+9999999GF106065999999999999999999MA1999999101295EQDN01 00000JPWTH 1QNNE11 1 00202E11 1 00406E11 1 00000E11 1 00000G11 1 00120H11 1 15040H11 1 23120H11 1 00999H11 1 00999K11 1 00040L11 1 01000M11 1 29910N11 1 00000Q11 1 10262S11 1 00041V11 1 00808X11 1 00000
031399999903813197201191500E+32700-083650SAO  +0108MCN  V0201105N002650137249N009600599+00945+00725102705ADDAA101000095GA1999+013724064GD14085+9999999GD20995+9999999GD30995+9999999GD40995+9999999GF108085999999999999999999MA1999999101395MW1045EQDN01 08000JPWTH 1QNNE11 1 00610E11 1 00099E11 1 00099E11 1 00099G11 1 00045H11 1 15045K11 1 00045L11 1 00600M11 1 29940N11 1 08000Q11 1 10270S11 1 00049V11 1 01010X11 1 11005
030799999903813197201191800E+32700-083650SAO  +0108MCN  V02099959000050137249N016000599+01725+01115102585ADDAA101000095GA1999+013724064GD14085+9999999GD20995+9999999GD30995+9999999GD40995+9999999GF108085999999999999999999MA1999999101255EQDN01 00000JPWTH 1QNNE11 1 00610E11 1 00099E11 1 00099E11 1 00099G11 1 00045H11 1 15045K11 1 00052L11 1 01000M11 1 29900N11 1 00000Q11 1 10258S11 1 00063V11 1 01010X11 1 00000
038899999903813197201192100E+32700-083650SAO  +0108MCN  V0201805N002652200059N019200599+02065+01115102395ADDAA101000095GA1999+036584034GA2999+999999999GA3999+999999999GA4999+999999999GD12015+9999999GD20005+9999999GD30005+9999999GD40005+9999999GF101015999999999999999999MA1999999101085EQDN01 00000JPWTH 1QNNE11 1 00201E11 1 00000E11 1 00000E11 1 00000G11U1 99999H11 1 23120H11 1 00999H11 1 00999H11 1 00999K11 1 00052L11 1 01200M11 1 29850N11 1 00000Q11 1 10239S11 1 00069V11 1 00101X11 1 18005
038899999903813197201200000E+32700-083650SAO  +0108MCN  V0201805N001552200059N019200599+01445+01065102435ADDAA101000095GA1999+036584034GA2999+999999999GA3999+999999999GA4999+999999999GD12035+9999999GD20005+9999999GD30005+9999999GD40005+9999999GF103035999999999999999999MA1999999101125EQDN01 00000JPWTH 1QNNE11 1 00204E11 1 00000E11 1 00000E11 1 00000G11U1 99999H11 1 23120H11 1 00999H11 1 00999H11 1 00999K11 1 00051L11 1 01200M11 1 29860N11 1 00000Q11 1 10243S11 1 00058V11 1 00404X11 1 18003
038899999903813197201200300E+32700-083650SAO  +0108MCN  V02099959000052200059N016000599+01115+01005102505ADDAA101000095GA1999+036584034GA2999+999999999GA3999+999999999GA4999+999999999GD12025+9999999GD20005+9999999GD30005+9999999GD40005+9999999GF102025999999999999999999MA1999999101195EQDN01 00000JPWTH 1QNNE11 1 00203E11 1 00000E11 1 00000E11 1 00000G11U1 99999H11 1 23120H11 1 00999H11 1 00999H11 1 00999K11 1 00050L11 1 01000M11 1 29880N11 1 00000Q11 1 10250S11 1 00052V11 1 00303X11 1 00000
017699999903813197201200600E+32700-083650SAO  +0108MCN  V02099959000052200059N019200599+00785+00725102455ADDAA101000095GF100005999999999999999999MA1999999101125EQDN01 00000JPWTH 1QNNG11U1 99999K11 1 00045L11 1 01200M11 1 29860N11 1 00000Q11 1 10245S11 1 00046V11 1 00000X11 1 00000
017699999903813197201200900E+32700-083650SAO  +0108MCN  V02099959000052200059N012800599+00615+00565102445ADDAA101000095GF100005999999999999999999MA1999999101125EQDN01 00000JPWTH 1QNNG11U1 99999K11 1 00042L11 1 00800M11 1 29860N11 1 00000Q11 1 10244S11 1 00043V11 1 00000X11 1 00000
038899999903813197201201200E+32700-083650SAO  +0108MCN  V02099959000052200059N011200599+00675+00565102415ADDAA101000095GA1999+076204024GA2999+999999999GA3999+999999999GA4999+999999999GD13055+9999993GD20005+9999999GD30005+9999999GD40005+9999999GF105025999999999999999999MA1999999101085EQDN01 00000JPWTH 1QNNE11 1 00306E11 1 00000E11 1 00000E11 1 00000G11U1 99999H11 1 37250H11 1 00999H11 1 00999H11 1 00999K11 1 00042L11 1 00700M11 1 29850N11 1 00000Q11 1 10241S11 1 00044V11 1 00602X11 1 00000
034099999903813197201201500E+32700-083650SAO  +0108MCN  V02099959000050243849N006400599+01005+00945102465ADDAA101000095GA1999+024384034GA2999+045724034GD13065+9999999GD24025+9999999GD30995+9999999GD40995+9999999GF108085999999999999999999MA1999999101155MW1045EQDN01 08000JPWTH 1QNNE11 1 00407E11 1 00603E11 1 00099E11 1 00099G11 1 00080H11 1 23080H11 1 23150K11 1 00049L11 1 00400M11 1 29870N11 1 08000Q11 1 10246S11 1 00050V11 1 01010X11 1 00000
034099999903813197201201800E+32700-083650SAO  +0108MCN  V0201605N003150243849N008000599+01675+01225102295ADDAA101000095GA1999+024384034GA2999+045724034GD13065+9999999GD24025+9999999GD30995+9999999GD40995+9999999GF108085999999999999999999MA1999999100955MW1045EQDN01 08000JPWTH 1QNNE11 1 00407E11 1 00603E11 1 00099E11 1 00099G11 1 00080H11 1 23080H11 1 23150K11 1 00054L11 1 00500M11 1 29810N11 1 08000Q11 1 10229S11 1 00062V11 1 01010X11 1 16006
031399999903813197201202100E+32700-083650SAO  +0108MCN  V0201905N002150167649N008000599+01725+01335102065ADDAA101000095GA1999+016764064GD14085+9999999GD20995+9999999GD30995+9999999GD40995+9999999GF108085999999999999999999MA1999999100755MW1045EQDN01 08000JPWTH 1QNNE11 1 00610E11 1 00099E11 1 00099E11 1 00099G11 1 00055H11 1 15055K11 1 00056L11 1 00500M11 1 29750N11 1 08000Q11 1 10206S11 1 00063V11 1 01010X11 1 19004
034099999903813197201210000E+32700-083650SAO  +0108MCN  V0202205N002150228649N008000599+01445+01335102135ADDAA101000395GA1999+009144064GA2999+022864044GD12025+9999999GD24065+9999999GD30995+9999999GD40995+9999999GF108085999999999999999999MA1999999100815MW1445EQDN01 07200JPWTH 1QNNE11 1 00203E11 1 00607E11 1 00099E11 1 00099G11 1 00075H11 1 15030H11 1 21075K11 1 00056L11 1 00500M11 1 29770N11 1 07200Q11 1 10213S11 1 00058V11 1 01010X11 1 22004
031999999903813197201210300E+32700-083650SAO  +0108MCN  V0201205N003650228649N008000599+01395+01285101845ADDAA101000095GA1999+022864044GD14085+9999999GD20995+9999999GD30995+9999999GD40995+9999999GF108085999999999999999999MA1999999100545MW1445MW2615EQDN01 02072JPWTH 1QNNE11 1 00610E11 1 00099E11 1 00099E11 1 00099G11 1 00075H11 1 21075K11 1 00055L11 1 00500M11 1 29690N11 1 02072Q11 1 10184S11 1 00057V11 1 01010X11 1 12007
031399999903813197201210600E+32700-083650SAO  +0108MCN  V02099959000050097549N008000599+01395+01285101855ADDAA101000395GA1999+009754064GD14085+9999999GD20995+9999999GD30995+9999999GD40995+9999999GF108085999999999999999999MA1999999100545MW1615EQDN01 02000JPWTH 1QNNE11 1 00610E11 1 00099E11 1 00099E11 1 00099G11 1 00032H11 1 15032K11 1 00055L11 1 00500M11 1 29690N11 1 02000Q11 1 10185S11 1 00057V11 1 01010X11 1 00000
031999999903813197201210900E+32700-083650SAO  +0108MCN  V0200305N003150027449N002400599+01335+01285101825ADDAA101000595GA1999+002744074GD14085+9999999GD20995+9999999GD30995+9999999GD40995+9999999GF108085999999999999999999MA1999999100515MW1455MW2615EQDN01 02070JPWTH 1QNNE11 1 00610E11 1 00099E11 1 00099E11 1 00099G11 1 00009H11 1 16009K11 1 00055L11 1 00150M11 1 29680N11 1 02070Q11 1 10182S11 1 00056V11 1 01010X11 1 03006
034099999903813197201211200E+32700-083650SAO  +0108MCN  V0201505N002150030549N000800599+01335+01285101785ADDAA101000095GA1999+999999104GA2999+003054074GD16055+9999999GD24035+9999999GD30995+9999999GD40995+9999999GF108085999999999999999999MA1999999100475MW1455EQDN01 07000JPWTH 1QNNE11 1 00806E11 1 00604E11 1 00099E11 1 00099G11 1 00010H11 1 45999H11 1 16010K11 1 00055L11 1 00050M11 1 29670N11 1 07000Q11 1 10178S11 1 00056V11 1 01010X11 1 15004
031399999903813197201211500E+32700-083650SAO  +0108MCN  V0200905N002150006149N002000599+01445+01395101885ADDAA101000095GA1999+000614074GD14085+9999999GD20995+9999999GD30995+9999999GD40995+9999999GF108085999999999999999999MA1999999100585MW1455EQDN01 07000JPWTH 1QNNE11 1 00610E11 1 00099E11 1 00099E11 1 00099G11 1 00002H11 1 16002K11 1 00057L11 1 00125M11 1 29700N11 1 07000Q11 1 10188S11 1 00058V11 1 01010X11 1 09004
033499999903813197201211800E+32700-083650SAO  +0108MCN  V0202605N003650030549N011200599+01675+01445101755ADDAA101000095GA1999+003054064GA2999+091444004GD13065+9999999GD24025+9999999GD30995+9999999GD40995+9999999GF108085999999999999999999MA1999999100445EQDN01 00000JPWTH 1QNNE11 1 00407E11 1 00603E11 1 00099E11 1 00099G11 1 00010H11 1 15010H11 1 32300K11 1 00058L11 1 00700M11 1 29660N11 1 00000Q11 1 10175S11 1 00062V11 1 01010X11 1 26007
038899999903813197201212100E+32700-083650SAO  +0108MCN  V0202205N003650067149N019200599+01895+01335101645ADDAA101000095GA1999+006714064GA2999+091444024GA3999+999999999GA4999+999999999GD13065+9999999GD24025+9999999GD30005+9999999GD40005+9999999GF108065999999999999999999MA1999999100345EQDN01 00000JPWTH 1QNNE11 1 00407E11 1 00603E11 1 00000E11 1 00000G11 1 00022H11 1 15022H11 1 37300H11 1 00999H11 1 00999K11 1 00056L11 1 01200M11 1 29630N11 1 00000Q11 1 10164S11 1 00066V11 1 01008X11 1 22007
038899999903813197201220000E+32700-083650SAO  +0108MCN  V02099959000050914449N019200599+01505+01335101675ADDAA101000095GA1999+091444024GA2999+999999999GA3999+999999999GA4999+999999999GD14085+9999999GD20005+9999999GD30005+9999999GD40005+9999999GF108055999999999999999999MA1999999100375EQDN01 00000JPWTH 1QNNE11 1 00610E11 1 00000E11 1 00000E11 1 00000G11 1 00300H11 1 37300H11 1 00999H11 1 00999H11 1 00999K11 1 00056L11 1 01200M11 1 29640N11 1 00000Q11 1 10167S11 1 00059V11 1 01006X11 1 00000
038899999903813197201220300E+32700-083650SAO  +0108MCN  V0200905N002150914449N012800599+01285+01225101705ADDAA101000095GA1999+091444024GA2999+999999999GA3999+999999999GA4999+999999999GD14085+9999999GD20005+9999999GD30005+9999999GD40005+9999999GF108055999999999999999999MA1999999100415EQDN01 00000JPWTH 1QNNE11 1 00610E11 1 00000E11 1 00000E11 1 00000G11 1 00300H11 1 37300H11 1 00999H11 1 00999H11 1 00999K11 1 00054L11 1 00800M11 1 29650N11 1 00000Q11 1 10170S11 1 00055V11 1 01006X11 1 09004
034099999903813197201220600E+32700-083650SAO  +0108MCN  V02099959000050609649N004800599+01285+01225101615ADDAA101000095GA1999+004574064GA2999+060964044GD12025+9999999GD24065+9999999GD30995+9999999GD40995+9999999GF108085999999999999999999MA1999999100305MW1445EQDN01 07200JPWTH 1QNNE11 1 00202E11 1 00608E11 1 00099E11 1 00099G11 1 00200H11 1 15015H11 1 21200K11 1 00054L11 1 00300M11 1 29620N11 1 07200Q11 1 10161S11 1 00055V11 1 01010X11 1 00000
031999999903813197201220900E+32700-083650SAO  +0108MCN  V02099959000050045749N004000599+01285+01225101555ADDAA101000595GA1999+004574064GD14085+9999999GD20995+9999999GD30995+9999999GD40995+9999999GF108085999999999999999999MA1999999100245MW1445MW2615EQDN01 02072JPWTH 1QNNE11 1 00610E11 1 00099E11 1 00099E11 1 00099G11 1 00015H11 1 15015K11 1 00054L11 1 00250M11 1 29600N11 1 02072Q11 1 10155S11 1 00055V11 1 01010X11 1 00000
031399999903813197201221200E+32700-083650SAO  +0108MCN  V02099959000050009149N003200599+01395+01335101515ADDAA101000395GA1999+000914074GD14085+9999999GD20995+9999999GD30995+9999999GD40995+9999999GF108085999999999999999999MA1999999100205MW1455EQDN01 07000JPWTH 1QNNE11 1 00610E11 1 00099E11 1 00099E11 1 00099G11 1 00003H11 1 16003K11 1 00056L11 1 00200M11 1 29590N11 1 07000Q11 1 10151S11 1 00057V11 1 01010X11 1 00000
034099999903813197201221500E+32700-083650SAO  +0108MCN  V0201705N003150009149N001600599+01565+01505101545ADDAA101000095GA1999+999999104GA2999+000914074GD16035+9999999GD24085+9999999GD30995+9999999GD40995+9999999GF108085999999999999999999MA1999999100245MW1455EQDN01 07000JPWTH 1QNNE11 1 00804E11 1 00610E11 1 00099E11 1 00099G11 1 00003H11 1 45999H11 1 16003K11 1 00059L11 1 00100M11 1 29600N11 1 07000Q11 1 10154S11 1 00060V11 1 01010X11 1 17006
031399999903813197201221800E+32700-083650SAO  +0108MCN  V0201905N002150030549N008000599+01725+01565101355ADDAA101000095GA1999+003054074GD14085+9999999GD20995+9999999GD30995+9999999GD40995+9999999GF108085999999999999999999MA1999999100075MW1455EQDN01 07000JPWTH 1QNNE11 1 00610E11 1 00099E11 1 00099E11 1 00099G11 1 00010H11 1 16010K11 1 00060L11 1 00500M11 1 29550N11 1 07000Q11 1 10135S11 1 00063V11 1 01010X11 1 19004
033499999903813197201222100E+32700-083650SAO  +0108MCN  V02099959000050042749N011200599+01675+01565101205ADDAA101000095GA1999+002444074GA2999+004274074GD12025+9999999GD24065+9999999GD30995+9999999GD40995+9999999GF108085999999999999999999MA1999999099905EQDN01 00000JPWTH 1QNNE11 1 00203E11 1 00607E11 1 00099E11 1 00099G11 1 00014H11 1 16008H11 1 16014K11 1 00060L11 1 00700M11 1 29500N11 1 00000Q11 1 10120S11 1 00062V11 1 01010X11 1 00000
030799999903813197201230000E+32700-083650SAO  +0108MCN  V0203005N001550045749N016000599+01445+01335101265ADDAA101000095GA1999+004574064GD14085+9999999GD20995+9999999GD30995+9999999GD40995+9999999GF108085999999999999999999MA1999999099975EQDN01 00000JPWTH 1QNNE11 1 00610E11 1 00099E11 1 00099E11 1 00099G11 1 00015H11 1 15015K11 1 00056L11 1 01000M11 1 29520N11 1 00000Q11 1 10126S11 1 00058V11 1 01010X11 1 30003
039499999903813197201230300E+32700-083650SAO  +0108MCN  V02099959000052200059N000800599+01225+01225101265ADDAA101000095GA1999+999999104GA2999+999999999GA3999+999999999GA4999+999999999GD16065+9999999GD20005+9999999GD30005+9999999GD40005+9999999GF106065999999999999999999MA1999999100005MW1455EQDN01 07000JPWTH 1QNNE11 1 00807E11 1 00000E11 1 00000E11 1 00000G11U1 99999H11 1 45999H11 1 00999H11 1 00999H11 1 00999K11 1 00054L11 1 00050M11 1 29530N11 1 07000Q11 1 10126S11 1 00054V11 1 00707X11 1 00000
031399999903813197201230600E+32700-083650SAO  +0108MCN  V02099959000050000049N000100599+01065+01065101305ADDAA101000095GA1999+000004104GD15085+9999999GD20995+9999999GD30995+9999999GD40995+9999999GF108085999999999999999999MA1999999100005MW1455EQDN01 07000JPWTH 1QNNE11 1 00710E11 1 00099E11 1 00099E11 1 00099G11 1 00000H11 1 45000K11 1 00051L11 1 00006M11 1 29530N11 1 07000Q11 1 10130S11 1 00051V11 1 01010X11 1 00000
031399999903813197201230900E+32700-083650SAO  +0108MCN  V02099959000050003049N000400599+00945+00945101305ADDAA101000095GA1999+000304104GD15085+9999999GD20995+9999999GD30995+9999999GD40995+9999999GF108085999999999999999999MA1999999100005MW1455EQDN01 07000JPWTH 1QNNE11 1 00710E11 1 00099E11 1 00099E11 1 00099G11 1 00001H11 1 45001K11 1 00049L11 1 00025M11 1 29530N11 1 07000Q11 1 10130S11 1 00049V11 1 01010X11 1 00000
031399999903813197201231200E+32700-083650SAO  +0108MCN  V0201405N002150003049N000400599+01005+01005101505ADDAA101000095GA1999+000304104GD15085+9999999GD20995+9999999GD30995+9999999GD40995+9999999GF108085999999999999999999MA1999999100205MW1455EQDN01 07000JPWTH 1QNNE11 1 00710E11 1 00099E11 1 00099E11 1 00099G11 1 00001H11 1 45001K11 1 00050L11 1 00025M11 1 29590N11 1 07000Q11 1 10150S11 1 00050V11 1 01010X11 1 14004
031399999903813197201231500E+32700-083650SAO  +0108MCN  V0202105N001550003049N000100599+01175+01175101725ADDAA101000095GA1999+000304104GD15085+9999999GD20995+9999999GD30995+9999999GD40995+9999999GF108085999999999999999999MA1999999100415MW1455EQDN01 07000JPWTH 1QNNE11 1 00710E11 1 00099E11 1 00099E11 1 00099G11 1 00001H11 1 45001K11 1 00053L11 1 00006M11 1 29650N11 1 07000Q11 1 10172S11 1 00053V11 1 01010X11 1 21003
038899999903813197201231800E+32700-083650SAO  +0108MCN  V0202105N004150051849N016000599+01895+01505101535ADDAA101000095GA1999+005184064GA2999+999999999GA3999+999999999GA4999+999999999GD13055+9999999GD20005+9999999GD30005+9999999GD40005+9999999GF105055999999999999999999MA1999999100245EQDN01 00000JPWTH 1QNNE11 1 00406E11 1 00000E11 1 00000E11 1 00000G11 1 00017H11 1 15017H11 1 00999H11 1 00999H11 1 00999K11 1 00059L11 1 01000M11 1 29600N11 1 00000Q11 1 10153S11 1 00066V11 1 00606X11 1 21008
038899999903813197201232100E+32700-083650SAO  +0108MCN  V0202105N004652200059N019200599+02115+01335101475ADDAA101000095GA1999+009754064GA2999+999999999GA3999+999999999GA4999+999999999GD12045+9999999GD20005+9999999GD30005+9999999GD40005+9999999GF104045999999999999999999MA1999999100175EQDN01 00000JPWTH 1QNNE11 1 00205E11 1 00000E11 1 00000E11 1 00000G11U1 99999H11 1 15032H11 1 00999H11 1 00999H11 1 00999K11 1 00056L11 1 01200M11 1 29580N11 1 00000Q11 1 10147S11 1 00070V11 1 00505X11 1 21009
038899999903813197201240000E+32700-083650SAO  +0108MCN  V02099959000052200059N019200599+01615+01335101545ADDAA101000095GA1999+010674064GA2999+091444004GA3999+999999999GA4999+999999999GD12015+9999999GD21025+9999993GD30005+9999999GD40005+9999999GF102015999999999999999999MA1999999100245EQDN01 00000JPWTH 1QNNE11 1 00201E11 1 00102E11 1 00000E11 1 00000G11U1 99999H11 1 15035H11 1 32300H11 1 00999H11 1 00999K11 1 00056L11 1 01200M11 1 29600N11 1 00000Q11 1 10154S11 1 00061V11 1 00301X11 1 00000
017699999903813197201240300E+32700-083650SAO  +0108MCN  V0201305N002652200059N011200599+01335+01225101605ADDAA101000095GF100005999999999999999999MA1999999100305EQDN01 00000JPWTH 1QNNG11U1 99999K11 1 00054L11 1 00700M11 1 29620N11 1 00000Q11 1 10160S11 1 00056V11 1 00000X11 1 13005
017699999903813197201240600E+32700-083650SAO  +0108MCN  V0201405N003152200059N012800599+01335+01285101595ADDAA101000095GF100005999999999999999999MA1999999100305EQDN01 00000JPWTH 1QNNG11U1 99999K11 1 00055L11 1 00800M11 1 29620N11 1 00000Q11 1 10159S11 1 00056V11 1 00000X11 1 14006
034099999903813197201240900E+32700-083650SAO  +0108MCN  V0201905N002650021349N008000599+01445+01395101635ADDAA101000095GA1999+002134074GA2999+004274074GD13065+9999999GD24025+9999999GD30995+9999999GD40995+9999999GF108085999999999999999999MA1999999100345MW1455EQDN01 07000JPWTH 1QNNE11 1 00407E11 1 00603E11 1 00099E11 1 00099G11 1 00007H11 1 16007H11 1 16014K11 1 00057L11 1 00500M11 1 29630N11 1 07000Q11 1 10163S11 1 00058V11 1 01010X11 1 19005
031399999903813197201241200E+32700-083650SAO  +0108MCN  V0201805N003150012249N008000599+01445+01395101765ADDAA101000095GA1999+001224074GD14085+9999999GD20995+9999999GD30995+9999999GD40995+9999999GF108085999999999999999999MA1999999100475MW1455EQDN01 07000JPWTH 1QNNE11 1 00610E11 1 00099E11 1 00099E11 1 00099G11 1 00004H11 1 16004K11 1 00057L11 1 00500M11 1 29670N11 1 07000Q11 1 10176S11 1 00058V11 1 01010X11 1 18006
034699999903813197201241500E+32700-083650SAO  +0108MCN  V0201505N004650015249N004800599+01565+01505102005ADDAA101000095GA1999+001524074GA2999+011584064GD13075+9999999GD24015+9999999GD30995+9999999GD40995+9999999GF108085999999999999999999MA1999999100715MW1045MW2455EQDN01 07080JPWTH 1QNNE11 1 00409E11 1 00601E11 1 00099E11 1 00099G11 1 00005H11 1 16005H11 1 15038K11 1 00059L11 1 00300M11 1 29740N11 1 07080Q11 1 10200S11 1 00060V11 1 01010X11 1 15009
030799999903813197201241800E+32700-083650SAO  +0108MCN  V0202105N004650061049N016000599+01945+01565101915ADDAA101000095GA1999+006104064GD14085+9999999GD20995+9999999GD30995+9999999GD40995+9999999GF108085999999999999999999MA1999999100615EQDN01 00000JPWTH 1QNNE11 1 00610E11 1 00099E11 1 00099E11 1 00099G11 1 00020H11 1 15020K11 1 00060L11 1 01000M11 1 29710N11 1 00000Q11 1 10191S11 1 00067V11 1 01010X11 1 21009
038899999903813197201242100E+32700-083650SAO  +0108MCN  V0201805N005752200059N019200599+02285+01445101735ADDAA101000095GA1999+007624064GA2999+999999999GA3999+999999999GA4999+999999999GD12035+9999999GD20005+9999999GD30005+9999999GD40005+9999999GF103035999999999999999999MA1999999100445EQDN01 00000JPWTH 1QNNE11 1 00204E11 1 00000E11 1 00000E11 1 00000G11U1 99999H11 1 15025H11 1 00999H11 1 00999H11 1 00999K11 1 00058L11 1 01200M11 1 29660N11 1 00000Q11 1 10173S11 1 00073V11 1 00404X11 1 18011
038899999903813197201250000E+32700-083650SAO  +0108MCN  V0202305N002150097549N019200599+01835+01395101845ADDAA101000095GA1999+009754064GA2999+999999999GA3999+999999999GA4999+999999999GD13055+9999999GD20005+9999999GD30005+9999999GD40005+9999999GF105055999999999999999999MA1999999100545EQDN01 00000JPWTH 1QNNE11 1 00406E11 1 00000E11 1 00000E11 1 00000G11 1 00032H11 1 15032H11 1 00999H11 1 00999H11 1 00999K11 1 00057L11 1 01200M11 1 29690N11 1 00000Q11 1 10184S11 1 00065V11 1 00606X11 1 23004
038899999903813197201250300E+32700-083650SAO  +0108MCN  V0201305N003652200059N016000599+01505+01335101855ADDAA101000095GA1999+091444004GA2999+999999999GA3999+999999999GA4999+999999999GD11025+9999993GD20005+9999999GD30005+9999999GD40005+9999999GF102015999999999999999999MA1999999100585EQDN01 00000JPWTH 1QNNE11 1 00103E11 1 00000E11 1 00000E11 1 00000G11U1 99999H11 1 32300H11 1 00999H11 1 00999H11 1 00999K11 1 00056L11 1 01000M11 1 29700N11 1 00000Q11 1 10185S11 1 00059V11 1 00301X11 1 13007
038899999903813197201250600E+32700-083650SAO  +0108MCN  V0202205N005252200059N016000599+01565+01335101865ADDAA101000095GA1999+091444024GA2999+999999999GA3999+999999999GA4999+999999999GD11035+9999993GD20005+9999999GD30005+9999999GD40005+9999999GF103015999999999999999999MA1999999100585EQDN01 00000JPWTH 1QNNE11 1 00104E11 1 00000E11 1 00000E11 1 00000G11U1 99999H11 1 37300H11 1 00999H11 1 00999H11 1 00999K11 1 00056L11 1 01000M11 1 29700N11 1 00000Q11 1 10186S11 1 00060V11 1 00401X11 1 22010
030799999903813197201250900E+32700-083650SAO  +0108MCN  V0202505N005250018349N012800599+01675+01615101935ADDAA101000095GA1999+001834074GD14085+9999999GD20995+9999999GD30995+9999999GD40995+9999999GF108085999999999999999999MA1999999100645EQDN01 00000JPWTH 1QNNE11 1 00610E11 1 00099E11 1 00099E11 1 00099G11 1 00006H11 1 16006K11 1 00061L11 1 00800M11 1 29720N11 1 00000Q11 1 10193S11 1 00062V11 1 01010X11 1 25010
031399999903813197201251200E+32700-083650SAO  +0108MCN  V0203305N007250106749N016000599+01285+01065102295ADDAA101003395GA1999+010674064GD14085+9999999GD20995+9999999GD30995+9999999GD40995+9999999GF108085999999999999999999MA1999999100985MW1615EQDN01 02000JPWTH 1QNNE11 1 00610E11 1 00099E11 1 00099E11 1 00099G11 1 00035H11 1 15035K11 1 00051L11 1 01000M11 1 29820N11 1 02000Q11 1 10229S11 1 00055V11 1 01010X11 1 33014
030799999903813197201251500E+32700-083650SAO  +0108MCN  V0203605N004650137249N019200599+01115+00445102735ADDAA101000095GA1999+013724064GD14085+9999999GD20995+9999999GD30995+9999999GD40995+9999999GF108085999999999999999999MA1999999101425EQDN01 00000JPWTH 1QNNE11 1 00610E11 1 00099E11 1 00099E11 1 00099G11 1 00045H11 1 15045K11 1 00040L11 1 01200M11 1 29950N11 1 00000Q11 1 10273S11 1 00052V11 1 01010X11 1 36009
038899999903813197201251800E+32700-083650SAO  +0108MCN  V0203405N007250914449N019200599+01565-00115102795ADDAA101000095GA1999+091444024GA2999+999999999GA3999+999999999GA4999+999999999GD13065+9999999GD20005+9999999GD30005+9999999GD40005+9999999GF106065999999999999999999MA1999999101495EQDN01 00000JPWTH 1QNNE11 1 00408E11 1 00000E11 1 00000E11 1 00000G11 1 00300H11 1 37300H11 1 00999H11 1 00999H11 1 00999K11 1 00030L11 1 01200M11 1 29970N11 1 00000Q11 1 10279S11 1 00060V11 1 00808X11 1 34014
038899999903813197201252100E+32700-083650SAO  +0108MCN  V0203605N004152200059N019200599+01785-00395102825ADDAA101000095GA1999+091444024GA2999+999999999GA3999+999999999GA4999+999999999GD11035+9999993GD20005+9999999GD30005+9999999GD40005+9999999GF103025999999999999999999MA1999999101525EQDN01 00000JPWTH 1QNNE11 1 00104E11 1 00000E11 1 00000E11 1 00000G11U1 99999H11 1 37300H11 1 00999H11 1 00999H11 1 00999K11 1 00025L11 1 01200M11 1 29980N11 1 00000Q11 1 10282S11 1 00064V11 1 00402X11 1 36008
038899999903813197201260000E+32700-083650SAO  +0108MCN  V0203305N004152200059N019200599+01115-00395102985ADDAA101000095GA1999+999999024GA2999+999999999GA3999+999999999GA4999+999999999GD10005+9999999GD20005+9999999GD30005+9999999GD40005+9999999GF100005999999999999999999MA1999999101665EQDN01 00000JPWTH 1QNNE11 1 00000E11 1 00000E11 1 00000E11 1 00000G11U1 99999H11 1 37999H11 1 00999H11 1 00999H11 1 00999K11 1 00025L11 1 01200M11 1 30020N11 1 00000Q11 1 10298S11 1 00052V11 1 00000X11 1 33008
017699999903813197201260300E+32700-083650SAO  +0108MCN  V0200105N002652200059N019200599+00785-00445103115ADDAA101000095GF100005999999999999999999MA1999999101795EQDN01 00000JPWTH 1QNNG11U1 99999K11 1 00024L11 1 01200M11 1 30060N11 1 00000Q11 1 10311S11 1 00046V11 1 00000X11 1 01005
017699999903813197201260600E+32700-083650SAO  +0108MCN  V0200105N003152200059N019200599+00445-00335103125ADDAA101000095GF100005999999999999999999MA1999999101795EQDN01 00000JPWTH 1QNNG11U1 99999K11 1 00026L11 1 01200M11 1 30060N11 1 00000Q11 1 10312S11 1 00040V11 1 00000X11 1 01006
017699999903813197201260900E+32700-083650SAO  +0108MCN  V0200305N002652200059N019200599+00395-00445103155ADDAA101000095GF100005999999999999999999MA1999999101835EQDN01 00000JPWTH 1QNNG11U1 99999K11 1 00024L11 1 01200M11 1 30070N11 1 00000Q11 1 10315S11 1 00039V11 1 00000X11 1 03005
017699999903813197201261200E+32700-083650SAO  +0108MCN  V0200405N002152200059N019200599+00065-00395103225ADDAA101000095GF100005999999999999999999MA1999999101905EQDN01 00000JPWTH 1QNNG11U1 99999K11 1 00025L11 1 01200M11 1 30090N11 1 00000Q11 1 10322S11 1 00033V11 1 00000X11 1 04004
017699999903813197201261500E+32700-083650SAO  +0108MCN  V0200805N005252200059N019200599+00725-00725103455ADDAA101000095GF100005999999999999999999MA1999999102105EQDN01 00000JPWTH 1QNNG11U1 99999K11 1 00019L11 1 01200M11 1 30150N11 1 00000Q11 1 10345S11 1 00045V11 1 00000X11 1 08010
017699999903813197201261800E+32700-083650SAO  +0108MCN  V0200205N003652200059N019200599+01335-00615103165ADDAA101000095GF100005999999999999999999MA1999999101835EQDN01 00000JPWTH 1QNNG11U1 99999K11 1 00021L11 1 01200M11 1 30070N11 1 00000Q11 1 10316S11 1 00056V11 1 00000X11 1 02007
030799999903813197201262100E+32700-083650SAO  +0108MCN  V0201305N003150097549N019200599+01615+00005102945ADDAA101000095GA1999+009754064GD14085+9999999GD20995+9999999GD30995+9999999GD40995+9999999GF108085999999999999999999MA1999999101635EQDN01 00000JPWTH 1QNNE11 1 00610E11 1 00099E11 1 00099E11 1 00099G11 1 00032H11 1 15032K11 1 00032L11 1 01200M11 1 30010N11 1 00000Q11 1 10294S11 1 00061V11 1 01010X11 1 13006
030799999903813197201270000E+32700-083650SAO  +0108MCN  V0200705N003150097549N019200599+01335+00175102945ADDAA101000095GA1999+009754064GD14085+9999999GD20995+9999999GD30995+9999999GD40995+9999999GF108085999999999999999999MA1999999101635EQDN01 00000JPWTH 1QNNE11 1 00610E11 1 00099E11 1 00099E11 1 00099G11 1 00032H11 1 15032K11 1 00035L11 1 01200M11 1 30010N11 1 00000Q11 1 10294S11 1 00056V11 1 01010X11 1 07006
030799999903813197201270300E+32700-083650SAO  +0108MCN  V0201205N002650085349N019200599+01225+00175102945ADDAA101000095GA1999+008534064GD14085+9999999GD20995+9999999GD30995+9999999GD40995+9999999GF108085999999999999999999MA1999999101635EQDN01 00000JPWTH 1QNNE11 1 00610E11 1 00099E11 1 00099E11 1 00099G11 1 00028H11 1 15028K11 1 00035L11 1 01200M11 1 30010N11 1 00000Q11 1 10294S11 1 00054V11 1 01010X11 1 12005
030799999903813197201270600E+32700-083650SAO  +0108MCN  V02099959000050067149N019200599+01175+00175102875ADDAA101000095GA1999+006714064GD14085+9999999GD20995+9999999GD30995+9999999GD40995+9999999GF108085999999999999999999MA1999999101565EQDN01 00000JPWTH 1QNNE11 1 00610E11 1 00099E11 1 00099E11 1 00099G11 1 00022H11 1 15022K11 1 00035L11 1 01200M11 1 29990N11 1 00000Q11 1 10287S11 1 00053V11 1 01010X11 1 00000
030799999903813197201270900E+32700-083650SAO  +0108MCN  V02099959000050067149N016000599+01005+00445102755ADDAA101000095GA1999+006714064GD14085+9999999GD20995+9999999GD30995+9999999GD40995+9999999GF108085999999999999999999MA1999999101425EQDN01 00000JPWTH 1QNNE11 1 00610E11 1 00099E11 1 00099E11 1 00099G11 1 00022H11 1 15022K11 1 00040L11 1 01000M11 1 29950N11 1 00000Q11 1 10275S11 1 00050V11 1 01010X11 1 00000
030799999903813197201271200E+32700-083650SAO  +0108MCN  V02099959000050054949N016000599+01115+00445102725ADDAA101000095GA1999+005494064GD14085+9999999GD20995+9999999GD30995+9999999GD40995+9999999GF108085999999999999999999MA1999999101395EQDN01 00000JPWTH 1QNNE11 1 00610E11 1 00099E11 1 00099E11 1 00099G11 1 00018H11 1 15018K11 1 00040L11 1 01000M11 1 29940N11 1 00000Q11 1 10272S11 1 00052V11 1 01010X11 1 00000
030799999903813197201271500E+32700-083650SAO  +0108MCN  V0200405N002150061049N019200599+01285+00445102855ADDAA101000095GA1999+006104064GD14085+9999999GD20995+9999999GD30995+9999999GD40995+9999999GF108085999999999999999999MA1999999101525EQDN01 00000JPWTH 1QNNE11 1 00610E11 1 00099E11 1 00099E11 1 00099G11 1 00020H11 1 15020K11 1 00040L11 1 01200M11 1 29980N11 1 00000Q11 1 10285S11 1 00055V11 1 01010X11 1 04004
038899999903813197201271800E+32700-083650SAO  +0108MCN  V0200105N004150076249N011200599+01835+01005102645ADDAA101000095GA1999+007624064GA2999+999999999GA3999+999999999GA4999+999999999GD13075+9999999GD20005+9999999GD30005+9999999GD40005+9999999GF107075999999999999999999MA1999999101325EQDN01 00000JPWTH 1QNNE11 1 00409E11 1 00000E11 1 00000E11 1 00000G11 1 00025H11 1 15025H11 1 00999H11 1 00999H11 1 00999K11 1 00050L11 1 00700M11 1 29920N11 1 00000Q11 1 10264S11 1 00065V11 1 00909X11 1 01008
038899999903813197201272100E+32700-083650SAO  +0108MCN  V0202105N003150091449N019200599+02115+01285102305ADDAA101000095GA1999+009144064GA2999+999999999GA3999+999999999GA4999+999999999GD13065+9999999GD20005+9999999GD30005+9999999GD40005+9999999GF106065999999999999999999MA1999999100985EQDN01 00000JPWTH 1QNNE11 1 00408E11 1 00000E11 1 00000E11 1 00000G11 1 00030H11 1 15030H11 1 00999H11 1 00999H11 1 00999K11 1 00055L11 1 01200M11 1 29820N11 1 00000Q11 1 10230S11 1 00070V11 1 00808X11 1 21006
038899999903813197201280000E+32700-083650SAO  +0108MCN  V0201905N002152200059N019200599+01725+01335102335ADDAA101000095GA1999+045724034GA2999+999999999GA3999+999999999GA4999+999999999GD12015+9999999GD20005+9999999GD30005+9999999GD40005+9999999GF101015999999999999999999MA1999999101025EQDN01 00000JPWTH 1QNNE11 1 00201E11 1 00000E11 1 00000E11 1 00000G11U1 99999H11 1 23150H11 1 00999H11 1 00999H11 1 00999K11 1 00056L11 1 01200M11 1 29830N11 1 00000Q11 1 10233S11 1 00063V11 1 00101X11 1 19004
017699999903813197201280300E+32700-083650SAO  +0108MCN  V0202105N002152200059N019200599+01505+01285102315ADDAA101000095GF100005999999999999999999MA1999999101025EQDN01 00000JPWTH 1QNNG11U1 99999K11 1 00055L11 1 01200M11 1 29830N11 1 00000Q11 1 10231S11 1 00059V11 1 00000X11 1 21004
038899999903813197201280600E+32700-083650SAO  +0108MCN  V0202405N003652200059N016000599+01615+01395102295ADDAA101000095GA1999+030484034GA2999+999999999GA3999+999999999GA4999+999999999GD12035+9999999GD20005+9999999GD30005+9999999GD40005+9999999GF103035999999999999999999MA1999999100985EQDN01 00000JPWTH 1QNNE11 1 00204E11 1 00000E11 1 00000E11 1 00000G11U1 99999H11 1 23100H11 1 00999H11 1 00999H11 1 00999K11 1 00057L11 1 01000M11 1 29820N11 1 00000Q11 1 10229S11 1 00061V11 1 00404X11 1 24007
038899999903813197201280900E+32700-083650SAO  +0108MCN  V0202105N003652200059N016000599+01565+01395102105ADDAA101000095GA1999+022864034GA2999+999999999GA3999+999999999GA4999+999999999GD12015+9999999GD20005+9999999GD30005+9999999GD40005+9999999GF101015999999999999999999MA1999999100785EQDN01 00000JPWTH 1QNNE11 1 00201E11 1 00000E11 1 00000E11 1 00000G11U1 99999H11 1 23075H11 1 00999H11 1 00999H11 1 00999K11 1 00057L11 1 01000M11 1 29760N11 1 00000Q11 1 10210S11 1 00060V11 1 00101X11 1 21007
018299999903813197201281200E+32700-083650SAO  +0108MCN  V0202405N004652200059N006400599+01445+01395102065ADDAA101000095GF100005999999999999999999MA1999999100755MW1445EQDN01 07200JPWTH 1QNNG11U1 99999K11 1 00057L11 1 00400M11 1 29750N11 1 07200Q11 1 10206S11 1 00058V11 1 00000X11 1 24009
031399999903813197201281500E+32700-083650SAO  +0108MCN  V0202605N005750027449N006400599+01725+01565102155ADDAA101000095GA1999+002744074GD14085+9999999GD20995+9999999GD30995+9999999GD40995+9999999GF108085999999999999999999MA1999999100855MW1455EQDN01 07000JPWTH 1QNNE11 1 00610E11 1 00099E11 1 00099E11 1 00099G11 1 00009H11 1 16009K11 1 00060L11 1 00400M11 1 29780N11 1 07000Q11 1 10215S11 1 00063V11 1 01010X11 1 26011
030799999903813197201281800E+32700-083650SAO  +0108MCN  V0202605N007250067149N019200599+02065+01565102105ADDAA101000095GA1999+006714064GD14085+9999999GD20995+9999999GD30995+9999999GD40995+9999999GF108085999999999999999999MA1999999100785EQDN01 00000JPWTH 1QNNE11 1 00610E11 1 00099E11 1 00099E11 1 00099G11 1 00022H11 1 15022K11 1 00060L11 1 01200M11 1 29760N11 1 00000Q11 1 10210S11 1 00069V11 1 01010X11 1 26014
030799999903813197201282100E+32700-083650SAO  +0108MCN  V0203305N003150137249N019200599+01895+01395102005ADDAA101000095GA1999+013724064GD14085+9999999GD20995+9999999GD30995+9999999GD40995+9999999GF108085999999999999999999MA1999999100715EQDN01 00000JPWTH 1QNNE11 1 00610E11 1 00099E11 1 00099E11 1 00099G11 1 00045H11 1 15045K11 1 00057L11 1 01200M11 1 29740N11 1 00000Q11 1 10200S11 1 00066V11 1 01010X11 1 33006
030799999903813197201290000E+32700-083650SAO  +0108MCN  V0203405N002650097549N019200599+01725+01445102055ADDAA101000095GA1999+009754064GD14085+9999999GD20995+9999999GD30995+9999999GD40995+9999999GF108085999999999999999999MA1999999100755EQDN01 00000JPWTH 1QNNE11 1 00610E11 1 00099E11 1 00099E11 1 00099G11 1 00032H11 1 15032K11 1 00058L11 1 01200M11 1 29750N11 1 00000Q11 1 10205S11 1 00063V11 1 01010X11 1 34005
031399999903813197201290300E+32700-083650SAO  +0108MCN  V0202905N002150137249N019200599+01565+01505102085ADDAA101000395GA1999+013724064GD14085+9999999GD20995+9999999GD30995+9999999GD40995+9999999GF108085999999999999999999MA1999999100785MW1805EQDN01 02300JPWTH 1QNNE11 1 00610E11 1 00099E11 1 00099E11 1 00099G11 1 00045H11 1 15045K11 1 00059L11 1 01200M11 1 29760N11 1 02300Q11 1 10208S11 1 00060V11 1 01010X11 1 29004
030799999903813197201290600E+32700-083650SAO  +0108MCN  V02099959000050097549N012800599+01565+01505102015ADDAA101000095GA1999+009754064GD14085+9999999GD20995+9999999GD30995+9999999GD40995+9999999GF108085999999999999999999MA1999999100715EQDN01 00000JPWTH 1QNNE11 1 00610E11 1 00099E11 1 00099E11 1 00099G11 1 00032H11 1 15032K11 1 00059L11 1 00800M11 1 29740N11 1 00000Q11 1 10201S11 1 00060V11 1 01010X11 1 00000
034699999903813197201290900E+32700-083650SAO  +0108MCN  V02099959000050076249N008000599+01565+01505101925ADDAA101000095GA1999+000914074GA2999+007624054GD12025+9999999GD24065+9999999GD30995+9999999GD40995+9999999GF108085999999999999999999MA1999999100645MW1445MW2615EQDN01 02072JPWTH 1QNNE11 1 00203E11 1 00607E11 1 00099E11 1 00099G11 1 00025H11 1 16003H11 1 22025K11 1 00059L11 1 00500M11 1 29720N11 1 02072Q11 1 10192S11 1 00060V11 1 01010X11 1 00000
034099999903813197201291200E+32700-083650SAO  +0108MCN  V02099959000050033549N003200599+01565+01505101905ADDAA101000395GA1999+000614074GA2999+003354074GD12025+9999999GD24065+9999999GD30995+9999999GD40995+9999999GF108085999999999999999999MA1999999100615MW1455EQDN01 07000JPWTH 1QNNE11 1 00202E11 1 00608E11 1 00099E11 1 00099G11 1 00011H11 1 16002H11 1 16011K11 1 00059L11 1 00200M11 1 29710N11 1 07000Q11 1 10190S11 1 00060V11 1 01010X11 1 00000
031999999903813197201291500E+32700-083650SAO  +0108MCN  V0200105N003150009149N001300599+01335+01335102055ADDAA101001595GA1999+000914134GD14085+9999999GD20995+9999999GD30995+9999999GD40995+9999999GF108085999999999999999999MA1999999100755MW1455MW2615EQDN01 02070JPWTH 1QNNE11 1 00610E11 1 00099E11 1 00099E11 1 00099G11 1 00003H11 1 13003K11 1 00056L11 1 00081M11 1 29750N11 1 02070Q11 1 10205S11 1 00056V11 1 01010X11 1 01006
031999999903813197201291800E+32700-083650SAO  +0108MCN  V0200105N003150009149N002400599+01445+01395101875ADDAA101000095GA1999+000914134GD14085+9999999GD20995+9999999GD30995+9999999GD40995+9999999GF108085999999999999999999MA1999999100585MW1455MW2615EQDN01 02070JPWTH 1QNNE11 1 00610E11 1 00099E11 1 00099E11 1 00099G11 1 00003H11 1 13003K11 1 00057L11 1 00150M11 1 29700N11 1 02070Q11 1 10187S11 1 00058V11 1 01010X11 1 01006
031999999903813197201292100E+32700-083650SAO  +0108MCN  V0200405N002150012249N001600599+01565+01445101685ADDAA101000095GA1999+001224134GD14085+9999999GD20995+9999999GD30995+9999999GD40995+9999999GF108085999999999999999999MA1999999100375MW1045MW2455EQDN01 07080JPWTH 1QNNE11 1 00610E11 1 00099E11 1 00099E11 1 00099G11 1 00004H11 1 13004K11 1 00058L11 1 00100M11 1 29640N11 1 07080Q11 1 10168S11 1 00060V11 1 01010X11 1 04004
031999999903813197201300000E+32700-083650SAO  +0108MCN  V0200205N001550006149N001600599+01505+01505101655ADDAA101000095GA1999+000614074GD14085+9999999GD20995+9999999GD30995+9999999GD40995+9999999GF108085999999999999999999MA1999999100345MW1045MW2455EQDN01 07080JPWTH 1QNNE11 1 00610E11 1 00099E11 1 00099E11 1 00099G11 1 00002H11 1 16002K11 1 00059L11 1 00100M11 1 29630N11 1 07080Q11 1 10165S11 1 00059V11 1 01010X11 1 02003
040099999903813197201300300E+32700-083650SAO  +0108MCN  V0203205N002650091449N006400599+01445+01395101675ADDAA101001895GA1999+001224134GA2999+009144084GA3999+999999999GA4999+999999999GD12025+9999999GD23035+9999999GD30005+9999999GD40005+9999999GF106045999999999999999999MA1999999100375MW1455MW2805EQDN01 02370JPWTH 1QNNE11 1 00203E11 1 00404E11 1 00000E11 1 00000G11 1 00030H11 1 13004H11 1 11030H11 1 00999H11 1 00999K11 1 00057L11 1 00400M11 1 29640N11 1 02370Q11 1 10167S11 1 00058V11 1 00705X11 1 32005
031399999903813197201300600E+32700-083650SAO  +0108MCN  V02099959000050000049N000100599+01445+01395101535ADDAA101000095GA1999+000004104GD15085+9999999GD20995+9999999GD30995+9999999GD40995+9999999GF108085999999999999999999MA1999999100245MW1455EQDN01 07000JPWTH 1QNNE11 1 00710E11 1 00099E11 1 00099E11 1 00099G11 1 00000H11 1 45000K11 1 00057L11 1 00006M11 1 29600N11 1 07000Q11 1 10153S11 1 00058V11 1 01010X11 1 00000
034699999903813197201300900E+32700-083650SAO  +0108MCN  V02099959000050009149N002400599+01445+01395101465ADDAA101000095GA1999+000914134GA2999+004274134GD13055+9999999GD24035+9999999GD30995+9999999GD40995+9999999GF108085999999999999999999MA1999999100175MW1455MW2615EQDN01 02070JPWTH 1QNNE11 1 00406E11 1 00604E11 1 00099E11 1 00099G11 1 00003H11 1 13003H11 1 13014K11 1 00057L11 1 00150M11 1 29580N11 1 02070Q11 1 10146S11 1 00058V11 1 01010X11 1 00000
034699999903813197201301200E+32700-083650SAO  +0108MCN  V02099959000050137249N002000599+01445+01395101535ADDAA101000595GA1999+000614134GA2999+013724054GD12025+9999999GD24065+9999999GD30995+9999999GD40995+9999999GF108085999999999999999999MA1999999100245MW1455MW2615EQDN01 02070JPWTH 1QNNE11 1 00203E11 1 00607E11 1 00099E11 1 00099G11 1 00045H11 1 13002H11 1 22045K11 1 00057L11 1 00125M11 1 29600N11 1 02070Q11 1 10153S11 1 00058V11 1 01010X11 1 00000
034699999903813197201301500E+32700-083650SAO  +0108MCN  V0200505N002150009149N001600599+01445+01395101575ADDAA101000395GA1999+999999104GA2999+000914074GD16035+9999999GD24055+9999999GD30995+9999999GD40995+9999999GF108085999999999999999999MA1999999100275MW1455MW2615EQDN01 02070JPWTH 1QNNE11 1 00804E11 1 00606E11 1 00099E11 1 00099G11 1 00003H11 1 45999H11 1 16003K11 1 00057L11 1 00100M11 1 29610N11 1 02070Q11 1 10157S11 1 00058V11 1 01010X11 1 05004
034099999903813197201301800E+32700-083650SAO  +0108MCN  V0203605N004650006149N001300599+01285+01225101545ADDAA101000095GA1999+999999104GA2999+000614134GD16035+9999999GD24085+9999999GD30995+9999999GD40995+9999999GF108085999999999999999999MA1999999100245MW1455EQDN01 07000JPWTH 1QNNE11 1 00804E11 1 00610E11 1 00099E11 1 00099G11 1 00002H11 1 45999H11 1 13002K11 1 00054L11 1 00081M11 1 29600N11 1 07000Q11 1 10154S11 1 00055V11 1 01010X11 1 36009
034699999903813197201302100E+32700-083650SAO  +0108MCN  V0203305N007750030549N004000599+00945+00945101505ADDAA101001095GA1999+003054134GA2999+006104054GD13055+9999999GD24035+9999999GD30995+9999999GD40995+9999999GF108085999999999999999999MA1999999100205MW1455MW2615EQDN01 02070JPWTH 1QNNE11 1 00406E11 1 00604E11 1 00099E11 1 00099G11 1 00010H11 1 13010H11 1 22020K11 1 00049L11 1 00250M11 1 29590N11 1 02070Q11 1 10150S11 1 00049V11 1 01010X11 1 33015
034099999903813197201310000E+32700-083650SAO  +0108MCN  V0203105N004650152449N016000599+00675+00615101775ADDAA101000395GA1999+003054134GA2999+015244054GD12025+9999999GD24065+9999999GD30995+9999999GD40995+9999999GF108085999999999999999999MA1999999100475MW1615EQDN01 02000JPWTH 1QNNE11 1 00203E11 1 00607E11 1 00099E11 1 00099G11 1 00050H11 1 13010H11 1 22050K11 1 00043L11 1 01000M11 1 29670N11 1 02000Q11 1 10177S11 1 00044V11 1 01010X11 1 31009
030799999903813197201310300E+32700-083650SAO  +0108MCN  V0203305N005250213449N019200599+00565+00285101885ADDAA101000095GA1999+021344034GD14085+9999999GD20995+9999999GD30995+9999999GD40995+9999999GF108085999999999999999999MA1999999100585EQDN01 00000JPWTH 1QNNE11 1 00610E11 1 00099E11 1 00099E11 1 00099G11 1 00070H11 1 23070K11 1 00037L11 1 01200M11 1 29700N11 1 00000Q11 1 10188S11 1 00042V11 1 01010X11 1 33010
031399999903813197201310600E+32700-083650SAO  +0108MCN  V0203305N003650213449N011200599+00445+00225101835ADDAA101000595GA1999+021344054GD14085+9999999GD20995+9999999GD30995+9999999GD40995+9999999GF108085999999999999999999MA1999999100515MW1615EQDN01 02000JPWTH 1QNNE11 1 00610E11 1 00099E11 1 00099E11 1 00099G11 1 00070H11 1 22070K11 1 00036L11 1 00700M11 1 29680N11 1 02000Q11 1 10183S11 1 00040V11 1 01010X11 1 33007
038899999903813197201310900E+32700-083650SAO  +0108MCN  V0203205N006750304849N012800599+00285-00115101905ADDAA101000095GA1999+021344034GA2999+030484034GA3999+091444024GA4999+999999999GD12035+9999999GD23025+9999999GD33025+9999999GD40005+9999999GF106065999999999999999999MA1999999100585EQDN01 00000JPWTH 1QNNE11 1 00204E11 1 00402E11 1 00402E11 1 00000G11 1 00100H11 1 23070H11 1 23100H11 1 37300H11 1 00999K11 1 00030L11 1 00800M11 1 29700N11 1 00000Q11 1 10190S11 1 00037V11 1 00807X11 1 32013
