038899999903822197201010000E+32133-081200SAO  +0014SAV  V0202505N001550213449N024000599+01785+01615101845ADDAA101000095GA1999+012194064GA2999+021344034GA3999+999999999GA4999+999999999GD12025+9999999GD23065+9999999GD30005+9999999GD40005+9999999GF106065999999999999999999MA1999999101665EQDN01 00000JPWTH 1QNNE11 1 00202E11 1 00408E11 1 00000E11 1 00000G11 1 00070H11 1 15040H11 1 23070H11 1 00999H11 1 00999K11 1 00061L11 1 01500M11 1 30020N11 1 00000Q11 1 10184S11 1 00064V11 1 00808X11 1 25003
038899999903822197201010300E+32133-081200SAO  +0014SAV  V0203105N002150274349N024000599+01615+01225101975ADDAA101000095GA1999+027434034GA2999+999999999GA3999+999999999GA4999+999999999GD13065+9999999GD20005+9999999GD30005+9999999GD40005+9999999GF106065999999999999999999MA1999999101795EQDN01 00000JPWTH 1QNNE11 1 00407E11 1 00000E11 1 00000E11 1 00000G11 1 00090H11 1 23090H11 1 00999H11 1 00999H11 1 00999K11 1 00054L11 1 01500M11 1 30060N11 1 00000Q11 1 10197S11 1 00061V11 1 00707X11 1 31004
017699999903822197201010600E+32133-081200SAO  +0014SAV  V0203405N001552200059N019200599+01175+01065102005ADDAA101000095GF100005999999999999999999MA1999999101835EQDN01 00000JPWTH 1QNNG11U1 99999K11 1 00051L11 1 01200M11 1 30070N11 1 00000Q11 1 10200S11 1 00053V11 1 00000X11 1 34003
017699999903822197201010900E+32133-081200SAO  +0014SAV  V0203505N001552200059N024000599+00895+00785102075ADDAA101000095GF100005999999999999999999MA1999999101905EQDN01 00000JPWTH 1QNNG11U1 99999K11 1 00046L11 1 01500M11 1 30090N11 1 00000Q11 1 10207S11 1 00048V11 1 00000X11 1 35003
017699999903822197201011200E+32133-081200SAO  +0014SAV  V0200305N003652200059N019200599+01005+00835102185ADDAA101000095GF100005999999999999999999MA1999999102005EQDN01 00000JPWTH 1QNNG11U1 99999K11 1 00047L11 1 01200M11 1 30120N11 1 00000Q11 1 10218S11 1 00050V11 1 00000X11 1 03007
038899999903822197201011500E+32133-081200SAO  +0014SAV  V0200505N003650045749N011200599+01285+00895102355ADDAA101000095GA1999+004574064GA2999+999999999GA3999+999999999GA4999+999999999GD14085+9999999GD20005+9999999GD30005+9999999GD40005+9999999GF108055999999999999999999MA1999999102175EQDN01 00000JPWTH 1QNNE11 1 00610E11 1 00000E11 1 00000E11 1 00000G11 1 00015H11 1 15015H11 1 00999H11 1 00999H11 1 00999K11 1 00048L11 1 00700M11 1 30170N11 1 00000Q11 1 10235S11 1 00055V11 1 01006X11 1 05007
038899999903822197201011800E+32133-081200SAO  +0014SAV  V0200505N004652200059N011200599+01945+01225102115ADDAA101000095GA1999+006104064GA2999+067064004GA3999+999999999GA4999+999999999GD12015+9999999GD23055+9999993GD30005+9999999GD40005+9999999GF105025999999999999999999MA1999999101935EQDN01 00000JPWTH 1QNNE11 1 00201E11 1 00306E11 1 00000E11 1 00000G11U1 99999H11 1 15020H11 1 32220H11 1 00999H11 1 00999K11 1 00054L11 1 00700M11 1 30100N11 1 00000Q11 1 10211S11 1 00067V11 1 00603X11 1 05009
033499999903822197201012100E+32133-081200SAO  +0014SAV  V0200905N003650051849N011200599+01895+01285101945ADDAA101000095GA1999+005184064GA2999+011584064GD13055+9999999GD24085+9999999GD30995+9999999GD40995+9999999GF108085999999999999999999MA1999999101765EQDN01 00000JPWTH 1QNNE11 1 00406E11 1 00610E11 1 00099E11 1 00099G11 1 00017H11 1 15017H11 1 15038K11 1 00055L11 1 00700M11 1 30050N11 1 00000Q11 1 10194S11 1 00066V11 1 01010X11 1 09007
033499999903822197201020000E+32133-081200SAO  +0014SAV  V0201005N002650137249N011200599+01615+01335101915ADDAA101000095GA1999+004574064GA2999+013724064GD12025+9999999GD24085+9999999GD30995+9999999GD40995+9999999GF108085999999999999999999MA1999999101735EQDN01 00000JPWTH 1QNNE11 1 00203E11 1 00610E11 1 00099E11 1 00099G11 1 00045H11 1 15015H11 1 15045K11 1 00056L11 1 00700M11 1 30040N11 1 00000Q11 1 10191S11 1 00061V11 1 01010X11 1 10005
038899999903822197201020300E+32133-081200SAO  +0014SAV  V0201305N002652200059N011200599+01445+01225101815ADDAA101000095GA1999+085344004GA2999+999999999GA3999+999999999GA4999+999999999GD11025+9999993GD20005+9999999GD30005+9999999GD40005+9999999GF102005999999999999999999MA1999999101635EQDN01 00000JPWTH 1QNNE11 1 00102E11 1 00000E11 1 00000E11 1 00000G11U1 99999H11 1 32280H11 1 00999H11 1 00999H11 1 00999K11 1 00054L11 1 00700M11 1 30010N11 1 00000Q11 1 10181S11 1 00058V11 1 00200X11 1 13005
031999999903822197201020600E+32133-081200SAO  +0014SAV  V0201305N003150009149N001600599+01445+01285101535ADDAA101000095GA1999+000914074GD14085+9999999GD20995+9999999GD30995+9999999GD40995+9999999GF108085999999999999999999MA1999999101355MW1045MW2455EQDN01 07080JPWTH 1QNNE11 1 00610E11 1 00099E11 1 00099E11 1 00099G11 1 00003H11 1 16003K11 1 00055L11 1 00100M11 1 29930N11 1 07080Q11 1 10153S11 1 00058V11 1 01010X11 1 13006
031999999903822197201020900E+32133-081200SAO  +0014SAV  V0201405N002650003049N000200599+01445+01395101335ADDAA101000095GA1999+000304104GD15085+9999999GD20995+9999999GD30995+9999999GD40995+9999999GF108085999999999999999999MA1999999101155MW1045MW2455EQDN01 07080JPWTH 1QNNE11 1 00710E11 1 00099E11 1 00099E11 1 00099G11 1 00001H11 1 45001K11 1 00057L11 1 00012M11 1 29870N11 1 07080Q11 1 10133S11 1 00058V11 1 01010X11 1 14005
031999999903822197201021200E+32133-081200SAO  +0014SAV  V0201905N005250012249N003200599+01615+01505101205ADDAA101000095GA1999+001224074GD14085+9999999GD20995+9999999GD30995+9999999GD40995+9999999GF108085999999999999999999MA1999999101025MW1045MW2455EQDN01 07080JPWTH 1QNNE11 1 00610E11 1 00099E11 1 00099E11 1 00099G11 1 00004H11 1 16004K11 1 00059L11 1 00200M11 1 29830N11 1 07080Q11 1 10120S11 1 00061V11 1 01010X11 1 19010
036799999903822197201021500E+32133-081200SAO  +0014SAV  V0202305N005750021349N008000599+01835+01615101305ADDAA101000095GA1999+002134134GA2999+010674064GA3999+030484034GD13065+9999999GD23075+9999999GD34015+9999999GD40995+9999999GF108085999999999999999999MA1999999101125MW1045EQDN01 08000JPWTH 1QNNE11 1 00407E11 1 00409E11 1 00601E11 1 00099G11 1 00007H11 1 13007H11 1 15035H11 1 23100K11 1 00061L11 1 00500M11 1 29860N11 1 08000Q11 1 10130S11 1 00065V11 1 01010X11 1 23011
033499999903822197201021800E+32133-081200SAO  +0014SAV  V0202405N005250042749N011200599+02065+01615101065ADDAA101000095GA1999+004274064GA2999+010674064GD13065+9999999GD24085+9999999GD30995+9999999GD40995+9999999GF108085999999999999999999MA1999999100885EQDN01 00000JPWTH 1QNNE11 1 00408E11 1 00610E11 1 00099E11 1 00099G11 1 00014H11 1 15014H11 1 15035K11 1 00061L11 1 00700M11 1 29790N11 1 00000Q11 1 10106S11 1 00069V11 1 01010X11 1 24010
036199999903822197201022100E+32133-081200SAO  +0014SAV  V0202705N004650106749N011200599+01945+01505101035ADDAA101000095GA1999+004574154GA2999+010674064GA3999+024384034GD12025+9999999GD23065+9999999GD34085+9999999GD40995+9999999GF108085999999999999999999MA1999999100855EQDN01 00000JPWTH 1QNNE11 1 00202E11 1 00407E11 1 00610E11 1 00099G11 1 00035H11 1 17015H11 1 15035H11 1 23080K11 1 00059L11 1 00700M11 1 29780N11 1 00000Q11 1 10103S11 1 00067V11 1 01010X11 1 27009
033499999903822197201030000E+32133-081200SAO  +0014SAV  V0202605N002150457249N032000599+01675+01445101235ADDAA101000095GA1999+024384034GA2999+045724034GD12025+9999999GD24085+9999999GD30995+9999999GD40995+9999999GF108085999999999999999999MA1999999101055EQDN01 00000JPWTH 1QNNE11 1 00203E11 1 00610E11 1 00099E11 1 00099G11 1 00150H11 1 23080H11 1 23150K11 1 00058L11 1 02000M11 1 29840N11 1 00000Q11 1 10123S11 1 00062V11 1 01010X11 1 26004
038899999903822197201030300E+32133-081200SAO  +0014SAV  V02099959000052200059N032000599+01505+01395101405ADDAA101000095GA1999+030484034GA2999+085344024GA3999+999999999GA4999+999999999GD12025+9999999GD22015+9999999GD30005+9999999GD40005+9999999GF103035999999999999999999MA1999999101225EQDN01 00000JPWTH 1QNNE11 1 00203E11 1 00201E11 1 00000E11 1 00000G11U1 99999H11 1 23100H11 1 37280H11 1 00999H11 1 00999K11 1 00057L11 1 02000M11 1 29890N11 1 00000Q11 1 10140S11 1 00059V11 1 00404X11 1 00000
030799999903822197201030600E+32133-081200SAO  +0014SAV  V02099959000050243849N032000599+01335+01225101505ADDAA101000095GA1999+024384034GD14085+9999999GD20995+9999999GD30995+9999999GD40995+9999999GF108085999999999999999999MA1999999101325EQDN01 00000JPWTH 1QNNE11 1 00610E11 1 00099E11 1 00099E11 1 00099G11 1 00080H11 1 23080K11 1 00054L11 1 02000M11 1 29920N11 1 00000Q11 1 10150S11 1 00056V11 1 01010X11 1 00000
033499999903822197201030900E+32133-081200SAO  +0014SAV  V0203605N002650121949N011200599+01335+01225101645ADDAA101000095GA1999+004574064GA2999+012194064GD12025+9999999GD24085+9999999GD30995+9999999GD40995+9999999GF108085999999999999999999MA1999999101465EQDN01 00000JPWTH 1QNNE11 1 00203E11 1 00610E11 1 00099E11 1 00099G11 1 00040H11 1 15015H11 1 15040K11 1 00054L11 1 00700M11 1 29960N11 1 00000Q11 1 10164S11 1 00056V11 1 01010X11 1 36005
034099999903822197201031200E+32133-081200SAO  +0014SAV  V0200405N003650018349N008000599+01335+01225101745ADDAA101000095GA1999+001834064GA2999+004274064GD13065+9999999GD24085+9999999GD30995+9999999GD40995+9999999GF108085999999999999999999MA1999999101565MW1455EQDN01 07000JPWTH 1QNNE11 1 00407E11 1 00610E11 1 00099E11 1 00099G11 1 00006H11 1 15006H11 1 15014K11 1 00054L11 1 00500M11 1 29990N11 1 07000Q11 1 10174S11 1 00056V11 1 01010X11 1 04007
030799999903822197201031500E+32133-081200SAO  +0014SAV  V0200605N003650024449N011200599+01335+01175102115ADDAA101000095GA1999+002444064GD14085+9999999GD20995+9999999GD30995+9999999GD40995+9999999GF108085999999999999999999MA1999999101935EQDN01 00000JPWTH 1QNNE11 1 00610E11 1 00099E11 1 00099E11 1 00099G11 1 00008H11 1 15008K11 1 00053L11 1 00700M11 1 30100N11 1 00000Q11 1 10211S11 1 00056V11 1 01010X11 1 06007
031399999903822197201031800E+32133-081200SAO  +0014SAV  V0200505N004650045749N009600599+01675+01175101965ADDAA101000095GA1999+004574064GD14085+9999999GD20995+9999999GD30995+9999999GD40995+9999999GF108085999999999999999999MA1999999101795MW1045EQDN01 08200JPWTH 1QNNE11 1 00610E11 1 00099E11 1 00099E11 1 00099G11 1 00015H11 1 15015K11 1 00053L11 1 00600M11 1 30060N11 1 08200Q11 1 10196S11 1 00062V11 1 01010X11 1 05009
038899999903822197201032100E+32133-081200SAO  +0014SAV  V0200405N003650304849N011200599+01835+01225101975ADDAA101000095GA1999+006104064GA2999+030484034GA3999+076204004GA4999+999999999GD12035+9999999GD23025+9999999GD33025+9999999GD40005+9999999GF106055999999999999999999MA1999999101795EQDN01 00000JPWTH 1QNNE11 1 00204E11 1 00402E11 1 00402E11 1 00000G11 1 00100H11 1 15020H11 1 23100H11 1 32250H11 1 00999K11 1 00054L11 1 00700M11 1 30060N11 1 00000Q11 1 10197S11 1 00065V11 1 00806X11 1 04007
030799999903822197201040000E+32133-081200SAO  +0014SAV  V0200605N002150054949N012800599+01675+01285102045ADDAA101000095GA1999+005494064GD14085+9999999GD20995+9999999GD30995+9999999GD40995+9999999GF108085999999999999999999MA1999999101865EQDN01 00000JPWTH 1QNNE11 1 00610E11 1 00099E11 1 00099E11 1 00099G11 1 00018H11 1 15018K11 1 00055L11 1 00800M11 1 30080N11 1 00000Q11 1 10204S11 1 00062V11 1 01010X11 1 06004
030799999903822197201040300E+32133-081200SAO  +0014SAV  V0200805N002650036649N011200599+01565+01175102045ADDAA101000095GA1999+003664074GD14085+9999999GD20995+9999999GD30995+9999999GD40995+9999999GF108085999999999999999999MA1999999101865EQDN01 00000JPWTH 1QNNE11 1 00610E11 1 00099E11 1 00099E11 1 00099G11 1 00012H11 1 16012K11 1 00053L11 1 00700M11 1 30080N11 1 00000Q11 1 10204S11 1 00060V11 1 01010X11 1 08005
031399999903822197201040600E+32133-081200SAO  +0014SAV  V0201105N003150012249N002400599+01445+01225101875ADDAA101000095GA1999+001224074GD14085+9999999GD20995+9999999GD30995+9999999GD40995+9999999GF108085999999999999999999MA1999999101695MW1045EQDN01 08000JPWTH 1QNNE11 1 00610E11 1 00099E11 1 00099E11 1 00099G11 1 00004H11 1 16004K11 1 00054L11 1 00150M11 1 30030N11 1 08000Q11 1 10187S11 1 00058V11 1 01010X11 1 11006
035299999903822197201040900E+32133-081200SAO  +0014SAV  V0200105N002150003049N000400599+01445+01395101815ADDAA101000095GA1999+000304104GD15085+9999999GD20995+9999999GD30995+9999999GD40995+9999999GF108085999999999999999999MA1999999101635MW1045MW2455MW3515EQDN01 03370JPWTH 1N02 08000JPWTH 1QNNE11 1 00710E11 1 00099E11 1 00099E11 1 00099G11 1 00001H11 1 45001K11 1 00057L11 1 00025M11 1 30010N11 1 03370N11 1 08000Q11 1 10181S11 1 00058V11 1 01010X11 1 01004
031999999903822197201041200E+32133-081200SAO  +0014SAV  V0203105N001550003049N000200599+01335+01335101845ADDAA101000095GA1999+000304104GD15085+9999999GD20995+9999999GD30995+9999999GD40995+9999999GF108085999999999999999999MA1999999101665MW1045MW2455EQDN01 07080JPWTH 1QNNE11 1 00710E11 1 00099E11 1 00099E11 1 00099G11 1 00001H11 1 45001K11 1 00056L11 1 00012M11 1 30020N11 1 07080Q11 1 10184S11 1 00056V11 1 01010X11 1 31003
031999999903822197201041500E+32133-081200SAO  +0014SAV  V0201305N002650003049N000500599+01445+01335101945ADDAA101000095GA1999+000304104GD15085+9999999GD20995+9999999GD30995+9999999GD40995+9999999GF108085999999999999999999MA1999999101765MW1045MW2455EQDN01 07080JPWTH 1QNNE11 1 00710E11 1 00099E11 1 00099E11 1 00099G11 1 00001H11 1 45001K11 1 00056L11 1 00031M11 1 30050N11 1 07080Q11 1 10194S11 1 00058V11 1 01010X11 1 13005
031399999903822197201041800E+32133-081200SAO  +0014SAV  V0201805N005250015249N008000599+01895+01675101675ADDAA101000095GA1999+001524074GD14085+9999999GD20995+9999999GD30995+9999999GD40995+9999999GF108085999999999999999999MA1999999101495MW1045EQDN01 08200JPWTH 1QNNE11 1 00610E11 1 00099E11 1 00099E11 1 00099G11 1 00005H11 1 16005K11 1 00062L11 1 00500M11 1 29970N11 1 08200Q11 1 10167S11 1 00066V11 1 01010X11 1 18010
039499999903822197201042100E+32133-081200SAO  +0014SAV  V0201705N003650762049N009600599+02115+01785101475ADDAA101000095GA1999+003054064GA2999+076204024GA3999+999999999GA4999+999999999GD12015+9999999GD24085+9999999GD30005+9999999GD40005+9999999GF108075999999999999999999MA1999999101295MW1045EQDN01 08200JPWTH 1QNNE11 1 00201E11 1 00610E11 1 00000E11 1 00000G11 1 00250H11 1 15010H11 1 37250H11 1 00999H11 1 00999K11 1 00064L11 1 00600M11 1 29910N11 1 08200Q11 1 10147S11 1 00070V11 1 01009X11 1 17007
039499999903822197201050000E+32133-081200SAO  +0014SAV  V0201905N002150762049N006400599+01895+01725101435ADDAA101000095GA1999+076204024GA2999+999999999GA3999+999999999GA4999+999999999GD13065+9999999GD20005+9999999GD30005+9999999GD40005+9999999GF106065999999999999999999MA1999999101255MW1045EQDN01 08200JPWTH 1QNNE11 1 00408E11 1 00000E11 1 00000E11 1 00000G11 1 00250H11 1 37250H11 1 00999H11 1 00999H11 1 00999K11 1 00063L11 1 00400M11 1 29900N11 1 08200Q11 1 10143S11 1 00066V11 1 00808X11 1 19004
038899999903822197201050300E+32133-081200SAO  +0014SAV  V0201905N005250762049N016000599+01835+01725101365ADDAA101000095GA1999+076204024GA2999+999999999GA3999+999999999GA4999+999999999GD13065+9999999GD20005+9999999GD30005+9999999GD40005+9999999GF106065999999999999999999MA1999999101195EQDN01 00000JPWTH 1QNNE11 1 00408E11 1 00000E11 1 00000E11 1 00000G11 1 00250H11 1 37250H11 1 00999H11 1 00999H11 1 00999K11 1 00063L11 1 01000M11 1 29880N11 1 00000Q11 1 10136S11 1 00065V11 1 00808X11 1 19010
038899999903822197201050600E+32133-081200SAO  +0014SAV  V0202205N005750039649N032000599+01945+01725101265ADDAA101000095GA1999+003964064GA2999+076204024GA3999+999999999GA4999+999999999GD13065+9999999GD23025+9999999GD30005+9999999GD40005+9999999GF107065999999999999999999MA1999999101085EQDN01 00000JPWTH 1QNNE11 1 00408E11 1 00403E11 1 00000E11 1 00000G11 1 00013H11 1 15013H11 1 37250H11 1 00999H11 1 00999K11 1 00063L11 1 02000M11 1 29850N11 1 00000Q11 1 10126S11 1 00067V11 1 00907X11 1 22011
038899999903822197201050900E+32133-081200SAO  +0014SAV  V0202005N006750128049N032000599+02115+01835101165ADDAA101000095GA1999+012804064GA2999+999999999GA3999+999999999GA4999+999999999GD13065+9999999GD20005+9999999GD30005+9999999GD40005+9999999GF106065999999999999999999MA1999999100985EQDN01 00000JPWTH 1QNNE11 1 00408E11 1 00000E11 1 00000E11 1 00000G11 1 00042H11 1 15042H11 1 00999H11 1 00999H11 1 00999K11 1 00065L11 1 02000M11 1 29820N11 1 00000Q11 1 10116S11 1 00070V11 1 00808X11 1 20013
033499999903822197201051200E+32133-081200SAO  +0014SAV  V0202105N005750085349N016000599+02115+01835101095ADDAA101000095GA1999+004274064GA2999+008534064GD12035+9999999GD24085+9999999GD30995+9999999GD40995+9999999GF108085999999999999999999MA1999999100915EQDN01 00000JPWTH 1QNNE11 1 00204E11 1 00610E11 1 00099E11 1 00099G11 1 00028H11 1 15014H11 1 15028K11 1 00065L11 1 01000M11 1 29800N11 1 00000Q11 1 10109S11 1 00070V11 1 01010X11 1 21011
036799999903822197201051500E+32133-081200SAO  +0014SAV  V0202505N006750061049N009600599+02175+01945101305ADDAA101000895GA1999+002444134GA2999+006104084GA3999+030484034GD12025+9999999GD23045+9999999GD34025+9999999GD40995+9999999GF108085999999999999999999MA1999999101125MW1805EQDN01 02300JPWTH 1QNNE11 1 00202E11 1 00405E11 1 00603E11 1 00099G11 1 00020H11 1 13008H11 1 11020H11 1 23100K11 1 00067L11 1 00600M11 1 29860N11 1 02300Q11 1 10130S11 1 00071V11 1 01010X11 1 25013
033499999903822197201051800E+32133-081200SAO  +0014SAV  V0202605N004150115849N011200599+01835+01175101355ADDAA101000095GA1999+999999064GA2999+011584064GD14005+9999999GD20085+9999999GD30995+9999999GD40995+9999999GF108085999999999999999999MA1999999101195EQDN01 00000JPWTH 1QNNE11 1 00600E11 1 00010E11 1 00099E11 1 00099G11 1 00038H11 1 15999H11 1 15038K11 1 00053L11 1 00700M11 1 29880N11 1 00000Q11 1 10135S11 1 00065V11 1 01010X11 1 26008
038899999903822197201052100E+32133-081200SAO  +0014SAV  V0203105N005250670649N011200599+01675+00945101405ADDAA101000095GA1999+009144064GA2999+067064004GA3999+999999999GA4999+999999999GD12025+9999999GD23075+9999999GD30005+9999999GD40005+9999999GF107045999999999999999999MA1999999101225EQDN01 00000JPWTH 1QNNE11 1 00202E11 1 00409E11 1 00000E11 1 00000G11 1 00220H11 1 15030H11 1 32220H11 1 00999H11 1 00999K11 1 00049L11 1 00700M11 1 29890N11 1 00000Q11 1 10140S11 1 00062V11 1 00905X11 1 31010
038899999903822197201060000E+32133-081200SAO  +0014SAV  V0203005N003650762049N032000599+01285+00565101605ADDAA101000095GA1999+076204024GA2999+999999999GA3999+999999999GA4999+999999999GD13055+9999999GD20005+9999999GD30005+9999999GD40005+9999999GF105035999999999999999999MA1999999101425EQDN01 00000JPWTH 1QNNE11 1 00406E11 1 00000E11 1 00000E11 1 00000G11 1 00250H11 1 37250H11 1 00999H11 1 00999H11 1 00999K11 1 00042L11 1 02000M11 1 29950N11 1 00000Q11 1 10160S11 1 00055V11 1 00604X11 1 30007
038899999903822197201060300E+32133-081200SAO  +0014SAV  V0203105N004152200059N032000599+01005+00395101845ADDAA101000095GA1999+076204024GA2999+999999999GA3999+999999999GA4999+999999999GD12025+9999999GD20005+9999999GD30005+9999999GD40005+9999999GF102025999999999999999999MA1999999101665EQDN01 00000JPWTH 1QNNE11 1 00203E11 1 00000E11 1 00000E11 1 00000G11U1 99999H11 1 37250H11 1 00999H11 1 00999H11 1 00999K11 1 00039L11 1 02000M11 1 30020N11 1 00000Q11 1 10184S11 1 00050V11 1 00303X11 1 31008
038899999903822197201060600E+32133-081200SAO  +0014SAV  V0203305N003652200059N032000599+00675+00175101815ADDAA101000095GA1999+076204024GA2999+999999999GA3999+999999999GA4999+999999999GD13055+9999993GD20005+9999999GD30005+9999999GD40005+9999999GF105025999999999999999999MA1999999101635EQDN01 00000JPWTH 1QNNE11 1 00306E11 1 00000E11 1 00000E11 1 00000G11U1 99999H11 1 37250H11 1 00999H11 1 00999H11 1 00999K11 1 00035L11 1 02000M11 1 30010N11 1 00000Q11 1 10181S11 1 00044V11 1 00603X11 1 33007
038899999903822197201060900E+32133-081200SAO  +0014SAV  V0203505N002652200059N032000599+00445+00115101845ADDAA101000095GA1999+076204024GA2999+999999999GA3999+999999999GA4999+999999999GD13065+9999993GD20005+9999999GD30005+9999999GD40005+9999999GF106025999999999999999999MA1999999101665EQDN01 00000JPWTH 1QNNE11 1 00307E11 1 00000E11 1 00000E11 1 00000G11U1 99999H11 1 37250H11 1 00999H11 1 00999H11 1 00999K11 1 00034L11 1 02000M11 1 30020N11 1 00000Q11 1 10184S11 1 00040V11 1 00702X11 1 35005
038899999903822197201061200E+32133-081200SAO  +0014SAV  V0203605N002150030549N032000599+00445+00175101915ADDAA101000095GA1999+003054064GA2999+076204024GA3999+999999999GA4999+999999999GD13065+9999999GD24045+9999999GD30005+9999999GD40005+9999999GF108065999999999999999999MA1999999101735EQDN01 00000JPWTH 1QNNE11 1 00408E11 1 00605E11 1 00000E11 1 00000G11 1 00010H11 1 15010H11 1 37250H11 1 00999H11 1 00999K11 1 00035L11 1 02000M11 1 30040N11 1 00000Q11 1 10191S11 1 00040V11 1 01007X11 1 36004
038899999903822197201061500E+32133-081200SAO  +0014SAV  V0200405N002650762049N011200599+00835+00065102065ADDAA101000095GA1999+036584034GA2999+076204024GA3999+999999999GA4999+999999999GD12035+9999999GD23075+9999999GD30005+9999999GD40005+9999999GF107055999999999999999999MA1999999101905EQDN01 00000JPWTH 1QNNE11 1 00204E11 1 00409E11 1 00000E11 1 00000G11 1 00250H11 1 23120H11 1 37250H11 1 00999H11 1 00999K11 1 00033L11 1 00700M11 1 30090N11 1 00000Q11 1 10206S11 1 00047V11 1 00906X11 1 04005
030799999903822197201061800E+32133-081200SAO  +0014SAV  V0203205N003650365849N011200599+01115+00225101915ADDAA101000095GA1999+036584034GD14085+9999999GD20995+9999999GD30995+9999999GD40995+9999999GF108085999999999999999999MA1999999101735EQDN01 00000JPWTH 1QNNE11 1 00610E11 1 00099E11 1 00099E11 1 00099G11 1 00120H11 1 23120K11 1 00036L11 1 00700M11 1 30040N11 1 00000Q11 1 10191S11 1 00052V11 1 01010X11 1 32007
038899999903822197201062100E+32133-081200SAO  +0014SAV  V0203105N003650365849N011200599+01005+00225101915ADDAA101000095GA1999+024384034GA2999+036584034GA3999+076204024GA4999+999999999GD12025+9999999GD23065+9999999GD33025+9999999GD40005+9999999GF107065999999999999999999MA1999999101735EQDN01 00000JPWTH 1QNNE11 1 00202E11 1 00407E11 1 00402E11 1 00000G11 1 00120H11 1 23080H11 1 23120H11 1 37250H11 1 00999K11 1 00036L11 1 00700M11 1 30040N11 1 00000Q11 1 10191S11 1 00050V11 1 00908X11 1 31007
038899999903822197201070000E+32133-081200SAO  +0014SAV  V0203005N001550365849N024000599+00675+00225102115ADDAA101000095GA1999+036584034GA2999+076204004GA3999+999999999GA4999+999999999GD13055+9999999GD23015+9999999GD30005+9999999GD40005+9999999GF106055999999999999999999MA1999999101935EQDN01 00000JPWTH 1QNNE11 1 00406E11 1 00401E11 1 00000E11 1 00000G11 1 00120H11 1 23120H11 1 32250H11 1 00999H11 1 00999K11 1 00036L11 1 01500M11 1 30100N11 1 00000Q11 1 10211S11 1 00044V11 1 00706X11 1 30003
038899999903822197201070300E+32133-081200SAO  +0014SAV  V0202905N001552200059N019200599+00225+00115102275ADDAA101000095GA1999+036584034GA2999+076204004GA3999+999999999GA4999+999999999GD12025+9999999GD22015+9999999GD30005+9999999GD40005+9999999GF102025999999999999999999MA1999999102105EQDN01 00000JPWTH 1QNNE11 1 00202E11 1 00201E11 1 00000E11 1 00000G11U1 99999H11 1 23120H11 1 32250H11 1 00999H11 1 00999K11 1 00034L11 1 01200M11 1 30150N11 1 00000Q11 1 10227S11 1 00036V11 1 00302X11 1 29003
017699999903822197201070600E+32133-081200SAO  +0014SAV  V02099959000052200059N019200599+00065-00065102285ADDAA101000095GF100005999999999999999999MA1999999102105EQDN01 00000JPWTH 1QNNG11U1 99999K11 1 00031L11 1 01200M11 1 30150N11 1 00000Q11 1 10228S11 1 00033V11 1 00000X11 1 00000
017699999903822197201070900E+32133-081200SAO  +0014SAV  V0203005N002652200059N019200599+00005-00115102385ADDAA101000095GF100005999999999999999999MA1999999102205EQDN01 00000JPWTH 1QNNG11U1 99999K11 1 00030L11 1 01200M11 1 30180N11 1 00000Q11 1 10238S11 1 00032V11 1 00000X11 1 30005
017699999903822197201071200E+32133-081200SAO  +0014SAV  V0202905N002152200059N032000599-00115-00285102585ADDAA101000095GF100005999999999999999999MA1999999102405EQDN01 00000JPWTH 1QNNG11U1 99999K11 1 00027L11 1 02000M11 1 30240N11 1 00000Q11 1 10258S11 1 00030V11 1 00000X11 1 29004
017699999903822197201071500E+32133-081200SAO  +0014SAV  V0203205N002152200059N011200599+00505-00225102825ADDAA101000095GF100005999999999999999999MA1999999102645EQDN01 00000JPWTH 1QNNG11U1 99999K11 1 00028L11 1 00700M11 1 30310N11 1 00000Q11 1 10282S11 1 00041V11 1 00000X11 1 32004
017699999903822197201071800E+32133-081200SAO  +0014SAV  V0202705N003152200059N011200599+01335-00395102625ADDAA101000095GF100005999999999999999999MA1999999102445EQDN01 00000JPWTH 1QNNG11U1 99999K11 1 00025L11 1 00700M11 1 30250N11 1 00000Q11 1 10262S11 1 00056V11 1 00000X11 1 27006
017699999903822197201072100E+32133-081200SAO  +0014SAV  V0203105N005252200059N011200599+01725-00445102585ADDAA101000095GF100005999999999999999999MA1999999102405EQDN01 00000JPWTH 1QNNG11U1 99999K11 1 00024L11 1 00700M11 1 30240N11 1 00000Q11 1 10258S11 1 00063V11 1 00000X11 1 31010
017699999903822197201080000E+32133-081200SAO  +0014SAV  V0203305N002152200059N024000599+00895-00225102795ADDAA101000095GF100005999999999999999999MA1999999102615EQDN01 00000JPWTH 1QNNG11U1 99999K11 1 00028L11 1 01500M11 1 30300N11 1 00000Q11 1 10279S11 1 00048V11 1 00000X11 1 33004
017699999903822197201080300E+32133-081200SAO  +0014SAV  V0202705N001552200059N024000599+00335-00065102925ADDAA101000095GF100005999999999999999999MA1999999102745EQDN01 00000JPWTH 1QNNG11U1 99999K11 1 00031L11 1 01500M11 1 30340N11 1 00000Q11 1 10292S11 1 00038V11 1 00000X11 1 27003
017699999903822197201080600E+32133-081200SAO  +0014SAV  V02099959000052200059N032000599+00225-00175102855ADDAA101000095GF100005999999999999999999MA1999999102685EQDN01 00000JPWTH 1QNNG11U1 99999K11 1 00029L11 1 02000M11 1 30320N11 1 00000Q11 1 10285S11 1 00036V11 1 00000X11 1 00000
017699999903822197201080900E+32133-081200SAO  +0014SAV  V0203605N002152200059N032000599-00065-00335102895ADDAA101000095GF100005999999999999999999MA1999999102715EQDN01 00000JPWTH 1QNNG11U1 99999K11 1 00026L11 1 02000M11 1 30330N11 1 00000Q11 1 10289S11 1 00031V11 1 00000X11 1 36004
038899999903822197201081200E+32133-081200SAO  +0014SAV  V0200305N003152200059N032000599+00175-00285102965ADDAA101000095GA1999+999999004GA2999+999999999GA3999+999999999GA4999+999999999GD10005+9999999GD20005+9999999GD30005+9999999GD40005+9999999GF100005999999999999999999MA1999999102785EQDN01 00000JPWTH 1QNNE11 1 00000E11 1 00000E11 1 00000E11 1 00000G11U1 99999H11 1 32999H11 1 00999H11 1 00999H11 1 00999K11 1 00027L11 1 02000M11 1 30350N11 1 00000Q11 1 10296S11 1 00035V11 1 00000X11 1 03006
017699999903822197201081500E+32133-081200SAO  +0014SAV  V0200305N005252200059N011200599+00945-00285103265ADDAA101000095GF100005999999999999999999MA1999999103085EQDN01 00000JPWTH 1QNNG11U1 99999K11 1 00027L11 1 00700M11 1 30440N11 1 00000Q11 1 10326S11 1 00049V11 1 00000X11 1 03010
017699999903822197201081800E+32133-081200SAO  +0014SAV  V0200805N006252200059N011200599+01445-00175103065ADDAA101000095GF100005999999999999999999MA1999999102885EQDN01 00000JPWTH 1QNNG11U1 99999K11 1 00029L11 1 00700M11 1 30380N11 1 00000Q11 1 10306S11 1 00058V11 1 00000X11 1 08012
017699999903822197201082100E+32133-081200SAO  +0014SAV  V0200605N005252200059N011200599+01445+00175102895ADDAA101000095GF100005999999999999999999MA1999999102715EQDN01 00000JPWTH 1QNNG11U1 99999K11 1 00035L11 1 00700M11 1 30330N11 1 00000Q11 1 10289S11 1 00058V11 1 00000X11 1 06010
017699999903822197201090000E+32133-081200SAO  +0014SAV  V0200605N004152200059N019200599+00945+00395102895ADDAA101000095GF100005999999999999999999MA1999999102715EQDN01 00000JPWTH 1QNNG11U1 99999K11 1 00039L11 1 01200M11 1 30330N11 1 00000Q11 1 10289S11 1 00049V11 1 00000X11 1 06008
017699999903822197201090300E+32133-081200SAO  +0014SAV  V0200705N003152200059N019200599+00675+00445102785ADDAA101000095GF100005999999999999999999MA1999999102615EQDN01 00000JPWTH 1QNNG11U1 99999K11 1 00040L11 1 01200M11 1 30300N11 1 00000Q11 1 10278S11 1 00044V11 1 00000X11 1 07006
017699999903822197201090600E+32133-081200SAO  +0014SAV  V0200605N003152200059N016000599+00675+00505102525ADDAA101000095GF100005999999999999999999MA1999999102345EQDN01 00000JPWTH 1QNNG11U1 99999K11 1 00041L11 1 01000M11 1 30220N11 1 00000Q11 1 10252S11 1 00044V11 1 00000X11 1 06006
038899999903822197201090900E+32133-081200SAO  +0014SAV  V0200605N002650115849N016000599+00725+00565102385ADDAA101000095GA1999+011584064GA2999+091444024GA3999+999999999GA4999+999999999GD13065+9999999GD23025+9999999GD30005+9999999GD40005+9999999GF106065999999999999999999MA1999999102205EQDN01 00000JPWTH 1QNNE11 1 00407E11 1 00402E11 1 00000E11 1 00000G11 1 00038H11 1 15038H11 1 37300H11 1 00999H11 1 00999K11 1 00042L11 1 01000M11 1 30180N11 1 00000Q11 1 10238S11 1 00045V11 1 00807X11 1 06005
038899999903822197201091200E+32133-081200SAO  +0014SAV  V0200405N002150115849N016000599+00785+00615102315ADDAA101000095GA1999+011584064GA2999+999999999GA3999+999999999GA4999+999999999GD13065+9999999GD20005+9999999GD30005+9999999GD40005+9999999GF106065999999999999999999MA1999999102135EQDN01 00000JPWTH 1QNNE11 1 00408E11 1 00000E11 1 00000E11 1 00000G11 1 00038H11 1 15038H11 1 00999H11 1 00999H11 1 00999K11 1 00043L11 1 01000M11 1 30160N11 1 00000Q11 1 10231S11 1 00046V11 1 00807X11 1 04004
039499999903822197201091500E+32133-081200SAO  +0014SAV  V0201205N002150853449N004800599+01445+01065102315ADDAA101000095GA1999+085344024GA2999+999999999GA3999+999999999GA4999+999999999GD13065+9999999GD20005+9999999GD30005+9999999GD40005+9999999GF106045999999999999999999MA1999999102135MW1045EQDN01 08000JPWTH 1QNNE11 1 00408E11 1 00000E11 1 00000E11 1 00000G11 1 00280H11 1 37280H11 1 00999H11 1 00999H11 1 00999K11 1 00051L11 1 00300M11 1 30160N11 1 08000Q11 1 10231S11 1 00058V11 1 00805X11 1 12004
038899999903822197201091800E+32133-081200SAO  +0014SAV  V0202105N011350106749N011200599+02285+01395101875ADDAA101000095GA1999+010674084GA2999+085344024GA3999+999999999GA4999+999999999GD13055+9999999GD23075+9999999GD30005+9999999GD40005+9999999GF107065999999999999999999MA1999999101695EQDN01 00000JPWTH 1QNNE11 1 00406E11 1 00409E11 1 00000E11 1 00000G11 1 00035H11 1 11035H11 1 37280H11 1 00999H11 1 00999K11 1 00057L11 1 00700M11 1 30030N11 1 00000Q11 1 10187S11 1 00073V11 1 00907X11 1 21022
038899999903822197201092100E+32133-081200SAO  +0014SAV  V0202105N004650762049N011200599+02335+01175101705ADDAA101000095GA1999+010674064GA2999+036584034GA3999+076204024GA4999+999999999GD12025+9999999GD22025+9999999GD33065+9999999GD40005+9999999GF106045999999999999999999MA1999999101525EQDN01 00000JPWTH 1QNNE11 1 00203E11 1 00202E11 1 00408E11 1 00000G11 1 00250H11 1 15035H11 1 23120H11 1 37250H11 1 00999K11 1 00053L11 1 00700M11 1 29980N11 1 00000Q11 1 10170S11 1 00074V11 1 00805X11 1 21009
038899999903822197201100000E+32133-081200SAO  +0014SAV  V0201805N003652200059N032000599+01835+01335101675ADDAA101000095GA1999+036584034GA2999+076204004GA3999+999999999GA4999+999999999GD12015+9999999GD21035+9999993GD30005+9999999GD40005+9999999GF104025999999999999999999MA1999999101495EQDN01 00000JPWTH 1QNNE11 1 00201E11 1 00104E11 1 00000E11 1 00000G11U1 99999H11 1 23120H11 1 32250H11 1 00999H11 1 00999K11 1 00056L11 1 02000M11 1 29970N11 1 00000Q11 1 10167S11 1 00065V11 1 00502X11 1 18007
038899999903822197201100300E+32133-081200SAO  +0014SAV  V0201805N003652200059N032000599+01675+01395101705ADDAA101000095GA1999+036584034GA2999+076204024GA3999+999999999GA4999+999999999GD12025+9999999GD23055+9999993GD30005+9999999GD40005+9999999GF106025999999999999999999MA1999999101525EQDN01 00000JPWTH 1QNNE11 1 00202E11 1 00306E11 1 00000E11 1 00000G11U1 99999H11 1 23120H11 1 37250H11 1 00999H11 1 00999K11 1 00057L11 1 02000M11 1 29980N11 1 00000Q11 1 10170S11 1 00062V11 1 00703X11 1 18007
030799999903822197201100600E+32133-081200SAO  +0014SAV  V0202005N003650365849N032000599+01675+01395101645ADDAA101000095GA1999+036584034GD14085+9999999GD20995+9999999GD30995+9999999GD40995+9999999GF108085999999999999999999MA1999999101465EQDN01 00000JPWTH 1QNNE11 1 00610E11 1 00099E11 1 00099E11 1 00099G11 1 00120H11 1 23120K11 1 00057L11 1 02000M11 1 29960N11 1 00000Q11 1 10164S11 1 00062V11 1 01010X11 1 20007
033499999903822197201100900E+32133-081200SAO  +0014SAV  V0201905N004650335349N032000599+01785+01505101575ADDAA101000095GA1999+033534034GA2999+076204024GD13065+9999999GD24085+9999999GD30995+9999999GD40995+9999999GF108085999999999999999999MA1999999101395EQDN01 00000JPWTH 1QNNE11 1 00407E11 1 00610E11 1 00099E11 1 00099G11 1 00110H11 1 23110H11 1 37250K11 1 00059L11 1 02000M11 1 29940N11 1 00000Q11 1 10157S11 1 00064V11 1 01010X11 1 19009
033499999903822197201101200E+32133-081200SAO  +0014SAV  V0202505N002150018349N011200599+01675+01505101535ADDAA101000095GA1999+001834074GA2999+033534034GD13065+9999999GD24085+9999999GD30995+9999999GD40995+9999999GF108085999999999999999999MA1999999101355EQDN01 00000JPWTH 1QNNE11 1 00407E11 1 00610E11 1 00099E11 1 00099G11 1 00006H11 1 16006H11 1 23110K11 1 00059L11 1 00700M11 1 29930N11 1 00000Q11 1 10153S11 1 00062V11 1 01010X11 1 25004
039499999903822197201101500E+32133-081200SAO  +0014SAV  V0201905N005250853449N008000599+02115+01615101605ADDAA101000095GA1999+002444064GA2999+085344014GA3999+999999999GA4999+999999999GD12025+9999999GD23045+9999999GD30005+9999999GD40005+9999999GF106065999999999999999999MA1999999101425MW1055EQDN01 08100JPWTH 1QNNE11 1 00203E11 1 00405E11 1 00000E11 1 00000G11 1 00280H11 1 15008H11 1 39280H11 1 00999H11 1 00999K11 1 00061L11 1 00500M11 1 29950N11 1 08100Q11 1 10160S11 1 00070V11 1 00808X11 1 19010
038899999903822197201101800E+32133-081200SAO  +0014SAV  V0202405N008250085349N011200599+02615+01675101365ADDAA101000095GA1999+008534084GA2999+085344004GA3999+999999999GA4999+999999999GD13055+9999999GD23025+9999999GD30005+9999999GD40005+9999999GF106055999999999999999999MA1999999101195EQDN01 00000JPWTH 1QNNE11 1 00406E11 1 00402E11 1 00000E11 1 00000G11 1 00028H11 1 11028H11 1 32280H11 1 00999H11 1 00999K11 1 00062L11 1 00700M11 1 29880N11 1 00000Q11 1 10136S11 1 00079V11 1 00806X11 1 24016
038899999903822197201102100E+32133-081200SAO  +0014SAV  V0201505N011850853449N011200599+02675+01615101165ADDAA101000095GA1999+011584084GA2999+085344024GA3999+999999999GA4999+999999999GD12045+9999999GD23065+9999999GD30005+9999999GD40005+9999999GF106055999999999999999999MA1999999100985EQDN01 00000JPWTH 1QNNE11 1 00205E11 1 00408E11 1 00000E11 1 00000G11 1 00280H11 1 11038H11 1 37280H11 1 00999H11 1 00999K11 1 00061L11 1 00700M11 1 29820N11 1 00000Q11 1 10116S11 1 00080V11 1 00806X11 1 15023
038899999903822197201110000E+32133-081200SAO  +0014SAV  V0202105N003652200059N024000599+02285+01675101365ADDAA101000095GA1999+036584034GA2999+085344024GA3999+999999999GA4999+999999999GD12025+9999999GD23065+9999993GD30005+9999999GD40005+9999999GF106025999999999999999999MA1999999101195EQDN01 00000JPWTH 1QNNE11 1 00202E11 1 00308E11 1 00000E11 1 00000G11U1 99999H11 1 23120H11 1 37280H11 1 00999H11 1 00999K11 1 00062L11 1 01500M11 1 29880N11 1 00000Q11 1 10136S11 1 00073V11 1 00803X11 1 21007
033499999903822197201110300E+32133-081200SAO  +0014SAV  V0201805N004650228649N024000599+02115+01725101535ADDAA101000095GA1999+022864034GA2999+036584034GD13055+9999999GD24035+9999999GD30995+9999999GD40995+9999999GF108085999999999999999999MA1999999101355EQDN01 00000JPWTH 1QNNE11 1 00406E11 1 00604E11 1 00099E11 1 00099G11 1 00075H11 1 23075H11 1 23120K11 1 00063L11 1 01500M11 1 29930N11 1 00000Q11 1 10153S11 1 00070V11 1 01010X11 1 18009
033499999903822197201110600E+32133-081200SAO  +0014SAV  V0202105N004150061049N012800599+02005+01835101535ADDAA101000395GA1999+006104064GA2999+015244064GD13055+9999999GD24035+9999999GD30995+9999999GD40995+9999999GF108085999999999999999999MA1999999101355EQDN01 00000JPWTH 1QNNE11 1 00406E11 1 00604E11 1 00099E11 1 00099G11 1 00020H11 1 15020H11 1 15050K11 1 00065L11 1 00800M11 1 29930N11 1 00000Q11 1 10153S11 1 00068V11 1 01010X11 1 21008
033499999903822197201110900E+32133-081200SAO  +0014SAV  V0202305N004150115849N012800599+02005+01785101535ADDAA101000095GA1999+011584064GA2999+027434034GD13055+9999999GD24035+9999999GD30995+9999999GD40995+9999999GF108085999999999999999999MA1999999101355EQDN01 00000JPWTH 1QNNE11 1 00406E11 1 00604E11 1 00099E11 1 00099G11 1 00038H11 1 15038H11 1 23090K11 1 00064L11 1 00800M11 1 29930N11 1 00000Q11 1 10153S11 1 00068V11 1 01010X11 1 23008
033499999903822197201111200E+32133-081200SAO  +0014SAV  V0202105N005250033549N012800599+02065+01835101535ADDAA101000095GA1999+003354074GA2999+027434034GD13055+9999999GD24085+9999999GD30995+9999999GD40995+9999999GF108085999999999999999999MA1999999101355EQDN01 00000JPWTH 1QNNE11 1 00406E11 1 00610E11 1 00099E11 1 00099G11 1 00011H11 1 16011H11 1 23090K11 1 00065L11 1 00800M11 1 29930N11 1 00000Q11 1 10153S11 1 00069V11 1 01010X11 1 21010
033499999903822197201111500E+32133-081200SAO  +0014SAV  V0201905N006250152449N011200599+02175+01835101605ADDAA101000095GA1999+003054074GA2999+015244064GD12035+9999999GD24085+9999999GD30995+9999999GD40995+9999999GF108085999999999999999999MA1999999101425EQDN01 00000JPWTH 1QNNE11 1 00204E11 1 00610E11 1 00099E11 1 00099G11 1 00050H11 1 16010H11 1 15050K11 1 00065L11 1 00700M11 1 29950N11 1 00000Q11 1 10160S11 1 00071V11 1 01010X11 1 19012
033499999903822197201111800E+32133-081200SAO  +0014SAV  V0202005N006250076249N011200599+02615+01785101405ADDAA101000095GA1999+007624084GA2999+085344004GD13065+9999999GD24025+9999999GD30995+9999999GD40995+9999999GF108085999999999999999999MA1999999101225EQDN01 00000JPWTH 1QNNE11 1 00407E11 1 00603E11 1 00099E11 1 00099G11 1 00025H11 1 11025H11 1 32280K11 1 00064L11 1 00700M11 1 29890N11 1 00000Q11 1 10140S11 1 00079V11 1 01010X11 1 20012
034099999903822197201112100E+32133-081200SAO  +0014SAV  V0202105N003150121949N011200599+01785+01505101475ADDAA101007995GA1999+012194064GA2999+030484054GD13055+9999999GD24085+9999999GD30995+9999999GD40995+9999999GF108085999999999999999999MA1999999101295MW1615EQDN01 02000JPWTH 1QNNE11 1 00406E11 1 00610E11 1 00099E11 1 00099G11 1 00040H11 1 15040H11 1 22100K11 1 00059L11 1 00700M11 1 29910N11 1 02000Q11 1 10147S11 1 00064V11 1 01010X11 1 21006
033499999903822197201120000E+32133-081200SAO  +0014SAV  V0201905N004150106749N011200599+01835+01725101645ADDAA101000395GA1999+010674064GA2999+030484044GD13055+9999999GD24085+9999999GD30995+9999999GD40995+9999999GF108085999999999999999999MA1999999101465EQDN01 00000JPWTH 1QNNE11 1 00406E11 1 00610E11 1 00099E11 1 00099G11 1 00035H11 1 15035H11 1 21100K11 1 00063L11 1 00700M11 1 29960N11 1 00000Q11 1 10164S11 1 00065V11 1 01010X11 1 19008
034099999903822197201120300E+32133-081200SAO  +0014SAV  V0202205N003650304849N024000599+01835+01725101705ADDAA101000395GA1999+010674064GA2999+030484044GD12025+9999999GD24085+9999999GD30995+9999999GD40995+9999999GF108085999999999999999999MA1999999101525MW1805EQDN01 02300JPWTH 1QNNE11 1 00203E11 1 00610E11 1 00099E11 1 00099G11 1 00100H11 1 15035H11 1 21100K11 1 00063L11 1 01500M11 1 29980N11 1 02300Q11 1 10170S11 1 00065V11 1 01010X11 1 22007
033499999903822197201120600E+32133-081200SAO  +0014SAV  V0202305N002650033549N024000599+01725+01615101675ADDAA101000095GA1999+003354074GA2999+030484034GD13065+9999999GD24085+9999999GD30995+9999999GD40995+9999999GF108085999999999999999999MA1999999101495EQDN01 00000JPWTH 1QNNE11 1 00407E11 1 00610E11 1 00099E11 1 00099G11 1 00011H11 1 16011H11 1 23100K11 1 00061L11 1 01500M11 1 29970N11 1 00000Q11 1 10167S11 1 00063V11 1 01010X11 1 23005
031399999903822197201120900E+32133-081200SAO  +0014SAV  V0202505N001550012249N006400599+01725+01615101705ADDAA101000095GA1999+001224074GD14085+9999999GD20995+9999999GD30995+9999999GD40995+9999999GF108085999999999999999999MA1999999101525MW1455EQDN01 07000JPWTH 1QNNE11 1 00610E11 1 00099E11 1 00099E11 1 00099G11 1 00004H11 1 16004K11 1 00061L11 1 00400M11 1 29980N11 1 07000Q11 1 10170S11 1 00063V11 1 01010X11 1 25003
031399999903822197201121200E+32133-081200SAO  +0014SAV  V02099959000050003049N000800599+01725+01615101775ADDAA101000095GA1999+000304104GD15085+9999999GD20995+9999999GD30995+9999999GD40995+9999999GF108085999999999999999999MA1999999101595MW1455EQDN01 07000JPWTH 1QNNE11 1 00710E11 1 00099E11 1 00099E11 1 00099G11 1 00001H11 1 45001K11 1 00061L11 1 00050M11 1 30000N11 1 07000Q11 1 10177S11 1 00063V11 1 01010X11 1 00000
031399999903822197201121500E+32133-081200SAO  +0014SAV  V02099959000050009149N008000599+01785+01615101975ADDAA101000095GA1999+000914074GD14085+9999999GD20995+9999999GD30995+9999999GD40995+9999999GF108085999999999999999999MA1999999101795MW1455EQDN01 07000JPWTH 1QNNE11 1 00610E11 1 00099E11 1 00099E11 1 00099G11 1 00003H11 1 16003K11 1 00061L11 1 00500M11 1 30060N11 1 07000Q11 1 10197S11 1 00064V11 1 01010X11 1 00000
031399999903822197201121800E+32133-081200SAO  +0014SAV  V0202605N002150021349N009600599+02115+01725101705ADDAA101000095GA1999+002134074GD14085+9999999GD20995+9999999GD30995+9999999GD40995+9999999GF108085999999999999999999MA1999999101525MW1055EQDN01 08100JPWTH 1QNNE11 1 00610E11 1 00099E11 1 00099E11 1 00099G11 1 00007H11 1 16007K11 1 00063L11 1 00600M11 1 29980N11 1 08100Q11 1 10170S11 1 00070V11 1 01010X11 1 26004
033499999903822197201122100E+32133-081200SAO  +0014SAV  V02099959000050036649N011200599+02115+01785101645ADDAA101000095GA1999+002444134GA2999+003664064GD12035+9999999GD24085+9999999GD30995+9999999GD40995+9999999GF108085999999999999999999MA1999999101465EQDN01 00000JPWTH 1QNNE11 1 00204E11 1 00610E11 1 00099E11 1 00099G11 1 00012H11 1 13008H11 1 15012K11 1 00064L11 1 00700M11 1 29960N11 1 00000Q11 1 10164S11 1 00070V11 1 01010X11 1 00000
035299999903822197201130000E+32133-081200SAO  +0014SAV  V0201305N002650009149N001600599+01945+01785101705ADDAA101000395GA1999+000914134GD14085+9999999GD20995+9999999GD30995+9999999GD40995+9999999GF108085999999999999999999MA1999999101525MW1045MW2455MW3805EQDN01 02370JPWTH 1N02 08000JPWTH 1QNNE11 1 00610E11 1 00099E11 1 00099E11 1 00099G11 1 00003H11 1 13003K11 1 00064L11 1 00100M11 1 29980N11 1 02370N11 1 08000Q11 1 10170S11 1 00067V11 1 01010X11 1 13005
040099999903822197201130300E+32133-081200SAO  +0014SAV  V0201505N002152200059N003200599+01835+01675101705ADDAA101000095GA1999+000914134GA2999+999999999GA3999+999999999GA4999+999999999GD12035+9999999GD20005+9999999GD30005+9999999GD40005+9999999GF103025999999999999999999MA1999999101525MW1045MW2455EQDN01 07080JPWTH 1QNNE11 1 00204E11 1 00000E11 1 00000E11 1 00000G11U1 99999H11 1 13003H11 1 00999H11 1 00999H11 1 00999K11 1 00062L11 1 00200M11 1 29980N11 1 07080Q11 1 10170S11 1 00065V11 1 00403X11 1 15004
039499999903822197201130600E+32133-081200SAO  +0014SAV  V0201805N004650012249N006400599+02005+01785101575ADDAA101000095GA1999+000614074GA2999+001224074GA3999+999999999GA4999+999999999GD12035+9999999GD23035+9999999GD30005+9999999GD40005+9999999GF106065999999999999999999MA1999999101395MW1455EQDN01 07000JPWTH 1QNNE11 1 00204E11 1 00404E11 1 00000E11 1 00000G11 1 00004H11 1 16002H11 1 16004H11 1 00999H11 1 00999K11 1 00064L11 1 00400M11 1 29940N11 1 07000Q11 1 10157S11 1 00068V11 1 00808X11 1 18009
039499999903822197201130900E+32133-081200SAO  +0014SAV  V0201705N003650853449N009600599+01945+01785101485ADDAA101000095GA1999+000914074GA2999+030484034GA3999+085344024GA4999+999999999GD12025+9999999GD22025+9999999GD33065+9999999GD40005+9999999GF106045999999999999999999MA1999999101325MW1455EQDN01 07000JPWTH 1QNNE11 1 00202E11 1 00202E11 1 00407E11 1 00000G11 1 00280H11 1 16003H11 1 23100H11 1 37280H11 1 00999K11 1 00064L11 1 00600M11 1 29920N11 1 07000Q11 1 10148S11 1 00067V11 1 00705X11 1 17007
038899999903822197201131200E+32133-081200SAO  +0014SAV  V0201805N005250304849N012800599+01895+01725101435ADDAA101000095GA1999+009144084GA2999+030484034GA3999+091444024GA4999+999999999GD12025+9999999GD23055+9999999GD33075+9999999GD40005+9999999GF107065999999999999999999MA1999999101255EQDN01 00000JPWTH 1QNNE11 1 00202E11 1 00406E11 1 00409E11 1 00000G11 1 00100H11 1 11030H11 1 23100H11 1 37300H11 1 00999K11 1 00063L11 1 00800M11 1 29900N11 1 00000Q11 1 10143S11 1 00066V11 1 00908X11 1 18010
038899999903822197201131500E+32133-081200SAO  +0014SAV  V0202105N005250853449N011200599+02175+01785101575ADDAA101000095GA1999+009144064GA2999+027434034GA3999+085344024GA4999+999999999GD12025+9999999GD22025+9999999GD34085+9999999GD40005+9999999GF108075999999999999999999MA1999999101395EQDN01 00000JPWTH 1QNNE11 1 00202E11 1 00203E11 1 00610E11 1 00000G11 1 00280H11 1 15030H11 1 23090H11 1 37280H11 1 00999K11 1 00064L11 1 00700M11 1 29940N11 1 00000Q11 1 10157S11 1 00071V11 1 01009X11 1 21010
038899999903822197201131800E+32133-081200SAO  +0014SAV  V0201905N004650853449N011200599+02565+01895101265ADDAA101000095GA1999+007624084GA2999+027434034GA3999+085344024GA4999+999999999GD12025+9999999GD22025+9999999GD34085+9999999GD40005+9999999GF108075999999999999999999MA1999999101085EQDN01 00000JPWTH 1QNNE11 1 00202E11 1 00202E11 1 00610E11 1 00000G11 1 00280H11 1 11025H11 1 23090H11 1 37280H11 1 00999K11 1 00066L11 1 00700M11 1 29850N11 1 00000Q11 1 10126S11 1 00078V11 1 01009X11 1 19009
038899999903822197201132100E+32133-081200SAO  +0014SAV  V0201905N003150762049N011200599+02505+01615101095ADDAA101000095GA1999+009144094GA2999+027434034GA3999+076204024GA4999+999999999GD12025+9999999GD22025+9999999GD34085+9999999GD40005+9999999GF108075999999999999999999MA1999999100915EQDN01 00000JPWTH 1QNNE11 1 00203E11 1 00202E11 1 00610E11 1 00000G11 1 00250H11 1 18030H11 1 23090H11 1 37250H11 1 00999K11 1 00061L11 1 00700M11 1 29800N11 1 00000Q11 1 10109S11 1 00077V11 1 01009X11 1 19006
039499999903822197201140000E+32133-081200SAO  +0014SAV  V02099959000050670649N019200599+02175+01725101265ADDAA101000095GA1999+006104094GA2999+021344034GA3999+067064024GA4999+999999999GD12025+9999999GD22025+9999999GD34085+9999999GD40005+9999999GF108075999999999999999999MA1999999101085MW1955EQDN01 01000JPWTH 1QNNE11 1 00203E11 1 00202E11 1 00610E11 1 00000G11 1 00220H11 1 18020H11 1 23070H11 1 37220H11 1 00999K11 1 00063L11 1 01200M11 1 29850N11 1 01000Q11 1 10126S11 1 00071V11 1 01009X11 1 00000
033499999903822197201140300E+32133-081200SAO  +0014SAV  V0201705N002650731549N032000599+02005+01785101305ADDAA101000095GA1999+012194064GA2999+073154024GD12025+9999999GD24085+9999999GD30995+9999999GD40995+9999999GF108085999999999999999999MA1999999101125EQDN01 00000JPWTH 1QNNE11 1 00203E11 1 00610E11 1 00099E11 1 00099G11 1 00240H11 1 15040H11 1 37240K11 1 00064L11 1 02000M11 1 29860N11 1 00000Q11 1 10130S11 1 00068V11 1 01010X11 1 17005
036199999903822197201140600E+32133-081200SAO  +0014SAV  V0201705N003650365849N032000599+02005+01785101205ADDAA101000095GA1999+006104064GA2999+036584034GA3999+076204024GD12025+9999999GD23035+9999999GD34085+9999999GD40995+9999999GF108085999999999999999999MA1999999101025EQDN01 00000JPWTH 1QNNE11 1 00203E11 1 00404E11 1 00610E11 1 00099G11 1 00120H11 1 15020H11 1 23120H11 1 37250K11 1 00064L11 1 02000M11 1 29830N11 1 00000Q11 1 10120S11 1 00068V11 1 01010X11 1 17007
034699999903822197201140900E+32133-081200SAO  +0014SAV  V0202105N005250061049N011200599+02115+01895101335ADDAA101001395GA1999+006104094GA2999+036584034GD13055+9999999GD24035+9999999GD30995+9999999GD40995+9999999GF108085999999999999999999MA1999999101155MW1805MW2955EQDN01 01023JPWTH 1QNNE11 1 00406E11 1 00604E11 1 00099E11 1 00099G11 1 00020H11 1 18020H11 1 23120K11 1 00066L11 1 00700M11 1 29870N11 1 01023Q11 1 10133S11 1 00070V11 1 01010X11 1 21010
034099999903822197201141200E+32133-081200SAO  +0014SAV  V02099959000050061049N011200599+01945+01725101435ADDAA101001595GA1999+006104064GA2999+036584034GD13065+9999999GD24025+9999999GD30995+9999999GD40995+9999999GF108085999999999999999999MA1999999101255MW1805EQDN01 02300JPWTH 1QNNE11 1 00408E11 1 00602E11 1 00099E11 1 00099G11 1 00020H11 1 15020H11 1 23120K11 1 00063L11 1 00700M11 1 29900N11 1 02300Q11 1 10143S11 1 00067V11 1 01010X11 1 00000
038899999903822197201141500E+32133-081200SAO  +0014SAV  V0201805N005250018349N011200599+01895+01675101775ADDAA101000095GA1999+001834074GA2999+030484034GA3999+085344024GA4999+999999999GD13055+9999999GD23015+9999999GD34085+9999999GD40005+9999999GF108075999999999999999999MA1999999101595EQDN01 00000JPWTH 1QNNE11 1 00406E11 1 00401E11 1 00610E11 1 00000G11 1 00006H11 1 16006H11 1 23100H11 1 37280H11 1 00999K11 1 00062L11 1 00700M11 1 30000N11 1 00000Q11 1 10177S11 1 00066V11 1 01009X11 1 18010
033499999903822197201141800E+32133-081200SAO  +0014SAV  V0202005N004150033549N011200599+02175+01725101645ADDAA101000095GA1999+003354064GA2999+030484044GD13065+9999999GD24085+9999999GD30995+9999999GD40995+9999999GF108085999999999999999999MA1999999101465EQDN01 00000JPWTH 1QNNE11 1 00407E11 1 00610E11 1 00099E11 1 00099G11 1 00011H11 1 15011H11 1 21100K11 1 00063L11 1 00700M11 1 29960N11 1 00000Q11 1 10164S11 1 00071V11 1 01010X11 1 20008
031999999903822197201142100E+32133-081200SAO  +0014SAV  V0202105N003150045749N006400599+01895+01725101605ADDAA101001395GA1999+004574154GD14085+9999999GD20995+9999999GD30995+9999999GD40995+9999999GF108085999999999999999999MA1999999101425MW1045MW2805EQDN01 02380JPWTH 1QNNE11 1 00610E11 1 00099E11 1 00099E11 1 00099G11 1 00015H11 1 17015K11 1 00063L11 1 00400M11 1 29950N11 1 02380Q11 1 10160S11 1 00066V11 1 01010X11 1 21006
030799999903822197201150000E+32133-081200SAO  +0014SAV  V0203405N003150076249N011200599+01615+01395101845ADDAA101000395GA1999+007624064GD14085+9999999GD20995+9999999GD30995+9999999GD40995+9999999GF108085999999999999999999MA1999999101665EQDN01 00000JPWTH 1QNNE11 1 00610E11 1 00099E11 1 00099E11 1 00099G11 1 00025H11 1 15025K11 1 00057L11 1 00700M11 1 30020N11 1 00000Q11 1 10184S11 1 00061V11 1 01010X11 1 34006
034699999903822197201150300E+32133-081200SAO  +0014SAV  V0200205N003650018349N006400599+01335+01225102045ADDAA101001895GA1999+001834134GA2999+007624054GD13065+9999999GD24085+9999999GD30995+9999999GD40995+9999999GF108085999999999999999999MA1999999101865MW1455MW2615EQDN01 02070JPWTH 1QNNE11 1 00407E11 1 00610E11 1 00099E11 1 00099G11 1 00006H11 1 13006H11 1 22025K11 1 00054L11 1 00400M11 1 30080N11 1 02070Q11 1 10204S11 1 00056V11 1 01010X11 1 02007
031999999903822197201150600E+32133-081200SAO  +0014SAV  V0200205N005250012249N003200599+00835+00675102145ADDAA101001095GA1999+001224134GD14085+9999999GD20995+9999999GD30995+9999999GD40995+9999999GF108085999999999999999999MA1999999101965MW1455MW2615EQDN01 02070JPWTH 1QNNE11 1 00610E11 1 00099E11 1 00099E11 1 00099G11 1 00004H11 1 13004K11 1 00044L11 1 00200M11 1 30110N11 1 02070Q11 1 10214S11 1 00047V11 1 01010X11 1 02010
031999999903822197201150900E+32133-081200SAO  +0014SAV  V0203605N006250012249N002400599+00615+00565102115ADDAA101001595GA1999+001224134GD14085+9999999GD20995+9999999GD30995+9999999GD40995+9999999GF108085999999999999999999MA1999999101935MW1455MW2615EQDN01 02070JPWTH 1QNNE11 1 00610E11 1 00099E11 1 00099E11 1 00099G11 1 00004H11 1 13004K11 1 00042L11 1 00150M11 1 30100N11 1 02070Q11 1 10211S11 1 00043V11 1 01010X11 1 36012
034699999903822197201151200E+32133-081200SAO  +0014SAV  V0203605N006250036649N006400599+00505+00335102255ADDAA101002095GA1999+001224134GA2999+003664134GD12025+9999999GD24085+9999999GD30995+9999999GD40995+9999999GF108085999999999999999999MA1999999102075MW1455MW2615EQDN01 02070JPWTH 1QNNE11 1 00203E11 1 00610E11 1 00099E11 1 00099G11 1 00012H11 1 13004H11 1 13012K11 1 00038L11 1 00400M11 1 30140N11 1 02070Q11 1 10225S11 1 00041V11 1 01010X11 1 36012
033499999903822197201151500E+32133-081200SAO  +0014SAV  V0200105N006250045749N011200599+00505+00115102645ADDAA101000095GA1999+002744064GA2999+004574064GD12025+9999999GD24085+9999999GD30995+9999999GD40995+9999999GF108085999999999999999999MA1999999102475EQDN01 00000JPWTH 1QNNE11 1 00202E11 1 00610E11 1 00099E11 1 00099G11 1 00015H11 1 15009H11 1 15015K11 1 00034L11 1 00700M11 1 30260N11 1 00000Q11 1 10264S11 1 00041V11 1 01010X11 1 01012
033499999903822197201151800E+32133-081200SAO  +0014SAV  V0203605N005750304849N011200599+00785-00225102485ADDAA101000095GA1999+009144064GA2999+030484044GD12025+9999999GD24085+9999999GD30995+9999999GD40995+9999999GF108085999999999999999999MA1999999102305EQDN01 00000JPWTH 1QNNE11 1 00203E11 1 00610E11 1 00099E11 1 00099G11 1 00100H11 1 15030H11 1 21100K11 1 00028L11 1 00700M11 1 30210N11 1 00000Q11 1 10248S11 1 00046V11 1 01010X11 1 36011
030799999903822197201152100E+32133-081200SAO  +0014SAV  V0203505N004150365849N011200599+00725-00175102645ADDAA101000095GA1999+036584034GD14085+9999999GD20995+9999999GD30995+9999999GD40995+9999999GF108085999999999999999999MA1999999102475EQDN01 00000JPWTH 1QNNE11 1 00610E11 1 00099E11 1 00099E11 1 00099G11 1 00120H11 1 23120K11 1 00029L11 1 00700M11 1 30260N11 1 00000Q11 1 10264S11 1 00045V11 1 01010X11 1 35008
038899999903822197201160000E+32133-081200SAO  +0014SAV  V02099959000050670649N032000599+00505+00065102725ADDAA101000095GA1999+067064024GA2999+999999999GA3999+999999999GA4999+999999999GD14085+9999999GD20005+9999999GD30005+9999999GD40005+9999999GF108075999999999999999999MA1999999102545EQDN01 00000JPWTH 1QNNE11 1 00610E11 1 00000E11 1 00000E11 1 00000G11 1 00220H11 1 37220H11 1 00999H11 1 00999H11 1 00999K11 1 00033L11 1 02000M11 1 30280N11 1 00000Q11 1 10272S11 1 00041V11 1 01009X11 1 00000
038899999903822197201160300E+32133-081200SAO  +0014SAV  V0203105N005750670649N032000599+00395-00115102895ADDAA101000095GA1999+067064024GA2999+999999999GA3999+999999999GA4999+999999999GD14085+9999999GD20005+9999999GD30005+9999999GD40005+9999999GF108065999999999999999999MA1999999102715EQDN01 00000JPWTH 1QNNE11 1 00610E11 1 00000E11 1 00000E11 1 00000G11 1 00220H11 1 37220H11 1 00999H11 1 00999H11 1 00999K11 1 00030L11 1 02000M11 1 30330N11 1 00000Q11 1 10289S11 1 00039V11 1 01008X11 1 31011
038899999903822197201160600E+32133-081200SAO  +0014SAV  V0203305N006252200059N024000599+00175-01065102965ADDAA101000095GA1999+076204024GA2999+999999999GA3999+999999999GA4999+999999999GD13065+9999993GD20005+9999999GD30005+9999999GD40005+9999999GF106035999999999999999999MA1999999102785EQDN01 00000JPWTH 1QNNE11 1 00308E11 1 00000E11 1 00000E11 1 00000G11U1 99999H11 1 37250H11 1 00999H11 1 00999H11 1 00999K11 1 00013L11 1 01500M11 1 30350N11 1 00000Q11 1 10296S11 1 00035V11 1 00804X11 1 33012
017699999903822197201160900E+32133-081200SAO  +0014SAV  V0203405N005752200059N024000599-00175-00945103135ADDAA101000095GF100005999999999999999999MA1999999102955EQDN01 00000JPWTH 1QNNG11U1 99999K11 1 00015L11 1 01500M11 1 30400N11 1 00000Q11 1 10313S11 1 00029V11 1 00000X11 1 34011
038899999903822197201161200E+32133-081200SAO  +0014SAV  V0203605N007252200059N024000599-00335-01175103405ADDAA101000095GA1999+999999024GA2999+999999999GA3999+999999999GA4999+999999999GD10005+9999999GD20005+9999999GD30005+9999999GD40005+9999999GF100005999999999999999999MA1999999103225EQDN01 00000JPWTH 1QNNE11 1 00000E11 1 00000E11 1 00000E11 1 00000G11U1 99999H11 1 37999H11 1 00999H11 1 00999H11 1 00999K11 1 00011L11 1 01500M11 1 30480N11 1 00000Q11 1 10340S11 1 00026V11 1 00000X11 1 36014
017699999903822197201161500E+32133-081200SAO  +0014SAV  V0200305N006752200059N011200599-00225-01395103805ADDAA101000095GF100005999999999999999999MA1999999103625EQDN01 00000JPWTH 1QNNG11U1 99999K11 1 00007L11 1 00700M11 1 30600N11 1 00000Q11 1 10380S11 1 00028V11 1 00000X11 1 03013
017699999903822197201161800E+32133-081200SAO  +0014SAV  V0200405N007252200059N011200599-00065-01785103775ADDAA101000095GF100005999999999999999999MA1999999103595EQDN01 00000JPWTH 1QNNG11U1 99999K11 1 00000L11 1 00700M11 1 30590N11 1 00000Q11 1 10377S11 1 00031V11 1 00000X11 1 04014
017699999903822197201162100E+32133-081200SAO  +0014SAV  V0200105N006752200059N011200599+00005-01785103705ADDAA101000095GF100005999999999999999999MA1999999103495EQDN01 00000JPWTH 1QNNG11U1 99999K11 1 00000L11 1 00700M11 1 30560N11 1 00000Q11 1 10370S11 1 00032V11 1 00000X11 1 01013
017699999903822197201170000E+32133-081200SAO  +0014SAV  V0200305N004152200059N032000599-00395-01675103805ADDAA101000095GF100005999999999999999999MA1999999103625EQDN01 00000JPWTH 1QNNG11U1 99999K11 1 00002L11 1 02000M11 1 30600N11 1 00000Q11 1 10380S11 1 00025V11 1 00000X11 1 03008
017699999903822197201170300E+32133-081200SAO  +0014SAV  V0200405N004652200059N032000599-00565-01615103875ADDAA101000095GF100005999999999999999999MA1999999103695EQDN01 00000JPWTH 1QNNG11U1 99999K11 1 00003L11 1 02000M11 1 30620N11 1 00000Q11 1 10387S11 1 00022V11 1 00000X11 1 04009
017699999903822197201170600E+32133-081200SAO  +0014SAV  V0200305N004152200059N032000599-00615-01565103775ADDAA101000095GF100005999999999999999999MA1999999103595EQDN01 00000JPWTH 1QNNG11U1 99999K11 1 00004L11 1 02000M11 1 30590N11 1 00000Q11 1 10377S11 1 00021V11 1 00000X11 1 03008
038899999903822197201170900E+32133-081200SAO  +0014SAV  V0200305N004150365849N032000599-00675-01565103745ADDAA101000095GA1999+036584034GA2999+999999999GA3999+999999999GA4999+999999999GD13055+9999999GD20005+9999999GD30005+9999999GD40005+9999999GF105055999999999999999999MA1999999103565EQDN01 00000JPWTH 1QNNE11 1 00406E11 1 00000E11 1 00000E11 1 00000G11 1 00120H11 1 23120H11 1 00999H11 1 00999H11 1 00999K11 1 00004L11 1 02000M11 1 30580N11 1 00000Q11 1 10374S11 1 00020V11 1 00606X11 1 03008
038899999903822197201171200E+32133-081200SAO  +0014SAV  V0200205N004152200059N032000599-00675-01335103635ADDAA101000095GA1999+003964064GA2999+999999999GA3999+999999999GA4999+999999999GD12025+9999999GD20005+9999999GD30005+9999999GD40005+9999999GF102025999999999999999999MA1999999103455EQDN01 00000JPWTH 1QNNE11 1 00202E11 1 00000E11 1 00000E11 1 00000G11U1 99999H11 1 15013H11 1 00999H11 1 00999H11 1 00999K11 1 00008L11 1 02000M11 1 30550N11 1 00000Q11 1 10363S11 1 00020V11 1 00202X11 1 02008
017699999903822197201171500E+32133-081200SAO  +0014SAV  V0203605N004152200059N011200599-00115-01065103725ADDAA101000095GF100005999999999999999999MA1999999103565EQDN01 00000JPWTH 1QNNG11U1 99999K11 1 00013L11 1 00700M11 1 30580N11 1 00000Q11 1 10372S11 1 00030V11 1 00000X11 1 36008
017699999903822197201171800E+32133-081200SAO  +0014SAV  V0200105N002652200059N011200599+00505-00615103435ADDAA101000095GF100005999999999999999999MA1999999103255EQDN01 00000JPWTH 1QNNG11U1 99999K11 1 00021L11 1 00700M11 1 30490N11 1 00000Q11 1 10343S11 1 00041V11 1 00000X11 1 01005
017699999903822197201172100E+32133-081200SAO  +0014SAV  V0203205N002152200059N011200599+00895-00675103215ADDAA101000095GF100005999999999999999999MA1999999103055EQDN01 00000JPWTH 1QNNG11U1 99999K11 1 00020L11 1 00700M11 1 30430N11 1 00000Q11 1 10321S11 1 00048V11 1 00000X11 1 32004
017699999903822197201180000E+32133-081200SAO  +0014SAV  V0200505N002152200059N032000599+00335-00225103195ADDAA101000095GF100005999999999999999999MA1999999103015EQDN01 00000JPWTH 1QNNG11U1 99999K11 1 00028L11 1 02000M11 1 30420N11 1 00000Q11 1 10319S11 1 00038V11 1 00000X11 1 05004
017699999903822197201180300E+32133-081200SAO  +0014SAV  V02099959000052200059N032000599+00005-00285103165ADDAA101000095GF100005999999999999999999MA1999999102985EQDN01 00000JPWTH 1QNNG11U1 99999K11 1 00027L11 1 02000M11 1 30410N11 1 00000Q11 1 10316S11 1 00032V11 1 00000X11 1 00000
017699999903822197201180600E+32133-081200SAO  +0014SAV  V02099959000052200059N019200599-00115-00285103065ADDAA101000095GF100005999999999999999999MA1999999102885EQDN01 00000JPWTH 1QNNG11U1 99999K11 1 00027L11 1 01200M11 1 30380N11 1 00000Q11 1 10306S11 1 00030V11 1 00000X11 1 00000
038899999903822197201180900E+32133-081200SAO  +0014SAV  V0203405N001552200059N024000599+00115-00065102995ADDAA101000095GA1999+012194064GA2999+999999999GA3999+999999999GA4999+999999999GD12035+9999999GD20005+9999999GD30005+9999999GD40005+9999999GF103035999999999999999999MA1999999102815EQDN01 00000JPWTH 1QNNE11 1 00204E11 1 00000E11 1 00000E11 1 00000G11U1 99999H11 1 15040H11 1 00999H11 1 00999H11 1 00999K11 1 00031L11 1 01500M11 1 30360N11 1 00000Q11 1 10299S11 1 00034V11 1 00404X11 1 34003
038899999903822197201181200E+32133-081200SAO  +0014SAV  V02099959000050121949N024000599+00115-00065102995ADDAA101000095GA1999+012194064GA2999+999999999GA3999+999999999GA4999+999999999GD13065+9999999GD20005+9999999GD30005+9999999GD40005+9999999GF106065999999999999999999MA1999999102815EQDN01 00000JPWTH 1QNNE11 1 00407E11 1 00000E11 1 00000E11 1 00000G11 1 00040H11 1 15040H11 1 00999H11 1 00999H11 1 00999K11 1 00031L11 1 01500M11 1 30360N11 1 00000Q11 1 10299S11 1 00034V11 1 00707X11 1 00000
038899999903822197201181500E+32133-081200SAO  +0014SAV  V0200505N003650121949N011200599+00725-00175103065ADDAA101000095GA1999+012194064GA2999+999999999GA3999+999999999GA4999+999999999GD13055+9999999GD20005+9999999GD30005+9999999GD40005+9999999GF105055999999999999999999MA1999999102885EQDN01 00000JPWTH 1QNNE11 1 00406E11 1 00000E11 1 00000E11 1 00000G11 1 00040H11 1 15040H11 1 00999H11 1 00999H11 1 00999K11 1 00029L11 1 00700M11 1 30380N11 1 00000Q11 1 10306S11 1 00045V11 1 00606X11 1 05007
038899999903822197201181800E+32133-081200SAO  +0014SAV  V0200805N002150762049N011200599+01505+00065102825ADDAA101000095GA1999+999999064GA2999+999999034GA3999+076204004GA4999+999999999GD13005+9999999GD20005+9999999GD30065+9999999GD40005+9999999GF106035999999999999999999MA1999999102645EQDN01 00000JPWTH 1QNNE11 1 00400E11 1 00000E11 1 00007E11 1 00000G11 1 00250H11 1 15999H11 1 23999H11 1 32250H11 1 00999K11 1 00033L11 1 00700M11 1 30310N11 1 00000Q11 1 10282S11 1 00059V11 1 00704X11 1 08004
038899999903822197201182100E+32133-081200SAO  +0014SAV  V0201105N003650121949N011200599+01675+00505102695ADDAA101000095GA1999+012194064GA2999+030484034GA3999+076204024GA4999+999999999GD13055+9999999GD23015+9999999GD33015+9999999GD40005+9999999GF106065999999999999999999MA1999999102515EQDN01 00000JPWTH 1QNNE11 1 00406E11 1 00401E11 1 00401E11 1 00000G11 1 00040H11 1 15040H11 1 23100H11 1 37250H11 1 00999K11 1 00041L11 1 00700M11 1 30270N11 1 00000Q11 1 10269S11 1 00062V11 1 00807X11 1 11007
038899999903822197201190000E+32133-081200SAO  +0014SAV  V0201205N001550121949N012800599+01335+00505102655ADDAA101000095GA1999+002744074GA2999+012194064GA3999+999999999GA4999+999999999GD12025+9999999GD23065+9999999GD30005+9999999GD40005+9999999GF106065999999999999999999MA1999999102475EQDN01 00000JPWTH 1QNNE11 1 00202E11 1 00407E11 1 00000E11 1 00000G11 1 00040H11 1 16009H11 1 15040H11 1 00999H11 1 00999K11 1 00041L11 1 00800M11 1 30260N11 1 00000Q11 1 10265S11 1 00056V11 1 00707X11 1 12003
031399999903822197201190300E+32133-081200SAO  +0014SAV  V0201005N001550121949N009600599+01225+00785102725ADDAA101000095GA1999+012194064GD14085+9999999GD20995+9999999GD30995+9999999GD40995+9999999GF108085999999999999999999MA1999999102545MW1045EQDN01 08000JPWTH 1QNNE11 1 00610E11 1 00099E11 1 00099E11 1 00099G11 1 00040H11 1 15040K11 1 00046L11 1 00600M11 1 30280N11 1 08000Q11 1 10272S11 1 00054V11 1 01010X11 1 10003
039499999903822197201190600E+32133-081200SAO  +0014SAV  V0200105N001552200059N009600599+00895+00675102585ADDAA101000095GA1999+011584064GA2999+999999999GA3999+999999999GA4999+999999999GD12035+9999999GD20005+9999999GD30005+9999999GD40005+9999999GF103035999999999999999999MA1999999102405MW1445EQDN01 07200JPWTH 1QNNE11 1 00204E11 1 00000E11 1 00000E11 1 00000G11U1 99999H11 1 15038H11 1 00999H11 1 00999H11 1 00999K11 1 00044L11 1 00600M11 1 30240N11 1 07200Q11 1 10258S11 1 00048V11 1 00404X11 1 01003
040099999903822197201190900E+32133-081200SAO  +0014SAV  V02099959000052200059N006400599+00725+00565102485ADDAA101000095GA1999+011584064GA2999+999999999GA3999+999999999GA4999+999999999GD12025+9999999GD20005+9999999GD30005+9999999GD40005+9999999GF102025999999999999999999MA1999999102305MW1045MW2445EQDN01 07280JPWTH 1QNNE11 1 00202E11 1 00000E11 1 00000E11 1 00000G11U1 99999H11 1 15038H11 1 00999H11 1 00999H11 1 00999K11 1 00042L11 1 00400M11 1 30210N11 1 07280Q11 1 10248S11 1 00045V11 1 00202X11 1 00000
031999999903822197201191200E+32133-081200SAO  +0014SAV  V02099959000050006149N006400599+00725+00615102585ADDAA101000095GA1999+000614074GD14085+9999999GD20995+9999999GD30995+9999999GD40995+9999999GF108085999999999999999999MA1999999102405MW1045MW2455EQDN01 07080JPWTH 1QNNE11 1 00610E11 1 00099E11 1 00099E11 1 00099G11 1 00002H11 1 16002K11 1 00043L11 1 00400M11 1 30240N11 1 07080Q11 1 10258S11 1 00045V11 1 01010X11 1 00000
039499999903822197201191500E+32133-081200SAO  +0014SAV  V02099959000052200059N009600599+01395+00945102725ADDAA101000095GA1999+067064024GA2999+999999999GA3999+999999999GA4999+999999999GD13055+9999993GD20005+9999999GD30005+9999999GD40005+9999999GF105025999999999999999999MA1999999102545MW1045EQDN01 08000JPWTH 1QNNE11 1 00306E11 1 00000E11 1 00000E11 1 00000G11U1 99999H11 1 37220H11 1 00999H11 1 00999H11 1 00999K11 1 00049L11 1 00600M11 1 30280N11 1 08000Q11 1 10272S11 1 00057V11 1 00602X11 1 00000
038899999903822197201191800E+32133-081200SAO  +0014SAV  V0201805N002152200059N011200599+02175+01225102485ADDAA101000095GA1999+009144084GA2999+067064024GA3999+999999999GA4999+999999999GD12015+9999999GD22035+9999999GD30005+9999999GD40005+9999999GF103025999999999999999999MA1999999102305EQDN01 00000JPWTH 1QNNE11 1 00201E11 1 00204E11 1 00000E11 1 00000G11U1 99999H11 1 11030H11 1 37220H11 1 00999H11 1 00999K11 1 00054L11 1 00700M11 1 30210N11 1 00000Q11 1 10248S11 1 00071V11 1 00403X11 1 18004
038899999903822197201192100E+32133-081200SAO  +0014SAV  V0203505N001552200059N011200599+02225+01005102355ADDAA101000095GA1999+999999084GA2999+067064014GA3999+999999999GA4999+999999999GD12005+9999999GD20015+9999999GD30005+9999999GD40005+9999999GF101015999999999999999999MA1999999102175EQDN01 00000JPWTH 1QNNE11 1 00200E11 1 00001E11 1 00000E11 1 00000G11U1 99999H11 1 11999H11 1 39220H11 1 00999H11 1 00999K11 1 00050L11 1 00700M11 1 30170N11 1 00000Q11 1 10235S11 1 00072V11 1 00101X11 1 35003
017699999903822197201200000E+32133-081200SAO  +0014SAV  V0201805N002652200059N011200599+01615+01175102415ADDAA101000095GF100005999999999999999999MA1999999102245EQDN01 00000JPWTH 1QNNG11U1 99999K11 1 00053L11 1 00700M11 1 30190N11 1 00000Q11 1 10241S11 1 00061V11 1 00000X11 1 18005
017699999903822197201200300E+32133-081200SAO  +0014SAV  V02099959000052200059N011200599+01285+01115102485ADDAA101000095GF100005999999999999999999MA1999999102305EQDN01 00000JPWTH 1QNNG11U1 99999K11 1 00052L11 1 00700M11 1 30210N11 1 00000Q11 1 10248S11 1 00055V11 1 00000X11 1 00000
040099999903822197201200600E+32133-081200SAO  +0014SAV  V02099959000052200059N000400599+00835+00725102445ADDAA101000095GA1999+999999104GA2999+999999999GA3999+999999999GA4999+999999999GD16025+9999999GD20005+9999999GD30005+9999999GD40005+9999999GF102025999999999999999999MA1999999102275MW1045MW2445EQDN01 07280JPWTH 1QNNE11 1 00802E11 1 00000E11 1 00000E11 1 00000G11U1 99999H11 1 45999H11 1 00999H11 1 00999H11 1 00999K11 1 00045L11 1 00025M11 1 30200N11 1 07280Q11 1 10244S11 1 00047V11 1 00202X11 1 00000
040099999903822197201200900E+32133-081200SAO  +0014SAV  V02099959000052200059N000400599+00725+00675102375ADDAA101000095GA1999+999999104GA2999+999999999GA3999+999999999GA4999+999999999GD16025+9999999GD20005+9999999GD30005+9999999GD40005+9999999GF102025999999999999999999MA1999999102205MW1045MW2445EQDN01 07280JPWTH 1QNNE11 1 00802E11 1 00000E11 1 00000E11 1 00000G11U1 99999H11 1 45999H11 1 00999H11 1 00999H11 1 00999K11 1 00044L11 1 00025M11 1 30180N11 1 07280Q11 1 10237S11 1 00045V11 1 00202X11 1 00000
040099999903822197201201200E+32133-081200SAO  +0014SAV  V02099959000052200059N006400599+00835+00725102385ADDAA101000095GA1999+085344024GA2999+999999999GA3999+999999999GA4999+999999999GD12025+9999999GD20005+9999999GD30005+9999999GD40005+9999999GF102025999999999999999999MA1999999102205MW1045MW2445EQDN01 07280JPWTH 1QNNE11 1 00203E11 1 00000E11 1 00000E11 1 00000G11U1 99999H11 1 37280H11 1 00999H11 1 00999H11 1 00999K11 1 00045L11 1 00400M11 1 30180N11 1 07280Q11 1 10238S11 1 00047V11 1 00302X11 1 00000
038899999903822197201201500E+32133-081200SAO  +0014SAV  V0200705N001552200059N011200599+01445+01175102485ADDAA101000095GA1999+042674034GA2999+085344024GA3999+999999999GA4999+999999999GD12015+9999999GD24085+9999993GD30005+9999999GD40005+9999999GF108045999999999999999999MA1999999102305EQDN01 00000JPWTH 1QNNE11 1 00201E11 1 00510E11 1 00000E11 1 00000G11U1 99999H11 1 23140H11 1 37280H11 1 00999H11 1 00999K11 1 00053L11 1 00700M11 1 30210N11 1 00000Q11 1 10248S11 1 00058V11 1 01005X11 1 07003
033499999903822197201201800E+32133-081200SAO  +0014SAV  V0201005N003650426749N011200599+02115+01115102255ADDAA101000095GA1999+021344034GA2999+042674034GD12025+9999999GD24085+9999999GD30995+9999999GD40995+9999999GF108085999999999999999999MA1999999102075EQDN01 00000JPWTH 1QNNE11 1 00203E11 1 00610E11 1 00099E11 1 00099G11 1 00140H11 1 23070H11 1 23140K11 1 00052L11 1 00700M11 1 30140N11 1 00000Q11 1 10225S11 1 00070V11 1 01010X11 1 10007
038899999903822197201202100E+32133-081200SAO  +0014SAV  V0201305N003150670649N011200599+02065+01115102045ADDAA101000095GA1999+039624034GA2999+067064024GA3999+999999999GA4999+999999999GD12025+9999999GD24085+9999999GD30005+9999999GD40005+9999999GF108075999999999999999999MA1999999101865EQDN01 00000JPWTH 1QNNE11 1 00202E11 1 00610E11 1 00000E11 1 00000G11 1 00220H11 1 23130H11 1 37220H11 1 00999H11 1 00999K11 1 00052L11 1 00700M11 1 30080N11 1 00000Q11 1 10204S11 1 00069V11 1 01009X11 1 13006
033499999903822197201210000E+32133-081200SAO  +0014SAV  V0201705N002150365849N032000599+01785+01335102045ADDAA101000095GA1999+036584034GA2999+067064024GD13065+9999999GD24085+9999999GD30995+9999999GD40995+9999999GF108085999999999999999999MA1999999101865EQDN01 00000JPWTH 1QNNE11 1 00408E11 1 00610E11 1 00099E11 1 00099G11 1 00120H11 1 23120H11 1 37220K11 1 00056L11 1 02000M11 1 30080N11 1 00000Q11 1 10204S11 1 00064V11 1 01010X11 1 17004
033499999903822197201210300E+32133-081200SAO  +0014SAV  V0201705N002150091449N016000599+01615+01335102045ADDAA101000095GA1999+009144064GA2999+036584034GD13065+9999999GD24025+9999999GD30995+9999999GD40995+9999999GF108085999999999999999999MA1999999101865EQDN01 00000JPWTH 1QNNE11 1 00407E11 1 00603E11 1 00099E11 1 00099G11 1 00030H11 1 15030H11 1 23120K11 1 00056L11 1 01000M11 1 30080N11 1 00000Q11 1 10204S11 1 00061V11 1 01010X11 1 17004
036199999903822197201210600E+32133-081200SAO  +0014SAV  V0201905N001550365849N016000599+01505+01335101845ADDAA101000095GA1999+001224074GA2999+009754064GA3999+036584034GD12015+9999999GD22035+9999999GD34085+9999999GD40995+9999999GF108085999999999999999999MA1999999101665EQDN01 00000JPWTH 1QNNE11 1 00201E11 1 00204E11 1 00610E11 1 00099G11 1 00120H11 1 16004H11 1 15032H11 1 23120K11 1 00056L11 1 01000M11 1 30020N11 1 00000Q11 1 10184S11 1 00059V11 1 01010X11 1 19003
036199999903822197201210900E+32133-081200SAO  +0014SAV  V0201805N001550365849N011200599+01505+01395101745ADDAA101000095GA1999+001224074GA2999+010674064GA3999+036584034GD12015+9999999GD22035+9999999GD34085+9999999GD40995+9999999GF108085999999999999999999MA1999999101565EQDN01 00000JPWTH 1QNNE11 1 00201E11 1 00204E11 1 00610E11 1 00099G11 1 00120H11 1 16004H11 1 15035H11 1 23120K11 1 00057L11 1 00700M11 1 29990N11 1 00000Q11 1 10174S11 1 00059V11 1 01010X11 1 18003
036799999903822197201211200E+32133-081200SAO  +0014SAV  V02099959000050121949N011200599+01565+01445101775ADDAA101000395GA1999+001224074GA2999+012194064GA3999+036584034GD12015+9999999GD23055+9999999GD34085+9999999GD40995+9999999GF108085999999999999999999MA1999999101595MW1615EQDN01 02000JPWTH 1QNNE11 1 00201E11 1 00406E11 1 00610E11 1 00099G11 1 00040H11 1 16004H11 1 15040H11 1 23120K11 1 00058L11 1 00700M11 1 30000N11 1 02000Q11 1 10177S11 1 00060V11 1 01010X11 1 00000
038899999903822197201211500E+32133-081200SAO  +0014SAV  V0202705N003650792549N011200599+01835+01565101845ADDAA101000095GA1999+006104084GA2999+036584034GA3999+079254024GA4999+999999999GD12035+9999999GD22025+9999999GD33075+9999999GD40005+9999999GF107065999999999999999999MA1999999101665EQDN01 00000JPWTH 1QNNE11 1 00204E11 1 00202E11 1 00409E11 1 00000G11 1 00260H11 1 11020H11 1 23120H11 1 37260H11 1 00999K11 1 00060L11 1 00700M11 1 30020N11 1 00000Q11 1 10184S11 1 00065V11 1 00907X11 1 27007
038899999903822197201211800E+32133-081200SAO  +0014SAV  V0202405N003150426749N011200599+02115+01565101645ADDAA101000095GA1999+005184084GA2999+042674034GA3999+079254024GA4999+999999999GD12035+9999999GD23025+9999999GD34035+9999999GD40005+9999999GF108075999999999999999999MA1999999101465EQDN01 00000JPWTH 1QNNE11 1 00204E11 1 00402E11 1 00604E11 1 00000G11 1 00140H11 1 11017H11 1 23140H11 1 37260H11 1 00999K11 1 00060L11 1 00700M11 1 29960N11 1 00000Q11 1 10164S11 1 00070V11 1 01009X11 1 24006
038899999903822197201212100E+32133-081200SAO  +0014SAV  V0202905N003150304849N011200599+02115+01505101575ADDAA101000095GA1999+007624084GA2999+030484034GA3999+076204024GA4999+999999999GD12025+9999999GD23065+9999999GD34025+9999999GD40005+9999999GF108075999999999999999999MA1999999101395EQDN01 00000JPWTH 1QNNE11 1 00202E11 1 00407E11 1 00603E11 1 00000G11 1 00100H11 1 11025H11 1 23100H11 1 37250H11 1 00999K11 1 00059L11 1 00700M11 1 29940N11 1 00000Q11 1 10157S11 1 00070V11 1 01009X11 1 29006
033499999903822197201220000E+32133-081200SAO  +0014SAV  V02099959000050243849N032000599+01835+01505101675ADDAA101000095GA1999+007624064GA2999+024384034GD12035+9999999GD24085+9999999GD30995+9999999GD40995+9999999GF108085999999999999999999MA1999999101495EQDN01 00000JPWTH 1QNNE11 1 00204E11 1 00610E11 1 00099E11 1 00099G11 1 00080H11 1 15025H11 1 23080K11 1 00059L11 1 02000M11 1 29970N11 1 00000Q11 1 10167S11 1 00065V11 1 01010X11 1 00000
033499999903822197201220300E+32133-081200SAO  +0014SAV  V02099959000050243849N016000599+01725+01505101705ADDAA101000095GA1999+007624064GA2999+024384034GD12035+9999999GD24085+9999999GD30995+9999999GD40995+9999999GF108085999999999999999999MA1999999101525EQDN01 00000JPWTH 1QNNE11 1 00204E11 1 00610E11 1 00099E11 1 00099G11 1 00080H11 1 15025H11 1 23080K11 1 00059L11 1 01000M11 1 29980N11 1 00000Q11 1 10170S11 1 00063V11 1 01010X11 1 00000
033499999903822197201220600E+32133-081200SAO  +0014SAV  V02099959000050213449N011200599+01675+01505101645ADDAA101000095GA1999+009144064GA2999+021344034GD12035+9999999GD24085+9999999GD30995+9999999GD40995+9999999GF108085999999999999999999MA1999999101465EQDN01 00000JPWTH 1QNNE11 1 00204E11 1 00610E11 1 00099E11 1 00099G11 1 00070H11 1 15030H11 1 23070K11 1 00059L11 1 00700M11 1 29960N11 1 00000Q11 1 10164S11 1 00062V11 1 01010X11 1 00000
037999999903822197201220900E+32133-081200SAO  +0014SAV  V02099959000050198149N002400599+01565+01505101535ADDAA101000895GA1999+009144064GA2999+019814044GD12025+9999999GD24085+9999999GD30995+9999999GD40995+9999999GF108085999999999999999999MA1999999101355MW1045MW2445MW3615EQDN01 02072JPWTH 1N02 08000JPWTH 1QNNE11 1 00203E11 1 00610E11 1 00099E11 1 00099G11 1 00065H11 1 15030H11 1 21065K11 1 00059L11 1 00150M11 1 29930N11 1 02072N11 1 08000Q11 1 10153S11 1 00060V11 1 01010X11 1 00000
037399999903822197201221200E+32133-081200SAO  +0014SAV  V0200805N001550076249N000800599+01505+01445101575ADDAA101000395GA1999+999999104GA2999+007624064GA3999+019814044GD16025+9999999GD23055+9999999GD34085+9999999GD40995+9999999GF108085999999999999999999MA1999999101395MW1045MW2445EQDN01 07280JPWTH 1QNNE11 1 00802E11 1 00406E11 1 00610E11 1 00099G11 1 00025H11 1 45999H11 1 15025H11 1 21065K11 1 00058L11 1 00050M11 1 29940N11 1 07280Q11 1 10157S11 1 00059V11 1 01010X11 1 08003
031999999903822197201221500E+32133-081200SAO  +0014SAV  V0201305N002150006149N000400599+01615+01565101605ADDAA101000095GA1999+000614104GD15085+9999999GD20995+9999999GD30995+9999999GD40995+9999999GF108085999999999999999999MA1999999101425MW1045MW2455EQDN01 07080JPWTH 1QNNE11 1 00710E11 1 00099E11 1 00099E11 1 00099G11 1 00002H11 1 45002K11 1 00060L11 1 00025M11 1 29950N11 1 07080Q11 1 10160S11 1 00061V11 1 01010X11 1 13004
037999999903822197201221800E+32133-081200SAO  +0014SAV  V0201605N001550024449N006400599+01945+01615101365ADDAA101000595GA1999+002444064GA2999+024384034GD13065+9999999GD24085+9999999GD30995+9999999GD40995+9999999GF108085999999999999999999MA1999999101195MW1045MW2455MW3805EQDN01 02370JPWTH 1N02 08000JPWTH 1QNNE11 1 00408E11 1 00610E11 1 00099E11 1 00099G11 1 00008H11 1 15008H11 1 23080K11 1 00061L11 1 00400M11 1 29880N11 1 02370N11 1 08000Q11 1 10136S11 1 00067V11 1 01010X11 1 16003
040699999903822197201222100E+32133-081200SAO  +0014SAV  V0200605N002150365849N004000599+01835+01615101135ADDAA101001395GA1999+002444064GA2999+011584064GA3999+036584034GD12025+9999999GD22025+9999999GD34085+9999999GD40995+9999999GF108085999999999999999999MA1999999100955MW1045MW2455MW3805EQDN01 02370JPWTH 1N02 08000JPWTH 1QNNE11 1 00202E11 1 00202E11 1 00610E11 1 00099G11 1 00120H11 1 15008H11 1 15038H11 1 23120K11 1 00061L11 1 00250M11 1 29810N11 1 02370N11 1 08000Q11 1 10113S11 1 00065V11 1 01010X11 1 06004
035299999903822197201230000E+32133-081200SAO  +0014SAV  V0201805N001550003049N001600599+01725+01615101235ADDAA101003095GA1999+000304134GD14085+9999999GD20995+9999999GD30995+9999999GD40995+9999999GF108085999999999999999999MA1999999101055MW1045MW2455MW3615EQDN01 02070JPWTH 1N02 08000JPWTH 1QNNE11 1 00610E11 1 00099E11 1 00099E11 1 00099G11 1 00001H11 1 13001K11 1 00061L11 1 00100M11 1 29840N11 1 02070N11 1 08000Q11 1 10123S11 1 00063V11 1 01010X11 1 18003
031999999903822197201230300E+32133-081200SAO  +0014SAV  V0202805N002650018349N004800599+01615+01505101165ADDAA101000095GA1999+001834074GD14085+9999999GD20995+9999999GD30995+9999999GD40995+9999999GF108085999999999999999999MA1999999100985MW1045MW2455EQDN01 07080JPWTH 1QNNE11 1 00610E11 1 00099E11 1 00099E11 1 00099G11 1 00006H11 1 16006K11 1 00059L11 1 00300M11 1 29820N11 1 07080Q11 1 10116S11 1 00061V11 1 01010X11 1 28005
031999999903822197201230600E+32133-081200SAO  +0014SAV  V0202705N003650003049N000800599+01565+01445101205ADDAA101000095GA1999+000304104GD15085+9999999GD20995+9999999GD30995+9999999GD40995+9999999GF108085999999999999999999MA1999999101025MW1045MW2455EQDN01 07080JPWTH 1QNNE11 1 00710E11 1 00099E11 1 00099E11 1 00099G11 1 00001H11 1 45001K11 1 00058L11 1 00050M11 1 29830N11 1 07080Q11 1 10120S11 1 00060V11 1 01010X11 1 27007
034699999903822197201230900E+32133-081200SAO  +0014SAV  V0202905N002150012249N006400599+01505+01445101235ADDAA101000095GA1999+001224074GA2999+002444074GD13055+9999999GD24035+9999999GD30995+9999999GD40995+9999999GF108085999999999999999999MA1999999101055MW1045MW2455EQDN01 07080JPWTH 1QNNE11 1 00406E11 1 00604E11 1 00099E11 1 00099G11 1 00004H11 1 16004H11 1 16008K11 1 00058L11 1 00400M11 1 29840N11 1 07080Q11 1 10123S11 1 00059V11 1 01010X11 1 29004
034699999903822197201231200E+32133-081200SAO  +0014SAV  V0203005N003150012249N006400599+01445+01335101475ADDAA101000095GA1999+000914074GA2999+001224074GD12025+9999999GD24085+9999999GD30995+9999999GD40995+9999999GF108085999999999999999999MA1999999101295MW1045MW2455EQDN01 07080JPWTH 1QNNE11 1 00203E11 1 00610E11 1 00099E11 1 00099G11 1 00004H11 1 16003H11 1 16004K11 1 00056L11 1 00400M11 1 29910N11 1 07080Q11 1 10147S11 1 00058V11 1 01010X11 1 30006
036199999903822197201231500E+32133-081200SAO  +0014SAV  V0203505N001550024449N011200599+01565+01335101745ADDAA101000095GA1999+001224134GA2999+002444064GA3999+004884064GD12025+9999999GD23065+9999999GD34025+9999999GD40995+9999999GF108085999999999999999999MA1999999101565EQDN01 00000JPWTH 1QNNE11 1 00203E11 1 00408E11 1 00602E11 1 00099G11 1 00008H11 1 13004H11 1 15008H11 1 15016K11 1 00056L11 1 00700M11 1 29990N11 1 00000Q11 1 10174S11 1 00060V11 1 01010X11 1 35003
038899999903822197201231800E+32133-081200SAO  +0014SAV  V0202105N002650054949N011200599+01945+01335101575ADDAA101000095GA1999+005494064GA2999+999999999GA3999+999999999GA4999+999999999GD13055+9999999GD20005+9999999GD30005+9999999GD40005+9999999GF105055999999999999999999MA1999999101395EQDN01 00000JPWTH 1QNNE11 1 00406E11 1 00000E11 1 00000E11 1 00000G11 1 00018H11 1 15018H11 1 00999H11 1 00999H11 1 00999K11 1 00056L11 1 00700M11 1 29940N11 1 00000Q11 1 10157S11 1 00067V11 1 00606X11 1 21005
038899999903822197201232100E+32133-081200SAO  +0014SAV  V0202205N003152200059N011200599+02175+01335101475ADDAA101000095GA1999+007624064GA2999+999999999GA3999+999999999GA4999+999999999GD12025+9999999GD20005+9999999GD30005+9999999GD40005+9999999GF102025999999999999999999MA1999999101295EQDN01 00000JPWTH 1QNNE11 1 00203E11 1 00000E11 1 00000E11 1 00000G11U1 99999H11 1 15025H11 1 00999H11 1 00999H11 1 00999K11 1 00056L11 1 00700M11 1 29910N11 1 00000Q11 1 10147S11 1 00071V11 1 00303X11 1 22006
038899999903822197201240000E+32133-081200SAO  +0014SAV  V0201805N003652200059N032000599+01675+01395101575ADDAA101000095GA1999+999999064GA2999+076204004GA3999+999999999GA4999+999999999GD12005+9999999GD20015+9999999GD30005+9999999GD40005+9999999GF101015999999999999999999MA1999999101395EQDN01 00000JPWTH 1QNNE11 1 00200E11 1 00001E11 1 00000E11 1 00000G11U1 99999H11 1 15999H11 1 32250H11 1 00999H11 1 00999K11 1 00057L11 1 02000M11 1 29940N11 1 00000Q11 1 10157S11 1 00062V11 1 00101X11 1 18007
039499999903822197201240300E+32133-081200SAO  +0014SAV  V0201805N003652200059N000200599+01335+01225101705ADDAA101000095GA1999+999999104GA2999+999999999GA3999+999999999GA4999+999999999GD16075+9999999GD20005+9999999GD30005+9999999GD40005+9999999GF107075999999999999999999MA1999999101525MW1455EQDN01 07000JPWTH 1QNNE11 1 00809E11 1 00000E11 1 00000E11 1 00000G11U1 99999H11 1 45999H11 1 00999H11 1 00999H11 1 00999K11 1 00054L11 1 00012M11 1 29980N11 1 07000Q11 1 10170S11 1 00056V11 1 00909X11 1 18007
031399999903822197201240600E+32133-081200SAO  +0014SAV  V0201905N003150003049N000200599+01285+01225101735ADDAA101000095GA1999+000304104GD15085+9999999GD20995+9999999GD30995+9999999GD40995+9999999GF108085999999999999999999MA1999999101565MW1455EQDN01 07000JPWTH 1QNNE11 1 00710E11 1 00099E11 1 00099E11 1 00099G11 1 00001H11 1 45001K11 1 00054L11 1 00012M11 1 29990N11 1 07000Q11 1 10173S11 1 00055V11 1 01010X11 1 19006
031399999903822197201240900E+32133-081200SAO  +0014SAV  V0202005N002150006149N000800599+01395+01285101765ADDAA101000095GA1999+000614104GD15085+9999999GD20995+9999999GD30995+9999999GD40995+9999999GF108085999999999999999999MA1999999101595MW1455EQDN01 07000JPWTH 1QNNE11 1 00710E11 1 00099E11 1 00099E11 1 00099G11 1 00002H11 1 45002K11 1 00055L11 1 00050M11 1 30000N11 1 07000Q11 1 10176S11 1 00057V11 1 01010X11 1 20004
034099999903822197201241200E+32133-081200SAO  +0014SAV  V0203005N001550012249N001600599+01395+01285101945ADDAA101000095GA1999+000614074GA2999+001224074GD12025+9999999GD24085+9999999GD30995+9999999GD40995+9999999GF108085999999999999999999MA1999999101765MW1455EQDN01 07000JPWTH 1QNNE11 1 00203E11 1 00610E11 1 00099E11 1 00099G11 1 00004H11 1 16002H11 1 16004K11 1 00055L11 1 00100M11 1 30050N11 1 07000Q11 1 10194S11 1 00057V11 1 01010X11 1 30003
031399999903822197201241500E+32133-081200SAO  +0014SAV  V0202105N002650012249N006400599+01505+01335102095ADDAA101000095GA1999+001224074GD14085+9999999GD20995+9999999GD30995+9999999GD40995+9999999GF108085999999999999999999MA1999999101935MW1455EQDN01 07000JPWTH 1QNNE11 1 00610E11 1 00099E11 1 00099E11 1 00099G11 1 00004H11 1 16004K11 1 00056L11 1 00400M11 1 30100N11 1 07000Q11 1 10209S11 1 00059V11 1 01010X11 1 21005
038899999903822197201241800E+32133-081200SAO  +0014SAV  V0202705N002652200059N011200599+02005+01395102015ADDAA101000095GA1999+004574064GA2999+999999999GA3999+999999999GA4999+999999999GD12035+9999999GD20005+9999999GD30005+9999999GD40005+9999999GF103035999999999999999999MA1999999101835EQDN01 00000JPWTH 1QNNE11 1 00204E11 1 00000E11 1 00000E11 1 00000G11U1 99999H11 1 15015H11 1 00999H11 1 00999H11 1 00999K11 1 00057L11 1 00700M11 1 30070N11 1 00000Q11 1 10201S11 1 00068V11 1 00404X11 1 27005
017699999903822197201242100E+32133-081200SAO  +0014SAV  V0201805N002152200059N011200599+02335+01225101845ADDAA101000095GF100005999999999999999999MA1999999101665EQDN01 00000JPWTH 1QNNG11U1 99999K11 1 00054L11 1 00700M11 1 30020N11 1 00000Q11 1 10184S11 1 00074V11 1 00000X11 1 18004
017699999903822197201250000E+32133-081200SAO  +0014SAV  V0201705N003652200059N032000599+01565+01395101915ADDAA101000095GF100005999999999999999999MA1999999101735EQDN01 00000JPWTH 1QNNG11U1 99999K11 1 00057L11 1 02000M11 1 30040N11 1 00000Q11 1 10191S11 1 00060V11 1 00000X11 1 17007
031399999903822197201250300E+32133-081200SAO  +0014SAV  V0201805N002650003049N000400599+01285+01175102045ADDAA101000095GA1999+000304104GD15085+9999999GD20995+9999999GD30995+9999999GD40995+9999999GF108085999999999999999999MA1999999101865MW1455EQDN01 07000JPWTH 1QNNE11 1 00710E11 1 00099E11 1 00099E11 1 00099G11 1 00001H11 1 45001K11 1 00053L11 1 00025M11 1 30080N11 1 07000Q11 1 10204S11 1 00055V11 1 01010X11 1 18005
031399999903822197201250600E+32133-081200SAO  +0014SAV  V0202205N002650006149N000400599+01395+01285101975ADDAA101000095GA1999+000614104GD15085+9999999GD20995+9999999GD30995+9999999GD40995+9999999GF108085999999999999999999MA1999999101795MW1455EQDN01 07000JPWTH 1QNNE11 1 00710E11 1 00099E11 1 00099E11 1 00099G11 1 00002H11 1 45002K11 1 00055L11 1 00025M11 1 30060N11 1 07000Q11 1 10197S11 1 00057V11 1 01010X11 1 22005
038899999903822197201250900E+32133-081200SAO  +0014SAV  V0202405N003652200059N024000599+01395+01285101975ADDAA101000095GA1999+076204024GA2999+999999999GA3999+999999999GA4999+999999999GD12025+9999999GD20005+9999999GD30005+9999999GD40005+9999999GF102025999999999999999999MA1999999101795EQDN01 00000JPWTH 1QNNE11 1 00203E11 1 00000E11 1 00000E11 1 00000G11U1 99999H11 1 37250H11 1 00999H11 1 00999H11 1 00999K11 1 00055L11 1 01500M11 1 30060N11 1 00000Q11 1 10197S11 1 00057V11 1 00303X11 1 24007
038899999903822197201251200E+32133-081200SAO  +0014SAV  V0202205N004150061049N024000599+01445+01225102045ADDAA101000095GA1999+006104084GA2999+076204024GA3999+999999999GA4999+999999999GD13065+9999999GD23025+9999999GD30005+9999999GD40005+9999999GF107075999999999999999999MA1999999101865EQDN01 00000JPWTH 1QNNE11 1 00407E11 1 00402E11 1 00000E11 1 00000G11 1 00020H11 1 11020H11 1 37250H11 1 00999H11 1 00999K11 1 00054L11 1 01500M11 1 30080N11 1 00000Q11 1 10204S11 1 00058V11 1 00909X11 1 22008
031399999903822197201251500E+32133-081200SAO  +0014SAV  V0202605N004150006149N000800599+01675+01505102355ADDAA101000095GA1999+000614104GD15085+9999999GD20995+9999999GD30995+9999999GD40995+9999999GF108085999999999999999999MA1999999102175MW1455EQDN01 07000JPWTH 1QNNE11 1 00710E11 1 00099E11 1 00099E11 1 00099G11 1 00002H11 1 45002K11 1 00059L11 1 00050M11 1 30170N11 1 07000Q11 1 10235S11 1 00062V11 1 01010X11 1 26008
036199999903822197201251800E+32133-081200SAO  +0014SAV  V0203305N005250061049N011200599+02175+01395102415ADDAA101000095GA1999+006104064GA2999+027434034GA3999+076204024GD13065+9999999GD23025+9999999GD34015+9999999GD40995+9999999GF108085999999999999999999MA1999999102245EQDN01 00000JPWTH 1QNNE11 1 00407E11 1 00402E11 1 00601E11 1 00099G11 1 00020H11 1 15020H11 1 23090H11 1 37250K11 1 00057L11 1 00700M11 1 30190N11 1 00000Q11 1 10241S11 1 00071V11 1 01010X11 1 33010
033499999903822197201252100E+32133-081200SAO  +0014SAV  V0203505N005750365849N011200599+01895+00066102585ADDAA101000095GA1999+036584034GA2999+076204024GD13075+9999999GD24015+9999999GD30995+9999999GD40995+9999999GF108085999999999999999999MA1999999102405EQDN01 00000JPWTH 1QNNE11 1 00409E11 1 00601E11 1 00099E11 1 00099G11 1 00120H11 1 23120H11 1 37250K11 1 00033L11 1 00700M11 1 30240N11 1 00000Q11 1 10258S11 1 00066V11 1 01010X11 1 35011
038899999903822197201260000E+32133-081200SAO  +0014SAV  V0200305N003652200059N032000599+01395+00175102795ADDAA101000095GA1999+076204024GA2999+999999999GA3999+999999999GA4999+999999999GD12035+9999999GD20005+9999999GD30005+9999999GD40005+9999999GF103035999999999999999999MA1999999102615EQDN01 00000JPWTH 1QNNE11 1 00204E11 1 00000E11 1 00000E11 1 00000G11U1 99999H11 1 37250H11 1 00999H11 1 00999H11 1 00999K11 1 00035L11 1 02000M11 1 30300N11 1 00000Q11 1 10279S11 1 00057V11 1 00404X11 1 03007
017699999903822197201260300E+32133-081200SAO  +0014SAV  V0200205N003152200059N032000599+01065-00065103025ADDAA101000095GF100005999999999999999999MA1999999102845EQDN01 00000JPWTH 1QNNG11U1 99999K11 1 00031L11 1 02000M11 1 30370N11 1 00000Q11 1 10302S11 1 00051V11 1 00000X11 1 02006
017699999903822197201260600E+32133-081200SAO  +0014SAV  V0200405N005252200059N032000599+01005-00285102995ADDAA101000095GF100005999999999999999999MA1999999102815EQDN01 00000JPWTH 1QNNG11U1 99999K11 1 00027L11 1 02000M11 1 30360N11 1 00000Q11 1 10299S11 1 00050V11 1 00000X11 1 04010
017699999903822197201260900E+32133-081200SAO  +0014SAV  V0200305N004152200059N032000599+00675-00445103065ADDAA101000095GF100005999999999999999999MA1999999102885EQDN01 00000JPWTH 1QNNG11U1 99999K11 1 00024L11 1 02000M11 1 30380N11 1 00000Q11 1 10306S11 1 00044V11 1 00000X11 1 03008
017699999903822197201261200E+32133-081200SAO  +0014SAV  V0200405N003152200059N032000599+00395-00445103115ADDAA101000095GF100005999999999999999999MA1999999102955EQDN01 00000JPWTH 1QNNG11U1 99999K11 1 00024L11 1 02000M11 1 30400N11 1 00000Q11 1 10311S11 1 00039V11 1 00000X11 1 04006
017699999903822197201261500E+32133-081200SAO  +0014SAV  V0200405N007752200059N011200599+00945-00335103305ADDAA101000095GF100005999999999999999999MA1999999103125EQDN01 00000JPWTH 1QNNG11U1 99999K11 1 00026L11 1 00700M11 1 30450N11 1 00000Q11 1 10330S11 1 00049V11 1 00000X11 1 04015
038899999903822197201261800E+32133-081200SAO  +0014SAV  V0200305N004652200059N011200599+01505+00225103135ADDAA101000095GA1999+042674034GA2999+999999999GA3999+999999999GA4999+999999999GD12025+9999999GD20005+9999999GD30005+9999999GD40005+9999999GF102025999999999999999999MA1999999102955EQDN01 00000JPWTH 1QNNE11 1 00202E11 1 00000E11 1 00000E11 1 00000G11U1 99999H11 1 23140H11 1 00999H11 1 00999H11 1 00999K11 1 00036L11 1 00700M11 1 30400N11 1 00000Q11 1 10313S11 1 00059V11 1 00202X11 1 03009
038899999903822197201262100E+32133-081200SAO  +0014SAV  V0200505N004650106749N011200599+01615+00615102895ADDAA101000095GA1999+010674064GA2999+999999999GA3999+999999999GA4999+999999999GD13075+9999999GD20005+9999999GD30005+9999999GD40005+9999999GF107075999999999999999999MA1999999102715EQDN01 00000JPWTH 1QNNE11 1 00409E11 1 00000E11 1 00000E11 1 00000G11 1 00035H11 1 15035H11 1 00999H11 1 00999H11 1 00999K11 1 00043L11 1 00700M11 1 30330N11 1 00000Q11 1 10289S11 1 00061V11 1 00909X11 1 05009
038899999903822197201270000E+32133-081200SAO  +0014SAV  V0200705N002650106749N019200599+01285+00675102925ADDAA101000095GA1999+010674064GA2999+999999999GA3999+999999999GA4999+999999999GD13065+9999999GD20005+9999999GD30005+9999999GD40005+9999999GF106065999999999999999999MA1999999102745EQDN01 00000JPWTH 1QNNE11 1 00408E11 1 00000E11 1 00000E11 1 00000G11 1 00035H11 1 15035H11 1 00999H11 1 00999H11 1 00999K11 1 00044L11 1 01200M11 1 30340N11 1 00000Q11 1 10292S11 1 00055V11 1 00808X11 1 07005
030799999903822197201270300E+32133-081200SAO  +0014SAV  V02099959000050106749N019200599+01285+00785102895ADDAA101000095GA1999+010674064GD14085+9999999GD20995+9999999GD30995+9999999GD40995+9999999GF108085999999999999999999MA1999999102715EQDN01 00000JPWTH 1QNNE11 1 00610E11 1 00099E11 1 00099E11 1 00099G11 1 00035H11 1 15035K11 1 00046L11 1 01200M11 1 30330N11 1 00000Q11 1 10289S11 1 00055V11 1 01010X11 1 00000
038899999903822197201270600E+32133-081200SAO  +0014SAV  V02099959000050115849N016000599+01065+00785102745ADDAA101000095GA1999+011584064GA2999+999999999GA3999+999999999GA4999+999999999GD13065+9999999GD20005+9999999GD30005+9999999GD40005+9999999GF106065999999999999999999MA1999999102575EQDN01 00000JPWTH 1QNNE11 1 00407E11 1 00000E11 1 00000E11 1 00000G11 1 00038H11 1 15038H11 1 00999H11 1 00999H11 1 00999K11 1 00046L11 1 01000M11 1 30290N11 1 00000Q11 1 10274S11 1 00051V11 1 00707X11 1 00000
038899999903822197201270900E+32133-081200SAO  +0014SAV  V0203305N002150115849N012800599+00945+00725102655ADDAA101000095GA1999+002134074GA2999+011584064GA3999+999999999GA4999+999999999GD12025+9999999GD23065+9999999GD30005+9999999GD40005+9999999GF106065999999999999999999MA1999999102475EQDN01 00000JPWTH 1QNNE11 1 00202E11 1 00408E11 1 00000E11 1 00000G11 1 00038H11 1 16007H11 1 15038H11 1 00999H11 1 00999K11 1 00045L11 1 00800M11 1 30260N11 1 00000Q11 1 10265S11 1 00049V11 1 00808X11 1 33004
038899999903822197201271200E+32133-081200SAO  +0014SAV  V0203605N002150012249N011200599+00835+00565102625ADDAA101000095GA1999+001224074GA2999+011584064GA3999+999999999GA4999+999999999GD13065+9999999GD23035+9999999GD30005+9999999GD40005+9999999GF106065999999999999999999MA1999999102445EQDN01 00000JPWTH 1QNNE11 1 00407E11 1 00404E11 1 00000E11 1 00000G11 1 00004H11 1 16004H11 1 15038H11 1 00999H11 1 00999K11 1 00042L11 1 00700M11 1 30250N11 1 00000Q11 1 10262S11 1 00047V11 1 00808X11 1 36004
038899999903822197201271500E+32133-081200SAO  +0014SAV  V0200405N003152200059N011200599+01285+00725102825ADDAA101000095GA1999+007624084GA2999+999999999GA3999+999999999GA4999+999999999GD12025+9999999GD20005+9999999GD30005+9999999GD40005+9999999GF102025999999999999999999MA1999999102645EQDN01 00000JPWTH 1QNNE11 1 00203E11 1 00000E11 1 00000E11 1 00000G11U1 99999H11 1 11025H11 1 00999H11 1 00999H11 1 00999K11 1 00045L11 1 00700M11 1 30310N11 1 00000Q11 1 10282S11 1 00055V11 1 00303X11 1 04006
030799999903822197201271800E+32133-081200SAO  +0014SAV  V0203605N001550091449N011200599+01835+01175102625ADDAA101000095GA1999+009144064GD14085+9999999GD20995+9999999GD30995+9999999GD40995+9999999GF108085999999999999999999MA1999999102445EQDN01 00000JPWTH 1QNNE11 1 00610E11 1 00099E11 1 00099E11 1 00099G11 1 00030H11 1 15030K11 1 00053L11 1 00700M11 1 30250N11 1 00000Q11 1 10262S11 1 00065V11 1 01010X11 1 36003
039499999903822197201272100E+32133-081200SAO  +0014SAV  V0201305N002152200059N008000599+02115+01335102285ADDAA101000095GA1999+009144064GA2999+999999999GA3999+999999999GA4999+999999999GD12025+9999999GD20005+9999999GD30005+9999999GD40005+9999999GF102025999999999999999999MA1999999102105MW1045EQDN01 08000JPWTH 1QNNE11 1 00203E11 1 00000E11 1 00000E11 1 00000G11U1 99999H11 1 15030H11 1 00999H11 1 00999H11 1 00999K11 1 00056L11 1 00500M11 1 30150N11 1 08000Q11 1 10228S11 1 00070V11 1 00303X11 1 13004
018299999903822197201280000E+32133-081200SAO  +0014SAV  V0201605N002152200059N006400599+01505+01175102375ADDAA101000095GF100005999999999999999999MA1999999102205MW1045EQDN01 08000JPWTH 1QNNG11U1 99999K11 1 00053L11 1 00400M11 1 30180N11 1 08000Q11 1 10237S11 1 00059V11 1 00000X11 1 16004
018299999903822197201280300E+32133-081200SAO  +0014SAV  V0201605N002152200059N008000599+01175+01175102385ADDAA101000095GF100005999999999999999999MA1999999102205MW1045EQDN01 08000JPWTH 1QNNG11U1 99999K11 1 00053L11 1 00500M11 1 30180N11 1 08000Q11 1 10238S11 1 00053V11 1 00000X11 1 16004
018899999903822197201280600E+32133-081200SAO  +0014SAV  V0202205N002152200059N004800599+01225+01115102285ADDAA101000095GF100005999999999999999999MA1999999102105MW1045MW2445EQDN01 07280JPWTH 1QNNG11U1 99999K11 1 00052L11 1 00300M11 1 30150N11 1 07280Q11 1 10228S11 1 00054V11 1 00000X11 1 22004
040099999903822197201280900E+32133-081200SAO  +0014SAV  V0202305N002652200059N002400599+01285+01175102145ADDAA101000095GA1999+016764064GA2999+999999999GA3999+999999999GA4999+999999999GD12025+9999999GD20005+9999999GD30005+9999999GD40005+9999999GF102025999999999999999999MA1999999101965MW1045MW2445EQDN01 07280JPWTH 1QNNE11 1 00203E11 1 00000E11 1 00000E11 1 00000G11U1 99999H11 1 15055H11 1 00999H11 1 00999H11 1 00999K11 1 00053L11 1 00150M11 1 30110N11 1 07280Q11 1 10214S11 1 00055V11 1 00303X11 1 23005
034099999903822197201281200E+32133-081200SAO  +0014SAV  V0202305N003150015249N000400599+01565+01395102085ADDAA101000095GA1999+999999104GA2999+001524074GD16065+9999999GD24025+9999999GD30995+9999999GD40995+9999999GF108085999999999999999999MA1999999101905MW1455EQDN01 07000JPWTH 1QNNE11 1 00808E11 1 00602E11 1 00099E11 1 00099G11 1 00005H11 1 45999H11 1 16005K11 1 00057L11 1 00025M11 1 30090N11 1 07000Q11 1 10208S11 1 00060V11 1 01010X11 1 23006
038899999903822197201281500E+32133-081200SAO  +0014SAV  V0202205N004652200059N011200599+01675+01505102145ADDAA101000095GA1999+001224074GA2999+999999004GA3999+999999999GA4999+999999999GD11025+9999993GD21005+9999993GD30005+9999999GD40005+9999999GF102015999999999999999999MA1999999101965EQDN01 00000JPWTH 1QNNE11 1 00102E11 1 00100E11 1 00000E11 1 00000G11U1 99999H11 1 16004H11 1 32999H11 1 00999H11 1 00999K11 1 00059L11 1 00700M11 1 30110N11 1 00000Q11 1 10214S11 1 00062V11 1 00201X11 1 22009
038899999903822197201281800E+32133-081200SAO  +0014SAV  V0202505N008252200059N011200599+02505+01505101945ADDAA101000095GA1999+007624064GA2999+999999004GA3999+999999999GA4999+999999999GD12015+9999999GD22005+9999999GD30005+9999999GD40005+9999999GF101015999999999999999999MA1999999101765EQDN01 00000JPWTH 1QNNE11 1 00201E11 1 00200E11 1 00000E11 1 00000G11U1 99999H11 1 15025H11 1 32999H11 1 00999H11 1 00999K11 1 00059L11 1 00700M11 1 30050N11 1 00000Q11 1 10194S11 1 00077V11 1 00101X11 1 25016
038899999903822197201282100E+32133-081200SAO  +0014SAV  V0202905N004652200059N011200599+02445+01445101875ADDAA101000095GA1999+007624064GA2999+999999004GA3999+999999999GA4999+999999999GD12025+9999999GD22005+9999999GD30005+9999999GD40005+9999999GF102025999999999999999999MA1999999101695EQDN01 00000JPWTH 1QNNE11 1 00202E11 1 00200E11 1 00000E11 1 00000G11U1 99999H11 1 15025H11 1 32999H11 1 00999H11 1 00999K11 1 00058L11 1 00700M11 1 30030N11 1 00000Q11 1 10187S11 1 00076V11 1 00202X11 1 29009
038899999903822197201290000E+32133-081200SAO  +0014SAV  V0202705N002152200059N016000599+01835+01395101965ADDAA101000095GA1999+076204004GA2999+999999999GA3999+999999999GA4999+999999999GD11035+9999993GD20005+9999999GD30005+9999999GD40005+9999999GF103015999999999999999999MA1999999101795EQDN01 00000JPWTH 1QNNE11 1 00104E11 1 00000E11 1 00000E11 1 00000G11U1 99999H11 1 32250H11 1 00999H11 1 00999H11 1 00999K11 1 00057L11 1 01000M11 1 30060N11 1 00000Q11 1 10196S11 1 00065V11 1 00401X11 1 27004
038899999903822197201290300E+32133-081200SAO  +0014SAV  V02099959000052200059N016000599+01565+01335102085ADDAA101000095GA1999+076204024GA2999+999999999GA3999+999999999GA4999+999999999GD13055+9999993GD20005+9999999GD30005+9999999GD40005+9999999GF105025999999999999999999MA1999999101905EQDN01 00000JPWTH 1QNNE11 1 00306E11 1 00000E11 1 00000E11 1 00000G11U1 99999H11 1 37250H11 1 00999H11 1 00999H11 1 00999K11 1 00056L11 1 01000M11 1 30090N11 1 00000Q11 1 10208S11 1 00060V11 1 00602X11 1 00000
038899999903822197201290600E+32133-081200SAO  +0014SAV  V0201805N002152200059N016000599+01395+01225101975ADDAA101000095GA1999+076204024GA2999+999999999GA3999+999999999GA4999+999999999GD11025+9999993GD20005+9999999GD30005+9999999GD40005+9999999GF102005999999999999999999MA1999999101795EQDN01 00000JPWTH 1QNNE11 1 00102E11 1 00000E11 1 00000E11 1 00000G11U1 99999H11 1 37250H11 1 00999H11 1 00999H11 1 00999K11 1 00054L11 1 01000M11 1 30060N11 1 00000Q11 1 10197S11 1 00057V11 1 00200X11 1 18004
038899999903822197201290900E+32133-081200SAO  +0014SAV  V02099959000050365849N016000599+01285+01175101915ADDAA101000095GA1999+036584034GA2999+999999999GA3999+999999999GA4999+999999999GD13065+9999999GD20005+9999999GD30005+9999999GD40005+9999999GF106065999999999999999999MA1999999101735EQDN01 00000JPWTH 1QNNE11 1 00407E11 1 00000E11 1 00000E11 1 00000G11 1 00120H11 1 23120H11 1 00999H11 1 00999H11 1 00999K11 1 00053L11 1 01000M11 1 30040N11 1 00000Q11 1 10191S11 1 00055V11 1 00707X11 1 00000
034099999903822197201291200E+32133-081200SAO  +0014SAV  V02099959000050070149N004000599+01395+01225101975ADDAA101000095GA1999+000614074GA2999+007014064GD12015+9999999GD24085+9999999GD30995+9999999GD40995+9999999GF108085999999999999999999MA1999999101795MW1455EQDN01 07000JPWTH 1QNNE11 1 00201E11 1 00610E11 1 00099E11 1 00099G11 1 00023H11 1 16002H11 1 15023K11 1 00054L11 1 00250M11 1 30060N11 1 07000Q11 1 10197S11 1 00057V11 1 01010X11 1 00000
031399999903822197201291500E+32133-081200SAO  +0014SAV  V0201505N003150030549N008000599+01785+01395102085ADDAA101000095GA1999+003054074GD14085+9999999GD20995+9999999GD30995+9999999GD40995+9999999GF108085999999999999999999MA1999999101905MW1045EQDN01 08000JPWTH 1QNNE11 1 00610E11 1 00099E11 1 00099E11 1 00099G11 1 00010H11 1 16010K11 1 00057L11 1 00500M11 1 30090N11 1 08000Q11 1 10208S11 1 00064V11 1 01010X11 1 15006
036199999903822197201291800E+32133-081200SAO  +0014SAV  V0202505N005250365849N011200599+02285+01615101845ADDAA101000095GA1999+005184064GA2999+036584034GA3999+076204024GD12025+9999999GD23065+9999999GD34015+9999999GD40995+9999999GF108085999999999999999999MA1999999101665EQDN01 00000JPWTH 1QNNE11 1 00202E11 1 00407E11 1 00601E11 1 00099G11 1 00120H11 1 15017H11 1 23120H11 1 37250K11 1 00061L11 1 00700M11 1 30020N11 1 00000Q11 1 10184S11 1 00073V11 1 01010X11 1 25010
