0269999999038401972010311005+30533-087200SAO  +0040NDP  V0201105N003652200059N011200599+01285+01065101415ADDGD12995+9999999GD20995+9999999GD30995+9999999GD40995+9999999GF104025999999999999999999MA1999999100955EQDN01 00000JPWTH 1QNNE11 1 00299E11 1 00099E11 1 00099E11 1 00099G11U1 99999K11 1 00051L11 1 00700M11 1 29810N11 1 00000Q11 1 10141S11 1 00055V11 1 00503X11 1 11007
0377999999038401972010312005+30533-087200SAO  +0040NDP  V0200905N005252200059N011200599+01395+01115101485ADDGA1999+076204004GA2999+999999999GA3999+999999999GA4999+999999999GD12025+9999999GD20005+9999999GD30005+9999999GD40005+9999999GF102025999999999999999999MA1999999101025EQDN01 00000JPWTH 1QNNE11 1 00203E11 1 00000E11 1 00000E11 1 00000G11U1 99999H11 1 32250H11 1 00999H11 1 00999H11 1 00999K11 1 00052L11 1 00700M11 1 29830N11 1 00000Q11 1 10148S11 1 00057V11 1 00302X11 1 09010
0269999999038401972010313005+30533-087200SAO  +0040NDP  V0200705N004652200059N011200599+01335+01115101635ADDGD12995+9999999GD23995+9999993GD30995+9999999GD40995+9999999GF107035999999999999999999MA1999999101155EQDN01 00000JPWTH 1QNNE11 1 00299E11 1 00399E11 1 00099E11 1 00099G11U1 99999K11 1 00052L11 1 00700M11 1 29870N11 1 00000Q11 1 10163S11 1 00056V11 1 00904X11 1 07009
0275999999038401972010314005+30533-087200SAO  +0040NDP  V0201005N004650003049N000800599+01335+01225101675ADDGD15995+9999999GD20995+9999999GD30995+9999999GD40995+9999999GF108085999999999999999999MA1999999101195MW1455EQDN01 07000JPWTH 1QNNE11 1 00799E11 1 00099E11 1 00099E11 1 00099G11 1 00001K11 1 00054L11 1 00050M11 1 29880N11 1 07000Q11 1 10167S11 1 00056V11 1 01010X11 1 10009
0302999999038401972010315005+30533-087200SAO  +0040NDP  V0200705N003650009149N002400599+01445+01285101795ADDGA1999+000914104GD15085+9999999GD20995+9999999GD30995+9999999GD40995+9999999GF108085999999999999999999MA1999999101325MW1455EQDN01 07000JPWTH 1QNNE11 1 00710E11 1 00099E11 1 00099E11 1 00099G11 1 00003H11 1 45003K11 1 00055L11 1 00150M11 1 29920N11 1 07000Q11 1 10179S11 1 00058V11 1 01010X11 1 07007
0275999999038401972010316005+30533-087200SAO  +0040NDP  V0200905N004150015249N009600599+01615+01445101815ADDGD14995+9999999GD20995+9999999GD30995+9999999GD40995+9999999GF108085999999999999999999MA1999999101355MW1055EQDN01 08100JPWTH 1QNNE11 1 00699E11 1 00099E11 1 00099E11 1 00099G11 1 00005K11 1 00058L11 1 00600M11 1 29930N11 1 08100Q11 1 10181S11 1 00061V11 1 01010X11 1 09008
0275999999038401972010317005+30533-087200SAO  +0040NDP  V0200705N003650012249N009600599+01675+01505101735ADDGD14995+9999999GD20995+9999999GD30995+9999999GD40995+9999999GF108085999999999999999999MA1999999101295MW1055EQDN01 08100JPWTH 1QNNE11 1 00699E11 1 00099E11 1 00099E11 1 00099G11 1 00004K11 1 00059L11 1 00600M11 1 29910N11 1 08100Q11 1 10173S11 1 00062V11 1 01010X11 1 07007
0302999999038401972010318005+30533-087200SAO  +0040NDP  V0201005N004150021349N009600599+01725+01505101675ADDGA1999+002134074GD14085+9999999GD20995+9999999GD30995+9999999GD40995+9999999GF108085999999999999999999MA1999999101195MW1055EQDN01 08100JPWTH 1QNNE11 1 00610E11 1 00099E11 1 00099E11 1 00099G11 1 00007H11 1 16007K11 1 00059L11 1 00600M11 1 29880N11 1 08100Q11 1 10167S11 1 00063V11 1 01010X11 1 10008
0275999999038401972010319005+30533-087200SAO  +0040NDP  V0201105N004650015249N009600599+01895+01615101585ADDGD13995+9999999GD24995+9999999GD30995+9999999GD40995+9999999GF108085999999999999999999MA1999999101125MW1055EQDN01 08100JPWTH 1QNNE11 1 00499E11 1 00699E11 1 00099E11 1 00099G11 1 00005K11 1 00061L11 1 00600M11 1 29860N11 1 08100Q11 1 10158S11 1 00066V11 1 01010X11 1 11009
0275999999038401972010320005+30533-087200SAO  +0040NDP  V0201305N004650015249N009600599+02005+01675101565ADDGD14995+9999999GD20995+9999999GD30995+9999999GD40995+9999999GF108085999999999999999999MA1999999101085MW1055EQDN01 08100JPWTH 1QNNE11 1 00699E11 1 00099E11 1 00099E11 1 00099G11 1 00005K11 1 00062L11 1 00600M11 1 29850N11 1 08100Q11 1 10156S11 1 00068V11 1 01010X11 1 13009
0356999999038401972010321005+30533-087200SAO  +0040NDP  V0201305N005250021349N009600599+02005+01725101515ADDGA1999+002134074GA2999+003054064GA3999+024384034GD13065+9999999GD23025+9999999GD34015+9999999GD40995+9999999GF108085999999999999999999MA1999999101055MW1055EQDN01 08100JPWTH 1QNNE11 1 00407E11 1 00402E11 1 00601E11 1 00099G11 1 00007H11 1 16007H11 1 15010H11 1 23080K11 1 00063L11 1 00600M11 1 29840N11 1 08100Q11 1 10151S11 1 00068V11 1 01010X11 1 13010
0275999999038401972010322005+30533-087200SAO  +0040NDP  V0201305N006250024449N009600599+02005+01785101485ADDGD12995+9999999GD23995+9999999GD33995+9999999GD44995+9999999GF108085999999999999999999MA1999999101025MW1055EQDN01 08100JPWTH 1QNNE11 1 00299E11 1 00499E11 1 00499E11 1 00699G11 1 00008K11 1 00064L11 1 00600M11 1 29830N11 1 08100Q11 1 10148S11 1 00068V11 1 01010X11 1 13012
0275999999038401972010323005+30533-087200SAO  +0040NDP  V0201205N006250021349N009600599+02005+01785101455ADDGD13995+9999999GD24995+9999999GD30995+9999999GD40995+9999999GF108085999999999999999999MA1999999100985MW1055EQDN01 08100JPWTH 1QNNE11 1 00499E11 1 00699E11 1 00099E11 1 00099G11 1 00007K11 1 00064L11 1 00600M11 1 29820N11 1 08100Q11 1 10145S11 1 00068V11 1 01010X11 1 12012
0269999999038401972010411005+30533-087200SAO  +0040NDP  V0202005N005750015249N011200599+02285+02225101385ADDGD14995+9999999GD20995+9999999GD30995+9999999GD40995+9999999GF108075999999999999999999MA1999999100915EQDN01 00000JPWTH 1QNNE11 1 00699E11 1 00099E11 1 00099E11 1 00099G11 1 00005K11 1 00072L11 1 00700M11 1 29800N11 1 00000Q11 1 10138S11 1 00073V11 1 01009X11 1 20011
0377999999038401972010412005+30533-087200SAO  +0040NDP  V0202005N005250015249N011200599+02285+02175101385ADDGA1999+001524074GA2999+003054084GA3999+999999999GA4999+999999999GD13065+9999999GD24025+9999999GD30005+9999999GD40005+9999999GF108075999999999999999999MA1999999100915EQDN01 00000JPWTH 1QNNE11 1 00407E11 1 00603E11 1 00000E11 1 00000G11 1 00005H11 1 16005H11 1 11010H11 1 00999H11 1 00999K11 1 00071L11 1 00700M11 1 29800N11 1 00000Q11 1 10138S11 1 00073V11 1 01009X11 1 20010
0269999999038401972010413005+30533-087200SAO  +0040NDP  V0201905N005750015249N011200599+02285+02175101435ADDGD13995+9999999GD23995+9999999GD34995+9999999GD40995+9999999GF108075999999999999999999MA1999999100955EQDN01 00000JPWTH 1QNNE11 1 00499E11 1 00499E11 1 00699E11 1 00099G11 1 00005K11 1 00071L11 1 00700M11 1 29810N11 1 00000Q11 1 10143S11 1 00073V11 1 01009X11 1 19011
0275999999038401972010414005+30533-087200SAO  +0040NDP  V0202105N005250030549N008000599+02285+02225101465ADDGD12995+9999999GD23995+9999999GD34995+9999999GD40995+9999999GF108085999999999999999999MA1999999100985MW1055EQDN01 08100JPWTH 1QNNE11 1 00299E11 1 00499E11 1 00699E11 1 00099G11 1 00010K11 1 00072L11 1 00500M11 1 29820N11 1 08100Q11 1 10146S11 1 00073V11 1 01010X11 1 21010
0383999999038401972010415005+30533-087200SAO  +0040NDP  V0201905N006250015249N008000599+02335+02225101515ADDGA1999+001524074GA2999+024384034GA3999+999999999GA4999+999999999GD13065+9999999GD24025+9999999GD30005+9999999GD40005+9999999GF108075999999999999999999MA1999999101055MW1055EQDN01 08100JPWTH 1QNNE11 1 00407E11 1 00603E11 1 00000E11 1 00000G11 1 00005H11 1 16005H11 1 23080H11 1 00999H11 1 00999K11 1 00072L11 1 00500M11 1 29840N11 1 08100Q11 1 10151S11 1 00074V11 1 01009X11 1 19012
0275999999038401972010416005+30533-087200SAO  +0040NDP  V0202005N007750015249N009600599+02395+02285101515ADDGD13995+9999999GD23995+9999999GD30995+9999999GD40995+9999999GF107075999999999999999999MA1999999101055MW1055EQDN01 08100JPWTH 1QNNE11 1 00499E11 1 00499E11 1 00099E11 1 00099G11 1 00005K11 1 00073L11 1 00600M11 1 29840N11 1 08100Q11 1 10151S11 1 00075V11 1 00909X11 1 20015
0275999999038401972010417005+30533-087200SAO  +0040NDP  V0202205N009350021349N009600599+02505+02225101505ADDGD14995+9999999GD20995+9999999GD30995+9999999GD40995+9999999GF108085999999999999999999MA1999999101025MW1055EQDN01 08100JPWTH 1QNNE11 1 00699E11 1 00099E11 1 00099E11 1 00099G11 1 00007K11 1 00072L11 1 00600M11 1 29830N11 1 08100Q11 1 10150S11 1 00077V11 1 01010X11 1 22018
0377999999038401972010418005+30533-087200SAO  +0040NDP  V0202005N010350021349N011200599+02505+02175101365ADDGA1999+002134074GA2999+004574084GA3999+076204004GA4999+999999999GD13065+9999999GD23025+9999999GD34015+9999999GD40005+9999999GF108075999999999999999999MA1999999100885EQDN01 00000JPWTH 1QNNE11 1 00407E11 1 00402E11 1 00601E11 1 00000G11 1 00007H11 1 16007H11 1 11015H11 1 32250H11 1 00999K11 1 00071L11 1 00700M11 1 29790N11 1 00000Q11 1 10136S11 1 00077V11 1 01009X11 1 20020
0269999999038401972010419005+30533-087200SAO  +0040NDP  V0202105N010350015249N011200599+02505+02175101265ADDGD13995+9999999GD24995+9999999GD30995+9999999GD40995+9999999GF108085999999999999999999MA1999999100785EQDN01 00000JPWTH 1QNNE11 1 00499E11 1 00699E11 1 00099E11 1 00099G11 1 00005K11 1 00071L11 1 00700M11 1 29760N11 1 00000Q11 1 10126S11 1 00077V11 1 01010X11 1 21020
0269999999038401972010420005+30533-087200SAO  +0040NDP  V0202105N009350021349N011200599+02445+02175101245ADDGD13995+9999999GD23995+9999999GD34995+9999999GD40995+9999999GF108085999999999999999999MA1999999100785EQDN01 00000JPWTH 1QNNE11 1 00499E11 1 00499E11 1 00699E11 1 00099G11 1 00007K11 1 00071L11 1 00700M11 1 29760N11 1 00000Q11 1 10124S11 1 00076V11 1 01010X11 1 21018
0350999999038401972010421005+30533-087200SAO  +0040NDP  V0202305N011850021349N011200599+02505+02175101245ADDGA1999+002134074GA2999+004574084GA3999+076204004GD13055+9999999GD23025+9999999GD34025+9999999GD40995+9999999GF108085999999999999999999MA1999999100785EQDN01 00000JPWTH 1QNNE11 1 00406E11 1 00402E11 1 00602E11 1 00099G11 1 00007H11 1 16007H11 1 11015H11 1 32250K11 1 00071L11 1 00700M11 1 29760N11 1 00000Q11 1 10124S11 1 00077V11 1 01010X11 1 23023
0269999999038401972010422005+30533-087200SAO  +0040NDP  V0202205N008850021349N011200599+02445+02175101265ADDGD13995+9999999GD23995+9999999GD34995+9999999GD40995+9999999GF108085999999999999999999MA1999999100785EQDN01 00000JPWTH 1QNNE11 1 00499E11 1 00499E11 1 00699E11 1 00099G11 1 00007K11 1 00071L11 1 00700M11 1 29760N11 1 00000Q11 1 10126S11 1 00076V11 1 01010X11 1 22017
0269999999038401972010511005+30533-087200SAO  +0040NDP  V0203405N008250021349N011200599+01225+00895101675ADDGD14995+9999999GD20995+9999999GD30995+9999999GD40995+9999999GF108085999999999999999999MA1999999101195EQDN01 00000JPWTH 1QNNE11 1 00699E11 1 00099E11 1 00099E11 1 00099G11 1 00007K11 1 00048L11 1 00700M11 1 29880N11 1 00000Q11 1 10167S11 1 00054V11 1 01010X11 1 34016
0296999999038401972010512005+30533-087200SAO  +0040NDP  V0200105N006250024449N011200599+01065+00675101755ADDGA1999+002444074GD14085+9999999GD20995+9999999GD30995+9999999GD40995+9999999GF108085999999999999999999MA1999999101295EQDN01 00000JPWTH 1QNNE11 1 00610E11 1 00099E11 1 00099E11 1 00099G11 1 00008H11 1 16008K11 1 00044L11 1 00700M11 1 29910N11 1 00000Q11 1 10175S11 1 00051V11 1 01010X11 1 01012
0275999999038401972010513005+30533-087200SAO  +0040NDP  V0200205N009850024449N009600599+00835+00565101875ADDGD12995+9999999GD23995+9999999GD33995+9999999GD40995+9999999GF107075999999999999999999MA1999999101395MW1615EQDN01 02000JPWTH 1QNNE11 1 00299E11 1 00499E11 1 00499E11 1 00099G11 1 00008K11 1 00042L11 1 00600M11 1 29940N11 1 02000Q11 1 10187S11 1 00047V11 1 00909X11 1 02019
0269999999038401972010514005+30533-087200SAO  +0040NDP  V0200105N010350012249N011200599+00675+00445101985ADDGD13995+9999999GD24995+9999999GD30995+9999999GD40995+9999999GF108085999999999999999999MA1999999101495EQDN01 00000JPWTH 1QNNE11 1 00499E11 1 00699E11 1 00099E11 1 00099G11 1 00004K11 1 00040L11 1 00700M11 1 29970N11 1 00000Q11 1 10198S11 1 00044V11 1 01010X11 1 01020
0323999999038401972010515005+30533-087200SAO  +0040NDP  V0200105N007250018349N011200599+00675+00225102075ADDGA1999+001834084GA2999+007624074GD13055+9999999GD24035+9999999GD30995+9999999GD40995+9999999GF108085999999999999999999MA1999999101595EQDN01 00000JPWTH 1QNNE11 1 00406E11 1 00604E11 1 00099E11 1 00099G11 1 00006H11 1 11006H11 1 16025K11 1 00036L11 1 00700M11 1 30000N11 1 00000Q11 1 10207S11 1 00044V11 1 01010X11 1 01014
0269999999038401972010516005+30533-087200SAO  +0040NDP  V0200105N005250024449N011200599+00675+00225102075ADDGD13995+9999999GD23995+9999999GD34995+9999999GD40995+9999999GF108085999999999999999999MA1999999101595EQDN01 00000JPWTH 1QNNE11 1 00499E11 1 00499E11 1 00699E11 1 00099G11 1 00008K11 1 00036L11 1 00700M11 1 30000N11 1 00000Q11 1 10207S11 1 00044V11 1 01010X11 1 01010
0269999999038401972010517005+30533-087200SAO  +0040NDP  V0203605N005250076249N011200599+00675+00115102125ADDGD12995+9999999GD23995+9999999GD33995+9999999GD40995+9999999GF107075999999999999999999MA1999999101665EQDN01 00000JPWTH 1QNNE11 1 00299E11 1 00499E11 1 00499E11 1 00099G11 1 00025K11 1 00034L11 1 00700M11 1 30020N11 1 00000Q11 1 10212S11 1 00044V11 1 00909X11 1 36010
0377999999038401972010518005+30533-087200SAO  +0040NDP  V0200105N007250076249N011200599+00675+00065102075ADDGA1999+002444084GA2999+007624064GA3999+021344034GA4999+999999999GD12025+9999999GD23035+9999999GD33025+9999999GD40005+9999999GF107075999999999999999999MA1999999101595EQDN01 00000JPWTH 1QNNE11 1 00202E11 1 00404E11 1 00403E11 1 00000G11 1 00025H11 1 11008H11 1 15025H11 1 23070H11 1 00999K11 1 00033L11 1 00700M11 1 30000N11 1 00000Q11 1 10207S11 1 00044V11 1 00909X11 1 01014
0269999999038401972010519005+30533-087200SAO  +0040NDP  V0200105N009350213449N011200599+00725+00065101965ADDGD12995+9999999GD23995+9999999GD33995+9999999GD40995+9999999GF107065999999999999999999MA1999999101495EQDN01 00000JPWTH 1QNNE11 1 00299E11 1 00499E11 1 00499E11 1 00099G11 1 00070K11 1 00033L11 1 00700M11 1 29970N11 1 00000Q11 1 10196S11 1 00045V11 1 00908X11 1 01018
0269999999038401972010520005+30533-087200SAO  +0040NDP  V0203605N006252200059N016000599+00785+00065101965ADDGD12995+9999999GD23995+9999993GD30995+9999999GD40995+9999999GF106025999999999999999999MA1999999101495EQDN01 00000JPWTH 1QNNE11 1 00299E11 1 00399E11 1 00099E11 1 00099G11U1 99999K11 1 00033L11 1 01000M11 1 29970N11 1 00000Q11 1 10196S11 1 00046V11 1 00803X11 1 36012
0377999999038401972010521005+30533-087200SAO  +0040NDP  V0203605N006752200059N016000599+00725-00065102015ADDGA1999+007624064GA2999+076204004GA3999+999999999GA4999+999999999GD12025+9999999GD24065+9999993GD30005+9999999GD40005+9999999GF108035999999999999999999MA1999999101525EQDN01 00000JPWTH 1QNNE11 1 00203E11 1 00507E11 1 00000E11 1 00000G11U1 99999H11 1 15025H11 1 32250H11 1 00999H11 1 00999K11 1 00031L11 1 01000M11 1 29980N11 1 00000Q11 1 10201S11 1 00045V11 1 01004X11 1 36013
0269999999038401972010522005+30533-087200SAO  +0040NDP  V0200205N007250762049N011200599+00505-00175102105ADDGD12995+9999999GD22995+9999999GD34995+9999999GD40995+9999999GF108055999999999999999999MA1999999101635EQDN01 00000JPWTH 1QNNE11 1 00299E11 1 00299E11 1 00699E11 1 00099G11 1 00250K11 1 00029L11 1 00700M11 1 30010N11 1 00000Q11 1 10210S11 1 00041V11 1 01006X11 1 02014
0269999999038401972010523005+30533-087200SAO  +0040NDP  V0200105N005250762049N011200599+00505-00115102105ADDGD12995+9999999GD22995+9999999GD33995+9999999GD40995+9999999GF106045999999999999999999MA1999999101635EQDN01 00000JPWTH 1QNNE11 1 00299E11 1 00299E11 1 00499E11 1 00099G11 1 00250K11 1 00030L11 1 00700M11 1 30010N11 1 00000Q11 1 10210S11 1 00041V11 1 00805X11 1 01010
0377999999038401972010600005+30533-087200SAO  +0040NDP  V0200305N005250045749N011200599+00395-00225102155ADDGA1999+004574064GA2999+076204004GA3999+999999999GA4999+999999999GD13065+9999999GD23025+9999999GD30005+9999999GD40005+9999999GF107065999999999999999999MA1999999101665EQDN01 00000JPWTH 1QNNE11 1 00407E11 1 00402E11 1 00000E11 1 00000G11 1 00015H11 1 15015H11 1 32250H11 1 00999H11 1 00999K11 1 00028L11 1 00700M11 1 30020N11 1 00000Q11 1 10215S11 1 00039V11 1 00907X11 1 03010
0269999999038401972010601005+30533-087200SAO  +0040NDP  V0200205N006250045749N011200599+00335-00225102205ADDGD13995+9999999GD23995+9999999GD30995+9999999GD40995+9999999GF107055999999999999999999MA1999999101735EQDN01 00000JPWTH 1QNNE11 1 00499E11 1 00499E11 1 00099E11 1 00099G11 1 00015K11 1 00028L11 1 00700M11 1 30040N11 1 00000Q11 1 10220S11 1 00038V11 1 00906X11 1 02012
0269999999038401972010602005+30533-087200SAO  +0040NDP  V0200105N004650762049N011200599+00285-00225102215ADDGD12995+9999999GD23995+9999999GD30995+9999999GD40995+9999999GF106035999999999999999999MA1999999101735EQDN01 00000JPWTH 1QNNE11 1 00299E11 1 00499E11 1 00099E11 1 00099G11 1 00250K11 1 00028L11 1 00700M11 1 30040N11 1 00000Q11 1 10221S11 1 00037V11 1 00704X11 1 01009
0383999999038401972010603005+30533-087200SAO  +0040NDP  V0200205N003650045749N009600599+00225-00225102205ADDGA1999+004574064GA2999+076204004GA3999+999999999GA4999+999999999GD13055+9999999GD23025+9999999GD30005+9999999GD40005+9999999GF106055999999999999999999MA1999999101735MW1055EQDN01 08100JPWTH 1QNNE11 1 00406E11 1 00402E11 1 00000E11 1 00000G11 1 00015H11 1 15015H11 1 32250H11 1 00999H11 1 00999K11 1 00028L11 1 00600M11 1 30040N11 1 08100Q11 1 10220S11 1 00036V11 1 00806X11 1 02007
0269999999038401972010611005+30533-087200SAO  +0040NDP  V0200105N004150152449N011200599+00115-00335102245ADDGD13995+9999999GD20995+9999999GD30995+9999999GD40995+9999999GF107075999999999999999999MA1999999101765EQDN01 00000JPWTH 1QNNE11 1 00499E11 1 00099E11 1 00099E11 1 00099G11 1 00050K11 1 00026L11 1 00700M11 1 30050N11 1 00000Q11 1 10224S11 1 00034V11 1 00909X11 1 01008
0377999999038401972010612005+30533-087200SAO  +0040NDP  V0203605N005250152449N011200599+00115-00335102295ADDGA1999+015244064GA2999+999999999GA3999+999999999GA4999+999999999GD13075+9999999GD20005+9999999GD30005+9999999GD40005+9999999GF107075999999999999999999MA1999999101835EQDN01 00000JPWTH 1QNNE11 1 00409E11 1 00000E11 1 00000E11 1 00000G11 1 00050H11 1 15050H11 1 00999H11 1 00999H11 1 00999K11 1 00026L11 1 00700M11 1 30070N11 1 00000Q11 1 10229S11 1 00034V11 1 00909X11 1 36010
0269999999038401972010613005+30533-087200SAO  +0040NDP  V0200205N003150091449N011200599+00115-00285102345ADDGD13995+9999999GD23995+9999999GD30995+9999999GD40995+9999999GF107075999999999999999999MA1999999101865EQDN01 00000JPWTH 1QNNE11 1 00499E11 1 00499E11 1 00099E11 1 00099G11 1 00030K11 1 00027L11 1 00700M11 1 30080N11 1 00000Q11 1 10234S11 1 00034V11 1 00909X11 1 02006
0269999999038401972010614005+30533-087200SAO  +0040NDP  V0203505N004650036649N011200599+00115-00285102445ADDGD13995+9999999GD23995+9999999GD30995+9999999GD40995+9999999GF107065999999999999999999MA1999999101965EQDN01 00000JPWTH 1QNNE11 1 00499E11 1 00499E11 1 00099E11 1 00099G11 1 00012K11 1 00027L11 1 00700M11 1 30110N11 1 00000Q11 1 10244S11 1 00034V11 1 00908X11 1 35009
0377999999038401972010615005+30533-087200SAO  +0040NDP  V0200205N004150213449N011200599+00225-00285102505ADDGA1999+003664074GA2999+021344034GA3999+076204004GA4999+999999999GD12025+9999999GD23035+9999999GD33015+9999999GD40005+9999999GF106055999999999999999999MA1999999102035EQDN01 00000JPWTH 1QNNE11 1 00203E11 1 00404E11 1 00401E11 1 00000G11 1 00070H11 1 16012H11 1 23070H11 1 32250H11 1 00999K11 1 00027L11 1 00700M11 1 30130N11 1 00000Q11 1 10250S11 1 00036V11 1 00806X11 1 02008
0269999999038401972010616005+30533-087200SAO  +0040NDP  V0200405N006750304849N011200599+00335-00285102535ADDGD12995+9999999GD23995+9999999GD33995+9999999GD40995+9999999GF106035999999999999999999MA1999999102075EQDN01 00000JPWTH 1QNNE11 1 00299E11 1 00499E11 1 00499E11 1 00099G11 1 00100K11 1 00027L11 1 00700M11 1 30140N11 1 00000Q11 1 10253S11 1 00038V11 1 00704X11 1 04013
0275999999038401972010617005+30533-087200SAO  +0040NDP  V0203305N002652200059N008000599+00505-00175102435ADDGD12995+9999999GD20995+9999999GD30995+9999999GD40995+9999999GF102025999999999999999999MA1999999101965MW1055EQDN01 08100JPWTH 1QNNE11 1 00299E11 1 00099E11 1 00099E11 1 00099G11U1 99999K11 1 00029L11 1 00500M11 1 30110N11 1 08100Q11 1 10243S11 1 00041V11 1 00202X11 1 33005
0383999999038401972010618005+30533-087200SAO  +0040NDP  V0203605N003152200059N008000599+00675-00225102315ADDGA1999+076204004GA2999+999999999GA3999+999999999GA4999+999999999GD12025+9999999GD20005+9999999GD30005+9999999GD40005+9999999GF102025999999999999999999MA1999999101835MW1055EQDN01 08100JPWTH 1QNNE11 1 00202E11 1 00000E11 1 00000E11 1 00000G11U1 99999H11 1 32250H11 1 00999H11 1 00999H11 1 00999K11 1 00028L11 1 00500M11 1 30070N11 1 08100Q11 1 10231S11 1 00044V11 1 00202X11 1 36006
0275999999038401972010619005+30533-087200SAO  +0040NDP  V0203305N006252200059N008000599+00945-00395102215ADDGD12995+9999999GD20995+9999999GD30995+9999999GD40995+9999999GF102025999999999999999999MA1999999101735MW1055EQDN01 08100JPWTH 1QNNE11 1 00299E11 1 00099E11 1 00099E11 1 00099G11U1 99999K11 1 00025L11 1 00500M11 1 30040N11 1 08100Q11 1 10221S11 1 00049V11 1 00202X11 1 33012
0269999999038401972010620005+30533-087200SAO  +0040NDP  V0200205N004152200059N011200599+01115-00445102205ADDGD10995+9999999GD20995+9999999GD30995+9999999GD40995+9999999GF100005999999999999999999MA1999999101735EQDN01 00000JPWTH 1QNNE11 1 00099E11 1 00099E11 1 00099E11 1 00099G11U1 99999K11 1 00024L11 1 00700M11 1 30040N11 1 00000Q11 1 10220S11 1 00052V11 1 00000X11 1 02008
0377999999038401972010621005+30533-087200SAO  +0040NDP  V0203405N004652200059N011200599+01175-00565102185ADDGA1999+091444004GA2999+999999999GA3999+999999999GA4999+999999999GD11015+9999993GD20005+9999999GD30005+9999999GD40005+9999999GF101005999999999999999999MA1999999101695EQDN01 00000JPWTH 1QNNE11 1 00101E11 1 00000E11 1 00000E11 1 00000G11U1 99999H11 1 32300H11 1 00999H11 1 00999H11 1 00999K11 1 00022L11 1 00700M11 1 30030N11 1 00000Q11 1 10218S11 1 00053V11 1 00100X11 1 34009
0269999999038401972010622005+30533-087200SAO  +0040NDP  V0200205N004652200059N011200599+01115-00565102205ADDGD10995+9999999GD20995+9999999GD30995+9999999GD40995+9999999GF100005999999999999999999MA1999999101735EQDN01 00000JPWTH 1QNNE11 1 00099E11 1 00099E11 1 00099E11 1 00099G11U1 99999K11 1 00022L11 1 00700M11 1 30040N11 1 00000Q11 1 10220S11 1 00052V11 1 00000X11 1 02009
0269999999038401972010623005+30533-087200SAO  +0040NDP  V0200105N002652200059N011200599+00785-00395102245ADDGD10995+9999999GD20995+9999999GD30995+9999999GD40995+9999999GF100005999999999999999999MA1999999101765EQDN01 00000JPWTH 1QNNE11 1 00099E11 1 00099E11 1 00099E11 1 00099G11U1 99999K11 1 00025L11 1 00700M11 1 30050N11 1 00000Q11 1 10224S11 1 00046V11 1 00000X11 1 01005
0165999999038401972010700005+30533-087200SAO  +0040NDP  V0203605N002152200059N011200599+00615-00225102345ADDGF100005999999999999999999MA1999999101865EQDN01 00000JPWTH 1QNNG11U1 99999K11 1 00028L11 1 00700M11 1 30080N11 1 00000Q11 1 10234S11 1 00043V11 1 00000X11 1 36004
0269999999038401972010701005+30533-087200SAO  +0040NDP  V0203505N002652200059N011200599+00505-00225102505ADDGD10995+9999999GD20995+9999999GD30995+9999999GD40995+9999999GF100005999999999999999999MA1999999102035EQDN01 00000JPWTH 1QNNE11 1 00099E11 1 00099E11 1 00099E11 1 00099G11U1 99999K11 1 00028L11 1 00700M11 1 30130N11 1 00000Q11 1 10250S11 1 00041V11 1 00000X11 1 35005
0269999999038401972010702005+30533-087200SAO  +0040NDP  V0200105N002652200059N011200599+00445-00225102575ADDGD10995+9999999GD20995+9999999GD30995+9999999GD40995+9999999GF100005999999999999999999MA1999999102105EQDN01 00000JPWTH 1QNNE11 1 00099E11 1 00099E11 1 00099E11 1 00099G11U1 99999K11 1 00028L11 1 00700M11 1 30150N11 1 00000Q11 1 10257S11 1 00040V11 1 00000X11 1 01005
0165999999038401972010703005+30533-087200SAO  +0040NDP  V0203605N002652200059N011200599+00285-00335102625ADDGF100005999999999999999999MA1999999102135EQDN01 00000JPWTH 1QNNG11U1 99999K11 1 00026L11 1 00700M11 1 30160N11 1 00000Q11 1 10262S11 1 00037V11 1 00000X11 1 36005
0269999999038401972010704005+30533-087200SAO  +0040NDP  V0200105N003152200059N011200599+00225-00395102655ADDGD10995+9999999GD20995+9999999GD30995+9999999GD40995+9999999GF100005999999999999999999MA1999999102175EQDN01 00000JPWTH 1QNNE11 1 00099E11 1 00099E11 1 00099E11 1 00099G11U1 99999K11 1 00025L11 1 00700M11 1 30170N11 1 00000Q11 1 10265S11 1 00036V11 1 00000X11 1 01006
0269999999038401972010711005+30533-087200SAO  +0040NDP  V0203605N001552200059N011200599+00065-00395102815ADDGD10995+9999999GD20995+9999999GD30995+9999999GD40995+9999999GF100005999999999999999999MA1999999102345EQDN01 00000JPWTH 1QNNE11 1 00099E11 1 00099E11 1 00099E11 1 00099G11U1 99999K11 1 00025L11 1 00700M11 1 30220N11 1 00000Q11 1 10281S11 1 00033V11 1 00000X11 1 36003
0165999999038401972010712005+30533-087200SAO  +0040NDP  V0200105N002652200059N011200599-00115-00395102845ADDGF100005999999999999999999MA1999999102375EQDN01 00000JPWTH 1QNNG11U1 99999K11 1 00025L11 1 00700M11 1 30230N11 1 00000Q11 1 10284S11 1 00030V11 1 00000X11 1 01005
0269999999038401972010713005+30533-087200SAO  +0040NDP  V0200205N003152200059N011200599+00005-00445102895ADDGD10995+9999999GD20995+9999999GD30995+9999999GD40995+9999999GF100005999999999999999999MA1999999102405EQDN01 00000JPWTH 1QNNE11 1 00099E11 1 00099E11 1 00099E11 1 00099G11U1 99999K11 1 00024L11 1 00700M11 1 30240N11 1 00000Q11 1 10289S11 1 00032V11 1 00000X11 1 02006
0269999999038401972010714005+30533-087200SAO  +0040NDP  V0200105N003152200059N011200599+00065-00445102945ADDGD10995+9999999GD20995+9999999GD30995+9999999GD40995+9999999GF100005999999999999999999MA1999999102475EQDN01 00000JPWTH 1QNNE11 1 00099E11 1 00099E11 1 00099E11 1 00099G11U1 99999K11 1 00024L11 1 00700M11 1 30260N11 1 00000Q11 1 10294S11 1 00033V11 1 00000X11 1 01006
0165999999038401972010715005+30533-087200SAO  +0040NDP  V0200305N005252200059N011200599+00395-00395102975ADDGF100005999999999999999999MA1999999102515EQDN01 00000JPWTH 1QNNG11U1 99999K11 1 00025L11 1 00700M11 1 30270N11 1 00000Q11 1 10297S11 1 00039V11 1 00000X11 1 03010
0269999999038401972010716005+30533-087200SAO  +0040NDP  V0200205N005252200059N016000599+00725-00785103045ADDGD10995+9999999GD20995+9999999GD30995+9999999GD40995+9999999GF100005999999999999999999MA1999999102575EQDN01 00000JPWTH 1QNNE11 1 00099E11 1 00099E11 1 00099E11 1 00099G11U1 99999K11 1 00018L11 1 01000M11 1 30290N11 1 00000Q11 1 10304S11 1 00045V11 1 00000X11 1 02010
0269999999038401972010717005+30533-087200SAO  +0040NDP  V0203605N003652200059N016000599+00895-00445102995ADDGD10995+9999999GD20995+9999999GD30995+9999999GD40995+9999999GF100005999999999999999999MA1999999102515EQDN01 00000JPWTH 1QNNE11 1 00099E11 1 00099E11 1 00099E11 1 00099G11U1 99999K11 1 00024L11 1 01000M11 1 30270N11 1 00000Q11 1 10299S11 1 00048V11 1 00000X11 1 36007
0165999999038401972010718005+30533-087200SAO  +0040NDP  V0200405N004152200059N016000599+01175-00505102895ADDGF100005999999999999999999MA1999999102405EQDN01 00000JPWTH 1QNNG11U1 99999K11 1 00023L11 1 01000M11 1 30240N11 1 00000Q11 1 10289S11 1 00053V11 1 00000X11 1 04008
0269999999038401972010719005+30533-087200SAO  +0040NDP  V0200305N005252200059N016000599+01285-00445102845ADDGD10995+9999999GD20995+9999999GD30995+9999999GD40995+9999999GF100005999999999999999999MA1999999102375EQDN01 00000JPWTH 1QNNE11 1 00099E11 1 00099E11 1 00099E11 1 00099G11U1 99999K11 1 00024L11 1 01000M11 1 30230N11 1 00000Q11 1 10284S11 1 00055V11 1 00000X11 1 03010
0269999999038401972010720005+30533-087200SAO  +0040NDP  V0200505N004652200059N011200599+01445-00445102815ADDGD11995+9999993GD20995+9999999GD30995+9999999GD40995+9999999GF102005999999999999999999MA1999999102345EQDN01 00000JPWTH 1QNNE11 1 00199E11 1 00099E11 1 00099E11 1 00099G11U1 99999K11 1 00024L11 1 00700M11 1 30220N11 1 00000Q11 1 10281S11 1 00058V11 1 00200X11 1 05009
0377999999038401972010721005+30533-087200SAO  +0040NDP  V0200405N003652200059N011200599+01505-00395102815ADDGA1999+091444004GA2999+999999999GA3999+999999999GA4999+999999999GD11015+9999993GD20005+9999999GD30005+9999999GD40005+9999999GF101005999999999999999999MA1999999102345EQDN01 00000JPWTH 1QNNE11 1 00101E11 1 00000E11 1 00000E11 1 00000G11U1 99999H11 1 32300H11 1 00999H11 1 00999H11 1 00999K11 1 00025L11 1 00700M11 1 30220N11 1 00000Q11 1 10281S11 1 00059V11 1 00100X11 1 04007
0269999999038401972010722005+30533-087200SAO  +0040NDP  V0200405N004652200059N011200599+01565-00445102815ADDGD10995+9999999GD20995+9999999GD30995+9999999GD40995+9999999GF100005999999999999999999MA1999999102345EQDN01 00000JPWTH 1QNNE11 1 00099E11 1 00099E11 1 00099E11 1 00099G11U1 99999K11 1 00024L11 1 00700M11 1 30220N11 1 00000Q11 1 10281S11 1 00060V11 1 00000X11 1 04009
0269999999038401972010723005+30533-087200SAO  +0040NDP  V0200305N003652200059N011200599+01445-00335102865ADDGD10995+9999999GD20995+9999999GD30995+9999999GD40995+9999999GF100005999999999999999999MA1999999102375EQDN01 00000JPWTH 1QNNE11 1 00099E11 1 00099E11 1 00099E11 1 00099G11U1 99999K11 1 00026L11 1 00700M11 1 30230N11 1 00000Q11 1 10286S11 1 00058V11 1 00000X11 1 03007
0165999999038401972010800005+30533-087200SAO  +0040NDP  V0200405N003652200059N011200599+01285-00285102875ADDGF100005999999999999999999MA1999999102405EQDN01 00000JPWTH 1QNNG11U1 99999K11 1 00027L11 1 00700M11 1 30240N11 1 00000Q11 1 10287S11 1 00055V11 1 00000X11 1 04007
0269999999038401972010801005+30533-087200SAO  +0040NDP  V0200305N003652200059N011200599+01175-00175102925ADDGD10995+9999999GD20995+9999999GD30995+9999999GD40995+9999999GF100005999999999999999999MA1999999102445EQDN01 00000JPWTH 1QNNE11 1 00099E11 1 00099E11 1 00099E11 1 00099G11U1 99999K11 1 00029L11 1 00700M11 1 30250N11 1 00000Q11 1 10292S11 1 00053V11 1 00000X11 1 03007
0269999999038401972010802005+30533-087200SAO  +0040NDP  V0200305N004152200059N011200599+01065-00285102965ADDGD10995+9999999GD20995+9999999GD30995+9999999GD40995+9999999GF100005999999999999999999MA1999999102475EQDN01 00000JPWTH 1QNNE11 1 00099E11 1 00099E11 1 00099E11 1 00099G11U1 99999K11 1 00027L11 1 00700M11 1 30260N11 1 00000Q11 1 10296S11 1 00051V11 1 00000X11 1 03008
0165999999038401972010803005+30533-087200SAO  +0040NDP  V0200205N003652200059N011200599+00945-00225102965ADDGF100005999999999999999999MA1999999102475EQDN01 00000JPWTH 1QNNG11U1 99999K11 1 00028L11 1 00700M11 1 30260N11 1 00000Q11 1 10296S11 1 00049V11 1 00000X11 1 02007
0269999999038401972010804005+30533-087200SAO  +0040NDP  V0200405N002652200059N011200599+00835-00225102965ADDGD10995+9999999GD20995+9999999GD30995+9999999GD40995+9999999GF100005999999999999999999MA1999999102475EQDN01 00000JPWTH 1QNNE11 1 00099E11 1 00099E11 1 00099E11 1 00099G11U1 99999K11 1 00028L11 1 00700M11 1 30260N11 1 00000Q11 1 10296S11 1 00047V11 1 00000X11 1 04005
0165999999038401972010812005+30533-087200SAO  +0040NDP  V0200705N004152200059N011200599+00565-00065102785ADDGF100005999999999999999999MA1999999102305EQDN01 00000JPWTH 1QNNG11U1 99999K11 1 00031L11 1 00700M11 1 30210N11 1 00000Q11 1 10278S11 1 00042V11 1 00000X11 1 07008
0269999999038401972010813005+30533-087200SAO  +0040NDP  V0200805N003652200059N011200599+00565-00065102845ADDGD10995+9999999GD20995+9999999GD30995+9999999GD40995+9999999GF100005999999999999999999MA1999999102375EQDN01 00000JPWTH 1QNNE11 1 00099E11 1 00099E11 1 00099E11 1 00099G11U1 99999K11 1 00031L11 1 00700M11 1 30230N11 1 00000Q11 1 10284S11 1 00042V11 1 00000X11 1 08007
0269999999038401972010814005+30533-087200SAO  +0040NDP  V0201005N006252200059N016000599+00785-00065102865ADDGD10995+9999999GD20995+9999999GD30995+9999999GD40995+9999999GF100005999999999999999999MA1999999102375EQDN01 00000JPWTH 1QNNE11 1 00099E11 1 00099E11 1 00099E11 1 00099G11U1 99999K11 1 00031L11 1 01000M11 1 30230N11 1 00000Q11 1 10286S11 1 00046V11 1 00000X11 1 10012
0165999999038401972010815005+30533-087200SAO  +0040NDP  V0201105N005252200059N016000599+00835+00065102865ADDGF100005999999999999999999MA1999999102375EQDN01 00000JPWTH 1QNNG11U1 99999K11 1 00033L11 1 01000M11 1 30230N11 1 00000Q11 1 10286S11 1 00047V11 1 00000X11 1 11010
0269999999038401972010816005+30533-087200SAO  +0040NDP  V0201005N005252200059N024000599+01175-00065102845ADDGD10995+9999999GD20995+9999999GD30995+9999999GD40995+9999999GF100005999999999999999999MA1999999102375EQDN01 00000JPWTH 1QNNE11 1 00099E11 1 00099E11 1 00099E11 1 00099G11U1 99999K11 1 00031L11 1 01500M11 1 30230N11 1 00000Q11 1 10284S11 1 00053V11 1 00000X11 1 10010
0269999999038401972010817005+30533-087200SAO  +0040NDP  V0201305N006752200059N024000599+01445-00395102815ADDGD10995+9999999GD20995+9999999GD30995+9999999GD40995+9999999GF100005999999999999999999MA1999999102345EQDN01 00000JPWTH 1QNNE11 1 00099E11 1 00099E11 1 00099E11 1 00099G11U1 99999K11 1 00025L11 1 01500M11 1 30220N11 1 00000Q11 1 10281S11 1 00058V11 1 00000X11 1 13013
0165999999038401972010818005+30533-087200SAO  +0040NDP  V0201305N006252200059N024000599+01445-00225102685ADDGF100005999999999999999999MA1999999102205EQDN01 00000JPWTH 1QNNG11U1 99999K11 1 00028L11 1 01500M11 1 30180N11 1 00000Q11 1 10268S11 1 00058V11 1 00000X11 1 13012
0269999999038401972010819005+30533-087200SAO  +0040NDP  V0201205N006752200059N024000599+01505+00285102585ADDGD10995+9999999GD20995+9999999GD30995+9999999GD40995+9999999GF100005999999999999999999MA1999999102105EQDN01 00000JPWTH 1QNNE11 1 00099E11 1 00099E11 1 00099E11 1 00099G11U1 99999K11 1 00037L11 1 01500M11 1 30150N11 1 00000Q11 1 10258S11 1 00059V11 1 00000X11 1 12013
0269999999038401972010820005+30533-087200SAO  +0040NDP  V0201205N006752200059N024000599+01615+00565102465ADDGD12995+9999999GD20995+9999999GD30995+9999999GD40995+9999999GF101015999999999999999999MA1999999102005EQDN01 00000JPWTH 1QNNE11 1 00299E11 1 00099E11 1 00099E11 1 00099G11U1 99999K11 1 00042L11 1 01500M11 1 30120N11 1 00000Q11 1 10246S11 1 00061V11 1 00101X11 1 12013
0377999999038401972010821005+30533-087200SAO  +0040NDP  V0201405N004652200059N024000599+01615+00725102505ADDGA1999+076204004GA2999+999999999GA3999+999999999GA4999+999999999GD12015+9999999GD20005+9999999GD30005+9999999GD40005+9999999GF101015999999999999999999MA1999999102035EQDN01 00000JPWTH 1QNNE11 1 00201E11 1 00000E11 1 00000E11 1 00000G11U1 99999H11 1 32250H11 1 00999H11 1 00999H11 1 00999K11 1 00045L11 1 01500M11 1 30130N11 1 00000Q11 1 10250S11 1 00061V11 1 00101X11 1 14009
0269999999038401972010822005+30533-087200SAO  +0040NDP  V0201105N003652200059N024000599+01565+00945102465ADDGD12995+9999999GD20995+9999999GD30995+9999999GD40995+9999999GF102025999999999999999999MA1999999102005EQDN01 00000JPWTH 1QNNE11 1 00299E11 1 00099E11 1 00099E11 1 00099G11U1 99999K11 1 00049L11 1 01500M11 1 30120N11 1 00000Q11 1 10246S11 1 00060V11 1 00302X11 1 11007
0269999999038401972010823005+30533-087200SAO  +0040NDP  V0201205N004650762049N024000599+01505+00945102395ADDGD12995+9999999GD23995+9999999GD30995+9999999GD40995+9999999GF106035999999999999999999MA1999999101935EQDN01 00000JPWTH 1QNNE11 1 00299E11 1 00499E11 1 00099E11 1 00099G11 1 00250K11 1 00049L11 1 01500M11 1 30100N11 1 00000Q11 1 10239S11 1 00059V11 1 00704X11 1 12009
0275999999038401972010913005+30533-087200SAO  +0040NDP  V0200305N001550914449N008000599+01225+01115101855ADDGD12995+9999999GD22995+9999999GD34995+9999999GD40995+9999999GF108055999999999999999999MA1999999101395MW1055EQDN01 08100JPWTH 1QNNE11 1 00299E11 1 00299E11 1 00699E11 1 00099G11 1 00300K11 1 00052L11 1 00500M11 1 29940N11 1 08100Q11 1 10185S11 1 00054V11 1 01006X11 1 03003
0275999999038401972010914005+30533-087200SAO  +0040NDP  V0201005N001050914449N008000599+01335+01285101855ADDGD12995+9999999GD22995+9999999GD34995+9999999GD40995+9999999GF108065999999999999999999MA1999999101395MW1055EQDN01 08100JPWTH 1QNNE11 1 00299E11 1 00299E11 1 00699E11 1 00099G11 1 00300K11 1 00055L11 1 00500M11 1 29940N11 1 08100Q11 1 10185S11 1 00056V11 1 01007X11 1 10002
0383999999038401972010915005+30533-087200SAO  +0040NDP  V02099959000050914449N008000599+01505+01395101855ADDGA1999+007624084GA2999+036584034GA3999+091444004GA4999+999999999GD12015+9999999GD22025+9999999GD34055+9999999GD40005+9999999GF108065999999999999999999MA1999999101395MW1055EQDN01 08100JPWTH 1QNNE11 1 00201E11 1 00203E11 1 00606E11 1 00000G11 1 00300H11 1 11025H11 1 23120H11 1 32300H11 1 00999K11 1 00057L11 1 00500M11 1 29940N11 1 08100Q11 1 10185S11 1 00059V11 1 01008X11 1 00000
0275999999038401972010916005+30533-087200SAO  +0040NDP  V0202105N006750335349N009600599+02005+01395101845ADDGD12995+9999999GD23995+9999999GD33995+9999999GD40995+9999999GF107065999999999999999999MA1999999101355MW1055EQDN01 08100JPWTH 1QNNE11 1 00299E11 1 00499E11 1 00499E11 1 00099G11 1 00110K11 1 00057L11 1 00600M11 1 29930N11 1 08100Q11 1 10184S11 1 00068V11 1 00908X11 1 21013
0275999999038401972010917005+30533-087200SAO  +0040NDP  V0202205N007750061049N009600599+02175+01945101755ADDGD13995+9999999GD23995+9999999GD33995+9999999GD40995+9999999GF107065999999999999999999MA1999999101295MW1055EQDN01 08100JPWTH 1QNNE11 1 00499E11 1 00499E11 1 00499E11 1 00099G11 1 00020K11 1 00067L11 1 00600M11 1 29910N11 1 08100Q11 1 10175S11 1 00071V11 1 00908X11 1 22015
0383999999038401972010918005+30533-087200SAO  +0040NDP  V0202305N009350061049N009600599+02225+01945101615ADDGA1999+006104084GA2999+091444004GA3999+999999999GA4999+999999999GD13075+9999999GD24015+9999999GD30005+9999999GD40005+9999999GF108075999999999999999999MA1999999101155MW1055EQDN01 08100JPWTH 1QNNE11 1 00409E11 1 00601E11 1 00000E11 1 00000G11 1 00020H11 1 11020H11 1 32300H11 1 00999H11 1 00999K11 1 00067L11 1 00600M11 1 29870N11 1 08100Q11 1 10161S11 1 00072V11 1 01009X11 1 23018
0275999999038401972010919005+30533-087200SAO  +0040NDP  V0202405N008850061049N009600599+02285+01945101515ADDGD14995+9999999GD20995+9999999GD30995+9999999GD40995+9999999GF108085999999999999999999MA1999999101055MW1055EQDN01 08100JPWTH 1QNNE11 1 00699E11 1 00099E11 1 00099E11 1 00099G11 1 00020K11 1 00067L11 1 00600M11 1 29840N11 1 08100Q11 1 10151S11 1 00073V11 1 01010X11 1 24017
0269999999038401972010920005+30533-087200SAO  +0040NDP  V0202105N011850061049N011200599+02285+02005101455ADDGD13995+9999999GD23995+9999999GD34995+9999999GD40995+9999999GF108085999999999999999999MA1999999100985EQDN01 00000JPWTH 1QNNE11 1 00499E11 1 00499E11 1 00699E11 1 00099G11 1 00020K11 1 00068L11 1 00700M11 1 29820N11 1 00000Q11 1 10145S11 1 00073V11 1 01010X11 1 21023
0377999999038401972010921005+30533-087200SAO  +0040NDP  V0202305N009350045749N011200599+02285+02005101435ADDGA1999+004574084GA2999+009144084GA3999+999999999GA4999+999999999GD13065+9999999GD24025+9999999GD30005+9999999GD40005+9999999GF108075999999999999999999MA1999999100955EQDN01 00000JPWTH 1QNNE11 1 00408E11 1 00602E11 1 00000E11 1 00000G11 1 00015H11 1 11015H11 1 11030H11 1 00999H11 1 00999K11 1 00068L11 1 00700M11 1 29810N11 1 00000Q11 1 10143S11 1 00073V11 1 01009X11 1 23018
0269999999038401972010922005+30533-087200SAO  +0040NDP  V0202105N008850076249N011200599+02225+02065101415ADDGD12995+9999999GD23995+9999999GD33995+9999999GD40995+9999999GF107075999999999999999999MA1999999100955EQDN01 00000JPWTH 1QNNE11 1 00299E11 1 00499E11 1 00499E11 1 00099G11 1 00025K11 1 00069L11 1 00700M11 1 29810N11 1 00000Q11 1 10141S11 1 00072V11 1 00909X11 1 21017
0275999999038401972010923005+30533-087200SAO  +0040NDP  V0202105N007750036649N008000599+02175+02065101415ADDGD13995+9999999GD23995+9999999GD34995+9999999GD40995+9999999GF108075999999999999999999MA1999999100955MW1055EQDN01 08100JPWTH 1QNNE11 1 00499E11 1 00499E11 1 00699E11 1 00099G11 1 00012K11 1 00069L11 1 00500M11 1 29810N11 1 08100Q11 1 10141S11 1 00071V11 1 01009X11 1 21015
0275999999038401972011011005+30533-087200SAO  +0040NDP  V0202205N007250012249N008000599+02065+02065101155ADDGD13995+9999999GD20995+9999999GD30995+9999999GD40995+9999999GF106055999999999999999999MA1999999100685MW1455EQDN01 07000JPWTH 1QNNE11 1 00499E11 1 00099E11 1 00099E11 1 00099G11 1 00004K11 1 00069L11 1 00500M11 1 29730N11 1 07000Q11 1 10115S11 1 00069V11 1 00806X11 1 22014
0383999999038401972011012005+30533-087200SAO  +0040NDP  V0202305N009350012249N008000599+02065+02065101155ADDGA1999+001224074GA2999+999999999GA3999+999999999GA4999+999999999GD14085+9999999GD20005+9999999GD30005+9999999GD40005+9999999GF108065999999999999999999MA1999999100685MW1455EQDN01 07000JPWTH 1QNNE11 1 00610E11 1 00000E11 1 00000E11 1 00000G11 1 00004H11 1 16004H11 1 00999H11 1 00999H11 1 00999K11 1 00069L11 1 00500M11 1 29730N11 1 07000Q11 1 10115S11 1 00069V11 1 01008X11 1 23018
0275999999038401972011013005+30533-087200SAO  +0040NDP  V0202305N007250012249N008000599+02065+02065101195ADDGD13995+9999999GD20995+9999999GD30995+9999999GD40995+9999999GF107065999999999999999999MA1999999100715MW1455EQDN01 07000JPWTH 1QNNE11 1 00499E11 1 00099E11 1 00099E11 1 00099G11 1 00004K11 1 00069L11 1 00500M11 1 29740N11 1 07000Q11 1 10119S11 1 00069V11 1 00907X11 1 23014
0275999999038401972011014005+30533-087200SAO  +0040NDP  V0202405N007750012249N008000599+02065+02065101355ADDGD13995+9999999GD20995+9999999GD30995+9999999GD40995+9999999GF106065999999999999999999MA1999999100885MW1455EQDN01 07000JPWTH 1QNNE11 1 00499E11 1 00099E11 1 00099E11 1 00099G11 1 00004K11 1 00069L11 1 00500M11 1 29790N11 1 07000Q11 1 10135S11 1 00069V11 1 00807X11 1 24015
0383999999038401972011015005+30533-087200SAO  +0040NDP  V0202405N009350018349N008000599+02175+02065101365ADDGA1999+001834064GA2999+999999999GA3999+999999999GA4999+999999999GD13065+9999999GD20005+9999999GD30005+9999999GD40005+9999999GF106045999999999999999999MA1999999100885MW1455EQDN01 07000JPWTH 1QNNE11 1 00407E11 1 00000E11 1 00000E11 1 00000G11 1 00006H11 1 15006H11 1 00999H11 1 00999H11 1 00999K11 1 00069L11 1 00500M11 1 29790N11 1 07000Q11 1 10136S11 1 00071V11 1 00705X11 1 24018
0269999999038401972011016005+30533-087200SAO  +0040NDP  V0202305N010350030549N011200599+02335+02065101365ADDGD13995+9999999GD23995+9999999GD30995+9999999GD40995+9999999GF106045999999999999999999MA1999999100885EQDN01 00000JPWTH 1QNNE11 1 00499E11 1 00499E11 1 00099E11 1 00099G11 1 00010K11 1 00069L11 1 00700M11 1 29790N11 1 00000Q11 1 10136S11 1 00074V11 1 00805X11 1 23020
0269999999038401972011017005+30533-087200SAO  +0040NDP  V0202305N011350030549N011200599+02445+02065101365ADDGD13995+9999999GD23995+9999999GD30995+9999999GD40995+9999999GF107055999999999999999999MA1999999100885EQDN01 00000JPWTH 1QNNE11 1 00499E11 1 00499E11 1 00099E11 1 00099G11 1 00010K11 1 00069L11 1 00700M11 1 29790N11 1 00000Q11 1 10136S11 1 00076V11 1 00906X11 1 23022
0377999999038401972011018005+30533-087200SAO  +0040NDP  V0202405N010350045749N011200599+02445+02005101295ADDGA1999+004574084GA2999+036584044GA3999+076204004GA4999+999999999GD13055+9999999GD23025+9999999GD34015+9999999GD40005+9999999GF108065999999999999999999MA1999999100815EQDN01 00000JPWTH 1QNNE11 1 00406E11 1 00403E11 1 00601E11 1 00000G11 1 00015H11 1 11015H11 1 21120H11 1 32250H11 1 00999K11 1 00068L11 1 00700M11 1 29770N11 1 00000Q11 1 10129S11 1 00076V11 1 01008X11 1 24020
0269999999038401972011019005+30533-087200SAO  +0040NDP  V0202305N009350045749N011200599+02445+02005101225ADDGD13995+9999999GD23995+9999999GD34995+9999999GD40995+9999999GF108065999999999999999999MA1999999100755EQDN01 00000JPWTH 1QNNE11 1 00499E11 1 00499E11 1 00699E11 1 00099G11 1 00015K11 1 00068L11 1 00700M11 1 29750N11 1 00000Q11 1 10122S11 1 00076V11 1 01008X11 1 23018
0269999999038401972011020005+30533-087200SAO  +0040NDP  V0202305N009350045749N011200599+02395+02005101175ADDGD13995+9999999GD23995+9999999GD34995+9999999GD40995+9999999GF108065999999999999999999MA1999999100715EQDN01 00000JPWTH 1QNNE11 1 00499E11 1 00499E11 1 00699E11 1 00099G11 1 00015K11 1 00068L11 1 00700M11 1 29740N11 1 00000Q11 1 10117S11 1 00075V11 1 01008X11 1 23018
0377999999038401972011021005+30533-087200SAO  +0040NDP  V0202205N008850061049N011200599+02445+02065101155ADDGA1999+006104084GA2999+076204004GA3999+999999999GA4999+999999999GD13065+9999999GD23025+9999999GD30005+9999999GD40005+9999999GF107065999999999999999999MA1999999100685EQDN01 00000JPWTH 1QNNE11 1 00407E11 1 00402E11 1 00000E11 1 00000G11 1 00020H11 1 11020H11 1 32250H11 1 00999H11 1 00999K11 1 00069L11 1 00700M11 1 29730N11 1 00000Q11 1 10115S11 1 00076V11 1 00907X11 1 22017
0269999999038401972011022005+30533-087200SAO  +0040NDP  V0202405N007250762049N011200599+02335+02005101195ADDGD12995+9999999GD24995+9999999GD30995+9999999GD40995+9999999GF108065999999999999999999MA1999999100715EQDN01 00000JPWTH 1QNNE11 1 00299E11 1 00699E11 1 00099E11 1 00099G11 1 00250K11 1 00068L11 1 00700M11 1 29740N11 1 00000Q11 1 10119S11 1 00074V11 1 01007X11 1 24014
0269999999038401972011023005+30533-087200SAO  +0040NDP  V0202305N005750762049N011200599+02225+02005101245ADDGD12995+9999999GD24995+9999999GD30995+9999999GD40995+9999999GF108055999999999999999999MA1999999100785EQDN01 00000JPWTH 1QNNE11 1 00299E11 1 00699E11 1 00099E11 1 00099G11 1 00250K11 1 00068L11 1 00700M11 1 29760N11 1 00000Q11 1 10124S11 1 00072V11 1 01006X11 1 23011
0377999999038401972011100005+30533-087200SAO  +0040NDP  V0202305N005250018349N011200599+02115+02065101265ADDGA1999+001834074GA2999+076204004GA3999+999999999GA4999+999999999GD13065+9999999GD24025+9999999GD30005+9999999GD40005+9999999GF108075999999999999999999MA1999999100785EQDN01 00000JPWTH 1QNNE11 1 00408E11 1 00602E11 1 00000E11 1 00000G11 1 00006H11 1 16006H11 1 32250H11 1 00999H11 1 00999K11 1 00069L11 1 00700M11 1 29760N11 1 00000Q11 1 10126S11 1 00070V11 1 01009X11 1 23010
0275999999038401972011101005+30533-087200SAO  +0040NDP  V0202205N004150012249N008000599+02115+02065101265ADDGD13995+9999999GD23995+9999999GD30995+9999999GD40995+9999999GF106055999999999999999999MA1999999100785MW1055EQDN01 08100JPWTH 1QNNE11 1 00499E11 1 00499E11 1 00099E11 1 00099G11 1 00004K11 1 00069L11 1 00500M11 1 29760N11 1 08100Q11 1 10126S11 1 00070V11 1 00806X11 1 22008
0275999999038401972011111005+30533-087200SAO  +0040NDP  V0203005N001050018349N008000599+01895+01895101315ADDGD14995+9999999GD20995+9999999GD30995+9999999GD40995+9999999GF108085999999999999999999MA1999999100855MW1615EQDN01 02000JPWTH 1QNNE11 1 00699E11 1 00099E11 1 00099E11 1 00099G11 1 00006K11 1 00066L11 1 00500M11 1 29780N11 1 02000Q11 1 10131S11 1 00066V11 1 01010X11 1 30002
0356999999038401972011112005+30533-087200SAO  +0040NDP  V0202405N005250036649N008000599+01895+01785101355ADDGA1999+001834074GA2999+003664074GA3999+007624074GD12025+9999999GD23045+9999999GD34025+9999999GD40995+9999999GF108085999999999999999999MA1999999100885MW1615EQDN01 02000JPWTH 1QNNE11 1 00203E11 1 00405E11 1 00602E11 1 00099G11 1 00012H11 1 16006H11 1 16012H11 1 16025K11 1 00064L11 1 00500M11 1 29790N11 1 02000Q11 1 10135S11 1 00066V11 1 01010X11 1 24010
0275999999038401972011113005+30533-087200SAO  +0040NDP  V0202405N005250036649N008000599+01895+01785101315ADDGD12995+9999999GD23995+9999999GD34995+9999999GD40995+9999999GF108085999999999999999999MA1999999100855MW1615EQDN01 02000JPWTH 1QNNE11 1 00299E11 1 00499E11 1 00699E11 1 00099G11 1 00012K11 1 00064L11 1 00500M11 1 29780N11 1 02000Q11 1 10131S11 1 00066V11 1 01010X11 1 24010
0269999999038401972011114005+30533-087200SAO  +0040NDP  V0202405N005250042749N011200599+01895+01785101415ADDGD12995+9999999GD23995+9999999GD33995+9999999GD43995+9999999GF107075999999999999999999MA1999999100955EQDN01 00000JPWTH 1QNNE11 1 00299E11 1 00499E11 1 00499E11 1 00499G11 1 00014K11 1 00064L11 1 00700M11 1 29810N11 1 00000Q11 1 10141S11 1 00066V11 1 00909X11 1 24010
0383999999038401972011115005+30533-087200SAO  +0040NDP  V0202405N006250042749N008000599+01895+01835101435ADDGA1999+001224074GA2999+004274064GA3999+021344044GA4999+999999999GD12025+9999999GD23035+9999999GD33025+9999999GD40005+9999999GF107075999999999999999999MA1999999100955MW1055EQDN01 08100JPWTH 1QNNE11 1 00203E11 1 00404E11 1 00402E11 1 00000G11 1 00014H11 1 16004H11 1 15014H11 1 21070H11 1 00999K11 1 00065L11 1 00500M11 1 29810N11 1 08100Q11 1 10143S11 1 00066V11 1 00909X11 1 24012
0275999999038401972011116005+30533-087200SAO  +0040NDP  V0202505N006250042749N008000599+02005+01895101505ADDGD12995+9999999GD23995+9999999GD33995+9999999GD43995+9999999GF107065999999999999999999MA1999999101025MW1055EQDN01 08100JPWTH 1QNNE11 1 00299E11 1 00499E11 1 00499E11 1 00499G11 1 00014K11 1 00066L11 1 00500M11 1 29830N11 1 08100Q11 1 10150S11 1 00068V11 1 00908X11 1 25012
0275999999038401972011117005+30533-087200SAO  +0040NDP  V0202705N002650015249N008000599+02005+01785101505ADDGD13995+9999999GD23995+9999999GD33995+9999999GD40995+9999999GF107065999999999999999999MA1999999101025MW1055EQDN01 08100JPWTH 1QNNE11 1 00499E11 1 00499E11 1 00499E11 1 00099G11 1 00005K11 1 00064L11 1 00500M11 1 29830N11 1 08100Q11 1 10150S11 1 00068V11 1 00907X11 1 27005
0383999999038401972011118005+30533-087200SAO  +0040NDP  V0202805N005250042749N008000599+02115+01725101465ADDGA1999+001524084GA2999+004274064GA3999+021344034GA4999+076204004GD12045+9999999GD23025+9999999GD33015+9999999GD43015+9999999GF107065999999999999999999MA1999999100985MW1055EQDN01 08100JPWTH 1QNNE11 1 00205E11 1 00402E11 1 00401E11 1 00401G11 1 00014H11 1 11005H11 1 15014H11 1 23070H11 1 32250K11 1 00063L11 1 00500M11 1 29820N11 1 08100Q11 1 10146S11 1 00070V11 1 00907X11 1 28010
0275999999038401972011119005+30533-087200SAO  +0040NDP  V0203105N001050762049N008000599+02115+01615101405ADDGD12995+9999999GD22995+9999999GD32995+9999999GD43995+9999999GF107045999999999999999999MA1999999100915MW1055EQDN01 08100JPWTH 1QNNE11 1 00299E11 1 00299E11 1 00299E11 1 00499G11 1 00250K11 1 00061L11 1 00500M11 1 29800N11 1 08100Q11 1 10140S11 1 00070V11 1 00905X11 1 31002
0275999999038401972011120005+30533-087200SAO  +0040NDP  V0200305N002150762049N008000599+02335+01615101385ADDGD12995+9999999GD22995+9999999GD33995+9999999GD40995+9999999GF107045999999999999999999MA1999999100915MW1055EQDN01 08100JPWTH 1QNNE11 1 00299E11 1 00299E11 1 00499E11 1 00099G11 1 00250K11 1 00061L11 1 00500M11 1 29800N11 1 08100Q11 1 10138S11 1 00074V11 1 00905X11 1 03004
0377999999038401972011121005+30533-087200SAO  +0040NDP  V0203405N003650914449N011200599+02335+01445101415ADDGA1999+009144084GA2999+999999034GA3999+091444014GA4999+999999999GD12025+9999999GD22005+9999999GD34065+9999999GD40005+9999999GF108065999999999999999999MA1999999100955EQDN01 00000JPWTH 1QNNE11 1 00202E11 1 00200E11 1 00608E11 1 00000G11 1 00300H11 1 11030H11 1 23999H11 1 39300H11 1 00999K11 1 00058L11 1 00700M11 1 29810N11 1 00000Q11 1 10141S11 1 00074V11 1 01007X11 1 34007
0269999999038401972011122005+30533-087200SAO  +0040NDP  V0200205N003150914449N011200599+02285+01395101455ADDGD12995+9999999GD22995+9999999GD34995+9999999GD40995+9999999GF108055999999999999999999MA1999999100985EQDN01 00000JPWTH 1QNNE11 1 00299E11 1 00299E11 1 00699E11 1 00099G11 1 00300K11 1 00057L11 1 00700M11 1 29820N11 1 00000Q11 1 10145S11 1 00073V11 1 01006X11 1 02006
0269999999038401972011123005+30533-087200SAO  +0040NDP  V02099959000050396249N011200599+02115+01335101465ADDGD13995+9999999GD23995+9999999GD30995+9999999GD40995+9999999GF107065999999999999999999MA1999999100985EQDN01 00000JPWTH 1QNNE11 1 00499E11 1 00499E11 1 00099E11 1 00099G11 1 00130K11 1 00056L11 1 00700M11 1 29820N11 1 00000Q11 1 10146S11 1 00070V11 1 00908X11 1 00000
0171999999038401972011212005+30533-087200SAO  +0040NDP  V0200605N002152200059N008000599+01445+01115101585ADDGF100005999999999999999999MA1999999101125MW1055EQDN01 08100JPWTH 1QNNG11U1 99999K11 1 00052L11 1 00500M11 1 29860N11 1 08100Q11 1 10158S11 1 00058V11 1 00000X11 1 06004
0269999999038401972011213005+30533-087200SAO  +0040NDP  V0201205N001052200059N011200599+01445+01225101605ADDGD12995+9999999GD22995+9999999GD30995+9999999GD40995+9999999GF104025999999999999999999MA1999999101125EQDN01 00000JPWTH 1QNNE11 1 00299E11 1 00299E11 1 00099E11 1 00099G11U1 99999K11 1 00054L11 1 00700M11 1 29860N11 1 00000Q11 1 10160S11 1 00058V11 1 00503X11 1 12002
0269999999038401972011214005+30533-087200SAO  +0040NDP  V0201105N002152200059N011200599+01445+01225101615ADDGD12995+9999999GD20995+9999999GD30995+9999999GD40995+9999999GF103035999999999999999999MA1999999101155EQDN01 00000JPWTH 1QNNE11 1 00299E11 1 00099E11 1 00099E11 1 00099G11U1 99999K11 1 00054L11 1 00700M11 1 29870N11 1 00000Q11 1 10161S11 1 00058V11 1 00404X11 1 11004
0383999999038401972011215005+30533-087200SAO  +0040NDP  V0200905N002150012249N006400599+01565+01225101695ADDGA1999+001224074GA2999+999999999GA3999+999999999GA4999+999999999GD13075+9999999GD20005+9999999GD30005+9999999GD40005+9999999GF107075999999999999999999MA1999999101225MW1455EQDN01 07000JPWTH 1QNNE11 1 00409E11 1 00000E11 1 00000E11 1 00000G11 1 00004H11 1 16004H11 1 00999H11 1 00999H11 1 00999K11 1 00054L11 1 00400M11 1 29890N11 1 07000Q11 1 10169S11 1 00060V11 1 00909X11 1 09004
0275999999038401972011216005+30533-087200SAO  +0040NDP  V0200705N002150000049N000100599+01615+01445101705ADDGD15995+9999999GD20995+9999999GD30995+9999999GD40995+9999999GF108085999999999999999999MA1999999101225MW1455EQDN01 07000JPWTH 1QNNE11 1 00799E11 1 00099E11 1 00099E11 1 00099G11 1 00000K11 1 00058L11 1 00006M11 1 29890N11 1 07000Q11 1 10170S11 1 00061V11 1 01010X11 1 07004
0275999999038401972011217005+30533-087200SAO  +0040NDP  V02099959000050009149N003200599+01725+01565101655ADDGD15995+9999999GD20995+9999999GD30995+9999999GD40995+9999999GF108085999999999999999999MA1999999101155MW1455EQDN01 07000JPWTH 1QNNE11 1 00799E11 1 00099E11 1 00099E11 1 00099G11 1 00003K11 1 00060L11 1 00200M11 1 29870N11 1 07000Q11 1 10165S11 1 00063V11 1 01010X11 1 00000
0383999999038401972011218005+30533-087200SAO  +0040NDP  V0201005N002150045749N006400599+01895+01785101515ADDGA1999+002444074GA2999+004574064GA3999+009144064GA4999+999999999GD12035+9999999GD23025+9999999GD33025+9999999GD40005+9999999GF107075999999999999999999MA1999999101055MW1455EQDN01 07000JPWTH 1QNNE11 1 00204E11 1 00402E11 1 00403E11 1 00000G11 1 00015H11 1 16008H11 1 15015H11 1 15030H11 1 00999K11 1 00064L11 1 00400M11 1 29840N11 1 07000Q11 1 10151S11 1 00066V11 1 00909X11 1 10004
0275999999038401972011219005+30533-087200SAO  +0040NDP  V0202105N005250045749N008000599+02285+01895101415ADDGD13995+9999999GD23995+9999999GD33995+9999999GD40995+9999999GF107065999999999999999999MA1999999100955MW1055EQDN01 08100JPWTH 1QNNE11 1 00499E11 1 00499E11 1 00499E11 1 00099G11 1 00015K11 1 00066L11 1 00500M11 1 29810N11 1 08100Q11 1 10141S11 1 00073V11 1 00907X11 1 21010
0269999999038401972011220005+30533-087200SAO  +0040NDP  V0202205N006250061049N011200599+02285+01785101365ADDGD13995+9999999GD24995+9999999GD30995+9999999GD40995+9999999GF108085999999999999999999MA1999999100885EQDN01 00000JPWTH 1QNNE11 1 00499E11 1 00699E11 1 00099E11 1 00099G11 1 00020K11 1 00064L11 1 00700M11 1 29790N11 1 00000Q11 1 10136S11 1 00073V11 1 01010X11 1 22012
0362999999038401972011221005+30533-087200SAO  +0040NDP  V0201805N002650027449N004800599+02005+01835101365ADDGA1999+001524074GA2999+002744084GA3999+004574084GD12015+9999999GD23055+9999999GD34025+9999999GD40995+9999999GF108085999999999999999999MA1999999100885MW1455MW2805EQDN01 02370JPWTH 1QNNE11 1 00201E11 1 00406E11 1 00603E11 1 00099G11 1 00009H11 1 16005H11 1 11009H11 1 11015K11 1 00065L11 1 00300M11 1 29790N11 1 02370Q11 1 10136S11 1 00068V11 1 01010X11 1 18005
0281999999038401972011222005+30533-087200SAO  +0040NDP  V0201705N005250061049N008000599+02005+01945101295ADDGD12995+9999999GD23995+9999999GD33995+9999999GD44995+9999999GF108075999999999999999999MA1999999100815MW1805MW2955EQDN01 01023JPWTH 1QNNE11 1 00299E11 1 00499E11 1 00499E11 1 00699G11 1 00020K11 1 00067L11 1 00500M11 1 29770N11 1 01023Q11 1 10129S11 1 00068V11 1 01009X11 1 17010
0269999999038401972011223005+30533-087200SAO  +0040NDP  V0201805N005750024449N011200599+02005+01945101265ADDGD13995+9999999GD23995+9999999GD33995+9999999GD44995+9999999GF108065999999999999999999MA1999999100785EQDN01 00000JPWTH 1QNNE11 1 00499E11 1 00499E11 1 00499E11 1 00699G11 1 00008K11 1 00067L11 1 00700M11 1 29760N11 1 00000Q11 1 10126S11 1 00068V11 1 01007X11 1 18011
0275999999038401972011311005+30533-087200SAO  +0040NDP  V0202205N007750012249N006400599+02115+02065101105ADDGD14995+9999999GD20995+9999999GD30995+9999999GD40995+9999999GF108085999999999999999999MA1999999100645MW1055EQDN01 08100JPWTH 1QNNE11 1 00699E11 1 00099E11 1 00099E11 1 00099G11 1 00004K11 1 00069L11 1 00400M11 1 29720N11 1 08100Q11 1 10110S11 1 00070V11 1 01010X11 1 22015
0302999999038401972011312005+30533-087200SAO  +0040NDP  V0202205N008250012249N006400599+02115+02065101105ADDGA1999+001224154GD14085+9999999GD20995+9999999GD30995+9999999GD40995+9999999GF108085999999999999999999MA1999999100645MW1455EQDN01 07000JPWTH 1QNNE11 1 00610E11 1 00099E11 1 00099E11 1 00099G11 1 00004H11 1 17004K11 1 00069L11 1 00400M11 1 29720N11 1 07000Q11 1 10110S11 1 00070V11 1 01010X11 1 22016
0275999999038401972011313005+30533-087200SAO  +0040NDP  V0202205N008250006149N006400599+02115+02065101095ADDGD14995+9999999GD20995+9999999GD30995+9999999GD40995+9999999GF108085999999999999999999MA1999999100615MW1455EQDN01 07000JPWTH 1QNNE11 1 00699E11 1 00099E11 1 00099E11 1 00099G11 1 00002K11 1 00069L11 1 00400M11 1 29710N11 1 07000Q11 1 10109S11 1 00070V11 1 01010X11 1 22016
0281999999038401972011314005+30533-087200SAO  +0040NDP  V0202405N009350012249N004800599+02115+02065101095ADDGD12995+9999999GD23995+9999999GD34995+9999999GD40995+9999999GF108085999999999999999999MA1999999100615MW1455MW2615EQDN01 02070JPWTH 1QNNE11 1 00299E11 1 00499E11 1 00699E11 1 00099G11 1 00004K11 1 00069L11 1 00300M11 1 29710N11 1 02070Q11 1 10109S11 1 00070V11 1 01010X11 1 24018
0383999999038401972011315005+30533-087200SAO  +0040NDP  V0202205N010350018349N008000599+02225+02115101145ADDGA1999+001834154GA2999+004574084GA3999+999999999GA4999+999999999GD13065+9999999GD23025+9999999GD30005+9999999GD40005+9999999GF107075999999999999999999MA1999999100685MW1455EQDN01 07000JPWTH 1QNNE11 1 00407E11 1 00402E11 1 00000E11 1 00000G11 1 00006H11 1 17006H11 1 11015H11 1 00999H11 1 00999K11 1 00070L11 1 00500M11 1 29730N11 1 07000Q11 1 10114S11 1 00072V11 1 00909X11 1 22020
0275999999038401972011316005+30533-087200SAO  +0040NDP  V0202205N010350024449N009600599+02285+02115101095ADDGD13995+9999999GD24995+9999999GD30995+9999999GD40995+9999999GF108085999999999999999999MA1999999100615MW1055EQDN01 08100JPWTH 1QNNE11 1 00499E11 1 00699E11 1 00099E11 1 00099G11 1 00008K11 1 00070L11 1 00600M11 1 29710N11 1 08100Q11 1 10109S11 1 00073V11 1 01010X11 1 22020
0275999999038401972011317005+30533-087200SAO  +0040NDP  V0202205N012450024449N009600599+02335+02115101095ADDGD13995+9999999GD24995+9999999GD30995+9999999GD40995+9999999GF108085999999999999999999MA1999999100615MW1055EQDN01 08100JPWTH 1QNNE11 1 00499E11 1 00699E11 1 00099E11 1 00099G11 1 00008K11 1 00070L11 1 00600M11 1 29710N11 1 08100Q11 1 10109S11 1 00074V11 1 01010X11 1 22024
0302999999038401972011318005+30533-087200SAO  +0040NDP  V0202305N011350024449N009600599+02395+02115100995ADDGA1999+002444084GD14085+9999999GD20995+9999999GD30995+9999999GD40995+9999999GF108085999999999999999999MA1999999100515MW1055EQDN01 08100JPWTH 1QNNE11 1 00610E11 1 00099E11 1 00099E11 1 00099G11 1 00008H11 1 11008K11 1 00070L11 1 00600M11 1 29680N11 1 08100Q11 1 10099S11 1 00075V11 1 01010X11 1 23022
0275999999038401972011319005+30533-087200SAO  +0040NDP  V0202205N012950024449N009600599+02395+02115100945ADDGD14995+9999999GD20995+9999999GD30995+9999999GD40995+9999999GF108085999999999999999999MA1999999100475MW1055EQDN01 08100JPWTH 1QNNE11 1 00699E11 1 00099E11 1 00099E11 1 00099G11 1 00008K11 1 00070L11 1 00600M11 1 29670N11 1 08100Q11 1 10094S11 1 00075V11 1 01010X11 1 22025
0275999999038401972011320005+30533-087200SAO  +0040NDP  V0202405N010350024449N009600599+02395+02115100945ADDGD14995+9999999GD20995+9999999GD30995+9999999GD40995+9999999GF108085999999999999999999MA1999999100475MW1055EQDN01 08100JPWTH 1QNNE11 1 00699E11 1 00099E11 1 00099E11 1 00099G11 1 00008K11 1 00070L11 1 00600M11 1 29670N11 1 08100Q11 1 10094S11 1 00075V11 1 01010X11 1 24020
0302999999038401972011321005+30533-087200SAO  +0040NDP  V0202405N011350024449N009600599+02395+02115100905ADDGA1999+002444084GD14085+9999999GD20995+9999999GD30995+9999999GD40995+9999999GF108085999999999999999999MA1999999100445MW1055EQDN01 08100JPWTH 1QNNE11 1 00610E11 1 00099E11 1 00099E11 1 00099G11 1 00008H11 1 11008K11 1 00070L11 1 00600M11 1 29660N11 1 08100Q11 1 10090S11 1 00075V11 1 01010X11 1 24022
0275999999038401972011322005+30533-087200SAO  +0040NDP  V0202405N009350024449N009600599+02335+02065100875ADDGD14995+9999999GD20995+9999999GD30995+9999999GD40995+9999999GF108085999999999999999999MA1999999100415MW1055EQDN01 08100JPWTH 1QNNE11 1 00699E11 1 00099E11 1 00099E11 1 00099G11 1 00008K11 1 00069L11 1 00600M11 1 29650N11 1 08100Q11 1 10087S11 1 00074V11 1 01010X11 1 24018
0281999999038401972011323005+30533-087200SAO  +0040NDP  V0202505N008250015249N009600599+02285+02005100995ADDGD13995+9999999GD24995+9999999GD30995+9999999GD40995+9999999GF108085999999999999999999MA1999999100515MW1055MW2805EQDN01 02381JPWTH 1QNNE11 1 00499E11 1 00699E11 1 00099E11 1 00099G11 1 00005K11 1 00068L11 1 00600M11 1 29680N11 1 02381Q11 1 10099S11 1 00073V11 1 01010X11 1 25016
0269999999038401972011411005+30533-087200SAO  +0040NDP  V0200205N006750061049N011200599+01615+01175101435ADDGD13995+9999999GD20995+9999999GD30995+9999999GD40995+9999999GF107065999999999999999999MA1999999100955EQDN01 00000JPWTH 1QNNE11 1 00499E11 1 00099E11 1 00099E11 1 00099G11 1 00020K11 1 00053L11 1 00700M11 1 29810N11 1 00000Q11 1 10143S11 1 00061V11 1 00908X11 1 02013
0377999999038401972011412005+30533-087200SAO  +0040NDP  V0200105N005250106749N011200599+01565+01115101565ADDGA1999+010674064GA2999+999999999GA3999+999999999GA4999+999999999GD13075+9999999GD20005+9999999GD30005+9999999GD40005+9999999GF107065999999999999999999MA1999999101085EQDN01 00000JPWTH 1QNNE11 1 00409E11 1 00000E11 1 00000E11 1 00000G11 1 00035H11 1 15035H11 1 00999H11 1 00999H11 1 00999K11 1 00052L11 1 00700M11 1 29850N11 1 00000Q11 1 10156S11 1 00060V11 1 00908X11 1 01010
0269999999038401972011413005+30533-087200SAO  +0040NDP  V0200305N006250152449N011200599+01395+00895101675ADDGD12995+9999999GD24995+9999999GD30995+9999999GD40995+9999999GF108075999999999999999999MA1999999101195EQDN01 00000JPWTH 1QNNE11 1 00299E11 1 00699E11 1 00099E11 1 00099G11 1 00050K11 1 00048L11 1 00700M11 1 29880N11 1 00000Q11 1 10167S11 1 00057V11 1 01009X11 1 03012
0269999999038401972011414005+30533-087200SAO  +0040NDP  V0200205N007250762049N011200599+01225+00675101755ADDGD12995+9999999GD22995+9999999GD33995+9999999GD40995+9999999GF107065999999999999999999MA1999999101295EQDN01 00000JPWTH 1QNNE11 1 00299E11 1 00299E11 1 00499E11 1 00099G11 1 00250K11 1 00044L11 1 00700M11 1 29910N11 1 00000Q11 1 10175S11 1 00054V11 1 00908X11 1 02014
0350999999038401972011415005+30533-087200SAO  +0040NDP  V0200205N007250762049N011200599+01115+00565101855ADDGA1999+012194064GA2999+030484034GA3999+076204004GD12035+9999999GD22015+9999999GD34045+9999999GD40995+9999999GF108085999999999999999999MA1999999101395EQDN01 00000JPWTH 1QNNE11 1 00204E11 1 00201E11 1 00605E11 1 00099G11 1 00250H11 1 15040H11 1 23100H11 1 32250K11 1 00042L11 1 00700M11 1 29940N11 1 00000Q11 1 10185S11 1 00052V11 1 01010X11 1 02014
0269999999038401972011416005+30533-087200SAO  +0040NDP  V0200105N006250137249N011200599+01115+00505102045ADDGD13995+9999999GD23995+9999999GD34995+9999999GD40995+9999999GF108085999999999999999999MA1999999101565EQDN01 00000JPWTH 1QNNE11 1 00499E11 1 00499E11 1 00699E11 1 00099G11 1 00045K11 1 00041L11 1 00700M11 1 29990N11 1 00000Q11 1 10204S11 1 00052V11 1 01010X11 1 01012
0269999999038401972011417005+30533-087200SAO  +0040NDP  V0200305N007750152449N011200599+01115+00445101965ADDGD13995+9999999GD23995+9999999GD34995+9999999GD40995+9999999GF108085999999999999999999MA1999999101495EQDN01 00000JPWTH 1QNNE11 1 00499E11 1 00499E11 1 00699E11 1 00099G11 1 00050K11 1 00040L11 1 00700M11 1 29970N11 1 00000Q11 1 10196S11 1 00052V11 1 01010X11 1 03015
0350999999038401972011418005+30533-087200SAO  +0040NDP  V0200105N009350152449N011200599+01065+00395101945ADDGA1999+015244064GA2999+030484034GA3999+076204004GD13055+9999999GD23015+9999999GD34025+9999999GD40995+9999999GF108085999999999999999999MA1999999101465EQDN01 00000JPWTH 1QNNE11 1 00406E11 1 00401E11 1 00603E11 1 00099G11 1 00050H11 1 15050H11 1 23100H11 1 32250K11 1 00039L11 1 00700M11 1 29960N11 1 00000Q11 1 10194S11 1 00051V11 1 01010X11 1 01018
0269999999038401972011419005+30533-087200SAO  +0040NDP  V0200205N008250243849N011200599+01065+00395101905ADDGD12995+9999999GD24995+9999999GD30995+9999999GD40995+9999999GF108085999999999999999999MA1999999101425EQDN01 00000JPWTH 1QNNE11 1 00299E11 1 00699E11 1 00099E11 1 00099G11 1 00080K11 1 00039L11 1 00700M11 1 29950N11 1 00000Q11 1 10190S11 1 00051V11 1 01010X11 1 02016
0269999999038401972011420005+30533-087200SAO  +0040NDP  V0200305N006750243849N011200599+01115+00395101805ADDGD12995+9999999GD24995+9999999GD30995+9999999GD40995+9999999GF108085999999999999999999MA1999999101325EQDN01 00000JPWTH 1QNNE11 1 00299E11 1 00699E11 1 00099E11 1 00099G11 1 00080K11 1 00039L11 1 00700M11 1 29920N11 1 00000Q11 1 10180S11 1 00052V11 1 01010X11 1 03013
0323999999038401972011421005+30533-087200SAO  +0040NDP  V0200405N006250274349N011200599+01225+00335101965ADDGA1999+021344034GA2999+027434044GD12045+9999999GD24045+9999999GD30995+9999999GD40995+9999999GF108085999999999999999999MA1999999101495EQDN01 00000JPWTH 1QNNE11 1 00205E11 1 00605E11 1 00099E11 1 00099G11 1 00090H11 1 23070H11 1 21090K11 1 00038L11 1 00700M11 1 29970N11 1 00000Q11 1 10196S11 1 00054V11 1 01010X11 1 04012
0269999999038401972011422005+30533-087200SAO  +0040NDP  V0200405N007250213449N011200599+01225+00225101985ADDGD13995+9999999GD24995+9999999GD30995+9999999GD40995+9999999GF108085999999999999999999MA1999999101495EQDN01 00000JPWTH 1QNNE11 1 00499E11 1 00699E11 1 00099E11 1 00099G11 1 00070K11 1 00036L11 1 00700M11 1 29970N11 1 00000Q11 1 10198S11 1 00054V11 1 01010X11 1 04014
0269999999038401972011423005+30533-087200SAO  +0040NDP  V0200305N007250762049N011200599+01225+00115102015ADDGD12995+9999999GD24995+9999999GD30995+9999999GD40995+9999999GF108085999999999999999999MA1999999101525EQDN01 00000JPWTH 1QNNE11 1 00299E11 1 00699E11 1 00099E11 1 00099G11 1 00250K11 1 00034L11 1 00700M11 1 29980N11 1 00000Q11 1 10201S11 1 00054V11 1 01010X11 1 03014
0377999999038401972011500005+30533-087200SAO  +0040NDP  V0200505N007250762049N011200599+01175+00005102075ADDGA1999+076204004GA2999+999999999GA3999+999999999GA4999+999999999GD13075+9999999GD20005+9999999GD30005+9999999GD40005+9999999GF107065999999999999999999MA1999999101595EQDN01 00000JPWTH 1QNNE11 1 00409E11 1 00000E11 1 00000E11 1 00000G11 1 00250H11 1 32250H11 1 00999H11 1 00999H11 1 00999K11 1 00032L11 1 00700M11 1 30000N11 1 00000Q11 1 10207S11 1 00053V11 1 00907X11 1 05014
0269999999038401972011501005+30533-087200SAO  +0040NDP  V0200305N006250762049N011200599+01115+00005102205ADDGD13995+9999999GD20995+9999999GD30995+9999999GD40995+9999999GF107075999999999999999999MA1999999101735EQDN01 00000JPWTH 1QNNE11 1 00499E11 1 00099E11 1 00099E11 1 00099G11 1 00250K11 1 00032L11 1 00700M11 1 30040N11 1 00000Q11 1 10220S11 1 00052V11 1 00909X11 1 03012
0269999999038401972011502005+30533-087200SAO  +0040NDP  V0200305N006250762049N011200599+01005+00005102215ADDGD13995+9999999GD20995+9999999GD30995+9999999GD40995+9999999GF105035999999999999999999MA1999999101735EQDN01 00000JPWTH 1QNNE11 1 00499E11 1 00099E11 1 00099E11 1 00099G11 1 00250K11 1 00032L11 1 00700M11 1 30040N11 1 00000Q11 1 10221S11 1 00050V11 1 00604X11 1 03012
0377999999038401972011503005+30533-087200SAO  +0040NDP  V0200405N006752200059N011200599+01005-00115102245ADDGA1999+076204004GA2999+999999999GA3999+999999999GA4999+999999999GD12045+9999999GD20005+9999999GD30005+9999999GD40005+9999999GF104035999999999999999999MA1999999101765EQDN01 00000JPWTH 1QNNE11 1 00205E11 1 00000E11 1 00000E11 1 00000G11U1 99999H11 1 32250H11 1 00999H11 1 00999H11 1 00999K11 1 00030L11 1 00700M11 1 30050N11 1 00000Q11 1 10224S11 1 00050V11 1 00504X11 1 04013
0377999999038401972011512005+30533-087200SAO  +0040NDP  V0200205N010850304849N011200599+00335-00615102815ADDGA1999+030484034GA2999+076204004GA3999+999999999GA4999+999999999GD13065+9999999GD23015+9999999GD30005+9999999GD40005+9999999GF107065999999999999999999MA1999999102345EQDN01 00000JPWTH 1QNNE11 1 00408E11 1 00401E11 1 00000E11 1 00000G11 1 00100H11 1 23100H11 1 32250H11 1 00999H11 1 00999K11 1 00021L11 1 00700M11 1 30220N11 1 00000Q11 1 10281S11 1 00038V11 1 00908X11 1 02021
0269999999038401972011513005+30533-087200SAO  +0040NDP  V0200205N008250304849N011200599+00335-00675102845ADDGD13995+9999999GD23995+9999999GD30995+9999999GD40995+9999999GF107065999999999999999999MA1999999102375EQDN01 00000JPWTH 1QNNE11 1 00499E11 1 00499E11 1 00099E11 1 00099G11 1 00100K11 1 00020L11 1 00700M11 1 30230N11 1 00000Q11 1 10284S11 1 00038V11 1 00908X11 1 02016
0269999999038401972011514005+30533-087200SAO  +0040NDP  V0200305N009352200059N011200599+00225-00725102915ADDGD12995+9999999GD23995+9999993GD30995+9999999GD40995+9999999GF106035999999999999999999MA1999999102445EQDN01 00000JPWTH 1QNNE11 1 00299E11 1 00399E11 1 00099E11 1 00099G11U1 99999K11 1 00019L11 1 00700M11 1 30250N11 1 00000Q11 1 10291S11 1 00036V11 1 00804X11 1 03018
0377999999038401972011515005+30533-087200SAO  +0040NDP  V0200305N008252200059N011200599+00395-00725102965ADDGA1999+036584034GA2999+091444004GA3999+999999999GA4999+999999999GD12015+9999999GD23065+9999993GD30005+9999999GD40005+9999999GF107035999999999999999999MA1999999102475EQDN01 00000JPWTH 1QNNE11 1 00201E11 1 00308E11 1 00000E11 1 00000G11U1 99999H11 1 23120H11 1 32300H11 1 00999H11 1 00999K11 1 00019L11 1 00700M11 1 30260N11 1 00000Q11 1 10296S11 1 00039V11 1 00904X11 1 03016
0269999999038401972011516005+30533-087200SAO  +0040NDP  V0200305N008852200059N011200599+00565-00895102965ADDGD13995+9999993GD20995+9999999GD30995+9999999GD40995+9999999GF105025999999999999999999MA1999999102475EQDN01 00000JPWTH 1QNNE11 1 00399E11 1 00099E11 1 00099E11 1 00099G11U1 99999K11 1 00016L11 1 00700M11 1 30260N11 1 00000Q11 1 10296S11 1 00042V11 1 00603X11 1 03017
0269999999038401972011517005+30533-087200SAO  +0040NDP  V0200305N009352200059N011200599+00725-00835103015ADDGD13995+9999993GD20995+9999999GD30995+9999999GD40995+9999999GF105025999999999999999999MA1999999102545EQDN01 00000JPWTH 1QNNE11 1 00399E11 1 00099E11 1 00099E11 1 00099G11U1 99999K11 1 00017L11 1 00700M11 1 30280N11 1 00000Q11 1 10301S11 1 00045V11 1 00603X11 1 03018
0377999999038401972011518005+30533-087200SAO  +0040NDP  V0200405N009850762049N011200599+00835-00835102995ADDGA1999+076204024GA2999+999999999GA3999+999999999GA4999+999999999GD13075+9999999GD20005+9999999GD30005+9999999GD40005+9999999GF107065999999999999999999MA1999999102515EQDN01 00000JPWTH 1QNNE11 1 00409E11 1 00000E11 1 00000E11 1 00000G11 1 00250H11 1 37250H11 1 00999H11 1 00999H11 1 00999K11 1 00017L11 1 00700M11 1 30270N11 1 00000Q11 1 10299S11 1 00047V11 1 00908X11 1 04019
0269999999038401972011519005+30533-087200SAO  +0040NDP  V0200205N008850762049N011200599+01005-00785102915ADDGD13995+9999999GD20995+9999999GD30995+9999999GD40995+9999999GF107045999999999999999999MA1999999102445EQDN01 00000JPWTH 1QNNE11 1 00499E11 1 00099E11 1 00099E11 1 00099G11 1 00250K11 1 00018L11 1 00700M11 1 30250N11 1 00000Q11 1 10291S11 1 00050V11 1 00905X11 1 02017
0269999999038401972011520005+30533-087200SAO  +0040NDP  V0200105N010350762049N011200599+01005-00785102875ADDGD13995+9999999GD20995+9999999GD30995+9999999GD40995+9999999GF106045999999999999999999MA1999999102405EQDN01 00000JPWTH 1QNNE11 1 00499E11 1 00099E11 1 00099E11 1 00099G11 1 00250K11 1 00018L11 1 00700M11 1 30240N11 1 00000Q11 1 10287S11 1 00050V11 1 00805X11 1 01020
0377999999038401972011521005+30533-087200SAO  +0040NDP  V0200205N007250762049N011200599+00895-00785102965ADDGA1999+036584044GA2999+076204024GA3999+999999999GA4999+999999999GD12025+9999999GD23065+9999999GD30005+9999999GD40005+9999999GF107065999999999999999999MA1999999102475EQDN01 00000JPWTH 1QNNE11 1 00202E11 1 00407E11 1 00000E11 1 00000G11 1 00250H11 1 21120H11 1 37250H11 1 00999H11 1 00999K11 1 00018L11 1 00700M11 1 30260N11 1 00000Q11 1 10296S11 1 00048V11 1 00908X11 1 02014
0269999999038401972011522005+30533-087200SAO  +0040NDP  V0200305N009352200059N011200599+00785-01005103025ADDGD13995+9999993GD20995+9999999GD30995+9999999GD40995+9999999GF106035999999999999999999MA1999999102545EQDN01 00000JPWTH 1QNNE11 1 00399E11 1 00099E11 1 00099E11 1 00099G11U1 99999K11 1 00014L11 1 00700M11 1 30280N11 1 00000Q11 1 10302S11 1 00046V11 1 00804X11 1 03018
0269999999038401972011523005+30533-087200SAO  +0040NDP  V0200205N008250762049N011200599+00565-01065103145ADDGD13995+9999999GD20995+9999999GD30995+9999999GD40995+9999999GF106065999999999999999999MA1999999102645EQDN01 00000JPWTH 1QNNE11 1 00499E11 1 00099E11 1 00099E11 1 00099G11 1 00250K11 1 00013L11 1 00700M11 1 30310N11 1 00000Q11 1 10314S11 1 00042V11 1 00807X11 1 02016
0377999999038401972011600005+30533-087200SAO  +0040NDP  V0200105N006252200059N011200599+00445-01115103245ADDGA1999+076204024GA2999+999999999GA3999+999999999GA4999+999999999GD13065+9999993GD20005+9999999GD30005+9999999GD40005+9999999GF106025999999999999999999MA1999999102745EQDN01 00000JPWTH 1QNNE11 1 00307E11 1 00000E11 1 00000E11 1 00000G11U1 99999H11 1 37250H11 1 00999H11 1 00999H11 1 00999K11 1 00012L11 1 00700M11 1 30340N11 1 00000Q11 1 10324S11 1 00040V11 1 00703X11 1 01012
0269999999038401972011601005+30533-087200SAO  +0040NDP  V0200105N006252200059N011200599+00335-01285103325ADDGD12995+9999999GD20995+9999999GD30995+9999999GD40995+9999999GF102025999999999999999999MA1999999102845EQDN01 00000JPWTH 1QNNE11 1 00299E11 1 00099E11 1 00099E11 1 00099G11U1 99999K11 1 00009L11 1 00700M11 1 30370N11 1 00000Q11 1 10332S11 1 00038V11 1 00302X11 1 01012
0269999999038401972011613005+30533-087200SAO  +0040NDP  V0200405N007752200059N011200599-00565-01785103715ADDGD10995+9999999GD20995+9999999GD30995+9999999GD40995+9999999GF100005999999999999999999MA1999999103225EQDN01 00000JPWTH 1QNNE11 1 00099E11 1 00099E11 1 00099E11 1 00099G11U1 99999K11 1 00000L11 1 00700M11 1 30480N11 1 00000Q11 1 10371S11 1 00022V11 1 00000X11 1 04015
0269999999038401972011614005+30533-087200SAO  +0040NDP  V0200405N008252200059N011200599-00565-01675103765ADDGD10995+9999999GD20995+9999999GD30995+9999999GD40995+9999999GF100005999999999999999999MA1999999103285EQDN01 00000JPWTH 1QNNE11 1 00099E11 1 00099E11 1 00099E11 1 00099G11U1 99999K11 1 00002L11 1 00700M11 1 30500N11 1 00000Q11 1 10376S11 1 00022V11 1 00000X11 1 04016
0165999999038401972011615005+30533-087200SAO  +0040NDP  V0200405N007752200059N011200599-00395-01785103785ADDGF100005999999999999999999MA1999999103285EQDN01 00000JPWTH 1QNNG11U1 99999K11 1 00000L11 1 00700M11 1 30500N11 1 00000Q11 1 10378S11 1 00025V11 1 00000X11 1 04015
0269999999038401972011616005+30533-087200SAO  +0040NDP  V0200505N008252200059N011200599-00225-01725103795ADDGD10995+9999999GD20995+9999999GD30995+9999999GD40995+9999999GF100005999999999999999999MA1999999103325EQDN01 00000JPWTH 1QNNE11 1 00099E11 1 00099E11 1 00099E11 1 00099G11U1 99999K11 1 00001L11 1 00700M11 1 30510N11 1 00000Q11 1 10379S11 1 00028V11 1 00000X11 1 05016
0269999999038401972011617005+30533-087200SAO  +0040NDP  V0200505N008852200059N011200599+00005-01785103765ADDGD10995+9999999GD20995+9999999GD30995+9999999GD40995+9999999GF100005999999999999999999MA1999999103285EQDN01 00000JPWTH 1QNNE11 1 00099E11 1 00099E11 1 00099E11 1 00099G11U1 99999K11 1 00000L11 1 00700M11 1 30500N11 1 00000Q11 1 10376S11 1 00032V11 1 00000X11 1 05017
0165999999038401972011618005+30533-087200SAO  +0040NDP  V0200305N006252200059N011200599+00175-01785103655ADDGF100005999999999999999999MA1999999103185EQDN01 00000JPWTH 1QNNG11U1 99999K11 1 00000L11 1 00700M11 1 30470N11 1 00000Q11 1 10365S11 1 00035V11 1 00000X11 1 03012
0269999999038401972011619005+30533-087200SAO  +0040NDP  V0200505N010352200059N011200599+00395-01785103525ADDGD10995+9999999GD20995+9999999GD30995+9999999GD40995+9999999GF100005999999999999999999MA1999999103055EQDN01 00000JPWTH 1QNNE11 1 00099E11 1 00099E11 1 00099E11 1 00099G11U1 99999K11 1 00000L11 1 00700M11 1 30430N11 1 00000Q11 1 10352S11 1 00039V11 1 00000X11 1 05020
0269999999038401972011620005+30533-087200SAO  +0040NDP  V0200205N008852200059N011200599+00445-01675103475ADDGD10995+9999999GD20995+9999999GD30995+9999999GD40995+9999999GF100005999999999999999999MA1999999102985EQDN01 00000JPWTH 1QNNE11 1 00099E11 1 00099E11 1 00099E11 1 00099G11U1 99999K11 1 00002L11 1 00700M11 1 30410N11 1 00000Q11 1 10347S11 1 00040V11 1 00000X11 1 02017
0165999999038401972011621005+30533-087200SAO  +0040NDP  V0200305N010352200059N011200599+00565-01675103475ADDGF100005999999999999999999MA1999999102985EQDN01 00000JPWTH 1QNNG11U1 99999K11 1 00002L11 1 00700M11 1 30410N11 1 00000Q11 1 10347S11 1 00042V11 1 00000X11 1 03020
0269999999038401972011622005+30533-087200SAO  +0040NDP  V0200505N007752200059N011200599+00505-01835103485ADDGD10995+9999999GD20995+9999999GD30995+9999999GD40995+9999999GF100005999999999999999999MA1999999103015EQDN01 00000JPWTH 1QNNE11 1 00099E11 1 00099E11 1 00099E11 1 00099G11U1 99999K11 1-00001L11 1 00700M11 1 30420N11 1 00000Q11 1 10348S11 1 00041V11 1 00000X11 1 05015
0269999999038401972011623005+30533-087200SAO  +0040NDP  V0200405N007252200059N011200599+00445-01725103485ADDGD10995+9999999GD20995+9999999GD30995+9999999GD40995+9999999GF100005999999999999999999MA1999999103015EQDN01 00000JPWTH 1QNNE11 1 00099E11 1 00099E11 1 00099E11 1 00099G11U1 99999K11 1 00001L11 1 00700M11 1 30420N11 1 00000Q11 1 10348S11 1 00040V11 1 00000X11 1 04014
0165999999038401972011700005+30533-087200SAO  +0040NDP  V0200505N005252200059N011200599+00335-01615103525ADDGF100005999999999999999999MA1999999103055EQDN01 00000JPWTH 1QNNG11U1 99999K11 1 00003L11 1 00700M11 1 30430N11 1 00000Q11 1 10352S11 1 00038V11 1 00000X11 1 05010
0269999999038401972011701005+30533-087200SAO  +0040NDP  V0200405N004152200059N011200599+00225-01565103545ADDGD10995+9999999GD20995+9999999GD30995+9999999GD40995+9999999GF100005999999999999999999MA1999999103055EQDN01 00000JPWTH 1QNNE11 1 00099E11 1 00099E11 1 00099E11 1 00099G11U1 99999K11 1 00004L11 1 00700M11 1 30430N11 1 00000Q11 1 10354S11 1 00036V11 1 00000X11 1 04008
0269999999038401972011711005+30533-087200SAO  +0040NDP  V0200805N006752200059N011200599-00065-01005103355ADDGD10995+9999999GD20995+9999999GD30995+9999999GD40995+9999999GF100005999999999999999999MA1999999102885EQDN01 00000JPWTH 1QNNE11 1 00099E11 1 00099E11 1 00099E11 1 00099G11U1 99999K11 1 00014L11 1 00700M11 1 30380N11 1 00000Q11 1 10335S11 1 00031V11 1 00000X11 1 08013
0165999999038401972011712005+30533-087200SAO  +0040NDP  V0200805N006752200059N011200599-00115-01005103375ADDGF100005999999999999999999MA1999999102885EQDN01 00000JPWTH 1QNNG11U1 99999K11 1 00014L11 1 00700M11 1 30380N11 1 00000Q11 1 10337S11 1 00030V11 1 00000X11 1 08013
0269999999038401972011713005+30533-087200SAO  +0040NDP  V0200705N007252200059N011200599-00115-01065103405ADDGD10995+9999999GD20995+9999999GD30995+9999999GD40995+9999999GF100005999999999999999999MA1999999102915EQDN01 00000JPWTH 1QNNE11 1 00099E11 1 00099E11 1 00099E11 1 00099G11U1 99999K11 1 00013L11 1 00700M11 1 30390N11 1 00000Q11 1 10340S11 1 00030V11 1 00000X11 1 07014
0269999999038401972011714005+30533-087200SAO  +0040NDP  V0200905N006752200059N011200599+00005-00945103405ADDGD12995+9999999GD20995+9999999GD30995+9999999GD40995+9999999GF101015999999999999999999MA1999999102915EQDN01 00000JPWTH 1QNNE11 1 00299E11 1 00099E11 1 00099E11 1 00099G11U1 99999K11 1 00015L11 1 00700M11 1 30390N11 1 00000Q11 1 10340S11 1 00032V11 1 00101X11 1 09013
0165999999038401972011715005+30533-087200SAO  +0040NDP  V0200705N005252200059N011200599+00175-00895103475ADDGF100005999999999999999999MA1999999102985EQDN01 00000JPWTH 1QNNG11U1 99999K11 1 00016L11 1 00700M11 1 30410N11 1 00000Q11 1 10347S11 1 00035V11 1 00000X11 1 07010
0269999999038401972011716005+30533-087200SAO  +0040NDP  V0200905N004152200059N011200599+00395-00615103475ADDGD10995+9999999GD20995+9999999GD30995+9999999GD40995+9999999GF100005999999999999999999MA1999999102985EQDN01 00000JPWTH 1QNNE11 1 00099E11 1 00099E11 1 00099E11 1 00099G11U1 99999K11 1 00021L11 1 00700M11 1 30410N11 1 00000Q11 1 10347S11 1 00039V11 1 00000X11 1 09008
0269999999038401972011717005+30533-087200SAO  +0040NDP  V0200805N002652200059N011200599+00615-00395103405ADDGD10995+9999999GD20995+9999999GD30995+9999999GD40995+9999999GF100005999999999999999999MA1999999102915EQDN01 00000JPWTH 1QNNE11 1 00099E11 1 00099E11 1 00099E11 1 00099G11U1 99999K11 1 00025L11 1 00700M11 1 30390N11 1 00000Q11 1 10340S11 1 00043V11 1 00000X11 1 08005
0165999999038401972011718005+30533-087200SAO  +0040NDP  V0200805N002652200059N011200599+00945-00335103245ADDGF100005999999999999999999MA1999999102745EQDN01 00000JPWTH 1QNNG11U1 99999K11 1 00026L11 1 00700M11 1 30340N11 1 00000Q11 1 10324S11 1 00049V11 1 00000X11 1 08005
0269999999038401972011719005+30533-087200SAO  +0040NDP  V0200705N003152200059N011200599+01175-00675103095ADDGD10995+9999999GD20995+9999999GD30995+9999999GD40995+9999999GF100005999999999999999999MA1999999102615EQDN01 00000JPWTH 1QNNE11 1 00099E11 1 00099E11 1 00099E11 1 00099G11U1 99999K11 1 00020L11 1 00700M11 1 30300N11 1 00000Q11 1 10309S11 1 00053V11 1 00000X11 1 07006
0269999999038401972011720005+30533-087200SAO  +0040NDP  V0201105N002152200059N011200599+01285-00505103015ADDGD10995+9999999GD20995+9999999GD30995+9999999GD40995+9999999GF100005999999999999999999MA1999999102545EQDN01 00000JPWTH 1QNNE11 1 00099E11 1 00099E11 1 00099E11 1 00099G11U1 99999K11 1 00023L11 1 00700M11 1 30280N11 1 00000Q11 1 10301S11 1 00055V11 1 00000X11 1 11004
0165999999038401972011721005+30533-087200SAO  +0040NDP  V0200905N001552200059N011200599+01335-00895102925ADDGF100005999999999999999999MA1999999102445EQDN01 00000JPWTH 1QNNG11U1 99999K11 1 00016L11 1 00700M11 1 30250N11 1 00000Q11 1 10292S11 1 00056V11 1 00000X11 1 09003
0269999999038401972011722005+30533-087200SAO  +0040NDP  V0200905N002152200059N011200599+01335-01005102925ADDGD10995+9999999GD20995+9999999GD30995+9999999GD40995+9999999GF100005999999999999999999MA1999999102445EQDN01 00000JPWTH 1QNNE11 1 00099E11 1 00099E11 1 00099E11 1 00099G11U1 99999K11 1 00014L11 1 00700M11 1 30250N11 1 00000Q11 1 10292S11 1 00056V11 1 00000X11 1 09004
0275999999038401972011723005+30533-087200SAO  +0040NDP  V0200905N002152200059N008000599+01285-00835102895ADDGD16995+9999999GD22995+9999999GD30995+9999999GD40995+9999999GF102025999999999999999999MA1999999102405MW1045EQDN01 08000JPWTH 1QNNE11 1 00899E11 1 00299E11 1 00099E11 1 00099G11U1 99999K11 1 00017L11 1 00500M11 1 30240N11 1 08000Q11 1 10289S11 1 00055V11 1 00303X11 1 09004
0383999999038401972011800005+30533-087200SAO  +0040NDP  V0200905N003152200059N004000599+01115-00335102915ADDGA1999+002744104GA2999+999999999GA3999+999999999GA4999+999999999GD12035+9999999GD20005+9999999GD30005+9999999GD40005+9999999GF103035999999999999999999MA1999999102445MW1045EQDN01 08000JPWTH 1QNNE11 1 00204E11 1 00000E11 1 00000E11 1 00000G11U1 99999H11 1 98009H11 1 00999H11 1 00999H11 1 00999K11 1 00026L11 1 00250M11 1 30250N11 1 08000Q11 1 10291S11 1 00052V11 1 00404X11 1 09006
0275999999038401972011801005+30533-087200SAO  +0040NDP  V0200705N002652200059N004000599+01005-00445102915ADDGD12995+9999999GD20995+9999999GD30995+9999999GD40995+9999999GF103035999999999999999999MA1999999102445MW1045EQDN01 08000JPWTH 1QNNE11 1 00299E11 1 00099E11 1 00099E11 1 00099G11U1 99999K11 1 00024L11 1 00250M11 1 30250N11 1 08000Q11 1 10291S11 1 00050V11 1 00404X11 1 07005
0275999999038401972011802005+30533-087200SAO  +0040NDP  V0200905N003152200059N004800599+00895-00335102895ADDGD16995+9999999GD20995+9999999GD30995+9999999GD40995+9999999GF103035999999999999999999MA1999999102405MW1045EQDN01 08000JPWTH 1QNNE11 1 00899E11 1 00099E11 1 00099E11 1 00099G11U1 99999K11 1 00026L11 1 00300M11 1 30240N11 1 08000Q11 1 10289S11 1 00048V11 1 00404X11 1 09006
0383999999038401972011803005+30533-087200SAO  +0040NDP  V0200805N004652200059N008000599+00785-00115102875ADDGA1999+999999104GA2999+999999999GA3999+999999999GA4999+999999999GD16025+9999999GD20005+9999999GD30005+9999999GD40005+9999999GF102025999999999999999999MA1999999102405MW1045EQDN01 08000JPWTH 1QNNE11 1 00802E11 1 00000E11 1 00000E11 1 00000G11U1 99999H11 1 98999H11 1 00999H11 1 00999H11 1 00999K11 1 00030L11 1 00500M11 1 30240N11 1 08000Q11 1 10287S11 1 00046V11 1 00202X11 1 08009
0243999999038401972011811005+30533-087200SAO  +0040NDP  V0200805N005752200059N011200599+00675+00225102575ADDGD10995+9999999GD20995+9999999GD30995+9999999GF100005999999999999999999MA1999999102105EQDN01 00000JPWTH 1QNNE11 1 00099E11 1 00099E11 1 00099G11U1 99999K11 1 00036L11 1 00700M11 1 30150N11 1 00000Q11 1 10257S11 1 00044V11 1 00000X11 1 08011
0377999999038401972011812005+30533-087200SAO  +0040NDP  V0200905N005252200059N011200599+00615+00225102585ADDGA1999+076204004GA2999+999999999GA3999+999999999GA4999+999999999GD12025+9999999GD20005+9999999GD30005+9999999GD40005+9999999GF102025999999999999999999MA1999999102105EQDN01 00000JPWTH 1QNNE11 1 00202E11 1 00000E11 1 00000E11 1 00000G11U1 99999H11 1 32250H11 1 00999H11 1 00999H11 1 00999K11 1 00036L11 1 00700M11 1 30150N11 1 00000Q11 1 10258S11 1 00043V11 1 00202X11 1 09010
0269999999038401972011813005+30533-087200SAO  +0040NDP  V0200805N004652200059N011200599+00615+00225102585ADDGD12995+9999999GD22995+9999999GD30995+9999999GD40995+9999999GF103025999999999999999999MA1999999102105EQDN01 00000JPWTH 1QNNE11 1 00299E11 1 00299E11 1 00099E11 1 00099G11U1 99999K11 1 00036L11 1 00700M11 1 30150N11 1 00000Q11 1 10258S11 1 00043V11 1 00403X11 1 08009
0275999999038401972011814005+30533-087200SAO  +0040NDP  V0200805N005252200059N008000599+00725+00285102585ADDGD12995+9999999GD20995+9999999GD30995+9999999GD40995+9999999GF102025999999999999999999MA1999999102105MW1055EQDN01 08100JPWTH 1QNNE11 1 00299E11 1 00099E11 1 00099E11 1 00099G11U1 99999K11 1 00037L11 1 00500M11 1 30150N11 1 08100Q11 1 10258S11 1 00045V11 1 00202X11 1 08010
0383999999038401972011815005+30533-087200SAO  +0040NDP  V0201005N004152200059N008000599+01005+00445102655ADDGA1999+076204004GA2999+999999999GA3999+999999999GA4999+999999999GD11015+9999993GD20005+9999999GD30005+9999999GD40005+9999999GF101005999999999999999999MA1999999102175MW1055EQDN01 08100JPWTH 1QNNE11 1 00101E11 1 00000E11 1 00000E11 1 00000G11U1 99999H11 1 32250H11 1 00999H11 1 00999H11 1 00999K11 1 00040L11 1 00500M11 1 30170N11 1 08100Q11 1 10265S11 1 00050V11 1 00100X11 1 10008
0275999999038401972011816005+30533-087200SAO  +0040NDP  V0201405N006252200059N008000599+01335+00785102655ADDGD12995+9999999GD22995+9999999GD30995+9999999GD40995+9999999GF102025999999999999999999MA1999999102175MW1045EQDN01 08200JPWTH 1QNNE11 1 00299E11 1 00299E11 1 00099E11 1 00099G11U1 99999K11 1 00046L11 1 00500M11 1 30170N11 1 08200Q11 1 10265S11 1 00056V11 1 00302X11 1 14012
0275999999038401972011817005+30533-087200SAO  +0040NDP  V0201405N007750762049N008000599+01505+01005102625ADDGD12995+9999999GD23995+9999999GD30995+9999999GD40995+9999999GF105035999999999999999999MA1999999102135MW1045EQDN01 08200JPWTH 1QNNE11 1 00299E11 1 00499E11 1 00099E11 1 00099G11 1 00250K11 1 00050L11 1 00500M11 1 30160N11 1 08200Q11 1 10262S11 1 00059V11 1 00604X11 1 14015
0383999999038401972011818005+30533-087200SAO  +0040NDP  V0201405N007750762049N006400599+01675+01175102465ADDGA1999+002744074GA2999+006104084GA3999+076204004GA4999+999999999GD12025+9999999GD22025+9999999GD33025+9999999GD40005+9999999GF106035999999999999999999MA1999999102005MW1045EQDN01 08200JPWTH 1QNNE11 1 00202E11 1 00202E11 1 00403E11 1 00000G11 1 00250H11 1 16009H11 1 11020H11 1 32250H11 1 00999K11 1 00053L11 1 00400M11 1 30120N11 1 08200Q11 1 10246S11 1 00062V11 1 00704X11 1 14015
0275999999038401972011819005+30533-087200SAO  +0040NDP  V0201405N006750762049N006400599+01785+01225102345ADDGD12995+9999999GD22995+9999999GD33995+9999999GD40995+9999999GF106055999999999999999999MA1999999101865MW1045EQDN01 08200JPWTH 1QNNE11 1 00299E11 1 00299E11 1 00499E11 1 00099G11 1 00250K11 1 00054L11 1 00400M11 1 30080N11 1 08200Q11 1 10234S11 1 00064V11 1 00806X11 1 14013
0275999999038401972011820005+30533-087200SAO  +0040NDP  V0201505N006250042749N006400599+01785+01225102335ADDGD13995+9999999GD23995+9999999GD33995+9999999GD40995+9999999GF107065999999999999999999MA1999999101865MW1045EQDN01 08200JPWTH 1QNNE11 1 00499E11 1 00499E11 1 00499E11 1 00099G11 1 00014K11 1 00054L11 1 00400M11 1 30080N11 1 08200Q11 1 10233S11 1 00064V11 1 00908X11 1 15012
0383999999038401972011821005+30533-087200SAO  +0040NDP  V0201405N006250045749N008000599+01785+01285102315ADDGA1999+004574064GA2999+030484034GA3999+076204004GA4999+999999999GD13055+9999999GD23015+9999999GD33025+9999999GD40005+9999999GF107065999999999999999999MA1999999101835MW1045EQDN01 08200JPWTH 1QNNE11 1 00406E11 1 00401E11 1 00402E11 1 00000G11 1 00015H11 1 15015H11 1 23100H11 1 32250H11 1 00999K11 1 00055L11 1 00500M11 1 30070N11 1 08200Q11 1 10231S11 1 00064V11 1 00907X11 1 14012
0275999999038401972011822005+30533-087200SAO  +0040NDP  V0201605N006250762049N008000599+01785+01335102295ADDGD12995+9999999GD22995+9999999GD33995+9999999GD40995+9999999GF106045999999999999999999MA1999999101835MW1045EQDN01 08200JPWTH 1QNNE11 1 00299E11 1 00299E11 1 00499E11 1 00099G11 1 00250K11 1 00056L11 1 00500M11 1 30070N11 1 08200Q11 1 10229S11 1 00064V11 1 00805X11 1 16012
0275999999038401972011823005+30533-087200SAO  +0040NDP  V0201505N004150304849N008000599+01725+01335102315ADDGD12995+9999999GD23995+9999999GD33995+9999999GD40995+9999999GF107045999999999999999999MA1999999101835MW1045EQDN01 08200JPWTH 1QNNE11 1 00299E11 1 00499E11 1 00499E11 1 00099G11 1 00100K11 1 00056L11 1 00500M11 1 30070N11 1 08200Q11 1 10231S11 1 00063V11 1 00905X11 1 15008
0383999999038401972011900005+30533-087200SAO  +0040NDP  V0201305N004650304849N006400599+01615+01285102315ADDGA1999+003664084GA2999+030484044GA3999+076204004GA4999+999999999GD12035+9999999GD23025+9999999GD34035+9999999GD40005+9999999GF108075999999999999999999MA1999999101835MW1045EQDN01 08200JPWTH 1QNNE11 1 00204E11 1 00402E11 1 00604E11 1 00000G11 1 00100H11 1 11012H11 1 21100H11 1 32250H11 1 00999K11 1 00055L11 1 00400M11 1 30070N11 1 08200Q11 1 10231S11 1 00061V11 1 01009X11 1 13009
0275999999038401972011901005+30533-087200SAO  +0040NDP  V0201305N005250304849N006400599+01565+01285102295ADDGD12995+9999999GD23995+9999999GD34995+9999999GD40995+9999999GF108085999999999999999999MA1999999101835MW1045EQDN01 08200JPWTH 1QNNE11 1 00299E11 1 00499E11 1 00699E11 1 00099G11 1 00100K11 1 00055L11 1 00400M11 1 30070N11 1 08200Q11 1 10229S11 1 00060V11 1 01010X11 1 13010
0275999999038401972011902005+30533-087200SAO  +0040NDP  V0201405N005750304849N006400599+01565+01335102285ADDGD12995+9999999GD23995+9999999GD34995+9999999GD40995+9999999GF108085999999999999999999MA1999999101795MW1045EQDN01 08200JPWTH 1QNNE11 1 00299E11 1 00499E11 1 00699E11 1 00099G11 1 00100K11 1 00056L11 1 00400M11 1 30060N11 1 08200Q11 1 10228S11 1 00060V11 1 01010X11 1 14011
0329999999038401972011903005+30533-087200SAO  +0040NDP  V0201305N004150304849N006400599+01565+01335102345ADDGA1999+030484044GA2999+076204004GD13055+9999999GD24035+9999999GD30995+9999999GD40995+9999999GF108085999999999999999999MA1999999101865MW1045EQDN01 08200JPWTH 1QNNE11 1 00406E11 1 00604E11 1 00099E11 1 00099G11 1 00100H11 1 21100H11 1 32250K11 1 00056L11 1 00400M11 1 30080N11 1 08200Q11 1 10234S11 1 00060V11 1 01010X11 1 13008
0281999999038401972011911005+30533-087200SAO  +0040NDP  V0201405N003150006149N000600599+01565+01395102215ADDGD15995+9999999GD20995+9999999GD30995+9999999GD40995+9999999GF108085999999999999999999MA1999999101735MW1455MW2615EQDN01 02070JPWTH 1QNNE11 1 00799E11 1 00099E11 1 00099E11 1 00099G11 1 00002K11 1 00057L11 1 00038M11 1 30040N11 1 02070Q11 1 10221S11 1 00060V11 1 01010X11 1 14006
0329999999038401972011912005+30533-087200SAO  +0040NDP  V0201305N004150045749N001300599+01565+01445102235ADDGA1999+999999104GA2999+004574074GD16055+9999999GD24035+9999999GD30995+9999999GD40995+9999999GF108085999999999999999999MA1999999101765MW1455EQDN01 07000JPWTH 1QNNE11 1 00806E11 1 00604E11 1 00099E11 1 00099G11 1 00015H11 1 45999H11 1 16015K11 1 00058L11 1 00081M11 1 30050N11 1 07000Q11 1 10223S11 1 00060V11 1 01010X11 1 13008
0249999999038401972011913005+30533-087200SAO  +0040NDP  V0201205N004150030549N003200599+01565+01445102265ADDGD13995+9999999GD24995+9999999GD30995+9999999GF108085999999999999999999MA1999999101795MW1455EQDN01 07000JPWTH 1QNNE11 1 00499E11 1 00699E11 1 00099G11 1 00010K11 1 00058L11 1 00200M11 1 30060N11 1 07000Q11 1 10226S11 1 00060V11 1 01010X11 1 12008
0249999999038401972011914005+30533-087200SAO  +0040NDP  V0201105N003650121949N004000599+01565+01445102335ADDGD13995+9999999GD24995+9999999GD30995+9999999GF108085999999999999999999MA1999999101865MW1455EQDN01 07000JPWTH 1QNNE11 1 00499E11 1 00699E11 1 00099G11 1 00040K11 1 00058L11 1 00250M11 1 30080N11 1 07000Q11 1 10233S11 1 00060V11 1 01010X11 1 11007
0362999999038401972011915005+30533-087200SAO  +0040NDP  V0201405N004650091449N003200599+01615+01505102485ADDGA1999+001524074GA2999+009144064GA3999+024384034GD12025+9999999GD23035+9999999GD34025+9999999GD40995+9999999GF108085999999999999999999MA1999999102005MW1455MW2805EQDN01 02370JPWTH 1QNNE11 1 00203E11 1 00404E11 1 00603E11 1 00099G11 1 00030H11 1 16005H11 1 15030H11 1 23080K11 1 00059L11 1 00200M11 1 30120N11 1 02370Q11 1 10248S11 1 00061V11 1 01010X11 1 14009
0275999999038401972011916005+30533-087200SAO  +0040NDP  V0201405N004650015249N003200599+01725+01565102485ADDGD13995+9999999GD24995+9999999GD30995+9999999GD40995+9999999GF108085999999999999999999MA1999999102005MW1455EQDN01 07000JPWTH 1QNNE11 1 00499E11 1 00699E11 1 00099E11 1 00099G11 1 00005K11 1 00060L11 1 00200M11 1 30120N11 1 07000Q11 1 10248S11 1 00063V11 1 01010X11 1 14009
0275999999038401972011917005+30533-087200SAO  +0040NDP  V0201305N005250021349N004800599+01835+01615102435ADDGD13995+9999999GD23995+9999999GD34995+9999999GD40995+9999999GF108075999999999999999999MA1999999101965MW1445EQDN01 07200JPWTH 1QNNE11 1 00499E11 1 00499E11 1 00699E11 1 00099G11 1 00007K11 1 00061L11 1 00300M11 1 30110N11 1 07200Q11 1 10243S11 1 00065V11 1 01009X11 1 13010
0383999999038401972011918005+30533-087200SAO  +0040NDP  V0201505N005250018349N006400599+01835+01615102315ADDGA1999+001834074GA2999+009144064GA3999+030484034GA4999+999999999GD13055+9999999GD23025+9999999GD33015+9999999GD40005+9999999GF107065999999999999999999MA1999999101835MW1445EQDN01 07200JPWTH 1QNNE11 1 00406E11 1 00402E11 1 00401E11 1 00000G11 1 00006H11 1 16006H11 1 15030H11 1 23100H11 1 00999K11 1 00061L11 1 00400M11 1 30070N11 1 07200Q11 1 10231S11 1 00065V11 1 00908X11 1 15010
0275999999038401972011919005+30533-087200SAO  +0040NDP  V0201505N004650018349N006400599+01895+01615102245ADDGD14995+9999999GD20995+9999999GD30995+9999999GD40995+9999999GF108075999999999999999999MA1999999101765MW1445EQDN01 07200JPWTH 1QNNE11 1 00699E11 1 00099E11 1 00099E11 1 00099G11 1 00006K11 1 00061L11 1 00400M11 1 30050N11 1 07200Q11 1 10224S11 1 00066V11 1 01009X11 1 15009
0275999999038401972011920005+30533-087200SAO  +0040NDP  V0201705N005250018349N008000599+01895+01615102205ADDGD13995+9999999GD23995+9999999GD30995+9999999GD40995+9999999GF107065999999999999999999MA1999999101735MW1445EQDN01 07200JPWTH 1QNNE11 1 00499E11 1 00499E11 1 00099E11 1 00099G11 1 00006K11 1 00061L11 1 00500M11 1 30040N11 1 07200Q11 1 10220S11 1 00066V11 1 00908X11 1 17010
0383999999038401972011921005+30533-087200SAO  +0040NDP  V0201405N005250018349N008000599+01895+01615102205ADDGA1999+001834074GA2999+006104064GA3999+030484034GA4999+999999999GD13055+9999999GD23025+9999999GD34025+9999999GD40005+9999999GF108065999999999999999999MA1999999101735MW1445EQDN01 07200JPWTH 1QNNE11 1 00406E11 1 00402E11 1 00602E11 1 00000G11 1 00006H11 1 16006H11 1 15020H11 1 23100H11 1 00999K11 1 00061L11 1 00500M11 1 30040N11 1 07200Q11 1 10220S11 1 00066V11 1 01008X11 1 14010
0275999999038401972011922005+30533-087200SAO  +0040NDP  V0201505N005250018349N008000599+01895+01615102215ADDGD13995+9999999GD23995+9999999GD33995+9999999GD43995+9999999GF107055999999999999999999MA1999999101735MW1445EQDN01 07200JPWTH 1QNNE11 1 00499E11 1 00499E11 1 00499E11 1 00499G11 1 00006K11 1 00061L11 1 00500M11 1 30040N11 1 07200Q11 1 10221S11 1 00066V11 1 00906X11 1 15010
0275999999038401972011923005+30533-087200SAO  +0040NDP  V0201405N005250012249N008000599+01895+01615102215ADDGD13995+9999999GD24995+9999999GD30995+9999999GD40995+9999999GF108085999999999999999999MA1999999101735MW1445EQDN01 07200JPWTH 1QNNE11 1 00499E11 1 00699E11 1 00099E11 1 00099G11 1 00004K11 1 00061L11 1 00500M11 1 30040N11 1 07200Q11 1 10221S11 1 00066V11 1 01010X11 1 14010
0383999999038401972012000005+30533-087200SAO  +0040NDP  V0201405N006750012249N008000599+01895+01565102215ADDGA1999+001224074GA2999+003054074GA3999+999999999GA4999+999999999GD13055+9999999GD23025+9999999GD30005+9999999GD40005+9999999GF106065999999999999999999MA1999999101735MW1445EQDN01 07200JPWTH 1QNNE11 1 00406E11 1 00402E11 1 00000E11 1 00000G11 1 00004H11 1 16004H11 1 16010H11 1 00999H11 1 00999K11 1 00060L11 1 00500M11 1 30040N11 1 07200Q11 1 10221S11 1 00066V11 1 00807X11 1 14013
0275999999038401972012011005+30533-087200SAO  +0040NDP  V0201605N004150121949N009600599+01675+01445102045ADDGD12995+9999999GD24995+9999999GD30995+9999999GD40995+9999999GF108085999999999999999999MA1999999101565MW1615EQDN01 02000JPWTH 1QNNE11 1 00299E11 1 00699E11 1 00099E11 1 00099G11 1 00040K11 1 00058L11 1 00600M11 1 29990N11 1 02000Q11 1 10204S11 1 00062V11 1 01010X11 1 16008
0323999999038401972012012005+30533-087200SAO  +0040NDP  V0201505N004650121949N011200599+01675+01445102035ADDGA1999+006104064GA2999+012194064GD12015+9999999GD24075+9999999GD30995+9999999GD40995+9999999GF108085999999999999999999MA1999999101565EQDN01 00000JPWTH 1QNNE11 1 00201E11 1 00609E11 1 00099E11 1 00099G11 1 00040H11 1 15020H11 1 15040K11 1 00058L11 1 00700M11 1 29990N11 1 00000Q11 1 10203S11 1 00062V11 1 01010X11 1 15009
0275999999038401972012013005+30533-087200SAO  +0040NDP  V0201305N003150121949N006400599+01675+01445102035ADDGD12995+9999999GD24995+9999999GD30995+9999999GD40995+9999999GF108085999999999999999999MA1999999101565MW1445EQDN01 07200JPWTH 1QNNE11 1 00299E11 1 00699E11 1 00099E11 1 00099G11 1 00040K11 1 00058L11 1 00400M11 1 29990N11 1 07200Q11 1 10203S11 1 00062V11 1 01010X11 1 13006
0275999999038401972012014005+30533-087200SAO  +0040NDP  V0201205N002650304849N006400599+01675+01445102035ADDGD12995+9999999GD24995+9999999GD30995+9999999GD40995+9999999GF108085999999999999999999MA1999999101565MW1445EQDN01 07200JPWTH 1QNNE11 1 00299E11 1 00699E11 1 00099E11 1 00099G11 1 00100K11 1 00058L11 1 00400M11 1 29990N11 1 07200Q11 1 10203S11 1 00062V11 1 01010X11 1 12005
0335999999038401972012015005+30533-087200SAO  +0040NDP  V0201805N001050304849N006400599+01675+01445102055ADDGA1999+015244064GA2999+030484044GD12015+9999999GD24075+9999999GD30995+9999999GD40995+9999999GF108085999999999999999999MA1999999101595MW1445MW2615EQDN01 02072JPWTH 1QNNE11 1 00201E11 1 00609E11 1 00099E11 1 00099G11 1 00100H11 1 15050H11 1 21100K11 1 00058L11 1 00400M11 1 30000N11 1 02072Q11 1 10205S11 1 00062V11 1 01010X11 1 18002
0314999999038401972012016005+30533-087200SAO  +0040NDP  V0200105N005250061049N003200599+01725+01505102165ADDGD13995+9999999GD24995+9999999GD30995+9999999GD40995+9999999GF108085999999999999999999MA1999999101695MW1045MW2445MW3805EQDN01 02372JPWTH 1N02 08000JPWTH 1QNNE11 1 00499E11 1 00699E11 1 00099E11 1 00099G11 1 00020K11 1 00059L11 1 00200M11 1 30030N11 1 02372N11 1 08000Q11 1 10216S11 1 00063V11 1 01010X11 1 01010
0314999999038401972012017005+30533-087200SAO  +0040NDP  V0200305N004150021349N003200599+01725+01615102155ADDGD13995+9999999GD23995+9999999GD34995+9999999GD40995+9999999GF108085999999999999999999MA1999999101665MW1045MW2445MW3615EQDN01 02072JPWTH 1N02 08000JPWTH 1QNNE11 1 00499E11 1 00499E11 1 00699E11 1 00099G11 1 00007K11 1 00061L11 1 00200M11 1 30020N11 1 02072N11 1 08000Q11 1 10215S11 1 00063V11 1 01010X11 1 03008
0302999999038401972012018005+30533-087200SAO  +0040NDP  V0201005N003650009149N002400599+01725+01615101995ADDGA1999+000914074GD14085+9999999GD20995+9999999GD30995+9999999GD40995+9999999GF108085999999999999999999MA1999999101525MW1455EQDN01 07000JPWTH 1QNNE11 1 00610E11 1 00099E11 1 00099E11 1 00099G11 1 00003H11 1 16003K11 1 00061L11 1 00150M11 1 29980N11 1 07000Q11 1 10199S11 1 00063V11 1 01010X11 1 10007
