0275999999038151972010311005+30483-087350SAO  +0028NUN  V0200405N002150012249N008000599+01115+01065101365ADDGD13995+9999999GD20995+9999999GD30995+9999999GD40995+9999999GF105045999999999999999999MA1999999101025MW1455EQDN01 07000JPWTH 1QNNE11 1 00499E11 1 00099E11 1 00099E11 1 00099G11 1 00004K11 1 00051L11 1 00500M11 1 29830N11 1 07000Q11 1 10136S11 1 00052V11 1 00605X11 1 04004
0383999999038151972010312005+30483-087350SAO  +0028NUN  V0200505N002652200059N008000599+01175+01115101435ADDGA1999+001224074GA2999+076204004GA3999+999999999GA4999+999999999GD12015+9999999GD24075+9999993GD30005+9999999GD40005+9999999GF108025999999999999999999MA1999999101085MW1445EQDN01 07200JPWTH 1QNNE11 1 00201E11 1 00509E11 1 00000E11 1 00000G11U1 99999H11 1 16004H11 1 32250H11 1 00999H11 1 00999K11 1 00052L11 1 00500M11 1 29850N11 1 07200Q11 1 10143S11 1 00053V11 1 01003X11 1 05005
0275999999038151972010313005+30483-087350SAO  +0028NUN  V0200405N003152200059N009600599+01225+01115101495ADDGD12995+9999999GD24995+9999993GD30995+9999999GD40995+9999999GF108025999999999999999999MA1999999101195MW1445EQDN01 07200JPWTH 1QNNE11 1 00299E11 1 00599E11 1 00099E11 1 00099G11U1 99999K11 1 00052L11 1 00600M11 1 29880N11 1 07200Q11 1 10149S11 1 00054V11 1 01003X11 1 04006
0275999999038151972010314005+30483-087350SAO  +0028NUN  V0200405N002650030549N009600599+01285+01225101635ADDGD14995+9999999GD20995+9999999GD30995+9999999GD40995+9999999GF108085999999999999999999MA1999999101295MW1445EQDN01 07200JPWTH 1QNNE11 1 00699E11 1 00099E11 1 00099E11 1 00099G11 1 00010K11 1 00054L11 1 00600M11 1 29910N11 1 07200Q11 1 10163S11 1 00055V11 1 01010X11 1 04005
0383999999038151972010315005+30483-087350SAO  +0028NUN  V0200705N004650762049N009600599+01445+01335101695ADDGA1999+001524074GA2999+030484044GA3999+076204024GA4999+999999999GD12025+9999999GD22025+9999999GD34055+9999999GD40005+9999999GF108075999999999999999999MA1999999101355MW1445EQDN01 07200JPWTH 1QNNE11 1 00202E11 1 00202E11 1 00606E11 1 00000G11 1 00250H11 1 16005H11 1 21100H11 1 37250H11 1 00999K11 1 00056L11 1 00600M11 1 29930N11 1 07200Q11 1 10169S11 1 00058V11 1 01009X11 1 07009
0275999999038151972010316005+30483-087350SAO  +0028NUN  V0200505N003150012249N008000599+01615+01505101725ADDGD13995+9999999GD24995+9999999GD30995+9999999GD40995+9999999GF108075999999999999999999MA1999999101395MW1445EQDN01 07200JPWTH 1QNNE11 1 00499E11 1 00699E11 1 00099E11 1 00099G11 1 00004K11 1 00059L11 1 00500M11 1 29940N11 1 07200Q11 1 10172S11 1 00061V11 1 01009X11 1 05006
0275999999038151972010317005+30483-087350SAO  +0028NUN  V0200705N004150018349N009600599+01725+01565101725ADDGD13995+9999999GD24995+9999999GD30995+9999999GD40995+9999999GF108085999999999999999999MA1999999101395MW1455EQDN01 07000JPWTH 1QNNE11 1 00499E11 1 00699E11 1 00099E11 1 00099G11 1 00006K11 1 00060L11 1 00600M11 1 29940N11 1 07000Q11 1 10172S11 1 00063V11 1 01010X11 1 07008
0323999999038151972010318005+30483-087350SAO  +0028NUN  V0200905N004650015249N011200599+01835+01675101585ADDGA1999+001524074GA2999+076204024GD13065+9999999GD24025+9999999GD30995+9999999GD40995+9999999GF108085999999999999999999MA1999999101255EQDN01 00000JPWTH 1QNNE11 1 00408E11 1 00602E11 1 00099E11 1 00099G11 1 00005H11 1 16005H11 1 37250K11 1 00062L11 1 00700M11 1 29900N11 1 00000Q11 1 10158S11 1 00065V11 1 01010X11 1 09009
0269999999038151972010319005+30483-087350SAO  +0028NUN  V0201005N004650018349N011200599+01945+01725101485ADDGD13995+9999999GD24995+9999999GD30995+9999999GD40995+9999999GF108085999999999999999999MA1999999101195EQDN01 00000JPWTH 1QNNE11 1 00499E11 1 00699E11 1 00099E11 1 00099G11 1 00006K11 1 00063L11 1 00700M11 1 29880N11 1 00000Q11 1 10148S11 1 00067V11 1 01010X11 1 10009
0269999999038151972010320005+30483-087350SAO  +0028NUN  V0201005N005250018349N011200599+01945+01725101485ADDGD13995+9999999GD24995+9999999GD30995+9999999GD40995+9999999GF108085999999999999999999MA1999999101155EQDN01 00000JPWTH 1QNNE11 1 00499E11 1 00699E11 1 00099E11 1 00099G11 1 00006K11 1 00063L11 1 00700M11 1 29870N11 1 00000Q11 1 10148S11 1 00067V11 1 01010X11 1 10010
0329999999038151972010321005+30483-087350SAO  +0028NUN  V0201005N005250021349N009600599+02005+01785101445ADDGA1999+002134074GA2999+076204004GD13065+9999999GD24025+9999999GD30995+9999999GD40995+9999999GF108085999999999999999999MA1999999101125MW1055EQDN01 08100JPWTH 1QNNE11 1 00408E11 1 00602E11 1 00099E11 1 00099G11 1 00007H11 1 16007H11 1 32250K11 1 00064L11 1 00600M11 1 29860N11 1 08100Q11 1 10144S11 1 00068V11 1 01010X11 1 10010
0275999999038151972010322005+30483-087350SAO  +0028NUN  V0201105N005250045749N009600599+02065+01835101425ADDGD12995+9999999GD23995+9999999GD33995+9999999GD40995+9999999GF106065999999999999999999MA1999999101085MW1055EQDN01 08100JPWTH 1QNNE11 1 00299E11 1 00499E11 1 00499E11 1 00099G11 1 00015K11 1 00065L11 1 00600M11 1 29850N11 1 08100Q11 1 10142S11 1 00069V11 1 00808X11 1 11010
0275999999038151972010323005+30483-087350SAO  +0028NUN  V0201105N005250457249N009600599+02005+01785101345ADDGD12995+9999999GD23995+9999999GD34995+9999999GD40995+9999999GF108085999999999999999999MA1999999101025MW1055EQDN01 08100JPWTH 1QNNE11 1 00299E11 1 00499E11 1 00699E11 1 00099G11 1 00150K11 1 00064L11 1 00600M11 1 29830N11 1 08100Q11 1 10134S11 1 00068V11 1 01010X11 1 11010
0323999999038151972010400005+30483-087350SAO  +0028NUN  V0201205N006250018349N011200599+02065+02005101385ADDGA1999+001834074GA2999+076204004GD13065+9999999GD24025+9999999GD30995+9999999GD40995+9999999GF108085999999999999999999MA1999999101055EQDN01 00000JPWTH 1QNNE11 1 00407E11 1 00603E11 1 00099E11 1 00099G11 1 00006H11 1 16006H11 1 32250K11 1 00068L11 1 00700M11 1 29840N11 1 00000Q11 1 10138S11 1 00069V11 1 01010X11 1 12012
0269999999038151972010401005+30483-087350SAO  +0028NUN  V0201105N006250015249N011200599+02065+02005101385ADDGD14995+9999999GD20995+9999999GD30995+9999999GD40995+9999999GF108085999999999999999999MA1999999101055EQDN01 00000JPWTH 1QNNE11 1 00699E11 1 00099E11 1 00099E11 1 00099G11 1 00005K11 1 00068L11 1 00700M11 1 29840N11 1 00000Q11 1 10138S11 1 00069V11 1 01010X11 1 11012
0269999999038151972010402005+30483-087350SAO  +0028NUN  V0201105N007250015249N011200599+02115+02065101385ADDGD14995+9999999GD20995+9999999GD30995+9999999GD40995+9999999GF108085999999999999999999MA1999999101055EQDN01 00000JPWTH 1QNNE11 1 00699E11 1 00099E11 1 00099E11 1 00099G11 1 00005K11 1 00069L11 1 00700M11 1 29840N11 1 00000Q11 1 10138S11 1 00070V11 1 01010X11 1 11014
0296999999038151972010403005+30483-087350SAO  +0028NUN  V0201205N004650015249N011200599+02175+02065101485ADDGA1999+001524074GD14085+9999999GD20995+9999999GD30995+9999999GD40995+9999999GF108085999999999999999999MA1999999101155EQDN01 00000JPWTH 1QNNE11 1 00610E11 1 00099E11 1 00099E11 1 00099G11 1 00005H11 1 16005K11 1 00069L11 1 00700M11 1 29870N11 1 00000Q11 1 10148S11 1 00071V11 1 01010X11 1 12009
0269999999038151972010404005+30483-087350SAO  +0028NUN  V0201505N005250015249N011200599+02225+02115101485ADDGD13995+9999999GD24995+9999999GD30995+9999999GD40995+9999999GF108085999999999999999999MA1999999101155EQDN01 00000JPWTH 1QNNE11 1 00499E11 1 00699E11 1 00099E11 1 00099G11 1 00005K11 1 00070L11 1 00700M11 1 29870N11 1 00000Q11 1 10148S11 1 00072V11 1 01010X11 1 15010
0269999999038151972010411005+30483-087350SAO  +0028NUN  V0201705N003150012249N011200599+02285+02175101325ADDGD14995+9999999GD20995+9999999GD30995+9999999GD40995+9999999GF108085999999999999999999MA1999999100985EQDN01 00000JPWTH 1QNNE11 1 00699E11 1 00099E11 1 00099E11 1 00099G11 1 00004K11 1 00071L11 1 00700M11 1 29820N11 1 00000Q11 1 10132S11 1 00073V11 1 01010X11 1 17006
0323999999038151972010412005+30483-087350SAO  +0028NUN  V0201705N003150018349N011200599+02285+02225101325ADDGA1999+001834074GA2999+006104064GD13065+9999999GD24025+9999999GD30995+9999999GD40995+9999999GF108085999999999999999999MA1999999100985EQDN01 00000JPWTH 1QNNE11 1 00408E11 1 00602E11 1 00099E11 1 00099G11 1 00006H11 1 16006H11 1 15020K11 1 00072L11 1 00700M11 1 29820N11 1 00000Q11 1 10132S11 1 00073V11 1 01010X11 1 17006
0269999999038151972010413005+30483-087350SAO  +0028NUN  V0201805N003650018349N011200599+02285+02225101345ADDGD13995+9999999GD23995+9999999GD34995+9999999GD40995+9999999GF108075999999999999999999MA1999999101025EQDN01 00000JPWTH 1QNNE11 1 00499E11 1 00499E11 1 00699E11 1 00099G11 1 00006K11 1 00072L11 1 00700M11 1 29830N11 1 00000Q11 1 10134S11 1 00073V11 1 01009X11 1 18007
0275999999038151972010414005+30483-087350SAO  +0028NUN  V0201805N003650048849N009600599+02335+02285101425ADDGD12995+9999999GD23995+9999999GD33995+9999999GD44995+9999999GF108085999999999999999999MA1999999101085MW1455EQDN01 07000JPWTH 1QNNE11 1 00299E11 1 00499E11 1 00499E11 1 00699G11 1 00016K11 1 00073L11 1 00600M11 1 29850N11 1 07000Q11 1 10142S11 1 00074V11 1 01010X11 1 18007
0350999999038151972010415005+30483-087350SAO  +0028NUN  V0201805N004150021349N011200599+02335+02285101425ADDGA1999+002134074GA2999+004884064GA3999+030484034GD13065+9999999GD23025+9999999GD34015+9999999GD40995+9999999GF108085999999999999999999MA1999999101085EQDN01 00000JPWTH 1QNNE11 1 00407E11 1 00402E11 1 00601E11 1 00099G11 1 00007H11 1 16007H11 1 15016H11 1 23100K11 1 00073L11 1 00700M11 1 29850N11 1 00000Q11 1 10142S11 1 00074V11 1 01010X11 1 18008
0269999999038151972010416005+30483-087350SAO  +0028NUN  V0201805N005250021349N011200599+02445+02225101445ADDGD13995+9999999GD23995+9999999GD33995+9999999GD40995+9999999GF107075999999999999999999MA1999999101125EQDN01 00000JPWTH 1QNNE11 1 00499E11 1 00499E11 1 00499E11 1 00099G11 1 00007K11 1 00072L11 1 00700M11 1 29860N11 1 00000Q11 1 10144S11 1 00076V11 1 00909X11 1 18010
0269999999038151972010417005+30483-087350SAO  +0028NUN  V0201905N005750027449N011200599+02505+02335101445ADDGD13995+9999999GD24995+9999999GD30995+9999999GD40995+9999999GF108085999999999999999999MA1999999101125EQDN01 00000JPWTH 1QNNE11 1 00499E11 1 00699E11 1 00099E11 1 00099G11 1 00009K11 1 00074L11 1 00700M11 1 29860N11 1 00000Q11 1 10144S11 1 00077V11 1 01010X11 1 19011
0377999999038151972010418005+30483-087350SAO  +0028NUN  V0201905N006750039649N011200599+02565+02225101325ADDGA1999+003964064GA2999+007624064GA3999+999999999GA4999+999999999GD13065+9999999GD24025+9999999GD30005+9999999GD40005+9999999GF108075999999999999999999MA1999999100985EQDN01 00000JPWTH 1QNNE11 1 00408E11 1 00602E11 1 00000E11 1 00000G11 1 00013H11 1 15013H11 1 15025H11 1 00999H11 1 00999K11 1 00072L11 1 00700M11 1 29820N11 1 00000Q11 1 10132S11 1 00078V11 1 01009X11 1 19013
0269999999038151972010419005+30483-087350SAO  +0028NUN  V0202005N006750033549N011200599+02505+02225101215ADDGD12995+9999999GD23995+9999999GD34995+9999999GD40995+9999999GF108085999999999999999999MA1999999100885EQDN01 00000JPWTH 1QNNE11 1 00299E11 1 00499E11 1 00699E11 1 00099G11 1 00011K11 1 00072L11 1 00700M11 1 29790N11 1 00000Q11 1 10121S11 1 00077V11 1 01010X11 1 20013
0269999999038151972010420005+30483-087350SAO  +0028NUN  V0201905N006750054949N011200599+02505+02225101185ADDGD12995+9999999GD22995+9999999GD33995+9999999GD43995+9999999GF107075999999999999999999MA1999999100855EQDN01 00000JPWTH 1QNNE11 1 00299E11 1 00299E11 1 00499E11 1 00499G11 1 00018K11 1 00072L11 1 00700M11 1 29780N11 1 00000Q11 1 10118S11 1 00077V11 1 00909X11 1 19013
0377999999038151972010421005+30483-087350SAO  +0028NUN  V0201905N006250091449N011200599+02505+02225101215ADDGA1999+003054064GA2999+009144064GA3999+076204004GA4999+999999999GD12035+9999999GD23035+9999999GD33015+9999999GD40005+9999999GF107075999999999999999999MA1999999100885EQDN01 00000JPWTH 1QNNE11 1 00204E11 1 00404E11 1 00401E11 1 00000G11 1 00030H11 1 15010H11 1 15030H11 1 32250H11 1 00999K11 1 00072L11 1 00700M11 1 29790N11 1 00000Q11 1 10121S11 1 00077V11 1 00909X11 1 19012
0269999999038151972010422005+30483-087350SAO  +0028NUN  V0202105N005250033549N011200599+02395+02225101185ADDGD13995+9999999GD23995+9999999GD34995+9999999GD40995+9999999GF108085999999999999999999MA1999999100885EQDN01 00000JPWTH 1QNNE11 1 00499E11 1 00499E11 1 00699E11 1 00099G11 1 00011K11 1 00072L11 1 00700M11 1 29790N11 1 00000Q11 1 10118S11 1 00075V11 1 01010X11 1 21010
0269999999038151972010423005+30483-087350SAO  +0028NUN  V0202005N005250030549N011200599+02395+02225101185ADDGD13995+9999999GD24995+9999999GD30995+9999999GD40995+9999999GF108085999999999999999999MA1999999100885EQDN01 00000JPWTH 1QNNE11 1 00499E11 1 00699E11 1 00099E11 1 00099G11 1 00010K11 1 00072L11 1 00700M11 1 29790N11 1 00000Q11 1 10118S11 1 00075V11 1 01010X11 1 20010
0323999999038151972010500005+30483-087350SAO  +0028NUN  V0202005N004150021349N011200599+02335+02225101145ADDGA1999+002134064GA2999+076204004GD13065+9999999GD24025+9999999GD30995+9999999GD40995+9999999GF108085999999999999999999MA1999999100815EQDN01 00000JPWTH 1QNNE11 1 00408E11 1 00602E11 1 00099E11 1 00099G11 1 00007H11 1 15007H11 1 32250K11 1 00072L11 1 00700M11 1 29770N11 1 00000Q11 1 10114S11 1 00074V11 1 01010X11 1 20008
0269999999038151972010501005+30483-087350SAO  +0028NUN  V0202105N003150121949N016000599+02335+02225101185ADDGD12995+9999999GD23995+9999999GD34995+9999999GD40995+9999999GF108085999999999999999999MA1999999100855EQDN01 00000JPWTH 1QNNE11 1 00299E11 1 00499E11 1 00699E11 1 00099G11 1 00040K11 1 00072L11 1 01000M11 1 29780N11 1 00000Q11 1 10118S11 1 00074V11 1 01010X11 1 21006
0269999999038151972010502005+30483-087350SAO  +0028NUN  V0202105N002150762049N016000599+02225+02175101215ADDGD12995+9999999GD23995+9999999GD30995+9999999GD40995+9999999GF106065999999999999999999MA1999999100885EQDN01 00000JPWTH 1QNNE11 1 00299E11 1 00499E11 1 00099E11 1 00099G11 1 00250K11 1 00071L11 1 01000M11 1 29790N11 1 00000Q11 1 10121S11 1 00072V11 1 00707X11 1 21004
0350999999038151972010503005+30483-087350SAO  +0028NUN  V0202005N002150070149N011200599+02225+02175101255ADDGA1999+003054064GA2999+007014064GA3999+076204004GD12025+9999999GD23045+9999999GD34025+9999999GD40995+9999999GF108085999999999999999999MA1999999100915EQDN01 00000JPWTH 1QNNE11 1 00202E11 1 00405E11 1 00603E11 1 00099G11 1 00023H11 1 15010H11 1 15023H11 1 32250K11 1 00071L11 1 00700M11 1 29800N11 1 00000Q11 1 10125S11 1 00072V11 1 01010X11 1 20004
0269999999038151972010504005+30483-087350SAO  +0028NUN  V0201805N003150076249N011200599+02175+02115101215ADDGD12995+9999999GD23995+9999999GD34995+9999999GD40995+9999999GF108085999999999999999999MA1999999100885EQDN01 00000JPWTH 1QNNE11 1 00299E11 1 00499E11 1 00699E11 1 00099G11 1 00025K11 1 00070L11 1 00700M11 1 29790N11 1 00000Q11 1 10121S11 1 00071V11 1 01010X11 1 18006
0269999999038151972010511005+30483-087350SAO  +0028NUN  V0203305N006250064049N011200599+01005+00785101635ADDGD12995+9999999GD24995+9999999GD30995+9999999GD40995+9999999GF108085999999999999999999MA1999999101295EQDN01 00000JPWTH 1QNNE11 1 00299E11 1 00699E11 1 00099E11 1 00099G11 1 00021K11 1 00046L11 1 00700M11 1 29910N11 1 00000Q11 1 10163S11 1 00050V11 1 01010X11 1 33012
0323999999038151972010512005+30483-087350SAO  +0028NUN  V0203405N006250085349N016000599+00835+00565101735ADDGA1999+003054074GA2999+008534064GD12035+9999999GD24055+9999999GD30995+9999999GD40995+9999999GF108085999999999999999999MA1999999101395EQDN01 00000JPWTH 1QNNE11 1 00204E11 1 00606E11 1 00099E11 1 00099G11 1 00028H11 1 16010H11 1 15028K11 1 00042L11 1 01000M11 1 29940N11 1 00000Q11 1 10173S11 1 00047V11 1 01010X11 1 34012
0269999999038151972010513005+30483-087350SAO  +0028NUN  V0203405N004150024449N016000599+00725+00565101835ADDGD13995+9999999GD23995+9999999GD30995+9999999GD40995+9999999GF107075999999999999999999MA1999999101525EQDN01 00000JPWTH 1QNNE11 1 00499E11 1 00499E11 1 00099E11 1 00099G11 1 00008K11 1 00042L11 1 01000M11 1 29980N11 1 00000Q11 1 10183S11 1 00045V11 1 00909X11 1 34008
0269999999038151972010514005+30483-087350SAO  +0028NUN  V0203405N007750027449N016000599+00615+00395101975ADDGD13995+9999999GD24995+9999999GD30995+9999999GD40995+9999999GF108085999999999999999999MA1999999101635EQDN01 00000JPWTH 1QNNE11 1 00499E11 1 00699E11 1 00099E11 1 00099G11 1 00009K11 1 00039L11 1 01000M11 1 30010N11 1 00000Q11 1 10197S11 1 00043V11 1 01010X11 1 34015
0296999999038151972010515005+30483-087350SAO  +0028NUN  V0203505N007750024449N019200599+00565+00285102045ADDGA1999+002444074GD14085+9999999GD20995+9999999GD30995+9999999GD40995+9999999GF108085999999999999999999MA1999999101695EQDN01 00000JPWTH 1QNNE11 1 00610E11 1 00099E11 1 00099E11 1 00099G11 1 00008H11 1 16008K11 1 00037L11 1 01200M11 1 30030N11 1 00000Q11 1 10204S11 1 00042V11 1 01010X11 1 35015
0269999999038151972010516005+30483-087350SAO  +0028NUN  V0203405N007750091449N019200599+00615+00115102085ADDGD12995+9999999GD23995+9999999GD34995+9999999GD40995+9999999GF108075999999999999999999MA1999999101765EQDN01 00000JPWTH 1QNNE11 1 00299E11 1 00499E11 1 00699E11 1 00099G11 1 00030K11 1 00034L11 1 01200M11 1 30050N11 1 00000Q11 1 10208S11 1 00043V11 1 01009X11 1 34015
0269999999038151972010517005+30483-087350SAO  +0028NUN  V0203605N007250091449N016000599+00615+00065102115ADDGD12995+9999999GD23995+9999999GD33995+9999999GD40995+9999999GF107075999999999999999999MA1999999101795EQDN01 00000JPWTH 1QNNE11 1 00299E11 1 00499E11 1 00499E11 1 00099G11 1 00030K11 1 00033L11 1 01000M11 1 30060N11 1 00000Q11 1 10211S11 1 00043V11 1 00909X11 1 36014
0377999999038151972010518005+30483-087350SAO  +0028NUN  V0203405N005250243849N016000599+00615+00065102085ADDGA1999+003964064GA2999+009144064GA3999+024384034GA4999+999999999GD12025+9999999GD22025+9999999GD34055+9999999GD40005+9999999GF108075999999999999999999MA1999999101735EQDN01 00000JPWTH 1QNNE11 1 00202E11 1 00202E11 1 00606E11 1 00000G11 1 00080H11 1 15013H11 1 15030H11 1 23080H11 1 00999K11 1 00033L11 1 01000M11 1 30040N11 1 00000Q11 1 10208S11 1 00043V11 1 01009X11 1 34010
0269999999038151972010519005+30483-087350SAO  +0028NUN  V0203605N007250243849N016000599+00675-00065101905ADDGD12995+9999999GD23995+9999999GD34995+9999999GD40995+9999999GF108065999999999999999999MA1999999101565EQDN01 00000JPWTH 1QNNE11 1 00299E11 1 00499E11 1 00699E11 1 00099G11 1 00080K11 1 00031L11 1 01000M11 1 29990N11 1 00000Q11 1 10190S11 1 00044V11 1 01008X11 1 36014
0269999999038151972010520005+30483-087350SAO  +0028NUN  V0203605N006752200059N016000599+00785-00065101945ADDGD12995+9999999GD24995+9999993GD30995+9999999GD40995+9999999GF108035999999999999999999MA1999999101595EQDN01 00000JPWTH 1QNNE11 1 00299E11 1 00599E11 1 00099E11 1 00099G11U1 99999K11 1 00031L11 1 01000M11 1 30000N11 1 00000Q11 1 10194S11 1 00046V11 1 01004X11 1 36013
0377999999038151972010521005+30483-087350SAO  +0028NUN  V0203505N006250762049N016000599+00675-00115101975ADDGA1999+009144064GA2999+076204004GA3999+999999999GA4999+999999999GD12025+9999999GD23055+9999999GD30005+9999999GD40005+9999999GF106065999999999999999999MA1999999101665EQDN01 00000JPWTH 1QNNE11 1 00202E11 1 00406E11 1 00000E11 1 00000G11 1 00250H11 1 15030H11 1 32250H11 1 00999H11 1 00999K11 1 00030L11 1 01000M11 1 30020N11 1 00000Q11 1 10197S11 1 00044V11 1 00808X11 1 35012
0269999999038151972010522005+30483-087350SAO  +0028NUN  V0203505N006250762049N016000599+00445+00395102045ADDGD12995+9999999GD23995+9999999GD30995+9999999GD40995+9999999GF106065999999999999999999MA1999999101695EQDN01 00000JPWTH 1QNNE11 1 00299E11 1 00499E11 1 00099E11 1 00099G11 1 00250K11 1 00039L11 1 01000M11 1 30030N11 1 00000Q11 1 10204S11 1 00040V11 1 00808X11 1 35012
0269999999038151972010523005+30483-087350SAO  +0028NUN  V0203405N005250762049N016000599+00445-00225102085ADDGD12995+9999999GD23995+9999999GD30995+9999999GD40995+9999999GF106065999999999999999999MA1999999101735EQDN01 00000JPWTH 1QNNE11 1 00299E11 1 00499E11 1 00099E11 1 00099G11 1 00250K11 1 00028L11 1 01000M11 1 30040N11 1 00000Q11 1 10208S11 1 00040V11 1 00808X11 1 34010
0377999999038151972010600005+30483-087350SAO  +0028NUN  V0203605N005250762049N016000599+00285-00285102115ADDGA1999+005184064GA2999+076204004GA3999+999999999GA4999+999999999GD12025+9999999GD23045+9999999GD30005+9999999GD40005+9999999GF106065999999999999999999MA1999999101765EQDN01 00000JPWTH 1QNNE11 1 00203E11 1 00405E11 1 00000E11 1 00000G11 1 00250H11 1 15017H11 1 32250H11 1 00999H11 1 00999K11 1 00027L11 1 01000M11 1 30050N11 1 00000Q11 1 10211S11 1 00037V11 1 00808X11 1 36010
0269999999038151972010601005+30483-087350SAO  +0028NUN  V0203505N005250051849N016000599+00225-00285102145ADDGD14995+9999999GD20995+9999999GD30995+9999999GD40995+9999999GF108085999999999999999999MA1999999101835EQDN01 00000JPWTH 1QNNE11 1 00699E11 1 00099E11 1 00099E11 1 00099G11 1 00017K11 1 00027L11 1 01000M11 1 30070N11 1 00000Q11 1 10214S11 1 00036V11 1 01010X11 1 35010
0269999999038151972010602005+30483-087350SAO  +0028NUN  V0203605N003152200059N016000599+00225-00335102205ADDGD12995+9999999GD20995+9999999GD30995+9999999GD40995+9999999GF103035999999999999999999MA1999999101865EQDN01 00000JPWTH 1QNNE11 1 00299E11 1 00099E11 1 00099E11 1 00099G11U1 99999K11 1 00026L11 1 01000M11 1 30080N11 1 00000Q11 1 10220S11 1 00036V11 1 00404X11 1 36006
0377999999038151972010603005+30483-087350SAO  +0028NUN  V0203505N003652200059N016000599+00175-00445102185ADDGA1999+005184064GA2999+999999999GA3999+999999999GA4999+999999999GD12035+9999999GD20005+9999999GD30005+9999999GD40005+9999999GF103035999999999999999999MA1999999101835EQDN01 00000JPWTH 1QNNE11 1 00204E11 1 00000E11 1 00000E11 1 00000G11U1 99999H11 1 15017H11 1 00999H11 1 00999H11 1 00999K11 1 00024L11 1 01000M11 1 30070N11 1 00000Q11 1 10218S11 1 00035V11 1 00404X11 1 35007
0269999999038151972010604005+30483-087350SAO  +0028NUN  V0203505N002152200059N016000599+00175-00285102185ADDGD12995+9999999GD20995+9999999GD30995+9999999GD40995+9999999GF103035999999999999999999MA1999999101835EQDN01 00000JPWTH 1QNNE11 1 00299E11 1 00099E11 1 00099E11 1 00099G11U1 99999K11 1 00027L11 1 01000M11 1 30070N11 1 00000Q11 1 10218S11 1 00035V11 1 00404X11 1 35004
0269999999038151972010611005+30483-087350SAO  +0028NUN  V0203405N002650243849N011200599+00065-00335102315ADDGD13995+9999999GD20995+9999999GD30995+9999999GD40995+9999999GF107075999999999999999999MA1999999101965EQDN01 00000JPWTH 1QNNE11 1 00499E11 1 00099E11 1 00099E11 1 00099G11 1 00080K11 1 00026L11 1 00700M11 1 30110N11 1 00000Q11 1 10231S11 1 00033V11 1 00909X11 1 34005
0377999999038151972010612005+30483-087350SAO  +0028NUN  V0203305N003150243849N016000599+00065-00335102355ADDGA1999+024384034GA2999+999999999GA3999+999999999GA4999+999999999GD14085+9999999GD20005+9999999GD30005+9999999GD40005+9999999GF108075999999999999999999MA1999999102005EQDN01 00000JPWTH 1QNNE11 1 00610E11 1 00000E11 1 00000E11 1 00000G11 1 00080H11 1 23080H11 1 00999H11 1 00999H11 1 00999K11 1 00026L11 1 01000M11 1 30120N11 1 00000Q11 1 10235S11 1 00033V11 1 01009X11 1 33006
0269999999038151972010613005+30483-087350SAO  +0028NUN  V0203305N003150036649N011200599+00065-00225102415ADDGD13995+9999999GD24995+9999999GD30995+9999999GD40995+9999999GF108085999999999999999999MA1999999102105EQDN01 00000JPWTH 1QNNE11 1 00499E11 1 00699E11 1 00099E11 1 00099G11 1 00012K11 1 00028L11 1 00700M11 1 30150N11 1 00000Q11 1 10241S11 1 00033V11 1 01010X11 1 33006
0269999999038151972010614005+30483-087350SAO  +0028NUN  V0203505N003150039649N011200599+00065-00335102485ADDGD13995+9999999GD24995+9999999GD30995+9999999GD40995+9999999GF108085999999999999999999MA1999999102135EQDN01 00000JPWTH 1QNNE11 1 00499E11 1 00699E11 1 00099E11 1 00099G11 1 00013K11 1 00026L11 1 00700M11 1 30160N11 1 00000Q11 1 10248S11 1 00033V11 1 01010X11 1 35006
0377999999038151972010615005+30483-087350SAO  +0028NUN  V0203305N003150304849N011200599+00115-00335102515ADDGA1999+030484034GA2999+999999999GA3999+999999999GA4999+999999999GD13055+9999999GD20005+9999999GD30005+9999999GD40005+9999999GF105055999999999999999999MA1999999102175EQDN01 00000JPWTH 1QNNE11 1 00406E11 1 00000E11 1 00000E11 1 00000G11 1 00100H11 1 23100H11 1 00999H11 1 00999H11 1 00999K11 1 00026L11 1 00700M11 1 30170N11 1 00000Q11 1 10251S11 1 00034V11 1 00606X11 1 33006
0269999999038151972010616005+30483-087350SAO  +0028NUN  V0203405N004152200059N016000599+00285-00335102515ADDGD12995+9999999GD23995+9999993GD30995+9999999GD40995+9999999GF105025999999999999999999MA1999999102205EQDN01 00000JPWTH 1QNNE11 1 00299E11 1 00399E11 1 00099E11 1 00099G11U1 99999K11 1 00026L11 1 01000M11 1 30180N11 1 00000Q11 1 10251S11 1 00037V11 1 00603X11 1 34008
0269999999038151972010617005+30483-087350SAO  +0028NUN  V0203005N002652200059N016000599+00445-00225102515ADDGD12995+9999999GD20995+9999999GD30995+9999999GD40995+9999999GF102025999999999999999999MA1999999102175EQDN01 00000JPWTH 1QNNE11 1 00299E11 1 00099E11 1 00099E11 1 00099G11U1 99999K11 1 00028L11 1 01000M11 1 30170N11 1 00000Q11 1 10251S11 1 00040V11 1 00303X11 1 30005
0165999999038151972010618005+30483-087350SAO  +0028NUN  V0203305N002652200059N016000599+00615-00225102315ADDGF100005999999999999999999MA1999999101965EQDN01 00000JPWTH 1QNNG11U1 99999K11 1 00028L11 1 01000M11 1 30110N11 1 00000Q11 1 10231S11 1 00043V11 1 00000X11 1 33005
0269999999038151972010619005+30483-087350SAO  +0028NUN  V0203305N003652200059N016000599+00835-00285102205ADDGD10995+9999999GD20995+9999999GD30995+9999999GD40995+9999999GF100005999999999999999999MA1999999101865EQDN01 00000JPWTH 1QNNE11 1 00099E11 1 00099E11 1 00099E11 1 00099G11U1 99999K11 1 00027L11 1 01000M11 1 30080N11 1 00000Q11 1 10220S11 1 00047V11 1 00000X11 1 33007
0269999999038151972010620005+30483-087350SAO  +0028NUN  V0203105N003152200059N016000599+00945-00505102145ADDGD10995+9999999GD20995+9999999GD30995+9999999GD40995+9999999GF100005999999999999999999MA1999999101795EQDN01 00000JPWTH 1QNNE11 1 00099E11 1 00099E11 1 00099E11 1 00099G11U1 99999K11 1 00023L11 1 01000M11 1 30060N11 1 00000Q11 1 10214S11 1 00049V11 1 00000X11 1 31006
0165999999038151972010621005+30483-087350SAO  +0028NUN  V0203405N004152200059N016000599+01005-00505102145ADDGF100005999999999999999999MA1999999101795EQDN01 00000JPWTH 1QNNG11U1 99999K11 1 00023L11 1 01000M11 1 30060N11 1 00000Q11 1 10214S11 1 00050V11 1 00000X11 1 34008
0269999999038151972010622005+30483-087350SAO  +0028NUN  V0203305N004152200059N016000599+00895-00725102145ADDGD10995+9999999GD20995+9999999GD30995+9999999GD40995+9999999GF100005999999999999999999MA1999999101795EQDN01 00000JPWTH 1QNNE11 1 00099E11 1 00099E11 1 00099E11 1 00099G11U1 99999K11 1 00019L11 1 01000M11 1 30060N11 1 00000Q11 1 10214S11 1 00048V11 1 00000X11 1 33008
0269999999038151972010623005+30483-087350SAO  +0028NUN  V0200105N003152200059N016000599+00895-00445102205ADDGD10995+9999999GD20995+9999999GD30995+9999999GD40995+9999999GF100005999999999999999999MA1999999101865EQDN01 00000JPWTH 1QNNE11 1 00099E11 1 00099E11 1 00099E11 1 00099G11U1 99999K11 1 00024L11 1 01000M11 1 30080N11 1 00000Q11 1 10220S11 1 00048V11 1 00000X11 1 01006
0165999999038151972010700005+30483-087350SAO  +0028NUN  V0203505N002152200059N016000599+00725-00565102355ADDGF100005999999999999999999MA1999999102005EQDN01 00000JPWTH 1QNNG11U1 99999K11 1 00022L11 1 01000M11 1 30120N11 1 00000Q11 1 10235S11 1 00045V11 1 00000X11 1 35004
0269999999038151972010701005+30483-087350SAO  +0028NUN  V0203605N002152200059N016000599+00565-00445102445ADDGD10995+9999999GD20995+9999999GD30995+9999999GD40995+9999999GF100005999999999999999999MA1999999102105EQDN01 00000JPWTH 1QNNE11 1 00099E11 1 00099E11 1 00099E11 1 00099G11U1 99999K11 1 00024L11 1 01000M11 1 30150N11 1 00000Q11 1 10244S11 1 00042V11 1 00000X11 1 36004
0269999999038151972010702005+30483-087350SAO  +0028NUN  V0203605N002152200059N016000599+00445-00335102585ADDGD10995+9999999GD20995+9999999GD30995+9999999GD40995+9999999GF100005999999999999999999MA1999999102245EQDN01 00000JPWTH 1QNNE11 1 00099E11 1 00099E11 1 00099E11 1 00099G11U1 99999K11 1 00026L11 1 01000M11 1 30190N11 1 00000Q11 1 10258S11 1 00040V11 1 00000X11 1 36004
0165999999038151972010703005+30483-087350SAO  +0028NUN  V0200105N001052200059N016000599+00335-00335102585ADDGF100005999999999999999999MA1999999102245EQDN01 00000JPWTH 1QNNG11U1 99999K11 1 00026L11 1 01000M11 1 30190N11 1 00000Q11 1 10258S11 1 00038V11 1 00000X11 1 01002
0269999999038151972010704005+30483-087350SAO  +0028NUN  V0200105N002152200059N016000599+00225-00285102585ADDGD10995+9999999GD20995+9999999GD30995+9999999GD40995+9999999GF100005999999999999999999MA1999999102245EQDN01 00000JPWTH 1QNNE11 1 00099E11 1 00099E11 1 00099E11 1 00099G11U1 99999K11 1 00027L11 1 01000M11 1 30190N11 1 00000Q11 1 10258S11 1 00036V11 1 00000X11 1 01004
0269999999038151972010711005+30483-087350SAO  +0028NUN  V0200105N002152200059N016000599-00115-00445102805ADDGD10995+9999999GD20995+9999999GD30995+9999999GD40995+9999999GF100005999999999999999999MA1999999102445EQDN01 00000JPWTH 1QNNE11 1 00099E11 1 00099E11 1 00099E11 1 00099G11U1 99999K11 1 00024L11 1 01000M11 1 30250N11 1 00000Q11 1 10280S11 1 00030V11 1 00000X11 1 01004
0165999999038151972010712005+30483-087350SAO  +0028NUN  V0203605N002152200059N016000599-00115-00445102835ADDGF100005999999999999999999MA1999999102475EQDN01 00000JPWTH 1QNNG11U1 99999K11 1 00024L11 1 01000M11 1 30260N11 1 00000Q11 1 10283S11 1 00030V11 1 00000X11 1 36004
0269999999038151972010713005+30483-087350SAO  +0028NUN  V0200205N003152200059N011200599+00005-00445102865ADDGD10995+9999999GD20995+9999999GD30995+9999999GD40995+9999999GF100005999999999999999999MA1999999102515EQDN01 00000JPWTH 1QNNE11 1 00099E11 1 00099E11 1 00099E11 1 00099G11U1 99999K11 1 00024L11 1 00700M11 1 30270N11 1 00000Q11 1 10286S11 1 00032V11 1 00000X11 1 02006
0269999999038151972010714005+30483-087350SAO  +0028NUN  V0200105N005252200059N016000599+00225-00445102995ADDGD10995+9999999GD20995+9999999GD30995+9999999GD40995+9999999GF100005999999999999999999MA1999999102645EQDN01 00000JPWTH 1QNNE11 1 00099E11 1 00099E11 1 00099E11 1 00099G11U1 99999K11 1 00024L11 1 01000M11 1 30310N11 1 00000Q11 1 10299S11 1 00036V11 1 00000X11 1 01010
0165999999038151972010715005+30483-087350SAO  +0028NUN  V0200305N005752200059N016000599+00565-00505103035ADDGF100005999999999999999999MA1999999102715EQDN01 00000JPWTH 1QNNG11U1 99999K11 1 00023L11 1 01000M11 1 30330N11 1 00000Q11 1 10303S11 1 00042V11 1 00000X11 1 03011
0269999999038151972010716005+30483-087350SAO  +0028NUN  V0200105N007252200059N016000599+00785-00675103095ADDGD10995+9999999GD20995+9999999GD30995+9999999GD40995+9999999GF100005999999999999999999MA1999999102745EQDN01 00000JPWTH 1QNNE11 1 00099E11 1 00099E11 1 00099E11 1 00099G11U1 99999K11 1 00020L11 1 01000M11 1 30340N11 1 00000Q11 1 10309S11 1 00046V11 1 00000X11 1 01014
0269999999038151972010717005+30483-087350SAO  +0028NUN  V0200205N002152200059N016000599+01115-00675103035ADDGD10995+9999999GD20995+9999999GD30995+9999999GD40995+9999999GF100005999999999999999999MA1999999102715EQDN01 00000JPWTH 1QNNE11 1 00099E11 1 00099E11 1 00099E11 1 00099G11U1 99999K11 1 00020L11 1 01000M11 1 30330N11 1 00000Q11 1 10303S11 1 00052V11 1 00000X11 1 02004
0165999999038151972010718005+30483-087350SAO  +0028NUN  V0200305N005252200059N016000599+01285-00725102895ADDGF100005999999999999999999MA1999999102575EQDN01 00000JPWTH 1QNNG11U1 99999K11 1 00019L11 1 01000M11 1 30290N11 1 00000Q11 1 10289S11 1 00055V11 1 00000X11 1 03010
0269999999038151972010719005+30483-087350SAO  +0028NUN  V0200105N004652200059N016000599+01505-00725102775ADDGD10995+9999999GD20995+9999999GD30995+9999999GD40995+9999999GF100005999999999999999999MA1999999102475EQDN01 00000JPWTH 1QNNE11 1 00099E11 1 00099E11 1 00099E11 1 00099G11U1 99999K11 1 00019L11 1 01000M11 1 30260N11 1 00000Q11 1 10277S11 1 00059V11 1 00000X11 1 01009
0269999999038151972010720005+30483-087350SAO  +0028NUN  V0203605N005252200059N016000599+01615-00445102775ADDGD10995+9999999GD20995+9999999GD30995+9999999GD40995+9999999GF100005999999999999999999MA1999999102445EQDN01 00000JPWTH 1QNNE11 1 00099E11 1 00099E11 1 00099E11 1 00099G11U1 99999K11 1 00024L11 1 01000M11 1 30250N11 1 00000Q11 1 10277S11 1 00061V11 1 00000X11 1 36010
0165999999038151972010721005+30483-087350SAO  +0028NUN  V0200205N006252200059N024000599+01675-00395102745ADDGF100005999999999999999999MA1999999102405EQDN01 00000JPWTH 1QNNG11U1 99999K11 1 00025L11 1 01500M11 1 30240N11 1 00000Q11 1 10274S11 1 00062V11 1 00000X11 1 02012
0269999999038151972010722005+30483-087350SAO  +0028NUN  V0203605N004152200059N024000599+01675-00445102805ADDGD10995+9999999GD20995+9999999GD30995+9999999GD40995+9999999GF100005999999999999999999MA1999999102475EQDN01 00000JPWTH 1QNNE11 1 00099E11 1 00099E11 1 00099E11 1 00099G11U1 99999K11 1 00024L11 1 01500M11 1 30260N11 1 00000Q11 1 10280S11 1 00062V11 1 00000X11 1 36008
0269999999038151972010723005+30483-087350SAO  +0028NUN  V0203605N003152200059N024000599+01505-00395102805ADDGD10995+9999999GD20995+9999999GD30995+9999999GD40995+9999999GF100005999999999999999999MA1999999102475EQDN01 00000JPWTH 1QNNE11 1 00099E11 1 00099E11 1 00099E11 1 00099G11U1 99999K11 1 00025L11 1 01500M11 1 30260N11 1 00000Q11 1 10280S11 1 00059V11 1 00000X11 1 36006
0165999999038151972010800005+30483-087350SAO  +0028NUN  V0200105N001052200059N016000599+01175-00225102855ADDGF100005999999999999999999MA1999999102515EQDN01 00000JPWTH 1QNNG11U1 99999K11 1 00028L11 1 01000M11 1 30270N11 1 00000Q11 1 10285S11 1 00053V11 1 00000X11 1 01002
0269999999038151972010801005+30483-087350SAO  +0028NUN  V0200205N002152200059N016000599+01065-00175102925ADDGD10995+9999999GD20995+9999999GD30995+9999999GD40995+9999999GF100005999999999999999999MA1999999102575EQDN01 00000JPWTH 1QNNE11 1 00099E11 1 00099E11 1 00099E11 1 00099G11U1 99999K11 1 00029L11 1 01000M11 1 30290N11 1 00000Q11 1 10292S11 1 00051V11 1 00000X11 1 02004
0269999999038151972010802005+30483-087350SAO  +0028NUN  V0200205N002152200059N016000599+00785-00115102955ADDGD10995+9999999GD20995+9999999GD30995+9999999GD40995+9999999GF100005999999999999999999MA1999999102615EQDN01 00000JPWTH 1QNNE11 1 00099E11 1 00099E11 1 00099E11 1 00099G11U1 99999K11 1 00030L11 1 01000M11 1 30300N11 1 00000Q11 1 10295S11 1 00046V11 1 00000X11 1 02004
0165999999038151972010803005+30483-087350SAO  +0028NUN  V0200205N002152200059N016000599+00725-00115102955ADDGF100005999999999999999999MA1999999102615EQDN01 00000JPWTH 1QNNG11U1 99999K11 1 00030L11 1 01000M11 1 30300N11 1 00000Q11 1 10295S11 1 00045V11 1 00000X11 1 02004
0269999999038151972010804005+30483-087350SAO  +0028NUN  V0200205N002152200059N016000599+00725-00225102955ADDGD10995+9999999GD20995+9999999GD30995+9999999GD40995+9999999GF100005999999999999999999MA1999999102615EQDN01 00000JPWTH 1QNNE11 1 00099E11 1 00099E11 1 00099E11 1 00099G11U1 99999K11 1 00028L11 1 01000M11 1 30300N11 1 00000Q11 1 10295S11 1 00045V11 1 00000X11 1 02004
0165999999038151972010812005+30483-087350SAO  +0028NUN  V0200405N002152200059N011200599+00395-00175102755ADDGF100005999999999999999999MA1999999102405EQDN01 00000JPWTH 1QNNG11U1 99999K11 1 00029L11 1 00700M11 1 30240N11 1 00000Q11 1 10275S11 1 00039V11 1 00000X11 1 04004
0269999999038151972010813005+30483-087350SAO  +0028NUN  V0200305N001552200059N011200599+00505-00115102825ADDGD10995+9999999GD20995+9999999GD30995+9999999GD40995+9999999GF100005999999999999999999MA1999999102475EQDN01 00000JPWTH 1QNNE11 1 00099E11 1 00099E11 1 00099E11 1 00099G11U1 99999K11 1 00030L11 1 00700M11 1 30260N11 1 00000Q11 1 10282S11 1 00041V11 1 00000X11 1 03003
0269999999038151972010814005+30483-087350SAO  +0028NUN  V0200505N003152200059N016000599+00725-00065102855ADDGD10995+9999999GD20995+9999999GD30995+9999999GD40995+9999999GF100005999999999999999999MA1999999102515EQDN01 00000JPWTH 1QNNE11 1 00099E11 1 00099E11 1 00099E11 1 00099G11U1 99999K11 1 00031L11 1 01000M11 1 30270N11 1 00000Q11 1 10285S11 1 00045V11 1 00000X11 1 05006
0165999999038151972010815005+30483-087350SAO  +0028NUN  V0200905N007252200059N016000599+01115-00175102825ADDGF100005999999999999999999MA1999999102475EQDN01 00000JPWTH 1QNNG11U1 99999K11 1 00029L11 1 01000M11 1 30260N11 1 00000Q11 1 10282S11 1 00052V11 1 00000X11 1 09014
0269999999038151972010816005+30483-087350SAO  +0028NUN  V0200905N005252200059N016000599+01335-00175102825ADDGD10995+9999999GD20995+9999999GD30995+9999999GD40995+9999999GF100005999999999999999999MA1999999102475EQDN01 00000JPWTH 1QNNE11 1 00099E11 1 00099E11 1 00099E11 1 00099G11U1 99999K11 1 00029L11 1 01000M11 1 30260N11 1 00000Q11 1 10282S11 1 00056V11 1 00000X11 1 09010
0269999999038151972010817005+30483-087350SAO  +0028NUN  V0201205N005252200059N016000599+01505-00115102775ADDGD10995+9999999GD20995+9999999GD30995+9999999GD40995+9999999GF100005999999999999999999MA1999999102475EQDN01 00000JPWTH 1QNNE11 1 00099E11 1 00099E11 1 00099E11 1 00099G11U1 99999K11 1 00030L11 1 01000M11 1 30260N11 1 00000Q11 1 10277S11 1 00059V11 1 00000X11 1 12010
0165999999038151972010818005+30483-087350SAO  +0028NUN  V0201205N005252200059N016000599+01615+00225102645ADDGF100005999999999999999999MA1999999102305EQDN01 00000JPWTH 1QNNG11U1 99999K11 1 00036L11 1 01000M11 1 30210N11 1 00000Q11 1 10264S11 1 00061V11 1 00000X11 1 12010
0269999999038151972010819005+30483-087350SAO  +0028NUN  V0201405N006252200059N016000599+01725+00505102535ADDGD10995+9999999GD20995+9999999GD30995+9999999GD40995+9999999GF100005999999999999999999MA1999999102205EQDN01 00000JPWTH 1QNNE11 1 00099E11 1 00099E11 1 00099E11 1 00099G11U1 99999K11 1 00041L11 1 01000M11 1 30180N11 1 00000Q11 1 10253S11 1 00063V11 1 00000X11 1 14012
0269999999038151972010820005+30483-087350SAO  +0028NUN  V0201005N005252200059N016000599+01785+00615102435ADDGD10995+9999999GD20995+9999999GD30995+9999999GD40995+9999999GF100005999999999999999999MA1999999102105EQDN01 00000JPWTH 1QNNE11 1 00099E11 1 00099E11 1 00099E11 1 00099G11U1 99999K11 1 00043L11 1 01000M11 1 30150N11 1 00000Q11 1 10243S11 1 00064V11 1 00000X11 1 10010
0377999999038151972010821005+30483-087350SAO  +0028NUN  V0201105N004652200059N016000599+01835+00785102435ADDGA1999+091444004GA2999+999999999GA3999+999999999GA4999+999999999GD12025+9999999GD20005+9999999GD30005+9999999GD40005+9999999GF102025999999999999999999MA1999999102105EQDN01 00000JPWTH 1QNNE11 1 00203E11 1 00000E11 1 00000E11 1 00000G11U1 99999H11 1 32300H11 1 00999H11 1 00999H11 1 00999K11 1 00046L11 1 01000M11 1 30150N11 1 00000Q11 1 10243S11 1 00065V11 1 00302X11 1 11009
0269999999038151972010822005+30483-087350SAO  +0028NUN  V0201105N003152200059N016000599+01785+00945102435ADDGD12995+9999999GD20995+9999999GD30995+9999999GD40995+9999999GF103025999999999999999999MA1999999102105EQDN01 00000JPWTH 1QNNE11 1 00299E11 1 00099E11 1 00099E11 1 00099G11U1 99999K11 1 00049L11 1 01000M11 1 30150N11 1 00000Q11 1 10243S11 1 00064V11 1 00403X11 1 11006
0275999999038151972011011005+30483-087350SAO  +0028NUN  V0201905N004652200059N004800599+02175+02115101085ADDGD12995+9999999GD20995+9999999GD30995+9999999GD40995+9999999GF104025999999999999999999MA1999999100755MW1455EQDN01 07000JPWTH 1QNNE11 1 00299E11 1 00099E11 1 00099E11 1 00099G11U1 99999K11 1 00070L11 1 00300M11 1 29750N11 1 07000Q11 1 10108S11 1 00071V11 1 00503X11 1 19009
0383999999038151972011012005+30483-087350SAO  +0028NUN  V0201905N004650009149N004800599+02175+02115101085ADDGA1999+000914074GA2999+999999999GA3999+999999999GA4999+999999999GD13065+9999999GD20005+9999999GD30005+9999999GD40005+9999999GF106045999999999999999999MA1999999100755MW1455EQDN01 07000JPWTH 1QNNE11 1 00408E11 1 00000E11 1 00000E11 1 00000G11 1 00003H11 1 16003H11 1 00999H11 1 00999H11 1 00999K11 1 00070L11 1 00300M11 1 29750N11 1 07000Q11 1 10108S11 1 00071V11 1 00805X11 1 19009
0275999999038151972011013005+30483-087350SAO  +0028NUN  V0202105N004150003049N004800599+02175+02115101105ADDGD14995+9999999GD20995+9999999GD30995+9999999GD40995+9999999GF108085999999999999999999MA1999999100785MW1455EQDN01 07000JPWTH 1QNNE11 1 00699E11 1 00099E11 1 00099E11 1 00099G11 1 00001K11 1 00070L11 1 00300M11 1 29760N11 1 07000Q11 1 10110S11 1 00071V11 1 01010X11 1 21008
0275999999038151972011014005+30483-087350SAO  +0028NUN  V0202005N003150006149N008000599+02175+02115101255ADDGD13995+9999999GD20995+9999999GD30995+9999999GD40995+9999999GF106065999999999999999999MA1999999100915MW1455EQDN01 07000JPWTH 1QNNE11 1 00499E11 1 00099E11 1 00099E11 1 00099G11 1 00002K11 1 00070L11 1 00500M11 1 29800N11 1 07000Q11 1 10125S11 1 00071V11 1 00808X11 1 20006
0383999999038151972011015005+30483-087350SAO  +0028NUN  V0201905N002652200059N009600599+02335+02175101325ADDGA1999+000914074GA2999+001834084GA3999+076204004GA4999+999999999GD11025+9999993GD22025+9999999GD33025+9999993GD40005+9999999GF106025999999999999999999MA1999999100985MW1455EQDN01 07000JPWTH 1QNNE11 1 00102E11 1 00203E11 1 00302E11 1 00000G11U1 99999H11 1 16003H11 1 11006H11 1 32250H11 1 00999K11 1 00071L11 1 00600M11 1 29820N11 1 07000Q11 1 10132S11 1 00074V11 1 00703X11 1 19005
0269999999038151972011016005+30483-087350SAO  +0028NUN  V0202205N005252200059N011200599+02335+02115101345ADDGD12995+9999999GD24995+9999993GD30995+9999999GD40995+9999999GF108035999999999999999999MA1999999101025EQDN01 00000JPWTH 1QNNE11 1 00299E11 1 00599E11 1 00099E11 1 00099G11U1 99999K11 1 00070L11 1 00700M11 1 29830N11 1 00000Q11 1 10134S11 1 00074V11 1 01004X11 1 22010
0269999999038151972011017005+30483-087350SAO  +0028NUN  V0202205N004152200059N011200599+02445+02225101325ADDGD12995+9999999GD22995+9999999GD34995+9999993GD40995+9999999GF108035999999999999999999MA1999999100985EQDN01 00000JPWTH 1QNNE11 1 00299E11 1 00299E11 1 00599E11 1 00099G11U1 99999K11 1 00072L11 1 00700M11 1 29820N11 1 00000Q11 1 10132S11 1 00076V11 1 01004X11 1 22008
0377999999038151972011018005+30483-087350SAO  +0028NUN  V0202205N005250762049N016000599+02445+02115101255ADDGA1999+005184084GA2999+076204004GA3999+999999999GA4999+999999999GD12025+9999999GD24065+9999999GD30005+9999999GD40005+9999999GF108065999999999999999999MA1999999100915EQDN01 00000JPWTH 1QNNE11 1 00203E11 1 00607E11 1 00000E11 1 00000G11 1 00250H11 1 11017H11 1 32250H11 1 00999H11 1 00999K11 1 00070L11 1 01000M11 1 29800N11 1 00000Q11 1 10125S11 1 00076V11 1 01007X11 1 22010
0269999999038151972011019005+30483-087350SAO  +0028NUN  V0202205N006250762049N016000599+02445+02115101145ADDGD12995+9999999GD22995+9999999GD34995+9999999GD40995+9999999GF108065999999999999999999MA1999999100815EQDN01 00000JPWTH 1QNNE11 1 00299E11 1 00299E11 1 00699E11 1 00099G11 1 00250K11 1 00070L11 1 01000M11 1 29770N11 1 00000Q11 1 10114S11 1 00076V11 1 01008X11 1 22012
0269999999038151972011020005+30483-087350SAO  +0028NUN  V0202105N006250304849N016000599+02505+02175101085ADDGD12995+9999999GD23995+9999999GD34995+9999999GD40995+9999999GF108065999999999999999999MA1999999100785EQDN01 00000JPWTH 1QNNE11 1 00299E11 1 00499E11 1 00699E11 1 00099G11 1 00100K11 1 00071L11 1 01000M11 1 29760N11 1 00000Q11 1 10108S11 1 00077V11 1 01008X11 1 21012
0377999999038151972011021005+30483-087350SAO  +0028NUN  V0202105N004150762049N016000599+02505+02175101085ADDGA1999+004574084GA2999+076204004GA3999+999999999GA4999+999999999GD12045+9999999GD23035+9999999GD30005+9999999GD40005+9999999GF107075999999999999999999MA1999999100755EQDN01 00000JPWTH 1QNNE11 1 00205E11 1 00404E11 1 00000E11 1 00000G11 1 00250H11 1 11015H11 1 32250H11 1 00999H11 1 00999K11 1 00071L11 1 01000M11 1 29750N11 1 00000Q11 1 10108S11 1 00077V11 1 00909X11 1 21008
0269999999038151972011022005+30483-087350SAO  +0028NUN  V0202205N003650762049N011200599+02335+02115101085ADDGD12995+9999999GD23995+9999999GD30995+9999999GD40995+9999999GF107065999999999999999999MA1999999100785EQDN01 00000JPWTH 1QNNE11 1 00299E11 1 00499E11 1 00099E11 1 00099G11 1 00250K11 1 00070L11 1 00700M11 1 29760N11 1 00000Q11 1 10108S11 1 00074V11 1 00907X11 1 22007
0269999999038151972011023005+30483-087350SAO  +0028NUN  V0202105N003650762049N011200599+02225+02065101145ADDGD12995+9999999GD22995+9999999GD33995+9999999GD40995+9999999GF107075999999999999999999MA1999999100815EQDN01 00000JPWTH 1QNNE11 1 00299E11 1 00299E11 1 00499E11 1 00099G11 1 00250K11 1 00069L11 1 00700M11 1 29770N11 1 00000Q11 1 10114S11 1 00072V11 1 00909X11 1 21007
0383999999038151972011100005+30483-087350SAO  +0028NUN  V0202105N001550006149N009600599+02225+02065101145ADDGA1999+000614074GA2999+076204004GA3999+999999999GA4999+999999999GD13065+9999999GD23025+9999999GD30005+9999999GD40005+9999999GF107075999999999999999999MA1999999100815MW1055EQDN01 08100JPWTH 1QNNE11 1 00407E11 1 00402E11 1 00000E11 1 00000G11 1 00002H11 1 16002H11 1 32250H11 1 00999H11 1 00999K11 1 00069L11 1 00600M11 1 29770N11 1 08100Q11 1 10114S11 1 00072V11 1 00909X11 1 21003
0275999999038151972011101005+30483-087350SAO  +0028NUN  V0201805N003150003049N008000599+02175+02115101145ADDGD13995+9999999GD23995+9999999GD30995+9999999GD40995+9999999GF107075999999999999999999MA1999999100815MW1455EQDN01 07000JPWTH 1QNNE11 1 00499E11 1 00499E11 1 00099E11 1 00099G11 1 00001K11 1 00070L11 1 00500M11 1 29770N11 1 07000Q11 1 10114S11 1 00071V11 1 00909X11 1 18006
0275999999038151972011102005+30483-087350SAO  +0028NUN  V0201905N005250762049N008000599+02225+02115101185ADDGD12995+9999999GD24995+9999999GD30995+9999999GD40995+9999999GF108085999999999999999999MA1999999100855MW1455EQDN01 07000JPWTH 1QNNE11 1 00299E11 1 00699E11 1 00099E11 1 00099G11 1 00250K11 1 00070L11 1 00500M11 1 29780N11 1 07000Q11 1 10118S11 1 00072V11 1 01010X11 1 19010
0302999999038151972011103005+30483-087350SAO  +0028NUN  V0201805N003650015249N008000599+02225+02175101185ADDGA1999+001524064GD14085+9999999GD20995+9999999GD30995+9999999GD40995+9999999GF108085999999999999999999MA1999999100855MW1455EQDN01 07000JPWTH 1QNNE11 1 00610E11 1 00099E11 1 00099E11 1 00099G11 1 00005H11 1 15005K11 1 00071L11 1 00500M11 1 29780N11 1 07000Q11 1 10118S11 1 00072V11 1 01010X11 1 18007
0275999999038151972011104005+30483-087350SAO  +0028NUN  V0201905N003650015249N008000599+02225+02175101215ADDGD14995+9999999GD20995+9999999GD30995+9999999GD40995+9999999GF108085999999999999999999MA1999999100885MW1455EQDN01 07000JPWTH 1QNNE11 1 00699E11 1 00099E11 1 00099E11 1 00099G11 1 00005K11 1 00071L11 1 00500M11 1 29790N11 1 07000Q11 1 10121S11 1 00072V11 1 01010X11 1 19007
0275999999038151972011111005+30483-087350SAO  +0028NUN  V0202405N001050042749N011200599+01945+01945101255ADDGD12995+9999999GD24995+9999999GD30995+9999999GD40995+9999999GF108085999999999999999999MA1999999100955MW1805EQDN01 02300JPWTH 1QNNE11 1 00299E11 1 00699E11 1 00099E11 1 00099G11 1 00014K11 1 00067L11 1 00700M11 1 29810N11 1 02300Q11 1 10125S11 1 00067V11 1 01010X11 1 24002
0356999999038151972011112005+30483-087350SAO  +0028NUN  V0201805N002650045749N011200599+01945+01895101325ADDGA1999+002444074GA2999+004574064GA3999+010674064GD12025+9999999GD23045+9999999GD34025+9999999GD40995+9999999GF108085999999999999999999MA1999999100985MW1805EQDN01 02300JPWTH 1QNNE11 1 00202E11 1 00405E11 1 00603E11 1 00099G11 1 00015H11 1 16008H11 1 15015H11 1 15035K11 1 00066L11 1 00700M11 1 29820N11 1 02300Q11 1 10132S11 1 00067V11 1 01010X11 1 18005
0275999999038151972011113005+30483-087350SAO  +0028NUN  V0202305N001550091449N011200599+01945+01945101285ADDGD12995+9999999GD22995+9999999GD34995+9999999GD40995+9999999GF108085999999999999999999MA1999999100985MW1805EQDN01 02300JPWTH 1QNNE11 1 00299E11 1 00299E11 1 00699E11 1 00099G11 1 00030K11 1 00067L11 1 00700M11 1 29820N11 1 02300Q11 1 10128S11 1 00067V11 1 01010X11 1 23003
0269999999038151972011114005+30483-087350SAO  +0028NUN  V0202005N002150067149N011200599+01945+01945101385ADDGD11995+9999993GD22995+9999999GD33995+9999999GD44995+9999999GF108085999999999999999999MA1999999101055EQDN01 00000JPWTH 1QNNE11 1 00199E11 1 00299E11 1 00499E11 1 00699G11 1 00022K11 1 00067L11 1 00700M11 1 29840N11 1 00000Q11 1 10138S11 1 00067V11 1 01010X11 1 20004
0377999999038151972011115005+30483-087350SAO  +0028NUN  V0202105N002650045749N011200599+02005+01945101425ADDGA1999+001224074GA2999+002444064GA3999+004574064GA4999+076204024GD12025+9999999GD22025+9999999GD33035+9999999GD44025+9999999GF108075999999999999999999MA1999999101085EQDN01 00000JPWTH 1QNNE11 1 00202E11 1 00202E11 1 00404E11 1 00603G11 1 00015H11 1 16004H11 1 15008H11 1 15015H11 1 37250K11 1 00067L11 1 00700M11 1 29850N11 1 00000Q11 1 10142S11 1 00068V11 1 01009X11 1 21005
0269999999038151972011116005+30483-087350SAO  +0028NUN  V0202205N002650762049N011200599+02115+02115101485ADDGD12995+9999999GD24995+9999999GD30995+9999999GD40995+9999999GF108085999999999999999999MA1999999101155EQDN01 00000JPWTH 1QNNE11 1 00299E11 1 00699E11 1 00099E11 1 00099G11 1 00250K11 1 00070L11 1 00700M11 1 29870N11 1 00000Q11 1 10148S11 1 00070V11 1 01010X11 1 22005
0269999999038151972011117005+30483-087350SAO  +0028NUN  V0202405N003150024449N011200599+02175+02005101485ADDGD13995+9999999GD23995+9999999GD34995+9999999GD40995+9999999GF108085999999999999999999MA1999999101155EQDN01 00000JPWTH 1QNNE11 1 00499E11 1 00499E11 1 00699E11 1 00099G11 1 00008K11 1 00068L11 1 00700M11 1 29870N11 1 00000Q11 1 10148S11 1 00071V11 1 01010X11 1 24006
0377999999038151972011118005+30483-087350SAO  +0028NUN  V0202705N003150036649N011200599+02225+01895101445ADDGA1999+002444064GA2999+003664064GA3999+076204024GA4999+999999999GD12025+9999999GD23025+9999999GD34035+9999999GD40005+9999999GF108065999999999999999999MA1999999101125EQDN01 00000JPWTH 1QNNE11 1 00203E11 1 00403E11 1 00604E11 1 00000G11 1 00012H11 1 15008H11 1 15012H11 1 37250H11 1 00999K11 1 00066L11 1 00700M11 1 29860N11 1 00000Q11 1 10144S11 1 00072V11 1 01008X11 1 27006
0269999999038151972011119005+30483-087350SAO  +0028NUN  V0203005N003150762049N016000599+02335+01945101345ADDGD12995+9999999GD22995+9999999GD33995+9999999GD40995+9999999GF106055999999999999999999MA1999999101025EQDN01 00000JPWTH 1QNNE11 1 00299E11 1 00299E11 1 00499E11 1 00099G11 1 00250K11 1 00067L11 1 01000M11 1 29830N11 1 00000Q11 1 10134S11 1 00074V11 1 00806X11 1 30006
0269999999038151972011120005+30483-087350SAO  +0028NUN  V0202505N002150762049N016000599+02445+01785101325ADDGD12995+9999999GD22995+9999999GD33995+9999999GD40995+9999999GF106055999999999999999999MA1999999100985EQDN01 00000JPWTH 1QNNE11 1 00299E11 1 00299E11 1 00499E11 1 00099G11 1 00250K11 1 00064L11 1 01000M11 1 29820N11 1 00000Q11 1 10132S11 1 00076V11 1 00706X11 1 25004
0377999999038151972011121005+30483-087350SAO  +0028NUN  V0203205N005250914449N016000599+02395+01445101325ADDGA1999+004574064GA2999+091444004GA3999+999999999GA4999+999999999GD12035+9999999GD23045+9999999GD30005+9999999GD40005+9999999GF107075999999999999999999MA1999999100985EQDN01 00000JPWTH 1QNNE11 1 00204E11 1 00405E11 1 00000E11 1 00000G11 1 00300H11 1 15015H11 1 32300H11 1 00999H11 1 00999K11 1 00058L11 1 01000M11 1 29820N11 1 00000Q11 1 10132S11 1 00075V11 1 00909X11 1 32010
0269999999038151972011122005+30483-087350SAO  +0028NUN  V0203405N003150548649N016000599+02335+01565101345ADDGD12995+9999999GD23995+9999999GD33995+9999999GD40995+9999999GF107075999999999999999999MA1999999101025EQDN01 00000JPWTH 1QNNE11 1 00299E11 1 00499E11 1 00499E11 1 00099G11 1 00180K11 1 00060L11 1 01000M11 1 29830N11 1 00000Q11 1 10134S11 1 00074V11 1 00909X11 1 34006
0269999999038151972011123005+30483-087350SAO  +0028NUN  V0203505N001050457249N016000599+02225+01565101385ADDGD13995+9999999GD23995+9999999GD30995+9999999GD40995+9999999GF107075999999999999999999MA1999999101085EQDN01 00000JPWTH 1QNNE11 1 00499E11 1 00499E11 1 00099E11 1 00099G11 1 00150K11 1 00060L11 1 01000M11 1 29850N11 1 00000Q11 1 10138S11 1 00072V11 1 00909X11 1 35002
0377999999038151972011200005+30483-087350SAO  +0028NUN  V0203305N001550457249N016000599+02065+01565101485ADDGA1999+045724034GA2999+076204004GA3999+999999999GA4999+999999999GD13055+9999999GD23025+9999999GD30005+9999999GD40005+9999999GF107075999999999999999999MA1999999101155EQDN01 00000JPWTH 1QNNE11 1 00406E11 1 00403E11 1 00000E11 1 00000G11 1 00150H11 1 23150H11 1 32250H11 1 00999H11 1 00999K11 1 00060L11 1 01000M11 1 29870N11 1 00000Q11 1 10148S11 1 00069V11 1 00909X11 1 33003
0269999999038151972011201005+30483-087350SAO  +0028NUN  V0203505N001550457249N016000599+02005+01505101585ADDGD13995+9999999GD24995+9999999GD30995+9999999GD40995+9999999GF108085999999999999999999MA1999999101255EQDN01 00000JPWTH 1QNNE11 1 00499E11 1 00699E11 1 00099E11 1 00099G11 1 00150K11 1 00059L11 1 01000M11 1 29900N11 1 00000Q11 1 10158S11 1 00068V11 1 01010X11 1 35003
0269999999038151972011202005+30483-087350SAO  +0028NUN  V0203505N002150762049N016000599+01895+01445101625ADDGD12995+9999999GD24995+9999999GD30995+9999999GD40995+9999999GF108085999999999999999999MA1999999101295EQDN01 00000JPWTH 1QNNE11 1 00299E11 1 00699E11 1 00099E11 1 00099G11 1 00250K11 1 00058L11 1 01000M11 1 29910N11 1 00000Q11 1 10162S11 1 00066V11 1 01010X11 1 35004
0377999999038151972011203005+30483-087350SAO  +0028NUN  V0203405N002150762049N016000599+01835+01395101725ADDGA1999+076204004GA2999+999999999GA3999+999999999GA4999+999999999GD13065+9999999GD20005+9999999GD30005+9999999GD40005+9999999GF106065999999999999999999MA1999999101395EQDN01 00000JPWTH 1QNNE11 1 00407E11 1 00000E11 1 00000E11 1 00000G11 1 00250H11 1 32250H11 1 00999H11 1 00999H11 1 00999K11 1 00057L11 1 01000M11 1 29940N11 1 00000Q11 1 10172S11 1 00065V11 1 00707X11 1 34004
0269999999038151972011204005+30483-087350SAO  +0028NUN  V0203605N002150762049N016000599+01785+01335101655ADDGD13995+9999999GD20995+9999999GD30995+9999999GD40995+9999999GF106065999999999999999999MA1999999101325EQDN01 00000JPWTH 1QNNE11 1 00499E11 1 00099E11 1 00099E11 1 00099G11 1 00250K11 1 00056L11 1 01000M11 1 29920N11 1 00000Q11 1 10165S11 1 00064V11 1 00707X11 1 36004
0269999999038151972011211005+30483-087350SAO  +0028NUN  V0200505N001552200059N011200599+01225+01175101535ADDGD10995+9999999GD20995+9999999GD30995+9999999GD40995+9999999GF100005999999999999999999MA1999999101195EQDN01 00000JPWTH 1QNNE11 1 00099E11 1 00099E11 1 00099E11 1 00099G11U1 99999K11 1 00053L11 1 00700M11 1 29880N11 1 00000Q11 1 10153S11 1 00054V11 1 00000X11 1 05003
0165999999038151972011212005+30483-087350SAO  +0028NUN  V0200405N002652200059N011200599+01175+01065101535ADDGF100005999999999999999999MA1999999101195EQDN01 00000JPWTH 1QNNG11U1 99999K11 1 00051L11 1 00700M11 1 29880N11 1 00000Q11 1 10153S11 1 00053V11 1 00000X11 1 04005
0269999999038151972011213005+30483-087350SAO  +0028NUN  V0200305N002152200059N011200599+01335+01225101535ADDGD12995+9999999GD20995+9999999GD30995+9999999GD40995+9999999GF101015999999999999999999MA1999999101225EQDN01 00000JPWTH 1QNNE11 1 00299E11 1 00099E11 1 00099E11 1 00099G11U1 99999K11 1 00054L11 1 00700M11 1 29890N11 1 00000Q11 1 10153S11 1 00056V11 1 00101X11 1 03004
0269999999038151972011214005+30483-087350SAO  +0028NUN  V0200305N002152200059N016000599+01445+01445101565ADDGD12995+9999999GD21995+9999993GD30995+9999999GD40995+9999999GF102015999999999999999999MA1999999101225EQDN01 00000JPWTH 1QNNE11 1 00299E11 1 00199E11 1 00099E11 1 00099G11U1 99999K11 1 00058L11 1 01000M11 1 29890N11 1 00000Q11 1 10156S11 1 00058V11 1 00201X11 1 03004
0377999999038151972011215005+30483-087350SAO  +0028NUN  V0200405N002152200059N011200599+01895+01725101585ADDGA1999+003054074GA2999+076204004GA3999+999999999GA4999+999999999GD12025+9999999GD22015+9999999GD30005+9999999GD40005+9999999GF102025999999999999999999MA1999999101255EQDN01 00000JPWTH 1QNNE11 1 00202E11 1 00201E11 1 00000E11 1 00000G11U1 99999H11 1 16010H11 1 32250H11 1 00999H11 1 00999K11 1 00063L11 1 00700M11 1 29900N11 1 00000Q11 1 10158S11 1 00066V11 1 00302X11 1 04004
0275999999038151972011216005+30483-087350SAO  +0028NUN  V0201505N002150021349N008000599+02175+02005101625ADDGD13995+9999999GD23995+9999999GD30995+9999999GD40995+9999999GF106065999999999999999999MA1999999101295MW1455EQDN01 07000JPWTH 1QNNE11 1 00499E11 1 00499E11 1 00099E11 1 00099G11 1 00007K11 1 00068L11 1 00500M11 1 29910N11 1 07000Q11 1 10162S11 1 00071V11 1 00808X11 1 15004
0269999999038151972011217005+30483-087350SAO  +0028NUN  V0201905N003650045749N016000599+02225+02005101585ADDGD12995+9999999GD23995+9999999GD34995+9999999GD40995+9999999GF108085999999999999999999MA1999999101255EQDN01 00000JPWTH 1QNNE11 1 00299E11 1 00499E11 1 00699E11 1 00099G11 1 00015K11 1 00068L11 1 01000M11 1 29900N11 1 00000Q11 1 10158S11 1 00072V11 1 01010X11 1 19007
0377999999038151972011218005+30483-087350SAO  +0028NUN  V0201905N002650213449N011200599+02335+02005101445ADDGA1999+002744074GA2999+021344034GA3999+076204004GA4999+999999999GD12025+9999999GD23055+9999999GD34025+9999999GD40005+9999999GF108065999999999999999999MA1999999101125EQDN01 00000JPWTH 1QNNE11 1 00202E11 1 00406E11 1 00602E11 1 00000G11 1 00070H11 1 16009H11 1 23070H11 1 32250H11 1 00999K11 1 00068L11 1 00700M11 1 29860N11 1 00000Q11 1 10144S11 1 00074V11 1 01008X11 1 19005
0269999999038151972011219005+30483-087350SAO  +0028NUN  V0202105N003150213449N016000599+02505+01945101325ADDGD12995+9999999GD23995+9999999GD33995+9999999GD40995+9999999GF107075999999999999999999MA1999999100985EQDN01 00000JPWTH 1QNNE11 1 00299E11 1 00499E11 1 00499E11 1 00099G11 1 00070K11 1 00067L11 1 01000M11 1 29820N11 1 00000Q11 1 10132S11 1 00077V11 1 00909X11 1 21006
0269999999038151972011220005+30483-087350SAO  +0028NUN  V0201705N002150045749N016000599+02335+02005101285ADDGD12995+9999999GD23995+9999999GD34995+9999999GD40995+9999999GF108085999999999999999999MA1999999100955EQDN01 00000JPWTH 1QNNE11 1 00299E11 1 00499E11 1 00699E11 1 00099G11 1 00015K11 1 00068L11 1 01000M11 1 29810N11 1 00000Q11 1 10128S11 1 00074V11 1 01010X11 1 17004
0335999999038151972011221005+30483-087350SAO  +0028NUN  V0201505N002650045749N004000599+02115+02065101255ADDGA1999+004574074GA2999+009144064GD13065+9999999GD24025+9999999GD30995+9999999GD40995+9999999GF108085999999999999999999MA1999999100915MW1455MW2615EQDN01 02070JPWTH 1QNNE11 1 00407E11 1 00603E11 1 00099E11 1 00099G11 1 00015H11 1 16015H11 1 15030K11 1 00069L11 1 00250M11 1 29800N11 1 02070Q11 1 10125S11 1 00070V11 1 01010X11 1 15005
0275999999038151972011222005+30483-087350SAO  +0028NUN  V0201505N003150033549N011200599+02175+02115101185ADDGD13995+9999999GD23995+9999999GD34995+9999999GD40995+9999999GF108085999999999999999999MA1999999100855MW1615EQDN01 02000JPWTH 1QNNE11 1 00499E11 1 00499E11 1 00699E11 1 00099G11 1 00011K11 1 00070L11 1 00700M11 1 29780N11 1 02000Q11 1 10118S11 1 00071V11 1 01010X11 1 15006
0269999999038151972011223005+30483-087350SAO  +0028NUN  V0201605N003150762049N011200599+02225+02175101145ADDGD12995+9999999GD22995+9999999GD33995+9999999GD40995+9999999GF106065999999999999999999MA1999999100815EQDN01 00000JPWTH 1QNNE11 1 00299E11 1 00299E11 1 00499E11 1 00099G11 1 00250K11 1 00071L11 1 00700M11 1 29770N11 1 00000Q11 1 10114S11 1 00072V11 1 00808X11 1 16006
0377999999038151972011300005+30483-087350SAO  +0028NUN  V0201605N003650048849N011200599+02175+02115101185ADDGA1999+004884074GA2999+076204004GA3999+999999999GA4999+999999999GD13055+9999999GD23025+9999999GD30005+9999999GD40005+9999999GF106065999999999999999999MA1999999100855EQDN01 00000JPWTH 1QNNE11 1 00406E11 1 00402E11 1 00000E11 1 00000G11 1 00016H11 1 16016H11 1 32250H11 1 00999H11 1 00999K11 1 00070L11 1 00700M11 1 29780N11 1 00000Q11 1 10118S11 1 00071V11 1 00808X11 1 16007
0275999999038151972011301005+30483-087350SAO  +0028NUN  V0201605N003150045749N004800599+02225+02175101105ADDGD13995+9999999GD23995+9999999GD30995+9999999GD40995+9999999GF106065999999999999999999MA1999999100815MW1445EQDN01 07200JPWTH 1QNNE11 1 00499E11 1 00499E11 1 00099E11 1 00099G11 1 00015K11 1 00071L11 1 00300M11 1 29770N11 1 07200Q11 1 10110S11 1 00072V11 1 00808X11 1 16006
0281999999038151972011302005+30483-087350SAO  +0028NUN  V0202405N003150045749N008000599+02065+02065101145ADDGD12995+9999999GD23995+9999999GD33995+9999999GD40995+9999999GF107075999999999999999999MA1999999100815MW1805MW2955EQDN01 01023JPWTH 1QNNE11 1 00299E11 1 00499E11 1 00499E11 1 00099G11 1 00015K11 1 00069L11 1 00500M11 1 29770N11 1 01023Q11 1 10114S11 1 00069V11 1 00909X11 1 24006
0335999999038151972011303005+30483-087350SAO  +0028NUN  V0202105N004150015249N001600599+02225+02225101185ADDGA1999+001524064GA2999+012194094GD13065+9999999GD24025+9999999GD30995+9999999GD40995+9999999GF108085999999999999999999MA1999999100855MW1815MW2955EQDN01 01024JPWTH 1QNNE11 1 00407E11 1 00603E11 1 00099E11 1 00099G11 1 00005H11 1 15005H11 1 18040K11 1 00072L11 1 00100M11 1 29780N11 1 01024Q11 1 10118S11 1 00072V11 1 01010X11 1 21008
0275999999038151972011304005+30483-087350SAO  +0028NUN  V0202105N003650015249N004800599+02225+02225101145ADDGD13995+9999999GD24995+9999999GD30995+9999999GD40995+9999999GF108085999999999999999999MA1999999100815MW1805EQDN01 02300JPWTH 1QNNE11 1 00499E11 1 00699E11 1 00099E11 1 00099G11 1 00005K11 1 00072L11 1 00300M11 1 29770N11 1 02300Q11 1 10114S11 1 00072V11 1 01010X11 1 21007
0275999999038151972011311005+30483-087350SAO  +0028NUN  V0202005N004650015249N006400599+02285+02225101005ADDGD14995+9999999GD20995+9999999GD30995+9999999GD40995+9999999GF108085999999999999999999MA1999999100685MW1455EQDN01 07000JPWTH 1QNNE11 1 00699E11 1 00099E11 1 00099E11 1 00099G11 1 00005K11 1 00072L11 1 00400M11 1 29730N11 1 07000Q11 1 10100S11 1 00073V11 1 01010X11 1 20009
0302999999038151972011312005+30483-087350SAO  +0028NUN  V0201905N005250006149N006400599+02225+02225101005ADDGA1999+000614074GD14085+9999999GD20995+9999999GD30995+9999999GD40995+9999999GF108085999999999999999999MA1999999100685MW1455EQDN01 07000JPWTH 1QNNE11 1 00610E11 1 00099E11 1 00099E11 1 00099G11 1 00002H11 1 16002K11 1 00072L11 1 00400M11 1 29730N11 1 07000Q11 1 10100S11 1 00072V11 1 01010X11 1 19010
0275999999038151972011313005+30483-087350SAO  +0028NUN  V0201805N005250006149N006400599+02285+02285101005ADDGD13995+9999999GD23995+9999999GD34995+9999999GD40995+9999999GF108075999999999999999999MA1999999100685MW1455EQDN01 07000JPWTH 1QNNE11 1 00499E11 1 00499E11 1 00699E11 1 00099G11 1 00002K11 1 00073L11 1 00400M11 1 29730N11 1 07000Q11 1 10100S11 1 00073V11 1 01009X11 1 18010
0281999999038151972011314005+30483-087350SAO  +0028NUN  V0201805N004150009149N004800599+02335+02285101005ADDGD14995+9999999GD20995+9999999GD30995+9999999GD40995+9999999GF108085999999999999999999MA1999999100685MW1455MW2815EQDN01 02470JPWTH 1QNNE11 1 00699E11 1 00099E11 1 00099E11 1 00099G11 1 00003K11 1 00073L11 1 00300M11 1 29730N11 1 02470Q11 1 10100S11 1 00074V11 1 01010X11 1 18008
0383999999038151972011315005+30483-087350SAO  +0028NUN  V0201905N007250018349N009600599+02335+02285101045ADDGA1999+001834074GA2999+003354084GA3999+076204004GA4999+999999999GD13055+9999999GD23025+9999999GD34025+9999999GD40005+9999999GF108075999999999999999999MA1999999100755MW1455EQDN01 07000JPWTH 1QNNE11 1 00406E11 1 00402E11 1 00602E11 1 00000G11 1 00006H11 1 16006H11 1 11011H11 1 32250H11 1 00999K11 1 00073L11 1 00600M11 1 29750N11 1 07000Q11 1 10104S11 1 00074V11 1 01009X11 1 19014
0269999999038151972011316005+30483-087350SAO  +0028NUN  V0201905N006250021349N011200599+02445+02285101045ADDGD13995+9999999GD23995+9999999GD34995+9999999GD40995+9999999GF108085999999999999999999MA1999999100715EQDN01 00000JPWTH 1QNNE11 1 00499E11 1 00499E11 1 00699E11 1 00099G11 1 00007K11 1 00073L11 1 00700M11 1 29740N11 1 00000Q11 1 10104S11 1 00076V11 1 01010X11 1 19012
0269999999038151972011317005+30483-087350SAO  +0028NUN  V0202005N007250027449N011200599+02565+02285101005ADDGD13995+9999999GD24995+9999999GD30995+9999999GD40995+9999999GF108075999999999999999999MA1999999100685EQDN01 00000JPWTH 1QNNE11 1 00499E11 1 00699E11 1 00099E11 1 00099G11 1 00009K11 1 00073L11 1 00700M11 1 29730N11 1 00000Q11 1 10100S11 1 00078V11 1 01009X11 1 20014
0296999999038151972011318005+30483-087350SAO  +0028NUN  V0202105N008250027449N011200599+02505+02285100935ADDGA1999+002744154GD14085+9999999GD20995+9999999GD30995+9999999GD40995+9999999GF108085999999999999999999MA1999999100645EQDN01 00000JPWTH 1QNNE11 1 00610E11 1 00099E11 1 00099E11 1 00099G11 1 00009H11 1 17009K11 1 00073L11 1 00700M11 1 29720N11 1 00000Q11 1 10093S11 1 00077V11 1 01010X11 1 21016
0269999999038151972011319005+30483-087350SAO  +0028NUN  V0202205N007250024449N011200599+02445+02335100905ADDGD14995+9999999GD20995+9999999GD30995+9999999GD40995+9999999GF108085999999999999999999MA1999999100585EQDN01 00000JPWTH 1QNNE11 1 00699E11 1 00099E11 1 00099E11 1 00099G11 1 00008K11 1 00074L11 1 00700M11 1 29700N11 1 00000Q11 1 10090S11 1 00076V11 1 01010X11 1 22014
0269999999038151972011320005+30483-087350SAO  +0028NUN  V0202105N005250027449N011200599+02505+02285100875ADDGD14995+9999999GD20995+9999999GD30995+9999999GD40995+9999999GF108085999999999999999999MA1999999100545EQDN01 00000JPWTH 1QNNE11 1 00699E11 1 00099E11 1 00099E11 1 00099G11 1 00009K11 1 00073L11 1 00700M11 1 29690N11 1 00000Q11 1 10087S11 1 00077V11 1 01010X11 1 21010
0296999999038151972011321005+30483-087350SAO  +0028NUN  V0202105N006250027449N011200599+02505+02285100845ADDGA1999+002744154GD14085+9999999GD20995+9999999GD30995+9999999GD40995+9999999GF108085999999999999999999MA1999999100515EQDN01 00000JPWTH 1QNNE11 1 00610E11 1 00099E11 1 00099E11 1 00099G11 1 00009H11 1 17009K11 1 00073L11 1 00700M11 1 29680N11 1 00000Q11 1 10084S11 1 00077V11 1 01010X11 1 21012
0275999999038151972011322005+30483-087350SAO  +0028NUN  V0202105N005250024449N008000599+02445+02225100845ADDGD13995+9999999GD24995+9999999GD30995+9999999GD40995+9999999GF108085999999999999999999MA1999999100515MW1805EQDN01 02300JPWTH 1QNNE11 1 00499E11 1 00699E11 1 00099E11 1 00099G11 1 00008K11 1 00072L11 1 00500M11 1 29680N11 1 02300Q11 1 10084S11 1 00076V11 1 01010X11 1 21010
0269999999038151972011323005+30483-087350SAO  +0028NUN  V0202105N003650027449N011200599+02285+02225100905ADDGD13995+9999999GD24995+9999999GD30995+9999999GD40995+9999999GF108085999999999999999999MA1999999100585EQDN01 00000JPWTH 1QNNE11 1 00499E11 1 00699E11 1 00099E11 1 00099G11 1 00009K11 1 00072L11 1 00700M11 1 29700N11 1 00000Q11 1 10090S11 1 00073V11 1 01010X11 1 21007
0356999999038151972011400005+30483-087350SAO  +0028NUN  V0202705N005250762049N008000599+02115+01895100975ADDGA1999+002744154GA2999+009144094GA3999+076204004GD12025+9999999GD22025+9999999GD34045+9999999GD40995+9999999GF108085999999999999999999MA1999999100645MW1805EQDN01 02300JPWTH 1QNNE11 1 00203E11 1 00202E11 1 00605E11 1 00099G11 1 00250H11 1 17009H11 1 18030H11 1 32250K11 1 00066L11 1 00500M11 1 29720N11 1 02300Q11 1 10097S11 1 00070V11 1 01010X11 1 27010
0269999999038151972011401005+30483-087350SAO  +0028NUN  V0202005N003152200059N016000599+02175+02065101005ADDGD12995+9999999GD20995+9999999GD30995+9999999GD40995+9999999GF104045999999999999999999MA1999999100685EQDN01 00000JPWTH 1QNNE11 1 00299E11 1 00099E11 1 00099E11 1 00099G11U1 99999K11 1 00069L11 1 01000M11 1 29730N11 1 00000Q11 1 10100S11 1 00071V11 1 00505X11 1 20006
0285999999038151972011402005+30483-087350SAO  +0028NUN  V0202405N003650015249N011200599+02225+02115101045ADDGD14995+9999999GD20995+9999999GD30995+9999999GD40995+9999999GF199009999999999999999999MA1999999100715EQDN01 00000JPWTH 1P01    003SCOTCVQNNE11 1 00699E11 1 00099E11 1 00099E11 1 00099G11 1 00005K11 1 00070L11 1 00700M11 1 29740N11 1 00000Q11 1 10104S11 1 00072V11 1 00000X11 1 24007
0302999999038151972011403005+30483-087350SAO  +0028NUN  V0202305N004150015249N004800599+02225+02225101085ADDGA1999+001524074GD14085+9999999GD20995+9999999GD30995+9999999GD40995+9999999GF108085999999999999999999MA1999999100755MW1455EQDN01 07000JPWTH 1QNNE11 1 00610E11 1 00099E11 1 00099E11 1 00099G11 1 00005H11 1 16005K11 1 00072L11 1 00300M11 1 29750N11 1 07000Q11 1 10108S11 1 00072V11 1 01010X11 1 23008
0275999999038151972011404005+30483-087350SAO  +0028NUN  V0202205N003150015249N004800599+02225+02225101085ADDGD13995+9999999GD20995+9999999GD30995+9999999GD40995+9999999GF106065999999999999999999MA1999999100785MW1455EQDN01 07000JPWTH 1QNNE11 1 00499E11 1 00099E11 1 00099E11 1 00099G11 1 00005K11 1 00072L11 1 00300M11 1 29760N11 1 07000Q11 1 10108S11 1 00072V11 1 00808X11 1 22006
0269999999038151972011411005+30483-087350SAO  +0028NUN  V0200105N007250036649N011200599+01615+01225101385ADDGD14995+9999999GD20995+9999999GD30995+9999999GD40995+9999999GF108085999999999999999999MA1999999101055EQDN01 00000JPWTH 1QNNE11 1 00699E11 1 00099E11 1 00099E11 1 00099G11 1 00012K11 1 00054L11 1 00700M11 1 29840N11 1 00000Q11 1 10138S11 1 00061V11 1 01010X11 1 01014
0296999999038151972011412005+30483-087350SAO  +0028NUN  V0203505N006250137249N011200599+01565+01175101555ADDGA1999+013724064GD14085+9999999GD20995+9999999GD30995+9999999GD40995+9999999GF108085999999999999999999MA1999999101225EQDN01 00000JPWTH 1QNNE11 1 00610E11 1 00099E11 1 00099E11 1 00099G11 1 00045H11 1 15045K11 1 00053L11 1 00700M11 1 29890N11 1 00000Q11 1 10155S11 1 00060V11 1 01010X11 1 35012
0269999999038151972011413005+30483-087350SAO  +0028NUN  V0203605N006250137249N011200599+01285+00945101595ADDGD13995+9999999GD24995+9999999GD30995+9999999GD40995+9999999GF108075999999999999999999MA1999999101255EQDN01 00000JPWTH 1QNNE11 1 00499E11 1 00699E11 1 00099E11 1 00099G11 1 00045K11 1 00049L11 1 00700M11 1 29900N11 1 00000Q11 1 10159S11 1 00055V11 1 01009X11 1 36012
0269999999038151972011414005+30483-087350SAO  +0028NUN  V0203605N007250152449N011200599+01175+00785101695ADDGD13995+9999999GD24995+9999999GD30995+9999999GD40995+9999999GF108085999999999999999999MA1999999101355EQDN01 00000JPWTH 1QNNE11 1 00499E11 1 00699E11 1 00099E11 1 00099G11 1 00050K11 1 00046L11 1 00700M11 1 29930N11 1 00000Q11 1 10169S11 1 00053V11 1 01010X11 1 36014
0323999999038151972011415005+30483-087350SAO  +0028NUN  V0203605N006250243849N011200599+01005+00615101765ADDGA1999+015244064GA2999+024384044GD12045+9999999GD24045+9999999GD30995+9999999GD40995+9999999GF108085999999999999999999MA1999999101425EQDN01 00000JPWTH 1QNNE11 1 00205E11 1 00605E11 1 00099E11 1 00099G11 1 00080H11 1 15050H11 1 21080K11 1 00043L11 1 00700M11 1 29950N11 1 00000Q11 1 10176S11 1 00050V11 1 01010X11 1 36012
0275999999038151972011416005+30483-087350SAO  +0028NUN  V0203505N006250152449N009600599+01065+00615101945ADDGD12995+9999999GD23995+9999999GD34995+9999999GD40995+9999999GF108085999999999999999999MA1999999101595MW1045EQDN01 08000JPWTH 1QNNE11 1 00299E11 1 00499E11 1 00699E11 1 00099G11 1 00050K11 1 00043L11 1 00600M11 1 30000N11 1 08000Q11 1 10194S11 1 00051V11 1 01010X11 1 35012
0275999999038151972011417005+30483-087350SAO  +0028NUN  V0203605N009350137249N009600599+01065+00565101875ADDGD12995+9999999GD23995+9999999GD34995+9999999GD40995+9999999GF108085999999999999999999MA1999999101525MW1045EQDN01 08000JPWTH 1QNNE11 1 00299E11 1 00499E11 1 00699E11 1 00099G11 1 00045K11 1 00042L11 1 00600M11 1 29980N11 1 08000Q11 1 10187S11 1 00051V11 1 01010X11 1 36018
0329999999038151972011418005+30483-087350SAO  +0028NUN  V0203605N005250137249N008000599+01065+00445101905ADDGA1999+013724064GA2999+024384044GD13055+9999999GD24035+9999999GD30995+9999999GD40995+9999999GF108085999999999999999999MA1999999101565MW1045EQDN01 08000JPWTH 1QNNE11 1 00406E11 1 00604E11 1 00099E11 1 00099G11 1 00045H11 1 15045H11 1 21080K11 1 00040L11 1 00500M11 1 29990N11 1 08000Q11 1 10190S11 1 00051V11 1 01010X11 1 36010
0275999999038151972011419005+30483-087350SAO  +0028NUN  V0203405N008250137249N008000599+01115+00445101835ADDGD13995+9999999GD24995+9999999GD30995+9999999GD40995+9999999GF108085999999999999999999MA1999999101525MW1045EQDN01 08000JPWTH 1QNNE11 1 00499E11 1 00699E11 1 00099E11 1 00099G11 1 00045K11 1 00040L11 1 00500M11 1 29980N11 1 08000Q11 1 10183S11 1 00052V11 1 01010X11 1 34016
0275999999038151972011420005+30483-087350SAO  +0028NUN  V0200205N006250137249N008000599+01115+00445101835ADDGD13995+9999999GD24995+9999999GD30995+9999999GD40995+9999999GF108085999999999999999999MA1999999101525MW1045EQDN01 08000JPWTH 1QNNE11 1 00499E11 1 00699E11 1 00099E11 1 00099G11 1 00045K11 1 00040L11 1 00500M11 1 29980N11 1 08000Q11 1 10183S11 1 00052V11 1 01010X11 1 02012
0377999999038151972011421005+30483-087350SAO  +0028NUN  V0200105N008250213449N011200599+01225+00395101875ADDGA1999+021344034GA2999+076204004GA3999+999999999GA4999+999999999GD13055+9999999GD23025+9999999GD30005+9999999GD40005+9999999GF107075999999999999999999MA1999999101525EQDN01 00000JPWTH 1QNNE11 1 00406E11 1 00403E11 1 00000E11 1 00000G11 1 00070H11 1 23070H11 1 32250H11 1 00999H11 1 00999K11 1 00039L11 1 00700M11 1 29980N11 1 00000Q11 1 10187S11 1 00054V11 1 00909X11 1 01016
0269999999038151972011422005+30483-087350SAO  +0028NUN  V0200205N007250106749N011200599+01225+00285101905ADDGD13995+9999999GD23995+9999999GD30995+9999999GD40995+9999999GF106065999999999999999999MA1999999101565EQDN01 00000JPWTH 1QNNE11 1 00499E11 1 00499E11 1 00099E11 1 00099G11 1 00035K11 1 00037L11 1 00700M11 1 29990N11 1 00000Q11 1 10190S11 1 00054V11 1 00808X11 1 02014
0269999999038151972011423005+30483-087350SAO  +0028NUN  V0200205N006250762049N011200599+01175+00115101945ADDGD12995+9999999GD24995+9999999GD30995+9999999GD40995+9999999GF108085999999999999999999MA1999999101595EQDN01 00000JPWTH 1QNNE11 1 00299E11 1 00699E11 1 00099E11 1 00099G11 1 00250K11 1 00034L11 1 00700M11 1 30000N11 1 00000Q11 1 10194S11 1 00053V11 1 01010X11 1 02012
0377999999038151972011500005+30483-087350SAO  +0028NUN  V0200105N007250762049N011200599+01115+00005102045ADDGA1999+076204004GA2999+999999999GA3999+999999999GA4999+999999999GD13065+9999999GD20005+9999999GD30005+9999999GD40005+9999999GF106065999999999999999999MA1999999101695EQDN01 00000JPWTH 1QNNE11 1 00408E11 1 00000E11 1 00000E11 1 00000G11 1 00250H11 1 32250H11 1 00999H11 1 00999H11 1 00999K11 1 00032L11 1 00700M11 1 30030N11 1 00000Q11 1 10204S11 1 00052V11 1 00808X11 1 01014
0269999999038151972011501005+30483-087350SAO  +0028NUN  V0200105N007250762049N011200599+01065+00005102145ADDGD13995+9999999GD20995+9999999GD30995+9999999GD40995+9999999GF106065999999999999999999MA1999999101835EQDN01 00000JPWTH 1QNNE11 1 00499E11 1 00099E11 1 00099E11 1 00099G11 1 00250K11 1 00032L11 1 00700M11 1 30070N11 1 00000Q11 1 10214S11 1 00051V11 1 00808X11 1 01014
0269999999038151972011502005+30483-087350SAO  +0028NUN  V0200105N007250762049N011200599+01005+00005102205ADDGD13995+9999999GD20995+9999999GD30995+9999999GD40995+9999999GF106065999999999999999999MA1999999101865EQDN01 00000JPWTH 1QNNE11 1 00499E11 1 00099E11 1 00099E11 1 00099G11 1 00250K11 1 00032L11 1 00700M11 1 30080N11 1 00000Q11 1 10220S11 1 00050V11 1 00808X11 1 01014
0296999999038151972011503005+30483-087350SAO  +0028NUN  V0200105N007750762049N011200599+00945-00115102285ADDGA1999+076204004GD14085+9999999GD20995+9999999GD30995+9999999GD40995+9999999GF108085999999999999999999MA1999999101935EQDN01 00000JPWTH 1QNNE11 1 00610E11 1 00099E11 1 00099E11 1 00099G11 1 00250H11 1 32250K11 1 00030L11 1 00700M11 1 30100N11 1 00000Q11 1 10228S11 1 00049V11 1 01010X11 1 01015
0269999999038151972011504005+30483-087350SAO  +0028NUN  V0200105N007750762049N011200599+00895-00115102315ADDGD13995+9999999GD20995+9999999GD30995+9999999GD40995+9999999GF106065999999999999999999MA1999999101965EQDN01 00000JPWTH 1QNNE11 1 00499E11 1 00099E11 1 00099E11 1 00099G11 1 00250K11 1 00030L11 1 00700M11 1 30110N11 1 00000Q11 1 10231S11 1 00048V11 1 00707X11 1 01015
0377999999038151972011512005+30483-087350SAO  +0028NUN  V0203605N010350762049N011200599+00395-00565102715ADDGA1999+030484044GA2999+076204024GA3999+999999999GA4999+999999999GD12025+9999999GD24065+9999999GD30005+9999999GD40005+9999999GF108075999999999999999999MA1999999102375EQDN01 00000JPWTH 1QNNE11 1 00203E11 1 00607E11 1 00000E11 1 00000G11 1 00250H11 1 21100H11 1 37250H11 1 00999H11 1 00999K11 1 00022L11 1 00700M11 1 30230N11 1 00000Q11 1 10271S11 1 00039V11 1 01009X11 1 36020
0269999999038151972011513005+30483-087350SAO  +0028NUN  V0203605N012450304849N016000599+00335-00675102795ADDGD13995+9999999GD23995+9999999GD30995+9999999GD40995+9999999GF106065999999999999999999MA1999999102475EQDN01 00000JPWTH 1QNNE11 1 00499E11 1 00499E11 1 00099E11 1 00099G11 1 00100K11 1 00020L11 1 01000M11 1 30260N11 1 00000Q11 1 10279S11 1 00038V11 1 00808X11 1 36024
0269999999038151972011514005+30483-087350SAO  +0028NUN  V0203605N007750762049N016000599+00335-00725102855ADDGD12995+9999999GD23995+9999999GD30995+9999999GD40995+9999999GF106055999999999999999999MA1999999102545EQDN01 00000JPWTH 1QNNE11 1 00299E11 1 00499E11 1 00099E11 1 00099G11 1 00250K11 1 00019L11 1 01000M11 1 30280N11 1 00000Q11 1 10285S11 1 00038V11 1 00806X11 1 36015
0377999999038151972011515005+30483-087350SAO  +0028NUN  V0203605N011852200059N016000599+00395-00785102895ADDGA1999+030484034GA2999+076204004GA3999+999999999GA4999+999999999GD12025+9999999GD24065+9999993GD30005+9999999GD40005+9999999GF108045999999999999999999MA1999999102575EQDN01 00000JPWTH 1QNNE11 1 00202E11 1 00508E11 1 00000E11 1 00000G11U1 99999H11 1 23100H11 1 32250H11 1 00999H11 1 00999K11 1 00018L11 1 01000M11 1 30290N11 1 00000Q11 1 10289S11 1 00039V11 1 01005X11 1 36023
0269999999038151972011516005+30483-087350SAO  +0028NUN  V0203605N011852200059N016000599+00615-00835102955ADDGD13995+9999993GD20995+9999999GD30995+9999999GD40995+9999999GF106025999999999999999999MA1999999102615EQDN01 00000JPWTH 1QNNE11 1 00399E11 1 00099E11 1 00099E11 1 00099G11U1 99999K11 1 00017L11 1 01000M11 1 30300N11 1 00000Q11 1 10295S11 1 00043V11 1 00703X11 1 36023
0269999999038151972011517005+30483-087350SAO  +0028NUN  V0203605N011350762049N016000599+00785-00835103035ADDGD13995+9999999GD20995+9999999GD30995+9999999GD40995+9999999GF106055999999999999999999MA1999999102685EQDN01 00000JPWTH 1QNNE11 1 00499E11 1 00099E11 1 00099E11 1 00099G11 1 00250K11 1 00017L11 1 01000M11 1 30320N11 1 00000Q11 1 10303S11 1 00046V11 1 00706X11 1 36022
0377999999038151972011518005+30483-087350SAO  +0028NUN  V0200205N009350762049N016000599+00835-00835103035ADDGA1999+076204004GA2999+999999999GA3999+999999999GA4999+999999999GD13065+9999999GD20005+9999999GD30005+9999999GD40005+9999999GF106065999999999999999999MA1999999102685EQDN01 00000JPWTH 1QNNE11 1 00407E11 1 00000E11 1 00000E11 1 00000G11 1 00250H11 1 32250H11 1 00999H11 1 00999H11 1 00999K11 1 00017L11 1 01000M11 1 30320N11 1 00000Q11 1 10303S11 1 00047V11 1 00707X11 1 02018
0269999999038151972011519005+30483-087350SAO  +0028NUN  V0200105N011850762049N016000599+00945-00835102895ADDGD13995+9999999GD20995+9999999GD30995+9999999GD40995+9999999GF106055999999999999999999MA1999999102545EQDN01 00000JPWTH 1QNNE11 1 00499E11 1 00099E11 1 00099E11 1 00099G11 1 00250K11 1 00017L11 1 01000M11 1 30280N11 1 00000Q11 1 10289S11 1 00049V11 1 00706X11 1 01023
0269999999038151972011520005+30483-087350SAO  +0028NUN  V0203505N010350762049N016000599+00895-00785102855ADDGD13995+9999999GD20995+9999999GD30995+9999999GD40995+9999999GF106055999999999999999999MA1999999102545EQDN01 00000JPWTH 1QNNE11 1 00499E11 1 00099E11 1 00099E11 1 00099G11 1 00250K11 1 00018L11 1 01000M11 1 30280N11 1 00000Q11 1 10285S11 1 00048V11 1 00706X11 1 35020
0269999999038151972011711005+30483-087350SAO  +0028NUN  V0200405N005252200059N011200599-00065-00945103275ADDGD10995+9999999GD20995+9999999GD30995+9999999GD40995+9999999GF100005999999999999999999MA1999999102915EQDN01 00000JPWTH 1QNNE11 1 00099E11 1 00099E11 1 00099E11 1 00099G11U1 99999K11 1 00015L11 1 00700M11 1 30390N11 1 00000Q11 1 10327S11 1 00031V11 1 00000X11 1 04010
0165999999038151972011712005+30483-087350SAO  +0028NUN  V0200505N005752200059N011200599-00065-00895103345ADDGF100005999999999999999999MA1999999102985EQDN01 00000JPWTH 1QNNG11U1 99999K11 1 00016L11 1 00700M11 1 30410N11 1 00000Q11 1 10334S11 1 00031V11 1 00000X11 1 05011
0269999999038151972011713005+30483-087350SAO  +0028NUN  V0200505N006252200059N016000599-00115-00895103345ADDGD10995+9999999GD20995+9999999GD30995+9999999GD40995+9999999GF100005999999999999999999MA1999999102985EQDN01 00000JPWTH 1QNNE11 1 00099E11 1 00099E11 1 00099E11 1 00099G11U1 99999K11 1 00016L11 1 01000M11 1 30410N11 1 00000Q11 1 10334S11 1 00030V11 1 00000X11 1 05012
0269999999038151972011714005+30483-087350SAO  +0028NUN  V0200505N006752200059N016000599+00005-00945103395ADDGD10995+9999999GD20995+9999999GD30995+9999999GD40995+9999999GF100005999999999999999999MA1999999103015EQDN01 00000JPWTH 1QNNE11 1 00099E11 1 00099E11 1 00099E11 1 00099G11U1 99999K11 1 00015L11 1 01000M11 1 30420N11 1 00000Q11 1 10339S11 1 00032V11 1 00000X11 1 05013
0165999999038151972011715005+30483-087350SAO  +0028NUN  V0200505N006752200059N016000599+00175-00835103435ADDGF100005999999999999999999MA1999999103085EQDN01 00000JPWTH 1QNNG11U1 99999K11 1 00017L11 1 01000M11 1 30440N11 1 00000Q11 1 10343S11 1 00035V11 1 00000X11 1 05013
0269999999038151972011716005+30483-087350SAO  +0028NUN  V0200605N006252200059N016000599+00445-00565103435ADDGD10995+9999999GD20995+9999999GD30995+9999999GD40995+9999999GF100005999999999999999999MA1999999103085EQDN01 00000JPWTH 1QNNE11 1 00099E11 1 00099E11 1 00099E11 1 00099G11U1 99999K11 1 00022L11 1 01000M11 1 30440N11 1 00000Q11 1 10343S11 1 00040V11 1 00000X11 1 06012
0269999999038151972011717005+30483-087350SAO  +0028NUN  V0200505N004152200059N016000599+00785-00285103395ADDGD10995+9999999GD20995+9999999GD30995+9999999GD40995+9999999GF100005999999999999999999MA1999999103055EQDN01 00000JPWTH 1QNNE11 1 00099E11 1 00099E11 1 00099E11 1 00099G11U1 99999K11 1 00027L11 1 01000M11 1 30430N11 1 00000Q11 1 10339S11 1 00046V11 1 00000X11 1 05008
0165999999038151972011718005+30483-087350SAO  +0028NUN  V0200405N004152200059N016000599+01005-00175103295ADDGF100005999999999999999999MA1999999102955EQDN01 00000JPWTH 1QNNG11U1 99999K11 1 00029L11 1 01000M11 1 30400N11 1 00000Q11 1 10329S11 1 00050V11 1 00000X11 1 04008
0269999999038151972011719005+30483-087350SAO  +0028NUN  V0200805N003152200059N016000599+01225-00175103135ADDGD10995+9999999GD20995+9999999GD30995+9999999GD40995+9999999GF100005999999999999999999MA1999999102785EQDN01 00000JPWTH 1QNNE11 1 00099E11 1 00099E11 1 00099E11 1 00099G11U1 99999K11 1 00029L11 1 01000M11 1 30350N11 1 00000Q11 1 10313S11 1 00054V11 1 00000X11 1 08006
0269999999038151972011720005+30483-087350SAO  +0028NUN  V0200905N004152200059N016000599+01335-00335103065ADDGD10995+9999999GD20995+9999999GD30995+9999999GD40995+9999999GF100005999999999999999999MA1999999102715EQDN01 00000JPWTH 1QNNE11 1 00099E11 1 00099E11 1 00099E11 1 00099G11U1 99999K11 1 00026L11 1 01000M11 1 30330N11 1 00000Q11 1 10306S11 1 00056V11 1 00000X11 1 09008
0165999999038151972011721005+30483-087350SAO  +0028NUN  V0201005N003652200059N016000599+01335-00675102995ADDGF100005999999999999999999MA1999999102645EQDN01 00000JPWTH 1QNNG11U1 99999K11 1 00020L11 1 01000M11 1 30310N11 1 00000Q11 1 10299S11 1 00056V11 1 00000X11 1 10007
0269999999038151972011722005+30483-087350SAO  +0028NUN  V0200705N005252200059N016000599+01335-00895102955ADDGD10995+9999999GD20995+9999999GD30995+9999999GD40995+9999999GF100005999999999999999999MA1999999102615EQDN01 00000JPWTH 1QNNE11 1 00099E11 1 00099E11 1 00099E11 1 00099G11U1 99999K11 1 00016L11 1 01000M11 1 30300N11 1 00000Q11 1 10295S11 1 00056V11 1 00000X11 1 07010
0269999999038151972011723005+30483-087350SAO  +0028NUN  V0200705N005252200059N016000599+01175-01005102925ADDGD10995+9999999GD20995+9999999GD30995+9999999GD40995+9999999GF100005999999999999999999MA1999999102575EQDN01 00000JPWTH 1QNNE11 1 00099E11 1 00099E11 1 00099E11 1 00099G11U1 99999K11 1 00014L11 1 01000M11 1 30290N11 1 00000Q11 1 10292S11 1 00053V11 1 00000X11 1 07010
0165999999038151972011800005+30483-087350SAO  +0028NUN  V0201105N004152200059N011200599+00895-00895102895ADDGF100005999999999999999999MA1999999102575EQDN01 00000JPWTH 1QNNG11U1 99999K11 1 00016L11 1 00700M11 1 30290N11 1 00000Q11 1 10289S11 1 00048V11 1 00000X11 1 11008
0269999999038151972011801005+30483-087350SAO  +0028NUN  V0200905N003652200059N011200599+00785-00505102895ADDGD10995+9999999GD20995+9999999GD30995+9999999GD40995+9999999GF100005999999999999999999MA1999999102545EQDN01 00000JPWTH 1QNNE11 1 00099E11 1 00099E11 1 00099E11 1 00099G11U1 99999K11 1 00023L11 1 00700M11 1 30280N11 1 00000Q11 1 10289S11 1 00046V11 1 00000X11 1 09007
0275999999038151972011802005+30483-087350SAO  +0028NUN  V0200705N003652200059N009600599+00675-00505102895ADDGD10995+9999999GD20995+9999999GD30995+9999999GD40995+9999999GF100005999999999999999999MA1999999102545MW1045EQDN01 08200JPWTH 1QNNE11 1 00099E11 1 00099E11 1 00099E11 1 00099G11U1 99999K11 1 00023L11 1 00600M11 1 30280N11 1 08200Q11 1 10289S11 1 00044V11 1 00000X11 1 07007
0165999999038151972011803005+30483-087350SAO  +0028NUN  V0200805N005752200059N011200599+00725-00285102855ADDGF100005999999999999999999MA1999999102515EQDN01 00000JPWTH 1QNNG11U1 99999K11 1 00027L11 1 00700M11 1 30270N11 1 00000Q11 1 10285S11 1 00045V11 1 00000X11 1 08011
0269999999038151972011804005+30483-087350SAO  +0028NUN  V0200805N004652200059N011200599+00785-00225102855ADDGD10995+9999999GD20995+9999999GD30995+9999999GD40995+9999999GF100005999999999999999999MA1999999102515EQDN01 00000JPWTH 1QNNE11 1 00099E11 1 00099E11 1 00099E11 1 00099G11U1 99999K11 1 00028L11 1 00700M11 1 30270N11 1 00000Q11 1 10285S11 1 00046V11 1 00000X11 1 08009
0269999999038151972011811005+30483-087350SAO  +0028NUN  V0200705N005252200059N011200599+00675+00395102515ADDGD10995+9999999GD20995+9999999GD30995+9999999GD40995+9999999GF100005999999999999999999MA1999999102175EQDN01 00000JPWTH 1QNNE11 1 00099E11 1 00099E11 1 00099E11 1 00099G11U1 99999K11 1 00039L11 1 00700M11 1 30170N11 1 00000Q11 1 10251S11 1 00044V11 1 00000X11 1 07010
0165999999038151972011812005+30483-087350SAO  +0028NUN  V0200805N006252200059N011200599+00675+00445102515ADDGF100005999999999999999999MA1999999102175EQDN01 00000JPWTH 1QNNG11U1 99999K11 1 00040L11 1 00700M11 1 30170N11 1 00000Q11 1 10251S11 1 00044V11 1 00000X11 1 08012
0275999999038151972011813005+30483-087350SAO  +0028NUN  V0200705N005252200059N009600599+00725+00565102555ADDGD11995+9999993GD20995+9999999GD30995+9999999GD40995+9999999GF102015999999999999999999MA1999999102205MW1445EQDN01 07200JPWTH 1QNNE11 1 00199E11 1 00099E11 1 00099E11 1 00099G11U1 99999K11 1 00042L11 1 00600M11 1 30180N11 1 07200Q11 1 10255S11 1 00045V11 1 00201X11 1 07010
0269999999038151972011814005+30483-087350SAO  +0028NUN  V0200905N005252200059N011200599+00895+00675102555ADDGD10995+9999999GD20995+9999999GD30995+9999999GD40995+9999999GF100005999999999999999999MA1999999102205EQDN01 00000JPWTH 1QNNE11 1 00099E11 1 00099E11 1 00099E11 1 00099G11U1 99999K11 1 00044L11 1 00700M11 1 30180N11 1 00000Q11 1 10255S11 1 00048V11 1 00000X11 1 09010
0171999999038151972011815005+30483-087350SAO  +0028NUN  V0200905N005252200059N009600599+01225+00835102585ADDGF100005999999999999999999MA1999999102245MW1055EQDN01 08100JPWTH 1QNNG11U1 99999K11 1 00047L11 1 00600M11 1 30190N11 1 08100Q11 1 10258S11 1 00054V11 1 00000X11 1 09010
0269999999038151972011816005+30483-087350SAO  +0028NUN  V0201005N004152200059N016000599+01565+01115102605ADDGD11995+9999993GD20995+9999999GD30995+9999999GD40995+9999999GF101005999999999999999999MA1999999102275EQDN01 00000JPWTH 1QNNE11 1 00199E11 1 00099E11 1 00099E11 1 00099G11U1 99999K11 1 00052L11 1 01000M11 1 30200N11 1 00000Q11 1 10260S11 1 00060V11 1 00100X11 1 10008
0275999999038151972011817005+30483-087350SAO  +0028NUN  V0201205N007250030549N009600599+01615+01065102535ADDGD13995+9999993GD23995+9999999GD33995+9999999GD40995+9999999GF107065999999999999999999MA1999999102205MW1055EQDN01 08100JPWTH 1QNNE11 1 00399E11 1 00499E11 1 00499E11 1 00099G11 1 00010K11 1 00051L11 1 00600M11 1 30180N11 1 08100Q11 1 10253S11 1 00061V11 1 00907X11 1 12014
0383999999038151972011818005+30483-087350SAO  +0028NUN  V0201405N006250030549N009600599+01835+01395102375ADDGA1999+001834074GA2999+003054074GA3999+076204004GA4999+999999999GD12025+9999999GD23035+9999999GD33015+9999999GD40005+9999999GF106065999999999999999999MA1999999102035MW1055EQDN01 08100JPWTH 1QNNE11 1 00203E11 1 00404E11 1 00401E11 1 00000G11 1 00010H11 1 16006H11 1 16010H11 1 32250H11 1 00999K11 1 00057L11 1 00600M11 1 30130N11 1 08100Q11 1 10237S11 1 00065V11 1 00807X11 1 14012
0275999999038151972011819005+30483-087350SAO  +0028NUN  V0201205N007250030549N009600599+01895+01335102345ADDGD12995+9999999GD23995+9999999GD33995+9999999GD40995+9999999GF106065999999999999999999MA1999999102005MW1055EQDN01 08100JPWTH 1QNNE11 1 00299E11 1 00499E11 1 00499E11 1 00099G11 1 00010K11 1 00056L11 1 00600M11 1 30120N11 1 08100Q11 1 10234S11 1 00066V11 1 00808X11 1 12014
0275999999038151972011820005+30483-087350SAO  +0028NUN  V0201305N007250051849N009600599+02005+01445102235ADDGD12995+9999999GD23995+9999999GD33995+9999999GD40995+9999999GF106065999999999999999999MA1999999101935MW1055EQDN01 08100JPWTH 1QNNE11 1 00299E11 1 00499E11 1 00499E11 1 00099G11 1 00017K11 1 00058L11 1 00600M11 1 30100N11 1 08100Q11 1 10223S11 1 00068V11 1 00807X11 1 13014
0377999999038151972011821005+30483-087350SAO  +0028NUN  V0201305N006750051849N011200599+01945+01335102275ADDGA1999+003054074GA2999+005184064GA3999+076204004GA4999+999999999GD12025+9999999GD23025+9999999GD33025+9999999GD40005+9999999GF106065999999999999999999MA1999999101965EQDN01 00000JPWTH 1QNNE11 1 00203E11 1 00403E11 1 00402E11 1 00000G11 1 00017H11 1 16010H11 1 15017H11 1 32250H11 1 00999K11 1 00056L11 1 00700M11 1 30110N11 1 00000Q11 1 10227S11 1 00067V11 1 00807X11 1 13013
0269999999038151972011822005+30483-087350SAO  +0028NUN  V0201105N005250365849N011200599+01785+01395102235ADDGD12995+9999999GD22995+9999999GD33995+9999999GD44995+9999999GF108065999999999999999999MA1999999101935EQDN01 00000JPWTH 1QNNE11 1 00299E11 1 00299E11 1 00499E11 1 00699G11 1 00120K11 1 00057L11 1 00700M11 1 30100N11 1 00000Q11 1 10223S11 1 00064V11 1 01008X11 1 11010
0269999999038151972011823005+30483-087350SAO  +0028NUN  V0201305N003150365849N011200599+01725+01395102275ADDGD12995+9999999GD23995+9999999GD34995+9999999GD40995+9999999GF108065999999999999999999MA1999999101935EQDN01 00000JPWTH 1QNNE11 1 00299E11 1 00499E11 1 00699E11 1 00099G11 1 00120K11 1 00057L11 1 00700M11 1 30100N11 1 00000Q11 1 10227S11 1 00063V11 1 01007X11 1 13006
0377999999038151972011900005+30483-087350SAO  +0028NUN  V0201105N004150304849N011200599+01675+01395102235ADDGA1999+005184064GA2999+013724064GA3999+030484034GA4999+076204004GD12025+9999999GD22025+9999999GD33035+9999999GD44025+9999999GF108075999999999999999999MA1999999101905EQDN01 00000JPWTH 1QNNE11 1 00202E11 1 00202E11 1 00404E11 1 00602G11 1 00100H11 1 15017H11 1 15045H11 1 23100H11 1 32250K11 1 00057L11 1 00700M11 1 30090N11 1 00000Q11 1 10223S11 1 00062V11 1 01009X11 1 11008
0269999999038151972011901005+30483-087350SAO  +0028NUN  V0201105N002650304849N011200599+01675+01395102235ADDGD12995+9999999GD23995+9999999GD34995+9999999GD40995+9999999GF108075999999999999999999MA1999999101905EQDN01 00000JPWTH 1QNNE11 1 00299E11 1 00499E11 1 00699E11 1 00099G11 1 00100K11 1 00057L11 1 00700M11 1 30090N11 1 00000Q11 1 10223S11 1 00062V11 1 01009X11 1 11005
0269999999038151972011902005+30483-087350SAO  +0028NUN  V0201105N003150304849N011200599+01675+01395102235ADDGD13995+9999999GD23995+9999999GD30995+9999999GD40995+9999999GF107065999999999999999999MA1999999101905EQDN01 00000JPWTH 1QNNE11 1 00499E11 1 00499E11 1 00099E11 1 00099G11 1 00100K11 1 00057L11 1 00700M11 1 30090N11 1 00000Q11 1 10223S11 1 00062V11 1 00908X11 1 11006
0377999999038151972011903005+30483-087350SAO  +0028NUN  V0201305N002650304849N011200599+01675+01445102275ADDGA1999+030484034GA2999+076204004GA3999+999999999GA4999+999999999GD13065+9999999GD23025+9999999GD30005+9999999GD40005+9999999GF107075999999999999999999MA1999999101965EQDN01 00000JPWTH 1QNNE11 1 00407E11 1 00402E11 1 00000E11 1 00000G11 1 00100H11 1 23100H11 1 32250H11 1 00999H11 1 00999K11 1 00058L11 1 00700M11 1 30110N11 1 00000Q11 1 10227S11 1 00062V11 1 00909X11 1 13005
0269999999038151972011904005+30483-087350SAO  +0028NUN  V0201405N003650304849N011200599+01725+01395102275ADDGD13995+9999999GD23995+9999999GD30995+9999999GD40995+9999999GF107075999999999999999999MA1999999101965EQDN01 00000JPWTH 1QNNE11 1 00499E11 1 00499E11 1 00099E11 1 00099G11 1 00100K11 1 00057L11 1 00700M11 1 30110N11 1 00000Q11 1 10227S11 1 00063V11 1 00909X11 1 14007
0269999999038151972011911005+30483-087350SAO  +0028NUN  V0201005N003150045749N011200599+01675+01505102165ADDGD13995+9999999GD24995+9999999GD30995+9999999GD40995+9999999GF108085999999999999999999MA1999999101835EQDN01 00000JPWTH 1QNNE11 1 00499E11 1 00699E11 1 00099E11 1 00099G11 1 00015K11 1 00059L11 1 00700M11 1 30070N11 1 00000Q11 1 10216S11 1 00062V11 1 01010X11 1 10006
0329999999038151972011912005+30483-087350SAO  +0028NUN  V0201005N004150054949N009600599+01675+01565102195ADDGA1999+005494064GA2999+012194064GD13055+9999999GD24035+9999999GD30995+9999999GD40995+9999999GF108085999999999999999999MA1999999101865MW1445EQDN01 07200JPWTH 1QNNE11 1 00406E11 1 00604E11 1 00099E11 1 00099G11 1 00018H11 1 15018H11 1 15040K11 1 00060L11 1 00600M11 1 30080N11 1 07200Q11 1 10219S11 1 00062V11 1 01010X11 1 10008
0275999999038151972011913005+30483-087350SAO  +0028NUN  V0201105N003650106749N009600599+01565+01505102235ADDGD12995+9999999GD23995+9999999GD33995+9999999GD40995+9999999GF107075999999999999999999MA1999999101935MW1445EQDN01 07200JPWTH 1QNNE11 1 00299E11 1 00499E11 1 00499E11 1 00099G11 1 00035K11 1 00059L11 1 00600M11 1 30100N11 1 07200Q11 1 10223S11 1 00060V11 1 00909X11 1 11007
0275999999038151972011914005+30483-087350SAO  +0028NUN  V0200805N002150091449N006400599+01615+01505102345ADDGD12995+9999999GD23995+9999999GD34995+9999999GD40995+9999999GF108075999999999999999999MA1999999102005MW1445EQDN01 07200JPWTH 1QNNE11 1 00299E11 1 00499E11 1 00699E11 1 00099G11 1 00030K11 1 00059L11 1 00400M11 1 30120N11 1 07200Q11 1 10234S11 1 00061V11 1 01009X11 1 08004
0383999999038151972011915005+30483-087350SAO  +0028NUN  V0201105N003650106749N008000599+01675+01505102375ADDGA1999+010674064GA2999+027434034GA3999+999999999GA4999+999999999GD13055+9999999GD23025+9999999GD30005+9999999GD40005+9999999GF106065999999999999999999MA1999999102035MW1445EQDN01 07200JPWTH 1QNNE11 1 00406E11 1 00402E11 1 00000E11 1 00000G11 1 00035H11 1 15035H11 1 23090H11 1 00999H11 1 00999K11 1 00059L11 1 00500M11 1 30130N11 1 07200Q11 1 10237S11 1 00062V11 1 00808X11 1 11007
0275999999038151972011916005+30483-087350SAO  +0028NUN  V0201005N003150091449N008000599+01835+01675102435ADDGD12995+9999999GD23995+9999999GD33995+9999999GD40995+9999999GF107075999999999999999999MA1999999102105MW1445EQDN01 07200JPWTH 1QNNE11 1 00299E11 1 00499E11 1 00499E11 1 00099G11 1 00030K11 1 00062L11 1 00500M11 1 30150N11 1 07200Q11 1 10243S11 1 00065V11 1 00909X11 1 10006
0275999999038151972011917005+30483-087350SAO  +0028NUN  V0201005N004150091449N009600599+02065+01785102405ADDGD12995+9999999GD23995+9999999GD33995+9999999GD40995+9999999GF106065999999999999999999MA1999999102075MW1055EQDN01 08100JPWTH 1QNNE11 1 00299E11 1 00499E11 1 00499E11 1 00099G11 1 00030K11 1 00064L11 1 00600M11 1 30140N11 1 08100Q11 1 10240S11 1 00069V11 1 00808X11 1 10008
0383999999038151972011918005+30483-087350SAO  +0028NUN  V0201305N004650091449N009600599+02175+01835102275ADDGA1999+003664154GA2999+009144064GA3999+024384034GA4999+999999999GD12025+9999999GD23045+9999999GD34025+9999999GD40005+9999999GF108075999999999999999999MA1999999101935MW1055EQDN01 08100JPWTH 1QNNE11 1 00203E11 1 00405E11 1 00602E11 1 00000G11 1 00030H11 1 17012H11 1 15030H11 1 23080H11 1 00999K11 1 00065L11 1 00600M11 1 30100N11 1 08100Q11 1 10227S11 1 00071V11 1 01009X11 1 13009
0275999999038151972011919005+30483-087350SAO  +0028NUN  V0201305N004650036649N009600599+02065+01785102195ADDGD13995+9999999GD23995+9999999GD34995+9999999GD40995+9999999GF108075999999999999999999MA1999999101865MW1055EQDN01 08100JPWTH 1QNNE11 1 00499E11 1 00499E11 1 00699E11 1 00099G11 1 00012K11 1 00064L11 1 00600M11 1 30080N11 1 08100Q11 1 10219S11 1 00069V11 1 01009X11 1 13009
0275999999038151972011920005+30483-087350SAO  +0028NUN  V0200805N004650024449N011200599+02005+01785102165ADDGD13995+9999999GD23995+9999999GD34995+9999999GD40995+9999999GF108085999999999999999999MA1999999101865MW1615EQDN01 02000JPWTH 1QNNE11 1 00499E11 1 00499E11 1 00699E11 1 00099G11 1 00008K11 1 00064L11 1 00700M11 1 30080N11 1 02000Q11 1 10216S11 1 00068V11 1 01010X11 1 08009
0350999999038151972011921005+30483-087350SAO  +0028NUN  V0201105N003150021349N011200599+01895+01785102135ADDGA1999+002134074GA2999+003664064GA3999+009144084GD13055+9999999GD23025+9999999GD34025+9999999GD40995+9999999GF108085999999999999999999MA1999999101795EQDN01 00000JPWTH 1QNNE11 1 00406E11 1 00402E11 1 00602E11 1 00099G11 1 00007H11 1 16007H11 1 15012H11 1 11030K11 1 00064L11 1 00700M11 1 30060N11 1 00000Q11 1 10213S11 1 00066V11 1 01010X11 1 11006
0269999999038151972011922005+30483-087350SAO  +0028NUN  V0200905N003150018349N011200599+01895+01785102165ADDGD13995+9999999GD24995+9999999GD30995+9999999GD40995+9999999GF108085999999999999999999MA1999999101835EQDN01 00000JPWTH 1QNNE11 1 00499E11 1 00699E11 1 00099E11 1 00099G11 1 00006K11 1 00064L11 1 00700M11 1 30070N11 1 00000Q11 1 10216S11 1 00066V11 1 01010X11 1 09006
0269999999038151972011923005+30483-087350SAO  +0028NUN  V0201005N004650024449N011200599+01835+01785102165ADDGD13995+9999999GD23995+9999999GD34995+9999999GD40995+9999999GF108085999999999999999999MA1999999101835EQDN01 00000JPWTH 1QNNE11 1 00499E11 1 00499E11 1 00699E11 1 00099G11 1 00008K11 1 00064L11 1 00700M11 1 30070N11 1 00000Q11 1 10216S11 1 00065V11 1 01010X11 1 10009
0362999999038151972012000005+30483-087350SAO  +0028NUN  V0201205N005250121949N008000599+01835+01785102135ADDGA1999+001524074GA2999+012194094GA3999+030484034GD12025+9999999GD23025+9999999GD34035+9999999GD40995+9999999GF108085999999999999999999MA1999999101795MW1055MW2805EQDN01 02381JPWTH 1QNNE11 1 00203E11 1 00403E11 1 00604E11 1 00099G11 1 00040H11 1 16005H11 1 18040H11 1 23100K11 1 00064L11 1 00500M11 1 30060N11 1 02381Q11 1 10213S11 1 00065V11 1 01010X11 1 12010
0275999999038151972012001005+30483-087350SAO  +0028NUN  V0201105N003150021349N008000599+01835+01785102165ADDGD13995+9999999GD23995+9999999GD34995+9999999GD40995+9999999GF108085999999999999999999MA1999999101835MW1455EQDN01 07000JPWTH 1QNNE11 1 00499E11 1 00499E11 1 00699E11 1 00099G11 1 00007K11 1 00064L11 1 00500M11 1 30070N11 1 07000Q11 1 10216S11 1 00065V11 1 01010X11 1 11006
0275999999038151972012002005+30483-087350SAO  +0028NUN  V0201305N003650121949N008000599+01835+01785102195ADDGD12995+9999999GD22995+9999999GD33995+9999999GD44995+9999999GF108085999999999999999999MA1999999101865MW1455EQDN01 07000JPWTH 1QNNE11 1 00299E11 1 00299E11 1 00499E11 1 00699G11 1 00040K11 1 00064L11 1 00500M11 1 30080N11 1 07000Q11 1 10219S11 1 00065V11 1 01010X11 1 13007
0377999999038151972012003005+30483-087350SAO  +0028NUN  V0201305N002650027449N011200599+01895+01835102165ADDGA1999+002744074GA2999+999999999GA3999+999999999GA4999+999999999GD13065+9999999GD20005+9999999GD30005+9999999GD40005+9999999GF106065999999999999999999MA1999999101865EQDN01 00000JPWTH 1QNNE11 1 00407E11 1 00000E11 1 00000E11 1 00000G11 1 00009H11 1 16009H11 1 00999H11 1 00999H11 1 00999K11 1 00065L11 1 00700M11 1 30080N11 1 00000Q11 1 10216S11 1 00066V11 1 00707X11 1 13005
0269999999038151972012004005+30483-087350SAO  +0028NUN  V0201505N004150057949N011200599+01895+01785102195ADDGD12995+9999999GD23995+9999999GD34995+9999999GD40995+9999999GF108085999999999999999999MA1999999101865EQDN01 00000JPWTH 1QNNE11 1 00299E11 1 00499E11 1 00699E11 1 00099G11 1 00019K11 1 00064L11 1 00700M11 1 30080N11 1 00000Q11 1 10219S11 1 00066V11 1 01010X11 1 15008
0275999999038151972012011005+30483-087350SAO  +0028NUN  V0201205N003150152449N009600599+01675+01505101965ADDGD14995+9999999GD20995+9999999GD30995+9999999GD40995+9999999GF108085999999999999999999MA1999999101635MW1615EQDN01 02000JPWTH 1QNNE11 1 00699E11 1 00099E11 1 00099E11 1 00099G11 1 00050K11 1 00059L11 1 00600M11 1 30010N11 1 02000Q11 1 10196S11 1 00062V11 1 01010X11 1 12006
0296999999038151972012012005+30483-087350SAO  +0028NUN  V0201305N003650152449N011200599+01675+01565101935ADDGA1999+015244064GD14085+9999999GD20995+9999999GD30995+9999999GD40995+9999999GF108085999999999999999999MA1999999101595EQDN01 00000JPWTH 1QNNE11 1 00610E11 1 00099E11 1 00099E11 1 00099G11 1 00050H11 1 15050K11 1 00060L11 1 00700M11 1 30000N11 1 00000Q11 1 10193S11 1 00062V11 1 01010X11 1 13007
0275999999038151972012013005+30483-087350SAO  +0028NUN  V0201505N001050152449N009600599+01725+01565101965ADDGD13995+9999999GD23995+9999999GD34995+9999999GD40995+9999999GF108085999999999999999999MA1999999101635MW1615EQDN01 02000JPWTH 1QNNE11 1 00499E11 1 00499E11 1 00699E11 1 00099G11 1 00050K11 1 00060L11 1 00600M11 1 30010N11 1 02000Q11 1 10196S11 1 00063V11 1 01010X11 1 15002
